F0010000007337600001000086053108300011050500000000000000000201507100002001EL PALACIO DEL ALUMINIO  LTDA                     D000000009000000000000000000000000100010010000000000000000000000F0010000007337600120150710000101 00000000000000000000000000000000000000000000000000000000000000000000000000000000000000000000000000000000000000000N 00000000000NCONT   00    00000000000          00000000000000000000000000000000000000000000 000000000000000A000000000000000000000000000000000000000000000 000000000000000000000000000000000000000     00000000                                                                                                                        000000000000000000
F0010000007337600002000086053108300041450500000000000000000201507100002001EL PALACIO DEL ALUMINIO  LTDA                     C000000007700000000000000000000000100010010000000000000000000000F0010000007337600220150710000101 00000000000000000000000000000000000000000000000000000000000000000000000000000000000000000000000000000000000000000N 00000000000NCONT   00    00000000000          00000000000000000000000000000000000000000000 000000000000000A000000000000000000000000000000000000000000000 000000000000000000000000000000000000000     00000000                                                                                                                        000000000000000000
F0010000007337600003000086053108300042505000000000000000000201507100002001EL PALACIO DEL ALUMINIO  LTDA                     C000000001300000000000000000000000100010010000000000000000000000F0010000007337600320150710000101 00000000000000000000000000000000000000000000000000000000000000000000000000000000000000000000000000000000000000000N 00000000000NCONT   00    00000000000          00000000000000000000000000000000000000000000 000000000000000A000000000000000000000000000000000000000000000 000000000000000000000000000000000000000     00000000                                                                                                                        000000000000000000
F0010000007337600004000086053108300023658300000000000000000201507100002001EL PALACIO DEL ALUMINIO  LTDA                     C000000000061600000000000000000000100010010000000000000000000000F0010000007337600420150710000101 00000000000000000000000000000000000000000000000000000000000000000000000000000000000000000000000000000000000000000N 00000000000NCONT   00    00000000000          00000000000000000000000000000000000000000000 000000000000000A000000000000000000000000000000000000000000000 000000000000000000000000000000000000000     00000000                                                                                                                        000000000000000000
F0010000007337600005000086053108300013552100000000000000000201507100002001EL PALACIO DEL ALUMINIO  LTDA                     D000000000061600000000000000000000100010010000000000000000000000F0010000007337600520150710000101 00000000000000000000000000000000000000000000000000000000000000000000000000000000000000000000000000000000000000000N 00000000000NCONT   00    00000000000          00000000000000000000000000000000000000000000 000000000000000A000000000000000000000000000000000000000000000 000000000000000000000000000000000000000     00000000                                                                                                                        000000000000000000
F0010000007337700001000090073498600011050500000000000000000201507100002001VALTAC S.A.S                                      D000000001100000000000000000000000100010010000000000000000000000F0010000007337700120150710000101 00000000000000000000000000000000000000000000000000000000000000000000000000000000000000000000000000000000000000000N 00000000000NCONT   00    00000000000          00000000000000000000000000000000000000000000 000000000000000A000000000000000000000000000000000000000000000 000000000000000000000000000000000000000     00000000                                                                                                                        000000000000000000
F0010000007337700002000090073498600041450500000000000000000201507100002001VALTAC S.A.S                                      C000000000800000000000000000000000100010010000000000000000000000F0010000007337700220150710000101 00000000000000000000000000000000000000000000000000000000000000000000000000000000000000000000000000000000000000000N 00000000000NCONT   00    00000000000          00000000000000000000000000000000000000000000 000000000000000A000000000000000000000000000000000000000000000 000000000000000000000000000000000000000     00000000                                                                                                                        000000000000000000
F0010000007337700003000090073498600042505000000000000000000201507100002001VALTAC S.A.S                                      C000000000300000000000000000000000100010010000000000000000000000F0010000007337700320150710000101 00000000000000000000000000000000000000000000000000000000000000000000000000000000000000000000000000000000000000000N 00000000000NCONT   00    00000000000          00000000000000000000000000000000000000000000 000000000000000A000000000000000000000000000000000000000000000 000000000000000000000000000000000000000     00000000                                                                                                                        000000000000000000
F0010000007337700004000090073498600023658300000000000000000201507100002001VALTAC S.A.S                                      C000000000006400000000000000000000100010010000000000000000000000F0010000007337700420150710000101 00000000000000000000000000000000000000000000000000000000000000000000000000000000000000000000000000000000000000000N 00000000000NCONT   00    00000000000          00000000000000000000000000000000000000000000 000000000000000A000000000000000000000000000000000000000000000 000000000000000000000000000000000000000     00000000                                                                                                                        000000000000000000
F0010000007337700005000090073498600013552100000000000000000201507100002001VALTAC S.A.S                                      D000000000006400000000000000000000100010010000000000000000000000F0010000007337700520150710000101 00000000000000000000000000000000000000000000000000000000000000000000000000000000000000000000000000000000000000000N 00000000000NCONT   00    00000000000          00000000000000000000000000000000000000000000 000000000000000A000000000000000000000000000000000000000000000 000000000000000000000000000000000000000     00000000                                                                                                                        000000000000000000
F0010000007337800001000089011508200011050500000000000000000201507100002001ALMACEN Y TALLER CICLOCOSTA                       D000000002100000000000000000000000100010010000000000000000000000F0010000007337800120150710000101 00000000000000000000000000000000000000000000000000000000000000000000000000000000000000000000000000000000000000000N 00000000000NCONT   00    00000000000          00000000000000000000000000000000000000000000 000000000000000A000000000000000000000000000000000000000000000 000000000000000000000000000000000000000     00000000                                                                                                                        000000000000000000
F0010000007337800002000089011508200041450500000000000000000201507100002001ALMACEN Y TALLER CICLOCOSTA                       C000000001750000000000000000000000100010010000000000000000000000F0010000007337800220150710000101 00000000000000000000000000000000000000000000000000000000000000000000000000000000000000000000000000000000000000000N 00000000000NCONT   00    00000000000          00000000000000000000000000000000000000000000 000000000000000A000000000000000000000000000000000000000000000 000000000000000000000000000000000000000     00000000                                                                                                                        000000000000000000
F0010000007337800003000089011508200042505000000000000000000201507100002001ALMACEN Y TALLER CICLOCOSTA                       C000000000350000000000000000000000100010010000000000000000000000F0010000007337800320150710000101 00000000000000000000000000000000000000000000000000000000000000000000000000000000000000000000000000000000000000000N 00000000000NCONT   00    00000000000          00000000000000000000000000000000000000000000 000000000000000A000000000000000000000000000000000000000000000 000000000000000000000000000000000000000     00000000                                                                                                                        000000000000000000
F0010000007337800004000089011508200023658300000000000000000201507100002001ALMACEN Y TALLER CICLOCOSTA                       C000000000014000000000000000000000100010010000000000000000000000F0010000007337800420150710000101 00000000000000000000000000000000000000000000000000000000000000000000000000000000000000000000000000000000000000000N 00000000000NCONT   00    00000000000          00000000000000000000000000000000000000000000 000000000000000A000000000000000000000000000000000000000000000 000000000000000000000000000000000000000     00000000                                                                                                                        000000000000000000
F0010000007337800005000089011508200013552100000000000000000201507100002001ALMACEN Y TALLER CICLOCOSTA                       D000000000014000000000000000000000100010010000000000000000000000F0010000007337800520150710000101 00000000000000000000000000000000000000000000000000000000000000000000000000000000000000000000000000000000000000000N 00000000000NCONT   00    00000000000          00000000000000000000000000000000000000000000 000000000000000A000000000000000000000000000000000000000000000 000000000000000000000000000000000000000     00000000                                                                                                                        000000000000000000
F0010000007337900001000001258171500011050500000000000000000201507100002001EDMUNDO  ESCOBAR JACOME                           D000000004000000000000000000000000100010010000000000000000000000F0010000007337900120150710000101 00000000000000000000000000000000000000000000000000000000000000000000000000000000000000000000000000000000000000000N 00000000000NCONT   00    00000000000          00000000000000000000000000000000000000000000 000000000000000A000000000000000000000000000000000000000000000 000000000000000000000000000000000000000     00000000                                                                                                                        000000000000000000
F0010000007337900002000001258171500041450500000000000000000201507100002001EDMUNDO  ESCOBAR JACOME                           C000000003800000000000000000000000100010010000000000000000000000F0010000007337900220150710000101 00000000000000000000000000000000000000000000000000000000000000000000000000000000000000000000000000000000000000000N 00000000000NCONT   00    00000000000          00000000000000000000000000000000000000000000 000000000000000A000000000000000000000000000000000000000000000 000000000000000000000000000000000000000     00000000                                                                                                                        000000000000000000
F0010000007337900003000001258171500042505000000000000000000201507100002001EDMUNDO  ESCOBAR JACOME                           C000000000200000000000000000000000100010010000000000000000000000F0010000007337900320150710000101 00000000000000000000000000000000000000000000000000000000000000000000000000000000000000000000000000000000000000000N 00000000000NCONT   00    00000000000          00000000000000000000000000000000000000000000 000000000000000A000000000000000000000000000000000000000000000 000000000000000000000000000000000000000     00000000                                                                                                                        000000000000000000
F0010000007337900004000001258171500023658300000000000000000201507100002001EDMUNDO  ESCOBAR JACOME                           C000000000030400000000000000000000100010010000000000000000000000F0010000007337900420150710000101 00000000000000000000000000000000000000000000000000000000000000000000000000000000000000000000000000000000000000000N 00000000000NCONT   00    00000000000          00000000000000000000000000000000000000000000 000000000000000A000000000000000000000000000000000000000000000 000000000000000000000000000000000000000     00000000                                                                                                                        000000000000000000
F0010000007337900005000001258171500013552100000000000000000201507100002001EDMUNDO  ESCOBAR JACOME                           D000000000030400000000000000000000100010010000000000000000000000F0010000007337900520150710000101 00000000000000000000000000000000000000000000000000000000000000000000000000000000000000000000000000000000000000000N 00000000000NCONT   00    00000000000          00000000000000000000000000000000000000000000 000000000000000A000000000000000000000000000000000000000000000 000000000000000000000000000000000000000     00000000                                                                                                                        000000000000000000
F0010000007338000001000009121286600011050500000000000000000201507100002001EDGAR MONTENEGRO -- SURTISERVICIOS MONTENEGRO     D000000003000000000000000000000000100010010000000000000000000000F0010000007338000120150710000101 00000000000000000000000000000000000000000000000000000000000000000000000000000000000000000000000000000000000000000N 00000000000NCONT   00    00000000000          00000000000000000000000000000000000000000000 000000000000000A000000000000000000000000000000000000000000000 000000000000000000000000000000000000000     00000000                                                                                                                        000000000000000000
F0010000007338000002000009121286600041450500000000000000000201507100002001EDGAR MONTENEGRO -- SURTISERVICIOS MONTENEGRO     C000000002500000000000000000000000100010010000000000000000000000F0010000007338000220150710000101 00000000000000000000000000000000000000000000000000000000000000000000000000000000000000000000000000000000000000000N 00000000000NCONT   00    00000000000          00000000000000000000000000000000000000000000 000000000000000A000000000000000000000000000000000000000000000 000000000000000000000000000000000000000     00000000                                                                                                                        000000000000000000
F0010000007338000003000009121286600042505000000000000000000201507100002001EDGAR MONTENEGRO -- SURTISERVICIOS MONTENEGRO     C000000000500000000000000000000000100010010000000000000000000000F0010000007338000320150710000101 00000000000000000000000000000000000000000000000000000000000000000000000000000000000000000000000000000000000000000N 00000000000NCONT   00    00000000000          00000000000000000000000000000000000000000000 000000000000000A000000000000000000000000000000000000000000000 000000000000000000000000000000000000000     00000000                                                                                                                        000000000000000000
F0010000007338000004000009121286600023658300000000000000000201507100002001EDGAR MONTENEGRO -- SURTISERVICIOS MONTENEGRO     C000000000020000000000000000000000100010010000000000000000000000F0010000007338000420150710000101 00000000000000000000000000000000000000000000000000000000000000000000000000000000000000000000000000000000000000000N 00000000000NCONT   00    00000000000          00000000000000000000000000000000000000000000 000000000000000A000000000000000000000000000000000000000000000 000000000000000000000000000000000000000     00000000                                                                                                                        000000000000000000
F0010000007338000005000009121286600013552100000000000000000201507100002001EDGAR MONTENEGRO -- SURTISERVICIOS MONTENEGRO     D000000000020000000000000000000000100010010000000000000000000000F0010000007338000520150710000101 00000000000000000000000000000000000000000000000000000000000000000000000000000000000000000000000000000000000000000N 00000000000NCONT   00    00000000000          00000000000000000000000000000000000000000000 000000000000000A000000000000000000000000000000000000000000000 000000000000000000000000000000000000000     00000000                                                                                                                        000000000000000000
F0010000007338100001000090073498600011050500000000000000000201507100002001VALTAC S.A.S                                      D000000000900000000000000000000000100010010000000000000000000000F0010000007338100120150710000101 00000000000000000000000000000000000000000000000000000000000000000000000000000000000000000000000000000000000000000N 00000000000NCONT   00    00000000000          00000000000000000000000000000000000000000000 000000000000000A000000000000000000000000000000000000000000000 000000000000000000000000000000000000000     00000000                                                                                                                        000000000000000000
F0010000007338100002000090073498600041450500000000000000000201507100002001VALTAC S.A.S                                      C000000000800000000000000000000000100010010000000000000000000000F0010000007338100220150710000101 00000000000000000000000000000000000000000000000000000000000000000000000000000000000000000000000000000000000000000N 00000000000NCONT   00    00000000000          00000000000000000000000000000000000000000000 000000000000000A000000000000000000000000000000000000000000000 000000000000000000000000000000000000000     00000000                                                                                                                        000000000000000000
F0010000007338100003000090073498600042505000000000000000000201507100002001VALTAC S.A.S                                      C000000000100000000000000000000000100010010000000000000000000000F0010000007338100320150710000101 00000000000000000000000000000000000000000000000000000000000000000000000000000000000000000000000000000000000000000N 00000000000NCONT   00    00000000000          00000000000000000000000000000000000000000000 000000000000000A000000000000000000000000000000000000000000000 000000000000000000000000000000000000000     00000000                                                                                                                        000000000000000000
F0010000007338100004000090073498600023658300000000000000000201507100002001VALTAC S.A.S                                      C000000000006400000000000000000000100010010000000000000000000000F0010000007338100420150710000101 00000000000000000000000000000000000000000000000000000000000000000000000000000000000000000000000000000000000000000N 00000000000NCONT   00    00000000000          00000000000000000000000000000000000000000000 000000000000000A000000000000000000000000000000000000000000000 000000000000000000000000000000000000000     00000000                                                                                                                        000000000000000000
F0010000007338100005000090073498600013552100000000000000000201507100002001VALTAC S.A.S                                      D000000000006400000000000000000000100010010000000000000000000000F0010000007338100520150710000101 00000000000000000000000000000000000000000000000000000000000000000000000000000000000000000000000000000000000000000N 00000000000NCONT   00    00000000000          00000000000000000000000000000000000000000000 000000000000000A000000000000000000000000000000000000000000000 000000000000000000000000000000000000000     00000000                                                                                                                        000000000000000000
F0010000007338200001000090037350200011050500000000000000000201507100002001JIMAR C Y J LTDA                                  D000000005000000000000000000000000100010010000000000000000000000F0010000007338200120150710000101 00000000000000000000000000000000000000000000000000000000000000000000000000000000000000000000000000000000000000000N 00000000000NCONT   00    00000000000          00000000000000000000000000000000000000000000 000000000000000A000000000000000000000000000000000000000000000 000000000000000000000000000000000000000     00000000                                                                                                                        000000000000000000
F0010000007338200002000090037350200041450500000000000000000201507100002001JIMAR C Y J LTDA                                  C000000004770000000000000000000000100010010000000000000000000000F0010000007338200220150710000101 00000000000000000000000000000000000000000000000000000000000000000000000000000000000000000000000000000000000000000N 00000000000NCONT   00    00000000000          00000000000000000000000000000000000000000000 000000000000000A000000000000000000000000000000000000000000000 000000000000000000000000000000000000000     00000000                                                                                                                        000000000000000000
F0010000007338200003000090037350200042505000000000000000000201507100002001JIMAR C Y J LTDA                                  C000000000230000000000000000000000100010010000000000000000000000F0010000007338200320150710000101 00000000000000000000000000000000000000000000000000000000000000000000000000000000000000000000000000000000000000000N 00000000000NCONT   00    00000000000          00000000000000000000000000000000000000000000 000000000000000A000000000000000000000000000000000000000000000 000000000000000000000000000000000000000     00000000                                                                                                                        000000000000000000
F0010000007338200004000090037350200023658300000000000000000201507100002001JIMAR C Y J LTDA                                  C000000000038200000000000000000000100010010000000000000000000000F0010000007338200420150710000101 00000000000000000000000000000000000000000000000000000000000000000000000000000000000000000000000000000000000000000N 00000000000NCONT   00    00000000000          00000000000000000000000000000000000000000000 000000000000000A000000000000000000000000000000000000000000000 000000000000000000000000000000000000000     00000000                                                                                                                        000000000000000000
F0010000007338200005000090037350200013552100000000000000000201507100002001JIMAR C Y J LTDA                                  D000000000038200000000000000000000100010010000000000000000000000F0010000007338200520150710000101 00000000000000000000000000000000000000000000000000000000000000000000000000000000000000000000000000000000000000000N 00000000000NCONT   00    00000000000          00000000000000000000000000000000000000000000 000000000000000A000000000000000000000000000000000000000000000 000000000000000000000000000000000000000     00000000                                                                                                                        000000000000000000
F0010000007338300001000003319910700011050500000000000000000201507100002001LUZ DARY JIMENEZ MARTINEZ                         D000000001100000000000000000000000100010010000000000000000000000F0010000007338300120150710000101 00000000000000000000000000000000000000000000000000000000000000000000000000000000000000000000000000000000000000000N 00000000000NCONT   00    00000000000          00000000000000000000000000000000000000000000 000000000000000A000000000000000000000000000000000000000000000 000000000000000000000000000000000000000     00000000                                                                                                                        000000000000000000
F0010000007338300002000003319910700041450500000000000000000201507100002001LUZ DARY JIMENEZ MARTINEZ                         C000000001000000000000000000000000100010010000000000000000000000F0010000007338300220150710000101 00000000000000000000000000000000000000000000000000000000000000000000000000000000000000000000000000000000000000000N 00000000000NCONT   00    00000000000          00000000000000000000000000000000000000000000 000000000000000A000000000000000000000000000000000000000000000 000000000000000000000000000000000000000     00000000                                                                                                                        000000000000000000
F0010000007338300003000003319910700042505000000000000000000201507100002001LUZ DARY JIMENEZ MARTINEZ                         C000000000100000000000000000000000100010010000000000000000000000F0010000007338300320150710000101 00000000000000000000000000000000000000000000000000000000000000000000000000000000000000000000000000000000000000000N 00000000000NCONT   00    00000000000          00000000000000000000000000000000000000000000 000000000000000A000000000000000000000000000000000000000000000 000000000000000000000000000000000000000     00000000                                                                                                                        000000000000000000
F0010000007338300004000003319910700023658300000000000000000201507100002001LUZ DARY JIMENEZ MARTINEZ                         C000000000008000000000000000000000100010010000000000000000000000F0010000007338300420150710000101 00000000000000000000000000000000000000000000000000000000000000000000000000000000000000000000000000000000000000000N 00000000000NCONT   00    00000000000          00000000000000000000000000000000000000000000 000000000000000A000000000000000000000000000000000000000000000 000000000000000000000000000000000000000     00000000                                                                                                                        000000000000000000
F0010000007338300005000003319910700013552100000000000000000201507100002001LUZ DARY JIMENEZ MARTINEZ                         D000000000008000000000000000000000100010010000000000000000000000F0010000007338300520150710000101 00000000000000000000000000000000000000000000000000000000000000000000000000000000000000000000000000000000000000000N 00000000000NCONT   00    00000000000          00000000000000000000000000000000000000000000 000000000000000A000000000000000000000000000000000000000000000 000000000000000000000000000000000000000     00000000                                                                                                                        000000000000000000
F0010000007338400001000090020547900011050500000000000000000201507100002001COMERCIALIZADORA DAC DEL CARIBE S.A.S.            D000000001800000000000000000000000100010010000000000000000000000F0010000007338400120150710000101 00000000000000000000000000000000000000000000000000000000000000000000000000000000000000000000000000000000000000000N 00000000000NCONT   00    00000000000          00000000000000000000000000000000000000000000 000000000000000A000000000000000000000000000000000000000000000 000000000000000000000000000000000000000     00000000                                                                                                                        000000000000000000
F0010000007338400002000090020547900041450500000000000000000201507100002001COMERCIALIZADORA DAC DEL CARIBE S.A.S.            C000000001400000000000000000000000100010010000000000000000000000F0010000007338400220150710000101 00000000000000000000000000000000000000000000000000000000000000000000000000000000000000000000000000000000000000000N 00000000000NCONT   00    00000000000          00000000000000000000000000000000000000000000 000000000000000A000000000000000000000000000000000000000000000 000000000000000000000000000000000000000     00000000                                                                                                                        000000000000000000
F0010000007338400003000090020547900042505000000000000000000201507100002001COMERCIALIZADORA DAC DEL CARIBE S.A.S.            C000000000400000000000000000000000100010010000000000000000000000F0010000007338400320150710000101 00000000000000000000000000000000000000000000000000000000000000000000000000000000000000000000000000000000000000000N 00000000000NCONT   00    00000000000          00000000000000000000000000000000000000000000 000000000000000A000000000000000000000000000000000000000000000 000000000000000000000000000000000000000     00000000                                                                                                                        000000000000000000
F0010000007338400004000090020547900023658300000000000000000201507100002001COMERCIALIZADORA DAC DEL CARIBE S.A.S.            C000000000011200000000000000000000100010010000000000000000000000F0010000007338400420150710000101 00000000000000000000000000000000000000000000000000000000000000000000000000000000000000000000000000000000000000000N 00000000000NCONT   00    00000000000          00000000000000000000000000000000000000000000 000000000000000A000000000000000000000000000000000000000000000 000000000000000000000000000000000000000     00000000                                                                                                                        000000000000000000
F0010000007338400005000090020547900013552100000000000000000201507100002001COMERCIALIZADORA DAC DEL CARIBE S.A.S.            D000000000011200000000000000000000100010010000000000000000000000F0010000007338400520150710000101 00000000000000000000000000000000000000000000000000000000000000000000000000000000000000000000000000000000000000000N 00000000000NCONT   00    00000000000          00000000000000000000000000000000000000000000 000000000000000A000000000000000000000000000000000000000000000 000000000000000000000000000000000000000     00000000                                                                                                                        000000000000000000
F0010000007338500001000090020547900011050500000000000000000201507100002001COMERCIALIZADORA DAC DEL CARIBE S.A.S.            D000000003000000000000000000000000100010010000000000000000000000F0010000007338500120150710000101 00000000000000000000000000000000000000000000000000000000000000000000000000000000000000000000000000000000000000000N 00000000000NCONT   00    00000000000          00000000000000000000000000000000000000000000 000000000000000A000000000000000000000000000000000000000000000 000000000000000000000000000000000000000     00000000                                                                                                                        000000000000000000
F0010000007338500002000090020547900041450500000000000000000201507100002001COMERCIALIZADORA DAC DEL CARIBE S.A.S.            C000000002600000000000000000000000100010010000000000000000000000F0010000007338500220150710000101 00000000000000000000000000000000000000000000000000000000000000000000000000000000000000000000000000000000000000000N 00000000000NCONT   00    00000000000          00000000000000000000000000000000000000000000 000000000000000A000000000000000000000000000000000000000000000 000000000000000000000000000000000000000     00000000                                                                                                                        000000000000000000
F0010000007338500003000090020547900042505000000000000000000201507100002001COMERCIALIZADORA DAC DEL CARIBE S.A.S.            C000000000400000000000000000000000100010010000000000000000000000F0010000007338500320150710000101 00000000000000000000000000000000000000000000000000000000000000000000000000000000000000000000000000000000000000000N 00000000000NCONT   00    00000000000          00000000000000000000000000000000000000000000 000000000000000A000000000000000000000000000000000000000000000 000000000000000000000000000000000000000     00000000                                                                                                                        000000000000000000
F0010000007338500004000090020547900023658300000000000000000201507100002001COMERCIALIZADORA DAC DEL CARIBE S.A.S.            C000000000020800000000000000000000100010010000000000000000000000F0010000007338500420150710000101 00000000000000000000000000000000000000000000000000000000000000000000000000000000000000000000000000000000000000000N 00000000000NCONT   00    00000000000          00000000000000000000000000000000000000000000 000000000000000A000000000000000000000000000000000000000000000 000000000000000000000000000000000000000     00000000                                                                                                                        000000000000000000
F0010000007338500005000090020547900013552100000000000000000201507100002001COMERCIALIZADORA DAC DEL CARIBE S.A.S.            D000000000020800000000000000000000100010010000000000000000000000F0010000007338500520150710000101 00000000000000000000000000000000000000000000000000000000000000000000000000000000000000000000000000000000000000000N 00000000000NCONT   00    00000000000          00000000000000000000000000000000000000000000 000000000000000A000000000000000000000000000000000000000000000 000000000000000000000000000000000000000     00000000                                                                                                                        000000000000000000
F0010000007338600001000090020547900011050500000000000000000201507100002001COMERCIALIZADORA DAC DEL CARIBE S.A.S.            D000000011000000000000000000000000100010010000000000000000000000F0010000007338600120150710000101 00000000000000000000000000000000000000000000000000000000000000000000000000000000000000000000000000000000000000000N 00000000000NCONT   00    00000000000          00000000000000000000000000000000000000000000 000000000000000A000000000000000000000000000000000000000000000 000000000000000000000000000000000000000     00000000                                                                                                                        000000000000000000
F0010000007338600002000090020547900041450500000000000000000201507100002001COMERCIALIZADORA DAC DEL CARIBE S.A.S.            C000000009600000000000000000000000100010010000000000000000000000F0010000007338600220150710000101 00000000000000000000000000000000000000000000000000000000000000000000000000000000000000000000000000000000000000000N 00000000000NCONT   00    00000000000          00000000000000000000000000000000000000000000 000000000000000A000000000000000000000000000000000000000000000 000000000000000000000000000000000000000     00000000                                                                                                                        000000000000000000
F0010000007338600003000090020547900042505000000000000000000201507100002001COMERCIALIZADORA DAC DEL CARIBE S.A.S.            C000000001400000000000000000000000100010010000000000000000000000F0010000007338600320150710000101 00000000000000000000000000000000000000000000000000000000000000000000000000000000000000000000000000000000000000000N 00000000000NCONT   00    00000000000          00000000000000000000000000000000000000000000 000000000000000A000000000000000000000000000000000000000000000 000000000000000000000000000000000000000     00000000                                                                                                                        000000000000000000
F0010000007338600004000090020547900023658300000000000000000201507100002001COMERCIALIZADORA DAC DEL CARIBE S.A.S.            C000000000076800000000000000000000100010010000000000000000000000F0010000007338600420150710000101 00000000000000000000000000000000000000000000000000000000000000000000000000000000000000000000000000000000000000000N 00000000000NCONT   00    00000000000          00000000000000000000000000000000000000000000 000000000000000A000000000000000000000000000000000000000000000 000000000000000000000000000000000000000     00000000                                                                                                                        000000000000000000
F0010000007338600005000090020547900013552100000000000000000201507100002001COMERCIALIZADORA DAC DEL CARIBE S.A.S.            D000000000076800000000000000000000100010010000000000000000000000F0010000007338600520150710000101 00000000000000000000000000000000000000000000000000000000000000000000000000000000000000000000000000000000000000000N 00000000000NCONT   00    00000000000          00000000000000000000000000000000000000000000 000000000000000A000000000000000000000000000000000000000000000 000000000000000000000000000000000000000     00000000                                                                                                                        000000000000000000
F0010000007338700001000080001161300011050500000000000000000201507100002001FERRETERIA OPTIMA                                 D000000005500000000000000000000000100010010000000000000000000000F0010000007338700120150710000101 00000000000000000000000000000000000000000000000000000000000000000000000000000000000000000000000000000000000000000N 00000000000NCONT   00    00000000000          00000000000000000000000000000000000000000000 000000000000000A000000000000000000000000000000000000000000000 000000000000000000000000000000000000000     00000000                                                                                                                        000000000000000000
F0010000007338700002000080001161300041450500000000000000000201507100002001FERRETERIA OPTIMA                                 C000000005400000000000000000000000100010010000000000000000000000F0010000007338700220150710000101 00000000000000000000000000000000000000000000000000000000000000000000000000000000000000000000000000000000000000000N 00000000000NCONT   00    00000000000          00000000000000000000000000000000000000000000 000000000000000A000000000000000000000000000000000000000000000 000000000000000000000000000000000000000     00000000                                                                                                                        000000000000000000
F0010000007338700003000080001161300042505000000000000000000201507100002001FERRETERIA OPTIMA                                 C000000000100000000000000000000000100010010000000000000000000000F0010000007338700320150710000101 00000000000000000000000000000000000000000000000000000000000000000000000000000000000000000000000000000000000000000N 00000000000NCONT   00    00000000000          00000000000000000000000000000000000000000000 000000000000000A000000000000000000000000000000000000000000000 000000000000000000000000000000000000000     00000000                                                                                                                        000000000000000000
F0010000007338700004000080001161300023658300000000000000000201507100002001FERRETERIA OPTIMA                                 C000000000043200000000000000000000100010010000000000000000000000F0010000007338700420150710000101 00000000000000000000000000000000000000000000000000000000000000000000000000000000000000000000000000000000000000000N 00000000000NCONT   00    00000000000          00000000000000000000000000000000000000000000 000000000000000A000000000000000000000000000000000000000000000 000000000000000000000000000000000000000     00000000                                                                                                                        000000000000000000
F0010000007338700005000080001161300013552100000000000000000201507100002001FERRETERIA OPTIMA                                 D000000000043200000000000000000000100010010000000000000000000000F0010000007338700520150710000101 00000000000000000000000000000000000000000000000000000000000000000000000000000000000000000000000000000000000000000N 00000000000NCONT   00    00000000000          00000000000000000000000000000000000000000000 000000000000000A000000000000000000000000000000000000000000000 000000000000000000000000000000000000000     00000000                                                                                                                        000000000000000000
F0010000007338800001000007213133300011050500000000000000000201507100002001ALVARO ALBERTO FANDIÑO GOMEZ                     D000000001100000000000000000000000100010010000000000000000000000F0010000007338800120150710000101 00000000000000000000000000000000000000000000000000000000000000000000000000000000000000000000000000000000000000000N 00000000000NCONT   00    00000000000          00000000000000000000000000000000000000000000 000000000000000A000000000000000000000000000000000000000000000 000000000000000000000000000000000000000     00000000                                                                                                                        000000000000000000
F0010000007338800002000007213133300041450500000000000000000201507100002001ALVARO ALBERTO FANDIÑO GOMEZ                     C000000000900000000000000000000000100010010000000000000000000000F0010000007338800220150710000101 00000000000000000000000000000000000000000000000000000000000000000000000000000000000000000000000000000000000000000N 00000000000NCONT   00    00000000000          00000000000000000000000000000000000000000000 000000000000000A000000000000000000000000000000000000000000000 000000000000000000000000000000000000000     00000000                                                                                                                        000000000000000000
F0010000007338800003000007213133300042505000000000000000000201507100002001ALVARO ALBERTO FANDIÑO GOMEZ                     C000000000200000000000000000000000100010010000000000000000000000F0010000007338800320150710000101 00000000000000000000000000000000000000000000000000000000000000000000000000000000000000000000000000000000000000000N 00000000000NCONT   00    00000000000          00000000000000000000000000000000000000000000 000000000000000A000000000000000000000000000000000000000000000 000000000000000000000000000000000000000     00000000                                                                                                                        000000000000000000
F0010000007338800004000007213133300023658300000000000000000201507100002001ALVARO ALBERTO FANDIÑO GOMEZ                     C000000000007200000000000000000000100010010000000000000000000000F0010000007338800420150710000101 00000000000000000000000000000000000000000000000000000000000000000000000000000000000000000000000000000000000000000N 00000000000NCONT   00    00000000000          00000000000000000000000000000000000000000000 000000000000000A000000000000000000000000000000000000000000000 000000000000000000000000000000000000000     00000000                                                                                                                        000000000000000000
F0010000007338800005000007213133300013552100000000000000000201507100002001ALVARO ALBERTO FANDIÑO GOMEZ                     D000000000007200000000000000000000100010010000000000000000000000F0010000007338800520150710000101 00000000000000000000000000000000000000000000000000000000000000000000000000000000000000000000000000000000000000000N 00000000000NCONT   00    00000000000          00000000000000000000000000000000000000000000 000000000000000A000000000000000000000000000000000000000000000 000000000000000000000000000000000000000     00000000                                                                                                                        000000000000000000
F0010000007338900001000007213133300011050500000000000000000201507100002001ALVARO ALBERTO FANDIÑO GOMEZ                     D000000000000000000000000000000000100010010000000000000000000000F0010000007338900120150710000101 00000000000000000000000000000000000000000000000000000000000000000000000000000000000000000000000000000000000000000N 00000000000NCONT   00    00000000000          00000000000000000000000000000000000000000000 000000000000000A000000000000000000000000000000000000000000000 000000000000000000000000000000000000000     00000000                                                                                                                        000000000000000000
F0010000007338900002000007213133300041450500000000000000000201507100002001ALVARO ALBERTO FANDIÑO GOMEZ                     C000000000000000000000000000000000100010010000000000000000000000F0010000007338900220150710000101 00000000000000000000000000000000000000000000000000000000000000000000000000000000000000000000000000000000000000000N 00000000000NCONT   00    00000000000          00000000000000000000000000000000000000000000 000000000000000A000000000000000000000000000000000000000000000 000000000000000000000000000000000000000     00000000                                                                                                                        000000000000000000
F0010000007338900003000007213133300042505000000000000000000201507100002001ALVARO ALBERTO FANDIÑO GOMEZ                     C000000000000000000000000000000000100010010000000000000000000000F0010000007338900320150710000101 00000000000000000000000000000000000000000000000000000000000000000000000000000000000000000000000000000000000000000N 00000000000NCONT   00    00000000000          00000000000000000000000000000000000000000000 000000000000000A000000000000000000000000000000000000000000000 000000000000000000000000000000000000000     00000000                                                                                                                        000000000000000000
F0010000007338900004000007213133300023658300000000000000000201507100002001ALVARO ALBERTO FANDIÑO GOMEZ                     C000000000000000000000000000000000100010010000000000000000000000F0010000007338900420150710000101 00000000000000000000000000000000000000000000000000000000000000000000000000000000000000000000000000000000000000000N 00000000000NCONT   00    00000000000          00000000000000000000000000000000000000000000 000000000000000A000000000000000000000000000000000000000000000 000000000000000000000000000000000000000     00000000                                                                                                                        000000000000000000
F0010000007338900005000007213133300013552100000000000000000201507100002001ALVARO ALBERTO FANDIÑO GOMEZ                     D000000000000000000000000000000000100010010000000000000000000000F0010000007338900520150710000101 00000000000000000000000000000000000000000000000000000000000000000000000000000000000000000000000000000000000000000N 00000000000NCONT   00    00000000000          00000000000000000000000000000000000000000000 000000000000000A000000000000000000000000000000000000000000000 000000000000000000000000000000000000000     00000000                                                                                                                        000000000000000000
F0010000007339000001000090034602400011050500000000000000000201507100002001PRODUCTOS NACIONALES PARAFINICOS LA CUSTODIA S.A.SD000000001000000000000000000000000100010010000000000000000000000F0010000007339000120150710000101 00000000000000000000000000000000000000000000000000000000000000000000000000000000000000000000000000000000000000000N 00000000000NCONT   00    00000000000          00000000000000000000000000000000000000000000 000000000000000A000000000000000000000000000000000000000000000 000000000000000000000000000000000000000     00000000                                                                                                                        000000000000000000
F0010000007339000002000090034602400041450500000000000000000201507100002001PRODUCTOS NACIONALES PARAFINICOS LA CUSTODIA S.A.SC000000000900000000000000000000000100010010000000000000000000000F0010000007339000220150710000101 00000000000000000000000000000000000000000000000000000000000000000000000000000000000000000000000000000000000000000N 00000000000NCONT   00    00000000000          00000000000000000000000000000000000000000000 000000000000000A000000000000000000000000000000000000000000000 000000000000000000000000000000000000000     00000000                                                                                                                        000000000000000000
F0010000007339000003000090034602400042505000000000000000000201507100002001PRODUCTOS NACIONALES PARAFINICOS LA CUSTODIA S.A.SC000000000100000000000000000000000100010010000000000000000000000F0010000007339000320150710000101 00000000000000000000000000000000000000000000000000000000000000000000000000000000000000000000000000000000000000000N 00000000000NCONT   00    00000000000          00000000000000000000000000000000000000000000 000000000000000A000000000000000000000000000000000000000000000 000000000000000000000000000000000000000     00000000                                                                                                                        000000000000000000
F0010000007339000004000090034602400023658300000000000000000201507100002001PRODUCTOS NACIONALES PARAFINICOS LA CUSTODIA S.A.SC000000000007200000000000000000000100010010000000000000000000000F0010000007339000420150710000101 00000000000000000000000000000000000000000000000000000000000000000000000000000000000000000000000000000000000000000N 00000000000NCONT   00    00000000000          00000000000000000000000000000000000000000000 000000000000000A000000000000000000000000000000000000000000000 000000000000000000000000000000000000000     00000000                                                                                                                        000000000000000000
F0010000007339000005000090034602400013552100000000000000000201507100002001PRODUCTOS NACIONALES PARAFINICOS LA CUSTODIA S.A.SD000000000007200000000000000000000100010010000000000000000000000F0010000007339000520150710000101 00000000000000000000000000000000000000000000000000000000000000000000000000000000000000000000000000000000000000000N 00000000000NCONT   00    00000000000          00000000000000000000000000000000000000000000 000000000000000A000000000000000000000000000000000000000000000 000000000000000000000000000000000000000     00000000                                                                                                                        000000000000000000
F0010000007339100001000090034602400011050500000000000000000201507100002001PRODUCTOS NACIONALES PARAFINICOS LA CUSTODIA S.A.SD000000003000000000000000000000000100010010000000000000000000000F0010000007339100120150710000101 00000000000000000000000000000000000000000000000000000000000000000000000000000000000000000000000000000000000000000N 00000000000NCONT   00    00000000000          00000000000000000000000000000000000000000000 000000000000000A000000000000000000000000000000000000000000000 000000000000000000000000000000000000000     00000000                                                                                                                        000000000000000000
F0010000007339100002000090034602400041450500000000000000000201507100002001PRODUCTOS NACIONALES PARAFINICOS LA CUSTODIA S.A.SC000000002700000000000000000000000100010010000000000000000000000F0010000007339100220150710000101 00000000000000000000000000000000000000000000000000000000000000000000000000000000000000000000000000000000000000000N 00000000000NCONT   00    00000000000          00000000000000000000000000000000000000000000 000000000000000A000000000000000000000000000000000000000000000 000000000000000000000000000000000000000     00000000                                                                                                                        000000000000000000
F0010000007339100003000090034602400042505000000000000000000201507100002001PRODUCTOS NACIONALES PARAFINICOS LA CUSTODIA S.A.SC000000000300000000000000000000000100010010000000000000000000000F0010000007339100320150710000101 00000000000000000000000000000000000000000000000000000000000000000000000000000000000000000000000000000000000000000N 00000000000NCONT   00    00000000000          00000000000000000000000000000000000000000000 000000000000000A000000000000000000000000000000000000000000000 000000000000000000000000000000000000000     00000000                                                                                                                        000000000000000000
F0010000007339100004000090034602400023658300000000000000000201507100002001PRODUCTOS NACIONALES PARAFINICOS LA CUSTODIA S.A.SC000000000021600000000000000000000100010010000000000000000000000F0010000007339100420150710000101 00000000000000000000000000000000000000000000000000000000000000000000000000000000000000000000000000000000000000000N 00000000000NCONT   00    00000000000          00000000000000000000000000000000000000000000 000000000000000A000000000000000000000000000000000000000000000 000000000000000000000000000000000000000     00000000                                                                                                                        000000000000000000
F0010000007339100005000090034602400013552100000000000000000201507100002001PRODUCTOS NACIONALES PARAFINICOS LA CUSTODIA S.A.SD000000000021600000000000000000000100010010000000000000000000000F0010000007339100520150710000101 00000000000000000000000000000000000000000000000000000000000000000000000000000000000000000000000000000000000000000N 00000000000NCONT   00    00000000000          00000000000000000000000000000000000000000000 000000000000000A000000000000000000000000000000000000000000000 000000000000000000000000000000000000000     00000000                                                                                                                        000000000000000000
F0010000007339200001000090034602400011050500000000000000000201507100002001PRODUCTOS NACIONALES PARAFINICOS LA CUSTODIA S.A.SD000000002000000000000000000000000100010010000000000000000000000F0010000007339200120150710000101 00000000000000000000000000000000000000000000000000000000000000000000000000000000000000000000000000000000000000000N 00000000000NCONT   00    00000000000          00000000000000000000000000000000000000000000 000000000000000A000000000000000000000000000000000000000000000 000000000000000000000000000000000000000     00000000                                                                                                                        000000000000000000
F0010000007339200002000090034602400041450500000000000000000201507100002001PRODUCTOS NACIONALES PARAFINICOS LA CUSTODIA S.A.SC000000001800000000000000000000000100010010000000000000000000000F0010000007339200220150710000101 00000000000000000000000000000000000000000000000000000000000000000000000000000000000000000000000000000000000000000N 00000000000NCONT   00    00000000000          00000000000000000000000000000000000000000000 000000000000000A000000000000000000000000000000000000000000000 000000000000000000000000000000000000000     00000000                                                                                                                        000000000000000000
F0010000007339200003000090034602400042505000000000000000000201507100002001PRODUCTOS NACIONALES PARAFINICOS LA CUSTODIA S.A.SC000000000200000000000000000000000100010010000000000000000000000F0010000007339200320150710000101 00000000000000000000000000000000000000000000000000000000000000000000000000000000000000000000000000000000000000000N 00000000000NCONT   00    00000000000          00000000000000000000000000000000000000000000 000000000000000A000000000000000000000000000000000000000000000 000000000000000000000000000000000000000     00000000                                                                                                                        000000000000000000
F0010000007339200004000090034602400023658300000000000000000201507100002001PRODUCTOS NACIONALES PARAFINICOS LA CUSTODIA S.A.SC000000000014400000000000000000000100010010000000000000000000000F0010000007339200420150710000101 00000000000000000000000000000000000000000000000000000000000000000000000000000000000000000000000000000000000000000N 00000000000NCONT   00    00000000000          00000000000000000000000000000000000000000000 000000000000000A000000000000000000000000000000000000000000000 000000000000000000000000000000000000000     00000000                                                                                                                        000000000000000000
F0010000007339200005000090034602400013552100000000000000000201507100002001PRODUCTOS NACIONALES PARAFINICOS LA CUSTODIA S.A.SD000000000014400000000000000000000100010010000000000000000000000F0010000007339200520150710000101 00000000000000000000000000000000000000000000000000000000000000000000000000000000000000000000000000000000000000000N 00000000000NCONT   00    00000000000          00000000000000000000000000000000000000000000 000000000000000A000000000000000000000000000000000000000000000 000000000000000000000000000000000000000     00000000                                                                                                                        000000000000000000
F0010000007339300001000090034602400011050500000000000000000201507100002001PRODUCTOS NACIONALES PARAFINICOS LA CUSTODIA S.A.SD000000001000000000000000000000000100010010000000000000000000000F0010000007339300120150710000101 00000000000000000000000000000000000000000000000000000000000000000000000000000000000000000000000000000000000000000N 00000000000NCONT   00    00000000000          00000000000000000000000000000000000000000000 000000000000000A000000000000000000000000000000000000000000000 000000000000000000000000000000000000000     00000000                                                                                                                        000000000000000000
F0010000007339300002000090034602400041450500000000000000000201507100002001PRODUCTOS NACIONALES PARAFINICOS LA CUSTODIA S.A.SC000000000900000000000000000000000100010010000000000000000000000F0010000007339300220150710000101 00000000000000000000000000000000000000000000000000000000000000000000000000000000000000000000000000000000000000000N 00000000000NCONT   00    00000000000          00000000000000000000000000000000000000000000 000000000000000A000000000000000000000000000000000000000000000 000000000000000000000000000000000000000     00000000                                                                                                                        000000000000000000
F0010000007339300003000090034602400042505000000000000000000201507100002001PRODUCTOS NACIONALES PARAFINICOS LA CUSTODIA S.A.SC000000000100000000000000000000000100010010000000000000000000000F0010000007339300320150710000101 00000000000000000000000000000000000000000000000000000000000000000000000000000000000000000000000000000000000000000N 00000000000NCONT   00    00000000000          00000000000000000000000000000000000000000000 000000000000000A000000000000000000000000000000000000000000000 000000000000000000000000000000000000000     00000000                                                                                                                        000000000000000000
F0010000007339300004000090034602400023658300000000000000000201507100002001PRODUCTOS NACIONALES PARAFINICOS LA CUSTODIA S.A.SC000000000007200000000000000000000100010010000000000000000000000F0010000007339300420150710000101 00000000000000000000000000000000000000000000000000000000000000000000000000000000000000000000000000000000000000000N 00000000000NCONT   00    00000000000          00000000000000000000000000000000000000000000 000000000000000A000000000000000000000000000000000000000000000 000000000000000000000000000000000000000     00000000                                                                                                                        000000000000000000
F0010000007339300005000090034602400013552100000000000000000201507100002001PRODUCTOS NACIONALES PARAFINICOS LA CUSTODIA S.A.SD000000000007200000000000000000000100010010000000000000000000000F0010000007339300520150710000101 00000000000000000000000000000000000000000000000000000000000000000000000000000000000000000000000000000000000000000N 00000000000NCONT   00    00000000000          00000000000000000000000000000000000000000000 000000000000000A000000000000000000000000000000000000000000000 000000000000000000000000000000000000000     00000000                                                                                                                        000000000000000000
F0010000007339400001000090052543100011050500000000000000000201507100002001SECRET COLOR SAS                                  D000000000850000000000000000000000100010010000000000000000000000F0010000007339400120150710000101 00000000000000000000000000000000000000000000000000000000000000000000000000000000000000000000000000000000000000000N 00000000000NCONT   00    00000000000          00000000000000000000000000000000000000000000 000000000000000A000000000000000000000000000000000000000000000 000000000000000000000000000000000000000     00000000                                                                                                                        000000000000000000
F0010000007339400002000090052543100041450500000000000000000201507100002001SECRET COLOR SAS                                  C000000000800000000000000000000000100010010000000000000000000000F0010000007339400220150710000101 00000000000000000000000000000000000000000000000000000000000000000000000000000000000000000000000000000000000000000N 00000000000NCONT   00    00000000000          00000000000000000000000000000000000000000000 000000000000000A000000000000000000000000000000000000000000000 000000000000000000000000000000000000000     00000000                                                                                                                        000000000000000000
F0010000007339400003000090052543100042505000000000000000000201507100002001SECRET COLOR SAS                                  C000000000050000000000000000000000100010010000000000000000000000F0010000007339400320150710000101 00000000000000000000000000000000000000000000000000000000000000000000000000000000000000000000000000000000000000000N 00000000000NCONT   00    00000000000          00000000000000000000000000000000000000000000 000000000000000A000000000000000000000000000000000000000000000 000000000000000000000000000000000000000     00000000                                                                                                                        000000000000000000
F0010000007339400004000090052543100023658300000000000000000201507100002001SECRET COLOR SAS                                  C000000000006400000000000000000000100010010000000000000000000000F0010000007339400420150710000101 00000000000000000000000000000000000000000000000000000000000000000000000000000000000000000000000000000000000000000N 00000000000NCONT   00    00000000000          00000000000000000000000000000000000000000000 000000000000000A000000000000000000000000000000000000000000000 000000000000000000000000000000000000000     00000000                                                                                                                        000000000000000000
F0010000007339400005000090052543100013552100000000000000000201507100002001SECRET COLOR SAS                                  D000000000006400000000000000000000100010010000000000000000000000F0010000007339400520150710000101 00000000000000000000000000000000000000000000000000000000000000000000000000000000000000000000000000000000000000000N 00000000000NCONT   00    00000000000          00000000000000000000000000000000000000000000 000000000000000A000000000000000000000000000000000000000000000 000000000000000000000000000000000000000     00000000                                                                                                                        000000000000000000
F0010000007339500001000090052543100011050500000000000000000201507100002001SECRET COLOR SAS                                  D000000000850000000000000000000000100010010000000000000000000000F0010000007339500120150710000101 00000000000000000000000000000000000000000000000000000000000000000000000000000000000000000000000000000000000000000N 00000000000NCONT   00    00000000000          00000000000000000000000000000000000000000000 000000000000000A000000000000000000000000000000000000000000000 000000000000000000000000000000000000000     00000000                                                                                                                        000000000000000000
F0010000007339500002000090052543100041450500000000000000000201507100002001SECRET COLOR SAS                                  C000000000800000000000000000000000100010010000000000000000000000F0010000007339500220150710000101 00000000000000000000000000000000000000000000000000000000000000000000000000000000000000000000000000000000000000000N 00000000000NCONT   00    00000000000          00000000000000000000000000000000000000000000 000000000000000A000000000000000000000000000000000000000000000 000000000000000000000000000000000000000     00000000                                                                                                                        000000000000000000
F0010000007339500003000090052543100042505000000000000000000201507100002001SECRET COLOR SAS                                  C000000000050000000000000000000000100010010000000000000000000000F0010000007339500320150710000101 00000000000000000000000000000000000000000000000000000000000000000000000000000000000000000000000000000000000000000N 00000000000NCONT   00    00000000000          00000000000000000000000000000000000000000000 000000000000000A000000000000000000000000000000000000000000000 000000000000000000000000000000000000000     00000000                                                                                                                        000000000000000000
F0010000007339500004000090052543100023658300000000000000000201507100002001SECRET COLOR SAS                                  C000000000006400000000000000000000100010010000000000000000000000F0010000007339500420150710000101 00000000000000000000000000000000000000000000000000000000000000000000000000000000000000000000000000000000000000000N 00000000000NCONT   00    00000000000          00000000000000000000000000000000000000000000 000000000000000A000000000000000000000000000000000000000000000 000000000000000000000000000000000000000     00000000                                                                                                                        000000000000000000
F0010000007339500005000090052543100013552100000000000000000201507100002001SECRET COLOR SAS                                  D000000000006400000000000000000000100010010000000000000000000000F0010000007339500520150710000101 00000000000000000000000000000000000000000000000000000000000000000000000000000000000000000000000000000000000000000N 00000000000NCONT   00    00000000000          00000000000000000000000000000000000000000000 000000000000000A000000000000000000000000000000000000000000000 000000000000000000000000000000000000000     00000000                                                                                                                        000000000000000000
F0010000007339600001000090052543100011050500000000000000000201507100002001SECRET COLOR SAS                                  D000000000850000000000000000000000100010010000000000000000000000F0010000007339600120150710000101 00000000000000000000000000000000000000000000000000000000000000000000000000000000000000000000000000000000000000000N 00000000000NCONT   00    00000000000          00000000000000000000000000000000000000000000 000000000000000A000000000000000000000000000000000000000000000 000000000000000000000000000000000000000     00000000                                                                                                                        000000000000000000
F0010000007339600002000090052543100041450500000000000000000201507100002001SECRET COLOR SAS                                  C000000000800000000000000000000000100010010000000000000000000000F0010000007339600220150710000101 00000000000000000000000000000000000000000000000000000000000000000000000000000000000000000000000000000000000000000N 00000000000NCONT   00    00000000000          00000000000000000000000000000000000000000000 000000000000000A000000000000000000000000000000000000000000000 000000000000000000000000000000000000000     00000000                                                                                                                        000000000000000000
F0010000007339600003000090052543100042505000000000000000000201507100002001SECRET COLOR SAS                                  C000000000050000000000000000000000100010010000000000000000000000F0010000007339600320150710000101 00000000000000000000000000000000000000000000000000000000000000000000000000000000000000000000000000000000000000000N 00000000000NCONT   00    00000000000          00000000000000000000000000000000000000000000 000000000000000A000000000000000000000000000000000000000000000 000000000000000000000000000000000000000     00000000                                                                                                                        000000000000000000
F0010000007339600004000090052543100023658300000000000000000201507100002001SECRET COLOR SAS                                  C000000000006400000000000000000000100010010000000000000000000000F0010000007339600420150710000101 00000000000000000000000000000000000000000000000000000000000000000000000000000000000000000000000000000000000000000N 00000000000NCONT   00    00000000000          00000000000000000000000000000000000000000000 000000000000000A000000000000000000000000000000000000000000000 000000000000000000000000000000000000000     00000000                                                                                                                        000000000000000000
F0010000007339600005000090052543100013552100000000000000000201507100002001SECRET COLOR SAS                                  D000000000006400000000000000000000100010010000000000000000000000F0010000007339600520150710000101 00000000000000000000000000000000000000000000000000000000000000000000000000000000000000000000000000000000000000000N 00000000000NCONT   00    00000000000          00000000000000000000000000000000000000000000 000000000000000A000000000000000000000000000000000000000000000 000000000000000000000000000000000000000     00000000                                                                                                                        000000000000000000
F0010000007339700001000083007900600011050500000000000000000201507100002001EXPRESO ANDINO DE CARGA SA                        D000000001300000000000000000000000100010010000000000000000000000F0010000007339700120150710000101 00000000000000000000000000000000000000000000000000000000000000000000000000000000000000000000000000000000000000000N 00000000000NCONT   00    00000000000          00000000000000000000000000000000000000000000 000000000000000A000000000000000000000000000000000000000000000 000000000000000000000000000000000000000     00000000                                                                                                                        000000000000000000
F0010000007339700002000083007900600041450500000000000000000201507100002001EXPRESO ANDINO DE CARGA SA                        C000000001200000000000000000000000100010010000000000000000000000F0010000007339700220150710000101 00000000000000000000000000000000000000000000000000000000000000000000000000000000000000000000000000000000000000000N 00000000000NCONT   00    00000000000          00000000000000000000000000000000000000000000 000000000000000A000000000000000000000000000000000000000000000 000000000000000000000000000000000000000     00000000                                                                                                                        000000000000000000
F0010000007339700003000083007900600042505000000000000000000201507100002001EXPRESO ANDINO DE CARGA SA                        C000000000100000000000000000000000100010010000000000000000000000F0010000007339700320150710000101 00000000000000000000000000000000000000000000000000000000000000000000000000000000000000000000000000000000000000000N 00000000000NCONT   00    00000000000          00000000000000000000000000000000000000000000 000000000000000A000000000000000000000000000000000000000000000 000000000000000000000000000000000000000     00000000                                                                                                                        000000000000000000
F0010000007339700004000083007900600023658300000000000000000201507100002001EXPRESO ANDINO DE CARGA SA                        C000000000009600000000000000000000100010010000000000000000000000F0010000007339700420150710000101 00000000000000000000000000000000000000000000000000000000000000000000000000000000000000000000000000000000000000000N 00000000000NCONT   00    00000000000          00000000000000000000000000000000000000000000 000000000000000A000000000000000000000000000000000000000000000 000000000000000000000000000000000000000     00000000                                                                                                                        000000000000000000
F0010000007339700005000083007900600013552100000000000000000201507100002001EXPRESO ANDINO DE CARGA SA                        D000000000009600000000000000000000100010010000000000000000000000F0010000007339700520150710000101 00000000000000000000000000000000000000000000000000000000000000000000000000000000000000000000000000000000000000000N 00000000000NCONT   00    00000000000          00000000000000000000000000000000000000000000 000000000000000A000000000000000000000000000000000000000000000 000000000000000000000000000000000000000     00000000                                                                                                                        000000000000000000
F0010000007339800001000083007900600011050500000000000000000201507100002001EXPRESO ANDINO DE CARGA SA                        D000000002500000000000000000000000100010010000000000000000000000F0010000007339800120150710000101 00000000000000000000000000000000000000000000000000000000000000000000000000000000000000000000000000000000000000000N 00000000000NCONT   00    00000000000          00000000000000000000000000000000000000000000 000000000000000A000000000000000000000000000000000000000000000 000000000000000000000000000000000000000     00000000                                                                                                                        000000000000000000
F0010000007339800002000083007900600041450500000000000000000201507100002001EXPRESO ANDINO DE CARGA SA                        C000000002400000000000000000000000100010010000000000000000000000F0010000007339800220150710000101 00000000000000000000000000000000000000000000000000000000000000000000000000000000000000000000000000000000000000000N 00000000000NCONT   00    00000000000          00000000000000000000000000000000000000000000 000000000000000A000000000000000000000000000000000000000000000 000000000000000000000000000000000000000     00000000                                                                                                                        000000000000000000
F0010000007339800003000083007900600042505000000000000000000201507100002001EXPRESO ANDINO DE CARGA SA                        C000000000100000000000000000000000100010010000000000000000000000F0010000007339800320150710000101 00000000000000000000000000000000000000000000000000000000000000000000000000000000000000000000000000000000000000000N 00000000000NCONT   00    00000000000          00000000000000000000000000000000000000000000 000000000000000A000000000000000000000000000000000000000000000 000000000000000000000000000000000000000     00000000                                                                                                                        000000000000000000
F0010000007339800004000083007900600023658300000000000000000201507100002001EXPRESO ANDINO DE CARGA SA                        C000000000019200000000000000000000100010010000000000000000000000F0010000007339800420150710000101 00000000000000000000000000000000000000000000000000000000000000000000000000000000000000000000000000000000000000000N 00000000000NCONT   00    00000000000          00000000000000000000000000000000000000000000 000000000000000A000000000000000000000000000000000000000000000 000000000000000000000000000000000000000     00000000                                                                                                                        000000000000000000
F0010000007339800005000083007900600013552100000000000000000201507100002001EXPRESO ANDINO DE CARGA SA                        D000000000019200000000000000000000100010010000000000000000000000F0010000007339800520150710000101 00000000000000000000000000000000000000000000000000000000000000000000000000000000000000000000000000000000000000000N 00000000000NCONT   00    00000000000          00000000000000000000000000000000000000000000 000000000000000A000000000000000000000000000000000000000000000 000000000000000000000000000000000000000     00000000                                                                                                                        000000000000000000
F0010000007339900001000090050144800011050500000000000000000201507100002001PLASTICOS JR ASOCIADOS SAS                        D000000002800000000000000000000000100010010000000000000000000000F0010000007339900120150710000101 00000000000000000000000000000000000000000000000000000000000000000000000000000000000000000000000000000000000000000N 00000000000NCONT   00    00000000000          00000000000000000000000000000000000000000000 000000000000000A000000000000000000000000000000000000000000000 000000000000000000000000000000000000000     00000000                                                                                                                        000000000000000000
F0010000007339900002000090050144800041450500000000000000000201507100002001PLASTICOS JR ASOCIADOS SAS                        C000000002400000000000000000000000100010010000000000000000000000F0010000007339900220150710000101 00000000000000000000000000000000000000000000000000000000000000000000000000000000000000000000000000000000000000000N 00000000000NCONT   00    00000000000          00000000000000000000000000000000000000000000 000000000000000A000000000000000000000000000000000000000000000 000000000000000000000000000000000000000     00000000                                                                                                                        000000000000000000
F0010000007339900003000090050144800042505000000000000000000201507100002001PLASTICOS JR ASOCIADOS SAS                        C000000000400000000000000000000000100010010000000000000000000000F0010000007339900320150710000101 00000000000000000000000000000000000000000000000000000000000000000000000000000000000000000000000000000000000000000N 00000000000NCONT   00    00000000000          00000000000000000000000000000000000000000000 000000000000000A000000000000000000000000000000000000000000000 000000000000000000000000000000000000000     00000000                                                                                                                        000000000000000000
F0010000007339900004000090050144800023658300000000000000000201507100002001PLASTICOS JR ASOCIADOS SAS                        C000000000019200000000000000000000100010010000000000000000000000F0010000007339900420150710000101 00000000000000000000000000000000000000000000000000000000000000000000000000000000000000000000000000000000000000000N 00000000000NCONT   00    00000000000          00000000000000000000000000000000000000000000 000000000000000A000000000000000000000000000000000000000000000 000000000000000000000000000000000000000     00000000                                                                                                                        000000000000000000
F0010000007339900005000090050144800013552100000000000000000201507100002001PLASTICOS JR ASOCIADOS SAS                        D000000000019200000000000000000000100010010000000000000000000000F0010000007339900520150710000101 00000000000000000000000000000000000000000000000000000000000000000000000000000000000000000000000000000000000000000N 00000000000NCONT   00    00000000000          00000000000000000000000000000000000000000000 000000000000000A000000000000000000000000000000000000000000000 000000000000000000000000000000000000000     00000000                                                                                                                        000000000000000000
F0010000007340000001000000908086400011050500000000000000000201507100002001JOSE DEL CRISTO SANES FERNANDEZ                   D000000010000000000000000000000000100010010000000000000000000000F0010000007340000120150710000101 00000000000000000000000000000000000000000000000000000000000000000000000000000000000000000000000000000000000000000N 00000000000NCONT   00    00000000000          00000000000000000000000000000000000000000000 000000000000000A000000000000000000000000000000000000000000000 000000000000000000000000000000000000000     00000000                                                                                                                        000000000000000000
F0010000007340000002000000908086400041450500000000000000000201507100002001JOSE DEL CRISTO SANES FERNANDEZ                   C000000009200000000000000000000000100010010000000000000000000000F0010000007340000220150710000101 00000000000000000000000000000000000000000000000000000000000000000000000000000000000000000000000000000000000000000N 00000000000NCONT   00    00000000000          00000000000000000000000000000000000000000000 000000000000000A000000000000000000000000000000000000000000000 000000000000000000000000000000000000000     00000000                                                                                                                        000000000000000000
F0010000007340000003000000908086400042505000000000000000000201507100002001JOSE DEL CRISTO SANES FERNANDEZ                   C000000000800000000000000000000000100010010000000000000000000000F0010000007340000320150710000101 00000000000000000000000000000000000000000000000000000000000000000000000000000000000000000000000000000000000000000N 00000000000NCONT   00    00000000000          00000000000000000000000000000000000000000000 000000000000000A000000000000000000000000000000000000000000000 000000000000000000000000000000000000000     00000000                                                                                                                        000000000000000000
F0010000007340000004000000908086400023658300000000000000000201507100002001JOSE DEL CRISTO SANES FERNANDEZ                   C000000000073600000000000000000000100010010000000000000000000000F0010000007340000420150710000101 00000000000000000000000000000000000000000000000000000000000000000000000000000000000000000000000000000000000000000N 00000000000NCONT   00    00000000000          00000000000000000000000000000000000000000000 000000000000000A000000000000000000000000000000000000000000000 000000000000000000000000000000000000000     00000000                                                                                                                        000000000000000000
F0010000007340000005000000908086400013552100000000000000000201507100002001JOSE DEL CRISTO SANES FERNANDEZ                   D000000000073600000000000000000000100010010000000000000000000000F0010000007340000520150710000101 00000000000000000000000000000000000000000000000000000000000000000000000000000000000000000000000000000000000000000N 00000000000NCONT   00    00000000000          00000000000000000000000000000000000000000000 000000000000000A000000000000000000000000000000000000000000000 000000000000000000000000000000000000000     00000000                                                                                                                        000000000000000000
F0010000007340100001000000870907300011050500000000000000000201507100002001SURTIDOR FERRETERO                                D000000005800000000000000000000000100010010000000000000000000000F0010000007340100120150710000101 00000000000000000000000000000000000000000000000000000000000000000000000000000000000000000000000000000000000000000N 00000000000NCONT   00    00000000000          00000000000000000000000000000000000000000000 000000000000000A000000000000000000000000000000000000000000000 000000000000000000000000000000000000000     00000000                                                                                                                        000000000000000000
F0010000007340100002000000870907300041450500000000000000000201507100002001SURTIDOR FERRETERO                                C000000002400000000000000000000000100010010000000000000000000000F0010000007340100220150710000101 00000000000000000000000000000000000000000000000000000000000000000000000000000000000000000000000000000000000000000N 00000000000NCONT   00    00000000000          00000000000000000000000000000000000000000000 000000000000000A000000000000000000000000000000000000000000000 000000000000000000000000000000000000000     00000000                                                                                                                        000000000000000000
F0010000007340100003000000870907300042505000000000000000000201507100002001SURTIDOR FERRETERO                                C000000003400000000000000000000000100010010000000000000000000000F0010000007340100320150710000101 00000000000000000000000000000000000000000000000000000000000000000000000000000000000000000000000000000000000000000N 00000000000NCONT   00    00000000000          00000000000000000000000000000000000000000000 000000000000000A000000000000000000000000000000000000000000000 000000000000000000000000000000000000000     00000000                                                                                                                        000000000000000000
F0010000007340100004000000870907300023658300000000000000000201507100002001SURTIDOR FERRETERO                                C000000000019200000000000000000000100010010000000000000000000000F0010000007340100420150710000101 00000000000000000000000000000000000000000000000000000000000000000000000000000000000000000000000000000000000000000N 00000000000NCONT   00    00000000000          00000000000000000000000000000000000000000000 000000000000000A000000000000000000000000000000000000000000000 000000000000000000000000000000000000000     00000000                                                                                                                        000000000000000000
F0010000007340100005000000870907300013552100000000000000000201507100002001SURTIDOR FERRETERO                                D000000000019200000000000000000000100010010000000000000000000000F0010000007340100520150710000101 00000000000000000000000000000000000000000000000000000000000000000000000000000000000000000000000000000000000000000N 00000000000NCONT   00    00000000000          00000000000000000000000000000000000000000000 000000000000000A000000000000000000000000000000000000000000000 000000000000000000000000000000000000000     00000000                                                                                                                        000000000000000000
F0010000007340200001000000870907300011050500000000000000000201507100002001SURTIDOR FERRETERO                                D000000013000000000000000000000000100010010000000000000000000000F0010000007340200120150710000101 00000000000000000000000000000000000000000000000000000000000000000000000000000000000000000000000000000000000000000N 00000000000NCONT   00    00000000000          00000000000000000000000000000000000000000000 000000000000000A000000000000000000000000000000000000000000000 000000000000000000000000000000000000000     00000000                                                                                                                        000000000000000000
F0010000007340200002000000870907300041450500000000000000000201507100002001SURTIDOR FERRETERO                                C000000008800000000000000000000000100010010000000000000000000000F0010000007340200220150710000101 00000000000000000000000000000000000000000000000000000000000000000000000000000000000000000000000000000000000000000N 00000000000NCONT   00    00000000000          00000000000000000000000000000000000000000000 000000000000000A000000000000000000000000000000000000000000000 000000000000000000000000000000000000000     00000000                                                                                                                        000000000000000000
F0010000007340200003000000870907300042505000000000000000000201507100002001SURTIDOR FERRETERO                                C000000004200000000000000000000000100010010000000000000000000000F0010000007340200320150710000101 00000000000000000000000000000000000000000000000000000000000000000000000000000000000000000000000000000000000000000N 00000000000NCONT   00    00000000000          00000000000000000000000000000000000000000000 000000000000000A000000000000000000000000000000000000000000000 000000000000000000000000000000000000000     00000000                                                                                                                        000000000000000000
F0010000007340200004000000870907300023658300000000000000000201507100002001SURTIDOR FERRETERO                                C000000000070400000000000000000000100010010000000000000000000000F0010000007340200420150710000101 00000000000000000000000000000000000000000000000000000000000000000000000000000000000000000000000000000000000000000N 00000000000NCONT   00    00000000000          00000000000000000000000000000000000000000000 000000000000000A000000000000000000000000000000000000000000000 000000000000000000000000000000000000000     00000000                                                                                                                        000000000000000000
F0010000007340200005000000870907300013552100000000000000000201507100002001SURTIDOR FERRETERO                                D000000000070400000000000000000000100010010000000000000000000000F0010000007340200520150710000101 00000000000000000000000000000000000000000000000000000000000000000000000000000000000000000000000000000000000000000N 00000000000NCONT   00    00000000000          00000000000000000000000000000000000000000000 000000000000000A000000000000000000000000000000000000000000000 000000000000000000000000000000000000000     00000000                                                                                                                        000000000000000000
F0010000007340300001000004175790100011050500000000000000000201507100002001ROSIRIS FERIA HOYOS  (COSM. SHILLER)              D000000000900000000000000000000000100010010000000000000000000000F0010000007340300120150710000101 00000000000000000000000000000000000000000000000000000000000000000000000000000000000000000000000000000000000000000N 00000000000NCONT   00    00000000000          00000000000000000000000000000000000000000000 000000000000000A000000000000000000000000000000000000000000000 000000000000000000000000000000000000000     00000000                                                                                                                        000000000000000000
F0010000007340300002000004175790100041450500000000000000000201507100002001ROSIRIS FERIA HOYOS  (COSM. SHILLER)              C000000000800000000000000000000000100010010000000000000000000000F0010000007340300220150710000101 00000000000000000000000000000000000000000000000000000000000000000000000000000000000000000000000000000000000000000N 00000000000NCONT   00    00000000000          00000000000000000000000000000000000000000000 000000000000000A000000000000000000000000000000000000000000000 000000000000000000000000000000000000000     00000000                                                                                                                        000000000000000000
F0010000007340300003000004175790100042505000000000000000000201507100002001ROSIRIS FERIA HOYOS  (COSM. SHILLER)              C000000000100000000000000000000000100010010000000000000000000000F0010000007340300320150710000101 00000000000000000000000000000000000000000000000000000000000000000000000000000000000000000000000000000000000000000N 00000000000NCONT   00    00000000000          00000000000000000000000000000000000000000000 000000000000000A000000000000000000000000000000000000000000000 000000000000000000000000000000000000000     00000000                                                                                                                        000000000000000000
F0010000007340300004000004175790100023658300000000000000000201507100002001ROSIRIS FERIA HOYOS  (COSM. SHILLER)              C000000000006400000000000000000000100010010000000000000000000000F0010000007340300420150710000101 00000000000000000000000000000000000000000000000000000000000000000000000000000000000000000000000000000000000000000N 00000000000NCONT   00    00000000000          00000000000000000000000000000000000000000000 000000000000000A000000000000000000000000000000000000000000000 000000000000000000000000000000000000000     00000000                                                                                                                        000000000000000000
F0010000007340300005000004175790100013552100000000000000000201507100002001ROSIRIS FERIA HOYOS  (COSM. SHILLER)              D000000000006400000000000000000000100010010000000000000000000000F0010000007340300520150710000101 00000000000000000000000000000000000000000000000000000000000000000000000000000000000000000000000000000000000000000N 00000000000NCONT   00    00000000000          00000000000000000000000000000000000000000000 000000000000000A000000000000000000000000000000000000000000000 000000000000000000000000000000000000000     00000000                                                                                                                        000000000000000000
F0010000007340400001000004175790100011050500000000000000000201507100002001ROSIRIS FERIA HOYOS  (COSM. SHILLER)              D000000001200000000000000000000000100010010000000000000000000000F0010000007340400120150710000101 00000000000000000000000000000000000000000000000000000000000000000000000000000000000000000000000000000000000000000N 00000000000NCONT   00    00000000000          00000000000000000000000000000000000000000000 000000000000000A000000000000000000000000000000000000000000000 000000000000000000000000000000000000000     00000000                                                                                                                        000000000000000000
F0010000007340400002000004175790100041450500000000000000000201507100002001ROSIRIS FERIA HOYOS  (COSM. SHILLER)              C000000001100000000000000000000000100010010000000000000000000000F0010000007340400220150710000101 00000000000000000000000000000000000000000000000000000000000000000000000000000000000000000000000000000000000000000N 00000000000NCONT   00    00000000000          00000000000000000000000000000000000000000000 000000000000000A000000000000000000000000000000000000000000000 000000000000000000000000000000000000000     00000000                                                                                                                        000000000000000000
F0010000007340400003000004175790100042505000000000000000000201507100002001ROSIRIS FERIA HOYOS  (COSM. SHILLER)              C000000000100000000000000000000000100010010000000000000000000000F0010000007340400320150710000101 00000000000000000000000000000000000000000000000000000000000000000000000000000000000000000000000000000000000000000N 00000000000NCONT   00    00000000000          00000000000000000000000000000000000000000000 000000000000000A000000000000000000000000000000000000000000000 000000000000000000000000000000000000000     00000000                                                                                                                        000000000000000000
F0010000007340400004000004175790100023658300000000000000000201507100002001ROSIRIS FERIA HOYOS  (COSM. SHILLER)              C000000000008800000000000000000000100010010000000000000000000000F0010000007340400420150710000101 00000000000000000000000000000000000000000000000000000000000000000000000000000000000000000000000000000000000000000N 00000000000NCONT   00    00000000000          00000000000000000000000000000000000000000000 000000000000000A000000000000000000000000000000000000000000000 000000000000000000000000000000000000000     00000000                                                                                                                        000000000000000000
F0010000007340400005000004175790100013552100000000000000000201507100002001ROSIRIS FERIA HOYOS  (COSM. SHILLER)              D000000000008800000000000000000000100010010000000000000000000000F0010000007340400520150710000101 00000000000000000000000000000000000000000000000000000000000000000000000000000000000000000000000000000000000000000N 00000000000NCONT   00    00000000000          00000000000000000000000000000000000000000000 000000000000000A000000000000000000000000000000000000000000000 000000000000000000000000000000000000000     00000000                                                                                                                        000000000000000000
F0010000007340500001000004175790100011050500000000000000000201507100002001ROSIRIS FERIA HOYOS  (COSM. SHILLER)              D000000000900000000000000000000000100010010000000000000000000000F0010000007340500120150710000101 00000000000000000000000000000000000000000000000000000000000000000000000000000000000000000000000000000000000000000N 00000000000NCONT   00    00000000000          00000000000000000000000000000000000000000000 000000000000000A000000000000000000000000000000000000000000000 000000000000000000000000000000000000000     00000000                                                                                                                        000000000000000000
F0010000007340500002000004175790100041450500000000000000000201507100002001ROSIRIS FERIA HOYOS  (COSM. SHILLER)              C000000000800000000000000000000000100010010000000000000000000000F0010000007340500220150710000101 00000000000000000000000000000000000000000000000000000000000000000000000000000000000000000000000000000000000000000N 00000000000NCONT   00    00000000000          00000000000000000000000000000000000000000000 000000000000000A000000000000000000000000000000000000000000000 000000000000000000000000000000000000000     00000000                                                                                                                        000000000000000000
