F0010000010646200001000000686537700011050500000000000000000201711150002001HELIODORO ALCIDES ACOSTA BERRIO- PROASECOL        D000000001100000000000000000000000100010010000000000000000000000F0010000010646200120171115000101 00000000000000000000000000000000000000000000000000000000000000000000000000000000000000000000000000000000000000000N 00000000000NCONT   00    00000000000          00000000000000000000000000000000000000000000 000000000000000A000000000000000000000000000000000000000000000 000000000000000000000000000000000000000     00000000                                                                                                                        000000000000000000
F0010000010646200002000000686537700041450500000000000000000201711150002001HELIODORO ALCIDES ACOSTA BERRIO- PROASECOL        C000000001000000000000000000000000100010010000000000000000000000F0010000010646200220171115000101 00000000000000000000000000000000000000000000000000000000000000000000000000000000000000000000000000000000000000000N 00000000000NCONT   00    00000000000          00000000000000000000000000000000000000000000 000000000000000A000000000000000000000000000000000000000000000 000000000000000000000000000000000000000     00000000                                                                                                                        000000000000000000
F0010000010646200003000000686537700042505000000000000000000201711150002001HELIODORO ALCIDES ACOSTA BERRIO- PROASECOL        C000000000100000000000000000000000100010010000000000000000000000F0010000010646200320171115000101 00000000000000000000000000000000000000000000000000000000000000000000000000000000000000000000000000000000000000000N 00000000000NCONT   00    00000000000          00000000000000000000000000000000000000000000 000000000000000A000000000000000000000000000000000000000000000 000000000000000000000000000000000000000     00000000                                                                                                                        000000000000000000
F0010000010646200004000000686537700023658300000000000000000201711150002001HELIODORO ALCIDES ACOSTA BERRIO- PROASECOL        C000000000000000000000000000000000100010010000000000000000000000F0010000010646200420171115000101 00000000000000000000000000000000000000000000000000000000000000000000000000000000000000000000000000000000000000000N 00000000000NCONT   00    00000000000          00000000000000000000000000000000000000000000 000000000000000A000000000000000000000000000000000000000000000 000000000000000000000000000000000000000     00000000                                                                                                                        000000000000000000
F0010000010646200005000000686537700013552100000000000000000201711150002001HELIODORO ALCIDES ACOSTA BERRIO- PROASECOL        D000000000000000000000000000000000100010010000000000000000000000F0010000010646200520171115000101 00000000000000000000000000000000000000000000000000000000000000000000000000000000000000000000000000000000000000000N 00000000000NCONT   00    00000000000          00000000000000000000000000000000000000000000 000000000000000A000000000000000000000000000000000000000000000 000000000000000000000000000000000000000     00000000                                                                                                                        000000000000000000
F0010000010646300001000086053108300011050500000000000000000201711150002001EL PALACIO DEL ALUMINIO  LTDA                     D000000002500000000000000000000000100010010000000000000000000000F0010000010646300120171115000101 00000000000000000000000000000000000000000000000000000000000000000000000000000000000000000000000000000000000000000N 00000000000NCONT   00    00000000000          00000000000000000000000000000000000000000000 000000000000000A000000000000000000000000000000000000000000000 000000000000000000000000000000000000000     00000000                                                                                                                        000000000000000000
F0010000010646300002000086053108300041450500000000000000000201711150002001EL PALACIO DEL ALUMINIO  LTDA                     C000000002200000000000000000000000100010010000000000000000000000F0010000010646300220171115000101 00000000000000000000000000000000000000000000000000000000000000000000000000000000000000000000000000000000000000000N 00000000000NCONT   00    00000000000          00000000000000000000000000000000000000000000 000000000000000A000000000000000000000000000000000000000000000 000000000000000000000000000000000000000     00000000                                                                                                                        000000000000000000
F0010000010646300003000086053108300042505000000000000000000201711150002001EL PALACIO DEL ALUMINIO  LTDA                     C000000000300000000000000000000000100010010000000000000000000000F0010000010646300320171115000101 00000000000000000000000000000000000000000000000000000000000000000000000000000000000000000000000000000000000000000N 00000000000NCONT   00    00000000000          00000000000000000000000000000000000000000000 000000000000000A000000000000000000000000000000000000000000000 000000000000000000000000000000000000000     00000000                                                                                                                        000000000000000000
F0010000010646300004000086053108300023658300000000000000000201711150002001EL PALACIO DEL ALUMINIO  LTDA                     C000000000000000000000000000000000100010010000000000000000000000F0010000010646300420171115000101 00000000000000000000000000000000000000000000000000000000000000000000000000000000000000000000000000000000000000000N 00000000000NCONT   00    00000000000          00000000000000000000000000000000000000000000 000000000000000A000000000000000000000000000000000000000000000 000000000000000000000000000000000000000     00000000                                                                                                                        000000000000000000
F0010000010646300005000086053108300013552100000000000000000201711150002001EL PALACIO DEL ALUMINIO  LTDA                     D000000000000000000000000000000000100010010000000000000000000000F0010000010646300520171115000101 00000000000000000000000000000000000000000000000000000000000000000000000000000000000000000000000000000000000000000N 00000000000NCONT   00    00000000000          00000000000000000000000000000000000000000000 000000000000000A000000000000000000000000000000000000000000000 000000000000000000000000000000000000000     00000000                                                                                                                        000000000000000000
F0010000010646400001000090110298900011050500000000000000000201711150002001CONSTRUMALLAS SAS                                 D000000002700000000000000000000000100010010000000000000000000000F0010000010646400120171115000101 00000000000000000000000000000000000000000000000000000000000000000000000000000000000000000000000000000000000000000N 00000000000NCONT   00    00000000000          00000000000000000000000000000000000000000000 000000000000000A000000000000000000000000000000000000000000000 000000000000000000000000000000000000000     00000000                                                                                                                        000000000000000000
F0010000010646400002000090110298900041450500000000000000000201711150002001CONSTRUMALLAS SAS                                 C000000002400000000000000000000000100010010000000000000000000000F0010000010646400220171115000101 00000000000000000000000000000000000000000000000000000000000000000000000000000000000000000000000000000000000000000N 00000000000NCONT   00    00000000000          00000000000000000000000000000000000000000000 000000000000000A000000000000000000000000000000000000000000000 000000000000000000000000000000000000000     00000000                                                                                                                        000000000000000000
F0010000010646400003000090110298900042505000000000000000000201711150002001CONSTRUMALLAS SAS                                 C000000000300000000000000000000000100010010000000000000000000000F0010000010646400320171115000101 00000000000000000000000000000000000000000000000000000000000000000000000000000000000000000000000000000000000000000N 00000000000NCONT   00    00000000000          00000000000000000000000000000000000000000000 000000000000000A000000000000000000000000000000000000000000000 000000000000000000000000000000000000000     00000000                                                                                                                        000000000000000000
F0010000010646400004000090110298900023658300000000000000000201711150002001CONSTRUMALLAS SAS                                 C000000000000000000000000000000000100010010000000000000000000000F0010000010646400420171115000101 00000000000000000000000000000000000000000000000000000000000000000000000000000000000000000000000000000000000000000N 00000000000NCONT   00    00000000000          00000000000000000000000000000000000000000000 000000000000000A000000000000000000000000000000000000000000000 000000000000000000000000000000000000000     00000000                                                                                                                        000000000000000000
F0010000010646400005000090110298900013552100000000000000000201711150002001CONSTRUMALLAS SAS                                 D000000000000000000000000000000000100010010000000000000000000000F0010000010646400520171115000101 00000000000000000000000000000000000000000000000000000000000000000000000000000000000000000000000000000000000000000N 00000000000NCONT   00    00000000000          00000000000000000000000000000000000000000000 000000000000000A000000000000000000000000000000000000000000000 000000000000000000000000000000000000000     00000000                                                                                                                        000000000000000000
F0010000010646500001000007801965300011050500000000000000000201711150002001CARLOS ESPINOZA PAEZ                              D000000030000000000000000000000000100010010000000000000000000000F0010000010646500120171115000101 00000000000000000000000000000000000000000000000000000000000000000000000000000000000000000000000000000000000000000N 00000000000NCONT   00    00000000000          00000000000000000000000000000000000000000000 000000000000000A000000000000000000000000000000000000000000000 000000000000000000000000000000000000000     00000000                                                                                                                        000000000000000000
F0010000010646500002000007801965300041450500000000000000000201711150002001CARLOS ESPINOZA PAEZ                              C000000027000000000000000000000000100010010000000000000000000000F0010000010646500220171115000101 00000000000000000000000000000000000000000000000000000000000000000000000000000000000000000000000000000000000000000N 00000000000NCONT   00    00000000000          00000000000000000000000000000000000000000000 000000000000000A000000000000000000000000000000000000000000000 000000000000000000000000000000000000000     00000000                                                                                                                        000000000000000000
F0010000010646500003000007801965300042505000000000000000000201711150002001CARLOS ESPINOZA PAEZ                              C000000003000000000000000000000000100010010000000000000000000000F0010000010646500320171115000101 00000000000000000000000000000000000000000000000000000000000000000000000000000000000000000000000000000000000000000N 00000000000NCONT   00    00000000000          00000000000000000000000000000000000000000000 000000000000000A000000000000000000000000000000000000000000000 000000000000000000000000000000000000000     00000000                                                                                                                        000000000000000000
F0010000010646500004000007801965300023658300000000000000000201711150002001CARLOS ESPINOZA PAEZ                              C000000000000000000000000000000000100010010000000000000000000000F0010000010646500420171115000101 00000000000000000000000000000000000000000000000000000000000000000000000000000000000000000000000000000000000000000N 00000000000NCONT   00    00000000000          00000000000000000000000000000000000000000000 000000000000000A000000000000000000000000000000000000000000000 000000000000000000000000000000000000000     00000000                                                                                                                        000000000000000000
F0010000010646500005000007801965300013552100000000000000000201711150002001CARLOS ESPINOZA PAEZ                              D000000000000000000000000000000000100010010000000000000000000000F0010000010646500520171115000101 00000000000000000000000000000000000000000000000000000000000000000000000000000000000000000000000000000000000000000N 00000000000NCONT   00    00000000000          00000000000000000000000000000000000000000000 000000000000000A000000000000000000000000000000000000000000000 000000000000000000000000000000000000000     00000000                                                                                                                        000000000000000000
F0010000010646600001000007233989800011050500000000000000000201711150002001DEIVIS AGUERO VALIENTE                            D000000001700000000000000000000000100010010000000000000000000000F0010000010646600120171115000101 00000000000000000000000000000000000000000000000000000000000000000000000000000000000000000000000000000000000000000N 00000000000NCONT   00    00000000000          00000000000000000000000000000000000000000000 000000000000000A000000000000000000000000000000000000000000000 000000000000000000000000000000000000000     00000000                                                                                                                        000000000000000000
F0010000010646600002000007233989800041450500000000000000000201711150002001DEIVIS AGUERO VALIENTE                            C000000001200000000000000000000000100010010000000000000000000000F0010000010646600220171115000101 00000000000000000000000000000000000000000000000000000000000000000000000000000000000000000000000000000000000000000N 00000000000NCONT   00    00000000000          00000000000000000000000000000000000000000000 000000000000000A000000000000000000000000000000000000000000000 000000000000000000000000000000000000000     00000000                                                                                                                        000000000000000000
F0010000010646600003000007233989800042505000000000000000000201711150002001DEIVIS AGUERO VALIENTE                            C000000000500000000000000000000000100010010000000000000000000000F0010000010646600320171115000101 00000000000000000000000000000000000000000000000000000000000000000000000000000000000000000000000000000000000000000N 00000000000NCONT   00    00000000000          00000000000000000000000000000000000000000000 000000000000000A000000000000000000000000000000000000000000000 000000000000000000000000000000000000000     00000000                                                                                                                        000000000000000000
F0010000010646600004000007233989800023658300000000000000000201711150002001DEIVIS AGUERO VALIENTE                            C000000000000000000000000000000000100010010000000000000000000000F0010000010646600420171115000101 00000000000000000000000000000000000000000000000000000000000000000000000000000000000000000000000000000000000000000N 00000000000NCONT   00    00000000000          00000000000000000000000000000000000000000000 000000000000000A000000000000000000000000000000000000000000000 000000000000000000000000000000000000000     00000000                                                                                                                        000000000000000000
F0010000010646600005000007233989800013552100000000000000000201711150002001DEIVIS AGUERO VALIENTE                            D000000000000000000000000000000000100010010000000000000000000000F0010000010646600520171115000101 00000000000000000000000000000000000000000000000000000000000000000000000000000000000000000000000000000000000000000N 00000000000NCONT   00    00000000000          00000000000000000000000000000000000000000000 000000000000000A000000000000000000000000000000000000000000000 000000000000000000000000000000000000000     00000000                                                                                                                        000000000000000000
F0010000010646700001000002273757900011050500000000000000000201711150002001CLAUDIA GOMEZ                                     D000000002400000000000000000000000100010010000000000000000000000F0010000010646700120171115000101 00000000000000000000000000000000000000000000000000000000000000000000000000000000000000000000000000000000000000000N 00000000000NCONT   00    00000000000          00000000000000000000000000000000000000000000 000000000000000A000000000000000000000000000000000000000000000 000000000000000000000000000000000000000     00000000                                                                                                                        000000000000000000
F0010000010646700002000002273757900041450500000000000000000201711150002001CLAUDIA GOMEZ                                     C000000001400000000000000000000000100010010000000000000000000000F0010000010646700220171115000101 00000000000000000000000000000000000000000000000000000000000000000000000000000000000000000000000000000000000000000N 00000000000NCONT   00    00000000000          00000000000000000000000000000000000000000000 000000000000000A000000000000000000000000000000000000000000000 000000000000000000000000000000000000000     00000000                                                                                                                        000000000000000000
F0010000010646700003000002273757900042505000000000000000000201711150002001CLAUDIA GOMEZ                                     C000000001000000000000000000000000100010010000000000000000000000F0010000010646700320171115000101 00000000000000000000000000000000000000000000000000000000000000000000000000000000000000000000000000000000000000000N 00000000000NCONT   00    00000000000          00000000000000000000000000000000000000000000 000000000000000A000000000000000000000000000000000000000000000 000000000000000000000000000000000000000     00000000                                                                                                                        000000000000000000
F0010000010646700004000002273757900023658300000000000000000201711150002001CLAUDIA GOMEZ                                     C000000000000000000000000000000000100010010000000000000000000000F0010000010646700420171115000101 00000000000000000000000000000000000000000000000000000000000000000000000000000000000000000000000000000000000000000N 00000000000NCONT   00    00000000000          00000000000000000000000000000000000000000000 000000000000000A000000000000000000000000000000000000000000000 000000000000000000000000000000000000000     00000000                                                                                                                        000000000000000000
F0010000010646700005000002273757900013552100000000000000000201711150002001CLAUDIA GOMEZ                                     D000000000000000000000000000000000100010010000000000000000000000F0010000010646700520171115000101 00000000000000000000000000000000000000000000000000000000000000000000000000000000000000000000000000000000000000000N 00000000000NCONT   00    00000000000          00000000000000000000000000000000000000000000 000000000000000A000000000000000000000000000000000000000000000 000000000000000000000000000000000000000     00000000                                                                                                                        000000000000000000
F0010000010646800001000104243419800011050500000000000000000201711150002001CRISTIAN DAVID DUQUE DELGADO                      D000000002200000000000000000000000100010010000000000000000000000F0010000010646800120171115000101 00000000000000000000000000000000000000000000000000000000000000000000000000000000000000000000000000000000000000000N 00000000000NCONT   00    00000000000          00000000000000000000000000000000000000000000 000000000000000A000000000000000000000000000000000000000000000 000000000000000000000000000000000000000     00000000                                                                                                                        000000000000000000
F0010000010646800002000104243419800041450500000000000000000201711150002001CRISTIAN DAVID DUQUE DELGADO                      C000000001400000000000000000000000100010010000000000000000000000F0010000010646800220171115000101 00000000000000000000000000000000000000000000000000000000000000000000000000000000000000000000000000000000000000000N 00000000000NCONT   00    00000000000          00000000000000000000000000000000000000000000 000000000000000A000000000000000000000000000000000000000000000 000000000000000000000000000000000000000     00000000                                                                                                                        000000000000000000
F0010000010646800003000104243419800042505000000000000000000201711150002001CRISTIAN DAVID DUQUE DELGADO                      C000000000800000000000000000000000100010010000000000000000000000F0010000010646800320171115000101 00000000000000000000000000000000000000000000000000000000000000000000000000000000000000000000000000000000000000000N 00000000000NCONT   00    00000000000          00000000000000000000000000000000000000000000 000000000000000A000000000000000000000000000000000000000000000 000000000000000000000000000000000000000     00000000                                                                                                                        000000000000000000
F0010000010646800004000104243419800023658300000000000000000201711150002001CRISTIAN DAVID DUQUE DELGADO                      C000000000000000000000000000000000100010010000000000000000000000F0010000010646800420171115000101 00000000000000000000000000000000000000000000000000000000000000000000000000000000000000000000000000000000000000000N 00000000000NCONT   00    00000000000          00000000000000000000000000000000000000000000 000000000000000A000000000000000000000000000000000000000000000 000000000000000000000000000000000000000     00000000                                                                                                                        000000000000000000
F0010000010646800005000104243419800013552100000000000000000201711150002001CRISTIAN DAVID DUQUE DELGADO                      D000000000000000000000000000000000100010010000000000000000000000F0010000010646800520171115000101 00000000000000000000000000000000000000000000000000000000000000000000000000000000000000000000000000000000000000000N 00000000000NCONT   00    00000000000          00000000000000000000000000000000000000000000 000000000000000A000000000000000000000000000000000000000000000 000000000000000000000000000000000000000     00000000                                                                                                                        000000000000000000
F0010000010646900001000000744496800011050500000000000000000201711150002001TOMAS SANCHEZ                                     D000000001200000000000000000000000100010010000000000000000000000F0010000010646900120171115000101 00000000000000000000000000000000000000000000000000000000000000000000000000000000000000000000000000000000000000000N 00000000000NCONT   00    00000000000          00000000000000000000000000000000000000000000 000000000000000A000000000000000000000000000000000000000000000 000000000000000000000000000000000000000     00000000                                                                                                                        000000000000000000
F0010000010646900002000000744496800041450500000000000000000201711150002001TOMAS SANCHEZ                                     C000000001100000000000000000000000100010010000000000000000000000F0010000010646900220171115000101 00000000000000000000000000000000000000000000000000000000000000000000000000000000000000000000000000000000000000000N 00000000000NCONT   00    00000000000          00000000000000000000000000000000000000000000 000000000000000A000000000000000000000000000000000000000000000 000000000000000000000000000000000000000     00000000                                                                                                                        000000000000000000
F0010000010646900003000000744496800042505000000000000000000201711150002001TOMAS SANCHEZ                                     C000000000100000000000000000000000100010010000000000000000000000F0010000010646900320171115000101 00000000000000000000000000000000000000000000000000000000000000000000000000000000000000000000000000000000000000000N 00000000000NCONT   00    00000000000          00000000000000000000000000000000000000000000 000000000000000A000000000000000000000000000000000000000000000 000000000000000000000000000000000000000     00000000                                                                                                                        000000000000000000
F0010000010646900004000000744496800023658300000000000000000201711150002001TOMAS SANCHEZ                                     C000000000000000000000000000000000100010010000000000000000000000F0010000010646900420171115000101 00000000000000000000000000000000000000000000000000000000000000000000000000000000000000000000000000000000000000000N 00000000000NCONT   00    00000000000          00000000000000000000000000000000000000000000 000000000000000A000000000000000000000000000000000000000000000 000000000000000000000000000000000000000     00000000                                                                                                                        000000000000000000
F0010000010646900005000000744496800013552100000000000000000201711150002001TOMAS SANCHEZ                                     D000000000000000000000000000000000100010010000000000000000000000F0010000010646900520171115000101 00000000000000000000000000000000000000000000000000000000000000000000000000000000000000000000000000000000000000000N 00000000000NCONT   00    00000000000          00000000000000000000000000000000000000000000 000000000000000A000000000000000000000000000000000000000000000 000000000000000000000000000000000000000     00000000                                                                                                                        000000000000000000
F0010000010647000001000004175790100011050500000000000000000201711150002001ROSIRIS FERIA HOYOS  (COSM. SHILLER)              D000000001700000000000000000000000100010010000000000000000000000F0010000010647000120171115000101 00000000000000000000000000000000000000000000000000000000000000000000000000000000000000000000000000000000000000000N 00000000000NCONT   00    00000000000          00000000000000000000000000000000000000000000 000000000000000A000000000000000000000000000000000000000000000 000000000000000000000000000000000000000     00000000                                                                                                                        000000000000000000
F0010000010647000002000004175790100041450500000000000000000201711150002001ROSIRIS FERIA HOYOS  (COSM. SHILLER)              C000000001200000000000000000000000100010010000000000000000000000F0010000010647000220171115000101 00000000000000000000000000000000000000000000000000000000000000000000000000000000000000000000000000000000000000000N 00000000000NCONT   00    00000000000          00000000000000000000000000000000000000000000 000000000000000A000000000000000000000000000000000000000000000 000000000000000000000000000000000000000     00000000                                                                                                                        000000000000000000
F0010000010647000003000004175790100042505000000000000000000201711150002001ROSIRIS FERIA HOYOS  (COSM. SHILLER)              C000000000500000000000000000000000100010010000000000000000000000F0010000010647000320171115000101 00000000000000000000000000000000000000000000000000000000000000000000000000000000000000000000000000000000000000000N 00000000000NCONT   00    00000000000          00000000000000000000000000000000000000000000 000000000000000A000000000000000000000000000000000000000000000 000000000000000000000000000000000000000     00000000                                                                                                                        000000000000000000
F0010000010647000004000004175790100023658300000000000000000201711150002001ROSIRIS FERIA HOYOS  (COSM. SHILLER)              C000000000000000000000000000000000100010010000000000000000000000F0010000010647000420171115000101 00000000000000000000000000000000000000000000000000000000000000000000000000000000000000000000000000000000000000000N 00000000000NCONT   00    00000000000          00000000000000000000000000000000000000000000 000000000000000A000000000000000000000000000000000000000000000 000000000000000000000000000000000000000     00000000                                                                                                                        000000000000000000
F0010000010647000005000004175790100013552100000000000000000201711150002001ROSIRIS FERIA HOYOS  (COSM. SHILLER)              D000000000000000000000000000000000100010010000000000000000000000F0010000010647000520171115000101 00000000000000000000000000000000000000000000000000000000000000000000000000000000000000000000000000000000000000000N 00000000000NCONT   00    00000000000          00000000000000000000000000000000000000000000 000000000000000A000000000000000000000000000000000000000000000 000000000000000000000000000000000000000     00000000                                                                                                                        000000000000000000
F0010000010647100001000089010038800011050500000000000000000201711150002001CRISTALERIA SELMAN SAS                            D000000001300000000000000000000000100010010000000000000000000000F0010000010647100120171115000101 00000000000000000000000000000000000000000000000000000000000000000000000000000000000000000000000000000000000000000N 00000000000NCONT   00    00000000000          00000000000000000000000000000000000000000000 000000000000000A000000000000000000000000000000000000000000000 000000000000000000000000000000000000000     00000000                                                                                                                        000000000000000000
F0010000010647100002000089010038800041450500000000000000000201711150002001CRISTALERIA SELMAN SAS                            C000000001200000000000000000000000100010010000000000000000000000F0010000010647100220171115000101 00000000000000000000000000000000000000000000000000000000000000000000000000000000000000000000000000000000000000000N 00000000000NCONT   00    00000000000          00000000000000000000000000000000000000000000 000000000000000A000000000000000000000000000000000000000000000 000000000000000000000000000000000000000     00000000                                                                                                                        000000000000000000
F0010000010647100003000089010038800042505000000000000000000201711150002001CRISTALERIA SELMAN SAS                            C000000000100000000000000000000000100010010000000000000000000000F0010000010647100320171115000101 00000000000000000000000000000000000000000000000000000000000000000000000000000000000000000000000000000000000000000N 00000000000NCONT   00    00000000000          00000000000000000000000000000000000000000000 000000000000000A000000000000000000000000000000000000000000000 000000000000000000000000000000000000000     00000000                                                                                                                        000000000000000000
F0010000010647100004000089010038800023658300000000000000000201711150002001CRISTALERIA SELMAN SAS                            C000000000000000000000000000000000100010010000000000000000000000F0010000010647100420171115000101 00000000000000000000000000000000000000000000000000000000000000000000000000000000000000000000000000000000000000000N 00000000000NCONT   00    00000000000          00000000000000000000000000000000000000000000 000000000000000A000000000000000000000000000000000000000000000 000000000000000000000000000000000000000     00000000                                                                                                                        000000000000000000
F0010000010647100005000089010038800013552100000000000000000201711150002001CRISTALERIA SELMAN SAS                            D000000000000000000000000000000000100010010000000000000000000000F0010000010647100520171115000101 00000000000000000000000000000000000000000000000000000000000000000000000000000000000000000000000000000000000000000N 00000000000NCONT   00    00000000000          00000000000000000000000000000000000000000000 000000000000000A000000000000000000000000000000000000000000000 000000000000000000000000000000000000000     00000000                                                                                                                        000000000000000000
F0010000010647200001000089010038800011050500000000000000000201711150002001CRISTALERIA SELMAN SAS                            D000000001200000000000000000000000100010010000000000000000000000F0010000010647200120171115000101 00000000000000000000000000000000000000000000000000000000000000000000000000000000000000000000000000000000000000000N 00000000000NCONT   00    00000000000          00000000000000000000000000000000000000000000 000000000000000A000000000000000000000000000000000000000000000 000000000000000000000000000000000000000     00000000                                                                                                                        000000000000000000
F0010000010647200002000089010038800041450500000000000000000201711150002001CRISTALERIA SELMAN SAS                            C000000001100000000000000000000000100010010000000000000000000000F0010000010647200220171115000101 00000000000000000000000000000000000000000000000000000000000000000000000000000000000000000000000000000000000000000N 00000000000NCONT   00    00000000000          00000000000000000000000000000000000000000000 000000000000000A000000000000000000000000000000000000000000000 000000000000000000000000000000000000000     00000000                                                                                                                        000000000000000000
F0010000010647200003000089010038800042505000000000000000000201711150002001CRISTALERIA SELMAN SAS                            C000000000100000000000000000000000100010010000000000000000000000F0010000010647200320171115000101 00000000000000000000000000000000000000000000000000000000000000000000000000000000000000000000000000000000000000000N 00000000000NCONT   00    00000000000          00000000000000000000000000000000000000000000 000000000000000A000000000000000000000000000000000000000000000 000000000000000000000000000000000000000     00000000                                                                                                                        000000000000000000
F0010000010647200004000089010038800023658300000000000000000201711150002001CRISTALERIA SELMAN SAS                            C000000000000000000000000000000000100010010000000000000000000000F0010000010647200420171115000101 00000000000000000000000000000000000000000000000000000000000000000000000000000000000000000000000000000000000000000N 00000000000NCONT   00    00000000000          00000000000000000000000000000000000000000000 000000000000000A000000000000000000000000000000000000000000000 000000000000000000000000000000000000000     00000000                                                                                                                        000000000000000000
F0010000010647200005000089010038800013552100000000000000000201711150002001CRISTALERIA SELMAN SAS                            D000000000000000000000000000000000100010010000000000000000000000F0010000010647200520171115000101 00000000000000000000000000000000000000000000000000000000000000000000000000000000000000000000000000000000000000000N 00000000000NCONT   00    00000000000          00000000000000000000000000000000000000000000 000000000000000A000000000000000000000000000000000000000000000 000000000000000000000000000000000000000     00000000                                                                                                                        000000000000000000
F0010000010647300001000000431178400011050500000000000000000201711150002001EFRAIN ALVAREZ                                    D000000002240000000000000000000000100010010000000000000000000000F0010000010647300120171115000101 00000000000000000000000000000000000000000000000000000000000000000000000000000000000000000000000000000000000000000N 00000000000NCONT   00    00000000000          00000000000000000000000000000000000000000000 000000000000000A000000000000000000000000000000000000000000000 000000000000000000000000000000000000000     00000000                                                                                                                        000000000000000000
F0010000010647300002000000431178400041450500000000000000000201711150002001EFRAIN ALVAREZ                                    C000000001940000000000000000000000100010010000000000000000000000F0010000010647300220171115000101 00000000000000000000000000000000000000000000000000000000000000000000000000000000000000000000000000000000000000000N 00000000000NCONT   00    00000000000          00000000000000000000000000000000000000000000 000000000000000A000000000000000000000000000000000000000000000 000000000000000000000000000000000000000     00000000                                                                                                                        000000000000000000
F0010000010647300003000000431178400042505000000000000000000201711150002001EFRAIN ALVAREZ                                    C000000000300000000000000000000000100010010000000000000000000000F0010000010647300320171115000101 00000000000000000000000000000000000000000000000000000000000000000000000000000000000000000000000000000000000000000N 00000000000NCONT   00    00000000000          00000000000000000000000000000000000000000000 000000000000000A000000000000000000000000000000000000000000000 000000000000000000000000000000000000000     00000000                                                                                                                        000000000000000000
F0010000010647300004000000431178400023658300000000000000000201711150002001EFRAIN ALVAREZ                                    C000000000000000000000000000000000100010010000000000000000000000F0010000010647300420171115000101 00000000000000000000000000000000000000000000000000000000000000000000000000000000000000000000000000000000000000000N 00000000000NCONT   00    00000000000          00000000000000000000000000000000000000000000 000000000000000A000000000000000000000000000000000000000000000 000000000000000000000000000000000000000     00000000                                                                                                                        000000000000000000
F0010000010647300005000000431178400013552100000000000000000201711150002001EFRAIN ALVAREZ                                    D000000000000000000000000000000000100010010000000000000000000000F0010000010647300520171115000101 00000000000000000000000000000000000000000000000000000000000000000000000000000000000000000000000000000000000000000N 00000000000NCONT   00    00000000000          00000000000000000000000000000000000000000000 000000000000000A000000000000000000000000000000000000000000000 000000000000000000000000000000000000000     00000000                                                                                                                        000000000000000000
F0010000010647400001000000431178400011050500000000000000000201711150002001EFRAIN ALVAREZ                                    D000000001405000000000000000000000100010010000000000000000000000F0010000010647400120171115000101 00000000000000000000000000000000000000000000000000000000000000000000000000000000000000000000000000000000000000000N 00000000000NCONT   00    00000000000          00000000000000000000000000000000000000000000 000000000000000A000000000000000000000000000000000000000000000 000000000000000000000000000000000000000     00000000                                                                                                                        000000000000000000
F0010000010647400002000000431178400041450500000000000000000201711150002001EFRAIN ALVAREZ                                    C000000001330000000000000000000000100010010000000000000000000000F0010000010647400220171115000101 00000000000000000000000000000000000000000000000000000000000000000000000000000000000000000000000000000000000000000N 00000000000NCONT   00    00000000000          00000000000000000000000000000000000000000000 000000000000000A000000000000000000000000000000000000000000000 000000000000000000000000000000000000000     00000000                                                                                                                        000000000000000000
F0010000010647400003000000431178400042505000000000000000000201711150002001EFRAIN ALVAREZ                                    C000000000075000000000000000000000100010010000000000000000000000F0010000010647400320171115000101 00000000000000000000000000000000000000000000000000000000000000000000000000000000000000000000000000000000000000000N 00000000000NCONT   00    00000000000          00000000000000000000000000000000000000000000 000000000000000A000000000000000000000000000000000000000000000 000000000000000000000000000000000000000     00000000                                                                                                                        000000000000000000
F0010000010647400004000000431178400023658300000000000000000201711150002001EFRAIN ALVAREZ                                    C000000000000000000000000000000000100010010000000000000000000000F0010000010647400420171115000101 00000000000000000000000000000000000000000000000000000000000000000000000000000000000000000000000000000000000000000N 00000000000NCONT   00    00000000000          00000000000000000000000000000000000000000000 000000000000000A000000000000000000000000000000000000000000000 000000000000000000000000000000000000000     00000000                                                                                                                        000000000000000000
F0010000010647400005000000431178400013552100000000000000000201711150002001EFRAIN ALVAREZ                                    D000000000000000000000000000000000100010010000000000000000000000F0010000010647400520171115000101 00000000000000000000000000000000000000000000000000000000000000000000000000000000000000000000000000000000000000000N 00000000000NCONT   00    00000000000          00000000000000000000000000000000000000000000 000000000000000A000000000000000000000000000000000000000000000 000000000000000000000000000000000000000     00000000                                                                                                                        000000000000000000
F0010000010647500001000000431178400011050500000000000000000201711150002001EFRAIN ALVAREZ                                    D000000001455000000000000000000000100010010000000000000000000000F0010000010647500120171115000101 00000000000000000000000000000000000000000000000000000000000000000000000000000000000000000000000000000000000000000N 00000000000NCONT   00    00000000000          00000000000000000000000000000000000000000000 000000000000000A000000000000000000000000000000000000000000000 000000000000000000000000000000000000000     00000000                                                                                                                        000000000000000000
F0010000010647500002000000431178400041450500000000000000000201711150002001EFRAIN ALVAREZ                                    C000000001330000000000000000000000100010010000000000000000000000F0010000010647500220171115000101 00000000000000000000000000000000000000000000000000000000000000000000000000000000000000000000000000000000000000000N 00000000000NCONT   00    00000000000          00000000000000000000000000000000000000000000 000000000000000A000000000000000000000000000000000000000000000 000000000000000000000000000000000000000     00000000                                                                                                                        000000000000000000
F0010000010647500003000000431178400042505000000000000000000201711150002001EFRAIN ALVAREZ                                    C000000000125000000000000000000000100010010000000000000000000000F0010000010647500320171115000101 00000000000000000000000000000000000000000000000000000000000000000000000000000000000000000000000000000000000000000N 00000000000NCONT   00    00000000000          00000000000000000000000000000000000000000000 000000000000000A000000000000000000000000000000000000000000000 000000000000000000000000000000000000000     00000000                                                                                                                        000000000000000000
F0010000010647500004000000431178400023658300000000000000000201711150002001EFRAIN ALVAREZ                                    C000000000000000000000000000000000100010010000000000000000000000F0010000010647500420171115000101 00000000000000000000000000000000000000000000000000000000000000000000000000000000000000000000000000000000000000000N 00000000000NCONT   00    00000000000          00000000000000000000000000000000000000000000 000000000000000A000000000000000000000000000000000000000000000 000000000000000000000000000000000000000     00000000                                                                                                                        000000000000000000
F0010000010647500005000000431178400013552100000000000000000201711150002001EFRAIN ALVAREZ                                    D000000000000000000000000000000000100010010000000000000000000000F0010000010647500520171115000101 00000000000000000000000000000000000000000000000000000000000000000000000000000000000000000000000000000000000000000N 00000000000NCONT   00    00000000000          00000000000000000000000000000000000000000000 000000000000000A000000000000000000000000000000000000000000000 000000000000000000000000000000000000000     00000000                                                                                                                        000000000000000000
F0010000010647600001000001022529300011050500000000000000000201711150002001ALBERTO ALVAREZ ISAZA                             D000000002640000000000000000000000100010010000000000000000000000F0010000010647600120171115000101 00000000000000000000000000000000000000000000000000000000000000000000000000000000000000000000000000000000000000000N 00000000000NCONT   00    00000000000          00000000000000000000000000000000000000000000 000000000000000A000000000000000000000000000000000000000000000 000000000000000000000000000000000000000     00000000                                                                                                                        000000000000000000
F0010000010647600002000001022529300041450500000000000000000201711150002001ALBERTO ALVAREZ ISAZA                             C000000002640000000000000000000000100010010000000000000000000000F0010000010647600220171115000101 00000000000000000000000000000000000000000000000000000000000000000000000000000000000000000000000000000000000000000N 00000000000NCONT   00    00000000000          00000000000000000000000000000000000000000000 000000000000000A000000000000000000000000000000000000000000000 000000000000000000000000000000000000000     00000000                                                                                                                        000000000000000000
F0010000010647600003000001022529300042505000000000000000000201711150002001ALBERTO ALVAREZ ISAZA                             C000000000000000000000000000000000100010010000000000000000000000F0010000010647600320171115000101 00000000000000000000000000000000000000000000000000000000000000000000000000000000000000000000000000000000000000000N 00000000000NCONT   00    00000000000          00000000000000000000000000000000000000000000 000000000000000A000000000000000000000000000000000000000000000 000000000000000000000000000000000000000     00000000                                                                                                                        000000000000000000
F0010000010647600004000001022529300023658300000000000000000201711150002001ALBERTO ALVAREZ ISAZA                             C000000000000000000000000000000000100010010000000000000000000000F0010000010647600420171115000101 00000000000000000000000000000000000000000000000000000000000000000000000000000000000000000000000000000000000000000N 00000000000NCONT   00    00000000000          00000000000000000000000000000000000000000000 000000000000000A000000000000000000000000000000000000000000000 000000000000000000000000000000000000000     00000000                                                                                                                        000000000000000000
F0010000010647600005000001022529300013552100000000000000000201711150002001ALBERTO ALVAREZ ISAZA                             D000000000000000000000000000000000100010010000000000000000000000F0010000010647600520171115000101 00000000000000000000000000000000000000000000000000000000000000000000000000000000000000000000000000000000000000000N 00000000000NCONT   00    00000000000          00000000000000000000000000000000000000000000 000000000000000A000000000000000000000000000000000000000000000 000000000000000000000000000000000000000     00000000                                                                                                                        000000000000000000
F0010000010647700001000001022529300011050500000000000000000201711150002001ALBERTO ALVAREZ ISAZA                             D000000002640000000000000000000000100010010000000000000000000000F0010000010647700120171115000101 00000000000000000000000000000000000000000000000000000000000000000000000000000000000000000000000000000000000000000N 00000000000NCONT   00    00000000000          00000000000000000000000000000000000000000000 000000000000000A000000000000000000000000000000000000000000000 000000000000000000000000000000000000000     00000000                                                                                                                        000000000000000000
F0010000010647700002000001022529300041450500000000000000000201711150002001ALBERTO ALVAREZ ISAZA                             C000000002640000000000000000000000100010010000000000000000000000F0010000010647700220171115000101 00000000000000000000000000000000000000000000000000000000000000000000000000000000000000000000000000000000000000000N 00000000000NCONT   00    00000000000          00000000000000000000000000000000000000000000 000000000000000A000000000000000000000000000000000000000000000 000000000000000000000000000000000000000     00000000                                                                                                                        000000000000000000
F0010000010647700003000001022529300042505000000000000000000201711150002001ALBERTO ALVAREZ ISAZA                             C000000000000000000000000000000000100010010000000000000000000000F0010000010647700320171115000101 00000000000000000000000000000000000000000000000000000000000000000000000000000000000000000000000000000000000000000N 00000000000NCONT   00    00000000000          00000000000000000000000000000000000000000000 000000000000000A000000000000000000000000000000000000000000000 000000000000000000000000000000000000000     00000000                                                                                                                        000000000000000000
F0010000010647700004000001022529300023658300000000000000000201711150002001ALBERTO ALVAREZ ISAZA                             C000000000000000000000000000000000100010010000000000000000000000F0010000010647700420171115000101 00000000000000000000000000000000000000000000000000000000000000000000000000000000000000000000000000000000000000000N 00000000000NCONT   00    00000000000          00000000000000000000000000000000000000000000 000000000000000A000000000000000000000000000000000000000000000 000000000000000000000000000000000000000     00000000                                                                                                                        000000000000000000
F0010000010647700005000001022529300013552100000000000000000201711150002001ALBERTO ALVAREZ ISAZA                             D000000000000000000000000000000000100010010000000000000000000000F0010000010647700520171115000101 00000000000000000000000000000000000000000000000000000000000000000000000000000000000000000000000000000000000000000N 00000000000NCONT   00    00000000000          00000000000000000000000000000000000000000000 000000000000000A000000000000000000000000000000000000000000000 000000000000000000000000000000000000000     00000000                                                                                                                        000000000000000000
F0010000010647800001000001022529300011050500000000000000000201711150002001ALBERTO ALVAREZ ISAZA                             D000000001760000000000000000000000100010010000000000000000000000F0010000010647800120171115000101 00000000000000000000000000000000000000000000000000000000000000000000000000000000000000000000000000000000000000000N 00000000000NCONT   00    00000000000          00000000000000000000000000000000000000000000 000000000000000A000000000000000000000000000000000000000000000 000000000000000000000000000000000000000     00000000                                                                                                                        000000000000000000
F0010000010647800002000001022529300041450500000000000000000201711150002001ALBERTO ALVAREZ ISAZA                             C000000001760000000000000000000000100010010000000000000000000000F0010000010647800220171115000101 00000000000000000000000000000000000000000000000000000000000000000000000000000000000000000000000000000000000000000N 00000000000NCONT   00    00000000000          00000000000000000000000000000000000000000000 000000000000000A000000000000000000000000000000000000000000000 000000000000000000000000000000000000000     00000000                                                                                                                        000000000000000000
F0010000010647800003000001022529300042505000000000000000000201711150002001ALBERTO ALVAREZ ISAZA                             C000000000000000000000000000000000100010010000000000000000000000F0010000010647800320171115000101 00000000000000000000000000000000000000000000000000000000000000000000000000000000000000000000000000000000000000000N 00000000000NCONT   00    00000000000          00000000000000000000000000000000000000000000 000000000000000A000000000000000000000000000000000000000000000 000000000000000000000000000000000000000     00000000                                                                                                                        000000000000000000
F0010000010647800004000001022529300023658300000000000000000201711150002001ALBERTO ALVAREZ ISAZA                             C000000000000000000000000000000000100010010000000000000000000000F0010000010647800420171115000101 00000000000000000000000000000000000000000000000000000000000000000000000000000000000000000000000000000000000000000N 00000000000NCONT   00    00000000000          00000000000000000000000000000000000000000000 000000000000000A000000000000000000000000000000000000000000000 000000000000000000000000000000000000000     00000000                                                                                                                        000000000000000000
F0010000010647800005000001022529300013552100000000000000000201711150002001ALBERTO ALVAREZ ISAZA                             D000000000000000000000000000000000100010010000000000000000000000F0010000010647800520171115000101 00000000000000000000000000000000000000000000000000000000000000000000000000000000000000000000000000000000000000000N 00000000000NCONT   00    00000000000          00000000000000000000000000000000000000000000 000000000000000A000000000000000000000000000000000000000000000 000000000000000000000000000000000000000     00000000                                                                                                                        000000000000000000
F0010000010647900001000001022529300011050500000000000000000201711150002001ALBERTO ALVAREZ ISAZA                             D000000000880000000000000000000000100010010000000000000000000000F0010000010647900120171115000101 00000000000000000000000000000000000000000000000000000000000000000000000000000000000000000000000000000000000000000N 00000000000NCONT   00    00000000000          00000000000000000000000000000000000000000000 000000000000000A000000000000000000000000000000000000000000000 000000000000000000000000000000000000000     00000000                                                                                                                        000000000000000000
F0010000010647900002000001022529300041450500000000000000000201711150002001ALBERTO ALVAREZ ISAZA                             C000000000880000000000000000000000100010010000000000000000000000F0010000010647900220171115000101 00000000000000000000000000000000000000000000000000000000000000000000000000000000000000000000000000000000000000000N 00000000000NCONT   00    00000000000          00000000000000000000000000000000000000000000 000000000000000A000000000000000000000000000000000000000000000 000000000000000000000000000000000000000     00000000                                                                                                                        000000000000000000
F0010000010647900003000001022529300042505000000000000000000201711150002001ALBERTO ALVAREZ ISAZA                             C000000000000000000000000000000000100010010000000000000000000000F0010000010647900320171115000101 00000000000000000000000000000000000000000000000000000000000000000000000000000000000000000000000000000000000000000N 00000000000NCONT   00    00000000000          00000000000000000000000000000000000000000000 000000000000000A000000000000000000000000000000000000000000000 000000000000000000000000000000000000000     00000000                                                                                                                        000000000000000000
F0010000010647900004000001022529300023658300000000000000000201711150002001ALBERTO ALVAREZ ISAZA                             C000000000000000000000000000000000100010010000000000000000000000F0010000010647900420171115000101 00000000000000000000000000000000000000000000000000000000000000000000000000000000000000000000000000000000000000000N 00000000000NCONT   00    00000000000          00000000000000000000000000000000000000000000 000000000000000A000000000000000000000000000000000000000000000 000000000000000000000000000000000000000     00000000                                                                                                                        000000000000000000
F0010000010647900005000001022529300013552100000000000000000201711150002001ALBERTO ALVAREZ ISAZA                             D000000000000000000000000000000000100010010000000000000000000000F0010000010647900520171115000101 00000000000000000000000000000000000000000000000000000000000000000000000000000000000000000000000000000000000000000N 00000000000NCONT   00    00000000000          00000000000000000000000000000000000000000000 000000000000000A000000000000000000000000000000000000000000000 000000000000000000000000000000000000000     00000000                                                                                                                        000000000000000000
F0010000010648000001000003314755400011050500000000000000000201711150002001RUMATEX DE COLOMBIA                               D000000001900000000000000000000000100010010000000000000000000000F0010000010648000120171115000101 00000000000000000000000000000000000000000000000000000000000000000000000000000000000000000000000000000000000000000N 00000000000NCONT   00    00000000000          00000000000000000000000000000000000000000000 000000000000000A000000000000000000000000000000000000000000000 000000000000000000000000000000000000000     00000000                                                                                                                        000000000000000000
F0010000010648000002000003314755400041450500000000000000000201711150002001RUMATEX DE COLOMBIA                               C000000001100000000000000000000000100010010000000000000000000000F0010000010648000220171115000101 00000000000000000000000000000000000000000000000000000000000000000000000000000000000000000000000000000000000000000N 00000000000NCONT   00    00000000000          00000000000000000000000000000000000000000000 000000000000000A000000000000000000000000000000000000000000000 000000000000000000000000000000000000000     00000000                                                                                                                        000000000000000000
F0010000010648000003000003314755400042505000000000000000000201711150002001RUMATEX DE COLOMBIA                               C000000000800000000000000000000000100010010000000000000000000000F0010000010648000320171115000101 00000000000000000000000000000000000000000000000000000000000000000000000000000000000000000000000000000000000000000N 00000000000NCONT   00    00000000000          00000000000000000000000000000000000000000000 000000000000000A000000000000000000000000000000000000000000000 000000000000000000000000000000000000000     00000000                                                                                                                        000000000000000000
F0010000010648000004000003314755400023658300000000000000000201711150002001RUMATEX DE COLOMBIA                               C000000000000000000000000000000000100010010000000000000000000000F0010000010648000420171115000101 00000000000000000000000000000000000000000000000000000000000000000000000000000000000000000000000000000000000000000N 00000000000NCONT   00    00000000000          00000000000000000000000000000000000000000000 000000000000000A000000000000000000000000000000000000000000000 000000000000000000000000000000000000000     00000000                                                                                                                        000000000000000000
F0010000010648000005000003314755400013552100000000000000000201711150002001RUMATEX DE COLOMBIA                               D000000000000000000000000000000000100010010000000000000000000000F0010000010648000520171115000101 00000000000000000000000000000000000000000000000000000000000000000000000000000000000000000000000000000000000000000N 00000000000NCONT   00    00000000000          00000000000000000000000000000000000000000000 000000000000000A000000000000000000000000000000000000000000000 000000000000000000000000000000000000000     00000000                                                                                                                        000000000000000000
F0010000010648100001000003314755400011050500000000000000000201711150002001RUMATEX DE COLOMBIA                               D000000001600000000000000000000000100010010000000000000000000000F0010000010648100120171115000101 00000000000000000000000000000000000000000000000000000000000000000000000000000000000000000000000000000000000000000N 00000000000NCONT   00    00000000000          00000000000000000000000000000000000000000000 000000000000000A000000000000000000000000000000000000000000000 000000000000000000000000000000000000000     00000000                                                                                                                        000000000000000000
F0010000010648100002000003314755400041450500000000000000000201711150002001RUMATEX DE COLOMBIA                               C000000001300000000000000000000000100010010000000000000000000000F0010000010648100220171115000101 00000000000000000000000000000000000000000000000000000000000000000000000000000000000000000000000000000000000000000N 00000000000NCONT   00    00000000000          00000000000000000000000000000000000000000000 000000000000000A000000000000000000000000000000000000000000000 000000000000000000000000000000000000000     00000000                                                                                                                        000000000000000000
F0010000010648100003000003314755400042505000000000000000000201711150002001RUMATEX DE COLOMBIA                               C000000000300000000000000000000000100010010000000000000000000000F0010000010648100320171115000101 00000000000000000000000000000000000000000000000000000000000000000000000000000000000000000000000000000000000000000N 00000000000NCONT   00    00000000000          00000000000000000000000000000000000000000000 000000000000000A000000000000000000000000000000000000000000000 000000000000000000000000000000000000000     00000000                                                                                                                        000000000000000000
F0010000010648100004000003314755400023658300000000000000000201711150002001RUMATEX DE COLOMBIA                               C000000000000000000000000000000000100010010000000000000000000000F0010000010648100420171115000101 00000000000000000000000000000000000000000000000000000000000000000000000000000000000000000000000000000000000000000N 00000000000NCONT   00    00000000000          00000000000000000000000000000000000000000000 000000000000000A000000000000000000000000000000000000000000000 000000000000000000000000000000000000000     00000000                                                                                                                        000000000000000000
F0010000010648100005000003314755400013552100000000000000000201711150002001RUMATEX DE COLOMBIA                               D000000000000000000000000000000000100010010000000000000000000000F0010000010648100520171115000101 00000000000000000000000000000000000000000000000000000000000000000000000000000000000000000000000000000000000000000N 00000000000NCONT   00    00000000000          00000000000000000000000000000000000000000000 000000000000000A000000000000000000000000000000000000000000000 000000000000000000000000000000000000000     00000000                                                                                                                        000000000000000000
F0010000010648200001000090034602400011050500000000000000000201711150002001PRODUCTOS NACIONALES PARAFINICOS LA CUSTODIA S.A.SD000000001150000000000000000000000100010010000000000000000000000F0010000010648200120171115000101 00000000000000000000000000000000000000000000000000000000000000000000000000000000000000000000000000000000000000000N 00000000000NCONT   00    00000000000          00000000000000000000000000000000000000000000 000000000000000A000000000000000000000000000000000000000000000 000000000000000000000000000000000000000     00000000                                                                                                                        000000000000000000
F0010000010648200002000090034602400041450500000000000000000201711150002001PRODUCTOS NACIONALES PARAFINICOS LA CUSTODIA S.A.SC000000001050000000000000000000000100010010000000000000000000000F0010000010648200220171115000101 00000000000000000000000000000000000000000000000000000000000000000000000000000000000000000000000000000000000000000N 00000000000NCONT   00    00000000000          00000000000000000000000000000000000000000000 000000000000000A000000000000000000000000000000000000000000000 000000000000000000000000000000000000000     00000000                                                                                                                        000000000000000000
F0010000010648200003000090034602400042505000000000000000000201711150002001PRODUCTOS NACIONALES PARAFINICOS LA CUSTODIA S.A.SC000000000100000000000000000000000100010010000000000000000000000F0010000010648200320171115000101 00000000000000000000000000000000000000000000000000000000000000000000000000000000000000000000000000000000000000000N 00000000000NCONT   00    00000000000          00000000000000000000000000000000000000000000 000000000000000A000000000000000000000000000000000000000000000 000000000000000000000000000000000000000     00000000                                                                                                                        000000000000000000
F0010000010648200004000090034602400023658300000000000000000201711150002001PRODUCTOS NACIONALES PARAFINICOS LA CUSTODIA S.A.SC000000000000000000000000000000000100010010000000000000000000000F0010000010648200420171115000101 00000000000000000000000000000000000000000000000000000000000000000000000000000000000000000000000000000000000000000N 00000000000NCONT   00    00000000000          00000000000000000000000000000000000000000000 000000000000000A000000000000000000000000000000000000000000000 000000000000000000000000000000000000000     00000000                                                                                                                        000000000000000000
F0010000010648200005000090034602400013552100000000000000000201711150002001PRODUCTOS NACIONALES PARAFINICOS LA CUSTODIA S.A.SD000000000000000000000000000000000100010010000000000000000000000F0010000010648200520171115000101 00000000000000000000000000000000000000000000000000000000000000000000000000000000000000000000000000000000000000000N 00000000000NCONT   00    00000000000          00000000000000000000000000000000000000000000 000000000000000A000000000000000000000000000000000000000000000 000000000000000000000000000000000000000     00000000                                                                                                                        000000000000000000
F0010000010648300001000003314755400011050500000000000000000201711150002001RUMATEX DE COLOMBIA                               D000000001600000000000000000000000100010010000000000000000000000F0010000010648300120171115000101 00000000000000000000000000000000000000000000000000000000000000000000000000000000000000000000000000000000000000000N 00000000000NCONT   00    00000000000          00000000000000000000000000000000000000000000 000000000000000A000000000000000000000000000000000000000000000 000000000000000000000000000000000000000     00000000                                                                                                                        000000000000000000
F0010000010648300002000003314755400041450500000000000000000201711150002001RUMATEX DE COLOMBIA                               C000000001300000000000000000000000100010010000000000000000000000F0010000010648300220171115000101 00000000000000000000000000000000000000000000000000000000000000000000000000000000000000000000000000000000000000000N 00000000000NCONT   00    00000000000          00000000000000000000000000000000000000000000 000000000000000A000000000000000000000000000000000000000000000 000000000000000000000000000000000000000     00000000                                                                                                                        000000000000000000
F0010000010648300003000003314755400042505000000000000000000201711150002001RUMATEX DE COLOMBIA                               C000000000300000000000000000000000100010010000000000000000000000F0010000010648300320171115000101 00000000000000000000000000000000000000000000000000000000000000000000000000000000000000000000000000000000000000000N 00000000000NCONT   00    00000000000          00000000000000000000000000000000000000000000 000000000000000A000000000000000000000000000000000000000000000 000000000000000000000000000000000000000     00000000                                                                                                                        000000000000000000
F0010000010648300004000003314755400023658300000000000000000201711150002001RUMATEX DE COLOMBIA                               C000000000000000000000000000000000100010010000000000000000000000F0010000010648300420171115000101 00000000000000000000000000000000000000000000000000000000000000000000000000000000000000000000000000000000000000000N 00000000000NCONT   00    00000000000          00000000000000000000000000000000000000000000 000000000000000A000000000000000000000000000000000000000000000 000000000000000000000000000000000000000     00000000                                                                                                                        000000000000000000
F0010000010648300005000003314755400013552100000000000000000201711150002001RUMATEX DE COLOMBIA                               D000000000000000000000000000000000100010010000000000000000000000F0010000010648300520171115000101 00000000000000000000000000000000000000000000000000000000000000000000000000000000000000000000000000000000000000000N 00000000000NCONT   00    00000000000          00000000000000000000000000000000000000000000 000000000000000A000000000000000000000000000000000000000000000 000000000000000000000000000000000000000     00000000                                                                                                                        000000000000000000
F0010000010648400001000080014190300011050500000000000000000201711150002001QUIMINSA LTDA                                     D000000003723800000000000000000000100010010000000000000000000000F0010000010648400120171115000101 00000000000000000000000000000000000000000000000000000000000000000000000000000000000000000000000000000000000000000N 00000000000NCONT   00    00000000000          00000000000000000000000000000000000000000000 000000000000000A000000000000000000000000000000000000000000000 000000000000000000000000000000000000000     00000000                                                                                                                        000000000000000000
F0010000010648400002000080014190300041450500000000000000000201711150002001QUIMINSA LTDA                                     C000000003286500000000000000000000100010010000000000000000000000F0010000010648400220171115000101 00000000000000000000000000000000000000000000000000000000000000000000000000000000000000000000000000000000000000000N 00000000000NCONT   00    00000000000          00000000000000000000000000000000000000000000 000000000000000A000000000000000000000000000000000000000000000 000000000000000000000000000000000000000     00000000                                                                                                                        000000000000000000
F0010000010648400003000080014190300042505000000000000000000201711150002001QUIMINSA LTDA                                     C000000000437300000000000000000000100010010000000000000000000000F0010000010648400320171115000101 00000000000000000000000000000000000000000000000000000000000000000000000000000000000000000000000000000000000000000N 00000000000NCONT   00    00000000000          00000000000000000000000000000000000000000000 000000000000000A000000000000000000000000000000000000000000000 000000000000000000000000000000000000000     00000000                                                                                                                        000000000000000000
F0010000010648400004000080014190300023658300000000000000000201711150002001QUIMINSA LTDA                                     C000000000000000000000000000000000100010010000000000000000000000F0010000010648400420171115000101 00000000000000000000000000000000000000000000000000000000000000000000000000000000000000000000000000000000000000000N 00000000000NCONT   00    00000000000          00000000000000000000000000000000000000000000 000000000000000A000000000000000000000000000000000000000000000 000000000000000000000000000000000000000     00000000                                                                                                                        000000000000000000
F0010000010648400005000080014190300013552100000000000000000201711150002001QUIMINSA LTDA                                     D000000000000000000000000000000000100010010000000000000000000000F0010000010648400520171115000101 00000000000000000000000000000000000000000000000000000000000000000000000000000000000000000000000000000000000000000N 00000000000NCONT   00    00000000000          00000000000000000000000000000000000000000000 000000000000000A000000000000000000000000000000000000000000000 000000000000000000000000000000000000000     00000000                                                                                                                        000000000000000000
F0010000010648500001000080201703900011050500000000000000000201711150002001MUNDIAL CHEMICAL LTDA                             D000000008187300000000000000000000100010010000000000000000000000F0010000010648500120171115000101 00000000000000000000000000000000000000000000000000000000000000000000000000000000000000000000000000000000000000000N 00000000000NCONT   00    00000000000          00000000000000000000000000000000000000000000 000000000000000A000000000000000000000000000000000000000000000 000000000000000000000000000000000000000     00000000                                                                                                                        000000000000000000
F0010000010648500002000080201703900041450500000000000000000201711150002001MUNDIAL CHEMICAL LTDA                             C000000007092900000000000000000000100010010000000000000000000000F0010000010648500220171115000101 00000000000000000000000000000000000000000000000000000000000000000000000000000000000000000000000000000000000000000N 00000000000NCONT   00    00000000000          00000000000000000000000000000000000000000000 000000000000000A000000000000000000000000000000000000000000000 000000000000000000000000000000000000000     00000000                                                                                                                        000000000000000000
F0010000010648500003000080201703900042505000000000000000000201711150002001MUNDIAL CHEMICAL LTDA                             C000000001094400000000000000000000100010010000000000000000000000F0010000010648500320171115000101 00000000000000000000000000000000000000000000000000000000000000000000000000000000000000000000000000000000000000000N 00000000000NCONT   00    00000000000          00000000000000000000000000000000000000000000 000000000000000A000000000000000000000000000000000000000000000 000000000000000000000000000000000000000     00000000                                                                                                                        000000000000000000
F0010000010648500004000080201703900023658300000000000000000201711150002001MUNDIAL CHEMICAL LTDA                             C000000000000000000000000000000000100010010000000000000000000000F0010000010648500420171115000101 00000000000000000000000000000000000000000000000000000000000000000000000000000000000000000000000000000000000000000N 00000000000NCONT   00    00000000000          00000000000000000000000000000000000000000000 000000000000000A000000000000000000000000000000000000000000000 000000000000000000000000000000000000000     00000000                                                                                                                        000000000000000000
F0010000010648500005000080201703900013552100000000000000000201711150002001MUNDIAL CHEMICAL LTDA                             D000000000000000000000000000000000100010010000000000000000000000F0010000010648500520171115000101 00000000000000000000000000000000000000000000000000000000000000000000000000000000000000000000000000000000000000000N 00000000000NCONT   00    00000000000          00000000000000000000000000000000000000000000 000000000000000A000000000000000000000000000000000000000000000 000000000000000000000000000000000000000     00000000                                                                                                                        000000000000000000
F0010000010648600001000007069087100011050500000000000000000201711150002001IVAN DUQUE                                        D000000002300000000000000000000000100010010000000000000000000000F0010000010648600120171115000101 00000000000000000000000000000000000000000000000000000000000000000000000000000000000000000000000000000000000000000N 00000000000NCONT   00    00000000000          00000000000000000000000000000000000000000000 000000000000000A000000000000000000000000000000000000000000000 000000000000000000000000000000000000000     00000000                                                                                                                        000000000000000000
F0010000010648600002000007069087100041450500000000000000000201711150002001IVAN DUQUE                                        C000000002200000000000000000000000100010010000000000000000000000F0010000010648600220171115000101 00000000000000000000000000000000000000000000000000000000000000000000000000000000000000000000000000000000000000000N 00000000000NCONT   00    00000000000          00000000000000000000000000000000000000000000 000000000000000A000000000000000000000000000000000000000000000 000000000000000000000000000000000000000     00000000                                                                                                                        000000000000000000
F0010000010648600003000007069087100042505000000000000000000201711150002001IVAN DUQUE                                        C000000000100000000000000000000000100010010000000000000000000000F0010000010648600320171115000101 00000000000000000000000000000000000000000000000000000000000000000000000000000000000000000000000000000000000000000N 00000000000NCONT   00    00000000000          00000000000000000000000000000000000000000000 000000000000000A000000000000000000000000000000000000000000000 000000000000000000000000000000000000000     00000000                                                                                                                        000000000000000000
F0010000010648600004000007069087100023658300000000000000000201711150002001IVAN DUQUE                                        C000000000000000000000000000000000100010010000000000000000000000F0010000010648600420171115000101 00000000000000000000000000000000000000000000000000000000000000000000000000000000000000000000000000000000000000000N 00000000000NCONT   00    00000000000          00000000000000000000000000000000000000000000 000000000000000A000000000000000000000000000000000000000000000 000000000000000000000000000000000000000     00000000                                                                                                                        000000000000000000
F0010000010648600005000007069087100013552100000000000000000201711150002001IVAN DUQUE                                        D000000000000000000000000000000000100010010000000000000000000000F0010000010648600520171115000101 00000000000000000000000000000000000000000000000000000000000000000000000000000000000000000000000000000000000000000N 00000000000NCONT   00    00000000000          00000000000000000000000000000000000000000000 000000000000000A000000000000000000000000000000000000000000000 000000000000000000000000000000000000000     00000000                                                                                                                        000000000000000000
F0010000010648700001000009120302700011050500000000000000000201711150002001CALZADO SHAMA                                     D000000001800000000000000000000000100010010000000000000000000000F0010000010648700120171115000101 00000000000000000000000000000000000000000000000000000000000000000000000000000000000000000000000000000000000000000N 00000000000NCONT   00    00000000000          00000000000000000000000000000000000000000000 000000000000000A000000000000000000000000000000000000000000000 000000000000000000000000000000000000000     00000000                                                                                                                        000000000000000000
F0010000010648700002000009120302700041450500000000000000000201711150002001CALZADO SHAMA                                     C000000001300000000000000000000000100010010000000000000000000000F0010000010648700220171115000101 00000000000000000000000000000000000000000000000000000000000000000000000000000000000000000000000000000000000000000N 00000000000NCONT   00    00000000000          00000000000000000000000000000000000000000000 000000000000000A000000000000000000000000000000000000000000000 000000000000000000000000000000000000000     00000000                                                                                                                        000000000000000000
F0010000010648700003000009120302700042505000000000000000000201711150002001CALZADO SHAMA                                     C000000000500000000000000000000000100010010000000000000000000000F0010000010648700320171115000101 00000000000000000000000000000000000000000000000000000000000000000000000000000000000000000000000000000000000000000N 00000000000NCONT   00    00000000000          00000000000000000000000000000000000000000000 000000000000000A000000000000000000000000000000000000000000000 000000000000000000000000000000000000000     00000000                                                                                                                        000000000000000000
F0010000010648700004000009120302700023658300000000000000000201711150002001CALZADO SHAMA                                     C000000000000000000000000000000000100010010000000000000000000000F0010000010648700420171115000101 00000000000000000000000000000000000000000000000000000000000000000000000000000000000000000000000000000000000000000N 00000000000NCONT   00    00000000000          00000000000000000000000000000000000000000000 000000000000000A000000000000000000000000000000000000000000000 000000000000000000000000000000000000000     00000000                                                                                                                        000000000000000000
F0010000010648700005000009120302700013552100000000000000000201711150002001CALZADO SHAMA                                     D000000000000000000000000000000000100010010000000000000000000000F0010000010648700520171115000101 00000000000000000000000000000000000000000000000000000000000000000000000000000000000000000000000000000000000000000N 00000000000NCONT   00    00000000000          00000000000000000000000000000000000000000000 000000000000000A000000000000000000000000000000000000000000000 000000000000000000000000000000000000000     00000000                                                                                                                        000000000000000000
F0010000010648800001000009120302700011050500000000000000000201711150002001CALZADO SHAMA                                     D000000005400000000000000000000000100010010000000000000000000000F0010000010648800120171115000101 00000000000000000000000000000000000000000000000000000000000000000000000000000000000000000000000000000000000000000N 00000000000NCONT   00    00000000000          00000000000000000000000000000000000000000000 000000000000000A000000000000000000000000000000000000000000000 000000000000000000000000000000000000000     00000000                                                                                                                        000000000000000000
F0010000010648800002000009120302700041450500000000000000000201711150002001CALZADO SHAMA                                     C000000003900000000000000000000000100010010000000000000000000000F0010000010648800220171115000101 00000000000000000000000000000000000000000000000000000000000000000000000000000000000000000000000000000000000000000N 00000000000NCONT   00    00000000000          00000000000000000000000000000000000000000000 000000000000000A000000000000000000000000000000000000000000000 000000000000000000000000000000000000000     00000000                                                                                                                        000000000000000000
F0010000010648800003000009120302700042505000000000000000000201711150002001CALZADO SHAMA                                     C000000001500000000000000000000000100010010000000000000000000000F0010000010648800320171115000101 00000000000000000000000000000000000000000000000000000000000000000000000000000000000000000000000000000000000000000N 00000000000NCONT   00    00000000000          00000000000000000000000000000000000000000000 000000000000000A000000000000000000000000000000000000000000000 000000000000000000000000000000000000000     00000000                                                                                                                        000000000000000000
F0010000010648800004000009120302700023658300000000000000000201711150002001CALZADO SHAMA                                     C000000000000000000000000000000000100010010000000000000000000000F0010000010648800420171115000101 00000000000000000000000000000000000000000000000000000000000000000000000000000000000000000000000000000000000000000N 00000000000NCONT   00    00000000000          00000000000000000000000000000000000000000000 000000000000000A000000000000000000000000000000000000000000000 000000000000000000000000000000000000000     00000000                                                                                                                        000000000000000000
F0010000010648800005000009120302700013552100000000000000000201711150002001CALZADO SHAMA                                     D000000000000000000000000000000000100010010000000000000000000000F0010000010648800520171115000101 00000000000000000000000000000000000000000000000000000000000000000000000000000000000000000000000000000000000000000N 00000000000NCONT   00    00000000000          00000000000000000000000000000000000000000000 000000000000000A000000000000000000000000000000000000000000000 000000000000000000000000000000000000000     00000000                                                                                                                        000000000000000000
F0010000010648900001000004175790100011050500000000000000000201711150002001ROSIRIS FERIA HOYOS  (COSM. SHILLER)              D000000002200000000000000000000000100010010000000000000000000000F0010000010648900120171115000101 00000000000000000000000000000000000000000000000000000000000000000000000000000000000000000000000000000000000000000N 00000000000NCONT   00    00000000000          00000000000000000000000000000000000000000000 000000000000000A000000000000000000000000000000000000000000000 000000000000000000000000000000000000000     00000000                                                                                                                        000000000000000000
F0010000010648900002000004175790100041450500000000000000000201711150002001ROSIRIS FERIA HOYOS  (COSM. SHILLER)              C000000001800000000000000000000000100010010000000000000000000000F0010000010648900220171115000101 00000000000000000000000000000000000000000000000000000000000000000000000000000000000000000000000000000000000000000N 00000000000NCONT   00    00000000000          00000000000000000000000000000000000000000000 000000000000000A000000000000000000000000000000000000000000000 000000000000000000000000000000000000000     00000000                                                                                                                        000000000000000000
F0010000010648900003000004175790100042505000000000000000000201711150002001ROSIRIS FERIA HOYOS  (COSM. SHILLER)              C000000000400000000000000000000000100010010000000000000000000000F0010000010648900320171115000101 00000000000000000000000000000000000000000000000000000000000000000000000000000000000000000000000000000000000000000N 00000000000NCONT   00    00000000000          00000000000000000000000000000000000000000000 000000000000000A000000000000000000000000000000000000000000000 000000000000000000000000000000000000000     00000000                                                                                                                        000000000000000000
F0010000010648900004000004175790100023658300000000000000000201711150002001ROSIRIS FERIA HOYOS  (COSM. SHILLER)              C000000000000000000000000000000000100010010000000000000000000000F0010000010648900420171115000101 00000000000000000000000000000000000000000000000000000000000000000000000000000000000000000000000000000000000000000N 00000000000NCONT   00    00000000000          00000000000000000000000000000000000000000000 000000000000000A000000000000000000000000000000000000000000000 000000000000000000000000000000000000000     00000000                                                                                                                        000000000000000000
F0010000010648900005000004175790100013552100000000000000000201711150002001ROSIRIS FERIA HOYOS  (COSM. SHILLER)              D000000000000000000000000000000000100010010000000000000000000000F0010000010648900520171115000101 00000000000000000000000000000000000000000000000000000000000000000000000000000000000000000000000000000000000000000N 00000000000NCONT   00    00000000000          00000000000000000000000000000000000000000000 000000000000000A000000000000000000000000000000000000000000000 000000000000000000000000000000000000000     00000000                                                                                                                        000000000000000000
F0010000010649000001000090080946500011050500000000000000000201711150002001INVERSIONES AFAP SAS                              D000000002930000000000000000000000100010010000000000000000000000F0010000010649000120171115000101 00000000000000000000000000000000000000000000000000000000000000000000000000000000000000000000000000000000000000000N 00000000000NCONT   00    00000000000          00000000000000000000000000000000000000000000 000000000000000A000000000000000000000000000000000000000000000 000000000000000000000000000000000000000     00000000                                                                                                                        000000000000000000
F0010000010649000002000090080946500041450500000000000000000201711150002001INVERSIONES AFAP SAS                              C000000001730000000000000000000000100010010000000000000000000000F0010000010649000220171115000101 00000000000000000000000000000000000000000000000000000000000000000000000000000000000000000000000000000000000000000N 00000000000NCONT   00    00000000000          00000000000000000000000000000000000000000000 000000000000000A000000000000000000000000000000000000000000000 000000000000000000000000000000000000000     00000000                                                                                                                        000000000000000000
F0010000010649000003000090080946500042505000000000000000000201711150002001INVERSIONES AFAP SAS                              C000000001200000000000000000000000100010010000000000000000000000F0010000010649000320171115000101 00000000000000000000000000000000000000000000000000000000000000000000000000000000000000000000000000000000000000000N 00000000000NCONT   00    00000000000          00000000000000000000000000000000000000000000 000000000000000A000000000000000000000000000000000000000000000 000000000000000000000000000000000000000     00000000                                                                                                                        000000000000000000
F0010000010649000004000090080946500023658300000000000000000201711150002001INVERSIONES AFAP SAS                              C000000000000000000000000000000000100010010000000000000000000000F0010000010649000420171115000101 00000000000000000000000000000000000000000000000000000000000000000000000000000000000000000000000000000000000000000N 00000000000NCONT   00    00000000000          00000000000000000000000000000000000000000000 000000000000000A000000000000000000000000000000000000000000000 000000000000000000000000000000000000000     00000000                                                                                                                        000000000000000000
F0010000010649000005000090080946500013552100000000000000000201711150002001INVERSIONES AFAP SAS                              D000000000000000000000000000000000100010010000000000000000000000F0010000010649000520171115000101 00000000000000000000000000000000000000000000000000000000000000000000000000000000000000000000000000000000000000000N 00000000000NCONT   00    00000000000          00000000000000000000000000000000000000000000 000000000000000A000000000000000000000000000000000000000000000 000000000000000000000000000000000000000     00000000                                                                                                                        000000000000000000
F0010000010649100001000090080946500011050500000000000000000201711150002001INVERSIONES AFAP SAS                              D000000012000000000000000000000000100010010000000000000000000000F0010000010649100120171115000101 00000000000000000000000000000000000000000000000000000000000000000000000000000000000000000000000000000000000000000N 00000000000NCONT   00    00000000000          00000000000000000000000000000000000000000000 000000000000000A000000000000000000000000000000000000000000000 000000000000000000000000000000000000000     00000000                                                                                                                        000000000000000000
F0010000010649100002000090080946500041450500000000000000000201711150002001INVERSIONES AFAP SAS                              C000000009000000000000000000000000100010010000000000000000000000F0010000010649100220171115000101 00000000000000000000000000000000000000000000000000000000000000000000000000000000000000000000000000000000000000000N 00000000000NCONT   00    00000000000          00000000000000000000000000000000000000000000 000000000000000A000000000000000000000000000000000000000000000 000000000000000000000000000000000000000     00000000                                                                                                                        000000000000000000
