F0010000010689800001000089040474000011050500000000000000000201711220002001INVERSIONES SANES E HIJOS LTDA                    D000000003500000000000000000000000100010010000000000000000000000F0010000010689800120171122000101 00000000000000000000000000000000000000000000000000000000000000000000000000000000000000000000000000000000000000000N 00000000000NCONT   00    00000000000          00000000000000000000000000000000000000000000 000000000000000A000000000000000000000000000000000000000000000 000000000000000000000000000000000000000     00000000                                                                                                                        000000000000000000
F0010000010689800002000089040474000041450500000000000000000201711220002001INVERSIONES SANES E HIJOS LTDA                    C000000002200000000000000000000000100010010000000000000000000000F0010000010689800220171122000101 00000000000000000000000000000000000000000000000000000000000000000000000000000000000000000000000000000000000000000N 00000000000NCONT   00    00000000000          00000000000000000000000000000000000000000000 000000000000000A000000000000000000000000000000000000000000000 000000000000000000000000000000000000000     00000000                                                                                                                        000000000000000000
F0010000010689800003000089040474000042505000000000000000000201711220002001INVERSIONES SANES E HIJOS LTDA                    C000000001300000000000000000000000100010010000000000000000000000F0010000010689800320171122000101 00000000000000000000000000000000000000000000000000000000000000000000000000000000000000000000000000000000000000000N 00000000000NCONT   00    00000000000          00000000000000000000000000000000000000000000 000000000000000A000000000000000000000000000000000000000000000 000000000000000000000000000000000000000     00000000                                                                                                                        000000000000000000
F0010000010689800004000089040474000023658300000000000000000201711220002001INVERSIONES SANES E HIJOS LTDA                    C000000000000000000000000000000000100010010000000000000000000000F0010000010689800420171122000101 00000000000000000000000000000000000000000000000000000000000000000000000000000000000000000000000000000000000000000N 00000000000NCONT   00    00000000000          00000000000000000000000000000000000000000000 000000000000000A000000000000000000000000000000000000000000000 000000000000000000000000000000000000000     00000000                                                                                                                        000000000000000000
F0010000010689800005000089040474000013552100000000000000000201711220002001INVERSIONES SANES E HIJOS LTDA                    D000000000000000000000000000000000100010010000000000000000000000F0010000010689800520171122000101 00000000000000000000000000000000000000000000000000000000000000000000000000000000000000000000000000000000000000000N 00000000000NCONT   00    00000000000          00000000000000000000000000000000000000000000 000000000000000A000000000000000000000000000000000000000000000 000000000000000000000000000000000000000     00000000                                                                                                                        000000000000000000
F0010000010689900001000086002732600013050500000000000000000201711220002001PINTURAS EVERY                                    D000000153070500000000000000000000100010010000000000000000000000F0010000010689900120171122000101 00000000000000000000000000000000000000000000000000000000000000000000000000000000000000000000000000000000000000000N 00000000000NCONT   00    00000000000          00000000000000000000000000000000000000000000 000000000000000A000000000000000000000000000000000000000000000 000000000000000000000000000000000000000     00000000                                                                                                                        000000000000000000
F0010000010689900002000086002732600041450500000000000000000201711220002001PINTURAS EVERY                                    C000000128120000000000000000000000100010010000000000000000000000F0010000010689900220171122000101 00000000000000000000000000000000000000000000000000000000000000000000000000000000000000000000000000000000000000000N 00000000000NCONT   00    00000000000          00000000000000000000000000000000000000000000 000000000000000A000000000000000000000000000000000000000000000 000000000000000000000000000000000000000     00000000                                                                                                                        000000000000000000
F0010000010689900003000086002732600042505000000000000000000201711220002001PINTURAS EVERY                                    C000000024950500000000000000000000100010010000000000000000000000F0010000010689900320171122000101 00000000000000000000000000000000000000000000000000000000000000000000000000000000000000000000000000000000000000000N 00000000000NCONT   00    00000000000          00000000000000000000000000000000000000000000 000000000000000A000000000000000000000000000000000000000000000 000000000000000000000000000000000000000     00000000                                                                                                                        000000000000000000
F0010000010689900004000086002732600023658300000000000000000201711220002001PINTURAS EVERY                                    C000000000000000000000000000000000100010010000000000000000000000F0010000010689900420171122000101 00000000000000000000000000000000000000000000000000000000000000000000000000000000000000000000000000000000000000000N 00000000000NCONT   00    00000000000          00000000000000000000000000000000000000000000 000000000000000A000000000000000000000000000000000000000000000 000000000000000000000000000000000000000     00000000                                                                                                                        000000000000000000
F0010000010689900005000086002732600013552100000000000000000201711220002001PINTURAS EVERY                                    D000000000000000000000000000000000100010010000000000000000000000F0010000010689900520171122000101 00000000000000000000000000000000000000000000000000000000000000000000000000000000000000000000000000000000000000000N 00000000000NCONT   00    00000000000          00000000000000000000000000000000000000000000 000000000000000A000000000000000000000000000000000000000000000 000000000000000000000000000000000000000     00000000                                                                                                                        000000000000000000
F0010000010690000001000086001408600013050500000000000000000201711220002001CENTRAL DE DISOLVENTES SAS                        D000000016972400000000000000000000100010010000000000000000000000F0010000010690000120171122000101 00000000000000000000000000000000000000000000000000000000000000000000000000000000000000000000000000000000000000000N 00000000000NCONT   00    00000000000          00000000000000000000000000000000000000000000 000000000000000A000000000000000000000000000000000000000000000 000000000000000000000000000000000000000     00000000                                                                                                                        000000000000000000
F0010000010690000002000086001408600041450500000000000000000201711220002001CENTRAL DE DISOLVENTES SAS                        C000000013880000000000000000000000100010010000000000000000000000F0010000010690000220171122000101 00000000000000000000000000000000000000000000000000000000000000000000000000000000000000000000000000000000000000000N 00000000000NCONT   00    00000000000          00000000000000000000000000000000000000000000 000000000000000A000000000000000000000000000000000000000000000 000000000000000000000000000000000000000     00000000                                                                                                                        000000000000000000
F0010000010690000003000086001408600042505000000000000000000201711220002001CENTRAL DE DISOLVENTES SAS                        C000000003092400000000000000000000100010010000000000000000000000F0010000010690000320171122000101 00000000000000000000000000000000000000000000000000000000000000000000000000000000000000000000000000000000000000000N 00000000000NCONT   00    00000000000          00000000000000000000000000000000000000000000 000000000000000A000000000000000000000000000000000000000000000 000000000000000000000000000000000000000     00000000                                                                                                                        000000000000000000
F0010000010690000004000086001408600023658300000000000000000201711220002001CENTRAL DE DISOLVENTES SAS                        C000000000000000000000000000000000100010010000000000000000000000F0010000010690000420171122000101 00000000000000000000000000000000000000000000000000000000000000000000000000000000000000000000000000000000000000000N 00000000000NCONT   00    00000000000          00000000000000000000000000000000000000000000 000000000000000A000000000000000000000000000000000000000000000 000000000000000000000000000000000000000     00000000                                                                                                                        000000000000000000
F0010000010690000005000086001408600013552100000000000000000201711220002001CENTRAL DE DISOLVENTES SAS                        D000000000000000000000000000000000100010010000000000000000000000F0010000010690000520171122000101 00000000000000000000000000000000000000000000000000000000000000000000000000000000000000000000000000000000000000000N 00000000000NCONT   00    00000000000          00000000000000000000000000000000000000000000 000000000000000A000000000000000000000000000000000000000000000 000000000000000000000000000000000000000     00000000                                                                                                                        000000000000000000
F0010000010690100001000007008955300011050500000000000000000201711220002001JUAN GUILLERMO RAIGOSA                            D000000001300000000000000000000000100010010000000000000000000000F0010000010690100120171122000101 00000000000000000000000000000000000000000000000000000000000000000000000000000000000000000000000000000000000000000N 00000000000NCONT   00    00000000000          00000000000000000000000000000000000000000000 000000000000000A000000000000000000000000000000000000000000000 000000000000000000000000000000000000000     00000000                                                                                                                        000000000000000000
F0010000010690100002000007008955300041450500000000000000000201711220002001JUAN GUILLERMO RAIGOSA                            C000000001100000000000000000000000100010010000000000000000000000F0010000010690100220171122000101 00000000000000000000000000000000000000000000000000000000000000000000000000000000000000000000000000000000000000000N 00000000000NCONT   00    00000000000          00000000000000000000000000000000000000000000 000000000000000A000000000000000000000000000000000000000000000 000000000000000000000000000000000000000     00000000                                                                                                                        000000000000000000
F0010000010690100003000007008955300042505000000000000000000201711220002001JUAN GUILLERMO RAIGOSA                            C000000000200000000000000000000000100010010000000000000000000000F0010000010690100320171122000101 00000000000000000000000000000000000000000000000000000000000000000000000000000000000000000000000000000000000000000N 00000000000NCONT   00    00000000000          00000000000000000000000000000000000000000000 000000000000000A000000000000000000000000000000000000000000000 000000000000000000000000000000000000000     00000000                                                                                                                        000000000000000000
F0010000010690100004000007008955300023658300000000000000000201711220002001JUAN GUILLERMO RAIGOSA                            C000000000000000000000000000000000100010010000000000000000000000F0010000010690100420171122000101 00000000000000000000000000000000000000000000000000000000000000000000000000000000000000000000000000000000000000000N 00000000000NCONT   00    00000000000          00000000000000000000000000000000000000000000 000000000000000A000000000000000000000000000000000000000000000 000000000000000000000000000000000000000     00000000                                                                                                                        000000000000000000
F0010000010690100005000007008955300013552100000000000000000201711220002001JUAN GUILLERMO RAIGOSA                            D000000000000000000000000000000000100010010000000000000000000000F0010000010690100520171122000101 00000000000000000000000000000000000000000000000000000000000000000000000000000000000000000000000000000000000000000N 00000000000NCONT   00    00000000000          00000000000000000000000000000000000000000000 000000000000000A000000000000000000000000000000000000000000000 000000000000000000000000000000000000000     00000000                                                                                                                        000000000000000000
F0010000010690200001000003273290300013050500000000000000000201711220002001YANETH GOMEZ ROJANO -  COMERCIALIZADORA YG        D000000017934400000000000000000000100010010000000000000000000000F0010000010690200120171122000101 00000000000000000000000000000000000000000000000000000000000000000000000000000000000000000000000000000000000000000N 00000000000NCONT   00    00000000000          00000000000000000000000000000000000000000000 000000000000000A000000000000000000000000000000000000000000000 000000000000000000000000000000000000000     00000000                                                                                                                        000000000000000000
F0010000010690200002000003273290300041450500000000000000000201711220002001YANETH GOMEZ ROJANO -  COMERCIALIZADORA YG        C000000013150000000000000000000000100010010000000000000000000000F0010000010690200220171122000101 00000000000000000000000000000000000000000000000000000000000000000000000000000000000000000000000000000000000000000N 00000000000NCONT   00    00000000000          00000000000000000000000000000000000000000000 000000000000000A000000000000000000000000000000000000000000000 000000000000000000000000000000000000000     00000000                                                                                                                        000000000000000000
F0010000010690200003000003273290300042505000000000000000000201711220002001YANETH GOMEZ ROJANO -  COMERCIALIZADORA YG        C000000004784400000000000000000000100010010000000000000000000000F0010000010690200320171122000101 00000000000000000000000000000000000000000000000000000000000000000000000000000000000000000000000000000000000000000N 00000000000NCONT   00    00000000000          00000000000000000000000000000000000000000000 000000000000000A000000000000000000000000000000000000000000000 000000000000000000000000000000000000000     00000000                                                                                                                        000000000000000000
F0010000010690200004000003273290300023658300000000000000000201711220002001YANETH GOMEZ ROJANO -  COMERCIALIZADORA YG        C000000000000000000000000000000000100010010000000000000000000000F0010000010690200420171122000101 00000000000000000000000000000000000000000000000000000000000000000000000000000000000000000000000000000000000000000N 00000000000NCONT   00    00000000000          00000000000000000000000000000000000000000000 000000000000000A000000000000000000000000000000000000000000000 000000000000000000000000000000000000000     00000000                                                                                                                        000000000000000000
F0010000010690200005000003273290300013552100000000000000000201711220002001YANETH GOMEZ ROJANO -  COMERCIALIZADORA YG        D000000000000000000000000000000000100010010000000000000000000000F0010000010690200520171122000101 00000000000000000000000000000000000000000000000000000000000000000000000000000000000000000000000000000000000000000N 00000000000NCONT   00    00000000000          00000000000000000000000000000000000000000000 000000000000000A000000000000000000000000000000000000000000000 000000000000000000000000000000000000000     00000000                                                                                                                        000000000000000000
F0010000010690300001000000376399500013050500000000000000000201711220002001FORDPLAST                                         D000000004600000000000000000000000100010010000000000000000000000F0010000010690300120171122000101 00000000000000000000000000000000000000000000000000000000000000000000000000000000000000000000000000000000000000000N 00000000000NCONT   00    00000000000          00000000000000000000000000000000000000000000 000000000000000A000000000000000000000000000000000000000000000 000000000000000000000000000000000000000     00000000                                                                                                                        000000000000000000
F0010000010690300002000000376399500041450500000000000000000201711220002001FORDPLAST                                         C000000003200000000000000000000000100010010000000000000000000000F0010000010690300220171122000101 00000000000000000000000000000000000000000000000000000000000000000000000000000000000000000000000000000000000000000N 00000000000NCONT   00    00000000000          00000000000000000000000000000000000000000000 000000000000000A000000000000000000000000000000000000000000000 000000000000000000000000000000000000000     00000000                                                                                                                        000000000000000000
F0010000010690300003000000376399500042505000000000000000000201711220002001FORDPLAST                                         C000000001400000000000000000000000100010010000000000000000000000F0010000010690300320171122000101 00000000000000000000000000000000000000000000000000000000000000000000000000000000000000000000000000000000000000000N 00000000000NCONT   00    00000000000          00000000000000000000000000000000000000000000 000000000000000A000000000000000000000000000000000000000000000 000000000000000000000000000000000000000     00000000                                                                                                                        000000000000000000
F0010000010690300004000000376399500023658300000000000000000201711220002001FORDPLAST                                         C000000000000000000000000000000000100010010000000000000000000000F0010000010690300420171122000101 00000000000000000000000000000000000000000000000000000000000000000000000000000000000000000000000000000000000000000N 00000000000NCONT   00    00000000000          00000000000000000000000000000000000000000000 000000000000000A000000000000000000000000000000000000000000000 000000000000000000000000000000000000000     00000000                                                                                                                        000000000000000000
F0010000010690300005000000376399500013552100000000000000000201711220002001FORDPLAST                                         D000000000000000000000000000000000100010010000000000000000000000F0010000010690300520171122000101 00000000000000000000000000000000000000000000000000000000000000000000000000000000000000000000000000000000000000000N 00000000000NCONT   00    00000000000          00000000000000000000000000000000000000000000 000000000000000A000000000000000000000000000000000000000000000 000000000000000000000000000000000000000     00000000                                                                                                                        000000000000000000
F0010000010690400001000000091780800013050500000000000000000201711220002001ITALO RENE HERAZO CARCAMO /CENTRAL DE TORNILLOS   D000000008820000000000000000000000100010010000000000000000000000F0010000010690400120171122000101 00000000000000000000000000000000000000000000000000000000000000000000000000000000000000000000000000000000000000000N 00000000000NCONT   00    00000000000          00000000000000000000000000000000000000000000 000000000000000A000000000000000000000000000000000000000000000 000000000000000000000000000000000000000     00000000                                                                                                                        000000000000000000
F0010000010690400002000000091780800041450500000000000000000201711220002001ITALO RENE HERAZO CARCAMO /CENTRAL DE TORNILLOS   C000000008040000000000000000000000100010010000000000000000000000F0010000010690400220171122000101 00000000000000000000000000000000000000000000000000000000000000000000000000000000000000000000000000000000000000000N 00000000000NCONT   00    00000000000          00000000000000000000000000000000000000000000 000000000000000A000000000000000000000000000000000000000000000 000000000000000000000000000000000000000     00000000                                                                                                                        000000000000000000
F0010000010690400003000000091780800042505000000000000000000201711220002001ITALO RENE HERAZO CARCAMO /CENTRAL DE TORNILLOS   C000000000780000000000000000000000100010010000000000000000000000F0010000010690400320171122000101 00000000000000000000000000000000000000000000000000000000000000000000000000000000000000000000000000000000000000000N 00000000000NCONT   00    00000000000          00000000000000000000000000000000000000000000 000000000000000A000000000000000000000000000000000000000000000 000000000000000000000000000000000000000     00000000                                                                                                                        000000000000000000
F0010000010690400004000000091780800023658300000000000000000201711220002001ITALO RENE HERAZO CARCAMO /CENTRAL DE TORNILLOS   C000000000000000000000000000000000100010010000000000000000000000F0010000010690400420171122000101 00000000000000000000000000000000000000000000000000000000000000000000000000000000000000000000000000000000000000000N 00000000000NCONT   00    00000000000          00000000000000000000000000000000000000000000 000000000000000A000000000000000000000000000000000000000000000 000000000000000000000000000000000000000     00000000                                                                                                                        000000000000000000
F0010000010690400005000000091780800013552100000000000000000201711220002001ITALO RENE HERAZO CARCAMO /CENTRAL DE TORNILLOS   D000000000000000000000000000000000100010010000000000000000000000F0010000010690400520171122000101 00000000000000000000000000000000000000000000000000000000000000000000000000000000000000000000000000000000000000000N 00000000000NCONT   00    00000000000          00000000000000000000000000000000000000000000 000000000000000A000000000000000000000000000000000000000000000 000000000000000000000000000000000000000     00000000                                                                                                                        000000000000000000
F0010000010690500001000000748239700013050500000000000000000201711220002001RAFAEL NAVARRO URIBE                              D000000025290600000000000000000000100010010000000000000000000000F0010000010690500120171122000101 00000000000000000000000000000000000000000000000000000000000000000000000000000000000000000000000000000000000000000N 00000000000NCONT   00    00000000000          00000000000000000000000000000000000000000000 000000000000000A000000000000000000000000000000000000000000000 000000000000000000000000000000000000000     00000000                                                                                                                        000000000000000000
F0010000010690500002000000748239700041450500000000000000000201711220002001RAFAEL NAVARRO URIBE                              C000000018240000000000000000000000100010010000000000000000000000F0010000010690500220171122000101 00000000000000000000000000000000000000000000000000000000000000000000000000000000000000000000000000000000000000000N 00000000000NCONT   00    00000000000          00000000000000000000000000000000000000000000 000000000000000A000000000000000000000000000000000000000000000 000000000000000000000000000000000000000     00000000                                                                                                                        000000000000000000
F0010000010690500003000000748239700042505000000000000000000201711220002001RAFAEL NAVARRO URIBE                              C000000007050600000000000000000000100010010000000000000000000000F0010000010690500320171122000101 00000000000000000000000000000000000000000000000000000000000000000000000000000000000000000000000000000000000000000N 00000000000NCONT   00    00000000000          00000000000000000000000000000000000000000000 000000000000000A000000000000000000000000000000000000000000000 000000000000000000000000000000000000000     00000000                                                                                                                        000000000000000000
F0010000010690500004000000748239700023658300000000000000000201711220002001RAFAEL NAVARRO URIBE                              C000000000000000000000000000000000100010010000000000000000000000F0010000010690500420171122000101 00000000000000000000000000000000000000000000000000000000000000000000000000000000000000000000000000000000000000000N 00000000000NCONT   00    00000000000          00000000000000000000000000000000000000000000 000000000000000A000000000000000000000000000000000000000000000 000000000000000000000000000000000000000     00000000                                                                                                                        000000000000000000
F0010000010690500005000000748239700013552100000000000000000201711220002001RAFAEL NAVARRO URIBE                              D000000000000000000000000000000000100010010000000000000000000000F0010000010690500520171122000101 00000000000000000000000000000000000000000000000000000000000000000000000000000000000000000000000000000000000000000N 00000000000NCONT   00    00000000000          00000000000000000000000000000000000000000000 000000000000000A000000000000000000000000000000000000000000000 000000000000000000000000000000000000000     00000000                                                                                                                        000000000000000000
F0010000010690600001000090059316900013050500000000000000000201711220002001DISTRIBUCIONES Y REPRESENTACIONES MANA            D000000011802000000000000000000000100010010000000000000000000000F0010000010690600120171122000101 00000000000000000000000000000000000000000000000000000000000000000000000000000000000000000000000000000000000000000N 00000000000NCONT   00    00000000000          00000000000000000000000000000000000000000000 000000000000000A000000000000000000000000000000000000000000000 000000000000000000000000000000000000000     00000000                                                                                                                        000000000000000000
F0010000010690600002000090059316900041450500000000000000000201711220002001DISTRIBUCIONES Y REPRESENTACIONES MANA            C000000009200000000000000000000000100010010000000000000000000000F0010000010690600220171122000101 00000000000000000000000000000000000000000000000000000000000000000000000000000000000000000000000000000000000000000N 00000000000NCONT   00    00000000000          00000000000000000000000000000000000000000000 000000000000000A000000000000000000000000000000000000000000000 000000000000000000000000000000000000000     00000000                                                                                                                        000000000000000000
F0010000010690600003000090059316900042505000000000000000000201711220002001DISTRIBUCIONES Y REPRESENTACIONES MANA            C000000002602000000000000000000000100010010000000000000000000000F0010000010690600320171122000101 00000000000000000000000000000000000000000000000000000000000000000000000000000000000000000000000000000000000000000N 00000000000NCONT   00    00000000000          00000000000000000000000000000000000000000000 000000000000000A000000000000000000000000000000000000000000000 000000000000000000000000000000000000000     00000000                                                                                                                        000000000000000000
F0010000010690600004000090059316900023658300000000000000000201711220002001DISTRIBUCIONES Y REPRESENTACIONES MANA            C000000000000000000000000000000000100010010000000000000000000000F0010000010690600420171122000101 00000000000000000000000000000000000000000000000000000000000000000000000000000000000000000000000000000000000000000N 00000000000NCONT   00    00000000000          00000000000000000000000000000000000000000000 000000000000000A000000000000000000000000000000000000000000000 000000000000000000000000000000000000000     00000000                                                                                                                        000000000000000000
F0010000010690600005000090059316900013552100000000000000000201711220002001DISTRIBUCIONES Y REPRESENTACIONES MANA            D000000000000000000000000000000000100010010000000000000000000000F0010000010690600520171122000101 00000000000000000000000000000000000000000000000000000000000000000000000000000000000000000000000000000000000000000N 00000000000NCONT   00    00000000000          00000000000000000000000000000000000000000000 000000000000000A000000000000000000000000000000000000000000000 000000000000000000000000000000000000000     00000000                                                                                                                        000000000000000000
F0010000010690700001000090049854300013050500000000000000000201711220002001TRAPOS INDUSTRIALES DE COLOMBIA SAS               D000000064757000000000000000000000100010010000000000000000000000F0010000010690700120171122000101 00000000000000000000000000000000000000000000000000000000000000000000000000000000000000000000000000000000000000000N 00000000000NCONT   00    00000000000          00000000000000000000000000000000000000000000 000000000000000A000000000000000000000000000000000000000000000 000000000000000000000000000000000000000     00000000                                                                                                                        000000000000000000
F0010000010690700002000090049854300041450500000000000000000201711220002001TRAPOS INDUSTRIALES DE COLOMBIA SAS               C000000061000000000000000000000000100010010000000000000000000000F0010000010690700220171122000101 00000000000000000000000000000000000000000000000000000000000000000000000000000000000000000000000000000000000000000N 00000000000NCONT   00    00000000000          00000000000000000000000000000000000000000000 000000000000000A000000000000000000000000000000000000000000000 000000000000000000000000000000000000000     00000000                                                                                                                        000000000000000000
F0010000010690700003000090049854300042505000000000000000000201711220002001TRAPOS INDUSTRIALES DE COLOMBIA SAS               C000000003757000000000000000000000100010010000000000000000000000F0010000010690700320171122000101 00000000000000000000000000000000000000000000000000000000000000000000000000000000000000000000000000000000000000000N 00000000000NCONT   00    00000000000          00000000000000000000000000000000000000000000 000000000000000A000000000000000000000000000000000000000000000 000000000000000000000000000000000000000     00000000                                                                                                                        000000000000000000
F0010000010690700004000090049854300023658300000000000000000201711220002001TRAPOS INDUSTRIALES DE COLOMBIA SAS               C000000000000000000000000000000000100010010000000000000000000000F0010000010690700420171122000101 00000000000000000000000000000000000000000000000000000000000000000000000000000000000000000000000000000000000000000N 00000000000NCONT   00    00000000000          00000000000000000000000000000000000000000000 000000000000000A000000000000000000000000000000000000000000000 000000000000000000000000000000000000000     00000000                                                                                                                        000000000000000000
F0010000010690700005000090049854300013552100000000000000000201711220002001TRAPOS INDUSTRIALES DE COLOMBIA SAS               D000000000000000000000000000000000100010010000000000000000000000F0010000010690700520171122000101 00000000000000000000000000000000000000000000000000000000000000000000000000000000000000000000000000000000000000000N 00000000000NCONT   00    00000000000          00000000000000000000000000000000000000000000 000000000000000A000000000000000000000000000000000000000000000 000000000000000000000000000000000000000     00000000                                                                                                                        000000000000000000
F0010000010690800001000083001155300013050500000000000000000201711220002001COMERCIALIZADORA RUBEN S LTDA                     D000000016050000000000000000000000100010010000000000000000000000F0010000010690800120171122000101 00000000000000000000000000000000000000000000000000000000000000000000000000000000000000000000000000000000000000000N 00000000000NCONT   00    00000000000          00000000000000000000000000000000000000000000 000000000000000A000000000000000000000000000000000000000000000 000000000000000000000000000000000000000     00000000                                                                                                                        000000000000000000
F0010000010690800002000083001155300041450500000000000000000201711220002001COMERCIALIZADORA RUBEN S LTDA                     C000000014700000000000000000000000100010010000000000000000000000F0010000010690800220171122000101 00000000000000000000000000000000000000000000000000000000000000000000000000000000000000000000000000000000000000000N 00000000000NCONT   00    00000000000          00000000000000000000000000000000000000000000 000000000000000A000000000000000000000000000000000000000000000 000000000000000000000000000000000000000     00000000                                                                                                                        000000000000000000
F0010000010690800003000083001155300042505000000000000000000201711220002001COMERCIALIZADORA RUBEN S LTDA                     C000000001350000000000000000000000100010010000000000000000000000F0010000010690800320171122000101 00000000000000000000000000000000000000000000000000000000000000000000000000000000000000000000000000000000000000000N 00000000000NCONT   00    00000000000          00000000000000000000000000000000000000000000 000000000000000A000000000000000000000000000000000000000000000 000000000000000000000000000000000000000     00000000                                                                                                                        000000000000000000
F0010000010690800004000083001155300023658300000000000000000201711220002001COMERCIALIZADORA RUBEN S LTDA                     C000000000000000000000000000000000100010010000000000000000000000F0010000010690800420171122000101 00000000000000000000000000000000000000000000000000000000000000000000000000000000000000000000000000000000000000000N 00000000000NCONT   00    00000000000          00000000000000000000000000000000000000000000 000000000000000A000000000000000000000000000000000000000000000 000000000000000000000000000000000000000     00000000                                                                                                                        000000000000000000
F0010000010690800005000083001155300013552100000000000000000201711220002001COMERCIALIZADORA RUBEN S LTDA                     D000000000000000000000000000000000100010010000000000000000000000F0010000010690800520171122000101 00000000000000000000000000000000000000000000000000000000000000000000000000000000000000000000000000000000000000000N 00000000000NCONT   00    00000000000          00000000000000000000000000000000000000000000 000000000000000A000000000000000000000000000000000000000000000 000000000000000000000000000000000000000     00000000                                                                                                                        000000000000000000
F0010000010690900001000080201703900013050500000000000000000201711220002001MUNDIAL CHEMICAL LTDA                             D000000006872200000000000000000000100010010000000000000000000000F0010000010690900120171122000101 00000000000000000000000000000000000000000000000000000000000000000000000000000000000000000000000000000000000000000N 00000000000NCONT   00    00000000000          00000000000000000000000000000000000000000000 000000000000000A000000000000000000000000000000000000000000000 000000000000000000000000000000000000000     00000000                                                                                                                        000000000000000000
F0010000010690900002000080201703900041450500000000000000000201711220002001MUNDIAL CHEMICAL LTDA                             C000000005296700000000000000000000100010010000000000000000000000F0010000010690900220171122000101 00000000000000000000000000000000000000000000000000000000000000000000000000000000000000000000000000000000000000000N 00000000000NCONT   00    00000000000          00000000000000000000000000000000000000000000 000000000000000A000000000000000000000000000000000000000000000 000000000000000000000000000000000000000     00000000                                                                                                                        000000000000000000
F0010000010690900003000080201703900042505000000000000000000201711220002001MUNDIAL CHEMICAL LTDA                             C000000001575500000000000000000000100010010000000000000000000000F0010000010690900320171122000101 00000000000000000000000000000000000000000000000000000000000000000000000000000000000000000000000000000000000000000N 00000000000NCONT   00    00000000000          00000000000000000000000000000000000000000000 000000000000000A000000000000000000000000000000000000000000000 000000000000000000000000000000000000000     00000000                                                                                                                        000000000000000000
F0010000010690900004000080201703900023658300000000000000000201711220002001MUNDIAL CHEMICAL LTDA                             C000000000000000000000000000000000100010010000000000000000000000F0010000010690900420171122000101 00000000000000000000000000000000000000000000000000000000000000000000000000000000000000000000000000000000000000000N 00000000000NCONT   00    00000000000          00000000000000000000000000000000000000000000 000000000000000A000000000000000000000000000000000000000000000 000000000000000000000000000000000000000     00000000                                                                                                                        000000000000000000
F0010000010690900005000080201703900013552100000000000000000201711220002001MUNDIAL CHEMICAL LTDA                             D000000000000000000000000000000000100010010000000000000000000000F0010000010690900520171122000101 00000000000000000000000000000000000000000000000000000000000000000000000000000000000000000000000000000000000000000N 00000000000NCONT   00    00000000000          00000000000000000000000000000000000000000000 000000000000000A000000000000000000000000000000000000000000000 000000000000000000000000000000000000000     00000000                                                                                                                        000000000000000000
F0010000010691000001000090052543100013050500000000000000000201711220002001SECRET COLOR SAS                                  D000000010270000000000000000000000100010010000000000000000000000F0010000010691000120171122000101 00000000000000000000000000000000000000000000000000000000000000000000000000000000000000000000000000000000000000000N 00000000000NCONT   00    00000000000          00000000000000000000000000000000000000000000 000000000000000A000000000000000000000000000000000000000000000 000000000000000000000000000000000000000     00000000                                                                                                                        000000000000000000
F0010000010691000002000090052543100041450500000000000000000201711220002001SECRET COLOR SAS                                  C000000010270000000000000000000000100010010000000000000000000000F0010000010691000220171122000101 00000000000000000000000000000000000000000000000000000000000000000000000000000000000000000000000000000000000000000N 00000000000NCONT   00    00000000000          00000000000000000000000000000000000000000000 000000000000000A000000000000000000000000000000000000000000000 000000000000000000000000000000000000000     00000000                                                                                                                        000000000000000000
F0010000010691000003000090052543100042505000000000000000000201711220002001SECRET COLOR SAS                                  C000000000000000000000000000000000100010010000000000000000000000F0010000010691000320171122000101 00000000000000000000000000000000000000000000000000000000000000000000000000000000000000000000000000000000000000000N 00000000000NCONT   00    00000000000          00000000000000000000000000000000000000000000 000000000000000A000000000000000000000000000000000000000000000 000000000000000000000000000000000000000     00000000                                                                                                                        000000000000000000
F0010000010691000004000090052543100023658300000000000000000201711220002001SECRET COLOR SAS                                  C000000000000000000000000000000000100010010000000000000000000000F0010000010691000420171122000101 00000000000000000000000000000000000000000000000000000000000000000000000000000000000000000000000000000000000000000N 00000000000NCONT   00    00000000000          00000000000000000000000000000000000000000000 000000000000000A000000000000000000000000000000000000000000000 000000000000000000000000000000000000000     00000000                                                                                                                        000000000000000000
F0010000010691000005000090052543100013552100000000000000000201711220002001SECRET COLOR SAS                                  D000000000000000000000000000000000100010010000000000000000000000F0010000010691000520171122000101 00000000000000000000000000000000000000000000000000000000000000000000000000000000000000000000000000000000000000000N 00000000000NCONT   00    00000000000          00000000000000000000000000000000000000000000 000000000000000A000000000000000000000000000000000000000000000 000000000000000000000000000000000000000     00000000                                                                                                                        000000000000000000
F0010000010691100001000080201127600013050500000000000000000201711220002001ELECTRICOS DEL RUIZ S.A.S.                        D000000035832500000000000000000000100010010000000000000000000000F0010000010691100120171122000101 00000000000000000000000000000000000000000000000000000000000000000000000000000000000000000000000000000000000000000N 00000000000NCONT   00    00000000000          00000000000000000000000000000000000000000000 000000000000000A000000000000000000000000000000000000000000000 000000000000000000000000000000000000000     00000000                                                                                                                        000000000000000000
F0010000010691100002000080201127600041450500000000000000000201711220002001ELECTRICOS DEL RUIZ S.A.S.                        C000000030580000000000000000000000100010010000000000000000000000F0010000010691100220171122000101 00000000000000000000000000000000000000000000000000000000000000000000000000000000000000000000000000000000000000000N 00000000000NCONT   00    00000000000          00000000000000000000000000000000000000000000 000000000000000A000000000000000000000000000000000000000000000 000000000000000000000000000000000000000     00000000                                                                                                                        000000000000000000
F0010000010691100003000080201127600042505000000000000000000201711220002001ELECTRICOS DEL RUIZ S.A.S.                        C000000005252500000000000000000000100010010000000000000000000000F0010000010691100320171122000101 00000000000000000000000000000000000000000000000000000000000000000000000000000000000000000000000000000000000000000N 00000000000NCONT   00    00000000000          00000000000000000000000000000000000000000000 000000000000000A000000000000000000000000000000000000000000000 000000000000000000000000000000000000000     00000000                                                                                                                        000000000000000000
F0010000010691100004000080201127600023658300000000000000000201711220002001ELECTRICOS DEL RUIZ S.A.S.                        C000000000000000000000000000000000100010010000000000000000000000F0010000010691100420171122000101 00000000000000000000000000000000000000000000000000000000000000000000000000000000000000000000000000000000000000000N 00000000000NCONT   00    00000000000          00000000000000000000000000000000000000000000 000000000000000A000000000000000000000000000000000000000000000 000000000000000000000000000000000000000     00000000                                                                                                                        000000000000000000
F0010000010691100005000080201127600013552100000000000000000201711220002001ELECTRICOS DEL RUIZ S.A.S.                        D000000000000000000000000000000000100010010000000000000000000000F0010000010691100520171122000101 00000000000000000000000000000000000000000000000000000000000000000000000000000000000000000000000000000000000000000N 00000000000NCONT   00    00000000000          00000000000000000000000000000000000000000000 000000000000000A000000000000000000000000000000000000000000000 000000000000000000000000000000000000000     00000000                                                                                                                        000000000000000000
F0010000010691200001000090044443800013050500000000000000000201711220002001DISTRIBUCIONES UFRE S.A.S.                        D000000005635000000000000000000000100010010000000000000000000000F0010000010691200120171122000101 00000000000000000000000000000000000000000000000000000000000000000000000000000000000000000000000000000000000000000N 00000000000NCONT   00    00000000000          00000000000000000000000000000000000000000000 000000000000000A000000000000000000000000000000000000000000000 000000000000000000000000000000000000000     00000000                                                                                                                        000000000000000000
F0010000010691200002000090044443800041450500000000000000000201711220002001DISTRIBUCIONES UFRE S.A.S.                        C000000004620000000000000000000000100010010000000000000000000000F0010000010691200220171122000101 00000000000000000000000000000000000000000000000000000000000000000000000000000000000000000000000000000000000000000N 00000000000NCONT   00    00000000000          00000000000000000000000000000000000000000000 000000000000000A000000000000000000000000000000000000000000000 000000000000000000000000000000000000000     00000000                                                                                                                        000000000000000000
F0010000010691200003000090044443800042505000000000000000000201711220002001DISTRIBUCIONES UFRE S.A.S.                        C000000001015000000000000000000000100010010000000000000000000000F0010000010691200320171122000101 00000000000000000000000000000000000000000000000000000000000000000000000000000000000000000000000000000000000000000N 00000000000NCONT   00    00000000000          00000000000000000000000000000000000000000000 000000000000000A000000000000000000000000000000000000000000000 000000000000000000000000000000000000000     00000000                                                                                                                        000000000000000000
F0010000010691200004000090044443800023658300000000000000000201711220002001DISTRIBUCIONES UFRE S.A.S.                        C000000000000000000000000000000000100010010000000000000000000000F0010000010691200420171122000101 00000000000000000000000000000000000000000000000000000000000000000000000000000000000000000000000000000000000000000N 00000000000NCONT   00    00000000000          00000000000000000000000000000000000000000000 000000000000000A000000000000000000000000000000000000000000000 000000000000000000000000000000000000000     00000000                                                                                                                        000000000000000000
F0010000010691200005000090044443800013552100000000000000000201711220002001DISTRIBUCIONES UFRE S.A.S.                        D000000000000000000000000000000000100010010000000000000000000000F0010000010691200520171122000101 00000000000000000000000000000000000000000000000000000000000000000000000000000000000000000000000000000000000000000N 00000000000NCONT   00    00000000000          00000000000000000000000000000000000000000000 000000000000000A000000000000000000000000000000000000000000000 000000000000000000000000000000000000000     00000000                                                                                                                        000000000000000000
F0010000010691300001000090008711200013050500000000000000000201711220002001PACKAGING SUPPLIERS S.A.S                         D000000022969100000000000000000000100010010000000000000000000000F0010000010691300120171122000101 00000000000000000000000000000000000000000000000000000000000000000000000000000000000000000000000000000000000000000N 00000000000NCONT   00    00000000000          00000000000000000000000000000000000000000000 000000000000000A000000000000000000000000000000000000000000000 000000000000000000000000000000000000000     00000000                                                                                                                        000000000000000000
F0010000010691300002000090008711200041450500000000000000000201711220002001PACKAGING SUPPLIERS S.A.S                         C000000020951600000000000000000000100010010000000000000000000000F0010000010691300220171122000101 00000000000000000000000000000000000000000000000000000000000000000000000000000000000000000000000000000000000000000N 00000000000NCONT   00    00000000000          00000000000000000000000000000000000000000000 000000000000000A000000000000000000000000000000000000000000000 000000000000000000000000000000000000000     00000000                                                                                                                        000000000000000000
F0010000010691300003000090008711200042505000000000000000000201711220002001PACKAGING SUPPLIERS S.A.S                         C000000002017500000000000000000000100010010000000000000000000000F0010000010691300320171122000101 00000000000000000000000000000000000000000000000000000000000000000000000000000000000000000000000000000000000000000N 00000000000NCONT   00    00000000000          00000000000000000000000000000000000000000000 000000000000000A000000000000000000000000000000000000000000000 000000000000000000000000000000000000000     00000000                                                                                                                        000000000000000000
F0010000010691300004000090008711200023658300000000000000000201711220002001PACKAGING SUPPLIERS S.A.S                         C000000000000000000000000000000000100010010000000000000000000000F0010000010691300420171122000101 00000000000000000000000000000000000000000000000000000000000000000000000000000000000000000000000000000000000000000N 00000000000NCONT   00    00000000000          00000000000000000000000000000000000000000000 000000000000000A000000000000000000000000000000000000000000000 000000000000000000000000000000000000000     00000000                                                                                                                        000000000000000000
F0010000010691300005000090008711200013552100000000000000000201711220002001PACKAGING SUPPLIERS S.A.S                         D000000000000000000000000000000000100010010000000000000000000000F0010000010691300520171122000101 00000000000000000000000000000000000000000000000000000000000000000000000000000000000000000000000000000000000000000N 00000000000NCONT   00    00000000000          00000000000000000000000000000000000000000000 000000000000000A000000000000000000000000000000000000000000000 000000000000000000000000000000000000000     00000000                                                                                                                        000000000000000000
F0010000010691400001000090060531100013050500000000000000000201711220002001RECUBRIMIENTOS ESENCIALES SAS                     D000000181370400000000000000000000100010010000000000000000000000F0010000010691400120171122000101 00000000000000000000000000000000000000000000000000000000000000000000000000000000000000000000000000000000000000000N 00000000000NCONT   00    00000000000          00000000000000000000000000000000000000000000 000000000000000A000000000000000000000000000000000000000000000 000000000000000000000000000000000000000     00000000                                                                                                                        000000000000000000
F0010000010691400002000090060531100041450500000000000000000201711220002001RECUBRIMIENTOS ESENCIALES SAS                     C000000172370000000000000000000000100010010000000000000000000000F0010000010691400220171122000101 00000000000000000000000000000000000000000000000000000000000000000000000000000000000000000000000000000000000000000N 00000000000NCONT   00    00000000000          00000000000000000000000000000000000000000000 000000000000000A000000000000000000000000000000000000000000000 000000000000000000000000000000000000000     00000000                                                                                                                        000000000000000000
F0010000010691400003000090060531100042505000000000000000000201711220002001RECUBRIMIENTOS ESENCIALES SAS                     C000000009000400000000000000000000100010010000000000000000000000F0010000010691400320171122000101 00000000000000000000000000000000000000000000000000000000000000000000000000000000000000000000000000000000000000000N 00000000000NCONT   00    00000000000          00000000000000000000000000000000000000000000 000000000000000A000000000000000000000000000000000000000000000 000000000000000000000000000000000000000     00000000                                                                                                                        000000000000000000
F0010000010691400004000090060531100023658300000000000000000201711220002001RECUBRIMIENTOS ESENCIALES SAS                     C000000000000000000000000000000000100010010000000000000000000000F0010000010691400420171122000101 00000000000000000000000000000000000000000000000000000000000000000000000000000000000000000000000000000000000000000N 00000000000NCONT   00    00000000000          00000000000000000000000000000000000000000000 000000000000000A000000000000000000000000000000000000000000000 000000000000000000000000000000000000000     00000000                                                                                                                        000000000000000000
F0010000010691400005000090060531100013552100000000000000000201711220002001RECUBRIMIENTOS ESENCIALES SAS                     D000000000000000000000000000000000100010010000000000000000000000F0010000010691400520171122000101 00000000000000000000000000000000000000000000000000000000000000000000000000000000000000000000000000000000000000000N 00000000000NCONT   00    00000000000          00000000000000000000000000000000000000000000 000000000000000A000000000000000000000000000000000000000000000 000000000000000000000000000000000000000     00000000                                                                                                                        000000000000000000
F0010000010691500001000080016665600013050500000000000000000201711220002001SUMICAL DE ANTIOQUIA S.A.S                        D000000039761200000000000000000000100010010000000000000000000000F0010000010691500120171122000101 00000000000000000000000000000000000000000000000000000000000000000000000000000000000000000000000000000000000000000N 00000000000NCONT   00    00000000000          00000000000000000000000000000000000000000000 000000000000000A000000000000000000000000000000000000000000000 000000000000000000000000000000000000000     00000000                                                                                                                        000000000000000000
F0010000010691500002000080016665600041450500000000000000000201711220002001SUMICAL DE ANTIOQUIA S.A.S                        C000000032240000000000000000000000100010010000000000000000000000F0010000010691500220171122000101 00000000000000000000000000000000000000000000000000000000000000000000000000000000000000000000000000000000000000000N 00000000000NCONT   00    00000000000          00000000000000000000000000000000000000000000 000000000000000A000000000000000000000000000000000000000000000 000000000000000000000000000000000000000     00000000                                                                                                                        000000000000000000
F0010000010691500003000080016665600042505000000000000000000201711220002001SUMICAL DE ANTIOQUIA S.A.S                        C000000007521200000000000000000000100010010000000000000000000000F0010000010691500320171122000101 00000000000000000000000000000000000000000000000000000000000000000000000000000000000000000000000000000000000000000N 00000000000NCONT   00    00000000000          00000000000000000000000000000000000000000000 000000000000000A000000000000000000000000000000000000000000000 000000000000000000000000000000000000000     00000000                                                                                                                        000000000000000000
F0010000010691500004000080016665600023658300000000000000000201711220002001SUMICAL DE ANTIOQUIA S.A.S                        C000000000000000000000000000000000100010010000000000000000000000F0010000010691500420171122000101 00000000000000000000000000000000000000000000000000000000000000000000000000000000000000000000000000000000000000000N 00000000000NCONT   00    00000000000          00000000000000000000000000000000000000000000 000000000000000A000000000000000000000000000000000000000000000 000000000000000000000000000000000000000     00000000                                                                                                                        000000000000000000
F0010000010691500005000080016665600013552100000000000000000201711220002001SUMICAL DE ANTIOQUIA S.A.S                        D000000000000000000000000000000000100010010000000000000000000000F0010000010691500520171122000101 00000000000000000000000000000000000000000000000000000000000000000000000000000000000000000000000000000000000000000N 00000000000NCONT   00    00000000000          00000000000000000000000000000000000000000000 000000000000000A000000000000000000000000000000000000000000000 000000000000000000000000000000000000000     00000000                                                                                                                        000000000000000000
F0010000010691600001000090009800500013050500000000000000000201711220002001GLORIANT CHEMICHALS DE COLOMBIA LTDA              D000000038177500000000000000000000100010010000000000000000000000F0010000010691600120171122000101 00000000000000000000000000000000000000000000000000000000000000000000000000000000000000000000000000000000000000000N 00000000000NCONT   00    00000000000          00000000000000000000000000000000000000000000 000000000000000A000000000000000000000000000000000000000000000 000000000000000000000000000000000000000     00000000                                                                                                                        000000000000000000
F0010000010691600002000090009800500041450500000000000000000201711220002001GLORIANT CHEMICHALS DE COLOMBIA LTDA              C000000030720000000000000000000000100010010000000000000000000000F0010000010691600220171122000101 00000000000000000000000000000000000000000000000000000000000000000000000000000000000000000000000000000000000000000N 00000000000NCONT   00    00000000000          00000000000000000000000000000000000000000000 000000000000000A000000000000000000000000000000000000000000000 000000000000000000000000000000000000000     00000000                                                                                                                        000000000000000000
F0010000010691600003000090009800500042505000000000000000000201711220002001GLORIANT CHEMICHALS DE COLOMBIA LTDA              C000000007457500000000000000000000100010010000000000000000000000F0010000010691600320171122000101 00000000000000000000000000000000000000000000000000000000000000000000000000000000000000000000000000000000000000000N 00000000000NCONT   00    00000000000          00000000000000000000000000000000000000000000 000000000000000A000000000000000000000000000000000000000000000 000000000000000000000000000000000000000     00000000                                                                                                                        000000000000000000
F0010000010691600004000090009800500023658300000000000000000201711220002001GLORIANT CHEMICHALS DE COLOMBIA LTDA              C000000000000000000000000000000000100010010000000000000000000000F0010000010691600420171122000101 00000000000000000000000000000000000000000000000000000000000000000000000000000000000000000000000000000000000000000N 00000000000NCONT   00    00000000000          00000000000000000000000000000000000000000000 000000000000000A000000000000000000000000000000000000000000000 000000000000000000000000000000000000000     00000000                                                                                                                        000000000000000000
F0010000010691600005000090009800500013552100000000000000000201711220002001GLORIANT CHEMICHALS DE COLOMBIA LTDA              D000000000000000000000000000000000100010010000000000000000000000F0010000010691600520171122000101 00000000000000000000000000000000000000000000000000000000000000000000000000000000000000000000000000000000000000000N 00000000000NCONT   00    00000000000          00000000000000000000000000000000000000000000 000000000000000A000000000000000000000000000000000000000000000 000000000000000000000000000000000000000     00000000                                                                                                                        000000000000000000
F0010000010691700001000089010260300013050500000000000000000201711220002001FEDERICO OSORIO A. S.A.                           D000000156329600000000000000000000100010010000000000000000000000F0010000010691700120171122000101 00000000000000000000000000000000000000000000000000000000000000000000000000000000000000000000000000000000000000000N 00000000000NCONT   00    00000000000          00000000000000000000000000000000000000000000 000000000000000A000000000000000000000000000000000000000000000 000000000000000000000000000000000000000     00000000                                                                                                                        000000000000000000
F0010000010691700002000089010260300041450500000000000000000201711220002001FEDERICO OSORIO A. S.A.                           C000000146590000000000000000000000100010010000000000000000000000F0010000010691700220171122000101 00000000000000000000000000000000000000000000000000000000000000000000000000000000000000000000000000000000000000000N 00000000000NCONT   00    00000000000          00000000000000000000000000000000000000000000 000000000000000A000000000000000000000000000000000000000000000 000000000000000000000000000000000000000     00000000                                                                                                                        000000000000000000
F0010000010691700003000089010260300042505000000000000000000201711220002001FEDERICO OSORIO A. S.A.                           C000000009739600000000000000000000100010010000000000000000000000F0010000010691700320171122000101 00000000000000000000000000000000000000000000000000000000000000000000000000000000000000000000000000000000000000000N 00000000000NCONT   00    00000000000          00000000000000000000000000000000000000000000 000000000000000A000000000000000000000000000000000000000000000 000000000000000000000000000000000000000     00000000                                                                                                                        000000000000000000
F0010000010691700004000089010260300023658300000000000000000201711220002001FEDERICO OSORIO A. S.A.                           C000000000000000000000000000000000100010010000000000000000000000F0010000010691700420171122000101 00000000000000000000000000000000000000000000000000000000000000000000000000000000000000000000000000000000000000000N 00000000000NCONT   00    00000000000          00000000000000000000000000000000000000000000 000000000000000A000000000000000000000000000000000000000000000 000000000000000000000000000000000000000     00000000                                                                                                                        000000000000000000
F0010000010691700005000089010260300013552100000000000000000201711220002001FEDERICO OSORIO A. S.A.                           D000000000000000000000000000000000100010010000000000000000000000F0010000010691700520171122000101 00000000000000000000000000000000000000000000000000000000000000000000000000000000000000000000000000000000000000000N 00000000000NCONT   00    00000000000          00000000000000000000000000000000000000000000 000000000000000A000000000000000000000000000000000000000000000 000000000000000000000000000000000000000     00000000                                                                                                                        000000000000000000
F0010000010691800001000089010260300013050500000000000000000201711220002001FEDERICO OSORIO A. S.A.                           D000000002599600000000000000000000100010010000000000000000000000F0010000010691800120171122000101 00000000000000000000000000000000000000000000000000000000000000000000000000000000000000000000000000000000000000000N 00000000000NCONT   00    00000000000          00000000000000000000000000000000000000000000 000000000000000A000000000000000000000000000000000000000000000 000000000000000000000000000000000000000     00000000                                                                                                                        000000000000000000
F0010000010691800002000089010260300041450500000000000000000201711220002001FEDERICO OSORIO A. S.A.                           C000000002430000000000000000000000100010010000000000000000000000F0010000010691800220171122000101 00000000000000000000000000000000000000000000000000000000000000000000000000000000000000000000000000000000000000000N 00000000000NCONT   00    00000000000          00000000000000000000000000000000000000000000 000000000000000A000000000000000000000000000000000000000000000 000000000000000000000000000000000000000     00000000                                                                                                                        000000000000000000
F0010000010691800003000089010260300042505000000000000000000201711220002001FEDERICO OSORIO A. S.A.                           C000000000169600000000000000000000100010010000000000000000000000F0010000010691800320171122000101 00000000000000000000000000000000000000000000000000000000000000000000000000000000000000000000000000000000000000000N 00000000000NCONT   00    00000000000          00000000000000000000000000000000000000000000 000000000000000A000000000000000000000000000000000000000000000 000000000000000000000000000000000000000     00000000                                                                                                                        000000000000000000
F0010000010691800004000089010260300023658300000000000000000201711220002001FEDERICO OSORIO A. S.A.                           C000000000000000000000000000000000100010010000000000000000000000F0010000010691800420171122000101 00000000000000000000000000000000000000000000000000000000000000000000000000000000000000000000000000000000000000000N 00000000000NCONT   00    00000000000          00000000000000000000000000000000000000000000 000000000000000A000000000000000000000000000000000000000000000 000000000000000000000000000000000000000     00000000                                                                                                                        000000000000000000
F0010000010691800005000089010260300013552100000000000000000201711220002001FEDERICO OSORIO A. S.A.                           D000000000000000000000000000000000100010010000000000000000000000F0010000010691800520171122000101 00000000000000000000000000000000000000000000000000000000000000000000000000000000000000000000000000000000000000000N 00000000000NCONT   00    00000000000          00000000000000000000000000000000000000000000 000000000000000A000000000000000000000000000000000000000000000 000000000000000000000000000000000000000     00000000                                                                                                                        000000000000000000
F0010000010691900001000080200863700013050500000000000000000201711220002001COPIN S.A.S                                       D000000061630900000000000000000000100010010000000000000000000000F0010000010691900120171122000101 00000000000000000000000000000000000000000000000000000000000000000000000000000000000000000000000000000000000000000N 00000000000NCONT   00    00000000000          00000000000000000000000000000000000000000000 000000000000000A000000000000000000000000000000000000000000000 000000000000000000000000000000000000000     00000000                                                                                                                        000000000000000000
F0010000010691900002000080200863700041450500000000000000000201711220002001COPIN S.A.S                                       C000000056845000000000000000000000100010010000000000000000000000F0010000010691900220171122000101 00000000000000000000000000000000000000000000000000000000000000000000000000000000000000000000000000000000000000000N 00000000000NCONT   00    00000000000          00000000000000000000000000000000000000000000 000000000000000A000000000000000000000000000000000000000000000 000000000000000000000000000000000000000     00000000                                                                                                                        000000000000000000
F0010000010691900003000080200863700042505000000000000000000201711220002001COPIN S.A.S                                       C000000004785900000000000000000000100010010000000000000000000000F0010000010691900320171122000101 00000000000000000000000000000000000000000000000000000000000000000000000000000000000000000000000000000000000000000N 00000000000NCONT   00    00000000000          00000000000000000000000000000000000000000000 000000000000000A000000000000000000000000000000000000000000000 000000000000000000000000000000000000000     00000000                                                                                                                        000000000000000000
F0010000010691900004000080200863700023658300000000000000000201711220002001COPIN S.A.S                                       C000000000000000000000000000000000100010010000000000000000000000F0010000010691900420171122000101 00000000000000000000000000000000000000000000000000000000000000000000000000000000000000000000000000000000000000000N 00000000000NCONT   00    00000000000          00000000000000000000000000000000000000000000 000000000000000A000000000000000000000000000000000000000000000 000000000000000000000000000000000000000     00000000                                                                                                                        000000000000000000
F0010000010691900005000080200863700013552100000000000000000201711220002001COPIN S.A.S                                       D000000000000000000000000000000000100010010000000000000000000000F0010000010691900520171122000101 00000000000000000000000000000000000000000000000000000000000000000000000000000000000000000000000000000000000000000N 00000000000NCONT   00    00000000000          00000000000000000000000000000000000000000000 000000000000000A000000000000000000000000000000000000000000000 000000000000000000000000000000000000000     00000000                                                                                                                        000000000000000000
F0010000010692000001000080202094000013050500000000000000000201711220002001DISTRIB. OMAR ORREGO S.A.                         D000000039573200000000000000000000100010010000000000000000000000F0010000010692000120171122000101 00000000000000000000000000000000000000000000000000000000000000000000000000000000000000000000000000000000000000000N 00000000000NCONT   00    00000000000          00000000000000000000000000000000000000000000 000000000000000A000000000000000000000000000000000000000000000 000000000000000000000000000000000000000     00000000                                                                                                                        000000000000000000
F0010000010692000002000080202094000041450500000000000000000201711220002001DISTRIB. OMAR ORREGO S.A.                         C000000023430000000000000000000000100010010000000000000000000000F0010000010692000220171122000101 00000000000000000000000000000000000000000000000000000000000000000000000000000000000000000000000000000000000000000N 00000000000NCONT   00    00000000000          00000000000000000000000000000000000000000000 000000000000000A000000000000000000000000000000000000000000000 000000000000000000000000000000000000000     00000000                                                                                                                        000000000000000000
F0010000010692000003000080202094000042505000000000000000000201711220002001DISTRIB. OMAR ORREGO S.A.                         C000000016143200000000000000000000100010010000000000000000000000F0010000010692000320171122000101 00000000000000000000000000000000000000000000000000000000000000000000000000000000000000000000000000000000000000000N 00000000000NCONT   00    00000000000          00000000000000000000000000000000000000000000 000000000000000A000000000000000000000000000000000000000000000 000000000000000000000000000000000000000     00000000                                                                                                                        000000000000000000
F0010000010692000004000080202094000023658300000000000000000201711220002001DISTRIB. OMAR ORREGO S.A.                         C000000000000000000000000000000000100010010000000000000000000000F0010000010692000420171122000101 00000000000000000000000000000000000000000000000000000000000000000000000000000000000000000000000000000000000000000N 00000000000NCONT   00    00000000000          00000000000000000000000000000000000000000000 000000000000000A000000000000000000000000000000000000000000000 000000000000000000000000000000000000000     00000000                                                                                                                        000000000000000000
F0010000010692000005000080202094000013552100000000000000000201711220002001DISTRIB. OMAR ORREGO S.A.                         D000000000000000000000000000000000100010010000000000000000000000F0010000010692000520171122000101 00000000000000000000000000000000000000000000000000000000000000000000000000000000000000000000000000000000000000000N 00000000000NCONT   00    00000000000          00000000000000000000000000000000000000000000 000000000000000A000000000000000000000000000000000000000000000 000000000000000000000000000000000000000     00000000                                                                                                                        000000000000000000
F0010000010692100001000080201112800013050500000000000000000201711220002001CANGURO INTERNATIONAL S.A.                        D000000042277400000000000000000000100010010000000000000000000000F0010000010692100120171122000101 00000000000000000000000000000000000000000000000000000000000000000000000000000000000000000000000000000000000000000N 00000000000NCONT   00    00000000000          00000000000000000000000000000000000000000000 000000000000000A000000000000000000000000000000000000000000000 000000000000000000000000000000000000000     00000000                                                                                                                        000000000000000000
F0010000010692100002000080201112800041450500000000000000000201711220002001CANGURO INTERNATIONAL S.A.                        C000000042277400000000000000000000100010010000000000000000000000F0010000010692100220171122000101 00000000000000000000000000000000000000000000000000000000000000000000000000000000000000000000000000000000000000000N 00000000000NCONT   00    00000000000          00000000000000000000000000000000000000000000 000000000000000A000000000000000000000000000000000000000000000 000000000000000000000000000000000000000     00000000                                                                                                                        000000000000000000
F0010000010692100003000080201112800042505000000000000000000201711220002001CANGURO INTERNATIONAL S.A.                        C000000000000000000000000000000000100010010000000000000000000000F0010000010692100320171122000101 00000000000000000000000000000000000000000000000000000000000000000000000000000000000000000000000000000000000000000N 00000000000NCONT   00    00000000000          00000000000000000000000000000000000000000000 000000000000000A000000000000000000000000000000000000000000000 000000000000000000000000000000000000000     00000000                                                                                                                        000000000000000000
F0010000010692100004000080201112800023658300000000000000000201711220002001CANGURO INTERNATIONAL S.A.                        C000000000000000000000000000000000100010010000000000000000000000F0010000010692100420171122000101 00000000000000000000000000000000000000000000000000000000000000000000000000000000000000000000000000000000000000000N 00000000000NCONT   00    00000000000          00000000000000000000000000000000000000000000 000000000000000A000000000000000000000000000000000000000000000 000000000000000000000000000000000000000     00000000                                                                                                                        000000000000000000
F0010000010692100005000080201112800013552100000000000000000201711220002001CANGURO INTERNATIONAL S.A.                        D000000000000000000000000000000000100010010000000000000000000000F0010000010692100520171122000101 00000000000000000000000000000000000000000000000000000000000000000000000000000000000000000000000000000000000000000N 00000000000NCONT   00    00000000000          00000000000000000000000000000000000000000000 000000000000000A000000000000000000000000000000000000000000000 000000000000000000000000000000000000000     00000000                                                                                                                        000000000000000000
F0010000010692200001000080201112800013050500000000000000000201711220002001CANGURO INTERNATIONAL S.A.                        D000000047360000000000000000000000100010010000000000000000000000F0010000010692200120171122000101 00000000000000000000000000000000000000000000000000000000000000000000000000000000000000000000000000000000000000000N 00000000000NCONT   00    00000000000          00000000000000000000000000000000000000000000 000000000000000A000000000000000000000000000000000000000000000 000000000000000000000000000000000000000     00000000                                                                                                                        000000000000000000
F0010000010692200002000080201112800041450500000000000000000201711220002001CANGURO INTERNATIONAL S.A.                        C000000047360000000000000000000000100010010000000000000000000000F0010000010692200220171122000101 00000000000000000000000000000000000000000000000000000000000000000000000000000000000000000000000000000000000000000N 00000000000NCONT   00    00000000000          00000000000000000000000000000000000000000000 000000000000000A000000000000000000000000000000000000000000000 000000000000000000000000000000000000000     00000000                                                                                                                        000000000000000000
F0010000010692200003000080201112800042505000000000000000000201711220002001CANGURO INTERNATIONAL S.A.                        C000000000000000000000000000000000100010010000000000000000000000F0010000010692200320171122000101 00000000000000000000000000000000000000000000000000000000000000000000000000000000000000000000000000000000000000000N 00000000000NCONT   00    00000000000          00000000000000000000000000000000000000000000 000000000000000A000000000000000000000000000000000000000000000 000000000000000000000000000000000000000     00000000                                                                                                                        000000000000000000
F0010000010692200004000080201112800023658300000000000000000201711220002001CANGURO INTERNATIONAL S.A.                        C000000000000000000000000000000000100010010000000000000000000000F0010000010692200420171122000101 00000000000000000000000000000000000000000000000000000000000000000000000000000000000000000000000000000000000000000N 00000000000NCONT   00    00000000000          00000000000000000000000000000000000000000000 000000000000000A000000000000000000000000000000000000000000000 000000000000000000000000000000000000000     00000000                                                                                                                        000000000000000000
F0010000010692200005000080201112800013552100000000000000000201711220002001CANGURO INTERNATIONAL S.A.                        D000000000000000000000000000000000100010010000000000000000000000F0010000010692200520171122000101 00000000000000000000000000000000000000000000000000000000000000000000000000000000000000000000000000000000000000000N 00000000000NCONT   00    00000000000          00000000000000000000000000000000000000000000 000000000000000A000000000000000000000000000000000000000000000 000000000000000000000000000000000000000     00000000                                                                                                                        000000000000000000
F0010000010692300001000080201112800013050500000000000000000201711220002001CANGURO INTERNATIONAL S.A.                        D000000188499700000000000000000000100010010000000000000000000000F0010000010692300120171122000101 00000000000000000000000000000000000000000000000000000000000000000000000000000000000000000000000000000000000000000N 00000000000NCONT   00    00000000000          00000000000000000000000000000000000000000000 000000000000000A000000000000000000000000000000000000000000000 000000000000000000000000000000000000000     00000000                                                                                                                        000000000000000000
F0010000010692300002000080201112800041450500000000000000000201711220002001CANGURO INTERNATIONAL S.A.                        C000000188499700000000000000000000100010010000000000000000000000F0010000010692300220171122000101 00000000000000000000000000000000000000000000000000000000000000000000000000000000000000000000000000000000000000000N 00000000000NCONT   00    00000000000          00000000000000000000000000000000000000000000 000000000000000A000000000000000000000000000000000000000000000 000000000000000000000000000000000000000     00000000                                                                                                                        000000000000000000
F0010000010692300003000080201112800042505000000000000000000201711220002001CANGURO INTERNATIONAL S.A.                        C000000000000000000000000000000000100010010000000000000000000000F0010000010692300320171122000101 00000000000000000000000000000000000000000000000000000000000000000000000000000000000000000000000000000000000000000N 00000000000NCONT   00    00000000000          00000000000000000000000000000000000000000000 000000000000000A000000000000000000000000000000000000000000000 000000000000000000000000000000000000000     00000000                                                                                                                        000000000000000000
F0010000010692300004000080201112800023658300000000000000000201711220002001CANGURO INTERNATIONAL S.A.                        C000000000000000000000000000000000100010010000000000000000000000F0010000010692300420171122000101 00000000000000000000000000000000000000000000000000000000000000000000000000000000000000000000000000000000000000000N 00000000000NCONT   00    00000000000          00000000000000000000000000000000000000000000 000000000000000A000000000000000000000000000000000000000000000 000000000000000000000000000000000000000     00000000                                                                                                                        000000000000000000
F0010000010692300005000080201112800013552100000000000000000201711220002001CANGURO INTERNATIONAL S.A.                        D000000000000000000000000000000000100010010000000000000000000000F0010000010692300520171122000101 00000000000000000000000000000000000000000000000000000000000000000000000000000000000000000000000000000000000000000N 00000000000NCONT   00    00000000000          00000000000000000000000000000000000000000000 000000000000000A000000000000000000000000000000000000000000000 000000000000000000000000000000000000000     00000000                                                                                                                        000000000000000000
F0010000010692400001000080201112800013050500000000000000000201711220002001CANGURO INTERNATIONAL S.A.                        D000000186959700000000000000000000100010010000000000000000000000F0010000010692400120171122000101 00000000000000000000000000000000000000000000000000000000000000000000000000000000000000000000000000000000000000000N 00000000000NCONT   00    00000000000          00000000000000000000000000000000000000000000 000000000000000A000000000000000000000000000000000000000000000 000000000000000000000000000000000000000     00000000                                                                                                                        000000000000000000
F0010000010692400002000080201112800041450500000000000000000201711220002001CANGURO INTERNATIONAL S.A.                        C000000178668800000000000000000000100010010000000000000000000000F0010000010692400220171122000101 00000000000000000000000000000000000000000000000000000000000000000000000000000000000000000000000000000000000000000N 00000000000NCONT   00    00000000000          00000000000000000000000000000000000000000000 000000000000000A000000000000000000000000000000000000000000000 000000000000000000000000000000000000000     00000000                                                                                                                        000000000000000000
F0010000010692400003000080201112800042505000000000000000000201711220002001CANGURO INTERNATIONAL S.A.                        C000000008290900000000000000000000100010010000000000000000000000F0010000010692400320171122000101 00000000000000000000000000000000000000000000000000000000000000000000000000000000000000000000000000000000000000000N 00000000000NCONT   00    00000000000          00000000000000000000000000000000000000000000 000000000000000A000000000000000000000000000000000000000000000 000000000000000000000000000000000000000     00000000                                                                                                                        000000000000000000
F0010000010692400004000080201112800023658300000000000000000201711220002001CANGURO INTERNATIONAL S.A.                        C000000000000000000000000000000000100010010000000000000000000000F0010000010692400420171122000101 00000000000000000000000000000000000000000000000000000000000000000000000000000000000000000000000000000000000000000N 00000000000NCONT   00    00000000000          00000000000000000000000000000000000000000000 000000000000000A000000000000000000000000000000000000000000000 000000000000000000000000000000000000000     00000000                                                                                                                        000000000000000000
F0010000010692400005000080201112800013552100000000000000000201711220002001CANGURO INTERNATIONAL S.A.                        D000000000000000000000000000000000100010010000000000000000000000F0010000010692400520171122000101 00000000000000000000000000000000000000000000000000000000000000000000000000000000000000000000000000000000000000000N 00000000000NCONT   00    00000000000          00000000000000000000000000000000000000000000 000000000000000A000000000000000000000000000000000000000000000 000000000000000000000000000000000000000     00000000                                                                                                                        000000000000000000
F0010000010692500001000080201112800013050500000000000000000201711220002001CANGURO INTERNATIONAL S.A.                        D000000153783000000000000000000000100010010000000000000000000000F0010000010692500120171122000101 00000000000000000000000000000000000000000000000000000000000000000000000000000000000000000000000000000000000000000N 00000000000NCONT   00    00000000000          00000000000000000000000000000000000000000000 000000000000000A000000000000000000000000000000000000000000000 000000000000000000000000000000000000000     00000000                                                                                                                        000000000000000000
F0010000010692500002000080201112800041450500000000000000000201711220002001CANGURO INTERNATIONAL S.A.                        C000000153783000000000000000000000100010010000000000000000000000F0010000010692500220171122000101 00000000000000000000000000000000000000000000000000000000000000000000000000000000000000000000000000000000000000000N 00000000000NCONT   00    00000000000          00000000000000000000000000000000000000000000 000000000000000A000000000000000000000000000000000000000000000 000000000000000000000000000000000000000     00000000                                                                                                                        000000000000000000
F0010000010692500003000080201112800042505000000000000000000201711220002001CANGURO INTERNATIONAL S.A.                        C000000000000000000000000000000000100010010000000000000000000000F0010000010692500320171122000101 00000000000000000000000000000000000000000000000000000000000000000000000000000000000000000000000000000000000000000N 00000000000NCONT   00    00000000000          00000000000000000000000000000000000000000000 000000000000000A000000000000000000000000000000000000000000000 000000000000000000000000000000000000000     00000000                                                                                                                        000000000000000000
F0010000010692500004000080201112800023658300000000000000000201711220002001CANGURO INTERNATIONAL S.A.                        C000000000000000000000000000000000100010010000000000000000000000F0010000010692500420171122000101 00000000000000000000000000000000000000000000000000000000000000000000000000000000000000000000000000000000000000000N 00000000000NCONT   00    00000000000          00000000000000000000000000000000000000000000 000000000000000A000000000000000000000000000000000000000000000 000000000000000000000000000000000000000     00000000                                                                                                                        000000000000000000
F0010000010692500005000080201112800013552100000000000000000201711220002001CANGURO INTERNATIONAL S.A.                        D000000000000000000000000000000000100010010000000000000000000000F0010000010692500520171122000101 00000000000000000000000000000000000000000000000000000000000000000000000000000000000000000000000000000000000000000N 00000000000NCONT   00    00000000000          00000000000000000000000000000000000000000000 000000000000000A000000000000000000000000000000000000000000000 000000000000000000000000000000000000000     00000000                                                                                                                        000000000000000000
F0010000010692600001000080202330500011050500000000000000000201711220002001FERRETERIA NUEVO MILENIO S.A.S                    D000000001600000000000000000000000100010010000000000000000000000F0010000010692600120171122000101 00000000000000000000000000000000000000000000000000000000000000000000000000000000000000000000000000000000000000000N 00000000000NCONT   00    00000000000          00000000000000000000000000000000000000000000 000000000000000A000000000000000000000000000000000000000000000 000000000000000000000000000000000000000     00000000                                                                                                                        000000000000000000
F0010000010692600002000080202330500041450500000000000000000201711220002001FERRETERIA NUEVO MILENIO S.A.S                    C000000001500000000000000000000000100010010000000000000000000000F0010000010692600220171122000101 00000000000000000000000000000000000000000000000000000000000000000000000000000000000000000000000000000000000000000N 00000000000NCONT   00    00000000000          00000000000000000000000000000000000000000000 000000000000000A000000000000000000000000000000000000000000000 000000000000000000000000000000000000000     00000000                                                                                                                        000000000000000000
F0010000010692600003000080202330500042505000000000000000000201711220002001FERRETERIA NUEVO MILENIO S.A.S                    C000000000100000000000000000000000100010010000000000000000000000F0010000010692600320171122000101 00000000000000000000000000000000000000000000000000000000000000000000000000000000000000000000000000000000000000000N 00000000000NCONT   00    00000000000          00000000000000000000000000000000000000000000 000000000000000A000000000000000000000000000000000000000000000 000000000000000000000000000000000000000     00000000                                                                                                                        000000000000000000
F0010000010692600004000080202330500023658300000000000000000201711220002001FERRETERIA NUEVO MILENIO S.A.S                    C000000000000000000000000000000000100010010000000000000000000000F0010000010692600420171122000101 00000000000000000000000000000000000000000000000000000000000000000000000000000000000000000000000000000000000000000N 00000000000NCONT   00    00000000000          00000000000000000000000000000000000000000000 000000000000000A000000000000000000000000000000000000000000000 000000000000000000000000000000000000000     00000000                                                                                                                        000000000000000000
F0010000010692600005000080202330500013552100000000000000000201711220002001FERRETERIA NUEVO MILENIO S.A.S                    D000000000000000000000000000000000100010010000000000000000000000F0010000010692600520171122000101 00000000000000000000000000000000000000000000000000000000000000000000000000000000000000000000000000000000000000000N 00000000000NCONT   00    00000000000          00000000000000000000000000000000000000000000 000000000000000A000000000000000000000000000000000000000000000 000000000000000000000000000000000000000     00000000                                                                                                                        000000000000000000
F0010000010692700001000090015305700011050500000000000000000201711220002001PLASTICOS Y SERVICIOS BARRANQUILLA EU             D000000010673600000000000000000000100010010000000000000000000000F0010000010692700120171122000101 00000000000000000000000000000000000000000000000000000000000000000000000000000000000000000000000000000000000000000N 00000000000NCONT   00    00000000000          00000000000000000000000000000000000000000000 000000000000000A000000000000000000000000000000000000000000000 000000000000000000000000000000000000000     00000000                                                                                                                        000000000000000000
F0010000010692700002000090015305700041450500000000000000000201711220002001PLASTICOS Y SERVICIOS BARRANQUILLA EU             C000000008800000000000000000000000100010010000000000000000000000F0010000010692700220171122000101 00000000000000000000000000000000000000000000000000000000000000000000000000000000000000000000000000000000000000000N 00000000000NCONT   00    00000000000          00000000000000000000000000000000000000000000 000000000000000A000000000000000000000000000000000000000000000 000000000000000000000000000000000000000     00000000                                                                                                                        000000000000000000
