F0010000008937300001000090004325300011050500000000000000000201608030002001FUNDACION FAUNA CARIBE COLOMBIANA                 D000000002200000000000000000000000100010010000000000000000000000F0010000008937300120160803000101 00000000000000000000000000000000000000000000000000000000000000000000000000000000000000000000000000000000000000000N 00000000000NCONT   00    00000000000          00000000000000000000000000000000000000000000 000000000000000A000000000000000000000000000000000000000000000 000000000000000000000000000000000000000     00000000                                                                                                                        000000000000000000
F0010000008937300002000090004325300041450500000000000000000201608030002001FUNDACION FAUNA CARIBE COLOMBIANA                 C000000001800000000000000000000000100010010000000000000000000000F0010000008937300220160803000101 00000000000000000000000000000000000000000000000000000000000000000000000000000000000000000000000000000000000000000N 00000000000NCONT   00    00000000000          00000000000000000000000000000000000000000000 000000000000000A000000000000000000000000000000000000000000000 000000000000000000000000000000000000000     00000000                                                                                                                        000000000000000000
F0010000008937300003000090004325300042505000000000000000000201608030002001FUNDACION FAUNA CARIBE COLOMBIANA                 C000000000400000000000000000000000100010010000000000000000000000F0010000008937300320160803000101 00000000000000000000000000000000000000000000000000000000000000000000000000000000000000000000000000000000000000000N 00000000000NCONT   00    00000000000          00000000000000000000000000000000000000000000 000000000000000A000000000000000000000000000000000000000000000 000000000000000000000000000000000000000     00000000                                                                                                                        000000000000000000
F0010000008937300004000090004325300023658300000000000000000201608030002001FUNDACION FAUNA CARIBE COLOMBIANA                 C000000000014400000000000000000000100010010000000000000000000000F0010000008937300420160803000101 00000000000000000000000000000000000000000000000000000000000000000000000000000000000000000000000000000000000000000N 00000000000NCONT   00    00000000000          00000000000000000000000000000000000000000000 000000000000000A000000000000000000000000000000000000000000000 000000000000000000000000000000000000000     00000000                                                                                                                        000000000000000000
F0010000008937300005000090004325300013552100000000000000000201608030002001FUNDACION FAUNA CARIBE COLOMBIANA                 D000000000014400000000000000000000100010010000000000000000000000F0010000008937300520160803000101 00000000000000000000000000000000000000000000000000000000000000000000000000000000000000000000000000000000000000000N 00000000000NCONT   00    00000000000          00000000000000000000000000000000000000000000 000000000000000A000000000000000000000000000000000000000000000 000000000000000000000000000000000000000     00000000                                                                                                                        000000000000000000
F0010000008937400001000007215896800013050500000000000000000201608030002001EDDIER CIRO                                       D000000023767700000000000000000000100010010000000000000000000000F0010000008937400120160803000101 00000000000000000000000000000000000000000000000000000000000000000000000000000000000000000000000000000000000000000N 00000000000NCONT   00    00000000000          00000000000000000000000000000000000000000000 000000000000000A000000000000000000000000000000000000000000000 000000000000000000000000000000000000000     00000000                                                                                                                        000000000000000000
F0010000008937400002000007215896800041450500000000000000000201608030002001EDDIER CIRO                                       C000000017280000000000000000000000100010010000000000000000000000F0010000008937400220160803000101 00000000000000000000000000000000000000000000000000000000000000000000000000000000000000000000000000000000000000000N 00000000000NCONT   00    00000000000          00000000000000000000000000000000000000000000 000000000000000A000000000000000000000000000000000000000000000 000000000000000000000000000000000000000     00000000                                                                                                                        000000000000000000
F0010000008937400003000007215896800042505000000000000000000201608030002001EDDIER CIRO                                       C000000006487700000000000000000000100010010000000000000000000000F0010000008937400320160803000101 00000000000000000000000000000000000000000000000000000000000000000000000000000000000000000000000000000000000000000N 00000000000NCONT   00    00000000000          00000000000000000000000000000000000000000000 000000000000000A000000000000000000000000000000000000000000000 000000000000000000000000000000000000000     00000000                                                                                                                        000000000000000000
F0010000008937400004000007215896800023658300000000000000000201608030002001EDDIER CIRO                                       C000000000138200000000000000000000100010010000000000000000000000F0010000008937400420160803000101 00000000000000000000000000000000000000000000000000000000000000000000000000000000000000000000000000000000000000000N 00000000000NCONT   00    00000000000          00000000000000000000000000000000000000000000 000000000000000A000000000000000000000000000000000000000000000 000000000000000000000000000000000000000     00000000                                                                                                                        000000000000000000
F0010000008937400005000007215896800013552100000000000000000201608030002001EDDIER CIRO                                       D000000000138200000000000000000000100010010000000000000000000000F0010000008937400520160803000101 00000000000000000000000000000000000000000000000000000000000000000000000000000000000000000000000000000000000000000N 00000000000NCONT   00    00000000000          00000000000000000000000000000000000000000000 000000000000000A000000000000000000000000000000000000000000000 000000000000000000000000000000000000000     00000000                                                                                                                        000000000000000000
F0010000008937500001000090037881900013050500000000000000000201608030002001COMERCIALIZADORA RACOPI S.A.S                     D000000011480000000000000000000000100010010000000000000000000000F0010000008937500120160803000101 00000000000000000000000000000000000000000000000000000000000000000000000000000000000000000000000000000000000000000N 00000000000NCONT   00    00000000000          00000000000000000000000000000000000000000000 000000000000000A000000000000000000000000000000000000000000000 000000000000000000000000000000000000000     00000000                                                                                                                        000000000000000000
F0010000008937500002000090037881900041450500000000000000000201608030002001COMERCIALIZADORA RACOPI S.A.S                     C000000009480000000000000000000000100010010000000000000000000000F0010000008937500220160803000101 00000000000000000000000000000000000000000000000000000000000000000000000000000000000000000000000000000000000000000N 00000000000NCONT   00    00000000000          00000000000000000000000000000000000000000000 000000000000000A000000000000000000000000000000000000000000000 000000000000000000000000000000000000000     00000000                                                                                                                        000000000000000000
F0010000008937500003000090037881900042505000000000000000000201608030002001COMERCIALIZADORA RACOPI S.A.S                     C000000002000000000000000000000000100010010000000000000000000000F0010000008937500320160803000101 00000000000000000000000000000000000000000000000000000000000000000000000000000000000000000000000000000000000000000N 00000000000NCONT   00    00000000000          00000000000000000000000000000000000000000000 000000000000000A000000000000000000000000000000000000000000000 000000000000000000000000000000000000000     00000000                                                                                                                        000000000000000000
F0010000008937500004000090037881900023658300000000000000000201608030002001COMERCIALIZADORA RACOPI S.A.S                     C000000000075800000000000000000000100010010000000000000000000000F0010000008937500420160803000101 00000000000000000000000000000000000000000000000000000000000000000000000000000000000000000000000000000000000000000N 00000000000NCONT   00    00000000000          00000000000000000000000000000000000000000000 000000000000000A000000000000000000000000000000000000000000000 000000000000000000000000000000000000000     00000000                                                                                                                        000000000000000000
F0010000008937500005000090037881900013552100000000000000000201608030002001COMERCIALIZADORA RACOPI S.A.S                     D000000000075800000000000000000000100010010000000000000000000000F0010000008937500520160803000101 00000000000000000000000000000000000000000000000000000000000000000000000000000000000000000000000000000000000000000N 00000000000NCONT   00    00000000000          00000000000000000000000000000000000000000000 000000000000000A000000000000000000000000000000000000000000000 000000000000000000000000000000000000000     00000000                                                                                                                        000000000000000000
F0010000008937600001000002245670100013050500000000000000000201608030002001YOLANDA  TOBON                                    D000000045937200000000000000000000100010010000000000000000000000F0010000008937600120160803000101 00000000000000000000000000000000000000000000000000000000000000000000000000000000000000000000000000000000000000000N 00000000000NCONT   00    00000000000          00000000000000000000000000000000000000000000 000000000000000A000000000000000000000000000000000000000000000 000000000000000000000000000000000000000     00000000                                                                                                                        000000000000000000
F0010000008937600002000002245670100041450500000000000000000201608030002001YOLANDA  TOBON                                    C000000036930000000000000000000000100010010000000000000000000000F0010000008937600220160803000101 00000000000000000000000000000000000000000000000000000000000000000000000000000000000000000000000000000000000000000N 00000000000NCONT   00    00000000000          00000000000000000000000000000000000000000000 000000000000000A000000000000000000000000000000000000000000000 000000000000000000000000000000000000000     00000000                                                                                                                        000000000000000000
F0010000008937600003000002245670100042505000000000000000000201608030002001YOLANDA  TOBON                                    C000000009007200000000000000000000100010010000000000000000000000F0010000008937600320160803000101 00000000000000000000000000000000000000000000000000000000000000000000000000000000000000000000000000000000000000000N 00000000000NCONT   00    00000000000          00000000000000000000000000000000000000000000 000000000000000A000000000000000000000000000000000000000000000 000000000000000000000000000000000000000     00000000                                                                                                                        000000000000000000
F0010000008937600004000002245670100023658300000000000000000201608030002001YOLANDA  TOBON                                    C000000000295400000000000000000000100010010000000000000000000000F0010000008937600420160803000101 00000000000000000000000000000000000000000000000000000000000000000000000000000000000000000000000000000000000000000N 00000000000NCONT   00    00000000000          00000000000000000000000000000000000000000000 000000000000000A000000000000000000000000000000000000000000000 000000000000000000000000000000000000000     00000000                                                                                                                        000000000000000000
F0010000008937600005000002245670100013552100000000000000000201608030002001YOLANDA  TOBON                                    D000000000295400000000000000000000100010010000000000000000000000F0010000008937600520160803000101 00000000000000000000000000000000000000000000000000000000000000000000000000000000000000000000000000000000000000000N 00000000000NCONT   00    00000000000          00000000000000000000000000000000000000000000 000000000000000A000000000000000000000000000000000000000000000 000000000000000000000000000000000000000     00000000                                                                                                                        000000000000000000
F0010000008937700001000000748239700013050500000000000000000201608030002001RAFAEL NAVARRO URIBE                              D000000040048300000000000000000000100010010000000000000000000000F0010000008937700120160803000101 00000000000000000000000000000000000000000000000000000000000000000000000000000000000000000000000000000000000000000N 00000000000NCONT   00    00000000000          00000000000000000000000000000000000000000000 000000000000000A000000000000000000000000000000000000000000000 000000000000000000000000000000000000000     00000000                                                                                                                        000000000000000000
F0010000008937700002000000748239700041450500000000000000000201608030002001RAFAEL NAVARRO URIBE                              C000000034020000000000000000000000100010010000000000000000000000F0010000008937700220160803000101 00000000000000000000000000000000000000000000000000000000000000000000000000000000000000000000000000000000000000000N 00000000000NCONT   00    00000000000          00000000000000000000000000000000000000000000 000000000000000A000000000000000000000000000000000000000000000 000000000000000000000000000000000000000     00000000                                                                                                                        000000000000000000
F0010000008937700003000000748239700042505000000000000000000201608030002001RAFAEL NAVARRO URIBE                              C000000006028300000000000000000000100010010000000000000000000000F0010000008937700320160803000101 00000000000000000000000000000000000000000000000000000000000000000000000000000000000000000000000000000000000000000N 00000000000NCONT   00    00000000000          00000000000000000000000000000000000000000000 000000000000000A000000000000000000000000000000000000000000000 000000000000000000000000000000000000000     00000000                                                                                                                        000000000000000000
F0010000008937700004000000748239700023658300000000000000000201608030002001RAFAEL NAVARRO URIBE                              C000000000272200000000000000000000100010010000000000000000000000F0010000008937700420160803000101 00000000000000000000000000000000000000000000000000000000000000000000000000000000000000000000000000000000000000000N 00000000000NCONT   00    00000000000          00000000000000000000000000000000000000000000 000000000000000A000000000000000000000000000000000000000000000 000000000000000000000000000000000000000     00000000                                                                                                                        000000000000000000
F0010000008937700005000000748239700013552100000000000000000201608030002001RAFAEL NAVARRO URIBE                              D000000000272200000000000000000000100010010000000000000000000000F0010000008937700520160803000101 00000000000000000000000000000000000000000000000000000000000000000000000000000000000000000000000000000000000000000N 00000000000NCONT   00    00000000000          00000000000000000000000000000000000000000000 000000000000000A000000000000000000000000000000000000000000000 000000000000000000000000000000000000000     00000000                                                                                                                        000000000000000000
F0010000008937800001000083001155300013050500000000000000000201608030002001COMERCIALIZADORA RUBEN S LTDA                     D000000022126800000000000000000000100010010000000000000000000000F0010000008937800120160803000101 00000000000000000000000000000000000000000000000000000000000000000000000000000000000000000000000000000000000000000N 00000000000NCONT   00    00000000000          00000000000000000000000000000000000000000000 000000000000000A000000000000000000000000000000000000000000000 000000000000000000000000000000000000000     00000000                                                                                                                        000000000000000000
F0010000008937800002000083001155300041450500000000000000000201608030002001COMERCIALIZADORA RUBEN S LTDA                     C000000019806200000000000000000000100010010000000000000000000000F0010000008937800220160803000101 00000000000000000000000000000000000000000000000000000000000000000000000000000000000000000000000000000000000000000N 00000000000NCONT   00    00000000000          00000000000000000000000000000000000000000000 000000000000000A000000000000000000000000000000000000000000000 000000000000000000000000000000000000000     00000000                                                                                                                        000000000000000000
F0010000008937800003000083001155300042505000000000000000000201608030002001COMERCIALIZADORA RUBEN S LTDA                     C000000002320600000000000000000000100010010000000000000000000000F0010000008937800320160803000101 00000000000000000000000000000000000000000000000000000000000000000000000000000000000000000000000000000000000000000N 00000000000NCONT   00    00000000000          00000000000000000000000000000000000000000000 000000000000000A000000000000000000000000000000000000000000000 000000000000000000000000000000000000000     00000000                                                                                                                        000000000000000000
F0010000008937800004000083001155300023658300000000000000000201608030002001COMERCIALIZADORA RUBEN S LTDA                     C000000000158400000000000000000000100010010000000000000000000000F0010000008937800420160803000101 00000000000000000000000000000000000000000000000000000000000000000000000000000000000000000000000000000000000000000N 00000000000NCONT   00    00000000000          00000000000000000000000000000000000000000000 000000000000000A000000000000000000000000000000000000000000000 000000000000000000000000000000000000000     00000000                                                                                                                        000000000000000000
F0010000008937800005000083001155300013552100000000000000000201608030002001COMERCIALIZADORA RUBEN S LTDA                     D000000000158400000000000000000000100010010000000000000000000000F0010000008937800520160803000101 00000000000000000000000000000000000000000000000000000000000000000000000000000000000000000000000000000000000000000N 00000000000NCONT   00    00000000000          00000000000000000000000000000000000000000000 000000000000000A000000000000000000000000000000000000000000000 000000000000000000000000000000000000000     00000000                                                                                                                        000000000000000000
F0010000008937900001000080200049600011050500000000000000000201608030002001FAMAPAN DEL CARIBE                                D000000009000000000000000000000000100010010000000000000000000000F0010000008937900120160803000101 00000000000000000000000000000000000000000000000000000000000000000000000000000000000000000000000000000000000000000N 00000000000NCONT   00    00000000000          00000000000000000000000000000000000000000000 000000000000000A000000000000000000000000000000000000000000000 000000000000000000000000000000000000000     00000000                                                                                                                        000000000000000000
F0010000008937900002000080200049600041450500000000000000000201608030002001FAMAPAN DEL CARIBE                                C000000008350000000000000000000000100010010000000000000000000000F0010000008937900220160803000101 00000000000000000000000000000000000000000000000000000000000000000000000000000000000000000000000000000000000000000N 00000000000NCONT   00    00000000000          00000000000000000000000000000000000000000000 000000000000000A000000000000000000000000000000000000000000000 000000000000000000000000000000000000000     00000000                                                                                                                        000000000000000000
F0010000008937900003000080200049600042505000000000000000000201608030002001FAMAPAN DEL CARIBE                                C000000000650000000000000000000000100010010000000000000000000000F0010000008937900320160803000101 00000000000000000000000000000000000000000000000000000000000000000000000000000000000000000000000000000000000000000N 00000000000NCONT   00    00000000000          00000000000000000000000000000000000000000000 000000000000000A000000000000000000000000000000000000000000000 000000000000000000000000000000000000000     00000000                                                                                                                        000000000000000000
F0010000008937900004000080200049600023658300000000000000000201608030002001FAMAPAN DEL CARIBE                                C000000000066800000000000000000000100010010000000000000000000000F0010000008937900420160803000101 00000000000000000000000000000000000000000000000000000000000000000000000000000000000000000000000000000000000000000N 00000000000NCONT   00    00000000000          00000000000000000000000000000000000000000000 000000000000000A000000000000000000000000000000000000000000000 000000000000000000000000000000000000000     00000000                                                                                                                        000000000000000000
F0010000008937900005000080200049600013552100000000000000000201608030002001FAMAPAN DEL CARIBE                                D000000000066800000000000000000000100010010000000000000000000000F0010000008937900520160803000101 00000000000000000000000000000000000000000000000000000000000000000000000000000000000000000000000000000000000000000N 00000000000NCONT   00    00000000000          00000000000000000000000000000000000000000000 000000000000000A000000000000000000000000000000000000000000000 000000000000000000000000000000000000000     00000000                                                                                                                        000000000000000000
F0010000008938000001000080200863700013050500000000000000000201608030002001COPIN S.A.S                                       D000000073960300000000000000000000100010010000000000000000000000F0010000008938000120160803000101 00000000000000000000000000000000000000000000000000000000000000000000000000000000000000000000000000000000000000000N 00000000000NCONT   00    00000000000          00000000000000000000000000000000000000000000 000000000000000A000000000000000000000000000000000000000000000 000000000000000000000000000000000000000     00000000                                                                                                                        000000000000000000
F0010000008938000002000080200863700041450500000000000000000201608030002001COPIN S.A.S                                       C000000066540000000000000000000000100010010000000000000000000000F0010000008938000220160803000101 00000000000000000000000000000000000000000000000000000000000000000000000000000000000000000000000000000000000000000N 00000000000NCONT   00    00000000000          00000000000000000000000000000000000000000000 000000000000000A000000000000000000000000000000000000000000000 000000000000000000000000000000000000000     00000000                                                                                                                        000000000000000000
F0010000008938000003000080200863700042505000000000000000000201608030002001COPIN S.A.S                                       C000000007420300000000000000000000100010010000000000000000000000F0010000008938000320160803000101 00000000000000000000000000000000000000000000000000000000000000000000000000000000000000000000000000000000000000000N 00000000000NCONT   00    00000000000          00000000000000000000000000000000000000000000 000000000000000A000000000000000000000000000000000000000000000 000000000000000000000000000000000000000     00000000                                                                                                                        000000000000000000
F0010000008938000004000080200863700023658300000000000000000201608030002001COPIN S.A.S                                       C000000000532300000000000000000000100010010000000000000000000000F0010000008938000420160803000101 00000000000000000000000000000000000000000000000000000000000000000000000000000000000000000000000000000000000000000N 00000000000NCONT   00    00000000000          00000000000000000000000000000000000000000000 000000000000000A000000000000000000000000000000000000000000000 000000000000000000000000000000000000000     00000000                                                                                                                        000000000000000000
F0010000008938000005000080200863700013552100000000000000000201608030002001COPIN S.A.S                                       D000000000532300000000000000000000100010010000000000000000000000F0010000008938000520160803000101 00000000000000000000000000000000000000000000000000000000000000000000000000000000000000000000000000000000000000000N 00000000000NCONT   00    00000000000          00000000000000000000000000000000000000000000 000000000000000A000000000000000000000000000000000000000000000 000000000000000000000000000000000000000     00000000                                                                                                                        000000000000000000
F0010000008938100001000089080176300013050500000000000000000201608030002001SEGAR S.A.                                        D000000065864200000000000000000000100010010000000000000000000000F0010000008938100120160803000101 00000000000000000000000000000000000000000000000000000000000000000000000000000000000000000000000000000000000000000N 00000000000NCONT   00    00000000000          00000000000000000000000000000000000000000000 000000000000000A000000000000000000000000000000000000000000000 000000000000000000000000000000000000000     00000000                                                                                                                        000000000000000000
F0010000008938100002000089080176300041450500000000000000000201608030002001SEGAR S.A.                                        C000000051091000000000000000000000100010010000000000000000000000F0010000008938100220160803000101 00000000000000000000000000000000000000000000000000000000000000000000000000000000000000000000000000000000000000000N 00000000000NCONT   00    00000000000          00000000000000000000000000000000000000000000 000000000000000A000000000000000000000000000000000000000000000 000000000000000000000000000000000000000     00000000                                                                                                                        000000000000000000
F0010000008938100003000089080176300042505000000000000000000201608030002001SEGAR S.A.                                        C000000014773200000000000000000000100010010000000000000000000000F0010000008938100320160803000101 00000000000000000000000000000000000000000000000000000000000000000000000000000000000000000000000000000000000000000N 00000000000NCONT   00    00000000000          00000000000000000000000000000000000000000000 000000000000000A000000000000000000000000000000000000000000000 000000000000000000000000000000000000000     00000000                                                                                                                        000000000000000000
F0010000008938100004000089080176300023658300000000000000000201608030002001SEGAR S.A.                                        C000000000408700000000000000000000100010010000000000000000000000F0010000008938100420160803000101 00000000000000000000000000000000000000000000000000000000000000000000000000000000000000000000000000000000000000000N 00000000000NCONT   00    00000000000          00000000000000000000000000000000000000000000 000000000000000A000000000000000000000000000000000000000000000 000000000000000000000000000000000000000     00000000                                                                                                                        000000000000000000
F0010000008938100005000089080176300013552100000000000000000201608030002001SEGAR S.A.                                        D000000000408700000000000000000000100010010000000000000000000000F0010000008938100520160803000101 00000000000000000000000000000000000000000000000000000000000000000000000000000000000000000000000000000000000000000N 00000000000NCONT   00    00000000000          00000000000000000000000000000000000000000000 000000000000000A000000000000000000000000000000000000000000000 000000000000000000000000000000000000000     00000000                                                                                                                        000000000000000000
F0010000008938200001000089011492400013050500000000000000000201608030002001AGE. CAUCHO SOL DE LA COSTA  SAS                  D000000192495700000000000000000000100010010000000000000000000000F0010000008938200120160803000101 00000000000000000000000000000000000000000000000000000000000000000000000000000000000000000000000000000000000000000N 00000000000NCONT   00    00000000000          00000000000000000000000000000000000000000000 000000000000000A000000000000000000000000000000000000000000000 000000000000000000000000000000000000000     00000000                                                                                                                        000000000000000000
F0010000008938200002000089011492400041450500000000000000000201608030002001AGE. CAUCHO SOL DE LA COSTA  SAS                  C000000134590000000000000000000000100010010000000000000000000000F0010000008938200220160803000101 00000000000000000000000000000000000000000000000000000000000000000000000000000000000000000000000000000000000000000N 00000000000NCONT   00    00000000000          00000000000000000000000000000000000000000000 000000000000000A000000000000000000000000000000000000000000000 000000000000000000000000000000000000000     00000000                                                                                                                        000000000000000000
F0010000008938200003000089011492400042505000000000000000000201608030002001AGE. CAUCHO SOL DE LA COSTA  SAS                  C000000057905700000000000000000000100010010000000000000000000000F0010000008938200320160803000101 00000000000000000000000000000000000000000000000000000000000000000000000000000000000000000000000000000000000000000N 00000000000NCONT   00    00000000000          00000000000000000000000000000000000000000000 000000000000000A000000000000000000000000000000000000000000000 000000000000000000000000000000000000000     00000000                                                                                                                        000000000000000000
F0010000008938200004000089011492400023658300000000000000000201608030002001AGE. CAUCHO SOL DE LA COSTA  SAS                  C000000001076700000000000000000000100010010000000000000000000000F0010000008938200420160803000101 00000000000000000000000000000000000000000000000000000000000000000000000000000000000000000000000000000000000000000N 00000000000NCONT   00    00000000000          00000000000000000000000000000000000000000000 000000000000000A000000000000000000000000000000000000000000000 000000000000000000000000000000000000000     00000000                                                                                                                        000000000000000000
F0010000008938200005000089011492400013552100000000000000000201608030002001AGE. CAUCHO SOL DE LA COSTA  SAS                  D000000001076700000000000000000000100010010000000000000000000000F0010000008938200520160803000101 00000000000000000000000000000000000000000000000000000000000000000000000000000000000000000000000000000000000000000N 00000000000NCONT   00    00000000000          00000000000000000000000000000000000000000000 000000000000000A000000000000000000000000000000000000000000000 000000000000000000000000000000000000000     00000000                                                                                                                        000000000000000000
F0010000008938300001000090063628300011050500000000000000000201608030002001INVERSIONES RADELCA S.A.S.                        D000000006000000000000000000000000100010010000000000000000000000F0010000008938300120160803000101 00000000000000000000000000000000000000000000000000000000000000000000000000000000000000000000000000000000000000000N 00000000000NCONT   00    00000000000          00000000000000000000000000000000000000000000 000000000000000A000000000000000000000000000000000000000000000 000000000000000000000000000000000000000     00000000                                                                                                                        000000000000000000
F0010000008938300002000090063628300041450500000000000000000201608030002001INVERSIONES RADELCA S.A.S.                        C000000005000000000000000000000000100010010000000000000000000000F0010000008938300220160803000101 00000000000000000000000000000000000000000000000000000000000000000000000000000000000000000000000000000000000000000N 00000000000NCONT   00    00000000000          00000000000000000000000000000000000000000000 000000000000000A000000000000000000000000000000000000000000000 000000000000000000000000000000000000000     00000000                                                                                                                        000000000000000000
F0010000008938300003000090063628300042505000000000000000000201608030002001INVERSIONES RADELCA S.A.S.                        C000000001000000000000000000000000100010010000000000000000000000F0010000008938300320160803000101 00000000000000000000000000000000000000000000000000000000000000000000000000000000000000000000000000000000000000000N 00000000000NCONT   00    00000000000          00000000000000000000000000000000000000000000 000000000000000A000000000000000000000000000000000000000000000 000000000000000000000000000000000000000     00000000                                                                                                                        000000000000000000
F0010000008938300004000090063628300023658300000000000000000201608030002001INVERSIONES RADELCA S.A.S.                        C000000000040000000000000000000000100010010000000000000000000000F0010000008938300420160803000101 00000000000000000000000000000000000000000000000000000000000000000000000000000000000000000000000000000000000000000N 00000000000NCONT   00    00000000000          00000000000000000000000000000000000000000000 000000000000000A000000000000000000000000000000000000000000000 000000000000000000000000000000000000000     00000000                                                                                                                        000000000000000000
F0010000008938300005000090063628300013552100000000000000000201608030002001INVERSIONES RADELCA S.A.S.                        D000000000040000000000000000000000100010010000000000000000000000F0010000008938300520160803000101 00000000000000000000000000000000000000000000000000000000000000000000000000000000000000000000000000000000000000000N 00000000000NCONT   00    00000000000          00000000000000000000000000000000000000000000 000000000000000A000000000000000000000000000000000000000000000 000000000000000000000000000000000000000     00000000                                                                                                                        000000000000000000
F0010000008938400001000080019113900013050500000000000000000201608030002001COMERCIAL NOVAPEL LTDA                            D000000069935000000000000000000000100010010000000000000000000000F0010000008938400120160803000101 00000000000000000000000000000000000000000000000000000000000000000000000000000000000000000000000000000000000000000N 00000000000NCONT   00    00000000000          00000000000000000000000000000000000000000000 000000000000000A000000000000000000000000000000000000000000000 000000000000000000000000000000000000000     00000000                                                                                                                        000000000000000000
F0010000008938400002000080019113900041450500000000000000000201608030002001COMERCIAL NOVAPEL LTDA                            C000000063200000000000000000000000100010010000000000000000000000F0010000008938400220160803000101 00000000000000000000000000000000000000000000000000000000000000000000000000000000000000000000000000000000000000000N 00000000000NCONT   00    00000000000          00000000000000000000000000000000000000000000 000000000000000A000000000000000000000000000000000000000000000 000000000000000000000000000000000000000     00000000                                                                                                                        000000000000000000
F0010000008938400003000080019113900042505000000000000000000201608030002001COMERCIAL NOVAPEL LTDA                            C000000006735000000000000000000000100010010000000000000000000000F0010000008938400320160803000101 00000000000000000000000000000000000000000000000000000000000000000000000000000000000000000000000000000000000000000N 00000000000NCONT   00    00000000000          00000000000000000000000000000000000000000000 000000000000000A000000000000000000000000000000000000000000000 000000000000000000000000000000000000000     00000000                                                                                                                        000000000000000000
F0010000008938400004000080019113900023658300000000000000000201608030002001COMERCIAL NOVAPEL LTDA                            C000000000505600000000000000000000100010010000000000000000000000F0010000008938400420160803000101 00000000000000000000000000000000000000000000000000000000000000000000000000000000000000000000000000000000000000000N 00000000000NCONT   00    00000000000          00000000000000000000000000000000000000000000 000000000000000A000000000000000000000000000000000000000000000 000000000000000000000000000000000000000     00000000                                                                                                                        000000000000000000
F0010000008938400005000080019113900013552100000000000000000201608030002001COMERCIAL NOVAPEL LTDA                            D000000000505600000000000000000000100010010000000000000000000000F0010000008938400520160803000101 00000000000000000000000000000000000000000000000000000000000000000000000000000000000000000000000000000000000000000N 00000000000NCONT   00    00000000000          00000000000000000000000000000000000000000000 000000000000000A000000000000000000000000000000000000000000000 000000000000000000000000000000000000000     00000000                                                                                                                        000000000000000000
F0010000008938500001000080202094000013050500000000000000000201608030002001DISTRIB. OMAR ORREGO S.A.                         D000000040993300000000000000000000100010010000000000000000000000F0010000008938500120160803000101 00000000000000000000000000000000000000000000000000000000000000000000000000000000000000000000000000000000000000000N 00000000000NCONT   00    00000000000          00000000000000000000000000000000000000000000 000000000000000A000000000000000000000000000000000000000000000 000000000000000000000000000000000000000     00000000                                                                                                                        000000000000000000
F0010000008938500002000080202094000041450500000000000000000201608030002001DISTRIB. OMAR ORREGO S.A.                         C000000027600000000000000000000000100010010000000000000000000000F0010000008938500220160803000101 00000000000000000000000000000000000000000000000000000000000000000000000000000000000000000000000000000000000000000N 00000000000NCONT   00    00000000000          00000000000000000000000000000000000000000000 000000000000000A000000000000000000000000000000000000000000000 000000000000000000000000000000000000000     00000000                                                                                                                        000000000000000000
F0010000008938500003000080202094000042505000000000000000000201608030002001DISTRIB. OMAR ORREGO S.A.                         C000000013393300000000000000000000100010010000000000000000000000F0010000008938500320160803000101 00000000000000000000000000000000000000000000000000000000000000000000000000000000000000000000000000000000000000000N 00000000000NCONT   00    00000000000          00000000000000000000000000000000000000000000 000000000000000A000000000000000000000000000000000000000000000 000000000000000000000000000000000000000     00000000                                                                                                                        000000000000000000
F0010000008938500004000080202094000023658300000000000000000201608030002001DISTRIB. OMAR ORREGO S.A.                         C000000000220800000000000000000000100010010000000000000000000000F0010000008938500420160803000101 00000000000000000000000000000000000000000000000000000000000000000000000000000000000000000000000000000000000000000N 00000000000NCONT   00    00000000000          00000000000000000000000000000000000000000000 000000000000000A000000000000000000000000000000000000000000000 000000000000000000000000000000000000000     00000000                                                                                                                        000000000000000000
F0010000008938500005000080202094000013552100000000000000000201608030002001DISTRIB. OMAR ORREGO S.A.                         D000000000220800000000000000000000100010010000000000000000000000F0010000008938500520160803000101 00000000000000000000000000000000000000000000000000000000000000000000000000000000000000000000000000000000000000000N 00000000000NCONT   00    00000000000          00000000000000000000000000000000000000000000 000000000000000A000000000000000000000000000000000000000000000 000000000000000000000000000000000000000     00000000                                                                                                                        000000000000000000
F0010000008938600001000080201112800013050500000000000000000201608030002001CANGURO INTERNATIONAL S.A.                        D000000078538900000000000000000000100010010000000000000000000000F0010000008938600120160803000101 00000000000000000000000000000000000000000000000000000000000000000000000000000000000000000000000000000000000000000N 00000000000NCONT   00    00000000000          00000000000000000000000000000000000000000000 000000000000000A000000000000000000000000000000000000000000000 000000000000000000000000000000000000000     00000000                                                                                                                        000000000000000000
F0010000008938600002000080201112800041450500000000000000000201608030002001CANGURO INTERNATIONAL S.A.                        C000000077044700000000000000000000100010010000000000000000000000F0010000008938600220160803000101 00000000000000000000000000000000000000000000000000000000000000000000000000000000000000000000000000000000000000000N 00000000000NCONT   00    00000000000          00000000000000000000000000000000000000000000 000000000000000A000000000000000000000000000000000000000000000 000000000000000000000000000000000000000     00000000                                                                                                                        000000000000000000
F0010000008938600003000080201112800042505000000000000000000201608030002001CANGURO INTERNATIONAL S.A.                        C000000001494200000000000000000000100010010000000000000000000000F0010000008938600320160803000101 00000000000000000000000000000000000000000000000000000000000000000000000000000000000000000000000000000000000000000N 00000000000NCONT   00    00000000000          00000000000000000000000000000000000000000000 000000000000000A000000000000000000000000000000000000000000000 000000000000000000000000000000000000000     00000000                                                                                                                        000000000000000000
F0010000008938600004000080201112800023658300000000000000000201608030002001CANGURO INTERNATIONAL S.A.                        C000000000616400000000000000000000100010010000000000000000000000F0010000008938600420160803000101 00000000000000000000000000000000000000000000000000000000000000000000000000000000000000000000000000000000000000000N 00000000000NCONT   00    00000000000          00000000000000000000000000000000000000000000 000000000000000A000000000000000000000000000000000000000000000 000000000000000000000000000000000000000     00000000                                                                                                                        000000000000000000
F0010000008938600005000080201112800013552100000000000000000201608030002001CANGURO INTERNATIONAL S.A.                        D000000000616400000000000000000000100010010000000000000000000000F0010000008938600520160803000101 00000000000000000000000000000000000000000000000000000000000000000000000000000000000000000000000000000000000000000N 00000000000NCONT   00    00000000000          00000000000000000000000000000000000000000000 000000000000000A000000000000000000000000000000000000000000000 000000000000000000000000000000000000000     00000000                                                                                                                        000000000000000000
F0010000008938700001000090015039900011050500000000000000000201608030002001METALMAX DE COLOMBIA S.A.S                        D000000005000000000000000000000000100010010000000000000000000000F0010000008938700120160803000101 00000000000000000000000000000000000000000000000000000000000000000000000000000000000000000000000000000000000000000N 00000000000NCONT   00    00000000000          00000000000000000000000000000000000000000000 000000000000000A000000000000000000000000000000000000000000000 000000000000000000000000000000000000000     00000000                                                                                                                        000000000000000000
F0010000008938700002000090015039900041450500000000000000000201608030002001METALMAX DE COLOMBIA S.A.S                        C000000004800000000000000000000000100010010000000000000000000000F0010000008938700220160803000101 00000000000000000000000000000000000000000000000000000000000000000000000000000000000000000000000000000000000000000N 00000000000NCONT   00    00000000000          00000000000000000000000000000000000000000000 000000000000000A000000000000000000000000000000000000000000000 000000000000000000000000000000000000000     00000000                                                                                                                        000000000000000000
F0010000008938700003000090015039900042505000000000000000000201608030002001METALMAX DE COLOMBIA S.A.S                        C000000000200000000000000000000000100010010000000000000000000000F0010000008938700320160803000101 00000000000000000000000000000000000000000000000000000000000000000000000000000000000000000000000000000000000000000N 00000000000NCONT   00    00000000000          00000000000000000000000000000000000000000000 000000000000000A000000000000000000000000000000000000000000000 000000000000000000000000000000000000000     00000000                                                                                                                        000000000000000000
F0010000008938700004000090015039900023658300000000000000000201608030002001METALMAX DE COLOMBIA S.A.S                        C000000000038400000000000000000000100010010000000000000000000000F0010000008938700420160803000101 00000000000000000000000000000000000000000000000000000000000000000000000000000000000000000000000000000000000000000N 00000000000NCONT   00    00000000000          00000000000000000000000000000000000000000000 000000000000000A000000000000000000000000000000000000000000000 000000000000000000000000000000000000000     00000000                                                                                                                        000000000000000000
F0010000008938700005000090015039900013552100000000000000000201608030002001METALMAX DE COLOMBIA S.A.S                        D000000000038400000000000000000000100010010000000000000000000000F0010000008938700520160803000101 00000000000000000000000000000000000000000000000000000000000000000000000000000000000000000000000000000000000000000N 00000000000NCONT   00    00000000000          00000000000000000000000000000000000000000000 000000000000000A000000000000000000000000000000000000000000000 000000000000000000000000000000000000000     00000000                                                                                                                        000000000000000000
F0010000008938800001000080201411900011050500000000000000000201608030002001PLASTISERVICIOS S DE H                            D000000003200000000000000000000000100010010000000000000000000000F0010000008938800120160803000101 00000000000000000000000000000000000000000000000000000000000000000000000000000000000000000000000000000000000000000N 00000000000NCONT   00    00000000000          00000000000000000000000000000000000000000000 000000000000000A000000000000000000000000000000000000000000000 000000000000000000000000000000000000000     00000000                                                                                                                        000000000000000000
F0010000008938800002000080201411900041450500000000000000000201608030002001PLASTISERVICIOS S DE H                            C000000003040000000000000000000000100010010000000000000000000000F0010000008938800220160803000101 00000000000000000000000000000000000000000000000000000000000000000000000000000000000000000000000000000000000000000N 00000000000NCONT   00    00000000000          00000000000000000000000000000000000000000000 000000000000000A000000000000000000000000000000000000000000000 000000000000000000000000000000000000000     00000000                                                                                                                        000000000000000000
F0010000008938800003000080201411900042505000000000000000000201608030002001PLASTISERVICIOS S DE H                            C000000000160000000000000000000000100010010000000000000000000000F0010000008938800320160803000101 00000000000000000000000000000000000000000000000000000000000000000000000000000000000000000000000000000000000000000N 00000000000NCONT   00    00000000000          00000000000000000000000000000000000000000000 000000000000000A000000000000000000000000000000000000000000000 000000000000000000000000000000000000000     00000000                                                                                                                        000000000000000000
F0010000008938800004000080201411900023658300000000000000000201608030002001PLASTISERVICIOS S DE H                            C000000000024300000000000000000000100010010000000000000000000000F0010000008938800420160803000101 00000000000000000000000000000000000000000000000000000000000000000000000000000000000000000000000000000000000000000N 00000000000NCONT   00    00000000000          00000000000000000000000000000000000000000000 000000000000000A000000000000000000000000000000000000000000000 000000000000000000000000000000000000000     00000000                                                                                                                        000000000000000000
F0010000008938800005000080201411900013552100000000000000000201608030002001PLASTISERVICIOS S DE H                            D000000000024300000000000000000000100010010000000000000000000000F0010000008938800520160803000101 00000000000000000000000000000000000000000000000000000000000000000000000000000000000000000000000000000000000000000N 00000000000NCONT   00    00000000000          00000000000000000000000000000000000000000000 000000000000000A000000000000000000000000000000000000000000000 000000000000000000000000000000000000000     00000000                                                                                                                        000000000000000000
F0010000008938900001000080201411900011050500000000000000000201608030002001PLASTISERVICIOS S DE H                            D000000002900000000000000000000000100010010000000000000000000000F0010000008938900120160803000101 00000000000000000000000000000000000000000000000000000000000000000000000000000000000000000000000000000000000000000N 00000000000NCONT   00    00000000000          00000000000000000000000000000000000000000000 000000000000000A000000000000000000000000000000000000000000000 000000000000000000000000000000000000000     00000000                                                                                                                        000000000000000000
F0010000008938900002000080201411900041450500000000000000000201608030002001PLASTISERVICIOS S DE H                            C000000002040000000000000000000000100010010000000000000000000000F0010000008938900220160803000101 00000000000000000000000000000000000000000000000000000000000000000000000000000000000000000000000000000000000000000N 00000000000NCONT   00    00000000000          00000000000000000000000000000000000000000000 000000000000000A000000000000000000000000000000000000000000000 000000000000000000000000000000000000000     00000000                                                                                                                        000000000000000000
F0010000008938900003000080201411900042505000000000000000000201608030002001PLASTISERVICIOS S DE H                            C000000000860000000000000000000000100010010000000000000000000000F0010000008938900320160803000101 00000000000000000000000000000000000000000000000000000000000000000000000000000000000000000000000000000000000000000N 00000000000NCONT   00    00000000000          00000000000000000000000000000000000000000000 000000000000000A000000000000000000000000000000000000000000000 000000000000000000000000000000000000000     00000000                                                                                                                        000000000000000000
F0010000008938900004000080201411900023658300000000000000000201608030002001PLASTISERVICIOS S DE H                            C000000000016300000000000000000000100010010000000000000000000000F0010000008938900420160803000101 00000000000000000000000000000000000000000000000000000000000000000000000000000000000000000000000000000000000000000N 00000000000NCONT   00    00000000000          00000000000000000000000000000000000000000000 000000000000000A000000000000000000000000000000000000000000000 000000000000000000000000000000000000000     00000000                                                                                                                        000000000000000000
F0010000008938900005000080201411900013552100000000000000000201608030002001PLASTISERVICIOS S DE H                            D000000000016300000000000000000000100010010000000000000000000000F0010000008938900520160803000101 00000000000000000000000000000000000000000000000000000000000000000000000000000000000000000000000000000000000000000N 00000000000NCONT   00    00000000000          00000000000000000000000000000000000000000000 000000000000000A000000000000000000000000000000000000000000000 000000000000000000000000000000000000000     00000000                                                                                                                        000000000000000000
F0010000008939000001000080201411900011050500000000000000000201608030002001PLASTISERVICIOS S DE H                            D000000007700000000000000000000000100010010000000000000000000000F0010000008939000120160803000101 00000000000000000000000000000000000000000000000000000000000000000000000000000000000000000000000000000000000000000N 00000000000NCONT   00    00000000000          00000000000000000000000000000000000000000000 000000000000000A000000000000000000000000000000000000000000000 000000000000000000000000000000000000000     00000000                                                                                                                        000000000000000000
F0010000008939000002000080201411900041450500000000000000000201608030002001PLASTISERVICIOS S DE H                            C000000006020000000000000000000000100010010000000000000000000000F0010000008939000220160803000101 00000000000000000000000000000000000000000000000000000000000000000000000000000000000000000000000000000000000000000N 00000000000NCONT   00    00000000000          00000000000000000000000000000000000000000000 000000000000000A000000000000000000000000000000000000000000000 000000000000000000000000000000000000000     00000000                                                                                                                        000000000000000000
F0010000008939000003000080201411900042505000000000000000000201608030002001PLASTISERVICIOS S DE H                            C000000001680000000000000000000000100010010000000000000000000000F0010000008939000320160803000101 00000000000000000000000000000000000000000000000000000000000000000000000000000000000000000000000000000000000000000N 00000000000NCONT   00    00000000000          00000000000000000000000000000000000000000000 000000000000000A000000000000000000000000000000000000000000000 000000000000000000000000000000000000000     00000000                                                                                                                        000000000000000000
F0010000008939000004000080201411900023658300000000000000000201608030002001PLASTISERVICIOS S DE H                            C000000000048200000000000000000000100010010000000000000000000000F0010000008939000420160803000101 00000000000000000000000000000000000000000000000000000000000000000000000000000000000000000000000000000000000000000N 00000000000NCONT   00    00000000000          00000000000000000000000000000000000000000000 000000000000000A000000000000000000000000000000000000000000000 000000000000000000000000000000000000000     00000000                                                                                                                        000000000000000000
F0010000008939000005000080201411900013552100000000000000000201608030002001PLASTISERVICIOS S DE H                            D000000000048200000000000000000000100010010000000000000000000000F0010000008939000520160803000101 00000000000000000000000000000000000000000000000000000000000000000000000000000000000000000000000000000000000000000N 00000000000NCONT   00    00000000000          00000000000000000000000000000000000000000000 000000000000000A000000000000000000000000000000000000000000000 000000000000000000000000000000000000000     00000000                                                                                                                        000000000000000000
F0010000008939100001000080201411900011050500000000000000000201608030002001PLASTISERVICIOS S DE H                            D000000001400000000000000000000000100010010000000000000000000000F0010000008939100120160803000101 00000000000000000000000000000000000000000000000000000000000000000000000000000000000000000000000000000000000000000N 00000000000NCONT   00    00000000000          00000000000000000000000000000000000000000000 000000000000000A000000000000000000000000000000000000000000000 000000000000000000000000000000000000000     00000000                                                                                                                        000000000000000000
F0010000008939100002000080201411900041450500000000000000000201608030002001PLASTISERVICIOS S DE H                            C000000001000000000000000000000000100010010000000000000000000000F0010000008939100220160803000101 00000000000000000000000000000000000000000000000000000000000000000000000000000000000000000000000000000000000000000N 00000000000NCONT   00    00000000000          00000000000000000000000000000000000000000000 000000000000000A000000000000000000000000000000000000000000000 000000000000000000000000000000000000000     00000000                                                                                                                        000000000000000000
F0010000008939100003000080201411900042505000000000000000000201608030002001PLASTISERVICIOS S DE H                            C000000000400000000000000000000000100010010000000000000000000000F0010000008939100320160803000101 00000000000000000000000000000000000000000000000000000000000000000000000000000000000000000000000000000000000000000N 00000000000NCONT   00    00000000000          00000000000000000000000000000000000000000000 000000000000000A000000000000000000000000000000000000000000000 000000000000000000000000000000000000000     00000000                                                                                                                        000000000000000000
F0010000008939100004000080201411900023658300000000000000000201608030002001PLASTISERVICIOS S DE H                            C000000000008000000000000000000000100010010000000000000000000000F0010000008939100420160803000101 00000000000000000000000000000000000000000000000000000000000000000000000000000000000000000000000000000000000000000N 00000000000NCONT   00    00000000000          00000000000000000000000000000000000000000000 000000000000000A000000000000000000000000000000000000000000000 000000000000000000000000000000000000000     00000000                                                                                                                        000000000000000000
F0010000008939100005000080201411900013552100000000000000000201608030002001PLASTISERVICIOS S DE H                            D000000000008000000000000000000000100010010000000000000000000000F0010000008939100520160803000101 00000000000000000000000000000000000000000000000000000000000000000000000000000000000000000000000000000000000000000N 00000000000NCONT   00    00000000000          00000000000000000000000000000000000000000000 000000000000000A000000000000000000000000000000000000000000000 000000000000000000000000000000000000000     00000000                                                                                                                        000000000000000000
F0010000008939200001000080201411900011050500000000000000000201608030002001PLASTISERVICIOS S DE H                            D000000004000000000000000000000000100010010000000000000000000000F0010000008939200120160803000101 00000000000000000000000000000000000000000000000000000000000000000000000000000000000000000000000000000000000000000N 00000000000NCONT   00    00000000000          00000000000000000000000000000000000000000000 000000000000000A000000000000000000000000000000000000000000000 000000000000000000000000000000000000000     00000000                                                                                                                        000000000000000000
F0010000008939200002000080201411900041450500000000000000000201608030002001PLASTISERVICIOS S DE H                            C000000003000000000000000000000000100010010000000000000000000000F0010000008939200220160803000101 00000000000000000000000000000000000000000000000000000000000000000000000000000000000000000000000000000000000000000N 00000000000NCONT   00    00000000000          00000000000000000000000000000000000000000000 000000000000000A000000000000000000000000000000000000000000000 000000000000000000000000000000000000000     00000000                                                                                                                        000000000000000000
F0010000008939200003000080201411900042505000000000000000000201608030002001PLASTISERVICIOS S DE H                            C000000001000000000000000000000000100010010000000000000000000000F0010000008939200320160803000101 00000000000000000000000000000000000000000000000000000000000000000000000000000000000000000000000000000000000000000N 00000000000NCONT   00    00000000000          00000000000000000000000000000000000000000000 000000000000000A000000000000000000000000000000000000000000000 000000000000000000000000000000000000000     00000000                                                                                                                        000000000000000000
F0010000008939200004000080201411900023658300000000000000000201608030002001PLASTISERVICIOS S DE H                            C000000000024000000000000000000000100010010000000000000000000000F0010000008939200420160803000101 00000000000000000000000000000000000000000000000000000000000000000000000000000000000000000000000000000000000000000N 00000000000NCONT   00    00000000000          00000000000000000000000000000000000000000000 000000000000000A000000000000000000000000000000000000000000000 000000000000000000000000000000000000000     00000000                                                                                                                        000000000000000000
F0010000008939200005000080201411900013552100000000000000000201608030002001PLASTISERVICIOS S DE H                            D000000000024000000000000000000000100010010000000000000000000000F0010000008939200520160803000101 00000000000000000000000000000000000000000000000000000000000000000000000000000000000000000000000000000000000000000N 00000000000NCONT   00    00000000000          00000000000000000000000000000000000000000000 000000000000000A000000000000000000000000000000000000000000000 000000000000000000000000000000000000000     00000000                                                                                                                        000000000000000000
F0010000008939300001000003265780700011050500000000000000000201608030002001ZUNILDA GUERRERO                                  D000000002500000000000000000000000100010010000000000000000000000F0010000008939300120160803000101 00000000000000000000000000000000000000000000000000000000000000000000000000000000000000000000000000000000000000000N 00000000000NCONT   00    00000000000          00000000000000000000000000000000000000000000 000000000000000A000000000000000000000000000000000000000000000 000000000000000000000000000000000000000     00000000                                                                                                                        000000000000000000
F0010000008939300002000003265780700041450500000000000000000201608030002001ZUNILDA GUERRERO                                  C000000002000000000000000000000000100010010000000000000000000000F0010000008939300220160803000101 00000000000000000000000000000000000000000000000000000000000000000000000000000000000000000000000000000000000000000N 00000000000NCONT   00    00000000000          00000000000000000000000000000000000000000000 000000000000000A000000000000000000000000000000000000000000000 000000000000000000000000000000000000000     00000000                                                                                                                        000000000000000000
F0010000008939300003000003265780700042505000000000000000000201608030002001ZUNILDA GUERRERO                                  C000000000500000000000000000000000100010010000000000000000000000F0010000008939300320160803000101 00000000000000000000000000000000000000000000000000000000000000000000000000000000000000000000000000000000000000000N 00000000000NCONT   00    00000000000          00000000000000000000000000000000000000000000 000000000000000A000000000000000000000000000000000000000000000 000000000000000000000000000000000000000     00000000                                                                                                                        000000000000000000
F0010000008939300004000003265780700023658300000000000000000201608030002001ZUNILDA GUERRERO                                  C000000000016000000000000000000000100010010000000000000000000000F0010000008939300420160803000101 00000000000000000000000000000000000000000000000000000000000000000000000000000000000000000000000000000000000000000N 00000000000NCONT   00    00000000000          00000000000000000000000000000000000000000000 000000000000000A000000000000000000000000000000000000000000000 000000000000000000000000000000000000000     00000000                                                                                                                        000000000000000000
F0010000008939300005000003265780700013552100000000000000000201608030002001ZUNILDA GUERRERO                                  D000000000016000000000000000000000100010010000000000000000000000F0010000008939300520160803000101 00000000000000000000000000000000000000000000000000000000000000000000000000000000000000000000000000000000000000000N 00000000000NCONT   00    00000000000          00000000000000000000000000000000000000000000 000000000000000A000000000000000000000000000000000000000000000 000000000000000000000000000000000000000     00000000                                                                                                                        000000000000000000
F0010000008939400001000003265780700011050500000000000000000201608030002001ZUNILDA GUERRERO                                  D000000002500000000000000000000000100010010000000000000000000000F0010000008939400120160803000101 00000000000000000000000000000000000000000000000000000000000000000000000000000000000000000000000000000000000000000N 00000000000NCONT   00    00000000000          00000000000000000000000000000000000000000000 000000000000000A000000000000000000000000000000000000000000000 000000000000000000000000000000000000000     00000000                                                                                                                        000000000000000000
F0010000008939400002000003265780700041450500000000000000000201608030002001ZUNILDA GUERRERO                                  C000000002000000000000000000000000100010010000000000000000000000F0010000008939400220160803000101 00000000000000000000000000000000000000000000000000000000000000000000000000000000000000000000000000000000000000000N 00000000000NCONT   00    00000000000          00000000000000000000000000000000000000000000 000000000000000A000000000000000000000000000000000000000000000 000000000000000000000000000000000000000     00000000                                                                                                                        000000000000000000
F0010000008939400003000003265780700042505000000000000000000201608030002001ZUNILDA GUERRERO                                  C000000000500000000000000000000000100010010000000000000000000000F0010000008939400320160803000101 00000000000000000000000000000000000000000000000000000000000000000000000000000000000000000000000000000000000000000N 00000000000NCONT   00    00000000000          00000000000000000000000000000000000000000000 000000000000000A000000000000000000000000000000000000000000000 000000000000000000000000000000000000000     00000000                                                                                                                        000000000000000000
F0010000008939400004000003265780700023658300000000000000000201608030002001ZUNILDA GUERRERO                                  C000000000016000000000000000000000100010010000000000000000000000F0010000008939400420160803000101 00000000000000000000000000000000000000000000000000000000000000000000000000000000000000000000000000000000000000000N 00000000000NCONT   00    00000000000          00000000000000000000000000000000000000000000 000000000000000A000000000000000000000000000000000000000000000 000000000000000000000000000000000000000     00000000                                                                                                                        000000000000000000
F0010000008939400005000003265780700013552100000000000000000201608030002001ZUNILDA GUERRERO                                  D000000000016000000000000000000000100010010000000000000000000000F0010000008939400520160803000101 00000000000000000000000000000000000000000000000000000000000000000000000000000000000000000000000000000000000000000N 00000000000NCONT   00    00000000000          00000000000000000000000000000000000000000000 000000000000000A000000000000000000000000000000000000000000000 000000000000000000000000000000000000000     00000000                                                                                                                        000000000000000000
F0010000008939500001000003319910700011050500000000000000000201608030002001LUZ DARY JIMENEZ MARTINEZ                         D000000001100000000000000000000000100010010000000000000000000000F0010000008939500120160803000101 00000000000000000000000000000000000000000000000000000000000000000000000000000000000000000000000000000000000000000N 00000000000NCONT   00    00000000000          00000000000000000000000000000000000000000000 000000000000000A000000000000000000000000000000000000000000000 000000000000000000000000000000000000000     00000000                                                                                                                        000000000000000000
F0010000008939500002000003319910700041450500000000000000000201608030002001LUZ DARY JIMENEZ MARTINEZ                         C000000001000000000000000000000000100010010000000000000000000000F0010000008939500220160803000101 00000000000000000000000000000000000000000000000000000000000000000000000000000000000000000000000000000000000000000N 00000000000NCONT   00    00000000000          00000000000000000000000000000000000000000000 000000000000000A000000000000000000000000000000000000000000000 000000000000000000000000000000000000000     00000000                                                                                                                        000000000000000000
F0010000008939500003000003319910700042505000000000000000000201608030002001LUZ DARY JIMENEZ MARTINEZ                         C000000000100000000000000000000000100010010000000000000000000000F0010000008939500320160803000101 00000000000000000000000000000000000000000000000000000000000000000000000000000000000000000000000000000000000000000N 00000000000NCONT   00    00000000000          00000000000000000000000000000000000000000000 000000000000000A000000000000000000000000000000000000000000000 000000000000000000000000000000000000000     00000000                                                                                                                        000000000000000000
F0010000008939500004000003319910700023658300000000000000000201608030002001LUZ DARY JIMENEZ MARTINEZ                         C000000000008000000000000000000000100010010000000000000000000000F0010000008939500420160803000101 00000000000000000000000000000000000000000000000000000000000000000000000000000000000000000000000000000000000000000N 00000000000NCONT   00    00000000000          00000000000000000000000000000000000000000000 000000000000000A000000000000000000000000000000000000000000000 000000000000000000000000000000000000000     00000000                                                                                                                        000000000000000000
F0010000008939500005000003319910700013552100000000000000000201608030002001LUZ DARY JIMENEZ MARTINEZ                         D000000000008000000000000000000000100010010000000000000000000000F0010000008939500520160803000101 00000000000000000000000000000000000000000000000000000000000000000000000000000000000000000000000000000000000000000N 00000000000NCONT   00    00000000000          00000000000000000000000000000000000000000000 000000000000000A000000000000000000000000000000000000000000000 000000000000000000000000000000000000000     00000000                                                                                                                        000000000000000000
F0010000008939600001000000257193600011050500000000000000000201608030002001OSCAR YALI PLAZA                                  D000000003000000000000000000000000100010010000000000000000000000F0010000008939600120160803000101 00000000000000000000000000000000000000000000000000000000000000000000000000000000000000000000000000000000000000000N 00000000000NCONT   00    00000000000          00000000000000000000000000000000000000000000 000000000000000A000000000000000000000000000000000000000000000 000000000000000000000000000000000000000     00000000                                                                                                                        000000000000000000
F0010000008939600002000000257193600041450500000000000000000201608030002001OSCAR YALI PLAZA                                  C000000002400000000000000000000000100010010000000000000000000000F0010000008939600220160803000101 00000000000000000000000000000000000000000000000000000000000000000000000000000000000000000000000000000000000000000N 00000000000NCONT   00    00000000000          00000000000000000000000000000000000000000000 000000000000000A000000000000000000000000000000000000000000000 000000000000000000000000000000000000000     00000000                                                                                                                        000000000000000000
F0010000008939600003000000257193600042505000000000000000000201608030002001OSCAR YALI PLAZA                                  C000000000600000000000000000000000100010010000000000000000000000F0010000008939600320160803000101 00000000000000000000000000000000000000000000000000000000000000000000000000000000000000000000000000000000000000000N 00000000000NCONT   00    00000000000          00000000000000000000000000000000000000000000 000000000000000A000000000000000000000000000000000000000000000 000000000000000000000000000000000000000     00000000                                                                                                                        000000000000000000
F0010000008939600004000000257193600023658300000000000000000201608030002001OSCAR YALI PLAZA                                  C000000000019200000000000000000000100010010000000000000000000000F0010000008939600420160803000101 00000000000000000000000000000000000000000000000000000000000000000000000000000000000000000000000000000000000000000N 00000000000NCONT   00    00000000000          00000000000000000000000000000000000000000000 000000000000000A000000000000000000000000000000000000000000000 000000000000000000000000000000000000000     00000000                                                                                                                        000000000000000000
F0010000008939600005000000257193600013552100000000000000000201608030002001OSCAR YALI PLAZA                                  D000000000019200000000000000000000100010010000000000000000000000F0010000008939600520160803000101 00000000000000000000000000000000000000000000000000000000000000000000000000000000000000000000000000000000000000000N 00000000000NCONT   00    00000000000          00000000000000000000000000000000000000000000 000000000000000A000000000000000000000000000000000000000000000 000000000000000000000000000000000000000     00000000                                                                                                                        000000000000000000
F0010000008939700001000000257193600011050500000000000000000201608030002001OSCAR YALI PLAZA                                  D000000007400000000000000000000000100010010000000000000000000000F0010000008939700120160803000101 00000000000000000000000000000000000000000000000000000000000000000000000000000000000000000000000000000000000000000N 00000000000NCONT   00    00000000000          00000000000000000000000000000000000000000000 000000000000000A000000000000000000000000000000000000000000000 000000000000000000000000000000000000000     00000000                                                                                                                        000000000000000000
F0010000008939700002000000257193600041450500000000000000000201608030002001OSCAR YALI PLAZA                                  C000000006600000000000000000000000100010010000000000000000000000F0010000008939700220160803000101 00000000000000000000000000000000000000000000000000000000000000000000000000000000000000000000000000000000000000000N 00000000000NCONT   00    00000000000          00000000000000000000000000000000000000000000 000000000000000A000000000000000000000000000000000000000000000 000000000000000000000000000000000000000     00000000                                                                                                                        000000000000000000
F0010000008939700003000000257193600042505000000000000000000201608030002001OSCAR YALI PLAZA                                  C000000000800000000000000000000000100010010000000000000000000000F0010000008939700320160803000101 00000000000000000000000000000000000000000000000000000000000000000000000000000000000000000000000000000000000000000N 00000000000NCONT   00    00000000000          00000000000000000000000000000000000000000000 000000000000000A000000000000000000000000000000000000000000000 000000000000000000000000000000000000000     00000000                                                                                                                        000000000000000000
F0010000008939700004000000257193600023658300000000000000000201608030002001OSCAR YALI PLAZA                                  C000000000052800000000000000000000100010010000000000000000000000F0010000008939700420160803000101 00000000000000000000000000000000000000000000000000000000000000000000000000000000000000000000000000000000000000000N 00000000000NCONT   00    00000000000          00000000000000000000000000000000000000000000 000000000000000A000000000000000000000000000000000000000000000 000000000000000000000000000000000000000     00000000                                                                                                                        000000000000000000
F0010000008939700005000000257193600013552100000000000000000201608030002001OSCAR YALI PLAZA                                  D000000000052800000000000000000000100010010000000000000000000000F0010000008939700520160803000101 00000000000000000000000000000000000000000000000000000000000000000000000000000000000000000000000000000000000000000N 00000000000NCONT   00    00000000000          00000000000000000000000000000000000000000000 000000000000000A000000000000000000000000000000000000000000000 000000000000000000000000000000000000000     00000000                                                                                                                        000000000000000000
F0010000008939800001000000873784400011050500000000000000000201608030002001JOSE HILARIO GONZALEZ QUINTERO                    D000000004500000000000000000000000100010010000000000000000000000F0010000008939800120160803000101 00000000000000000000000000000000000000000000000000000000000000000000000000000000000000000000000000000000000000000N 00000000000NCONT   00    00000000000          00000000000000000000000000000000000000000000 000000000000000A000000000000000000000000000000000000000000000 000000000000000000000000000000000000000     00000000                                                                                                                        000000000000000000
F0010000008939800002000000873784400041450500000000000000000201608030002001JOSE HILARIO GONZALEZ QUINTERO                    C000000004200000000000000000000000100010010000000000000000000000F0010000008939800220160803000101 00000000000000000000000000000000000000000000000000000000000000000000000000000000000000000000000000000000000000000N 00000000000NCONT   00    00000000000          00000000000000000000000000000000000000000000 000000000000000A000000000000000000000000000000000000000000000 000000000000000000000000000000000000000     00000000                                                                                                                        000000000000000000
F0010000008939800003000000873784400042505000000000000000000201608030002001JOSE HILARIO GONZALEZ QUINTERO                    C000000000300000000000000000000000100010010000000000000000000000F0010000008939800320160803000101 00000000000000000000000000000000000000000000000000000000000000000000000000000000000000000000000000000000000000000N 00000000000NCONT   00    00000000000          00000000000000000000000000000000000000000000 000000000000000A000000000000000000000000000000000000000000000 000000000000000000000000000000000000000     00000000                                                                                                                        000000000000000000
F0010000008939800004000000873784400023658300000000000000000201608030002001JOSE HILARIO GONZALEZ QUINTERO                    C000000000033600000000000000000000100010010000000000000000000000F0010000008939800420160803000101 00000000000000000000000000000000000000000000000000000000000000000000000000000000000000000000000000000000000000000N 00000000000NCONT   00    00000000000          00000000000000000000000000000000000000000000 000000000000000A000000000000000000000000000000000000000000000 000000000000000000000000000000000000000     00000000                                                                                                                        000000000000000000
F0010000008939800005000000873784400013552100000000000000000201608030002001JOSE HILARIO GONZALEZ QUINTERO                    D000000000033600000000000000000000100010010000000000000000000000F0010000008939800520160803000101 00000000000000000000000000000000000000000000000000000000000000000000000000000000000000000000000000000000000000000N 00000000000NCONT   00    00000000000          00000000000000000000000000000000000000000000 000000000000000A000000000000000000000000000000000000000000000 000000000000000000000000000000000000000     00000000                                                                                                                        000000000000000000
F0010000008939900001000002245670100011050500000000000000000201608030002001YOLANDA  TOBON                                    D000000009561400000000000000000000100010010000000000000000000000F0010000008939900120160803000101 00000000000000000000000000000000000000000000000000000000000000000000000000000000000000000000000000000000000000000N 00000000000NCONT   00    00000000000          00000000000000000000000000000000000000000000 000000000000000A000000000000000000000000000000000000000000000 000000000000000000000000000000000000000     00000000                                                                                                                        000000000000000000
F0010000008939900002000002245670100041450500000000000000000201608030002001YOLANDA  TOBON                                    C000000006980000000000000000000000100010010000000000000000000000F0010000008939900220160803000101 00000000000000000000000000000000000000000000000000000000000000000000000000000000000000000000000000000000000000000N 00000000000NCONT   00    00000000000          00000000000000000000000000000000000000000000 000000000000000A000000000000000000000000000000000000000000000 000000000000000000000000000000000000000     00000000                                                                                                                        000000000000000000
F0010000008939900003000002245670100042505000000000000000000201608030002001YOLANDA  TOBON                                    C000000002581400000000000000000000100010010000000000000000000000F0010000008939900320160803000101 00000000000000000000000000000000000000000000000000000000000000000000000000000000000000000000000000000000000000000N 00000000000NCONT   00    00000000000          00000000000000000000000000000000000000000000 000000000000000A000000000000000000000000000000000000000000000 000000000000000000000000000000000000000     00000000                                                                                                                        000000000000000000
F0010000008939900004000002245670100023658300000000000000000201608030002001YOLANDA  TOBON                                    C000000000055800000000000000000000100010010000000000000000000000F0010000008939900420160803000101 00000000000000000000000000000000000000000000000000000000000000000000000000000000000000000000000000000000000000000N 00000000000NCONT   00    00000000000          00000000000000000000000000000000000000000000 000000000000000A000000000000000000000000000000000000000000000 000000000000000000000000000000000000000     00000000                                                                                                                        000000000000000000
F0010000008939900005000002245670100013552100000000000000000201608030002001YOLANDA  TOBON                                    D000000000055800000000000000000000100010010000000000000000000000F0010000008939900520160803000101 00000000000000000000000000000000000000000000000000000000000000000000000000000000000000000000000000000000000000000N 00000000000NCONT   00    00000000000          00000000000000000000000000000000000000000000 000000000000000A000000000000000000000000000000000000000000000 000000000000000000000000000000000000000     00000000                                                                                                                        000000000000000000
F0010000008940000001000002245670100011050500000000000000000201608030002001YOLANDA  TOBON                                    D000000001216000000000000000000000100010010000000000000000000000F0010000008940000120160803000101 00000000000000000000000000000000000000000000000000000000000000000000000000000000000000000000000000000000000000000N 00000000000NCONT   00    00000000000          00000000000000000000000000000000000000000000 000000000000000A000000000000000000000000000000000000000000000 000000000000000000000000000000000000000     00000000                                                                                                                        000000000000000000
F0010000008940000002000002245670100041450500000000000000000201608030002001YOLANDA  TOBON                                    C000000000900000000000000000000000100010010000000000000000000000F0010000008940000220160803000101 00000000000000000000000000000000000000000000000000000000000000000000000000000000000000000000000000000000000000000N 00000000000NCONT   00    00000000000          00000000000000000000000000000000000000000000 000000000000000A000000000000000000000000000000000000000000000 000000000000000000000000000000000000000     00000000                                                                                                                        000000000000000000
F0010000008940000003000002245670100042505000000000000000000201608030002001YOLANDA  TOBON                                    C000000000316000000000000000000000100010010000000000000000000000F0010000008940000320160803000101 00000000000000000000000000000000000000000000000000000000000000000000000000000000000000000000000000000000000000000N 00000000000NCONT   00    00000000000          00000000000000000000000000000000000000000000 000000000000000A000000000000000000000000000000000000000000000 000000000000000000000000000000000000000     00000000                                                                                                                        000000000000000000
F0010000008940000004000002245670100023658300000000000000000201608030002001YOLANDA  TOBON                                    C000000000007200000000000000000000100010010000000000000000000000F0010000008940000420160803000101 00000000000000000000000000000000000000000000000000000000000000000000000000000000000000000000000000000000000000000N 00000000000NCONT   00    00000000000          00000000000000000000000000000000000000000000 000000000000000A000000000000000000000000000000000000000000000 000000000000000000000000000000000000000     00000000                                                                                                                        000000000000000000
F0010000008940000005000002245670100013552100000000000000000201608030002001YOLANDA  TOBON                                    D000000000007200000000000000000000100010010000000000000000000000F0010000008940000520160803000101 00000000000000000000000000000000000000000000000000000000000000000000000000000000000000000000000000000000000000000N 00000000000NCONT   00    00000000000          00000000000000000000000000000000000000000000 000000000000000A000000000000000000000000000000000000000000000 000000000000000000000000000000000000000     00000000                                                                                                                        000000000000000000
F0010000008940100001000086003979400011050500000000000000000201608030002001CALYPSO BARRANQUILLA LTDA                         D000000001630000000000000000000000100010010000000000000000000000F0010000008940100120160803000101 00000000000000000000000000000000000000000000000000000000000000000000000000000000000000000000000000000000000000000N 00000000000NCONT   00    00000000000          00000000000000000000000000000000000000000000 000000000000000A000000000000000000000000000000000000000000000 000000000000000000000000000000000000000     00000000                                                                                                                        000000000000000000
F0010000008940100002000086003979400041450500000000000000000201608030002001CALYPSO BARRANQUILLA LTDA                         C000000001320000000000000000000000100010010000000000000000000000F0010000008940100220160803000101 00000000000000000000000000000000000000000000000000000000000000000000000000000000000000000000000000000000000000000N 00000000000NCONT   00    00000000000          00000000000000000000000000000000000000000000 000000000000000A000000000000000000000000000000000000000000000 000000000000000000000000000000000000000     00000000                                                                                                                        000000000000000000
F0010000008940100003000086003979400042505000000000000000000201608030002001CALYPSO BARRANQUILLA LTDA                         C000000000310000000000000000000000100010010000000000000000000000F0010000008940100320160803000101 00000000000000000000000000000000000000000000000000000000000000000000000000000000000000000000000000000000000000000N 00000000000NCONT   00    00000000000          00000000000000000000000000000000000000000000 000000000000000A000000000000000000000000000000000000000000000 000000000000000000000000000000000000000     00000000                                                                                                                        000000000000000000
F0010000008940100004000086003979400023658300000000000000000201608030002001CALYPSO BARRANQUILLA LTDA                         C000000000010600000000000000000000100010010000000000000000000000F0010000008940100420160803000101 00000000000000000000000000000000000000000000000000000000000000000000000000000000000000000000000000000000000000000N 00000000000NCONT   00    00000000000          00000000000000000000000000000000000000000000 000000000000000A000000000000000000000000000000000000000000000 000000000000000000000000000000000000000     00000000                                                                                                                        000000000000000000
F0010000008940100005000086003979400013552100000000000000000201608030002001CALYPSO BARRANQUILLA LTDA                         D000000000010600000000000000000000100010010000000000000000000000F0010000008940100520160803000101 00000000000000000000000000000000000000000000000000000000000000000000000000000000000000000000000000000000000000000N 00000000000NCONT   00    00000000000          00000000000000000000000000000000000000000000 000000000000000A000000000000000000000000000000000000000000000 000000000000000000000000000000000000000     00000000                                                                                                                        000000000000000000
F0010000008940200001000086003979400011050500000000000000000201608030002001CALYPSO BARRANQUILLA LTDA                         D000000001650000000000000000000000100010010000000000000000000000F0010000008940200120160803000101 00000000000000000000000000000000000000000000000000000000000000000000000000000000000000000000000000000000000000000N 00000000000NCONT   00    00000000000          00000000000000000000000000000000000000000000 000000000000000A000000000000000000000000000000000000000000000 000000000000000000000000000000000000000     00000000                                                                                                                        000000000000000000
F0010000008940200002000086003979400041450500000000000000000201608030002001CALYPSO BARRANQUILLA LTDA                         C000000001320000000000000000000000100010010000000000000000000000F0010000008940200220160803000101 00000000000000000000000000000000000000000000000000000000000000000000000000000000000000000000000000000000000000000N 00000000000NCONT   00    00000000000          00000000000000000000000000000000000000000000 000000000000000A000000000000000000000000000000000000000000000 000000000000000000000000000000000000000     00000000                                                                                                                        000000000000000000
