F0010000008757000001000089011492400013050500000000000000000201606230002001AGE. CAUCHO SOL DE LA COSTA  SAS                  D000000040244800000000000000000000100010010000000000000000000000F0010000008757000120160623000101 00000000000000000000000000000000000000000000000000000000000000000000000000000000000000000000000000000000000000000N 00000000000NCONT   00    00000000000          00000000000000000000000000000000000000000000 000000000000000A000000000000000000000000000000000000000000000 000000000000000000000000000000000000000     00000000                                                                                                                        000000000000000000
F0010000008757000002000089011492400041450500000000000000000201606230002001AGE. CAUCHO SOL DE LA COSTA  SAS                  C000000016000000000000000000000000100010010000000000000000000000F0010000008757000220160623000101 00000000000000000000000000000000000000000000000000000000000000000000000000000000000000000000000000000000000000000N 00000000000NCONT   00    00000000000          00000000000000000000000000000000000000000000 000000000000000A000000000000000000000000000000000000000000000 000000000000000000000000000000000000000     00000000                                                                                                                        000000000000000000
F0010000008757000003000089011492400042505000000000000000000201606230002001AGE. CAUCHO SOL DE LA COSTA  SAS                  C000000024244800000000000000000000100010010000000000000000000000F0010000008757000320160623000101 00000000000000000000000000000000000000000000000000000000000000000000000000000000000000000000000000000000000000000N 00000000000NCONT   00    00000000000          00000000000000000000000000000000000000000000 000000000000000A000000000000000000000000000000000000000000000 000000000000000000000000000000000000000     00000000                                                                                                                        000000000000000000
F0010000008757000004000089011492400023658300000000000000000201606230002001AGE. CAUCHO SOL DE LA COSTA  SAS                  C000000000128000000000000000000000100010010000000000000000000000F0010000008757000420160623000101 00000000000000000000000000000000000000000000000000000000000000000000000000000000000000000000000000000000000000000N 00000000000NCONT   00    00000000000          00000000000000000000000000000000000000000000 000000000000000A000000000000000000000000000000000000000000000 000000000000000000000000000000000000000     00000000                                                                                                                        000000000000000000
F0010000008757000005000089011492400013552100000000000000000201606230002001AGE. CAUCHO SOL DE LA COSTA  SAS                  D000000000128000000000000000000000100010010000000000000000000000F0010000008757000520160623000101 00000000000000000000000000000000000000000000000000000000000000000000000000000000000000000000000000000000000000000N 00000000000NCONT   00    00000000000          00000000000000000000000000000000000000000000 000000000000000A000000000000000000000000000000000000000000000 000000000000000000000000000000000000000     00000000                                                                                                                        000000000000000000
F0010000008757100001000083007900600013050500000000000000000201606230002001EXPRESO ANDINO DE CARGA SA                        D000000009800000000000000000000000100010010000000000000000000000F0010000008757100120160623000101 00000000000000000000000000000000000000000000000000000000000000000000000000000000000000000000000000000000000000000N 00000000000NCONT   00    00000000000          00000000000000000000000000000000000000000000 000000000000000A000000000000000000000000000000000000000000000 000000000000000000000000000000000000000     00000000                                                                                                                        000000000000000000
F0010000008757100002000083007900600041450500000000000000000201606230002001EXPRESO ANDINO DE CARGA SA                        C000000009600000000000000000000000100010010000000000000000000000F0010000008757100220160623000101 00000000000000000000000000000000000000000000000000000000000000000000000000000000000000000000000000000000000000000N 00000000000NCONT   00    00000000000          00000000000000000000000000000000000000000000 000000000000000A000000000000000000000000000000000000000000000 000000000000000000000000000000000000000     00000000                                                                                                                        000000000000000000
F0010000008757100003000083007900600042505000000000000000000201606230002001EXPRESO ANDINO DE CARGA SA                        C000000000200000000000000000000000100010010000000000000000000000F0010000008757100320160623000101 00000000000000000000000000000000000000000000000000000000000000000000000000000000000000000000000000000000000000000N 00000000000NCONT   00    00000000000          00000000000000000000000000000000000000000000 000000000000000A000000000000000000000000000000000000000000000 000000000000000000000000000000000000000     00000000                                                                                                                        000000000000000000
F0010000008757100004000083007900600023658300000000000000000201606230002001EXPRESO ANDINO DE CARGA SA                        C000000000076800000000000000000000100010010000000000000000000000F0010000008757100420160623000101 00000000000000000000000000000000000000000000000000000000000000000000000000000000000000000000000000000000000000000N 00000000000NCONT   00    00000000000          00000000000000000000000000000000000000000000 000000000000000A000000000000000000000000000000000000000000000 000000000000000000000000000000000000000     00000000                                                                                                                        000000000000000000
F0010000008757100005000083007900600013552100000000000000000201606230002001EXPRESO ANDINO DE CARGA SA                        D000000000076800000000000000000000100010010000000000000000000000F0010000008757100520160623000101 00000000000000000000000000000000000000000000000000000000000000000000000000000000000000000000000000000000000000000N 00000000000NCONT   00    00000000000          00000000000000000000000000000000000000000000 000000000000000A000000000000000000000000000000000000000000000 000000000000000000000000000000000000000     00000000                                                                                                                        000000000000000000
F0010000008757200001000080202330500011050500000000000000000201606230002001FERRETERIA NUEVO MILENIO S.A.S                    D000000009000000000000000000000000100010010000000000000000000000F0010000008757200120160623000101 00000000000000000000000000000000000000000000000000000000000000000000000000000000000000000000000000000000000000000N 00000000000NCONT   00    00000000000          00000000000000000000000000000000000000000000 000000000000000A000000000000000000000000000000000000000000000 000000000000000000000000000000000000000     00000000                                                                                                                        000000000000000000
F0010000008757200002000080202330500041450500000000000000000201606230002001FERRETERIA NUEVO MILENIO S.A.S                    C000000008000000000000000000000000100010010000000000000000000000F0010000008757200220160623000101 00000000000000000000000000000000000000000000000000000000000000000000000000000000000000000000000000000000000000000N 00000000000NCONT   00    00000000000          00000000000000000000000000000000000000000000 000000000000000A000000000000000000000000000000000000000000000 000000000000000000000000000000000000000     00000000                                                                                                                        000000000000000000
F0010000008757200003000080202330500042505000000000000000000201606230002001FERRETERIA NUEVO MILENIO S.A.S                    C000000001000000000000000000000000100010010000000000000000000000F0010000008757200320160623000101 00000000000000000000000000000000000000000000000000000000000000000000000000000000000000000000000000000000000000000N 00000000000NCONT   00    00000000000          00000000000000000000000000000000000000000000 000000000000000A000000000000000000000000000000000000000000000 000000000000000000000000000000000000000     00000000                                                                                                                        000000000000000000
F0010000008757200004000080202330500023658300000000000000000201606230002001FERRETERIA NUEVO MILENIO S.A.S                    C000000000064000000000000000000000100010010000000000000000000000F0010000008757200420160623000101 00000000000000000000000000000000000000000000000000000000000000000000000000000000000000000000000000000000000000000N 00000000000NCONT   00    00000000000          00000000000000000000000000000000000000000000 000000000000000A000000000000000000000000000000000000000000000 000000000000000000000000000000000000000     00000000                                                                                                                        000000000000000000
F0010000008757200005000080202330500013552100000000000000000201606230002001FERRETERIA NUEVO MILENIO S.A.S                    D000000000064000000000000000000000100010010000000000000000000000F0010000008757200520160623000101 00000000000000000000000000000000000000000000000000000000000000000000000000000000000000000000000000000000000000000N 00000000000NCONT   00    00000000000          00000000000000000000000000000000000000000000 000000000000000A000000000000000000000000000000000000000000000 000000000000000000000000000000000000000     00000000                                                                                                                        000000000000000000
F0010000008757300001000083011391400013050500000000000000000201606230002001INSTITUCIONAL STAR SERVICES LTDA                  D000000013820000000000000000000000100010010000000000000000000000F0010000008757300120160623000101 00000000000000000000000000000000000000000000000000000000000000000000000000000000000000000000000000000000000000000N 00000000000NCONT   00    00000000000          00000000000000000000000000000000000000000000 000000000000000A000000000000000000000000000000000000000000000 000000000000000000000000000000000000000     00000000                                                                                                                        000000000000000000
F0010000008757300002000083011391400041450500000000000000000201606230002001INSTITUCIONAL STAR SERVICES LTDA                  C000000013120000000000000000000000100010010000000000000000000000F0010000008757300220160623000101 00000000000000000000000000000000000000000000000000000000000000000000000000000000000000000000000000000000000000000N 00000000000NCONT   00    00000000000          00000000000000000000000000000000000000000000 000000000000000A000000000000000000000000000000000000000000000 000000000000000000000000000000000000000     00000000                                                                                                                        000000000000000000
F0010000008757300003000083011391400042505000000000000000000201606230002001INSTITUCIONAL STAR SERVICES LTDA                  C000000000700000000000000000000000100010010000000000000000000000F0010000008757300320160623000101 00000000000000000000000000000000000000000000000000000000000000000000000000000000000000000000000000000000000000000N 00000000000NCONT   00    00000000000          00000000000000000000000000000000000000000000 000000000000000A000000000000000000000000000000000000000000000 000000000000000000000000000000000000000     00000000                                                                                                                        000000000000000000
F0010000008757300004000083011391400023658300000000000000000201606230002001INSTITUCIONAL STAR SERVICES LTDA                  C000000000105000000000000000000000100010010000000000000000000000F0010000008757300420160623000101 00000000000000000000000000000000000000000000000000000000000000000000000000000000000000000000000000000000000000000N 00000000000NCONT   00    00000000000          00000000000000000000000000000000000000000000 000000000000000A000000000000000000000000000000000000000000000 000000000000000000000000000000000000000     00000000                                                                                                                        000000000000000000
F0010000008757300005000083011391400013552100000000000000000201606230002001INSTITUCIONAL STAR SERVICES LTDA                  D000000000105000000000000000000000100010010000000000000000000000F0010000008757300520160623000101 00000000000000000000000000000000000000000000000000000000000000000000000000000000000000000000000000000000000000000N 00000000000NCONT   00    00000000000          00000000000000000000000000000000000000000000 000000000000000A000000000000000000000000000000000000000000000 000000000000000000000000000000000000000     00000000                                                                                                                        000000000000000000
F0010000008757400001000089080176300013050500000000000000000201606230002001SEGAR S.A.                                        D000000106630300000000000000000000100010010000000000000000000000F0010000008757400120160623000101 00000000000000000000000000000000000000000000000000000000000000000000000000000000000000000000000000000000000000000N 00000000000NCONT   00    00000000000          00000000000000000000000000000000000000000000 000000000000000A000000000000000000000000000000000000000000000 000000000000000000000000000000000000000     00000000                                                                                                                        000000000000000000
F0010000008757400002000089080176300041450500000000000000000201606230002001SEGAR S.A.                                        C000000088403500000000000000000000100010010000000000000000000000F0010000008757400220160623000101 00000000000000000000000000000000000000000000000000000000000000000000000000000000000000000000000000000000000000000N 00000000000NCONT   00    00000000000          00000000000000000000000000000000000000000000 000000000000000A000000000000000000000000000000000000000000000 000000000000000000000000000000000000000     00000000                                                                                                                        000000000000000000
F0010000008757400003000089080176300042505000000000000000000201606230002001SEGAR S.A.                                        C000000018226800000000000000000000100010010000000000000000000000F0010000008757400320160623000101 00000000000000000000000000000000000000000000000000000000000000000000000000000000000000000000000000000000000000000N 00000000000NCONT   00    00000000000          00000000000000000000000000000000000000000000 000000000000000A000000000000000000000000000000000000000000000 000000000000000000000000000000000000000     00000000                                                                                                                        000000000000000000
F0010000008757400004000089080176300023658300000000000000000201606230002001SEGAR S.A.                                        C000000000707200000000000000000000100010010000000000000000000000F0010000008757400420160623000101 00000000000000000000000000000000000000000000000000000000000000000000000000000000000000000000000000000000000000000N 00000000000NCONT   00    00000000000          00000000000000000000000000000000000000000000 000000000000000A000000000000000000000000000000000000000000000 000000000000000000000000000000000000000     00000000                                                                                                                        000000000000000000
F0010000008757400005000089080176300013552100000000000000000201606230002001SEGAR S.A.                                        D000000000707200000000000000000000100010010000000000000000000000F0010000008757400520160623000101 00000000000000000000000000000000000000000000000000000000000000000000000000000000000000000000000000000000000000000N 00000000000NCONT   00    00000000000          00000000000000000000000000000000000000000000 000000000000000A000000000000000000000000000000000000000000000 000000000000000000000000000000000000000     00000000                                                                                                                        000000000000000000
F0010000008757500001000080200962900013050500000000000000000201606230002001ACERO & MALLAS S.A.S.                             D000000006474800000000000000000000100010010000000000000000000000F0010000008757500120160623000101 00000000000000000000000000000000000000000000000000000000000000000000000000000000000000000000000000000000000000000N 00000000000NCONT   00    00000000000          00000000000000000000000000000000000000000000 000000000000000A000000000000000000000000000000000000000000000 000000000000000000000000000000000000000     00000000                                                                                                                        000000000000000000
F0010000008757500002000080200962900041450500000000000000000201606230002001ACERO & MALLAS S.A.S.                             C000000003990000000000000000000000100010010000000000000000000000F0010000008757500220160623000101 00000000000000000000000000000000000000000000000000000000000000000000000000000000000000000000000000000000000000000N 00000000000NCONT   00    00000000000          00000000000000000000000000000000000000000000 000000000000000A000000000000000000000000000000000000000000000 000000000000000000000000000000000000000     00000000                                                                                                                        000000000000000000
F0010000008757500003000080200962900042505000000000000000000201606230002001ACERO & MALLAS S.A.S.                             C000000002484800000000000000000000100010010000000000000000000000F0010000008757500320160623000101 00000000000000000000000000000000000000000000000000000000000000000000000000000000000000000000000000000000000000000N 00000000000NCONT   00    00000000000          00000000000000000000000000000000000000000000 000000000000000A000000000000000000000000000000000000000000000 000000000000000000000000000000000000000     00000000                                                                                                                        000000000000000000
F0010000008757500004000080200962900023658300000000000000000201606230002001ACERO & MALLAS S.A.S.                             C000000000031900000000000000000000100010010000000000000000000000F0010000008757500420160623000101 00000000000000000000000000000000000000000000000000000000000000000000000000000000000000000000000000000000000000000N 00000000000NCONT   00    00000000000          00000000000000000000000000000000000000000000 000000000000000A000000000000000000000000000000000000000000000 000000000000000000000000000000000000000     00000000                                                                                                                        000000000000000000
F0010000008757500005000080200962900013552100000000000000000201606230002001ACERO & MALLAS S.A.S.                             D000000000031900000000000000000000100010010000000000000000000000F0010000008757500520160623000101 00000000000000000000000000000000000000000000000000000000000000000000000000000000000000000000000000000000000000000N 00000000000NCONT   00    00000000000          00000000000000000000000000000000000000000000 000000000000000A000000000000000000000000000000000000000000000 000000000000000000000000000000000000000     00000000                                                                                                                        000000000000000000
F0010000008757600001000080016665600013050500000000000000000201606230002001SUMICAL DE ANTIOQUIA S.A.S                        D000000017744900000000000000000000100010010000000000000000000000F0010000008757600120160623000101 00000000000000000000000000000000000000000000000000000000000000000000000000000000000000000000000000000000000000000N 00000000000NCONT   00    00000000000          00000000000000000000000000000000000000000000 000000000000000A000000000000000000000000000000000000000000000 000000000000000000000000000000000000000     00000000                                                                                                                        000000000000000000
F0010000008757600002000080016665600041450500000000000000000201606230002001SUMICAL DE ANTIOQUIA S.A.S                        C000000014260000000000000000000000100010010000000000000000000000F0010000008757600220160623000101 00000000000000000000000000000000000000000000000000000000000000000000000000000000000000000000000000000000000000000N 00000000000NCONT   00    00000000000          00000000000000000000000000000000000000000000 000000000000000A000000000000000000000000000000000000000000000 000000000000000000000000000000000000000     00000000                                                                                                                        000000000000000000
F0010000008757600003000080016665600042505000000000000000000201606230002001SUMICAL DE ANTIOQUIA S.A.S                        C000000003484900000000000000000000100010010000000000000000000000F0010000008757600320160623000101 00000000000000000000000000000000000000000000000000000000000000000000000000000000000000000000000000000000000000000N 00000000000NCONT   00    00000000000          00000000000000000000000000000000000000000000 000000000000000A000000000000000000000000000000000000000000000 000000000000000000000000000000000000000     00000000                                                                                                                        000000000000000000
F0010000008757600004000080016665600023658300000000000000000201606230002001SUMICAL DE ANTIOQUIA S.A.S                        C000000000114100000000000000000000100010010000000000000000000000F0010000008757600420160623000101 00000000000000000000000000000000000000000000000000000000000000000000000000000000000000000000000000000000000000000N 00000000000NCONT   00    00000000000          00000000000000000000000000000000000000000000 000000000000000A000000000000000000000000000000000000000000000 000000000000000000000000000000000000000     00000000                                                                                                                        000000000000000000
F0010000008757600005000080016665600013552100000000000000000201606230002001SUMICAL DE ANTIOQUIA S.A.S                        D000000000114100000000000000000000100010010000000000000000000000F0010000008757600520160623000101 00000000000000000000000000000000000000000000000000000000000000000000000000000000000000000000000000000000000000000N 00000000000NCONT   00    00000000000          00000000000000000000000000000000000000000000 000000000000000A000000000000000000000000000000000000000000000 000000000000000000000000000000000000000     00000000                                                                                                                        000000000000000000
F0010000008757700001000089070997800013050500000000000000000201606230002001CENTRAL DE TORNILLOS                              D000000016910000000000000000000000100010010000000000000000000000F0010000008757700120160623000101 00000000000000000000000000000000000000000000000000000000000000000000000000000000000000000000000000000000000000000N 00000000000NCONT   00    00000000000          00000000000000000000000000000000000000000000 000000000000000A000000000000000000000000000000000000000000000 000000000000000000000000000000000000000     00000000                                                                                                                        000000000000000000
F0010000008757700002000089070997800041450500000000000000000201606230002001CENTRAL DE TORNILLOS                              C000000015510000000000000000000000100010010000000000000000000000F0010000008757700220160623000101 00000000000000000000000000000000000000000000000000000000000000000000000000000000000000000000000000000000000000000N 00000000000NCONT   00    00000000000          00000000000000000000000000000000000000000000 000000000000000A000000000000000000000000000000000000000000000 000000000000000000000000000000000000000     00000000                                                                                                                        000000000000000000
F0010000008757700003000089070997800042505000000000000000000201606230002001CENTRAL DE TORNILLOS                              C000000001400000000000000000000000100010010000000000000000000000F0010000008757700320160623000101 00000000000000000000000000000000000000000000000000000000000000000000000000000000000000000000000000000000000000000N 00000000000NCONT   00    00000000000          00000000000000000000000000000000000000000000 000000000000000A000000000000000000000000000000000000000000000 000000000000000000000000000000000000000     00000000                                                                                                                        000000000000000000
F0010000008757700004000089070997800023658300000000000000000201606230002001CENTRAL DE TORNILLOS                              C000000000124100000000000000000000100010010000000000000000000000F0010000008757700420160623000101 00000000000000000000000000000000000000000000000000000000000000000000000000000000000000000000000000000000000000000N 00000000000NCONT   00    00000000000          00000000000000000000000000000000000000000000 000000000000000A000000000000000000000000000000000000000000000 000000000000000000000000000000000000000     00000000                                                                                                                        000000000000000000
F0010000008757700005000089070997800013552100000000000000000201606230002001CENTRAL DE TORNILLOS                              D000000000124100000000000000000000100010010000000000000000000000F0010000008757700520160623000101 00000000000000000000000000000000000000000000000000000000000000000000000000000000000000000000000000000000000000000N 00000000000NCONT   00    00000000000          00000000000000000000000000000000000000000000 000000000000000A000000000000000000000000000000000000000000000 000000000000000000000000000000000000000     00000000                                                                                                                        000000000000000000
F0010000008757800001000090002525100013050500000000000000000201606230002001VINILOS Y PEGANTES                                D000000005148800000000000000000000100010010000000000000000000000F0010000008757800120160623000101 00000000000000000000000000000000000000000000000000000000000000000000000000000000000000000000000000000000000000000N 00000000000NCONT   00    00000000000          00000000000000000000000000000000000000000000 000000000000000A000000000000000000000000000000000000000000000 000000000000000000000000000000000000000     00000000                                                                                                                        000000000000000000
F0010000008757800002000090002525100041450500000000000000000201606230002001VINILOS Y PEGANTES                                C000000004360000000000000000000000100010010000000000000000000000F0010000008757800220160623000101 00000000000000000000000000000000000000000000000000000000000000000000000000000000000000000000000000000000000000000N 00000000000NCONT   00    00000000000          00000000000000000000000000000000000000000000 000000000000000A000000000000000000000000000000000000000000000 000000000000000000000000000000000000000     00000000                                                                                                                        000000000000000000
F0010000008757800003000090002525100042505000000000000000000201606230002001VINILOS Y PEGANTES                                C000000000788800000000000000000000100010010000000000000000000000F0010000008757800320160623000101 00000000000000000000000000000000000000000000000000000000000000000000000000000000000000000000000000000000000000000N 00000000000NCONT   00    00000000000          00000000000000000000000000000000000000000000 000000000000000A000000000000000000000000000000000000000000000 000000000000000000000000000000000000000     00000000                                                                                                                        000000000000000000
F0010000008757800004000090002525100023658300000000000000000201606230002001VINILOS Y PEGANTES                                C000000000034900000000000000000000100010010000000000000000000000F0010000008757800420160623000101 00000000000000000000000000000000000000000000000000000000000000000000000000000000000000000000000000000000000000000N 00000000000NCONT   00    00000000000          00000000000000000000000000000000000000000000 000000000000000A000000000000000000000000000000000000000000000 000000000000000000000000000000000000000     00000000                                                                                                                        000000000000000000
F0010000008757800005000090002525100013552100000000000000000201606230002001VINILOS Y PEGANTES                                D000000000034900000000000000000000100010010000000000000000000000F0010000008757800520160623000101 00000000000000000000000000000000000000000000000000000000000000000000000000000000000000000000000000000000000000000N 00000000000NCONT   00    00000000000          00000000000000000000000000000000000000000000 000000000000000A000000000000000000000000000000000000000000000 000000000000000000000000000000000000000     00000000                                                                                                                        000000000000000000
F0010000008757900001000007215983800013050500000000000000000201606230002001INDUSTRIA  LAFERBE                                D000000001360000000000000000000000100010010000000000000000000000F0010000008757900120160623000101 00000000000000000000000000000000000000000000000000000000000000000000000000000000000000000000000000000000000000000N 00000000000NCONT   00    00000000000          00000000000000000000000000000000000000000000 000000000000000A000000000000000000000000000000000000000000000 000000000000000000000000000000000000000     00000000                                                                                                                        000000000000000000
F0010000008757900002000007215983800041450500000000000000000201606230002001INDUSTRIA  LAFERBE                                C000000001240000000000000000000000100010010000000000000000000000F0010000008757900220160623000101 00000000000000000000000000000000000000000000000000000000000000000000000000000000000000000000000000000000000000000N 00000000000NCONT   00    00000000000          00000000000000000000000000000000000000000000 000000000000000A000000000000000000000000000000000000000000000 000000000000000000000000000000000000000     00000000                                                                                                                        000000000000000000
F0010000008757900003000007215983800042505000000000000000000201606230002001INDUSTRIA  LAFERBE                                C000000000120000000000000000000000100010010000000000000000000000F0010000008757900320160623000101 00000000000000000000000000000000000000000000000000000000000000000000000000000000000000000000000000000000000000000N 00000000000NCONT   00    00000000000          00000000000000000000000000000000000000000000 000000000000000A000000000000000000000000000000000000000000000 000000000000000000000000000000000000000     00000000                                                                                                                        000000000000000000
F0010000008757900004000007215983800023658300000000000000000201606230002001INDUSTRIA  LAFERBE                                C000000000009900000000000000000000100010010000000000000000000000F0010000008757900420160623000101 00000000000000000000000000000000000000000000000000000000000000000000000000000000000000000000000000000000000000000N 00000000000NCONT   00    00000000000          00000000000000000000000000000000000000000000 000000000000000A000000000000000000000000000000000000000000000 000000000000000000000000000000000000000     00000000                                                                                                                        000000000000000000
F0010000008757900005000007215983800013552100000000000000000201606230002001INDUSTRIA  LAFERBE                                D000000000009900000000000000000000100010010000000000000000000000F0010000008757900520160623000101 00000000000000000000000000000000000000000000000000000000000000000000000000000000000000000000000000000000000000000N 00000000000NCONT   00    00000000000          00000000000000000000000000000000000000000000 000000000000000A000000000000000000000000000000000000000000000 000000000000000000000000000000000000000     00000000                                                                                                                        000000000000000000
F0010000008758000001000000376399500013050500000000000000000201606230002001FORDPLAST                                         D000000007270000000000000000000000100010010000000000000000000000F0010000008758000120160623000101 00000000000000000000000000000000000000000000000000000000000000000000000000000000000000000000000000000000000000000N 00000000000NCONT   00    00000000000          00000000000000000000000000000000000000000000 000000000000000A000000000000000000000000000000000000000000000 000000000000000000000000000000000000000     00000000                                                                                                                        000000000000000000
F0010000008758000002000000376399500041450500000000000000000201606230002001FORDPLAST                                         C000000005920000000000000000000000100010010000000000000000000000F0010000008758000220160623000101 00000000000000000000000000000000000000000000000000000000000000000000000000000000000000000000000000000000000000000N 00000000000NCONT   00    00000000000          00000000000000000000000000000000000000000000 000000000000000A000000000000000000000000000000000000000000000 000000000000000000000000000000000000000     00000000                                                                                                                        000000000000000000
F0010000008758000003000000376399500042505000000000000000000201606230002001FORDPLAST                                         C000000001350000000000000000000000100010010000000000000000000000F0010000008758000320160623000101 00000000000000000000000000000000000000000000000000000000000000000000000000000000000000000000000000000000000000000N 00000000000NCONT   00    00000000000          00000000000000000000000000000000000000000000 000000000000000A000000000000000000000000000000000000000000000 000000000000000000000000000000000000000     00000000                                                                                                                        000000000000000000
F0010000008758000004000000376399500023658300000000000000000201606230002001FORDPLAST                                         C000000000047400000000000000000000100010010000000000000000000000F0010000008758000420160623000101 00000000000000000000000000000000000000000000000000000000000000000000000000000000000000000000000000000000000000000N 00000000000NCONT   00    00000000000          00000000000000000000000000000000000000000000 000000000000000A000000000000000000000000000000000000000000000 000000000000000000000000000000000000000     00000000                                                                                                                        000000000000000000
F0010000008758000005000000376399500013552100000000000000000201606230002001FORDPLAST                                         D000000000047400000000000000000000100010010000000000000000000000F0010000008758000520160623000101 00000000000000000000000000000000000000000000000000000000000000000000000000000000000000000000000000000000000000000N 00000000000NCONT   00    00000000000          00000000000000000000000000000000000000000000 000000000000000A000000000000000000000000000000000000000000000 000000000000000000000000000000000000000     00000000                                                                                                                        000000000000000000
F0010000008758100001000080201601700013050500000000000000000201606230002001PLASTICOS SUPERIOR S.A.                           D000000009407300000000000000000000100010010000000000000000000000F0010000008758100120160623000101 00000000000000000000000000000000000000000000000000000000000000000000000000000000000000000000000000000000000000000N 00000000000NCONT   00    00000000000          00000000000000000000000000000000000000000000 000000000000000A000000000000000000000000000000000000000000000 000000000000000000000000000000000000000     00000000                                                                                                                        000000000000000000
F0010000008758100002000080201601700041450500000000000000000201606230002001PLASTICOS SUPERIOR S.A.                           C000000005940000000000000000000000100010010000000000000000000000F0010000008758100220160623000101 00000000000000000000000000000000000000000000000000000000000000000000000000000000000000000000000000000000000000000N 00000000000NCONT   00    00000000000          00000000000000000000000000000000000000000000 000000000000000A000000000000000000000000000000000000000000000 000000000000000000000000000000000000000     00000000                                                                                                                        000000000000000000
F0010000008758100003000080201601700042505000000000000000000201606230002001PLASTICOS SUPERIOR S.A.                           C000000003467300000000000000000000100010010000000000000000000000F0010000008758100320160623000101 00000000000000000000000000000000000000000000000000000000000000000000000000000000000000000000000000000000000000000N 00000000000NCONT   00    00000000000          00000000000000000000000000000000000000000000 000000000000000A000000000000000000000000000000000000000000000 000000000000000000000000000000000000000     00000000                                                                                                                        000000000000000000
F0010000008758100004000080201601700023658300000000000000000201606230002001PLASTICOS SUPERIOR S.A.                           C000000000047500000000000000000000100010010000000000000000000000F0010000008758100420160623000101 00000000000000000000000000000000000000000000000000000000000000000000000000000000000000000000000000000000000000000N 00000000000NCONT   00    00000000000          00000000000000000000000000000000000000000000 000000000000000A000000000000000000000000000000000000000000000 000000000000000000000000000000000000000     00000000                                                                                                                        000000000000000000
F0010000008758100005000080201601700013552100000000000000000201606230002001PLASTICOS SUPERIOR S.A.                           D000000000047500000000000000000000100010010000000000000000000000F0010000008758100520160623000101 00000000000000000000000000000000000000000000000000000000000000000000000000000000000000000000000000000000000000000N 00000000000NCONT   00    00000000000          00000000000000000000000000000000000000000000 000000000000000A000000000000000000000000000000000000000000000 000000000000000000000000000000000000000     00000000                                                                                                                        000000000000000000
F0010000008758200001000090059316900013050500000000000000000201606230002001DISTRIBUCIONES Y REPRESENTACIONES MANA            D000000009490600000000000000000000100010010000000000000000000000F0010000008758200120160623000101 00000000000000000000000000000000000000000000000000000000000000000000000000000000000000000000000000000000000000000N 00000000000NCONT   00    00000000000          00000000000000000000000000000000000000000000 000000000000000A000000000000000000000000000000000000000000000 000000000000000000000000000000000000000     00000000                                                                                                                        000000000000000000
F0010000008758200002000090059316900041450500000000000000000201606230002001DISTRIBUCIONES Y REPRESENTACIONES MANA            C000000007623600000000000000000000100010010000000000000000000000F0010000008758200220160623000101 00000000000000000000000000000000000000000000000000000000000000000000000000000000000000000000000000000000000000000N 00000000000NCONT   00    00000000000          00000000000000000000000000000000000000000000 000000000000000A000000000000000000000000000000000000000000000 000000000000000000000000000000000000000     00000000                                                                                                                        000000000000000000
F0010000008758200003000090059316900042505000000000000000000201606230002001DISTRIBUCIONES Y REPRESENTACIONES MANA            C000000001867000000000000000000000100010010000000000000000000000F0010000008758200320160623000101 00000000000000000000000000000000000000000000000000000000000000000000000000000000000000000000000000000000000000000N 00000000000NCONT   00    00000000000          00000000000000000000000000000000000000000000 000000000000000A000000000000000000000000000000000000000000000 000000000000000000000000000000000000000     00000000                                                                                                                        000000000000000000
F0010000008758200004000090059316900023658300000000000000000201606230002001DISTRIBUCIONES Y REPRESENTACIONES MANA            C000000000061000000000000000000000100010010000000000000000000000F0010000008758200420160623000101 00000000000000000000000000000000000000000000000000000000000000000000000000000000000000000000000000000000000000000N 00000000000NCONT   00    00000000000          00000000000000000000000000000000000000000000 000000000000000A000000000000000000000000000000000000000000000 000000000000000000000000000000000000000     00000000                                                                                                                        000000000000000000
F0010000008758200005000090059316900013552100000000000000000201606230002001DISTRIBUCIONES Y REPRESENTACIONES MANA            D000000000061000000000000000000000100010010000000000000000000000F0010000008758200520160623000101 00000000000000000000000000000000000000000000000000000000000000000000000000000000000000000000000000000000000000000N 00000000000NCONT   00    00000000000          00000000000000000000000000000000000000000000 000000000000000A000000000000000000000000000000000000000000000 000000000000000000000000000000000000000     00000000                                                                                                                        000000000000000000
F0010000008758300001000000870907300013050500000000000000000201606230002001SURTIDOR FERRETERO                                D000000061155000000000000000000000100010010000000000000000000000F0010000008758300120160623000101 00000000000000000000000000000000000000000000000000000000000000000000000000000000000000000000000000000000000000000N 00000000000NCONT   00    00000000000          00000000000000000000000000000000000000000000 000000000000000A000000000000000000000000000000000000000000000 000000000000000000000000000000000000000     00000000                                                                                                                        000000000000000000
F0010000008758300002000000870907300041450500000000000000000201606230002001SURTIDOR FERRETERO                                C000000050494500000000000000000000100010010000000000000000000000F0010000008758300220160623000101 00000000000000000000000000000000000000000000000000000000000000000000000000000000000000000000000000000000000000000N 00000000000NCONT   00    00000000000          00000000000000000000000000000000000000000000 000000000000000A000000000000000000000000000000000000000000000 000000000000000000000000000000000000000     00000000                                                                                                                        000000000000000000
F0010000008758300003000000870907300041750100000000000000000201606230002001SURTIDOR FERRETERO                                D000000005049500000000000000000000100010010000000000000000000000F0010000008758300320160623000101 00000000000000000000000000000000000000000000000000000000000000000000000000000000000000000000000000000000000000000N 00000000000NCONT   00    00000000000          00000000000000000000000000000000000000000000 000000000000000A000000000000000000000000000000000000000000000 000000000000000000000000000000000000000     00000000                                                                                                                        000000000000000000
F0010000008758300004000000870907300042505000000000000000000201606230002001SURTIDOR FERRETERO                                C000000015710000000000000000000000100010010000000000000000000000F0010000008758300420160623000101 00000000000000000000000000000000000000000000000000000000000000000000000000000000000000000000000000000000000000000N 00000000000NCONT   00    00000000000          00000000000000000000000000000000000000000000 000000000000000A000000000000000000000000000000000000000000000 000000000000000000000000000000000000000     00000000                                                                                                                        000000000000000000
F0010000008758300005000000870907300023658300000000000000000201606230002001SURTIDOR FERRETERO                                C000000000404000000000000000000000100010010000000000000000000000F0010000008758300520160623000101 00000000000000000000000000000000000000000000000000000000000000000000000000000000000000000000000000000000000000000N 00000000000NCONT   00    00000000000          00000000000000000000000000000000000000000000 000000000000000A000000000000000000000000000000000000000000000 000000000000000000000000000000000000000     00000000                                                                                                                        000000000000000000
F0010000008758300006000000870907300013552100000000000000000201606230002001SURTIDOR FERRETERO                                D000000000404000000000000000000000100010010000000000000000000000F0010000008758300620160623000101 00000000000000000000000000000000000000000000000000000000000000000000000000000000000000000000000000000000000000000N 00000000000NCONT   00    00000000000          00000000000000000000000000000000000000000000 000000000000000A000000000000000000000000000000000000000000000 000000000000000000000000000000000000000     00000000                                                                                                                        000000000000000000
F0010000008758400001000089010260300013050500000000000000000201606230002001FEDERICO OSORIO A. S.A.                           D000000121794500000000000000000000100010010000000000000000000000F0010000008758400120160623000101 00000000000000000000000000000000000000000000000000000000000000000000000000000000000000000000000000000000000000000N 00000000000NCONT   00    00000000000          00000000000000000000000000000000000000000000 000000000000000A000000000000000000000000000000000000000000000 000000000000000000000000000000000000000     00000000                                                                                                                        000000000000000000
F0010000008758400002000089010260300041450500000000000000000201606230002001FEDERICO OSORIO A. S.A.                           C000000116400000000000000000000000100010010000000000000000000000F0010000008758400220160623000101 00000000000000000000000000000000000000000000000000000000000000000000000000000000000000000000000000000000000000000N 00000000000NCONT   00    00000000000          00000000000000000000000000000000000000000000 000000000000000A000000000000000000000000000000000000000000000 000000000000000000000000000000000000000     00000000                                                                                                                        000000000000000000
F0010000008758400003000089010260300042505000000000000000000201606230002001FEDERICO OSORIO A. S.A.                           C000000005394500000000000000000000100010010000000000000000000000F0010000008758400320160623000101 00000000000000000000000000000000000000000000000000000000000000000000000000000000000000000000000000000000000000000N 00000000000NCONT   00    00000000000          00000000000000000000000000000000000000000000 000000000000000A000000000000000000000000000000000000000000000 000000000000000000000000000000000000000     00000000                                                                                                                        000000000000000000
F0010000008758400004000089010260300023658300000000000000000201606230002001FEDERICO OSORIO A. S.A.                           C000000000931200000000000000000000100010010000000000000000000000F0010000008758400420160623000101 00000000000000000000000000000000000000000000000000000000000000000000000000000000000000000000000000000000000000000N 00000000000NCONT   00    00000000000          00000000000000000000000000000000000000000000 000000000000000A000000000000000000000000000000000000000000000 000000000000000000000000000000000000000     00000000                                                                                                                        000000000000000000
F0010000008758400005000089010260300013552100000000000000000201606230002001FEDERICO OSORIO A. S.A.                           D000000000931200000000000000000000100010010000000000000000000000F0010000008758400520160623000101 00000000000000000000000000000000000000000000000000000000000000000000000000000000000000000000000000000000000000000N 00000000000NCONT   00    00000000000          00000000000000000000000000000000000000000000 000000000000000A000000000000000000000000000000000000000000000 000000000000000000000000000000000000000     00000000                                                                                                                        000000000000000000
F0010000008758500001000080201112800013050500000000000000000201606230002001CANGURO INTERNATIONAL S.A.                        D000000185414700000000000000000000100010010000000000000000000000F0010000008758500120160623000101 00000000000000000000000000000000000000000000000000000000000000000000000000000000000000000000000000000000000000000N 00000000000NCONT   00    00000000000          00000000000000000000000000000000000000000000 000000000000000A000000000000000000000000000000000000000000000 000000000000000000000000000000000000000     00000000                                                                                                                        000000000000000000
F0010000008758500002000080201112800041450500000000000000000201606230002001CANGURO INTERNATIONAL S.A.                        C000000174792700000000000000000000100010010000000000000000000000F0010000008758500220160623000101 00000000000000000000000000000000000000000000000000000000000000000000000000000000000000000000000000000000000000000N 00000000000NCONT   00    00000000000          00000000000000000000000000000000000000000000 000000000000000A000000000000000000000000000000000000000000000 000000000000000000000000000000000000000     00000000                                                                                                                        000000000000000000
F0010000008758500003000080201112800042505000000000000000000201606230002001CANGURO INTERNATIONAL S.A.                        C000000010622000000000000000000000100010010000000000000000000000F0010000008758500320160623000101 00000000000000000000000000000000000000000000000000000000000000000000000000000000000000000000000000000000000000000N 00000000000NCONT   00    00000000000          00000000000000000000000000000000000000000000 000000000000000A000000000000000000000000000000000000000000000 000000000000000000000000000000000000000     00000000                                                                                                                        000000000000000000
F0010000008758500004000080201112800023658300000000000000000201606230002001CANGURO INTERNATIONAL S.A.                        C000000001398300000000000000000000100010010000000000000000000000F0010000008758500420160623000101 00000000000000000000000000000000000000000000000000000000000000000000000000000000000000000000000000000000000000000N 00000000000NCONT   00    00000000000          00000000000000000000000000000000000000000000 000000000000000A000000000000000000000000000000000000000000000 000000000000000000000000000000000000000     00000000                                                                                                                        000000000000000000
F0010000008758500005000080201112800013552100000000000000000201606230002001CANGURO INTERNATIONAL S.A.                        D000000001398300000000000000000000100010010000000000000000000000F0010000008758500520160623000101 00000000000000000000000000000000000000000000000000000000000000000000000000000000000000000000000000000000000000000N 00000000000NCONT   00    00000000000          00000000000000000000000000000000000000000000 000000000000000A000000000000000000000000000000000000000000000 000000000000000000000000000000000000000     00000000                                                                                                                        000000000000000000
F0010000008758600001000080201112800013050500000000000000000201606230002001CANGURO INTERNATIONAL S.A.                        D000000026576700000000000000000000100010010000000000000000000000F0010000008758600120160623000101 00000000000000000000000000000000000000000000000000000000000000000000000000000000000000000000000000000000000000000N 00000000000NCONT   00    00000000000          00000000000000000000000000000000000000000000 000000000000000A000000000000000000000000000000000000000000000 000000000000000000000000000000000000000     00000000                                                                                                                        000000000000000000
F0010000008758600002000080201112800041450500000000000000000201606230002001CANGURO INTERNATIONAL S.A.                        C000000026576700000000000000000000100010010000000000000000000000F0010000008758600220160623000101 00000000000000000000000000000000000000000000000000000000000000000000000000000000000000000000000000000000000000000N 00000000000NCONT   00    00000000000          00000000000000000000000000000000000000000000 000000000000000A000000000000000000000000000000000000000000000 000000000000000000000000000000000000000     00000000                                                                                                                        000000000000000000
F0010000008758600003000080201112800042505000000000000000000201606230002001CANGURO INTERNATIONAL S.A.                        C000000000000000000000000000000000100010010000000000000000000000F0010000008758600320160623000101 00000000000000000000000000000000000000000000000000000000000000000000000000000000000000000000000000000000000000000N 00000000000NCONT   00    00000000000          00000000000000000000000000000000000000000000 000000000000000A000000000000000000000000000000000000000000000 000000000000000000000000000000000000000     00000000                                                                                                                        000000000000000000
F0010000008758600004000080201112800023658300000000000000000201606230002001CANGURO INTERNATIONAL S.A.                        C000000000212600000000000000000000100010010000000000000000000000F0010000008758600420160623000101 00000000000000000000000000000000000000000000000000000000000000000000000000000000000000000000000000000000000000000N 00000000000NCONT   00    00000000000          00000000000000000000000000000000000000000000 000000000000000A000000000000000000000000000000000000000000000 000000000000000000000000000000000000000     00000000                                                                                                                        000000000000000000
F0010000008758600005000080201112800013552100000000000000000201606230002001CANGURO INTERNATIONAL S.A.                        D000000000212600000000000000000000100010010000000000000000000000F0010000008758600520160623000101 00000000000000000000000000000000000000000000000000000000000000000000000000000000000000000000000000000000000000000N 00000000000NCONT   00    00000000000          00000000000000000000000000000000000000000000 000000000000000A000000000000000000000000000000000000000000000 000000000000000000000000000000000000000     00000000                                                                                                                        000000000000000000
F0010000008758700001000090064982900013050500000000000000000201606230002001DISDIES S.A.S                                     D000000021412900000000000000000000100010010000000000000000000000F0010000008758700120160623000101 00000000000000000000000000000000000000000000000000000000000000000000000000000000000000000000000000000000000000000N 00000000000NCONT   00    00000000000          00000000000000000000000000000000000000000000 000000000000000A000000000000000000000000000000000000000000000 000000000000000000000000000000000000000     00000000                                                                                                                        000000000000000000
F0010000008758700002000090064982900041450500000000000000000201606230002001DISDIES S.A.S                                     C000000018512900000000000000000000100010010000000000000000000000F0010000008758700220160623000101 00000000000000000000000000000000000000000000000000000000000000000000000000000000000000000000000000000000000000000N 00000000000NCONT   00    00000000000          00000000000000000000000000000000000000000000 000000000000000A000000000000000000000000000000000000000000000 000000000000000000000000000000000000000     00000000                                                                                                                        000000000000000000
F0010000008758700003000090064982900042505000000000000000000201606230002001DISDIES S.A.S                                     C000000002900000000000000000000000100010010000000000000000000000F0010000008758700320160623000101 00000000000000000000000000000000000000000000000000000000000000000000000000000000000000000000000000000000000000000N 00000000000NCONT   00    00000000000          00000000000000000000000000000000000000000000 000000000000000A000000000000000000000000000000000000000000000 000000000000000000000000000000000000000     00000000                                                                                                                        000000000000000000
F0010000008758700004000090064982900023658300000000000000000201606230002001DISDIES S.A.S                                     C000000000148100000000000000000000100010010000000000000000000000F0010000008758700420160623000101 00000000000000000000000000000000000000000000000000000000000000000000000000000000000000000000000000000000000000000N 00000000000NCONT   00    00000000000          00000000000000000000000000000000000000000000 000000000000000A000000000000000000000000000000000000000000000 000000000000000000000000000000000000000     00000000                                                                                                                        000000000000000000
F0010000008758700005000090064982900013552100000000000000000201606230002001DISDIES S.A.S                                     D000000000148100000000000000000000100010010000000000000000000000F0010000008758700520160623000101 00000000000000000000000000000000000000000000000000000000000000000000000000000000000000000000000000000000000000000N 00000000000NCONT   00    00000000000          00000000000000000000000000000000000000000000 000000000000000A000000000000000000000000000000000000000000000 000000000000000000000000000000000000000     00000000                                                                                                                        000000000000000000
F0010000008758800001000080202094000013050500000000000000000201606230002001DISTRIB. OMAR ORREGO S.A.                         D000000069528100000000000000000000100010010000000000000000000000F0010000008758800120160623000101 00000000000000000000000000000000000000000000000000000000000000000000000000000000000000000000000000000000000000000N 00000000000NCONT   00    00000000000          00000000000000000000000000000000000000000000 000000000000000A000000000000000000000000000000000000000000000 000000000000000000000000000000000000000     00000000                                                                                                                        000000000000000000
F0010000008758800002000080202094000041450500000000000000000201606230002001DISTRIB. OMAR ORREGO S.A.                         C000000043770000000000000000000000100010010000000000000000000000F0010000008758800220160623000101 00000000000000000000000000000000000000000000000000000000000000000000000000000000000000000000000000000000000000000N 00000000000NCONT   00    00000000000          00000000000000000000000000000000000000000000 000000000000000A000000000000000000000000000000000000000000000 000000000000000000000000000000000000000     00000000                                                                                                                        000000000000000000
F0010000008758800003000080202094000042505000000000000000000201606230002001DISTRIB. OMAR ORREGO S.A.                         C000000025758100000000000000000000100010010000000000000000000000F0010000008758800320160623000101 00000000000000000000000000000000000000000000000000000000000000000000000000000000000000000000000000000000000000000N 00000000000NCONT   00    00000000000          00000000000000000000000000000000000000000000 000000000000000A000000000000000000000000000000000000000000000 000000000000000000000000000000000000000     00000000                                                                                                                        000000000000000000
F0010000008758800004000080202094000023658300000000000000000201606230002001DISTRIB. OMAR ORREGO S.A.                         C000000000350200000000000000000000100010010000000000000000000000F0010000008758800420160623000101 00000000000000000000000000000000000000000000000000000000000000000000000000000000000000000000000000000000000000000N 00000000000NCONT   00    00000000000          00000000000000000000000000000000000000000000 000000000000000A000000000000000000000000000000000000000000000 000000000000000000000000000000000000000     00000000                                                                                                                        000000000000000000
F0010000008758800005000080202094000013552100000000000000000201606230002001DISTRIB. OMAR ORREGO S.A.                         D000000000350200000000000000000000100010010000000000000000000000F0010000008758800520160623000101 00000000000000000000000000000000000000000000000000000000000000000000000000000000000000000000000000000000000000000N 00000000000NCONT   00    00000000000          00000000000000000000000000000000000000000000 000000000000000A000000000000000000000000000000000000000000000 000000000000000000000000000000000000000     00000000                                                                                                                        000000000000000000
F0010000008758900001000080004943800013050500000000000000000201606230002001PAPELERIA EL CID S.A.                             D000000019490000000000000000000000100010010000000000000000000000F0010000008758900120160623000101 00000000000000000000000000000000000000000000000000000000000000000000000000000000000000000000000000000000000000000N 00000000000NCONT   00    00000000000          00000000000000000000000000000000000000000000 000000000000000A000000000000000000000000000000000000000000000 000000000000000000000000000000000000000     00000000                                                                                                                        000000000000000000
F0010000008758900002000080004943800041450500000000000000000201606230002001PAPELERIA EL CID S.A.                             C000000014960000000000000000000000100010010000000000000000000000F0010000008758900220160623000101 00000000000000000000000000000000000000000000000000000000000000000000000000000000000000000000000000000000000000000N 00000000000NCONT   00    00000000000          00000000000000000000000000000000000000000000 000000000000000A000000000000000000000000000000000000000000000 000000000000000000000000000000000000000     00000000                                                                                                                        000000000000000000
F0010000008758900003000080004943800042505000000000000000000201606230002001PAPELERIA EL CID S.A.                             C000000004530000000000000000000000100010010000000000000000000000F0010000008758900320160623000101 00000000000000000000000000000000000000000000000000000000000000000000000000000000000000000000000000000000000000000N 00000000000NCONT   00    00000000000          00000000000000000000000000000000000000000000 000000000000000A000000000000000000000000000000000000000000000 000000000000000000000000000000000000000     00000000                                                                                                                        000000000000000000
F0010000008758900004000080004943800023658300000000000000000201606230002001PAPELERIA EL CID S.A.                             C000000000119700000000000000000000100010010000000000000000000000F0010000008758900420160623000101 00000000000000000000000000000000000000000000000000000000000000000000000000000000000000000000000000000000000000000N 00000000000NCONT   00    00000000000          00000000000000000000000000000000000000000000 000000000000000A000000000000000000000000000000000000000000000 000000000000000000000000000000000000000     00000000                                                                                                                        000000000000000000
F0010000008758900005000080004943800013552100000000000000000201606230002001PAPELERIA EL CID S.A.                             D000000000119700000000000000000000100010010000000000000000000000F0010000008758900520160623000101 00000000000000000000000000000000000000000000000000000000000000000000000000000000000000000000000000000000000000000N 00000000000NCONT   00    00000000000          00000000000000000000000000000000000000000000 000000000000000A000000000000000000000000000000000000000000000 000000000000000000000000000000000000000     00000000                                                                                                                        000000000000000000
F0010000008759000001000080016664500013050500000000000000000201606230002001TELAPLAS PANCER SAS                               D000000018778000000000000000000000100010010000000000000000000000F0010000008759000120160623000101 00000000000000000000000000000000000000000000000000000000000000000000000000000000000000000000000000000000000000000N 00000000000NCONT   00    00000000000          00000000000000000000000000000000000000000000 000000000000000A000000000000000000000000000000000000000000000 000000000000000000000000000000000000000     00000000                                                                                                                        000000000000000000
F0010000008759000002000080016664500041450500000000000000000201606230002001TELAPLAS PANCER SAS                               C000000014990000000000000000000000100010010000000000000000000000F0010000008759000220160623000101 00000000000000000000000000000000000000000000000000000000000000000000000000000000000000000000000000000000000000000N 00000000000NCONT   00    00000000000          00000000000000000000000000000000000000000000 000000000000000A000000000000000000000000000000000000000000000 000000000000000000000000000000000000000     00000000                                                                                                                        000000000000000000
F0010000008759000003000080016664500042505000000000000000000201606230002001TELAPLAS PANCER SAS                               C000000003788000000000000000000000100010010000000000000000000000F0010000008759000320160623000101 00000000000000000000000000000000000000000000000000000000000000000000000000000000000000000000000000000000000000000N 00000000000NCONT   00    00000000000          00000000000000000000000000000000000000000000 000000000000000A000000000000000000000000000000000000000000000 000000000000000000000000000000000000000     00000000                                                                                                                        000000000000000000
F0010000008759000004000080016664500023658300000000000000000201606230002001TELAPLAS PANCER SAS                               C000000000119900000000000000000000100010010000000000000000000000F0010000008759000420160623000101 00000000000000000000000000000000000000000000000000000000000000000000000000000000000000000000000000000000000000000N 00000000000NCONT   00    00000000000          00000000000000000000000000000000000000000000 000000000000000A000000000000000000000000000000000000000000000 000000000000000000000000000000000000000     00000000                                                                                                                        000000000000000000
F0010000008759000005000080016664500013552100000000000000000201606230002001TELAPLAS PANCER SAS                               D000000000119900000000000000000000100010010000000000000000000000F0010000008759000520160623000101 00000000000000000000000000000000000000000000000000000000000000000000000000000000000000000000000000000000000000000N 00000000000NCONT   00    00000000000          00000000000000000000000000000000000000000000 000000000000000A000000000000000000000000000000000000000000000 000000000000000000000000000000000000000     00000000                                                                                                                        000000000000000000
F0010000008759200001000090008711200013050500000000000000000201606230002001PACKAGING SUPPLIERS S.A.                          D000000014850500000000000000000000100010010000000000000000000000F0010000008759200120160623000101 00000000000000000000000000000000000000000000000000000000000000000000000000000000000000000000000000000000000000000N 00000000000NCONT   00    00000000000          00000000000000000000000000000000000000000000 000000000000000A000000000000000000000000000000000000000000000 000000000000000000000000000000000000000     00000000                                                                                                                        000000000000000000
F0010000008759200002000090008711200041450500000000000000000201606230002001PACKAGING SUPPLIERS S.A.                          C000000013639500000000000000000000100010010000000000000000000000F0010000008759200220160623000101 00000000000000000000000000000000000000000000000000000000000000000000000000000000000000000000000000000000000000000N 00000000000NCONT   00    00000000000          00000000000000000000000000000000000000000000 000000000000000A000000000000000000000000000000000000000000000 000000000000000000000000000000000000000     00000000                                                                                                                        000000000000000000
F0010000008759200003000090008711200042505000000000000000000201606230002001PACKAGING SUPPLIERS S.A.                          C000000001211000000000000000000000100010010000000000000000000000F0010000008759200320160623000101 00000000000000000000000000000000000000000000000000000000000000000000000000000000000000000000000000000000000000000N 00000000000NCONT   00    00000000000          00000000000000000000000000000000000000000000 000000000000000A000000000000000000000000000000000000000000000 000000000000000000000000000000000000000     00000000                                                                                                                        000000000000000000
F0010000008759200004000090008711200023658300000000000000000201606230002001PACKAGING SUPPLIERS S.A.                          C000000000109100000000000000000000100010010000000000000000000000F0010000008759200420160623000101 00000000000000000000000000000000000000000000000000000000000000000000000000000000000000000000000000000000000000000N 00000000000NCONT   00    00000000000          00000000000000000000000000000000000000000000 000000000000000A000000000000000000000000000000000000000000000 000000000000000000000000000000000000000     00000000                                                                                                                        000000000000000000
F0010000008759200005000090008711200013552100000000000000000201606230002001PACKAGING SUPPLIERS S.A.                          D000000000109100000000000000000000100010010000000000000000000000F0010000008759200520160623000101 00000000000000000000000000000000000000000000000000000000000000000000000000000000000000000000000000000000000000000N 00000000000NCONT   00    00000000000          00000000000000000000000000000000000000000000 000000000000000A000000000000000000000000000000000000000000000 000000000000000000000000000000000000000     00000000                                                                                                                        000000000000000000
F0010000008759300001000089030195100013050500000000000000000201606230002001LIBRERIA NACIONAL S.A.                            D000000046050000000000000000000000100010010000000000000000000000F0010000008759300120160623000101 00000000000000000000000000000000000000000000000000000000000000000000000000000000000000000000000000000000000000000N 00000000000NCONT   00    00000000000          00000000000000000000000000000000000000000000 000000000000000A000000000000000000000000000000000000000000000 000000000000000000000000000000000000000     00000000                                                                                                                        000000000000000000
F0010000008759300002000089030195100041450500000000000000000201606230002001LIBRERIA NACIONAL S.A.                            C000000038250000000000000000000000100010010000000000000000000000F0010000008759300220160623000101 00000000000000000000000000000000000000000000000000000000000000000000000000000000000000000000000000000000000000000N 00000000000NCONT   00    00000000000          00000000000000000000000000000000000000000000 000000000000000A000000000000000000000000000000000000000000000 000000000000000000000000000000000000000     00000000                                                                                                                        000000000000000000
F0010000008759300003000089030195100042505000000000000000000201606230002001LIBRERIA NACIONAL S.A.                            C000000007800000000000000000000000100010010000000000000000000000F0010000008759300320160623000101 00000000000000000000000000000000000000000000000000000000000000000000000000000000000000000000000000000000000000000N 00000000000NCONT   00    00000000000          00000000000000000000000000000000000000000000 000000000000000A000000000000000000000000000000000000000000000 000000000000000000000000000000000000000     00000000                                                                                                                        000000000000000000
F0010000008759300004000089030195100023658300000000000000000201606230002001LIBRERIA NACIONAL S.A.                            C000000000306000000000000000000000100010010000000000000000000000F0010000008759300420160623000101 00000000000000000000000000000000000000000000000000000000000000000000000000000000000000000000000000000000000000000N 00000000000NCONT   00    00000000000          00000000000000000000000000000000000000000000 000000000000000A000000000000000000000000000000000000000000000 000000000000000000000000000000000000000     00000000                                                                                                                        000000000000000000
F0010000008759300005000089030195100013552100000000000000000201606230002001LIBRERIA NACIONAL S.A.                            D000000000306000000000000000000000100010010000000000000000000000F0010000008759300520160623000101 00000000000000000000000000000000000000000000000000000000000000000000000000000000000000000000000000000000000000000N 00000000000NCONT   00    00000000000          00000000000000000000000000000000000000000000 000000000000000A000000000000000000000000000000000000000000000 000000000000000000000000000000000000000     00000000                                                                                                                        000000000000000000
F0010000008759400001000090050863700013050500000000000000000201606230002001COMERCIALIZADORA PERFECT SAS                      D000000015741000000000000000000000100010010000000000000000000000F0010000008759400120160623000101 00000000000000000000000000000000000000000000000000000000000000000000000000000000000000000000000000000000000000000N 00000000000NCONT   00    00000000000          00000000000000000000000000000000000000000000 000000000000000A000000000000000000000000000000000000000000000 000000000000000000000000000000000000000     00000000                                                                                                                        000000000000000000
F0010000008759400002000090050863700041450500000000000000000201606230002001COMERCIALIZADORA PERFECT SAS                      C000000012741000000000000000000000100010010000000000000000000000F0010000008759400220160623000101 00000000000000000000000000000000000000000000000000000000000000000000000000000000000000000000000000000000000000000N 00000000000NCONT   00    00000000000          00000000000000000000000000000000000000000000 000000000000000A000000000000000000000000000000000000000000000 000000000000000000000000000000000000000     00000000                                                                                                                        000000000000000000
F0010000008759400003000090050863700042505000000000000000000201606230002001COMERCIALIZADORA PERFECT SAS                      C000000003000000000000000000000000100010010000000000000000000000F0010000008759400320160623000101 00000000000000000000000000000000000000000000000000000000000000000000000000000000000000000000000000000000000000000N 00000000000NCONT   00    00000000000          00000000000000000000000000000000000000000000 000000000000000A000000000000000000000000000000000000000000000 000000000000000000000000000000000000000     00000000                                                                                                                        000000000000000000
F0010000008759400004000090050863700023658300000000000000000201606230002001COMERCIALIZADORA PERFECT SAS                      C000000000101900000000000000000000100010010000000000000000000000F0010000008759400420160623000101 00000000000000000000000000000000000000000000000000000000000000000000000000000000000000000000000000000000000000000N 00000000000NCONT   00    00000000000          00000000000000000000000000000000000000000000 000000000000000A000000000000000000000000000000000000000000000 000000000000000000000000000000000000000     00000000                                                                                                                        000000000000000000
F0010000008759400005000090050863700013552100000000000000000201606230002001COMERCIALIZADORA PERFECT SAS                      D000000000101900000000000000000000100010010000000000000000000000F0010000008759400520160623000101 00000000000000000000000000000000000000000000000000000000000000000000000000000000000000000000000000000000000000000N 00000000000NCONT   00    00000000000          00000000000000000000000000000000000000000000 000000000000000A000000000000000000000000000000000000000000000 000000000000000000000000000000000000000     00000000                                                                                                                        000000000000000000
F0010000008759500001000000868487100013050500000000000000000201606230002001JAIME PIEROS                                    D000000005300000000000000000000000100010010000000000000000000000F0010000008759500120160623000101 00000000000000000000000000000000000000000000000000000000000000000000000000000000000000000000000000000000000000000N 00000000000NCONT   00    00000000000          00000000000000000000000000000000000000000000 000000000000000A000000000000000000000000000000000000000000000 000000000000000000000000000000000000000     00000000                                                                                                                        000000000000000000
F0010000008759500002000000868487100041450500000000000000000201606230002001JAIME PIEROS                                    C000000004070000000000000000000000100010010000000000000000000000F0010000008759500220160623000101 00000000000000000000000000000000000000000000000000000000000000000000000000000000000000000000000000000000000000000N 00000000000NCONT   00    00000000000          00000000000000000000000000000000000000000000 000000000000000A000000000000000000000000000000000000000000000 000000000000000000000000000000000000000     00000000                                                                                                                        000000000000000000
F0010000008759500003000000868487100042505000000000000000000201606230002001JAIME PIEROS                                    C000000001230000000000000000000000100010010000000000000000000000F0010000008759500320160623000101 00000000000000000000000000000000000000000000000000000000000000000000000000000000000000000000000000000000000000000N 00000000000NCONT   00    00000000000          00000000000000000000000000000000000000000000 000000000000000A000000000000000000000000000000000000000000000 000000000000000000000000000000000000000     00000000                                                                                                                        000000000000000000
F0010000008759500004000000868487100023658300000000000000000201606230002001JAIME PIEROS                                    C000000000032600000000000000000000100010010000000000000000000000F0010000008759500420160623000101 00000000000000000000000000000000000000000000000000000000000000000000000000000000000000000000000000000000000000000N 00000000000NCONT   00    00000000000          00000000000000000000000000000000000000000000 000000000000000A000000000000000000000000000000000000000000000 000000000000000000000000000000000000000     00000000                                                                                                                        000000000000000000
F0010000008759500005000000868487100013552100000000000000000201606230002001JAIME PIEROS                                    D000000000032600000000000000000000100010010000000000000000000000F0010000008759500520160623000101 00000000000000000000000000000000000000000000000000000000000000000000000000000000000000000000000000000000000000000N 00000000000NCONT   00    00000000000          00000000000000000000000000000000000000000000 000000000000000A000000000000000000000000000000000000000000000 000000000000000000000000000000000000000     00000000                                                                                                                        000000000000000000
F0010000008759600001000090044920600013050500000000000000000201606230002001QUATRO CARIBE SAS                                 D000000008105000000000000000000000100010010000000000000000000000F0010000008759600120160623000101 00000000000000000000000000000000000000000000000000000000000000000000000000000000000000000000000000000000000000000N 00000000000NCONT   00    00000000000          00000000000000000000000000000000000000000000 000000000000000A000000000000000000000000000000000000000000000 000000000000000000000000000000000000000     00000000                                                                                                                        000000000000000000
F0010000008759600002000090044920600041450500000000000000000201606230002001QUATRO CARIBE SAS                                 C000000006230000000000000000000000100010010000000000000000000000F0010000008759600220160623000101 00000000000000000000000000000000000000000000000000000000000000000000000000000000000000000000000000000000000000000N 00000000000NCONT   00    00000000000          00000000000000000000000000000000000000000000 000000000000000A000000000000000000000000000000000000000000000 000000000000000000000000000000000000000     00000000                                                                                                                        000000000000000000
F0010000008759600003000090044920600042505000000000000000000201606230002001QUATRO CARIBE SAS                                 C000000001875000000000000000000000100010010000000000000000000000F0010000008759600320160623000101 00000000000000000000000000000000000000000000000000000000000000000000000000000000000000000000000000000000000000000N 00000000000NCONT   00    00000000000          00000000000000000000000000000000000000000000 000000000000000A000000000000000000000000000000000000000000000 000000000000000000000000000000000000000     00000000                                                                                                                        000000000000000000
F0010000008759600004000090044920600023658300000000000000000201606230002001QUATRO CARIBE SAS                                 C000000000049800000000000000000000100010010000000000000000000000F0010000008759600420160623000101 00000000000000000000000000000000000000000000000000000000000000000000000000000000000000000000000000000000000000000N 00000000000NCONT   00    00000000000          00000000000000000000000000000000000000000000 000000000000000A000000000000000000000000000000000000000000000 000000000000000000000000000000000000000     00000000                                                                                                                        000000000000000000
F0010000008759600005000090044920600013552100000000000000000201606230002001QUATRO CARIBE SAS                                 D000000000049800000000000000000000100010010000000000000000000000F0010000008759600520160623000101 00000000000000000000000000000000000000000000000000000000000000000000000000000000000000000000000000000000000000000N 00000000000NCONT   00    00000000000          00000000000000000000000000000000000000000000 000000000000000A000000000000000000000000000000000000000000000 000000000000000000000000000000000000000     00000000                                                                                                                        000000000000000000
F0010000008759700001000090038852800013050500000000000000000201606230002001EL COMERCIO ELECTRICO DE LA CO                    D000000017680000000000000000000000100010010000000000000000000000F0010000008759700120160623000101 00000000000000000000000000000000000000000000000000000000000000000000000000000000000000000000000000000000000000000N 00000000000NCONT   00    00000000000          00000000000000000000000000000000000000000000 000000000000000A000000000000000000000000000000000000000000000 000000000000000000000000000000000000000     00000000                                                                                                                        000000000000000000
F0010000008759700002000090038852800041450500000000000000000201606230002001EL COMERCIO ELECTRICO DE LA CO                    C000000013700000000000000000000000100010010000000000000000000000F0010000008759700220160623000101 00000000000000000000000000000000000000000000000000000000000000000000000000000000000000000000000000000000000000000N 00000000000NCONT   00    00000000000          00000000000000000000000000000000000000000000 000000000000000A000000000000000000000000000000000000000000000 000000000000000000000000000000000000000     00000000                                                                                                                        000000000000000000
F0010000008759700003000090038852800042505000000000000000000201606230002001EL COMERCIO ELECTRICO DE LA CO                    C000000003980000000000000000000000100010010000000000000000000000F0010000008759700320160623000101 00000000000000000000000000000000000000000000000000000000000000000000000000000000000000000000000000000000000000000N 00000000000NCONT   00    00000000000          00000000000000000000000000000000000000000000 000000000000000A000000000000000000000000000000000000000000000 000000000000000000000000000000000000000     00000000                                                                                                                        000000000000000000
F0010000008759700004000090038852800023658300000000000000000201606230002001EL COMERCIO ELECTRICO DE LA CO                    C000000000109600000000000000000000100010010000000000000000000000F0010000008759700420160623000101 00000000000000000000000000000000000000000000000000000000000000000000000000000000000000000000000000000000000000000N 00000000000NCONT   00    00000000000          00000000000000000000000000000000000000000000 000000000000000A000000000000000000000000000000000000000000000 000000000000000000000000000000000000000     00000000                                                                                                                        000000000000000000
F0010000008759700005000090038852800013552100000000000000000201606230002001EL COMERCIO ELECTRICO DE LA CO                    D000000000109600000000000000000000100010010000000000000000000000F0010000008759700520160623000101 00000000000000000000000000000000000000000000000000000000000000000000000000000000000000000000000000000000000000000N 00000000000NCONT   00    00000000000          00000000000000000000000000000000000000000000 000000000000000A000000000000000000000000000000000000000000000 000000000000000000000000000000000000000     00000000                                                                                                                        000000000000000000
F0010000008759800001000090020547900013050500000000000000000201606230002001COMERCIALIZADORA DAC DEL CARIBE S.A.S.            D000000004051000000000000000000000100010010000000000000000000000F0010000008759800120160623000101 00000000000000000000000000000000000000000000000000000000000000000000000000000000000000000000000000000000000000000N 00000000000NCONT   00    00000000000          00000000000000000000000000000000000000000000 000000000000000A000000000000000000000000000000000000000000000 000000000000000000000000000000000000000     00000000                                                                                                                        000000000000000000
F0010000008759800002000090020547900041450500000000000000000201606230002001COMERCIALIZADORA DAC DEL CARIBE S.A.S.            C000000001800000000000000000000000100010010000000000000000000000F0010000008759800220160623000101 00000000000000000000000000000000000000000000000000000000000000000000000000000000000000000000000000000000000000000N 00000000000NCONT   00    00000000000          00000000000000000000000000000000000000000000 000000000000000A000000000000000000000000000000000000000000000 000000000000000000000000000000000000000     00000000                                                                                                                        000000000000000000
F0010000008759800003000090020547900042505000000000000000000201606230002001COMERCIALIZADORA DAC DEL CARIBE S.A.S.            C000000002251000000000000000000000100010010000000000000000000000F0010000008759800320160623000101 00000000000000000000000000000000000000000000000000000000000000000000000000000000000000000000000000000000000000000N 00000000000NCONT   00    00000000000          00000000000000000000000000000000000000000000 000000000000000A000000000000000000000000000000000000000000000 000000000000000000000000000000000000000     00000000                                                                                                                        000000000000000000
F0010000008759800004000090020547900023658300000000000000000201606230002001COMERCIALIZADORA DAC DEL CARIBE S.A.S.            C000000000014400000000000000000000100010010000000000000000000000F0010000008759800420160623000101 00000000000000000000000000000000000000000000000000000000000000000000000000000000000000000000000000000000000000000N 00000000000NCONT   00    00000000000          00000000000000000000000000000000000000000000 000000000000000A000000000000000000000000000000000000000000000 000000000000000000000000000000000000000     00000000                                                                                                                        000000000000000000
F0010000008759800005000090020547900013552100000000000000000201606230002001COMERCIALIZADORA DAC DEL CARIBE S.A.S.            D000000000014400000000000000000000100010010000000000000000000000F0010000008759800520160623000101 00000000000000000000000000000000000000000000000000000000000000000000000000000000000000000000000000000000000000000N 00000000000NCONT   00    00000000000          00000000000000000000000000000000000000000000 000000000000000A000000000000000000000000000000000000000000000 000000000000000000000000000000000000000     00000000                                                                                                                        000000000000000000
F0010000008759900001000080010983700013050500000000000000000201606230002001OHM LTDA                                          D000000004420000000000000000000000100010010000000000000000000000F0010000008759900120160623000101 00000000000000000000000000000000000000000000000000000000000000000000000000000000000000000000000000000000000000000N 00000000000NCONT   00    00000000000          00000000000000000000000000000000000000000000 000000000000000A000000000000000000000000000000000000000000000 000000000000000000000000000000000000000     00000000                                                                                                                        000000000000000000
F0010000008759900002000080010983700041450500000000000000000201606230002001OHM LTDA                                          C000000004360000000000000000000000100010010000000000000000000000F0010000008759900220160623000101 00000000000000000000000000000000000000000000000000000000000000000000000000000000000000000000000000000000000000000N 00000000000NCONT   00    00000000000          00000000000000000000000000000000000000000000 000000000000000A000000000000000000000000000000000000000000000 000000000000000000000000000000000000000     00000000                                                                                                                        000000000000000000
F0010000008759900003000080010983700042505000000000000000000201606230002001OHM LTDA                                          C000000000060000000000000000000000100010010000000000000000000000F0010000008759900320160623000101 00000000000000000000000000000000000000000000000000000000000000000000000000000000000000000000000000000000000000000N 00000000000NCONT   00    00000000000          00000000000000000000000000000000000000000000 000000000000000A000000000000000000000000000000000000000000000 000000000000000000000000000000000000000     00000000                                                                                                                        000000000000000000
F0010000008759900004000080010983700023658300000000000000000201606230002001OHM LTDA                                          C000000000034900000000000000000000100010010000000000000000000000F0010000008759900420160623000101 00000000000000000000000000000000000000000000000000000000000000000000000000000000000000000000000000000000000000000N 00000000000NCONT   00    00000000000          00000000000000000000000000000000000000000000 000000000000000A000000000000000000000000000000000000000000000 000000000000000000000000000000000000000     00000000                                                                                                                        000000000000000000
F0010000008759900005000080010983700013552100000000000000000201606230002001OHM LTDA                                          D000000000034900000000000000000000100010010000000000000000000000F0010000008759900520160623000101 00000000000000000000000000000000000000000000000000000000000000000000000000000000000000000000000000000000000000000N 00000000000NCONT   00    00000000000          00000000000000000000000000000000000000000000 000000000000000A000000000000000000000000000000000000000000000 000000000000000000000000000000000000000     00000000                                                                                                                        000000000000000000
F0010000008760000001000080000083500013050500000000000000000201606230002001ALIPAR Y CIA LTDA                                 D000000023430000000000000000000000100010010000000000000000000000F0010000008760000120160623000101 00000000000000000000000000000000000000000000000000000000000000000000000000000000000000000000000000000000000000000N 00000000000NCONT   00    00000000000          00000000000000000000000000000000000000000000 000000000000000A000000000000000000000000000000000000000000000 000000000000000000000000000000000000000     00000000                                                                                                                        000000000000000000
