F0010000008406400001000007225219800011050500000000000000000201603220002001MAURICIO ALVAREZ VARELO                           D000000003500000000000000000000000100010010000000000000000000000F0010000008406400120160322000101 00000000000000000000000000000000000000000000000000000000000000000000000000000000000000000000000000000000000000000N 00000000000NCONT   00    00000000000          00000000000000000000000000000000000000000000 000000000000000A000000000000000000000000000000000000000000000 000000000000000000000000000000000000000     00000000                                                                                                                        000000000000000000
F0010000008406400002000007225219800041450500000000000000000201603220002001MAURICIO ALVAREZ VARELO                           C000000002750000000000000000000000100010010000000000000000000000F0010000008406400220160322000101 00000000000000000000000000000000000000000000000000000000000000000000000000000000000000000000000000000000000000000N 00000000000NCONT   00    00000000000          00000000000000000000000000000000000000000000 000000000000000A000000000000000000000000000000000000000000000 000000000000000000000000000000000000000     00000000                                                                                                                        000000000000000000
F0010000008406400003000007225219800042505000000000000000000201603220002001MAURICIO ALVAREZ VARELO                           C000000000750000000000000000000000100010010000000000000000000000F0010000008406400320160322000101 00000000000000000000000000000000000000000000000000000000000000000000000000000000000000000000000000000000000000000N 00000000000NCONT   00    00000000000          00000000000000000000000000000000000000000000 000000000000000A000000000000000000000000000000000000000000000 000000000000000000000000000000000000000     00000000                                                                                                                        000000000000000000
F0010000008406400004000007225219800023658300000000000000000201603220002001MAURICIO ALVAREZ VARELO                           C000000000022000000000000000000000100010010000000000000000000000F0010000008406400420160322000101 00000000000000000000000000000000000000000000000000000000000000000000000000000000000000000000000000000000000000000N 00000000000NCONT   00    00000000000          00000000000000000000000000000000000000000000 000000000000000A000000000000000000000000000000000000000000000 000000000000000000000000000000000000000     00000000                                                                                                                        000000000000000000
F0010000008406400005000007225219800013552100000000000000000201603220002001MAURICIO ALVAREZ VARELO                           D000000000022000000000000000000000100010010000000000000000000000F0010000008406400520160322000101 00000000000000000000000000000000000000000000000000000000000000000000000000000000000000000000000000000000000000000N 00000000000NCONT   00    00000000000          00000000000000000000000000000000000000000000 000000000000000A000000000000000000000000000000000000000000000 000000000000000000000000000000000000000     00000000                                                                                                                        000000000000000000
F0010000008406500001000003207718300011050500000000000000000201603220002001MARIA GILMA  RAMIREZ GARCIA                       D000000002000000000000000000000000100010010000000000000000000000F0010000008406500120160322000101 00000000000000000000000000000000000000000000000000000000000000000000000000000000000000000000000000000000000000000N 00000000000NCONT   00    00000000000          00000000000000000000000000000000000000000000 000000000000000A000000000000000000000000000000000000000000000 000000000000000000000000000000000000000     00000000                                                                                                                        000000000000000000
F0010000008406500002000003207718300041450500000000000000000201603220002001MARIA GILMA  RAMIREZ GARCIA                       C000000001200000000000000000000000100010010000000000000000000000F0010000008406500220160322000101 00000000000000000000000000000000000000000000000000000000000000000000000000000000000000000000000000000000000000000N 00000000000NCONT   00    00000000000          00000000000000000000000000000000000000000000 000000000000000A000000000000000000000000000000000000000000000 000000000000000000000000000000000000000     00000000                                                                                                                        000000000000000000
F0010000008406500003000003207718300042505000000000000000000201603220002001MARIA GILMA  RAMIREZ GARCIA                       C000000000800000000000000000000000100010010000000000000000000000F0010000008406500320160322000101 00000000000000000000000000000000000000000000000000000000000000000000000000000000000000000000000000000000000000000N 00000000000NCONT   00    00000000000          00000000000000000000000000000000000000000000 000000000000000A000000000000000000000000000000000000000000000 000000000000000000000000000000000000000     00000000                                                                                                                        000000000000000000
F0010000008406500004000003207718300023658300000000000000000201603220002001MARIA GILMA  RAMIREZ GARCIA                       C000000000009600000000000000000000100010010000000000000000000000F0010000008406500420160322000101 00000000000000000000000000000000000000000000000000000000000000000000000000000000000000000000000000000000000000000N 00000000000NCONT   00    00000000000          00000000000000000000000000000000000000000000 000000000000000A000000000000000000000000000000000000000000000 000000000000000000000000000000000000000     00000000                                                                                                                        000000000000000000
F0010000008406500005000003207718300013552100000000000000000201603220002001MARIA GILMA  RAMIREZ GARCIA                       D000000000009600000000000000000000100010010000000000000000000000F0010000008406500520160322000101 00000000000000000000000000000000000000000000000000000000000000000000000000000000000000000000000000000000000000000N 00000000000NCONT   00    00000000000          00000000000000000000000000000000000000000000 000000000000000A000000000000000000000000000000000000000000000 000000000000000000000000000000000000000     00000000                                                                                                                        000000000000000000
F0010000008406600001000090073498600011050500000000000000000201603220002001VALTAC S.A.S                                      D000000002000000000000000000000000100010010000000000000000000000F0010000008406600120160322000101 00000000000000000000000000000000000000000000000000000000000000000000000000000000000000000000000000000000000000000N 00000000000NCONT   00    00000000000          00000000000000000000000000000000000000000000 000000000000000A000000000000000000000000000000000000000000000 000000000000000000000000000000000000000     00000000                                                                                                                        000000000000000000
F0010000008406600002000090073498600041450500000000000000000201603220002001VALTAC S.A.S                                      C000000001700000000000000000000000100010010000000000000000000000F0010000008406600220160322000101 00000000000000000000000000000000000000000000000000000000000000000000000000000000000000000000000000000000000000000N 00000000000NCONT   00    00000000000          00000000000000000000000000000000000000000000 000000000000000A000000000000000000000000000000000000000000000 000000000000000000000000000000000000000     00000000                                                                                                                        000000000000000000
F0010000008406600003000090073498600042505000000000000000000201603220002001VALTAC S.A.S                                      C000000000300000000000000000000000100010010000000000000000000000F0010000008406600320160322000101 00000000000000000000000000000000000000000000000000000000000000000000000000000000000000000000000000000000000000000N 00000000000NCONT   00    00000000000          00000000000000000000000000000000000000000000 000000000000000A000000000000000000000000000000000000000000000 000000000000000000000000000000000000000     00000000                                                                                                                        000000000000000000
F0010000008406600004000090073498600023658300000000000000000201603220002001VALTAC S.A.S                                      C000000000013600000000000000000000100010010000000000000000000000F0010000008406600420160322000101 00000000000000000000000000000000000000000000000000000000000000000000000000000000000000000000000000000000000000000N 00000000000NCONT   00    00000000000          00000000000000000000000000000000000000000000 000000000000000A000000000000000000000000000000000000000000000 000000000000000000000000000000000000000     00000000                                                                                                                        000000000000000000
F0010000008406600005000090073498600013552100000000000000000201603220002001VALTAC S.A.S                                      D000000000013600000000000000000000100010010000000000000000000000F0010000008406600520160322000101 00000000000000000000000000000000000000000000000000000000000000000000000000000000000000000000000000000000000000000N 00000000000NCONT   00    00000000000          00000000000000000000000000000000000000000000 000000000000000A000000000000000000000000000000000000000000000 000000000000000000000000000000000000000     00000000                                                                                                                        000000000000000000
F0010000008406700001000086003979400013050500000000000000000201603220002001CALYPSO BARRANQUILLA LTDA                         D000000067208000000000000000000000100010010000000000000000000000F0010000008406700120160322000101 00000000000000000000000000000000000000000000000000000000000000000000000000000000000000000000000000000000000000000N 00000000000NCONT   00    00000000000          00000000000000000000000000000000000000000000 000000000000000A000000000000000000000000000000000000000000000 000000000000000000000000000000000000000     00000000                                                                                                                        000000000000000000
F0010000008406700002000086003979400041450500000000000000000201603220002001CALYPSO BARRANQUILLA LTDA                         C000000054240000000000000000000000100010010000000000000000000000F0010000008406700220160322000101 00000000000000000000000000000000000000000000000000000000000000000000000000000000000000000000000000000000000000000N 00000000000NCONT   00    00000000000          00000000000000000000000000000000000000000000 000000000000000A000000000000000000000000000000000000000000000 000000000000000000000000000000000000000     00000000                                                                                                                        000000000000000000
F0010000008406700003000086003979400042505000000000000000000201603220002001CALYPSO BARRANQUILLA LTDA                         C000000012968000000000000000000000100010010000000000000000000000F0010000008406700320160322000101 00000000000000000000000000000000000000000000000000000000000000000000000000000000000000000000000000000000000000000N 00000000000NCONT   00    00000000000          00000000000000000000000000000000000000000000 000000000000000A000000000000000000000000000000000000000000000 000000000000000000000000000000000000000     00000000                                                                                                                        000000000000000000
F0010000008406700004000086003979400023658300000000000000000201603220002001CALYPSO BARRANQUILLA LTDA                         C000000000433900000000000000000000100010010000000000000000000000F0010000008406700420160322000101 00000000000000000000000000000000000000000000000000000000000000000000000000000000000000000000000000000000000000000N 00000000000NCONT   00    00000000000          00000000000000000000000000000000000000000000 000000000000000A000000000000000000000000000000000000000000000 000000000000000000000000000000000000000     00000000                                                                                                                        000000000000000000
F0010000008406700005000086003979400013552100000000000000000201603220002001CALYPSO BARRANQUILLA LTDA                         D000000000433900000000000000000000100010010000000000000000000000F0010000008406700520160322000101 00000000000000000000000000000000000000000000000000000000000000000000000000000000000000000000000000000000000000000N 00000000000NCONT   00    00000000000          00000000000000000000000000000000000000000000 000000000000000A000000000000000000000000000000000000000000000 000000000000000000000000000000000000000     00000000                                                                                                                        000000000000000000
F0010000008406800001000080001063400013050500000000000000000201603220002001PRODUCTOS JULIAO SAS                              D000000081001000000000000000000000100010010000000000000000000000F0010000008406800120160322000101 00000000000000000000000000000000000000000000000000000000000000000000000000000000000000000000000000000000000000000N 00000000000NCONT   00    00000000000          00000000000000000000000000000000000000000000 000000000000000A000000000000000000000000000000000000000000000 000000000000000000000000000000000000000     00000000                                                                                                                        000000000000000000
F0010000008406800002000080001063400041450500000000000000000201603220002001PRODUCTOS JULIAO SAS                              C000000077550000000000000000000000100010010000000000000000000000F0010000008406800220160322000101 00000000000000000000000000000000000000000000000000000000000000000000000000000000000000000000000000000000000000000N 00000000000NCONT   00    00000000000          00000000000000000000000000000000000000000000 000000000000000A000000000000000000000000000000000000000000000 000000000000000000000000000000000000000     00000000                                                                                                                        000000000000000000
F0010000008406800003000080001063400042505000000000000000000201603220002001PRODUCTOS JULIAO SAS                              C000000003451000000000000000000000100010010000000000000000000000F0010000008406800320160322000101 00000000000000000000000000000000000000000000000000000000000000000000000000000000000000000000000000000000000000000N 00000000000NCONT   00    00000000000          00000000000000000000000000000000000000000000 000000000000000A000000000000000000000000000000000000000000000 000000000000000000000000000000000000000     00000000                                                                                                                        000000000000000000
F0010000008406800004000080001063400023658300000000000000000201603220002001PRODUCTOS JULIAO SAS                              C000000000620400000000000000000000100010010000000000000000000000F0010000008406800420160322000101 00000000000000000000000000000000000000000000000000000000000000000000000000000000000000000000000000000000000000000N 00000000000NCONT   00    00000000000          00000000000000000000000000000000000000000000 000000000000000A000000000000000000000000000000000000000000000 000000000000000000000000000000000000000     00000000                                                                                                                        000000000000000000
F0010000008406800005000080001063400013552100000000000000000201603220002001PRODUCTOS JULIAO SAS                              D000000000620400000000000000000000100010010000000000000000000000F0010000008406800520160322000101 00000000000000000000000000000000000000000000000000000000000000000000000000000000000000000000000000000000000000000N 00000000000NCONT   00    00000000000          00000000000000000000000000000000000000000000 000000000000000A000000000000000000000000000000000000000000000 000000000000000000000000000000000000000     00000000                                                                                                                        000000000000000000
F0010000008406900001000002245670100013050500000000000000000201603220002001YOLANDA  TOBON                                    D000000018696600000000000000000000100010010000000000000000000000F0010000008406900120160322000101 00000000000000000000000000000000000000000000000000000000000000000000000000000000000000000000000000000000000000000N 00000000000NCONT   00    00000000000          00000000000000000000000000000000000000000000 000000000000000A000000000000000000000000000000000000000000000 000000000000000000000000000000000000000     00000000                                                                                                                        000000000000000000
F0010000008406900002000002245670100041450500000000000000000201603220002001YOLANDA  TOBON                                    C000000015000000000000000000000000100010010000000000000000000000F0010000008406900220160322000101 00000000000000000000000000000000000000000000000000000000000000000000000000000000000000000000000000000000000000000N 00000000000NCONT   00    00000000000          00000000000000000000000000000000000000000000 000000000000000A000000000000000000000000000000000000000000000 000000000000000000000000000000000000000     00000000                                                                                                                        000000000000000000
F0010000008406900003000002245670100042505000000000000000000201603220002001YOLANDA  TOBON                                    C000000003696600000000000000000000100010010000000000000000000000F0010000008406900320160322000101 00000000000000000000000000000000000000000000000000000000000000000000000000000000000000000000000000000000000000000N 00000000000NCONT   00    00000000000          00000000000000000000000000000000000000000000 000000000000000A000000000000000000000000000000000000000000000 000000000000000000000000000000000000000     00000000                                                                                                                        000000000000000000
F0010000008406900004000002245670100023658300000000000000000201603220002001YOLANDA  TOBON                                    C000000000120000000000000000000000100010010000000000000000000000F0010000008406900420160322000101 00000000000000000000000000000000000000000000000000000000000000000000000000000000000000000000000000000000000000000N 00000000000NCONT   00    00000000000          00000000000000000000000000000000000000000000 000000000000000A000000000000000000000000000000000000000000000 000000000000000000000000000000000000000     00000000                                                                                                                        000000000000000000
F0010000008406900005000002245670100013552100000000000000000201603220002001YOLANDA  TOBON                                    D000000000120000000000000000000000100010010000000000000000000000F0010000008406900520160322000101 00000000000000000000000000000000000000000000000000000000000000000000000000000000000000000000000000000000000000000N 00000000000NCONT   00    00000000000          00000000000000000000000000000000000000000000 000000000000000A000000000000000000000000000000000000000000000 000000000000000000000000000000000000000     00000000                                                                                                                        000000000000000000
F0010000008407000001000080018525700013050500000000000000000201603220002001SUMINISTROS Y ACABADOS LTDA                       D000000010397300000000000000000000100010010000000000000000000000F0010000008407000120160322000101 00000000000000000000000000000000000000000000000000000000000000000000000000000000000000000000000000000000000000000N 00000000000NCONT   00    00000000000          00000000000000000000000000000000000000000000 000000000000000A000000000000000000000000000000000000000000000 000000000000000000000000000000000000000     00000000                                                                                                                        000000000000000000
F0010000008407000002000080018525700041450500000000000000000201603220002001SUMINISTROS Y ACABADOS LTDA                       C000000008819200000000000000000000100010010000000000000000000000F0010000008407000220160322000101 00000000000000000000000000000000000000000000000000000000000000000000000000000000000000000000000000000000000000000N 00000000000NCONT   00    00000000000          00000000000000000000000000000000000000000000 000000000000000A000000000000000000000000000000000000000000000 000000000000000000000000000000000000000     00000000                                                                                                                        000000000000000000
F0010000008407000003000080018525700042505000000000000000000201603220002001SUMINISTROS Y ACABADOS LTDA                       C000000001578100000000000000000000100010010000000000000000000000F0010000008407000320160322000101 00000000000000000000000000000000000000000000000000000000000000000000000000000000000000000000000000000000000000000N 00000000000NCONT   00    00000000000          00000000000000000000000000000000000000000000 000000000000000A000000000000000000000000000000000000000000000 000000000000000000000000000000000000000     00000000                                                                                                                        000000000000000000
F0010000008407000004000080018525700023658300000000000000000201603220002001SUMINISTROS Y ACABADOS LTDA                       C000000000070600000000000000000000100010010000000000000000000000F0010000008407000420160322000101 00000000000000000000000000000000000000000000000000000000000000000000000000000000000000000000000000000000000000000N 00000000000NCONT   00    00000000000          00000000000000000000000000000000000000000000 000000000000000A000000000000000000000000000000000000000000000 000000000000000000000000000000000000000     00000000                                                                                                                        000000000000000000
F0010000008407000005000080018525700013552100000000000000000201603220002001SUMINISTROS Y ACABADOS LTDA                       D000000000070600000000000000000000100010010000000000000000000000F0010000008407000520160322000101 00000000000000000000000000000000000000000000000000000000000000000000000000000000000000000000000000000000000000000N 00000000000NCONT   00    00000000000          00000000000000000000000000000000000000000000 000000000000000A000000000000000000000000000000000000000000000 000000000000000000000000000000000000000     00000000                                                                                                                        000000000000000000
F0010000008407100001000080200608400013050500000000000000000201603220002001HIT DISTRIBUCIONES SAS                            D000000038306300000000000000000000100010010000000000000000000000F0010000008407100120160322000101 00000000000000000000000000000000000000000000000000000000000000000000000000000000000000000000000000000000000000000N 00000000000NCONT   00    00000000000          00000000000000000000000000000000000000000000 000000000000000A000000000000000000000000000000000000000000000 000000000000000000000000000000000000000     00000000                                                                                                                        000000000000000000
F0010000008407100002000080200608400041450500000000000000000201603220002001HIT DISTRIBUCIONES SAS                            C000000033090000000000000000000000100010010000000000000000000000F0010000008407100220160322000101 00000000000000000000000000000000000000000000000000000000000000000000000000000000000000000000000000000000000000000N 00000000000NCONT   00    00000000000          00000000000000000000000000000000000000000000 000000000000000A000000000000000000000000000000000000000000000 000000000000000000000000000000000000000     00000000                                                                                                                        000000000000000000
F0010000008407100003000080200608400042505000000000000000000201603220002001HIT DISTRIBUCIONES SAS                            C000000005216300000000000000000000100010010000000000000000000000F0010000008407100320160322000101 00000000000000000000000000000000000000000000000000000000000000000000000000000000000000000000000000000000000000000N 00000000000NCONT   00    00000000000          00000000000000000000000000000000000000000000 000000000000000A000000000000000000000000000000000000000000000 000000000000000000000000000000000000000     00000000                                                                                                                        000000000000000000
F0010000008407100004000080200608400023658300000000000000000201603220002001HIT DISTRIBUCIONES SAS                            C000000000264700000000000000000000100010010000000000000000000000F0010000008407100420160322000101 00000000000000000000000000000000000000000000000000000000000000000000000000000000000000000000000000000000000000000N 00000000000NCONT   00    00000000000          00000000000000000000000000000000000000000000 000000000000000A000000000000000000000000000000000000000000000 000000000000000000000000000000000000000     00000000                                                                                                                        000000000000000000
F0010000008407100005000080200608400013552100000000000000000201603220002001HIT DISTRIBUCIONES SAS                            D000000000264700000000000000000000100010010000000000000000000000F0010000008407100520160322000101 00000000000000000000000000000000000000000000000000000000000000000000000000000000000000000000000000000000000000000N 00000000000NCONT   00    00000000000          00000000000000000000000000000000000000000000 000000000000000A000000000000000000000000000000000000000000000 000000000000000000000000000000000000000     00000000                                                                                                                        000000000000000000
F0010000008407300001000080004943800013050500000000000000000201603220002001PAPELERIA EL CID S.A.                             D000000038407500000000000000000000100010010000000000000000000000F0010000008407300120160322000101 00000000000000000000000000000000000000000000000000000000000000000000000000000000000000000000000000000000000000000N 00000000000NCONT   00    00000000000          00000000000000000000000000000000000000000000 000000000000000A000000000000000000000000000000000000000000000 000000000000000000000000000000000000000     00000000                                                                                                                        000000000000000000
F0010000008407300002000080004943800041450500000000000000000201603220002001PAPELERIA EL CID S.A.                             C000000028220000000000000000000000100010010000000000000000000000F0010000008407300220160322000101 00000000000000000000000000000000000000000000000000000000000000000000000000000000000000000000000000000000000000000N 00000000000NCONT   00    00000000000          00000000000000000000000000000000000000000000 000000000000000A000000000000000000000000000000000000000000000 000000000000000000000000000000000000000     00000000                                                                                                                        000000000000000000
F0010000008407300003000080004943800042505000000000000000000201603220002001PAPELERIA EL CID S.A.                             C000000010187500000000000000000000100010010000000000000000000000F0010000008407300320160322000101 00000000000000000000000000000000000000000000000000000000000000000000000000000000000000000000000000000000000000000N 00000000000NCONT   00    00000000000          00000000000000000000000000000000000000000000 000000000000000A000000000000000000000000000000000000000000000 000000000000000000000000000000000000000     00000000                                                                                                                        000000000000000000
F0010000008407300004000080004943800023658300000000000000000201603220002001PAPELERIA EL CID S.A.                             C000000000225800000000000000000000100010010000000000000000000000F0010000008407300420160322000101 00000000000000000000000000000000000000000000000000000000000000000000000000000000000000000000000000000000000000000N 00000000000NCONT   00    00000000000          00000000000000000000000000000000000000000000 000000000000000A000000000000000000000000000000000000000000000 000000000000000000000000000000000000000     00000000                                                                                                                        000000000000000000
F0010000008407300005000080004943800013552100000000000000000201603220002001PAPELERIA EL CID S.A.                             D000000000225800000000000000000000100010010000000000000000000000F0010000008407300520160322000101 00000000000000000000000000000000000000000000000000000000000000000000000000000000000000000000000000000000000000000N 00000000000NCONT   00    00000000000          00000000000000000000000000000000000000000000 000000000000000A000000000000000000000000000000000000000000000 000000000000000000000000000000000000000     00000000                                                                                                                        000000000000000000
F0010000008407400001000080004943800013050500000000000000000201603220002001PAPELERIA EL CID S.A.                             D000000003350000000000000000000000100010010000000000000000000000F0010000008407400120160322000101 00000000000000000000000000000000000000000000000000000000000000000000000000000000000000000000000000000000000000000N 00000000000NCONT   00    00000000000          00000000000000000000000000000000000000000000 000000000000000A000000000000000000000000000000000000000000000 000000000000000000000000000000000000000     00000000                                                                                                                        000000000000000000
F0010000008407400002000080004943800041450500000000000000000201603220002001PAPELERIA EL CID S.A.                             C000000002550000000000000000000000100010010000000000000000000000F0010000008407400220160322000101 00000000000000000000000000000000000000000000000000000000000000000000000000000000000000000000000000000000000000000N 00000000000NCONT   00    00000000000          00000000000000000000000000000000000000000000 000000000000000A000000000000000000000000000000000000000000000 000000000000000000000000000000000000000     00000000                                                                                                                        000000000000000000
F0010000008407400003000080004943800042505000000000000000000201603220002001PAPELERIA EL CID S.A.                             C000000000800000000000000000000000100010010000000000000000000000F0010000008407400320160322000101 00000000000000000000000000000000000000000000000000000000000000000000000000000000000000000000000000000000000000000N 00000000000NCONT   00    00000000000          00000000000000000000000000000000000000000000 000000000000000A000000000000000000000000000000000000000000000 000000000000000000000000000000000000000     00000000                                                                                                                        000000000000000000
F0010000008407400004000080004943800023658300000000000000000201603220002001PAPELERIA EL CID S.A.                             C000000000020400000000000000000000100010010000000000000000000000F0010000008407400420160322000101 00000000000000000000000000000000000000000000000000000000000000000000000000000000000000000000000000000000000000000N 00000000000NCONT   00    00000000000          00000000000000000000000000000000000000000000 000000000000000A000000000000000000000000000000000000000000000 000000000000000000000000000000000000000     00000000                                                                                                                        000000000000000000
F0010000008407400005000080004943800013552100000000000000000201603220002001PAPELERIA EL CID S.A.                             D000000000020400000000000000000000100010010000000000000000000000F0010000008407400520160322000101 00000000000000000000000000000000000000000000000000000000000000000000000000000000000000000000000000000000000000000N 00000000000NCONT   00    00000000000          00000000000000000000000000000000000000000000 000000000000000A000000000000000000000000000000000000000000000 000000000000000000000000000000000000000     00000000                                                                                                                        000000000000000000
F0010000008407500001000000748239700013050500000000000000000201603220002001RAFAEL NAVARRO URIBE                              D000000022200600000000000000000000100010010000000000000000000000F0010000008407500120160322000101 00000000000000000000000000000000000000000000000000000000000000000000000000000000000000000000000000000000000000000N 00000000000NCONT   00    00000000000          00000000000000000000000000000000000000000000 000000000000000A000000000000000000000000000000000000000000000 000000000000000000000000000000000000000     00000000                                                                                                                        000000000000000000
F0010000008407500002000000748239700041450500000000000000000201603220002001RAFAEL NAVARRO URIBE                              C000000013100000000000000000000000100010010000000000000000000000F0010000008407500220160322000101 00000000000000000000000000000000000000000000000000000000000000000000000000000000000000000000000000000000000000000N 00000000000NCONT   00    00000000000          00000000000000000000000000000000000000000000 000000000000000A000000000000000000000000000000000000000000000 000000000000000000000000000000000000000     00000000                                                                                                                        000000000000000000
F0010000008407500003000000748239700042505000000000000000000201603220002001RAFAEL NAVARRO URIBE                              C000000009100600000000000000000000100010010000000000000000000000F0010000008407500320160322000101 00000000000000000000000000000000000000000000000000000000000000000000000000000000000000000000000000000000000000000N 00000000000NCONT   00    00000000000          00000000000000000000000000000000000000000000 000000000000000A000000000000000000000000000000000000000000000 000000000000000000000000000000000000000     00000000                                                                                                                        000000000000000000
F0010000008407500004000000748239700023658300000000000000000201603220002001RAFAEL NAVARRO URIBE                              C000000000104800000000000000000000100010010000000000000000000000F0010000008407500420160322000101 00000000000000000000000000000000000000000000000000000000000000000000000000000000000000000000000000000000000000000N 00000000000NCONT   00    00000000000          00000000000000000000000000000000000000000000 000000000000000A000000000000000000000000000000000000000000000 000000000000000000000000000000000000000     00000000                                                                                                                        000000000000000000
F0010000008407500005000000748239700013552100000000000000000201603220002001RAFAEL NAVARRO URIBE                              D000000000104800000000000000000000100010010000000000000000000000F0010000008407500520160322000101 00000000000000000000000000000000000000000000000000000000000000000000000000000000000000000000000000000000000000000N 00000000000NCONT   00    00000000000          00000000000000000000000000000000000000000000 000000000000000A000000000000000000000000000000000000000000000 000000000000000000000000000000000000000     00000000                                                                                                                        000000000000000000
F0010000008407600001000089010260300013050500000000000000000201603220002001FEDERICO OSORIO A. S.A.                           D000000097262000000000000000000000100010010000000000000000000000F0010000008407600120160322000101 00000000000000000000000000000000000000000000000000000000000000000000000000000000000000000000000000000000000000000N 00000000000NCONT   00    00000000000          00000000000000000000000000000000000000000000 000000000000000A000000000000000000000000000000000000000000000 000000000000000000000000000000000000000     00000000                                                                                                                        000000000000000000
F0010000008407600002000089010260300041450500000000000000000201603220002001FEDERICO OSORIO A. S.A.                           C000000092450000000000000000000000100010010000000000000000000000F0010000008407600220160322000101 00000000000000000000000000000000000000000000000000000000000000000000000000000000000000000000000000000000000000000N 00000000000NCONT   00    00000000000          00000000000000000000000000000000000000000000 000000000000000A000000000000000000000000000000000000000000000 000000000000000000000000000000000000000     00000000                                                                                                                        000000000000000000
F0010000008407600003000089010260300042505000000000000000000201603220002001FEDERICO OSORIO A. S.A.                           C000000004812000000000000000000000100010010000000000000000000000F0010000008407600320160322000101 00000000000000000000000000000000000000000000000000000000000000000000000000000000000000000000000000000000000000000N 00000000000NCONT   00    00000000000          00000000000000000000000000000000000000000000 000000000000000A000000000000000000000000000000000000000000000 000000000000000000000000000000000000000     00000000                                                                                                                        000000000000000000
F0010000008407600004000089010260300023658300000000000000000201603220002001FEDERICO OSORIO A. S.A.                           C000000000739600000000000000000000100010010000000000000000000000F0010000008407600420160322000101 00000000000000000000000000000000000000000000000000000000000000000000000000000000000000000000000000000000000000000N 00000000000NCONT   00    00000000000          00000000000000000000000000000000000000000000 000000000000000A000000000000000000000000000000000000000000000 000000000000000000000000000000000000000     00000000                                                                                                                        000000000000000000
F0010000008407600005000089010260300013552100000000000000000201603220002001FEDERICO OSORIO A. S.A.                           D000000000739600000000000000000000100010010000000000000000000000F0010000008407600520160322000101 00000000000000000000000000000000000000000000000000000000000000000000000000000000000000000000000000000000000000000N 00000000000NCONT   00    00000000000          00000000000000000000000000000000000000000000 000000000000000A000000000000000000000000000000000000000000000 000000000000000000000000000000000000000     00000000                                                                                                                        000000000000000000
F0010000008407700001000080202094000013050500000000000000000201603220002001DISTRIB. OMAR ORREGO S.A.                         D000000084290800000000000000000000100010010000000000000000000000F0010000008407700120160322000101 00000000000000000000000000000000000000000000000000000000000000000000000000000000000000000000000000000000000000000N 00000000000NCONT   00    00000000000          00000000000000000000000000000000000000000000 000000000000000A000000000000000000000000000000000000000000000 000000000000000000000000000000000000000     00000000                                                                                                                        000000000000000000
F0010000008407700002000080202094000041450500000000000000000201603220002001DISTRIB. OMAR ORREGO S.A.                         C000000066260000000000000000000000100010010000000000000000000000F0010000008407700220160322000101 00000000000000000000000000000000000000000000000000000000000000000000000000000000000000000000000000000000000000000N 00000000000NCONT   00    00000000000          00000000000000000000000000000000000000000000 000000000000000A000000000000000000000000000000000000000000000 000000000000000000000000000000000000000     00000000                                                                                                                        000000000000000000
F0010000008407700003000080202094000042505000000000000000000201603220002001DISTRIB. OMAR ORREGO S.A.                         C000000018030800000000000000000000100010010000000000000000000000F0010000008407700320160322000101 00000000000000000000000000000000000000000000000000000000000000000000000000000000000000000000000000000000000000000N 00000000000NCONT   00    00000000000          00000000000000000000000000000000000000000000 000000000000000A000000000000000000000000000000000000000000000 000000000000000000000000000000000000000     00000000                                                                                                                        000000000000000000
F0010000008407700004000080202094000023658300000000000000000201603220002001DISTRIB. OMAR ORREGO S.A.                         C000000000530100000000000000000000100010010000000000000000000000F0010000008407700420160322000101 00000000000000000000000000000000000000000000000000000000000000000000000000000000000000000000000000000000000000000N 00000000000NCONT   00    00000000000          00000000000000000000000000000000000000000000 000000000000000A000000000000000000000000000000000000000000000 000000000000000000000000000000000000000     00000000                                                                                                                        000000000000000000
F0010000008407700005000080202094000013552100000000000000000201603220002001DISTRIB. OMAR ORREGO S.A.                         D000000000530100000000000000000000100010010000000000000000000000F0010000008407700520160322000101 00000000000000000000000000000000000000000000000000000000000000000000000000000000000000000000000000000000000000000N 00000000000NCONT   00    00000000000          00000000000000000000000000000000000000000000 000000000000000A000000000000000000000000000000000000000000000 000000000000000000000000000000000000000     00000000                                                                                                                        000000000000000000
F0010000008407800001000080202094000013050500000000000000000201603220002001DISTRIB. OMAR ORREGO S.A.                         D000000021638100000000000000000000100010010000000000000000000000F0010000008407800120160322000101 00000000000000000000000000000000000000000000000000000000000000000000000000000000000000000000000000000000000000000N 00000000000NCONT   00    00000000000          00000000000000000000000000000000000000000000 000000000000000A000000000000000000000000000000000000000000000 000000000000000000000000000000000000000     00000000                                                                                                                        000000000000000000
F0010000008407800002000080202094000041450500000000000000000201603220002001DISTRIB. OMAR ORREGO S.A.                         C000000013670000000000000000000000100010010000000000000000000000F0010000008407800220160322000101 00000000000000000000000000000000000000000000000000000000000000000000000000000000000000000000000000000000000000000N 00000000000NCONT   00    00000000000          00000000000000000000000000000000000000000000 000000000000000A000000000000000000000000000000000000000000000 000000000000000000000000000000000000000     00000000                                                                                                                        000000000000000000
F0010000008407800003000080202094000042505000000000000000000201603220002001DISTRIB. OMAR ORREGO S.A.                         C000000007968100000000000000000000100010010000000000000000000000F0010000008407800320160322000101 00000000000000000000000000000000000000000000000000000000000000000000000000000000000000000000000000000000000000000N 00000000000NCONT   00    00000000000          00000000000000000000000000000000000000000000 000000000000000A000000000000000000000000000000000000000000000 000000000000000000000000000000000000000     00000000                                                                                                                        000000000000000000
F0010000008407800004000080202094000023658300000000000000000201603220002001DISTRIB. OMAR ORREGO S.A.                         C000000000109400000000000000000000100010010000000000000000000000F0010000008407800420160322000101 00000000000000000000000000000000000000000000000000000000000000000000000000000000000000000000000000000000000000000N 00000000000NCONT   00    00000000000          00000000000000000000000000000000000000000000 000000000000000A000000000000000000000000000000000000000000000 000000000000000000000000000000000000000     00000000                                                                                                                        000000000000000000
F0010000008407800005000080202094000013552100000000000000000201603220002001DISTRIB. OMAR ORREGO S.A.                         D000000000109400000000000000000000100010010000000000000000000000F0010000008407800520160322000101 00000000000000000000000000000000000000000000000000000000000000000000000000000000000000000000000000000000000000000N 00000000000NCONT   00    00000000000          00000000000000000000000000000000000000000000 000000000000000A000000000000000000000000000000000000000000000 000000000000000000000000000000000000000     00000000                                                                                                                        000000000000000000
F0010000008407900001000090015305700011050500000000000000000201603220002001PLASTICOS Y SERVICIOS BARRANQUILLA EU             D000000006900000000000000000000000100010010000000000000000000000F0010000008407900120160322000101 00000000000000000000000000000000000000000000000000000000000000000000000000000000000000000000000000000000000000000N 00000000000NCONT   00    00000000000          00000000000000000000000000000000000000000000 000000000000000A000000000000000000000000000000000000000000000 000000000000000000000000000000000000000     00000000                                                                                                                        000000000000000000
F0010000008407900002000090015305700041450500000000000000000201603220002001PLASTICOS Y SERVICIOS BARRANQUILLA EU             C000000005700000000000000000000000100010010000000000000000000000F0010000008407900220160322000101 00000000000000000000000000000000000000000000000000000000000000000000000000000000000000000000000000000000000000000N 00000000000NCONT   00    00000000000          00000000000000000000000000000000000000000000 000000000000000A000000000000000000000000000000000000000000000 000000000000000000000000000000000000000     00000000                                                                                                                        000000000000000000
F0010000008407900003000090015305700042505000000000000000000201603220002001PLASTICOS Y SERVICIOS BARRANQUILLA EU             C000000001200000000000000000000000100010010000000000000000000000F0010000008407900320160322000101 00000000000000000000000000000000000000000000000000000000000000000000000000000000000000000000000000000000000000000N 00000000000NCONT   00    00000000000          00000000000000000000000000000000000000000000 000000000000000A000000000000000000000000000000000000000000000 000000000000000000000000000000000000000     00000000                                                                                                                        000000000000000000
F0010000008407900004000090015305700023658300000000000000000201603220002001PLASTICOS Y SERVICIOS BARRANQUILLA EU             C000000000045600000000000000000000100010010000000000000000000000F0010000008407900420160322000101 00000000000000000000000000000000000000000000000000000000000000000000000000000000000000000000000000000000000000000N 00000000000NCONT   00    00000000000          00000000000000000000000000000000000000000000 000000000000000A000000000000000000000000000000000000000000000 000000000000000000000000000000000000000     00000000                                                                                                                        000000000000000000
F0010000008407900005000090015305700013552100000000000000000201603220002001PLASTICOS Y SERVICIOS BARRANQUILLA EU             D000000000045600000000000000000000100010010000000000000000000000F0010000008407900520160322000101 00000000000000000000000000000000000000000000000000000000000000000000000000000000000000000000000000000000000000000N 00000000000NCONT   00    00000000000          00000000000000000000000000000000000000000000 000000000000000A000000000000000000000000000000000000000000000 000000000000000000000000000000000000000     00000000                                                                                                                        000000000000000000
F0010000008408000001000004977415500011050500000000000000000201603220002001NINFA FONSECA ROMERO                              D000000001100000000000000000000000100010010000000000000000000000F0010000008408000120160322000101 00000000000000000000000000000000000000000000000000000000000000000000000000000000000000000000000000000000000000000N 00000000000NCONT   00    00000000000          00000000000000000000000000000000000000000000 000000000000000A000000000000000000000000000000000000000000000 000000000000000000000000000000000000000     00000000                                                                                                                        000000000000000000
F0010000008408000002000004977415500041450500000000000000000201603220002001NINFA FONSECA ROMERO                              C000000001000000000000000000000000100010010000000000000000000000F0010000008408000220160322000101 00000000000000000000000000000000000000000000000000000000000000000000000000000000000000000000000000000000000000000N 00000000000NCONT   00    00000000000          00000000000000000000000000000000000000000000 000000000000000A000000000000000000000000000000000000000000000 000000000000000000000000000000000000000     00000000                                                                                                                        000000000000000000
F0010000008408000003000004977415500042505000000000000000000201603220002001NINFA FONSECA ROMERO                              C000000000100000000000000000000000100010010000000000000000000000F0010000008408000320160322000101 00000000000000000000000000000000000000000000000000000000000000000000000000000000000000000000000000000000000000000N 00000000000NCONT   00    00000000000          00000000000000000000000000000000000000000000 000000000000000A000000000000000000000000000000000000000000000 000000000000000000000000000000000000000     00000000                                                                                                                        000000000000000000
F0010000008408000004000004977415500023658300000000000000000201603220002001NINFA FONSECA ROMERO                              C000000000008000000000000000000000100010010000000000000000000000F0010000008408000420160322000101 00000000000000000000000000000000000000000000000000000000000000000000000000000000000000000000000000000000000000000N 00000000000NCONT   00    00000000000          00000000000000000000000000000000000000000000 000000000000000A000000000000000000000000000000000000000000000 000000000000000000000000000000000000000     00000000                                                                                                                        000000000000000000
F0010000008408000005000004977415500013552100000000000000000201603220002001NINFA FONSECA ROMERO                              D000000000008000000000000000000000100010010000000000000000000000F0010000008408000520160322000101 00000000000000000000000000000000000000000000000000000000000000000000000000000000000000000000000000000000000000000N 00000000000NCONT   00    00000000000          00000000000000000000000000000000000000000000 000000000000000A000000000000000000000000000000000000000000000 000000000000000000000000000000000000000     00000000                                                                                                                        000000000000000000
F0010000008408100001000090041529500011050500000000000000000201603220002001EME IMPORTACIONES ELECTRICA                       D000000000900000000000000000000000100010010000000000000000000000F0010000008408100120160322000101 00000000000000000000000000000000000000000000000000000000000000000000000000000000000000000000000000000000000000000N 00000000000NCONT   00    00000000000          00000000000000000000000000000000000000000000 000000000000000A000000000000000000000000000000000000000000000 000000000000000000000000000000000000000     00000000                                                                                                                        000000000000000000
F0010000008408100002000090041529500041450500000000000000000201603220002001EME IMPORTACIONES ELECTRICA                       C000000000650000000000000000000000100010010000000000000000000000F0010000008408100220160322000101 00000000000000000000000000000000000000000000000000000000000000000000000000000000000000000000000000000000000000000N 00000000000NCONT   00    00000000000          00000000000000000000000000000000000000000000 000000000000000A000000000000000000000000000000000000000000000 000000000000000000000000000000000000000     00000000                                                                                                                        000000000000000000
F0010000008408100003000090041529500042505000000000000000000201603220002001EME IMPORTACIONES ELECTRICA                       C000000000250000000000000000000000100010010000000000000000000000F0010000008408100320160322000101 00000000000000000000000000000000000000000000000000000000000000000000000000000000000000000000000000000000000000000N 00000000000NCONT   00    00000000000          00000000000000000000000000000000000000000000 000000000000000A000000000000000000000000000000000000000000000 000000000000000000000000000000000000000     00000000                                                                                                                        000000000000000000
F0010000008408100004000090041529500023658300000000000000000201603220002001EME IMPORTACIONES ELECTRICA                       C000000000005200000000000000000000100010010000000000000000000000F0010000008408100420160322000101 00000000000000000000000000000000000000000000000000000000000000000000000000000000000000000000000000000000000000000N 00000000000NCONT   00    00000000000          00000000000000000000000000000000000000000000 000000000000000A000000000000000000000000000000000000000000000 000000000000000000000000000000000000000     00000000                                                                                                                        000000000000000000
F0010000008408100005000090041529500013552100000000000000000201603220002001EME IMPORTACIONES ELECTRICA                       D000000000005200000000000000000000100010010000000000000000000000F0010000008408100520160322000101 00000000000000000000000000000000000000000000000000000000000000000000000000000000000000000000000000000000000000000N 00000000000NCONT   00    00000000000          00000000000000000000000000000000000000000000 000000000000000A000000000000000000000000000000000000000000000 000000000000000000000000000000000000000     00000000                                                                                                                        000000000000000000
F0010000008408200001000002245670100011050500000000000000000201603220002001YOLANDA  TOBON                                    D000000002000000000000000000000000100010010000000000000000000000F0010000008408200120160322000101 00000000000000000000000000000000000000000000000000000000000000000000000000000000000000000000000000000000000000000N 00000000000NCONT   00    00000000000          00000000000000000000000000000000000000000000 000000000000000A000000000000000000000000000000000000000000000 000000000000000000000000000000000000000     00000000                                                                                                                        000000000000000000
F0010000008408200002000002245670100041450500000000000000000201603220002001YOLANDA  TOBON                                    C000000001500000000000000000000000100010010000000000000000000000F0010000008408200220160322000101 00000000000000000000000000000000000000000000000000000000000000000000000000000000000000000000000000000000000000000N 00000000000NCONT   00    00000000000          00000000000000000000000000000000000000000000 000000000000000A000000000000000000000000000000000000000000000 000000000000000000000000000000000000000     00000000                                                                                                                        000000000000000000
F0010000008408200003000002245670100042505000000000000000000201603220002001YOLANDA  TOBON                                    C000000000500000000000000000000000100010010000000000000000000000F0010000008408200320160322000101 00000000000000000000000000000000000000000000000000000000000000000000000000000000000000000000000000000000000000000N 00000000000NCONT   00    00000000000          00000000000000000000000000000000000000000000 000000000000000A000000000000000000000000000000000000000000000 000000000000000000000000000000000000000     00000000                                                                                                                        000000000000000000
F0010000008408200004000002245670100023658300000000000000000201603220002001YOLANDA  TOBON                                    C000000000012000000000000000000000100010010000000000000000000000F0010000008408200420160322000101 00000000000000000000000000000000000000000000000000000000000000000000000000000000000000000000000000000000000000000N 00000000000NCONT   00    00000000000          00000000000000000000000000000000000000000000 000000000000000A000000000000000000000000000000000000000000000 000000000000000000000000000000000000000     00000000                                                                                                                        000000000000000000
F0010000008408200005000002245670100013552100000000000000000201603220002001YOLANDA  TOBON                                    D000000000012000000000000000000000100010010000000000000000000000F0010000008408200520160322000101 00000000000000000000000000000000000000000000000000000000000000000000000000000000000000000000000000000000000000000N 00000000000NCONT   00    00000000000          00000000000000000000000000000000000000000000 000000000000000A000000000000000000000000000000000000000000000 000000000000000000000000000000000000000     00000000                                                                                                                        000000000000000000
F0010000008408300001000000742399700011050500000000000000000201603220002001CACHARRERIA EL NUEVO CHADID                       D000000003600000000000000000000000100010010000000000000000000000F0010000008408300120160322000101 00000000000000000000000000000000000000000000000000000000000000000000000000000000000000000000000000000000000000000N 00000000000NCONT   00    00000000000          00000000000000000000000000000000000000000000 000000000000000A000000000000000000000000000000000000000000000 000000000000000000000000000000000000000     00000000                                                                                                                        000000000000000000
F0010000008408300002000000742399700041450500000000000000000201603220002001CACHARRERIA EL NUEVO CHADID                       C000000001600000000000000000000000100010010000000000000000000000F0010000008408300220160322000101 00000000000000000000000000000000000000000000000000000000000000000000000000000000000000000000000000000000000000000N 00000000000NCONT   00    00000000000          00000000000000000000000000000000000000000000 000000000000000A000000000000000000000000000000000000000000000 000000000000000000000000000000000000000     00000000                                                                                                                        000000000000000000
F0010000008408300003000000742399700042505000000000000000000201603220002001CACHARRERIA EL NUEVO CHADID                       C000000002000000000000000000000000100010010000000000000000000000F0010000008408300320160322000101 00000000000000000000000000000000000000000000000000000000000000000000000000000000000000000000000000000000000000000N 00000000000NCONT   00    00000000000          00000000000000000000000000000000000000000000 000000000000000A000000000000000000000000000000000000000000000 000000000000000000000000000000000000000     00000000                                                                                                                        000000000000000000
F0010000008408300004000000742399700023658300000000000000000201603220002001CACHARRERIA EL NUEVO CHADID                       C000000000012800000000000000000000100010010000000000000000000000F0010000008408300420160322000101 00000000000000000000000000000000000000000000000000000000000000000000000000000000000000000000000000000000000000000N 00000000000NCONT   00    00000000000          00000000000000000000000000000000000000000000 000000000000000A000000000000000000000000000000000000000000000 000000000000000000000000000000000000000     00000000                                                                                                                        000000000000000000
F0010000008408300005000000742399700013552100000000000000000201603220002001CACHARRERIA EL NUEVO CHADID                       D000000000012800000000000000000000100010010000000000000000000000F0010000008408300520160322000101 00000000000000000000000000000000000000000000000000000000000000000000000000000000000000000000000000000000000000000N 00000000000NCONT   00    00000000000          00000000000000000000000000000000000000000000 000000000000000A000000000000000000000000000000000000000000000 000000000000000000000000000000000000000     00000000                                                                                                                        000000000000000000
F0010000008408400001000002245670100011050500000000000000000201603220002001YOLANDA  TOBON                                    D000000005000000000000000000000000100010010000000000000000000000F0010000008408400120160322000101 00000000000000000000000000000000000000000000000000000000000000000000000000000000000000000000000000000000000000000N 00000000000NCONT   00    00000000000          00000000000000000000000000000000000000000000 000000000000000A000000000000000000000000000000000000000000000 000000000000000000000000000000000000000     00000000                                                                                                                        000000000000000000
F0010000008408400002000002245670100041450500000000000000000201603220002001YOLANDA  TOBON                                    C000000004000000000000000000000000100010010000000000000000000000F0010000008408400220160322000101 00000000000000000000000000000000000000000000000000000000000000000000000000000000000000000000000000000000000000000N 00000000000NCONT   00    00000000000          00000000000000000000000000000000000000000000 000000000000000A000000000000000000000000000000000000000000000 000000000000000000000000000000000000000     00000000                                                                                                                        000000000000000000
F0010000008408400003000002245670100042505000000000000000000201603220002001YOLANDA  TOBON                                    C000000001000000000000000000000000100010010000000000000000000000F0010000008408400320160322000101 00000000000000000000000000000000000000000000000000000000000000000000000000000000000000000000000000000000000000000N 00000000000NCONT   00    00000000000          00000000000000000000000000000000000000000000 000000000000000A000000000000000000000000000000000000000000000 000000000000000000000000000000000000000     00000000                                                                                                                        000000000000000000
F0010000008408400004000002245670100023658300000000000000000201603220002001YOLANDA  TOBON                                    C000000000032000000000000000000000100010010000000000000000000000F0010000008408400420160322000101 00000000000000000000000000000000000000000000000000000000000000000000000000000000000000000000000000000000000000000N 00000000000NCONT   00    00000000000          00000000000000000000000000000000000000000000 000000000000000A000000000000000000000000000000000000000000000 000000000000000000000000000000000000000     00000000                                                                                                                        000000000000000000
F0010000008408400005000002245670100013552100000000000000000201603220002001YOLANDA  TOBON                                    D000000000032000000000000000000000100010010000000000000000000000F0010000008408400520160322000101 00000000000000000000000000000000000000000000000000000000000000000000000000000000000000000000000000000000000000000N 00000000000NCONT   00    00000000000          00000000000000000000000000000000000000000000 000000000000000A000000000000000000000000000000000000000000000 000000000000000000000000000000000000000     00000000                                                                                                                        000000000000000000
F0010000008408500001000080202350700011050500000000000000000201603220002001CONNY DE LA COSTA SAS                             D000000000900000000000000000000000100010010000000000000000000000F0010000008408500120160322000101 00000000000000000000000000000000000000000000000000000000000000000000000000000000000000000000000000000000000000000N 00000000000NCONT   00    00000000000          00000000000000000000000000000000000000000000 000000000000000A000000000000000000000000000000000000000000000 000000000000000000000000000000000000000     00000000                                                                                                                        000000000000000000
F0010000008408500002000080202350700041450500000000000000000201603220002001CONNY DE LA COSTA SAS                             C000000000800000000000000000000000100010010000000000000000000000F0010000008408500220160322000101 00000000000000000000000000000000000000000000000000000000000000000000000000000000000000000000000000000000000000000N 00000000000NCONT   00    00000000000          00000000000000000000000000000000000000000000 000000000000000A000000000000000000000000000000000000000000000 000000000000000000000000000000000000000     00000000                                                                                                                        000000000000000000
F0010000008408500003000080202350700042505000000000000000000201603220002001CONNY DE LA COSTA SAS                             C000000000100000000000000000000000100010010000000000000000000000F0010000008408500320160322000101 00000000000000000000000000000000000000000000000000000000000000000000000000000000000000000000000000000000000000000N 00000000000NCONT   00    00000000000          00000000000000000000000000000000000000000000 000000000000000A000000000000000000000000000000000000000000000 000000000000000000000000000000000000000     00000000                                                                                                                        000000000000000000
F0010000008408500004000080202350700023658300000000000000000201603220002001CONNY DE LA COSTA SAS                             C000000000006400000000000000000000100010010000000000000000000000F0010000008408500420160322000101 00000000000000000000000000000000000000000000000000000000000000000000000000000000000000000000000000000000000000000N 00000000000NCONT   00    00000000000          00000000000000000000000000000000000000000000 000000000000000A000000000000000000000000000000000000000000000 000000000000000000000000000000000000000     00000000                                                                                                                        000000000000000000
F0010000008408500005000080202350700013552100000000000000000201603220002001CONNY DE LA COSTA SAS                             D000000000006400000000000000000000100010010000000000000000000000F0010000008408500520160322000101 00000000000000000000000000000000000000000000000000000000000000000000000000000000000000000000000000000000000000000N 00000000000NCONT   00    00000000000          00000000000000000000000000000000000000000000 000000000000000A000000000000000000000000000000000000000000000 000000000000000000000000000000000000000     00000000                                                                                                                        000000000000000000
F0010000008408600001000090061985600011050500000000000000000201603220002001COMERCIALIZADORA PATRY SAS                        D000000008500000000000000000000000100010010000000000000000000000F0010000008408600120160322000101 00000000000000000000000000000000000000000000000000000000000000000000000000000000000000000000000000000000000000000N 00000000000NCONT   00    00000000000          00000000000000000000000000000000000000000000 000000000000000A000000000000000000000000000000000000000000000 000000000000000000000000000000000000000     00000000                                                                                                                        000000000000000000
F0010000008408600002000090061985600041450500000000000000000201603220002001COMERCIALIZADORA PATRY SAS                        C000000007000000000000000000000000100010010000000000000000000000F0010000008408600220160322000101 00000000000000000000000000000000000000000000000000000000000000000000000000000000000000000000000000000000000000000N 00000000000NCONT   00    00000000000          00000000000000000000000000000000000000000000 000000000000000A000000000000000000000000000000000000000000000 000000000000000000000000000000000000000     00000000                                                                                                                        000000000000000000
F0010000008408600003000090061985600042505000000000000000000201603220002001COMERCIALIZADORA PATRY SAS                        C000000001500000000000000000000000100010010000000000000000000000F0010000008408600320160322000101 00000000000000000000000000000000000000000000000000000000000000000000000000000000000000000000000000000000000000000N 00000000000NCONT   00    00000000000          00000000000000000000000000000000000000000000 000000000000000A000000000000000000000000000000000000000000000 000000000000000000000000000000000000000     00000000                                                                                                                        000000000000000000
F0010000008408600004000090061985600023658300000000000000000201603220002001COMERCIALIZADORA PATRY SAS                        C000000000056000000000000000000000100010010000000000000000000000F0010000008408600420160322000101 00000000000000000000000000000000000000000000000000000000000000000000000000000000000000000000000000000000000000000N 00000000000NCONT   00    00000000000          00000000000000000000000000000000000000000000 000000000000000A000000000000000000000000000000000000000000000 000000000000000000000000000000000000000     00000000                                                                                                                        000000000000000000
F0010000008408600005000090061985600013552100000000000000000201603220002001COMERCIALIZADORA PATRY SAS                        D000000000056000000000000000000000100010010000000000000000000000F0010000008408600520160322000101 00000000000000000000000000000000000000000000000000000000000000000000000000000000000000000000000000000000000000000N 00000000000NCONT   00    00000000000          00000000000000000000000000000000000000000000 000000000000000A000000000000000000000000000000000000000000000 000000000000000000000000000000000000000     00000000                                                                                                                        000000000000000000
F0010000008408700001000090061985600011050500000000000000000201603220002001COMERCIALIZADORA PATRY SAS                        D000000001150000000000000000000000100010010000000000000000000000F0010000008408700120160322000101 00000000000000000000000000000000000000000000000000000000000000000000000000000000000000000000000000000000000000000N 00000000000NCONT   00    00000000000          00000000000000000000000000000000000000000000 000000000000000A000000000000000000000000000000000000000000000 000000000000000000000000000000000000000     00000000                                                                                                                        000000000000000000
F0010000008408700002000090061985600041450500000000000000000201603220002001COMERCIALIZADORA PATRY SAS                        C000000000900000000000000000000000100010010000000000000000000000F0010000008408700220160322000101 00000000000000000000000000000000000000000000000000000000000000000000000000000000000000000000000000000000000000000N 00000000000NCONT   00    00000000000          00000000000000000000000000000000000000000000 000000000000000A000000000000000000000000000000000000000000000 000000000000000000000000000000000000000     00000000                                                                                                                        000000000000000000
F0010000008408700003000090061985600042505000000000000000000201603220002001COMERCIALIZADORA PATRY SAS                        C000000000250000000000000000000000100010010000000000000000000000F0010000008408700320160322000101 00000000000000000000000000000000000000000000000000000000000000000000000000000000000000000000000000000000000000000N 00000000000NCONT   00    00000000000          00000000000000000000000000000000000000000000 000000000000000A000000000000000000000000000000000000000000000 000000000000000000000000000000000000000     00000000                                                                                                                        000000000000000000
F0010000008408700004000090061985600023658300000000000000000201603220002001COMERCIALIZADORA PATRY SAS                        C000000000007200000000000000000000100010010000000000000000000000F0010000008408700420160322000101 00000000000000000000000000000000000000000000000000000000000000000000000000000000000000000000000000000000000000000N 00000000000NCONT   00    00000000000          00000000000000000000000000000000000000000000 000000000000000A000000000000000000000000000000000000000000000 000000000000000000000000000000000000000     00000000                                                                                                                        000000000000000000
F0010000008408700005000090061985600013552100000000000000000201603220002001COMERCIALIZADORA PATRY SAS                        D000000000007200000000000000000000100010010000000000000000000000F0010000008408700520160322000101 00000000000000000000000000000000000000000000000000000000000000000000000000000000000000000000000000000000000000000N 00000000000NCONT   00    00000000000          00000000000000000000000000000000000000000000 000000000000000A000000000000000000000000000000000000000000000 000000000000000000000000000000000000000     00000000                                                                                                                        000000000000000000
F0010000008408800001000114085854800011050500000000000000000201603220002001DAVID ANTONIO BARROS ARRIETA                      D000000002100000000000000000000000100010010000000000000000000000F0010000008408800120160322000101 00000000000000000000000000000000000000000000000000000000000000000000000000000000000000000000000000000000000000000N 00000000000NCONT   00    00000000000          00000000000000000000000000000000000000000000 000000000000000A000000000000000000000000000000000000000000000 000000000000000000000000000000000000000     00000000                                                                                                                        000000000000000000
F0010000008408800002000114085854800041450500000000000000000201603220002001DAVID ANTONIO BARROS ARRIETA                      C000000001800000000000000000000000100010010000000000000000000000F0010000008408800220160322000101 00000000000000000000000000000000000000000000000000000000000000000000000000000000000000000000000000000000000000000N 00000000000NCONT   00    00000000000          00000000000000000000000000000000000000000000 000000000000000A000000000000000000000000000000000000000000000 000000000000000000000000000000000000000     00000000                                                                                                                        000000000000000000
F0010000008408800003000114085854800042505000000000000000000201603220002001DAVID ANTONIO BARROS ARRIETA                      C000000000300000000000000000000000100010010000000000000000000000F0010000008408800320160322000101 00000000000000000000000000000000000000000000000000000000000000000000000000000000000000000000000000000000000000000N 00000000000NCONT   00    00000000000          00000000000000000000000000000000000000000000 000000000000000A000000000000000000000000000000000000000000000 000000000000000000000000000000000000000     00000000                                                                                                                        000000000000000000
F0010000008408800004000114085854800023658300000000000000000201603220002001DAVID ANTONIO BARROS ARRIETA                      C000000000014400000000000000000000100010010000000000000000000000F0010000008408800420160322000101 00000000000000000000000000000000000000000000000000000000000000000000000000000000000000000000000000000000000000000N 00000000000NCONT   00    00000000000          00000000000000000000000000000000000000000000 000000000000000A000000000000000000000000000000000000000000000 000000000000000000000000000000000000000     00000000                                                                                                                        000000000000000000
F0010000008408800005000114085854800013552100000000000000000201603220002001DAVID ANTONIO BARROS ARRIETA                      D000000000014400000000000000000000100010010000000000000000000000F0010000008408800520160322000101 00000000000000000000000000000000000000000000000000000000000000000000000000000000000000000000000000000000000000000N 00000000000NCONT   00    00000000000          00000000000000000000000000000000000000000000 000000000000000A000000000000000000000000000000000000000000000 000000000000000000000000000000000000000     00000000                                                                                                                        000000000000000000
F0010000008408900001000007225511500011050500000000000000000201603220002001MAIGEL CHADID                                     D000000001000000000000000000000000100010010000000000000000000000F0010000008408900120160322000101 00000000000000000000000000000000000000000000000000000000000000000000000000000000000000000000000000000000000000000N 00000000000NCONT   00    00000000000          00000000000000000000000000000000000000000000 000000000000000A000000000000000000000000000000000000000000000 000000000000000000000000000000000000000     00000000                                                                                                                        000000000000000000
F0010000008408900002000007225511500041450500000000000000000201603220002001MAIGEL CHADID                                     C000000000800000000000000000000000100010010000000000000000000000F0010000008408900220160322000101 00000000000000000000000000000000000000000000000000000000000000000000000000000000000000000000000000000000000000000N 00000000000NCONT   00    00000000000          00000000000000000000000000000000000000000000 000000000000000A000000000000000000000000000000000000000000000 000000000000000000000000000000000000000     00000000                                                                                                                        000000000000000000
F0010000008408900003000007225511500042505000000000000000000201603220002001MAIGEL CHADID                                     C000000000200000000000000000000000100010010000000000000000000000F0010000008408900320160322000101 00000000000000000000000000000000000000000000000000000000000000000000000000000000000000000000000000000000000000000N 00000000000NCONT   00    00000000000          00000000000000000000000000000000000000000000 000000000000000A000000000000000000000000000000000000000000000 000000000000000000000000000000000000000     00000000                                                                                                                        000000000000000000
F0010000008408900004000007225511500023658300000000000000000201603220002001MAIGEL CHADID                                     C000000000006400000000000000000000100010010000000000000000000000F0010000008408900420160322000101 00000000000000000000000000000000000000000000000000000000000000000000000000000000000000000000000000000000000000000N 00000000000NCONT   00    00000000000          00000000000000000000000000000000000000000000 000000000000000A000000000000000000000000000000000000000000000 000000000000000000000000000000000000000     00000000                                                                                                                        000000000000000000
F0010000008408900005000007225511500013552100000000000000000201603220002001MAIGEL CHADID                                     D000000000006400000000000000000000100010010000000000000000000000F0010000008408900520160322000101 00000000000000000000000000000000000000000000000000000000000000000000000000000000000000000000000000000000000000000N 00000000000NCONT   00    00000000000          00000000000000000000000000000000000000000000 000000000000000A000000000000000000000000000000000000000000000 000000000000000000000000000000000000000     00000000                                                                                                                        000000000000000000
F0010000008409000001000090050144800011050500000000000000000201603220002001PLASTICOS JR ASOCIADOS SAS                        D000000003300000000000000000000000100010010000000000000000000000F0010000008409000120160322000101 00000000000000000000000000000000000000000000000000000000000000000000000000000000000000000000000000000000000000000N 00000000000NCONT   00    00000000000          00000000000000000000000000000000000000000000 000000000000000A000000000000000000000000000000000000000000000 000000000000000000000000000000000000000     00000000                                                                                                                        000000000000000000
F0010000008409000002000090050144800041450500000000000000000201603220002001PLASTICOS JR ASOCIADOS SAS                        C000000003000000000000000000000000100010010000000000000000000000F0010000008409000220160322000101 00000000000000000000000000000000000000000000000000000000000000000000000000000000000000000000000000000000000000000N 00000000000NCONT   00    00000000000          00000000000000000000000000000000000000000000 000000000000000A000000000000000000000000000000000000000000000 000000000000000000000000000000000000000     00000000                                                                                                                        000000000000000000
F0010000008409000003000090050144800042505000000000000000000201603220002001PLASTICOS JR ASOCIADOS SAS                        C000000000300000000000000000000000100010010000000000000000000000F0010000008409000320160322000101 00000000000000000000000000000000000000000000000000000000000000000000000000000000000000000000000000000000000000000N 00000000000NCONT   00    00000000000          00000000000000000000000000000000000000000000 000000000000000A000000000000000000000000000000000000000000000 000000000000000000000000000000000000000     00000000                                                                                                                        000000000000000000
F0010000008409000004000090050144800023658300000000000000000201603220002001PLASTICOS JR ASOCIADOS SAS                        C000000000024000000000000000000000100010010000000000000000000000F0010000008409000420160322000101 00000000000000000000000000000000000000000000000000000000000000000000000000000000000000000000000000000000000000000N 00000000000NCONT   00    00000000000          00000000000000000000000000000000000000000000 000000000000000A000000000000000000000000000000000000000000000 000000000000000000000000000000000000000     00000000                                                                                                                        000000000000000000
F0010000008409000005000090050144800013552100000000000000000201603220002001PLASTICOS JR ASOCIADOS SAS                        D000000000024000000000000000000000100010010000000000000000000000F0010000008409000520160322000101 00000000000000000000000000000000000000000000000000000000000000000000000000000000000000000000000000000000000000000N 00000000000NCONT   00    00000000000          00000000000000000000000000000000000000000000 000000000000000A000000000000000000000000000000000000000000000 000000000000000000000000000000000000000     00000000                                                                                                                        000000000000000000
F0010000008409100001000005523066700011050500000000000000000201603220002001ANGELICA NIO                                    D000000003750000000000000000000000100010010000000000000000000000F0010000008409100120160322000101 00000000000000000000000000000000000000000000000000000000000000000000000000000000000000000000000000000000000000000N 00000000000NCONT   00    00000000000          00000000000000000000000000000000000000000000 000000000000000A000000000000000000000000000000000000000000000 000000000000000000000000000000000000000     00000000                                                                                                                        000000000000000000
F0010000008409100002000005523066700041450500000000000000000201603220002001ANGELICA NIO                                    C000000003600000000000000000000000100010010000000000000000000000F0010000008409100220160322000101 00000000000000000000000000000000000000000000000000000000000000000000000000000000000000000000000000000000000000000N 00000000000NCONT   00    00000000000          00000000000000000000000000000000000000000000 000000000000000A000000000000000000000000000000000000000000000 000000000000000000000000000000000000000     00000000                                                                                                                        000000000000000000
F0010000008409100003000005523066700042505000000000000000000201603220002001ANGELICA NIO                                    C000000000150000000000000000000000100010010000000000000000000000F0010000008409100320160322000101 00000000000000000000000000000000000000000000000000000000000000000000000000000000000000000000000000000000000000000N 00000000000NCONT   00    00000000000          00000000000000000000000000000000000000000000 000000000000000A000000000000000000000000000000000000000000000 000000000000000000000000000000000000000     00000000                                                                                                                        000000000000000000
F0010000008409100004000005523066700023658300000000000000000201603220002001ANGELICA NIO                                    C000000000028800000000000000000000100010010000000000000000000000F0010000008409100420160322000101 00000000000000000000000000000000000000000000000000000000000000000000000000000000000000000000000000000000000000000N 00000000000NCONT   00    00000000000          00000000000000000000000000000000000000000000 000000000000000A000000000000000000000000000000000000000000000 000000000000000000000000000000000000000     00000000                                                                                                                        000000000000000000
F0010000008409100005000005523066700013552100000000000000000201603220002001ANGELICA NIO                                    D000000000028800000000000000000000100010010000000000000000000000F0010000008409100520160322000101 00000000000000000000000000000000000000000000000000000000000000000000000000000000000000000000000000000000000000000N 00000000000NCONT   00    00000000000          00000000000000000000000000000000000000000000 000000000000000A000000000000000000000000000000000000000000000 000000000000000000000000000000000000000     00000000                                                                                                                        000000000000000000
F0010000008409200001000080023327700011050500000000000000000201603220002001DISINCO LTDA                                      D000000003004000000000000000000000100010010000000000000000000000F0010000008409200120160322000101 00000000000000000000000000000000000000000000000000000000000000000000000000000000000000000000000000000000000000000N 00000000000NCONT   00    00000000000          00000000000000000000000000000000000000000000 000000000000000A000000000000000000000000000000000000000000000 000000000000000000000000000000000000000     00000000                                                                                                                        000000000000000000
F0010000008409200002000080023327700041450500000000000000000201603220002001DISINCO LTDA                                      C000000002904000000000000000000000100010010000000000000000000000F0010000008409200220160322000101 00000000000000000000000000000000000000000000000000000000000000000000000000000000000000000000000000000000000000000N 00000000000NCONT   00    00000000000          00000000000000000000000000000000000000000000 000000000000000A000000000000000000000000000000000000000000000 000000000000000000000000000000000000000     00000000                                                                                                                        000000000000000000
F0010000008409200003000080023327700042505000000000000000000201603220002001DISINCO LTDA                                      C000000000100000000000000000000000100010010000000000000000000000F0010000008409200320160322000101 00000000000000000000000000000000000000000000000000000000000000000000000000000000000000000000000000000000000000000N 00000000000NCONT   00    00000000000          00000000000000000000000000000000000000000000 000000000000000A000000000000000000000000000000000000000000000 000000000000000000000000000000000000000     00000000                                                                                                                        000000000000000000
F0010000008409200004000080023327700023658300000000000000000201603220002001DISINCO LTDA                                      C000000000023200000000000000000000100010010000000000000000000000F0010000008409200420160322000101 00000000000000000000000000000000000000000000000000000000000000000000000000000000000000000000000000000000000000000N 00000000000NCONT   00    00000000000          00000000000000000000000000000000000000000000 000000000000000A000000000000000000000000000000000000000000000 000000000000000000000000000000000000000     00000000                                                                                                                        000000000000000000
F0010000008409200005000080023327700013552100000000000000000201603220002001DISINCO LTDA                                      D000000000023200000000000000000000100010010000000000000000000000F0010000008409200520160322000101 00000000000000000000000000000000000000000000000000000000000000000000000000000000000000000000000000000000000000000N 00000000000NCONT   00    00000000000          00000000000000000000000000000000000000000000 000000000000000A000000000000000000000000000000000000000000000 000000000000000000000000000000000000000     00000000                                                                                                                        000000000000000000
F0010000008409300001000007229328500011050500000000000000000201603220002001PV ELECTRIC   DEL CARIBE                          D000000003500000000000000000000000100010010000000000000000000000F0010000008409300120160322000101 00000000000000000000000000000000000000000000000000000000000000000000000000000000000000000000000000000000000000000N 00000000000NCONT   00    00000000000          00000000000000000000000000000000000000000000 000000000000000A000000000000000000000000000000000000000000000 000000000000000000000000000000000000000     00000000                                                                                                                        000000000000000000
F0010000008409300002000007229328500041450500000000000000000201603220002001PV ELECTRIC   DEL CARIBE                          C000000003200000000000000000000000100010010000000000000000000000F0010000008409300220160322000101 00000000000000000000000000000000000000000000000000000000000000000000000000000000000000000000000000000000000000000N 00000000000NCONT   00    00000000000          00000000000000000000000000000000000000000000 000000000000000A000000000000000000000000000000000000000000000 000000000000000000000000000000000000000     00000000                                                                                                                        000000000000000000
F0010000008409300003000007229328500042505000000000000000000201603220002001PV ELECTRIC   DEL CARIBE                          C000000000300000000000000000000000100010010000000000000000000000F0010000008409300320160322000101 00000000000000000000000000000000000000000000000000000000000000000000000000000000000000000000000000000000000000000N 00000000000NCONT   00    00000000000          00000000000000000000000000000000000000000000 000000000000000A000000000000000000000000000000000000000000000 000000000000000000000000000000000000000     00000000                                                                                                                        000000000000000000
F0010000008409300004000007229328500023658300000000000000000201603220002001PV ELECTRIC   DEL CARIBE                          C000000000025600000000000000000000100010010000000000000000000000F0010000008409300420160322000101 00000000000000000000000000000000000000000000000000000000000000000000000000000000000000000000000000000000000000000N 00000000000NCONT   00    00000000000          00000000000000000000000000000000000000000000 000000000000000A000000000000000000000000000000000000000000000 000000000000000000000000000000000000000     00000000                                                                                                                        000000000000000000
F0010000008409300005000007229328500013552100000000000000000201603220002001PV ELECTRIC   DEL CARIBE                          D000000000025600000000000000000000100010010000000000000000000000F0010000008409300520160322000101 00000000000000000000000000000000000000000000000000000000000000000000000000000000000000000000000000000000000000000N 00000000000NCONT   00    00000000000          00000000000000000000000000000000000000000000 000000000000000A000000000000000000000000000000000000000000000 000000000000000000000000000000000000000     00000000                                                                                                                        000000000000000000
F0010000008409400001000007229328500011050500000000000000000201603220002001PV ELECTRIC   DEL CARIBE                          D000000003600000000000000000000000100010010000000000000000000000F0010000008409400120160322000101 00000000000000000000000000000000000000000000000000000000000000000000000000000000000000000000000000000000000000000N 00000000000NCONT   00    00000000000          00000000000000000000000000000000000000000000 000000000000000A000000000000000000000000000000000000000000000 000000000000000000000000000000000000000     00000000                                                                                                                        000000000000000000
F0010000008409400002000007229328500041450500000000000000000201603220002001PV ELECTRIC   DEL CARIBE                          C000000003200000000000000000000000100010010000000000000000000000F0010000008409400220160322000101 00000000000000000000000000000000000000000000000000000000000000000000000000000000000000000000000000000000000000000N 00000000000NCONT   00    00000000000          00000000000000000000000000000000000000000000 000000000000000A000000000000000000000000000000000000000000000 000000000000000000000000000000000000000     00000000                                                                                                                        000000000000000000
