F0010000008026200001000009120302700011050500000000000000000201512130002001CALZADO REY ESTEBAN                               D000000001600000000000000000000000100010010000000000000000000000F0010000008026200120151213000101 00000000000000000000000000000000000000000000000000000000000000000000000000000000000000000000000000000000000000000N 00000000000NCONT   00    00000000000          00000000000000000000000000000000000000000000 000000000000000A000000000000000000000000000000000000000000000 000000000000000000000000000000000000000     00000000                                                                                                                        000000000000000000
F0010000008026200002000009120302700041450500000000000000000201512130002001CALZADO REY ESTEBAN                               C000000001300000000000000000000000100010010000000000000000000000F0010000008026200220151213000101 00000000000000000000000000000000000000000000000000000000000000000000000000000000000000000000000000000000000000000N 00000000000NCONT   00    00000000000          00000000000000000000000000000000000000000000 000000000000000A000000000000000000000000000000000000000000000 000000000000000000000000000000000000000     00000000                                                                                                                        000000000000000000
F0010000008026200003000009120302700042505000000000000000000201512130002001CALZADO REY ESTEBAN                               C000000000300000000000000000000000100010010000000000000000000000F0010000008026200320151213000101 00000000000000000000000000000000000000000000000000000000000000000000000000000000000000000000000000000000000000000N 00000000000NCONT   00    00000000000          00000000000000000000000000000000000000000000 000000000000000A000000000000000000000000000000000000000000000 000000000000000000000000000000000000000     00000000                                                                                                                        000000000000000000
F0010000008026200004000009120302700023658300000000000000000201512130002001CALZADO REY ESTEBAN                               C000000000010400000000000000000000100010010000000000000000000000F0010000008026200420151213000101 00000000000000000000000000000000000000000000000000000000000000000000000000000000000000000000000000000000000000000N 00000000000NCONT   00    00000000000          00000000000000000000000000000000000000000000 000000000000000A000000000000000000000000000000000000000000000 000000000000000000000000000000000000000     00000000                                                                                                                        000000000000000000
F0010000008026200005000009120302700013552100000000000000000201512130002001CALZADO REY ESTEBAN                               D000000000010400000000000000000000100010010000000000000000000000F0010000008026200520151213000101 00000000000000000000000000000000000000000000000000000000000000000000000000000000000000000000000000000000000000000N 00000000000NCONT   00    00000000000          00000000000000000000000000000000000000000000 000000000000000A000000000000000000000000000000000000000000000 000000000000000000000000000000000000000     00000000                                                                                                                        000000000000000000
