F0010000008079400001000080201112800013050500000000000000000201512220002001CANGURO INTERNATIONAL S.A.                        D000000140580400000000000000000000100010010000000000000000000000F0010000008079400120151222000101 00000000000000000000000000000000000000000000000000000000000000000000000000000000000000000000000000000000000000000N 00000000000NCONT   00    00000000000          00000000000000000000000000000000000000000000 000000000000000A000000000000000000000000000000000000000000000 000000000000000000000000000000000000000     00000000                                                                                                                        000000000000000000
F0010000008079400002000080201112800041450500000000000000000201512220002001CANGURO INTERNATIONAL S.A.                        C000000136800400000000000000000000100010010000000000000000000000F0010000008079400220151222000101 00000000000000000000000000000000000000000000000000000000000000000000000000000000000000000000000000000000000000000N 00000000000NCONT   00    00000000000          00000000000000000000000000000000000000000000 000000000000000A000000000000000000000000000000000000000000000 000000000000000000000000000000000000000     00000000                                                                                                                        000000000000000000
F0010000008079400003000080201112800042505000000000000000000201512220002001CANGURO INTERNATIONAL S.A.                        C000000003780000000000000000000000100010010000000000000000000000F0010000008079400320151222000101 00000000000000000000000000000000000000000000000000000000000000000000000000000000000000000000000000000000000000000N 00000000000NCONT   00    00000000000          00000000000000000000000000000000000000000000 000000000000000A000000000000000000000000000000000000000000000 000000000000000000000000000000000000000     00000000                                                                                                                        000000000000000000
F0010000008079400004000080201112800023658300000000000000000201512220002001CANGURO INTERNATIONAL S.A.                        C000000001094400000000000000000000100010010000000000000000000000F0010000008079400420151222000101 00000000000000000000000000000000000000000000000000000000000000000000000000000000000000000000000000000000000000000N 00000000000NCONT   00    00000000000          00000000000000000000000000000000000000000000 000000000000000A000000000000000000000000000000000000000000000 000000000000000000000000000000000000000     00000000                                                                                                                        000000000000000000
F0010000008079400005000080201112800013552100000000000000000201512220002001CANGURO INTERNATIONAL S.A.                        D000000001094400000000000000000000100010010000000000000000000000F0010000008079400520151222000101 00000000000000000000000000000000000000000000000000000000000000000000000000000000000000000000000000000000000000000N 00000000000NCONT   00    00000000000          00000000000000000000000000000000000000000000 000000000000000A000000000000000000000000000000000000000000000 000000000000000000000000000000000000000     00000000                                                                                                                        000000000000000000
F0010000008079500001000080201112800013050500000000000000000201512220002001CANGURO INTERNATIONAL S.A.                        D000000082907500000000000000000000100010010000000000000000000000F0010000008079500120151222000101 00000000000000000000000000000000000000000000000000000000000000000000000000000000000000000000000000000000000000000N 00000000000NCONT   00    00000000000          00000000000000000000000000000000000000000000 000000000000000A000000000000000000000000000000000000000000000 000000000000000000000000000000000000000     00000000                                                                                                                        000000000000000000
F0010000008079500002000080201112800041450500000000000000000201512220002001CANGURO INTERNATIONAL S.A.                        C000000081183000000000000000000000100010010000000000000000000000F0010000008079500220151222000101 00000000000000000000000000000000000000000000000000000000000000000000000000000000000000000000000000000000000000000N 00000000000NCONT   00    00000000000          00000000000000000000000000000000000000000000 000000000000000A000000000000000000000000000000000000000000000 000000000000000000000000000000000000000     00000000                                                                                                                        000000000000000000
F0010000008079500003000080201112800042505000000000000000000201512220002001CANGURO INTERNATIONAL S.A.                        C000000001724500000000000000000000100010010000000000000000000000F0010000008079500320151222000101 00000000000000000000000000000000000000000000000000000000000000000000000000000000000000000000000000000000000000000N 00000000000NCONT   00    00000000000          00000000000000000000000000000000000000000000 000000000000000A000000000000000000000000000000000000000000000 000000000000000000000000000000000000000     00000000                                                                                                                        000000000000000000
F0010000008079500004000080201112800023658300000000000000000201512220002001CANGURO INTERNATIONAL S.A.                        C000000000649500000000000000000000100010010000000000000000000000F0010000008079500420151222000101 00000000000000000000000000000000000000000000000000000000000000000000000000000000000000000000000000000000000000000N 00000000000NCONT   00    00000000000          00000000000000000000000000000000000000000000 000000000000000A000000000000000000000000000000000000000000000 000000000000000000000000000000000000000     00000000                                                                                                                        000000000000000000
F0010000008079500005000080201112800013552100000000000000000201512220002001CANGURO INTERNATIONAL S.A.                        D000000000649500000000000000000000100010010000000000000000000000F0010000008079500520151222000101 00000000000000000000000000000000000000000000000000000000000000000000000000000000000000000000000000000000000000000N 00000000000NCONT   00    00000000000          00000000000000000000000000000000000000000000 000000000000000A000000000000000000000000000000000000000000000 000000000000000000000000000000000000000     00000000                                                                                                                        000000000000000000
F0010000008079600001000090020547900011050500000000000000000201512220002001COMERCIALIZADORA DAC DEL CARIBE S.A.S.            D000000005200000000000000000000000100010010000000000000000000000F0010000008079600120151222000101 00000000000000000000000000000000000000000000000000000000000000000000000000000000000000000000000000000000000000000N 00000000000NCONT   00    00000000000          00000000000000000000000000000000000000000000 000000000000000A000000000000000000000000000000000000000000000 000000000000000000000000000000000000000     00000000                                                                                                                        000000000000000000
F0010000008079600002000090020547900041450500000000000000000201512220002001COMERCIALIZADORA DAC DEL CARIBE S.A.S.            C000000004400000000000000000000000100010010000000000000000000000F0010000008079600220151222000101 00000000000000000000000000000000000000000000000000000000000000000000000000000000000000000000000000000000000000000N 00000000000NCONT   00    00000000000          00000000000000000000000000000000000000000000 000000000000000A000000000000000000000000000000000000000000000 000000000000000000000000000000000000000     00000000                                                                                                                        000000000000000000
F0010000008079600003000090020547900042505000000000000000000201512220002001COMERCIALIZADORA DAC DEL CARIBE S.A.S.            C000000000800000000000000000000000100010010000000000000000000000F0010000008079600320151222000101 00000000000000000000000000000000000000000000000000000000000000000000000000000000000000000000000000000000000000000N 00000000000NCONT   00    00000000000          00000000000000000000000000000000000000000000 000000000000000A000000000000000000000000000000000000000000000 000000000000000000000000000000000000000     00000000                                                                                                                        000000000000000000
F0010000008079600004000090020547900023658300000000000000000201512220002001COMERCIALIZADORA DAC DEL CARIBE S.A.S.            C000000000035200000000000000000000100010010000000000000000000000F0010000008079600420151222000101 00000000000000000000000000000000000000000000000000000000000000000000000000000000000000000000000000000000000000000N 00000000000NCONT   00    00000000000          00000000000000000000000000000000000000000000 000000000000000A000000000000000000000000000000000000000000000 000000000000000000000000000000000000000     00000000                                                                                                                        000000000000000000
F0010000008079600005000090020547900013552100000000000000000201512220002001COMERCIALIZADORA DAC DEL CARIBE S.A.S.            D000000000035200000000000000000000100010010000000000000000000000F0010000008079600520151222000101 00000000000000000000000000000000000000000000000000000000000000000000000000000000000000000000000000000000000000000N 00000000000NCONT   00    00000000000          00000000000000000000000000000000000000000000 000000000000000A000000000000000000000000000000000000000000000 000000000000000000000000000000000000000     00000000                                                                                                                        000000000000000000
F0010000008079700001000090087617400011050500000000000000000201512220002001MASTERGLASS PREMIUM GROUP SAS                     D000000010000000000000000000000000100010010000000000000000000000F0010000008079700120151222000101 00000000000000000000000000000000000000000000000000000000000000000000000000000000000000000000000000000000000000000N 00000000000NCONT   00    00000000000          00000000000000000000000000000000000000000000 000000000000000A000000000000000000000000000000000000000000000 000000000000000000000000000000000000000     00000000                                                                                                                        000000000000000000
F0010000008079700002000090087617400041450500000000000000000201512220002001MASTERGLASS PREMIUM GROUP SAS                     C000000007500000000000000000000000100010010000000000000000000000F0010000008079700220151222000101 00000000000000000000000000000000000000000000000000000000000000000000000000000000000000000000000000000000000000000N 00000000000NCONT   00    00000000000          00000000000000000000000000000000000000000000 000000000000000A000000000000000000000000000000000000000000000 000000000000000000000000000000000000000     00000000                                                                                                                        000000000000000000
F0010000008079700003000090087617400042505000000000000000000201512220002001MASTERGLASS PREMIUM GROUP SAS                     C000000002500000000000000000000000100010010000000000000000000000F0010000008079700320151222000101 00000000000000000000000000000000000000000000000000000000000000000000000000000000000000000000000000000000000000000N 00000000000NCONT   00    00000000000          00000000000000000000000000000000000000000000 000000000000000A000000000000000000000000000000000000000000000 000000000000000000000000000000000000000     00000000                                                                                                                        000000000000000000
F0010000008079700004000090087617400023658300000000000000000201512220002001MASTERGLASS PREMIUM GROUP SAS                     C000000000060000000000000000000000100010010000000000000000000000F0010000008079700420151222000101 00000000000000000000000000000000000000000000000000000000000000000000000000000000000000000000000000000000000000000N 00000000000NCONT   00    00000000000          00000000000000000000000000000000000000000000 000000000000000A000000000000000000000000000000000000000000000 000000000000000000000000000000000000000     00000000                                                                                                                        000000000000000000
F0010000008079700005000090087617400013552100000000000000000201512220002001MASTERGLASS PREMIUM GROUP SAS                     D000000000060000000000000000000000100010010000000000000000000000F0010000008079700520151222000101 00000000000000000000000000000000000000000000000000000000000000000000000000000000000000000000000000000000000000000N 00000000000NCONT   00    00000000000          00000000000000000000000000000000000000000000 000000000000000A000000000000000000000000000000000000000000000 000000000000000000000000000000000000000     00000000                                                                                                                        000000000000000000
F0010000008079800001000000869402400011050500000000000000000201512220002001ISRAEL MANGA                                      D000000003000000000000000000000000100010010000000000000000000000F0010000008079800120151222000101 00000000000000000000000000000000000000000000000000000000000000000000000000000000000000000000000000000000000000000N 00000000000NCONT   00    00000000000          00000000000000000000000000000000000000000000 000000000000000A000000000000000000000000000000000000000000000 000000000000000000000000000000000000000     00000000                                                                                                                        000000000000000000
F0010000008079800002000000869402400041450500000000000000000201512220002001ISRAEL MANGA                                      C000000002600000000000000000000000100010010000000000000000000000F0010000008079800220151222000101 00000000000000000000000000000000000000000000000000000000000000000000000000000000000000000000000000000000000000000N 00000000000NCONT   00    00000000000          00000000000000000000000000000000000000000000 000000000000000A000000000000000000000000000000000000000000000 000000000000000000000000000000000000000     00000000                                                                                                                        000000000000000000
F0010000008079800003000000869402400042505000000000000000000201512220002001ISRAEL MANGA                                      C000000000400000000000000000000000100010010000000000000000000000F0010000008079800320151222000101 00000000000000000000000000000000000000000000000000000000000000000000000000000000000000000000000000000000000000000N 00000000000NCONT   00    00000000000          00000000000000000000000000000000000000000000 000000000000000A000000000000000000000000000000000000000000000 000000000000000000000000000000000000000     00000000                                                                                                                        000000000000000000
F0010000008079800004000000869402400023658300000000000000000201512220002001ISRAEL MANGA                                      C000000000020800000000000000000000100010010000000000000000000000F0010000008079800420151222000101 00000000000000000000000000000000000000000000000000000000000000000000000000000000000000000000000000000000000000000N 00000000000NCONT   00    00000000000          00000000000000000000000000000000000000000000 000000000000000A000000000000000000000000000000000000000000000 000000000000000000000000000000000000000     00000000                                                                                                                        000000000000000000
F0010000008079800005000000869402400013552100000000000000000201512220002001ISRAEL MANGA                                      D000000000020800000000000000000000100010010000000000000000000000F0010000008079800520151222000101 00000000000000000000000000000000000000000000000000000000000000000000000000000000000000000000000000000000000000000N 00000000000NCONT   00    00000000000          00000000000000000000000000000000000000000000 000000000000000A000000000000000000000000000000000000000000000 000000000000000000000000000000000000000     00000000                                                                                                                        000000000000000000
F0010000008079900001000083008772100011050500000000000000000201512220002001ILUMEC SAS                                        D000000001500000000000000000000000100010010000000000000000000000F0010000008079900120151222000101 00000000000000000000000000000000000000000000000000000000000000000000000000000000000000000000000000000000000000000N 00000000000NCONT   00    00000000000          00000000000000000000000000000000000000000000 000000000000000A000000000000000000000000000000000000000000000 000000000000000000000000000000000000000     00000000                                                                                                                        000000000000000000
F0010000008079900002000083008772100041450500000000000000000201512220002001ILUMEC SAS                                        C000000001000000000000000000000000100010010000000000000000000000F0010000008079900220151222000101 00000000000000000000000000000000000000000000000000000000000000000000000000000000000000000000000000000000000000000N 00000000000NCONT   00    00000000000          00000000000000000000000000000000000000000000 000000000000000A000000000000000000000000000000000000000000000 000000000000000000000000000000000000000     00000000                                                                                                                        000000000000000000
F0010000008079900003000083008772100042505000000000000000000201512220002001ILUMEC SAS                                        C000000000500000000000000000000000100010010000000000000000000000F0010000008079900320151222000101 00000000000000000000000000000000000000000000000000000000000000000000000000000000000000000000000000000000000000000N 00000000000NCONT   00    00000000000          00000000000000000000000000000000000000000000 000000000000000A000000000000000000000000000000000000000000000 000000000000000000000000000000000000000     00000000                                                                                                                        000000000000000000
F0010000008079900004000083008772100023658300000000000000000201512220002001ILUMEC SAS                                        C000000000008000000000000000000000100010010000000000000000000000F0010000008079900420151222000101 00000000000000000000000000000000000000000000000000000000000000000000000000000000000000000000000000000000000000000N 00000000000NCONT   00    00000000000          00000000000000000000000000000000000000000000 000000000000000A000000000000000000000000000000000000000000000 000000000000000000000000000000000000000     00000000                                                                                                                        000000000000000000
F0010000008079900005000083008772100013552100000000000000000201512220002001ILUMEC SAS                                        D000000000008000000000000000000000100010010000000000000000000000F0010000008079900520151222000101 00000000000000000000000000000000000000000000000000000000000000000000000000000000000000000000000000000000000000000N 00000000000NCONT   00    00000000000          00000000000000000000000000000000000000000000 000000000000000A000000000000000000000000000000000000000000000 000000000000000000000000000000000000000     00000000                                                                                                                        000000000000000000
F0010000008080000001000083008772100011050500000000000000000201512220002001ILUMEC SAS                                        D000000001050000000000000000000000100010010000000000000000000000F0010000008080000120151222000101 00000000000000000000000000000000000000000000000000000000000000000000000000000000000000000000000000000000000000000N 00000000000NCONT   00    00000000000          00000000000000000000000000000000000000000000 000000000000000A000000000000000000000000000000000000000000000 000000000000000000000000000000000000000     00000000                                                                                                                        000000000000000000
F0010000008080000002000083008772100041450500000000000000000201512220002001ILUMEC SAS                                        C000000001000000000000000000000000100010010000000000000000000000F0010000008080000220151222000101 00000000000000000000000000000000000000000000000000000000000000000000000000000000000000000000000000000000000000000N 00000000000NCONT   00    00000000000          00000000000000000000000000000000000000000000 000000000000000A000000000000000000000000000000000000000000000 000000000000000000000000000000000000000     00000000                                                                                                                        000000000000000000
F0010000008080000003000083008772100042505000000000000000000201512220002001ILUMEC SAS                                        C000000000050000000000000000000000100010010000000000000000000000F0010000008080000320151222000101 00000000000000000000000000000000000000000000000000000000000000000000000000000000000000000000000000000000000000000N 00000000000NCONT   00    00000000000          00000000000000000000000000000000000000000000 000000000000000A000000000000000000000000000000000000000000000 000000000000000000000000000000000000000     00000000                                                                                                                        000000000000000000
F0010000008080000004000083008772100023658300000000000000000201512220002001ILUMEC SAS                                        C000000000008000000000000000000000100010010000000000000000000000F0010000008080000420151222000101 00000000000000000000000000000000000000000000000000000000000000000000000000000000000000000000000000000000000000000N 00000000000NCONT   00    00000000000          00000000000000000000000000000000000000000000 000000000000000A000000000000000000000000000000000000000000000 000000000000000000000000000000000000000     00000000                                                                                                                        000000000000000000
F0010000008080000005000083008772100013552100000000000000000201512220002001ILUMEC SAS                                        D000000000008000000000000000000000100010010000000000000000000000F0010000008080000520151222000101 00000000000000000000000000000000000000000000000000000000000000000000000000000000000000000000000000000000000000000N 00000000000NCONT   00    00000000000          00000000000000000000000000000000000000000000 000000000000000A000000000000000000000000000000000000000000000 000000000000000000000000000000000000000     00000000                                                                                                                        000000000000000000
F0010000008080100001000083008772100011050500000000000000000201512220002001ILUMEC SAS                                        D000000001050000000000000000000000100010010000000000000000000000F0010000008080100120151222000101 00000000000000000000000000000000000000000000000000000000000000000000000000000000000000000000000000000000000000000N 00000000000NCONT   00    00000000000          00000000000000000000000000000000000000000000 000000000000000A000000000000000000000000000000000000000000000 000000000000000000000000000000000000000     00000000                                                                                                                        000000000000000000
F0010000008080100002000083008772100041450500000000000000000201512220002001ILUMEC SAS                                        C000000001000000000000000000000000100010010000000000000000000000F0010000008080100220151222000101 00000000000000000000000000000000000000000000000000000000000000000000000000000000000000000000000000000000000000000N 00000000000NCONT   00    00000000000          00000000000000000000000000000000000000000000 000000000000000A000000000000000000000000000000000000000000000 000000000000000000000000000000000000000     00000000                                                                                                                        000000000000000000
F0010000008080100003000083008772100042505000000000000000000201512220002001ILUMEC SAS                                        C000000000050000000000000000000000100010010000000000000000000000F0010000008080100320151222000101 00000000000000000000000000000000000000000000000000000000000000000000000000000000000000000000000000000000000000000N 00000000000NCONT   00    00000000000          00000000000000000000000000000000000000000000 000000000000000A000000000000000000000000000000000000000000000 000000000000000000000000000000000000000     00000000                                                                                                                        000000000000000000
F0010000008080100004000083008772100023658300000000000000000201512220002001ILUMEC SAS                                        C000000000008000000000000000000000100010010000000000000000000000F0010000008080100420151222000101 00000000000000000000000000000000000000000000000000000000000000000000000000000000000000000000000000000000000000000N 00000000000NCONT   00    00000000000          00000000000000000000000000000000000000000000 000000000000000A000000000000000000000000000000000000000000000 000000000000000000000000000000000000000     00000000                                                                                                                        000000000000000000
F0010000008080100005000083008772100013552100000000000000000201512220002001ILUMEC SAS                                        D000000000008000000000000000000000100010010000000000000000000000F0010000008080100520151222000101 00000000000000000000000000000000000000000000000000000000000000000000000000000000000000000000000000000000000000000N 00000000000NCONT   00    00000000000          00000000000000000000000000000000000000000000 000000000000000A000000000000000000000000000000000000000000000 000000000000000000000000000000000000000     00000000                                                                                                                        000000000000000000
F0010000008080200001000083008772100011050500000000000000000201512220002001ILUMEC SAS                                        D000000001100000000000000000000000100010010000000000000000000000F0010000008080200120151222000101 00000000000000000000000000000000000000000000000000000000000000000000000000000000000000000000000000000000000000000N 00000000000NCONT   00    00000000000          00000000000000000000000000000000000000000000 000000000000000A000000000000000000000000000000000000000000000 000000000000000000000000000000000000000     00000000                                                                                                                        000000000000000000
F0010000008080200002000083008772100041450500000000000000000201512220002001ILUMEC SAS                                        C000000001000000000000000000000000100010010000000000000000000000F0010000008080200220151222000101 00000000000000000000000000000000000000000000000000000000000000000000000000000000000000000000000000000000000000000N 00000000000NCONT   00    00000000000          00000000000000000000000000000000000000000000 000000000000000A000000000000000000000000000000000000000000000 000000000000000000000000000000000000000     00000000                                                                                                                        000000000000000000
F0010000008080200003000083008772100042505000000000000000000201512220002001ILUMEC SAS                                        C000000000100000000000000000000000100010010000000000000000000000F0010000008080200320151222000101 00000000000000000000000000000000000000000000000000000000000000000000000000000000000000000000000000000000000000000N 00000000000NCONT   00    00000000000          00000000000000000000000000000000000000000000 000000000000000A000000000000000000000000000000000000000000000 000000000000000000000000000000000000000     00000000                                                                                                                        000000000000000000
F0010000008080200004000083008772100023658300000000000000000201512220002001ILUMEC SAS                                        C000000000008000000000000000000000100010010000000000000000000000F0010000008080200420151222000101 00000000000000000000000000000000000000000000000000000000000000000000000000000000000000000000000000000000000000000N 00000000000NCONT   00    00000000000          00000000000000000000000000000000000000000000 000000000000000A000000000000000000000000000000000000000000000 000000000000000000000000000000000000000     00000000                                                                                                                        000000000000000000
F0010000008080200005000083008772100013552100000000000000000201512220002001ILUMEC SAS                                        D000000000008000000000000000000000100010010000000000000000000000F0010000008080200520151222000101 00000000000000000000000000000000000000000000000000000000000000000000000000000000000000000000000000000000000000000N 00000000000NCONT   00    00000000000          00000000000000000000000000000000000000000000 000000000000000A000000000000000000000000000000000000000000000 000000000000000000000000000000000000000     00000000                                                                                                                        000000000000000000
F0010000008080300001000083008772100011050500000000000000000201512220002001ILUMEC SAS                                        D000000001300000000000000000000000100010010000000000000000000000F0010000008080300120151222000101 00000000000000000000000000000000000000000000000000000000000000000000000000000000000000000000000000000000000000000N 00000000000NCONT   00    00000000000          00000000000000000000000000000000000000000000 000000000000000A000000000000000000000000000000000000000000000 000000000000000000000000000000000000000     00000000                                                                                                                        000000000000000000
F0010000008080300002000083008772100041450500000000000000000201512220002001ILUMEC SAS                                        C000000001050000000000000000000000100010010000000000000000000000F0010000008080300220151222000101 00000000000000000000000000000000000000000000000000000000000000000000000000000000000000000000000000000000000000000N 00000000000NCONT   00    00000000000          00000000000000000000000000000000000000000000 000000000000000A000000000000000000000000000000000000000000000 000000000000000000000000000000000000000     00000000                                                                                                                        000000000000000000
F0010000008080300003000083008772100042505000000000000000000201512220002001ILUMEC SAS                                        C000000000250000000000000000000000100010010000000000000000000000F0010000008080300320151222000101 00000000000000000000000000000000000000000000000000000000000000000000000000000000000000000000000000000000000000000N 00000000000NCONT   00    00000000000          00000000000000000000000000000000000000000000 000000000000000A000000000000000000000000000000000000000000000 000000000000000000000000000000000000000     00000000                                                                                                                        000000000000000000
F0010000008080300004000083008772100023658300000000000000000201512220002001ILUMEC SAS                                        C000000000008400000000000000000000100010010000000000000000000000F0010000008080300420151222000101 00000000000000000000000000000000000000000000000000000000000000000000000000000000000000000000000000000000000000000N 00000000000NCONT   00    00000000000          00000000000000000000000000000000000000000000 000000000000000A000000000000000000000000000000000000000000000 000000000000000000000000000000000000000     00000000                                                                                                                        000000000000000000
F0010000008080300005000083008772100013552100000000000000000201512220002001ILUMEC SAS                                        D000000000008400000000000000000000100010010000000000000000000000F0010000008080300520151222000101 00000000000000000000000000000000000000000000000000000000000000000000000000000000000000000000000000000000000000000N 00000000000NCONT   00    00000000000          00000000000000000000000000000000000000000000 000000000000000A000000000000000000000000000000000000000000000 000000000000000000000000000000000000000     00000000                                                                                                                        000000000000000000
F0010000008080400001000083008772100011050500000000000000000201512220002001ILUMEC SAS                                        D000000001250000000000000000000000100010010000000000000000000000F0010000008080400120151222000101 00000000000000000000000000000000000000000000000000000000000000000000000000000000000000000000000000000000000000000N 00000000000NCONT   00    00000000000          00000000000000000000000000000000000000000000 000000000000000A000000000000000000000000000000000000000000000 000000000000000000000000000000000000000     00000000                                                                                                                        000000000000000000
F0010000008080400002000083008772100041450500000000000000000201512220002001ILUMEC SAS                                        C000000001000000000000000000000000100010010000000000000000000000F0010000008080400220151222000101 00000000000000000000000000000000000000000000000000000000000000000000000000000000000000000000000000000000000000000N 00000000000NCONT   00    00000000000          00000000000000000000000000000000000000000000 000000000000000A000000000000000000000000000000000000000000000 000000000000000000000000000000000000000     00000000                                                                                                                        000000000000000000
F0010000008080400003000083008772100042505000000000000000000201512220002001ILUMEC SAS                                        C000000000250000000000000000000000100010010000000000000000000000F0010000008080400320151222000101 00000000000000000000000000000000000000000000000000000000000000000000000000000000000000000000000000000000000000000N 00000000000NCONT   00    00000000000          00000000000000000000000000000000000000000000 000000000000000A000000000000000000000000000000000000000000000 000000000000000000000000000000000000000     00000000                                                                                                                        000000000000000000
F0010000008080400004000083008772100023658300000000000000000201512220002001ILUMEC SAS                                        C000000000008000000000000000000000100010010000000000000000000000F0010000008080400420151222000101 00000000000000000000000000000000000000000000000000000000000000000000000000000000000000000000000000000000000000000N 00000000000NCONT   00    00000000000          00000000000000000000000000000000000000000000 000000000000000A000000000000000000000000000000000000000000000 000000000000000000000000000000000000000     00000000                                                                                                                        000000000000000000
F0010000008080400005000083008772100013552100000000000000000201512220002001ILUMEC SAS                                        D000000000008000000000000000000000100010010000000000000000000000F0010000008080400520151222000101 00000000000000000000000000000000000000000000000000000000000000000000000000000000000000000000000000000000000000000N 00000000000NCONT   00    00000000000          00000000000000000000000000000000000000000000 000000000000000A000000000000000000000000000000000000000000000 000000000000000000000000000000000000000     00000000                                                                                                                        000000000000000000
F0010000008080500001000083008772100011050500000000000000000201512220002001ILUMEC SAS                                        D000000001300000000000000000000000100010010000000000000000000000F0010000008080500120151222000101 00000000000000000000000000000000000000000000000000000000000000000000000000000000000000000000000000000000000000000N 00000000000NCONT   00    00000000000          00000000000000000000000000000000000000000000 000000000000000A000000000000000000000000000000000000000000000 000000000000000000000000000000000000000     00000000                                                                                                                        000000000000000000
F0010000008080500002000083008772100041450500000000000000000201512220002001ILUMEC SAS                                        C000000001050000000000000000000000100010010000000000000000000000F0010000008080500220151222000101 00000000000000000000000000000000000000000000000000000000000000000000000000000000000000000000000000000000000000000N 00000000000NCONT   00    00000000000          00000000000000000000000000000000000000000000 000000000000000A000000000000000000000000000000000000000000000 000000000000000000000000000000000000000     00000000                                                                                                                        000000000000000000
F0010000008080500003000083008772100042505000000000000000000201512220002001ILUMEC SAS                                        C000000000250000000000000000000000100010010000000000000000000000F0010000008080500320151222000101 00000000000000000000000000000000000000000000000000000000000000000000000000000000000000000000000000000000000000000N 00000000000NCONT   00    00000000000          00000000000000000000000000000000000000000000 000000000000000A000000000000000000000000000000000000000000000 000000000000000000000000000000000000000     00000000                                                                                                                        000000000000000000
F0010000008080500004000083008772100023658300000000000000000201512220002001ILUMEC SAS                                        C000000000008400000000000000000000100010010000000000000000000000F0010000008080500420151222000101 00000000000000000000000000000000000000000000000000000000000000000000000000000000000000000000000000000000000000000N 00000000000NCONT   00    00000000000          00000000000000000000000000000000000000000000 000000000000000A000000000000000000000000000000000000000000000 000000000000000000000000000000000000000     00000000                                                                                                                        000000000000000000
F0010000008080500005000083008772100013552100000000000000000201512220002001ILUMEC SAS                                        D000000000008400000000000000000000100010010000000000000000000000F0010000008080500520151222000101 00000000000000000000000000000000000000000000000000000000000000000000000000000000000000000000000000000000000000000N 00000000000NCONT   00    00000000000          00000000000000000000000000000000000000000000 000000000000000A000000000000000000000000000000000000000000000 000000000000000000000000000000000000000     00000000                                                                                                                        000000000000000000
F0010000008080600001000083008772100011050500000000000000000201512220002001ILUMEC SAS                                        D000000001300000000000000000000000100010010000000000000000000000F0010000008080600120151222000101 00000000000000000000000000000000000000000000000000000000000000000000000000000000000000000000000000000000000000000N 00000000000NCONT   00    00000000000          00000000000000000000000000000000000000000000 000000000000000A000000000000000000000000000000000000000000000 000000000000000000000000000000000000000     00000000                                                                                                                        000000000000000000
F0010000008080600002000083008772100041450500000000000000000201512220002001ILUMEC SAS                                        C000000000900000000000000000000000100010010000000000000000000000F0010000008080600220151222000101 00000000000000000000000000000000000000000000000000000000000000000000000000000000000000000000000000000000000000000N 00000000000NCONT   00    00000000000          00000000000000000000000000000000000000000000 000000000000000A000000000000000000000000000000000000000000000 000000000000000000000000000000000000000     00000000                                                                                                                        000000000000000000
F0010000008080600003000083008772100042505000000000000000000201512220002001ILUMEC SAS                                        C000000000400000000000000000000000100010010000000000000000000000F0010000008080600320151222000101 00000000000000000000000000000000000000000000000000000000000000000000000000000000000000000000000000000000000000000N 00000000000NCONT   00    00000000000          00000000000000000000000000000000000000000000 000000000000000A000000000000000000000000000000000000000000000 000000000000000000000000000000000000000     00000000                                                                                                                        000000000000000000
F0010000008080600004000083008772100023658300000000000000000201512220002001ILUMEC SAS                                        C000000000007200000000000000000000100010010000000000000000000000F0010000008080600420151222000101 00000000000000000000000000000000000000000000000000000000000000000000000000000000000000000000000000000000000000000N 00000000000NCONT   00    00000000000          00000000000000000000000000000000000000000000 000000000000000A000000000000000000000000000000000000000000000 000000000000000000000000000000000000000     00000000                                                                                                                        000000000000000000
F0010000008080600005000083008772100013552100000000000000000201512220002001ILUMEC SAS                                        D000000000007200000000000000000000100010010000000000000000000000F0010000008080600520151222000101 00000000000000000000000000000000000000000000000000000000000000000000000000000000000000000000000000000000000000000N 00000000000NCONT   00    00000000000          00000000000000000000000000000000000000000000 000000000000000A000000000000000000000000000000000000000000000 000000000000000000000000000000000000000     00000000                                                                                                                        000000000000000000
F0010000008080700001000083008772100011050500000000000000000201512220002001ILUMEC SAS                                        D000000001450000000000000000000000100010010000000000000000000000F0010000008080700120151222000101 00000000000000000000000000000000000000000000000000000000000000000000000000000000000000000000000000000000000000000N 00000000000NCONT   00    00000000000          00000000000000000000000000000000000000000000 000000000000000A000000000000000000000000000000000000000000000 000000000000000000000000000000000000000     00000000                                                                                                                        000000000000000000
F0010000008080700002000083008772100041450500000000000000000201512220002001ILUMEC SAS                                        C000000000800000000000000000000000100010010000000000000000000000F0010000008080700220151222000101 00000000000000000000000000000000000000000000000000000000000000000000000000000000000000000000000000000000000000000N 00000000000NCONT   00    00000000000          00000000000000000000000000000000000000000000 000000000000000A000000000000000000000000000000000000000000000 000000000000000000000000000000000000000     00000000                                                                                                                        000000000000000000
F0010000008080700003000083008772100042505000000000000000000201512220002001ILUMEC SAS                                        C000000000650000000000000000000000100010010000000000000000000000F0010000008080700320151222000101 00000000000000000000000000000000000000000000000000000000000000000000000000000000000000000000000000000000000000000N 00000000000NCONT   00    00000000000          00000000000000000000000000000000000000000000 000000000000000A000000000000000000000000000000000000000000000 000000000000000000000000000000000000000     00000000                                                                                                                        000000000000000000
F0010000008080700004000083008772100023658300000000000000000201512220002001ILUMEC SAS                                        C000000000006400000000000000000000100010010000000000000000000000F0010000008080700420151222000101 00000000000000000000000000000000000000000000000000000000000000000000000000000000000000000000000000000000000000000N 00000000000NCONT   00    00000000000          00000000000000000000000000000000000000000000 000000000000000A000000000000000000000000000000000000000000000 000000000000000000000000000000000000000     00000000                                                                                                                        000000000000000000
F0010000008080700005000083008772100013552100000000000000000201512220002001ILUMEC SAS                                        D000000000006400000000000000000000100010010000000000000000000000F0010000008080700520151222000101 00000000000000000000000000000000000000000000000000000000000000000000000000000000000000000000000000000000000000000N 00000000000NCONT   00    00000000000          00000000000000000000000000000000000000000000 000000000000000A000000000000000000000000000000000000000000000 000000000000000000000000000000000000000     00000000                                                                                                                        000000000000000000
F0010000008080800001000089011033000011050500000000000000000201512220002001INDUSTRIAS CRUZ & CAﾃ前N LTDA                     D000000004500000000000000000000000100010010000000000000000000000F0010000008080800120151222000101 00000000000000000000000000000000000000000000000000000000000000000000000000000000000000000000000000000000000000000N 00000000000NCONT   00    00000000000          00000000000000000000000000000000000000000000 000000000000000A000000000000000000000000000000000000000000000 000000000000000000000000000000000000000     00000000                                                                                                                        000000000000000000
F0010000008080800002000089011033000041450500000000000000000201512220002001INDUSTRIAS CRUZ & CAﾃ前N LTDA                     C000000004000000000000000000000000100010010000000000000000000000F0010000008080800220151222000101 00000000000000000000000000000000000000000000000000000000000000000000000000000000000000000000000000000000000000000N 00000000000NCONT   00    00000000000          00000000000000000000000000000000000000000000 000000000000000A000000000000000000000000000000000000000000000 000000000000000000000000000000000000000     00000000                                                                                                                        000000000000000000
F0010000008080800003000089011033000042505000000000000000000201512220002001INDUSTRIAS CRUZ & CAﾃ前N LTDA                     C000000000500000000000000000000000100010010000000000000000000000F0010000008080800320151222000101 00000000000000000000000000000000000000000000000000000000000000000000000000000000000000000000000000000000000000000N 00000000000NCONT   00    00000000000          00000000000000000000000000000000000000000000 000000000000000A000000000000000000000000000000000000000000000 000000000000000000000000000000000000000     00000000                                                                                                                        000000000000000000
F0010000008080800004000089011033000023658300000000000000000201512220002001INDUSTRIAS CRUZ & CAﾃ前N LTDA                     C000000000032000000000000000000000100010010000000000000000000000F0010000008080800420151222000101 00000000000000000000000000000000000000000000000000000000000000000000000000000000000000000000000000000000000000000N 00000000000NCONT   00    00000000000          00000000000000000000000000000000000000000000 000000000000000A000000000000000000000000000000000000000000000 000000000000000000000000000000000000000     00000000                                                                                                                        000000000000000000
F0010000008080800005000089011033000013552100000000000000000201512220002001INDUSTRIAS CRUZ & CAﾃ前N LTDA                     D000000000032000000000000000000000100010010000000000000000000000F0010000008080800520151222000101 00000000000000000000000000000000000000000000000000000000000000000000000000000000000000000000000000000000000000000N 00000000000NCONT   00    00000000000          00000000000000000000000000000000000000000000 000000000000000A000000000000000000000000000000000000000000000 000000000000000000000000000000000000000     00000000                                                                                                                        000000000000000000
F0010000008080900001000086053108300011050500000000000000000201512220002001EL PALACIO DEL ALUMINIO                           D000000018000000000000000000000000100010010000000000000000000000F0010000008080900120151222000101 00000000000000000000000000000000000000000000000000000000000000000000000000000000000000000000000000000000000000000N 00000000000NCONT   00    00000000000          00000000000000000000000000000000000000000000 000000000000000A000000000000000000000000000000000000000000000 000000000000000000000000000000000000000     00000000                                                                                                                        000000000000000000
F0010000008080900002000086053108300041450500000000000000000201512220002001EL PALACIO DEL ALUMINIO                           C000000016000000000000000000000000100010010000000000000000000000F0010000008080900220151222000101 00000000000000000000000000000000000000000000000000000000000000000000000000000000000000000000000000000000000000000N 00000000000NCONT   00    00000000000          00000000000000000000000000000000000000000000 000000000000000A000000000000000000000000000000000000000000000 000000000000000000000000000000000000000     00000000                                                                                                                        000000000000000000
F0010000008080900003000086053108300042505000000000000000000201512220002001EL PALACIO DEL ALUMINIO                           C000000002000000000000000000000000100010010000000000000000000000F0010000008080900320151222000101 00000000000000000000000000000000000000000000000000000000000000000000000000000000000000000000000000000000000000000N 00000000000NCONT   00    00000000000          00000000000000000000000000000000000000000000 000000000000000A000000000000000000000000000000000000000000000 000000000000000000000000000000000000000     00000000                                                                                                                        000000000000000000
F0010000008080900004000086053108300023658300000000000000000201512220002001EL PALACIO DEL ALUMINIO                           C000000000128000000000000000000000100010010000000000000000000000F0010000008080900420151222000101 00000000000000000000000000000000000000000000000000000000000000000000000000000000000000000000000000000000000000000N 00000000000NCONT   00    00000000000          00000000000000000000000000000000000000000000 000000000000000A000000000000000000000000000000000000000000000 000000000000000000000000000000000000000     00000000                                                                                                                        000000000000000000
F0010000008080900005000086053108300013552100000000000000000201512220002001EL PALACIO DEL ALUMINIO                           D000000000128000000000000000000000100010010000000000000000000000F0010000008080900520151222000101 00000000000000000000000000000000000000000000000000000000000000000000000000000000000000000000000000000000000000000N 00000000000NCONT   00    00000000000          00000000000000000000000000000000000000000000 000000000000000A000000000000000000000000000000000000000000000 000000000000000000000000000000000000000     00000000                                                                                                                        000000000000000000
F0010000008081000001000090034602400011050500000000000000000201512220002001PRODUCTOS NACIONALES PARAFINICOS LA CUSTODIA S.A.SD000000003000000000000000000000000100010010000000000000000000000F0010000008081000120151222000101 00000000000000000000000000000000000000000000000000000000000000000000000000000000000000000000000000000000000000000N 00000000000NCONT   00    00000000000          00000000000000000000000000000000000000000000 000000000000000A000000000000000000000000000000000000000000000 000000000000000000000000000000000000000     00000000                                                                                                                        000000000000000000
F0010000008081000002000090034602400041450500000000000000000201512220002001PRODUCTOS NACIONALES PARAFINICOS LA CUSTODIA S.A.SC000000002700000000000000000000000100010010000000000000000000000F0010000008081000220151222000101 00000000000000000000000000000000000000000000000000000000000000000000000000000000000000000000000000000000000000000N 00000000000NCONT   00    00000000000          00000000000000000000000000000000000000000000 000000000000000A000000000000000000000000000000000000000000000 000000000000000000000000000000000000000     00000000                                                                                                                        000000000000000000
F0010000008081000003000090034602400042505000000000000000000201512220002001PRODUCTOS NACIONALES PARAFINICOS LA CUSTODIA S.A.SC000000000300000000000000000000000100010010000000000000000000000F0010000008081000320151222000101 00000000000000000000000000000000000000000000000000000000000000000000000000000000000000000000000000000000000000000N 00000000000NCONT   00    00000000000          00000000000000000000000000000000000000000000 000000000000000A000000000000000000000000000000000000000000000 000000000000000000000000000000000000000     00000000                                                                                                                        000000000000000000
F0010000008081000004000090034602400023658300000000000000000201512220002001PRODUCTOS NACIONALES PARAFINICOS LA CUSTODIA S.A.SC000000000021600000000000000000000100010010000000000000000000000F0010000008081000420151222000101 00000000000000000000000000000000000000000000000000000000000000000000000000000000000000000000000000000000000000000N 00000000000NCONT   00    00000000000          00000000000000000000000000000000000000000000 000000000000000A000000000000000000000000000000000000000000000 000000000000000000000000000000000000000     00000000                                                                                                                        000000000000000000
F0010000008081000005000090034602400013552100000000000000000201512220002001PRODUCTOS NACIONALES PARAFINICOS LA CUSTODIA S.A.SD000000000021600000000000000000000100010010000000000000000000000F0010000008081000520151222000101 00000000000000000000000000000000000000000000000000000000000000000000000000000000000000000000000000000000000000000N 00000000000NCONT   00    00000000000          00000000000000000000000000000000000000000000 000000000000000A000000000000000000000000000000000000000000000 000000000000000000000000000000000000000     00000000                                                                                                                        000000000000000000
F0010000008081100001000090034602400011050500000000000000000201512220002001PRODUCTOS NACIONALES PARAFINICOS LA CUSTODIA S.A.SD000000002000000000000000000000000100010010000000000000000000000F0010000008081100120151222000101 00000000000000000000000000000000000000000000000000000000000000000000000000000000000000000000000000000000000000000N 00000000000NCONT   00    00000000000          00000000000000000000000000000000000000000000 000000000000000A000000000000000000000000000000000000000000000 000000000000000000000000000000000000000     00000000                                                                                                                        000000000000000000
F0010000008081100002000090034602400041450500000000000000000201512220002001PRODUCTOS NACIONALES PARAFINICOS LA CUSTODIA S.A.SC000000001800000000000000000000000100010010000000000000000000000F0010000008081100220151222000101 00000000000000000000000000000000000000000000000000000000000000000000000000000000000000000000000000000000000000000N 00000000000NCONT   00    00000000000          00000000000000000000000000000000000000000000 000000000000000A000000000000000000000000000000000000000000000 000000000000000000000000000000000000000     00000000                                                                                                                        000000000000000000
F0010000008081100003000090034602400042505000000000000000000201512220002001PRODUCTOS NACIONALES PARAFINICOS LA CUSTODIA S.A.SC000000000200000000000000000000000100010010000000000000000000000F0010000008081100320151222000101 00000000000000000000000000000000000000000000000000000000000000000000000000000000000000000000000000000000000000000N 00000000000NCONT   00    00000000000          00000000000000000000000000000000000000000000 000000000000000A000000000000000000000000000000000000000000000 000000000000000000000000000000000000000     00000000                                                                                                                        000000000000000000
F0010000008081100004000090034602400023658300000000000000000201512220002001PRODUCTOS NACIONALES PARAFINICOS LA CUSTODIA S.A.SC000000000014400000000000000000000100010010000000000000000000000F0010000008081100420151222000101 00000000000000000000000000000000000000000000000000000000000000000000000000000000000000000000000000000000000000000N 00000000000NCONT   00    00000000000          00000000000000000000000000000000000000000000 000000000000000A000000000000000000000000000000000000000000000 000000000000000000000000000000000000000     00000000                                                                                                                        000000000000000000
F0010000008081100005000090034602400013552100000000000000000201512220002001PRODUCTOS NACIONALES PARAFINICOS LA CUSTODIA S.A.SD000000000014400000000000000000000100010010000000000000000000000F0010000008081100520151222000101 00000000000000000000000000000000000000000000000000000000000000000000000000000000000000000000000000000000000000000N 00000000000NCONT   00    00000000000          00000000000000000000000000000000000000000000 000000000000000A000000000000000000000000000000000000000000000 000000000000000000000000000000000000000     00000000                                                                                                                        000000000000000000
F0010000008081200001000090034602400011050500000000000000000201512220002001PRODUCTOS NACIONALES PARAFINICOS LA CUSTODIA S.A.SD000000001000000000000000000000000100010010000000000000000000000F0010000008081200120151222000101 00000000000000000000000000000000000000000000000000000000000000000000000000000000000000000000000000000000000000000N 00000000000NCONT   00    00000000000          00000000000000000000000000000000000000000000 000000000000000A000000000000000000000000000000000000000000000 000000000000000000000000000000000000000     00000000                                                                                                                        000000000000000000
F0010000008081200002000090034602400041450500000000000000000201512220002001PRODUCTOS NACIONALES PARAFINICOS LA CUSTODIA S.A.SC000000000900000000000000000000000100010010000000000000000000000F0010000008081200220151222000101 00000000000000000000000000000000000000000000000000000000000000000000000000000000000000000000000000000000000000000N 00000000000NCONT   00    00000000000          00000000000000000000000000000000000000000000 000000000000000A000000000000000000000000000000000000000000000 000000000000000000000000000000000000000     00000000                                                                                                                        000000000000000000
F0010000008081200003000090034602400042505000000000000000000201512220002001PRODUCTOS NACIONALES PARAFINICOS LA CUSTODIA S.A.SC000000000100000000000000000000000100010010000000000000000000000F0010000008081200320151222000101 00000000000000000000000000000000000000000000000000000000000000000000000000000000000000000000000000000000000000000N 00000000000NCONT   00    00000000000          00000000000000000000000000000000000000000000 000000000000000A000000000000000000000000000000000000000000000 000000000000000000000000000000000000000     00000000                                                                                                                        000000000000000000
F0010000008081200004000090034602400023658300000000000000000201512220002001PRODUCTOS NACIONALES PARAFINICOS LA CUSTODIA S.A.SC000000000007200000000000000000000100010010000000000000000000000F0010000008081200420151222000101 00000000000000000000000000000000000000000000000000000000000000000000000000000000000000000000000000000000000000000N 00000000000NCONT   00    00000000000          00000000000000000000000000000000000000000000 000000000000000A000000000000000000000000000000000000000000000 000000000000000000000000000000000000000     00000000                                                                                                                        000000000000000000
F0010000008081200005000090034602400013552100000000000000000201512220002001PRODUCTOS NACIONALES PARAFINICOS LA CUSTODIA S.A.SD000000000007200000000000000000000100010010000000000000000000000F0010000008081200520151222000101 00000000000000000000000000000000000000000000000000000000000000000000000000000000000000000000000000000000000000000N 00000000000NCONT   00    00000000000          00000000000000000000000000000000000000000000 000000000000000A000000000000000000000000000000000000000000000 000000000000000000000000000000000000000     00000000                                                                                                                        000000000000000000
F0010000008081300001000000919199200011050500000000000000000201512220002001HUGO RAFAEL SALAZAR CORENA                        D000000005500000000000000000000000100010010000000000000000000000F0010000008081300120151222000101 00000000000000000000000000000000000000000000000000000000000000000000000000000000000000000000000000000000000000000N 00000000000NCONT   00    00000000000          00000000000000000000000000000000000000000000 000000000000000A000000000000000000000000000000000000000000000 000000000000000000000000000000000000000     00000000                                                                                                                        000000000000000000
F0010000008081300002000000919199200041450500000000000000000201512220002001HUGO RAFAEL SALAZAR CORENA                        C000000004000000000000000000000000100010010000000000000000000000F0010000008081300220151222000101 00000000000000000000000000000000000000000000000000000000000000000000000000000000000000000000000000000000000000000N 00000000000NCONT   00    00000000000          00000000000000000000000000000000000000000000 000000000000000A000000000000000000000000000000000000000000000 000000000000000000000000000000000000000     00000000                                                                                                                        000000000000000000
F0010000008081300003000000919199200042505000000000000000000201512220002001HUGO RAFAEL SALAZAR CORENA                        C000000001500000000000000000000000100010010000000000000000000000F0010000008081300320151222000101 00000000000000000000000000000000000000000000000000000000000000000000000000000000000000000000000000000000000000000N 00000000000NCONT   00    00000000000          00000000000000000000000000000000000000000000 000000000000000A000000000000000000000000000000000000000000000 000000000000000000000000000000000000000     00000000                                                                                                                        000000000000000000
F0010000008081300004000000919199200023658300000000000000000201512220002001HUGO RAFAEL SALAZAR CORENA                        C000000000032000000000000000000000100010010000000000000000000000F0010000008081300420151222000101 00000000000000000000000000000000000000000000000000000000000000000000000000000000000000000000000000000000000000000N 00000000000NCONT   00    00000000000          00000000000000000000000000000000000000000000 000000000000000A000000000000000000000000000000000000000000000 000000000000000000000000000000000000000     00000000                                                                                                                        000000000000000000
F0010000008081300005000000919199200013552100000000000000000201512220002001HUGO RAFAEL SALAZAR CORENA                        D000000000032000000000000000000000100010010000000000000000000000F0010000008081300520151222000101 00000000000000000000000000000000000000000000000000000000000000000000000000000000000000000000000000000000000000000N 00000000000NCONT   00    00000000000          00000000000000000000000000000000000000000000 000000000000000A000000000000000000000000000000000000000000000 000000000000000000000000000000000000000     00000000                                                                                                                        000000000000000000
F0010000008081400001000000852682500011050500000000000000000201512220002001NILSI SANCHEZ                                     D000000030000000000000000000000000100010010000000000000000000000F0010000008081400120151222000101 00000000000000000000000000000000000000000000000000000000000000000000000000000000000000000000000000000000000000000N 00000000000NCONT   00    00000000000          00000000000000000000000000000000000000000000 000000000000000A000000000000000000000000000000000000000000000 000000000000000000000000000000000000000     00000000                                                                                                                        000000000000000000
F0010000008081400002000000852682500041450500000000000000000201512220002001NILSI SANCHEZ                                     C000000029000000000000000000000000100010010000000000000000000000F0010000008081400220151222000101 00000000000000000000000000000000000000000000000000000000000000000000000000000000000000000000000000000000000000000N 00000000000NCONT   00    00000000000          00000000000000000000000000000000000000000000 000000000000000A000000000000000000000000000000000000000000000 000000000000000000000000000000000000000     00000000                                                                                                                        000000000000000000
F0010000008081400003000000852682500042505000000000000000000201512220002001NILSI SANCHEZ                                     C000000001000000000000000000000000100010010000000000000000000000F0010000008081400320151222000101 00000000000000000000000000000000000000000000000000000000000000000000000000000000000000000000000000000000000000000N 00000000000NCONT   00    00000000000          00000000000000000000000000000000000000000000 000000000000000A000000000000000000000000000000000000000000000 000000000000000000000000000000000000000     00000000                                                                                                                        000000000000000000
F0010000008081400004000000852682500023658300000000000000000201512220002001NILSI SANCHEZ                                     C000000000232000000000000000000000100010010000000000000000000000F0010000008081400420151222000101 00000000000000000000000000000000000000000000000000000000000000000000000000000000000000000000000000000000000000000N 00000000000NCONT   00    00000000000          00000000000000000000000000000000000000000000 000000000000000A000000000000000000000000000000000000000000000 000000000000000000000000000000000000000     00000000                                                                                                                        000000000000000000
F0010000008081400005000000852682500013552100000000000000000201512220002001NILSI SANCHEZ                                     D000000000232000000000000000000000100010010000000000000000000000F0010000008081400520151222000101 00000000000000000000000000000000000000000000000000000000000000000000000000000000000000000000000000000000000000000N 00000000000NCONT   00    00000000000          00000000000000000000000000000000000000000000 000000000000000A000000000000000000000000000000000000000000000 000000000000000000000000000000000000000     00000000                                                                                                                        000000000000000000
F0010000008081500001000007214782600011050500000000000000000201512220002001OSCAR JOSE LIAN ROCHA                             D000000001600000000000000000000000100010010000000000000000000000F0010000008081500120151222000101 00000000000000000000000000000000000000000000000000000000000000000000000000000000000000000000000000000000000000000N 00000000000NCONT   00    00000000000          00000000000000000000000000000000000000000000 000000000000000A000000000000000000000000000000000000000000000 000000000000000000000000000000000000000     00000000                                                                                                                        000000000000000000
F0010000008081500002000007214782600041450500000000000000000201512220002001OSCAR JOSE LIAN ROCHA                             C000000001400000000000000000000000100010010000000000000000000000F0010000008081500220151222000101 00000000000000000000000000000000000000000000000000000000000000000000000000000000000000000000000000000000000000000N 00000000000NCONT   00    00000000000          00000000000000000000000000000000000000000000 000000000000000A000000000000000000000000000000000000000000000 000000000000000000000000000000000000000     00000000                                                                                                                        000000000000000000
F0010000008081500003000007214782600042505000000000000000000201512220002001OSCAR JOSE LIAN ROCHA                             C000000000200000000000000000000000100010010000000000000000000000F0010000008081500320151222000101 00000000000000000000000000000000000000000000000000000000000000000000000000000000000000000000000000000000000000000N 00000000000NCONT   00    00000000000          00000000000000000000000000000000000000000000 000000000000000A000000000000000000000000000000000000000000000 000000000000000000000000000000000000000     00000000                                                                                                                        000000000000000000
F0010000008081500004000007214782600023658300000000000000000201512220002001OSCAR JOSE LIAN ROCHA                             C000000000011200000000000000000000100010010000000000000000000000F0010000008081500420151222000101 00000000000000000000000000000000000000000000000000000000000000000000000000000000000000000000000000000000000000000N 00000000000NCONT   00    00000000000          00000000000000000000000000000000000000000000 000000000000000A000000000000000000000000000000000000000000000 000000000000000000000000000000000000000     00000000                                                                                                                        000000000000000000
F0010000008081500005000007214782600013552100000000000000000201512220002001OSCAR JOSE LIAN ROCHA                             D000000000011200000000000000000000100010010000000000000000000000F0010000008081500520151222000101 00000000000000000000000000000000000000000000000000000000000000000000000000000000000000000000000000000000000000000N 00000000000NCONT   00    00000000000          00000000000000000000000000000000000000000000 000000000000000A000000000000000000000000000000000000000000000 000000000000000000000000000000000000000     00000000                                                                                                                        000000000000000000
F0010000008081600001000007214782600011050500000000000000000201512220002001OSCAR JOSE LIAN ROCHA                             D000000001150000000000000000000000100010010000000000000000000000F0010000008081600120151222000101 00000000000000000000000000000000000000000000000000000000000000000000000000000000000000000000000000000000000000000N 00000000000NCONT   00    00000000000          00000000000000000000000000000000000000000000 000000000000000A000000000000000000000000000000000000000000000 000000000000000000000000000000000000000     00000000                                                                                                                        000000000000000000
F0010000008081600002000007214782600041450500000000000000000201512220002001OSCAR JOSE LIAN ROCHA                             C000000000900000000000000000000000100010010000000000000000000000F0010000008081600220151222000101 00000000000000000000000000000000000000000000000000000000000000000000000000000000000000000000000000000000000000000N 00000000000NCONT   00    00000000000          00000000000000000000000000000000000000000000 000000000000000A000000000000000000000000000000000000000000000 000000000000000000000000000000000000000     00000000                                                                                                                        000000000000000000
F0010000008081600003000007214782600042505000000000000000000201512220002001OSCAR JOSE LIAN ROCHA                             C000000000250000000000000000000000100010010000000000000000000000F0010000008081600320151222000101 00000000000000000000000000000000000000000000000000000000000000000000000000000000000000000000000000000000000000000N 00000000000NCONT   00    00000000000          00000000000000000000000000000000000000000000 000000000000000A000000000000000000000000000000000000000000000 000000000000000000000000000000000000000     00000000                                                                                                                        000000000000000000
F0010000008081600004000007214782600023658300000000000000000201512220002001OSCAR JOSE LIAN ROCHA                             C000000000007200000000000000000000100010010000000000000000000000F0010000008081600420151222000101 00000000000000000000000000000000000000000000000000000000000000000000000000000000000000000000000000000000000000000N 00000000000NCONT   00    00000000000          00000000000000000000000000000000000000000000 000000000000000A000000000000000000000000000000000000000000000 000000000000000000000000000000000000000     00000000                                                                                                                        000000000000000000
F0010000008081600005000007214782600013552100000000000000000201512220002001OSCAR JOSE LIAN ROCHA                             D000000000007200000000000000000000100010010000000000000000000000F0010000008081600520151222000101 00000000000000000000000000000000000000000000000000000000000000000000000000000000000000000000000000000000000000000N 00000000000NCONT   00    00000000000          00000000000000000000000000000000000000000000 000000000000000A000000000000000000000000000000000000000000000 000000000000000000000000000000000000000     00000000                                                                                                                        000000000000000000
F0010000008081700001000007214782600011050500000000000000000201512220002001OSCAR JOSE LIAN ROCHA                             D000000001300000000000000000000000100010010000000000000000000000F0010000008081700120151222000101 00000000000000000000000000000000000000000000000000000000000000000000000000000000000000000000000000000000000000000N 00000000000NCONT   00    00000000000          00000000000000000000000000000000000000000000 000000000000000A000000000000000000000000000000000000000000000 000000000000000000000000000000000000000     00000000                                                                                                                        000000000000000000
F0010000008081700002000007214782600041450500000000000000000201512220002001OSCAR JOSE LIAN ROCHA                             C000000000900000000000000000000000100010010000000000000000000000F0010000008081700220151222000101 00000000000000000000000000000000000000000000000000000000000000000000000000000000000000000000000000000000000000000N 00000000000NCONT   00    00000000000          00000000000000000000000000000000000000000000 000000000000000A000000000000000000000000000000000000000000000 000000000000000000000000000000000000000     00000000                                                                                                                        000000000000000000
F0010000008081700003000007214782600042505000000000000000000201512220002001OSCAR JOSE LIAN ROCHA                             C000000000400000000000000000000000100010010000000000000000000000F0010000008081700320151222000101 00000000000000000000000000000000000000000000000000000000000000000000000000000000000000000000000000000000000000000N 00000000000NCONT   00    00000000000          00000000000000000000000000000000000000000000 000000000000000A000000000000000000000000000000000000000000000 000000000000000000000000000000000000000     00000000                                                                                                                        000000000000000000
F0010000008081700004000007214782600023658300000000000000000201512220002001OSCAR JOSE LIAN ROCHA                             C000000000007200000000000000000000100010010000000000000000000000F0010000008081700420151222000101 00000000000000000000000000000000000000000000000000000000000000000000000000000000000000000000000000000000000000000N 00000000000NCONT   00    00000000000          00000000000000000000000000000000000000000000 000000000000000A000000000000000000000000000000000000000000000 000000000000000000000000000000000000000     00000000                                                                                                                        000000000000000000
F0010000008081700005000007214782600013552100000000000000000201512220002001OSCAR JOSE LIAN ROCHA                             D000000000007200000000000000000000100010010000000000000000000000F0010000008081700520151222000101 00000000000000000000000000000000000000000000000000000000000000000000000000000000000000000000000000000000000000000N 00000000000NCONT   00    00000000000          00000000000000000000000000000000000000000000 000000000000000A000000000000000000000000000000000000000000000 000000000000000000000000000000000000000     00000000                                                                                                                        000000000000000000
F0010000008081800001000090087617400011050500000000000000000201512220002001MASTERGLASS PREMIUM GROUP SAS                     D000000004000000000000000000000000100010010000000000000000000000F0010000008081800120151222000101 00000000000000000000000000000000000000000000000000000000000000000000000000000000000000000000000000000000000000000N 00000000000NCONT   00    00000000000          00000000000000000000000000000000000000000000 000000000000000A000000000000000000000000000000000000000000000 000000000000000000000000000000000000000     00000000                                                                                                                        000000000000000000
F0010000008081800002000090087617400041450500000000000000000201512220002001MASTERGLASS PREMIUM GROUP SAS                     C000000003200000000000000000000000100010010000000000000000000000F0010000008081800220151222000101 00000000000000000000000000000000000000000000000000000000000000000000000000000000000000000000000000000000000000000N 00000000000NCONT   00    00000000000          00000000000000000000000000000000000000000000 000000000000000A000000000000000000000000000000000000000000000 000000000000000000000000000000000000000     00000000                                                                                                                        000000000000000000
F0010000008081800003000090087617400042505000000000000000000201512220002001MASTERGLASS PREMIUM GROUP SAS                     C000000000800000000000000000000000100010010000000000000000000000F0010000008081800320151222000101 00000000000000000000000000000000000000000000000000000000000000000000000000000000000000000000000000000000000000000N 00000000000NCONT   00    00000000000          00000000000000000000000000000000000000000000 000000000000000A000000000000000000000000000000000000000000000 000000000000000000000000000000000000000     00000000                                                                                                                        000000000000000000
F0010000008081800004000090087617400023658300000000000000000201512220002001MASTERGLASS PREMIUM GROUP SAS                     C000000000025600000000000000000000100010010000000000000000000000F0010000008081800420151222000101 00000000000000000000000000000000000000000000000000000000000000000000000000000000000000000000000000000000000000000N 00000000000NCONT   00    00000000000          00000000000000000000000000000000000000000000 000000000000000A000000000000000000000000000000000000000000000 000000000000000000000000000000000000000     00000000                                                                                                                        000000000000000000
F0010000008081800005000090087617400013552100000000000000000201512220002001MASTERGLASS PREMIUM GROUP SAS                     D000000000025600000000000000000000100010010000000000000000000000F0010000008081800520151222000101 00000000000000000000000000000000000000000000000000000000000000000000000000000000000000000000000000000000000000000N 00000000000NCONT   00    00000000000          00000000000000000000000000000000000000000000 000000000000000A000000000000000000000000000000000000000000000 000000000000000000000000000000000000000     00000000                                                                                                                        000000000000000000
F0010000008081900001000005525050200011050500000000000000000201512220002001PLASTICOS  DE LA COSTA                            D000000002344000000000000000000000100010010000000000000000000000F0010000008081900120151222000101 00000000000000000000000000000000000000000000000000000000000000000000000000000000000000000000000000000000000000000N 00000000000NCONT   00    00000000000          00000000000000000000000000000000000000000000 000000000000000A000000000000000000000000000000000000000000000 000000000000000000000000000000000000000     00000000                                                                                                                        000000000000000000
F0010000008081900002000005525050200041450500000000000000000201512220002001PLASTICOS  DE LA COSTA                            C000000002244000000000000000000000100010010000000000000000000000F0010000008081900220151222000101 00000000000000000000000000000000000000000000000000000000000000000000000000000000000000000000000000000000000000000N 00000000000NCONT   00    00000000000          00000000000000000000000000000000000000000000 000000000000000A000000000000000000000000000000000000000000000 000000000000000000000000000000000000000     00000000                                                                                                                        000000000000000000
F0010000008081900003000005525050200042505000000000000000000201512220002001PLASTICOS  DE LA COSTA                            C000000000100000000000000000000000100010010000000000000000000000F0010000008081900320151222000101 00000000000000000000000000000000000000000000000000000000000000000000000000000000000000000000000000000000000000000N 00000000000NCONT   00    00000000000          00000000000000000000000000000000000000000000 000000000000000A000000000000000000000000000000000000000000000 000000000000000000000000000000000000000     00000000                                                                                                                        000000000000000000
F0010000008081900004000005525050200023658300000000000000000201512220002001PLASTICOS  DE LA COSTA                            C000000000018000000000000000000000100010010000000000000000000000F0010000008081900420151222000101 00000000000000000000000000000000000000000000000000000000000000000000000000000000000000000000000000000000000000000N 00000000000NCONT   00    00000000000          00000000000000000000000000000000000000000000 000000000000000A000000000000000000000000000000000000000000000 000000000000000000000000000000000000000     00000000                                                                                                                        000000000000000000
F0010000008081900005000005525050200013552100000000000000000201512220002001PLASTICOS  DE LA COSTA                            D000000000018000000000000000000000100010010000000000000000000000F0010000008081900520151222000101 00000000000000000000000000000000000000000000000000000000000000000000000000000000000000000000000000000000000000000N 00000000000NCONT   00    00000000000          00000000000000000000000000000000000000000000 000000000000000A000000000000000000000000000000000000000000000 000000000000000000000000000000000000000     00000000                                                                                                                        000000000000000000
F0010000008082000001000003279708800011050500000000000000000201512220002001BLANCA CASTRO                                     D000000000600000000000000000000000100010010000000000000000000000F0010000008082000120151222000101 00000000000000000000000000000000000000000000000000000000000000000000000000000000000000000000000000000000000000000N 00000000000NCONT   00    00000000000          00000000000000000000000000000000000000000000 000000000000000A000000000000000000000000000000000000000000000 000000000000000000000000000000000000000     00000000                                                                                                                        000000000000000000
F0010000008082000002000003279708800041450500000000000000000201512220002001BLANCA CASTRO                                     C000000000500000000000000000000000100010010000000000000000000000F0010000008082000220151222000101 00000000000000000000000000000000000000000000000000000000000000000000000000000000000000000000000000000000000000000N 00000000000NCONT   00    00000000000          00000000000000000000000000000000000000000000 000000000000000A000000000000000000000000000000000000000000000 000000000000000000000000000000000000000     00000000                                                                                                                        000000000000000000
F0010000008082000003000003279708800042505000000000000000000201512220002001BLANCA CASTRO                                     C000000000100000000000000000000000100010010000000000000000000000F0010000008082000320151222000101 00000000000000000000000000000000000000000000000000000000000000000000000000000000000000000000000000000000000000000N 00000000000NCONT   00    00000000000          00000000000000000000000000000000000000000000 000000000000000A000000000000000000000000000000000000000000000 000000000000000000000000000000000000000     00000000                                                                                                                        000000000000000000
F0010000008082000004000003279708800023658300000000000000000201512220002001BLANCA CASTRO                                     C000000000004000000000000000000000100010010000000000000000000000F0010000008082000420151222000101 00000000000000000000000000000000000000000000000000000000000000000000000000000000000000000000000000000000000000000N 00000000000NCONT   00    00000000000          00000000000000000000000000000000000000000000 000000000000000A000000000000000000000000000000000000000000000 000000000000000000000000000000000000000     00000000                                                                                                                        000000000000000000
F0010000008082000005000003279708800013552100000000000000000201512220002001BLANCA CASTRO                                     D000000000004000000000000000000000100010010000000000000000000000F0010000008082000520151222000101 00000000000000000000000000000000000000000000000000000000000000000000000000000000000000000000000000000000000000000N 00000000000NCONT   00    00000000000          00000000000000000000000000000000000000000000 000000000000000A000000000000000000000000000000000000000000000 000000000000000000000000000000000000000     00000000                                                                                                                        000000000000000000
F0010000008082100001000090050144800011050500000000000000000201512220002001PLASTICOS JR ASOCIADOS SAS                        D000000009400000000000000000000000100010010000000000000000000000F0010000008082100120151222000101 00000000000000000000000000000000000000000000000000000000000000000000000000000000000000000000000000000000000000000N 00000000000NCONT   00    00000000000          00000000000000000000000000000000000000000000 000000000000000A000000000000000000000000000000000000000000000 000000000000000000000000000000000000000     00000000                                                                                                                        000000000000000000
F0010000008082100002000090050144800041450500000000000000000201512220002001PLASTICOS JR ASOCIADOS SAS                        C000000007700000000000000000000000100010010000000000000000000000F0010000008082100220151222000101 00000000000000000000000000000000000000000000000000000000000000000000000000000000000000000000000000000000000000000N 00000000000NCONT   00    00000000000          00000000000000000000000000000000000000000000 000000000000000A000000000000000000000000000000000000000000000 000000000000000000000000000000000000000     00000000                                                                                                                        000000000000000000
F0010000008082100003000090050144800042505000000000000000000201512220002001PLASTICOS JR ASOCIADOS SAS                        C000000001700000000000000000000000100010010000000000000000000000F0010000008082100320151222000101 00000000000000000000000000000000000000000000000000000000000000000000000000000000000000000000000000000000000000000N 00000000000NCONT   00    00000000000          00000000000000000000000000000000000000000000 000000000000000A000000000000000000000000000000000000000000000 000000000000000000000000000000000000000     00000000                                                                                                                        000000000000000000
F0010000008082100004000090050144800023658300000000000000000201512220002001PLASTICOS JR ASOCIADOS SAS                        C000000000061600000000000000000000100010010000000000000000000000F0010000008082100420151222000101 00000000000000000000000000000000000000000000000000000000000000000000000000000000000000000000000000000000000000000N 00000000000NCONT   00    00000000000          00000000000000000000000000000000000000000000 000000000000000A000000000000000000000000000000000000000000000 000000000000000000000000000000000000000     00000000                                                                                                                        000000000000000000
F0010000008082100005000090050144800013552100000000000000000201512220002001PLASTICOS JR ASOCIADOS SAS                        D000000000061600000000000000000000100010010000000000000000000000F0010000008082100520151222000101 00000000000000000000000000000000000000000000000000000000000000000000000000000000000000000000000000000000000000000N 00000000000NCONT   00    00000000000          00000000000000000000000000000000000000000000 000000000000000A000000000000000000000000000000000000000000000 000000000000000000000000000000000000000     00000000                                                                                                                        000000000000000000
F0010000008082200001000002245670100011050500000000000000000201512220002001YOLANDA  TOBON                                    D000000001000000000000000000000000100010010000000000000000000000F0010000008082200120151222000101 00000000000000000000000000000000000000000000000000000000000000000000000000000000000000000000000000000000000000000N 00000000000NCONT   00    00000000000          00000000000000000000000000000000000000000000 000000000000000A000000000000000000000000000000000000000000000 000000000000000000000000000000000000000     00000000                                                                                                                        000000000000000000
F0010000008082200002000002245670100041450500000000000000000201512220002001YOLANDA  TOBON                                    C000000000700000000000000000000000100010010000000000000000000000F0010000008082200220151222000101 00000000000000000000000000000000000000000000000000000000000000000000000000000000000000000000000000000000000000000N 00000000000NCONT   00    00000000000          00000000000000000000000000000000000000000000 000000000000000A000000000000000000000000000000000000000000000 000000000000000000000000000000000000000     00000000                                                                                                                        000000000000000000
F0010000008082200003000002245670100042505000000000000000000201512220002001YOLANDA  TOBON                                    C000000000300000000000000000000000100010010000000000000000000000F0010000008082200320151222000101 00000000000000000000000000000000000000000000000000000000000000000000000000000000000000000000000000000000000000000N 00000000000NCONT   00    00000000000          00000000000000000000000000000000000000000000 000000000000000A000000000000000000000000000000000000000000000 000000000000000000000000000000000000000     00000000                                                                                                                        000000000000000000
F0010000008082200004000002245670100023658300000000000000000201512220002001YOLANDA  TOBON                                    C000000000005600000000000000000000100010010000000000000000000000F0010000008082200420151222000101 00000000000000000000000000000000000000000000000000000000000000000000000000000000000000000000000000000000000000000N 00000000000NCONT   00    00000000000          00000000000000000000000000000000000000000000 000000000000000A000000000000000000000000000000000000000000000 000000000000000000000000000000000000000     00000000                                                                                                                        000000000000000000
F0010000008082200005000002245670100013552100000000000000000201512220002001YOLANDA  TOBON                                    D000000000005600000000000000000000100010010000000000000000000000F0010000008082200520151222000101 00000000000000000000000000000000000000000000000000000000000000000000000000000000000000000000000000000000000000000N 00000000000NCONT   00    00000000000          00000000000000000000000000000000000000000000 000000000000000A000000000000000000000000000000000000000000000 000000000000000000000000000000000000000     00000000                                                                                                                        000000000000000000
F0010000008082300001000007957099900011050500000000000000000201512220002001RUBEN GOMEZ                                       D000000001700000000000000000000000100010010000000000000000000000F0010000008082300120151222000101 00000000000000000000000000000000000000000000000000000000000000000000000000000000000000000000000000000000000000000N 00000000000NCONT   00    00000000000          00000000000000000000000000000000000000000000 000000000000000A000000000000000000000000000000000000000000000 000000000000000000000000000000000000000     00000000                                                                                                                        000000000000000000
F0010000008082300002000007957099900041450500000000000000000201512220002001RUBEN GOMEZ                                       C000000001200000000000000000000000100010010000000000000000000000F0010000008082300220151222000101 00000000000000000000000000000000000000000000000000000000000000000000000000000000000000000000000000000000000000000N 00000000000NCONT   00    00000000000          00000000000000000000000000000000000000000000 000000000000000A000000000000000000000000000000000000000000000 000000000000000000000000000000000000000     00000000                                                                                                                        000000000000000000
