F0010000006413000001000089011508200011050500000000000000000201410210002001ALMACEN Y TALLER CICLOCOSTA                       D000000006000000000000000000000000100010010000000000000000000000F0010000006413000120141021000101 00000000000000000000000000000000000000000000000000000000000000000000000000000000000000000000000000000000000000000N 00000000000NCONT   00    00000000000          00000000000000000000000000000000000000000000 000000000000000A000000000000000000000000000000000000000000000 000000000000000000000000000000000000000     00000000                                                                                                                        000000000000000000
F0010000006413000002000089011508200041450500000000000000000201410210002001ALMACEN Y TALLER CICLOCOSTA                       C000000004800000000000000000000000100010010000000000000000000000F0010000006413000220141021000101 00000000000000000000000000000000000000000000000000000000000000000000000000000000000000000000000000000000000000000N 00000000000NCONT   00    00000000000          00000000000000000000000000000000000000000000 000000000000000A000000000000000000000000000000000000000000000 000000000000000000000000000000000000000     00000000                                                                                                                        000000000000000000
F0010000006413000003000089011508200042505000000000000000000201410210002001ALMACEN Y TALLER CICLOCOSTA                       C000000001200000000000000000000000100010010000000000000000000000F0010000006413000320141021000101 00000000000000000000000000000000000000000000000000000000000000000000000000000000000000000000000000000000000000000N 00000000000NCONT   00    00000000000          00000000000000000000000000000000000000000000 000000000000000A000000000000000000000000000000000000000000000 000000000000000000000000000000000000000     00000000                                                                                                                        000000000000000000
F0010000006413000004000089011508200023658300000000000000000201410210002001ALMACEN Y TALLER CICLOCOSTA                       C000000000038400000000000000000000100010010000000000000000000000F0010000006413000420141021000101 00000000000000000000000000000000000000000000000000000000000000000000000000000000000000000000000000000000000000000N 00000000000NCONT   00    00000000000          00000000000000000000000000000000000000000000 000000000000000A000000000000000000000000000000000000000000000 000000000000000000000000000000000000000     00000000                                                                                                                        000000000000000000
F0010000006413000005000089011508200013552100000000000000000201410210002001ALMACEN Y TALLER CICLOCOSTA                       D000000000038400000000000000000000100010010000000000000000000000F0010000006413000520141021000101 00000000000000000000000000000000000000000000000000000000000000000000000000000000000000000000000000000000000000000N 00000000000NCONT   00    00000000000          00000000000000000000000000000000000000000000 000000000000000A000000000000000000000000000000000000000000000 000000000000000000000000000000000000000     00000000                                                                                                                        000000000000000000
F0010000006413100001000083050133900011050500000000000000000201410210002001VALTAC DEL CARIBE LTDA                            D000000003100000000000000000000000100010010000000000000000000000F0010000006413100120141021000101 00000000000000000000000000000000000000000000000000000000000000000000000000000000000000000000000000000000000000000N 00000000000NCONT   00    00000000000          00000000000000000000000000000000000000000000 000000000000000A000000000000000000000000000000000000000000000 000000000000000000000000000000000000000     00000000                                                                                                                        000000000000000000
F0010000006413100002000083050133900041450500000000000000000201410210002001VALTAC DEL CARIBE LTDA                            C000000002900000000000000000000000100010010000000000000000000000F0010000006413100220141021000101 00000000000000000000000000000000000000000000000000000000000000000000000000000000000000000000000000000000000000000N 00000000000NCONT   00    00000000000          00000000000000000000000000000000000000000000 000000000000000A000000000000000000000000000000000000000000000 000000000000000000000000000000000000000     00000000                                                                                                                        000000000000000000
F0010000006413100003000083050133900042505000000000000000000201410210002001VALTAC DEL CARIBE LTDA                            C000000000200000000000000000000000100010010000000000000000000000F0010000006413100320141021000101 00000000000000000000000000000000000000000000000000000000000000000000000000000000000000000000000000000000000000000N 00000000000NCONT   00    00000000000          00000000000000000000000000000000000000000000 000000000000000A000000000000000000000000000000000000000000000 000000000000000000000000000000000000000     00000000                                                                                                                        000000000000000000
F0010000006413100004000083050133900023658300000000000000000201410210002001VALTAC DEL CARIBE LTDA                            C000000000023200000000000000000000100010010000000000000000000000F0010000006413100420141021000101 00000000000000000000000000000000000000000000000000000000000000000000000000000000000000000000000000000000000000000N 00000000000NCONT   00    00000000000          00000000000000000000000000000000000000000000 000000000000000A000000000000000000000000000000000000000000000 000000000000000000000000000000000000000     00000000                                                                                                                        000000000000000000
F0010000006413100005000083050133900013552100000000000000000201410210002001VALTAC DEL CARIBE LTDA                            D000000000023200000000000000000000100010010000000000000000000000F0010000006413100520141021000101 00000000000000000000000000000000000000000000000000000000000000000000000000000000000000000000000000000000000000000N 00000000000NCONT   00    00000000000          00000000000000000000000000000000000000000000 000000000000000A000000000000000000000000000000000000000000000 000000000000000000000000000000000000000     00000000                                                                                                                        000000000000000000
F0010000006413200001000003207718300011050500000000000000000201410210002001GILMA RAMIREZ                                     D000000011000000000000000000000000100010010000000000000000000000F0010000006413200120141021000101 00000000000000000000000000000000000000000000000000000000000000000000000000000000000000000000000000000000000000000N 00000000000NCONT   00    00000000000          00000000000000000000000000000000000000000000 000000000000000A000000000000000000000000000000000000000000000 000000000000000000000000000000000000000     00000000                                                                                                                        000000000000000000
F0010000006413200002000003207718300041450500000000000000000201410210002001GILMA RAMIREZ                                     C000000010000000000000000000000000100010010000000000000000000000F0010000006413200220141021000101 00000000000000000000000000000000000000000000000000000000000000000000000000000000000000000000000000000000000000000N 00000000000NCONT   00    00000000000          00000000000000000000000000000000000000000000 000000000000000A000000000000000000000000000000000000000000000 000000000000000000000000000000000000000     00000000                                                                                                                        000000000000000000
F0010000006413200003000003207718300042505000000000000000000201410210002001GILMA RAMIREZ                                     C000000001000000000000000000000000100010010000000000000000000000F0010000006413200320141021000101 00000000000000000000000000000000000000000000000000000000000000000000000000000000000000000000000000000000000000000N 00000000000NCONT   00    00000000000          00000000000000000000000000000000000000000000 000000000000000A000000000000000000000000000000000000000000000 000000000000000000000000000000000000000     00000000                                                                                                                        000000000000000000
F0010000006413200004000003207718300023658300000000000000000201410210002001GILMA RAMIREZ                                     C000000000080000000000000000000000100010010000000000000000000000F0010000006413200420141021000101 00000000000000000000000000000000000000000000000000000000000000000000000000000000000000000000000000000000000000000N 00000000000NCONT   00    00000000000          00000000000000000000000000000000000000000000 000000000000000A000000000000000000000000000000000000000000000 000000000000000000000000000000000000000     00000000                                                                                                                        000000000000000000
F0010000006413200005000003207718300013552100000000000000000201410210002001GILMA RAMIREZ                                     D000000000080000000000000000000000100010010000000000000000000000F0010000006413200520141021000101 00000000000000000000000000000000000000000000000000000000000000000000000000000000000000000000000000000000000000000N 00000000000NCONT   00    00000000000          00000000000000000000000000000000000000000000 000000000000000A000000000000000000000000000000000000000000000 000000000000000000000000000000000000000     00000000                                                                                                                        000000000000000000
F0010000006413300001000089011033000011050500000000000000000201410210002001INDUSTRIAS CRUZ & CAÑON LTDA                     D000000005000000000000000000000000100010010000000000000000000000F0010000006413300120141021000101 00000000000000000000000000000000000000000000000000000000000000000000000000000000000000000000000000000000000000000N 00000000000NCONT   00    00000000000          00000000000000000000000000000000000000000000 000000000000000A000000000000000000000000000000000000000000000 000000000000000000000000000000000000000     00000000                                                                                                                        000000000000000000
F0010000006413300002000089011033000041450500000000000000000201410210002001INDUSTRIAS CRUZ & CAÑON LTDA                     C000000004500000000000000000000000100010010000000000000000000000F0010000006413300220141021000101 00000000000000000000000000000000000000000000000000000000000000000000000000000000000000000000000000000000000000000N 00000000000NCONT   00    00000000000          00000000000000000000000000000000000000000000 000000000000000A000000000000000000000000000000000000000000000 000000000000000000000000000000000000000     00000000                                                                                                                        000000000000000000
F0010000006413300003000089011033000042505000000000000000000201410210002001INDUSTRIAS CRUZ & CAÑON LTDA                     C000000000500000000000000000000000100010010000000000000000000000F0010000006413300320141021000101 00000000000000000000000000000000000000000000000000000000000000000000000000000000000000000000000000000000000000000N 00000000000NCONT   00    00000000000          00000000000000000000000000000000000000000000 000000000000000A000000000000000000000000000000000000000000000 000000000000000000000000000000000000000     00000000                                                                                                                        000000000000000000
F0010000006413300004000089011033000023658300000000000000000201410210002001INDUSTRIAS CRUZ & CAÑON LTDA                     C000000000036000000000000000000000100010010000000000000000000000F0010000006413300420141021000101 00000000000000000000000000000000000000000000000000000000000000000000000000000000000000000000000000000000000000000N 00000000000NCONT   00    00000000000          00000000000000000000000000000000000000000000 000000000000000A000000000000000000000000000000000000000000000 000000000000000000000000000000000000000     00000000                                                                                                                        000000000000000000
F0010000006413300005000089011033000013552100000000000000000201410210002001INDUSTRIAS CRUZ & CAÑON LTDA                     D000000000036000000000000000000000100010010000000000000000000000F0010000006413300520141021000101 00000000000000000000000000000000000000000000000000000000000000000000000000000000000000000000000000000000000000000N 00000000000NCONT   00    00000000000          00000000000000000000000000000000000000000000 000000000000000A000000000000000000000000000000000000000000000 000000000000000000000000000000000000000     00000000                                                                                                                        000000000000000000
F0010000006413400001000089011492400013050500000000000000000201410210002001AGE. CAUCHO SOL DE LA COSTA  SAS                  D000000104588300000000000000000000100010010000000000000000000000F0010000006413400120141021000101 00000000000000000000000000000000000000000000000000000000000000000000000000000000000000000000000000000000000000000N 00000000000NCONT   00    00000000000          00000000000000000000000000000000000000000000 000000000000000A000000000000000000000000000000000000000000000 000000000000000000000000000000000000000     00000000                                                                                                                        000000000000000000
F0010000006413400002000089011492400041450500000000000000000201410210002001AGE. CAUCHO SOL DE LA COSTA  SAS                  C000000061330000000000000000000000100010010000000000000000000000F0010000006413400220141021000101 00000000000000000000000000000000000000000000000000000000000000000000000000000000000000000000000000000000000000000N 00000000000NCONT   00    00000000000          00000000000000000000000000000000000000000000 000000000000000A000000000000000000000000000000000000000000000 000000000000000000000000000000000000000     00000000                                                                                                                        000000000000000000
F0010000006413400003000089011492400042505000000000000000000201410210002001AGE. CAUCHO SOL DE LA COSTA  SAS                  C000000043258300000000000000000000100010010000000000000000000000F0010000006413400320141021000101 00000000000000000000000000000000000000000000000000000000000000000000000000000000000000000000000000000000000000000N 00000000000NCONT   00    00000000000          00000000000000000000000000000000000000000000 000000000000000A000000000000000000000000000000000000000000000 000000000000000000000000000000000000000     00000000                                                                                                                        000000000000000000
F0010000006413400004000089011492400023658300000000000000000201410210002001AGE. CAUCHO SOL DE LA COSTA  SAS                  C000000000490600000000000000000000100010010000000000000000000000F0010000006413400420141021000101 00000000000000000000000000000000000000000000000000000000000000000000000000000000000000000000000000000000000000000N 00000000000NCONT   00    00000000000          00000000000000000000000000000000000000000000 000000000000000A000000000000000000000000000000000000000000000 000000000000000000000000000000000000000     00000000                                                                                                                        000000000000000000
F0010000006413400005000089011492400013552100000000000000000201410210002001AGE. CAUCHO SOL DE LA COSTA  SAS                  D000000000490600000000000000000000100010010000000000000000000000F0010000006413400520141021000101 00000000000000000000000000000000000000000000000000000000000000000000000000000000000000000000000000000000000000000N 00000000000NCONT   00    00000000000          00000000000000000000000000000000000000000000 000000000000000A000000000000000000000000000000000000000000000 000000000000000000000000000000000000000     00000000                                                                                                                        000000000000000000
F0010000006413500001000080200863700013050500000000000000000201410210002001COPIN LTDA                                        D000000045130700000000000000000000100010010000000000000000000000F0010000006413500120141021000101 00000000000000000000000000000000000000000000000000000000000000000000000000000000000000000000000000000000000000000N 00000000000NCONT   00    00000000000          00000000000000000000000000000000000000000000 000000000000000A000000000000000000000000000000000000000000000 000000000000000000000000000000000000000     00000000                                                                                                                        000000000000000000
F0010000006413500002000080200863700041450500000000000000000201410210002001COPIN LTDA                                        C000000040520000000000000000000000100010010000000000000000000000F0010000006413500220141021000101 00000000000000000000000000000000000000000000000000000000000000000000000000000000000000000000000000000000000000000N 00000000000NCONT   00    00000000000          00000000000000000000000000000000000000000000 000000000000000A000000000000000000000000000000000000000000000 000000000000000000000000000000000000000     00000000                                                                                                                        000000000000000000
F0010000006413500003000080200863700042505000000000000000000201410210002001COPIN LTDA                                        C000000004610700000000000000000000100010010000000000000000000000F0010000006413500320141021000101 00000000000000000000000000000000000000000000000000000000000000000000000000000000000000000000000000000000000000000N 00000000000NCONT   00    00000000000          00000000000000000000000000000000000000000000 000000000000000A000000000000000000000000000000000000000000000 000000000000000000000000000000000000000     00000000                                                                                                                        000000000000000000
F0010000006413500004000080200863700023658300000000000000000201410210002001COPIN LTDA                                        C000000000324200000000000000000000100010010000000000000000000000F0010000006413500420141021000101 00000000000000000000000000000000000000000000000000000000000000000000000000000000000000000000000000000000000000000N 00000000000NCONT   00    00000000000          00000000000000000000000000000000000000000000 000000000000000A000000000000000000000000000000000000000000000 000000000000000000000000000000000000000     00000000                                                                                                                        000000000000000000
F0010000006413500005000080200863700013552100000000000000000201410210002001COPIN LTDA                                        D000000000324200000000000000000000100010010000000000000000000000F0010000006413500520141021000101 00000000000000000000000000000000000000000000000000000000000000000000000000000000000000000000000000000000000000000N 00000000000NCONT   00    00000000000          00000000000000000000000000000000000000000000 000000000000000A000000000000000000000000000000000000000000000 000000000000000000000000000000000000000     00000000                                                                                                                        000000000000000000
F0010000006413700001000089010233900013050500000000000000000201410210002001JAIRO ECHEVERRI Y CIA LTDA                        D000000023569700000000000000000000100010010000000000000000000000F0010000006413700120141021000101 00000000000000000000000000000000000000000000000000000000000000000000000000000000000000000000000000000000000000000N 00000000000NCONT   00    00000000000          00000000000000000000000000000000000000000000 000000000000000A000000000000000000000000000000000000000000000 000000000000000000000000000000000000000     00000000                                                                                                                        000000000000000000
F0010000006413700002000089010233900041450500000000000000000201410210002001JAIRO ECHEVERRI Y CIA LTDA                        C000000015930000000000000000000000100010010000000000000000000000F0010000006413700220141021000101 00000000000000000000000000000000000000000000000000000000000000000000000000000000000000000000000000000000000000000N 00000000000NCONT   00    00000000000          00000000000000000000000000000000000000000000 000000000000000A000000000000000000000000000000000000000000000 000000000000000000000000000000000000000     00000000                                                                                                                        000000000000000000
F0010000006413700003000089010233900042505000000000000000000201410210002001JAIRO ECHEVERRI Y CIA LTDA                        C000000007639700000000000000000000100010010000000000000000000000F0010000006413700320141021000101 00000000000000000000000000000000000000000000000000000000000000000000000000000000000000000000000000000000000000000N 00000000000NCONT   00    00000000000          00000000000000000000000000000000000000000000 000000000000000A000000000000000000000000000000000000000000000 000000000000000000000000000000000000000     00000000                                                                                                                        000000000000000000
F0010000006413700004000089010233900023658300000000000000000201410210002001JAIRO ECHEVERRI Y CIA LTDA                        C000000000127400000000000000000000100010010000000000000000000000F0010000006413700420141021000101 00000000000000000000000000000000000000000000000000000000000000000000000000000000000000000000000000000000000000000N 00000000000NCONT   00    00000000000          00000000000000000000000000000000000000000000 000000000000000A000000000000000000000000000000000000000000000 000000000000000000000000000000000000000     00000000                                                                                                                        000000000000000000
F0010000006413700005000089010233900013552100000000000000000201410210002001JAIRO ECHEVERRI Y CIA LTDA                        D000000000127400000000000000000000100010010000000000000000000000F0010000006413700520141021000101 00000000000000000000000000000000000000000000000000000000000000000000000000000000000000000000000000000000000000000N 00000000000NCONT   00    00000000000          00000000000000000000000000000000000000000000 000000000000000A000000000000000000000000000000000000000000000 000000000000000000000000000000000000000     00000000                                                                                                                        000000000000000000
F0010000006413800001000090009800500013050500000000000000000201410210002001GLORIANT CHEMICAL DE COLOMBIA LTDA                D000000064046000000000000000000000100010010000000000000000000000F0010000006413800120141021000101 00000000000000000000000000000000000000000000000000000000000000000000000000000000000000000000000000000000000000000N 00000000000NCONT   00    00000000000          00000000000000000000000000000000000000000000 000000000000000A000000000000000000000000000000000000000000000 000000000000000000000000000000000000000     00000000                                                                                                                        000000000000000000
F0010000006413800002000090009800500041450500000000000000000201410210002001GLORIANT CHEMICAL DE COLOMBIA LTDA                C000000052040000000000000000000000100010010000000000000000000000F0010000006413800220141021000101 00000000000000000000000000000000000000000000000000000000000000000000000000000000000000000000000000000000000000000N 00000000000NCONT   00    00000000000          00000000000000000000000000000000000000000000 000000000000000A000000000000000000000000000000000000000000000 000000000000000000000000000000000000000     00000000                                                                                                                        000000000000000000
F0010000006413800003000090009800500042505000000000000000000201410210002001GLORIANT CHEMICAL DE COLOMBIA LTDA                C000000012006000000000000000000000100010010000000000000000000000F0010000006413800320141021000101 00000000000000000000000000000000000000000000000000000000000000000000000000000000000000000000000000000000000000000N 00000000000NCONT   00    00000000000          00000000000000000000000000000000000000000000 000000000000000A000000000000000000000000000000000000000000000 000000000000000000000000000000000000000     00000000                                                                                                                        000000000000000000
F0010000006413800004000090009800500023658300000000000000000201410210002001GLORIANT CHEMICAL DE COLOMBIA LTDA                C000000000416300000000000000000000100010010000000000000000000000F0010000006413800420141021000101 00000000000000000000000000000000000000000000000000000000000000000000000000000000000000000000000000000000000000000N 00000000000NCONT   00    00000000000          00000000000000000000000000000000000000000000 000000000000000A000000000000000000000000000000000000000000000 000000000000000000000000000000000000000     00000000                                                                                                                        000000000000000000
F0010000006413800005000090009800500013552100000000000000000201410210002001GLORIANT CHEMICAL DE COLOMBIA LTDA                D000000000416300000000000000000000100010010000000000000000000000F0010000006413800520141021000101 00000000000000000000000000000000000000000000000000000000000000000000000000000000000000000000000000000000000000000N 00000000000NCONT   00    00000000000          00000000000000000000000000000000000000000000 000000000000000A000000000000000000000000000000000000000000000 000000000000000000000000000000000000000     00000000                                                                                                                        000000000000000000
F0010000006413900001000083001155300013050500000000000000000201410210002001COMERCIALIZADORA RUBEN S LTDA                     D000000022677500000000000000000000100010010000000000000000000000F0010000006413900120141021000101 00000000000000000000000000000000000000000000000000000000000000000000000000000000000000000000000000000000000000000N 00000000000NCONT   00    00000000000          00000000000000000000000000000000000000000000 000000000000000A000000000000000000000000000000000000000000000 000000000000000000000000000000000000000     00000000                                                                                                                        000000000000000000
F0010000006413900002000083001155300041450500000000000000000201410210002001COMERCIALIZADORA RUBEN S LTDA                     C000000021402400000000000000000000100010010000000000000000000000F0010000006413900220141021000101 00000000000000000000000000000000000000000000000000000000000000000000000000000000000000000000000000000000000000000N 00000000000NCONT   00    00000000000          00000000000000000000000000000000000000000000 000000000000000A000000000000000000000000000000000000000000000 000000000000000000000000000000000000000     00000000                                                                                                                        000000000000000000
F0010000006413900003000083001155300042505000000000000000000201410210002001COMERCIALIZADORA RUBEN S LTDA                     C000000001275100000000000000000000100010010000000000000000000000F0010000006413900320141021000101 00000000000000000000000000000000000000000000000000000000000000000000000000000000000000000000000000000000000000000N 00000000000NCONT   00    00000000000          00000000000000000000000000000000000000000000 000000000000000A000000000000000000000000000000000000000000000 000000000000000000000000000000000000000     00000000                                                                                                                        000000000000000000
F0010000006413900004000083001155300023658300000000000000000201410210002001COMERCIALIZADORA RUBEN S LTDA                     C000000000171200000000000000000000100010010000000000000000000000F0010000006413900420141021000101 00000000000000000000000000000000000000000000000000000000000000000000000000000000000000000000000000000000000000000N 00000000000NCONT   00    00000000000          00000000000000000000000000000000000000000000 000000000000000A000000000000000000000000000000000000000000000 000000000000000000000000000000000000000     00000000                                                                                                                        000000000000000000
F0010000006413900005000083001155300013552100000000000000000201410210002001COMERCIALIZADORA RUBEN S LTDA                     D000000000171200000000000000000000100010010000000000000000000000F0010000006413900520141021000101 00000000000000000000000000000000000000000000000000000000000000000000000000000000000000000000000000000000000000000N 00000000000NCONT   00    00000000000          00000000000000000000000000000000000000000000 000000000000000A000000000000000000000000000000000000000000000 000000000000000000000000000000000000000     00000000                                                                                                                        000000000000000000
F0010000006414000001000089010260300013050500000000000000000201410210002001FEDERICO OSORIO A. S.A.                           D000000066784700000000000000000000100010010000000000000000000000F0010000006414000120141021000101 00000000000000000000000000000000000000000000000000000000000000000000000000000000000000000000000000000000000000000N 00000000000NCONT   00    00000000000          00000000000000000000000000000000000000000000 000000000000000A000000000000000000000000000000000000000000000 000000000000000000000000000000000000000     00000000                                                                                                                        000000000000000000
F0010000006414000002000089010260300041450500000000000000000201410210002001FEDERICO OSORIO A. S.A.                           C000000061520000000000000000000000100010010000000000000000000000F0010000006414000220141021000101 00000000000000000000000000000000000000000000000000000000000000000000000000000000000000000000000000000000000000000N 00000000000NCONT   00    00000000000          00000000000000000000000000000000000000000000 000000000000000A000000000000000000000000000000000000000000000 000000000000000000000000000000000000000     00000000                                                                                                                        000000000000000000
F0010000006414000003000089010260300042505000000000000000000201410210002001FEDERICO OSORIO A. S.A.                           C000000005264700000000000000000000100010010000000000000000000000F0010000006414000320141021000101 00000000000000000000000000000000000000000000000000000000000000000000000000000000000000000000000000000000000000000N 00000000000NCONT   00    00000000000          00000000000000000000000000000000000000000000 000000000000000A000000000000000000000000000000000000000000000 000000000000000000000000000000000000000     00000000                                                                                                                        000000000000000000
F0010000006414000004000089010260300023658300000000000000000201410210002001FEDERICO OSORIO A. S.A.                           C000000000492200000000000000000000100010010000000000000000000000F0010000006414000420141021000101 00000000000000000000000000000000000000000000000000000000000000000000000000000000000000000000000000000000000000000N 00000000000NCONT   00    00000000000          00000000000000000000000000000000000000000000 000000000000000A000000000000000000000000000000000000000000000 000000000000000000000000000000000000000     00000000                                                                                                                        000000000000000000
F0010000006414000005000089010260300013552100000000000000000201410210002001FEDERICO OSORIO A. S.A.                           D000000000492200000000000000000000100010010000000000000000000000F0010000006414000520141021000101 00000000000000000000000000000000000000000000000000000000000000000000000000000000000000000000000000000000000000000N 00000000000NCONT   00    00000000000          00000000000000000000000000000000000000000000 000000000000000A000000000000000000000000000000000000000000000 000000000000000000000000000000000000000     00000000                                                                                                                        000000000000000000
F0010000006414100001000090040527000013050500000000000000000201410210002001MIL TORNILLOS SAS                                 D000000025000000000000000000000000100010010000000000000000000000F0010000006414100120141021000101 00000000000000000000000000000000000000000000000000000000000000000000000000000000000000000000000000000000000000000N 00000000000NCONT   00    00000000000          00000000000000000000000000000000000000000000 000000000000000A000000000000000000000000000000000000000000000 000000000000000000000000000000000000000     00000000                                                                                                                        000000000000000000
F0010000006414100002000090040527000041450500000000000000000201410210002001MIL TORNILLOS SAS                                 C000000024200000000000000000000000100010010000000000000000000000F0010000006414100220141021000101 00000000000000000000000000000000000000000000000000000000000000000000000000000000000000000000000000000000000000000N 00000000000NCONT   00    00000000000          00000000000000000000000000000000000000000000 000000000000000A000000000000000000000000000000000000000000000 000000000000000000000000000000000000000     00000000                                                                                                                        000000000000000000
F0010000006414100003000090040527000042505000000000000000000201410210002001MIL TORNILLOS SAS                                 C000000000800000000000000000000000100010010000000000000000000000F0010000006414100320141021000101 00000000000000000000000000000000000000000000000000000000000000000000000000000000000000000000000000000000000000000N 00000000000NCONT   00    00000000000          00000000000000000000000000000000000000000000 000000000000000A000000000000000000000000000000000000000000000 000000000000000000000000000000000000000     00000000                                                                                                                        000000000000000000
F0010000006414100004000090040527000023658300000000000000000201410210002001MIL TORNILLOS SAS                                 C000000000193600000000000000000000100010010000000000000000000000F0010000006414100420141021000101 00000000000000000000000000000000000000000000000000000000000000000000000000000000000000000000000000000000000000000N 00000000000NCONT   00    00000000000          00000000000000000000000000000000000000000000 000000000000000A000000000000000000000000000000000000000000000 000000000000000000000000000000000000000     00000000                                                                                                                        000000000000000000
F0010000006414100005000090040527000013552100000000000000000201410210002001MIL TORNILLOS SAS                                 D000000000193600000000000000000000100010010000000000000000000000F0010000006414100520141021000101 00000000000000000000000000000000000000000000000000000000000000000000000000000000000000000000000000000000000000000N 00000000000NCONT   00    00000000000          00000000000000000000000000000000000000000000 000000000000000A000000000000000000000000000000000000000000000 000000000000000000000000000000000000000     00000000                                                                                                                        000000000000000000
F0010000006414200001000080201490100011050500000000000000000201410210002001ROBERTO RIVERA                                    D000000015000000000000000000000000100010010000000000000000000000F0010000006414200120141021000101 00000000000000000000000000000000000000000000000000000000000000000000000000000000000000000000000000000000000000000N 00000000000NCONT   00    00000000000          00000000000000000000000000000000000000000000 000000000000000A000000000000000000000000000000000000000000000 000000000000000000000000000000000000000     00000000                                                                                                                        000000000000000000
F0010000006414200002000080201490100041450500000000000000000201410210002001ROBERTO RIVERA                                    C000000013500000000000000000000000100010010000000000000000000000F0010000006414200220141021000101 00000000000000000000000000000000000000000000000000000000000000000000000000000000000000000000000000000000000000000N 00000000000NCONT   00    00000000000          00000000000000000000000000000000000000000000 000000000000000A000000000000000000000000000000000000000000000 000000000000000000000000000000000000000     00000000                                                                                                                        000000000000000000
F0010000006414200003000080201490100042505000000000000000000201410210002001ROBERTO RIVERA                                    C000000001500000000000000000000000100010010000000000000000000000F0010000006414200320141021000101 00000000000000000000000000000000000000000000000000000000000000000000000000000000000000000000000000000000000000000N 00000000000NCONT   00    00000000000          00000000000000000000000000000000000000000000 000000000000000A000000000000000000000000000000000000000000000 000000000000000000000000000000000000000     00000000                                                                                                                        000000000000000000
F0010000006414200004000080201490100023658300000000000000000201410210002001ROBERTO RIVERA                                    C000000000108000000000000000000000100010010000000000000000000000F0010000006414200420141021000101 00000000000000000000000000000000000000000000000000000000000000000000000000000000000000000000000000000000000000000N 00000000000NCONT   00    00000000000          00000000000000000000000000000000000000000000 000000000000000A000000000000000000000000000000000000000000000 000000000000000000000000000000000000000     00000000                                                                                                                        000000000000000000
F0010000006414200005000080201490100013552100000000000000000201410210002001ROBERTO RIVERA                                    D000000000108000000000000000000000100010010000000000000000000000F0010000006414200520141021000101 00000000000000000000000000000000000000000000000000000000000000000000000000000000000000000000000000000000000000000N 00000000000NCONT   00    00000000000          00000000000000000000000000000000000000000000 000000000000000A000000000000000000000000000000000000000000000 000000000000000000000000000000000000000     00000000                                                                                                                        000000000000000000
F0010000006414300001000003262315300011050500000000000000000201410210002001CACHARRERIA LA PROPIA JICHA                       D000000002000000000000000000000000100010010000000000000000000000F0010000006414300120141021000101 00000000000000000000000000000000000000000000000000000000000000000000000000000000000000000000000000000000000000000N 00000000000NCONT   00    00000000000          00000000000000000000000000000000000000000000 000000000000000A000000000000000000000000000000000000000000000 000000000000000000000000000000000000000     00000000                                                                                                                        000000000000000000
F0010000006414300002000003262315300041450500000000000000000201410210002001CACHARRERIA LA PROPIA JICHA                       C000000001600000000000000000000000100010010000000000000000000000F0010000006414300220141021000101 00000000000000000000000000000000000000000000000000000000000000000000000000000000000000000000000000000000000000000N 00000000000NCONT   00    00000000000          00000000000000000000000000000000000000000000 000000000000000A000000000000000000000000000000000000000000000 000000000000000000000000000000000000000     00000000                                                                                                                        000000000000000000
F0010000006414300003000003262315300042505000000000000000000201410210002001CACHARRERIA LA PROPIA JICHA                       C000000000400000000000000000000000100010010000000000000000000000F0010000006414300320141021000101 00000000000000000000000000000000000000000000000000000000000000000000000000000000000000000000000000000000000000000N 00000000000NCONT   00    00000000000          00000000000000000000000000000000000000000000 000000000000000A000000000000000000000000000000000000000000000 000000000000000000000000000000000000000     00000000                                                                                                                        000000000000000000
F0010000006414300004000003262315300023658300000000000000000201410210002001CACHARRERIA LA PROPIA JICHA                       C000000000012800000000000000000000100010010000000000000000000000F0010000006414300420141021000101 00000000000000000000000000000000000000000000000000000000000000000000000000000000000000000000000000000000000000000N 00000000000NCONT   00    00000000000          00000000000000000000000000000000000000000000 000000000000000A000000000000000000000000000000000000000000000 000000000000000000000000000000000000000     00000000                                                                                                                        000000000000000000
F0010000006414300005000003262315300013552100000000000000000201410210002001CACHARRERIA LA PROPIA JICHA                       D000000000012800000000000000000000100010010000000000000000000000F0010000006414300520141021000101 00000000000000000000000000000000000000000000000000000000000000000000000000000000000000000000000000000000000000000N 00000000000NCONT   00    00000000000          00000000000000000000000000000000000000000000 000000000000000A000000000000000000000000000000000000000000000 000000000000000000000000000000000000000     00000000                                                                                                                        000000000000000000
F0010000006414400001000003262315300011050500000000000000000201410210002001CACHARRERIA LA PROPIA JICHA                       D000000001000000000000000000000000100010010000000000000000000000F0010000006414400120141021000101 00000000000000000000000000000000000000000000000000000000000000000000000000000000000000000000000000000000000000000N 00000000000NCONT   00    00000000000          00000000000000000000000000000000000000000000 000000000000000A000000000000000000000000000000000000000000000 000000000000000000000000000000000000000     00000000                                                                                                                        000000000000000000
F0010000006414400002000003262315300041450500000000000000000201410210002001CACHARRERIA LA PROPIA JICHA                       C000000000900000000000000000000000100010010000000000000000000000F0010000006414400220141021000101 00000000000000000000000000000000000000000000000000000000000000000000000000000000000000000000000000000000000000000N 00000000000NCONT   00    00000000000          00000000000000000000000000000000000000000000 000000000000000A000000000000000000000000000000000000000000000 000000000000000000000000000000000000000     00000000                                                                                                                        000000000000000000
F0010000006414400003000003262315300042505000000000000000000201410210002001CACHARRERIA LA PROPIA JICHA                       C000000000100000000000000000000000100010010000000000000000000000F0010000006414400320141021000101 00000000000000000000000000000000000000000000000000000000000000000000000000000000000000000000000000000000000000000N 00000000000NCONT   00    00000000000          00000000000000000000000000000000000000000000 000000000000000A000000000000000000000000000000000000000000000 000000000000000000000000000000000000000     00000000                                                                                                                        000000000000000000
F0010000006414400004000003262315300023658300000000000000000201410210002001CACHARRERIA LA PROPIA JICHA                       C000000000007200000000000000000000100010010000000000000000000000F0010000006414400420141021000101 00000000000000000000000000000000000000000000000000000000000000000000000000000000000000000000000000000000000000000N 00000000000NCONT   00    00000000000          00000000000000000000000000000000000000000000 000000000000000A000000000000000000000000000000000000000000000 000000000000000000000000000000000000000     00000000                                                                                                                        000000000000000000
F0010000006414400005000003262315300013552100000000000000000201410210002001CACHARRERIA LA PROPIA JICHA                       D000000000007200000000000000000000100010010000000000000000000000F0010000006414400520141021000101 00000000000000000000000000000000000000000000000000000000000000000000000000000000000000000000000000000000000000000N 00000000000NCONT   00    00000000000          00000000000000000000000000000000000000000000 000000000000000A000000000000000000000000000000000000000000000 000000000000000000000000000000000000000     00000000                                                                                                                        000000000000000000
F0010000006414500001000000742399700011050500000000000000000201410210002001CACHARRERIA EL NUEVO CHADID                       D000000001000000000000000000000000100010010000000000000000000000F0010000006414500120141021000101 00000000000000000000000000000000000000000000000000000000000000000000000000000000000000000000000000000000000000000N 00000000000NCONT   00    00000000000          00000000000000000000000000000000000000000000 000000000000000A000000000000000000000000000000000000000000000 000000000000000000000000000000000000000     00000000                                                                                                                        000000000000000000
F0010000006414500002000000742399700041450500000000000000000201410210002001CACHARRERIA EL NUEVO CHADID                       C000000000750000000000000000000000100010010000000000000000000000F0010000006414500220141021000101 00000000000000000000000000000000000000000000000000000000000000000000000000000000000000000000000000000000000000000N 00000000000NCONT   00    00000000000          00000000000000000000000000000000000000000000 000000000000000A000000000000000000000000000000000000000000000 000000000000000000000000000000000000000     00000000                                                                                                                        000000000000000000
F0010000006414500003000000742399700042505000000000000000000201410210002001CACHARRERIA EL NUEVO CHADID                       C000000000250000000000000000000000100010010000000000000000000000F0010000006414500320141021000101 00000000000000000000000000000000000000000000000000000000000000000000000000000000000000000000000000000000000000000N 00000000000NCONT   00    00000000000          00000000000000000000000000000000000000000000 000000000000000A000000000000000000000000000000000000000000000 000000000000000000000000000000000000000     00000000                                                                                                                        000000000000000000
F0010000006414500004000000742399700023658300000000000000000201410210002001CACHARRERIA EL NUEVO CHADID                       C000000000006000000000000000000000100010010000000000000000000000F0010000006414500420141021000101 00000000000000000000000000000000000000000000000000000000000000000000000000000000000000000000000000000000000000000N 00000000000NCONT   00    00000000000          00000000000000000000000000000000000000000000 000000000000000A000000000000000000000000000000000000000000000 000000000000000000000000000000000000000     00000000                                                                                                                        000000000000000000
F0010000006414500005000000742399700013552100000000000000000201410210002001CACHARRERIA EL NUEVO CHADID                       D000000000006000000000000000000000100010010000000000000000000000F0010000006414500520141021000101 00000000000000000000000000000000000000000000000000000000000000000000000000000000000000000000000000000000000000000N 00000000000NCONT   00    00000000000          00000000000000000000000000000000000000000000 000000000000000A000000000000000000000000000000000000000000000 000000000000000000000000000000000000000     00000000                                                                                                                        000000000000000000
F0010000006414600001000000226744300011050500000000000000000201410210002001MARIA RODRIGUEZ                                   D000000002300000000000000000000000100010010000000000000000000000F0010000006414600120141021000101 00000000000000000000000000000000000000000000000000000000000000000000000000000000000000000000000000000000000000000N 00000000000NCONT   00    00000000000          00000000000000000000000000000000000000000000 000000000000000A000000000000000000000000000000000000000000000 000000000000000000000000000000000000000     00000000                                                                                                                        000000000000000000
F0010000006414600002000000226744300041450500000000000000000201410210002001MARIA RODRIGUEZ                                   C000000001800000000000000000000000100010010000000000000000000000F0010000006414600220141021000101 00000000000000000000000000000000000000000000000000000000000000000000000000000000000000000000000000000000000000000N 00000000000NCONT   00    00000000000          00000000000000000000000000000000000000000000 000000000000000A000000000000000000000000000000000000000000000 000000000000000000000000000000000000000     00000000                                                                                                                        000000000000000000
F0010000006414600003000000226744300042505000000000000000000201410210002001MARIA RODRIGUEZ                                   C000000000500000000000000000000000100010010000000000000000000000F0010000006414600320141021000101 00000000000000000000000000000000000000000000000000000000000000000000000000000000000000000000000000000000000000000N 00000000000NCONT   00    00000000000          00000000000000000000000000000000000000000000 000000000000000A000000000000000000000000000000000000000000000 000000000000000000000000000000000000000     00000000                                                                                                                        000000000000000000
F0010000006414600004000000226744300023658300000000000000000201410210002001MARIA RODRIGUEZ                                   C000000000014400000000000000000000100010010000000000000000000000F0010000006414600420141021000101 00000000000000000000000000000000000000000000000000000000000000000000000000000000000000000000000000000000000000000N 00000000000NCONT   00    00000000000          00000000000000000000000000000000000000000000 000000000000000A000000000000000000000000000000000000000000000 000000000000000000000000000000000000000     00000000                                                                                                                        000000000000000000
F0010000006414600005000000226744300013552100000000000000000201410210002001MARIA RODRIGUEZ                                   D000000000014400000000000000000000100010010000000000000000000000F0010000006414600520141021000101 00000000000000000000000000000000000000000000000000000000000000000000000000000000000000000000000000000000000000000N 00000000000NCONT   00    00000000000          00000000000000000000000000000000000000000000 000000000000000A000000000000000000000000000000000000000000000 000000000000000000000000000000000000000     00000000                                                                                                                        000000000000000000
F0010000006414700001000080202350700011050500000000000000000201410210002001CONNY DE LA COSTA SAS                             D000000001100000000000000000000000100010010000000000000000000000F0010000006414700120141021000101 00000000000000000000000000000000000000000000000000000000000000000000000000000000000000000000000000000000000000000N 00000000000NCONT   00    00000000000          00000000000000000000000000000000000000000000 000000000000000A000000000000000000000000000000000000000000000 000000000000000000000000000000000000000     00000000                                                                                                                        000000000000000000
F0010000006414700002000080202350700041450500000000000000000201410210002001CONNY DE LA COSTA SAS                             C000000000800000000000000000000000100010010000000000000000000000F0010000006414700220141021000101 00000000000000000000000000000000000000000000000000000000000000000000000000000000000000000000000000000000000000000N 00000000000NCONT   00    00000000000          00000000000000000000000000000000000000000000 000000000000000A000000000000000000000000000000000000000000000 000000000000000000000000000000000000000     00000000                                                                                                                        000000000000000000
F0010000006414700003000080202350700042505000000000000000000201410210002001CONNY DE LA COSTA SAS                             C000000000300000000000000000000000100010010000000000000000000000F0010000006414700320141021000101 00000000000000000000000000000000000000000000000000000000000000000000000000000000000000000000000000000000000000000N 00000000000NCONT   00    00000000000          00000000000000000000000000000000000000000000 000000000000000A000000000000000000000000000000000000000000000 000000000000000000000000000000000000000     00000000                                                                                                                        000000000000000000
F0010000006414700004000080202350700023658300000000000000000201410210002001CONNY DE LA COSTA SAS                             C000000000006400000000000000000000100010010000000000000000000000F0010000006414700420141021000101 00000000000000000000000000000000000000000000000000000000000000000000000000000000000000000000000000000000000000000N 00000000000NCONT   00    00000000000          00000000000000000000000000000000000000000000 000000000000000A000000000000000000000000000000000000000000000 000000000000000000000000000000000000000     00000000                                                                                                                        000000000000000000
F0010000006414700005000080202350700013552100000000000000000201410210002001CONNY DE LA COSTA SAS                             D000000000006400000000000000000000100010010000000000000000000000F0010000006414700520141021000101 00000000000000000000000000000000000000000000000000000000000000000000000000000000000000000000000000000000000000000N 00000000000NCONT   00    00000000000          00000000000000000000000000000000000000000000 000000000000000A000000000000000000000000000000000000000000000 000000000000000000000000000000000000000     00000000                                                                                                                        000000000000000000
F0010000006414800001000080202350700011050500000000000000000201410210002001CONNY DE LA COSTA SAS                             D000000001300000000000000000000000100010010000000000000000000000F0010000006414800120141021000101 00000000000000000000000000000000000000000000000000000000000000000000000000000000000000000000000000000000000000000N 00000000000NCONT   00    00000000000          00000000000000000000000000000000000000000000 000000000000000A000000000000000000000000000000000000000000000 000000000000000000000000000000000000000     00000000                                                                                                                        000000000000000000
F0010000006414800002000080202350700041450500000000000000000201410210002001CONNY DE LA COSTA SAS                             C000000000800000000000000000000000100010010000000000000000000000F0010000006414800220141021000101 00000000000000000000000000000000000000000000000000000000000000000000000000000000000000000000000000000000000000000N 00000000000NCONT   00    00000000000          00000000000000000000000000000000000000000000 000000000000000A000000000000000000000000000000000000000000000 000000000000000000000000000000000000000     00000000                                                                                                                        000000000000000000
F0010000006414800003000080202350700042505000000000000000000201410210002001CONNY DE LA COSTA SAS                             C000000000500000000000000000000000100010010000000000000000000000F0010000006414800320141021000101 00000000000000000000000000000000000000000000000000000000000000000000000000000000000000000000000000000000000000000N 00000000000NCONT   00    00000000000          00000000000000000000000000000000000000000000 000000000000000A000000000000000000000000000000000000000000000 000000000000000000000000000000000000000     00000000                                                                                                                        000000000000000000
F0010000006414800004000080202350700023658300000000000000000201410210002001CONNY DE LA COSTA SAS                             C000000000006400000000000000000000100010010000000000000000000000F0010000006414800420141021000101 00000000000000000000000000000000000000000000000000000000000000000000000000000000000000000000000000000000000000000N 00000000000NCONT   00    00000000000          00000000000000000000000000000000000000000000 000000000000000A000000000000000000000000000000000000000000000 000000000000000000000000000000000000000     00000000                                                                                                                        000000000000000000
F0010000006414800005000080202350700013552100000000000000000201410210002001CONNY DE LA COSTA SAS                             D000000000006400000000000000000000100010010000000000000000000000F0010000006414800520141021000101 00000000000000000000000000000000000000000000000000000000000000000000000000000000000000000000000000000000000000000N 00000000000NCONT   00    00000000000          00000000000000000000000000000000000000000000 000000000000000A000000000000000000000000000000000000000000000 000000000000000000000000000000000000000     00000000                                                                                                                        000000000000000000
F0010000006414900001000000869805000011050500000000000000000201410210002001WILMAN RAMBAL LARA                                D000000001300000000000000000000000100010010000000000000000000000F0010000006414900120141021000101 00000000000000000000000000000000000000000000000000000000000000000000000000000000000000000000000000000000000000000N 00000000000NCONT   00    00000000000          00000000000000000000000000000000000000000000 000000000000000A000000000000000000000000000000000000000000000 000000000000000000000000000000000000000     00000000                                                                                                                        000000000000000000
F0010000006414900002000000869805000041450500000000000000000201410210002001WILMAN RAMBAL LARA                                C000000001200000000000000000000000100010010000000000000000000000F0010000006414900220141021000101 00000000000000000000000000000000000000000000000000000000000000000000000000000000000000000000000000000000000000000N 00000000000NCONT   00    00000000000          00000000000000000000000000000000000000000000 000000000000000A000000000000000000000000000000000000000000000 000000000000000000000000000000000000000     00000000                                                                                                                        000000000000000000
F0010000006414900003000000869805000042505000000000000000000201410210002001WILMAN RAMBAL LARA                                C000000000100000000000000000000000100010010000000000000000000000F0010000006414900320141021000101 00000000000000000000000000000000000000000000000000000000000000000000000000000000000000000000000000000000000000000N 00000000000NCONT   00    00000000000          00000000000000000000000000000000000000000000 000000000000000A000000000000000000000000000000000000000000000 000000000000000000000000000000000000000     00000000                                                                                                                        000000000000000000
F0010000006414900004000000869805000023658300000000000000000201410210002001WILMAN RAMBAL LARA                                C000000000009600000000000000000000100010010000000000000000000000F0010000006414900420141021000101 00000000000000000000000000000000000000000000000000000000000000000000000000000000000000000000000000000000000000000N 00000000000NCONT   00    00000000000          00000000000000000000000000000000000000000000 000000000000000A000000000000000000000000000000000000000000000 000000000000000000000000000000000000000     00000000                                                                                                                        000000000000000000
F0010000006414900005000000869805000013552100000000000000000201410210002001WILMAN RAMBAL LARA                                D000000000009600000000000000000000100010010000000000000000000000F0010000006414900520141021000101 00000000000000000000000000000000000000000000000000000000000000000000000000000000000000000000000000000000000000000N 00000000000NCONT   00    00000000000          00000000000000000000000000000000000000000000 000000000000000A000000000000000000000000000000000000000000000 000000000000000000000000000000000000000     00000000                                                                                                                        000000000000000000
F0010000006415000001000090015579300011050500000000000000000201410210002001CHAFRUT SAS                                       D000000003500000000000000000000000100010010000000000000000000000F0010000006415000120141021000101 00000000000000000000000000000000000000000000000000000000000000000000000000000000000000000000000000000000000000000N 00000000000NCONT   00    00000000000          00000000000000000000000000000000000000000000 000000000000000A000000000000000000000000000000000000000000000 000000000000000000000000000000000000000     00000000                                                                                                                        000000000000000000
F0010000006415000002000090015579300041450500000000000000000201410210002001CHAFRUT SAS                                       C000000003000000000000000000000000100010010000000000000000000000F0010000006415000220141021000101 00000000000000000000000000000000000000000000000000000000000000000000000000000000000000000000000000000000000000000N 00000000000NCONT   00    00000000000          00000000000000000000000000000000000000000000 000000000000000A000000000000000000000000000000000000000000000 000000000000000000000000000000000000000     00000000                                                                                                                        000000000000000000
F0010000006415000003000090015579300042505000000000000000000201410210002001CHAFRUT SAS                                       C000000000500000000000000000000000100010010000000000000000000000F0010000006415000320141021000101 00000000000000000000000000000000000000000000000000000000000000000000000000000000000000000000000000000000000000000N 00000000000NCONT   00    00000000000          00000000000000000000000000000000000000000000 000000000000000A000000000000000000000000000000000000000000000 000000000000000000000000000000000000000     00000000                                                                                                                        000000000000000000
F0010000006415000004000090015579300023658300000000000000000201410210002001CHAFRUT SAS                                       C000000000024000000000000000000000100010010000000000000000000000F0010000006415000420141021000101 00000000000000000000000000000000000000000000000000000000000000000000000000000000000000000000000000000000000000000N 00000000000NCONT   00    00000000000          00000000000000000000000000000000000000000000 000000000000000A000000000000000000000000000000000000000000000 000000000000000000000000000000000000000     00000000                                                                                                                        000000000000000000
F0010000006415000005000090015579300013552100000000000000000201410210002001CHAFRUT SAS                                       D000000000024000000000000000000000100010010000000000000000000000F0010000006415000520141021000101 00000000000000000000000000000000000000000000000000000000000000000000000000000000000000000000000000000000000000000N 00000000000NCONT   00    00000000000          00000000000000000000000000000000000000000000 000000000000000A000000000000000000000000000000000000000000000 000000000000000000000000000000000000000     00000000                                                                                                                        000000000000000000
F0010000006415100001000080202350700011050500000000000000000201410210002001CONNY DE LA COSTA SAS                             D000000024000000000000000000000000100010010000000000000000000000F0010000006415100120141021000101 00000000000000000000000000000000000000000000000000000000000000000000000000000000000000000000000000000000000000000N 00000000000NCONT   00    00000000000          00000000000000000000000000000000000000000000 000000000000000A000000000000000000000000000000000000000000000 000000000000000000000000000000000000000     00000000                                                                                                                        000000000000000000
F0010000006415100002000080202350700041450500000000000000000201410210002001CONNY DE LA COSTA SAS                             C000000020000000000000000000000000100010010000000000000000000000F0010000006415100220141021000101 00000000000000000000000000000000000000000000000000000000000000000000000000000000000000000000000000000000000000000N 00000000000NCONT   00    00000000000          00000000000000000000000000000000000000000000 000000000000000A000000000000000000000000000000000000000000000 000000000000000000000000000000000000000     00000000                                                                                                                        000000000000000000
F0010000006415100003000080202350700042505000000000000000000201410210002001CONNY DE LA COSTA SAS                             C000000004000000000000000000000000100010010000000000000000000000F0010000006415100320141021000101 00000000000000000000000000000000000000000000000000000000000000000000000000000000000000000000000000000000000000000N 00000000000NCONT   00    00000000000          00000000000000000000000000000000000000000000 000000000000000A000000000000000000000000000000000000000000000 000000000000000000000000000000000000000     00000000                                                                                                                        000000000000000000
F0010000006415100004000080202350700023658300000000000000000201410210002001CONNY DE LA COSTA SAS                             C000000000160000000000000000000000100010010000000000000000000000F0010000006415100420141021000101 00000000000000000000000000000000000000000000000000000000000000000000000000000000000000000000000000000000000000000N 00000000000NCONT   00    00000000000          00000000000000000000000000000000000000000000 000000000000000A000000000000000000000000000000000000000000000 000000000000000000000000000000000000000     00000000                                                                                                                        000000000000000000
F0010000006415100005000080202350700013552100000000000000000201410210002001CONNY DE LA COSTA SAS                             D000000000160000000000000000000000100010010000000000000000000000F0010000006415100520141021000101 00000000000000000000000000000000000000000000000000000000000000000000000000000000000000000000000000000000000000000N 00000000000NCONT   00    00000000000          00000000000000000000000000000000000000000000 000000000000000A000000000000000000000000000000000000000000000 000000000000000000000000000000000000000     00000000                                                                                                                        000000000000000000
F0010000006415200001000080202350700011050500000000000000000201410210002001CONNY DE LA COSTA SAS                             D000000003300000000000000000000000100010010000000000000000000000F0010000006415200120141021000101 00000000000000000000000000000000000000000000000000000000000000000000000000000000000000000000000000000000000000000N 00000000000NCONT   00    00000000000          00000000000000000000000000000000000000000000 000000000000000A000000000000000000000000000000000000000000000 000000000000000000000000000000000000000     00000000                                                                                                                        000000000000000000
F0010000006415200002000080202350700041450500000000000000000201410210002001CONNY DE LA COSTA SAS                             C000000002300000000000000000000000100010010000000000000000000000F0010000006415200220141021000101 00000000000000000000000000000000000000000000000000000000000000000000000000000000000000000000000000000000000000000N 00000000000NCONT   00    00000000000          00000000000000000000000000000000000000000000 000000000000000A000000000000000000000000000000000000000000000 000000000000000000000000000000000000000     00000000                                                                                                                        000000000000000000
F0010000006415200003000080202350700042505000000000000000000201410210002001CONNY DE LA COSTA SAS                             C000000001000000000000000000000000100010010000000000000000000000F0010000006415200320141021000101 00000000000000000000000000000000000000000000000000000000000000000000000000000000000000000000000000000000000000000N 00000000000NCONT   00    00000000000          00000000000000000000000000000000000000000000 000000000000000A000000000000000000000000000000000000000000000 000000000000000000000000000000000000000     00000000                                                                                                                        000000000000000000
F0010000006415200004000080202350700023658300000000000000000201410210002001CONNY DE LA COSTA SAS                             C000000000018400000000000000000000100010010000000000000000000000F0010000006415200420141021000101 00000000000000000000000000000000000000000000000000000000000000000000000000000000000000000000000000000000000000000N 00000000000NCONT   00    00000000000          00000000000000000000000000000000000000000000 000000000000000A000000000000000000000000000000000000000000000 000000000000000000000000000000000000000     00000000                                                                                                                        000000000000000000
F0010000006415200005000080202350700013552100000000000000000201410210002001CONNY DE LA COSTA SAS                             D000000000018400000000000000000000100010010000000000000000000000F0010000006415200520141021000101 00000000000000000000000000000000000000000000000000000000000000000000000000000000000000000000000000000000000000000N 00000000000NCONT   00    00000000000          00000000000000000000000000000000000000000000 000000000000000A000000000000000000000000000000000000000000000 000000000000000000000000000000000000000     00000000                                                                                                                        000000000000000000
F0010000006415300001000083007900600011050500000000000000000201410210002001EXPRESO ANDINO DE CARGA SA                        D000000003700000000000000000000000100010010000000000000000000000F0010000006415300120141021000101 00000000000000000000000000000000000000000000000000000000000000000000000000000000000000000000000000000000000000000N 00000000000NCONT   00    00000000000          00000000000000000000000000000000000000000000 000000000000000A000000000000000000000000000000000000000000000 000000000000000000000000000000000000000     00000000                                                                                                                        000000000000000000
F0010000006415300002000083007900600041450500000000000000000201410210002001EXPRESO ANDINO DE CARGA SA                        C000000003600000000000000000000000100010010000000000000000000000F0010000006415300220141021000101 00000000000000000000000000000000000000000000000000000000000000000000000000000000000000000000000000000000000000000N 00000000000NCONT   00    00000000000          00000000000000000000000000000000000000000000 000000000000000A000000000000000000000000000000000000000000000 000000000000000000000000000000000000000     00000000                                                                                                                        000000000000000000
F0010000006415300003000083007900600042505000000000000000000201410210002001EXPRESO ANDINO DE CARGA SA                        C000000000100000000000000000000000100010010000000000000000000000F0010000006415300320141021000101 00000000000000000000000000000000000000000000000000000000000000000000000000000000000000000000000000000000000000000N 00000000000NCONT   00    00000000000          00000000000000000000000000000000000000000000 000000000000000A000000000000000000000000000000000000000000000 000000000000000000000000000000000000000     00000000                                                                                                                        000000000000000000
F0010000006415300004000083007900600023658300000000000000000201410210002001EXPRESO ANDINO DE CARGA SA                        C000000000028800000000000000000000100010010000000000000000000000F0010000006415300420141021000101 00000000000000000000000000000000000000000000000000000000000000000000000000000000000000000000000000000000000000000N 00000000000NCONT   00    00000000000          00000000000000000000000000000000000000000000 000000000000000A000000000000000000000000000000000000000000000 000000000000000000000000000000000000000     00000000                                                                                                                        000000000000000000
F0010000006415300005000083007900600013552100000000000000000201410210002001EXPRESO ANDINO DE CARGA SA                        D000000000028800000000000000000000100010010000000000000000000000F0010000006415300520141021000101 00000000000000000000000000000000000000000000000000000000000000000000000000000000000000000000000000000000000000000N 00000000000NCONT   00    00000000000          00000000000000000000000000000000000000000000 000000000000000A000000000000000000000000000000000000000000000 000000000000000000000000000000000000000     00000000                                                                                                                        000000000000000000
F0010000006415400001000080202350700011050500000000000000000201410210002001CONNY DE LA COSTA SAS                             D000000001700000000000000000000000100010010000000000000000000000F0010000006415400120141021000101 00000000000000000000000000000000000000000000000000000000000000000000000000000000000000000000000000000000000000000N 00000000000NCONT   00    00000000000          00000000000000000000000000000000000000000000 000000000000000A000000000000000000000000000000000000000000000 000000000000000000000000000000000000000     00000000                                                                                                                        000000000000000000
F0010000006415400002000080202350700041450500000000000000000201410210002001CONNY DE LA COSTA SAS                             C000000001500000000000000000000000100010010000000000000000000000F0010000006415400220141021000101 00000000000000000000000000000000000000000000000000000000000000000000000000000000000000000000000000000000000000000N 00000000000NCONT   00    00000000000          00000000000000000000000000000000000000000000 000000000000000A000000000000000000000000000000000000000000000 000000000000000000000000000000000000000     00000000                                                                                                                        000000000000000000
F0010000006415400003000080202350700042505000000000000000000201410210002001CONNY DE LA COSTA SAS                             C000000000200000000000000000000000100010010000000000000000000000F0010000006415400320141021000101 00000000000000000000000000000000000000000000000000000000000000000000000000000000000000000000000000000000000000000N 00000000000NCONT   00    00000000000          00000000000000000000000000000000000000000000 000000000000000A000000000000000000000000000000000000000000000 000000000000000000000000000000000000000     00000000                                                                                                                        000000000000000000
F0010000006415400004000080202350700023658300000000000000000201410210002001CONNY DE LA COSTA SAS                             C000000000012000000000000000000000100010010000000000000000000000F0010000006415400420141021000101 00000000000000000000000000000000000000000000000000000000000000000000000000000000000000000000000000000000000000000N 00000000000NCONT   00    00000000000          00000000000000000000000000000000000000000000 000000000000000A000000000000000000000000000000000000000000000 000000000000000000000000000000000000000     00000000                                                                                                                        000000000000000000
F0010000006415400005000080202350700013552100000000000000000201410210002001CONNY DE LA COSTA SAS                             D000000000012000000000000000000000100010010000000000000000000000F0010000006415400520141021000101 00000000000000000000000000000000000000000000000000000000000000000000000000000000000000000000000000000000000000000N 00000000000NCONT   00    00000000000          00000000000000000000000000000000000000000000 000000000000000A000000000000000000000000000000000000000000000 000000000000000000000000000000000000000     00000000                                                                                                                        000000000000000000
F0010000006415500001000007226179700011050500000000000000000201410210002001FERRETERIA RNR                                    D000000001000000000000000000000000100010010000000000000000000000F0010000006415500120141021000101 00000000000000000000000000000000000000000000000000000000000000000000000000000000000000000000000000000000000000000N 00000000000NCONT   00    00000000000          00000000000000000000000000000000000000000000 000000000000000A000000000000000000000000000000000000000000000 000000000000000000000000000000000000000     00000000                                                                                                                        000000000000000000
F0010000006415500002000007226179700041450500000000000000000201410210002001FERRETERIA RNR                                    C000000000950000000000000000000000100010010000000000000000000000F0010000006415500220141021000101 00000000000000000000000000000000000000000000000000000000000000000000000000000000000000000000000000000000000000000N 00000000000NCONT   00    00000000000          00000000000000000000000000000000000000000000 000000000000000A000000000000000000000000000000000000000000000 000000000000000000000000000000000000000     00000000                                                                                                                        000000000000000000
F0010000006415500003000007226179700042505000000000000000000201410210002001FERRETERIA RNR                                    C000000000050000000000000000000000100010010000000000000000000000F0010000006415500320141021000101 00000000000000000000000000000000000000000000000000000000000000000000000000000000000000000000000000000000000000000N 00000000000NCONT   00    00000000000          00000000000000000000000000000000000000000000 000000000000000A000000000000000000000000000000000000000000000 000000000000000000000000000000000000000     00000000                                                                                                                        000000000000000000
F0010000006415500004000007226179700023658300000000000000000201410210002001FERRETERIA RNR                                    C000000000007600000000000000000000100010010000000000000000000000F0010000006415500420141021000101 00000000000000000000000000000000000000000000000000000000000000000000000000000000000000000000000000000000000000000N 00000000000NCONT   00    00000000000          00000000000000000000000000000000000000000000 000000000000000A000000000000000000000000000000000000000000000 000000000000000000000000000000000000000     00000000                                                                                                                        000000000000000000
F0010000006415500005000007226179700013552100000000000000000201410210002001FERRETERIA RNR                                    D000000000007600000000000000000000100010010000000000000000000000F0010000006415500520141021000101 00000000000000000000000000000000000000000000000000000000000000000000000000000000000000000000000000000000000000000N 00000000000NCONT   00    00000000000          00000000000000000000000000000000000000000000 000000000000000A000000000000000000000000000000000000000000000 000000000000000000000000000000000000000     00000000                                                                                                                        000000000000000000
F0010000006415600001000086000089600013050500000000000000000201410210002001SIKA COLOMBIA S.A.                                D000000129347500000000000000000000100010010000000000000000000000F0010000006415600120141021000101 00000000000000000000000000000000000000000000000000000000000000000000000000000000000000000000000000000000000000000N 00000000000NCONT   00    00000000000          00000000000000000000000000000000000000000000 000000000000000A000000000000000000000000000000000000000000000 000000000000000000000000000000000000000     00000000                                                                                                                        000000000000000000
F0010000006415600002000086000089600041450500000000000000000201410210002001SIKA COLOMBIA S.A.                                C000000122746100000000000000000000100010010000000000000000000000F0010000006415600220141021000101 00000000000000000000000000000000000000000000000000000000000000000000000000000000000000000000000000000000000000000N 00000000000NCONT   00    00000000000          00000000000000000000000000000000000000000000 000000000000000A000000000000000000000000000000000000000000000 000000000000000000000000000000000000000     00000000                                                                                                                        000000000000000000
F0010000006415600003000086000089600042505000000000000000000201410210002001SIKA COLOMBIA S.A.                                C000000006601400000000000000000000100010010000000000000000000000F0010000006415600320141021000101 00000000000000000000000000000000000000000000000000000000000000000000000000000000000000000000000000000000000000000N 00000000000NCONT   00    00000000000          00000000000000000000000000000000000000000000 000000000000000A000000000000000000000000000000000000000000000 000000000000000000000000000000000000000     00000000                                                                                                                        000000000000000000
F0010000006415600004000086000089600023658300000000000000000201410210002001SIKA COLOMBIA S.A.                                C000000000982000000000000000000000100010010000000000000000000000F0010000006415600420141021000101 00000000000000000000000000000000000000000000000000000000000000000000000000000000000000000000000000000000000000000N 00000000000NCONT   00    00000000000          00000000000000000000000000000000000000000000 000000000000000A000000000000000000000000000000000000000000000 000000000000000000000000000000000000000     00000000                                                                                                                        000000000000000000
F0010000006415600005000086000089600013552100000000000000000201410210002001SIKA COLOMBIA S.A.                                D000000000982000000000000000000000100010010000000000000000000000F0010000006415600520141021000101 00000000000000000000000000000000000000000000000000000000000000000000000000000000000000000000000000000000000000000N 00000000000NCONT   00    00000000000          00000000000000000000000000000000000000000000 000000000000000A000000000000000000000000000000000000000000000 000000000000000000000000000000000000000     00000000                                                                                                                        000000000000000000
F0010000006415700001000090055180500011050500000000000000000201410210002001LAMINAS Y SUELAS DE COLOMBIA S.A.S                D000000002650000000000000000000000100010010000000000000000000000F0010000006415700120141021000101 00000000000000000000000000000000000000000000000000000000000000000000000000000000000000000000000000000000000000000N 00000000000NCONT   00    00000000000          00000000000000000000000000000000000000000000 000000000000000A000000000000000000000000000000000000000000000 000000000000000000000000000000000000000     00000000                                                                                                                        000000000000000000
F0010000006415700002000090055180500041450500000000000000000201410210002001LAMINAS Y SUELAS DE COLOMBIA S.A.S                C000000002500000000000000000000000100010010000000000000000000000F0010000006415700220141021000101 00000000000000000000000000000000000000000000000000000000000000000000000000000000000000000000000000000000000000000N 00000000000NCONT   00    00000000000          00000000000000000000000000000000000000000000 000000000000000A000000000000000000000000000000000000000000000 000000000000000000000000000000000000000     00000000                                                                                                                        000000000000000000
F0010000006415700003000090055180500042505000000000000000000201410210002001LAMINAS Y SUELAS DE COLOMBIA S.A.S                C000000000150000000000000000000000100010010000000000000000000000F0010000006415700320141021000101 00000000000000000000000000000000000000000000000000000000000000000000000000000000000000000000000000000000000000000N 00000000000NCONT   00    00000000000          00000000000000000000000000000000000000000000 000000000000000A000000000000000000000000000000000000000000000 000000000000000000000000000000000000000     00000000                                                                                                                        000000000000000000
F0010000006415700004000090055180500023658300000000000000000201410210002001LAMINAS Y SUELAS DE COLOMBIA S.A.S                C000000000020000000000000000000000100010010000000000000000000000F0010000006415700420141021000101 00000000000000000000000000000000000000000000000000000000000000000000000000000000000000000000000000000000000000000N 00000000000NCONT   00    00000000000          00000000000000000000000000000000000000000000 000000000000000A000000000000000000000000000000000000000000000 000000000000000000000000000000000000000     00000000                                                                                                                        000000000000000000
F0010000006415700005000090055180500013552100000000000000000201410210002001LAMINAS Y SUELAS DE COLOMBIA S.A.S                D000000000020000000000000000000000100010010000000000000000000000F0010000006415700520141021000101 00000000000000000000000000000000000000000000000000000000000000000000000000000000000000000000000000000000000000000N 00000000000NCONT   00    00000000000          00000000000000000000000000000000000000000000 000000000000000A000000000000000000000000000000000000000000000 000000000000000000000000000000000000000     00000000                                                                                                                        000000000000000000
F0010000006415800001000090055180500011050500000000000000000201410210002001LAMINAS Y SUELAS DE COLOMBIA S.A.S                D000000001350000000000000000000000100010010000000000000000000000F0010000006415800120141021000101 00000000000000000000000000000000000000000000000000000000000000000000000000000000000000000000000000000000000000000N 00000000000NCONT   00    00000000000          00000000000000000000000000000000000000000000 000000000000000A000000000000000000000000000000000000000000000 000000000000000000000000000000000000000     00000000                                                                                                                        000000000000000000
F0010000006415800002000090055180500041450500000000000000000201410210002001LAMINAS Y SUELAS DE COLOMBIA S.A.S                C000000001200000000000000000000000100010010000000000000000000000F0010000006415800220141021000101 00000000000000000000000000000000000000000000000000000000000000000000000000000000000000000000000000000000000000000N 00000000000NCONT   00    00000000000          00000000000000000000000000000000000000000000 000000000000000A000000000000000000000000000000000000000000000 000000000000000000000000000000000000000     00000000                                                                                                                        000000000000000000
F0010000006415800003000090055180500042505000000000000000000201410210002001LAMINAS Y SUELAS DE COLOMBIA S.A.S                C000000000150000000000000000000000100010010000000000000000000000F0010000006415800320141021000101 00000000000000000000000000000000000000000000000000000000000000000000000000000000000000000000000000000000000000000N 00000000000NCONT   00    00000000000          00000000000000000000000000000000000000000000 000000000000000A000000000000000000000000000000000000000000000 000000000000000000000000000000000000000     00000000                                                                                                                        000000000000000000
F0010000006415800004000090055180500023658300000000000000000201410210002001LAMINAS Y SUELAS DE COLOMBIA S.A.S                C000000000009600000000000000000000100010010000000000000000000000F0010000006415800420141021000101 00000000000000000000000000000000000000000000000000000000000000000000000000000000000000000000000000000000000000000N 00000000000NCONT   00    00000000000          00000000000000000000000000000000000000000000 000000000000000A000000000000000000000000000000000000000000000 000000000000000000000000000000000000000     00000000                                                                                                                        000000000000000000
F0010000006415800005000090055180500013552100000000000000000201410210002001LAMINAS Y SUELAS DE COLOMBIA S.A.S                D000000000009600000000000000000000100010010000000000000000000000F0010000006415800520141021000101 00000000000000000000000000000000000000000000000000000000000000000000000000000000000000000000000000000000000000000N 00000000000NCONT   00    00000000000          00000000000000000000000000000000000000000000 000000000000000A000000000000000000000000000000000000000000000 000000000000000000000000000000000000000     00000000                                                                                                                        000000000000000000
F0010000006415900001000090050144800011050500000000000000000201410210002001PLASTICOS JR ASOCIADOS SAS                        D000000004750000000000000000000000100010010000000000000000000000F0010000006415900120141021000101 00000000000000000000000000000000000000000000000000000000000000000000000000000000000000000000000000000000000000000N 00000000000NCONT   00    00000000000          00000000000000000000000000000000000000000000 000000000000000A000000000000000000000000000000000000000000000 000000000000000000000000000000000000000     00000000                                                                                                                        000000000000000000
F0010000006415900002000090050144800041450500000000000000000201410210002001PLASTICOS JR ASOCIADOS SAS                        C000000004300000000000000000000000100010010000000000000000000000F0010000006415900220141021000101 00000000000000000000000000000000000000000000000000000000000000000000000000000000000000000000000000000000000000000N 00000000000NCONT   00    00000000000          00000000000000000000000000000000000000000000 000000000000000A000000000000000000000000000000000000000000000 000000000000000000000000000000000000000     00000000                                                                                                                        000000000000000000
F0010000006415900003000090050144800042505000000000000000000201410210002001PLASTICOS JR ASOCIADOS SAS                        C000000000450000000000000000000000100010010000000000000000000000F0010000006415900320141021000101 00000000000000000000000000000000000000000000000000000000000000000000000000000000000000000000000000000000000000000N 00000000000NCONT   00    00000000000          00000000000000000000000000000000000000000000 000000000000000A000000000000000000000000000000000000000000000 000000000000000000000000000000000000000     00000000                                                                                                                        000000000000000000
F0010000006415900004000090050144800023658300000000000000000201410210002001PLASTICOS JR ASOCIADOS SAS                        C000000000034400000000000000000000100010010000000000000000000000F0010000006415900420141021000101 00000000000000000000000000000000000000000000000000000000000000000000000000000000000000000000000000000000000000000N 00000000000NCONT   00    00000000000          00000000000000000000000000000000000000000000 000000000000000A000000000000000000000000000000000000000000000 000000000000000000000000000000000000000     00000000                                                                                                                        000000000000000000
F0010000006415900005000090050144800013552100000000000000000201410210002001PLASTICOS JR ASOCIADOS SAS                        D000000000034400000000000000000000100010010000000000000000000000F0010000006415900520141021000101 00000000000000000000000000000000000000000000000000000000000000000000000000000000000000000000000000000000000000000N 00000000000NCONT   00    00000000000          00000000000000000000000000000000000000000000 000000000000000A000000000000000000000000000000000000000000000 000000000000000000000000000000000000000     00000000                                                                                                                        000000000000000000
F0010000006416000001000090020872300011050500000000000000000201410210002001INTERSOLES SAS                                    D000000000950000000000000000000000100010010000000000000000000000F0010000006416000120141021000101 00000000000000000000000000000000000000000000000000000000000000000000000000000000000000000000000000000000000000000N 00000000000NCONT   00    00000000000          00000000000000000000000000000000000000000000 000000000000000A000000000000000000000000000000000000000000000 000000000000000000000000000000000000000     00000000                                                                                                                        000000000000000000
F0010000006416000002000090020872300041450500000000000000000201410210002001INTERSOLES SAS                                    C000000000900000000000000000000000100010010000000000000000000000F0010000006416000220141021000101 00000000000000000000000000000000000000000000000000000000000000000000000000000000000000000000000000000000000000000N 00000000000NCONT   00    00000000000          00000000000000000000000000000000000000000000 000000000000000A000000000000000000000000000000000000000000000 000000000000000000000000000000000000000     00000000                                                                                                                        000000000000000000
