F0010000010310900001000089011492400013050500000000000000000201709070002001AGE. CAUCHOSOL DE LA COSTA  SAS                   D000000125776800000000000000000000100010010000000000000000000000F0010000010310900120170907000101 00000000000000000000000000000000000000000000000000000000000000000000000000000000000000000000000000000000000000000N 00000000000NCONT   00    00000000000          00000000000000000000000000000000000000000000 000000000000000A000000000000000000000000000000000000000000000 000000000000000000000000000000000000000     00000000                                                                                                                        000000000000000000
F0010000010310900002000089011492400041450500000000000000000201709070002001AGE. CAUCHOSOL DE LA COSTA  SAS                   C000000081870000000000000000000000100010010000000000000000000000F0010000010310900220170907000101 00000000000000000000000000000000000000000000000000000000000000000000000000000000000000000000000000000000000000000N 00000000000NCONT   00    00000000000          00000000000000000000000000000000000000000000 000000000000000A000000000000000000000000000000000000000000000 000000000000000000000000000000000000000     00000000                                                                                                                        000000000000000000
F0010000010310900003000089011492400042505000000000000000000201709070002001AGE. CAUCHOSOL DE LA COSTA  SAS                   C000000043906800000000000000000000100010010000000000000000000000F0010000010310900320170907000101 00000000000000000000000000000000000000000000000000000000000000000000000000000000000000000000000000000000000000000N 00000000000NCONT   00    00000000000          00000000000000000000000000000000000000000000 000000000000000A000000000000000000000000000000000000000000000 000000000000000000000000000000000000000     00000000                                                                                                                        000000000000000000
F0010000010310900004000089011492400023658300000000000000000201709070002001AGE. CAUCHOSOL DE LA COSTA  SAS                   C000000000000000000000000000000000100010010000000000000000000000F0010000010310900420170907000101 00000000000000000000000000000000000000000000000000000000000000000000000000000000000000000000000000000000000000000N 00000000000NCONT   00    00000000000          00000000000000000000000000000000000000000000 000000000000000A000000000000000000000000000000000000000000000 000000000000000000000000000000000000000     00000000                                                                                                                        000000000000000000
F0010000010310900005000089011492400013552100000000000000000201709070002001AGE. CAUCHOSOL DE LA COSTA  SAS                   D000000000000000000000000000000000100010010000000000000000000000F0010000010310900520170907000101 00000000000000000000000000000000000000000000000000000000000000000000000000000000000000000000000000000000000000000N 00000000000NCONT   00    00000000000          00000000000000000000000000000000000000000000 000000000000000A000000000000000000000000000000000000000000000 000000000000000000000000000000000000000     00000000                                                                                                                        000000000000000000
F0010000010311000001000089011492400013050500000000000000000201709070002001AGE. CAUCHOSOL DE LA COSTA  SAS                   D000000038681600000000000000000000100010010000000000000000000000F0010000010311000120170907000101 00000000000000000000000000000000000000000000000000000000000000000000000000000000000000000000000000000000000000000N 00000000000NCONT   00    00000000000          00000000000000000000000000000000000000000000 000000000000000A000000000000000000000000000000000000000000000 000000000000000000000000000000000000000     00000000                                                                                                                        000000000000000000
F0010000010311000002000089011492400041450500000000000000000201709070002001AGE. CAUCHOSOL DE LA COSTA  SAS                   C000000029910000000000000000000000100010010000000000000000000000F0010000010311000220170907000101 00000000000000000000000000000000000000000000000000000000000000000000000000000000000000000000000000000000000000000N 00000000000NCONT   00    00000000000          00000000000000000000000000000000000000000000 000000000000000A000000000000000000000000000000000000000000000 000000000000000000000000000000000000000     00000000                                                                                                                        000000000000000000
F0010000010311000003000089011492400042505000000000000000000201709070002001AGE. CAUCHOSOL DE LA COSTA  SAS                   C000000008771600000000000000000000100010010000000000000000000000F0010000010311000320170907000101 00000000000000000000000000000000000000000000000000000000000000000000000000000000000000000000000000000000000000000N 00000000000NCONT   00    00000000000          00000000000000000000000000000000000000000000 000000000000000A000000000000000000000000000000000000000000000 000000000000000000000000000000000000000     00000000                                                                                                                        000000000000000000
F0010000010311000004000089011492400023658300000000000000000201709070002001AGE. CAUCHOSOL DE LA COSTA  SAS                   C000000000000000000000000000000000100010010000000000000000000000F0010000010311000420170907000101 00000000000000000000000000000000000000000000000000000000000000000000000000000000000000000000000000000000000000000N 00000000000NCONT   00    00000000000          00000000000000000000000000000000000000000000 000000000000000A000000000000000000000000000000000000000000000 000000000000000000000000000000000000000     00000000                                                                                                                        000000000000000000
F0010000010311000005000089011492400013552100000000000000000201709070002001AGE. CAUCHOSOL DE LA COSTA  SAS                   D000000000000000000000000000000000100010010000000000000000000000F0010000010311000520170907000101 00000000000000000000000000000000000000000000000000000000000000000000000000000000000000000000000000000000000000000N 00000000000NCONT   00    00000000000          00000000000000000000000000000000000000000000 000000000000000A000000000000000000000000000000000000000000000 000000000000000000000000000000000000000     00000000                                                                                                                        000000000000000000
F0010000010311100001000080002300200013050500000000000000000201709070002001DISREL S.A.                                       D000000053350000000000000000000000100010010000000000000000000000F0010000010311100120170907000101 00000000000000000000000000000000000000000000000000000000000000000000000000000000000000000000000000000000000000000N 00000000000NCONT   00    00000000000          00000000000000000000000000000000000000000000 000000000000000A000000000000000000000000000000000000000000000 000000000000000000000000000000000000000     00000000                                                                                                                        000000000000000000
F0010000010311100002000080002300200041450500000000000000000201709070002001DISREL S.A.                                       C000000050500000000000000000000000100010010000000000000000000000F0010000010311100220170907000101 00000000000000000000000000000000000000000000000000000000000000000000000000000000000000000000000000000000000000000N 00000000000NCONT   00    00000000000          00000000000000000000000000000000000000000000 000000000000000A000000000000000000000000000000000000000000000 000000000000000000000000000000000000000     00000000                                                                                                                        000000000000000000
F0010000010311100003000080002300200042505000000000000000000201709070002001DISREL S.A.                                       C000000002850000000000000000000000100010010000000000000000000000F0010000010311100320170907000101 00000000000000000000000000000000000000000000000000000000000000000000000000000000000000000000000000000000000000000N 00000000000NCONT   00    00000000000          00000000000000000000000000000000000000000000 000000000000000A000000000000000000000000000000000000000000000 000000000000000000000000000000000000000     00000000                                                                                                                        000000000000000000
F0010000010311100004000080002300200023658300000000000000000201709070002001DISREL S.A.                                       C000000000000000000000000000000000100010010000000000000000000000F0010000010311100420170907000101 00000000000000000000000000000000000000000000000000000000000000000000000000000000000000000000000000000000000000000N 00000000000NCONT   00    00000000000          00000000000000000000000000000000000000000000 000000000000000A000000000000000000000000000000000000000000000 000000000000000000000000000000000000000     00000000                                                                                                                        000000000000000000
F0010000010311100005000080002300200013552100000000000000000201709070002001DISREL S.A.                                       D000000000000000000000000000000000100010010000000000000000000000F0010000010311100520170907000101 00000000000000000000000000000000000000000000000000000000000000000000000000000000000000000000000000000000000000000N 00000000000NCONT   00    00000000000          00000000000000000000000000000000000000000000 000000000000000A000000000000000000000000000000000000000000000 000000000000000000000000000000000000000     00000000                                                                                                                        000000000000000000
F0010000010311200001000080200069100013050500000000000000000201709070002001PEGANTES Y PINTURAS ATLAS LTDA                    D000000020301200000000000000000000100010010000000000000000000000F0010000010311200120170907000101 00000000000000000000000000000000000000000000000000000000000000000000000000000000000000000000000000000000000000000N 00000000000NCONT   00    00000000000          00000000000000000000000000000000000000000000 000000000000000A000000000000000000000000000000000000000000000 000000000000000000000000000000000000000     00000000                                                                                                                        000000000000000000
F0010000010311200002000080200069100041450500000000000000000201709070002001PEGANTES Y PINTURAS ATLAS LTDA                    C000000018150000000000000000000000100010010000000000000000000000F0010000010311200220170907000101 00000000000000000000000000000000000000000000000000000000000000000000000000000000000000000000000000000000000000000N 00000000000NCONT   00    00000000000          00000000000000000000000000000000000000000000 000000000000000A000000000000000000000000000000000000000000000 000000000000000000000000000000000000000     00000000                                                                                                                        000000000000000000
F0010000010311200003000080200069100042505000000000000000000201709070002001PEGANTES Y PINTURAS ATLAS LTDA                    C000000002151200000000000000000000100010010000000000000000000000F0010000010311200320170907000101 00000000000000000000000000000000000000000000000000000000000000000000000000000000000000000000000000000000000000000N 00000000000NCONT   00    00000000000          00000000000000000000000000000000000000000000 000000000000000A000000000000000000000000000000000000000000000 000000000000000000000000000000000000000     00000000                                                                                                                        000000000000000000
F0010000010311200004000080200069100023658300000000000000000201709070002001PEGANTES Y PINTURAS ATLAS LTDA                    C000000000000000000000000000000000100010010000000000000000000000F0010000010311200420170907000101 00000000000000000000000000000000000000000000000000000000000000000000000000000000000000000000000000000000000000000N 00000000000NCONT   00    00000000000          00000000000000000000000000000000000000000000 000000000000000A000000000000000000000000000000000000000000000 000000000000000000000000000000000000000     00000000                                                                                                                        000000000000000000
F0010000010311200005000080200069100013552100000000000000000201709070002001PEGANTES Y PINTURAS ATLAS LTDA                    D000000000000000000000000000000000100010010000000000000000000000F0010000010311200520170907000101 00000000000000000000000000000000000000000000000000000000000000000000000000000000000000000000000000000000000000000N 00000000000NCONT   00    00000000000          00000000000000000000000000000000000000000000 000000000000000A000000000000000000000000000000000000000000000 000000000000000000000000000000000000000     00000000                                                                                                                        000000000000000000
F0010000010311300001000090009800500013050500000000000000000201709070002001GLORIANT CHEMICHALS DE COLOMBIA LTDA              D000000045285000000000000000000000100010010000000000000000000000F0010000010311300120170907000101 00000000000000000000000000000000000000000000000000000000000000000000000000000000000000000000000000000000000000000N 00000000000NCONT   00    00000000000          00000000000000000000000000000000000000000000 000000000000000A000000000000000000000000000000000000000000000 000000000000000000000000000000000000000     00000000                                                                                                                        000000000000000000
F0010000010311300002000090009800500041450500000000000000000201709070002001GLORIANT CHEMICHALS DE COLOMBIA LTDA              C000000038400000000000000000000000100010010000000000000000000000F0010000010311300220170907000101 00000000000000000000000000000000000000000000000000000000000000000000000000000000000000000000000000000000000000000N 00000000000NCONT   00    00000000000          00000000000000000000000000000000000000000000 000000000000000A000000000000000000000000000000000000000000000 000000000000000000000000000000000000000     00000000                                                                                                                        000000000000000000
F0010000010311300003000090009800500042505000000000000000000201709070002001GLORIANT CHEMICHALS DE COLOMBIA LTDA              C000000006885000000000000000000000100010010000000000000000000000F0010000010311300320170907000101 00000000000000000000000000000000000000000000000000000000000000000000000000000000000000000000000000000000000000000N 00000000000NCONT   00    00000000000          00000000000000000000000000000000000000000000 000000000000000A000000000000000000000000000000000000000000000 000000000000000000000000000000000000000     00000000                                                                                                                        000000000000000000
F0010000010311300004000090009800500023658300000000000000000201709070002001GLORIANT CHEMICHALS DE COLOMBIA LTDA              C000000000000000000000000000000000100010010000000000000000000000F0010000010311300420170907000101 00000000000000000000000000000000000000000000000000000000000000000000000000000000000000000000000000000000000000000N 00000000000NCONT   00    00000000000          00000000000000000000000000000000000000000000 000000000000000A000000000000000000000000000000000000000000000 000000000000000000000000000000000000000     00000000                                                                                                                        000000000000000000
F0010000010311300005000090009800500013552100000000000000000201709070002001GLORIANT CHEMICHALS DE COLOMBIA LTDA              D000000000000000000000000000000000100010010000000000000000000000F0010000010311300520170907000101 00000000000000000000000000000000000000000000000000000000000000000000000000000000000000000000000000000000000000000N 00000000000NCONT   00    00000000000          00000000000000000000000000000000000000000000 000000000000000A000000000000000000000000000000000000000000000 000000000000000000000000000000000000000     00000000                                                                                                                        000000000000000000
F0010000010311400001000090059316900013050500000000000000000201709070002001DISTRIBUCIONES Y REPRESENTACIONES MANA            D000000029386000000000000000000000100010010000000000000000000000F0010000010311400120170907000101 00000000000000000000000000000000000000000000000000000000000000000000000000000000000000000000000000000000000000000N 00000000000NCONT   00    00000000000          00000000000000000000000000000000000000000000 000000000000000A000000000000000000000000000000000000000000000 000000000000000000000000000000000000000     00000000                                                                                                                        000000000000000000
F0010000010311400002000090059316900041450500000000000000000201709070002001DISTRIBUCIONES Y REPRESENTACIONES MANA            C000000023600000000000000000000000100010010000000000000000000000F0010000010311400220170907000101 00000000000000000000000000000000000000000000000000000000000000000000000000000000000000000000000000000000000000000N 00000000000NCONT   00    00000000000          00000000000000000000000000000000000000000000 000000000000000A000000000000000000000000000000000000000000000 000000000000000000000000000000000000000     00000000                                                                                                                        000000000000000000
F0010000010311400003000090059316900042505000000000000000000201709070002001DISTRIBUCIONES Y REPRESENTACIONES MANA            C000000005786000000000000000000000100010010000000000000000000000F0010000010311400320170907000101 00000000000000000000000000000000000000000000000000000000000000000000000000000000000000000000000000000000000000000N 00000000000NCONT   00    00000000000          00000000000000000000000000000000000000000000 000000000000000A000000000000000000000000000000000000000000000 000000000000000000000000000000000000000     00000000                                                                                                                        000000000000000000
F0010000010311400004000090059316900023658300000000000000000201709070002001DISTRIBUCIONES Y REPRESENTACIONES MANA            C000000000000000000000000000000000100010010000000000000000000000F0010000010311400420170907000101 00000000000000000000000000000000000000000000000000000000000000000000000000000000000000000000000000000000000000000N 00000000000NCONT   00    00000000000          00000000000000000000000000000000000000000000 000000000000000A000000000000000000000000000000000000000000000 000000000000000000000000000000000000000     00000000                                                                                                                        000000000000000000
F0010000010311400005000090059316900013552100000000000000000201709070002001DISTRIBUCIONES Y REPRESENTACIONES MANA            D000000000000000000000000000000000100010010000000000000000000000F0010000010311400520170907000101 00000000000000000000000000000000000000000000000000000000000000000000000000000000000000000000000000000000000000000N 00000000000NCONT   00    00000000000          00000000000000000000000000000000000000000000 000000000000000A000000000000000000000000000000000000000000000 000000000000000000000000000000000000000     00000000                                                                                                                        000000000000000000
F0010000010311500001000000748239700013050500000000000000000201709070002001RAFAEL NAVARRO URIBE                              D000000051918600000000000000000000100010010000000000000000000000F0010000010311500120170907000101 00000000000000000000000000000000000000000000000000000000000000000000000000000000000000000000000000000000000000000N 00000000000NCONT   00    00000000000          00000000000000000000000000000000000000000000 000000000000000A000000000000000000000000000000000000000000000 000000000000000000000000000000000000000     00000000                                                                                                                        000000000000000000
F0010000010311500002000000748239700041450500000000000000000201709070002001RAFAEL NAVARRO URIBE                              C000000044630000000000000000000000100010010000000000000000000000F0010000010311500220170907000101 00000000000000000000000000000000000000000000000000000000000000000000000000000000000000000000000000000000000000000N 00000000000NCONT   00    00000000000          00000000000000000000000000000000000000000000 000000000000000A000000000000000000000000000000000000000000000 000000000000000000000000000000000000000     00000000                                                                                                                        000000000000000000
F0010000010311500003000000748239700042505000000000000000000201709070002001RAFAEL NAVARRO URIBE                              C000000007288600000000000000000000100010010000000000000000000000F0010000010311500320170907000101 00000000000000000000000000000000000000000000000000000000000000000000000000000000000000000000000000000000000000000N 00000000000NCONT   00    00000000000          00000000000000000000000000000000000000000000 000000000000000A000000000000000000000000000000000000000000000 000000000000000000000000000000000000000     00000000                                                                                                                        000000000000000000
F0010000010311500004000000748239700023658300000000000000000201709070002001RAFAEL NAVARRO URIBE                              C000000000000000000000000000000000100010010000000000000000000000F0010000010311500420170907000101 00000000000000000000000000000000000000000000000000000000000000000000000000000000000000000000000000000000000000000N 00000000000NCONT   00    00000000000          00000000000000000000000000000000000000000000 000000000000000A000000000000000000000000000000000000000000000 000000000000000000000000000000000000000     00000000                                                                                                                        000000000000000000
F0010000010311500005000000748239700013552100000000000000000201709070002001RAFAEL NAVARRO URIBE                              D000000000000000000000000000000000100010010000000000000000000000F0010000010311500520170907000101 00000000000000000000000000000000000000000000000000000000000000000000000000000000000000000000000000000000000000000N 00000000000NCONT   00    00000000000          00000000000000000000000000000000000000000000 000000000000000A000000000000000000000000000000000000000000000 000000000000000000000000000000000000000     00000000                                                                                                                        000000000000000000
F0010000010311700001000090052543100013050500000000000000000201709070002001SECRET COLOR SAS                                  D000000015190000000000000000000000100010010000000000000000000000F0010000010311700120170907000101 00000000000000000000000000000000000000000000000000000000000000000000000000000000000000000000000000000000000000000N 00000000000NCONT   00    00000000000          00000000000000000000000000000000000000000000 000000000000000A000000000000000000000000000000000000000000000 000000000000000000000000000000000000000     00000000                                                                                                                        000000000000000000
F0010000010311700002000090052543100041450500000000000000000201709070002001SECRET COLOR SAS                                  C000000015190000000000000000000000100010010000000000000000000000F0010000010311700220170907000101 00000000000000000000000000000000000000000000000000000000000000000000000000000000000000000000000000000000000000000N 00000000000NCONT   00    00000000000          00000000000000000000000000000000000000000000 000000000000000A000000000000000000000000000000000000000000000 000000000000000000000000000000000000000     00000000                                                                                                                        000000000000000000
F0010000010311700003000090052543100042505000000000000000000201709070002001SECRET COLOR SAS                                  C000000000000000000000000000000000100010010000000000000000000000F0010000010311700320170907000101 00000000000000000000000000000000000000000000000000000000000000000000000000000000000000000000000000000000000000000N 00000000000NCONT   00    00000000000          00000000000000000000000000000000000000000000 000000000000000A000000000000000000000000000000000000000000000 000000000000000000000000000000000000000     00000000                                                                                                                        000000000000000000
F0010000010311700004000090052543100023658300000000000000000201709070002001SECRET COLOR SAS                                  C000000000000000000000000000000000100010010000000000000000000000F0010000010311700420170907000101 00000000000000000000000000000000000000000000000000000000000000000000000000000000000000000000000000000000000000000N 00000000000NCONT   00    00000000000          00000000000000000000000000000000000000000000 000000000000000A000000000000000000000000000000000000000000000 000000000000000000000000000000000000000     00000000                                                                                                                        000000000000000000
F0010000010311700005000090052543100013552100000000000000000201709070002001SECRET COLOR SAS                                  D000000000000000000000000000000000100010010000000000000000000000F0010000010311700520170907000101 00000000000000000000000000000000000000000000000000000000000000000000000000000000000000000000000000000000000000000N 00000000000NCONT   00    00000000000          00000000000000000000000000000000000000000000 000000000000000A000000000000000000000000000000000000000000000 000000000000000000000000000000000000000     00000000                                                                                                                        000000000000000000
F0010000010311800001000089010260300013050500000000000000000201709070002001FEDERICO OSORIO A. S.A.                           D000000113462200000000000000000000100010010000000000000000000000F0010000010311800120170907000101 00000000000000000000000000000000000000000000000000000000000000000000000000000000000000000000000000000000000000000N 00000000000NCONT   00    00000000000          00000000000000000000000000000000000000000000 000000000000000A000000000000000000000000000000000000000000000 000000000000000000000000000000000000000     00000000                                                                                                                        000000000000000000
F0010000010311800002000089010260300041450500000000000000000201709070002001FEDERICO OSORIO A. S.A.                           C000000108110000000000000000000000100010010000000000000000000000F0010000010311800220170907000101 00000000000000000000000000000000000000000000000000000000000000000000000000000000000000000000000000000000000000000N 00000000000NCONT   00    00000000000          00000000000000000000000000000000000000000000 000000000000000A000000000000000000000000000000000000000000000 000000000000000000000000000000000000000     00000000                                                                                                                        000000000000000000
F0010000010311800003000089010260300042505000000000000000000201709070002001FEDERICO OSORIO A. S.A.                           C000000005352200000000000000000000100010010000000000000000000000F0010000010311800320170907000101 00000000000000000000000000000000000000000000000000000000000000000000000000000000000000000000000000000000000000000N 00000000000NCONT   00    00000000000          00000000000000000000000000000000000000000000 000000000000000A000000000000000000000000000000000000000000000 000000000000000000000000000000000000000     00000000                                                                                                                        000000000000000000
F0010000010311800004000089010260300023658300000000000000000201709070002001FEDERICO OSORIO A. S.A.                           C000000000000000000000000000000000100010010000000000000000000000F0010000010311800420170907000101 00000000000000000000000000000000000000000000000000000000000000000000000000000000000000000000000000000000000000000N 00000000000NCONT   00    00000000000          00000000000000000000000000000000000000000000 000000000000000A000000000000000000000000000000000000000000000 000000000000000000000000000000000000000     00000000                                                                                                                        000000000000000000
F0010000010311800005000089010260300013552100000000000000000201709070002001FEDERICO OSORIO A. S.A.                           D000000000000000000000000000000000100010010000000000000000000000F0010000010311800520170907000101 00000000000000000000000000000000000000000000000000000000000000000000000000000000000000000000000000000000000000000N 00000000000NCONT   00    00000000000          00000000000000000000000000000000000000000000 000000000000000A000000000000000000000000000000000000000000000 000000000000000000000000000000000000000     00000000                                                                                                                        000000000000000000
F0010000010311900001000080202094000013050500000000000000000201709070002001DISTRIB. OMAR ORREGO S.A.                         D000000065681900000000000000000000100010010000000000000000000000F0010000010311900120170907000101 00000000000000000000000000000000000000000000000000000000000000000000000000000000000000000000000000000000000000000N 00000000000NCONT   00    00000000000          00000000000000000000000000000000000000000000 000000000000000A000000000000000000000000000000000000000000000 000000000000000000000000000000000000000     00000000                                                                                                                        000000000000000000
F0010000010311900002000080202094000041450500000000000000000201709070002001DISTRIB. OMAR ORREGO S.A.                         C000000051940000000000000000000000100010010000000000000000000000F0010000010311900220170907000101 00000000000000000000000000000000000000000000000000000000000000000000000000000000000000000000000000000000000000000N 00000000000NCONT   00    00000000000          00000000000000000000000000000000000000000000 000000000000000A000000000000000000000000000000000000000000000 000000000000000000000000000000000000000     00000000                                                                                                                        000000000000000000
F0010000010311900003000080202094000042505000000000000000000201709070002001DISTRIB. OMAR ORREGO S.A.                         C000000013741900000000000000000000100010010000000000000000000000F0010000010311900320170907000101 00000000000000000000000000000000000000000000000000000000000000000000000000000000000000000000000000000000000000000N 00000000000NCONT   00    00000000000          00000000000000000000000000000000000000000000 000000000000000A000000000000000000000000000000000000000000000 000000000000000000000000000000000000000     00000000                                                                                                                        000000000000000000
F0010000010311900004000080202094000023658300000000000000000201709070002001DISTRIB. OMAR ORREGO S.A.                         C000000000000000000000000000000000100010010000000000000000000000F0010000010311900420170907000101 00000000000000000000000000000000000000000000000000000000000000000000000000000000000000000000000000000000000000000N 00000000000NCONT   00    00000000000          00000000000000000000000000000000000000000000 000000000000000A000000000000000000000000000000000000000000000 000000000000000000000000000000000000000     00000000                                                                                                                        000000000000000000
F0010000010311900005000080202094000013552100000000000000000201709070002001DISTRIB. OMAR ORREGO S.A.                         D000000000000000000000000000000000100010010000000000000000000000F0010000010311900520170907000101 00000000000000000000000000000000000000000000000000000000000000000000000000000000000000000000000000000000000000000N 00000000000NCONT   00    00000000000          00000000000000000000000000000000000000000000 000000000000000A000000000000000000000000000000000000000000000 000000000000000000000000000000000000000     00000000                                                                                                                        000000000000000000
F0010000010312000001000080201112800013050500000000000000000201709070002001CANGURO INTERNATIONAL S.A.                        D000000123423200000000000000000000100010010000000000000000000000F0010000010312000120170907000101 00000000000000000000000000000000000000000000000000000000000000000000000000000000000000000000000000000000000000000N 00000000000NCONT   00    00000000000          00000000000000000000000000000000000000000000 000000000000000A000000000000000000000000000000000000000000000 000000000000000000000000000000000000000     00000000                                                                                                                        000000000000000000
F0010000010312000002000080201112800041450500000000000000000201709070002001CANGURO INTERNATIONAL S.A.                        C000000120674600000000000000000000100010010000000000000000000000F0010000010312000220170907000101 00000000000000000000000000000000000000000000000000000000000000000000000000000000000000000000000000000000000000000N 00000000000NCONT   00    00000000000          00000000000000000000000000000000000000000000 000000000000000A000000000000000000000000000000000000000000000 000000000000000000000000000000000000000     00000000                                                                                                                        000000000000000000
F0010000010312000003000080201112800042505000000000000000000201709070002001CANGURO INTERNATIONAL S.A.                        C000000002748600000000000000000000100010010000000000000000000000F0010000010312000320170907000101 00000000000000000000000000000000000000000000000000000000000000000000000000000000000000000000000000000000000000000N 00000000000NCONT   00    00000000000          00000000000000000000000000000000000000000000 000000000000000A000000000000000000000000000000000000000000000 000000000000000000000000000000000000000     00000000                                                                                                                        000000000000000000
F0010000010312000004000080201112800023658300000000000000000201709070002001CANGURO INTERNATIONAL S.A.                        C000000000000000000000000000000000100010010000000000000000000000F0010000010312000420170907000101 00000000000000000000000000000000000000000000000000000000000000000000000000000000000000000000000000000000000000000N 00000000000NCONT   00    00000000000          00000000000000000000000000000000000000000000 000000000000000A000000000000000000000000000000000000000000000 000000000000000000000000000000000000000     00000000                                                                                                                        000000000000000000
F0010000010312000005000080201112800013552100000000000000000201709070002001CANGURO INTERNATIONAL S.A.                        D000000000000000000000000000000000100010010000000000000000000000F0010000010312000520170907000101 00000000000000000000000000000000000000000000000000000000000000000000000000000000000000000000000000000000000000000N 00000000000NCONT   00    00000000000          00000000000000000000000000000000000000000000 000000000000000A000000000000000000000000000000000000000000000 000000000000000000000000000000000000000     00000000                                                                                                                        000000000000000000
F0010000010312100001000081102758700013050500000000000000000201709070002001C.I. ABRACOL S.A EMA                              D000000094913200000000000000000000100010010000000000000000000000F0010000010312100120170907000101 00000000000000000000000000000000000000000000000000000000000000000000000000000000000000000000000000000000000000000N 00000000000NCONT   00    00000000000          00000000000000000000000000000000000000000000 000000000000000A000000000000000000000000000000000000000000000 000000000000000000000000000000000000000     00000000                                                                                                                        000000000000000000
F0010000010312100002000081102758700041450500000000000000000201709070002001C.I. ABRACOL S.A EMA                              C000000081100000000000000000000000100010010000000000000000000000F0010000010312100220170907000101 00000000000000000000000000000000000000000000000000000000000000000000000000000000000000000000000000000000000000000N 00000000000NCONT   00    00000000000          00000000000000000000000000000000000000000000 000000000000000A000000000000000000000000000000000000000000000 000000000000000000000000000000000000000     00000000                                                                                                                        000000000000000000
F0010000010312100003000081102758700041750100000000000000000201709070002001C.I. ABRACOL S.A EMA                              D000000002433000000000000000000000100010010000000000000000000000F0010000010312100320170907000101 00000000000000000000000000000000000000000000000000000000000000000000000000000000000000000000000000000000000000000N 00000000000NCONT   00    00000000000          00000000000000000000000000000000000000000000 000000000000000A000000000000000000000000000000000000000000000 000000000000000000000000000000000000000     00000000                                                                                                                        000000000000000000
F0010000010312100004000081102758700042505000000000000000000201709070002001C.I. ABRACOL S.A EMA                              C000000016246200000000000000000000100010010000000000000000000000F0010000010312100420170907000101 00000000000000000000000000000000000000000000000000000000000000000000000000000000000000000000000000000000000000000N 00000000000NCONT   00    00000000000          00000000000000000000000000000000000000000000 000000000000000A000000000000000000000000000000000000000000000 000000000000000000000000000000000000000     00000000                                                                                                                        000000000000000000
F0010000010312100005000081102758700023658300000000000000000201709070002001C.I. ABRACOL S.A EMA                              C000000000000000000000000000000000100010010000000000000000000000F0010000010312100520170907000101 00000000000000000000000000000000000000000000000000000000000000000000000000000000000000000000000000000000000000000N 00000000000NCONT   00    00000000000          00000000000000000000000000000000000000000000 000000000000000A000000000000000000000000000000000000000000000 000000000000000000000000000000000000000     00000000                                                                                                                        000000000000000000
F0010000010312100006000081102758700013552100000000000000000201709070002001C.I. ABRACOL S.A EMA                              D000000000000000000000000000000000100010010000000000000000000000F0010000010312100620170907000101 00000000000000000000000000000000000000000000000000000000000000000000000000000000000000000000000000000000000000000N 00000000000NCONT   00    00000000000          00000000000000000000000000000000000000000000 000000000000000A000000000000000000000000000000000000000000000 000000000000000000000000000000000000000     00000000                                                                                                                        000000000000000000
F0010000010312200001000081102758700013050500000000000000000201709070002001C.I. ABRACOL S.A EMA                              D000000041924700000000000000000000100010010000000000000000000000F0010000010312200120170907000101 00000000000000000000000000000000000000000000000000000000000000000000000000000000000000000000000000000000000000000N 00000000000NCONT   00    00000000000          00000000000000000000000000000000000000000000 000000000000000A000000000000000000000000000000000000000000000 000000000000000000000000000000000000000     00000000                                                                                                                        000000000000000000
F0010000010312200002000081102758700041450500000000000000000201709070002001C.I. ABRACOL S.A EMA                              C000000024600000000000000000000000100010010000000000000000000000F0010000010312200220170907000101 00000000000000000000000000000000000000000000000000000000000000000000000000000000000000000000000000000000000000000N 00000000000NCONT   00    00000000000          00000000000000000000000000000000000000000000 000000000000000A000000000000000000000000000000000000000000000 000000000000000000000000000000000000000     00000000                                                                                                                        000000000000000000
F0010000010312200003000081102758700041750100000000000000000201709070002001C.I. ABRACOL S.A EMA                              D000000000738000000000000000000000100010010000000000000000000000F0010000010312200320170907000101 00000000000000000000000000000000000000000000000000000000000000000000000000000000000000000000000000000000000000000N 00000000000NCONT   00    00000000000          00000000000000000000000000000000000000000000 000000000000000A000000000000000000000000000000000000000000000 000000000000000000000000000000000000000     00000000                                                                                                                        000000000000000000
F0010000010312200004000081102758700042505000000000000000000201709070002001C.I. ABRACOL S.A EMA                              C000000018062700000000000000000000100010010000000000000000000000F0010000010312200420170907000101 00000000000000000000000000000000000000000000000000000000000000000000000000000000000000000000000000000000000000000N 00000000000NCONT   00    00000000000          00000000000000000000000000000000000000000000 000000000000000A000000000000000000000000000000000000000000000 000000000000000000000000000000000000000     00000000                                                                                                                        000000000000000000
F0010000010312200005000081102758700023658300000000000000000201709070002001C.I. ABRACOL S.A EMA                              C000000000000000000000000000000000100010010000000000000000000000F0010000010312200520170907000101 00000000000000000000000000000000000000000000000000000000000000000000000000000000000000000000000000000000000000000N 00000000000NCONT   00    00000000000          00000000000000000000000000000000000000000000 000000000000000A000000000000000000000000000000000000000000000 000000000000000000000000000000000000000     00000000                                                                                                                        000000000000000000
F0010000010312200006000081102758700013552100000000000000000201709070002001C.I. ABRACOL S.A EMA                              D000000000000000000000000000000000100010010000000000000000000000F0010000010312200620170907000101 00000000000000000000000000000000000000000000000000000000000000000000000000000000000000000000000000000000000000000N 00000000000NCONT   00    00000000000          00000000000000000000000000000000000000000000 000000000000000A000000000000000000000000000000000000000000000 000000000000000000000000000000000000000     00000000                                                                                                                        000000000000000000
F0010000010312300001000089030195100013050500000000000000000201709070002001LIBRERIA NACIONAL S.A.                            D000000016700000000000000000000000100010010000000000000000000000F0010000010312300120170907000101 00000000000000000000000000000000000000000000000000000000000000000000000000000000000000000000000000000000000000000N 00000000000NCONT   00    00000000000          00000000000000000000000000000000000000000000 000000000000000A000000000000000000000000000000000000000000000 000000000000000000000000000000000000000     00000000                                                                                                                        000000000000000000
F0010000010312300002000089030195100041450500000000000000000201709070002001LIBRERIA NACIONAL S.A.                            C000000014000000000000000000000000100010010000000000000000000000F0010000010312300220170907000101 00000000000000000000000000000000000000000000000000000000000000000000000000000000000000000000000000000000000000000N 00000000000NCONT   00    00000000000          00000000000000000000000000000000000000000000 000000000000000A000000000000000000000000000000000000000000000 000000000000000000000000000000000000000     00000000                                                                                                                        000000000000000000
F0010000010312300003000089030195100042505000000000000000000201709070002001LIBRERIA NACIONAL S.A.                            C000000002700000000000000000000000100010010000000000000000000000F0010000010312300320170907000101 00000000000000000000000000000000000000000000000000000000000000000000000000000000000000000000000000000000000000000N 00000000000NCONT   00    00000000000          00000000000000000000000000000000000000000000 000000000000000A000000000000000000000000000000000000000000000 000000000000000000000000000000000000000     00000000                                                                                                                        000000000000000000
F0010000010312300004000089030195100023658300000000000000000201709070002001LIBRERIA NACIONAL S.A.                            C000000000000000000000000000000000100010010000000000000000000000F0010000010312300420170907000101 00000000000000000000000000000000000000000000000000000000000000000000000000000000000000000000000000000000000000000N 00000000000NCONT   00    00000000000          00000000000000000000000000000000000000000000 000000000000000A000000000000000000000000000000000000000000000 000000000000000000000000000000000000000     00000000                                                                                                                        000000000000000000
F0010000010312300005000089030195100013552100000000000000000201709070002001LIBRERIA NACIONAL S.A.                            D000000000000000000000000000000000100010010000000000000000000000F0010000010312300520170907000101 00000000000000000000000000000000000000000000000000000000000000000000000000000000000000000000000000000000000000000N 00000000000NCONT   00    00000000000          00000000000000000000000000000000000000000000 000000000000000A000000000000000000000000000000000000000000000 000000000000000000000000000000000000000     00000000                                                                                                                        000000000000000000
F0010000010312400001000090001736600013050500000000000000000201709070002001AF SUMINISTROS E.U.                               D000000016200000000000000000000000100010010000000000000000000000F0010000010312400120170907000101 00000000000000000000000000000000000000000000000000000000000000000000000000000000000000000000000000000000000000000N 00000000000NCONT   00    00000000000          00000000000000000000000000000000000000000000 000000000000000A000000000000000000000000000000000000000000000 000000000000000000000000000000000000000     00000000                                                                                                                        000000000000000000
F0010000010312400002000090001736600041450500000000000000000201709070002001AF SUMINISTROS E.U.                               C000000014000000000000000000000000100010010000000000000000000000F0010000010312400220170907000101 00000000000000000000000000000000000000000000000000000000000000000000000000000000000000000000000000000000000000000N 00000000000NCONT   00    00000000000          00000000000000000000000000000000000000000000 000000000000000A000000000000000000000000000000000000000000000 000000000000000000000000000000000000000     00000000                                                                                                                        000000000000000000
F0010000010312400003000090001736600042505000000000000000000201709070002001AF SUMINISTROS E.U.                               C000000002200000000000000000000000100010010000000000000000000000F0010000010312400320170907000101 00000000000000000000000000000000000000000000000000000000000000000000000000000000000000000000000000000000000000000N 00000000000NCONT   00    00000000000          00000000000000000000000000000000000000000000 000000000000000A000000000000000000000000000000000000000000000 000000000000000000000000000000000000000     00000000                                                                                                                        000000000000000000
F0010000010312400004000090001736600023658300000000000000000201709070002001AF SUMINISTROS E.U.                               C000000000000000000000000000000000100010010000000000000000000000F0010000010312400420170907000101 00000000000000000000000000000000000000000000000000000000000000000000000000000000000000000000000000000000000000000N 00000000000NCONT   00    00000000000          00000000000000000000000000000000000000000000 000000000000000A000000000000000000000000000000000000000000000 000000000000000000000000000000000000000     00000000                                                                                                                        000000000000000000
F0010000010312400005000090001736600013552100000000000000000201709070002001AF SUMINISTROS E.U.                               D000000000000000000000000000000000100010010000000000000000000000F0010000010312400520170907000101 00000000000000000000000000000000000000000000000000000000000000000000000000000000000000000000000000000000000000000N 00000000000NCONT   00    00000000000          00000000000000000000000000000000000000000000 000000000000000A000000000000000000000000000000000000000000000 000000000000000000000000000000000000000     00000000                                                                                                                        000000000000000000
F0010000010312500001000090014415700013050500000000000000000201709070002001CORDELES Y EXTRUIDOS DE COLOMBIA S.A.S.           D000000042591100000000000000000000100010010000000000000000000000F0010000010312500120170907000101 00000000000000000000000000000000000000000000000000000000000000000000000000000000000000000000000000000000000000000N 00000000000NCONT   00    00000000000          00000000000000000000000000000000000000000000 000000000000000A000000000000000000000000000000000000000000000 000000000000000000000000000000000000000     00000000                                                                                                                        000000000000000000
F0010000010312500002000090014415700041450500000000000000000201709070002001CORDELES Y EXTRUIDOS DE COLOMBIA S.A.S.           C000000039760000000000000000000000100010010000000000000000000000F0010000010312500220170907000101 00000000000000000000000000000000000000000000000000000000000000000000000000000000000000000000000000000000000000000N 00000000000NCONT   00    00000000000          00000000000000000000000000000000000000000000 000000000000000A000000000000000000000000000000000000000000000 000000000000000000000000000000000000000     00000000                                                                                                                        000000000000000000
F0010000010312500003000090014415700042505000000000000000000201709070002001CORDELES Y EXTRUIDOS DE COLOMBIA S.A.S.           C000000002831100000000000000000000100010010000000000000000000000F0010000010312500320170907000101 00000000000000000000000000000000000000000000000000000000000000000000000000000000000000000000000000000000000000000N 00000000000NCONT   00    00000000000          00000000000000000000000000000000000000000000 000000000000000A000000000000000000000000000000000000000000000 000000000000000000000000000000000000000     00000000                                                                                                                        000000000000000000
F0010000010312500004000090014415700023658300000000000000000201709070002001CORDELES Y EXTRUIDOS DE COLOMBIA S.A.S.           C000000000000000000000000000000000100010010000000000000000000000F0010000010312500420170907000101 00000000000000000000000000000000000000000000000000000000000000000000000000000000000000000000000000000000000000000N 00000000000NCONT   00    00000000000          00000000000000000000000000000000000000000000 000000000000000A000000000000000000000000000000000000000000000 000000000000000000000000000000000000000     00000000                                                                                                                        000000000000000000
F0010000010312500005000090014415700013552100000000000000000201709070002001CORDELES Y EXTRUIDOS DE COLOMBIA S.A.S.           D000000000000000000000000000000000100010010000000000000000000000F0010000010312500520170907000101 00000000000000000000000000000000000000000000000000000000000000000000000000000000000000000000000000000000000000000N 00000000000NCONT   00    00000000000          00000000000000000000000000000000000000000000 000000000000000A000000000000000000000000000000000000000000000 000000000000000000000000000000000000000     00000000                                                                                                                        000000000000000000
F0010000010312600001000090087617400013050500000000000000000201709070002001MASTERGLASS PREMIUM GROUP SAS                     D000000018944300000000000000000000100010010000000000000000000000F0010000010312600120170907000101 00000000000000000000000000000000000000000000000000000000000000000000000000000000000000000000000000000000000000000N 00000000000NCONT   00    00000000000          00000000000000000000000000000000000000000000 000000000000000A000000000000000000000000000000000000000000000 000000000000000000000000000000000000000     00000000                                                                                                                        000000000000000000
F0010000010312600002000090087617400041450500000000000000000201709070002001MASTERGLASS PREMIUM GROUP SAS                     C000000015750000000000000000000000100010010000000000000000000000F0010000010312600220170907000101 00000000000000000000000000000000000000000000000000000000000000000000000000000000000000000000000000000000000000000N 00000000000NCONT   00    00000000000          00000000000000000000000000000000000000000000 000000000000000A000000000000000000000000000000000000000000000 000000000000000000000000000000000000000     00000000                                                                                                                        000000000000000000
F0010000010312600003000090087617400042505000000000000000000201709070002001MASTERGLASS PREMIUM GROUP SAS                     C000000003194300000000000000000000100010010000000000000000000000F0010000010312600320170907000101 00000000000000000000000000000000000000000000000000000000000000000000000000000000000000000000000000000000000000000N 00000000000NCONT   00    00000000000          00000000000000000000000000000000000000000000 000000000000000A000000000000000000000000000000000000000000000 000000000000000000000000000000000000000     00000000                                                                                                                        000000000000000000
F0010000010312600004000090087617400023658300000000000000000201709070002001MASTERGLASS PREMIUM GROUP SAS                     C000000000000000000000000000000000100010010000000000000000000000F0010000010312600420170907000101 00000000000000000000000000000000000000000000000000000000000000000000000000000000000000000000000000000000000000000N 00000000000NCONT   00    00000000000          00000000000000000000000000000000000000000000 000000000000000A000000000000000000000000000000000000000000000 000000000000000000000000000000000000000     00000000                                                                                                                        000000000000000000
F0010000010312600005000090087617400013552100000000000000000201709070002001MASTERGLASS PREMIUM GROUP SAS                     D000000000000000000000000000000000100010010000000000000000000000F0010000010312600520170907000101 00000000000000000000000000000000000000000000000000000000000000000000000000000000000000000000000000000000000000000N 00000000000NCONT   00    00000000000          00000000000000000000000000000000000000000000 000000000000000A000000000000000000000000000000000000000000000 000000000000000000000000000000000000000     00000000                                                                                                                        000000000000000000
F0010000010312700001000090099106700013050500000000000000000201709070002001LIGATEX SAS                                       D000000005400000000000000000000000100010010000000000000000000000F0010000010312700120170907000101 00000000000000000000000000000000000000000000000000000000000000000000000000000000000000000000000000000000000000000N 00000000000NCONT   00    00000000000          00000000000000000000000000000000000000000000 000000000000000A000000000000000000000000000000000000000000000 000000000000000000000000000000000000000     00000000                                                                                                                        000000000000000000
F0010000010312700002000090099106700041450500000000000000000201709070002001LIGATEX SAS                                       C000000004800000000000000000000000100010010000000000000000000000F0010000010312700220170907000101 00000000000000000000000000000000000000000000000000000000000000000000000000000000000000000000000000000000000000000N 00000000000NCONT   00    00000000000          00000000000000000000000000000000000000000000 000000000000000A000000000000000000000000000000000000000000000 000000000000000000000000000000000000000     00000000                                                                                                                        000000000000000000
F0010000010312700003000090099106700042505000000000000000000201709070002001LIGATEX SAS                                       C000000000600000000000000000000000100010010000000000000000000000F0010000010312700320170907000101 00000000000000000000000000000000000000000000000000000000000000000000000000000000000000000000000000000000000000000N 00000000000NCONT   00    00000000000          00000000000000000000000000000000000000000000 000000000000000A000000000000000000000000000000000000000000000 000000000000000000000000000000000000000     00000000                                                                                                                        000000000000000000
F0010000010312700004000090099106700023658300000000000000000201709070002001LIGATEX SAS                                       C000000000000000000000000000000000100010010000000000000000000000F0010000010312700420170907000101 00000000000000000000000000000000000000000000000000000000000000000000000000000000000000000000000000000000000000000N 00000000000NCONT   00    00000000000          00000000000000000000000000000000000000000000 000000000000000A000000000000000000000000000000000000000000000 000000000000000000000000000000000000000     00000000                                                                                                                        000000000000000000
F0010000010312700005000090099106700013552100000000000000000201709070002001LIGATEX SAS                                       D000000000000000000000000000000000100010010000000000000000000000F0010000010312700520170907000101 00000000000000000000000000000000000000000000000000000000000000000000000000000000000000000000000000000000000000000N 00000000000NCONT   00    00000000000          00000000000000000000000000000000000000000000 000000000000000A000000000000000000000000000000000000000000000 000000000000000000000000000000000000000     00000000                                                                                                                        000000000000000000
F0010000010312800001000090000859400013050500000000000000000201709070002001COMERCIAL JOTACE LTDA                             D000000010780300000000000000000000100010010000000000000000000000F0010000010312800120170907000101 00000000000000000000000000000000000000000000000000000000000000000000000000000000000000000000000000000000000000000N 00000000000NCONT   00    00000000000          00000000000000000000000000000000000000000000 000000000000000A000000000000000000000000000000000000000000000 000000000000000000000000000000000000000     00000000                                                                                                                        000000000000000000
F0010000010312800002000090000859400041450500000000000000000201709070002001COMERCIAL JOTACE LTDA                             C000000010200000000000000000000000100010010000000000000000000000F0010000010312800220170907000101 00000000000000000000000000000000000000000000000000000000000000000000000000000000000000000000000000000000000000000N 00000000000NCONT   00    00000000000          00000000000000000000000000000000000000000000 000000000000000A000000000000000000000000000000000000000000000 000000000000000000000000000000000000000     00000000                                                                                                                        000000000000000000
F0010000010312800003000090000859400042505000000000000000000201709070002001COMERCIAL JOTACE LTDA                             C000000000580300000000000000000000100010010000000000000000000000F0010000010312800320170907000101 00000000000000000000000000000000000000000000000000000000000000000000000000000000000000000000000000000000000000000N 00000000000NCONT   00    00000000000          00000000000000000000000000000000000000000000 000000000000000A000000000000000000000000000000000000000000000 000000000000000000000000000000000000000     00000000                                                                                                                        000000000000000000
F0010000010312800004000090000859400023658300000000000000000201709070002001COMERCIAL JOTACE LTDA                             C000000000000000000000000000000000100010010000000000000000000000F0010000010312800420170907000101 00000000000000000000000000000000000000000000000000000000000000000000000000000000000000000000000000000000000000000N 00000000000NCONT   00    00000000000          00000000000000000000000000000000000000000000 000000000000000A000000000000000000000000000000000000000000000 000000000000000000000000000000000000000     00000000                                                                                                                        000000000000000000
F0010000010312800005000090000859400013552100000000000000000201709070002001COMERCIAL JOTACE LTDA                             D000000000000000000000000000000000100010010000000000000000000000F0010000010312800520170907000101 00000000000000000000000000000000000000000000000000000000000000000000000000000000000000000000000000000000000000000N 00000000000NCONT   00    00000000000          00000000000000000000000000000000000000000000 000000000000000A000000000000000000000000000000000000000000000 000000000000000000000000000000000000000     00000000                                                                                                                        000000000000000000
F0010000010312900001000090049854300013050500000000000000000201709070002001TRAPOS INDUSTRIALES DE COLOMBIA SAS               D000000004560000000000000000000000100010010000000000000000000000F0010000010312900120170907000101 00000000000000000000000000000000000000000000000000000000000000000000000000000000000000000000000000000000000000000N 00000000000NCONT   00    00000000000          00000000000000000000000000000000000000000000 000000000000000A000000000000000000000000000000000000000000000 000000000000000000000000000000000000000     00000000                                                                                                                        000000000000000000
F0010000010312900002000090049854300041450500000000000000000201709070002001TRAPOS INDUSTRIALES DE COLOMBIA SAS               C000000004000000000000000000000000100010010000000000000000000000F0010000010312900220170907000101 00000000000000000000000000000000000000000000000000000000000000000000000000000000000000000000000000000000000000000N 00000000000NCONT   00    00000000000          00000000000000000000000000000000000000000000 000000000000000A000000000000000000000000000000000000000000000 000000000000000000000000000000000000000     00000000                                                                                                                        000000000000000000
F0010000010312900003000090049854300042505000000000000000000201709070002001TRAPOS INDUSTRIALES DE COLOMBIA SAS               C000000000560000000000000000000000100010010000000000000000000000F0010000010312900320170907000101 00000000000000000000000000000000000000000000000000000000000000000000000000000000000000000000000000000000000000000N 00000000000NCONT   00    00000000000          00000000000000000000000000000000000000000000 000000000000000A000000000000000000000000000000000000000000000 000000000000000000000000000000000000000     00000000                                                                                                                        000000000000000000
F0010000010312900004000090049854300023658300000000000000000201709070002001TRAPOS INDUSTRIALES DE COLOMBIA SAS               C000000000000000000000000000000000100010010000000000000000000000F0010000010312900420170907000101 00000000000000000000000000000000000000000000000000000000000000000000000000000000000000000000000000000000000000000N 00000000000NCONT   00    00000000000          00000000000000000000000000000000000000000000 000000000000000A000000000000000000000000000000000000000000000 000000000000000000000000000000000000000     00000000                                                                                                                        000000000000000000
F0010000010312900005000090049854300013552100000000000000000201709070002001TRAPOS INDUSTRIALES DE COLOMBIA SAS               D000000000000000000000000000000000100010010000000000000000000000F0010000010312900520170907000101 00000000000000000000000000000000000000000000000000000000000000000000000000000000000000000000000000000000000000000N 00000000000NCONT   00    00000000000          00000000000000000000000000000000000000000000 000000000000000A000000000000000000000000000000000000000000000 000000000000000000000000000000000000000     00000000                                                                                                                        000000000000000000
F0010000010313000001000007127017300013050500000000000000000201709070002001JUAN DIEGO ECHAVARRIA LOAIZA                      D000000000000000000000000000000000100010010000000000000000000000F0010000010313000120170907000101 00000000000000000000000000000000000000000000000000000000000000000000000000000000000000000000000000000000000000000N 00000000000NCONT   00    00000000000          00000000000000000000000000000000000000000000 000000000000000A000000000000000000000000000000000000000000000 000000000000000000000000000000000000000     00000000                                                                                                                        000000000000000000
F0010000010313000002000007127017300041450500000000000000000201709070002001JUAN DIEGO ECHAVARRIA LOAIZA                      C000000000000000000000000000000000100010010000000000000000000000F0010000010313000220170907000101 00000000000000000000000000000000000000000000000000000000000000000000000000000000000000000000000000000000000000000N 00000000000NCONT   00    00000000000          00000000000000000000000000000000000000000000 000000000000000A000000000000000000000000000000000000000000000 000000000000000000000000000000000000000     00000000                                                                                                                        000000000000000000
F0010000010313000003000007127017300042505000000000000000000201709070002001JUAN DIEGO ECHAVARRIA LOAIZA                      C000000000000000000000000000000000100010010000000000000000000000F0010000010313000320170907000101 00000000000000000000000000000000000000000000000000000000000000000000000000000000000000000000000000000000000000000N 00000000000NCONT   00    00000000000          00000000000000000000000000000000000000000000 000000000000000A000000000000000000000000000000000000000000000 000000000000000000000000000000000000000     00000000                                                                                                                        000000000000000000
F0010000010313000004000007127017300023658300000000000000000201709070002001JUAN DIEGO ECHAVARRIA LOAIZA                      C000000000000000000000000000000000100010010000000000000000000000F0010000010313000420170907000101 00000000000000000000000000000000000000000000000000000000000000000000000000000000000000000000000000000000000000000N 00000000000NCONT   00    00000000000          00000000000000000000000000000000000000000000 000000000000000A000000000000000000000000000000000000000000000 000000000000000000000000000000000000000     00000000                                                                                                                        000000000000000000
F0010000010313000005000007127017300013552100000000000000000201709070002001JUAN DIEGO ECHAVARRIA LOAIZA                      D000000000000000000000000000000000100010010000000000000000000000F0010000010313000520170907000101 00000000000000000000000000000000000000000000000000000000000000000000000000000000000000000000000000000000000000000N 00000000000NCONT   00    00000000000          00000000000000000000000000000000000000000000 000000000000000A000000000000000000000000000000000000000000000 000000000000000000000000000000000000000     00000000                                                                                                                        000000000000000000
F0010000010313100001000089011193000013050500000000000000000201709070002001DOQUIMICA DE LA COSTA LT DA                       D000000039320000000000000000000000100010010000000000000000000000F0010000010313100120170907000101 00000000000000000000000000000000000000000000000000000000000000000000000000000000000000000000000000000000000000000N 00000000000NCONT   00    00000000000          00000000000000000000000000000000000000000000 000000000000000A000000000000000000000000000000000000000000000 000000000000000000000000000000000000000     00000000                                                                                                                        000000000000000000
F0010000010313100002000089011193000041450500000000000000000201709070002001DOQUIMICA DE LA COSTA LT DA                       C000000037220000000000000000000000100010010000000000000000000000F0010000010313100220170907000101 00000000000000000000000000000000000000000000000000000000000000000000000000000000000000000000000000000000000000000N 00000000000NCONT   00    00000000000          00000000000000000000000000000000000000000000 000000000000000A000000000000000000000000000000000000000000000 000000000000000000000000000000000000000     00000000                                                                                                                        000000000000000000
F0010000010313100003000089011193000042505000000000000000000201709070002001DOQUIMICA DE LA COSTA LT DA                       C000000002100000000000000000000000100010010000000000000000000000F0010000010313100320170907000101 00000000000000000000000000000000000000000000000000000000000000000000000000000000000000000000000000000000000000000N 00000000000NCONT   00    00000000000          00000000000000000000000000000000000000000000 000000000000000A000000000000000000000000000000000000000000000 000000000000000000000000000000000000000     00000000                                                                                                                        000000000000000000
F0010000010313100004000089011193000023658300000000000000000201709070002001DOQUIMICA DE LA COSTA LT DA                       C000000000000000000000000000000000100010010000000000000000000000F0010000010313100420170907000101 00000000000000000000000000000000000000000000000000000000000000000000000000000000000000000000000000000000000000000N 00000000000NCONT   00    00000000000          00000000000000000000000000000000000000000000 000000000000000A000000000000000000000000000000000000000000000 000000000000000000000000000000000000000     00000000                                                                                                                        000000000000000000
F0010000010313100005000089011193000013552100000000000000000201709070002001DOQUIMICA DE LA COSTA LT DA                       D000000000000000000000000000000000100010010000000000000000000000F0010000010313100520170907000101 00000000000000000000000000000000000000000000000000000000000000000000000000000000000000000000000000000000000000000N 00000000000NCONT   00    00000000000          00000000000000000000000000000000000000000000 000000000000000A000000000000000000000000000000000000000000000 000000000000000000000000000000000000000     00000000                                                                                                                        000000000000000000
F0010000010313200001000089080176300013050500000000000000000201709070002001SEGAR S.A.                                        D000000068016300000000000000000000100010010000000000000000000000F0010000010313200120170907000101 00000000000000000000000000000000000000000000000000000000000000000000000000000000000000000000000000000000000000000N 00000000000NCONT   00    00000000000          00000000000000000000000000000000000000000000 000000000000000A000000000000000000000000000000000000000000000 000000000000000000000000000000000000000     00000000                                                                                                                        000000000000000000
F0010000010313200002000089080176300041450500000000000000000201709070002001SEGAR S.A.                                        C000000057572400000000000000000000100010010000000000000000000000F0010000010313200220170907000101 00000000000000000000000000000000000000000000000000000000000000000000000000000000000000000000000000000000000000000N 00000000000NCONT   00    00000000000          00000000000000000000000000000000000000000000 000000000000000A000000000000000000000000000000000000000000000 000000000000000000000000000000000000000     00000000                                                                                                                        000000000000000000
F0010000010313200003000089080176300042505000000000000000000201709070002001SEGAR S.A.                                        C000000010443900000000000000000000100010010000000000000000000000F0010000010313200320170907000101 00000000000000000000000000000000000000000000000000000000000000000000000000000000000000000000000000000000000000000N 00000000000NCONT   00    00000000000          00000000000000000000000000000000000000000000 000000000000000A000000000000000000000000000000000000000000000 000000000000000000000000000000000000000     00000000                                                                                                                        000000000000000000
F0010000010313200004000089080176300023658300000000000000000201709070002001SEGAR S.A.                                        C000000000000000000000000000000000100010010000000000000000000000F0010000010313200420170907000101 00000000000000000000000000000000000000000000000000000000000000000000000000000000000000000000000000000000000000000N 00000000000NCONT   00    00000000000          00000000000000000000000000000000000000000000 000000000000000A000000000000000000000000000000000000000000000 000000000000000000000000000000000000000     00000000                                                                                                                        000000000000000000
F0010000010313200005000089080176300013552100000000000000000201709070002001SEGAR S.A.                                        D000000000000000000000000000000000100010010000000000000000000000F0010000010313200520170907000101 00000000000000000000000000000000000000000000000000000000000000000000000000000000000000000000000000000000000000000N 00000000000NCONT   00    00000000000          00000000000000000000000000000000000000000000 000000000000000A000000000000000000000000000000000000000000000 000000000000000000000000000000000000000     00000000                                                                                                                        000000000000000000
F0010000010313300001000089080176300013050500000000000000000201709070002001SEGAR S.A.                                        D000000069409500000000000000000000100010010000000000000000000000F0010000010313300120170907000101 00000000000000000000000000000000000000000000000000000000000000000000000000000000000000000000000000000000000000000N 00000000000NCONT   00    00000000000          00000000000000000000000000000000000000000000 000000000000000A000000000000000000000000000000000000000000000 000000000000000000000000000000000000000     00000000                                                                                                                        000000000000000000
F0010000010313300002000089080176300041450500000000000000000201709070002001SEGAR S.A.                                        C000000055441100000000000000000000100010010000000000000000000000F0010000010313300220170907000101 00000000000000000000000000000000000000000000000000000000000000000000000000000000000000000000000000000000000000000N 00000000000NCONT   00    00000000000          00000000000000000000000000000000000000000000 000000000000000A000000000000000000000000000000000000000000000 000000000000000000000000000000000000000     00000000                                                                                                                        000000000000000000
F0010000010313300003000089080176300042505000000000000000000201709070002001SEGAR S.A.                                        C000000013968400000000000000000000100010010000000000000000000000F0010000010313300320170907000101 00000000000000000000000000000000000000000000000000000000000000000000000000000000000000000000000000000000000000000N 00000000000NCONT   00    00000000000          00000000000000000000000000000000000000000000 000000000000000A000000000000000000000000000000000000000000000 000000000000000000000000000000000000000     00000000                                                                                                                        000000000000000000
F0010000010313300004000089080176300023658300000000000000000201709070002001SEGAR S.A.                                        C000000000000000000000000000000000100010010000000000000000000000F0010000010313300420170907000101 00000000000000000000000000000000000000000000000000000000000000000000000000000000000000000000000000000000000000000N 00000000000NCONT   00    00000000000          00000000000000000000000000000000000000000000 000000000000000A000000000000000000000000000000000000000000000 000000000000000000000000000000000000000     00000000                                                                                                                        000000000000000000
F0010000010313300005000089080176300013552100000000000000000201709070002001SEGAR S.A.                                        D000000000000000000000000000000000100010010000000000000000000000F0010000010313300520170907000101 00000000000000000000000000000000000000000000000000000000000000000000000000000000000000000000000000000000000000000N 00000000000NCONT   00    00000000000          00000000000000000000000000000000000000000000 000000000000000A000000000000000000000000000000000000000000000 000000000000000000000000000000000000000     00000000                                                                                                                        000000000000000000
F0010000010313400001000089080176300013050500000000000000000201709070002001SEGAR S.A.                                        D000000052825100000000000000000000100010010000000000000000000000F0010000010313400120170907000101 00000000000000000000000000000000000000000000000000000000000000000000000000000000000000000000000000000000000000000N 00000000000NCONT   00    00000000000          00000000000000000000000000000000000000000000 000000000000000A000000000000000000000000000000000000000000000 000000000000000000000000000000000000000     00000000                                                                                                                        000000000000000000
F0010000010313400002000089080176300041450500000000000000000201709070002001SEGAR S.A.                                        C000000042282000000000000000000000100010010000000000000000000000F0010000010313400220170907000101 00000000000000000000000000000000000000000000000000000000000000000000000000000000000000000000000000000000000000000N 00000000000NCONT   00    00000000000          00000000000000000000000000000000000000000000 000000000000000A000000000000000000000000000000000000000000000 000000000000000000000000000000000000000     00000000                                                                                                                        000000000000000000
F0010000010313400003000089080176300042505000000000000000000201709070002001SEGAR S.A.                                        C000000010543100000000000000000000100010010000000000000000000000F0010000010313400320170907000101 00000000000000000000000000000000000000000000000000000000000000000000000000000000000000000000000000000000000000000N 00000000000NCONT   00    00000000000          00000000000000000000000000000000000000000000 000000000000000A000000000000000000000000000000000000000000000 000000000000000000000000000000000000000     00000000                                                                                                                        000000000000000000
F0010000010313400004000089080176300023658300000000000000000201709070002001SEGAR S.A.                                        C000000000000000000000000000000000100010010000000000000000000000F0010000010313400420170907000101 00000000000000000000000000000000000000000000000000000000000000000000000000000000000000000000000000000000000000000N 00000000000NCONT   00    00000000000          00000000000000000000000000000000000000000000 000000000000000A000000000000000000000000000000000000000000000 000000000000000000000000000000000000000     00000000                                                                                                                        000000000000000000
F0010000010313400005000089080176300013552100000000000000000201709070002001SEGAR S.A.                                        D000000000000000000000000000000000100010010000000000000000000000F0010000010313400520170907000101 00000000000000000000000000000000000000000000000000000000000000000000000000000000000000000000000000000000000000000N 00000000000NCONT   00    00000000000          00000000000000000000000000000000000000000000 000000000000000A000000000000000000000000000000000000000000000 000000000000000000000000000000000000000     00000000                                                                                                                        000000000000000000
F0010000010313500001000089080176300013050500000000000000000201709070002001SEGAR S.A.                                        D000000058550000000000000000000000100010010000000000000000000000F0010000010313500120170907000101 00000000000000000000000000000000000000000000000000000000000000000000000000000000000000000000000000000000000000000N 00000000000NCONT   00    00000000000          00000000000000000000000000000000000000000000 000000000000000A000000000000000000000000000000000000000000000 000000000000000000000000000000000000000     00000000                                                                                                                        000000000000000000
F0010000010313500002000089080176300041450500000000000000000201709070002001SEGAR S.A.                                        C000000049368600000000000000000000100010010000000000000000000000F0010000010313500220170907000101 00000000000000000000000000000000000000000000000000000000000000000000000000000000000000000000000000000000000000000N 00000000000NCONT   00    00000000000          00000000000000000000000000000000000000000000 000000000000000A000000000000000000000000000000000000000000000 000000000000000000000000000000000000000     00000000                                                                                                                        000000000000000000
F0010000010313500003000089080176300042505000000000000000000201709070002001SEGAR S.A.                                        C000000009181400000000000000000000100010010000000000000000000000F0010000010313500320170907000101 00000000000000000000000000000000000000000000000000000000000000000000000000000000000000000000000000000000000000000N 00000000000NCONT   00    00000000000          00000000000000000000000000000000000000000000 000000000000000A000000000000000000000000000000000000000000000 000000000000000000000000000000000000000     00000000                                                                                                                        000000000000000000
F0010000010313500004000089080176300023658300000000000000000201709070002001SEGAR S.A.                                        C000000000000000000000000000000000100010010000000000000000000000F0010000010313500420170907000101 00000000000000000000000000000000000000000000000000000000000000000000000000000000000000000000000000000000000000000N 00000000000NCONT   00    00000000000          00000000000000000000000000000000000000000000 000000000000000A000000000000000000000000000000000000000000000 000000000000000000000000000000000000000     00000000                                                                                                                        000000000000000000
F0010000010313500005000089080176300013552100000000000000000201709070002001SEGAR S.A.                                        D000000000000000000000000000000000100010010000000000000000000000F0010000010313500520170907000101 00000000000000000000000000000000000000000000000000000000000000000000000000000000000000000000000000000000000000000N 00000000000NCONT   00    00000000000          00000000000000000000000000000000000000000000 000000000000000A000000000000000000000000000000000000000000000 000000000000000000000000000000000000000     00000000                                                                                                                        000000000000000000
F0010000010313600001000090027500500011050500000000000000000201709070002001MULTIALUMINIOS LA 30 SAS                          D000000003600000000000000000000000100010010000000000000000000000F0010000010313600120170907000101 00000000000000000000000000000000000000000000000000000000000000000000000000000000000000000000000000000000000000000N 00000000000NCONT   00    00000000000          00000000000000000000000000000000000000000000 000000000000000A000000000000000000000000000000000000000000000 000000000000000000000000000000000000000     00000000                                                                                                                        000000000000000000
F0010000010313600002000090027500500041450500000000000000000201709070002001MULTIALUMINIOS LA 30 SAS                          C000000003000000000000000000000000100010010000000000000000000000F0010000010313600220170907000101 00000000000000000000000000000000000000000000000000000000000000000000000000000000000000000000000000000000000000000N 00000000000NCONT   00    00000000000          00000000000000000000000000000000000000000000 000000000000000A000000000000000000000000000000000000000000000 000000000000000000000000000000000000000     00000000                                                                                                                        000000000000000000
F0010000010313600003000090027500500042505000000000000000000201709070002001MULTIALUMINIOS LA 30 SAS                          C000000000600000000000000000000000100010010000000000000000000000F0010000010313600320170907000101 00000000000000000000000000000000000000000000000000000000000000000000000000000000000000000000000000000000000000000N 00000000000NCONT   00    00000000000          00000000000000000000000000000000000000000000 000000000000000A000000000000000000000000000000000000000000000 000000000000000000000000000000000000000     00000000                                                                                                                        000000000000000000
F0010000010313600004000090027500500023658300000000000000000201709070002001MULTIALUMINIOS LA 30 SAS                          C000000000000000000000000000000000100010010000000000000000000000F0010000010313600420170907000101 00000000000000000000000000000000000000000000000000000000000000000000000000000000000000000000000000000000000000000N 00000000000NCONT   00    00000000000          00000000000000000000000000000000000000000000 000000000000000A000000000000000000000000000000000000000000000 000000000000000000000000000000000000000     00000000                                                                                                                        000000000000000000
F0010000010313600005000090027500500013552100000000000000000201709070002001MULTIALUMINIOS LA 30 SAS                          D000000000000000000000000000000000100010010000000000000000000000F0010000010313600520170907000101 00000000000000000000000000000000000000000000000000000000000000000000000000000000000000000000000000000000000000000N 00000000000NCONT   00    00000000000          00000000000000000000000000000000000000000000 000000000000000A000000000000000000000000000000000000000000000 000000000000000000000000000000000000000     00000000                                                                                                                        000000000000000000
F0010000010313700001000080201703900011050500000000000000000201709070002001MUNDIAL CHEMICAL LTDA                             D000000003093800000000000000000000100010010000000000000000000000F0010000010313700120170907000101 00000000000000000000000000000000000000000000000000000000000000000000000000000000000000000000000000000000000000000N 00000000000NCONT   00    00000000000          00000000000000000000000000000000000000000000 000000000000000A000000000000000000000000000000000000000000000 000000000000000000000000000000000000000     00000000                                                                                                                        000000000000000000
F0010000010313700002000080201703900041450500000000000000000201709070002001MUNDIAL CHEMICAL LTDA                             C000000003000000000000000000000000100010010000000000000000000000F0010000010313700220170907000101 00000000000000000000000000000000000000000000000000000000000000000000000000000000000000000000000000000000000000000N 00000000000NCONT   00    00000000000          00000000000000000000000000000000000000000000 000000000000000A000000000000000000000000000000000000000000000 000000000000000000000000000000000000000     00000000                                                                                                                        000000000000000000
F0010000010313700003000080201703900042505000000000000000000201709070002001MUNDIAL CHEMICAL LTDA                             C000000000093800000000000000000000100010010000000000000000000000F0010000010313700320170907000101 00000000000000000000000000000000000000000000000000000000000000000000000000000000000000000000000000000000000000000N 00000000000NCONT   00    00000000000          00000000000000000000000000000000000000000000 000000000000000A000000000000000000000000000000000000000000000 000000000000000000000000000000000000000     00000000                                                                                                                        000000000000000000
F0010000010313700004000080201703900023658300000000000000000201709070002001MUNDIAL CHEMICAL LTDA                             C000000000000000000000000000000000100010010000000000000000000000F0010000010313700420170907000101 00000000000000000000000000000000000000000000000000000000000000000000000000000000000000000000000000000000000000000N 00000000000NCONT   00    00000000000          00000000000000000000000000000000000000000000 000000000000000A000000000000000000000000000000000000000000000 000000000000000000000000000000000000000     00000000                                                                                                                        000000000000000000
F0010000010313700005000080201703900013552100000000000000000201709070002001MUNDIAL CHEMICAL LTDA                             D000000000000000000000000000000000100010010000000000000000000000F0010000010313700520170907000101 00000000000000000000000000000000000000000000000000000000000000000000000000000000000000000000000000000000000000000N 00000000000NCONT   00    00000000000          00000000000000000000000000000000000000000000 000000000000000A000000000000000000000000000000000000000000000 000000000000000000000000000000000000000     00000000                                                                                                                        000000000000000000
F0010000010313800001000080201703900011050500000000000000000201709070002001MUNDIAL CHEMICAL LTDA                             D000000008463000000000000000000000100010010000000000000000000000F0010000010313800120170907000101 00000000000000000000000000000000000000000000000000000000000000000000000000000000000000000000000000000000000000000N 00000000000NCONT   00    00000000000          00000000000000000000000000000000000000000000 000000000000000A000000000000000000000000000000000000000000000 000000000000000000000000000000000000000     00000000                                                                                                                        000000000000000000
F0010000010313800002000080201703900041450500000000000000000201709070002001MUNDIAL CHEMICAL LTDA                             C000000006993000000000000000000000100010010000000000000000000000F0010000010313800220170907000101 00000000000000000000000000000000000000000000000000000000000000000000000000000000000000000000000000000000000000000N 00000000000NCONT   00    00000000000          00000000000000000000000000000000000000000000 000000000000000A000000000000000000000000000000000000000000000 000000000000000000000000000000000000000     00000000                                                                                                                        000000000000000000
F0010000010313800003000080201703900042505000000000000000000201709070002001MUNDIAL CHEMICAL LTDA                             C000000001470000000000000000000000100010010000000000000000000000F0010000010313800320170907000101 00000000000000000000000000000000000000000000000000000000000000000000000000000000000000000000000000000000000000000N 00000000000NCONT   00    00000000000          00000000000000000000000000000000000000000000 000000000000000A000000000000000000000000000000000000000000000 000000000000000000000000000000000000000     00000000                                                                                                                        000000000000000000
F0010000010313800004000080201703900023658300000000000000000201709070002001MUNDIAL CHEMICAL LTDA                             C000000000000000000000000000000000100010010000000000000000000000F0010000010313800420170907000101 00000000000000000000000000000000000000000000000000000000000000000000000000000000000000000000000000000000000000000N 00000000000NCONT   00    00000000000          00000000000000000000000000000000000000000000 000000000000000A000000000000000000000000000000000000000000000 000000000000000000000000000000000000000     00000000                                                                                                                        000000000000000000
F0010000010313800005000080201703900013552100000000000000000201709070002001MUNDIAL CHEMICAL LTDA                             D000000000000000000000000000000000100010010000000000000000000000F0010000010313800520170907000101 00000000000000000000000000000000000000000000000000000000000000000000000000000000000000000000000000000000000000000N 00000000000NCONT   00    00000000000          00000000000000000000000000000000000000000000 000000000000000A000000000000000000000000000000000000000000000 000000000000000000000000000000000000000     00000000                                                                                                                        000000000000000000
