F0010000008276300001000089011033000011050500000000000000000201602190002001INDUSTRIAS CRUZ & CAÑON LTDA                     D000000040000000000000000000000000100010010000000000000000000000F0010000008276300120160219000101 00000000000000000000000000000000000000000000000000000000000000000000000000000000000000000000000000000000000000000N 00000000000NCONT   00    00000000000          00000000000000000000000000000000000000000000 000000000000000A000000000000000000000000000000000000000000000 000000000000000000000000000000000000000     00000000                                                                                                                        000000000000000000
F0010000008276300002000089011033000041450500000000000000000201602190002001INDUSTRIAS CRUZ & CAÑON LTDA                     C000000039000000000000000000000000100010010000000000000000000000F0010000008276300220160219000101 00000000000000000000000000000000000000000000000000000000000000000000000000000000000000000000000000000000000000000N 00000000000NCONT   00    00000000000          00000000000000000000000000000000000000000000 000000000000000A000000000000000000000000000000000000000000000 000000000000000000000000000000000000000     00000000                                                                                                                        000000000000000000
F0010000008276300003000089011033000042505000000000000000000201602190002001INDUSTRIAS CRUZ & CAÑON LTDA                     C000000001000000000000000000000000100010010000000000000000000000F0010000008276300320160219000101 00000000000000000000000000000000000000000000000000000000000000000000000000000000000000000000000000000000000000000N 00000000000NCONT   00    00000000000          00000000000000000000000000000000000000000000 000000000000000A000000000000000000000000000000000000000000000 000000000000000000000000000000000000000     00000000                                                                                                                        000000000000000000
F0010000008276300004000089011033000023658300000000000000000201602190002001INDUSTRIAS CRUZ & CAÑON LTDA                     C000000000312000000000000000000000100010010000000000000000000000F0010000008276300420160219000101 00000000000000000000000000000000000000000000000000000000000000000000000000000000000000000000000000000000000000000N 00000000000NCONT   00    00000000000          00000000000000000000000000000000000000000000 000000000000000A000000000000000000000000000000000000000000000 000000000000000000000000000000000000000     00000000                                                                                                                        000000000000000000
F0010000008276300005000089011033000013552100000000000000000201602190002001INDUSTRIAS CRUZ & CAÑON LTDA                     D000000000312000000000000000000000100010010000000000000000000000F0010000008276300520160219000101 00000000000000000000000000000000000000000000000000000000000000000000000000000000000000000000000000000000000000000N 00000000000NCONT   00    00000000000          00000000000000000000000000000000000000000000 000000000000000A000000000000000000000000000000000000000000000 000000000000000000000000000000000000000     00000000                                                                                                                        000000000000000000
F0010000008276400001000080201601700013050500000000000000000201602190002001PLASTICOS SUPERIOR S.A.                           D000000013500000000000000000000000100010010000000000000000000000F0010000008276400120160219000101 00000000000000000000000000000000000000000000000000000000000000000000000000000000000000000000000000000000000000000N 00000000000NCONT   00    00000000000          00000000000000000000000000000000000000000000 000000000000000A000000000000000000000000000000000000000000000 000000000000000000000000000000000000000     00000000                                                                                                                        000000000000000000
F0010000008276400002000080201601700041450500000000000000000201602190002001PLASTICOS SUPERIOR S.A.                           C000000012600000000000000000000000100010010000000000000000000000F0010000008276400220160219000101 00000000000000000000000000000000000000000000000000000000000000000000000000000000000000000000000000000000000000000N 00000000000NCONT   00    00000000000          00000000000000000000000000000000000000000000 000000000000000A000000000000000000000000000000000000000000000 000000000000000000000000000000000000000     00000000                                                                                                                        000000000000000000
F0010000008276400003000080201601700042505000000000000000000201602190002001PLASTICOS SUPERIOR S.A.                           C000000000900000000000000000000000100010010000000000000000000000F0010000008276400320160219000101 00000000000000000000000000000000000000000000000000000000000000000000000000000000000000000000000000000000000000000N 00000000000NCONT   00    00000000000          00000000000000000000000000000000000000000000 000000000000000A000000000000000000000000000000000000000000000 000000000000000000000000000000000000000     00000000                                                                                                                        000000000000000000
F0010000008276400004000080201601700023658300000000000000000201602190002001PLASTICOS SUPERIOR S.A.                           C000000000100800000000000000000000100010010000000000000000000000F0010000008276400420160219000101 00000000000000000000000000000000000000000000000000000000000000000000000000000000000000000000000000000000000000000N 00000000000NCONT   00    00000000000          00000000000000000000000000000000000000000000 000000000000000A000000000000000000000000000000000000000000000 000000000000000000000000000000000000000     00000000                                                                                                                        000000000000000000
F0010000008276400005000080201601700013552100000000000000000201602190002001PLASTICOS SUPERIOR S.A.                           D000000000100800000000000000000000100010010000000000000000000000F0010000008276400520160219000101 00000000000000000000000000000000000000000000000000000000000000000000000000000000000000000000000000000000000000000N 00000000000NCONT   00    00000000000          00000000000000000000000000000000000000000000 000000000000000A000000000000000000000000000000000000000000000 000000000000000000000000000000000000000     00000000                                                                                                                        000000000000000000
F0010000008276500001000081102758700013050500000000000000000201602190002001C.I. ABRACOL S.A EMA                              D000000054574100000000000000000000100010010000000000000000000000F0010000008276500120160219000101 00000000000000000000000000000000000000000000000000000000000000000000000000000000000000000000000000000000000000000N 00000000000NCONT   00    00000000000          00000000000000000000000000000000000000000000 000000000000000A000000000000000000000000000000000000000000000 000000000000000000000000000000000000000     00000000                                                                                                                        000000000000000000
F0010000008276500002000081102758700041450500000000000000000201602190002001C.I. ABRACOL S.A EMA                              C000000031240000000000000000000000100010010000000000000000000000F0010000008276500220160219000101 00000000000000000000000000000000000000000000000000000000000000000000000000000000000000000000000000000000000000000N 00000000000NCONT   00    00000000000          00000000000000000000000000000000000000000000 000000000000000A000000000000000000000000000000000000000000000 000000000000000000000000000000000000000     00000000                                                                                                                        000000000000000000
F0010000008276500003000081102758700041750100000000000000000201602190002001C.I. ABRACOL S.A EMA                              D000000000937200000000000000000000100010010000000000000000000000F0010000008276500320160219000101 00000000000000000000000000000000000000000000000000000000000000000000000000000000000000000000000000000000000000000N 00000000000NCONT   00    00000000000          00000000000000000000000000000000000000000000 000000000000000A000000000000000000000000000000000000000000000 000000000000000000000000000000000000000     00000000                                                                                                                        000000000000000000
F0010000008276500004000081102758700042505000000000000000000201602190002001C.I. ABRACOL S.A EMA                              C000000024271300000000000000000000100010010000000000000000000000F0010000008276500420160219000101 00000000000000000000000000000000000000000000000000000000000000000000000000000000000000000000000000000000000000000N 00000000000NCONT   00    00000000000          00000000000000000000000000000000000000000000 000000000000000A000000000000000000000000000000000000000000000 000000000000000000000000000000000000000     00000000                                                                                                                        000000000000000000
F0010000008276500005000081102758700023658300000000000000000201602190002001C.I. ABRACOL S.A EMA                              C000000000249900000000000000000000100010010000000000000000000000F0010000008276500520160219000101 00000000000000000000000000000000000000000000000000000000000000000000000000000000000000000000000000000000000000000N 00000000000NCONT   00    00000000000          00000000000000000000000000000000000000000000 000000000000000A000000000000000000000000000000000000000000000 000000000000000000000000000000000000000     00000000                                                                                                                        000000000000000000
F0010000008276500006000081102758700013552100000000000000000201602190002001C.I. ABRACOL S.A EMA                              D000000000249900000000000000000000100010010000000000000000000000F0010000008276500620160219000101 00000000000000000000000000000000000000000000000000000000000000000000000000000000000000000000000000000000000000000N 00000000000NCONT   00    00000000000          00000000000000000000000000000000000000000000 000000000000000A000000000000000000000000000000000000000000000 000000000000000000000000000000000000000     00000000                                                                                                                        000000000000000000
F0010000008276600001000081102758700013050500000000000000000201602190002001C.I. ABRACOL S.A EMA                              D000000004991400000000000000000000100010010000000000000000000000F0010000008276600120160219000101 00000000000000000000000000000000000000000000000000000000000000000000000000000000000000000000000000000000000000000N 00000000000NCONT   00    00000000000          00000000000000000000000000000000000000000000 000000000000000A000000000000000000000000000000000000000000000 000000000000000000000000000000000000000     00000000                                                                                                                        000000000000000000
F0010000008276600002000081102758700041450500000000000000000201602190002001C.I. ABRACOL S.A EMA                              C000000002200000000000000000000000100010010000000000000000000000F0010000008276600220160219000101 00000000000000000000000000000000000000000000000000000000000000000000000000000000000000000000000000000000000000000N 00000000000NCONT   00    00000000000          00000000000000000000000000000000000000000000 000000000000000A000000000000000000000000000000000000000000000 000000000000000000000000000000000000000     00000000                                                                                                                        000000000000000000
F0010000008276600003000081102758700041750100000000000000000201602190002001C.I. ABRACOL S.A EMA                              D000000000066000000000000000000000100010010000000000000000000000F0010000008276600320160219000101 00000000000000000000000000000000000000000000000000000000000000000000000000000000000000000000000000000000000000000N 00000000000NCONT   00    00000000000          00000000000000000000000000000000000000000000 000000000000000A000000000000000000000000000000000000000000000 000000000000000000000000000000000000000     00000000                                                                                                                        000000000000000000
F0010000008276600004000081102758700042505000000000000000000201602190002001C.I. ABRACOL S.A EMA                              C000000002857400000000000000000000100010010000000000000000000000F0010000008276600420160219000101 00000000000000000000000000000000000000000000000000000000000000000000000000000000000000000000000000000000000000000N 00000000000NCONT   00    00000000000          00000000000000000000000000000000000000000000 000000000000000A000000000000000000000000000000000000000000000 000000000000000000000000000000000000000     00000000                                                                                                                        000000000000000000
F0010000008276600005000081102758700023658300000000000000000201602190002001C.I. ABRACOL S.A EMA                              C000000000017600000000000000000000100010010000000000000000000000F0010000008276600520160219000101 00000000000000000000000000000000000000000000000000000000000000000000000000000000000000000000000000000000000000000N 00000000000NCONT   00    00000000000          00000000000000000000000000000000000000000000 000000000000000A000000000000000000000000000000000000000000000 000000000000000000000000000000000000000     00000000                                                                                                                        000000000000000000
F0010000008276600006000081102758700013552100000000000000000201602190002001C.I. ABRACOL S.A EMA                              D000000000017600000000000000000000100010010000000000000000000000F0010000008276600620160219000101 00000000000000000000000000000000000000000000000000000000000000000000000000000000000000000000000000000000000000000N 00000000000NCONT   00    00000000000          00000000000000000000000000000000000000000000 000000000000000A000000000000000000000000000000000000000000000 000000000000000000000000000000000000000     00000000                                                                                                                        000000000000000000
F0010000008276700001000080202094000013050500000000000000000201602190002001DISTRIB. OMAR ORREGO S.A.                         D000000055541900000000000000000000100010010000000000000000000000F0010000008276700120160219000101 00000000000000000000000000000000000000000000000000000000000000000000000000000000000000000000000000000000000000000N 00000000000NCONT   00    00000000000          00000000000000000000000000000000000000000000 000000000000000A000000000000000000000000000000000000000000000 000000000000000000000000000000000000000     00000000                                                                                                                        000000000000000000
F0010000008276700002000080202094000041450500000000000000000201602190002001DISTRIB. OMAR ORREGO S.A.                         C000000033550000000000000000000000100010010000000000000000000000F0010000008276700220160219000101 00000000000000000000000000000000000000000000000000000000000000000000000000000000000000000000000000000000000000000N 00000000000NCONT   00    00000000000          00000000000000000000000000000000000000000000 000000000000000A000000000000000000000000000000000000000000000 000000000000000000000000000000000000000     00000000                                                                                                                        000000000000000000
F0010000008276700003000080202094000042505000000000000000000201602190002001DISTRIB. OMAR ORREGO S.A.                         C000000021991900000000000000000000100010010000000000000000000000F0010000008276700320160219000101 00000000000000000000000000000000000000000000000000000000000000000000000000000000000000000000000000000000000000000N 00000000000NCONT   00    00000000000          00000000000000000000000000000000000000000000 000000000000000A000000000000000000000000000000000000000000000 000000000000000000000000000000000000000     00000000                                                                                                                        000000000000000000
F0010000008276700004000080202094000023658300000000000000000201602190002001DISTRIB. OMAR ORREGO S.A.                         C000000000268400000000000000000000100010010000000000000000000000F0010000008276700420160219000101 00000000000000000000000000000000000000000000000000000000000000000000000000000000000000000000000000000000000000000N 00000000000NCONT   00    00000000000          00000000000000000000000000000000000000000000 000000000000000A000000000000000000000000000000000000000000000 000000000000000000000000000000000000000     00000000                                                                                                                        000000000000000000
F0010000008276700005000080202094000013552100000000000000000201602190002001DISTRIB. OMAR ORREGO S.A.                         D000000000268400000000000000000000100010010000000000000000000000F0010000008276700520160219000101 00000000000000000000000000000000000000000000000000000000000000000000000000000000000000000000000000000000000000000N 00000000000NCONT   00    00000000000          00000000000000000000000000000000000000000000 000000000000000A000000000000000000000000000000000000000000000 000000000000000000000000000000000000000     00000000                                                                                                                        000000000000000000
F0010000008276800001000080202094000013050500000000000000000201602190002001DISTRIB. OMAR ORREGO S.A.                         D000000015858200000000000000000000100010010000000000000000000000F0010000008276800120160219000101 00000000000000000000000000000000000000000000000000000000000000000000000000000000000000000000000000000000000000000N 00000000000NCONT   00    00000000000          00000000000000000000000000000000000000000000 000000000000000A000000000000000000000000000000000000000000000 000000000000000000000000000000000000000     00000000                                                                                                                        000000000000000000
F0010000008276800002000080202094000041450500000000000000000201602190002001DISTRIB. OMAR ORREGO S.A.                         C000000008810000000000000000000000100010010000000000000000000000F0010000008276800220160219000101 00000000000000000000000000000000000000000000000000000000000000000000000000000000000000000000000000000000000000000N 00000000000NCONT   00    00000000000          00000000000000000000000000000000000000000000 000000000000000A000000000000000000000000000000000000000000000 000000000000000000000000000000000000000     00000000                                                                                                                        000000000000000000
F0010000008276800003000080202094000042505000000000000000000201602190002001DISTRIB. OMAR ORREGO S.A.                         C000000007048200000000000000000000100010010000000000000000000000F0010000008276800320160219000101 00000000000000000000000000000000000000000000000000000000000000000000000000000000000000000000000000000000000000000N 00000000000NCONT   00    00000000000          00000000000000000000000000000000000000000000 000000000000000A000000000000000000000000000000000000000000000 000000000000000000000000000000000000000     00000000                                                                                                                        000000000000000000
F0010000008276800004000080202094000023658300000000000000000201602190002001DISTRIB. OMAR ORREGO S.A.                         C000000000070500000000000000000000100010010000000000000000000000F0010000008276800420160219000101 00000000000000000000000000000000000000000000000000000000000000000000000000000000000000000000000000000000000000000N 00000000000NCONT   00    00000000000          00000000000000000000000000000000000000000000 000000000000000A000000000000000000000000000000000000000000000 000000000000000000000000000000000000000     00000000                                                                                                                        000000000000000000
F0010000008276800005000080202094000013552100000000000000000201602190002001DISTRIB. OMAR ORREGO S.A.                         D000000000070500000000000000000000100010010000000000000000000000F0010000008276800520160219000101 00000000000000000000000000000000000000000000000000000000000000000000000000000000000000000000000000000000000000000N 00000000000NCONT   00    00000000000          00000000000000000000000000000000000000000000 000000000000000A000000000000000000000000000000000000000000000 000000000000000000000000000000000000000     00000000                                                                                                                        000000000000000000
F0010000008276900001000090035510100013050500000000000000000201602190002001GRAINGER COLOMBIA S.A.S.                          D000000034781700000000000000000000100010010000000000000000000000F0010000008276900120160219000101 00000000000000000000000000000000000000000000000000000000000000000000000000000000000000000000000000000000000000000N 00000000000NCONT   00    00000000000          00000000000000000000000000000000000000000000 000000000000000A000000000000000000000000000000000000000000000 000000000000000000000000000000000000000     00000000                                                                                                                        000000000000000000
F0010000008276900002000090035510100041450500000000000000000201602190002001GRAINGER COLOMBIA S.A.S.                          C000000025143000000000000000000000100010010000000000000000000000F0010000008276900220160219000101 00000000000000000000000000000000000000000000000000000000000000000000000000000000000000000000000000000000000000000N 00000000000NCONT   00    00000000000          00000000000000000000000000000000000000000000 000000000000000A000000000000000000000000000000000000000000000 000000000000000000000000000000000000000     00000000                                                                                                                        000000000000000000
F0010000008276900003000090035510100042505000000000000000000201602190002001GRAINGER COLOMBIA S.A.S.                          C000000009638700000000000000000000100010010000000000000000000000F0010000008276900320160219000101 00000000000000000000000000000000000000000000000000000000000000000000000000000000000000000000000000000000000000000N 00000000000NCONT   00    00000000000          00000000000000000000000000000000000000000000 000000000000000A000000000000000000000000000000000000000000000 000000000000000000000000000000000000000     00000000                                                                                                                        000000000000000000
F0010000008276900004000090035510100023658300000000000000000201602190002001GRAINGER COLOMBIA S.A.S.                          C000000000201100000000000000000000100010010000000000000000000000F0010000008276900420160219000101 00000000000000000000000000000000000000000000000000000000000000000000000000000000000000000000000000000000000000000N 00000000000NCONT   00    00000000000          00000000000000000000000000000000000000000000 000000000000000A000000000000000000000000000000000000000000000 000000000000000000000000000000000000000     00000000                                                                                                                        000000000000000000
F0010000008276900005000090035510100013552100000000000000000201602190002001GRAINGER COLOMBIA S.A.S.                          D000000000201100000000000000000000100010010000000000000000000000F0010000008276900520160219000101 00000000000000000000000000000000000000000000000000000000000000000000000000000000000000000000000000000000000000000N 00000000000NCONT   00    00000000000          00000000000000000000000000000000000000000000 000000000000000A000000000000000000000000000000000000000000000 000000000000000000000000000000000000000     00000000                                                                                                                        000000000000000000
F0010000008277000001000080201112800013050500000000000000000201602190002001CANGURO INTERNATIONAL S.A.                        D000000179035500000000000000000000100010010000000000000000000000F0010000008277000120160219000101 00000000000000000000000000000000000000000000000000000000000000000000000000000000000000000000000000000000000000000N 00000000000NCONT   00    00000000000          00000000000000000000000000000000000000000000 000000000000000A000000000000000000000000000000000000000000000 000000000000000000000000000000000000000     00000000                                                                                                                        000000000000000000
F0010000008277000002000080201112800041450500000000000000000201602190002001CANGURO INTERNATIONAL S.A.                        C000000179035500000000000000000000100010010000000000000000000000F0010000008277000220160219000101 00000000000000000000000000000000000000000000000000000000000000000000000000000000000000000000000000000000000000000N 00000000000NCONT   00    00000000000          00000000000000000000000000000000000000000000 000000000000000A000000000000000000000000000000000000000000000 000000000000000000000000000000000000000     00000000                                                                                                                        000000000000000000
F0010000008277000003000080201112800042505000000000000000000201602190002001CANGURO INTERNATIONAL S.A.                        C000000000000000000000000000000000100010010000000000000000000000F0010000008277000320160219000101 00000000000000000000000000000000000000000000000000000000000000000000000000000000000000000000000000000000000000000N 00000000000NCONT   00    00000000000          00000000000000000000000000000000000000000000 000000000000000A000000000000000000000000000000000000000000000 000000000000000000000000000000000000000     00000000                                                                                                                        000000000000000000
F0010000008277000004000080201112800023658300000000000000000201602190002001CANGURO INTERNATIONAL S.A.                        C000000001432300000000000000000000100010010000000000000000000000F0010000008277000420160219000101 00000000000000000000000000000000000000000000000000000000000000000000000000000000000000000000000000000000000000000N 00000000000NCONT   00    00000000000          00000000000000000000000000000000000000000000 000000000000000A000000000000000000000000000000000000000000000 000000000000000000000000000000000000000     00000000                                                                                                                        000000000000000000
F0010000008277000005000080201112800013552100000000000000000201602190002001CANGURO INTERNATIONAL S.A.                        D000000001432300000000000000000000100010010000000000000000000000F0010000008277000520160219000101 00000000000000000000000000000000000000000000000000000000000000000000000000000000000000000000000000000000000000000N 00000000000NCONT   00    00000000000          00000000000000000000000000000000000000000000 000000000000000A000000000000000000000000000000000000000000000 000000000000000000000000000000000000000     00000000                                                                                                                        000000000000000000
F0010000008277100001000080201112800013050500000000000000000201602190002001CANGURO INTERNATIONAL S.A.                        D000000192432200000000000000000000100010010000000000000000000000F0010000008277100120160219000101 00000000000000000000000000000000000000000000000000000000000000000000000000000000000000000000000000000000000000000N 00000000000NCONT   00    00000000000          00000000000000000000000000000000000000000000 000000000000000A000000000000000000000000000000000000000000000 000000000000000000000000000000000000000     00000000                                                                                                                        000000000000000000
F0010000008277100002000080201112800041450500000000000000000201602190002001CANGURO INTERNATIONAL S.A.                        C000000192432200000000000000000000100010010000000000000000000000F0010000008277100220160219000101 00000000000000000000000000000000000000000000000000000000000000000000000000000000000000000000000000000000000000000N 00000000000NCONT   00    00000000000          00000000000000000000000000000000000000000000 000000000000000A000000000000000000000000000000000000000000000 000000000000000000000000000000000000000     00000000                                                                                                                        000000000000000000
F0010000008277100003000080201112800042505000000000000000000201602190002001CANGURO INTERNATIONAL S.A.                        C000000000000000000000000000000000100010010000000000000000000000F0010000008277100320160219000101 00000000000000000000000000000000000000000000000000000000000000000000000000000000000000000000000000000000000000000N 00000000000NCONT   00    00000000000          00000000000000000000000000000000000000000000 000000000000000A000000000000000000000000000000000000000000000 000000000000000000000000000000000000000     00000000                                                                                                                        000000000000000000
F0010000008277100004000080201112800023658300000000000000000201602190002001CANGURO INTERNATIONAL S.A.                        C000000001539500000000000000000000100010010000000000000000000000F0010000008277100420160219000101 00000000000000000000000000000000000000000000000000000000000000000000000000000000000000000000000000000000000000000N 00000000000NCONT   00    00000000000          00000000000000000000000000000000000000000000 000000000000000A000000000000000000000000000000000000000000000 000000000000000000000000000000000000000     00000000                                                                                                                        000000000000000000
F0010000008277100005000080201112800013552100000000000000000201602190002001CANGURO INTERNATIONAL S.A.                        D000000001539500000000000000000000100010010000000000000000000000F0010000008277100520160219000101 00000000000000000000000000000000000000000000000000000000000000000000000000000000000000000000000000000000000000000N 00000000000NCONT   00    00000000000          00000000000000000000000000000000000000000000 000000000000000A000000000000000000000000000000000000000000000 000000000000000000000000000000000000000     00000000                                                                                                                        000000000000000000
F0010000008277200001000089010260300013050500000000000000000201602190002001FEDERICO OSORIO A. S.A.                           D000000057340200000000000000000000100010010000000000000000000000F0010000008277200120160219000101 00000000000000000000000000000000000000000000000000000000000000000000000000000000000000000000000000000000000000000N 00000000000NCONT   00    00000000000          00000000000000000000000000000000000000000000 000000000000000A000000000000000000000000000000000000000000000 000000000000000000000000000000000000000     00000000                                                                                                                        000000000000000000
F0010000008277200002000089010260300041450500000000000000000201602190002001FEDERICO OSORIO A. S.A.                           C000000050900000000000000000000000100010010000000000000000000000F0010000008277200220160219000101 00000000000000000000000000000000000000000000000000000000000000000000000000000000000000000000000000000000000000000N 00000000000NCONT   00    00000000000          00000000000000000000000000000000000000000000 000000000000000A000000000000000000000000000000000000000000000 000000000000000000000000000000000000000     00000000                                                                                                                        000000000000000000
F0010000008277200003000089010260300042505000000000000000000201602190002001FEDERICO OSORIO A. S.A.                           C000000006440200000000000000000000100010010000000000000000000000F0010000008277200320160219000101 00000000000000000000000000000000000000000000000000000000000000000000000000000000000000000000000000000000000000000N 00000000000NCONT   00    00000000000          00000000000000000000000000000000000000000000 000000000000000A000000000000000000000000000000000000000000000 000000000000000000000000000000000000000     00000000                                                                                                                        000000000000000000
F0010000008277200004000089010260300023658300000000000000000201602190002001FEDERICO OSORIO A. S.A.                           C000000000407200000000000000000000100010010000000000000000000000F0010000008277200420160219000101 00000000000000000000000000000000000000000000000000000000000000000000000000000000000000000000000000000000000000000N 00000000000NCONT   00    00000000000          00000000000000000000000000000000000000000000 000000000000000A000000000000000000000000000000000000000000000 000000000000000000000000000000000000000     00000000                                                                                                                        000000000000000000
F0010000008277200005000089010260300013552100000000000000000201602190002001FEDERICO OSORIO A. S.A.                           D000000000407200000000000000000000100010010000000000000000000000F0010000008277200520160219000101 00000000000000000000000000000000000000000000000000000000000000000000000000000000000000000000000000000000000000000N 00000000000NCONT   00    00000000000          00000000000000000000000000000000000000000000 000000000000000A000000000000000000000000000000000000000000000 000000000000000000000000000000000000000     00000000                                                                                                                        000000000000000000
F0010000008277300001000080004943800013050500000000000000000201602190002001PAPELERIA EL CID S.A.                             D000000031167500000000000000000000100010010000000000000000000000F0010000008277300120160219000101 00000000000000000000000000000000000000000000000000000000000000000000000000000000000000000000000000000000000000000N 00000000000NCONT   00    00000000000          00000000000000000000000000000000000000000000 000000000000000A000000000000000000000000000000000000000000000 000000000000000000000000000000000000000     00000000                                                                                                                        000000000000000000
F0010000008277300002000080004943800041450500000000000000000201602190002001PAPELERIA EL CID S.A.                             C000000023400000000000000000000000100010010000000000000000000000F0010000008277300220160219000101 00000000000000000000000000000000000000000000000000000000000000000000000000000000000000000000000000000000000000000N 00000000000NCONT   00    00000000000          00000000000000000000000000000000000000000000 000000000000000A000000000000000000000000000000000000000000000 000000000000000000000000000000000000000     00000000                                                                                                                        000000000000000000
F0010000008277300003000080004943800042505000000000000000000201602190002001PAPELERIA EL CID S.A.                             C000000007767500000000000000000000100010010000000000000000000000F0010000008277300320160219000101 00000000000000000000000000000000000000000000000000000000000000000000000000000000000000000000000000000000000000000N 00000000000NCONT   00    00000000000          00000000000000000000000000000000000000000000 000000000000000A000000000000000000000000000000000000000000000 000000000000000000000000000000000000000     00000000                                                                                                                        000000000000000000
F0010000008277300004000080004943800023658300000000000000000201602190002001PAPELERIA EL CID S.A.                             C000000000187200000000000000000000100010010000000000000000000000F0010000008277300420160219000101 00000000000000000000000000000000000000000000000000000000000000000000000000000000000000000000000000000000000000000N 00000000000NCONT   00    00000000000          00000000000000000000000000000000000000000000 000000000000000A000000000000000000000000000000000000000000000 000000000000000000000000000000000000000     00000000                                                                                                                        000000000000000000
F0010000008277300005000080004943800013552100000000000000000201602190002001PAPELERIA EL CID S.A.                             D000000000187200000000000000000000100010010000000000000000000000F0010000008277300520160219000101 00000000000000000000000000000000000000000000000000000000000000000000000000000000000000000000000000000000000000000N 00000000000NCONT   00    00000000000          00000000000000000000000000000000000000000000 000000000000000A000000000000000000000000000000000000000000000 000000000000000000000000000000000000000     00000000                                                                                                                        000000000000000000
F0010000008277400001000080004943800013050500000000000000000201602190002001PAPELERIA EL CID S.A.                             D000000048295000000000000000000000100010010000000000000000000000F0010000008277400120160219000101 00000000000000000000000000000000000000000000000000000000000000000000000000000000000000000000000000000000000000000N 00000000000NCONT   00    00000000000          00000000000000000000000000000000000000000000 000000000000000A000000000000000000000000000000000000000000000 000000000000000000000000000000000000000     00000000                                                                                                                        000000000000000000
F0010000008277400002000080004943800041450500000000000000000201602190002001PAPELERIA EL CID S.A.                             C000000036450000000000000000000000100010010000000000000000000000F0010000008277400220160219000101 00000000000000000000000000000000000000000000000000000000000000000000000000000000000000000000000000000000000000000N 00000000000NCONT   00    00000000000          00000000000000000000000000000000000000000000 000000000000000A000000000000000000000000000000000000000000000 000000000000000000000000000000000000000     00000000                                                                                                                        000000000000000000
F0010000008277400003000080004943800042505000000000000000000201602190002001PAPELERIA EL CID S.A.                             C000000011845000000000000000000000100010010000000000000000000000F0010000008277400320160219000101 00000000000000000000000000000000000000000000000000000000000000000000000000000000000000000000000000000000000000000N 00000000000NCONT   00    00000000000          00000000000000000000000000000000000000000000 000000000000000A000000000000000000000000000000000000000000000 000000000000000000000000000000000000000     00000000                                                                                                                        000000000000000000
F0010000008277400004000080004943800023658300000000000000000201602190002001PAPELERIA EL CID S.A.                             C000000000291600000000000000000000100010010000000000000000000000F0010000008277400420160219000101 00000000000000000000000000000000000000000000000000000000000000000000000000000000000000000000000000000000000000000N 00000000000NCONT   00    00000000000          00000000000000000000000000000000000000000000 000000000000000A000000000000000000000000000000000000000000000 000000000000000000000000000000000000000     00000000                                                                                                                        000000000000000000
F0010000008277400005000080004943800013552100000000000000000201602190002001PAPELERIA EL CID S.A.                             D000000000291600000000000000000000100010010000000000000000000000F0010000008277400520160219000101 00000000000000000000000000000000000000000000000000000000000000000000000000000000000000000000000000000000000000000N 00000000000NCONT   00    00000000000          00000000000000000000000000000000000000000000 000000000000000A000000000000000000000000000000000000000000000 000000000000000000000000000000000000000     00000000                                                                                                                        000000000000000000
F0010000008277500001000080201411900011050500000000000000000201602190002001PLASTISERVICIOS S DE H                            D000000011000000000000000000000000100010010000000000000000000000F0010000008277500120160219000101 00000000000000000000000000000000000000000000000000000000000000000000000000000000000000000000000000000000000000000N 00000000000NCONT   00    00000000000          00000000000000000000000000000000000000000000 000000000000000A000000000000000000000000000000000000000000000 000000000000000000000000000000000000000     00000000                                                                                                                        000000000000000000
F0010000008277500002000080201411900041450500000000000000000201602190002001PLASTISERVICIOS S DE H                            C000000008200000000000000000000000100010010000000000000000000000F0010000008277500220160219000101 00000000000000000000000000000000000000000000000000000000000000000000000000000000000000000000000000000000000000000N 00000000000NCONT   00    00000000000          00000000000000000000000000000000000000000000 000000000000000A000000000000000000000000000000000000000000000 000000000000000000000000000000000000000     00000000                                                                                                                        000000000000000000
F0010000008277500003000080201411900042505000000000000000000201602190002001PLASTISERVICIOS S DE H                            C000000002800000000000000000000000100010010000000000000000000000F0010000008277500320160219000101 00000000000000000000000000000000000000000000000000000000000000000000000000000000000000000000000000000000000000000N 00000000000NCONT   00    00000000000          00000000000000000000000000000000000000000000 000000000000000A000000000000000000000000000000000000000000000 000000000000000000000000000000000000000     00000000                                                                                                                        000000000000000000
F0010000008277500004000080201411900023658300000000000000000201602190002001PLASTISERVICIOS S DE H                            C000000000065600000000000000000000100010010000000000000000000000F0010000008277500420160219000101 00000000000000000000000000000000000000000000000000000000000000000000000000000000000000000000000000000000000000000N 00000000000NCONT   00    00000000000          00000000000000000000000000000000000000000000 000000000000000A000000000000000000000000000000000000000000000 000000000000000000000000000000000000000     00000000                                                                                                                        000000000000000000
F0010000008277500005000080201411900013552100000000000000000201602190002001PLASTISERVICIOS S DE H                            D000000000065600000000000000000000100010010000000000000000000000F0010000008277500520160219000101 00000000000000000000000000000000000000000000000000000000000000000000000000000000000000000000000000000000000000000N 00000000000NCONT   00    00000000000          00000000000000000000000000000000000000000000 000000000000000A000000000000000000000000000000000000000000000 000000000000000000000000000000000000000     00000000                                                                                                                        000000000000000000
F0010000008277600001000003265780700011050500000000000000000201602190002001ZUNILDA GUERRERO                                  D000000009000000000000000000000000100010010000000000000000000000F0010000008277600120160219000101 00000000000000000000000000000000000000000000000000000000000000000000000000000000000000000000000000000000000000000N 00000000000NCONT   00    00000000000          00000000000000000000000000000000000000000000 000000000000000A000000000000000000000000000000000000000000000 000000000000000000000000000000000000000     00000000                                                                                                                        000000000000000000
F0010000008277600002000003265780700041450500000000000000000201602190002001ZUNILDA GUERRERO                                  C000000007800000000000000000000000100010010000000000000000000000F0010000008277600220160219000101 00000000000000000000000000000000000000000000000000000000000000000000000000000000000000000000000000000000000000000N 00000000000NCONT   00    00000000000          00000000000000000000000000000000000000000000 000000000000000A000000000000000000000000000000000000000000000 000000000000000000000000000000000000000     00000000                                                                                                                        000000000000000000
F0010000008277600003000003265780700042505000000000000000000201602190002001ZUNILDA GUERRERO                                  C000000001200000000000000000000000100010010000000000000000000000F0010000008277600320160219000101 00000000000000000000000000000000000000000000000000000000000000000000000000000000000000000000000000000000000000000N 00000000000NCONT   00    00000000000          00000000000000000000000000000000000000000000 000000000000000A000000000000000000000000000000000000000000000 000000000000000000000000000000000000000     00000000                                                                                                                        000000000000000000
F0010000008277600004000003265780700023658300000000000000000201602190002001ZUNILDA GUERRERO                                  C000000000062400000000000000000000100010010000000000000000000000F0010000008277600420160219000101 00000000000000000000000000000000000000000000000000000000000000000000000000000000000000000000000000000000000000000N 00000000000NCONT   00    00000000000          00000000000000000000000000000000000000000000 000000000000000A000000000000000000000000000000000000000000000 000000000000000000000000000000000000000     00000000                                                                                                                        000000000000000000
F0010000008277600005000003265780700013552100000000000000000201602190002001ZUNILDA GUERRERO                                  D000000000062400000000000000000000100010010000000000000000000000F0010000008277600520160219000101 00000000000000000000000000000000000000000000000000000000000000000000000000000000000000000000000000000000000000000N 00000000000NCONT   00    00000000000          00000000000000000000000000000000000000000000 000000000000000A000000000000000000000000000000000000000000000 000000000000000000000000000000000000000     00000000                                                                                                                        000000000000000000
F0010000008277700001000080200049600011050500000000000000000201602190002001FAMAPAN DEL CARIBE                                D000000019000000000000000000000000100010010000000000000000000000F0010000008277700120160219000101 00000000000000000000000000000000000000000000000000000000000000000000000000000000000000000000000000000000000000000N 00000000000NCONT   00    00000000000          00000000000000000000000000000000000000000000 000000000000000A000000000000000000000000000000000000000000000 000000000000000000000000000000000000000     00000000                                                                                                                        000000000000000000
F0010000008277700002000080200049600041450500000000000000000201602190002001FAMAPAN DEL CARIBE                                C000000018000000000000000000000000100010010000000000000000000000F0010000008277700220160219000101 00000000000000000000000000000000000000000000000000000000000000000000000000000000000000000000000000000000000000000N 00000000000NCONT   00    00000000000          00000000000000000000000000000000000000000000 000000000000000A000000000000000000000000000000000000000000000 000000000000000000000000000000000000000     00000000                                                                                                                        000000000000000000
F0010000008277700003000080200049600042505000000000000000000201602190002001FAMAPAN DEL CARIBE                                C000000001000000000000000000000000100010010000000000000000000000F0010000008277700320160219000101 00000000000000000000000000000000000000000000000000000000000000000000000000000000000000000000000000000000000000000N 00000000000NCONT   00    00000000000          00000000000000000000000000000000000000000000 000000000000000A000000000000000000000000000000000000000000000 000000000000000000000000000000000000000     00000000                                                                                                                        000000000000000000
F0010000008277700004000080200049600023658300000000000000000201602190002001FAMAPAN DEL CARIBE                                C000000000144000000000000000000000100010010000000000000000000000F0010000008277700420160219000101 00000000000000000000000000000000000000000000000000000000000000000000000000000000000000000000000000000000000000000N 00000000000NCONT   00    00000000000          00000000000000000000000000000000000000000000 000000000000000A000000000000000000000000000000000000000000000 000000000000000000000000000000000000000     00000000                                                                                                                        000000000000000000
F0010000008277700005000080200049600013552100000000000000000201602190002001FAMAPAN DEL CARIBE                                D000000000144000000000000000000000100010010000000000000000000000F0010000008277700520160219000101 00000000000000000000000000000000000000000000000000000000000000000000000000000000000000000000000000000000000000000N 00000000000NCONT   00    00000000000          00000000000000000000000000000000000000000000 000000000000000A000000000000000000000000000000000000000000000 000000000000000000000000000000000000000     00000000                                                                                                                        000000000000000000
F0010000008277800001000007213133300011050500000000000000000201602190002001ALVARO ALBERTO FANDIÑO GOMEZ                     D000000001000000000000000000000000100010010000000000000000000000F0010000008277800120160219000101 00000000000000000000000000000000000000000000000000000000000000000000000000000000000000000000000000000000000000000N 00000000000NCONT   00    00000000000          00000000000000000000000000000000000000000000 000000000000000A000000000000000000000000000000000000000000000 000000000000000000000000000000000000000     00000000                                                                                                                        000000000000000000
F0010000008277800002000007213133300041450500000000000000000201602190002001ALVARO ALBERTO FANDIÑO GOMEZ                     C000000000900000000000000000000000100010010000000000000000000000F0010000008277800220160219000101 00000000000000000000000000000000000000000000000000000000000000000000000000000000000000000000000000000000000000000N 00000000000NCONT   00    00000000000          00000000000000000000000000000000000000000000 000000000000000A000000000000000000000000000000000000000000000 000000000000000000000000000000000000000     00000000                                                                                                                        000000000000000000
F0010000008277800003000007213133300042505000000000000000000201602190002001ALVARO ALBERTO FANDIÑO GOMEZ                     C000000000100000000000000000000000100010010000000000000000000000F0010000008277800320160219000101 00000000000000000000000000000000000000000000000000000000000000000000000000000000000000000000000000000000000000000N 00000000000NCONT   00    00000000000          00000000000000000000000000000000000000000000 000000000000000A000000000000000000000000000000000000000000000 000000000000000000000000000000000000000     00000000                                                                                                                        000000000000000000
F0010000008277800004000007213133300023658300000000000000000201602190002001ALVARO ALBERTO FANDIÑO GOMEZ                     C000000000007200000000000000000000100010010000000000000000000000F0010000008277800420160219000101 00000000000000000000000000000000000000000000000000000000000000000000000000000000000000000000000000000000000000000N 00000000000NCONT   00    00000000000          00000000000000000000000000000000000000000000 000000000000000A000000000000000000000000000000000000000000000 000000000000000000000000000000000000000     00000000                                                                                                                        000000000000000000
F0010000008277800005000007213133300013552100000000000000000201602190002001ALVARO ALBERTO FANDIÑO GOMEZ                     D000000000007200000000000000000000100010010000000000000000000000F0010000008277800520160219000101 00000000000000000000000000000000000000000000000000000000000000000000000000000000000000000000000000000000000000000N 00000000000NCONT   00    00000000000          00000000000000000000000000000000000000000000 000000000000000A000000000000000000000000000000000000000000000 000000000000000000000000000000000000000     00000000                                                                                                                        000000000000000000
F0010000008277900001000001502923600011050500000000000000000201602190002001ALCIDES MARTINEZ MARTINEZ                         D000000001200000000000000000000000100010010000000000000000000000F0010000008277900120160219000101 00000000000000000000000000000000000000000000000000000000000000000000000000000000000000000000000000000000000000000N 00000000000NCONT   00    00000000000          00000000000000000000000000000000000000000000 000000000000000A000000000000000000000000000000000000000000000 000000000000000000000000000000000000000     00000000                                                                                                                        000000000000000000
F0010000008277900002000001502923600041450500000000000000000201602190002001ALCIDES MARTINEZ MARTINEZ                         C000000001000000000000000000000000100010010000000000000000000000F0010000008277900220160219000101 00000000000000000000000000000000000000000000000000000000000000000000000000000000000000000000000000000000000000000N 00000000000NCONT   00    00000000000          00000000000000000000000000000000000000000000 000000000000000A000000000000000000000000000000000000000000000 000000000000000000000000000000000000000     00000000                                                                                                                        000000000000000000
F0010000008277900003000001502923600042505000000000000000000201602190002001ALCIDES MARTINEZ MARTINEZ                         C000000000200000000000000000000000100010010000000000000000000000F0010000008277900320160219000101 00000000000000000000000000000000000000000000000000000000000000000000000000000000000000000000000000000000000000000N 00000000000NCONT   00    00000000000          00000000000000000000000000000000000000000000 000000000000000A000000000000000000000000000000000000000000000 000000000000000000000000000000000000000     00000000                                                                                                                        000000000000000000
F0010000008277900004000001502923600023658300000000000000000201602190002001ALCIDES MARTINEZ MARTINEZ                         C000000000008000000000000000000000100010010000000000000000000000F0010000008277900420160219000101 00000000000000000000000000000000000000000000000000000000000000000000000000000000000000000000000000000000000000000N 00000000000NCONT   00    00000000000          00000000000000000000000000000000000000000000 000000000000000A000000000000000000000000000000000000000000000 000000000000000000000000000000000000000     00000000                                                                                                                        000000000000000000
F0010000008277900005000001502923600013552100000000000000000201602190002001ALCIDES MARTINEZ MARTINEZ                         D000000000008000000000000000000000100010010000000000000000000000F0010000008277900520160219000101 00000000000000000000000000000000000000000000000000000000000000000000000000000000000000000000000000000000000000000N 00000000000NCONT   00    00000000000          00000000000000000000000000000000000000000000 000000000000000A000000000000000000000000000000000000000000000 000000000000000000000000000000000000000     00000000                                                                                                                        000000000000000000
F0010000008278000001000001502923600011050500000000000000000201602190002001ALCIDES MARTINEZ MARTINEZ                         D000000001000000000000000000000000100010010000000000000000000000F0010000008278000120160219000101 00000000000000000000000000000000000000000000000000000000000000000000000000000000000000000000000000000000000000000N 00000000000NCONT   00    00000000000          00000000000000000000000000000000000000000000 000000000000000A000000000000000000000000000000000000000000000 000000000000000000000000000000000000000     00000000                                                                                                                        000000000000000000
F0010000008278000002000001502923600041450500000000000000000201602190002001ALCIDES MARTINEZ MARTINEZ                         C000000000900000000000000000000000100010010000000000000000000000F0010000008278000220160219000101 00000000000000000000000000000000000000000000000000000000000000000000000000000000000000000000000000000000000000000N 00000000000NCONT   00    00000000000          00000000000000000000000000000000000000000000 000000000000000A000000000000000000000000000000000000000000000 000000000000000000000000000000000000000     00000000                                                                                                                        000000000000000000
F0010000008278000003000001502923600042505000000000000000000201602190002001ALCIDES MARTINEZ MARTINEZ                         C000000000100000000000000000000000100010010000000000000000000000F0010000008278000320160219000101 00000000000000000000000000000000000000000000000000000000000000000000000000000000000000000000000000000000000000000N 00000000000NCONT   00    00000000000          00000000000000000000000000000000000000000000 000000000000000A000000000000000000000000000000000000000000000 000000000000000000000000000000000000000     00000000                                                                                                                        000000000000000000
F0010000008278000004000001502923600023658300000000000000000201602190002001ALCIDES MARTINEZ MARTINEZ                         C000000000007200000000000000000000100010010000000000000000000000F0010000008278000420160219000101 00000000000000000000000000000000000000000000000000000000000000000000000000000000000000000000000000000000000000000N 00000000000NCONT   00    00000000000          00000000000000000000000000000000000000000000 000000000000000A000000000000000000000000000000000000000000000 000000000000000000000000000000000000000     00000000                                                                                                                        000000000000000000
F0010000008278000005000001502923600013552100000000000000000201602190002001ALCIDES MARTINEZ MARTINEZ                         D000000000007200000000000000000000100010010000000000000000000000F0010000008278000520160219000101 00000000000000000000000000000000000000000000000000000000000000000000000000000000000000000000000000000000000000000N 00000000000NCONT   00    00000000000          00000000000000000000000000000000000000000000 000000000000000A000000000000000000000000000000000000000000000 000000000000000000000000000000000000000     00000000                                                                                                                        000000000000000000
F0010000008278100001000080012418800011050500000000000000000201602190002001DISTRITEC S.A.S                                   D000000003600000000000000000000000100010010000000000000000000000F0010000008278100120160219000101 00000000000000000000000000000000000000000000000000000000000000000000000000000000000000000000000000000000000000000N 00000000000NCONT   00    00000000000          00000000000000000000000000000000000000000000 000000000000000A000000000000000000000000000000000000000000000 000000000000000000000000000000000000000     00000000                                                                                                                        000000000000000000
F0010000008278100002000080012418800041450500000000000000000201602190002001DISTRITEC S.A.S                                   C000000003400000000000000000000000100010010000000000000000000000F0010000008278100220160219000101 00000000000000000000000000000000000000000000000000000000000000000000000000000000000000000000000000000000000000000N 00000000000NCONT   00    00000000000          00000000000000000000000000000000000000000000 000000000000000A000000000000000000000000000000000000000000000 000000000000000000000000000000000000000     00000000                                                                                                                        000000000000000000
F0010000008278100003000080012418800042505000000000000000000201602190002001DISTRITEC S.A.S                                   C000000000200000000000000000000000100010010000000000000000000000F0010000008278100320160219000101 00000000000000000000000000000000000000000000000000000000000000000000000000000000000000000000000000000000000000000N 00000000000NCONT   00    00000000000          00000000000000000000000000000000000000000000 000000000000000A000000000000000000000000000000000000000000000 000000000000000000000000000000000000000     00000000                                                                                                                        000000000000000000
F0010000008278100004000080012418800023658300000000000000000201602190002001DISTRITEC S.A.S                                   C000000000027200000000000000000000100010010000000000000000000000F0010000008278100420160219000101 00000000000000000000000000000000000000000000000000000000000000000000000000000000000000000000000000000000000000000N 00000000000NCONT   00    00000000000          00000000000000000000000000000000000000000000 000000000000000A000000000000000000000000000000000000000000000 000000000000000000000000000000000000000     00000000                                                                                                                        000000000000000000
F0010000008278100005000080012418800013552100000000000000000201602190002001DISTRITEC S.A.S                                   D000000000027200000000000000000000100010010000000000000000000000F0010000008278100520160219000101 00000000000000000000000000000000000000000000000000000000000000000000000000000000000000000000000000000000000000000N 00000000000NCONT   00    00000000000          00000000000000000000000000000000000000000000 000000000000000A000000000000000000000000000000000000000000000 000000000000000000000000000000000000000     00000000                                                                                                                        000000000000000000
F0010000008278200001000007904689600011050500000000000000000201602190002001VICTOR MANUEL BOCANEGRA RAMIREZ                   D000000005000000000000000000000000100010010000000000000000000000F0010000008278200120160219000101 00000000000000000000000000000000000000000000000000000000000000000000000000000000000000000000000000000000000000000N 00000000000NCONT   00    00000000000          00000000000000000000000000000000000000000000 000000000000000A000000000000000000000000000000000000000000000 000000000000000000000000000000000000000     00000000                                                                                                                        000000000000000000
F0010000008278200002000007904689600041450500000000000000000201602190002001VICTOR MANUEL BOCANEGRA RAMIREZ                   C000000004500000000000000000000000100010010000000000000000000000F0010000008278200220160219000101 00000000000000000000000000000000000000000000000000000000000000000000000000000000000000000000000000000000000000000N 00000000000NCONT   00    00000000000          00000000000000000000000000000000000000000000 000000000000000A000000000000000000000000000000000000000000000 000000000000000000000000000000000000000     00000000                                                                                                                        000000000000000000
F0010000008278200003000007904689600042505000000000000000000201602190002001VICTOR MANUEL BOCANEGRA RAMIREZ                   C000000000500000000000000000000000100010010000000000000000000000F0010000008278200320160219000101 00000000000000000000000000000000000000000000000000000000000000000000000000000000000000000000000000000000000000000N 00000000000NCONT   00    00000000000          00000000000000000000000000000000000000000000 000000000000000A000000000000000000000000000000000000000000000 000000000000000000000000000000000000000     00000000                                                                                                                        000000000000000000
F0010000008278200004000007904689600023658300000000000000000201602190002001VICTOR MANUEL BOCANEGRA RAMIREZ                   C000000000036000000000000000000000100010010000000000000000000000F0010000008278200420160219000101 00000000000000000000000000000000000000000000000000000000000000000000000000000000000000000000000000000000000000000N 00000000000NCONT   00    00000000000          00000000000000000000000000000000000000000000 000000000000000A000000000000000000000000000000000000000000000 000000000000000000000000000000000000000     00000000                                                                                                                        000000000000000000
F0010000008278200005000007904689600013552100000000000000000201602190002001VICTOR MANUEL BOCANEGRA RAMIREZ                   D000000000036000000000000000000000100010010000000000000000000000F0010000008278200520160219000101 00000000000000000000000000000000000000000000000000000000000000000000000000000000000000000000000000000000000000000N 00000000000NCONT   00    00000000000          00000000000000000000000000000000000000000000 000000000000000A000000000000000000000000000000000000000000000 000000000000000000000000000000000000000     00000000                                                                                                                        000000000000000000
F0010000008278300001000007904689600011050500000000000000000201602190002001VICTOR MANUEL BOCANEGRA RAMIREZ                   D000000001000000000000000000000000100010010000000000000000000000F0010000008278300120160219000101 00000000000000000000000000000000000000000000000000000000000000000000000000000000000000000000000000000000000000000N 00000000000NCONT   00    00000000000          00000000000000000000000000000000000000000000 000000000000000A000000000000000000000000000000000000000000000 000000000000000000000000000000000000000     00000000                                                                                                                        000000000000000000
F0010000008278300002000007904689600041450500000000000000000201602190002001VICTOR MANUEL BOCANEGRA RAMIREZ                   C000000000900000000000000000000000100010010000000000000000000000F0010000008278300220160219000101 00000000000000000000000000000000000000000000000000000000000000000000000000000000000000000000000000000000000000000N 00000000000NCONT   00    00000000000          00000000000000000000000000000000000000000000 000000000000000A000000000000000000000000000000000000000000000 000000000000000000000000000000000000000     00000000                                                                                                                        000000000000000000
F0010000008278300003000007904689600042505000000000000000000201602190002001VICTOR MANUEL BOCANEGRA RAMIREZ                   C000000000100000000000000000000000100010010000000000000000000000F0010000008278300320160219000101 00000000000000000000000000000000000000000000000000000000000000000000000000000000000000000000000000000000000000000N 00000000000NCONT   00    00000000000          00000000000000000000000000000000000000000000 000000000000000A000000000000000000000000000000000000000000000 000000000000000000000000000000000000000     00000000                                                                                                                        000000000000000000
F0010000008278300004000007904689600023658300000000000000000201602190002001VICTOR MANUEL BOCANEGRA RAMIREZ                   C000000000007200000000000000000000100010010000000000000000000000F0010000008278300420160219000101 00000000000000000000000000000000000000000000000000000000000000000000000000000000000000000000000000000000000000000N 00000000000NCONT   00    00000000000          00000000000000000000000000000000000000000000 000000000000000A000000000000000000000000000000000000000000000 000000000000000000000000000000000000000     00000000                                                                                                                        000000000000000000
F0010000008278300005000007904689600013552100000000000000000201602190002001VICTOR MANUEL BOCANEGRA RAMIREZ                   D000000000007200000000000000000000100010010000000000000000000000F0010000008278300520160219000101 00000000000000000000000000000000000000000000000000000000000000000000000000000000000000000000000000000000000000000N 00000000000NCONT   00    00000000000          00000000000000000000000000000000000000000000 000000000000000A000000000000000000000000000000000000000000000 000000000000000000000000000000000000000     00000000                                                                                                                        000000000000000000
F0010000008278400001000080023327700011050500000000000000000201602190002001DISINCO LTDA                                      D000000002000000000000000000000000100010010000000000000000000000F0010000008278400120160219000101 00000000000000000000000000000000000000000000000000000000000000000000000000000000000000000000000000000000000000000N 00000000000NCONT   00    00000000000          00000000000000000000000000000000000000000000 000000000000000A000000000000000000000000000000000000000000000 000000000000000000000000000000000000000     00000000                                                                                                                        000000000000000000
F0010000008278400002000080023327700041450500000000000000000201602190002001DISINCO LTDA                                      C000000001900000000000000000000000100010010000000000000000000000F0010000008278400220160219000101 00000000000000000000000000000000000000000000000000000000000000000000000000000000000000000000000000000000000000000N 00000000000NCONT   00    00000000000          00000000000000000000000000000000000000000000 000000000000000A000000000000000000000000000000000000000000000 000000000000000000000000000000000000000     00000000                                                                                                                        000000000000000000
F0010000008278400003000080023327700042505000000000000000000201602190002001DISINCO LTDA                                      C000000000100000000000000000000000100010010000000000000000000000F0010000008278400320160219000101 00000000000000000000000000000000000000000000000000000000000000000000000000000000000000000000000000000000000000000N 00000000000NCONT   00    00000000000          00000000000000000000000000000000000000000000 000000000000000A000000000000000000000000000000000000000000000 000000000000000000000000000000000000000     00000000                                                                                                                        000000000000000000
F0010000008278400004000080023327700023658300000000000000000201602190002001DISINCO LTDA                                      C000000000015200000000000000000000100010010000000000000000000000F0010000008278400420160219000101 00000000000000000000000000000000000000000000000000000000000000000000000000000000000000000000000000000000000000000N 00000000000NCONT   00    00000000000          00000000000000000000000000000000000000000000 000000000000000A000000000000000000000000000000000000000000000 000000000000000000000000000000000000000     00000000                                                                                                                        000000000000000000
F0010000008278400005000080023327700013552100000000000000000201602190002001DISINCO LTDA                                      D000000000015200000000000000000000100010010000000000000000000000F0010000008278400520160219000101 00000000000000000000000000000000000000000000000000000000000000000000000000000000000000000000000000000000000000000N 00000000000NCONT   00    00000000000          00000000000000000000000000000000000000000000 000000000000000A000000000000000000000000000000000000000000000 000000000000000000000000000000000000000     00000000                                                                                                                        000000000000000000
F0010000008278500001000080201703900011050500000000000000000201602190002001MUNDIAL CHEMICAL LTDA                             D000000004430000000000000000000000100010010000000000000000000000F0010000008278500120160219000101 00000000000000000000000000000000000000000000000000000000000000000000000000000000000000000000000000000000000000000N 00000000000NCONT   00    00000000000          00000000000000000000000000000000000000000000 000000000000000A000000000000000000000000000000000000000000000 000000000000000000000000000000000000000     00000000                                                                                                                        000000000000000000
F0010000008278500002000080201703900041450500000000000000000201602190002001MUNDIAL CHEMICAL LTDA                             C000000003680000000000000000000000100010010000000000000000000000F0010000008278500220160219000101 00000000000000000000000000000000000000000000000000000000000000000000000000000000000000000000000000000000000000000N 00000000000NCONT   00    00000000000          00000000000000000000000000000000000000000000 000000000000000A000000000000000000000000000000000000000000000 000000000000000000000000000000000000000     00000000                                                                                                                        000000000000000000
F0010000008278500003000080201703900042505000000000000000000201602190002001MUNDIAL CHEMICAL LTDA                             C000000000750000000000000000000000100010010000000000000000000000F0010000008278500320160219000101 00000000000000000000000000000000000000000000000000000000000000000000000000000000000000000000000000000000000000000N 00000000000NCONT   00    00000000000          00000000000000000000000000000000000000000000 000000000000000A000000000000000000000000000000000000000000000 000000000000000000000000000000000000000     00000000                                                                                                                        000000000000000000
F0010000008278500004000080201703900023658300000000000000000201602190002001MUNDIAL CHEMICAL LTDA                             C000000000029400000000000000000000100010010000000000000000000000F0010000008278500420160219000101 00000000000000000000000000000000000000000000000000000000000000000000000000000000000000000000000000000000000000000N 00000000000NCONT   00    00000000000          00000000000000000000000000000000000000000000 000000000000000A000000000000000000000000000000000000000000000 000000000000000000000000000000000000000     00000000                                                                                                                        000000000000000000
F0010000008278500005000080201703900013552100000000000000000201602190002001MUNDIAL CHEMICAL LTDA                             D000000000029400000000000000000000100010010000000000000000000000F0010000008278500520160219000101 00000000000000000000000000000000000000000000000000000000000000000000000000000000000000000000000000000000000000000N 00000000000NCONT   00    00000000000          00000000000000000000000000000000000000000000 000000000000000A000000000000000000000000000000000000000000000 000000000000000000000000000000000000000     00000000                                                                                                                        000000000000000000
F0010000008278600001000090034602400011050500000000000000000201602190002001PRODUCTOS NACIONALES PARAFINICOS LA CUSTODIA S.A.SD000000001000000000000000000000000100010010000000000000000000000F0010000008278600120160219000101 00000000000000000000000000000000000000000000000000000000000000000000000000000000000000000000000000000000000000000N 00000000000NCONT   00    00000000000          00000000000000000000000000000000000000000000 000000000000000A000000000000000000000000000000000000000000000 000000000000000000000000000000000000000     00000000                                                                                                                        000000000000000000
F0010000008278600002000090034602400041450500000000000000000201602190002001PRODUCTOS NACIONALES PARAFINICOS LA CUSTODIA S.A.SC000000000900000000000000000000000100010010000000000000000000000F0010000008278600220160219000101 00000000000000000000000000000000000000000000000000000000000000000000000000000000000000000000000000000000000000000N 00000000000NCONT   00    00000000000          00000000000000000000000000000000000000000000 000000000000000A000000000000000000000000000000000000000000000 000000000000000000000000000000000000000     00000000                                                                                                                        000000000000000000
F0010000008278600003000090034602400042505000000000000000000201602190002001PRODUCTOS NACIONALES PARAFINICOS LA CUSTODIA S.A.SC000000000100000000000000000000000100010010000000000000000000000F0010000008278600320160219000101 00000000000000000000000000000000000000000000000000000000000000000000000000000000000000000000000000000000000000000N 00000000000NCONT   00    00000000000          00000000000000000000000000000000000000000000 000000000000000A000000000000000000000000000000000000000000000 000000000000000000000000000000000000000     00000000                                                                                                                        000000000000000000
F0010000008278600004000090034602400023658300000000000000000201602190002001PRODUCTOS NACIONALES PARAFINICOS LA CUSTODIA S.A.SC000000000007200000000000000000000100010010000000000000000000000F0010000008278600420160219000101 00000000000000000000000000000000000000000000000000000000000000000000000000000000000000000000000000000000000000000N 00000000000NCONT   00    00000000000          00000000000000000000000000000000000000000000 000000000000000A000000000000000000000000000000000000000000000 000000000000000000000000000000000000000     00000000                                                                                                                        000000000000000000
F0010000008278600005000090034602400013552100000000000000000201602190002001PRODUCTOS NACIONALES PARAFINICOS LA CUSTODIA S.A.SD000000000007200000000000000000000100010010000000000000000000000F0010000008278600520160219000101 00000000000000000000000000000000000000000000000000000000000000000000000000000000000000000000000000000000000000000N 00000000000NCONT   00    00000000000          00000000000000000000000000000000000000000000 000000000000000A000000000000000000000000000000000000000000000 000000000000000000000000000000000000000     00000000                                                                                                                        000000000000000000
F0010000008278700001000090034602400011050500000000000000000201602190002001PRODUCTOS NACIONALES PARAFINICOS LA CUSTODIA S.A.SD000000001000000000000000000000000100010010000000000000000000000F0010000008278700120160219000101 00000000000000000000000000000000000000000000000000000000000000000000000000000000000000000000000000000000000000000N 00000000000NCONT   00    00000000000          00000000000000000000000000000000000000000000 000000000000000A000000000000000000000000000000000000000000000 000000000000000000000000000000000000000     00000000                                                                                                                        000000000000000000
F0010000008278700002000090034602400041450500000000000000000201602190002001PRODUCTOS NACIONALES PARAFINICOS LA CUSTODIA S.A.SC000000000900000000000000000000000100010010000000000000000000000F0010000008278700220160219000101 00000000000000000000000000000000000000000000000000000000000000000000000000000000000000000000000000000000000000000N 00000000000NCONT   00    00000000000          00000000000000000000000000000000000000000000 000000000000000A000000000000000000000000000000000000000000000 000000000000000000000000000000000000000     00000000                                                                                                                        000000000000000000
F0010000008278700003000090034602400042505000000000000000000201602190002001PRODUCTOS NACIONALES PARAFINICOS LA CUSTODIA S.A.SC000000000100000000000000000000000100010010000000000000000000000F0010000008278700320160219000101 00000000000000000000000000000000000000000000000000000000000000000000000000000000000000000000000000000000000000000N 00000000000NCONT   00    00000000000          00000000000000000000000000000000000000000000 000000000000000A000000000000000000000000000000000000000000000 000000000000000000000000000000000000000     00000000                                                                                                                        000000000000000000
F0010000008278700004000090034602400023658300000000000000000201602190002001PRODUCTOS NACIONALES PARAFINICOS LA CUSTODIA S.A.SC000000000007200000000000000000000100010010000000000000000000000F0010000008278700420160219000101 00000000000000000000000000000000000000000000000000000000000000000000000000000000000000000000000000000000000000000N 00000000000NCONT   00    00000000000          00000000000000000000000000000000000000000000 000000000000000A000000000000000000000000000000000000000000000 000000000000000000000000000000000000000     00000000                                                                                                                        000000000000000000
F0010000008278700005000090034602400013552100000000000000000201602190002001PRODUCTOS NACIONALES PARAFINICOS LA CUSTODIA S.A.SD000000000007200000000000000000000100010010000000000000000000000F0010000008278700520160219000101 00000000000000000000000000000000000000000000000000000000000000000000000000000000000000000000000000000000000000000N 00000000000NCONT   00    00000000000          00000000000000000000000000000000000000000000 000000000000000A000000000000000000000000000000000000000000000 000000000000000000000000000000000000000     00000000                                                                                                                        000000000000000000
F0010000008278800001000090034602400011050500000000000000000201602190002001PRODUCTOS NACIONALES PARAFINICOS LA CUSTODIA S.A.SD000000002000000000000000000000000100010010000000000000000000000F0010000008278800120160219000101 00000000000000000000000000000000000000000000000000000000000000000000000000000000000000000000000000000000000000000N 00000000000NCONT   00    00000000000          00000000000000000000000000000000000000000000 000000000000000A000000000000000000000000000000000000000000000 000000000000000000000000000000000000000     00000000                                                                                                                        000000000000000000
F0010000008278800002000090034602400041450500000000000000000201602190002001PRODUCTOS NACIONALES PARAFINICOS LA CUSTODIA S.A.SC000000001800000000000000000000000100010010000000000000000000000F0010000008278800220160219000101 00000000000000000000000000000000000000000000000000000000000000000000000000000000000000000000000000000000000000000N 00000000000NCONT   00    00000000000          00000000000000000000000000000000000000000000 000000000000000A000000000000000000000000000000000000000000000 000000000000000000000000000000000000000     00000000                                                                                                                        000000000000000000
F0010000008278800003000090034602400042505000000000000000000201602190002001PRODUCTOS NACIONALES PARAFINICOS LA CUSTODIA S.A.SC000000000200000000000000000000000100010010000000000000000000000F0010000008278800320160219000101 00000000000000000000000000000000000000000000000000000000000000000000000000000000000000000000000000000000000000000N 00000000000NCONT   00    00000000000          00000000000000000000000000000000000000000000 000000000000000A000000000000000000000000000000000000000000000 000000000000000000000000000000000000000     00000000                                                                                                                        000000000000000000
F0010000008278800004000090034602400023658300000000000000000201602190002001PRODUCTOS NACIONALES PARAFINICOS LA CUSTODIA S.A.SC000000000014400000000000000000000100010010000000000000000000000F0010000008278800420160219000101 00000000000000000000000000000000000000000000000000000000000000000000000000000000000000000000000000000000000000000N 00000000000NCONT   00    00000000000          00000000000000000000000000000000000000000000 000000000000000A000000000000000000000000000000000000000000000 000000000000000000000000000000000000000     00000000                                                                                                                        000000000000000000
F0010000008278800005000090034602400013552100000000000000000201602190002001PRODUCTOS NACIONALES PARAFINICOS LA CUSTODIA S.A.SD000000000014400000000000000000000100010010000000000000000000000F0010000008278800520160219000101 00000000000000000000000000000000000000000000000000000000000000000000000000000000000000000000000000000000000000000N 00000000000NCONT   00    00000000000          00000000000000000000000000000000000000000000 000000000000000A000000000000000000000000000000000000000000000 000000000000000000000000000000000000000     00000000                                                                                                                        000000000000000000
F0010000008278900001000000870907300011050500000000000000000201602190002001SURTIDOR FERRETERO                                D000000001100000000000000000000000100010010000000000000000000000F0010000008278900120160219000101 00000000000000000000000000000000000000000000000000000000000000000000000000000000000000000000000000000000000000000N 00000000000NCONT   00    00000000000          00000000000000000000000000000000000000000000 000000000000000A000000000000000000000000000000000000000000000 000000000000000000000000000000000000000     00000000                                                                                                                        000000000000000000
F0010000008278900002000000870907300041450500000000000000000201602190002001SURTIDOR FERRETERO                                C000000000800000000000000000000000100010010000000000000000000000F0010000008278900220160219000101 00000000000000000000000000000000000000000000000000000000000000000000000000000000000000000000000000000000000000000N 00000000000NCONT   00    00000000000          00000000000000000000000000000000000000000000 000000000000000A000000000000000000000000000000000000000000000 000000000000000000000000000000000000000     00000000                                                                                                                        000000000000000000
F0010000008278900003000000870907300042505000000000000000000201602190002001SURTIDOR FERRETERO                                C000000000300000000000000000000000100010010000000000000000000000F0010000008278900320160219000101 00000000000000000000000000000000000000000000000000000000000000000000000000000000000000000000000000000000000000000N 00000000000NCONT   00    00000000000          00000000000000000000000000000000000000000000 000000000000000A000000000000000000000000000000000000000000000 000000000000000000000000000000000000000     00000000                                                                                                                        000000000000000000
F0010000008278900004000000870907300023658300000000000000000201602190002001SURTIDOR FERRETERO                                C000000000006400000000000000000000100010010000000000000000000000F0010000008278900420160219000101 00000000000000000000000000000000000000000000000000000000000000000000000000000000000000000000000000000000000000000N 00000000000NCONT   00    00000000000          00000000000000000000000000000000000000000000 000000000000000A000000000000000000000000000000000000000000000 000000000000000000000000000000000000000     00000000                                                                                                                        000000000000000000
F0010000008278900005000000870907300013552100000000000000000201602190002001SURTIDOR FERRETERO                                D000000000006400000000000000000000100010010000000000000000000000F0010000008278900520160219000101 00000000000000000000000000000000000000000000000000000000000000000000000000000000000000000000000000000000000000000N 00000000000NCONT   00    00000000000          00000000000000000000000000000000000000000000 000000000000000A000000000000000000000000000000000000000000000 000000000000000000000000000000000000000     00000000                                                                                                                        000000000000000000
F0010000008279000001000089011069100011050500000000000000000201602190002001LA CASA DE LAS ALFOMBRAS LTDA                     D000000001500000000000000000000000100010010000000000000000000000F0010000008279000120160219000101 00000000000000000000000000000000000000000000000000000000000000000000000000000000000000000000000000000000000000000N 00000000000NCONT   00    00000000000          00000000000000000000000000000000000000000000 000000000000000A000000000000000000000000000000000000000000000 000000000000000000000000000000000000000     00000000                                                                                                                        000000000000000000
F0010000008279000002000089011069100041450500000000000000000201602190002001LA CASA DE LAS ALFOMBRAS LTDA                     C000000001100000000000000000000000100010010000000000000000000000F0010000008279000220160219000101 00000000000000000000000000000000000000000000000000000000000000000000000000000000000000000000000000000000000000000N 00000000000NCONT   00    00000000000          00000000000000000000000000000000000000000000 000000000000000A000000000000000000000000000000000000000000000 000000000000000000000000000000000000000     00000000                                                                                                                        000000000000000000
F0010000008279000003000089011069100042505000000000000000000201602190002001LA CASA DE LAS ALFOMBRAS LTDA                     C000000000400000000000000000000000100010010000000000000000000000F0010000008279000320160219000101 00000000000000000000000000000000000000000000000000000000000000000000000000000000000000000000000000000000000000000N 00000000000NCONT   00    00000000000          00000000000000000000000000000000000000000000 000000000000000A000000000000000000000000000000000000000000000 000000000000000000000000000000000000000     00000000                                                                                                                        000000000000000000
F0010000008279000004000089011069100023658300000000000000000201602190002001LA CASA DE LAS ALFOMBRAS LTDA                     C000000000008800000000000000000000100010010000000000000000000000F0010000008279000420160219000101 00000000000000000000000000000000000000000000000000000000000000000000000000000000000000000000000000000000000000000N 00000000000NCONT   00    00000000000          00000000000000000000000000000000000000000000 000000000000000A000000000000000000000000000000000000000000000 000000000000000000000000000000000000000     00000000                                                                                                                        000000000000000000
F0010000008279000005000089011069100013552100000000000000000201602190002001LA CASA DE LAS ALFOMBRAS LTDA                     D000000000008800000000000000000000100010010000000000000000000000F0010000008279000520160219000101 00000000000000000000000000000000000000000000000000000000000000000000000000000000000000000000000000000000000000000N 00000000000NCONT   00    00000000000          00000000000000000000000000000000000000000000 000000000000000A000000000000000000000000000000000000000000000 000000000000000000000000000000000000000     00000000                                                                                                                        000000000000000000
F0010000008279100001000090041529500011050500000000000000000201602190002001EME IMPORTACIONES ELECTRICA                       D000000002410000000000000000000000100010010000000000000000000000F0010000008279100120160219000101 00000000000000000000000000000000000000000000000000000000000000000000000000000000000000000000000000000000000000000N 00000000000NCONT   00    00000000000          00000000000000000000000000000000000000000000 000000000000000A000000000000000000000000000000000000000000000 000000000000000000000000000000000000000     00000000                                                                                                                        000000000000000000
F0010000008279100002000090041529500041450500000000000000000201602190002001EME IMPORTACIONES ELECTRICA                       C000000002160000000000000000000000100010010000000000000000000000F0010000008279100220160219000101 00000000000000000000000000000000000000000000000000000000000000000000000000000000000000000000000000000000000000000N 00000000000NCONT   00    00000000000          00000000000000000000000000000000000000000000 000000000000000A000000000000000000000000000000000000000000000 000000000000000000000000000000000000000     00000000                                                                                                                        000000000000000000
F0010000008279100003000090041529500042505000000000000000000201602190002001EME IMPORTACIONES ELECTRICA                       C000000000250000000000000000000000100010010000000000000000000000F0010000008279100320160219000101 00000000000000000000000000000000000000000000000000000000000000000000000000000000000000000000000000000000000000000N 00000000000NCONT   00    00000000000          00000000000000000000000000000000000000000000 000000000000000A000000000000000000000000000000000000000000000 000000000000000000000000000000000000000     00000000                                                                                                                        000000000000000000
F0010000008279100004000090041529500023658300000000000000000201602190002001EME IMPORTACIONES ELECTRICA                       C000000000017300000000000000000000100010010000000000000000000000F0010000008279100420160219000101 00000000000000000000000000000000000000000000000000000000000000000000000000000000000000000000000000000000000000000N 00000000000NCONT   00    00000000000          00000000000000000000000000000000000000000000 000000000000000A000000000000000000000000000000000000000000000 000000000000000000000000000000000000000     00000000                                                                                                                        000000000000000000
F0010000008279100005000090041529500013552100000000000000000201602190002001EME IMPORTACIONES ELECTRICA                       D000000000017300000000000000000000100010010000000000000000000000F0010000008279100520160219000101 00000000000000000000000000000000000000000000000000000000000000000000000000000000000000000000000000000000000000000N 00000000000NCONT   00    00000000000          00000000000000000000000000000000000000000000 000000000000000A000000000000000000000000000000000000000000000 000000000000000000000000000000000000000     00000000                                                                                                                        000000000000000000
