F0010000009765700001000090072516300011050500000000000000000201702070002001COMERCIALIZADORA GARCIA Y MELENDEZ                D000000003000000000000000000000000100010010000000000000000000000F0010000009765700120170207000101 00000000000000000000000000000000000000000000000000000000000000000000000000000000000000000000000000000000000000000N 00000000000NCONT   00    00000000000          00000000000000000000000000000000000000000000 000000000000000A000000000000000000000000000000000000000000000 000000000000000000000000000000000000000     00000000                                                                                                                        000000000000000000
F0010000009765700002000090072516300041450500000000000000000201702070002001COMERCIALIZADORA GARCIA Y MELENDEZ                C000000002500000000000000000000000100010010000000000000000000000F0010000009765700220170207000101 00000000000000000000000000000000000000000000000000000000000000000000000000000000000000000000000000000000000000000N 00000000000NCONT   00    00000000000          00000000000000000000000000000000000000000000 000000000000000A000000000000000000000000000000000000000000000 000000000000000000000000000000000000000     00000000                                                                                                                        000000000000000000
F0010000009765700003000090072516300042505000000000000000000201702070002001COMERCIALIZADORA GARCIA Y MELENDEZ                C000000000500000000000000000000000100010010000000000000000000000F0010000009765700320170207000101 00000000000000000000000000000000000000000000000000000000000000000000000000000000000000000000000000000000000000000N 00000000000NCONT   00    00000000000          00000000000000000000000000000000000000000000 000000000000000A000000000000000000000000000000000000000000000 000000000000000000000000000000000000000     00000000                                                                                                                        000000000000000000
F0010000009765700004000090072516300023658300000000000000000201702070002001COMERCIALIZADORA GARCIA Y MELENDEZ                C000000000020000000000000000000000100010010000000000000000000000F0010000009765700420170207000101 00000000000000000000000000000000000000000000000000000000000000000000000000000000000000000000000000000000000000000N 00000000000NCONT   00    00000000000          00000000000000000000000000000000000000000000 000000000000000A000000000000000000000000000000000000000000000 000000000000000000000000000000000000000     00000000                                                                                                                        000000000000000000
F0010000009765700005000090072516300013552100000000000000000201702070002001COMERCIALIZADORA GARCIA Y MELENDEZ                D000000000020000000000000000000000100010010000000000000000000000F0010000009765700520170207000101 00000000000000000000000000000000000000000000000000000000000000000000000000000000000000000000000000000000000000000N 00000000000NCONT   00    00000000000          00000000000000000000000000000000000000000000 000000000000000A000000000000000000000000000000000000000000000 000000000000000000000000000000000000000     00000000                                                                                                                        000000000000000000
F0010000009765800001000104442469100011050500000000000000000201702070002001ALESSANDRA DE BIASE CELIS                         D000000001050000000000000000000000100010010000000000000000000000F0010000009765800120170207000101 00000000000000000000000000000000000000000000000000000000000000000000000000000000000000000000000000000000000000000N 00000000000NCONT   00    00000000000          00000000000000000000000000000000000000000000 000000000000000A000000000000000000000000000000000000000000000 000000000000000000000000000000000000000     00000000                                                                                                                        000000000000000000
F0010000009765800002000104442469100041450500000000000000000201702070002001ALESSANDRA DE BIASE CELIS                         C000000000950000000000000000000000100010010000000000000000000000F0010000009765800220170207000101 00000000000000000000000000000000000000000000000000000000000000000000000000000000000000000000000000000000000000000N 00000000000NCONT   00    00000000000          00000000000000000000000000000000000000000000 000000000000000A000000000000000000000000000000000000000000000 000000000000000000000000000000000000000     00000000                                                                                                                        000000000000000000
F0010000009765800003000104442469100042505000000000000000000201702070002001ALESSANDRA DE BIASE CELIS                         C000000000100000000000000000000000100010010000000000000000000000F0010000009765800320170207000101 00000000000000000000000000000000000000000000000000000000000000000000000000000000000000000000000000000000000000000N 00000000000NCONT   00    00000000000          00000000000000000000000000000000000000000000 000000000000000A000000000000000000000000000000000000000000000 000000000000000000000000000000000000000     00000000                                                                                                                        000000000000000000
F0010000009765800004000104442469100023658300000000000000000201702070002001ALESSANDRA DE BIASE CELIS                         C000000000007600000000000000000000100010010000000000000000000000F0010000009765800420170207000101 00000000000000000000000000000000000000000000000000000000000000000000000000000000000000000000000000000000000000000N 00000000000NCONT   00    00000000000          00000000000000000000000000000000000000000000 000000000000000A000000000000000000000000000000000000000000000 000000000000000000000000000000000000000     00000000                                                                                                                        000000000000000000
F0010000009765800005000104442469100013552100000000000000000201702070002001ALESSANDRA DE BIASE CELIS                         D000000000007600000000000000000000100010010000000000000000000000F0010000009765800520170207000101 00000000000000000000000000000000000000000000000000000000000000000000000000000000000000000000000000000000000000000N 00000000000NCONT   00    00000000000          00000000000000000000000000000000000000000000 000000000000000A000000000000000000000000000000000000000000000 000000000000000000000000000000000000000     00000000                                                                                                                        000000000000000000
F0010000009765900001000086053108300011050500000000000000000201702070002001EL PALACIO DEL ALUMINIO  LTDA                     D000000035000000000000000000000000100010010000000000000000000000F0010000009765900120170207000101 00000000000000000000000000000000000000000000000000000000000000000000000000000000000000000000000000000000000000000N 00000000000NCONT   00    00000000000          00000000000000000000000000000000000000000000 000000000000000A000000000000000000000000000000000000000000000 000000000000000000000000000000000000000     00000000                                                                                                                        000000000000000000
F0010000009765900002000086053108300041450500000000000000000201702070002001EL PALACIO DEL ALUMINIO  LTDA                     C000000032000000000000000000000000100010010000000000000000000000F0010000009765900220170207000101 00000000000000000000000000000000000000000000000000000000000000000000000000000000000000000000000000000000000000000N 00000000000NCONT   00    00000000000          00000000000000000000000000000000000000000000 000000000000000A000000000000000000000000000000000000000000000 000000000000000000000000000000000000000     00000000                                                                                                                        000000000000000000
F0010000009765900003000086053108300042505000000000000000000201702070002001EL PALACIO DEL ALUMINIO  LTDA                     C000000003000000000000000000000000100010010000000000000000000000F0010000009765900320170207000101 00000000000000000000000000000000000000000000000000000000000000000000000000000000000000000000000000000000000000000N 00000000000NCONT   00    00000000000          00000000000000000000000000000000000000000000 000000000000000A000000000000000000000000000000000000000000000 000000000000000000000000000000000000000     00000000                                                                                                                        000000000000000000
F0010000009765900004000086053108300023658300000000000000000201702070002001EL PALACIO DEL ALUMINIO  LTDA                     C000000000256000000000000000000000100010010000000000000000000000F0010000009765900420170207000101 00000000000000000000000000000000000000000000000000000000000000000000000000000000000000000000000000000000000000000N 00000000000NCONT   00    00000000000          00000000000000000000000000000000000000000000 000000000000000A000000000000000000000000000000000000000000000 000000000000000000000000000000000000000     00000000                                                                                                                        000000000000000000
F0010000009765900005000086053108300013552100000000000000000201702070002001EL PALACIO DEL ALUMINIO  LTDA                     D000000000256000000000000000000000100010010000000000000000000000F0010000009765900520170207000101 00000000000000000000000000000000000000000000000000000000000000000000000000000000000000000000000000000000000000000N 00000000000NCONT   00    00000000000          00000000000000000000000000000000000000000000 000000000000000A000000000000000000000000000000000000000000000 000000000000000000000000000000000000000     00000000                                                                                                                        000000000000000000
F0010000009766000001000086053108300011050500000000000000000201702070002001EL PALACIO DEL ALUMINIO  LTDA                     D000000004600000000000000000000000100010010000000000000000000000F0010000009766000120170207000101 00000000000000000000000000000000000000000000000000000000000000000000000000000000000000000000000000000000000000000N 00000000000NCONT   00    00000000000          00000000000000000000000000000000000000000000 000000000000000A000000000000000000000000000000000000000000000 000000000000000000000000000000000000000     00000000                                                                                                                        000000000000000000
F0010000009766000002000086053108300041450500000000000000000201702070002001EL PALACIO DEL ALUMINIO  LTDA                     C000000004000000000000000000000000100010010000000000000000000000F0010000009766000220170207000101 00000000000000000000000000000000000000000000000000000000000000000000000000000000000000000000000000000000000000000N 00000000000NCONT   00    00000000000          00000000000000000000000000000000000000000000 000000000000000A000000000000000000000000000000000000000000000 000000000000000000000000000000000000000     00000000                                                                                                                        000000000000000000
F0010000009766000003000086053108300042505000000000000000000201702070002001EL PALACIO DEL ALUMINIO  LTDA                     C000000000600000000000000000000000100010010000000000000000000000F0010000009766000320170207000101 00000000000000000000000000000000000000000000000000000000000000000000000000000000000000000000000000000000000000000N 00000000000NCONT   00    00000000000          00000000000000000000000000000000000000000000 000000000000000A000000000000000000000000000000000000000000000 000000000000000000000000000000000000000     00000000                                                                                                                        000000000000000000
F0010000009766000004000086053108300023658300000000000000000201702070002001EL PALACIO DEL ALUMINIO  LTDA                     C000000000032000000000000000000000100010010000000000000000000000F0010000009766000420170207000101 00000000000000000000000000000000000000000000000000000000000000000000000000000000000000000000000000000000000000000N 00000000000NCONT   00    00000000000          00000000000000000000000000000000000000000000 000000000000000A000000000000000000000000000000000000000000000 000000000000000000000000000000000000000     00000000                                                                                                                        000000000000000000
F0010000009766000005000086053108300013552100000000000000000201702070002001EL PALACIO DEL ALUMINIO  LTDA                     D000000000032000000000000000000000100010010000000000000000000000F0010000009766000520170207000101 00000000000000000000000000000000000000000000000000000000000000000000000000000000000000000000000000000000000000000N 00000000000NCONT   00    00000000000          00000000000000000000000000000000000000000000 000000000000000A000000000000000000000000000000000000000000000 000000000000000000000000000000000000000     00000000                                                                                                                        000000000000000000
F0010000009766100001000000856527900011050500000000000000000201702070002001CESAR AUGUSTO MIER BUELVAS                        D000000001100000000000000000000000100010010000000000000000000000F0010000009766100120170207000101 00000000000000000000000000000000000000000000000000000000000000000000000000000000000000000000000000000000000000000N 00000000000NCONT   00    00000000000          00000000000000000000000000000000000000000000 000000000000000A000000000000000000000000000000000000000000000 000000000000000000000000000000000000000     00000000                                                                                                                        000000000000000000
F0010000009766100002000000856527900041450500000000000000000201702070002001CESAR AUGUSTO MIER BUELVAS                        C000000001000000000000000000000000100010010000000000000000000000F0010000009766100220170207000101 00000000000000000000000000000000000000000000000000000000000000000000000000000000000000000000000000000000000000000N 00000000000NCONT   00    00000000000          00000000000000000000000000000000000000000000 000000000000000A000000000000000000000000000000000000000000000 000000000000000000000000000000000000000     00000000                                                                                                                        000000000000000000
F0010000009766100003000000856527900042505000000000000000000201702070002001CESAR AUGUSTO MIER BUELVAS                        C000000000100000000000000000000000100010010000000000000000000000F0010000009766100320170207000101 00000000000000000000000000000000000000000000000000000000000000000000000000000000000000000000000000000000000000000N 00000000000NCONT   00    00000000000          00000000000000000000000000000000000000000000 000000000000000A000000000000000000000000000000000000000000000 000000000000000000000000000000000000000     00000000                                                                                                                        000000000000000000
F0010000009766100004000000856527900023658300000000000000000201702070002001CESAR AUGUSTO MIER BUELVAS                        C000000000008000000000000000000000100010010000000000000000000000F0010000009766100420170207000101 00000000000000000000000000000000000000000000000000000000000000000000000000000000000000000000000000000000000000000N 00000000000NCONT   00    00000000000          00000000000000000000000000000000000000000000 000000000000000A000000000000000000000000000000000000000000000 000000000000000000000000000000000000000     00000000                                                                                                                        000000000000000000
F0010000009766100005000000856527900013552100000000000000000201702070002001CESAR AUGUSTO MIER BUELVAS                        D000000000008000000000000000000000100010010000000000000000000000F0010000009766100520170207000101 00000000000000000000000000000000000000000000000000000000000000000000000000000000000000000000000000000000000000000N 00000000000NCONT   00    00000000000          00000000000000000000000000000000000000000000 000000000000000A000000000000000000000000000000000000000000000 000000000000000000000000000000000000000     00000000                                                                                                                        000000000000000000
F0010000009766200001000000744496800011050500000000000000000201702070002001TOMAS SANCHEZ                                     D000000002800000000000000000000000100010010000000000000000000000F0010000009766200120170207000101 00000000000000000000000000000000000000000000000000000000000000000000000000000000000000000000000000000000000000000N 00000000000NCONT   00    00000000000          00000000000000000000000000000000000000000000 000000000000000A000000000000000000000000000000000000000000000 000000000000000000000000000000000000000     00000000                                                                                                                        000000000000000000
F0010000009766200002000000744496800041450500000000000000000201702070002001TOMAS SANCHEZ                                     C000000002700000000000000000000000100010010000000000000000000000F0010000009766200220170207000101 00000000000000000000000000000000000000000000000000000000000000000000000000000000000000000000000000000000000000000N 00000000000NCONT   00    00000000000          00000000000000000000000000000000000000000000 000000000000000A000000000000000000000000000000000000000000000 000000000000000000000000000000000000000     00000000                                                                                                                        000000000000000000
F0010000009766200003000000744496800042505000000000000000000201702070002001TOMAS SANCHEZ                                     C000000000100000000000000000000000100010010000000000000000000000F0010000009766200320170207000101 00000000000000000000000000000000000000000000000000000000000000000000000000000000000000000000000000000000000000000N 00000000000NCONT   00    00000000000          00000000000000000000000000000000000000000000 000000000000000A000000000000000000000000000000000000000000000 000000000000000000000000000000000000000     00000000                                                                                                                        000000000000000000
F0010000009766200004000000744496800023658300000000000000000201702070002001TOMAS SANCHEZ                                     C000000000021600000000000000000000100010010000000000000000000000F0010000009766200420170207000101 00000000000000000000000000000000000000000000000000000000000000000000000000000000000000000000000000000000000000000N 00000000000NCONT   00    00000000000          00000000000000000000000000000000000000000000 000000000000000A000000000000000000000000000000000000000000000 000000000000000000000000000000000000000     00000000                                                                                                                        000000000000000000
F0010000009766200005000000744496800013552100000000000000000201702070002001TOMAS SANCHEZ                                     D000000000021600000000000000000000100010010000000000000000000000F0010000009766200520170207000101 00000000000000000000000000000000000000000000000000000000000000000000000000000000000000000000000000000000000000000N 00000000000NCONT   00    00000000000          00000000000000000000000000000000000000000000 000000000000000A000000000000000000000000000000000000000000000 000000000000000000000000000000000000000     00000000                                                                                                                        000000000000000000
F0010000009766300001000000744496800011050500000000000000000201702070002001TOMAS SANCHEZ                                     D000000001000000000000000000000000100010010000000000000000000000F0010000009766300120170207000101 00000000000000000000000000000000000000000000000000000000000000000000000000000000000000000000000000000000000000000N 00000000000NCONT   00    00000000000          00000000000000000000000000000000000000000000 000000000000000A000000000000000000000000000000000000000000000 000000000000000000000000000000000000000     00000000                                                                                                                        000000000000000000
F0010000009766300002000000744496800041450500000000000000000201702070002001TOMAS SANCHEZ                                     C000000000900000000000000000000000100010010000000000000000000000F0010000009766300220170207000101 00000000000000000000000000000000000000000000000000000000000000000000000000000000000000000000000000000000000000000N 00000000000NCONT   00    00000000000          00000000000000000000000000000000000000000000 000000000000000A000000000000000000000000000000000000000000000 000000000000000000000000000000000000000     00000000                                                                                                                        000000000000000000
F0010000009766300003000000744496800042505000000000000000000201702070002001TOMAS SANCHEZ                                     C000000000100000000000000000000000100010010000000000000000000000F0010000009766300320170207000101 00000000000000000000000000000000000000000000000000000000000000000000000000000000000000000000000000000000000000000N 00000000000NCONT   00    00000000000          00000000000000000000000000000000000000000000 000000000000000A000000000000000000000000000000000000000000000 000000000000000000000000000000000000000     00000000                                                                                                                        000000000000000000
F0010000009766300004000000744496800023658300000000000000000201702070002001TOMAS SANCHEZ                                     C000000000007200000000000000000000100010010000000000000000000000F0010000009766300420170207000101 00000000000000000000000000000000000000000000000000000000000000000000000000000000000000000000000000000000000000000N 00000000000NCONT   00    00000000000          00000000000000000000000000000000000000000000 000000000000000A000000000000000000000000000000000000000000000 000000000000000000000000000000000000000     00000000                                                                                                                        000000000000000000
F0010000009766300005000000744496800013552100000000000000000201702070002001TOMAS SANCHEZ                                     D000000000007200000000000000000000100010010000000000000000000000F0010000009766300520170207000101 00000000000000000000000000000000000000000000000000000000000000000000000000000000000000000000000000000000000000000N 00000000000NCONT   00    00000000000          00000000000000000000000000000000000000000000 000000000000000A000000000000000000000000000000000000000000000 000000000000000000000000000000000000000     00000000                                                                                                                        000000000000000000
F0010000009766400001000090063628300011050500000000000000000201702070002001INVERSIONES RADELCA S.A.S.                        D000000009300000000000000000000000100010010000000000000000000000F0010000009766400120170207000101 00000000000000000000000000000000000000000000000000000000000000000000000000000000000000000000000000000000000000000N 00000000000NCONT   00    00000000000          00000000000000000000000000000000000000000000 000000000000000A000000000000000000000000000000000000000000000 000000000000000000000000000000000000000     00000000                                                                                                                        000000000000000000
F0010000009766400002000090063628300041450500000000000000000201702070002001INVERSIONES RADELCA S.A.S.                        C000000007500000000000000000000000100010010000000000000000000000F0010000009766400220170207000101 00000000000000000000000000000000000000000000000000000000000000000000000000000000000000000000000000000000000000000N 00000000000NCONT   00    00000000000          00000000000000000000000000000000000000000000 000000000000000A000000000000000000000000000000000000000000000 000000000000000000000000000000000000000     00000000                                                                                                                        000000000000000000
F0010000009766400003000090063628300042505000000000000000000201702070002001INVERSIONES RADELCA S.A.S.                        C000000001800000000000000000000000100010010000000000000000000000F0010000009766400320170207000101 00000000000000000000000000000000000000000000000000000000000000000000000000000000000000000000000000000000000000000N 00000000000NCONT   00    00000000000          00000000000000000000000000000000000000000000 000000000000000A000000000000000000000000000000000000000000000 000000000000000000000000000000000000000     00000000                                                                                                                        000000000000000000
F0010000009766400004000090063628300023658300000000000000000201702070002001INVERSIONES RADELCA S.A.S.                        C000000000060000000000000000000000100010010000000000000000000000F0010000009766400420170207000101 00000000000000000000000000000000000000000000000000000000000000000000000000000000000000000000000000000000000000000N 00000000000NCONT   00    00000000000          00000000000000000000000000000000000000000000 000000000000000A000000000000000000000000000000000000000000000 000000000000000000000000000000000000000     00000000                                                                                                                        000000000000000000
F0010000009766400005000090063628300013552100000000000000000201702070002001INVERSIONES RADELCA S.A.S.                        D000000000060000000000000000000000100010010000000000000000000000F0010000009766400520170207000101 00000000000000000000000000000000000000000000000000000000000000000000000000000000000000000000000000000000000000000N 00000000000NCONT   00    00000000000          00000000000000000000000000000000000000000000 000000000000000A000000000000000000000000000000000000000000000 000000000000000000000000000000000000000     00000000                                                                                                                        000000000000000000
F0010000009766500001000090063628300011050500000000000000000201702070002001INVERSIONES RADELCA S.A.S.                        D000000005800000000000000000000000100010010000000000000000000000F0010000009766500120170207000101 00000000000000000000000000000000000000000000000000000000000000000000000000000000000000000000000000000000000000000N 00000000000NCONT   00    00000000000          00000000000000000000000000000000000000000000 000000000000000A000000000000000000000000000000000000000000000 000000000000000000000000000000000000000     00000000                                                                                                                        000000000000000000
F0010000009766500002000090063628300041450500000000000000000201702070002001INVERSIONES RADELCA S.A.S.                        C000000005000000000000000000000000100010010000000000000000000000F0010000009766500220170207000101 00000000000000000000000000000000000000000000000000000000000000000000000000000000000000000000000000000000000000000N 00000000000NCONT   00    00000000000          00000000000000000000000000000000000000000000 000000000000000A000000000000000000000000000000000000000000000 000000000000000000000000000000000000000     00000000                                                                                                                        000000000000000000
F0010000009766500003000090063628300042505000000000000000000201702070002001INVERSIONES RADELCA S.A.S.                        C000000000800000000000000000000000100010010000000000000000000000F0010000009766500320170207000101 00000000000000000000000000000000000000000000000000000000000000000000000000000000000000000000000000000000000000000N 00000000000NCONT   00    00000000000          00000000000000000000000000000000000000000000 000000000000000A000000000000000000000000000000000000000000000 000000000000000000000000000000000000000     00000000                                                                                                                        000000000000000000
F0010000009766500004000090063628300023658300000000000000000201702070002001INVERSIONES RADELCA S.A.S.                        C000000000040000000000000000000000100010010000000000000000000000F0010000009766500420170207000101 00000000000000000000000000000000000000000000000000000000000000000000000000000000000000000000000000000000000000000N 00000000000NCONT   00    00000000000          00000000000000000000000000000000000000000000 000000000000000A000000000000000000000000000000000000000000000 000000000000000000000000000000000000000     00000000                                                                                                                        000000000000000000
F0010000009766500005000090063628300013552100000000000000000201702070002001INVERSIONES RADELCA S.A.S.                        D000000000040000000000000000000000100010010000000000000000000000F0010000009766500520170207000101 00000000000000000000000000000000000000000000000000000000000000000000000000000000000000000000000000000000000000000N 00000000000NCONT   00    00000000000          00000000000000000000000000000000000000000000 000000000000000A000000000000000000000000000000000000000000000 000000000000000000000000000000000000000     00000000                                                                                                                        000000000000000000
F0010000009766600001000090063628300011050500000000000000000201702070002001INVERSIONES RADELCA S.A.S.                        D000000017000000000000000000000000100010010000000000000000000000F0010000009766600120170207000101 00000000000000000000000000000000000000000000000000000000000000000000000000000000000000000000000000000000000000000N 00000000000NCONT   00    00000000000          00000000000000000000000000000000000000000000 000000000000000A000000000000000000000000000000000000000000000 000000000000000000000000000000000000000     00000000                                                                                                                        000000000000000000
F0010000009766600002000090063628300041450500000000000000000201702070002001INVERSIONES RADELCA S.A.S.                        C000000015000000000000000000000000100010010000000000000000000000F0010000009766600220170207000101 00000000000000000000000000000000000000000000000000000000000000000000000000000000000000000000000000000000000000000N 00000000000NCONT   00    00000000000          00000000000000000000000000000000000000000000 000000000000000A000000000000000000000000000000000000000000000 000000000000000000000000000000000000000     00000000                                                                                                                        000000000000000000
F0010000009766600003000090063628300042505000000000000000000201702070002001INVERSIONES RADELCA S.A.S.                        C000000002000000000000000000000000100010010000000000000000000000F0010000009766600320170207000101 00000000000000000000000000000000000000000000000000000000000000000000000000000000000000000000000000000000000000000N 00000000000NCONT   00    00000000000          00000000000000000000000000000000000000000000 000000000000000A000000000000000000000000000000000000000000000 000000000000000000000000000000000000000     00000000                                                                                                                        000000000000000000
F0010000009766600004000090063628300023658300000000000000000201702070002001INVERSIONES RADELCA S.A.S.                        C000000000120000000000000000000000100010010000000000000000000000F0010000009766600420170207000101 00000000000000000000000000000000000000000000000000000000000000000000000000000000000000000000000000000000000000000N 00000000000NCONT   00    00000000000          00000000000000000000000000000000000000000000 000000000000000A000000000000000000000000000000000000000000000 000000000000000000000000000000000000000     00000000                                                                                                                        000000000000000000
F0010000009766600005000090063628300013552100000000000000000201702070002001INVERSIONES RADELCA S.A.S.                        D000000000120000000000000000000000100010010000000000000000000000F0010000009766600520170207000101 00000000000000000000000000000000000000000000000000000000000000000000000000000000000000000000000000000000000000000N 00000000000NCONT   00    00000000000          00000000000000000000000000000000000000000000 000000000000000A000000000000000000000000000000000000000000000 000000000000000000000000000000000000000     00000000                                                                                                                        000000000000000000
F0010000009766700001000090091760300011050500000000000000000201702070002001MAX IMPORT                                        D000000014000000000000000000000000100010010000000000000000000000F0010000009766700120170207000101 00000000000000000000000000000000000000000000000000000000000000000000000000000000000000000000000000000000000000000N 00000000000NCONT   00    00000000000          00000000000000000000000000000000000000000000 000000000000000A000000000000000000000000000000000000000000000 000000000000000000000000000000000000000     00000000                                                                                                                        000000000000000000
F0010000009766700002000090091760300041450500000000000000000201702070002001MAX IMPORT                                        C000000013000000000000000000000000100010010000000000000000000000F0010000009766700220170207000101 00000000000000000000000000000000000000000000000000000000000000000000000000000000000000000000000000000000000000000N 00000000000NCONT   00    00000000000          00000000000000000000000000000000000000000000 000000000000000A000000000000000000000000000000000000000000000 000000000000000000000000000000000000000     00000000                                                                                                                        000000000000000000
F0010000009766700003000090091760300042505000000000000000000201702070002001MAX IMPORT                                        C000000001000000000000000000000000100010010000000000000000000000F0010000009766700320170207000101 00000000000000000000000000000000000000000000000000000000000000000000000000000000000000000000000000000000000000000N 00000000000NCONT   00    00000000000          00000000000000000000000000000000000000000000 000000000000000A000000000000000000000000000000000000000000000 000000000000000000000000000000000000000     00000000                                                                                                                        000000000000000000
F0010000009766700004000090091760300023658300000000000000000201702070002001MAX IMPORT                                        C000000000104000000000000000000000100010010000000000000000000000F0010000009766700420170207000101 00000000000000000000000000000000000000000000000000000000000000000000000000000000000000000000000000000000000000000N 00000000000NCONT   00    00000000000          00000000000000000000000000000000000000000000 000000000000000A000000000000000000000000000000000000000000000 000000000000000000000000000000000000000     00000000                                                                                                                        000000000000000000
F0010000009766700005000090091760300013552100000000000000000201702070002001MAX IMPORT                                        D000000000104000000000000000000000100010010000000000000000000000F0010000009766700520170207000101 00000000000000000000000000000000000000000000000000000000000000000000000000000000000000000000000000000000000000000N 00000000000NCONT   00    00000000000          00000000000000000000000000000000000000000000 000000000000000A000000000000000000000000000000000000000000000 000000000000000000000000000000000000000     00000000                                                                                                                        000000000000000000
F0010000009766800001000000869402400011050500000000000000000201702070002001ISRAEL MANGA                                      D000000003200000000000000000000000100010010000000000000000000000F0010000009766800120170207000101 00000000000000000000000000000000000000000000000000000000000000000000000000000000000000000000000000000000000000000N 00000000000NCONT   00    00000000000          00000000000000000000000000000000000000000000 000000000000000A000000000000000000000000000000000000000000000 000000000000000000000000000000000000000     00000000                                                                                                                        000000000000000000
F0010000009766800002000000869402400041450500000000000000000201702070002001ISRAEL MANGA                                      C000000002600000000000000000000000100010010000000000000000000000F0010000009766800220170207000101 00000000000000000000000000000000000000000000000000000000000000000000000000000000000000000000000000000000000000000N 00000000000NCONT   00    00000000000          00000000000000000000000000000000000000000000 000000000000000A000000000000000000000000000000000000000000000 000000000000000000000000000000000000000     00000000                                                                                                                        000000000000000000
F0010000009766800003000000869402400042505000000000000000000201702070002001ISRAEL MANGA                                      C000000000600000000000000000000000100010010000000000000000000000F0010000009766800320170207000101 00000000000000000000000000000000000000000000000000000000000000000000000000000000000000000000000000000000000000000N 00000000000NCONT   00    00000000000          00000000000000000000000000000000000000000000 000000000000000A000000000000000000000000000000000000000000000 000000000000000000000000000000000000000     00000000                                                                                                                        000000000000000000
F0010000009766800004000000869402400023658300000000000000000201702070002001ISRAEL MANGA                                      C000000000020800000000000000000000100010010000000000000000000000F0010000009766800420170207000101 00000000000000000000000000000000000000000000000000000000000000000000000000000000000000000000000000000000000000000N 00000000000NCONT   00    00000000000          00000000000000000000000000000000000000000000 000000000000000A000000000000000000000000000000000000000000000 000000000000000000000000000000000000000     00000000                                                                                                                        000000000000000000
F0010000009766800005000000869402400013552100000000000000000201702070002001ISRAEL MANGA                                      D000000000020800000000000000000000100010010000000000000000000000F0010000009766800520170207000101 00000000000000000000000000000000000000000000000000000000000000000000000000000000000000000000000000000000000000000N 00000000000NCONT   00    00000000000          00000000000000000000000000000000000000000000 000000000000000A000000000000000000000000000000000000000000000 000000000000000000000000000000000000000     00000000                                                                                                                        000000000000000000
F0010000009766900001000000431178400011050500000000000000000201702070002001EFRAIN ALVAREZ                                    D000000002140000000000000000000000100010010000000000000000000000F0010000009766900120170207000101 00000000000000000000000000000000000000000000000000000000000000000000000000000000000000000000000000000000000000000N 00000000000NCONT   00    00000000000          00000000000000000000000000000000000000000000 000000000000000A000000000000000000000000000000000000000000000 000000000000000000000000000000000000000     00000000                                                                                                                        000000000000000000
F0010000009766900002000000431178400041450500000000000000000201702070002001EFRAIN ALVAREZ                                    C000000001840000000000000000000000100010010000000000000000000000F0010000009766900220170207000101 00000000000000000000000000000000000000000000000000000000000000000000000000000000000000000000000000000000000000000N 00000000000NCONT   00    00000000000          00000000000000000000000000000000000000000000 000000000000000A000000000000000000000000000000000000000000000 000000000000000000000000000000000000000     00000000                                                                                                                        000000000000000000
F0010000009766900003000000431178400042505000000000000000000201702070002001EFRAIN ALVAREZ                                    C000000000300000000000000000000000100010010000000000000000000000F0010000009766900320170207000101 00000000000000000000000000000000000000000000000000000000000000000000000000000000000000000000000000000000000000000N 00000000000NCONT   00    00000000000          00000000000000000000000000000000000000000000 000000000000000A000000000000000000000000000000000000000000000 000000000000000000000000000000000000000     00000000                                                                                                                        000000000000000000
F0010000009766900004000000431178400023658300000000000000000201702070002001EFRAIN ALVAREZ                                    C000000000014700000000000000000000100010010000000000000000000000F0010000009766900420170207000101 00000000000000000000000000000000000000000000000000000000000000000000000000000000000000000000000000000000000000000N 00000000000NCONT   00    00000000000          00000000000000000000000000000000000000000000 000000000000000A000000000000000000000000000000000000000000000 000000000000000000000000000000000000000     00000000                                                                                                                        000000000000000000
F0010000009766900005000000431178400013552100000000000000000201702070002001EFRAIN ALVAREZ                                    D000000000014700000000000000000000100010010000000000000000000000F0010000009766900520170207000101 00000000000000000000000000000000000000000000000000000000000000000000000000000000000000000000000000000000000000000N 00000000000NCONT   00    00000000000          00000000000000000000000000000000000000000000 000000000000000A000000000000000000000000000000000000000000000 000000000000000000000000000000000000000     00000000                                                                                                                        000000000000000000
F0010000009767000001000000431178400011050500000000000000000201702070002001EFRAIN ALVAREZ                                    D000000001940000000000000000000000100010010000000000000000000000F0010000009767000120170207000101 00000000000000000000000000000000000000000000000000000000000000000000000000000000000000000000000000000000000000000N 00000000000NCONT   00    00000000000          00000000000000000000000000000000000000000000 000000000000000A000000000000000000000000000000000000000000000 000000000000000000000000000000000000000     00000000                                                                                                                        000000000000000000
F0010000009767000002000000431178400041450500000000000000000201702070002001EFRAIN ALVAREZ                                    C000000001840000000000000000000000100010010000000000000000000000F0010000009767000220170207000101 00000000000000000000000000000000000000000000000000000000000000000000000000000000000000000000000000000000000000000N 00000000000NCONT   00    00000000000          00000000000000000000000000000000000000000000 000000000000000A000000000000000000000000000000000000000000000 000000000000000000000000000000000000000     00000000                                                                                                                        000000000000000000
F0010000009767000003000000431178400042505000000000000000000201702070002001EFRAIN ALVAREZ                                    C000000000100000000000000000000000100010010000000000000000000000F0010000009767000320170207000101 00000000000000000000000000000000000000000000000000000000000000000000000000000000000000000000000000000000000000000N 00000000000NCONT   00    00000000000          00000000000000000000000000000000000000000000 000000000000000A000000000000000000000000000000000000000000000 000000000000000000000000000000000000000     00000000                                                                                                                        000000000000000000
F0010000009767000004000000431178400023658300000000000000000201702070002001EFRAIN ALVAREZ                                    C000000000014700000000000000000000100010010000000000000000000000F0010000009767000420170207000101 00000000000000000000000000000000000000000000000000000000000000000000000000000000000000000000000000000000000000000N 00000000000NCONT   00    00000000000          00000000000000000000000000000000000000000000 000000000000000A000000000000000000000000000000000000000000000 000000000000000000000000000000000000000     00000000                                                                                                                        000000000000000000
F0010000009767000005000000431178400013552100000000000000000201702070002001EFRAIN ALVAREZ                                    D000000000014700000000000000000000100010010000000000000000000000F0010000009767000520170207000101 00000000000000000000000000000000000000000000000000000000000000000000000000000000000000000000000000000000000000000N 00000000000NCONT   00    00000000000          00000000000000000000000000000000000000000000 000000000000000A000000000000000000000000000000000000000000000 000000000000000000000000000000000000000     00000000                                                                                                                        000000000000000000
F0010000009767100001000000431178400011050500000000000000000201702070002001EFRAIN ALVAREZ                                    D000000004060000000000000000000000100010010000000000000000000000F0010000009767100120170207000101 00000000000000000000000000000000000000000000000000000000000000000000000000000000000000000000000000000000000000000N 00000000000NCONT   00    00000000000          00000000000000000000000000000000000000000000 000000000000000A000000000000000000000000000000000000000000000 000000000000000000000000000000000000000     00000000                                                                                                                        000000000000000000
F0010000009767100002000000431178400041450500000000000000000201702070002001EFRAIN ALVAREZ                                    C000000003860000000000000000000000100010010000000000000000000000F0010000009767100220170207000101 00000000000000000000000000000000000000000000000000000000000000000000000000000000000000000000000000000000000000000N 00000000000NCONT   00    00000000000          00000000000000000000000000000000000000000000 000000000000000A000000000000000000000000000000000000000000000 000000000000000000000000000000000000000     00000000                                                                                                                        000000000000000000
F0010000009767100003000000431178400042505000000000000000000201702070002001EFRAIN ALVAREZ                                    C000000000200000000000000000000000100010010000000000000000000000F0010000009767100320170207000101 00000000000000000000000000000000000000000000000000000000000000000000000000000000000000000000000000000000000000000N 00000000000NCONT   00    00000000000          00000000000000000000000000000000000000000000 000000000000000A000000000000000000000000000000000000000000000 000000000000000000000000000000000000000     00000000                                                                                                                        000000000000000000
F0010000009767100004000000431178400023658300000000000000000201702070002001EFRAIN ALVAREZ                                    C000000000030900000000000000000000100010010000000000000000000000F0010000009767100420170207000101 00000000000000000000000000000000000000000000000000000000000000000000000000000000000000000000000000000000000000000N 00000000000NCONT   00    00000000000          00000000000000000000000000000000000000000000 000000000000000A000000000000000000000000000000000000000000000 000000000000000000000000000000000000000     00000000                                                                                                                        000000000000000000
F0010000009767100005000000431178400013552100000000000000000201702070002001EFRAIN ALVAREZ                                    D000000000030900000000000000000000100010010000000000000000000000F0010000009767100520170207000101 00000000000000000000000000000000000000000000000000000000000000000000000000000000000000000000000000000000000000000N 00000000000NCONT   00    00000000000          00000000000000000000000000000000000000000000 000000000000000A000000000000000000000000000000000000000000000 000000000000000000000000000000000000000     00000000                                                                                                                        000000000000000000
F0010000009767200001000000431178400011050500000000000000000201702070002001EFRAIN ALVAREZ                                    D000000003935000000000000000000000100010010000000000000000000000F0010000009767200120170207000101 00000000000000000000000000000000000000000000000000000000000000000000000000000000000000000000000000000000000000000N 00000000000NCONT   00    00000000000          00000000000000000000000000000000000000000000 000000000000000A000000000000000000000000000000000000000000000 000000000000000000000000000000000000000     00000000                                                                                                                        000000000000000000
F0010000009767200002000000431178400041450500000000000000000201702070002001EFRAIN ALVAREZ                                    C000000003860000000000000000000000100010010000000000000000000000F0010000009767200220170207000101 00000000000000000000000000000000000000000000000000000000000000000000000000000000000000000000000000000000000000000N 00000000000NCONT   00    00000000000          00000000000000000000000000000000000000000000 000000000000000A000000000000000000000000000000000000000000000 000000000000000000000000000000000000000     00000000                                                                                                                        000000000000000000
F0010000009767200003000000431178400042505000000000000000000201702070002001EFRAIN ALVAREZ                                    C000000000075000000000000000000000100010010000000000000000000000F0010000009767200320170207000101 00000000000000000000000000000000000000000000000000000000000000000000000000000000000000000000000000000000000000000N 00000000000NCONT   00    00000000000          00000000000000000000000000000000000000000000 000000000000000A000000000000000000000000000000000000000000000 000000000000000000000000000000000000000     00000000                                                                                                                        000000000000000000
F0010000009767200004000000431178400023658300000000000000000201702070002001EFRAIN ALVAREZ                                    C000000000030900000000000000000000100010010000000000000000000000F0010000009767200420170207000101 00000000000000000000000000000000000000000000000000000000000000000000000000000000000000000000000000000000000000000N 00000000000NCONT   00    00000000000          00000000000000000000000000000000000000000000 000000000000000A000000000000000000000000000000000000000000000 000000000000000000000000000000000000000     00000000                                                                                                                        000000000000000000
F0010000009767200005000000431178400013552100000000000000000201702070002001EFRAIN ALVAREZ                                    D000000000030900000000000000000000100010010000000000000000000000F0010000009767200520170207000101 00000000000000000000000000000000000000000000000000000000000000000000000000000000000000000000000000000000000000000N 00000000000NCONT   00    00000000000          00000000000000000000000000000000000000000000 000000000000000A000000000000000000000000000000000000000000000 000000000000000000000000000000000000000     00000000                                                                                                                        000000000000000000
F0010000009767300001000000431178400011050500000000000000000201702070002001EFRAIN ALVAREZ                                    D000000001220000000000000000000000100010010000000000000000000000F0010000009767300120170207000101 00000000000000000000000000000000000000000000000000000000000000000000000000000000000000000000000000000000000000000N 00000000000NCONT   00    00000000000          00000000000000000000000000000000000000000000 000000000000000A000000000000000000000000000000000000000000000 000000000000000000000000000000000000000     00000000                                                                                                                        000000000000000000
F0010000009767300002000000431178400041450500000000000000000201702070002001EFRAIN ALVAREZ                                    C000000000920000000000000000000000100010010000000000000000000000F0010000009767300220170207000101 00000000000000000000000000000000000000000000000000000000000000000000000000000000000000000000000000000000000000000N 00000000000NCONT   00    00000000000          00000000000000000000000000000000000000000000 000000000000000A000000000000000000000000000000000000000000000 000000000000000000000000000000000000000     00000000                                                                                                                        000000000000000000
F0010000009767300003000000431178400042505000000000000000000201702070002001EFRAIN ALVAREZ                                    C000000000300000000000000000000000100010010000000000000000000000F0010000009767300320170207000101 00000000000000000000000000000000000000000000000000000000000000000000000000000000000000000000000000000000000000000N 00000000000NCONT   00    00000000000          00000000000000000000000000000000000000000000 000000000000000A000000000000000000000000000000000000000000000 000000000000000000000000000000000000000     00000000                                                                                                                        000000000000000000
F0010000009767300004000000431178400023658300000000000000000201702070002001EFRAIN ALVAREZ                                    C000000000007400000000000000000000100010010000000000000000000000F0010000009767300420170207000101 00000000000000000000000000000000000000000000000000000000000000000000000000000000000000000000000000000000000000000N 00000000000NCONT   00    00000000000          00000000000000000000000000000000000000000000 000000000000000A000000000000000000000000000000000000000000000 000000000000000000000000000000000000000     00000000                                                                                                                        000000000000000000
F0010000009767300005000000431178400013552100000000000000000201702070002001EFRAIN ALVAREZ                                    D000000000007400000000000000000000100010010000000000000000000000F0010000009767300520170207000101 00000000000000000000000000000000000000000000000000000000000000000000000000000000000000000000000000000000000000000N 00000000000NCONT   00    00000000000          00000000000000000000000000000000000000000000 000000000000000A000000000000000000000000000000000000000000000 000000000000000000000000000000000000000     00000000                                                                                                                        000000000000000000
F0010000009767400001000000431178400011050500000000000000000201702070002001EFRAIN ALVAREZ                                    D000000000460000000000000000000000100010010000000000000000000000F0010000009767400120170207000101 00000000000000000000000000000000000000000000000000000000000000000000000000000000000000000000000000000000000000000N 00000000000NCONT   00    00000000000          00000000000000000000000000000000000000000000 000000000000000A000000000000000000000000000000000000000000000 000000000000000000000000000000000000000     00000000                                                                                                                        000000000000000000
F0010000009767400002000000431178400041450500000000000000000201702070002001EFRAIN ALVAREZ                                    C000000000410000000000000000000000100010010000000000000000000000F0010000009767400220170207000101 00000000000000000000000000000000000000000000000000000000000000000000000000000000000000000000000000000000000000000N 00000000000NCONT   00    00000000000          00000000000000000000000000000000000000000000 000000000000000A000000000000000000000000000000000000000000000 000000000000000000000000000000000000000     00000000                                                                                                                        000000000000000000
F0010000009767400003000000431178400042505000000000000000000201702070002001EFRAIN ALVAREZ                                    C000000000050000000000000000000000100010010000000000000000000000F0010000009767400320170207000101 00000000000000000000000000000000000000000000000000000000000000000000000000000000000000000000000000000000000000000N 00000000000NCONT   00    00000000000          00000000000000000000000000000000000000000000 000000000000000A000000000000000000000000000000000000000000000 000000000000000000000000000000000000000     00000000                                                                                                                        000000000000000000
F0010000009767400004000000431178400023658300000000000000000201702070002001EFRAIN ALVAREZ                                    C000000000003300000000000000000000100010010000000000000000000000F0010000009767400420170207000101 00000000000000000000000000000000000000000000000000000000000000000000000000000000000000000000000000000000000000000N 00000000000NCONT   00    00000000000          00000000000000000000000000000000000000000000 000000000000000A000000000000000000000000000000000000000000000 000000000000000000000000000000000000000     00000000                                                                                                                        000000000000000000
F0010000009767400005000000431178400013552100000000000000000201702070002001EFRAIN ALVAREZ                                    D000000000003300000000000000000000100010010000000000000000000000F0010000009767400520170207000101 00000000000000000000000000000000000000000000000000000000000000000000000000000000000000000000000000000000000000000N 00000000000NCONT   00    00000000000          00000000000000000000000000000000000000000000 000000000000000A000000000000000000000000000000000000000000000 000000000000000000000000000000000000000     00000000                                                                                                                        000000000000000000
F0010000009767500001000000431178400011050500000000000000000201702070002001EFRAIN ALVAREZ                                    D000000001505000000000000000000000100010010000000000000000000000F0010000009767500120170207000101 00000000000000000000000000000000000000000000000000000000000000000000000000000000000000000000000000000000000000000N 00000000000NCONT   00    00000000000          00000000000000000000000000000000000000000000 000000000000000A000000000000000000000000000000000000000000000 000000000000000000000000000000000000000     00000000                                                                                                                        000000000000000000
F0010000009767500002000000431178400041450500000000000000000201702070002001EFRAIN ALVAREZ                                    C000000001280000000000000000000000100010010000000000000000000000F0010000009767500220170207000101 00000000000000000000000000000000000000000000000000000000000000000000000000000000000000000000000000000000000000000N 00000000000NCONT   00    00000000000          00000000000000000000000000000000000000000000 000000000000000A000000000000000000000000000000000000000000000 000000000000000000000000000000000000000     00000000                                                                                                                        000000000000000000
F0010000009767500003000000431178400042505000000000000000000201702070002001EFRAIN ALVAREZ                                    C000000000225000000000000000000000100010010000000000000000000000F0010000009767500320170207000101 00000000000000000000000000000000000000000000000000000000000000000000000000000000000000000000000000000000000000000N 00000000000NCONT   00    00000000000          00000000000000000000000000000000000000000000 000000000000000A000000000000000000000000000000000000000000000 000000000000000000000000000000000000000     00000000                                                                                                                        000000000000000000
F0010000009767500004000000431178400023658300000000000000000201702070002001EFRAIN ALVAREZ                                    C000000000010200000000000000000000100010010000000000000000000000F0010000009767500420170207000101 00000000000000000000000000000000000000000000000000000000000000000000000000000000000000000000000000000000000000000N 00000000000NCONT   00    00000000000          00000000000000000000000000000000000000000000 000000000000000A000000000000000000000000000000000000000000000 000000000000000000000000000000000000000     00000000                                                                                                                        000000000000000000
F0010000009767500005000000431178400013552100000000000000000201702070002001EFRAIN ALVAREZ                                    D000000000010200000000000000000000100010010000000000000000000000F0010000009767500520170207000101 00000000000000000000000000000000000000000000000000000000000000000000000000000000000000000000000000000000000000000N 00000000000NCONT   00    00000000000          00000000000000000000000000000000000000000000 000000000000000A000000000000000000000000000000000000000000000 000000000000000000000000000000000000000     00000000                                                                                                                        000000000000000000
F0010000009767600001000000431178400011050500000000000000000201702070002001EFRAIN ALVAREZ                                    D000000001020000000000000000000000100010010000000000000000000000F0010000009767600120170207000101 00000000000000000000000000000000000000000000000000000000000000000000000000000000000000000000000000000000000000000N 00000000000NCONT   00    00000000000          00000000000000000000000000000000000000000000 000000000000000A000000000000000000000000000000000000000000000 000000000000000000000000000000000000000     00000000                                                                                                                        000000000000000000
F0010000009767600002000000431178400041450500000000000000000201702070002001EFRAIN ALVAREZ                                    C000000000920000000000000000000000100010010000000000000000000000F0010000009767600220170207000101 00000000000000000000000000000000000000000000000000000000000000000000000000000000000000000000000000000000000000000N 00000000000NCONT   00    00000000000          00000000000000000000000000000000000000000000 000000000000000A000000000000000000000000000000000000000000000 000000000000000000000000000000000000000     00000000                                                                                                                        000000000000000000
F0010000009767600003000000431178400042505000000000000000000201702070002001EFRAIN ALVAREZ                                    C000000000100000000000000000000000100010010000000000000000000000F0010000009767600320170207000101 00000000000000000000000000000000000000000000000000000000000000000000000000000000000000000000000000000000000000000N 00000000000NCONT   00    00000000000          00000000000000000000000000000000000000000000 000000000000000A000000000000000000000000000000000000000000000 000000000000000000000000000000000000000     00000000                                                                                                                        000000000000000000
F0010000009767600004000000431178400023658300000000000000000201702070002001EFRAIN ALVAREZ                                    C000000000007400000000000000000000100010010000000000000000000000F0010000009767600420170207000101 00000000000000000000000000000000000000000000000000000000000000000000000000000000000000000000000000000000000000000N 00000000000NCONT   00    00000000000          00000000000000000000000000000000000000000000 000000000000000A000000000000000000000000000000000000000000000 000000000000000000000000000000000000000     00000000                                                                                                                        000000000000000000
F0010000009767600005000000431178400013552100000000000000000201702070002001EFRAIN ALVAREZ                                    D000000000007400000000000000000000100010010000000000000000000000F0010000009767600520170207000101 00000000000000000000000000000000000000000000000000000000000000000000000000000000000000000000000000000000000000000N 00000000000NCONT   00    00000000000          00000000000000000000000000000000000000000000 000000000000000A000000000000000000000000000000000000000000000 000000000000000000000000000000000000000     00000000                                                                                                                        000000000000000000
F0010000009767700001000000431178400011050500000000000000000201702070002001EFRAIN ALVAREZ                                    D000000001480000000000000000000000100010010000000000000000000000F0010000009767700120170207000101 00000000000000000000000000000000000000000000000000000000000000000000000000000000000000000000000000000000000000000N 00000000000NCONT   00    00000000000          00000000000000000000000000000000000000000000 000000000000000A000000000000000000000000000000000000000000000 000000000000000000000000000000000000000     00000000                                                                                                                        000000000000000000
F0010000009767700002000000431178400041450500000000000000000201702070002001EFRAIN ALVAREZ                                    C000000001280000000000000000000000100010010000000000000000000000F0010000009767700220170207000101 00000000000000000000000000000000000000000000000000000000000000000000000000000000000000000000000000000000000000000N 00000000000NCONT   00    00000000000          00000000000000000000000000000000000000000000 000000000000000A000000000000000000000000000000000000000000000 000000000000000000000000000000000000000     00000000                                                                                                                        000000000000000000
F0010000009767700003000000431178400042505000000000000000000201702070002001EFRAIN ALVAREZ                                    C000000000200000000000000000000000100010010000000000000000000000F0010000009767700320170207000101 00000000000000000000000000000000000000000000000000000000000000000000000000000000000000000000000000000000000000000N 00000000000NCONT   00    00000000000          00000000000000000000000000000000000000000000 000000000000000A000000000000000000000000000000000000000000000 000000000000000000000000000000000000000     00000000                                                                                                                        000000000000000000
F0010000009767700004000000431178400023658300000000000000000201702070002001EFRAIN ALVAREZ                                    C000000000010200000000000000000000100010010000000000000000000000F0010000009767700420170207000101 00000000000000000000000000000000000000000000000000000000000000000000000000000000000000000000000000000000000000000N 00000000000NCONT   00    00000000000          00000000000000000000000000000000000000000000 000000000000000A000000000000000000000000000000000000000000000 000000000000000000000000000000000000000     00000000                                                                                                                        000000000000000000
F0010000009767700005000000431178400013552100000000000000000201702070002001EFRAIN ALVAREZ                                    D000000000010200000000000000000000100010010000000000000000000000F0010000009767700520170207000101 00000000000000000000000000000000000000000000000000000000000000000000000000000000000000000000000000000000000000000N 00000000000NCONT   00    00000000000          00000000000000000000000000000000000000000000 000000000000000A000000000000000000000000000000000000000000000 000000000000000000000000000000000000000     00000000                                                                                                                        000000000000000000
F0010000009767800001000000431178400011050500000000000000000201702070002001EFRAIN ALVAREZ                                    D000000002005000000000000000000000100010010000000000000000000000F0010000009767800120170207000101 00000000000000000000000000000000000000000000000000000000000000000000000000000000000000000000000000000000000000000N 00000000000NCONT   00    00000000000          00000000000000000000000000000000000000000000 000000000000000A000000000000000000000000000000000000000000000 000000000000000000000000000000000000000     00000000                                                                                                                        000000000000000000
F0010000009767800002000000431178400041450500000000000000000201702070002001EFRAIN ALVAREZ                                    C000000001930000000000000000000000100010010000000000000000000000F0010000009767800220170207000101 00000000000000000000000000000000000000000000000000000000000000000000000000000000000000000000000000000000000000000N 00000000000NCONT   00    00000000000          00000000000000000000000000000000000000000000 000000000000000A000000000000000000000000000000000000000000000 000000000000000000000000000000000000000     00000000                                                                                                                        000000000000000000
F0010000009767800003000000431178400042505000000000000000000201702070002001EFRAIN ALVAREZ                                    C000000000075000000000000000000000100010010000000000000000000000F0010000009767800320170207000101 00000000000000000000000000000000000000000000000000000000000000000000000000000000000000000000000000000000000000000N 00000000000NCONT   00    00000000000          00000000000000000000000000000000000000000000 000000000000000A000000000000000000000000000000000000000000000 000000000000000000000000000000000000000     00000000                                                                                                                        000000000000000000
F0010000009767800004000000431178400023658300000000000000000201702070002001EFRAIN ALVAREZ                                    C000000000015400000000000000000000100010010000000000000000000000F0010000009767800420170207000101 00000000000000000000000000000000000000000000000000000000000000000000000000000000000000000000000000000000000000000N 00000000000NCONT   00    00000000000          00000000000000000000000000000000000000000000 000000000000000A000000000000000000000000000000000000000000000 000000000000000000000000000000000000000     00000000                                                                                                                        000000000000000000
F0010000009767800005000000431178400013552100000000000000000201702070002001EFRAIN ALVAREZ                                    D000000000015400000000000000000000100010010000000000000000000000F0010000009767800520170207000101 00000000000000000000000000000000000000000000000000000000000000000000000000000000000000000000000000000000000000000N 00000000000NCONT   00    00000000000          00000000000000000000000000000000000000000000 000000000000000A000000000000000000000000000000000000000000000 000000000000000000000000000000000000000     00000000                                                                                                                        000000000000000000
F0010000009767900001000000431178400011050500000000000000000201702070002001EFRAIN ALVAREZ                                    D000000001650000000000000000000000100010010000000000000000000000F0010000009767900120170207000101 00000000000000000000000000000000000000000000000000000000000000000000000000000000000000000000000000000000000000000N 00000000000NCONT   00    00000000000          00000000000000000000000000000000000000000000 000000000000000A000000000000000000000000000000000000000000000 000000000000000000000000000000000000000     00000000                                                                                                                        000000000000000000
F0010000009767900002000000431178400041450500000000000000000201702070002001EFRAIN ALVAREZ                                    C000000001500000000000000000000000100010010000000000000000000000F0010000009767900220170207000101 00000000000000000000000000000000000000000000000000000000000000000000000000000000000000000000000000000000000000000N 00000000000NCONT   00    00000000000          00000000000000000000000000000000000000000000 000000000000000A000000000000000000000000000000000000000000000 000000000000000000000000000000000000000     00000000                                                                                                                        000000000000000000
F0010000009767900003000000431178400042505000000000000000000201702070002001EFRAIN ALVAREZ                                    C000000000150000000000000000000000100010010000000000000000000000F0010000009767900320170207000101 00000000000000000000000000000000000000000000000000000000000000000000000000000000000000000000000000000000000000000N 00000000000NCONT   00    00000000000          00000000000000000000000000000000000000000000 000000000000000A000000000000000000000000000000000000000000000 000000000000000000000000000000000000000     00000000                                                                                                                        000000000000000000
F0010000009767900004000000431178400023658300000000000000000201702070002001EFRAIN ALVAREZ                                    C000000000012000000000000000000000100010010000000000000000000000F0010000009767900420170207000101 00000000000000000000000000000000000000000000000000000000000000000000000000000000000000000000000000000000000000000N 00000000000NCONT   00    00000000000          00000000000000000000000000000000000000000000 000000000000000A000000000000000000000000000000000000000000000 000000000000000000000000000000000000000     00000000                                                                                                                        000000000000000000
F0010000009767900005000000431178400013552100000000000000000201702070002001EFRAIN ALVAREZ                                    D000000000012000000000000000000000100010010000000000000000000000F0010000009767900520170207000101 00000000000000000000000000000000000000000000000000000000000000000000000000000000000000000000000000000000000000000N 00000000000NCONT   00    00000000000          00000000000000000000000000000000000000000000 000000000000000A000000000000000000000000000000000000000000000 000000000000000000000000000000000000000     00000000                                                                                                                        000000000000000000
F0010000009768000001000090064474900011050500000000000000000201702070002001CENTRO ARTE PAPERIA SAS                           D000000004400000000000000000000000100010010000000000000000000000F0010000009768000120170207000101 00000000000000000000000000000000000000000000000000000000000000000000000000000000000000000000000000000000000000000N 00000000000NCONT   00    00000000000          00000000000000000000000000000000000000000000 000000000000000A000000000000000000000000000000000000000000000 000000000000000000000000000000000000000     00000000                                                                                                                        000000000000000000
F0010000009768000002000090064474900041450500000000000000000201702070002001CENTRO ARTE PAPERIA SAS                           C000000003900000000000000000000000100010010000000000000000000000F0010000009768000220170207000101 00000000000000000000000000000000000000000000000000000000000000000000000000000000000000000000000000000000000000000N 00000000000NCONT   00    00000000000          00000000000000000000000000000000000000000000 000000000000000A000000000000000000000000000000000000000000000 000000000000000000000000000000000000000     00000000                                                                                                                        000000000000000000
F0010000009768000003000090064474900042505000000000000000000201702070002001CENTRO ARTE PAPERIA SAS                           C000000000500000000000000000000000100010010000000000000000000000F0010000009768000320170207000101 00000000000000000000000000000000000000000000000000000000000000000000000000000000000000000000000000000000000000000N 00000000000NCONT   00    00000000000          00000000000000000000000000000000000000000000 000000000000000A000000000000000000000000000000000000000000000 000000000000000000000000000000000000000     00000000                                                                                                                        000000000000000000
F0010000009768000004000090064474900023658300000000000000000201702070002001CENTRO ARTE PAPERIA SAS                           C000000000031200000000000000000000100010010000000000000000000000F0010000009768000420170207000101 00000000000000000000000000000000000000000000000000000000000000000000000000000000000000000000000000000000000000000N 00000000000NCONT   00    00000000000          00000000000000000000000000000000000000000000 000000000000000A000000000000000000000000000000000000000000000 000000000000000000000000000000000000000     00000000                                                                                                                        000000000000000000
F0010000009768000005000090064474900013552100000000000000000201702070002001CENTRO ARTE PAPERIA SAS                           D000000000031200000000000000000000100010010000000000000000000000F0010000009768000520170207000101 00000000000000000000000000000000000000000000000000000000000000000000000000000000000000000000000000000000000000000N 00000000000NCONT   00    00000000000          00000000000000000000000000000000000000000000 000000000000000A000000000000000000000000000000000000000000000 000000000000000000000000000000000000000     00000000                                                                                                                        000000000000000000
F0010000009768100001000007200023300011050500000000000000000201702070002001WILLIAM ORTEGA                                    D000000002400000000000000000000000100010010000000000000000000000F0010000009768100120170207000101 00000000000000000000000000000000000000000000000000000000000000000000000000000000000000000000000000000000000000000N 00000000000NCONT   00    00000000000          00000000000000000000000000000000000000000000 000000000000000A000000000000000000000000000000000000000000000 000000000000000000000000000000000000000     00000000                                                                                                                        000000000000000000
F0010000009768100002000007200023300041450500000000000000000201702070002001WILLIAM ORTEGA                                    C000000002000000000000000000000000100010010000000000000000000000F0010000009768100220170207000101 00000000000000000000000000000000000000000000000000000000000000000000000000000000000000000000000000000000000000000N 00000000000NCONT   00    00000000000          00000000000000000000000000000000000000000000 000000000000000A000000000000000000000000000000000000000000000 000000000000000000000000000000000000000     00000000                                                                                                                        000000000000000000
F0010000009768100003000007200023300042505000000000000000000201702070002001WILLIAM ORTEGA                                    C000000000400000000000000000000000100010010000000000000000000000F0010000009768100320170207000101 00000000000000000000000000000000000000000000000000000000000000000000000000000000000000000000000000000000000000000N 00000000000NCONT   00    00000000000          00000000000000000000000000000000000000000000 000000000000000A000000000000000000000000000000000000000000000 000000000000000000000000000000000000000     00000000                                                                                                                        000000000000000000
F0010000009768100004000007200023300023658300000000000000000201702070002001WILLIAM ORTEGA                                    C000000000016000000000000000000000100010010000000000000000000000F0010000009768100420170207000101 00000000000000000000000000000000000000000000000000000000000000000000000000000000000000000000000000000000000000000N 00000000000NCONT   00    00000000000          00000000000000000000000000000000000000000000 000000000000000A000000000000000000000000000000000000000000000 000000000000000000000000000000000000000     00000000                                                                                                                        000000000000000000
F0010000009768100005000007200023300013552100000000000000000201702070002001WILLIAM ORTEGA                                    D000000000016000000000000000000000100010010000000000000000000000F0010000009768100520170207000101 00000000000000000000000000000000000000000000000000000000000000000000000000000000000000000000000000000000000000000N 00000000000NCONT   00    00000000000          00000000000000000000000000000000000000000000 000000000000000A000000000000000000000000000000000000000000000 000000000000000000000000000000000000000     00000000                                                                                                                        000000000000000000
F0010000009768200001000090001736600011050500000000000000000201702070002001AF SUMINISTROS E.U.                               D000000006500000000000000000000000100010010000000000000000000000F0010000009768200120170207000101 00000000000000000000000000000000000000000000000000000000000000000000000000000000000000000000000000000000000000000N 00000000000NCONT   00    00000000000          00000000000000000000000000000000000000000000 000000000000000A000000000000000000000000000000000000000000000 000000000000000000000000000000000000000     00000000                                                                                                                        000000000000000000
F0010000009768200002000090001736600041450500000000000000000201702070002001AF SUMINISTROS E.U.                               C000000006000000000000000000000000100010010000000000000000000000F0010000009768200220170207000101 00000000000000000000000000000000000000000000000000000000000000000000000000000000000000000000000000000000000000000N 00000000000NCONT   00    00000000000          00000000000000000000000000000000000000000000 000000000000000A000000000000000000000000000000000000000000000 000000000000000000000000000000000000000     00000000                                                                                                                        000000000000000000
F0010000009768200003000090001736600042505000000000000000000201702070002001AF SUMINISTROS E.U.                               C000000000500000000000000000000000100010010000000000000000000000F0010000009768200320170207000101 00000000000000000000000000000000000000000000000000000000000000000000000000000000000000000000000000000000000000000N 00000000000NCONT   00    00000000000          00000000000000000000000000000000000000000000 000000000000000A000000000000000000000000000000000000000000000 000000000000000000000000000000000000000     00000000                                                                                                                        000000000000000000
F0010000009768200004000090001736600023658300000000000000000201702070002001AF SUMINISTROS E.U.                               C000000000048000000000000000000000100010010000000000000000000000F0010000009768200420170207000101 00000000000000000000000000000000000000000000000000000000000000000000000000000000000000000000000000000000000000000N 00000000000NCONT   00    00000000000          00000000000000000000000000000000000000000000 000000000000000A000000000000000000000000000000000000000000000 000000000000000000000000000000000000000     00000000                                                                                                                        000000000000000000
F0010000009768200005000090001736600013552100000000000000000201702070002001AF SUMINISTROS E.U.                               D000000000048000000000000000000000100010010000000000000000000000F0010000009768200520170207000101 00000000000000000000000000000000000000000000000000000000000000000000000000000000000000000000000000000000000000000N 00000000000NCONT   00    00000000000          00000000000000000000000000000000000000000000 000000000000000A000000000000000000000000000000000000000000000 000000000000000000000000000000000000000     00000000                                                                                                                        000000000000000000
F0010000009768300001000090037881900011050500000000000000000201702070002001COMERCIALIZADORA RACOPI S.A.S                     D000000001800000000000000000000000100010010000000000000000000000F0010000009768300120170207000101 00000000000000000000000000000000000000000000000000000000000000000000000000000000000000000000000000000000000000000N 00000000000NCONT   00    00000000000          00000000000000000000000000000000000000000000 000000000000000A000000000000000000000000000000000000000000000 000000000000000000000000000000000000000     00000000                                                                                                                        000000000000000000
F0010000009768300002000090037881900041450500000000000000000201702070002001COMERCIALIZADORA RACOPI S.A.S                     C000000001300000000000000000000000100010010000000000000000000000F0010000009768300220170207000101 00000000000000000000000000000000000000000000000000000000000000000000000000000000000000000000000000000000000000000N 00000000000NCONT   00    00000000000          00000000000000000000000000000000000000000000 000000000000000A000000000000000000000000000000000000000000000 000000000000000000000000000000000000000     00000000                                                                                                                        000000000000000000
F0010000009768300003000090037881900042505000000000000000000201702070002001COMERCIALIZADORA RACOPI S.A.S                     C000000000500000000000000000000000100010010000000000000000000000F0010000009768300320170207000101 00000000000000000000000000000000000000000000000000000000000000000000000000000000000000000000000000000000000000000N 00000000000NCONT   00    00000000000          00000000000000000000000000000000000000000000 000000000000000A000000000000000000000000000000000000000000000 000000000000000000000000000000000000000     00000000                                                                                                                        000000000000000000
F0010000009768300004000090037881900023658300000000000000000201702070002001COMERCIALIZADORA RACOPI S.A.S                     C000000000010400000000000000000000100010010000000000000000000000F0010000009768300420170207000101 00000000000000000000000000000000000000000000000000000000000000000000000000000000000000000000000000000000000000000N 00000000000NCONT   00    00000000000          00000000000000000000000000000000000000000000 000000000000000A000000000000000000000000000000000000000000000 000000000000000000000000000000000000000     00000000                                                                                                                        000000000000000000
F0010000009768300005000090037881900013552100000000000000000201702070002001COMERCIALIZADORA RACOPI S.A.S                     D000000000010400000000000000000000100010010000000000000000000000F0010000009768300520170207000101 00000000000000000000000000000000000000000000000000000000000000000000000000000000000000000000000000000000000000000N 00000000000NCONT   00    00000000000          00000000000000000000000000000000000000000000 000000000000000A000000000000000000000000000000000000000000000 000000000000000000000000000000000000000     00000000                                                                                                                        000000000000000000
F0010000009768400001000007200023300011050500000000000000000201702070002001WILLIAM ORTEGA                                    D000000001500000000000000000000000100010010000000000000000000000F0010000009768400120170207000101 00000000000000000000000000000000000000000000000000000000000000000000000000000000000000000000000000000000000000000N 00000000000NCONT   00    00000000000          00000000000000000000000000000000000000000000 000000000000000A000000000000000000000000000000000000000000000 000000000000000000000000000000000000000     00000000                                                                                                                        000000000000000000
F0010000009768400002000007200023300041450500000000000000000201702070002001WILLIAM ORTEGA                                    C000000001300000000000000000000000100010010000000000000000000000F0010000009768400220170207000101 00000000000000000000000000000000000000000000000000000000000000000000000000000000000000000000000000000000000000000N 00000000000NCONT   00    00000000000          00000000000000000000000000000000000000000000 000000000000000A000000000000000000000000000000000000000000000 000000000000000000000000000000000000000     00000000                                                                                                                        000000000000000000
F0010000009768400003000007200023300042505000000000000000000201702070002001WILLIAM ORTEGA                                    C000000000200000000000000000000000100010010000000000000000000000F0010000009768400320170207000101 00000000000000000000000000000000000000000000000000000000000000000000000000000000000000000000000000000000000000000N 00000000000NCONT   00    00000000000          00000000000000000000000000000000000000000000 000000000000000A000000000000000000000000000000000000000000000 000000000000000000000000000000000000000     00000000                                                                                                                        000000000000000000
F0010000009768400004000007200023300023658300000000000000000201702070002001WILLIAM ORTEGA                                    C000000000010400000000000000000000100010010000000000000000000000F0010000009768400420170207000101 00000000000000000000000000000000000000000000000000000000000000000000000000000000000000000000000000000000000000000N 00000000000NCONT   00    00000000000          00000000000000000000000000000000000000000000 000000000000000A000000000000000000000000000000000000000000000 000000000000000000000000000000000000000     00000000                                                                                                                        000000000000000000
F0010000009768400005000007200023300013552100000000000000000201702070002001WILLIAM ORTEGA                                    D000000000010400000000000000000000100010010000000000000000000000F0010000009768400520170207000101 00000000000000000000000000000000000000000000000000000000000000000000000000000000000000000000000000000000000000000N 00000000000NCONT   00    00000000000          00000000000000000000000000000000000000000000 000000000000000A000000000000000000000000000000000000000000000 000000000000000000000000000000000000000     00000000                                                                                                                        000000000000000000
F0010000009768500001000007200023300011050500000000000000000201702070002001WILLIAM ORTEGA                                    D000000003000000000000000000000000100010010000000000000000000000F0010000009768500120170207000101 00000000000000000000000000000000000000000000000000000000000000000000000000000000000000000000000000000000000000000N 00000000000NCONT   00    00000000000          00000000000000000000000000000000000000000000 000000000000000A000000000000000000000000000000000000000000000 000000000000000000000000000000000000000     00000000                                                                                                                        000000000000000000
F0010000009768500002000007200023300041450500000000000000000201702070002001WILLIAM ORTEGA                                    C000000002600000000000000000000000100010010000000000000000000000F0010000009768500220170207000101 00000000000000000000000000000000000000000000000000000000000000000000000000000000000000000000000000000000000000000N 00000000000NCONT   00    00000000000          00000000000000000000000000000000000000000000 000000000000000A000000000000000000000000000000000000000000000 000000000000000000000000000000000000000     00000000                                                                                                                        000000000000000000
F0010000009768500003000007200023300042505000000000000000000201702070002001WILLIAM ORTEGA                                    C000000000400000000000000000000000100010010000000000000000000000F0010000009768500320170207000101 00000000000000000000000000000000000000000000000000000000000000000000000000000000000000000000000000000000000000000N 00000000000NCONT   00    00000000000          00000000000000000000000000000000000000000000 000000000000000A000000000000000000000000000000000000000000000 000000000000000000000000000000000000000     00000000                                                                                                                        000000000000000000
F0010000009768500004000007200023300023658300000000000000000201702070002001WILLIAM ORTEGA                                    C000000000020800000000000000000000100010010000000000000000000000F0010000009768500420170207000101 00000000000000000000000000000000000000000000000000000000000000000000000000000000000000000000000000000000000000000N 00000000000NCONT   00    00000000000          00000000000000000000000000000000000000000000 000000000000000A000000000000000000000000000000000000000000000 000000000000000000000000000000000000000     00000000                                                                                                                        000000000000000000
F0010000009768500005000007200023300013552100000000000000000201702070002001WILLIAM ORTEGA                                    D000000000020800000000000000000000100010010000000000000000000000F0010000009768500520170207000101 00000000000000000000000000000000000000000000000000000000000000000000000000000000000000000000000000000000000000000N 00000000000NCONT   00    00000000000          00000000000000000000000000000000000000000000 000000000000000A000000000000000000000000000000000000000000000 000000000000000000000000000000000000000     00000000                                                                                                                        000000000000000000
F0010000009768600001000090000859400011050500000000000000000201702070002001COMERCIAL JOTACE LTDA                             D000000002385200000000000000000000100010010000000000000000000000F0010000009768600120170207000101 00000000000000000000000000000000000000000000000000000000000000000000000000000000000000000000000000000000000000000N 00000000000NCONT   00    00000000000          00000000000000000000000000000000000000000000 000000000000000A000000000000000000000000000000000000000000000 000000000000000000000000000000000000000     00000000                                                                                                                        000000000000000000
F0010000009768600002000090000859400041450500000000000000000201702070002001COMERCIAL JOTACE LTDA                             C000000002200000000000000000000000100010010000000000000000000000F0010000009768600220170207000101 00000000000000000000000000000000000000000000000000000000000000000000000000000000000000000000000000000000000000000N 00000000000NCONT   00    00000000000          00000000000000000000000000000000000000000000 000000000000000A000000000000000000000000000000000000000000000 000000000000000000000000000000000000000     00000000                                                                                                                        000000000000000000
