F0010000008404700001000090020547900011050500000000000000000201603190002001COMERCIALIZADORA DAC DEL CARIBE S.A.S.            D000000002600000000000000000000000100010010000000000000000000000F0010000008404700120160319000101 00000000000000000000000000000000000000000000000000000000000000000000000000000000000000000000000000000000000000000N 00000000000NCONT   00    00000000000          00000000000000000000000000000000000000000000 000000000000000A000000000000000000000000000000000000000000000 000000000000000000000000000000000000000     00000000                                                                                                                        000000000000000000
F0010000008404700002000090020547900041450500000000000000000201603190002001COMERCIALIZADORA DAC DEL CARIBE S.A.S.            C000000001800000000000000000000000100010010000000000000000000000F0010000008404700220160319000101 00000000000000000000000000000000000000000000000000000000000000000000000000000000000000000000000000000000000000000N 00000000000NCONT   00    00000000000          00000000000000000000000000000000000000000000 000000000000000A000000000000000000000000000000000000000000000 000000000000000000000000000000000000000     00000000                                                                                                                        000000000000000000
F0010000008404700003000090020547900042505000000000000000000201603190002001COMERCIALIZADORA DAC DEL CARIBE S.A.S.            C000000000800000000000000000000000100010010000000000000000000000F0010000008404700320160319000101 00000000000000000000000000000000000000000000000000000000000000000000000000000000000000000000000000000000000000000N 00000000000NCONT   00    00000000000          00000000000000000000000000000000000000000000 000000000000000A000000000000000000000000000000000000000000000 000000000000000000000000000000000000000     00000000                                                                                                                        000000000000000000
F0010000008404700004000090020547900023658300000000000000000201603190002001COMERCIALIZADORA DAC DEL CARIBE S.A.S.            C000000000014400000000000000000000100010010000000000000000000000F0010000008404700420160319000101 00000000000000000000000000000000000000000000000000000000000000000000000000000000000000000000000000000000000000000N 00000000000NCONT   00    00000000000          00000000000000000000000000000000000000000000 000000000000000A000000000000000000000000000000000000000000000 000000000000000000000000000000000000000     00000000                                                                                                                        000000000000000000
F0010000008404700005000090020547900013552100000000000000000201603190002001COMERCIALIZADORA DAC DEL CARIBE S.A.S.            D000000000014400000000000000000000100010010000000000000000000000F0010000008404700520160319000101 00000000000000000000000000000000000000000000000000000000000000000000000000000000000000000000000000000000000000000N 00000000000NCONT   00    00000000000          00000000000000000000000000000000000000000000 000000000000000A000000000000000000000000000000000000000000000 000000000000000000000000000000000000000     00000000                                                                                                                        000000000000000000
F0010000008404800001000080012418800011050500000000000000000201603190002001DISTRITEC S.A.S                                   D000000011000000000000000000000000100010010000000000000000000000F0010000008404800120160319000101 00000000000000000000000000000000000000000000000000000000000000000000000000000000000000000000000000000000000000000N 00000000000NCONT   00    00000000000          00000000000000000000000000000000000000000000 000000000000000A000000000000000000000000000000000000000000000 000000000000000000000000000000000000000     00000000                                                                                                                        000000000000000000
F0010000008404800002000080012418800041450500000000000000000201603190002001DISTRITEC S.A.S                                   C000000010300000000000000000000000100010010000000000000000000000F0010000008404800220160319000101 00000000000000000000000000000000000000000000000000000000000000000000000000000000000000000000000000000000000000000N 00000000000NCONT   00    00000000000          00000000000000000000000000000000000000000000 000000000000000A000000000000000000000000000000000000000000000 000000000000000000000000000000000000000     00000000                                                                                                                        000000000000000000
F0010000008404800003000080012418800042505000000000000000000201603190002001DISTRITEC S.A.S                                   C000000000700000000000000000000000100010010000000000000000000000F0010000008404800320160319000101 00000000000000000000000000000000000000000000000000000000000000000000000000000000000000000000000000000000000000000N 00000000000NCONT   00    00000000000          00000000000000000000000000000000000000000000 000000000000000A000000000000000000000000000000000000000000000 000000000000000000000000000000000000000     00000000                                                                                                                        000000000000000000
F0010000008404800004000080012418800023658300000000000000000201603190002001DISTRITEC S.A.S                                   C000000000082400000000000000000000100010010000000000000000000000F0010000008404800420160319000101 00000000000000000000000000000000000000000000000000000000000000000000000000000000000000000000000000000000000000000N 00000000000NCONT   00    00000000000          00000000000000000000000000000000000000000000 000000000000000A000000000000000000000000000000000000000000000 000000000000000000000000000000000000000     00000000                                                                                                                        000000000000000000
F0010000008404800005000080012418800013552100000000000000000201603190002001DISTRITEC S.A.S                                   D000000000082400000000000000000000100010010000000000000000000000F0010000008404800520160319000101 00000000000000000000000000000000000000000000000000000000000000000000000000000000000000000000000000000000000000000N 00000000000NCONT   00    00000000000          00000000000000000000000000000000000000000000 000000000000000A000000000000000000000000000000000000000000000 000000000000000000000000000000000000000     00000000                                                                                                                        000000000000000000
F0010000008404900001000000742399700011050500000000000000000201603190002001CACHARRERIA EL NUEVO CHADID                       D000000002600000000000000000000000100010010000000000000000000000F0010000008404900120160319000101 00000000000000000000000000000000000000000000000000000000000000000000000000000000000000000000000000000000000000000N 00000000000NCONT   00    00000000000          00000000000000000000000000000000000000000000 000000000000000A000000000000000000000000000000000000000000000 000000000000000000000000000000000000000     00000000                                                                                                                        000000000000000000
F0010000008404900002000000742399700041450500000000000000000201603190002001CACHARRERIA EL NUEVO CHADID                       C000000001600000000000000000000000100010010000000000000000000000F0010000008404900220160319000101 00000000000000000000000000000000000000000000000000000000000000000000000000000000000000000000000000000000000000000N 00000000000NCONT   00    00000000000          00000000000000000000000000000000000000000000 000000000000000A000000000000000000000000000000000000000000000 000000000000000000000000000000000000000     00000000                                                                                                                        000000000000000000
F0010000008404900003000000742399700042505000000000000000000201603190002001CACHARRERIA EL NUEVO CHADID                       C000000001000000000000000000000000100010010000000000000000000000F0010000008404900320160319000101 00000000000000000000000000000000000000000000000000000000000000000000000000000000000000000000000000000000000000000N 00000000000NCONT   00    00000000000          00000000000000000000000000000000000000000000 000000000000000A000000000000000000000000000000000000000000000 000000000000000000000000000000000000000     00000000                                                                                                                        000000000000000000
F0010000008404900004000000742399700023658300000000000000000201603190002001CACHARRERIA EL NUEVO CHADID                       C000000000012800000000000000000000100010010000000000000000000000F0010000008404900420160319000101 00000000000000000000000000000000000000000000000000000000000000000000000000000000000000000000000000000000000000000N 00000000000NCONT   00    00000000000          00000000000000000000000000000000000000000000 000000000000000A000000000000000000000000000000000000000000000 000000000000000000000000000000000000000     00000000                                                                                                                        000000000000000000
F0010000008404900005000000742399700013552100000000000000000201603190002001CACHARRERIA EL NUEVO CHADID                       D000000000012800000000000000000000100010010000000000000000000000F0010000008404900520160319000101 00000000000000000000000000000000000000000000000000000000000000000000000000000000000000000000000000000000000000000N 00000000000NCONT   00    00000000000          00000000000000000000000000000000000000000000 000000000000000A000000000000000000000000000000000000000000000 000000000000000000000000000000000000000     00000000                                                                                                                        000000000000000000
F0010000008405000001000007225511500011050500000000000000000201603190002001MAIGEL CHADID                                     D000000000950000000000000000000000100010010000000000000000000000F0010000008405000120160319000101 00000000000000000000000000000000000000000000000000000000000000000000000000000000000000000000000000000000000000000N 00000000000NCONT   00    00000000000          00000000000000000000000000000000000000000000 000000000000000A000000000000000000000000000000000000000000000 000000000000000000000000000000000000000     00000000                                                                                                                        000000000000000000
F0010000008405000002000007225511500041450500000000000000000201603190002001MAIGEL CHADID                                     C000000000800000000000000000000000100010010000000000000000000000F0010000008405000220160319000101 00000000000000000000000000000000000000000000000000000000000000000000000000000000000000000000000000000000000000000N 00000000000NCONT   00    00000000000          00000000000000000000000000000000000000000000 000000000000000A000000000000000000000000000000000000000000000 000000000000000000000000000000000000000     00000000                                                                                                                        000000000000000000
F0010000008405000003000007225511500042505000000000000000000201603190002001MAIGEL CHADID                                     C000000000150000000000000000000000100010010000000000000000000000F0010000008405000320160319000101 00000000000000000000000000000000000000000000000000000000000000000000000000000000000000000000000000000000000000000N 00000000000NCONT   00    00000000000          00000000000000000000000000000000000000000000 000000000000000A000000000000000000000000000000000000000000000 000000000000000000000000000000000000000     00000000                                                                                                                        000000000000000000
F0010000008405000004000007225511500023658300000000000000000201603190002001MAIGEL CHADID                                     C000000000006400000000000000000000100010010000000000000000000000F0010000008405000420160319000101 00000000000000000000000000000000000000000000000000000000000000000000000000000000000000000000000000000000000000000N 00000000000NCONT   00    00000000000          00000000000000000000000000000000000000000000 000000000000000A000000000000000000000000000000000000000000000 000000000000000000000000000000000000000     00000000                                                                                                                        000000000000000000
F0010000008405000005000007225511500013552100000000000000000201603190002001MAIGEL CHADID                                     D000000000006400000000000000000000100010010000000000000000000000F0010000008405000520160319000101 00000000000000000000000000000000000000000000000000000000000000000000000000000000000000000000000000000000000000000N 00000000000NCONT   00    00000000000          00000000000000000000000000000000000000000000 000000000000000A000000000000000000000000000000000000000000000 000000000000000000000000000000000000000     00000000                                                                                                                        000000000000000000
F0010000008405100001000080012418800011050500000000000000000201603190002001DISTRITEC S.A.S                                   D000000005400000000000000000000000100010010000000000000000000000F0010000008405100120160319000101 00000000000000000000000000000000000000000000000000000000000000000000000000000000000000000000000000000000000000000N 00000000000NCONT   00    00000000000          00000000000000000000000000000000000000000000 000000000000000A000000000000000000000000000000000000000000000 000000000000000000000000000000000000000     00000000                                                                                                                        000000000000000000
F0010000008405100002000080012418800041450500000000000000000201603190002001DISTRITEC S.A.S                                   C000000005200000000000000000000000100010010000000000000000000000F0010000008405100220160319000101 00000000000000000000000000000000000000000000000000000000000000000000000000000000000000000000000000000000000000000N 00000000000NCONT   00    00000000000          00000000000000000000000000000000000000000000 000000000000000A000000000000000000000000000000000000000000000 000000000000000000000000000000000000000     00000000                                                                                                                        000000000000000000
F0010000008405100003000080012418800042505000000000000000000201603190002001DISTRITEC S.A.S                                   C000000000200000000000000000000000100010010000000000000000000000F0010000008405100320160319000101 00000000000000000000000000000000000000000000000000000000000000000000000000000000000000000000000000000000000000000N 00000000000NCONT   00    00000000000          00000000000000000000000000000000000000000000 000000000000000A000000000000000000000000000000000000000000000 000000000000000000000000000000000000000     00000000                                                                                                                        000000000000000000
F0010000008405100004000080012418800023658300000000000000000201603190002001DISTRITEC S.A.S                                   C000000000041600000000000000000000100010010000000000000000000000F0010000008405100420160319000101 00000000000000000000000000000000000000000000000000000000000000000000000000000000000000000000000000000000000000000N 00000000000NCONT   00    00000000000          00000000000000000000000000000000000000000000 000000000000000A000000000000000000000000000000000000000000000 000000000000000000000000000000000000000     00000000                                                                                                                        000000000000000000
F0010000008405100005000080012418800013552100000000000000000201603190002001DISTRITEC S.A.S                                   D000000000041600000000000000000000100010010000000000000000000000F0010000008405100520160319000101 00000000000000000000000000000000000000000000000000000000000000000000000000000000000000000000000000000000000000000N 00000000000NCONT   00    00000000000          00000000000000000000000000000000000000000000 000000000000000A000000000000000000000000000000000000000000000 000000000000000000000000000000000000000     00000000                                                                                                                        000000000000000000
F0010000008405200001000080014190300011050500000000000000000201603190002001QUIMINSA LTDA                                     D000000004200000000000000000000000100010010000000000000000000000F0010000008405200120160319000101 00000000000000000000000000000000000000000000000000000000000000000000000000000000000000000000000000000000000000000N 00000000000NCONT   00    00000000000          00000000000000000000000000000000000000000000 000000000000000A000000000000000000000000000000000000000000000 000000000000000000000000000000000000000     00000000                                                                                                                        000000000000000000
F0010000008405200002000080014190300041450500000000000000000201603190002001QUIMINSA LTDA                                     C000000003700000000000000000000000100010010000000000000000000000F0010000008405200220160319000101 00000000000000000000000000000000000000000000000000000000000000000000000000000000000000000000000000000000000000000N 00000000000NCONT   00    00000000000          00000000000000000000000000000000000000000000 000000000000000A000000000000000000000000000000000000000000000 000000000000000000000000000000000000000     00000000                                                                                                                        000000000000000000
F0010000008405200003000080014190300042505000000000000000000201603190002001QUIMINSA LTDA                                     C000000000500000000000000000000000100010010000000000000000000000F0010000008405200320160319000101 00000000000000000000000000000000000000000000000000000000000000000000000000000000000000000000000000000000000000000N 00000000000NCONT   00    00000000000          00000000000000000000000000000000000000000000 000000000000000A000000000000000000000000000000000000000000000 000000000000000000000000000000000000000     00000000                                                                                                                        000000000000000000
F0010000008405200004000080014190300023658300000000000000000201603190002001QUIMINSA LTDA                                     C000000000029600000000000000000000100010010000000000000000000000F0010000008405200420160319000101 00000000000000000000000000000000000000000000000000000000000000000000000000000000000000000000000000000000000000000N 00000000000NCONT   00    00000000000          00000000000000000000000000000000000000000000 000000000000000A000000000000000000000000000000000000000000000 000000000000000000000000000000000000000     00000000                                                                                                                        000000000000000000
F0010000008405200005000080014190300013552100000000000000000201603190002001QUIMINSA LTDA                                     D000000000029600000000000000000000100010010000000000000000000000F0010000008405200520160319000101 00000000000000000000000000000000000000000000000000000000000000000000000000000000000000000000000000000000000000000N 00000000000NCONT   00    00000000000          00000000000000000000000000000000000000000000 000000000000000A000000000000000000000000000000000000000000000 000000000000000000000000000000000000000     00000000                                                                                                                        000000000000000000
F0010000008405300001000089011193000011050500000000000000000201603190002001DOQUIMICA DE LA COSTA LT DA                       D000000023100000000000000000000000100010010000000000000000000000F0010000008405300120160319000101 00000000000000000000000000000000000000000000000000000000000000000000000000000000000000000000000000000000000000000N 00000000000NCONT   00    00000000000          00000000000000000000000000000000000000000000 000000000000000A000000000000000000000000000000000000000000000 000000000000000000000000000000000000000     00000000                                                                                                                        000000000000000000
F0010000008405300002000089011193000041450500000000000000000201603190002001DOQUIMICA DE LA COSTA LT DA                       C000000022100000000000000000000000100010010000000000000000000000F0010000008405300220160319000101 00000000000000000000000000000000000000000000000000000000000000000000000000000000000000000000000000000000000000000N 00000000000NCONT   00    00000000000          00000000000000000000000000000000000000000000 000000000000000A000000000000000000000000000000000000000000000 000000000000000000000000000000000000000     00000000                                                                                                                        000000000000000000
F0010000008405300003000089011193000042505000000000000000000201603190002001DOQUIMICA DE LA COSTA LT DA                       C000000001000000000000000000000000100010010000000000000000000000F0010000008405300320160319000101 00000000000000000000000000000000000000000000000000000000000000000000000000000000000000000000000000000000000000000N 00000000000NCONT   00    00000000000          00000000000000000000000000000000000000000000 000000000000000A000000000000000000000000000000000000000000000 000000000000000000000000000000000000000     00000000                                                                                                                        000000000000000000
F0010000008405300004000089011193000023658300000000000000000201603190002001DOQUIMICA DE LA COSTA LT DA                       C000000000176800000000000000000000100010010000000000000000000000F0010000008405300420160319000101 00000000000000000000000000000000000000000000000000000000000000000000000000000000000000000000000000000000000000000N 00000000000NCONT   00    00000000000          00000000000000000000000000000000000000000000 000000000000000A000000000000000000000000000000000000000000000 000000000000000000000000000000000000000     00000000                                                                                                                        000000000000000000
F0010000008405300005000089011193000013552100000000000000000201603190002001DOQUIMICA DE LA COSTA LT DA                       D000000000176800000000000000000000100010010000000000000000000000F0010000008405300520160319000101 00000000000000000000000000000000000000000000000000000000000000000000000000000000000000000000000000000000000000000N 00000000000NCONT   00    00000000000          00000000000000000000000000000000000000000000 000000000000000A000000000000000000000000000000000000000000000 000000000000000000000000000000000000000     00000000                                                                                                                        000000000000000000
F0010000008405400001000007201991700011050500000000000000000201603190002001VIDRIERIA DORADO JESUS GOMEZ                      D000000015000000000000000000000000100010010000000000000000000000F0010000008405400120160319000101 00000000000000000000000000000000000000000000000000000000000000000000000000000000000000000000000000000000000000000N 00000000000NCONT   00    00000000000          00000000000000000000000000000000000000000000 000000000000000A000000000000000000000000000000000000000000000 000000000000000000000000000000000000000     00000000                                                                                                                        000000000000000000
F0010000008405400002000007201991700041450500000000000000000201603190002001VIDRIERIA DORADO JESUS GOMEZ                      C000000014100000000000000000000000100010010000000000000000000000F0010000008405400220160319000101 00000000000000000000000000000000000000000000000000000000000000000000000000000000000000000000000000000000000000000N 00000000000NCONT   00    00000000000          00000000000000000000000000000000000000000000 000000000000000A000000000000000000000000000000000000000000000 000000000000000000000000000000000000000     00000000                                                                                                                        000000000000000000
F0010000008405400003000007201991700042505000000000000000000201603190002001VIDRIERIA DORADO JESUS GOMEZ                      C000000000900000000000000000000000100010010000000000000000000000F0010000008405400320160319000101 00000000000000000000000000000000000000000000000000000000000000000000000000000000000000000000000000000000000000000N 00000000000NCONT   00    00000000000          00000000000000000000000000000000000000000000 000000000000000A000000000000000000000000000000000000000000000 000000000000000000000000000000000000000     00000000                                                                                                                        000000000000000000
F0010000008405400004000007201991700023658300000000000000000201603190002001VIDRIERIA DORADO JESUS GOMEZ                      C000000000112800000000000000000000100010010000000000000000000000F0010000008405400420160319000101 00000000000000000000000000000000000000000000000000000000000000000000000000000000000000000000000000000000000000000N 00000000000NCONT   00    00000000000          00000000000000000000000000000000000000000000 000000000000000A000000000000000000000000000000000000000000000 000000000000000000000000000000000000000     00000000                                                                                                                        000000000000000000
F0010000008405400005000007201991700013552100000000000000000201603190002001VIDRIERIA DORADO JESUS GOMEZ                      D000000000112800000000000000000000100010010000000000000000000000F0010000008405400520160319000101 00000000000000000000000000000000000000000000000000000000000000000000000000000000000000000000000000000000000000000N 00000000000NCONT   00    00000000000          00000000000000000000000000000000000000000000 000000000000000A000000000000000000000000000000000000000000000 000000000000000000000000000000000000000     00000000                                                                                                                        000000000000000000
F0010000008405500001000007200023300011050500000000000000000201603190002001WILLIAM ORTEGA                                    D000000002600000000000000000000000100010010000000000000000000000F0010000008405500120160319000101 00000000000000000000000000000000000000000000000000000000000000000000000000000000000000000000000000000000000000000N 00000000000NCONT   00    00000000000          00000000000000000000000000000000000000000000 000000000000000A000000000000000000000000000000000000000000000 000000000000000000000000000000000000000     00000000                                                                                                                        000000000000000000
F0010000008405500002000007200023300041450500000000000000000201603190002001WILLIAM ORTEGA                                    C000000002200000000000000000000000100010010000000000000000000000F0010000008405500220160319000101 00000000000000000000000000000000000000000000000000000000000000000000000000000000000000000000000000000000000000000N 00000000000NCONT   00    00000000000          00000000000000000000000000000000000000000000 000000000000000A000000000000000000000000000000000000000000000 000000000000000000000000000000000000000     00000000                                                                                                                        000000000000000000
F0010000008405500003000007200023300042505000000000000000000201603190002001WILLIAM ORTEGA                                    C000000000400000000000000000000000100010010000000000000000000000F0010000008405500320160319000101 00000000000000000000000000000000000000000000000000000000000000000000000000000000000000000000000000000000000000000N 00000000000NCONT   00    00000000000          00000000000000000000000000000000000000000000 000000000000000A000000000000000000000000000000000000000000000 000000000000000000000000000000000000000     00000000                                                                                                                        000000000000000000
F0010000008405500004000007200023300023658300000000000000000201603190002001WILLIAM ORTEGA                                    C000000000017600000000000000000000100010010000000000000000000000F0010000008405500420160319000101 00000000000000000000000000000000000000000000000000000000000000000000000000000000000000000000000000000000000000000N 00000000000NCONT   00    00000000000          00000000000000000000000000000000000000000000 000000000000000A000000000000000000000000000000000000000000000 000000000000000000000000000000000000000     00000000                                                                                                                        000000000000000000
F0010000008405500005000007200023300013552100000000000000000201603190002001WILLIAM ORTEGA                                    D000000000017600000000000000000000100010010000000000000000000000F0010000008405500520160319000101 00000000000000000000000000000000000000000000000000000000000000000000000000000000000000000000000000000000000000000N 00000000000NCONT   00    00000000000          00000000000000000000000000000000000000000000 000000000000000A000000000000000000000000000000000000000000000 000000000000000000000000000000000000000     00000000                                                                                                                        000000000000000000
F0010000008405600001000007200023300011050500000000000000000201603190002001WILLIAM ORTEGA                                    D000000001300000000000000000000000100010010000000000000000000000F0010000008405600120160319000101 00000000000000000000000000000000000000000000000000000000000000000000000000000000000000000000000000000000000000000N 00000000000NCONT   00    00000000000          00000000000000000000000000000000000000000000 000000000000000A000000000000000000000000000000000000000000000 000000000000000000000000000000000000000     00000000                                                                                                                        000000000000000000
F0010000008405600002000007200023300041450500000000000000000201603190002001WILLIAM ORTEGA                                    C000000001000000000000000000000000100010010000000000000000000000F0010000008405600220160319000101 00000000000000000000000000000000000000000000000000000000000000000000000000000000000000000000000000000000000000000N 00000000000NCONT   00    00000000000          00000000000000000000000000000000000000000000 000000000000000A000000000000000000000000000000000000000000000 000000000000000000000000000000000000000     00000000                                                                                                                        000000000000000000
F0010000008405600003000007200023300042505000000000000000000201603190002001WILLIAM ORTEGA                                    C000000000300000000000000000000000100010010000000000000000000000F0010000008405600320160319000101 00000000000000000000000000000000000000000000000000000000000000000000000000000000000000000000000000000000000000000N 00000000000NCONT   00    00000000000          00000000000000000000000000000000000000000000 000000000000000A000000000000000000000000000000000000000000000 000000000000000000000000000000000000000     00000000                                                                                                                        000000000000000000
F0010000008405600004000007200023300023658300000000000000000201603190002001WILLIAM ORTEGA                                    C000000000008000000000000000000000100010010000000000000000000000F0010000008405600420160319000101 00000000000000000000000000000000000000000000000000000000000000000000000000000000000000000000000000000000000000000N 00000000000NCONT   00    00000000000          00000000000000000000000000000000000000000000 000000000000000A000000000000000000000000000000000000000000000 000000000000000000000000000000000000000     00000000                                                                                                                        000000000000000000
F0010000008405600005000007200023300013552100000000000000000201603190002001WILLIAM ORTEGA                                    D000000000008000000000000000000000100010010000000000000000000000F0010000008405600520160319000101 00000000000000000000000000000000000000000000000000000000000000000000000000000000000000000000000000000000000000000N 00000000000NCONT   00    00000000000          00000000000000000000000000000000000000000000 000000000000000A000000000000000000000000000000000000000000000 000000000000000000000000000000000000000     00000000                                                                                                                        000000000000000000
F0010000008405700001000007200023300011050500000000000000000201603190002001WILLIAM ORTEGA                                    D000000003000000000000000000000000100010010000000000000000000000F0010000008405700120160319000101 00000000000000000000000000000000000000000000000000000000000000000000000000000000000000000000000000000000000000000N 00000000000NCONT   00    00000000000          00000000000000000000000000000000000000000000 000000000000000A000000000000000000000000000000000000000000000 000000000000000000000000000000000000000     00000000                                                                                                                        000000000000000000
F0010000008405700002000007200023300041450500000000000000000201603190002001WILLIAM ORTEGA                                    C000000002700000000000000000000000100010010000000000000000000000F0010000008405700220160319000101 00000000000000000000000000000000000000000000000000000000000000000000000000000000000000000000000000000000000000000N 00000000000NCONT   00    00000000000          00000000000000000000000000000000000000000000 000000000000000A000000000000000000000000000000000000000000000 000000000000000000000000000000000000000     00000000                                                                                                                        000000000000000000
F0010000008405700003000007200023300042505000000000000000000201603190002001WILLIAM ORTEGA                                    C000000000300000000000000000000000100010010000000000000000000000F0010000008405700320160319000101 00000000000000000000000000000000000000000000000000000000000000000000000000000000000000000000000000000000000000000N 00000000000NCONT   00    00000000000          00000000000000000000000000000000000000000000 000000000000000A000000000000000000000000000000000000000000000 000000000000000000000000000000000000000     00000000                                                                                                                        000000000000000000
F0010000008405700004000007200023300023658300000000000000000201603190002001WILLIAM ORTEGA                                    C000000000021600000000000000000000100010010000000000000000000000F0010000008405700420160319000101 00000000000000000000000000000000000000000000000000000000000000000000000000000000000000000000000000000000000000000N 00000000000NCONT   00    00000000000          00000000000000000000000000000000000000000000 000000000000000A000000000000000000000000000000000000000000000 000000000000000000000000000000000000000     00000000                                                                                                                        000000000000000000
F0010000008405700005000007200023300013552100000000000000000201603190002001WILLIAM ORTEGA                                    D000000000021600000000000000000000100010010000000000000000000000F0010000008405700520160319000101 00000000000000000000000000000000000000000000000000000000000000000000000000000000000000000000000000000000000000000N 00000000000NCONT   00    00000000000          00000000000000000000000000000000000000000000 000000000000000A000000000000000000000000000000000000000000000 000000000000000000000000000000000000000     00000000                                                                                                                        000000000000000000
F0010000008405800001000081600151900011050500000000000000000201603190002001DECORARCO SA                                      D000000001500000000000000000000000100010010000000000000000000000F0010000008405800120160319000101 00000000000000000000000000000000000000000000000000000000000000000000000000000000000000000000000000000000000000000N 00000000000NCONT   00    00000000000          00000000000000000000000000000000000000000000 000000000000000A000000000000000000000000000000000000000000000 000000000000000000000000000000000000000     00000000                                                                                                                        000000000000000000
F0010000008405800002000081600151900041450500000000000000000201603190002001DECORARCO SA                                      C000000001400000000000000000000000100010010000000000000000000000F0010000008405800220160319000101 00000000000000000000000000000000000000000000000000000000000000000000000000000000000000000000000000000000000000000N 00000000000NCONT   00    00000000000          00000000000000000000000000000000000000000000 000000000000000A000000000000000000000000000000000000000000000 000000000000000000000000000000000000000     00000000                                                                                                                        000000000000000000
F0010000008405800003000081600151900042505000000000000000000201603190002001DECORARCO SA                                      C000000000100000000000000000000000100010010000000000000000000000F0010000008405800320160319000101 00000000000000000000000000000000000000000000000000000000000000000000000000000000000000000000000000000000000000000N 00000000000NCONT   00    00000000000          00000000000000000000000000000000000000000000 000000000000000A000000000000000000000000000000000000000000000 000000000000000000000000000000000000000     00000000                                                                                                                        000000000000000000
F0010000008405800004000081600151900023658300000000000000000201603190002001DECORARCO SA                                      C000000000011200000000000000000000100010010000000000000000000000F0010000008405800420160319000101 00000000000000000000000000000000000000000000000000000000000000000000000000000000000000000000000000000000000000000N 00000000000NCONT   00    00000000000          00000000000000000000000000000000000000000000 000000000000000A000000000000000000000000000000000000000000000 000000000000000000000000000000000000000     00000000                                                                                                                        000000000000000000
F0010000008405800005000081600151900013552100000000000000000201603190002001DECORARCO SA                                      D000000000011200000000000000000000100010010000000000000000000000F0010000008405800520160319000101 00000000000000000000000000000000000000000000000000000000000000000000000000000000000000000000000000000000000000000N 00000000000NCONT   00    00000000000          00000000000000000000000000000000000000000000 000000000000000A000000000000000000000000000000000000000000000 000000000000000000000000000000000000000     00000000                                                                                                                        000000000000000000
F0010000008405900001000090087617400011050500000000000000000201603190002001MASTERGLASS PREMIUM GROUP SAS                     D000000002200000000000000000000000100010010000000000000000000000F0010000008405900120160319000101 00000000000000000000000000000000000000000000000000000000000000000000000000000000000000000000000000000000000000000N 00000000000NCONT   00    00000000000          00000000000000000000000000000000000000000000 000000000000000A000000000000000000000000000000000000000000000 000000000000000000000000000000000000000     00000000                                                                                                                        000000000000000000
F0010000008405900002000090087617400041450500000000000000000201603190002001MASTERGLASS PREMIUM GROUP SAS                     C000000001800000000000000000000000100010010000000000000000000000F0010000008405900220160319000101 00000000000000000000000000000000000000000000000000000000000000000000000000000000000000000000000000000000000000000N 00000000000NCONT   00    00000000000          00000000000000000000000000000000000000000000 000000000000000A000000000000000000000000000000000000000000000 000000000000000000000000000000000000000     00000000                                                                                                                        000000000000000000
F0010000008405900003000090087617400042505000000000000000000201603190002001MASTERGLASS PREMIUM GROUP SAS                     C000000000400000000000000000000000100010010000000000000000000000F0010000008405900320160319000101 00000000000000000000000000000000000000000000000000000000000000000000000000000000000000000000000000000000000000000N 00000000000NCONT   00    00000000000          00000000000000000000000000000000000000000000 000000000000000A000000000000000000000000000000000000000000000 000000000000000000000000000000000000000     00000000                                                                                                                        000000000000000000
F0010000008405900004000090087617400023658300000000000000000201603190002001MASTERGLASS PREMIUM GROUP SAS                     C000000000014400000000000000000000100010010000000000000000000000F0010000008405900420160319000101 00000000000000000000000000000000000000000000000000000000000000000000000000000000000000000000000000000000000000000N 00000000000NCONT   00    00000000000          00000000000000000000000000000000000000000000 000000000000000A000000000000000000000000000000000000000000000 000000000000000000000000000000000000000     00000000                                                                                                                        000000000000000000
F0010000008405900005000090087617400013552100000000000000000201603190002001MASTERGLASS PREMIUM GROUP SAS                     D000000000014400000000000000000000100010010000000000000000000000F0010000008405900520160319000101 00000000000000000000000000000000000000000000000000000000000000000000000000000000000000000000000000000000000000000N 00000000000NCONT   00    00000000000          00000000000000000000000000000000000000000000 000000000000000A000000000000000000000000000000000000000000000 000000000000000000000000000000000000000     00000000                                                                                                                        000000000000000000
F0010000008406000001000002269298000011050500000000000000000201603190002001MARIA PALACIO RODRIGUEZ                           D000000002500000000000000000000000100010010000000000000000000000F0010000008406000120160319000101 00000000000000000000000000000000000000000000000000000000000000000000000000000000000000000000000000000000000000000N 00000000000NCONT   00    00000000000          00000000000000000000000000000000000000000000 000000000000000A000000000000000000000000000000000000000000000 000000000000000000000000000000000000000     00000000                                                                                                                        000000000000000000
F0010000008406000002000002269298000041450500000000000000000201603190002001MARIA PALACIO RODRIGUEZ                           C000000002000000000000000000000000100010010000000000000000000000F0010000008406000220160319000101 00000000000000000000000000000000000000000000000000000000000000000000000000000000000000000000000000000000000000000N 00000000000NCONT   00    00000000000          00000000000000000000000000000000000000000000 000000000000000A000000000000000000000000000000000000000000000 000000000000000000000000000000000000000     00000000                                                                                                                        000000000000000000
F0010000008406000003000002269298000042505000000000000000000201603190002001MARIA PALACIO RODRIGUEZ                           C000000000500000000000000000000000100010010000000000000000000000F0010000008406000320160319000101 00000000000000000000000000000000000000000000000000000000000000000000000000000000000000000000000000000000000000000N 00000000000NCONT   00    00000000000          00000000000000000000000000000000000000000000 000000000000000A000000000000000000000000000000000000000000000 000000000000000000000000000000000000000     00000000                                                                                                                        000000000000000000
F0010000008406000004000002269298000023658300000000000000000201603190002001MARIA PALACIO RODRIGUEZ                           C000000000016000000000000000000000100010010000000000000000000000F0010000008406000420160319000101 00000000000000000000000000000000000000000000000000000000000000000000000000000000000000000000000000000000000000000N 00000000000NCONT   00    00000000000          00000000000000000000000000000000000000000000 000000000000000A000000000000000000000000000000000000000000000 000000000000000000000000000000000000000     00000000                                                                                                                        000000000000000000
F0010000008406000005000002269298000013552100000000000000000201603190002001MARIA PALACIO RODRIGUEZ                           D000000000016000000000000000000000100010010000000000000000000000F0010000008406000520160319000101 00000000000000000000000000000000000000000000000000000000000000000000000000000000000000000000000000000000000000000N 00000000000NCONT   00    00000000000          00000000000000000000000000000000000000000000 000000000000000A000000000000000000000000000000000000000000000 000000000000000000000000000000000000000     00000000                                                                                                                        000000000000000000
