F0010000008871300001000090049854300013050500000000000000000201607190002001TRAPOS INDUSTRIALES DE COLOMBIA SAS               D000000006744000000000000000000000100010010000000000000000000000F0010000008871300120160719000101 00000000000000000000000000000000000000000000000000000000000000000000000000000000000000000000000000000000000000000N 00000000000NCONT   00    00000000000          00000000000000000000000000000000000000000000 000000000000000A000000000000000000000000000000000000000000000 000000000000000000000000000000000000000     00000000                                                                                                                        000000000000000000
F0010000008871300002000090049854300041450500000000000000000201607190002001TRAPOS INDUSTRIALES DE COLOMBIA SAS               C000000006000000000000000000000000100010010000000000000000000000F0010000008871300220160719000101 00000000000000000000000000000000000000000000000000000000000000000000000000000000000000000000000000000000000000000N 00000000000NCONT   00    00000000000          00000000000000000000000000000000000000000000 000000000000000A000000000000000000000000000000000000000000000 000000000000000000000000000000000000000     00000000                                                                                                                        000000000000000000
F0010000008871300003000090049854300042505000000000000000000201607190002001TRAPOS INDUSTRIALES DE COLOMBIA SAS               C000000000744000000000000000000000100010010000000000000000000000F0010000008871300320160719000101 00000000000000000000000000000000000000000000000000000000000000000000000000000000000000000000000000000000000000000N 00000000000NCONT   00    00000000000          00000000000000000000000000000000000000000000 000000000000000A000000000000000000000000000000000000000000000 000000000000000000000000000000000000000     00000000                                                                                                                        000000000000000000
F0010000008871300004000090049854300023658300000000000000000201607190002001TRAPOS INDUSTRIALES DE COLOMBIA SAS               C000000000048000000000000000000000100010010000000000000000000000F0010000008871300420160719000101 00000000000000000000000000000000000000000000000000000000000000000000000000000000000000000000000000000000000000000N 00000000000NCONT   00    00000000000          00000000000000000000000000000000000000000000 000000000000000A000000000000000000000000000000000000000000000 000000000000000000000000000000000000000     00000000                                                                                                                        000000000000000000
F0010000008871300005000090049854300013552100000000000000000201607190002001TRAPOS INDUSTRIALES DE COLOMBIA SAS               D000000000048000000000000000000000100010010000000000000000000000F0010000008871300520160719000101 00000000000000000000000000000000000000000000000000000000000000000000000000000000000000000000000000000000000000000N 00000000000NCONT   00    00000000000          00000000000000000000000000000000000000000000 000000000000000A000000000000000000000000000000000000000000000 000000000000000000000000000000000000000     00000000                                                                                                                        000000000000000000
F0010000008871400001000080018337600013050500000000000000000201607190002001CENTRO FERRETERO INDUSTRIAL S.A.S                 D000000017000000000000000000000000100010010000000000000000000000F0010000008871400120160719000101 00000000000000000000000000000000000000000000000000000000000000000000000000000000000000000000000000000000000000000N 00000000000NCONT   00    00000000000          00000000000000000000000000000000000000000000 000000000000000A000000000000000000000000000000000000000000000 000000000000000000000000000000000000000     00000000                                                                                                                        000000000000000000
F0010000008871400002000080018337600041450500000000000000000201607190002001CENTRO FERRETERO INDUSTRIAL S.A.S                 C000000015300000000000000000000000100010010000000000000000000000F0010000008871400220160719000101 00000000000000000000000000000000000000000000000000000000000000000000000000000000000000000000000000000000000000000N 00000000000NCONT   00    00000000000          00000000000000000000000000000000000000000000 000000000000000A000000000000000000000000000000000000000000000 000000000000000000000000000000000000000     00000000                                                                                                                        000000000000000000
F0010000008871400003000080018337600042505000000000000000000201607190002001CENTRO FERRETERO INDUSTRIAL S.A.S                 C000000001700000000000000000000000100010010000000000000000000000F0010000008871400320160719000101 00000000000000000000000000000000000000000000000000000000000000000000000000000000000000000000000000000000000000000N 00000000000NCONT   00    00000000000          00000000000000000000000000000000000000000000 000000000000000A000000000000000000000000000000000000000000000 000000000000000000000000000000000000000     00000000                                                                                                                        000000000000000000
F0010000008871400004000080018337600023658300000000000000000201607190002001CENTRO FERRETERO INDUSTRIAL S.A.S                 C000000000122400000000000000000000100010010000000000000000000000F0010000008871400420160719000101 00000000000000000000000000000000000000000000000000000000000000000000000000000000000000000000000000000000000000000N 00000000000NCONT   00    00000000000          00000000000000000000000000000000000000000000 000000000000000A000000000000000000000000000000000000000000000 000000000000000000000000000000000000000     00000000                                                                                                                        000000000000000000
F0010000008871400005000080018337600013552100000000000000000201607190002001CENTRO FERRETERO INDUSTRIAL S.A.S                 D000000000122400000000000000000000100010010000000000000000000000F0010000008871400520160719000101 00000000000000000000000000000000000000000000000000000000000000000000000000000000000000000000000000000000000000000N 00000000000NCONT   00    00000000000          00000000000000000000000000000000000000000000 000000000000000A000000000000000000000000000000000000000000000 000000000000000000000000000000000000000     00000000                                                                                                                        000000000000000000
F0010000008871500001000080016664500013050500000000000000000201607190002001TELAPLAS PANCER SAS                               D000000052201000000000000000000000100010010000000000000000000000F0010000008871500120160719000101 00000000000000000000000000000000000000000000000000000000000000000000000000000000000000000000000000000000000000000N 00000000000NCONT   00    00000000000          00000000000000000000000000000000000000000000 000000000000000A000000000000000000000000000000000000000000000 000000000000000000000000000000000000000     00000000                                                                                                                        000000000000000000
F0010000008871500002000080016664500041450500000000000000000201607190002001TELAPLAS PANCER SAS                               C000000041980000000000000000000000100010010000000000000000000000F0010000008871500220160719000101 00000000000000000000000000000000000000000000000000000000000000000000000000000000000000000000000000000000000000000N 00000000000NCONT   00    00000000000          00000000000000000000000000000000000000000000 000000000000000A000000000000000000000000000000000000000000000 000000000000000000000000000000000000000     00000000                                                                                                                        000000000000000000
F0010000008871500003000080016664500042505000000000000000000201607190002001TELAPLAS PANCER SAS                               C000000010221000000000000000000000100010010000000000000000000000F0010000008871500320160719000101 00000000000000000000000000000000000000000000000000000000000000000000000000000000000000000000000000000000000000000N 00000000000NCONT   00    00000000000          00000000000000000000000000000000000000000000 000000000000000A000000000000000000000000000000000000000000000 000000000000000000000000000000000000000     00000000                                                                                                                        000000000000000000
F0010000008871500004000080016664500023658300000000000000000201607190002001TELAPLAS PANCER SAS                               C000000000335800000000000000000000100010010000000000000000000000F0010000008871500420160719000101 00000000000000000000000000000000000000000000000000000000000000000000000000000000000000000000000000000000000000000N 00000000000NCONT   00    00000000000          00000000000000000000000000000000000000000000 000000000000000A000000000000000000000000000000000000000000000 000000000000000000000000000000000000000     00000000                                                                                                                        000000000000000000
F0010000008871500005000080016664500013552100000000000000000201607190002001TELAPLAS PANCER SAS                               D000000000335800000000000000000000100010010000000000000000000000F0010000008871500520160719000101 00000000000000000000000000000000000000000000000000000000000000000000000000000000000000000000000000000000000000000N 00000000000NCONT   00    00000000000          00000000000000000000000000000000000000000000 000000000000000A000000000000000000000000000000000000000000000 000000000000000000000000000000000000000     00000000                                                                                                                        000000000000000000
F0010000008871600001000080004943800013050500000000000000000201607190002001PAPELERIA EL CID S.A.                             D000000042180800000000000000000000100010010000000000000000000000F0010000008871600120160719000101 00000000000000000000000000000000000000000000000000000000000000000000000000000000000000000000000000000000000000000N 00000000000NCONT   00    00000000000          00000000000000000000000000000000000000000000 000000000000000A000000000000000000000000000000000000000000000 000000000000000000000000000000000000000     00000000                                                                                                                        000000000000000000
F0010000008871600002000080004943800041450500000000000000000201607190002001PAPELERIA EL CID S.A.                             C000000033660000000000000000000000100010010000000000000000000000F0010000008871600220160719000101 00000000000000000000000000000000000000000000000000000000000000000000000000000000000000000000000000000000000000000N 00000000000NCONT   00    00000000000          00000000000000000000000000000000000000000000 000000000000000A000000000000000000000000000000000000000000000 000000000000000000000000000000000000000     00000000                                                                                                                        000000000000000000
F0010000008871600003000080004943800042505000000000000000000201607190002001PAPELERIA EL CID S.A.                             C000000008520800000000000000000000100010010000000000000000000000F0010000008871600320160719000101 00000000000000000000000000000000000000000000000000000000000000000000000000000000000000000000000000000000000000000N 00000000000NCONT   00    00000000000          00000000000000000000000000000000000000000000 000000000000000A000000000000000000000000000000000000000000000 000000000000000000000000000000000000000     00000000                                                                                                                        000000000000000000
F0010000008871600004000080004943800023658300000000000000000201607190002001PAPELERIA EL CID S.A.                             C000000000269300000000000000000000100010010000000000000000000000F0010000008871600420160719000101 00000000000000000000000000000000000000000000000000000000000000000000000000000000000000000000000000000000000000000N 00000000000NCONT   00    00000000000          00000000000000000000000000000000000000000000 000000000000000A000000000000000000000000000000000000000000000 000000000000000000000000000000000000000     00000000                                                                                                                        000000000000000000
F0010000008871600005000080004943800013552100000000000000000201607190002001PAPELERIA EL CID S.A.                             D000000000269300000000000000000000100010010000000000000000000000F0010000008871600520160719000101 00000000000000000000000000000000000000000000000000000000000000000000000000000000000000000000000000000000000000000N 00000000000NCONT   00    00000000000          00000000000000000000000000000000000000000000 000000000000000A000000000000000000000000000000000000000000000 000000000000000000000000000000000000000     00000000                                                                                                                        000000000000000000
F0010000008871700001000080004943800013050500000000000000000201607190002001PAPELERIA EL CID S.A.                             D000000010205000000000000000000000100010010000000000000000000000F0010000008871700120160719000101 00000000000000000000000000000000000000000000000000000000000000000000000000000000000000000000000000000000000000000N 00000000000NCONT   00    00000000000          00000000000000000000000000000000000000000000 000000000000000A000000000000000000000000000000000000000000000 000000000000000000000000000000000000000     00000000                                                                                                                        000000000000000000
F0010000008871700002000080004943800041450500000000000000000201607190002001PAPELERIA EL CID S.A.                             C000000006800000000000000000000000100010010000000000000000000000F0010000008871700220160719000101 00000000000000000000000000000000000000000000000000000000000000000000000000000000000000000000000000000000000000000N 00000000000NCONT   00    00000000000          00000000000000000000000000000000000000000000 000000000000000A000000000000000000000000000000000000000000000 000000000000000000000000000000000000000     00000000                                                                                                                        000000000000000000
F0010000008871700003000080004943800042505000000000000000000201607190002001PAPELERIA EL CID S.A.                             C000000003405000000000000000000000100010010000000000000000000000F0010000008871700320160719000101 00000000000000000000000000000000000000000000000000000000000000000000000000000000000000000000000000000000000000000N 00000000000NCONT   00    00000000000          00000000000000000000000000000000000000000000 000000000000000A000000000000000000000000000000000000000000000 000000000000000000000000000000000000000     00000000                                                                                                                        000000000000000000
F0010000008871700004000080004943800023658300000000000000000201607190002001PAPELERIA EL CID S.A.                             C000000000054400000000000000000000100010010000000000000000000000F0010000008871700420160719000101 00000000000000000000000000000000000000000000000000000000000000000000000000000000000000000000000000000000000000000N 00000000000NCONT   00    00000000000          00000000000000000000000000000000000000000000 000000000000000A000000000000000000000000000000000000000000000 000000000000000000000000000000000000000     00000000                                                                                                                        000000000000000000
F0010000008871700005000080004943800013552100000000000000000201607190002001PAPELERIA EL CID S.A.                             D000000000054400000000000000000000100010010000000000000000000000F0010000008871700520160719000101 00000000000000000000000000000000000000000000000000000000000000000000000000000000000000000000000000000000000000000N 00000000000NCONT   00    00000000000          00000000000000000000000000000000000000000000 000000000000000A000000000000000000000000000000000000000000000 000000000000000000000000000000000000000     00000000                                                                                                                        000000000000000000
F0010000008871800001000090088763700013050500000000000000000201607190002001LATRANS SAS                                       D000002200000000000000000000000000100010010000000000000000000000F0010000008871800120160719000101 00000000000000000000000000000000000000000000000000000000000000000000000000000000000000000000000000000000000000000N 00000000000NCONT   00    00000000000          00000000000000000000000000000000000000000000 000000000000000A000000000000000000000000000000000000000000000 000000000000000000000000000000000000000     00000000                                                                                                                        000000000000000000
F0010000008871800002000090088763700041450500000000000000000201607190002001LATRANS SAS                                       C000001982650000000000000000000000100010010000000000000000000000F0010000008871800220160719000101 00000000000000000000000000000000000000000000000000000000000000000000000000000000000000000000000000000000000000000N 00000000000NCONT   00    00000000000          00000000000000000000000000000000000000000000 000000000000000A000000000000000000000000000000000000000000000 000000000000000000000000000000000000000     00000000                                                                                                                        000000000000000000
F0010000008871800003000090088763700042505000000000000000000201607190002001LATRANS SAS                                       C000000217350000000000000000000000100010010000000000000000000000F0010000008871800320160719000101 00000000000000000000000000000000000000000000000000000000000000000000000000000000000000000000000000000000000000000N 00000000000NCONT   00    00000000000          00000000000000000000000000000000000000000000 000000000000000A000000000000000000000000000000000000000000000 000000000000000000000000000000000000000     00000000                                                                                                                        000000000000000000
F0010000008871800004000090088763700023658300000000000000000201607190002001LATRANS SAS                                       C000000015861200000000000000000000100010010000000000000000000000F0010000008871800420160719000101 00000000000000000000000000000000000000000000000000000000000000000000000000000000000000000000000000000000000000000N 00000000000NCONT   00    00000000000          00000000000000000000000000000000000000000000 000000000000000A000000000000000000000000000000000000000000000 000000000000000000000000000000000000000     00000000                                                                                                                        000000000000000000
F0010000008871800005000090088763700013552100000000000000000201607190002001LATRANS SAS                                       D000000015861200000000000000000000100010010000000000000000000000F0010000008871800520160719000101 00000000000000000000000000000000000000000000000000000000000000000000000000000000000000000000000000000000000000000N 00000000000NCONT   00    00000000000          00000000000000000000000000000000000000000000 000000000000000A000000000000000000000000000000000000000000000 000000000000000000000000000000000000000     00000000                                                                                                                        000000000000000000
F0010000008871900001000090008711200013050500000000000000000201607190002001PACKAGING SUPPLIERS S.A.                          D000000045086000000000000000000000100010010000000000000000000000F0010000008871900120160719000101 00000000000000000000000000000000000000000000000000000000000000000000000000000000000000000000000000000000000000000N 00000000000NCONT   00    00000000000          00000000000000000000000000000000000000000000 000000000000000A000000000000000000000000000000000000000000000 000000000000000000000000000000000000000     00000000                                                                                                                        000000000000000000
F0010000008871900002000090008711200041450500000000000000000201607190002001PACKAGING SUPPLIERS S.A.                          C000000041020000000000000000000000100010010000000000000000000000F0010000008871900220160719000101 00000000000000000000000000000000000000000000000000000000000000000000000000000000000000000000000000000000000000000N 00000000000NCONT   00    00000000000          00000000000000000000000000000000000000000000 000000000000000A000000000000000000000000000000000000000000000 000000000000000000000000000000000000000     00000000                                                                                                                        000000000000000000
F0010000008871900003000090008711200042505000000000000000000201607190002001PACKAGING SUPPLIERS S.A.                          C000000004066000000000000000000000100010010000000000000000000000F0010000008871900320160719000101 00000000000000000000000000000000000000000000000000000000000000000000000000000000000000000000000000000000000000000N 00000000000NCONT   00    00000000000          00000000000000000000000000000000000000000000 000000000000000A000000000000000000000000000000000000000000000 000000000000000000000000000000000000000     00000000                                                                                                                        000000000000000000
F0010000008871900004000090008711200023658300000000000000000201607190002001PACKAGING SUPPLIERS S.A.                          C000000000328200000000000000000000100010010000000000000000000000F0010000008871900420160719000101 00000000000000000000000000000000000000000000000000000000000000000000000000000000000000000000000000000000000000000N 00000000000NCONT   00    00000000000          00000000000000000000000000000000000000000000 000000000000000A000000000000000000000000000000000000000000000 000000000000000000000000000000000000000     00000000                                                                                                                        000000000000000000
F0010000008871900005000090008711200013552100000000000000000201607190002001PACKAGING SUPPLIERS S.A.                          D000000000328200000000000000000000100010010000000000000000000000F0010000008871900520160719000101 00000000000000000000000000000000000000000000000000000000000000000000000000000000000000000000000000000000000000000N 00000000000NCONT   00    00000000000          00000000000000000000000000000000000000000000 000000000000000A000000000000000000000000000000000000000000000 000000000000000000000000000000000000000     00000000                                                                                                                        000000000000000000
F0010000008872000001000080202094000013050500000000000000000201607190002001DISTRIB. OMAR ORREGO S.A.                         D000000058892600000000000000000000100010010000000000000000000000F0010000008872000120160719000101 00000000000000000000000000000000000000000000000000000000000000000000000000000000000000000000000000000000000000000N 00000000000NCONT   00    00000000000          00000000000000000000000000000000000000000000 000000000000000A000000000000000000000000000000000000000000000 000000000000000000000000000000000000000     00000000                                                                                                                        000000000000000000
F0010000008872000002000080202094000041450500000000000000000201607190002001DISTRIB. OMAR ORREGO S.A.                         C000000037010000000000000000000000100010010000000000000000000000F0010000008872000220160719000101 00000000000000000000000000000000000000000000000000000000000000000000000000000000000000000000000000000000000000000N 00000000000NCONT   00    00000000000          00000000000000000000000000000000000000000000 000000000000000A000000000000000000000000000000000000000000000 000000000000000000000000000000000000000     00000000                                                                                                                        000000000000000000
F0010000008872000003000080202094000042505000000000000000000201607190002001DISTRIB. OMAR ORREGO S.A.                         C000000021882600000000000000000000100010010000000000000000000000F0010000008872000320160719000101 00000000000000000000000000000000000000000000000000000000000000000000000000000000000000000000000000000000000000000N 00000000000NCONT   00    00000000000          00000000000000000000000000000000000000000000 000000000000000A000000000000000000000000000000000000000000000 000000000000000000000000000000000000000     00000000                                                                                                                        000000000000000000
F0010000008872000004000080202094000023658300000000000000000201607190002001DISTRIB. OMAR ORREGO S.A.                         C000000000296100000000000000000000100010010000000000000000000000F0010000008872000420160719000101 00000000000000000000000000000000000000000000000000000000000000000000000000000000000000000000000000000000000000000N 00000000000NCONT   00    00000000000          00000000000000000000000000000000000000000000 000000000000000A000000000000000000000000000000000000000000000 000000000000000000000000000000000000000     00000000                                                                                                                        000000000000000000
F0010000008872000005000080202094000013552100000000000000000201607190002001DISTRIB. OMAR ORREGO S.A.                         D000000000296100000000000000000000100010010000000000000000000000F0010000008872000520160719000101 00000000000000000000000000000000000000000000000000000000000000000000000000000000000000000000000000000000000000000N 00000000000NCONT   00    00000000000          00000000000000000000000000000000000000000000 000000000000000A000000000000000000000000000000000000000000000 000000000000000000000000000000000000000     00000000                                                                                                                        000000000000000000
F0010000008872100001000080202094000013050500000000000000000201607190002001DISTRIB. OMAR ORREGO S.A.                         D000000056003800000000000000000000100010010000000000000000000000F0010000008872100120160719000101 00000000000000000000000000000000000000000000000000000000000000000000000000000000000000000000000000000000000000000N 00000000000NCONT   00    00000000000          00000000000000000000000000000000000000000000 000000000000000A000000000000000000000000000000000000000000000 000000000000000000000000000000000000000     00000000                                                                                                                        000000000000000000
F0010000008872100002000080202094000041450500000000000000000201607190002001DISTRIB. OMAR ORREGO S.A.                         C000000032070000000000000000000000100010010000000000000000000000F0010000008872100220160719000101 00000000000000000000000000000000000000000000000000000000000000000000000000000000000000000000000000000000000000000N 00000000000NCONT   00    00000000000          00000000000000000000000000000000000000000000 000000000000000A000000000000000000000000000000000000000000000 000000000000000000000000000000000000000     00000000                                                                                                                        000000000000000000
F0010000008872100003000080202094000042505000000000000000000201607190002001DISTRIB. OMAR ORREGO S.A.                         C000000023933800000000000000000000100010010000000000000000000000F0010000008872100320160719000101 00000000000000000000000000000000000000000000000000000000000000000000000000000000000000000000000000000000000000000N 00000000000NCONT   00    00000000000          00000000000000000000000000000000000000000000 000000000000000A000000000000000000000000000000000000000000000 000000000000000000000000000000000000000     00000000                                                                                                                        000000000000000000
F0010000008872100004000080202094000023658300000000000000000201607190002001DISTRIB. OMAR ORREGO S.A.                         C000000000256600000000000000000000100010010000000000000000000000F0010000008872100420160719000101 00000000000000000000000000000000000000000000000000000000000000000000000000000000000000000000000000000000000000000N 00000000000NCONT   00    00000000000          00000000000000000000000000000000000000000000 000000000000000A000000000000000000000000000000000000000000000 000000000000000000000000000000000000000     00000000                                                                                                                        000000000000000000
F0010000008872100005000080202094000013552100000000000000000201607190002001DISTRIB. OMAR ORREGO S.A.                         D000000000256600000000000000000000100010010000000000000000000000F0010000008872100520160719000101 00000000000000000000000000000000000000000000000000000000000000000000000000000000000000000000000000000000000000000N 00000000000NCONT   00    00000000000          00000000000000000000000000000000000000000000 000000000000000A000000000000000000000000000000000000000000000 000000000000000000000000000000000000000     00000000                                                                                                                        000000000000000000
F0010000008872200001000080202094000013050500000000000000000201607190002001DISTRIB. OMAR ORREGO S.A.                         D000000010698800000000000000000000100010010000000000000000000000F0010000008872200120160719000101 00000000000000000000000000000000000000000000000000000000000000000000000000000000000000000000000000000000000000000N 00000000000NCONT   00    00000000000          00000000000000000000000000000000000000000000 000000000000000A000000000000000000000000000000000000000000000 000000000000000000000000000000000000000     00000000                                                                                                                        000000000000000000
F0010000008872200002000080202094000041450500000000000000000201607190002001DISTRIB. OMAR ORREGO S.A.                         C000000008180000000000000000000000100010010000000000000000000000F0010000008872200220160719000101 00000000000000000000000000000000000000000000000000000000000000000000000000000000000000000000000000000000000000000N 00000000000NCONT   00    00000000000          00000000000000000000000000000000000000000000 000000000000000A000000000000000000000000000000000000000000000 000000000000000000000000000000000000000     00000000                                                                                                                        000000000000000000
F0010000008872200003000080202094000042505000000000000000000201607190002001DISTRIB. OMAR ORREGO S.A.                         C000000002518800000000000000000000100010010000000000000000000000F0010000008872200320160719000101 00000000000000000000000000000000000000000000000000000000000000000000000000000000000000000000000000000000000000000N 00000000000NCONT   00    00000000000          00000000000000000000000000000000000000000000 000000000000000A000000000000000000000000000000000000000000000 000000000000000000000000000000000000000     00000000                                                                                                                        000000000000000000
F0010000008872200004000080202094000023658300000000000000000201607190002001DISTRIB. OMAR ORREGO S.A.                         C000000000065400000000000000000000100010010000000000000000000000F0010000008872200420160719000101 00000000000000000000000000000000000000000000000000000000000000000000000000000000000000000000000000000000000000000N 00000000000NCONT   00    00000000000          00000000000000000000000000000000000000000000 000000000000000A000000000000000000000000000000000000000000000 000000000000000000000000000000000000000     00000000                                                                                                                        000000000000000000
F0010000008872200005000080202094000013552100000000000000000201607190002001DISTRIB. OMAR ORREGO S.A.                         D000000000065400000000000000000000100010010000000000000000000000F0010000008872200520160719000101 00000000000000000000000000000000000000000000000000000000000000000000000000000000000000000000000000000000000000000N 00000000000NCONT   00    00000000000          00000000000000000000000000000000000000000000 000000000000000A000000000000000000000000000000000000000000000 000000000000000000000000000000000000000     00000000                                                                                                                        000000000000000000
F0010000008872300001000080201112800013050500000000000000000201607190002001CANGURO INTERNATIONAL S.A.                        D000000173196400000000000000000000100010010000000000000000000000F0010000008872300120160719000101 00000000000000000000000000000000000000000000000000000000000000000000000000000000000000000000000000000000000000000N 00000000000NCONT   00    00000000000          00000000000000000000000000000000000000000000 000000000000000A000000000000000000000000000000000000000000000 000000000000000000000000000000000000000     00000000                                                                                                                        000000000000000000
F0010000008872300002000080201112800041450500000000000000000201607190002001CANGURO INTERNATIONAL S.A.                        C000000173196400000000000000000000100010010000000000000000000000F0010000008872300220160719000101 00000000000000000000000000000000000000000000000000000000000000000000000000000000000000000000000000000000000000000N 00000000000NCONT   00    00000000000          00000000000000000000000000000000000000000000 000000000000000A000000000000000000000000000000000000000000000 000000000000000000000000000000000000000     00000000                                                                                                                        000000000000000000
F0010000008872300003000080201112800042505000000000000000000201607190002001CANGURO INTERNATIONAL S.A.                        C000000000000000000000000000000000100010010000000000000000000000F0010000008872300320160719000101 00000000000000000000000000000000000000000000000000000000000000000000000000000000000000000000000000000000000000000N 00000000000NCONT   00    00000000000          00000000000000000000000000000000000000000000 000000000000000A000000000000000000000000000000000000000000000 000000000000000000000000000000000000000     00000000                                                                                                                        000000000000000000
F0010000008872300004000080201112800023658300000000000000000201607190002001CANGURO INTERNATIONAL S.A.                        C000000001385600000000000000000000100010010000000000000000000000F0010000008872300420160719000101 00000000000000000000000000000000000000000000000000000000000000000000000000000000000000000000000000000000000000000N 00000000000NCONT   00    00000000000          00000000000000000000000000000000000000000000 000000000000000A000000000000000000000000000000000000000000000 000000000000000000000000000000000000000     00000000                                                                                                                        000000000000000000
F0010000008872300005000080201112800013552100000000000000000201607190002001CANGURO INTERNATIONAL S.A.                        D000000001385600000000000000000000100010010000000000000000000000F0010000008872300520160719000101 00000000000000000000000000000000000000000000000000000000000000000000000000000000000000000000000000000000000000000N 00000000000NCONT   00    00000000000          00000000000000000000000000000000000000000000 000000000000000A000000000000000000000000000000000000000000000 000000000000000000000000000000000000000     00000000                                                                                                                        000000000000000000
F0010000008872400001000080201112800013050500000000000000000201607190002001CANGURO INTERNATIONAL S.A.                        D000000185953500000000000000000000100010010000000000000000000000F0010000008872400120160719000101 00000000000000000000000000000000000000000000000000000000000000000000000000000000000000000000000000000000000000000N 00000000000NCONT   00    00000000000          00000000000000000000000000000000000000000000 000000000000000A000000000000000000000000000000000000000000000 000000000000000000000000000000000000000     00000000                                                                                                                        000000000000000000
F0010000008872400002000080201112800041450500000000000000000201607190002001CANGURO INTERNATIONAL S.A.                        C000000180172200000000000000000000100010010000000000000000000000F0010000008872400220160719000101 00000000000000000000000000000000000000000000000000000000000000000000000000000000000000000000000000000000000000000N 00000000000NCONT   00    00000000000          00000000000000000000000000000000000000000000 000000000000000A000000000000000000000000000000000000000000000 000000000000000000000000000000000000000     00000000                                                                                                                        000000000000000000
F0010000008872400003000080201112800042505000000000000000000201607190002001CANGURO INTERNATIONAL S.A.                        C000000005781300000000000000000000100010010000000000000000000000F0010000008872400320160719000101 00000000000000000000000000000000000000000000000000000000000000000000000000000000000000000000000000000000000000000N 00000000000NCONT   00    00000000000          00000000000000000000000000000000000000000000 000000000000000A000000000000000000000000000000000000000000000 000000000000000000000000000000000000000     00000000                                                                                                                        000000000000000000
F0010000008872400004000080201112800023658300000000000000000201607190002001CANGURO INTERNATIONAL S.A.                        C000000001441400000000000000000000100010010000000000000000000000F0010000008872400420160719000101 00000000000000000000000000000000000000000000000000000000000000000000000000000000000000000000000000000000000000000N 00000000000NCONT   00    00000000000          00000000000000000000000000000000000000000000 000000000000000A000000000000000000000000000000000000000000000 000000000000000000000000000000000000000     00000000                                                                                                                        000000000000000000
F0010000008872400005000080201112800013552100000000000000000201607190002001CANGURO INTERNATIONAL S.A.                        D000000001441400000000000000000000100010010000000000000000000000F0010000008872400520160719000101 00000000000000000000000000000000000000000000000000000000000000000000000000000000000000000000000000000000000000000N 00000000000NCONT   00    00000000000          00000000000000000000000000000000000000000000 000000000000000A000000000000000000000000000000000000000000000 000000000000000000000000000000000000000     00000000                                                                                                                        000000000000000000
F0010000008872500001000080201112800013050500000000000000000201607190002001CANGURO INTERNATIONAL S.A.                        D000000141255200000000000000000000100010010000000000000000000000F0010000008872500120160719000101 00000000000000000000000000000000000000000000000000000000000000000000000000000000000000000000000000000000000000000N 00000000000NCONT   00    00000000000          00000000000000000000000000000000000000000000 000000000000000A000000000000000000000000000000000000000000000 000000000000000000000000000000000000000     00000000                                                                                                                        000000000000000000
F0010000008872500002000080201112800041450500000000000000000201607190002001CANGURO INTERNATIONAL S.A.                        C000000138850000000000000000000000100010010000000000000000000000F0010000008872500220160719000101 00000000000000000000000000000000000000000000000000000000000000000000000000000000000000000000000000000000000000000N 00000000000NCONT   00    00000000000          00000000000000000000000000000000000000000000 000000000000000A000000000000000000000000000000000000000000000 000000000000000000000000000000000000000     00000000                                                                                                                        000000000000000000
F0010000008872500003000080201112800042505000000000000000000201607190002001CANGURO INTERNATIONAL S.A.                        C000000002405200000000000000000000100010010000000000000000000000F0010000008872500320160719000101 00000000000000000000000000000000000000000000000000000000000000000000000000000000000000000000000000000000000000000N 00000000000NCONT   00    00000000000          00000000000000000000000000000000000000000000 000000000000000A000000000000000000000000000000000000000000000 000000000000000000000000000000000000000     00000000                                                                                                                        000000000000000000
F0010000008872500004000080201112800023658300000000000000000201607190002001CANGURO INTERNATIONAL S.A.                        C000000001110800000000000000000000100010010000000000000000000000F0010000008872500420160719000101 00000000000000000000000000000000000000000000000000000000000000000000000000000000000000000000000000000000000000000N 00000000000NCONT   00    00000000000          00000000000000000000000000000000000000000000 000000000000000A000000000000000000000000000000000000000000000 000000000000000000000000000000000000000     00000000                                                                                                                        000000000000000000
F0010000008872500005000080201112800013552100000000000000000201607190002001CANGURO INTERNATIONAL S.A.                        D000000001110800000000000000000000100010010000000000000000000000F0010000008872500520160719000101 00000000000000000000000000000000000000000000000000000000000000000000000000000000000000000000000000000000000000000N 00000000000NCONT   00    00000000000          00000000000000000000000000000000000000000000 000000000000000A000000000000000000000000000000000000000000000 000000000000000000000000000000000000000     00000000                                                                                                                        000000000000000000
F0010000008872600001000001022529300013050500000000000000000201607190002001ALBERTO ALVAREZ ISAZA                             D000000007840000000000000000000000100010010000000000000000000000F0010000008872600120160719000101 00000000000000000000000000000000000000000000000000000000000000000000000000000000000000000000000000000000000000000N 00000000000NCONT   00    00000000000          00000000000000000000000000000000000000000000 000000000000000A000000000000000000000000000000000000000000000 000000000000000000000000000000000000000     00000000                                                                                                                        000000000000000000
F0010000008872600002000001022529300041450500000000000000000201607190002001ALBERTO ALVAREZ ISAZA                             C000000007840000000000000000000000100010010000000000000000000000F0010000008872600220160719000101 00000000000000000000000000000000000000000000000000000000000000000000000000000000000000000000000000000000000000000N 00000000000NCONT   00    00000000000          00000000000000000000000000000000000000000000 000000000000000A000000000000000000000000000000000000000000000 000000000000000000000000000000000000000     00000000                                                                                                                        000000000000000000
F0010000008872600003000001022529300042505000000000000000000201607190002001ALBERTO ALVAREZ ISAZA                             C000000000000000000000000000000000100010010000000000000000000000F0010000008872600320160719000101 00000000000000000000000000000000000000000000000000000000000000000000000000000000000000000000000000000000000000000N 00000000000NCONT   00    00000000000          00000000000000000000000000000000000000000000 000000000000000A000000000000000000000000000000000000000000000 000000000000000000000000000000000000000     00000000                                                                                                                        000000000000000000
F0010000008872600004000001022529300023658300000000000000000201607190002001ALBERTO ALVAREZ ISAZA                             C000000000062700000000000000000000100010010000000000000000000000F0010000008872600420160719000101 00000000000000000000000000000000000000000000000000000000000000000000000000000000000000000000000000000000000000000N 00000000000NCONT   00    00000000000          00000000000000000000000000000000000000000000 000000000000000A000000000000000000000000000000000000000000000 000000000000000000000000000000000000000     00000000                                                                                                                        000000000000000000
F0010000008872600005000001022529300013552100000000000000000201607190002001ALBERTO ALVAREZ ISAZA                             D000000000062700000000000000000000100010010000000000000000000000F0010000008872600520160719000101 00000000000000000000000000000000000000000000000000000000000000000000000000000000000000000000000000000000000000000N 00000000000NCONT   00    00000000000          00000000000000000000000000000000000000000000 000000000000000A000000000000000000000000000000000000000000000 000000000000000000000000000000000000000     00000000                                                                                                                        000000000000000000
F0010000008872700001000000431178400013050500000000000000000201607190002001EFRAIN ALVAREZ                                    D000000012495000000000000000000000100010010000000000000000000000F0010000008872700120160719000101 00000000000000000000000000000000000000000000000000000000000000000000000000000000000000000000000000000000000000000N 00000000000NCONT   00    00000000000          00000000000000000000000000000000000000000000 000000000000000A000000000000000000000000000000000000000000000 000000000000000000000000000000000000000     00000000                                                                                                                        000000000000000000
F0010000008872700002000000431178400041450500000000000000000201607190002001EFRAIN ALVAREZ                                    C000000011470000000000000000000000100010010000000000000000000000F0010000008872700220160719000101 00000000000000000000000000000000000000000000000000000000000000000000000000000000000000000000000000000000000000000N 00000000000NCONT   00    00000000000          00000000000000000000000000000000000000000000 000000000000000A000000000000000000000000000000000000000000000 000000000000000000000000000000000000000     00000000                                                                                                                        000000000000000000
F0010000008872700003000000431178400042505000000000000000000201607190002001EFRAIN ALVAREZ                                    C000000001025000000000000000000000100010010000000000000000000000F0010000008872700320160719000101 00000000000000000000000000000000000000000000000000000000000000000000000000000000000000000000000000000000000000000N 00000000000NCONT   00    00000000000          00000000000000000000000000000000000000000000 000000000000000A000000000000000000000000000000000000000000000 000000000000000000000000000000000000000     00000000                                                                                                                        000000000000000000
F0010000008872700004000000431178400023658300000000000000000201607190002001EFRAIN ALVAREZ                                    C000000000091800000000000000000000100010010000000000000000000000F0010000008872700420160719000101 00000000000000000000000000000000000000000000000000000000000000000000000000000000000000000000000000000000000000000N 00000000000NCONT   00    00000000000          00000000000000000000000000000000000000000000 000000000000000A000000000000000000000000000000000000000000000 000000000000000000000000000000000000000     00000000                                                                                                                        000000000000000000
F0010000008872700005000000431178400013552100000000000000000201607190002001EFRAIN ALVAREZ                                    D000000000091800000000000000000000100010010000000000000000000000F0010000008872700520160719000101 00000000000000000000000000000000000000000000000000000000000000000000000000000000000000000000000000000000000000000N 00000000000NCONT   00    00000000000          00000000000000000000000000000000000000000000 000000000000000A000000000000000000000000000000000000000000000 000000000000000000000000000000000000000     00000000                                                                                                                        000000000000000000
F0010000008872800001000090050863700013050500000000000000000201607190002001COMERCIALIZADORA PERFECT SAS                      D000000004450000000000000000000000100010010000000000000000000000F0010000008872800120160719000101 00000000000000000000000000000000000000000000000000000000000000000000000000000000000000000000000000000000000000000N 00000000000NCONT   00    00000000000          00000000000000000000000000000000000000000000 000000000000000A000000000000000000000000000000000000000000000 000000000000000000000000000000000000000     00000000                                                                                                                        000000000000000000
F0010000008872800002000090050863700041450500000000000000000201607190002001COMERCIALIZADORA PERFECT SAS                      C000000003700000000000000000000000100010010000000000000000000000F0010000008872800220160719000101 00000000000000000000000000000000000000000000000000000000000000000000000000000000000000000000000000000000000000000N 00000000000NCONT   00    00000000000          00000000000000000000000000000000000000000000 000000000000000A000000000000000000000000000000000000000000000 000000000000000000000000000000000000000     00000000                                                                                                                        000000000000000000
F0010000008872800003000090050863700042505000000000000000000201607190002001COMERCIALIZADORA PERFECT SAS                      C000000000750000000000000000000000100010010000000000000000000000F0010000008872800320160719000101 00000000000000000000000000000000000000000000000000000000000000000000000000000000000000000000000000000000000000000N 00000000000NCONT   00    00000000000          00000000000000000000000000000000000000000000 000000000000000A000000000000000000000000000000000000000000000 000000000000000000000000000000000000000     00000000                                                                                                                        000000000000000000
F0010000008872800004000090050863700023658300000000000000000201607190002001COMERCIALIZADORA PERFECT SAS                      C000000000029600000000000000000000100010010000000000000000000000F0010000008872800420160719000101 00000000000000000000000000000000000000000000000000000000000000000000000000000000000000000000000000000000000000000N 00000000000NCONT   00    00000000000          00000000000000000000000000000000000000000000 000000000000000A000000000000000000000000000000000000000000000 000000000000000000000000000000000000000     00000000                                                                                                                        000000000000000000
F0010000008872800005000090050863700013552100000000000000000201607190002001COMERCIALIZADORA PERFECT SAS                      D000000000029600000000000000000000100010010000000000000000000000F0010000008872800520160719000101 00000000000000000000000000000000000000000000000000000000000000000000000000000000000000000000000000000000000000000N 00000000000NCONT   00    00000000000          00000000000000000000000000000000000000000000 000000000000000A000000000000000000000000000000000000000000000 000000000000000000000000000000000000000     00000000                                                                                                                        000000000000000000
F0010000008872900001000089030195100013050500000000000000000201607190002001LIBRERIA NACIONAL S.A.                            D000000021150000000000000000000000100010010000000000000000000000F0010000008872900120160719000101 00000000000000000000000000000000000000000000000000000000000000000000000000000000000000000000000000000000000000000N 00000000000NCONT   00    00000000000          00000000000000000000000000000000000000000000 000000000000000A000000000000000000000000000000000000000000000 000000000000000000000000000000000000000     00000000                                                                                                                        000000000000000000
F0010000008872900002000089030195100041450500000000000000000201607190002001LIBRERIA NACIONAL S.A.                            C000000017350000000000000000000000100010010000000000000000000000F0010000008872900220160719000101 00000000000000000000000000000000000000000000000000000000000000000000000000000000000000000000000000000000000000000N 00000000000NCONT   00    00000000000          00000000000000000000000000000000000000000000 000000000000000A000000000000000000000000000000000000000000000 000000000000000000000000000000000000000     00000000                                                                                                                        000000000000000000
F0010000008872900003000089030195100042505000000000000000000201607190002001LIBRERIA NACIONAL S.A.                            C000000003800000000000000000000000100010010000000000000000000000F0010000008872900320160719000101 00000000000000000000000000000000000000000000000000000000000000000000000000000000000000000000000000000000000000000N 00000000000NCONT   00    00000000000          00000000000000000000000000000000000000000000 000000000000000A000000000000000000000000000000000000000000000 000000000000000000000000000000000000000     00000000                                                                                                                        000000000000000000
F0010000008872900004000089030195100023658300000000000000000201607190002001LIBRERIA NACIONAL S.A.                            C000000000138800000000000000000000100010010000000000000000000000F0010000008872900420160719000101 00000000000000000000000000000000000000000000000000000000000000000000000000000000000000000000000000000000000000000N 00000000000NCONT   00    00000000000          00000000000000000000000000000000000000000000 000000000000000A000000000000000000000000000000000000000000000 000000000000000000000000000000000000000     00000000                                                                                                                        000000000000000000
F0010000008872900005000089030195100013552100000000000000000201607190002001LIBRERIA NACIONAL S.A.                            D000000000138800000000000000000000100010010000000000000000000000F0010000008872900520160719000101 00000000000000000000000000000000000000000000000000000000000000000000000000000000000000000000000000000000000000000N 00000000000NCONT   00    00000000000          00000000000000000000000000000000000000000000 000000000000000A000000000000000000000000000000000000000000000 000000000000000000000000000000000000000     00000000                                                                                                                        000000000000000000
F0010000008873000001000090020547900013050500000000000000000201607190002001COMERCIALIZADORA DAC DEL CARIBE S.A.S.            D000000004084200000000000000000000100010010000000000000000000000F0010000008873000120160719000101 00000000000000000000000000000000000000000000000000000000000000000000000000000000000000000000000000000000000000000N 00000000000NCONT   00    00000000000          00000000000000000000000000000000000000000000 000000000000000A000000000000000000000000000000000000000000000 000000000000000000000000000000000000000     00000000                                                                                                                        000000000000000000
F0010000008873000002000090020547900041450500000000000000000201607190002001COMERCIALIZADORA DAC DEL CARIBE S.A.S.            C000000001800000000000000000000000100010010000000000000000000000F0010000008873000220160719000101 00000000000000000000000000000000000000000000000000000000000000000000000000000000000000000000000000000000000000000N 00000000000NCONT   00    00000000000          00000000000000000000000000000000000000000000 000000000000000A000000000000000000000000000000000000000000000 000000000000000000000000000000000000000     00000000                                                                                                                        000000000000000000
F0010000008873000003000090020547900042505000000000000000000201607190002001COMERCIALIZADORA DAC DEL CARIBE S.A.S.            C000000002284200000000000000000000100010010000000000000000000000F0010000008873000320160719000101 00000000000000000000000000000000000000000000000000000000000000000000000000000000000000000000000000000000000000000N 00000000000NCONT   00    00000000000          00000000000000000000000000000000000000000000 000000000000000A000000000000000000000000000000000000000000000 000000000000000000000000000000000000000     00000000                                                                                                                        000000000000000000
F0010000008873000004000090020547900023658300000000000000000201607190002001COMERCIALIZADORA DAC DEL CARIBE S.A.S.            C000000000014400000000000000000000100010010000000000000000000000F0010000008873000420160719000101 00000000000000000000000000000000000000000000000000000000000000000000000000000000000000000000000000000000000000000N 00000000000NCONT   00    00000000000          00000000000000000000000000000000000000000000 000000000000000A000000000000000000000000000000000000000000000 000000000000000000000000000000000000000     00000000                                                                                                                        000000000000000000
F0010000008873000005000090020547900013552100000000000000000201607190002001COMERCIALIZADORA DAC DEL CARIBE S.A.S.            D000000000014400000000000000000000100010010000000000000000000000F0010000008873000520160719000101 00000000000000000000000000000000000000000000000000000000000000000000000000000000000000000000000000000000000000000N 00000000000NCONT   00    00000000000          00000000000000000000000000000000000000000000 000000000000000A000000000000000000000000000000000000000000000 000000000000000000000000000000000000000     00000000                                                                                                                        000000000000000000
F0010000008873100001000080010983700013050500000000000000000201607190002001OHM LTDA                                          D000000010360000000000000000000000100010010000000000000000000000F0010000008873100120160719000101 00000000000000000000000000000000000000000000000000000000000000000000000000000000000000000000000000000000000000000N 00000000000NCONT   00    00000000000          00000000000000000000000000000000000000000000 000000000000000A000000000000000000000000000000000000000000000 000000000000000000000000000000000000000     00000000                                                                                                                        000000000000000000
F0010000008873100002000080010983700041450500000000000000000201607190002001OHM LTDA                                          C000000009770000000000000000000000100010010000000000000000000000F0010000008873100220160719000101 00000000000000000000000000000000000000000000000000000000000000000000000000000000000000000000000000000000000000000N 00000000000NCONT   00    00000000000          00000000000000000000000000000000000000000000 000000000000000A000000000000000000000000000000000000000000000 000000000000000000000000000000000000000     00000000                                                                                                                        000000000000000000
F0010000008873100003000080010983700042505000000000000000000201607190002001OHM LTDA                                          C000000000590000000000000000000000100010010000000000000000000000F0010000008873100320160719000101 00000000000000000000000000000000000000000000000000000000000000000000000000000000000000000000000000000000000000000N 00000000000NCONT   00    00000000000          00000000000000000000000000000000000000000000 000000000000000A000000000000000000000000000000000000000000000 000000000000000000000000000000000000000     00000000                                                                                                                        000000000000000000
F0010000008873100004000080010983700023658300000000000000000201607190002001OHM LTDA                                          C000000000078200000000000000000000100010010000000000000000000000F0010000008873100420160719000101 00000000000000000000000000000000000000000000000000000000000000000000000000000000000000000000000000000000000000000N 00000000000NCONT   00    00000000000          00000000000000000000000000000000000000000000 000000000000000A000000000000000000000000000000000000000000000 000000000000000000000000000000000000000     00000000                                                                                                                        000000000000000000
F0010000008873100005000080010983700013552100000000000000000201607190002001OHM LTDA                                          D000000000078200000000000000000000100010010000000000000000000000F0010000008873100520160719000101 00000000000000000000000000000000000000000000000000000000000000000000000000000000000000000000000000000000000000000N 00000000000NCONT   00    00000000000          00000000000000000000000000000000000000000000 000000000000000A000000000000000000000000000000000000000000000 000000000000000000000000000000000000000     00000000                                                                                                                        000000000000000000
F0010000008873200001000086003979400013050500000000000000000201607190002001CALYPSO BARRANQUILLA LTDA                         D000000019176500000000000000000000100010010000000000000000000000F0010000008873200120160719000101 00000000000000000000000000000000000000000000000000000000000000000000000000000000000000000000000000000000000000000N 00000000000NCONT   00    00000000000          00000000000000000000000000000000000000000000 000000000000000A000000000000000000000000000000000000000000000 000000000000000000000000000000000000000     00000000                                                                                                                        000000000000000000
F0010000008873200002000086003979400041450500000000000000000201607190002001CALYPSO BARRANQUILLA LTDA                         C000000017520000000000000000000000100010010000000000000000000000F0010000008873200220160719000101 00000000000000000000000000000000000000000000000000000000000000000000000000000000000000000000000000000000000000000N 00000000000NCONT   00    00000000000          00000000000000000000000000000000000000000000 000000000000000A000000000000000000000000000000000000000000000 000000000000000000000000000000000000000     00000000                                                                                                                        000000000000000000
F0010000008873200003000086003979400042505000000000000000000201607190002001CALYPSO BARRANQUILLA LTDA                         C000000001656500000000000000000000100010010000000000000000000000F0010000008873200320160719000101 00000000000000000000000000000000000000000000000000000000000000000000000000000000000000000000000000000000000000000N 00000000000NCONT   00    00000000000          00000000000000000000000000000000000000000000 000000000000000A000000000000000000000000000000000000000000000 000000000000000000000000000000000000000     00000000                                                                                                                        000000000000000000
F0010000008873200004000086003979400023658300000000000000000201607190002001CALYPSO BARRANQUILLA LTDA                         C000000000140200000000000000000000100010010000000000000000000000F0010000008873200420160719000101 00000000000000000000000000000000000000000000000000000000000000000000000000000000000000000000000000000000000000000N 00000000000NCONT   00    00000000000          00000000000000000000000000000000000000000000 000000000000000A000000000000000000000000000000000000000000000 000000000000000000000000000000000000000     00000000                                                                                                                        000000000000000000
F0010000008873200005000086003979400013552100000000000000000201607190002001CALYPSO BARRANQUILLA LTDA                         D000000000140200000000000000000000100010010000000000000000000000F0010000008873200520160719000101 00000000000000000000000000000000000000000000000000000000000000000000000000000000000000000000000000000000000000000N 00000000000NCONT   00    00000000000          00000000000000000000000000000000000000000000 000000000000000A000000000000000000000000000000000000000000000 000000000000000000000000000000000000000     00000000                                                                                                                        000000000000000000
F0010000008873300001000000870907300013050500000000000000000201607190002001SURTIDOR FERRETERO                                D000000014161000000000000000000000100010010000000000000000000000F0010000008873300120160719000101 00000000000000000000000000000000000000000000000000000000000000000000000000000000000000000000000000000000000000000N 00000000000NCONT   00    00000000000          00000000000000000000000000000000000000000000 000000000000000A000000000000000000000000000000000000000000000 000000000000000000000000000000000000000     00000000                                                                                                                        000000000000000000
F0010000008873300002000000870907300041450500000000000000000201607190002001SURTIDOR FERRETERO                                C000000010400000000000000000000000100010010000000000000000000000F0010000008873300220160719000101 00000000000000000000000000000000000000000000000000000000000000000000000000000000000000000000000000000000000000000N 00000000000NCONT   00    00000000000          00000000000000000000000000000000000000000000 000000000000000A000000000000000000000000000000000000000000000 000000000000000000000000000000000000000     00000000                                                                                                                        000000000000000000
F0010000008873300003000000870907300041750100000000000000000201607190002001SURTIDOR FERRETERO                                D000000001040000000000000000000000100010010000000000000000000000F0010000008873300320160719000101 00000000000000000000000000000000000000000000000000000000000000000000000000000000000000000000000000000000000000000N 00000000000NCONT   00    00000000000          00000000000000000000000000000000000000000000 000000000000000A000000000000000000000000000000000000000000000 000000000000000000000000000000000000000     00000000                                                                                                                        000000000000000000
F0010000008873300004000000870907300042505000000000000000000201607190002001SURTIDOR FERRETERO                                C000000004801000000000000000000000100010010000000000000000000000F0010000008873300420160719000101 00000000000000000000000000000000000000000000000000000000000000000000000000000000000000000000000000000000000000000N 00000000000NCONT   00    00000000000          00000000000000000000000000000000000000000000 000000000000000A000000000000000000000000000000000000000000000 000000000000000000000000000000000000000     00000000                                                                                                                        000000000000000000
F0010000008873300005000000870907300023658300000000000000000201607190002001SURTIDOR FERRETERO                                C000000000083200000000000000000000100010010000000000000000000000F0010000008873300520160719000101 00000000000000000000000000000000000000000000000000000000000000000000000000000000000000000000000000000000000000000N 00000000000NCONT   00    00000000000          00000000000000000000000000000000000000000000 000000000000000A000000000000000000000000000000000000000000000 000000000000000000000000000000000000000     00000000                                                                                                                        000000000000000000
F0010000008873300006000000870907300013552100000000000000000201607190002001SURTIDOR FERRETERO                                D000000000083200000000000000000000100010010000000000000000000000F0010000008873300620160719000101 00000000000000000000000000000000000000000000000000000000000000000000000000000000000000000000000000000000000000000N 00000000000NCONT   00    00000000000          00000000000000000000000000000000000000000000 000000000000000A000000000000000000000000000000000000000000000 000000000000000000000000000000000000000     00000000                                                                                                                        000000000000000000
F0010000008873400001000089010952800013050500000000000000000201607190002001IND. LITOGRAF. BOSTON S.A.S.                      D000000039130000000000000000000000100010010000000000000000000000F0010000008873400120160719000101 00000000000000000000000000000000000000000000000000000000000000000000000000000000000000000000000000000000000000000N 00000000000NCONT   00    00000000000          00000000000000000000000000000000000000000000 000000000000000A000000000000000000000000000000000000000000000 000000000000000000000000000000000000000     00000000                                                                                                                        000000000000000000
F0010000008873400002000089010952800041450500000000000000000201607190002001IND. LITOGRAF. BOSTON S.A.S.                      C000000034080000000000000000000000100010010000000000000000000000F0010000008873400220160719000101 00000000000000000000000000000000000000000000000000000000000000000000000000000000000000000000000000000000000000000N 00000000000NCONT   00    00000000000          00000000000000000000000000000000000000000000 000000000000000A000000000000000000000000000000000000000000000 000000000000000000000000000000000000000     00000000                                                                                                                        000000000000000000
F0010000008873400003000089010952800042505000000000000000000201607190002001IND. LITOGRAF. BOSTON S.A.S.                      C000000005050000000000000000000000100010010000000000000000000000F0010000008873400320160719000101 00000000000000000000000000000000000000000000000000000000000000000000000000000000000000000000000000000000000000000N 00000000000NCONT   00    00000000000          00000000000000000000000000000000000000000000 000000000000000A000000000000000000000000000000000000000000000 000000000000000000000000000000000000000     00000000                                                                                                                        000000000000000000
F0010000008873400004000089010952800023658300000000000000000201607190002001IND. LITOGRAF. BOSTON S.A.S.                      C000000000272600000000000000000000100010010000000000000000000000F0010000008873400420160719000101 00000000000000000000000000000000000000000000000000000000000000000000000000000000000000000000000000000000000000000N 00000000000NCONT   00    00000000000          00000000000000000000000000000000000000000000 000000000000000A000000000000000000000000000000000000000000000 000000000000000000000000000000000000000     00000000                                                                                                                        000000000000000000
F0010000008873400005000089010952800013552100000000000000000201607190002001IND. LITOGRAF. BOSTON S.A.S.                      D000000000272600000000000000000000100010010000000000000000000000F0010000008873400520160719000101 00000000000000000000000000000000000000000000000000000000000000000000000000000000000000000000000000000000000000000N 00000000000NCONT   00    00000000000          00000000000000000000000000000000000000000000 000000000000000A000000000000000000000000000000000000000000000 000000000000000000000000000000000000000     00000000                                                                                                                        000000000000000000
F0010000008873500001000080000083500013050500000000000000000201607190002001ALIPAR Y CIA LTDA                                 D000000012170000000000000000000000100010010000000000000000000000F0010000008873500120160719000101 00000000000000000000000000000000000000000000000000000000000000000000000000000000000000000000000000000000000000000N 00000000000NCONT   00    00000000000          00000000000000000000000000000000000000000000 000000000000000A000000000000000000000000000000000000000000000 000000000000000000000000000000000000000     00000000                                                                                                                        000000000000000000
F0010000008873500002000080000083500041450500000000000000000201607190002001ALIPAR Y CIA LTDA                                 C000000010820000000000000000000000100010010000000000000000000000F0010000008873500220160719000101 00000000000000000000000000000000000000000000000000000000000000000000000000000000000000000000000000000000000000000N 00000000000NCONT   00    00000000000          00000000000000000000000000000000000000000000 000000000000000A000000000000000000000000000000000000000000000 000000000000000000000000000000000000000     00000000                                                                                                                        000000000000000000
F0010000008873500003000080000083500042505000000000000000000201607190002001ALIPAR Y CIA LTDA                                 C000000001350000000000000000000000100010010000000000000000000000F0010000008873500320160719000101 00000000000000000000000000000000000000000000000000000000000000000000000000000000000000000000000000000000000000000N 00000000000NCONT   00    00000000000          00000000000000000000000000000000000000000000 000000000000000A000000000000000000000000000000000000000000000 000000000000000000000000000000000000000     00000000                                                                                                                        000000000000000000
F0010000008873500004000080000083500023658300000000000000000201607190002001ALIPAR Y CIA LTDA                                 C000000000086600000000000000000000100010010000000000000000000000F0010000008873500420160719000101 00000000000000000000000000000000000000000000000000000000000000000000000000000000000000000000000000000000000000000N 00000000000NCONT   00    00000000000          00000000000000000000000000000000000000000000 000000000000000A000000000000000000000000000000000000000000000 000000000000000000000000000000000000000     00000000                                                                                                                        000000000000000000
F0010000008873500005000080000083500013552100000000000000000201607190002001ALIPAR Y CIA LTDA                                 D000000000086600000000000000000000100010010000000000000000000000F0010000008873500520160719000101 00000000000000000000000000000000000000000000000000000000000000000000000000000000000000000000000000000000000000000N 00000000000NCONT   00    00000000000          00000000000000000000000000000000000000000000 000000000000000A000000000000000000000000000000000000000000000 000000000000000000000000000000000000000     00000000                                                                                                                        000000000000000000
F0010000008873600001000080202132300013050500000000000000000201607190002001SUM Y SERV DE LA COSTA LTDA                       D000000045630000000000000000000000100010010000000000000000000000F0010000008873600120160719000101 00000000000000000000000000000000000000000000000000000000000000000000000000000000000000000000000000000000000000000N 00000000000NCONT   00    00000000000          00000000000000000000000000000000000000000000 000000000000000A000000000000000000000000000000000000000000000 000000000000000000000000000000000000000     00000000                                                                                                                        000000000000000000
F0010000008873600002000080202132300041450500000000000000000201607190002001SUM Y SERV DE LA COSTA LTDA                       C000000042180000000000000000000000100010010000000000000000000000F0010000008873600220160719000101 00000000000000000000000000000000000000000000000000000000000000000000000000000000000000000000000000000000000000000N 00000000000NCONT   00    00000000000          00000000000000000000000000000000000000000000 000000000000000A000000000000000000000000000000000000000000000 000000000000000000000000000000000000000     00000000                                                                                                                        000000000000000000
F0010000008873600003000080202132300042505000000000000000000201607190002001SUM Y SERV DE LA COSTA LTDA                       C000000003450000000000000000000000100010010000000000000000000000F0010000008873600320160719000101 00000000000000000000000000000000000000000000000000000000000000000000000000000000000000000000000000000000000000000N 00000000000NCONT   00    00000000000          00000000000000000000000000000000000000000000 000000000000000A000000000000000000000000000000000000000000000 000000000000000000000000000000000000000     00000000                                                                                                                        000000000000000000
F0010000008873600004000080202132300023658300000000000000000201607190002001SUM Y SERV DE LA COSTA LTDA                       C000000000337400000000000000000000100010010000000000000000000000F0010000008873600420160719000101 00000000000000000000000000000000000000000000000000000000000000000000000000000000000000000000000000000000000000000N 00000000000NCONT   00    00000000000          00000000000000000000000000000000000000000000 000000000000000A000000000000000000000000000000000000000000000 000000000000000000000000000000000000000     00000000                                                                                                                        000000000000000000
F0010000008873600005000080202132300013552100000000000000000201607190002001SUM Y SERV DE LA COSTA LTDA                       D000000000337400000000000000000000100010010000000000000000000000F0010000008873600520160719000101 00000000000000000000000000000000000000000000000000000000000000000000000000000000000000000000000000000000000000000N 00000000000NCONT   00    00000000000          00000000000000000000000000000000000000000000 000000000000000A000000000000000000000000000000000000000000000 000000000000000000000000000000000000000     00000000                                                                                                                        000000000000000000
F0010000008873700001000090040631000013050500000000000000000201607190002001BEINEX SAS                                        D000000030201600000000000000000000100010010000000000000000000000F0010000008873700120160719000101 00000000000000000000000000000000000000000000000000000000000000000000000000000000000000000000000000000000000000000N 00000000000NCONT   00    00000000000          00000000000000000000000000000000000000000000 000000000000000A000000000000000000000000000000000000000000000 000000000000000000000000000000000000000     00000000                                                                                                                        000000000000000000
F0010000008873700002000090040631000041450500000000000000000201607190002001BEINEX SAS                                        C000000031460000000000000000000000100010010000000000000000000000F0010000008873700220160719000101 00000000000000000000000000000000000000000000000000000000000000000000000000000000000000000000000000000000000000000N 00000000000NCONT   00    00000000000          00000000000000000000000000000000000000000000 000000000000000A000000000000000000000000000000000000000000000 000000000000000000000000000000000000000     00000000                                                                                                                        000000000000000000
F0010000008873700003000090040631000041750100000000000000000201607190002001BEINEX SAS                                        D000000001258400000000000000000000100010010000000000000000000000F0010000008873700320160719000101 00000000000000000000000000000000000000000000000000000000000000000000000000000000000000000000000000000000000000000N 00000000000NCONT   00    00000000000          00000000000000000000000000000000000000000000 000000000000000A000000000000000000000000000000000000000000000 000000000000000000000000000000000000000     00000000                                                                                                                        000000000000000000
F0010000008873700004000090040631000042505000000000000000000201607190002001BEINEX SAS                                        C000000000000000000000000000000000100010010000000000000000000000F0010000008873700420160719000101 00000000000000000000000000000000000000000000000000000000000000000000000000000000000000000000000000000000000000000N 00000000000NCONT   00    00000000000          00000000000000000000000000000000000000000000 000000000000000A000000000000000000000000000000000000000000000 000000000000000000000000000000000000000     00000000                                                                                                                        000000000000000000
F0010000008873700005000090040631000023658300000000000000000201607190002001BEINEX SAS                                        C000000000251700000000000000000000100010010000000000000000000000F0010000008873700520160719000101 00000000000000000000000000000000000000000000000000000000000000000000000000000000000000000000000000000000000000000N 00000000000NCONT   00    00000000000          00000000000000000000000000000000000000000000 000000000000000A000000000000000000000000000000000000000000000 000000000000000000000000000000000000000     00000000                                                                                                                        000000000000000000
F0010000008873700006000090040631000013552100000000000000000201607190002001BEINEX SAS                                        D000000000251700000000000000000000100010010000000000000000000000F0010000008873700620160719000101 00000000000000000000000000000000000000000000000000000000000000000000000000000000000000000000000000000000000000000N 00000000000NCONT   00    00000000000          00000000000000000000000000000000000000000000 000000000000000A000000000000000000000000000000000000000000000 000000000000000000000000000000000000000     00000000                                                                                                                        000000000000000000
F0010000008873800001000090019362000013050500000000000000000201607190002001GENERAL SUPPLIES CIA LTDA                         D000000015807000000000000000000000100010010000000000000000000000F0010000008873800120160719000101 00000000000000000000000000000000000000000000000000000000000000000000000000000000000000000000000000000000000000000N 00000000000NCONT   00    00000000000          00000000000000000000000000000000000000000000 000000000000000A000000000000000000000000000000000000000000000 000000000000000000000000000000000000000     00000000                                                                                                                        000000000000000000
F0010000008873800002000090019362000041450500000000000000000201607190002001GENERAL SUPPLIES CIA LTDA                         C000000014850000000000000000000000100010010000000000000000000000F0010000008873800220160719000101 00000000000000000000000000000000000000000000000000000000000000000000000000000000000000000000000000000000000000000N 00000000000NCONT   00    00000000000          00000000000000000000000000000000000000000000 000000000000000A000000000000000000000000000000000000000000000 000000000000000000000000000000000000000     00000000                                                                                                                        000000000000000000
F0010000008873800003000090019362000042505000000000000000000201607190002001GENERAL SUPPLIES CIA LTDA                         C000000000957000000000000000000000100010010000000000000000000000F0010000008873800320160719000101 00000000000000000000000000000000000000000000000000000000000000000000000000000000000000000000000000000000000000000N 00000000000NCONT   00    00000000000          00000000000000000000000000000000000000000000 000000000000000A000000000000000000000000000000000000000000000 000000000000000000000000000000000000000     00000000                                                                                                                        000000000000000000
F0010000008873800004000090019362000023658300000000000000000201607190002001GENERAL SUPPLIES CIA LTDA                         C000000000118800000000000000000000100010010000000000000000000000F0010000008873800420160719000101 00000000000000000000000000000000000000000000000000000000000000000000000000000000000000000000000000000000000000000N 00000000000NCONT   00    00000000000          00000000000000000000000000000000000000000000 000000000000000A000000000000000000000000000000000000000000000 000000000000000000000000000000000000000     00000000                                                                                                                        000000000000000000
F0010000008873800005000090019362000013552100000000000000000201607190002001GENERAL SUPPLIES CIA LTDA                         D000000000118800000000000000000000100010010000000000000000000000F0010000008873800520160719000101 00000000000000000000000000000000000000000000000000000000000000000000000000000000000000000000000000000000000000000N 00000000000NCONT   00    00000000000          00000000000000000000000000000000000000000000 000000000000000A000000000000000000000000000000000000000000000 000000000000000000000000000000000000000     00000000                                                                                                                        000000000000000000
F0010000008873900001000083008772100013050500000000000000000201607190002001ILUMEC SAS                                        D000000066765000000000000000000000100010010000000000000000000000F0010000008873900120160719000101 00000000000000000000000000000000000000000000000000000000000000000000000000000000000000000000000000000000000000000N 00000000000NCONT   00    00000000000          00000000000000000000000000000000000000000000 000000000000000A000000000000000000000000000000000000000000000 000000000000000000000000000000000000000     00000000                                                                                                                        000000000000000000
F0010000008873900002000083008772100041450500000000000000000201607190002001ILUMEC SAS                                        C000000048740000000000000000000000100010010000000000000000000000F0010000008873900220160719000101 00000000000000000000000000000000000000000000000000000000000000000000000000000000000000000000000000000000000000000N 00000000000NCONT   00    00000000000          00000000000000000000000000000000000000000000 000000000000000A000000000000000000000000000000000000000000000 000000000000000000000000000000000000000     00000000                                                                                                                        000000000000000000
F0010000008873900003000083008772100042505000000000000000000201607190002001ILUMEC SAS                                        C000000018025000000000000000000000100010010000000000000000000000F0010000008873900320160719000101 00000000000000000000000000000000000000000000000000000000000000000000000000000000000000000000000000000000000000000N 00000000000NCONT   00    00000000000          00000000000000000000000000000000000000000000 000000000000000A000000000000000000000000000000000000000000000 000000000000000000000000000000000000000     00000000                                                                                                                        000000000000000000
F0010000008873900004000083008772100023658300000000000000000201607190002001ILUMEC SAS                                        C000000000389900000000000000000000100010010000000000000000000000F0010000008873900420160719000101 00000000000000000000000000000000000000000000000000000000000000000000000000000000000000000000000000000000000000000N 00000000000NCONT   00    00000000000          00000000000000000000000000000000000000000000 000000000000000A000000000000000000000000000000000000000000000 000000000000000000000000000000000000000     00000000                                                                                                                        000000000000000000
F0010000008873900005000083008772100013552100000000000000000201607190002001ILUMEC SAS                                        D000000000389900000000000000000000100010010000000000000000000000F0010000008873900520160719000101 00000000000000000000000000000000000000000000000000000000000000000000000000000000000000000000000000000000000000000N 00000000000NCONT   00    00000000000          00000000000000000000000000000000000000000000 000000000000000A000000000000000000000000000000000000000000000 000000000000000000000000000000000000000     00000000                                                                                                                        000000000000000000
F0010000008874000001000089031248700013050500000000000000000201607190002001DISTRIBUIDORA CALIPLASTICOS LTDA                  D000000057483100000000000000000000100010010000000000000000000000F0010000008874000120160719000101 00000000000000000000000000000000000000000000000000000000000000000000000000000000000000000000000000000000000000000N 00000000000NCONT   00    00000000000          00000000000000000000000000000000000000000000 000000000000000A000000000000000000000000000000000000000000000 000000000000000000000000000000000000000     00000000                                                                                                                        000000000000000000
F0010000008874000002000089031248700041450500000000000000000201607190002001DISTRIBUIDORA CALIPLASTICOS LTDA                  C000000052583100000000000000000000100010010000000000000000000000F0010000008874000220160719000101 00000000000000000000000000000000000000000000000000000000000000000000000000000000000000000000000000000000000000000N 00000000000NCONT   00    00000000000          00000000000000000000000000000000000000000000 000000000000000A000000000000000000000000000000000000000000000 000000000000000000000000000000000000000     00000000                                                                                                                        000000000000000000
F0010000008874000003000089031248700042505000000000000000000201607190002001DISTRIBUIDORA CALIPLASTICOS LTDA                  C000000004900000000000000000000000100010010000000000000000000000F0010000008874000320160719000101 00000000000000000000000000000000000000000000000000000000000000000000000000000000000000000000000000000000000000000N 00000000000NCONT   00    00000000000          00000000000000000000000000000000000000000000 000000000000000A000000000000000000000000000000000000000000000 000000000000000000000000000000000000000     00000000                                                                                                                        000000000000000000
F0010000008874000004000089031248700023658300000000000000000201607190002001DISTRIBUIDORA CALIPLASTICOS LTDA                  C000000000420700000000000000000000100010010000000000000000000000F0010000008874000420160719000101 00000000000000000000000000000000000000000000000000000000000000000000000000000000000000000000000000000000000000000N 00000000000NCONT   00    00000000000          00000000000000000000000000000000000000000000 000000000000000A000000000000000000000000000000000000000000000 000000000000000000000000000000000000000     00000000                                                                                                                        000000000000000000
F0010000008874000005000089031248700013552100000000000000000201607190002001DISTRIBUIDORA CALIPLASTICOS LTDA                  D000000000420700000000000000000000100010010000000000000000000000F0010000008874000520160719000101 00000000000000000000000000000000000000000000000000000000000000000000000000000000000000000000000000000000000000000N 00000000000NCONT   00    00000000000          00000000000000000000000000000000000000000000 000000000000000A000000000000000000000000000000000000000000000 000000000000000000000000000000000000000     00000000                                                                                                                        000000000000000000
F0010000008874100001000090070882400011050500000000000000000201607190002001FERRESOLDAR DEL CARIBE S.A.S                      D000000001200000000000000000000000100010010000000000000000000000F0010000008874100120160719000101 00000000000000000000000000000000000000000000000000000000000000000000000000000000000000000000000000000000000000000N 00000000000NCONT   00    00000000000          00000000000000000000000000000000000000000000 000000000000000A000000000000000000000000000000000000000000000 000000000000000000000000000000000000000     00000000                                                                                                                        000000000000000000
F0010000008874100002000090070882400041450500000000000000000201607190002001FERRESOLDAR DEL CARIBE S.A.S                      C000000001000000000000000000000000100010010000000000000000000000F0010000008874100220160719000101 00000000000000000000000000000000000000000000000000000000000000000000000000000000000000000000000000000000000000000N 00000000000NCONT   00    00000000000          00000000000000000000000000000000000000000000 000000000000000A000000000000000000000000000000000000000000000 000000000000000000000000000000000000000     00000000                                                                                                                        000000000000000000
F0010000008874100003000090070882400042505000000000000000000201607190002001FERRESOLDAR DEL CARIBE S.A.S                      C000000000200000000000000000000000100010010000000000000000000000F0010000008874100320160719000101 00000000000000000000000000000000000000000000000000000000000000000000000000000000000000000000000000000000000000000N 00000000000NCONT   00    00000000000          00000000000000000000000000000000000000000000 000000000000000A000000000000000000000000000000000000000000000 000000000000000000000000000000000000000     00000000                                                                                                                        000000000000000000
F0010000008874100004000090070882400023658300000000000000000201607190002001FERRESOLDAR DEL CARIBE S.A.S                      C000000000008000000000000000000000100010010000000000000000000000F0010000008874100420160719000101 00000000000000000000000000000000000000000000000000000000000000000000000000000000000000000000000000000000000000000N 00000000000NCONT   00    00000000000          00000000000000000000000000000000000000000000 000000000000000A000000000000000000000000000000000000000000000 000000000000000000000000000000000000000     00000000                                                                                                                        000000000000000000
F0010000008874100005000090070882400013552100000000000000000201607190002001FERRESOLDAR DEL CARIBE S.A.S                      D000000000008000000000000000000000100010010000000000000000000000F0010000008874100520160719000101 00000000000000000000000000000000000000000000000000000000000000000000000000000000000000000000000000000000000000000N 00000000000NCONT   00    00000000000          00000000000000000000000000000000000000000000 000000000000000A000000000000000000000000000000000000000000000 000000000000000000000000000000000000000     00000000                                                                                                                        000000000000000000
