F0010000009065600001000090035510100013050500000000000000000201609010002001GRAINGER COLOMBIA S.A.S.                          D000000035641000000000000000000000100010010000000000000000000000F0010000009065600120160901000101 00000000000000000000000000000000000000000000000000000000000000000000000000000000000000000000000000000000000000000N 00000000000NCONT   00    00000000000          00000000000000000000000000000000000000000000 000000000000000A000000000000000000000000000000000000000000000 000000000000000000000000000000000000000     00000000                                                                                                                        000000000000000000
F0010000009065600002000090035510100041450500000000000000000201609010002001GRAINGER COLOMBIA S.A.S.                          C000000027485400000000000000000000100010010000000000000000000000F0010000009065600220160901000101 00000000000000000000000000000000000000000000000000000000000000000000000000000000000000000000000000000000000000000N 00000000000NCONT   00    00000000000          00000000000000000000000000000000000000000000 000000000000000A000000000000000000000000000000000000000000000 000000000000000000000000000000000000000     00000000                                                                                                                        000000000000000000
F0010000009065600003000090035510100042505000000000000000000201609010002001GRAINGER COLOMBIA S.A.S.                          C000000008155600000000000000000000100010010000000000000000000000F0010000009065600320160901000101 00000000000000000000000000000000000000000000000000000000000000000000000000000000000000000000000000000000000000000N 00000000000NCONT   00    00000000000          00000000000000000000000000000000000000000000 000000000000000A000000000000000000000000000000000000000000000 000000000000000000000000000000000000000     00000000                                                                                                                        000000000000000000
F0010000009065600004000090035510100023658300000000000000000201609010002001GRAINGER COLOMBIA S.A.S.                          C000000000219900000000000000000000100010010000000000000000000000F0010000009065600420160901000101 00000000000000000000000000000000000000000000000000000000000000000000000000000000000000000000000000000000000000000N 00000000000NCONT   00    00000000000          00000000000000000000000000000000000000000000 000000000000000A000000000000000000000000000000000000000000000 000000000000000000000000000000000000000     00000000                                                                                                                        000000000000000000
F0010000009065600005000090035510100013552100000000000000000201609010002001GRAINGER COLOMBIA S.A.S.                          D000000000219900000000000000000000100010010000000000000000000000F0010000009065600520160901000101 00000000000000000000000000000000000000000000000000000000000000000000000000000000000000000000000000000000000000000N 00000000000NCONT   00    00000000000          00000000000000000000000000000000000000000000 000000000000000A000000000000000000000000000000000000000000000 000000000000000000000000000000000000000     00000000                                                                                                                        000000000000000000
F0010000009065700001000081102758700013050500000000000000000201609010002001C.I. ABRACOL S.A EMA                              D000000069541600000000000000000000100010010000000000000000000000F0010000009065700120160901000101 00000000000000000000000000000000000000000000000000000000000000000000000000000000000000000000000000000000000000000N 00000000000NCONT   00    00000000000          00000000000000000000000000000000000000000000 000000000000000A000000000000000000000000000000000000000000000 000000000000000000000000000000000000000     00000000                                                                                                                        000000000000000000
F0010000009065700002000081102758700041450500000000000000000201609010002001C.I. ABRACOL S.A EMA                              C000000046120000000000000000000000100010010000000000000000000000F0010000009065700220160901000101 00000000000000000000000000000000000000000000000000000000000000000000000000000000000000000000000000000000000000000N 00000000000NCONT   00    00000000000          00000000000000000000000000000000000000000000 000000000000000A000000000000000000000000000000000000000000000 000000000000000000000000000000000000000     00000000                                                                                                                        000000000000000000
F0010000009065700003000081102758700041750100000000000000000201609010002001C.I. ABRACOL S.A EMA                              D000000001383600000000000000000000100010010000000000000000000000F0010000009065700320160901000101 00000000000000000000000000000000000000000000000000000000000000000000000000000000000000000000000000000000000000000N 00000000000NCONT   00    00000000000          00000000000000000000000000000000000000000000 000000000000000A000000000000000000000000000000000000000000000 000000000000000000000000000000000000000     00000000                                                                                                                        000000000000000000
F0010000009065700004000081102758700042505000000000000000000201609010002001C.I. ABRACOL S.A EMA                              C000000024805200000000000000000000100010010000000000000000000000F0010000009065700420160901000101 00000000000000000000000000000000000000000000000000000000000000000000000000000000000000000000000000000000000000000N 00000000000NCONT   00    00000000000          00000000000000000000000000000000000000000000 000000000000000A000000000000000000000000000000000000000000000 000000000000000000000000000000000000000     00000000                                                                                                                        000000000000000000
F0010000009065700005000081102758700023658300000000000000000201609010002001C.I. ABRACOL S.A EMA                              C000000000369000000000000000000000100010010000000000000000000000F0010000009065700520160901000101 00000000000000000000000000000000000000000000000000000000000000000000000000000000000000000000000000000000000000000N 00000000000NCONT   00    00000000000          00000000000000000000000000000000000000000000 000000000000000A000000000000000000000000000000000000000000000 000000000000000000000000000000000000000     00000000                                                                                                                        000000000000000000
F0010000009065700006000081102758700013552100000000000000000201609010002001C.I. ABRACOL S.A EMA                              D000000000369000000000000000000000100010010000000000000000000000F0010000009065700620160901000101 00000000000000000000000000000000000000000000000000000000000000000000000000000000000000000000000000000000000000000N 00000000000NCONT   00    00000000000          00000000000000000000000000000000000000000000 000000000000000A000000000000000000000000000000000000000000000 000000000000000000000000000000000000000     00000000                                                                                                                        000000000000000000
F0010000009065800001000081102758700013050500000000000000000201609010002001C.I. ABRACOL S.A EMA                              D000000073693000000000000000000000100010010000000000000000000000F0010000009065800120160901000101 00000000000000000000000000000000000000000000000000000000000000000000000000000000000000000000000000000000000000000N 00000000000NCONT   00    00000000000          00000000000000000000000000000000000000000000 000000000000000A000000000000000000000000000000000000000000000 000000000000000000000000000000000000000     00000000                                                                                                                        000000000000000000
F0010000009065800002000081102758700041450500000000000000000201609010002001C.I. ABRACOL S.A EMA                              C000000049790000000000000000000000100010010000000000000000000000F0010000009065800220160901000101 00000000000000000000000000000000000000000000000000000000000000000000000000000000000000000000000000000000000000000N 00000000000NCONT   00    00000000000          00000000000000000000000000000000000000000000 000000000000000A000000000000000000000000000000000000000000000 000000000000000000000000000000000000000     00000000                                                                                                                        000000000000000000
F0010000009065800003000081102758700041750100000000000000000201609010002001C.I. ABRACOL S.A EMA                              D000000001493700000000000000000000100010010000000000000000000000F0010000009065800320160901000101 00000000000000000000000000000000000000000000000000000000000000000000000000000000000000000000000000000000000000000N 00000000000NCONT   00    00000000000          00000000000000000000000000000000000000000000 000000000000000A000000000000000000000000000000000000000000000 000000000000000000000000000000000000000     00000000                                                                                                                        000000000000000000
F0010000009065800004000081102758700042505000000000000000000201609010002001C.I. ABRACOL S.A EMA                              C000000025396700000000000000000000100010010000000000000000000000F0010000009065800420160901000101 00000000000000000000000000000000000000000000000000000000000000000000000000000000000000000000000000000000000000000N 00000000000NCONT   00    00000000000          00000000000000000000000000000000000000000000 000000000000000A000000000000000000000000000000000000000000000 000000000000000000000000000000000000000     00000000                                                                                                                        000000000000000000
F0010000009065800005000081102758700023658300000000000000000201609010002001C.I. ABRACOL S.A EMA                              C000000000398300000000000000000000100010010000000000000000000000F0010000009065800520160901000101 00000000000000000000000000000000000000000000000000000000000000000000000000000000000000000000000000000000000000000N 00000000000NCONT   00    00000000000          00000000000000000000000000000000000000000000 000000000000000A000000000000000000000000000000000000000000000 000000000000000000000000000000000000000     00000000                                                                                                                        000000000000000000
F0010000009065800006000081102758700013552100000000000000000201609010002001C.I. ABRACOL S.A EMA                              D000000000398300000000000000000000100010010000000000000000000000F0010000009065800620160901000101 00000000000000000000000000000000000000000000000000000000000000000000000000000000000000000000000000000000000000000N 00000000000NCONT   00    00000000000          00000000000000000000000000000000000000000000 000000000000000A000000000000000000000000000000000000000000000 000000000000000000000000000000000000000     00000000                                                                                                                        000000000000000000
F0010000009065900001000090050144800011050500000000000000000201609010002001PLASTICOS JR ASOCIADOS SAS                        D000000003300000000000000000000000100010010000000000000000000000F0010000009065900120160901000101 00000000000000000000000000000000000000000000000000000000000000000000000000000000000000000000000000000000000000000N 00000000000NCONT   00    00000000000          00000000000000000000000000000000000000000000 000000000000000A000000000000000000000000000000000000000000000 000000000000000000000000000000000000000     00000000                                                                                                                        000000000000000000
F0010000009065900002000090050144800041450500000000000000000201609010002001PLASTICOS JR ASOCIADOS SAS                        C000000002900000000000000000000000100010010000000000000000000000F0010000009065900220160901000101 00000000000000000000000000000000000000000000000000000000000000000000000000000000000000000000000000000000000000000N 00000000000NCONT   00    00000000000          00000000000000000000000000000000000000000000 000000000000000A000000000000000000000000000000000000000000000 000000000000000000000000000000000000000     00000000                                                                                                                        000000000000000000
F0010000009065900003000090050144800042505000000000000000000201609010002001PLASTICOS JR ASOCIADOS SAS                        C000000000400000000000000000000000100010010000000000000000000000F0010000009065900320160901000101 00000000000000000000000000000000000000000000000000000000000000000000000000000000000000000000000000000000000000000N 00000000000NCONT   00    00000000000          00000000000000000000000000000000000000000000 000000000000000A000000000000000000000000000000000000000000000 000000000000000000000000000000000000000     00000000                                                                                                                        000000000000000000
F0010000009065900004000090050144800023658300000000000000000201609010002001PLASTICOS JR ASOCIADOS SAS                        C000000000023200000000000000000000100010010000000000000000000000F0010000009065900420160901000101 00000000000000000000000000000000000000000000000000000000000000000000000000000000000000000000000000000000000000000N 00000000000NCONT   00    00000000000          00000000000000000000000000000000000000000000 000000000000000A000000000000000000000000000000000000000000000 000000000000000000000000000000000000000     00000000                                                                                                                        000000000000000000
F0010000009065900005000090050144800013552100000000000000000201609010002001PLASTICOS JR ASOCIADOS SAS                        D000000000023200000000000000000000100010010000000000000000000000F0010000009065900520160901000101 00000000000000000000000000000000000000000000000000000000000000000000000000000000000000000000000000000000000000000N 00000000000NCONT   00    00000000000          00000000000000000000000000000000000000000000 000000000000000A000000000000000000000000000000000000000000000 000000000000000000000000000000000000000     00000000                                                                                                                        000000000000000000
F0010000009066000001000002245670100011050500000000000000000201609010002001YOLANDA  TOBON                                    D000000011000000000000000000000000100010010000000000000000000000F0010000009066000120160901000101 00000000000000000000000000000000000000000000000000000000000000000000000000000000000000000000000000000000000000000N 00000000000NCONT   00    00000000000          00000000000000000000000000000000000000000000 000000000000000A000000000000000000000000000000000000000000000 000000000000000000000000000000000000000     00000000                                                                                                                        000000000000000000
F0010000009066000002000002245670100041450500000000000000000201609010002001YOLANDA  TOBON                                    C000000007900000000000000000000000100010010000000000000000000000F0010000009066000220160901000101 00000000000000000000000000000000000000000000000000000000000000000000000000000000000000000000000000000000000000000N 00000000000NCONT   00    00000000000          00000000000000000000000000000000000000000000 000000000000000A000000000000000000000000000000000000000000000 000000000000000000000000000000000000000     00000000                                                                                                                        000000000000000000
F0010000009066000003000002245670100042505000000000000000000201609010002001YOLANDA  TOBON                                    C000000003100000000000000000000000100010010000000000000000000000F0010000009066000320160901000101 00000000000000000000000000000000000000000000000000000000000000000000000000000000000000000000000000000000000000000N 00000000000NCONT   00    00000000000          00000000000000000000000000000000000000000000 000000000000000A000000000000000000000000000000000000000000000 000000000000000000000000000000000000000     00000000                                                                                                                        000000000000000000
F0010000009066000004000002245670100023658300000000000000000201609010002001YOLANDA  TOBON                                    C000000000063200000000000000000000100010010000000000000000000000F0010000009066000420160901000101 00000000000000000000000000000000000000000000000000000000000000000000000000000000000000000000000000000000000000000N 00000000000NCONT   00    00000000000          00000000000000000000000000000000000000000000 000000000000000A000000000000000000000000000000000000000000000 000000000000000000000000000000000000000     00000000                                                                                                                        000000000000000000
F0010000009066000005000002245670100013552100000000000000000201609010002001YOLANDA  TOBON                                    D000000000063200000000000000000000100010010000000000000000000000F0010000009066000520160901000101 00000000000000000000000000000000000000000000000000000000000000000000000000000000000000000000000000000000000000000N 00000000000NCONT   00    00000000000          00000000000000000000000000000000000000000000 000000000000000A000000000000000000000000000000000000000000000 000000000000000000000000000000000000000     00000000                                                                                                                        000000000000000000
F0010000009066100001000080014190300011050500000000000000000201609010002001QUIMINSA LTDA                                     D000000000980000000000000000000000100010010000000000000000000000F0010000009066100120160901000101 00000000000000000000000000000000000000000000000000000000000000000000000000000000000000000000000000000000000000000N 00000000000NCONT   00    00000000000          00000000000000000000000000000000000000000000 000000000000000A000000000000000000000000000000000000000000000 000000000000000000000000000000000000000     00000000                                                                                                                        000000000000000000
F0010000009066100002000080014190300041450500000000000000000201609010002001QUIMINSA LTDA                                     C000000000920000000000000000000000100010010000000000000000000000F0010000009066100220160901000101 00000000000000000000000000000000000000000000000000000000000000000000000000000000000000000000000000000000000000000N 00000000000NCONT   00    00000000000          00000000000000000000000000000000000000000000 000000000000000A000000000000000000000000000000000000000000000 000000000000000000000000000000000000000     00000000                                                                                                                        000000000000000000
F0010000009066100003000080014190300042505000000000000000000201609010002001QUIMINSA LTDA                                     C000000000060000000000000000000000100010010000000000000000000000F0010000009066100320160901000101 00000000000000000000000000000000000000000000000000000000000000000000000000000000000000000000000000000000000000000N 00000000000NCONT   00    00000000000          00000000000000000000000000000000000000000000 000000000000000A000000000000000000000000000000000000000000000 000000000000000000000000000000000000000     00000000                                                                                                                        000000000000000000
F0010000009066100004000080014190300023658300000000000000000201609010002001QUIMINSA LTDA                                     C000000000007400000000000000000000100010010000000000000000000000F0010000009066100420160901000101 00000000000000000000000000000000000000000000000000000000000000000000000000000000000000000000000000000000000000000N 00000000000NCONT   00    00000000000          00000000000000000000000000000000000000000000 000000000000000A000000000000000000000000000000000000000000000 000000000000000000000000000000000000000     00000000                                                                                                                        000000000000000000
F0010000009066100005000080014190300013552100000000000000000201609010002001QUIMINSA LTDA                                     D000000000007400000000000000000000100010010000000000000000000000F0010000009066100520160901000101 00000000000000000000000000000000000000000000000000000000000000000000000000000000000000000000000000000000000000000N 00000000000NCONT   00    00000000000          00000000000000000000000000000000000000000000 000000000000000A000000000000000000000000000000000000000000000 000000000000000000000000000000000000000     00000000                                                                                                                        000000000000000000
F0010000009066200001000007229328500011050500000000000000000201609010002001PV ELECTRIC   DEL CARIBE                          D000000013200000000000000000000000100010010000000000000000000000F0010000009066200120160901000101 00000000000000000000000000000000000000000000000000000000000000000000000000000000000000000000000000000000000000000N 00000000000NCONT   00    00000000000          00000000000000000000000000000000000000000000 000000000000000A000000000000000000000000000000000000000000000 000000000000000000000000000000000000000     00000000                                                                                                                        000000000000000000
F0010000009066200002000007229328500041450500000000000000000201609010002001PV ELECTRIC   DEL CARIBE                          C000000012000000000000000000000000100010010000000000000000000000F0010000009066200220160901000101 00000000000000000000000000000000000000000000000000000000000000000000000000000000000000000000000000000000000000000N 00000000000NCONT   00    00000000000          00000000000000000000000000000000000000000000 000000000000000A000000000000000000000000000000000000000000000 000000000000000000000000000000000000000     00000000                                                                                                                        000000000000000000
F0010000009066200003000007229328500042505000000000000000000201609010002001PV ELECTRIC   DEL CARIBE                          C000000001200000000000000000000000100010010000000000000000000000F0010000009066200320160901000101 00000000000000000000000000000000000000000000000000000000000000000000000000000000000000000000000000000000000000000N 00000000000NCONT   00    00000000000          00000000000000000000000000000000000000000000 000000000000000A000000000000000000000000000000000000000000000 000000000000000000000000000000000000000     00000000                                                                                                                        000000000000000000
F0010000009066200004000007229328500023658300000000000000000201609010002001PV ELECTRIC   DEL CARIBE                          C000000000096000000000000000000000100010010000000000000000000000F0010000009066200420160901000101 00000000000000000000000000000000000000000000000000000000000000000000000000000000000000000000000000000000000000000N 00000000000NCONT   00    00000000000          00000000000000000000000000000000000000000000 000000000000000A000000000000000000000000000000000000000000000 000000000000000000000000000000000000000     00000000                                                                                                                        000000000000000000
F0010000009066200005000007229328500013552100000000000000000201609010002001PV ELECTRIC   DEL CARIBE                          D000000000096000000000000000000000100010010000000000000000000000F0010000009066200520160901000101 00000000000000000000000000000000000000000000000000000000000000000000000000000000000000000000000000000000000000000N 00000000000NCONT   00    00000000000          00000000000000000000000000000000000000000000 000000000000000A000000000000000000000000000000000000000000000 000000000000000000000000000000000000000     00000000                                                                                                                        000000000000000000
F0010000009066300001000007209766000011050500000000000000000201609010002001COMPRA VENTA MANANTIAL                            D000000011500000000000000000000000100010010000000000000000000000F0010000009066300120160901000101 00000000000000000000000000000000000000000000000000000000000000000000000000000000000000000000000000000000000000000N 00000000000NCONT   00    00000000000          00000000000000000000000000000000000000000000 000000000000000A000000000000000000000000000000000000000000000 000000000000000000000000000000000000000     00000000                                                                                                                        000000000000000000
F0010000009066300002000007209766000041450500000000000000000201609010002001COMPRA VENTA MANANTIAL                            C000000011000000000000000000000000100010010000000000000000000000F0010000009066300220160901000101 00000000000000000000000000000000000000000000000000000000000000000000000000000000000000000000000000000000000000000N 00000000000NCONT   00    00000000000          00000000000000000000000000000000000000000000 000000000000000A000000000000000000000000000000000000000000000 000000000000000000000000000000000000000     00000000                                                                                                                        000000000000000000
F0010000009066300003000007209766000042505000000000000000000201609010002001COMPRA VENTA MANANTIAL                            C000000000500000000000000000000000100010010000000000000000000000F0010000009066300320160901000101 00000000000000000000000000000000000000000000000000000000000000000000000000000000000000000000000000000000000000000N 00000000000NCONT   00    00000000000          00000000000000000000000000000000000000000000 000000000000000A000000000000000000000000000000000000000000000 000000000000000000000000000000000000000     00000000                                                                                                                        000000000000000000
F0010000009066300004000007209766000023658300000000000000000201609010002001COMPRA VENTA MANANTIAL                            C000000000088000000000000000000000100010010000000000000000000000F0010000009066300420160901000101 00000000000000000000000000000000000000000000000000000000000000000000000000000000000000000000000000000000000000000N 00000000000NCONT   00    00000000000          00000000000000000000000000000000000000000000 000000000000000A000000000000000000000000000000000000000000000 000000000000000000000000000000000000000     00000000                                                                                                                        000000000000000000
F0010000009066300005000007209766000013552100000000000000000201609010002001COMPRA VENTA MANANTIAL                            D000000000088000000000000000000000100010010000000000000000000000F0010000009066300520160901000101 00000000000000000000000000000000000000000000000000000000000000000000000000000000000000000000000000000000000000000N 00000000000NCONT   00    00000000000          00000000000000000000000000000000000000000000 000000000000000A000000000000000000000000000000000000000000000 000000000000000000000000000000000000000     00000000                                                                                                                        000000000000000000
F0010000009066400001000102390001700011050500000000000000000201609010002001LILIANA HERNANDEZ PINILLA                         D000000008000000000000000000000000100010010000000000000000000000F0010000009066400120160901000101 00000000000000000000000000000000000000000000000000000000000000000000000000000000000000000000000000000000000000000N 00000000000NCONT   00    00000000000          00000000000000000000000000000000000000000000 000000000000000A000000000000000000000000000000000000000000000 000000000000000000000000000000000000000     00000000                                                                                                                        000000000000000000
F0010000009066400002000102390001700041450500000000000000000201609010002001LILIANA HERNANDEZ PINILLA                         C000000006000000000000000000000000100010010000000000000000000000F0010000009066400220160901000101 00000000000000000000000000000000000000000000000000000000000000000000000000000000000000000000000000000000000000000N 00000000000NCONT   00    00000000000          00000000000000000000000000000000000000000000 000000000000000A000000000000000000000000000000000000000000000 000000000000000000000000000000000000000     00000000                                                                                                                        000000000000000000
F0010000009066400003000102390001700042505000000000000000000201609010002001LILIANA HERNANDEZ PINILLA                         C000000002000000000000000000000000100010010000000000000000000000F0010000009066400320160901000101 00000000000000000000000000000000000000000000000000000000000000000000000000000000000000000000000000000000000000000N 00000000000NCONT   00    00000000000          00000000000000000000000000000000000000000000 000000000000000A000000000000000000000000000000000000000000000 000000000000000000000000000000000000000     00000000                                                                                                                        000000000000000000
F0010000009066400004000102390001700023658300000000000000000201609010002001LILIANA HERNANDEZ PINILLA                         C000000000048000000000000000000000100010010000000000000000000000F0010000009066400420160901000101 00000000000000000000000000000000000000000000000000000000000000000000000000000000000000000000000000000000000000000N 00000000000NCONT   00    00000000000          00000000000000000000000000000000000000000000 000000000000000A000000000000000000000000000000000000000000000 000000000000000000000000000000000000000     00000000                                                                                                                        000000000000000000
F0010000009066400005000102390001700013552100000000000000000201609010002001LILIANA HERNANDEZ PINILLA                         D000000000048000000000000000000000100010010000000000000000000000F0010000009066400520160901000101 00000000000000000000000000000000000000000000000000000000000000000000000000000000000000000000000000000000000000000N 00000000000NCONT   00    00000000000          00000000000000000000000000000000000000000000 000000000000000A000000000000000000000000000000000000000000000 000000000000000000000000000000000000000     00000000                                                                                                                        000000000000000000
F0010000009066500001000102390001700011050500000000000000000201609010002001LILIANA HERNANDEZ PINILLA                         D000000001500000000000000000000000100010010000000000000000000000F0010000009066500120160901000101 00000000000000000000000000000000000000000000000000000000000000000000000000000000000000000000000000000000000000000N 00000000000NCONT   00    00000000000          00000000000000000000000000000000000000000000 000000000000000A000000000000000000000000000000000000000000000 000000000000000000000000000000000000000     00000000                                                                                                                        000000000000000000
F0010000009066500002000102390001700041450500000000000000000201609010002001LILIANA HERNANDEZ PINILLA                         C000000001000000000000000000000000100010010000000000000000000000F0010000009066500220160901000101 00000000000000000000000000000000000000000000000000000000000000000000000000000000000000000000000000000000000000000N 00000000000NCONT   00    00000000000          00000000000000000000000000000000000000000000 000000000000000A000000000000000000000000000000000000000000000 000000000000000000000000000000000000000     00000000                                                                                                                        000000000000000000
F0010000009066500003000102390001700042505000000000000000000201609010002001LILIANA HERNANDEZ PINILLA                         C000000000500000000000000000000000100010010000000000000000000000F0010000009066500320160901000101 00000000000000000000000000000000000000000000000000000000000000000000000000000000000000000000000000000000000000000N 00000000000NCONT   00    00000000000          00000000000000000000000000000000000000000000 000000000000000A000000000000000000000000000000000000000000000 000000000000000000000000000000000000000     00000000                                                                                                                        000000000000000000
F0010000009066500004000102390001700023658300000000000000000201609010002001LILIANA HERNANDEZ PINILLA                         C000000000008000000000000000000000100010010000000000000000000000F0010000009066500420160901000101 00000000000000000000000000000000000000000000000000000000000000000000000000000000000000000000000000000000000000000N 00000000000NCONT   00    00000000000          00000000000000000000000000000000000000000000 000000000000000A000000000000000000000000000000000000000000000 000000000000000000000000000000000000000     00000000                                                                                                                        000000000000000000
F0010000009066500005000102390001700013552100000000000000000201609010002001LILIANA HERNANDEZ PINILLA                         D000000000008000000000000000000000100010010000000000000000000000F0010000009066500520160901000101 00000000000000000000000000000000000000000000000000000000000000000000000000000000000000000000000000000000000000000N 00000000000NCONT   00    00000000000          00000000000000000000000000000000000000000000 000000000000000A000000000000000000000000000000000000000000000 000000000000000000000000000000000000000     00000000                                                                                                                        000000000000000000
F0010000009066600001000080202350700011050500000000000000000201609010002001CONNY DE LA COSTA SAS                             D000000001350000000000000000000000100010010000000000000000000000F0010000009066600120160901000101 00000000000000000000000000000000000000000000000000000000000000000000000000000000000000000000000000000000000000000N 00000000000NCONT   00    00000000000          00000000000000000000000000000000000000000000 000000000000000A000000000000000000000000000000000000000000000 000000000000000000000000000000000000000     00000000                                                                                                                        000000000000000000
F0010000009066600002000080202350700041450500000000000000000201609010002001CONNY DE LA COSTA SAS                             C000000000850000000000000000000000100010010000000000000000000000F0010000009066600220160901000101 00000000000000000000000000000000000000000000000000000000000000000000000000000000000000000000000000000000000000000N 00000000000NCONT   00    00000000000          00000000000000000000000000000000000000000000 000000000000000A000000000000000000000000000000000000000000000 000000000000000000000000000000000000000     00000000                                                                                                                        000000000000000000
F0010000009066600003000080202350700042505000000000000000000201609010002001CONNY DE LA COSTA SAS                             C000000000500000000000000000000000100010010000000000000000000000F0010000009066600320160901000101 00000000000000000000000000000000000000000000000000000000000000000000000000000000000000000000000000000000000000000N 00000000000NCONT   00    00000000000          00000000000000000000000000000000000000000000 000000000000000A000000000000000000000000000000000000000000000 000000000000000000000000000000000000000     00000000                                                                                                                        000000000000000000
F0010000009066600004000080202350700023658300000000000000000201609010002001CONNY DE LA COSTA SAS                             C000000000006800000000000000000000100010010000000000000000000000F0010000009066600420160901000101 00000000000000000000000000000000000000000000000000000000000000000000000000000000000000000000000000000000000000000N 00000000000NCONT   00    00000000000          00000000000000000000000000000000000000000000 000000000000000A000000000000000000000000000000000000000000000 000000000000000000000000000000000000000     00000000                                                                                                                        000000000000000000
F0010000009066600005000080202350700013552100000000000000000201609010002001CONNY DE LA COSTA SAS                             D000000000006800000000000000000000100010010000000000000000000000F0010000009066600520160901000101 00000000000000000000000000000000000000000000000000000000000000000000000000000000000000000000000000000000000000000N 00000000000NCONT   00    00000000000          00000000000000000000000000000000000000000000 000000000000000A000000000000000000000000000000000000000000000 000000000000000000000000000000000000000     00000000                                                                                                                        000000000000000000
F0010000009066700001000003129177700011050500000000000000000201609010002001GLORIA STELLA ORDOÑEZ REALPE                     D000000004800000000000000000000000100010010000000000000000000000F0010000009066700120160901000101 00000000000000000000000000000000000000000000000000000000000000000000000000000000000000000000000000000000000000000N 00000000000NCONT   00    00000000000          00000000000000000000000000000000000000000000 000000000000000A000000000000000000000000000000000000000000000 000000000000000000000000000000000000000     00000000                                                                                                                        000000000000000000
F0010000009066700002000003129177700041450500000000000000000201609010002001GLORIA STELLA ORDOÑEZ REALPE                     C000000003800000000000000000000000100010010000000000000000000000F0010000009066700220160901000101 00000000000000000000000000000000000000000000000000000000000000000000000000000000000000000000000000000000000000000N 00000000000NCONT   00    00000000000          00000000000000000000000000000000000000000000 000000000000000A000000000000000000000000000000000000000000000 000000000000000000000000000000000000000     00000000                                                                                                                        000000000000000000
F0010000009066700003000003129177700042505000000000000000000201609010002001GLORIA STELLA ORDOÑEZ REALPE                     C000000001000000000000000000000000100010010000000000000000000000F0010000009066700320160901000101 00000000000000000000000000000000000000000000000000000000000000000000000000000000000000000000000000000000000000000N 00000000000NCONT   00    00000000000          00000000000000000000000000000000000000000000 000000000000000A000000000000000000000000000000000000000000000 000000000000000000000000000000000000000     00000000                                                                                                                        000000000000000000
F0010000009066700004000003129177700023658300000000000000000201609010002001GLORIA STELLA ORDOÑEZ REALPE                     C000000000030400000000000000000000100010010000000000000000000000F0010000009066700420160901000101 00000000000000000000000000000000000000000000000000000000000000000000000000000000000000000000000000000000000000000N 00000000000NCONT   00    00000000000          00000000000000000000000000000000000000000000 000000000000000A000000000000000000000000000000000000000000000 000000000000000000000000000000000000000     00000000                                                                                                                        000000000000000000
F0010000009066700005000003129177700013552100000000000000000201609010002001GLORIA STELLA ORDOÑEZ REALPE                     D000000000030400000000000000000000100010010000000000000000000000F0010000009066700520160901000101 00000000000000000000000000000000000000000000000000000000000000000000000000000000000000000000000000000000000000000N 00000000000NCONT   00    00000000000          00000000000000000000000000000000000000000000 000000000000000A000000000000000000000000000000000000000000000 000000000000000000000000000000000000000     00000000                                                                                                                        000000000000000000
F0010000009066800001000102390001700011050500000000000000000201609010002001LILIANA HERNANDEZ PINILLA                         D000000004000000000000000000000000100010010000000000000000000000F0010000009066800120160901000101 00000000000000000000000000000000000000000000000000000000000000000000000000000000000000000000000000000000000000000N 00000000000NCONT   00    00000000000          00000000000000000000000000000000000000000000 000000000000000A000000000000000000000000000000000000000000000 000000000000000000000000000000000000000     00000000                                                                                                                        000000000000000000
F0010000009066800002000102390001700041450500000000000000000201609010002001LILIANA HERNANDEZ PINILLA                         C000000003000000000000000000000000100010010000000000000000000000F0010000009066800220160901000101 00000000000000000000000000000000000000000000000000000000000000000000000000000000000000000000000000000000000000000N 00000000000NCONT   00    00000000000          00000000000000000000000000000000000000000000 000000000000000A000000000000000000000000000000000000000000000 000000000000000000000000000000000000000     00000000                                                                                                                        000000000000000000
F0010000009066800003000102390001700042505000000000000000000201609010002001LILIANA HERNANDEZ PINILLA                         C000000001000000000000000000000000100010010000000000000000000000F0010000009066800320160901000101 00000000000000000000000000000000000000000000000000000000000000000000000000000000000000000000000000000000000000000N 00000000000NCONT   00    00000000000          00000000000000000000000000000000000000000000 000000000000000A000000000000000000000000000000000000000000000 000000000000000000000000000000000000000     00000000                                                                                                                        000000000000000000
F0010000009066800004000102390001700023658300000000000000000201609010002001LILIANA HERNANDEZ PINILLA                         C000000000024000000000000000000000100010010000000000000000000000F0010000009066800420160901000101 00000000000000000000000000000000000000000000000000000000000000000000000000000000000000000000000000000000000000000N 00000000000NCONT   00    00000000000          00000000000000000000000000000000000000000000 000000000000000A000000000000000000000000000000000000000000000 000000000000000000000000000000000000000     00000000                                                                                                                        000000000000000000
F0010000009066800005000102390001700013552100000000000000000201609010002001LILIANA HERNANDEZ PINILLA                         D000000000024000000000000000000000100010010000000000000000000000F0010000009066800520160901000101 00000000000000000000000000000000000000000000000000000000000000000000000000000000000000000000000000000000000000000N 00000000000NCONT   00    00000000000          00000000000000000000000000000000000000000000 000000000000000A000000000000000000000000000000000000000000000 000000000000000000000000000000000000000     00000000                                                                                                                        000000000000000000
F0010000009066900001000102390001700011050500000000000000000201609010002001LILIANA HERNANDEZ PINILLA                         D000000002000000000000000000000000100010010000000000000000000000F0010000009066900120160901000101 00000000000000000000000000000000000000000000000000000000000000000000000000000000000000000000000000000000000000000N 00000000000NCONT   00    00000000000          00000000000000000000000000000000000000000000 000000000000000A000000000000000000000000000000000000000000000 000000000000000000000000000000000000000     00000000                                                                                                                        000000000000000000
F0010000009066900002000102390001700041450500000000000000000201609010002001LILIANA HERNANDEZ PINILLA                         C000000001500000000000000000000000100010010000000000000000000000F0010000009066900220160901000101 00000000000000000000000000000000000000000000000000000000000000000000000000000000000000000000000000000000000000000N 00000000000NCONT   00    00000000000          00000000000000000000000000000000000000000000 000000000000000A000000000000000000000000000000000000000000000 000000000000000000000000000000000000000     00000000                                                                                                                        000000000000000000
F0010000009066900003000102390001700042505000000000000000000201609010002001LILIANA HERNANDEZ PINILLA                         C000000000500000000000000000000000100010010000000000000000000000F0010000009066900320160901000101 00000000000000000000000000000000000000000000000000000000000000000000000000000000000000000000000000000000000000000N 00000000000NCONT   00    00000000000          00000000000000000000000000000000000000000000 000000000000000A000000000000000000000000000000000000000000000 000000000000000000000000000000000000000     00000000                                                                                                                        000000000000000000
F0010000009066900004000102390001700023658300000000000000000201609010002001LILIANA HERNANDEZ PINILLA                         C000000000012000000000000000000000100010010000000000000000000000F0010000009066900420160901000101 00000000000000000000000000000000000000000000000000000000000000000000000000000000000000000000000000000000000000000N 00000000000NCONT   00    00000000000          00000000000000000000000000000000000000000000 000000000000000A000000000000000000000000000000000000000000000 000000000000000000000000000000000000000     00000000                                                                                                                        000000000000000000
F0010000009066900005000102390001700013552100000000000000000201609010002001LILIANA HERNANDEZ PINILLA                         D000000000012000000000000000000000100010010000000000000000000000F0010000009066900520160901000101 00000000000000000000000000000000000000000000000000000000000000000000000000000000000000000000000000000000000000000N 00000000000NCONT   00    00000000000          00000000000000000000000000000000000000000000 000000000000000A000000000000000000000000000000000000000000000 000000000000000000000000000000000000000     00000000                                                                                                                        000000000000000000
F0010000009067000001000102390001700011050500000000000000000201609010002001LILIANA HERNANDEZ PINILLA                         D000000001500000000000000000000000100010010000000000000000000000F0010000009067000120160901000101 00000000000000000000000000000000000000000000000000000000000000000000000000000000000000000000000000000000000000000N 00000000000NCONT   00    00000000000          00000000000000000000000000000000000000000000 000000000000000A000000000000000000000000000000000000000000000 000000000000000000000000000000000000000     00000000                                                                                                                        000000000000000000
F0010000009067000002000102390001700041450500000000000000000201609010002001LILIANA HERNANDEZ PINILLA                         C000000001000000000000000000000000100010010000000000000000000000F0010000009067000220160901000101 00000000000000000000000000000000000000000000000000000000000000000000000000000000000000000000000000000000000000000N 00000000000NCONT   00    00000000000          00000000000000000000000000000000000000000000 000000000000000A000000000000000000000000000000000000000000000 000000000000000000000000000000000000000     00000000                                                                                                                        000000000000000000
F0010000009067000003000102390001700042505000000000000000000201609010002001LILIANA HERNANDEZ PINILLA                         C000000000500000000000000000000000100010010000000000000000000000F0010000009067000320160901000101 00000000000000000000000000000000000000000000000000000000000000000000000000000000000000000000000000000000000000000N 00000000000NCONT   00    00000000000          00000000000000000000000000000000000000000000 000000000000000A000000000000000000000000000000000000000000000 000000000000000000000000000000000000000     00000000                                                                                                                        000000000000000000
F0010000009067000004000102390001700023658300000000000000000201609010002001LILIANA HERNANDEZ PINILLA                         C000000000008000000000000000000000100010010000000000000000000000F0010000009067000420160901000101 00000000000000000000000000000000000000000000000000000000000000000000000000000000000000000000000000000000000000000N 00000000000NCONT   00    00000000000          00000000000000000000000000000000000000000000 000000000000000A000000000000000000000000000000000000000000000 000000000000000000000000000000000000000     00000000                                                                                                                        000000000000000000
F0010000009067000005000102390001700013552100000000000000000201609010002001LILIANA HERNANDEZ PINILLA                         D000000000008000000000000000000000100010010000000000000000000000F0010000009067000520160901000101 00000000000000000000000000000000000000000000000000000000000000000000000000000000000000000000000000000000000000000N 00000000000NCONT   00    00000000000          00000000000000000000000000000000000000000000 000000000000000A000000000000000000000000000000000000000000000 000000000000000000000000000000000000000     00000000                                                                                                                        000000000000000000
F0010000009067100001000003287795000011050500000000000000000201609010002001COMERCIALIZADORA KUZMAR                           D000000001500000000000000000000000100010010000000000000000000000F0010000009067100120160901000101 00000000000000000000000000000000000000000000000000000000000000000000000000000000000000000000000000000000000000000N 00000000000NCONT   00    00000000000          00000000000000000000000000000000000000000000 000000000000000A000000000000000000000000000000000000000000000 000000000000000000000000000000000000000     00000000                                                                                                                        000000000000000000
F0010000009067100002000003287795000041450500000000000000000201609010002001COMERCIALIZADORA KUZMAR                           C000000001300000000000000000000000100010010000000000000000000000F0010000009067100220160901000101 00000000000000000000000000000000000000000000000000000000000000000000000000000000000000000000000000000000000000000N 00000000000NCONT   00    00000000000          00000000000000000000000000000000000000000000 000000000000000A000000000000000000000000000000000000000000000 000000000000000000000000000000000000000     00000000                                                                                                                        000000000000000000
F0010000009067100003000003287795000042505000000000000000000201609010002001COMERCIALIZADORA KUZMAR                           C000000000200000000000000000000000100010010000000000000000000000F0010000009067100320160901000101 00000000000000000000000000000000000000000000000000000000000000000000000000000000000000000000000000000000000000000N 00000000000NCONT   00    00000000000          00000000000000000000000000000000000000000000 000000000000000A000000000000000000000000000000000000000000000 000000000000000000000000000000000000000     00000000                                                                                                                        000000000000000000
F0010000009067100004000003287795000023658300000000000000000201609010002001COMERCIALIZADORA KUZMAR                           C000000000010400000000000000000000100010010000000000000000000000F0010000009067100420160901000101 00000000000000000000000000000000000000000000000000000000000000000000000000000000000000000000000000000000000000000N 00000000000NCONT   00    00000000000          00000000000000000000000000000000000000000000 000000000000000A000000000000000000000000000000000000000000000 000000000000000000000000000000000000000     00000000                                                                                                                        000000000000000000
F0010000009067100005000003287795000013552100000000000000000201609010002001COMERCIALIZADORA KUZMAR                           D000000000010400000000000000000000100010010000000000000000000000F0010000009067100520160901000101 00000000000000000000000000000000000000000000000000000000000000000000000000000000000000000000000000000000000000000N 00000000000NCONT   00    00000000000          00000000000000000000000000000000000000000000 000000000000000A000000000000000000000000000000000000000000000 000000000000000000000000000000000000000     00000000                                                                                                                        000000000000000000
F0010000009067200001000080000466300011050500000000000000000201609010002001MIL HERRAJES S.A                                  D000000002900000000000000000000000100010010000000000000000000000F0010000009067200120160901000101 00000000000000000000000000000000000000000000000000000000000000000000000000000000000000000000000000000000000000000N 00000000000NCONT   00    00000000000          00000000000000000000000000000000000000000000 000000000000000A000000000000000000000000000000000000000000000 000000000000000000000000000000000000000     00000000                                                                                                                        000000000000000000
F0010000009067200002000080000466300041450500000000000000000201609010002001MIL HERRAJES S.A                                  C000000001900000000000000000000000100010010000000000000000000000F0010000009067200220160901000101 00000000000000000000000000000000000000000000000000000000000000000000000000000000000000000000000000000000000000000N 00000000000NCONT   00    00000000000          00000000000000000000000000000000000000000000 000000000000000A000000000000000000000000000000000000000000000 000000000000000000000000000000000000000     00000000                                                                                                                        000000000000000000
F0010000009067200003000080000466300042505000000000000000000201609010002001MIL HERRAJES S.A                                  C000000001000000000000000000000000100010010000000000000000000000F0010000009067200320160901000101 00000000000000000000000000000000000000000000000000000000000000000000000000000000000000000000000000000000000000000N 00000000000NCONT   00    00000000000          00000000000000000000000000000000000000000000 000000000000000A000000000000000000000000000000000000000000000 000000000000000000000000000000000000000     00000000                                                                                                                        000000000000000000
F0010000009067200004000080000466300023658300000000000000000201609010002001MIL HERRAJES S.A                                  C000000000015200000000000000000000100010010000000000000000000000F0010000009067200420160901000101 00000000000000000000000000000000000000000000000000000000000000000000000000000000000000000000000000000000000000000N 00000000000NCONT   00    00000000000          00000000000000000000000000000000000000000000 000000000000000A000000000000000000000000000000000000000000000 000000000000000000000000000000000000000     00000000                                                                                                                        000000000000000000
F0010000009067200005000080000466300013552100000000000000000201609010002001MIL HERRAJES S.A                                  D000000000015200000000000000000000100010010000000000000000000000F0010000009067200520160901000101 00000000000000000000000000000000000000000000000000000000000000000000000000000000000000000000000000000000000000000N 00000000000NCONT   00    00000000000          00000000000000000000000000000000000000000000 000000000000000A000000000000000000000000000000000000000000000 000000000000000000000000000000000000000     00000000                                                                                                                        000000000000000000
F0010000009067300001000089031248700011050500000000000000000201609010002001DISTRIBUIDORA CALIPLASTICOS LTDA                  D000000006150000000000000000000000100010010000000000000000000000F0010000009067300120160901000101 00000000000000000000000000000000000000000000000000000000000000000000000000000000000000000000000000000000000000000N 00000000000NCONT   00    00000000000          00000000000000000000000000000000000000000000 000000000000000A000000000000000000000000000000000000000000000 000000000000000000000000000000000000000     00000000                                                                                                                        000000000000000000
F0010000009067300002000089031248700041450500000000000000000201609010002001DISTRIBUIDORA CALIPLASTICOS LTDA                  C000000006000000000000000000000000100010010000000000000000000000F0010000009067300220160901000101 00000000000000000000000000000000000000000000000000000000000000000000000000000000000000000000000000000000000000000N 00000000000NCONT   00    00000000000          00000000000000000000000000000000000000000000 000000000000000A000000000000000000000000000000000000000000000 000000000000000000000000000000000000000     00000000                                                                                                                        000000000000000000
F0010000009067300003000089031248700042505000000000000000000201609010002001DISTRIBUIDORA CALIPLASTICOS LTDA                  C000000000150000000000000000000000100010010000000000000000000000F0010000009067300320160901000101 00000000000000000000000000000000000000000000000000000000000000000000000000000000000000000000000000000000000000000N 00000000000NCONT   00    00000000000          00000000000000000000000000000000000000000000 000000000000000A000000000000000000000000000000000000000000000 000000000000000000000000000000000000000     00000000                                                                                                                        000000000000000000
F0010000009067300004000089031248700023658300000000000000000201609010002001DISTRIBUIDORA CALIPLASTICOS LTDA                  C000000000048000000000000000000000100010010000000000000000000000F0010000009067300420160901000101 00000000000000000000000000000000000000000000000000000000000000000000000000000000000000000000000000000000000000000N 00000000000NCONT   00    00000000000          00000000000000000000000000000000000000000000 000000000000000A000000000000000000000000000000000000000000000 000000000000000000000000000000000000000     00000000                                                                                                                        000000000000000000
F0010000009067300005000089031248700013552100000000000000000201609010002001DISTRIBUIDORA CALIPLASTICOS LTDA                  D000000000048000000000000000000000100010010000000000000000000000F0010000009067300520160901000101 00000000000000000000000000000000000000000000000000000000000000000000000000000000000000000000000000000000000000000N 00000000000NCONT   00    00000000000          00000000000000000000000000000000000000000000 000000000000000A000000000000000000000000000000000000000000000 000000000000000000000000000000000000000     00000000                                                                                                                        000000000000000000
F0010000009067400001000090037881900011050500000000000000000201609010002001COMERCIALIZADORA RACOPI S.A.S                     D000000001360000000000000000000000100010010000000000000000000000F0010000009067400120160901000101 00000000000000000000000000000000000000000000000000000000000000000000000000000000000000000000000000000000000000000N 00000000000NCONT   00    00000000000          00000000000000000000000000000000000000000000 000000000000000A000000000000000000000000000000000000000000000 000000000000000000000000000000000000000     00000000                                                                                                                        000000000000000000
F0010000009067400002000090037881900041450500000000000000000201609010002001COMERCIALIZADORA RACOPI S.A.S                     C000000001160000000000000000000000100010010000000000000000000000F0010000009067400220160901000101 00000000000000000000000000000000000000000000000000000000000000000000000000000000000000000000000000000000000000000N 00000000000NCONT   00    00000000000          00000000000000000000000000000000000000000000 000000000000000A000000000000000000000000000000000000000000000 000000000000000000000000000000000000000     00000000                                                                                                                        000000000000000000
F0010000009067400003000090037881900042505000000000000000000201609010002001COMERCIALIZADORA RACOPI S.A.S                     C000000000200000000000000000000000100010010000000000000000000000F0010000009067400320160901000101 00000000000000000000000000000000000000000000000000000000000000000000000000000000000000000000000000000000000000000N 00000000000NCONT   00    00000000000          00000000000000000000000000000000000000000000 000000000000000A000000000000000000000000000000000000000000000 000000000000000000000000000000000000000     00000000                                                                                                                        000000000000000000
F0010000009067400004000090037881900023658300000000000000000201609010002001COMERCIALIZADORA RACOPI S.A.S                     C000000000009300000000000000000000100010010000000000000000000000F0010000009067400420160901000101 00000000000000000000000000000000000000000000000000000000000000000000000000000000000000000000000000000000000000000N 00000000000NCONT   00    00000000000          00000000000000000000000000000000000000000000 000000000000000A000000000000000000000000000000000000000000000 000000000000000000000000000000000000000     00000000                                                                                                                        000000000000000000
F0010000009067400005000090037881900013552100000000000000000201609010002001COMERCIALIZADORA RACOPI S.A.S                     D000000000009300000000000000000000100010010000000000000000000000F0010000009067400520160901000101 00000000000000000000000000000000000000000000000000000000000000000000000000000000000000000000000000000000000000000N 00000000000NCONT   00    00000000000          00000000000000000000000000000000000000000000 000000000000000A000000000000000000000000000000000000000000000 000000000000000000000000000000000000000     00000000                                                                                                                        000000000000000000
F0010000009067500001000102390001700011050500000000000000000201609010002001LILIANA HERNANDEZ PINILLA                         D000000001400000000000000000000000100010010000000000000000000000F0010000009067500120160901000101 00000000000000000000000000000000000000000000000000000000000000000000000000000000000000000000000000000000000000000N 00000000000NCONT   00    00000000000          00000000000000000000000000000000000000000000 000000000000000A000000000000000000000000000000000000000000000 000000000000000000000000000000000000000     00000000                                                                                                                        000000000000000000
F0010000009067500002000102390001700041450500000000000000000201609010002001LILIANA HERNANDEZ PINILLA                         C000000001200000000000000000000000100010010000000000000000000000F0010000009067500220160901000101 00000000000000000000000000000000000000000000000000000000000000000000000000000000000000000000000000000000000000000N 00000000000NCONT   00    00000000000          00000000000000000000000000000000000000000000 000000000000000A000000000000000000000000000000000000000000000 000000000000000000000000000000000000000     00000000                                                                                                                        000000000000000000
F0010000009067500003000102390001700042505000000000000000000201609010002001LILIANA HERNANDEZ PINILLA                         C000000000200000000000000000000000100010010000000000000000000000F0010000009067500320160901000101 00000000000000000000000000000000000000000000000000000000000000000000000000000000000000000000000000000000000000000N 00000000000NCONT   00    00000000000          00000000000000000000000000000000000000000000 000000000000000A000000000000000000000000000000000000000000000 000000000000000000000000000000000000000     00000000                                                                                                                        000000000000000000
F0010000009067500004000102390001700023658300000000000000000201609010002001LILIANA HERNANDEZ PINILLA                         C000000000009600000000000000000000100010010000000000000000000000F0010000009067500420160901000101 00000000000000000000000000000000000000000000000000000000000000000000000000000000000000000000000000000000000000000N 00000000000NCONT   00    00000000000          00000000000000000000000000000000000000000000 000000000000000A000000000000000000000000000000000000000000000 000000000000000000000000000000000000000     00000000                                                                                                                        000000000000000000
F0010000009067500005000102390001700013552100000000000000000201609010002001LILIANA HERNANDEZ PINILLA                         D000000000009600000000000000000000100010010000000000000000000000F0010000009067500520160901000101 00000000000000000000000000000000000000000000000000000000000000000000000000000000000000000000000000000000000000000N 00000000000NCONT   00    00000000000          00000000000000000000000000000000000000000000 000000000000000A000000000000000000000000000000000000000000000 000000000000000000000000000000000000000     00000000                                                                                                                        000000000000000000
F0010000009067600001000089031248700011050500000000000000000201609010002001DISTRIBUIDORA CALIPLASTICOS LTDA                  D000000001187300000000000000000000100010010000000000000000000000F0010000009067600120160901000101 00000000000000000000000000000000000000000000000000000000000000000000000000000000000000000000000000000000000000000N 00000000000NCONT   00    00000000000          00000000000000000000000000000000000000000000 000000000000000A000000000000000000000000000000000000000000000 000000000000000000000000000000000000000     00000000                                                                                                                        000000000000000000
F0010000009067600002000089031248700041450500000000000000000201609010002001DISTRIBUIDORA CALIPLASTICOS LTDA                  C000000001037300000000000000000000100010010000000000000000000000F0010000009067600220160901000101 00000000000000000000000000000000000000000000000000000000000000000000000000000000000000000000000000000000000000000N 00000000000NCONT   00    00000000000          00000000000000000000000000000000000000000000 000000000000000A000000000000000000000000000000000000000000000 000000000000000000000000000000000000000     00000000                                                                                                                        000000000000000000
F0010000009067600003000089031248700042505000000000000000000201609010002001DISTRIBUIDORA CALIPLASTICOS LTDA                  C000000000150000000000000000000000100010010000000000000000000000F0010000009067600320160901000101 00000000000000000000000000000000000000000000000000000000000000000000000000000000000000000000000000000000000000000N 00000000000NCONT   00    00000000000          00000000000000000000000000000000000000000000 000000000000000A000000000000000000000000000000000000000000000 000000000000000000000000000000000000000     00000000                                                                                                                        000000000000000000
F0010000009067600004000089031248700023658300000000000000000201609010002001DISTRIBUIDORA CALIPLASTICOS LTDA                  C000000000008300000000000000000000100010010000000000000000000000F0010000009067600420160901000101 00000000000000000000000000000000000000000000000000000000000000000000000000000000000000000000000000000000000000000N 00000000000NCONT   00    00000000000          00000000000000000000000000000000000000000000 000000000000000A000000000000000000000000000000000000000000000 000000000000000000000000000000000000000     00000000                                                                                                                        000000000000000000
F0010000009067600005000089031248700013552100000000000000000201609010002001DISTRIBUIDORA CALIPLASTICOS LTDA                  D000000000008300000000000000000000100010010000000000000000000000F0010000009067600520160901000101 00000000000000000000000000000000000000000000000000000000000000000000000000000000000000000000000000000000000000000N 00000000000NCONT   00    00000000000          00000000000000000000000000000000000000000000 000000000000000A000000000000000000000000000000000000000000000 000000000000000000000000000000000000000     00000000                                                                                                                        000000000000000000
F0010000009067700001000001719393900011050500000000000000000201609010002001JAIRO BASTIDAS RAMIREZ                            D000000001900000000000000000000000100010010000000000000000000000F0010000009067700120160901000101 00000000000000000000000000000000000000000000000000000000000000000000000000000000000000000000000000000000000000000N 00000000000NCONT   00    00000000000          00000000000000000000000000000000000000000000 000000000000000A000000000000000000000000000000000000000000000 000000000000000000000000000000000000000     00000000                                                                                                                        000000000000000000
F0010000009067700002000001719393900041450500000000000000000201609010002001JAIRO BASTIDAS RAMIREZ                            C000000001800000000000000000000000100010010000000000000000000000F0010000009067700220160901000101 00000000000000000000000000000000000000000000000000000000000000000000000000000000000000000000000000000000000000000N 00000000000NCONT   00    00000000000          00000000000000000000000000000000000000000000 000000000000000A000000000000000000000000000000000000000000000 000000000000000000000000000000000000000     00000000                                                                                                                        000000000000000000
F0010000009067700003000001719393900042505000000000000000000201609010002001JAIRO BASTIDAS RAMIREZ                            C000000000100000000000000000000000100010010000000000000000000000F0010000009067700320160901000101 00000000000000000000000000000000000000000000000000000000000000000000000000000000000000000000000000000000000000000N 00000000000NCONT   00    00000000000          00000000000000000000000000000000000000000000 000000000000000A000000000000000000000000000000000000000000000 000000000000000000000000000000000000000     00000000                                                                                                                        000000000000000000
F0010000009067700004000001719393900023658300000000000000000201609010002001JAIRO BASTIDAS RAMIREZ                            C000000000014400000000000000000000100010010000000000000000000000F0010000009067700420160901000101 00000000000000000000000000000000000000000000000000000000000000000000000000000000000000000000000000000000000000000N 00000000000NCONT   00    00000000000          00000000000000000000000000000000000000000000 000000000000000A000000000000000000000000000000000000000000000 000000000000000000000000000000000000000     00000000                                                                                                                        000000000000000000
F0010000009067700005000001719393900013552100000000000000000201609010002001JAIRO BASTIDAS RAMIREZ                            D000000000014400000000000000000000100010010000000000000000000000F0010000009067700520160901000101 00000000000000000000000000000000000000000000000000000000000000000000000000000000000000000000000000000000000000000N 00000000000NCONT   00    00000000000          00000000000000000000000000000000000000000000 000000000000000A000000000000000000000000000000000000000000000 000000000000000000000000000000000000000     00000000                                                                                                                        000000000000000000
F0010000009067800001000001719393900011050500000000000000000201609010002001JAIRO BASTIDAS RAMIREZ                            D000000005100000000000000000000000100010010000000000000000000000F0010000009067800120160901000101 00000000000000000000000000000000000000000000000000000000000000000000000000000000000000000000000000000000000000000N 00000000000NCONT   00    00000000000          00000000000000000000000000000000000000000000 000000000000000A000000000000000000000000000000000000000000000 000000000000000000000000000000000000000     00000000                                                                                                                        000000000000000000
F0010000009067800002000001719393900041450500000000000000000201609010002001JAIRO BASTIDAS RAMIREZ                            C000000004800000000000000000000000100010010000000000000000000000F0010000009067800220160901000101 00000000000000000000000000000000000000000000000000000000000000000000000000000000000000000000000000000000000000000N 00000000000NCONT   00    00000000000          00000000000000000000000000000000000000000000 000000000000000A000000000000000000000000000000000000000000000 000000000000000000000000000000000000000     00000000                                                                                                                        000000000000000000
F0010000009067800003000001719393900042505000000000000000000201609010002001JAIRO BASTIDAS RAMIREZ                            C000000000300000000000000000000000100010010000000000000000000000F0010000009067800320160901000101 00000000000000000000000000000000000000000000000000000000000000000000000000000000000000000000000000000000000000000N 00000000000NCONT   00    00000000000          00000000000000000000000000000000000000000000 000000000000000A000000000000000000000000000000000000000000000 000000000000000000000000000000000000000     00000000                                                                                                                        000000000000000000
F0010000009067800004000001719393900023658300000000000000000201609010002001JAIRO BASTIDAS RAMIREZ                            C000000000038400000000000000000000100010010000000000000000000000F0010000009067800420160901000101 00000000000000000000000000000000000000000000000000000000000000000000000000000000000000000000000000000000000000000N 00000000000NCONT   00    00000000000          00000000000000000000000000000000000000000000 000000000000000A000000000000000000000000000000000000000000000 000000000000000000000000000000000000000     00000000                                                                                                                        000000000000000000
F0010000009067800005000001719393900013552100000000000000000201609010002001JAIRO BASTIDAS RAMIREZ                            D000000000038400000000000000000000100010010000000000000000000000F0010000009067800520160901000101 00000000000000000000000000000000000000000000000000000000000000000000000000000000000000000000000000000000000000000N 00000000000NCONT   00    00000000000          00000000000000000000000000000000000000000000 000000000000000A000000000000000000000000000000000000000000000 000000000000000000000000000000000000000     00000000                                                                                                                        000000000000000000
F0010000009067900001000001719393900011050500000000000000000201609010002001JAIRO BASTIDAS RAMIREZ                            D000000001600000000000000000000000100010010000000000000000000000F0010000009067900120160901000101 00000000000000000000000000000000000000000000000000000000000000000000000000000000000000000000000000000000000000000N 00000000000NCONT   00    00000000000          00000000000000000000000000000000000000000000 000000000000000A000000000000000000000000000000000000000000000 000000000000000000000000000000000000000     00000000                                                                                                                        000000000000000000
F0010000009067900002000001719393900041450500000000000000000201609010002001JAIRO BASTIDAS RAMIREZ                            C000000001200000000000000000000000100010010000000000000000000000F0010000009067900220160901000101 00000000000000000000000000000000000000000000000000000000000000000000000000000000000000000000000000000000000000000N 00000000000NCONT   00    00000000000          00000000000000000000000000000000000000000000 000000000000000A000000000000000000000000000000000000000000000 000000000000000000000000000000000000000     00000000                                                                                                                        000000000000000000
F0010000009067900003000001719393900042505000000000000000000201609010002001JAIRO BASTIDAS RAMIREZ                            C000000000400000000000000000000000100010010000000000000000000000F0010000009067900320160901000101 00000000000000000000000000000000000000000000000000000000000000000000000000000000000000000000000000000000000000000N 00000000000NCONT   00    00000000000          00000000000000000000000000000000000000000000 000000000000000A000000000000000000000000000000000000000000000 000000000000000000000000000000000000000     00000000                                                                                                                        000000000000000000
F0010000009067900004000001719393900023658300000000000000000201609010002001JAIRO BASTIDAS RAMIREZ                            C000000000009600000000000000000000100010010000000000000000000000F0010000009067900420160901000101 00000000000000000000000000000000000000000000000000000000000000000000000000000000000000000000000000000000000000000N 00000000000NCONT   00    00000000000          00000000000000000000000000000000000000000000 000000000000000A000000000000000000000000000000000000000000000 000000000000000000000000000000000000000     00000000                                                                                                                        000000000000000000
F0010000009067900005000001719393900013552100000000000000000201609010002001JAIRO BASTIDAS RAMIREZ                            D000000000009600000000000000000000100010010000000000000000000000F0010000009067900520160901000101 00000000000000000000000000000000000000000000000000000000000000000000000000000000000000000000000000000000000000000N 00000000000NCONT   00    00000000000          00000000000000000000000000000000000000000000 000000000000000A000000000000000000000000000000000000000000000 000000000000000000000000000000000000000     00000000                                                                                                                        000000000000000000
F0010000009068000001000001719393900011050500000000000000000201609010002001JAIRO BASTIDAS RAMIREZ                            D000000001400000000000000000000000100010010000000000000000000000F0010000009068000120160901000101 00000000000000000000000000000000000000000000000000000000000000000000000000000000000000000000000000000000000000000N 00000000000NCONT   00    00000000000          00000000000000000000000000000000000000000000 000000000000000A000000000000000000000000000000000000000000000 000000000000000000000000000000000000000     00000000                                                                                                                        000000000000000000
F0010000009068000002000001719393900041450500000000000000000201609010002001JAIRO BASTIDAS RAMIREZ                            C000000001300000000000000000000000100010010000000000000000000000F0010000009068000220160901000101 00000000000000000000000000000000000000000000000000000000000000000000000000000000000000000000000000000000000000000N 00000000000NCONT   00    00000000000          00000000000000000000000000000000000000000000 000000000000000A000000000000000000000000000000000000000000000 000000000000000000000000000000000000000     00000000                                                                                                                        000000000000000000
F0010000009068000003000001719393900042505000000000000000000201609010002001JAIRO BASTIDAS RAMIREZ                            C000000000100000000000000000000000100010010000000000000000000000F0010000009068000320160901000101 00000000000000000000000000000000000000000000000000000000000000000000000000000000000000000000000000000000000000000N 00000000000NCONT   00    00000000000          00000000000000000000000000000000000000000000 000000000000000A000000000000000000000000000000000000000000000 000000000000000000000000000000000000000     00000000                                                                                                                        000000000000000000
F0010000009068000004000001719393900023658300000000000000000201609010002001JAIRO BASTIDAS RAMIREZ                            C000000000010400000000000000000000100010010000000000000000000000F0010000009068000420160901000101 00000000000000000000000000000000000000000000000000000000000000000000000000000000000000000000000000000000000000000N 00000000000NCONT   00    00000000000          00000000000000000000000000000000000000000000 000000000000000A000000000000000000000000000000000000000000000 000000000000000000000000000000000000000     00000000                                                                                                                        000000000000000000
F0010000009068000005000001719393900013552100000000000000000201609010002001JAIRO BASTIDAS RAMIREZ                            D000000000010400000000000000000000100010010000000000000000000000F0010000009068000520160901000101 00000000000000000000000000000000000000000000000000000000000000000000000000000000000000000000000000000000000000000N 00000000000NCONT   00    00000000000          00000000000000000000000000000000000000000000 000000000000000A000000000000000000000000000000000000000000000 000000000000000000000000000000000000000     00000000                                                                                                                        000000000000000000
F0010000009068100001000001719393900011050500000000000000000201609010002001JAIRO BASTIDAS RAMIREZ                            D000000009200000000000000000000000100010010000000000000000000000F0010000009068100120160901000101 00000000000000000000000000000000000000000000000000000000000000000000000000000000000000000000000000000000000000000N 00000000000NCONT   00    00000000000          00000000000000000000000000000000000000000000 000000000000000A000000000000000000000000000000000000000000000 000000000000000000000000000000000000000     00000000                                                                                                                        000000000000000000
F0010000009068100002000001719393900041450500000000000000000201609010002001JAIRO BASTIDAS RAMIREZ                            C000000008400000000000000000000000100010010000000000000000000000F0010000009068100220160901000101 00000000000000000000000000000000000000000000000000000000000000000000000000000000000000000000000000000000000000000N 00000000000NCONT   00    00000000000          00000000000000000000000000000000000000000000 000000000000000A000000000000000000000000000000000000000000000 000000000000000000000000000000000000000     00000000                                                                                                                        000000000000000000
F0010000009068100003000001719393900042505000000000000000000201609010002001JAIRO BASTIDAS RAMIREZ                            C000000000800000000000000000000000100010010000000000000000000000F0010000009068100320160901000101 00000000000000000000000000000000000000000000000000000000000000000000000000000000000000000000000000000000000000000N 00000000000NCONT   00    00000000000          00000000000000000000000000000000000000000000 000000000000000A000000000000000000000000000000000000000000000 000000000000000000000000000000000000000     00000000                                                                                                                        000000000000000000
F0010000009068100004000001719393900023658300000000000000000201609010002001JAIRO BASTIDAS RAMIREZ                            C000000000067200000000000000000000100010010000000000000000000000F0010000009068100420160901000101 00000000000000000000000000000000000000000000000000000000000000000000000000000000000000000000000000000000000000000N 00000000000NCONT   00    00000000000          00000000000000000000000000000000000000000000 000000000000000A000000000000000000000000000000000000000000000 000000000000000000000000000000000000000     00000000                                                                                                                        000000000000000000
F0010000009068100005000001719393900013552100000000000000000201609010002001JAIRO BASTIDAS RAMIREZ                            D000000000067200000000000000000000100010010000000000000000000000F0010000009068100520160901000101 00000000000000000000000000000000000000000000000000000000000000000000000000000000000000000000000000000000000000000N 00000000000NCONT   00    00000000000          00000000000000000000000000000000000000000000 000000000000000A000000000000000000000000000000000000000000000 000000000000000000000000000000000000000     00000000                                                                                                                        000000000000000000
F0010000009068200001000001719393900011050500000000000000000201609010002001JAIRO BASTIDAS RAMIREZ                            D000000001400000000000000000000000100010010000000000000000000000F0010000009068200120160901000101 00000000000000000000000000000000000000000000000000000000000000000000000000000000000000000000000000000000000000000N 00000000000NCONT   00    00000000000          00000000000000000000000000000000000000000000 000000000000000A000000000000000000000000000000000000000000000 000000000000000000000000000000000000000     00000000                                                                                                                        000000000000000000
F0010000009068200002000001719393900041450500000000000000000201609010002001JAIRO BASTIDAS RAMIREZ                            C000000001200000000000000000000000100010010000000000000000000000F0010000009068200220160901000101 00000000000000000000000000000000000000000000000000000000000000000000000000000000000000000000000000000000000000000N 00000000000NCONT   00    00000000000          00000000000000000000000000000000000000000000 000000000000000A000000000000000000000000000000000000000000000 000000000000000000000000000000000000000     00000000                                                                                                                        000000000000000000
F0010000009068200003000001719393900042505000000000000000000201609010002001JAIRO BASTIDAS RAMIREZ                            C000000000200000000000000000000000100010010000000000000000000000F0010000009068200320160901000101 00000000000000000000000000000000000000000000000000000000000000000000000000000000000000000000000000000000000000000N 00000000000NCONT   00    00000000000          00000000000000000000000000000000000000000000 000000000000000A000000000000000000000000000000000000000000000 000000000000000000000000000000000000000     00000000                                                                                                                        000000000000000000
F0010000009068200004000001719393900023658300000000000000000201609010002001JAIRO BASTIDAS RAMIREZ                            C000000000009600000000000000000000100010010000000000000000000000F0010000009068200420160901000101 00000000000000000000000000000000000000000000000000000000000000000000000000000000000000000000000000000000000000000N 00000000000NCONT   00    00000000000          00000000000000000000000000000000000000000000 000000000000000A000000000000000000000000000000000000000000000 000000000000000000000000000000000000000     00000000                                                                                                                        000000000000000000
F0010000009068200005000001719393900013552100000000000000000201609010002001JAIRO BASTIDAS RAMIREZ                            D000000000009600000000000000000000100010010000000000000000000000F0010000009068200520160901000101 00000000000000000000000000000000000000000000000000000000000000000000000000000000000000000000000000000000000000000N 00000000000NCONT   00    00000000000          00000000000000000000000000000000000000000000 000000000000000A000000000000000000000000000000000000000000000 000000000000000000000000000000000000000     00000000                                                                                                                        000000000000000000
F0010000009068300001000090007142100011050500000000000000000201609010002001TODO BELLEZA Y MAX S.A.S                          D000000004550000000000000000000000100010010000000000000000000000F0010000009068300120160901000101 00000000000000000000000000000000000000000000000000000000000000000000000000000000000000000000000000000000000000000N 00000000000NCONT   00    00000000000          00000000000000000000000000000000000000000000 000000000000000A000000000000000000000000000000000000000000000 000000000000000000000000000000000000000     00000000                                                                                                                        000000000000000000
F0010000009068300002000090007142100041450500000000000000000201609010002001TODO BELLEZA Y MAX S.A.S                          C000000004400000000000000000000000100010010000000000000000000000F0010000009068300220160901000101 00000000000000000000000000000000000000000000000000000000000000000000000000000000000000000000000000000000000000000N 00000000000NCONT   00    00000000000          00000000000000000000000000000000000000000000 000000000000000A000000000000000000000000000000000000000000000 000000000000000000000000000000000000000     00000000                                                                                                                        000000000000000000
F0010000009068300003000090007142100042505000000000000000000201609010002001TODO BELLEZA Y MAX S.A.S                          C000000000150000000000000000000000100010010000000000000000000000F0010000009068300320160901000101 00000000000000000000000000000000000000000000000000000000000000000000000000000000000000000000000000000000000000000N 00000000000NCONT   00    00000000000          00000000000000000000000000000000000000000000 000000000000000A000000000000000000000000000000000000000000000 000000000000000000000000000000000000000     00000000                                                                                                                        000000000000000000
F0010000009068300004000090007142100023658300000000000000000201609010002001TODO BELLEZA Y MAX S.A.S                          C000000000035200000000000000000000100010010000000000000000000000F0010000009068300420160901000101 00000000000000000000000000000000000000000000000000000000000000000000000000000000000000000000000000000000000000000N 00000000000NCONT   00    00000000000          00000000000000000000000000000000000000000000 000000000000000A000000000000000000000000000000000000000000000 000000000000000000000000000000000000000     00000000                                                                                                                        000000000000000000
F0010000009068300005000090007142100013552100000000000000000201609010002001TODO BELLEZA Y MAX S.A.S                          D000000000035200000000000000000000100010010000000000000000000000F0010000009068300520160901000101 00000000000000000000000000000000000000000000000000000000000000000000000000000000000000000000000000000000000000000N 00000000000NCONT   00    00000000000          00000000000000000000000000000000000000000000 000000000000000A000000000000000000000000000000000000000000000 000000000000000000000000000000000000000     00000000                                                                                                                        000000000000000000
F0010000009068400001000007200023300011050500000000000000000201609010002001WILLIAM ORTEGA                                    D000000001200000000000000000000000100010010000000000000000000000F0010000009068400120160901000101 00000000000000000000000000000000000000000000000000000000000000000000000000000000000000000000000000000000000000000N 00000000000NCONT   00    00000000000          00000000000000000000000000000000000000000000 000000000000000A000000000000000000000000000000000000000000000 000000000000000000000000000000000000000     00000000                                                                                                                        000000000000000000
F0010000009068400002000007200023300041450500000000000000000201609010002001WILLIAM ORTEGA                                    C000000001000000000000000000000000100010010000000000000000000000F0010000009068400220160901000101 00000000000000000000000000000000000000000000000000000000000000000000000000000000000000000000000000000000000000000N 00000000000NCONT   00    00000000000          00000000000000000000000000000000000000000000 000000000000000A000000000000000000000000000000000000000000000 000000000000000000000000000000000000000     00000000                                                                                                                        000000000000000000
F0010000009068400003000007200023300042505000000000000000000201609010002001WILLIAM ORTEGA                                    C000000000200000000000000000000000100010010000000000000000000000F0010000009068400320160901000101 00000000000000000000000000000000000000000000000000000000000000000000000000000000000000000000000000000000000000000N 00000000000NCONT   00    00000000000          00000000000000000000000000000000000000000000 000000000000000A000000000000000000000000000000000000000000000 000000000000000000000000000000000000000     00000000                                                                                                                        000000000000000000
F0010000009068400004000007200023300023658300000000000000000201609010002001WILLIAM ORTEGA                                    C000000000008000000000000000000000100010010000000000000000000000F0010000009068400420160901000101 00000000000000000000000000000000000000000000000000000000000000000000000000000000000000000000000000000000000000000N 00000000000NCONT   00    00000000000          00000000000000000000000000000000000000000000 000000000000000A000000000000000000000000000000000000000000000 000000000000000000000000000000000000000     00000000                                                                                                                        000000000000000000
F0010000009068400005000007200023300013552100000000000000000201609010002001WILLIAM ORTEGA                                    D000000000008000000000000000000000100010010000000000000000000000F0010000009068400520160901000101 00000000000000000000000000000000000000000000000000000000000000000000000000000000000000000000000000000000000000000N 00000000000NCONT   00    00000000000          00000000000000000000000000000000000000000000 000000000000000A000000000000000000000000000000000000000000000 000000000000000000000000000000000000000     00000000                                                                                                                        000000000000000000
