F0010000009371200001000009120302700011050500000000000000000201611040002001CALZADO REY ESTEBAN                               D000000003500000000000000000000000100010010000000000000000000000F0019371200120161104000101 00000000000000000000000000000000000000000000000000000000000000000000000000000000000000000000000000000000000000000N 00000000000NCONT   00    00000000000          00000000000000000000000000000000000000000000 000000000000000A000000000000000000000000000000000000000000000 000000000000000000000000000000000000000     00000000                                                                                                                        000000000000000000
F0010000009371200002000009120302700041450500000000000000000201611040002001CALZADO REY ESTEBAN                               C000000002000000000000000000000000100010010000000000000000000000F0019371200220161104000101 00000000000000000000000000000000000000000000000000000000000000000000000000000000000000000000000000000000000000000N 00000000000NCONT   00    00000000000          00000000000000000000000000000000000000000000 000000000000000A000000000000000000000000000000000000000000000 000000000000000000000000000000000000000     00000000                                                                                                                        000000000000000000
F0010000009371200003000009120302700042505000000000000000000201611040002001CALZADO REY ESTEBAN                               C000000001500000000000000000000000100010010000000000000000000000F0019371200320161104000101 00000000000000000000000000000000000000000000000000000000000000000000000000000000000000000000000000000000000000000N 00000000000NCONT   00    00000000000          00000000000000000000000000000000000000000000 000000000000000A000000000000000000000000000000000000000000000 000000000000000000000000000000000000000     00000000                                                                                                                        000000000000000000
F0010000009371200004000009120302700023658300000000000000000201611040002001CALZADO REY ESTEBAN                               C000000000016000000000000000000000100010010000000000000000000000F0019371200420161104000101 00000000000000000000000000000000000000000000000000000000000000000000000000000000000000000000000000000000000000000N 00000000000NCONT   00    00000000000          00000000000000000000000000000000000000000000 000000000000000A000000000000000000000000000000000000000000000 000000000000000000000000000000000000000     00000000                                                                                                                        000000000000000000
F0010000009371200005000009120302700013552100000000000000000201611040002001CALZADO REY ESTEBAN                               D000000000016000000000000000000000100010010000000000000000000000F0019371200520161104000101 00000000000000000000000000000000000000000000000000000000000000000000000000000000000000000000000000000000000000000N 00000000000NCONT   00    00000000000          00000000000000000000000000000000000000000000 000000000000000A000000000000000000000000000000000000000000000 000000000000000000000000000000000000000     00000000                                                                                                                        000000000000000000
F0010000009371300001000086053108300011050500000000000000000201611040002001EL PALACIO DEL ALUMINIO  LTDA                     D000000002400000000000000000000000100010010000000000000000000000F0019371300120161104000101 00000000000000000000000000000000000000000000000000000000000000000000000000000000000000000000000000000000000000000N 00000000000NCONT   00    00000000000          00000000000000000000000000000000000000000000 000000000000000A000000000000000000000000000000000000000000000 000000000000000000000000000000000000000     00000000                                                                                                                        000000000000000000
F0010000009371300002000086053108300041450500000000000000000201611040002001EL PALACIO DEL ALUMINIO  LTDA                     C000000002100000000000000000000000100010010000000000000000000000F0019371300220161104000101 00000000000000000000000000000000000000000000000000000000000000000000000000000000000000000000000000000000000000000N 00000000000NCONT   00    00000000000          00000000000000000000000000000000000000000000 000000000000000A000000000000000000000000000000000000000000000 000000000000000000000000000000000000000     00000000                                                                                                                        000000000000000000
F0010000009371300003000086053108300042505000000000000000000201611040002001EL PALACIO DEL ALUMINIO  LTDA                     C000000000300000000000000000000000100010010000000000000000000000F0019371300320161104000101 00000000000000000000000000000000000000000000000000000000000000000000000000000000000000000000000000000000000000000N 00000000000NCONT   00    00000000000          00000000000000000000000000000000000000000000 000000000000000A000000000000000000000000000000000000000000000 000000000000000000000000000000000000000     00000000                                                                                                                        000000000000000000
F0010000009371300004000086053108300023658300000000000000000201611040002001EL PALACIO DEL ALUMINIO  LTDA                     C000000000016800000000000000000000100010010000000000000000000000F0019371300420161104000101 00000000000000000000000000000000000000000000000000000000000000000000000000000000000000000000000000000000000000000N 00000000000NCONT   00    00000000000          00000000000000000000000000000000000000000000 000000000000000A000000000000000000000000000000000000000000000 000000000000000000000000000000000000000     00000000                                                                                                                        000000000000000000
F0010000009371300005000086053108300013552100000000000000000201611040002001EL PALACIO DEL ALUMINIO  LTDA                     D000000000016800000000000000000000100010010000000000000000000000F0019371300520161104000101 00000000000000000000000000000000000000000000000000000000000000000000000000000000000000000000000000000000000000000N 00000000000NCONT   00    00000000000          00000000000000000000000000000000000000000000 000000000000000A000000000000000000000000000000000000000000000 000000000000000000000000000000000000000     00000000                                                                                                                        000000000000000000
F0010000009371400001000007090373900011050500000000000000000201611040002001CACHARRERIA LOS MARINILLOS                        D000000003000000000000000000000000100010010000000000000000000000F0019371400120161104000101 00000000000000000000000000000000000000000000000000000000000000000000000000000000000000000000000000000000000000000N 00000000000NCONT   00    00000000000          00000000000000000000000000000000000000000000 000000000000000A000000000000000000000000000000000000000000000 000000000000000000000000000000000000000     00000000                                                                                                                        000000000000000000
F0010000009371400002000007090373900041450500000000000000000201611040002001CACHARRERIA LOS MARINILLOS                        C000000002200000000000000000000000100010010000000000000000000000F0019371400220161104000101 00000000000000000000000000000000000000000000000000000000000000000000000000000000000000000000000000000000000000000N 00000000000NCONT   00    00000000000          00000000000000000000000000000000000000000000 000000000000000A000000000000000000000000000000000000000000000 000000000000000000000000000000000000000     00000000                                                                                                                        000000000000000000
F0010000009371400003000007090373900042505000000000000000000201611040002001CACHARRERIA LOS MARINILLOS                        C000000000800000000000000000000000100010010000000000000000000000F0019371400320161104000101 00000000000000000000000000000000000000000000000000000000000000000000000000000000000000000000000000000000000000000N 00000000000NCONT   00    00000000000          00000000000000000000000000000000000000000000 000000000000000A000000000000000000000000000000000000000000000 000000000000000000000000000000000000000     00000000                                                                                                                        000000000000000000
F0010000009371400004000007090373900023658300000000000000000201611040002001CACHARRERIA LOS MARINILLOS                        C000000000017600000000000000000000100010010000000000000000000000F0019371400420161104000101 00000000000000000000000000000000000000000000000000000000000000000000000000000000000000000000000000000000000000000N 00000000000NCONT   00    00000000000          00000000000000000000000000000000000000000000 000000000000000A000000000000000000000000000000000000000000000 000000000000000000000000000000000000000     00000000                                                                                                                        000000000000000000
F0010000009371400005000007090373900013552100000000000000000201611040002001CACHARRERIA LOS MARINILLOS                        D000000000017600000000000000000000100010010000000000000000000000F0019371400520161104000101 00000000000000000000000000000000000000000000000000000000000000000000000000000000000000000000000000000000000000000N 00000000000NCONT   00    00000000000          00000000000000000000000000000000000000000000 000000000000000A000000000000000000000000000000000000000000000 000000000000000000000000000000000000000     00000000                                                                                                                        000000000000000000
F0010000009371500001000007213133300011050500000000000000000201611040002001ALVARO ALBERTO FANDIÑO GOMEZ                     D000000001100000000000000000000000100010010000000000000000000000F0019371500120161104000101 00000000000000000000000000000000000000000000000000000000000000000000000000000000000000000000000000000000000000000N 00000000000NCONT   00    00000000000          00000000000000000000000000000000000000000000 000000000000000A000000000000000000000000000000000000000000000 000000000000000000000000000000000000000     00000000                                                                                                                        000000000000000000
F0010000009371500002000007213133300041450500000000000000000201611040002001ALVARO ALBERTO FANDIÑO GOMEZ                     C000000001000000000000000000000000100010010000000000000000000000F0019371500220161104000101 00000000000000000000000000000000000000000000000000000000000000000000000000000000000000000000000000000000000000000N 00000000000NCONT   00    00000000000          00000000000000000000000000000000000000000000 000000000000000A000000000000000000000000000000000000000000000 000000000000000000000000000000000000000     00000000                                                                                                                        000000000000000000
F0010000009371500003000007213133300042505000000000000000000201611040002001ALVARO ALBERTO FANDIÑO GOMEZ                     C000000000100000000000000000000000100010010000000000000000000000F0019371500320161104000101 00000000000000000000000000000000000000000000000000000000000000000000000000000000000000000000000000000000000000000N 00000000000NCONT   00    00000000000          00000000000000000000000000000000000000000000 000000000000000A000000000000000000000000000000000000000000000 000000000000000000000000000000000000000     00000000                                                                                                                        000000000000000000
F0010000009371500004000007213133300023658300000000000000000201611040002001ALVARO ALBERTO FANDIÑO GOMEZ                     C000000000008000000000000000000000100010010000000000000000000000F0019371500420161104000101 00000000000000000000000000000000000000000000000000000000000000000000000000000000000000000000000000000000000000000N 00000000000NCONT   00    00000000000          00000000000000000000000000000000000000000000 000000000000000A000000000000000000000000000000000000000000000 000000000000000000000000000000000000000     00000000                                                                                                                        000000000000000000
F0010000009371500005000007213133300013552100000000000000000201611040002001ALVARO ALBERTO FANDIÑO GOMEZ                     D000000000008000000000000000000000100010010000000000000000000000F0019371500520161104000101 00000000000000000000000000000000000000000000000000000000000000000000000000000000000000000000000000000000000000000N 00000000000NCONT   00    00000000000          00000000000000000000000000000000000000000000 000000000000000A000000000000000000000000000000000000000000000 000000000000000000000000000000000000000     00000000                                                                                                                        000000000000000000
F0010000009371600001000003207718300011050500000000000000000201611040002001MARIA GILMA RAMIREZ GARCIA                        D000000002000000000000000000000000100010010000000000000000000000F0019371600120161104000101 00000000000000000000000000000000000000000000000000000000000000000000000000000000000000000000000000000000000000000N 00000000000NCONT   00    00000000000          00000000000000000000000000000000000000000000 000000000000000A000000000000000000000000000000000000000000000 000000000000000000000000000000000000000     00000000                                                                                                                        000000000000000000
F0010000009371600002000003207718300041450500000000000000000201611040002001MARIA GILMA RAMIREZ GARCIA                        C000000001500000000000000000000000100010010000000000000000000000F0019371600220161104000101 00000000000000000000000000000000000000000000000000000000000000000000000000000000000000000000000000000000000000000N 00000000000NCONT   00    00000000000          00000000000000000000000000000000000000000000 000000000000000A000000000000000000000000000000000000000000000 000000000000000000000000000000000000000     00000000                                                                                                                        000000000000000000
F0010000009371600003000003207718300042505000000000000000000201611040002001MARIA GILMA RAMIREZ GARCIA                        C000000000500000000000000000000000100010010000000000000000000000F0019371600320161104000101 00000000000000000000000000000000000000000000000000000000000000000000000000000000000000000000000000000000000000000N 00000000000NCONT   00    00000000000          00000000000000000000000000000000000000000000 000000000000000A000000000000000000000000000000000000000000000 000000000000000000000000000000000000000     00000000                                                                                                                        000000000000000000
F0010000009371600004000003207718300023658300000000000000000201611040002001MARIA GILMA RAMIREZ GARCIA                        C000000000012000000000000000000000100010010000000000000000000000F0019371600420161104000101 00000000000000000000000000000000000000000000000000000000000000000000000000000000000000000000000000000000000000000N 00000000000NCONT   00    00000000000          00000000000000000000000000000000000000000000 000000000000000A000000000000000000000000000000000000000000000 000000000000000000000000000000000000000     00000000                                                                                                                        000000000000000000
F0010000009371600005000003207718300013552100000000000000000201611040002001MARIA GILMA RAMIREZ GARCIA                        D000000000012000000000000000000000100010010000000000000000000000F0019371600520161104000101 00000000000000000000000000000000000000000000000000000000000000000000000000000000000000000000000000000000000000000N 00000000000NCONT   00    00000000000          00000000000000000000000000000000000000000000 000000000000000A000000000000000000000000000000000000000000000 000000000000000000000000000000000000000     00000000                                                                                                                        000000000000000000
F0010000009371700001000003207718300011050500000000000000000201611040002001MARIA GILMA RAMIREZ GARCIA                        D000000013000000000000000000000000100010010000000000000000000000F0019371700120161104000101 00000000000000000000000000000000000000000000000000000000000000000000000000000000000000000000000000000000000000000N 00000000000NCONT   00    00000000000          00000000000000000000000000000000000000000000 000000000000000A000000000000000000000000000000000000000000000 000000000000000000000000000000000000000     00000000                                                                                                                        000000000000000000
F0010000009371700002000003207718300041450500000000000000000201611040002001MARIA GILMA RAMIREZ GARCIA                        C000000012000000000000000000000000100010010000000000000000000000F0019371700220161104000101 00000000000000000000000000000000000000000000000000000000000000000000000000000000000000000000000000000000000000000N 00000000000NCONT   00    00000000000          00000000000000000000000000000000000000000000 000000000000000A000000000000000000000000000000000000000000000 000000000000000000000000000000000000000     00000000                                                                                                                        000000000000000000
F0010000009371700003000003207718300042505000000000000000000201611040002001MARIA GILMA RAMIREZ GARCIA                        C000000001000000000000000000000000100010010000000000000000000000F0019371700320161104000101 00000000000000000000000000000000000000000000000000000000000000000000000000000000000000000000000000000000000000000N 00000000000NCONT   00    00000000000          00000000000000000000000000000000000000000000 000000000000000A000000000000000000000000000000000000000000000 000000000000000000000000000000000000000     00000000                                                                                                                        000000000000000000
F0010000009371700004000003207718300023658300000000000000000201611040002001MARIA GILMA RAMIREZ GARCIA                        C000000000096000000000000000000000100010010000000000000000000000F0019371700420161104000101 00000000000000000000000000000000000000000000000000000000000000000000000000000000000000000000000000000000000000000N 00000000000NCONT   00    00000000000          00000000000000000000000000000000000000000000 000000000000000A000000000000000000000000000000000000000000000 000000000000000000000000000000000000000     00000000                                                                                                                        000000000000000000
F0010000009371700005000003207718300013552100000000000000000201611040002001MARIA GILMA RAMIREZ GARCIA                        D000000000096000000000000000000000100010010000000000000000000000F0019371700520161104000101 00000000000000000000000000000000000000000000000000000000000000000000000000000000000000000000000000000000000000000N 00000000000NCONT   00    00000000000          00000000000000000000000000000000000000000000 000000000000000A000000000000000000000000000000000000000000000 000000000000000000000000000000000000000     00000000                                                                                                                        000000000000000000
F0010000009371800001000090034602400011050500000000000000000201611040002001PRODUCTOS NACIONALES PARAFINICOS LA CUSTODIA S.A.SD000000002100000000000000000000000100010010000000000000000000000F0019371800120161104000101 00000000000000000000000000000000000000000000000000000000000000000000000000000000000000000000000000000000000000000N 00000000000NCONT   00    00000000000          00000000000000000000000000000000000000000000 000000000000000A000000000000000000000000000000000000000000000 000000000000000000000000000000000000000     00000000                                                                                                                        000000000000000000
F0010000009371800002000090034602400041450500000000000000000201611040002001PRODUCTOS NACIONALES PARAFINICOS LA CUSTODIA S.A.SC000000001900000000000000000000000100010010000000000000000000000F0019371800220161104000101 00000000000000000000000000000000000000000000000000000000000000000000000000000000000000000000000000000000000000000N 00000000000NCONT   00    00000000000          00000000000000000000000000000000000000000000 000000000000000A000000000000000000000000000000000000000000000 000000000000000000000000000000000000000     00000000                                                                                                                        000000000000000000
F0010000009371800003000090034602400042505000000000000000000201611040002001PRODUCTOS NACIONALES PARAFINICOS LA CUSTODIA S.A.SC000000000200000000000000000000000100010010000000000000000000000F0019371800320161104000101 00000000000000000000000000000000000000000000000000000000000000000000000000000000000000000000000000000000000000000N 00000000000NCONT   00    00000000000          00000000000000000000000000000000000000000000 000000000000000A000000000000000000000000000000000000000000000 000000000000000000000000000000000000000     00000000                                                                                                                        000000000000000000
F0010000009371800004000090034602400023658300000000000000000201611040002001PRODUCTOS NACIONALES PARAFINICOS LA CUSTODIA S.A.SC000000000015200000000000000000000100010010000000000000000000000F0019371800420161104000101 00000000000000000000000000000000000000000000000000000000000000000000000000000000000000000000000000000000000000000N 00000000000NCONT   00    00000000000          00000000000000000000000000000000000000000000 000000000000000A000000000000000000000000000000000000000000000 000000000000000000000000000000000000000     00000000                                                                                                                        000000000000000000
F0010000009371800005000090034602400013552100000000000000000201611040002001PRODUCTOS NACIONALES PARAFINICOS LA CUSTODIA S.A.SD000000000015200000000000000000000100010010000000000000000000000F0019371800520161104000101 00000000000000000000000000000000000000000000000000000000000000000000000000000000000000000000000000000000000000000N 00000000000NCONT   00    00000000000          00000000000000000000000000000000000000000000 000000000000000A000000000000000000000000000000000000000000000 000000000000000000000000000000000000000     00000000                                                                                                                        000000000000000000
F0010000009371900001000000744496800011050500000000000000000201611040002001TOMAS SANCHEZ                                     D000000002000000000000000000000000100010010000000000000000000000F0019371900120161104000101 00000000000000000000000000000000000000000000000000000000000000000000000000000000000000000000000000000000000000000N 00000000000NCONT   00    00000000000          00000000000000000000000000000000000000000000 000000000000000A000000000000000000000000000000000000000000000 000000000000000000000000000000000000000     00000000                                                                                                                        000000000000000000
F0010000009371900002000000744496800041450500000000000000000201611040002001TOMAS SANCHEZ                                     C000000001900000000000000000000000100010010000000000000000000000F0019371900220161104000101 00000000000000000000000000000000000000000000000000000000000000000000000000000000000000000000000000000000000000000N 00000000000NCONT   00    00000000000          00000000000000000000000000000000000000000000 000000000000000A000000000000000000000000000000000000000000000 000000000000000000000000000000000000000     00000000                                                                                                                        000000000000000000
F0010000009371900003000000744496800042505000000000000000000201611040002001TOMAS SANCHEZ                                     C000000000100000000000000000000000100010010000000000000000000000F0019371900320161104000101 00000000000000000000000000000000000000000000000000000000000000000000000000000000000000000000000000000000000000000N 00000000000NCONT   00    00000000000          00000000000000000000000000000000000000000000 000000000000000A000000000000000000000000000000000000000000000 000000000000000000000000000000000000000     00000000                                                                                                                        000000000000000000
F0010000009371900004000000744496800023658300000000000000000201611040002001TOMAS SANCHEZ                                     C000000000015200000000000000000000100010010000000000000000000000F0019371900420161104000101 00000000000000000000000000000000000000000000000000000000000000000000000000000000000000000000000000000000000000000N 00000000000NCONT   00    00000000000          00000000000000000000000000000000000000000000 000000000000000A000000000000000000000000000000000000000000000 000000000000000000000000000000000000000     00000000                                                                                                                        000000000000000000
F0010000009371900005000000744496800013552100000000000000000201611040002001TOMAS SANCHEZ                                     D000000000015200000000000000000000100010010000000000000000000000F0019371900520161104000101 00000000000000000000000000000000000000000000000000000000000000000000000000000000000000000000000000000000000000000N 00000000000NCONT   00    00000000000          00000000000000000000000000000000000000000000 000000000000000A000000000000000000000000000000000000000000000 000000000000000000000000000000000000000     00000000                                                                                                                        000000000000000000
F0010000009372000001000001535146600011050500000000000000000201611040002001ORLANDO OROZCO NAVARRO                            D000000001900000000000000000000000100010010000000000000000000000F0019372000120161104000101 00000000000000000000000000000000000000000000000000000000000000000000000000000000000000000000000000000000000000000N 00000000000NCONT   00    00000000000          00000000000000000000000000000000000000000000 000000000000000A000000000000000000000000000000000000000000000 000000000000000000000000000000000000000     00000000                                                                                                                        000000000000000000
F0010000009372000002000001535146600041450500000000000000000201611040002001ORLANDO OROZCO NAVARRO                            C000000001800000000000000000000000100010010000000000000000000000F0019372000220161104000101 00000000000000000000000000000000000000000000000000000000000000000000000000000000000000000000000000000000000000000N 00000000000NCONT   00    00000000000          00000000000000000000000000000000000000000000 000000000000000A000000000000000000000000000000000000000000000 000000000000000000000000000000000000000     00000000                                                                                                                        000000000000000000
F0010000009372000003000001535146600042505000000000000000000201611040002001ORLANDO OROZCO NAVARRO                            C000000000100000000000000000000000100010010000000000000000000000F0019372000320161104000101 00000000000000000000000000000000000000000000000000000000000000000000000000000000000000000000000000000000000000000N 00000000000NCONT   00    00000000000          00000000000000000000000000000000000000000000 000000000000000A000000000000000000000000000000000000000000000 000000000000000000000000000000000000000     00000000                                                                                                                        000000000000000000
F0010000009372000004000001535146600023658300000000000000000201611040002001ORLANDO OROZCO NAVARRO                            C000000000014400000000000000000000100010010000000000000000000000F0019372000420161104000101 00000000000000000000000000000000000000000000000000000000000000000000000000000000000000000000000000000000000000000N 00000000000NCONT   00    00000000000          00000000000000000000000000000000000000000000 000000000000000A000000000000000000000000000000000000000000000 000000000000000000000000000000000000000     00000000                                                                                                                        000000000000000000
F0010000009372000005000001535146600013552100000000000000000201611040002001ORLANDO OROZCO NAVARRO                            D000000000014400000000000000000000100010010000000000000000000000F0019372000520161104000101 00000000000000000000000000000000000000000000000000000000000000000000000000000000000000000000000000000000000000000N 00000000000NCONT   00    00000000000          00000000000000000000000000000000000000000000 000000000000000A000000000000000000000000000000000000000000000 000000000000000000000000000000000000000     00000000                                                                                                                        000000000000000000
F0010000009372100001000106315362800011050500000000000000000201611040002001LEIDYS PATRICIA PESTANA  DE LA BARRERA            D000000001100000000000000000000000100010010000000000000000000000F0019372100120161104000101 00000000000000000000000000000000000000000000000000000000000000000000000000000000000000000000000000000000000000000N 00000000000NCONT   00    00000000000          00000000000000000000000000000000000000000000 000000000000000A000000000000000000000000000000000000000000000 000000000000000000000000000000000000000     00000000                                                                                                                        000000000000000000
F0010000009372100002000106315362800041450500000000000000000201611040002001LEIDYS PATRICIA PESTANA  DE LA BARRERA            C000000001000000000000000000000000100010010000000000000000000000F0019372100220161104000101 00000000000000000000000000000000000000000000000000000000000000000000000000000000000000000000000000000000000000000N 00000000000NCONT   00    00000000000          00000000000000000000000000000000000000000000 000000000000000A000000000000000000000000000000000000000000000 000000000000000000000000000000000000000     00000000                                                                                                                        000000000000000000
F0010000009372100003000106315362800042505000000000000000000201611040002001LEIDYS PATRICIA PESTANA  DE LA BARRERA            C000000000100000000000000000000000100010010000000000000000000000F0019372100320161104000101 00000000000000000000000000000000000000000000000000000000000000000000000000000000000000000000000000000000000000000N 00000000000NCONT   00    00000000000          00000000000000000000000000000000000000000000 000000000000000A000000000000000000000000000000000000000000000 000000000000000000000000000000000000000     00000000                                                                                                                        000000000000000000
F0010000009372100004000106315362800023658300000000000000000201611040002001LEIDYS PATRICIA PESTANA  DE LA BARRERA            C000000000008000000000000000000000100010010000000000000000000000F0019372100420161104000101 00000000000000000000000000000000000000000000000000000000000000000000000000000000000000000000000000000000000000000N 00000000000NCONT   00    00000000000          00000000000000000000000000000000000000000000 000000000000000A000000000000000000000000000000000000000000000 000000000000000000000000000000000000000     00000000                                                                                                                        000000000000000000
F0010000009372100005000106315362800013552100000000000000000201611040002001LEIDYS PATRICIA PESTANA  DE LA BARRERA            D000000000008000000000000000000000100010010000000000000000000000F0019372100520161104000101 00000000000000000000000000000000000000000000000000000000000000000000000000000000000000000000000000000000000000000N 00000000000NCONT   00    00000000000          00000000000000000000000000000000000000000000 000000000000000A000000000000000000000000000000000000000000000 000000000000000000000000000000000000000     00000000                                                                                                                        000000000000000000
F0010000009372200001000007213653800011050500000000000000000201611040002001VICTOR ECHAVEZ                                    D000000001100000000000000000000000100010010000000000000000000000F0019372200120161104000101 00000000000000000000000000000000000000000000000000000000000000000000000000000000000000000000000000000000000000000N 00000000000NCONT   00    00000000000          00000000000000000000000000000000000000000000 000000000000000A000000000000000000000000000000000000000000000 000000000000000000000000000000000000000     00000000                                                                                                                        000000000000000000
F0010000009372200002000007213653800041450500000000000000000201611040002001VICTOR ECHAVEZ                                    C000000001000000000000000000000000100010010000000000000000000000F0019372200220161104000101 00000000000000000000000000000000000000000000000000000000000000000000000000000000000000000000000000000000000000000N 00000000000NCONT   00    00000000000          00000000000000000000000000000000000000000000 000000000000000A000000000000000000000000000000000000000000000 000000000000000000000000000000000000000     00000000                                                                                                                        000000000000000000
F0010000009372200003000007213653800042505000000000000000000201611040002001VICTOR ECHAVEZ                                    C000000000100000000000000000000000100010010000000000000000000000F0019372200320161104000101 00000000000000000000000000000000000000000000000000000000000000000000000000000000000000000000000000000000000000000N 00000000000NCONT   00    00000000000          00000000000000000000000000000000000000000000 000000000000000A000000000000000000000000000000000000000000000 000000000000000000000000000000000000000     00000000                                                                                                                        000000000000000000
F0010000009372200004000007213653800023658300000000000000000201611040002001VICTOR ECHAVEZ                                    C000000000008000000000000000000000100010010000000000000000000000F0019372200420161104000101 00000000000000000000000000000000000000000000000000000000000000000000000000000000000000000000000000000000000000000N 00000000000NCONT   00    00000000000          00000000000000000000000000000000000000000000 000000000000000A000000000000000000000000000000000000000000000 000000000000000000000000000000000000000     00000000                                                                                                                        000000000000000000
F0010000009372200005000007213653800013552100000000000000000201611040002001VICTOR ECHAVEZ                                    D000000000008000000000000000000000100010010000000000000000000000F0019372200520161104000101 00000000000000000000000000000000000000000000000000000000000000000000000000000000000000000000000000000000000000000N 00000000000NCONT   00    00000000000          00000000000000000000000000000000000000000000 000000000000000A000000000000000000000000000000000000000000000 000000000000000000000000000000000000000     00000000                                                                                                                        000000000000000000
F0010000009372300001000007213653800011050500000000000000000201611040002001VICTOR ECHAVEZ                                    D000000003900000000000000000000000100010010000000000000000000000F0019372300120161104000101 00000000000000000000000000000000000000000000000000000000000000000000000000000000000000000000000000000000000000000N 00000000000NCONT   00    00000000000          00000000000000000000000000000000000000000000 000000000000000A000000000000000000000000000000000000000000000 000000000000000000000000000000000000000     00000000                                                                                                                        000000000000000000
F0010000009372300002000007213653800041450500000000000000000201611040002001VICTOR ECHAVEZ                                    C000000003000000000000000000000000100010010000000000000000000000F0019372300220161104000101 00000000000000000000000000000000000000000000000000000000000000000000000000000000000000000000000000000000000000000N 00000000000NCONT   00    00000000000          00000000000000000000000000000000000000000000 000000000000000A000000000000000000000000000000000000000000000 000000000000000000000000000000000000000     00000000                                                                                                                        000000000000000000
F0010000009372300003000007213653800042505000000000000000000201611040002001VICTOR ECHAVEZ                                    C000000000900000000000000000000000100010010000000000000000000000F0019372300320161104000101 00000000000000000000000000000000000000000000000000000000000000000000000000000000000000000000000000000000000000000N 00000000000NCONT   00    00000000000          00000000000000000000000000000000000000000000 000000000000000A000000000000000000000000000000000000000000000 000000000000000000000000000000000000000     00000000                                                                                                                        000000000000000000
F0010000009372300004000007213653800023658300000000000000000201611040002001VICTOR ECHAVEZ                                    C000000000024000000000000000000000100010010000000000000000000000F0019372300420161104000101 00000000000000000000000000000000000000000000000000000000000000000000000000000000000000000000000000000000000000000N 00000000000NCONT   00    00000000000          00000000000000000000000000000000000000000000 000000000000000A000000000000000000000000000000000000000000000 000000000000000000000000000000000000000     00000000                                                                                                                        000000000000000000
F0010000009372300005000007213653800013552100000000000000000201611040002001VICTOR ECHAVEZ                                    D000000000024000000000000000000000100010010000000000000000000000F0019372300520161104000101 00000000000000000000000000000000000000000000000000000000000000000000000000000000000000000000000000000000000000000N 00000000000NCONT   00    00000000000          00000000000000000000000000000000000000000000 000000000000000A000000000000000000000000000000000000000000000 000000000000000000000000000000000000000     00000000                                                                                                                        000000000000000000
F0010000009372400001000080012418800011050500000000000000000201611040002001DISTRITEC S.A.S                                   D000000001200000000000000000000000100010010000000000000000000000F0019372400120161104000101 00000000000000000000000000000000000000000000000000000000000000000000000000000000000000000000000000000000000000000N 00000000000NCONT   00    00000000000          00000000000000000000000000000000000000000000 000000000000000A000000000000000000000000000000000000000000000 000000000000000000000000000000000000000     00000000                                                                                                                        000000000000000000
F0010000009372400002000080012418800041450500000000000000000201611040002001DISTRITEC S.A.S                                   C000000001000000000000000000000000100010010000000000000000000000F0019372400220161104000101 00000000000000000000000000000000000000000000000000000000000000000000000000000000000000000000000000000000000000000N 00000000000NCONT   00    00000000000          00000000000000000000000000000000000000000000 000000000000000A000000000000000000000000000000000000000000000 000000000000000000000000000000000000000     00000000                                                                                                                        000000000000000000
F0010000009372400003000080012418800042505000000000000000000201611040002001DISTRITEC S.A.S                                   C000000000200000000000000000000000100010010000000000000000000000F0019372400320161104000101 00000000000000000000000000000000000000000000000000000000000000000000000000000000000000000000000000000000000000000N 00000000000NCONT   00    00000000000          00000000000000000000000000000000000000000000 000000000000000A000000000000000000000000000000000000000000000 000000000000000000000000000000000000000     00000000                                                                                                                        000000000000000000
F0010000009372400004000080012418800023658300000000000000000201611040002001DISTRITEC S.A.S                                   C000000000008000000000000000000000100010010000000000000000000000F0019372400420161104000101 00000000000000000000000000000000000000000000000000000000000000000000000000000000000000000000000000000000000000000N 00000000000NCONT   00    00000000000          00000000000000000000000000000000000000000000 000000000000000A000000000000000000000000000000000000000000000 000000000000000000000000000000000000000     00000000                                                                                                                        000000000000000000
F0010000009372400005000080012418800013552100000000000000000201611040002001DISTRITEC S.A.S                                   D000000000008000000000000000000000100010010000000000000000000000F0019372400520161104000101 00000000000000000000000000000000000000000000000000000000000000000000000000000000000000000000000000000000000000000N 00000000000NCONT   00    00000000000          00000000000000000000000000000000000000000000 000000000000000A000000000000000000000000000000000000000000000 000000000000000000000000000000000000000     00000000                                                                                                                        000000000000000000
F0010000009372500001000089091320300011050500000000000000000201611040002001PAPELES IMPERMEABLES INDUSTRIALES SAS             D000000001400000000000000000000000100010010000000000000000000000F0019372500120161104000101 00000000000000000000000000000000000000000000000000000000000000000000000000000000000000000000000000000000000000000N 00000000000NCONT   00    00000000000          00000000000000000000000000000000000000000000 000000000000000A000000000000000000000000000000000000000000000 000000000000000000000000000000000000000     00000000                                                                                                                        000000000000000000
F0010000009372500002000089091320300041450500000000000000000201611040002001PAPELES IMPERMEABLES INDUSTRIALES SAS             C000000000800000000000000000000000100010010000000000000000000000F0019372500220161104000101 00000000000000000000000000000000000000000000000000000000000000000000000000000000000000000000000000000000000000000N 00000000000NCONT   00    00000000000          00000000000000000000000000000000000000000000 000000000000000A000000000000000000000000000000000000000000000 000000000000000000000000000000000000000     00000000                                                                                                                        000000000000000000
F0010000009372500003000089091320300042505000000000000000000201611040002001PAPELES IMPERMEABLES INDUSTRIALES SAS             C000000000600000000000000000000000100010010000000000000000000000F0019372500320161104000101 00000000000000000000000000000000000000000000000000000000000000000000000000000000000000000000000000000000000000000N 00000000000NCONT   00    00000000000          00000000000000000000000000000000000000000000 000000000000000A000000000000000000000000000000000000000000000 000000000000000000000000000000000000000     00000000                                                                                                                        000000000000000000
F0010000009372500004000089091320300023658300000000000000000201611040002001PAPELES IMPERMEABLES INDUSTRIALES SAS             C000000000006400000000000000000000100010010000000000000000000000F0019372500420161104000101 00000000000000000000000000000000000000000000000000000000000000000000000000000000000000000000000000000000000000000N 00000000000NCONT   00    00000000000          00000000000000000000000000000000000000000000 000000000000000A000000000000000000000000000000000000000000000 000000000000000000000000000000000000000     00000000                                                                                                                        000000000000000000
F0010000009372500005000089091320300013552100000000000000000201611040002001PAPELES IMPERMEABLES INDUSTRIALES SAS             D000000000006400000000000000000000100010010000000000000000000000F0019372500520161104000101 00000000000000000000000000000000000000000000000000000000000000000000000000000000000000000000000000000000000000000N 00000000000NCONT   00    00000000000          00000000000000000000000000000000000000000000 000000000000000A000000000000000000000000000000000000000000000 000000000000000000000000000000000000000     00000000                                                                                                                        000000000000000000
F0010000009372600001000089091320300011050500000000000000000201611040002001PAPELES IMPERMEABLES INDUSTRIALES SAS             D000000000700000000000000000000000100010010000000000000000000000F0019372600120161104000101 00000000000000000000000000000000000000000000000000000000000000000000000000000000000000000000000000000000000000000N 00000000000NCONT   00    00000000000          00000000000000000000000000000000000000000000 000000000000000A000000000000000000000000000000000000000000000 000000000000000000000000000000000000000     00000000                                                                                                                        000000000000000000
F0010000009372600002000089091320300041450500000000000000000201611040002001PAPELES IMPERMEABLES INDUSTRIALES SAS             C000000000400000000000000000000000100010010000000000000000000000F0019372600220161104000101 00000000000000000000000000000000000000000000000000000000000000000000000000000000000000000000000000000000000000000N 00000000000NCONT   00    00000000000          00000000000000000000000000000000000000000000 000000000000000A000000000000000000000000000000000000000000000 000000000000000000000000000000000000000     00000000                                                                                                                        000000000000000000
F0010000009372600003000089091320300042505000000000000000000201611040002001PAPELES IMPERMEABLES INDUSTRIALES SAS             C000000000300000000000000000000000100010010000000000000000000000F0019372600320161104000101 00000000000000000000000000000000000000000000000000000000000000000000000000000000000000000000000000000000000000000N 00000000000NCONT   00    00000000000          00000000000000000000000000000000000000000000 000000000000000A000000000000000000000000000000000000000000000 000000000000000000000000000000000000000     00000000                                                                                                                        000000000000000000
F0010000009372600004000089091320300023658300000000000000000201611040002001PAPELES IMPERMEABLES INDUSTRIALES SAS             C000000000003200000000000000000000100010010000000000000000000000F0019372600420161104000101 00000000000000000000000000000000000000000000000000000000000000000000000000000000000000000000000000000000000000000N 00000000000NCONT   00    00000000000          00000000000000000000000000000000000000000000 000000000000000A000000000000000000000000000000000000000000000 000000000000000000000000000000000000000     00000000                                                                                                                        000000000000000000
F0010000009372600005000089091320300013552100000000000000000201611040002001PAPELES IMPERMEABLES INDUSTRIALES SAS             D000000000003200000000000000000000100010010000000000000000000000F0019372600520161104000101 00000000000000000000000000000000000000000000000000000000000000000000000000000000000000000000000000000000000000000N 00000000000NCONT   00    00000000000          00000000000000000000000000000000000000000000 000000000000000A000000000000000000000000000000000000000000000 000000000000000000000000000000000000000     00000000                                                                                                                        000000000000000000
F0010000009372700001000089020795600011050500000000000000000201611040002001INDURRUEDAS LTDA                                  D000000011400000000000000000000000100010010000000000000000000000F0019372700120161104000101 00000000000000000000000000000000000000000000000000000000000000000000000000000000000000000000000000000000000000000N 00000000000NCONT   00    00000000000          00000000000000000000000000000000000000000000 000000000000000A000000000000000000000000000000000000000000000 000000000000000000000000000000000000000     00000000                                                                                                                        000000000000000000
F0010000009372700002000089020795600041450500000000000000000201611040002001INDURRUEDAS LTDA                                  C000000009000000000000000000000000100010010000000000000000000000F0019372700220161104000101 00000000000000000000000000000000000000000000000000000000000000000000000000000000000000000000000000000000000000000N 00000000000NCONT   00    00000000000          00000000000000000000000000000000000000000000 000000000000000A000000000000000000000000000000000000000000000 000000000000000000000000000000000000000     00000000                                                                                                                        000000000000000000
F0010000009372700003000089020795600042505000000000000000000201611040002001INDURRUEDAS LTDA                                  C000000002400000000000000000000000100010010000000000000000000000F0019372700320161104000101 00000000000000000000000000000000000000000000000000000000000000000000000000000000000000000000000000000000000000000N 00000000000NCONT   00    00000000000          00000000000000000000000000000000000000000000 000000000000000A000000000000000000000000000000000000000000000 000000000000000000000000000000000000000     00000000                                                                                                                        000000000000000000
F0010000009372700004000089020795600023658300000000000000000201611040002001INDURRUEDAS LTDA                                  C000000000072000000000000000000000100010010000000000000000000000F0019372700420161104000101 00000000000000000000000000000000000000000000000000000000000000000000000000000000000000000000000000000000000000000N 00000000000NCONT   00    00000000000          00000000000000000000000000000000000000000000 000000000000000A000000000000000000000000000000000000000000000 000000000000000000000000000000000000000     00000000                                                                                                                        000000000000000000
F0010000009372700005000089020795600013552100000000000000000201611040002001INDURRUEDAS LTDA                                  D000000000072000000000000000000000100010010000000000000000000000F0019372700520161104000101 00000000000000000000000000000000000000000000000000000000000000000000000000000000000000000000000000000000000000000N 00000000000NCONT   00    00000000000          00000000000000000000000000000000000000000000 000000000000000A000000000000000000000000000000000000000000000 000000000000000000000000000000000000000     00000000                                                                                                                        000000000000000000
F0010000009372800001000000431178400011050500000000000000000201611040002001EFRAIN ALVAREZ                                    D000000001020000000000000000000000100010010000000000000000000000F0019372800120161104000101 00000000000000000000000000000000000000000000000000000000000000000000000000000000000000000000000000000000000000000N 00000000000NCONT   00    00000000000          00000000000000000000000000000000000000000000 000000000000000A000000000000000000000000000000000000000000000 000000000000000000000000000000000000000     00000000                                                                                                                        000000000000000000
F0010000009372800002000000431178400041450500000000000000000201611040002001EFRAIN ALVAREZ                                    C000000000920000000000000000000000100010010000000000000000000000F0019372800220161104000101 00000000000000000000000000000000000000000000000000000000000000000000000000000000000000000000000000000000000000000N 00000000000NCONT   00    00000000000          00000000000000000000000000000000000000000000 000000000000000A000000000000000000000000000000000000000000000 000000000000000000000000000000000000000     00000000                                                                                                                        000000000000000000
F0010000009372800003000000431178400042505000000000000000000201611040002001EFRAIN ALVAREZ                                    C000000000100000000000000000000000100010010000000000000000000000F0019372800320161104000101 00000000000000000000000000000000000000000000000000000000000000000000000000000000000000000000000000000000000000000N 00000000000NCONT   00    00000000000          00000000000000000000000000000000000000000000 000000000000000A000000000000000000000000000000000000000000000 000000000000000000000000000000000000000     00000000                                                                                                                        000000000000000000
F0010000009372800004000000431178400023658300000000000000000201611040002001EFRAIN ALVAREZ                                    C000000000007400000000000000000000100010010000000000000000000000F0019372800420161104000101 00000000000000000000000000000000000000000000000000000000000000000000000000000000000000000000000000000000000000000N 00000000000NCONT   00    00000000000          00000000000000000000000000000000000000000000 000000000000000A000000000000000000000000000000000000000000000 000000000000000000000000000000000000000     00000000                                                                                                                        000000000000000000
F0010000009372800005000000431178400013552100000000000000000201611040002001EFRAIN ALVAREZ                                    D000000000007400000000000000000000100010010000000000000000000000F0019372800520161104000101 00000000000000000000000000000000000000000000000000000000000000000000000000000000000000000000000000000000000000000N 00000000000NCONT   00    00000000000          00000000000000000000000000000000000000000000 000000000000000A000000000000000000000000000000000000000000000 000000000000000000000000000000000000000     00000000                                                                                                                        000000000000000000
F0010000009372900001000001022529300011050500000000000000000201611040002001ALBERTO ALVAREZ ISAZA                             D000000000700000000000000000000000100010010000000000000000000000F0019372900120161104000101 00000000000000000000000000000000000000000000000000000000000000000000000000000000000000000000000000000000000000000N 00000000000NCONT   00    00000000000          00000000000000000000000000000000000000000000 000000000000000A000000000000000000000000000000000000000000000 000000000000000000000000000000000000000     00000000                                                                                                                        000000000000000000
F0010000009372900002000001022529300041450500000000000000000201611040002001ALBERTO ALVAREZ ISAZA                             C000000000700000000000000000000000100010010000000000000000000000F0019372900220161104000101 00000000000000000000000000000000000000000000000000000000000000000000000000000000000000000000000000000000000000000N 00000000000NCONT   00    00000000000          00000000000000000000000000000000000000000000 000000000000000A000000000000000000000000000000000000000000000 000000000000000000000000000000000000000     00000000                                                                                                                        000000000000000000
F0010000009372900003000001022529300042505000000000000000000201611040002001ALBERTO ALVAREZ ISAZA                             C000000000000000000000000000000000100010010000000000000000000000F0019372900320161104000101 00000000000000000000000000000000000000000000000000000000000000000000000000000000000000000000000000000000000000000N 00000000000NCONT   00    00000000000          00000000000000000000000000000000000000000000 000000000000000A000000000000000000000000000000000000000000000 000000000000000000000000000000000000000     00000000                                                                                                                        000000000000000000
F0010000009372900004000001022529300023658300000000000000000201611040002001ALBERTO ALVAREZ ISAZA                             C000000000005600000000000000000000100010010000000000000000000000F0019372900420161104000101 00000000000000000000000000000000000000000000000000000000000000000000000000000000000000000000000000000000000000000N 00000000000NCONT   00    00000000000          00000000000000000000000000000000000000000000 000000000000000A000000000000000000000000000000000000000000000 000000000000000000000000000000000000000     00000000                                                                                                                        000000000000000000
F0010000009372900005000001022529300013552100000000000000000201611040002001ALBERTO ALVAREZ ISAZA                             D000000000005600000000000000000000100010010000000000000000000000F0019372900520161104000101 00000000000000000000000000000000000000000000000000000000000000000000000000000000000000000000000000000000000000000N 00000000000NCONT   00    00000000000          00000000000000000000000000000000000000000000 000000000000000A000000000000000000000000000000000000000000000 000000000000000000000000000000000000000     00000000                                                                                                                        000000000000000000
F0010000009373000001000007200023300011050500000000000000000201611040002001WILLIAM ORTEGA                                    D000000001200000000000000000000000100010010000000000000000000000F0019373000120161104000101 00000000000000000000000000000000000000000000000000000000000000000000000000000000000000000000000000000000000000000N 00000000000NCONT   00    00000000000          00000000000000000000000000000000000000000000 000000000000000A000000000000000000000000000000000000000000000 000000000000000000000000000000000000000     00000000                                                                                                                        000000000000000000
F0010000009373000002000007200023300041450500000000000000000201611040002001WILLIAM ORTEGA                                    C000000001000000000000000000000000100010010000000000000000000000F0019373000220161104000101 00000000000000000000000000000000000000000000000000000000000000000000000000000000000000000000000000000000000000000N 00000000000NCONT   00    00000000000          00000000000000000000000000000000000000000000 000000000000000A000000000000000000000000000000000000000000000 000000000000000000000000000000000000000     00000000                                                                                                                        000000000000000000
F0010000009373000003000007200023300042505000000000000000000201611040002001WILLIAM ORTEGA                                    C000000000200000000000000000000000100010010000000000000000000000F0019373000320161104000101 00000000000000000000000000000000000000000000000000000000000000000000000000000000000000000000000000000000000000000N 00000000000NCONT   00    00000000000          00000000000000000000000000000000000000000000 000000000000000A000000000000000000000000000000000000000000000 000000000000000000000000000000000000000     00000000                                                                                                                        000000000000000000
F0010000009373000004000007200023300023658300000000000000000201611040002001WILLIAM ORTEGA                                    C000000000008000000000000000000000100010010000000000000000000000F0019373000420161104000101 00000000000000000000000000000000000000000000000000000000000000000000000000000000000000000000000000000000000000000N 00000000000NCONT   00    00000000000          00000000000000000000000000000000000000000000 000000000000000A000000000000000000000000000000000000000000000 000000000000000000000000000000000000000     00000000                                                                                                                        000000000000000000
F0010000009373000005000007200023300013552100000000000000000201611040002001WILLIAM ORTEGA                                    D000000000008000000000000000000000100010010000000000000000000000F0019373000520161104000101 00000000000000000000000000000000000000000000000000000000000000000000000000000000000000000000000000000000000000000N 00000000000NCONT   00    00000000000          00000000000000000000000000000000000000000000 000000000000000A000000000000000000000000000000000000000000000 000000000000000000000000000000000000000     00000000                                                                                                                        000000000000000000
F0010000009373100001000007200023300011050500000000000000000201611040002001WILLIAM ORTEGA                                    D000000002300000000000000000000000100010010000000000000000000000F0019373100120161104000101 00000000000000000000000000000000000000000000000000000000000000000000000000000000000000000000000000000000000000000N 00000000000NCONT   00    00000000000          00000000000000000000000000000000000000000000 000000000000000A000000000000000000000000000000000000000000000 000000000000000000000000000000000000000     00000000                                                                                                                        000000000000000000
F0010000009373100002000007200023300041450500000000000000000201611040002001WILLIAM ORTEGA                                    C000000002000000000000000000000000100010010000000000000000000000F0019373100220161104000101 00000000000000000000000000000000000000000000000000000000000000000000000000000000000000000000000000000000000000000N 00000000000NCONT   00    00000000000          00000000000000000000000000000000000000000000 000000000000000A000000000000000000000000000000000000000000000 000000000000000000000000000000000000000     00000000                                                                                                                        000000000000000000
F0010000009373100003000007200023300042505000000000000000000201611040002001WILLIAM ORTEGA                                    C000000000300000000000000000000000100010010000000000000000000000F0019373100320161104000101 00000000000000000000000000000000000000000000000000000000000000000000000000000000000000000000000000000000000000000N 00000000000NCONT   00    00000000000          00000000000000000000000000000000000000000000 000000000000000A000000000000000000000000000000000000000000000 000000000000000000000000000000000000000     00000000                                                                                                                        000000000000000000
F0010000009373100004000007200023300023658300000000000000000201611040002001WILLIAM ORTEGA                                    C000000000016000000000000000000000100010010000000000000000000000F0019373100420161104000101 00000000000000000000000000000000000000000000000000000000000000000000000000000000000000000000000000000000000000000N 00000000000NCONT   00    00000000000          00000000000000000000000000000000000000000000 000000000000000A000000000000000000000000000000000000000000000 000000000000000000000000000000000000000     00000000                                                                                                                        000000000000000000
F0010000009373100005000007200023300013552100000000000000000201611040002001WILLIAM ORTEGA                                    D000000000016000000000000000000000100010010000000000000000000000F0019373100520161104000101 00000000000000000000000000000000000000000000000000000000000000000000000000000000000000000000000000000000000000000N 00000000000NCONT   00    00000000000          00000000000000000000000000000000000000000000 000000000000000A000000000000000000000000000000000000000000000 000000000000000000000000000000000000000     00000000                                                                                                                        000000000000000000
F0010000009373200001000007200023300011050500000000000000000201611040002001WILLIAM ORTEGA                                    D000000003400000000000000000000000100010010000000000000000000000F0019373200120161104000101 00000000000000000000000000000000000000000000000000000000000000000000000000000000000000000000000000000000000000000N 00000000000NCONT   00    00000000000          00000000000000000000000000000000000000000000 000000000000000A000000000000000000000000000000000000000000000 000000000000000000000000000000000000000     00000000                                                                                                                        000000000000000000
F0010000009373200002000007200023300041450500000000000000000201611040002001WILLIAM ORTEGA                                    C000000003000000000000000000000000100010010000000000000000000000F0019373200220161104000101 00000000000000000000000000000000000000000000000000000000000000000000000000000000000000000000000000000000000000000N 00000000000NCONT   00    00000000000          00000000000000000000000000000000000000000000 000000000000000A000000000000000000000000000000000000000000000 000000000000000000000000000000000000000     00000000                                                                                                                        000000000000000000
F0010000009373200003000007200023300042505000000000000000000201611040002001WILLIAM ORTEGA                                    C000000000400000000000000000000000100010010000000000000000000000F0019373200320161104000101 00000000000000000000000000000000000000000000000000000000000000000000000000000000000000000000000000000000000000000N 00000000000NCONT   00    00000000000          00000000000000000000000000000000000000000000 000000000000000A000000000000000000000000000000000000000000000 000000000000000000000000000000000000000     00000000                                                                                                                        000000000000000000
F0010000009373200004000007200023300023658300000000000000000201611040002001WILLIAM ORTEGA                                    C000000000024000000000000000000000100010010000000000000000000000F0019373200420161104000101 00000000000000000000000000000000000000000000000000000000000000000000000000000000000000000000000000000000000000000N 00000000000NCONT   00    00000000000          00000000000000000000000000000000000000000000 000000000000000A000000000000000000000000000000000000000000000 000000000000000000000000000000000000000     00000000                                                                                                                        000000000000000000
F0010000009373200005000007200023300013552100000000000000000201611040002001WILLIAM ORTEGA                                    D000000000024000000000000000000000100010010000000000000000000000F0019373200520161104000101 00000000000000000000000000000000000000000000000000000000000000000000000000000000000000000000000000000000000000000N 00000000000NCONT   00    00000000000          00000000000000000000000000000000000000000000 000000000000000A000000000000000000000000000000000000000000000 000000000000000000000000000000000000000     00000000                                                                                                                        000000000000000000
F0010000009373300001000106498226600011050500000000000000000201611040002001EVA PAULINA GARCIA SANCHEZ                        D000000001400000000000000000000000100010010000000000000000000000F0019373300120161104000101 00000000000000000000000000000000000000000000000000000000000000000000000000000000000000000000000000000000000000000N 00000000000NCONT   00    00000000000          00000000000000000000000000000000000000000000 000000000000000A000000000000000000000000000000000000000000000 000000000000000000000000000000000000000     00000000                                                                                                                        000000000000000000
F0010000009373300002000106498226600041450500000000000000000201611040002001EVA PAULINA GARCIA SANCHEZ                        C000000001000000000000000000000000100010010000000000000000000000F0019373300220161104000101 00000000000000000000000000000000000000000000000000000000000000000000000000000000000000000000000000000000000000000N 00000000000NCONT   00    00000000000          00000000000000000000000000000000000000000000 000000000000000A000000000000000000000000000000000000000000000 000000000000000000000000000000000000000     00000000                                                                                                                        000000000000000000
F0010000009373300003000106498226600042505000000000000000000201611040002001EVA PAULINA GARCIA SANCHEZ                        C000000000400000000000000000000000100010010000000000000000000000F0019373300320161104000101 00000000000000000000000000000000000000000000000000000000000000000000000000000000000000000000000000000000000000000N 00000000000NCONT   00    00000000000          00000000000000000000000000000000000000000000 000000000000000A000000000000000000000000000000000000000000000 000000000000000000000000000000000000000     00000000                                                                                                                        000000000000000000
F0010000009373300004000106498226600023658300000000000000000201611040002001EVA PAULINA GARCIA SANCHEZ                        C000000000008000000000000000000000100010010000000000000000000000F0019373300420161104000101 00000000000000000000000000000000000000000000000000000000000000000000000000000000000000000000000000000000000000000N 00000000000NCONT   00    00000000000          00000000000000000000000000000000000000000000 000000000000000A000000000000000000000000000000000000000000000 000000000000000000000000000000000000000     00000000                                                                                                                        000000000000000000
F0010000009373300005000106498226600013552100000000000000000201611040002001EVA PAULINA GARCIA SANCHEZ                        D000000000008000000000000000000000100010010000000000000000000000F0019373300520161104000101 00000000000000000000000000000000000000000000000000000000000000000000000000000000000000000000000000000000000000000N 00000000000NCONT   00    00000000000          00000000000000000000000000000000000000000000 000000000000000A000000000000000000000000000000000000000000000 000000000000000000000000000000000000000     00000000                                                                                                                        000000000000000000
F0010000009373400001000003314755400011050500000000000000000201611040002001RUMATEX DE COLOMBIA                               D000000001400000000000000000000000100010010000000000000000000000F0019373400120161104000101 00000000000000000000000000000000000000000000000000000000000000000000000000000000000000000000000000000000000000000N 00000000000NCONT   00    00000000000          00000000000000000000000000000000000000000000 000000000000000A000000000000000000000000000000000000000000000 000000000000000000000000000000000000000     00000000                                                                                                                        000000000000000000
F0010000009373400002000003314755400041450500000000000000000201611040002001RUMATEX DE COLOMBIA                               C000000001000000000000000000000000100010010000000000000000000000F0019373400220161104000101 00000000000000000000000000000000000000000000000000000000000000000000000000000000000000000000000000000000000000000N 00000000000NCONT   00    00000000000          00000000000000000000000000000000000000000000 000000000000000A000000000000000000000000000000000000000000000 000000000000000000000000000000000000000     00000000                                                                                                                        000000000000000000
F0010000009373400003000003314755400042505000000000000000000201611040002001RUMATEX DE COLOMBIA                               C000000000400000000000000000000000100010010000000000000000000000F0019373400320161104000101 00000000000000000000000000000000000000000000000000000000000000000000000000000000000000000000000000000000000000000N 00000000000NCONT   00    00000000000          00000000000000000000000000000000000000000000 000000000000000A000000000000000000000000000000000000000000000 000000000000000000000000000000000000000     00000000                                                                                                                        000000000000000000
F0010000009373400004000003314755400023658300000000000000000201611040002001RUMATEX DE COLOMBIA                               C000000000008000000000000000000000100010010000000000000000000000F0019373400420161104000101 00000000000000000000000000000000000000000000000000000000000000000000000000000000000000000000000000000000000000000N 00000000000NCONT   00    00000000000          00000000000000000000000000000000000000000000 000000000000000A000000000000000000000000000000000000000000000 000000000000000000000000000000000000000     00000000                                                                                                                        000000000000000000
F0010000009373400005000003314755400013552100000000000000000201611040002001RUMATEX DE COLOMBIA                               D000000000008000000000000000000000100010010000000000000000000000F0019373400520161104000101 00000000000000000000000000000000000000000000000000000000000000000000000000000000000000000000000000000000000000000N 00000000000NCONT   00    00000000000          00000000000000000000000000000000000000000000 000000000000000A000000000000000000000000000000000000000000000 000000000000000000000000000000000000000     00000000                                                                                                                        000000000000000000
F0010000009373500001000009120302700011050500000000000000000201611040002001CALZADO REY ESTEBAN                               D000000001700000000000000000000000100010010000000000000000000000F0019373500120161104000101 00000000000000000000000000000000000000000000000000000000000000000000000000000000000000000000000000000000000000000N 00000000000NCONT   00    00000000000          00000000000000000000000000000000000000000000 000000000000000A000000000000000000000000000000000000000000000 000000000000000000000000000000000000000     00000000                                                                                                                        000000000000000000
F0010000009373500002000009120302700041450500000000000000000201611040002001CALZADO REY ESTEBAN                               C000000001000000000000000000000000100010010000000000000000000000F0019373500220161104000101 00000000000000000000000000000000000000000000000000000000000000000000000000000000000000000000000000000000000000000N 00000000000NCONT   00    00000000000          00000000000000000000000000000000000000000000 000000000000000A000000000000000000000000000000000000000000000 000000000000000000000000000000000000000     00000000                                                                                                                        000000000000000000
F0010000009373500003000009120302700042505000000000000000000201611040002001CALZADO REY ESTEBAN                               C000000000700000000000000000000000100010010000000000000000000000F0019373500320161104000101 00000000000000000000000000000000000000000000000000000000000000000000000000000000000000000000000000000000000000000N 00000000000NCONT   00    00000000000          00000000000000000000000000000000000000000000 000000000000000A000000000000000000000000000000000000000000000 000000000000000000000000000000000000000     00000000                                                                                                                        000000000000000000
F0010000009373500004000009120302700023658300000000000000000201611040002001CALZADO REY ESTEBAN                               C000000000008000000000000000000000100010010000000000000000000000F0019373500420161104000101 00000000000000000000000000000000000000000000000000000000000000000000000000000000000000000000000000000000000000000N 00000000000NCONT   00    00000000000          00000000000000000000000000000000000000000000 000000000000000A000000000000000000000000000000000000000000000 000000000000000000000000000000000000000     00000000                                                                                                                        000000000000000000
F0010000009373500005000009120302700013552100000000000000000201611040002001CALZADO REY ESTEBAN                               D000000000008000000000000000000000100010010000000000000000000000F0019373500520161104000101 00000000000000000000000000000000000000000000000000000000000000000000000000000000000000000000000000000000000000000N 00000000000NCONT   00    00000000000          00000000000000000000000000000000000000000000 000000000000000A000000000000000000000000000000000000000000000 000000000000000000000000000000000000000     00000000                                                                                                                        000000000000000000
F0010000009373600001000090067091400011050500000000000000000201611040002001COMERCIALIZADORA ESCOBAR ORTIZ                    D000000001400000000000000000000000100010010000000000000000000000F0019373600120161104000101 00000000000000000000000000000000000000000000000000000000000000000000000000000000000000000000000000000000000000000N 00000000000NCONT   00    00000000000          00000000000000000000000000000000000000000000 000000000000000A000000000000000000000000000000000000000000000 000000000000000000000000000000000000000     00000000                                                                                                                        000000000000000000
F0010000009373600002000090067091400041450500000000000000000201611040002001COMERCIALIZADORA ESCOBAR ORTIZ                    C000000001000000000000000000000000100010010000000000000000000000F0019373600220161104000101 00000000000000000000000000000000000000000000000000000000000000000000000000000000000000000000000000000000000000000N 00000000000NCONT   00    00000000000          00000000000000000000000000000000000000000000 000000000000000A000000000000000000000000000000000000000000000 000000000000000000000000000000000000000     00000000                                                                                                                        000000000000000000
F0010000009373600003000090067091400042505000000000000000000201611040002001COMERCIALIZADORA ESCOBAR ORTIZ                    C000000000400000000000000000000000100010010000000000000000000000F0019373600320161104000101 00000000000000000000000000000000000000000000000000000000000000000000000000000000000000000000000000000000000000000N 00000000000NCONT   00    00000000000          00000000000000000000000000000000000000000000 000000000000000A000000000000000000000000000000000000000000000 000000000000000000000000000000000000000     00000000                                                                                                                        000000000000000000
F0010000009373600004000090067091400023658300000000000000000201611040002001COMERCIALIZADORA ESCOBAR ORTIZ                    C000000000008000000000000000000000100010010000000000000000000000F0019373600420161104000101 00000000000000000000000000000000000000000000000000000000000000000000000000000000000000000000000000000000000000000N 00000000000NCONT   00    00000000000          00000000000000000000000000000000000000000000 000000000000000A000000000000000000000000000000000000000000000 000000000000000000000000000000000000000     00000000                                                                                                                        000000000000000000
F0010000009373600005000090067091400013552100000000000000000201611040002001COMERCIALIZADORA ESCOBAR ORTIZ                    D000000000008000000000000000000000100010010000000000000000000000F0019373600520161104000101 00000000000000000000000000000000000000000000000000000000000000000000000000000000000000000000000000000000000000000N 00000000000NCONT   00    00000000000          00000000000000000000000000000000000000000000 000000000000000A000000000000000000000000000000000000000000000 000000000000000000000000000000000000000     00000000                                                                                                                        000000000000000000
F0010000009373700001000090067091400011050500000000000000000201611040002001COMERCIALIZADORA ESCOBAR ORTIZ                    D000000001300000000000000000000000100010010000000000000000000000F0019373700120161104000101 00000000000000000000000000000000000000000000000000000000000000000000000000000000000000000000000000000000000000000N 00000000000NCONT   00    00000000000          00000000000000000000000000000000000000000000 000000000000000A000000000000000000000000000000000000000000000 000000000000000000000000000000000000000     00000000                                                                                                                        000000000000000000
F0010000009373700002000090067091400041450500000000000000000201611040002001COMERCIALIZADORA ESCOBAR ORTIZ                    C000000001000000000000000000000000100010010000000000000000000000F0019373700220161104000101 00000000000000000000000000000000000000000000000000000000000000000000000000000000000000000000000000000000000000000N 00000000000NCONT   00    00000000000          00000000000000000000000000000000000000000000 000000000000000A000000000000000000000000000000000000000000000 000000000000000000000000000000000000000     00000000                                                                                                                        000000000000000000
F0010000009373700003000090067091400042505000000000000000000201611040002001COMERCIALIZADORA ESCOBAR ORTIZ                    C000000000300000000000000000000000100010010000000000000000000000F0019373700320161104000101 00000000000000000000000000000000000000000000000000000000000000000000000000000000000000000000000000000000000000000N 00000000000NCONT   00    00000000000          00000000000000000000000000000000000000000000 000000000000000A000000000000000000000000000000000000000000000 000000000000000000000000000000000000000     00000000                                                                                                                        000000000000000000
F0010000009373700004000090067091400023658300000000000000000201611040002001COMERCIALIZADORA ESCOBAR ORTIZ                    C000000000008000000000000000000000100010010000000000000000000000F0019373700420161104000101 00000000000000000000000000000000000000000000000000000000000000000000000000000000000000000000000000000000000000000N 00000000000NCONT   00    00000000000          00000000000000000000000000000000000000000000 000000000000000A000000000000000000000000000000000000000000000 000000000000000000000000000000000000000     00000000                                                                                                                        000000000000000000
F0010000009373700005000090067091400013552100000000000000000201611040002001COMERCIALIZADORA ESCOBAR ORTIZ                    D000000000008000000000000000000000100010010000000000000000000000F0019373700520161104000101 00000000000000000000000000000000000000000000000000000000000000000000000000000000000000000000000000000000000000000N 00000000000NCONT   00    00000000000          00000000000000000000000000000000000000000000 000000000000000A000000000000000000000000000000000000000000000 000000000000000000000000000000000000000     00000000                                                                                                                        000000000000000000
F0010000009373800001000090067091400011050500000000000000000201611040002001COMERCIALIZADORA ESCOBAR ORTIZ                    D000000001700000000000000000000000100010010000000000000000000000F0019373800120161104000101 00000000000000000000000000000000000000000000000000000000000000000000000000000000000000000000000000000000000000000N 00000000000NCONT   00    00000000000          00000000000000000000000000000000000000000000 000000000000000A000000000000000000000000000000000000000000000 000000000000000000000000000000000000000     00000000                                                                                                                        000000000000000000
F0010000009373800002000090067091400041450500000000000000000201611040002001COMERCIALIZADORA ESCOBAR ORTIZ                    C000000001000000000000000000000000100010010000000000000000000000F0019373800220161104000101 00000000000000000000000000000000000000000000000000000000000000000000000000000000000000000000000000000000000000000N 00000000000NCONT   00    00000000000          00000000000000000000000000000000000000000000 000000000000000A000000000000000000000000000000000000000000000 000000000000000000000000000000000000000     00000000                                                                                                                        000000000000000000
F0010000009373800003000090067091400042505000000000000000000201611040002001COMERCIALIZADORA ESCOBAR ORTIZ                    C000000000700000000000000000000000100010010000000000000000000000F0019373800320161104000101 00000000000000000000000000000000000000000000000000000000000000000000000000000000000000000000000000000000000000000N 00000000000NCONT   00    00000000000          00000000000000000000000000000000000000000000 000000000000000A000000000000000000000000000000000000000000000 000000000000000000000000000000000000000     00000000                                                                                                                        000000000000000000
F0010000009373800004000090067091400023658300000000000000000201611040002001COMERCIALIZADORA ESCOBAR ORTIZ                    C000000000008000000000000000000000100010010000000000000000000000F0019373800420161104000101 00000000000000000000000000000000000000000000000000000000000000000000000000000000000000000000000000000000000000000N 00000000000NCONT   00    00000000000          00000000000000000000000000000000000000000000 000000000000000A000000000000000000000000000000000000000000000 000000000000000000000000000000000000000     00000000                                                                                                                        000000000000000000
F0010000009373800005000090067091400013552100000000000000000201611040002001COMERCIALIZADORA ESCOBAR ORTIZ                    D000000000008000000000000000000000100010010000000000000000000000F0019373800520161104000101 00000000000000000000000000000000000000000000000000000000000000000000000000000000000000000000000000000000000000000N 00000000000NCONT   00    00000000000          00000000000000000000000000000000000000000000 000000000000000A000000000000000000000000000000000000000000000 000000000000000000000000000000000000000     00000000                                                                                                                        000000000000000000
F0010000009373900001000090067091400011050500000000000000000201611040002001COMERCIALIZADORA ESCOBAR ORTIZ                    D000000006100000000000000000000000100010010000000000000000000000F0019373900120161104000101 00000000000000000000000000000000000000000000000000000000000000000000000000000000000000000000000000000000000000000N 00000000000NCONT   00    00000000000          00000000000000000000000000000000000000000000 000000000000000A000000000000000000000000000000000000000000000 000000000000000000000000000000000000000     00000000                                                                                                                        000000000000000000
F0010000009373900002000090067091400041450500000000000000000201611040002001COMERCIALIZADORA ESCOBAR ORTIZ                    C000000004000000000000000000000000100010010000000000000000000000F0019373900220161104000101 00000000000000000000000000000000000000000000000000000000000000000000000000000000000000000000000000000000000000000N 00000000000NCONT   00    00000000000          00000000000000000000000000000000000000000000 000000000000000A000000000000000000000000000000000000000000000 000000000000000000000000000000000000000     00000000                                                                                                                        000000000000000000
F0010000009373900003000090067091400042505000000000000000000201611040002001COMERCIALIZADORA ESCOBAR ORTIZ                    C000000002100000000000000000000000100010010000000000000000000000F0019373900320161104000101 00000000000000000000000000000000000000000000000000000000000000000000000000000000000000000000000000000000000000000N 00000000000NCONT   00    00000000000          00000000000000000000000000000000000000000000 000000000000000A000000000000000000000000000000000000000000000 000000000000000000000000000000000000000     00000000                                                                                                                        000000000000000000
F0010000009373900004000090067091400023658300000000000000000201611040002001COMERCIALIZADORA ESCOBAR ORTIZ                    C000000000032000000000000000000000100010010000000000000000000000F0019373900420161104000101 00000000000000000000000000000000000000000000000000000000000000000000000000000000000000000000000000000000000000000N 00000000000NCONT   00    00000000000          00000000000000000000000000000000000000000000 000000000000000A000000000000000000000000000000000000000000000 000000000000000000000000000000000000000     00000000                                                                                                                        000000000000000000
F0010000009373900005000090067091400013552100000000000000000201611040002001COMERCIALIZADORA ESCOBAR ORTIZ                    D000000000032000000000000000000000100010010000000000000000000000F0019373900520161104000101 00000000000000000000000000000000000000000000000000000000000000000000000000000000000000000000000000000000000000000N 00000000000NCONT   00    00000000000          00000000000000000000000000000000000000000000 000000000000000A000000000000000000000000000000000000000000000 000000000000000000000000000000000000000     00000000                                                                                                                        000000000000000000
F0010000009374000001000090067091400011050500000000000000000201611040002001COMERCIALIZADORA ESCOBAR ORTIZ                    D000000007400000000000000000000000100010010000000000000000000000F0019374000120161104000101 00000000000000000000000000000000000000000000000000000000000000000000000000000000000000000000000000000000000000000N 00000000000NCONT   00    00000000000          00000000000000000000000000000000000000000000 000000000000000A000000000000000000000000000000000000000000000 000000000000000000000000000000000000000     00000000                                                                                                                        000000000000000000
F0010000009374000002000090067091400041450500000000000000000201611040002001COMERCIALIZADORA ESCOBAR ORTIZ                    C000000005000000000000000000000000100010010000000000000000000000F0019374000220161104000101 00000000000000000000000000000000000000000000000000000000000000000000000000000000000000000000000000000000000000000N 00000000000NCONT   00    00000000000          00000000000000000000000000000000000000000000 000000000000000A000000000000000000000000000000000000000000000 000000000000000000000000000000000000000     00000000                                                                                                                        000000000000000000
F0010000009374000003000090067091400042505000000000000000000201611040002001COMERCIALIZADORA ESCOBAR ORTIZ                    C000000002400000000000000000000000100010010000000000000000000000F0019374000320161104000101 00000000000000000000000000000000000000000000000000000000000000000000000000000000000000000000000000000000000000000N 00000000000NCONT   00    00000000000          00000000000000000000000000000000000000000000 000000000000000A000000000000000000000000000000000000000000000 000000000000000000000000000000000000000     00000000                                                                                                                        000000000000000000
F0010000009374000004000090067091400023658300000000000000000201611040002001COMERCIALIZADORA ESCOBAR ORTIZ                    C000000000040000000000000000000000100010010000000000000000000000F0019374000420161104000101 00000000000000000000000000000000000000000000000000000000000000000000000000000000000000000000000000000000000000000N 00000000000NCONT   00    00000000000          00000000000000000000000000000000000000000000 000000000000000A000000000000000000000000000000000000000000000 000000000000000000000000000000000000000     00000000                                                                                                                        000000000000000000
F0010000009374000005000090067091400013552100000000000000000201611040002001COMERCIALIZADORA ESCOBAR ORTIZ                    D000000000040000000000000000000000100010010000000000000000000000F0019374000520161104000101 00000000000000000000000000000000000000000000000000000000000000000000000000000000000000000000000000000000000000000N 00000000000NCONT   00    00000000000          00000000000000000000000000000000000000000000 000000000000000A000000000000000000000000000000000000000000000 000000000000000000000000000000000000000     00000000                                                                                                                        000000000000000000
F0010000009374100001000090067091400011050500000000000000000201611040002001COMERCIALIZADORA ESCOBAR ORTIZ                    D000000001500000000000000000000000100010010000000000000000000000F0019374100120161104000101 00000000000000000000000000000000000000000000000000000000000000000000000000000000000000000000000000000000000000000N 00000000000NCONT   00    00000000000          00000000000000000000000000000000000000000000 000000000000000A000000000000000000000000000000000000000000000 000000000000000000000000000000000000000     00000000                                                                                                                        000000000000000000
F0010000009374100002000090067091400041450500000000000000000201611040002001COMERCIALIZADORA ESCOBAR ORTIZ                    C000000001000000000000000000000000100010010000000000000000000000F0019374100220161104000101 00000000000000000000000000000000000000000000000000000000000000000000000000000000000000000000000000000000000000000N 00000000000NCONT   00    00000000000          00000000000000000000000000000000000000000000 000000000000000A000000000000000000000000000000000000000000000 000000000000000000000000000000000000000     00000000                                                                                                                        000000000000000000
F0010000009374100003000090067091400042505000000000000000000201611040002001COMERCIALIZADORA ESCOBAR ORTIZ                    C000000000500000000000000000000000100010010000000000000000000000F0019374100320161104000101 00000000000000000000000000000000000000000000000000000000000000000000000000000000000000000000000000000000000000000N 00000000000NCONT   00    00000000000          00000000000000000000000000000000000000000000 000000000000000A000000000000000000000000000000000000000000000 000000000000000000000000000000000000000     00000000                                                                                                                        000000000000000000
