F0010000010198600001000086000490200013050500000000000000000201707170002001PROV. DE PAPELES ANDINA S.A.                      D000000099105300000000000000000000100010010000000000000000000000F0010000010198600120170717000101 00000000000000000000000000000000000000000000000000000000000000000000000000000000000000000000000000000000000000000N 00000000000NCONT   00    00000000000          00000000000000000000000000000000000000000000 000000000000000A000000000000000000000000000000000000000000000 000000000000000000000000000000000000000     00000000                                                                                                                        000000000000000000
F0010000010198600002000086000490200041450500000000000000000201707170002001PROV. DE PAPELES ANDINA S.A.                      C000000093395000000000000000000000100010010000000000000000000000F0010000010198600220170717000101 00000000000000000000000000000000000000000000000000000000000000000000000000000000000000000000000000000000000000000N 00000000000NCONT   00    00000000000          00000000000000000000000000000000000000000000 000000000000000A000000000000000000000000000000000000000000000 000000000000000000000000000000000000000     00000000                                                                                                                        000000000000000000
F0010000010198600003000086000490200042505000000000000000000201707170002001PROV. DE PAPELES ANDINA S.A.                      C000000005710300000000000000000000100010010000000000000000000000F0010000010198600320170717000101 00000000000000000000000000000000000000000000000000000000000000000000000000000000000000000000000000000000000000000N 00000000000NCONT   00    00000000000          00000000000000000000000000000000000000000000 000000000000000A000000000000000000000000000000000000000000000 000000000000000000000000000000000000000     00000000                                                                                                                        000000000000000000
F0010000010198600004000086000490200023658300000000000000000201707170002001PROV. DE PAPELES ANDINA S.A.                      C000000000000000000000000000000000100010010000000000000000000000F0010000010198600420170717000101 00000000000000000000000000000000000000000000000000000000000000000000000000000000000000000000000000000000000000000N 00000000000NCONT   00    00000000000          00000000000000000000000000000000000000000000 000000000000000A000000000000000000000000000000000000000000000 000000000000000000000000000000000000000     00000000                                                                                                                        000000000000000000
F0010000010198600005000086000490200013552100000000000000000201707170002001PROV. DE PAPELES ANDINA S.A.                      D000000000000000000000000000000000100010010000000000000000000000F0010000010198600520170717000101 00000000000000000000000000000000000000000000000000000000000000000000000000000000000000000000000000000000000000000N 00000000000NCONT   00    00000000000          00000000000000000000000000000000000000000000 000000000000000A000000000000000000000000000000000000000000000 000000000000000000000000000000000000000     00000000                                                                                                                        000000000000000000
F0010000010198700001000089010260300013050500000000000000000201707170002001FEDERICO OSORIO A. S.A.                           D000000118294300000000000000000000100010010000000000000000000000F0010000010198700120170717000101 00000000000000000000000000000000000000000000000000000000000000000000000000000000000000000000000000000000000000000N 00000000000NCONT   00    00000000000          00000000000000000000000000000000000000000000 000000000000000A000000000000000000000000000000000000000000000 000000000000000000000000000000000000000     00000000                                                                                                                        000000000000000000
F0010000010198700002000089010260300041450500000000000000000201707170002001FEDERICO OSORIO A. S.A.                           C000000110460000000000000000000000100010010000000000000000000000F0010000010198700220170717000101 00000000000000000000000000000000000000000000000000000000000000000000000000000000000000000000000000000000000000000N 00000000000NCONT   00    00000000000          00000000000000000000000000000000000000000000 000000000000000A000000000000000000000000000000000000000000000 000000000000000000000000000000000000000     00000000                                                                                                                        000000000000000000
F0010000010198700003000089010260300042505000000000000000000201707170002001FEDERICO OSORIO A. S.A.                           C000000007834300000000000000000000100010010000000000000000000000F0010000010198700320170717000101 00000000000000000000000000000000000000000000000000000000000000000000000000000000000000000000000000000000000000000N 00000000000NCONT   00    00000000000          00000000000000000000000000000000000000000000 000000000000000A000000000000000000000000000000000000000000000 000000000000000000000000000000000000000     00000000                                                                                                                        000000000000000000
F0010000010198700004000089010260300023658300000000000000000201707170002001FEDERICO OSORIO A. S.A.                           C000000000000000000000000000000000100010010000000000000000000000F0010000010198700420170717000101 00000000000000000000000000000000000000000000000000000000000000000000000000000000000000000000000000000000000000000N 00000000000NCONT   00    00000000000          00000000000000000000000000000000000000000000 000000000000000A000000000000000000000000000000000000000000000 000000000000000000000000000000000000000     00000000                                                                                                                        000000000000000000
F0010000010198700005000089010260300013552100000000000000000201707170002001FEDERICO OSORIO A. S.A.                           D000000000000000000000000000000000100010010000000000000000000000F0010000010198700520170717000101 00000000000000000000000000000000000000000000000000000000000000000000000000000000000000000000000000000000000000000N 00000000000NCONT   00    00000000000          00000000000000000000000000000000000000000000 000000000000000A000000000000000000000000000000000000000000000 000000000000000000000000000000000000000     00000000                                                                                                                        000000000000000000
F0010000010198800001000090008711200013050500000000000000000201707170002001PACKAGING SUPPLIERS S.A.S                         D000000025222500000000000000000000100010010000000000000000000000F0010000010198800120170717000101 00000000000000000000000000000000000000000000000000000000000000000000000000000000000000000000000000000000000000000N 00000000000NCONT   00    00000000000          00000000000000000000000000000000000000000000 000000000000000A000000000000000000000000000000000000000000000 000000000000000000000000000000000000000     00000000                                                                                                                        000000000000000000
F0010000010198800002000090008711200041450500000000000000000201707170002001PACKAGING SUPPLIERS S.A.S                         C000000022475000000000000000000000100010010000000000000000000000F0010000010198800220170717000101 00000000000000000000000000000000000000000000000000000000000000000000000000000000000000000000000000000000000000000N 00000000000NCONT   00    00000000000          00000000000000000000000000000000000000000000 000000000000000A000000000000000000000000000000000000000000000 000000000000000000000000000000000000000     00000000                                                                                                                        000000000000000000
F0010000010198800003000090008711200042505000000000000000000201707170002001PACKAGING SUPPLIERS S.A.S                         C000000002747500000000000000000000100010010000000000000000000000F0010000010198800320170717000101 00000000000000000000000000000000000000000000000000000000000000000000000000000000000000000000000000000000000000000N 00000000000NCONT   00    00000000000          00000000000000000000000000000000000000000000 000000000000000A000000000000000000000000000000000000000000000 000000000000000000000000000000000000000     00000000                                                                                                                        000000000000000000
F0010000010198800004000090008711200023658300000000000000000201707170002001PACKAGING SUPPLIERS S.A.S                         C000000000000000000000000000000000100010010000000000000000000000F0010000010198800420170717000101 00000000000000000000000000000000000000000000000000000000000000000000000000000000000000000000000000000000000000000N 00000000000NCONT   00    00000000000          00000000000000000000000000000000000000000000 000000000000000A000000000000000000000000000000000000000000000 000000000000000000000000000000000000000     00000000                                                                                                                        000000000000000000
F0010000010198800005000090008711200013552100000000000000000201707170002001PACKAGING SUPPLIERS S.A.S                         D000000000000000000000000000000000100010010000000000000000000000F0010000010198800520170717000101 00000000000000000000000000000000000000000000000000000000000000000000000000000000000000000000000000000000000000000N 00000000000NCONT   00    00000000000          00000000000000000000000000000000000000000000 000000000000000A000000000000000000000000000000000000000000000 000000000000000000000000000000000000000     00000000                                                                                                                        000000000000000000
F0010000010198900001000080200250700013050500000000000000000201707170002001ETICOL SAS                                        D000000015950000000000000000000000100010010000000000000000000000F0010000010198900120170717000101 00000000000000000000000000000000000000000000000000000000000000000000000000000000000000000000000000000000000000000N 00000000000NCONT   00    00000000000          00000000000000000000000000000000000000000000 000000000000000A000000000000000000000000000000000000000000000 000000000000000000000000000000000000000     00000000                                                                                                                        000000000000000000
F0010000010198900002000080200250700041450500000000000000000201707170002001ETICOL SAS                                        C000000014450000000000000000000000100010010000000000000000000000F0010000010198900220170717000101 00000000000000000000000000000000000000000000000000000000000000000000000000000000000000000000000000000000000000000N 00000000000NCONT   00    00000000000          00000000000000000000000000000000000000000000 000000000000000A000000000000000000000000000000000000000000000 000000000000000000000000000000000000000     00000000                                                                                                                        000000000000000000
F0010000010198900003000080200250700042505000000000000000000201707170002001ETICOL SAS                                        C000000001500000000000000000000000100010010000000000000000000000F0010000010198900320170717000101 00000000000000000000000000000000000000000000000000000000000000000000000000000000000000000000000000000000000000000N 00000000000NCONT   00    00000000000          00000000000000000000000000000000000000000000 000000000000000A000000000000000000000000000000000000000000000 000000000000000000000000000000000000000     00000000                                                                                                                        000000000000000000
F0010000010198900004000080200250700023658300000000000000000201707170002001ETICOL SAS                                        C000000000000000000000000000000000100010010000000000000000000000F0010000010198900420170717000101 00000000000000000000000000000000000000000000000000000000000000000000000000000000000000000000000000000000000000000N 00000000000NCONT   00    00000000000          00000000000000000000000000000000000000000000 000000000000000A000000000000000000000000000000000000000000000 000000000000000000000000000000000000000     00000000                                                                                                                        000000000000000000
F0010000010198900005000080200250700013552100000000000000000201707170002001ETICOL SAS                                        D000000000000000000000000000000000100010010000000000000000000000F0010000010198900520170717000101 00000000000000000000000000000000000000000000000000000000000000000000000000000000000000000000000000000000000000000N 00000000000NCONT   00    00000000000          00000000000000000000000000000000000000000000 000000000000000A000000000000000000000000000000000000000000000 000000000000000000000000000000000000000     00000000                                                                                                                        000000000000000000
F0010000010199000001000090048173700013050500000000000000000201707170002001ESPECIALIDADES QUIMICAS DEL NORTE SAS             D000000007640000000000000000000000100010010000000000000000000000F0010000010199000120170717000101 00000000000000000000000000000000000000000000000000000000000000000000000000000000000000000000000000000000000000000N 00000000000NCONT   00    00000000000          00000000000000000000000000000000000000000000 000000000000000A000000000000000000000000000000000000000000000 000000000000000000000000000000000000000     00000000                                                                                                                        000000000000000000
F0010000010199000002000090048173700041450500000000000000000201707170002001ESPECIALIDADES QUIMICAS DEL NORTE SAS             C000000007140000000000000000000000100010010000000000000000000000F0010000010199000220170717000101 00000000000000000000000000000000000000000000000000000000000000000000000000000000000000000000000000000000000000000N 00000000000NCONT   00    00000000000          00000000000000000000000000000000000000000000 000000000000000A000000000000000000000000000000000000000000000 000000000000000000000000000000000000000     00000000                                                                                                                        000000000000000000
F0010000010199000003000090048173700042505000000000000000000201707170002001ESPECIALIDADES QUIMICAS DEL NORTE SAS             C000000000500000000000000000000000100010010000000000000000000000F0010000010199000320170717000101 00000000000000000000000000000000000000000000000000000000000000000000000000000000000000000000000000000000000000000N 00000000000NCONT   00    00000000000          00000000000000000000000000000000000000000000 000000000000000A000000000000000000000000000000000000000000000 000000000000000000000000000000000000000     00000000                                                                                                                        000000000000000000
F0010000010199000004000090048173700023658300000000000000000201707170002001ESPECIALIDADES QUIMICAS DEL NORTE SAS             C000000000000000000000000000000000100010010000000000000000000000F0010000010199000420170717000101 00000000000000000000000000000000000000000000000000000000000000000000000000000000000000000000000000000000000000000N 00000000000NCONT   00    00000000000          00000000000000000000000000000000000000000000 000000000000000A000000000000000000000000000000000000000000000 000000000000000000000000000000000000000     00000000                                                                                                                        000000000000000000
F0010000010199000005000090048173700013552100000000000000000201707170002001ESPECIALIDADES QUIMICAS DEL NORTE SAS             D000000000000000000000000000000000100010010000000000000000000000F0010000010199000520170717000101 00000000000000000000000000000000000000000000000000000000000000000000000000000000000000000000000000000000000000000N 00000000000NCONT   00    00000000000          00000000000000000000000000000000000000000000 000000000000000A000000000000000000000000000000000000000000000 000000000000000000000000000000000000000     00000000                                                                                                                        000000000000000000
F0010000010199100001000080002300200013050500000000000000000201707170002001DISREL S.A.                                       D000000019350000000000000000000000100010010000000000000000000000F0010000010199100120170717000101 00000000000000000000000000000000000000000000000000000000000000000000000000000000000000000000000000000000000000000N 00000000000NCONT   00    00000000000          00000000000000000000000000000000000000000000 000000000000000A000000000000000000000000000000000000000000000 000000000000000000000000000000000000000     00000000                                                                                                                        000000000000000000
F0010000010199100002000080002300200041450500000000000000000201707170002001DISREL S.A.                                       C000000015480000000000000000000000100010010000000000000000000000F0010000010199100220170717000101 00000000000000000000000000000000000000000000000000000000000000000000000000000000000000000000000000000000000000000N 00000000000NCONT   00    00000000000          00000000000000000000000000000000000000000000 000000000000000A000000000000000000000000000000000000000000000 000000000000000000000000000000000000000     00000000                                                                                                                        000000000000000000
F0010000010199100003000080002300200042505000000000000000000201707170002001DISREL S.A.                                       C000000003870000000000000000000000100010010000000000000000000000F0010000010199100320170717000101 00000000000000000000000000000000000000000000000000000000000000000000000000000000000000000000000000000000000000000N 00000000000NCONT   00    00000000000          00000000000000000000000000000000000000000000 000000000000000A000000000000000000000000000000000000000000000 000000000000000000000000000000000000000     00000000                                                                                                                        000000000000000000
F0010000010199100004000080002300200023658300000000000000000201707170002001DISREL S.A.                                       C000000000000000000000000000000000100010010000000000000000000000F0010000010199100420170717000101 00000000000000000000000000000000000000000000000000000000000000000000000000000000000000000000000000000000000000000N 00000000000NCONT   00    00000000000          00000000000000000000000000000000000000000000 000000000000000A000000000000000000000000000000000000000000000 000000000000000000000000000000000000000     00000000                                                                                                                        000000000000000000
F0010000010199100005000080002300200013552100000000000000000201707170002001DISREL S.A.                                       D000000000000000000000000000000000100010010000000000000000000000F0010000010199100520170717000101 00000000000000000000000000000000000000000000000000000000000000000000000000000000000000000000000000000000000000000N 00000000000NCONT   00    00000000000          00000000000000000000000000000000000000000000 000000000000000A000000000000000000000000000000000000000000000 000000000000000000000000000000000000000     00000000                                                                                                                        000000000000000000
F0010000010199200001000090070305900013050500000000000000000201707170002001CONSTRUCCIONES Y ASOCIADOS DE LA COSTA            D000000022200000000000000000000000100010010000000000000000000000F0010000010199200120170717000101 00000000000000000000000000000000000000000000000000000000000000000000000000000000000000000000000000000000000000000N 00000000000NCONT   00    00000000000          00000000000000000000000000000000000000000000 000000000000000A000000000000000000000000000000000000000000000 000000000000000000000000000000000000000     00000000                                                                                                                        000000000000000000
F0010000010199200002000090070305900041450500000000000000000201707170002001CONSTRUCCIONES Y ASOCIADOS DE LA COSTA            C000000021200000000000000000000000100010010000000000000000000000F0010000010199200220170717000101 00000000000000000000000000000000000000000000000000000000000000000000000000000000000000000000000000000000000000000N 00000000000NCONT   00    00000000000          00000000000000000000000000000000000000000000 000000000000000A000000000000000000000000000000000000000000000 000000000000000000000000000000000000000     00000000                                                                                                                        000000000000000000
F0010000010199200003000090070305900042505000000000000000000201707170002001CONSTRUCCIONES Y ASOCIADOS DE LA COSTA            C000000001000000000000000000000000100010010000000000000000000000F0010000010199200320170717000101 00000000000000000000000000000000000000000000000000000000000000000000000000000000000000000000000000000000000000000N 00000000000NCONT   00    00000000000          00000000000000000000000000000000000000000000 000000000000000A000000000000000000000000000000000000000000000 000000000000000000000000000000000000000     00000000                                                                                                                        000000000000000000
F0010000010199200004000090070305900023658300000000000000000201707170002001CONSTRUCCIONES Y ASOCIADOS DE LA COSTA            C000000000000000000000000000000000100010010000000000000000000000F0010000010199200420170717000101 00000000000000000000000000000000000000000000000000000000000000000000000000000000000000000000000000000000000000000N 00000000000NCONT   00    00000000000          00000000000000000000000000000000000000000000 000000000000000A000000000000000000000000000000000000000000000 000000000000000000000000000000000000000     00000000                                                                                                                        000000000000000000
F0010000010199200005000090070305900013552100000000000000000201707170002001CONSTRUCCIONES Y ASOCIADOS DE LA COSTA            D000000000000000000000000000000000100010010000000000000000000000F0010000010199200520170717000101 00000000000000000000000000000000000000000000000000000000000000000000000000000000000000000000000000000000000000000N 00000000000NCONT   00    00000000000          00000000000000000000000000000000000000000000 000000000000000A000000000000000000000000000000000000000000000 000000000000000000000000000000000000000     00000000                                                                                                                        000000000000000000
F0010000010199300001000080200608400013050500000000000000000201707170002001HIT DISTRIBUCIONES SAS                            D000000008100000000000000000000000100010010000000000000000000000F0010000010199300120170717000101 00000000000000000000000000000000000000000000000000000000000000000000000000000000000000000000000000000000000000000N 00000000000NCONT   00    00000000000          00000000000000000000000000000000000000000000 000000000000000A000000000000000000000000000000000000000000000 000000000000000000000000000000000000000     00000000                                                                                                                        000000000000000000
F0010000010199300002000080200608400041450500000000000000000201707170002001HIT DISTRIBUCIONES SAS                            C000000007000000000000000000000000100010010000000000000000000000F0010000010199300220170717000101 00000000000000000000000000000000000000000000000000000000000000000000000000000000000000000000000000000000000000000N 00000000000NCONT   00    00000000000          00000000000000000000000000000000000000000000 000000000000000A000000000000000000000000000000000000000000000 000000000000000000000000000000000000000     00000000                                                                                                                        000000000000000000
F0010000010199300003000080200608400042505000000000000000000201707170002001HIT DISTRIBUCIONES SAS                            C000000001100000000000000000000000100010010000000000000000000000F0010000010199300320170717000101 00000000000000000000000000000000000000000000000000000000000000000000000000000000000000000000000000000000000000000N 00000000000NCONT   00    00000000000          00000000000000000000000000000000000000000000 000000000000000A000000000000000000000000000000000000000000000 000000000000000000000000000000000000000     00000000                                                                                                                        000000000000000000
F0010000010199300004000080200608400023658300000000000000000201707170002001HIT DISTRIBUCIONES SAS                            C000000000000000000000000000000000100010010000000000000000000000F0010000010199300420170717000101 00000000000000000000000000000000000000000000000000000000000000000000000000000000000000000000000000000000000000000N 00000000000NCONT   00    00000000000          00000000000000000000000000000000000000000000 000000000000000A000000000000000000000000000000000000000000000 000000000000000000000000000000000000000     00000000                                                                                                                        000000000000000000
F0010000010199300005000080200608400013552100000000000000000201707170002001HIT DISTRIBUCIONES SAS                            D000000000000000000000000000000000100010010000000000000000000000F0010000010199300520170717000101 00000000000000000000000000000000000000000000000000000000000000000000000000000000000000000000000000000000000000000N 00000000000NCONT   00    00000000000          00000000000000000000000000000000000000000000 000000000000000A000000000000000000000000000000000000000000000 000000000000000000000000000000000000000     00000000                                                                                                                        000000000000000000
F0010000010199400001000090064982900013050500000000000000000201707170002001DISDIES S.A.S                                     D000000024908200000000000000000000100010010000000000000000000000F0010000010199400120170717000101 00000000000000000000000000000000000000000000000000000000000000000000000000000000000000000000000000000000000000000N 00000000000NCONT   00    00000000000          00000000000000000000000000000000000000000000 000000000000000A000000000000000000000000000000000000000000000 000000000000000000000000000000000000000     00000000                                                                                                                        000000000000000000
F0010000010199400002000090064982900041450500000000000000000201707170002001DISDIES S.A.S                                     C000000021423200000000000000000000100010010000000000000000000000F0010000010199400220170717000101 00000000000000000000000000000000000000000000000000000000000000000000000000000000000000000000000000000000000000000N 00000000000NCONT   00    00000000000          00000000000000000000000000000000000000000000 000000000000000A000000000000000000000000000000000000000000000 000000000000000000000000000000000000000     00000000                                                                                                                        000000000000000000
F0010000010199400003000090064982900042505000000000000000000201707170002001DISDIES S.A.S                                     C000000003485000000000000000000000100010010000000000000000000000F0010000010199400320170717000101 00000000000000000000000000000000000000000000000000000000000000000000000000000000000000000000000000000000000000000N 00000000000NCONT   00    00000000000          00000000000000000000000000000000000000000000 000000000000000A000000000000000000000000000000000000000000000 000000000000000000000000000000000000000     00000000                                                                                                                        000000000000000000
F0010000010199400004000090064982900023658300000000000000000201707170002001DISDIES S.A.S                                     C000000000000000000000000000000000100010010000000000000000000000F0010000010199400420170717000101 00000000000000000000000000000000000000000000000000000000000000000000000000000000000000000000000000000000000000000N 00000000000NCONT   00    00000000000          00000000000000000000000000000000000000000000 000000000000000A000000000000000000000000000000000000000000000 000000000000000000000000000000000000000     00000000                                                                                                                        000000000000000000
F0010000010199400005000090064982900013552100000000000000000201707170002001DISDIES S.A.S                                     D000000000000000000000000000000000100010010000000000000000000000F0010000010199400520170717000101 00000000000000000000000000000000000000000000000000000000000000000000000000000000000000000000000000000000000000000N 00000000000NCONT   00    00000000000          00000000000000000000000000000000000000000000 000000000000000A000000000000000000000000000000000000000000000 000000000000000000000000000000000000000     00000000                                                                                                                        000000000000000000
F0010000010199500001000090060531100013050500000000000000000201707170002001RECUBRIMIENTOS ESENCIALES SAS                     D000000092640000000000000000000000100010010000000000000000000000F0010000010199500120170717000101 00000000000000000000000000000000000000000000000000000000000000000000000000000000000000000000000000000000000000000N 00000000000NCONT   00    00000000000          00000000000000000000000000000000000000000000 000000000000000A000000000000000000000000000000000000000000000 000000000000000000000000000000000000000     00000000                                                                                                                        000000000000000000
F0010000010199500002000090060531100041450500000000000000000201707170002001RECUBRIMIENTOS ESENCIALES SAS                     C000000089590000000000000000000000100010010000000000000000000000F0010000010199500220170717000101 00000000000000000000000000000000000000000000000000000000000000000000000000000000000000000000000000000000000000000N 00000000000NCONT   00    00000000000          00000000000000000000000000000000000000000000 000000000000000A000000000000000000000000000000000000000000000 000000000000000000000000000000000000000     00000000                                                                                                                        000000000000000000
F0010000010199500003000090060531100042505000000000000000000201707170002001RECUBRIMIENTOS ESENCIALES SAS                     C000000003050000000000000000000000100010010000000000000000000000F0010000010199500320170717000101 00000000000000000000000000000000000000000000000000000000000000000000000000000000000000000000000000000000000000000N 00000000000NCONT   00    00000000000          00000000000000000000000000000000000000000000 000000000000000A000000000000000000000000000000000000000000000 000000000000000000000000000000000000000     00000000                                                                                                                        000000000000000000
F0010000010199500004000090060531100023658300000000000000000201707170002001RECUBRIMIENTOS ESENCIALES SAS                     C000000000000000000000000000000000100010010000000000000000000000F0010000010199500420170717000101 00000000000000000000000000000000000000000000000000000000000000000000000000000000000000000000000000000000000000000N 00000000000NCONT   00    00000000000          00000000000000000000000000000000000000000000 000000000000000A000000000000000000000000000000000000000000000 000000000000000000000000000000000000000     00000000                                                                                                                        000000000000000000
F0010000010199500005000090060531100013552100000000000000000201707170002001RECUBRIMIENTOS ESENCIALES SAS                     D000000000000000000000000000000000100010010000000000000000000000F0010000010199500520170717000101 00000000000000000000000000000000000000000000000000000000000000000000000000000000000000000000000000000000000000000N 00000000000NCONT   00    00000000000          00000000000000000000000000000000000000000000 000000000000000A000000000000000000000000000000000000000000000 000000000000000000000000000000000000000     00000000                                                                                                                        000000000000000000
F0010000010199800001000080202094000013050500000000000000000201707170002001DISTRIB. OMAR ORREGO S.A.                         D000000085860800000000000000000000100010010000000000000000000000F0010000010199800120170717000101 00000000000000000000000000000000000000000000000000000000000000000000000000000000000000000000000000000000000000000N 00000000000NCONT   00    00000000000          00000000000000000000000000000000000000000000 000000000000000A000000000000000000000000000000000000000000000 000000000000000000000000000000000000000     00000000                                                                                                                        000000000000000000
F0010000010199800002000080202094000041450500000000000000000201707170002001DISTRIB. OMAR ORREGO S.A.                         C000000055820000000000000000000000100010010000000000000000000000F0010000010199800220170717000101 00000000000000000000000000000000000000000000000000000000000000000000000000000000000000000000000000000000000000000N 00000000000NCONT   00    00000000000          00000000000000000000000000000000000000000000 000000000000000A000000000000000000000000000000000000000000000 000000000000000000000000000000000000000     00000000                                                                                                                        000000000000000000
F0010000010199800003000080202094000042505000000000000000000201707170002001DISTRIB. OMAR ORREGO S.A.                         C000000030040800000000000000000000100010010000000000000000000000F0010000010199800320170717000101 00000000000000000000000000000000000000000000000000000000000000000000000000000000000000000000000000000000000000000N 00000000000NCONT   00    00000000000          00000000000000000000000000000000000000000000 000000000000000A000000000000000000000000000000000000000000000 000000000000000000000000000000000000000     00000000                                                                                                                        000000000000000000
F0010000010199800004000080202094000023658300000000000000000201707170002001DISTRIB. OMAR ORREGO S.A.                         C000000000000000000000000000000000100010010000000000000000000000F0010000010199800420170717000101 00000000000000000000000000000000000000000000000000000000000000000000000000000000000000000000000000000000000000000N 00000000000NCONT   00    00000000000          00000000000000000000000000000000000000000000 000000000000000A000000000000000000000000000000000000000000000 000000000000000000000000000000000000000     00000000                                                                                                                        000000000000000000
F0010000010199800005000080202094000013552100000000000000000201707170002001DISTRIB. OMAR ORREGO S.A.                         D000000000000000000000000000000000100010010000000000000000000000F0010000010199800520170717000101 00000000000000000000000000000000000000000000000000000000000000000000000000000000000000000000000000000000000000000N 00000000000NCONT   00    00000000000          00000000000000000000000000000000000000000000 000000000000000A000000000000000000000000000000000000000000000 000000000000000000000000000000000000000     00000000                                                                                                                        000000000000000000
F0010000010199900001000080202094000013050500000000000000000201707170002001DISTRIB. OMAR ORREGO S.A.                         D000000008085200000000000000000000100010010000000000000000000000F0010000010199900120170717000101 00000000000000000000000000000000000000000000000000000000000000000000000000000000000000000000000000000000000000000N 00000000000NCONT   00    00000000000          00000000000000000000000000000000000000000000 000000000000000A000000000000000000000000000000000000000000000 000000000000000000000000000000000000000     00000000                                                                                                                        000000000000000000
F0010000010199900002000080202094000041450500000000000000000201707170002001DISTRIB. OMAR ORREGO S.A.                         C000000002690000000000000000000000100010010000000000000000000000F0010000010199900220170717000101 00000000000000000000000000000000000000000000000000000000000000000000000000000000000000000000000000000000000000000N 00000000000NCONT   00    00000000000          00000000000000000000000000000000000000000000 000000000000000A000000000000000000000000000000000000000000000 000000000000000000000000000000000000000     00000000                                                                                                                        000000000000000000
F0010000010199900003000080202094000042505000000000000000000201707170002001DISTRIB. OMAR ORREGO S.A.                         C000000005395200000000000000000000100010010000000000000000000000F0010000010199900320170717000101 00000000000000000000000000000000000000000000000000000000000000000000000000000000000000000000000000000000000000000N 00000000000NCONT   00    00000000000          00000000000000000000000000000000000000000000 000000000000000A000000000000000000000000000000000000000000000 000000000000000000000000000000000000000     00000000                                                                                                                        000000000000000000
F0010000010199900004000080202094000023658300000000000000000201707170002001DISTRIB. OMAR ORREGO S.A.                         C000000000000000000000000000000000100010010000000000000000000000F0010000010199900420170717000101 00000000000000000000000000000000000000000000000000000000000000000000000000000000000000000000000000000000000000000N 00000000000NCONT   00    00000000000          00000000000000000000000000000000000000000000 000000000000000A000000000000000000000000000000000000000000000 000000000000000000000000000000000000000     00000000                                                                                                                        000000000000000000
F0010000010199900005000080202094000013552100000000000000000201707170002001DISTRIB. OMAR ORREGO S.A.                         D000000000000000000000000000000000100010010000000000000000000000F0010000010199900520170717000101 00000000000000000000000000000000000000000000000000000000000000000000000000000000000000000000000000000000000000000N 00000000000NCONT   00    00000000000          00000000000000000000000000000000000000000000 000000000000000A000000000000000000000000000000000000000000000 000000000000000000000000000000000000000     00000000                                                                                                                        000000000000000000
F0010000010200000001000000871714900013050500000000000000000201707170002001ROLNAN DE LA ROSA  INSIGNARES                     D000000034404000000000000000000000100010010000000000000000000000F0010000010200000120170717000101 00000000000000000000000000000000000000000000000000000000000000000000000000000000000000000000000000000000000000000N 00000000000NCONT   00    00000000000          00000000000000000000000000000000000000000000 000000000000000A000000000000000000000000000000000000000000000 000000000000000000000000000000000000000     00000000                                                                                                                        000000000000000000
F0010000010200000002000000871714900041450500000000000000000201707170002001ROLNAN DE LA ROSA  INSIGNARES                     C000000028359000000000000000000000100010010000000000000000000000F0010000010200000220170717000101 00000000000000000000000000000000000000000000000000000000000000000000000000000000000000000000000000000000000000000N 00000000000NCONT   00    00000000000          00000000000000000000000000000000000000000000 000000000000000A000000000000000000000000000000000000000000000 000000000000000000000000000000000000000     00000000                                                                                                                        000000000000000000
F0010000010200000003000000871714900042505000000000000000000201707170002001ROLNAN DE LA ROSA  INSIGNARES                     C000000006045000000000000000000000100010010000000000000000000000F0010000010200000320170717000101 00000000000000000000000000000000000000000000000000000000000000000000000000000000000000000000000000000000000000000N 00000000000NCONT   00    00000000000          00000000000000000000000000000000000000000000 000000000000000A000000000000000000000000000000000000000000000 000000000000000000000000000000000000000     00000000                                                                                                                        000000000000000000
F0010000010200000004000000871714900023658300000000000000000201707170002001ROLNAN DE LA ROSA  INSIGNARES                     C000000000000000000000000000000000100010010000000000000000000000F0010000010200000420170717000101 00000000000000000000000000000000000000000000000000000000000000000000000000000000000000000000000000000000000000000N 00000000000NCONT   00    00000000000          00000000000000000000000000000000000000000000 000000000000000A000000000000000000000000000000000000000000000 000000000000000000000000000000000000000     00000000                                                                                                                        000000000000000000
F0010000010200000005000000871714900013552100000000000000000201707170002001ROLNAN DE LA ROSA  INSIGNARES                     D000000000000000000000000000000000100010010000000000000000000000F0010000010200000520170717000101 00000000000000000000000000000000000000000000000000000000000000000000000000000000000000000000000000000000000000000N 00000000000NCONT   00    00000000000          00000000000000000000000000000000000000000000 000000000000000A000000000000000000000000000000000000000000000 000000000000000000000000000000000000000     00000000                                                                                                                        000000000000000000
F0010000010200100001000083007900600013050500000000000000000201707170002001EXPRESO ANDINO DE CARGA SA                        D000000028100000000000000000000000100010010000000000000000000000F0010000010200100120170717000101 00000000000000000000000000000000000000000000000000000000000000000000000000000000000000000000000000000000000000000N 00000000000NCONT   00    00000000000          00000000000000000000000000000000000000000000 000000000000000A000000000000000000000000000000000000000000000 000000000000000000000000000000000000000     00000000                                                                                                                        000000000000000000
F0010000010200100002000083007900600041450500000000000000000201707170002001EXPRESO ANDINO DE CARGA SA                        C000000027900000000000000000000000100010010000000000000000000000F0010000010200100220170717000101 00000000000000000000000000000000000000000000000000000000000000000000000000000000000000000000000000000000000000000N 00000000000NCONT   00    00000000000          00000000000000000000000000000000000000000000 000000000000000A000000000000000000000000000000000000000000000 000000000000000000000000000000000000000     00000000                                                                                                                        000000000000000000
F0010000010200100003000083007900600042505000000000000000000201707170002001EXPRESO ANDINO DE CARGA SA                        C000000000200000000000000000000000100010010000000000000000000000F0010000010200100320170717000101 00000000000000000000000000000000000000000000000000000000000000000000000000000000000000000000000000000000000000000N 00000000000NCONT   00    00000000000          00000000000000000000000000000000000000000000 000000000000000A000000000000000000000000000000000000000000000 000000000000000000000000000000000000000     00000000                                                                                                                        000000000000000000
F0010000010200100004000083007900600023658300000000000000000201707170002001EXPRESO ANDINO DE CARGA SA                        C000000000000000000000000000000000100010010000000000000000000000F0010000010200100420170717000101 00000000000000000000000000000000000000000000000000000000000000000000000000000000000000000000000000000000000000000N 00000000000NCONT   00    00000000000          00000000000000000000000000000000000000000000 000000000000000A000000000000000000000000000000000000000000000 000000000000000000000000000000000000000     00000000                                                                                                                        000000000000000000
F0010000010200100005000083007900600013552100000000000000000201707170002001EXPRESO ANDINO DE CARGA SA                        D000000000000000000000000000000000100010010000000000000000000000F0010000010200100520170717000101 00000000000000000000000000000000000000000000000000000000000000000000000000000000000000000000000000000000000000000N 00000000000NCONT   00    00000000000          00000000000000000000000000000000000000000000 000000000000000A000000000000000000000000000000000000000000000 000000000000000000000000000000000000000     00000000                                                                                                                        000000000000000000
F0010000010200200001000080201112800013050500000000000000000201707170002001CANGURO INTERNATIONAL S.A.                        D000000145306100000000000000000000100010010000000000000000000000F0010000010200200120170717000101 00000000000000000000000000000000000000000000000000000000000000000000000000000000000000000000000000000000000000000N 00000000000NCONT   00    00000000000          00000000000000000000000000000000000000000000 000000000000000A000000000000000000000000000000000000000000000 000000000000000000000000000000000000000     00000000                                                                                                                        000000000000000000
F0010000010200200002000080201112800041450500000000000000000201707170002001CANGURO INTERNATIONAL S.A.                        C000000143357400000000000000000000100010010000000000000000000000F0010000010200200220170717000101 00000000000000000000000000000000000000000000000000000000000000000000000000000000000000000000000000000000000000000N 00000000000NCONT   00    00000000000          00000000000000000000000000000000000000000000 000000000000000A000000000000000000000000000000000000000000000 000000000000000000000000000000000000000     00000000                                                                                                                        000000000000000000
F0010000010200200003000080201112800042505000000000000000000201707170002001CANGURO INTERNATIONAL S.A.                        C000000001948700000000000000000000100010010000000000000000000000F0010000010200200320170717000101 00000000000000000000000000000000000000000000000000000000000000000000000000000000000000000000000000000000000000000N 00000000000NCONT   00    00000000000          00000000000000000000000000000000000000000000 000000000000000A000000000000000000000000000000000000000000000 000000000000000000000000000000000000000     00000000                                                                                                                        000000000000000000
F0010000010200200004000080201112800023658300000000000000000201707170002001CANGURO INTERNATIONAL S.A.                        C000000000000000000000000000000000100010010000000000000000000000F0010000010200200420170717000101 00000000000000000000000000000000000000000000000000000000000000000000000000000000000000000000000000000000000000000N 00000000000NCONT   00    00000000000          00000000000000000000000000000000000000000000 000000000000000A000000000000000000000000000000000000000000000 000000000000000000000000000000000000000     00000000                                                                                                                        000000000000000000
F0010000010200200005000080201112800013552100000000000000000201707170002001CANGURO INTERNATIONAL S.A.                        D000000000000000000000000000000000100010010000000000000000000000F0010000010200200520170717000101 00000000000000000000000000000000000000000000000000000000000000000000000000000000000000000000000000000000000000000N 00000000000NCONT   00    00000000000          00000000000000000000000000000000000000000000 000000000000000A000000000000000000000000000000000000000000000 000000000000000000000000000000000000000     00000000                                                                                                                        000000000000000000
F0010000010200300001000080201112800013050500000000000000000201707170002001CANGURO INTERNATIONAL S.A.                        D000000271878800000000000000000000100010010000000000000000000000F0010000010200300120170717000101 00000000000000000000000000000000000000000000000000000000000000000000000000000000000000000000000000000000000000000N 00000000000NCONT   00    00000000000          00000000000000000000000000000000000000000000 000000000000000A000000000000000000000000000000000000000000000 000000000000000000000000000000000000000     00000000                                                                                                                        000000000000000000
F0010000010200300002000080201112800041450500000000000000000201707170002001CANGURO INTERNATIONAL S.A.                        C000000257686100000000000000000000100010010000000000000000000000F0010000010200300220170717000101 00000000000000000000000000000000000000000000000000000000000000000000000000000000000000000000000000000000000000000N 00000000000NCONT   00    00000000000          00000000000000000000000000000000000000000000 000000000000000A000000000000000000000000000000000000000000000 000000000000000000000000000000000000000     00000000                                                                                                                        000000000000000000
F0010000010200300003000080201112800042505000000000000000000201707170002001CANGURO INTERNATIONAL S.A.                        C000000014192700000000000000000000100010010000000000000000000000F0010000010200300320170717000101 00000000000000000000000000000000000000000000000000000000000000000000000000000000000000000000000000000000000000000N 00000000000NCONT   00    00000000000          00000000000000000000000000000000000000000000 000000000000000A000000000000000000000000000000000000000000000 000000000000000000000000000000000000000     00000000                                                                                                                        000000000000000000
F0010000010200300004000080201112800023658300000000000000000201707170002001CANGURO INTERNATIONAL S.A.                        C000000000000000000000000000000000100010010000000000000000000000F0010000010200300420170717000101 00000000000000000000000000000000000000000000000000000000000000000000000000000000000000000000000000000000000000000N 00000000000NCONT   00    00000000000          00000000000000000000000000000000000000000000 000000000000000A000000000000000000000000000000000000000000000 000000000000000000000000000000000000000     00000000                                                                                                                        000000000000000000
F0010000010200300005000080201112800013552100000000000000000201707170002001CANGURO INTERNATIONAL S.A.                        D000000000000000000000000000000000100010010000000000000000000000F0010000010200300520170717000101 00000000000000000000000000000000000000000000000000000000000000000000000000000000000000000000000000000000000000000N 00000000000NCONT   00    00000000000          00000000000000000000000000000000000000000000 000000000000000A000000000000000000000000000000000000000000000 000000000000000000000000000000000000000     00000000                                                                                                                        000000000000000000
F0010000010200400001000080201112800013050500000000000000000201707170002001CANGURO INTERNATIONAL S.A.                        D000000033132600000000000000000000100010010000000000000000000000F0010000010200400120170717000101 00000000000000000000000000000000000000000000000000000000000000000000000000000000000000000000000000000000000000000N 00000000000NCONT   00    00000000000          00000000000000000000000000000000000000000000 000000000000000A000000000000000000000000000000000000000000000 000000000000000000000000000000000000000     00000000                                                                                                                        000000000000000000
F0010000010200400002000080201112800041450500000000000000000201707170002001CANGURO INTERNATIONAL S.A.                        C000000031132600000000000000000000100010010000000000000000000000F0010000010200400220170717000101 00000000000000000000000000000000000000000000000000000000000000000000000000000000000000000000000000000000000000000N 00000000000NCONT   00    00000000000          00000000000000000000000000000000000000000000 000000000000000A000000000000000000000000000000000000000000000 000000000000000000000000000000000000000     00000000                                                                                                                        000000000000000000
F0010000010200400003000080201112800042505000000000000000000201707170002001CANGURO INTERNATIONAL S.A.                        C000000002000000000000000000000000100010010000000000000000000000F0010000010200400320170717000101 00000000000000000000000000000000000000000000000000000000000000000000000000000000000000000000000000000000000000000N 00000000000NCONT   00    00000000000          00000000000000000000000000000000000000000000 000000000000000A000000000000000000000000000000000000000000000 000000000000000000000000000000000000000     00000000                                                                                                                        000000000000000000
F0010000010200400004000080201112800023658300000000000000000201707170002001CANGURO INTERNATIONAL S.A.                        C000000000000000000000000000000000100010010000000000000000000000F0010000010200400420170717000101 00000000000000000000000000000000000000000000000000000000000000000000000000000000000000000000000000000000000000000N 00000000000NCONT   00    00000000000          00000000000000000000000000000000000000000000 000000000000000A000000000000000000000000000000000000000000000 000000000000000000000000000000000000000     00000000                                                                                                                        000000000000000000
F0010000010200400005000080201112800013552100000000000000000201707170002001CANGURO INTERNATIONAL S.A.                        D000000000000000000000000000000000100010010000000000000000000000F0010000010200400520170717000101 00000000000000000000000000000000000000000000000000000000000000000000000000000000000000000000000000000000000000000N 00000000000NCONT   00    00000000000          00000000000000000000000000000000000000000000 000000000000000A000000000000000000000000000000000000000000000 000000000000000000000000000000000000000     00000000                                                                                                                        000000000000000000
F0010000010199600001000090022551800013050500000000000000000201707170002001GRUPO DAVANI S.A.S                                D000000161662600000000000000000000200010010000000000000000000000F0010000010199600120170717000101 00000000000000000000000000000000000000000000000000000000000000000000000000000000000000000000000000000000000000000N 00000000000NCONT   00    00000000000          00000000000000000000000000000000000000000000 000000000000000A000000000000000000000000000000000000000000000 000000000000000000000000000000000000000     00000000                                                                                                                        000000000000000000
F0010000010199600002000090022551800041450500000000000000000201707170002001GRUPO DAVANI S.A.S                                C000000119030000000000000000000000200010010000000000000000000000F0010000010199600220170717000101 00000000000000000000000000000000000000000000000000000000000000000000000000000000000000000000000000000000000000000N 00000000000NCONT   00    00000000000          00000000000000000000000000000000000000000000 000000000000000A000000000000000000000000000000000000000000000 000000000000000000000000000000000000000     00000000                                                                                                                        000000000000000000
F0010000010199600003000090022551800042505000000000000000000201707170002001GRUPO DAVANI S.A.S                                C000000042632600000000000000000000200010010000000000000000000000F0010000010199600320170717000101 00000000000000000000000000000000000000000000000000000000000000000000000000000000000000000000000000000000000000000N 00000000000NCONT   00    00000000000          00000000000000000000000000000000000000000000 000000000000000A000000000000000000000000000000000000000000000 000000000000000000000000000000000000000     00000000                                                                                                                        000000000000000000
F0010000010199600004000090022551800023658300000000000000000201707170002001GRUPO DAVANI S.A.S                                C000000000000000000000000000000000200010010000000000000000000000F0010000010199600420170717000101 00000000000000000000000000000000000000000000000000000000000000000000000000000000000000000000000000000000000000000N 00000000000NCONT   00    00000000000          00000000000000000000000000000000000000000000 000000000000000A000000000000000000000000000000000000000000000 000000000000000000000000000000000000000     00000000                                                                                                                        000000000000000000
F0010000010199600005000090022551800013552100000000000000000201707170002001GRUPO DAVANI S.A.S                                D000000000000000000000000000000000200010010000000000000000000000F0010000010199600520170717000101 00000000000000000000000000000000000000000000000000000000000000000000000000000000000000000000000000000000000000000N 00000000000NCONT   00    00000000000          00000000000000000000000000000000000000000000 000000000000000A000000000000000000000000000000000000000000000 000000000000000000000000000000000000000     00000000                                                                                                                        000000000000000000
F0010000010199700001000090022551800013050500000000000000000201707170002001GRUPO DAVANI S.A.S                                D000000053180100000000000000000000200010010000000000000000000000F0010000010199700120170717000101 00000000000000000000000000000000000000000000000000000000000000000000000000000000000000000000000000000000000000000N 00000000000NCONT   00    00000000000          00000000000000000000000000000000000000000000 000000000000000A000000000000000000000000000000000000000000000 000000000000000000000000000000000000000     00000000                                                                                                                        000000000000000000
F0010000010199700002000090022551800041450500000000000000000201707170002001GRUPO DAVANI S.A.S                                C000000040600000000000000000000000200010010000000000000000000000F0010000010199700220170717000101 00000000000000000000000000000000000000000000000000000000000000000000000000000000000000000000000000000000000000000N 00000000000NCONT   00    00000000000          00000000000000000000000000000000000000000000 000000000000000A000000000000000000000000000000000000000000000 000000000000000000000000000000000000000     00000000                                                                                                                        000000000000000000
F0010000010199700003000090022551800042505000000000000000000201707170002001GRUPO DAVANI S.A.S                                C000000012580100000000000000000000200010010000000000000000000000F0010000010199700320170717000101 00000000000000000000000000000000000000000000000000000000000000000000000000000000000000000000000000000000000000000N 00000000000NCONT   00    00000000000          00000000000000000000000000000000000000000000 000000000000000A000000000000000000000000000000000000000000000 000000000000000000000000000000000000000     00000000                                                                                                                        000000000000000000
F0010000010199700004000090022551800023658300000000000000000201707170002001GRUPO DAVANI S.A.S                                C000000000000000000000000000000000200010010000000000000000000000F0010000010199700420170717000101 00000000000000000000000000000000000000000000000000000000000000000000000000000000000000000000000000000000000000000N 00000000000NCONT   00    00000000000          00000000000000000000000000000000000000000000 000000000000000A000000000000000000000000000000000000000000000 000000000000000000000000000000000000000     00000000                                                                                                                        000000000000000000
F0010000010199700005000090022551800013552100000000000000000201707170002001GRUPO DAVANI S.A.S                                D000000000000000000000000000000000200010010000000000000000000000F0010000010199700520170717000101 00000000000000000000000000000000000000000000000000000000000000000000000000000000000000000000000000000000000000000N 00000000000NCONT   00    00000000000          00000000000000000000000000000000000000000000 000000000000000A000000000000000000000000000000000000000000000 000000000000000000000000000000000000000     00000000                                                                                                                        000000000000000000
