F0010000008893100001000001535146600011050500000000000000000201607240002001ORLANDO OROZCO NAVARRO                            D000000002100000000000000000000000100010010000000000000000000000F0010000008893100120160724000101 00000000000000000000000000000000000000000000000000000000000000000000000000000000000000000000000000000000000000000N 00000000000NCONT   00    00000000000          00000000000000000000000000000000000000000000 000000000000000A000000000000000000000000000000000000000000000 000000000000000000000000000000000000000     00000000                                                                                                                        000000000000000000
F0010000008893100002000001535146600041450500000000000000000201607240002001ORLANDO OROZCO NAVARRO                            C000000002000000000000000000000000100010010000000000000000000000F0010000008893100220160724000101 00000000000000000000000000000000000000000000000000000000000000000000000000000000000000000000000000000000000000000N 00000000000NCONT   00    00000000000          00000000000000000000000000000000000000000000 000000000000000A000000000000000000000000000000000000000000000 000000000000000000000000000000000000000     00000000                                                                                                                        000000000000000000
F0010000008893100003000001535146600042505000000000000000000201607240002001ORLANDO OROZCO NAVARRO                            C000000000100000000000000000000000100010010000000000000000000000F0010000008893100320160724000101 00000000000000000000000000000000000000000000000000000000000000000000000000000000000000000000000000000000000000000N 00000000000NCONT   00    00000000000          00000000000000000000000000000000000000000000 000000000000000A000000000000000000000000000000000000000000000 000000000000000000000000000000000000000     00000000                                                                                                                        000000000000000000
F0010000008893100004000001535146600023658300000000000000000201607240002001ORLANDO OROZCO NAVARRO                            C000000000016000000000000000000000100010010000000000000000000000F0010000008893100420160724000101 00000000000000000000000000000000000000000000000000000000000000000000000000000000000000000000000000000000000000000N 00000000000NCONT   00    00000000000          00000000000000000000000000000000000000000000 000000000000000A000000000000000000000000000000000000000000000 000000000000000000000000000000000000000     00000000                                                                                                                        000000000000000000
F0010000008893100005000001535146600013552100000000000000000201607240002001ORLANDO OROZCO NAVARRO                            D000000000016000000000000000000000100010010000000000000000000000F0010000008893100520160724000101 00000000000000000000000000000000000000000000000000000000000000000000000000000000000000000000000000000000000000000N 00000000000NCONT   00    00000000000          00000000000000000000000000000000000000000000 000000000000000A000000000000000000000000000000000000000000000 000000000000000000000000000000000000000     00000000                                                                                                                        000000000000000000
F0010000008893200001000009120302700011050500000000000000000201607240002001CALZADO REY ESTEBAN                               D000000005900000000000000000000000100010010000000000000000000000F0010000008893200120160724000101 00000000000000000000000000000000000000000000000000000000000000000000000000000000000000000000000000000000000000000N 00000000000NCONT   00    00000000000          00000000000000000000000000000000000000000000 000000000000000A000000000000000000000000000000000000000000000 000000000000000000000000000000000000000     00000000                                                                                                                        000000000000000000
F0010000008893200002000009120302700041450500000000000000000201607240002001CALZADO REY ESTEBAN                               C000000003900000000000000000000000100010010000000000000000000000F0010000008893200220160724000101 00000000000000000000000000000000000000000000000000000000000000000000000000000000000000000000000000000000000000000N 00000000000NCONT   00    00000000000          00000000000000000000000000000000000000000000 000000000000000A000000000000000000000000000000000000000000000 000000000000000000000000000000000000000     00000000                                                                                                                        000000000000000000
F0010000008893200003000009120302700042505000000000000000000201607240002001CALZADO REY ESTEBAN                               C000000002000000000000000000000000100010010000000000000000000000F0010000008893200320160724000101 00000000000000000000000000000000000000000000000000000000000000000000000000000000000000000000000000000000000000000N 00000000000NCONT   00    00000000000          00000000000000000000000000000000000000000000 000000000000000A000000000000000000000000000000000000000000000 000000000000000000000000000000000000000     00000000                                                                                                                        000000000000000000
F0010000008893200004000009120302700023658300000000000000000201607240002001CALZADO REY ESTEBAN                               C000000000031200000000000000000000100010010000000000000000000000F0010000008893200420160724000101 00000000000000000000000000000000000000000000000000000000000000000000000000000000000000000000000000000000000000000N 00000000000NCONT   00    00000000000          00000000000000000000000000000000000000000000 000000000000000A000000000000000000000000000000000000000000000 000000000000000000000000000000000000000     00000000                                                                                                                        000000000000000000
F0010000008893200005000009120302700013552100000000000000000201607240002001CALZADO REY ESTEBAN                               D000000000031200000000000000000000100010010000000000000000000000F0010000008893200520160724000101 00000000000000000000000000000000000000000000000000000000000000000000000000000000000000000000000000000000000000000N 00000000000NCONT   00    00000000000          00000000000000000000000000000000000000000000 000000000000000A000000000000000000000000000000000000000000000 000000000000000000000000000000000000000     00000000                                                                                                                        000000000000000000
