F0010000008011600001000003115634700011050500000000000000000201512100002001MARINA BENAVIDES                                  D000000001000000000000000000000000100010010000000000000000000000F0010000008011600120151210000101 00000000000000000000000000000000000000000000000000000000000000000000000000000000000000000000000000000000000000000N 00000000000NCONT   00    00000000000          00000000000000000000000000000000000000000000 000000000000000A000000000000000000000000000000000000000000000 000000000000000000000000000000000000000     00000000                                                                                                                        000000000000000000
F0010000008011600002000003115634700041450500000000000000000201512100002001MARINA BENAVIDES                                  C000000000900000000000000000000000100010010000000000000000000000F0010000008011600220151210000101 00000000000000000000000000000000000000000000000000000000000000000000000000000000000000000000000000000000000000000N 00000000000NCONT   00    00000000000          00000000000000000000000000000000000000000000 000000000000000A000000000000000000000000000000000000000000000 000000000000000000000000000000000000000     00000000                                                                                                                        000000000000000000
F0010000008011600003000003115634700042505000000000000000000201512100002001MARINA BENAVIDES                                  C000000000100000000000000000000000100010010000000000000000000000F0010000008011600320151210000101 00000000000000000000000000000000000000000000000000000000000000000000000000000000000000000000000000000000000000000N 00000000000NCONT   00    00000000000          00000000000000000000000000000000000000000000 000000000000000A000000000000000000000000000000000000000000000 000000000000000000000000000000000000000     00000000                                                                                                                        000000000000000000
F0010000008011600004000003115634700023658300000000000000000201512100002001MARINA BENAVIDES                                  C000000000007200000000000000000000100010010000000000000000000000F0010000008011600420151210000101 00000000000000000000000000000000000000000000000000000000000000000000000000000000000000000000000000000000000000000N 00000000000NCONT   00    00000000000          00000000000000000000000000000000000000000000 000000000000000A000000000000000000000000000000000000000000000 000000000000000000000000000000000000000     00000000                                                                                                                        000000000000000000
F0010000008011600005000003115634700013552100000000000000000201512100002001MARINA BENAVIDES                                  D000000000007200000000000000000000100010010000000000000000000000F0010000008011600520151210000101 00000000000000000000000000000000000000000000000000000000000000000000000000000000000000000000000000000000000000000N 00000000000NCONT   00    00000000000          00000000000000000000000000000000000000000000 000000000000000A000000000000000000000000000000000000000000000 000000000000000000000000000000000000000     00000000                                                                                                                        000000000000000000
F0010000008011700001000090073498600011050500000000000000000201512100002001VALTAC S.A.S                                      D000000002700000000000000000000000100010010000000000000000000000F0010000008011700120151210000101 00000000000000000000000000000000000000000000000000000000000000000000000000000000000000000000000000000000000000000N 00000000000NCONT   00    00000000000          00000000000000000000000000000000000000000000 000000000000000A000000000000000000000000000000000000000000000 000000000000000000000000000000000000000     00000000                                                                                                                        000000000000000000
F0010000008011700002000090073498600041450500000000000000000201512100002001VALTAC S.A.S                                      C000000002400000000000000000000000100010010000000000000000000000F0010000008011700220151210000101 00000000000000000000000000000000000000000000000000000000000000000000000000000000000000000000000000000000000000000N 00000000000NCONT   00    00000000000          00000000000000000000000000000000000000000000 000000000000000A000000000000000000000000000000000000000000000 000000000000000000000000000000000000000     00000000                                                                                                                        000000000000000000
F0010000008011700003000090073498600042505000000000000000000201512100002001VALTAC S.A.S                                      C000000000300000000000000000000000100010010000000000000000000000F0010000008011700320151210000101 00000000000000000000000000000000000000000000000000000000000000000000000000000000000000000000000000000000000000000N 00000000000NCONT   00    00000000000          00000000000000000000000000000000000000000000 000000000000000A000000000000000000000000000000000000000000000 000000000000000000000000000000000000000     00000000                                                                                                                        000000000000000000
F0010000008011700004000090073498600023658300000000000000000201512100002001VALTAC S.A.S                                      C000000000019200000000000000000000100010010000000000000000000000F0010000008011700420151210000101 00000000000000000000000000000000000000000000000000000000000000000000000000000000000000000000000000000000000000000N 00000000000NCONT   00    00000000000          00000000000000000000000000000000000000000000 000000000000000A000000000000000000000000000000000000000000000 000000000000000000000000000000000000000     00000000                                                                                                                        000000000000000000
F0010000008011700005000090073498600013552100000000000000000201512100002001VALTAC S.A.S                                      D000000000019200000000000000000000100010010000000000000000000000F0010000008011700520151210000101 00000000000000000000000000000000000000000000000000000000000000000000000000000000000000000000000000000000000000000N 00000000000NCONT   00    00000000000          00000000000000000000000000000000000000000000 000000000000000A000000000000000000000000000000000000000000000 000000000000000000000000000000000000000     00000000                                                                                                                        000000000000000000
F0010000008011800001000080201411900011050500000000000000000201512100002001PLASTISERVICIOS S DE H                            D000000002200000000000000000000000100010010000000000000000000000F0010000008011800120151210000101 00000000000000000000000000000000000000000000000000000000000000000000000000000000000000000000000000000000000000000N 00000000000NCONT   00    00000000000          00000000000000000000000000000000000000000000 000000000000000A000000000000000000000000000000000000000000000 000000000000000000000000000000000000000     00000000                                                                                                                        000000000000000000
F0010000008011800002000080201411900041450500000000000000000201512100002001PLASTISERVICIOS S DE H                            C000000001800000000000000000000000100010010000000000000000000000F0010000008011800220151210000101 00000000000000000000000000000000000000000000000000000000000000000000000000000000000000000000000000000000000000000N 00000000000NCONT   00    00000000000          00000000000000000000000000000000000000000000 000000000000000A000000000000000000000000000000000000000000000 000000000000000000000000000000000000000     00000000                                                                                                                        000000000000000000
F0010000008011800003000080201411900042505000000000000000000201512100002001PLASTISERVICIOS S DE H                            C000000000400000000000000000000000100010010000000000000000000000F0010000008011800320151210000101 00000000000000000000000000000000000000000000000000000000000000000000000000000000000000000000000000000000000000000N 00000000000NCONT   00    00000000000          00000000000000000000000000000000000000000000 000000000000000A000000000000000000000000000000000000000000000 000000000000000000000000000000000000000     00000000                                                                                                                        000000000000000000
F0010000008011800004000080201411900023658300000000000000000201512100002001PLASTISERVICIOS S DE H                            C000000000014400000000000000000000100010010000000000000000000000F0010000008011800420151210000101 00000000000000000000000000000000000000000000000000000000000000000000000000000000000000000000000000000000000000000N 00000000000NCONT   00    00000000000          00000000000000000000000000000000000000000000 000000000000000A000000000000000000000000000000000000000000000 000000000000000000000000000000000000000     00000000                                                                                                                        000000000000000000
F0010000008011800005000080201411900013552100000000000000000201512100002001PLASTISERVICIOS S DE H                            D000000000014400000000000000000000100010010000000000000000000000F0010000008011800520151210000101 00000000000000000000000000000000000000000000000000000000000000000000000000000000000000000000000000000000000000000N 00000000000NCONT   00    00000000000          00000000000000000000000000000000000000000000 000000000000000A000000000000000000000000000000000000000000000 000000000000000000000000000000000000000     00000000                                                                                                                        000000000000000000
F0010000008011900001000090034602400011050500000000000000000201512100002001PRODUCTOS NACIONALES PARAFINICOS LA CUSTODIA S.A.SD000000001300000000000000000000000100010010000000000000000000000F0010000008011900120151210000101 00000000000000000000000000000000000000000000000000000000000000000000000000000000000000000000000000000000000000000N 00000000000NCONT   00    00000000000          00000000000000000000000000000000000000000000 000000000000000A000000000000000000000000000000000000000000000 000000000000000000000000000000000000000     00000000                                                                                                                        000000000000000000
F0010000008011900002000090034602400041450500000000000000000201512100002001PRODUCTOS NACIONALES PARAFINICOS LA CUSTODIA S.A.SC000000001200000000000000000000000100010010000000000000000000000F0010000008011900220151210000101 00000000000000000000000000000000000000000000000000000000000000000000000000000000000000000000000000000000000000000N 00000000000NCONT   00    00000000000          00000000000000000000000000000000000000000000 000000000000000A000000000000000000000000000000000000000000000 000000000000000000000000000000000000000     00000000                                                                                                                        000000000000000000
F0010000008011900003000090034602400042505000000000000000000201512100002001PRODUCTOS NACIONALES PARAFINICOS LA CUSTODIA S.A.SC000000000100000000000000000000000100010010000000000000000000000F0010000008011900320151210000101 00000000000000000000000000000000000000000000000000000000000000000000000000000000000000000000000000000000000000000N 00000000000NCONT   00    00000000000          00000000000000000000000000000000000000000000 000000000000000A000000000000000000000000000000000000000000000 000000000000000000000000000000000000000     00000000                                                                                                                        000000000000000000
F0010000008011900004000090034602400023658300000000000000000201512100002001PRODUCTOS NACIONALES PARAFINICOS LA CUSTODIA S.A.SC000000000009600000000000000000000100010010000000000000000000000F0010000008011900420151210000101 00000000000000000000000000000000000000000000000000000000000000000000000000000000000000000000000000000000000000000N 00000000000NCONT   00    00000000000          00000000000000000000000000000000000000000000 000000000000000A000000000000000000000000000000000000000000000 000000000000000000000000000000000000000     00000000                                                                                                                        000000000000000000
F0010000008011900005000090034602400013552100000000000000000201512100002001PRODUCTOS NACIONALES PARAFINICOS LA CUSTODIA S.A.SD000000000009600000000000000000000100010010000000000000000000000F0010000008011900520151210000101 00000000000000000000000000000000000000000000000000000000000000000000000000000000000000000000000000000000000000000N 00000000000NCONT   00    00000000000          00000000000000000000000000000000000000000000 000000000000000A000000000000000000000000000000000000000000000 000000000000000000000000000000000000000     00000000                                                                                                                        000000000000000000
F0010000008012000001000090034602400011050500000000000000000201512100002001PRODUCTOS NACIONALES PARAFINICOS LA CUSTODIA S.A.SD000000003000000000000000000000000100010010000000000000000000000F0010000008012000120151210000101 00000000000000000000000000000000000000000000000000000000000000000000000000000000000000000000000000000000000000000N 00000000000NCONT   00    00000000000          00000000000000000000000000000000000000000000 000000000000000A000000000000000000000000000000000000000000000 000000000000000000000000000000000000000     00000000                                                                                                                        000000000000000000
F0010000008012000002000090034602400041450500000000000000000201512100002001PRODUCTOS NACIONALES PARAFINICOS LA CUSTODIA S.A.SC000000002700000000000000000000000100010010000000000000000000000F0010000008012000220151210000101 00000000000000000000000000000000000000000000000000000000000000000000000000000000000000000000000000000000000000000N 00000000000NCONT   00    00000000000          00000000000000000000000000000000000000000000 000000000000000A000000000000000000000000000000000000000000000 000000000000000000000000000000000000000     00000000                                                                                                                        000000000000000000
F0010000008012000003000090034602400042505000000000000000000201512100002001PRODUCTOS NACIONALES PARAFINICOS LA CUSTODIA S.A.SC000000000300000000000000000000000100010010000000000000000000000F0010000008012000320151210000101 00000000000000000000000000000000000000000000000000000000000000000000000000000000000000000000000000000000000000000N 00000000000NCONT   00    00000000000          00000000000000000000000000000000000000000000 000000000000000A000000000000000000000000000000000000000000000 000000000000000000000000000000000000000     00000000                                                                                                                        000000000000000000
F0010000008012000004000090034602400023658300000000000000000201512100002001PRODUCTOS NACIONALES PARAFINICOS LA CUSTODIA S.A.SC000000000021600000000000000000000100010010000000000000000000000F0010000008012000420151210000101 00000000000000000000000000000000000000000000000000000000000000000000000000000000000000000000000000000000000000000N 00000000000NCONT   00    00000000000          00000000000000000000000000000000000000000000 000000000000000A000000000000000000000000000000000000000000000 000000000000000000000000000000000000000     00000000                                                                                                                        000000000000000000
F0010000008012000005000090034602400013552100000000000000000201512100002001PRODUCTOS NACIONALES PARAFINICOS LA CUSTODIA S.A.SD000000000021600000000000000000000100010010000000000000000000000F0010000008012000520151210000101 00000000000000000000000000000000000000000000000000000000000000000000000000000000000000000000000000000000000000000N 00000000000NCONT   00    00000000000          00000000000000000000000000000000000000000000 000000000000000A000000000000000000000000000000000000000000000 000000000000000000000000000000000000000     00000000                                                                                                                        000000000000000000
F0010000008012100001000003207718300011050500000000000000000201512100002001MARIA GILMA  RAMIREZ GARCIA                       D000000004700000000000000000000000100010010000000000000000000000F0010000008012100120151210000101 00000000000000000000000000000000000000000000000000000000000000000000000000000000000000000000000000000000000000000N 00000000000NCONT   00    00000000000          00000000000000000000000000000000000000000000 000000000000000A000000000000000000000000000000000000000000000 000000000000000000000000000000000000000     00000000                                                                                                                        000000000000000000
F0010000008012100002000003207718300041450500000000000000000201512100002001MARIA GILMA  RAMIREZ GARCIA                       C000000004000000000000000000000000100010010000000000000000000000F0010000008012100220151210000101 00000000000000000000000000000000000000000000000000000000000000000000000000000000000000000000000000000000000000000N 00000000000NCONT   00    00000000000          00000000000000000000000000000000000000000000 000000000000000A000000000000000000000000000000000000000000000 000000000000000000000000000000000000000     00000000                                                                                                                        000000000000000000
F0010000008012100003000003207718300042505000000000000000000201512100002001MARIA GILMA  RAMIREZ GARCIA                       C000000000700000000000000000000000100010010000000000000000000000F0010000008012100320151210000101 00000000000000000000000000000000000000000000000000000000000000000000000000000000000000000000000000000000000000000N 00000000000NCONT   00    00000000000          00000000000000000000000000000000000000000000 000000000000000A000000000000000000000000000000000000000000000 000000000000000000000000000000000000000     00000000                                                                                                                        000000000000000000
F0010000008012100004000003207718300023658300000000000000000201512100002001MARIA GILMA  RAMIREZ GARCIA                       C000000000032000000000000000000000100010010000000000000000000000F0010000008012100420151210000101 00000000000000000000000000000000000000000000000000000000000000000000000000000000000000000000000000000000000000000N 00000000000NCONT   00    00000000000          00000000000000000000000000000000000000000000 000000000000000A000000000000000000000000000000000000000000000 000000000000000000000000000000000000000     00000000                                                                                                                        000000000000000000
F0010000008012100005000003207718300013552100000000000000000201512100002001MARIA GILMA  RAMIREZ GARCIA                       D000000000032000000000000000000000100010010000000000000000000000F0010000008012100520151210000101 00000000000000000000000000000000000000000000000000000000000000000000000000000000000000000000000000000000000000000N 00000000000NCONT   00    00000000000          00000000000000000000000000000000000000000000 000000000000000A000000000000000000000000000000000000000000000 000000000000000000000000000000000000000     00000000                                                                                                                        000000000000000000
F0010000008012200001000080202486100011050500000000000000000201512100002001DISTRIBUIDORA RAMBAL LTDA                         D000000002800000000000000000000000100010010000000000000000000000F0010000008012200120151210000101 00000000000000000000000000000000000000000000000000000000000000000000000000000000000000000000000000000000000000000N 00000000000NCONT   00    00000000000          00000000000000000000000000000000000000000000 000000000000000A000000000000000000000000000000000000000000000 000000000000000000000000000000000000000     00000000                                                                                                                        000000000000000000
F0010000008012200002000080202486100041450500000000000000000201512100002001DISTRIBUIDORA RAMBAL LTDA                         C000000002700000000000000000000000100010010000000000000000000000F0010000008012200220151210000101 00000000000000000000000000000000000000000000000000000000000000000000000000000000000000000000000000000000000000000N 00000000000NCONT   00    00000000000          00000000000000000000000000000000000000000000 000000000000000A000000000000000000000000000000000000000000000 000000000000000000000000000000000000000     00000000                                                                                                                        000000000000000000
F0010000008012200003000080202486100042505000000000000000000201512100002001DISTRIBUIDORA RAMBAL LTDA                         C000000000100000000000000000000000100010010000000000000000000000F0010000008012200320151210000101 00000000000000000000000000000000000000000000000000000000000000000000000000000000000000000000000000000000000000000N 00000000000NCONT   00    00000000000          00000000000000000000000000000000000000000000 000000000000000A000000000000000000000000000000000000000000000 000000000000000000000000000000000000000     00000000                                                                                                                        000000000000000000
F0010000008012200004000080202486100023658300000000000000000201512100002001DISTRIBUIDORA RAMBAL LTDA                         C000000000021600000000000000000000100010010000000000000000000000F0010000008012200420151210000101 00000000000000000000000000000000000000000000000000000000000000000000000000000000000000000000000000000000000000000N 00000000000NCONT   00    00000000000          00000000000000000000000000000000000000000000 000000000000000A000000000000000000000000000000000000000000000 000000000000000000000000000000000000000     00000000                                                                                                                        000000000000000000
F0010000008012200005000080202486100013552100000000000000000201512100002001DISTRIBUIDORA RAMBAL LTDA                         D000000000021600000000000000000000100010010000000000000000000000F0010000008012200520151210000101 00000000000000000000000000000000000000000000000000000000000000000000000000000000000000000000000000000000000000000N 00000000000NCONT   00    00000000000          00000000000000000000000000000000000000000000 000000000000000A000000000000000000000000000000000000000000000 000000000000000000000000000000000000000     00000000                                                                                                                        000000000000000000
F0010000008012300001000004911415500011050500000000000000000201512100002001NINFA FONSECA ..                                  D000000001100000000000000000000000100010010000000000000000000000F0010000008012300120151210000101 00000000000000000000000000000000000000000000000000000000000000000000000000000000000000000000000000000000000000000N 00000000000NCONT   00    00000000000          00000000000000000000000000000000000000000000 000000000000000A000000000000000000000000000000000000000000000 000000000000000000000000000000000000000     00000000                                                                                                                        000000000000000000
F0010000008012300002000004911415500041450500000000000000000201512100002001NINFA FONSECA ..                                  C000000000900000000000000000000000100010010000000000000000000000F0010000008012300220151210000101 00000000000000000000000000000000000000000000000000000000000000000000000000000000000000000000000000000000000000000N 00000000000NCONT   00    00000000000          00000000000000000000000000000000000000000000 000000000000000A000000000000000000000000000000000000000000000 000000000000000000000000000000000000000     00000000                                                                                                                        000000000000000000
F0010000008012300003000004911415500042505000000000000000000201512100002001NINFA FONSECA ..                                  C000000000200000000000000000000000100010010000000000000000000000F0010000008012300320151210000101 00000000000000000000000000000000000000000000000000000000000000000000000000000000000000000000000000000000000000000N 00000000000NCONT   00    00000000000          00000000000000000000000000000000000000000000 000000000000000A000000000000000000000000000000000000000000000 000000000000000000000000000000000000000     00000000                                                                                                                        000000000000000000
F0010000008012300004000004911415500023658300000000000000000201512100002001NINFA FONSECA ..                                  C000000000007200000000000000000000100010010000000000000000000000F0010000008012300420151210000101 00000000000000000000000000000000000000000000000000000000000000000000000000000000000000000000000000000000000000000N 00000000000NCONT   00    00000000000          00000000000000000000000000000000000000000000 000000000000000A000000000000000000000000000000000000000000000 000000000000000000000000000000000000000     00000000                                                                                                                        000000000000000000
F0010000008012300005000004911415500013552100000000000000000201512100002001NINFA FONSECA ..                                  D000000000007200000000000000000000100010010000000000000000000000F0010000008012300520151210000101 00000000000000000000000000000000000000000000000000000000000000000000000000000000000000000000000000000000000000000N 00000000000NCONT   00    00000000000          00000000000000000000000000000000000000000000 000000000000000A000000000000000000000000000000000000000000000 000000000000000000000000000000000000000     00000000                                                                                                                        000000000000000000
F0010000008012400001000090050144800011050500000000000000000201512100002001PLASTICOS JR ASOCIADOS SAS                        D000000001150000000000000000000000100010010000000000000000000000F0010000008012400120151210000101 00000000000000000000000000000000000000000000000000000000000000000000000000000000000000000000000000000000000000000N 00000000000NCONT   00    00000000000          00000000000000000000000000000000000000000000 000000000000000A000000000000000000000000000000000000000000000 000000000000000000000000000000000000000     00000000                                                                                                                        000000000000000000
F0010000008012400002000090050144800041450500000000000000000201512100002001PLASTICOS JR ASOCIADOS SAS                        C000000000850000000000000000000000100010010000000000000000000000F0010000008012400220151210000101 00000000000000000000000000000000000000000000000000000000000000000000000000000000000000000000000000000000000000000N 00000000000NCONT   00    00000000000          00000000000000000000000000000000000000000000 000000000000000A000000000000000000000000000000000000000000000 000000000000000000000000000000000000000     00000000                                                                                                                        000000000000000000
F0010000008012400003000090050144800042505000000000000000000201512100002001PLASTICOS JR ASOCIADOS SAS                        C000000000300000000000000000000000100010010000000000000000000000F0010000008012400320151210000101 00000000000000000000000000000000000000000000000000000000000000000000000000000000000000000000000000000000000000000N 00000000000NCONT   00    00000000000          00000000000000000000000000000000000000000000 000000000000000A000000000000000000000000000000000000000000000 000000000000000000000000000000000000000     00000000                                                                                                                        000000000000000000
F0010000008012400004000090050144800023658300000000000000000201512100002001PLASTICOS JR ASOCIADOS SAS                        C000000000006800000000000000000000100010010000000000000000000000F0010000008012400420151210000101 00000000000000000000000000000000000000000000000000000000000000000000000000000000000000000000000000000000000000000N 00000000000NCONT   00    00000000000          00000000000000000000000000000000000000000000 000000000000000A000000000000000000000000000000000000000000000 000000000000000000000000000000000000000     00000000                                                                                                                        000000000000000000
F0010000008012400005000090050144800013552100000000000000000201512100002001PLASTICOS JR ASOCIADOS SAS                        D000000000006800000000000000000000100010010000000000000000000000F0010000008012400520151210000101 00000000000000000000000000000000000000000000000000000000000000000000000000000000000000000000000000000000000000000N 00000000000NCONT   00    00000000000          00000000000000000000000000000000000000000000 000000000000000A000000000000000000000000000000000000000000000 000000000000000000000000000000000000000     00000000                                                                                                                        000000000000000000
F0010000008012500001000090050144800011050500000000000000000201512100002001PLASTICOS JR ASOCIADOS SAS                        D000000003200000000000000000000000100010010000000000000000000000F0010000008012500120151210000101 00000000000000000000000000000000000000000000000000000000000000000000000000000000000000000000000000000000000000000N 00000000000NCONT   00    00000000000          00000000000000000000000000000000000000000000 000000000000000A000000000000000000000000000000000000000000000 000000000000000000000000000000000000000     00000000                                                                                                                        000000000000000000
F0010000008012500002000090050144800041450500000000000000000201512100002001PLASTICOS JR ASOCIADOS SAS                        C000000002700000000000000000000000100010010000000000000000000000F0010000008012500220151210000101 00000000000000000000000000000000000000000000000000000000000000000000000000000000000000000000000000000000000000000N 00000000000NCONT   00    00000000000          00000000000000000000000000000000000000000000 000000000000000A000000000000000000000000000000000000000000000 000000000000000000000000000000000000000     00000000                                                                                                                        000000000000000000
F0010000008012500003000090050144800042505000000000000000000201512100002001PLASTICOS JR ASOCIADOS SAS                        C000000000500000000000000000000000100010010000000000000000000000F0010000008012500320151210000101 00000000000000000000000000000000000000000000000000000000000000000000000000000000000000000000000000000000000000000N 00000000000NCONT   00    00000000000          00000000000000000000000000000000000000000000 000000000000000A000000000000000000000000000000000000000000000 000000000000000000000000000000000000000     00000000                                                                                                                        000000000000000000
F0010000008012500004000090050144800023658300000000000000000201512100002001PLASTICOS JR ASOCIADOS SAS                        C000000000021600000000000000000000100010010000000000000000000000F0010000008012500420151210000101 00000000000000000000000000000000000000000000000000000000000000000000000000000000000000000000000000000000000000000N 00000000000NCONT   00    00000000000          00000000000000000000000000000000000000000000 000000000000000A000000000000000000000000000000000000000000000 000000000000000000000000000000000000000     00000000                                                                                                                        000000000000000000
F0010000008012500005000090050144800013552100000000000000000201512100002001PLASTICOS JR ASOCIADOS SAS                        D000000000021600000000000000000000100010010000000000000000000000F0010000008012500520151210000101 00000000000000000000000000000000000000000000000000000000000000000000000000000000000000000000000000000000000000000N 00000000000NCONT   00    00000000000          00000000000000000000000000000000000000000000 000000000000000A000000000000000000000000000000000000000000000 000000000000000000000000000000000000000     00000000                                                                                                                        000000000000000000
F0010000008012600001000090050144800011050500000000000000000201512100002001PLASTICOS JR ASOCIADOS SAS                        D000000003100000000000000000000000100010010000000000000000000000F0010000008012600120151210000101 00000000000000000000000000000000000000000000000000000000000000000000000000000000000000000000000000000000000000000N 00000000000NCONT   00    00000000000          00000000000000000000000000000000000000000000 000000000000000A000000000000000000000000000000000000000000000 000000000000000000000000000000000000000     00000000                                                                                                                        000000000000000000
F0010000008012600002000090050144800041450500000000000000000201512100002001PLASTICOS JR ASOCIADOS SAS                        C000000002700000000000000000000000100010010000000000000000000000F0010000008012600220151210000101 00000000000000000000000000000000000000000000000000000000000000000000000000000000000000000000000000000000000000000N 00000000000NCONT   00    00000000000          00000000000000000000000000000000000000000000 000000000000000A000000000000000000000000000000000000000000000 000000000000000000000000000000000000000     00000000                                                                                                                        000000000000000000
F0010000008012600003000090050144800042505000000000000000000201512100002001PLASTICOS JR ASOCIADOS SAS                        C000000000400000000000000000000000100010010000000000000000000000F0010000008012600320151210000101 00000000000000000000000000000000000000000000000000000000000000000000000000000000000000000000000000000000000000000N 00000000000NCONT   00    00000000000          00000000000000000000000000000000000000000000 000000000000000A000000000000000000000000000000000000000000000 000000000000000000000000000000000000000     00000000                                                                                                                        000000000000000000
F0010000008012600004000090050144800023658300000000000000000201512100002001PLASTICOS JR ASOCIADOS SAS                        C000000000021600000000000000000000100010010000000000000000000000F0010000008012600420151210000101 00000000000000000000000000000000000000000000000000000000000000000000000000000000000000000000000000000000000000000N 00000000000NCONT   00    00000000000          00000000000000000000000000000000000000000000 000000000000000A000000000000000000000000000000000000000000000 000000000000000000000000000000000000000     00000000                                                                                                                        000000000000000000
F0010000008012600005000090050144800013552100000000000000000201512100002001PLASTICOS JR ASOCIADOS SAS                        D000000000021600000000000000000000100010010000000000000000000000F0010000008012600520151210000101 00000000000000000000000000000000000000000000000000000000000000000000000000000000000000000000000000000000000000000N 00000000000NCONT   00    00000000000          00000000000000000000000000000000000000000000 000000000000000A000000000000000000000000000000000000000000000 000000000000000000000000000000000000000     00000000                                                                                                                        000000000000000000
F0010000008012700001000090050144800011050500000000000000000201512100002001PLASTICOS JR ASOCIADOS SAS                        D000000001100000000000000000000000100010010000000000000000000000F0010000008012700120151210000101 00000000000000000000000000000000000000000000000000000000000000000000000000000000000000000000000000000000000000000N 00000000000NCONT   00    00000000000          00000000000000000000000000000000000000000000 000000000000000A000000000000000000000000000000000000000000000 000000000000000000000000000000000000000     00000000                                                                                                                        000000000000000000
F0010000008012700002000090050144800041450500000000000000000201512100002001PLASTICOS JR ASOCIADOS SAS                        C000000000900000000000000000000000100010010000000000000000000000F0010000008012700220151210000101 00000000000000000000000000000000000000000000000000000000000000000000000000000000000000000000000000000000000000000N 00000000000NCONT   00    00000000000          00000000000000000000000000000000000000000000 000000000000000A000000000000000000000000000000000000000000000 000000000000000000000000000000000000000     00000000                                                                                                                        000000000000000000
F0010000008012700003000090050144800042505000000000000000000201512100002001PLASTICOS JR ASOCIADOS SAS                        C000000000200000000000000000000000100010010000000000000000000000F0010000008012700320151210000101 00000000000000000000000000000000000000000000000000000000000000000000000000000000000000000000000000000000000000000N 00000000000NCONT   00    00000000000          00000000000000000000000000000000000000000000 000000000000000A000000000000000000000000000000000000000000000 000000000000000000000000000000000000000     00000000                                                                                                                        000000000000000000
F0010000008012700004000090050144800023658300000000000000000201512100002001PLASTICOS JR ASOCIADOS SAS                        C000000000007200000000000000000000100010010000000000000000000000F0010000008012700420151210000101 00000000000000000000000000000000000000000000000000000000000000000000000000000000000000000000000000000000000000000N 00000000000NCONT   00    00000000000          00000000000000000000000000000000000000000000 000000000000000A000000000000000000000000000000000000000000000 000000000000000000000000000000000000000     00000000                                                                                                                        000000000000000000
F0010000008012700005000090050144800013552100000000000000000201512100002001PLASTICOS JR ASOCIADOS SAS                        D000000000007200000000000000000000100010010000000000000000000000F0010000008012700520151210000101 00000000000000000000000000000000000000000000000000000000000000000000000000000000000000000000000000000000000000000N 00000000000NCONT   00    00000000000          00000000000000000000000000000000000000000000 000000000000000A000000000000000000000000000000000000000000000 000000000000000000000000000000000000000     00000000                                                                                                                        000000000000000000
F0010000008012800001000090050144800011050500000000000000000201512100002001PLASTICOS JR ASOCIADOS SAS                        D000000001100000000000000000000000100010010000000000000000000000F0010000008012800120151210000101 00000000000000000000000000000000000000000000000000000000000000000000000000000000000000000000000000000000000000000N 00000000000NCONT   00    00000000000          00000000000000000000000000000000000000000000 000000000000000A000000000000000000000000000000000000000000000 000000000000000000000000000000000000000     00000000                                                                                                                        000000000000000000
F0010000008012800002000090050144800041450500000000000000000201512100002001PLASTICOS JR ASOCIADOS SAS                        C000000000900000000000000000000000100010010000000000000000000000F0010000008012800220151210000101 00000000000000000000000000000000000000000000000000000000000000000000000000000000000000000000000000000000000000000N 00000000000NCONT   00    00000000000          00000000000000000000000000000000000000000000 000000000000000A000000000000000000000000000000000000000000000 000000000000000000000000000000000000000     00000000                                                                                                                        000000000000000000
F0010000008012800003000090050144800042505000000000000000000201512100002001PLASTICOS JR ASOCIADOS SAS                        C000000000200000000000000000000000100010010000000000000000000000F0010000008012800320151210000101 00000000000000000000000000000000000000000000000000000000000000000000000000000000000000000000000000000000000000000N 00000000000NCONT   00    00000000000          00000000000000000000000000000000000000000000 000000000000000A000000000000000000000000000000000000000000000 000000000000000000000000000000000000000     00000000                                                                                                                        000000000000000000
F0010000008012800004000090050144800023658300000000000000000201512100002001PLASTICOS JR ASOCIADOS SAS                        C000000000007200000000000000000000100010010000000000000000000000F0010000008012800420151210000101 00000000000000000000000000000000000000000000000000000000000000000000000000000000000000000000000000000000000000000N 00000000000NCONT   00    00000000000          00000000000000000000000000000000000000000000 000000000000000A000000000000000000000000000000000000000000000 000000000000000000000000000000000000000     00000000                                                                                                                        000000000000000000
F0010000008012800005000090050144800013552100000000000000000201512100002001PLASTICOS JR ASOCIADOS SAS                        D000000000007200000000000000000000100010010000000000000000000000F0010000008012800520151210000101 00000000000000000000000000000000000000000000000000000000000000000000000000000000000000000000000000000000000000000N 00000000000NCONT   00    00000000000          00000000000000000000000000000000000000000000 000000000000000A000000000000000000000000000000000000000000000 000000000000000000000000000000000000000     00000000                                                                                                                        000000000000000000
F0010000008012900001000090050144800011050500000000000000000201512100002001PLASTICOS JR ASOCIADOS SAS                        D000000006750000000000000000000000100010010000000000000000000000F0010000008012900120151210000101 00000000000000000000000000000000000000000000000000000000000000000000000000000000000000000000000000000000000000000N 00000000000NCONT   00    00000000000          00000000000000000000000000000000000000000000 000000000000000A000000000000000000000000000000000000000000000 000000000000000000000000000000000000000     00000000                                                                                                                        000000000000000000
F0010000008012900002000090050144800041450500000000000000000201512100002001PLASTICOS JR ASOCIADOS SAS                        C000000005950000000000000000000000100010010000000000000000000000F0010000008012900220151210000101 00000000000000000000000000000000000000000000000000000000000000000000000000000000000000000000000000000000000000000N 00000000000NCONT   00    00000000000          00000000000000000000000000000000000000000000 000000000000000A000000000000000000000000000000000000000000000 000000000000000000000000000000000000000     00000000                                                                                                                        000000000000000000
F0010000008012900003000090050144800042505000000000000000000201512100002001PLASTICOS JR ASOCIADOS SAS                        C000000000800000000000000000000000100010010000000000000000000000F0010000008012900320151210000101 00000000000000000000000000000000000000000000000000000000000000000000000000000000000000000000000000000000000000000N 00000000000NCONT   00    00000000000          00000000000000000000000000000000000000000000 000000000000000A000000000000000000000000000000000000000000000 000000000000000000000000000000000000000     00000000                                                                                                                        000000000000000000
F0010000008012900004000090050144800023658300000000000000000201512100002001PLASTICOS JR ASOCIADOS SAS                        C000000000047600000000000000000000100010010000000000000000000000F0010000008012900420151210000101 00000000000000000000000000000000000000000000000000000000000000000000000000000000000000000000000000000000000000000N 00000000000NCONT   00    00000000000          00000000000000000000000000000000000000000000 000000000000000A000000000000000000000000000000000000000000000 000000000000000000000000000000000000000     00000000                                                                                                                        000000000000000000
F0010000008012900005000090050144800013552100000000000000000201512100002001PLASTICOS JR ASOCIADOS SAS                        D000000000047600000000000000000000100010010000000000000000000000F0010000008012900520151210000101 00000000000000000000000000000000000000000000000000000000000000000000000000000000000000000000000000000000000000000N 00000000000NCONT   00    00000000000          00000000000000000000000000000000000000000000 000000000000000A000000000000000000000000000000000000000000000 000000000000000000000000000000000000000     00000000                                                                                                                        000000000000000000
F0010000008013000001000090057362800011050500000000000000000201512100002001COMERCIALIZADORA SUMINISTROS EFICIENTES           D000000016000000000000000000000000100010010000000000000000000000F0010000008013000120151210000101 00000000000000000000000000000000000000000000000000000000000000000000000000000000000000000000000000000000000000000N 00000000000NCONT   00    00000000000          00000000000000000000000000000000000000000000 000000000000000A000000000000000000000000000000000000000000000 000000000000000000000000000000000000000     00000000                                                                                                                        000000000000000000
F0010000008013000002000090057362800041450500000000000000000201512100002001COMERCIALIZADORA SUMINISTROS EFICIENTES           C000000015500000000000000000000000100010010000000000000000000000F0010000008013000220151210000101 00000000000000000000000000000000000000000000000000000000000000000000000000000000000000000000000000000000000000000N 00000000000NCONT   00    00000000000          00000000000000000000000000000000000000000000 000000000000000A000000000000000000000000000000000000000000000 000000000000000000000000000000000000000     00000000                                                                                                                        000000000000000000
F0010000008013000003000090057362800042505000000000000000000201512100002001COMERCIALIZADORA SUMINISTROS EFICIENTES           C000000000500000000000000000000000100010010000000000000000000000F0010000008013000320151210000101 00000000000000000000000000000000000000000000000000000000000000000000000000000000000000000000000000000000000000000N 00000000000NCONT   00    00000000000          00000000000000000000000000000000000000000000 000000000000000A000000000000000000000000000000000000000000000 000000000000000000000000000000000000000     00000000                                                                                                                        000000000000000000
F0010000008013000004000090057362800023658300000000000000000201512100002001COMERCIALIZADORA SUMINISTROS EFICIENTES           C000000000124000000000000000000000100010010000000000000000000000F0010000008013000420151210000101 00000000000000000000000000000000000000000000000000000000000000000000000000000000000000000000000000000000000000000N 00000000000NCONT   00    00000000000          00000000000000000000000000000000000000000000 000000000000000A000000000000000000000000000000000000000000000 000000000000000000000000000000000000000     00000000                                                                                                                        000000000000000000
F0010000008013000005000090057362800013552100000000000000000201512100002001COMERCIALIZADORA SUMINISTROS EFICIENTES           D000000000124000000000000000000000100010010000000000000000000000F0010000008013000520151210000101 00000000000000000000000000000000000000000000000000000000000000000000000000000000000000000000000000000000000000000N 00000000000NCONT   00    00000000000          00000000000000000000000000000000000000000000 000000000000000A000000000000000000000000000000000000000000000 000000000000000000000000000000000000000     00000000                                                                                                                        000000000000000000
F0010000008013100001000080202350700011050500000000000000000201512100002001CONNY DE LA COSTA SAS                             D000000011000000000000000000000000100010010000000000000000000000F0010000008013100120151210000101 00000000000000000000000000000000000000000000000000000000000000000000000000000000000000000000000000000000000000000N 00000000000NCONT   00    00000000000          00000000000000000000000000000000000000000000 000000000000000A000000000000000000000000000000000000000000000 000000000000000000000000000000000000000     00000000                                                                                                                        000000000000000000
F0010000008013100002000080202350700041450500000000000000000201512100002001CONNY DE LA COSTA SAS                             C000000008500000000000000000000000100010010000000000000000000000F0010000008013100220151210000101 00000000000000000000000000000000000000000000000000000000000000000000000000000000000000000000000000000000000000000N 00000000000NCONT   00    00000000000          00000000000000000000000000000000000000000000 000000000000000A000000000000000000000000000000000000000000000 000000000000000000000000000000000000000     00000000                                                                                                                        000000000000000000
F0010000008013100003000080202350700042505000000000000000000201512100002001CONNY DE LA COSTA SAS                             C000000002500000000000000000000000100010010000000000000000000000F0010000008013100320151210000101 00000000000000000000000000000000000000000000000000000000000000000000000000000000000000000000000000000000000000000N 00000000000NCONT   00    00000000000          00000000000000000000000000000000000000000000 000000000000000A000000000000000000000000000000000000000000000 000000000000000000000000000000000000000     00000000                                                                                                                        000000000000000000
F0010000008013100004000080202350700023658300000000000000000201512100002001CONNY DE LA COSTA SAS                             C000000000068000000000000000000000100010010000000000000000000000F0010000008013100420151210000101 00000000000000000000000000000000000000000000000000000000000000000000000000000000000000000000000000000000000000000N 00000000000NCONT   00    00000000000          00000000000000000000000000000000000000000000 000000000000000A000000000000000000000000000000000000000000000 000000000000000000000000000000000000000     00000000                                                                                                                        000000000000000000
F0010000008013100005000080202350700013552100000000000000000201512100002001CONNY DE LA COSTA SAS                             D000000000068000000000000000000000100010010000000000000000000000F0010000008013100520151210000101 00000000000000000000000000000000000000000000000000000000000000000000000000000000000000000000000000000000000000000N 00000000000NCONT   00    00000000000          00000000000000000000000000000000000000000000 000000000000000A000000000000000000000000000000000000000000000 000000000000000000000000000000000000000     00000000                                                                                                                        000000000000000000
F0010000008013200001000002245670100011050500000000000000000201512100002001YOLANDA  TOBON                                    D000000002343500000000000000000000100010010000000000000000000000F0010000008013200120151210000101 00000000000000000000000000000000000000000000000000000000000000000000000000000000000000000000000000000000000000000N 00000000000NCONT   00    00000000000          00000000000000000000000000000000000000000000 000000000000000A000000000000000000000000000000000000000000000 000000000000000000000000000000000000000     00000000                                                                                                                        000000000000000000
F0010000008013200002000002245670100041450500000000000000000201512100002001YOLANDA  TOBON                                    C000000001860000000000000000000000100010010000000000000000000000F0010000008013200220151210000101 00000000000000000000000000000000000000000000000000000000000000000000000000000000000000000000000000000000000000000N 00000000000NCONT   00    00000000000          00000000000000000000000000000000000000000000 000000000000000A000000000000000000000000000000000000000000000 000000000000000000000000000000000000000     00000000                                                                                                                        000000000000000000
F0010000008013200003000002245670100042505000000000000000000201512100002001YOLANDA  TOBON                                    C000000000483500000000000000000000100010010000000000000000000000F0010000008013200320151210000101 00000000000000000000000000000000000000000000000000000000000000000000000000000000000000000000000000000000000000000N 00000000000NCONT   00    00000000000          00000000000000000000000000000000000000000000 000000000000000A000000000000000000000000000000000000000000000 000000000000000000000000000000000000000     00000000                                                                                                                        000000000000000000
F0010000008013200004000002245670100023658300000000000000000201512100002001YOLANDA  TOBON                                    C000000000014900000000000000000000100010010000000000000000000000F0010000008013200420151210000101 00000000000000000000000000000000000000000000000000000000000000000000000000000000000000000000000000000000000000000N 00000000000NCONT   00    00000000000          00000000000000000000000000000000000000000000 000000000000000A000000000000000000000000000000000000000000000 000000000000000000000000000000000000000     00000000                                                                                                                        000000000000000000
F0010000008013200005000002245670100013552100000000000000000201512100002001YOLANDA  TOBON                                    D000000000014900000000000000000000100010010000000000000000000000F0010000008013200520151210000101 00000000000000000000000000000000000000000000000000000000000000000000000000000000000000000000000000000000000000000N 00000000000NCONT   00    00000000000          00000000000000000000000000000000000000000000 000000000000000A000000000000000000000000000000000000000000000 000000000000000000000000000000000000000     00000000                                                                                                                        000000000000000000
F0010000008013300001000002245486800011050500000000000000000201512100002001ALMACEN  DISTRIBEL                                D000000009600000000000000000000000100010010000000000000000000000F0010000008013300120151210000101 00000000000000000000000000000000000000000000000000000000000000000000000000000000000000000000000000000000000000000N 00000000000NCONT   00    00000000000          00000000000000000000000000000000000000000000 000000000000000A000000000000000000000000000000000000000000000 000000000000000000000000000000000000000     00000000                                                                                                                        000000000000000000
F0010000008013300002000002245486800041450500000000000000000201512100002001ALMACEN  DISTRIBEL                                C000000008400000000000000000000000100010010000000000000000000000F0010000008013300220151210000101 00000000000000000000000000000000000000000000000000000000000000000000000000000000000000000000000000000000000000000N 00000000000NCONT   00    00000000000          00000000000000000000000000000000000000000000 000000000000000A000000000000000000000000000000000000000000000 000000000000000000000000000000000000000     00000000                                                                                                                        000000000000000000
F0010000008013300003000002245486800042505000000000000000000201512100002001ALMACEN  DISTRIBEL                                C000000001200000000000000000000000100010010000000000000000000000F0010000008013300320151210000101 00000000000000000000000000000000000000000000000000000000000000000000000000000000000000000000000000000000000000000N 00000000000NCONT   00    00000000000          00000000000000000000000000000000000000000000 000000000000000A000000000000000000000000000000000000000000000 000000000000000000000000000000000000000     00000000                                                                                                                        000000000000000000
F0010000008013300004000002245486800023658300000000000000000201512100002001ALMACEN  DISTRIBEL                                C000000000067200000000000000000000100010010000000000000000000000F0010000008013300420151210000101 00000000000000000000000000000000000000000000000000000000000000000000000000000000000000000000000000000000000000000N 00000000000NCONT   00    00000000000          00000000000000000000000000000000000000000000 000000000000000A000000000000000000000000000000000000000000000 000000000000000000000000000000000000000     00000000                                                                                                                        000000000000000000
F0010000008013300005000002245486800013552100000000000000000201512100002001ALMACEN  DISTRIBEL                                D000000000067200000000000000000000100010010000000000000000000000F0010000008013300520151210000101 00000000000000000000000000000000000000000000000000000000000000000000000000000000000000000000000000000000000000000N 00000000000NCONT   00    00000000000          00000000000000000000000000000000000000000000 000000000000000A000000000000000000000000000000000000000000000 000000000000000000000000000000000000000     00000000                                                                                                                        000000000000000000
F0010000008013400001000002245486800011050500000000000000000201512100002001ALMACEN  DISTRIBEL                                D000000006000000000000000000000000100010010000000000000000000000F0010000008013400120151210000101 00000000000000000000000000000000000000000000000000000000000000000000000000000000000000000000000000000000000000000N 00000000000NCONT   00    00000000000          00000000000000000000000000000000000000000000 000000000000000A000000000000000000000000000000000000000000000 000000000000000000000000000000000000000     00000000                                                                                                                        000000000000000000
F0010000008013400002000002245486800041450500000000000000000201512100002001ALMACEN  DISTRIBEL                                C000000005600000000000000000000000100010010000000000000000000000F0010000008013400220151210000101 00000000000000000000000000000000000000000000000000000000000000000000000000000000000000000000000000000000000000000N 00000000000NCONT   00    00000000000          00000000000000000000000000000000000000000000 000000000000000A000000000000000000000000000000000000000000000 000000000000000000000000000000000000000     00000000                                                                                                                        000000000000000000
F0010000008013400003000002245486800042505000000000000000000201512100002001ALMACEN  DISTRIBEL                                C000000000400000000000000000000000100010010000000000000000000000F0010000008013400320151210000101 00000000000000000000000000000000000000000000000000000000000000000000000000000000000000000000000000000000000000000N 00000000000NCONT   00    00000000000          00000000000000000000000000000000000000000000 000000000000000A000000000000000000000000000000000000000000000 000000000000000000000000000000000000000     00000000                                                                                                                        000000000000000000
F0010000008013400004000002245486800023658300000000000000000201512100002001ALMACEN  DISTRIBEL                                C000000000044800000000000000000000100010010000000000000000000000F0010000008013400420151210000101 00000000000000000000000000000000000000000000000000000000000000000000000000000000000000000000000000000000000000000N 00000000000NCONT   00    00000000000          00000000000000000000000000000000000000000000 000000000000000A000000000000000000000000000000000000000000000 000000000000000000000000000000000000000     00000000                                                                                                                        000000000000000000
F0010000008013400005000002245486800013552100000000000000000201512100002001ALMACEN  DISTRIBEL                                D000000000044800000000000000000000100010010000000000000000000000F0010000008013400520151210000101 00000000000000000000000000000000000000000000000000000000000000000000000000000000000000000000000000000000000000000N 00000000000NCONT   00    00000000000          00000000000000000000000000000000000000000000 000000000000000A000000000000000000000000000000000000000000000 000000000000000000000000000000000000000     00000000                                                                                                                        000000000000000000
F0010000008013500001000089011078600011050500000000000000000201512100002001DIST. NUEVO MUNDO S.A.S.                          D000000001602500000000000000000000100010010000000000000000000000F0010000008013500120151210000101 00000000000000000000000000000000000000000000000000000000000000000000000000000000000000000000000000000000000000000N 00000000000NCONT   00    00000000000          00000000000000000000000000000000000000000000 000000000000000A000000000000000000000000000000000000000000000 000000000000000000000000000000000000000     00000000                                                                                                                        000000000000000000
F0010000008013500002000089011078600041450500000000000000000201512100002001DIST. NUEVO MUNDO S.A.S.                          C000000001340000000000000000000000100010010000000000000000000000F0010000008013500220151210000101 00000000000000000000000000000000000000000000000000000000000000000000000000000000000000000000000000000000000000000N 00000000000NCONT   00    00000000000          00000000000000000000000000000000000000000000 000000000000000A000000000000000000000000000000000000000000000 000000000000000000000000000000000000000     00000000                                                                                                                        000000000000000000
F0010000008013500003000089011078600042505000000000000000000201512100002001DIST. NUEVO MUNDO S.A.S.                          C000000000262500000000000000000000100010010000000000000000000000F0010000008013500320151210000101 00000000000000000000000000000000000000000000000000000000000000000000000000000000000000000000000000000000000000000N 00000000000NCONT   00    00000000000          00000000000000000000000000000000000000000000 000000000000000A000000000000000000000000000000000000000000000 000000000000000000000000000000000000000     00000000                                                                                                                        000000000000000000
F0010000008013500004000089011078600023658300000000000000000201512100002001DIST. NUEVO MUNDO S.A.S.                          C000000000010700000000000000000000100010010000000000000000000000F0010000008013500420151210000101 00000000000000000000000000000000000000000000000000000000000000000000000000000000000000000000000000000000000000000N 00000000000NCONT   00    00000000000          00000000000000000000000000000000000000000000 000000000000000A000000000000000000000000000000000000000000000 000000000000000000000000000000000000000     00000000                                                                                                                        000000000000000000
F0010000008013500005000089011078600013552100000000000000000201512100002001DIST. NUEVO MUNDO S.A.S.                          D000000000010700000000000000000000100010010000000000000000000000F0010000008013500520151210000101 00000000000000000000000000000000000000000000000000000000000000000000000000000000000000000000000000000000000000000N 00000000000NCONT   00    00000000000          00000000000000000000000000000000000000000000 000000000000000A000000000000000000000000000000000000000000000 000000000000000000000000000000000000000     00000000                                                                                                                        000000000000000000
F0010000008013600001000007957099900011050500000000000000000201512100002001RUBEN GOMEZ                                       D000000001700000000000000000000000100010010000000000000000000000F0010000008013600120151210000101 00000000000000000000000000000000000000000000000000000000000000000000000000000000000000000000000000000000000000000N 00000000000NCONT   00    00000000000          00000000000000000000000000000000000000000000 000000000000000A000000000000000000000000000000000000000000000 000000000000000000000000000000000000000     00000000                                                                                                                        000000000000000000
F0010000008013600002000007957099900041450500000000000000000201512100002001RUBEN GOMEZ                                       C000000001200000000000000000000000100010010000000000000000000000F0010000008013600220151210000101 00000000000000000000000000000000000000000000000000000000000000000000000000000000000000000000000000000000000000000N 00000000000NCONT   00    00000000000          00000000000000000000000000000000000000000000 000000000000000A000000000000000000000000000000000000000000000 000000000000000000000000000000000000000     00000000                                                                                                                        000000000000000000
F0010000008013600003000007957099900042505000000000000000000201512100002001RUBEN GOMEZ                                       C000000000500000000000000000000000100010010000000000000000000000F0010000008013600320151210000101 00000000000000000000000000000000000000000000000000000000000000000000000000000000000000000000000000000000000000000N 00000000000NCONT   00    00000000000          00000000000000000000000000000000000000000000 000000000000000A000000000000000000000000000000000000000000000 000000000000000000000000000000000000000     00000000                                                                                                                        000000000000000000
F0010000008013600004000007957099900023658300000000000000000201512100002001RUBEN GOMEZ                                       C000000000009600000000000000000000100010010000000000000000000000F0010000008013600420151210000101 00000000000000000000000000000000000000000000000000000000000000000000000000000000000000000000000000000000000000000N 00000000000NCONT   00    00000000000          00000000000000000000000000000000000000000000 000000000000000A000000000000000000000000000000000000000000000 000000000000000000000000000000000000000     00000000                                                                                                                        000000000000000000
F0010000008013600005000007957099900013552100000000000000000201512100002001RUBEN GOMEZ                                       D000000000009600000000000000000000100010010000000000000000000000F0010000008013600520151210000101 00000000000000000000000000000000000000000000000000000000000000000000000000000000000000000000000000000000000000000N 00000000000NCONT   00    00000000000          00000000000000000000000000000000000000000000 000000000000000A000000000000000000000000000000000000000000000 000000000000000000000000000000000000000     00000000                                                                                                                        000000000000000000
F0010000008013700001000007957099900011050500000000000000000201512100002001RUBEN GOMEZ                                       D000000003700000000000000000000000100010010000000000000000000000F0010000008013700120151210000101 00000000000000000000000000000000000000000000000000000000000000000000000000000000000000000000000000000000000000000N 00000000000NCONT   00    00000000000          00000000000000000000000000000000000000000000 000000000000000A000000000000000000000000000000000000000000000 000000000000000000000000000000000000000     00000000                                                                                                                        000000000000000000
F0010000008013700002000007957099900041450500000000000000000201512100002001RUBEN GOMEZ                                       C000000002700000000000000000000000100010010000000000000000000000F0010000008013700220151210000101 00000000000000000000000000000000000000000000000000000000000000000000000000000000000000000000000000000000000000000N 00000000000NCONT   00    00000000000          00000000000000000000000000000000000000000000 000000000000000A000000000000000000000000000000000000000000000 000000000000000000000000000000000000000     00000000                                                                                                                        000000000000000000
F0010000008013700003000007957099900042505000000000000000000201512100002001RUBEN GOMEZ                                       C000000001000000000000000000000000100010010000000000000000000000F0010000008013700320151210000101 00000000000000000000000000000000000000000000000000000000000000000000000000000000000000000000000000000000000000000N 00000000000NCONT   00    00000000000          00000000000000000000000000000000000000000000 000000000000000A000000000000000000000000000000000000000000000 000000000000000000000000000000000000000     00000000                                                                                                                        000000000000000000
F0010000008013700004000007957099900023658300000000000000000201512100002001RUBEN GOMEZ                                       C000000000021600000000000000000000100010010000000000000000000000F0010000008013700420151210000101 00000000000000000000000000000000000000000000000000000000000000000000000000000000000000000000000000000000000000000N 00000000000NCONT   00    00000000000          00000000000000000000000000000000000000000000 000000000000000A000000000000000000000000000000000000000000000 000000000000000000000000000000000000000     00000000                                                                                                                        000000000000000000
F0010000008013700005000007957099900013552100000000000000000201512100002001RUBEN GOMEZ                                       D000000000021600000000000000000000100010010000000000000000000000F0010000008013700520151210000101 00000000000000000000000000000000000000000000000000000000000000000000000000000000000000000000000000000000000000000N 00000000000NCONT   00    00000000000          00000000000000000000000000000000000000000000 000000000000000A000000000000000000000000000000000000000000000 000000000000000000000000000000000000000     00000000                                                                                                                        000000000000000000
F0010000008013800001000007957099900011050500000000000000000201512100002001RUBEN GOMEZ                                       D000000006300000000000000000000000100010010000000000000000000000F0010000008013800120151210000101 00000000000000000000000000000000000000000000000000000000000000000000000000000000000000000000000000000000000000000N 00000000000NCONT   00    00000000000          00000000000000000000000000000000000000000000 000000000000000A000000000000000000000000000000000000000000000 000000000000000000000000000000000000000     00000000                                                                                                                        000000000000000000
F0010000008013800002000007957099900041450500000000000000000201512100002001RUBEN GOMEZ                                       C000000004800000000000000000000000100010010000000000000000000000F0010000008013800220151210000101 00000000000000000000000000000000000000000000000000000000000000000000000000000000000000000000000000000000000000000N 00000000000NCONT   00    00000000000          00000000000000000000000000000000000000000000 000000000000000A000000000000000000000000000000000000000000000 000000000000000000000000000000000000000     00000000                                                                                                                        000000000000000000
F0010000008013800003000007957099900042505000000000000000000201512100002001RUBEN GOMEZ                                       C000000001500000000000000000000000100010010000000000000000000000F0010000008013800320151210000101 00000000000000000000000000000000000000000000000000000000000000000000000000000000000000000000000000000000000000000N 00000000000NCONT   00    00000000000          00000000000000000000000000000000000000000000 000000000000000A000000000000000000000000000000000000000000000 000000000000000000000000000000000000000     00000000                                                                                                                        000000000000000000
F0010000008013800004000007957099900023658300000000000000000201512100002001RUBEN GOMEZ                                       C000000000038400000000000000000000100010010000000000000000000000F0010000008013800420151210000101 00000000000000000000000000000000000000000000000000000000000000000000000000000000000000000000000000000000000000000N 00000000000NCONT   00    00000000000          00000000000000000000000000000000000000000000 000000000000000A000000000000000000000000000000000000000000000 000000000000000000000000000000000000000     00000000                                                                                                                        000000000000000000
F0010000008013800005000007957099900013552100000000000000000201512100002001RUBEN GOMEZ                                       D000000000038400000000000000000000100010010000000000000000000000F0010000008013800520151210000101 00000000000000000000000000000000000000000000000000000000000000000000000000000000000000000000000000000000000000000N 00000000000NCONT   00    00000000000          00000000000000000000000000000000000000000000 000000000000000A000000000000000000000000000000000000000000000 000000000000000000000000000000000000000     00000000                                                                                                                        000000000000000000
F0010000008013900001000080202350700011050500000000000000000201512100002001CONNY DE LA COSTA S.A.S                           D000000000900000000000000000000000100010010000000000000000000000F0010000008013900120151210000101 00000000000000000000000000000000000000000000000000000000000000000000000000000000000000000000000000000000000000000N 00000000000NCONT   00    00000000000          00000000000000000000000000000000000000000000 000000000000000A000000000000000000000000000000000000000000000 000000000000000000000000000000000000000     00000000                                                                                                                        000000000000000000
F0010000008013900002000080202350700041450500000000000000000201512100002001CONNY DE LA COSTA S.A.S                           C000000000800000000000000000000000100010010000000000000000000000F0010000008013900220151210000101 00000000000000000000000000000000000000000000000000000000000000000000000000000000000000000000000000000000000000000N 00000000000NCONT   00    00000000000          00000000000000000000000000000000000000000000 000000000000000A000000000000000000000000000000000000000000000 000000000000000000000000000000000000000     00000000                                                                                                                        000000000000000000
F0010000008013900003000080202350700042505000000000000000000201512100002001CONNY DE LA COSTA S.A.S                           C000000000100000000000000000000000100010010000000000000000000000F0010000008013900320151210000101 00000000000000000000000000000000000000000000000000000000000000000000000000000000000000000000000000000000000000000N 00000000000NCONT   00    00000000000          00000000000000000000000000000000000000000000 000000000000000A000000000000000000000000000000000000000000000 000000000000000000000000000000000000000     00000000                                                                                                                        000000000000000000
F0010000008013900004000080202350700023658300000000000000000201512100002001CONNY DE LA COSTA S.A.S                           C000000000006400000000000000000000100010010000000000000000000000F0010000008013900420151210000101 00000000000000000000000000000000000000000000000000000000000000000000000000000000000000000000000000000000000000000N 00000000000NCONT   00    00000000000          00000000000000000000000000000000000000000000 000000000000000A000000000000000000000000000000000000000000000 000000000000000000000000000000000000000     00000000                                                                                                                        000000000000000000
F0010000008013900005000080202350700013552100000000000000000201512100002001CONNY DE LA COSTA S.A.S                           D000000000006400000000000000000000100010010000000000000000000000F0010000008013900520151210000101 00000000000000000000000000000000000000000000000000000000000000000000000000000000000000000000000000000000000000000N 00000000000NCONT   00    00000000000          00000000000000000000000000000000000000000000 000000000000000A000000000000000000000000000000000000000000000 000000000000000000000000000000000000000     00000000                                                                                                                        000000000000000000
F0010000008014000001000080202350700011050500000000000000000201512100002001CONNY DE LA COSTA SAS                             D000000001200000000000000000000000100010010000000000000000000000F0010000008014000120151210000101 00000000000000000000000000000000000000000000000000000000000000000000000000000000000000000000000000000000000000000N 00000000000NCONT   00    00000000000          00000000000000000000000000000000000000000000 000000000000000A000000000000000000000000000000000000000000000 000000000000000000000000000000000000000     00000000                                                                                                                        000000000000000000
F0010000008014000002000080202350700041450500000000000000000201512100002001CONNY DE LA COSTA SAS                             C000000000800000000000000000000000100010010000000000000000000000F0010000008014000220151210000101 00000000000000000000000000000000000000000000000000000000000000000000000000000000000000000000000000000000000000000N 00000000000NCONT   00    00000000000          00000000000000000000000000000000000000000000 000000000000000A000000000000000000000000000000000000000000000 000000000000000000000000000000000000000     00000000                                                                                                                        000000000000000000
F0010000008014000003000080202350700042505000000000000000000201512100002001CONNY DE LA COSTA SAS                             C000000000400000000000000000000000100010010000000000000000000000F0010000008014000320151210000101 00000000000000000000000000000000000000000000000000000000000000000000000000000000000000000000000000000000000000000N 00000000000NCONT   00    00000000000          00000000000000000000000000000000000000000000 000000000000000A000000000000000000000000000000000000000000000 000000000000000000000000000000000000000     00000000                                                                                                                        000000000000000000
F0010000008014000004000080202350700023658300000000000000000201512100002001CONNY DE LA COSTA SAS                             C000000000006400000000000000000000100010010000000000000000000000F0010000008014000420151210000101 00000000000000000000000000000000000000000000000000000000000000000000000000000000000000000000000000000000000000000N 00000000000NCONT   00    00000000000          00000000000000000000000000000000000000000000 000000000000000A000000000000000000000000000000000000000000000 000000000000000000000000000000000000000     00000000                                                                                                                        000000000000000000
F0010000008014000005000080202350700013552100000000000000000201512100002001CONNY DE LA COSTA SAS                             D000000000006400000000000000000000100010010000000000000000000000F0010000008014000520151210000101 00000000000000000000000000000000000000000000000000000000000000000000000000000000000000000000000000000000000000000N 00000000000NCONT   00    00000000000          00000000000000000000000000000000000000000000 000000000000000A000000000000000000000000000000000000000000000 000000000000000000000000000000000000000     00000000                                                                                                                        000000000000000000
F0010000008014100001000090061985600011050500000000000000000201512100002001COMERCIALIZADORA PATRY SAS                        D000000001700000000000000000000000100010010000000000000000000000F0010000008014100120151210000101 00000000000000000000000000000000000000000000000000000000000000000000000000000000000000000000000000000000000000000N 00000000000NCONT   00    00000000000          00000000000000000000000000000000000000000000 000000000000000A000000000000000000000000000000000000000000000 000000000000000000000000000000000000000     00000000                                                                                                                        000000000000000000
F0010000008014100002000090061985600041450500000000000000000201512100002001COMERCIALIZADORA PATRY SAS                        C000000001200000000000000000000000100010010000000000000000000000F0010000008014100220151210000101 00000000000000000000000000000000000000000000000000000000000000000000000000000000000000000000000000000000000000000N 00000000000NCONT   00    00000000000          00000000000000000000000000000000000000000000 000000000000000A000000000000000000000000000000000000000000000 000000000000000000000000000000000000000     00000000                                                                                                                        000000000000000000
F0010000008014100003000090061985600042505000000000000000000201512100002001COMERCIALIZADORA PATRY SAS                        C000000000500000000000000000000000100010010000000000000000000000F0010000008014100320151210000101 00000000000000000000000000000000000000000000000000000000000000000000000000000000000000000000000000000000000000000N 00000000000NCONT   00    00000000000          00000000000000000000000000000000000000000000 000000000000000A000000000000000000000000000000000000000000000 000000000000000000000000000000000000000     00000000                                                                                                                        000000000000000000
F0010000008014100004000090061985600023658300000000000000000201512100002001COMERCIALIZADORA PATRY SAS                        C000000000009600000000000000000000100010010000000000000000000000F0010000008014100420151210000101 00000000000000000000000000000000000000000000000000000000000000000000000000000000000000000000000000000000000000000N 00000000000NCONT   00    00000000000          00000000000000000000000000000000000000000000 000000000000000A000000000000000000000000000000000000000000000 000000000000000000000000000000000000000     00000000                                                                                                                        000000000000000000
F0010000008014100005000090061985600013552100000000000000000201512100002001COMERCIALIZADORA PATRY SAS                        D000000000009600000000000000000000100010010000000000000000000000F0010000008014100520151210000101 00000000000000000000000000000000000000000000000000000000000000000000000000000000000000000000000000000000000000000N 00000000000NCONT   00    00000000000          00000000000000000000000000000000000000000000 000000000000000A000000000000000000000000000000000000000000000 000000000000000000000000000000000000000     00000000                                                                                                                        000000000000000000
F0010000008014200001000000431178400011050500000000000000000201512100002001EFRAIN ALVAREZ                                    D000000000430000000000000000000000100010010000000000000000000000F0010000008014200120151210000101 00000000000000000000000000000000000000000000000000000000000000000000000000000000000000000000000000000000000000000N 00000000000NCONT   00    00000000000          00000000000000000000000000000000000000000000 000000000000000A000000000000000000000000000000000000000000000 000000000000000000000000000000000000000     00000000                                                                                                                        000000000000000000
F0010000008014200002000000431178400041450500000000000000000201512100002001EFRAIN ALVAREZ                                    C000000000380000000000000000000000100010010000000000000000000000F0010000008014200220151210000101 00000000000000000000000000000000000000000000000000000000000000000000000000000000000000000000000000000000000000000N 00000000000NCONT   00    00000000000          00000000000000000000000000000000000000000000 000000000000000A000000000000000000000000000000000000000000000 000000000000000000000000000000000000000     00000000                                                                                                                        000000000000000000
F0010000008014200003000000431178400042505000000000000000000201512100002001EFRAIN ALVAREZ                                    C000000000050000000000000000000000100010010000000000000000000000F0010000008014200320151210000101 00000000000000000000000000000000000000000000000000000000000000000000000000000000000000000000000000000000000000000N 00000000000NCONT   00    00000000000          00000000000000000000000000000000000000000000 000000000000000A000000000000000000000000000000000000000000000 000000000000000000000000000000000000000     00000000                                                                                                                        000000000000000000
F0010000008014200004000000431178400023658300000000000000000201512100002001EFRAIN ALVAREZ                                    C000000000003000000000000000000000100010010000000000000000000000F0010000008014200420151210000101 00000000000000000000000000000000000000000000000000000000000000000000000000000000000000000000000000000000000000000N 00000000000NCONT   00    00000000000          00000000000000000000000000000000000000000000 000000000000000A000000000000000000000000000000000000000000000 000000000000000000000000000000000000000     00000000                                                                                                                        000000000000000000
F0010000008014200005000000431178400013552100000000000000000201512100002001EFRAIN ALVAREZ                                    D000000000003000000000000000000000100010010000000000000000000000F0010000008014200520151210000101 00000000000000000000000000000000000000000000000000000000000000000000000000000000000000000000000000000000000000000N 00000000000NCONT   00    00000000000          00000000000000000000000000000000000000000000 000000000000000A000000000000000000000000000000000000000000000 000000000000000000000000000000000000000     00000000                                                                                                                        000000000000000000
F0010000008014300001000000431178400011050500000000000000000201512100002001EFRAIN ALVAREZ                                    D000000000910000000000000000000000100010010000000000000000000000F0010000008014300120151210000101 00000000000000000000000000000000000000000000000000000000000000000000000000000000000000000000000000000000000000000N 00000000000NCONT   00    00000000000          00000000000000000000000000000000000000000000 000000000000000A000000000000000000000000000000000000000000000 000000000000000000000000000000000000000     00000000                                                                                                                        000000000000000000
F0010000008014300002000000431178400041450500000000000000000201512100002001EFRAIN ALVAREZ                                    C000000000860000000000000000000000100010010000000000000000000000F0010000008014300220151210000101 00000000000000000000000000000000000000000000000000000000000000000000000000000000000000000000000000000000000000000N 00000000000NCONT   00    00000000000          00000000000000000000000000000000000000000000 000000000000000A000000000000000000000000000000000000000000000 000000000000000000000000000000000000000     00000000                                                                                                                        000000000000000000
F0010000008014300003000000431178400042505000000000000000000201512100002001EFRAIN ALVAREZ                                    C000000000050000000000000000000000100010010000000000000000000000F0010000008014300320151210000101 00000000000000000000000000000000000000000000000000000000000000000000000000000000000000000000000000000000000000000N 00000000000NCONT   00    00000000000          00000000000000000000000000000000000000000000 000000000000000A000000000000000000000000000000000000000000000 000000000000000000000000000000000000000     00000000                                                                                                                        000000000000000000
F0010000008014300004000000431178400023658300000000000000000201512100002001EFRAIN ALVAREZ                                    C000000000006900000000000000000000100010010000000000000000000000F0010000008014300420151210000101 00000000000000000000000000000000000000000000000000000000000000000000000000000000000000000000000000000000000000000N 00000000000NCONT   00    00000000000          00000000000000000000000000000000000000000000 000000000000000A000000000000000000000000000000000000000000000 000000000000000000000000000000000000000     00000000                                                                                                                        000000000000000000
F0010000008014300005000000431178400013552100000000000000000201512100002001EFRAIN ALVAREZ                                    D000000000006900000000000000000000100010010000000000000000000000F0010000008014300520151210000101 00000000000000000000000000000000000000000000000000000000000000000000000000000000000000000000000000000000000000000N 00000000000NCONT   00    00000000000          00000000000000000000000000000000000000000000 000000000000000A000000000000000000000000000000000000000000000 000000000000000000000000000000000000000     00000000                                                                                                                        000000000000000000
F0010000008014400001000000431178400011050500000000000000000201512100002001EFRAIN ALVAREZ                                    D000000000910000000000000000000000100010010000000000000000000000F0010000008014400120151210000101 00000000000000000000000000000000000000000000000000000000000000000000000000000000000000000000000000000000000000000N 00000000000NCONT   00    00000000000          00000000000000000000000000000000000000000000 000000000000000A000000000000000000000000000000000000000000000 000000000000000000000000000000000000000     00000000                                                                                                                        000000000000000000
F0010000008014400002000000431178400041450500000000000000000201512100002001EFRAIN ALVAREZ                                    C000000000860000000000000000000000100010010000000000000000000000F0010000008014400220151210000101 00000000000000000000000000000000000000000000000000000000000000000000000000000000000000000000000000000000000000000N 00000000000NCONT   00    00000000000          00000000000000000000000000000000000000000000 000000000000000A000000000000000000000000000000000000000000000 000000000000000000000000000000000000000     00000000                                                                                                                        000000000000000000
F0010000008014400003000000431178400042505000000000000000000201512100002001EFRAIN ALVAREZ                                    C000000000050000000000000000000000100010010000000000000000000000F0010000008014400320151210000101 00000000000000000000000000000000000000000000000000000000000000000000000000000000000000000000000000000000000000000N 00000000000NCONT   00    00000000000          00000000000000000000000000000000000000000000 000000000000000A000000000000000000000000000000000000000000000 000000000000000000000000000000000000000     00000000                                                                                                                        000000000000000000
F0010000008014400004000000431178400023658300000000000000000201512100002001EFRAIN ALVAREZ                                    C000000000006900000000000000000000100010010000000000000000000000F0010000008014400420151210000101 00000000000000000000000000000000000000000000000000000000000000000000000000000000000000000000000000000000000000000N 00000000000NCONT   00    00000000000          00000000000000000000000000000000000000000000 000000000000000A000000000000000000000000000000000000000000000 000000000000000000000000000000000000000     00000000                                                                                                                        000000000000000000
F0010000008014400005000000431178400013552100000000000000000201512100002001EFRAIN ALVAREZ                                    D000000000006900000000000000000000100010010000000000000000000000F0010000008014400520151210000101 00000000000000000000000000000000000000000000000000000000000000000000000000000000000000000000000000000000000000000N 00000000000NCONT   00    00000000000          00000000000000000000000000000000000000000000 000000000000000A000000000000000000000000000000000000000000000 000000000000000000000000000000000000000     00000000                                                                                                                        000000000000000000
F0010000008014500001000000431178400011050500000000000000000201512100002001EFRAIN ALVAREZ                                    D000000002730000000000000000000000100010010000000000000000000000F0010000008014500120151210000101 00000000000000000000000000000000000000000000000000000000000000000000000000000000000000000000000000000000000000000N 00000000000NCONT   00    00000000000          00000000000000000000000000000000000000000000 000000000000000A000000000000000000000000000000000000000000000 000000000000000000000000000000000000000     00000000                                                                                                                        000000000000000000
F0010000008014500002000000431178400041450500000000000000000201512100002001EFRAIN ALVAREZ                                    C000000002580000000000000000000000100010010000000000000000000000F0010000008014500220151210000101 00000000000000000000000000000000000000000000000000000000000000000000000000000000000000000000000000000000000000000N 00000000000NCONT   00    00000000000          00000000000000000000000000000000000000000000 000000000000000A000000000000000000000000000000000000000000000 000000000000000000000000000000000000000     00000000                                                                                                                        000000000000000000
