F0010000008466400001000007225219800011050500000000000000000201604110002001MAURICIO ALVAREZ VARELO                           D000000006500000000000000000000000100010010000000000000000000000F0010000008466400120160411000101 00000000000000000000000000000000000000000000000000000000000000000000000000000000000000000000000000000000000000000N 00000000000NCONT   00    00000000000          00000000000000000000000000000000000000000000 000000000000000A000000000000000000000000000000000000000000000 000000000000000000000000000000000000000     00000000                                                                                                                        000000000000000000
F0010000008466400002000007225219800041450500000000000000000201604110002001MAURICIO ALVAREZ VARELO                           C000000004800000000000000000000000100010010000000000000000000000F0010000008466400220160411000101 00000000000000000000000000000000000000000000000000000000000000000000000000000000000000000000000000000000000000000N 00000000000NCONT   00    00000000000          00000000000000000000000000000000000000000000 000000000000000A000000000000000000000000000000000000000000000 000000000000000000000000000000000000000     00000000                                                                                                                        000000000000000000
F0010000008466400003000007225219800042505000000000000000000201604110002001MAURICIO ALVAREZ VARELO                           C000000001700000000000000000000000100010010000000000000000000000F0010000008466400320160411000101 00000000000000000000000000000000000000000000000000000000000000000000000000000000000000000000000000000000000000000N 00000000000NCONT   00    00000000000          00000000000000000000000000000000000000000000 000000000000000A000000000000000000000000000000000000000000000 000000000000000000000000000000000000000     00000000                                                                                                                        000000000000000000
F0010000008466400004000007225219800023658300000000000000000201604110002001MAURICIO ALVAREZ VARELO                           C000000000038400000000000000000000100010010000000000000000000000F0010000008466400420160411000101 00000000000000000000000000000000000000000000000000000000000000000000000000000000000000000000000000000000000000000N 00000000000NCONT   00    00000000000          00000000000000000000000000000000000000000000 000000000000000A000000000000000000000000000000000000000000000 000000000000000000000000000000000000000     00000000                                                                                                                        000000000000000000
F0010000008466400005000007225219800013552100000000000000000201604110002001MAURICIO ALVAREZ VARELO                           D000000000038400000000000000000000100010010000000000000000000000F0010000008466400520160411000101 00000000000000000000000000000000000000000000000000000000000000000000000000000000000000000000000000000000000000000N 00000000000NCONT   00    00000000000          00000000000000000000000000000000000000000000 000000000000000A000000000000000000000000000000000000000000000 000000000000000000000000000000000000000     00000000                                                                                                                        000000000000000000
F0010000008466500001000007225219800011050500000000000000000201604110002001MAURICIO ALVAREZ VARELO                           D000000001400000000000000000000000100010010000000000000000000000F0010000008466500120160411000101 00000000000000000000000000000000000000000000000000000000000000000000000000000000000000000000000000000000000000000N 00000000000NCONT   00    00000000000          00000000000000000000000000000000000000000000 000000000000000A000000000000000000000000000000000000000000000 000000000000000000000000000000000000000     00000000                                                                                                                        000000000000000000
F0010000008466500002000007225219800041450500000000000000000201604110002001MAURICIO ALVAREZ VARELO                           C000000000950000000000000000000000100010010000000000000000000000F0010000008466500220160411000101 00000000000000000000000000000000000000000000000000000000000000000000000000000000000000000000000000000000000000000N 00000000000NCONT   00    00000000000          00000000000000000000000000000000000000000000 000000000000000A000000000000000000000000000000000000000000000 000000000000000000000000000000000000000     00000000                                                                                                                        000000000000000000
F0010000008466500003000007225219800042505000000000000000000201604110002001MAURICIO ALVAREZ VARELO                           C000000000450000000000000000000000100010010000000000000000000000F0010000008466500320160411000101 00000000000000000000000000000000000000000000000000000000000000000000000000000000000000000000000000000000000000000N 00000000000NCONT   00    00000000000          00000000000000000000000000000000000000000000 000000000000000A000000000000000000000000000000000000000000000 000000000000000000000000000000000000000     00000000                                                                                                                        000000000000000000
F0010000008466500004000007225219800023658300000000000000000201604110002001MAURICIO ALVAREZ VARELO                           C000000000007600000000000000000000100010010000000000000000000000F0010000008466500420160411000101 00000000000000000000000000000000000000000000000000000000000000000000000000000000000000000000000000000000000000000N 00000000000NCONT   00    00000000000          00000000000000000000000000000000000000000000 000000000000000A000000000000000000000000000000000000000000000 000000000000000000000000000000000000000     00000000                                                                                                                        000000000000000000
F0010000008466500005000007225219800013552100000000000000000201604110002001MAURICIO ALVAREZ VARELO                           D000000000007600000000000000000000100010010000000000000000000000F0010000008466500520160411000101 00000000000000000000000000000000000000000000000000000000000000000000000000000000000000000000000000000000000000000N 00000000000NCONT   00    00000000000          00000000000000000000000000000000000000000000 000000000000000A000000000000000000000000000000000000000000000 000000000000000000000000000000000000000     00000000                                                                                                                        000000000000000000
F0010000008466600001000007225219800011050500000000000000000201604110002001MAURICIO ALVAREZ VARELO                           D000000001100000000000000000000000100010010000000000000000000000F0010000008466600120160411000101 00000000000000000000000000000000000000000000000000000000000000000000000000000000000000000000000000000000000000000N 00000000000NCONT   00    00000000000          00000000000000000000000000000000000000000000 000000000000000A000000000000000000000000000000000000000000000 000000000000000000000000000000000000000     00000000                                                                                                                        000000000000000000
F0010000008466600002000007225219800041450500000000000000000201604110002001MAURICIO ALVAREZ VARELO                           C000000000950000000000000000000000100010010000000000000000000000F0010000008466600220160411000101 00000000000000000000000000000000000000000000000000000000000000000000000000000000000000000000000000000000000000000N 00000000000NCONT   00    00000000000          00000000000000000000000000000000000000000000 000000000000000A000000000000000000000000000000000000000000000 000000000000000000000000000000000000000     00000000                                                                                                                        000000000000000000
F0010000008466600003000007225219800042505000000000000000000201604110002001MAURICIO ALVAREZ VARELO                           C000000000150000000000000000000000100010010000000000000000000000F0010000008466600320160411000101 00000000000000000000000000000000000000000000000000000000000000000000000000000000000000000000000000000000000000000N 00000000000NCONT   00    00000000000          00000000000000000000000000000000000000000000 000000000000000A000000000000000000000000000000000000000000000 000000000000000000000000000000000000000     00000000                                                                                                                        000000000000000000
F0010000008466600004000007225219800023658300000000000000000201604110002001MAURICIO ALVAREZ VARELO                           C000000000007600000000000000000000100010010000000000000000000000F0010000008466600420160411000101 00000000000000000000000000000000000000000000000000000000000000000000000000000000000000000000000000000000000000000N 00000000000NCONT   00    00000000000          00000000000000000000000000000000000000000000 000000000000000A000000000000000000000000000000000000000000000 000000000000000000000000000000000000000     00000000                                                                                                                        000000000000000000
F0010000008466600005000007225219800013552100000000000000000201604110002001MAURICIO ALVAREZ VARELO                           D000000000007600000000000000000000100010010000000000000000000000F0010000008466600520160411000101 00000000000000000000000000000000000000000000000000000000000000000000000000000000000000000000000000000000000000000N 00000000000NCONT   00    00000000000          00000000000000000000000000000000000000000000 000000000000000A000000000000000000000000000000000000000000000 000000000000000000000000000000000000000     00000000                                                                                                                        000000000000000000
F0010000008466700001000002258669400013050500000000000000000201604110002001YURY PAOLA  SANTAMARIA ..                         D000000015495000000000000000000000100010010000000000000000000000F0010000008466700120160411000101 00000000000000000000000000000000000000000000000000000000000000000000000000000000000000000000000000000000000000000N 00000000000NCONT   00    00000000000          00000000000000000000000000000000000000000000 000000000000000A000000000000000000000000000000000000000000000 000000000000000000000000000000000000000     00000000                                                                                                                        000000000000000000
F0010000008466700002000002258669400041450500000000000000000201604110002001YURY PAOLA  SANTAMARIA ..                         C000000013120000000000000000000000100010010000000000000000000000F0010000008466700220160411000101 00000000000000000000000000000000000000000000000000000000000000000000000000000000000000000000000000000000000000000N 00000000000NCONT   00    00000000000          00000000000000000000000000000000000000000000 000000000000000A000000000000000000000000000000000000000000000 000000000000000000000000000000000000000     00000000                                                                                                                        000000000000000000
F0010000008466700003000002258669400042505000000000000000000201604110002001YURY PAOLA  SANTAMARIA ..                         C000000002375000000000000000000000100010010000000000000000000000F0010000008466700320160411000101 00000000000000000000000000000000000000000000000000000000000000000000000000000000000000000000000000000000000000000N 00000000000NCONT   00    00000000000          00000000000000000000000000000000000000000000 000000000000000A000000000000000000000000000000000000000000000 000000000000000000000000000000000000000     00000000                                                                                                                        000000000000000000
F0010000008466700004000002258669400023658300000000000000000201604110002001YURY PAOLA  SANTAMARIA ..                         C000000000105000000000000000000000100010010000000000000000000000F0010000008466700420160411000101 00000000000000000000000000000000000000000000000000000000000000000000000000000000000000000000000000000000000000000N 00000000000NCONT   00    00000000000          00000000000000000000000000000000000000000000 000000000000000A000000000000000000000000000000000000000000000 000000000000000000000000000000000000000     00000000                                                                                                                        000000000000000000
F0010000008466700005000002258669400013552100000000000000000201604110002001YURY PAOLA  SANTAMARIA ..                         D000000000105000000000000000000000100010010000000000000000000000F0010000008466700520160411000101 00000000000000000000000000000000000000000000000000000000000000000000000000000000000000000000000000000000000000000N 00000000000NCONT   00    00000000000          00000000000000000000000000000000000000000000 000000000000000A000000000000000000000000000000000000000000000 000000000000000000000000000000000000000     00000000                                                                                                                        000000000000000000
F0010000008466800001000080200069100013050500000000000000000201604110002001PEGANTES Y PINTURAS ATLAS LTDA                    D000000007739000000000000000000000100010010000000000000000000000F0010000008466800120160411000101 00000000000000000000000000000000000000000000000000000000000000000000000000000000000000000000000000000000000000000N 00000000000NCONT   00    00000000000          00000000000000000000000000000000000000000000 000000000000000A000000000000000000000000000000000000000000000 000000000000000000000000000000000000000     00000000                                                                                                                        000000000000000000
F0010000008466800002000080200069100041450500000000000000000201604110002001PEGANTES Y PINTURAS ATLAS LTDA                    C000000006600000000000000000000000100010010000000000000000000000F0010000008466800220160411000101 00000000000000000000000000000000000000000000000000000000000000000000000000000000000000000000000000000000000000000N 00000000000NCONT   00    00000000000          00000000000000000000000000000000000000000000 000000000000000A000000000000000000000000000000000000000000000 000000000000000000000000000000000000000     00000000                                                                                                                        000000000000000000
F0010000008466800003000080200069100042505000000000000000000201604110002001PEGANTES Y PINTURAS ATLAS LTDA                    C000000001139000000000000000000000100010010000000000000000000000F0010000008466800320160411000101 00000000000000000000000000000000000000000000000000000000000000000000000000000000000000000000000000000000000000000N 00000000000NCONT   00    00000000000          00000000000000000000000000000000000000000000 000000000000000A000000000000000000000000000000000000000000000 000000000000000000000000000000000000000     00000000                                                                                                                        000000000000000000
F0010000008466800004000080200069100023658300000000000000000201604110002001PEGANTES Y PINTURAS ATLAS LTDA                    C000000000052800000000000000000000100010010000000000000000000000F0010000008466800420160411000101 00000000000000000000000000000000000000000000000000000000000000000000000000000000000000000000000000000000000000000N 00000000000NCONT   00    00000000000          00000000000000000000000000000000000000000000 000000000000000A000000000000000000000000000000000000000000000 000000000000000000000000000000000000000     00000000                                                                                                                        000000000000000000
F0010000008466800005000080200069100013552100000000000000000201604110002001PEGANTES Y PINTURAS ATLAS LTDA                    D000000000052800000000000000000000100010010000000000000000000000F0010000008466800520160411000101 00000000000000000000000000000000000000000000000000000000000000000000000000000000000000000000000000000000000000000N 00000000000NCONT   00    00000000000          00000000000000000000000000000000000000000000 000000000000000A000000000000000000000000000000000000000000000 000000000000000000000000000000000000000     00000000                                                                                                                        000000000000000000
F0010000008466900001000000871714900013050500000000000000000201604110002001ROLNAN DE LA ROSA  INSIGNARES                     D000000024838000000000000000000000100010010000000000000000000000F0010000008466900120160411000101 00000000000000000000000000000000000000000000000000000000000000000000000000000000000000000000000000000000000000000N 00000000000NCONT   00    00000000000          00000000000000000000000000000000000000000000 000000000000000A000000000000000000000000000000000000000000000 000000000000000000000000000000000000000     00000000                                                                                                                        000000000000000000
F0010000008466900002000000871714900041450500000000000000000201604110002001ROLNAN DE LA ROSA  INSIGNARES                     C000000021186000000000000000000000100010010000000000000000000000F0010000008466900220160411000101 00000000000000000000000000000000000000000000000000000000000000000000000000000000000000000000000000000000000000000N 00000000000NCONT   00    00000000000          00000000000000000000000000000000000000000000 000000000000000A000000000000000000000000000000000000000000000 000000000000000000000000000000000000000     00000000                                                                                                                        000000000000000000
F0010000008466900003000000871714900042505000000000000000000201604110002001ROLNAN DE LA ROSA  INSIGNARES                     C000000003652000000000000000000000100010010000000000000000000000F0010000008466900320160411000101 00000000000000000000000000000000000000000000000000000000000000000000000000000000000000000000000000000000000000000N 00000000000NCONT   00    00000000000          00000000000000000000000000000000000000000000 000000000000000A000000000000000000000000000000000000000000000 000000000000000000000000000000000000000     00000000                                                                                                                        000000000000000000
F0010000008466900004000000871714900023658300000000000000000201604110002001ROLNAN DE LA ROSA  INSIGNARES                     C000000000169500000000000000000000100010010000000000000000000000F0010000008466900420160411000101 00000000000000000000000000000000000000000000000000000000000000000000000000000000000000000000000000000000000000000N 00000000000NCONT   00    00000000000          00000000000000000000000000000000000000000000 000000000000000A000000000000000000000000000000000000000000000 000000000000000000000000000000000000000     00000000                                                                                                                        000000000000000000
F0010000008466900005000000871714900013552100000000000000000201604110002001ROLNAN DE LA ROSA  INSIGNARES                     D000000000169500000000000000000000100010010000000000000000000000F0010000008466900520160411000101 00000000000000000000000000000000000000000000000000000000000000000000000000000000000000000000000000000000000000000N 00000000000NCONT   00    00000000000          00000000000000000000000000000000000000000000 000000000000000A000000000000000000000000000000000000000000000 000000000000000000000000000000000000000     00000000                                                                                                                        000000000000000000
F0010000008467000001000090002525100013050500000000000000000201604110002001VINILOS Y PEGANTES                                D000000003437000000000000000000000100010010000000000000000000000F0010000008467000120160411000101 00000000000000000000000000000000000000000000000000000000000000000000000000000000000000000000000000000000000000000N 00000000000NCONT   00    00000000000          00000000000000000000000000000000000000000000 000000000000000A000000000000000000000000000000000000000000000 000000000000000000000000000000000000000     00000000                                                                                                                        000000000000000000
F0010000008467000002000090002525100041450500000000000000000201604110002001VINILOS Y PEGANTES                                C000000003270000000000000000000000100010010000000000000000000000F0010000008467000220160411000101 00000000000000000000000000000000000000000000000000000000000000000000000000000000000000000000000000000000000000000N 00000000000NCONT   00    00000000000          00000000000000000000000000000000000000000000 000000000000000A000000000000000000000000000000000000000000000 000000000000000000000000000000000000000     00000000                                                                                                                        000000000000000000
F0010000008467000003000090002525100042505000000000000000000201604110002001VINILOS Y PEGANTES                                C000000000167000000000000000000000100010010000000000000000000000F0010000008467000320160411000101 00000000000000000000000000000000000000000000000000000000000000000000000000000000000000000000000000000000000000000N 00000000000NCONT   00    00000000000          00000000000000000000000000000000000000000000 000000000000000A000000000000000000000000000000000000000000000 000000000000000000000000000000000000000     00000000                                                                                                                        000000000000000000
F0010000008467000004000090002525100023658300000000000000000201604110002001VINILOS Y PEGANTES                                C000000000026200000000000000000000100010010000000000000000000000F0010000008467000420160411000101 00000000000000000000000000000000000000000000000000000000000000000000000000000000000000000000000000000000000000000N 00000000000NCONT   00    00000000000          00000000000000000000000000000000000000000000 000000000000000A000000000000000000000000000000000000000000000 000000000000000000000000000000000000000     00000000                                                                                                                        000000000000000000
F0010000008467000005000090002525100013552100000000000000000201604110002001VINILOS Y PEGANTES                                D000000000026200000000000000000000100010010000000000000000000000F0010000008467000520160411000101 00000000000000000000000000000000000000000000000000000000000000000000000000000000000000000000000000000000000000000N 00000000000NCONT   00    00000000000          00000000000000000000000000000000000000000000 000000000000000A000000000000000000000000000000000000000000000 000000000000000000000000000000000000000     00000000                                                                                                                        000000000000000000
F0010000008467100001000086000490200013050500000000000000000201604110002001PROV. DE PAPELES ANDINA S.A.                      D000000049577600000000000000000000100010010000000000000000000000F0010000008467100120160411000101 00000000000000000000000000000000000000000000000000000000000000000000000000000000000000000000000000000000000000000N 00000000000NCONT   00    00000000000          00000000000000000000000000000000000000000000 000000000000000A000000000000000000000000000000000000000000000 000000000000000000000000000000000000000     00000000                                                                                                                        000000000000000000
F0010000008467100002000086000490200041450500000000000000000201604110002001PROV. DE PAPELES ANDINA S.A.                      C000000045516600000000000000000000100010010000000000000000000000F0010000008467100220160411000101 00000000000000000000000000000000000000000000000000000000000000000000000000000000000000000000000000000000000000000N 00000000000NCONT   00    00000000000          00000000000000000000000000000000000000000000 000000000000000A000000000000000000000000000000000000000000000 000000000000000000000000000000000000000     00000000                                                                                                                        000000000000000000
F0010000008467100003000086000490200042505000000000000000000201604110002001PROV. DE PAPELES ANDINA S.A.                      C000000004061000000000000000000000100010010000000000000000000000F0010000008467100320160411000101 00000000000000000000000000000000000000000000000000000000000000000000000000000000000000000000000000000000000000000N 00000000000NCONT   00    00000000000          00000000000000000000000000000000000000000000 000000000000000A000000000000000000000000000000000000000000000 000000000000000000000000000000000000000     00000000                                                                                                                        000000000000000000
F0010000008467100004000086000490200023658300000000000000000201604110002001PROV. DE PAPELES ANDINA S.A.                      C000000000364100000000000000000000100010010000000000000000000000F0010000008467100420160411000101 00000000000000000000000000000000000000000000000000000000000000000000000000000000000000000000000000000000000000000N 00000000000NCONT   00    00000000000          00000000000000000000000000000000000000000000 000000000000000A000000000000000000000000000000000000000000000 000000000000000000000000000000000000000     00000000                                                                                                                        000000000000000000
F0010000008467100005000086000490200013552100000000000000000201604110002001PROV. DE PAPELES ANDINA S.A.                      D000000000364100000000000000000000100010010000000000000000000000F0010000008467100520160411000101 00000000000000000000000000000000000000000000000000000000000000000000000000000000000000000000000000000000000000000N 00000000000NCONT   00    00000000000          00000000000000000000000000000000000000000000 000000000000000A000000000000000000000000000000000000000000000 000000000000000000000000000000000000000     00000000                                                                                                                        000000000000000000
F0010000008467200001000080014190300013050500000000000000000201604110002001QUIMINSA LTDA                                     D000000031249000000000000000000000100010010000000000000000000000F0010000008467200120160411000101 00000000000000000000000000000000000000000000000000000000000000000000000000000000000000000000000000000000000000000N 00000000000NCONT   00    00000000000          00000000000000000000000000000000000000000000 000000000000000A000000000000000000000000000000000000000000000 000000000000000000000000000000000000000     00000000                                                                                                                        000000000000000000
F0010000008467200002000080014190300041450500000000000000000201604110002001QUIMINSA LTDA                                     C000000028886000000000000000000000100010010000000000000000000000F0010000008467200220160411000101 00000000000000000000000000000000000000000000000000000000000000000000000000000000000000000000000000000000000000000N 00000000000NCONT   00    00000000000          00000000000000000000000000000000000000000000 000000000000000A000000000000000000000000000000000000000000000 000000000000000000000000000000000000000     00000000                                                                                                                        000000000000000000
F0010000008467200003000080014190300042505000000000000000000201604110002001QUIMINSA LTDA                                     C000000002363000000000000000000000100010010000000000000000000000F0010000008467200320160411000101 00000000000000000000000000000000000000000000000000000000000000000000000000000000000000000000000000000000000000000N 00000000000NCONT   00    00000000000          00000000000000000000000000000000000000000000 000000000000000A000000000000000000000000000000000000000000000 000000000000000000000000000000000000000     00000000                                                                                                                        000000000000000000
F0010000008467200004000080014190300023658300000000000000000201604110002001QUIMINSA LTDA                                     C000000000231100000000000000000000100010010000000000000000000000F0010000008467200420160411000101 00000000000000000000000000000000000000000000000000000000000000000000000000000000000000000000000000000000000000000N 00000000000NCONT   00    00000000000          00000000000000000000000000000000000000000000 000000000000000A000000000000000000000000000000000000000000000 000000000000000000000000000000000000000     00000000                                                                                                                        000000000000000000
F0010000008467200005000080014190300013552100000000000000000201604110002001QUIMINSA LTDA                                     D000000000231100000000000000000000100010010000000000000000000000F0010000008467200520160411000101 00000000000000000000000000000000000000000000000000000000000000000000000000000000000000000000000000000000000000000N 00000000000NCONT   00    00000000000          00000000000000000000000000000000000000000000 000000000000000A000000000000000000000000000000000000000000000 000000000000000000000000000000000000000     00000000                                                                                                                        000000000000000000
F0010000008467300001000002245670100013050500000000000000000201604110002001YOLANDA  TOBON                                    D000000013641800000000000000000000100010010000000000000000000000F0010000008467300120160411000101 00000000000000000000000000000000000000000000000000000000000000000000000000000000000000000000000000000000000000000N 00000000000NCONT   00    00000000000          00000000000000000000000000000000000000000000 000000000000000A000000000000000000000000000000000000000000000 000000000000000000000000000000000000000     00000000                                                                                                                        000000000000000000
F0010000008467300002000002245670100041450500000000000000000201604110002001YOLANDA  TOBON                                    C000000010520000000000000000000000100010010000000000000000000000F0010000008467300220160411000101 00000000000000000000000000000000000000000000000000000000000000000000000000000000000000000000000000000000000000000N 00000000000NCONT   00    00000000000          00000000000000000000000000000000000000000000 000000000000000A000000000000000000000000000000000000000000000 000000000000000000000000000000000000000     00000000                                                                                                                        000000000000000000
F0010000008467300003000002245670100042505000000000000000000201604110002001YOLANDA  TOBON                                    C000000003121800000000000000000000100010010000000000000000000000F0010000008467300320160411000101 00000000000000000000000000000000000000000000000000000000000000000000000000000000000000000000000000000000000000000N 00000000000NCONT   00    00000000000          00000000000000000000000000000000000000000000 000000000000000A000000000000000000000000000000000000000000000 000000000000000000000000000000000000000     00000000                                                                                                                        000000000000000000
F0010000008467300004000002245670100023658300000000000000000201604110002001YOLANDA  TOBON                                    C000000000084200000000000000000000100010010000000000000000000000F0010000008467300420160411000101 00000000000000000000000000000000000000000000000000000000000000000000000000000000000000000000000000000000000000000N 00000000000NCONT   00    00000000000          00000000000000000000000000000000000000000000 000000000000000A000000000000000000000000000000000000000000000 000000000000000000000000000000000000000     00000000                                                                                                                        000000000000000000
F0010000008467300005000002245670100013552100000000000000000201604110002001YOLANDA  TOBON                                    D000000000084200000000000000000000100010010000000000000000000000F0010000008467300520160411000101 00000000000000000000000000000000000000000000000000000000000000000000000000000000000000000000000000000000000000000N 00000000000NCONT   00    00000000000          00000000000000000000000000000000000000000000 000000000000000A000000000000000000000000000000000000000000000 000000000000000000000000000000000000000     00000000                                                                                                                        000000000000000000
F0010000008467400001000000376399500013050500000000000000000201604110002001FORDPLAST                                         D000000013460000000000000000000000100010010000000000000000000000F0010000008467400120160411000101 00000000000000000000000000000000000000000000000000000000000000000000000000000000000000000000000000000000000000000N 00000000000NCONT   00    00000000000          00000000000000000000000000000000000000000000 000000000000000A000000000000000000000000000000000000000000000 000000000000000000000000000000000000000     00000000                                                                                                                        000000000000000000
F0010000008467400002000000376399500041450500000000000000000201604110002001FORDPLAST                                         C000000012010000000000000000000000100010010000000000000000000000F0010000008467400220160411000101 00000000000000000000000000000000000000000000000000000000000000000000000000000000000000000000000000000000000000000N 00000000000NCONT   00    00000000000          00000000000000000000000000000000000000000000 000000000000000A000000000000000000000000000000000000000000000 000000000000000000000000000000000000000     00000000                                                                                                                        000000000000000000
F0010000008467400003000000376399500042505000000000000000000201604110002001FORDPLAST                                         C000000001450000000000000000000000100010010000000000000000000000F0010000008467400320160411000101 00000000000000000000000000000000000000000000000000000000000000000000000000000000000000000000000000000000000000000N 00000000000NCONT   00    00000000000          00000000000000000000000000000000000000000000 000000000000000A000000000000000000000000000000000000000000000 000000000000000000000000000000000000000     00000000                                                                                                                        000000000000000000
F0010000008467400004000000376399500023658300000000000000000201604110002001FORDPLAST                                         C000000000096100000000000000000000100010010000000000000000000000F0010000008467400420160411000101 00000000000000000000000000000000000000000000000000000000000000000000000000000000000000000000000000000000000000000N 00000000000NCONT   00    00000000000          00000000000000000000000000000000000000000000 000000000000000A000000000000000000000000000000000000000000000 000000000000000000000000000000000000000     00000000                                                                                                                        000000000000000000
F0010000008467400005000000376399500013552100000000000000000201604110002001FORDPLAST                                         D000000000096100000000000000000000100010010000000000000000000000F0010000008467400520160411000101 00000000000000000000000000000000000000000000000000000000000000000000000000000000000000000000000000000000000000000N 00000000000NCONT   00    00000000000          00000000000000000000000000000000000000000000 000000000000000A000000000000000000000000000000000000000000000 000000000000000000000000000000000000000     00000000                                                                                                                        000000000000000000
F0010000008467500001000080016665600013050500000000000000000201604110002001SUMICAL DE ANTIOQUIA S.A.S                        D000000028426800000000000000000000100010010000000000000000000000F0010000008467500120160411000101 00000000000000000000000000000000000000000000000000000000000000000000000000000000000000000000000000000000000000000N 00000000000NCONT   00    00000000000          00000000000000000000000000000000000000000000 000000000000000A000000000000000000000000000000000000000000000 000000000000000000000000000000000000000     00000000                                                                                                                        000000000000000000
F0010000008467500002000080016665600041450500000000000000000201604110002001SUMICAL DE ANTIOQUIA S.A.S                        C000000021960000000000000000000000100010010000000000000000000000F0010000008467500220160411000101 00000000000000000000000000000000000000000000000000000000000000000000000000000000000000000000000000000000000000000N 00000000000NCONT   00    00000000000          00000000000000000000000000000000000000000000 000000000000000A000000000000000000000000000000000000000000000 000000000000000000000000000000000000000     00000000                                                                                                                        000000000000000000
F0010000008467500003000080016665600042505000000000000000000201604110002001SUMICAL DE ANTIOQUIA S.A.S                        C000000006466800000000000000000000100010010000000000000000000000F0010000008467500320160411000101 00000000000000000000000000000000000000000000000000000000000000000000000000000000000000000000000000000000000000000N 00000000000NCONT   00    00000000000          00000000000000000000000000000000000000000000 000000000000000A000000000000000000000000000000000000000000000 000000000000000000000000000000000000000     00000000                                                                                                                        000000000000000000
F0010000008467500004000080016665600023658300000000000000000201604110002001SUMICAL DE ANTIOQUIA S.A.S                        C000000000175700000000000000000000100010010000000000000000000000F0010000008467500420160411000101 00000000000000000000000000000000000000000000000000000000000000000000000000000000000000000000000000000000000000000N 00000000000NCONT   00    00000000000          00000000000000000000000000000000000000000000 000000000000000A000000000000000000000000000000000000000000000 000000000000000000000000000000000000000     00000000                                                                                                                        000000000000000000
F0010000008467500005000080016665600013552100000000000000000201604110002001SUMICAL DE ANTIOQUIA S.A.S                        D000000000175700000000000000000000100010010000000000000000000000F0010000008467500520160411000101 00000000000000000000000000000000000000000000000000000000000000000000000000000000000000000000000000000000000000000N 00000000000NCONT   00    00000000000          00000000000000000000000000000000000000000000 000000000000000A000000000000000000000000000000000000000000000 000000000000000000000000000000000000000     00000000                                                                                                                        000000000000000000
F0010000008467600001000090060531100013050500000000000000000201604110002001RECUBRIMIENTOS ESENCIALES SAS                     D000000021500000000000000000000000100010010000000000000000000000F0010000008467600120160411000101 00000000000000000000000000000000000000000000000000000000000000000000000000000000000000000000000000000000000000000N 00000000000NCONT   00    00000000000          00000000000000000000000000000000000000000000 000000000000000A000000000000000000000000000000000000000000000 000000000000000000000000000000000000000     00000000                                                                                                                        000000000000000000
F0010000008467600002000090060531100041450500000000000000000201604110002001RECUBRIMIENTOS ESENCIALES SAS                     C000000018900000000000000000000000100010010000000000000000000000F0010000008467600220160411000101 00000000000000000000000000000000000000000000000000000000000000000000000000000000000000000000000000000000000000000N 00000000000NCONT   00    00000000000          00000000000000000000000000000000000000000000 000000000000000A000000000000000000000000000000000000000000000 000000000000000000000000000000000000000     00000000                                                                                                                        000000000000000000
F0010000008467600003000090060531100042505000000000000000000201604110002001RECUBRIMIENTOS ESENCIALES SAS                     C000000002600000000000000000000000100010010000000000000000000000F0010000008467600320160411000101 00000000000000000000000000000000000000000000000000000000000000000000000000000000000000000000000000000000000000000N 00000000000NCONT   00    00000000000          00000000000000000000000000000000000000000000 000000000000000A000000000000000000000000000000000000000000000 000000000000000000000000000000000000000     00000000                                                                                                                        000000000000000000
F0010000008467600004000090060531100023658300000000000000000201604110002001RECUBRIMIENTOS ESENCIALES SAS                     C000000000151200000000000000000000100010010000000000000000000000F0010000008467600420160411000101 00000000000000000000000000000000000000000000000000000000000000000000000000000000000000000000000000000000000000000N 00000000000NCONT   00    00000000000          00000000000000000000000000000000000000000000 000000000000000A000000000000000000000000000000000000000000000 000000000000000000000000000000000000000     00000000                                                                                                                        000000000000000000
F0010000008467600005000090060531100013552100000000000000000201604110002001RECUBRIMIENTOS ESENCIALES SAS                     D000000000151200000000000000000000100010010000000000000000000000F0010000008467600520160411000101 00000000000000000000000000000000000000000000000000000000000000000000000000000000000000000000000000000000000000000N 00000000000NCONT   00    00000000000          00000000000000000000000000000000000000000000 000000000000000A000000000000000000000000000000000000000000000 000000000000000000000000000000000000000     00000000                                                                                                                        000000000000000000
F0010000008467700001000090085938800013050500000000000000000201604110002001COALUM COSTA ATLANTICA SAS                        D000000018400000000000000000000000100010010000000000000000000000F0010000008467700120160411000101 00000000000000000000000000000000000000000000000000000000000000000000000000000000000000000000000000000000000000000N 00000000000NCONT   00    00000000000          00000000000000000000000000000000000000000000 000000000000000A000000000000000000000000000000000000000000000 000000000000000000000000000000000000000     00000000                                                                                                                        000000000000000000
F0010000008467700002000090085938800041450500000000000000000201604110002001COALUM COSTA ATLANTICA SAS                        C000000015000000000000000000000000100010010000000000000000000000F0010000008467700220160411000101 00000000000000000000000000000000000000000000000000000000000000000000000000000000000000000000000000000000000000000N 00000000000NCONT   00    00000000000          00000000000000000000000000000000000000000000 000000000000000A000000000000000000000000000000000000000000000 000000000000000000000000000000000000000     00000000                                                                                                                        000000000000000000
F0010000008467700003000090085938800042505000000000000000000201604110002001COALUM COSTA ATLANTICA SAS                        C000000003400000000000000000000000100010010000000000000000000000F0010000008467700320160411000101 00000000000000000000000000000000000000000000000000000000000000000000000000000000000000000000000000000000000000000N 00000000000NCONT   00    00000000000          00000000000000000000000000000000000000000000 000000000000000A000000000000000000000000000000000000000000000 000000000000000000000000000000000000000     00000000                                                                                                                        000000000000000000
F0010000008467700004000090085938800023658300000000000000000201604110002001COALUM COSTA ATLANTICA SAS                        C000000000120000000000000000000000100010010000000000000000000000F0010000008467700420160411000101 00000000000000000000000000000000000000000000000000000000000000000000000000000000000000000000000000000000000000000N 00000000000NCONT   00    00000000000          00000000000000000000000000000000000000000000 000000000000000A000000000000000000000000000000000000000000000 000000000000000000000000000000000000000     00000000                                                                                                                        000000000000000000
F0010000008467700005000090085938800013552100000000000000000201604110002001COALUM COSTA ATLANTICA SAS                        D000000000120000000000000000000000100010010000000000000000000000F0010000008467700520160411000101 00000000000000000000000000000000000000000000000000000000000000000000000000000000000000000000000000000000000000000N 00000000000NCONT   00    00000000000          00000000000000000000000000000000000000000000 000000000000000A000000000000000000000000000000000000000000000 000000000000000000000000000000000000000     00000000                                                                                                                        000000000000000000
F0010000008467800001000090009800500013050500000000000000000201604110002001GLORIANT CHEMICAL DE COLOMBIA LTDA                D000000024878000000000000000000000100010010000000000000000000000F0010000008467800120160411000101 00000000000000000000000000000000000000000000000000000000000000000000000000000000000000000000000000000000000000000N 00000000000NCONT   00    00000000000          00000000000000000000000000000000000000000000 000000000000000A000000000000000000000000000000000000000000000 000000000000000000000000000000000000000     00000000                                                                                                                        000000000000000000
F0010000008467800002000090009800500041450500000000000000000201604110002001GLORIANT CHEMICAL DE COLOMBIA LTDA                C000000020060000000000000000000000100010010000000000000000000000F0010000008467800220160411000101 00000000000000000000000000000000000000000000000000000000000000000000000000000000000000000000000000000000000000000N 00000000000NCONT   00    00000000000          00000000000000000000000000000000000000000000 000000000000000A000000000000000000000000000000000000000000000 000000000000000000000000000000000000000     00000000                                                                                                                        000000000000000000
F0010000008467800003000090009800500042505000000000000000000201604110002001GLORIANT CHEMICAL DE COLOMBIA LTDA                C000000004818000000000000000000000100010010000000000000000000000F0010000008467800320160411000101 00000000000000000000000000000000000000000000000000000000000000000000000000000000000000000000000000000000000000000N 00000000000NCONT   00    00000000000          00000000000000000000000000000000000000000000 000000000000000A000000000000000000000000000000000000000000000 000000000000000000000000000000000000000     00000000                                                                                                                        000000000000000000
F0010000008467800004000090009800500023658300000000000000000201604110002001GLORIANT CHEMICAL DE COLOMBIA LTDA                C000000000160500000000000000000000100010010000000000000000000000F0010000008467800420160411000101 00000000000000000000000000000000000000000000000000000000000000000000000000000000000000000000000000000000000000000N 00000000000NCONT   00    00000000000          00000000000000000000000000000000000000000000 000000000000000A000000000000000000000000000000000000000000000 000000000000000000000000000000000000000     00000000                                                                                                                        000000000000000000
F0010000008467800005000090009800500013552100000000000000000201604110002001GLORIANT CHEMICAL DE COLOMBIA LTDA                D000000000160500000000000000000000100010010000000000000000000000F0010000008467800520160411000101 00000000000000000000000000000000000000000000000000000000000000000000000000000000000000000000000000000000000000000N 00000000000NCONT   00    00000000000          00000000000000000000000000000000000000000000 000000000000000A000000000000000000000000000000000000000000000 000000000000000000000000000000000000000     00000000                                                                                                                        000000000000000000
F0010000008467900001000080200608400013050500000000000000000201604110002001HIT DISTRIBUCIONES SAS                            D000000006200000000000000000000000100010010000000000000000000000F0010000008467900120160411000101 00000000000000000000000000000000000000000000000000000000000000000000000000000000000000000000000000000000000000000N 00000000000NCONT   00    00000000000          00000000000000000000000000000000000000000000 000000000000000A000000000000000000000000000000000000000000000 000000000000000000000000000000000000000     00000000                                                                                                                        000000000000000000
F0010000008467900002000080200608400041450500000000000000000201604110002001HIT DISTRIBUCIONES SAS                            C000000005400000000000000000000000100010010000000000000000000000F0010000008467900220160411000101 00000000000000000000000000000000000000000000000000000000000000000000000000000000000000000000000000000000000000000N 00000000000NCONT   00    00000000000          00000000000000000000000000000000000000000000 000000000000000A000000000000000000000000000000000000000000000 000000000000000000000000000000000000000     00000000                                                                                                                        000000000000000000
F0010000008467900003000080200608400042505000000000000000000201604110002001HIT DISTRIBUCIONES SAS                            C000000000800000000000000000000000100010010000000000000000000000F0010000008467900320160411000101 00000000000000000000000000000000000000000000000000000000000000000000000000000000000000000000000000000000000000000N 00000000000NCONT   00    00000000000          00000000000000000000000000000000000000000000 000000000000000A000000000000000000000000000000000000000000000 000000000000000000000000000000000000000     00000000                                                                                                                        000000000000000000
F0010000008467900004000080200608400023658300000000000000000201604110002001HIT DISTRIBUCIONES SAS                            C000000000043200000000000000000000100010010000000000000000000000F0010000008467900420160411000101 00000000000000000000000000000000000000000000000000000000000000000000000000000000000000000000000000000000000000000N 00000000000NCONT   00    00000000000          00000000000000000000000000000000000000000000 000000000000000A000000000000000000000000000000000000000000000 000000000000000000000000000000000000000     00000000                                                                                                                        000000000000000000
F0010000008467900005000080200608400013552100000000000000000201604110002001HIT DISTRIBUCIONES SAS                            D000000000043200000000000000000000100010010000000000000000000000F0010000008467900520160411000101 00000000000000000000000000000000000000000000000000000000000000000000000000000000000000000000000000000000000000000N 00000000000NCONT   00    00000000000          00000000000000000000000000000000000000000000 000000000000000A000000000000000000000000000000000000000000000 000000000000000000000000000000000000000     00000000                                                                                                                        000000000000000000
F0010000008468000001000090059316900013050500000000000000000201604110002001DISTRIBUCIONES Y REPRESENTACIONES MANA            D000000018128000000000000000000000100010010000000000000000000000F0010000008468000120160411000101 00000000000000000000000000000000000000000000000000000000000000000000000000000000000000000000000000000000000000000N 00000000000NCONT   00    00000000000          00000000000000000000000000000000000000000000 000000000000000A000000000000000000000000000000000000000000000 000000000000000000000000000000000000000     00000000                                                                                                                        000000000000000000
F0010000008468000002000090059316900041450500000000000000000201604110002001DISTRIBUCIONES Y REPRESENTACIONES MANA            C000000014373000000000000000000000100010010000000000000000000000F0010000008468000220160411000101 00000000000000000000000000000000000000000000000000000000000000000000000000000000000000000000000000000000000000000N 00000000000NCONT   00    00000000000          00000000000000000000000000000000000000000000 000000000000000A000000000000000000000000000000000000000000000 000000000000000000000000000000000000000     00000000                                                                                                                        000000000000000000
F0010000008468000003000090059316900042505000000000000000000201604110002001DISTRIBUCIONES Y REPRESENTACIONES MANA            C000000003755000000000000000000000100010010000000000000000000000F0010000008468000320160411000101 00000000000000000000000000000000000000000000000000000000000000000000000000000000000000000000000000000000000000000N 00000000000NCONT   00    00000000000          00000000000000000000000000000000000000000000 000000000000000A000000000000000000000000000000000000000000000 000000000000000000000000000000000000000     00000000                                                                                                                        000000000000000000
F0010000008468000004000090059316900023658300000000000000000201604110002001DISTRIBUCIONES Y REPRESENTACIONES MANA            C000000000115000000000000000000000100010010000000000000000000000F0010000008468000420160411000101 00000000000000000000000000000000000000000000000000000000000000000000000000000000000000000000000000000000000000000N 00000000000NCONT   00    00000000000          00000000000000000000000000000000000000000000 000000000000000A000000000000000000000000000000000000000000000 000000000000000000000000000000000000000     00000000                                                                                                                        000000000000000000
F0010000008468000005000090059316900013552100000000000000000201604110002001DISTRIBUCIONES Y REPRESENTACIONES MANA            D000000000115000000000000000000000100010010000000000000000000000F0010000008468000520160411000101 00000000000000000000000000000000000000000000000000000000000000000000000000000000000000000000000000000000000000000N 00000000000NCONT   00    00000000000          00000000000000000000000000000000000000000000 000000000000000A000000000000000000000000000000000000000000000 000000000000000000000000000000000000000     00000000                                                                                                                        000000000000000000
F0010000008468100001000080016664500013050500000000000000000201604110002001TELAPLAS PANCER SAS                               D000000020314000000000000000000000100010010000000000000000000000F0010000008468100120160411000101 00000000000000000000000000000000000000000000000000000000000000000000000000000000000000000000000000000000000000000N 00000000000NCONT   00    00000000000          00000000000000000000000000000000000000000000 000000000000000A000000000000000000000000000000000000000000000 000000000000000000000000000000000000000     00000000                                                                                                                        000000000000000000
F0010000008468100002000080016664500041450500000000000000000201604110002001TELAPLAS PANCER SAS                               C000000015700000000000000000000000100010010000000000000000000000F0010000008468100220160411000101 00000000000000000000000000000000000000000000000000000000000000000000000000000000000000000000000000000000000000000N 00000000000NCONT   00    00000000000          00000000000000000000000000000000000000000000 000000000000000A000000000000000000000000000000000000000000000 000000000000000000000000000000000000000     00000000                                                                                                                        000000000000000000
F0010000008468100003000080016664500042505000000000000000000201604110002001TELAPLAS PANCER SAS                               C000000004614000000000000000000000100010010000000000000000000000F0010000008468100320160411000101 00000000000000000000000000000000000000000000000000000000000000000000000000000000000000000000000000000000000000000N 00000000000NCONT   00    00000000000          00000000000000000000000000000000000000000000 000000000000000A000000000000000000000000000000000000000000000 000000000000000000000000000000000000000     00000000                                                                                                                        000000000000000000
F0010000008468100004000080016664500023658300000000000000000201604110002001TELAPLAS PANCER SAS                               C000000000125600000000000000000000100010010000000000000000000000F0010000008468100420160411000101 00000000000000000000000000000000000000000000000000000000000000000000000000000000000000000000000000000000000000000N 00000000000NCONT   00    00000000000          00000000000000000000000000000000000000000000 000000000000000A000000000000000000000000000000000000000000000 000000000000000000000000000000000000000     00000000                                                                                                                        000000000000000000
F0010000008468100005000080016664500013552100000000000000000201604110002001TELAPLAS PANCER SAS                               D000000000125600000000000000000000100010010000000000000000000000F0010000008468100520160411000101 00000000000000000000000000000000000000000000000000000000000000000000000000000000000000000000000000000000000000000N 00000000000NCONT   00    00000000000          00000000000000000000000000000000000000000000 000000000000000A000000000000000000000000000000000000000000000 000000000000000000000000000000000000000     00000000                                                                                                                        000000000000000000
F0010000008468200001000089010260300013050500000000000000000201604110002001FEDERICO OSORIO A. S.A.                           D000000095732900000000000000000000100010010000000000000000000000F0010000008468200120160411000101 00000000000000000000000000000000000000000000000000000000000000000000000000000000000000000000000000000000000000000N 00000000000NCONT   00    00000000000          00000000000000000000000000000000000000000000 000000000000000A000000000000000000000000000000000000000000000 000000000000000000000000000000000000000     00000000                                                                                                                        000000000000000000
F0010000008468200002000089010260300041450500000000000000000201604110002001FEDERICO OSORIO A. S.A.                           C000000086950000000000000000000000100010010000000000000000000000F0010000008468200220160411000101 00000000000000000000000000000000000000000000000000000000000000000000000000000000000000000000000000000000000000000N 00000000000NCONT   00    00000000000          00000000000000000000000000000000000000000000 000000000000000A000000000000000000000000000000000000000000000 000000000000000000000000000000000000000     00000000                                                                                                                        000000000000000000
F0010000008468200003000089010260300042505000000000000000000201604110002001FEDERICO OSORIO A. S.A.                           C000000008782900000000000000000000100010010000000000000000000000F0010000008468200320160411000101 00000000000000000000000000000000000000000000000000000000000000000000000000000000000000000000000000000000000000000N 00000000000NCONT   00    00000000000          00000000000000000000000000000000000000000000 000000000000000A000000000000000000000000000000000000000000000 000000000000000000000000000000000000000     00000000                                                                                                                        000000000000000000
F0010000008468200004000089010260300023658300000000000000000201604110002001FEDERICO OSORIO A. S.A.                           C000000000695600000000000000000000100010010000000000000000000000F0010000008468200420160411000101 00000000000000000000000000000000000000000000000000000000000000000000000000000000000000000000000000000000000000000N 00000000000NCONT   00    00000000000          00000000000000000000000000000000000000000000 000000000000000A000000000000000000000000000000000000000000000 000000000000000000000000000000000000000     00000000                                                                                                                        000000000000000000
F0010000008468200005000089010260300013552100000000000000000201604110002001FEDERICO OSORIO A. S.A.                           D000000000695600000000000000000000100010010000000000000000000000F0010000008468200520160411000101 00000000000000000000000000000000000000000000000000000000000000000000000000000000000000000000000000000000000000000N 00000000000NCONT   00    00000000000          00000000000000000000000000000000000000000000 000000000000000A000000000000000000000000000000000000000000000 000000000000000000000000000000000000000     00000000                                                                                                                        000000000000000000
F0010000008468300001000089010260300013050500000000000000000201604110002001FEDERICO OSORIO A. S.A.                           D000000044296200000000000000000000100010010000000000000000000000F0010000008468300120160411000101 00000000000000000000000000000000000000000000000000000000000000000000000000000000000000000000000000000000000000000N 00000000000NCONT   00    00000000000          00000000000000000000000000000000000000000000 000000000000000A000000000000000000000000000000000000000000000 000000000000000000000000000000000000000     00000000                                                                                                                        000000000000000000
F0010000008468300002000089010260300041450500000000000000000201604110002001FEDERICO OSORIO A. S.A.                           C000000042350000000000000000000000100010010000000000000000000000F0010000008468300220160411000101 00000000000000000000000000000000000000000000000000000000000000000000000000000000000000000000000000000000000000000N 00000000000NCONT   00    00000000000          00000000000000000000000000000000000000000000 000000000000000A000000000000000000000000000000000000000000000 000000000000000000000000000000000000000     00000000                                                                                                                        000000000000000000
F0010000008468300003000089010260300042505000000000000000000201604110002001FEDERICO OSORIO A. S.A.                           C000000001946200000000000000000000100010010000000000000000000000F0010000008468300320160411000101 00000000000000000000000000000000000000000000000000000000000000000000000000000000000000000000000000000000000000000N 00000000000NCONT   00    00000000000          00000000000000000000000000000000000000000000 000000000000000A000000000000000000000000000000000000000000000 000000000000000000000000000000000000000     00000000                                                                                                                        000000000000000000
F0010000008468300004000089010260300023658300000000000000000201604110002001FEDERICO OSORIO A. S.A.                           C000000000338800000000000000000000100010010000000000000000000000F0010000008468300420160411000101 00000000000000000000000000000000000000000000000000000000000000000000000000000000000000000000000000000000000000000N 00000000000NCONT   00    00000000000          00000000000000000000000000000000000000000000 000000000000000A000000000000000000000000000000000000000000000 000000000000000000000000000000000000000     00000000                                                                                                                        000000000000000000
F0010000008468300005000089010260300013552100000000000000000201604110002001FEDERICO OSORIO A. S.A.                           D000000000338800000000000000000000100010010000000000000000000000F0010000008468300520160411000101 00000000000000000000000000000000000000000000000000000000000000000000000000000000000000000000000000000000000000000N 00000000000NCONT   00    00000000000          00000000000000000000000000000000000000000000 000000000000000A000000000000000000000000000000000000000000000 000000000000000000000000000000000000000     00000000                                                                                                                        000000000000000000
F0010000008468400001000090064982900013050500000000000000000201604110002001DISDIES S.A.S                                     D000000070108000000000000000000000100010010000000000000000000000F0010000008468400120160411000101 00000000000000000000000000000000000000000000000000000000000000000000000000000000000000000000000000000000000000000N 00000000000NCONT   00    00000000000          00000000000000000000000000000000000000000000 000000000000000A000000000000000000000000000000000000000000000 000000000000000000000000000000000000000     00000000                                                                                                                        000000000000000000
F0010000008468400002000090064982900041450500000000000000000201604110002001DISDIES S.A.S                                     C000000060999600000000000000000000100010010000000000000000000000F0010000008468400220160411000101 00000000000000000000000000000000000000000000000000000000000000000000000000000000000000000000000000000000000000000N 00000000000NCONT   00    00000000000          00000000000000000000000000000000000000000000 000000000000000A000000000000000000000000000000000000000000000 000000000000000000000000000000000000000     00000000                                                                                                                        000000000000000000
F0010000008468400003000090064982900042505000000000000000000201604110002001DISDIES S.A.S                                     C000000009108400000000000000000000100010010000000000000000000000F0010000008468400320160411000101 00000000000000000000000000000000000000000000000000000000000000000000000000000000000000000000000000000000000000000N 00000000000NCONT   00    00000000000          00000000000000000000000000000000000000000000 000000000000000A000000000000000000000000000000000000000000000 000000000000000000000000000000000000000     00000000                                                                                                                        000000000000000000
F0010000008468400004000090064982900023658300000000000000000201604110002001DISDIES S.A.S                                     C000000000488000000000000000000000100010010000000000000000000000F0010000008468400420160411000101 00000000000000000000000000000000000000000000000000000000000000000000000000000000000000000000000000000000000000000N 00000000000NCONT   00    00000000000          00000000000000000000000000000000000000000000 000000000000000A000000000000000000000000000000000000000000000 000000000000000000000000000000000000000     00000000                                                                                                                        000000000000000000
F0010000008468400005000090064982900013552100000000000000000201604110002001DISDIES S.A.S                                     D000000000488000000000000000000000100010010000000000000000000000F0010000008468400520160411000101 00000000000000000000000000000000000000000000000000000000000000000000000000000000000000000000000000000000000000000N 00000000000NCONT   00    00000000000          00000000000000000000000000000000000000000000 000000000000000A000000000000000000000000000000000000000000000 000000000000000000000000000000000000000     00000000                                                                                                                        000000000000000000
F0010000008468500001000000748239700013050500000000000000000201604110002001RAFAEL NAVARRO URIBE                              D000000102594800000000000000000000100010010000000000000000000000F0010000008468500120160411000101 00000000000000000000000000000000000000000000000000000000000000000000000000000000000000000000000000000000000000000N 00000000000NCONT   00    00000000000          00000000000000000000000000000000000000000000 000000000000000A000000000000000000000000000000000000000000000 000000000000000000000000000000000000000     00000000                                                                                                                        000000000000000000
F0010000008468500002000000748239700041450500000000000000000201604110002001RAFAEL NAVARRO URIBE                              C000000077780000000000000000000000100010010000000000000000000000F0010000008468500220160411000101 00000000000000000000000000000000000000000000000000000000000000000000000000000000000000000000000000000000000000000N 00000000000NCONT   00    00000000000          00000000000000000000000000000000000000000000 000000000000000A000000000000000000000000000000000000000000000 000000000000000000000000000000000000000     00000000                                                                                                                        000000000000000000
F0010000008468500003000000748239700042505000000000000000000201604110002001RAFAEL NAVARRO URIBE                              C000000024814800000000000000000000100010010000000000000000000000F0010000008468500320160411000101 00000000000000000000000000000000000000000000000000000000000000000000000000000000000000000000000000000000000000000N 00000000000NCONT   00    00000000000          00000000000000000000000000000000000000000000 000000000000000A000000000000000000000000000000000000000000000 000000000000000000000000000000000000000     00000000                                                                                                                        000000000000000000
F0010000008468500004000000748239700023658300000000000000000201604110002001RAFAEL NAVARRO URIBE                              C000000000622200000000000000000000100010010000000000000000000000F0010000008468500420160411000101 00000000000000000000000000000000000000000000000000000000000000000000000000000000000000000000000000000000000000000N 00000000000NCONT   00    00000000000          00000000000000000000000000000000000000000000 000000000000000A000000000000000000000000000000000000000000000 000000000000000000000000000000000000000     00000000                                                                                                                        000000000000000000
F0010000008468500005000000748239700013552100000000000000000201604110002001RAFAEL NAVARRO URIBE                              D000000000622200000000000000000000100010010000000000000000000000F0010000008468500520160411000101 00000000000000000000000000000000000000000000000000000000000000000000000000000000000000000000000000000000000000000N 00000000000NCONT   00    00000000000          00000000000000000000000000000000000000000000 000000000000000A000000000000000000000000000000000000000000000 000000000000000000000000000000000000000     00000000                                                                                                                        000000000000000000
F0010000008468600001000090008711200013050500000000000000000201604110002001PACKAGING SUPPLIERS S.A.                          D000000033094000000000000000000000100010010000000000000000000000F0010000008468600120160411000101 00000000000000000000000000000000000000000000000000000000000000000000000000000000000000000000000000000000000000000N 00000000000NCONT   00    00000000000          00000000000000000000000000000000000000000000 000000000000000A000000000000000000000000000000000000000000000 000000000000000000000000000000000000000     00000000                                                                                                                        000000000000000000
F0010000008468600002000090008711200041450500000000000000000201604110002001PACKAGING SUPPLIERS S.A.                          C000000029335500000000000000000000100010010000000000000000000000F0010000008468600220160411000101 00000000000000000000000000000000000000000000000000000000000000000000000000000000000000000000000000000000000000000N 00000000000NCONT   00    00000000000          00000000000000000000000000000000000000000000 000000000000000A000000000000000000000000000000000000000000000 000000000000000000000000000000000000000     00000000                                                                                                                        000000000000000000
F0010000008468600003000090008711200042505000000000000000000201604110002001PACKAGING SUPPLIERS S.A.                          C000000003758500000000000000000000100010010000000000000000000000F0010000008468600320160411000101 00000000000000000000000000000000000000000000000000000000000000000000000000000000000000000000000000000000000000000N 00000000000NCONT   00    00000000000          00000000000000000000000000000000000000000000 000000000000000A000000000000000000000000000000000000000000000 000000000000000000000000000000000000000     00000000                                                                                                                        000000000000000000
F0010000008468600004000090008711200023658300000000000000000201604110002001PACKAGING SUPPLIERS S.A.                          C000000000234700000000000000000000100010010000000000000000000000F0010000008468600420160411000101 00000000000000000000000000000000000000000000000000000000000000000000000000000000000000000000000000000000000000000N 00000000000NCONT   00    00000000000          00000000000000000000000000000000000000000000 000000000000000A000000000000000000000000000000000000000000000 000000000000000000000000000000000000000     00000000                                                                                                                        000000000000000000
F0010000008468600005000090008711200013552100000000000000000201604110002001PACKAGING SUPPLIERS S.A.                          D000000000234700000000000000000000100010010000000000000000000000F0010000008468600520160411000101 00000000000000000000000000000000000000000000000000000000000000000000000000000000000000000000000000000000000000000N 00000000000NCONT   00    00000000000          00000000000000000000000000000000000000000000 000000000000000A000000000000000000000000000000000000000000000 000000000000000000000000000000000000000     00000000                                                                                                                        000000000000000000
F0010000008468800001000083001155300013050500000000000000000201604110002001COMERCIALIZADORA RUBEN S LTDA                     D000000027953200000000000000000000100010010000000000000000000000F0010000008468800120160411000101 00000000000000000000000000000000000000000000000000000000000000000000000000000000000000000000000000000000000000000N 00000000000NCONT   00    00000000000          00000000000000000000000000000000000000000000 000000000000000A000000000000000000000000000000000000000000000 000000000000000000000000000000000000000     00000000                                                                                                                        000000000000000000
F0010000008468800002000083001155300041450500000000000000000201604110002001COMERCIALIZADORA RUBEN S LTDA                     C000000022548500000000000000000000100010010000000000000000000000F0010000008468800220160411000101 00000000000000000000000000000000000000000000000000000000000000000000000000000000000000000000000000000000000000000N 00000000000NCONT   00    00000000000          00000000000000000000000000000000000000000000 000000000000000A000000000000000000000000000000000000000000000 000000000000000000000000000000000000000     00000000                                                                                                                        000000000000000000
F0010000008468800003000083001155300042505000000000000000000201604110002001COMERCIALIZADORA RUBEN S LTDA                     C000000005404700000000000000000000100010010000000000000000000000F0010000008468800320160411000101 00000000000000000000000000000000000000000000000000000000000000000000000000000000000000000000000000000000000000000N 00000000000NCONT   00    00000000000          00000000000000000000000000000000000000000000 000000000000000A000000000000000000000000000000000000000000000 000000000000000000000000000000000000000     00000000                                                                                                                        000000000000000000
F0010000008468800004000083001155300023658300000000000000000201604110002001COMERCIALIZADORA RUBEN S LTDA                     C000000000180400000000000000000000100010010000000000000000000000F0010000008468800420160411000101 00000000000000000000000000000000000000000000000000000000000000000000000000000000000000000000000000000000000000000N 00000000000NCONT   00    00000000000          00000000000000000000000000000000000000000000 000000000000000A000000000000000000000000000000000000000000000 000000000000000000000000000000000000000     00000000                                                                                                                        000000000000000000
F0010000008468800005000083001155300013552100000000000000000201604110002001COMERCIALIZADORA RUBEN S LTDA                     D000000000180400000000000000000000100010010000000000000000000000F0010000008468800520160411000101 00000000000000000000000000000000000000000000000000000000000000000000000000000000000000000000000000000000000000000N 00000000000NCONT   00    00000000000          00000000000000000000000000000000000000000000 000000000000000A000000000000000000000000000000000000000000000 000000000000000000000000000000000000000     00000000                                                                                                                        000000000000000000
F0010000008468900001000090049854300013050500000000000000000201604110002001TRAPOS INDUSTRIALES DE COLOMBIA SAS               D000000300074800000000000000000000100010010000000000000000000000F0010000008468900120160411000101 00000000000000000000000000000000000000000000000000000000000000000000000000000000000000000000000000000000000000000N 00000000000NCONT   00    00000000000          00000000000000000000000000000000000000000000 000000000000000A000000000000000000000000000000000000000000000 000000000000000000000000000000000000000     00000000                                                                                                                        000000000000000000
F0010000008468900002000090049854300041450500000000000000000201604110002001TRAPOS INDUSTRIALES DE COLOMBIA SAS               C000000284600000000000000000000000100010010000000000000000000000F0010000008468900220160411000101 00000000000000000000000000000000000000000000000000000000000000000000000000000000000000000000000000000000000000000N 00000000000NCONT   00    00000000000          00000000000000000000000000000000000000000000 000000000000000A000000000000000000000000000000000000000000000 000000000000000000000000000000000000000     00000000                                                                                                                        000000000000000000
F0010000008468900003000090049854300042505000000000000000000201604110002001TRAPOS INDUSTRIALES DE COLOMBIA SAS               C000000015474800000000000000000000100010010000000000000000000000F0010000008468900320160411000101 00000000000000000000000000000000000000000000000000000000000000000000000000000000000000000000000000000000000000000N 00000000000NCONT   00    00000000000          00000000000000000000000000000000000000000000 000000000000000A000000000000000000000000000000000000000000000 000000000000000000000000000000000000000     00000000                                                                                                                        000000000000000000
F0010000008468900004000090049854300023658300000000000000000201604110002001TRAPOS INDUSTRIALES DE COLOMBIA SAS               C000000002276800000000000000000000100010010000000000000000000000F0010000008468900420160411000101 00000000000000000000000000000000000000000000000000000000000000000000000000000000000000000000000000000000000000000N 00000000000NCONT   00    00000000000          00000000000000000000000000000000000000000000 000000000000000A000000000000000000000000000000000000000000000 000000000000000000000000000000000000000     00000000                                                                                                                        000000000000000000
F0010000008468900005000090049854300013552100000000000000000201604110002001TRAPOS INDUSTRIALES DE COLOMBIA SAS               D000000002276800000000000000000000100010010000000000000000000000F0010000008468900520160411000101 00000000000000000000000000000000000000000000000000000000000000000000000000000000000000000000000000000000000000000N 00000000000NCONT   00    00000000000          00000000000000000000000000000000000000000000 000000000000000A000000000000000000000000000000000000000000000 000000000000000000000000000000000000000     00000000                                                                                                                        000000000000000000
F0010000008469000001000080002300200013050500000000000000000201604110002001DISREL S.A.                                       D000000017250000000000000000000000100010010000000000000000000000F0010000008469000120160411000101 00000000000000000000000000000000000000000000000000000000000000000000000000000000000000000000000000000000000000000N 00000000000NCONT   00    00000000000          00000000000000000000000000000000000000000000 000000000000000A000000000000000000000000000000000000000000000 000000000000000000000000000000000000000     00000000                                                                                                                        000000000000000000
F0010000008469000002000080002300200041450500000000000000000201604110002001DISREL S.A.                                       C000000013800000000000000000000000100010010000000000000000000000F0010000008469000220160411000101 00000000000000000000000000000000000000000000000000000000000000000000000000000000000000000000000000000000000000000N 00000000000NCONT   00    00000000000          00000000000000000000000000000000000000000000 000000000000000A000000000000000000000000000000000000000000000 000000000000000000000000000000000000000     00000000                                                                                                                        000000000000000000
F0010000008469000003000080002300200042505000000000000000000201604110002001DISREL S.A.                                       C000000003450000000000000000000000100010010000000000000000000000F0010000008469000320160411000101 00000000000000000000000000000000000000000000000000000000000000000000000000000000000000000000000000000000000000000N 00000000000NCONT   00    00000000000          00000000000000000000000000000000000000000000 000000000000000A000000000000000000000000000000000000000000000 000000000000000000000000000000000000000     00000000                                                                                                                        000000000000000000
F0010000008469000004000080002300200023658300000000000000000201604110002001DISREL S.A.                                       C000000000110400000000000000000000100010010000000000000000000000F0010000008469000420160411000101 00000000000000000000000000000000000000000000000000000000000000000000000000000000000000000000000000000000000000000N 00000000000NCONT   00    00000000000          00000000000000000000000000000000000000000000 000000000000000A000000000000000000000000000000000000000000000 000000000000000000000000000000000000000     00000000                                                                                                                        000000000000000000
F0010000008469000005000080002300200013552100000000000000000201604110002001DISREL S.A.                                       D000000000110400000000000000000000100010010000000000000000000000F0010000008469000520160411000101 00000000000000000000000000000000000000000000000000000000000000000000000000000000000000000000000000000000000000000N 00000000000NCONT   00    00000000000          00000000000000000000000000000000000000000000 000000000000000A000000000000000000000000000000000000000000000 000000000000000000000000000000000000000     00000000                                                                                                                        000000000000000000
F0010000008469100001000090035510100013050500000000000000000201604110002001GRAINGER COLOMBIA S.A.S.                          D000000060066900000000000000000000100010010000000000000000000000F0010000008469100120160411000101 00000000000000000000000000000000000000000000000000000000000000000000000000000000000000000000000000000000000000000N 00000000000NCONT   00    00000000000          00000000000000000000000000000000000000000000 000000000000000A000000000000000000000000000000000000000000000 000000000000000000000000000000000000000     00000000                                                                                                                        000000000000000000
F0010000008469100002000090035510100041450500000000000000000201604110002001GRAINGER COLOMBIA S.A.S.                          C000000037622000000000000000000000100010010000000000000000000000F0010000008469100220160411000101 00000000000000000000000000000000000000000000000000000000000000000000000000000000000000000000000000000000000000000N 00000000000NCONT   00    00000000000          00000000000000000000000000000000000000000000 000000000000000A000000000000000000000000000000000000000000000 000000000000000000000000000000000000000     00000000                                                                                                                        000000000000000000
F0010000008469100003000090035510100042505000000000000000000201604110002001GRAINGER COLOMBIA S.A.S.                          C000000022444900000000000000000000100010010000000000000000000000F0010000008469100320160411000101 00000000000000000000000000000000000000000000000000000000000000000000000000000000000000000000000000000000000000000N 00000000000NCONT   00    00000000000          00000000000000000000000000000000000000000000 000000000000000A000000000000000000000000000000000000000000000 000000000000000000000000000000000000000     00000000                                                                                                                        000000000000000000
F0010000008469100004000090035510100023658300000000000000000201604110002001GRAINGER COLOMBIA S.A.S.                          C000000000301000000000000000000000100010010000000000000000000000F0010000008469100420160411000101 00000000000000000000000000000000000000000000000000000000000000000000000000000000000000000000000000000000000000000N 00000000000NCONT   00    00000000000          00000000000000000000000000000000000000000000 000000000000000A000000000000000000000000000000000000000000000 000000000000000000000000000000000000000     00000000                                                                                                                        000000000000000000
F0010000008469100005000090035510100013552100000000000000000201604110002001GRAINGER COLOMBIA S.A.S.                          D000000000301000000000000000000000100010010000000000000000000000F0010000008469100520160411000101 00000000000000000000000000000000000000000000000000000000000000000000000000000000000000000000000000000000000000000N 00000000000NCONT   00    00000000000          00000000000000000000000000000000000000000000 000000000000000A000000000000000000000000000000000000000000000 000000000000000000000000000000000000000     00000000                                                                                                                        000000000000000000
F0010000008469200001000080022903500013050500000000000000000201604110002001TECNOGLASS S.A                                    D000000125289200000000000000000000100010010000000000000000000000F0010000008469200120160411000101 00000000000000000000000000000000000000000000000000000000000000000000000000000000000000000000000000000000000000000N 00000000000NCONT   00    00000000000          00000000000000000000000000000000000000000000 000000000000000A000000000000000000000000000000000000000000000 000000000000000000000000000000000000000     00000000                                                                                                                        000000000000000000
F0010000008469200002000080022903500041450500000000000000000201604110002001TECNOGLASS S.A                                    C000000114650000000000000000000000100010010000000000000000000000F0010000008469200220160411000101 00000000000000000000000000000000000000000000000000000000000000000000000000000000000000000000000000000000000000000N 00000000000NCONT   00    00000000000          00000000000000000000000000000000000000000000 000000000000000A000000000000000000000000000000000000000000000 000000000000000000000000000000000000000     00000000                                                                                                                        000000000000000000
F0010000008469200003000080022903500042505000000000000000000201604110002001TECNOGLASS S.A                                    C000000010639200000000000000000000100010010000000000000000000000F0010000008469200320160411000101 00000000000000000000000000000000000000000000000000000000000000000000000000000000000000000000000000000000000000000N 00000000000NCONT   00    00000000000          00000000000000000000000000000000000000000000 000000000000000A000000000000000000000000000000000000000000000 000000000000000000000000000000000000000     00000000                                                                                                                        000000000000000000
F0010000008469200004000080022903500023658300000000000000000201604110002001TECNOGLASS S.A                                    C000000000917200000000000000000000100010010000000000000000000000F0010000008469200420160411000101 00000000000000000000000000000000000000000000000000000000000000000000000000000000000000000000000000000000000000000N 00000000000NCONT   00    00000000000          00000000000000000000000000000000000000000000 000000000000000A000000000000000000000000000000000000000000000 000000000000000000000000000000000000000     00000000                                                                                                                        000000000000000000
F0010000008469200005000080022903500013552100000000000000000201604110002001TECNOGLASS S.A                                    D000000000917200000000000000000000100010010000000000000000000000F0010000008469200520160411000101 00000000000000000000000000000000000000000000000000000000000000000000000000000000000000000000000000000000000000000N 00000000000NCONT   00    00000000000          00000000000000000000000000000000000000000000 000000000000000A000000000000000000000000000000000000000000000 000000000000000000000000000000000000000     00000000                                                                                                                        000000000000000000
F0010000008469300001000080004943800013050500000000000000000201604110002001PAPELERIA EL CID S.A.                             D000000030172500000000000000000000100010010000000000000000000000F0010000008469300120160411000101 00000000000000000000000000000000000000000000000000000000000000000000000000000000000000000000000000000000000000000N 00000000000NCONT   00    00000000000          00000000000000000000000000000000000000000000 000000000000000A000000000000000000000000000000000000000000000 000000000000000000000000000000000000000     00000000                                                                                                                        000000000000000000
F0010000008469300002000080004943800041450500000000000000000201604110002001PAPELERIA EL CID S.A.                             C000000024030000000000000000000000100010010000000000000000000000F0010000008469300220160411000101 00000000000000000000000000000000000000000000000000000000000000000000000000000000000000000000000000000000000000000N 00000000000NCONT   00    00000000000          00000000000000000000000000000000000000000000 000000000000000A000000000000000000000000000000000000000000000 000000000000000000000000000000000000000     00000000                                                                                                                        000000000000000000
F0010000008469300003000080004943800042505000000000000000000201604110002001PAPELERIA EL CID S.A.                             C000000006142500000000000000000000100010010000000000000000000000F0010000008469300320160411000101 00000000000000000000000000000000000000000000000000000000000000000000000000000000000000000000000000000000000000000N 00000000000NCONT   00    00000000000          00000000000000000000000000000000000000000000 000000000000000A000000000000000000000000000000000000000000000 000000000000000000000000000000000000000     00000000                                                                                                                        000000000000000000
F0010000008469300004000080004943800023658300000000000000000201604110002001PAPELERIA EL CID S.A.                             C000000000192200000000000000000000100010010000000000000000000000F0010000008469300420160411000101 00000000000000000000000000000000000000000000000000000000000000000000000000000000000000000000000000000000000000000N 00000000000NCONT   00    00000000000          00000000000000000000000000000000000000000000 000000000000000A000000000000000000000000000000000000000000000 000000000000000000000000000000000000000     00000000                                                                                                                        000000000000000000
F0010000008469300005000080004943800013552100000000000000000201604110002001PAPELERIA EL CID S.A.                             D000000000192200000000000000000000100010010000000000000000000000F0010000008469300520160411000101 00000000000000000000000000000000000000000000000000000000000000000000000000000000000000000000000000000000000000000N 00000000000NCONT   00    00000000000          00000000000000000000000000000000000000000000 000000000000000A000000000000000000000000000000000000000000000 000000000000000000000000000000000000000     00000000                                                                                                                        000000000000000000
F0010000008469400001000080004943800013050500000000000000000201604110002001PAPELERIA EL CID S.A.                             D000000048112500000000000000000000100010010000000000000000000000F0010000008469400120160411000101 00000000000000000000000000000000000000000000000000000000000000000000000000000000000000000000000000000000000000000N 00000000000NCONT   00    00000000000          00000000000000000000000000000000000000000000 000000000000000A000000000000000000000000000000000000000000000 000000000000000000000000000000000000000     00000000                                                                                                                        000000000000000000
F0010000008469400002000080004943800041450500000000000000000201604110002001PAPELERIA EL CID S.A.                             C000000037230000000000000000000000100010010000000000000000000000F0010000008469400220160411000101 00000000000000000000000000000000000000000000000000000000000000000000000000000000000000000000000000000000000000000N 00000000000NCONT   00    00000000000          00000000000000000000000000000000000000000000 000000000000000A000000000000000000000000000000000000000000000 000000000000000000000000000000000000000     00000000                                                                                                                        000000000000000000
