F0010000007012200001000090020547900011050500000000000000000201504110002001DAC DEL CARIBE S.A.S.                             D000000001950000000000000000000000100010010000000000000000000000F0010000007012200120150411000101 00000000000000000000000000000000000000000000000000000000000000000000000000000000000000000000000000000000000000000N 00000000000NCONT   00    00000000000          00000000000000000000000000000000000000000000 000000000000000A000000000000000000000000000000000000000000000 000000000000000000000000000000000000000     00000000                                                                                                                        000000000000000000
F0010000007012200002000090020547900041450500000000000000000201504110002001DAC DEL CARIBE S.A.S.                             C000000001300000000000000000000000100010010000000000000000000000F0010000007012200220150411000101 00000000000000000000000000000000000000000000000000000000000000000000000000000000000000000000000000000000000000000N 00000000000NCONT   00    00000000000          00000000000000000000000000000000000000000000 000000000000000A000000000000000000000000000000000000000000000 000000000000000000000000000000000000000     00000000                                                                                                                        000000000000000000
F0010000007012200003000090020547900042505000000000000000000201504110002001DAC DEL CARIBE S.A.S.                             C000000000650000000000000000000000100010010000000000000000000000F0010000007012200320150411000101 00000000000000000000000000000000000000000000000000000000000000000000000000000000000000000000000000000000000000000N 00000000000NCONT   00    00000000000          00000000000000000000000000000000000000000000 000000000000000A000000000000000000000000000000000000000000000 000000000000000000000000000000000000000     00000000                                                                                                                        000000000000000000
F0010000007012200004000090020547900023658300000000000000000201504110002001DAC DEL CARIBE S.A.S.                             C000000000010400000000000000000000100010010000000000000000000000F0010000007012200420150411000101 00000000000000000000000000000000000000000000000000000000000000000000000000000000000000000000000000000000000000000N 00000000000NCONT   00    00000000000          00000000000000000000000000000000000000000000 000000000000000A000000000000000000000000000000000000000000000 000000000000000000000000000000000000000     00000000                                                                                                                        000000000000000000
F0010000007012200005000090020547900013552100000000000000000201504110002001DAC DEL CARIBE S.A.S.                             D000000000010400000000000000000000100010010000000000000000000000F0010000007012200520150411000101 00000000000000000000000000000000000000000000000000000000000000000000000000000000000000000000000000000000000000000N 00000000000NCONT   00    00000000000          00000000000000000000000000000000000000000000 000000000000000A000000000000000000000000000000000000000000000 000000000000000000000000000000000000000     00000000                                                                                                                        000000000000000000
F0010000007012300001000090020547900011050500000000000000000201504110002001DAC DEL CARIBE S.A.S.                             D000000011000000000000000000000000100010010000000000000000000000F0010000007012300120150411000101 00000000000000000000000000000000000000000000000000000000000000000000000000000000000000000000000000000000000000000N 00000000000NCONT   00    00000000000          00000000000000000000000000000000000000000000 000000000000000A000000000000000000000000000000000000000000000 000000000000000000000000000000000000000     00000000                                                                                                                        000000000000000000
F0010000007012300002000090020547900041450500000000000000000201504110002001DAC DEL CARIBE S.A.S.                             C000000009100000000000000000000000100010010000000000000000000000F0010000007012300220150411000101 00000000000000000000000000000000000000000000000000000000000000000000000000000000000000000000000000000000000000000N 00000000000NCONT   00    00000000000          00000000000000000000000000000000000000000000 000000000000000A000000000000000000000000000000000000000000000 000000000000000000000000000000000000000     00000000                                                                                                                        000000000000000000
F0010000007012300003000090020547900042505000000000000000000201504110002001DAC DEL CARIBE S.A.S.                             C000000001900000000000000000000000100010010000000000000000000000F0010000007012300320150411000101 00000000000000000000000000000000000000000000000000000000000000000000000000000000000000000000000000000000000000000N 00000000000NCONT   00    00000000000          00000000000000000000000000000000000000000000 000000000000000A000000000000000000000000000000000000000000000 000000000000000000000000000000000000000     00000000                                                                                                                        000000000000000000
F0010000007012300004000090020547900023658300000000000000000201504110002001DAC DEL CARIBE S.A.S.                             C000000000072800000000000000000000100010010000000000000000000000F0010000007012300420150411000101 00000000000000000000000000000000000000000000000000000000000000000000000000000000000000000000000000000000000000000N 00000000000NCONT   00    00000000000          00000000000000000000000000000000000000000000 000000000000000A000000000000000000000000000000000000000000000 000000000000000000000000000000000000000     00000000                                                                                                                        000000000000000000
F0010000007012300005000090020547900013552100000000000000000201504110002001DAC DEL CARIBE S.A.S.                             D000000000072800000000000000000000100010010000000000000000000000F0010000007012300520150411000101 00000000000000000000000000000000000000000000000000000000000000000000000000000000000000000000000000000000000000000N 00000000000NCONT   00    00000000000          00000000000000000000000000000000000000000000 000000000000000A000000000000000000000000000000000000000000000 000000000000000000000000000000000000000     00000000                                                                                                                        000000000000000000
F0010000007012400001000083005718600011050500000000000000000201504110002001MUNDIAL DE TORNILLOS S.A.                         D000000010000000000000000000000000100010010000000000000000000000F0010000007012400120150411000101 00000000000000000000000000000000000000000000000000000000000000000000000000000000000000000000000000000000000000000N 00000000000NCONT   00    00000000000          00000000000000000000000000000000000000000000 000000000000000A000000000000000000000000000000000000000000000 000000000000000000000000000000000000000     00000000                                                                                                                        000000000000000000
F0010000007012400002000083005718600041450500000000000000000201504110002001MUNDIAL DE TORNILLOS S.A.                         C000000009500000000000000000000000100010010000000000000000000000F0010000007012400220150411000101 00000000000000000000000000000000000000000000000000000000000000000000000000000000000000000000000000000000000000000N 00000000000NCONT   00    00000000000          00000000000000000000000000000000000000000000 000000000000000A000000000000000000000000000000000000000000000 000000000000000000000000000000000000000     00000000                                                                                                                        000000000000000000
F0010000007012400003000083005718600042505000000000000000000201504110002001MUNDIAL DE TORNILLOS S.A.                         C000000000500000000000000000000000100010010000000000000000000000F0010000007012400320150411000101 00000000000000000000000000000000000000000000000000000000000000000000000000000000000000000000000000000000000000000N 00000000000NCONT   00    00000000000          00000000000000000000000000000000000000000000 000000000000000A000000000000000000000000000000000000000000000 000000000000000000000000000000000000000     00000000                                                                                                                        000000000000000000
F0010000007012400004000083005718600023658300000000000000000201504110002001MUNDIAL DE TORNILLOS S.A.                         C000000000076000000000000000000000100010010000000000000000000000F0010000007012400420150411000101 00000000000000000000000000000000000000000000000000000000000000000000000000000000000000000000000000000000000000000N 00000000000NCONT   00    00000000000          00000000000000000000000000000000000000000000 000000000000000A000000000000000000000000000000000000000000000 000000000000000000000000000000000000000     00000000                                                                                                                        000000000000000000
F0010000007012400005000083005718600013552100000000000000000201504110002001MUNDIAL DE TORNILLOS S.A.                         D000000000076000000000000000000000100010010000000000000000000000F0010000007012400520150411000101 00000000000000000000000000000000000000000000000000000000000000000000000000000000000000000000000000000000000000000N 00000000000NCONT   00    00000000000          00000000000000000000000000000000000000000000 000000000000000A000000000000000000000000000000000000000000000 000000000000000000000000000000000000000     00000000                                                                                                                        000000000000000000
F0010000007012500001000089011508200011050500000000000000000201504110002001ALMACEN Y TALLER CICLOCOSTA                       D000000009000000000000000000000000100010010000000000000000000000F0010000007012500120150411000101 00000000000000000000000000000000000000000000000000000000000000000000000000000000000000000000000000000000000000000N 00000000000NCONT   00    00000000000          00000000000000000000000000000000000000000000 000000000000000A000000000000000000000000000000000000000000000 000000000000000000000000000000000000000     00000000                                                                                                                        000000000000000000
F0010000007012500002000089011508200041450500000000000000000201504110002001ALMACEN Y TALLER CICLOCOSTA                       C000000008600000000000000000000000100010010000000000000000000000F0010000007012500220150411000101 00000000000000000000000000000000000000000000000000000000000000000000000000000000000000000000000000000000000000000N 00000000000NCONT   00    00000000000          00000000000000000000000000000000000000000000 000000000000000A000000000000000000000000000000000000000000000 000000000000000000000000000000000000000     00000000                                                                                                                        000000000000000000
F0010000007012500003000089011508200042505000000000000000000201504110002001ALMACEN Y TALLER CICLOCOSTA                       C000000000400000000000000000000000100010010000000000000000000000F0010000007012500320150411000101 00000000000000000000000000000000000000000000000000000000000000000000000000000000000000000000000000000000000000000N 00000000000NCONT   00    00000000000          00000000000000000000000000000000000000000000 000000000000000A000000000000000000000000000000000000000000000 000000000000000000000000000000000000000     00000000                                                                                                                        000000000000000000
F0010000007012500004000089011508200023658300000000000000000201504110002001ALMACEN Y TALLER CICLOCOSTA                       C000000000068800000000000000000000100010010000000000000000000000F0010000007012500420150411000101 00000000000000000000000000000000000000000000000000000000000000000000000000000000000000000000000000000000000000000N 00000000000NCONT   00    00000000000          00000000000000000000000000000000000000000000 000000000000000A000000000000000000000000000000000000000000000 000000000000000000000000000000000000000     00000000                                                                                                                        000000000000000000
F0010000007012500005000089011508200013552100000000000000000201504110002001ALMACEN Y TALLER CICLOCOSTA                       D000000000068800000000000000000000100010010000000000000000000000F0010000007012500520150411000101 00000000000000000000000000000000000000000000000000000000000000000000000000000000000000000000000000000000000000000N 00000000000NCONT   00    00000000000          00000000000000000000000000000000000000000000 000000000000000A000000000000000000000000000000000000000000000 000000000000000000000000000000000000000     00000000                                                                                                                        000000000000000000
F0010000007012600001000007233680300011050500000000000000000201504110002001DISTRIBUIDORA CUÑOS Y EVAS RAMBAL                D000000004000000000000000000000000100010010000000000000000000000F0010000007012600120150411000101 00000000000000000000000000000000000000000000000000000000000000000000000000000000000000000000000000000000000000000N 00000000000NCONT   00    00000000000          00000000000000000000000000000000000000000000 000000000000000A000000000000000000000000000000000000000000000 000000000000000000000000000000000000000     00000000                                                                                                                        000000000000000000
F0010000007012600002000007233680300041450500000000000000000201504110002001DISTRIBUIDORA CUÑOS Y EVAS RAMBAL                C000000003200000000000000000000000100010010000000000000000000000F0010000007012600220150411000101 00000000000000000000000000000000000000000000000000000000000000000000000000000000000000000000000000000000000000000N 00000000000NCONT   00    00000000000          00000000000000000000000000000000000000000000 000000000000000A000000000000000000000000000000000000000000000 000000000000000000000000000000000000000     00000000                                                                                                                        000000000000000000
F0010000007012600003000007233680300042505000000000000000000201504110002001DISTRIBUIDORA CUÑOS Y EVAS RAMBAL                C000000000800000000000000000000000100010010000000000000000000000F0010000007012600320150411000101 00000000000000000000000000000000000000000000000000000000000000000000000000000000000000000000000000000000000000000N 00000000000NCONT   00    00000000000          00000000000000000000000000000000000000000000 000000000000000A000000000000000000000000000000000000000000000 000000000000000000000000000000000000000     00000000                                                                                                                        000000000000000000
F0010000007012600004000007233680300023658300000000000000000201504110002001DISTRIBUIDORA CUÑOS Y EVAS RAMBAL                C000000000025600000000000000000000100010010000000000000000000000F0010000007012600420150411000101 00000000000000000000000000000000000000000000000000000000000000000000000000000000000000000000000000000000000000000N 00000000000NCONT   00    00000000000          00000000000000000000000000000000000000000000 000000000000000A000000000000000000000000000000000000000000000 000000000000000000000000000000000000000     00000000                                                                                                                        000000000000000000
F0010000007012600005000007233680300013552100000000000000000201504110002001DISTRIBUIDORA CUÑOS Y EVAS RAMBAL                D000000000025600000000000000000000100010010000000000000000000000F0010000007012600520150411000101 00000000000000000000000000000000000000000000000000000000000000000000000000000000000000000000000000000000000000000N 00000000000NCONT   00    00000000000          00000000000000000000000000000000000000000000 000000000000000A000000000000000000000000000000000000000000000 000000000000000000000000000000000000000     00000000                                                                                                                        000000000000000000
F0010000007012700001000090050144800011050500000000000000000201504110002001PLASTICOS JR ASOCIADOS SAS                        D000000002900000000000000000000000100010010000000000000000000000F0010000007012700120150411000101 00000000000000000000000000000000000000000000000000000000000000000000000000000000000000000000000000000000000000000N 00000000000NCONT   00    00000000000          00000000000000000000000000000000000000000000 000000000000000A000000000000000000000000000000000000000000000 000000000000000000000000000000000000000     00000000                                                                                                                        000000000000000000
F0010000007012700002000090050144800041450500000000000000000201504110002001PLASTICOS JR ASOCIADOS SAS                        C000000002600000000000000000000000100010010000000000000000000000F0010000007012700220150411000101 00000000000000000000000000000000000000000000000000000000000000000000000000000000000000000000000000000000000000000N 00000000000NCONT   00    00000000000          00000000000000000000000000000000000000000000 000000000000000A000000000000000000000000000000000000000000000 000000000000000000000000000000000000000     00000000                                                                                                                        000000000000000000
F0010000007012700003000090050144800042505000000000000000000201504110002001PLASTICOS JR ASOCIADOS SAS                        C000000000300000000000000000000000100010010000000000000000000000F0010000007012700320150411000101 00000000000000000000000000000000000000000000000000000000000000000000000000000000000000000000000000000000000000000N 00000000000NCONT   00    00000000000          00000000000000000000000000000000000000000000 000000000000000A000000000000000000000000000000000000000000000 000000000000000000000000000000000000000     00000000                                                                                                                        000000000000000000
F0010000007012700004000090050144800023658300000000000000000201504110002001PLASTICOS JR ASOCIADOS SAS                        C000000000020800000000000000000000100010010000000000000000000000F0010000007012700420150411000101 00000000000000000000000000000000000000000000000000000000000000000000000000000000000000000000000000000000000000000N 00000000000NCONT   00    00000000000          00000000000000000000000000000000000000000000 000000000000000A000000000000000000000000000000000000000000000 000000000000000000000000000000000000000     00000000                                                                                                                        000000000000000000
F0010000007012700005000090050144800013552100000000000000000201504110002001PLASTICOS JR ASOCIADOS SAS                        D000000000020800000000000000000000100010010000000000000000000000F0010000007012700520150411000101 00000000000000000000000000000000000000000000000000000000000000000000000000000000000000000000000000000000000000000N 00000000000NCONT   00    00000000000          00000000000000000000000000000000000000000000 000000000000000A000000000000000000000000000000000000000000000 000000000000000000000000000000000000000     00000000                                                                                                                        000000000000000000
F0010000007012800001000000431178400011050500000000000000000201504110002001EFRAIN ALVAREZ                                    D000000003820000000000000000000000100010010000000000000000000000F0010000007012800120150411000101 00000000000000000000000000000000000000000000000000000000000000000000000000000000000000000000000000000000000000000N 00000000000NCONT   00    00000000000          00000000000000000000000000000000000000000000 000000000000000A000000000000000000000000000000000000000000000 000000000000000000000000000000000000000     00000000                                                                                                                        000000000000000000
F0010000007012800002000000431178400041450500000000000000000201504110002001EFRAIN ALVAREZ                                    C000000003570000000000000000000000100010010000000000000000000000F0010000007012800220150411000101 00000000000000000000000000000000000000000000000000000000000000000000000000000000000000000000000000000000000000000N 00000000000NCONT   00    00000000000          00000000000000000000000000000000000000000000 000000000000000A000000000000000000000000000000000000000000000 000000000000000000000000000000000000000     00000000                                                                                                                        000000000000000000
F0010000007012800003000000431178400042505000000000000000000201504110002001EFRAIN ALVAREZ                                    C000000000250000000000000000000000100010010000000000000000000000F0010000007012800320150411000101 00000000000000000000000000000000000000000000000000000000000000000000000000000000000000000000000000000000000000000N 00000000000NCONT   00    00000000000          00000000000000000000000000000000000000000000 000000000000000A000000000000000000000000000000000000000000000 000000000000000000000000000000000000000     00000000                                                                                                                        000000000000000000
F0010000007012800004000000431178400023658300000000000000000201504110002001EFRAIN ALVAREZ                                    C000000000028600000000000000000000100010010000000000000000000000F0010000007012800420150411000101 00000000000000000000000000000000000000000000000000000000000000000000000000000000000000000000000000000000000000000N 00000000000NCONT   00    00000000000          00000000000000000000000000000000000000000000 000000000000000A000000000000000000000000000000000000000000000 000000000000000000000000000000000000000     00000000                                                                                                                        000000000000000000
F0010000007012800005000000431178400013552100000000000000000201504110002001EFRAIN ALVAREZ                                    D000000000028600000000000000000000100010010000000000000000000000F0010000007012800520150411000101 00000000000000000000000000000000000000000000000000000000000000000000000000000000000000000000000000000000000000000N 00000000000NCONT   00    00000000000          00000000000000000000000000000000000000000000 000000000000000A000000000000000000000000000000000000000000000 000000000000000000000000000000000000000     00000000                                                                                                                        000000000000000000
F0010000007012900001000000431178400011050500000000000000000201504110002001EFRAIN ALVAREZ                                    D000000001560000000000000000000000100010010000000000000000000000F0010000007012900120150411000101 00000000000000000000000000000000000000000000000000000000000000000000000000000000000000000000000000000000000000000N 00000000000NCONT   00    00000000000          00000000000000000000000000000000000000000000 000000000000000A000000000000000000000000000000000000000000000 000000000000000000000000000000000000000     00000000                                                                                                                        000000000000000000
F0010000007012900002000000431178400041450500000000000000000201504110002001EFRAIN ALVAREZ                                    C000000001510000000000000000000000100010010000000000000000000000F0010000007012900220150411000101 00000000000000000000000000000000000000000000000000000000000000000000000000000000000000000000000000000000000000000N 00000000000NCONT   00    00000000000          00000000000000000000000000000000000000000000 000000000000000A000000000000000000000000000000000000000000000 000000000000000000000000000000000000000     00000000                                                                                                                        000000000000000000
F0010000007012900003000000431178400042505000000000000000000201504110002001EFRAIN ALVAREZ                                    C000000000050000000000000000000000100010010000000000000000000000F0010000007012900320150411000101 00000000000000000000000000000000000000000000000000000000000000000000000000000000000000000000000000000000000000000N 00000000000NCONT   00    00000000000          00000000000000000000000000000000000000000000 000000000000000A000000000000000000000000000000000000000000000 000000000000000000000000000000000000000     00000000                                                                                                                        000000000000000000
F0010000007012900004000000431178400023658300000000000000000201504110002001EFRAIN ALVAREZ                                    C000000000012100000000000000000000100010010000000000000000000000F0010000007012900420150411000101 00000000000000000000000000000000000000000000000000000000000000000000000000000000000000000000000000000000000000000N 00000000000NCONT   00    00000000000          00000000000000000000000000000000000000000000 000000000000000A000000000000000000000000000000000000000000000 000000000000000000000000000000000000000     00000000                                                                                                                        000000000000000000
F0010000007012900005000000431178400013552100000000000000000201504110002001EFRAIN ALVAREZ                                    D000000000012100000000000000000000100010010000000000000000000000F0010000007012900520150411000101 00000000000000000000000000000000000000000000000000000000000000000000000000000000000000000000000000000000000000000N 00000000000NCONT   00    00000000000          00000000000000000000000000000000000000000000 000000000000000A000000000000000000000000000000000000000000000 000000000000000000000000000000000000000     00000000                                                                                                                        000000000000000000
F0010000007013000001000000431178400011050500000000000000000201504110002001EFRAIN ALVAREZ                                    D000000001240000000000000000000000100010010000000000000000000000F0010000007013000120150411000101 00000000000000000000000000000000000000000000000000000000000000000000000000000000000000000000000000000000000000000N 00000000000NCONT   00    00000000000          00000000000000000000000000000000000000000000 000000000000000A000000000000000000000000000000000000000000000 000000000000000000000000000000000000000     00000000                                                                                                                        000000000000000000
F0010000007013000002000000431178400041450500000000000000000201504110002001EFRAIN ALVAREZ                                    C000000001190000000000000000000000100010010000000000000000000000F0010000007013000220150411000101 00000000000000000000000000000000000000000000000000000000000000000000000000000000000000000000000000000000000000000N 00000000000NCONT   00    00000000000          00000000000000000000000000000000000000000000 000000000000000A000000000000000000000000000000000000000000000 000000000000000000000000000000000000000     00000000                                                                                                                        000000000000000000
F0010000007013000003000000431178400042505000000000000000000201504110002001EFRAIN ALVAREZ                                    C000000000050000000000000000000000100010010000000000000000000000F0010000007013000320150411000101 00000000000000000000000000000000000000000000000000000000000000000000000000000000000000000000000000000000000000000N 00000000000NCONT   00    00000000000          00000000000000000000000000000000000000000000 000000000000000A000000000000000000000000000000000000000000000 000000000000000000000000000000000000000     00000000                                                                                                                        000000000000000000
F0010000007013000004000000431178400023658300000000000000000201504110002001EFRAIN ALVAREZ                                    C000000000009500000000000000000000100010010000000000000000000000F0010000007013000420150411000101 00000000000000000000000000000000000000000000000000000000000000000000000000000000000000000000000000000000000000000N 00000000000NCONT   00    00000000000          00000000000000000000000000000000000000000000 000000000000000A000000000000000000000000000000000000000000000 000000000000000000000000000000000000000     00000000                                                                                                                        000000000000000000
F0010000007013000005000000431178400013552100000000000000000201504110002001EFRAIN ALVAREZ                                    D000000000009500000000000000000000100010010000000000000000000000F0010000007013000520150411000101 00000000000000000000000000000000000000000000000000000000000000000000000000000000000000000000000000000000000000000N 00000000000NCONT   00    00000000000          00000000000000000000000000000000000000000000 000000000000000A000000000000000000000000000000000000000000000 000000000000000000000000000000000000000     00000000                                                                                                                        000000000000000000
F0010000007013100001000000431178400011050500000000000000000201504110002001EFRAIN ALVAREZ                                    D000000001240000000000000000000000100010010000000000000000000000F0010000007013100120150411000101 00000000000000000000000000000000000000000000000000000000000000000000000000000000000000000000000000000000000000000N 00000000000NCONT   00    00000000000          00000000000000000000000000000000000000000000 000000000000000A000000000000000000000000000000000000000000000 000000000000000000000000000000000000000     00000000                                                                                                                        000000000000000000
F0010000007013100002000000431178400041450500000000000000000201504110002001EFRAIN ALVAREZ                                    C000000001190000000000000000000000100010010000000000000000000000F0010000007013100220150411000101 00000000000000000000000000000000000000000000000000000000000000000000000000000000000000000000000000000000000000000N 00000000000NCONT   00    00000000000          00000000000000000000000000000000000000000000 000000000000000A000000000000000000000000000000000000000000000 000000000000000000000000000000000000000     00000000                                                                                                                        000000000000000000
F0010000007013100003000000431178400042505000000000000000000201504110002001EFRAIN ALVAREZ                                    C000000000050000000000000000000000100010010000000000000000000000F0010000007013100320150411000101 00000000000000000000000000000000000000000000000000000000000000000000000000000000000000000000000000000000000000000N 00000000000NCONT   00    00000000000          00000000000000000000000000000000000000000000 000000000000000A000000000000000000000000000000000000000000000 000000000000000000000000000000000000000     00000000                                                                                                                        000000000000000000
F0010000007013100004000000431178400023658300000000000000000201504110002001EFRAIN ALVAREZ                                    C000000000009500000000000000000000100010010000000000000000000000F0010000007013100420150411000101 00000000000000000000000000000000000000000000000000000000000000000000000000000000000000000000000000000000000000000N 00000000000NCONT   00    00000000000          00000000000000000000000000000000000000000000 000000000000000A000000000000000000000000000000000000000000000 000000000000000000000000000000000000000     00000000                                                                                                                        000000000000000000
F0010000007013100005000000431178400013552100000000000000000201504110002001EFRAIN ALVAREZ                                    D000000000009500000000000000000000100010010000000000000000000000F0010000007013100520150411000101 00000000000000000000000000000000000000000000000000000000000000000000000000000000000000000000000000000000000000000N 00000000000NCONT   00    00000000000          00000000000000000000000000000000000000000000 000000000000000A000000000000000000000000000000000000000000000 000000000000000000000000000000000000000     00000000                                                                                                                        000000000000000000
F0010000007013200001000000431178400011050500000000000000000201504110002001EFRAIN ALVAREZ                                    D000000001990000000000000000000000100010010000000000000000000000F0010000007013200120150411000101 00000000000000000000000000000000000000000000000000000000000000000000000000000000000000000000000000000000000000000N 00000000000NCONT   00    00000000000          00000000000000000000000000000000000000000000 000000000000000A000000000000000000000000000000000000000000000 000000000000000000000000000000000000000     00000000                                                                                                                        000000000000000000
F0010000007013200002000000431178400041450500000000000000000201504110002001EFRAIN ALVAREZ                                    C000000001840000000000000000000000100010010000000000000000000000F0010000007013200220150411000101 00000000000000000000000000000000000000000000000000000000000000000000000000000000000000000000000000000000000000000N 00000000000NCONT   00    00000000000          00000000000000000000000000000000000000000000 000000000000000A000000000000000000000000000000000000000000000 000000000000000000000000000000000000000     00000000                                                                                                                        000000000000000000
F0010000007013200003000000431178400042505000000000000000000201504110002001EFRAIN ALVAREZ                                    C000000000150000000000000000000000100010010000000000000000000000F0010000007013200320150411000101 00000000000000000000000000000000000000000000000000000000000000000000000000000000000000000000000000000000000000000N 00000000000NCONT   00    00000000000          00000000000000000000000000000000000000000000 000000000000000A000000000000000000000000000000000000000000000 000000000000000000000000000000000000000     00000000                                                                                                                        000000000000000000
F0010000007013200004000000431178400023658300000000000000000201504110002001EFRAIN ALVAREZ                                    C000000000014700000000000000000000100010010000000000000000000000F0010000007013200420150411000101 00000000000000000000000000000000000000000000000000000000000000000000000000000000000000000000000000000000000000000N 00000000000NCONT   00    00000000000          00000000000000000000000000000000000000000000 000000000000000A000000000000000000000000000000000000000000000 000000000000000000000000000000000000000     00000000                                                                                                                        000000000000000000
F0010000007013200005000000431178400013552100000000000000000201504110002001EFRAIN ALVAREZ                                    D000000000014700000000000000000000100010010000000000000000000000F0010000007013200520150411000101 00000000000000000000000000000000000000000000000000000000000000000000000000000000000000000000000000000000000000000N 00000000000NCONT   00    00000000000          00000000000000000000000000000000000000000000 000000000000000A000000000000000000000000000000000000000000000 000000000000000000000000000000000000000     00000000                                                                                                                        000000000000000000
F0010000007013300001000083007900600011050500000000000000000201504110002001EXPRESO ANDINO DE CARGA SA                        D000000048000000000000000000000000100010010000000000000000000000F0010000007013300120150411000101 00000000000000000000000000000000000000000000000000000000000000000000000000000000000000000000000000000000000000000N 00000000000NCONT   00    00000000000          00000000000000000000000000000000000000000000 000000000000000A000000000000000000000000000000000000000000000 000000000000000000000000000000000000000     00000000                                                                                                                        000000000000000000
F0010000007013300002000083007900600041450500000000000000000201504110002001EXPRESO ANDINO DE CARGA SA                        C000000047900000000000000000000000100010010000000000000000000000F0010000007013300220150411000101 00000000000000000000000000000000000000000000000000000000000000000000000000000000000000000000000000000000000000000N 00000000000NCONT   00    00000000000          00000000000000000000000000000000000000000000 000000000000000A000000000000000000000000000000000000000000000 000000000000000000000000000000000000000     00000000                                                                                                                        000000000000000000
F0010000007013300003000083007900600042505000000000000000000201504110002001EXPRESO ANDINO DE CARGA SA                        C000000000100000000000000000000000100010010000000000000000000000F0010000007013300320150411000101 00000000000000000000000000000000000000000000000000000000000000000000000000000000000000000000000000000000000000000N 00000000000NCONT   00    00000000000          00000000000000000000000000000000000000000000 000000000000000A000000000000000000000000000000000000000000000 000000000000000000000000000000000000000     00000000                                                                                                                        000000000000000000
F0010000007013300004000083007900600023658300000000000000000201504110002001EXPRESO ANDINO DE CARGA SA                        C000000000383200000000000000000000100010010000000000000000000000F0010000007013300420150411000101 00000000000000000000000000000000000000000000000000000000000000000000000000000000000000000000000000000000000000000N 00000000000NCONT   00    00000000000          00000000000000000000000000000000000000000000 000000000000000A000000000000000000000000000000000000000000000 000000000000000000000000000000000000000     00000000                                                                                                                        000000000000000000
F0010000007013300005000083007900600013552100000000000000000201504110002001EXPRESO ANDINO DE CARGA SA                        D000000000383200000000000000000000100010010000000000000000000000F0010000007013300520150411000101 00000000000000000000000000000000000000000000000000000000000000000000000000000000000000000000000000000000000000000N 00000000000NCONT   00    00000000000          00000000000000000000000000000000000000000000 000000000000000A000000000000000000000000000000000000000000000 000000000000000000000000000000000000000     00000000                                                                                                                        000000000000000000
F0010000007013400001000000431178400011050500000000000000000201504110002001EFRAIN ALVAREZ                                    D000000001890000000000000000000000100010010000000000000000000000F0010000007013400120150411000101 00000000000000000000000000000000000000000000000000000000000000000000000000000000000000000000000000000000000000000N 00000000000NCONT   00    00000000000          00000000000000000000000000000000000000000000 000000000000000A000000000000000000000000000000000000000000000 000000000000000000000000000000000000000     00000000                                                                                                                        000000000000000000
F0010000007013400002000000431178400041450500000000000000000201504110002001EFRAIN ALVAREZ                                    C000000001840000000000000000000000100010010000000000000000000000F0010000007013400220150411000101 00000000000000000000000000000000000000000000000000000000000000000000000000000000000000000000000000000000000000000N 00000000000NCONT   00    00000000000          00000000000000000000000000000000000000000000 000000000000000A000000000000000000000000000000000000000000000 000000000000000000000000000000000000000     00000000                                                                                                                        000000000000000000
F0010000007013400003000000431178400042505000000000000000000201504110002001EFRAIN ALVAREZ                                    C000000000050000000000000000000000100010010000000000000000000000F0010000007013400320150411000101 00000000000000000000000000000000000000000000000000000000000000000000000000000000000000000000000000000000000000000N 00000000000NCONT   00    00000000000          00000000000000000000000000000000000000000000 000000000000000A000000000000000000000000000000000000000000000 000000000000000000000000000000000000000     00000000                                                                                                                        000000000000000000
F0010000007013400004000000431178400023658300000000000000000201504110002001EFRAIN ALVAREZ                                    C000000000014700000000000000000000100010010000000000000000000000F0010000007013400420150411000101 00000000000000000000000000000000000000000000000000000000000000000000000000000000000000000000000000000000000000000N 00000000000NCONT   00    00000000000          00000000000000000000000000000000000000000000 000000000000000A000000000000000000000000000000000000000000000 000000000000000000000000000000000000000     00000000                                                                                                                        000000000000000000
F0010000007013400005000000431178400013552100000000000000000201504110002001EFRAIN ALVAREZ                                    D000000000014700000000000000000000100010010000000000000000000000F0010000007013400520150411000101 00000000000000000000000000000000000000000000000000000000000000000000000000000000000000000000000000000000000000000N 00000000000NCONT   00    00000000000          00000000000000000000000000000000000000000000 000000000000000A000000000000000000000000000000000000000000000 000000000000000000000000000000000000000     00000000                                                                                                                        000000000000000000
F0010000007013500001000089010131700011050500000000000000000201504110002001SOLDOGAS                                          D000000001400000000000000000000000100010010000000000000000000000F0010000007013500120150411000101 00000000000000000000000000000000000000000000000000000000000000000000000000000000000000000000000000000000000000000N 00000000000NCONT   00    00000000000          00000000000000000000000000000000000000000000 000000000000000A000000000000000000000000000000000000000000000 000000000000000000000000000000000000000     00000000                                                                                                                        000000000000000000
F0010000007013500002000089010131700041450500000000000000000201504110002001SOLDOGAS                                          C000000001200000000000000000000000100010010000000000000000000000F0010000007013500220150411000101 00000000000000000000000000000000000000000000000000000000000000000000000000000000000000000000000000000000000000000N 00000000000NCONT   00    00000000000          00000000000000000000000000000000000000000000 000000000000000A000000000000000000000000000000000000000000000 000000000000000000000000000000000000000     00000000                                                                                                                        000000000000000000
F0010000007013500003000089010131700042505000000000000000000201504110002001SOLDOGAS                                          C000000000200000000000000000000000100010010000000000000000000000F0010000007013500320150411000101 00000000000000000000000000000000000000000000000000000000000000000000000000000000000000000000000000000000000000000N 00000000000NCONT   00    00000000000          00000000000000000000000000000000000000000000 000000000000000A000000000000000000000000000000000000000000000 000000000000000000000000000000000000000     00000000                                                                                                                        000000000000000000
F0010000007013500004000089010131700023658300000000000000000201504110002001SOLDOGAS                                          C000000000009600000000000000000000100010010000000000000000000000F0010000007013500420150411000101 00000000000000000000000000000000000000000000000000000000000000000000000000000000000000000000000000000000000000000N 00000000000NCONT   00    00000000000          00000000000000000000000000000000000000000000 000000000000000A000000000000000000000000000000000000000000000 000000000000000000000000000000000000000     00000000                                                                                                                        000000000000000000
F0010000007013500005000089010131700013552100000000000000000201504110002001SOLDOGAS                                          D000000000009600000000000000000000100010010000000000000000000000F0010000007013500520150411000101 00000000000000000000000000000000000000000000000000000000000000000000000000000000000000000000000000000000000000000N 00000000000NCONT   00    00000000000          00000000000000000000000000000000000000000000 000000000000000A000000000000000000000000000000000000000000000 000000000000000000000000000000000000000     00000000                                                                                                                        000000000000000000
F0010000007013600001000000869805000011050500000000000000000201504110002001WILLMAN RAMBAL                                    D000000004300000000000000000000000100010010000000000000000000000F0010000007013600120150411000101 00000000000000000000000000000000000000000000000000000000000000000000000000000000000000000000000000000000000000000N 00000000000NCONT   00    00000000000          00000000000000000000000000000000000000000000 000000000000000A000000000000000000000000000000000000000000000 000000000000000000000000000000000000000     00000000                                                                                                                        000000000000000000
F0010000007013600002000000869805000041450500000000000000000201504110002001WILLMAN RAMBAL                                    C000000003800000000000000000000000100010010000000000000000000000F0010000007013600220150411000101 00000000000000000000000000000000000000000000000000000000000000000000000000000000000000000000000000000000000000000N 00000000000NCONT   00    00000000000          00000000000000000000000000000000000000000000 000000000000000A000000000000000000000000000000000000000000000 000000000000000000000000000000000000000     00000000                                                                                                                        000000000000000000
F0010000007013600003000000869805000042505000000000000000000201504110002001WILLMAN RAMBAL                                    C000000000500000000000000000000000100010010000000000000000000000F0010000007013600320150411000101 00000000000000000000000000000000000000000000000000000000000000000000000000000000000000000000000000000000000000000N 00000000000NCONT   00    00000000000          00000000000000000000000000000000000000000000 000000000000000A000000000000000000000000000000000000000000000 000000000000000000000000000000000000000     00000000                                                                                                                        000000000000000000
F0010000007013600004000000869805000023658300000000000000000201504110002001WILLMAN RAMBAL                                    C000000000030400000000000000000000100010010000000000000000000000F0010000007013600420150411000101 00000000000000000000000000000000000000000000000000000000000000000000000000000000000000000000000000000000000000000N 00000000000NCONT   00    00000000000          00000000000000000000000000000000000000000000 000000000000000A000000000000000000000000000000000000000000000 000000000000000000000000000000000000000     00000000                                                                                                                        000000000000000000
F0010000007013600005000000869805000013552100000000000000000201504110002001WILLMAN RAMBAL                                    D000000000030400000000000000000000100010010000000000000000000000F0010000007013600520150411000101 00000000000000000000000000000000000000000000000000000000000000000000000000000000000000000000000000000000000000000N 00000000000NCONT   00    00000000000          00000000000000000000000000000000000000000000 000000000000000A000000000000000000000000000000000000000000000 000000000000000000000000000000000000000     00000000                                                                                                                        000000000000000000
F0010000007013700001000114084725100011050500000000000000000201504110002001COMERCIALIZADORA KONAR .. ..                      D000000001800000000000000000000000100010010000000000000000000000F0010000007013700120150411000101 00000000000000000000000000000000000000000000000000000000000000000000000000000000000000000000000000000000000000000N 00000000000NCONT   00    00000000000          00000000000000000000000000000000000000000000 000000000000000A000000000000000000000000000000000000000000000 000000000000000000000000000000000000000     00000000                                                                                                                        000000000000000000
F0010000007013700002000114084725100041450500000000000000000201504110002001COMERCIALIZADORA KONAR .. ..                      C000000001500000000000000000000000100010010000000000000000000000F0010000007013700220150411000101 00000000000000000000000000000000000000000000000000000000000000000000000000000000000000000000000000000000000000000N 00000000000NCONT   00    00000000000          00000000000000000000000000000000000000000000 000000000000000A000000000000000000000000000000000000000000000 000000000000000000000000000000000000000     00000000                                                                                                                        000000000000000000
F0010000007013700003000114084725100042505000000000000000000201504110002001COMERCIALIZADORA KONAR .. ..                      C000000000300000000000000000000000100010010000000000000000000000F0010000007013700320150411000101 00000000000000000000000000000000000000000000000000000000000000000000000000000000000000000000000000000000000000000N 00000000000NCONT   00    00000000000          00000000000000000000000000000000000000000000 000000000000000A000000000000000000000000000000000000000000000 000000000000000000000000000000000000000     00000000                                                                                                                        000000000000000000
F0010000007013700004000114084725100023658300000000000000000201504110002001COMERCIALIZADORA KONAR .. ..                      C000000000012000000000000000000000100010010000000000000000000000F0010000007013700420150411000101 00000000000000000000000000000000000000000000000000000000000000000000000000000000000000000000000000000000000000000N 00000000000NCONT   00    00000000000          00000000000000000000000000000000000000000000 000000000000000A000000000000000000000000000000000000000000000 000000000000000000000000000000000000000     00000000                                                                                                                        000000000000000000
F0010000007013700005000114084725100013552100000000000000000201504110002001COMERCIALIZADORA KONAR .. ..                      D000000000012000000000000000000000100010010000000000000000000000F0010000007013700520150411000101 00000000000000000000000000000000000000000000000000000000000000000000000000000000000000000000000000000000000000000N 00000000000NCONT   00    00000000000          00000000000000000000000000000000000000000000 000000000000000A000000000000000000000000000000000000000000000 000000000000000000000000000000000000000     00000000                                                                                                                        000000000000000000
F0010000007013800001000007225511500011050500000000000000000201504110002001MAIGEL CHADID                                     D000000010000000000000000000000000100010010000000000000000000000F0010000007013800120150411000101 00000000000000000000000000000000000000000000000000000000000000000000000000000000000000000000000000000000000000000N 00000000000NCONT   00    00000000000          00000000000000000000000000000000000000000000 000000000000000A000000000000000000000000000000000000000000000 000000000000000000000000000000000000000     00000000                                                                                                                        000000000000000000
F0010000007013800002000007225511500041450500000000000000000201504110002001MAIGEL CHADID                                     C000000008000000000000000000000000100010010000000000000000000000F0010000007013800220150411000101 00000000000000000000000000000000000000000000000000000000000000000000000000000000000000000000000000000000000000000N 00000000000NCONT   00    00000000000          00000000000000000000000000000000000000000000 000000000000000A000000000000000000000000000000000000000000000 000000000000000000000000000000000000000     00000000                                                                                                                        000000000000000000
F0010000007013800003000007225511500042505000000000000000000201504110002001MAIGEL CHADID                                     C000000002000000000000000000000000100010010000000000000000000000F0010000007013800320150411000101 00000000000000000000000000000000000000000000000000000000000000000000000000000000000000000000000000000000000000000N 00000000000NCONT   00    00000000000          00000000000000000000000000000000000000000000 000000000000000A000000000000000000000000000000000000000000000 000000000000000000000000000000000000000     00000000                                                                                                                        000000000000000000
F0010000007013800004000007225511500023658300000000000000000201504110002001MAIGEL CHADID                                     C000000000064000000000000000000000100010010000000000000000000000F0010000007013800420150411000101 00000000000000000000000000000000000000000000000000000000000000000000000000000000000000000000000000000000000000000N 00000000000NCONT   00    00000000000          00000000000000000000000000000000000000000000 000000000000000A000000000000000000000000000000000000000000000 000000000000000000000000000000000000000     00000000                                                                                                                        000000000000000000
F0010000007013800005000007225511500013552100000000000000000201504110002001MAIGEL CHADID                                     D000000000064000000000000000000000100010010000000000000000000000F0010000007013800520150411000101 00000000000000000000000000000000000000000000000000000000000000000000000000000000000000000000000000000000000000000N 00000000000NCONT   00    00000000000          00000000000000000000000000000000000000000000 000000000000000A000000000000000000000000000000000000000000000 000000000000000000000000000000000000000     00000000                                                                                                                        000000000000000000
F0010000007013900001000007225511500011050500000000000000000201504110002001MAIGEL CHADID                                     D000000003000000000000000000000000100010010000000000000000000000F0010000007013900120150411000101 00000000000000000000000000000000000000000000000000000000000000000000000000000000000000000000000000000000000000000N 00000000000NCONT   00    00000000000          00000000000000000000000000000000000000000000 000000000000000A000000000000000000000000000000000000000000000 000000000000000000000000000000000000000     00000000                                                                                                                        000000000000000000
F0010000007013900002000007225511500041450500000000000000000201504110002001MAIGEL CHADID                                     C000000002400000000000000000000000100010010000000000000000000000F0010000007013900220150411000101 00000000000000000000000000000000000000000000000000000000000000000000000000000000000000000000000000000000000000000N 00000000000NCONT   00    00000000000          00000000000000000000000000000000000000000000 000000000000000A000000000000000000000000000000000000000000000 000000000000000000000000000000000000000     00000000                                                                                                                        000000000000000000
F0010000007013900003000007225511500042505000000000000000000201504110002001MAIGEL CHADID                                     C000000000600000000000000000000000100010010000000000000000000000F0010000007013900320150411000101 00000000000000000000000000000000000000000000000000000000000000000000000000000000000000000000000000000000000000000N 00000000000NCONT   00    00000000000          00000000000000000000000000000000000000000000 000000000000000A000000000000000000000000000000000000000000000 000000000000000000000000000000000000000     00000000                                                                                                                        000000000000000000
F0010000007013900004000007225511500023658300000000000000000201504110002001MAIGEL CHADID                                     C000000000019200000000000000000000100010010000000000000000000000F0010000007013900420150411000101 00000000000000000000000000000000000000000000000000000000000000000000000000000000000000000000000000000000000000000N 00000000000NCONT   00    00000000000          00000000000000000000000000000000000000000000 000000000000000A000000000000000000000000000000000000000000000 000000000000000000000000000000000000000     00000000                                                                                                                        000000000000000000
F0010000007013900005000007225511500013552100000000000000000201504110002001MAIGEL CHADID                                     D000000000019200000000000000000000100010010000000000000000000000F0010000007013900520150411000101 00000000000000000000000000000000000000000000000000000000000000000000000000000000000000000000000000000000000000000N 00000000000NCONT   00    00000000000          00000000000000000000000000000000000000000000 000000000000000A000000000000000000000000000000000000000000000 000000000000000000000000000000000000000     00000000                                                                                                                        000000000000000000
F0010000007014000001000003263562600011050500000000000000000201504110002001LOCAL 50 - MERCEDES ARAGUREN DE CHADID (MANUEL CHAD000000010500000000000000000000000100010010000000000000000000000F0010000007014000120150411000101 00000000000000000000000000000000000000000000000000000000000000000000000000000000000000000000000000000000000000000N 00000000000NCONT   00    00000000000          00000000000000000000000000000000000000000000 000000000000000A000000000000000000000000000000000000000000000 000000000000000000000000000000000000000     00000000                                                                                                                        000000000000000000
F0010000007014000002000003263562600041450500000000000000000201504110002001LOCAL 50 - MERCEDES ARAGUREN DE CHADID (MANUEL CHAC000000009000000000000000000000000100010010000000000000000000000F0010000007014000220150411000101 00000000000000000000000000000000000000000000000000000000000000000000000000000000000000000000000000000000000000000N 00000000000NCONT   00    00000000000          00000000000000000000000000000000000000000000 000000000000000A000000000000000000000000000000000000000000000 000000000000000000000000000000000000000     00000000                                                                                                                        000000000000000000
F0010000007014000003000003263562600042505000000000000000000201504110002001LOCAL 50 - MERCEDES ARAGUREN DE CHADID (MANUEL CHAC000000001500000000000000000000000100010010000000000000000000000F0010000007014000320150411000101 00000000000000000000000000000000000000000000000000000000000000000000000000000000000000000000000000000000000000000N 00000000000NCONT   00    00000000000          00000000000000000000000000000000000000000000 000000000000000A000000000000000000000000000000000000000000000 000000000000000000000000000000000000000     00000000                                                                                                                        000000000000000000
F0010000007014000004000003263562600023658300000000000000000201504110002001LOCAL 50 - MERCEDES ARAGUREN DE CHADID (MANUEL CHAC000000000072000000000000000000000100010010000000000000000000000F0010000007014000420150411000101 00000000000000000000000000000000000000000000000000000000000000000000000000000000000000000000000000000000000000000N 00000000000NCONT   00    00000000000          00000000000000000000000000000000000000000000 000000000000000A000000000000000000000000000000000000000000000 000000000000000000000000000000000000000     00000000                                                                                                                        000000000000000000
F0010000007014000005000003263562600013552100000000000000000201504110002001LOCAL 50 - MERCEDES ARAGUREN DE CHADID (MANUEL CHAD000000000072000000000000000000000100010010000000000000000000000F0010000007014000520150411000101 00000000000000000000000000000000000000000000000000000000000000000000000000000000000000000000000000000000000000000N 00000000000NCONT   00    00000000000          00000000000000000000000000000000000000000000 000000000000000A000000000000000000000000000000000000000000000 000000000000000000000000000000000000000     00000000                                                                                                                        000000000000000000
F0010000007014100001000080202350700011050500000000000000000201504110002001CONNY DE LA COSTA SAS                             D000000002100000000000000000000000100010010000000000000000000000F0010000007014100120150411000101 00000000000000000000000000000000000000000000000000000000000000000000000000000000000000000000000000000000000000000N 00000000000NCONT   00    00000000000          00000000000000000000000000000000000000000000 000000000000000A000000000000000000000000000000000000000000000 000000000000000000000000000000000000000     00000000                                                                                                                        000000000000000000
F0010000007014100002000080202350700041450500000000000000000201504110002001CONNY DE LA COSTA SAS                             C000000001600000000000000000000000100010010000000000000000000000F0010000007014100220150411000101 00000000000000000000000000000000000000000000000000000000000000000000000000000000000000000000000000000000000000000N 00000000000NCONT   00    00000000000          00000000000000000000000000000000000000000000 000000000000000A000000000000000000000000000000000000000000000 000000000000000000000000000000000000000     00000000                                                                                                                        000000000000000000
F0010000007014100003000080202350700042505000000000000000000201504110002001CONNY DE LA COSTA SAS                             C000000000500000000000000000000000100010010000000000000000000000F0010000007014100320150411000101 00000000000000000000000000000000000000000000000000000000000000000000000000000000000000000000000000000000000000000N 00000000000NCONT   00    00000000000          00000000000000000000000000000000000000000000 000000000000000A000000000000000000000000000000000000000000000 000000000000000000000000000000000000000     00000000                                                                                                                        000000000000000000
F0010000007014100004000080202350700023658300000000000000000201504110002001CONNY DE LA COSTA SAS                             C000000000012800000000000000000000100010010000000000000000000000F0010000007014100420150411000101 00000000000000000000000000000000000000000000000000000000000000000000000000000000000000000000000000000000000000000N 00000000000NCONT   00    00000000000          00000000000000000000000000000000000000000000 000000000000000A000000000000000000000000000000000000000000000 000000000000000000000000000000000000000     00000000                                                                                                                        000000000000000000
F0010000007014100005000080202350700013552100000000000000000201504110002001CONNY DE LA COSTA SAS                             D000000000012800000000000000000000100010010000000000000000000000F0010000007014100520150411000101 00000000000000000000000000000000000000000000000000000000000000000000000000000000000000000000000000000000000000000N 00000000000NCONT   00    00000000000          00000000000000000000000000000000000000000000 000000000000000A000000000000000000000000000000000000000000000 000000000000000000000000000000000000000     00000000                                                                                                                        000000000000000000
