F0010000009544900001000090009800500013050500000000000000000201612120002001GLORIANT CHEMICHALS DE COLOMBIA LTDA              D000000027156500000000000000000000100010010000000000000000000000F0010000009544900120161212000101 00000000000000000000000000000000000000000000000000000000000000000000000000000000000000000000000000000000000000000N 00000000000NCONT   00    00000000000          00000000000000000000000000000000000000000000 000000000000000A000000000000000000000000000000000000000000000 000000000000000000000000000000000000000     00000000                                                                                                                        000000000000000000
F0010000009544900002000090009800500041450500000000000000000201612120002001GLORIANT CHEMICHALS DE COLOMBIA LTDA              C000000021830000000000000000000000100010010000000000000000000000F0010000009544900220161212000101 00000000000000000000000000000000000000000000000000000000000000000000000000000000000000000000000000000000000000000N 00000000000NCONT   00    00000000000          00000000000000000000000000000000000000000000 000000000000000A000000000000000000000000000000000000000000000 000000000000000000000000000000000000000     00000000                                                                                                                        000000000000000000
F0010000009544900003000090009800500042505000000000000000000201612120002001GLORIANT CHEMICHALS DE COLOMBIA LTDA              C000000005326500000000000000000000100010010000000000000000000000F0010000009544900320161212000101 00000000000000000000000000000000000000000000000000000000000000000000000000000000000000000000000000000000000000000N 00000000000NCONT   00    00000000000          00000000000000000000000000000000000000000000 000000000000000A000000000000000000000000000000000000000000000 000000000000000000000000000000000000000     00000000                                                                                                                        000000000000000000
F0010000009544900004000090009800500023658300000000000000000201612120002001GLORIANT CHEMICHALS DE COLOMBIA LTDA              C000000000174600000000000000000000100010010000000000000000000000F0010000009544900420161212000101 00000000000000000000000000000000000000000000000000000000000000000000000000000000000000000000000000000000000000000N 00000000000NCONT   00    00000000000          00000000000000000000000000000000000000000000 000000000000000A000000000000000000000000000000000000000000000 000000000000000000000000000000000000000     00000000                                                                                                                        000000000000000000
F0010000009544900005000090009800500013552100000000000000000201612120002001GLORIANT CHEMICHALS DE COLOMBIA LTDA              D000000000174600000000000000000000100010010000000000000000000000F0010000009544900520161212000101 00000000000000000000000000000000000000000000000000000000000000000000000000000000000000000000000000000000000000000N 00000000000NCONT   00    00000000000          00000000000000000000000000000000000000000000 000000000000000A000000000000000000000000000000000000000000000 000000000000000000000000000000000000000     00000000                                                                                                                        000000000000000000
F0010000009545000001000090060531100013050500000000000000000201612120002001RECUBRIMIENTOS ESENCIALES SAS                     D000000038480000000000000000000000100010010000000000000000000000F0010000009545000120161212000101 00000000000000000000000000000000000000000000000000000000000000000000000000000000000000000000000000000000000000000N 00000000000NCONT   00    00000000000          00000000000000000000000000000000000000000000 000000000000000A000000000000000000000000000000000000000000000 000000000000000000000000000000000000000     00000000                                                                                                                        000000000000000000
F0010000009545000002000090060531100041450500000000000000000201612120002001RECUBRIMIENTOS ESENCIALES SAS                     C000000036230000000000000000000000100010010000000000000000000000F0010000009545000220161212000101 00000000000000000000000000000000000000000000000000000000000000000000000000000000000000000000000000000000000000000N 00000000000NCONT   00    00000000000          00000000000000000000000000000000000000000000 000000000000000A000000000000000000000000000000000000000000000 000000000000000000000000000000000000000     00000000                                                                                                                        000000000000000000
F0010000009545000003000090060531100042505000000000000000000201612120002001RECUBRIMIENTOS ESENCIALES SAS                     C000000002250000000000000000000000100010010000000000000000000000F0010000009545000320161212000101 00000000000000000000000000000000000000000000000000000000000000000000000000000000000000000000000000000000000000000N 00000000000NCONT   00    00000000000          00000000000000000000000000000000000000000000 000000000000000A000000000000000000000000000000000000000000000 000000000000000000000000000000000000000     00000000                                                                                                                        000000000000000000
F0010000009545000004000090060531100023658300000000000000000201612120002001RECUBRIMIENTOS ESENCIALES SAS                     C000000000289800000000000000000000100010010000000000000000000000F0010000009545000420161212000101 00000000000000000000000000000000000000000000000000000000000000000000000000000000000000000000000000000000000000000N 00000000000NCONT   00    00000000000          00000000000000000000000000000000000000000000 000000000000000A000000000000000000000000000000000000000000000 000000000000000000000000000000000000000     00000000                                                                                                                        000000000000000000
F0010000009545000005000090060531100013552100000000000000000201612120002001RECUBRIMIENTOS ESENCIALES SAS                     D000000000289800000000000000000000100010010000000000000000000000F0010000009545000520161212000101 00000000000000000000000000000000000000000000000000000000000000000000000000000000000000000000000000000000000000000N 00000000000NCONT   00    00000000000          00000000000000000000000000000000000000000000 000000000000000A000000000000000000000000000000000000000000000 000000000000000000000000000000000000000     00000000                                                                                                                        000000000000000000
F0010000009545100001000089010260300013050500000000000000000201612120002001FEDERICO OSORIO A. S.A.                           D000000042531900000000000000000000100010010000000000000000000000F0010000009545100120161212000101 00000000000000000000000000000000000000000000000000000000000000000000000000000000000000000000000000000000000000000N 00000000000NCONT   00    00000000000          00000000000000000000000000000000000000000000 000000000000000A000000000000000000000000000000000000000000000 000000000000000000000000000000000000000     00000000                                                                                                                        000000000000000000
F0010000009545100002000089010260300041450500000000000000000201612120002001FEDERICO OSORIO A. S.A.                           C000000037250000000000000000000000100010010000000000000000000000F0010000009545100220161212000101 00000000000000000000000000000000000000000000000000000000000000000000000000000000000000000000000000000000000000000N 00000000000NCONT   00    00000000000          00000000000000000000000000000000000000000000 000000000000000A000000000000000000000000000000000000000000000 000000000000000000000000000000000000000     00000000                                                                                                                        000000000000000000
F0010000009545100003000089010260300042505000000000000000000201612120002001FEDERICO OSORIO A. S.A.                           C000000005281900000000000000000000100010010000000000000000000000F0010000009545100320161212000101 00000000000000000000000000000000000000000000000000000000000000000000000000000000000000000000000000000000000000000N 00000000000NCONT   00    00000000000          00000000000000000000000000000000000000000000 000000000000000A000000000000000000000000000000000000000000000 000000000000000000000000000000000000000     00000000                                                                                                                        000000000000000000
F0010000009545100004000089010260300023658300000000000000000201612120002001FEDERICO OSORIO A. S.A.                           C000000000298000000000000000000000100010010000000000000000000000F0010000009545100420161212000101 00000000000000000000000000000000000000000000000000000000000000000000000000000000000000000000000000000000000000000N 00000000000NCONT   00    00000000000          00000000000000000000000000000000000000000000 000000000000000A000000000000000000000000000000000000000000000 000000000000000000000000000000000000000     00000000                                                                                                                        000000000000000000
F0010000009545100005000089010260300013552100000000000000000201612120002001FEDERICO OSORIO A. S.A.                           D000000000298000000000000000000000100010010000000000000000000000F0010000009545100520161212000101 00000000000000000000000000000000000000000000000000000000000000000000000000000000000000000000000000000000000000000N 00000000000NCONT   00    00000000000          00000000000000000000000000000000000000000000 000000000000000A000000000000000000000000000000000000000000000 000000000000000000000000000000000000000     00000000                                                                                                                        000000000000000000
F0010000009545200001000080202094000013050500000000000000000201612120002001DISTRIB. OMAR ORREGO S.A.                         D000000042154500000000000000000000100010010000000000000000000000F0010000009545200120161212000101 00000000000000000000000000000000000000000000000000000000000000000000000000000000000000000000000000000000000000000N 00000000000NCONT   00    00000000000          00000000000000000000000000000000000000000000 000000000000000A000000000000000000000000000000000000000000000 000000000000000000000000000000000000000     00000000                                                                                                                        000000000000000000
F0010000009545200002000080202094000041450500000000000000000201612120002001DISTRIB. OMAR ORREGO S.A.                         C000000023300000000000000000000000100010010000000000000000000000F0010000009545200220161212000101 00000000000000000000000000000000000000000000000000000000000000000000000000000000000000000000000000000000000000000N 00000000000NCONT   00    00000000000          00000000000000000000000000000000000000000000 000000000000000A000000000000000000000000000000000000000000000 000000000000000000000000000000000000000     00000000                                                                                                                        000000000000000000
F0010000009545200003000080202094000042505000000000000000000201612120002001DISTRIB. OMAR ORREGO S.A.                         C000000018854500000000000000000000100010010000000000000000000000F0010000009545200320161212000101 00000000000000000000000000000000000000000000000000000000000000000000000000000000000000000000000000000000000000000N 00000000000NCONT   00    00000000000          00000000000000000000000000000000000000000000 000000000000000A000000000000000000000000000000000000000000000 000000000000000000000000000000000000000     00000000                                                                                                                        000000000000000000
F0010000009545200004000080202094000023658300000000000000000201612120002001DISTRIB. OMAR ORREGO S.A.                         C000000000186400000000000000000000100010010000000000000000000000F0010000009545200420161212000101 00000000000000000000000000000000000000000000000000000000000000000000000000000000000000000000000000000000000000000N 00000000000NCONT   00    00000000000          00000000000000000000000000000000000000000000 000000000000000A000000000000000000000000000000000000000000000 000000000000000000000000000000000000000     00000000                                                                                                                        000000000000000000
F0010000009545200005000080202094000013552100000000000000000201612120002001DISTRIB. OMAR ORREGO S.A.                         D000000000186400000000000000000000100010010000000000000000000000F0010000009545200520161212000101 00000000000000000000000000000000000000000000000000000000000000000000000000000000000000000000000000000000000000000N 00000000000NCONT   00    00000000000          00000000000000000000000000000000000000000000 000000000000000A000000000000000000000000000000000000000000000 000000000000000000000000000000000000000     00000000                                                                                                                        000000000000000000
F0010000009545300001000083007900600013050500000000000000000201612120002001EXPRESO ANDINO DE CARGA SA                        D000000101160000000000000000000000100010010000000000000000000000F0010000009545300120161212000101 00000000000000000000000000000000000000000000000000000000000000000000000000000000000000000000000000000000000000000N 00000000000NCONT   00    00000000000          00000000000000000000000000000000000000000000 000000000000000A000000000000000000000000000000000000000000000 000000000000000000000000000000000000000     00000000                                                                                                                        000000000000000000
F0010000009545300002000083007900600041450500000000000000000201612120002001EXPRESO ANDINO DE CARGA SA                        C000000100860000000000000000000000100010010000000000000000000000F0010000009545300220161212000101 00000000000000000000000000000000000000000000000000000000000000000000000000000000000000000000000000000000000000000N 00000000000NCONT   00    00000000000          00000000000000000000000000000000000000000000 000000000000000A000000000000000000000000000000000000000000000 000000000000000000000000000000000000000     00000000                                                                                                                        000000000000000000
F0010000009545300003000083007900600042505000000000000000000201612120002001EXPRESO ANDINO DE CARGA SA                        C000000000300000000000000000000000100010010000000000000000000000F0010000009545300320161212000101 00000000000000000000000000000000000000000000000000000000000000000000000000000000000000000000000000000000000000000N 00000000000NCONT   00    00000000000          00000000000000000000000000000000000000000000 000000000000000A000000000000000000000000000000000000000000000 000000000000000000000000000000000000000     00000000                                                                                                                        000000000000000000
F0010000009545300004000083007900600023658300000000000000000201612120002001EXPRESO ANDINO DE CARGA SA                        C000000000806900000000000000000000100010010000000000000000000000F0010000009545300420161212000101 00000000000000000000000000000000000000000000000000000000000000000000000000000000000000000000000000000000000000000N 00000000000NCONT   00    00000000000          00000000000000000000000000000000000000000000 000000000000000A000000000000000000000000000000000000000000000 000000000000000000000000000000000000000     00000000                                                                                                                        000000000000000000
F0010000009545300005000083007900600013552100000000000000000201612120002001EXPRESO ANDINO DE CARGA SA                        D000000000806900000000000000000000100010010000000000000000000000F0010000009545300520161212000101 00000000000000000000000000000000000000000000000000000000000000000000000000000000000000000000000000000000000000000N 00000000000NCONT   00    00000000000          00000000000000000000000000000000000000000000 000000000000000A000000000000000000000000000000000000000000000 000000000000000000000000000000000000000     00000000                                                                                                                        000000000000000000
F0010000009545400001000083007900600013050500000000000000000201612120002001EXPRESO ANDINO DE CARGA SA                        D000000025200000000000000000000000100010010000000000000000000000F0010000009545400120161212000101 00000000000000000000000000000000000000000000000000000000000000000000000000000000000000000000000000000000000000000N 00000000000NCONT   00    00000000000          00000000000000000000000000000000000000000000 000000000000000A000000000000000000000000000000000000000000000 000000000000000000000000000000000000000     00000000                                                                                                                        000000000000000000
F0010000009545400002000083007900600041450500000000000000000201612120002001EXPRESO ANDINO DE CARGA SA                        C000000024600000000000000000000000100010010000000000000000000000F0010000009545400220161212000101 00000000000000000000000000000000000000000000000000000000000000000000000000000000000000000000000000000000000000000N 00000000000NCONT   00    00000000000          00000000000000000000000000000000000000000000 000000000000000A000000000000000000000000000000000000000000000 000000000000000000000000000000000000000     00000000                                                                                                                        000000000000000000
F0010000009545400003000083007900600042505000000000000000000201612120002001EXPRESO ANDINO DE CARGA SA                        C000000000600000000000000000000000100010010000000000000000000000F0010000009545400320161212000101 00000000000000000000000000000000000000000000000000000000000000000000000000000000000000000000000000000000000000000N 00000000000NCONT   00    00000000000          00000000000000000000000000000000000000000000 000000000000000A000000000000000000000000000000000000000000000 000000000000000000000000000000000000000     00000000                                                                                                                        000000000000000000
F0010000009545400004000083007900600023658300000000000000000201612120002001EXPRESO ANDINO DE CARGA SA                        C000000000196800000000000000000000100010010000000000000000000000F0010000009545400420161212000101 00000000000000000000000000000000000000000000000000000000000000000000000000000000000000000000000000000000000000000N 00000000000NCONT   00    00000000000          00000000000000000000000000000000000000000000 000000000000000A000000000000000000000000000000000000000000000 000000000000000000000000000000000000000     00000000                                                                                                                        000000000000000000
F0010000009545400005000083007900600013552100000000000000000201612120002001EXPRESO ANDINO DE CARGA SA                        D000000000196800000000000000000000100010010000000000000000000000F0010000009545400520161212000101 00000000000000000000000000000000000000000000000000000000000000000000000000000000000000000000000000000000000000000N 00000000000NCONT   00    00000000000          00000000000000000000000000000000000000000000 000000000000000A000000000000000000000000000000000000000000000 000000000000000000000000000000000000000     00000000                                                                                                                        000000000000000000
F0010000009545500001000080201112800013050500000000000000000201612120002001CANGURO INTERNATIONAL S.A.                        D000000180650500000000000000000000100010010000000000000000000000F0010000009545500120161212000101 00000000000000000000000000000000000000000000000000000000000000000000000000000000000000000000000000000000000000000N 00000000000NCONT   00    00000000000          00000000000000000000000000000000000000000000 000000000000000A000000000000000000000000000000000000000000000 000000000000000000000000000000000000000     00000000                                                                                                                        000000000000000000
F0010000009545500002000080201112800041450500000000000000000201612120002001CANGURO INTERNATIONAL S.A.                        C000000180650500000000000000000000100010010000000000000000000000F0010000009545500220161212000101 00000000000000000000000000000000000000000000000000000000000000000000000000000000000000000000000000000000000000000N 00000000000NCONT   00    00000000000          00000000000000000000000000000000000000000000 000000000000000A000000000000000000000000000000000000000000000 000000000000000000000000000000000000000     00000000                                                                                                                        000000000000000000
F0010000009545500003000080201112800042505000000000000000000201612120002001CANGURO INTERNATIONAL S.A.                        C000000000000000000000000000000000100010010000000000000000000000F0010000009545500320161212000101 00000000000000000000000000000000000000000000000000000000000000000000000000000000000000000000000000000000000000000N 00000000000NCONT   00    00000000000          00000000000000000000000000000000000000000000 000000000000000A000000000000000000000000000000000000000000000 000000000000000000000000000000000000000     00000000                                                                                                                        000000000000000000
F0010000009545500004000080201112800023658300000000000000000201612120002001CANGURO INTERNATIONAL S.A.                        C000000001445200000000000000000000100010010000000000000000000000F0010000009545500420161212000101 00000000000000000000000000000000000000000000000000000000000000000000000000000000000000000000000000000000000000000N 00000000000NCONT   00    00000000000          00000000000000000000000000000000000000000000 000000000000000A000000000000000000000000000000000000000000000 000000000000000000000000000000000000000     00000000                                                                                                                        000000000000000000
F0010000009545500005000080201112800013552100000000000000000201612120002001CANGURO INTERNATIONAL S.A.                        D000000001445200000000000000000000100010010000000000000000000000F0010000009545500520161212000101 00000000000000000000000000000000000000000000000000000000000000000000000000000000000000000000000000000000000000000N 00000000000NCONT   00    00000000000          00000000000000000000000000000000000000000000 000000000000000A000000000000000000000000000000000000000000000 000000000000000000000000000000000000000     00000000                                                                                                                        000000000000000000
F0010000009545600001000080200863700013050500000000000000000201612120002001COPIN S.A.S                                       D000000088494400000000000000000000100010010000000000000000000000F0010000009545600120161212000101 00000000000000000000000000000000000000000000000000000000000000000000000000000000000000000000000000000000000000000N 00000000000NCONT   00    00000000000          00000000000000000000000000000000000000000000 000000000000000A000000000000000000000000000000000000000000000 000000000000000000000000000000000000000     00000000                                                                                                                        000000000000000000
F0010000009545600002000080200863700041450500000000000000000201612120002001COPIN S.A.S                                       C000000081190400000000000000000000100010010000000000000000000000F0010000009545600220161212000101 00000000000000000000000000000000000000000000000000000000000000000000000000000000000000000000000000000000000000000N 00000000000NCONT   00    00000000000          00000000000000000000000000000000000000000000 000000000000000A000000000000000000000000000000000000000000000 000000000000000000000000000000000000000     00000000                                                                                                                        000000000000000000
F0010000009545600003000080200863700042505000000000000000000201612120002001COPIN S.A.S                                       C000000007304000000000000000000000100010010000000000000000000000F0010000009545600320161212000101 00000000000000000000000000000000000000000000000000000000000000000000000000000000000000000000000000000000000000000N 00000000000NCONT   00    00000000000          00000000000000000000000000000000000000000000 000000000000000A000000000000000000000000000000000000000000000 000000000000000000000000000000000000000     00000000                                                                                                                        000000000000000000
F0010000009545600004000080200863700023658300000000000000000201612120002001COPIN S.A.S                                       C000000000649500000000000000000000100010010000000000000000000000F0010000009545600420161212000101 00000000000000000000000000000000000000000000000000000000000000000000000000000000000000000000000000000000000000000N 00000000000NCONT   00    00000000000          00000000000000000000000000000000000000000000 000000000000000A000000000000000000000000000000000000000000000 000000000000000000000000000000000000000     00000000                                                                                                                        000000000000000000
F0010000009545600005000080200863700013552100000000000000000201612120002001COPIN S.A.S                                       D000000000649500000000000000000000100010010000000000000000000000F0010000009545600520161212000101 00000000000000000000000000000000000000000000000000000000000000000000000000000000000000000000000000000000000000000N 00000000000NCONT   00    00000000000          00000000000000000000000000000000000000000000 000000000000000A000000000000000000000000000000000000000000000 000000000000000000000000000000000000000     00000000                                                                                                                        000000000000000000
F0010000009545700001000089080176300013050500000000000000000201612120002001SEGAR S.A.                                        D000000083989200000000000000000000100010010000000000000000000000F0010000009545700120161212000101 00000000000000000000000000000000000000000000000000000000000000000000000000000000000000000000000000000000000000000N 00000000000NCONT   00    00000000000          00000000000000000000000000000000000000000000 000000000000000A000000000000000000000000000000000000000000000 000000000000000000000000000000000000000     00000000                                                                                                                        000000000000000000
F0010000009545700002000089080176300041450500000000000000000201612120002001SEGAR S.A.                                        C000000072860000000000000000000000100010010000000000000000000000F0010000009545700220161212000101 00000000000000000000000000000000000000000000000000000000000000000000000000000000000000000000000000000000000000000N 00000000000NCONT   00    00000000000          00000000000000000000000000000000000000000000 000000000000000A000000000000000000000000000000000000000000000 000000000000000000000000000000000000000     00000000                                                                                                                        000000000000000000
F0010000009545700003000089080176300042505000000000000000000201612120002001SEGAR S.A.                                        C000000011129200000000000000000000100010010000000000000000000000F0010000009545700320161212000101 00000000000000000000000000000000000000000000000000000000000000000000000000000000000000000000000000000000000000000N 00000000000NCONT   00    00000000000          00000000000000000000000000000000000000000000 000000000000000A000000000000000000000000000000000000000000000 000000000000000000000000000000000000000     00000000                                                                                                                        000000000000000000
F0010000009545700004000089080176300023658300000000000000000201612120002001SEGAR S.A.                                        C000000000582900000000000000000000100010010000000000000000000000F0010000009545700420161212000101 00000000000000000000000000000000000000000000000000000000000000000000000000000000000000000000000000000000000000000N 00000000000NCONT   00    00000000000          00000000000000000000000000000000000000000000 000000000000000A000000000000000000000000000000000000000000000 000000000000000000000000000000000000000     00000000                                                                                                                        000000000000000000
F0010000009545700005000089080176300013552100000000000000000201612120002001SEGAR S.A.                                        D000000000582900000000000000000000100010010000000000000000000000F0010000009545700520161212000101 00000000000000000000000000000000000000000000000000000000000000000000000000000000000000000000000000000000000000000N 00000000000NCONT   00    00000000000          00000000000000000000000000000000000000000000 000000000000000A000000000000000000000000000000000000000000000 000000000000000000000000000000000000000     00000000                                                                                                                        000000000000000000
F0010000009545800001000090052543100013050500000000000000000201612120002001SECRET COLOR SAS                                  D000000026840000000000000000000000100010010000000000000000000000F0010000009545800120161212000101 00000000000000000000000000000000000000000000000000000000000000000000000000000000000000000000000000000000000000000N 00000000000NCONT   00    00000000000          00000000000000000000000000000000000000000000 000000000000000A000000000000000000000000000000000000000000000 000000000000000000000000000000000000000     00000000                                                                                                                        000000000000000000
F0010000009545800002000090052543100041450500000000000000000201612120002001SECRET COLOR SAS                                  C000000026840000000000000000000000100010010000000000000000000000F0010000009545800220161212000101 00000000000000000000000000000000000000000000000000000000000000000000000000000000000000000000000000000000000000000N 00000000000NCONT   00    00000000000          00000000000000000000000000000000000000000000 000000000000000A000000000000000000000000000000000000000000000 000000000000000000000000000000000000000     00000000                                                                                                                        000000000000000000
F0010000009545800003000090052543100042505000000000000000000201612120002001SECRET COLOR SAS                                  C000000000000000000000000000000000100010010000000000000000000000F0010000009545800320161212000101 00000000000000000000000000000000000000000000000000000000000000000000000000000000000000000000000000000000000000000N 00000000000NCONT   00    00000000000          00000000000000000000000000000000000000000000 000000000000000A000000000000000000000000000000000000000000000 000000000000000000000000000000000000000     00000000                                                                                                                        000000000000000000
F0010000009545800004000090052543100023658300000000000000000201612120002001SECRET COLOR SAS                                  C000000000214700000000000000000000100010010000000000000000000000F0010000009545800420161212000101 00000000000000000000000000000000000000000000000000000000000000000000000000000000000000000000000000000000000000000N 00000000000NCONT   00    00000000000          00000000000000000000000000000000000000000000 000000000000000A000000000000000000000000000000000000000000000 000000000000000000000000000000000000000     00000000                                                                                                                        000000000000000000
F0010000009545800005000090052543100013552100000000000000000201612120002001SECRET COLOR SAS                                  D000000000214700000000000000000000100010010000000000000000000000F0010000009545800520161212000101 00000000000000000000000000000000000000000000000000000000000000000000000000000000000000000000000000000000000000000N 00000000000NCONT   00    00000000000          00000000000000000000000000000000000000000000 000000000000000A000000000000000000000000000000000000000000000 000000000000000000000000000000000000000     00000000                                                                                                                        000000000000000000
F0010000009545900001000080016664500013050500000000000000000201612120002001TELAPLAS PANCER SAS                               D000000030648200000000000000000000100010010000000000000000000000F0010000009545900120161212000101 00000000000000000000000000000000000000000000000000000000000000000000000000000000000000000000000000000000000000000N 00000000000NCONT   00    00000000000          00000000000000000000000000000000000000000000 000000000000000A000000000000000000000000000000000000000000000 000000000000000000000000000000000000000     00000000                                                                                                                        000000000000000000
F0010000009545900002000080016664500041450500000000000000000201612120002001TELAPLAS PANCER SAS                               C000000024800000000000000000000000100010010000000000000000000000F0010000009545900220161212000101 00000000000000000000000000000000000000000000000000000000000000000000000000000000000000000000000000000000000000000N 00000000000NCONT   00    00000000000          00000000000000000000000000000000000000000000 000000000000000A000000000000000000000000000000000000000000000 000000000000000000000000000000000000000     00000000                                                                                                                        000000000000000000
F0010000009545900003000080016664500042505000000000000000000201612120002001TELAPLAS PANCER SAS                               C000000005848200000000000000000000100010010000000000000000000000F0010000009545900320161212000101 00000000000000000000000000000000000000000000000000000000000000000000000000000000000000000000000000000000000000000N 00000000000NCONT   00    00000000000          00000000000000000000000000000000000000000000 000000000000000A000000000000000000000000000000000000000000000 000000000000000000000000000000000000000     00000000                                                                                                                        000000000000000000
F0010000009545900004000080016664500023658300000000000000000201612120002001TELAPLAS PANCER SAS                               C000000000198400000000000000000000100010010000000000000000000000F0010000009545900420161212000101 00000000000000000000000000000000000000000000000000000000000000000000000000000000000000000000000000000000000000000N 00000000000NCONT   00    00000000000          00000000000000000000000000000000000000000000 000000000000000A000000000000000000000000000000000000000000000 000000000000000000000000000000000000000     00000000                                                                                                                        000000000000000000
F0010000009545900005000080016664500013552100000000000000000201612120002001TELAPLAS PANCER SAS                               D000000000198400000000000000000000100010010000000000000000000000F0010000009545900520161212000101 00000000000000000000000000000000000000000000000000000000000000000000000000000000000000000000000000000000000000000N 00000000000NCONT   00    00000000000          00000000000000000000000000000000000000000000 000000000000000A000000000000000000000000000000000000000000000 000000000000000000000000000000000000000     00000000                                                                                                                        000000000000000000
F0010000009546000001000080002300200013050500000000000000000201612120002001DISREL S.A.                                       D000000027400000000000000000000000100010010000000000000000000000F0010000009546000120161212000101 00000000000000000000000000000000000000000000000000000000000000000000000000000000000000000000000000000000000000000N 00000000000NCONT   00    00000000000          00000000000000000000000000000000000000000000 000000000000000A000000000000000000000000000000000000000000000 000000000000000000000000000000000000000     00000000                                                                                                                        000000000000000000
F0010000009546000002000080002300200041450500000000000000000201612120002001DISREL S.A.                                       C000000024200000000000000000000000100010010000000000000000000000F0010000009546000220161212000101 00000000000000000000000000000000000000000000000000000000000000000000000000000000000000000000000000000000000000000N 00000000000NCONT   00    00000000000          00000000000000000000000000000000000000000000 000000000000000A000000000000000000000000000000000000000000000 000000000000000000000000000000000000000     00000000                                                                                                                        000000000000000000
F0010000009546000003000080002300200042505000000000000000000201612120002001DISREL S.A.                                       C000000003200000000000000000000000100010010000000000000000000000F0010000009546000320161212000101 00000000000000000000000000000000000000000000000000000000000000000000000000000000000000000000000000000000000000000N 00000000000NCONT   00    00000000000          00000000000000000000000000000000000000000000 000000000000000A000000000000000000000000000000000000000000000 000000000000000000000000000000000000000     00000000                                                                                                                        000000000000000000
F0010000009546000004000080002300200023658300000000000000000201612120002001DISREL S.A.                                       C000000000193600000000000000000000100010010000000000000000000000F0010000009546000420161212000101 00000000000000000000000000000000000000000000000000000000000000000000000000000000000000000000000000000000000000000N 00000000000NCONT   00    00000000000          00000000000000000000000000000000000000000000 000000000000000A000000000000000000000000000000000000000000000 000000000000000000000000000000000000000     00000000                                                                                                                        000000000000000000
F0010000009546000005000080002300200013552100000000000000000201612120002001DISREL S.A.                                       D000000000193600000000000000000000100010010000000000000000000000F0010000009546000520161212000101 00000000000000000000000000000000000000000000000000000000000000000000000000000000000000000000000000000000000000000N 00000000000NCONT   00    00000000000          00000000000000000000000000000000000000000000 000000000000000A000000000000000000000000000000000000000000000 000000000000000000000000000000000000000     00000000                                                                                                                        000000000000000000
F0010000009546100001000090040928000013050500000000000000000201612120002001DISTRIBUCIONES FERRETERAS OTERO & AGUDELO SAS     D000000012636300000000000000000000100010010000000000000000000000F0010000009546100120161212000101 00000000000000000000000000000000000000000000000000000000000000000000000000000000000000000000000000000000000000000N 00000000000NCONT   00    00000000000          00000000000000000000000000000000000000000000 000000000000000A000000000000000000000000000000000000000000000 000000000000000000000000000000000000000     00000000                                                                                                                        000000000000000000
F0010000009546100002000090040928000041450500000000000000000201612120002001DISTRIBUCIONES FERRETERAS OTERO & AGUDELO SAS     C000000011335500000000000000000000100010010000000000000000000000F0010000009546100220161212000101 00000000000000000000000000000000000000000000000000000000000000000000000000000000000000000000000000000000000000000N 00000000000NCONT   00    00000000000          00000000000000000000000000000000000000000000 000000000000000A000000000000000000000000000000000000000000000 000000000000000000000000000000000000000     00000000                                                                                                                        000000000000000000
F0010000009546100003000090040928000042505000000000000000000201612120002001DISTRIBUCIONES FERRETERAS OTERO & AGUDELO SAS     C000000001300800000000000000000000100010010000000000000000000000F0010000009546100320161212000101 00000000000000000000000000000000000000000000000000000000000000000000000000000000000000000000000000000000000000000N 00000000000NCONT   00    00000000000          00000000000000000000000000000000000000000000 000000000000000A000000000000000000000000000000000000000000000 000000000000000000000000000000000000000     00000000                                                                                                                        000000000000000000
F0010000009546100004000090040928000023658300000000000000000201612120002001DISTRIBUCIONES FERRETERAS OTERO & AGUDELO SAS     C000000000090700000000000000000000100010010000000000000000000000F0010000009546100420161212000101 00000000000000000000000000000000000000000000000000000000000000000000000000000000000000000000000000000000000000000N 00000000000NCONT   00    00000000000          00000000000000000000000000000000000000000000 000000000000000A000000000000000000000000000000000000000000000 000000000000000000000000000000000000000     00000000                                                                                                                        000000000000000000
F0010000009546100005000090040928000013552100000000000000000201612120002001DISTRIBUCIONES FERRETERAS OTERO & AGUDELO SAS     D000000000090700000000000000000000100010010000000000000000000000F0010000009546100520161212000101 00000000000000000000000000000000000000000000000000000000000000000000000000000000000000000000000000000000000000000N 00000000000NCONT   00    00000000000          00000000000000000000000000000000000000000000 000000000000000A000000000000000000000000000000000000000000000 000000000000000000000000000000000000000     00000000                                                                                                                        000000000000000000
F0010000009546200001000080004943800013050500000000000000000201612120002001PAPELERIA EL CID S.A.                             D000000044275000000000000000000000100010010000000000000000000000F0010000009546200120161212000101 00000000000000000000000000000000000000000000000000000000000000000000000000000000000000000000000000000000000000000N 00000000000NCONT   00    00000000000          00000000000000000000000000000000000000000000 000000000000000A000000000000000000000000000000000000000000000 000000000000000000000000000000000000000     00000000                                                                                                                        000000000000000000
F0010000009546200002000080004943800041450500000000000000000201612120002001PAPELERIA EL CID S.A.                             C000000036040000000000000000000000100010010000000000000000000000F0010000009546200220161212000101 00000000000000000000000000000000000000000000000000000000000000000000000000000000000000000000000000000000000000000N 00000000000NCONT   00    00000000000          00000000000000000000000000000000000000000000 000000000000000A000000000000000000000000000000000000000000000 000000000000000000000000000000000000000     00000000                                                                                                                        000000000000000000
F0010000009546200003000080004943800042505000000000000000000201612120002001PAPELERIA EL CID S.A.                             C000000008235000000000000000000000100010010000000000000000000000F0010000009546200320161212000101 00000000000000000000000000000000000000000000000000000000000000000000000000000000000000000000000000000000000000000N 00000000000NCONT   00    00000000000          00000000000000000000000000000000000000000000 000000000000000A000000000000000000000000000000000000000000000 000000000000000000000000000000000000000     00000000                                                                                                                        000000000000000000
F0010000009546200004000080004943800023658300000000000000000201612120002001PAPELERIA EL CID S.A.                             C000000000288300000000000000000000100010010000000000000000000000F0010000009546200420161212000101 00000000000000000000000000000000000000000000000000000000000000000000000000000000000000000000000000000000000000000N 00000000000NCONT   00    00000000000          00000000000000000000000000000000000000000000 000000000000000A000000000000000000000000000000000000000000000 000000000000000000000000000000000000000     00000000                                                                                                                        000000000000000000
F0010000009546200005000080004943800013552100000000000000000201612120002001PAPELERIA EL CID S.A.                             D000000000288300000000000000000000100010010000000000000000000000F0010000009546200520161212000101 00000000000000000000000000000000000000000000000000000000000000000000000000000000000000000000000000000000000000000N 00000000000NCONT   00    00000000000          00000000000000000000000000000000000000000000 000000000000000A000000000000000000000000000000000000000000000 000000000000000000000000000000000000000     00000000                                                                                                                        000000000000000000
F0010000009546300001000003273290300013050500000000000000000201612120002001YANETH GOMEZ ROJANO -  COMERCIALIZADORA YG        D000000016397200000000000000000000100010010000000000000000000000F0010000009546300120161212000101 00000000000000000000000000000000000000000000000000000000000000000000000000000000000000000000000000000000000000000N 00000000000NCONT   00    00000000000          00000000000000000000000000000000000000000000 000000000000000A000000000000000000000000000000000000000000000 000000000000000000000000000000000000000     00000000                                                                                                                        000000000000000000
F0010000009546300002000003273290300041450500000000000000000201612120002001YANETH GOMEZ ROJANO -  COMERCIALIZADORA YG        C000000012150000000000000000000000100010010000000000000000000000F0010000009546300220161212000101 00000000000000000000000000000000000000000000000000000000000000000000000000000000000000000000000000000000000000000N 00000000000NCONT   00    00000000000          00000000000000000000000000000000000000000000 000000000000000A000000000000000000000000000000000000000000000 000000000000000000000000000000000000000     00000000                                                                                                                        000000000000000000
F0010000009546300003000003273290300042505000000000000000000201612120002001YANETH GOMEZ ROJANO -  COMERCIALIZADORA YG        C000000004247200000000000000000000100010010000000000000000000000F0010000009546300320161212000101 00000000000000000000000000000000000000000000000000000000000000000000000000000000000000000000000000000000000000000N 00000000000NCONT   00    00000000000          00000000000000000000000000000000000000000000 000000000000000A000000000000000000000000000000000000000000000 000000000000000000000000000000000000000     00000000                                                                                                                        000000000000000000
F0010000009546300004000003273290300023658300000000000000000201612120002001YANETH GOMEZ ROJANO -  COMERCIALIZADORA YG        C000000000097200000000000000000000100010010000000000000000000000F0010000009546300420161212000101 00000000000000000000000000000000000000000000000000000000000000000000000000000000000000000000000000000000000000000N 00000000000NCONT   00    00000000000          00000000000000000000000000000000000000000000 000000000000000A000000000000000000000000000000000000000000000 000000000000000000000000000000000000000     00000000                                                                                                                        000000000000000000
F0010000009546300005000003273290300013552100000000000000000201612120002001YANETH GOMEZ ROJANO -  COMERCIALIZADORA YG        D000000000097200000000000000000000100010010000000000000000000000F0010000009546300520161212000101 00000000000000000000000000000000000000000000000000000000000000000000000000000000000000000000000000000000000000000N 00000000000NCONT   00    00000000000          00000000000000000000000000000000000000000000 000000000000000A000000000000000000000000000000000000000000000 000000000000000000000000000000000000000     00000000                                                                                                                        000000000000000000
F0010000009546400001000090064982900013050500000000000000000201612120002001DISDIES S.A.S                                     D000000101825400000000000000000000100010010000000000000000000000F0010000009546400120161212000101 00000000000000000000000000000000000000000000000000000000000000000000000000000000000000000000000000000000000000000N 00000000000NCONT   00    00000000000          00000000000000000000000000000000000000000000 000000000000000A000000000000000000000000000000000000000000000 000000000000000000000000000000000000000     00000000                                                                                                                        000000000000000000
F0010000009546400002000090064982900041450500000000000000000201612120002001DISDIES S.A.S                                     C000000089211400000000000000000000100010010000000000000000000000F0010000009546400220161212000101 00000000000000000000000000000000000000000000000000000000000000000000000000000000000000000000000000000000000000000N 00000000000NCONT   00    00000000000          00000000000000000000000000000000000000000000 000000000000000A000000000000000000000000000000000000000000000 000000000000000000000000000000000000000     00000000                                                                                                                        000000000000000000
F0010000009546400003000090064982900042505000000000000000000201612120002001DISDIES S.A.S                                     C000000012614000000000000000000000100010010000000000000000000000F0010000009546400320161212000101 00000000000000000000000000000000000000000000000000000000000000000000000000000000000000000000000000000000000000000N 00000000000NCONT   00    00000000000          00000000000000000000000000000000000000000000 000000000000000A000000000000000000000000000000000000000000000 000000000000000000000000000000000000000     00000000                                                                                                                        000000000000000000
F0010000009546400004000090064982900023658300000000000000000201612120002001DISDIES S.A.S                                     C000000000713700000000000000000000100010010000000000000000000000F0010000009546400420161212000101 00000000000000000000000000000000000000000000000000000000000000000000000000000000000000000000000000000000000000000N 00000000000NCONT   00    00000000000          00000000000000000000000000000000000000000000 000000000000000A000000000000000000000000000000000000000000000 000000000000000000000000000000000000000     00000000                                                                                                                        000000000000000000
F0010000009546400005000090064982900013552100000000000000000201612120002001DISDIES S.A.S                                     D000000000713700000000000000000000100010010000000000000000000000F0010000009546400520161212000101 00000000000000000000000000000000000000000000000000000000000000000000000000000000000000000000000000000000000000000N 00000000000NCONT   00    00000000000          00000000000000000000000000000000000000000000 000000000000000A000000000000000000000000000000000000000000000 000000000000000000000000000000000000000     00000000                                                                                                                        000000000000000000
F0010000009546600001000000748239700013050500000000000000000201612120002001RAFAEL NAVARRO URIBE                              D000000056867500000000000000000000100010010000000000000000000000F0010000009546600120161212000101 00000000000000000000000000000000000000000000000000000000000000000000000000000000000000000000000000000000000000000N 00000000000NCONT   00    00000000000          00000000000000000000000000000000000000000000 000000000000000A000000000000000000000000000000000000000000000 000000000000000000000000000000000000000     00000000                                                                                                                        000000000000000000
F0010000009546600002000000748239700041450500000000000000000201612120002001RAFAEL NAVARRO URIBE                              C000000046380000000000000000000000100010010000000000000000000000F0010000009546600220161212000101 00000000000000000000000000000000000000000000000000000000000000000000000000000000000000000000000000000000000000000N 00000000000NCONT   00    00000000000          00000000000000000000000000000000000000000000 000000000000000A000000000000000000000000000000000000000000000 000000000000000000000000000000000000000     00000000                                                                                                                        000000000000000000
F0010000009546600003000000748239700042505000000000000000000201612120002001RAFAEL NAVARRO URIBE                              C000000010487500000000000000000000100010010000000000000000000000F0010000009546600320161212000101 00000000000000000000000000000000000000000000000000000000000000000000000000000000000000000000000000000000000000000N 00000000000NCONT   00    00000000000          00000000000000000000000000000000000000000000 000000000000000A000000000000000000000000000000000000000000000 000000000000000000000000000000000000000     00000000                                                                                                                        000000000000000000
F0010000009546600004000000748239700023658300000000000000000201612120002001RAFAEL NAVARRO URIBE                              C000000000371000000000000000000000100010010000000000000000000000F0010000009546600420161212000101 00000000000000000000000000000000000000000000000000000000000000000000000000000000000000000000000000000000000000000N 00000000000NCONT   00    00000000000          00000000000000000000000000000000000000000000 000000000000000A000000000000000000000000000000000000000000000 000000000000000000000000000000000000000     00000000                                                                                                                        000000000000000000
F0010000009546600005000000748239700013552100000000000000000201612120002001RAFAEL NAVARRO URIBE                              D000000000371000000000000000000000100010010000000000000000000000F0010000009546600520161212000101 00000000000000000000000000000000000000000000000000000000000000000000000000000000000000000000000000000000000000000N 00000000000NCONT   00    00000000000          00000000000000000000000000000000000000000000 000000000000000A000000000000000000000000000000000000000000000 000000000000000000000000000000000000000     00000000                                                                                                                        000000000000000000
F0010000009546700001000090008711200013050500000000000000000201612120002001PACKAGING SUPPLIERS S.A.                          D000000014680400000000000000000000100010010000000000000000000000F0010000009546700120161212000101 00000000000000000000000000000000000000000000000000000000000000000000000000000000000000000000000000000000000000000N 00000000000NCONT   00    00000000000          00000000000000000000000000000000000000000000 000000000000000A000000000000000000000000000000000000000000000 000000000000000000000000000000000000000     00000000                                                                                                                        000000000000000000
F0010000009546700002000090008711200041450500000000000000000201612120002001PACKAGING SUPPLIERS S.A.                          C000000012903600000000000000000000100010010000000000000000000000F0010000009546700220161212000101 00000000000000000000000000000000000000000000000000000000000000000000000000000000000000000000000000000000000000000N 00000000000NCONT   00    00000000000          00000000000000000000000000000000000000000000 000000000000000A000000000000000000000000000000000000000000000 000000000000000000000000000000000000000     00000000                                                                                                                        000000000000000000
F0010000009546700003000090008711200042505000000000000000000201612120002001PACKAGING SUPPLIERS S.A.                          C000000001776800000000000000000000100010010000000000000000000000F0010000009546700320161212000101 00000000000000000000000000000000000000000000000000000000000000000000000000000000000000000000000000000000000000000N 00000000000NCONT   00    00000000000          00000000000000000000000000000000000000000000 000000000000000A000000000000000000000000000000000000000000000 000000000000000000000000000000000000000     00000000                                                                                                                        000000000000000000
F0010000009546700004000090008711200023658300000000000000000201612120002001PACKAGING SUPPLIERS S.A.                          C000000000103200000000000000000000100010010000000000000000000000F0010000009546700420161212000101 00000000000000000000000000000000000000000000000000000000000000000000000000000000000000000000000000000000000000000N 00000000000NCONT   00    00000000000          00000000000000000000000000000000000000000000 000000000000000A000000000000000000000000000000000000000000000 000000000000000000000000000000000000000     00000000                                                                                                                        000000000000000000
F0010000009546700005000090008711200013552100000000000000000201612120002001PACKAGING SUPPLIERS S.A.                          D000000000103200000000000000000000100010010000000000000000000000F0010000009546700520161212000101 00000000000000000000000000000000000000000000000000000000000000000000000000000000000000000000000000000000000000000N 00000000000NCONT   00    00000000000          00000000000000000000000000000000000000000000 000000000000000A000000000000000000000000000000000000000000000 000000000000000000000000000000000000000     00000000                                                                                                                        000000000000000000
F0010000009546800001000000870907300013050500000000000000000201612120002001SURTIDOR FERRETERO                                D000000022620000000000000000000000100010010000000000000000000000F0010000009546800120161212000101 00000000000000000000000000000000000000000000000000000000000000000000000000000000000000000000000000000000000000000N 00000000000NCONT   00    00000000000          00000000000000000000000000000000000000000000 000000000000000A000000000000000000000000000000000000000000000 000000000000000000000000000000000000000     00000000                                                                                                                        000000000000000000
F0010000009546800002000000870907300041450500000000000000000201612120002001SURTIDOR FERRETERO                                C000000017150000000000000000000000100010010000000000000000000000F0010000009546800220161212000101 00000000000000000000000000000000000000000000000000000000000000000000000000000000000000000000000000000000000000000N 00000000000NCONT   00    00000000000          00000000000000000000000000000000000000000000 000000000000000A000000000000000000000000000000000000000000000 000000000000000000000000000000000000000     00000000                                                                                                                        000000000000000000
F0010000009546800003000000870907300041750100000000000000000201612120002001SURTIDOR FERRETERO                                D000000001715000000000000000000000100010010000000000000000000000F0010000009546800320161212000101 00000000000000000000000000000000000000000000000000000000000000000000000000000000000000000000000000000000000000000N 00000000000NCONT   00    00000000000          00000000000000000000000000000000000000000000 000000000000000A000000000000000000000000000000000000000000000 000000000000000000000000000000000000000     00000000                                                                                                                        000000000000000000
F0010000009546800004000000870907300042505000000000000000000201612120002001SURTIDOR FERRETERO                                C000000007185000000000000000000000100010010000000000000000000000F0010000009546800420161212000101 00000000000000000000000000000000000000000000000000000000000000000000000000000000000000000000000000000000000000000N 00000000000NCONT   00    00000000000          00000000000000000000000000000000000000000000 000000000000000A000000000000000000000000000000000000000000000 000000000000000000000000000000000000000     00000000                                                                                                                        000000000000000000
F0010000009546800005000000870907300023658300000000000000000201612120002001SURTIDOR FERRETERO                                C000000000137200000000000000000000100010010000000000000000000000F0010000009546800520161212000101 00000000000000000000000000000000000000000000000000000000000000000000000000000000000000000000000000000000000000000N 00000000000NCONT   00    00000000000          00000000000000000000000000000000000000000000 000000000000000A000000000000000000000000000000000000000000000 000000000000000000000000000000000000000     00000000                                                                                                                        000000000000000000
F0010000009546800006000000870907300013552100000000000000000201612120002001SURTIDOR FERRETERO                                D000000000137200000000000000000000100010010000000000000000000000F0010000009546800620161212000101 00000000000000000000000000000000000000000000000000000000000000000000000000000000000000000000000000000000000000000N 00000000000NCONT   00    00000000000          00000000000000000000000000000000000000000000 000000000000000A000000000000000000000000000000000000000000000 000000000000000000000000000000000000000     00000000                                                                                                                        000000000000000000
F0010000009546900001000089010952800013050500000000000000000201612120002001IND. LITOGRAF. BOSTON S.A.S.                      D000000034750000000000000000000000100010010000000000000000000000F0010000009546900120161212000101 00000000000000000000000000000000000000000000000000000000000000000000000000000000000000000000000000000000000000000N 00000000000NCONT   00    00000000000          00000000000000000000000000000000000000000000 000000000000000A000000000000000000000000000000000000000000000 000000000000000000000000000000000000000     00000000                                                                                                                        000000000000000000
F0010000009546900002000089010952800041450500000000000000000201612120002001IND. LITOGRAF. BOSTON S.A.S.                      C000000031050000000000000000000000100010010000000000000000000000F0010000009546900220161212000101 00000000000000000000000000000000000000000000000000000000000000000000000000000000000000000000000000000000000000000N 00000000000NCONT   00    00000000000          00000000000000000000000000000000000000000000 000000000000000A000000000000000000000000000000000000000000000 000000000000000000000000000000000000000     00000000                                                                                                                        000000000000000000
F0010000009546900003000089010952800042505000000000000000000201612120002001IND. LITOGRAF. BOSTON S.A.S.                      C000000003700000000000000000000000100010010000000000000000000000F0010000009546900320161212000101 00000000000000000000000000000000000000000000000000000000000000000000000000000000000000000000000000000000000000000N 00000000000NCONT   00    00000000000          00000000000000000000000000000000000000000000 000000000000000A000000000000000000000000000000000000000000000 000000000000000000000000000000000000000     00000000                                                                                                                        000000000000000000
F0010000009546900004000089010952800023658300000000000000000201612120002001IND. LITOGRAF. BOSTON S.A.S.                      C000000000248400000000000000000000100010010000000000000000000000F0010000009546900420161212000101 00000000000000000000000000000000000000000000000000000000000000000000000000000000000000000000000000000000000000000N 00000000000NCONT   00    00000000000          00000000000000000000000000000000000000000000 000000000000000A000000000000000000000000000000000000000000000 000000000000000000000000000000000000000     00000000                                                                                                                        000000000000000000
F0010000009546900005000089010952800013552100000000000000000201612120002001IND. LITOGRAF. BOSTON S.A.S.                      D000000000248400000000000000000000100010010000000000000000000000F0010000009546900520161212000101 00000000000000000000000000000000000000000000000000000000000000000000000000000000000000000000000000000000000000000N 00000000000NCONT   00    00000000000          00000000000000000000000000000000000000000000 000000000000000A000000000000000000000000000000000000000000000 000000000000000000000000000000000000000     00000000                                                                                                                        000000000000000000
F0010000009547000001000086003979400013050500000000000000000201612120002001CALYPSO BARRANQUILLA LTDA                         D000000020932300000000000000000000100010010000000000000000000000F0010000009547000120161212000101 00000000000000000000000000000000000000000000000000000000000000000000000000000000000000000000000000000000000000000N 00000000000NCONT   00    00000000000          00000000000000000000000000000000000000000000 000000000000000A000000000000000000000000000000000000000000000 000000000000000000000000000000000000000     00000000                                                                                                                        000000000000000000
F0010000009547000002000086003979400041450500000000000000000201612120002001CALYPSO BARRANQUILLA LTDA                         C000000019600000000000000000000000100010010000000000000000000000F0010000009547000220161212000101 00000000000000000000000000000000000000000000000000000000000000000000000000000000000000000000000000000000000000000N 00000000000NCONT   00    00000000000          00000000000000000000000000000000000000000000 000000000000000A000000000000000000000000000000000000000000000 000000000000000000000000000000000000000     00000000                                                                                                                        000000000000000000
F0010000009547000003000086003979400042505000000000000000000201612120002001CALYPSO BARRANQUILLA LTDA                         C000000001332300000000000000000000100010010000000000000000000000F0010000009547000320161212000101 00000000000000000000000000000000000000000000000000000000000000000000000000000000000000000000000000000000000000000N 00000000000NCONT   00    00000000000          00000000000000000000000000000000000000000000 000000000000000A000000000000000000000000000000000000000000000 000000000000000000000000000000000000000     00000000                                                                                                                        000000000000000000
F0010000009547000004000086003979400023658300000000000000000201612120002001CALYPSO BARRANQUILLA LTDA                         C000000000156800000000000000000000100010010000000000000000000000F0010000009547000420161212000101 00000000000000000000000000000000000000000000000000000000000000000000000000000000000000000000000000000000000000000N 00000000000NCONT   00    00000000000          00000000000000000000000000000000000000000000 000000000000000A000000000000000000000000000000000000000000000 000000000000000000000000000000000000000     00000000                                                                                                                        000000000000000000
F0010000009547000005000086003979400013552100000000000000000201612120002001CALYPSO BARRANQUILLA LTDA                         D000000000156800000000000000000000100010010000000000000000000000F0010000009547000520161212000101 00000000000000000000000000000000000000000000000000000000000000000000000000000000000000000000000000000000000000000N 00000000000NCONT   00    00000000000          00000000000000000000000000000000000000000000 000000000000000A000000000000000000000000000000000000000000000 000000000000000000000000000000000000000     00000000                                                                                                                        000000000000000000
F0010000009547100001000090038852800013050500000000000000000201612120002001EL COMERCIO ELECTRICO DE LA CO                    D000000017950000000000000000000000100010010000000000000000000000F0010000009547100120161212000101 00000000000000000000000000000000000000000000000000000000000000000000000000000000000000000000000000000000000000000N 00000000000NCONT   00    00000000000          00000000000000000000000000000000000000000000 000000000000000A000000000000000000000000000000000000000000000 000000000000000000000000000000000000000     00000000                                                                                                                        000000000000000000
F0010000009547100002000090038852800041450500000000000000000201612120002001EL COMERCIO ELECTRICO DE LA CO                    C000000014550000000000000000000000100010010000000000000000000000F0010000009547100220161212000101 00000000000000000000000000000000000000000000000000000000000000000000000000000000000000000000000000000000000000000N 00000000000NCONT   00    00000000000          00000000000000000000000000000000000000000000 000000000000000A000000000000000000000000000000000000000000000 000000000000000000000000000000000000000     00000000                                                                                                                        000000000000000000
F0010000009547100003000090038852800042505000000000000000000201612120002001EL COMERCIO ELECTRICO DE LA CO                    C000000003400000000000000000000000100010010000000000000000000000F0010000009547100320161212000101 00000000000000000000000000000000000000000000000000000000000000000000000000000000000000000000000000000000000000000N 00000000000NCONT   00    00000000000          00000000000000000000000000000000000000000000 000000000000000A000000000000000000000000000000000000000000000 000000000000000000000000000000000000000     00000000                                                                                                                        000000000000000000
F0010000009547100004000090038852800023658300000000000000000201612120002001EL COMERCIO ELECTRICO DE LA CO                    C000000000116400000000000000000000100010010000000000000000000000F0010000009547100420161212000101 00000000000000000000000000000000000000000000000000000000000000000000000000000000000000000000000000000000000000000N 00000000000NCONT   00    00000000000          00000000000000000000000000000000000000000000 000000000000000A000000000000000000000000000000000000000000000 000000000000000000000000000000000000000     00000000                                                                                                                        000000000000000000
F0010000009547100005000090038852800013552100000000000000000201612120002001EL COMERCIO ELECTRICO DE LA CO                    D000000000116400000000000000000000100010010000000000000000000000F0010000009547100520161212000101 00000000000000000000000000000000000000000000000000000000000000000000000000000000000000000000000000000000000000000N 00000000000NCONT   00    00000000000          00000000000000000000000000000000000000000000 000000000000000A000000000000000000000000000000000000000000000 000000000000000000000000000000000000000     00000000                                                                                                                        000000000000000000
F0010000009547200001000089031248700013050500000000000000000201612120002001DISTRIBUIDORA CALIPLASTICOS LTDA                  D000000030842800000000000000000000100010010000000000000000000000F0010000009547200120161212000101 00000000000000000000000000000000000000000000000000000000000000000000000000000000000000000000000000000000000000000N 00000000000NCONT   00    00000000000          00000000000000000000000000000000000000000000 000000000000000A000000000000000000000000000000000000000000000 000000000000000000000000000000000000000     00000000                                                                                                                        000000000000000000
F0010000009547200002000089031248700041450500000000000000000201612120002001DISTRIBUIDORA CALIPLASTICOS LTDA                  C000000028967800000000000000000000100010010000000000000000000000F0010000009547200220161212000101 00000000000000000000000000000000000000000000000000000000000000000000000000000000000000000000000000000000000000000N 00000000000NCONT   00    00000000000          00000000000000000000000000000000000000000000 000000000000000A000000000000000000000000000000000000000000000 000000000000000000000000000000000000000     00000000                                                                                                                        000000000000000000
F0010000009547200003000089031248700042505000000000000000000201612120002001DISTRIBUIDORA CALIPLASTICOS LTDA                  C000000001875000000000000000000000100010010000000000000000000000F0010000009547200320161212000101 00000000000000000000000000000000000000000000000000000000000000000000000000000000000000000000000000000000000000000N 00000000000NCONT   00    00000000000          00000000000000000000000000000000000000000000 000000000000000A000000000000000000000000000000000000000000000 000000000000000000000000000000000000000     00000000                                                                                                                        000000000000000000
F0010000009547200004000089031248700023658300000000000000000201612120002001DISTRIBUIDORA CALIPLASTICOS LTDA                  C000000000231700000000000000000000100010010000000000000000000000F0010000009547200420161212000101 00000000000000000000000000000000000000000000000000000000000000000000000000000000000000000000000000000000000000000N 00000000000NCONT   00    00000000000          00000000000000000000000000000000000000000000 000000000000000A000000000000000000000000000000000000000000000 000000000000000000000000000000000000000     00000000                                                                                                                        000000000000000000
F0010000009547200005000089031248700013552100000000000000000201612120002001DISTRIBUIDORA CALIPLASTICOS LTDA                  D000000000231700000000000000000000100010010000000000000000000000F0010000009547200520161212000101 00000000000000000000000000000000000000000000000000000000000000000000000000000000000000000000000000000000000000000N 00000000000NCONT   00    00000000000          00000000000000000000000000000000000000000000 000000000000000A000000000000000000000000000000000000000000000 000000000000000000000000000000000000000     00000000                                                                                                                        000000000000000000
F0010000009547300001000090044920600013050500000000000000000201612120002001QUATRO CARIBE SAS                                 D000000019660000000000000000000000100010010000000000000000000000F0010000009547300120161212000101 00000000000000000000000000000000000000000000000000000000000000000000000000000000000000000000000000000000000000000N 00000000000NCONT   00    00000000000          00000000000000000000000000000000000000000000 000000000000000A000000000000000000000000000000000000000000000 000000000000000000000000000000000000000     00000000                                                                                                                        000000000000000000
F0010000009547300002000090044920600041450500000000000000000201612120002001QUATRO CARIBE SAS                                 C000000016810000000000000000000000100010010000000000000000000000F0010000009547300220161212000101 00000000000000000000000000000000000000000000000000000000000000000000000000000000000000000000000000000000000000000N 00000000000NCONT   00    00000000000          00000000000000000000000000000000000000000000 000000000000000A000000000000000000000000000000000000000000000 000000000000000000000000000000000000000     00000000                                                                                                                        000000000000000000
F0010000009547300003000090044920600042505000000000000000000201612120002001QUATRO CARIBE SAS                                 C000000002850000000000000000000000100010010000000000000000000000F0010000009547300320161212000101 00000000000000000000000000000000000000000000000000000000000000000000000000000000000000000000000000000000000000000N 00000000000NCONT   00    00000000000          00000000000000000000000000000000000000000000 000000000000000A000000000000000000000000000000000000000000000 000000000000000000000000000000000000000     00000000                                                                                                                        000000000000000000
F0010000009547300004000090044920600023658300000000000000000201612120002001QUATRO CARIBE SAS                                 C000000000134500000000000000000000100010010000000000000000000000F0010000009547300420161212000101 00000000000000000000000000000000000000000000000000000000000000000000000000000000000000000000000000000000000000000N 00000000000NCONT   00    00000000000          00000000000000000000000000000000000000000000 000000000000000A000000000000000000000000000000000000000000000 000000000000000000000000000000000000000     00000000                                                                                                                        000000000000000000
F0010000009547300005000090044920600013552100000000000000000201612120002001QUATRO CARIBE SAS                                 D000000000134500000000000000000000100010010000000000000000000000F0010000009547300520161212000101 00000000000000000000000000000000000000000000000000000000000000000000000000000000000000000000000000000000000000000N 00000000000NCONT   00    00000000000          00000000000000000000000000000000000000000000 000000000000000A000000000000000000000000000000000000000000000 000000000000000000000000000000000000000     00000000                                                                                                                        000000000000000000
F0010000009547400001000083008772100013050500000000000000000201612120002001ILUMEC SAS                                        D000000031875000000000000000000000100010010000000000000000000000F0010000009547400120161212000101 00000000000000000000000000000000000000000000000000000000000000000000000000000000000000000000000000000000000000000N 00000000000NCONT   00    00000000000          00000000000000000000000000000000000000000000 000000000000000A000000000000000000000000000000000000000000000 000000000000000000000000000000000000000     00000000                                                                                                                        000000000000000000
F0010000009547400002000083008772100041450500000000000000000201612120002001ILUMEC SAS                                        C000000023980000000000000000000000100010010000000000000000000000F0010000009547400220161212000101 00000000000000000000000000000000000000000000000000000000000000000000000000000000000000000000000000000000000000000N 00000000000NCONT   00    00000000000          00000000000000000000000000000000000000000000 000000000000000A000000000000000000000000000000000000000000000 000000000000000000000000000000000000000     00000000                                                                                                                        000000000000000000
F0010000009547400003000083008772100042505000000000000000000201612120002001ILUMEC SAS                                        C000000007895000000000000000000000100010010000000000000000000000F0010000009547400320161212000101 00000000000000000000000000000000000000000000000000000000000000000000000000000000000000000000000000000000000000000N 00000000000NCONT   00    00000000000          00000000000000000000000000000000000000000000 000000000000000A000000000000000000000000000000000000000000000 000000000000000000000000000000000000000     00000000                                                                                                                        000000000000000000
F0010000009547400004000083008772100023658300000000000000000201612120002001ILUMEC SAS                                        C000000000191800000000000000000000100010010000000000000000000000F0010000009547400420161212000101 00000000000000000000000000000000000000000000000000000000000000000000000000000000000000000000000000000000000000000N 00000000000NCONT   00    00000000000          00000000000000000000000000000000000000000000 000000000000000A000000000000000000000000000000000000000000000 000000000000000000000000000000000000000     00000000                                                                                                                        000000000000000000
F0010000009547400005000083008772100013552100000000000000000201612120002001ILUMEC SAS                                        D000000000191800000000000000000000100010010000000000000000000000F0010000009547400520161212000101 00000000000000000000000000000000000000000000000000000000000000000000000000000000000000000000000000000000000000000N 00000000000NCONT   00    00000000000          00000000000000000000000000000000000000000000 000000000000000A000000000000000000000000000000000000000000000 000000000000000000000000000000000000000     00000000                                                                                                                        000000000000000000
F0010000009547500001000090085938800013050500000000000000000201612120002001COALUM COSTA ATLANTICA SAS                        D000000010101800000000000000000000100010010000000000000000000000F0010000009547500120161212000101 00000000000000000000000000000000000000000000000000000000000000000000000000000000000000000000000000000000000000000N 00000000000NCONT   00    00000000000          00000000000000000000000000000000000000000000 000000000000000A000000000000000000000000000000000000000000000 000000000000000000000000000000000000000     00000000                                                                                                                        000000000000000000
F0010000009547500002000090085938800041450500000000000000000201612120002001COALUM COSTA ATLANTICA SAS                        C000000008050000000000000000000000100010010000000000000000000000F0010000009547500220161212000101 00000000000000000000000000000000000000000000000000000000000000000000000000000000000000000000000000000000000000000N 00000000000NCONT   00    00000000000          00000000000000000000000000000000000000000000 000000000000000A000000000000000000000000000000000000000000000 000000000000000000000000000000000000000     00000000                                                                                                                        000000000000000000
F0010000009547500003000090085938800042505000000000000000000201612120002001COALUM COSTA ATLANTICA SAS                        C000000002051800000000000000000000100010010000000000000000000000F0010000009547500320161212000101 00000000000000000000000000000000000000000000000000000000000000000000000000000000000000000000000000000000000000000N 00000000000NCONT   00    00000000000          00000000000000000000000000000000000000000000 000000000000000A000000000000000000000000000000000000000000000 000000000000000000000000000000000000000     00000000                                                                                                                        000000000000000000
F0010000009547500004000090085938800023658300000000000000000201612120002001COALUM COSTA ATLANTICA SAS                        C000000000064400000000000000000000100010010000000000000000000000F0010000009547500420161212000101 00000000000000000000000000000000000000000000000000000000000000000000000000000000000000000000000000000000000000000N 00000000000NCONT   00    00000000000          00000000000000000000000000000000000000000000 000000000000000A000000000000000000000000000000000000000000000 000000000000000000000000000000000000000     00000000                                                                                                                        000000000000000000
F0010000009547500005000090085938800013552100000000000000000201612120002001COALUM COSTA ATLANTICA SAS                        D000000000064400000000000000000000100010010000000000000000000000F0010000009547500520161212000101 00000000000000000000000000000000000000000000000000000000000000000000000000000000000000000000000000000000000000000N 00000000000NCONT   00    00000000000          00000000000000000000000000000000000000000000 000000000000000A000000000000000000000000000000000000000000000 000000000000000000000000000000000000000     00000000                                                                                                                        000000000000000000
F0010000009547600001000090000859400013050500000000000000000201612120002001COMERCIAL JOTACE LTDA                             D000000011113000000000000000000000100010010000000000000000000000F0010000009547600120161212000101 00000000000000000000000000000000000000000000000000000000000000000000000000000000000000000000000000000000000000000N 00000000000NCONT   00    00000000000          00000000000000000000000000000000000000000000 000000000000000A000000000000000000000000000000000000000000000 000000000000000000000000000000000000000     00000000                                                                                                                        000000000000000000
F0010000009547600002000090000859400041450500000000000000000201612120002001COMERCIAL JOTACE LTDA                             C000000010500000000000000000000000100010010000000000000000000000F0010000009547600220161212000101 00000000000000000000000000000000000000000000000000000000000000000000000000000000000000000000000000000000000000000N 00000000000NCONT   00    00000000000          00000000000000000000000000000000000000000000 000000000000000A000000000000000000000000000000000000000000000 000000000000000000000000000000000000000     00000000                                                                                                                        000000000000000000
F0010000009547600003000090000859400042505000000000000000000201612120002001COMERCIAL JOTACE LTDA                             C000000000613000000000000000000000100010010000000000000000000000F0010000009547600320161212000101 00000000000000000000000000000000000000000000000000000000000000000000000000000000000000000000000000000000000000000N 00000000000NCONT   00    00000000000          00000000000000000000000000000000000000000000 000000000000000A000000000000000000000000000000000000000000000 000000000000000000000000000000000000000     00000000                                                                                                                        000000000000000000
F0010000009547600004000090000859400023658300000000000000000201612120002001COMERCIAL JOTACE LTDA                             C000000000084000000000000000000000100010010000000000000000000000F0010000009547600420161212000101 00000000000000000000000000000000000000000000000000000000000000000000000000000000000000000000000000000000000000000N 00000000000NCONT   00    00000000000          00000000000000000000000000000000000000000000 000000000000000A000000000000000000000000000000000000000000000 000000000000000000000000000000000000000     00000000                                                                                                                        000000000000000000
F0010000009547600005000090000859400013552100000000000000000201612120002001COMERCIAL JOTACE LTDA                             D000000000084000000000000000000000100010010000000000000000000000F0010000009547600520161212000101 00000000000000000000000000000000000000000000000000000000000000000000000000000000000000000000000000000000000000000N 00000000000NCONT   00    00000000000          00000000000000000000000000000000000000000000 000000000000000A000000000000000000000000000000000000000000000 000000000000000000000000000000000000000     00000000                                                                                                                        000000000000000000
F0010000009547700001000080000083500013050500000000000000000201612120002001ALIPAR Y CIA LTDA                                 D000000055560000000000000000000000100010010000000000000000000000F0010000009547700120161212000101 00000000000000000000000000000000000000000000000000000000000000000000000000000000000000000000000000000000000000000N 00000000000NCONT   00    00000000000          00000000000000000000000000000000000000000000 000000000000000A000000000000000000000000000000000000000000000 000000000000000000000000000000000000000     00000000                                                                                                                        000000000000000000
F0010000009547700002000080000083500041450500000000000000000201612120002001ALIPAR Y CIA LTDA                                 C000000050340000000000000000000000100010010000000000000000000000F0010000009547700220161212000101 00000000000000000000000000000000000000000000000000000000000000000000000000000000000000000000000000000000000000000N 00000000000NCONT   00    00000000000          00000000000000000000000000000000000000000000 000000000000000A000000000000000000000000000000000000000000000 000000000000000000000000000000000000000     00000000                                                                                                                        000000000000000000
F0010000009547700003000080000083500042505000000000000000000201612120002001ALIPAR Y CIA LTDA                                 C000000005220000000000000000000000100010010000000000000000000000F0010000009547700320161212000101 00000000000000000000000000000000000000000000000000000000000000000000000000000000000000000000000000000000000000000N 00000000000NCONT   00    00000000000          00000000000000000000000000000000000000000000 000000000000000A000000000000000000000000000000000000000000000 000000000000000000000000000000000000000     00000000                                                                                                                        000000000000000000
F0010000009547700004000080000083500023658300000000000000000201612120002001ALIPAR Y CIA LTDA                                 C000000000402700000000000000000000100010010000000000000000000000F0010000009547700420161212000101 00000000000000000000000000000000000000000000000000000000000000000000000000000000000000000000000000000000000000000N 00000000000NCONT   00    00000000000          00000000000000000000000000000000000000000000 000000000000000A000000000000000000000000000000000000000000000 000000000000000000000000000000000000000     00000000                                                                                                                        000000000000000000
F0010000009547700005000080000083500013552100000000000000000201612120002001ALIPAR Y CIA LTDA                                 D000000000402700000000000000000000100010010000000000000000000000F0010000009547700520161212000101 00000000000000000000000000000000000000000000000000000000000000000000000000000000000000000000000000000000000000000N 00000000000NCONT   00    00000000000          00000000000000000000000000000000000000000000 000000000000000A000000000000000000000000000000000000000000000 000000000000000000000000000000000000000     00000000                                                                                                                        000000000000000000
F0010000009547800001000081102758700013050500000000000000000201612120002001C.I. ABRACOL S.A EMA                              D000000076919600000000000000000000100010010000000000000000000000F0010000009547800120161212000101 00000000000000000000000000000000000000000000000000000000000000000000000000000000000000000000000000000000000000000N 00000000000NCONT   00    00000000000          00000000000000000000000000000000000000000000 000000000000000A000000000000000000000000000000000000000000000 000000000000000000000000000000000000000     00000000                                                                                                                        000000000000000000
F0010000009547800002000081102758700041450500000000000000000201612120002001C.I. ABRACOL S.A EMA                              C000000059320000000000000000000000100010010000000000000000000000F0010000009547800220161212000101 00000000000000000000000000000000000000000000000000000000000000000000000000000000000000000000000000000000000000000N 00000000000NCONT   00    00000000000          00000000000000000000000000000000000000000000 000000000000000A000000000000000000000000000000000000000000000 000000000000000000000000000000000000000     00000000                                                                                                                        000000000000000000
F0010000009547800003000081102758700041750100000000000000000201612120002001C.I. ABRACOL S.A EMA                              D000000001779600000000000000000000100010010000000000000000000000F0010000009547800320161212000101 00000000000000000000000000000000000000000000000000000000000000000000000000000000000000000000000000000000000000000N 00000000000NCONT   00    00000000000          00000000000000000000000000000000000000000000 000000000000000A000000000000000000000000000000000000000000000 000000000000000000000000000000000000000     00000000                                                                                                                        000000000000000000
F0010000009547800004000081102758700042505000000000000000000201612120002001C.I. ABRACOL S.A EMA                              C000000019379200000000000000000000100010010000000000000000000000F0010000009547800420161212000101 00000000000000000000000000000000000000000000000000000000000000000000000000000000000000000000000000000000000000000N 00000000000NCONT   00    00000000000          00000000000000000000000000000000000000000000 000000000000000A000000000000000000000000000000000000000000000 000000000000000000000000000000000000000     00000000                                                                                                                        000000000000000000
F0010000009547800005000081102758700023658300000000000000000201612120002001C.I. ABRACOL S.A EMA                              C000000000474600000000000000000000100010010000000000000000000000F0010000009547800520161212000101 00000000000000000000000000000000000000000000000000000000000000000000000000000000000000000000000000000000000000000N 00000000000NCONT   00    00000000000          00000000000000000000000000000000000000000000 000000000000000A000000000000000000000000000000000000000000000 000000000000000000000000000000000000000     00000000                                                                                                                        000000000000000000
F0010000009547800006000081102758700013552100000000000000000201612120002001C.I. ABRACOL S.A EMA                              D000000000474600000000000000000000100010010000000000000000000000F0010000009547800620161212000101 00000000000000000000000000000000000000000000000000000000000000000000000000000000000000000000000000000000000000000N 00000000000NCONT   00    00000000000          00000000000000000000000000000000000000000000 000000000000000A000000000000000000000000000000000000000000000 000000000000000000000000000000000000000     00000000                                                                                                                        000000000000000000
