F0010000008491100001000001007288400011050500000000000000000201604150002001PVC EN COLORES                                    D000000015000000000000000000000000100010010000000000000000000000F0010000008491100120160415000101 00000000000000000000000000000000000000000000000000000000000000000000000000000000000000000000000000000000000000000N 00000000000NCONT   00    00000000000          00000000000000000000000000000000000000000000 000000000000000A000000000000000000000000000000000000000000000 000000000000000000000000000000000000000     00000000                                                                                                                        000000000000000000
F0010000008491100002000001007288400041450500000000000000000201604150002001PVC EN COLORES                                    C000000012500000000000000000000000100010010000000000000000000000F0010000008491100220160415000101 00000000000000000000000000000000000000000000000000000000000000000000000000000000000000000000000000000000000000000N 00000000000NCONT   00    00000000000          00000000000000000000000000000000000000000000 000000000000000A000000000000000000000000000000000000000000000 000000000000000000000000000000000000000     00000000                                                                                                                        000000000000000000
F0010000008491100003000001007288400042505000000000000000000201604150002001PVC EN COLORES                                    C000000002500000000000000000000000100010010000000000000000000000F0010000008491100320160415000101 00000000000000000000000000000000000000000000000000000000000000000000000000000000000000000000000000000000000000000N 00000000000NCONT   00    00000000000          00000000000000000000000000000000000000000000 000000000000000A000000000000000000000000000000000000000000000 000000000000000000000000000000000000000     00000000                                                                                                                        000000000000000000
F0010000008491100004000001007288400023658300000000000000000201604150002001PVC EN COLORES                                    C000000000100000000000000000000000100010010000000000000000000000F0010000008491100420160415000101 00000000000000000000000000000000000000000000000000000000000000000000000000000000000000000000000000000000000000000N 00000000000NCONT   00    00000000000          00000000000000000000000000000000000000000000 000000000000000A000000000000000000000000000000000000000000000 000000000000000000000000000000000000000     00000000                                                                                                                        000000000000000000
F0010000008491100005000001007288400013552100000000000000000201604150002001PVC EN COLORES                                    D000000000100000000000000000000000100010010000000000000000000000F0010000008491100520160415000101 00000000000000000000000000000000000000000000000000000000000000000000000000000000000000000000000000000000000000000N 00000000000NCONT   00    00000000000          00000000000000000000000000000000000000000000 000000000000000A000000000000000000000000000000000000000000000 000000000000000000000000000000000000000     00000000                                                                                                                        000000000000000000
F0010000008491200001000081102758700013050500000000000000000201604150002001C.I. ABRACOL S.A EMA                              D000000068567600000000000000000000100010010000000000000000000000F0010000008491200120160415000101 00000000000000000000000000000000000000000000000000000000000000000000000000000000000000000000000000000000000000000N 00000000000NCONT   00    00000000000          00000000000000000000000000000000000000000000 000000000000000A000000000000000000000000000000000000000000000 000000000000000000000000000000000000000     00000000                                                                                                                        000000000000000000
F0010000008491200002000081102758700041450500000000000000000201604150002001C.I. ABRACOL S.A EMA                              C000000045330000000000000000000000100010010000000000000000000000F0010000008491200220160415000101 00000000000000000000000000000000000000000000000000000000000000000000000000000000000000000000000000000000000000000N 00000000000NCONT   00    00000000000          00000000000000000000000000000000000000000000 000000000000000A000000000000000000000000000000000000000000000 000000000000000000000000000000000000000     00000000                                                                                                                        000000000000000000
F0010000008491200003000081102758700041750100000000000000000201604150002001C.I. ABRACOL S.A EMA                              D000000001359900000000000000000000100010010000000000000000000000F0010000008491200320160415000101 00000000000000000000000000000000000000000000000000000000000000000000000000000000000000000000000000000000000000000N 00000000000NCONT   00    00000000000          00000000000000000000000000000000000000000000 000000000000000A000000000000000000000000000000000000000000000 000000000000000000000000000000000000000     00000000                                                                                                                        000000000000000000
F0010000008491200004000081102758700042505000000000000000000201604150002001C.I. ABRACOL S.A EMA                              C000000024597500000000000000000000100010010000000000000000000000F0010000008491200420160415000101 00000000000000000000000000000000000000000000000000000000000000000000000000000000000000000000000000000000000000000N 00000000000NCONT   00    00000000000          00000000000000000000000000000000000000000000 000000000000000A000000000000000000000000000000000000000000000 000000000000000000000000000000000000000     00000000                                                                                                                        000000000000000000
F0010000008491200005000081102758700023658300000000000000000201604150002001C.I. ABRACOL S.A EMA                              C000000000362600000000000000000000100010010000000000000000000000F0010000008491200520160415000101 00000000000000000000000000000000000000000000000000000000000000000000000000000000000000000000000000000000000000000N 00000000000NCONT   00    00000000000          00000000000000000000000000000000000000000000 000000000000000A000000000000000000000000000000000000000000000 000000000000000000000000000000000000000     00000000                                                                                                                        000000000000000000
F0010000008491200006000081102758700013552100000000000000000201604150002001C.I. ABRACOL S.A EMA                              D000000000362600000000000000000000100010010000000000000000000000F0010000008491200620160415000101 00000000000000000000000000000000000000000000000000000000000000000000000000000000000000000000000000000000000000000N 00000000000NCONT   00    00000000000          00000000000000000000000000000000000000000000 000000000000000A000000000000000000000000000000000000000000000 000000000000000000000000000000000000000     00000000                                                                                                                        000000000000000000
F0010000008491300001000081102758700013050500000000000000000201604150002001C.I. ABRACOL S.A EMA                              D000000012276400000000000000000000100010010000000000000000000000F0010000008491300120160415000101 00000000000000000000000000000000000000000000000000000000000000000000000000000000000000000000000000000000000000000N 00000000000NCONT   00    00000000000          00000000000000000000000000000000000000000000 000000000000000A000000000000000000000000000000000000000000000 000000000000000000000000000000000000000     00000000                                                                                                                        000000000000000000
F0010000008491300002000081102758700041450500000000000000000201604150002001C.I. ABRACOL S.A EMA                              C000000009270000000000000000000000100010010000000000000000000000F0010000008491300220160415000101 00000000000000000000000000000000000000000000000000000000000000000000000000000000000000000000000000000000000000000N 00000000000NCONT   00    00000000000          00000000000000000000000000000000000000000000 000000000000000A000000000000000000000000000000000000000000000 000000000000000000000000000000000000000     00000000                                                                                                                        000000000000000000
F0010000008491300003000081102758700041750100000000000000000201604150002001C.I. ABRACOL S.A EMA                              D000000000278100000000000000000000100010010000000000000000000000F0010000008491300320160415000101 00000000000000000000000000000000000000000000000000000000000000000000000000000000000000000000000000000000000000000N 00000000000NCONT   00    00000000000          00000000000000000000000000000000000000000000 000000000000000A000000000000000000000000000000000000000000000 000000000000000000000000000000000000000     00000000                                                                                                                        000000000000000000
F0010000008491300004000081102758700042505000000000000000000201604150002001C.I. ABRACOL S.A EMA                              C000000003284500000000000000000000100010010000000000000000000000F0010000008491300420160415000101 00000000000000000000000000000000000000000000000000000000000000000000000000000000000000000000000000000000000000000N 00000000000NCONT   00    00000000000          00000000000000000000000000000000000000000000 000000000000000A000000000000000000000000000000000000000000000 000000000000000000000000000000000000000     00000000                                                                                                                        000000000000000000
F0010000008491300005000081102758700023658300000000000000000201604150002001C.I. ABRACOL S.A EMA                              C000000000074200000000000000000000100010010000000000000000000000F0010000008491300520160415000101 00000000000000000000000000000000000000000000000000000000000000000000000000000000000000000000000000000000000000000N 00000000000NCONT   00    00000000000          00000000000000000000000000000000000000000000 000000000000000A000000000000000000000000000000000000000000000 000000000000000000000000000000000000000     00000000                                                                                                                        000000000000000000
F0010000008491300006000081102758700013552100000000000000000201604150002001C.I. ABRACOL S.A EMA                              D000000000074200000000000000000000100010010000000000000000000000F0010000008491300620160415000101 00000000000000000000000000000000000000000000000000000000000000000000000000000000000000000000000000000000000000000N 00000000000NCONT   00    00000000000          00000000000000000000000000000000000000000000 000000000000000A000000000000000000000000000000000000000000000 000000000000000000000000000000000000000     00000000                                                                                                                        000000000000000000
F0010000008491400001000089011492400013050500000000000000000201604150002001AGE. CAUCHO SOL DE LA COSTA  SAS                  D000000149311500000000000000000000100010010000000000000000000000F0010000008491400120160415000101 00000000000000000000000000000000000000000000000000000000000000000000000000000000000000000000000000000000000000000N 00000000000NCONT   00    00000000000          00000000000000000000000000000000000000000000 000000000000000A000000000000000000000000000000000000000000000 000000000000000000000000000000000000000     00000000                                                                                                                        000000000000000000
F0010000008491400002000089011492400041450500000000000000000201604150002001AGE. CAUCHO SOL DE LA COSTA  SAS                  C000000082860000000000000000000000100010010000000000000000000000F0010000008491400220160415000101 00000000000000000000000000000000000000000000000000000000000000000000000000000000000000000000000000000000000000000N 00000000000NCONT   00    00000000000          00000000000000000000000000000000000000000000 000000000000000A000000000000000000000000000000000000000000000 000000000000000000000000000000000000000     00000000                                                                                                                        000000000000000000
F0010000008491400003000089011492400042505000000000000000000201604150002001AGE. CAUCHO SOL DE LA COSTA  SAS                  C000000066451500000000000000000000100010010000000000000000000000F0010000008491400320160415000101 00000000000000000000000000000000000000000000000000000000000000000000000000000000000000000000000000000000000000000N 00000000000NCONT   00    00000000000          00000000000000000000000000000000000000000000 000000000000000A000000000000000000000000000000000000000000000 000000000000000000000000000000000000000     00000000                                                                                                                        000000000000000000
F0010000008491400004000089011492400023658300000000000000000201604150002001AGE. CAUCHO SOL DE LA COSTA  SAS                  C000000000662900000000000000000000100010010000000000000000000000F0010000008491400420160415000101 00000000000000000000000000000000000000000000000000000000000000000000000000000000000000000000000000000000000000000N 00000000000NCONT   00    00000000000          00000000000000000000000000000000000000000000 000000000000000A000000000000000000000000000000000000000000000 000000000000000000000000000000000000000     00000000                                                                                                                        000000000000000000
F0010000008491400005000089011492400013552100000000000000000201604150002001AGE. CAUCHO SOL DE LA COSTA  SAS                  D000000000662900000000000000000000100010010000000000000000000000F0010000008491400520160415000101 00000000000000000000000000000000000000000000000000000000000000000000000000000000000000000000000000000000000000000N 00000000000NCONT   00    00000000000          00000000000000000000000000000000000000000000 000000000000000A000000000000000000000000000000000000000000000 000000000000000000000000000000000000000     00000000                                                                                                                        000000000000000000
F0010000008491500001000089011492400013050500000000000000000201604150002001AGE. CAUCHO SOL DE LA COSTA  SAS                  D000000103299700000000000000000000100010010000000000000000000000F0010000008491500120160415000101 00000000000000000000000000000000000000000000000000000000000000000000000000000000000000000000000000000000000000000N 00000000000NCONT   00    00000000000          00000000000000000000000000000000000000000000 000000000000000A000000000000000000000000000000000000000000000 000000000000000000000000000000000000000     00000000                                                                                                                        000000000000000000
F0010000008491500002000089011492400041450500000000000000000201604150002001AGE. CAUCHO SOL DE LA COSTA  SAS                  C000000068170000000000000000000000100010010000000000000000000000F0010000008491500220160415000101 00000000000000000000000000000000000000000000000000000000000000000000000000000000000000000000000000000000000000000N 00000000000NCONT   00    00000000000          00000000000000000000000000000000000000000000 000000000000000A000000000000000000000000000000000000000000000 000000000000000000000000000000000000000     00000000                                                                                                                        000000000000000000
F0010000008491500003000089011492400042505000000000000000000201604150002001AGE. CAUCHO SOL DE LA COSTA  SAS                  C000000035129700000000000000000000100010010000000000000000000000F0010000008491500320160415000101 00000000000000000000000000000000000000000000000000000000000000000000000000000000000000000000000000000000000000000N 00000000000NCONT   00    00000000000          00000000000000000000000000000000000000000000 000000000000000A000000000000000000000000000000000000000000000 000000000000000000000000000000000000000     00000000                                                                                                                        000000000000000000
F0010000008491500004000089011492400023658300000000000000000201604150002001AGE. CAUCHO SOL DE LA COSTA  SAS                  C000000000545400000000000000000000100010010000000000000000000000F0010000008491500420160415000101 00000000000000000000000000000000000000000000000000000000000000000000000000000000000000000000000000000000000000000N 00000000000NCONT   00    00000000000          00000000000000000000000000000000000000000000 000000000000000A000000000000000000000000000000000000000000000 000000000000000000000000000000000000000     00000000                                                                                                                        000000000000000000
F0010000008491500005000089011492400013552100000000000000000201604150002001AGE. CAUCHO SOL DE LA COSTA  SAS                  D000000000545400000000000000000000100010010000000000000000000000F0010000008491500520160415000101 00000000000000000000000000000000000000000000000000000000000000000000000000000000000000000000000000000000000000000N 00000000000NCONT   00    00000000000          00000000000000000000000000000000000000000000 000000000000000A000000000000000000000000000000000000000000000 000000000000000000000000000000000000000     00000000                                                                                                                        000000000000000000
F0010000008491600001000090073498600011050500000000000000000201604150002001VALTAC S.A.S                                      D000000001000000000000000000000000100010010000000000000000000000F0010000008491600120160415000101 00000000000000000000000000000000000000000000000000000000000000000000000000000000000000000000000000000000000000000N 00000000000NCONT   00    00000000000          00000000000000000000000000000000000000000000 000000000000000A000000000000000000000000000000000000000000000 000000000000000000000000000000000000000     00000000                                                                                                                        000000000000000000
F0010000008491600002000090073498600041450500000000000000000201604150002001VALTAC S.A.S                                      C000000000800000000000000000000000100010010000000000000000000000F0010000008491600220160415000101 00000000000000000000000000000000000000000000000000000000000000000000000000000000000000000000000000000000000000000N 00000000000NCONT   00    00000000000          00000000000000000000000000000000000000000000 000000000000000A000000000000000000000000000000000000000000000 000000000000000000000000000000000000000     00000000                                                                                                                        000000000000000000
F0010000008491600003000090073498600042505000000000000000000201604150002001VALTAC S.A.S                                      C000000000200000000000000000000000100010010000000000000000000000F0010000008491600320160415000101 00000000000000000000000000000000000000000000000000000000000000000000000000000000000000000000000000000000000000000N 00000000000NCONT   00    00000000000          00000000000000000000000000000000000000000000 000000000000000A000000000000000000000000000000000000000000000 000000000000000000000000000000000000000     00000000                                                                                                                        000000000000000000
F0010000008491600004000090073498600023658300000000000000000201604150002001VALTAC S.A.S                                      C000000000006400000000000000000000100010010000000000000000000000F0010000008491600420160415000101 00000000000000000000000000000000000000000000000000000000000000000000000000000000000000000000000000000000000000000N 00000000000NCONT   00    00000000000          00000000000000000000000000000000000000000000 000000000000000A000000000000000000000000000000000000000000000 000000000000000000000000000000000000000     00000000                                                                                                                        000000000000000000
F0010000008491600005000090073498600013552100000000000000000201604150002001VALTAC S.A.S                                      D000000000006400000000000000000000100010010000000000000000000000F0010000008491600520160415000101 00000000000000000000000000000000000000000000000000000000000000000000000000000000000000000000000000000000000000000N 00000000000NCONT   00    00000000000          00000000000000000000000000000000000000000000 000000000000000A000000000000000000000000000000000000000000000 000000000000000000000000000000000000000     00000000                                                                                                                        000000000000000000
F0010000008491700001000004977415500011050500000000000000000201604150002001NINFA FONSECA ROMERO                              D000000003000000000000000000000000100010010000000000000000000000F0010000008491700120160415000101 00000000000000000000000000000000000000000000000000000000000000000000000000000000000000000000000000000000000000000N 00000000000NCONT   00    00000000000          00000000000000000000000000000000000000000000 000000000000000A000000000000000000000000000000000000000000000 000000000000000000000000000000000000000     00000000                                                                                                                        000000000000000000
F0010000008491700002000004977415500041450500000000000000000201604150002001NINFA FONSECA ROMERO                              C000000002000000000000000000000000100010010000000000000000000000F0010000008491700220160415000101 00000000000000000000000000000000000000000000000000000000000000000000000000000000000000000000000000000000000000000N 00000000000NCONT   00    00000000000          00000000000000000000000000000000000000000000 000000000000000A000000000000000000000000000000000000000000000 000000000000000000000000000000000000000     00000000                                                                                                                        000000000000000000
F0010000008491700003000004977415500042505000000000000000000201604150002001NINFA FONSECA ROMERO                              C000000001000000000000000000000000100010010000000000000000000000F0010000008491700320160415000101 00000000000000000000000000000000000000000000000000000000000000000000000000000000000000000000000000000000000000000N 00000000000NCONT   00    00000000000          00000000000000000000000000000000000000000000 000000000000000A000000000000000000000000000000000000000000000 000000000000000000000000000000000000000     00000000                                                                                                                        000000000000000000
F0010000008491700004000004977415500023658300000000000000000201604150002001NINFA FONSECA ROMERO                              C000000000016000000000000000000000100010010000000000000000000000F0010000008491700420160415000101 00000000000000000000000000000000000000000000000000000000000000000000000000000000000000000000000000000000000000000N 00000000000NCONT   00    00000000000          00000000000000000000000000000000000000000000 000000000000000A000000000000000000000000000000000000000000000 000000000000000000000000000000000000000     00000000                                                                                                                        000000000000000000
F0010000008491700005000004977415500013552100000000000000000201604150002001NINFA FONSECA ROMERO                              D000000000016000000000000000000000100010010000000000000000000000F0010000008491700520160415000101 00000000000000000000000000000000000000000000000000000000000000000000000000000000000000000000000000000000000000000N 00000000000NCONT   00    00000000000          00000000000000000000000000000000000000000000 000000000000000A000000000000000000000000000000000000000000000 000000000000000000000000000000000000000     00000000                                                                                                                        000000000000000000
F0010000008491800001000009125678500011050500000000000000000201604150002001SALOMON DIAZ MONSALVE                             D000000003500000000000000000000000100010010000000000000000000000F0010000008491800120160415000101 00000000000000000000000000000000000000000000000000000000000000000000000000000000000000000000000000000000000000000N 00000000000NCONT   00    00000000000          00000000000000000000000000000000000000000000 000000000000000A000000000000000000000000000000000000000000000 000000000000000000000000000000000000000     00000000                                                                                                                        000000000000000000
F0010000008491800002000009125678500041450500000000000000000201604150002001SALOMON DIAZ MONSALVE                             C000000003000000000000000000000000100010010000000000000000000000F0010000008491800220160415000101 00000000000000000000000000000000000000000000000000000000000000000000000000000000000000000000000000000000000000000N 00000000000NCONT   00    00000000000          00000000000000000000000000000000000000000000 000000000000000A000000000000000000000000000000000000000000000 000000000000000000000000000000000000000     00000000                                                                                                                        000000000000000000
F0010000008491800003000009125678500042505000000000000000000201604150002001SALOMON DIAZ MONSALVE                             C000000000500000000000000000000000100010010000000000000000000000F0010000008491800320160415000101 00000000000000000000000000000000000000000000000000000000000000000000000000000000000000000000000000000000000000000N 00000000000NCONT   00    00000000000          00000000000000000000000000000000000000000000 000000000000000A000000000000000000000000000000000000000000000 000000000000000000000000000000000000000     00000000                                                                                                                        000000000000000000
F0010000008491800004000009125678500023658300000000000000000201604150002001SALOMON DIAZ MONSALVE                             C000000000024000000000000000000000100010010000000000000000000000F0010000008491800420160415000101 00000000000000000000000000000000000000000000000000000000000000000000000000000000000000000000000000000000000000000N 00000000000NCONT   00    00000000000          00000000000000000000000000000000000000000000 000000000000000A000000000000000000000000000000000000000000000 000000000000000000000000000000000000000     00000000                                                                                                                        000000000000000000
F0010000008491800005000009125678500013552100000000000000000201604150002001SALOMON DIAZ MONSALVE                             D000000000024000000000000000000000100010010000000000000000000000F0010000008491800520160415000101 00000000000000000000000000000000000000000000000000000000000000000000000000000000000000000000000000000000000000000N 00000000000NCONT   00    00000000000          00000000000000000000000000000000000000000000 000000000000000A000000000000000000000000000000000000000000000 000000000000000000000000000000000000000     00000000                                                                                                                        000000000000000000
F0010000008491900001000009125678500011050500000000000000000201604150002001SALOMON DIAZ MONSALVE                             D000000037000000000000000000000000100010010000000000000000000000F0010000008491900120160415000101 00000000000000000000000000000000000000000000000000000000000000000000000000000000000000000000000000000000000000000N 00000000000NCONT   00    00000000000          00000000000000000000000000000000000000000000 000000000000000A000000000000000000000000000000000000000000000 000000000000000000000000000000000000000     00000000                                                                                                                        000000000000000000
F0010000008491900002000009125678500041450500000000000000000201604150002001SALOMON DIAZ MONSALVE                             C000000035000000000000000000000000100010010000000000000000000000F0010000008491900220160415000101 00000000000000000000000000000000000000000000000000000000000000000000000000000000000000000000000000000000000000000N 00000000000NCONT   00    00000000000          00000000000000000000000000000000000000000000 000000000000000A000000000000000000000000000000000000000000000 000000000000000000000000000000000000000     00000000                                                                                                                        000000000000000000
F0010000008491900003000009125678500042505000000000000000000201604150002001SALOMON DIAZ MONSALVE                             C000000002000000000000000000000000100010010000000000000000000000F0010000008491900320160415000101 00000000000000000000000000000000000000000000000000000000000000000000000000000000000000000000000000000000000000000N 00000000000NCONT   00    00000000000          00000000000000000000000000000000000000000000 000000000000000A000000000000000000000000000000000000000000000 000000000000000000000000000000000000000     00000000                                                                                                                        000000000000000000
F0010000008491900004000009125678500023658300000000000000000201604150002001SALOMON DIAZ MONSALVE                             C000000000280000000000000000000000100010010000000000000000000000F0010000008491900420160415000101 00000000000000000000000000000000000000000000000000000000000000000000000000000000000000000000000000000000000000000N 00000000000NCONT   00    00000000000          00000000000000000000000000000000000000000000 000000000000000A000000000000000000000000000000000000000000000 000000000000000000000000000000000000000     00000000                                                                                                                        000000000000000000
F0010000008491900005000009125678500013552100000000000000000201604150002001SALOMON DIAZ MONSALVE                             D000000000280000000000000000000000100010010000000000000000000000F0010000008491900520160415000101 00000000000000000000000000000000000000000000000000000000000000000000000000000000000000000000000000000000000000000N 00000000000NCONT   00    00000000000          00000000000000000000000000000000000000000000 000000000000000A000000000000000000000000000000000000000000000 000000000000000000000000000000000000000     00000000                                                                                                                        000000000000000000
F0010000008492000001000090015305700011050500000000000000000201604150002001PLASTICOS Y SERVICIOS BARRANQUILLA EU             D000000001350000000000000000000000100010010000000000000000000000F0010000008492000120160415000101 00000000000000000000000000000000000000000000000000000000000000000000000000000000000000000000000000000000000000000N 00000000000NCONT   00    00000000000          00000000000000000000000000000000000000000000 000000000000000A000000000000000000000000000000000000000000000 000000000000000000000000000000000000000     00000000                                                                                                                        000000000000000000
F0010000008492000002000090015305700041450500000000000000000201604150002001PLASTICOS Y SERVICIOS BARRANQUILLA EU             C000000000950000000000000000000000100010010000000000000000000000F0010000008492000220160415000101 00000000000000000000000000000000000000000000000000000000000000000000000000000000000000000000000000000000000000000N 00000000000NCONT   00    00000000000          00000000000000000000000000000000000000000000 000000000000000A000000000000000000000000000000000000000000000 000000000000000000000000000000000000000     00000000                                                                                                                        000000000000000000
F0010000008492000003000090015305700042505000000000000000000201604150002001PLASTICOS Y SERVICIOS BARRANQUILLA EU             C000000000400000000000000000000000100010010000000000000000000000F0010000008492000320160415000101 00000000000000000000000000000000000000000000000000000000000000000000000000000000000000000000000000000000000000000N 00000000000NCONT   00    00000000000          00000000000000000000000000000000000000000000 000000000000000A000000000000000000000000000000000000000000000 000000000000000000000000000000000000000     00000000                                                                                                                        000000000000000000
F0010000008492000004000090015305700023658300000000000000000201604150002001PLASTICOS Y SERVICIOS BARRANQUILLA EU             C000000000007600000000000000000000100010010000000000000000000000F0010000008492000420160415000101 00000000000000000000000000000000000000000000000000000000000000000000000000000000000000000000000000000000000000000N 00000000000NCONT   00    00000000000          00000000000000000000000000000000000000000000 000000000000000A000000000000000000000000000000000000000000000 000000000000000000000000000000000000000     00000000                                                                                                                        000000000000000000
F0010000008492000005000090015305700013552100000000000000000201604150002001PLASTICOS Y SERVICIOS BARRANQUILLA EU             D000000000007600000000000000000000100010010000000000000000000000F0010000008492000520160415000101 00000000000000000000000000000000000000000000000000000000000000000000000000000000000000000000000000000000000000000N 00000000000NCONT   00    00000000000          00000000000000000000000000000000000000000000 000000000000000A000000000000000000000000000000000000000000000 000000000000000000000000000000000000000     00000000                                                                                                                        000000000000000000
F0010000008492100001000090015305700011050500000000000000000201604150002001PLASTICOS Y SERVICIOS BARRANQUILLA EU             D000000007200000000000000000000000100010010000000000000000000000F0010000008492100120160415000101 00000000000000000000000000000000000000000000000000000000000000000000000000000000000000000000000000000000000000000N 00000000000NCONT   00    00000000000          00000000000000000000000000000000000000000000 000000000000000A000000000000000000000000000000000000000000000 000000000000000000000000000000000000000     00000000                                                                                                                        000000000000000000
F0010000008492100002000090015305700041450500000000000000000201604150002001PLASTICOS Y SERVICIOS BARRANQUILLA EU             C000000005700000000000000000000000100010010000000000000000000000F0010000008492100220160415000101 00000000000000000000000000000000000000000000000000000000000000000000000000000000000000000000000000000000000000000N 00000000000NCONT   00    00000000000          00000000000000000000000000000000000000000000 000000000000000A000000000000000000000000000000000000000000000 000000000000000000000000000000000000000     00000000                                                                                                                        000000000000000000
F0010000008492100003000090015305700042505000000000000000000201604150002001PLASTICOS Y SERVICIOS BARRANQUILLA EU             C000000001500000000000000000000000100010010000000000000000000000F0010000008492100320160415000101 00000000000000000000000000000000000000000000000000000000000000000000000000000000000000000000000000000000000000000N 00000000000NCONT   00    00000000000          00000000000000000000000000000000000000000000 000000000000000A000000000000000000000000000000000000000000000 000000000000000000000000000000000000000     00000000                                                                                                                        000000000000000000
F0010000008492100004000090015305700023658300000000000000000201604150002001PLASTICOS Y SERVICIOS BARRANQUILLA EU             C000000000045600000000000000000000100010010000000000000000000000F0010000008492100420160415000101 00000000000000000000000000000000000000000000000000000000000000000000000000000000000000000000000000000000000000000N 00000000000NCONT   00    00000000000          00000000000000000000000000000000000000000000 000000000000000A000000000000000000000000000000000000000000000 000000000000000000000000000000000000000     00000000                                                                                                                        000000000000000000
F0010000008492100005000090015305700013552100000000000000000201604150002001PLASTICOS Y SERVICIOS BARRANQUILLA EU             D000000000045600000000000000000000100010010000000000000000000000F0010000008492100520160415000101 00000000000000000000000000000000000000000000000000000000000000000000000000000000000000000000000000000000000000000N 00000000000NCONT   00    00000000000          00000000000000000000000000000000000000000000 000000000000000A000000000000000000000000000000000000000000000 000000000000000000000000000000000000000     00000000                                                                                                                        000000000000000000
F0010000008492200001000090015305700011050500000000000000000201604150002001PLASTICOS Y SERVICIOS BARRANQUILLA EU             D000000002250000000000000000000000100010010000000000000000000000F0010000008492200120160415000101 00000000000000000000000000000000000000000000000000000000000000000000000000000000000000000000000000000000000000000N 00000000000NCONT   00    00000000000          00000000000000000000000000000000000000000000 000000000000000A000000000000000000000000000000000000000000000 000000000000000000000000000000000000000     00000000                                                                                                                        000000000000000000
F0010000008492200002000090015305700041450500000000000000000201604150002001PLASTICOS Y SERVICIOS BARRANQUILLA EU             C000000000950000000000000000000000100010010000000000000000000000F0010000008492200220160415000101 00000000000000000000000000000000000000000000000000000000000000000000000000000000000000000000000000000000000000000N 00000000000NCONT   00    00000000000          00000000000000000000000000000000000000000000 000000000000000A000000000000000000000000000000000000000000000 000000000000000000000000000000000000000     00000000                                                                                                                        000000000000000000
F0010000008492200003000090015305700042505000000000000000000201604150002001PLASTICOS Y SERVICIOS BARRANQUILLA EU             C000000001300000000000000000000000100010010000000000000000000000F0010000008492200320160415000101 00000000000000000000000000000000000000000000000000000000000000000000000000000000000000000000000000000000000000000N 00000000000NCONT   00    00000000000          00000000000000000000000000000000000000000000 000000000000000A000000000000000000000000000000000000000000000 000000000000000000000000000000000000000     00000000                                                                                                                        000000000000000000
F0010000008492200004000090015305700023658300000000000000000201604150002001PLASTICOS Y SERVICIOS BARRANQUILLA EU             C000000000007600000000000000000000100010010000000000000000000000F0010000008492200420160415000101 00000000000000000000000000000000000000000000000000000000000000000000000000000000000000000000000000000000000000000N 00000000000NCONT   00    00000000000          00000000000000000000000000000000000000000000 000000000000000A000000000000000000000000000000000000000000000 000000000000000000000000000000000000000     00000000                                                                                                                        000000000000000000
F0010000008492200005000090015305700013552100000000000000000201604150002001PLASTICOS Y SERVICIOS BARRANQUILLA EU             D000000000007600000000000000000000100010010000000000000000000000F0010000008492200520160415000101 00000000000000000000000000000000000000000000000000000000000000000000000000000000000000000000000000000000000000000N 00000000000NCONT   00    00000000000          00000000000000000000000000000000000000000000 000000000000000A000000000000000000000000000000000000000000000 000000000000000000000000000000000000000     00000000                                                                                                                        000000000000000000
F0010000008492300001000090015305700011050500000000000000000201604150002001PLASTICOS Y SERVICIOS BARRANQUILLA EU             D000000002600000000000000000000000100010010000000000000000000000F0010000008492300120160415000101 00000000000000000000000000000000000000000000000000000000000000000000000000000000000000000000000000000000000000000N 00000000000NCONT   00    00000000000          00000000000000000000000000000000000000000000 000000000000000A000000000000000000000000000000000000000000000 000000000000000000000000000000000000000     00000000                                                                                                                        000000000000000000
F0010000008492300002000090015305700041450500000000000000000201604150002001PLASTICOS Y SERVICIOS BARRANQUILLA EU             C000000000950000000000000000000000100010010000000000000000000000F0010000008492300220160415000101 00000000000000000000000000000000000000000000000000000000000000000000000000000000000000000000000000000000000000000N 00000000000NCONT   00    00000000000          00000000000000000000000000000000000000000000 000000000000000A000000000000000000000000000000000000000000000 000000000000000000000000000000000000000     00000000                                                                                                                        000000000000000000
F0010000008492300003000090015305700042505000000000000000000201604150002001PLASTICOS Y SERVICIOS BARRANQUILLA EU             C000000001650000000000000000000000100010010000000000000000000000F0010000008492300320160415000101 00000000000000000000000000000000000000000000000000000000000000000000000000000000000000000000000000000000000000000N 00000000000NCONT   00    00000000000          00000000000000000000000000000000000000000000 000000000000000A000000000000000000000000000000000000000000000 000000000000000000000000000000000000000     00000000                                                                                                                        000000000000000000
F0010000008492300004000090015305700023658300000000000000000201604150002001PLASTICOS Y SERVICIOS BARRANQUILLA EU             C000000000007600000000000000000000100010010000000000000000000000F0010000008492300420160415000101 00000000000000000000000000000000000000000000000000000000000000000000000000000000000000000000000000000000000000000N 00000000000NCONT   00    00000000000          00000000000000000000000000000000000000000000 000000000000000A000000000000000000000000000000000000000000000 000000000000000000000000000000000000000     00000000                                                                                                                        000000000000000000
F0010000008492300005000090015305700013552100000000000000000201604150002001PLASTICOS Y SERVICIOS BARRANQUILLA EU             D000000000007600000000000000000000100010010000000000000000000000F0010000008492300520160415000101 00000000000000000000000000000000000000000000000000000000000000000000000000000000000000000000000000000000000000000N 00000000000NCONT   00    00000000000          00000000000000000000000000000000000000000000 000000000000000A000000000000000000000000000000000000000000000 000000000000000000000000000000000000000     00000000                                                                                                                        000000000000000000
F0010000008492400001000090034602400011050500000000000000000201604150002001PRODUCTOS NACIONALES PARAFINICOS LA CUSTODIA S.A.SD000000002100000000000000000000000100010010000000000000000000000F0010000008492400120160415000101 00000000000000000000000000000000000000000000000000000000000000000000000000000000000000000000000000000000000000000N 00000000000NCONT   00    00000000000          00000000000000000000000000000000000000000000 000000000000000A000000000000000000000000000000000000000000000 000000000000000000000000000000000000000     00000000                                                                                                                        000000000000000000
F0010000008492400002000090034602400041450500000000000000000201604150002001PRODUCTOS NACIONALES PARAFINICOS LA CUSTODIA S.A.SC000000001900000000000000000000000100010010000000000000000000000F0010000008492400220160415000101 00000000000000000000000000000000000000000000000000000000000000000000000000000000000000000000000000000000000000000N 00000000000NCONT   00    00000000000          00000000000000000000000000000000000000000000 000000000000000A000000000000000000000000000000000000000000000 000000000000000000000000000000000000000     00000000                                                                                                                        000000000000000000
F0010000008492400003000090034602400042505000000000000000000201604150002001PRODUCTOS NACIONALES PARAFINICOS LA CUSTODIA S.A.SC000000000200000000000000000000000100010010000000000000000000000F0010000008492400320160415000101 00000000000000000000000000000000000000000000000000000000000000000000000000000000000000000000000000000000000000000N 00000000000NCONT   00    00000000000          00000000000000000000000000000000000000000000 000000000000000A000000000000000000000000000000000000000000000 000000000000000000000000000000000000000     00000000                                                                                                                        000000000000000000
F0010000008492400004000090034602400023658300000000000000000201604150002001PRODUCTOS NACIONALES PARAFINICOS LA CUSTODIA S.A.SC000000000015200000000000000000000100010010000000000000000000000F0010000008492400420160415000101 00000000000000000000000000000000000000000000000000000000000000000000000000000000000000000000000000000000000000000N 00000000000NCONT   00    00000000000          00000000000000000000000000000000000000000000 000000000000000A000000000000000000000000000000000000000000000 000000000000000000000000000000000000000     00000000                                                                                                                        000000000000000000
F0010000008492400005000090034602400013552100000000000000000201604150002001PRODUCTOS NACIONALES PARAFINICOS LA CUSTODIA S.A.SD000000000015200000000000000000000100010010000000000000000000000F0010000008492400520160415000101 00000000000000000000000000000000000000000000000000000000000000000000000000000000000000000000000000000000000000000N 00000000000NCONT   00    00000000000          00000000000000000000000000000000000000000000 000000000000000A000000000000000000000000000000000000000000000 000000000000000000000000000000000000000     00000000                                                                                                                        000000000000000000
F0010000008492500001000007213133300011050500000000000000000201604150002001ALVARO ALBERTO FANDIÑO GOMEZ                     D000000001050000000000000000000000100010010000000000000000000000F0010000008492500120160415000101 00000000000000000000000000000000000000000000000000000000000000000000000000000000000000000000000000000000000000000N 00000000000NCONT   00    00000000000          00000000000000000000000000000000000000000000 000000000000000A000000000000000000000000000000000000000000000 000000000000000000000000000000000000000     00000000                                                                                                                        000000000000000000
F0010000008492500002000007213133300041450500000000000000000201604150002001ALVARO ALBERTO FANDIÑO GOMEZ                     C000000000950000000000000000000000100010010000000000000000000000F0010000008492500220160415000101 00000000000000000000000000000000000000000000000000000000000000000000000000000000000000000000000000000000000000000N 00000000000NCONT   00    00000000000          00000000000000000000000000000000000000000000 000000000000000A000000000000000000000000000000000000000000000 000000000000000000000000000000000000000     00000000                                                                                                                        000000000000000000
F0010000008492500003000007213133300042505000000000000000000201604150002001ALVARO ALBERTO FANDIÑO GOMEZ                     C000000000100000000000000000000000100010010000000000000000000000F0010000008492500320160415000101 00000000000000000000000000000000000000000000000000000000000000000000000000000000000000000000000000000000000000000N 00000000000NCONT   00    00000000000          00000000000000000000000000000000000000000000 000000000000000A000000000000000000000000000000000000000000000 000000000000000000000000000000000000000     00000000                                                                                                                        000000000000000000
F0010000008492500004000007213133300023658300000000000000000201604150002001ALVARO ALBERTO FANDIÑO GOMEZ                     C000000000007600000000000000000000100010010000000000000000000000F0010000008492500420160415000101 00000000000000000000000000000000000000000000000000000000000000000000000000000000000000000000000000000000000000000N 00000000000NCONT   00    00000000000          00000000000000000000000000000000000000000000 000000000000000A000000000000000000000000000000000000000000000 000000000000000000000000000000000000000     00000000                                                                                                                        000000000000000000
F0010000008492500005000007213133300013552100000000000000000201604150002001ALVARO ALBERTO FANDIÑO GOMEZ                     D000000000007600000000000000000000100010010000000000000000000000F0010000008492500520160415000101 00000000000000000000000000000000000000000000000000000000000000000000000000000000000000000000000000000000000000000N 00000000000NCONT   00    00000000000          00000000000000000000000000000000000000000000 000000000000000A000000000000000000000000000000000000000000000 000000000000000000000000000000000000000     00000000                                                                                                                        000000000000000000
F0010000008492600001000007215487700011050500000000000000000201604150002001AGRODISTRIBUCIONES M Y M                          D000000001050000000000000000000000100010010000000000000000000000F0010000008492600120160415000101 00000000000000000000000000000000000000000000000000000000000000000000000000000000000000000000000000000000000000000N 00000000000NCONT   00    00000000000          00000000000000000000000000000000000000000000 000000000000000A000000000000000000000000000000000000000000000 000000000000000000000000000000000000000     00000000                                                                                                                        000000000000000000
F0010000008492600002000007215487700041450500000000000000000201604150002001AGRODISTRIBUCIONES M Y M                          C000000000950000000000000000000000100010010000000000000000000000F0010000008492600220160415000101 00000000000000000000000000000000000000000000000000000000000000000000000000000000000000000000000000000000000000000N 00000000000NCONT   00    00000000000          00000000000000000000000000000000000000000000 000000000000000A000000000000000000000000000000000000000000000 000000000000000000000000000000000000000     00000000                                                                                                                        000000000000000000
F0010000008492600003000007215487700042505000000000000000000201604150002001AGRODISTRIBUCIONES M Y M                          C000000000100000000000000000000000100010010000000000000000000000F0010000008492600320160415000101 00000000000000000000000000000000000000000000000000000000000000000000000000000000000000000000000000000000000000000N 00000000000NCONT   00    00000000000          00000000000000000000000000000000000000000000 000000000000000A000000000000000000000000000000000000000000000 000000000000000000000000000000000000000     00000000                                                                                                                        000000000000000000
F0010000008492600004000007215487700023658300000000000000000201604150002001AGRODISTRIBUCIONES M Y M                          C000000000007600000000000000000000100010010000000000000000000000F0010000008492600420160415000101 00000000000000000000000000000000000000000000000000000000000000000000000000000000000000000000000000000000000000000N 00000000000NCONT   00    00000000000          00000000000000000000000000000000000000000000 000000000000000A000000000000000000000000000000000000000000000 000000000000000000000000000000000000000     00000000                                                                                                                        000000000000000000
F0010000008492600005000007215487700013552100000000000000000201604150002001AGRODISTRIBUCIONES M Y M                          D000000000007600000000000000000000100010010000000000000000000000F0010000008492600520160415000101 00000000000000000000000000000000000000000000000000000000000000000000000000000000000000000000000000000000000000000N 00000000000NCONT   00    00000000000          00000000000000000000000000000000000000000000 000000000000000A000000000000000000000000000000000000000000000 000000000000000000000000000000000000000     00000000                                                                                                                        000000000000000000
F0010000008492700001000007009778500011050500000000000000000201604150002001JORGE ALBERTO CASTAÑO                            D000000012000000000000000000000000100010010000000000000000000000F0010000008492700120160415000101 00000000000000000000000000000000000000000000000000000000000000000000000000000000000000000000000000000000000000000N 00000000000NCONT   00    00000000000          00000000000000000000000000000000000000000000 000000000000000A000000000000000000000000000000000000000000000 000000000000000000000000000000000000000     00000000                                                                                                                        000000000000000000
F0010000008492700002000007009778500041450500000000000000000201604150002001JORGE ALBERTO CASTAÑO                            C000000011500000000000000000000000100010010000000000000000000000F0010000008492700220160415000101 00000000000000000000000000000000000000000000000000000000000000000000000000000000000000000000000000000000000000000N 00000000000NCONT   00    00000000000          00000000000000000000000000000000000000000000 000000000000000A000000000000000000000000000000000000000000000 000000000000000000000000000000000000000     00000000                                                                                                                        000000000000000000
F0010000008492700003000007009778500042505000000000000000000201604150002001JORGE ALBERTO CASTAÑO                            C000000000500000000000000000000000100010010000000000000000000000F0010000008492700320160415000101 00000000000000000000000000000000000000000000000000000000000000000000000000000000000000000000000000000000000000000N 00000000000NCONT   00    00000000000          00000000000000000000000000000000000000000000 000000000000000A000000000000000000000000000000000000000000000 000000000000000000000000000000000000000     00000000                                                                                                                        000000000000000000
F0010000008492700004000007009778500023658300000000000000000201604150002001JORGE ALBERTO CASTAÑO                            C000000000092000000000000000000000100010010000000000000000000000F0010000008492700420160415000101 00000000000000000000000000000000000000000000000000000000000000000000000000000000000000000000000000000000000000000N 00000000000NCONT   00    00000000000          00000000000000000000000000000000000000000000 000000000000000A000000000000000000000000000000000000000000000 000000000000000000000000000000000000000     00000000                                                                                                                        000000000000000000
F0010000008492700005000007009778500013552100000000000000000201604150002001JORGE ALBERTO CASTAÑO                            D000000000092000000000000000000000100010010000000000000000000000F0010000008492700520160415000101 00000000000000000000000000000000000000000000000000000000000000000000000000000000000000000000000000000000000000000N 00000000000NCONT   00    00000000000          00000000000000000000000000000000000000000000 000000000000000A000000000000000000000000000000000000000000000 000000000000000000000000000000000000000     00000000                                                                                                                        000000000000000000
F0010000008492800001000080014190300011050500000000000000000201604150002001QUIMINSA LTDA                                     D000000001100000000000000000000000100010010000000000000000000000F0010000008492800120160415000101 00000000000000000000000000000000000000000000000000000000000000000000000000000000000000000000000000000000000000000N 00000000000NCONT   00    00000000000          00000000000000000000000000000000000000000000 000000000000000A000000000000000000000000000000000000000000000 000000000000000000000000000000000000000     00000000                                                                                                                        000000000000000000
F0010000008492800002000080014190300041450500000000000000000201604150002001QUIMINSA LTDA                                     C000000000920000000000000000000000100010010000000000000000000000F0010000008492800220160415000101 00000000000000000000000000000000000000000000000000000000000000000000000000000000000000000000000000000000000000000N 00000000000NCONT   00    00000000000          00000000000000000000000000000000000000000000 000000000000000A000000000000000000000000000000000000000000000 000000000000000000000000000000000000000     00000000                                                                                                                        000000000000000000
F0010000008492800003000080014190300042505000000000000000000201604150002001QUIMINSA LTDA                                     C000000000180000000000000000000000100010010000000000000000000000F0010000008492800320160415000101 00000000000000000000000000000000000000000000000000000000000000000000000000000000000000000000000000000000000000000N 00000000000NCONT   00    00000000000          00000000000000000000000000000000000000000000 000000000000000A000000000000000000000000000000000000000000000 000000000000000000000000000000000000000     00000000                                                                                                                        000000000000000000
F0010000008492800004000080014190300023658300000000000000000201604150002001QUIMINSA LTDA                                     C000000000007400000000000000000000100010010000000000000000000000F0010000008492800420160415000101 00000000000000000000000000000000000000000000000000000000000000000000000000000000000000000000000000000000000000000N 00000000000NCONT   00    00000000000          00000000000000000000000000000000000000000000 000000000000000A000000000000000000000000000000000000000000000 000000000000000000000000000000000000000     00000000                                                                                                                        000000000000000000
F0010000008492800005000080014190300013552100000000000000000201604150002001QUIMINSA LTDA                                     D000000000007400000000000000000000100010010000000000000000000000F0010000008492800520160415000101 00000000000000000000000000000000000000000000000000000000000000000000000000000000000000000000000000000000000000000N 00000000000NCONT   00    00000000000          00000000000000000000000000000000000000000000 000000000000000A000000000000000000000000000000000000000000000 000000000000000000000000000000000000000     00000000                                                                                                                        000000000000000000
F0010000008492900001000080201703900011050500000000000000000201604150002001MUNDIAL CHEMICAL LTDA                             D000000004130000000000000000000000100010010000000000000000000000F0010000008492900120160415000101 00000000000000000000000000000000000000000000000000000000000000000000000000000000000000000000000000000000000000000N 00000000000NCONT   00    00000000000          00000000000000000000000000000000000000000000 000000000000000A000000000000000000000000000000000000000000000 000000000000000000000000000000000000000     00000000                                                                                                                        000000000000000000
F0010000008492900002000080201703900041450500000000000000000201604150002001MUNDIAL CHEMICAL LTDA                             C000000003700000000000000000000000100010010000000000000000000000F0010000008492900220160415000101 00000000000000000000000000000000000000000000000000000000000000000000000000000000000000000000000000000000000000000N 00000000000NCONT   00    00000000000          00000000000000000000000000000000000000000000 000000000000000A000000000000000000000000000000000000000000000 000000000000000000000000000000000000000     00000000                                                                                                                        000000000000000000
F0010000008492900003000080201703900042505000000000000000000201604150002001MUNDIAL CHEMICAL LTDA                             C000000000430000000000000000000000100010010000000000000000000000F0010000008492900320160415000101 00000000000000000000000000000000000000000000000000000000000000000000000000000000000000000000000000000000000000000N 00000000000NCONT   00    00000000000          00000000000000000000000000000000000000000000 000000000000000A000000000000000000000000000000000000000000000 000000000000000000000000000000000000000     00000000                                                                                                                        000000000000000000
F0010000008492900004000080201703900023658300000000000000000201604150002001MUNDIAL CHEMICAL LTDA                             C000000000029600000000000000000000100010010000000000000000000000F0010000008492900420160415000101 00000000000000000000000000000000000000000000000000000000000000000000000000000000000000000000000000000000000000000N 00000000000NCONT   00    00000000000          00000000000000000000000000000000000000000000 000000000000000A000000000000000000000000000000000000000000000 000000000000000000000000000000000000000     00000000                                                                                                                        000000000000000000
F0010000008492900005000080201703900013552100000000000000000201604150002001MUNDIAL CHEMICAL LTDA                             D000000000029600000000000000000000100010010000000000000000000000F0010000008492900520160415000101 00000000000000000000000000000000000000000000000000000000000000000000000000000000000000000000000000000000000000000N 00000000000NCONT   00    00000000000          00000000000000000000000000000000000000000000 000000000000000A000000000000000000000000000000000000000000000 000000000000000000000000000000000000000     00000000                                                                                                                        000000000000000000
F0010000008493000001000000431178400011050500000000000000000201604150002001EFRAIN ALVAREZ                                    D000000001045000000000000000000000100010010000000000000000000000F0010000008493000120160415000101 00000000000000000000000000000000000000000000000000000000000000000000000000000000000000000000000000000000000000000N 00000000000NCONT   00    00000000000          00000000000000000000000000000000000000000000 000000000000000A000000000000000000000000000000000000000000000 000000000000000000000000000000000000000     00000000                                                                                                                        000000000000000000
F0010000008493000002000000431178400041450500000000000000000201604150002001EFRAIN ALVAREZ                                    C000000000920000000000000000000000100010010000000000000000000000F0010000008493000220160415000101 00000000000000000000000000000000000000000000000000000000000000000000000000000000000000000000000000000000000000000N 00000000000NCONT   00    00000000000          00000000000000000000000000000000000000000000 000000000000000A000000000000000000000000000000000000000000000 000000000000000000000000000000000000000     00000000                                                                                                                        000000000000000000
F0010000008493000003000000431178400042505000000000000000000201604150002001EFRAIN ALVAREZ                                    C000000000125000000000000000000000100010010000000000000000000000F0010000008493000320160415000101 00000000000000000000000000000000000000000000000000000000000000000000000000000000000000000000000000000000000000000N 00000000000NCONT   00    00000000000          00000000000000000000000000000000000000000000 000000000000000A000000000000000000000000000000000000000000000 000000000000000000000000000000000000000     00000000                                                                                                                        000000000000000000
F0010000008493000004000000431178400023658300000000000000000201604150002001EFRAIN ALVAREZ                                    C000000000007400000000000000000000100010010000000000000000000000F0010000008493000420160415000101 00000000000000000000000000000000000000000000000000000000000000000000000000000000000000000000000000000000000000000N 00000000000NCONT   00    00000000000          00000000000000000000000000000000000000000000 000000000000000A000000000000000000000000000000000000000000000 000000000000000000000000000000000000000     00000000                                                                                                                        000000000000000000
F0010000008493000005000000431178400013552100000000000000000201604150002001EFRAIN ALVAREZ                                    D000000000007400000000000000000000100010010000000000000000000000F0010000008493000520160415000101 00000000000000000000000000000000000000000000000000000000000000000000000000000000000000000000000000000000000000000N 00000000000NCONT   00    00000000000          00000000000000000000000000000000000000000000 000000000000000A000000000000000000000000000000000000000000000 000000000000000000000000000000000000000     00000000                                                                                                                        000000000000000000
F0010000008493100001000000431178400011050500000000000000000201604150002001EFRAIN ALVAREZ                                    D000000001920000000000000000000000100010010000000000000000000000F0010000008493100120160415000101 00000000000000000000000000000000000000000000000000000000000000000000000000000000000000000000000000000000000000000N 00000000000NCONT   00    00000000000          00000000000000000000000000000000000000000000 000000000000000A000000000000000000000000000000000000000000000 000000000000000000000000000000000000000     00000000                                                                                                                        000000000000000000
F0010000008493100002000000431178400041450500000000000000000201604150002001EFRAIN ALVAREZ                                    C000000001840000000000000000000000100010010000000000000000000000F0010000008493100220160415000101 00000000000000000000000000000000000000000000000000000000000000000000000000000000000000000000000000000000000000000N 00000000000NCONT   00    00000000000          00000000000000000000000000000000000000000000 000000000000000A000000000000000000000000000000000000000000000 000000000000000000000000000000000000000     00000000                                                                                                                        000000000000000000
F0010000008493100003000000431178400042505000000000000000000201604150002001EFRAIN ALVAREZ                                    C000000000080000000000000000000000100010010000000000000000000000F0010000008493100320160415000101 00000000000000000000000000000000000000000000000000000000000000000000000000000000000000000000000000000000000000000N 00000000000NCONT   00    00000000000          00000000000000000000000000000000000000000000 000000000000000A000000000000000000000000000000000000000000000 000000000000000000000000000000000000000     00000000                                                                                                                        000000000000000000
F0010000008493100004000000431178400023658300000000000000000201604150002001EFRAIN ALVAREZ                                    C000000000014700000000000000000000100010010000000000000000000000F0010000008493100420160415000101 00000000000000000000000000000000000000000000000000000000000000000000000000000000000000000000000000000000000000000N 00000000000NCONT   00    00000000000          00000000000000000000000000000000000000000000 000000000000000A000000000000000000000000000000000000000000000 000000000000000000000000000000000000000     00000000                                                                                                                        000000000000000000
F0010000008493100005000000431178400013552100000000000000000201604150002001EFRAIN ALVAREZ                                    D000000000014700000000000000000000100010010000000000000000000000F0010000008493100520160415000101 00000000000000000000000000000000000000000000000000000000000000000000000000000000000000000000000000000000000000000N 00000000000NCONT   00    00000000000          00000000000000000000000000000000000000000000 000000000000000A000000000000000000000000000000000000000000000 000000000000000000000000000000000000000     00000000                                                                                                                        000000000000000000
F0010000008493200001000000431178400011050500000000000000000201604150002001EFRAIN ALVAREZ                                    D000000004900000000000000000000000100010010000000000000000000000F0010000008493200120160415000101 00000000000000000000000000000000000000000000000000000000000000000000000000000000000000000000000000000000000000000N 00000000000NCONT   00    00000000000          00000000000000000000000000000000000000000000 000000000000000A000000000000000000000000000000000000000000000 000000000000000000000000000000000000000     00000000                                                                                                                        000000000000000000
F0010000008493200002000000431178400041450500000000000000000201604150002001EFRAIN ALVAREZ                                    C000000004600000000000000000000000100010010000000000000000000000F0010000008493200220160415000101 00000000000000000000000000000000000000000000000000000000000000000000000000000000000000000000000000000000000000000N 00000000000NCONT   00    00000000000          00000000000000000000000000000000000000000000 000000000000000A000000000000000000000000000000000000000000000 000000000000000000000000000000000000000     00000000                                                                                                                        000000000000000000
F0010000008493200003000000431178400042505000000000000000000201604150002001EFRAIN ALVAREZ                                    C000000000300000000000000000000000100010010000000000000000000000F0010000008493200320160415000101 00000000000000000000000000000000000000000000000000000000000000000000000000000000000000000000000000000000000000000N 00000000000NCONT   00    00000000000          00000000000000000000000000000000000000000000 000000000000000A000000000000000000000000000000000000000000000 000000000000000000000000000000000000000     00000000                                                                                                                        000000000000000000
F0010000008493200004000000431178400023658300000000000000000201604150002001EFRAIN ALVAREZ                                    C000000000036800000000000000000000100010010000000000000000000000F0010000008493200420160415000101 00000000000000000000000000000000000000000000000000000000000000000000000000000000000000000000000000000000000000000N 00000000000NCONT   00    00000000000          00000000000000000000000000000000000000000000 000000000000000A000000000000000000000000000000000000000000000 000000000000000000000000000000000000000     00000000                                                                                                                        000000000000000000
F0010000008493200005000000431178400013552100000000000000000201604150002001EFRAIN ALVAREZ                                    D000000000036800000000000000000000100010010000000000000000000000F0010000008493200520160415000101 00000000000000000000000000000000000000000000000000000000000000000000000000000000000000000000000000000000000000000N 00000000000NCONT   00    00000000000          00000000000000000000000000000000000000000000 000000000000000A000000000000000000000000000000000000000000000 000000000000000000000000000000000000000     00000000                                                                                                                        000000000000000000
F0010000008493300001000001022529300011050500000000000000000201604150002001ALBERTO ALVAREZ ISAZA                             D000000001760000000000000000000000100010010000000000000000000000F0010000008493300120160415000101 00000000000000000000000000000000000000000000000000000000000000000000000000000000000000000000000000000000000000000N 00000000000NCONT   00    00000000000          00000000000000000000000000000000000000000000 000000000000000A000000000000000000000000000000000000000000000 000000000000000000000000000000000000000     00000000                                                                                                                        000000000000000000
F0010000008493300002000001022529300041450500000000000000000201604150002001ALBERTO ALVAREZ ISAZA                             C000000001760000000000000000000000100010010000000000000000000000F0010000008493300220160415000101 00000000000000000000000000000000000000000000000000000000000000000000000000000000000000000000000000000000000000000N 00000000000NCONT   00    00000000000          00000000000000000000000000000000000000000000 000000000000000A000000000000000000000000000000000000000000000 000000000000000000000000000000000000000     00000000                                                                                                                        000000000000000000
F0010000008493300003000001022529300042505000000000000000000201604150002001ALBERTO ALVAREZ ISAZA                             C000000000000000000000000000000000100010010000000000000000000000F0010000008493300320160415000101 00000000000000000000000000000000000000000000000000000000000000000000000000000000000000000000000000000000000000000N 00000000000NCONT   00    00000000000          00000000000000000000000000000000000000000000 000000000000000A000000000000000000000000000000000000000000000 000000000000000000000000000000000000000     00000000                                                                                                                        000000000000000000
F0010000008493300004000001022529300023658300000000000000000201604150002001ALBERTO ALVAREZ ISAZA                             C000000000014100000000000000000000100010010000000000000000000000F0010000008493300420160415000101 00000000000000000000000000000000000000000000000000000000000000000000000000000000000000000000000000000000000000000N 00000000000NCONT   00    00000000000          00000000000000000000000000000000000000000000 000000000000000A000000000000000000000000000000000000000000000 000000000000000000000000000000000000000     00000000                                                                                                                        000000000000000000
F0010000008493300005000001022529300013552100000000000000000201604150002001ALBERTO ALVAREZ ISAZA                             D000000000014100000000000000000000100010010000000000000000000000F0010000008493300520160415000101 00000000000000000000000000000000000000000000000000000000000000000000000000000000000000000000000000000000000000000N 00000000000NCONT   00    00000000000          00000000000000000000000000000000000000000000 000000000000000A000000000000000000000000000000000000000000000 000000000000000000000000000000000000000     00000000                                                                                                                        000000000000000000
F0010000008493400001000001022529300011050500000000000000000201604150002001ALBERTO ALVAREZ ISAZA                             D000000000506700000000000000000000100010010000000000000000000000F0010000008493400120160415000101 00000000000000000000000000000000000000000000000000000000000000000000000000000000000000000000000000000000000000000N 00000000000NCONT   00    00000000000          00000000000000000000000000000000000000000000 000000000000000A000000000000000000000000000000000000000000000 000000000000000000000000000000000000000     00000000                                                                                                                        000000000000000000
F0010000008493400002000001022529300041450500000000000000000201604150002001ALBERTO ALVAREZ ISAZA                             C000000000410000000000000000000000100010010000000000000000000000F0010000008493400220160415000101 00000000000000000000000000000000000000000000000000000000000000000000000000000000000000000000000000000000000000000N 00000000000NCONT   00    00000000000          00000000000000000000000000000000000000000000 000000000000000A000000000000000000000000000000000000000000000 000000000000000000000000000000000000000     00000000                                                                                                                        000000000000000000
F0010000008493400003000001022529300042505000000000000000000201604150002001ALBERTO ALVAREZ ISAZA                             C000000000096700000000000000000000100010010000000000000000000000F0010000008493400320160415000101 00000000000000000000000000000000000000000000000000000000000000000000000000000000000000000000000000000000000000000N 00000000000NCONT   00    00000000000          00000000000000000000000000000000000000000000 000000000000000A000000000000000000000000000000000000000000000 000000000000000000000000000000000000000     00000000                                                                                                                        000000000000000000
F0010000008493400004000001022529300023658300000000000000000201604150002001ALBERTO ALVAREZ ISAZA                             C000000000003300000000000000000000100010010000000000000000000000F0010000008493400420160415000101 00000000000000000000000000000000000000000000000000000000000000000000000000000000000000000000000000000000000000000N 00000000000NCONT   00    00000000000          00000000000000000000000000000000000000000000 000000000000000A000000000000000000000000000000000000000000000 000000000000000000000000000000000000000     00000000                                                                                                                        000000000000000000
F0010000008493400005000001022529300013552100000000000000000201604150002001ALBERTO ALVAREZ ISAZA                             D000000000003300000000000000000000100010010000000000000000000000F0010000008493400520160415000101 00000000000000000000000000000000000000000000000000000000000000000000000000000000000000000000000000000000000000000N 00000000000NCONT   00    00000000000          00000000000000000000000000000000000000000000 000000000000000A000000000000000000000000000000000000000000000 000000000000000000000000000000000000000     00000000                                                                                                                        000000000000000000
F0010000008493500001000001022529300011050500000000000000000201604150002001ALBERTO ALVAREZ ISAZA                             D000000001760000000000000000000000100010010000000000000000000000F0010000008493500120160415000101 00000000000000000000000000000000000000000000000000000000000000000000000000000000000000000000000000000000000000000N 00000000000NCONT   00    00000000000          00000000000000000000000000000000000000000000 000000000000000A000000000000000000000000000000000000000000000 000000000000000000000000000000000000000     00000000                                                                                                                        000000000000000000
F0010000008493500002000001022529300041450500000000000000000201604150002001ALBERTO ALVAREZ ISAZA                             C000000001760000000000000000000000100010010000000000000000000000F0010000008493500220160415000101 00000000000000000000000000000000000000000000000000000000000000000000000000000000000000000000000000000000000000000N 00000000000NCONT   00    00000000000          00000000000000000000000000000000000000000000 000000000000000A000000000000000000000000000000000000000000000 000000000000000000000000000000000000000     00000000                                                                                                                        000000000000000000
F0010000008493500003000001022529300042505000000000000000000201604150002001ALBERTO ALVAREZ ISAZA                             C000000000000000000000000000000000100010010000000000000000000000F0010000008493500320160415000101 00000000000000000000000000000000000000000000000000000000000000000000000000000000000000000000000000000000000000000N 00000000000NCONT   00    00000000000          00000000000000000000000000000000000000000000 000000000000000A000000000000000000000000000000000000000000000 000000000000000000000000000000000000000     00000000                                                                                                                        000000000000000000
F0010000008493500004000001022529300023658300000000000000000201604150002001ALBERTO ALVAREZ ISAZA                             C000000000014100000000000000000000100010010000000000000000000000F0010000008493500420160415000101 00000000000000000000000000000000000000000000000000000000000000000000000000000000000000000000000000000000000000000N 00000000000NCONT   00    00000000000          00000000000000000000000000000000000000000000 000000000000000A000000000000000000000000000000000000000000000 000000000000000000000000000000000000000     00000000                                                                                                                        000000000000000000
F0010000008493500005000001022529300013552100000000000000000201604150002001ALBERTO ALVAREZ ISAZA                             D000000000014100000000000000000000100010010000000000000000000000F0010000008493500520160415000101 00000000000000000000000000000000000000000000000000000000000000000000000000000000000000000000000000000000000000000N 00000000000NCONT   00    00000000000          00000000000000000000000000000000000000000000 000000000000000A000000000000000000000000000000000000000000000 000000000000000000000000000000000000000     00000000                                                                                                                        000000000000000000
F0010000008493600001000007200023300011050500000000000000000201604150002001WILLIAM ORTEGA                                    D000000001500000000000000000000000100010010000000000000000000000F0010000008493600120160415000101 00000000000000000000000000000000000000000000000000000000000000000000000000000000000000000000000000000000000000000N 00000000000NCONT   00    00000000000          00000000000000000000000000000000000000000000 000000000000000A000000000000000000000000000000000000000000000 000000000000000000000000000000000000000     00000000                                                                                                                        000000000000000000
F0010000008493600002000007200023300041450500000000000000000201604150002001WILLIAM ORTEGA                                    C000000001300000000000000000000000100010010000000000000000000000F0010000008493600220160415000101 00000000000000000000000000000000000000000000000000000000000000000000000000000000000000000000000000000000000000000N 00000000000NCONT   00    00000000000          00000000000000000000000000000000000000000000 000000000000000A000000000000000000000000000000000000000000000 000000000000000000000000000000000000000     00000000                                                                                                                        000000000000000000
F0010000008493600003000007200023300042505000000000000000000201604150002001WILLIAM ORTEGA                                    C000000000200000000000000000000000100010010000000000000000000000F0010000008493600320160415000101 00000000000000000000000000000000000000000000000000000000000000000000000000000000000000000000000000000000000000000N 00000000000NCONT   00    00000000000          00000000000000000000000000000000000000000000 000000000000000A000000000000000000000000000000000000000000000 000000000000000000000000000000000000000     00000000                                                                                                                        000000000000000000
F0010000008493600004000007200023300023658300000000000000000201604150002001WILLIAM ORTEGA                                    C000000000010400000000000000000000100010010000000000000000000000F0010000008493600420160415000101 00000000000000000000000000000000000000000000000000000000000000000000000000000000000000000000000000000000000000000N 00000000000NCONT   00    00000000000          00000000000000000000000000000000000000000000 000000000000000A000000000000000000000000000000000000000000000 000000000000000000000000000000000000000     00000000                                                                                                                        000000000000000000
F0010000008493600005000007200023300013552100000000000000000201604150002001WILLIAM ORTEGA                                    D000000000010400000000000000000000100010010000000000000000000000F0010000008493600520160415000101 00000000000000000000000000000000000000000000000000000000000000000000000000000000000000000000000000000000000000000N 00000000000NCONT   00    00000000000          00000000000000000000000000000000000000000000 000000000000000A000000000000000000000000000000000000000000000 000000000000000000000000000000000000000     00000000                                                                                                                        000000000000000000
F0010000008493700001000090007142100011050500000000000000000201604150002001TODO BELLEZA Y MAX S.A.S                          D000000009200000000000000000000000100010010000000000000000000000F0010000008493700120160415000101 00000000000000000000000000000000000000000000000000000000000000000000000000000000000000000000000000000000000000000N 00000000000NCONT   00    00000000000          00000000000000000000000000000000000000000000 000000000000000A000000000000000000000000000000000000000000000 000000000000000000000000000000000000000     00000000                                                                                                                        000000000000000000
F0010000008493700002000090007142100041450500000000000000000201604150002001TODO BELLEZA Y MAX S.A.S                          C000000009000000000000000000000000100010010000000000000000000000F0010000008493700220160415000101 00000000000000000000000000000000000000000000000000000000000000000000000000000000000000000000000000000000000000000N 00000000000NCONT   00    00000000000          00000000000000000000000000000000000000000000 000000000000000A000000000000000000000000000000000000000000000 000000000000000000000000000000000000000     00000000                                                                                                                        000000000000000000
F0010000008493700003000090007142100042505000000000000000000201604150002001TODO BELLEZA Y MAX S.A.S                          C000000000200000000000000000000000100010010000000000000000000000F0010000008493700320160415000101 00000000000000000000000000000000000000000000000000000000000000000000000000000000000000000000000000000000000000000N 00000000000NCONT   00    00000000000          00000000000000000000000000000000000000000000 000000000000000A000000000000000000000000000000000000000000000 000000000000000000000000000000000000000     00000000                                                                                                                        000000000000000000
F0010000008493700004000090007142100023658300000000000000000201604150002001TODO BELLEZA Y MAX S.A.S                          C000000000072000000000000000000000100010010000000000000000000000F0010000008493700420160415000101 00000000000000000000000000000000000000000000000000000000000000000000000000000000000000000000000000000000000000000N 00000000000NCONT   00    00000000000          00000000000000000000000000000000000000000000 000000000000000A000000000000000000000000000000000000000000000 000000000000000000000000000000000000000     00000000                                                                                                                        000000000000000000
F0010000008493700005000090007142100013552100000000000000000201604150002001TODO BELLEZA Y MAX S.A.S                          D000000000072000000000000000000000100010010000000000000000000000F0010000008493700520160415000101 00000000000000000000000000000000000000000000000000000000000000000000000000000000000000000000000000000000000000000N 00000000000NCONT   00    00000000000          00000000000000000000000000000000000000000000 000000000000000A000000000000000000000000000000000000000000000 000000000000000000000000000000000000000     00000000                                                                                                                        000000000000000000
F0010000008493800001000090007142100011050500000000000000000201604150002001TODO BELLEZA Y MAX S.A.S                          D000000010150000000000000000000000100010010000000000000000000000F0010000008493800120160415000101 00000000000000000000000000000000000000000000000000000000000000000000000000000000000000000000000000000000000000000N 00000000000NCONT   00    00000000000          00000000000000000000000000000000000000000000 000000000000000A000000000000000000000000000000000000000000000 000000000000000000000000000000000000000     00000000                                                                                                                        000000000000000000
F0010000008493800002000090007142100041450500000000000000000201604150002001TODO BELLEZA Y MAX S.A.S                          C000000009900000000000000000000000100010010000000000000000000000F0010000008493800220160415000101 00000000000000000000000000000000000000000000000000000000000000000000000000000000000000000000000000000000000000000N 00000000000NCONT   00    00000000000          00000000000000000000000000000000000000000000 000000000000000A000000000000000000000000000000000000000000000 000000000000000000000000000000000000000     00000000                                                                                                                        000000000000000000
F0010000008493800003000090007142100042505000000000000000000201604150002001TODO BELLEZA Y MAX S.A.S                          C000000000250000000000000000000000100010010000000000000000000000F0010000008493800320160415000101 00000000000000000000000000000000000000000000000000000000000000000000000000000000000000000000000000000000000000000N 00000000000NCONT   00    00000000000          00000000000000000000000000000000000000000000 000000000000000A000000000000000000000000000000000000000000000 000000000000000000000000000000000000000     00000000                                                                                                                        000000000000000000
F0010000008493800004000090007142100023658300000000000000000201604150002001TODO BELLEZA Y MAX S.A.S                          C000000000079200000000000000000000100010010000000000000000000000F0010000008493800420160415000101 00000000000000000000000000000000000000000000000000000000000000000000000000000000000000000000000000000000000000000N 00000000000NCONT   00    00000000000          00000000000000000000000000000000000000000000 000000000000000A000000000000000000000000000000000000000000000 000000000000000000000000000000000000000     00000000                                                                                                                        000000000000000000
F0010000008493800005000090007142100013552100000000000000000201604150002001TODO BELLEZA Y MAX S.A.S                          D000000000079200000000000000000000100010010000000000000000000000F0010000008493800520160415000101 00000000000000000000000000000000000000000000000000000000000000000000000000000000000000000000000000000000000000000N 00000000000NCONT   00    00000000000          00000000000000000000000000000000000000000000 000000000000000A000000000000000000000000000000000000000000000 000000000000000000000000000000000000000     00000000                                                                                                                        000000000000000000
F0010000008493900001000086000061500011050500000000000000000201604150002001DISTRIBUIDORA CORDOBA                             D000000001050000000000000000000000100010010000000000000000000000F0010000008493900120160415000101 00000000000000000000000000000000000000000000000000000000000000000000000000000000000000000000000000000000000000000N 00000000000NCONT   00    00000000000          00000000000000000000000000000000000000000000 000000000000000A000000000000000000000000000000000000000000000 000000000000000000000000000000000000000     00000000                                                                                                                        000000000000000000
F0010000008493900002000086000061500041450500000000000000000201604150002001DISTRIBUIDORA CORDOBA                             C000000000950000000000000000000000100010010000000000000000000000F0010000008493900220160415000101 00000000000000000000000000000000000000000000000000000000000000000000000000000000000000000000000000000000000000000N 00000000000NCONT   00    00000000000          00000000000000000000000000000000000000000000 000000000000000A000000000000000000000000000000000000000000000 000000000000000000000000000000000000000     00000000                                                                                                                        000000000000000000
F0010000008493900003000086000061500042505000000000000000000201604150002001DISTRIBUIDORA CORDOBA                             C000000000100000000000000000000000100010010000000000000000000000F0010000008493900320160415000101 00000000000000000000000000000000000000000000000000000000000000000000000000000000000000000000000000000000000000000N 00000000000NCONT   00    00000000000          00000000000000000000000000000000000000000000 000000000000000A000000000000000000000000000000000000000000000 000000000000000000000000000000000000000     00000000                                                                                                                        000000000000000000
F0010000008493900004000086000061500023658300000000000000000201604150002001DISTRIBUIDORA CORDOBA                             C000000000007600000000000000000000100010010000000000000000000000F0010000008493900420160415000101 00000000000000000000000000000000000000000000000000000000000000000000000000000000000000000000000000000000000000000N 00000000000NCONT   00    00000000000          00000000000000000000000000000000000000000000 000000000000000A000000000000000000000000000000000000000000000 000000000000000000000000000000000000000     00000000                                                                                                                        000000000000000000
F0010000008493900005000086000061500013552100000000000000000201604150002001DISTRIBUIDORA CORDOBA                             D000000000007600000000000000000000100010010000000000000000000000F0010000008493900520160415000101 00000000000000000000000000000000000000000000000000000000000000000000000000000000000000000000000000000000000000000N 00000000000NCONT   00    00000000000          00000000000000000000000000000000000000000000 000000000000000A000000000000000000000000000000000000000000000 000000000000000000000000000000000000000     00000000                                                                                                                        000000000000000000
