F0010000007778100001000081102758700013050500000000000000000201510210002001C.I. ABRACOL S.A EMA                              D000000073521900000000000000000000100010010000000000000000000000F0010000007778100120151021000101 00000000000000000000000000000000000000000000000000000000000000000000000000000000000000000000000000000000000000000N 00000000000NCONT   00    00000000000          00000000000000000000000000000000000000000000 000000000000000A000000000000000000000000000000000000000000000 000000000000000000000000000000000000000     00000000                                                                                                                        000000000000000000
F0010000007778100002000081102758700041450500000000000000000201510210002001C.I. ABRACOL S.A EMA                              C000000050250000000000000000000000100010010000000000000000000000F0010000007778100220151021000101 00000000000000000000000000000000000000000000000000000000000000000000000000000000000000000000000000000000000000000N 00000000000NCONT   00    00000000000          00000000000000000000000000000000000000000000 000000000000000A000000000000000000000000000000000000000000000 000000000000000000000000000000000000000     00000000                                                                                                                        000000000000000000
F0010000007778100003000081102758700041750100000000000000000201510210002001C.I. ABRACOL S.A EMA                              D000000001507500000000000000000000100010010000000000000000000000F0010000007778100320151021000101 00000000000000000000000000000000000000000000000000000000000000000000000000000000000000000000000000000000000000000N 00000000000NCONT   00    00000000000          00000000000000000000000000000000000000000000 000000000000000A000000000000000000000000000000000000000000000 000000000000000000000000000000000000000     00000000                                                                                                                        000000000000000000
F0010000007778100004000081102758700042505000000000000000000201510210002001C.I. ABRACOL S.A EMA                              C000000024779400000000000000000000100010010000000000000000000000F0010000007778100420151021000101 00000000000000000000000000000000000000000000000000000000000000000000000000000000000000000000000000000000000000000N 00000000000NCONT   00    00000000000          00000000000000000000000000000000000000000000 000000000000000A000000000000000000000000000000000000000000000 000000000000000000000000000000000000000     00000000                                                                                                                        000000000000000000
F0010000007778100005000081102758700023658300000000000000000201510210002001C.I. ABRACOL S.A EMA                              C000000000402000000000000000000000100010010000000000000000000000F0010000007778100520151021000101 00000000000000000000000000000000000000000000000000000000000000000000000000000000000000000000000000000000000000000N 00000000000NCONT   00    00000000000          00000000000000000000000000000000000000000000 000000000000000A000000000000000000000000000000000000000000000 000000000000000000000000000000000000000     00000000                                                                                                                        000000000000000000
F0010000007778100006000081102758700013552100000000000000000201510210002001C.I. ABRACOL S.A EMA                              D000000000402000000000000000000000100010010000000000000000000000F0010000007778100620151021000101 00000000000000000000000000000000000000000000000000000000000000000000000000000000000000000000000000000000000000000N 00000000000NCONT   00    00000000000          00000000000000000000000000000000000000000000 000000000000000A000000000000000000000000000000000000000000000 000000000000000000000000000000000000000     00000000                                                                                                                        000000000000000000
F0010000007778200001000002245670100013050500000000000000000201510210002001YOLANDA  TOBON                                    D000000055083500000000000000000000100010010000000000000000000000F0010000007778200120151021000101 00000000000000000000000000000000000000000000000000000000000000000000000000000000000000000000000000000000000000000N 00000000000NCONT   00    00000000000          00000000000000000000000000000000000000000000 000000000000000A000000000000000000000000000000000000000000000 000000000000000000000000000000000000000     00000000                                                                                                                        000000000000000000
F0010000007778200002000002245670100041450500000000000000000201510210002001YOLANDA  TOBON                                    C000000043140000000000000000000000100010010000000000000000000000F0010000007778200220151021000101 00000000000000000000000000000000000000000000000000000000000000000000000000000000000000000000000000000000000000000N 00000000000NCONT   00    00000000000          00000000000000000000000000000000000000000000 000000000000000A000000000000000000000000000000000000000000000 000000000000000000000000000000000000000     00000000                                                                                                                        000000000000000000
F0010000007778200003000002245670100042505000000000000000000201510210002001YOLANDA  TOBON                                    C000000011943500000000000000000000100010010000000000000000000000F0010000007778200320151021000101 00000000000000000000000000000000000000000000000000000000000000000000000000000000000000000000000000000000000000000N 00000000000NCONT   00    00000000000          00000000000000000000000000000000000000000000 000000000000000A000000000000000000000000000000000000000000000 000000000000000000000000000000000000000     00000000                                                                                                                        000000000000000000
F0010000007778200004000002245670100023658300000000000000000201510210002001YOLANDA  TOBON                                    C000000000345100000000000000000000100010010000000000000000000000F0010000007778200420151021000101 00000000000000000000000000000000000000000000000000000000000000000000000000000000000000000000000000000000000000000N 00000000000NCONT   00    00000000000          00000000000000000000000000000000000000000000 000000000000000A000000000000000000000000000000000000000000000 000000000000000000000000000000000000000     00000000                                                                                                                        000000000000000000
F0010000007778200005000002245670100013552100000000000000000201510210002001YOLANDA  TOBON                                    D000000000345100000000000000000000100010010000000000000000000000F0010000007778200520151021000101 00000000000000000000000000000000000000000000000000000000000000000000000000000000000000000000000000000000000000000N 00000000000NCONT   00    00000000000          00000000000000000000000000000000000000000000 000000000000000A000000000000000000000000000000000000000000000 000000000000000000000000000000000000000     00000000                                                                                                                        000000000000000000
F0010000007778300001000080016665600013050500000000000000000201510210002001SUMICAL DE ANTIOQUIA S.A.S                        D000000025909400000000000000000000100010010000000000000000000000F0010000007778300120151021000101 00000000000000000000000000000000000000000000000000000000000000000000000000000000000000000000000000000000000000000N 00000000000NCONT   00    00000000000          00000000000000000000000000000000000000000000 000000000000000A000000000000000000000000000000000000000000000 000000000000000000000000000000000000000     00000000                                                                                                                        000000000000000000
F0010000007778300002000080016665600041450500000000000000000201510210002001SUMICAL DE ANTIOQUIA S.A.S                        C000000021450000000000000000000000100010010000000000000000000000F0010000007778300220151021000101 00000000000000000000000000000000000000000000000000000000000000000000000000000000000000000000000000000000000000000N 00000000000NCONT   00    00000000000          00000000000000000000000000000000000000000000 000000000000000A000000000000000000000000000000000000000000000 000000000000000000000000000000000000000     00000000                                                                                                                        000000000000000000
F0010000007778300003000080016665600042505000000000000000000201510210002001SUMICAL DE ANTIOQUIA S.A.S                        C000000004459400000000000000000000100010010000000000000000000000F0010000007778300320151021000101 00000000000000000000000000000000000000000000000000000000000000000000000000000000000000000000000000000000000000000N 00000000000NCONT   00    00000000000          00000000000000000000000000000000000000000000 000000000000000A000000000000000000000000000000000000000000000 000000000000000000000000000000000000000     00000000                                                                                                                        000000000000000000
F0010000007778300004000080016665600023658300000000000000000201510210002001SUMICAL DE ANTIOQUIA S.A.S                        C000000000171600000000000000000000100010010000000000000000000000F0010000007778300420151021000101 00000000000000000000000000000000000000000000000000000000000000000000000000000000000000000000000000000000000000000N 00000000000NCONT   00    00000000000          00000000000000000000000000000000000000000000 000000000000000A000000000000000000000000000000000000000000000 000000000000000000000000000000000000000     00000000                                                                                                                        000000000000000000
F0010000007778300005000080016665600013552100000000000000000201510210002001SUMICAL DE ANTIOQUIA S.A.S                        D000000000171600000000000000000000100010010000000000000000000000F0010000007778300520151021000101 00000000000000000000000000000000000000000000000000000000000000000000000000000000000000000000000000000000000000000N 00000000000NCONT   00    00000000000          00000000000000000000000000000000000000000000 000000000000000A000000000000000000000000000000000000000000000 000000000000000000000000000000000000000     00000000                                                                                                                        000000000000000000
F0010000007778400001000000748239700013050500000000000000000201510210002001RAFAEL NAVARRO URIBE                              D000000077521400000000000000000000100010010000000000000000000000F0010000007778400120151021000101 00000000000000000000000000000000000000000000000000000000000000000000000000000000000000000000000000000000000000000N 00000000000NCONT   00    00000000000          00000000000000000000000000000000000000000000 000000000000000A000000000000000000000000000000000000000000000 000000000000000000000000000000000000000     00000000                                                                                                                        000000000000000000
F0010000007778400002000000748239700041450500000000000000000201510210002001RAFAEL NAVARRO URIBE                              C000000055610000000000000000000000100010010000000000000000000000F0010000007778400220151021000101 00000000000000000000000000000000000000000000000000000000000000000000000000000000000000000000000000000000000000000N 00000000000NCONT   00    00000000000          00000000000000000000000000000000000000000000 000000000000000A000000000000000000000000000000000000000000000 000000000000000000000000000000000000000     00000000                                                                                                                        000000000000000000
F0010000007778400003000000748239700042505000000000000000000201510210002001RAFAEL NAVARRO URIBE                              C000000021911400000000000000000000100010010000000000000000000000F0010000007778400320151021000101 00000000000000000000000000000000000000000000000000000000000000000000000000000000000000000000000000000000000000000N 00000000000NCONT   00    00000000000          00000000000000000000000000000000000000000000 000000000000000A000000000000000000000000000000000000000000000 000000000000000000000000000000000000000     00000000                                                                                                                        000000000000000000
F0010000007778400004000000748239700023658300000000000000000201510210002001RAFAEL NAVARRO URIBE                              C000000000444900000000000000000000100010010000000000000000000000F0010000007778400420151021000101 00000000000000000000000000000000000000000000000000000000000000000000000000000000000000000000000000000000000000000N 00000000000NCONT   00    00000000000          00000000000000000000000000000000000000000000 000000000000000A000000000000000000000000000000000000000000000 000000000000000000000000000000000000000     00000000                                                                                                                        000000000000000000
F0010000007778400005000000748239700013552100000000000000000201510210002001RAFAEL NAVARRO URIBE                              D000000000444900000000000000000000100010010000000000000000000000F0010000007778400520151021000101 00000000000000000000000000000000000000000000000000000000000000000000000000000000000000000000000000000000000000000N 00000000000NCONT   00    00000000000          00000000000000000000000000000000000000000000 000000000000000A000000000000000000000000000000000000000000000 000000000000000000000000000000000000000     00000000                                                                                                                        000000000000000000
F0010000007778500001000089010260300013050500000000000000000201510210002001FEDERICO OSORIO A. S.A.                           D000000132865200000000000000000000100010010000000000000000000000F0010000007778500120151021000101 00000000000000000000000000000000000000000000000000000000000000000000000000000000000000000000000000000000000000000N 00000000000NCONT   00    00000000000          00000000000000000000000000000000000000000000 000000000000000A000000000000000000000000000000000000000000000 000000000000000000000000000000000000000     00000000                                                                                                                        000000000000000000
F0010000007778500002000089010260300041450500000000000000000201510210002001FEDERICO OSORIO A. S.A.                           C000000124120000000000000000000000100010010000000000000000000000F0010000007778500220151021000101 00000000000000000000000000000000000000000000000000000000000000000000000000000000000000000000000000000000000000000N 00000000000NCONT   00    00000000000          00000000000000000000000000000000000000000000 000000000000000A000000000000000000000000000000000000000000000 000000000000000000000000000000000000000     00000000                                                                                                                        000000000000000000
F0010000007778500003000089010260300042505000000000000000000201510210002001FEDERICO OSORIO A. S.A.                           C000000008745200000000000000000000100010010000000000000000000000F0010000007778500320151021000101 00000000000000000000000000000000000000000000000000000000000000000000000000000000000000000000000000000000000000000N 00000000000NCONT   00    00000000000          00000000000000000000000000000000000000000000 000000000000000A000000000000000000000000000000000000000000000 000000000000000000000000000000000000000     00000000                                                                                                                        000000000000000000
F0010000007778500004000089010260300023658300000000000000000201510210002001FEDERICO OSORIO A. S.A.                           C000000000993000000000000000000000100010010000000000000000000000F0010000007778500420151021000101 00000000000000000000000000000000000000000000000000000000000000000000000000000000000000000000000000000000000000000N 00000000000NCONT   00    00000000000          00000000000000000000000000000000000000000000 000000000000000A000000000000000000000000000000000000000000000 000000000000000000000000000000000000000     00000000                                                                                                                        000000000000000000
F0010000007778500005000089010260300013552100000000000000000201510210002001FEDERICO OSORIO A. S.A.                           D000000000993000000000000000000000100010010000000000000000000000F0010000007778500520151021000101 00000000000000000000000000000000000000000000000000000000000000000000000000000000000000000000000000000000000000000N 00000000000NCONT   00    00000000000          00000000000000000000000000000000000000000000 000000000000000A000000000000000000000000000000000000000000000 000000000000000000000000000000000000000     00000000                                                                                                                        000000000000000000
F0010000007778600001000089010260300013050500000000000000000201510210002001FEDERICO OSORIO A. S.A.                           D000000003106700000000000000000000100010010000000000000000000000F0010000007778600120151021000101 00000000000000000000000000000000000000000000000000000000000000000000000000000000000000000000000000000000000000000N 00000000000NCONT   00    00000000000          00000000000000000000000000000000000000000000 000000000000000A000000000000000000000000000000000000000000000 000000000000000000000000000000000000000     00000000                                                                                                                        000000000000000000
F0010000007778600002000089010260300041450500000000000000000201510210002001FEDERICO OSORIO A. S.A.                           C000000002800000000000000000000000100010010000000000000000000000F0010000007778600220151021000101 00000000000000000000000000000000000000000000000000000000000000000000000000000000000000000000000000000000000000000N 00000000000NCONT   00    00000000000          00000000000000000000000000000000000000000000 000000000000000A000000000000000000000000000000000000000000000 000000000000000000000000000000000000000     00000000                                                                                                                        000000000000000000
F0010000007778600003000089010260300042505000000000000000000201510210002001FEDERICO OSORIO A. S.A.                           C000000000306700000000000000000000100010010000000000000000000000F0010000007778600320151021000101 00000000000000000000000000000000000000000000000000000000000000000000000000000000000000000000000000000000000000000N 00000000000NCONT   00    00000000000          00000000000000000000000000000000000000000000 000000000000000A000000000000000000000000000000000000000000000 000000000000000000000000000000000000000     00000000                                                                                                                        000000000000000000
F0010000007778600004000089010260300023658300000000000000000201510210002001FEDERICO OSORIO A. S.A.                           C000000000022400000000000000000000100010010000000000000000000000F0010000007778600420151021000101 00000000000000000000000000000000000000000000000000000000000000000000000000000000000000000000000000000000000000000N 00000000000NCONT   00    00000000000          00000000000000000000000000000000000000000000 000000000000000A000000000000000000000000000000000000000000000 000000000000000000000000000000000000000     00000000                                                                                                                        000000000000000000
F0010000007778600005000089010260300013552100000000000000000201510210002001FEDERICO OSORIO A. S.A.                           D000000000022400000000000000000000100010010000000000000000000000F0010000007778600520151021000101 00000000000000000000000000000000000000000000000000000000000000000000000000000000000000000000000000000000000000000N 00000000000NCONT   00    00000000000          00000000000000000000000000000000000000000000 000000000000000A000000000000000000000000000000000000000000000 000000000000000000000000000000000000000     00000000                                                                                                                        000000000000000000
F0010000007778700001000080202094000013050500000000000000000201510210002001DISTRIB. OMAR ORREGO S.A.                         D000000050904000000000000000000000100010010000000000000000000000F0010000007778700120151021000101 00000000000000000000000000000000000000000000000000000000000000000000000000000000000000000000000000000000000000000N 00000000000NCONT   00    00000000000          00000000000000000000000000000000000000000000 000000000000000A000000000000000000000000000000000000000000000 000000000000000000000000000000000000000     00000000                                                                                                                        000000000000000000
F0010000007778700002000080202094000041450500000000000000000201510210002001DISTRIB. OMAR ORREGO S.A.                         C000000032470000000000000000000000100010010000000000000000000000F0010000007778700220151021000101 00000000000000000000000000000000000000000000000000000000000000000000000000000000000000000000000000000000000000000N 00000000000NCONT   00    00000000000          00000000000000000000000000000000000000000000 000000000000000A000000000000000000000000000000000000000000000 000000000000000000000000000000000000000     00000000                                                                                                                        000000000000000000
F0010000007778700003000080202094000042505000000000000000000201510210002001DISTRIB. OMAR ORREGO S.A.                         C000000018434000000000000000000000100010010000000000000000000000F0010000007778700320151021000101 00000000000000000000000000000000000000000000000000000000000000000000000000000000000000000000000000000000000000000N 00000000000NCONT   00    00000000000          00000000000000000000000000000000000000000000 000000000000000A000000000000000000000000000000000000000000000 000000000000000000000000000000000000000     00000000                                                                                                                        000000000000000000
F0010000007778700004000080202094000023658300000000000000000201510210002001DISTRIB. OMAR ORREGO S.A.                         C000000000259800000000000000000000100010010000000000000000000000F0010000007778700420151021000101 00000000000000000000000000000000000000000000000000000000000000000000000000000000000000000000000000000000000000000N 00000000000NCONT   00    00000000000          00000000000000000000000000000000000000000000 000000000000000A000000000000000000000000000000000000000000000 000000000000000000000000000000000000000     00000000                                                                                                                        000000000000000000
F0010000007778700005000080202094000013552100000000000000000201510210002001DISTRIB. OMAR ORREGO S.A.                         D000000000259800000000000000000000100010010000000000000000000000F0010000007778700520151021000101 00000000000000000000000000000000000000000000000000000000000000000000000000000000000000000000000000000000000000000N 00000000000NCONT   00    00000000000          00000000000000000000000000000000000000000000 000000000000000A000000000000000000000000000000000000000000000 000000000000000000000000000000000000000     00000000                                                                                                                        000000000000000000
F0010000007778800001000080202094000013050500000000000000000201510210002001DISTRIB. OMAR ORREGO S.A.                         D000000045598900000000000000000000100010010000000000000000000000F0010000007778800120151021000101 00000000000000000000000000000000000000000000000000000000000000000000000000000000000000000000000000000000000000000N 00000000000NCONT   00    00000000000          00000000000000000000000000000000000000000000 000000000000000A000000000000000000000000000000000000000000000 000000000000000000000000000000000000000     00000000                                                                                                                        000000000000000000
F0010000007778800002000080202094000041450500000000000000000201510210002001DISTRIB. OMAR ORREGO S.A.                         C000000025370000000000000000000000100010010000000000000000000000F0010000007778800220151021000101 00000000000000000000000000000000000000000000000000000000000000000000000000000000000000000000000000000000000000000N 00000000000NCONT   00    00000000000          00000000000000000000000000000000000000000000 000000000000000A000000000000000000000000000000000000000000000 000000000000000000000000000000000000000     00000000                                                                                                                        000000000000000000
F0010000007778800003000080202094000042505000000000000000000201510210002001DISTRIB. OMAR ORREGO S.A.                         C000000020228900000000000000000000100010010000000000000000000000F0010000007778800320151021000101 00000000000000000000000000000000000000000000000000000000000000000000000000000000000000000000000000000000000000000N 00000000000NCONT   00    00000000000          00000000000000000000000000000000000000000000 000000000000000A000000000000000000000000000000000000000000000 000000000000000000000000000000000000000     00000000                                                                                                                        000000000000000000
F0010000007778800004000080202094000023658300000000000000000201510210002001DISTRIB. OMAR ORREGO S.A.                         C000000000203000000000000000000000100010010000000000000000000000F0010000007778800420151021000101 00000000000000000000000000000000000000000000000000000000000000000000000000000000000000000000000000000000000000000N 00000000000NCONT   00    00000000000          00000000000000000000000000000000000000000000 000000000000000A000000000000000000000000000000000000000000000 000000000000000000000000000000000000000     00000000                                                                                                                        000000000000000000
F0010000007778800005000080202094000013552100000000000000000201510210002001DISTRIB. OMAR ORREGO S.A.                         D000000000203000000000000000000000100010010000000000000000000000F0010000007778800520151021000101 00000000000000000000000000000000000000000000000000000000000000000000000000000000000000000000000000000000000000000N 00000000000NCONT   00    00000000000          00000000000000000000000000000000000000000000 000000000000000A000000000000000000000000000000000000000000000 000000000000000000000000000000000000000     00000000                                                                                                                        000000000000000000
F0010000007778900001000090049854300013050500000000000000000201510210002001TRAPOS INDUSTRIALES DE COLOMBIA SAS               D000000016800000000000000000000000100010010000000000000000000000F0010000007778900120151021000101 00000000000000000000000000000000000000000000000000000000000000000000000000000000000000000000000000000000000000000N 00000000000NCONT   00    00000000000          00000000000000000000000000000000000000000000 000000000000000A000000000000000000000000000000000000000000000 000000000000000000000000000000000000000     00000000                                                                                                                        000000000000000000
F0010000007778900002000090049854300041450500000000000000000201510210002001TRAPOS INDUSTRIALES DE COLOMBIA SAS               C000000015000000000000000000000000100010010000000000000000000000F0010000007778900220151021000101 00000000000000000000000000000000000000000000000000000000000000000000000000000000000000000000000000000000000000000N 00000000000NCONT   00    00000000000          00000000000000000000000000000000000000000000 000000000000000A000000000000000000000000000000000000000000000 000000000000000000000000000000000000000     00000000                                                                                                                        000000000000000000
F0010000007778900003000090049854300042505000000000000000000201510210002001TRAPOS INDUSTRIALES DE COLOMBIA SAS               C000000001800000000000000000000000100010010000000000000000000000F0010000007778900320151021000101 00000000000000000000000000000000000000000000000000000000000000000000000000000000000000000000000000000000000000000N 00000000000NCONT   00    00000000000          00000000000000000000000000000000000000000000 000000000000000A000000000000000000000000000000000000000000000 000000000000000000000000000000000000000     00000000                                                                                                                        000000000000000000
F0010000007778900004000090049854300023658300000000000000000201510210002001TRAPOS INDUSTRIALES DE COLOMBIA SAS               C000000000120000000000000000000000100010010000000000000000000000F0010000007778900420151021000101 00000000000000000000000000000000000000000000000000000000000000000000000000000000000000000000000000000000000000000N 00000000000NCONT   00    00000000000          00000000000000000000000000000000000000000000 000000000000000A000000000000000000000000000000000000000000000 000000000000000000000000000000000000000     00000000                                                                                                                        000000000000000000
F0010000007778900005000090049854300013552100000000000000000201510210002001TRAPOS INDUSTRIALES DE COLOMBIA SAS               D000000000120000000000000000000000100010010000000000000000000000F0010000007778900520151021000101 00000000000000000000000000000000000000000000000000000000000000000000000000000000000000000000000000000000000000000N 00000000000NCONT   00    00000000000          00000000000000000000000000000000000000000000 000000000000000A000000000000000000000000000000000000000000000 000000000000000000000000000000000000000     00000000                                                                                                                        000000000000000000
F0010000007779000001000083008772100011050500000000000000000201510210002001ILUMEC SAS                                        D000000006000000000000000000000000100010010000000000000000000000F0010000007779000120151021000101 00000000000000000000000000000000000000000000000000000000000000000000000000000000000000000000000000000000000000000N 00000000000NCONT   00    00000000000          00000000000000000000000000000000000000000000 000000000000000A000000000000000000000000000000000000000000000 000000000000000000000000000000000000000     00000000                                                                                                                        000000000000000000
F0010000007779000002000083008772100041450500000000000000000201510210002001ILUMEC SAS                                        C000000004500000000000000000000000100010010000000000000000000000F0010000007779000220151021000101 00000000000000000000000000000000000000000000000000000000000000000000000000000000000000000000000000000000000000000N 00000000000NCONT   00    00000000000          00000000000000000000000000000000000000000000 000000000000000A000000000000000000000000000000000000000000000 000000000000000000000000000000000000000     00000000                                                                                                                        000000000000000000
F0010000007779000003000083008772100042505000000000000000000201510210002001ILUMEC SAS                                        C000000001500000000000000000000000100010010000000000000000000000F0010000007779000320151021000101 00000000000000000000000000000000000000000000000000000000000000000000000000000000000000000000000000000000000000000N 00000000000NCONT   00    00000000000          00000000000000000000000000000000000000000000 000000000000000A000000000000000000000000000000000000000000000 000000000000000000000000000000000000000     00000000                                                                                                                        000000000000000000
F0010000007779000004000083008772100023658300000000000000000201510210002001ILUMEC SAS                                        C000000000036000000000000000000000100010010000000000000000000000F0010000007779000420151021000101 00000000000000000000000000000000000000000000000000000000000000000000000000000000000000000000000000000000000000000N 00000000000NCONT   00    00000000000          00000000000000000000000000000000000000000000 000000000000000A000000000000000000000000000000000000000000000 000000000000000000000000000000000000000     00000000                                                                                                                        000000000000000000
F0010000007779000005000083008772100013552100000000000000000201510210002001ILUMEC SAS                                        D000000000036000000000000000000000100010010000000000000000000000F0010000007779000520151021000101 00000000000000000000000000000000000000000000000000000000000000000000000000000000000000000000000000000000000000000N 00000000000NCONT   00    00000000000          00000000000000000000000000000000000000000000 000000000000000A000000000000000000000000000000000000000000000 000000000000000000000000000000000000000     00000000                                                                                                                        000000000000000000
F0010000007779100001000080201112800013050500000000000000000201510210002001CANGURO INTERNATIONAL S.A.                        D000000208979500000000000000000000100010010000000000000000000000F0010000007779100120151021000101 00000000000000000000000000000000000000000000000000000000000000000000000000000000000000000000000000000000000000000N 00000000000NCONT   00    00000000000          00000000000000000000000000000000000000000000 000000000000000A000000000000000000000000000000000000000000000 000000000000000000000000000000000000000     00000000                                                                                                                        000000000000000000
F0010000007779100002000080201112800041450500000000000000000201510210002001CANGURO INTERNATIONAL S.A.                        C000000208979500000000000000000000100010010000000000000000000000F0010000007779100220151021000101 00000000000000000000000000000000000000000000000000000000000000000000000000000000000000000000000000000000000000000N 00000000000NCONT   00    00000000000          00000000000000000000000000000000000000000000 000000000000000A000000000000000000000000000000000000000000000 000000000000000000000000000000000000000     00000000                                                                                                                        000000000000000000
F0010000007779100003000080201112800042505000000000000000000201510210002001CANGURO INTERNATIONAL S.A.                        C000000000000000000000000000000000100010010000000000000000000000F0010000007779100320151021000101 00000000000000000000000000000000000000000000000000000000000000000000000000000000000000000000000000000000000000000N 00000000000NCONT   00    00000000000          00000000000000000000000000000000000000000000 000000000000000A000000000000000000000000000000000000000000000 000000000000000000000000000000000000000     00000000                                                                                                                        000000000000000000
F0010000007779100004000080201112800023658300000000000000000201510210002001CANGURO INTERNATIONAL S.A.                        C000000001671800000000000000000000100010010000000000000000000000F0010000007779100420151021000101 00000000000000000000000000000000000000000000000000000000000000000000000000000000000000000000000000000000000000000N 00000000000NCONT   00    00000000000          00000000000000000000000000000000000000000000 000000000000000A000000000000000000000000000000000000000000000 000000000000000000000000000000000000000     00000000                                                                                                                        000000000000000000
F0010000007779100005000080201112800013552100000000000000000201510210002001CANGURO INTERNATIONAL S.A.                        D000000001671800000000000000000000100010010000000000000000000000F0010000007779100520151021000101 00000000000000000000000000000000000000000000000000000000000000000000000000000000000000000000000000000000000000000N 00000000000NCONT   00    00000000000          00000000000000000000000000000000000000000000 000000000000000A000000000000000000000000000000000000000000000 000000000000000000000000000000000000000     00000000                                                                                                                        000000000000000000
F0010000007779200001000080201112800013050500000000000000000201510210002001CANGURO INTERNATIONAL S.A.                        D000000292277400000000000000000000100010010000000000000000000000F0010000007779200120151021000101 00000000000000000000000000000000000000000000000000000000000000000000000000000000000000000000000000000000000000000N 00000000000NCONT   00    00000000000          00000000000000000000000000000000000000000000 000000000000000A000000000000000000000000000000000000000000000 000000000000000000000000000000000000000     00000000                                                                                                                        000000000000000000
F0010000007779200002000080201112800041450500000000000000000201510210002001CANGURO INTERNATIONAL S.A.                        C000000276655500000000000000000000100010010000000000000000000000F0010000007779200220151021000101 00000000000000000000000000000000000000000000000000000000000000000000000000000000000000000000000000000000000000000N 00000000000NCONT   00    00000000000          00000000000000000000000000000000000000000000 000000000000000A000000000000000000000000000000000000000000000 000000000000000000000000000000000000000     00000000                                                                                                                        000000000000000000
F0010000007779200003000080201112800042505000000000000000000201510210002001CANGURO INTERNATIONAL S.A.                        C000000015621900000000000000000000100010010000000000000000000000F0010000007779200320151021000101 00000000000000000000000000000000000000000000000000000000000000000000000000000000000000000000000000000000000000000N 00000000000NCONT   00    00000000000          00000000000000000000000000000000000000000000 000000000000000A000000000000000000000000000000000000000000000 000000000000000000000000000000000000000     00000000                                                                                                                        000000000000000000
F0010000007779200004000080201112800023658300000000000000000201510210002001CANGURO INTERNATIONAL S.A.                        C000000002213200000000000000000000100010010000000000000000000000F0010000007779200420151021000101 00000000000000000000000000000000000000000000000000000000000000000000000000000000000000000000000000000000000000000N 00000000000NCONT   00    00000000000          00000000000000000000000000000000000000000000 000000000000000A000000000000000000000000000000000000000000000 000000000000000000000000000000000000000     00000000                                                                                                                        000000000000000000
F0010000007779200005000080201112800013552100000000000000000201510210002001CANGURO INTERNATIONAL S.A.                        D000000002213200000000000000000000100010010000000000000000000000F0010000007779200520151021000101 00000000000000000000000000000000000000000000000000000000000000000000000000000000000000000000000000000000000000000N 00000000000NCONT   00    00000000000          00000000000000000000000000000000000000000000 000000000000000A000000000000000000000000000000000000000000000 000000000000000000000000000000000000000     00000000                                                                                                                        000000000000000000
F0010000007779300001000080201112800013050500000000000000000201510210002001CANGURO INTERNATIONAL S.A.                        D000000006882400000000000000000000100010010000000000000000000000F0010000007779300120151021000101 00000000000000000000000000000000000000000000000000000000000000000000000000000000000000000000000000000000000000000N 00000000000NCONT   00    00000000000          00000000000000000000000000000000000000000000 000000000000000A000000000000000000000000000000000000000000000 000000000000000000000000000000000000000     00000000                                                                                                                        000000000000000000
F0010000007779300002000080201112800041450500000000000000000201510210002001CANGURO INTERNATIONAL S.A.                        C000000006882400000000000000000000100010010000000000000000000000F0010000007779300220151021000101 00000000000000000000000000000000000000000000000000000000000000000000000000000000000000000000000000000000000000000N 00000000000NCONT   00    00000000000          00000000000000000000000000000000000000000000 000000000000000A000000000000000000000000000000000000000000000 000000000000000000000000000000000000000     00000000                                                                                                                        000000000000000000
F0010000007779300003000080201112800042505000000000000000000201510210002001CANGURO INTERNATIONAL S.A.                        C000000000000000000000000000000000100010010000000000000000000000F0010000007779300320151021000101 00000000000000000000000000000000000000000000000000000000000000000000000000000000000000000000000000000000000000000N 00000000000NCONT   00    00000000000          00000000000000000000000000000000000000000000 000000000000000A000000000000000000000000000000000000000000000 000000000000000000000000000000000000000     00000000                                                                                                                        000000000000000000
F0010000007779300004000080201112800023658300000000000000000201510210002001CANGURO INTERNATIONAL S.A.                        C000000000055100000000000000000000100010010000000000000000000000F0010000007779300420151021000101 00000000000000000000000000000000000000000000000000000000000000000000000000000000000000000000000000000000000000000N 00000000000NCONT   00    00000000000          00000000000000000000000000000000000000000000 000000000000000A000000000000000000000000000000000000000000000 000000000000000000000000000000000000000     00000000                                                                                                                        000000000000000000
F0010000007779300005000080201112800013552100000000000000000201510210002001CANGURO INTERNATIONAL S.A.                        D000000000055100000000000000000000100010010000000000000000000000F0010000007779300520151021000101 00000000000000000000000000000000000000000000000000000000000000000000000000000000000000000000000000000000000000000N 00000000000NCONT   00    00000000000          00000000000000000000000000000000000000000000 000000000000000A000000000000000000000000000000000000000000000 000000000000000000000000000000000000000     00000000                                                                                                                        000000000000000000
F0010000007779400001000080200863700013050500000000000000000201510210002001COPIN S.A.S                                       D000000240175200000000000000000000100010010000000000000000000000F0010000007779400120151021000101 00000000000000000000000000000000000000000000000000000000000000000000000000000000000000000000000000000000000000000N 00000000000NCONT   00    00000000000          00000000000000000000000000000000000000000000 000000000000000A000000000000000000000000000000000000000000000 000000000000000000000000000000000000000     00000000                                                                                                                        000000000000000000
F0010000007779400002000080200863700041450500000000000000000201510210002001COPIN S.A.S                                       C000000228380000000000000000000000100010010000000000000000000000F0010000007779400220151021000101 00000000000000000000000000000000000000000000000000000000000000000000000000000000000000000000000000000000000000000N 00000000000NCONT   00    00000000000          00000000000000000000000000000000000000000000 000000000000000A000000000000000000000000000000000000000000000 000000000000000000000000000000000000000     00000000                                                                                                                        000000000000000000
F0010000007779400003000080200863700042505000000000000000000201510210002001COPIN S.A.S                                       C000000011795200000000000000000000100010010000000000000000000000F0010000007779400320151021000101 00000000000000000000000000000000000000000000000000000000000000000000000000000000000000000000000000000000000000000N 00000000000NCONT   00    00000000000          00000000000000000000000000000000000000000000 000000000000000A000000000000000000000000000000000000000000000 000000000000000000000000000000000000000     00000000                                                                                                                        000000000000000000
F0010000007779400004000080200863700023658300000000000000000201510210002001COPIN S.A.S                                       C000000001827000000000000000000000100010010000000000000000000000F0010000007779400420151021000101 00000000000000000000000000000000000000000000000000000000000000000000000000000000000000000000000000000000000000000N 00000000000NCONT   00    00000000000          00000000000000000000000000000000000000000000 000000000000000A000000000000000000000000000000000000000000000 000000000000000000000000000000000000000     00000000                                                                                                                        000000000000000000
F0010000007779400005000080200863700013552100000000000000000201510210002001COPIN S.A.S                                       D000000001827000000000000000000000100010010000000000000000000000F0010000007779400520151021000101 00000000000000000000000000000000000000000000000000000000000000000000000000000000000000000000000000000000000000000N 00000000000NCONT   00    00000000000          00000000000000000000000000000000000000000000 000000000000000A000000000000000000000000000000000000000000000 000000000000000000000000000000000000000     00000000                                                                                                                        000000000000000000
F0010000007779500001000081102758700013050500000000000000000201510210002001C.I. ABRACOL S.A EMA                              D000000096019000000000000000000000100010010000000000000000000000F0010000007779500120151021000101 00000000000000000000000000000000000000000000000000000000000000000000000000000000000000000000000000000000000000000N 00000000000NCONT   00    00000000000          00000000000000000000000000000000000000000000 000000000000000A000000000000000000000000000000000000000000000 000000000000000000000000000000000000000     00000000                                                                                                                        000000000000000000
F0010000007779500002000081102758700041450500000000000000000201510210002001C.I. ABRACOL S.A EMA                              C000000068437400000000000000000000100010010000000000000000000000F0010000007779500220151021000101 00000000000000000000000000000000000000000000000000000000000000000000000000000000000000000000000000000000000000000N 00000000000NCONT   00    00000000000          00000000000000000000000000000000000000000000 000000000000000A000000000000000000000000000000000000000000000 000000000000000000000000000000000000000     00000000                                                                                                                        000000000000000000
F0010000007779500003000081102758700041750100000000000000000201510210002001C.I. ABRACOL S.A EMA                              D000000002053100000000000000000000100010010000000000000000000000F0010000007779500320151021000101 00000000000000000000000000000000000000000000000000000000000000000000000000000000000000000000000000000000000000000N 00000000000NCONT   00    00000000000          00000000000000000000000000000000000000000000 000000000000000A000000000000000000000000000000000000000000000 000000000000000000000000000000000000000     00000000                                                                                                                        000000000000000000
F0010000007779500004000081102758700042505000000000000000000201510210002001C.I. ABRACOL S.A EMA                              C000000029634700000000000000000000100010010000000000000000000000F0010000007779500420151021000101 00000000000000000000000000000000000000000000000000000000000000000000000000000000000000000000000000000000000000000N 00000000000NCONT   00    00000000000          00000000000000000000000000000000000000000000 000000000000000A000000000000000000000000000000000000000000000 000000000000000000000000000000000000000     00000000                                                                                                                        000000000000000000
F0010000007779500005000081102758700023658300000000000000000201510210002001C.I. ABRACOL S.A EMA                              C000000000547500000000000000000000100010010000000000000000000000F0010000007779500520151021000101 00000000000000000000000000000000000000000000000000000000000000000000000000000000000000000000000000000000000000000N 00000000000NCONT   00    00000000000          00000000000000000000000000000000000000000000 000000000000000A000000000000000000000000000000000000000000000 000000000000000000000000000000000000000     00000000                                                                                                                        000000000000000000
F0010000007779500006000081102758700013552100000000000000000201510210002001C.I. ABRACOL S.A EMA                              D000000000547500000000000000000000100010010000000000000000000000F0010000007779500620151021000101 00000000000000000000000000000000000000000000000000000000000000000000000000000000000000000000000000000000000000000N 00000000000NCONT   00    00000000000          00000000000000000000000000000000000000000000 000000000000000A000000000000000000000000000000000000000000000 000000000000000000000000000000000000000     00000000                                                                                                                        000000000000000000
F0010000007779600001000083008772100011050500000000000000000201510210002001ILUMEC SAS                                        D000000005600000000000000000000000100010010000000000000000000000F0010000007779600120151021000101 00000000000000000000000000000000000000000000000000000000000000000000000000000000000000000000000000000000000000000N 00000000000NCONT   00    00000000000          00000000000000000000000000000000000000000000 000000000000000A000000000000000000000000000000000000000000000 000000000000000000000000000000000000000     00000000                                                                                                                        000000000000000000
F0010000007779600002000083008772100041450500000000000000000201510210002001ILUMEC SAS                                        C000000004000000000000000000000000100010010000000000000000000000F0010000007779600220151021000101 00000000000000000000000000000000000000000000000000000000000000000000000000000000000000000000000000000000000000000N 00000000000NCONT   00    00000000000          00000000000000000000000000000000000000000000 000000000000000A000000000000000000000000000000000000000000000 000000000000000000000000000000000000000     00000000                                                                                                                        000000000000000000
F0010000007779600003000083008772100042505000000000000000000201510210002001ILUMEC SAS                                        C000000001600000000000000000000000100010010000000000000000000000F0010000007779600320151021000101 00000000000000000000000000000000000000000000000000000000000000000000000000000000000000000000000000000000000000000N 00000000000NCONT   00    00000000000          00000000000000000000000000000000000000000000 000000000000000A000000000000000000000000000000000000000000000 000000000000000000000000000000000000000     00000000                                                                                                                        000000000000000000
F0010000007779600004000083008772100023658300000000000000000201510210002001ILUMEC SAS                                        C000000000032000000000000000000000100010010000000000000000000000F0010000007779600420151021000101 00000000000000000000000000000000000000000000000000000000000000000000000000000000000000000000000000000000000000000N 00000000000NCONT   00    00000000000          00000000000000000000000000000000000000000000 000000000000000A000000000000000000000000000000000000000000000 000000000000000000000000000000000000000     00000000                                                                                                                        000000000000000000
F0010000007779600005000083008772100013552100000000000000000201510210002001ILUMEC SAS                                        D000000000032000000000000000000000100010010000000000000000000000F0010000007779600520151021000101 00000000000000000000000000000000000000000000000000000000000000000000000000000000000000000000000000000000000000000N 00000000000NCONT   00    00000000000          00000000000000000000000000000000000000000000 000000000000000A000000000000000000000000000000000000000000000 000000000000000000000000000000000000000     00000000                                                                                                                        000000000000000000
F0010000007779700001000000869402400011050500000000000000000201510210002001ISRAEL MANGA                                      D000000004200000000000000000000000100010010000000000000000000000F0010000007779700120151021000101 00000000000000000000000000000000000000000000000000000000000000000000000000000000000000000000000000000000000000000N 00000000000NCONT   00    00000000000          00000000000000000000000000000000000000000000 000000000000000A000000000000000000000000000000000000000000000 000000000000000000000000000000000000000     00000000                                                                                                                        000000000000000000
F0010000007779700002000000869402400041450500000000000000000201510210002001ISRAEL MANGA                                      C000000003600000000000000000000000100010010000000000000000000000F0010000007779700220151021000101 00000000000000000000000000000000000000000000000000000000000000000000000000000000000000000000000000000000000000000N 00000000000NCONT   00    00000000000          00000000000000000000000000000000000000000000 000000000000000A000000000000000000000000000000000000000000000 000000000000000000000000000000000000000     00000000                                                                                                                        000000000000000000
F0010000007779700003000000869402400042505000000000000000000201510210002001ISRAEL MANGA                                      C000000000600000000000000000000000100010010000000000000000000000F0010000007779700320151021000101 00000000000000000000000000000000000000000000000000000000000000000000000000000000000000000000000000000000000000000N 00000000000NCONT   00    00000000000          00000000000000000000000000000000000000000000 000000000000000A000000000000000000000000000000000000000000000 000000000000000000000000000000000000000     00000000                                                                                                                        000000000000000000
F0010000007779700004000000869402400023658300000000000000000201510210002001ISRAEL MANGA                                      C000000000028800000000000000000000100010010000000000000000000000F0010000007779700420151021000101 00000000000000000000000000000000000000000000000000000000000000000000000000000000000000000000000000000000000000000N 00000000000NCONT   00    00000000000          00000000000000000000000000000000000000000000 000000000000000A000000000000000000000000000000000000000000000 000000000000000000000000000000000000000     00000000                                                                                                                        000000000000000000
F0010000007779700005000000869402400013552100000000000000000201510210002001ISRAEL MANGA                                      D000000000028800000000000000000000100010010000000000000000000000F0010000007779700520151021000101 00000000000000000000000000000000000000000000000000000000000000000000000000000000000000000000000000000000000000000N 00000000000NCONT   00    00000000000          00000000000000000000000000000000000000000000 000000000000000A000000000000000000000000000000000000000000000 000000000000000000000000000000000000000     00000000                                                                                                                        000000000000000000
F0010000007779800001000000869402400011050500000000000000000201510210002001ISRAEL MANGA                                      D000000003000000000000000000000000100010010000000000000000000000F0010000007779800120151021000101 00000000000000000000000000000000000000000000000000000000000000000000000000000000000000000000000000000000000000000N 00000000000NCONT   00    00000000000          00000000000000000000000000000000000000000000 000000000000000A000000000000000000000000000000000000000000000 000000000000000000000000000000000000000     00000000                                                                                                                        000000000000000000
F0010000007779800002000000869402400041450500000000000000000201510210002001ISRAEL MANGA                                      C000000002400000000000000000000000100010010000000000000000000000F0010000007779800220151021000101 00000000000000000000000000000000000000000000000000000000000000000000000000000000000000000000000000000000000000000N 00000000000NCONT   00    00000000000          00000000000000000000000000000000000000000000 000000000000000A000000000000000000000000000000000000000000000 000000000000000000000000000000000000000     00000000                                                                                                                        000000000000000000
F0010000007779800003000000869402400042505000000000000000000201510210002001ISRAEL MANGA                                      C000000000600000000000000000000000100010010000000000000000000000F0010000007779800320151021000101 00000000000000000000000000000000000000000000000000000000000000000000000000000000000000000000000000000000000000000N 00000000000NCONT   00    00000000000          00000000000000000000000000000000000000000000 000000000000000A000000000000000000000000000000000000000000000 000000000000000000000000000000000000000     00000000                                                                                                                        000000000000000000
F0010000007779800004000000869402400023658300000000000000000201510210002001ISRAEL MANGA                                      C000000000019200000000000000000000100010010000000000000000000000F0010000007779800420151021000101 00000000000000000000000000000000000000000000000000000000000000000000000000000000000000000000000000000000000000000N 00000000000NCONT   00    00000000000          00000000000000000000000000000000000000000000 000000000000000A000000000000000000000000000000000000000000000 000000000000000000000000000000000000000     00000000                                                                                                                        000000000000000000
F0010000007779800005000000869402400013552100000000000000000201510210002001ISRAEL MANGA                                      D000000000019200000000000000000000100010010000000000000000000000F0010000007779800520151021000101 00000000000000000000000000000000000000000000000000000000000000000000000000000000000000000000000000000000000000000N 00000000000NCONT   00    00000000000          00000000000000000000000000000000000000000000 000000000000000A000000000000000000000000000000000000000000000 000000000000000000000000000000000000000     00000000                                                                                                                        000000000000000000
F0010000007779900001000000869402400011050500000000000000000201510210002001ISRAEL MANGA                                      D000000001600000000000000000000000100010010000000000000000000000F0010000007779900120151021000101 00000000000000000000000000000000000000000000000000000000000000000000000000000000000000000000000000000000000000000N 00000000000NCONT   00    00000000000          00000000000000000000000000000000000000000000 000000000000000A000000000000000000000000000000000000000000000 000000000000000000000000000000000000000     00000000                                                                                                                        000000000000000000
F0010000007779900002000000869402400041450500000000000000000201510210002001ISRAEL MANGA                                      C000000001300000000000000000000000100010010000000000000000000000F0010000007779900220151021000101 00000000000000000000000000000000000000000000000000000000000000000000000000000000000000000000000000000000000000000N 00000000000NCONT   00    00000000000          00000000000000000000000000000000000000000000 000000000000000A000000000000000000000000000000000000000000000 000000000000000000000000000000000000000     00000000                                                                                                                        000000000000000000
F0010000007779900003000000869402400042505000000000000000000201510210002001ISRAEL MANGA                                      C000000000300000000000000000000000100010010000000000000000000000F0010000007779900320151021000101 00000000000000000000000000000000000000000000000000000000000000000000000000000000000000000000000000000000000000000N 00000000000NCONT   00    00000000000          00000000000000000000000000000000000000000000 000000000000000A000000000000000000000000000000000000000000000 000000000000000000000000000000000000000     00000000                                                                                                                        000000000000000000
F0010000007779900004000000869402400023658300000000000000000201510210002001ISRAEL MANGA                                      C000000000010400000000000000000000100010010000000000000000000000F0010000007779900420151021000101 00000000000000000000000000000000000000000000000000000000000000000000000000000000000000000000000000000000000000000N 00000000000NCONT   00    00000000000          00000000000000000000000000000000000000000000 000000000000000A000000000000000000000000000000000000000000000 000000000000000000000000000000000000000     00000000                                                                                                                        000000000000000000
F0010000007779900005000000869402400013552100000000000000000201510210002001ISRAEL MANGA                                      D000000000010400000000000000000000100010010000000000000000000000F0010000007779900520151021000101 00000000000000000000000000000000000000000000000000000000000000000000000000000000000000000000000000000000000000000N 00000000000NCONT   00    00000000000          00000000000000000000000000000000000000000000 000000000000000A000000000000000000000000000000000000000000000 000000000000000000000000000000000000000     00000000                                                                                                                        000000000000000000
F0010000007780000001000002252363900011050500000000000000000201510210002001GLADYS DONADO RODRIGUEZ                           D000000001000000000000000000000000100010010000000000000000000000F0010000007780000120151021000101 00000000000000000000000000000000000000000000000000000000000000000000000000000000000000000000000000000000000000000N 00000000000NCONT   00    00000000000          00000000000000000000000000000000000000000000 000000000000000A000000000000000000000000000000000000000000000 000000000000000000000000000000000000000     00000000                                                                                                                        000000000000000000
F0010000007780000002000002252363900041450500000000000000000201510210002001GLADYS DONADO RODRIGUEZ                           C000000000900000000000000000000000100010010000000000000000000000F0010000007780000220151021000101 00000000000000000000000000000000000000000000000000000000000000000000000000000000000000000000000000000000000000000N 00000000000NCONT   00    00000000000          00000000000000000000000000000000000000000000 000000000000000A000000000000000000000000000000000000000000000 000000000000000000000000000000000000000     00000000                                                                                                                        000000000000000000
F0010000007780000003000002252363900042505000000000000000000201510210002001GLADYS DONADO RODRIGUEZ                           C000000000100000000000000000000000100010010000000000000000000000F0010000007780000320151021000101 00000000000000000000000000000000000000000000000000000000000000000000000000000000000000000000000000000000000000000N 00000000000NCONT   00    00000000000          00000000000000000000000000000000000000000000 000000000000000A000000000000000000000000000000000000000000000 000000000000000000000000000000000000000     00000000                                                                                                                        000000000000000000
F0010000007780000004000002252363900023658300000000000000000201510210002001GLADYS DONADO RODRIGUEZ                           C000000000007200000000000000000000100010010000000000000000000000F0010000007780000420151021000101 00000000000000000000000000000000000000000000000000000000000000000000000000000000000000000000000000000000000000000N 00000000000NCONT   00    00000000000          00000000000000000000000000000000000000000000 000000000000000A000000000000000000000000000000000000000000000 000000000000000000000000000000000000000     00000000                                                                                                                        000000000000000000
F0010000007780000005000002252363900013552100000000000000000201510210002001GLADYS DONADO RODRIGUEZ                           D000000000007200000000000000000000100010010000000000000000000000F0010000007780000520151021000101 00000000000000000000000000000000000000000000000000000000000000000000000000000000000000000000000000000000000000000N 00000000000NCONT   00    00000000000          00000000000000000000000000000000000000000000 000000000000000A000000000000000000000000000000000000000000000 000000000000000000000000000000000000000     00000000                                                                                                                        000000000000000000
F0010000007780100001000001325248300011050500000000000000000201510210002001DISTRIBUIDORA DE LUBRICANTES LA 37                D000000002200000000000000000000000100010010000000000000000000000F0010000007780100120151021000101 00000000000000000000000000000000000000000000000000000000000000000000000000000000000000000000000000000000000000000N 00000000000NCONT   00    00000000000          00000000000000000000000000000000000000000000 000000000000000A000000000000000000000000000000000000000000000 000000000000000000000000000000000000000     00000000                                                                                                                        000000000000000000
F0010000007780100002000001325248300041450500000000000000000201510210002001DISTRIBUIDORA DE LUBRICANTES LA 37                C000000002000000000000000000000000100010010000000000000000000000F0010000007780100220151021000101 00000000000000000000000000000000000000000000000000000000000000000000000000000000000000000000000000000000000000000N 00000000000NCONT   00    00000000000          00000000000000000000000000000000000000000000 000000000000000A000000000000000000000000000000000000000000000 000000000000000000000000000000000000000     00000000                                                                                                                        000000000000000000
F0010000007780100003000001325248300042505000000000000000000201510210002001DISTRIBUIDORA DE LUBRICANTES LA 37                C000000000200000000000000000000000100010010000000000000000000000F0010000007780100320151021000101 00000000000000000000000000000000000000000000000000000000000000000000000000000000000000000000000000000000000000000N 00000000000NCONT   00    00000000000          00000000000000000000000000000000000000000000 000000000000000A000000000000000000000000000000000000000000000 000000000000000000000000000000000000000     00000000                                                                                                                        000000000000000000
F0010000007780100004000001325248300023658300000000000000000201510210002001DISTRIBUIDORA DE LUBRICANTES LA 37                C000000000016000000000000000000000100010010000000000000000000000F0010000007780100420151021000101 00000000000000000000000000000000000000000000000000000000000000000000000000000000000000000000000000000000000000000N 00000000000NCONT   00    00000000000          00000000000000000000000000000000000000000000 000000000000000A000000000000000000000000000000000000000000000 000000000000000000000000000000000000000     00000000                                                                                                                        000000000000000000
F0010000007780100005000001325248300013552100000000000000000201510210002001DISTRIBUIDORA DE LUBRICANTES LA 37                D000000000016000000000000000000000100010010000000000000000000000F0010000007780100520151021000101 00000000000000000000000000000000000000000000000000000000000000000000000000000000000000000000000000000000000000000N 00000000000NCONT   00    00000000000          00000000000000000000000000000000000000000000 000000000000000A000000000000000000000000000000000000000000000 000000000000000000000000000000000000000     00000000                                                                                                                        000000000000000000
F0010000007780200001000090060180600011050500000000000000000201510210002001INTERSOLES SAS                                    D000000003100000000000000000000000100010010000000000000000000000F0010000007780200120151021000101 00000000000000000000000000000000000000000000000000000000000000000000000000000000000000000000000000000000000000000N 00000000000NCONT   00    00000000000          00000000000000000000000000000000000000000000 000000000000000A000000000000000000000000000000000000000000000 000000000000000000000000000000000000000     00000000                                                                                                                        000000000000000000
F0010000007780200002000090060180600041450500000000000000000201510210002001INTERSOLES SAS                                    C000000002800000000000000000000000100010010000000000000000000000F0010000007780200220151021000101 00000000000000000000000000000000000000000000000000000000000000000000000000000000000000000000000000000000000000000N 00000000000NCONT   00    00000000000          00000000000000000000000000000000000000000000 000000000000000A000000000000000000000000000000000000000000000 000000000000000000000000000000000000000     00000000                                                                                                                        000000000000000000
F0010000007780200003000090060180600042505000000000000000000201510210002001INTERSOLES SAS                                    C000000000300000000000000000000000100010010000000000000000000000F0010000007780200320151021000101 00000000000000000000000000000000000000000000000000000000000000000000000000000000000000000000000000000000000000000N 00000000000NCONT   00    00000000000          00000000000000000000000000000000000000000000 000000000000000A000000000000000000000000000000000000000000000 000000000000000000000000000000000000000     00000000                                                                                                                        000000000000000000
F0010000007780200004000090060180600023658300000000000000000201510210002001INTERSOLES SAS                                    C000000000022400000000000000000000100010010000000000000000000000F0010000007780200420151021000101 00000000000000000000000000000000000000000000000000000000000000000000000000000000000000000000000000000000000000000N 00000000000NCONT   00    00000000000          00000000000000000000000000000000000000000000 000000000000000A000000000000000000000000000000000000000000000 000000000000000000000000000000000000000     00000000                                                                                                                        000000000000000000
F0010000007780200005000090060180600013552100000000000000000201510210002001INTERSOLES SAS                                    D000000000022400000000000000000000100010010000000000000000000000F0010000007780200520151021000101 00000000000000000000000000000000000000000000000000000000000000000000000000000000000000000000000000000000000000000N 00000000000NCONT   00    00000000000          00000000000000000000000000000000000000000000 000000000000000A000000000000000000000000000000000000000000000 000000000000000000000000000000000000000     00000000                                                                                                                        000000000000000000
F0010000007780300001000001719393900011050500000000000000000201510210002001JAIRO BASTIDAS RAMIREZ                            D000000003000000000000000000000000100010010000000000000000000000F0010000007780300120151021000101 00000000000000000000000000000000000000000000000000000000000000000000000000000000000000000000000000000000000000000N 00000000000NCONT   00    00000000000          00000000000000000000000000000000000000000000 000000000000000A000000000000000000000000000000000000000000000 000000000000000000000000000000000000000     00000000                                                                                                                        000000000000000000
F0010000007780300002000001719393900041450500000000000000000201510210002001JAIRO BASTIDAS RAMIREZ                            C000000002700000000000000000000000100010010000000000000000000000F0010000007780300220151021000101 00000000000000000000000000000000000000000000000000000000000000000000000000000000000000000000000000000000000000000N 00000000000NCONT   00    00000000000          00000000000000000000000000000000000000000000 000000000000000A000000000000000000000000000000000000000000000 000000000000000000000000000000000000000     00000000                                                                                                                        000000000000000000
F0010000007780300003000001719393900042505000000000000000000201510210002001JAIRO BASTIDAS RAMIREZ                            C000000000300000000000000000000000100010010000000000000000000000F0010000007780300320151021000101 00000000000000000000000000000000000000000000000000000000000000000000000000000000000000000000000000000000000000000N 00000000000NCONT   00    00000000000          00000000000000000000000000000000000000000000 000000000000000A000000000000000000000000000000000000000000000 000000000000000000000000000000000000000     00000000                                                                                                                        000000000000000000
F0010000007780300004000001719393900023658300000000000000000201510210002001JAIRO BASTIDAS RAMIREZ                            C000000000021600000000000000000000100010010000000000000000000000F0010000007780300420151021000101 00000000000000000000000000000000000000000000000000000000000000000000000000000000000000000000000000000000000000000N 00000000000NCONT   00    00000000000          00000000000000000000000000000000000000000000 000000000000000A000000000000000000000000000000000000000000000 000000000000000000000000000000000000000     00000000                                                                                                                        000000000000000000
F0010000007780300005000001719393900013552100000000000000000201510210002001JAIRO BASTIDAS RAMIREZ                            D000000000021600000000000000000000100010010000000000000000000000F0010000007780300520151021000101 00000000000000000000000000000000000000000000000000000000000000000000000000000000000000000000000000000000000000000N 00000000000NCONT   00    00000000000          00000000000000000000000000000000000000000000 000000000000000A000000000000000000000000000000000000000000000 000000000000000000000000000000000000000     00000000                                                                                                                        000000000000000000
F0010000007780400001000001719393900011050500000000000000000201510210002001JAIRO BASTIDAS RAMIREZ                            D000000002100000000000000000000000100010010000000000000000000000F0010000007780400120151021000101 00000000000000000000000000000000000000000000000000000000000000000000000000000000000000000000000000000000000000000N 00000000000NCONT   00    00000000000          00000000000000000000000000000000000000000000 000000000000000A000000000000000000000000000000000000000000000 000000000000000000000000000000000000000     00000000                                                                                                                        000000000000000000
F0010000007780400002000001719393900041450500000000000000000201510210002001JAIRO BASTIDAS RAMIREZ                            C000000001800000000000000000000000100010010000000000000000000000F0010000007780400220151021000101 00000000000000000000000000000000000000000000000000000000000000000000000000000000000000000000000000000000000000000N 00000000000NCONT   00    00000000000          00000000000000000000000000000000000000000000 000000000000000A000000000000000000000000000000000000000000000 000000000000000000000000000000000000000     00000000                                                                                                                        000000000000000000
F0010000007780400003000001719393900042505000000000000000000201510210002001JAIRO BASTIDAS RAMIREZ                            C000000000300000000000000000000000100010010000000000000000000000F0010000007780400320151021000101 00000000000000000000000000000000000000000000000000000000000000000000000000000000000000000000000000000000000000000N 00000000000NCONT   00    00000000000          00000000000000000000000000000000000000000000 000000000000000A000000000000000000000000000000000000000000000 000000000000000000000000000000000000000     00000000                                                                                                                        000000000000000000
F0010000007780400004000001719393900023658300000000000000000201510210002001JAIRO BASTIDAS RAMIREZ                            C000000000014400000000000000000000100010010000000000000000000000F0010000007780400420151021000101 00000000000000000000000000000000000000000000000000000000000000000000000000000000000000000000000000000000000000000N 00000000000NCONT   00    00000000000          00000000000000000000000000000000000000000000 000000000000000A000000000000000000000000000000000000000000000 000000000000000000000000000000000000000     00000000                                                                                                                        000000000000000000
F0010000007780400005000001719393900013552100000000000000000201510210002001JAIRO BASTIDAS RAMIREZ                            D000000000014400000000000000000000100010010000000000000000000000F0010000007780400520151021000101 00000000000000000000000000000000000000000000000000000000000000000000000000000000000000000000000000000000000000000N 00000000000NCONT   00    00000000000          00000000000000000000000000000000000000000000 000000000000000A000000000000000000000000000000000000000000000 000000000000000000000000000000000000000     00000000                                                                                                                        000000000000000000
F0010000007780500001000001719393900011050500000000000000000201510210002001JAIRO BASTIDAS RAMIREZ                            D000000001900000000000000000000000100010010000000000000000000000F0010000007780500120151021000101 00000000000000000000000000000000000000000000000000000000000000000000000000000000000000000000000000000000000000000N 00000000000NCONT   00    00000000000          00000000000000000000000000000000000000000000 000000000000000A000000000000000000000000000000000000000000000 000000000000000000000000000000000000000     00000000                                                                                                                        000000000000000000
F0010000007780500002000001719393900041450500000000000000000201510210002001JAIRO BASTIDAS RAMIREZ                            C000000001200000000000000000000000100010010000000000000000000000F0010000007780500220151021000101 00000000000000000000000000000000000000000000000000000000000000000000000000000000000000000000000000000000000000000N 00000000000NCONT   00    00000000000          00000000000000000000000000000000000000000000 000000000000000A000000000000000000000000000000000000000000000 000000000000000000000000000000000000000     00000000                                                                                                                        000000000000000000
F0010000007780500003000001719393900042505000000000000000000201510210002001JAIRO BASTIDAS RAMIREZ                            C000000000700000000000000000000000100010010000000000000000000000F0010000007780500320151021000101 00000000000000000000000000000000000000000000000000000000000000000000000000000000000000000000000000000000000000000N 00000000000NCONT   00    00000000000          00000000000000000000000000000000000000000000 000000000000000A000000000000000000000000000000000000000000000 000000000000000000000000000000000000000     00000000                                                                                                                        000000000000000000
F0010000007780500004000001719393900023658300000000000000000201510210002001JAIRO BASTIDAS RAMIREZ                            C000000000009600000000000000000000100010010000000000000000000000F0010000007780500420151021000101 00000000000000000000000000000000000000000000000000000000000000000000000000000000000000000000000000000000000000000N 00000000000NCONT   00    00000000000          00000000000000000000000000000000000000000000 000000000000000A000000000000000000000000000000000000000000000 000000000000000000000000000000000000000     00000000                                                                                                                        000000000000000000
F0010000007780500005000001719393900013552100000000000000000201510210002001JAIRO BASTIDAS RAMIREZ                            D000000000009600000000000000000000100010010000000000000000000000F0010000007780500520151021000101 00000000000000000000000000000000000000000000000000000000000000000000000000000000000000000000000000000000000000000N 00000000000NCONT   00    00000000000          00000000000000000000000000000000000000000000 000000000000000A000000000000000000000000000000000000000000000 000000000000000000000000000000000000000     00000000                                                                                                                        000000000000000000
F0010000007780600001000080201411900011050500000000000000000201510210002001PLASTISERVICIOS S DE H                            D000000001300000000000000000000000100010010000000000000000000000F0010000007780600120151021000101 00000000000000000000000000000000000000000000000000000000000000000000000000000000000000000000000000000000000000000N 00000000000NCONT   00    00000000000          00000000000000000000000000000000000000000000 000000000000000A000000000000000000000000000000000000000000000 000000000000000000000000000000000000000     00000000                                                                                                                        000000000000000000
F0010000007780600002000080201411900041450500000000000000000201510210002001PLASTISERVICIOS S DE H                            C000000001200000000000000000000000100010010000000000000000000000F0010000007780600220151021000101 00000000000000000000000000000000000000000000000000000000000000000000000000000000000000000000000000000000000000000N 00000000000NCONT   00    00000000000          00000000000000000000000000000000000000000000 000000000000000A000000000000000000000000000000000000000000000 000000000000000000000000000000000000000     00000000                                                                                                                        000000000000000000
F0010000007780600003000080201411900042505000000000000000000201510210002001PLASTISERVICIOS S DE H                            C000000000100000000000000000000000100010010000000000000000000000F0010000007780600320151021000101 00000000000000000000000000000000000000000000000000000000000000000000000000000000000000000000000000000000000000000N 00000000000NCONT   00    00000000000          00000000000000000000000000000000000000000000 000000000000000A000000000000000000000000000000000000000000000 000000000000000000000000000000000000000     00000000                                                                                                                        000000000000000000
F0010000007780600004000080201411900023658300000000000000000201510210002001PLASTISERVICIOS S DE H                            C000000000009600000000000000000000100010010000000000000000000000F0010000007780600420151021000101 00000000000000000000000000000000000000000000000000000000000000000000000000000000000000000000000000000000000000000N 00000000000NCONT   00    00000000000          00000000000000000000000000000000000000000000 000000000000000A000000000000000000000000000000000000000000000 000000000000000000000000000000000000000     00000000                                                                                                                        000000000000000000
F0010000007780600005000080201411900013552100000000000000000201510210002001PLASTISERVICIOS S DE H                            D000000000009600000000000000000000100010010000000000000000000000F0010000007780600520151021000101 00000000000000000000000000000000000000000000000000000000000000000000000000000000000000000000000000000000000000000N 00000000000NCONT   00    00000000000          00000000000000000000000000000000000000000000 000000000000000A000000000000000000000000000000000000000000000 000000000000000000000000000000000000000     00000000                                                                                                                        000000000000000000
F0010000007780700001000001022529300011050500000000000000000201510210002001ALBERTO ALVAREZ ISAZA                             D000000000700000000000000000000000100010010000000000000000000000F0010000007780700120151021000101 00000000000000000000000000000000000000000000000000000000000000000000000000000000000000000000000000000000000000000N 00000000000NCONT   00    00000000000          00000000000000000000000000000000000000000000 000000000000000A000000000000000000000000000000000000000000000 000000000000000000000000000000000000000     00000000                                                                                                                        000000000000000000
F0010000007780700002000001022529300041450500000000000000000201510210002001ALBERTO ALVAREZ ISAZA                             C000000000700000000000000000000000100010010000000000000000000000F0010000007780700220151021000101 00000000000000000000000000000000000000000000000000000000000000000000000000000000000000000000000000000000000000000N 00000000000NCONT   00    00000000000          00000000000000000000000000000000000000000000 000000000000000A000000000000000000000000000000000000000000000 000000000000000000000000000000000000000     00000000                                                                                                                        000000000000000000
F0010000007780700003000001022529300042505000000000000000000201510210002001ALBERTO ALVAREZ ISAZA                             C000000000000000000000000000000000100010010000000000000000000000F0010000007780700320151021000101 00000000000000000000000000000000000000000000000000000000000000000000000000000000000000000000000000000000000000000N 00000000000NCONT   00    00000000000          00000000000000000000000000000000000000000000 000000000000000A000000000000000000000000000000000000000000000 000000000000000000000000000000000000000     00000000                                                                                                                        000000000000000000
F0010000007780700004000001022529300023658300000000000000000201510210002001ALBERTO ALVAREZ ISAZA                             C000000000005600000000000000000000100010010000000000000000000000F0010000007780700420151021000101 00000000000000000000000000000000000000000000000000000000000000000000000000000000000000000000000000000000000000000N 00000000000NCONT   00    00000000000          00000000000000000000000000000000000000000000 000000000000000A000000000000000000000000000000000000000000000 000000000000000000000000000000000000000     00000000                                                                                                                        000000000000000000
F0010000007780700005000001022529300013552100000000000000000201510210002001ALBERTO ALVAREZ ISAZA                             D000000000005600000000000000000000100010010000000000000000000000F0010000007780700520151021000101 00000000000000000000000000000000000000000000000000000000000000000000000000000000000000000000000000000000000000000N 00000000000NCONT   00    00000000000          00000000000000000000000000000000000000000000 000000000000000A000000000000000000000000000000000000000000000 000000000000000000000000000000000000000     00000000                                                                                                                        000000000000000000
F0010000007780800001000080201703900011050500000000000000000201510210002001MUNDIAL CHEMICAL LTDA                             D000000001000000000000000000000000100010010000000000000000000000F0010000007780800120151021000101 00000000000000000000000000000000000000000000000000000000000000000000000000000000000000000000000000000000000000000N 00000000000NCONT   00    00000000000          00000000000000000000000000000000000000000000 000000000000000A000000000000000000000000000000000000000000000 000000000000000000000000000000000000000     00000000                                                                                                                        000000000000000000
F0010000007780800002000080201703900041450500000000000000000201510210002001MUNDIAL CHEMICAL LTDA                             C000000000830000000000000000000000100010010000000000000000000000F0010000007780800220151021000101 00000000000000000000000000000000000000000000000000000000000000000000000000000000000000000000000000000000000000000N 00000000000NCONT   00    00000000000          00000000000000000000000000000000000000000000 000000000000000A000000000000000000000000000000000000000000000 000000000000000000000000000000000000000     00000000                                                                                                                        000000000000000000
F0010000007780800003000080201703900042505000000000000000000201510210002001MUNDIAL CHEMICAL LTDA                             C000000000170000000000000000000000100010010000000000000000000000F0010000007780800320151021000101 00000000000000000000000000000000000000000000000000000000000000000000000000000000000000000000000000000000000000000N 00000000000NCONT   00    00000000000          00000000000000000000000000000000000000000000 000000000000000A000000000000000000000000000000000000000000000 000000000000000000000000000000000000000     00000000                                                                                                                        000000000000000000
F0010000007780800004000080201703900023658300000000000000000201510210002001MUNDIAL CHEMICAL LTDA                             C000000000006600000000000000000000100010010000000000000000000000F0010000007780800420151021000101 00000000000000000000000000000000000000000000000000000000000000000000000000000000000000000000000000000000000000000N 00000000000NCONT   00    00000000000          00000000000000000000000000000000000000000000 000000000000000A000000000000000000000000000000000000000000000 000000000000000000000000000000000000000     00000000                                                                                                                        000000000000000000
F0010000007780800005000080201703900013552100000000000000000201510210002001MUNDIAL CHEMICAL LTDA                             D000000000006600000000000000000000100010010000000000000000000000F0010000007780800520151021000101 00000000000000000000000000000000000000000000000000000000000000000000000000000000000000000000000000000000000000000N 00000000000NCONT   00    00000000000          00000000000000000000000000000000000000000000 000000000000000A000000000000000000000000000000000000000000000 000000000000000000000000000000000000000     00000000                                                                                                                        000000000000000000
F0010000007780900001000080201411900011050500000000000000000201510210002001PLASTISERVICIOS S DE H                            D000000003400000000000000000000000100010010000000000000000000000F0010000007780900120151021000101 00000000000000000000000000000000000000000000000000000000000000000000000000000000000000000000000000000000000000000N 00000000000NCONT   00    00000000000          00000000000000000000000000000000000000000000 000000000000000A000000000000000000000000000000000000000000000 000000000000000000000000000000000000000     00000000                                                                                                                        000000000000000000
F0010000007780900002000080201411900041450500000000000000000201510210002001PLASTISERVICIOS S DE H                            C000000003000000000000000000000000100010010000000000000000000000F0010000007780900220151021000101 00000000000000000000000000000000000000000000000000000000000000000000000000000000000000000000000000000000000000000N 00000000000NCONT   00    00000000000          00000000000000000000000000000000000000000000 000000000000000A000000000000000000000000000000000000000000000 000000000000000000000000000000000000000     00000000                                                                                                                        000000000000000000
F0010000007780900003000080201411900042505000000000000000000201510210002001PLASTISERVICIOS S DE H                            C000000000400000000000000000000000100010010000000000000000000000F0010000007780900320151021000101 00000000000000000000000000000000000000000000000000000000000000000000000000000000000000000000000000000000000000000N 00000000000NCONT   00    00000000000          00000000000000000000000000000000000000000000 000000000000000A000000000000000000000000000000000000000000000 000000000000000000000000000000000000000     00000000                                                                                                                        000000000000000000
F0010000007780900004000080201411900023658300000000000000000201510210002001PLASTISERVICIOS S DE H                            C000000000024000000000000000000000100010010000000000000000000000F0010000007780900420151021000101 00000000000000000000000000000000000000000000000000000000000000000000000000000000000000000000000000000000000000000N 00000000000NCONT   00    00000000000          00000000000000000000000000000000000000000000 000000000000000A000000000000000000000000000000000000000000000 000000000000000000000000000000000000000     00000000                                                                                                                        000000000000000000
F0010000007780900005000080201411900013552100000000000000000201510210002001PLASTISERVICIOS S DE H                            D000000000024000000000000000000000100010010000000000000000000000F0010000007780900520151021000101 00000000000000000000000000000000000000000000000000000000000000000000000000000000000000000000000000000000000000000N 00000000000NCONT   00    00000000000          00000000000000000000000000000000000000000000 000000000000000A000000000000000000000000000000000000000000000 000000000000000000000000000000000000000     00000000                                                                                                                        000000000000000000
