F0010000010385900001000007218448100011050500000000000000000201709220002001MARIANO SARABIA                                   D000000001900000000000000000000000100010010000000000000000000000F0010000010385900120170922000101 00000000000000000000000000000000000000000000000000000000000000000000000000000000000000000000000000000000000000000N 00000000000NCONT   00    00000000000          00000000000000000000000000000000000000000000 000000000000000A000000000000000000000000000000000000000000000 000000000000000000000000000000000000000     00000000                                                                                                                        000000000000000000
F0010000010385900002000007218448100041450500000000000000000201709220002001MARIANO SARABIA                                   C000000001300000000000000000000000100010010000000000000000000000F0010000010385900220170922000101 00000000000000000000000000000000000000000000000000000000000000000000000000000000000000000000000000000000000000000N 00000000000NCONT   00    00000000000          00000000000000000000000000000000000000000000 000000000000000A000000000000000000000000000000000000000000000 000000000000000000000000000000000000000     00000000                                                                                                                        000000000000000000
F0010000010385900003000007218448100042505000000000000000000201709220002001MARIANO SARABIA                                   C000000000600000000000000000000000100010010000000000000000000000F0010000010385900320170922000101 00000000000000000000000000000000000000000000000000000000000000000000000000000000000000000000000000000000000000000N 00000000000NCONT   00    00000000000          00000000000000000000000000000000000000000000 000000000000000A000000000000000000000000000000000000000000000 000000000000000000000000000000000000000     00000000                                                                                                                        000000000000000000
F0010000010385900004000007218448100023658300000000000000000201709220002001MARIANO SARABIA                                   C000000000000000000000000000000000100010010000000000000000000000F0010000010385900420170922000101 00000000000000000000000000000000000000000000000000000000000000000000000000000000000000000000000000000000000000000N 00000000000NCONT   00    00000000000          00000000000000000000000000000000000000000000 000000000000000A000000000000000000000000000000000000000000000 000000000000000000000000000000000000000     00000000                                                                                                                        000000000000000000
F0010000010385900005000007218448100013552100000000000000000201709220002001MARIANO SARABIA                                   D000000000000000000000000000000000100010010000000000000000000000F0010000010385900520170922000101 00000000000000000000000000000000000000000000000000000000000000000000000000000000000000000000000000000000000000000N 00000000000NCONT   00    00000000000          00000000000000000000000000000000000000000000 000000000000000A000000000000000000000000000000000000000000000 000000000000000000000000000000000000000     00000000                                                                                                                        000000000000000000
F0010000010386000001000007218448100011050500000000000000000201709220002001MARIANO SARABIA                                   D000000002000000000000000000000000100010010000000000000000000000F0010000010386000120170922000101 00000000000000000000000000000000000000000000000000000000000000000000000000000000000000000000000000000000000000000N 00000000000NCONT   00    00000000000          00000000000000000000000000000000000000000000 000000000000000A000000000000000000000000000000000000000000000 000000000000000000000000000000000000000     00000000                                                                                                                        000000000000000000
F0010000010386000002000007218448100041450500000000000000000201709220002001MARIANO SARABIA                                   C000000001300000000000000000000000100010010000000000000000000000F0010000010386000220170922000101 00000000000000000000000000000000000000000000000000000000000000000000000000000000000000000000000000000000000000000N 00000000000NCONT   00    00000000000          00000000000000000000000000000000000000000000 000000000000000A000000000000000000000000000000000000000000000 000000000000000000000000000000000000000     00000000                                                                                                                        000000000000000000
F0010000010386000003000007218448100042505000000000000000000201709220002001MARIANO SARABIA                                   C000000000700000000000000000000000100010010000000000000000000000F0010000010386000320170922000101 00000000000000000000000000000000000000000000000000000000000000000000000000000000000000000000000000000000000000000N 00000000000NCONT   00    00000000000          00000000000000000000000000000000000000000000 000000000000000A000000000000000000000000000000000000000000000 000000000000000000000000000000000000000     00000000                                                                                                                        000000000000000000
F0010000010386000004000007218448100023658300000000000000000201709220002001MARIANO SARABIA                                   C000000000000000000000000000000000100010010000000000000000000000F0010000010386000420170922000101 00000000000000000000000000000000000000000000000000000000000000000000000000000000000000000000000000000000000000000N 00000000000NCONT   00    00000000000          00000000000000000000000000000000000000000000 000000000000000A000000000000000000000000000000000000000000000 000000000000000000000000000000000000000     00000000                                                                                                                        000000000000000000
F0010000010386000005000007218448100013552100000000000000000201709220002001MARIANO SARABIA                                   D000000000000000000000000000000000100010010000000000000000000000F0010000010386000520170922000101 00000000000000000000000000000000000000000000000000000000000000000000000000000000000000000000000000000000000000000N 00000000000NCONT   00    00000000000          00000000000000000000000000000000000000000000 000000000000000A000000000000000000000000000000000000000000000 000000000000000000000000000000000000000     00000000                                                                                                                        000000000000000000
F0010000010386100001000007218448100011050500000000000000000201709220002001MARIANO SARABIA                                   D000000001900000000000000000000000100010010000000000000000000000F0010000010386100120170922000101 00000000000000000000000000000000000000000000000000000000000000000000000000000000000000000000000000000000000000000N 00000000000NCONT   00    00000000000          00000000000000000000000000000000000000000000 000000000000000A000000000000000000000000000000000000000000000 000000000000000000000000000000000000000     00000000                                                                                                                        000000000000000000
F0010000010386100002000007218448100041450500000000000000000201709220002001MARIANO SARABIA                                   C000000001300000000000000000000000100010010000000000000000000000F0010000010386100220170922000101 00000000000000000000000000000000000000000000000000000000000000000000000000000000000000000000000000000000000000000N 00000000000NCONT   00    00000000000          00000000000000000000000000000000000000000000 000000000000000A000000000000000000000000000000000000000000000 000000000000000000000000000000000000000     00000000                                                                                                                        000000000000000000
F0010000010386100003000007218448100042505000000000000000000201709220002001MARIANO SARABIA                                   C000000000600000000000000000000000100010010000000000000000000000F0010000010386100320170922000101 00000000000000000000000000000000000000000000000000000000000000000000000000000000000000000000000000000000000000000N 00000000000NCONT   00    00000000000          00000000000000000000000000000000000000000000 000000000000000A000000000000000000000000000000000000000000000 000000000000000000000000000000000000000     00000000                                                                                                                        000000000000000000
F0010000010386100004000007218448100023658300000000000000000201709220002001MARIANO SARABIA                                   C000000000000000000000000000000000100010010000000000000000000000F0010000010386100420170922000101 00000000000000000000000000000000000000000000000000000000000000000000000000000000000000000000000000000000000000000N 00000000000NCONT   00    00000000000          00000000000000000000000000000000000000000000 000000000000000A000000000000000000000000000000000000000000000 000000000000000000000000000000000000000     00000000                                                                                                                        000000000000000000
F0010000010386100005000007218448100013552100000000000000000201709220002001MARIANO SARABIA                                   D000000000000000000000000000000000100010010000000000000000000000F0010000010386100520170922000101 00000000000000000000000000000000000000000000000000000000000000000000000000000000000000000000000000000000000000000N 00000000000NCONT   00    00000000000          00000000000000000000000000000000000000000000 000000000000000A000000000000000000000000000000000000000000000 000000000000000000000000000000000000000     00000000                                                                                                                        000000000000000000
F0010000010386200001000089010260300013050500000000000000000201709220002001FEDERICO OSORIO A. S.A.                           D000000102912700000000000000000000100010010000000000000000000000F0010000010386200120170922000101 00000000000000000000000000000000000000000000000000000000000000000000000000000000000000000000000000000000000000000N 00000000000NCONT   00    00000000000          00000000000000000000000000000000000000000000 000000000000000A000000000000000000000000000000000000000000000 000000000000000000000000000000000000000     00000000                                                                                                                        000000000000000000
F0010000010386200002000089010260300041450500000000000000000201709220002001FEDERICO OSORIO A. S.A.                           C000000096160000000000000000000000100010010000000000000000000000F0010000010386200220170922000101 00000000000000000000000000000000000000000000000000000000000000000000000000000000000000000000000000000000000000000N 00000000000NCONT   00    00000000000          00000000000000000000000000000000000000000000 000000000000000A000000000000000000000000000000000000000000000 000000000000000000000000000000000000000     00000000                                                                                                                        000000000000000000
F0010000010386200003000089010260300042505000000000000000000201709220002001FEDERICO OSORIO A. S.A.                           C000000006752700000000000000000000100010010000000000000000000000F0010000010386200320170922000101 00000000000000000000000000000000000000000000000000000000000000000000000000000000000000000000000000000000000000000N 00000000000NCONT   00    00000000000          00000000000000000000000000000000000000000000 000000000000000A000000000000000000000000000000000000000000000 000000000000000000000000000000000000000     00000000                                                                                                                        000000000000000000
F0010000010386200004000089010260300023658300000000000000000201709220002001FEDERICO OSORIO A. S.A.                           C000000000000000000000000000000000100010010000000000000000000000F0010000010386200420170922000101 00000000000000000000000000000000000000000000000000000000000000000000000000000000000000000000000000000000000000000N 00000000000NCONT   00    00000000000          00000000000000000000000000000000000000000000 000000000000000A000000000000000000000000000000000000000000000 000000000000000000000000000000000000000     00000000                                                                                                                        000000000000000000
F0010000010386200005000089010260300013552100000000000000000201709220002001FEDERICO OSORIO A. S.A.                           D000000000000000000000000000000000100010010000000000000000000000F0010000010386200520170922000101 00000000000000000000000000000000000000000000000000000000000000000000000000000000000000000000000000000000000000000N 00000000000NCONT   00    00000000000          00000000000000000000000000000000000000000000 000000000000000A000000000000000000000000000000000000000000000 000000000000000000000000000000000000000     00000000                                                                                                                        000000000000000000
F0010000010386300001000090059316900013050500000000000000000201709220002001DISTRIBUCIONES Y REPRESENTACIONES MANA            D000000015743800000000000000000000100010010000000000000000000000F0010000010386300120170922000101 00000000000000000000000000000000000000000000000000000000000000000000000000000000000000000000000000000000000000000N 00000000000NCONT   00    00000000000          00000000000000000000000000000000000000000000 000000000000000A000000000000000000000000000000000000000000000 000000000000000000000000000000000000000     00000000                                                                                                                        000000000000000000
F0010000010386300002000090059316900041450500000000000000000201709220002001DISTRIBUCIONES Y REPRESENTACIONES MANA            C000000013700000000000000000000000100010010000000000000000000000F0010000010386300220170922000101 00000000000000000000000000000000000000000000000000000000000000000000000000000000000000000000000000000000000000000N 00000000000NCONT   00    00000000000          00000000000000000000000000000000000000000000 000000000000000A000000000000000000000000000000000000000000000 000000000000000000000000000000000000000     00000000                                                                                                                        000000000000000000
F0010000010386300003000090059316900042505000000000000000000201709220002001DISTRIBUCIONES Y REPRESENTACIONES MANA            C000000002043800000000000000000000100010010000000000000000000000F0010000010386300320170922000101 00000000000000000000000000000000000000000000000000000000000000000000000000000000000000000000000000000000000000000N 00000000000NCONT   00    00000000000          00000000000000000000000000000000000000000000 000000000000000A000000000000000000000000000000000000000000000 000000000000000000000000000000000000000     00000000                                                                                                                        000000000000000000
F0010000010386300004000090059316900023658300000000000000000201709220002001DISTRIBUCIONES Y REPRESENTACIONES MANA            C000000000000000000000000000000000100010010000000000000000000000F0010000010386300420170922000101 00000000000000000000000000000000000000000000000000000000000000000000000000000000000000000000000000000000000000000N 00000000000NCONT   00    00000000000          00000000000000000000000000000000000000000000 000000000000000A000000000000000000000000000000000000000000000 000000000000000000000000000000000000000     00000000                                                                                                                        000000000000000000
F0010000010386300005000090059316900013552100000000000000000201709220002001DISTRIBUCIONES Y REPRESENTACIONES MANA            D000000000000000000000000000000000100010010000000000000000000000F0010000010386300520170922000101 00000000000000000000000000000000000000000000000000000000000000000000000000000000000000000000000000000000000000000N 00000000000NCONT   00    00000000000          00000000000000000000000000000000000000000000 000000000000000A000000000000000000000000000000000000000000000 000000000000000000000000000000000000000     00000000                                                                                                                        000000000000000000
F0010000010386400001000080201601700013050500000000000000000201709220002001PLASTICOS SUPERIOR S.A.                           D000000019249000000000000000000000100010010000000000000000000000F0010000010386400120170922000101 00000000000000000000000000000000000000000000000000000000000000000000000000000000000000000000000000000000000000000N 00000000000NCONT   00    00000000000          00000000000000000000000000000000000000000000 000000000000000A000000000000000000000000000000000000000000000 000000000000000000000000000000000000000     00000000                                                                                                                        000000000000000000
F0010000010386400002000080201601700041450500000000000000000201709220002001PLASTICOS SUPERIOR S.A.                           C000000017800000000000000000000000100010010000000000000000000000F0010000010386400220170922000101 00000000000000000000000000000000000000000000000000000000000000000000000000000000000000000000000000000000000000000N 00000000000NCONT   00    00000000000          00000000000000000000000000000000000000000000 000000000000000A000000000000000000000000000000000000000000000 000000000000000000000000000000000000000     00000000                                                                                                                        000000000000000000
F0010000010386400003000080201601700042505000000000000000000201709220002001PLASTICOS SUPERIOR S.A.                           C000000001449000000000000000000000100010010000000000000000000000F0010000010386400320170922000101 00000000000000000000000000000000000000000000000000000000000000000000000000000000000000000000000000000000000000000N 00000000000NCONT   00    00000000000          00000000000000000000000000000000000000000000 000000000000000A000000000000000000000000000000000000000000000 000000000000000000000000000000000000000     00000000                                                                                                                        000000000000000000
F0010000010386400004000080201601700023658300000000000000000201709220002001PLASTICOS SUPERIOR S.A.                           C000000000000000000000000000000000100010010000000000000000000000F0010000010386400420170922000101 00000000000000000000000000000000000000000000000000000000000000000000000000000000000000000000000000000000000000000N 00000000000NCONT   00    00000000000          00000000000000000000000000000000000000000000 000000000000000A000000000000000000000000000000000000000000000 000000000000000000000000000000000000000     00000000                                                                                                                        000000000000000000
F0010000010386400005000080201601700013552100000000000000000201709220002001PLASTICOS SUPERIOR S.A.                           D000000000000000000000000000000000100010010000000000000000000000F0010000010386400520170922000101 00000000000000000000000000000000000000000000000000000000000000000000000000000000000000000000000000000000000000000N 00000000000NCONT   00    00000000000          00000000000000000000000000000000000000000000 000000000000000A000000000000000000000000000000000000000000000 000000000000000000000000000000000000000     00000000                                                                                                                        000000000000000000
F0010000010386500001000002245670100013050500000000000000000201709220002001YOLANDA  TOBON                                    D000000022539400000000000000000000100010010000000000000000000000F0010000010386500120170922000101 00000000000000000000000000000000000000000000000000000000000000000000000000000000000000000000000000000000000000000N 00000000000NCONT   00    00000000000          00000000000000000000000000000000000000000000 000000000000000A000000000000000000000000000000000000000000000 000000000000000000000000000000000000000     00000000                                                                                                                        000000000000000000
F0010000010386500002000002245670100041450500000000000000000201709220002001YOLANDA  TOBON                                    C000000015220000000000000000000000100010010000000000000000000000F0010000010386500220170922000101 00000000000000000000000000000000000000000000000000000000000000000000000000000000000000000000000000000000000000000N 00000000000NCONT   00    00000000000          00000000000000000000000000000000000000000000 000000000000000A000000000000000000000000000000000000000000000 000000000000000000000000000000000000000     00000000                                                                                                                        000000000000000000
F0010000010386500003000002245670100042505000000000000000000201709220002001YOLANDA  TOBON                                    C000000007319400000000000000000000100010010000000000000000000000F0010000010386500320170922000101 00000000000000000000000000000000000000000000000000000000000000000000000000000000000000000000000000000000000000000N 00000000000NCONT   00    00000000000          00000000000000000000000000000000000000000000 000000000000000A000000000000000000000000000000000000000000000 000000000000000000000000000000000000000     00000000                                                                                                                        000000000000000000
F0010000010386500004000002245670100023658300000000000000000201709220002001YOLANDA  TOBON                                    C000000000000000000000000000000000100010010000000000000000000000F0010000010386500420170922000101 00000000000000000000000000000000000000000000000000000000000000000000000000000000000000000000000000000000000000000N 00000000000NCONT   00    00000000000          00000000000000000000000000000000000000000000 000000000000000A000000000000000000000000000000000000000000000 000000000000000000000000000000000000000     00000000                                                                                                                        000000000000000000
F0010000010386500005000002245670100013552100000000000000000201709220002001YOLANDA  TOBON                                    D000000000000000000000000000000000100010010000000000000000000000F0010000010386500520170922000101 00000000000000000000000000000000000000000000000000000000000000000000000000000000000000000000000000000000000000000N 00000000000NCONT   00    00000000000          00000000000000000000000000000000000000000000 000000000000000A000000000000000000000000000000000000000000000 000000000000000000000000000000000000000     00000000                                                                                                                        000000000000000000
F0010000010386600001000090009800500013050500000000000000000201709220002001GLORIANT CHEMICHALS DE COLOMBIA LTDA              D000000025823000000000000000000000100010010000000000000000000000F0010000010386600120170922000101 00000000000000000000000000000000000000000000000000000000000000000000000000000000000000000000000000000000000000000N 00000000000NCONT   00    00000000000          00000000000000000000000000000000000000000000 000000000000000A000000000000000000000000000000000000000000000 000000000000000000000000000000000000000     00000000                                                                                                                        000000000000000000
F0010000010386600002000090009800500041450500000000000000000201709220002001GLORIANT CHEMICHALS DE COLOMBIA LTDA              C000000020480000000000000000000000100010010000000000000000000000F0010000010386600220170922000101 00000000000000000000000000000000000000000000000000000000000000000000000000000000000000000000000000000000000000000N 00000000000NCONT   00    00000000000          00000000000000000000000000000000000000000000 000000000000000A000000000000000000000000000000000000000000000 000000000000000000000000000000000000000     00000000                                                                                                                        000000000000000000
F0010000010386600003000090009800500042505000000000000000000201709220002001GLORIANT CHEMICHALS DE COLOMBIA LTDA              C000000005343000000000000000000000100010010000000000000000000000F0010000010386600320170922000101 00000000000000000000000000000000000000000000000000000000000000000000000000000000000000000000000000000000000000000N 00000000000NCONT   00    00000000000          00000000000000000000000000000000000000000000 000000000000000A000000000000000000000000000000000000000000000 000000000000000000000000000000000000000     00000000                                                                                                                        000000000000000000
F0010000010386600004000090009800500023658300000000000000000201709220002001GLORIANT CHEMICHALS DE COLOMBIA LTDA              C000000000000000000000000000000000100010010000000000000000000000F0010000010386600420170922000101 00000000000000000000000000000000000000000000000000000000000000000000000000000000000000000000000000000000000000000N 00000000000NCONT   00    00000000000          00000000000000000000000000000000000000000000 000000000000000A000000000000000000000000000000000000000000000 000000000000000000000000000000000000000     00000000                                                                                                                        000000000000000000
F0010000010386600005000090009800500013552100000000000000000201709220002001GLORIANT CHEMICHALS DE COLOMBIA LTDA              D000000000000000000000000000000000100010010000000000000000000000F0010000010386600520170922000101 00000000000000000000000000000000000000000000000000000000000000000000000000000000000000000000000000000000000000000N 00000000000NCONT   00    00000000000          00000000000000000000000000000000000000000000 000000000000000A000000000000000000000000000000000000000000000 000000000000000000000000000000000000000     00000000                                                                                                                        000000000000000000
F0010000010386700001000000748239700013050500000000000000000201709220002001RAFAEL NAVARRO URIBE                              D000000021378900000000000000000000100010010000000000000000000000F0010000010386700120170922000101 00000000000000000000000000000000000000000000000000000000000000000000000000000000000000000000000000000000000000000N 00000000000NCONT   00    00000000000          00000000000000000000000000000000000000000000 000000000000000A000000000000000000000000000000000000000000000 000000000000000000000000000000000000000     00000000                                                                                                                        000000000000000000
F0010000010386700002000000748239700041450500000000000000000201709220002001RAFAEL NAVARRO URIBE                              C000000015200000000000000000000000100010010000000000000000000000F0010000010386700220170922000101 00000000000000000000000000000000000000000000000000000000000000000000000000000000000000000000000000000000000000000N 00000000000NCONT   00    00000000000          00000000000000000000000000000000000000000000 000000000000000A000000000000000000000000000000000000000000000 000000000000000000000000000000000000000     00000000                                                                                                                        000000000000000000
F0010000010386700003000000748239700042505000000000000000000201709220002001RAFAEL NAVARRO URIBE                              C000000006178900000000000000000000100010010000000000000000000000F0010000010386700320170922000101 00000000000000000000000000000000000000000000000000000000000000000000000000000000000000000000000000000000000000000N 00000000000NCONT   00    00000000000          00000000000000000000000000000000000000000000 000000000000000A000000000000000000000000000000000000000000000 000000000000000000000000000000000000000     00000000                                                                                                                        000000000000000000
F0010000010386700004000000748239700023658300000000000000000201709220002001RAFAEL NAVARRO URIBE                              C000000000000000000000000000000000100010010000000000000000000000F0010000010386700420170922000101 00000000000000000000000000000000000000000000000000000000000000000000000000000000000000000000000000000000000000000N 00000000000NCONT   00    00000000000          00000000000000000000000000000000000000000000 000000000000000A000000000000000000000000000000000000000000000 000000000000000000000000000000000000000     00000000                                                                                                                        000000000000000000
F0010000010386700005000000748239700013552100000000000000000201709220002001RAFAEL NAVARRO URIBE                              D000000000000000000000000000000000100010010000000000000000000000F0010000010386700520170922000101 00000000000000000000000000000000000000000000000000000000000000000000000000000000000000000000000000000000000000000N 00000000000NCONT   00    00000000000          00000000000000000000000000000000000000000000 000000000000000A000000000000000000000000000000000000000000000 000000000000000000000000000000000000000     00000000                                                                                                                        000000000000000000
F0010000010386800001000080016665600013050500000000000000000201709220002001SUMICAL DE ANTIOQUIA S.A.S                        D000000011677300000000000000000000100010010000000000000000000000F0010000010386800120170922000101 00000000000000000000000000000000000000000000000000000000000000000000000000000000000000000000000000000000000000000N 00000000000NCONT   00    00000000000          00000000000000000000000000000000000000000000 000000000000000A000000000000000000000000000000000000000000000 000000000000000000000000000000000000000     00000000                                                                                                                        000000000000000000
F0010000010386800002000080016665600041450500000000000000000201709220002001SUMICAL DE ANTIOQUIA S.A.S                        C000000009870000000000000000000000100010010000000000000000000000F0010000010386800220170922000101 00000000000000000000000000000000000000000000000000000000000000000000000000000000000000000000000000000000000000000N 00000000000NCONT   00    00000000000          00000000000000000000000000000000000000000000 000000000000000A000000000000000000000000000000000000000000000 000000000000000000000000000000000000000     00000000                                                                                                                        000000000000000000
F0010000010386800003000080016665600042505000000000000000000201709220002001SUMICAL DE ANTIOQUIA S.A.S                        C000000001807300000000000000000000100010010000000000000000000000F0010000010386800320170922000101 00000000000000000000000000000000000000000000000000000000000000000000000000000000000000000000000000000000000000000N 00000000000NCONT   00    00000000000          00000000000000000000000000000000000000000000 000000000000000A000000000000000000000000000000000000000000000 000000000000000000000000000000000000000     00000000                                                                                                                        000000000000000000
F0010000010386800004000080016665600023658300000000000000000201709220002001SUMICAL DE ANTIOQUIA S.A.S                        C000000000000000000000000000000000100010010000000000000000000000F0010000010386800420170922000101 00000000000000000000000000000000000000000000000000000000000000000000000000000000000000000000000000000000000000000N 00000000000NCONT   00    00000000000          00000000000000000000000000000000000000000000 000000000000000A000000000000000000000000000000000000000000000 000000000000000000000000000000000000000     00000000                                                                                                                        000000000000000000
F0010000010386800005000080016665600013552100000000000000000201709220002001SUMICAL DE ANTIOQUIA S.A.S                        D000000000000000000000000000000000100010010000000000000000000000F0010000010386800520170922000101 00000000000000000000000000000000000000000000000000000000000000000000000000000000000000000000000000000000000000000N 00000000000NCONT   00    00000000000          00000000000000000000000000000000000000000000 000000000000000A000000000000000000000000000000000000000000000 000000000000000000000000000000000000000     00000000                                                                                                                        000000000000000000
F0010000010386900001000090060531100013050500000000000000000201709220002001RECUBRIMIENTOS ESENCIALES SAS                     D000000134830000000000000000000000100010010000000000000000000000F0010000010386900120170922000101 00000000000000000000000000000000000000000000000000000000000000000000000000000000000000000000000000000000000000000N 00000000000NCONT   00    00000000000          00000000000000000000000000000000000000000000 000000000000000A000000000000000000000000000000000000000000000 000000000000000000000000000000000000000     00000000                                                                                                                        000000000000000000
F0010000010386900002000090060531100041450500000000000000000201709220002001RECUBRIMIENTOS ESENCIALES SAS                     C000000127130000000000000000000000100010010000000000000000000000F0010000010386900220170922000101 00000000000000000000000000000000000000000000000000000000000000000000000000000000000000000000000000000000000000000N 00000000000NCONT   00    00000000000          00000000000000000000000000000000000000000000 000000000000000A000000000000000000000000000000000000000000000 000000000000000000000000000000000000000     00000000                                                                                                                        000000000000000000
F0010000010386900003000090060531100042505000000000000000000201709220002001RECUBRIMIENTOS ESENCIALES SAS                     C000000007700000000000000000000000100010010000000000000000000000F0010000010386900320170922000101 00000000000000000000000000000000000000000000000000000000000000000000000000000000000000000000000000000000000000000N 00000000000NCONT   00    00000000000          00000000000000000000000000000000000000000000 000000000000000A000000000000000000000000000000000000000000000 000000000000000000000000000000000000000     00000000                                                                                                                        000000000000000000
F0010000010386900004000090060531100023658300000000000000000201709220002001RECUBRIMIENTOS ESENCIALES SAS                     C000000000000000000000000000000000100010010000000000000000000000F0010000010386900420170922000101 00000000000000000000000000000000000000000000000000000000000000000000000000000000000000000000000000000000000000000N 00000000000NCONT   00    00000000000          00000000000000000000000000000000000000000000 000000000000000A000000000000000000000000000000000000000000000 000000000000000000000000000000000000000     00000000                                                                                                                        000000000000000000
F0010000010386900005000090060531100013552100000000000000000201709220002001RECUBRIMIENTOS ESENCIALES SAS                     D000000000000000000000000000000000100010010000000000000000000000F0010000010386900520170922000101 00000000000000000000000000000000000000000000000000000000000000000000000000000000000000000000000000000000000000000N 00000000000NCONT   00    00000000000          00000000000000000000000000000000000000000000 000000000000000A000000000000000000000000000000000000000000000 000000000000000000000000000000000000000     00000000                                                                                                                        000000000000000000
F0010000010387000001000080200069100013050500000000000000000201709220002001PEGANTES Y PINTURAS ATLAS LTDA                    D000000020771800000000000000000000100010010000000000000000000000F0010000010387000120170922000101 00000000000000000000000000000000000000000000000000000000000000000000000000000000000000000000000000000000000000000N 00000000000NCONT   00    00000000000          00000000000000000000000000000000000000000000 000000000000000A000000000000000000000000000000000000000000000 000000000000000000000000000000000000000     00000000                                                                                                                        000000000000000000
F0010000010387000002000080200069100041450500000000000000000201709220002001PEGANTES Y PINTURAS ATLAS LTDA                    C000000018150000000000000000000000100010010000000000000000000000F0010000010387000220170922000101 00000000000000000000000000000000000000000000000000000000000000000000000000000000000000000000000000000000000000000N 00000000000NCONT   00    00000000000          00000000000000000000000000000000000000000000 000000000000000A000000000000000000000000000000000000000000000 000000000000000000000000000000000000000     00000000                                                                                                                        000000000000000000
F0010000010387000003000080200069100042505000000000000000000201709220002001PEGANTES Y PINTURAS ATLAS LTDA                    C000000002621800000000000000000000100010010000000000000000000000F0010000010387000320170922000101 00000000000000000000000000000000000000000000000000000000000000000000000000000000000000000000000000000000000000000N 00000000000NCONT   00    00000000000          00000000000000000000000000000000000000000000 000000000000000A000000000000000000000000000000000000000000000 000000000000000000000000000000000000000     00000000                                                                                                                        000000000000000000
F0010000010387000004000080200069100023658300000000000000000201709220002001PEGANTES Y PINTURAS ATLAS LTDA                    C000000000000000000000000000000000100010010000000000000000000000F0010000010387000420170922000101 00000000000000000000000000000000000000000000000000000000000000000000000000000000000000000000000000000000000000000N 00000000000NCONT   00    00000000000          00000000000000000000000000000000000000000000 000000000000000A000000000000000000000000000000000000000000000 000000000000000000000000000000000000000     00000000                                                                                                                        000000000000000000
F0010000010387000005000080200069100013552100000000000000000201709220002001PEGANTES Y PINTURAS ATLAS LTDA                    D000000000000000000000000000000000100010010000000000000000000000F0010000010387000520170922000101 00000000000000000000000000000000000000000000000000000000000000000000000000000000000000000000000000000000000000000N 00000000000NCONT   00    00000000000          00000000000000000000000000000000000000000000 000000000000000A000000000000000000000000000000000000000000000 000000000000000000000000000000000000000     00000000                                                                                                                        000000000000000000
F0010000010387100001000090064982900013050500000000000000000201709220002001DISDIES S.A.S                                     D000000075128900000000000000000000100010010000000000000000000000F0010000010387100120170922000101 00000000000000000000000000000000000000000000000000000000000000000000000000000000000000000000000000000000000000000N 00000000000NCONT   00    00000000000          00000000000000000000000000000000000000000000 000000000000000A000000000000000000000000000000000000000000000 000000000000000000000000000000000000000     00000000                                                                                                                        000000000000000000
F0010000010387100002000090064982900041450500000000000000000201709220002001DISDIES S.A.S                                     C000000069580400000000000000000000100010010000000000000000000000F0010000010387100220170922000101 00000000000000000000000000000000000000000000000000000000000000000000000000000000000000000000000000000000000000000N 00000000000NCONT   00    00000000000          00000000000000000000000000000000000000000000 000000000000000A000000000000000000000000000000000000000000000 000000000000000000000000000000000000000     00000000                                                                                                                        000000000000000000
F0010000010387100003000090064982900042505000000000000000000201709220002001DISDIES S.A.S                                     C000000005548500000000000000000000100010010000000000000000000000F0010000010387100320170922000101 00000000000000000000000000000000000000000000000000000000000000000000000000000000000000000000000000000000000000000N 00000000000NCONT   00    00000000000          00000000000000000000000000000000000000000000 000000000000000A000000000000000000000000000000000000000000000 000000000000000000000000000000000000000     00000000                                                                                                                        000000000000000000
F0010000010387100004000090064982900023658300000000000000000201709220002001DISDIES S.A.S                                     C000000000000000000000000000000000100010010000000000000000000000F0010000010387100420170922000101 00000000000000000000000000000000000000000000000000000000000000000000000000000000000000000000000000000000000000000N 00000000000NCONT   00    00000000000          00000000000000000000000000000000000000000000 000000000000000A000000000000000000000000000000000000000000000 000000000000000000000000000000000000000     00000000                                                                                                                        000000000000000000
F0010000010387100005000090064982900013552100000000000000000201709220002001DISDIES S.A.S                                     D000000000000000000000000000000000100010010000000000000000000000F0010000010387100520170922000101 00000000000000000000000000000000000000000000000000000000000000000000000000000000000000000000000000000000000000000N 00000000000NCONT   00    00000000000          00000000000000000000000000000000000000000000 000000000000000A000000000000000000000000000000000000000000000 000000000000000000000000000000000000000     00000000                                                                                                                        000000000000000000
F0010000010387200001000080202094000013050500000000000000000201709220002001DISTRIB. OMAR ORREGO S.A.                         D000000073032800000000000000000000100010010000000000000000000000F0010000010387200120170922000101 00000000000000000000000000000000000000000000000000000000000000000000000000000000000000000000000000000000000000000N 00000000000NCONT   00    00000000000          00000000000000000000000000000000000000000000 000000000000000A000000000000000000000000000000000000000000000 000000000000000000000000000000000000000     00000000                                                                                                                        000000000000000000
F0010000010387200002000080202094000041450500000000000000000201709220002001DISTRIB. OMAR ORREGO S.A.                         C000000037240000000000000000000000100010010000000000000000000000F0010000010387200220170922000101 00000000000000000000000000000000000000000000000000000000000000000000000000000000000000000000000000000000000000000N 00000000000NCONT   00    00000000000          00000000000000000000000000000000000000000000 000000000000000A000000000000000000000000000000000000000000000 000000000000000000000000000000000000000     00000000                                                                                                                        000000000000000000
F0010000010387200003000080202094000042505000000000000000000201709220002001DISTRIB. OMAR ORREGO S.A.                         C000000035792800000000000000000000100010010000000000000000000000F0010000010387200320170922000101 00000000000000000000000000000000000000000000000000000000000000000000000000000000000000000000000000000000000000000N 00000000000NCONT   00    00000000000          00000000000000000000000000000000000000000000 000000000000000A000000000000000000000000000000000000000000000 000000000000000000000000000000000000000     00000000                                                                                                                        000000000000000000
F0010000010387200004000080202094000023658300000000000000000201709220002001DISTRIB. OMAR ORREGO S.A.                         C000000000000000000000000000000000100010010000000000000000000000F0010000010387200420170922000101 00000000000000000000000000000000000000000000000000000000000000000000000000000000000000000000000000000000000000000N 00000000000NCONT   00    00000000000          00000000000000000000000000000000000000000000 000000000000000A000000000000000000000000000000000000000000000 000000000000000000000000000000000000000     00000000                                                                                                                        000000000000000000
F0010000010387200005000080202094000013552100000000000000000201709220002001DISTRIB. OMAR ORREGO S.A.                         D000000000000000000000000000000000100010010000000000000000000000F0010000010387200520170922000101 00000000000000000000000000000000000000000000000000000000000000000000000000000000000000000000000000000000000000000N 00000000000NCONT   00    00000000000          00000000000000000000000000000000000000000000 000000000000000A000000000000000000000000000000000000000000000 000000000000000000000000000000000000000     00000000                                                                                                                        000000000000000000
F0010000010387300001000080202094000013050500000000000000000201709220002001DISTRIB. OMAR ORREGO S.A.                         D000000003008300000000000000000000100010010000000000000000000000F0010000010387300120170922000101 00000000000000000000000000000000000000000000000000000000000000000000000000000000000000000000000000000000000000000N 00000000000NCONT   00    00000000000          00000000000000000000000000000000000000000000 000000000000000A000000000000000000000000000000000000000000000 000000000000000000000000000000000000000     00000000                                                                                                                        000000000000000000
F0010000010387300002000080202094000041450500000000000000000201709220002001DISTRIB. OMAR ORREGO S.A.                         C000000000890000000000000000000000100010010000000000000000000000F0010000010387300220170922000101 00000000000000000000000000000000000000000000000000000000000000000000000000000000000000000000000000000000000000000N 00000000000NCONT   00    00000000000          00000000000000000000000000000000000000000000 000000000000000A000000000000000000000000000000000000000000000 000000000000000000000000000000000000000     00000000                                                                                                                        000000000000000000
F0010000010387300003000080202094000042505000000000000000000201709220002001DISTRIB. OMAR ORREGO S.A.                         C000000002118300000000000000000000100010010000000000000000000000F0010000010387300320170922000101 00000000000000000000000000000000000000000000000000000000000000000000000000000000000000000000000000000000000000000N 00000000000NCONT   00    00000000000          00000000000000000000000000000000000000000000 000000000000000A000000000000000000000000000000000000000000000 000000000000000000000000000000000000000     00000000                                                                                                                        000000000000000000
F0010000010387300004000080202094000023658300000000000000000201709220002001DISTRIB. OMAR ORREGO S.A.                         C000000000000000000000000000000000100010010000000000000000000000F0010000010387300420170922000101 00000000000000000000000000000000000000000000000000000000000000000000000000000000000000000000000000000000000000000N 00000000000NCONT   00    00000000000          00000000000000000000000000000000000000000000 000000000000000A000000000000000000000000000000000000000000000 000000000000000000000000000000000000000     00000000                                                                                                                        000000000000000000
F0010000010387300005000080202094000013552100000000000000000201709220002001DISTRIB. OMAR ORREGO S.A.                         D000000000000000000000000000000000100010010000000000000000000000F0010000010387300520170922000101 00000000000000000000000000000000000000000000000000000000000000000000000000000000000000000000000000000000000000000N 00000000000NCONT   00    00000000000          00000000000000000000000000000000000000000000 000000000000000A000000000000000000000000000000000000000000000 000000000000000000000000000000000000000     00000000                                                                                                                        000000000000000000
F0010000010387400001000080201112800013050500000000000000000201709220002001CANGURO INTERNATIONAL S.A.                        D000000010062000000000000000000000100010010000000000000000000000F0010000010387400120170922000101 00000000000000000000000000000000000000000000000000000000000000000000000000000000000000000000000000000000000000000N 00000000000NCONT   00    00000000000          00000000000000000000000000000000000000000000 000000000000000A000000000000000000000000000000000000000000000 000000000000000000000000000000000000000     00000000                                                                                                                        000000000000000000
F0010000010387400002000080201112800041450500000000000000000201709220002001CANGURO INTERNATIONAL S.A.                        C000000010062000000000000000000000100010010000000000000000000000F0010000010387400220170922000101 00000000000000000000000000000000000000000000000000000000000000000000000000000000000000000000000000000000000000000N 00000000000NCONT   00    00000000000          00000000000000000000000000000000000000000000 000000000000000A000000000000000000000000000000000000000000000 000000000000000000000000000000000000000     00000000                                                                                                                        000000000000000000
F0010000010387400003000080201112800042505000000000000000000201709220002001CANGURO INTERNATIONAL S.A.                        C000000000000000000000000000000000100010010000000000000000000000F0010000010387400320170922000101 00000000000000000000000000000000000000000000000000000000000000000000000000000000000000000000000000000000000000000N 00000000000NCONT   00    00000000000          00000000000000000000000000000000000000000000 000000000000000A000000000000000000000000000000000000000000000 000000000000000000000000000000000000000     00000000                                                                                                                        000000000000000000
F0010000010387400004000080201112800023658300000000000000000201709220002001CANGURO INTERNATIONAL S.A.                        C000000000000000000000000000000000100010010000000000000000000000F0010000010387400420170922000101 00000000000000000000000000000000000000000000000000000000000000000000000000000000000000000000000000000000000000000N 00000000000NCONT   00    00000000000          00000000000000000000000000000000000000000000 000000000000000A000000000000000000000000000000000000000000000 000000000000000000000000000000000000000     00000000                                                                                                                        000000000000000000
F0010000010387400005000080201112800013552100000000000000000201709220002001CANGURO INTERNATIONAL S.A.                        D000000000000000000000000000000000100010010000000000000000000000F0010000010387400520170922000101 00000000000000000000000000000000000000000000000000000000000000000000000000000000000000000000000000000000000000000N 00000000000NCONT   00    00000000000          00000000000000000000000000000000000000000000 000000000000000A000000000000000000000000000000000000000000000 000000000000000000000000000000000000000     00000000                                                                                                                        000000000000000000
F0010000010387500001000080201112800013050500000000000000000201709220002001CANGURO INTERNATIONAL S.A.                        D000000280076400000000000000000000100010010000000000000000000000F0010000010387500120170922000101 00000000000000000000000000000000000000000000000000000000000000000000000000000000000000000000000000000000000000000N 00000000000NCONT   00    00000000000          00000000000000000000000000000000000000000000 000000000000000A000000000000000000000000000000000000000000000 000000000000000000000000000000000000000     00000000                                                                                                                        000000000000000000
F0010000010387500002000080201112800041450500000000000000000201709220002001CANGURO INTERNATIONAL S.A.                        C000000273110600000000000000000000100010010000000000000000000000F0010000010387500220170922000101 00000000000000000000000000000000000000000000000000000000000000000000000000000000000000000000000000000000000000000N 00000000000NCONT   00    00000000000          00000000000000000000000000000000000000000000 000000000000000A000000000000000000000000000000000000000000000 000000000000000000000000000000000000000     00000000                                                                                                                        000000000000000000
F0010000010387500003000080201112800042505000000000000000000201709220002001CANGURO INTERNATIONAL S.A.                        C000000006965800000000000000000000100010010000000000000000000000F0010000010387500320170922000101 00000000000000000000000000000000000000000000000000000000000000000000000000000000000000000000000000000000000000000N 00000000000NCONT   00    00000000000          00000000000000000000000000000000000000000000 000000000000000A000000000000000000000000000000000000000000000 000000000000000000000000000000000000000     00000000                                                                                                                        000000000000000000
F0010000010387500004000080201112800023658300000000000000000201709220002001CANGURO INTERNATIONAL S.A.                        C000000000000000000000000000000000100010010000000000000000000000F0010000010387500420170922000101 00000000000000000000000000000000000000000000000000000000000000000000000000000000000000000000000000000000000000000N 00000000000NCONT   00    00000000000          00000000000000000000000000000000000000000000 000000000000000A000000000000000000000000000000000000000000000 000000000000000000000000000000000000000     00000000                                                                                                                        000000000000000000
F0010000010387500005000080201112800013552100000000000000000201709220002001CANGURO INTERNATIONAL S.A.                        D000000000000000000000000000000000100010010000000000000000000000F0010000010387500520170922000101 00000000000000000000000000000000000000000000000000000000000000000000000000000000000000000000000000000000000000000N 00000000000NCONT   00    00000000000          00000000000000000000000000000000000000000000 000000000000000A000000000000000000000000000000000000000000000 000000000000000000000000000000000000000     00000000                                                                                                                        000000000000000000
F0010000010387600001000080201112800013050500000000000000000201709220002001CANGURO INTERNATIONAL S.A.                        D000000069679500000000000000000000100010010000000000000000000000F0010000010387600120170922000101 00000000000000000000000000000000000000000000000000000000000000000000000000000000000000000000000000000000000000000N 00000000000NCONT   00    00000000000          00000000000000000000000000000000000000000000 000000000000000A000000000000000000000000000000000000000000000 000000000000000000000000000000000000000     00000000                                                                                                                        000000000000000000
F0010000010387600002000080201112800041450500000000000000000201709220002001CANGURO INTERNATIONAL S.A.                        C000000068954000000000000000000000100010010000000000000000000000F0010000010387600220170922000101 00000000000000000000000000000000000000000000000000000000000000000000000000000000000000000000000000000000000000000N 00000000000NCONT   00    00000000000          00000000000000000000000000000000000000000000 000000000000000A000000000000000000000000000000000000000000000 000000000000000000000000000000000000000     00000000                                                                                                                        000000000000000000
F0010000010387600003000080201112800042505000000000000000000201709220002001CANGURO INTERNATIONAL S.A.                        C000000000725500000000000000000000100010010000000000000000000000F0010000010387600320170922000101 00000000000000000000000000000000000000000000000000000000000000000000000000000000000000000000000000000000000000000N 00000000000NCONT   00    00000000000          00000000000000000000000000000000000000000000 000000000000000A000000000000000000000000000000000000000000000 000000000000000000000000000000000000000     00000000                                                                                                                        000000000000000000
F0010000010387600004000080201112800023658300000000000000000201709220002001CANGURO INTERNATIONAL S.A.                        C000000000000000000000000000000000100010010000000000000000000000F0010000010387600420170922000101 00000000000000000000000000000000000000000000000000000000000000000000000000000000000000000000000000000000000000000N 00000000000NCONT   00    00000000000          00000000000000000000000000000000000000000000 000000000000000A000000000000000000000000000000000000000000000 000000000000000000000000000000000000000     00000000                                                                                                                        000000000000000000
F0010000010387600005000080201112800013552100000000000000000201709220002001CANGURO INTERNATIONAL S.A.                        D000000000000000000000000000000000100010010000000000000000000000F0010000010387600520170922000101 00000000000000000000000000000000000000000000000000000000000000000000000000000000000000000000000000000000000000000N 00000000000NCONT   00    00000000000          00000000000000000000000000000000000000000000 000000000000000A000000000000000000000000000000000000000000000 000000000000000000000000000000000000000     00000000                                                                                                                        000000000000000000
F0010000010387700001000089030195100013050500000000000000000201709220002001LIBRERIA NACIONAL S.A.                            D000000042600000000000000000000000100010010000000000000000000000F0010000010387700120170922000101 00000000000000000000000000000000000000000000000000000000000000000000000000000000000000000000000000000000000000000N 00000000000NCONT   00    00000000000          00000000000000000000000000000000000000000000 000000000000000A000000000000000000000000000000000000000000000 000000000000000000000000000000000000000     00000000                                                                                                                        000000000000000000
F0010000010387700002000089030195100041450500000000000000000201709220002001LIBRERIA NACIONAL S.A.                            C000000035500000000000000000000000100010010000000000000000000000F0010000010387700220170922000101 00000000000000000000000000000000000000000000000000000000000000000000000000000000000000000000000000000000000000000N 00000000000NCONT   00    00000000000          00000000000000000000000000000000000000000000 000000000000000A000000000000000000000000000000000000000000000 000000000000000000000000000000000000000     00000000                                                                                                                        000000000000000000
F0010000010387700003000089030195100042505000000000000000000201709220002001LIBRERIA NACIONAL S.A.                            C000000007100000000000000000000000100010010000000000000000000000F0010000010387700320170922000101 00000000000000000000000000000000000000000000000000000000000000000000000000000000000000000000000000000000000000000N 00000000000NCONT   00    00000000000          00000000000000000000000000000000000000000000 000000000000000A000000000000000000000000000000000000000000000 000000000000000000000000000000000000000     00000000                                                                                                                        000000000000000000
F0010000010387700004000089030195100023658300000000000000000201709220002001LIBRERIA NACIONAL S.A.                            C000000000000000000000000000000000100010010000000000000000000000F0010000010387700420170922000101 00000000000000000000000000000000000000000000000000000000000000000000000000000000000000000000000000000000000000000N 00000000000NCONT   00    00000000000          00000000000000000000000000000000000000000000 000000000000000A000000000000000000000000000000000000000000000 000000000000000000000000000000000000000     00000000                                                                                                                        000000000000000000
F0010000010387700005000089030195100013552100000000000000000201709220002001LIBRERIA NACIONAL S.A.                            D000000000000000000000000000000000100010010000000000000000000000F0010000010387700520170922000101 00000000000000000000000000000000000000000000000000000000000000000000000000000000000000000000000000000000000000000N 00000000000NCONT   00    00000000000          00000000000000000000000000000000000000000000 000000000000000A000000000000000000000000000000000000000000000 000000000000000000000000000000000000000     00000000                                                                                                                        000000000000000000
F0010000010387800001000086003979400013050500000000000000000201709220002001CALYPSO BARRANQUILLA LTDA                         D000000061373400000000000000000000100010010000000000000000000000F0010000010387800120170922000101 00000000000000000000000000000000000000000000000000000000000000000000000000000000000000000000000000000000000000000N 00000000000NCONT   00    00000000000          00000000000000000000000000000000000000000000 000000000000000A000000000000000000000000000000000000000000000 000000000000000000000000000000000000000     00000000                                                                                                                        000000000000000000
F0010000010387800002000086003979400041450500000000000000000201709220002001CALYPSO BARRANQUILLA LTDA                         C000000057000000000000000000000000100010010000000000000000000000F0010000010387800220170922000101 00000000000000000000000000000000000000000000000000000000000000000000000000000000000000000000000000000000000000000N 00000000000NCONT   00    00000000000          00000000000000000000000000000000000000000000 000000000000000A000000000000000000000000000000000000000000000 000000000000000000000000000000000000000     00000000                                                                                                                        000000000000000000
F0010000010387800003000086003979400042505000000000000000000201709220002001CALYPSO BARRANQUILLA LTDA                         C000000004373400000000000000000000100010010000000000000000000000F0010000010387800320170922000101 00000000000000000000000000000000000000000000000000000000000000000000000000000000000000000000000000000000000000000N 00000000000NCONT   00    00000000000          00000000000000000000000000000000000000000000 000000000000000A000000000000000000000000000000000000000000000 000000000000000000000000000000000000000     00000000                                                                                                                        000000000000000000
F0010000010387800004000086003979400023658300000000000000000201709220002001CALYPSO BARRANQUILLA LTDA                         C000000000000000000000000000000000100010010000000000000000000000F0010000010387800420170922000101 00000000000000000000000000000000000000000000000000000000000000000000000000000000000000000000000000000000000000000N 00000000000NCONT   00    00000000000          00000000000000000000000000000000000000000000 000000000000000A000000000000000000000000000000000000000000000 000000000000000000000000000000000000000     00000000                                                                                                                        000000000000000000
F0010000010387800005000086003979400013552100000000000000000201709220002001CALYPSO BARRANQUILLA LTDA                         D000000000000000000000000000000000100010010000000000000000000000F0010000010387800520170922000101 00000000000000000000000000000000000000000000000000000000000000000000000000000000000000000000000000000000000000000N 00000000000NCONT   00    00000000000          00000000000000000000000000000000000000000000 000000000000000A000000000000000000000000000000000000000000000 000000000000000000000000000000000000000     00000000                                                                                                                        000000000000000000
F0010000010387900001000089031248700013050500000000000000000201709220002001DISTRIBUIDORA CALIPLASTICOS LTDA                  D000000091698300000000000000000000100010010000000000000000000000F0010000010387900120170922000101 00000000000000000000000000000000000000000000000000000000000000000000000000000000000000000000000000000000000000000N 00000000000NCONT   00    00000000000          00000000000000000000000000000000000000000000 000000000000000A000000000000000000000000000000000000000000000 000000000000000000000000000000000000000     00000000                                                                                                                        000000000000000000
F0010000010387900002000089031248700041450500000000000000000201709220002001DISTRIBUIDORA CALIPLASTICOS LTDA                  C000000087088300000000000000000000100010010000000000000000000000F0010000010387900220170922000101 00000000000000000000000000000000000000000000000000000000000000000000000000000000000000000000000000000000000000000N 00000000000NCONT   00    00000000000          00000000000000000000000000000000000000000000 000000000000000A000000000000000000000000000000000000000000000 000000000000000000000000000000000000000     00000000                                                                                                                        000000000000000000
F0010000010387900003000089031248700042505000000000000000000201709220002001DISTRIBUIDORA CALIPLASTICOS LTDA                  C000000004610000000000000000000000100010010000000000000000000000F0010000010387900320170922000101 00000000000000000000000000000000000000000000000000000000000000000000000000000000000000000000000000000000000000000N 00000000000NCONT   00    00000000000          00000000000000000000000000000000000000000000 000000000000000A000000000000000000000000000000000000000000000 000000000000000000000000000000000000000     00000000                                                                                                                        000000000000000000
F0010000010387900004000089031248700023658300000000000000000201709220002001DISTRIBUIDORA CALIPLASTICOS LTDA                  C000000000000000000000000000000000100010010000000000000000000000F0010000010387900420170922000101 00000000000000000000000000000000000000000000000000000000000000000000000000000000000000000000000000000000000000000N 00000000000NCONT   00    00000000000          00000000000000000000000000000000000000000000 000000000000000A000000000000000000000000000000000000000000000 000000000000000000000000000000000000000     00000000                                                                                                                        000000000000000000
F0010000010387900005000089031248700013552100000000000000000201709220002001DISTRIBUIDORA CALIPLASTICOS LTDA                  D000000000000000000000000000000000100010010000000000000000000000F0010000010387900520170922000101 00000000000000000000000000000000000000000000000000000000000000000000000000000000000000000000000000000000000000000N 00000000000NCONT   00    00000000000          00000000000000000000000000000000000000000000 000000000000000A000000000000000000000000000000000000000000000 000000000000000000000000000000000000000     00000000                                                                                                                        000000000000000000
F0010000010388000001000001022529300013050500000000000000000201709220002001ALBERTO ALVAREZ ISAZA                             D000000002630000000000000000000000100010010000000000000000000000F0010000010388000120170922000101 00000000000000000000000000000000000000000000000000000000000000000000000000000000000000000000000000000000000000000N 00000000000NCONT   00    00000000000          00000000000000000000000000000000000000000000 000000000000000A000000000000000000000000000000000000000000000 000000000000000000000000000000000000000     00000000                                                                                                                        000000000000000000
F0010000010388000002000001022529300041450500000000000000000201709220002001ALBERTO ALVAREZ ISAZA                             C000000002630000000000000000000000100010010000000000000000000000F0010000010388000220170922000101 00000000000000000000000000000000000000000000000000000000000000000000000000000000000000000000000000000000000000000N 00000000000NCONT   00    00000000000          00000000000000000000000000000000000000000000 000000000000000A000000000000000000000000000000000000000000000 000000000000000000000000000000000000000     00000000                                                                                                                        000000000000000000
F0010000010388000003000001022529300042505000000000000000000201709220002001ALBERTO ALVAREZ ISAZA                             C000000000000000000000000000000000100010010000000000000000000000F0010000010388000320170922000101 00000000000000000000000000000000000000000000000000000000000000000000000000000000000000000000000000000000000000000N 00000000000NCONT   00    00000000000          00000000000000000000000000000000000000000000 000000000000000A000000000000000000000000000000000000000000000 000000000000000000000000000000000000000     00000000                                                                                                                        000000000000000000
F0010000010388000004000001022529300023658300000000000000000201709220002001ALBERTO ALVAREZ ISAZA                             C000000000000000000000000000000000100010010000000000000000000000F0010000010388000420170922000101 00000000000000000000000000000000000000000000000000000000000000000000000000000000000000000000000000000000000000000N 00000000000NCONT   00    00000000000          00000000000000000000000000000000000000000000 000000000000000A000000000000000000000000000000000000000000000 000000000000000000000000000000000000000     00000000                                                                                                                        000000000000000000
F0010000010388000005000001022529300013552100000000000000000201709220002001ALBERTO ALVAREZ ISAZA                             D000000000000000000000000000000000100010010000000000000000000000F0010000010388000520170922000101 00000000000000000000000000000000000000000000000000000000000000000000000000000000000000000000000000000000000000000N 00000000000NCONT   00    00000000000          00000000000000000000000000000000000000000000 000000000000000A000000000000000000000000000000000000000000000 000000000000000000000000000000000000000     00000000                                                                                                                        000000000000000000
F0010000010388100001000000431178400013050500000000000000000201709220002001EFRAIN ALVAREZ                                    D000000009000000000000000000000000100010010000000000000000000000F0010000010388100120170922000101 00000000000000000000000000000000000000000000000000000000000000000000000000000000000000000000000000000000000000000N 00000000000NCONT   00    00000000000          00000000000000000000000000000000000000000000 000000000000000A000000000000000000000000000000000000000000000 000000000000000000000000000000000000000     00000000                                                                                                                        000000000000000000
F0010000010388100002000000431178400041450500000000000000000201709220002001EFRAIN ALVAREZ                                    C000000008650000000000000000000000100010010000000000000000000000F0010000010388100220170922000101 00000000000000000000000000000000000000000000000000000000000000000000000000000000000000000000000000000000000000000N 00000000000NCONT   00    00000000000          00000000000000000000000000000000000000000000 000000000000000A000000000000000000000000000000000000000000000 000000000000000000000000000000000000000     00000000                                                                                                                        000000000000000000
F0010000010388100003000000431178400042505000000000000000000201709220002001EFRAIN ALVAREZ                                    C000000000350000000000000000000000100010010000000000000000000000F0010000010388100320170922000101 00000000000000000000000000000000000000000000000000000000000000000000000000000000000000000000000000000000000000000N 00000000000NCONT   00    00000000000          00000000000000000000000000000000000000000000 000000000000000A000000000000000000000000000000000000000000000 000000000000000000000000000000000000000     00000000                                                                                                                        000000000000000000
F0010000010388100004000000431178400023658300000000000000000201709220002001EFRAIN ALVAREZ                                    C000000000000000000000000000000000100010010000000000000000000000F0010000010388100420170922000101 00000000000000000000000000000000000000000000000000000000000000000000000000000000000000000000000000000000000000000N 00000000000NCONT   00    00000000000          00000000000000000000000000000000000000000000 000000000000000A000000000000000000000000000000000000000000000 000000000000000000000000000000000000000     00000000                                                                                                                        000000000000000000
F0010000010388100005000000431178400013552100000000000000000201709220002001EFRAIN ALVAREZ                                    D000000000000000000000000000000000100010010000000000000000000000F0010000010388100520170922000101 00000000000000000000000000000000000000000000000000000000000000000000000000000000000000000000000000000000000000000N 00000000000NCONT   00    00000000000          00000000000000000000000000000000000000000000 000000000000000A000000000000000000000000000000000000000000000 000000000000000000000000000000000000000     00000000                                                                                                                        000000000000000000
F0010000010388200001000089080078800013050500000000000000000201709220002001SUMATEC S.A.                                      D000000017060000000000000000000000100010010000000000000000000000F0010000010388200120170922000101 00000000000000000000000000000000000000000000000000000000000000000000000000000000000000000000000000000000000000000N 00000000000NCONT   00    00000000000          00000000000000000000000000000000000000000000 000000000000000A000000000000000000000000000000000000000000000 000000000000000000000000000000000000000     00000000                                                                                                                        000000000000000000
F0010000010388200002000089080078800041450500000000000000000201709220002001SUMATEC S.A.                                      C000000016980000000000000000000000100010010000000000000000000000F0010000010388200220170922000101 00000000000000000000000000000000000000000000000000000000000000000000000000000000000000000000000000000000000000000N 00000000000NCONT   00    00000000000          00000000000000000000000000000000000000000000 000000000000000A000000000000000000000000000000000000000000000 000000000000000000000000000000000000000     00000000                                                                                                                        000000000000000000
F0010000010388200003000089080078800042505000000000000000000201709220002001SUMATEC S.A.                                      C000000000080000000000000000000000100010010000000000000000000000F0010000010388200320170922000101 00000000000000000000000000000000000000000000000000000000000000000000000000000000000000000000000000000000000000000N 00000000000NCONT   00    00000000000          00000000000000000000000000000000000000000000 000000000000000A000000000000000000000000000000000000000000000 000000000000000000000000000000000000000     00000000                                                                                                                        000000000000000000
F0010000010388200004000089080078800023658300000000000000000201709220002001SUMATEC S.A.                                      C000000000000000000000000000000000100010010000000000000000000000F0010000010388200420170922000101 00000000000000000000000000000000000000000000000000000000000000000000000000000000000000000000000000000000000000000N 00000000000NCONT   00    00000000000          00000000000000000000000000000000000000000000 000000000000000A000000000000000000000000000000000000000000000 000000000000000000000000000000000000000     00000000                                                                                                                        000000000000000000
F0010000010388200005000089080078800013552100000000000000000201709220002001SUMATEC S.A.                                      D000000000000000000000000000000000100010010000000000000000000000F0010000010388200520170922000101 00000000000000000000000000000000000000000000000000000000000000000000000000000000000000000000000000000000000000000N 00000000000NCONT   00    00000000000          00000000000000000000000000000000000000000000 000000000000000A000000000000000000000000000000000000000000000 000000000000000000000000000000000000000     00000000                                                                                                                        000000000000000000
F0010000010388300001000080010983700013050500000000000000000201709220002001OHM LTDA                                          D000000011835000000000000000000000100010010000000000000000000000F0010000010388300120170922000101 00000000000000000000000000000000000000000000000000000000000000000000000000000000000000000000000000000000000000000N 00000000000NCONT   00    00000000000          00000000000000000000000000000000000000000000 000000000000000A000000000000000000000000000000000000000000000 000000000000000000000000000000000000000     00000000                                                                                                                        000000000000000000
F0010000010388300002000080010983700041450500000000000000000201709220002001OHM LTDA                                          C000000011700000000000000000000000100010010000000000000000000000F0010000010388300220170922000101 00000000000000000000000000000000000000000000000000000000000000000000000000000000000000000000000000000000000000000N 00000000000NCONT   00    00000000000          00000000000000000000000000000000000000000000 000000000000000A000000000000000000000000000000000000000000000 000000000000000000000000000000000000000     00000000                                                                                                                        000000000000000000
F0010000010388300003000080010983700042505000000000000000000201709220002001OHM LTDA                                          C000000000135000000000000000000000100010010000000000000000000000F0010000010388300320170922000101 00000000000000000000000000000000000000000000000000000000000000000000000000000000000000000000000000000000000000000N 00000000000NCONT   00    00000000000          00000000000000000000000000000000000000000000 000000000000000A000000000000000000000000000000000000000000000 000000000000000000000000000000000000000     00000000                                                                                                                        000000000000000000
F0010000010388300004000080010983700023658300000000000000000201709220002001OHM LTDA                                          C000000000000000000000000000000000100010010000000000000000000000F0010000010388300420170922000101 00000000000000000000000000000000000000000000000000000000000000000000000000000000000000000000000000000000000000000N 00000000000NCONT   00    00000000000          00000000000000000000000000000000000000000000 000000000000000A000000000000000000000000000000000000000000000 000000000000000000000000000000000000000     00000000                                                                                                                        000000000000000000
F0010000010388300005000080010983700013552100000000000000000201709220002001OHM LTDA                                          D000000000000000000000000000000000100010010000000000000000000000F0010000010388300520170922000101 00000000000000000000000000000000000000000000000000000000000000000000000000000000000000000000000000000000000000000N 00000000000NCONT   00    00000000000          00000000000000000000000000000000000000000000 000000000000000A000000000000000000000000000000000000000000000 000000000000000000000000000000000000000     00000000                                                                                                                        000000000000000000
F0010000010388400001000090087617400013050500000000000000000201709220002001MASTERGLASS PREMIUM GROUP SAS                     D000000060325300000000000000000000100010010000000000000000000000F0010000010388400120170922000101 00000000000000000000000000000000000000000000000000000000000000000000000000000000000000000000000000000000000000000N 00000000000NCONT   00    00000000000          00000000000000000000000000000000000000000000 000000000000000A000000000000000000000000000000000000000000000 000000000000000000000000000000000000000     00000000                                                                                                                        000000000000000000
F0010000010388400002000090087617400041450500000000000000000201709220002001MASTERGLASS PREMIUM GROUP SAS                     C000000051270000000000000000000000100010010000000000000000000000F0010000010388400220170922000101 00000000000000000000000000000000000000000000000000000000000000000000000000000000000000000000000000000000000000000N 00000000000NCONT   00    00000000000          00000000000000000000000000000000000000000000 000000000000000A000000000000000000000000000000000000000000000 000000000000000000000000000000000000000     00000000                                                                                                                        000000000000000000
F0010000010388400003000090087617400042505000000000000000000201709220002001MASTERGLASS PREMIUM GROUP SAS                     C000000009055300000000000000000000100010010000000000000000000000F0010000010388400320170922000101 00000000000000000000000000000000000000000000000000000000000000000000000000000000000000000000000000000000000000000N 00000000000NCONT   00    00000000000          00000000000000000000000000000000000000000000 000000000000000A000000000000000000000000000000000000000000000 000000000000000000000000000000000000000     00000000                                                                                                                        000000000000000000
F0010000010388400004000090087617400023658300000000000000000201709220002001MASTERGLASS PREMIUM GROUP SAS                     C000000000000000000000000000000000100010010000000000000000000000F0010000010388400420170922000101 00000000000000000000000000000000000000000000000000000000000000000000000000000000000000000000000000000000000000000N 00000000000NCONT   00    00000000000          00000000000000000000000000000000000000000000 000000000000000A000000000000000000000000000000000000000000000 000000000000000000000000000000000000000     00000000                                                                                                                        000000000000000000
F0010000010388400005000090087617400013552100000000000000000201709220002001MASTERGLASS PREMIUM GROUP SAS                     D000000000000000000000000000000000100010010000000000000000000000F0010000010388400520170922000101 00000000000000000000000000000000000000000000000000000000000000000000000000000000000000000000000000000000000000000N 00000000000NCONT   00    00000000000          00000000000000000000000000000000000000000000 000000000000000A000000000000000000000000000000000000000000000 000000000000000000000000000000000000000     00000000                                                                                                                        000000000000000000
F0010000010388500001000090087846000013050500000000000000000201709220002001INTERCOMERCIAL SAS                                D000000010900000000000000000000000100010010000000000000000000000F0010000010388500120170922000101 00000000000000000000000000000000000000000000000000000000000000000000000000000000000000000000000000000000000000000N 00000000000NCONT   00    00000000000          00000000000000000000000000000000000000000000 000000000000000A000000000000000000000000000000000000000000000 000000000000000000000000000000000000000     00000000                                                                                                                        000000000000000000
F0010000010388500002000090087846000041450500000000000000000201709220002001INTERCOMERCIAL SAS                                C000000010800000000000000000000000100010010000000000000000000000F0010000010388500220170922000101 00000000000000000000000000000000000000000000000000000000000000000000000000000000000000000000000000000000000000000N 00000000000NCONT   00    00000000000          00000000000000000000000000000000000000000000 000000000000000A000000000000000000000000000000000000000000000 000000000000000000000000000000000000000     00000000                                                                                                                        000000000000000000
F0010000010388500003000090087846000042505000000000000000000201709220002001INTERCOMERCIAL SAS                                C000000000100000000000000000000000100010010000000000000000000000F0010000010388500320170922000101 00000000000000000000000000000000000000000000000000000000000000000000000000000000000000000000000000000000000000000N 00000000000NCONT   00    00000000000          00000000000000000000000000000000000000000000 000000000000000A000000000000000000000000000000000000000000000 000000000000000000000000000000000000000     00000000                                                                                                                        000000000000000000
F0010000010388500004000090087846000023658300000000000000000201709220002001INTERCOMERCIAL SAS                                C000000000000000000000000000000000100010010000000000000000000000F0010000010388500420170922000101 00000000000000000000000000000000000000000000000000000000000000000000000000000000000000000000000000000000000000000N 00000000000NCONT   00    00000000000          00000000000000000000000000000000000000000000 000000000000000A000000000000000000000000000000000000000000000 000000000000000000000000000000000000000     00000000                                                                                                                        000000000000000000
F0010000010388500005000090087846000013552100000000000000000201709220002001INTERCOMERCIAL SAS                                D000000000000000000000000000000000100010010000000000000000000000F0010000010388500520170922000101 00000000000000000000000000000000000000000000000000000000000000000000000000000000000000000000000000000000000000000N 00000000000NCONT   00    00000000000          00000000000000000000000000000000000000000000 000000000000000A000000000000000000000000000000000000000000000 000000000000000000000000000000000000000     00000000                                                                                                                        000000000000000000
F0010000010388600001000090050863700013050500000000000000000201709220002001COMERCIALIZADORA PERFECT SAS                      D000000025830000000000000000000000100010010000000000000000000000F0010000010388600120170922000101 00000000000000000000000000000000000000000000000000000000000000000000000000000000000000000000000000000000000000000N 00000000000NCONT   00    00000000000          00000000000000000000000000000000000000000000 000000000000000A000000000000000000000000000000000000000000000 000000000000000000000000000000000000000     00000000                                                                                                                        000000000000000000
F0010000010388600002000090050863700041450500000000000000000201709220002001COMERCIALIZADORA PERFECT SAS                      C000000021380000000000000000000000100010010000000000000000000000F0010000010388600220170922000101 00000000000000000000000000000000000000000000000000000000000000000000000000000000000000000000000000000000000000000N 00000000000NCONT   00    00000000000          00000000000000000000000000000000000000000000 000000000000000A000000000000000000000000000000000000000000000 000000000000000000000000000000000000000     00000000                                                                                                                        000000000000000000
F0010000010388600003000090050863700042505000000000000000000201709220002001COMERCIALIZADORA PERFECT SAS                      C000000004450000000000000000000000100010010000000000000000000000F0010000010388600320170922000101 00000000000000000000000000000000000000000000000000000000000000000000000000000000000000000000000000000000000000000N 00000000000NCONT   00    00000000000          00000000000000000000000000000000000000000000 000000000000000A000000000000000000000000000000000000000000000 000000000000000000000000000000000000000     00000000                                                                                                                        000000000000000000
F0010000010388600004000090050863700023658300000000000000000201709220002001COMERCIALIZADORA PERFECT SAS                      C000000000000000000000000000000000100010010000000000000000000000F0010000010388600420170922000101 00000000000000000000000000000000000000000000000000000000000000000000000000000000000000000000000000000000000000000N 00000000000NCONT   00    00000000000          00000000000000000000000000000000000000000000 000000000000000A000000000000000000000000000000000000000000000 000000000000000000000000000000000000000     00000000                                                                                                                        000000000000000000
F0010000010388600005000090050863700013552100000000000000000201709220002001COMERCIALIZADORA PERFECT SAS                      D000000000000000000000000000000000100010010000000000000000000000F0010000010388600520170922000101 00000000000000000000000000000000000000000000000000000000000000000000000000000000000000000000000000000000000000000N 00000000000NCONT   00    00000000000          00000000000000000000000000000000000000000000 000000000000000A000000000000000000000000000000000000000000000 000000000000000000000000000000000000000     00000000                                                                                                                        000000000000000000
F0010000010388700001000090001973700013050500000000000000000201709220002001DISTRIBUIDORA Y PAPELERIA VENEPLAS LTDA           D000000009150000000000000000000000100010010000000000000000000000F0010000010388700120170922000101 00000000000000000000000000000000000000000000000000000000000000000000000000000000000000000000000000000000000000000N 00000000000NCONT   00    00000000000          00000000000000000000000000000000000000000000 000000000000000A000000000000000000000000000000000000000000000 000000000000000000000000000000000000000     00000000                                                                                                                        000000000000000000
F0010000010388700002000090001973700041450500000000000000000201709220002001DISTRIBUIDORA Y PAPELERIA VENEPLAS LTDA           C000000009000000000000000000000000100010010000000000000000000000F0010000010388700220170922000101 00000000000000000000000000000000000000000000000000000000000000000000000000000000000000000000000000000000000000000N 00000000000NCONT   00    00000000000          00000000000000000000000000000000000000000000 000000000000000A000000000000000000000000000000000000000000000 000000000000000000000000000000000000000     00000000                                                                                                                        000000000000000000
F0010000010388700003000090001973700042505000000000000000000201709220002001DISTRIBUIDORA Y PAPELERIA VENEPLAS LTDA           C000000000150000000000000000000000100010010000000000000000000000F0010000010388700320170922000101 00000000000000000000000000000000000000000000000000000000000000000000000000000000000000000000000000000000000000000N 00000000000NCONT   00    00000000000          00000000000000000000000000000000000000000000 000000000000000A000000000000000000000000000000000000000000000 000000000000000000000000000000000000000     00000000                                                                                                                        000000000000000000
F0010000010388700004000090001973700023658300000000000000000201709220002001DISTRIBUIDORA Y PAPELERIA VENEPLAS LTDA           C000000000000000000000000000000000100010010000000000000000000000F0010000010388700420170922000101 00000000000000000000000000000000000000000000000000000000000000000000000000000000000000000000000000000000000000000N 00000000000NCONT   00    00000000000          00000000000000000000000000000000000000000000 000000000000000A000000000000000000000000000000000000000000000 000000000000000000000000000000000000000     00000000                                                                                                                        000000000000000000
F0010000010388700005000090001973700013552100000000000000000201709220002001DISTRIBUIDORA Y PAPELERIA VENEPLAS LTDA           D000000000000000000000000000000000100010010000000000000000000000F0010000010388700520170922000101 00000000000000000000000000000000000000000000000000000000000000000000000000000000000000000000000000000000000000000N 00000000000NCONT   00    00000000000          00000000000000000000000000000000000000000000 000000000000000A000000000000000000000000000000000000000000000 000000000000000000000000000000000000000     00000000                                                                                                                        000000000000000000
F0010000010388800001000090106344000013050500000000000000000201709220002001REPRESENTACIONES FERRELECTRICAS SAS (EDDIE CIRO)  D000000027921500000000000000000000100010010000000000000000000000F0010000010388800120170922000101 00000000000000000000000000000000000000000000000000000000000000000000000000000000000000000000000000000000000000000N 00000000000NCONT   00    00000000000          00000000000000000000000000000000000000000000 000000000000000A000000000000000000000000000000000000000000000 000000000000000000000000000000000000000     00000000                                                                                                                        000000000000000000
F0010000010388800002000090106344000041450500000000000000000201709220002001REPRESENTACIONES FERRELECTRICAS SAS (EDDIE CIRO)  C000000023160000000000000000000000100010010000000000000000000000F0010000010388800220170922000101 00000000000000000000000000000000000000000000000000000000000000000000000000000000000000000000000000000000000000000N 00000000000NCONT   00    00000000000          00000000000000000000000000000000000000000000 000000000000000A000000000000000000000000000000000000000000000 000000000000000000000000000000000000000     00000000                                                                                                                        000000000000000000
