F0010000007293700001000083011391400011050500000000000000000201506300002001INSTITUCIONAL STAR SERVICES LTDA                  D000000001060000000000000000000000100010010000000000000000000000F0010000007293700120150630000101 00000000000000000000000000000000000000000000000000000000000000000000000000000000000000000000000000000000000000000N 00000000000NCONT   00    00000000000          00000000000000000000000000000000000000000000 000000000000000A000000000000000000000000000000000000000000000 000000000000000000000000000000000000000     00000000                                                                                                                        000000000000000000
F0010000007293700002000083011391400041450500000000000000000201506300002001INSTITUCIONAL STAR SERVICES LTDA                  C000000000960000000000000000000000100010010000000000000000000000F0010000007293700220150630000101 00000000000000000000000000000000000000000000000000000000000000000000000000000000000000000000000000000000000000000N 00000000000NCONT   00    00000000000          00000000000000000000000000000000000000000000 000000000000000A000000000000000000000000000000000000000000000 000000000000000000000000000000000000000     00000000                                                                                                                        000000000000000000
F0010000007293700003000083011391400042505000000000000000000201506300002001INSTITUCIONAL STAR SERVICES LTDA                  C000000000100000000000000000000000100010010000000000000000000000F0010000007293700320150630000101 00000000000000000000000000000000000000000000000000000000000000000000000000000000000000000000000000000000000000000N 00000000000NCONT   00    00000000000          00000000000000000000000000000000000000000000 000000000000000A000000000000000000000000000000000000000000000 000000000000000000000000000000000000000     00000000                                                                                                                        000000000000000000
F0010000007293700004000083011391400023658300000000000000000201506300002001INSTITUCIONAL STAR SERVICES LTDA                  C000000000007700000000000000000000100010010000000000000000000000F0010000007293700420150630000101 00000000000000000000000000000000000000000000000000000000000000000000000000000000000000000000000000000000000000000N 00000000000NCONT   00    00000000000          00000000000000000000000000000000000000000000 000000000000000A000000000000000000000000000000000000000000000 000000000000000000000000000000000000000     00000000                                                                                                                        000000000000000000
F0010000007293700005000083011391400013552100000000000000000201506300002001INSTITUCIONAL STAR SERVICES LTDA                  D000000000007700000000000000000000100010010000000000000000000000F0010000007293700520150630000101 00000000000000000000000000000000000000000000000000000000000000000000000000000000000000000000000000000000000000000N 00000000000NCONT   00    00000000000          00000000000000000000000000000000000000000000 000000000000000A000000000000000000000000000000000000000000000 000000000000000000000000000000000000000     00000000                                                                                                                        000000000000000000
F0010000007293800001000007226006600011050500000000000000000201506300002001MIGUEL BARROS PAYARES                             D000000002000000000000000000000000100010010000000000000000000000F0010000007293800120150630000101 00000000000000000000000000000000000000000000000000000000000000000000000000000000000000000000000000000000000000000N 00000000000NCONT   00    00000000000          00000000000000000000000000000000000000000000 000000000000000A000000000000000000000000000000000000000000000 000000000000000000000000000000000000000     00000000                                                                                                                        000000000000000000
F0010000007293800002000007226006600041450500000000000000000201506300002001MIGUEL BARROS PAYARES                             C000000001800000000000000000000000100010010000000000000000000000F0010000007293800220150630000101 00000000000000000000000000000000000000000000000000000000000000000000000000000000000000000000000000000000000000000N 00000000000NCONT   00    00000000000          00000000000000000000000000000000000000000000 000000000000000A000000000000000000000000000000000000000000000 000000000000000000000000000000000000000     00000000                                                                                                                        000000000000000000
F0010000007293800003000007226006600042505000000000000000000201506300002001MIGUEL BARROS PAYARES                             C000000000200000000000000000000000100010010000000000000000000000F0010000007293800320150630000101 00000000000000000000000000000000000000000000000000000000000000000000000000000000000000000000000000000000000000000N 00000000000NCONT   00    00000000000          00000000000000000000000000000000000000000000 000000000000000A000000000000000000000000000000000000000000000 000000000000000000000000000000000000000     00000000                                                                                                                        000000000000000000
F0010000007293800004000007226006600023658300000000000000000201506300002001MIGUEL BARROS PAYARES                             C000000000014400000000000000000000100010010000000000000000000000F0010000007293800420150630000101 00000000000000000000000000000000000000000000000000000000000000000000000000000000000000000000000000000000000000000N 00000000000NCONT   00    00000000000          00000000000000000000000000000000000000000000 000000000000000A000000000000000000000000000000000000000000000 000000000000000000000000000000000000000     00000000                                                                                                                        000000000000000000
F0010000007293800005000007226006600013552100000000000000000201506300002001MIGUEL BARROS PAYARES                             D000000000014400000000000000000000100010010000000000000000000000F0010000007293800520150630000101 00000000000000000000000000000000000000000000000000000000000000000000000000000000000000000000000000000000000000000N 00000000000NCONT   00    00000000000          00000000000000000000000000000000000000000000 000000000000000A000000000000000000000000000000000000000000000 000000000000000000000000000000000000000     00000000                                                                                                                        000000000000000000
F0010000007293900001000005741467000011050500000000000000000201506300002001GLENIA EGEA ..                                    D000000006000000000000000000000000100010010000000000000000000000F0010000007293900120150630000101 00000000000000000000000000000000000000000000000000000000000000000000000000000000000000000000000000000000000000000N 00000000000NCONT   00    00000000000          00000000000000000000000000000000000000000000 000000000000000A000000000000000000000000000000000000000000000 000000000000000000000000000000000000000     00000000                                                                                                                        000000000000000000
F0010000007293900002000005741467000041450500000000000000000201506300002001GLENIA EGEA ..                                    C000000005500000000000000000000000100010010000000000000000000000F0010000007293900220150630000101 00000000000000000000000000000000000000000000000000000000000000000000000000000000000000000000000000000000000000000N 00000000000NCONT   00    00000000000          00000000000000000000000000000000000000000000 000000000000000A000000000000000000000000000000000000000000000 000000000000000000000000000000000000000     00000000                                                                                                                        000000000000000000
F0010000007293900003000005741467000042505000000000000000000201506300002001GLENIA EGEA ..                                    C000000000500000000000000000000000100010010000000000000000000000F0010000007293900320150630000101 00000000000000000000000000000000000000000000000000000000000000000000000000000000000000000000000000000000000000000N 00000000000NCONT   00    00000000000          00000000000000000000000000000000000000000000 000000000000000A000000000000000000000000000000000000000000000 000000000000000000000000000000000000000     00000000                                                                                                                        000000000000000000
F0010000007293900004000005741467000023658300000000000000000201506300002001GLENIA EGEA ..                                    C000000000044000000000000000000000100010010000000000000000000000F0010000007293900420150630000101 00000000000000000000000000000000000000000000000000000000000000000000000000000000000000000000000000000000000000000N 00000000000NCONT   00    00000000000          00000000000000000000000000000000000000000000 000000000000000A000000000000000000000000000000000000000000000 000000000000000000000000000000000000000     00000000                                                                                                                        000000000000000000
F0010000007293900005000005741467000013552100000000000000000201506300002001GLENIA EGEA ..                                    D000000000044000000000000000000000100010010000000000000000000000F0010000007293900520150630000101 00000000000000000000000000000000000000000000000000000000000000000000000000000000000000000000000000000000000000000N 00000000000NCONT   00    00000000000          00000000000000000000000000000000000000000000 000000000000000A000000000000000000000000000000000000000000000 000000000000000000000000000000000000000     00000000                                                                                                                        000000000000000000
F0010000007294000001000000000000000011050500000000000000000201506300002001SURTITIENDAS GALVAN SAS                           D000000001500000000000000000000000100010010000000000000000000000F0010000007294000120150630000101 00000000000000000000000000000000000000000000000000000000000000000000000000000000000000000000000000000000000000000N 00000000000NCONT   00    00000000000          00000000000000000000000000000000000000000000 000000000000000A000000000000000000000000000000000000000000000 000000000000000000000000000000000000000     00000000                                                                                                                        000000000000000000
F0010000007294000002000000000000000041450500000000000000000201506300002001SURTITIENDAS GALVAN SAS                           C000000001250000000000000000000000100010010000000000000000000000F0010000007294000220150630000101 00000000000000000000000000000000000000000000000000000000000000000000000000000000000000000000000000000000000000000N 00000000000NCONT   00    00000000000          00000000000000000000000000000000000000000000 000000000000000A000000000000000000000000000000000000000000000 000000000000000000000000000000000000000     00000000                                                                                                                        000000000000000000
F0010000007294000003000000000000000042505000000000000000000201506300002001SURTITIENDAS GALVAN SAS                           C000000000250000000000000000000000100010010000000000000000000000F0010000007294000320150630000101 00000000000000000000000000000000000000000000000000000000000000000000000000000000000000000000000000000000000000000N 00000000000NCONT   00    00000000000          00000000000000000000000000000000000000000000 000000000000000A000000000000000000000000000000000000000000000 000000000000000000000000000000000000000     00000000                                                                                                                        000000000000000000
F0010000007294000004000000000000000023658300000000000000000201506300002001SURTITIENDAS GALVAN SAS                           C000000000010000000000000000000000100010010000000000000000000000F0010000007294000420150630000101 00000000000000000000000000000000000000000000000000000000000000000000000000000000000000000000000000000000000000000N 00000000000NCONT   00    00000000000          00000000000000000000000000000000000000000000 000000000000000A000000000000000000000000000000000000000000000 000000000000000000000000000000000000000     00000000                                                                                                                        000000000000000000
F0010000007294000005000000000000000013552100000000000000000201506300002001SURTITIENDAS GALVAN SAS                           D000000000010000000000000000000000100010010000000000000000000000F0010000007294000520150630000101 00000000000000000000000000000000000000000000000000000000000000000000000000000000000000000000000000000000000000000N 00000000000NCONT   00    00000000000          00000000000000000000000000000000000000000000 000000000000000A000000000000000000000000000000000000000000000 000000000000000000000000000000000000000     00000000                                                                                                                        000000000000000000
F0010000007294100001000090027500500011050500000000000000000201506300002001MULTIALUMINIOS                                    D000000018000000000000000000000000100010010000000000000000000000F0010000007294100120150630000101 00000000000000000000000000000000000000000000000000000000000000000000000000000000000000000000000000000000000000000N 00000000000NCONT   00    00000000000          00000000000000000000000000000000000000000000 000000000000000A000000000000000000000000000000000000000000000 000000000000000000000000000000000000000     00000000                                                                                                                        000000000000000000
F0010000007294100002000090027500500041450500000000000000000201506300002001MULTIALUMINIOS                                    C000000015000000000000000000000000100010010000000000000000000000F0010000007294100220150630000101 00000000000000000000000000000000000000000000000000000000000000000000000000000000000000000000000000000000000000000N 00000000000NCONT   00    00000000000          00000000000000000000000000000000000000000000 000000000000000A000000000000000000000000000000000000000000000 000000000000000000000000000000000000000     00000000                                                                                                                        000000000000000000
F0010000007294100003000090027500500042505000000000000000000201506300002001MULTIALUMINIOS                                    C000000003000000000000000000000000100010010000000000000000000000F0010000007294100320150630000101 00000000000000000000000000000000000000000000000000000000000000000000000000000000000000000000000000000000000000000N 00000000000NCONT   00    00000000000          00000000000000000000000000000000000000000000 000000000000000A000000000000000000000000000000000000000000000 000000000000000000000000000000000000000     00000000                                                                                                                        000000000000000000
F0010000007294100004000090027500500023658300000000000000000201506300002001MULTIALUMINIOS                                    C000000000120000000000000000000000100010010000000000000000000000F0010000007294100420150630000101 00000000000000000000000000000000000000000000000000000000000000000000000000000000000000000000000000000000000000000N 00000000000NCONT   00    00000000000          00000000000000000000000000000000000000000000 000000000000000A000000000000000000000000000000000000000000000 000000000000000000000000000000000000000     00000000                                                                                                                        000000000000000000
F0010000007294100005000090027500500013552100000000000000000201506300002001MULTIALUMINIOS                                    D000000000120000000000000000000000100010010000000000000000000000F0010000007294100520150630000101 00000000000000000000000000000000000000000000000000000000000000000000000000000000000000000000000000000000000000000N 00000000000NCONT   00    00000000000          00000000000000000000000000000000000000000000 000000000000000A000000000000000000000000000000000000000000000 000000000000000000000000000000000000000     00000000                                                                                                                        000000000000000000
F0010000007294200001000090034602400011050500000000000000000201506300002001PRODUCTOS NACIONALES PARAFINICOS LA CUSTODIA S.A.SD000000001000000000000000000000000100010010000000000000000000000F0010000007294200120150630000101 00000000000000000000000000000000000000000000000000000000000000000000000000000000000000000000000000000000000000000N 00000000000NCONT   00    00000000000          00000000000000000000000000000000000000000000 000000000000000A000000000000000000000000000000000000000000000 000000000000000000000000000000000000000     00000000                                                                                                                        000000000000000000
F0010000007294200002000090034602400041450500000000000000000201506300002001PRODUCTOS NACIONALES PARAFINICOS LA CUSTODIA S.A.SC000000000900000000000000000000000100010010000000000000000000000F0010000007294200220150630000101 00000000000000000000000000000000000000000000000000000000000000000000000000000000000000000000000000000000000000000N 00000000000NCONT   00    00000000000          00000000000000000000000000000000000000000000 000000000000000A000000000000000000000000000000000000000000000 000000000000000000000000000000000000000     00000000                                                                                                                        000000000000000000
F0010000007294200003000090034602400042505000000000000000000201506300002001PRODUCTOS NACIONALES PARAFINICOS LA CUSTODIA S.A.SC000000000100000000000000000000000100010010000000000000000000000F0010000007294200320150630000101 00000000000000000000000000000000000000000000000000000000000000000000000000000000000000000000000000000000000000000N 00000000000NCONT   00    00000000000          00000000000000000000000000000000000000000000 000000000000000A000000000000000000000000000000000000000000000 000000000000000000000000000000000000000     00000000                                                                                                                        000000000000000000
F0010000007294200004000090034602400023658300000000000000000201506300002001PRODUCTOS NACIONALES PARAFINICOS LA CUSTODIA S.A.SC000000000007200000000000000000000100010010000000000000000000000F0010000007294200420150630000101 00000000000000000000000000000000000000000000000000000000000000000000000000000000000000000000000000000000000000000N 00000000000NCONT   00    00000000000          00000000000000000000000000000000000000000000 000000000000000A000000000000000000000000000000000000000000000 000000000000000000000000000000000000000     00000000                                                                                                                        000000000000000000
F0010000007294200005000090034602400013552100000000000000000201506300002001PRODUCTOS NACIONALES PARAFINICOS LA CUSTODIA S.A.SD000000000007200000000000000000000100010010000000000000000000000F0010000007294200520150630000101 00000000000000000000000000000000000000000000000000000000000000000000000000000000000000000000000000000000000000000N 00000000000NCONT   00    00000000000          00000000000000000000000000000000000000000000 000000000000000A000000000000000000000000000000000000000000000 000000000000000000000000000000000000000     00000000                                                                                                                        000000000000000000
F0010000007294300001000090050144800011050500000000000000000201506300002001PLASTICOS JR ASOCIADOS SAS                        D000000004000000000000000000000000100010010000000000000000000000F0010000007294300120150630000101 00000000000000000000000000000000000000000000000000000000000000000000000000000000000000000000000000000000000000000N 00000000000NCONT   00    00000000000          00000000000000000000000000000000000000000000 000000000000000A000000000000000000000000000000000000000000000 000000000000000000000000000000000000000     00000000                                                                                                                        000000000000000000
F0010000007294300002000090050144800041450500000000000000000201506300002001PLASTICOS JR ASOCIADOS SAS                        C000000003400000000000000000000000100010010000000000000000000000F0010000007294300220150630000101 00000000000000000000000000000000000000000000000000000000000000000000000000000000000000000000000000000000000000000N 00000000000NCONT   00    00000000000          00000000000000000000000000000000000000000000 000000000000000A000000000000000000000000000000000000000000000 000000000000000000000000000000000000000     00000000                                                                                                                        000000000000000000
F0010000007294300003000090050144800042505000000000000000000201506300002001PLASTICOS JR ASOCIADOS SAS                        C000000000600000000000000000000000100010010000000000000000000000F0010000007294300320150630000101 00000000000000000000000000000000000000000000000000000000000000000000000000000000000000000000000000000000000000000N 00000000000NCONT   00    00000000000          00000000000000000000000000000000000000000000 000000000000000A000000000000000000000000000000000000000000000 000000000000000000000000000000000000000     00000000                                                                                                                        000000000000000000
F0010000007294300004000090050144800023658300000000000000000201506300002001PLASTICOS JR ASOCIADOS SAS                        C000000000027200000000000000000000100010010000000000000000000000F0010000007294300420150630000101 00000000000000000000000000000000000000000000000000000000000000000000000000000000000000000000000000000000000000000N 00000000000NCONT   00    00000000000          00000000000000000000000000000000000000000000 000000000000000A000000000000000000000000000000000000000000000 000000000000000000000000000000000000000     00000000                                                                                                                        000000000000000000
F0010000007294300005000090050144800013552100000000000000000201506300002001PLASTICOS JR ASOCIADOS SAS                        D000000000027200000000000000000000100010010000000000000000000000F0010000007294300520150630000101 00000000000000000000000000000000000000000000000000000000000000000000000000000000000000000000000000000000000000000N 00000000000NCONT   00    00000000000          00000000000000000000000000000000000000000000 000000000000000A000000000000000000000000000000000000000000000 000000000000000000000000000000000000000     00000000                                                                                                                        000000000000000000
F0010000007294400001000090050144800011050500000000000000000201506300002001PLASTICOS JR ASOCIADOS SAS                        D000000007800000000000000000000000100010010000000000000000000000F0010000007294400120150630000101 00000000000000000000000000000000000000000000000000000000000000000000000000000000000000000000000000000000000000000N 00000000000NCONT   00    00000000000          00000000000000000000000000000000000000000000 000000000000000A000000000000000000000000000000000000000000000 000000000000000000000000000000000000000     00000000                                                                                                                        000000000000000000
F0010000007294400002000090050144800041450500000000000000000201506300002001PLASTICOS JR ASOCIADOS SAS                        C000000006800000000000000000000000100010010000000000000000000000F0010000007294400220150630000101 00000000000000000000000000000000000000000000000000000000000000000000000000000000000000000000000000000000000000000N 00000000000NCONT   00    00000000000          00000000000000000000000000000000000000000000 000000000000000A000000000000000000000000000000000000000000000 000000000000000000000000000000000000000     00000000                                                                                                                        000000000000000000
F0010000007294400003000090050144800042505000000000000000000201506300002001PLASTICOS JR ASOCIADOS SAS                        C000000001000000000000000000000000100010010000000000000000000000F0010000007294400320150630000101 00000000000000000000000000000000000000000000000000000000000000000000000000000000000000000000000000000000000000000N 00000000000NCONT   00    00000000000          00000000000000000000000000000000000000000000 000000000000000A000000000000000000000000000000000000000000000 000000000000000000000000000000000000000     00000000                                                                                                                        000000000000000000
F0010000007294400004000090050144800023658300000000000000000201506300002001PLASTICOS JR ASOCIADOS SAS                        C000000000054400000000000000000000100010010000000000000000000000F0010000007294400420150630000101 00000000000000000000000000000000000000000000000000000000000000000000000000000000000000000000000000000000000000000N 00000000000NCONT   00    00000000000          00000000000000000000000000000000000000000000 000000000000000A000000000000000000000000000000000000000000000 000000000000000000000000000000000000000     00000000                                                                                                                        000000000000000000
F0010000007294400005000090050144800013552100000000000000000201506300002001PLASTICOS JR ASOCIADOS SAS                        D000000000054400000000000000000000100010010000000000000000000000F0010000007294400520150630000101 00000000000000000000000000000000000000000000000000000000000000000000000000000000000000000000000000000000000000000N 00000000000NCONT   00    00000000000          00000000000000000000000000000000000000000000 000000000000000A000000000000000000000000000000000000000000000 000000000000000000000000000000000000000     00000000                                                                                                                        000000000000000000
F0010000007294500001000090020872300011050500000000000000000201506300002001INTERSOLES SAS                                    D000000001000000000000000000000000100010010000000000000000000000F0010000007294500120150630000101 00000000000000000000000000000000000000000000000000000000000000000000000000000000000000000000000000000000000000000N 00000000000NCONT   00    00000000000          00000000000000000000000000000000000000000000 000000000000000A000000000000000000000000000000000000000000000 000000000000000000000000000000000000000     00000000                                                                                                                        000000000000000000
F0010000007294500002000090020872300041450500000000000000000201506300002001INTERSOLES SAS                                    C000000000900000000000000000000000100010010000000000000000000000F0010000007294500220150630000101 00000000000000000000000000000000000000000000000000000000000000000000000000000000000000000000000000000000000000000N 00000000000NCONT   00    00000000000          00000000000000000000000000000000000000000000 000000000000000A000000000000000000000000000000000000000000000 000000000000000000000000000000000000000     00000000                                                                                                                        000000000000000000
F0010000007294500003000090020872300042505000000000000000000201506300002001INTERSOLES SAS                                    C000000000100000000000000000000000100010010000000000000000000000F0010000007294500320150630000101 00000000000000000000000000000000000000000000000000000000000000000000000000000000000000000000000000000000000000000N 00000000000NCONT   00    00000000000          00000000000000000000000000000000000000000000 000000000000000A000000000000000000000000000000000000000000000 000000000000000000000000000000000000000     00000000                                                                                                                        000000000000000000
F0010000007294500004000090020872300023658300000000000000000201506300002001INTERSOLES SAS                                    C000000000007200000000000000000000100010010000000000000000000000F0010000007294500420150630000101 00000000000000000000000000000000000000000000000000000000000000000000000000000000000000000000000000000000000000000N 00000000000NCONT   00    00000000000          00000000000000000000000000000000000000000000 000000000000000A000000000000000000000000000000000000000000000 000000000000000000000000000000000000000     00000000                                                                                                                        000000000000000000
F0010000007294500005000090020872300013552100000000000000000201506300002001INTERSOLES SAS                                    D000000000007200000000000000000000100010010000000000000000000000F0010000007294500520150630000101 00000000000000000000000000000000000000000000000000000000000000000000000000000000000000000000000000000000000000000N 00000000000NCONT   00    00000000000          00000000000000000000000000000000000000000000 000000000000000A000000000000000000000000000000000000000000000 000000000000000000000000000000000000000     00000000                                                                                                                        000000000000000000
F0010000007294600001000000742399700011050500000000000000000201506300002001CACHARRERIA EL NUEVO CHADID                       D000000001000000000000000000000000100010010000000000000000000000F0010000007294600120150630000101 00000000000000000000000000000000000000000000000000000000000000000000000000000000000000000000000000000000000000000N 00000000000NCONT   00    00000000000          00000000000000000000000000000000000000000000 000000000000000A000000000000000000000000000000000000000000000 000000000000000000000000000000000000000     00000000                                                                                                                        000000000000000000
F0010000007294600002000000742399700041450500000000000000000201506300002001CACHARRERIA EL NUEVO CHADID                       C000000000800000000000000000000000100010010000000000000000000000F0010000007294600220150630000101 00000000000000000000000000000000000000000000000000000000000000000000000000000000000000000000000000000000000000000N 00000000000NCONT   00    00000000000          00000000000000000000000000000000000000000000 000000000000000A000000000000000000000000000000000000000000000 000000000000000000000000000000000000000     00000000                                                                                                                        000000000000000000
F0010000007294600003000000742399700042505000000000000000000201506300002001CACHARRERIA EL NUEVO CHADID                       C000000000200000000000000000000000100010010000000000000000000000F0010000007294600320150630000101 00000000000000000000000000000000000000000000000000000000000000000000000000000000000000000000000000000000000000000N 00000000000NCONT   00    00000000000          00000000000000000000000000000000000000000000 000000000000000A000000000000000000000000000000000000000000000 000000000000000000000000000000000000000     00000000                                                                                                                        000000000000000000
F0010000007294600004000000742399700023658300000000000000000201506300002001CACHARRERIA EL NUEVO CHADID                       C000000000006400000000000000000000100010010000000000000000000000F0010000007294600420150630000101 00000000000000000000000000000000000000000000000000000000000000000000000000000000000000000000000000000000000000000N 00000000000NCONT   00    00000000000          00000000000000000000000000000000000000000000 000000000000000A000000000000000000000000000000000000000000000 000000000000000000000000000000000000000     00000000                                                                                                                        000000000000000000
F0010000007294600005000000742399700013552100000000000000000201506300002001CACHARRERIA EL NUEVO CHADID                       D000000000006400000000000000000000100010010000000000000000000000F0010000007294600520150630000101 00000000000000000000000000000000000000000000000000000000000000000000000000000000000000000000000000000000000000000N 00000000000NCONT   00    00000000000          00000000000000000000000000000000000000000000 000000000000000A000000000000000000000000000000000000000000000 000000000000000000000000000000000000000     00000000                                                                                                                        000000000000000000
F0010000007294700001000089011078600011050500000000000000000201506300002001DIST. NUEVO MUNDO S.A.S.                          D000000002800000000000000000000000100010010000000000000000000000F0010000007294700120150630000101 00000000000000000000000000000000000000000000000000000000000000000000000000000000000000000000000000000000000000000N 00000000000NCONT   00    00000000000          00000000000000000000000000000000000000000000 000000000000000A000000000000000000000000000000000000000000000 000000000000000000000000000000000000000     00000000                                                                                                                        000000000000000000
F0010000007294700002000089011078600041450500000000000000000201506300002001DIST. NUEVO MUNDO S.A.S.                          C000000002400000000000000000000000100010010000000000000000000000F0010000007294700220150630000101 00000000000000000000000000000000000000000000000000000000000000000000000000000000000000000000000000000000000000000N 00000000000NCONT   00    00000000000          00000000000000000000000000000000000000000000 000000000000000A000000000000000000000000000000000000000000000 000000000000000000000000000000000000000     00000000                                                                                                                        000000000000000000
F0010000007294700003000089011078600042505000000000000000000201506300002001DIST. NUEVO MUNDO S.A.S.                          C000000000400000000000000000000000100010010000000000000000000000F0010000007294700320150630000101 00000000000000000000000000000000000000000000000000000000000000000000000000000000000000000000000000000000000000000N 00000000000NCONT   00    00000000000          00000000000000000000000000000000000000000000 000000000000000A000000000000000000000000000000000000000000000 000000000000000000000000000000000000000     00000000                                                                                                                        000000000000000000
F0010000007294700004000089011078600023658300000000000000000201506300002001DIST. NUEVO MUNDO S.A.S.                          C000000000019200000000000000000000100010010000000000000000000000F0010000007294700420150630000101 00000000000000000000000000000000000000000000000000000000000000000000000000000000000000000000000000000000000000000N 00000000000NCONT   00    00000000000          00000000000000000000000000000000000000000000 000000000000000A000000000000000000000000000000000000000000000 000000000000000000000000000000000000000     00000000                                                                                                                        000000000000000000
F0010000007294700005000089011078600013552100000000000000000201506300002001DIST. NUEVO MUNDO S.A.S.                          D000000000019200000000000000000000100010010000000000000000000000F0010000007294700520150630000101 00000000000000000000000000000000000000000000000000000000000000000000000000000000000000000000000000000000000000000N 00000000000NCONT   00    00000000000          00000000000000000000000000000000000000000000 000000000000000A000000000000000000000000000000000000000000000 000000000000000000000000000000000000000     00000000                                                                                                                        000000000000000000
F0010000007294800001000089011069100011050500000000000000000201506300002001LA CASA DE LAS ALFOMBRAS LTDA                     D000000002000000000000000000000000100010010000000000000000000000F0010000007294800120150630000101 00000000000000000000000000000000000000000000000000000000000000000000000000000000000000000000000000000000000000000N 00000000000NCONT   00    00000000000          00000000000000000000000000000000000000000000 000000000000000A000000000000000000000000000000000000000000000 000000000000000000000000000000000000000     00000000                                                                                                                        000000000000000000
F0010000007294800002000089011069100041450500000000000000000201506300002001LA CASA DE LAS ALFOMBRAS LTDA                     C000000001600000000000000000000000100010010000000000000000000000F0010000007294800220150630000101 00000000000000000000000000000000000000000000000000000000000000000000000000000000000000000000000000000000000000000N 00000000000NCONT   00    00000000000          00000000000000000000000000000000000000000000 000000000000000A000000000000000000000000000000000000000000000 000000000000000000000000000000000000000     00000000                                                                                                                        000000000000000000
F0010000007294800003000089011069100042505000000000000000000201506300002001LA CASA DE LAS ALFOMBRAS LTDA                     C000000000400000000000000000000000100010010000000000000000000000F0010000007294800320150630000101 00000000000000000000000000000000000000000000000000000000000000000000000000000000000000000000000000000000000000000N 00000000000NCONT   00    00000000000          00000000000000000000000000000000000000000000 000000000000000A000000000000000000000000000000000000000000000 000000000000000000000000000000000000000     00000000                                                                                                                        000000000000000000
F0010000007294800004000089011069100023658300000000000000000201506300002001LA CASA DE LAS ALFOMBRAS LTDA                     C000000000012800000000000000000000100010010000000000000000000000F0010000007294800420150630000101 00000000000000000000000000000000000000000000000000000000000000000000000000000000000000000000000000000000000000000N 00000000000NCONT   00    00000000000          00000000000000000000000000000000000000000000 000000000000000A000000000000000000000000000000000000000000000 000000000000000000000000000000000000000     00000000                                                                                                                        000000000000000000
F0010000007294800005000089011069100013552100000000000000000201506300002001LA CASA DE LAS ALFOMBRAS LTDA                     D000000000012800000000000000000000100010010000000000000000000000F0010000007294800520150630000101 00000000000000000000000000000000000000000000000000000000000000000000000000000000000000000000000000000000000000000N 00000000000NCONT   00    00000000000          00000000000000000000000000000000000000000000 000000000000000A000000000000000000000000000000000000000000000 000000000000000000000000000000000000000     00000000                                                                                                                        000000000000000000
F0010000007294900001000089011069100011050500000000000000000201506300002001LA CASA DE LAS ALFOMBRAS LTDA                     D000000002500000000000000000000000100010010000000000000000000000F0010000007294900120150630000101 00000000000000000000000000000000000000000000000000000000000000000000000000000000000000000000000000000000000000000N 00000000000NCONT   00    00000000000          00000000000000000000000000000000000000000000 000000000000000A000000000000000000000000000000000000000000000 000000000000000000000000000000000000000     00000000                                                                                                                        000000000000000000
F0010000007294900002000089011069100041450500000000000000000201506300002001LA CASA DE LAS ALFOMBRAS LTDA                     C000000001500000000000000000000000100010010000000000000000000000F0010000007294900220150630000101 00000000000000000000000000000000000000000000000000000000000000000000000000000000000000000000000000000000000000000N 00000000000NCONT   00    00000000000          00000000000000000000000000000000000000000000 000000000000000A000000000000000000000000000000000000000000000 000000000000000000000000000000000000000     00000000                                                                                                                        000000000000000000
F0010000007294900003000089011069100042505000000000000000000201506300002001LA CASA DE LAS ALFOMBRAS LTDA                     C000000001000000000000000000000000100010010000000000000000000000F0010000007294900320150630000101 00000000000000000000000000000000000000000000000000000000000000000000000000000000000000000000000000000000000000000N 00000000000NCONT   00    00000000000          00000000000000000000000000000000000000000000 000000000000000A000000000000000000000000000000000000000000000 000000000000000000000000000000000000000     00000000                                                                                                                        000000000000000000
F0010000007294900004000089011069100023658300000000000000000201506300002001LA CASA DE LAS ALFOMBRAS LTDA                     C000000000012000000000000000000000100010010000000000000000000000F0010000007294900420150630000101 00000000000000000000000000000000000000000000000000000000000000000000000000000000000000000000000000000000000000000N 00000000000NCONT   00    00000000000          00000000000000000000000000000000000000000000 000000000000000A000000000000000000000000000000000000000000000 000000000000000000000000000000000000000     00000000                                                                                                                        000000000000000000
F0010000007294900005000089011069100013552100000000000000000201506300002001LA CASA DE LAS ALFOMBRAS LTDA                     D000000000012000000000000000000000100010010000000000000000000000F0010000007294900520150630000101 00000000000000000000000000000000000000000000000000000000000000000000000000000000000000000000000000000000000000000N 00000000000NCONT   00    00000000000          00000000000000000000000000000000000000000000 000000000000000A000000000000000000000000000000000000000000000 000000000000000000000000000000000000000     00000000                                                                                                                        000000000000000000
F0010000007295000001000089010272700011050500000000000000000201506300002001ALFONSOEME S.A.                                   D000000000000000000000000000000000100010010000000000000000000000F0010000007295000120150630000101 00000000000000000000000000000000000000000000000000000000000000000000000000000000000000000000000000000000000000000N 00000000000NCONT   00    00000000000          00000000000000000000000000000000000000000000 000000000000000A000000000000000000000000000000000000000000000 000000000000000000000000000000000000000     00000000                                                                                                                        000000000000000000
F0010000007295000002000089010272700041450500000000000000000201506300002001ALFONSOEME S.A.                                   C000000000000000000000000000000000100010010000000000000000000000F0010000007295000220150630000101 00000000000000000000000000000000000000000000000000000000000000000000000000000000000000000000000000000000000000000N 00000000000NCONT   00    00000000000          00000000000000000000000000000000000000000000 000000000000000A000000000000000000000000000000000000000000000 000000000000000000000000000000000000000     00000000                                                                                                                        000000000000000000
F0010000007295000003000089010272700042505000000000000000000201506300002001ALFONSOEME S.A.                                   C000000000000000000000000000000000100010010000000000000000000000F0010000007295000320150630000101 00000000000000000000000000000000000000000000000000000000000000000000000000000000000000000000000000000000000000000N 00000000000NCONT   00    00000000000          00000000000000000000000000000000000000000000 000000000000000A000000000000000000000000000000000000000000000 000000000000000000000000000000000000000     00000000                                                                                                                        000000000000000000
F0010000007295000004000089010272700023658300000000000000000201506300002001ALFONSOEME S.A.                                   C000000000000000000000000000000000100010010000000000000000000000F0010000007295000420150630000101 00000000000000000000000000000000000000000000000000000000000000000000000000000000000000000000000000000000000000000N 00000000000NCONT   00    00000000000          00000000000000000000000000000000000000000000 000000000000000A000000000000000000000000000000000000000000000 000000000000000000000000000000000000000     00000000                                                                                                                        000000000000000000
F0010000007295000005000089010272700013552100000000000000000201506300002001ALFONSOEME S.A.                                   D000000000000000000000000000000000100010010000000000000000000000F0010000007295000520150630000101 00000000000000000000000000000000000000000000000000000000000000000000000000000000000000000000000000000000000000000N 00000000000NCONT   00    00000000000          00000000000000000000000000000000000000000000 000000000000000A000000000000000000000000000000000000000000000 000000000000000000000000000000000000000     00000000                                                                                                                        000000000000000000
F0010000007295100001000080201703900011050500000000000000000201506300002001MUNDIAL CHEMICAL LTDA                             D000000004000000000000000000000000100010010000000000000000000000F0010000007295100120150630000101 00000000000000000000000000000000000000000000000000000000000000000000000000000000000000000000000000000000000000000N 00000000000NCONT   00    00000000000          00000000000000000000000000000000000000000000 000000000000000A000000000000000000000000000000000000000000000 000000000000000000000000000000000000000     00000000                                                                                                                        000000000000000000
F0010000007295100002000080201703900041450500000000000000000201506300002001MUNDIAL CHEMICAL LTDA                             C000000003320000000000000000000000100010010000000000000000000000F0010000007295100220150630000101 00000000000000000000000000000000000000000000000000000000000000000000000000000000000000000000000000000000000000000N 00000000000NCONT   00    00000000000          00000000000000000000000000000000000000000000 000000000000000A000000000000000000000000000000000000000000000 000000000000000000000000000000000000000     00000000                                                                                                                        000000000000000000
F0010000007295100003000080201703900042505000000000000000000201506300002001MUNDIAL CHEMICAL LTDA                             C000000000680000000000000000000000100010010000000000000000000000F0010000007295100320150630000101 00000000000000000000000000000000000000000000000000000000000000000000000000000000000000000000000000000000000000000N 00000000000NCONT   00    00000000000          00000000000000000000000000000000000000000000 000000000000000A000000000000000000000000000000000000000000000 000000000000000000000000000000000000000     00000000                                                                                                                        000000000000000000
F0010000007295100004000080201703900023658300000000000000000201506300002001MUNDIAL CHEMICAL LTDA                             C000000000026600000000000000000000100010010000000000000000000000F0010000007295100420150630000101 00000000000000000000000000000000000000000000000000000000000000000000000000000000000000000000000000000000000000000N 00000000000NCONT   00    00000000000          00000000000000000000000000000000000000000000 000000000000000A000000000000000000000000000000000000000000000 000000000000000000000000000000000000000     00000000                                                                                                                        000000000000000000
F0010000007295100005000080201703900013552100000000000000000201506300002001MUNDIAL CHEMICAL LTDA                             D000000000026600000000000000000000100010010000000000000000000000F0010000007295100520150630000101 00000000000000000000000000000000000000000000000000000000000000000000000000000000000000000000000000000000000000000N 00000000000NCONT   00    00000000000          00000000000000000000000000000000000000000000 000000000000000A000000000000000000000000000000000000000000000 000000000000000000000000000000000000000     00000000                                                                                                                        000000000000000000
F0010000007295200001000080014190300011050500000000000000000201506300002001QUIMINSA LTDA                                     D000000001860000000000000000000000100010010000000000000000000000F0010000007295200120150630000101 00000000000000000000000000000000000000000000000000000000000000000000000000000000000000000000000000000000000000000N 00000000000NCONT   00    00000000000          00000000000000000000000000000000000000000000 000000000000000A000000000000000000000000000000000000000000000 000000000000000000000000000000000000000     00000000                                                                                                                        000000000000000000
F0010000007295200002000080014190300041450500000000000000000201506300002001QUIMINSA LTDA                                     C000000001660000000000000000000000100010010000000000000000000000F0010000007295200220150630000101 00000000000000000000000000000000000000000000000000000000000000000000000000000000000000000000000000000000000000000N 00000000000NCONT   00    00000000000          00000000000000000000000000000000000000000000 000000000000000A000000000000000000000000000000000000000000000 000000000000000000000000000000000000000     00000000                                                                                                                        000000000000000000
F0010000007295200003000080014190300042505000000000000000000201506300002001QUIMINSA LTDA                                     C000000000200000000000000000000000100010010000000000000000000000F0010000007295200320150630000101 00000000000000000000000000000000000000000000000000000000000000000000000000000000000000000000000000000000000000000N 00000000000NCONT   00    00000000000          00000000000000000000000000000000000000000000 000000000000000A000000000000000000000000000000000000000000000 000000000000000000000000000000000000000     00000000                                                                                                                        000000000000000000
F0010000007295200004000080014190300023658300000000000000000201506300002001QUIMINSA LTDA                                     C000000000013300000000000000000000100010010000000000000000000000F0010000007295200420150630000101 00000000000000000000000000000000000000000000000000000000000000000000000000000000000000000000000000000000000000000N 00000000000NCONT   00    00000000000          00000000000000000000000000000000000000000000 000000000000000A000000000000000000000000000000000000000000000 000000000000000000000000000000000000000     00000000                                                                                                                        000000000000000000
F0010000007295200005000080014190300013552100000000000000000201506300002001QUIMINSA LTDA                                     D000000000013300000000000000000000100010010000000000000000000000F0010000007295200520150630000101 00000000000000000000000000000000000000000000000000000000000000000000000000000000000000000000000000000000000000000N 00000000000NCONT   00    00000000000          00000000000000000000000000000000000000000000 000000000000000A000000000000000000000000000000000000000000000 000000000000000000000000000000000000000     00000000                                                                                                                        000000000000000000
F0010000007295300001000007223972300011050500000000000000000201506300002001LUIS VALENCIA                                     D000000003900000000000000000000000100010010000000000000000000000F0010000007295300120150630000101 00000000000000000000000000000000000000000000000000000000000000000000000000000000000000000000000000000000000000000N 00000000000NCONT   00    00000000000          00000000000000000000000000000000000000000000 000000000000000A000000000000000000000000000000000000000000000 000000000000000000000000000000000000000     00000000                                                                                                                        000000000000000000
F0010000007295300002000007223972300041450500000000000000000201506300002001LUIS VALENCIA                                     C000000003600000000000000000000000100010010000000000000000000000F0010000007295300220150630000101 00000000000000000000000000000000000000000000000000000000000000000000000000000000000000000000000000000000000000000N 00000000000NCONT   00    00000000000          00000000000000000000000000000000000000000000 000000000000000A000000000000000000000000000000000000000000000 000000000000000000000000000000000000000     00000000                                                                                                                        000000000000000000
F0010000007295300003000007223972300042505000000000000000000201506300002001LUIS VALENCIA                                     C000000000300000000000000000000000100010010000000000000000000000F0010000007295300320150630000101 00000000000000000000000000000000000000000000000000000000000000000000000000000000000000000000000000000000000000000N 00000000000NCONT   00    00000000000          00000000000000000000000000000000000000000000 000000000000000A000000000000000000000000000000000000000000000 000000000000000000000000000000000000000     00000000                                                                                                                        000000000000000000
F0010000007295300004000007223972300023658300000000000000000201506300002001LUIS VALENCIA                                     C000000000028800000000000000000000100010010000000000000000000000F0010000007295300420150630000101 00000000000000000000000000000000000000000000000000000000000000000000000000000000000000000000000000000000000000000N 00000000000NCONT   00    00000000000          00000000000000000000000000000000000000000000 000000000000000A000000000000000000000000000000000000000000000 000000000000000000000000000000000000000     00000000                                                                                                                        000000000000000000
F0010000007295300005000007223972300013552100000000000000000201506300002001LUIS VALENCIA                                     D000000000028800000000000000000000100010010000000000000000000000F0010000007295300520150630000101 00000000000000000000000000000000000000000000000000000000000000000000000000000000000000000000000000000000000000000N 00000000000NCONT   00    00000000000          00000000000000000000000000000000000000000000 000000000000000A000000000000000000000000000000000000000000000 000000000000000000000000000000000000000     00000000                                                                                                                        000000000000000000
F0010000007295400001000001719393900011050500000000000000000201506300002001JAIRO BASTIDAS RAMIREZ                            D000000002500000000000000000000000100010010000000000000000000000F0010000007295400120150630000101 00000000000000000000000000000000000000000000000000000000000000000000000000000000000000000000000000000000000000000N 00000000000NCONT   00    00000000000          00000000000000000000000000000000000000000000 000000000000000A000000000000000000000000000000000000000000000 000000000000000000000000000000000000000     00000000                                                                                                                        000000000000000000
F0010000007295400002000001719393900041450500000000000000000201506300002001JAIRO BASTIDAS RAMIREZ                            C000000002400000000000000000000000100010010000000000000000000000F0010000007295400220150630000101 00000000000000000000000000000000000000000000000000000000000000000000000000000000000000000000000000000000000000000N 00000000000NCONT   00    00000000000          00000000000000000000000000000000000000000000 000000000000000A000000000000000000000000000000000000000000000 000000000000000000000000000000000000000     00000000                                                                                                                        000000000000000000
F0010000007295400003000001719393900042505000000000000000000201506300002001JAIRO BASTIDAS RAMIREZ                            C000000000100000000000000000000000100010010000000000000000000000F0010000007295400320150630000101 00000000000000000000000000000000000000000000000000000000000000000000000000000000000000000000000000000000000000000N 00000000000NCONT   00    00000000000          00000000000000000000000000000000000000000000 000000000000000A000000000000000000000000000000000000000000000 000000000000000000000000000000000000000     00000000                                                                                                                        000000000000000000
F0010000007295400004000001719393900023658300000000000000000201506300002001JAIRO BASTIDAS RAMIREZ                            C000000000019200000000000000000000100010010000000000000000000000F0010000007295400420150630000101 00000000000000000000000000000000000000000000000000000000000000000000000000000000000000000000000000000000000000000N 00000000000NCONT   00    00000000000          00000000000000000000000000000000000000000000 000000000000000A000000000000000000000000000000000000000000000 000000000000000000000000000000000000000     00000000                                                                                                                        000000000000000000
F0010000007295400005000001719393900013552100000000000000000201506300002001JAIRO BASTIDAS RAMIREZ                            D000000000019200000000000000000000100010010000000000000000000000F0010000007295400520150630000101 00000000000000000000000000000000000000000000000000000000000000000000000000000000000000000000000000000000000000000N 00000000000NCONT   00    00000000000          00000000000000000000000000000000000000000000 000000000000000A000000000000000000000000000000000000000000000 000000000000000000000000000000000000000     00000000                                                                                                                        000000000000000000
F0010000007295500001000107252647100011050500000000000000000201506300002001JHON BYRON DUQUE DONADO (BODEGA JHONIFER)         D000000001100000000000000000000000100010010000000000000000000000F0010000007295500120150630000101 00000000000000000000000000000000000000000000000000000000000000000000000000000000000000000000000000000000000000000N 00000000000NCONT   00    00000000000          00000000000000000000000000000000000000000000 000000000000000A000000000000000000000000000000000000000000000 000000000000000000000000000000000000000     00000000                                                                                                                        000000000000000000
F0010000007295500002000107252647100041450500000000000000000201506300002001JHON BYRON DUQUE DONADO (BODEGA JHONIFER)         C000000000900000000000000000000000100010010000000000000000000000F0010000007295500220150630000101 00000000000000000000000000000000000000000000000000000000000000000000000000000000000000000000000000000000000000000N 00000000000NCONT   00    00000000000          00000000000000000000000000000000000000000000 000000000000000A000000000000000000000000000000000000000000000 000000000000000000000000000000000000000     00000000                                                                                                                        000000000000000000
F0010000007295500003000107252647100042505000000000000000000201506300002001JHON BYRON DUQUE DONADO (BODEGA JHONIFER)         C000000000200000000000000000000000100010010000000000000000000000F0010000007295500320150630000101 00000000000000000000000000000000000000000000000000000000000000000000000000000000000000000000000000000000000000000N 00000000000NCONT   00    00000000000          00000000000000000000000000000000000000000000 000000000000000A000000000000000000000000000000000000000000000 000000000000000000000000000000000000000     00000000                                                                                                                        000000000000000000
F0010000007295500004000107252647100023658300000000000000000201506300002001JHON BYRON DUQUE DONADO (BODEGA JHONIFER)         C000000000007200000000000000000000100010010000000000000000000000F0010000007295500420150630000101 00000000000000000000000000000000000000000000000000000000000000000000000000000000000000000000000000000000000000000N 00000000000NCONT   00    00000000000          00000000000000000000000000000000000000000000 000000000000000A000000000000000000000000000000000000000000000 000000000000000000000000000000000000000     00000000                                                                                                                        000000000000000000
F0010000007295500005000107252647100013552100000000000000000201506300002001JHON BYRON DUQUE DONADO (BODEGA JHONIFER)         D000000000007200000000000000000000100010010000000000000000000000F0010000007295500520150630000101 00000000000000000000000000000000000000000000000000000000000000000000000000000000000000000000000000000000000000000N 00000000000NCONT   00    00000000000          00000000000000000000000000000000000000000000 000000000000000A000000000000000000000000000000000000000000000 000000000000000000000000000000000000000     00000000                                                                                                                        000000000000000000
F0010000007295600001000107252647100011050500000000000000000201506300002001JHON BYRON DUQUE DONADO (BODEGA JHONIFER)         D000000001100000000000000000000000100010010000000000000000000000F0010000007295600120150630000101 00000000000000000000000000000000000000000000000000000000000000000000000000000000000000000000000000000000000000000N 00000000000NCONT   00    00000000000          00000000000000000000000000000000000000000000 000000000000000A000000000000000000000000000000000000000000000 000000000000000000000000000000000000000     00000000                                                                                                                        000000000000000000
F0010000007295600002000107252647100041450500000000000000000201506300002001JHON BYRON DUQUE DONADO (BODEGA JHONIFER)         C000000000900000000000000000000000100010010000000000000000000000F0010000007295600220150630000101 00000000000000000000000000000000000000000000000000000000000000000000000000000000000000000000000000000000000000000N 00000000000NCONT   00    00000000000          00000000000000000000000000000000000000000000 000000000000000A000000000000000000000000000000000000000000000 000000000000000000000000000000000000000     00000000                                                                                                                        000000000000000000
F0010000007295600003000107252647100042505000000000000000000201506300002001JHON BYRON DUQUE DONADO (BODEGA JHONIFER)         C000000000200000000000000000000000100010010000000000000000000000F0010000007295600320150630000101 00000000000000000000000000000000000000000000000000000000000000000000000000000000000000000000000000000000000000000N 00000000000NCONT   00    00000000000          00000000000000000000000000000000000000000000 000000000000000A000000000000000000000000000000000000000000000 000000000000000000000000000000000000000     00000000                                                                                                                        000000000000000000
F0010000007295600004000107252647100023658300000000000000000201506300002001JHON BYRON DUQUE DONADO (BODEGA JHONIFER)         C000000000007200000000000000000000100010010000000000000000000000F0010000007295600420150630000101 00000000000000000000000000000000000000000000000000000000000000000000000000000000000000000000000000000000000000000N 00000000000NCONT   00    00000000000          00000000000000000000000000000000000000000000 000000000000000A000000000000000000000000000000000000000000000 000000000000000000000000000000000000000     00000000                                                                                                                        000000000000000000
F0010000007295600005000107252647100013552100000000000000000201506300002001JHON BYRON DUQUE DONADO (BODEGA JHONIFER)         D000000000007200000000000000000000100010010000000000000000000000F0010000007295600520150630000101 00000000000000000000000000000000000000000000000000000000000000000000000000000000000000000000000000000000000000000N 00000000000NCONT   00    00000000000          00000000000000000000000000000000000000000000 000000000000000A000000000000000000000000000000000000000000000 000000000000000000000000000000000000000     00000000                                                                                                                        000000000000000000
F0010000007295700001000000431178400011050500000000000000000201506300002001EFRAIN ALVAREZ                                    D000000000910000000000000000000000100010010000000000000000000000F0010000007295700120150630000101 00000000000000000000000000000000000000000000000000000000000000000000000000000000000000000000000000000000000000000N 00000000000NCONT   00    00000000000          00000000000000000000000000000000000000000000 000000000000000A000000000000000000000000000000000000000000000 000000000000000000000000000000000000000     00000000                                                                                                                        000000000000000000
F0010000007295700002000000431178400041450500000000000000000201506300002001EFRAIN ALVAREZ                                    C000000000860000000000000000000000100010010000000000000000000000F0010000007295700220150630000101 00000000000000000000000000000000000000000000000000000000000000000000000000000000000000000000000000000000000000000N 00000000000NCONT   00    00000000000          00000000000000000000000000000000000000000000 000000000000000A000000000000000000000000000000000000000000000 000000000000000000000000000000000000000     00000000                                                                                                                        000000000000000000
F0010000007295700003000000431178400042505000000000000000000201506300002001EFRAIN ALVAREZ                                    C000000000050000000000000000000000100010010000000000000000000000F0010000007295700320150630000101 00000000000000000000000000000000000000000000000000000000000000000000000000000000000000000000000000000000000000000N 00000000000NCONT   00    00000000000          00000000000000000000000000000000000000000000 000000000000000A000000000000000000000000000000000000000000000 000000000000000000000000000000000000000     00000000                                                                                                                        000000000000000000
F0010000007295700004000000431178400023658300000000000000000201506300002001EFRAIN ALVAREZ                                    C000000000006900000000000000000000100010010000000000000000000000F0010000007295700420150630000101 00000000000000000000000000000000000000000000000000000000000000000000000000000000000000000000000000000000000000000N 00000000000NCONT   00    00000000000          00000000000000000000000000000000000000000000 000000000000000A000000000000000000000000000000000000000000000 000000000000000000000000000000000000000     00000000                                                                                                                        000000000000000000
F0010000007295700005000000431178400013552100000000000000000201506300002001EFRAIN ALVAREZ                                    D000000000006900000000000000000000100010010000000000000000000000F0010000007295700520150630000101 00000000000000000000000000000000000000000000000000000000000000000000000000000000000000000000000000000000000000000N 00000000000NCONT   00    00000000000          00000000000000000000000000000000000000000000 000000000000000A000000000000000000000000000000000000000000000 000000000000000000000000000000000000000     00000000                                                                                                                        000000000000000000
F0010000007295800001000000431178400011050500000000000000000201506300002001EFRAIN ALVAREZ                                    D000000001010000000000000000000000100010010000000000000000000000F0010000007295800120150630000101 00000000000000000000000000000000000000000000000000000000000000000000000000000000000000000000000000000000000000000N 00000000000NCONT   00    00000000000          00000000000000000000000000000000000000000000 000000000000000A000000000000000000000000000000000000000000000 000000000000000000000000000000000000000     00000000                                                                                                                        000000000000000000
F0010000007295800002000000431178400041450500000000000000000201506300002001EFRAIN ALVAREZ                                    C000000000860000000000000000000000100010010000000000000000000000F0010000007295800220150630000101 00000000000000000000000000000000000000000000000000000000000000000000000000000000000000000000000000000000000000000N 00000000000NCONT   00    00000000000          00000000000000000000000000000000000000000000 000000000000000A000000000000000000000000000000000000000000000 000000000000000000000000000000000000000     00000000                                                                                                                        000000000000000000
F0010000007295800003000000431178400042505000000000000000000201506300002001EFRAIN ALVAREZ                                    C000000000150000000000000000000000100010010000000000000000000000F0010000007295800320150630000101 00000000000000000000000000000000000000000000000000000000000000000000000000000000000000000000000000000000000000000N 00000000000NCONT   00    00000000000          00000000000000000000000000000000000000000000 000000000000000A000000000000000000000000000000000000000000000 000000000000000000000000000000000000000     00000000                                                                                                                        000000000000000000
F0010000007295800004000000431178400023658300000000000000000201506300002001EFRAIN ALVAREZ                                    C000000000006900000000000000000000100010010000000000000000000000F0010000007295800420150630000101 00000000000000000000000000000000000000000000000000000000000000000000000000000000000000000000000000000000000000000N 00000000000NCONT   00    00000000000          00000000000000000000000000000000000000000000 000000000000000A000000000000000000000000000000000000000000000 000000000000000000000000000000000000000     00000000                                                                                                                        000000000000000000
F0010000007295800005000000431178400013552100000000000000000201506300002001EFRAIN ALVAREZ                                    D000000000006900000000000000000000100010010000000000000000000000F0010000007295800520150630000101 00000000000000000000000000000000000000000000000000000000000000000000000000000000000000000000000000000000000000000N 00000000000NCONT   00    00000000000          00000000000000000000000000000000000000000000 000000000000000A000000000000000000000000000000000000000000000 000000000000000000000000000000000000000     00000000                                                                                                                        000000000000000000
F0010000007295900001000000431178400011050500000000000000000201506300002001EFRAIN ALVAREZ                                    D000000001560000000000000000000000100010010000000000000000000000F0010000007295900120150630000101 00000000000000000000000000000000000000000000000000000000000000000000000000000000000000000000000000000000000000000N 00000000000NCONT   00    00000000000          00000000000000000000000000000000000000000000 000000000000000A000000000000000000000000000000000000000000000 000000000000000000000000000000000000000     00000000                                                                                                                        000000000000000000
F0010000007295900002000000431178400041450500000000000000000201506300002001EFRAIN ALVAREZ                                    C000000001510000000000000000000000100010010000000000000000000000F0010000007295900220150630000101 00000000000000000000000000000000000000000000000000000000000000000000000000000000000000000000000000000000000000000N 00000000000NCONT   00    00000000000          00000000000000000000000000000000000000000000 000000000000000A000000000000000000000000000000000000000000000 000000000000000000000000000000000000000     00000000                                                                                                                        000000000000000000
F0010000007295900003000000431178400042505000000000000000000201506300002001EFRAIN ALVAREZ                                    C000000000050000000000000000000000100010010000000000000000000000F0010000007295900320150630000101 00000000000000000000000000000000000000000000000000000000000000000000000000000000000000000000000000000000000000000N 00000000000NCONT   00    00000000000          00000000000000000000000000000000000000000000 000000000000000A000000000000000000000000000000000000000000000 000000000000000000000000000000000000000     00000000                                                                                                                        000000000000000000
F0010000007295900004000000431178400023658300000000000000000201506300002001EFRAIN ALVAREZ                                    C000000000012100000000000000000000100010010000000000000000000000F0010000007295900420150630000101 00000000000000000000000000000000000000000000000000000000000000000000000000000000000000000000000000000000000000000N 00000000000NCONT   00    00000000000          00000000000000000000000000000000000000000000 000000000000000A000000000000000000000000000000000000000000000 000000000000000000000000000000000000000     00000000                                                                                                                        000000000000000000
F0010000007295900005000000431178400013552100000000000000000201506300002001EFRAIN ALVAREZ                                    D000000000012100000000000000000000100010010000000000000000000000F0010000007295900520150630000101 00000000000000000000000000000000000000000000000000000000000000000000000000000000000000000000000000000000000000000N 00000000000NCONT   00    00000000000          00000000000000000000000000000000000000000000 000000000000000A000000000000000000000000000000000000000000000 000000000000000000000000000000000000000     00000000                                                                                                                        000000000000000000
F0010000007296000001000000431178400011050500000000000000000201506300002001EFRAIN ALVAREZ                                    D000000008580000000000000000000000100010010000000000000000000000F0010000007296000120150630000101 00000000000000000000000000000000000000000000000000000000000000000000000000000000000000000000000000000000000000000N 00000000000NCONT   00    00000000000          00000000000000000000000000000000000000000000 000000000000000A000000000000000000000000000000000000000000000 000000000000000000000000000000000000000     00000000                                                                                                                        000000000000000000
F0010000007296000002000000431178400041450500000000000000000201506300002001EFRAIN ALVAREZ                                    C000000008330000000000000000000000100010010000000000000000000000F0010000007296000220150630000101 00000000000000000000000000000000000000000000000000000000000000000000000000000000000000000000000000000000000000000N 00000000000NCONT   00    00000000000          00000000000000000000000000000000000000000000 000000000000000A000000000000000000000000000000000000000000000 000000000000000000000000000000000000000     00000000                                                                                                                        000000000000000000
F0010000007296000003000000431178400042505000000000000000000201506300002001EFRAIN ALVAREZ                                    C000000000250000000000000000000000100010010000000000000000000000F0010000007296000320150630000101 00000000000000000000000000000000000000000000000000000000000000000000000000000000000000000000000000000000000000000N 00000000000NCONT   00    00000000000          00000000000000000000000000000000000000000000 000000000000000A000000000000000000000000000000000000000000000 000000000000000000000000000000000000000     00000000                                                                                                                        000000000000000000
F0010000007296000004000000431178400023658300000000000000000201506300002001EFRAIN ALVAREZ                                    C000000000066600000000000000000000100010010000000000000000000000F0010000007296000420150630000101 00000000000000000000000000000000000000000000000000000000000000000000000000000000000000000000000000000000000000000N 00000000000NCONT   00    00000000000          00000000000000000000000000000000000000000000 000000000000000A000000000000000000000000000000000000000000000 000000000000000000000000000000000000000     00000000                                                                                                                        000000000000000000
F0010000007296000005000000431178400013552100000000000000000201506300002001EFRAIN ALVAREZ                                    D000000000066600000000000000000000100010010000000000000000000000F0010000007296000520150630000101 00000000000000000000000000000000000000000000000000000000000000000000000000000000000000000000000000000000000000000N 00000000000NCONT   00    00000000000          00000000000000000000000000000000000000000000 000000000000000A000000000000000000000000000000000000000000000 000000000000000000000000000000000000000     00000000                                                                                                                        000000000000000000
F0010000007296100001000000431178400011050500000000000000000201506300002001EFRAIN ALVAREZ                                    D000000003145000000000000000000000100010010000000000000000000000F0010000007296100120150630000101 00000000000000000000000000000000000000000000000000000000000000000000000000000000000000000000000000000000000000000N 00000000000NCONT   00    00000000000          00000000000000000000000000000000000000000000 000000000000000A000000000000000000000000000000000000000000000 000000000000000000000000000000000000000     00000000                                                                                                                        000000000000000000
F0010000007296100002000000431178400041450500000000000000000201506300002001EFRAIN ALVAREZ                                    C000000003020000000000000000000000100010010000000000000000000000F0010000007296100220150630000101 00000000000000000000000000000000000000000000000000000000000000000000000000000000000000000000000000000000000000000N 00000000000NCONT   00    00000000000          00000000000000000000000000000000000000000000 000000000000000A000000000000000000000000000000000000000000000 000000000000000000000000000000000000000     00000000                                                                                                                        000000000000000000
F0010000007296100003000000431178400042505000000000000000000201506300002001EFRAIN ALVAREZ                                    C000000000125000000000000000000000100010010000000000000000000000F0010000007296100320150630000101 00000000000000000000000000000000000000000000000000000000000000000000000000000000000000000000000000000000000000000N 00000000000NCONT   00    00000000000          00000000000000000000000000000000000000000000 000000000000000A000000000000000000000000000000000000000000000 000000000000000000000000000000000000000     00000000                                                                                                                        000000000000000000
F0010000007296100004000000431178400023658300000000000000000201506300002001EFRAIN ALVAREZ                                    C000000000024200000000000000000000100010010000000000000000000000F0010000007296100420150630000101 00000000000000000000000000000000000000000000000000000000000000000000000000000000000000000000000000000000000000000N 00000000000NCONT   00    00000000000          00000000000000000000000000000000000000000000 000000000000000A000000000000000000000000000000000000000000000 000000000000000000000000000000000000000     00000000                                                                                                                        000000000000000000
F0010000007296100005000000431178400013552100000000000000000201506300002001EFRAIN ALVAREZ                                    D000000000024200000000000000000000100010010000000000000000000000F0010000007296100520150630000101 00000000000000000000000000000000000000000000000000000000000000000000000000000000000000000000000000000000000000000N 00000000000NCONT   00    00000000000          00000000000000000000000000000000000000000000 000000000000000A000000000000000000000000000000000000000000000 000000000000000000000000000000000000000     00000000                                                                                                                        000000000000000000
F0010000007296200001000000431178400011050500000000000000000201506300002001EFRAIN ALVAREZ                                    D000000001740000000000000000000000100010010000000000000000000000F0010000007296200120150630000101 00000000000000000000000000000000000000000000000000000000000000000000000000000000000000000000000000000000000000000N 00000000000NCONT   00    00000000000          00000000000000000000000000000000000000000000 000000000000000A000000000000000000000000000000000000000000000 000000000000000000000000000000000000000     00000000                                                                                                                        000000000000000000
F0010000007296200002000000431178400041450500000000000000000201506300002001EFRAIN ALVAREZ                                    C000000001640000000000000000000000100010010000000000000000000000F0010000007296200220150630000101 00000000000000000000000000000000000000000000000000000000000000000000000000000000000000000000000000000000000000000N 00000000000NCONT   00    00000000000          00000000000000000000000000000000000000000000 000000000000000A000000000000000000000000000000000000000000000 000000000000000000000000000000000000000     00000000                                                                                                                        000000000000000000
F0010000007296200003000000431178400042505000000000000000000201506300002001EFRAIN ALVAREZ                                    C000000000100000000000000000000000100010010000000000000000000000F0010000007296200320150630000101 00000000000000000000000000000000000000000000000000000000000000000000000000000000000000000000000000000000000000000N 00000000000NCONT   00    00000000000          00000000000000000000000000000000000000000000 000000000000000A000000000000000000000000000000000000000000000 000000000000000000000000000000000000000     00000000                                                                                                                        000000000000000000
F0010000007296200004000000431178400023658300000000000000000201506300002001EFRAIN ALVAREZ                                    C000000000013100000000000000000000100010010000000000000000000000F0010000007296200420150630000101 00000000000000000000000000000000000000000000000000000000000000000000000000000000000000000000000000000000000000000N 00000000000NCONT   00    00000000000          00000000000000000000000000000000000000000000 000000000000000A000000000000000000000000000000000000000000000 000000000000000000000000000000000000000     00000000                                                                                                                        000000000000000000
F0010000007296200005000000431178400013552100000000000000000201506300002001EFRAIN ALVAREZ                                    D000000000013100000000000000000000100010010000000000000000000000F0010000007296200520150630000101 00000000000000000000000000000000000000000000000000000000000000000000000000000000000000000000000000000000000000000N 00000000000NCONT   00    00000000000          00000000000000000000000000000000000000000000 000000000000000A000000000000000000000000000000000000000000000 000000000000000000000000000000000000000     00000000                                                                                                                        000000000000000000
F0010000007296300001000000431178400011050500000000000000000201506300002001EFRAIN ALVAREZ                                    D000000000430000000000000000000000100010010000000000000000000000F0010000007296300120150630000101 00000000000000000000000000000000000000000000000000000000000000000000000000000000000000000000000000000000000000000N 00000000000NCONT   00    00000000000          00000000000000000000000000000000000000000000 000000000000000A000000000000000000000000000000000000000000000 000000000000000000000000000000000000000     00000000                                                                                                                        000000000000000000
F0010000007296300002000000431178400041450500000000000000000201506300002001EFRAIN ALVAREZ                                    C000000000380000000000000000000000100010010000000000000000000000F0010000007296300220150630000101 00000000000000000000000000000000000000000000000000000000000000000000000000000000000000000000000000000000000000000N 00000000000NCONT   00    00000000000          00000000000000000000000000000000000000000000 000000000000000A000000000000000000000000000000000000000000000 000000000000000000000000000000000000000     00000000                                                                                                                        000000000000000000
F0010000007296300003000000431178400042505000000000000000000201506300002001EFRAIN ALVAREZ                                    C000000000050000000000000000000000100010010000000000000000000000F0010000007296300320150630000101 00000000000000000000000000000000000000000000000000000000000000000000000000000000000000000000000000000000000000000N 00000000000NCONT   00    00000000000          00000000000000000000000000000000000000000000 000000000000000A000000000000000000000000000000000000000000000 000000000000000000000000000000000000000     00000000                                                                                                                        000000000000000000
F0010000007296300004000000431178400023658300000000000000000201506300002001EFRAIN ALVAREZ                                    C000000000003000000000000000000000100010010000000000000000000000F0010000007296300420150630000101 00000000000000000000000000000000000000000000000000000000000000000000000000000000000000000000000000000000000000000N 00000000000NCONT   00    00000000000          00000000000000000000000000000000000000000000 000000000000000A000000000000000000000000000000000000000000000 000000000000000000000000000000000000000     00000000                                                                                                                        000000000000000000
F0010000007296300005000000431178400013552100000000000000000201506300002001EFRAIN ALVAREZ                                    D000000000003000000000000000000000100010010000000000000000000000F0010000007296300520150630000101 00000000000000000000000000000000000000000000000000000000000000000000000000000000000000000000000000000000000000000N 00000000000NCONT   00    00000000000          00000000000000000000000000000000000000000000 000000000000000A000000000000000000000000000000000000000000000 000000000000000000000000000000000000000     00000000                                                                                                                        000000000000000000
F0010000007296400001000000431178400011050500000000000000000201506300002001EFRAIN ALVAREZ                                    D000000003720000000000000000000000100010010000000000000000000000F0010000007296400120150630000101 00000000000000000000000000000000000000000000000000000000000000000000000000000000000000000000000000000000000000000N 00000000000NCONT   00    00000000000          00000000000000000000000000000000000000000000 000000000000000A000000000000000000000000000000000000000000000 000000000000000000000000000000000000000     00000000                                                                                                                        000000000000000000
F0010000007296400002000000431178400041450500000000000000000201506300002001EFRAIN ALVAREZ                                    C000000003570000000000000000000000100010010000000000000000000000F0010000007296400220150630000101 00000000000000000000000000000000000000000000000000000000000000000000000000000000000000000000000000000000000000000N 00000000000NCONT   00    00000000000          00000000000000000000000000000000000000000000 000000000000000A000000000000000000000000000000000000000000000 000000000000000000000000000000000000000     00000000                                                                                                                        000000000000000000
F0010000007296400003000000431178400042505000000000000000000201506300002001EFRAIN ALVAREZ                                    C000000000150000000000000000000000100010010000000000000000000000F0010000007296400320150630000101 00000000000000000000000000000000000000000000000000000000000000000000000000000000000000000000000000000000000000000N 00000000000NCONT   00    00000000000          00000000000000000000000000000000000000000000 000000000000000A000000000000000000000000000000000000000000000 000000000000000000000000000000000000000     00000000                                                                                                                        000000000000000000
F0010000007296400004000000431178400023658300000000000000000201506300002001EFRAIN ALVAREZ                                    C000000000028600000000000000000000100010010000000000000000000000F0010000007296400420150630000101 00000000000000000000000000000000000000000000000000000000000000000000000000000000000000000000000000000000000000000N 00000000000NCONT   00    00000000000          00000000000000000000000000000000000000000000 000000000000000A000000000000000000000000000000000000000000000 000000000000000000000000000000000000000     00000000                                                                                                                        000000000000000000
F0010000007296400005000000431178400013552100000000000000000201506300002001EFRAIN ALVAREZ                                    D000000000028600000000000000000000100010010000000000000000000000F0010000007296400520150630000101 00000000000000000000000000000000000000000000000000000000000000000000000000000000000000000000000000000000000000000N 00000000000NCONT   00    00000000000          00000000000000000000000000000000000000000000 000000000000000A000000000000000000000000000000000000000000000 000000000000000000000000000000000000000     00000000                                                                                                                        000000000000000000
F0010000007296500001000000431178400011050500000000000000000201506300002001EFRAIN ALVAREZ                                    D000000001240000000000000000000000100010010000000000000000000000F0010000007296500120150630000101 00000000000000000000000000000000000000000000000000000000000000000000000000000000000000000000000000000000000000000N 00000000000NCONT   00    00000000000          00000000000000000000000000000000000000000000 000000000000000A000000000000000000000000000000000000000000000 000000000000000000000000000000000000000     00000000                                                                                                                        000000000000000000
F0010000007296500002000000431178400041450500000000000000000201506300002001EFRAIN ALVAREZ                                    C000000001190000000000000000000000100010010000000000000000000000F0010000007296500220150630000101 00000000000000000000000000000000000000000000000000000000000000000000000000000000000000000000000000000000000000000N 00000000000NCONT   00    00000000000          00000000000000000000000000000000000000000000 000000000000000A000000000000000000000000000000000000000000000 000000000000000000000000000000000000000     00000000                                                                                                                        000000000000000000
F0010000007296500003000000431178400042505000000000000000000201506300002001EFRAIN ALVAREZ                                    C000000000050000000000000000000000100010010000000000000000000000F0010000007296500320150630000101 00000000000000000000000000000000000000000000000000000000000000000000000000000000000000000000000000000000000000000N 00000000000NCONT   00    00000000000          00000000000000000000000000000000000000000000 000000000000000A000000000000000000000000000000000000000000000 000000000000000000000000000000000000000     00000000                                                                                                                        000000000000000000
F0010000007296500004000000431178400023658300000000000000000201506300002001EFRAIN ALVAREZ                                    C000000000009500000000000000000000100010010000000000000000000000F0010000007296500420150630000101 00000000000000000000000000000000000000000000000000000000000000000000000000000000000000000000000000000000000000000N 00000000000NCONT   00    00000000000          00000000000000000000000000000000000000000000 000000000000000A000000000000000000000000000000000000000000000 000000000000000000000000000000000000000     00000000                                                                                                                        000000000000000000
F0010000007296500005000000431178400013552100000000000000000201506300002001EFRAIN ALVAREZ                                    D000000000009500000000000000000000100010010000000000000000000000F0010000007296500520150630000101 00000000000000000000000000000000000000000000000000000000000000000000000000000000000000000000000000000000000000000N 00000000000NCONT   00    00000000000          00000000000000000000000000000000000000000000 000000000000000A000000000000000000000000000000000000000000000 000000000000000000000000000000000000000     00000000                                                                                                                        000000000000000000
F0010000007296600001000004175790100011050500000000000000000201506300002001ROSIRIS FERIA HOYOS  (COSM. SHILLER)              D000000000900000000000000000000000100010010000000000000000000000F0010000007296600120150630000101 00000000000000000000000000000000000000000000000000000000000000000000000000000000000000000000000000000000000000000N 00000000000NCONT   00    00000000000          00000000000000000000000000000000000000000000 000000000000000A000000000000000000000000000000000000000000000 000000000000000000000000000000000000000     00000000                                                                                                                        000000000000000000
F0010000007296600002000004175790100041450500000000000000000201506300002001ROSIRIS FERIA HOYOS  (COSM. SHILLER)              C000000000800000000000000000000000100010010000000000000000000000F0010000007296600220150630000101 00000000000000000000000000000000000000000000000000000000000000000000000000000000000000000000000000000000000000000N 00000000000NCONT   00    00000000000          00000000000000000000000000000000000000000000 000000000000000A000000000000000000000000000000000000000000000 000000000000000000000000000000000000000     00000000                                                                                                                        000000000000000000
