F0010000008310500001000080201411900011050500000000000000000201602270002001PLASTISERVICIOS S DE H                            D000000002200000000000000000000000100010010000000000000000000000F0010000008310500120160227000101 00000000000000000000000000000000000000000000000000000000000000000000000000000000000000000000000000000000000000000N 00000000000NCONT   00    00000000000          00000000000000000000000000000000000000000000 000000000000000A000000000000000000000000000000000000000000000 000000000000000000000000000000000000000     00000000                                                                                                                        000000000000000000
F0010000008310500002000080201411900041450500000000000000000201602270002001PLASTISERVICIOS S DE H                            C000000001950000000000000000000000100010010000000000000000000000F0010000008310500220160227000101 00000000000000000000000000000000000000000000000000000000000000000000000000000000000000000000000000000000000000000N 00000000000NCONT   00    00000000000          00000000000000000000000000000000000000000000 000000000000000A000000000000000000000000000000000000000000000 000000000000000000000000000000000000000     00000000                                                                                                                        000000000000000000
F0010000008310500003000080201411900042505000000000000000000201602270002001PLASTISERVICIOS S DE H                            C000000000250000000000000000000000100010010000000000000000000000F0010000008310500320160227000101 00000000000000000000000000000000000000000000000000000000000000000000000000000000000000000000000000000000000000000N 00000000000NCONT   00    00000000000          00000000000000000000000000000000000000000000 000000000000000A000000000000000000000000000000000000000000000 000000000000000000000000000000000000000     00000000                                                                                                                        000000000000000000
F0010000008310500004000080201411900023658300000000000000000201602270002001PLASTISERVICIOS S DE H                            C000000000015600000000000000000000100010010000000000000000000000F0010000008310500420160227000101 00000000000000000000000000000000000000000000000000000000000000000000000000000000000000000000000000000000000000000N 00000000000NCONT   00    00000000000          00000000000000000000000000000000000000000000 000000000000000A000000000000000000000000000000000000000000000 000000000000000000000000000000000000000     00000000                                                                                                                        000000000000000000
F0010000008310500005000080201411900013552100000000000000000201602270002001PLASTISERVICIOS S DE H                            D000000000015600000000000000000000100010010000000000000000000000F0010000008310500520160227000101 00000000000000000000000000000000000000000000000000000000000000000000000000000000000000000000000000000000000000000N 00000000000NCONT   00    00000000000          00000000000000000000000000000000000000000000 000000000000000A000000000000000000000000000000000000000000000 000000000000000000000000000000000000000     00000000                                                                                                                        000000000000000000
F0010000008310600001000090015039900011050500000000000000000201602270002001METALMAX DE COLOMBIA S.A.S                        D000000002500000000000000000000000100010010000000000000000000000F0010000008310600120160227000101 00000000000000000000000000000000000000000000000000000000000000000000000000000000000000000000000000000000000000000N 00000000000NCONT   00    00000000000          00000000000000000000000000000000000000000000 000000000000000A000000000000000000000000000000000000000000000 000000000000000000000000000000000000000     00000000                                                                                                                        000000000000000000
F0010000008310600002000090015039900041450500000000000000000201602270002001METALMAX DE COLOMBIA S.A.S                        C000000002400000000000000000000000100010010000000000000000000000F0010000008310600220160227000101 00000000000000000000000000000000000000000000000000000000000000000000000000000000000000000000000000000000000000000N 00000000000NCONT   00    00000000000          00000000000000000000000000000000000000000000 000000000000000A000000000000000000000000000000000000000000000 000000000000000000000000000000000000000     00000000                                                                                                                        000000000000000000
F0010000008310600003000090015039900042505000000000000000000201602270002001METALMAX DE COLOMBIA S.A.S                        C000000000100000000000000000000000100010010000000000000000000000F0010000008310600320160227000101 00000000000000000000000000000000000000000000000000000000000000000000000000000000000000000000000000000000000000000N 00000000000NCONT   00    00000000000          00000000000000000000000000000000000000000000 000000000000000A000000000000000000000000000000000000000000000 000000000000000000000000000000000000000     00000000                                                                                                                        000000000000000000
F0010000008310600004000090015039900023658300000000000000000201602270002001METALMAX DE COLOMBIA S.A.S                        C000000000019200000000000000000000100010010000000000000000000000F0010000008310600420160227000101 00000000000000000000000000000000000000000000000000000000000000000000000000000000000000000000000000000000000000000N 00000000000NCONT   00    00000000000          00000000000000000000000000000000000000000000 000000000000000A000000000000000000000000000000000000000000000 000000000000000000000000000000000000000     00000000                                                                                                                        000000000000000000
F0010000008310600005000090015039900013552100000000000000000201602270002001METALMAX DE COLOMBIA S.A.S                        D000000000019200000000000000000000100010010000000000000000000000F0010000008310600520160227000101 00000000000000000000000000000000000000000000000000000000000000000000000000000000000000000000000000000000000000000N 00000000000NCONT   00    00000000000          00000000000000000000000000000000000000000000 000000000000000A000000000000000000000000000000000000000000000 000000000000000000000000000000000000000     00000000                                                                                                                        000000000000000000
F0010000008310700001000090020872300011050500000000000000000201602270002001INTERSOLES SAS                                    D000000001400000000000000000000000100010010000000000000000000000F0010000008310700120160227000101 00000000000000000000000000000000000000000000000000000000000000000000000000000000000000000000000000000000000000000N 00000000000NCONT   00    00000000000          00000000000000000000000000000000000000000000 000000000000000A000000000000000000000000000000000000000000000 000000000000000000000000000000000000000     00000000                                                                                                                        000000000000000000
F0010000008310700002000090020872300041450500000000000000000201602270002001INTERSOLES SAS                                    C000000001300000000000000000000000100010010000000000000000000000F0010000008310700220160227000101 00000000000000000000000000000000000000000000000000000000000000000000000000000000000000000000000000000000000000000N 00000000000NCONT   00    00000000000          00000000000000000000000000000000000000000000 000000000000000A000000000000000000000000000000000000000000000 000000000000000000000000000000000000000     00000000                                                                                                                        000000000000000000
F0010000008310700003000090020872300042505000000000000000000201602270002001INTERSOLES SAS                                    C000000000100000000000000000000000100010010000000000000000000000F0010000008310700320160227000101 00000000000000000000000000000000000000000000000000000000000000000000000000000000000000000000000000000000000000000N 00000000000NCONT   00    00000000000          00000000000000000000000000000000000000000000 000000000000000A000000000000000000000000000000000000000000000 000000000000000000000000000000000000000     00000000                                                                                                                        000000000000000000
F0010000008310700004000090020872300023658300000000000000000201602270002001INTERSOLES SAS                                    C000000000010400000000000000000000100010010000000000000000000000F0010000008310700420160227000101 00000000000000000000000000000000000000000000000000000000000000000000000000000000000000000000000000000000000000000N 00000000000NCONT   00    00000000000          00000000000000000000000000000000000000000000 000000000000000A000000000000000000000000000000000000000000000 000000000000000000000000000000000000000     00000000                                                                                                                        000000000000000000
F0010000008310700005000090020872300013552100000000000000000201602270002001INTERSOLES SAS                                    D000000000010400000000000000000000100010010000000000000000000000F0010000008310700520160227000101 00000000000000000000000000000000000000000000000000000000000000000000000000000000000000000000000000000000000000000N 00000000000NCONT   00    00000000000          00000000000000000000000000000000000000000000 000000000000000A000000000000000000000000000000000000000000000 000000000000000000000000000000000000000     00000000                                                                                                                        000000000000000000
F0010000008310800001000090020872300011050500000000000000000201602270002001INTERSOLES SAS                                    D000000005000000000000000000000000100010010000000000000000000000F0010000008310800120160227000101 00000000000000000000000000000000000000000000000000000000000000000000000000000000000000000000000000000000000000000N 00000000000NCONT   00    00000000000          00000000000000000000000000000000000000000000 000000000000000A000000000000000000000000000000000000000000000 000000000000000000000000000000000000000     00000000                                                                                                                        000000000000000000
F0010000008310800002000090020872300041450500000000000000000201602270002001INTERSOLES SAS                                    C000000004500000000000000000000000100010010000000000000000000000F0010000008310800220160227000101 00000000000000000000000000000000000000000000000000000000000000000000000000000000000000000000000000000000000000000N 00000000000NCONT   00    00000000000          00000000000000000000000000000000000000000000 000000000000000A000000000000000000000000000000000000000000000 000000000000000000000000000000000000000     00000000                                                                                                                        000000000000000000
F0010000008310800003000090020872300042505000000000000000000201602270002001INTERSOLES SAS                                    C000000000500000000000000000000000100010010000000000000000000000F0010000008310800320160227000101 00000000000000000000000000000000000000000000000000000000000000000000000000000000000000000000000000000000000000000N 00000000000NCONT   00    00000000000          00000000000000000000000000000000000000000000 000000000000000A000000000000000000000000000000000000000000000 000000000000000000000000000000000000000     00000000                                                                                                                        000000000000000000
F0010000008310800004000090020872300023658300000000000000000201602270002001INTERSOLES SAS                                    C000000000036000000000000000000000100010010000000000000000000000F0010000008310800420160227000101 00000000000000000000000000000000000000000000000000000000000000000000000000000000000000000000000000000000000000000N 00000000000NCONT   00    00000000000          00000000000000000000000000000000000000000000 000000000000000A000000000000000000000000000000000000000000000 000000000000000000000000000000000000000     00000000                                                                                                                        000000000000000000
F0010000008310800005000090020872300013552100000000000000000201602270002001INTERSOLES SAS                                    D000000000036000000000000000000000100010010000000000000000000000F0010000008310800520160227000101 00000000000000000000000000000000000000000000000000000000000000000000000000000000000000000000000000000000000000000N 00000000000NCONT   00    00000000000          00000000000000000000000000000000000000000000 000000000000000A000000000000000000000000000000000000000000000 000000000000000000000000000000000000000     00000000                                                                                                                        000000000000000000
F0010000008310900001000089011193000011050500000000000000000201602270002001DOQUIMICA DE LA COSTA LT DA                       D000000001600000000000000000000000100010010000000000000000000000F0010000008310900120160227000101 00000000000000000000000000000000000000000000000000000000000000000000000000000000000000000000000000000000000000000N 00000000000NCONT   00    00000000000          00000000000000000000000000000000000000000000 000000000000000A000000000000000000000000000000000000000000000 000000000000000000000000000000000000000     00000000                                                                                                                        000000000000000000
F0010000008310900002000089011193000041450500000000000000000201602270002001DOQUIMICA DE LA COSTA LT DA                       C000000001500000000000000000000000100010010000000000000000000000F0010000008310900220160227000101 00000000000000000000000000000000000000000000000000000000000000000000000000000000000000000000000000000000000000000N 00000000000NCONT   00    00000000000          00000000000000000000000000000000000000000000 000000000000000A000000000000000000000000000000000000000000000 000000000000000000000000000000000000000     00000000                                                                                                                        000000000000000000
F0010000008310900003000089011193000042505000000000000000000201602270002001DOQUIMICA DE LA COSTA LT DA                       C000000000100000000000000000000000100010010000000000000000000000F0010000008310900320160227000101 00000000000000000000000000000000000000000000000000000000000000000000000000000000000000000000000000000000000000000N 00000000000NCONT   00    00000000000          00000000000000000000000000000000000000000000 000000000000000A000000000000000000000000000000000000000000000 000000000000000000000000000000000000000     00000000                                                                                                                        000000000000000000
F0010000008310900004000089011193000023658300000000000000000201602270002001DOQUIMICA DE LA COSTA LT DA                       C000000000012000000000000000000000100010010000000000000000000000F0010000008310900420160227000101 00000000000000000000000000000000000000000000000000000000000000000000000000000000000000000000000000000000000000000N 00000000000NCONT   00    00000000000          00000000000000000000000000000000000000000000 000000000000000A000000000000000000000000000000000000000000000 000000000000000000000000000000000000000     00000000                                                                                                                        000000000000000000
F0010000008310900005000089011193000013552100000000000000000201602270002001DOQUIMICA DE LA COSTA LT DA                       D000000000012000000000000000000000100010010000000000000000000000F0010000008310900520160227000101 00000000000000000000000000000000000000000000000000000000000000000000000000000000000000000000000000000000000000000N 00000000000NCONT   00    00000000000          00000000000000000000000000000000000000000000 000000000000000A000000000000000000000000000000000000000000000 000000000000000000000000000000000000000     00000000                                                                                                                        000000000000000000
F0010000008311000001000000871573200011050500000000000000000201602270002001ACCESORIAS ARQUITECTONI KJ                        D000000003900000000000000000000000100010010000000000000000000000F0010000008311000120160227000101 00000000000000000000000000000000000000000000000000000000000000000000000000000000000000000000000000000000000000000N 00000000000NCONT   00    00000000000          00000000000000000000000000000000000000000000 000000000000000A000000000000000000000000000000000000000000000 000000000000000000000000000000000000000     00000000                                                                                                                        000000000000000000
F0010000008311000002000000871573200041450500000000000000000201602270002001ACCESORIAS ARQUITECTONI KJ                        C000000002400000000000000000000000100010010000000000000000000000F0010000008311000220160227000101 00000000000000000000000000000000000000000000000000000000000000000000000000000000000000000000000000000000000000000N 00000000000NCONT   00    00000000000          00000000000000000000000000000000000000000000 000000000000000A000000000000000000000000000000000000000000000 000000000000000000000000000000000000000     00000000                                                                                                                        000000000000000000
F0010000008311000003000000871573200042505000000000000000000201602270002001ACCESORIAS ARQUITECTONI KJ                        C000000001500000000000000000000000100010010000000000000000000000F0010000008311000320160227000101 00000000000000000000000000000000000000000000000000000000000000000000000000000000000000000000000000000000000000000N 00000000000NCONT   00    00000000000          00000000000000000000000000000000000000000000 000000000000000A000000000000000000000000000000000000000000000 000000000000000000000000000000000000000     00000000                                                                                                                        000000000000000000
F0010000008311000004000000871573200023658300000000000000000201602270002001ACCESORIAS ARQUITECTONI KJ                        C000000000019200000000000000000000100010010000000000000000000000F0010000008311000420160227000101 00000000000000000000000000000000000000000000000000000000000000000000000000000000000000000000000000000000000000000N 00000000000NCONT   00    00000000000          00000000000000000000000000000000000000000000 000000000000000A000000000000000000000000000000000000000000000 000000000000000000000000000000000000000     00000000                                                                                                                        000000000000000000
F0010000008311000005000000871573200013552100000000000000000201602270002001ACCESORIAS ARQUITECTONI KJ                        D000000000019200000000000000000000100010010000000000000000000000F0010000008311000520160227000101 00000000000000000000000000000000000000000000000000000000000000000000000000000000000000000000000000000000000000000N 00000000000NCONT   00    00000000000          00000000000000000000000000000000000000000000 000000000000000A000000000000000000000000000000000000000000000 000000000000000000000000000000000000000     00000000                                                                                                                        000000000000000000
F0010000008311100001000007200205100011050500000000000000000201602270002001LUIS MOLINA                                       D000000000700000000000000000000000100010010000000000000000000000F0010000008311100120160227000101 00000000000000000000000000000000000000000000000000000000000000000000000000000000000000000000000000000000000000000N 00000000000NCONT   00    00000000000          00000000000000000000000000000000000000000000 000000000000000A000000000000000000000000000000000000000000000 000000000000000000000000000000000000000     00000000                                                                                                                        000000000000000000
F0010000008311100002000007200205100041450500000000000000000201602270002001LUIS MOLINA                                       C000000000600000000000000000000000100010010000000000000000000000F0010000008311100220160227000101 00000000000000000000000000000000000000000000000000000000000000000000000000000000000000000000000000000000000000000N 00000000000NCONT   00    00000000000          00000000000000000000000000000000000000000000 000000000000000A000000000000000000000000000000000000000000000 000000000000000000000000000000000000000     00000000                                                                                                                        000000000000000000
F0010000008311100003000007200205100042505000000000000000000201602270002001LUIS MOLINA                                       C000000000100000000000000000000000100010010000000000000000000000F0010000008311100320160227000101 00000000000000000000000000000000000000000000000000000000000000000000000000000000000000000000000000000000000000000N 00000000000NCONT   00    00000000000          00000000000000000000000000000000000000000000 000000000000000A000000000000000000000000000000000000000000000 000000000000000000000000000000000000000     00000000                                                                                                                        000000000000000000
F0010000008311100004000007200205100023658300000000000000000201602270002001LUIS MOLINA                                       C000000000004800000000000000000000100010010000000000000000000000F0010000008311100420160227000101 00000000000000000000000000000000000000000000000000000000000000000000000000000000000000000000000000000000000000000N 00000000000NCONT   00    00000000000          00000000000000000000000000000000000000000000 000000000000000A000000000000000000000000000000000000000000000 000000000000000000000000000000000000000     00000000                                                                                                                        000000000000000000
F0010000008311100005000007200205100013552100000000000000000201602270002001LUIS MOLINA                                       D000000000004800000000000000000000100010010000000000000000000000F0010000008311100520160227000101 00000000000000000000000000000000000000000000000000000000000000000000000000000000000000000000000000000000000000000N 00000000000NCONT   00    00000000000          00000000000000000000000000000000000000000000 000000000000000A000000000000000000000000000000000000000000000 000000000000000000000000000000000000000     00000000                                                                                                                        000000000000000000
F0010000008311200001000007314673400011050500000000000000000201602270002001ALONSO LOPEZ                                      D000000005000000000000000000000000100010010000000000000000000000F0010000008311200120160227000101 00000000000000000000000000000000000000000000000000000000000000000000000000000000000000000000000000000000000000000N 00000000000NCONT   00    00000000000          00000000000000000000000000000000000000000000 000000000000000A000000000000000000000000000000000000000000000 000000000000000000000000000000000000000     00000000                                                                                                                        000000000000000000
F0010000008311200002000007314673400041450500000000000000000201602270002001ALONSO LOPEZ                                      C000000004200000000000000000000000100010010000000000000000000000F0010000008311200220160227000101 00000000000000000000000000000000000000000000000000000000000000000000000000000000000000000000000000000000000000000N 00000000000NCONT   00    00000000000          00000000000000000000000000000000000000000000 000000000000000A000000000000000000000000000000000000000000000 000000000000000000000000000000000000000     00000000                                                                                                                        000000000000000000
F0010000008311200003000007314673400042505000000000000000000201602270002001ALONSO LOPEZ                                      C000000000800000000000000000000000100010010000000000000000000000F0010000008311200320160227000101 00000000000000000000000000000000000000000000000000000000000000000000000000000000000000000000000000000000000000000N 00000000000NCONT   00    00000000000          00000000000000000000000000000000000000000000 000000000000000A000000000000000000000000000000000000000000000 000000000000000000000000000000000000000     00000000                                                                                                                        000000000000000000
F0010000008311200004000007314673400023658300000000000000000201602270002001ALONSO LOPEZ                                      C000000000033600000000000000000000100010010000000000000000000000F0010000008311200420160227000101 00000000000000000000000000000000000000000000000000000000000000000000000000000000000000000000000000000000000000000N 00000000000NCONT   00    00000000000          00000000000000000000000000000000000000000000 000000000000000A000000000000000000000000000000000000000000000 000000000000000000000000000000000000000     00000000                                                                                                                        000000000000000000
F0010000008311200005000007314673400013552100000000000000000201602270002001ALONSO LOPEZ                                      D000000000033600000000000000000000100010010000000000000000000000F0010000008311200520160227000101 00000000000000000000000000000000000000000000000000000000000000000000000000000000000000000000000000000000000000000N 00000000000NCONT   00    00000000000          00000000000000000000000000000000000000000000 000000000000000A000000000000000000000000000000000000000000000 000000000000000000000000000000000000000     00000000                                                                                                                        000000000000000000
F0010000008311300001000004544401900011050500000000000000000201602270002001FISIOTER                                          D000000005500000000000000000000000100010010000000000000000000000F0010000008311300120160227000101 00000000000000000000000000000000000000000000000000000000000000000000000000000000000000000000000000000000000000000N 00000000000NCONT   00    00000000000          00000000000000000000000000000000000000000000 000000000000000A000000000000000000000000000000000000000000000 000000000000000000000000000000000000000     00000000                                                                                                                        000000000000000000
F0010000008311300002000004544401900041450500000000000000000201602270002001FISIOTER                                          C000000004000000000000000000000000100010010000000000000000000000F0010000008311300220160227000101 00000000000000000000000000000000000000000000000000000000000000000000000000000000000000000000000000000000000000000N 00000000000NCONT   00    00000000000          00000000000000000000000000000000000000000000 000000000000000A000000000000000000000000000000000000000000000 000000000000000000000000000000000000000     00000000                                                                                                                        000000000000000000
F0010000008311300003000004544401900042505000000000000000000201602270002001FISIOTER                                          C000000001500000000000000000000000100010010000000000000000000000F0010000008311300320160227000101 00000000000000000000000000000000000000000000000000000000000000000000000000000000000000000000000000000000000000000N 00000000000NCONT   00    00000000000          00000000000000000000000000000000000000000000 000000000000000A000000000000000000000000000000000000000000000 000000000000000000000000000000000000000     00000000                                                                                                                        000000000000000000
F0010000008311300004000004544401900023658300000000000000000201602270002001FISIOTER                                          C000000000032000000000000000000000100010010000000000000000000000F0010000008311300420160227000101 00000000000000000000000000000000000000000000000000000000000000000000000000000000000000000000000000000000000000000N 00000000000NCONT   00    00000000000          00000000000000000000000000000000000000000000 000000000000000A000000000000000000000000000000000000000000000 000000000000000000000000000000000000000     00000000                                                                                                                        000000000000000000
F0010000008311300005000004544401900013552100000000000000000201602270002001FISIOTER                                          D000000000032000000000000000000000100010010000000000000000000000F0010000008311300520160227000101 00000000000000000000000000000000000000000000000000000000000000000000000000000000000000000000000000000000000000000N 00000000000NCONT   00    00000000000          00000000000000000000000000000000000000000000 000000000000000A000000000000000000000000000000000000000000000 000000000000000000000000000000000000000     00000000                                                                                                                        000000000000000000
F0010000008311400001000001022529300011050500000000000000000201602270002001ALBERTO ALVAREZ ISAZA                             D000000002177800000000000000000000100010010000000000000000000000F0010000008311400120160227000101 00000000000000000000000000000000000000000000000000000000000000000000000000000000000000000000000000000000000000000N 00000000000NCONT   00    00000000000          00000000000000000000000000000000000000000000 000000000000000A000000000000000000000000000000000000000000000 000000000000000000000000000000000000000     00000000                                                                                                                        000000000000000000
F0010000008311400002000001022529300041450500000000000000000201602270002001ALBERTO ALVAREZ ISAZA                             C000000001970000000000000000000000100010010000000000000000000000F0010000008311400220160227000101 00000000000000000000000000000000000000000000000000000000000000000000000000000000000000000000000000000000000000000N 00000000000NCONT   00    00000000000          00000000000000000000000000000000000000000000 000000000000000A000000000000000000000000000000000000000000000 000000000000000000000000000000000000000     00000000                                                                                                                        000000000000000000
F0010000008311400003000001022529300042505000000000000000000201602270002001ALBERTO ALVAREZ ISAZA                             C000000000207800000000000000000000100010010000000000000000000000F0010000008311400320160227000101 00000000000000000000000000000000000000000000000000000000000000000000000000000000000000000000000000000000000000000N 00000000000NCONT   00    00000000000          00000000000000000000000000000000000000000000 000000000000000A000000000000000000000000000000000000000000000 000000000000000000000000000000000000000     00000000                                                                                                                        000000000000000000
F0010000008311400004000001022529300023658300000000000000000201602270002001ALBERTO ALVAREZ ISAZA                             C000000000015800000000000000000000100010010000000000000000000000F0010000008311400420160227000101 00000000000000000000000000000000000000000000000000000000000000000000000000000000000000000000000000000000000000000N 00000000000NCONT   00    00000000000          00000000000000000000000000000000000000000000 000000000000000A000000000000000000000000000000000000000000000 000000000000000000000000000000000000000     00000000                                                                                                                        000000000000000000
F0010000008311400005000001022529300013552100000000000000000201602270002001ALBERTO ALVAREZ ISAZA                             D000000000015800000000000000000000100010010000000000000000000000F0010000008311400520160227000101 00000000000000000000000000000000000000000000000000000000000000000000000000000000000000000000000000000000000000000N 00000000000NCONT   00    00000000000          00000000000000000000000000000000000000000000 000000000000000A000000000000000000000000000000000000000000000 000000000000000000000000000000000000000     00000000                                                                                                                        000000000000000000
F0010000008311500001000001022529300011050500000000000000000201602270002001ALBERTO ALVAREZ ISAZA                             D000000000700000000000000000000000100010010000000000000000000000F0010000008311500120160227000101 00000000000000000000000000000000000000000000000000000000000000000000000000000000000000000000000000000000000000000N 00000000000NCONT   00    00000000000          00000000000000000000000000000000000000000000 000000000000000A000000000000000000000000000000000000000000000 000000000000000000000000000000000000000     00000000                                                                                                                        000000000000000000
F0010000008311500002000001022529300041450500000000000000000201602270002001ALBERTO ALVAREZ ISAZA                             C000000000700000000000000000000000100010010000000000000000000000F0010000008311500220160227000101 00000000000000000000000000000000000000000000000000000000000000000000000000000000000000000000000000000000000000000N 00000000000NCONT   00    00000000000          00000000000000000000000000000000000000000000 000000000000000A000000000000000000000000000000000000000000000 000000000000000000000000000000000000000     00000000                                                                                                                        000000000000000000
F0010000008311500003000001022529300042505000000000000000000201602270002001ALBERTO ALVAREZ ISAZA                             C000000000000000000000000000000000100010010000000000000000000000F0010000008311500320160227000101 00000000000000000000000000000000000000000000000000000000000000000000000000000000000000000000000000000000000000000N 00000000000NCONT   00    00000000000          00000000000000000000000000000000000000000000 000000000000000A000000000000000000000000000000000000000000000 000000000000000000000000000000000000000     00000000                                                                                                                        000000000000000000
F0010000008311500004000001022529300023658300000000000000000201602270002001ALBERTO ALVAREZ ISAZA                             C000000000005600000000000000000000100010010000000000000000000000F0010000008311500420160227000101 00000000000000000000000000000000000000000000000000000000000000000000000000000000000000000000000000000000000000000N 00000000000NCONT   00    00000000000          00000000000000000000000000000000000000000000 000000000000000A000000000000000000000000000000000000000000000 000000000000000000000000000000000000000     00000000                                                                                                                        000000000000000000
F0010000008311500005000001022529300013552100000000000000000201602270002001ALBERTO ALVAREZ ISAZA                             D000000000005600000000000000000000100010010000000000000000000000F0010000008311500520160227000101 00000000000000000000000000000000000000000000000000000000000000000000000000000000000000000000000000000000000000000N 00000000000NCONT   00    00000000000          00000000000000000000000000000000000000000000 000000000000000A000000000000000000000000000000000000000000000 000000000000000000000000000000000000000     00000000                                                                                                                        000000000000000000
F0010000008311600001000000431178400011050500000000000000000201602270002001EFRAIN ALVAREZ                                    D000000008380000000000000000000000100010010000000000000000000000F0010000008311600120160227000101 00000000000000000000000000000000000000000000000000000000000000000000000000000000000000000000000000000000000000000N 00000000000NCONT   00    00000000000          00000000000000000000000000000000000000000000 000000000000000A000000000000000000000000000000000000000000000 000000000000000000000000000000000000000     00000000                                                                                                                        000000000000000000
F0010000008311600002000000431178400041450500000000000000000201602270002001EFRAIN ALVAREZ                                    C000000007880000000000000000000000100010010000000000000000000000F0010000008311600220160227000101 00000000000000000000000000000000000000000000000000000000000000000000000000000000000000000000000000000000000000000N 00000000000NCONT   00    00000000000          00000000000000000000000000000000000000000000 000000000000000A000000000000000000000000000000000000000000000 000000000000000000000000000000000000000     00000000                                                                                                                        000000000000000000
F0010000008311600003000000431178400042505000000000000000000201602270002001EFRAIN ALVAREZ                                    C000000000500000000000000000000000100010010000000000000000000000F0010000008311600320160227000101 00000000000000000000000000000000000000000000000000000000000000000000000000000000000000000000000000000000000000000N 00000000000NCONT   00    00000000000          00000000000000000000000000000000000000000000 000000000000000A000000000000000000000000000000000000000000000 000000000000000000000000000000000000000     00000000                                                                                                                        000000000000000000
F0010000008311600004000000431178400023658300000000000000000201602270002001EFRAIN ALVAREZ                                    C000000000063000000000000000000000100010010000000000000000000000F0010000008311600420160227000101 00000000000000000000000000000000000000000000000000000000000000000000000000000000000000000000000000000000000000000N 00000000000NCONT   00    00000000000          00000000000000000000000000000000000000000000 000000000000000A000000000000000000000000000000000000000000000 000000000000000000000000000000000000000     00000000                                                                                                                        000000000000000000
F0010000008311600005000000431178400013552100000000000000000201602270002001EFRAIN ALVAREZ                                    D000000000063000000000000000000000100010010000000000000000000000F0010000008311600520160227000101 00000000000000000000000000000000000000000000000000000000000000000000000000000000000000000000000000000000000000000N 00000000000NCONT   00    00000000000          00000000000000000000000000000000000000000000 000000000000000A000000000000000000000000000000000000000000000 000000000000000000000000000000000000000     00000000                                                                                                                        000000000000000000
F0010000008311700001000000431178400011050500000000000000000201602270002001EFRAIN ALVAREZ                                    D000000001550000000000000000000000100010010000000000000000000000F0010000008311700120160227000101 00000000000000000000000000000000000000000000000000000000000000000000000000000000000000000000000000000000000000000N 00000000000NCONT   00    00000000000          00000000000000000000000000000000000000000000 000000000000000A000000000000000000000000000000000000000000000 000000000000000000000000000000000000000     00000000                                                                                                                        000000000000000000
F0010000008311700002000000431178400041450500000000000000000201602270002001EFRAIN ALVAREZ                                    C000000001500000000000000000000000100010010000000000000000000000F0010000008311700220160227000101 00000000000000000000000000000000000000000000000000000000000000000000000000000000000000000000000000000000000000000N 00000000000NCONT   00    00000000000          00000000000000000000000000000000000000000000 000000000000000A000000000000000000000000000000000000000000000 000000000000000000000000000000000000000     00000000                                                                                                                        000000000000000000
F0010000008311700003000000431178400042505000000000000000000201602270002001EFRAIN ALVAREZ                                    C000000000050000000000000000000000100010010000000000000000000000F0010000008311700320160227000101 00000000000000000000000000000000000000000000000000000000000000000000000000000000000000000000000000000000000000000N 00000000000NCONT   00    00000000000          00000000000000000000000000000000000000000000 000000000000000A000000000000000000000000000000000000000000000 000000000000000000000000000000000000000     00000000                                                                                                                        000000000000000000
F0010000008311700004000000431178400023658300000000000000000201602270002001EFRAIN ALVAREZ                                    C000000000012000000000000000000000100010010000000000000000000000F0010000008311700420160227000101 00000000000000000000000000000000000000000000000000000000000000000000000000000000000000000000000000000000000000000N 00000000000NCONT   00    00000000000          00000000000000000000000000000000000000000000 000000000000000A000000000000000000000000000000000000000000000 000000000000000000000000000000000000000     00000000                                                                                                                        000000000000000000
F0010000008311700005000000431178400013552100000000000000000201602270002001EFRAIN ALVAREZ                                    D000000000012000000000000000000000100010010000000000000000000000F0010000008311700520160227000101 00000000000000000000000000000000000000000000000000000000000000000000000000000000000000000000000000000000000000000N 00000000000NCONT   00    00000000000          00000000000000000000000000000000000000000000 000000000000000A000000000000000000000000000000000000000000000 000000000000000000000000000000000000000     00000000                                                                                                                        000000000000000000
F0010000008311800001000000431178400011050500000000000000000201602270002001EFRAIN ALVAREZ                                    D000000006700000000000000000000000100010010000000000000000000000F0010000008311800120160227000101 00000000000000000000000000000000000000000000000000000000000000000000000000000000000000000000000000000000000000000N 00000000000NCONT   00    00000000000          00000000000000000000000000000000000000000000 000000000000000A000000000000000000000000000000000000000000000 000000000000000000000000000000000000000     00000000                                                                                                                        000000000000000000
F0010000008311800002000000431178400041450500000000000000000201602270002001EFRAIN ALVAREZ                                    C000000006400000000000000000000000100010010000000000000000000000F0010000008311800220160227000101 00000000000000000000000000000000000000000000000000000000000000000000000000000000000000000000000000000000000000000N 00000000000NCONT   00    00000000000          00000000000000000000000000000000000000000000 000000000000000A000000000000000000000000000000000000000000000 000000000000000000000000000000000000000     00000000                                                                                                                        000000000000000000
F0010000008311800003000000431178400042505000000000000000000201602270002001EFRAIN ALVAREZ                                    C000000000300000000000000000000000100010010000000000000000000000F0010000008311800320160227000101 00000000000000000000000000000000000000000000000000000000000000000000000000000000000000000000000000000000000000000N 00000000000NCONT   00    00000000000          00000000000000000000000000000000000000000000 000000000000000A000000000000000000000000000000000000000000000 000000000000000000000000000000000000000     00000000                                                                                                                        000000000000000000
F0010000008311800004000000431178400023658300000000000000000201602270002001EFRAIN ALVAREZ                                    C000000000051200000000000000000000100010010000000000000000000000F0010000008311800420160227000101 00000000000000000000000000000000000000000000000000000000000000000000000000000000000000000000000000000000000000000N 00000000000NCONT   00    00000000000          00000000000000000000000000000000000000000000 000000000000000A000000000000000000000000000000000000000000000 000000000000000000000000000000000000000     00000000                                                                                                                        000000000000000000
F0010000008311800005000000431178400013552100000000000000000201602270002001EFRAIN ALVAREZ                                    D000000000051200000000000000000000100010010000000000000000000000F0010000008311800520160227000101 00000000000000000000000000000000000000000000000000000000000000000000000000000000000000000000000000000000000000000N 00000000000NCONT   00    00000000000          00000000000000000000000000000000000000000000 000000000000000A000000000000000000000000000000000000000000000 000000000000000000000000000000000000000     00000000                                                                                                                        000000000000000000
F0010000008311900001000000431178400011050500000000000000000201602270002001EFRAIN ALVAREZ                                    D000000003150000000000000000000000100010010000000000000000000000F0010000008311900120160227000101 00000000000000000000000000000000000000000000000000000000000000000000000000000000000000000000000000000000000000000N 00000000000NCONT   00    00000000000          00000000000000000000000000000000000000000000 000000000000000A000000000000000000000000000000000000000000000 000000000000000000000000000000000000000     00000000                                                                                                                        000000000000000000
F0010000008311900002000000431178400041450500000000000000000201602270002001EFRAIN ALVAREZ                                    C000000003000000000000000000000000100010010000000000000000000000F0010000008311900220160227000101 00000000000000000000000000000000000000000000000000000000000000000000000000000000000000000000000000000000000000000N 00000000000NCONT   00    00000000000          00000000000000000000000000000000000000000000 000000000000000A000000000000000000000000000000000000000000000 000000000000000000000000000000000000000     00000000                                                                                                                        000000000000000000
F0010000008311900003000000431178400042505000000000000000000201602270002001EFRAIN ALVAREZ                                    C000000000150000000000000000000000100010010000000000000000000000F0010000008311900320160227000101 00000000000000000000000000000000000000000000000000000000000000000000000000000000000000000000000000000000000000000N 00000000000NCONT   00    00000000000          00000000000000000000000000000000000000000000 000000000000000A000000000000000000000000000000000000000000000 000000000000000000000000000000000000000     00000000                                                                                                                        000000000000000000
F0010000008311900004000000431178400023658300000000000000000201602270002001EFRAIN ALVAREZ                                    C000000000024000000000000000000000100010010000000000000000000000F0010000008311900420160227000101 00000000000000000000000000000000000000000000000000000000000000000000000000000000000000000000000000000000000000000N 00000000000NCONT   00    00000000000          00000000000000000000000000000000000000000000 000000000000000A000000000000000000000000000000000000000000000 000000000000000000000000000000000000000     00000000                                                                                                                        000000000000000000
F0010000008311900005000000431178400013552100000000000000000201602270002001EFRAIN ALVAREZ                                    D000000000024000000000000000000000100010010000000000000000000000F0010000008311900520160227000101 00000000000000000000000000000000000000000000000000000000000000000000000000000000000000000000000000000000000000000N 00000000000NCONT   00    00000000000          00000000000000000000000000000000000000000000 000000000000000A000000000000000000000000000000000000000000000 000000000000000000000000000000000000000     00000000                                                                                                                        000000000000000000
F0010000008312000001000089011069100011050500000000000000000201602270002001LA CASA DE LAS ALFOMBRAS LTDA                     D000000003100000000000000000000000100010010000000000000000000000F0010000008312000120160227000101 00000000000000000000000000000000000000000000000000000000000000000000000000000000000000000000000000000000000000000N 00000000000NCONT   00    00000000000          00000000000000000000000000000000000000000000 000000000000000A000000000000000000000000000000000000000000000 000000000000000000000000000000000000000     00000000                                                                                                                        000000000000000000
F0010000008312000002000089011069100041450500000000000000000201602270002001LA CASA DE LAS ALFOMBRAS LTDA                     C000000002000000000000000000000000100010010000000000000000000000F0010000008312000220160227000101 00000000000000000000000000000000000000000000000000000000000000000000000000000000000000000000000000000000000000000N 00000000000NCONT   00    00000000000          00000000000000000000000000000000000000000000 000000000000000A000000000000000000000000000000000000000000000 000000000000000000000000000000000000000     00000000                                                                                                                        000000000000000000
F0010000008312000003000089011069100042505000000000000000000201602270002001LA CASA DE LAS ALFOMBRAS LTDA                     C000000001100000000000000000000000100010010000000000000000000000F0010000008312000320160227000101 00000000000000000000000000000000000000000000000000000000000000000000000000000000000000000000000000000000000000000N 00000000000NCONT   00    00000000000          00000000000000000000000000000000000000000000 000000000000000A000000000000000000000000000000000000000000000 000000000000000000000000000000000000000     00000000                                                                                                                        000000000000000000
F0010000008312000004000089011069100023658300000000000000000201602270002001LA CASA DE LAS ALFOMBRAS LTDA                     C000000000016000000000000000000000100010010000000000000000000000F0010000008312000420160227000101 00000000000000000000000000000000000000000000000000000000000000000000000000000000000000000000000000000000000000000N 00000000000NCONT   00    00000000000          00000000000000000000000000000000000000000000 000000000000000A000000000000000000000000000000000000000000000 000000000000000000000000000000000000000     00000000                                                                                                                        000000000000000000
F0010000008312000005000089011069100013552100000000000000000201602270002001LA CASA DE LAS ALFOMBRAS LTDA                     D000000000016000000000000000000000100010010000000000000000000000F0010000008312000520160227000101 00000000000000000000000000000000000000000000000000000000000000000000000000000000000000000000000000000000000000000N 00000000000NCONT   00    00000000000          00000000000000000000000000000000000000000000 000000000000000A000000000000000000000000000000000000000000000 000000000000000000000000000000000000000     00000000                                                                                                                        000000000000000000
F0010000008312100001000089011069100011050500000000000000000201602270002001LA CASA DE LAS ALFOMBRAS LTDA                     D000000009800000000000000000000000100010010000000000000000000000F0010000008312100120160227000101 00000000000000000000000000000000000000000000000000000000000000000000000000000000000000000000000000000000000000000N 00000000000NCONT   00    00000000000          00000000000000000000000000000000000000000000 000000000000000A000000000000000000000000000000000000000000000 000000000000000000000000000000000000000     00000000                                                                                                                        000000000000000000
F0010000008312100002000089011069100041450500000000000000000201602270002001LA CASA DE LAS ALFOMBRAS LTDA                     C000000008000000000000000000000000100010010000000000000000000000F0010000008312100220160227000101 00000000000000000000000000000000000000000000000000000000000000000000000000000000000000000000000000000000000000000N 00000000000NCONT   00    00000000000          00000000000000000000000000000000000000000000 000000000000000A000000000000000000000000000000000000000000000 000000000000000000000000000000000000000     00000000                                                                                                                        000000000000000000
F0010000008312100003000089011069100042505000000000000000000201602270002001LA CASA DE LAS ALFOMBRAS LTDA                     C000000001800000000000000000000000100010010000000000000000000000F0010000008312100320160227000101 00000000000000000000000000000000000000000000000000000000000000000000000000000000000000000000000000000000000000000N 00000000000NCONT   00    00000000000          00000000000000000000000000000000000000000000 000000000000000A000000000000000000000000000000000000000000000 000000000000000000000000000000000000000     00000000                                                                                                                        000000000000000000
F0010000008312100004000089011069100023658300000000000000000201602270002001LA CASA DE LAS ALFOMBRAS LTDA                     C000000000064000000000000000000000100010010000000000000000000000F0010000008312100420160227000101 00000000000000000000000000000000000000000000000000000000000000000000000000000000000000000000000000000000000000000N 00000000000NCONT   00    00000000000          00000000000000000000000000000000000000000000 000000000000000A000000000000000000000000000000000000000000000 000000000000000000000000000000000000000     00000000                                                                                                                        000000000000000000
F0010000008312100005000089011069100013552100000000000000000201602270002001LA CASA DE LAS ALFOMBRAS LTDA                     D000000000064000000000000000000000100010010000000000000000000000F0010000008312100520160227000101 00000000000000000000000000000000000000000000000000000000000000000000000000000000000000000000000000000000000000000N 00000000000NCONT   00    00000000000          00000000000000000000000000000000000000000000 000000000000000A000000000000000000000000000000000000000000000 000000000000000000000000000000000000000     00000000                                                                                                                        000000000000000000
