F0010000006329000001000090020547900011050500000000000000000201409290002001DAC DEL CARIBE S.A.S.                             D000000001829600000000000000000000100010010000000000000000000000F0010000006329000120140929000101 00000000000000000000000000000000000000000000000000000000000000000000000000000000000000000000000000000000000000000N 00000000000NCONT   00    00000000000          00000000000000000000000000000000000000000000 000000000000000A000000000000000000000000000000000000000000000 000000000000000000000000000000000000000     00000000                                                                                                                        000000000000000000
F0010000006329000002000090020547900041450500000000000000000201409290002001DAC DEL CARIBE S.A.S.                             C000000001400000000000000000000000100010010000000000000000000000F0010000006329000220140929000101 00000000000000000000000000000000000000000000000000000000000000000000000000000000000000000000000000000000000000000N 00000000000NCONT   00    00000000000          00000000000000000000000000000000000000000000 000000000000000A000000000000000000000000000000000000000000000 000000000000000000000000000000000000000     00000000                                                                                                                        000000000000000000
F0010000006329000003000090020547900042505000000000000000000201409290002001DAC DEL CARIBE S.A.S.                             C000000000429600000000000000000000100010010000000000000000000000F0010000006329000320140929000101 00000000000000000000000000000000000000000000000000000000000000000000000000000000000000000000000000000000000000000N 00000000000NCONT   00    00000000000          00000000000000000000000000000000000000000000 000000000000000A000000000000000000000000000000000000000000000 000000000000000000000000000000000000000     00000000                                                                                                                        000000000000000000
F0010000006329000004000090020547900023658300000000000000000201409290002001DAC DEL CARIBE S.A.S.                             C000000000011200000000000000000000100010010000000000000000000000F0010000006329000420140929000101 00000000000000000000000000000000000000000000000000000000000000000000000000000000000000000000000000000000000000000N 00000000000NCONT   00    00000000000          00000000000000000000000000000000000000000000 000000000000000A000000000000000000000000000000000000000000000 000000000000000000000000000000000000000     00000000                                                                                                                        000000000000000000
F0010000006329000005000090020547900013552100000000000000000201409290002001DAC DEL CARIBE S.A.S.                             D000000000011200000000000000000000100010010000000000000000000000F0010000006329000520140929000101 00000000000000000000000000000000000000000000000000000000000000000000000000000000000000000000000000000000000000000N 00000000000NCONT   00    00000000000          00000000000000000000000000000000000000000000 000000000000000A000000000000000000000000000000000000000000000 000000000000000000000000000000000000000     00000000                                                                                                                        000000000000000000
F0010000006329100001000090020547900011050500000000000000000201409290002001DAC DEL CARIBE S.A.S.                             D000000000622300000000000000000000100010010000000000000000000000F0010000006329100120140929000101 00000000000000000000000000000000000000000000000000000000000000000000000000000000000000000000000000000000000000000N 00000000000NCONT   00    00000000000          00000000000000000000000000000000000000000000 000000000000000A000000000000000000000000000000000000000000000 000000000000000000000000000000000000000     00000000                                                                                                                        000000000000000000
F0010000006329100002000090020547900041450500000000000000000201409290002001DAC DEL CARIBE S.A.S.                             C000000000300000000000000000000000100010010000000000000000000000F0010000006329100220140929000101 00000000000000000000000000000000000000000000000000000000000000000000000000000000000000000000000000000000000000000N 00000000000NCONT   00    00000000000          00000000000000000000000000000000000000000000 000000000000000A000000000000000000000000000000000000000000000 000000000000000000000000000000000000000     00000000                                                                                                                        000000000000000000
F0010000006329100003000090020547900042505000000000000000000201409290002001DAC DEL CARIBE S.A.S.                             C000000000322300000000000000000000100010010000000000000000000000F0010000006329100320140929000101 00000000000000000000000000000000000000000000000000000000000000000000000000000000000000000000000000000000000000000N 00000000000NCONT   00    00000000000          00000000000000000000000000000000000000000000 000000000000000A000000000000000000000000000000000000000000000 000000000000000000000000000000000000000     00000000                                                                                                                        000000000000000000
F0010000006329100004000090020547900023658300000000000000000201409290002001DAC DEL CARIBE S.A.S.                             C000000000002400000000000000000000100010010000000000000000000000F0010000006329100420140929000101 00000000000000000000000000000000000000000000000000000000000000000000000000000000000000000000000000000000000000000N 00000000000NCONT   00    00000000000          00000000000000000000000000000000000000000000 000000000000000A000000000000000000000000000000000000000000000 000000000000000000000000000000000000000     00000000                                                                                                                        000000000000000000
F0010000006329100005000090020547900013552100000000000000000201409290002001DAC DEL CARIBE S.A.S.                             D000000000002400000000000000000000100010010000000000000000000000F0010000006329100520140929000101 00000000000000000000000000000000000000000000000000000000000000000000000000000000000000000000000000000000000000000N 00000000000NCONT   00    00000000000          00000000000000000000000000000000000000000000 000000000000000A000000000000000000000000000000000000000000000 000000000000000000000000000000000000000     00000000                                                                                                                        000000000000000000
F0010000006329200001000083007900600011050500000000000000000201409290002001EXPRESO ANDINO DE CARGA SA                        D000000001400000000000000000000000100010010000000000000000000000F0010000006329200120140929000101 00000000000000000000000000000000000000000000000000000000000000000000000000000000000000000000000000000000000000000N 00000000000NCONT   00    00000000000          00000000000000000000000000000000000000000000 000000000000000A000000000000000000000000000000000000000000000 000000000000000000000000000000000000000     00000000                                                                                                                        000000000000000000
F0010000006329200002000083007900600041450500000000000000000201409290002001EXPRESO ANDINO DE CARGA SA                        C000000001300000000000000000000000100010010000000000000000000000F0010000006329200220140929000101 00000000000000000000000000000000000000000000000000000000000000000000000000000000000000000000000000000000000000000N 00000000000NCONT   00    00000000000          00000000000000000000000000000000000000000000 000000000000000A000000000000000000000000000000000000000000000 000000000000000000000000000000000000000     00000000                                                                                                                        000000000000000000
F0010000006329200003000083007900600042505000000000000000000201409290002001EXPRESO ANDINO DE CARGA SA                        C000000000100000000000000000000000100010010000000000000000000000F0010000006329200320140929000101 00000000000000000000000000000000000000000000000000000000000000000000000000000000000000000000000000000000000000000N 00000000000NCONT   00    00000000000          00000000000000000000000000000000000000000000 000000000000000A000000000000000000000000000000000000000000000 000000000000000000000000000000000000000     00000000                                                                                                                        000000000000000000
F0010000006329200004000083007900600023658300000000000000000201409290002001EXPRESO ANDINO DE CARGA SA                        C000000000010400000000000000000000100010010000000000000000000000F0010000006329200420140929000101 00000000000000000000000000000000000000000000000000000000000000000000000000000000000000000000000000000000000000000N 00000000000NCONT   00    00000000000          00000000000000000000000000000000000000000000 000000000000000A000000000000000000000000000000000000000000000 000000000000000000000000000000000000000     00000000                                                                                                                        000000000000000000
F0010000006329200005000083007900600013552100000000000000000201409290002001EXPRESO ANDINO DE CARGA SA                        D000000000010400000000000000000000100010010000000000000000000000F0010000006329200520140929000101 00000000000000000000000000000000000000000000000000000000000000000000000000000000000000000000000000000000000000000N 00000000000NCONT   00    00000000000          00000000000000000000000000000000000000000000 000000000000000A000000000000000000000000000000000000000000000 000000000000000000000000000000000000000     00000000                                                                                                                        000000000000000000
F0010000006329300001000000747559300011050500000000000000000201409290002001RAFAEL SERRANO                                    D000000001400000000000000000000000100010010000000000000000000000F0010000006329300120140929000101 00000000000000000000000000000000000000000000000000000000000000000000000000000000000000000000000000000000000000000N 00000000000NCONT   00    00000000000          00000000000000000000000000000000000000000000 000000000000000A000000000000000000000000000000000000000000000 000000000000000000000000000000000000000     00000000                                                                                                                        000000000000000000
F0010000006329300002000000747559300041450500000000000000000201409290002001RAFAEL SERRANO                                    C000000001000000000000000000000000100010010000000000000000000000F0010000006329300220140929000101 00000000000000000000000000000000000000000000000000000000000000000000000000000000000000000000000000000000000000000N 00000000000NCONT   00    00000000000          00000000000000000000000000000000000000000000 000000000000000A000000000000000000000000000000000000000000000 000000000000000000000000000000000000000     00000000                                                                                                                        000000000000000000
F0010000006329300003000000747559300042505000000000000000000201409290002001RAFAEL SERRANO                                    C000000000400000000000000000000000100010010000000000000000000000F0010000006329300320140929000101 00000000000000000000000000000000000000000000000000000000000000000000000000000000000000000000000000000000000000000N 00000000000NCONT   00    00000000000          00000000000000000000000000000000000000000000 000000000000000A000000000000000000000000000000000000000000000 000000000000000000000000000000000000000     00000000                                                                                                                        000000000000000000
F0010000006329300004000000747559300023658300000000000000000201409290002001RAFAEL SERRANO                                    C000000000008000000000000000000000100010010000000000000000000000F0010000006329300420140929000101 00000000000000000000000000000000000000000000000000000000000000000000000000000000000000000000000000000000000000000N 00000000000NCONT   00    00000000000          00000000000000000000000000000000000000000000 000000000000000A000000000000000000000000000000000000000000000 000000000000000000000000000000000000000     00000000                                                                                                                        000000000000000000
F0010000006329300005000000747559300013552100000000000000000201409290002001RAFAEL SERRANO                                    D000000000008000000000000000000000100010010000000000000000000000F0010000006329300520140929000101 00000000000000000000000000000000000000000000000000000000000000000000000000000000000000000000000000000000000000000N 00000000000NCONT   00    00000000000          00000000000000000000000000000000000000000000 000000000000000A000000000000000000000000000000000000000000000 000000000000000000000000000000000000000     00000000                                                                                                                        000000000000000000
F0010000006329400001000089011508200011050500000000000000000201409290002001ALMACEN Y TALLER CICLOCOSTA                       D000000002300000000000000000000000100010010000000000000000000000F0010000006329400120140929000101 00000000000000000000000000000000000000000000000000000000000000000000000000000000000000000000000000000000000000000N 00000000000NCONT   00    00000000000          00000000000000000000000000000000000000000000 000000000000000A000000000000000000000000000000000000000000000 000000000000000000000000000000000000000     00000000                                                                                                                        000000000000000000
F0010000006329400002000089011508200041450500000000000000000201409290002001ALMACEN Y TALLER CICLOCOSTA                       C000000001500000000000000000000000100010010000000000000000000000F0010000006329400220140929000101 00000000000000000000000000000000000000000000000000000000000000000000000000000000000000000000000000000000000000000N 00000000000NCONT   00    00000000000          00000000000000000000000000000000000000000000 000000000000000A000000000000000000000000000000000000000000000 000000000000000000000000000000000000000     00000000                                                                                                                        000000000000000000
F0010000006329400003000089011508200042505000000000000000000201409290002001ALMACEN Y TALLER CICLOCOSTA                       C000000000800000000000000000000000100010010000000000000000000000F0010000006329400320140929000101 00000000000000000000000000000000000000000000000000000000000000000000000000000000000000000000000000000000000000000N 00000000000NCONT   00    00000000000          00000000000000000000000000000000000000000000 000000000000000A000000000000000000000000000000000000000000000 000000000000000000000000000000000000000     00000000                                                                                                                        000000000000000000
F0010000006329400004000089011508200023658300000000000000000201409290002001ALMACEN Y TALLER CICLOCOSTA                       C000000000012000000000000000000000100010010000000000000000000000F0010000006329400420140929000101 00000000000000000000000000000000000000000000000000000000000000000000000000000000000000000000000000000000000000000N 00000000000NCONT   00    00000000000          00000000000000000000000000000000000000000000 000000000000000A000000000000000000000000000000000000000000000 000000000000000000000000000000000000000     00000000                                                                                                                        000000000000000000
F0010000006329400005000089011508200013552100000000000000000201409290002001ALMACEN Y TALLER CICLOCOSTA                       D000000000012000000000000000000000100010010000000000000000000000F0010000006329400520140929000101 00000000000000000000000000000000000000000000000000000000000000000000000000000000000000000000000000000000000000000N 00000000000NCONT   00    00000000000          00000000000000000000000000000000000000000000 000000000000000A000000000000000000000000000000000000000000000 000000000000000000000000000000000000000     00000000                                                                                                                        000000000000000000
F0010000006329500001000089011508200011050500000000000000000201409290002001ALMACEN Y TALLER CICLOCOSTA                       D000000007700000000000000000000000100010010000000000000000000000F0010000006329500120140929000101 00000000000000000000000000000000000000000000000000000000000000000000000000000000000000000000000000000000000000000N 00000000000NCONT   00    00000000000          00000000000000000000000000000000000000000000 000000000000000A000000000000000000000000000000000000000000000 000000000000000000000000000000000000000     00000000                                                                                                                        000000000000000000
F0010000006329500002000089011508200041450500000000000000000201409290002001ALMACEN Y TALLER CICLOCOSTA                       C000000006300000000000000000000000100010010000000000000000000000F0010000006329500220140929000101 00000000000000000000000000000000000000000000000000000000000000000000000000000000000000000000000000000000000000000N 00000000000NCONT   00    00000000000          00000000000000000000000000000000000000000000 000000000000000A000000000000000000000000000000000000000000000 000000000000000000000000000000000000000     00000000                                                                                                                        000000000000000000
F0010000006329500003000089011508200042505000000000000000000201409290002001ALMACEN Y TALLER CICLOCOSTA                       C000000001400000000000000000000000100010010000000000000000000000F0010000006329500320140929000101 00000000000000000000000000000000000000000000000000000000000000000000000000000000000000000000000000000000000000000N 00000000000NCONT   00    00000000000          00000000000000000000000000000000000000000000 000000000000000A000000000000000000000000000000000000000000000 000000000000000000000000000000000000000     00000000                                                                                                                        000000000000000000
F0010000006329500004000089011508200023658300000000000000000201409290002001ALMACEN Y TALLER CICLOCOSTA                       C000000000050400000000000000000000100010010000000000000000000000F0010000006329500420140929000101 00000000000000000000000000000000000000000000000000000000000000000000000000000000000000000000000000000000000000000N 00000000000NCONT   00    00000000000          00000000000000000000000000000000000000000000 000000000000000A000000000000000000000000000000000000000000000 000000000000000000000000000000000000000     00000000                                                                                                                        000000000000000000
F0010000006329500005000089011508200013552100000000000000000201409290002001ALMACEN Y TALLER CICLOCOSTA                       D000000000050400000000000000000000100010010000000000000000000000F0010000006329500520140929000101 00000000000000000000000000000000000000000000000000000000000000000000000000000000000000000000000000000000000000000N 00000000000NCONT   00    00000000000          00000000000000000000000000000000000000000000 000000000000000A000000000000000000000000000000000000000000000 000000000000000000000000000000000000000     00000000                                                                                                                        000000000000000000
F0010000006329600001000007016511700011050500000000000000000201409290002001YEISON CASTAÑO                                   D000000001100000000000000000000000100010010000000000000000000000F0010000006329600120140929000101 00000000000000000000000000000000000000000000000000000000000000000000000000000000000000000000000000000000000000000N 00000000000NCONT   00    00000000000          00000000000000000000000000000000000000000000 000000000000000A000000000000000000000000000000000000000000000 000000000000000000000000000000000000000     00000000                                                                                                                        000000000000000000
F0010000006329600002000007016511700041450500000000000000000201409290002001YEISON CASTAÑO                                   C000000001000000000000000000000000100010010000000000000000000000F0010000006329600220140929000101 00000000000000000000000000000000000000000000000000000000000000000000000000000000000000000000000000000000000000000N 00000000000NCONT   00    00000000000          00000000000000000000000000000000000000000000 000000000000000A000000000000000000000000000000000000000000000 000000000000000000000000000000000000000     00000000                                                                                                                        000000000000000000
F0010000006329600003000007016511700042505000000000000000000201409290002001YEISON CASTAÑO                                   C000000000100000000000000000000000100010010000000000000000000000F0010000006329600320140929000101 00000000000000000000000000000000000000000000000000000000000000000000000000000000000000000000000000000000000000000N 00000000000NCONT   00    00000000000          00000000000000000000000000000000000000000000 000000000000000A000000000000000000000000000000000000000000000 000000000000000000000000000000000000000     00000000                                                                                                                        000000000000000000
F0010000006329600004000007016511700023658300000000000000000201409290002001YEISON CASTAÑO                                   C000000000008000000000000000000000100010010000000000000000000000F0010000006329600420140929000101 00000000000000000000000000000000000000000000000000000000000000000000000000000000000000000000000000000000000000000N 00000000000NCONT   00    00000000000          00000000000000000000000000000000000000000000 000000000000000A000000000000000000000000000000000000000000000 000000000000000000000000000000000000000     00000000                                                                                                                        000000000000000000
F0010000006329600005000007016511700013552100000000000000000201409290002001YEISON CASTAÑO                                   D000000000008000000000000000000000100010010000000000000000000000F0010000006329600520140929000101 00000000000000000000000000000000000000000000000000000000000000000000000000000000000000000000000000000000000000000N 00000000000NCONT   00    00000000000          00000000000000000000000000000000000000000000 000000000000000A000000000000000000000000000000000000000000000 000000000000000000000000000000000000000     00000000                                                                                                                        000000000000000000
F0010000006329700001000007225511500011050500000000000000000201409290002001MAIGEL CHADID                                     D000000002000000000000000000000000100010010000000000000000000000F0010000006329700120140929000101 00000000000000000000000000000000000000000000000000000000000000000000000000000000000000000000000000000000000000000N 00000000000NCONT   00    00000000000          00000000000000000000000000000000000000000000 000000000000000A000000000000000000000000000000000000000000000 000000000000000000000000000000000000000     00000000                                                                                                                        000000000000000000
F0010000006329700002000007225511500041450500000000000000000201409290002001MAIGEL CHADID                                     C000000001500000000000000000000000100010010000000000000000000000F0010000006329700220140929000101 00000000000000000000000000000000000000000000000000000000000000000000000000000000000000000000000000000000000000000N 00000000000NCONT   00    00000000000          00000000000000000000000000000000000000000000 000000000000000A000000000000000000000000000000000000000000000 000000000000000000000000000000000000000     00000000                                                                                                                        000000000000000000
F0010000006329700003000007225511500042505000000000000000000201409290002001MAIGEL CHADID                                     C000000000500000000000000000000000100010010000000000000000000000F0010000006329700320140929000101 00000000000000000000000000000000000000000000000000000000000000000000000000000000000000000000000000000000000000000N 00000000000NCONT   00    00000000000          00000000000000000000000000000000000000000000 000000000000000A000000000000000000000000000000000000000000000 000000000000000000000000000000000000000     00000000                                                                                                                        000000000000000000
F0010000006329700004000007225511500023658300000000000000000201409290002001MAIGEL CHADID                                     C000000000012000000000000000000000100010010000000000000000000000F0010000006329700420140929000101 00000000000000000000000000000000000000000000000000000000000000000000000000000000000000000000000000000000000000000N 00000000000NCONT   00    00000000000          00000000000000000000000000000000000000000000 000000000000000A000000000000000000000000000000000000000000000 000000000000000000000000000000000000000     00000000                                                                                                                        000000000000000000
F0010000006329700005000007225511500013552100000000000000000201409290002001MAIGEL CHADID                                     D000000000012000000000000000000000100010010000000000000000000000F0010000006329700520140929000101 00000000000000000000000000000000000000000000000000000000000000000000000000000000000000000000000000000000000000000N 00000000000NCONT   00    00000000000          00000000000000000000000000000000000000000000 000000000000000A000000000000000000000000000000000000000000000 000000000000000000000000000000000000000     00000000                                                                                                                        000000000000000000
F0010000006329800001000090034602400011050500000000000000000201409290002001LA CUSTODIA                                       D000000001000000000000000000000000100010010000000000000000000000F0010000006329800120140929000101 00000000000000000000000000000000000000000000000000000000000000000000000000000000000000000000000000000000000000000N 00000000000NCONT   00    00000000000          00000000000000000000000000000000000000000000 000000000000000A000000000000000000000000000000000000000000000 000000000000000000000000000000000000000     00000000                                                                                                                        000000000000000000
F0010000006329800002000090034602400041450500000000000000000201409290002001LA CUSTODIA                                       C000000000900000000000000000000000100010010000000000000000000000F0010000006329800220140929000101 00000000000000000000000000000000000000000000000000000000000000000000000000000000000000000000000000000000000000000N 00000000000NCONT   00    00000000000          00000000000000000000000000000000000000000000 000000000000000A000000000000000000000000000000000000000000000 000000000000000000000000000000000000000     00000000                                                                                                                        000000000000000000
F0010000006329800003000090034602400042505000000000000000000201409290002001LA CUSTODIA                                       C000000000100000000000000000000000100010010000000000000000000000F0010000006329800320140929000101 00000000000000000000000000000000000000000000000000000000000000000000000000000000000000000000000000000000000000000N 00000000000NCONT   00    00000000000          00000000000000000000000000000000000000000000 000000000000000A000000000000000000000000000000000000000000000 000000000000000000000000000000000000000     00000000                                                                                                                        000000000000000000
F0010000006329800004000090034602400023658300000000000000000201409290002001LA CUSTODIA                                       C000000000007200000000000000000000100010010000000000000000000000F0010000006329800420140929000101 00000000000000000000000000000000000000000000000000000000000000000000000000000000000000000000000000000000000000000N 00000000000NCONT   00    00000000000          00000000000000000000000000000000000000000000 000000000000000A000000000000000000000000000000000000000000000 000000000000000000000000000000000000000     00000000                                                                                                                        000000000000000000
F0010000006329800005000090034602400013552100000000000000000201409290002001LA CUSTODIA                                       D000000000007200000000000000000000100010010000000000000000000000F0010000006329800520140929000101 00000000000000000000000000000000000000000000000000000000000000000000000000000000000000000000000000000000000000000N 00000000000NCONT   00    00000000000          00000000000000000000000000000000000000000000 000000000000000A000000000000000000000000000000000000000000000 000000000000000000000000000000000000000     00000000                                                                                                                        000000000000000000
F0010000006329900001000090034602400011050500000000000000000201409290002001LA CUSTODIA                                       D000000003000000000000000000000000100010010000000000000000000000F0010000006329900120140929000101 00000000000000000000000000000000000000000000000000000000000000000000000000000000000000000000000000000000000000000N 00000000000NCONT   00    00000000000          00000000000000000000000000000000000000000000 000000000000000A000000000000000000000000000000000000000000000 000000000000000000000000000000000000000     00000000                                                                                                                        000000000000000000
F0010000006329900002000090034602400041450500000000000000000201409290002001LA CUSTODIA                                       C000000002700000000000000000000000100010010000000000000000000000F0010000006329900220140929000101 00000000000000000000000000000000000000000000000000000000000000000000000000000000000000000000000000000000000000000N 00000000000NCONT   00    00000000000          00000000000000000000000000000000000000000000 000000000000000A000000000000000000000000000000000000000000000 000000000000000000000000000000000000000     00000000                                                                                                                        000000000000000000
F0010000006329900003000090034602400042505000000000000000000201409290002001LA CUSTODIA                                       C000000000300000000000000000000000100010010000000000000000000000F0010000006329900320140929000101 00000000000000000000000000000000000000000000000000000000000000000000000000000000000000000000000000000000000000000N 00000000000NCONT   00    00000000000          00000000000000000000000000000000000000000000 000000000000000A000000000000000000000000000000000000000000000 000000000000000000000000000000000000000     00000000                                                                                                                        000000000000000000
F0010000006329900004000090034602400023658300000000000000000201409290002001LA CUSTODIA                                       C000000000021600000000000000000000100010010000000000000000000000F0010000006329900420140929000101 00000000000000000000000000000000000000000000000000000000000000000000000000000000000000000000000000000000000000000N 00000000000NCONT   00    00000000000          00000000000000000000000000000000000000000000 000000000000000A000000000000000000000000000000000000000000000 000000000000000000000000000000000000000     00000000                                                                                                                        000000000000000000
F0010000006329900005000090034602400013552100000000000000000201409290002001LA CUSTODIA                                       D000000000021600000000000000000000100010010000000000000000000000F0010000006329900520140929000101 00000000000000000000000000000000000000000000000000000000000000000000000000000000000000000000000000000000000000000N 00000000000NCONT   00    00000000000          00000000000000000000000000000000000000000000 000000000000000A000000000000000000000000000000000000000000000 000000000000000000000000000000000000000     00000000                                                                                                                        000000000000000000
F0010000006330000001000001502923600011050500000000000000000201409290002001ALCIDES MARTINEZ                                  D000000001700000000000000000000000100010010000000000000000000000F0010000006330000120140929000101 00000000000000000000000000000000000000000000000000000000000000000000000000000000000000000000000000000000000000000N 00000000000NCONT   00    00000000000          00000000000000000000000000000000000000000000 000000000000000A000000000000000000000000000000000000000000000 000000000000000000000000000000000000000     00000000                                                                                                                        000000000000000000
F0010000006330000002000001502923600041450500000000000000000201409290002001ALCIDES MARTINEZ                                  C000000001100000000000000000000000100010010000000000000000000000F0010000006330000220140929000101 00000000000000000000000000000000000000000000000000000000000000000000000000000000000000000000000000000000000000000N 00000000000NCONT   00    00000000000          00000000000000000000000000000000000000000000 000000000000000A000000000000000000000000000000000000000000000 000000000000000000000000000000000000000     00000000                                                                                                                        000000000000000000
F0010000006330000003000001502923600042505000000000000000000201409290002001ALCIDES MARTINEZ                                  C000000000600000000000000000000000100010010000000000000000000000F0010000006330000320140929000101 00000000000000000000000000000000000000000000000000000000000000000000000000000000000000000000000000000000000000000N 00000000000NCONT   00    00000000000          00000000000000000000000000000000000000000000 000000000000000A000000000000000000000000000000000000000000000 000000000000000000000000000000000000000     00000000                                                                                                                        000000000000000000
F0010000006330000004000001502923600023658300000000000000000201409290002001ALCIDES MARTINEZ                                  C000000000008800000000000000000000100010010000000000000000000000F0010000006330000420140929000101 00000000000000000000000000000000000000000000000000000000000000000000000000000000000000000000000000000000000000000N 00000000000NCONT   00    00000000000          00000000000000000000000000000000000000000000 000000000000000A000000000000000000000000000000000000000000000 000000000000000000000000000000000000000     00000000                                                                                                                        000000000000000000
F0010000006330000005000001502923600013552100000000000000000201409290002001ALCIDES MARTINEZ                                  D000000000008800000000000000000000100010010000000000000000000000F0010000006330000520140929000101 00000000000000000000000000000000000000000000000000000000000000000000000000000000000000000000000000000000000000000N 00000000000NCONT   00    00000000000          00000000000000000000000000000000000000000000 000000000000000A000000000000000000000000000000000000000000000 000000000000000000000000000000000000000     00000000                                                                                                                        000000000000000000
F0010000006330100001000000876579700011050500000000000000000201409290002001JOSE LUIS MUÑOZ                                  D000000001500000000000000000000000100010010000000000000000000000F0010000006330100120140929000101 00000000000000000000000000000000000000000000000000000000000000000000000000000000000000000000000000000000000000000N 00000000000NCONT   00    00000000000          00000000000000000000000000000000000000000000 000000000000000A000000000000000000000000000000000000000000000 000000000000000000000000000000000000000     00000000                                                                                                                        000000000000000000
F0010000006330100002000000876579700041450500000000000000000201409290002001JOSE LUIS MUÑOZ                                  C000000001300000000000000000000000100010010000000000000000000000F0010000006330100220140929000101 00000000000000000000000000000000000000000000000000000000000000000000000000000000000000000000000000000000000000000N 00000000000NCONT   00    00000000000          00000000000000000000000000000000000000000000 000000000000000A000000000000000000000000000000000000000000000 000000000000000000000000000000000000000     00000000                                                                                                                        000000000000000000
F0010000006330100003000000876579700042505000000000000000000201409290002001JOSE LUIS MUÑOZ                                  C000000000200000000000000000000000100010010000000000000000000000F0010000006330100320140929000101 00000000000000000000000000000000000000000000000000000000000000000000000000000000000000000000000000000000000000000N 00000000000NCONT   00    00000000000          00000000000000000000000000000000000000000000 000000000000000A000000000000000000000000000000000000000000000 000000000000000000000000000000000000000     00000000                                                                                                                        000000000000000000
F0010000006330100004000000876579700023658300000000000000000201409290002001JOSE LUIS MUÑOZ                                  C000000000010400000000000000000000100010010000000000000000000000F0010000006330100420140929000101 00000000000000000000000000000000000000000000000000000000000000000000000000000000000000000000000000000000000000000N 00000000000NCONT   00    00000000000          00000000000000000000000000000000000000000000 000000000000000A000000000000000000000000000000000000000000000 000000000000000000000000000000000000000     00000000                                                                                                                        000000000000000000
F0010000006330100005000000876579700013552100000000000000000201409290002001JOSE LUIS MUÑOZ                                  D000000000010400000000000000000000100010010000000000000000000000F0010000006330100520140929000101 00000000000000000000000000000000000000000000000000000000000000000000000000000000000000000000000000000000000000000N 00000000000NCONT   00    00000000000          00000000000000000000000000000000000000000000 000000000000000A000000000000000000000000000000000000000000000 000000000000000000000000000000000000000     00000000                                                                                                                        000000000000000000
F0010000006330200001000080202350700011050500000000000000000201409290002001CONNY DE LA COSTA SAS                             D000000001000000000000000000000000100010010000000000000000000000F0010000006330200120140929000101 00000000000000000000000000000000000000000000000000000000000000000000000000000000000000000000000000000000000000000N 00000000000NCONT   00    00000000000          00000000000000000000000000000000000000000000 000000000000000A000000000000000000000000000000000000000000000 000000000000000000000000000000000000000     00000000                                                                                                                        000000000000000000
F0010000006330200002000080202350700041450500000000000000000201409290002001CONNY DE LA COSTA SAS                             C000000000800000000000000000000000100010010000000000000000000000F0010000006330200220140929000101 00000000000000000000000000000000000000000000000000000000000000000000000000000000000000000000000000000000000000000N 00000000000NCONT   00    00000000000          00000000000000000000000000000000000000000000 000000000000000A000000000000000000000000000000000000000000000 000000000000000000000000000000000000000     00000000                                                                                                                        000000000000000000
F0010000006330200003000080202350700042505000000000000000000201409290002001CONNY DE LA COSTA SAS                             C000000000200000000000000000000000100010010000000000000000000000F0010000006330200320140929000101 00000000000000000000000000000000000000000000000000000000000000000000000000000000000000000000000000000000000000000N 00000000000NCONT   00    00000000000          00000000000000000000000000000000000000000000 000000000000000A000000000000000000000000000000000000000000000 000000000000000000000000000000000000000     00000000                                                                                                                        000000000000000000
F0010000006330200004000080202350700023658300000000000000000201409290002001CONNY DE LA COSTA SAS                             C000000000006400000000000000000000100010010000000000000000000000F0010000006330200420140929000101 00000000000000000000000000000000000000000000000000000000000000000000000000000000000000000000000000000000000000000N 00000000000NCONT   00    00000000000          00000000000000000000000000000000000000000000 000000000000000A000000000000000000000000000000000000000000000 000000000000000000000000000000000000000     00000000                                                                                                                        000000000000000000
F0010000006330200005000080202350700013552100000000000000000201409290002001CONNY DE LA COSTA SAS                             D000000000006400000000000000000000100010010000000000000000000000F0010000006330200520140929000101 00000000000000000000000000000000000000000000000000000000000000000000000000000000000000000000000000000000000000000N 00000000000NCONT   00    00000000000          00000000000000000000000000000000000000000000 000000000000000A000000000000000000000000000000000000000000000 000000000000000000000000000000000000000     00000000                                                                                                                        000000000000000000
F0010000006330300001000000742399700011050500000000000000000201409290002001CACHARRERIA EL NUEVO CHADID                       D000000006400000000000000000000000100010010000000000000000000000F0010000006330300120140929000101 00000000000000000000000000000000000000000000000000000000000000000000000000000000000000000000000000000000000000000N 00000000000NCONT   00    00000000000          00000000000000000000000000000000000000000000 000000000000000A000000000000000000000000000000000000000000000 000000000000000000000000000000000000000     00000000                                                                                                                        000000000000000000
F0010000006330300002000000742399700041450500000000000000000201409290002001CACHARRERIA EL NUEVO CHADID                       C000000005600000000000000000000000100010010000000000000000000000F0010000006330300220140929000101 00000000000000000000000000000000000000000000000000000000000000000000000000000000000000000000000000000000000000000N 00000000000NCONT   00    00000000000          00000000000000000000000000000000000000000000 000000000000000A000000000000000000000000000000000000000000000 000000000000000000000000000000000000000     00000000                                                                                                                        000000000000000000
F0010000006330300003000000742399700042505000000000000000000201409290002001CACHARRERIA EL NUEVO CHADID                       C000000000800000000000000000000000100010010000000000000000000000F0010000006330300320140929000101 00000000000000000000000000000000000000000000000000000000000000000000000000000000000000000000000000000000000000000N 00000000000NCONT   00    00000000000          00000000000000000000000000000000000000000000 000000000000000A000000000000000000000000000000000000000000000 000000000000000000000000000000000000000     00000000                                                                                                                        000000000000000000
F0010000006330300004000000742399700023658300000000000000000201409290002001CACHARRERIA EL NUEVO CHADID                       C000000000044800000000000000000000100010010000000000000000000000F0010000006330300420140929000101 00000000000000000000000000000000000000000000000000000000000000000000000000000000000000000000000000000000000000000N 00000000000NCONT   00    00000000000          00000000000000000000000000000000000000000000 000000000000000A000000000000000000000000000000000000000000000 000000000000000000000000000000000000000     00000000                                                                                                                        000000000000000000
F0010000006330300005000000742399700013552100000000000000000201409290002001CACHARRERIA EL NUEVO CHADID                       D000000000044800000000000000000000100010010000000000000000000000F0010000006330300520140929000101 00000000000000000000000000000000000000000000000000000000000000000000000000000000000000000000000000000000000000000N 00000000000NCONT   00    00000000000          00000000000000000000000000000000000000000000 000000000000000A000000000000000000000000000000000000000000000 000000000000000000000000000000000000000     00000000                                                                                                                        000000000000000000
F0010000006330400001000000742399700011050500000000000000000201409290002001CACHARRERIA EL NUEVO CHADID                       D000000001800000000000000000000000100010010000000000000000000000F0010000006330400120140929000101 00000000000000000000000000000000000000000000000000000000000000000000000000000000000000000000000000000000000000000N 00000000000NCONT   00    00000000000          00000000000000000000000000000000000000000000 000000000000000A000000000000000000000000000000000000000000000 000000000000000000000000000000000000000     00000000                                                                                                                        000000000000000000
F0010000006330400002000000742399700041450500000000000000000201409290002001CACHARRERIA EL NUEVO CHADID                       C000000001500000000000000000000000100010010000000000000000000000F0010000006330400220140929000101 00000000000000000000000000000000000000000000000000000000000000000000000000000000000000000000000000000000000000000N 00000000000NCONT   00    00000000000          00000000000000000000000000000000000000000000 000000000000000A000000000000000000000000000000000000000000000 000000000000000000000000000000000000000     00000000                                                                                                                        000000000000000000
F0010000006330400003000000742399700042505000000000000000000201409290002001CACHARRERIA EL NUEVO CHADID                       C000000000300000000000000000000000100010010000000000000000000000F0010000006330400320140929000101 00000000000000000000000000000000000000000000000000000000000000000000000000000000000000000000000000000000000000000N 00000000000NCONT   00    00000000000          00000000000000000000000000000000000000000000 000000000000000A000000000000000000000000000000000000000000000 000000000000000000000000000000000000000     00000000                                                                                                                        000000000000000000
F0010000006330400004000000742399700023658300000000000000000201409290002001CACHARRERIA EL NUEVO CHADID                       C000000000012000000000000000000000100010010000000000000000000000F0010000006330400420140929000101 00000000000000000000000000000000000000000000000000000000000000000000000000000000000000000000000000000000000000000N 00000000000NCONT   00    00000000000          00000000000000000000000000000000000000000000 000000000000000A000000000000000000000000000000000000000000000 000000000000000000000000000000000000000     00000000                                                                                                                        000000000000000000
F0010000006330400005000000742399700013552100000000000000000201409290002001CACHARRERIA EL NUEVO CHADID                       D000000000012000000000000000000000100010010000000000000000000000F0010000006330400520140929000101 00000000000000000000000000000000000000000000000000000000000000000000000000000000000000000000000000000000000000000N 00000000000NCONT   00    00000000000          00000000000000000000000000000000000000000000 000000000000000A000000000000000000000000000000000000000000000 000000000000000000000000000000000000000     00000000                                                                                                                        000000000000000000
F0010000006330500001000000742399700011050500000000000000000201409290002001CACHARRERIA EL NUEVO CHADID                       D000000010000000000000000000000000100010010000000000000000000000F0010000006330500120140929000101 00000000000000000000000000000000000000000000000000000000000000000000000000000000000000000000000000000000000000000N 00000000000NCONT   00    00000000000          00000000000000000000000000000000000000000000 000000000000000A000000000000000000000000000000000000000000000 000000000000000000000000000000000000000     00000000                                                                                                                        000000000000000000
F0010000006330500002000000742399700041450500000000000000000201409290002001CACHARRERIA EL NUEVO CHADID                       C000000009000000000000000000000000100010010000000000000000000000F0010000006330500220140929000101 00000000000000000000000000000000000000000000000000000000000000000000000000000000000000000000000000000000000000000N 00000000000NCONT   00    00000000000          00000000000000000000000000000000000000000000 000000000000000A000000000000000000000000000000000000000000000 000000000000000000000000000000000000000     00000000                                                                                                                        000000000000000000
F0010000006330500003000000742399700042505000000000000000000201409290002001CACHARRERIA EL NUEVO CHADID                       C000000001000000000000000000000000100010010000000000000000000000F0010000006330500320140929000101 00000000000000000000000000000000000000000000000000000000000000000000000000000000000000000000000000000000000000000N 00000000000NCONT   00    00000000000          00000000000000000000000000000000000000000000 000000000000000A000000000000000000000000000000000000000000000 000000000000000000000000000000000000000     00000000                                                                                                                        000000000000000000
F0010000006330500004000000742399700023658300000000000000000201409290002001CACHARRERIA EL NUEVO CHADID                       C000000000072000000000000000000000100010010000000000000000000000F0010000006330500420140929000101 00000000000000000000000000000000000000000000000000000000000000000000000000000000000000000000000000000000000000000N 00000000000NCONT   00    00000000000          00000000000000000000000000000000000000000000 000000000000000A000000000000000000000000000000000000000000000 000000000000000000000000000000000000000     00000000                                                                                                                        000000000000000000
F0010000006330500005000000742399700013552100000000000000000201409290002001CACHARRERIA EL NUEVO CHADID                       D000000000072000000000000000000000100010010000000000000000000000F0010000006330500520140929000101 00000000000000000000000000000000000000000000000000000000000000000000000000000000000000000000000000000000000000000N 00000000000NCONT   00    00000000000          00000000000000000000000000000000000000000000 000000000000000A000000000000000000000000000000000000000000000 000000000000000000000000000000000000000     00000000                                                                                                                        000000000000000000
F0010000006330600001000007904689600011050500000000000000000201409290002001VICTOR MANUEL BOCANEGRA RAMIREZ                   D000000001000000000000000000000000100010010000000000000000000000F0010000006330600120140929000101 00000000000000000000000000000000000000000000000000000000000000000000000000000000000000000000000000000000000000000N 00000000000NCONT   00    00000000000          00000000000000000000000000000000000000000000 000000000000000A000000000000000000000000000000000000000000000 000000000000000000000000000000000000000     00000000                                                                                                                        000000000000000000
F0010000006330600002000007904689600041450500000000000000000201409290002001VICTOR MANUEL BOCANEGRA RAMIREZ                   C000000000900000000000000000000000100010010000000000000000000000F0010000006330600220140929000101 00000000000000000000000000000000000000000000000000000000000000000000000000000000000000000000000000000000000000000N 00000000000NCONT   00    00000000000          00000000000000000000000000000000000000000000 000000000000000A000000000000000000000000000000000000000000000 000000000000000000000000000000000000000     00000000                                                                                                                        000000000000000000
F0010000006330600003000007904689600042505000000000000000000201409290002001VICTOR MANUEL BOCANEGRA RAMIREZ                   C000000000100000000000000000000000100010010000000000000000000000F0010000006330600320140929000101 00000000000000000000000000000000000000000000000000000000000000000000000000000000000000000000000000000000000000000N 00000000000NCONT   00    00000000000          00000000000000000000000000000000000000000000 000000000000000A000000000000000000000000000000000000000000000 000000000000000000000000000000000000000     00000000                                                                                                                        000000000000000000
F0010000006330600004000007904689600023658300000000000000000201409290002001VICTOR MANUEL BOCANEGRA RAMIREZ                   C000000000007200000000000000000000100010010000000000000000000000F0010000006330600420140929000101 00000000000000000000000000000000000000000000000000000000000000000000000000000000000000000000000000000000000000000N 00000000000NCONT   00    00000000000          00000000000000000000000000000000000000000000 000000000000000A000000000000000000000000000000000000000000000 000000000000000000000000000000000000000     00000000                                                                                                                        000000000000000000
F0010000006330600005000007904689600013552100000000000000000201409290002001VICTOR MANUEL BOCANEGRA RAMIREZ                   D000000000007200000000000000000000100010010000000000000000000000F0010000006330600520140929000101 00000000000000000000000000000000000000000000000000000000000000000000000000000000000000000000000000000000000000000N 00000000000NCONT   00    00000000000          00000000000000000000000000000000000000000000 000000000000000A000000000000000000000000000000000000000000000 000000000000000000000000000000000000000     00000000                                                                                                                        000000000000000000
F0010000006330700001000007904689600011050500000000000000000201409290002001VICTOR MANUEL BOCANEGRA RAMIREZ                   D000000001000000000000000000000000100010010000000000000000000000F0010000006330700120140929000101 00000000000000000000000000000000000000000000000000000000000000000000000000000000000000000000000000000000000000000N 00000000000NCONT   00    00000000000          00000000000000000000000000000000000000000000 000000000000000A000000000000000000000000000000000000000000000 000000000000000000000000000000000000000     00000000                                                                                                                        000000000000000000
F0010000006330700002000007904689600041450500000000000000000201409290002001VICTOR MANUEL BOCANEGRA RAMIREZ                   C000000000900000000000000000000000100010010000000000000000000000F0010000006330700220140929000101 00000000000000000000000000000000000000000000000000000000000000000000000000000000000000000000000000000000000000000N 00000000000NCONT   00    00000000000          00000000000000000000000000000000000000000000 000000000000000A000000000000000000000000000000000000000000000 000000000000000000000000000000000000000     00000000                                                                                                                        000000000000000000
F0010000006330700003000007904689600042505000000000000000000201409290002001VICTOR MANUEL BOCANEGRA RAMIREZ                   C000000000100000000000000000000000100010010000000000000000000000F0010000006330700320140929000101 00000000000000000000000000000000000000000000000000000000000000000000000000000000000000000000000000000000000000000N 00000000000NCONT   00    00000000000          00000000000000000000000000000000000000000000 000000000000000A000000000000000000000000000000000000000000000 000000000000000000000000000000000000000     00000000                                                                                                                        000000000000000000
F0010000006330700004000007904689600023658300000000000000000201409290002001VICTOR MANUEL BOCANEGRA RAMIREZ                   C000000000007200000000000000000000100010010000000000000000000000F0010000006330700420140929000101 00000000000000000000000000000000000000000000000000000000000000000000000000000000000000000000000000000000000000000N 00000000000NCONT   00    00000000000          00000000000000000000000000000000000000000000 000000000000000A000000000000000000000000000000000000000000000 000000000000000000000000000000000000000     00000000                                                                                                                        000000000000000000
F0010000006330700005000007904689600013552100000000000000000201409290002001VICTOR MANUEL BOCANEGRA RAMIREZ                   D000000000007200000000000000000000100010010000000000000000000000F0010000006330700520140929000101 00000000000000000000000000000000000000000000000000000000000000000000000000000000000000000000000000000000000000000N 00000000000NCONT   00    00000000000          00000000000000000000000000000000000000000000 000000000000000A000000000000000000000000000000000000000000000 000000000000000000000000000000000000000     00000000                                                                                                                        000000000000000000
F0010000006330800001000007904689600011050500000000000000000201409290002001VICTOR MANUEL BOCANEGRA RAMIREZ                   D000000001000000000000000000000000100010010000000000000000000000F0010000006330800120140929000101 00000000000000000000000000000000000000000000000000000000000000000000000000000000000000000000000000000000000000000N 00000000000NCONT   00    00000000000          00000000000000000000000000000000000000000000 000000000000000A000000000000000000000000000000000000000000000 000000000000000000000000000000000000000     00000000                                                                                                                        000000000000000000
F0010000006330800002000007904689600041450500000000000000000201409290002001VICTOR MANUEL BOCANEGRA RAMIREZ                   C000000000900000000000000000000000100010010000000000000000000000F0010000006330800220140929000101 00000000000000000000000000000000000000000000000000000000000000000000000000000000000000000000000000000000000000000N 00000000000NCONT   00    00000000000          00000000000000000000000000000000000000000000 000000000000000A000000000000000000000000000000000000000000000 000000000000000000000000000000000000000     00000000                                                                                                                        000000000000000000
F0010000006330800003000007904689600042505000000000000000000201409290002001VICTOR MANUEL BOCANEGRA RAMIREZ                   C000000000100000000000000000000000100010010000000000000000000000F0010000006330800320140929000101 00000000000000000000000000000000000000000000000000000000000000000000000000000000000000000000000000000000000000000N 00000000000NCONT   00    00000000000          00000000000000000000000000000000000000000000 000000000000000A000000000000000000000000000000000000000000000 000000000000000000000000000000000000000     00000000                                                                                                                        000000000000000000
F0010000006330800004000007904689600023658300000000000000000201409290002001VICTOR MANUEL BOCANEGRA RAMIREZ                   C000000000007200000000000000000000100010010000000000000000000000F0010000006330800420140929000101 00000000000000000000000000000000000000000000000000000000000000000000000000000000000000000000000000000000000000000N 00000000000NCONT   00    00000000000          00000000000000000000000000000000000000000000 000000000000000A000000000000000000000000000000000000000000000 000000000000000000000000000000000000000     00000000                                                                                                                        000000000000000000
F0010000006330800005000007904689600013552100000000000000000201409290002001VICTOR MANUEL BOCANEGRA RAMIREZ                   D000000000007200000000000000000000100010010000000000000000000000F0010000006330800520140929000101 00000000000000000000000000000000000000000000000000000000000000000000000000000000000000000000000000000000000000000N 00000000000NCONT   00    00000000000          00000000000000000000000000000000000000000000 000000000000000A000000000000000000000000000000000000000000000 000000000000000000000000000000000000000     00000000                                                                                                                        000000000000000000
F0010000006330900001000007904689600011050500000000000000000201409290002001VICTOR MANUEL BOCANEGRA RAMIREZ                   D000000001000000000000000000000000100010010000000000000000000000F0010000006330900120140929000101 00000000000000000000000000000000000000000000000000000000000000000000000000000000000000000000000000000000000000000N 00000000000NCONT   00    00000000000          00000000000000000000000000000000000000000000 000000000000000A000000000000000000000000000000000000000000000 000000000000000000000000000000000000000     00000000                                                                                                                        000000000000000000
F0010000006330900002000007904689600041450500000000000000000201409290002001VICTOR MANUEL BOCANEGRA RAMIREZ                   C000000000900000000000000000000000100010010000000000000000000000F0010000006330900220140929000101 00000000000000000000000000000000000000000000000000000000000000000000000000000000000000000000000000000000000000000N 00000000000NCONT   00    00000000000          00000000000000000000000000000000000000000000 000000000000000A000000000000000000000000000000000000000000000 000000000000000000000000000000000000000     00000000                                                                                                                        000000000000000000
F0010000006330900003000007904689600042505000000000000000000201409290002001VICTOR MANUEL BOCANEGRA RAMIREZ                   C000000000100000000000000000000000100010010000000000000000000000F0010000006330900320140929000101 00000000000000000000000000000000000000000000000000000000000000000000000000000000000000000000000000000000000000000N 00000000000NCONT   00    00000000000          00000000000000000000000000000000000000000000 000000000000000A000000000000000000000000000000000000000000000 000000000000000000000000000000000000000     00000000                                                                                                                        000000000000000000
F0010000006330900004000007904689600023658300000000000000000201409290002001VICTOR MANUEL BOCANEGRA RAMIREZ                   C000000000007200000000000000000000100010010000000000000000000000F0010000006330900420140929000101 00000000000000000000000000000000000000000000000000000000000000000000000000000000000000000000000000000000000000000N 00000000000NCONT   00    00000000000          00000000000000000000000000000000000000000000 000000000000000A000000000000000000000000000000000000000000000 000000000000000000000000000000000000000     00000000                                                                                                                        000000000000000000
F0010000006330900005000007904689600013552100000000000000000201409290002001VICTOR MANUEL BOCANEGRA RAMIREZ                   D000000000007200000000000000000000100010010000000000000000000000F0010000006330900520140929000101 00000000000000000000000000000000000000000000000000000000000000000000000000000000000000000000000000000000000000000N 00000000000NCONT   00    00000000000          00000000000000000000000000000000000000000000 000000000000000A000000000000000000000000000000000000000000000 000000000000000000000000000000000000000     00000000                                                                                                                        000000000000000000
F0010000006331000001000007904689600011050500000000000000000201409290002001VICTOR MANUEL BOCANEGRA RAMIREZ                   D000000001000000000000000000000000100010010000000000000000000000F0010000006331000120140929000101 00000000000000000000000000000000000000000000000000000000000000000000000000000000000000000000000000000000000000000N 00000000000NCONT   00    00000000000          00000000000000000000000000000000000000000000 000000000000000A000000000000000000000000000000000000000000000 000000000000000000000000000000000000000     00000000                                                                                                                        000000000000000000
F0010000006331000002000007904689600041450500000000000000000201409290002001VICTOR MANUEL BOCANEGRA RAMIREZ                   C000000000900000000000000000000000100010010000000000000000000000F0010000006331000220140929000101 00000000000000000000000000000000000000000000000000000000000000000000000000000000000000000000000000000000000000000N 00000000000NCONT   00    00000000000          00000000000000000000000000000000000000000000 000000000000000A000000000000000000000000000000000000000000000 000000000000000000000000000000000000000     00000000                                                                                                                        000000000000000000
F0010000006331000003000007904689600042505000000000000000000201409290002001VICTOR MANUEL BOCANEGRA RAMIREZ                   C000000000100000000000000000000000100010010000000000000000000000F0010000006331000320140929000101 00000000000000000000000000000000000000000000000000000000000000000000000000000000000000000000000000000000000000000N 00000000000NCONT   00    00000000000          00000000000000000000000000000000000000000000 000000000000000A000000000000000000000000000000000000000000000 000000000000000000000000000000000000000     00000000                                                                                                                        000000000000000000
F0010000006331000004000007904689600023658300000000000000000201409290002001VICTOR MANUEL BOCANEGRA RAMIREZ                   C000000000007200000000000000000000100010010000000000000000000000F0010000006331000420140929000101 00000000000000000000000000000000000000000000000000000000000000000000000000000000000000000000000000000000000000000N 00000000000NCONT   00    00000000000          00000000000000000000000000000000000000000000 000000000000000A000000000000000000000000000000000000000000000 000000000000000000000000000000000000000     00000000                                                                                                                        000000000000000000
F0010000006331000005000007904689600013552100000000000000000201409290002001VICTOR MANUEL BOCANEGRA RAMIREZ                   D000000000007200000000000000000000100010010000000000000000000000F0010000006331000520140929000101 00000000000000000000000000000000000000000000000000000000000000000000000000000000000000000000000000000000000000000N 00000000000NCONT   00    00000000000          00000000000000000000000000000000000000000000 000000000000000A000000000000000000000000000000000000000000000 000000000000000000000000000000000000000     00000000                                                                                                                        000000000000000000
F0010000006331100001000007904689600011050500000000000000000201409290002001VICTOR MANUEL BOCANEGRA RAMIREZ                   D000000002000000000000000000000000100010010000000000000000000000F0010000006331100120140929000101 00000000000000000000000000000000000000000000000000000000000000000000000000000000000000000000000000000000000000000N 00000000000NCONT   00    00000000000          00000000000000000000000000000000000000000000 000000000000000A000000000000000000000000000000000000000000000 000000000000000000000000000000000000000     00000000                                                                                                                        000000000000000000
F0010000006331100002000007904689600041450500000000000000000201409290002001VICTOR MANUEL BOCANEGRA RAMIREZ                   C000000001800000000000000000000000100010010000000000000000000000F0010000006331100220140929000101 00000000000000000000000000000000000000000000000000000000000000000000000000000000000000000000000000000000000000000N 00000000000NCONT   00    00000000000          00000000000000000000000000000000000000000000 000000000000000A000000000000000000000000000000000000000000000 000000000000000000000000000000000000000     00000000                                                                                                                        000000000000000000
F0010000006331100003000007904689600042505000000000000000000201409290002001VICTOR MANUEL BOCANEGRA RAMIREZ                   C000000000200000000000000000000000100010010000000000000000000000F0010000006331100320140929000101 00000000000000000000000000000000000000000000000000000000000000000000000000000000000000000000000000000000000000000N 00000000000NCONT   00    00000000000          00000000000000000000000000000000000000000000 000000000000000A000000000000000000000000000000000000000000000 000000000000000000000000000000000000000     00000000                                                                                                                        000000000000000000
F0010000006331100004000007904689600023658300000000000000000201409290002001VICTOR MANUEL BOCANEGRA RAMIREZ                   C000000000014400000000000000000000100010010000000000000000000000F0010000006331100420140929000101 00000000000000000000000000000000000000000000000000000000000000000000000000000000000000000000000000000000000000000N 00000000000NCONT   00    00000000000          00000000000000000000000000000000000000000000 000000000000000A000000000000000000000000000000000000000000000 000000000000000000000000000000000000000     00000000                                                                                                                        000000000000000000
F0010000006331100005000007904689600013552100000000000000000201409290002001VICTOR MANUEL BOCANEGRA RAMIREZ                   D000000000014400000000000000000000100010010000000000000000000000F0010000006331100520140929000101 00000000000000000000000000000000000000000000000000000000000000000000000000000000000000000000000000000000000000000N 00000000000NCONT   00    00000000000          00000000000000000000000000000000000000000000 000000000000000A000000000000000000000000000000000000000000000 000000000000000000000000000000000000000     00000000                                                                                                                        000000000000000000
F0010000006331200001000000000000000011050500000000000000000201409290002001GRAFICAS DEL LITORAL                              D000000033500000000000000000000000100010010000000000000000000000F0010000006331200120140929000101 00000000000000000000000000000000000000000000000000000000000000000000000000000000000000000000000000000000000000000N 00000000000NCONT   00    00000000000          00000000000000000000000000000000000000000000 000000000000000A000000000000000000000000000000000000000000000 000000000000000000000000000000000000000     00000000                                                                                                                        000000000000000000
F0010000006331200002000000000000000041450500000000000000000201409290002001GRAFICAS DEL LITORAL                              C000000033000000000000000000000000100010010000000000000000000000F0010000006331200220140929000101 00000000000000000000000000000000000000000000000000000000000000000000000000000000000000000000000000000000000000000N 00000000000NCONT   00    00000000000          00000000000000000000000000000000000000000000 000000000000000A000000000000000000000000000000000000000000000 000000000000000000000000000000000000000     00000000                                                                                                                        000000000000000000
F0010000006331200003000000000000000042505000000000000000000201409290002001GRAFICAS DEL LITORAL                              C000000000500000000000000000000000100010010000000000000000000000F0010000006331200320140929000101 00000000000000000000000000000000000000000000000000000000000000000000000000000000000000000000000000000000000000000N 00000000000NCONT   00    00000000000          00000000000000000000000000000000000000000000 000000000000000A000000000000000000000000000000000000000000000 000000000000000000000000000000000000000     00000000                                                                                                                        000000000000000000
F0010000006331200004000000000000000023658300000000000000000201409290002001GRAFICAS DEL LITORAL                              C000000000264000000000000000000000100010010000000000000000000000F0010000006331200420140929000101 00000000000000000000000000000000000000000000000000000000000000000000000000000000000000000000000000000000000000000N 00000000000NCONT   00    00000000000          00000000000000000000000000000000000000000000 000000000000000A000000000000000000000000000000000000000000000 000000000000000000000000000000000000000     00000000                                                                                                                        000000000000000000
F0010000006331200005000000000000000013552100000000000000000201409290002001GRAFICAS DEL LITORAL                              D000000000264000000000000000000000100010010000000000000000000000F0010000006331200520140929000101 00000000000000000000000000000000000000000000000000000000000000000000000000000000000000000000000000000000000000000N 00000000000NCONT   00    00000000000          00000000000000000000000000000000000000000000 000000000000000A000000000000000000000000000000000000000000000 000000000000000000000000000000000000000     00000000                                                                                                                        000000000000000000
F0010000006331300001000000327411700011050500000000000000000201409290002001HIDROTEC COLOMBIA                                 D000000010000000000000000000000000100010010000000000000000000000F0010000006331300120140929000101 00000000000000000000000000000000000000000000000000000000000000000000000000000000000000000000000000000000000000000N 00000000000NCONT   00    00000000000          00000000000000000000000000000000000000000000 000000000000000A000000000000000000000000000000000000000000000 000000000000000000000000000000000000000     00000000                                                                                                                        000000000000000000
F0010000006331300002000000327411700041450500000000000000000201409290002001HIDROTEC COLOMBIA                                 C000000008000000000000000000000000100010010000000000000000000000F0010000006331300220140929000101 00000000000000000000000000000000000000000000000000000000000000000000000000000000000000000000000000000000000000000N 00000000000NCONT   00    00000000000          00000000000000000000000000000000000000000000 000000000000000A000000000000000000000000000000000000000000000 000000000000000000000000000000000000000     00000000                                                                                                                        000000000000000000
F0010000006331300003000000327411700042505000000000000000000201409290002001HIDROTEC COLOMBIA                                 C000000002000000000000000000000000100010010000000000000000000000F0010000006331300320140929000101 00000000000000000000000000000000000000000000000000000000000000000000000000000000000000000000000000000000000000000N 00000000000NCONT   00    00000000000          00000000000000000000000000000000000000000000 000000000000000A000000000000000000000000000000000000000000000 000000000000000000000000000000000000000     00000000                                                                                                                        000000000000000000
F0010000006331300004000000327411700023658300000000000000000201409290002001HIDROTEC COLOMBIA                                 C000000000064000000000000000000000100010010000000000000000000000F0010000006331300420140929000101 00000000000000000000000000000000000000000000000000000000000000000000000000000000000000000000000000000000000000000N 00000000000NCONT   00    00000000000          00000000000000000000000000000000000000000000 000000000000000A000000000000000000000000000000000000000000000 000000000000000000000000000000000000000     00000000                                                                                                                        000000000000000000
F0010000006331300005000000327411700013552100000000000000000201409290002001HIDROTEC COLOMBIA                                 D000000000064000000000000000000000100010010000000000000000000000F0010000006331300520140929000101 00000000000000000000000000000000000000000000000000000000000000000000000000000000000000000000000000000000000000000N 00000000000NCONT   00    00000000000          00000000000000000000000000000000000000000000 000000000000000A000000000000000000000000000000000000000000000 000000000000000000000000000000000000000     00000000                                                                                                                        000000000000000000
F0010000006331400001000107225647100011050500000000000000000201409290002001JHON BYRON DUQUE DONADO (BODEGA JHONIFER)         D000000001200000000000000000000000100010010000000000000000000000F0010000006331400120140929000101 00000000000000000000000000000000000000000000000000000000000000000000000000000000000000000000000000000000000000000N 00000000000NCONT   00    00000000000          00000000000000000000000000000000000000000000 000000000000000A000000000000000000000000000000000000000000000 000000000000000000000000000000000000000     00000000                                                                                                                        000000000000000000
F0010000006331400002000107225647100041450500000000000000000201409290002001JHON BYRON DUQUE DONADO (BODEGA JHONIFER)         C000000000900000000000000000000000100010010000000000000000000000F0010000006331400220140929000101 00000000000000000000000000000000000000000000000000000000000000000000000000000000000000000000000000000000000000000N 00000000000NCONT   00    00000000000          00000000000000000000000000000000000000000000 000000000000000A000000000000000000000000000000000000000000000 000000000000000000000000000000000000000     00000000                                                                                                                        000000000000000000
F0010000006331400003000107225647100042505000000000000000000201409290002001JHON BYRON DUQUE DONADO (BODEGA JHONIFER)         C000000000300000000000000000000000100010010000000000000000000000F0010000006331400320140929000101 00000000000000000000000000000000000000000000000000000000000000000000000000000000000000000000000000000000000000000N 00000000000NCONT   00    00000000000          00000000000000000000000000000000000000000000 000000000000000A000000000000000000000000000000000000000000000 000000000000000000000000000000000000000     00000000                                                                                                                        000000000000000000
F0010000006331400004000107225647100023658300000000000000000201409290002001JHON BYRON DUQUE DONADO (BODEGA JHONIFER)         C000000000007200000000000000000000100010010000000000000000000000F0010000006331400420140929000101 00000000000000000000000000000000000000000000000000000000000000000000000000000000000000000000000000000000000000000N 00000000000NCONT   00    00000000000          00000000000000000000000000000000000000000000 000000000000000A000000000000000000000000000000000000000000000 000000000000000000000000000000000000000     00000000                                                                                                                        000000000000000000
F0010000006331400005000107225647100013552100000000000000000201409290002001JHON BYRON DUQUE DONADO (BODEGA JHONIFER)         D000000000007200000000000000000000100010010000000000000000000000F0010000006331400520140929000101 00000000000000000000000000000000000000000000000000000000000000000000000000000000000000000000000000000000000000000N 00000000000NCONT   00    00000000000          00000000000000000000000000000000000000000000 000000000000000A000000000000000000000000000000000000000000000 000000000000000000000000000000000000000     00000000                                                                                                                        000000000000000000
F0010000006331500001000002245670100011050500000000000000000201409290002001YOLANDA  TOBON                                    D000000002900000000000000000000000100010010000000000000000000000F0010000006331500120140929000101 00000000000000000000000000000000000000000000000000000000000000000000000000000000000000000000000000000000000000000N 00000000000NCONT   00    00000000000          00000000000000000000000000000000000000000000 000000000000000A000000000000000000000000000000000000000000000 000000000000000000000000000000000000000     00000000                                                                                                                        000000000000000000
F0010000006331500002000002245670100041450500000000000000000201409290002001YOLANDA  TOBON                                    C000000002400000000000000000000000100010010000000000000000000000F0010000006331500220140929000101 00000000000000000000000000000000000000000000000000000000000000000000000000000000000000000000000000000000000000000N 00000000000NCONT   00    00000000000          00000000000000000000000000000000000000000000 000000000000000A000000000000000000000000000000000000000000000 000000000000000000000000000000000000000     00000000                                                                                                                        000000000000000000
F0010000006331500003000002245670100042505000000000000000000201409290002001YOLANDA  TOBON                                    C000000000500000000000000000000000100010010000000000000000000000F0010000006331500320140929000101 00000000000000000000000000000000000000000000000000000000000000000000000000000000000000000000000000000000000000000N 00000000000NCONT   00    00000000000          00000000000000000000000000000000000000000000 000000000000000A000000000000000000000000000000000000000000000 000000000000000000000000000000000000000     00000000                                                                                                                        000000000000000000
F0010000006331500004000002245670100023658300000000000000000201409290002001YOLANDA  TOBON                                    C000000000019200000000000000000000100010010000000000000000000000F0010000006331500420140929000101 00000000000000000000000000000000000000000000000000000000000000000000000000000000000000000000000000000000000000000N 00000000000NCONT   00    00000000000          00000000000000000000000000000000000000000000 000000000000000A000000000000000000000000000000000000000000000 000000000000000000000000000000000000000     00000000                                                                                                                        000000000000000000
F0010000006331500005000002245670100013552100000000000000000201409290002001YOLANDA  TOBON                                    D000000000019200000000000000000000100010010000000000000000000000F0010000006331500520140929000101 00000000000000000000000000000000000000000000000000000000000000000000000000000000000000000000000000000000000000000N 00000000000NCONT   00    00000000000          00000000000000000000000000000000000000000000 000000000000000A000000000000000000000000000000000000000000000 000000000000000000000000000000000000000     00000000                                                                                                                        000000000000000000
F0010000006331600001000007223972300011050500000000000000000201409290002001LUIS VALENCIA                                     D000000002900000000000000000000000100010010000000000000000000000F0010000006331600120140929000101 00000000000000000000000000000000000000000000000000000000000000000000000000000000000000000000000000000000000000000N 00000000000NCONT   00    00000000000          00000000000000000000000000000000000000000000 000000000000000A000000000000000000000000000000000000000000000 000000000000000000000000000000000000000     00000000                                                                                                                        000000000000000000
F0010000006331600002000007223972300041450500000000000000000201409290002001LUIS VALENCIA                                     C000000002700000000000000000000000100010010000000000000000000000F0010000006331600220140929000101 00000000000000000000000000000000000000000000000000000000000000000000000000000000000000000000000000000000000000000N 00000000000NCONT   00    00000000000          00000000000000000000000000000000000000000000 000000000000000A000000000000000000000000000000000000000000000 000000000000000000000000000000000000000     00000000                                                                                                                        000000000000000000
F0010000006331600003000007223972300042505000000000000000000201409290002001LUIS VALENCIA                                     C000000000200000000000000000000000100010010000000000000000000000F0010000006331600320140929000101 00000000000000000000000000000000000000000000000000000000000000000000000000000000000000000000000000000000000000000N 00000000000NCONT   00    00000000000          00000000000000000000000000000000000000000000 000000000000000A000000000000000000000000000000000000000000000 000000000000000000000000000000000000000     00000000                                                                                                                        000000000000000000
F0010000006331600004000007223972300023658300000000000000000201409290002001LUIS VALENCIA                                     C000000000021600000000000000000000100010010000000000000000000000F0010000006331600420140929000101 00000000000000000000000000000000000000000000000000000000000000000000000000000000000000000000000000000000000000000N 00000000000NCONT   00    00000000000          00000000000000000000000000000000000000000000 000000000000000A000000000000000000000000000000000000000000000 000000000000000000000000000000000000000     00000000                                                                                                                        000000000000000000
F0010000006331600005000007223972300013552100000000000000000201409290002001LUIS VALENCIA                                     D000000000021600000000000000000000100010010000000000000000000000F0010000006331600520140929000101 00000000000000000000000000000000000000000000000000000000000000000000000000000000000000000000000000000000000000000N 00000000000NCONT   00    00000000000          00000000000000000000000000000000000000000000 000000000000000A000000000000000000000000000000000000000000000 000000000000000000000000000000000000000     00000000                                                                                                                        000000000000000000
F0010000006331700001000001022529300011050500000000000000000201409290002001ALBERTO ALVAREZ ISAZA                             D000000002930000000000000000000000100010010000000000000000000000F0010000006331700120140929000101 00000000000000000000000000000000000000000000000000000000000000000000000000000000000000000000000000000000000000000N 00000000000NCONT   00    00000000000          00000000000000000000000000000000000000000000 000000000000000A000000000000000000000000000000000000000000000 000000000000000000000000000000000000000     00000000                                                                                                                        000000000000000000
F0010000006331700002000001022529300041450500000000000000000201409290002001ALBERTO ALVAREZ ISAZA                             C000000002580000000000000000000000100010010000000000000000000000F0010000006331700220140929000101 00000000000000000000000000000000000000000000000000000000000000000000000000000000000000000000000000000000000000000N 00000000000NCONT   00    00000000000          00000000000000000000000000000000000000000000 000000000000000A000000000000000000000000000000000000000000000 000000000000000000000000000000000000000     00000000                                                                                                                        000000000000000000
F0010000006331700003000001022529300042505000000000000000000201409290002001ALBERTO ALVAREZ ISAZA                             C000000000350000000000000000000000100010010000000000000000000000F0010000006331700320140929000101 00000000000000000000000000000000000000000000000000000000000000000000000000000000000000000000000000000000000000000N 00000000000NCONT   00    00000000000          00000000000000000000000000000000000000000000 000000000000000A000000000000000000000000000000000000000000000 000000000000000000000000000000000000000     00000000                                                                                                                        000000000000000000
F0010000006331700004000001022529300023658300000000000000000201409290002001ALBERTO ALVAREZ ISAZA                             C000000000020600000000000000000000100010010000000000000000000000F0010000006331700420140929000101 00000000000000000000000000000000000000000000000000000000000000000000000000000000000000000000000000000000000000000N 00000000000NCONT   00    00000000000          00000000000000000000000000000000000000000000 000000000000000A000000000000000000000000000000000000000000000 000000000000000000000000000000000000000     00000000                                                                                                                        000000000000000000
F0010000006331700005000001022529300013552100000000000000000201409290002001ALBERTO ALVAREZ ISAZA                             D000000000020600000000000000000000100010010000000000000000000000F0010000006331700520140929000101 00000000000000000000000000000000000000000000000000000000000000000000000000000000000000000000000000000000000000000N 00000000000NCONT   00    00000000000          00000000000000000000000000000000000000000000 000000000000000A000000000000000000000000000000000000000000000 000000000000000000000000000000000000000     00000000                                                                                                                        000000000000000000
F0010000006331800001000001022529300011050500000000000000000201409290002001ALBERTO ALVAREZ ISAZA                             D000000001870000000000000000000000100010010000000000000000000000F0010000006331800120140929000101 00000000000000000000000000000000000000000000000000000000000000000000000000000000000000000000000000000000000000000N 00000000000NCONT   00    00000000000          00000000000000000000000000000000000000000000 000000000000000A000000000000000000000000000000000000000000000 000000000000000000000000000000000000000     00000000                                                                                                                        000000000000000000
F0010000006331800002000001022529300041450500000000000000000201409290002001ALBERTO ALVAREZ ISAZA                             C000000001720000000000000000000000100010010000000000000000000000F0010000006331800220140929000101 00000000000000000000000000000000000000000000000000000000000000000000000000000000000000000000000000000000000000000N 00000000000NCONT   00    00000000000          00000000000000000000000000000000000000000000 000000000000000A000000000000000000000000000000000000000000000 000000000000000000000000000000000000000     00000000                                                                                                                        000000000000000000
F0010000006331800003000001022529300042505000000000000000000201409290002001ALBERTO ALVAREZ ISAZA                             C000000000150000000000000000000000100010010000000000000000000000F0010000006331800320140929000101 00000000000000000000000000000000000000000000000000000000000000000000000000000000000000000000000000000000000000000N 00000000000NCONT   00    00000000000          00000000000000000000000000000000000000000000 000000000000000A000000000000000000000000000000000000000000000 000000000000000000000000000000000000000     00000000                                                                                                                        000000000000000000
F0010000006331800004000001022529300023658300000000000000000201409290002001ALBERTO ALVAREZ ISAZA                             C000000000013800000000000000000000100010010000000000000000000000F0010000006331800420140929000101 00000000000000000000000000000000000000000000000000000000000000000000000000000000000000000000000000000000000000000N 00000000000NCONT   00    00000000000          00000000000000000000000000000000000000000000 000000000000000A000000000000000000000000000000000000000000000 000000000000000000000000000000000000000     00000000                                                                                                                        000000000000000000
F0010000006331800005000001022529300013552100000000000000000201409290002001ALBERTO ALVAREZ ISAZA                             D000000000013800000000000000000000100010010000000000000000000000F0010000006331800520140929000101 00000000000000000000000000000000000000000000000000000000000000000000000000000000000000000000000000000000000000000N 00000000000NCONT   00    00000000000          00000000000000000000000000000000000000000000 000000000000000A000000000000000000000000000000000000000000000 000000000000000000000000000000000000000     00000000                                                                                                                        000000000000000000
F0010000006331900001000007200023300011050500000000000000000201409290002001WILLIAM ORTEGA                                    D000000009000000000000000000000000100010010000000000000000000000F0010000006331900120140929000101 00000000000000000000000000000000000000000000000000000000000000000000000000000000000000000000000000000000000000000N 00000000000NCONT   00    00000000000          00000000000000000000000000000000000000000000 000000000000000A000000000000000000000000000000000000000000000 000000000000000000000000000000000000000     00000000                                                                                                                        000000000000000000
F0010000006331900002000007200023300041450500000000000000000201409290002001WILLIAM ORTEGA                                    C000000008000000000000000000000000100010010000000000000000000000F0010000006331900220140929000101 00000000000000000000000000000000000000000000000000000000000000000000000000000000000000000000000000000000000000000N 00000000000NCONT   00    00000000000          00000000000000000000000000000000000000000000 000000000000000A000000000000000000000000000000000000000000000 000000000000000000000000000000000000000     00000000                                                                                                                        000000000000000000
