F0010000007550100001000007225219800011050500000000000000000201508310002001MAURICIO ALVAREZ VARELO                           D000000008500000000000000000000000100010010000000000000000000000F0010000007550100120150831000101 00000000000000000000000000000000000000000000000000000000000000000000000000000000000000000000000000000000000000000N 00000000000NCONT   00    00000000000          00000000000000000000000000000000000000000000 000000000000000A000000000000000000000000000000000000000000000 000000000000000000000000000000000000000     00000000                                                                                                                        000000000000000000
F0010000007550100002000007225219800041450500000000000000000201508310002001MAURICIO ALVAREZ VARELO                           C000000005400000000000000000000000100010010000000000000000000000F0010000007550100220150831000101 00000000000000000000000000000000000000000000000000000000000000000000000000000000000000000000000000000000000000000N 00000000000NCONT   00    00000000000          00000000000000000000000000000000000000000000 000000000000000A000000000000000000000000000000000000000000000 000000000000000000000000000000000000000     00000000                                                                                                                        000000000000000000
F0010000007550100003000007225219800042505000000000000000000201508310002001MAURICIO ALVAREZ VARELO                           C000000003100000000000000000000000100010010000000000000000000000F0010000007550100320150831000101 00000000000000000000000000000000000000000000000000000000000000000000000000000000000000000000000000000000000000000N 00000000000NCONT   00    00000000000          00000000000000000000000000000000000000000000 000000000000000A000000000000000000000000000000000000000000000 000000000000000000000000000000000000000     00000000                                                                                                                        000000000000000000
F0010000007550100004000007225219800023658300000000000000000201508310002001MAURICIO ALVAREZ VARELO                           C000000000043200000000000000000000100010010000000000000000000000F0010000007550100420150831000101 00000000000000000000000000000000000000000000000000000000000000000000000000000000000000000000000000000000000000000N 00000000000NCONT   00    00000000000          00000000000000000000000000000000000000000000 000000000000000A000000000000000000000000000000000000000000000 000000000000000000000000000000000000000     00000000                                                                                                                        000000000000000000
F0010000007550100005000007225219800013552100000000000000000201508310002001MAURICIO ALVAREZ VARELO                           D000000000043200000000000000000000100010010000000000000000000000F0010000007550100520150831000101 00000000000000000000000000000000000000000000000000000000000000000000000000000000000000000000000000000000000000000N 00000000000NCONT   00    00000000000          00000000000000000000000000000000000000000000 000000000000000A000000000000000000000000000000000000000000000 000000000000000000000000000000000000000     00000000                                                                                                                        000000000000000000
F0010000007550200001000000440669200011050500000000000000000201508310002001WILLIAN VILLADA GUERRERO                          D000000006000000000000000000000000100010010000000000000000000000F0010000007550200120150831000101 00000000000000000000000000000000000000000000000000000000000000000000000000000000000000000000000000000000000000000N 00000000000NCONT   00    00000000000          00000000000000000000000000000000000000000000 000000000000000A000000000000000000000000000000000000000000000 000000000000000000000000000000000000000     00000000                                                                                                                        000000000000000000
F0010000007550200002000000440669200041450500000000000000000201508310002001WILLIAN VILLADA GUERRERO                          C000000005900000000000000000000000100010010000000000000000000000F0010000007550200220150831000101 00000000000000000000000000000000000000000000000000000000000000000000000000000000000000000000000000000000000000000N 00000000000NCONT   00    00000000000          00000000000000000000000000000000000000000000 000000000000000A000000000000000000000000000000000000000000000 000000000000000000000000000000000000000     00000000                                                                                                                        000000000000000000
F0010000007550200003000000440669200042505000000000000000000201508310002001WILLIAN VILLADA GUERRERO                          C000000000100000000000000000000000100010010000000000000000000000F0010000007550200320150831000101 00000000000000000000000000000000000000000000000000000000000000000000000000000000000000000000000000000000000000000N 00000000000NCONT   00    00000000000          00000000000000000000000000000000000000000000 000000000000000A000000000000000000000000000000000000000000000 000000000000000000000000000000000000000     00000000                                                                                                                        000000000000000000
F0010000007550200004000000440669200023658300000000000000000201508310002001WILLIAN VILLADA GUERRERO                          C000000000047200000000000000000000100010010000000000000000000000F0010000007550200420150831000101 00000000000000000000000000000000000000000000000000000000000000000000000000000000000000000000000000000000000000000N 00000000000NCONT   00    00000000000          00000000000000000000000000000000000000000000 000000000000000A000000000000000000000000000000000000000000000 000000000000000000000000000000000000000     00000000                                                                                                                        000000000000000000
F0010000007550200005000000440669200013552100000000000000000201508310002001WILLIAN VILLADA GUERRERO                          D000000000047200000000000000000000100010010000000000000000000000F0010000007550200520150831000101 00000000000000000000000000000000000000000000000000000000000000000000000000000000000000000000000000000000000000000N 00000000000NCONT   00    00000000000          00000000000000000000000000000000000000000000 000000000000000A000000000000000000000000000000000000000000000 000000000000000000000000000000000000000     00000000                                                                                                                        000000000000000000
F0010000007550300001000002245670100011050500000000000000000201508310002001YOLANDA  TOBON                                    D000000004660000000000000000000000100010010000000000000000000000F0010000007550300120150831000101 00000000000000000000000000000000000000000000000000000000000000000000000000000000000000000000000000000000000000000N 00000000000NCONT   00    00000000000          00000000000000000000000000000000000000000000 000000000000000A000000000000000000000000000000000000000000000 000000000000000000000000000000000000000     00000000                                                                                                                        000000000000000000
F0010000007550300002000002245670100041450500000000000000000201508310002001YOLANDA  TOBON                                    C000000004200000000000000000000000100010010000000000000000000000F0010000007550300220150831000101 00000000000000000000000000000000000000000000000000000000000000000000000000000000000000000000000000000000000000000N 00000000000NCONT   00    00000000000          00000000000000000000000000000000000000000000 000000000000000A000000000000000000000000000000000000000000000 000000000000000000000000000000000000000     00000000                                                                                                                        000000000000000000
F0010000007550300003000002245670100042505000000000000000000201508310002001YOLANDA  TOBON                                    C000000000460000000000000000000000100010010000000000000000000000F0010000007550300320150831000101 00000000000000000000000000000000000000000000000000000000000000000000000000000000000000000000000000000000000000000N 00000000000NCONT   00    00000000000          00000000000000000000000000000000000000000000 000000000000000A000000000000000000000000000000000000000000000 000000000000000000000000000000000000000     00000000                                                                                                                        000000000000000000
F0010000007550300004000002245670100023658300000000000000000201508310002001YOLANDA  TOBON                                    C000000000033600000000000000000000100010010000000000000000000000F0010000007550300420150831000101 00000000000000000000000000000000000000000000000000000000000000000000000000000000000000000000000000000000000000000N 00000000000NCONT   00    00000000000          00000000000000000000000000000000000000000000 000000000000000A000000000000000000000000000000000000000000000 000000000000000000000000000000000000000     00000000                                                                                                                        000000000000000000
F0010000007550300005000002245670100013552100000000000000000201508310002001YOLANDA  TOBON                                    D000000000033600000000000000000000100010010000000000000000000000F0010000007550300520150831000101 00000000000000000000000000000000000000000000000000000000000000000000000000000000000000000000000000000000000000000N 00000000000NCONT   00    00000000000          00000000000000000000000000000000000000000000 000000000000000A000000000000000000000000000000000000000000000 000000000000000000000000000000000000000     00000000                                                                                                                        000000000000000000
F0010000007550400001000000742399700011050500000000000000000201508310002001CARMELO MIGUEL CHADID ENSUNCHO                    D000000000900000000000000000000000100010010000000000000000000000F0010000007550400120150831000101 00000000000000000000000000000000000000000000000000000000000000000000000000000000000000000000000000000000000000000N 00000000000NCONT   00    00000000000          00000000000000000000000000000000000000000000 000000000000000A000000000000000000000000000000000000000000000 000000000000000000000000000000000000000     00000000                                                                                                                        000000000000000000
F0010000007550400002000000742399700041450500000000000000000201508310002001CARMELO MIGUEL CHADID ENSUNCHO                    C000000000750000000000000000000000100010010000000000000000000000F0010000007550400220150831000101 00000000000000000000000000000000000000000000000000000000000000000000000000000000000000000000000000000000000000000N 00000000000NCONT   00    00000000000          00000000000000000000000000000000000000000000 000000000000000A000000000000000000000000000000000000000000000 000000000000000000000000000000000000000     00000000                                                                                                                        000000000000000000
F0010000007550400003000000742399700042505000000000000000000201508310002001CARMELO MIGUEL CHADID ENSUNCHO                    C000000000150000000000000000000000100010010000000000000000000000F0010000007550400320150831000101 00000000000000000000000000000000000000000000000000000000000000000000000000000000000000000000000000000000000000000N 00000000000NCONT   00    00000000000          00000000000000000000000000000000000000000000 000000000000000A000000000000000000000000000000000000000000000 000000000000000000000000000000000000000     00000000                                                                                                                        000000000000000000
F0010000007550400004000000742399700023658300000000000000000201508310002001CARMELO MIGUEL CHADID ENSUNCHO                    C000000000006000000000000000000000100010010000000000000000000000F0010000007550400420150831000101 00000000000000000000000000000000000000000000000000000000000000000000000000000000000000000000000000000000000000000N 00000000000NCONT   00    00000000000          00000000000000000000000000000000000000000000 000000000000000A000000000000000000000000000000000000000000000 000000000000000000000000000000000000000     00000000                                                                                                                        000000000000000000
F0010000007550400005000000742399700013552100000000000000000201508310002001CARMELO MIGUEL CHADID ENSUNCHO                    D000000000006000000000000000000000100010010000000000000000000000F0010000007550400520150831000101 00000000000000000000000000000000000000000000000000000000000000000000000000000000000000000000000000000000000000000N 00000000000NCONT   00    00000000000          00000000000000000000000000000000000000000000 000000000000000A000000000000000000000000000000000000000000000 000000000000000000000000000000000000000     00000000                                                                                                                        000000000000000000
F0010000007550500001000080202350700011050500000000000000000201508310002001CONNY DE LA COSTA SAS                             D000000005000000000000000000000000100010010000000000000000000000F0010000007550500120150831000101 00000000000000000000000000000000000000000000000000000000000000000000000000000000000000000000000000000000000000000N 00000000000NCONT   00    00000000000          00000000000000000000000000000000000000000000 000000000000000A000000000000000000000000000000000000000000000 000000000000000000000000000000000000000     00000000                                                                                                                        000000000000000000
F0010000007550500002000080202350700041450500000000000000000201508310002001CONNY DE LA COSTA SAS                             C000000004000000000000000000000000100010010000000000000000000000F0010000007550500220150831000101 00000000000000000000000000000000000000000000000000000000000000000000000000000000000000000000000000000000000000000N 00000000000NCONT   00    00000000000          00000000000000000000000000000000000000000000 000000000000000A000000000000000000000000000000000000000000000 000000000000000000000000000000000000000     00000000                                                                                                                        000000000000000000
F0010000007550500003000080202350700042505000000000000000000201508310002001CONNY DE LA COSTA SAS                             C000000001000000000000000000000000100010010000000000000000000000F0010000007550500320150831000101 00000000000000000000000000000000000000000000000000000000000000000000000000000000000000000000000000000000000000000N 00000000000NCONT   00    00000000000          00000000000000000000000000000000000000000000 000000000000000A000000000000000000000000000000000000000000000 000000000000000000000000000000000000000     00000000                                                                                                                        000000000000000000
F0010000007550500004000080202350700023658300000000000000000201508310002001CONNY DE LA COSTA SAS                             C000000000032000000000000000000000100010010000000000000000000000F0010000007550500420150831000101 00000000000000000000000000000000000000000000000000000000000000000000000000000000000000000000000000000000000000000N 00000000000NCONT   00    00000000000          00000000000000000000000000000000000000000000 000000000000000A000000000000000000000000000000000000000000000 000000000000000000000000000000000000000     00000000                                                                                                                        000000000000000000
F0010000007550500005000080202350700013552100000000000000000201508310002001CONNY DE LA COSTA SAS                             D000000000032000000000000000000000100010010000000000000000000000F0010000007550500520150831000101 00000000000000000000000000000000000000000000000000000000000000000000000000000000000000000000000000000000000000000N 00000000000NCONT   00    00000000000          00000000000000000000000000000000000000000000 000000000000000A000000000000000000000000000000000000000000000 000000000000000000000000000000000000000     00000000                                                                                                                        000000000000000000
F0010000007550600001000007957099900011050500000000000000000201508310002001RUBEN GOMEZ                                       D000000004700000000000000000000000100010010000000000000000000000F0010000007550600120150831000101 00000000000000000000000000000000000000000000000000000000000000000000000000000000000000000000000000000000000000000N 00000000000NCONT   00    00000000000          00000000000000000000000000000000000000000000 000000000000000A000000000000000000000000000000000000000000000 000000000000000000000000000000000000000     00000000                                                                                                                        000000000000000000
F0010000007550600002000007957099900041450500000000000000000201508310002001RUBEN GOMEZ                                       C000000003700000000000000000000000100010010000000000000000000000F0010000007550600220150831000101 00000000000000000000000000000000000000000000000000000000000000000000000000000000000000000000000000000000000000000N 00000000000NCONT   00    00000000000          00000000000000000000000000000000000000000000 000000000000000A000000000000000000000000000000000000000000000 000000000000000000000000000000000000000     00000000                                                                                                                        000000000000000000
F0010000007550600003000007957099900042505000000000000000000201508310002001RUBEN GOMEZ                                       C000000001000000000000000000000000100010010000000000000000000000F0010000007550600320150831000101 00000000000000000000000000000000000000000000000000000000000000000000000000000000000000000000000000000000000000000N 00000000000NCONT   00    00000000000          00000000000000000000000000000000000000000000 000000000000000A000000000000000000000000000000000000000000000 000000000000000000000000000000000000000     00000000                                                                                                                        000000000000000000
F0010000007550600004000007957099900023658300000000000000000201508310002001RUBEN GOMEZ                                       C000000000029600000000000000000000100010010000000000000000000000F0010000007550600420150831000101 00000000000000000000000000000000000000000000000000000000000000000000000000000000000000000000000000000000000000000N 00000000000NCONT   00    00000000000          00000000000000000000000000000000000000000000 000000000000000A000000000000000000000000000000000000000000000 000000000000000000000000000000000000000     00000000                                                                                                                        000000000000000000
F0010000007550600005000007957099900013552100000000000000000201508310002001RUBEN GOMEZ                                       D000000000029600000000000000000000100010010000000000000000000000F0010000007550600520150831000101 00000000000000000000000000000000000000000000000000000000000000000000000000000000000000000000000000000000000000000N 00000000000NCONT   00    00000000000          00000000000000000000000000000000000000000000 000000000000000A000000000000000000000000000000000000000000000 000000000000000000000000000000000000000     00000000                                                                                                                        000000000000000000
F0010000007550700001000080202350700011050500000000000000000201508310002001CONNY DE LA COSTA SAS                             D000000020000000000000000000000000100010010000000000000000000000F0010000007550700120150831000101 00000000000000000000000000000000000000000000000000000000000000000000000000000000000000000000000000000000000000000N 00000000000NCONT   00    00000000000          00000000000000000000000000000000000000000000 000000000000000A000000000000000000000000000000000000000000000 000000000000000000000000000000000000000     00000000                                                                                                                        000000000000000000
F0010000007550700002000080202350700041450500000000000000000201508310002001CONNY DE LA COSTA SAS                             C000000016000000000000000000000000100010010000000000000000000000F0010000007550700220150831000101 00000000000000000000000000000000000000000000000000000000000000000000000000000000000000000000000000000000000000000N 00000000000NCONT   00    00000000000          00000000000000000000000000000000000000000000 000000000000000A000000000000000000000000000000000000000000000 000000000000000000000000000000000000000     00000000                                                                                                                        000000000000000000
F0010000007550700003000080202350700042505000000000000000000201508310002001CONNY DE LA COSTA SAS                             C000000004000000000000000000000000100010010000000000000000000000F0010000007550700320150831000101 00000000000000000000000000000000000000000000000000000000000000000000000000000000000000000000000000000000000000000N 00000000000NCONT   00    00000000000          00000000000000000000000000000000000000000000 000000000000000A000000000000000000000000000000000000000000000 000000000000000000000000000000000000000     00000000                                                                                                                        000000000000000000
F0010000007550700004000080202350700023658300000000000000000201508310002001CONNY DE LA COSTA SAS                             C000000000128000000000000000000000100010010000000000000000000000F0010000007550700420150831000101 00000000000000000000000000000000000000000000000000000000000000000000000000000000000000000000000000000000000000000N 00000000000NCONT   00    00000000000          00000000000000000000000000000000000000000000 000000000000000A000000000000000000000000000000000000000000000 000000000000000000000000000000000000000     00000000                                                                                                                        000000000000000000
F0010000007550700005000080202350700013552100000000000000000201508310002001CONNY DE LA COSTA SAS                             D000000000128000000000000000000000100010010000000000000000000000F0010000007550700520150831000101 00000000000000000000000000000000000000000000000000000000000000000000000000000000000000000000000000000000000000000N 00000000000NCONT   00    00000000000          00000000000000000000000000000000000000000000 000000000000000A000000000000000000000000000000000000000000000 000000000000000000000000000000000000000     00000000                                                                                                                        000000000000000000
F0010000007550800001000107252647100011050500000000000000000201508310002001JHON BYRON DUQUE DONADO (BODEGA JHONIFER)         D000000001700000000000000000000000100010010000000000000000000000F0010000007550800120150831000101 00000000000000000000000000000000000000000000000000000000000000000000000000000000000000000000000000000000000000000N 00000000000NCONT   00    00000000000          00000000000000000000000000000000000000000000 000000000000000A000000000000000000000000000000000000000000000 000000000000000000000000000000000000000     00000000                                                                                                                        000000000000000000
F0010000007550800002000107252647100041450500000000000000000201508310002001JHON BYRON DUQUE DONADO (BODEGA JHONIFER)         C000000000900000000000000000000000100010010000000000000000000000F0010000007550800220150831000101 00000000000000000000000000000000000000000000000000000000000000000000000000000000000000000000000000000000000000000N 00000000000NCONT   00    00000000000          00000000000000000000000000000000000000000000 000000000000000A000000000000000000000000000000000000000000000 000000000000000000000000000000000000000     00000000                                                                                                                        000000000000000000
F0010000007550800003000107252647100042505000000000000000000201508310002001JHON BYRON DUQUE DONADO (BODEGA JHONIFER)         C000000000800000000000000000000000100010010000000000000000000000F0010000007550800320150831000101 00000000000000000000000000000000000000000000000000000000000000000000000000000000000000000000000000000000000000000N 00000000000NCONT   00    00000000000          00000000000000000000000000000000000000000000 000000000000000A000000000000000000000000000000000000000000000 000000000000000000000000000000000000000     00000000                                                                                                                        000000000000000000
F0010000007550800004000107252647100023658300000000000000000201508310002001JHON BYRON DUQUE DONADO (BODEGA JHONIFER)         C000000000007200000000000000000000100010010000000000000000000000F0010000007550800420150831000101 00000000000000000000000000000000000000000000000000000000000000000000000000000000000000000000000000000000000000000N 00000000000NCONT   00    00000000000          00000000000000000000000000000000000000000000 000000000000000A000000000000000000000000000000000000000000000 000000000000000000000000000000000000000     00000000                                                                                                                        000000000000000000
F0010000007550800005000107252647100013552100000000000000000201508310002001JHON BYRON DUQUE DONADO (BODEGA JHONIFER)         D000000000007200000000000000000000100010010000000000000000000000F0010000007550800520150831000101 00000000000000000000000000000000000000000000000000000000000000000000000000000000000000000000000000000000000000000N 00000000000NCONT   00    00000000000          00000000000000000000000000000000000000000000 000000000000000A000000000000000000000000000000000000000000000 000000000000000000000000000000000000000     00000000                                                                                                                        000000000000000000
F0010000007550900001000107252647100011050500000000000000000201508310002001JHON BYRON DUQUE DONADO (BODEGA JHONIFER)         D000000001400000000000000000000000100010010000000000000000000000F0010000007550900120150831000101 00000000000000000000000000000000000000000000000000000000000000000000000000000000000000000000000000000000000000000N 00000000000NCONT   00    00000000000          00000000000000000000000000000000000000000000 000000000000000A000000000000000000000000000000000000000000000 000000000000000000000000000000000000000     00000000                                                                                                                        000000000000000000
F0010000007550900002000107252647100041450500000000000000000201508310002001JHON BYRON DUQUE DONADO (BODEGA JHONIFER)         C000000000900000000000000000000000100010010000000000000000000000F0010000007550900220150831000101 00000000000000000000000000000000000000000000000000000000000000000000000000000000000000000000000000000000000000000N 00000000000NCONT   00    00000000000          00000000000000000000000000000000000000000000 000000000000000A000000000000000000000000000000000000000000000 000000000000000000000000000000000000000     00000000                                                                                                                        000000000000000000
F0010000007550900003000107252647100042505000000000000000000201508310002001JHON BYRON DUQUE DONADO (BODEGA JHONIFER)         C000000000500000000000000000000000100010010000000000000000000000F0010000007550900320150831000101 00000000000000000000000000000000000000000000000000000000000000000000000000000000000000000000000000000000000000000N 00000000000NCONT   00    00000000000          00000000000000000000000000000000000000000000 000000000000000A000000000000000000000000000000000000000000000 000000000000000000000000000000000000000     00000000                                                                                                                        000000000000000000
F0010000007550900004000107252647100023658300000000000000000201508310002001JHON BYRON DUQUE DONADO (BODEGA JHONIFER)         C000000000007200000000000000000000100010010000000000000000000000F0010000007550900420150831000101 00000000000000000000000000000000000000000000000000000000000000000000000000000000000000000000000000000000000000000N 00000000000NCONT   00    00000000000          00000000000000000000000000000000000000000000 000000000000000A000000000000000000000000000000000000000000000 000000000000000000000000000000000000000     00000000                                                                                                                        000000000000000000
F0010000007550900005000107252647100013552100000000000000000201508310002001JHON BYRON DUQUE DONADO (BODEGA JHONIFER)         D000000000007200000000000000000000100010010000000000000000000000F0010000007550900520150831000101 00000000000000000000000000000000000000000000000000000000000000000000000000000000000000000000000000000000000000000N 00000000000NCONT   00    00000000000          00000000000000000000000000000000000000000000 000000000000000A000000000000000000000000000000000000000000000 000000000000000000000000000000000000000     00000000                                                                                                                        000000000000000000
F0010000007551000001000003263562600011050500000000000000000201508310002001LOCAL 50 - MERCEDES ARAGUREN DE CHADID (MANUEL CHAD000000001000000000000000000000000100010010000000000000000000000F0010000007551000120150831000101 00000000000000000000000000000000000000000000000000000000000000000000000000000000000000000000000000000000000000000N 00000000000NCONT   00    00000000000          00000000000000000000000000000000000000000000 000000000000000A000000000000000000000000000000000000000000000 000000000000000000000000000000000000000     00000000                                                                                                                        000000000000000000
F0010000007551000002000003263562600041450500000000000000000201508310002001LOCAL 50 - MERCEDES ARAGUREN DE CHADID (MANUEL CHAC000000000900000000000000000000000100010010000000000000000000000F0010000007551000220150831000101 00000000000000000000000000000000000000000000000000000000000000000000000000000000000000000000000000000000000000000N 00000000000NCONT   00    00000000000          00000000000000000000000000000000000000000000 000000000000000A000000000000000000000000000000000000000000000 000000000000000000000000000000000000000     00000000                                                                                                                        000000000000000000
F0010000007551000003000003263562600042505000000000000000000201508310002001LOCAL 50 - MERCEDES ARAGUREN DE CHADID (MANUEL CHAC000000000100000000000000000000000100010010000000000000000000000F0010000007551000320150831000101 00000000000000000000000000000000000000000000000000000000000000000000000000000000000000000000000000000000000000000N 00000000000NCONT   00    00000000000          00000000000000000000000000000000000000000000 000000000000000A000000000000000000000000000000000000000000000 000000000000000000000000000000000000000     00000000                                                                                                                        000000000000000000
F0010000007551000004000003263562600023658300000000000000000201508310002001LOCAL 50 - MERCEDES ARAGUREN DE CHADID (MANUEL CHAC000000000007200000000000000000000100010010000000000000000000000F0010000007551000420150831000101 00000000000000000000000000000000000000000000000000000000000000000000000000000000000000000000000000000000000000000N 00000000000NCONT   00    00000000000          00000000000000000000000000000000000000000000 000000000000000A000000000000000000000000000000000000000000000 000000000000000000000000000000000000000     00000000                                                                                                                        000000000000000000
F0010000007551000005000003263562600013552100000000000000000201508310002001LOCAL 50 - MERCEDES ARAGUREN DE CHADID (MANUEL CHAD000000000007200000000000000000000100010010000000000000000000000F0010000007551000520150831000101 00000000000000000000000000000000000000000000000000000000000000000000000000000000000000000000000000000000000000000N 00000000000NCONT   00    00000000000          00000000000000000000000000000000000000000000 000000000000000A000000000000000000000000000000000000000000000 000000000000000000000000000000000000000     00000000                                                                                                                        000000000000000000
F0010000007551100001000090034602400011050500000000000000000201508310002001PRODUCTOS NACIONALES PARAFINICOS LA CUSTODIA S.A.SD000000001000000000000000000000000100010010000000000000000000000F0010000007551100120150831000101 00000000000000000000000000000000000000000000000000000000000000000000000000000000000000000000000000000000000000000N 00000000000NCONT   00    00000000000          00000000000000000000000000000000000000000000 000000000000000A000000000000000000000000000000000000000000000 000000000000000000000000000000000000000     00000000                                                                                                                        000000000000000000
F0010000007551100002000090034602400041450500000000000000000201508310002001PRODUCTOS NACIONALES PARAFINICOS LA CUSTODIA S.A.SC000000000900000000000000000000000100010010000000000000000000000F0010000007551100220150831000101 00000000000000000000000000000000000000000000000000000000000000000000000000000000000000000000000000000000000000000N 00000000000NCONT   00    00000000000          00000000000000000000000000000000000000000000 000000000000000A000000000000000000000000000000000000000000000 000000000000000000000000000000000000000     00000000                                                                                                                        000000000000000000
F0010000007551100003000090034602400042505000000000000000000201508310002001PRODUCTOS NACIONALES PARAFINICOS LA CUSTODIA S.A.SC000000000100000000000000000000000100010010000000000000000000000F0010000007551100320150831000101 00000000000000000000000000000000000000000000000000000000000000000000000000000000000000000000000000000000000000000N 00000000000NCONT   00    00000000000          00000000000000000000000000000000000000000000 000000000000000A000000000000000000000000000000000000000000000 000000000000000000000000000000000000000     00000000                                                                                                                        000000000000000000
F0010000007551100004000090034602400023658300000000000000000201508310002001PRODUCTOS NACIONALES PARAFINICOS LA CUSTODIA S.A.SC000000000007200000000000000000000100010010000000000000000000000F0010000007551100420150831000101 00000000000000000000000000000000000000000000000000000000000000000000000000000000000000000000000000000000000000000N 00000000000NCONT   00    00000000000          00000000000000000000000000000000000000000000 000000000000000A000000000000000000000000000000000000000000000 000000000000000000000000000000000000000     00000000                                                                                                                        000000000000000000
F0010000007551100005000090034602400013552100000000000000000201508310002001PRODUCTOS NACIONALES PARAFINICOS LA CUSTODIA S.A.SD000000000007200000000000000000000100010010000000000000000000000F0010000007551100520150831000101 00000000000000000000000000000000000000000000000000000000000000000000000000000000000000000000000000000000000000000N 00000000000NCONT   00    00000000000          00000000000000000000000000000000000000000000 000000000000000A000000000000000000000000000000000000000000000 000000000000000000000000000000000000000     00000000                                                                                                                        000000000000000000
F0010000007551200001000002245670100011050500000000000000000201508310002001YOLANDA  TOBON                                    D000000009500000000000000000000000100010010000000000000000000000F0010000007551200120150831000101 00000000000000000000000000000000000000000000000000000000000000000000000000000000000000000000000000000000000000000N 00000000000NCONT   00    00000000000          00000000000000000000000000000000000000000000 000000000000000A000000000000000000000000000000000000000000000 000000000000000000000000000000000000000     00000000                                                                                                                        000000000000000000
F0010000007551200002000002245670100041450500000000000000000201508310002001YOLANDA  TOBON                                    C000000007800000000000000000000000100010010000000000000000000000F0010000007551200220150831000101 00000000000000000000000000000000000000000000000000000000000000000000000000000000000000000000000000000000000000000N 00000000000NCONT   00    00000000000          00000000000000000000000000000000000000000000 000000000000000A000000000000000000000000000000000000000000000 000000000000000000000000000000000000000     00000000                                                                                                                        000000000000000000
F0010000007551200003000002245670100042505000000000000000000201508310002001YOLANDA  TOBON                                    C000000001700000000000000000000000100010010000000000000000000000F0010000007551200320150831000101 00000000000000000000000000000000000000000000000000000000000000000000000000000000000000000000000000000000000000000N 00000000000NCONT   00    00000000000          00000000000000000000000000000000000000000000 000000000000000A000000000000000000000000000000000000000000000 000000000000000000000000000000000000000     00000000                                                                                                                        000000000000000000
F0010000007551200004000002245670100023658300000000000000000201508310002001YOLANDA  TOBON                                    C000000000062400000000000000000000100010010000000000000000000000F0010000007551200420150831000101 00000000000000000000000000000000000000000000000000000000000000000000000000000000000000000000000000000000000000000N 00000000000NCONT   00    00000000000          00000000000000000000000000000000000000000000 000000000000000A000000000000000000000000000000000000000000000 000000000000000000000000000000000000000     00000000                                                                                                                        000000000000000000
F0010000007551200005000002245670100013552100000000000000000201508310002001YOLANDA  TOBON                                    D000000000062400000000000000000000100010010000000000000000000000F0010000007551200520150831000101 00000000000000000000000000000000000000000000000000000000000000000000000000000000000000000000000000000000000000000N 00000000000NCONT   00    00000000000          00000000000000000000000000000000000000000000 000000000000000A000000000000000000000000000000000000000000000 000000000000000000000000000000000000000     00000000                                                                                                                        000000000000000000
F0010000007551300001000089031248700011050500000000000000000201508310002001DISTRIBUIDORA CALIPLASTICOS LTDA                  D000000002025000000000000000000000100010010000000000000000000000F0010000007551300120150831000101 00000000000000000000000000000000000000000000000000000000000000000000000000000000000000000000000000000000000000000N 00000000000NCONT   00    00000000000          00000000000000000000000000000000000000000000 000000000000000A000000000000000000000000000000000000000000000 000000000000000000000000000000000000000     00000000                                                                                                                        000000000000000000
F0010000007551300002000089031248700041450500000000000000000201508310002001DISTRIBUIDORA CALIPLASTICOS LTDA                  C000000002000000000000000000000000100010010000000000000000000000F0010000007551300220150831000101 00000000000000000000000000000000000000000000000000000000000000000000000000000000000000000000000000000000000000000N 00000000000NCONT   00    00000000000          00000000000000000000000000000000000000000000 000000000000000A000000000000000000000000000000000000000000000 000000000000000000000000000000000000000     00000000                                                                                                                        000000000000000000
F0010000007551300003000089031248700042505000000000000000000201508310002001DISTRIBUIDORA CALIPLASTICOS LTDA                  C000000000025000000000000000000000100010010000000000000000000000F0010000007551300320150831000101 00000000000000000000000000000000000000000000000000000000000000000000000000000000000000000000000000000000000000000N 00000000000NCONT   00    00000000000          00000000000000000000000000000000000000000000 000000000000000A000000000000000000000000000000000000000000000 000000000000000000000000000000000000000     00000000                                                                                                                        000000000000000000
F0010000007551300004000089031248700023658300000000000000000201508310002001DISTRIBUIDORA CALIPLASTICOS LTDA                  C000000000016000000000000000000000100010010000000000000000000000F0010000007551300420150831000101 00000000000000000000000000000000000000000000000000000000000000000000000000000000000000000000000000000000000000000N 00000000000NCONT   00    00000000000          00000000000000000000000000000000000000000000 000000000000000A000000000000000000000000000000000000000000000 000000000000000000000000000000000000000     00000000                                                                                                                        000000000000000000
F0010000007551300005000089031248700013552100000000000000000201508310002001DISTRIBUIDORA CALIPLASTICOS LTDA                  D000000000016000000000000000000000100010010000000000000000000000F0010000007551300520150831000101 00000000000000000000000000000000000000000000000000000000000000000000000000000000000000000000000000000000000000000N 00000000000NCONT   00    00000000000          00000000000000000000000000000000000000000000 000000000000000A000000000000000000000000000000000000000000000 000000000000000000000000000000000000000     00000000                                                                                                                        000000000000000000
F0010000007551400001000089031248700011050500000000000000000201508310002001DISTRIBUIDORA CALIPLASTICOS LTDA                  D000000001284900000000000000000000100010010000000000000000000000F0010000007551400120150831000101 00000000000000000000000000000000000000000000000000000000000000000000000000000000000000000000000000000000000000000N 00000000000NCONT   00    00000000000          00000000000000000000000000000000000000000000 000000000000000A000000000000000000000000000000000000000000000 000000000000000000000000000000000000000     00000000                                                                                                                        000000000000000000
F0010000007551400002000089031248700041450500000000000000000201508310002001DISTRIBUIDORA CALIPLASTICOS LTDA                  C000000001234900000000000000000000100010010000000000000000000000F0010000007551400220150831000101 00000000000000000000000000000000000000000000000000000000000000000000000000000000000000000000000000000000000000000N 00000000000NCONT   00    00000000000          00000000000000000000000000000000000000000000 000000000000000A000000000000000000000000000000000000000000000 000000000000000000000000000000000000000     00000000                                                                                                                        000000000000000000
F0010000007551400003000089031248700042505000000000000000000201508310002001DISTRIBUIDORA CALIPLASTICOS LTDA                  C000000000050000000000000000000000100010010000000000000000000000F0010000007551400320150831000101 00000000000000000000000000000000000000000000000000000000000000000000000000000000000000000000000000000000000000000N 00000000000NCONT   00    00000000000          00000000000000000000000000000000000000000000 000000000000000A000000000000000000000000000000000000000000000 000000000000000000000000000000000000000     00000000                                                                                                                        000000000000000000
F0010000007551400004000089031248700023658300000000000000000201508310002001DISTRIBUIDORA CALIPLASTICOS LTDA                  C000000000009900000000000000000000100010010000000000000000000000F0010000007551400420150831000101 00000000000000000000000000000000000000000000000000000000000000000000000000000000000000000000000000000000000000000N 00000000000NCONT   00    00000000000          00000000000000000000000000000000000000000000 000000000000000A000000000000000000000000000000000000000000000 000000000000000000000000000000000000000     00000000                                                                                                                        000000000000000000
F0010000007551400005000089031248700013552100000000000000000201508310002001DISTRIBUIDORA CALIPLASTICOS LTDA                  D000000000009900000000000000000000100010010000000000000000000000F0010000007551400520150831000101 00000000000000000000000000000000000000000000000000000000000000000000000000000000000000000000000000000000000000000N 00000000000NCONT   00    00000000000          00000000000000000000000000000000000000000000 000000000000000A000000000000000000000000000000000000000000000 000000000000000000000000000000000000000     00000000                                                                                                                        000000000000000000
F0010000007551500001000007904689600011050500000000000000000201508310002001VICTOR MANUEL BOCANEGRA RAMIREZ                   D000000001000000000000000000000000100010010000000000000000000000F0010000007551500120150831000101 00000000000000000000000000000000000000000000000000000000000000000000000000000000000000000000000000000000000000000N 00000000000NCONT   00    00000000000          00000000000000000000000000000000000000000000 000000000000000A000000000000000000000000000000000000000000000 000000000000000000000000000000000000000     00000000                                                                                                                        000000000000000000
F0010000007551500002000007904689600041450500000000000000000201508310002001VICTOR MANUEL BOCANEGRA RAMIREZ                   C000000000900000000000000000000000100010010000000000000000000000F0010000007551500220150831000101 00000000000000000000000000000000000000000000000000000000000000000000000000000000000000000000000000000000000000000N 00000000000NCONT   00    00000000000          00000000000000000000000000000000000000000000 000000000000000A000000000000000000000000000000000000000000000 000000000000000000000000000000000000000     00000000                                                                                                                        000000000000000000
F0010000007551500003000007904689600042505000000000000000000201508310002001VICTOR MANUEL BOCANEGRA RAMIREZ                   C000000000100000000000000000000000100010010000000000000000000000F0010000007551500320150831000101 00000000000000000000000000000000000000000000000000000000000000000000000000000000000000000000000000000000000000000N 00000000000NCONT   00    00000000000          00000000000000000000000000000000000000000000 000000000000000A000000000000000000000000000000000000000000000 000000000000000000000000000000000000000     00000000                                                                                                                        000000000000000000
F0010000007551500004000007904689600023658300000000000000000201508310002001VICTOR MANUEL BOCANEGRA RAMIREZ                   C000000000007200000000000000000000100010010000000000000000000000F0010000007551500420150831000101 00000000000000000000000000000000000000000000000000000000000000000000000000000000000000000000000000000000000000000N 00000000000NCONT   00    00000000000          00000000000000000000000000000000000000000000 000000000000000A000000000000000000000000000000000000000000000 000000000000000000000000000000000000000     00000000                                                                                                                        000000000000000000
F0010000007551500005000007904689600013552100000000000000000201508310002001VICTOR MANUEL BOCANEGRA RAMIREZ                   D000000000007200000000000000000000100010010000000000000000000000F0010000007551500520150831000101 00000000000000000000000000000000000000000000000000000000000000000000000000000000000000000000000000000000000000000N 00000000000NCONT   00    00000000000          00000000000000000000000000000000000000000000 000000000000000A000000000000000000000000000000000000000000000 000000000000000000000000000000000000000     00000000                                                                                                                        000000000000000000
F0010000007551600001000083007900600011050500000000000000000201508310002001EXPRESO ANDINO DE CARGA SA                        D000000005500000000000000000000000100010010000000000000000000000F0010000007551600120150831000101 00000000000000000000000000000000000000000000000000000000000000000000000000000000000000000000000000000000000000000N 00000000000NCONT   00    00000000000          00000000000000000000000000000000000000000000 000000000000000A000000000000000000000000000000000000000000000 000000000000000000000000000000000000000     00000000                                                                                                                        000000000000000000
F0010000007551600002000083007900600041450500000000000000000201508310002001EXPRESO ANDINO DE CARGA SA                        C000000005400000000000000000000000100010010000000000000000000000F0010000007551600220150831000101 00000000000000000000000000000000000000000000000000000000000000000000000000000000000000000000000000000000000000000N 00000000000NCONT   00    00000000000          00000000000000000000000000000000000000000000 000000000000000A000000000000000000000000000000000000000000000 000000000000000000000000000000000000000     00000000                                                                                                                        000000000000000000
F0010000007551600003000083007900600042505000000000000000000201508310002001EXPRESO ANDINO DE CARGA SA                        C000000000100000000000000000000000100010010000000000000000000000F0010000007551600320150831000101 00000000000000000000000000000000000000000000000000000000000000000000000000000000000000000000000000000000000000000N 00000000000NCONT   00    00000000000          00000000000000000000000000000000000000000000 000000000000000A000000000000000000000000000000000000000000000 000000000000000000000000000000000000000     00000000                                                                                                                        000000000000000000
F0010000007551600004000083007900600023658300000000000000000201508310002001EXPRESO ANDINO DE CARGA SA                        C000000000043200000000000000000000100010010000000000000000000000F0010000007551600420150831000101 00000000000000000000000000000000000000000000000000000000000000000000000000000000000000000000000000000000000000000N 00000000000NCONT   00    00000000000          00000000000000000000000000000000000000000000 000000000000000A000000000000000000000000000000000000000000000 000000000000000000000000000000000000000     00000000                                                                                                                        000000000000000000
F0010000007551600005000083007900600013552100000000000000000201508310002001EXPRESO ANDINO DE CARGA SA                        D000000000043200000000000000000000100010010000000000000000000000F0010000007551600520150831000101 00000000000000000000000000000000000000000000000000000000000000000000000000000000000000000000000000000000000000000N 00000000000NCONT   00    00000000000          00000000000000000000000000000000000000000000 000000000000000A000000000000000000000000000000000000000000000 000000000000000000000000000000000000000     00000000                                                                                                                        000000000000000000
F0010000007551700001000083007900600011050500000000000000000201508310002001EXPRESO ANDINO DE CARGA SA                        D000000001000000000000000000000000100010010000000000000000000000F0010000007551700120150831000101 00000000000000000000000000000000000000000000000000000000000000000000000000000000000000000000000000000000000000000N 00000000000NCONT   00    00000000000          00000000000000000000000000000000000000000000 000000000000000A000000000000000000000000000000000000000000000 000000000000000000000000000000000000000     00000000                                                                                                                        000000000000000000
F0010000007551700002000083007900600041450500000000000000000201508310002001EXPRESO ANDINO DE CARGA SA                        C000000000900000000000000000000000100010010000000000000000000000F0010000007551700220150831000101 00000000000000000000000000000000000000000000000000000000000000000000000000000000000000000000000000000000000000000N 00000000000NCONT   00    00000000000          00000000000000000000000000000000000000000000 000000000000000A000000000000000000000000000000000000000000000 000000000000000000000000000000000000000     00000000                                                                                                                        000000000000000000
F0010000007551700003000083007900600042505000000000000000000201508310002001EXPRESO ANDINO DE CARGA SA                        C000000000100000000000000000000000100010010000000000000000000000F0010000007551700320150831000101 00000000000000000000000000000000000000000000000000000000000000000000000000000000000000000000000000000000000000000N 00000000000NCONT   00    00000000000          00000000000000000000000000000000000000000000 000000000000000A000000000000000000000000000000000000000000000 000000000000000000000000000000000000000     00000000                                                                                                                        000000000000000000
F0010000007551700004000083007900600023658300000000000000000201508310002001EXPRESO ANDINO DE CARGA SA                        C000000000007200000000000000000000100010010000000000000000000000F0010000007551700420150831000101 00000000000000000000000000000000000000000000000000000000000000000000000000000000000000000000000000000000000000000N 00000000000NCONT   00    00000000000          00000000000000000000000000000000000000000000 000000000000000A000000000000000000000000000000000000000000000 000000000000000000000000000000000000000     00000000                                                                                                                        000000000000000000
F0010000007551700005000083007900600013552100000000000000000201508310002001EXPRESO ANDINO DE CARGA SA                        D000000000007200000000000000000000100010010000000000000000000000F0010000007551700520150831000101 00000000000000000000000000000000000000000000000000000000000000000000000000000000000000000000000000000000000000000N 00000000000NCONT   00    00000000000          00000000000000000000000000000000000000000000 000000000000000A000000000000000000000000000000000000000000000 000000000000000000000000000000000000000     00000000                                                                                                                        000000000000000000
F0010000007551800001000090041529500011050500000000000000000201508310002001EME IMPORTACIONES ELECTRICA                       D000000001700000000000000000000000100010010000000000000000000000F0010000007551800120150831000101 00000000000000000000000000000000000000000000000000000000000000000000000000000000000000000000000000000000000000000N 00000000000NCONT   00    00000000000          00000000000000000000000000000000000000000000 000000000000000A000000000000000000000000000000000000000000000 000000000000000000000000000000000000000     00000000                                                                                                                        000000000000000000
F0010000007551800002000090041529500041450500000000000000000201508310002001EME IMPORTACIONES ELECTRICA                       C000000001200000000000000000000000100010010000000000000000000000F0010000007551800220150831000101 00000000000000000000000000000000000000000000000000000000000000000000000000000000000000000000000000000000000000000N 00000000000NCONT   00    00000000000          00000000000000000000000000000000000000000000 000000000000000A000000000000000000000000000000000000000000000 000000000000000000000000000000000000000     00000000                                                                                                                        000000000000000000
F0010000007551800003000090041529500042505000000000000000000201508310002001EME IMPORTACIONES ELECTRICA                       C000000000500000000000000000000000100010010000000000000000000000F0010000007551800320150831000101 00000000000000000000000000000000000000000000000000000000000000000000000000000000000000000000000000000000000000000N 00000000000NCONT   00    00000000000          00000000000000000000000000000000000000000000 000000000000000A000000000000000000000000000000000000000000000 000000000000000000000000000000000000000     00000000                                                                                                                        000000000000000000
F0010000007551800004000090041529500023658300000000000000000201508310002001EME IMPORTACIONES ELECTRICA                       C000000000009600000000000000000000100010010000000000000000000000F0010000007551800420150831000101 00000000000000000000000000000000000000000000000000000000000000000000000000000000000000000000000000000000000000000N 00000000000NCONT   00    00000000000          00000000000000000000000000000000000000000000 000000000000000A000000000000000000000000000000000000000000000 000000000000000000000000000000000000000     00000000                                                                                                                        000000000000000000
F0010000007551800005000090041529500013552100000000000000000201508310002001EME IMPORTACIONES ELECTRICA                       D000000000009600000000000000000000100010010000000000000000000000F0010000007551800520150831000101 00000000000000000000000000000000000000000000000000000000000000000000000000000000000000000000000000000000000000000N 00000000000NCONT   00    00000000000          00000000000000000000000000000000000000000000 000000000000000A000000000000000000000000000000000000000000000 000000000000000000000000000000000000000     00000000                                                                                                                        000000000000000000
F0010000007551900001000090041529500011050500000000000000000201508310002001EME IMPORTACIONES ELECTRICA                       D000000001900000000000000000000000100010010000000000000000000000F0010000007551900120150831000101 00000000000000000000000000000000000000000000000000000000000000000000000000000000000000000000000000000000000000000N 00000000000NCONT   00    00000000000          00000000000000000000000000000000000000000000 000000000000000A000000000000000000000000000000000000000000000 000000000000000000000000000000000000000     00000000                                                                                                                        000000000000000000
F0010000007551900002000090041529500041450500000000000000000201508310002001EME IMPORTACIONES ELECTRICA                       C000000000900000000000000000000000100010010000000000000000000000F0010000007551900220150831000101 00000000000000000000000000000000000000000000000000000000000000000000000000000000000000000000000000000000000000000N 00000000000NCONT   00    00000000000          00000000000000000000000000000000000000000000 000000000000000A000000000000000000000000000000000000000000000 000000000000000000000000000000000000000     00000000                                                                                                                        000000000000000000
F0010000007551900003000090041529500042505000000000000000000201508310002001EME IMPORTACIONES ELECTRICA                       C000000001000000000000000000000000100010010000000000000000000000F0010000007551900320150831000101 00000000000000000000000000000000000000000000000000000000000000000000000000000000000000000000000000000000000000000N 00000000000NCONT   00    00000000000          00000000000000000000000000000000000000000000 000000000000000A000000000000000000000000000000000000000000000 000000000000000000000000000000000000000     00000000                                                                                                                        000000000000000000
F0010000007551900004000090041529500023658300000000000000000201508310002001EME IMPORTACIONES ELECTRICA                       C000000000007200000000000000000000100010010000000000000000000000F0010000007551900420150831000101 00000000000000000000000000000000000000000000000000000000000000000000000000000000000000000000000000000000000000000N 00000000000NCONT   00    00000000000          00000000000000000000000000000000000000000000 000000000000000A000000000000000000000000000000000000000000000 000000000000000000000000000000000000000     00000000                                                                                                                        000000000000000000
F0010000007551900005000090041529500013552100000000000000000201508310002001EME IMPORTACIONES ELECTRICA                       D000000000007200000000000000000000100010010000000000000000000000F0010000007551900520150831000101 00000000000000000000000000000000000000000000000000000000000000000000000000000000000000000000000000000000000000000N 00000000000NCONT   00    00000000000          00000000000000000000000000000000000000000000 000000000000000A000000000000000000000000000000000000000000000 000000000000000000000000000000000000000     00000000                                                                                                                        000000000000000000
F0010000007552000001000090041529500011050500000000000000000201508310002001EME IMPORTACIONES ELECTRICA                       D000000001400000000000000000000000100010010000000000000000000000F0010000007552000120150831000101 00000000000000000000000000000000000000000000000000000000000000000000000000000000000000000000000000000000000000000N 00000000000NCONT   00    00000000000          00000000000000000000000000000000000000000000 000000000000000A000000000000000000000000000000000000000000000 000000000000000000000000000000000000000     00000000                                                                                                                        000000000000000000
F0010000007552000002000090041529500041450500000000000000000201508310002001EME IMPORTACIONES ELECTRICA                       C000000000900000000000000000000000100010010000000000000000000000F0010000007552000220150831000101 00000000000000000000000000000000000000000000000000000000000000000000000000000000000000000000000000000000000000000N 00000000000NCONT   00    00000000000          00000000000000000000000000000000000000000000 000000000000000A000000000000000000000000000000000000000000000 000000000000000000000000000000000000000     00000000                                                                                                                        000000000000000000
F0010000007552000003000090041529500042505000000000000000000201508310002001EME IMPORTACIONES ELECTRICA                       C000000000500000000000000000000000100010010000000000000000000000F0010000007552000320150831000101 00000000000000000000000000000000000000000000000000000000000000000000000000000000000000000000000000000000000000000N 00000000000NCONT   00    00000000000          00000000000000000000000000000000000000000000 000000000000000A000000000000000000000000000000000000000000000 000000000000000000000000000000000000000     00000000                                                                                                                        000000000000000000
F0010000007552000004000090041529500023658300000000000000000201508310002001EME IMPORTACIONES ELECTRICA                       C000000000007200000000000000000000100010010000000000000000000000F0010000007552000420150831000101 00000000000000000000000000000000000000000000000000000000000000000000000000000000000000000000000000000000000000000N 00000000000NCONT   00    00000000000          00000000000000000000000000000000000000000000 000000000000000A000000000000000000000000000000000000000000000 000000000000000000000000000000000000000     00000000                                                                                                                        000000000000000000
F0010000007552000005000090041529500013552100000000000000000201508310002001EME IMPORTACIONES ELECTRICA                       D000000000007200000000000000000000100010010000000000000000000000F0010000007552000520150831000101 00000000000000000000000000000000000000000000000000000000000000000000000000000000000000000000000000000000000000000N 00000000000NCONT   00    00000000000          00000000000000000000000000000000000000000000 000000000000000A000000000000000000000000000000000000000000000 000000000000000000000000000000000000000     00000000                                                                                                                        000000000000000000
F0010000007552100001000003287795000011050500000000000000000201508310002001COMERCIALIZADORA KUZMAR                           D000000001900000000000000000000000100010010000000000000000000000F0010000007552100120150831000101 00000000000000000000000000000000000000000000000000000000000000000000000000000000000000000000000000000000000000000N 00000000000NCONT   00    00000000000          00000000000000000000000000000000000000000000 000000000000000A000000000000000000000000000000000000000000000 000000000000000000000000000000000000000     00000000                                                                                                                        000000000000000000
F0010000007552100002000003287795000041450500000000000000000201508310002001COMERCIALIZADORA KUZMAR                           C000000001400000000000000000000000100010010000000000000000000000F0010000007552100220150831000101 00000000000000000000000000000000000000000000000000000000000000000000000000000000000000000000000000000000000000000N 00000000000NCONT   00    00000000000          00000000000000000000000000000000000000000000 000000000000000A000000000000000000000000000000000000000000000 000000000000000000000000000000000000000     00000000                                                                                                                        000000000000000000
F0010000007552100003000003287795000042505000000000000000000201508310002001COMERCIALIZADORA KUZMAR                           C000000000500000000000000000000000100010010000000000000000000000F0010000007552100320150831000101 00000000000000000000000000000000000000000000000000000000000000000000000000000000000000000000000000000000000000000N 00000000000NCONT   00    00000000000          00000000000000000000000000000000000000000000 000000000000000A000000000000000000000000000000000000000000000 000000000000000000000000000000000000000     00000000                                                                                                                        000000000000000000
F0010000007552100004000003287795000023658300000000000000000201508310002001COMERCIALIZADORA KUZMAR                           C000000000011200000000000000000000100010010000000000000000000000F0010000007552100420150831000101 00000000000000000000000000000000000000000000000000000000000000000000000000000000000000000000000000000000000000000N 00000000000NCONT   00    00000000000          00000000000000000000000000000000000000000000 000000000000000A000000000000000000000000000000000000000000000 000000000000000000000000000000000000000     00000000                                                                                                                        000000000000000000
F0010000007552100005000003287795000013552100000000000000000201508310002001COMERCIALIZADORA KUZMAR                           D000000000011200000000000000000000100010010000000000000000000000F0010000007552100520150831000101 00000000000000000000000000000000000000000000000000000000000000000000000000000000000000000000000000000000000000000N 00000000000NCONT   00    00000000000          00000000000000000000000000000000000000000000 000000000000000A000000000000000000000000000000000000000000000 000000000000000000000000000000000000000     00000000                                                                                                                        000000000000000000
F0010000007552200001000090041529500011050500000000000000000201508310002001EME IMPORTACIONES ELECTRICA                       D000000002300000000000000000000000100010010000000000000000000000F0010000007552200120150831000101 00000000000000000000000000000000000000000000000000000000000000000000000000000000000000000000000000000000000000000N 00000000000NCONT   00    00000000000          00000000000000000000000000000000000000000000 000000000000000A000000000000000000000000000000000000000000000 000000000000000000000000000000000000000     00000000                                                                                                                        000000000000000000
F0010000007552200002000090041529500041450500000000000000000201508310002001EME IMPORTACIONES ELECTRICA                       C000000001800000000000000000000000100010010000000000000000000000F0010000007552200220150831000101 00000000000000000000000000000000000000000000000000000000000000000000000000000000000000000000000000000000000000000N 00000000000NCONT   00    00000000000          00000000000000000000000000000000000000000000 000000000000000A000000000000000000000000000000000000000000000 000000000000000000000000000000000000000     00000000                                                                                                                        000000000000000000
F0010000007552200003000090041529500042505000000000000000000201508310002001EME IMPORTACIONES ELECTRICA                       C000000000500000000000000000000000100010010000000000000000000000F0010000007552200320150831000101 00000000000000000000000000000000000000000000000000000000000000000000000000000000000000000000000000000000000000000N 00000000000NCONT   00    00000000000          00000000000000000000000000000000000000000000 000000000000000A000000000000000000000000000000000000000000000 000000000000000000000000000000000000000     00000000                                                                                                                        000000000000000000
F0010000007552200004000090041529500023658300000000000000000201508310002001EME IMPORTACIONES ELECTRICA                       C000000000014400000000000000000000100010010000000000000000000000F0010000007552200420150831000101 00000000000000000000000000000000000000000000000000000000000000000000000000000000000000000000000000000000000000000N 00000000000NCONT   00    00000000000          00000000000000000000000000000000000000000000 000000000000000A000000000000000000000000000000000000000000000 000000000000000000000000000000000000000     00000000                                                                                                                        000000000000000000
F0010000007552200005000090041529500013552100000000000000000201508310002001EME IMPORTACIONES ELECTRICA                       D000000000014400000000000000000000100010010000000000000000000000F0010000007552200520150831000101 00000000000000000000000000000000000000000000000000000000000000000000000000000000000000000000000000000000000000000N 00000000000NCONT   00    00000000000          00000000000000000000000000000000000000000000 000000000000000A000000000000000000000000000000000000000000000 000000000000000000000000000000000000000     00000000                                                                                                                        000000000000000000
F0010000007552300001000090041529500011050500000000000000000201508310002001EME IMPORTACIONES ELECTRICA                       D000000002300000000000000000000000100010010000000000000000000000F0010000007552300120150831000101 00000000000000000000000000000000000000000000000000000000000000000000000000000000000000000000000000000000000000000N 00000000000NCONT   00    00000000000          00000000000000000000000000000000000000000000 000000000000000A000000000000000000000000000000000000000000000 000000000000000000000000000000000000000     00000000                                                                                                                        000000000000000000
F0010000007552300002000090041529500041450500000000000000000201508310002001EME IMPORTACIONES ELECTRICA                       C000000001800000000000000000000000100010010000000000000000000000F0010000007552300220150831000101 00000000000000000000000000000000000000000000000000000000000000000000000000000000000000000000000000000000000000000N 00000000000NCONT   00    00000000000          00000000000000000000000000000000000000000000 000000000000000A000000000000000000000000000000000000000000000 000000000000000000000000000000000000000     00000000                                                                                                                        000000000000000000
F0010000007552300003000090041529500042505000000000000000000201508310002001EME IMPORTACIONES ELECTRICA                       C000000000500000000000000000000000100010010000000000000000000000F0010000007552300320150831000101 00000000000000000000000000000000000000000000000000000000000000000000000000000000000000000000000000000000000000000N 00000000000NCONT   00    00000000000          00000000000000000000000000000000000000000000 000000000000000A000000000000000000000000000000000000000000000 000000000000000000000000000000000000000     00000000                                                                                                                        000000000000000000
F0010000007552300004000090041529500023658300000000000000000201508310002001EME IMPORTACIONES ELECTRICA                       C000000000014400000000000000000000100010010000000000000000000000F0010000007552300420150831000101 00000000000000000000000000000000000000000000000000000000000000000000000000000000000000000000000000000000000000000N 00000000000NCONT   00    00000000000          00000000000000000000000000000000000000000000 000000000000000A000000000000000000000000000000000000000000000 000000000000000000000000000000000000000     00000000                                                                                                                        000000000000000000
F0010000007552300005000090041529500013552100000000000000000201508310002001EME IMPORTACIONES ELECTRICA                       D000000000014400000000000000000000100010010000000000000000000000F0010000007552300520150831000101 00000000000000000000000000000000000000000000000000000000000000000000000000000000000000000000000000000000000000000N 00000000000NCONT   00    00000000000          00000000000000000000000000000000000000000000 000000000000000A000000000000000000000000000000000000000000000 000000000000000000000000000000000000000     00000000                                                                                                                        000000000000000000
F0010000007552400001000003287795000011050500000000000000000201508310002001COMERCIALIZADORA KUZMAR                           D000000003700000000000000000000000100010010000000000000000000000F0010000007552400120150831000101 00000000000000000000000000000000000000000000000000000000000000000000000000000000000000000000000000000000000000000N 00000000000NCONT   00    00000000000          00000000000000000000000000000000000000000000 000000000000000A000000000000000000000000000000000000000000000 000000000000000000000000000000000000000     00000000                                                                                                                        000000000000000000
F0010000007552400002000003287795000041450500000000000000000201508310002001COMERCIALIZADORA KUZMAR                           C000000002700000000000000000000000100010010000000000000000000000F0010000007552400220150831000101 00000000000000000000000000000000000000000000000000000000000000000000000000000000000000000000000000000000000000000N 00000000000NCONT   00    00000000000          00000000000000000000000000000000000000000000 000000000000000A000000000000000000000000000000000000000000000 000000000000000000000000000000000000000     00000000                                                                                                                        000000000000000000
F0010000007552400003000003287795000042505000000000000000000201508310002001COMERCIALIZADORA KUZMAR                           C000000001000000000000000000000000100010010000000000000000000000F0010000007552400320150831000101 00000000000000000000000000000000000000000000000000000000000000000000000000000000000000000000000000000000000000000N 00000000000NCONT   00    00000000000          00000000000000000000000000000000000000000000 000000000000000A000000000000000000000000000000000000000000000 000000000000000000000000000000000000000     00000000                                                                                                                        000000000000000000
F0010000007552400004000003287795000023658300000000000000000201508310002001COMERCIALIZADORA KUZMAR                           C000000000021600000000000000000000100010010000000000000000000000F0010000007552400420150831000101 00000000000000000000000000000000000000000000000000000000000000000000000000000000000000000000000000000000000000000N 00000000000NCONT   00    00000000000          00000000000000000000000000000000000000000000 000000000000000A000000000000000000000000000000000000000000000 000000000000000000000000000000000000000     00000000                                                                                                                        000000000000000000
F0010000007552400005000003287795000013552100000000000000000201508310002001COMERCIALIZADORA KUZMAR                           D000000000021600000000000000000000100010010000000000000000000000F0010000007552400520150831000101 00000000000000000000000000000000000000000000000000000000000000000000000000000000000000000000000000000000000000000N 00000000000NCONT   00    00000000000          00000000000000000000000000000000000000000000 000000000000000A000000000000000000000000000000000000000000000 000000000000000000000000000000000000000     00000000                                                                                                                        000000000000000000
F0010000007552500001000090050144800011050500000000000000000201508310002001PLASTICOS JR ASOCIADOS SAS                        D000000001800000000000000000000000100010010000000000000000000000F0010000007552500120150831000101 00000000000000000000000000000000000000000000000000000000000000000000000000000000000000000000000000000000000000000N 00000000000NCONT   00    00000000000          00000000000000000000000000000000000000000000 000000000000000A000000000000000000000000000000000000000000000 000000000000000000000000000000000000000     00000000                                                                                                                        000000000000000000
F0010000007552500002000090050144800041450500000000000000000201508310002001PLASTICOS JR ASOCIADOS SAS                        C000000001700000000000000000000000100010010000000000000000000000F0010000007552500220150831000101 00000000000000000000000000000000000000000000000000000000000000000000000000000000000000000000000000000000000000000N 00000000000NCONT   00    00000000000          00000000000000000000000000000000000000000000 000000000000000A000000000000000000000000000000000000000000000 000000000000000000000000000000000000000     00000000                                                                                                                        000000000000000000
F0010000007552500003000090050144800042505000000000000000000201508310002001PLASTICOS JR ASOCIADOS SAS                        C000000000100000000000000000000000100010010000000000000000000000F0010000007552500320150831000101 00000000000000000000000000000000000000000000000000000000000000000000000000000000000000000000000000000000000000000N 00000000000NCONT   00    00000000000          00000000000000000000000000000000000000000000 000000000000000A000000000000000000000000000000000000000000000 000000000000000000000000000000000000000     00000000                                                                                                                        000000000000000000
F0010000007552500004000090050144800023658300000000000000000201508310002001PLASTICOS JR ASOCIADOS SAS                        C000000000013600000000000000000000100010010000000000000000000000F0010000007552500420150831000101 00000000000000000000000000000000000000000000000000000000000000000000000000000000000000000000000000000000000000000N 00000000000NCONT   00    00000000000          00000000000000000000000000000000000000000000 000000000000000A000000000000000000000000000000000000000000000 000000000000000000000000000000000000000     00000000                                                                                                                        000000000000000000
F0010000007552500005000090050144800013552100000000000000000201508310002001PLASTICOS JR ASOCIADOS SAS                        D000000000013600000000000000000000100010010000000000000000000000F0010000007552500520150831000101 00000000000000000000000000000000000000000000000000000000000000000000000000000000000000000000000000000000000000000N 00000000000NCONT   00    00000000000          00000000000000000000000000000000000000000000 000000000000000A000000000000000000000000000000000000000000000 000000000000000000000000000000000000000     00000000                                                                                                                        000000000000000000
F0010000007552600001000090051494400011050500000000000000000201508310002001MUNDIAL DE INOXIDABLES                            D000000012000000000000000000000000100010010000000000000000000000F0010000007552600120150831000101 00000000000000000000000000000000000000000000000000000000000000000000000000000000000000000000000000000000000000000N 00000000000NCONT   00    00000000000          00000000000000000000000000000000000000000000 000000000000000A000000000000000000000000000000000000000000000 000000000000000000000000000000000000000     00000000                                                                                                                        000000000000000000
F0010000007552600002000090051494400041450500000000000000000201508310002001MUNDIAL DE INOXIDABLES                            C000000011500000000000000000000000100010010000000000000000000000F0010000007552600220150831000101 00000000000000000000000000000000000000000000000000000000000000000000000000000000000000000000000000000000000000000N 00000000000NCONT   00    00000000000          00000000000000000000000000000000000000000000 000000000000000A000000000000000000000000000000000000000000000 000000000000000000000000000000000000000     00000000                                                                                                                        000000000000000000
F0010000007552600003000090051494400042505000000000000000000201508310002001MUNDIAL DE INOXIDABLES                            C000000000500000000000000000000000100010010000000000000000000000F0010000007552600320150831000101 00000000000000000000000000000000000000000000000000000000000000000000000000000000000000000000000000000000000000000N 00000000000NCONT   00    00000000000          00000000000000000000000000000000000000000000 000000000000000A000000000000000000000000000000000000000000000 000000000000000000000000000000000000000     00000000                                                                                                                        000000000000000000
F0010000007552600004000090051494400023658300000000000000000201508310002001MUNDIAL DE INOXIDABLES                            C000000000092000000000000000000000100010010000000000000000000000F0010000007552600420150831000101 00000000000000000000000000000000000000000000000000000000000000000000000000000000000000000000000000000000000000000N 00000000000NCONT   00    00000000000          00000000000000000000000000000000000000000000 000000000000000A000000000000000000000000000000000000000000000 000000000000000000000000000000000000000     00000000                                                                                                                        000000000000000000
F0010000007552600005000090051494400013552100000000000000000201508310002001MUNDIAL DE INOXIDABLES                            D000000000092000000000000000000000100010010000000000000000000000F0010000007552600520150831000101 00000000000000000000000000000000000000000000000000000000000000000000000000000000000000000000000000000000000000000N 00000000000NCONT   00    00000000000          00000000000000000000000000000000000000000000 000000000000000A000000000000000000000000000000000000000000000 000000000000000000000000000000000000000     00000000                                                                                                                        000000000000000000
F0010000007552700001000003314755400011050500000000000000000201508310002001RUMATEX DE COLOMBIA                               D000000002100000000000000000000000100010010000000000000000000000F0010000007552700120150831000101 00000000000000000000000000000000000000000000000000000000000000000000000000000000000000000000000000000000000000000N 00000000000NCONT   00    00000000000          00000000000000000000000000000000000000000000 000000000000000A000000000000000000000000000000000000000000000 000000000000000000000000000000000000000     00000000                                                                                                                        000000000000000000
F0010000007552700002000003314755400041450500000000000000000201508310002001RUMATEX DE COLOMBIA                               C000000001500000000000000000000000100010010000000000000000000000F0010000007552700220150831000101 00000000000000000000000000000000000000000000000000000000000000000000000000000000000000000000000000000000000000000N 00000000000NCONT   00    00000000000          00000000000000000000000000000000000000000000 000000000000000A000000000000000000000000000000000000000000000 000000000000000000000000000000000000000     00000000                                                                                                                        000000000000000000
F0010000007552700003000003314755400042505000000000000000000201508310002001RUMATEX DE COLOMBIA                               C000000000600000000000000000000000100010010000000000000000000000F0010000007552700320150831000101 00000000000000000000000000000000000000000000000000000000000000000000000000000000000000000000000000000000000000000N 00000000000NCONT   00    00000000000          00000000000000000000000000000000000000000000 000000000000000A000000000000000000000000000000000000000000000 000000000000000000000000000000000000000     00000000                                                                                                                        000000000000000000
F0010000007552700004000003314755400023658300000000000000000201508310002001RUMATEX DE COLOMBIA                               C000000000012000000000000000000000100010010000000000000000000000F0010000007552700420150831000101 00000000000000000000000000000000000000000000000000000000000000000000000000000000000000000000000000000000000000000N 00000000000NCONT   00    00000000000          00000000000000000000000000000000000000000000 000000000000000A000000000000000000000000000000000000000000000 000000000000000000000000000000000000000     00000000                                                                                                                        000000000000000000
F0010000007552700005000003314755400013552100000000000000000201508310002001RUMATEX DE COLOMBIA                               D000000000012000000000000000000000100010010000000000000000000000F0010000007552700520150831000101 00000000000000000000000000000000000000000000000000000000000000000000000000000000000000000000000000000000000000000N 00000000000NCONT   00    00000000000          00000000000000000000000000000000000000000000 000000000000000A000000000000000000000000000000000000000000000 000000000000000000000000000000000000000     00000000                                                                                                                        000000000000000000
F0010000007552800001000003314755400011050500000000000000000201508310002001RUMATEX DE COLOMBIA                               D000000001600000000000000000000000100010010000000000000000000000F0010000007552800120150831000101 00000000000000000000000000000000000000000000000000000000000000000000000000000000000000000000000000000000000000000N 00000000000NCONT   00    00000000000          00000000000000000000000000000000000000000000 000000000000000A000000000000000000000000000000000000000000000 000000000000000000000000000000000000000     00000000                                                                                                                        000000000000000000
F0010000007552800002000003314755400041450500000000000000000201508310002001RUMATEX DE COLOMBIA                               C000000001200000000000000000000000100010010000000000000000000000F0010000007552800220150831000101 00000000000000000000000000000000000000000000000000000000000000000000000000000000000000000000000000000000000000000N 00000000000NCONT   00    00000000000          00000000000000000000000000000000000000000000 000000000000000A000000000000000000000000000000000000000000000 000000000000000000000000000000000000000     00000000                                                                                                                        000000000000000000
F0010000007552800003000003314755400042505000000000000000000201508310002001RUMATEX DE COLOMBIA                               C000000000400000000000000000000000100010010000000000000000000000F0010000007552800320150831000101 00000000000000000000000000000000000000000000000000000000000000000000000000000000000000000000000000000000000000000N 00000000000NCONT   00    00000000000          00000000000000000000000000000000000000000000 000000000000000A000000000000000000000000000000000000000000000 000000000000000000000000000000000000000     00000000                                                                                                                        000000000000000000
F0010000007552800004000003314755400023658300000000000000000201508310002001RUMATEX DE COLOMBIA                               C000000000009600000000000000000000100010010000000000000000000000F0010000007552800420150831000101 00000000000000000000000000000000000000000000000000000000000000000000000000000000000000000000000000000000000000000N 00000000000NCONT   00    00000000000          00000000000000000000000000000000000000000000 000000000000000A000000000000000000000000000000000000000000000 000000000000000000000000000000000000000     00000000                                                                                                                        000000000000000000
F0010000007552800005000003314755400013552100000000000000000201508310002001RUMATEX DE COLOMBIA                               D000000000009600000000000000000000100010010000000000000000000000F0010000007552800520150831000101 00000000000000000000000000000000000000000000000000000000000000000000000000000000000000000000000000000000000000000N 00000000000NCONT   00    00000000000          00000000000000000000000000000000000000000000 000000000000000A000000000000000000000000000000000000000000000 000000000000000000000000000000000000000     00000000                                                                                                                        000000000000000000
F0010000007552900001000007214782600011050500000000000000000201508310002001OSCAR JOSE LIAN ROCHA                             D000000001000000000000000000000000100010010000000000000000000000F0010000007552900120150831000101 00000000000000000000000000000000000000000000000000000000000000000000000000000000000000000000000000000000000000000N 00000000000NCONT   00    00000000000          00000000000000000000000000000000000000000000 000000000000000A000000000000000000000000000000000000000000000 000000000000000000000000000000000000000     00000000                                                                                                                        000000000000000000
F0010000007552900002000007214782600041450500000000000000000201508310002001OSCAR JOSE LIAN ROCHA                             C000000000900000000000000000000000100010010000000000000000000000F0010000007552900220150831000101 00000000000000000000000000000000000000000000000000000000000000000000000000000000000000000000000000000000000000000N 00000000000NCONT   00    00000000000          00000000000000000000000000000000000000000000 000000000000000A000000000000000000000000000000000000000000000 000000000000000000000000000000000000000     00000000                                                                                                                        000000000000000000
F0010000007552900003000007214782600042505000000000000000000201508310002001OSCAR JOSE LIAN ROCHA                             C000000000100000000000000000000000100010010000000000000000000000F0010000007552900320150831000101 00000000000000000000000000000000000000000000000000000000000000000000000000000000000000000000000000000000000000000N 00000000000NCONT   00    00000000000          00000000000000000000000000000000000000000000 000000000000000A000000000000000000000000000000000000000000000 000000000000000000000000000000000000000     00000000                                                                                                                        000000000000000000
F0010000007552900004000007214782600023658300000000000000000201508310002001OSCAR JOSE LIAN ROCHA                             C000000000007200000000000000000000100010010000000000000000000000F0010000007552900420150831000101 00000000000000000000000000000000000000000000000000000000000000000000000000000000000000000000000000000000000000000N 00000000000NCONT   00    00000000000          00000000000000000000000000000000000000000000 000000000000000A000000000000000000000000000000000000000000000 000000000000000000000000000000000000000     00000000                                                                                                                        000000000000000000
F0010000007552900005000007214782600013552100000000000000000201508310002001OSCAR JOSE LIAN ROCHA                             D000000000007200000000000000000000100010010000000000000000000000F0010000007552900520150831000101 00000000000000000000000000000000000000000000000000000000000000000000000000000000000000000000000000000000000000000N 00000000000NCONT   00    00000000000          00000000000000000000000000000000000000000000 000000000000000A000000000000000000000000000000000000000000000 000000000000000000000000000000000000000     00000000                                                                                                                        000000000000000000
F0010000007553000001000003314755400011050500000000000000000201508310002001RUMATEX DE COLOMBIA                               D000000002500000000000000000000000100010010000000000000000000000F0010000007553000120150831000101 00000000000000000000000000000000000000000000000000000000000000000000000000000000000000000000000000000000000000000N 00000000000NCONT   00    00000000000          00000000000000000000000000000000000000000000 000000000000000A000000000000000000000000000000000000000000000 000000000000000000000000000000000000000     00000000                                                                                                                        000000000000000000
F0010000007553000002000003314755400041450500000000000000000201508310002001RUMATEX DE COLOMBIA                               C000000001500000000000000000000000100010010000000000000000000000F0010000007553000220150831000101 00000000000000000000000000000000000000000000000000000000000000000000000000000000000000000000000000000000000000000N 00000000000NCONT   00    00000000000          00000000000000000000000000000000000000000000 000000000000000A000000000000000000000000000000000000000000000 000000000000000000000000000000000000000     00000000                                                                                                                        000000000000000000
