F0010000006838600001000104829809200011050500000000000000000201502220002001JEISON THERAN                                     D000000009000000000000000000000000100010010000000000000000000000F0010000006838600120150222000101 00000000000000000000000000000000000000000000000000000000000000000000000000000000000000000000000000000000000000000N 00000000000NCONT   00    00000000000          00000000000000000000000000000000000000000000 000000000000000A000000000000000000000000000000000000000000000 000000000000000000000000000000000000000     00000000                                                                                                                        000000000000000000
F0010000006838600002000104829809200041450500000000000000000201502220002001JEISON THERAN                                     C000000007000000000000000000000000100010010000000000000000000000F0010000006838600220150222000101 00000000000000000000000000000000000000000000000000000000000000000000000000000000000000000000000000000000000000000N 00000000000NCONT   00    00000000000          00000000000000000000000000000000000000000000 000000000000000A000000000000000000000000000000000000000000000 000000000000000000000000000000000000000     00000000                                                                                                                        000000000000000000
F0010000006838600003000104829809200042505000000000000000000201502220002001JEISON THERAN                                     C000000002000000000000000000000000100010010000000000000000000000F0010000006838600320150222000101 00000000000000000000000000000000000000000000000000000000000000000000000000000000000000000000000000000000000000000N 00000000000NCONT   00    00000000000          00000000000000000000000000000000000000000000 000000000000000A000000000000000000000000000000000000000000000 000000000000000000000000000000000000000     00000000                                                                                                                        000000000000000000
F0010000006838600004000104829809200023658300000000000000000201502220002001JEISON THERAN                                     C000000000056000000000000000000000100010010000000000000000000000F0010000006838600420150222000101 00000000000000000000000000000000000000000000000000000000000000000000000000000000000000000000000000000000000000000N 00000000000NCONT   00    00000000000          00000000000000000000000000000000000000000000 000000000000000A000000000000000000000000000000000000000000000 000000000000000000000000000000000000000     00000000                                                                                                                        000000000000000000
F0010000006838600005000104829809200013552100000000000000000201502220002001JEISON THERAN                                     D000000000056000000000000000000000100010010000000000000000000000F0010000006838600520150222000101 00000000000000000000000000000000000000000000000000000000000000000000000000000000000000000000000000000000000000000N 00000000000NCONT   00    00000000000          00000000000000000000000000000000000000000000 000000000000000A000000000000000000000000000000000000000000000 000000000000000000000000000000000000000     00000000                                                                                                                        000000000000000000
F0010000006838700001000000869402400011050500000000000000000201502220002001ISRAEL MANGA                                      D000000001400000000000000000000000100010010000000000000000000000F0010000006838700120150222000101 00000000000000000000000000000000000000000000000000000000000000000000000000000000000000000000000000000000000000000N 00000000000NCONT   00    00000000000          00000000000000000000000000000000000000000000 000000000000000A000000000000000000000000000000000000000000000 000000000000000000000000000000000000000     00000000                                                                                                                        000000000000000000
F0010000006838700002000000869402400041450500000000000000000201502220002001ISRAEL MANGA                                      C000000001200000000000000000000000100010010000000000000000000000F0010000006838700220150222000101 00000000000000000000000000000000000000000000000000000000000000000000000000000000000000000000000000000000000000000N 00000000000NCONT   00    00000000000          00000000000000000000000000000000000000000000 000000000000000A000000000000000000000000000000000000000000000 000000000000000000000000000000000000000     00000000                                                                                                                        000000000000000000
F0010000006838700003000000869402400042505000000000000000000201502220002001ISRAEL MANGA                                      C000000000200000000000000000000000100010010000000000000000000000F0010000006838700320150222000101 00000000000000000000000000000000000000000000000000000000000000000000000000000000000000000000000000000000000000000N 00000000000NCONT   00    00000000000          00000000000000000000000000000000000000000000 000000000000000A000000000000000000000000000000000000000000000 000000000000000000000000000000000000000     00000000                                                                                                                        000000000000000000
F0010000006838700004000000869402400023658300000000000000000201502220002001ISRAEL MANGA                                      C000000000009600000000000000000000100010010000000000000000000000F0010000006838700420150222000101 00000000000000000000000000000000000000000000000000000000000000000000000000000000000000000000000000000000000000000N 00000000000NCONT   00    00000000000          00000000000000000000000000000000000000000000 000000000000000A000000000000000000000000000000000000000000000 000000000000000000000000000000000000000     00000000                                                                                                                        000000000000000000
F0010000006838700005000000869402400013552100000000000000000201502220002001ISRAEL MANGA                                      D000000000009600000000000000000000100010010000000000000000000000F0010000006838700520150222000101 00000000000000000000000000000000000000000000000000000000000000000000000000000000000000000000000000000000000000000N 00000000000NCONT   00    00000000000          00000000000000000000000000000000000000000000 000000000000000A000000000000000000000000000000000000000000000 000000000000000000000000000000000000000     00000000                                                                                                                        000000000000000000
F0010000006838800001000000869402400011050500000000000000000201502220002001ISRAEL MANGA                                      D000000003000000000000000000000000100010010000000000000000000000F0010000006838800120150222000101 00000000000000000000000000000000000000000000000000000000000000000000000000000000000000000000000000000000000000000N 00000000000NCONT   00    00000000000          00000000000000000000000000000000000000000000 000000000000000A000000000000000000000000000000000000000000000 000000000000000000000000000000000000000     00000000                                                                                                                        000000000000000000
F0010000006838800002000000869402400041450500000000000000000201502220002001ISRAEL MANGA                                      C000000002400000000000000000000000100010010000000000000000000000F0010000006838800220150222000101 00000000000000000000000000000000000000000000000000000000000000000000000000000000000000000000000000000000000000000N 00000000000NCONT   00    00000000000          00000000000000000000000000000000000000000000 000000000000000A000000000000000000000000000000000000000000000 000000000000000000000000000000000000000     00000000                                                                                                                        000000000000000000
F0010000006838800003000000869402400042505000000000000000000201502220002001ISRAEL MANGA                                      C000000000600000000000000000000000100010010000000000000000000000F0010000006838800320150222000101 00000000000000000000000000000000000000000000000000000000000000000000000000000000000000000000000000000000000000000N 00000000000NCONT   00    00000000000          00000000000000000000000000000000000000000000 000000000000000A000000000000000000000000000000000000000000000 000000000000000000000000000000000000000     00000000                                                                                                                        000000000000000000
F0010000006838800004000000869402400023658300000000000000000201502220002001ISRAEL MANGA                                      C000000000019200000000000000000000100010010000000000000000000000F0010000006838800420150222000101 00000000000000000000000000000000000000000000000000000000000000000000000000000000000000000000000000000000000000000N 00000000000NCONT   00    00000000000          00000000000000000000000000000000000000000000 000000000000000A000000000000000000000000000000000000000000000 000000000000000000000000000000000000000     00000000                                                                                                                        000000000000000000
F0010000006838800005000000869402400013552100000000000000000201502220002001ISRAEL MANGA                                      D000000000019200000000000000000000100010010000000000000000000000F0010000006838800520150222000101 00000000000000000000000000000000000000000000000000000000000000000000000000000000000000000000000000000000000000000N 00000000000NCONT   00    00000000000          00000000000000000000000000000000000000000000 000000000000000A000000000000000000000000000000000000000000000 000000000000000000000000000000000000000     00000000                                                                                                                        000000000000000000
F0010000006838900001000007229328500011050500000000000000000201502220002001PV ELECTRIC   DEL CARIBE                          D000000002600000000000000000000000100010010000000000000000000000F0010000006838900120150222000101 00000000000000000000000000000000000000000000000000000000000000000000000000000000000000000000000000000000000000000N 00000000000NCONT   00    00000000000          00000000000000000000000000000000000000000000 000000000000000A000000000000000000000000000000000000000000000 000000000000000000000000000000000000000     00000000                                                                                                                        000000000000000000
F0010000006838900002000007229328500041450500000000000000000201502220002001PV ELECTRIC   DEL CARIBE                          C000000002400000000000000000000000100010010000000000000000000000F0010000006838900220150222000101 00000000000000000000000000000000000000000000000000000000000000000000000000000000000000000000000000000000000000000N 00000000000NCONT   00    00000000000          00000000000000000000000000000000000000000000 000000000000000A000000000000000000000000000000000000000000000 000000000000000000000000000000000000000     00000000                                                                                                                        000000000000000000
F0010000006838900003000007229328500042505000000000000000000201502220002001PV ELECTRIC   DEL CARIBE                          C000000000200000000000000000000000100010010000000000000000000000F0010000006838900320150222000101 00000000000000000000000000000000000000000000000000000000000000000000000000000000000000000000000000000000000000000N 00000000000NCONT   00    00000000000          00000000000000000000000000000000000000000000 000000000000000A000000000000000000000000000000000000000000000 000000000000000000000000000000000000000     00000000                                                                                                                        000000000000000000
F0010000006838900004000007229328500023658300000000000000000201502220002001PV ELECTRIC   DEL CARIBE                          C000000000019200000000000000000000100010010000000000000000000000F0010000006838900420150222000101 00000000000000000000000000000000000000000000000000000000000000000000000000000000000000000000000000000000000000000N 00000000000NCONT   00    00000000000          00000000000000000000000000000000000000000000 000000000000000A000000000000000000000000000000000000000000000 000000000000000000000000000000000000000     00000000                                                                                                                        000000000000000000
F0010000006838900005000007229328500013552100000000000000000201502220002001PV ELECTRIC   DEL CARIBE                          D000000000019200000000000000000000100010010000000000000000000000F0010000006838900520150222000101 00000000000000000000000000000000000000000000000000000000000000000000000000000000000000000000000000000000000000000N 00000000000NCONT   00    00000000000          00000000000000000000000000000000000000000000 000000000000000A000000000000000000000000000000000000000000000 000000000000000000000000000000000000000     00000000                                                                                                                        000000000000000000
F0010000006839000001000007229328500011050500000000000000000201502220002001PV ELECTRIC   DEL CARIBE                          D000000001900000000000000000000000100010010000000000000000000000F0010000006839000120150222000101 00000000000000000000000000000000000000000000000000000000000000000000000000000000000000000000000000000000000000000N 00000000000NCONT   00    00000000000          00000000000000000000000000000000000000000000 000000000000000A000000000000000000000000000000000000000000000 000000000000000000000000000000000000000     00000000                                                                                                                        000000000000000000
F0010000006839000002000007229328500041450500000000000000000201502220002001PV ELECTRIC   DEL CARIBE                          C000000001600000000000000000000000100010010000000000000000000000F0010000006839000220150222000101 00000000000000000000000000000000000000000000000000000000000000000000000000000000000000000000000000000000000000000N 00000000000NCONT   00    00000000000          00000000000000000000000000000000000000000000 000000000000000A000000000000000000000000000000000000000000000 000000000000000000000000000000000000000     00000000                                                                                                                        000000000000000000
F0010000006839000003000007229328500042505000000000000000000201502220002001PV ELECTRIC   DEL CARIBE                          C000000000300000000000000000000000100010010000000000000000000000F0010000006839000320150222000101 00000000000000000000000000000000000000000000000000000000000000000000000000000000000000000000000000000000000000000N 00000000000NCONT   00    00000000000          00000000000000000000000000000000000000000000 000000000000000A000000000000000000000000000000000000000000000 000000000000000000000000000000000000000     00000000                                                                                                                        000000000000000000
F0010000006839000004000007229328500023658300000000000000000201502220002001PV ELECTRIC   DEL CARIBE                          C000000000012800000000000000000000100010010000000000000000000000F0010000006839000420150222000101 00000000000000000000000000000000000000000000000000000000000000000000000000000000000000000000000000000000000000000N 00000000000NCONT   00    00000000000          00000000000000000000000000000000000000000000 000000000000000A000000000000000000000000000000000000000000000 000000000000000000000000000000000000000     00000000                                                                                                                        000000000000000000
F0010000006839000005000007229328500013552100000000000000000201502220002001PV ELECTRIC   DEL CARIBE                          D000000000012800000000000000000000100010010000000000000000000000F0010000006839000520150222000101 00000000000000000000000000000000000000000000000000000000000000000000000000000000000000000000000000000000000000000N 00000000000NCONT   00    00000000000          00000000000000000000000000000000000000000000 000000000000000A000000000000000000000000000000000000000000000 000000000000000000000000000000000000000     00000000                                                                                                                        000000000000000000
F0010000006839100001000007229328500011050500000000000000000201502220002001PV ELECTRIC   DEL CARIBE                          D000000001900000000000000000000000100010010000000000000000000000F0010000006839100120150222000101 00000000000000000000000000000000000000000000000000000000000000000000000000000000000000000000000000000000000000000N 00000000000NCONT   00    00000000000          00000000000000000000000000000000000000000000 000000000000000A000000000000000000000000000000000000000000000 000000000000000000000000000000000000000     00000000                                                                                                                        000000000000000000
F0010000006839100002000007229328500041450500000000000000000201502220002001PV ELECTRIC   DEL CARIBE                          C000000001600000000000000000000000100010010000000000000000000000F0010000006839100220150222000101 00000000000000000000000000000000000000000000000000000000000000000000000000000000000000000000000000000000000000000N 00000000000NCONT   00    00000000000          00000000000000000000000000000000000000000000 000000000000000A000000000000000000000000000000000000000000000 000000000000000000000000000000000000000     00000000                                                                                                                        000000000000000000
F0010000006839100003000007229328500042505000000000000000000201502220002001PV ELECTRIC   DEL CARIBE                          C000000000300000000000000000000000100010010000000000000000000000F0010000006839100320150222000101 00000000000000000000000000000000000000000000000000000000000000000000000000000000000000000000000000000000000000000N 00000000000NCONT   00    00000000000          00000000000000000000000000000000000000000000 000000000000000A000000000000000000000000000000000000000000000 000000000000000000000000000000000000000     00000000                                                                                                                        000000000000000000
F0010000006839100004000007229328500023658300000000000000000201502220002001PV ELECTRIC   DEL CARIBE                          C000000000012800000000000000000000100010010000000000000000000000F0010000006839100420150222000101 00000000000000000000000000000000000000000000000000000000000000000000000000000000000000000000000000000000000000000N 00000000000NCONT   00    00000000000          00000000000000000000000000000000000000000000 000000000000000A000000000000000000000000000000000000000000000 000000000000000000000000000000000000000     00000000                                                                                                                        000000000000000000
F0010000006839100005000007229328500013552100000000000000000201502220002001PV ELECTRIC   DEL CARIBE                          D000000000012800000000000000000000100010010000000000000000000000F0010000006839100520150222000101 00000000000000000000000000000000000000000000000000000000000000000000000000000000000000000000000000000000000000000N 00000000000NCONT   00    00000000000          00000000000000000000000000000000000000000000 000000000000000A000000000000000000000000000000000000000000000 000000000000000000000000000000000000000     00000000                                                                                                                        000000000000000000
