F0010000010343900001000007357078100011050500000000000000000201709140002001JOSE MELENDEZ ALVEAR                              D000000001200000000000000000000000100010010000000000000000000000F0010000010343900120170914000101 00000000000000000000000000000000000000000000000000000000000000000000000000000000000000000000000000000000000000000N 00000000000NCONT   00    00000000000          00000000000000000000000000000000000000000000 000000000000000A000000000000000000000000000000000000000000000 000000000000000000000000000000000000000     00000000                                                                                                                        000000000000000000
F0010000010343900002000007357078100041450500000000000000000201709140002001JOSE MELENDEZ ALVEAR                              C000000001100000000000000000000000100010010000000000000000000000F0010000010343900220170914000101 00000000000000000000000000000000000000000000000000000000000000000000000000000000000000000000000000000000000000000N 00000000000NCONT   00    00000000000          00000000000000000000000000000000000000000000 000000000000000A000000000000000000000000000000000000000000000 000000000000000000000000000000000000000     00000000                                                                                                                        000000000000000000
F0010000010343900003000007357078100042505000000000000000000201709140002001JOSE MELENDEZ ALVEAR                              C000000000100000000000000000000000100010010000000000000000000000F0010000010343900320170914000101 00000000000000000000000000000000000000000000000000000000000000000000000000000000000000000000000000000000000000000N 00000000000NCONT   00    00000000000          00000000000000000000000000000000000000000000 000000000000000A000000000000000000000000000000000000000000000 000000000000000000000000000000000000000     00000000                                                                                                                        000000000000000000
F0010000010343900004000007357078100023658300000000000000000201709140002001JOSE MELENDEZ ALVEAR                              C000000000000000000000000000000000100010010000000000000000000000F0010000010343900420170914000101 00000000000000000000000000000000000000000000000000000000000000000000000000000000000000000000000000000000000000000N 00000000000NCONT   00    00000000000          00000000000000000000000000000000000000000000 000000000000000A000000000000000000000000000000000000000000000 000000000000000000000000000000000000000     00000000                                                                                                                        000000000000000000
F0010000010343900005000007357078100013552100000000000000000201709140002001JOSE MELENDEZ ALVEAR                              D000000000000000000000000000000000100010010000000000000000000000F0010000010343900520170914000101 00000000000000000000000000000000000000000000000000000000000000000000000000000000000000000000000000000000000000000N 00000000000NCONT   00    00000000000          00000000000000000000000000000000000000000000 000000000000000A000000000000000000000000000000000000000000000 000000000000000000000000000000000000000     00000000                                                                                                                        000000000000000000
F0010000010344000001000090001736600011050500000000000000000201709140002001AF SUMINISTROS E.U.                               D000000010000000000000000000000000100010010000000000000000000000F0010000010344000120170914000101 00000000000000000000000000000000000000000000000000000000000000000000000000000000000000000000000000000000000000000N 00000000000NCONT   00    00000000000          00000000000000000000000000000000000000000000 000000000000000A000000000000000000000000000000000000000000000 000000000000000000000000000000000000000     00000000                                                                                                                        000000000000000000
F0010000010344000002000090001736600041450500000000000000000201709140002001AF SUMINISTROS E.U.                               C000000009000000000000000000000000100010010000000000000000000000F0010000010344000220170914000101 00000000000000000000000000000000000000000000000000000000000000000000000000000000000000000000000000000000000000000N 00000000000NCONT   00    00000000000          00000000000000000000000000000000000000000000 000000000000000A000000000000000000000000000000000000000000000 000000000000000000000000000000000000000     00000000                                                                                                                        000000000000000000
F0010000010344000003000090001736600042505000000000000000000201709140002001AF SUMINISTROS E.U.                               C000000001000000000000000000000000100010010000000000000000000000F0010000010344000320170914000101 00000000000000000000000000000000000000000000000000000000000000000000000000000000000000000000000000000000000000000N 00000000000NCONT   00    00000000000          00000000000000000000000000000000000000000000 000000000000000A000000000000000000000000000000000000000000000 000000000000000000000000000000000000000     00000000                                                                                                                        000000000000000000
F0010000010344000004000090001736600023658300000000000000000201709140002001AF SUMINISTROS E.U.                               C000000000000000000000000000000000100010010000000000000000000000F0010000010344000420170914000101 00000000000000000000000000000000000000000000000000000000000000000000000000000000000000000000000000000000000000000N 00000000000NCONT   00    00000000000          00000000000000000000000000000000000000000000 000000000000000A000000000000000000000000000000000000000000000 000000000000000000000000000000000000000     00000000                                                                                                                        000000000000000000
F0010000010344000005000090001736600013552100000000000000000201709140002001AF SUMINISTROS E.U.                               D000000000000000000000000000000000100010010000000000000000000000F0010000010344000520170914000101 00000000000000000000000000000000000000000000000000000000000000000000000000000000000000000000000000000000000000000N 00000000000NCONT   00    00000000000          00000000000000000000000000000000000000000000 000000000000000A000000000000000000000000000000000000000000000 000000000000000000000000000000000000000     00000000                                                                                                                        000000000000000000
F0010000010344100001000090027500500011050500000000000000000201709140002001MULTIALUMINIOS LA 30 SAS                          D000000008500000000000000000000000100010010000000000000000000000F0010000010344100120170914000101 00000000000000000000000000000000000000000000000000000000000000000000000000000000000000000000000000000000000000000N 00000000000NCONT   00    00000000000          00000000000000000000000000000000000000000000 000000000000000A000000000000000000000000000000000000000000000 000000000000000000000000000000000000000     00000000                                                                                                                        000000000000000000
F0010000010344100002000090027500500041450500000000000000000201709140002001MULTIALUMINIOS LA 30 SAS                          C000000007000000000000000000000000100010010000000000000000000000F0010000010344100220170914000101 00000000000000000000000000000000000000000000000000000000000000000000000000000000000000000000000000000000000000000N 00000000000NCONT   00    00000000000          00000000000000000000000000000000000000000000 000000000000000A000000000000000000000000000000000000000000000 000000000000000000000000000000000000000     00000000                                                                                                                        000000000000000000
F0010000010344100003000090027500500042505000000000000000000201709140002001MULTIALUMINIOS LA 30 SAS                          C000000001500000000000000000000000100010010000000000000000000000F0010000010344100320170914000101 00000000000000000000000000000000000000000000000000000000000000000000000000000000000000000000000000000000000000000N 00000000000NCONT   00    00000000000          00000000000000000000000000000000000000000000 000000000000000A000000000000000000000000000000000000000000000 000000000000000000000000000000000000000     00000000                                                                                                                        000000000000000000
F0010000010344100004000090027500500023658300000000000000000201709140002001MULTIALUMINIOS LA 30 SAS                          C000000000000000000000000000000000100010010000000000000000000000F0010000010344100420170914000101 00000000000000000000000000000000000000000000000000000000000000000000000000000000000000000000000000000000000000000N 00000000000NCONT   00    00000000000          00000000000000000000000000000000000000000000 000000000000000A000000000000000000000000000000000000000000000 000000000000000000000000000000000000000     00000000                                                                                                                        000000000000000000
F0010000010344100005000090027500500013552100000000000000000201709140002001MULTIALUMINIOS LA 30 SAS                          D000000000000000000000000000000000100010010000000000000000000000F0010000010344100520170914000101 00000000000000000000000000000000000000000000000000000000000000000000000000000000000000000000000000000000000000000N 00000000000NCONT   00    00000000000          00000000000000000000000000000000000000000000 000000000000000A000000000000000000000000000000000000000000000 000000000000000000000000000000000000000     00000000                                                                                                                        000000000000000000
F0010000010344200001000001502923600011050500000000000000000201709140002001ALCIDES MARTINEZ MARTINEZ                         D000000001300000000000000000000000100010010000000000000000000000F0010000010344200120170914000101 00000000000000000000000000000000000000000000000000000000000000000000000000000000000000000000000000000000000000000N 00000000000NCONT   00    00000000000          00000000000000000000000000000000000000000000 000000000000000A000000000000000000000000000000000000000000000 000000000000000000000000000000000000000     00000000                                                                                                                        000000000000000000
F0010000010344200002000001502923600041450500000000000000000201709140002001ALCIDES MARTINEZ MARTINEZ                         C000000001100000000000000000000000100010010000000000000000000000F0010000010344200220170914000101 00000000000000000000000000000000000000000000000000000000000000000000000000000000000000000000000000000000000000000N 00000000000NCONT   00    00000000000          00000000000000000000000000000000000000000000 000000000000000A000000000000000000000000000000000000000000000 000000000000000000000000000000000000000     00000000                                                                                                                        000000000000000000
F0010000010344200003000001502923600042505000000000000000000201709140002001ALCIDES MARTINEZ MARTINEZ                         C000000000200000000000000000000000100010010000000000000000000000F0010000010344200320170914000101 00000000000000000000000000000000000000000000000000000000000000000000000000000000000000000000000000000000000000000N 00000000000NCONT   00    00000000000          00000000000000000000000000000000000000000000 000000000000000A000000000000000000000000000000000000000000000 000000000000000000000000000000000000000     00000000                                                                                                                        000000000000000000
F0010000010344200004000001502923600023658300000000000000000201709140002001ALCIDES MARTINEZ MARTINEZ                         C000000000000000000000000000000000100010010000000000000000000000F0010000010344200420170914000101 00000000000000000000000000000000000000000000000000000000000000000000000000000000000000000000000000000000000000000N 00000000000NCONT   00    00000000000          00000000000000000000000000000000000000000000 000000000000000A000000000000000000000000000000000000000000000 000000000000000000000000000000000000000     00000000                                                                                                                        000000000000000000
F0010000010344200005000001502923600013552100000000000000000201709140002001ALCIDES MARTINEZ MARTINEZ                         D000000000000000000000000000000000100010010000000000000000000000F0010000010344200520170914000101 00000000000000000000000000000000000000000000000000000000000000000000000000000000000000000000000000000000000000000N 00000000000NCONT   00    00000000000          00000000000000000000000000000000000000000000 000000000000000A000000000000000000000000000000000000000000000 000000000000000000000000000000000000000     00000000                                                                                                                        000000000000000000
F0010000010344300001000003319910700011050500000000000000000201709140002001LUZ DARY JIMENEZ MARTINEZ                         D000000001200000000000000000000000100010010000000000000000000000F0010000010344300120170914000101 00000000000000000000000000000000000000000000000000000000000000000000000000000000000000000000000000000000000000000N 00000000000NCONT   00    00000000000          00000000000000000000000000000000000000000000 000000000000000A000000000000000000000000000000000000000000000 000000000000000000000000000000000000000     00000000                                                                                                                        000000000000000000
F0010000010344300002000003319910700041450500000000000000000201709140002001LUZ DARY JIMENEZ MARTINEZ                         C000000001100000000000000000000000100010010000000000000000000000F0010000010344300220170914000101 00000000000000000000000000000000000000000000000000000000000000000000000000000000000000000000000000000000000000000N 00000000000NCONT   00    00000000000          00000000000000000000000000000000000000000000 000000000000000A000000000000000000000000000000000000000000000 000000000000000000000000000000000000000     00000000                                                                                                                        000000000000000000
F0010000010344300003000003319910700042505000000000000000000201709140002001LUZ DARY JIMENEZ MARTINEZ                         C000000000100000000000000000000000100010010000000000000000000000F0010000010344300320170914000101 00000000000000000000000000000000000000000000000000000000000000000000000000000000000000000000000000000000000000000N 00000000000NCONT   00    00000000000          00000000000000000000000000000000000000000000 000000000000000A000000000000000000000000000000000000000000000 000000000000000000000000000000000000000     00000000                                                                                                                        000000000000000000
F0010000010344300004000003319910700023658300000000000000000201709140002001LUZ DARY JIMENEZ MARTINEZ                         C000000000000000000000000000000000100010010000000000000000000000F0010000010344300420170914000101 00000000000000000000000000000000000000000000000000000000000000000000000000000000000000000000000000000000000000000N 00000000000NCONT   00    00000000000          00000000000000000000000000000000000000000000 000000000000000A000000000000000000000000000000000000000000000 000000000000000000000000000000000000000     00000000                                                                                                                        000000000000000000
F0010000010344300005000003319910700013552100000000000000000201709140002001LUZ DARY JIMENEZ MARTINEZ                         D000000000000000000000000000000000100010010000000000000000000000F0010000010344300520170914000101 00000000000000000000000000000000000000000000000000000000000000000000000000000000000000000000000000000000000000000N 00000000000NCONT   00    00000000000          00000000000000000000000000000000000000000000 000000000000000A000000000000000000000000000000000000000000000 000000000000000000000000000000000000000     00000000                                                                                                                        000000000000000000
F0010000010344400001000003319910700011050500000000000000000201709140002001LUZ DARY JIMENEZ MARTINEZ                         D000000001200000000000000000000000100010010000000000000000000000F0010000010344400120170914000101 00000000000000000000000000000000000000000000000000000000000000000000000000000000000000000000000000000000000000000N 00000000000NCONT   00    00000000000          00000000000000000000000000000000000000000000 000000000000000A000000000000000000000000000000000000000000000 000000000000000000000000000000000000000     00000000                                                                                                                        000000000000000000
F0010000010344400002000003319910700041450500000000000000000201709140002001LUZ DARY JIMENEZ MARTINEZ                         C000000001100000000000000000000000100010010000000000000000000000F0010000010344400220170914000101 00000000000000000000000000000000000000000000000000000000000000000000000000000000000000000000000000000000000000000N 00000000000NCONT   00    00000000000          00000000000000000000000000000000000000000000 000000000000000A000000000000000000000000000000000000000000000 000000000000000000000000000000000000000     00000000                                                                                                                        000000000000000000
F0010000010344400003000003319910700042505000000000000000000201709140002001LUZ DARY JIMENEZ MARTINEZ                         C000000000100000000000000000000000100010010000000000000000000000F0010000010344400320170914000101 00000000000000000000000000000000000000000000000000000000000000000000000000000000000000000000000000000000000000000N 00000000000NCONT   00    00000000000          00000000000000000000000000000000000000000000 000000000000000A000000000000000000000000000000000000000000000 000000000000000000000000000000000000000     00000000                                                                                                                        000000000000000000
F0010000010344400004000003319910700023658300000000000000000201709140002001LUZ DARY JIMENEZ MARTINEZ                         C000000000000000000000000000000000100010010000000000000000000000F0010000010344400420170914000101 00000000000000000000000000000000000000000000000000000000000000000000000000000000000000000000000000000000000000000N 00000000000NCONT   00    00000000000          00000000000000000000000000000000000000000000 000000000000000A000000000000000000000000000000000000000000000 000000000000000000000000000000000000000     00000000                                                                                                                        000000000000000000
F0010000010344400005000003319910700013552100000000000000000201709140002001LUZ DARY JIMENEZ MARTINEZ                         D000000000000000000000000000000000100010010000000000000000000000F0010000010344400520170914000101 00000000000000000000000000000000000000000000000000000000000000000000000000000000000000000000000000000000000000000N 00000000000NCONT   00    00000000000          00000000000000000000000000000000000000000000 000000000000000A000000000000000000000000000000000000000000000 000000000000000000000000000000000000000     00000000                                                                                                                        000000000000000000
F0010000010344500001000083008772100011050500000000000000000201709140002001ILUMEC SAS                                        D000000001250000000000000000000000100010010000000000000000000000F0010000010344500120170914000101 00000000000000000000000000000000000000000000000000000000000000000000000000000000000000000000000000000000000000000N 00000000000NCONT   00    00000000000          00000000000000000000000000000000000000000000 000000000000000A000000000000000000000000000000000000000000000 000000000000000000000000000000000000000     00000000                                                                                                                        000000000000000000
F0010000010344500002000083008772100041450500000000000000000201709140002001ILUMEC SAS                                        C000000000950000000000000000000000100010010000000000000000000000F0010000010344500220170914000101 00000000000000000000000000000000000000000000000000000000000000000000000000000000000000000000000000000000000000000N 00000000000NCONT   00    00000000000          00000000000000000000000000000000000000000000 000000000000000A000000000000000000000000000000000000000000000 000000000000000000000000000000000000000     00000000                                                                                                                        000000000000000000
F0010000010344500003000083008772100042505000000000000000000201709140002001ILUMEC SAS                                        C000000000300000000000000000000000100010010000000000000000000000F0010000010344500320170914000101 00000000000000000000000000000000000000000000000000000000000000000000000000000000000000000000000000000000000000000N 00000000000NCONT   00    00000000000          00000000000000000000000000000000000000000000 000000000000000A000000000000000000000000000000000000000000000 000000000000000000000000000000000000000     00000000                                                                                                                        000000000000000000
F0010000010344500004000083008772100023658300000000000000000201709140002001ILUMEC SAS                                        C000000000000000000000000000000000100010010000000000000000000000F0010000010344500420170914000101 00000000000000000000000000000000000000000000000000000000000000000000000000000000000000000000000000000000000000000N 00000000000NCONT   00    00000000000          00000000000000000000000000000000000000000000 000000000000000A000000000000000000000000000000000000000000000 000000000000000000000000000000000000000     00000000                                                                                                                        000000000000000000
F0010000010344500005000083008772100013552100000000000000000201709140002001ILUMEC SAS                                        D000000000000000000000000000000000100010010000000000000000000000F0010000010344500520170914000101 00000000000000000000000000000000000000000000000000000000000000000000000000000000000000000000000000000000000000000N 00000000000NCONT   00    00000000000          00000000000000000000000000000000000000000000 000000000000000A000000000000000000000000000000000000000000000 000000000000000000000000000000000000000     00000000                                                                                                                        000000000000000000
F0010000010344600001000007090373900011050500000000000000000201709140002001CACHARRERIA LOS MARINILLOS                        D000000009713900000000000000000000100010010000000000000000000000F0010000010344600120170914000101 00000000000000000000000000000000000000000000000000000000000000000000000000000000000000000000000000000000000000000N 00000000000NCONT   00    00000000000          00000000000000000000000000000000000000000000 000000000000000A000000000000000000000000000000000000000000000 000000000000000000000000000000000000000     00000000                                                                                                                        000000000000000000
F0010000010344600002000007090373900041450500000000000000000201709140002001CACHARRERIA LOS MARINILLOS                        C000000008400000000000000000000000100010010000000000000000000000F0010000010344600220170914000101 00000000000000000000000000000000000000000000000000000000000000000000000000000000000000000000000000000000000000000N 00000000000NCONT   00    00000000000          00000000000000000000000000000000000000000000 000000000000000A000000000000000000000000000000000000000000000 000000000000000000000000000000000000000     00000000                                                                                                                        000000000000000000
F0010000010344600003000007090373900042505000000000000000000201709140002001CACHARRERIA LOS MARINILLOS                        C000000001313900000000000000000000100010010000000000000000000000F0010000010344600320170914000101 00000000000000000000000000000000000000000000000000000000000000000000000000000000000000000000000000000000000000000N 00000000000NCONT   00    00000000000          00000000000000000000000000000000000000000000 000000000000000A000000000000000000000000000000000000000000000 000000000000000000000000000000000000000     00000000                                                                                                                        000000000000000000
F0010000010344600004000007090373900023658300000000000000000201709140002001CACHARRERIA LOS MARINILLOS                        C000000000000000000000000000000000100010010000000000000000000000F0010000010344600420170914000101 00000000000000000000000000000000000000000000000000000000000000000000000000000000000000000000000000000000000000000N 00000000000NCONT   00    00000000000          00000000000000000000000000000000000000000000 000000000000000A000000000000000000000000000000000000000000000 000000000000000000000000000000000000000     00000000                                                                                                                        000000000000000000
F0010000010344600005000007090373900013552100000000000000000201709140002001CACHARRERIA LOS MARINILLOS                        D000000000000000000000000000000000100010010000000000000000000000F0010000010344600520170914000101 00000000000000000000000000000000000000000000000000000000000000000000000000000000000000000000000000000000000000000N 00000000000NCONT   00    00000000000          00000000000000000000000000000000000000000000 000000000000000A000000000000000000000000000000000000000000000 000000000000000000000000000000000000000     00000000                                                                                                                        000000000000000000
F0010000010344700001000083008772100011050500000000000000000201709140002001ILUMEC SAS                                        D000000001280000000000000000000000100010010000000000000000000000F0010000010344700120170914000101 00000000000000000000000000000000000000000000000000000000000000000000000000000000000000000000000000000000000000000N 00000000000NCONT   00    00000000000          00000000000000000000000000000000000000000000 000000000000000A000000000000000000000000000000000000000000000 000000000000000000000000000000000000000     00000000                                                                                                                        000000000000000000
F0010000010344700002000083008772100041450500000000000000000201709140002001ILUMEC SAS                                        C000000000950000000000000000000000100010010000000000000000000000F0010000010344700220170914000101 00000000000000000000000000000000000000000000000000000000000000000000000000000000000000000000000000000000000000000N 00000000000NCONT   00    00000000000          00000000000000000000000000000000000000000000 000000000000000A000000000000000000000000000000000000000000000 000000000000000000000000000000000000000     00000000                                                                                                                        000000000000000000
F0010000010344700003000083008772100042505000000000000000000201709140002001ILUMEC SAS                                        C000000000330000000000000000000000100010010000000000000000000000F0010000010344700320170914000101 00000000000000000000000000000000000000000000000000000000000000000000000000000000000000000000000000000000000000000N 00000000000NCONT   00    00000000000          00000000000000000000000000000000000000000000 000000000000000A000000000000000000000000000000000000000000000 000000000000000000000000000000000000000     00000000                                                                                                                        000000000000000000
F0010000010344700004000083008772100023658300000000000000000201709140002001ILUMEC SAS                                        C000000000000000000000000000000000100010010000000000000000000000F0010000010344700420170914000101 00000000000000000000000000000000000000000000000000000000000000000000000000000000000000000000000000000000000000000N 00000000000NCONT   00    00000000000          00000000000000000000000000000000000000000000 000000000000000A000000000000000000000000000000000000000000000 000000000000000000000000000000000000000     00000000                                                                                                                        000000000000000000
F0010000010344700005000083008772100013552100000000000000000201709140002001ILUMEC SAS                                        D000000000000000000000000000000000100010010000000000000000000000F0010000010344700520170914000101 00000000000000000000000000000000000000000000000000000000000000000000000000000000000000000000000000000000000000000N 00000000000NCONT   00    00000000000          00000000000000000000000000000000000000000000 000000000000000A000000000000000000000000000000000000000000000 000000000000000000000000000000000000000     00000000                                                                                                                        000000000000000000
F0010000010344800001000089010038800011050500000000000000000201709140002001CRISTALERIA SELMAN SAS                            D000000002600000000000000000000000100010010000000000000000000000F0010000010344800120170914000101 00000000000000000000000000000000000000000000000000000000000000000000000000000000000000000000000000000000000000000N 00000000000NCONT   00    00000000000          00000000000000000000000000000000000000000000 000000000000000A000000000000000000000000000000000000000000000 000000000000000000000000000000000000000     00000000                                                                                                                        000000000000000000
F0010000010344800002000089010038800041450500000000000000000201709140002001CRISTALERIA SELMAN SAS                            C000000002400000000000000000000000100010010000000000000000000000F0010000010344800220170914000101 00000000000000000000000000000000000000000000000000000000000000000000000000000000000000000000000000000000000000000N 00000000000NCONT   00    00000000000          00000000000000000000000000000000000000000000 000000000000000A000000000000000000000000000000000000000000000 000000000000000000000000000000000000000     00000000                                                                                                                        000000000000000000
F0010000010344800003000089010038800042505000000000000000000201709140002001CRISTALERIA SELMAN SAS                            C000000000200000000000000000000000100010010000000000000000000000F0010000010344800320170914000101 00000000000000000000000000000000000000000000000000000000000000000000000000000000000000000000000000000000000000000N 00000000000NCONT   00    00000000000          00000000000000000000000000000000000000000000 000000000000000A000000000000000000000000000000000000000000000 000000000000000000000000000000000000000     00000000                                                                                                                        000000000000000000
F0010000010344800004000089010038800023658300000000000000000201709140002001CRISTALERIA SELMAN SAS                            C000000000000000000000000000000000100010010000000000000000000000F0010000010344800420170914000101 00000000000000000000000000000000000000000000000000000000000000000000000000000000000000000000000000000000000000000N 00000000000NCONT   00    00000000000          00000000000000000000000000000000000000000000 000000000000000A000000000000000000000000000000000000000000000 000000000000000000000000000000000000000     00000000                                                                                                                        000000000000000000
F0010000010344800005000089010038800013552100000000000000000201709140002001CRISTALERIA SELMAN SAS                            D000000000000000000000000000000000100010010000000000000000000000F0010000010344800520170914000101 00000000000000000000000000000000000000000000000000000000000000000000000000000000000000000000000000000000000000000N 00000000000NCONT   00    00000000000          00000000000000000000000000000000000000000000 000000000000000A000000000000000000000000000000000000000000000 000000000000000000000000000000000000000     00000000                                                                                                                        000000000000000000
F0010000010344900001000001317356200011050500000000000000000201709140002001EDGAR DE JESUS GOMEZ GOMEZ / COLOMBIANA DE HERRAJED000000009000000000000000000000000100010010000000000000000000000F0010000010344900120170914000101 00000000000000000000000000000000000000000000000000000000000000000000000000000000000000000000000000000000000000000N 00000000000NCONT   00    00000000000          00000000000000000000000000000000000000000000 000000000000000A000000000000000000000000000000000000000000000 000000000000000000000000000000000000000     00000000                                                                                                                        000000000000000000
F0010000010344900002000001317356200041450500000000000000000201709140002001EDGAR DE JESUS GOMEZ GOMEZ / COLOMBIANA DE HERRAJEC000000007000000000000000000000000100010010000000000000000000000F0010000010344900220170914000101 00000000000000000000000000000000000000000000000000000000000000000000000000000000000000000000000000000000000000000N 00000000000NCONT   00    00000000000          00000000000000000000000000000000000000000000 000000000000000A000000000000000000000000000000000000000000000 000000000000000000000000000000000000000     00000000                                                                                                                        000000000000000000
F0010000010344900003000001317356200042505000000000000000000201709140002001EDGAR DE JESUS GOMEZ GOMEZ / COLOMBIANA DE HERRAJEC000000002000000000000000000000000100010010000000000000000000000F0010000010344900320170914000101 00000000000000000000000000000000000000000000000000000000000000000000000000000000000000000000000000000000000000000N 00000000000NCONT   00    00000000000          00000000000000000000000000000000000000000000 000000000000000A000000000000000000000000000000000000000000000 000000000000000000000000000000000000000     00000000                                                                                                                        000000000000000000
F0010000010344900004000001317356200023658300000000000000000201709140002001EDGAR DE JESUS GOMEZ GOMEZ / COLOMBIANA DE HERRAJEC000000000000000000000000000000000100010010000000000000000000000F0010000010344900420170914000101 00000000000000000000000000000000000000000000000000000000000000000000000000000000000000000000000000000000000000000N 00000000000NCONT   00    00000000000          00000000000000000000000000000000000000000000 000000000000000A000000000000000000000000000000000000000000000 000000000000000000000000000000000000000     00000000                                                                                                                        000000000000000000
F0010000010344900005000001317356200013552100000000000000000201709140002001EDGAR DE JESUS GOMEZ GOMEZ / COLOMBIANA DE HERRAJED000000000000000000000000000000000100010010000000000000000000000F0010000010344900520170914000101 00000000000000000000000000000000000000000000000000000000000000000000000000000000000000000000000000000000000000000N 00000000000NCONT   00    00000000000          00000000000000000000000000000000000000000000 000000000000000A000000000000000000000000000000000000000000000 000000000000000000000000000000000000000     00000000                                                                                                                        000000000000000000
F0010000010345000001000000866309000011050500000000000000000201709140002001MARCO MORA PATIÑO                                D000000001400000000000000000000000100010010000000000000000000000F0010000010345000120170914000101 00000000000000000000000000000000000000000000000000000000000000000000000000000000000000000000000000000000000000000N 00000000000NCONT   00    00000000000          00000000000000000000000000000000000000000000 000000000000000A000000000000000000000000000000000000000000000 000000000000000000000000000000000000000     00000000                                                                                                                        000000000000000000
F0010000010345000002000000866309000041450500000000000000000201709140002001MARCO MORA PATIÑO                                C000000001200000000000000000000000100010010000000000000000000000F0010000010345000220170914000101 00000000000000000000000000000000000000000000000000000000000000000000000000000000000000000000000000000000000000000N 00000000000NCONT   00    00000000000          00000000000000000000000000000000000000000000 000000000000000A000000000000000000000000000000000000000000000 000000000000000000000000000000000000000     00000000                                                                                                                        000000000000000000
F0010000010345000003000000866309000042505000000000000000000201709140002001MARCO MORA PATIÑO                                C000000000200000000000000000000000100010010000000000000000000000F0010000010345000320170914000101 00000000000000000000000000000000000000000000000000000000000000000000000000000000000000000000000000000000000000000N 00000000000NCONT   00    00000000000          00000000000000000000000000000000000000000000 000000000000000A000000000000000000000000000000000000000000000 000000000000000000000000000000000000000     00000000                                                                                                                        000000000000000000
F0010000010345000004000000866309000023658300000000000000000201709140002001MARCO MORA PATIÑO                                C000000000000000000000000000000000100010010000000000000000000000F0010000010345000420170914000101 00000000000000000000000000000000000000000000000000000000000000000000000000000000000000000000000000000000000000000N 00000000000NCONT   00    00000000000          00000000000000000000000000000000000000000000 000000000000000A000000000000000000000000000000000000000000000 000000000000000000000000000000000000000     00000000                                                                                                                        000000000000000000
F0010000010345000005000000866309000013552100000000000000000201709140002001MARCO MORA PATIÑO                                D000000000000000000000000000000000100010010000000000000000000000F0010000010345000520170914000101 00000000000000000000000000000000000000000000000000000000000000000000000000000000000000000000000000000000000000000N 00000000000NCONT   00    00000000000          00000000000000000000000000000000000000000000 000000000000000A000000000000000000000000000000000000000000000 000000000000000000000000000000000000000     00000000                                                                                                                        000000000000000000
F0010000010345100001000000866309000011050500000000000000000201709140002001MARCO MORA PATIÑO                                D000000001500000000000000000000000100010010000000000000000000000F0010000010345100120170914000101 00000000000000000000000000000000000000000000000000000000000000000000000000000000000000000000000000000000000000000N 00000000000NCONT   00    00000000000          00000000000000000000000000000000000000000000 000000000000000A000000000000000000000000000000000000000000000 000000000000000000000000000000000000000     00000000                                                                                                                        000000000000000000
F0010000010345100002000000866309000041450500000000000000000201709140002001MARCO MORA PATIÑO                                C000000001300000000000000000000000100010010000000000000000000000F0010000010345100220170914000101 00000000000000000000000000000000000000000000000000000000000000000000000000000000000000000000000000000000000000000N 00000000000NCONT   00    00000000000          00000000000000000000000000000000000000000000 000000000000000A000000000000000000000000000000000000000000000 000000000000000000000000000000000000000     00000000                                                                                                                        000000000000000000
F0010000010345100003000000866309000042505000000000000000000201709140002001MARCO MORA PATIÑO                                C000000000200000000000000000000000100010010000000000000000000000F0010000010345100320170914000101 00000000000000000000000000000000000000000000000000000000000000000000000000000000000000000000000000000000000000000N 00000000000NCONT   00    00000000000          00000000000000000000000000000000000000000000 000000000000000A000000000000000000000000000000000000000000000 000000000000000000000000000000000000000     00000000                                                                                                                        000000000000000000
F0010000010345100004000000866309000023658300000000000000000201709140002001MARCO MORA PATIÑO                                C000000000000000000000000000000000100010010000000000000000000000F0010000010345100420170914000101 00000000000000000000000000000000000000000000000000000000000000000000000000000000000000000000000000000000000000000N 00000000000NCONT   00    00000000000          00000000000000000000000000000000000000000000 000000000000000A000000000000000000000000000000000000000000000 000000000000000000000000000000000000000     00000000                                                                                                                        000000000000000000
F0010000010345100005000000866309000013552100000000000000000201709140002001MARCO MORA PATIÑO                                D000000000000000000000000000000000100010010000000000000000000000F0010000010345100520170914000101 00000000000000000000000000000000000000000000000000000000000000000000000000000000000000000000000000000000000000000N 00000000000NCONT   00    00000000000          00000000000000000000000000000000000000000000 000000000000000A000000000000000000000000000000000000000000000 000000000000000000000000000000000000000     00000000                                                                                                                        000000000000000000
F0010000010345200001000000866309000011050500000000000000000201709140002001MARCO MORA PATIÑO                                D000000001500000000000000000000000100010010000000000000000000000F0010000010345200120170914000101 00000000000000000000000000000000000000000000000000000000000000000000000000000000000000000000000000000000000000000N 00000000000NCONT   00    00000000000          00000000000000000000000000000000000000000000 000000000000000A000000000000000000000000000000000000000000000 000000000000000000000000000000000000000     00000000                                                                                                                        000000000000000000
F0010000010345200002000000866309000041450500000000000000000201709140002001MARCO MORA PATIÑO                                C000000001300000000000000000000000100010010000000000000000000000F0010000010345200220170914000101 00000000000000000000000000000000000000000000000000000000000000000000000000000000000000000000000000000000000000000N 00000000000NCONT   00    00000000000          00000000000000000000000000000000000000000000 000000000000000A000000000000000000000000000000000000000000000 000000000000000000000000000000000000000     00000000                                                                                                                        000000000000000000
F0010000010345200003000000866309000042505000000000000000000201709140002001MARCO MORA PATIÑO                                C000000000200000000000000000000000100010010000000000000000000000F0010000010345200320170914000101 00000000000000000000000000000000000000000000000000000000000000000000000000000000000000000000000000000000000000000N 00000000000NCONT   00    00000000000          00000000000000000000000000000000000000000000 000000000000000A000000000000000000000000000000000000000000000 000000000000000000000000000000000000000     00000000                                                                                                                        000000000000000000
F0010000010345200004000000866309000023658300000000000000000201709140002001MARCO MORA PATIÑO                                C000000000000000000000000000000000100010010000000000000000000000F0010000010345200420170914000101 00000000000000000000000000000000000000000000000000000000000000000000000000000000000000000000000000000000000000000N 00000000000NCONT   00    00000000000          00000000000000000000000000000000000000000000 000000000000000A000000000000000000000000000000000000000000000 000000000000000000000000000000000000000     00000000                                                                                                                        000000000000000000
F0010000010345200005000000866309000013552100000000000000000201709140002001MARCO MORA PATIÑO                                D000000000000000000000000000000000100010010000000000000000000000F0010000010345200520170914000101 00000000000000000000000000000000000000000000000000000000000000000000000000000000000000000000000000000000000000000N 00000000000NCONT   00    00000000000          00000000000000000000000000000000000000000000 000000000000000A000000000000000000000000000000000000000000000 000000000000000000000000000000000000000     00000000                                                                                                                        000000000000000000
F0010000010345300001000090031375000011050500000000000000000201709140002001FRANCO Y FRANCO ASOCIADOS S.A.S. / LA CASA DEL FABD000000001600000000000000000000000100010010000000000000000000000F0010000010345300120170914000101 00000000000000000000000000000000000000000000000000000000000000000000000000000000000000000000000000000000000000000N 00000000000NCONT   00    00000000000          00000000000000000000000000000000000000000000 000000000000000A000000000000000000000000000000000000000000000 000000000000000000000000000000000000000     00000000                                                                                                                        000000000000000000
F0010000010345300002000090031375000041450500000000000000000201709140002001FRANCO Y FRANCO ASOCIADOS S.A.S. / LA CASA DEL FABC000000001000000000000000000000000100010010000000000000000000000F0010000010345300220170914000101 00000000000000000000000000000000000000000000000000000000000000000000000000000000000000000000000000000000000000000N 00000000000NCONT   00    00000000000          00000000000000000000000000000000000000000000 000000000000000A000000000000000000000000000000000000000000000 000000000000000000000000000000000000000     00000000                                                                                                                        000000000000000000
F0010000010345300003000090031375000042505000000000000000000201709140002001FRANCO Y FRANCO ASOCIADOS S.A.S. / LA CASA DEL FABC000000000600000000000000000000000100010010000000000000000000000F0010000010345300320170914000101 00000000000000000000000000000000000000000000000000000000000000000000000000000000000000000000000000000000000000000N 00000000000NCONT   00    00000000000          00000000000000000000000000000000000000000000 000000000000000A000000000000000000000000000000000000000000000 000000000000000000000000000000000000000     00000000                                                                                                                        000000000000000000
F0010000010345300004000090031375000023658300000000000000000201709140002001FRANCO Y FRANCO ASOCIADOS S.A.S. / LA CASA DEL FABC000000000000000000000000000000000100010010000000000000000000000F0010000010345300420170914000101 00000000000000000000000000000000000000000000000000000000000000000000000000000000000000000000000000000000000000000N 00000000000NCONT   00    00000000000          00000000000000000000000000000000000000000000 000000000000000A000000000000000000000000000000000000000000000 000000000000000000000000000000000000000     00000000                                                                                                                        000000000000000000
F0010000010345300005000090031375000013552100000000000000000201709140002001FRANCO Y FRANCO ASOCIADOS S.A.S. / LA CASA DEL FABD000000000000000000000000000000000100010010000000000000000000000F0010000010345300520170914000101 00000000000000000000000000000000000000000000000000000000000000000000000000000000000000000000000000000000000000000N 00000000000NCONT   00    00000000000          00000000000000000000000000000000000000000000 000000000000000A000000000000000000000000000000000000000000000 000000000000000000000000000000000000000     00000000                                                                                                                        000000000000000000
F0010000010345400001000102390001700011050500000000000000000201709140002001LILIANA HERNANDEZ PINILLA                         D000000002000000000000000000000000100010010000000000000000000000F0010000010345400120170914000101 00000000000000000000000000000000000000000000000000000000000000000000000000000000000000000000000000000000000000000N 00000000000NCONT   00    00000000000          00000000000000000000000000000000000000000000 000000000000000A000000000000000000000000000000000000000000000 000000000000000000000000000000000000000     00000000                                                                                                                        000000000000000000
F0010000010345400002000102390001700041450500000000000000000201709140002001LILIANA HERNANDEZ PINILLA                         C000000001500000000000000000000000100010010000000000000000000000F0010000010345400220170914000101 00000000000000000000000000000000000000000000000000000000000000000000000000000000000000000000000000000000000000000N 00000000000NCONT   00    00000000000          00000000000000000000000000000000000000000000 000000000000000A000000000000000000000000000000000000000000000 000000000000000000000000000000000000000     00000000                                                                                                                        000000000000000000
F0010000010345400003000102390001700042505000000000000000000201709140002001LILIANA HERNANDEZ PINILLA                         C000000000500000000000000000000000100010010000000000000000000000F0010000010345400320170914000101 00000000000000000000000000000000000000000000000000000000000000000000000000000000000000000000000000000000000000000N 00000000000NCONT   00    00000000000          00000000000000000000000000000000000000000000 000000000000000A000000000000000000000000000000000000000000000 000000000000000000000000000000000000000     00000000                                                                                                                        000000000000000000
F0010000010345400004000102390001700023658300000000000000000201709140002001LILIANA HERNANDEZ PINILLA                         C000000000000000000000000000000000100010010000000000000000000000F0010000010345400420170914000101 00000000000000000000000000000000000000000000000000000000000000000000000000000000000000000000000000000000000000000N 00000000000NCONT   00    00000000000          00000000000000000000000000000000000000000000 000000000000000A000000000000000000000000000000000000000000000 000000000000000000000000000000000000000     00000000                                                                                                                        000000000000000000
F0010000010345400005000102390001700013552100000000000000000201709140002001LILIANA HERNANDEZ PINILLA                         D000000000000000000000000000000000100010010000000000000000000000F0010000010345400520170914000101 00000000000000000000000000000000000000000000000000000000000000000000000000000000000000000000000000000000000000000N 00000000000NCONT   00    00000000000          00000000000000000000000000000000000000000000 000000000000000A000000000000000000000000000000000000000000000 000000000000000000000000000000000000000     00000000                                                                                                                        000000000000000000
F0010000010345500001000102390001700011050500000000000000000201709140002001LILIANA HERNANDEZ PINILLA                         D000000002000000000000000000000000100010010000000000000000000000F0010000010345500120170914000101 00000000000000000000000000000000000000000000000000000000000000000000000000000000000000000000000000000000000000000N 00000000000NCONT   00    00000000000          00000000000000000000000000000000000000000000 000000000000000A000000000000000000000000000000000000000000000 000000000000000000000000000000000000000     00000000                                                                                                                        000000000000000000
F0010000010345500002000102390001700041450500000000000000000201709140002001LILIANA HERNANDEZ PINILLA                         C000000001500000000000000000000000100010010000000000000000000000F0010000010345500220170914000101 00000000000000000000000000000000000000000000000000000000000000000000000000000000000000000000000000000000000000000N 00000000000NCONT   00    00000000000          00000000000000000000000000000000000000000000 000000000000000A000000000000000000000000000000000000000000000 000000000000000000000000000000000000000     00000000                                                                                                                        000000000000000000
F0010000010345500003000102390001700042505000000000000000000201709140002001LILIANA HERNANDEZ PINILLA                         C000000000500000000000000000000000100010010000000000000000000000F0010000010345500320170914000101 00000000000000000000000000000000000000000000000000000000000000000000000000000000000000000000000000000000000000000N 00000000000NCONT   00    00000000000          00000000000000000000000000000000000000000000 000000000000000A000000000000000000000000000000000000000000000 000000000000000000000000000000000000000     00000000                                                                                                                        000000000000000000
F0010000010345500004000102390001700023658300000000000000000201709140002001LILIANA HERNANDEZ PINILLA                         C000000000000000000000000000000000100010010000000000000000000000F0010000010345500420170914000101 00000000000000000000000000000000000000000000000000000000000000000000000000000000000000000000000000000000000000000N 00000000000NCONT   00    00000000000          00000000000000000000000000000000000000000000 000000000000000A000000000000000000000000000000000000000000000 000000000000000000000000000000000000000     00000000                                                                                                                        000000000000000000
F0010000010345500005000102390001700013552100000000000000000201709140002001LILIANA HERNANDEZ PINILLA                         D000000000000000000000000000000000100010010000000000000000000000F0010000010345500520170914000101 00000000000000000000000000000000000000000000000000000000000000000000000000000000000000000000000000000000000000000N 00000000000NCONT   00    00000000000          00000000000000000000000000000000000000000000 000000000000000A000000000000000000000000000000000000000000000 000000000000000000000000000000000000000     00000000                                                                                                                        000000000000000000
F0010000010345600001000102390001700011050500000000000000000201709140002001LILIANA HERNANDEZ PINILLA                         D000000008600000000000000000000000100010010000000000000000000000F0010000010345600120170914000101 00000000000000000000000000000000000000000000000000000000000000000000000000000000000000000000000000000000000000000N 00000000000NCONT   00    00000000000          00000000000000000000000000000000000000000000 000000000000000A000000000000000000000000000000000000000000000 000000000000000000000000000000000000000     00000000                                                                                                                        000000000000000000
F0010000010345600002000102390001700041450500000000000000000201709140002001LILIANA HERNANDEZ PINILLA                         C000000006600000000000000000000000100010010000000000000000000000F0010000010345600220170914000101 00000000000000000000000000000000000000000000000000000000000000000000000000000000000000000000000000000000000000000N 00000000000NCONT   00    00000000000          00000000000000000000000000000000000000000000 000000000000000A000000000000000000000000000000000000000000000 000000000000000000000000000000000000000     00000000                                                                                                                        000000000000000000
F0010000010345600003000102390001700042505000000000000000000201709140002001LILIANA HERNANDEZ PINILLA                         C000000002000000000000000000000000100010010000000000000000000000F0010000010345600320170914000101 00000000000000000000000000000000000000000000000000000000000000000000000000000000000000000000000000000000000000000N 00000000000NCONT   00    00000000000          00000000000000000000000000000000000000000000 000000000000000A000000000000000000000000000000000000000000000 000000000000000000000000000000000000000     00000000                                                                                                                        000000000000000000
F0010000010345600004000102390001700023658300000000000000000201709140002001LILIANA HERNANDEZ PINILLA                         C000000000000000000000000000000000100010010000000000000000000000F0010000010345600420170914000101 00000000000000000000000000000000000000000000000000000000000000000000000000000000000000000000000000000000000000000N 00000000000NCONT   00    00000000000          00000000000000000000000000000000000000000000 000000000000000A000000000000000000000000000000000000000000000 000000000000000000000000000000000000000     00000000                                                                                                                        000000000000000000
F0010000010345600005000102390001700013552100000000000000000201709140002001LILIANA HERNANDEZ PINILLA                         D000000000000000000000000000000000100010010000000000000000000000F0010000010345600520170914000101 00000000000000000000000000000000000000000000000000000000000000000000000000000000000000000000000000000000000000000N 00000000000NCONT   00    00000000000          00000000000000000000000000000000000000000000 000000000000000A000000000000000000000000000000000000000000000 000000000000000000000000000000000000000     00000000                                                                                                                        000000000000000000
F0010000010345700001000102390001700011050500000000000000000201709140002001LILIANA HERNANDEZ PINILLA                         D000000012900000000000000000000000100010010000000000000000000000F0010000010345700120170914000101 00000000000000000000000000000000000000000000000000000000000000000000000000000000000000000000000000000000000000000N 00000000000NCONT   00    00000000000          00000000000000000000000000000000000000000000 000000000000000A000000000000000000000000000000000000000000000 000000000000000000000000000000000000000     00000000                                                                                                                        000000000000000000
F0010000010345700002000102390001700041450500000000000000000201709140002001LILIANA HERNANDEZ PINILLA                         C000000009900000000000000000000000100010010000000000000000000000F0010000010345700220170914000101 00000000000000000000000000000000000000000000000000000000000000000000000000000000000000000000000000000000000000000N 00000000000NCONT   00    00000000000          00000000000000000000000000000000000000000000 000000000000000A000000000000000000000000000000000000000000000 000000000000000000000000000000000000000     00000000                                                                                                                        000000000000000000
F0010000010345700003000102390001700042505000000000000000000201709140002001LILIANA HERNANDEZ PINILLA                         C000000003000000000000000000000000100010010000000000000000000000F0010000010345700320170914000101 00000000000000000000000000000000000000000000000000000000000000000000000000000000000000000000000000000000000000000N 00000000000NCONT   00    00000000000          00000000000000000000000000000000000000000000 000000000000000A000000000000000000000000000000000000000000000 000000000000000000000000000000000000000     00000000                                                                                                                        000000000000000000
F0010000010345700004000102390001700023658300000000000000000201709140002001LILIANA HERNANDEZ PINILLA                         C000000000000000000000000000000000100010010000000000000000000000F0010000010345700420170914000101 00000000000000000000000000000000000000000000000000000000000000000000000000000000000000000000000000000000000000000N 00000000000NCONT   00    00000000000          00000000000000000000000000000000000000000000 000000000000000A000000000000000000000000000000000000000000000 000000000000000000000000000000000000000     00000000                                                                                                                        000000000000000000
F0010000010345700005000102390001700013552100000000000000000201709140002001LILIANA HERNANDEZ PINILLA                         D000000000000000000000000000000000100010010000000000000000000000F0010000010345700520170914000101 00000000000000000000000000000000000000000000000000000000000000000000000000000000000000000000000000000000000000000N 00000000000NCONT   00    00000000000          00000000000000000000000000000000000000000000 000000000000000A000000000000000000000000000000000000000000000 000000000000000000000000000000000000000     00000000                                                                                                                        000000000000000000
F0010000010345800001000080202350700011050500000000000000000201709140002001CONNY DE LA COSTA SAS                             D000000001400000000000000000000000100010010000000000000000000000F0010000010345800120170914000101 00000000000000000000000000000000000000000000000000000000000000000000000000000000000000000000000000000000000000000N 00000000000NCONT   00    00000000000          00000000000000000000000000000000000000000000 000000000000000A000000000000000000000000000000000000000000000 000000000000000000000000000000000000000     00000000                                                                                                                        000000000000000000
F0010000010345800002000080202350700041450500000000000000000201709140002001CONNY DE LA COSTA SAS                             C000000001300000000000000000000000100010010000000000000000000000F0010000010345800220170914000101 00000000000000000000000000000000000000000000000000000000000000000000000000000000000000000000000000000000000000000N 00000000000NCONT   00    00000000000          00000000000000000000000000000000000000000000 000000000000000A000000000000000000000000000000000000000000000 000000000000000000000000000000000000000     00000000                                                                                                                        000000000000000000
F0010000010345800003000080202350700042505000000000000000000201709140002001CONNY DE LA COSTA SAS                             C000000000100000000000000000000000100010010000000000000000000000F0010000010345800320170914000101 00000000000000000000000000000000000000000000000000000000000000000000000000000000000000000000000000000000000000000N 00000000000NCONT   00    00000000000          00000000000000000000000000000000000000000000 000000000000000A000000000000000000000000000000000000000000000 000000000000000000000000000000000000000     00000000                                                                                                                        000000000000000000
F0010000010345800004000080202350700023658300000000000000000201709140002001CONNY DE LA COSTA SAS                             C000000000000000000000000000000000100010010000000000000000000000F0010000010345800420170914000101 00000000000000000000000000000000000000000000000000000000000000000000000000000000000000000000000000000000000000000N 00000000000NCONT   00    00000000000          00000000000000000000000000000000000000000000 000000000000000A000000000000000000000000000000000000000000000 000000000000000000000000000000000000000     00000000                                                                                                                        000000000000000000
F0010000010345800005000080202350700013552100000000000000000201709140002001CONNY DE LA COSTA SAS                             D000000000000000000000000000000000100010010000000000000000000000F0010000010345800520170914000101 00000000000000000000000000000000000000000000000000000000000000000000000000000000000000000000000000000000000000000N 00000000000NCONT   00    00000000000          00000000000000000000000000000000000000000000 000000000000000A000000000000000000000000000000000000000000000 000000000000000000000000000000000000000     00000000                                                                                                                        000000000000000000
F0010000010345900001000080202350700011050500000000000000000201709140002001CONNY DE LA COSTA SAS                             D000000003400000000000000000000000100010010000000000000000000000F0010000010345900120170914000101 00000000000000000000000000000000000000000000000000000000000000000000000000000000000000000000000000000000000000000N 00000000000NCONT   00    00000000000          00000000000000000000000000000000000000000000 000000000000000A000000000000000000000000000000000000000000000 000000000000000000000000000000000000000     00000000                                                                                                                        000000000000000000
F0010000010345900002000080202350700041450500000000000000000201709140002001CONNY DE LA COSTA SAS                             C000000003300000000000000000000000100010010000000000000000000000F0010000010345900220170914000101 00000000000000000000000000000000000000000000000000000000000000000000000000000000000000000000000000000000000000000N 00000000000NCONT   00    00000000000          00000000000000000000000000000000000000000000 000000000000000A000000000000000000000000000000000000000000000 000000000000000000000000000000000000000     00000000                                                                                                                        000000000000000000
F0010000010345900003000080202350700042505000000000000000000201709140002001CONNY DE LA COSTA SAS                             C000000000100000000000000000000000100010010000000000000000000000F0010000010345900320170914000101 00000000000000000000000000000000000000000000000000000000000000000000000000000000000000000000000000000000000000000N 00000000000NCONT   00    00000000000          00000000000000000000000000000000000000000000 000000000000000A000000000000000000000000000000000000000000000 000000000000000000000000000000000000000     00000000                                                                                                                        000000000000000000
F0010000010345900004000080202350700023658300000000000000000201709140002001CONNY DE LA COSTA SAS                             C000000000000000000000000000000000100010010000000000000000000000F0010000010345900420170914000101 00000000000000000000000000000000000000000000000000000000000000000000000000000000000000000000000000000000000000000N 00000000000NCONT   00    00000000000          00000000000000000000000000000000000000000000 000000000000000A000000000000000000000000000000000000000000000 000000000000000000000000000000000000000     00000000                                                                                                                        000000000000000000
F0010000010345900005000080202350700013552100000000000000000201709140002001CONNY DE LA COSTA SAS                             D000000000000000000000000000000000100010010000000000000000000000F0010000010345900520170914000101 00000000000000000000000000000000000000000000000000000000000000000000000000000000000000000000000000000000000000000N 00000000000NCONT   00    00000000000          00000000000000000000000000000000000000000000 000000000000000A000000000000000000000000000000000000000000000 000000000000000000000000000000000000000     00000000                                                                                                                        000000000000000000
F0010000010346000001000080202350700011050500000000000000000201709140002001CONNY DE LA COSTA SAS                             D000000001400000000000000000000000100010010000000000000000000000F0010000010346000120170914000101 00000000000000000000000000000000000000000000000000000000000000000000000000000000000000000000000000000000000000000N 00000000000NCONT   00    00000000000          00000000000000000000000000000000000000000000 000000000000000A000000000000000000000000000000000000000000000 000000000000000000000000000000000000000     00000000                                                                                                                        000000000000000000
F0010000010346000002000080202350700041450500000000000000000201709140002001CONNY DE LA COSTA SAS                             C000000001300000000000000000000000100010010000000000000000000000F0010000010346000220170914000101 00000000000000000000000000000000000000000000000000000000000000000000000000000000000000000000000000000000000000000N 00000000000NCONT   00    00000000000          00000000000000000000000000000000000000000000 000000000000000A000000000000000000000000000000000000000000000 000000000000000000000000000000000000000     00000000                                                                                                                        000000000000000000
F0010000010346000003000080202350700042505000000000000000000201709140002001CONNY DE LA COSTA SAS                             C000000000100000000000000000000000100010010000000000000000000000F0010000010346000320170914000101 00000000000000000000000000000000000000000000000000000000000000000000000000000000000000000000000000000000000000000N 00000000000NCONT   00    00000000000          00000000000000000000000000000000000000000000 000000000000000A000000000000000000000000000000000000000000000 000000000000000000000000000000000000000     00000000                                                                                                                        000000000000000000
F0010000010346000004000080202350700023658300000000000000000201709140002001CONNY DE LA COSTA SAS                             C000000000000000000000000000000000100010010000000000000000000000F0010000010346000420170914000101 00000000000000000000000000000000000000000000000000000000000000000000000000000000000000000000000000000000000000000N 00000000000NCONT   00    00000000000          00000000000000000000000000000000000000000000 000000000000000A000000000000000000000000000000000000000000000 000000000000000000000000000000000000000     00000000                                                                                                                        000000000000000000
F0010000010346000005000080202350700013552100000000000000000201709140002001CONNY DE LA COSTA SAS                             D000000000000000000000000000000000100010010000000000000000000000F0010000010346000520170914000101 00000000000000000000000000000000000000000000000000000000000000000000000000000000000000000000000000000000000000000N 00000000000NCONT   00    00000000000          00000000000000000000000000000000000000000000 000000000000000A000000000000000000000000000000000000000000000 000000000000000000000000000000000000000     00000000                                                                                                                        000000000000000000
F0010000010346100001000000742399700011050500000000000000000201709140002001CACHARRERIA EL NUEVO CHADID                       D000000001410000000000000000000000100010010000000000000000000000F0010000010346100120170914000101 00000000000000000000000000000000000000000000000000000000000000000000000000000000000000000000000000000000000000000N 00000000000NCONT   00    00000000000          00000000000000000000000000000000000000000000 000000000000000A000000000000000000000000000000000000000000000 000000000000000000000000000000000000000     00000000                                                                                                                        000000000000000000
F0010000010346100002000000742399700041450500000000000000000201709140002001CACHARRERIA EL NUEVO CHADID                       C000000001100000000000000000000000100010010000000000000000000000F0010000010346100220170914000101 00000000000000000000000000000000000000000000000000000000000000000000000000000000000000000000000000000000000000000N 00000000000NCONT   00    00000000000          00000000000000000000000000000000000000000000 000000000000000A000000000000000000000000000000000000000000000 000000000000000000000000000000000000000     00000000                                                                                                                        000000000000000000
F0010000010346100003000000742399700042505000000000000000000201709140002001CACHARRERIA EL NUEVO CHADID                       C000000000310000000000000000000000100010010000000000000000000000F0010000010346100320170914000101 00000000000000000000000000000000000000000000000000000000000000000000000000000000000000000000000000000000000000000N 00000000000NCONT   00    00000000000          00000000000000000000000000000000000000000000 000000000000000A000000000000000000000000000000000000000000000 000000000000000000000000000000000000000     00000000                                                                                                                        000000000000000000
F0010000010346100004000000742399700023658300000000000000000201709140002001CACHARRERIA EL NUEVO CHADID                       C000000000000000000000000000000000100010010000000000000000000000F0010000010346100420170914000101 00000000000000000000000000000000000000000000000000000000000000000000000000000000000000000000000000000000000000000N 00000000000NCONT   00    00000000000          00000000000000000000000000000000000000000000 000000000000000A000000000000000000000000000000000000000000000 000000000000000000000000000000000000000     00000000                                                                                                                        000000000000000000
F0010000010346100005000000742399700013552100000000000000000201709140002001CACHARRERIA EL NUEVO CHADID                       D000000000000000000000000000000000100010010000000000000000000000F0010000010346100520170914000101 00000000000000000000000000000000000000000000000000000000000000000000000000000000000000000000000000000000000000000N 00000000000NCONT   00    00000000000          00000000000000000000000000000000000000000000 000000000000000A000000000000000000000000000000000000000000000 000000000000000000000000000000000000000     00000000                                                                                                                        000000000000000000
F0010000010346200001000000742399700011050500000000000000000201709140002001CACHARRERIA EL NUEVO CHADID                       D000000007300000000000000000000000100010010000000000000000000000F0010000010346200120170914000101 00000000000000000000000000000000000000000000000000000000000000000000000000000000000000000000000000000000000000000N 00000000000NCONT   00    00000000000          00000000000000000000000000000000000000000000 000000000000000A000000000000000000000000000000000000000000000 000000000000000000000000000000000000000     00000000                                                                                                                        000000000000000000
F0010000010346200002000000742399700041450500000000000000000201709140002001CACHARRERIA EL NUEVO CHADID                       C000000006500000000000000000000000100010010000000000000000000000F0010000010346200220170914000101 00000000000000000000000000000000000000000000000000000000000000000000000000000000000000000000000000000000000000000N 00000000000NCONT   00    00000000000          00000000000000000000000000000000000000000000 000000000000000A000000000000000000000000000000000000000000000 000000000000000000000000000000000000000     00000000                                                                                                                        000000000000000000
F0010000010346200003000000742399700042505000000000000000000201709140002001CACHARRERIA EL NUEVO CHADID                       C000000000800000000000000000000000100010010000000000000000000000F0010000010346200320170914000101 00000000000000000000000000000000000000000000000000000000000000000000000000000000000000000000000000000000000000000N 00000000000NCONT   00    00000000000          00000000000000000000000000000000000000000000 000000000000000A000000000000000000000000000000000000000000000 000000000000000000000000000000000000000     00000000                                                                                                                        000000000000000000
F0010000010346200004000000742399700023658300000000000000000201709140002001CACHARRERIA EL NUEVO CHADID                       C000000000000000000000000000000000100010010000000000000000000000F0010000010346200420170914000101 00000000000000000000000000000000000000000000000000000000000000000000000000000000000000000000000000000000000000000N 00000000000NCONT   00    00000000000          00000000000000000000000000000000000000000000 000000000000000A000000000000000000000000000000000000000000000 000000000000000000000000000000000000000     00000000                                                                                                                        000000000000000000
F0010000010346200005000000742399700013552100000000000000000201709140002001CACHARRERIA EL NUEVO CHADID                       D000000000000000000000000000000000100010010000000000000000000000F0010000010346200520170914000101 00000000000000000000000000000000000000000000000000000000000000000000000000000000000000000000000000000000000000000N 00000000000NCONT   00    00000000000          00000000000000000000000000000000000000000000 000000000000000A000000000000000000000000000000000000000000000 000000000000000000000000000000000000000     00000000                                                                                                                        000000000000000000
F0010000010346300001000007719033000011050500000000000000000201709140002001ALMACEN EL SALPICON.COM                           D000000003000000000000000000000000100010010000000000000000000000F0010000010346300120170914000101 00000000000000000000000000000000000000000000000000000000000000000000000000000000000000000000000000000000000000000N 00000000000NCONT   00    00000000000          00000000000000000000000000000000000000000000 000000000000000A000000000000000000000000000000000000000000000 000000000000000000000000000000000000000     00000000                                                                                                                        000000000000000000
F0010000010346300002000007719033000041450500000000000000000201709140002001ALMACEN EL SALPICON.COM                           C000000002200000000000000000000000100010010000000000000000000000F0010000010346300220170914000101 00000000000000000000000000000000000000000000000000000000000000000000000000000000000000000000000000000000000000000N 00000000000NCONT   00    00000000000          00000000000000000000000000000000000000000000 000000000000000A000000000000000000000000000000000000000000000 000000000000000000000000000000000000000     00000000                                                                                                                        000000000000000000
F0010000010346300003000007719033000042505000000000000000000201709140002001ALMACEN EL SALPICON.COM                           C000000000800000000000000000000000100010010000000000000000000000F0010000010346300320170914000101 00000000000000000000000000000000000000000000000000000000000000000000000000000000000000000000000000000000000000000N 00000000000NCONT   00    00000000000          00000000000000000000000000000000000000000000 000000000000000A000000000000000000000000000000000000000000000 000000000000000000000000000000000000000     00000000                                                                                                                        000000000000000000
F0010000010346300004000007719033000023658300000000000000000201709140002001ALMACEN EL SALPICON.COM                           C000000000000000000000000000000000100010010000000000000000000000F0010000010346300420170914000101 00000000000000000000000000000000000000000000000000000000000000000000000000000000000000000000000000000000000000000N 00000000000NCONT   00    00000000000          00000000000000000000000000000000000000000000 000000000000000A000000000000000000000000000000000000000000000 000000000000000000000000000000000000000     00000000                                                                                                                        000000000000000000
F0010000010346300005000007719033000013552100000000000000000201709140002001ALMACEN EL SALPICON.COM                           D000000000000000000000000000000000100010010000000000000000000000F0010000010346300520170914000101 00000000000000000000000000000000000000000000000000000000000000000000000000000000000000000000000000000000000000000N 00000000000NCONT   00    00000000000          00000000000000000000000000000000000000000000 000000000000000A000000000000000000000000000000000000000000000 000000000000000000000000000000000000000     00000000                                                                                                                        000000000000000000
F0010000010346400001000086003979400011050500000000000000000201709140002001CALYPSO BARRANQUILLA LTDA                         D000000000940000000000000000000000100010010000000000000000000000F0010000010346400120170914000101 00000000000000000000000000000000000000000000000000000000000000000000000000000000000000000000000000000000000000000N 00000000000NCONT   00    00000000000          00000000000000000000000000000000000000000000 000000000000000A000000000000000000000000000000000000000000000 000000000000000000000000000000000000000     00000000                                                                                                                        000000000000000000
F0010000010346400002000086003979400041450500000000000000000201709140002001CALYPSO BARRANQUILLA LTDA                         C000000000660000000000000000000000100010010000000000000000000000F0010000010346400220170914000101 00000000000000000000000000000000000000000000000000000000000000000000000000000000000000000000000000000000000000000N 00000000000NCONT   00    00000000000          00000000000000000000000000000000000000000000 000000000000000A000000000000000000000000000000000000000000000 000000000000000000000000000000000000000     00000000                                                                                                                        000000000000000000
F0010000010346400003000086003979400042505000000000000000000201709140002001CALYPSO BARRANQUILLA LTDA                         C000000000280000000000000000000000100010010000000000000000000000F0010000010346400320170914000101 00000000000000000000000000000000000000000000000000000000000000000000000000000000000000000000000000000000000000000N 00000000000NCONT   00    00000000000          00000000000000000000000000000000000000000000 000000000000000A000000000000000000000000000000000000000000000 000000000000000000000000000000000000000     00000000                                                                                                                        000000000000000000
F0010000010346400004000086003979400023658300000000000000000201709140002001CALYPSO BARRANQUILLA LTDA                         C000000000000000000000000000000000100010010000000000000000000000F0010000010346400420170914000101 00000000000000000000000000000000000000000000000000000000000000000000000000000000000000000000000000000000000000000N 00000000000NCONT   00    00000000000          00000000000000000000000000000000000000000000 000000000000000A000000000000000000000000000000000000000000000 000000000000000000000000000000000000000     00000000                                                                                                                        000000000000000000
F0010000010346400005000086003979400013552100000000000000000201709140002001CALYPSO BARRANQUILLA LTDA                         D000000000000000000000000000000000100010010000000000000000000000F0010000010346400520170914000101 00000000000000000000000000000000000000000000000000000000000000000000000000000000000000000000000000000000000000000N 00000000000NCONT   00    00000000000          00000000000000000000000000000000000000000000 000000000000000A000000000000000000000000000000000000000000000 000000000000000000000000000000000000000     00000000                                                                                                                        000000000000000000
F0010000010346500001000000742399700011050500000000000000000201709140002001CACHARRERIA EL NUEVO CHADID                       D000000001300000000000000000000000100010010000000000000000000000F0010000010346500120170914000101 00000000000000000000000000000000000000000000000000000000000000000000000000000000000000000000000000000000000000000N 00000000000NCONT   00    00000000000          00000000000000000000000000000000000000000000 000000000000000A000000000000000000000000000000000000000000000 000000000000000000000000000000000000000     00000000                                                                                                                        000000000000000000
F0010000010346500002000000742399700041450500000000000000000201709140002001CACHARRERIA EL NUEVO CHADID                       C000000001200000000000000000000000100010010000000000000000000000F0010000010346500220170914000101 00000000000000000000000000000000000000000000000000000000000000000000000000000000000000000000000000000000000000000N 00000000000NCONT   00    00000000000          00000000000000000000000000000000000000000000 000000000000000A000000000000000000000000000000000000000000000 000000000000000000000000000000000000000     00000000                                                                                                                        000000000000000000
F0010000010346500003000000742399700042505000000000000000000201709140002001CACHARRERIA EL NUEVO CHADID                       C000000000100000000000000000000000100010010000000000000000000000F0010000010346500320170914000101 00000000000000000000000000000000000000000000000000000000000000000000000000000000000000000000000000000000000000000N 00000000000NCONT   00    00000000000          00000000000000000000000000000000000000000000 000000000000000A000000000000000000000000000000000000000000000 000000000000000000000000000000000000000     00000000                                                                                                                        000000000000000000
F0010000010346500004000000742399700023658300000000000000000201709140002001CACHARRERIA EL NUEVO CHADID                       C000000000000000000000000000000000100010010000000000000000000000F0010000010346500420170914000101 00000000000000000000000000000000000000000000000000000000000000000000000000000000000000000000000000000000000000000N 00000000000NCONT   00    00000000000          00000000000000000000000000000000000000000000 000000000000000A000000000000000000000000000000000000000000000 000000000000000000000000000000000000000     00000000                                                                                                                        000000000000000000
F0010000010346500005000000742399700013552100000000000000000201709140002001CACHARRERIA EL NUEVO CHADID                       D000000000000000000000000000000000100010010000000000000000000000F0010000010346500520170914000101 00000000000000000000000000000000000000000000000000000000000000000000000000000000000000000000000000000000000000000N 00000000000NCONT   00    00000000000          00000000000000000000000000000000000000000000 000000000000000A000000000000000000000000000000000000000000000 000000000000000000000000000000000000000     00000000                                                                                                                        000000000000000000
F0010000010346600001000090061985600011050500000000000000000201709140002001COMERCIALIZADORA PATRY SAS                        D000000001400000000000000000000000100010010000000000000000000000F0010000010346600120170914000101 00000000000000000000000000000000000000000000000000000000000000000000000000000000000000000000000000000000000000000N 00000000000NCONT   00    00000000000          00000000000000000000000000000000000000000000 000000000000000A000000000000000000000000000000000000000000000 000000000000000000000000000000000000000     00000000                                                                                                                        000000000000000000
F0010000010346600002000090061985600041450500000000000000000201709140002001COMERCIALIZADORA PATRY SAS                        C000000001100000000000000000000000100010010000000000000000000000F0010000010346600220170914000101 00000000000000000000000000000000000000000000000000000000000000000000000000000000000000000000000000000000000000000N 00000000000NCONT   00    00000000000          00000000000000000000000000000000000000000000 000000000000000A000000000000000000000000000000000000000000000 000000000000000000000000000000000000000     00000000                                                                                                                        000000000000000000
F0010000010346600003000090061985600042505000000000000000000201709140002001COMERCIALIZADORA PATRY SAS                        C000000000300000000000000000000000100010010000000000000000000000F0010000010346600320170914000101 00000000000000000000000000000000000000000000000000000000000000000000000000000000000000000000000000000000000000000N 00000000000NCONT   00    00000000000          00000000000000000000000000000000000000000000 000000000000000A000000000000000000000000000000000000000000000 000000000000000000000000000000000000000     00000000                                                                                                                        000000000000000000
F0010000010346600004000090061985600023658300000000000000000201709140002001COMERCIALIZADORA PATRY SAS                        C000000000000000000000000000000000100010010000000000000000000000F0010000010346600420170914000101 00000000000000000000000000000000000000000000000000000000000000000000000000000000000000000000000000000000000000000N 00000000000NCONT   00    00000000000          00000000000000000000000000000000000000000000 000000000000000A000000000000000000000000000000000000000000000 000000000000000000000000000000000000000     00000000                                                                                                                        000000000000000000
F0010000010346600005000090061985600013552100000000000000000201709140002001COMERCIALIZADORA PATRY SAS                        D000000000000000000000000000000000100010010000000000000000000000F0010000010346600520170914000101 00000000000000000000000000000000000000000000000000000000000000000000000000000000000000000000000000000000000000000N 00000000000NCONT   00    00000000000          00000000000000000000000000000000000000000000 000000000000000A000000000000000000000000000000000000000000000 000000000000000000000000000000000000000     00000000                                                                                                                        000000000000000000
F0010000010346700001000007229328500011050500000000000000000201709140002001PV ELECTRIC   DEL CARIBE                          D000000006800000000000000000000000100010010000000000000000000000F0010000010346700120170914000101 00000000000000000000000000000000000000000000000000000000000000000000000000000000000000000000000000000000000000000N 00000000000NCONT   00    00000000000          00000000000000000000000000000000000000000000 000000000000000A000000000000000000000000000000000000000000000 000000000000000000000000000000000000000     00000000                                                                                                                        000000000000000000
F0010000010346700002000007229328500041450500000000000000000201709140002001PV ELECTRIC   DEL CARIBE                          C000000006000000000000000000000000100010010000000000000000000000F0010000010346700220170914000101 00000000000000000000000000000000000000000000000000000000000000000000000000000000000000000000000000000000000000000N 00000000000NCONT   00    00000000000          00000000000000000000000000000000000000000000 000000000000000A000000000000000000000000000000000000000000000 000000000000000000000000000000000000000     00000000                                                                                                                        000000000000000000
F0010000010346700003000007229328500042505000000000000000000201709140002001PV ELECTRIC   DEL CARIBE                          C000000000800000000000000000000000100010010000000000000000000000F0010000010346700320170914000101 00000000000000000000000000000000000000000000000000000000000000000000000000000000000000000000000000000000000000000N 00000000000NCONT   00    00000000000          00000000000000000000000000000000000000000000 000000000000000A000000000000000000000000000000000000000000000 000000000000000000000000000000000000000     00000000                                                                                                                        000000000000000000
F0010000010346700004000007229328500023658300000000000000000201709140002001PV ELECTRIC   DEL CARIBE                          C000000000000000000000000000000000100010010000000000000000000000F0010000010346700420170914000101 00000000000000000000000000000000000000000000000000000000000000000000000000000000000000000000000000000000000000000N 00000000000NCONT   00    00000000000          00000000000000000000000000000000000000000000 000000000000000A000000000000000000000000000000000000000000000 000000000000000000000000000000000000000     00000000                                                                                                                        000000000000000000
F0010000010346700005000007229328500013552100000000000000000201709140002001PV ELECTRIC   DEL CARIBE                          D000000000000000000000000000000000100010010000000000000000000000F0010000010346700520170914000101 00000000000000000000000000000000000000000000000000000000000000000000000000000000000000000000000000000000000000000N 00000000000NCONT   00    00000000000          00000000000000000000000000000000000000000000 000000000000000A000000000000000000000000000000000000000000000 000000000000000000000000000000000000000     00000000                                                                                                                        000000000000000000
F0010000010346800001000090050144800011050500000000000000000201709140002001PLASTICOS JR ASOCIADOS SAS                        D000000017200000000000000000000000100010010000000000000000000000F0010000010346800120170914000101 00000000000000000000000000000000000000000000000000000000000000000000000000000000000000000000000000000000000000000N 00000000000NCONT   00    00000000000          00000000000000000000000000000000000000000000 000000000000000A000000000000000000000000000000000000000000000 000000000000000000000000000000000000000     00000000                                                                                                                        000000000000000000
F0010000010346800002000090050144800041450500000000000000000201709140002001PLASTICOS JR ASOCIADOS SAS                        C000000015600000000000000000000000100010010000000000000000000000F0010000010346800220170914000101 00000000000000000000000000000000000000000000000000000000000000000000000000000000000000000000000000000000000000000N 00000000000NCONT   00    00000000000          00000000000000000000000000000000000000000000 000000000000000A000000000000000000000000000000000000000000000 000000000000000000000000000000000000000     00000000                                                                                                                        000000000000000000
