F0010000006865400001000090048802800011050500000000000000000201502270002001EXTRUSIONES TECNICAS DE COLOMBIA SAS              D000000016400000000000000000000000100010010000000000000000000000F0010000006865400120150227000101 00000000000000000000000000000000000000000000000000000000000000000000000000000000000000000000000000000000000000000N 00000000000NCONT   00    00000000000          00000000000000000000000000000000000000000000 000000000000000A000000000000000000000000000000000000000000000 000000000000000000000000000000000000000     00000000                                                                                                                        000000000000000000
F0010000006865400002000090048802800041450500000000000000000201502270002001EXTRUSIONES TECNICAS DE COLOMBIA SAS              C000000014700000000000000000000000100010010000000000000000000000F0010000006865400220150227000101 00000000000000000000000000000000000000000000000000000000000000000000000000000000000000000000000000000000000000000N 00000000000NCONT   00    00000000000          00000000000000000000000000000000000000000000 000000000000000A000000000000000000000000000000000000000000000 000000000000000000000000000000000000000     00000000                                                                                                                        000000000000000000
F0010000006865400003000090048802800042505000000000000000000201502270002001EXTRUSIONES TECNICAS DE COLOMBIA SAS              C000000001700000000000000000000000100010010000000000000000000000F0010000006865400320150227000101 00000000000000000000000000000000000000000000000000000000000000000000000000000000000000000000000000000000000000000N 00000000000NCONT   00    00000000000          00000000000000000000000000000000000000000000 000000000000000A000000000000000000000000000000000000000000000 000000000000000000000000000000000000000     00000000                                                                                                                        000000000000000000
F0010000006865400004000090048802800023658300000000000000000201502270002001EXTRUSIONES TECNICAS DE COLOMBIA SAS              C000000000117600000000000000000000100010010000000000000000000000F0010000006865400420150227000101 00000000000000000000000000000000000000000000000000000000000000000000000000000000000000000000000000000000000000000N 00000000000NCONT   00    00000000000          00000000000000000000000000000000000000000000 000000000000000A000000000000000000000000000000000000000000000 000000000000000000000000000000000000000     00000000                                                                                                                        000000000000000000
F0010000006865400005000090048802800013552100000000000000000201502270002001EXTRUSIONES TECNICAS DE COLOMBIA SAS              D000000000117600000000000000000000100010010000000000000000000000F0010000006865400520150227000101 00000000000000000000000000000000000000000000000000000000000000000000000000000000000000000000000000000000000000000N 00000000000NCONT   00    00000000000          00000000000000000000000000000000000000000000 000000000000000A000000000000000000000000000000000000000000000 000000000000000000000000000000000000000     00000000                                                                                                                        000000000000000000
F0010000006865500001000000744496800011050500000000000000000201502270002001TOMAS SANCHEZ                                     D000000001000000000000000000000000100010010000000000000000000000F0010000006865500120150227000101 00000000000000000000000000000000000000000000000000000000000000000000000000000000000000000000000000000000000000000N 00000000000NCONT   00    00000000000          00000000000000000000000000000000000000000000 000000000000000A000000000000000000000000000000000000000000000 000000000000000000000000000000000000000     00000000                                                                                                                        000000000000000000
F0010000006865500002000000744496800041450500000000000000000201502270002001TOMAS SANCHEZ                                     C000000000900000000000000000000000100010010000000000000000000000F0010000006865500220150227000101 00000000000000000000000000000000000000000000000000000000000000000000000000000000000000000000000000000000000000000N 00000000000NCONT   00    00000000000          00000000000000000000000000000000000000000000 000000000000000A000000000000000000000000000000000000000000000 000000000000000000000000000000000000000     00000000                                                                                                                        000000000000000000
F0010000006865500003000000744496800042505000000000000000000201502270002001TOMAS SANCHEZ                                     C000000000100000000000000000000000100010010000000000000000000000F0010000006865500320150227000101 00000000000000000000000000000000000000000000000000000000000000000000000000000000000000000000000000000000000000000N 00000000000NCONT   00    00000000000          00000000000000000000000000000000000000000000 000000000000000A000000000000000000000000000000000000000000000 000000000000000000000000000000000000000     00000000                                                                                                                        000000000000000000
F0010000006865500004000000744496800023658300000000000000000201502270002001TOMAS SANCHEZ                                     C000000000007200000000000000000000100010010000000000000000000000F0010000006865500420150227000101 00000000000000000000000000000000000000000000000000000000000000000000000000000000000000000000000000000000000000000N 00000000000NCONT   00    00000000000          00000000000000000000000000000000000000000000 000000000000000A000000000000000000000000000000000000000000000 000000000000000000000000000000000000000     00000000                                                                                                                        000000000000000000
F0010000006865500005000000744496800013552100000000000000000201502270002001TOMAS SANCHEZ                                     D000000000007200000000000000000000100010010000000000000000000000F0010000006865500520150227000101 00000000000000000000000000000000000000000000000000000000000000000000000000000000000000000000000000000000000000000N 00000000000NCONT   00    00000000000          00000000000000000000000000000000000000000000 000000000000000A000000000000000000000000000000000000000000000 000000000000000000000000000000000000000     00000000                                                                                                                        000000000000000000
F0010000006865600001000000747559300011050500000000000000000201502270002001RAFAEL SERRANO                                    D000000001300000000000000000000000100010010000000000000000000000F0010000006865600120150227000101 00000000000000000000000000000000000000000000000000000000000000000000000000000000000000000000000000000000000000000N 00000000000NCONT   00    00000000000          00000000000000000000000000000000000000000000 000000000000000A000000000000000000000000000000000000000000000 000000000000000000000000000000000000000     00000000                                                                                                                        000000000000000000
F0010000006865600002000000747559300041450500000000000000000201502270002001RAFAEL SERRANO                                    C000000001000000000000000000000000100010010000000000000000000000F0010000006865600220150227000101 00000000000000000000000000000000000000000000000000000000000000000000000000000000000000000000000000000000000000000N 00000000000NCONT   00    00000000000          00000000000000000000000000000000000000000000 000000000000000A000000000000000000000000000000000000000000000 000000000000000000000000000000000000000     00000000                                                                                                                        000000000000000000
F0010000006865600003000000747559300042505000000000000000000201502270002001RAFAEL SERRANO                                    C000000000300000000000000000000000100010010000000000000000000000F0010000006865600320150227000101 00000000000000000000000000000000000000000000000000000000000000000000000000000000000000000000000000000000000000000N 00000000000NCONT   00    00000000000          00000000000000000000000000000000000000000000 000000000000000A000000000000000000000000000000000000000000000 000000000000000000000000000000000000000     00000000                                                                                                                        000000000000000000
F0010000006865600004000000747559300023658300000000000000000201502270002001RAFAEL SERRANO                                    C000000000008000000000000000000000100010010000000000000000000000F0010000006865600420150227000101 00000000000000000000000000000000000000000000000000000000000000000000000000000000000000000000000000000000000000000N 00000000000NCONT   00    00000000000          00000000000000000000000000000000000000000000 000000000000000A000000000000000000000000000000000000000000000 000000000000000000000000000000000000000     00000000                                                                                                                        000000000000000000
F0010000006865600005000000747559300013552100000000000000000201502270002001RAFAEL SERRANO                                    D000000000008000000000000000000000100010010000000000000000000000F0010000006865600520150227000101 00000000000000000000000000000000000000000000000000000000000000000000000000000000000000000000000000000000000000000N 00000000000NCONT   00    00000000000          00000000000000000000000000000000000000000000 000000000000000A000000000000000000000000000000000000000000000 000000000000000000000000000000000000000     00000000                                                                                                                        000000000000000000
F0010000006865700001000090020547900011050500000000000000000201502270002001DAC DEL CARIBE S.A.S.                             D000000007000000000000000000000000100010010000000000000000000000F0010000006865700120150227000101 00000000000000000000000000000000000000000000000000000000000000000000000000000000000000000000000000000000000000000N 00000000000NCONT   00    00000000000          00000000000000000000000000000000000000000000 000000000000000A000000000000000000000000000000000000000000000 000000000000000000000000000000000000000     00000000                                                                                                                        000000000000000000
F0010000006865700002000090020547900041450500000000000000000201502270002001DAC DEL CARIBE S.A.S.                             C000000006000000000000000000000000100010010000000000000000000000F0010000006865700220150227000101 00000000000000000000000000000000000000000000000000000000000000000000000000000000000000000000000000000000000000000N 00000000000NCONT   00    00000000000          00000000000000000000000000000000000000000000 000000000000000A000000000000000000000000000000000000000000000 000000000000000000000000000000000000000     00000000                                                                                                                        000000000000000000
F0010000006865700003000090020547900042505000000000000000000201502270002001DAC DEL CARIBE S.A.S.                             C000000001000000000000000000000000100010010000000000000000000000F0010000006865700320150227000101 00000000000000000000000000000000000000000000000000000000000000000000000000000000000000000000000000000000000000000N 00000000000NCONT   00    00000000000          00000000000000000000000000000000000000000000 000000000000000A000000000000000000000000000000000000000000000 000000000000000000000000000000000000000     00000000                                                                                                                        000000000000000000
F0010000006865700004000090020547900023658300000000000000000201502270002001DAC DEL CARIBE S.A.S.                             C000000000048000000000000000000000100010010000000000000000000000F0010000006865700420150227000101 00000000000000000000000000000000000000000000000000000000000000000000000000000000000000000000000000000000000000000N 00000000000NCONT   00    00000000000          00000000000000000000000000000000000000000000 000000000000000A000000000000000000000000000000000000000000000 000000000000000000000000000000000000000     00000000                                                                                                                        000000000000000000
F0010000006865700005000090020547900013552100000000000000000201502270002001DAC DEL CARIBE S.A.S.                             D000000000048000000000000000000000100010010000000000000000000000F0010000006865700520150227000101 00000000000000000000000000000000000000000000000000000000000000000000000000000000000000000000000000000000000000000N 00000000000NCONT   00    00000000000          00000000000000000000000000000000000000000000 000000000000000A000000000000000000000000000000000000000000000 000000000000000000000000000000000000000     00000000                                                                                                                        000000000000000000
F0010000006865800001000090020547900011050500000000000000000201502270002001DAC DEL CARIBE S.A.S.                             D000000001600000000000000000000000100010010000000000000000000000F0010000006865800120150227000101 00000000000000000000000000000000000000000000000000000000000000000000000000000000000000000000000000000000000000000N 00000000000NCONT   00    00000000000          00000000000000000000000000000000000000000000 000000000000000A000000000000000000000000000000000000000000000 000000000000000000000000000000000000000     00000000                                                                                                                        000000000000000000
F0010000006865800002000090020547900041450500000000000000000201502270002001DAC DEL CARIBE S.A.S.                             C000000001200000000000000000000000100010010000000000000000000000F0010000006865800220150227000101 00000000000000000000000000000000000000000000000000000000000000000000000000000000000000000000000000000000000000000N 00000000000NCONT   00    00000000000          00000000000000000000000000000000000000000000 000000000000000A000000000000000000000000000000000000000000000 000000000000000000000000000000000000000     00000000                                                                                                                        000000000000000000
F0010000006865800003000090020547900042505000000000000000000201502270002001DAC DEL CARIBE S.A.S.                             C000000000400000000000000000000000100010010000000000000000000000F0010000006865800320150227000101 00000000000000000000000000000000000000000000000000000000000000000000000000000000000000000000000000000000000000000N 00000000000NCONT   00    00000000000          00000000000000000000000000000000000000000000 000000000000000A000000000000000000000000000000000000000000000 000000000000000000000000000000000000000     00000000                                                                                                                        000000000000000000
F0010000006865800004000090020547900023658300000000000000000201502270002001DAC DEL CARIBE S.A.S.                             C000000000009600000000000000000000100010010000000000000000000000F0010000006865800420150227000101 00000000000000000000000000000000000000000000000000000000000000000000000000000000000000000000000000000000000000000N 00000000000NCONT   00    00000000000          00000000000000000000000000000000000000000000 000000000000000A000000000000000000000000000000000000000000000 000000000000000000000000000000000000000     00000000                                                                                                                        000000000000000000
F0010000006865800005000090020547900013552100000000000000000201502270002001DAC DEL CARIBE S.A.S.                             D000000000009600000000000000000000100010010000000000000000000000F0010000006865800520150227000101 00000000000000000000000000000000000000000000000000000000000000000000000000000000000000000000000000000000000000000N 00000000000NCONT   00    00000000000          00000000000000000000000000000000000000000000 000000000000000A000000000000000000000000000000000000000000000 000000000000000000000000000000000000000     00000000                                                                                                                        000000000000000000
F0010000006865900001000090020547900011050500000000000000000201502270002001DAC DEL CARIBE S.A.S.                             D000000001800000000000000000000000100010010000000000000000000000F0010000006865900120150227000101 00000000000000000000000000000000000000000000000000000000000000000000000000000000000000000000000000000000000000000N 00000000000NCONT   00    00000000000          00000000000000000000000000000000000000000000 000000000000000A000000000000000000000000000000000000000000000 000000000000000000000000000000000000000     00000000                                                                                                                        000000000000000000
F0010000006865900002000090020547900041450500000000000000000201502270002001DAC DEL CARIBE S.A.S.                             C000000001200000000000000000000000100010010000000000000000000000F0010000006865900220150227000101 00000000000000000000000000000000000000000000000000000000000000000000000000000000000000000000000000000000000000000N 00000000000NCONT   00    00000000000          00000000000000000000000000000000000000000000 000000000000000A000000000000000000000000000000000000000000000 000000000000000000000000000000000000000     00000000                                                                                                                        000000000000000000
F0010000006865900003000090020547900042505000000000000000000201502270002001DAC DEL CARIBE S.A.S.                             C000000000600000000000000000000000100010010000000000000000000000F0010000006865900320150227000101 00000000000000000000000000000000000000000000000000000000000000000000000000000000000000000000000000000000000000000N 00000000000NCONT   00    00000000000          00000000000000000000000000000000000000000000 000000000000000A000000000000000000000000000000000000000000000 000000000000000000000000000000000000000     00000000                                                                                                                        000000000000000000
F0010000006865900004000090020547900023658300000000000000000201502270002001DAC DEL CARIBE S.A.S.                             C000000000009600000000000000000000100010010000000000000000000000F0010000006865900420150227000101 00000000000000000000000000000000000000000000000000000000000000000000000000000000000000000000000000000000000000000N 00000000000NCONT   00    00000000000          00000000000000000000000000000000000000000000 000000000000000A000000000000000000000000000000000000000000000 000000000000000000000000000000000000000     00000000                                                                                                                        000000000000000000
F0010000006865900005000090020547900013552100000000000000000201502270002001DAC DEL CARIBE S.A.S.                             D000000000009600000000000000000000100010010000000000000000000000F0010000006865900520150227000101 00000000000000000000000000000000000000000000000000000000000000000000000000000000000000000000000000000000000000000N 00000000000NCONT   00    00000000000          00000000000000000000000000000000000000000000 000000000000000A000000000000000000000000000000000000000000000 000000000000000000000000000000000000000     00000000                                                                                                                        000000000000000000
F0010000006866000001000090020547900011050500000000000000000201502270002001DAC DEL CARIBE S.A.S.                             D000000010000000000000000000000000100010010000000000000000000000F0010000006866000120150227000101 00000000000000000000000000000000000000000000000000000000000000000000000000000000000000000000000000000000000000000N 00000000000NCONT   00    00000000000          00000000000000000000000000000000000000000000 000000000000000A000000000000000000000000000000000000000000000 000000000000000000000000000000000000000     00000000                                                                                                                        000000000000000000
F0010000006866000002000090020547900041450500000000000000000201502270002001DAC DEL CARIBE S.A.S.                             C000000007700000000000000000000000100010010000000000000000000000F0010000006866000220150227000101 00000000000000000000000000000000000000000000000000000000000000000000000000000000000000000000000000000000000000000N 00000000000NCONT   00    00000000000          00000000000000000000000000000000000000000000 000000000000000A000000000000000000000000000000000000000000000 000000000000000000000000000000000000000     00000000                                                                                                                        000000000000000000
F0010000006866000003000090020547900042505000000000000000000201502270002001DAC DEL CARIBE S.A.S.                             C000000002300000000000000000000000100010010000000000000000000000F0010000006866000320150227000101 00000000000000000000000000000000000000000000000000000000000000000000000000000000000000000000000000000000000000000N 00000000000NCONT   00    00000000000          00000000000000000000000000000000000000000000 000000000000000A000000000000000000000000000000000000000000000 000000000000000000000000000000000000000     00000000                                                                                                                        000000000000000000
F0010000006866000004000090020547900023658300000000000000000201502270002001DAC DEL CARIBE S.A.S.                             C000000000061600000000000000000000100010010000000000000000000000F0010000006866000420150227000101 00000000000000000000000000000000000000000000000000000000000000000000000000000000000000000000000000000000000000000N 00000000000NCONT   00    00000000000          00000000000000000000000000000000000000000000 000000000000000A000000000000000000000000000000000000000000000 000000000000000000000000000000000000000     00000000                                                                                                                        000000000000000000
F0010000006866000005000090020547900013552100000000000000000201502270002001DAC DEL CARIBE S.A.S.                             D000000000061600000000000000000000100010010000000000000000000000F0010000006866000520150227000101 00000000000000000000000000000000000000000000000000000000000000000000000000000000000000000000000000000000000000000N 00000000000NCONT   00    00000000000          00000000000000000000000000000000000000000000 000000000000000A000000000000000000000000000000000000000000000 000000000000000000000000000000000000000     00000000                                                                                                                        000000000000000000
F0010000006866100001000001325248300011050500000000000000000201502270002001LUBRICANTE LA 37                                  D000000002300000000000000000000000100010010000000000000000000000F0010000006866100120150227000101 00000000000000000000000000000000000000000000000000000000000000000000000000000000000000000000000000000000000000000N 00000000000NCONT   00    00000000000          00000000000000000000000000000000000000000000 000000000000000A000000000000000000000000000000000000000000000 000000000000000000000000000000000000000     00000000                                                                                                                        000000000000000000
F0010000006866100002000001325248300041450500000000000000000201502270002001LUBRICANTE LA 37                                  C000000002000000000000000000000000100010010000000000000000000000F0010000006866100220150227000101 00000000000000000000000000000000000000000000000000000000000000000000000000000000000000000000000000000000000000000N 00000000000NCONT   00    00000000000          00000000000000000000000000000000000000000000 000000000000000A000000000000000000000000000000000000000000000 000000000000000000000000000000000000000     00000000                                                                                                                        000000000000000000
F0010000006866100003000001325248300042505000000000000000000201502270002001LUBRICANTE LA 37                                  C000000000300000000000000000000000100010010000000000000000000000F0010000006866100320150227000101 00000000000000000000000000000000000000000000000000000000000000000000000000000000000000000000000000000000000000000N 00000000000NCONT   00    00000000000          00000000000000000000000000000000000000000000 000000000000000A000000000000000000000000000000000000000000000 000000000000000000000000000000000000000     00000000                                                                                                                        000000000000000000
F0010000006866100004000001325248300023658300000000000000000201502270002001LUBRICANTE LA 37                                  C000000000016000000000000000000000100010010000000000000000000000F0010000006866100420150227000101 00000000000000000000000000000000000000000000000000000000000000000000000000000000000000000000000000000000000000000N 00000000000NCONT   00    00000000000          00000000000000000000000000000000000000000000 000000000000000A000000000000000000000000000000000000000000000 000000000000000000000000000000000000000     00000000                                                                                                                        000000000000000000
F0010000006866100005000001325248300013552100000000000000000201502270002001LUBRICANTE LA 37                                  D000000000016000000000000000000000100010010000000000000000000000F0010000006866100520150227000101 00000000000000000000000000000000000000000000000000000000000000000000000000000000000000000000000000000000000000000N 00000000000NCONT   00    00000000000          00000000000000000000000000000000000000000000 000000000000000A000000000000000000000000000000000000000000000 000000000000000000000000000000000000000     00000000                                                                                                                        000000000000000000
F0010000006866200001000007016511700011050500000000000000000201502270002001YEISON CASTAÑO                                   D000000001200000000000000000000000100010010000000000000000000000F0010000006866200120150227000101 00000000000000000000000000000000000000000000000000000000000000000000000000000000000000000000000000000000000000000N 00000000000NCONT   00    00000000000          00000000000000000000000000000000000000000000 000000000000000A000000000000000000000000000000000000000000000 000000000000000000000000000000000000000     00000000                                                                                                                        000000000000000000
F0010000006866200002000007016511700041450500000000000000000201502270002001YEISON CASTAÑO                                   C000000001100000000000000000000000100010010000000000000000000000F0010000006866200220150227000101 00000000000000000000000000000000000000000000000000000000000000000000000000000000000000000000000000000000000000000N 00000000000NCONT   00    00000000000          00000000000000000000000000000000000000000000 000000000000000A000000000000000000000000000000000000000000000 000000000000000000000000000000000000000     00000000                                                                                                                        000000000000000000
F0010000006866200003000007016511700042505000000000000000000201502270002001YEISON CASTAÑO                                   C000000000100000000000000000000000100010010000000000000000000000F0010000006866200320150227000101 00000000000000000000000000000000000000000000000000000000000000000000000000000000000000000000000000000000000000000N 00000000000NCONT   00    00000000000          00000000000000000000000000000000000000000000 000000000000000A000000000000000000000000000000000000000000000 000000000000000000000000000000000000000     00000000                                                                                                                        000000000000000000
F0010000006866200004000007016511700023658300000000000000000201502270002001YEISON CASTAÑO                                   C000000000008800000000000000000000100010010000000000000000000000F0010000006866200420150227000101 00000000000000000000000000000000000000000000000000000000000000000000000000000000000000000000000000000000000000000N 00000000000NCONT   00    00000000000          00000000000000000000000000000000000000000000 000000000000000A000000000000000000000000000000000000000000000 000000000000000000000000000000000000000     00000000                                                                                                                        000000000000000000
F0010000006866200005000007016511700013552100000000000000000201502270002001YEISON CASTAÑO                                   D000000000008800000000000000000000100010010000000000000000000000F0010000006866200520150227000101 00000000000000000000000000000000000000000000000000000000000000000000000000000000000000000000000000000000000000000N 00000000000NCONT   00    00000000000          00000000000000000000000000000000000000000000 000000000000000A000000000000000000000000000000000000000000000 000000000000000000000000000000000000000     00000000                                                                                                                        000000000000000000
F0010000006866300001000000431178400011050500000000000000000201502270002001EFRAIN ALVAREZ                                    D000000001820000000000000000000000100010010000000000000000000000F0010000006866300120150227000101 00000000000000000000000000000000000000000000000000000000000000000000000000000000000000000000000000000000000000000N 00000000000NCONT   00    00000000000          00000000000000000000000000000000000000000000 000000000000000A000000000000000000000000000000000000000000000 000000000000000000000000000000000000000     00000000                                                                                                                        000000000000000000
F0010000006866300002000000431178400041450500000000000000000201502270002001EFRAIN ALVAREZ                                    C000000001720000000000000000000000100010010000000000000000000000F0010000006866300220150227000101 00000000000000000000000000000000000000000000000000000000000000000000000000000000000000000000000000000000000000000N 00000000000NCONT   00    00000000000          00000000000000000000000000000000000000000000 000000000000000A000000000000000000000000000000000000000000000 000000000000000000000000000000000000000     00000000                                                                                                                        000000000000000000
F0010000006866300003000000431178400042505000000000000000000201502270002001EFRAIN ALVAREZ                                    C000000000100000000000000000000000100010010000000000000000000000F0010000006866300320150227000101 00000000000000000000000000000000000000000000000000000000000000000000000000000000000000000000000000000000000000000N 00000000000NCONT   00    00000000000          00000000000000000000000000000000000000000000 000000000000000A000000000000000000000000000000000000000000000 000000000000000000000000000000000000000     00000000                                                                                                                        000000000000000000
F0010000006866300004000000431178400023658300000000000000000201502270002001EFRAIN ALVAREZ                                    C000000000013800000000000000000000100010010000000000000000000000F0010000006866300420150227000101 00000000000000000000000000000000000000000000000000000000000000000000000000000000000000000000000000000000000000000N 00000000000NCONT   00    00000000000          00000000000000000000000000000000000000000000 000000000000000A000000000000000000000000000000000000000000000 000000000000000000000000000000000000000     00000000                                                                                                                        000000000000000000
F0010000006866300005000000431178400013552100000000000000000201502270002001EFRAIN ALVAREZ                                    D000000000013800000000000000000000100010010000000000000000000000F0010000006866300520150227000101 00000000000000000000000000000000000000000000000000000000000000000000000000000000000000000000000000000000000000000N 00000000000NCONT   00    00000000000          00000000000000000000000000000000000000000000 000000000000000A000000000000000000000000000000000000000000000 000000000000000000000000000000000000000     00000000                                                                                                                        000000000000000000
F0010000006866400001000000431178400011050500000000000000000201502270002001EFRAIN ALVAREZ                                    D000000000910000000000000000000000100010010000000000000000000000F0010000006866400120150227000101 00000000000000000000000000000000000000000000000000000000000000000000000000000000000000000000000000000000000000000N 00000000000NCONT   00    00000000000          00000000000000000000000000000000000000000000 000000000000000A000000000000000000000000000000000000000000000 000000000000000000000000000000000000000     00000000                                                                                                                        000000000000000000
F0010000006866400002000000431178400041450500000000000000000201502270002001EFRAIN ALVAREZ                                    C000000000860000000000000000000000100010010000000000000000000000F0010000006866400220150227000101 00000000000000000000000000000000000000000000000000000000000000000000000000000000000000000000000000000000000000000N 00000000000NCONT   00    00000000000          00000000000000000000000000000000000000000000 000000000000000A000000000000000000000000000000000000000000000 000000000000000000000000000000000000000     00000000                                                                                                                        000000000000000000
F0010000006866400003000000431178400042505000000000000000000201502270002001EFRAIN ALVAREZ                                    C000000000050000000000000000000000100010010000000000000000000000F0010000006866400320150227000101 00000000000000000000000000000000000000000000000000000000000000000000000000000000000000000000000000000000000000000N 00000000000NCONT   00    00000000000          00000000000000000000000000000000000000000000 000000000000000A000000000000000000000000000000000000000000000 000000000000000000000000000000000000000     00000000                                                                                                                        000000000000000000
F0010000006866400004000000431178400023658300000000000000000201502270002001EFRAIN ALVAREZ                                    C000000000006900000000000000000000100010010000000000000000000000F0010000006866400420150227000101 00000000000000000000000000000000000000000000000000000000000000000000000000000000000000000000000000000000000000000N 00000000000NCONT   00    00000000000          00000000000000000000000000000000000000000000 000000000000000A000000000000000000000000000000000000000000000 000000000000000000000000000000000000000     00000000                                                                                                                        000000000000000000
F0010000006866400005000000431178400013552100000000000000000201502270002001EFRAIN ALVAREZ                                    D000000000006900000000000000000000100010010000000000000000000000F0010000006866400520150227000101 00000000000000000000000000000000000000000000000000000000000000000000000000000000000000000000000000000000000000000N 00000000000NCONT   00    00000000000          00000000000000000000000000000000000000000000 000000000000000A000000000000000000000000000000000000000000000 000000000000000000000000000000000000000     00000000                                                                                                                        000000000000000000
F0010000006866500001000001022529300011050500000000000000000201502270002001ALBERTO ALVAREZ ISAZA                             D000000000935000000000000000000000100010010000000000000000000000F0010000006866500120150227000101 00000000000000000000000000000000000000000000000000000000000000000000000000000000000000000000000000000000000000000N 00000000000NCONT   00    00000000000          00000000000000000000000000000000000000000000 000000000000000A000000000000000000000000000000000000000000000 000000000000000000000000000000000000000     00000000                                                                                                                        000000000000000000
F0010000006866500002000001022529300041450500000000000000000201502270002001ALBERTO ALVAREZ ISAZA                             C000000000860000000000000000000000100010010000000000000000000000F0010000006866500220150227000101 00000000000000000000000000000000000000000000000000000000000000000000000000000000000000000000000000000000000000000N 00000000000NCONT   00    00000000000          00000000000000000000000000000000000000000000 000000000000000A000000000000000000000000000000000000000000000 000000000000000000000000000000000000000     00000000                                                                                                                        000000000000000000
F0010000006866500003000001022529300042505000000000000000000201502270002001ALBERTO ALVAREZ ISAZA                             C000000000075000000000000000000000100010010000000000000000000000F0010000006866500320150227000101 00000000000000000000000000000000000000000000000000000000000000000000000000000000000000000000000000000000000000000N 00000000000NCONT   00    00000000000          00000000000000000000000000000000000000000000 000000000000000A000000000000000000000000000000000000000000000 000000000000000000000000000000000000000     00000000                                                                                                                        000000000000000000
F0010000006866500004000001022529300023658300000000000000000201502270002001ALBERTO ALVAREZ ISAZA                             C000000000006900000000000000000000100010010000000000000000000000F0010000006866500420150227000101 00000000000000000000000000000000000000000000000000000000000000000000000000000000000000000000000000000000000000000N 00000000000NCONT   00    00000000000          00000000000000000000000000000000000000000000 000000000000000A000000000000000000000000000000000000000000000 000000000000000000000000000000000000000     00000000                                                                                                                        000000000000000000
F0010000006866500005000001022529300013552100000000000000000201502270002001ALBERTO ALVAREZ ISAZA                             D000000000006900000000000000000000100010010000000000000000000000F0010000006866500520150227000101 00000000000000000000000000000000000000000000000000000000000000000000000000000000000000000000000000000000000000000N 00000000000NCONT   00    00000000000          00000000000000000000000000000000000000000000 000000000000000A000000000000000000000000000000000000000000000 000000000000000000000000000000000000000     00000000                                                                                                                        000000000000000000
F0010000006866600001000001022529300011050500000000000000000201502270002001ALBERTO ALVAREZ ISAZA                             D000000000430000000000000000000000100010010000000000000000000000F0010000006866600120150227000101 00000000000000000000000000000000000000000000000000000000000000000000000000000000000000000000000000000000000000000N 00000000000NCONT   00    00000000000          00000000000000000000000000000000000000000000 000000000000000A000000000000000000000000000000000000000000000 000000000000000000000000000000000000000     00000000                                                                                                                        000000000000000000
F0010000006866600002000001022529300041450500000000000000000201502270002001ALBERTO ALVAREZ ISAZA                             C000000000380000000000000000000000100010010000000000000000000000F0010000006866600220150227000101 00000000000000000000000000000000000000000000000000000000000000000000000000000000000000000000000000000000000000000N 00000000000NCONT   00    00000000000          00000000000000000000000000000000000000000000 000000000000000A000000000000000000000000000000000000000000000 000000000000000000000000000000000000000     00000000                                                                                                                        000000000000000000
F0010000006866600003000001022529300042505000000000000000000201502270002001ALBERTO ALVAREZ ISAZA                             C000000000050000000000000000000000100010010000000000000000000000F0010000006866600320150227000101 00000000000000000000000000000000000000000000000000000000000000000000000000000000000000000000000000000000000000000N 00000000000NCONT   00    00000000000          00000000000000000000000000000000000000000000 000000000000000A000000000000000000000000000000000000000000000 000000000000000000000000000000000000000     00000000                                                                                                                        000000000000000000
F0010000006866600004000001022529300023658300000000000000000201502270002001ALBERTO ALVAREZ ISAZA                             C000000000003000000000000000000000100010010000000000000000000000F0010000006866600420150227000101 00000000000000000000000000000000000000000000000000000000000000000000000000000000000000000000000000000000000000000N 00000000000NCONT   00    00000000000          00000000000000000000000000000000000000000000 000000000000000A000000000000000000000000000000000000000000000 000000000000000000000000000000000000000     00000000                                                                                                                        000000000000000000
F0010000006866600005000001022529300013552100000000000000000201502270002001ALBERTO ALVAREZ ISAZA                             D000000000003000000000000000000000100010010000000000000000000000F0010000006866600520150227000101 00000000000000000000000000000000000000000000000000000000000000000000000000000000000000000000000000000000000000000N 00000000000NCONT   00    00000000000          00000000000000000000000000000000000000000000 000000000000000A000000000000000000000000000000000000000000000 000000000000000000000000000000000000000     00000000                                                                                                                        000000000000000000
F0010000006866700001000001022529300011050500000000000000000201502270002001ALBERTO ALVAREZ ISAZA                             D000000000935000000000000000000000100010010000000000000000000000F0010000006866700120150227000101 00000000000000000000000000000000000000000000000000000000000000000000000000000000000000000000000000000000000000000N 00000000000NCONT   00    00000000000          00000000000000000000000000000000000000000000 000000000000000A000000000000000000000000000000000000000000000 000000000000000000000000000000000000000     00000000                                                                                                                        000000000000000000
F0010000006866700002000001022529300041450500000000000000000201502270002001ALBERTO ALVAREZ ISAZA                             C000000000860000000000000000000000100010010000000000000000000000F0010000006866700220150227000101 00000000000000000000000000000000000000000000000000000000000000000000000000000000000000000000000000000000000000000N 00000000000NCONT   00    00000000000          00000000000000000000000000000000000000000000 000000000000000A000000000000000000000000000000000000000000000 000000000000000000000000000000000000000     00000000                                                                                                                        000000000000000000
F0010000006866700003000001022529300042505000000000000000000201502270002001ALBERTO ALVAREZ ISAZA                             C000000000075000000000000000000000100010010000000000000000000000F0010000006866700320150227000101 00000000000000000000000000000000000000000000000000000000000000000000000000000000000000000000000000000000000000000N 00000000000NCONT   00    00000000000          00000000000000000000000000000000000000000000 000000000000000A000000000000000000000000000000000000000000000 000000000000000000000000000000000000000     00000000                                                                                                                        000000000000000000
F0010000006866700004000001022529300023658300000000000000000201502270002001ALBERTO ALVAREZ ISAZA                             C000000000006900000000000000000000100010010000000000000000000000F0010000006866700420150227000101 00000000000000000000000000000000000000000000000000000000000000000000000000000000000000000000000000000000000000000N 00000000000NCONT   00    00000000000          00000000000000000000000000000000000000000000 000000000000000A000000000000000000000000000000000000000000000 000000000000000000000000000000000000000     00000000                                                                                                                        000000000000000000
F0010000006866700005000001022529300013552100000000000000000201502270002001ALBERTO ALVAREZ ISAZA                             D000000000006900000000000000000000100010010000000000000000000000F0010000006866700520150227000101 00000000000000000000000000000000000000000000000000000000000000000000000000000000000000000000000000000000000000000N 00000000000NCONT   00    00000000000          00000000000000000000000000000000000000000000 000000000000000A000000000000000000000000000000000000000000000 000000000000000000000000000000000000000     00000000                                                                                                                        000000000000000000
F0010000006866800001000001022529300011050500000000000000000201502270002001ALBERTO ALVAREZ ISAZA                             D000000001800000000000000000000000100010010000000000000000000000F0010000006866800120150227000101 00000000000000000000000000000000000000000000000000000000000000000000000000000000000000000000000000000000000000000N 00000000000NCONT   00    00000000000          00000000000000000000000000000000000000000000 000000000000000A000000000000000000000000000000000000000000000 000000000000000000000000000000000000000     00000000                                                                                                                        000000000000000000
F0010000006866800002000001022529300041450500000000000000000201502270002001ALBERTO ALVAREZ ISAZA                             C000000001720000000000000000000000100010010000000000000000000000F0010000006866800220150227000101 00000000000000000000000000000000000000000000000000000000000000000000000000000000000000000000000000000000000000000N 00000000000NCONT   00    00000000000          00000000000000000000000000000000000000000000 000000000000000A000000000000000000000000000000000000000000000 000000000000000000000000000000000000000     00000000                                                                                                                        000000000000000000
F0010000006866800003000001022529300042505000000000000000000201502270002001ALBERTO ALVAREZ ISAZA                             C000000000080000000000000000000000100010010000000000000000000000F0010000006866800320150227000101 00000000000000000000000000000000000000000000000000000000000000000000000000000000000000000000000000000000000000000N 00000000000NCONT   00    00000000000          00000000000000000000000000000000000000000000 000000000000000A000000000000000000000000000000000000000000000 000000000000000000000000000000000000000     00000000                                                                                                                        000000000000000000
F0010000006866800004000001022529300023658300000000000000000201502270002001ALBERTO ALVAREZ ISAZA                             C000000000013800000000000000000000100010010000000000000000000000F0010000006866800420150227000101 00000000000000000000000000000000000000000000000000000000000000000000000000000000000000000000000000000000000000000N 00000000000NCONT   00    00000000000          00000000000000000000000000000000000000000000 000000000000000A000000000000000000000000000000000000000000000 000000000000000000000000000000000000000     00000000                                                                                                                        000000000000000000
F0010000006866800005000001022529300013552100000000000000000201502270002001ALBERTO ALVAREZ ISAZA                             D000000000013800000000000000000000100010010000000000000000000000F0010000006866800520150227000101 00000000000000000000000000000000000000000000000000000000000000000000000000000000000000000000000000000000000000000N 00000000000NCONT   00    00000000000          00000000000000000000000000000000000000000000 000000000000000A000000000000000000000000000000000000000000000 000000000000000000000000000000000000000     00000000                                                                                                                        000000000000000000
F0010000006866900001000000431178400011050500000000000000000201502270002001EFRAIN ALVAREZ                                    D000000000910000000000000000000000100010010000000000000000000000F0010000006866900120150227000101 00000000000000000000000000000000000000000000000000000000000000000000000000000000000000000000000000000000000000000N 00000000000NCONT   00    00000000000          00000000000000000000000000000000000000000000 000000000000000A000000000000000000000000000000000000000000000 000000000000000000000000000000000000000     00000000                                                                                                                        000000000000000000
F0010000006866900002000000431178400041450500000000000000000201502270002001EFRAIN ALVAREZ                                    C000000000860000000000000000000000100010010000000000000000000000F0010000006866900220150227000101 00000000000000000000000000000000000000000000000000000000000000000000000000000000000000000000000000000000000000000N 00000000000NCONT   00    00000000000          00000000000000000000000000000000000000000000 000000000000000A000000000000000000000000000000000000000000000 000000000000000000000000000000000000000     00000000                                                                                                                        000000000000000000
F0010000006866900003000000431178400042505000000000000000000201502270002001EFRAIN ALVAREZ                                    C000000000050000000000000000000000100010010000000000000000000000F0010000006866900320150227000101 00000000000000000000000000000000000000000000000000000000000000000000000000000000000000000000000000000000000000000N 00000000000NCONT   00    00000000000          00000000000000000000000000000000000000000000 000000000000000A000000000000000000000000000000000000000000000 000000000000000000000000000000000000000     00000000                                                                                                                        000000000000000000
F0010000006866900004000000431178400023658300000000000000000201502270002001EFRAIN ALVAREZ                                    C000000000006900000000000000000000100010010000000000000000000000F0010000006866900420150227000101 00000000000000000000000000000000000000000000000000000000000000000000000000000000000000000000000000000000000000000N 00000000000NCONT   00    00000000000          00000000000000000000000000000000000000000000 000000000000000A000000000000000000000000000000000000000000000 000000000000000000000000000000000000000     00000000                                                                                                                        000000000000000000
F0010000006866900005000000431178400013552100000000000000000201502270002001EFRAIN ALVAREZ                                    D000000000006900000000000000000000100010010000000000000000000000F0010000006866900520150227000101 00000000000000000000000000000000000000000000000000000000000000000000000000000000000000000000000000000000000000000N 00000000000NCONT   00    00000000000          00000000000000000000000000000000000000000000 000000000000000A000000000000000000000000000000000000000000000 000000000000000000000000000000000000000     00000000                                                                                                                        000000000000000000
F0010000006867000001000086003979400011050500000000000000000201502270002001CALYPSO BARRANQUILLA LTDA                         D000000002175000000000000000000000100010010000000000000000000000F0010000006867000120150227000101 00000000000000000000000000000000000000000000000000000000000000000000000000000000000000000000000000000000000000000N 00000000000NCONT   00    00000000000          00000000000000000000000000000000000000000000 000000000000000A000000000000000000000000000000000000000000000 000000000000000000000000000000000000000     00000000                                                                                                                        000000000000000000
F0010000006867000002000086003979400041450500000000000000000201502270002001CALYPSO BARRANQUILLA LTDA                         C000000001980000000000000000000000100010010000000000000000000000F0010000006867000220150227000101 00000000000000000000000000000000000000000000000000000000000000000000000000000000000000000000000000000000000000000N 00000000000NCONT   00    00000000000          00000000000000000000000000000000000000000000 000000000000000A000000000000000000000000000000000000000000000 000000000000000000000000000000000000000     00000000                                                                                                                        000000000000000000
F0010000006867000003000086003979400042505000000000000000000201502270002001CALYPSO BARRANQUILLA LTDA                         C000000000195000000000000000000000100010010000000000000000000000F0010000006867000320150227000101 00000000000000000000000000000000000000000000000000000000000000000000000000000000000000000000000000000000000000000N 00000000000NCONT   00    00000000000          00000000000000000000000000000000000000000000 000000000000000A000000000000000000000000000000000000000000000 000000000000000000000000000000000000000     00000000                                                                                                                        000000000000000000
F0010000006867000004000086003979400023658300000000000000000201502270002001CALYPSO BARRANQUILLA LTDA                         C000000000015800000000000000000000100010010000000000000000000000F0010000006867000420150227000101 00000000000000000000000000000000000000000000000000000000000000000000000000000000000000000000000000000000000000000N 00000000000NCONT   00    00000000000          00000000000000000000000000000000000000000000 000000000000000A000000000000000000000000000000000000000000000 000000000000000000000000000000000000000     00000000                                                                                                                        000000000000000000
F0010000006867000005000086003979400013552100000000000000000201502270002001CALYPSO BARRANQUILLA LTDA                         D000000000015800000000000000000000100010010000000000000000000000F0010000006867000520150227000101 00000000000000000000000000000000000000000000000000000000000000000000000000000000000000000000000000000000000000000N 00000000000NCONT   00    00000000000          00000000000000000000000000000000000000000000 000000000000000A000000000000000000000000000000000000000000000 000000000000000000000000000000000000000     00000000                                                                                                                        000000000000000000
F0010000006867100001000000000000000011050500000000000000000201502270002001KATIA MIRANDA CABANZO                             D000000001300000000000000000000000100010010000000000000000000000F0010000006867100120150227000101 00000000000000000000000000000000000000000000000000000000000000000000000000000000000000000000000000000000000000000N 00000000000NCONT   00    00000000000          00000000000000000000000000000000000000000000 000000000000000A000000000000000000000000000000000000000000000 000000000000000000000000000000000000000     00000000                                                                                                                        000000000000000000
F0010000006867100002000000000000000041450500000000000000000201502270002001KATIA MIRANDA CABANZO                             C000000001000000000000000000000000100010010000000000000000000000F0010000006867100220150227000101 00000000000000000000000000000000000000000000000000000000000000000000000000000000000000000000000000000000000000000N 00000000000NCONT   00    00000000000          00000000000000000000000000000000000000000000 000000000000000A000000000000000000000000000000000000000000000 000000000000000000000000000000000000000     00000000                                                                                                                        000000000000000000
F0010000006867100003000000000000000042505000000000000000000201502270002001KATIA MIRANDA CABANZO                             C000000000300000000000000000000000100010010000000000000000000000F0010000006867100320150227000101 00000000000000000000000000000000000000000000000000000000000000000000000000000000000000000000000000000000000000000N 00000000000NCONT   00    00000000000          00000000000000000000000000000000000000000000 000000000000000A000000000000000000000000000000000000000000000 000000000000000000000000000000000000000     00000000                                                                                                                        000000000000000000
F0010000006867100004000000000000000023658300000000000000000201502270002001KATIA MIRANDA CABANZO                             C000000000008000000000000000000000100010010000000000000000000000F0010000006867100420150227000101 00000000000000000000000000000000000000000000000000000000000000000000000000000000000000000000000000000000000000000N 00000000000NCONT   00    00000000000          00000000000000000000000000000000000000000000 000000000000000A000000000000000000000000000000000000000000000 000000000000000000000000000000000000000     00000000                                                                                                                        000000000000000000
F0010000006867100005000000000000000013552100000000000000000201502270002001KATIA MIRANDA CABANZO                             D000000000008000000000000000000000100010010000000000000000000000F0010000006867100520150227000101 00000000000000000000000000000000000000000000000000000000000000000000000000000000000000000000000000000000000000000N 00000000000NCONT   00    00000000000          00000000000000000000000000000000000000000000 000000000000000A000000000000000000000000000000000000000000000 000000000000000000000000000000000000000     00000000                                                                                                                        000000000000000000
F0010000006867200001000090050144800011050500000000000000000201502270002001PLASTICOS JR ASOCIADOS SAS                        D000000006000000000000000000000000100010010000000000000000000000F0010000006867200120150227000101 00000000000000000000000000000000000000000000000000000000000000000000000000000000000000000000000000000000000000000N 00000000000NCONT   00    00000000000          00000000000000000000000000000000000000000000 000000000000000A000000000000000000000000000000000000000000000 000000000000000000000000000000000000000     00000000                                                                                                                        000000000000000000
F0010000006867200002000090050144800041450500000000000000000201502270002001PLASTICOS JR ASOCIADOS SAS                        C000000005100000000000000000000000100010010000000000000000000000F0010000006867200220150227000101 00000000000000000000000000000000000000000000000000000000000000000000000000000000000000000000000000000000000000000N 00000000000NCONT   00    00000000000          00000000000000000000000000000000000000000000 000000000000000A000000000000000000000000000000000000000000000 000000000000000000000000000000000000000     00000000                                                                                                                        000000000000000000
F0010000006867200003000090050144800042505000000000000000000201502270002001PLASTICOS JR ASOCIADOS SAS                        C000000000900000000000000000000000100010010000000000000000000000F0010000006867200320150227000101 00000000000000000000000000000000000000000000000000000000000000000000000000000000000000000000000000000000000000000N 00000000000NCONT   00    00000000000          00000000000000000000000000000000000000000000 000000000000000A000000000000000000000000000000000000000000000 000000000000000000000000000000000000000     00000000                                                                                                                        000000000000000000
F0010000006867200004000090050144800023658300000000000000000201502270002001PLASTICOS JR ASOCIADOS SAS                        C000000000040800000000000000000000100010010000000000000000000000F0010000006867200420150227000101 00000000000000000000000000000000000000000000000000000000000000000000000000000000000000000000000000000000000000000N 00000000000NCONT   00    00000000000          00000000000000000000000000000000000000000000 000000000000000A000000000000000000000000000000000000000000000 000000000000000000000000000000000000000     00000000                                                                                                                        000000000000000000
F0010000006867200005000090050144800013552100000000000000000201502270002001PLASTICOS JR ASOCIADOS SAS                        D000000000040800000000000000000000100010010000000000000000000000F0010000006867200520150227000101 00000000000000000000000000000000000000000000000000000000000000000000000000000000000000000000000000000000000000000N 00000000000NCONT   00    00000000000          00000000000000000000000000000000000000000000 000000000000000A000000000000000000000000000000000000000000000 000000000000000000000000000000000000000     00000000                                                                                                                        000000000000000000
F0010000006867300001000080023327700011050500000000000000000201502270002001DISINCO LTDA                                      D000000002000000000000000000000000100010010000000000000000000000F0010000006867300120150227000101 00000000000000000000000000000000000000000000000000000000000000000000000000000000000000000000000000000000000000000N 00000000000NCONT   00    00000000000          00000000000000000000000000000000000000000000 000000000000000A000000000000000000000000000000000000000000000 000000000000000000000000000000000000000     00000000                                                                                                                        000000000000000000
F0010000006867300002000080023327700041450500000000000000000201502270002001DISINCO LTDA                                      C000000001900000000000000000000000100010010000000000000000000000F0010000006867300220150227000101 00000000000000000000000000000000000000000000000000000000000000000000000000000000000000000000000000000000000000000N 00000000000NCONT   00    00000000000          00000000000000000000000000000000000000000000 000000000000000A000000000000000000000000000000000000000000000 000000000000000000000000000000000000000     00000000                                                                                                                        000000000000000000
F0010000006867300003000080023327700042505000000000000000000201502270002001DISINCO LTDA                                      C000000000100000000000000000000000100010010000000000000000000000F0010000006867300320150227000101 00000000000000000000000000000000000000000000000000000000000000000000000000000000000000000000000000000000000000000N 00000000000NCONT   00    00000000000          00000000000000000000000000000000000000000000 000000000000000A000000000000000000000000000000000000000000000 000000000000000000000000000000000000000     00000000                                                                                                                        000000000000000000
F0010000006867300004000080023327700023658300000000000000000201502270002001DISINCO LTDA                                      C000000000015200000000000000000000100010010000000000000000000000F0010000006867300420150227000101 00000000000000000000000000000000000000000000000000000000000000000000000000000000000000000000000000000000000000000N 00000000000NCONT   00    00000000000          00000000000000000000000000000000000000000000 000000000000000A000000000000000000000000000000000000000000000 000000000000000000000000000000000000000     00000000                                                                                                                        000000000000000000
F0010000006867300005000080023327700013552100000000000000000201502270002001DISINCO LTDA                                      D000000000015200000000000000000000100010010000000000000000000000F0010000006867300520150227000101 00000000000000000000000000000000000000000000000000000000000000000000000000000000000000000000000000000000000000000N 00000000000NCONT   00    00000000000          00000000000000000000000000000000000000000000 000000000000000A000000000000000000000000000000000000000000000 000000000000000000000000000000000000000     00000000                                                                                                                        000000000000000000
F0010000006867400001000080201703900011050500000000000000000201502270002001MUNDIAL CHEMICAL LTDA                             D000000001750000000000000000000000100010010000000000000000000000F0010000006867400120150227000101 00000000000000000000000000000000000000000000000000000000000000000000000000000000000000000000000000000000000000000N 00000000000NCONT   00    00000000000          00000000000000000000000000000000000000000000 000000000000000A000000000000000000000000000000000000000000000 000000000000000000000000000000000000000     00000000                                                                                                                        000000000000000000
F0010000006867400002000080201703900041450500000000000000000201502270002001MUNDIAL CHEMICAL LTDA                             C000000001400000000000000000000000100010010000000000000000000000F0010000006867400220150227000101 00000000000000000000000000000000000000000000000000000000000000000000000000000000000000000000000000000000000000000N 00000000000NCONT   00    00000000000          00000000000000000000000000000000000000000000 000000000000000A000000000000000000000000000000000000000000000 000000000000000000000000000000000000000     00000000                                                                                                                        000000000000000000
F0010000006867400003000080201703900042505000000000000000000201502270002001MUNDIAL CHEMICAL LTDA                             C000000000350000000000000000000000100010010000000000000000000000F0010000006867400320150227000101 00000000000000000000000000000000000000000000000000000000000000000000000000000000000000000000000000000000000000000N 00000000000NCONT   00    00000000000          00000000000000000000000000000000000000000000 000000000000000A000000000000000000000000000000000000000000000 000000000000000000000000000000000000000     00000000                                                                                                                        000000000000000000
F0010000006867400004000080201703900023658300000000000000000201502270002001MUNDIAL CHEMICAL LTDA                             C000000000011200000000000000000000100010010000000000000000000000F0010000006867400420150227000101 00000000000000000000000000000000000000000000000000000000000000000000000000000000000000000000000000000000000000000N 00000000000NCONT   00    00000000000          00000000000000000000000000000000000000000000 000000000000000A000000000000000000000000000000000000000000000 000000000000000000000000000000000000000     00000000                                                                                                                        000000000000000000
F0010000006867400005000080201703900013552100000000000000000201502270002001MUNDIAL CHEMICAL LTDA                             D000000000011200000000000000000000100010010000000000000000000000F0010000006867400520150227000101 00000000000000000000000000000000000000000000000000000000000000000000000000000000000000000000000000000000000000000N 00000000000NCONT   00    00000000000          00000000000000000000000000000000000000000000 000000000000000A000000000000000000000000000000000000000000000 000000000000000000000000000000000000000     00000000                                                                                                                        000000000000000000
F0010000006867500001000004544401900011050500000000000000000201502270002001FISIOTER                                          D000000001100000000000000000000000100010010000000000000000000000F0010000006867500120150227000101 00000000000000000000000000000000000000000000000000000000000000000000000000000000000000000000000000000000000000000N 00000000000NCONT   00    00000000000          00000000000000000000000000000000000000000000 000000000000000A000000000000000000000000000000000000000000000 000000000000000000000000000000000000000     00000000                                                                                                                        000000000000000000
F0010000006867500002000004544401900041450500000000000000000201502270002001FISIOTER                                          C000000001000000000000000000000000100010010000000000000000000000F0010000006867500220150227000101 00000000000000000000000000000000000000000000000000000000000000000000000000000000000000000000000000000000000000000N 00000000000NCONT   00    00000000000          00000000000000000000000000000000000000000000 000000000000000A000000000000000000000000000000000000000000000 000000000000000000000000000000000000000     00000000                                                                                                                        000000000000000000
F0010000006867500003000004544401900042505000000000000000000201502270002001FISIOTER                                          C000000000100000000000000000000000100010010000000000000000000000F0010000006867500320150227000101 00000000000000000000000000000000000000000000000000000000000000000000000000000000000000000000000000000000000000000N 00000000000NCONT   00    00000000000          00000000000000000000000000000000000000000000 000000000000000A000000000000000000000000000000000000000000000 000000000000000000000000000000000000000     00000000                                                                                                                        000000000000000000
F0010000006867500004000004544401900023658300000000000000000201502270002001FISIOTER                                          C000000000008000000000000000000000100010010000000000000000000000F0010000006867500420150227000101 00000000000000000000000000000000000000000000000000000000000000000000000000000000000000000000000000000000000000000N 00000000000NCONT   00    00000000000          00000000000000000000000000000000000000000000 000000000000000A000000000000000000000000000000000000000000000 000000000000000000000000000000000000000     00000000                                                                                                                        000000000000000000
F0010000006867500005000004544401900013552100000000000000000201502270002001FISIOTER                                          D000000000008000000000000000000000100010010000000000000000000000F0010000006867500520150227000101 00000000000000000000000000000000000000000000000000000000000000000000000000000000000000000000000000000000000000000N 00000000000NCONT   00    00000000000          00000000000000000000000000000000000000000000 000000000000000A000000000000000000000000000000000000000000000 000000000000000000000000000000000000000     00000000                                                                                                                        000000000000000000
F0010000006867600001000005525050200011050500000000000000000201502270002001PLASTICOS  DE LA COSTA                            D000000003026000000000000000000000100010010000000000000000000000F0010000006867600120150227000101 00000000000000000000000000000000000000000000000000000000000000000000000000000000000000000000000000000000000000000N 00000000000NCONT   00    00000000000          00000000000000000000000000000000000000000000 000000000000000A000000000000000000000000000000000000000000000 000000000000000000000000000000000000000     00000000                                                                                                                        000000000000000000
F0010000006867600002000005525050200041450500000000000000000201502270002001PLASTICOS  DE LA COSTA                            C000000002926000000000000000000000100010010000000000000000000000F0010000006867600220150227000101 00000000000000000000000000000000000000000000000000000000000000000000000000000000000000000000000000000000000000000N 00000000000NCONT   00    00000000000          00000000000000000000000000000000000000000000 000000000000000A000000000000000000000000000000000000000000000 000000000000000000000000000000000000000     00000000                                                                                                                        000000000000000000
F0010000006867600003000005525050200042505000000000000000000201502270002001PLASTICOS  DE LA COSTA                            C000000000100000000000000000000000100010010000000000000000000000F0010000006867600320150227000101 00000000000000000000000000000000000000000000000000000000000000000000000000000000000000000000000000000000000000000N 00000000000NCONT   00    00000000000          00000000000000000000000000000000000000000000 000000000000000A000000000000000000000000000000000000000000000 000000000000000000000000000000000000000     00000000                                                                                                                        000000000000000000
F0010000006867600004000005525050200023658300000000000000000201502270002001PLASTICOS  DE LA COSTA                            C000000000023400000000000000000000100010010000000000000000000000F0010000006867600420150227000101 00000000000000000000000000000000000000000000000000000000000000000000000000000000000000000000000000000000000000000N 00000000000NCONT   00    00000000000          00000000000000000000000000000000000000000000 000000000000000A000000000000000000000000000000000000000000000 000000000000000000000000000000000000000     00000000                                                                                                                        000000000000000000
F0010000006867600005000005525050200013552100000000000000000201502270002001PLASTICOS  DE LA COSTA                            D000000000023400000000000000000000100010010000000000000000000000F0010000006867600520150227000101 00000000000000000000000000000000000000000000000000000000000000000000000000000000000000000000000000000000000000000N 00000000000NCONT   00    00000000000          00000000000000000000000000000000000000000000 000000000000000A000000000000000000000000000000000000000000000 000000000000000000000000000000000000000     00000000                                                                                                                        000000000000000000
F0010000006867700001000003263562600011050500000000000000000201502270002001LOCAL 50 - MERCEDES ARAGUREN DE CHADID (MANUEL CHAD000000001100000000000000000000000100010010000000000000000000000F0010000006867700120150227000101 00000000000000000000000000000000000000000000000000000000000000000000000000000000000000000000000000000000000000000N 00000000000NCONT   00    00000000000          00000000000000000000000000000000000000000000 000000000000000A000000000000000000000000000000000000000000000 000000000000000000000000000000000000000     00000000                                                                                                                        000000000000000000
F0010000006867700002000003263562600041450500000000000000000201502270002001LOCAL 50 - MERCEDES ARAGUREN DE CHADID (MANUEL CHAC000000000900000000000000000000000100010010000000000000000000000F0010000006867700220150227000101 00000000000000000000000000000000000000000000000000000000000000000000000000000000000000000000000000000000000000000N 00000000000NCONT   00    00000000000          00000000000000000000000000000000000000000000 000000000000000A000000000000000000000000000000000000000000000 000000000000000000000000000000000000000     00000000                                                                                                                        000000000000000000
F0010000006867700003000003263562600042505000000000000000000201502270002001LOCAL 50 - MERCEDES ARAGUREN DE CHADID (MANUEL CHAC000000000200000000000000000000000100010010000000000000000000000F0010000006867700320150227000101 00000000000000000000000000000000000000000000000000000000000000000000000000000000000000000000000000000000000000000N 00000000000NCONT   00    00000000000          00000000000000000000000000000000000000000000 000000000000000A000000000000000000000000000000000000000000000 000000000000000000000000000000000000000     00000000                                                                                                                        000000000000000000
F0010000006867700004000003263562600023658300000000000000000201502270002001LOCAL 50 - MERCEDES ARAGUREN DE CHADID (MANUEL CHAC000000000007200000000000000000000100010010000000000000000000000F0010000006867700420150227000101 00000000000000000000000000000000000000000000000000000000000000000000000000000000000000000000000000000000000000000N 00000000000NCONT   00    00000000000          00000000000000000000000000000000000000000000 000000000000000A000000000000000000000000000000000000000000000 000000000000000000000000000000000000000     00000000                                                                                                                        000000000000000000
F0010000006867700005000003263562600013552100000000000000000201502270002001LOCAL 50 - MERCEDES ARAGUREN DE CHADID (MANUEL CHAD000000000007200000000000000000000100010010000000000000000000000F0010000006867700520150227000101 00000000000000000000000000000000000000000000000000000000000000000000000000000000000000000000000000000000000000000N 00000000000NCONT   00    00000000000          00000000000000000000000000000000000000000000 000000000000000A000000000000000000000000000000000000000000000 000000000000000000000000000000000000000     00000000                                                                                                                        000000000000000000
F0010000006867800001000007200289400011050500000000000000000201502270002001MIGUEL CORTINA                                    D000000003000000000000000000000000100010010000000000000000000000F0010000006867800120150227000101 00000000000000000000000000000000000000000000000000000000000000000000000000000000000000000000000000000000000000000N 00000000000NCONT   00    00000000000          00000000000000000000000000000000000000000000 000000000000000A000000000000000000000000000000000000000000000 000000000000000000000000000000000000000     00000000                                                                                                                        000000000000000000
F0010000006867800002000007200289400041450500000000000000000201502270002001MIGUEL CORTINA                                    C000000002500000000000000000000000100010010000000000000000000000F0010000006867800220150227000101 00000000000000000000000000000000000000000000000000000000000000000000000000000000000000000000000000000000000000000N 00000000000NCONT   00    00000000000          00000000000000000000000000000000000000000000 000000000000000A000000000000000000000000000000000000000000000 000000000000000000000000000000000000000     00000000                                                                                                                        000000000000000000
F0010000006867800003000007200289400042505000000000000000000201502270002001MIGUEL CORTINA                                    C000000000500000000000000000000000100010010000000000000000000000F0010000006867800320150227000101 00000000000000000000000000000000000000000000000000000000000000000000000000000000000000000000000000000000000000000N 00000000000NCONT   00    00000000000          00000000000000000000000000000000000000000000 000000000000000A000000000000000000000000000000000000000000000 000000000000000000000000000000000000000     00000000                                                                                                                        000000000000000000
F0010000006867800004000007200289400023658300000000000000000201502270002001MIGUEL CORTINA                                    C000000000020000000000000000000000100010010000000000000000000000F0010000006867800420150227000101 00000000000000000000000000000000000000000000000000000000000000000000000000000000000000000000000000000000000000000N 00000000000NCONT   00    00000000000          00000000000000000000000000000000000000000000 000000000000000A000000000000000000000000000000000000000000000 000000000000000000000000000000000000000     00000000                                                                                                                        000000000000000000
F0010000006867800005000007200289400013552100000000000000000201502270002001MIGUEL CORTINA                                    D000000000020000000000000000000000100010010000000000000000000000F0010000006867800520150227000101 00000000000000000000000000000000000000000000000000000000000000000000000000000000000000000000000000000000000000000N 00000000000NCONT   00    00000000000          00000000000000000000000000000000000000000000 000000000000000A000000000000000000000000000000000000000000000 000000000000000000000000000000000000000     00000000                                                                                                                        000000000000000000
F0010000006867900001000000871573200011050500000000000000000201502270002001ACCESORIAS ARQUITECTONI KJ                        D000000002000000000000000000000000100010010000000000000000000000F0010000006867900120150227000101 00000000000000000000000000000000000000000000000000000000000000000000000000000000000000000000000000000000000000000N 00000000000NCONT   00    00000000000          00000000000000000000000000000000000000000000 000000000000000A000000000000000000000000000000000000000000000 000000000000000000000000000000000000000     00000000                                                                                                                        000000000000000000
F0010000006867900002000000871573200041450500000000000000000201502270002001ACCESORIAS ARQUITECTONI KJ                        C000000001300000000000000000000000100010010000000000000000000000F0010000006867900220150227000101 00000000000000000000000000000000000000000000000000000000000000000000000000000000000000000000000000000000000000000N 00000000000NCONT   00    00000000000          00000000000000000000000000000000000000000000 000000000000000A000000000000000000000000000000000000000000000 000000000000000000000000000000000000000     00000000                                                                                                                        000000000000000000
F0010000006867900003000000871573200042505000000000000000000201502270002001ACCESORIAS ARQUITECTONI KJ                        C000000000700000000000000000000000100010010000000000000000000000F0010000006867900320150227000101 00000000000000000000000000000000000000000000000000000000000000000000000000000000000000000000000000000000000000000N 00000000000NCONT   00    00000000000          00000000000000000000000000000000000000000000 000000000000000A000000000000000000000000000000000000000000000 000000000000000000000000000000000000000     00000000                                                                                                                        000000000000000000
F0010000006867900004000000871573200023658300000000000000000201502270002001ACCESORIAS ARQUITECTONI KJ                        C000000000010400000000000000000000100010010000000000000000000000F0010000006867900420150227000101 00000000000000000000000000000000000000000000000000000000000000000000000000000000000000000000000000000000000000000N 00000000000NCONT   00    00000000000          00000000000000000000000000000000000000000000 000000000000000A000000000000000000000000000000000000000000000 000000000000000000000000000000000000000     00000000                                                                                                                        000000000000000000
F0010000006867900005000000871573200013552100000000000000000201502270002001ACCESORIAS ARQUITECTONI KJ                        D000000000010400000000000000000000100010010000000000000000000000F0010000006867900520150227000101 00000000000000000000000000000000000000000000000000000000000000000000000000000000000000000000000000000000000000000N 00000000000NCONT   00    00000000000          00000000000000000000000000000000000000000000 000000000000000A000000000000000000000000000000000000000000000 000000000000000000000000000000000000000     00000000                                                                                                                        000000000000000000
