F0010000008899300001000000748239700013050500000000000000000201607260002001RAFAEL NAVARRO URIBE                              D000000066957700000000000000000000100010010000000000000000000000F0010000008899300120160726000101 00000000000000000000000000000000000000000000000000000000000000000000000000000000000000000000000000000000000000000N 00000000000NCONT   00    00000000000          00000000000000000000000000000000000000000000 000000000000000A000000000000000000000000000000000000000000000 000000000000000000000000000000000000000     00000000                                                                                                                        000000000000000000
F0010000008899300002000000748239700041450500000000000000000201607260002001RAFAEL NAVARRO URIBE                              C000000037500000000000000000000000100010010000000000000000000000F0010000008899300220160726000101 00000000000000000000000000000000000000000000000000000000000000000000000000000000000000000000000000000000000000000N 00000000000NCONT   00    00000000000          00000000000000000000000000000000000000000000 000000000000000A000000000000000000000000000000000000000000000 000000000000000000000000000000000000000     00000000                                                                                                                        000000000000000000
F0010000008899300003000000748239700042505000000000000000000201607260002001RAFAEL NAVARRO URIBE                              C000000029457700000000000000000000100010010000000000000000000000F0010000008899300320160726000101 00000000000000000000000000000000000000000000000000000000000000000000000000000000000000000000000000000000000000000N 00000000000NCONT   00    00000000000          00000000000000000000000000000000000000000000 000000000000000A000000000000000000000000000000000000000000000 000000000000000000000000000000000000000     00000000                                                                                                                        000000000000000000
F0010000008899300004000000748239700023658300000000000000000201607260002001RAFAEL NAVARRO URIBE                              C000000000300000000000000000000000100010010000000000000000000000F0010000008899300420160726000101 00000000000000000000000000000000000000000000000000000000000000000000000000000000000000000000000000000000000000000N 00000000000NCONT   00    00000000000          00000000000000000000000000000000000000000000 000000000000000A000000000000000000000000000000000000000000000 000000000000000000000000000000000000000     00000000                                                                                                                        000000000000000000
F0010000008899300005000000748239700013552100000000000000000201607260002001RAFAEL NAVARRO URIBE                              D000000000300000000000000000000000100010010000000000000000000000F0010000008899300520160726000101 00000000000000000000000000000000000000000000000000000000000000000000000000000000000000000000000000000000000000000N 00000000000NCONT   00    00000000000          00000000000000000000000000000000000000000000 000000000000000A000000000000000000000000000000000000000000000 000000000000000000000000000000000000000     00000000                                                                                                                        000000000000000000
F0010000008899400001000080201112800013050500000000000000000201607260002001CANGURO INTERNATIONAL S.A.                        D000000190602600000000000000000000100010010000000000000000000000F0010000008899400120160726000101 00000000000000000000000000000000000000000000000000000000000000000000000000000000000000000000000000000000000000000N 00000000000NCONT   00    00000000000          00000000000000000000000000000000000000000000 000000000000000A000000000000000000000000000000000000000000000 000000000000000000000000000000000000000     00000000                                                                                                                        000000000000000000
F0010000008899400002000080201112800041450500000000000000000201607260002001CANGURO INTERNATIONAL S.A.                        C000000190602600000000000000000000100010010000000000000000000000F0010000008899400220160726000101 00000000000000000000000000000000000000000000000000000000000000000000000000000000000000000000000000000000000000000N 00000000000NCONT   00    00000000000          00000000000000000000000000000000000000000000 000000000000000A000000000000000000000000000000000000000000000 000000000000000000000000000000000000000     00000000                                                                                                                        000000000000000000
F0010000008899400003000080201112800042505000000000000000000201607260002001CANGURO INTERNATIONAL S.A.                        C000000000000000000000000000000000100010010000000000000000000000F0010000008899400320160726000101 00000000000000000000000000000000000000000000000000000000000000000000000000000000000000000000000000000000000000000N 00000000000NCONT   00    00000000000          00000000000000000000000000000000000000000000 000000000000000A000000000000000000000000000000000000000000000 000000000000000000000000000000000000000     00000000                                                                                                                        000000000000000000
F0010000008899400004000080201112800023658300000000000000000201607260002001CANGURO INTERNATIONAL S.A.                        C000000001524800000000000000000000100010010000000000000000000000F0010000008899400420160726000101 00000000000000000000000000000000000000000000000000000000000000000000000000000000000000000000000000000000000000000N 00000000000NCONT   00    00000000000          00000000000000000000000000000000000000000000 000000000000000A000000000000000000000000000000000000000000000 000000000000000000000000000000000000000     00000000                                                                                                                        000000000000000000
F0010000008899400005000080201112800013552100000000000000000201607260002001CANGURO INTERNATIONAL S.A.                        D000000001524800000000000000000000100010010000000000000000000000F0010000008899400520160726000101 00000000000000000000000000000000000000000000000000000000000000000000000000000000000000000000000000000000000000000N 00000000000NCONT   00    00000000000          00000000000000000000000000000000000000000000 000000000000000A000000000000000000000000000000000000000000000 000000000000000000000000000000000000000     00000000                                                                                                                        000000000000000000
F0010000008899500001000089010260300013050500000000000000000201607260002001FEDERICO OSORIO A. S.A.                           D000000141835500000000000000000000100010010000000000000000000000F0010000008899500120160726000101 00000000000000000000000000000000000000000000000000000000000000000000000000000000000000000000000000000000000000000N 00000000000NCONT   00    00000000000          00000000000000000000000000000000000000000000 000000000000000A000000000000000000000000000000000000000000000 000000000000000000000000000000000000000     00000000                                                                                                                        000000000000000000
F0010000008899500002000089010260300041450500000000000000000201607260002001FEDERICO OSORIO A. S.A.                           C000000133280000000000000000000000100010010000000000000000000000F0010000008899500220160726000101 00000000000000000000000000000000000000000000000000000000000000000000000000000000000000000000000000000000000000000N 00000000000NCONT   00    00000000000          00000000000000000000000000000000000000000000 000000000000000A000000000000000000000000000000000000000000000 000000000000000000000000000000000000000     00000000                                                                                                                        000000000000000000
F0010000008899500003000089010260300042505000000000000000000201607260002001FEDERICO OSORIO A. S.A.                           C000000008555500000000000000000000100010010000000000000000000000F0010000008899500320160726000101 00000000000000000000000000000000000000000000000000000000000000000000000000000000000000000000000000000000000000000N 00000000000NCONT   00    00000000000          00000000000000000000000000000000000000000000 000000000000000A000000000000000000000000000000000000000000000 000000000000000000000000000000000000000     00000000                                                                                                                        000000000000000000
F0010000008899500004000089010260300023658300000000000000000201607260002001FEDERICO OSORIO A. S.A.                           C000000001066200000000000000000000100010010000000000000000000000F0010000008899500420160726000101 00000000000000000000000000000000000000000000000000000000000000000000000000000000000000000000000000000000000000000N 00000000000NCONT   00    00000000000          00000000000000000000000000000000000000000000 000000000000000A000000000000000000000000000000000000000000000 000000000000000000000000000000000000000     00000000                                                                                                                        000000000000000000
F0010000008899500005000089010260300013552100000000000000000201607260002001FEDERICO OSORIO A. S.A.                           D000000001066200000000000000000000100010010000000000000000000000F0010000008899500520160726000101 00000000000000000000000000000000000000000000000000000000000000000000000000000000000000000000000000000000000000000N 00000000000NCONT   00    00000000000          00000000000000000000000000000000000000000000 000000000000000A000000000000000000000000000000000000000000000 000000000000000000000000000000000000000     00000000                                                                                                                        000000000000000000
F0010000008899600001000089010260300013050500000000000000000201607260002001FEDERICO OSORIO A. S.A.                           D000000012565500000000000000000000100010010000000000000000000000F0010000008899600120160726000101 00000000000000000000000000000000000000000000000000000000000000000000000000000000000000000000000000000000000000000N 00000000000NCONT   00    00000000000          00000000000000000000000000000000000000000000 000000000000000A000000000000000000000000000000000000000000000 000000000000000000000000000000000000000     00000000                                                                                                                        000000000000000000
F0010000008899600002000089010260300041450500000000000000000201607260002001FEDERICO OSORIO A. S.A.                           C000000011920000000000000000000000100010010000000000000000000000F0010000008899600220160726000101 00000000000000000000000000000000000000000000000000000000000000000000000000000000000000000000000000000000000000000N 00000000000NCONT   00    00000000000          00000000000000000000000000000000000000000000 000000000000000A000000000000000000000000000000000000000000000 000000000000000000000000000000000000000     00000000                                                                                                                        000000000000000000
F0010000008899600003000089010260300042505000000000000000000201607260002001FEDERICO OSORIO A. S.A.                           C000000000645500000000000000000000100010010000000000000000000000F0010000008899600320160726000101 00000000000000000000000000000000000000000000000000000000000000000000000000000000000000000000000000000000000000000N 00000000000NCONT   00    00000000000          00000000000000000000000000000000000000000000 000000000000000A000000000000000000000000000000000000000000000 000000000000000000000000000000000000000     00000000                                                                                                                        000000000000000000
F0010000008899600004000089010260300023658300000000000000000201607260002001FEDERICO OSORIO A. S.A.                           C000000000095400000000000000000000100010010000000000000000000000F0010000008899600420160726000101 00000000000000000000000000000000000000000000000000000000000000000000000000000000000000000000000000000000000000000N 00000000000NCONT   00    00000000000          00000000000000000000000000000000000000000000 000000000000000A000000000000000000000000000000000000000000000 000000000000000000000000000000000000000     00000000                                                                                                                        000000000000000000
F0010000008899600005000089010260300013552100000000000000000201607260002001FEDERICO OSORIO A. S.A.                           D000000000095400000000000000000000100010010000000000000000000000F0010000008899600520160726000101 00000000000000000000000000000000000000000000000000000000000000000000000000000000000000000000000000000000000000000N 00000000000NCONT   00    00000000000          00000000000000000000000000000000000000000000 000000000000000A000000000000000000000000000000000000000000000 000000000000000000000000000000000000000     00000000                                                                                                                        000000000000000000
F0010000008899700001000080004943800013050500000000000000000201607260002001PAPELERIA EL CID S.A.                             D000000102765000000000000000000000100010010000000000000000000000F0010000008899700120160726000101 00000000000000000000000000000000000000000000000000000000000000000000000000000000000000000000000000000000000000000N 00000000000NCONT   00    00000000000          00000000000000000000000000000000000000000000 000000000000000A000000000000000000000000000000000000000000000 000000000000000000000000000000000000000     00000000                                                                                                                        000000000000000000
F0010000008899700002000080004943800041450500000000000000000201607260002001PAPELERIA EL CID S.A.                             C000000094820000000000000000000000100010010000000000000000000000F0010000008899700220160726000101 00000000000000000000000000000000000000000000000000000000000000000000000000000000000000000000000000000000000000000N 00000000000NCONT   00    00000000000          00000000000000000000000000000000000000000000 000000000000000A000000000000000000000000000000000000000000000 000000000000000000000000000000000000000     00000000                                                                                                                        000000000000000000
F0010000008899700003000080004943800042505000000000000000000201607260002001PAPELERIA EL CID S.A.                             C000000007945000000000000000000000100010010000000000000000000000F0010000008899700320160726000101 00000000000000000000000000000000000000000000000000000000000000000000000000000000000000000000000000000000000000000N 00000000000NCONT   00    00000000000          00000000000000000000000000000000000000000000 000000000000000A000000000000000000000000000000000000000000000 000000000000000000000000000000000000000     00000000                                                                                                                        000000000000000000
F0010000008899700004000080004943800023658300000000000000000201607260002001PAPELERIA EL CID S.A.                             C000000000758600000000000000000000100010010000000000000000000000F0010000008899700420160726000101 00000000000000000000000000000000000000000000000000000000000000000000000000000000000000000000000000000000000000000N 00000000000NCONT   00    00000000000          00000000000000000000000000000000000000000000 000000000000000A000000000000000000000000000000000000000000000 000000000000000000000000000000000000000     00000000                                                                                                                        000000000000000000
F0010000008899700005000080004943800013552100000000000000000201607260002001PAPELERIA EL CID S.A.                             D000000000758600000000000000000000100010010000000000000000000000F0010000008899700520160726000101 00000000000000000000000000000000000000000000000000000000000000000000000000000000000000000000000000000000000000000N 00000000000NCONT   00    00000000000          00000000000000000000000000000000000000000000 000000000000000A000000000000000000000000000000000000000000000 000000000000000000000000000000000000000     00000000                                                                                                                        000000000000000000
F0010000008899800001000080202094000013050500000000000000000201607260002001DISTRIB. OMAR ORREGO S.A.                         D000000075642700000000000000000000100010010000000000000000000000F0010000008899800120160726000101 00000000000000000000000000000000000000000000000000000000000000000000000000000000000000000000000000000000000000000N 00000000000NCONT   00    00000000000          00000000000000000000000000000000000000000000 000000000000000A000000000000000000000000000000000000000000000 000000000000000000000000000000000000000     00000000                                                                                                                        000000000000000000
F0010000008899800002000080202094000041450500000000000000000201607260002001DISTRIB. OMAR ORREGO S.A.                         C000000048510000000000000000000000100010010000000000000000000000F0010000008899800220160726000101 00000000000000000000000000000000000000000000000000000000000000000000000000000000000000000000000000000000000000000N 00000000000NCONT   00    00000000000          00000000000000000000000000000000000000000000 000000000000000A000000000000000000000000000000000000000000000 000000000000000000000000000000000000000     00000000                                                                                                                        000000000000000000
F0010000008899800003000080202094000042505000000000000000000201607260002001DISTRIB. OMAR ORREGO S.A.                         C000000027132700000000000000000000100010010000000000000000000000F0010000008899800320160726000101 00000000000000000000000000000000000000000000000000000000000000000000000000000000000000000000000000000000000000000N 00000000000NCONT   00    00000000000          00000000000000000000000000000000000000000000 000000000000000A000000000000000000000000000000000000000000000 000000000000000000000000000000000000000     00000000                                                                                                                        000000000000000000
F0010000008899800004000080202094000023658300000000000000000201607260002001DISTRIB. OMAR ORREGO S.A.                         C000000000388100000000000000000000100010010000000000000000000000F0010000008899800420160726000101 00000000000000000000000000000000000000000000000000000000000000000000000000000000000000000000000000000000000000000N 00000000000NCONT   00    00000000000          00000000000000000000000000000000000000000000 000000000000000A000000000000000000000000000000000000000000000 000000000000000000000000000000000000000     00000000                                                                                                                        000000000000000000
F0010000008899800005000080202094000013552100000000000000000201607260002001DISTRIB. OMAR ORREGO S.A.                         D000000000388100000000000000000000100010010000000000000000000000F0010000008899800520160726000101 00000000000000000000000000000000000000000000000000000000000000000000000000000000000000000000000000000000000000000N 00000000000NCONT   00    00000000000          00000000000000000000000000000000000000000000 000000000000000A000000000000000000000000000000000000000000000 000000000000000000000000000000000000000     00000000                                                                                                                        000000000000000000
F0010000008899900001000000431178400013050500000000000000000201607260002001EFRAIN ALVAREZ                                    D000000012180000000000000000000000100010010000000000000000000000F0010000008899900120160726000101 00000000000000000000000000000000000000000000000000000000000000000000000000000000000000000000000000000000000000000N 00000000000NCONT   00    00000000000          00000000000000000000000000000000000000000000 000000000000000A000000000000000000000000000000000000000000000 000000000000000000000000000000000000000     00000000                                                                                                                        000000000000000000
F0010000008899900002000000431178400041450500000000000000000201607260002001EFRAIN ALVAREZ                                    C000000011430000000000000000000000100010010000000000000000000000F0010000008899900220160726000101 00000000000000000000000000000000000000000000000000000000000000000000000000000000000000000000000000000000000000000N 00000000000NCONT   00    00000000000          00000000000000000000000000000000000000000000 000000000000000A000000000000000000000000000000000000000000000 000000000000000000000000000000000000000     00000000                                                                                                                        000000000000000000
F0010000008899900003000000431178400042505000000000000000000201607260002001EFRAIN ALVAREZ                                    C000000000750000000000000000000000100010010000000000000000000000F0010000008899900320160726000101 00000000000000000000000000000000000000000000000000000000000000000000000000000000000000000000000000000000000000000N 00000000000NCONT   00    00000000000          00000000000000000000000000000000000000000000 000000000000000A000000000000000000000000000000000000000000000 000000000000000000000000000000000000000     00000000                                                                                                                        000000000000000000
F0010000008899900004000000431178400023658300000000000000000201607260002001EFRAIN ALVAREZ                                    C000000000091400000000000000000000100010010000000000000000000000F0010000008899900420160726000101 00000000000000000000000000000000000000000000000000000000000000000000000000000000000000000000000000000000000000000N 00000000000NCONT   00    00000000000          00000000000000000000000000000000000000000000 000000000000000A000000000000000000000000000000000000000000000 000000000000000000000000000000000000000     00000000                                                                                                                        000000000000000000
F0010000008899900005000000431178400013552100000000000000000201607260002001EFRAIN ALVAREZ                                    D000000000091400000000000000000000100010010000000000000000000000F0010000008899900520160726000101 00000000000000000000000000000000000000000000000000000000000000000000000000000000000000000000000000000000000000000N 00000000000NCONT   00    00000000000          00000000000000000000000000000000000000000000 000000000000000A000000000000000000000000000000000000000000000 000000000000000000000000000000000000000     00000000                                                                                                                        000000000000000000
F0010000008900000001000086003979400013050500000000000000000201607260002001CALYPSO BARRANQUILLA LTDA                         D000000014493800000000000000000000100010010000000000000000000000F0010000008900000120160726000101 00000000000000000000000000000000000000000000000000000000000000000000000000000000000000000000000000000000000000000N 00000000000NCONT   00    00000000000          00000000000000000000000000000000000000000000 000000000000000A000000000000000000000000000000000000000000000 000000000000000000000000000000000000000     00000000                                                                                                                        000000000000000000
F0010000008900000002000086003979400041450500000000000000000201607260002001CALYPSO BARRANQUILLA LTDA                         C000000013360000000000000000000000100010010000000000000000000000F0010000008900000220160726000101 00000000000000000000000000000000000000000000000000000000000000000000000000000000000000000000000000000000000000000N 00000000000NCONT   00    00000000000          00000000000000000000000000000000000000000000 000000000000000A000000000000000000000000000000000000000000000 000000000000000000000000000000000000000     00000000                                                                                                                        000000000000000000
F0010000008900000003000086003979400042505000000000000000000201607260002001CALYPSO BARRANQUILLA LTDA                         C000000001133800000000000000000000100010010000000000000000000000F0010000008900000320160726000101 00000000000000000000000000000000000000000000000000000000000000000000000000000000000000000000000000000000000000000N 00000000000NCONT   00    00000000000          00000000000000000000000000000000000000000000 000000000000000A000000000000000000000000000000000000000000000 000000000000000000000000000000000000000     00000000                                                                                                                        000000000000000000
F0010000008900000004000086003979400023658300000000000000000201607260002001CALYPSO BARRANQUILLA LTDA                         C000000000106900000000000000000000100010010000000000000000000000F0010000008900000420160726000101 00000000000000000000000000000000000000000000000000000000000000000000000000000000000000000000000000000000000000000N 00000000000NCONT   00    00000000000          00000000000000000000000000000000000000000000 000000000000000A000000000000000000000000000000000000000000000 000000000000000000000000000000000000000     00000000                                                                                                                        000000000000000000
F0010000008900000005000086003979400013552100000000000000000201607260002001CALYPSO BARRANQUILLA LTDA                         D000000000106900000000000000000000100010010000000000000000000000F0010000008900000520160726000101 00000000000000000000000000000000000000000000000000000000000000000000000000000000000000000000000000000000000000000N 00000000000NCONT   00    00000000000          00000000000000000000000000000000000000000000 000000000000000A000000000000000000000000000000000000000000000 000000000000000000000000000000000000000     00000000                                                                                                                        000000000000000000
F0010000008900100001000007215896800013050500000000000000000201607260002001EDDIER CIRO                                       D000000019933200000000000000000000100010010000000000000000000000F0010000008900100120160726000101 00000000000000000000000000000000000000000000000000000000000000000000000000000000000000000000000000000000000000000N 00000000000NCONT   00    00000000000          00000000000000000000000000000000000000000000 000000000000000A000000000000000000000000000000000000000000000 000000000000000000000000000000000000000     00000000                                                                                                                        000000000000000000
F0010000008900100002000007215896800041450500000000000000000201607260002001EDDIER CIRO                                       C000000015030000000000000000000000100010010000000000000000000000F0010000008900100220160726000101 00000000000000000000000000000000000000000000000000000000000000000000000000000000000000000000000000000000000000000N 00000000000NCONT   00    00000000000          00000000000000000000000000000000000000000000 000000000000000A000000000000000000000000000000000000000000000 000000000000000000000000000000000000000     00000000                                                                                                                        000000000000000000
F0010000008900100003000007215896800042505000000000000000000201607260002001EDDIER CIRO                                       C000000004903200000000000000000000100010010000000000000000000000F0010000008900100320160726000101 00000000000000000000000000000000000000000000000000000000000000000000000000000000000000000000000000000000000000000N 00000000000NCONT   00    00000000000          00000000000000000000000000000000000000000000 000000000000000A000000000000000000000000000000000000000000000 000000000000000000000000000000000000000     00000000                                                                                                                        000000000000000000
F0010000008900100004000007215896800023658300000000000000000201607260002001EDDIER CIRO                                       C000000000120200000000000000000000100010010000000000000000000000F0010000008900100420160726000101 00000000000000000000000000000000000000000000000000000000000000000000000000000000000000000000000000000000000000000N 00000000000NCONT   00    00000000000          00000000000000000000000000000000000000000000 000000000000000A000000000000000000000000000000000000000000000 000000000000000000000000000000000000000     00000000                                                                                                                        000000000000000000
F0010000008900100005000007215896800013552100000000000000000201607260002001EDDIER CIRO                                       D000000000120200000000000000000000100010010000000000000000000000F0010000008900100520160726000101 00000000000000000000000000000000000000000000000000000000000000000000000000000000000000000000000000000000000000000N 00000000000NCONT   00    00000000000          00000000000000000000000000000000000000000000 000000000000000A000000000000000000000000000000000000000000000 000000000000000000000000000000000000000     00000000                                                                                                                        000000000000000000
F0010000008900200001000090038852800013050500000000000000000201607260002001EL COMERCIO ELECTRICO DE LA CO                    D000000012160000000000000000000000100010010000000000000000000000F0010000008900200120160726000101 00000000000000000000000000000000000000000000000000000000000000000000000000000000000000000000000000000000000000000N 00000000000NCONT   00    00000000000          00000000000000000000000000000000000000000000 000000000000000A000000000000000000000000000000000000000000000 000000000000000000000000000000000000000     00000000                                                                                                                        000000000000000000
F0010000008900200002000090038852800041450500000000000000000201607260002001EL COMERCIO ELECTRICO DE LA CO                    C000000009760000000000000000000000100010010000000000000000000000F0010000008900200220160726000101 00000000000000000000000000000000000000000000000000000000000000000000000000000000000000000000000000000000000000000N 00000000000NCONT   00    00000000000          00000000000000000000000000000000000000000000 000000000000000A000000000000000000000000000000000000000000000 000000000000000000000000000000000000000     00000000                                                                                                                        000000000000000000
F0010000008900200003000090038852800042505000000000000000000201607260002001EL COMERCIO ELECTRICO DE LA CO                    C000000002400000000000000000000000100010010000000000000000000000F0010000008900200320160726000101 00000000000000000000000000000000000000000000000000000000000000000000000000000000000000000000000000000000000000000N 00000000000NCONT   00    00000000000          00000000000000000000000000000000000000000000 000000000000000A000000000000000000000000000000000000000000000 000000000000000000000000000000000000000     00000000                                                                                                                        000000000000000000
F0010000008900200004000090038852800023658300000000000000000201607260002001EL COMERCIO ELECTRICO DE LA CO                    C000000000078100000000000000000000100010010000000000000000000000F0010000008900200420160726000101 00000000000000000000000000000000000000000000000000000000000000000000000000000000000000000000000000000000000000000N 00000000000NCONT   00    00000000000          00000000000000000000000000000000000000000000 000000000000000A000000000000000000000000000000000000000000000 000000000000000000000000000000000000000     00000000                                                                                                                        000000000000000000
F0010000008900200005000090038852800013552100000000000000000201607260002001EL COMERCIO ELECTRICO DE LA CO                    D000000000078100000000000000000000100010010000000000000000000000F0010000008900200520160726000101 00000000000000000000000000000000000000000000000000000000000000000000000000000000000000000000000000000000000000000N 00000000000NCONT   00    00000000000          00000000000000000000000000000000000000000000 000000000000000A000000000000000000000000000000000000000000000 000000000000000000000000000000000000000     00000000                                                                                                                        000000000000000000
F0010000008900300001000000870907300013050500000000000000000201607260002001SURTIDOR FERRETERO                                D000000025661000000000000000000000100010010000000000000000000000F0010000008900300120160726000101 00000000000000000000000000000000000000000000000000000000000000000000000000000000000000000000000000000000000000000N 00000000000NCONT   00    00000000000          00000000000000000000000000000000000000000000 000000000000000A000000000000000000000000000000000000000000000 000000000000000000000000000000000000000     00000000                                                                                                                        000000000000000000
F0010000008900300002000000870907300041450500000000000000000201607260002001SURTIDOR FERRETERO                                C000000021790000000000000000000000100010010000000000000000000000F0010000008900300220160726000101 00000000000000000000000000000000000000000000000000000000000000000000000000000000000000000000000000000000000000000N 00000000000NCONT   00    00000000000          00000000000000000000000000000000000000000000 000000000000000A000000000000000000000000000000000000000000000 000000000000000000000000000000000000000     00000000                                                                                                                        000000000000000000
F0010000008900300003000000870907300041750100000000000000000201607260002001SURTIDOR FERRETERO                                D000000002179000000000000000000000100010010000000000000000000000F0010000008900300320160726000101 00000000000000000000000000000000000000000000000000000000000000000000000000000000000000000000000000000000000000000N 00000000000NCONT   00    00000000000          00000000000000000000000000000000000000000000 000000000000000A000000000000000000000000000000000000000000000 000000000000000000000000000000000000000     00000000                                                                                                                        000000000000000000
F0010000008900300004000000870907300042505000000000000000000201607260002001SURTIDOR FERRETERO                                C000000006050000000000000000000000100010010000000000000000000000F0010000008900300420160726000101 00000000000000000000000000000000000000000000000000000000000000000000000000000000000000000000000000000000000000000N 00000000000NCONT   00    00000000000          00000000000000000000000000000000000000000000 000000000000000A000000000000000000000000000000000000000000000 000000000000000000000000000000000000000     00000000                                                                                                                        000000000000000000
F0010000008900300005000000870907300023658300000000000000000201607260002001SURTIDOR FERRETERO                                C000000000174300000000000000000000100010010000000000000000000000F0010000008900300520160726000101 00000000000000000000000000000000000000000000000000000000000000000000000000000000000000000000000000000000000000000N 00000000000NCONT   00    00000000000          00000000000000000000000000000000000000000000 000000000000000A000000000000000000000000000000000000000000000 000000000000000000000000000000000000000     00000000                                                                                                                        000000000000000000
F0010000008900300006000000870907300013552100000000000000000201607260002001SURTIDOR FERRETERO                                D000000000174300000000000000000000100010010000000000000000000000F0010000008900300620160726000101 00000000000000000000000000000000000000000000000000000000000000000000000000000000000000000000000000000000000000000N 00000000000NCONT   00    00000000000          00000000000000000000000000000000000000000000 000000000000000A000000000000000000000000000000000000000000000 000000000000000000000000000000000000000     00000000                                                                                                                        000000000000000000
F0010000008900400001000089010952800013050500000000000000000201607260002001IND. LITOGRAF. BOSTON S.A.S.                      D000000037700000000000000000000000100010010000000000000000000000F0010000008900400120160726000101 00000000000000000000000000000000000000000000000000000000000000000000000000000000000000000000000000000000000000000N 00000000000NCONT   00    00000000000          00000000000000000000000000000000000000000000 000000000000000A000000000000000000000000000000000000000000000 000000000000000000000000000000000000000     00000000                                                                                                                        000000000000000000
F0010000008900400002000089010952800041450500000000000000000201607260002001IND. LITOGRAF. BOSTON S.A.S.                      C000000031150000000000000000000000100010010000000000000000000000F0010000008900400220160726000101 00000000000000000000000000000000000000000000000000000000000000000000000000000000000000000000000000000000000000000N 00000000000NCONT   00    00000000000          00000000000000000000000000000000000000000000 000000000000000A000000000000000000000000000000000000000000000 000000000000000000000000000000000000000     00000000                                                                                                                        000000000000000000
F0010000008900400003000089010952800042505000000000000000000201607260002001IND. LITOGRAF. BOSTON S.A.S.                      C000000006550000000000000000000000100010010000000000000000000000F0010000008900400320160726000101 00000000000000000000000000000000000000000000000000000000000000000000000000000000000000000000000000000000000000000N 00000000000NCONT   00    00000000000          00000000000000000000000000000000000000000000 000000000000000A000000000000000000000000000000000000000000000 000000000000000000000000000000000000000     00000000                                                                                                                        000000000000000000
F0010000008900400004000089010952800023658300000000000000000201607260002001IND. LITOGRAF. BOSTON S.A.S.                      C000000000249200000000000000000000100010010000000000000000000000F0010000008900400420160726000101 00000000000000000000000000000000000000000000000000000000000000000000000000000000000000000000000000000000000000000N 00000000000NCONT   00    00000000000          00000000000000000000000000000000000000000000 000000000000000A000000000000000000000000000000000000000000000 000000000000000000000000000000000000000     00000000                                                                                                                        000000000000000000
F0010000008900400005000089010952800013552100000000000000000201607260002001IND. LITOGRAF. BOSTON S.A.S.                      D000000000249200000000000000000000100010010000000000000000000000F0010000008900400520160726000101 00000000000000000000000000000000000000000000000000000000000000000000000000000000000000000000000000000000000000000N 00000000000NCONT   00    00000000000          00000000000000000000000000000000000000000000 000000000000000A000000000000000000000000000000000000000000000 000000000000000000000000000000000000000     00000000                                                                                                                        000000000000000000
F0010000008900500001000089010272700013050500000000000000000201607260002001ALFONSOEME S.A.                                   D000000022511500000000000000000000100010010000000000000000000000F0010000008900500120160726000101 00000000000000000000000000000000000000000000000000000000000000000000000000000000000000000000000000000000000000000N 00000000000NCONT   00    00000000000          00000000000000000000000000000000000000000000 000000000000000A000000000000000000000000000000000000000000000 000000000000000000000000000000000000000     00000000                                                                                                                        000000000000000000
F0010000008900500002000089010272700041450500000000000000000201607260002001ALFONSOEME S.A.                                   C000000022435000000000000000000000100010010000000000000000000000F0010000008900500220160726000101 00000000000000000000000000000000000000000000000000000000000000000000000000000000000000000000000000000000000000000N 00000000000NCONT   00    00000000000          00000000000000000000000000000000000000000000 000000000000000A000000000000000000000000000000000000000000000 000000000000000000000000000000000000000     00000000                                                                                                                        000000000000000000
F0010000008900500003000089010272700041750100000000000000000201607260002001ALFONSOEME S.A.                                   D000000002243500000000000000000000100010010000000000000000000000F0010000008900500320160726000101 00000000000000000000000000000000000000000000000000000000000000000000000000000000000000000000000000000000000000000N 00000000000NCONT   00    00000000000          00000000000000000000000000000000000000000000 000000000000000A000000000000000000000000000000000000000000000 000000000000000000000000000000000000000     00000000                                                                                                                        000000000000000000
F0010000008900500004000089010272700042505000000000000000000201607260002001ALFONSOEME S.A.                                   C000000002320000000000000000000000100010010000000000000000000000F0010000008900500420160726000101 00000000000000000000000000000000000000000000000000000000000000000000000000000000000000000000000000000000000000000N 00000000000NCONT   00    00000000000          00000000000000000000000000000000000000000000 000000000000000A000000000000000000000000000000000000000000000 000000000000000000000000000000000000000     00000000                                                                                                                        000000000000000000
F0010000008900500005000089010272700023658300000000000000000201607260002001ALFONSOEME S.A.                                   C000000000179500000000000000000000100010010000000000000000000000F0010000008900500520160726000101 00000000000000000000000000000000000000000000000000000000000000000000000000000000000000000000000000000000000000000N 00000000000NCONT   00    00000000000          00000000000000000000000000000000000000000000 000000000000000A000000000000000000000000000000000000000000000 000000000000000000000000000000000000000     00000000                                                                                                                        000000000000000000
F0010000008900500006000089010272700013552100000000000000000201607260002001ALFONSOEME S.A.                                   D000000000179500000000000000000000100010010000000000000000000000F0010000008900500620160726000101 00000000000000000000000000000000000000000000000000000000000000000000000000000000000000000000000000000000000000000N 00000000000NCONT   00    00000000000          00000000000000000000000000000000000000000000 000000000000000A000000000000000000000000000000000000000000000 000000000000000000000000000000000000000     00000000                                                                                                                        000000000000000000
F0010000008900600001000090040631000013050500000000000000000201607260002001BEINEX SAS                                        D000000013411200000000000000000000100010010000000000000000000000F0010000008900600120160726000101 00000000000000000000000000000000000000000000000000000000000000000000000000000000000000000000000000000000000000000N 00000000000NCONT   00    00000000000          00000000000000000000000000000000000000000000 000000000000000A000000000000000000000000000000000000000000000 000000000000000000000000000000000000000     00000000                                                                                                                        000000000000000000
F0010000008900600002000090040631000041450500000000000000000201607260002001BEINEX SAS                                        C000000013970000000000000000000000100010010000000000000000000000F0010000008900600220160726000101 00000000000000000000000000000000000000000000000000000000000000000000000000000000000000000000000000000000000000000N 00000000000NCONT   00    00000000000          00000000000000000000000000000000000000000000 000000000000000A000000000000000000000000000000000000000000000 000000000000000000000000000000000000000     00000000                                                                                                                        000000000000000000
F0010000008900600003000090040631000041750100000000000000000201607260002001BEINEX SAS                                        D000000000558800000000000000000000100010010000000000000000000000F0010000008900600320160726000101 00000000000000000000000000000000000000000000000000000000000000000000000000000000000000000000000000000000000000000N 00000000000NCONT   00    00000000000          00000000000000000000000000000000000000000000 000000000000000A000000000000000000000000000000000000000000000 000000000000000000000000000000000000000     00000000                                                                                                                        000000000000000000
F0010000008900600004000090040631000042505000000000000000000201607260002001BEINEX SAS                                        C000000000000000000000000000000000100010010000000000000000000000F0010000008900600420160726000101 00000000000000000000000000000000000000000000000000000000000000000000000000000000000000000000000000000000000000000N 00000000000NCONT   00    00000000000          00000000000000000000000000000000000000000000 000000000000000A000000000000000000000000000000000000000000000 000000000000000000000000000000000000000     00000000                                                                                                                        000000000000000000
F0010000008900600005000090040631000023658300000000000000000201607260002001BEINEX SAS                                        C000000000111800000000000000000000100010010000000000000000000000F0010000008900600520160726000101 00000000000000000000000000000000000000000000000000000000000000000000000000000000000000000000000000000000000000000N 00000000000NCONT   00    00000000000          00000000000000000000000000000000000000000000 000000000000000A000000000000000000000000000000000000000000000 000000000000000000000000000000000000000     00000000                                                                                                                        000000000000000000
F0010000008900600006000090040631000013552100000000000000000201607260002001BEINEX SAS                                        D000000000111800000000000000000000100010010000000000000000000000F0010000008900600620160726000101 00000000000000000000000000000000000000000000000000000000000000000000000000000000000000000000000000000000000000000N 00000000000NCONT   00    00000000000          00000000000000000000000000000000000000000000 000000000000000A000000000000000000000000000000000000000000000 000000000000000000000000000000000000000     00000000                                                                                                                        000000000000000000
F0010000008900700001000090019362000013050500000000000000000201607260002001GENERAL SUPPLIES CIA LTDA                         D000000013373300000000000000000000100010010000000000000000000000F0010000008900700120160726000101 00000000000000000000000000000000000000000000000000000000000000000000000000000000000000000000000000000000000000000N 00000000000NCONT   00    00000000000          00000000000000000000000000000000000000000000 000000000000000A000000000000000000000000000000000000000000000 000000000000000000000000000000000000000     00000000                                                                                                                        000000000000000000
F0010000008900700002000090019362000041450500000000000000000201607260002001GENERAL SUPPLIES CIA LTDA                         C000000011283300000000000000000000100010010000000000000000000000F0010000008900700220160726000101 00000000000000000000000000000000000000000000000000000000000000000000000000000000000000000000000000000000000000000N 00000000000NCONT   00    00000000000          00000000000000000000000000000000000000000000 000000000000000A000000000000000000000000000000000000000000000 000000000000000000000000000000000000000     00000000                                                                                                                        000000000000000000
F0010000008900700003000090019362000042505000000000000000000201607260002001GENERAL SUPPLIES CIA LTDA                         C000000002090000000000000000000000100010010000000000000000000000F0010000008900700320160726000101 00000000000000000000000000000000000000000000000000000000000000000000000000000000000000000000000000000000000000000N 00000000000NCONT   00    00000000000          00000000000000000000000000000000000000000000 000000000000000A000000000000000000000000000000000000000000000 000000000000000000000000000000000000000     00000000                                                                                                                        000000000000000000
F0010000008900700004000090019362000023658300000000000000000201607260002001GENERAL SUPPLIES CIA LTDA                         C000000000090300000000000000000000100010010000000000000000000000F0010000008900700420160726000101 00000000000000000000000000000000000000000000000000000000000000000000000000000000000000000000000000000000000000000N 00000000000NCONT   00    00000000000          00000000000000000000000000000000000000000000 000000000000000A000000000000000000000000000000000000000000000 000000000000000000000000000000000000000     00000000                                                                                                                        000000000000000000
F0010000008900700005000090019362000013552100000000000000000201607260002001GENERAL SUPPLIES CIA LTDA                         D000000000090300000000000000000000100010010000000000000000000000F0010000008900700520160726000101 00000000000000000000000000000000000000000000000000000000000000000000000000000000000000000000000000000000000000000N 00000000000NCONT   00    00000000000          00000000000000000000000000000000000000000000 000000000000000A000000000000000000000000000000000000000000000 000000000000000000000000000000000000000     00000000                                                                                                                        000000000000000000
F0010000008900800001000090044920600013050500000000000000000201607260002001QUATRO CARIBE SAS                                 D000000005420000000000000000000000100010010000000000000000000000F0010000008900800120160726000101 00000000000000000000000000000000000000000000000000000000000000000000000000000000000000000000000000000000000000000N 00000000000NCONT   00    00000000000          00000000000000000000000000000000000000000000 000000000000000A000000000000000000000000000000000000000000000 000000000000000000000000000000000000000     00000000                                                                                                                        000000000000000000
F0010000008900800002000090044920600041450500000000000000000201607260002001QUATRO CARIBE SAS                                 C000000003670000000000000000000000100010010000000000000000000000F0010000008900800220160726000101 00000000000000000000000000000000000000000000000000000000000000000000000000000000000000000000000000000000000000000N 00000000000NCONT   00    00000000000          00000000000000000000000000000000000000000000 000000000000000A000000000000000000000000000000000000000000000 000000000000000000000000000000000000000     00000000                                                                                                                        000000000000000000
F0010000008900800003000090044920600042505000000000000000000201607260002001QUATRO CARIBE SAS                                 C000000001750000000000000000000000100010010000000000000000000000F0010000008900800320160726000101 00000000000000000000000000000000000000000000000000000000000000000000000000000000000000000000000000000000000000000N 00000000000NCONT   00    00000000000          00000000000000000000000000000000000000000000 000000000000000A000000000000000000000000000000000000000000000 000000000000000000000000000000000000000     00000000                                                                                                                        000000000000000000
F0010000008900800004000090044920600023658300000000000000000201607260002001QUATRO CARIBE SAS                                 C000000000029400000000000000000000100010010000000000000000000000F0010000008900800420160726000101 00000000000000000000000000000000000000000000000000000000000000000000000000000000000000000000000000000000000000000N 00000000000NCONT   00    00000000000          00000000000000000000000000000000000000000000 000000000000000A000000000000000000000000000000000000000000000 000000000000000000000000000000000000000     00000000                                                                                                                        000000000000000000
F0010000008900800005000090044920600013552100000000000000000201607260002001QUATRO CARIBE SAS                                 D000000000029400000000000000000000100010010000000000000000000000F0010000008900800520160726000101 00000000000000000000000000000000000000000000000000000000000000000000000000000000000000000000000000000000000000000N 00000000000NCONT   00    00000000000          00000000000000000000000000000000000000000000 000000000000000A000000000000000000000000000000000000000000000 000000000000000000000000000000000000000     00000000                                                                                                                        000000000000000000
F0010000008900900001000000744822500013050500000000000000000201607260002001LABORATORIO Y PERFUMERIA BORGE                    D000000012078000000000000000000000100010010000000000000000000000F0010000008900900120160726000101 00000000000000000000000000000000000000000000000000000000000000000000000000000000000000000000000000000000000000000N 00000000000NCONT   00    00000000000          00000000000000000000000000000000000000000000 000000000000000A000000000000000000000000000000000000000000000 000000000000000000000000000000000000000     00000000                                                                                                                        000000000000000000
F0010000008900900002000000744822500041450500000000000000000201607260002001LABORATORIO Y PERFUMERIA BORGE                    C000000008700000000000000000000000100010010000000000000000000000F0010000008900900220160726000101 00000000000000000000000000000000000000000000000000000000000000000000000000000000000000000000000000000000000000000N 00000000000NCONT   00    00000000000          00000000000000000000000000000000000000000000 000000000000000A000000000000000000000000000000000000000000000 000000000000000000000000000000000000000     00000000                                                                                                                        000000000000000000
F0010000008900900003000000744822500042505000000000000000000201607260002001LABORATORIO Y PERFUMERIA BORGE                    C000000003378000000000000000000000100010010000000000000000000000F0010000008900900320160726000101 00000000000000000000000000000000000000000000000000000000000000000000000000000000000000000000000000000000000000000N 00000000000NCONT   00    00000000000          00000000000000000000000000000000000000000000 000000000000000A000000000000000000000000000000000000000000000 000000000000000000000000000000000000000     00000000                                                                                                                        000000000000000000
F0010000008900900004000000744822500023658300000000000000000201607260002001LABORATORIO Y PERFUMERIA BORGE                    C000000000069600000000000000000000100010010000000000000000000000F0010000008900900420160726000101 00000000000000000000000000000000000000000000000000000000000000000000000000000000000000000000000000000000000000000N 00000000000NCONT   00    00000000000          00000000000000000000000000000000000000000000 000000000000000A000000000000000000000000000000000000000000000 000000000000000000000000000000000000000     00000000                                                                                                                        000000000000000000
F0010000008900900005000000744822500013552100000000000000000201607260002001LABORATORIO Y PERFUMERIA BORGE                    D000000000069600000000000000000000100010010000000000000000000000F0010000008900900520160726000101 00000000000000000000000000000000000000000000000000000000000000000000000000000000000000000000000000000000000000000N 00000000000NCONT   00    00000000000          00000000000000000000000000000000000000000000 000000000000000A000000000000000000000000000000000000000000000 000000000000000000000000000000000000000     00000000                                                                                                                        000000000000000000
F0010000008901000001000090007142100013050500000000000000000201607260002001TODO BELLEZA Y MAX S.A.S                          D000000005620000000000000000000000100010010000000000000000000000F0010000008901000120160726000101 00000000000000000000000000000000000000000000000000000000000000000000000000000000000000000000000000000000000000000N 00000000000NCONT   00    00000000000          00000000000000000000000000000000000000000000 000000000000000A000000000000000000000000000000000000000000000 000000000000000000000000000000000000000     00000000                                                                                                                        000000000000000000
F0010000008901000002000090007142100041450500000000000000000201607260002001TODO BELLEZA Y MAX S.A.S                          C000000005120000000000000000000000100010010000000000000000000000F0010000008901000220160726000101 00000000000000000000000000000000000000000000000000000000000000000000000000000000000000000000000000000000000000000N 00000000000NCONT   00    00000000000          00000000000000000000000000000000000000000000 000000000000000A000000000000000000000000000000000000000000000 000000000000000000000000000000000000000     00000000                                                                                                                        000000000000000000
F0010000008901000003000090007142100042505000000000000000000201607260002001TODO BELLEZA Y MAX S.A.S                          C000000000500000000000000000000000100010010000000000000000000000F0010000008901000320160726000101 00000000000000000000000000000000000000000000000000000000000000000000000000000000000000000000000000000000000000000N 00000000000NCONT   00    00000000000          00000000000000000000000000000000000000000000 000000000000000A000000000000000000000000000000000000000000000 000000000000000000000000000000000000000     00000000                                                                                                                        000000000000000000
F0010000008901000004000090007142100023658300000000000000000201607260002001TODO BELLEZA Y MAX S.A.S                          C000000000041000000000000000000000100010010000000000000000000000F0010000008901000420160726000101 00000000000000000000000000000000000000000000000000000000000000000000000000000000000000000000000000000000000000000N 00000000000NCONT   00    00000000000          00000000000000000000000000000000000000000000 000000000000000A000000000000000000000000000000000000000000000 000000000000000000000000000000000000000     00000000                                                                                                                        000000000000000000
F0010000008901000005000090007142100013552100000000000000000201607260002001TODO BELLEZA Y MAX S.A.S                          D000000000041000000000000000000000100010010000000000000000000000F0010000008901000520160726000101 00000000000000000000000000000000000000000000000000000000000000000000000000000000000000000000000000000000000000000N 00000000000NCONT   00    00000000000          00000000000000000000000000000000000000000000 000000000000000A000000000000000000000000000000000000000000000 000000000000000000000000000000000000000     00000000                                                                                                                        000000000000000000
F0010000008901100001000004175790100013050500000000000000000201607260002001ROSIRIS FERIA HOYOS  (COSM. SHILLER)              D000000008700000000000000000000000100010010000000000000000000000F0010000008901100120160726000101 00000000000000000000000000000000000000000000000000000000000000000000000000000000000000000000000000000000000000000N 00000000000NCONT   00    00000000000          00000000000000000000000000000000000000000000 000000000000000A000000000000000000000000000000000000000000000 000000000000000000000000000000000000000     00000000                                                                                                                        000000000000000000
F0010000008901100002000004175790100041450500000000000000000201607260002001ROSIRIS FERIA HOYOS  (COSM. SHILLER)              C000000006900000000000000000000000100010010000000000000000000000F0010000008901100220160726000101 00000000000000000000000000000000000000000000000000000000000000000000000000000000000000000000000000000000000000000N 00000000000NCONT   00    00000000000          00000000000000000000000000000000000000000000 000000000000000A000000000000000000000000000000000000000000000 000000000000000000000000000000000000000     00000000                                                                                                                        000000000000000000
F0010000008901100003000004175790100042505000000000000000000201607260002001ROSIRIS FERIA HOYOS  (COSM. SHILLER)              C000000001800000000000000000000000100010010000000000000000000000F0010000008901100320160726000101 00000000000000000000000000000000000000000000000000000000000000000000000000000000000000000000000000000000000000000N 00000000000NCONT   00    00000000000          00000000000000000000000000000000000000000000 000000000000000A000000000000000000000000000000000000000000000 000000000000000000000000000000000000000     00000000                                                                                                                        000000000000000000
F0010000008901100004000004175790100023658300000000000000000201607260002001ROSIRIS FERIA HOYOS  (COSM. SHILLER)              C000000000055200000000000000000000100010010000000000000000000000F0010000008901100420160726000101 00000000000000000000000000000000000000000000000000000000000000000000000000000000000000000000000000000000000000000N 00000000000NCONT   00    00000000000          00000000000000000000000000000000000000000000 000000000000000A000000000000000000000000000000000000000000000 000000000000000000000000000000000000000     00000000                                                                                                                        000000000000000000
F0010000008901100005000004175790100013552100000000000000000201607260002001ROSIRIS FERIA HOYOS  (COSM. SHILLER)              D000000000055200000000000000000000100010010000000000000000000000F0010000008901100520160726000101 00000000000000000000000000000000000000000000000000000000000000000000000000000000000000000000000000000000000000000N 00000000000NCONT   00    00000000000          00000000000000000000000000000000000000000000 000000000000000A000000000000000000000000000000000000000000000 000000000000000000000000000000000000000     00000000                                                                                                                        000000000000000000
F0010000008901200001000089030195100013050500000000000000000201607260002001LIBRERIA NACIONAL S.A.                            D000000018300000000000000000000000100010010000000000000000000000F0010000008901200120160726000101 00000000000000000000000000000000000000000000000000000000000000000000000000000000000000000000000000000000000000000N 00000000000NCONT   00    00000000000          00000000000000000000000000000000000000000000 000000000000000A000000000000000000000000000000000000000000000 000000000000000000000000000000000000000     00000000                                                                                                                        000000000000000000
F0010000008901200002000089030195100041450500000000000000000201607260002001LIBRERIA NACIONAL S.A.                            C000000015000000000000000000000000100010010000000000000000000000F0010000008901200220160726000101 00000000000000000000000000000000000000000000000000000000000000000000000000000000000000000000000000000000000000000N 00000000000NCONT   00    00000000000          00000000000000000000000000000000000000000000 000000000000000A000000000000000000000000000000000000000000000 000000000000000000000000000000000000000     00000000                                                                                                                        000000000000000000
F0010000008901200003000089030195100042505000000000000000000201607260002001LIBRERIA NACIONAL S.A.                            C000000003300000000000000000000000100010010000000000000000000000F0010000008901200320160726000101 00000000000000000000000000000000000000000000000000000000000000000000000000000000000000000000000000000000000000000N 00000000000NCONT   00    00000000000          00000000000000000000000000000000000000000000 000000000000000A000000000000000000000000000000000000000000000 000000000000000000000000000000000000000     00000000                                                                                                                        000000000000000000
F0010000008901200004000089030195100023658300000000000000000201607260002001LIBRERIA NACIONAL S.A.                            C000000000120000000000000000000000100010010000000000000000000000F0010000008901200420160726000101 00000000000000000000000000000000000000000000000000000000000000000000000000000000000000000000000000000000000000000N 00000000000NCONT   00    00000000000          00000000000000000000000000000000000000000000 000000000000000A000000000000000000000000000000000000000000000 000000000000000000000000000000000000000     00000000                                                                                                                        000000000000000000
F0010000008901200005000089030195100013552100000000000000000201607260002001LIBRERIA NACIONAL S.A.                            D000000000120000000000000000000000100010010000000000000000000000F0010000008901200520160726000101 00000000000000000000000000000000000000000000000000000000000000000000000000000000000000000000000000000000000000000N 00000000000NCONT   00    00000000000          00000000000000000000000000000000000000000000 000000000000000A000000000000000000000000000000000000000000000 000000000000000000000000000000000000000     00000000                                                                                                                        000000000000000000
F0010000008901300001000080000083500013050500000000000000000201607260002001ALIPAR Y CIA LTDA                                 D000000004300000000000000000000000100010010000000000000000000000F0010000008901300120160726000101 00000000000000000000000000000000000000000000000000000000000000000000000000000000000000000000000000000000000000000N 00000000000NCONT   00    00000000000          00000000000000000000000000000000000000000000 000000000000000A000000000000000000000000000000000000000000000 000000000000000000000000000000000000000     00000000                                                                                                                        000000000000000000
F0010000008901300002000080000083500041450500000000000000000201607260002001ALIPAR Y CIA LTDA                                 C000000003600000000000000000000000100010010000000000000000000000F0010000008901300220160726000101 00000000000000000000000000000000000000000000000000000000000000000000000000000000000000000000000000000000000000000N 00000000000NCONT   00    00000000000          00000000000000000000000000000000000000000000 000000000000000A000000000000000000000000000000000000000000000 000000000000000000000000000000000000000     00000000                                                                                                                        000000000000000000
F0010000008901300003000080000083500042505000000000000000000201607260002001ALIPAR Y CIA LTDA                                 C000000000700000000000000000000000100010010000000000000000000000F0010000008901300320160726000101 00000000000000000000000000000000000000000000000000000000000000000000000000000000000000000000000000000000000000000N 00000000000NCONT   00    00000000000          00000000000000000000000000000000000000000000 000000000000000A000000000000000000000000000000000000000000000 000000000000000000000000000000000000000     00000000                                                                                                                        000000000000000000
F0010000008901300004000080000083500023658300000000000000000201607260002001ALIPAR Y CIA LTDA                                 C000000000028800000000000000000000100010010000000000000000000000F0010000008901300420160726000101 00000000000000000000000000000000000000000000000000000000000000000000000000000000000000000000000000000000000000000N 00000000000NCONT   00    00000000000          00000000000000000000000000000000000000000000 000000000000000A000000000000000000000000000000000000000000000 000000000000000000000000000000000000000     00000000                                                                                                                        000000000000000000
F0010000008901300005000080000083500013552100000000000000000201607260002001ALIPAR Y CIA LTDA                                 D000000000028800000000000000000000100010010000000000000000000000F0010000008901300520160726000101 00000000000000000000000000000000000000000000000000000000000000000000000000000000000000000000000000000000000000000N 00000000000NCONT   00    00000000000          00000000000000000000000000000000000000000000 000000000000000A000000000000000000000000000000000000000000000 000000000000000000000000000000000000000     00000000                                                                                                                        000000000000000000
F0010000008901400001000003264509600013050500000000000000000201607260002001ROSA E. AGAMEZ                                    D000000006260000000000000000000000100010010000000000000000000000F0010000008901400120160726000101 00000000000000000000000000000000000000000000000000000000000000000000000000000000000000000000000000000000000000000N 00000000000NCONT   00    00000000000          00000000000000000000000000000000000000000000 000000000000000A000000000000000000000000000000000000000000000 000000000000000000000000000000000000000     00000000                                                                                                                        000000000000000000
F0010000008901400002000003264509600041450500000000000000000201607260002001ROSA E. AGAMEZ                                    C000000004260000000000000000000000100010010000000000000000000000F0010000008901400220160726000101 00000000000000000000000000000000000000000000000000000000000000000000000000000000000000000000000000000000000000000N 00000000000NCONT   00    00000000000          00000000000000000000000000000000000000000000 000000000000000A000000000000000000000000000000000000000000000 000000000000000000000000000000000000000     00000000                                                                                                                        000000000000000000
F0010000008901400003000003264509600042505000000000000000000201607260002001ROSA E. AGAMEZ                                    C000000002000000000000000000000000100010010000000000000000000000F0010000008901400320160726000101 00000000000000000000000000000000000000000000000000000000000000000000000000000000000000000000000000000000000000000N 00000000000NCONT   00    00000000000          00000000000000000000000000000000000000000000 000000000000000A000000000000000000000000000000000000000000000 000000000000000000000000000000000000000     00000000                                                                                                                        000000000000000000
F0010000008901400004000003264509600023658300000000000000000201607260002001ROSA E. AGAMEZ                                    C000000000034100000000000000000000100010010000000000000000000000F0010000008901400420160726000101 00000000000000000000000000000000000000000000000000000000000000000000000000000000000000000000000000000000000000000N 00000000000NCONT   00    00000000000          00000000000000000000000000000000000000000000 000000000000000A000000000000000000000000000000000000000000000 000000000000000000000000000000000000000     00000000                                                                                                                        000000000000000000
F0010000008901400005000003264509600013552100000000000000000201607260002001ROSA E. AGAMEZ                                    D000000000034100000000000000000000100010010000000000000000000000F0010000008901400520160726000101 00000000000000000000000000000000000000000000000000000000000000000000000000000000000000000000000000000000000000000N 00000000000NCONT   00    00000000000          00000000000000000000000000000000000000000000 000000000000000A000000000000000000000000000000000000000000000 000000000000000000000000000000000000000     00000000                                                                                                                        000000000000000000
F0010000008901500001000080202132300013050500000000000000000201607260002001SUM Y SERV DE LA COSTA LTDA                       D000000011810000000000000000000000100010010000000000000000000000F0010000008901500120160726000101 00000000000000000000000000000000000000000000000000000000000000000000000000000000000000000000000000000000000000000N 00000000000NCONT   00    00000000000          00000000000000000000000000000000000000000000 000000000000000A000000000000000000000000000000000000000000000 000000000000000000000000000000000000000     00000000                                                                                                                        000000000000000000
F0010000008901500002000080202132300041450500000000000000000201607260002001SUM Y SERV DE LA COSTA LTDA                       C000000011260000000000000000000000100010010000000000000000000000F0010000008901500220160726000101 00000000000000000000000000000000000000000000000000000000000000000000000000000000000000000000000000000000000000000N 00000000000NCONT   00    00000000000          00000000000000000000000000000000000000000000 000000000000000A000000000000000000000000000000000000000000000 000000000000000000000000000000000000000     00000000                                                                                                                        000000000000000000
F0010000008901500003000080202132300042505000000000000000000201607260002001SUM Y SERV DE LA COSTA LTDA                       C000000000550000000000000000000000100010010000000000000000000000F0010000008901500320160726000101 00000000000000000000000000000000000000000000000000000000000000000000000000000000000000000000000000000000000000000N 00000000000NCONT   00    00000000000          00000000000000000000000000000000000000000000 000000000000000A000000000000000000000000000000000000000000000 000000000000000000000000000000000000000     00000000                                                                                                                        000000000000000000
F0010000008901500004000080202132300023658300000000000000000201607260002001SUM Y SERV DE LA COSTA LTDA                       C000000000090100000000000000000000100010010000000000000000000000F0010000008901500420160726000101 00000000000000000000000000000000000000000000000000000000000000000000000000000000000000000000000000000000000000000N 00000000000NCONT   00    00000000000          00000000000000000000000000000000000000000000 000000000000000A000000000000000000000000000000000000000000000 000000000000000000000000000000000000000     00000000                                                                                                                        000000000000000000
F0010000008901500005000080202132300013552100000000000000000201607260002001SUM Y SERV DE LA COSTA LTDA                       D000000000090100000000000000000000100010010000000000000000000000F0010000008901500520160726000101 00000000000000000000000000000000000000000000000000000000000000000000000000000000000000000000000000000000000000000N 00000000000NCONT   00    00000000000          00000000000000000000000000000000000000000000 000000000000000A000000000000000000000000000000000000000000000 000000000000000000000000000000000000000     00000000                                                                                                                        000000000000000000
F0010000008901600001000083008772100013050500000000000000000201607260002001ILUMEC SAS                                        D000000031940000000000000000000000100010010000000000000000000000F0010000008901600120160726000101 00000000000000000000000000000000000000000000000000000000000000000000000000000000000000000000000000000000000000000N 00000000000NCONT   00    00000000000          00000000000000000000000000000000000000000000 000000000000000A000000000000000000000000000000000000000000000 000000000000000000000000000000000000000     00000000                                                                                                                        000000000000000000
F0010000008901600002000083008772100041450500000000000000000201607260002001ILUMEC SAS                                        C000000023540000000000000000000000100010010000000000000000000000F0010000008901600220160726000101 00000000000000000000000000000000000000000000000000000000000000000000000000000000000000000000000000000000000000000N 00000000000NCONT   00    00000000000          00000000000000000000000000000000000000000000 000000000000000A000000000000000000000000000000000000000000000 000000000000000000000000000000000000000     00000000                                                                                                                        000000000000000000
F0010000008901600003000083008772100042505000000000000000000201607260002001ILUMEC SAS                                        C000000008400000000000000000000000100010010000000000000000000000F0010000008901600320160726000101 00000000000000000000000000000000000000000000000000000000000000000000000000000000000000000000000000000000000000000N 00000000000NCONT   00    00000000000          00000000000000000000000000000000000000000000 000000000000000A000000000000000000000000000000000000000000000 000000000000000000000000000000000000000     00000000                                                                                                                        000000000000000000
F0010000008901600004000083008772100023658300000000000000000201607260002001ILUMEC SAS                                        C000000000188300000000000000000000100010010000000000000000000000F0010000008901600420160726000101 00000000000000000000000000000000000000000000000000000000000000000000000000000000000000000000000000000000000000000N 00000000000NCONT   00    00000000000          00000000000000000000000000000000000000000000 000000000000000A000000000000000000000000000000000000000000000 000000000000000000000000000000000000000     00000000                                                                                                                        000000000000000000
F0010000008901600005000083008772100013552100000000000000000201607260002001ILUMEC SAS                                        D000000000188300000000000000000000100010010000000000000000000000F0010000008901600520160726000101 00000000000000000000000000000000000000000000000000000000000000000000000000000000000000000000000000000000000000000N 00000000000NCONT   00    00000000000          00000000000000000000000000000000000000000000 000000000000000A000000000000000000000000000000000000000000000 000000000000000000000000000000000000000     00000000                                                                                                                        000000000000000000
F0010000008901700001000090070882400011050500000000000000000201607260002001FERRESOLDAR DEL CARIBE S.A.S                      D000000001400000000000000000000000100010010000000000000000000000F0010000008901700120160726000101 00000000000000000000000000000000000000000000000000000000000000000000000000000000000000000000000000000000000000000N 00000000000NCONT   00    00000000000          00000000000000000000000000000000000000000000 000000000000000A000000000000000000000000000000000000000000000 000000000000000000000000000000000000000     00000000                                                                                                                        000000000000000000
F0010000008901700002000090070882400041450500000000000000000201607260002001FERRESOLDAR DEL CARIBE S.A.S                      C000000001200000000000000000000000100010010000000000000000000000F0010000008901700220160726000101 00000000000000000000000000000000000000000000000000000000000000000000000000000000000000000000000000000000000000000N 00000000000NCONT   00    00000000000          00000000000000000000000000000000000000000000 000000000000000A000000000000000000000000000000000000000000000 000000000000000000000000000000000000000     00000000                                                                                                                        000000000000000000
F0010000008901700003000090070882400042505000000000000000000201607260002001FERRESOLDAR DEL CARIBE S.A.S                      C000000000200000000000000000000000100010010000000000000000000000F0010000008901700320160726000101 00000000000000000000000000000000000000000000000000000000000000000000000000000000000000000000000000000000000000000N 00000000000NCONT   00    00000000000          00000000000000000000000000000000000000000000 000000000000000A000000000000000000000000000000000000000000000 000000000000000000000000000000000000000     00000000                                                                                                                        000000000000000000
F0010000008901700004000090070882400023658300000000000000000201607260002001FERRESOLDAR DEL CARIBE S.A.S                      C000000000009600000000000000000000100010010000000000000000000000F0010000008901700420160726000101 00000000000000000000000000000000000000000000000000000000000000000000000000000000000000000000000000000000000000000N 00000000000NCONT   00    00000000000          00000000000000000000000000000000000000000000 000000000000000A000000000000000000000000000000000000000000000 000000000000000000000000000000000000000     00000000                                                                                                                        000000000000000000
F0010000008901700005000090070882400013552100000000000000000201607260002001FERRESOLDAR DEL CARIBE S.A.S                      D000000000009600000000000000000000100010010000000000000000000000F0010000008901700520160726000101 00000000000000000000000000000000000000000000000000000000000000000000000000000000000000000000000000000000000000000N 00000000000NCONT   00    00000000000          00000000000000000000000000000000000000000000 000000000000000A000000000000000000000000000000000000000000000 000000000000000000000000000000000000000     00000000                                                                                                                        000000000000000000
F0010000008901800001000109040271000011050500000000000000000201607260002001LUIS MIGUEL QUINTERO GUERRERO                     D000000008000000000000000000000000100010010000000000000000000000F0010000008901800120160726000101 00000000000000000000000000000000000000000000000000000000000000000000000000000000000000000000000000000000000000000N 00000000000NCONT   00    00000000000          00000000000000000000000000000000000000000000 000000000000000A000000000000000000000000000000000000000000000 000000000000000000000000000000000000000     00000000                                                                                                                        000000000000000000
F0010000008901800002000109040271000041450500000000000000000201607260002001LUIS MIGUEL QUINTERO GUERRERO                     C000000007000000000000000000000000100010010000000000000000000000F0010000008901800220160726000101 00000000000000000000000000000000000000000000000000000000000000000000000000000000000000000000000000000000000000000N 00000000000NCONT   00    00000000000          00000000000000000000000000000000000000000000 000000000000000A000000000000000000000000000000000000000000000 000000000000000000000000000000000000000     00000000                                                                                                                        000000000000000000
F0010000008901800003000109040271000042505000000000000000000201607260002001LUIS MIGUEL QUINTERO GUERRERO                     C000000001000000000000000000000000100010010000000000000000000000F0010000008901800320160726000101 00000000000000000000000000000000000000000000000000000000000000000000000000000000000000000000000000000000000000000N 00000000000NCONT   00    00000000000          00000000000000000000000000000000000000000000 000000000000000A000000000000000000000000000000000000000000000 000000000000000000000000000000000000000     00000000                                                                                                                        000000000000000000
F0010000008901800004000109040271000023658300000000000000000201607260002001LUIS MIGUEL QUINTERO GUERRERO                     C000000000056000000000000000000000100010010000000000000000000000F0010000008901800420160726000101 00000000000000000000000000000000000000000000000000000000000000000000000000000000000000000000000000000000000000000N 00000000000NCONT   00    00000000000          00000000000000000000000000000000000000000000 000000000000000A000000000000000000000000000000000000000000000 000000000000000000000000000000000000000     00000000                                                                                                                        000000000000000000
F0010000008901800005000109040271000013552100000000000000000201607260002001LUIS MIGUEL QUINTERO GUERRERO                     D000000000056000000000000000000000100010010000000000000000000000F0010000008901800520160726000101 00000000000000000000000000000000000000000000000000000000000000000000000000000000000000000000000000000000000000000N 00000000000NCONT   00    00000000000          00000000000000000000000000000000000000000000 000000000000000A000000000000000000000000000000000000000000000 000000000000000000000000000000000000000     00000000                                                                                                                        000000000000000000
F0010000008901900001000109040271000011050500000000000000000201607260002001LUIS MIGUEL QUINTERO GUERRERO                     D000000010700000000000000000000000100010010000000000000000000000F0010000008901900120160726000101 00000000000000000000000000000000000000000000000000000000000000000000000000000000000000000000000000000000000000000N 00000000000NCONT   00    00000000000          00000000000000000000000000000000000000000000 000000000000000A000000000000000000000000000000000000000000000 000000000000000000000000000000000000000     00000000                                                                                                                        000000000000000000
F0010000008901900002000109040271000041450500000000000000000201607260002001LUIS MIGUEL QUINTERO GUERRERO                     C000000009600000000000000000000000100010010000000000000000000000F0010000008901900220160726000101 00000000000000000000000000000000000000000000000000000000000000000000000000000000000000000000000000000000000000000N 00000000000NCONT   00    00000000000          00000000000000000000000000000000000000000000 000000000000000A000000000000000000000000000000000000000000000 000000000000000000000000000000000000000     00000000                                                                                                                        000000000000000000
F0010000008901900003000109040271000042505000000000000000000201607260002001LUIS MIGUEL QUINTERO GUERRERO                     C000000001100000000000000000000000100010010000000000000000000000F0010000008901900320160726000101 00000000000000000000000000000000000000000000000000000000000000000000000000000000000000000000000000000000000000000N 00000000000NCONT   00    00000000000          00000000000000000000000000000000000000000000 000000000000000A000000000000000000000000000000000000000000000 000000000000000000000000000000000000000     00000000                                                                                                                        000000000000000000
F0010000008901900004000109040271000023658300000000000000000201607260002001LUIS MIGUEL QUINTERO GUERRERO                     C000000000076800000000000000000000100010010000000000000000000000F0010000008901900420160726000101 00000000000000000000000000000000000000000000000000000000000000000000000000000000000000000000000000000000000000000N 00000000000NCONT   00    00000000000          00000000000000000000000000000000000000000000 000000000000000A000000000000000000000000000000000000000000000 000000000000000000000000000000000000000     00000000                                                                                                                        000000000000000000
F0010000008901900005000109040271000013552100000000000000000201607260002001LUIS MIGUEL QUINTERO GUERRERO                     D000000000076800000000000000000000100010010000000000000000000000F0010000008901900520160726000101 00000000000000000000000000000000000000000000000000000000000000000000000000000000000000000000000000000000000000000N 00000000000NCONT   00    00000000000          00000000000000000000000000000000000000000000 000000000000000A000000000000000000000000000000000000000000000 000000000000000000000000000000000000000     00000000                                                                                                                        000000000000000000
F0010000008902000001000007213133300011050500000000000000000201607260002001ALVARO ALBERTO FANDIO GOMEZ                     D000000001100000000000000000000000100010010000000000000000000000F0010000008902000120160726000101 00000000000000000000000000000000000000000000000000000000000000000000000000000000000000000000000000000000000000000N 00000000000NCONT   00    00000000000          00000000000000000000000000000000000000000000 000000000000000A000000000000000000000000000000000000000000000 000000000000000000000000000000000000000     00000000                                                                                                                        000000000000000000
F0010000008902000002000007213133300041450500000000000000000201607260002001ALVARO ALBERTO FANDIO GOMEZ                     C000000001000000000000000000000000100010010000000000000000000000F0010000008902000220160726000101 00000000000000000000000000000000000000000000000000000000000000000000000000000000000000000000000000000000000000000N 00000000000NCONT   00    00000000000          00000000000000000000000000000000000000000000 000000000000000A000000000000000000000000000000000000000000000 000000000000000000000000000000000000000     00000000                                                                                                                        000000000000000000
F0010000008902000003000007213133300042505000000000000000000201607260002001ALVARO ALBERTO FANDIO GOMEZ                     C000000000100000000000000000000000100010010000000000000000000000F0010000008902000320160726000101 00000000000000000000000000000000000000000000000000000000000000000000000000000000000000000000000000000000000000000N 00000000000NCONT   00    00000000000          00000000000000000000000000000000000000000000 000000000000000A000000000000000000000000000000000000000000000 000000000000000000000000000000000000000     00000000                                                                                                                        000000000000000000
F0010000008902000004000007213133300023658300000000000000000201607260002001ALVARO ALBERTO FANDIO GOMEZ                     C000000000008000000000000000000000100010010000000000000000000000F0010000008902000420160726000101 00000000000000000000000000000000000000000000000000000000000000000000000000000000000000000000000000000000000000000N 00000000000NCONT   00    00000000000          00000000000000000000000000000000000000000000 000000000000000A000000000000000000000000000000000000000000000 000000000000000000000000000000000000000     00000000                                                                                                                        000000000000000000
F0010000008902000005000007213133300013552100000000000000000201607260002001ALVARO ALBERTO FANDIO GOMEZ                     D000000000008000000000000000000000100010010000000000000000000000F0010000008902000520160726000101 00000000000000000000000000000000000000000000000000000000000000000000000000000000000000000000000000000000000000000N 00000000000NCONT   00    00000000000          00000000000000000000000000000000000000000000 000000000000000A000000000000000000000000000000000000000000000 000000000000000000000000000000000000000     00000000                                                                                                                        000000000000000000
F0010000008902100001000102390001700011050500000000000000000201607260002001LILIANA HERNANDEZ PINILLA                         D000000003000000000000000000000000100010010000000000000000000000F0010000008902100120160726000101 00000000000000000000000000000000000000000000000000000000000000000000000000000000000000000000000000000000000000000N 00000000000NCONT   00    00000000000          00000000000000000000000000000000000000000000 000000000000000A000000000000000000000000000000000000000000000 000000000000000000000000000000000000000     00000000                                                                                                                        000000000000000000
F0010000008902100002000102390001700041450500000000000000000201607260002001LILIANA HERNANDEZ PINILLA                         C000000002000000000000000000000000100010010000000000000000000000F0010000008902100220160726000101 00000000000000000000000000000000000000000000000000000000000000000000000000000000000000000000000000000000000000000N 00000000000NCONT   00    00000000000          00000000000000000000000000000000000000000000 000000000000000A000000000000000000000000000000000000000000000 000000000000000000000000000000000000000     00000000                                                                                                                        000000000000000000
F0010000008902100003000102390001700042505000000000000000000201607260002001LILIANA HERNANDEZ PINILLA                         C000000001000000000000000000000000100010010000000000000000000000F0010000008902100320160726000101 00000000000000000000000000000000000000000000000000000000000000000000000000000000000000000000000000000000000000000N 00000000000NCONT   00    00000000000          00000000000000000000000000000000000000000000 000000000000000A000000000000000000000000000000000000000000000 000000000000000000000000000000000000000     00000000                                                                                                                        000000000000000000
F0010000008902100004000102390001700023658300000000000000000201607260002001LILIANA HERNANDEZ PINILLA                         C000000000016000000000000000000000100010010000000000000000000000F0010000008902100420160726000101 00000000000000000000000000000000000000000000000000000000000000000000000000000000000000000000000000000000000000000N 00000000000NCONT   00    00000000000          00000000000000000000000000000000000000000000 000000000000000A000000000000000000000000000000000000000000000 000000000000000000000000000000000000000     00000000                                                                                                                        000000000000000000
