F0010000006494200001000090027633800011050500000000000000000201411120002001MALLAS Y CERRAMIENTOS DEL ATLANTICO LTDA          D000000005000000000000000000000000100010010000000000000000000000F0010000006494200120141112000101 00000000000000000000000000000000000000000000000000000000000000000000000000000000000000000000000000000000000000000N 00000000000NCONT   00    00000000000          00000000000000000000000000000000000000000000 000000000000000A000000000000000000000000000000000000000000000 000000000000000000000000000000000000000     00000000                                                                                                                        000000000000000000
F0010000006494200002000090027633800041450500000000000000000201411120002001MALLAS Y CERRAMIENTOS DEL ATLANTICO LTDA          C000000004500000000000000000000000100010010000000000000000000000F0010000006494200220141112000101 00000000000000000000000000000000000000000000000000000000000000000000000000000000000000000000000000000000000000000N 00000000000NCONT   00    00000000000          00000000000000000000000000000000000000000000 000000000000000A000000000000000000000000000000000000000000000 000000000000000000000000000000000000000     00000000                                                                                                                        000000000000000000
F0010000006494200003000090027633800042505000000000000000000201411120002001MALLAS Y CERRAMIENTOS DEL ATLANTICO LTDA          C000000000500000000000000000000000100010010000000000000000000000F0010000006494200320141112000101 00000000000000000000000000000000000000000000000000000000000000000000000000000000000000000000000000000000000000000N 00000000000NCONT   00    00000000000          00000000000000000000000000000000000000000000 000000000000000A000000000000000000000000000000000000000000000 000000000000000000000000000000000000000     00000000                                                                                                                        000000000000000000
F0010000006494200004000090027633800023658300000000000000000201411120002001MALLAS Y CERRAMIENTOS DEL ATLANTICO LTDA          C000000000036000000000000000000000100010010000000000000000000000F0010000006494200420141112000101 00000000000000000000000000000000000000000000000000000000000000000000000000000000000000000000000000000000000000000N 00000000000NCONT   00    00000000000          00000000000000000000000000000000000000000000 000000000000000A000000000000000000000000000000000000000000000 000000000000000000000000000000000000000     00000000                                                                                                                        000000000000000000
F0010000006494200005000090027633800013552100000000000000000201411120002001MALLAS Y CERRAMIENTOS DEL ATLANTICO LTDA          D000000000036000000000000000000000100010010000000000000000000000F0010000006494200520141112000101 00000000000000000000000000000000000000000000000000000000000000000000000000000000000000000000000000000000000000000N 00000000000NCONT   00    00000000000          00000000000000000000000000000000000000000000 000000000000000A000000000000000000000000000000000000000000000 000000000000000000000000000000000000000     00000000                                                                                                                        000000000000000000
F0010000006494300001000080200863700013050500000000000000000201411120002001COPIN LTDA                                        D000000076865400000000000000000000100010010000000000000000000000F0010000006494300120141112000101 00000000000000000000000000000000000000000000000000000000000000000000000000000000000000000000000000000000000000000N 00000000000NCONT   00    00000000000          00000000000000000000000000000000000000000000 000000000000000A000000000000000000000000000000000000000000000 000000000000000000000000000000000000000     00000000                                                                                                                        000000000000000000
F0010000006494300002000080200863700041450500000000000000000201411120002001COPIN LTDA                                        C000000070220000000000000000000000100010010000000000000000000000F0010000006494300220141112000101 00000000000000000000000000000000000000000000000000000000000000000000000000000000000000000000000000000000000000000N 00000000000NCONT   00    00000000000          00000000000000000000000000000000000000000000 000000000000000A000000000000000000000000000000000000000000000 000000000000000000000000000000000000000     00000000                                                                                                                        000000000000000000
F0010000006494300003000080200863700042505000000000000000000201411120002001COPIN LTDA                                        C000000006645400000000000000000000100010010000000000000000000000F0010000006494300320141112000101 00000000000000000000000000000000000000000000000000000000000000000000000000000000000000000000000000000000000000000N 00000000000NCONT   00    00000000000          00000000000000000000000000000000000000000000 000000000000000A000000000000000000000000000000000000000000000 000000000000000000000000000000000000000     00000000                                                                                                                        000000000000000000
F0010000006494300004000080200863700023658300000000000000000201411120002001COPIN LTDA                                        C000000000561800000000000000000000100010010000000000000000000000F0010000006494300420141112000101 00000000000000000000000000000000000000000000000000000000000000000000000000000000000000000000000000000000000000000N 00000000000NCONT   00    00000000000          00000000000000000000000000000000000000000000 000000000000000A000000000000000000000000000000000000000000000 000000000000000000000000000000000000000     00000000                                                                                                                        000000000000000000
F0010000006494300005000080200863700013552100000000000000000201411120002001COPIN LTDA                                        D000000000561800000000000000000000100010010000000000000000000000F0010000006494300520141112000101 00000000000000000000000000000000000000000000000000000000000000000000000000000000000000000000000000000000000000000N 00000000000NCONT   00    00000000000          00000000000000000000000000000000000000000000 000000000000000A000000000000000000000000000000000000000000000 000000000000000000000000000000000000000     00000000                                                                                                                        000000000000000000
F0010000006494400001000086000490200013050500000000000000000201411120002001PROV. DE PAPELES ANDINA S.A.                      D000000070445700000000000000000000100010010000000000000000000000F0010000006494400120141112000101 00000000000000000000000000000000000000000000000000000000000000000000000000000000000000000000000000000000000000000N 00000000000NCONT   00    00000000000          00000000000000000000000000000000000000000000 000000000000000A000000000000000000000000000000000000000000000 000000000000000000000000000000000000000     00000000                                                                                                                        000000000000000000
F0010000006494400002000086000490200041450500000000000000000201411120002001PROV. DE PAPELES ANDINA S.A.                      C000000066054200000000000000000000100010010000000000000000000000F0010000006494400220141112000101 00000000000000000000000000000000000000000000000000000000000000000000000000000000000000000000000000000000000000000N 00000000000NCONT   00    00000000000          00000000000000000000000000000000000000000000 000000000000000A000000000000000000000000000000000000000000000 000000000000000000000000000000000000000     00000000                                                                                                                        000000000000000000
F0010000006494400003000086000490200042505000000000000000000201411120002001PROV. DE PAPELES ANDINA S.A.                      C000000004391500000000000000000000100010010000000000000000000000F0010000006494400320141112000101 00000000000000000000000000000000000000000000000000000000000000000000000000000000000000000000000000000000000000000N 00000000000NCONT   00    00000000000          00000000000000000000000000000000000000000000 000000000000000A000000000000000000000000000000000000000000000 000000000000000000000000000000000000000     00000000                                                                                                                        000000000000000000
F0010000006494400004000086000490200023658300000000000000000201411120002001PROV. DE PAPELES ANDINA S.A.                      C000000000528400000000000000000000100010010000000000000000000000F0010000006494400420141112000101 00000000000000000000000000000000000000000000000000000000000000000000000000000000000000000000000000000000000000000N 00000000000NCONT   00    00000000000          00000000000000000000000000000000000000000000 000000000000000A000000000000000000000000000000000000000000000 000000000000000000000000000000000000000     00000000                                                                                                                        000000000000000000
F0010000006494400005000086000490200013552100000000000000000201411120002001PROV. DE PAPELES ANDINA S.A.                      D000000000528400000000000000000000100010010000000000000000000000F0010000006494400520141112000101 00000000000000000000000000000000000000000000000000000000000000000000000000000000000000000000000000000000000000000N 00000000000NCONT   00    00000000000          00000000000000000000000000000000000000000000 000000000000000A000000000000000000000000000000000000000000000 000000000000000000000000000000000000000     00000000                                                                                                                        000000000000000000
F0010000006494500001000089093802000013050500000000000000000201411120002001INPROQUIM SAS                                     D000000039511300000000000000000000100010010000000000000000000000F0010000006494500120141112000101 00000000000000000000000000000000000000000000000000000000000000000000000000000000000000000000000000000000000000000N 00000000000NCONT   00    00000000000          00000000000000000000000000000000000000000000 000000000000000A000000000000000000000000000000000000000000000 000000000000000000000000000000000000000     00000000                                                                                                                        000000000000000000
F0010000006494500002000089093802000041450500000000000000000201411120002001INPROQUIM SAS                                     C000000033900000000000000000000000100010010000000000000000000000F0010000006494500220141112000101 00000000000000000000000000000000000000000000000000000000000000000000000000000000000000000000000000000000000000000N 00000000000NCONT   00    00000000000          00000000000000000000000000000000000000000000 000000000000000A000000000000000000000000000000000000000000000 000000000000000000000000000000000000000     00000000                                                                                                                        000000000000000000
F0010000006494500003000089093802000042505000000000000000000201411120002001INPROQUIM SAS                                     C000000005611300000000000000000000100010010000000000000000000000F0010000006494500320141112000101 00000000000000000000000000000000000000000000000000000000000000000000000000000000000000000000000000000000000000000N 00000000000NCONT   00    00000000000          00000000000000000000000000000000000000000000 000000000000000A000000000000000000000000000000000000000000000 000000000000000000000000000000000000000     00000000                                                                                                                        000000000000000000
F0010000006494500004000089093802000023658300000000000000000201411120002001INPROQUIM SAS                                     C000000000271200000000000000000000100010010000000000000000000000F0010000006494500420141112000101 00000000000000000000000000000000000000000000000000000000000000000000000000000000000000000000000000000000000000000N 00000000000NCONT   00    00000000000          00000000000000000000000000000000000000000000 000000000000000A000000000000000000000000000000000000000000000 000000000000000000000000000000000000000     00000000                                                                                                                        000000000000000000
F0010000006494500005000089093802000013552100000000000000000201411120002001INPROQUIM SAS                                     D000000000271200000000000000000000100010010000000000000000000000F0010000006494500520141112000101 00000000000000000000000000000000000000000000000000000000000000000000000000000000000000000000000000000000000000000N 00000000000NCONT   00    00000000000          00000000000000000000000000000000000000000000 000000000000000A000000000000000000000000000000000000000000000 000000000000000000000000000000000000000     00000000                                                                                                                        000000000000000000
F0010000006494600001000080200563400013050500000000000000000201411120002001TECNOSEMILLAS LTDA                                D000000003494300000000000000000000100010010000000000000000000000F0010000006494600120141112000101 00000000000000000000000000000000000000000000000000000000000000000000000000000000000000000000000000000000000000000N 00000000000NCONT   00    00000000000          00000000000000000000000000000000000000000000 000000000000000A000000000000000000000000000000000000000000000 000000000000000000000000000000000000000     00000000                                                                                                                        000000000000000000
F0010000006494600002000080200563400041450500000000000000000201411120002001TECNOSEMILLAS LTDA                                C000000002250000000000000000000000100010010000000000000000000000F0010000006494600220141112000101 00000000000000000000000000000000000000000000000000000000000000000000000000000000000000000000000000000000000000000N 00000000000NCONT   00    00000000000          00000000000000000000000000000000000000000000 000000000000000A000000000000000000000000000000000000000000000 000000000000000000000000000000000000000     00000000                                                                                                                        000000000000000000
F0010000006494600003000080200563400042505000000000000000000201411120002001TECNOSEMILLAS LTDA                                C000000001244300000000000000000000100010010000000000000000000000F0010000006494600320141112000101 00000000000000000000000000000000000000000000000000000000000000000000000000000000000000000000000000000000000000000N 00000000000NCONT   00    00000000000          00000000000000000000000000000000000000000000 000000000000000A000000000000000000000000000000000000000000000 000000000000000000000000000000000000000     00000000                                                                                                                        000000000000000000
F0010000006494600004000080200563400023658300000000000000000201411120002001TECNOSEMILLAS LTDA                                C000000000018000000000000000000000100010010000000000000000000000F0010000006494600420141112000101 00000000000000000000000000000000000000000000000000000000000000000000000000000000000000000000000000000000000000000N 00000000000NCONT   00    00000000000          00000000000000000000000000000000000000000000 000000000000000A000000000000000000000000000000000000000000000 000000000000000000000000000000000000000     00000000                                                                                                                        000000000000000000
F0010000006494600005000080200563400013552100000000000000000201411120002001TECNOSEMILLAS LTDA                                D000000000018000000000000000000000100010010000000000000000000000F0010000006494600520141112000101 00000000000000000000000000000000000000000000000000000000000000000000000000000000000000000000000000000000000000000N 00000000000NCONT   00    00000000000          00000000000000000000000000000000000000000000 000000000000000A000000000000000000000000000000000000000000000 000000000000000000000000000000000000000     00000000                                                                                                                        000000000000000000
F0010000006494700001000001719393900013050500000000000000000201411120002001JAIRO BASTIDAS RAMIREZ                            D000000026200000000000000000000000100010010000000000000000000000F0010000006494700120141112000101 00000000000000000000000000000000000000000000000000000000000000000000000000000000000000000000000000000000000000000N 00000000000NCONT   00    00000000000          00000000000000000000000000000000000000000000 000000000000000A000000000000000000000000000000000000000000000 000000000000000000000000000000000000000     00000000                                                                                                                        000000000000000000
F0010000006494700002000001719393900041450500000000000000000201411120002001JAIRO BASTIDAS RAMIREZ                            C000000023400000000000000000000000100010010000000000000000000000F0010000006494700220141112000101 00000000000000000000000000000000000000000000000000000000000000000000000000000000000000000000000000000000000000000N 00000000000NCONT   00    00000000000          00000000000000000000000000000000000000000000 000000000000000A000000000000000000000000000000000000000000000 000000000000000000000000000000000000000     00000000                                                                                                                        000000000000000000
F0010000006494700003000001719393900042505000000000000000000201411120002001JAIRO BASTIDAS RAMIREZ                            C000000002800000000000000000000000100010010000000000000000000000F0010000006494700320141112000101 00000000000000000000000000000000000000000000000000000000000000000000000000000000000000000000000000000000000000000N 00000000000NCONT   00    00000000000          00000000000000000000000000000000000000000000 000000000000000A000000000000000000000000000000000000000000000 000000000000000000000000000000000000000     00000000                                                                                                                        000000000000000000
F0010000006494700004000001719393900023658300000000000000000201411120002001JAIRO BASTIDAS RAMIREZ                            C000000000187200000000000000000000100010010000000000000000000000F0010000006494700420141112000101 00000000000000000000000000000000000000000000000000000000000000000000000000000000000000000000000000000000000000000N 00000000000NCONT   00    00000000000          00000000000000000000000000000000000000000000 000000000000000A000000000000000000000000000000000000000000000 000000000000000000000000000000000000000     00000000                                                                                                                        000000000000000000
F0010000006494700005000001719393900013552100000000000000000201411120002001JAIRO BASTIDAS RAMIREZ                            D000000000187200000000000000000000100010010000000000000000000000F0010000006494700520141112000101 00000000000000000000000000000000000000000000000000000000000000000000000000000000000000000000000000000000000000000N 00000000000NCONT   00    00000000000          00000000000000000000000000000000000000000000 000000000000000A000000000000000000000000000000000000000000000 000000000000000000000000000000000000000     00000000                                                                                                                        000000000000000000
F0010000006494800001000089031248700013050500000000000000000201411120002001DISTRIBUIDORA CALIPLASTICOS LTDA                  D000000084479100000000000000000000100010010000000000000000000000F0010000006494800120141112000101 00000000000000000000000000000000000000000000000000000000000000000000000000000000000000000000000000000000000000000N 00000000000NCONT   00    00000000000          00000000000000000000000000000000000000000000 000000000000000A000000000000000000000000000000000000000000000 000000000000000000000000000000000000000     00000000                                                                                                                        000000000000000000
F0010000006494800002000089031248700041450500000000000000000201411120002001DISTRIBUIDORA CALIPLASTICOS LTDA                  C000000081179100000000000000000000100010010000000000000000000000F0010000006494800220141112000101 00000000000000000000000000000000000000000000000000000000000000000000000000000000000000000000000000000000000000000N 00000000000NCONT   00    00000000000          00000000000000000000000000000000000000000000 000000000000000A000000000000000000000000000000000000000000000 000000000000000000000000000000000000000     00000000                                                                                                                        000000000000000000
F0010000006494800003000089031248700042505000000000000000000201411120002001DISTRIBUIDORA CALIPLASTICOS LTDA                  C000000003300000000000000000000000100010010000000000000000000000F0010000006494800320141112000101 00000000000000000000000000000000000000000000000000000000000000000000000000000000000000000000000000000000000000000N 00000000000NCONT   00    00000000000          00000000000000000000000000000000000000000000 000000000000000A000000000000000000000000000000000000000000000 000000000000000000000000000000000000000     00000000                                                                                                                        000000000000000000
F0010000006494800004000089031248700023658300000000000000000201411120002001DISTRIBUIDORA CALIPLASTICOS LTDA                  C000000000649400000000000000000000100010010000000000000000000000F0010000006494800420141112000101 00000000000000000000000000000000000000000000000000000000000000000000000000000000000000000000000000000000000000000N 00000000000NCONT   00    00000000000          00000000000000000000000000000000000000000000 000000000000000A000000000000000000000000000000000000000000000 000000000000000000000000000000000000000     00000000                                                                                                                        000000000000000000
F0010000006494800005000089031248700013552100000000000000000201411120002001DISTRIBUIDORA CALIPLASTICOS LTDA                  D000000000649400000000000000000000100010010000000000000000000000F0010000006494800520141112000101 00000000000000000000000000000000000000000000000000000000000000000000000000000000000000000000000000000000000000000N 00000000000NCONT   00    00000000000          00000000000000000000000000000000000000000000 000000000000000A000000000000000000000000000000000000000000000 000000000000000000000000000000000000000     00000000                                                                                                                        000000000000000000
F0010000006494900001000080010983700013050500000000000000000201411120002001OHM LTDA                                          D000000068435000000000000000000000100010010000000000000000000000F0010000006494900120141112000101 00000000000000000000000000000000000000000000000000000000000000000000000000000000000000000000000000000000000000000N 00000000000NCONT   00    00000000000          00000000000000000000000000000000000000000000 000000000000000A000000000000000000000000000000000000000000000 000000000000000000000000000000000000000     00000000                                                                                                                        000000000000000000
F0010000006494900002000080010983700041450500000000000000000201411120002001OHM LTDA                                          C000000067430000000000000000000000100010010000000000000000000000F0010000006494900220141112000101 00000000000000000000000000000000000000000000000000000000000000000000000000000000000000000000000000000000000000000N 00000000000NCONT   00    00000000000          00000000000000000000000000000000000000000000 000000000000000A000000000000000000000000000000000000000000000 000000000000000000000000000000000000000     00000000                                                                                                                        000000000000000000
F0010000006494900003000080010983700042505000000000000000000201411120002001OHM LTDA                                          C000000001005000000000000000000000100010010000000000000000000000F0010000006494900320141112000101 00000000000000000000000000000000000000000000000000000000000000000000000000000000000000000000000000000000000000000N 00000000000NCONT   00    00000000000          00000000000000000000000000000000000000000000 000000000000000A000000000000000000000000000000000000000000000 000000000000000000000000000000000000000     00000000                                                                                                                        000000000000000000
F0010000006494900004000080010983700023658300000000000000000201411120002001OHM LTDA                                          C000000000539400000000000000000000100010010000000000000000000000F0010000006494900420141112000101 00000000000000000000000000000000000000000000000000000000000000000000000000000000000000000000000000000000000000000N 00000000000NCONT   00    00000000000          00000000000000000000000000000000000000000000 000000000000000A000000000000000000000000000000000000000000000 000000000000000000000000000000000000000     00000000                                                                                                                        000000000000000000
F0010000006494900005000080010983700013552100000000000000000201411120002001OHM LTDA                                          D000000000539400000000000000000000100010010000000000000000000000F0010000006494900520141112000101 00000000000000000000000000000000000000000000000000000000000000000000000000000000000000000000000000000000000000000N 00000000000NCONT   00    00000000000          00000000000000000000000000000000000000000000 000000000000000A000000000000000000000000000000000000000000000 000000000000000000000000000000000000000     00000000                                                                                                                        000000000000000000
F0010000006495000001000089010260300013050500000000000000000201411120002001FEDERICO OSORIO A. S.A.                           D000000097499400000000000000000000100010010000000000000000000000F0010000006495000120141112000101 00000000000000000000000000000000000000000000000000000000000000000000000000000000000000000000000000000000000000000N 00000000000NCONT   00    00000000000          00000000000000000000000000000000000000000000 000000000000000A000000000000000000000000000000000000000000000 000000000000000000000000000000000000000     00000000                                                                                                                        000000000000000000
F0010000006495000002000089010260300041450500000000000000000201411120002001FEDERICO OSORIO A. S.A.                           C000000088980000000000000000000000100010010000000000000000000000F0010000006495000220141112000101 00000000000000000000000000000000000000000000000000000000000000000000000000000000000000000000000000000000000000000N 00000000000NCONT   00    00000000000          00000000000000000000000000000000000000000000 000000000000000A000000000000000000000000000000000000000000000 000000000000000000000000000000000000000     00000000                                                                                                                        000000000000000000
F0010000006495000003000089010260300042505000000000000000000201411120002001FEDERICO OSORIO A. S.A.                           C000000008519400000000000000000000100010010000000000000000000000F0010000006495000320141112000101 00000000000000000000000000000000000000000000000000000000000000000000000000000000000000000000000000000000000000000N 00000000000NCONT   00    00000000000          00000000000000000000000000000000000000000000 000000000000000A000000000000000000000000000000000000000000000 000000000000000000000000000000000000000     00000000                                                                                                                        000000000000000000
F0010000006495000004000089010260300023658300000000000000000201411120002001FEDERICO OSORIO A. S.A.                           C000000000711800000000000000000000100010010000000000000000000000F0010000006495000420141112000101 00000000000000000000000000000000000000000000000000000000000000000000000000000000000000000000000000000000000000000N 00000000000NCONT   00    00000000000          00000000000000000000000000000000000000000000 000000000000000A000000000000000000000000000000000000000000000 000000000000000000000000000000000000000     00000000                                                                                                                        000000000000000000
F0010000006495000005000089010260300013552100000000000000000201411120002001FEDERICO OSORIO A. S.A.                           D000000000711800000000000000000000100010010000000000000000000000F0010000006495000520141112000101 00000000000000000000000000000000000000000000000000000000000000000000000000000000000000000000000000000000000000000N 00000000000NCONT   00    00000000000          00000000000000000000000000000000000000000000 000000000000000A000000000000000000000000000000000000000000000 000000000000000000000000000000000000000     00000000                                                                                                                        000000000000000000
F0010000006495100001000003900336900011050500000000000000000201411120002001LUISA FERNANDA BOLAñOS                           D000000012000000000000000000000000100010010000000000000000000000F0010000006495100120141112000101 00000000000000000000000000000000000000000000000000000000000000000000000000000000000000000000000000000000000000000N 00000000000NCONT   00    00000000000          00000000000000000000000000000000000000000000 000000000000000A000000000000000000000000000000000000000000000 000000000000000000000000000000000000000     00000000                                                                                                                        000000000000000000
F0010000006495100002000003900336900041450500000000000000000201411120002001LUISA FERNANDA BOLAñOS                           C000000011900000000000000000000000100010010000000000000000000000F0010000006495100220141112000101 00000000000000000000000000000000000000000000000000000000000000000000000000000000000000000000000000000000000000000N 00000000000NCONT   00    00000000000          00000000000000000000000000000000000000000000 000000000000000A000000000000000000000000000000000000000000000 000000000000000000000000000000000000000     00000000                                                                                                                        000000000000000000
F0010000006495100003000003900336900042505000000000000000000201411120002001LUISA FERNANDA BOLAñOS                           C000000000100000000000000000000000100010010000000000000000000000F0010000006495100320141112000101 00000000000000000000000000000000000000000000000000000000000000000000000000000000000000000000000000000000000000000N 00000000000NCONT   00    00000000000          00000000000000000000000000000000000000000000 000000000000000A000000000000000000000000000000000000000000000 000000000000000000000000000000000000000     00000000                                                                                                                        000000000000000000
F0010000006495100004000003900336900023658300000000000000000201411120002001LUISA FERNANDA BOLAñOS                           C000000000095200000000000000000000100010010000000000000000000000F0010000006495100420141112000101 00000000000000000000000000000000000000000000000000000000000000000000000000000000000000000000000000000000000000000N 00000000000NCONT   00    00000000000          00000000000000000000000000000000000000000000 000000000000000A000000000000000000000000000000000000000000000 000000000000000000000000000000000000000     00000000                                                                                                                        000000000000000000
F0010000006495100005000003900336900013552100000000000000000201411120002001LUISA FERNANDA BOLAñOS                           D000000000095200000000000000000000100010010000000000000000000000F0010000006495100520141112000101 00000000000000000000000000000000000000000000000000000000000000000000000000000000000000000000000000000000000000000N 00000000000NCONT   00    00000000000          00000000000000000000000000000000000000000000 000000000000000A000000000000000000000000000000000000000000000 000000000000000000000000000000000000000     00000000                                                                                                                        000000000000000000
F0010000006495200001000003900336900011050500000000000000000201411120002001LUISA FERNANDA BOLAñOS                           D000000007000000000000000000000000100010010000000000000000000000F0010000006495200120141112000101 00000000000000000000000000000000000000000000000000000000000000000000000000000000000000000000000000000000000000000N 00000000000NCONT   00    00000000000          00000000000000000000000000000000000000000000 000000000000000A000000000000000000000000000000000000000000000 000000000000000000000000000000000000000     00000000                                                                                                                        000000000000000000
F0010000006495200002000003900336900041450500000000000000000201411120002001LUISA FERNANDA BOLAñOS                           C000000006900000000000000000000000100010010000000000000000000000F0010000006495200220141112000101 00000000000000000000000000000000000000000000000000000000000000000000000000000000000000000000000000000000000000000N 00000000000NCONT   00    00000000000          00000000000000000000000000000000000000000000 000000000000000A000000000000000000000000000000000000000000000 000000000000000000000000000000000000000     00000000                                                                                                                        000000000000000000
F0010000006495200003000003900336900042505000000000000000000201411120002001LUISA FERNANDA BOLAñOS                           C000000000100000000000000000000000100010010000000000000000000000F0010000006495200320141112000101 00000000000000000000000000000000000000000000000000000000000000000000000000000000000000000000000000000000000000000N 00000000000NCONT   00    00000000000          00000000000000000000000000000000000000000000 000000000000000A000000000000000000000000000000000000000000000 000000000000000000000000000000000000000     00000000                                                                                                                        000000000000000000
F0010000006495200004000003900336900023658300000000000000000201411120002001LUISA FERNANDA BOLAñOS                           C000000000055200000000000000000000100010010000000000000000000000F0010000006495200420141112000101 00000000000000000000000000000000000000000000000000000000000000000000000000000000000000000000000000000000000000000N 00000000000NCONT   00    00000000000          00000000000000000000000000000000000000000000 000000000000000A000000000000000000000000000000000000000000000 000000000000000000000000000000000000000     00000000                                                                                                                        000000000000000000
F0010000006495200005000003900336900013552100000000000000000201411120002001LUISA FERNANDA BOLAñOS                           D000000000055200000000000000000000100010010000000000000000000000F0010000006495200520141112000101 00000000000000000000000000000000000000000000000000000000000000000000000000000000000000000000000000000000000000000N 00000000000NCONT   00    00000000000          00000000000000000000000000000000000000000000 000000000000000A000000000000000000000000000000000000000000000 000000000000000000000000000000000000000     00000000                                                                                                                        000000000000000000
F0010000006495300001000089010260300013050500000000000000000201411120002001FEDERICO OSORIO A. S.A.                           D000000019877000000000000000000000100010010000000000000000000000F0010000006495300120141112000101 00000000000000000000000000000000000000000000000000000000000000000000000000000000000000000000000000000000000000000N 00000000000NCONT   00    00000000000          00000000000000000000000000000000000000000000 000000000000000A000000000000000000000000000000000000000000000 000000000000000000000000000000000000000     00000000                                                                                                                        000000000000000000
F0010000006495300002000089010260300041450500000000000000000201411120002001FEDERICO OSORIO A. S.A.                           C000000017420000000000000000000000100010010000000000000000000000F0010000006495300220141112000101 00000000000000000000000000000000000000000000000000000000000000000000000000000000000000000000000000000000000000000N 00000000000NCONT   00    00000000000          00000000000000000000000000000000000000000000 000000000000000A000000000000000000000000000000000000000000000 000000000000000000000000000000000000000     00000000                                                                                                                        000000000000000000
F0010000006495300003000089010260300042505000000000000000000201411120002001FEDERICO OSORIO A. S.A.                           C000000002457000000000000000000000100010010000000000000000000000F0010000006495300320141112000101 00000000000000000000000000000000000000000000000000000000000000000000000000000000000000000000000000000000000000000N 00000000000NCONT   00    00000000000          00000000000000000000000000000000000000000000 000000000000000A000000000000000000000000000000000000000000000 000000000000000000000000000000000000000     00000000                                                                                                                        000000000000000000
F0010000006495300004000089010260300023658300000000000000000201411120002001FEDERICO OSORIO A. S.A.                           C000000000139400000000000000000000100010010000000000000000000000F0010000006495300420141112000101 00000000000000000000000000000000000000000000000000000000000000000000000000000000000000000000000000000000000000000N 00000000000NCONT   00    00000000000          00000000000000000000000000000000000000000000 000000000000000A000000000000000000000000000000000000000000000 000000000000000000000000000000000000000     00000000                                                                                                                        000000000000000000
F0010000006495300005000089010260300013552100000000000000000201411120002001FEDERICO OSORIO A. S.A.                           D000000000139400000000000000000000100010010000000000000000000000F0010000006495300520141112000101 00000000000000000000000000000000000000000000000000000000000000000000000000000000000000000000000000000000000000000N 00000000000NCONT   00    00000000000          00000000000000000000000000000000000000000000 000000000000000A000000000000000000000000000000000000000000000 000000000000000000000000000000000000000     00000000                                                                                                                        000000000000000000
F0010000006495400001000089010952800013050500000000000000000201411120002001IND. LITOGRAF. BOSTON S.A.S.                      D000000089880000000000000000000000100010010000000000000000000000F0010000006495400120141112000101 00000000000000000000000000000000000000000000000000000000000000000000000000000000000000000000000000000000000000000N 00000000000NCONT   00    00000000000          00000000000000000000000000000000000000000000 000000000000000A000000000000000000000000000000000000000000000 000000000000000000000000000000000000000     00000000                                                                                                                        000000000000000000
F0010000006495400002000089010952800041450500000000000000000201411120002001IND. LITOGRAF. BOSTON S.A.S.                      C000000079880000000000000000000000100010010000000000000000000000F0010000006495400220141112000101 00000000000000000000000000000000000000000000000000000000000000000000000000000000000000000000000000000000000000000N 00000000000NCONT   00    00000000000          00000000000000000000000000000000000000000000 000000000000000A000000000000000000000000000000000000000000000 000000000000000000000000000000000000000     00000000                                                                                                                        000000000000000000
F0010000006495400003000089010952800042505000000000000000000201411120002001IND. LITOGRAF. BOSTON S.A.S.                      C000000010000000000000000000000000100010010000000000000000000000F0010000006495400320141112000101 00000000000000000000000000000000000000000000000000000000000000000000000000000000000000000000000000000000000000000N 00000000000NCONT   00    00000000000          00000000000000000000000000000000000000000000 000000000000000A000000000000000000000000000000000000000000000 000000000000000000000000000000000000000     00000000                                                                                                                        000000000000000000
F0010000006495400004000089010952800023658300000000000000000201411120002001IND. LITOGRAF. BOSTON S.A.S.                      C000000000639000000000000000000000100010010000000000000000000000F0010000006495400420141112000101 00000000000000000000000000000000000000000000000000000000000000000000000000000000000000000000000000000000000000000N 00000000000NCONT   00    00000000000          00000000000000000000000000000000000000000000 000000000000000A000000000000000000000000000000000000000000000 000000000000000000000000000000000000000     00000000                                                                                                                        000000000000000000
F0010000006495400005000089010952800013552100000000000000000201411120002001IND. LITOGRAF. BOSTON S.A.S.                      D000000000639000000000000000000000100010010000000000000000000000F0010000006495400520141112000101 00000000000000000000000000000000000000000000000000000000000000000000000000000000000000000000000000000000000000000N 00000000000NCONT   00    00000000000          00000000000000000000000000000000000000000000 000000000000000A000000000000000000000000000000000000000000000 000000000000000000000000000000000000000     00000000                                                                                                                        000000000000000000
F0010000006495500001000004378861500011050500000000000000000201411120002001CLAUDIA HELENA ALZATE                             D000000005800000000000000000000000100010010000000000000000000000F0010000006495500120141112000101 00000000000000000000000000000000000000000000000000000000000000000000000000000000000000000000000000000000000000000N 00000000000NCONT   00    00000000000          00000000000000000000000000000000000000000000 000000000000000A000000000000000000000000000000000000000000000 000000000000000000000000000000000000000     00000000                                                                                                                        000000000000000000
F0010000006495500002000004378861500041450500000000000000000201411120002001CLAUDIA HELENA ALZATE                             C000000004800000000000000000000000100010010000000000000000000000F0010000006495500220141112000101 00000000000000000000000000000000000000000000000000000000000000000000000000000000000000000000000000000000000000000N 00000000000NCONT   00    00000000000          00000000000000000000000000000000000000000000 000000000000000A000000000000000000000000000000000000000000000 000000000000000000000000000000000000000     00000000                                                                                                                        000000000000000000
F0010000006495500003000004378861500042505000000000000000000201411120002001CLAUDIA HELENA ALZATE                             C000000001000000000000000000000000100010010000000000000000000000F0010000006495500320141112000101 00000000000000000000000000000000000000000000000000000000000000000000000000000000000000000000000000000000000000000N 00000000000NCONT   00    00000000000          00000000000000000000000000000000000000000000 000000000000000A000000000000000000000000000000000000000000000 000000000000000000000000000000000000000     00000000                                                                                                                        000000000000000000
F0010000006495500004000004378861500023658300000000000000000201411120002001CLAUDIA HELENA ALZATE                             C000000000038400000000000000000000100010010000000000000000000000F0010000006495500420141112000101 00000000000000000000000000000000000000000000000000000000000000000000000000000000000000000000000000000000000000000N 00000000000NCONT   00    00000000000          00000000000000000000000000000000000000000000 000000000000000A000000000000000000000000000000000000000000000 000000000000000000000000000000000000000     00000000                                                                                                                        000000000000000000
F0010000006495500005000004378861500013552100000000000000000201411120002001CLAUDIA HELENA ALZATE                             D000000000038400000000000000000000100010010000000000000000000000F0010000006495500520141112000101 00000000000000000000000000000000000000000000000000000000000000000000000000000000000000000000000000000000000000000N 00000000000NCONT   00    00000000000          00000000000000000000000000000000000000000000 000000000000000A000000000000000000000000000000000000000000000 000000000000000000000000000000000000000     00000000                                                                                                                        000000000000000000
F0010000006495600001000080201127600011050500000000000000000201411120002001ELECTRICOS DEL RUIZ S.A.S.                        D000000001140000000000000000000000100010010000000000000000000000F0010000006495600120141112000101 00000000000000000000000000000000000000000000000000000000000000000000000000000000000000000000000000000000000000000N 00000000000NCONT   00    00000000000          00000000000000000000000000000000000000000000 000000000000000A000000000000000000000000000000000000000000000 000000000000000000000000000000000000000     00000000                                                                                                                        000000000000000000
F0010000006495600002000080201127600041450500000000000000000201411120002001ELECTRICOS DEL RUIZ S.A.S.                        C000000000900000000000000000000000100010010000000000000000000000F0010000006495600220141112000101 00000000000000000000000000000000000000000000000000000000000000000000000000000000000000000000000000000000000000000N 00000000000NCONT   00    00000000000          00000000000000000000000000000000000000000000 000000000000000A000000000000000000000000000000000000000000000 000000000000000000000000000000000000000     00000000                                                                                                                        000000000000000000
F0010000006495600003000080201127600042505000000000000000000201411120002001ELECTRICOS DEL RUIZ S.A.S.                        C000000000240000000000000000000000100010010000000000000000000000F0010000006495600320141112000101 00000000000000000000000000000000000000000000000000000000000000000000000000000000000000000000000000000000000000000N 00000000000NCONT   00    00000000000          00000000000000000000000000000000000000000000 000000000000000A000000000000000000000000000000000000000000000 000000000000000000000000000000000000000     00000000                                                                                                                        000000000000000000
F0010000006495600004000080201127600023658300000000000000000201411120002001ELECTRICOS DEL RUIZ S.A.S.                        C000000000007200000000000000000000100010010000000000000000000000F0010000006495600420141112000101 00000000000000000000000000000000000000000000000000000000000000000000000000000000000000000000000000000000000000000N 00000000000NCONT   00    00000000000          00000000000000000000000000000000000000000000 000000000000000A000000000000000000000000000000000000000000000 000000000000000000000000000000000000000     00000000                                                                                                                        000000000000000000
F0010000006495600005000080201127600013552100000000000000000201411120002001ELECTRICOS DEL RUIZ S.A.S.                        D000000000007200000000000000000000100010010000000000000000000000F0010000006495600520141112000101 00000000000000000000000000000000000000000000000000000000000000000000000000000000000000000000000000000000000000000N 00000000000NCONT   00    00000000000          00000000000000000000000000000000000000000000 000000000000000A000000000000000000000000000000000000000000000 000000000000000000000000000000000000000     00000000                                                                                                                        000000000000000000
F0010000006495700001000090050144800011050500000000000000000201411120002001PLASTICOS JR ASOCIADOS SAS                        D000000004000000000000000000000000100010010000000000000000000000F0010000006495700120141112000101 00000000000000000000000000000000000000000000000000000000000000000000000000000000000000000000000000000000000000000N 00000000000NCONT   00    00000000000          00000000000000000000000000000000000000000000 000000000000000A000000000000000000000000000000000000000000000 000000000000000000000000000000000000000     00000000                                                                                                                        000000000000000000
F0010000006495700002000090050144800041450500000000000000000201411120002001PLASTICOS JR ASOCIADOS SAS                        C000000003400000000000000000000000100010010000000000000000000000F0010000006495700220141112000101 00000000000000000000000000000000000000000000000000000000000000000000000000000000000000000000000000000000000000000N 00000000000NCONT   00    00000000000          00000000000000000000000000000000000000000000 000000000000000A000000000000000000000000000000000000000000000 000000000000000000000000000000000000000     00000000                                                                                                                        000000000000000000
F0010000006495700003000090050144800042505000000000000000000201411120002001PLASTICOS JR ASOCIADOS SAS                        C000000000600000000000000000000000100010010000000000000000000000F0010000006495700320141112000101 00000000000000000000000000000000000000000000000000000000000000000000000000000000000000000000000000000000000000000N 00000000000NCONT   00    00000000000          00000000000000000000000000000000000000000000 000000000000000A000000000000000000000000000000000000000000000 000000000000000000000000000000000000000     00000000                                                                                                                        000000000000000000
F0010000006495700004000090050144800023658300000000000000000201411120002001PLASTICOS JR ASOCIADOS SAS                        C000000000027200000000000000000000100010010000000000000000000000F0010000006495700420141112000101 00000000000000000000000000000000000000000000000000000000000000000000000000000000000000000000000000000000000000000N 00000000000NCONT   00    00000000000          00000000000000000000000000000000000000000000 000000000000000A000000000000000000000000000000000000000000000 000000000000000000000000000000000000000     00000000                                                                                                                        000000000000000000
F0010000006495700005000090050144800013552100000000000000000201411120002001PLASTICOS JR ASOCIADOS SAS                        D000000000027200000000000000000000100010010000000000000000000000F0010000006495700520141112000101 00000000000000000000000000000000000000000000000000000000000000000000000000000000000000000000000000000000000000000N 00000000000NCONT   00    00000000000          00000000000000000000000000000000000000000000 000000000000000A000000000000000000000000000000000000000000000 000000000000000000000000000000000000000     00000000                                                                                                                        000000000000000000
F0010000006495800001000000746524800011050500000000000000000201411120002001GUILLERMO BURGOS                                  D000000009600000000000000000000000100010010000000000000000000000F0010000006495800120141112000101 00000000000000000000000000000000000000000000000000000000000000000000000000000000000000000000000000000000000000000N 00000000000NCONT   00    00000000000          00000000000000000000000000000000000000000000 000000000000000A000000000000000000000000000000000000000000000 000000000000000000000000000000000000000     00000000                                                                                                                        000000000000000000
F0010000006495800002000000746524800041450500000000000000000201411120002001GUILLERMO BURGOS                                  C000000008800000000000000000000000100010010000000000000000000000F0010000006495800220141112000101 00000000000000000000000000000000000000000000000000000000000000000000000000000000000000000000000000000000000000000N 00000000000NCONT   00    00000000000          00000000000000000000000000000000000000000000 000000000000000A000000000000000000000000000000000000000000000 000000000000000000000000000000000000000     00000000                                                                                                                        000000000000000000
F0010000006495800003000000746524800042505000000000000000000201411120002001GUILLERMO BURGOS                                  C000000000800000000000000000000000100010010000000000000000000000F0010000006495800320141112000101 00000000000000000000000000000000000000000000000000000000000000000000000000000000000000000000000000000000000000000N 00000000000NCONT   00    00000000000          00000000000000000000000000000000000000000000 000000000000000A000000000000000000000000000000000000000000000 000000000000000000000000000000000000000     00000000                                                                                                                        000000000000000000
F0010000006495800004000000746524800023658300000000000000000201411120002001GUILLERMO BURGOS                                  C000000000070400000000000000000000100010010000000000000000000000F0010000006495800420141112000101 00000000000000000000000000000000000000000000000000000000000000000000000000000000000000000000000000000000000000000N 00000000000NCONT   00    00000000000          00000000000000000000000000000000000000000000 000000000000000A000000000000000000000000000000000000000000000 000000000000000000000000000000000000000     00000000                                                                                                                        000000000000000000
F0010000006495800005000000746524800013552100000000000000000201411120002001GUILLERMO BURGOS                                  D000000000070400000000000000000000100010010000000000000000000000F0010000006495800520141112000101 00000000000000000000000000000000000000000000000000000000000000000000000000000000000000000000000000000000000000000N 00000000000NCONT   00    00000000000          00000000000000000000000000000000000000000000 000000000000000A000000000000000000000000000000000000000000000 000000000000000000000000000000000000000     00000000                                                                                                                        000000000000000000
F0010000006495900001000004175790100011050500000000000000000201411120002001ROSIRIS FERIA HOYOS  (COSM. SHILLER)              D000000001100000000000000000000000100010010000000000000000000000F0010000006495900120141112000101 00000000000000000000000000000000000000000000000000000000000000000000000000000000000000000000000000000000000000000N 00000000000NCONT   00    00000000000          00000000000000000000000000000000000000000000 000000000000000A000000000000000000000000000000000000000000000 000000000000000000000000000000000000000     00000000                                                                                                                        000000000000000000
F0010000006495900002000004175790100041450500000000000000000201411120002001ROSIRIS FERIA HOYOS  (COSM. SHILLER)              C000000001000000000000000000000000100010010000000000000000000000F0010000006495900220141112000101 00000000000000000000000000000000000000000000000000000000000000000000000000000000000000000000000000000000000000000N 00000000000NCONT   00    00000000000          00000000000000000000000000000000000000000000 000000000000000A000000000000000000000000000000000000000000000 000000000000000000000000000000000000000     00000000                                                                                                                        000000000000000000
F0010000006495900003000004175790100042505000000000000000000201411120002001ROSIRIS FERIA HOYOS  (COSM. SHILLER)              C000000000100000000000000000000000100010010000000000000000000000F0010000006495900320141112000101 00000000000000000000000000000000000000000000000000000000000000000000000000000000000000000000000000000000000000000N 00000000000NCONT   00    00000000000          00000000000000000000000000000000000000000000 000000000000000A000000000000000000000000000000000000000000000 000000000000000000000000000000000000000     00000000                                                                                                                        000000000000000000
F0010000006495900004000004175790100023658300000000000000000201411120002001ROSIRIS FERIA HOYOS  (COSM. SHILLER)              C000000000008000000000000000000000100010010000000000000000000000F0010000006495900420141112000101 00000000000000000000000000000000000000000000000000000000000000000000000000000000000000000000000000000000000000000N 00000000000NCONT   00    00000000000          00000000000000000000000000000000000000000000 000000000000000A000000000000000000000000000000000000000000000 000000000000000000000000000000000000000     00000000                                                                                                                        000000000000000000
F0010000006495900005000004175790100013552100000000000000000201411120002001ROSIRIS FERIA HOYOS  (COSM. SHILLER)              D000000000008000000000000000000000100010010000000000000000000000F0010000006495900520141112000101 00000000000000000000000000000000000000000000000000000000000000000000000000000000000000000000000000000000000000000N 00000000000NCONT   00    00000000000          00000000000000000000000000000000000000000000 000000000000000A000000000000000000000000000000000000000000000 000000000000000000000000000000000000000     00000000                                                                                                                        000000000000000000
F0010000006496000001000004175790100011050500000000000000000201411120002001ROSIRIS FERIA HOYOS  (COSM. SHILLER)              D000000000900000000000000000000000100010010000000000000000000000F0010000006496000120141112000101 00000000000000000000000000000000000000000000000000000000000000000000000000000000000000000000000000000000000000000N 00000000000NCONT   00    00000000000          00000000000000000000000000000000000000000000 000000000000000A000000000000000000000000000000000000000000000 000000000000000000000000000000000000000     00000000                                                                                                                        000000000000000000
F0010000006496000002000004175790100041450500000000000000000201411120002001ROSIRIS FERIA HOYOS  (COSM. SHILLER)              C000000000800000000000000000000000100010010000000000000000000000F0010000006496000220141112000101 00000000000000000000000000000000000000000000000000000000000000000000000000000000000000000000000000000000000000000N 00000000000NCONT   00    00000000000          00000000000000000000000000000000000000000000 000000000000000A000000000000000000000000000000000000000000000 000000000000000000000000000000000000000     00000000                                                                                                                        000000000000000000
F0010000006496000003000004175790100042505000000000000000000201411120002001ROSIRIS FERIA HOYOS  (COSM. SHILLER)              C000000000100000000000000000000000100010010000000000000000000000F0010000006496000320141112000101 00000000000000000000000000000000000000000000000000000000000000000000000000000000000000000000000000000000000000000N 00000000000NCONT   00    00000000000          00000000000000000000000000000000000000000000 000000000000000A000000000000000000000000000000000000000000000 000000000000000000000000000000000000000     00000000                                                                                                                        000000000000000000
F0010000006496000004000004175790100023658300000000000000000201411120002001ROSIRIS FERIA HOYOS  (COSM. SHILLER)              C000000000006400000000000000000000100010010000000000000000000000F0010000006496000420141112000101 00000000000000000000000000000000000000000000000000000000000000000000000000000000000000000000000000000000000000000N 00000000000NCONT   00    00000000000          00000000000000000000000000000000000000000000 000000000000000A000000000000000000000000000000000000000000000 000000000000000000000000000000000000000     00000000                                                                                                                        000000000000000000
F0010000006496000005000004175790100013552100000000000000000201411120002001ROSIRIS FERIA HOYOS  (COSM. SHILLER)              D000000000006400000000000000000000100010010000000000000000000000F0010000006496000520141112000101 00000000000000000000000000000000000000000000000000000000000000000000000000000000000000000000000000000000000000000N 00000000000NCONT   00    00000000000          00000000000000000000000000000000000000000000 000000000000000A000000000000000000000000000000000000000000000 000000000000000000000000000000000000000     00000000                                                                                                                        000000000000000000
F0010000006496100001000004175790100011050500000000000000000201411120002001ROSIRIS FERIA HOYOS  (COSM. SHILLER)              D000000000900000000000000000000000100010010000000000000000000000F0010000006496100120141112000101 00000000000000000000000000000000000000000000000000000000000000000000000000000000000000000000000000000000000000000N 00000000000NCONT   00    00000000000          00000000000000000000000000000000000000000000 000000000000000A000000000000000000000000000000000000000000000 000000000000000000000000000000000000000     00000000                                                                                                                        000000000000000000
F0010000006496100002000004175790100041450500000000000000000201411120002001ROSIRIS FERIA HOYOS  (COSM. SHILLER)              C000000000800000000000000000000000100010010000000000000000000000F0010000006496100220141112000101 00000000000000000000000000000000000000000000000000000000000000000000000000000000000000000000000000000000000000000N 00000000000NCONT   00    00000000000          00000000000000000000000000000000000000000000 000000000000000A000000000000000000000000000000000000000000000 000000000000000000000000000000000000000     00000000                                                                                                                        000000000000000000
F0010000006496100003000004175790100042505000000000000000000201411120002001ROSIRIS FERIA HOYOS  (COSM. SHILLER)              C000000000100000000000000000000000100010010000000000000000000000F0010000006496100320141112000101 00000000000000000000000000000000000000000000000000000000000000000000000000000000000000000000000000000000000000000N 00000000000NCONT   00    00000000000          00000000000000000000000000000000000000000000 000000000000000A000000000000000000000000000000000000000000000 000000000000000000000000000000000000000     00000000                                                                                                                        000000000000000000
F0010000006496100004000004175790100023658300000000000000000201411120002001ROSIRIS FERIA HOYOS  (COSM. SHILLER)              C000000000006400000000000000000000100010010000000000000000000000F0010000006496100420141112000101 00000000000000000000000000000000000000000000000000000000000000000000000000000000000000000000000000000000000000000N 00000000000NCONT   00    00000000000          00000000000000000000000000000000000000000000 000000000000000A000000000000000000000000000000000000000000000 000000000000000000000000000000000000000     00000000                                                                                                                        000000000000000000
F0010000006496100005000004175790100013552100000000000000000201411120002001ROSIRIS FERIA HOYOS  (COSM. SHILLER)              D000000000006400000000000000000000100010010000000000000000000000F0010000006496100520141112000101 00000000000000000000000000000000000000000000000000000000000000000000000000000000000000000000000000000000000000000N 00000000000NCONT   00    00000000000          00000000000000000000000000000000000000000000 000000000000000A000000000000000000000000000000000000000000000 000000000000000000000000000000000000000     00000000                                                                                                                        000000000000000000
F0010000006496200001000004175790100011050500000000000000000201411120002001ROSIRIS FERIA HOYOS  (COSM. SHILLER)              D000000000900000000000000000000000100010010000000000000000000000F0010000006496200120141112000101 00000000000000000000000000000000000000000000000000000000000000000000000000000000000000000000000000000000000000000N 00000000000NCONT   00    00000000000          00000000000000000000000000000000000000000000 000000000000000A000000000000000000000000000000000000000000000 000000000000000000000000000000000000000     00000000                                                                                                                        000000000000000000
F0010000006496200002000004175790100041450500000000000000000201411120002001ROSIRIS FERIA HOYOS  (COSM. SHILLER)              C000000000800000000000000000000000100010010000000000000000000000F0010000006496200220141112000101 00000000000000000000000000000000000000000000000000000000000000000000000000000000000000000000000000000000000000000N 00000000000NCONT   00    00000000000          00000000000000000000000000000000000000000000 000000000000000A000000000000000000000000000000000000000000000 000000000000000000000000000000000000000     00000000                                                                                                                        000000000000000000
F0010000006496200003000004175790100042505000000000000000000201411120002001ROSIRIS FERIA HOYOS  (COSM. SHILLER)              C000000000100000000000000000000000100010010000000000000000000000F0010000006496200320141112000101 00000000000000000000000000000000000000000000000000000000000000000000000000000000000000000000000000000000000000000N 00000000000NCONT   00    00000000000          00000000000000000000000000000000000000000000 000000000000000A000000000000000000000000000000000000000000000 000000000000000000000000000000000000000     00000000                                                                                                                        000000000000000000
F0010000006496200004000004175790100023658300000000000000000201411120002001ROSIRIS FERIA HOYOS  (COSM. SHILLER)              C000000000006400000000000000000000100010010000000000000000000000F0010000006496200420141112000101 00000000000000000000000000000000000000000000000000000000000000000000000000000000000000000000000000000000000000000N 00000000000NCONT   00    00000000000          00000000000000000000000000000000000000000000 000000000000000A000000000000000000000000000000000000000000000 000000000000000000000000000000000000000     00000000                                                                                                                        000000000000000000
F0010000006496200005000004175790100013552100000000000000000201411120002001ROSIRIS FERIA HOYOS  (COSM. SHILLER)              D000000000006400000000000000000000100010010000000000000000000000F0010000006496200520141112000101 00000000000000000000000000000000000000000000000000000000000000000000000000000000000000000000000000000000000000000N 00000000000NCONT   00    00000000000          00000000000000000000000000000000000000000000 000000000000000A000000000000000000000000000000000000000000000 000000000000000000000000000000000000000     00000000                                                                                                                        000000000000000000
F0010000006496300001000001022529300011050500000000000000000201411120002001ALBERTO ALVAREZ ISAZA                             D000000000936900000000000000000000100010010000000000000000000000F0010000006496300120141112000101 00000000000000000000000000000000000000000000000000000000000000000000000000000000000000000000000000000000000000000N 00000000000NCONT   00    00000000000          00000000000000000000000000000000000000000000 000000000000000A000000000000000000000000000000000000000000000 000000000000000000000000000000000000000     00000000                                                                                                                        000000000000000000
F0010000006496300002000001022529300041450500000000000000000201411120002001ALBERTO ALVAREZ ISAZA                             C000000000760000000000000000000000100010010000000000000000000000F0010000006496300220141112000101 00000000000000000000000000000000000000000000000000000000000000000000000000000000000000000000000000000000000000000N 00000000000NCONT   00    00000000000          00000000000000000000000000000000000000000000 000000000000000A000000000000000000000000000000000000000000000 000000000000000000000000000000000000000     00000000                                                                                                                        000000000000000000
F0010000006496300003000001022529300042505000000000000000000201411120002001ALBERTO ALVAREZ ISAZA                             C000000000176900000000000000000000100010010000000000000000000000F0010000006496300320141112000101 00000000000000000000000000000000000000000000000000000000000000000000000000000000000000000000000000000000000000000N 00000000000NCONT   00    00000000000          00000000000000000000000000000000000000000000 000000000000000A000000000000000000000000000000000000000000000 000000000000000000000000000000000000000     00000000                                                                                                                        000000000000000000
F0010000006496300004000001022529300023658300000000000000000201411120002001ALBERTO ALVAREZ ISAZA                             C000000000006100000000000000000000100010010000000000000000000000F0010000006496300420141112000101 00000000000000000000000000000000000000000000000000000000000000000000000000000000000000000000000000000000000000000N 00000000000NCONT   00    00000000000          00000000000000000000000000000000000000000000 000000000000000A000000000000000000000000000000000000000000000 000000000000000000000000000000000000000     00000000                                                                                                                        000000000000000000
F0010000006496300005000001022529300013552100000000000000000201411120002001ALBERTO ALVAREZ ISAZA                             D000000000006100000000000000000000100010010000000000000000000000F0010000006496300520141112000101 00000000000000000000000000000000000000000000000000000000000000000000000000000000000000000000000000000000000000000N 00000000000NCONT   00    00000000000          00000000000000000000000000000000000000000000 000000000000000A000000000000000000000000000000000000000000000 000000000000000000000000000000000000000     00000000                                                                                                                        000000000000000000
F0010000006496400001000000431178400011050500000000000000000201411120002001EFRAIN ALVAREZ                                    D000000003690000000000000000000000100010010000000000000000000000F0010000006496400120141112000101 00000000000000000000000000000000000000000000000000000000000000000000000000000000000000000000000000000000000000000N 00000000000NCONT   00    00000000000          00000000000000000000000000000000000000000000 000000000000000A000000000000000000000000000000000000000000000 000000000000000000000000000000000000000     00000000                                                                                                                        000000000000000000
F0010000006496400002000000431178400041450500000000000000000201411120002001EFRAIN ALVAREZ                                    C000000003440000000000000000000000100010010000000000000000000000F0010000006496400220141112000101 00000000000000000000000000000000000000000000000000000000000000000000000000000000000000000000000000000000000000000N 00000000000NCONT   00    00000000000          00000000000000000000000000000000000000000000 000000000000000A000000000000000000000000000000000000000000000 000000000000000000000000000000000000000     00000000                                                                                                                        000000000000000000
F0010000006496400003000000431178400042505000000000000000000201411120002001EFRAIN ALVAREZ                                    C000000000250000000000000000000000100010010000000000000000000000F0010000006496400320141112000101 00000000000000000000000000000000000000000000000000000000000000000000000000000000000000000000000000000000000000000N 00000000000NCONT   00    00000000000          00000000000000000000000000000000000000000000 000000000000000A000000000000000000000000000000000000000000000 000000000000000000000000000000000000000     00000000                                                                                                                        000000000000000000
F0010000006496400004000000431178400023658300000000000000000201411120002001EFRAIN ALVAREZ                                    C000000000027500000000000000000000100010010000000000000000000000F0010000006496400420141112000101 00000000000000000000000000000000000000000000000000000000000000000000000000000000000000000000000000000000000000000N 00000000000NCONT   00    00000000000          00000000000000000000000000000000000000000000 000000000000000A000000000000000000000000000000000000000000000 000000000000000000000000000000000000000     00000000                                                                                                                        000000000000000000
F0010000006496400005000000431178400013552100000000000000000201411120002001EFRAIN ALVAREZ                                    D000000000027500000000000000000000100010010000000000000000000000F0010000006496400520141112000101 00000000000000000000000000000000000000000000000000000000000000000000000000000000000000000000000000000000000000000N 00000000000NCONT   00    00000000000          00000000000000000000000000000000000000000000 000000000000000A000000000000000000000000000000000000000000000 000000000000000000000000000000000000000     00000000                                                                                                                        000000000000000000
F0010000006496500001000000431178400011050500000000000000000201411120002001EFRAIN ALVAREZ                                    D000000001920000000000000000000000100010010000000000000000000000F0010000006496500120141112000101 00000000000000000000000000000000000000000000000000000000000000000000000000000000000000000000000000000000000000000N 00000000000NCONT   00    00000000000          00000000000000000000000000000000000000000000 000000000000000A000000000000000000000000000000000000000000000 000000000000000000000000000000000000000     00000000                                                                                                                        000000000000000000
F0010000006496500002000000431178400041450500000000000000000201411120002001EFRAIN ALVAREZ                                    C000000001720000000000000000000000100010010000000000000000000000F0010000006496500220141112000101 00000000000000000000000000000000000000000000000000000000000000000000000000000000000000000000000000000000000000000N 00000000000NCONT   00    00000000000          00000000000000000000000000000000000000000000 000000000000000A000000000000000000000000000000000000000000000 000000000000000000000000000000000000000     00000000                                                                                                                        000000000000000000
F0010000006496500003000000431178400042505000000000000000000201411120002001EFRAIN ALVAREZ                                    C000000000200000000000000000000000100010010000000000000000000000F0010000006496500320141112000101 00000000000000000000000000000000000000000000000000000000000000000000000000000000000000000000000000000000000000000N 00000000000NCONT   00    00000000000          00000000000000000000000000000000000000000000 000000000000000A000000000000000000000000000000000000000000000 000000000000000000000000000000000000000     00000000                                                                                                                        000000000000000000
F0010000006496500004000000431178400023658300000000000000000201411120002001EFRAIN ALVAREZ                                    C000000000013800000000000000000000100010010000000000000000000000F0010000006496500420141112000101 00000000000000000000000000000000000000000000000000000000000000000000000000000000000000000000000000000000000000000N 00000000000NCONT   00    00000000000          00000000000000000000000000000000000000000000 000000000000000A000000000000000000000000000000000000000000000 000000000000000000000000000000000000000     00000000                                                                                                                        000000000000000000
F0010000006496500005000000431178400013552100000000000000000201411120002001EFRAIN ALVAREZ                                    D000000000013800000000000000000000100010010000000000000000000000F0010000006496500520141112000101 00000000000000000000000000000000000000000000000000000000000000000000000000000000000000000000000000000000000000000N 00000000000NCONT   00    00000000000          00000000000000000000000000000000000000000000 000000000000000A000000000000000000000000000000000000000000000 000000000000000000000000000000000000000     00000000                                                                                                                        000000000000000000
F0010000006496600001000001022529300011050500000000000000000201411120002001ALBERTO ALVAREZ ISAZA                             D000000002530000000000000000000000100010010000000000000000000000F0010000006496600120141112000101 00000000000000000000000000000000000000000000000000000000000000000000000000000000000000000000000000000000000000000N 00000000000NCONT   00    00000000000          00000000000000000000000000000000000000000000 000000000000000A000000000000000000000000000000000000000000000 000000000000000000000000000000000000000     00000000                                                                                                                        000000000000000000
F0010000006496600002000001022529300041450500000000000000000201411120002001ALBERTO ALVAREZ ISAZA                             C000000002380000000000000000000000100010010000000000000000000000F0010000006496600220141112000101 00000000000000000000000000000000000000000000000000000000000000000000000000000000000000000000000000000000000000000N 00000000000NCONT   00    00000000000          00000000000000000000000000000000000000000000 000000000000000A000000000000000000000000000000000000000000000 000000000000000000000000000000000000000     00000000                                                                                                                        000000000000000000
F0010000006496600003000001022529300042505000000000000000000201411120002001ALBERTO ALVAREZ ISAZA                             C000000000150000000000000000000000100010010000000000000000000000F0010000006496600320141112000101 00000000000000000000000000000000000000000000000000000000000000000000000000000000000000000000000000000000000000000N 00000000000NCONT   00    00000000000          00000000000000000000000000000000000000000000 000000000000000A000000000000000000000000000000000000000000000 000000000000000000000000000000000000000     00000000                                                                                                                        000000000000000000
F0010000006496600004000001022529300023658300000000000000000201411120002001ALBERTO ALVAREZ ISAZA                             C000000000019000000000000000000000100010010000000000000000000000F0010000006496600420141112000101 00000000000000000000000000000000000000000000000000000000000000000000000000000000000000000000000000000000000000000N 00000000000NCONT   00    00000000000          00000000000000000000000000000000000000000000 000000000000000A000000000000000000000000000000000000000000000 000000000000000000000000000000000000000     00000000                                                                                                                        000000000000000000
F0010000006496600005000001022529300013552100000000000000000201411120002001ALBERTO ALVAREZ ISAZA                             D000000000019000000000000000000000100010010000000000000000000000F0010000006496600520141112000101 00000000000000000000000000000000000000000000000000000000000000000000000000000000000000000000000000000000000000000N 00000000000NCONT   00    00000000000          00000000000000000000000000000000000000000000 000000000000000A000000000000000000000000000000000000000000000 000000000000000000000000000000000000000     00000000                                                                                                                        000000000000000000
F0010000006496700001000090050144800011050500000000000000000201411120002001PLASTICOS JR ASOCIADOS SAS                        D000000005200000000000000000000000100010010000000000000000000000F0010000006496700120141112000101 00000000000000000000000000000000000000000000000000000000000000000000000000000000000000000000000000000000000000000N 00000000000NCONT   00    00000000000          00000000000000000000000000000000000000000000 000000000000000A000000000000000000000000000000000000000000000 000000000000000000000000000000000000000     00000000                                                                                                                        000000000000000000
F0010000006496700002000090050144800041450500000000000000000201411120002001PLASTICOS JR ASOCIADOS SAS                        C000000004300000000000000000000000100010010000000000000000000000F0010000006496700220141112000101 00000000000000000000000000000000000000000000000000000000000000000000000000000000000000000000000000000000000000000N 00000000000NCONT   00    00000000000          00000000000000000000000000000000000000000000 000000000000000A000000000000000000000000000000000000000000000 000000000000000000000000000000000000000     00000000                                                                                                                        000000000000000000
F0010000006496700003000090050144800042505000000000000000000201411120002001PLASTICOS JR ASOCIADOS SAS                        C000000000900000000000000000000000100010010000000000000000000000F0010000006496700320141112000101 00000000000000000000000000000000000000000000000000000000000000000000000000000000000000000000000000000000000000000N 00000000000NCONT   00    00000000000          00000000000000000000000000000000000000000000 000000000000000A000000000000000000000000000000000000000000000 000000000000000000000000000000000000000     00000000                                                                                                                        000000000000000000
F0010000006496700004000090050144800023658300000000000000000201411120002001PLASTICOS JR ASOCIADOS SAS                        C000000000034400000000000000000000100010010000000000000000000000F0010000006496700420141112000101 00000000000000000000000000000000000000000000000000000000000000000000000000000000000000000000000000000000000000000N 00000000000NCONT   00    00000000000          00000000000000000000000000000000000000000000 000000000000000A000000000000000000000000000000000000000000000 000000000000000000000000000000000000000     00000000                                                                                                                        000000000000000000
F0010000006496700005000090050144800013552100000000000000000201411120002001PLASTICOS JR ASOCIADOS SAS                        D000000000034400000000000000000000100010010000000000000000000000F0010000006496700520141112000101 00000000000000000000000000000000000000000000000000000000000000000000000000000000000000000000000000000000000000000N 00000000000NCONT   00    00000000000          00000000000000000000000000000000000000000000 000000000000000A000000000000000000000000000000000000000000000 000000000000000000000000000000000000000     00000000                                                                                                                        000000000000000000
F0010000006496800001000080001063400011050500000000000000000201411120002001PRODUCTOS JULIAO SAS                              D000000005800000000000000000000000100010010000000000000000000000F0010000006496800120141112000101 00000000000000000000000000000000000000000000000000000000000000000000000000000000000000000000000000000000000000000N 00000000000NCONT   00    00000000000          00000000000000000000000000000000000000000000 000000000000000A000000000000000000000000000000000000000000000 000000000000000000000000000000000000000     00000000                                                                                                                        000000000000000000
F0010000006496800002000080001063400041450500000000000000000201411120002001PRODUCTOS JULIAO SAS                              C000000005600000000000000000000000100010010000000000000000000000F0010000006496800220141112000101 00000000000000000000000000000000000000000000000000000000000000000000000000000000000000000000000000000000000000000N 00000000000NCONT   00    00000000000          00000000000000000000000000000000000000000000 000000000000000A000000000000000000000000000000000000000000000 000000000000000000000000000000000000000     00000000                                                                                                                        000000000000000000
F0010000006496800003000080001063400042505000000000000000000201411120002001PRODUCTOS JULIAO SAS                              C000000000200000000000000000000000100010010000000000000000000000F0010000006496800320141112000101 00000000000000000000000000000000000000000000000000000000000000000000000000000000000000000000000000000000000000000N 00000000000NCONT   00    00000000000          00000000000000000000000000000000000000000000 000000000000000A000000000000000000000000000000000000000000000 000000000000000000000000000000000000000     00000000                                                                                                                        000000000000000000
F0010000006496800004000080001063400023658300000000000000000201411120002001PRODUCTOS JULIAO SAS                              C000000000044800000000000000000000100010010000000000000000000000F0010000006496800420141112000101 00000000000000000000000000000000000000000000000000000000000000000000000000000000000000000000000000000000000000000N 00000000000NCONT   00    00000000000          00000000000000000000000000000000000000000000 000000000000000A000000000000000000000000000000000000000000000 000000000000000000000000000000000000000     00000000                                                                                                                        000000000000000000
F0010000006496800005000080001063400013552100000000000000000201411120002001PRODUCTOS JULIAO SAS                              D000000000044800000000000000000000100010010000000000000000000000F0010000006496800520141112000101 00000000000000000000000000000000000000000000000000000000000000000000000000000000000000000000000000000000000000000N 00000000000NCONT   00    00000000000          00000000000000000000000000000000000000000000 000000000000000A000000000000000000000000000000000000000000000 000000000000000000000000000000000000000     00000000                                                                                                                        000000000000000000
F0010000006496900001000089011069100011050500000000000000000201411120002001LA CASA DE LAS ALFOMBRAS LTDA                     D000000016000000000000000000000000100010010000000000000000000000F0010000006496900120141112000101 00000000000000000000000000000000000000000000000000000000000000000000000000000000000000000000000000000000000000000N 00000000000NCONT   00    00000000000          00000000000000000000000000000000000000000000 000000000000000A000000000000000000000000000000000000000000000 000000000000000000000000000000000000000     00000000                                                                                                                        000000000000000000
F0010000006496900002000089011069100041450500000000000000000201411120002001LA CASA DE LAS ALFOMBRAS LTDA                     C000000012000000000000000000000000100010010000000000000000000000F0010000006496900220141112000101 00000000000000000000000000000000000000000000000000000000000000000000000000000000000000000000000000000000000000000N 00000000000NCONT   00    00000000000          00000000000000000000000000000000000000000000 000000000000000A000000000000000000000000000000000000000000000 000000000000000000000000000000000000000     00000000                                                                                                                        000000000000000000
F0010000006496900003000089011069100042505000000000000000000201411120002001LA CASA DE LAS ALFOMBRAS LTDA                     C000000004000000000000000000000000100010010000000000000000000000F0010000006496900320141112000101 00000000000000000000000000000000000000000000000000000000000000000000000000000000000000000000000000000000000000000N 00000000000NCONT   00    00000000000          00000000000000000000000000000000000000000000 000000000000000A000000000000000000000000000000000000000000000 000000000000000000000000000000000000000     00000000                                                                                                                        000000000000000000
F0010000006496900004000089011069100023658300000000000000000201411120002001LA CASA DE LAS ALFOMBRAS LTDA                     C000000000096000000000000000000000100010010000000000000000000000F0010000006496900420141112000101 00000000000000000000000000000000000000000000000000000000000000000000000000000000000000000000000000000000000000000N 00000000000NCONT   00    00000000000          00000000000000000000000000000000000000000000 000000000000000A000000000000000000000000000000000000000000000 000000000000000000000000000000000000000     00000000                                                                                                                        000000000000000000
F0010000006496900005000089011069100013552100000000000000000201411120002001LA CASA DE LAS ALFOMBRAS LTDA                     D000000000096000000000000000000000100010010000000000000000000000F0010000006496900520141112000101 00000000000000000000000000000000000000000000000000000000000000000000000000000000000000000000000000000000000000000N 00000000000NCONT   00    00000000000          00000000000000000000000000000000000000000000 000000000000000A000000000000000000000000000000000000000000000 000000000000000000000000000000000000000     00000000                                                                                                                        000000000000000000
F0010000006497000001000080014190300011050500000000000000000201411120002001QUIMINSA LTDA                                     D000000001500000000000000000000000100010010000000000000000000000F0010000006497000120141112000101 00000000000000000000000000000000000000000000000000000000000000000000000000000000000000000000000000000000000000000N 00000000000NCONT   00    00000000000          00000000000000000000000000000000000000000000 000000000000000A000000000000000000000000000000000000000000000 000000000000000000000000000000000000000     00000000                                                                                                                        000000000000000000
F0010000006497000002000080014190300041450500000000000000000201411120002001QUIMINSA LTDA                                     C000000001200000000000000000000000100010010000000000000000000000F0010000006497000220141112000101 00000000000000000000000000000000000000000000000000000000000000000000000000000000000000000000000000000000000000000N 00000000000NCONT   00    00000000000          00000000000000000000000000000000000000000000 000000000000000A000000000000000000000000000000000000000000000 000000000000000000000000000000000000000     00000000                                                                                                                        000000000000000000
F0010000006497000003000080014190300042505000000000000000000201411120002001QUIMINSA LTDA                                     C000000000300000000000000000000000100010010000000000000000000000F0010000006497000320141112000101 00000000000000000000000000000000000000000000000000000000000000000000000000000000000000000000000000000000000000000N 00000000000NCONT   00    00000000000          00000000000000000000000000000000000000000000 000000000000000A000000000000000000000000000000000000000000000 000000000000000000000000000000000000000     00000000                                                                                                                        000000000000000000
F0010000006497000004000080014190300023658300000000000000000201411120002001QUIMINSA LTDA                                     C000000000009600000000000000000000100010010000000000000000000000F0010000006497000420141112000101 00000000000000000000000000000000000000000000000000000000000000000000000000000000000000000000000000000000000000000N 00000000000NCONT   00    00000000000          00000000000000000000000000000000000000000000 000000000000000A000000000000000000000000000000000000000000000 000000000000000000000000000000000000000     00000000                                                                                                                        000000000000000000
F0010000006497000005000080014190300013552100000000000000000201411120002001QUIMINSA LTDA                                     D000000000009600000000000000000000100010010000000000000000000000F0010000006497000520141112000101 00000000000000000000000000000000000000000000000000000000000000000000000000000000000000000000000000000000000000000N 00000000000NCONT   00    00000000000          00000000000000000000000000000000000000000000 000000000000000A000000000000000000000000000000000000000000000 000000000000000000000000000000000000000     00000000                                                                                                                        000000000000000000
F0010000006497100001000005204371400011050500000000000000000201411120002001MARITZA IMPORTS                                   D000000004700000000000000000000000100010010000000000000000000000F0010000006497100120141112000101 00000000000000000000000000000000000000000000000000000000000000000000000000000000000000000000000000000000000000000N 00000000000NCONT   00    00000000000          00000000000000000000000000000000000000000000 000000000000000A000000000000000000000000000000000000000000000 000000000000000000000000000000000000000     00000000                                                                                                                        000000000000000000
F0010000006497100002000005204371400041450500000000000000000201411120002001MARITZA IMPORTS                                   C000000004200000000000000000000000100010010000000000000000000000F0010000006497100220141112000101 00000000000000000000000000000000000000000000000000000000000000000000000000000000000000000000000000000000000000000N 00000000000NCONT   00    00000000000          00000000000000000000000000000000000000000000 000000000000000A000000000000000000000000000000000000000000000 000000000000000000000000000000000000000     00000000                                                                                                                        000000000000000000
