F0010000006743200001000090038852800013050500000000000000000201501270002001EL COMERCIO ELECTRICO DE LA CO                    D000000047210000000000000000000000100010010000000000000000000000F0010000006743200120150127000101 00000000000000000000000000000000000000000000000000000000000000000000000000000000000000000000000000000000000000000N 00000000000NCONT   00    00000000000          00000000000000000000000000000000000000000000 000000000000000A000000000000000000000000000000000000000000000 000000000000000000000000000000000000000     00000000                                                                                                                        000000000000000000
F0010000006743200002000090038852800041450500000000000000000201501270002001EL COMERCIO ELECTRICO DE LA CO                    C000000031980000000000000000000000100010010000000000000000000000F0010000006743200220150127000101 00000000000000000000000000000000000000000000000000000000000000000000000000000000000000000000000000000000000000000N 00000000000NCONT   00    00000000000          00000000000000000000000000000000000000000000 000000000000000A000000000000000000000000000000000000000000000 000000000000000000000000000000000000000     00000000                                                                                                                        000000000000000000
F0010000006743200003000090038852800042505000000000000000000201501270002001EL COMERCIO ELECTRICO DE LA CO                    C000000015230000000000000000000000100010010000000000000000000000F0010000006743200320150127000101 00000000000000000000000000000000000000000000000000000000000000000000000000000000000000000000000000000000000000000N 00000000000NCONT   00    00000000000          00000000000000000000000000000000000000000000 000000000000000A000000000000000000000000000000000000000000000 000000000000000000000000000000000000000     00000000                                                                                                                        000000000000000000
F0010000006743200004000090038852800023658300000000000000000201501270002001EL COMERCIO ELECTRICO DE LA CO                    C000000000255800000000000000000000100010010000000000000000000000F0010000006743200420150127000101 00000000000000000000000000000000000000000000000000000000000000000000000000000000000000000000000000000000000000000N 00000000000NCONT   00    00000000000          00000000000000000000000000000000000000000000 000000000000000A000000000000000000000000000000000000000000000 000000000000000000000000000000000000000     00000000                                                                                                                        000000000000000000
F0010000006743200005000090038852800013552100000000000000000201501270002001EL COMERCIO ELECTRICO DE LA CO                    D000000000255800000000000000000000100010010000000000000000000000F0010000006743200520150127000101 00000000000000000000000000000000000000000000000000000000000000000000000000000000000000000000000000000000000000000N 00000000000NCONT   00    00000000000          00000000000000000000000000000000000000000000 000000000000000A000000000000000000000000000000000000000000000 000000000000000000000000000000000000000     00000000                                                                                                                        000000000000000000
F0010000006743300001000080201127600013050500000000000000000201501270002001ELECTRICOS DEL RUIZ S.A.S.                        D000000073570000000000000000000000100010010000000000000000000000F0010000006743300120150127000101 00000000000000000000000000000000000000000000000000000000000000000000000000000000000000000000000000000000000000000N 00000000000NCONT   00    00000000000          00000000000000000000000000000000000000000000 000000000000000A000000000000000000000000000000000000000000000 000000000000000000000000000000000000000     00000000                                                                                                                        000000000000000000
F0010000006743300002000080201127600041450500000000000000000201501270002001ELECTRICOS DEL RUIZ S.A.S.                        C000000057140000000000000000000000100010010000000000000000000000F0010000006743300220150127000101 00000000000000000000000000000000000000000000000000000000000000000000000000000000000000000000000000000000000000000N 00000000000NCONT   00    00000000000          00000000000000000000000000000000000000000000 000000000000000A000000000000000000000000000000000000000000000 000000000000000000000000000000000000000     00000000                                                                                                                        000000000000000000
F0010000006743300003000080201127600042505000000000000000000201501270002001ELECTRICOS DEL RUIZ S.A.S.                        C000000016430000000000000000000000100010010000000000000000000000F0010000006743300320150127000101 00000000000000000000000000000000000000000000000000000000000000000000000000000000000000000000000000000000000000000N 00000000000NCONT   00    00000000000          00000000000000000000000000000000000000000000 000000000000000A000000000000000000000000000000000000000000000 000000000000000000000000000000000000000     00000000                                                                                                                        000000000000000000
F0010000006743300004000080201127600023658300000000000000000201501270002001ELECTRICOS DEL RUIZ S.A.S.                        C000000000457100000000000000000000100010010000000000000000000000F0010000006743300420150127000101 00000000000000000000000000000000000000000000000000000000000000000000000000000000000000000000000000000000000000000N 00000000000NCONT   00    00000000000          00000000000000000000000000000000000000000000 000000000000000A000000000000000000000000000000000000000000000 000000000000000000000000000000000000000     00000000                                                                                                                        000000000000000000
F0010000006743300005000080201127600013552100000000000000000201501270002001ELECTRICOS DEL RUIZ S.A.S.                        D000000000457100000000000000000000100010010000000000000000000000F0010000006743300520150127000101 00000000000000000000000000000000000000000000000000000000000000000000000000000000000000000000000000000000000000000N 00000000000NCONT   00    00000000000          00000000000000000000000000000000000000000000 000000000000000A000000000000000000000000000000000000000000000 000000000000000000000000000000000000000     00000000                                                                                                                        000000000000000000
F0010000006743400001000001022529300013050500000000000000000201501270002001ALBERTO ALVAREZ ISAZA                             D000000032605000000000000000000000100010010000000000000000000000F0010000006743400120150127000101 00000000000000000000000000000000000000000000000000000000000000000000000000000000000000000000000000000000000000000N 00000000000NCONT   00    00000000000          00000000000000000000000000000000000000000000 000000000000000A000000000000000000000000000000000000000000000 000000000000000000000000000000000000000     00000000                                                                                                                        000000000000000000
F0010000006743400002000001022529300041450500000000000000000201501270002001ALBERTO ALVAREZ ISAZA                             C000000029740000000000000000000000100010010000000000000000000000F0010000006743400220150127000101 00000000000000000000000000000000000000000000000000000000000000000000000000000000000000000000000000000000000000000N 00000000000NCONT   00    00000000000          00000000000000000000000000000000000000000000 000000000000000A000000000000000000000000000000000000000000000 000000000000000000000000000000000000000     00000000                                                                                                                        000000000000000000
F0010000006743400003000001022529300042505000000000000000000201501270002001ALBERTO ALVAREZ ISAZA                             C000000002865000000000000000000000100010010000000000000000000000F0010000006743400320150127000101 00000000000000000000000000000000000000000000000000000000000000000000000000000000000000000000000000000000000000000N 00000000000NCONT   00    00000000000          00000000000000000000000000000000000000000000 000000000000000A000000000000000000000000000000000000000000000 000000000000000000000000000000000000000     00000000                                                                                                                        000000000000000000
F0010000006743400004000001022529300023658300000000000000000201501270002001ALBERTO ALVAREZ ISAZA                             C000000000237900000000000000000000100010010000000000000000000000F0010000006743400420150127000101 00000000000000000000000000000000000000000000000000000000000000000000000000000000000000000000000000000000000000000N 00000000000NCONT   00    00000000000          00000000000000000000000000000000000000000000 000000000000000A000000000000000000000000000000000000000000000 000000000000000000000000000000000000000     00000000                                                                                                                        000000000000000000
F0010000006743400005000001022529300013552100000000000000000201501270002001ALBERTO ALVAREZ ISAZA                             D000000000237900000000000000000000100010010000000000000000000000F0010000006743400520150127000101 00000000000000000000000000000000000000000000000000000000000000000000000000000000000000000000000000000000000000000N 00000000000NCONT   00    00000000000          00000000000000000000000000000000000000000000 000000000000000A000000000000000000000000000000000000000000000 000000000000000000000000000000000000000     00000000                                                                                                                        000000000000000000
F0010000006743500001000000870907300013050500000000000000000201501270002001SURTIDOR FERRETERO                                D000000070914100000000000000000000100010010000000000000000000000F0010000006743500120150127000101 00000000000000000000000000000000000000000000000000000000000000000000000000000000000000000000000000000000000000000N 00000000000NCONT   00    00000000000          00000000000000000000000000000000000000000000 000000000000000A000000000000000000000000000000000000000000000 000000000000000000000000000000000000000     00000000                                                                                                                        000000000000000000
F0010000006743500002000000870907300041450500000000000000000201501270002001SURTIDOR FERRETERO                                C000000048360000000000000000000000100010010000000000000000000000F0010000006743500220150127000101 00000000000000000000000000000000000000000000000000000000000000000000000000000000000000000000000000000000000000000N 00000000000NCONT   00    00000000000          00000000000000000000000000000000000000000000 000000000000000A000000000000000000000000000000000000000000000 000000000000000000000000000000000000000     00000000                                                                                                                        000000000000000000
F0010000006743500003000000870907300041750100000000000000000201501270002001SURTIDOR FERRETERO                                D000000004836000000000000000000000100010010000000000000000000000F0010000006743500320150127000101 00000000000000000000000000000000000000000000000000000000000000000000000000000000000000000000000000000000000000000N 00000000000NCONT   00    00000000000          00000000000000000000000000000000000000000000 000000000000000A000000000000000000000000000000000000000000000 000000000000000000000000000000000000000     00000000                                                                                                                        000000000000000000
F0010000006743500004000000870907300042505000000000000000000201501270002001SURTIDOR FERRETERO                                C000000027390100000000000000000000100010010000000000000000000000F0010000006743500420150127000101 00000000000000000000000000000000000000000000000000000000000000000000000000000000000000000000000000000000000000000N 00000000000NCONT   00    00000000000          00000000000000000000000000000000000000000000 000000000000000A000000000000000000000000000000000000000000000 000000000000000000000000000000000000000     00000000                                                                                                                        000000000000000000
F0010000006743500005000000870907300023658300000000000000000201501270002001SURTIDOR FERRETERO                                C000000000386900000000000000000000100010010000000000000000000000F0010000006743500520150127000101 00000000000000000000000000000000000000000000000000000000000000000000000000000000000000000000000000000000000000000N 00000000000NCONT   00    00000000000          00000000000000000000000000000000000000000000 000000000000000A000000000000000000000000000000000000000000000 000000000000000000000000000000000000000     00000000                                                                                                                        000000000000000000
F0010000006743500006000000870907300013552100000000000000000201501270002001SURTIDOR FERRETERO                                D000000000386900000000000000000000100010010000000000000000000000F0010000006743500620150127000101 00000000000000000000000000000000000000000000000000000000000000000000000000000000000000000000000000000000000000000N 00000000000NCONT   00    00000000000          00000000000000000000000000000000000000000000 000000000000000A000000000000000000000000000000000000000000000 000000000000000000000000000000000000000     00000000                                                                                                                        000000000000000000
F0010000006743600001000000431178400013050500000000000000000201501270002001EFRAIN ALVAREZ                                    D000000017675000000000000000000000100010010000000000000000000000F0010000006743600120150127000101 00000000000000000000000000000000000000000000000000000000000000000000000000000000000000000000000000000000000000000N 00000000000NCONT   00    00000000000          00000000000000000000000000000000000000000000 000000000000000A000000000000000000000000000000000000000000000 000000000000000000000000000000000000000     00000000                                                                                                                        000000000000000000
F0010000006743600002000000431178400041450500000000000000000201501270002001EFRAIN ALVAREZ                                    C000000016100000000000000000000000100010010000000000000000000000F0010000006743600220150127000101 00000000000000000000000000000000000000000000000000000000000000000000000000000000000000000000000000000000000000000N 00000000000NCONT   00    00000000000          00000000000000000000000000000000000000000000 000000000000000A000000000000000000000000000000000000000000000 000000000000000000000000000000000000000     00000000                                                                                                                        000000000000000000
F0010000006743600003000000431178400042505000000000000000000201501270002001EFRAIN ALVAREZ                                    C000000001575000000000000000000000100010010000000000000000000000F0010000006743600320150127000101 00000000000000000000000000000000000000000000000000000000000000000000000000000000000000000000000000000000000000000N 00000000000NCONT   00    00000000000          00000000000000000000000000000000000000000000 000000000000000A000000000000000000000000000000000000000000000 000000000000000000000000000000000000000     00000000                                                                                                                        000000000000000000
F0010000006743600004000000431178400023658300000000000000000201501270002001EFRAIN ALVAREZ                                    C000000000128800000000000000000000100010010000000000000000000000F0010000006743600420150127000101 00000000000000000000000000000000000000000000000000000000000000000000000000000000000000000000000000000000000000000N 00000000000NCONT   00    00000000000          00000000000000000000000000000000000000000000 000000000000000A000000000000000000000000000000000000000000000 000000000000000000000000000000000000000     00000000                                                                                                                        000000000000000000
F0010000006743600005000000431178400013552100000000000000000201501270002001EFRAIN ALVAREZ                                    D000000000128800000000000000000000100010010000000000000000000000F0010000006743600520150127000101 00000000000000000000000000000000000000000000000000000000000000000000000000000000000000000000000000000000000000000N 00000000000NCONT   00    00000000000          00000000000000000000000000000000000000000000 000000000000000A000000000000000000000000000000000000000000000 000000000000000000000000000000000000000     00000000                                                                                                                        000000000000000000
F0010000006743700001000004175790100013050500000000000000000201501270002001ROSIRIS FERIA HOYOS  (COSM. SHILLER)              D000000001900000000000000000000000100010010000000000000000000000F0010000006743700120150127000101 00000000000000000000000000000000000000000000000000000000000000000000000000000000000000000000000000000000000000000N 00000000000NCONT   00    00000000000          00000000000000000000000000000000000000000000 000000000000000A000000000000000000000000000000000000000000000 000000000000000000000000000000000000000     00000000                                                                                                                        000000000000000000
F0010000006743700002000004175790100041450500000000000000000201501270002001ROSIRIS FERIA HOYOS  (COSM. SHILLER)              C000000001500000000000000000000000100010010000000000000000000000F0010000006743700220150127000101 00000000000000000000000000000000000000000000000000000000000000000000000000000000000000000000000000000000000000000N 00000000000NCONT   00    00000000000          00000000000000000000000000000000000000000000 000000000000000A000000000000000000000000000000000000000000000 000000000000000000000000000000000000000     00000000                                                                                                                        000000000000000000
F0010000006743700003000004175790100042505000000000000000000201501270002001ROSIRIS FERIA HOYOS  (COSM. SHILLER)              C000000000400000000000000000000000100010010000000000000000000000F0010000006743700320150127000101 00000000000000000000000000000000000000000000000000000000000000000000000000000000000000000000000000000000000000000N 00000000000NCONT   00    00000000000          00000000000000000000000000000000000000000000 000000000000000A000000000000000000000000000000000000000000000 000000000000000000000000000000000000000     00000000                                                                                                                        000000000000000000
F0010000006743700004000004175790100023658300000000000000000201501270002001ROSIRIS FERIA HOYOS  (COSM. SHILLER)              C000000000012000000000000000000000100010010000000000000000000000F0010000006743700420150127000101 00000000000000000000000000000000000000000000000000000000000000000000000000000000000000000000000000000000000000000N 00000000000NCONT   00    00000000000          00000000000000000000000000000000000000000000 000000000000000A000000000000000000000000000000000000000000000 000000000000000000000000000000000000000     00000000                                                                                                                        000000000000000000
F0010000006743700005000004175790100013552100000000000000000201501270002001ROSIRIS FERIA HOYOS  (COSM. SHILLER)              D000000000012000000000000000000000100010010000000000000000000000F0010000006743700520150127000101 00000000000000000000000000000000000000000000000000000000000000000000000000000000000000000000000000000000000000000N 00000000000NCONT   00    00000000000          00000000000000000000000000000000000000000000 000000000000000A000000000000000000000000000000000000000000000 000000000000000000000000000000000000000     00000000                                                                                                                        000000000000000000
F0010000006743800001000080200563400013050500000000000000000201501270002001TECNOSEMILLAS LTDA                                D000000004955000000000000000000000100010010000000000000000000000F0010000006743800120150127000101 00000000000000000000000000000000000000000000000000000000000000000000000000000000000000000000000000000000000000000N 00000000000NCONT   00    00000000000          00000000000000000000000000000000000000000000 000000000000000A000000000000000000000000000000000000000000000 000000000000000000000000000000000000000     00000000                                                                                                                        000000000000000000
F0010000006743800002000080200563400041450500000000000000000201501270002001TECNOSEMILLAS LTDA                                C000000003000000000000000000000000100010010000000000000000000000F0010000006743800220150127000101 00000000000000000000000000000000000000000000000000000000000000000000000000000000000000000000000000000000000000000N 00000000000NCONT   00    00000000000          00000000000000000000000000000000000000000000 000000000000000A000000000000000000000000000000000000000000000 000000000000000000000000000000000000000     00000000                                                                                                                        000000000000000000
F0010000006743800003000080200563400042505000000000000000000201501270002001TECNOSEMILLAS LTDA                                C000000001955000000000000000000000100010010000000000000000000000F0010000006743800320150127000101 00000000000000000000000000000000000000000000000000000000000000000000000000000000000000000000000000000000000000000N 00000000000NCONT   00    00000000000          00000000000000000000000000000000000000000000 000000000000000A000000000000000000000000000000000000000000000 000000000000000000000000000000000000000     00000000                                                                                                                        000000000000000000
F0010000006743800004000080200563400023658300000000000000000201501270002001TECNOSEMILLAS LTDA                                C000000000024000000000000000000000100010010000000000000000000000F0010000006743800420150127000101 00000000000000000000000000000000000000000000000000000000000000000000000000000000000000000000000000000000000000000N 00000000000NCONT   00    00000000000          00000000000000000000000000000000000000000000 000000000000000A000000000000000000000000000000000000000000000 000000000000000000000000000000000000000     00000000                                                                                                                        000000000000000000
F0010000006743800005000080200563400013552100000000000000000201501270002001TECNOSEMILLAS LTDA                                D000000000024000000000000000000000100010010000000000000000000000F0010000006743800520150127000101 00000000000000000000000000000000000000000000000000000000000000000000000000000000000000000000000000000000000000000N 00000000000NCONT   00    00000000000          00000000000000000000000000000000000000000000 000000000000000A000000000000000000000000000000000000000000000 000000000000000000000000000000000000000     00000000                                                                                                                        000000000000000000
F0010000006743900001000007233680300013050500000000000000000201501270002001DISTRIBUIDORA CUÑOS Y EVAS RAMBAL                D000000003780000000000000000000000100010010000000000000000000000F0010000006743900120150127000101 00000000000000000000000000000000000000000000000000000000000000000000000000000000000000000000000000000000000000000N 00000000000NCONT   00    00000000000          00000000000000000000000000000000000000000000 000000000000000A000000000000000000000000000000000000000000000 000000000000000000000000000000000000000     00000000                                                                                                                        000000000000000000
F0010000006743900002000007233680300041450500000000000000000201501270002001DISTRIBUIDORA CUÑOS Y EVAS RAMBAL                C000000003600000000000000000000000100010010000000000000000000000F0010000006743900220150127000101 00000000000000000000000000000000000000000000000000000000000000000000000000000000000000000000000000000000000000000N 00000000000NCONT   00    00000000000          00000000000000000000000000000000000000000000 000000000000000A000000000000000000000000000000000000000000000 000000000000000000000000000000000000000     00000000                                                                                                                        000000000000000000
F0010000006743900003000007233680300042505000000000000000000201501270002001DISTRIBUIDORA CUÑOS Y EVAS RAMBAL                C000000000180000000000000000000000100010010000000000000000000000F0010000006743900320150127000101 00000000000000000000000000000000000000000000000000000000000000000000000000000000000000000000000000000000000000000N 00000000000NCONT   00    00000000000          00000000000000000000000000000000000000000000 000000000000000A000000000000000000000000000000000000000000000 000000000000000000000000000000000000000     00000000                                                                                                                        000000000000000000
F0010000006743900004000007233680300023658300000000000000000201501270002001DISTRIBUIDORA CUÑOS Y EVAS RAMBAL                C000000000028800000000000000000000100010010000000000000000000000F0010000006743900420150127000101 00000000000000000000000000000000000000000000000000000000000000000000000000000000000000000000000000000000000000000N 00000000000NCONT   00    00000000000          00000000000000000000000000000000000000000000 000000000000000A000000000000000000000000000000000000000000000 000000000000000000000000000000000000000     00000000                                                                                                                        000000000000000000
F0010000006743900005000007233680300013552100000000000000000201501270002001DISTRIBUIDORA CUÑOS Y EVAS RAMBAL                D000000000028800000000000000000000100010010000000000000000000000F0010000006743900520150127000101 00000000000000000000000000000000000000000000000000000000000000000000000000000000000000000000000000000000000000000N 00000000000NCONT   00    00000000000          00000000000000000000000000000000000000000000 000000000000000A000000000000000000000000000000000000000000000 000000000000000000000000000000000000000     00000000                                                                                                                        000000000000000000
F0010000006744000001000080000083500013050500000000000000000201501270002001DISTRIB IND ALIPAR Y CIA LTDA                     D000000008500000000000000000000000100010010000000000000000000000F0010000006744000120150127000101 00000000000000000000000000000000000000000000000000000000000000000000000000000000000000000000000000000000000000000N 00000000000NCONT   00    00000000000          00000000000000000000000000000000000000000000 000000000000000A000000000000000000000000000000000000000000000 000000000000000000000000000000000000000     00000000                                                                                                                        000000000000000000
F0010000006744000002000080000083500041450500000000000000000201501270002001DISTRIB IND ALIPAR Y CIA LTDA                     C000000007500000000000000000000000100010010000000000000000000000F0010000006744000220150127000101 00000000000000000000000000000000000000000000000000000000000000000000000000000000000000000000000000000000000000000N 00000000000NCONT   00    00000000000          00000000000000000000000000000000000000000000 000000000000000A000000000000000000000000000000000000000000000 000000000000000000000000000000000000000     00000000                                                                                                                        000000000000000000
F0010000006744000003000080000083500042505000000000000000000201501270002001DISTRIB IND ALIPAR Y CIA LTDA                     C000000001000000000000000000000000100010010000000000000000000000F0010000006744000320150127000101 00000000000000000000000000000000000000000000000000000000000000000000000000000000000000000000000000000000000000000N 00000000000NCONT   00    00000000000          00000000000000000000000000000000000000000000 000000000000000A000000000000000000000000000000000000000000000 000000000000000000000000000000000000000     00000000                                                                                                                        000000000000000000
F0010000006744000004000080000083500023658300000000000000000201501270002001DISTRIB IND ALIPAR Y CIA LTDA                     C000000000060000000000000000000000100010010000000000000000000000F0010000006744000420150127000101 00000000000000000000000000000000000000000000000000000000000000000000000000000000000000000000000000000000000000000N 00000000000NCONT   00    00000000000          00000000000000000000000000000000000000000000 000000000000000A000000000000000000000000000000000000000000000 000000000000000000000000000000000000000     00000000                                                                                                                        000000000000000000
F0010000006744000005000080000083500013552100000000000000000201501270002001DISTRIB IND ALIPAR Y CIA LTDA                     D000000000060000000000000000000000100010010000000000000000000000F0010000006744000520150127000101 00000000000000000000000000000000000000000000000000000000000000000000000000000000000000000000000000000000000000000N 00000000000NCONT   00    00000000000          00000000000000000000000000000000000000000000 000000000000000A000000000000000000000000000000000000000000000 000000000000000000000000000000000000000     00000000                                                                                                                        000000000000000000
F0010000006744100001000090053611800013050500000000000000000201501270002001PELETERIA COSTA CARIBE S.A .S                     D000000019200000000000000000000000100010010000000000000000000000F0010000006744100120150127000101 00000000000000000000000000000000000000000000000000000000000000000000000000000000000000000000000000000000000000000N 00000000000NCONT   00    00000000000          00000000000000000000000000000000000000000000 000000000000000A000000000000000000000000000000000000000000000 000000000000000000000000000000000000000     00000000                                                                                                                        000000000000000000
F0010000006744100002000090053611800041450500000000000000000201501270002001PELETERIA COSTA CARIBE S.A .S                     C000000015200000000000000000000000100010010000000000000000000000F0010000006744100220150127000101 00000000000000000000000000000000000000000000000000000000000000000000000000000000000000000000000000000000000000000N 00000000000NCONT   00    00000000000          00000000000000000000000000000000000000000000 000000000000000A000000000000000000000000000000000000000000000 000000000000000000000000000000000000000     00000000                                                                                                                        000000000000000000
F0010000006744100003000090053611800042505000000000000000000201501270002001PELETERIA COSTA CARIBE S.A .S                     C000000004000000000000000000000000100010010000000000000000000000F0010000006744100320150127000101 00000000000000000000000000000000000000000000000000000000000000000000000000000000000000000000000000000000000000000N 00000000000NCONT   00    00000000000          00000000000000000000000000000000000000000000 000000000000000A000000000000000000000000000000000000000000000 000000000000000000000000000000000000000     00000000                                                                                                                        000000000000000000
F0010000006744100004000090053611800023658300000000000000000201501270002001PELETERIA COSTA CARIBE S.A .S                     C000000000121600000000000000000000100010010000000000000000000000F0010000006744100420150127000101 00000000000000000000000000000000000000000000000000000000000000000000000000000000000000000000000000000000000000000N 00000000000NCONT   00    00000000000          00000000000000000000000000000000000000000000 000000000000000A000000000000000000000000000000000000000000000 000000000000000000000000000000000000000     00000000                                                                                                                        000000000000000000
F0010000006744100005000090053611800013552100000000000000000201501270002001PELETERIA COSTA CARIBE S.A .S                     D000000000121600000000000000000000100010010000000000000000000000F0010000006744100520150127000101 00000000000000000000000000000000000000000000000000000000000000000000000000000000000000000000000000000000000000000N 00000000000NCONT   00    00000000000          00000000000000000000000000000000000000000000 000000000000000A000000000000000000000000000000000000000000000 000000000000000000000000000000000000000     00000000                                                                                                                        000000000000000000
F0010000006744200001000001719393900013050500000000000000000201501270002001JAIRO BASTIDAS RAMIREZ                            D000000027350000000000000000000000100010010000000000000000000000F0010000006744200120150127000101 00000000000000000000000000000000000000000000000000000000000000000000000000000000000000000000000000000000000000000N 00000000000NCONT   00    00000000000          00000000000000000000000000000000000000000000 000000000000000A000000000000000000000000000000000000000000000 000000000000000000000000000000000000000     00000000                                                                                                                        000000000000000000
F0010000006744200002000001719393900041450500000000000000000201501270002001JAIRO BASTIDAS RAMIREZ                            C000000024700000000000000000000000100010010000000000000000000000F0010000006744200220150127000101 00000000000000000000000000000000000000000000000000000000000000000000000000000000000000000000000000000000000000000N 00000000000NCONT   00    00000000000          00000000000000000000000000000000000000000000 000000000000000A000000000000000000000000000000000000000000000 000000000000000000000000000000000000000     00000000                                                                                                                        000000000000000000
F0010000006744200003000001719393900042505000000000000000000201501270002001JAIRO BASTIDAS RAMIREZ                            C000000002650000000000000000000000100010010000000000000000000000F0010000006744200320150127000101 00000000000000000000000000000000000000000000000000000000000000000000000000000000000000000000000000000000000000000N 00000000000NCONT   00    00000000000          00000000000000000000000000000000000000000000 000000000000000A000000000000000000000000000000000000000000000 000000000000000000000000000000000000000     00000000                                                                                                                        000000000000000000
F0010000006744200004000001719393900023658300000000000000000201501270002001JAIRO BASTIDAS RAMIREZ                            C000000000197600000000000000000000100010010000000000000000000000F0010000006744200420150127000101 00000000000000000000000000000000000000000000000000000000000000000000000000000000000000000000000000000000000000000N 00000000000NCONT   00    00000000000          00000000000000000000000000000000000000000000 000000000000000A000000000000000000000000000000000000000000000 000000000000000000000000000000000000000     00000000                                                                                                                        000000000000000000
F0010000006744200005000001719393900013552100000000000000000201501270002001JAIRO BASTIDAS RAMIREZ                            D000000000197600000000000000000000100010010000000000000000000000F0010000006744200520150127000101 00000000000000000000000000000000000000000000000000000000000000000000000000000000000000000000000000000000000000000N 00000000000NCONT   00    00000000000          00000000000000000000000000000000000000000000 000000000000000A000000000000000000000000000000000000000000000 000000000000000000000000000000000000000     00000000                                                                                                                        000000000000000000
F0010000006744300001000090044920600013050500000000000000000201501270002001QUATRO CARIBE SAS                                 D000000018705000000000000000000000100010010000000000000000000000F0010000006744300120150127000101 00000000000000000000000000000000000000000000000000000000000000000000000000000000000000000000000000000000000000000N 00000000000NCONT   00    00000000000          00000000000000000000000000000000000000000000 000000000000000A000000000000000000000000000000000000000000000 000000000000000000000000000000000000000     00000000                                                                                                                        000000000000000000
F0010000006744300002000090044920600041450500000000000000000201501270002001QUATRO CARIBE SAS                                 C000000014730000000000000000000000100010010000000000000000000000F0010000006744300220150127000101 00000000000000000000000000000000000000000000000000000000000000000000000000000000000000000000000000000000000000000N 00000000000NCONT   00    00000000000          00000000000000000000000000000000000000000000 000000000000000A000000000000000000000000000000000000000000000 000000000000000000000000000000000000000     00000000                                                                                                                        000000000000000000
F0010000006744300003000090044920600042505000000000000000000201501270002001QUATRO CARIBE SAS                                 C000000003975000000000000000000000100010010000000000000000000000F0010000006744300320150127000101 00000000000000000000000000000000000000000000000000000000000000000000000000000000000000000000000000000000000000000N 00000000000NCONT   00    00000000000          00000000000000000000000000000000000000000000 000000000000000A000000000000000000000000000000000000000000000 000000000000000000000000000000000000000     00000000                                                                                                                        000000000000000000
F0010000006744300004000090044920600023658300000000000000000201501270002001QUATRO CARIBE SAS                                 C000000000117800000000000000000000100010010000000000000000000000F0010000006744300420150127000101 00000000000000000000000000000000000000000000000000000000000000000000000000000000000000000000000000000000000000000N 00000000000NCONT   00    00000000000          00000000000000000000000000000000000000000000 000000000000000A000000000000000000000000000000000000000000000 000000000000000000000000000000000000000     00000000                                                                                                                        000000000000000000
F0010000006744300005000090044920600013552100000000000000000201501270002001QUATRO CARIBE SAS                                 D000000000117800000000000000000000100010010000000000000000000000F0010000006744300520150127000101 00000000000000000000000000000000000000000000000000000000000000000000000000000000000000000000000000000000000000000N 00000000000NCONT   00    00000000000          00000000000000000000000000000000000000000000 000000000000000A000000000000000000000000000000000000000000000 000000000000000000000000000000000000000     00000000                                                                                                                        000000000000000000
F0010000006744400001000080202132300013050500000000000000000201501270002001SUM Y SERV DE LA COSTA LTDA                       D000000032410000000000000000000000100010010000000000000000000000F0010000006744400120150127000101 00000000000000000000000000000000000000000000000000000000000000000000000000000000000000000000000000000000000000000N 00000000000NCONT   00    00000000000          00000000000000000000000000000000000000000000 000000000000000A000000000000000000000000000000000000000000000 000000000000000000000000000000000000000     00000000                                                                                                                        000000000000000000
F0010000006744400002000080202132300041450500000000000000000201501270002001SUM Y SERV DE LA COSTA LTDA                       C000000030770000000000000000000000100010010000000000000000000000F0010000006744400220150127000101 00000000000000000000000000000000000000000000000000000000000000000000000000000000000000000000000000000000000000000N 00000000000NCONT   00    00000000000          00000000000000000000000000000000000000000000 000000000000000A000000000000000000000000000000000000000000000 000000000000000000000000000000000000000     00000000                                                                                                                        000000000000000000
F0010000006744400003000080202132300042505000000000000000000201501270002001SUM Y SERV DE LA COSTA LTDA                       C000000001640000000000000000000000100010010000000000000000000000F0010000006744400320150127000101 00000000000000000000000000000000000000000000000000000000000000000000000000000000000000000000000000000000000000000N 00000000000NCONT   00    00000000000          00000000000000000000000000000000000000000000 000000000000000A000000000000000000000000000000000000000000000 000000000000000000000000000000000000000     00000000                                                                                                                        000000000000000000
F0010000006744400004000080202132300023658300000000000000000201501270002001SUM Y SERV DE LA COSTA LTDA                       C000000000246200000000000000000000100010010000000000000000000000F0010000006744400420150127000101 00000000000000000000000000000000000000000000000000000000000000000000000000000000000000000000000000000000000000000N 00000000000NCONT   00    00000000000          00000000000000000000000000000000000000000000 000000000000000A000000000000000000000000000000000000000000000 000000000000000000000000000000000000000     00000000                                                                                                                        000000000000000000
F0010000006744400005000080202132300013552100000000000000000201501270002001SUM Y SERV DE LA COSTA LTDA                       D000000000246200000000000000000000100010010000000000000000000000F0010000006744400520150127000101 00000000000000000000000000000000000000000000000000000000000000000000000000000000000000000000000000000000000000000N 00000000000NCONT   00    00000000000          00000000000000000000000000000000000000000000 000000000000000A000000000000000000000000000000000000000000000 000000000000000000000000000000000000000     00000000                                                                                                                        000000000000000000
F0010000006744500001000090019362000013050500000000000000000201501270002001GENERAL SUPPLIES CIA LTDA                         D000000018401000000000000000000000100010010000000000000000000000F0010000006744500120150127000101 00000000000000000000000000000000000000000000000000000000000000000000000000000000000000000000000000000000000000000N 00000000000NCONT   00    00000000000          00000000000000000000000000000000000000000000 000000000000000A000000000000000000000000000000000000000000000 000000000000000000000000000000000000000     00000000                                                                                                                        000000000000000000
F0010000006744500002000090019362000041450500000000000000000201501270002001GENERAL SUPPLIES CIA LTDA                         C000000014700000000000000000000000100010010000000000000000000000F0010000006744500220150127000101 00000000000000000000000000000000000000000000000000000000000000000000000000000000000000000000000000000000000000000N 00000000000NCONT   00    00000000000          00000000000000000000000000000000000000000000 000000000000000A000000000000000000000000000000000000000000000 000000000000000000000000000000000000000     00000000                                                                                                                        000000000000000000
F0010000006744500003000090019362000042505000000000000000000201501270002001GENERAL SUPPLIES CIA LTDA                         C000000003701000000000000000000000100010010000000000000000000000F0010000006744500320150127000101 00000000000000000000000000000000000000000000000000000000000000000000000000000000000000000000000000000000000000000N 00000000000NCONT   00    00000000000          00000000000000000000000000000000000000000000 000000000000000A000000000000000000000000000000000000000000000 000000000000000000000000000000000000000     00000000                                                                                                                        000000000000000000
F0010000006744500004000090019362000023658300000000000000000201501270002001GENERAL SUPPLIES CIA LTDA                         C000000000117600000000000000000000100010010000000000000000000000F0010000006744500420150127000101 00000000000000000000000000000000000000000000000000000000000000000000000000000000000000000000000000000000000000000N 00000000000NCONT   00    00000000000          00000000000000000000000000000000000000000000 000000000000000A000000000000000000000000000000000000000000000 000000000000000000000000000000000000000     00000000                                                                                                                        000000000000000000
F0010000006744500005000090019362000013552100000000000000000201501270002001GENERAL SUPPLIES CIA LTDA                         D000000000117600000000000000000000100010010000000000000000000000F0010000006744500520150127000101 00000000000000000000000000000000000000000000000000000000000000000000000000000000000000000000000000000000000000000N 00000000000NCONT   00    00000000000          00000000000000000000000000000000000000000000 000000000000000A000000000000000000000000000000000000000000000 000000000000000000000000000000000000000     00000000                                                                                                                        000000000000000000
F0010000006744600001000000827614700013050500000000000000000201501270002001ALVARO  HERNAN  PEREZ ALVAREZ                     D000000017150000000000000000000000100010010000000000000000000000F0010000006744600120150127000101 00000000000000000000000000000000000000000000000000000000000000000000000000000000000000000000000000000000000000000N 00000000000NCONT   00    00000000000          00000000000000000000000000000000000000000000 000000000000000A000000000000000000000000000000000000000000000 000000000000000000000000000000000000000     00000000                                                                                                                        000000000000000000
F0010000006744600002000000827614700041450500000000000000000201501270002001ALVARO  HERNAN  PEREZ ALVAREZ                     C000000015600000000000000000000000100010010000000000000000000000F0010000006744600220150127000101 00000000000000000000000000000000000000000000000000000000000000000000000000000000000000000000000000000000000000000N 00000000000NCONT   00    00000000000          00000000000000000000000000000000000000000000 000000000000000A000000000000000000000000000000000000000000000 000000000000000000000000000000000000000     00000000                                                                                                                        000000000000000000
F0010000006744600003000000827614700042505000000000000000000201501270002001ALVARO  HERNAN  PEREZ ALVAREZ                     C000000001550000000000000000000000100010010000000000000000000000F0010000006744600320150127000101 00000000000000000000000000000000000000000000000000000000000000000000000000000000000000000000000000000000000000000N 00000000000NCONT   00    00000000000          00000000000000000000000000000000000000000000 000000000000000A000000000000000000000000000000000000000000000 000000000000000000000000000000000000000     00000000                                                                                                                        000000000000000000
F0010000006744600004000000827614700023658300000000000000000201501270002001ALVARO  HERNAN  PEREZ ALVAREZ                     C000000000124800000000000000000000100010010000000000000000000000F0010000006744600420150127000101 00000000000000000000000000000000000000000000000000000000000000000000000000000000000000000000000000000000000000000N 00000000000NCONT   00    00000000000          00000000000000000000000000000000000000000000 000000000000000A000000000000000000000000000000000000000000000 000000000000000000000000000000000000000     00000000                                                                                                                        000000000000000000
F0010000006744600005000000827614700013552100000000000000000201501270002001ALVARO  HERNAN  PEREZ ALVAREZ                     D000000000124800000000000000000000100010010000000000000000000000F0010000006744600520150127000101 00000000000000000000000000000000000000000000000000000000000000000000000000000000000000000000000000000000000000000N 00000000000NCONT   00    00000000000          00000000000000000000000000000000000000000000 000000000000000A000000000000000000000000000000000000000000000 000000000000000000000000000000000000000     00000000                                                                                                                        000000000000000000
F0010000006744700001000080012418800013050500000000000000000201501270002001DISTRITEC S.A.S                                   D000000003700000000000000000000000100010010000000000000000000000F0010000006744700120150127000101 00000000000000000000000000000000000000000000000000000000000000000000000000000000000000000000000000000000000000000N 00000000000NCONT   00    00000000000          00000000000000000000000000000000000000000000 000000000000000A000000000000000000000000000000000000000000000 000000000000000000000000000000000000000     00000000                                                                                                                        000000000000000000
F0010000006744700002000080012418800041450500000000000000000201501270002001DISTRITEC S.A.S                                   C000000003600000000000000000000000100010010000000000000000000000F0010000006744700220150127000101 00000000000000000000000000000000000000000000000000000000000000000000000000000000000000000000000000000000000000000N 00000000000NCONT   00    00000000000          00000000000000000000000000000000000000000000 000000000000000A000000000000000000000000000000000000000000000 000000000000000000000000000000000000000     00000000                                                                                                                        000000000000000000
F0010000006744700003000080012418800042505000000000000000000201501270002001DISTRITEC S.A.S                                   C000000000100000000000000000000000100010010000000000000000000000F0010000006744700320150127000101 00000000000000000000000000000000000000000000000000000000000000000000000000000000000000000000000000000000000000000N 00000000000NCONT   00    00000000000          00000000000000000000000000000000000000000000 000000000000000A000000000000000000000000000000000000000000000 000000000000000000000000000000000000000     00000000                                                                                                                        000000000000000000
F0010000006744700004000080012418800023658300000000000000000201501270002001DISTRITEC S.A.S                                   C000000000028800000000000000000000100010010000000000000000000000F0010000006744700420150127000101 00000000000000000000000000000000000000000000000000000000000000000000000000000000000000000000000000000000000000000N 00000000000NCONT   00    00000000000          00000000000000000000000000000000000000000000 000000000000000A000000000000000000000000000000000000000000000 000000000000000000000000000000000000000     00000000                                                                                                                        000000000000000000
F0010000006744700005000080012418800013552100000000000000000201501270002001DISTRITEC S.A.S                                   D000000000028800000000000000000000100010010000000000000000000000F0010000006744700520150127000101 00000000000000000000000000000000000000000000000000000000000000000000000000000000000000000000000000000000000000000N 00000000000NCONT   00    00000000000          00000000000000000000000000000000000000000000 000000000000000A000000000000000000000000000000000000000000000 000000000000000000000000000000000000000     00000000                                                                                                                        000000000000000000
F0010000006744800001000090016338800013050500000000000000000201501270002001MASTERKOLOR SAS                                   D000000002600000000000000000000000100010010000000000000000000000F0010000006744800120150127000101 00000000000000000000000000000000000000000000000000000000000000000000000000000000000000000000000000000000000000000N 00000000000NCONT   00    00000000000          00000000000000000000000000000000000000000000 000000000000000A000000000000000000000000000000000000000000000 000000000000000000000000000000000000000     00000000                                                                                                                        000000000000000000
F0010000006744800002000090016338800041450500000000000000000201501270002001MASTERKOLOR SAS                                   C000000002400000000000000000000000100010010000000000000000000000F0010000006744800220150127000101 00000000000000000000000000000000000000000000000000000000000000000000000000000000000000000000000000000000000000000N 00000000000NCONT   00    00000000000          00000000000000000000000000000000000000000000 000000000000000A000000000000000000000000000000000000000000000 000000000000000000000000000000000000000     00000000                                                                                                                        000000000000000000
F0010000006744800003000090016338800042505000000000000000000201501270002001MASTERKOLOR SAS                                   C000000000200000000000000000000000100010010000000000000000000000F0010000006744800320150127000101 00000000000000000000000000000000000000000000000000000000000000000000000000000000000000000000000000000000000000000N 00000000000NCONT   00    00000000000          00000000000000000000000000000000000000000000 000000000000000A000000000000000000000000000000000000000000000 000000000000000000000000000000000000000     00000000                                                                                                                        000000000000000000
F0010000006744800004000090016338800023658300000000000000000201501270002001MASTERKOLOR SAS                                   C000000000019200000000000000000000100010010000000000000000000000F0010000006744800420150127000101 00000000000000000000000000000000000000000000000000000000000000000000000000000000000000000000000000000000000000000N 00000000000NCONT   00    00000000000          00000000000000000000000000000000000000000000 000000000000000A000000000000000000000000000000000000000000000 000000000000000000000000000000000000000     00000000                                                                                                                        000000000000000000
F0010000006744800005000090016338800013552100000000000000000201501270002001MASTERKOLOR SAS                                   D000000000019200000000000000000000100010010000000000000000000000F0010000006744800520150127000101 00000000000000000000000000000000000000000000000000000000000000000000000000000000000000000000000000000000000000000N 00000000000NCONT   00    00000000000          00000000000000000000000000000000000000000000 000000000000000A000000000000000000000000000000000000000000000 000000000000000000000000000000000000000     00000000                                                                                                                        000000000000000000
F0010000006744900001000089011072600013050500000000000000000201501270002001GRAFICAS DEL LITORAL SAS                          D000000015680000000000000000000000100010010000000000000000000000F0010000006744900120150127000101 00000000000000000000000000000000000000000000000000000000000000000000000000000000000000000000000000000000000000000N 00000000000NCONT   00    00000000000          00000000000000000000000000000000000000000000 000000000000000A000000000000000000000000000000000000000000000 000000000000000000000000000000000000000     00000000                                                                                                                        000000000000000000
F0010000006744900002000089011072600041450500000000000000000201501270002001GRAFICAS DEL LITORAL SAS                          C000000015180000000000000000000000100010010000000000000000000000F0010000006744900220150127000101 00000000000000000000000000000000000000000000000000000000000000000000000000000000000000000000000000000000000000000N 00000000000NCONT   00    00000000000          00000000000000000000000000000000000000000000 000000000000000A000000000000000000000000000000000000000000000 000000000000000000000000000000000000000     00000000                                                                                                                        000000000000000000
F0010000006744900003000089011072600042505000000000000000000201501270002001GRAFICAS DEL LITORAL SAS                          C000000000500000000000000000000000100010010000000000000000000000F0010000006744900320150127000101 00000000000000000000000000000000000000000000000000000000000000000000000000000000000000000000000000000000000000000N 00000000000NCONT   00    00000000000          00000000000000000000000000000000000000000000 000000000000000A000000000000000000000000000000000000000000000 000000000000000000000000000000000000000     00000000                                                                                                                        000000000000000000
F0010000006744900004000089011072600023658300000000000000000201501270002001GRAFICAS DEL LITORAL SAS                          C000000000121400000000000000000000100010010000000000000000000000F0010000006744900420150127000101 00000000000000000000000000000000000000000000000000000000000000000000000000000000000000000000000000000000000000000N 00000000000NCONT   00    00000000000          00000000000000000000000000000000000000000000 000000000000000A000000000000000000000000000000000000000000000 000000000000000000000000000000000000000     00000000                                                                                                                        000000000000000000
F0010000006744900005000089011072600013552100000000000000000201501270002001GRAFICAS DEL LITORAL SAS                          D000000000121400000000000000000000100010010000000000000000000000F0010000006744900520150127000101 00000000000000000000000000000000000000000000000000000000000000000000000000000000000000000000000000000000000000000N 00000000000NCONT   00    00000000000          00000000000000000000000000000000000000000000 000000000000000A000000000000000000000000000000000000000000000 000000000000000000000000000000000000000     00000000                                                                                                                        000000000000000000
F0010000006745000001000090010880700013050500000000000000000201501270002001PROELECTRICAS DE BARRANQUILLA LTDA                D000000002190000000000000000000000100010010000000000000000000000F0010000006745000120150127000101 00000000000000000000000000000000000000000000000000000000000000000000000000000000000000000000000000000000000000000N 00000000000NCONT   00    00000000000          00000000000000000000000000000000000000000000 000000000000000A000000000000000000000000000000000000000000000 000000000000000000000000000000000000000     00000000                                                                                                                        000000000000000000
F0010000006745000002000090010880700041450500000000000000000201501270002001PROELECTRICAS DE BARRANQUILLA LTDA                C000000002090000000000000000000000100010010000000000000000000000F0010000006745000220150127000101 00000000000000000000000000000000000000000000000000000000000000000000000000000000000000000000000000000000000000000N 00000000000NCONT   00    00000000000          00000000000000000000000000000000000000000000 000000000000000A000000000000000000000000000000000000000000000 000000000000000000000000000000000000000     00000000                                                                                                                        000000000000000000
F0010000006745000003000090010880700042505000000000000000000201501270002001PROELECTRICAS DE BARRANQUILLA LTDA                C000000000100000000000000000000000100010010000000000000000000000F0010000006745000320150127000101 00000000000000000000000000000000000000000000000000000000000000000000000000000000000000000000000000000000000000000N 00000000000NCONT   00    00000000000          00000000000000000000000000000000000000000000 000000000000000A000000000000000000000000000000000000000000000 000000000000000000000000000000000000000     00000000                                                                                                                        000000000000000000
F0010000006745000004000090010880700023658300000000000000000201501270002001PROELECTRICAS DE BARRANQUILLA LTDA                C000000000016700000000000000000000100010010000000000000000000000F0010000006745000420150127000101 00000000000000000000000000000000000000000000000000000000000000000000000000000000000000000000000000000000000000000N 00000000000NCONT   00    00000000000          00000000000000000000000000000000000000000000 000000000000000A000000000000000000000000000000000000000000000 000000000000000000000000000000000000000     00000000                                                                                                                        000000000000000000
F0010000006745000005000090010880700013552100000000000000000201501270002001PROELECTRICAS DE BARRANQUILLA LTDA                D000000000016700000000000000000000100010010000000000000000000000F0010000006745000520150127000101 00000000000000000000000000000000000000000000000000000000000000000000000000000000000000000000000000000000000000000N 00000000000NCONT   00    00000000000          00000000000000000000000000000000000000000000 000000000000000A000000000000000000000000000000000000000000000 000000000000000000000000000000000000000     00000000                                                                                                                        000000000000000000
F0010000006745100001000007215902600013050500000000000000000201501270002001KRISS LORENA BLANCO  (BANTEX)                     D000000013180000000000000000000000100010010000000000000000000000F0010000006745100120150127000101 00000000000000000000000000000000000000000000000000000000000000000000000000000000000000000000000000000000000000000N 00000000000NCONT   00    00000000000          00000000000000000000000000000000000000000000 000000000000000A000000000000000000000000000000000000000000000 000000000000000000000000000000000000000     00000000                                                                                                                        000000000000000000
F0010000006745100002000007215902600041450500000000000000000201501270002001KRISS LORENA BLANCO  (BANTEX)                     C000000011480000000000000000000000100010010000000000000000000000F0010000006745100220150127000101 00000000000000000000000000000000000000000000000000000000000000000000000000000000000000000000000000000000000000000N 00000000000NCONT   00    00000000000          00000000000000000000000000000000000000000000 000000000000000A000000000000000000000000000000000000000000000 000000000000000000000000000000000000000     00000000                                                                                                                        000000000000000000
F0010000006745100003000007215902600042505000000000000000000201501270002001KRISS LORENA BLANCO  (BANTEX)                     C000000001700000000000000000000000100010010000000000000000000000F0010000006745100320150127000101 00000000000000000000000000000000000000000000000000000000000000000000000000000000000000000000000000000000000000000N 00000000000NCONT   00    00000000000          00000000000000000000000000000000000000000000 000000000000000A000000000000000000000000000000000000000000000 000000000000000000000000000000000000000     00000000                                                                                                                        000000000000000000
F0010000006745100004000007215902600023658300000000000000000201501270002001KRISS LORENA BLANCO  (BANTEX)                     C000000000091800000000000000000000100010010000000000000000000000F0010000006745100420150127000101 00000000000000000000000000000000000000000000000000000000000000000000000000000000000000000000000000000000000000000N 00000000000NCONT   00    00000000000          00000000000000000000000000000000000000000000 000000000000000A000000000000000000000000000000000000000000000 000000000000000000000000000000000000000     00000000                                                                                                                        000000000000000000
F0010000006745100005000007215902600013552100000000000000000201501270002001KRISS LORENA BLANCO  (BANTEX)                     D000000000091800000000000000000000100010010000000000000000000000F0010000006745100520150127000101 00000000000000000000000000000000000000000000000000000000000000000000000000000000000000000000000000000000000000000N 00000000000NCONT   00    00000000000          00000000000000000000000000000000000000000000 000000000000000A000000000000000000000000000000000000000000000 000000000000000000000000000000000000000     00000000                                                                                                                        000000000000000000
F0010000006745200001000000868487100013050500000000000000000201501270002001JAIME PIÑEROS                                    D000000007440000000000000000000000100010010000000000000000000000F0010000006745200120150127000101 00000000000000000000000000000000000000000000000000000000000000000000000000000000000000000000000000000000000000000N 00000000000NCONT   00    00000000000          00000000000000000000000000000000000000000000 000000000000000A000000000000000000000000000000000000000000000 000000000000000000000000000000000000000     00000000                                                                                                                        000000000000000000
F0010000006745200002000000868487100041450500000000000000000201501270002001JAIME PIÑEROS                                    C000000005390000000000000000000000100010010000000000000000000000F0010000006745200220150127000101 00000000000000000000000000000000000000000000000000000000000000000000000000000000000000000000000000000000000000000N 00000000000NCONT   00    00000000000          00000000000000000000000000000000000000000000 000000000000000A000000000000000000000000000000000000000000000 000000000000000000000000000000000000000     00000000                                                                                                                        000000000000000000
F0010000006745200003000000868487100042505000000000000000000201501270002001JAIME PIÑEROS                                    C000000002050000000000000000000000100010010000000000000000000000F0010000006745200320150127000101 00000000000000000000000000000000000000000000000000000000000000000000000000000000000000000000000000000000000000000N 00000000000NCONT   00    00000000000          00000000000000000000000000000000000000000000 000000000000000A000000000000000000000000000000000000000000000 000000000000000000000000000000000000000     00000000                                                                                                                        000000000000000000
F0010000006745200004000000868487100023658300000000000000000201501270002001JAIME PIÑEROS                                    C000000000043100000000000000000000100010010000000000000000000000F0010000006745200420150127000101 00000000000000000000000000000000000000000000000000000000000000000000000000000000000000000000000000000000000000000N 00000000000NCONT   00    00000000000          00000000000000000000000000000000000000000000 000000000000000A000000000000000000000000000000000000000000000 000000000000000000000000000000000000000     00000000                                                                                                                        000000000000000000
F0010000006745200005000000868487100013552100000000000000000201501270002001JAIME PIÑEROS                                    D000000000043100000000000000000000100010010000000000000000000000F0010000006745200520150127000101 00000000000000000000000000000000000000000000000000000000000000000000000000000000000000000000000000000000000000000N 00000000000NCONT   00    00000000000          00000000000000000000000000000000000000000000 000000000000000A000000000000000000000000000000000000000000000 000000000000000000000000000000000000000     00000000                                                                                                                        000000000000000000
F0010000006745300001000003276535300013050500000000000000000201501270002001YASLEYS CATAÑO ESCOBAR                           D000000023280000000000000000000000100010010000000000000000000000F0010000006745300120150127000101 00000000000000000000000000000000000000000000000000000000000000000000000000000000000000000000000000000000000000000N 00000000000NCONT   00    00000000000          00000000000000000000000000000000000000000000 000000000000000A000000000000000000000000000000000000000000000 000000000000000000000000000000000000000     00000000                                                                                                                        000000000000000000
F0010000006745300002000003276535300041450500000000000000000201501270002001YASLEYS CATAÑO ESCOBAR                           C000000018080000000000000000000000100010010000000000000000000000F0010000006745300220150127000101 00000000000000000000000000000000000000000000000000000000000000000000000000000000000000000000000000000000000000000N 00000000000NCONT   00    00000000000          00000000000000000000000000000000000000000000 000000000000000A000000000000000000000000000000000000000000000 000000000000000000000000000000000000000     00000000                                                                                                                        000000000000000000
F0010000006745300003000003276535300042505000000000000000000201501270002001YASLEYS CATAÑO ESCOBAR                           C000000005200000000000000000000000100010010000000000000000000000F0010000006745300320150127000101 00000000000000000000000000000000000000000000000000000000000000000000000000000000000000000000000000000000000000000N 00000000000NCONT   00    00000000000          00000000000000000000000000000000000000000000 000000000000000A000000000000000000000000000000000000000000000 000000000000000000000000000000000000000     00000000                                                                                                                        000000000000000000
F0010000006745300004000003276535300023658300000000000000000201501270002001YASLEYS CATAÑO ESCOBAR                           C000000000144600000000000000000000100010010000000000000000000000F0010000006745300420150127000101 00000000000000000000000000000000000000000000000000000000000000000000000000000000000000000000000000000000000000000N 00000000000NCONT   00    00000000000          00000000000000000000000000000000000000000000 000000000000000A000000000000000000000000000000000000000000000 000000000000000000000000000000000000000     00000000                                                                                                                        000000000000000000
F0010000006745300005000003276535300013552100000000000000000201501270002001YASLEYS CATAÑO ESCOBAR                           D000000000144600000000000000000000100010010000000000000000000000F0010000006745300520150127000101 00000000000000000000000000000000000000000000000000000000000000000000000000000000000000000000000000000000000000000N 00000000000NCONT   00    00000000000          00000000000000000000000000000000000000000000 000000000000000A000000000000000000000000000000000000000000000 000000000000000000000000000000000000000     00000000                                                                                                                        000000000000000000
F0010000006745400001000089030195100013050500000000000000000201501270002001LIBRERIA NACIONAL S.A.                            D000000024150000000000000000000000100010010000000000000000000000F0010000006745400120150127000101 00000000000000000000000000000000000000000000000000000000000000000000000000000000000000000000000000000000000000000N 00000000000NCONT   00    00000000000          00000000000000000000000000000000000000000000 000000000000000A000000000000000000000000000000000000000000000 000000000000000000000000000000000000000     00000000                                                                                                                        000000000000000000
F0010000006745400002000089030195100041450500000000000000000201501270002001LIBRERIA NACIONAL S.A.                            C000000019890000000000000000000000100010010000000000000000000000F0010000006745400220150127000101 00000000000000000000000000000000000000000000000000000000000000000000000000000000000000000000000000000000000000000N 00000000000NCONT   00    00000000000          00000000000000000000000000000000000000000000 000000000000000A000000000000000000000000000000000000000000000 000000000000000000000000000000000000000     00000000                                                                                                                        000000000000000000
F0010000006745400003000089030195100042505000000000000000000201501270002001LIBRERIA NACIONAL S.A.                            C000000004260000000000000000000000100010010000000000000000000000F0010000006745400320150127000101 00000000000000000000000000000000000000000000000000000000000000000000000000000000000000000000000000000000000000000N 00000000000NCONT   00    00000000000          00000000000000000000000000000000000000000000 000000000000000A000000000000000000000000000000000000000000000 000000000000000000000000000000000000000     00000000                                                                                                                        000000000000000000
F0010000006745400004000089030195100023658300000000000000000201501270002001LIBRERIA NACIONAL S.A.                            C000000000159100000000000000000000100010010000000000000000000000F0010000006745400420150127000101 00000000000000000000000000000000000000000000000000000000000000000000000000000000000000000000000000000000000000000N 00000000000NCONT   00    00000000000          00000000000000000000000000000000000000000000 000000000000000A000000000000000000000000000000000000000000000 000000000000000000000000000000000000000     00000000                                                                                                                        000000000000000000
F0010000006745400005000089030195100013552100000000000000000201501270002001LIBRERIA NACIONAL S.A.                            D000000000159100000000000000000000100010010000000000000000000000F0010000006745400520150127000101 00000000000000000000000000000000000000000000000000000000000000000000000000000000000000000000000000000000000000000N 00000000000NCONT   00    00000000000          00000000000000000000000000000000000000000000 000000000000000A000000000000000000000000000000000000000000000 000000000000000000000000000000000000000     00000000                                                                                                                        000000000000000000
F0010000006745500001000090031601300013050500000000000000000201501270002001COMPAÑIA QUIMICA S.A.S.                          D000000022190000000000000000000000100010010000000000000000000000F0010000006745500120150127000101 00000000000000000000000000000000000000000000000000000000000000000000000000000000000000000000000000000000000000000N 00000000000NCONT   00    00000000000          00000000000000000000000000000000000000000000 000000000000000A000000000000000000000000000000000000000000000 000000000000000000000000000000000000000     00000000                                                                                                                        000000000000000000
F0010000006745500002000090031601300041450500000000000000000201501270002001COMPAÑIA QUIMICA S.A.S.                          C000000020640000000000000000000000100010010000000000000000000000F0010000006745500220150127000101 00000000000000000000000000000000000000000000000000000000000000000000000000000000000000000000000000000000000000000N 00000000000NCONT   00    00000000000          00000000000000000000000000000000000000000000 000000000000000A000000000000000000000000000000000000000000000 000000000000000000000000000000000000000     00000000                                                                                                                        000000000000000000
F0010000006745500003000090031601300042505000000000000000000201501270002001COMPAÑIA QUIMICA S.A.S.                          C000000001550000000000000000000000100010010000000000000000000000F0010000006745500320150127000101 00000000000000000000000000000000000000000000000000000000000000000000000000000000000000000000000000000000000000000N 00000000000NCONT   00    00000000000          00000000000000000000000000000000000000000000 000000000000000A000000000000000000000000000000000000000000000 000000000000000000000000000000000000000     00000000                                                                                                                        000000000000000000
F0010000006745500004000090031601300023658300000000000000000201501270002001COMPAÑIA QUIMICA S.A.S.                          C000000000165100000000000000000000100010010000000000000000000000F0010000006745500420150127000101 00000000000000000000000000000000000000000000000000000000000000000000000000000000000000000000000000000000000000000N 00000000000NCONT   00    00000000000          00000000000000000000000000000000000000000000 000000000000000A000000000000000000000000000000000000000000000 000000000000000000000000000000000000000     00000000                                                                                                                        000000000000000000
F0010000006745500005000090031601300013552100000000000000000201501270002001COMPAÑIA QUIMICA S.A.S.                          D000000000165100000000000000000000100010010000000000000000000000F0010000006745500520150127000101 00000000000000000000000000000000000000000000000000000000000000000000000000000000000000000000000000000000000000000N 00000000000NCONT   00    00000000000          00000000000000000000000000000000000000000000 000000000000000A000000000000000000000000000000000000000000000 000000000000000000000000000000000000000     00000000                                                                                                                        000000000000000000
F0010000006745600001000089010272700013050500000000000000000201501270002001ALFONSOEME S.A.                                   D000000033061700000000000000000000100010010000000000000000000000F0010000006745600120150127000101 00000000000000000000000000000000000000000000000000000000000000000000000000000000000000000000000000000000000000000N 00000000000NCONT   00    00000000000          00000000000000000000000000000000000000000000 000000000000000A000000000000000000000000000000000000000000000 000000000000000000000000000000000000000     00000000                                                                                                                        000000000000000000
F0010000006745600002000089010272700041450500000000000000000201501270002001ALFONSOEME S.A.                                   C000000033357400000000000000000000100010010000000000000000000000F0010000006745600220150127000101 00000000000000000000000000000000000000000000000000000000000000000000000000000000000000000000000000000000000000000N 00000000000NCONT   00    00000000000          00000000000000000000000000000000000000000000 000000000000000A000000000000000000000000000000000000000000000 000000000000000000000000000000000000000     00000000                                                                                                                        000000000000000000
F0010000006745600003000089010272700041750100000000000000000201501270002001ALFONSOEME S.A.                                   D000000003335700000000000000000000100010010000000000000000000000F0010000006745600320150127000101 00000000000000000000000000000000000000000000000000000000000000000000000000000000000000000000000000000000000000000N 00000000000NCONT   00    00000000000          00000000000000000000000000000000000000000000 000000000000000A000000000000000000000000000000000000000000000 000000000000000000000000000000000000000     00000000                                                                                                                        000000000000000000
F0010000006745600004000089010272700042505000000000000000000201501270002001ALFONSOEME S.A.                                   C000000003040000000000000000000000100010010000000000000000000000F0010000006745600420150127000101 00000000000000000000000000000000000000000000000000000000000000000000000000000000000000000000000000000000000000000N 00000000000NCONT   00    00000000000          00000000000000000000000000000000000000000000 000000000000000A000000000000000000000000000000000000000000000 000000000000000000000000000000000000000     00000000                                                                                                                        000000000000000000
F0010000006745600005000089010272700023658300000000000000000201501270002001ALFONSOEME S.A.                                   C000000000266900000000000000000000100010010000000000000000000000F0010000006745600520150127000101 00000000000000000000000000000000000000000000000000000000000000000000000000000000000000000000000000000000000000000N 00000000000NCONT   00    00000000000          00000000000000000000000000000000000000000000 000000000000000A000000000000000000000000000000000000000000000 000000000000000000000000000000000000000     00000000                                                                                                                        000000000000000000
F0010000006745600006000089010272700013552100000000000000000201501270002001ALFONSOEME S.A.                                   D000000000266900000000000000000000100010010000000000000000000000F0010000006745600620150127000101 00000000000000000000000000000000000000000000000000000000000000000000000000000000000000000000000000000000000000000N 00000000000NCONT   00    00000000000          00000000000000000000000000000000000000000000 000000000000000A000000000000000000000000000000000000000000000 000000000000000000000000000000000000000     00000000                                                                                                                        000000000000000000
F0010000006745700001000089010272700013050500000000000000000201501270002001ALFONSOEME S.A.                                   D000000053541800000000000000000000100010010000000000000000000000F0010000006745700120150127000101 00000000000000000000000000000000000000000000000000000000000000000000000000000000000000000000000000000000000000000N 00000000000NCONT   00    00000000000          00000000000000000000000000000000000000000000 000000000000000A000000000000000000000000000000000000000000000 000000000000000000000000000000000000000     00000000                                                                                                                        000000000000000000
F0010000006745700002000089010272700041450500000000000000000201501270002001ALFONSOEME S.A.                                   C000000056024200000000000000000000100010010000000000000000000000F0010000006745700220150127000101 00000000000000000000000000000000000000000000000000000000000000000000000000000000000000000000000000000000000000000N 00000000000NCONT   00    00000000000          00000000000000000000000000000000000000000000 000000000000000A000000000000000000000000000000000000000000000 000000000000000000000000000000000000000     00000000                                                                                                                        000000000000000000
F0010000006745700003000089010272700041750100000000000000000201501270002001ALFONSOEME S.A.                                   D000000005602400000000000000000000100010010000000000000000000000F0010000006745700320150127000101 00000000000000000000000000000000000000000000000000000000000000000000000000000000000000000000000000000000000000000N 00000000000NCONT   00    00000000000          00000000000000000000000000000000000000000000 000000000000000A000000000000000000000000000000000000000000000 000000000000000000000000000000000000000     00000000                                                                                                                        000000000000000000
F0010000006745700004000089010272700042505000000000000000000201501270002001ALFONSOEME S.A.                                   C000000003120000000000000000000000100010010000000000000000000000F0010000006745700420150127000101 00000000000000000000000000000000000000000000000000000000000000000000000000000000000000000000000000000000000000000N 00000000000NCONT   00    00000000000          00000000000000000000000000000000000000000000 000000000000000A000000000000000000000000000000000000000000000 000000000000000000000000000000000000000     00000000                                                                                                                        000000000000000000
F0010000006745700005000089010272700023658300000000000000000201501270002001ALFONSOEME S.A.                                   C000000000448200000000000000000000100010010000000000000000000000F0010000006745700520150127000101 00000000000000000000000000000000000000000000000000000000000000000000000000000000000000000000000000000000000000000N 00000000000NCONT   00    00000000000          00000000000000000000000000000000000000000000 000000000000000A000000000000000000000000000000000000000000000 000000000000000000000000000000000000000     00000000                                                                                                                        000000000000000000
F0010000006745700006000089010272700013552100000000000000000201501270002001ALFONSOEME S.A.                                   D000000000448200000000000000000000100010010000000000000000000000F0010000006745700620150127000101 00000000000000000000000000000000000000000000000000000000000000000000000000000000000000000000000000000000000000000N 00000000000NCONT   00    00000000000          00000000000000000000000000000000000000000000 000000000000000A000000000000000000000000000000000000000000000 000000000000000000000000000000000000000     00000000                                                                                                                        000000000000000000
F0010000006745800001000000744822500013050500000000000000000201501270002001PERFUMERIA BORGE                                  D000000015270000000000000000000000100010010000000000000000000000F0010000006745800120150127000101 00000000000000000000000000000000000000000000000000000000000000000000000000000000000000000000000000000000000000000N 00000000000NCONT   00    00000000000          00000000000000000000000000000000000000000000 000000000000000A000000000000000000000000000000000000000000000 000000000000000000000000000000000000000     00000000                                                                                                                        000000000000000000
F0010000006745800002000000744822500041450500000000000000000201501270002001PERFUMERIA BORGE                                  C000000011270000000000000000000000100010010000000000000000000000F0010000006745800220150127000101 00000000000000000000000000000000000000000000000000000000000000000000000000000000000000000000000000000000000000000N 00000000000NCONT   00    00000000000          00000000000000000000000000000000000000000000 000000000000000A000000000000000000000000000000000000000000000 000000000000000000000000000000000000000     00000000                                                                                                                        000000000000000000
F0010000006745800003000000744822500042505000000000000000000201501270002001PERFUMERIA BORGE                                  C000000004000000000000000000000000100010010000000000000000000000F0010000006745800320150127000101 00000000000000000000000000000000000000000000000000000000000000000000000000000000000000000000000000000000000000000N 00000000000NCONT   00    00000000000          00000000000000000000000000000000000000000000 000000000000000A000000000000000000000000000000000000000000000 000000000000000000000000000000000000000     00000000                                                                                                                        000000000000000000
F0010000006745800004000000744822500023658300000000000000000201501270002001PERFUMERIA BORGE                                  C000000000090200000000000000000000100010010000000000000000000000F0010000006745800420150127000101 00000000000000000000000000000000000000000000000000000000000000000000000000000000000000000000000000000000000000000N 00000000000NCONT   00    00000000000          00000000000000000000000000000000000000000000 000000000000000A000000000000000000000000000000000000000000000 000000000000000000000000000000000000000     00000000                                                                                                                        000000000000000000
F0010000006745800005000000744822500013552100000000000000000201501270002001PERFUMERIA BORGE                                  D000000000090200000000000000000000100010010000000000000000000000F0010000006745800520150127000101 00000000000000000000000000000000000000000000000000000000000000000000000000000000000000000000000000000000000000000N 00000000000NCONT   00    00000000000          00000000000000000000000000000000000000000000 000000000000000A000000000000000000000000000000000000000000000 000000000000000000000000000000000000000     00000000                                                                                                                        000000000000000000
F0010000006745900001000090020547900013050500000000000000000201501270002001DAC DEL CARIBE S.A.S.                             D000000004587100000000000000000000100010010000000000000000000000F0010000006745900120150127000101 00000000000000000000000000000000000000000000000000000000000000000000000000000000000000000000000000000000000000000N 00000000000NCONT   00    00000000000          00000000000000000000000000000000000000000000 000000000000000A000000000000000000000000000000000000000000000 000000000000000000000000000000000000000     00000000                                                                                                                        000000000000000000
F0010000006745900002000090020547900041450500000000000000000201501270002001DAC DEL CARIBE S.A.S.                             C000000002700000000000000000000000100010010000000000000000000000F0010000006745900220150127000101 00000000000000000000000000000000000000000000000000000000000000000000000000000000000000000000000000000000000000000N 00000000000NCONT   00    00000000000          00000000000000000000000000000000000000000000 000000000000000A000000000000000000000000000000000000000000000 000000000000000000000000000000000000000     00000000                                                                                                                        000000000000000000
F0010000006745900003000090020547900042505000000000000000000201501270002001DAC DEL CARIBE S.A.S.                             C000000001887100000000000000000000100010010000000000000000000000F0010000006745900320150127000101 00000000000000000000000000000000000000000000000000000000000000000000000000000000000000000000000000000000000000000N 00000000000NCONT   00    00000000000          00000000000000000000000000000000000000000000 000000000000000A000000000000000000000000000000000000000000000 000000000000000000000000000000000000000     00000000                                                                                                                        000000000000000000
F0010000006745900004000090020547900023658300000000000000000201501270002001DAC DEL CARIBE S.A.S.                             C000000000021600000000000000000000100010010000000000000000000000F0010000006745900420150127000101 00000000000000000000000000000000000000000000000000000000000000000000000000000000000000000000000000000000000000000N 00000000000NCONT   00    00000000000          00000000000000000000000000000000000000000000 000000000000000A000000000000000000000000000000000000000000000 000000000000000000000000000000000000000     00000000                                                                                                                        000000000000000000
F0010000006745900005000090020547900013552100000000000000000201501270002001DAC DEL CARIBE S.A.S.                             D000000000021600000000000000000000100010010000000000000000000000F0010000006745900520150127000101 00000000000000000000000000000000000000000000000000000000000000000000000000000000000000000000000000000000000000000N 00000000000NCONT   00    00000000000          00000000000000000000000000000000000000000000 000000000000000A000000000000000000000000000000000000000000000 000000000000000000000000000000000000000     00000000                                                                                                                        000000000000000000
F0010000006746000001000090001973700013050500000000000000000201501270002001DISTRIBUIDORA Y PAPELERIA VENEPLAS LTDA           D000000005700000000000000000000000100010010000000000000000000000F0010000006746000120150127000101 00000000000000000000000000000000000000000000000000000000000000000000000000000000000000000000000000000000000000000N 00000000000NCONT   00    00000000000          00000000000000000000000000000000000000000000 000000000000000A000000000000000000000000000000000000000000000 000000000000000000000000000000000000000     00000000                                                                                                                        000000000000000000
F0010000006746000002000090001973700041450500000000000000000201501270002001DISTRIBUIDORA Y PAPELERIA VENEPLAS LTDA           C000000005300000000000000000000000100010010000000000000000000000F0010000006746000220150127000101 00000000000000000000000000000000000000000000000000000000000000000000000000000000000000000000000000000000000000000N 00000000000NCONT   00    00000000000          00000000000000000000000000000000000000000000 000000000000000A000000000000000000000000000000000000000000000 000000000000000000000000000000000000000     00000000                                                                                                                        000000000000000000
F0010000006746000003000090001973700042505000000000000000000201501270002001DISTRIBUIDORA Y PAPELERIA VENEPLAS LTDA           C000000000400000000000000000000000100010010000000000000000000000F0010000006746000320150127000101 00000000000000000000000000000000000000000000000000000000000000000000000000000000000000000000000000000000000000000N 00000000000NCONT   00    00000000000          00000000000000000000000000000000000000000000 000000000000000A000000000000000000000000000000000000000000000 000000000000000000000000000000000000000     00000000                                                                                                                        000000000000000000
F0010000006746000004000090001973700023658300000000000000000201501270002001DISTRIBUIDORA Y PAPELERIA VENEPLAS LTDA           C000000000042400000000000000000000100010010000000000000000000000F0010000006746000420150127000101 00000000000000000000000000000000000000000000000000000000000000000000000000000000000000000000000000000000000000000N 00000000000NCONT   00    00000000000          00000000000000000000000000000000000000000000 000000000000000A000000000000000000000000000000000000000000000 000000000000000000000000000000000000000     00000000                                                                                                                        000000000000000000
