F0010000008837100001000000257193600011050500000000000000000201607120002001DISTRIBUCIONES YALY                               D000000006000000000000000000000000100010010000000000000000000000F0010000008837100120160712000101 00000000000000000000000000000000000000000000000000000000000000000000000000000000000000000000000000000000000000000N 00000000000NCONT   00    00000000000          00000000000000000000000000000000000000000000 000000000000000A000000000000000000000000000000000000000000000 000000000000000000000000000000000000000     00000000                                                                                                                        000000000000000000
F0010000008837100002000000257193600041450500000000000000000201607120002001DISTRIBUCIONES YALY                               C000000005200000000000000000000000100010010000000000000000000000F0010000008837100220160712000101 00000000000000000000000000000000000000000000000000000000000000000000000000000000000000000000000000000000000000000N 00000000000NCONT   00    00000000000          00000000000000000000000000000000000000000000 000000000000000A000000000000000000000000000000000000000000000 000000000000000000000000000000000000000     00000000                                                                                                                        000000000000000000
F0010000008837100003000000257193600042505000000000000000000201607120002001DISTRIBUCIONES YALY                               C000000000800000000000000000000000100010010000000000000000000000F0010000008837100320160712000101 00000000000000000000000000000000000000000000000000000000000000000000000000000000000000000000000000000000000000000N 00000000000NCONT   00    00000000000          00000000000000000000000000000000000000000000 000000000000000A000000000000000000000000000000000000000000000 000000000000000000000000000000000000000     00000000                                                                                                                        000000000000000000
F0010000008837100004000000257193600023658300000000000000000201607120002001DISTRIBUCIONES YALY                               C000000000041600000000000000000000100010010000000000000000000000F0010000008837100420160712000101 00000000000000000000000000000000000000000000000000000000000000000000000000000000000000000000000000000000000000000N 00000000000NCONT   00    00000000000          00000000000000000000000000000000000000000000 000000000000000A000000000000000000000000000000000000000000000 000000000000000000000000000000000000000     00000000                                                                                                                        000000000000000000
F0010000008837100005000000257193600013552100000000000000000201607120002001DISTRIBUCIONES YALY                               D000000000041600000000000000000000100010010000000000000000000000F0010000008837100520160712000101 00000000000000000000000000000000000000000000000000000000000000000000000000000000000000000000000000000000000000000N 00000000000NCONT   00    00000000000          00000000000000000000000000000000000000000000 000000000000000A000000000000000000000000000000000000000000000 000000000000000000000000000000000000000     00000000                                                                                                                        000000000000000000
F0010000008837200001000000257193600011050500000000000000000201607120002001DISTRIBUCIONES YALY                               D000000003100000000000000000000000100010010000000000000000000000F0010000008837200120160712000101 00000000000000000000000000000000000000000000000000000000000000000000000000000000000000000000000000000000000000000N 00000000000NCONT   00    00000000000          00000000000000000000000000000000000000000000 000000000000000A000000000000000000000000000000000000000000000 000000000000000000000000000000000000000     00000000                                                                                                                        000000000000000000
F0010000008837200002000000257193600041450500000000000000000201607120002001DISTRIBUCIONES YALY                               C000000002600000000000000000000000100010010000000000000000000000F0010000008837200220160712000101 00000000000000000000000000000000000000000000000000000000000000000000000000000000000000000000000000000000000000000N 00000000000NCONT   00    00000000000          00000000000000000000000000000000000000000000 000000000000000A000000000000000000000000000000000000000000000 000000000000000000000000000000000000000     00000000                                                                                                                        000000000000000000
F0010000008837200003000000257193600042505000000000000000000201607120002001DISTRIBUCIONES YALY                               C000000000500000000000000000000000100010010000000000000000000000F0010000008837200320160712000101 00000000000000000000000000000000000000000000000000000000000000000000000000000000000000000000000000000000000000000N 00000000000NCONT   00    00000000000          00000000000000000000000000000000000000000000 000000000000000A000000000000000000000000000000000000000000000 000000000000000000000000000000000000000     00000000                                                                                                                        000000000000000000
F0010000008837200004000000257193600023658300000000000000000201607120002001DISTRIBUCIONES YALY                               C000000000020800000000000000000000100010010000000000000000000000F0010000008837200420160712000101 00000000000000000000000000000000000000000000000000000000000000000000000000000000000000000000000000000000000000000N 00000000000NCONT   00    00000000000          00000000000000000000000000000000000000000000 000000000000000A000000000000000000000000000000000000000000000 000000000000000000000000000000000000000     00000000                                                                                                                        000000000000000000
F0010000008837200005000000257193600013552100000000000000000201607120002001DISTRIBUCIONES YALY                               D000000000020800000000000000000000100010010000000000000000000000F0010000008837200520160712000101 00000000000000000000000000000000000000000000000000000000000000000000000000000000000000000000000000000000000000000N 00000000000NCONT   00    00000000000          00000000000000000000000000000000000000000000 000000000000000A000000000000000000000000000000000000000000000 000000000000000000000000000000000000000     00000000                                                                                                                        000000000000000000
F0010000008837300001000007213618800011050500000000000000000201607120002001JAIME LOGREIRA                                    D000000001100000000000000000000000100010010000000000000000000000F0010000008837300120160712000101 00000000000000000000000000000000000000000000000000000000000000000000000000000000000000000000000000000000000000000N 00000000000NCONT   00    00000000000          00000000000000000000000000000000000000000000 000000000000000A000000000000000000000000000000000000000000000 000000000000000000000000000000000000000     00000000                                                                                                                        000000000000000000
F0010000008837300002000007213618800041450500000000000000000201607120002001JAIME LOGREIRA                                    C000000000900000000000000000000000100010010000000000000000000000F0010000008837300220160712000101 00000000000000000000000000000000000000000000000000000000000000000000000000000000000000000000000000000000000000000N 00000000000NCONT   00    00000000000          00000000000000000000000000000000000000000000 000000000000000A000000000000000000000000000000000000000000000 000000000000000000000000000000000000000     00000000                                                                                                                        000000000000000000
F0010000008837300003000007213618800042505000000000000000000201607120002001JAIME LOGREIRA                                    C000000000200000000000000000000000100010010000000000000000000000F0010000008837300320160712000101 00000000000000000000000000000000000000000000000000000000000000000000000000000000000000000000000000000000000000000N 00000000000NCONT   00    00000000000          00000000000000000000000000000000000000000000 000000000000000A000000000000000000000000000000000000000000000 000000000000000000000000000000000000000     00000000                                                                                                                        000000000000000000
F0010000008837300004000007213618800023658300000000000000000201607120002001JAIME LOGREIRA                                    C000000000007200000000000000000000100010010000000000000000000000F0010000008837300420160712000101 00000000000000000000000000000000000000000000000000000000000000000000000000000000000000000000000000000000000000000N 00000000000NCONT   00    00000000000          00000000000000000000000000000000000000000000 000000000000000A000000000000000000000000000000000000000000000 000000000000000000000000000000000000000     00000000                                                                                                                        000000000000000000
F0010000008837300005000007213618800013552100000000000000000201607120002001JAIME LOGREIRA                                    D000000000007200000000000000000000100010010000000000000000000000F0010000008837300520160712000101 00000000000000000000000000000000000000000000000000000000000000000000000000000000000000000000000000000000000000000N 00000000000NCONT   00    00000000000          00000000000000000000000000000000000000000000 000000000000000A000000000000000000000000000000000000000000000 000000000000000000000000000000000000000     00000000                                                                                                                        000000000000000000
F0010000008837400001000007213618800011050500000000000000000201607120002001JAIME LOGREIRA                                    D000000002200000000000000000000000100010010000000000000000000000F0010000008837400120160712000101 00000000000000000000000000000000000000000000000000000000000000000000000000000000000000000000000000000000000000000N 00000000000NCONT   00    00000000000          00000000000000000000000000000000000000000000 000000000000000A000000000000000000000000000000000000000000000 000000000000000000000000000000000000000     00000000                                                                                                                        000000000000000000
F0010000008837400002000007213618800041450500000000000000000201607120002001JAIME LOGREIRA                                    C000000001800000000000000000000000100010010000000000000000000000F0010000008837400220160712000101 00000000000000000000000000000000000000000000000000000000000000000000000000000000000000000000000000000000000000000N 00000000000NCONT   00    00000000000          00000000000000000000000000000000000000000000 000000000000000A000000000000000000000000000000000000000000000 000000000000000000000000000000000000000     00000000                                                                                                                        000000000000000000
F0010000008837400003000007213618800042505000000000000000000201607120002001JAIME LOGREIRA                                    C000000000400000000000000000000000100010010000000000000000000000F0010000008837400320160712000101 00000000000000000000000000000000000000000000000000000000000000000000000000000000000000000000000000000000000000000N 00000000000NCONT   00    00000000000          00000000000000000000000000000000000000000000 000000000000000A000000000000000000000000000000000000000000000 000000000000000000000000000000000000000     00000000                                                                                                                        000000000000000000
F0010000008837400004000007213618800023658300000000000000000201607120002001JAIME LOGREIRA                                    C000000000014400000000000000000000100010010000000000000000000000F0010000008837400420160712000101 00000000000000000000000000000000000000000000000000000000000000000000000000000000000000000000000000000000000000000N 00000000000NCONT   00    00000000000          00000000000000000000000000000000000000000000 000000000000000A000000000000000000000000000000000000000000000 000000000000000000000000000000000000000     00000000                                                                                                                        000000000000000000
F0010000008837400005000007213618800013552100000000000000000201607120002001JAIME LOGREIRA                                    D000000000014400000000000000000000100010010000000000000000000000F0010000008837400520160712000101 00000000000000000000000000000000000000000000000000000000000000000000000000000000000000000000000000000000000000000N 00000000000NCONT   00    00000000000          00000000000000000000000000000000000000000000 000000000000000A000000000000000000000000000000000000000000000 000000000000000000000000000000000000000     00000000                                                                                                                        000000000000000000
F0010000008837500001000090000859400011050500000000000000000201607120002001COMERCIAL JOTACE LTDA                             D000000005000000000000000000000000100010010000000000000000000000F0010000008837500120160712000101 00000000000000000000000000000000000000000000000000000000000000000000000000000000000000000000000000000000000000000N 00000000000NCONT   00    00000000000          00000000000000000000000000000000000000000000 000000000000000A000000000000000000000000000000000000000000000 000000000000000000000000000000000000000     00000000                                                                                                                        000000000000000000
F0010000008837500002000090000859400041450500000000000000000201607120002001COMERCIAL JOTACE LTDA                             C000000004400000000000000000000000100010010000000000000000000000F0010000008837500220160712000101 00000000000000000000000000000000000000000000000000000000000000000000000000000000000000000000000000000000000000000N 00000000000NCONT   00    00000000000          00000000000000000000000000000000000000000000 000000000000000A000000000000000000000000000000000000000000000 000000000000000000000000000000000000000     00000000                                                                                                                        000000000000000000
F0010000008837500003000090000859400042505000000000000000000201607120002001COMERCIAL JOTACE LTDA                             C000000000600000000000000000000000100010010000000000000000000000F0010000008837500320160712000101 00000000000000000000000000000000000000000000000000000000000000000000000000000000000000000000000000000000000000000N 00000000000NCONT   00    00000000000          00000000000000000000000000000000000000000000 000000000000000A000000000000000000000000000000000000000000000 000000000000000000000000000000000000000     00000000                                                                                                                        000000000000000000
F0010000008837500004000090000859400023658300000000000000000201607120002001COMERCIAL JOTACE LTDA                             C000000000035200000000000000000000100010010000000000000000000000F0010000008837500420160712000101 00000000000000000000000000000000000000000000000000000000000000000000000000000000000000000000000000000000000000000N 00000000000NCONT   00    00000000000          00000000000000000000000000000000000000000000 000000000000000A000000000000000000000000000000000000000000000 000000000000000000000000000000000000000     00000000                                                                                                                        000000000000000000
F0010000008837500005000090000859400013552100000000000000000201607120002001COMERCIAL JOTACE LTDA                             D000000000035200000000000000000000100010010000000000000000000000F0010000008837500520160712000101 00000000000000000000000000000000000000000000000000000000000000000000000000000000000000000000000000000000000000000N 00000000000NCONT   00    00000000000          00000000000000000000000000000000000000000000 000000000000000A000000000000000000000000000000000000000000000 000000000000000000000000000000000000000     00000000                                                                                                                        000000000000000000
F0010000008837600001000090000859400011050500000000000000000201607120002001COMERCIAL JOTACE LTDA                             D000000002700000000000000000000000100010010000000000000000000000F0010000008837600120160712000101 00000000000000000000000000000000000000000000000000000000000000000000000000000000000000000000000000000000000000000N 00000000000NCONT   00    00000000000          00000000000000000000000000000000000000000000 000000000000000A000000000000000000000000000000000000000000000 000000000000000000000000000000000000000     00000000                                                                                                                        000000000000000000
F0010000008837600002000090000859400041450500000000000000000201607120002001COMERCIAL JOTACE LTDA                             C000000002200000000000000000000000100010010000000000000000000000F0010000008837600220160712000101 00000000000000000000000000000000000000000000000000000000000000000000000000000000000000000000000000000000000000000N 00000000000NCONT   00    00000000000          00000000000000000000000000000000000000000000 000000000000000A000000000000000000000000000000000000000000000 000000000000000000000000000000000000000     00000000                                                                                                                        000000000000000000
F0010000008837600003000090000859400042505000000000000000000201607120002001COMERCIAL JOTACE LTDA                             C000000000500000000000000000000000100010010000000000000000000000F0010000008837600320160712000101 00000000000000000000000000000000000000000000000000000000000000000000000000000000000000000000000000000000000000000N 00000000000NCONT   00    00000000000          00000000000000000000000000000000000000000000 000000000000000A000000000000000000000000000000000000000000000 000000000000000000000000000000000000000     00000000                                                                                                                        000000000000000000
F0010000008837600004000090000859400023658300000000000000000201607120002001COMERCIAL JOTACE LTDA                             C000000000017600000000000000000000100010010000000000000000000000F0010000008837600420160712000101 00000000000000000000000000000000000000000000000000000000000000000000000000000000000000000000000000000000000000000N 00000000000NCONT   00    00000000000          00000000000000000000000000000000000000000000 000000000000000A000000000000000000000000000000000000000000000 000000000000000000000000000000000000000     00000000                                                                                                                        000000000000000000
F0010000008837600005000090000859400013552100000000000000000201607120002001COMERCIAL JOTACE LTDA                             D000000000017600000000000000000000100010010000000000000000000000F0010000008837600520160712000101 00000000000000000000000000000000000000000000000000000000000000000000000000000000000000000000000000000000000000000N 00000000000NCONT   00    00000000000          00000000000000000000000000000000000000000000 000000000000000A000000000000000000000000000000000000000000000 000000000000000000000000000000000000000     00000000                                                                                                                        000000000000000000
F0010000008837700001000090000859400011050500000000000000000201607120002001COMERCIAL JOTACE LTDA                             D000000003900000000000000000000000100010010000000000000000000000F0010000008837700120160712000101 00000000000000000000000000000000000000000000000000000000000000000000000000000000000000000000000000000000000000000N 00000000000NCONT   00    00000000000          00000000000000000000000000000000000000000000 000000000000000A000000000000000000000000000000000000000000000 000000000000000000000000000000000000000     00000000                                                                                                                        000000000000000000
F0010000008837700002000090000859400041450500000000000000000201607120002001COMERCIAL JOTACE LTDA                             C000000003300000000000000000000000100010010000000000000000000000F0010000008837700220160712000101 00000000000000000000000000000000000000000000000000000000000000000000000000000000000000000000000000000000000000000N 00000000000NCONT   00    00000000000          00000000000000000000000000000000000000000000 000000000000000A000000000000000000000000000000000000000000000 000000000000000000000000000000000000000     00000000                                                                                                                        000000000000000000
F0010000008837700003000090000859400042505000000000000000000201607120002001COMERCIAL JOTACE LTDA                             C000000000600000000000000000000000100010010000000000000000000000F0010000008837700320160712000101 00000000000000000000000000000000000000000000000000000000000000000000000000000000000000000000000000000000000000000N 00000000000NCONT   00    00000000000          00000000000000000000000000000000000000000000 000000000000000A000000000000000000000000000000000000000000000 000000000000000000000000000000000000000     00000000                                                                                                                        000000000000000000
F0010000008837700004000090000859400023658300000000000000000201607120002001COMERCIAL JOTACE LTDA                             C000000000026400000000000000000000100010010000000000000000000000F0010000008837700420160712000101 00000000000000000000000000000000000000000000000000000000000000000000000000000000000000000000000000000000000000000N 00000000000NCONT   00    00000000000          00000000000000000000000000000000000000000000 000000000000000A000000000000000000000000000000000000000000000 000000000000000000000000000000000000000     00000000                                                                                                                        000000000000000000
F0010000008837700005000090000859400013552100000000000000000201607120002001COMERCIAL JOTACE LTDA                             D000000000026400000000000000000000100010010000000000000000000000F0010000008837700520160712000101 00000000000000000000000000000000000000000000000000000000000000000000000000000000000000000000000000000000000000000N 00000000000NCONT   00    00000000000          00000000000000000000000000000000000000000000 000000000000000A000000000000000000000000000000000000000000000 000000000000000000000000000000000000000     00000000                                                                                                                        000000000000000000
F0010000008837800001000080200069100013050500000000000000000201607120002001PEGANTES Y PINTURAS ATLAS LTDA                    D000000051827800000000000000000000100010010000000000000000000000F0010000008837800120160712000101 00000000000000000000000000000000000000000000000000000000000000000000000000000000000000000000000000000000000000000N 00000000000NCONT   00    00000000000          00000000000000000000000000000000000000000000 000000000000000A000000000000000000000000000000000000000000000 000000000000000000000000000000000000000     00000000                                                                                                                        000000000000000000
F0010000008837800002000080200069100041450500000000000000000201607120002001PEGANTES Y PINTURAS ATLAS LTDA                    C000000044550000000000000000000000100010010000000000000000000000F0010000008837800220160712000101 00000000000000000000000000000000000000000000000000000000000000000000000000000000000000000000000000000000000000000N 00000000000NCONT   00    00000000000          00000000000000000000000000000000000000000000 000000000000000A000000000000000000000000000000000000000000000 000000000000000000000000000000000000000     00000000                                                                                                                        000000000000000000
F0010000008837800003000080200069100042505000000000000000000201607120002001PEGANTES Y PINTURAS ATLAS LTDA                    C000000007277800000000000000000000100010010000000000000000000000F0010000008837800320160712000101 00000000000000000000000000000000000000000000000000000000000000000000000000000000000000000000000000000000000000000N 00000000000NCONT   00    00000000000          00000000000000000000000000000000000000000000 000000000000000A000000000000000000000000000000000000000000000 000000000000000000000000000000000000000     00000000                                                                                                                        000000000000000000
F0010000008837800004000080200069100023658300000000000000000201607120002001PEGANTES Y PINTURAS ATLAS LTDA                    C000000000356400000000000000000000100010010000000000000000000000F0010000008837800420160712000101 00000000000000000000000000000000000000000000000000000000000000000000000000000000000000000000000000000000000000000N 00000000000NCONT   00    00000000000          00000000000000000000000000000000000000000000 000000000000000A000000000000000000000000000000000000000000000 000000000000000000000000000000000000000     00000000                                                                                                                        000000000000000000
F0010000008837800005000080200069100013552100000000000000000201607120002001PEGANTES Y PINTURAS ATLAS LTDA                    D000000000356400000000000000000000100010010000000000000000000000F0010000008837800520160712000101 00000000000000000000000000000000000000000000000000000000000000000000000000000000000000000000000000000000000000000N 00000000000NCONT   00    00000000000          00000000000000000000000000000000000000000000 000000000000000A000000000000000000000000000000000000000000000 000000000000000000000000000000000000000     00000000                                                                                                                        000000000000000000
F0010000008837900001000000871714900013050500000000000000000201607120002001ROLNAN DE LA ROSA  INSIGNARES                     D000000059132900000000000000000000100010010000000000000000000000F0010000008837900120160712000101 00000000000000000000000000000000000000000000000000000000000000000000000000000000000000000000000000000000000000000N 00000000000NCONT   00    00000000000          00000000000000000000000000000000000000000000 000000000000000A000000000000000000000000000000000000000000000 000000000000000000000000000000000000000     00000000                                                                                                                        000000000000000000
F0010000008837900002000000871714900041450500000000000000000201607120002001ROLNAN DE LA ROSA  INSIGNARES                     C000000049861900000000000000000000100010010000000000000000000000F0010000008837900220160712000101 00000000000000000000000000000000000000000000000000000000000000000000000000000000000000000000000000000000000000000N 00000000000NCONT   00    00000000000          00000000000000000000000000000000000000000000 000000000000000A000000000000000000000000000000000000000000000 000000000000000000000000000000000000000     00000000                                                                                                                        000000000000000000
F0010000008837900003000000871714900042505000000000000000000201607120002001ROLNAN DE LA ROSA  INSIGNARES                     C000000009271000000000000000000000100010010000000000000000000000F0010000008837900320160712000101 00000000000000000000000000000000000000000000000000000000000000000000000000000000000000000000000000000000000000000N 00000000000NCONT   00    00000000000          00000000000000000000000000000000000000000000 000000000000000A000000000000000000000000000000000000000000000 000000000000000000000000000000000000000     00000000                                                                                                                        000000000000000000
F0010000008837900004000000871714900023658300000000000000000201607120002001ROLNAN DE LA ROSA  INSIGNARES                     C000000000398900000000000000000000100010010000000000000000000000F0010000008837900420160712000101 00000000000000000000000000000000000000000000000000000000000000000000000000000000000000000000000000000000000000000N 00000000000NCONT   00    00000000000          00000000000000000000000000000000000000000000 000000000000000A000000000000000000000000000000000000000000000 000000000000000000000000000000000000000     00000000                                                                                                                        000000000000000000
F0010000008837900005000000871714900013552100000000000000000201607120002001ROLNAN DE LA ROSA  INSIGNARES                     D000000000398900000000000000000000100010010000000000000000000000F0010000008837900520160712000101 00000000000000000000000000000000000000000000000000000000000000000000000000000000000000000000000000000000000000000N 00000000000NCONT   00    00000000000          00000000000000000000000000000000000000000000 000000000000000A000000000000000000000000000000000000000000000 000000000000000000000000000000000000000     00000000                                                                                                                        000000000000000000
F0010000008838000001000090013324200013050500000000000000000201607120002001PLASTICOHEN E.U                                   D000000038590400000000000000000000100010010000000000000000000000F0010000008838000120160712000101 00000000000000000000000000000000000000000000000000000000000000000000000000000000000000000000000000000000000000000N 00000000000NCONT   00    00000000000          00000000000000000000000000000000000000000000 000000000000000A000000000000000000000000000000000000000000000 000000000000000000000000000000000000000     00000000                                                                                                                        000000000000000000
F0010000008838000002000090013324200041450500000000000000000201607120002001PLASTICOHEN E.U                                   C000000036590400000000000000000000100010010000000000000000000000F0010000008838000220160712000101 00000000000000000000000000000000000000000000000000000000000000000000000000000000000000000000000000000000000000000N 00000000000NCONT   00    00000000000          00000000000000000000000000000000000000000000 000000000000000A000000000000000000000000000000000000000000000 000000000000000000000000000000000000000     00000000                                                                                                                        000000000000000000
F0010000008838000003000090013324200042505000000000000000000201607120002001PLASTICOHEN E.U                                   C000000002000000000000000000000000100010010000000000000000000000F0010000008838000320160712000101 00000000000000000000000000000000000000000000000000000000000000000000000000000000000000000000000000000000000000000N 00000000000NCONT   00    00000000000          00000000000000000000000000000000000000000000 000000000000000A000000000000000000000000000000000000000000000 000000000000000000000000000000000000000     00000000                                                                                                                        000000000000000000
F0010000008838000004000090013324200023658300000000000000000201607120002001PLASTICOHEN E.U                                   C000000000292700000000000000000000100010010000000000000000000000F0010000008838000420160712000101 00000000000000000000000000000000000000000000000000000000000000000000000000000000000000000000000000000000000000000N 00000000000NCONT   00    00000000000          00000000000000000000000000000000000000000000 000000000000000A000000000000000000000000000000000000000000000 000000000000000000000000000000000000000     00000000                                                                                                                        000000000000000000
F0010000008838000005000090013324200013552100000000000000000201607120002001PLASTICOHEN E.U                                   D000000000292700000000000000000000100010010000000000000000000000F0010000008838000520160712000101 00000000000000000000000000000000000000000000000000000000000000000000000000000000000000000000000000000000000000000N 00000000000NCONT   00    00000000000          00000000000000000000000000000000000000000000 000000000000000A000000000000000000000000000000000000000000000 000000000000000000000000000000000000000     00000000                                                                                                                        000000000000000000
F0010000008838100001000086000490200013050500000000000000000201607120002001PROV. DE PAPELES ANDINA S.A.                      D000000014968000000000000000000000100010010000000000000000000000F0010000008838100120160712000101 00000000000000000000000000000000000000000000000000000000000000000000000000000000000000000000000000000000000000000N 00000000000NCONT   00    00000000000          00000000000000000000000000000000000000000000 000000000000000A000000000000000000000000000000000000000000000 000000000000000000000000000000000000000     00000000                                                                                                                        000000000000000000
F0010000008838100002000086000490200041450500000000000000000201607120002001PROV. DE PAPELES ANDINA S.A.                      C000000013418800000000000000000000100010010000000000000000000000F0010000008838100220160712000101 00000000000000000000000000000000000000000000000000000000000000000000000000000000000000000000000000000000000000000N 00000000000NCONT   00    00000000000          00000000000000000000000000000000000000000000 000000000000000A000000000000000000000000000000000000000000000 000000000000000000000000000000000000000     00000000                                                                                                                        000000000000000000
F0010000008838100003000086000490200042505000000000000000000201607120002001PROV. DE PAPELES ANDINA S.A.                      C000000001549200000000000000000000100010010000000000000000000000F0010000008838100320160712000101 00000000000000000000000000000000000000000000000000000000000000000000000000000000000000000000000000000000000000000N 00000000000NCONT   00    00000000000          00000000000000000000000000000000000000000000 000000000000000A000000000000000000000000000000000000000000000 000000000000000000000000000000000000000     00000000                                                                                                                        000000000000000000
F0010000008838100004000086000490200023658300000000000000000201607120002001PROV. DE PAPELES ANDINA S.A.                      C000000000107400000000000000000000100010010000000000000000000000F0010000008838100420160712000101 00000000000000000000000000000000000000000000000000000000000000000000000000000000000000000000000000000000000000000N 00000000000NCONT   00    00000000000          00000000000000000000000000000000000000000000 000000000000000A000000000000000000000000000000000000000000000 000000000000000000000000000000000000000     00000000                                                                                                                        000000000000000000
F0010000008838100005000086000490200013552100000000000000000201607120002001PROV. DE PAPELES ANDINA S.A.                      D000000000107400000000000000000000100010010000000000000000000000F0010000008838100520160712000101 00000000000000000000000000000000000000000000000000000000000000000000000000000000000000000000000000000000000000000N 00000000000NCONT   00    00000000000          00000000000000000000000000000000000000000000 000000000000000A000000000000000000000000000000000000000000000 000000000000000000000000000000000000000     00000000                                                                                                                        000000000000000000
F0010000008838200001000002245670100013050500000000000000000201607120002001YOLANDA  TOBON                                    D000000029050600000000000000000000100010010000000000000000000000F0010000008838200120160712000101 00000000000000000000000000000000000000000000000000000000000000000000000000000000000000000000000000000000000000000N 00000000000NCONT   00    00000000000          00000000000000000000000000000000000000000000 000000000000000A000000000000000000000000000000000000000000000 000000000000000000000000000000000000000     00000000                                                                                                                        000000000000000000
F0010000008838200002000002245670100041450500000000000000000201607120002001YOLANDA  TOBON                                    C000000022240000000000000000000000100010010000000000000000000000F0010000008838200220160712000101 00000000000000000000000000000000000000000000000000000000000000000000000000000000000000000000000000000000000000000N 00000000000NCONT   00    00000000000          00000000000000000000000000000000000000000000 000000000000000A000000000000000000000000000000000000000000000 000000000000000000000000000000000000000     00000000                                                                                                                        000000000000000000
F0010000008838200003000002245670100042505000000000000000000201607120002001YOLANDA  TOBON                                    C000000006810600000000000000000000100010010000000000000000000000F0010000008838200320160712000101 00000000000000000000000000000000000000000000000000000000000000000000000000000000000000000000000000000000000000000N 00000000000NCONT   00    00000000000          00000000000000000000000000000000000000000000 000000000000000A000000000000000000000000000000000000000000000 000000000000000000000000000000000000000     00000000                                                                                                                        000000000000000000
F0010000008838200004000002245670100023658300000000000000000201607120002001YOLANDA  TOBON                                    C000000000177900000000000000000000100010010000000000000000000000F0010000008838200420160712000101 00000000000000000000000000000000000000000000000000000000000000000000000000000000000000000000000000000000000000000N 00000000000NCONT   00    00000000000          00000000000000000000000000000000000000000000 000000000000000A000000000000000000000000000000000000000000000 000000000000000000000000000000000000000     00000000                                                                                                                        000000000000000000
F0010000008838200005000002245670100013552100000000000000000201607120002001YOLANDA  TOBON                                    D000000000177900000000000000000000100010010000000000000000000000F0010000008838200520160712000101 00000000000000000000000000000000000000000000000000000000000000000000000000000000000000000000000000000000000000000N 00000000000NCONT   00    00000000000          00000000000000000000000000000000000000000000 000000000000000A000000000000000000000000000000000000000000000 000000000000000000000000000000000000000     00000000                                                                                                                        000000000000000000
F0010000008838300001000000748239700013050500000000000000000201607120002001RAFAEL NAVARRO URIBE                              D000000019332600000000000000000000100010010000000000000000000000F0010000008838300120160712000101 00000000000000000000000000000000000000000000000000000000000000000000000000000000000000000000000000000000000000000N 00000000000NCONT   00    00000000000          00000000000000000000000000000000000000000000 000000000000000A000000000000000000000000000000000000000000000 000000000000000000000000000000000000000     00000000                                                                                                                        000000000000000000
F0010000008838300002000000748239700041450500000000000000000201607120002001RAFAEL NAVARRO URIBE                              C000000006820000000000000000000000100010010000000000000000000000F0010000008838300220160712000101 00000000000000000000000000000000000000000000000000000000000000000000000000000000000000000000000000000000000000000N 00000000000NCONT   00    00000000000          00000000000000000000000000000000000000000000 000000000000000A000000000000000000000000000000000000000000000 000000000000000000000000000000000000000     00000000                                                                                                                        000000000000000000
F0010000008838300003000000748239700042505000000000000000000201607120002001RAFAEL NAVARRO URIBE                              C000000012512600000000000000000000100010010000000000000000000000F0010000008838300320160712000101 00000000000000000000000000000000000000000000000000000000000000000000000000000000000000000000000000000000000000000N 00000000000NCONT   00    00000000000          00000000000000000000000000000000000000000000 000000000000000A000000000000000000000000000000000000000000000 000000000000000000000000000000000000000     00000000                                                                                                                        000000000000000000
F0010000008838300004000000748239700023658300000000000000000201607120002001RAFAEL NAVARRO URIBE                              C000000000054600000000000000000000100010010000000000000000000000F0010000008838300420160712000101 00000000000000000000000000000000000000000000000000000000000000000000000000000000000000000000000000000000000000000N 00000000000NCONT   00    00000000000          00000000000000000000000000000000000000000000 000000000000000A000000000000000000000000000000000000000000000 000000000000000000000000000000000000000     00000000                                                                                                                        000000000000000000
F0010000008838300005000000748239700013552100000000000000000201607120002001RAFAEL NAVARRO URIBE                              D000000000054600000000000000000000100010010000000000000000000000F0010000008838300520160712000101 00000000000000000000000000000000000000000000000000000000000000000000000000000000000000000000000000000000000000000N 00000000000NCONT   00    00000000000          00000000000000000000000000000000000000000000 000000000000000A000000000000000000000000000000000000000000000 000000000000000000000000000000000000000     00000000                                                                                                                        000000000000000000
F0010000008838400001000090009800500013050500000000000000000201607120002001GLORIANT CHEMICAL DE COLOMBIA LTDA                D000000029448000000000000000000000100010010000000000000000000000F0010000008838400120160712000101 00000000000000000000000000000000000000000000000000000000000000000000000000000000000000000000000000000000000000000N 00000000000NCONT   00    00000000000          00000000000000000000000000000000000000000000 000000000000000A000000000000000000000000000000000000000000000 000000000000000000000000000000000000000     00000000                                                                                                                        000000000000000000
F0010000008838400002000090009800500041450500000000000000000201607120002001GLORIANT CHEMICAL DE COLOMBIA LTDA                C000000022780000000000000000000000100010010000000000000000000000F0010000008838400220160712000101 00000000000000000000000000000000000000000000000000000000000000000000000000000000000000000000000000000000000000000N 00000000000NCONT   00    00000000000          00000000000000000000000000000000000000000000 000000000000000A000000000000000000000000000000000000000000000 000000000000000000000000000000000000000     00000000                                                                                                                        000000000000000000
F0010000008838400003000090009800500042505000000000000000000201607120002001GLORIANT CHEMICAL DE COLOMBIA LTDA                C000000006668000000000000000000000100010010000000000000000000000F0010000008838400320160712000101 00000000000000000000000000000000000000000000000000000000000000000000000000000000000000000000000000000000000000000N 00000000000NCONT   00    00000000000          00000000000000000000000000000000000000000000 000000000000000A000000000000000000000000000000000000000000000 000000000000000000000000000000000000000     00000000                                                                                                                        000000000000000000
F0010000008838400004000090009800500023658300000000000000000201607120002001GLORIANT CHEMICAL DE COLOMBIA LTDA                C000000000182200000000000000000000100010010000000000000000000000F0010000008838400420160712000101 00000000000000000000000000000000000000000000000000000000000000000000000000000000000000000000000000000000000000000N 00000000000NCONT   00    00000000000          00000000000000000000000000000000000000000000 000000000000000A000000000000000000000000000000000000000000000 000000000000000000000000000000000000000     00000000                                                                                                                        000000000000000000
F0010000008838400005000090009800500013552100000000000000000201607120002001GLORIANT CHEMICAL DE COLOMBIA LTDA                D000000000182200000000000000000000100010010000000000000000000000F0010000008838400520160712000101 00000000000000000000000000000000000000000000000000000000000000000000000000000000000000000000000000000000000000000N 00000000000NCONT   00    00000000000          00000000000000000000000000000000000000000000 000000000000000A000000000000000000000000000000000000000000000 000000000000000000000000000000000000000     00000000                                                                                                                        000000000000000000
F0010000008838600001000083007900600013050500000000000000000201607120002001EXPRESO ANDINO DE CARGA SA                        D000000044500000000000000000000000100010010000000000000000000000F0010000008838600120160712000101 00000000000000000000000000000000000000000000000000000000000000000000000000000000000000000000000000000000000000000N 00000000000NCONT   00    00000000000          00000000000000000000000000000000000000000000 000000000000000A000000000000000000000000000000000000000000000 000000000000000000000000000000000000000     00000000                                                                                                                        000000000000000000
F0010000008838600002000083007900600041450500000000000000000201607120002001EXPRESO ANDINO DE CARGA SA                        C000000043800000000000000000000000100010010000000000000000000000F0010000008838600220160712000101 00000000000000000000000000000000000000000000000000000000000000000000000000000000000000000000000000000000000000000N 00000000000NCONT   00    00000000000          00000000000000000000000000000000000000000000 000000000000000A000000000000000000000000000000000000000000000 000000000000000000000000000000000000000     00000000                                                                                                                        000000000000000000
F0010000008838600003000083007900600042505000000000000000000201607120002001EXPRESO ANDINO DE CARGA SA                        C000000000700000000000000000000000100010010000000000000000000000F0010000008838600320160712000101 00000000000000000000000000000000000000000000000000000000000000000000000000000000000000000000000000000000000000000N 00000000000NCONT   00    00000000000          00000000000000000000000000000000000000000000 000000000000000A000000000000000000000000000000000000000000000 000000000000000000000000000000000000000     00000000                                                                                                                        000000000000000000
F0010000008838600004000083007900600023658300000000000000000201607120002001EXPRESO ANDINO DE CARGA SA                        C000000000350400000000000000000000100010010000000000000000000000F0010000008838600420160712000101 00000000000000000000000000000000000000000000000000000000000000000000000000000000000000000000000000000000000000000N 00000000000NCONT   00    00000000000          00000000000000000000000000000000000000000000 000000000000000A000000000000000000000000000000000000000000000 000000000000000000000000000000000000000     00000000                                                                                                                        000000000000000000
F0010000008838600005000083007900600013552100000000000000000201607120002001EXPRESO ANDINO DE CARGA SA                        D000000000350400000000000000000000100010010000000000000000000000F0010000008838600520160712000101 00000000000000000000000000000000000000000000000000000000000000000000000000000000000000000000000000000000000000000N 00000000000NCONT   00    00000000000          00000000000000000000000000000000000000000000 000000000000000A000000000000000000000000000000000000000000000 000000000000000000000000000000000000000     00000000                                                                                                                        000000000000000000
F0010000008838700001000090008711200013050500000000000000000201607120002001PACKAGING SUPPLIERS S.A.                          D000000037427900000000000000000000100010010000000000000000000000F0010000008838700120160712000101 00000000000000000000000000000000000000000000000000000000000000000000000000000000000000000000000000000000000000000N 00000000000NCONT   00    00000000000          00000000000000000000000000000000000000000000 000000000000000A000000000000000000000000000000000000000000000 000000000000000000000000000000000000000     00000000                                                                                                                        000000000000000000
F0010000008838700002000090008711200041450500000000000000000201607120002001PACKAGING SUPPLIERS S.A.                          C000000029612900000000000000000000100010010000000000000000000000F0010000008838700220160712000101 00000000000000000000000000000000000000000000000000000000000000000000000000000000000000000000000000000000000000000N 00000000000NCONT   00    00000000000          00000000000000000000000000000000000000000000 000000000000000A000000000000000000000000000000000000000000000 000000000000000000000000000000000000000     00000000                                                                                                                        000000000000000000
F0010000008838700003000090008711200042505000000000000000000201607120002001PACKAGING SUPPLIERS S.A.                          C000000007815000000000000000000000100010010000000000000000000000F0010000008838700320160712000101 00000000000000000000000000000000000000000000000000000000000000000000000000000000000000000000000000000000000000000N 00000000000NCONT   00    00000000000          00000000000000000000000000000000000000000000 000000000000000A000000000000000000000000000000000000000000000 000000000000000000000000000000000000000     00000000                                                                                                                        000000000000000000
F0010000008838700004000090008711200023658300000000000000000201607120002001PACKAGING SUPPLIERS S.A.                          C000000000236900000000000000000000100010010000000000000000000000F0010000008838700420160712000101 00000000000000000000000000000000000000000000000000000000000000000000000000000000000000000000000000000000000000000N 00000000000NCONT   00    00000000000          00000000000000000000000000000000000000000000 000000000000000A000000000000000000000000000000000000000000000 000000000000000000000000000000000000000     00000000                                                                                                                        000000000000000000
F0010000008838700005000090008711200013552100000000000000000201607120002001PACKAGING SUPPLIERS S.A.                          D000000000236900000000000000000000100010010000000000000000000000F0010000008838700520160712000101 00000000000000000000000000000000000000000000000000000000000000000000000000000000000000000000000000000000000000000N 00000000000NCONT   00    00000000000          00000000000000000000000000000000000000000000 000000000000000A000000000000000000000000000000000000000000000 000000000000000000000000000000000000000     00000000                                                                                                                        000000000000000000
F0010000008838800001000080202094000013050500000000000000000201607120002001DISTRIB. OMAR ORREGO S.A.                         D000000061805300000000000000000000100010010000000000000000000000F0010000008838800120160712000101 00000000000000000000000000000000000000000000000000000000000000000000000000000000000000000000000000000000000000000N 00000000000NCONT   00    00000000000          00000000000000000000000000000000000000000000 000000000000000A000000000000000000000000000000000000000000000 000000000000000000000000000000000000000     00000000                                                                                                                        000000000000000000
F0010000008838800002000080202094000041450500000000000000000201607120002001DISTRIB. OMAR ORREGO S.A.                         C000000036280000000000000000000000100010010000000000000000000000F0010000008838800220160712000101 00000000000000000000000000000000000000000000000000000000000000000000000000000000000000000000000000000000000000000N 00000000000NCONT   00    00000000000          00000000000000000000000000000000000000000000 000000000000000A000000000000000000000000000000000000000000000 000000000000000000000000000000000000000     00000000                                                                                                                        000000000000000000
F0010000008838800003000080202094000042505000000000000000000201607120002001DISTRIB. OMAR ORREGO S.A.                         C000000025525300000000000000000000100010010000000000000000000000F0010000008838800320160712000101 00000000000000000000000000000000000000000000000000000000000000000000000000000000000000000000000000000000000000000N 00000000000NCONT   00    00000000000          00000000000000000000000000000000000000000000 000000000000000A000000000000000000000000000000000000000000000 000000000000000000000000000000000000000     00000000                                                                                                                        000000000000000000
F0010000008838800004000080202094000023658300000000000000000201607120002001DISTRIB. OMAR ORREGO S.A.                         C000000000290200000000000000000000100010010000000000000000000000F0010000008838800420160712000101 00000000000000000000000000000000000000000000000000000000000000000000000000000000000000000000000000000000000000000N 00000000000NCONT   00    00000000000          00000000000000000000000000000000000000000000 000000000000000A000000000000000000000000000000000000000000000 000000000000000000000000000000000000000     00000000                                                                                                                        000000000000000000
F0010000008838800005000080202094000013552100000000000000000201607120002001DISTRIB. OMAR ORREGO S.A.                         D000000000290200000000000000000000100010010000000000000000000000F0010000008838800520160712000101 00000000000000000000000000000000000000000000000000000000000000000000000000000000000000000000000000000000000000000N 00000000000NCONT   00    00000000000          00000000000000000000000000000000000000000000 000000000000000A000000000000000000000000000000000000000000000 000000000000000000000000000000000000000     00000000                                                                                                                        000000000000000000
F0010000008838900001000080000083500013050500000000000000000201607120002001ALIPAR Y CIA LTDA                                 D000000019140000000000000000000000100010010000000000000000000000F0010000008838900120160712000101 00000000000000000000000000000000000000000000000000000000000000000000000000000000000000000000000000000000000000000N 00000000000NCONT   00    00000000000          00000000000000000000000000000000000000000000 000000000000000A000000000000000000000000000000000000000000000 000000000000000000000000000000000000000     00000000                                                                                                                        000000000000000000
F0010000008838900002000080000083500041450500000000000000000201607120002001ALIPAR Y CIA LTDA                                 C000000017840000000000000000000000100010010000000000000000000000F0010000008838900220160712000101 00000000000000000000000000000000000000000000000000000000000000000000000000000000000000000000000000000000000000000N 00000000000NCONT   00    00000000000          00000000000000000000000000000000000000000000 000000000000000A000000000000000000000000000000000000000000000 000000000000000000000000000000000000000     00000000                                                                                                                        000000000000000000
F0010000008838900003000080000083500042505000000000000000000201607120002001ALIPAR Y CIA LTDA                                 C000000001300000000000000000000000100010010000000000000000000000F0010000008838900320160712000101 00000000000000000000000000000000000000000000000000000000000000000000000000000000000000000000000000000000000000000N 00000000000NCONT   00    00000000000          00000000000000000000000000000000000000000000 000000000000000A000000000000000000000000000000000000000000000 000000000000000000000000000000000000000     00000000                                                                                                                        000000000000000000
F0010000008838900004000080000083500023658300000000000000000201607120002001ALIPAR Y CIA LTDA                                 C000000000142700000000000000000000100010010000000000000000000000F0010000008838900420160712000101 00000000000000000000000000000000000000000000000000000000000000000000000000000000000000000000000000000000000000000N 00000000000NCONT   00    00000000000          00000000000000000000000000000000000000000000 000000000000000A000000000000000000000000000000000000000000000 000000000000000000000000000000000000000     00000000                                                                                                                        000000000000000000
F0010000008838900005000080000083500013552100000000000000000201607120002001ALIPAR Y CIA LTDA                                 D000000000142700000000000000000000100010010000000000000000000000F0010000008838900520160712000101 00000000000000000000000000000000000000000000000000000000000000000000000000000000000000000000000000000000000000000N 00000000000NCONT   00    00000000000          00000000000000000000000000000000000000000000 000000000000000A000000000000000000000000000000000000000000000 000000000000000000000000000000000000000     00000000                                                                                                                        000000000000000000
F0010000008839000001000080202094000013050500000000000000000201607120002001DISTRIB. OMAR ORREGO S.A.                         D000000009042500000000000000000000100010010000000000000000000000F0010000008839000120160712000101 00000000000000000000000000000000000000000000000000000000000000000000000000000000000000000000000000000000000000000N 00000000000NCONT   00    00000000000          00000000000000000000000000000000000000000000 000000000000000A000000000000000000000000000000000000000000000 000000000000000000000000000000000000000     00000000                                                                                                                        000000000000000000
F0010000008839000002000080202094000041450500000000000000000201607120002001DISTRIB. OMAR ORREGO S.A.                         C000000005880000000000000000000000100010010000000000000000000000F0010000008839000220160712000101 00000000000000000000000000000000000000000000000000000000000000000000000000000000000000000000000000000000000000000N 00000000000NCONT   00    00000000000          00000000000000000000000000000000000000000000 000000000000000A000000000000000000000000000000000000000000000 000000000000000000000000000000000000000     00000000                                                                                                                        000000000000000000
F0010000008839000003000080202094000042505000000000000000000201607120002001DISTRIB. OMAR ORREGO S.A.                         C000000003162500000000000000000000100010010000000000000000000000F0010000008839000320160712000101 00000000000000000000000000000000000000000000000000000000000000000000000000000000000000000000000000000000000000000N 00000000000NCONT   00    00000000000          00000000000000000000000000000000000000000000 000000000000000A000000000000000000000000000000000000000000000 000000000000000000000000000000000000000     00000000                                                                                                                        000000000000000000
F0010000008839000004000080202094000023658300000000000000000201607120002001DISTRIB. OMAR ORREGO S.A.                         C000000000047000000000000000000000100010010000000000000000000000F0010000008839000420160712000101 00000000000000000000000000000000000000000000000000000000000000000000000000000000000000000000000000000000000000000N 00000000000NCONT   00    00000000000          00000000000000000000000000000000000000000000 000000000000000A000000000000000000000000000000000000000000000 000000000000000000000000000000000000000     00000000                                                                                                                        000000000000000000
F0010000008839000005000080202094000013552100000000000000000201607120002001DISTRIB. OMAR ORREGO S.A.                         D000000000047000000000000000000000100010010000000000000000000000F0010000008839000520160712000101 00000000000000000000000000000000000000000000000000000000000000000000000000000000000000000000000000000000000000000N 00000000000NCONT   00    00000000000          00000000000000000000000000000000000000000000 000000000000000A000000000000000000000000000000000000000000000 000000000000000000000000000000000000000     00000000                                                                                                                        000000000000000000
F0010000008839100001000089010260300013050500000000000000000201607120002001FEDERICO OSORIO A. S.A.                           D000000109242200000000000000000000100010010000000000000000000000F0010000008839100120160712000101 00000000000000000000000000000000000000000000000000000000000000000000000000000000000000000000000000000000000000000N 00000000000NCONT   00    00000000000          00000000000000000000000000000000000000000000 000000000000000A000000000000000000000000000000000000000000000 000000000000000000000000000000000000000     00000000                                                                                                                        000000000000000000
F0010000008839100002000089010260300041450500000000000000000201607120002001FEDERICO OSORIO A. S.A.                           C000000101190000000000000000000000100010010000000000000000000000F0010000008839100220160712000101 00000000000000000000000000000000000000000000000000000000000000000000000000000000000000000000000000000000000000000N 00000000000NCONT   00    00000000000          00000000000000000000000000000000000000000000 000000000000000A000000000000000000000000000000000000000000000 000000000000000000000000000000000000000     00000000                                                                                                                        000000000000000000
F0010000008839100003000089010260300042505000000000000000000201607120002001FEDERICO OSORIO A. S.A.                           C000000008052200000000000000000000100010010000000000000000000000F0010000008839100320160712000101 00000000000000000000000000000000000000000000000000000000000000000000000000000000000000000000000000000000000000000N 00000000000NCONT   00    00000000000          00000000000000000000000000000000000000000000 000000000000000A000000000000000000000000000000000000000000000 000000000000000000000000000000000000000     00000000                                                                                                                        000000000000000000
F0010000008839100004000089010260300023658300000000000000000201607120002001FEDERICO OSORIO A. S.A.                           C000000000809500000000000000000000100010010000000000000000000000F0010000008839100420160712000101 00000000000000000000000000000000000000000000000000000000000000000000000000000000000000000000000000000000000000000N 00000000000NCONT   00    00000000000          00000000000000000000000000000000000000000000 000000000000000A000000000000000000000000000000000000000000000 000000000000000000000000000000000000000     00000000                                                                                                                        000000000000000000
F0010000008839100005000089010260300013552100000000000000000201607120002001FEDERICO OSORIO A. S.A.                           D000000000809500000000000000000000100010010000000000000000000000F0010000008839100520160712000101 00000000000000000000000000000000000000000000000000000000000000000000000000000000000000000000000000000000000000000N 00000000000NCONT   00    00000000000          00000000000000000000000000000000000000000000 000000000000000A000000000000000000000000000000000000000000000 000000000000000000000000000000000000000     00000000                                                                                                                        000000000000000000
F0010000008839200001000089010260300013050500000000000000000201607120002001FEDERICO OSORIO A. S.A.                           D000000155255800000000000000000000100010010000000000000000000000F0010000008839200120160712000101 00000000000000000000000000000000000000000000000000000000000000000000000000000000000000000000000000000000000000000N 00000000000NCONT   00    00000000000          00000000000000000000000000000000000000000000 000000000000000A000000000000000000000000000000000000000000000 000000000000000000000000000000000000000     00000000                                                                                                                        000000000000000000
F0010000008839200002000089010260300041450500000000000000000201607120002001FEDERICO OSORIO A. S.A.                           C000000147450000000000000000000000100010010000000000000000000000F0010000008839200220160712000101 00000000000000000000000000000000000000000000000000000000000000000000000000000000000000000000000000000000000000000N 00000000000NCONT   00    00000000000          00000000000000000000000000000000000000000000 000000000000000A000000000000000000000000000000000000000000000 000000000000000000000000000000000000000     00000000                                                                                                                        000000000000000000
F0010000008839200003000089010260300042505000000000000000000201607120002001FEDERICO OSORIO A. S.A.                           C000000007805800000000000000000000100010010000000000000000000000F0010000008839200320160712000101 00000000000000000000000000000000000000000000000000000000000000000000000000000000000000000000000000000000000000000N 00000000000NCONT   00    00000000000          00000000000000000000000000000000000000000000 000000000000000A000000000000000000000000000000000000000000000 000000000000000000000000000000000000000     00000000                                                                                                                        000000000000000000
F0010000008839200004000089010260300023658300000000000000000201607120002001FEDERICO OSORIO A. S.A.                           C000000001179600000000000000000000100010010000000000000000000000F0010000008839200420160712000101 00000000000000000000000000000000000000000000000000000000000000000000000000000000000000000000000000000000000000000N 00000000000NCONT   00    00000000000          00000000000000000000000000000000000000000000 000000000000000A000000000000000000000000000000000000000000000 000000000000000000000000000000000000000     00000000                                                                                                                        000000000000000000
F0010000008839200005000089010260300013552100000000000000000201607120002001FEDERICO OSORIO A. S.A.                           D000000001179600000000000000000000100010010000000000000000000000F0010000008839200520160712000101 00000000000000000000000000000000000000000000000000000000000000000000000000000000000000000000000000000000000000000N 00000000000NCONT   00    00000000000          00000000000000000000000000000000000000000000 000000000000000A000000000000000000000000000000000000000000000 000000000000000000000000000000000000000     00000000                                                                                                                        000000000000000000
F0010000008839300001000080004943800013050500000000000000000201607120002001PAPELERIA EL CID S.A.                             D000000057487500000000000000000000100010010000000000000000000000F0010000008839300120160712000101 00000000000000000000000000000000000000000000000000000000000000000000000000000000000000000000000000000000000000000N 00000000000NCONT   00    00000000000          00000000000000000000000000000000000000000000 000000000000000A000000000000000000000000000000000000000000000 000000000000000000000000000000000000000     00000000                                                                                                                        000000000000000000
F0010000008839300002000080004943800041450500000000000000000201607120002001PAPELERIA EL CID S.A.                             C000000044140000000000000000000000100010010000000000000000000000F0010000008839300220160712000101 00000000000000000000000000000000000000000000000000000000000000000000000000000000000000000000000000000000000000000N 00000000000NCONT   00    00000000000          00000000000000000000000000000000000000000000 000000000000000A000000000000000000000000000000000000000000000 000000000000000000000000000000000000000     00000000                                                                                                                        000000000000000000
F0010000008839300003000080004943800042505000000000000000000201607120002001PAPELERIA EL CID S.A.                             C000000013347500000000000000000000100010010000000000000000000000F0010000008839300320160712000101 00000000000000000000000000000000000000000000000000000000000000000000000000000000000000000000000000000000000000000N 00000000000NCONT   00    00000000000          00000000000000000000000000000000000000000000 000000000000000A000000000000000000000000000000000000000000000 000000000000000000000000000000000000000     00000000                                                                                                                        000000000000000000
F0010000008839300004000080004943800023658300000000000000000201607120002001PAPELERIA EL CID S.A.                             C000000000353100000000000000000000100010010000000000000000000000F0010000008839300420160712000101 00000000000000000000000000000000000000000000000000000000000000000000000000000000000000000000000000000000000000000N 00000000000NCONT   00    00000000000          00000000000000000000000000000000000000000000 000000000000000A000000000000000000000000000000000000000000000 000000000000000000000000000000000000000     00000000                                                                                                                        000000000000000000
F0010000008839300005000080004943800013552100000000000000000201607120002001PAPELERIA EL CID S.A.                             D000000000353100000000000000000000100010010000000000000000000000F0010000008839300520160712000101 00000000000000000000000000000000000000000000000000000000000000000000000000000000000000000000000000000000000000000N 00000000000NCONT   00    00000000000          00000000000000000000000000000000000000000000 000000000000000A000000000000000000000000000000000000000000000 000000000000000000000000000000000000000     00000000                                                                                                                        000000000000000000
F0010000008839400001000080004943800013050500000000000000000201607120002001PAPELERIA EL CID S.A.                             D000000031880000000000000000000000100010010000000000000000000000F0010000008839400120160712000101 00000000000000000000000000000000000000000000000000000000000000000000000000000000000000000000000000000000000000000N 00000000000NCONT   00    00000000000          00000000000000000000000000000000000000000000 000000000000000A000000000000000000000000000000000000000000000 000000000000000000000000000000000000000     00000000                                                                                                                        000000000000000000
F0010000008839400002000080004943800041450500000000000000000201607120002001PAPELERIA EL CID S.A.                             C000000024820000000000000000000000100010010000000000000000000000F0010000008839400220160712000101 00000000000000000000000000000000000000000000000000000000000000000000000000000000000000000000000000000000000000000N 00000000000NCONT   00    00000000000          00000000000000000000000000000000000000000000 000000000000000A000000000000000000000000000000000000000000000 000000000000000000000000000000000000000     00000000                                                                                                                        000000000000000000
F0010000008839400003000080004943800042505000000000000000000201607120002001PAPELERIA EL CID S.A.                             C000000007060000000000000000000000100010010000000000000000000000F0010000008839400320160712000101 00000000000000000000000000000000000000000000000000000000000000000000000000000000000000000000000000000000000000000N 00000000000NCONT   00    00000000000          00000000000000000000000000000000000000000000 000000000000000A000000000000000000000000000000000000000000000 000000000000000000000000000000000000000     00000000                                                                                                                        000000000000000000
F0010000008839400004000080004943800023658300000000000000000201607120002001PAPELERIA EL CID S.A.                             C000000000198600000000000000000000100010010000000000000000000000F0010000008839400420160712000101 00000000000000000000000000000000000000000000000000000000000000000000000000000000000000000000000000000000000000000N 00000000000NCONT   00    00000000000          00000000000000000000000000000000000000000000 000000000000000A000000000000000000000000000000000000000000000 000000000000000000000000000000000000000     00000000                                                                                                                        000000000000000000
F0010000008839400005000080004943800013552100000000000000000201607120002001PAPELERIA EL CID S.A.                             D000000000198600000000000000000000100010010000000000000000000000F0010000008839400520160712000101 00000000000000000000000000000000000000000000000000000000000000000000000000000000000000000000000000000000000000000N 00000000000NCONT   00    00000000000          00000000000000000000000000000000000000000000 000000000000000A000000000000000000000000000000000000000000000 000000000000000000000000000000000000000     00000000                                                                                                                        000000000000000000
F0010000008839500001000081102758700013050500000000000000000201607120002001C.I. ABRACOL S.A EMA                              D000000069765000000000000000000000100010010000000000000000000000F0010000008839500120160712000101 00000000000000000000000000000000000000000000000000000000000000000000000000000000000000000000000000000000000000000N 00000000000NCONT   00    00000000000          00000000000000000000000000000000000000000000 000000000000000A000000000000000000000000000000000000000000000 000000000000000000000000000000000000000     00000000                                                                                                                        000000000000000000
F0010000008839500002000081102758700041450500000000000000000201607120002001C.I. ABRACOL S.A EMA                              C000000050040000000000000000000000100010010000000000000000000000F0010000008839500220160712000101 00000000000000000000000000000000000000000000000000000000000000000000000000000000000000000000000000000000000000000N 00000000000NCONT   00    00000000000          00000000000000000000000000000000000000000000 000000000000000A000000000000000000000000000000000000000000000 000000000000000000000000000000000000000     00000000                                                                                                                        000000000000000000
F0010000008839500003000081102758700041750100000000000000000201607120002001C.I. ABRACOL S.A EMA                              D000000001501200000000000000000000100010010000000000000000000000F0010000008839500320160712000101 00000000000000000000000000000000000000000000000000000000000000000000000000000000000000000000000000000000000000000N 00000000000NCONT   00    00000000000          00000000000000000000000000000000000000000000 000000000000000A000000000000000000000000000000000000000000000 000000000000000000000000000000000000000     00000000                                                                                                                        000000000000000000
F0010000008839500004000081102758700042505000000000000000000201607120002001C.I. ABRACOL S.A EMA                              C000000021226200000000000000000000100010010000000000000000000000F0010000008839500420160712000101 00000000000000000000000000000000000000000000000000000000000000000000000000000000000000000000000000000000000000000N 00000000000NCONT   00    00000000000          00000000000000000000000000000000000000000000 000000000000000A000000000000000000000000000000000000000000000 000000000000000000000000000000000000000     00000000                                                                                                                        000000000000000000
F0010000008839500005000081102758700023658300000000000000000201607120002001C.I. ABRACOL S.A EMA                              C000000000400300000000000000000000100010010000000000000000000000F0010000008839500520160712000101 00000000000000000000000000000000000000000000000000000000000000000000000000000000000000000000000000000000000000000N 00000000000NCONT   00    00000000000          00000000000000000000000000000000000000000000 000000000000000A000000000000000000000000000000000000000000000 000000000000000000000000000000000000000     00000000                                                                                                                        000000000000000000
F0010000008839500006000081102758700013552100000000000000000201607120002001C.I. ABRACOL S.A EMA                              D000000000400300000000000000000000100010010000000000000000000000F0010000008839500620160712000101 00000000000000000000000000000000000000000000000000000000000000000000000000000000000000000000000000000000000000000N 00000000000NCONT   00    00000000000          00000000000000000000000000000000000000000000 000000000000000A000000000000000000000000000000000000000000000 000000000000000000000000000000000000000     00000000                                                                                                                        000000000000000000
F0010000008839600001000081102758700013050500000000000000000201607120002001C.I. ABRACOL S.A EMA                              D000000080299800000000000000000000100010010000000000000000000000F0010000008839600120160712000101 00000000000000000000000000000000000000000000000000000000000000000000000000000000000000000000000000000000000000000N 00000000000NCONT   00    00000000000          00000000000000000000000000000000000000000000 000000000000000A000000000000000000000000000000000000000000000 000000000000000000000000000000000000000     00000000                                                                                                                        000000000000000000
F0010000008839600002000081102758700041450500000000000000000201607120002001C.I. ABRACOL S.A EMA                              C000000051660000000000000000000000100010010000000000000000000000F0010000008839600220160712000101 00000000000000000000000000000000000000000000000000000000000000000000000000000000000000000000000000000000000000000N 00000000000NCONT   00    00000000000          00000000000000000000000000000000000000000000 000000000000000A000000000000000000000000000000000000000000000 000000000000000000000000000000000000000     00000000                                                                                                                        000000000000000000
F0010000008839600003000081102758700041750100000000000000000201607120002001C.I. ABRACOL S.A EMA                              D000000001549800000000000000000000100010010000000000000000000000F0010000008839600320160712000101 00000000000000000000000000000000000000000000000000000000000000000000000000000000000000000000000000000000000000000N 00000000000NCONT   00    00000000000          00000000000000000000000000000000000000000000 000000000000000A000000000000000000000000000000000000000000000 000000000000000000000000000000000000000     00000000                                                                                                                        000000000000000000
F0010000008839600004000081102758700042505000000000000000000201607120002001C.I. ABRACOL S.A EMA                              C000000030189600000000000000000000100010010000000000000000000000F0010000008839600420160712000101 00000000000000000000000000000000000000000000000000000000000000000000000000000000000000000000000000000000000000000N 00000000000NCONT   00    00000000000          00000000000000000000000000000000000000000000 000000000000000A000000000000000000000000000000000000000000000 000000000000000000000000000000000000000     00000000                                                                                                                        000000000000000000
F0010000008839600005000081102758700023658300000000000000000201607120002001C.I. ABRACOL S.A EMA                              C000000000413300000000000000000000100010010000000000000000000000F0010000008839600520160712000101 00000000000000000000000000000000000000000000000000000000000000000000000000000000000000000000000000000000000000000N 00000000000NCONT   00    00000000000          00000000000000000000000000000000000000000000 000000000000000A000000000000000000000000000000000000000000000 000000000000000000000000000000000000000     00000000                                                                                                                        000000000000000000
F0010000008839600006000081102758700013552100000000000000000201607120002001C.I. ABRACOL S.A EMA                              D000000000413300000000000000000000100010010000000000000000000000F0010000008839600620160712000101 00000000000000000000000000000000000000000000000000000000000000000000000000000000000000000000000000000000000000000N 00000000000NCONT   00    00000000000          00000000000000000000000000000000000000000000 000000000000000A000000000000000000000000000000000000000000000 000000000000000000000000000000000000000     00000000                                                                                                                        000000000000000000
F0010000008839700001000090024483300011050500000000000000000201607120002001COSMETICOS A-GUZ SAS                              D000000002500000000000000000000000100010010000000000000000000000F0010000008839700120160712000101 00000000000000000000000000000000000000000000000000000000000000000000000000000000000000000000000000000000000000000N 00000000000NCONT   00    00000000000          00000000000000000000000000000000000000000000 000000000000000A000000000000000000000000000000000000000000000 000000000000000000000000000000000000000     00000000                                                                                                                        000000000000000000
F0010000008839700002000090024483300041450500000000000000000201607120002001COSMETICOS A-GUZ SAS                              C000000002200000000000000000000000100010010000000000000000000000F0010000008839700220160712000101 00000000000000000000000000000000000000000000000000000000000000000000000000000000000000000000000000000000000000000N 00000000000NCONT   00    00000000000          00000000000000000000000000000000000000000000 000000000000000A000000000000000000000000000000000000000000000 000000000000000000000000000000000000000     00000000                                                                                                                        000000000000000000
F0010000008839700003000090024483300042505000000000000000000201607120002001COSMETICOS A-GUZ SAS                              C000000000300000000000000000000000100010010000000000000000000000F0010000008839700320160712000101 00000000000000000000000000000000000000000000000000000000000000000000000000000000000000000000000000000000000000000N 00000000000NCONT   00    00000000000          00000000000000000000000000000000000000000000 000000000000000A000000000000000000000000000000000000000000000 000000000000000000000000000000000000000     00000000                                                                                                                        000000000000000000
F0010000008839700004000090024483300023658300000000000000000201607120002001COSMETICOS A-GUZ SAS                              C000000000017600000000000000000000100010010000000000000000000000F0010000008839700420160712000101 00000000000000000000000000000000000000000000000000000000000000000000000000000000000000000000000000000000000000000N 00000000000NCONT   00    00000000000          00000000000000000000000000000000000000000000 000000000000000A000000000000000000000000000000000000000000000 000000000000000000000000000000000000000     00000000                                                                                                                        000000000000000000
F0010000008839700005000090024483300013552100000000000000000201607120002001COSMETICOS A-GUZ SAS                              D000000000017600000000000000000000100010010000000000000000000000F0010000008839700520160712000101 00000000000000000000000000000000000000000000000000000000000000000000000000000000000000000000000000000000000000000N 00000000000NCONT   00    00000000000          00000000000000000000000000000000000000000000 000000000000000A000000000000000000000000000000000000000000000 000000000000000000000000000000000000000     00000000                                                                                                                        000000000000000000
F0010000008839800001000081102758700013050500000000000000000201607120002001C.I. ABRACOL S.A EMA                              D000000037969500000000000000000000100010010000000000000000000000F0010000008839800120160712000101 00000000000000000000000000000000000000000000000000000000000000000000000000000000000000000000000000000000000000000N 00000000000NCONT   00    00000000000          00000000000000000000000000000000000000000000 000000000000000A000000000000000000000000000000000000000000000 000000000000000000000000000000000000000     00000000                                                                                                                        000000000000000000
F0010000008839800002000081102758700041450500000000000000000201607120002001C.I. ABRACOL S.A EMA                              C000000023870000000000000000000000100010010000000000000000000000F0010000008839800220160712000101 00000000000000000000000000000000000000000000000000000000000000000000000000000000000000000000000000000000000000000N 00000000000NCONT   00    00000000000          00000000000000000000000000000000000000000000 000000000000000A000000000000000000000000000000000000000000000 000000000000000000000000000000000000000     00000000                                                                                                                        000000000000000000
F0010000008839800003000081102758700041750100000000000000000201607120002001C.I. ABRACOL S.A EMA                              D000000000716100000000000000000000100010010000000000000000000000F0010000008839800320160712000101 00000000000000000000000000000000000000000000000000000000000000000000000000000000000000000000000000000000000000000N 00000000000NCONT   00    00000000000          00000000000000000000000000000000000000000000 000000000000000A000000000000000000000000000000000000000000000 000000000000000000000000000000000000000     00000000                                                                                                                        000000000000000000
F0010000008839800004000081102758700042505000000000000000000201607120002001C.I. ABRACOL S.A EMA                              C000000014815600000000000000000000100010010000000000000000000000F0010000008839800420160712000101 00000000000000000000000000000000000000000000000000000000000000000000000000000000000000000000000000000000000000000N 00000000000NCONT   00    00000000000          00000000000000000000000000000000000000000000 000000000000000A000000000000000000000000000000000000000000000 000000000000000000000000000000000000000     00000000                                                                                                                        000000000000000000
F0010000008839800005000081102758700023658300000000000000000201607120002001C.I. ABRACOL S.A EMA                              C000000000191000000000000000000000100010010000000000000000000000F0010000008839800520160712000101 00000000000000000000000000000000000000000000000000000000000000000000000000000000000000000000000000000000000000000N 00000000000NCONT   00    00000000000          00000000000000000000000000000000000000000000 000000000000000A000000000000000000000000000000000000000000000 000000000000000000000000000000000000000     00000000                                                                                                                        000000000000000000
F0010000008839800006000081102758700013552100000000000000000201607120002001C.I. ABRACOL S.A EMA                              D000000000191000000000000000000000100010010000000000000000000000F0010000008839800620160712000101 00000000000000000000000000000000000000000000000000000000000000000000000000000000000000000000000000000000000000000N 00000000000NCONT   00    00000000000          00000000000000000000000000000000000000000000 000000000000000A000000000000000000000000000000000000000000000 000000000000000000000000000000000000000     00000000                                                                                                                        000000000000000000
F0010000008839900001000080201112800013050500000000000000000201607120002001CANGURO INTERNATIONAL S.A.                        D000000192189500000000000000000000100010010000000000000000000000F0010000008839900120160712000101 00000000000000000000000000000000000000000000000000000000000000000000000000000000000000000000000000000000000000000N 00000000000NCONT   00    00000000000          00000000000000000000000000000000000000000000 000000000000000A000000000000000000000000000000000000000000000 000000000000000000000000000000000000000     00000000                                                                                                                        000000000000000000
F0010000008839900002000080201112800041450500000000000000000201607120002001CANGURO INTERNATIONAL S.A.                        C000000192189500000000000000000000100010010000000000000000000000F0010000008839900220160712000101 00000000000000000000000000000000000000000000000000000000000000000000000000000000000000000000000000000000000000000N 00000000000NCONT   00    00000000000          00000000000000000000000000000000000000000000 000000000000000A000000000000000000000000000000000000000000000 000000000000000000000000000000000000000     00000000                                                                                                                        000000000000000000
F0010000008839900003000080201112800042505000000000000000000201607120002001CANGURO INTERNATIONAL S.A.                        C000000000000000000000000000000000100010010000000000000000000000F0010000008839900320160712000101 00000000000000000000000000000000000000000000000000000000000000000000000000000000000000000000000000000000000000000N 00000000000NCONT   00    00000000000          00000000000000000000000000000000000000000000 000000000000000A000000000000000000000000000000000000000000000 000000000000000000000000000000000000000     00000000                                                                                                                        000000000000000000
F0010000008839900004000080201112800023658300000000000000000201607120002001CANGURO INTERNATIONAL S.A.                        C000000001537500000000000000000000100010010000000000000000000000F0010000008839900420160712000101 00000000000000000000000000000000000000000000000000000000000000000000000000000000000000000000000000000000000000000N 00000000000NCONT   00    00000000000          00000000000000000000000000000000000000000000 000000000000000A000000000000000000000000000000000000000000000 000000000000000000000000000000000000000     00000000                                                                                                                        000000000000000000
F0010000008839900005000080201112800013552100000000000000000201607120002001CANGURO INTERNATIONAL S.A.                        D000000001537500000000000000000000100010010000000000000000000000F0010000008839900520160712000101 00000000000000000000000000000000000000000000000000000000000000000000000000000000000000000000000000000000000000000N 00000000000NCONT   00    00000000000          00000000000000000000000000000000000000000000 000000000000000A000000000000000000000000000000000000000000000 000000000000000000000000000000000000000     00000000                                                                                                                        000000000000000000
F0010000008840000001000080201112800013050500000000000000000201607120002001CANGURO INTERNATIONAL S.A.                        D000000179233900000000000000000000100010010000000000000000000000F0010000008840000120160712000101 00000000000000000000000000000000000000000000000000000000000000000000000000000000000000000000000000000000000000000N 00000000000NCONT   00    00000000000          00000000000000000000000000000000000000000000 000000000000000A000000000000000000000000000000000000000000000 000000000000000000000000000000000000000     00000000                                                                                                                        000000000000000000
F0010000008840000002000080201112800041450500000000000000000201607120002001CANGURO INTERNATIONAL S.A.                        C000000175809400000000000000000000100010010000000000000000000000F0010000008840000220160712000101 00000000000000000000000000000000000000000000000000000000000000000000000000000000000000000000000000000000000000000N 00000000000NCONT   00    00000000000          00000000000000000000000000000000000000000000 000000000000000A000000000000000000000000000000000000000000000 000000000000000000000000000000000000000     00000000                                                                                                                        000000000000000000
F0010000008840000003000080201112800042505000000000000000000201607120002001CANGURO INTERNATIONAL S.A.                        C000000003424500000000000000000000100010010000000000000000000000F0010000008840000320160712000101 00000000000000000000000000000000000000000000000000000000000000000000000000000000000000000000000000000000000000000N 00000000000NCONT   00    00000000000          00000000000000000000000000000000000000000000 000000000000000A000000000000000000000000000000000000000000000 000000000000000000000000000000000000000     00000000                                                                                                                        000000000000000000
F0010000008840000004000080201112800023658300000000000000000201607120002001CANGURO INTERNATIONAL S.A.                        C000000001406500000000000000000000100010010000000000000000000000F0010000008840000420160712000101 00000000000000000000000000000000000000000000000000000000000000000000000000000000000000000000000000000000000000000N 00000000000NCONT   00    00000000000          00000000000000000000000000000000000000000000 000000000000000A000000000000000000000000000000000000000000000 000000000000000000000000000000000000000     00000000                                                                                                                        000000000000000000
