F0010000009023000001000090008711200013050500000000000000000201608230002001PACKAGING SUPPLIERS S.A.                          D000000037308400000000000000000000100010010000000000000000000000F0010000009023000120160823000101 00000000000000000000000000000000000000000000000000000000000000000000000000000000000000000000000000000000000000000N 00000000000NCONT   00    00000000000          00000000000000000000000000000000000000000000 000000000000000A000000000000000000000000000000000000000000000 000000000000000000000000000000000000000     00000000                                                                                                                        000000000000000000
F0010000009023000002000090008711200041450500000000000000000201608230002001PACKAGING SUPPLIERS S.A.                          C000000032120900000000000000000000100010010000000000000000000000F0010000009023000220160823000101 00000000000000000000000000000000000000000000000000000000000000000000000000000000000000000000000000000000000000000N 00000000000NCONT   00    00000000000          00000000000000000000000000000000000000000000 000000000000000A000000000000000000000000000000000000000000000 000000000000000000000000000000000000000     00000000                                                                                                                        000000000000000000
F0010000009023000003000090008711200042505000000000000000000201608230002001PACKAGING SUPPLIERS S.A.                          C000000005187500000000000000000000100010010000000000000000000000F0010000009023000320160823000101 00000000000000000000000000000000000000000000000000000000000000000000000000000000000000000000000000000000000000000N 00000000000NCONT   00    00000000000          00000000000000000000000000000000000000000000 000000000000000A000000000000000000000000000000000000000000000 000000000000000000000000000000000000000     00000000                                                                                                                        000000000000000000
F0010000009023000004000090008711200023658300000000000000000201608230002001PACKAGING SUPPLIERS S.A.                          C000000000257000000000000000000000100010010000000000000000000000F0010000009023000420160823000101 00000000000000000000000000000000000000000000000000000000000000000000000000000000000000000000000000000000000000000N 00000000000NCONT   00    00000000000          00000000000000000000000000000000000000000000 000000000000000A000000000000000000000000000000000000000000000 000000000000000000000000000000000000000     00000000                                                                                                                        000000000000000000
F0010000009023000005000090008711200013552100000000000000000201608230002001PACKAGING SUPPLIERS S.A.                          D000000000257000000000000000000000100010010000000000000000000000F0010000009023000520160823000101 00000000000000000000000000000000000000000000000000000000000000000000000000000000000000000000000000000000000000000N 00000000000NCONT   00    00000000000          00000000000000000000000000000000000000000000 000000000000000A000000000000000000000000000000000000000000000 000000000000000000000000000000000000000     00000000                                                                                                                        000000000000000000
F0010000009023100001000080004943800013050500000000000000000201608230002001PAPELERIA EL CID S.A.                             D000000054622500000000000000000000100010010000000000000000000000F0010000009023100120160823000101 00000000000000000000000000000000000000000000000000000000000000000000000000000000000000000000000000000000000000000N 00000000000NCONT   00    00000000000          00000000000000000000000000000000000000000000 000000000000000A000000000000000000000000000000000000000000000 000000000000000000000000000000000000000     00000000                                                                                                                        000000000000000000
F0010000009023100002000080004943800041450500000000000000000201608230002001PAPELERIA EL CID S.A.                             C000000044200000000000000000000000100010010000000000000000000000F0010000009023100220160823000101 00000000000000000000000000000000000000000000000000000000000000000000000000000000000000000000000000000000000000000N 00000000000NCONT   00    00000000000          00000000000000000000000000000000000000000000 000000000000000A000000000000000000000000000000000000000000000 000000000000000000000000000000000000000     00000000                                                                                                                        000000000000000000
F0010000009023100003000080004943800042505000000000000000000201608230002001PAPELERIA EL CID S.A.                             C000000010422500000000000000000000100010010000000000000000000000F0010000009023100320160823000101 00000000000000000000000000000000000000000000000000000000000000000000000000000000000000000000000000000000000000000N 00000000000NCONT   00    00000000000          00000000000000000000000000000000000000000000 000000000000000A000000000000000000000000000000000000000000000 000000000000000000000000000000000000000     00000000                                                                                                                        000000000000000000
F0010000009023100004000080004943800023658300000000000000000201608230002001PAPELERIA EL CID S.A.                             C000000000353600000000000000000000100010010000000000000000000000F0010000009023100420160823000101 00000000000000000000000000000000000000000000000000000000000000000000000000000000000000000000000000000000000000000N 00000000000NCONT   00    00000000000          00000000000000000000000000000000000000000000 000000000000000A000000000000000000000000000000000000000000000 000000000000000000000000000000000000000     00000000                                                                                                                        000000000000000000
F0010000009023100005000080004943800013552100000000000000000201608230002001PAPELERIA EL CID S.A.                             D000000000353600000000000000000000100010010000000000000000000000F0010000009023100520160823000101 00000000000000000000000000000000000000000000000000000000000000000000000000000000000000000000000000000000000000000N 00000000000NCONT   00    00000000000          00000000000000000000000000000000000000000000 000000000000000A000000000000000000000000000000000000000000000 000000000000000000000000000000000000000     00000000                                                                                                                        000000000000000000
F0010000009023200001000080200863700013050500000000000000000201608230002001COPIN S.A.S                                       D000000111861500000000000000000000100010010000000000000000000000F0010000009023200120160823000101 00000000000000000000000000000000000000000000000000000000000000000000000000000000000000000000000000000000000000000N 00000000000NCONT   00    00000000000          00000000000000000000000000000000000000000000 000000000000000A000000000000000000000000000000000000000000000 000000000000000000000000000000000000000     00000000                                                                                                                        000000000000000000
F0010000009023200002000080200863700041450500000000000000000201608230002001COPIN S.A.S                                       C000000102549200000000000000000000100010010000000000000000000000F0010000009023200220160823000101 00000000000000000000000000000000000000000000000000000000000000000000000000000000000000000000000000000000000000000N 00000000000NCONT   00    00000000000          00000000000000000000000000000000000000000000 000000000000000A000000000000000000000000000000000000000000000 000000000000000000000000000000000000000     00000000                                                                                                                        000000000000000000
F0010000009023200003000080200863700042505000000000000000000201608230002001COPIN S.A.S                                       C000000009312300000000000000000000100010010000000000000000000000F0010000009023200320160823000101 00000000000000000000000000000000000000000000000000000000000000000000000000000000000000000000000000000000000000000N 00000000000NCONT   00    00000000000          00000000000000000000000000000000000000000000 000000000000000A000000000000000000000000000000000000000000000 000000000000000000000000000000000000000     00000000                                                                                                                        000000000000000000
F0010000009023200004000080200863700023658300000000000000000201608230002001COPIN S.A.S                                       C000000000820400000000000000000000100010010000000000000000000000F0010000009023200420160823000101 00000000000000000000000000000000000000000000000000000000000000000000000000000000000000000000000000000000000000000N 00000000000NCONT   00    00000000000          00000000000000000000000000000000000000000000 000000000000000A000000000000000000000000000000000000000000000 000000000000000000000000000000000000000     00000000                                                                                                                        000000000000000000
F0010000009023200005000080200863700013552100000000000000000201608230002001COPIN S.A.S                                       D000000000820400000000000000000000100010010000000000000000000000F0010000009023200520160823000101 00000000000000000000000000000000000000000000000000000000000000000000000000000000000000000000000000000000000000000N 00000000000NCONT   00    00000000000          00000000000000000000000000000000000000000000 000000000000000A000000000000000000000000000000000000000000000 000000000000000000000000000000000000000     00000000                                                                                                                        000000000000000000
F0010000009023300001000090000859400013050500000000000000000201608230002001COMERCIAL JOTACE LTDA                             D000000016028600000000000000000000100010010000000000000000000000F0010000009023300120160823000101 00000000000000000000000000000000000000000000000000000000000000000000000000000000000000000000000000000000000000000N 00000000000NCONT   00    00000000000          00000000000000000000000000000000000000000000 000000000000000A000000000000000000000000000000000000000000000 000000000000000000000000000000000000000     00000000                                                                                                                        000000000000000000
F0010000009023300002000090000859400041450500000000000000000201608230002001COMERCIAL JOTACE LTDA                             C000000013430000000000000000000000100010010000000000000000000000F0010000009023300220160823000101 00000000000000000000000000000000000000000000000000000000000000000000000000000000000000000000000000000000000000000N 00000000000NCONT   00    00000000000          00000000000000000000000000000000000000000000 000000000000000A000000000000000000000000000000000000000000000 000000000000000000000000000000000000000     00000000                                                                                                                        000000000000000000
F0010000009023300003000090000859400042505000000000000000000201608230002001COMERCIAL JOTACE LTDA                             C000000002598600000000000000000000100010010000000000000000000000F0010000009023300320160823000101 00000000000000000000000000000000000000000000000000000000000000000000000000000000000000000000000000000000000000000N 00000000000NCONT   00    00000000000          00000000000000000000000000000000000000000000 000000000000000A000000000000000000000000000000000000000000000 000000000000000000000000000000000000000     00000000                                                                                                                        000000000000000000
F0010000009023300004000090000859400023658300000000000000000201608230002001COMERCIAL JOTACE LTDA                             C000000000107400000000000000000000100010010000000000000000000000F0010000009023300420160823000101 00000000000000000000000000000000000000000000000000000000000000000000000000000000000000000000000000000000000000000N 00000000000NCONT   00    00000000000          00000000000000000000000000000000000000000000 000000000000000A000000000000000000000000000000000000000000000 000000000000000000000000000000000000000     00000000                                                                                                                        000000000000000000
F0010000009023300005000090000859400013552100000000000000000201608230002001COMERCIAL JOTACE LTDA                             D000000000107400000000000000000000100010010000000000000000000000F0010000009023300520160823000101 00000000000000000000000000000000000000000000000000000000000000000000000000000000000000000000000000000000000000000N 00000000000NCONT   00    00000000000          00000000000000000000000000000000000000000000 000000000000000A000000000000000000000000000000000000000000000 000000000000000000000000000000000000000     00000000                                                                                                                        000000000000000000
F0010000009023400001000090038852800013050500000000000000000201608230002001EL COMERCIO ELECTRICO DE LA CO                    D000000011130000000000000000000000100010010000000000000000000000F0010000009023400120160823000101 00000000000000000000000000000000000000000000000000000000000000000000000000000000000000000000000000000000000000000N 00000000000NCONT   00    00000000000          00000000000000000000000000000000000000000000 000000000000000A000000000000000000000000000000000000000000000 000000000000000000000000000000000000000     00000000                                                                                                                        000000000000000000
F0010000009023400002000090038852800041450500000000000000000201608230002001EL COMERCIO ELECTRICO DE LA CO                    C000000008910000000000000000000000100010010000000000000000000000F0010000009023400220160823000101 00000000000000000000000000000000000000000000000000000000000000000000000000000000000000000000000000000000000000000N 00000000000NCONT   00    00000000000          00000000000000000000000000000000000000000000 000000000000000A000000000000000000000000000000000000000000000 000000000000000000000000000000000000000     00000000                                                                                                                        000000000000000000
F0010000009023400003000090038852800042505000000000000000000201608230002001EL COMERCIO ELECTRICO DE LA CO                    C000000002220000000000000000000000100010010000000000000000000000F0010000009023400320160823000101 00000000000000000000000000000000000000000000000000000000000000000000000000000000000000000000000000000000000000000N 00000000000NCONT   00    00000000000          00000000000000000000000000000000000000000000 000000000000000A000000000000000000000000000000000000000000000 000000000000000000000000000000000000000     00000000                                                                                                                        000000000000000000
F0010000009023400004000090038852800023658300000000000000000201608230002001EL COMERCIO ELECTRICO DE LA CO                    C000000000071300000000000000000000100010010000000000000000000000F0010000009023400420160823000101 00000000000000000000000000000000000000000000000000000000000000000000000000000000000000000000000000000000000000000N 00000000000NCONT   00    00000000000          00000000000000000000000000000000000000000000 000000000000000A000000000000000000000000000000000000000000000 000000000000000000000000000000000000000     00000000                                                                                                                        000000000000000000
F0010000009023400005000090038852800013552100000000000000000201608230002001EL COMERCIO ELECTRICO DE LA CO                    D000000000071300000000000000000000100010010000000000000000000000F0010000009023400520160823000101 00000000000000000000000000000000000000000000000000000000000000000000000000000000000000000000000000000000000000000N 00000000000NCONT   00    00000000000          00000000000000000000000000000000000000000000 000000000000000A000000000000000000000000000000000000000000000 000000000000000000000000000000000000000     00000000                                                                                                                        000000000000000000
F0010000009023500001000080010983700013050500000000000000000201608230002001OHM LTDA                                          D000000012975000000000000000000000100010010000000000000000000000F0010000009023500120160823000101 00000000000000000000000000000000000000000000000000000000000000000000000000000000000000000000000000000000000000000N 00000000000NCONT   00    00000000000          00000000000000000000000000000000000000000000 000000000000000A000000000000000000000000000000000000000000000 000000000000000000000000000000000000000     00000000                                                                                                                        000000000000000000
F0010000009023500002000080010983700041450500000000000000000201608230002001OHM LTDA                                          C000000012810000000000000000000000100010010000000000000000000000F0010000009023500220160823000101 00000000000000000000000000000000000000000000000000000000000000000000000000000000000000000000000000000000000000000N 00000000000NCONT   00    00000000000          00000000000000000000000000000000000000000000 000000000000000A000000000000000000000000000000000000000000000 000000000000000000000000000000000000000     00000000                                                                                                                        000000000000000000
F0010000009023500003000080010983700042505000000000000000000201608230002001OHM LTDA                                          C000000000165000000000000000000000100010010000000000000000000000F0010000009023500320160823000101 00000000000000000000000000000000000000000000000000000000000000000000000000000000000000000000000000000000000000000N 00000000000NCONT   00    00000000000          00000000000000000000000000000000000000000000 000000000000000A000000000000000000000000000000000000000000000 000000000000000000000000000000000000000     00000000                                                                                                                        000000000000000000
F0010000009023500004000080010983700023658300000000000000000201608230002001OHM LTDA                                          C000000000102500000000000000000000100010010000000000000000000000F0010000009023500420160823000101 00000000000000000000000000000000000000000000000000000000000000000000000000000000000000000000000000000000000000000N 00000000000NCONT   00    00000000000          00000000000000000000000000000000000000000000 000000000000000A000000000000000000000000000000000000000000000 000000000000000000000000000000000000000     00000000                                                                                                                        000000000000000000
F0010000009023500005000080010983700013552100000000000000000201608230002001OHM LTDA                                          D000000000102500000000000000000000100010010000000000000000000000F0010000009023500520160823000101 00000000000000000000000000000000000000000000000000000000000000000000000000000000000000000000000000000000000000000N 00000000000NCONT   00    00000000000          00000000000000000000000000000000000000000000 000000000000000A000000000000000000000000000000000000000000000 000000000000000000000000000000000000000     00000000                                                                                                                        000000000000000000
F0010000009023600001000090007142100013050500000000000000000201608230002001TODO BELLEZA Y MAX S.A.S                          D000000006350000000000000000000000100010010000000000000000000000F0010000009023600120160823000101 00000000000000000000000000000000000000000000000000000000000000000000000000000000000000000000000000000000000000000N 00000000000NCONT   00    00000000000          00000000000000000000000000000000000000000000 000000000000000A000000000000000000000000000000000000000000000 000000000000000000000000000000000000000     00000000                                                                                                                        000000000000000000
F0010000009023600002000090007142100041450500000000000000000201608230002001TODO BELLEZA Y MAX S.A.S                          C000000005600000000000000000000000100010010000000000000000000000F0010000009023600220160823000101 00000000000000000000000000000000000000000000000000000000000000000000000000000000000000000000000000000000000000000N 00000000000NCONT   00    00000000000          00000000000000000000000000000000000000000000 000000000000000A000000000000000000000000000000000000000000000 000000000000000000000000000000000000000     00000000                                                                                                                        000000000000000000
F0010000009023600003000090007142100042505000000000000000000201608230002001TODO BELLEZA Y MAX S.A.S                          C000000000750000000000000000000000100010010000000000000000000000F0010000009023600320160823000101 00000000000000000000000000000000000000000000000000000000000000000000000000000000000000000000000000000000000000000N 00000000000NCONT   00    00000000000          00000000000000000000000000000000000000000000 000000000000000A000000000000000000000000000000000000000000000 000000000000000000000000000000000000000     00000000                                                                                                                        000000000000000000
F0010000009023600004000090007142100023658300000000000000000201608230002001TODO BELLEZA Y MAX S.A.S                          C000000000044800000000000000000000100010010000000000000000000000F0010000009023600420160823000101 00000000000000000000000000000000000000000000000000000000000000000000000000000000000000000000000000000000000000000N 00000000000NCONT   00    00000000000          00000000000000000000000000000000000000000000 000000000000000A000000000000000000000000000000000000000000000 000000000000000000000000000000000000000     00000000                                                                                                                        000000000000000000
F0010000009023600005000090007142100013552100000000000000000201608230002001TODO BELLEZA Y MAX S.A.S                          D000000000044800000000000000000000100010010000000000000000000000F0010000009023600520160823000101 00000000000000000000000000000000000000000000000000000000000000000000000000000000000000000000000000000000000000000N 00000000000NCONT   00    00000000000          00000000000000000000000000000000000000000000 000000000000000A000000000000000000000000000000000000000000000 000000000000000000000000000000000000000     00000000                                                                                                                        000000000000000000
F0010000009023700001000086003979400013050500000000000000000201608230002001CALYPSO BARRANQUILLA LTDA                         D000000015624600000000000000000000100010010000000000000000000000F0010000009023700120160823000101 00000000000000000000000000000000000000000000000000000000000000000000000000000000000000000000000000000000000000000N 00000000000NCONT   00    00000000000          00000000000000000000000000000000000000000000 000000000000000A000000000000000000000000000000000000000000000 000000000000000000000000000000000000000     00000000                                                                                                                        000000000000000000
F0010000009023700002000086003979400041450500000000000000000201608230002001CALYPSO BARRANQUILLA LTDA                         C000000014060000000000000000000000100010010000000000000000000000F0010000009023700220160823000101 00000000000000000000000000000000000000000000000000000000000000000000000000000000000000000000000000000000000000000N 00000000000NCONT   00    00000000000          00000000000000000000000000000000000000000000 000000000000000A000000000000000000000000000000000000000000000 000000000000000000000000000000000000000     00000000                                                                                                                        000000000000000000
F0010000009023700003000086003979400042505000000000000000000201608230002001CALYPSO BARRANQUILLA LTDA                         C000000001564600000000000000000000100010010000000000000000000000F0010000009023700320160823000101 00000000000000000000000000000000000000000000000000000000000000000000000000000000000000000000000000000000000000000N 00000000000NCONT   00    00000000000          00000000000000000000000000000000000000000000 000000000000000A000000000000000000000000000000000000000000000 000000000000000000000000000000000000000     00000000                                                                                                                        000000000000000000
F0010000009023700004000086003979400023658300000000000000000201608230002001CALYPSO BARRANQUILLA LTDA                         C000000000112500000000000000000000100010010000000000000000000000F0010000009023700420160823000101 00000000000000000000000000000000000000000000000000000000000000000000000000000000000000000000000000000000000000000N 00000000000NCONT   00    00000000000          00000000000000000000000000000000000000000000 000000000000000A000000000000000000000000000000000000000000000 000000000000000000000000000000000000000     00000000                                                                                                                        000000000000000000
F0010000009023700005000086003979400013552100000000000000000201608230002001CALYPSO BARRANQUILLA LTDA                         D000000000112500000000000000000000100010010000000000000000000000F0010000009023700520160823000101 00000000000000000000000000000000000000000000000000000000000000000000000000000000000000000000000000000000000000000N 00000000000NCONT   00    00000000000          00000000000000000000000000000000000000000000 000000000000000A000000000000000000000000000000000000000000000 000000000000000000000000000000000000000     00000000                                                                                                                        000000000000000000
F0010000009023800001000089030195100013050500000000000000000201608230002001LIBRERIA NACIONAL S.A.                            D000000031950000000000000000000000100010010000000000000000000000F0010000009023800120160823000101 00000000000000000000000000000000000000000000000000000000000000000000000000000000000000000000000000000000000000000N 00000000000NCONT   00    00000000000          00000000000000000000000000000000000000000000 000000000000000A000000000000000000000000000000000000000000000 000000000000000000000000000000000000000     00000000                                                                                                                        000000000000000000
F0010000009023800002000089030195100041450500000000000000000201608230002001LIBRERIA NACIONAL S.A.                            C000000026150000000000000000000000100010010000000000000000000000F0010000009023800220160823000101 00000000000000000000000000000000000000000000000000000000000000000000000000000000000000000000000000000000000000000N 00000000000NCONT   00    00000000000          00000000000000000000000000000000000000000000 000000000000000A000000000000000000000000000000000000000000000 000000000000000000000000000000000000000     00000000                                                                                                                        000000000000000000
F0010000009023800003000089030195100042505000000000000000000201608230002001LIBRERIA NACIONAL S.A.                            C000000005800000000000000000000000100010010000000000000000000000F0010000009023800320160823000101 00000000000000000000000000000000000000000000000000000000000000000000000000000000000000000000000000000000000000000N 00000000000NCONT   00    00000000000          00000000000000000000000000000000000000000000 000000000000000A000000000000000000000000000000000000000000000 000000000000000000000000000000000000000     00000000                                                                                                                        000000000000000000
F0010000009023800004000089030195100023658300000000000000000201608230002001LIBRERIA NACIONAL S.A.                            C000000000209200000000000000000000100010010000000000000000000000F0010000009023800420160823000101 00000000000000000000000000000000000000000000000000000000000000000000000000000000000000000000000000000000000000000N 00000000000NCONT   00    00000000000          00000000000000000000000000000000000000000000 000000000000000A000000000000000000000000000000000000000000000 000000000000000000000000000000000000000     00000000                                                                                                                        000000000000000000
F0010000009023800005000089030195100013552100000000000000000201608230002001LIBRERIA NACIONAL S.A.                            D000000000209200000000000000000000100010010000000000000000000000F0010000009023800520160823000101 00000000000000000000000000000000000000000000000000000000000000000000000000000000000000000000000000000000000000000N 00000000000NCONT   00    00000000000          00000000000000000000000000000000000000000000 000000000000000A000000000000000000000000000000000000000000000 000000000000000000000000000000000000000     00000000                                                                                                                        000000000000000000
F0010000009023900001000007215896800013050500000000000000000201608230002001EDDIER CIRO                                       D000000053757100000000000000000000100010010000000000000000000000F0010000009023900120160823000101 00000000000000000000000000000000000000000000000000000000000000000000000000000000000000000000000000000000000000000N 00000000000NCONT   00    00000000000          00000000000000000000000000000000000000000000 000000000000000A000000000000000000000000000000000000000000000 000000000000000000000000000000000000000     00000000                                                                                                                        000000000000000000
F0010000009023900002000007215896800041450500000000000000000201608230002001EDDIER CIRO                                       C000000038980000000000000000000000100010010000000000000000000000F0010000009023900220160823000101 00000000000000000000000000000000000000000000000000000000000000000000000000000000000000000000000000000000000000000N 00000000000NCONT   00    00000000000          00000000000000000000000000000000000000000000 000000000000000A000000000000000000000000000000000000000000000 000000000000000000000000000000000000000     00000000                                                                                                                        000000000000000000
F0010000009023900003000007215896800042505000000000000000000201608230002001EDDIER CIRO                                       C000000014777100000000000000000000100010010000000000000000000000F0010000009023900320160823000101 00000000000000000000000000000000000000000000000000000000000000000000000000000000000000000000000000000000000000000N 00000000000NCONT   00    00000000000          00000000000000000000000000000000000000000000 000000000000000A000000000000000000000000000000000000000000000 000000000000000000000000000000000000000     00000000                                                                                                                        000000000000000000
F0010000009023900004000007215896800023658300000000000000000201608230002001EDDIER CIRO                                       C000000000311800000000000000000000100010010000000000000000000000F0010000009023900420160823000101 00000000000000000000000000000000000000000000000000000000000000000000000000000000000000000000000000000000000000000N 00000000000NCONT   00    00000000000          00000000000000000000000000000000000000000000 000000000000000A000000000000000000000000000000000000000000000 000000000000000000000000000000000000000     00000000                                                                                                                        000000000000000000
F0010000009023900005000007215896800013552100000000000000000201608230002001EDDIER CIRO                                       D000000000311800000000000000000000100010010000000000000000000000F0010000009023900520160823000101 00000000000000000000000000000000000000000000000000000000000000000000000000000000000000000000000000000000000000000N 00000000000NCONT   00    00000000000          00000000000000000000000000000000000000000000 000000000000000A000000000000000000000000000000000000000000000 000000000000000000000000000000000000000     00000000                                                                                                                        000000000000000000
F0010000009024000001000000870907300013050500000000000000000201608230002001SURTIDOR FERRETERO                                D000000048789700000000000000000000100010010000000000000000000000F0010000009024000120160823000101 00000000000000000000000000000000000000000000000000000000000000000000000000000000000000000000000000000000000000000N 00000000000NCONT   00    00000000000          00000000000000000000000000000000000000000000 000000000000000A000000000000000000000000000000000000000000000 000000000000000000000000000000000000000     00000000                                                                                                                        000000000000000000
F0010000009024000002000000870907300041450500000000000000000201608230002001SURTIDOR FERRETERO                                C000000041450000000000000000000000100010010000000000000000000000F0010000009024000220160823000101 00000000000000000000000000000000000000000000000000000000000000000000000000000000000000000000000000000000000000000N 00000000000NCONT   00    00000000000          00000000000000000000000000000000000000000000 000000000000000A000000000000000000000000000000000000000000000 000000000000000000000000000000000000000     00000000                                                                                                                        000000000000000000
F0010000009024000003000000870907300041750100000000000000000201608230002001SURTIDOR FERRETERO                                D000000004145000000000000000000000100010010000000000000000000000F0010000009024000320160823000101 00000000000000000000000000000000000000000000000000000000000000000000000000000000000000000000000000000000000000000N 00000000000NCONT   00    00000000000          00000000000000000000000000000000000000000000 000000000000000A000000000000000000000000000000000000000000000 000000000000000000000000000000000000000     00000000                                                                                                                        000000000000000000
F0010000009024000004000000870907300042505000000000000000000201608230002001SURTIDOR FERRETERO                                C000000011484700000000000000000000100010010000000000000000000000F0010000009024000420160823000101 00000000000000000000000000000000000000000000000000000000000000000000000000000000000000000000000000000000000000000N 00000000000NCONT   00    00000000000          00000000000000000000000000000000000000000000 000000000000000A000000000000000000000000000000000000000000000 000000000000000000000000000000000000000     00000000                                                                                                                        000000000000000000
F0010000009024000005000000870907300023658300000000000000000201608230002001SURTIDOR FERRETERO                                C000000000331600000000000000000000100010010000000000000000000000F0010000009024000520160823000101 00000000000000000000000000000000000000000000000000000000000000000000000000000000000000000000000000000000000000000N 00000000000NCONT   00    00000000000          00000000000000000000000000000000000000000000 000000000000000A000000000000000000000000000000000000000000000 000000000000000000000000000000000000000     00000000                                                                                                                        000000000000000000
F0010000009024000006000000870907300013552100000000000000000201608230002001SURTIDOR FERRETERO                                D000000000331600000000000000000000100010010000000000000000000000F0010000009024000620160823000101 00000000000000000000000000000000000000000000000000000000000000000000000000000000000000000000000000000000000000000N 00000000000NCONT   00    00000000000          00000000000000000000000000000000000000000000 000000000000000A000000000000000000000000000000000000000000000 000000000000000000000000000000000000000     00000000                                                                                                                        000000000000000000
F0010000009024100001000090044920600013050500000000000000000201608230002001QUATRO CARIBE SAS                                 D000000028815000000000000000000000100010010000000000000000000000F0010000009024100120160823000101 00000000000000000000000000000000000000000000000000000000000000000000000000000000000000000000000000000000000000000N 00000000000NCONT   00    00000000000          00000000000000000000000000000000000000000000 000000000000000A000000000000000000000000000000000000000000000 000000000000000000000000000000000000000     00000000                                                                                                                        000000000000000000
F0010000009024100002000090044920600041450500000000000000000201608230002001QUATRO CARIBE SAS                                 C000000024390000000000000000000000100010010000000000000000000000F0010000009024100220160823000101 00000000000000000000000000000000000000000000000000000000000000000000000000000000000000000000000000000000000000000N 00000000000NCONT   00    00000000000          00000000000000000000000000000000000000000000 000000000000000A000000000000000000000000000000000000000000000 000000000000000000000000000000000000000     00000000                                                                                                                        000000000000000000
F0010000009024100003000090044920600042505000000000000000000201608230002001QUATRO CARIBE SAS                                 C000000004425000000000000000000000100010010000000000000000000000F0010000009024100320160823000101 00000000000000000000000000000000000000000000000000000000000000000000000000000000000000000000000000000000000000000N 00000000000NCONT   00    00000000000          00000000000000000000000000000000000000000000 000000000000000A000000000000000000000000000000000000000000000 000000000000000000000000000000000000000     00000000                                                                                                                        000000000000000000
F0010000009024100004000090044920600023658300000000000000000201608230002001QUATRO CARIBE SAS                                 C000000000195100000000000000000000100010010000000000000000000000F0010000009024100420160823000101 00000000000000000000000000000000000000000000000000000000000000000000000000000000000000000000000000000000000000000N 00000000000NCONT   00    00000000000          00000000000000000000000000000000000000000000 000000000000000A000000000000000000000000000000000000000000000 000000000000000000000000000000000000000     00000000                                                                                                                        000000000000000000
F0010000009024100005000090044920600013552100000000000000000201608230002001QUATRO CARIBE SAS                                 D000000000195100000000000000000000100010010000000000000000000000F0010000009024100520160823000101 00000000000000000000000000000000000000000000000000000000000000000000000000000000000000000000000000000000000000000N 00000000000NCONT   00    00000000000          00000000000000000000000000000000000000000000 000000000000000A000000000000000000000000000000000000000000000 000000000000000000000000000000000000000     00000000                                                                                                                        000000000000000000
F0010000009024200001000000431178400013050500000000000000000201608230002001EFRAIN ALVAREZ                                    D000000008030000000000000000000000100010010000000000000000000000F0010000009024200120160823000101 00000000000000000000000000000000000000000000000000000000000000000000000000000000000000000000000000000000000000000N 00000000000NCONT   00    00000000000          00000000000000000000000000000000000000000000 000000000000000A000000000000000000000000000000000000000000000 000000000000000000000000000000000000000     00000000                                                                                                                        000000000000000000
F0010000009024200002000000431178400041450500000000000000000201608230002001EFRAIN ALVAREZ                                    C000000007580000000000000000000000100010010000000000000000000000F0010000009024200220160823000101 00000000000000000000000000000000000000000000000000000000000000000000000000000000000000000000000000000000000000000N 00000000000NCONT   00    00000000000          00000000000000000000000000000000000000000000 000000000000000A000000000000000000000000000000000000000000000 000000000000000000000000000000000000000     00000000                                                                                                                        000000000000000000
F0010000009024200003000000431178400042505000000000000000000201608230002001EFRAIN ALVAREZ                                    C000000000450000000000000000000000100010010000000000000000000000F0010000009024200320160823000101 00000000000000000000000000000000000000000000000000000000000000000000000000000000000000000000000000000000000000000N 00000000000NCONT   00    00000000000          00000000000000000000000000000000000000000000 000000000000000A000000000000000000000000000000000000000000000 000000000000000000000000000000000000000     00000000                                                                                                                        000000000000000000
F0010000009024200004000000431178400023658300000000000000000201608230002001EFRAIN ALVAREZ                                    C000000000060600000000000000000000100010010000000000000000000000F0010000009024200420160823000101 00000000000000000000000000000000000000000000000000000000000000000000000000000000000000000000000000000000000000000N 00000000000NCONT   00    00000000000          00000000000000000000000000000000000000000000 000000000000000A000000000000000000000000000000000000000000000 000000000000000000000000000000000000000     00000000                                                                                                                        000000000000000000
F0010000009024200005000000431178400013552100000000000000000201608230002001EFRAIN ALVAREZ                                    D000000000060600000000000000000000100010010000000000000000000000F0010000009024200520160823000101 00000000000000000000000000000000000000000000000000000000000000000000000000000000000000000000000000000000000000000N 00000000000NCONT   00    00000000000          00000000000000000000000000000000000000000000 000000000000000A000000000000000000000000000000000000000000000 000000000000000000000000000000000000000     00000000                                                                                                                        000000000000000000
F0010000009024300001000089031248700013050500000000000000000201608230002001DISTRIBUIDORA CALIPLASTICOS LTDA                  D000000090724900000000000000000000100010010000000000000000000000F0010000009024300120160823000101 00000000000000000000000000000000000000000000000000000000000000000000000000000000000000000000000000000000000000000N 00000000000NCONT   00    00000000000          00000000000000000000000000000000000000000000 000000000000000A000000000000000000000000000000000000000000000 000000000000000000000000000000000000000     00000000                                                                                                                        000000000000000000
F0010000009024300002000089031248700041450500000000000000000201608230002001DISTRIBUIDORA CALIPLASTICOS LTDA                  C000000085429900000000000000000000100010010000000000000000000000F0010000009024300220160823000101 00000000000000000000000000000000000000000000000000000000000000000000000000000000000000000000000000000000000000000N 00000000000NCONT   00    00000000000          00000000000000000000000000000000000000000000 000000000000000A000000000000000000000000000000000000000000000 000000000000000000000000000000000000000     00000000                                                                                                                        000000000000000000
F0010000009024300003000089031248700042505000000000000000000201608230002001DISTRIBUIDORA CALIPLASTICOS LTDA                  C000000005295000000000000000000000100010010000000000000000000000F0010000009024300320160823000101 00000000000000000000000000000000000000000000000000000000000000000000000000000000000000000000000000000000000000000N 00000000000NCONT   00    00000000000          00000000000000000000000000000000000000000000 000000000000000A000000000000000000000000000000000000000000000 000000000000000000000000000000000000000     00000000                                                                                                                        000000000000000000
F0010000009024300004000089031248700023658300000000000000000201608230002001DISTRIBUIDORA CALIPLASTICOS LTDA                  C000000000683400000000000000000000100010010000000000000000000000F0010000009024300420160823000101 00000000000000000000000000000000000000000000000000000000000000000000000000000000000000000000000000000000000000000N 00000000000NCONT   00    00000000000          00000000000000000000000000000000000000000000 000000000000000A000000000000000000000000000000000000000000000 000000000000000000000000000000000000000     00000000                                                                                                                        000000000000000000
F0010000009024300005000089031248700013552100000000000000000201608230002001DISTRIBUIDORA CALIPLASTICOS LTDA                  D000000000683400000000000000000000100010010000000000000000000000F0010000009024300520160823000101 00000000000000000000000000000000000000000000000000000000000000000000000000000000000000000000000000000000000000000N 00000000000NCONT   00    00000000000          00000000000000000000000000000000000000000000 000000000000000A000000000000000000000000000000000000000000000 000000000000000000000000000000000000000     00000000                                                                                                                        000000000000000000
F0010000009024400001000089010233900013050500000000000000000201608230002001JAIRO ECHEVERRI Y CIA LTDA                        D000000025778800000000000000000000100010010000000000000000000000F0010000009024400120160823000101 00000000000000000000000000000000000000000000000000000000000000000000000000000000000000000000000000000000000000000N 00000000000NCONT   00    00000000000          00000000000000000000000000000000000000000000 000000000000000A000000000000000000000000000000000000000000000 000000000000000000000000000000000000000     00000000                                                                                                                        000000000000000000
F0010000009024400002000089010233900041450500000000000000000201608230002001JAIRO ECHEVERRI Y CIA LTDA                        C000000021200000000000000000000000100010010000000000000000000000F0010000009024400220160823000101 00000000000000000000000000000000000000000000000000000000000000000000000000000000000000000000000000000000000000000N 00000000000NCONT   00    00000000000          00000000000000000000000000000000000000000000 000000000000000A000000000000000000000000000000000000000000000 000000000000000000000000000000000000000     00000000                                                                                                                        000000000000000000
F0010000009024400003000089010233900042505000000000000000000201608230002001JAIRO ECHEVERRI Y CIA LTDA                        C000000004578800000000000000000000100010010000000000000000000000F0010000009024400320160823000101 00000000000000000000000000000000000000000000000000000000000000000000000000000000000000000000000000000000000000000N 00000000000NCONT   00    00000000000          00000000000000000000000000000000000000000000 000000000000000A000000000000000000000000000000000000000000000 000000000000000000000000000000000000000     00000000                                                                                                                        000000000000000000
F0010000009024400004000089010233900023658300000000000000000201608230002001JAIRO ECHEVERRI Y CIA LTDA                        C000000000169600000000000000000000100010010000000000000000000000F0010000009024400420160823000101 00000000000000000000000000000000000000000000000000000000000000000000000000000000000000000000000000000000000000000N 00000000000NCONT   00    00000000000          00000000000000000000000000000000000000000000 000000000000000A000000000000000000000000000000000000000000000 000000000000000000000000000000000000000     00000000                                                                                                                        000000000000000000
F0010000009024400005000089010233900013552100000000000000000201608230002001JAIRO ECHEVERRI Y CIA LTDA                        D000000000169600000000000000000000100010010000000000000000000000F0010000009024400520160823000101 00000000000000000000000000000000000000000000000000000000000000000000000000000000000000000000000000000000000000000N 00000000000NCONT   00    00000000000          00000000000000000000000000000000000000000000 000000000000000A000000000000000000000000000000000000000000000 000000000000000000000000000000000000000     00000000                                                                                                                        000000000000000000
F0010000009024500001000080001063400013050500000000000000000201608230002001PRODUCTOS JULIAO SAS                              D000000012080600000000000000000000100010010000000000000000000000F0010000009024500120160823000101 00000000000000000000000000000000000000000000000000000000000000000000000000000000000000000000000000000000000000000N 00000000000NCONT   00    00000000000          00000000000000000000000000000000000000000000 000000000000000A000000000000000000000000000000000000000000000 000000000000000000000000000000000000000     00000000                                                                                                                        000000000000000000
F0010000009024500002000080001063400041450500000000000000000201608230002001PRODUCTOS JULIAO SAS                              C000000011550000000000000000000000100010010000000000000000000000F0010000009024500220160823000101 00000000000000000000000000000000000000000000000000000000000000000000000000000000000000000000000000000000000000000N 00000000000NCONT   00    00000000000          00000000000000000000000000000000000000000000 000000000000000A000000000000000000000000000000000000000000000 000000000000000000000000000000000000000     00000000                                                                                                                        000000000000000000
F0010000009024500003000080001063400042505000000000000000000201608230002001PRODUCTOS JULIAO SAS                              C000000000530600000000000000000000100010010000000000000000000000F0010000009024500320160823000101 00000000000000000000000000000000000000000000000000000000000000000000000000000000000000000000000000000000000000000N 00000000000NCONT   00    00000000000          00000000000000000000000000000000000000000000 000000000000000A000000000000000000000000000000000000000000000 000000000000000000000000000000000000000     00000000                                                                                                                        000000000000000000
F0010000009024500004000080001063400023658300000000000000000201608230002001PRODUCTOS JULIAO SAS                              C000000000092400000000000000000000100010010000000000000000000000F0010000009024500420160823000101 00000000000000000000000000000000000000000000000000000000000000000000000000000000000000000000000000000000000000000N 00000000000NCONT   00    00000000000          00000000000000000000000000000000000000000000 000000000000000A000000000000000000000000000000000000000000000 000000000000000000000000000000000000000     00000000                                                                                                                        000000000000000000
F0010000009024500005000080001063400013552100000000000000000201608230002001PRODUCTOS JULIAO SAS                              D000000000092400000000000000000000100010010000000000000000000000F0010000009024500520160823000101 00000000000000000000000000000000000000000000000000000000000000000000000000000000000000000000000000000000000000000N 00000000000NCONT   00    00000000000          00000000000000000000000000000000000000000000 000000000000000A000000000000000000000000000000000000000000000 000000000000000000000000000000000000000     00000000                                                                                                                        000000000000000000
F0010000009024600001000089011078600013050500000000000000000201608230002001DIST. NUEVO MUNDO S.A.S.                          D000000017595500000000000000000000100010010000000000000000000000F0010000009024600120160823000101 00000000000000000000000000000000000000000000000000000000000000000000000000000000000000000000000000000000000000000N 00000000000NCONT   00    00000000000          00000000000000000000000000000000000000000000 000000000000000A000000000000000000000000000000000000000000000 000000000000000000000000000000000000000     00000000                                                                                                                        000000000000000000
F0010000009024600002000089011078600041450500000000000000000201608230002001DIST. NUEVO MUNDO S.A.S.                          C000000015406000000000000000000000100010010000000000000000000000F0010000009024600220160823000101 00000000000000000000000000000000000000000000000000000000000000000000000000000000000000000000000000000000000000000N 00000000000NCONT   00    00000000000          00000000000000000000000000000000000000000000 000000000000000A000000000000000000000000000000000000000000000 000000000000000000000000000000000000000     00000000                                                                                                                        000000000000000000
F0010000009024600003000089011078600042505000000000000000000201608230002001DIST. NUEVO MUNDO S.A.S.                          C000000002189500000000000000000000100010010000000000000000000000F0010000009024600320160823000101 00000000000000000000000000000000000000000000000000000000000000000000000000000000000000000000000000000000000000000N 00000000000NCONT   00    00000000000          00000000000000000000000000000000000000000000 000000000000000A000000000000000000000000000000000000000000000 000000000000000000000000000000000000000     00000000                                                                                                                        000000000000000000
F0010000009024600004000089011078600023658300000000000000000201608230002001DIST. NUEVO MUNDO S.A.S.                          C000000000123200000000000000000000100010010000000000000000000000F0010000009024600420160823000101 00000000000000000000000000000000000000000000000000000000000000000000000000000000000000000000000000000000000000000N 00000000000NCONT   00    00000000000          00000000000000000000000000000000000000000000 000000000000000A000000000000000000000000000000000000000000000 000000000000000000000000000000000000000     00000000                                                                                                                        000000000000000000
F0010000009024600005000089011078600013552100000000000000000201608230002001DIST. NUEVO MUNDO S.A.S.                          D000000000123200000000000000000000100010010000000000000000000000F0010000009024600520160823000101 00000000000000000000000000000000000000000000000000000000000000000000000000000000000000000000000000000000000000000N 00000000000NCONT   00    00000000000          00000000000000000000000000000000000000000000 000000000000000A000000000000000000000000000000000000000000000 000000000000000000000000000000000000000     00000000                                                                                                                        000000000000000000
F0010000009024700001000089010952800013050500000000000000000201608230002001IND. LITOGRAF. BOSTON S.A.S.                      D000000032890000000000000000000000100010010000000000000000000000F0010000009024700120160823000101 00000000000000000000000000000000000000000000000000000000000000000000000000000000000000000000000000000000000000000N 00000000000NCONT   00    00000000000          00000000000000000000000000000000000000000000 000000000000000A000000000000000000000000000000000000000000000 000000000000000000000000000000000000000     00000000                                                                                                                        000000000000000000
F0010000009024700002000089010952800041450500000000000000000201608230002001IND. LITOGRAF. BOSTON S.A.S.                      C000000029140000000000000000000000100010010000000000000000000000F0010000009024700220160823000101 00000000000000000000000000000000000000000000000000000000000000000000000000000000000000000000000000000000000000000N 00000000000NCONT   00    00000000000          00000000000000000000000000000000000000000000 000000000000000A000000000000000000000000000000000000000000000 000000000000000000000000000000000000000     00000000                                                                                                                        000000000000000000
F0010000009024700003000089010952800042505000000000000000000201608230002001IND. LITOGRAF. BOSTON S.A.S.                      C000000003750000000000000000000000100010010000000000000000000000F0010000009024700320160823000101 00000000000000000000000000000000000000000000000000000000000000000000000000000000000000000000000000000000000000000N 00000000000NCONT   00    00000000000          00000000000000000000000000000000000000000000 000000000000000A000000000000000000000000000000000000000000000 000000000000000000000000000000000000000     00000000                                                                                                                        000000000000000000
F0010000009024700004000089010952800023658300000000000000000201608230002001IND. LITOGRAF. BOSTON S.A.S.                      C000000000233100000000000000000000100010010000000000000000000000F0010000009024700420160823000101 00000000000000000000000000000000000000000000000000000000000000000000000000000000000000000000000000000000000000000N 00000000000NCONT   00    00000000000          00000000000000000000000000000000000000000000 000000000000000A000000000000000000000000000000000000000000000 000000000000000000000000000000000000000     00000000                                                                                                                        000000000000000000
F0010000009024700005000089010952800013552100000000000000000201608230002001IND. LITOGRAF. BOSTON S.A.S.                      D000000000233100000000000000000000100010010000000000000000000000F0010000009024700520160823000101 00000000000000000000000000000000000000000000000000000000000000000000000000000000000000000000000000000000000000000N 00000000000NCONT   00    00000000000          00000000000000000000000000000000000000000000 000000000000000A000000000000000000000000000000000000000000000 000000000000000000000000000000000000000     00000000                                                                                                                        000000000000000000
F0010000009024800001000090001736600013050500000000000000000201608230002001A F SUMINISTROS E.U.                              D000000016200000000000000000000000100010010000000000000000000000F0010000009024800120160823000101 00000000000000000000000000000000000000000000000000000000000000000000000000000000000000000000000000000000000000000N 00000000000NCONT   00    00000000000          00000000000000000000000000000000000000000000 000000000000000A000000000000000000000000000000000000000000000 000000000000000000000000000000000000000     00000000                                                                                                                        000000000000000000
F0010000009024800002000090001736600041450500000000000000000201608230002001A F SUMINISTROS E.U.                              C000000015000000000000000000000000100010010000000000000000000000F0010000009024800220160823000101 00000000000000000000000000000000000000000000000000000000000000000000000000000000000000000000000000000000000000000N 00000000000NCONT   00    00000000000          00000000000000000000000000000000000000000000 000000000000000A000000000000000000000000000000000000000000000 000000000000000000000000000000000000000     00000000                                                                                                                        000000000000000000
F0010000009024800003000090001736600042505000000000000000000201608230002001A F SUMINISTROS E.U.                              C000000001200000000000000000000000100010010000000000000000000000F0010000009024800320160823000101 00000000000000000000000000000000000000000000000000000000000000000000000000000000000000000000000000000000000000000N 00000000000NCONT   00    00000000000          00000000000000000000000000000000000000000000 000000000000000A000000000000000000000000000000000000000000000 000000000000000000000000000000000000000     00000000                                                                                                                        000000000000000000
F0010000009024800004000090001736600023658300000000000000000201608230002001A F SUMINISTROS E.U.                              C000000000120000000000000000000000100010010000000000000000000000F0010000009024800420160823000101 00000000000000000000000000000000000000000000000000000000000000000000000000000000000000000000000000000000000000000N 00000000000NCONT   00    00000000000          00000000000000000000000000000000000000000000 000000000000000A000000000000000000000000000000000000000000000 000000000000000000000000000000000000000     00000000                                                                                                                        000000000000000000
F0010000009024800005000090001736600013552100000000000000000201608230002001A F SUMINISTROS E.U.                              D000000000120000000000000000000000100010010000000000000000000000F0010000009024800520160823000101 00000000000000000000000000000000000000000000000000000000000000000000000000000000000000000000000000000000000000000N 00000000000NCONT   00    00000000000          00000000000000000000000000000000000000000000 000000000000000A000000000000000000000000000000000000000000000 000000000000000000000000000000000000000     00000000                                                                                                                        000000000000000000
F0010000009024900001000000868487100013050500000000000000000201608230002001JAIME PIEROS                                    D000000006010000000000000000000000100010010000000000000000000000F0010000009024900120160823000101 00000000000000000000000000000000000000000000000000000000000000000000000000000000000000000000000000000000000000000N 00000000000NCONT   00    00000000000          00000000000000000000000000000000000000000000 000000000000000A000000000000000000000000000000000000000000000 000000000000000000000000000000000000000     00000000                                                                                                                        000000000000000000
F0010000009024900002000000868487100041450500000000000000000201608230002001JAIME PIEROS                                    C000000003760000000000000000000000100010010000000000000000000000F0010000009024900220160823000101 00000000000000000000000000000000000000000000000000000000000000000000000000000000000000000000000000000000000000000N 00000000000NCONT   00    00000000000          00000000000000000000000000000000000000000000 000000000000000A000000000000000000000000000000000000000000000 000000000000000000000000000000000000000     00000000                                                                                                                        000000000000000000
F0010000009024900003000000868487100042505000000000000000000201608230002001JAIME PIEROS                                    C000000002250000000000000000000000100010010000000000000000000000F0010000009024900320160823000101 00000000000000000000000000000000000000000000000000000000000000000000000000000000000000000000000000000000000000000N 00000000000NCONT   00    00000000000          00000000000000000000000000000000000000000000 000000000000000A000000000000000000000000000000000000000000000 000000000000000000000000000000000000000     00000000                                                                                                                        000000000000000000
F0010000009024900004000000868487100023658300000000000000000201608230002001JAIME PIEROS                                    C000000000030100000000000000000000100010010000000000000000000000F0010000009024900420160823000101 00000000000000000000000000000000000000000000000000000000000000000000000000000000000000000000000000000000000000000N 00000000000NCONT   00    00000000000          00000000000000000000000000000000000000000000 000000000000000A000000000000000000000000000000000000000000000 000000000000000000000000000000000000000     00000000                                                                                                                        000000000000000000
F0010000009024900005000000868487100013552100000000000000000201608230002001JAIME PIEROS                                    D000000000030100000000000000000000100010010000000000000000000000F0010000009024900520160823000101 00000000000000000000000000000000000000000000000000000000000000000000000000000000000000000000000000000000000000000N 00000000000NCONT   00    00000000000          00000000000000000000000000000000000000000000 000000000000000A000000000000000000000000000000000000000000000 000000000000000000000000000000000000000     00000000                                                                                                                        000000000000000000
F0010000009025000001000080000083500013050500000000000000000201608230002001ALIPAR Y CIA LTDA                                 D000000063671600000000000000000000100010010000000000000000000000F0010000009025000120160823000101 00000000000000000000000000000000000000000000000000000000000000000000000000000000000000000000000000000000000000000N 00000000000NCONT   00    00000000000          00000000000000000000000000000000000000000000 000000000000000A000000000000000000000000000000000000000000000 000000000000000000000000000000000000000     00000000                                                                                                                        000000000000000000
F0010000009025000002000080000083500041450500000000000000000201608230002001ALIPAR Y CIA LTDA                                 C000000059121600000000000000000000100010010000000000000000000000F0010000009025000220160823000101 00000000000000000000000000000000000000000000000000000000000000000000000000000000000000000000000000000000000000000N 00000000000NCONT   00    00000000000          00000000000000000000000000000000000000000000 000000000000000A000000000000000000000000000000000000000000000 000000000000000000000000000000000000000     00000000                                                                                                                        000000000000000000
F0010000009025000003000080000083500042505000000000000000000201608230002001ALIPAR Y CIA LTDA                                 C000000004550000000000000000000000100010010000000000000000000000F0010000009025000320160823000101 00000000000000000000000000000000000000000000000000000000000000000000000000000000000000000000000000000000000000000N 00000000000NCONT   00    00000000000          00000000000000000000000000000000000000000000 000000000000000A000000000000000000000000000000000000000000000 000000000000000000000000000000000000000     00000000                                                                                                                        000000000000000000
F0010000009025000004000080000083500023658300000000000000000201608230002001ALIPAR Y CIA LTDA                                 C000000000473000000000000000000000100010010000000000000000000000F0010000009025000420160823000101 00000000000000000000000000000000000000000000000000000000000000000000000000000000000000000000000000000000000000000N 00000000000NCONT   00    00000000000          00000000000000000000000000000000000000000000 000000000000000A000000000000000000000000000000000000000000000 000000000000000000000000000000000000000     00000000                                                                                                                        000000000000000000
F0010000009025000005000080000083500013552100000000000000000201608230002001ALIPAR Y CIA LTDA                                 D000000000473000000000000000000000100010010000000000000000000000F0010000009025000520160823000101 00000000000000000000000000000000000000000000000000000000000000000000000000000000000000000000000000000000000000000N 00000000000NCONT   00    00000000000          00000000000000000000000000000000000000000000 000000000000000A000000000000000000000000000000000000000000000 000000000000000000000000000000000000000     00000000                                                                                                                        000000000000000000
F0010000009025100001000080202132300013050500000000000000000201608230002001SUM Y SERV DE LA COSTA LTDA                       D000000014240000000000000000000000100010010000000000000000000000F0010000009025100120160823000101 00000000000000000000000000000000000000000000000000000000000000000000000000000000000000000000000000000000000000000N 00000000000NCONT   00    00000000000          00000000000000000000000000000000000000000000 000000000000000A000000000000000000000000000000000000000000000 000000000000000000000000000000000000000     00000000                                                                                                                        000000000000000000
F0010000009025100002000080202132300041450500000000000000000201608230002001SUM Y SERV DE LA COSTA LTDA                       C000000013340000000000000000000000100010010000000000000000000000F0010000009025100220160823000101 00000000000000000000000000000000000000000000000000000000000000000000000000000000000000000000000000000000000000000N 00000000000NCONT   00    00000000000          00000000000000000000000000000000000000000000 000000000000000A000000000000000000000000000000000000000000000 000000000000000000000000000000000000000     00000000                                                                                                                        000000000000000000
F0010000009025100003000080202132300042505000000000000000000201608230002001SUM Y SERV DE LA COSTA LTDA                       C000000000900000000000000000000000100010010000000000000000000000F0010000009025100320160823000101 00000000000000000000000000000000000000000000000000000000000000000000000000000000000000000000000000000000000000000N 00000000000NCONT   00    00000000000          00000000000000000000000000000000000000000000 000000000000000A000000000000000000000000000000000000000000000 000000000000000000000000000000000000000     00000000                                                                                                                        000000000000000000
F0010000009025100004000080202132300023658300000000000000000201608230002001SUM Y SERV DE LA COSTA LTDA                       C000000000106700000000000000000000100010010000000000000000000000F0010000009025100420160823000101 00000000000000000000000000000000000000000000000000000000000000000000000000000000000000000000000000000000000000000N 00000000000NCONT   00    00000000000          00000000000000000000000000000000000000000000 000000000000000A000000000000000000000000000000000000000000000 000000000000000000000000000000000000000     00000000                                                                                                                        000000000000000000
F0010000009025100005000080202132300013552100000000000000000201608230002001SUM Y SERV DE LA COSTA LTDA                       D000000000106700000000000000000000100010010000000000000000000000F0010000009025100520160823000101 00000000000000000000000000000000000000000000000000000000000000000000000000000000000000000000000000000000000000000N 00000000000NCONT   00    00000000000          00000000000000000000000000000000000000000000 000000000000000A000000000000000000000000000000000000000000000 000000000000000000000000000000000000000     00000000                                                                                                                        000000000000000000
F0010000009025200001000090001973700013050500000000000000000201608230002001DISTRIBUIDORA Y PAPELERIA VENEPLAS LTDA           D000000009000000000000000000000000100010010000000000000000000000F0010000009025200120160823000101 00000000000000000000000000000000000000000000000000000000000000000000000000000000000000000000000000000000000000000N 00000000000NCONT   00    00000000000          00000000000000000000000000000000000000000000 000000000000000A000000000000000000000000000000000000000000000 000000000000000000000000000000000000000     00000000                                                                                                                        000000000000000000
F0010000009025200002000090001973700041450500000000000000000201608230002001DISTRIBUIDORA Y PAPELERIA VENEPLAS LTDA           C000000008400000000000000000000000100010010000000000000000000000F0010000009025200220160823000101 00000000000000000000000000000000000000000000000000000000000000000000000000000000000000000000000000000000000000000N 00000000000NCONT   00    00000000000          00000000000000000000000000000000000000000000 000000000000000A000000000000000000000000000000000000000000000 000000000000000000000000000000000000000     00000000                                                                                                                        000000000000000000
F0010000009025200003000090001973700042505000000000000000000201608230002001DISTRIBUIDORA Y PAPELERIA VENEPLAS LTDA           C000000000600000000000000000000000100010010000000000000000000000F0010000009025200320160823000101 00000000000000000000000000000000000000000000000000000000000000000000000000000000000000000000000000000000000000000N 00000000000NCONT   00    00000000000          00000000000000000000000000000000000000000000 000000000000000A000000000000000000000000000000000000000000000 000000000000000000000000000000000000000     00000000                                                                                                                        000000000000000000
F0010000009025200004000090001973700023658300000000000000000201608230002001DISTRIBUIDORA Y PAPELERIA VENEPLAS LTDA           C000000000067200000000000000000000100010010000000000000000000000F0010000009025200420160823000101 00000000000000000000000000000000000000000000000000000000000000000000000000000000000000000000000000000000000000000N 00000000000NCONT   00    00000000000          00000000000000000000000000000000000000000000 000000000000000A000000000000000000000000000000000000000000000 000000000000000000000000000000000000000     00000000                                                                                                                        000000000000000000
F0010000009025200005000090001973700013552100000000000000000201608230002001DISTRIBUIDORA Y PAPELERIA VENEPLAS LTDA           D000000000067200000000000000000000100010010000000000000000000000F0010000009025200520160823000101 00000000000000000000000000000000000000000000000000000000000000000000000000000000000000000000000000000000000000000N 00000000000NCONT   00    00000000000          00000000000000000000000000000000000000000000 000000000000000A000000000000000000000000000000000000000000000 000000000000000000000000000000000000000     00000000                                                                                                                        000000000000000000
F0010000009025300001000090019362000013050500000000000000000201608230002001GENERAL SUPPLIES CIA LTDA                         D000000024881600000000000000000000100010010000000000000000000000F0010000009025300120160823000101 00000000000000000000000000000000000000000000000000000000000000000000000000000000000000000000000000000000000000000N 00000000000NCONT   00    00000000000          00000000000000000000000000000000000000000000 000000000000000A000000000000000000000000000000000000000000000 000000000000000000000000000000000000000     00000000                                                                                                                        000000000000000000
F0010000009025300002000090019362000041450500000000000000000201608230002001GENERAL SUPPLIES CIA LTDA                         C000000021611600000000000000000000100010010000000000000000000000F0010000009025300220160823000101 00000000000000000000000000000000000000000000000000000000000000000000000000000000000000000000000000000000000000000N 00000000000NCONT   00    00000000000          00000000000000000000000000000000000000000000 000000000000000A000000000000000000000000000000000000000000000 000000000000000000000000000000000000000     00000000                                                                                                                        000000000000000000
F0010000009025300003000090019362000042505000000000000000000201608230002001GENERAL SUPPLIES CIA LTDA                         C000000003270000000000000000000000100010010000000000000000000000F0010000009025300320160823000101 00000000000000000000000000000000000000000000000000000000000000000000000000000000000000000000000000000000000000000N 00000000000NCONT   00    00000000000          00000000000000000000000000000000000000000000 000000000000000A000000000000000000000000000000000000000000000 000000000000000000000000000000000000000     00000000                                                                                                                        000000000000000000
F0010000009025300004000090019362000023658300000000000000000201608230002001GENERAL SUPPLIES CIA LTDA                         C000000000172900000000000000000000100010010000000000000000000000F0010000009025300420160823000101 00000000000000000000000000000000000000000000000000000000000000000000000000000000000000000000000000000000000000000N 00000000000NCONT   00    00000000000          00000000000000000000000000000000000000000000 000000000000000A000000000000000000000000000000000000000000000 000000000000000000000000000000000000000     00000000                                                                                                                        000000000000000000
F0010000009025300005000090019362000013552100000000000000000201608230002001GENERAL SUPPLIES CIA LTDA                         D000000000172900000000000000000000100010010000000000000000000000F0010000009025300520160823000101 00000000000000000000000000000000000000000000000000000000000000000000000000000000000000000000000000000000000000000N 00000000000NCONT   00    00000000000          00000000000000000000000000000000000000000000 000000000000000A000000000000000000000000000000000000000000000 000000000000000000000000000000000000000     00000000                                                                                                                        000000000000000000
F0010000009025400001000004175790100013050500000000000000000201608230002001ROSIRIS FERIA HOYOS  (COSM. SHILLER)              D000000005100000000000000000000000100010010000000000000000000000F0010000009025400120160823000101 00000000000000000000000000000000000000000000000000000000000000000000000000000000000000000000000000000000000000000N 00000000000NCONT   00    00000000000          00000000000000000000000000000000000000000000 000000000000000A000000000000000000000000000000000000000000000 000000000000000000000000000000000000000     00000000                                                                                                                        000000000000000000
F0010000009025400002000004175790100041450500000000000000000201608230002001ROSIRIS FERIA HOYOS  (COSM. SHILLER)              C000000004100000000000000000000000100010010000000000000000000000F0010000009025400220160823000101 00000000000000000000000000000000000000000000000000000000000000000000000000000000000000000000000000000000000000000N 00000000000NCONT   00    00000000000          00000000000000000000000000000000000000000000 000000000000000A000000000000000000000000000000000000000000000 000000000000000000000000000000000000000     00000000                                                                                                                        000000000000000000
F0010000009025400003000004175790100042505000000000000000000201608230002001ROSIRIS FERIA HOYOS  (COSM. SHILLER)              C000000001000000000000000000000000100010010000000000000000000000F0010000009025400320160823000101 00000000000000000000000000000000000000000000000000000000000000000000000000000000000000000000000000000000000000000N 00000000000NCONT   00    00000000000          00000000000000000000000000000000000000000000 000000000000000A000000000000000000000000000000000000000000000 000000000000000000000000000000000000000     00000000                                                                                                                        000000000000000000
F0010000009025400004000004175790100023658300000000000000000201608230002001ROSIRIS FERIA HOYOS  (COSM. SHILLER)              C000000000032800000000000000000000100010010000000000000000000000F0010000009025400420160823000101 00000000000000000000000000000000000000000000000000000000000000000000000000000000000000000000000000000000000000000N 00000000000NCONT   00    00000000000          00000000000000000000000000000000000000000000 000000000000000A000000000000000000000000000000000000000000000 000000000000000000000000000000000000000     00000000                                                                                                                        000000000000000000
F0010000009025400005000004175790100013552100000000000000000201608230002001ROSIRIS FERIA HOYOS  (COSM. SHILLER)              D000000000032800000000000000000000100010010000000000000000000000F0010000009025400520160823000101 00000000000000000000000000000000000000000000000000000000000000000000000000000000000000000000000000000000000000000N 00000000000NCONT   00    00000000000          00000000000000000000000000000000000000000000 000000000000000A000000000000000000000000000000000000000000000 000000000000000000000000000000000000000     00000000                                                                                                                        000000000000000000
F0010000009025500001000000744822500013050500000000000000000201608230002001LABORATORIO Y PERFUMERIA BORGE                    D000000015140000000000000000000000100010010000000000000000000000F0010000009025500120160823000101 00000000000000000000000000000000000000000000000000000000000000000000000000000000000000000000000000000000000000000N 00000000000NCONT   00    00000000000          00000000000000000000000000000000000000000000 000000000000000A000000000000000000000000000000000000000000000 000000000000000000000000000000000000000     00000000                                                                                                                        000000000000000000
F0010000009025500002000000744822500041450500000000000000000201608230002001LABORATORIO Y PERFUMERIA BORGE                    C000000010868000000000000000000000100010010000000000000000000000F0010000009025500220160823000101 00000000000000000000000000000000000000000000000000000000000000000000000000000000000000000000000000000000000000000N 00000000000NCONT   00    00000000000          00000000000000000000000000000000000000000000 000000000000000A000000000000000000000000000000000000000000000 000000000000000000000000000000000000000     00000000                                                                                                                        000000000000000000
F0010000009025500003000000744822500042505000000000000000000201608230002001LABORATORIO Y PERFUMERIA BORGE                    C000000004272000000000000000000000100010010000000000000000000000F0010000009025500320160823000101 00000000000000000000000000000000000000000000000000000000000000000000000000000000000000000000000000000000000000000N 00000000000NCONT   00    00000000000          00000000000000000000000000000000000000000000 000000000000000A000000000000000000000000000000000000000000000 000000000000000000000000000000000000000     00000000                                                                                                                        000000000000000000
F0010000009025500004000000744822500023658300000000000000000201608230002001LABORATORIO Y PERFUMERIA BORGE                    C000000000086900000000000000000000100010010000000000000000000000F0010000009025500420160823000101 00000000000000000000000000000000000000000000000000000000000000000000000000000000000000000000000000000000000000000N 00000000000NCONT   00    00000000000          00000000000000000000000000000000000000000000 000000000000000A000000000000000000000000000000000000000000000 000000000000000000000000000000000000000     00000000                                                                                                                        000000000000000000
F0010000009025500005000000744822500013552100000000000000000201608230002001LABORATORIO Y PERFUMERIA BORGE                    D000000000086900000000000000000000100010010000000000000000000000F0010000009025500520160823000101 00000000000000000000000000000000000000000000000000000000000000000000000000000000000000000000000000000000000000000N 00000000000NCONT   00    00000000000          00000000000000000000000000000000000000000000 000000000000000A000000000000000000000000000000000000000000000 000000000000000000000000000000000000000     00000000                                                                                                                        000000000000000000
F0010000009025600001000090040631000013050500000000000000000201608230002001BEINEX SAS                                        D000000041520000000000000000000000100010010000000000000000000000F0010000009025600120160823000101 00000000000000000000000000000000000000000000000000000000000000000000000000000000000000000000000000000000000000000N 00000000000NCONT   00    00000000000          00000000000000000000000000000000000000000000 000000000000000A000000000000000000000000000000000000000000000 000000000000000000000000000000000000000     00000000                                                                                                                        000000000000000000
F0010000009025600002000090040631000041450500000000000000000201608230002001BEINEX SAS                                        C000000043250000000000000000000000100010010000000000000000000000F0010000009025600220160823000101 00000000000000000000000000000000000000000000000000000000000000000000000000000000000000000000000000000000000000000N 00000000000NCONT   00    00000000000          00000000000000000000000000000000000000000000 000000000000000A000000000000000000000000000000000000000000000 000000000000000000000000000000000000000     00000000                                                                                                                        000000000000000000
F0010000009025600003000090040631000041750100000000000000000201608230002001BEINEX SAS                                        D000000001730000000000000000000000100010010000000000000000000000F0010000009025600320160823000101 00000000000000000000000000000000000000000000000000000000000000000000000000000000000000000000000000000000000000000N 00000000000NCONT   00    00000000000          00000000000000000000000000000000000000000000 000000000000000A000000000000000000000000000000000000000000000 000000000000000000000000000000000000000     00000000                                                                                                                        000000000000000000
F0010000009025600004000090040631000042505000000000000000000201608230002001BEINEX SAS                                        C000000000000000000000000000000000100010010000000000000000000000F0010000009025600420160823000101 00000000000000000000000000000000000000000000000000000000000000000000000000000000000000000000000000000000000000000N 00000000000NCONT   00    00000000000          00000000000000000000000000000000000000000000 000000000000000A000000000000000000000000000000000000000000000 000000000000000000000000000000000000000     00000000                                                                                                                        000000000000000000
F0010000009025600005000090040631000023658300000000000000000201608230002001BEINEX SAS                                        C000000000346000000000000000000000100010010000000000000000000000F0010000009025600520160823000101 00000000000000000000000000000000000000000000000000000000000000000000000000000000000000000000000000000000000000000N 00000000000NCONT   00    00000000000          00000000000000000000000000000000000000000000 000000000000000A000000000000000000000000000000000000000000000 000000000000000000000000000000000000000     00000000                                                                                                                        000000000000000000
F0010000009025600006000090040631000013552100000000000000000201608230002001BEINEX SAS                                        D000000000346000000000000000000000100010010000000000000000000000F0010000009025600620160823000101 00000000000000000000000000000000000000000000000000000000000000000000000000000000000000000000000000000000000000000N 00000000000NCONT   00    00000000000          00000000000000000000000000000000000000000000 000000000000000A000000000000000000000000000000000000000000000 000000000000000000000000000000000000000     00000000                                                                                                                        000000000000000000
F0010000009025700001000089010272700013050500000000000000000201608230002001ALFONSOEME S.A.                                   D000000026634300000000000000000000100010010000000000000000000000F0010000009025700120160823000101 00000000000000000000000000000000000000000000000000000000000000000000000000000000000000000000000000000000000000000N 00000000000NCONT   00    00000000000          00000000000000000000000000000000000000000000 000000000000000A000000000000000000000000000000000000000000000 000000000000000000000000000000000000000     00000000                                                                                                                        000000000000000000
F0010000009025700002000089010272700041450500000000000000000201608230002001ALFONSOEME S.A.                                   C000000026927000000000000000000000100010010000000000000000000000F0010000009025700220160823000101 00000000000000000000000000000000000000000000000000000000000000000000000000000000000000000000000000000000000000000N 00000000000NCONT   00    00000000000          00000000000000000000000000000000000000000000 000000000000000A000000000000000000000000000000000000000000000 000000000000000000000000000000000000000     00000000                                                                                                                        000000000000000000
F0010000009025700003000089010272700041750100000000000000000201608230002001ALFONSOEME S.A.                                   D000000002692700000000000000000000100010010000000000000000000000F0010000009025700320160823000101 00000000000000000000000000000000000000000000000000000000000000000000000000000000000000000000000000000000000000000N 00000000000NCONT   00    00000000000          00000000000000000000000000000000000000000000 000000000000000A000000000000000000000000000000000000000000000 000000000000000000000000000000000000000     00000000                                                                                                                        000000000000000000
F0010000009025700004000089010272700042505000000000000000000201608230002001ALFONSOEME S.A.                                   C000000002400000000000000000000000100010010000000000000000000000F0010000009025700420160823000101 00000000000000000000000000000000000000000000000000000000000000000000000000000000000000000000000000000000000000000N 00000000000NCONT   00    00000000000          00000000000000000000000000000000000000000000 000000000000000A000000000000000000000000000000000000000000000 000000000000000000000000000000000000000     00000000                                                                                                                        000000000000000000
F0010000009025700005000089010272700023658300000000000000000201608230002001ALFONSOEME S.A.                                   C000000000215400000000000000000000100010010000000000000000000000F0010000009025700520160823000101 00000000000000000000000000000000000000000000000000000000000000000000000000000000000000000000000000000000000000000N 00000000000NCONT   00    00000000000          00000000000000000000000000000000000000000000 000000000000000A000000000000000000000000000000000000000000000 000000000000000000000000000000000000000     00000000                                                                                                                        000000000000000000
F0010000009025700006000089010272700013552100000000000000000201608230002001ALFONSOEME S.A.                                   D000000000215400000000000000000000100010010000000000000000000000F0010000009025700620160823000101 00000000000000000000000000000000000000000000000000000000000000000000000000000000000000000000000000000000000000000N 00000000000NCONT   00    00000000000          00000000000000000000000000000000000000000000 000000000000000A000000000000000000000000000000000000000000000 000000000000000000000000000000000000000     00000000                                                                                                                        000000000000000000
F0010000009025800001000000917734000011050500000000000000000201608230002001ENRIQUE LARA CASTELLAR                            D000000002900000000000000000000000100010010000000000000000000000F0010000009025800120160823000101 00000000000000000000000000000000000000000000000000000000000000000000000000000000000000000000000000000000000000000N 00000000000NCONT   00    00000000000          00000000000000000000000000000000000000000000 000000000000000A000000000000000000000000000000000000000000000 000000000000000000000000000000000000000     00000000                                                                                                                        000000000000000000
F0010000009025800002000000917734000041450500000000000000000201608230002001ENRIQUE LARA CASTELLAR                            C000000002000000000000000000000000100010010000000000000000000000F0010000009025800220160823000101 00000000000000000000000000000000000000000000000000000000000000000000000000000000000000000000000000000000000000000N 00000000000NCONT   00    00000000000          00000000000000000000000000000000000000000000 000000000000000A000000000000000000000000000000000000000000000 000000000000000000000000000000000000000     00000000                                                                                                                        000000000000000000
F0010000009025800003000000917734000042505000000000000000000201608230002001ENRIQUE LARA CASTELLAR                            C000000000900000000000000000000000100010010000000000000000000000F0010000009025800320160823000101 00000000000000000000000000000000000000000000000000000000000000000000000000000000000000000000000000000000000000000N 00000000000NCONT   00    00000000000          00000000000000000000000000000000000000000000 000000000000000A000000000000000000000000000000000000000000000 000000000000000000000000000000000000000     00000000                                                                                                                        000000000000000000
F0010000009025800004000000917734000023658300000000000000000201608230002001ENRIQUE LARA CASTELLAR                            C000000000016000000000000000000000100010010000000000000000000000F0010000009025800420160823000101 00000000000000000000000000000000000000000000000000000000000000000000000000000000000000000000000000000000000000000N 00000000000NCONT   00    00000000000          00000000000000000000000000000000000000000000 000000000000000A000000000000000000000000000000000000000000000 000000000000000000000000000000000000000     00000000                                                                                                                        000000000000000000
