F0010000006003600001000081102758700013050500000000000000000201407090002001C.I. ABRACOL S.A EMA                              D000000093454100000000000000000000100010010000000000000000000000F0010000006003600120140709000101 00000000000000000000000000000000000000000000000000000000000000000000000000000000000000000000000000000000000000000N 00000000000NCONT   00    00000000000          00000000000000000000000000000000000000000000 000000000000000A000000000000000000000000000000000000000000000 000000000000000000000000000000000000000     00000000                                                                                                                        000000000000000000
F0010000006003600002000081102758700041450500000000000000000201407090002001C.I. ABRACOL S.A EMA                              C000000052230000000000000000000000100010010000000000000000000000F0010000006003600220140709000101 00000000000000000000000000000000000000000000000000000000000000000000000000000000000000000000000000000000000000000N 00000000000NCONT   00    00000000000          00000000000000000000000000000000000000000000 000000000000000A000000000000000000000000000000000000000000000 000000000000000000000000000000000000000     00000000                                                                                                                        000000000000000000
F0010000006003600003000081102758700041750100000000000000000201407090002001C.I. ABRACOL S.A EMA                              D000000001566900000000000000000000100010010000000000000000000000F0010000006003600320140709000101 00000000000000000000000000000000000000000000000000000000000000000000000000000000000000000000000000000000000000000N 00000000000NCONT   00    00000000000          00000000000000000000000000000000000000000000 000000000000000A000000000000000000000000000000000000000000000 000000000000000000000000000000000000000     00000000                                                                                                                        000000000000000000
F0010000006003600004000081102758700042505000000000000000000201407090002001C.I. ABRACOL S.A EMA                              C000000042791000000000000000000000100010010000000000000000000000F0010000006003600420140709000101 00000000000000000000000000000000000000000000000000000000000000000000000000000000000000000000000000000000000000000N 00000000000NCONT   00    00000000000          00000000000000000000000000000000000000000000 000000000000000A000000000000000000000000000000000000000000000 000000000000000000000000000000000000000     00000000                                                                                                                        000000000000000000
F0010000006003600005000081102758700023658300000000000000000201407090002001C.I. ABRACOL S.A EMA                              C000000000417800000000000000000000100010010000000000000000000000F0010000006003600520140709000101 00000000000000000000000000000000000000000000000000000000000000000000000000000000000000000000000000000000000000000N 00000000000NCONT   00    00000000000          00000000000000000000000000000000000000000000 000000000000000A000000000000000000000000000000000000000000000 000000000000000000000000000000000000000     00000000                                                                                                                        000000000000000000
F0010000006003600006000081102758700013552100000000000000000201407090002001C.I. ABRACOL S.A EMA                              D000000000417800000000000000000000100010010000000000000000000000F0010000006003600620140709000101 00000000000000000000000000000000000000000000000000000000000000000000000000000000000000000000000000000000000000000N 00000000000NCONT   00    00000000000          00000000000000000000000000000000000000000000 000000000000000A000000000000000000000000000000000000000000000 000000000000000000000000000000000000000     00000000                                                                                                                        000000000000000000
F0010000006003700001000081102758700013050500000000000000000201407090002001C.I. ABRACOL S.A EMA                              D000000102028000000000000000000000100010010000000000000000000000F0010000006003700120140709000101 00000000000000000000000000000000000000000000000000000000000000000000000000000000000000000000000000000000000000000N 00000000000NCONT   00    00000000000          00000000000000000000000000000000000000000000 000000000000000A000000000000000000000000000000000000000000000 000000000000000000000000000000000000000     00000000                                                                                                                        000000000000000000
F0010000006003700002000081102758700041450500000000000000000201407090002001C.I. ABRACOL S.A EMA                              C000000068060000000000000000000000100010010000000000000000000000F0010000006003700220140709000101 00000000000000000000000000000000000000000000000000000000000000000000000000000000000000000000000000000000000000000N 00000000000NCONT   00    00000000000          00000000000000000000000000000000000000000000 000000000000000A000000000000000000000000000000000000000000000 000000000000000000000000000000000000000     00000000                                                                                                                        000000000000000000
F0010000006003700003000081102758700041750100000000000000000201407090002001C.I. ABRACOL S.A EMA                              D000000002041800000000000000000000100010010000000000000000000000F0010000006003700320140709000101 00000000000000000000000000000000000000000000000000000000000000000000000000000000000000000000000000000000000000000N 00000000000NCONT   00    00000000000          00000000000000000000000000000000000000000000 000000000000000A000000000000000000000000000000000000000000000 000000000000000000000000000000000000000     00000000                                                                                                                        000000000000000000
F0010000006003700004000081102758700042505000000000000000000201407090002001C.I. ABRACOL S.A EMA                              C000000036009800000000000000000000100010010000000000000000000000F0010000006003700420140709000101 00000000000000000000000000000000000000000000000000000000000000000000000000000000000000000000000000000000000000000N 00000000000NCONT   00    00000000000          00000000000000000000000000000000000000000000 000000000000000A000000000000000000000000000000000000000000000 000000000000000000000000000000000000000     00000000                                                                                                                        000000000000000000
F0010000006003700005000081102758700023658300000000000000000201407090002001C.I. ABRACOL S.A EMA                              C000000000544500000000000000000000100010010000000000000000000000F0010000006003700520140709000101 00000000000000000000000000000000000000000000000000000000000000000000000000000000000000000000000000000000000000000N 00000000000NCONT   00    00000000000          00000000000000000000000000000000000000000000 000000000000000A000000000000000000000000000000000000000000000 000000000000000000000000000000000000000     00000000                                                                                                                        000000000000000000
F0010000006003700006000081102758700013552100000000000000000201407090002001C.I. ABRACOL S.A EMA                              D000000000544500000000000000000000100010010000000000000000000000F0010000006003700620140709000101 00000000000000000000000000000000000000000000000000000000000000000000000000000000000000000000000000000000000000000N 00000000000NCONT   00    00000000000          00000000000000000000000000000000000000000000 000000000000000A000000000000000000000000000000000000000000000 000000000000000000000000000000000000000     00000000                                                                                                                        000000000000000000
F0010000006003800001000081102758700013050500000000000000000201407090002001C.I. ABRACOL S.A EMA                              D000000045952100000000000000000000100010010000000000000000000000F0010000006003800120140709000101 00000000000000000000000000000000000000000000000000000000000000000000000000000000000000000000000000000000000000000N 00000000000NCONT   00    00000000000          00000000000000000000000000000000000000000000 000000000000000A000000000000000000000000000000000000000000000 000000000000000000000000000000000000000     00000000                                                                                                                        000000000000000000
F0010000006003800002000081102758700041450500000000000000000201407090002001C.I. ABRACOL S.A EMA                              C000000031640000000000000000000000100010010000000000000000000000F0010000006003800220140709000101 00000000000000000000000000000000000000000000000000000000000000000000000000000000000000000000000000000000000000000N 00000000000NCONT   00    00000000000          00000000000000000000000000000000000000000000 000000000000000A000000000000000000000000000000000000000000000 000000000000000000000000000000000000000     00000000                                                                                                                        000000000000000000
F0010000006003800003000081102758700041750100000000000000000201407090002001C.I. ABRACOL S.A EMA                              D000000000949200000000000000000000100010010000000000000000000000F0010000006003800320140709000101 00000000000000000000000000000000000000000000000000000000000000000000000000000000000000000000000000000000000000000N 00000000000NCONT   00    00000000000          00000000000000000000000000000000000000000000 000000000000000A000000000000000000000000000000000000000000000 000000000000000000000000000000000000000     00000000                                                                                                                        000000000000000000
F0010000006003800004000081102758700042505000000000000000000201407090002001C.I. ABRACOL S.A EMA                              C000000015261300000000000000000000100010010000000000000000000000F0010000006003800420140709000101 00000000000000000000000000000000000000000000000000000000000000000000000000000000000000000000000000000000000000000N 00000000000NCONT   00    00000000000          00000000000000000000000000000000000000000000 000000000000000A000000000000000000000000000000000000000000000 000000000000000000000000000000000000000     00000000                                                                                                                        000000000000000000
F0010000006003800005000081102758700023658300000000000000000201407090002001C.I. ABRACOL S.A EMA                              C000000000253100000000000000000000100010010000000000000000000000F0010000006003800520140709000101 00000000000000000000000000000000000000000000000000000000000000000000000000000000000000000000000000000000000000000N 00000000000NCONT   00    00000000000          00000000000000000000000000000000000000000000 000000000000000A000000000000000000000000000000000000000000000 000000000000000000000000000000000000000     00000000                                                                                                                        000000000000000000
F0010000006003800006000081102758700013552100000000000000000201407090002001C.I. ABRACOL S.A EMA                              D000000000253100000000000000000000100010010000000000000000000000F0010000006003800620140709000101 00000000000000000000000000000000000000000000000000000000000000000000000000000000000000000000000000000000000000000N 00000000000NCONT   00    00000000000          00000000000000000000000000000000000000000000 000000000000000A000000000000000000000000000000000000000000000 000000000000000000000000000000000000000     00000000                                                                                                                        000000000000000000
F0010000006003900001000081102758700013050500000000000000000201407090002001C.I. ABRACOL S.A EMA                              D000000045514800000000000000000000100010010000000000000000000000F0010000006003900120140709000101 00000000000000000000000000000000000000000000000000000000000000000000000000000000000000000000000000000000000000000N 00000000000NCONT   00    00000000000          00000000000000000000000000000000000000000000 000000000000000A000000000000000000000000000000000000000000000 000000000000000000000000000000000000000     00000000                                                                                                                        000000000000000000
F0010000006003900002000081102758700041450500000000000000000201407090002001C.I. ABRACOL S.A EMA                              C000000031852600000000000000000000100010010000000000000000000000F0010000006003900220140709000101 00000000000000000000000000000000000000000000000000000000000000000000000000000000000000000000000000000000000000000N 00000000000NCONT   00    00000000000          00000000000000000000000000000000000000000000 000000000000000A000000000000000000000000000000000000000000000 000000000000000000000000000000000000000     00000000                                                                                                                        000000000000000000
F0010000006003900003000081102758700041750100000000000000000201407090002001C.I. ABRACOL S.A EMA                              D000000000955600000000000000000000100010010000000000000000000000F0010000006003900320140709000101 00000000000000000000000000000000000000000000000000000000000000000000000000000000000000000000000000000000000000000N 00000000000NCONT   00    00000000000          00000000000000000000000000000000000000000000 000000000000000A000000000000000000000000000000000000000000000 000000000000000000000000000000000000000     00000000                                                                                                                        000000000000000000
F0010000006003900004000081102758700042505000000000000000000201407090002001C.I. ABRACOL S.A EMA                              C000000014617800000000000000000000100010010000000000000000000000F0010000006003900420140709000101 00000000000000000000000000000000000000000000000000000000000000000000000000000000000000000000000000000000000000000N 00000000000NCONT   00    00000000000          00000000000000000000000000000000000000000000 000000000000000A000000000000000000000000000000000000000000000 000000000000000000000000000000000000000     00000000                                                                                                                        000000000000000000
F0010000006003900005000081102758700023658300000000000000000201407090002001C.I. ABRACOL S.A EMA                              C000000000254800000000000000000000100010010000000000000000000000F0010000006003900520140709000101 00000000000000000000000000000000000000000000000000000000000000000000000000000000000000000000000000000000000000000N 00000000000NCONT   00    00000000000          00000000000000000000000000000000000000000000 000000000000000A000000000000000000000000000000000000000000000 000000000000000000000000000000000000000     00000000                                                                                                                        000000000000000000
F0010000006003900006000081102758700013552100000000000000000201407090002001C.I. ABRACOL S.A EMA                              D000000000254800000000000000000000100010010000000000000000000000F0010000006003900620140709000101 00000000000000000000000000000000000000000000000000000000000000000000000000000000000000000000000000000000000000000N 00000000000NCONT   00    00000000000          00000000000000000000000000000000000000000000 000000000000000A000000000000000000000000000000000000000000000 000000000000000000000000000000000000000     00000000                                                                                                                        000000000000000000
F0010000006004000001000000827614700013050500000000000000000201407090002001ALVARO  HERNAN  PEREZ ALVAREZ                     D000000007700000000000000000000000100010010000000000000000000000F0010000006004000120140709000101 00000000000000000000000000000000000000000000000000000000000000000000000000000000000000000000000000000000000000000N 00000000000NCONT   00    00000000000          00000000000000000000000000000000000000000000 000000000000000A000000000000000000000000000000000000000000000 000000000000000000000000000000000000000     00000000                                                                                                                        000000000000000000
F0010000006004000002000000827614700041450500000000000000000201407090002001ALVARO  HERNAN  PEREZ ALVAREZ                     C000000007200000000000000000000000100010010000000000000000000000F0010000006004000220140709000101 00000000000000000000000000000000000000000000000000000000000000000000000000000000000000000000000000000000000000000N 00000000000NCONT   00    00000000000          00000000000000000000000000000000000000000000 000000000000000A000000000000000000000000000000000000000000000 000000000000000000000000000000000000000     00000000                                                                                                                        000000000000000000
F0010000006004000003000000827614700042505000000000000000000201407090002001ALVARO  HERNAN  PEREZ ALVAREZ                     C000000000500000000000000000000000100010010000000000000000000000F0010000006004000320140709000101 00000000000000000000000000000000000000000000000000000000000000000000000000000000000000000000000000000000000000000N 00000000000NCONT   00    00000000000          00000000000000000000000000000000000000000000 000000000000000A000000000000000000000000000000000000000000000 000000000000000000000000000000000000000     00000000                                                                                                                        000000000000000000
F0010000006004000004000000827614700023658300000000000000000201407090002001ALVARO  HERNAN  PEREZ ALVAREZ                     C000000000057600000000000000000000100010010000000000000000000000F0010000006004000420140709000101 00000000000000000000000000000000000000000000000000000000000000000000000000000000000000000000000000000000000000000N 00000000000NCONT   00    00000000000          00000000000000000000000000000000000000000000 000000000000000A000000000000000000000000000000000000000000000 000000000000000000000000000000000000000     00000000                                                                                                                        000000000000000000
F0010000006004000005000000827614700013552100000000000000000201407090002001ALVARO  HERNAN  PEREZ ALVAREZ                     D000000000057600000000000000000000100010010000000000000000000000F0010000006004000520140709000101 00000000000000000000000000000000000000000000000000000000000000000000000000000000000000000000000000000000000000000N 00000000000NCONT   00    00000000000          00000000000000000000000000000000000000000000 000000000000000A000000000000000000000000000000000000000000000 000000000000000000000000000000000000000     00000000                                                                                                                        000000000000000000
F0010000006004100001000090044920600013050500000000000000000201407090002001QUATRO CARIBE SAS                                 D000000004790000000000000000000000100010010000000000000000000000F0010000006004100120140709000101 00000000000000000000000000000000000000000000000000000000000000000000000000000000000000000000000000000000000000000N 00000000000NCONT   00    00000000000          00000000000000000000000000000000000000000000 000000000000000A000000000000000000000000000000000000000000000 000000000000000000000000000000000000000     00000000                                                                                                                        000000000000000000
F0010000006004100002000090044920600041450500000000000000000201407090002001QUATRO CARIBE SAS                                 C000000003680000000000000000000000100010010000000000000000000000F0010000006004100220140709000101 00000000000000000000000000000000000000000000000000000000000000000000000000000000000000000000000000000000000000000N 00000000000NCONT   00    00000000000          00000000000000000000000000000000000000000000 000000000000000A000000000000000000000000000000000000000000000 000000000000000000000000000000000000000     00000000                                                                                                                        000000000000000000
F0010000006004100003000090044920600042505000000000000000000201407090002001QUATRO CARIBE SAS                                 C000000001110000000000000000000000100010010000000000000000000000F0010000006004100320140709000101 00000000000000000000000000000000000000000000000000000000000000000000000000000000000000000000000000000000000000000N 00000000000NCONT   00    00000000000          00000000000000000000000000000000000000000000 000000000000000A000000000000000000000000000000000000000000000 000000000000000000000000000000000000000     00000000                                                                                                                        000000000000000000
F0010000006004100004000090044920600023658300000000000000000201407090002001QUATRO CARIBE SAS                                 C000000000029400000000000000000000100010010000000000000000000000F0010000006004100420140709000101 00000000000000000000000000000000000000000000000000000000000000000000000000000000000000000000000000000000000000000N 00000000000NCONT   00    00000000000          00000000000000000000000000000000000000000000 000000000000000A000000000000000000000000000000000000000000000 000000000000000000000000000000000000000     00000000                                                                                                                        000000000000000000
F0010000006004100005000090044920600013552100000000000000000201407090002001QUATRO CARIBE SAS                                 D000000000029400000000000000000000100010010000000000000000000000F0010000006004100520140709000101 00000000000000000000000000000000000000000000000000000000000000000000000000000000000000000000000000000000000000000N 00000000000NCONT   00    00000000000          00000000000000000000000000000000000000000000 000000000000000A000000000000000000000000000000000000000000000 000000000000000000000000000000000000000     00000000                                                                                                                        000000000000000000
F0010000006004300001000089011078600013050500000000000000000201407090002001DIST. NUEVO MUNDO S.A.S.                          D000000006286100000000000000000000100010010000000000000000000000F0010000006004300120140709000101 00000000000000000000000000000000000000000000000000000000000000000000000000000000000000000000000000000000000000000N 00000000000NCONT   00    00000000000          00000000000000000000000000000000000000000000 000000000000000A000000000000000000000000000000000000000000000 000000000000000000000000000000000000000     00000000                                                                                                                        000000000000000000
F0010000006004300002000089011078600041450500000000000000000201407090002001DIST. NUEVO MUNDO S.A.S.                          C000000006060000000000000000000000100010010000000000000000000000F0010000006004300220140709000101 00000000000000000000000000000000000000000000000000000000000000000000000000000000000000000000000000000000000000000N 00000000000NCONT   00    00000000000          00000000000000000000000000000000000000000000 000000000000000A000000000000000000000000000000000000000000000 000000000000000000000000000000000000000     00000000                                                                                                                        000000000000000000
F0010000006004300003000089011078600042505000000000000000000201407090002001DIST. NUEVO MUNDO S.A.S.                          C000000000226100000000000000000000100010010000000000000000000000F0010000006004300320140709000101 00000000000000000000000000000000000000000000000000000000000000000000000000000000000000000000000000000000000000000N 00000000000NCONT   00    00000000000          00000000000000000000000000000000000000000000 000000000000000A000000000000000000000000000000000000000000000 000000000000000000000000000000000000000     00000000                                                                                                                        000000000000000000
F0010000006004300004000089011078600023658300000000000000000201407090002001DIST. NUEVO MUNDO S.A.S.                          C000000000048500000000000000000000100010010000000000000000000000F0010000006004300420140709000101 00000000000000000000000000000000000000000000000000000000000000000000000000000000000000000000000000000000000000000N 00000000000NCONT   00    00000000000          00000000000000000000000000000000000000000000 000000000000000A000000000000000000000000000000000000000000000 000000000000000000000000000000000000000     00000000                                                                                                                        000000000000000000
F0010000006004300005000089011078600013552100000000000000000201407090002001DIST. NUEVO MUNDO S.A.S.                          D000000000048500000000000000000000100010010000000000000000000000F0010000006004300520140709000101 00000000000000000000000000000000000000000000000000000000000000000000000000000000000000000000000000000000000000000N 00000000000NCONT   00    00000000000          00000000000000000000000000000000000000000000 000000000000000A000000000000000000000000000000000000000000000 000000000000000000000000000000000000000     00000000                                                                                                                        000000000000000000
F0010000006004400001000090013579000013050500000000000000000201407090002001C.I LOGISTIC VENTURE SA                           D000000001000000000000000000000000100010010000000000000000000000F0010000006004400120140709000101 00000000000000000000000000000000000000000000000000000000000000000000000000000000000000000000000000000000000000000N 00000000000NCONT   00    00000000000          00000000000000000000000000000000000000000000 000000000000000A000000000000000000000000000000000000000000000 000000000000000000000000000000000000000     00000000                                                                                                                        000000000000000000
F0010000006004400002000090013579000041450500000000000000000201407090002001C.I LOGISTIC VENTURE SA                           C000000000900000000000000000000000100010010000000000000000000000F0010000006004400220140709000101 00000000000000000000000000000000000000000000000000000000000000000000000000000000000000000000000000000000000000000N 00000000000NCONT   00    00000000000          00000000000000000000000000000000000000000000 000000000000000A000000000000000000000000000000000000000000000 000000000000000000000000000000000000000     00000000                                                                                                                        000000000000000000
F0010000006004400003000090013579000042505000000000000000000201407090002001C.I LOGISTIC VENTURE SA                           C000000000100000000000000000000000100010010000000000000000000000F0010000006004400320140709000101 00000000000000000000000000000000000000000000000000000000000000000000000000000000000000000000000000000000000000000N 00000000000NCONT   00    00000000000          00000000000000000000000000000000000000000000 000000000000000A000000000000000000000000000000000000000000000 000000000000000000000000000000000000000     00000000                                                                                                                        000000000000000000
F0010000006004400004000090013579000023658300000000000000000201407090002001C.I LOGISTIC VENTURE SA                           C000000000007200000000000000000000100010010000000000000000000000F0010000006004400420140709000101 00000000000000000000000000000000000000000000000000000000000000000000000000000000000000000000000000000000000000000N 00000000000NCONT   00    00000000000          00000000000000000000000000000000000000000000 000000000000000A000000000000000000000000000000000000000000000 000000000000000000000000000000000000000     00000000                                                                                                                        000000000000000000
F0010000006004400005000090013579000013552100000000000000000201407090002001C.I LOGISTIC VENTURE SA                           D000000000007200000000000000000000100010010000000000000000000000F0010000006004400520140709000101 00000000000000000000000000000000000000000000000000000000000000000000000000000000000000000000000000000000000000000N 00000000000NCONT   00    00000000000          00000000000000000000000000000000000000000000 000000000000000A000000000000000000000000000000000000000000000 000000000000000000000000000000000000000     00000000                                                                                                                        000000000000000000
F0010000006004500001000000876579700013050500000000000000000201407090002001JOSE LUIS MUÑOZ                                  D000000003640000000000000000000000100010010000000000000000000000F0010000006004500120140709000101 00000000000000000000000000000000000000000000000000000000000000000000000000000000000000000000000000000000000000000N 00000000000NCONT   00    00000000000          00000000000000000000000000000000000000000000 000000000000000A000000000000000000000000000000000000000000000 000000000000000000000000000000000000000     00000000                                                                                                                        000000000000000000
F0010000006004500002000000876579700041450500000000000000000201407090002001JOSE LUIS MUÑOZ                                  C000000003440000000000000000000000100010010000000000000000000000F0010000006004500220140709000101 00000000000000000000000000000000000000000000000000000000000000000000000000000000000000000000000000000000000000000N 00000000000NCONT   00    00000000000          00000000000000000000000000000000000000000000 000000000000000A000000000000000000000000000000000000000000000 000000000000000000000000000000000000000     00000000                                                                                                                        000000000000000000
F0010000006004500003000000876579700042505000000000000000000201407090002001JOSE LUIS MUÑOZ                                  C000000000200000000000000000000000100010010000000000000000000000F0010000006004500320140709000101 00000000000000000000000000000000000000000000000000000000000000000000000000000000000000000000000000000000000000000N 00000000000NCONT   00    00000000000          00000000000000000000000000000000000000000000 000000000000000A000000000000000000000000000000000000000000000 000000000000000000000000000000000000000     00000000                                                                                                                        000000000000000000
F0010000006004500004000000876579700023658300000000000000000201407090002001JOSE LUIS MUÑOZ                                  C000000000027500000000000000000000100010010000000000000000000000F0010000006004500420140709000101 00000000000000000000000000000000000000000000000000000000000000000000000000000000000000000000000000000000000000000N 00000000000NCONT   00    00000000000          00000000000000000000000000000000000000000000 000000000000000A000000000000000000000000000000000000000000000 000000000000000000000000000000000000000     00000000                                                                                                                        000000000000000000
F0010000006004500005000000876579700013552100000000000000000201407090002001JOSE LUIS MUÑOZ                                  D000000000027500000000000000000000100010010000000000000000000000F0010000006004500520140709000101 00000000000000000000000000000000000000000000000000000000000000000000000000000000000000000000000000000000000000000N 00000000000NCONT   00    00000000000          00000000000000000000000000000000000000000000 000000000000000A000000000000000000000000000000000000000000000 000000000000000000000000000000000000000     00000000                                                                                                                        000000000000000000
F0010000006004600001000090036991700013050500000000000000000201407090002001DELTA INTERNACIONAL  S.A.S                        D000000007860000000000000000000000100010010000000000000000000000F0010000006004600120140709000101 00000000000000000000000000000000000000000000000000000000000000000000000000000000000000000000000000000000000000000N 00000000000NCONT   00    00000000000          00000000000000000000000000000000000000000000 000000000000000A000000000000000000000000000000000000000000000 000000000000000000000000000000000000000     00000000                                                                                                                        000000000000000000
F0010000006004600002000090036991700041450500000000000000000201407090002001DELTA INTERNACIONAL  S.A.S                        C000000007360000000000000000000000100010010000000000000000000000F0010000006004600220140709000101 00000000000000000000000000000000000000000000000000000000000000000000000000000000000000000000000000000000000000000N 00000000000NCONT   00    00000000000          00000000000000000000000000000000000000000000 000000000000000A000000000000000000000000000000000000000000000 000000000000000000000000000000000000000     00000000                                                                                                                        000000000000000000
F0010000006004600003000090036991700042505000000000000000000201407090002001DELTA INTERNACIONAL  S.A.S                        C000000000500000000000000000000000100010010000000000000000000000F0010000006004600320140709000101 00000000000000000000000000000000000000000000000000000000000000000000000000000000000000000000000000000000000000000N 00000000000NCONT   00    00000000000          00000000000000000000000000000000000000000000 000000000000000A000000000000000000000000000000000000000000000 000000000000000000000000000000000000000     00000000                                                                                                                        000000000000000000
F0010000006004600004000090036991700023658300000000000000000201407090002001DELTA INTERNACIONAL  S.A.S                        C000000000058900000000000000000000100010010000000000000000000000F0010000006004600420140709000101 00000000000000000000000000000000000000000000000000000000000000000000000000000000000000000000000000000000000000000N 00000000000NCONT   00    00000000000          00000000000000000000000000000000000000000000 000000000000000A000000000000000000000000000000000000000000000 000000000000000000000000000000000000000     00000000                                                                                                                        000000000000000000
F0010000006004600005000090036991700013552100000000000000000201407090002001DELTA INTERNACIONAL  S.A.S                        D000000000058900000000000000000000100010010000000000000000000000F0010000006004600520140709000101 00000000000000000000000000000000000000000000000000000000000000000000000000000000000000000000000000000000000000000N 00000000000NCONT   00    00000000000          00000000000000000000000000000000000000000000 000000000000000A000000000000000000000000000000000000000000000 000000000000000000000000000000000000000     00000000                                                                                                                        000000000000000000
F0010000006004700001000086053108300013050500000000000000000201407090002001EL PALACIO DEL ALUMINIO  LTDA                     D000000005354700000000000000000000100010010000000000000000000000F0010000006004700120140709000101 00000000000000000000000000000000000000000000000000000000000000000000000000000000000000000000000000000000000000000N 00000000000NCONT   00    00000000000          00000000000000000000000000000000000000000000 000000000000000A000000000000000000000000000000000000000000000 000000000000000000000000000000000000000     00000000                                                                                                                        000000000000000000
F0010000006004700002000086053108300041450500000000000000000201407090002001EL PALACIO DEL ALUMINIO  LTDA                     C000000004477200000000000000000000100010010000000000000000000000F0010000006004700220140709000101 00000000000000000000000000000000000000000000000000000000000000000000000000000000000000000000000000000000000000000N 00000000000NCONT   00    00000000000          00000000000000000000000000000000000000000000 000000000000000A000000000000000000000000000000000000000000000 000000000000000000000000000000000000000     00000000                                                                                                                        000000000000000000
F0010000006004700003000086053108300042505000000000000000000201407090002001EL PALACIO DEL ALUMINIO  LTDA                     C000000000877500000000000000000000100010010000000000000000000000F0010000006004700320140709000101 00000000000000000000000000000000000000000000000000000000000000000000000000000000000000000000000000000000000000000N 00000000000NCONT   00    00000000000          00000000000000000000000000000000000000000000 000000000000000A000000000000000000000000000000000000000000000 000000000000000000000000000000000000000     00000000                                                                                                                        000000000000000000
F0010000006004700004000086053108300023658300000000000000000201407090002001EL PALACIO DEL ALUMINIO  LTDA                     C000000000035800000000000000000000100010010000000000000000000000F0010000006004700420140709000101 00000000000000000000000000000000000000000000000000000000000000000000000000000000000000000000000000000000000000000N 00000000000NCONT   00    00000000000          00000000000000000000000000000000000000000000 000000000000000A000000000000000000000000000000000000000000000 000000000000000000000000000000000000000     00000000                                                                                                                        000000000000000000
F0010000006004700005000086053108300013552100000000000000000201407090002001EL PALACIO DEL ALUMINIO  LTDA                     D000000000035800000000000000000000100010010000000000000000000000F0010000006004700520140709000101 00000000000000000000000000000000000000000000000000000000000000000000000000000000000000000000000000000000000000000N 00000000000NCONT   00    00000000000          00000000000000000000000000000000000000000000 000000000000000A000000000000000000000000000000000000000000000 000000000000000000000000000000000000000     00000000                                                                                                                        000000000000000000
F0010000006004800001000090014415700013050500000000000000000201407090002001CORDELES Y EXTRUIDOS DE COLOMBIA S.A.S.           D000000004165000000000000000000000100010010000000000000000000000F0010000006004800120140709000101 00000000000000000000000000000000000000000000000000000000000000000000000000000000000000000000000000000000000000000N 00000000000NCONT   00    00000000000          00000000000000000000000000000000000000000000 000000000000000A000000000000000000000000000000000000000000000 000000000000000000000000000000000000000     00000000                                                                                                                        000000000000000000
F0010000006004800002000090014415700041450500000000000000000201407090002001CORDELES Y EXTRUIDOS DE COLOMBIA S.A.S.           C000000003800000000000000000000000100010010000000000000000000000F0010000006004800220140709000101 00000000000000000000000000000000000000000000000000000000000000000000000000000000000000000000000000000000000000000N 00000000000NCONT   00    00000000000          00000000000000000000000000000000000000000000 000000000000000A000000000000000000000000000000000000000000000 000000000000000000000000000000000000000     00000000                                                                                                                        000000000000000000
F0010000006004800003000090014415700042505000000000000000000201407090002001CORDELES Y EXTRUIDOS DE COLOMBIA S.A.S.           C000000000365000000000000000000000100010010000000000000000000000F0010000006004800320140709000101 00000000000000000000000000000000000000000000000000000000000000000000000000000000000000000000000000000000000000000N 00000000000NCONT   00    00000000000          00000000000000000000000000000000000000000000 000000000000000A000000000000000000000000000000000000000000000 000000000000000000000000000000000000000     00000000                                                                                                                        000000000000000000
F0010000006004800004000090014415700023658300000000000000000201407090002001CORDELES Y EXTRUIDOS DE COLOMBIA S.A.S.           C000000000030400000000000000000000100010010000000000000000000000F0010000006004800420140709000101 00000000000000000000000000000000000000000000000000000000000000000000000000000000000000000000000000000000000000000N 00000000000NCONT   00    00000000000          00000000000000000000000000000000000000000000 000000000000000A000000000000000000000000000000000000000000000 000000000000000000000000000000000000000     00000000                                                                                                                        000000000000000000
F0010000006004800005000090014415700013552100000000000000000201407090002001CORDELES Y EXTRUIDOS DE COLOMBIA S.A.S.           D000000000030400000000000000000000100010010000000000000000000000F0010000006004800520140709000101 00000000000000000000000000000000000000000000000000000000000000000000000000000000000000000000000000000000000000000N 00000000000NCONT   00    00000000000          00000000000000000000000000000000000000000000 000000000000000A000000000000000000000000000000000000000000000 000000000000000000000000000000000000000     00000000                                                                                                                        000000000000000000
F0010000006004900001000001719393900013050500000000000000000201407090002001JAIRO BASTIDAS RAMIREZ                            D000000002800000000000000000000000100010010000000000000000000000F0010000006004900120140709000101 00000000000000000000000000000000000000000000000000000000000000000000000000000000000000000000000000000000000000000N 00000000000NCONT   00    00000000000          00000000000000000000000000000000000000000000 000000000000000A000000000000000000000000000000000000000000000 000000000000000000000000000000000000000     00000000                                                                                                                        000000000000000000
F0010000006004900002000001719393900041450500000000000000000201407090002001JAIRO BASTIDAS RAMIREZ                            C000000002600000000000000000000000100010010000000000000000000000F0010000006004900220140709000101 00000000000000000000000000000000000000000000000000000000000000000000000000000000000000000000000000000000000000000N 00000000000NCONT   00    00000000000          00000000000000000000000000000000000000000000 000000000000000A000000000000000000000000000000000000000000000 000000000000000000000000000000000000000     00000000                                                                                                                        000000000000000000
F0010000006004900003000001719393900042505000000000000000000201407090002001JAIRO BASTIDAS RAMIREZ                            C000000000200000000000000000000000100010010000000000000000000000F0010000006004900320140709000101 00000000000000000000000000000000000000000000000000000000000000000000000000000000000000000000000000000000000000000N 00000000000NCONT   00    00000000000          00000000000000000000000000000000000000000000 000000000000000A000000000000000000000000000000000000000000000 000000000000000000000000000000000000000     00000000                                                                                                                        000000000000000000
F0010000006004900004000001719393900023658300000000000000000201407090002001JAIRO BASTIDAS RAMIREZ                            C000000000020800000000000000000000100010010000000000000000000000F0010000006004900420140709000101 00000000000000000000000000000000000000000000000000000000000000000000000000000000000000000000000000000000000000000N 00000000000NCONT   00    00000000000          00000000000000000000000000000000000000000000 000000000000000A000000000000000000000000000000000000000000000 000000000000000000000000000000000000000     00000000                                                                                                                        000000000000000000
F0010000006004900005000001719393900013552100000000000000000201407090002001JAIRO BASTIDAS RAMIREZ                            D000000000020800000000000000000000100010010000000000000000000000F0010000006004900520140709000101 00000000000000000000000000000000000000000000000000000000000000000000000000000000000000000000000000000000000000000N 00000000000NCONT   00    00000000000          00000000000000000000000000000000000000000000 000000000000000A000000000000000000000000000000000000000000000 000000000000000000000000000000000000000     00000000                                                                                                                        000000000000000000
F0010000006005000001000090037881900013050500000000000000000201407090002001COMERCIALIZADORA RACOPI S.A.S                     D000000005670000000000000000000000100010010000000000000000000000F0010000006005000120140709000101 00000000000000000000000000000000000000000000000000000000000000000000000000000000000000000000000000000000000000000N 00000000000NCONT   00    00000000000          00000000000000000000000000000000000000000000 000000000000000A000000000000000000000000000000000000000000000 000000000000000000000000000000000000000     00000000                                                                                                                        000000000000000000
F0010000006005000002000090037881900041450500000000000000000201407090002001COMERCIALIZADORA RACOPI S.A.S                     C000000005070000000000000000000000100010010000000000000000000000F0010000006005000220140709000101 00000000000000000000000000000000000000000000000000000000000000000000000000000000000000000000000000000000000000000N 00000000000NCONT   00    00000000000          00000000000000000000000000000000000000000000 000000000000000A000000000000000000000000000000000000000000000 000000000000000000000000000000000000000     00000000                                                                                                                        000000000000000000
F0010000006005000003000090037881900042505000000000000000000201407090002001COMERCIALIZADORA RACOPI S.A.S                     C000000000600000000000000000000000100010010000000000000000000000F0010000006005000320140709000101 00000000000000000000000000000000000000000000000000000000000000000000000000000000000000000000000000000000000000000N 00000000000NCONT   00    00000000000          00000000000000000000000000000000000000000000 000000000000000A000000000000000000000000000000000000000000000 000000000000000000000000000000000000000     00000000                                                                                                                        000000000000000000
F0010000006005000004000090037881900023658300000000000000000201407090002001COMERCIALIZADORA RACOPI S.A.S                     C000000000040600000000000000000000100010010000000000000000000000F0010000006005000420140709000101 00000000000000000000000000000000000000000000000000000000000000000000000000000000000000000000000000000000000000000N 00000000000NCONT   00    00000000000          00000000000000000000000000000000000000000000 000000000000000A000000000000000000000000000000000000000000000 000000000000000000000000000000000000000     00000000                                                                                                                        000000000000000000
F0010000006005000005000090037881900013552100000000000000000201407090002001COMERCIALIZADORA RACOPI S.A.S                     D000000000040600000000000000000000100010010000000000000000000000F0010000006005000520140709000101 00000000000000000000000000000000000000000000000000000000000000000000000000000000000000000000000000000000000000000N 00000000000NCONT   00    00000000000          00000000000000000000000000000000000000000000 000000000000000A000000000000000000000000000000000000000000000 000000000000000000000000000000000000000     00000000                                                                                                                        000000000000000000
F0010000006005100001000089011719700013050500000000000000000201407090002001REP. MUNERA GALARZA LTDA (FRANCISCO MUNERA)       D000000001215000000000000000000000100010010000000000000000000000F0010000006005100120140709000101 00000000000000000000000000000000000000000000000000000000000000000000000000000000000000000000000000000000000000000N 00000000000NCONT   00    00000000000          00000000000000000000000000000000000000000000 000000000000000A000000000000000000000000000000000000000000000 000000000000000000000000000000000000000     00000000                                                                                                                        000000000000000000
F0010000006005100002000089011719700041450500000000000000000201407090002001REP. MUNERA GALARZA LTDA (FRANCISCO MUNERA)       C000000001090000000000000000000000100010010000000000000000000000F0010000006005100220140709000101 00000000000000000000000000000000000000000000000000000000000000000000000000000000000000000000000000000000000000000N 00000000000NCONT   00    00000000000          00000000000000000000000000000000000000000000 000000000000000A000000000000000000000000000000000000000000000 000000000000000000000000000000000000000     00000000                                                                                                                        000000000000000000
F0010000006005100003000089011719700042505000000000000000000201407090002001REP. MUNERA GALARZA LTDA (FRANCISCO MUNERA)       C000000000125000000000000000000000100010010000000000000000000000F0010000006005100320140709000101 00000000000000000000000000000000000000000000000000000000000000000000000000000000000000000000000000000000000000000N 00000000000NCONT   00    00000000000          00000000000000000000000000000000000000000000 000000000000000A000000000000000000000000000000000000000000000 000000000000000000000000000000000000000     00000000                                                                                                                        000000000000000000
F0010000006005100004000089011719700023658300000000000000000201407090002001REP. MUNERA GALARZA LTDA (FRANCISCO MUNERA)       C000000000008700000000000000000000100010010000000000000000000000F0010000006005100420140709000101 00000000000000000000000000000000000000000000000000000000000000000000000000000000000000000000000000000000000000000N 00000000000NCONT   00    00000000000          00000000000000000000000000000000000000000000 000000000000000A000000000000000000000000000000000000000000000 000000000000000000000000000000000000000     00000000                                                                                                                        000000000000000000
F0010000006005100005000089011719700013552100000000000000000201407090002001REP. MUNERA GALARZA LTDA (FRANCISCO MUNERA)       D000000000008700000000000000000000100010010000000000000000000000F0010000006005100520140709000101 00000000000000000000000000000000000000000000000000000000000000000000000000000000000000000000000000000000000000000N 00000000000NCONT   00    00000000000          00000000000000000000000000000000000000000000 000000000000000A000000000000000000000000000000000000000000000 000000000000000000000000000000000000000     00000000                                                                                                                        000000000000000000
F0010000006005200001000090013035500013050500000000000000000201407090002001FUJIAN SHAN S.A.                                  D000000087053300000000000000000000100010010000000000000000000000F0010000006005200120140709000101 00000000000000000000000000000000000000000000000000000000000000000000000000000000000000000000000000000000000000000N 00000000000NCONT   00    00000000000          00000000000000000000000000000000000000000000 000000000000000A000000000000000000000000000000000000000000000 000000000000000000000000000000000000000     00000000                                                                                                                        000000000000000000
F0010000006005200002000090013035500041450500000000000000000201407090002001FUJIAN SHAN S.A.                                  C000000084553300000000000000000000100010010000000000000000000000F0010000006005200220140709000101 00000000000000000000000000000000000000000000000000000000000000000000000000000000000000000000000000000000000000000N 00000000000NCONT   00    00000000000          00000000000000000000000000000000000000000000 000000000000000A000000000000000000000000000000000000000000000 000000000000000000000000000000000000000     00000000                                                                                                                        000000000000000000
F0010000006005200003000090013035500042505000000000000000000201407090002001FUJIAN SHAN S.A.                                  C000000002500000000000000000000000100010010000000000000000000000F0010000006005200320140709000101 00000000000000000000000000000000000000000000000000000000000000000000000000000000000000000000000000000000000000000N 00000000000NCONT   00    00000000000          00000000000000000000000000000000000000000000 000000000000000A000000000000000000000000000000000000000000000 000000000000000000000000000000000000000     00000000                                                                                                                        000000000000000000
F0010000006005200004000090013035500023658300000000000000000201407090002001FUJIAN SHAN S.A.                                  C000000000676400000000000000000000100010010000000000000000000000F0010000006005200420140709000101 00000000000000000000000000000000000000000000000000000000000000000000000000000000000000000000000000000000000000000N 00000000000NCONT   00    00000000000          00000000000000000000000000000000000000000000 000000000000000A000000000000000000000000000000000000000000000 000000000000000000000000000000000000000     00000000                                                                                                                        000000000000000000
F0010000006005200005000090013035500013552100000000000000000201407090002001FUJIAN SHAN S.A.                                  D000000000676400000000000000000000100010010000000000000000000000F0010000006005200520140709000101 00000000000000000000000000000000000000000000000000000000000000000000000000000000000000000000000000000000000000000N 00000000000NCONT   00    00000000000          00000000000000000000000000000000000000000000 000000000000000A000000000000000000000000000000000000000000000 000000000000000000000000000000000000000     00000000                                                                                                                        000000000000000000
F0010000006005300001000086000490200013050500000000000000000201407090002001PROV. DE PAPELES ANDINA S.A.                      D000000049296500000000000000000000100010010000000000000000000000F0010000006005300120140709000101 00000000000000000000000000000000000000000000000000000000000000000000000000000000000000000000000000000000000000000N 00000000000NCONT   00    00000000000          00000000000000000000000000000000000000000000 000000000000000A000000000000000000000000000000000000000000000 000000000000000000000000000000000000000     00000000                                                                                                                        000000000000000000
F0010000006005300002000086000490200041450500000000000000000201407090002001PROV. DE PAPELES ANDINA S.A.                      C000000044523300000000000000000000100010010000000000000000000000F0010000006005300220140709000101 00000000000000000000000000000000000000000000000000000000000000000000000000000000000000000000000000000000000000000N 00000000000NCONT   00    00000000000          00000000000000000000000000000000000000000000 000000000000000A000000000000000000000000000000000000000000000 000000000000000000000000000000000000000     00000000                                                                                                                        000000000000000000
F0010000006005300003000086000490200042505000000000000000000201407090002001PROV. DE PAPELES ANDINA S.A.                      C000000004773200000000000000000000100010010000000000000000000000F0010000006005300320140709000101 00000000000000000000000000000000000000000000000000000000000000000000000000000000000000000000000000000000000000000N 00000000000NCONT   00    00000000000          00000000000000000000000000000000000000000000 000000000000000A000000000000000000000000000000000000000000000 000000000000000000000000000000000000000     00000000                                                                                                                        000000000000000000
F0010000006005300004000086000490200023658300000000000000000201407090002001PROV. DE PAPELES ANDINA S.A.                      C000000000356200000000000000000000100010010000000000000000000000F0010000006005300420140709000101 00000000000000000000000000000000000000000000000000000000000000000000000000000000000000000000000000000000000000000N 00000000000NCONT   00    00000000000          00000000000000000000000000000000000000000000 000000000000000A000000000000000000000000000000000000000000000 000000000000000000000000000000000000000     00000000                                                                                                                        000000000000000000
F0010000006005300005000086000490200013552100000000000000000201407090002001PROV. DE PAPELES ANDINA S.A.                      D000000000356200000000000000000000100010010000000000000000000000F0010000006005300520140709000101 00000000000000000000000000000000000000000000000000000000000000000000000000000000000000000000000000000000000000000N 00000000000NCONT   00    00000000000          00000000000000000000000000000000000000000000 000000000000000A000000000000000000000000000000000000000000000 000000000000000000000000000000000000000     00000000                                                                                                                        000000000000000000
F0010000006005400001000080002300200013050500000000000000000201407090002001DISREL S.A.                                       D000000032040000000000000000000000100010010000000000000000000000F0010000006005400120140709000101 00000000000000000000000000000000000000000000000000000000000000000000000000000000000000000000000000000000000000000N 00000000000NCONT   00    00000000000          00000000000000000000000000000000000000000000 000000000000000A000000000000000000000000000000000000000000000 000000000000000000000000000000000000000     00000000                                                                                                                        000000000000000000
F0010000006005400002000080002300200041450500000000000000000201407090002001DISREL S.A.                                       C000000032040000000000000000000000100010010000000000000000000000F0010000006005400220140709000101 00000000000000000000000000000000000000000000000000000000000000000000000000000000000000000000000000000000000000000N 00000000000NCONT   00    00000000000          00000000000000000000000000000000000000000000 000000000000000A000000000000000000000000000000000000000000000 000000000000000000000000000000000000000     00000000                                                                                                                        000000000000000000
F0010000006005400003000080002300200042505000000000000000000201407090002001DISREL S.A.                                       C000000000000000000000000000000000100010010000000000000000000000F0010000006005400320140709000101 00000000000000000000000000000000000000000000000000000000000000000000000000000000000000000000000000000000000000000N 00000000000NCONT   00    00000000000          00000000000000000000000000000000000000000000 000000000000000A000000000000000000000000000000000000000000000 000000000000000000000000000000000000000     00000000                                                                                                                        000000000000000000
F0010000006005400004000080002300200023658300000000000000000201407090002001DISREL S.A.                                       C000000000256300000000000000000000100010010000000000000000000000F0010000006005400420140709000101 00000000000000000000000000000000000000000000000000000000000000000000000000000000000000000000000000000000000000000N 00000000000NCONT   00    00000000000          00000000000000000000000000000000000000000000 000000000000000A000000000000000000000000000000000000000000000 000000000000000000000000000000000000000     00000000                                                                                                                        000000000000000000
F0010000006005400005000080002300200013552100000000000000000201407090002001DISREL S.A.                                       D000000000256300000000000000000000100010010000000000000000000000F0010000006005400520140709000101 00000000000000000000000000000000000000000000000000000000000000000000000000000000000000000000000000000000000000000N 00000000000NCONT   00    00000000000          00000000000000000000000000000000000000000000 000000000000000A000000000000000000000000000000000000000000000 000000000000000000000000000000000000000     00000000                                                                                                                        000000000000000000
F0010000006005500001000089010526900013050500000000000000000201407090002001DISTRIBUCIONES CANAL Y CIA S.A.S                  D000000034879000000000000000000000100010010000000000000000000000F0010000006005500120140709000101 00000000000000000000000000000000000000000000000000000000000000000000000000000000000000000000000000000000000000000N 00000000000NCONT   00    00000000000          00000000000000000000000000000000000000000000 000000000000000A000000000000000000000000000000000000000000000 000000000000000000000000000000000000000     00000000                                                                                                                        000000000000000000
F0010000006005500002000089010526900041450500000000000000000201407090002001DISTRIBUCIONES CANAL Y CIA S.A.S                  C000000022810000000000000000000000100010010000000000000000000000F0010000006005500220140709000101 00000000000000000000000000000000000000000000000000000000000000000000000000000000000000000000000000000000000000000N 00000000000NCONT   00    00000000000          00000000000000000000000000000000000000000000 000000000000000A000000000000000000000000000000000000000000000 000000000000000000000000000000000000000     00000000                                                                                                                        000000000000000000
F0010000006005500003000089010526900042505000000000000000000201407090002001DISTRIBUCIONES CANAL Y CIA S.A.S                  C000000012069000000000000000000000100010010000000000000000000000F0010000006005500320140709000101 00000000000000000000000000000000000000000000000000000000000000000000000000000000000000000000000000000000000000000N 00000000000NCONT   00    00000000000          00000000000000000000000000000000000000000000 000000000000000A000000000000000000000000000000000000000000000 000000000000000000000000000000000000000     00000000                                                                                                                        000000000000000000
F0010000006005500004000089010526900023658300000000000000000201407090002001DISTRIBUCIONES CANAL Y CIA S.A.S                  C000000000182500000000000000000000100010010000000000000000000000F0010000006005500420140709000101 00000000000000000000000000000000000000000000000000000000000000000000000000000000000000000000000000000000000000000N 00000000000NCONT   00    00000000000          00000000000000000000000000000000000000000000 000000000000000A000000000000000000000000000000000000000000000 000000000000000000000000000000000000000     00000000                                                                                                                        000000000000000000
F0010000006005500005000089010526900013552100000000000000000201407090002001DISTRIBUCIONES CANAL Y CIA S.A.S                  D000000000182500000000000000000000100010010000000000000000000000F0010000006005500520140709000101 00000000000000000000000000000000000000000000000000000000000000000000000000000000000000000000000000000000000000000N 00000000000NCONT   00    00000000000          00000000000000000000000000000000000000000000 000000000000000A000000000000000000000000000000000000000000000 000000000000000000000000000000000000000     00000000                                                                                                                        000000000000000000
F0010000006005600001000080016664500013050500000000000000000201407090002001TELAPLAS PANCER SAS                               D000000059463800000000000000000000100010010000000000000000000000F0010000006005600120140709000101 00000000000000000000000000000000000000000000000000000000000000000000000000000000000000000000000000000000000000000N 00000000000NCONT   00    00000000000          00000000000000000000000000000000000000000000 000000000000000A000000000000000000000000000000000000000000000 000000000000000000000000000000000000000     00000000                                                                                                                        000000000000000000
F0010000006005600002000080016664500041450500000000000000000201407090002001TELAPLAS PANCER SAS                               C000000047620000000000000000000000100010010000000000000000000000F0010000006005600220140709000101 00000000000000000000000000000000000000000000000000000000000000000000000000000000000000000000000000000000000000000N 00000000000NCONT   00    00000000000          00000000000000000000000000000000000000000000 000000000000000A000000000000000000000000000000000000000000000 000000000000000000000000000000000000000     00000000                                                                                                                        000000000000000000
F0010000006005600003000080016664500042505000000000000000000201407090002001TELAPLAS PANCER SAS                               C000000011843800000000000000000000100010010000000000000000000000F0010000006005600320140709000101 00000000000000000000000000000000000000000000000000000000000000000000000000000000000000000000000000000000000000000N 00000000000NCONT   00    00000000000          00000000000000000000000000000000000000000000 000000000000000A000000000000000000000000000000000000000000000 000000000000000000000000000000000000000     00000000                                                                                                                        000000000000000000
F0010000006005600004000080016664500023658300000000000000000201407090002001TELAPLAS PANCER SAS                               C000000000381000000000000000000000100010010000000000000000000000F0010000006005600420140709000101 00000000000000000000000000000000000000000000000000000000000000000000000000000000000000000000000000000000000000000N 00000000000NCONT   00    00000000000          00000000000000000000000000000000000000000000 000000000000000A000000000000000000000000000000000000000000000 000000000000000000000000000000000000000     00000000                                                                                                                        000000000000000000
F0010000006005600005000080016664500013552100000000000000000201407090002001TELAPLAS PANCER SAS                               D000000000381000000000000000000000100010010000000000000000000000F0010000006005600520140709000101 00000000000000000000000000000000000000000000000000000000000000000000000000000000000000000000000000000000000000000N 00000000000NCONT   00    00000000000          00000000000000000000000000000000000000000000 000000000000000A000000000000000000000000000000000000000000000 000000000000000000000000000000000000000     00000000                                                                                                                        000000000000000000
F0010000006005700001000089011758300013050500000000000000000201407090002001GARCILLANTAS BARRANQUILLA S.A.                    D000000010019500000000000000000000100010010000000000000000000000F0010000006005700120140709000101 00000000000000000000000000000000000000000000000000000000000000000000000000000000000000000000000000000000000000000N 00000000000NCONT   00    00000000000          00000000000000000000000000000000000000000000 000000000000000A000000000000000000000000000000000000000000000 000000000000000000000000000000000000000     00000000                                                                                                                        000000000000000000
F0010000006005700002000089011758300041450500000000000000000201407090002001GARCILLANTAS BARRANQUILLA S.A.                    C000000006320000000000000000000000100010010000000000000000000000F0010000006005700220140709000101 00000000000000000000000000000000000000000000000000000000000000000000000000000000000000000000000000000000000000000N 00000000000NCONT   00    00000000000          00000000000000000000000000000000000000000000 000000000000000A000000000000000000000000000000000000000000000 000000000000000000000000000000000000000     00000000                                                                                                                        000000000000000000
F0010000006005700003000089011758300042505000000000000000000201407090002001GARCILLANTAS BARRANQUILLA S.A.                    C000000003699500000000000000000000100010010000000000000000000000F0010000006005700320140709000101 00000000000000000000000000000000000000000000000000000000000000000000000000000000000000000000000000000000000000000N 00000000000NCONT   00    00000000000          00000000000000000000000000000000000000000000 000000000000000A000000000000000000000000000000000000000000000 000000000000000000000000000000000000000     00000000                                                                                                                        000000000000000000
F0010000006005700004000089011758300023658300000000000000000201407090002001GARCILLANTAS BARRANQUILLA S.A.                    C000000000050600000000000000000000100010010000000000000000000000F0010000006005700420140709000101 00000000000000000000000000000000000000000000000000000000000000000000000000000000000000000000000000000000000000000N 00000000000NCONT   00    00000000000          00000000000000000000000000000000000000000000 000000000000000A000000000000000000000000000000000000000000000 000000000000000000000000000000000000000     00000000                                                                                                                        000000000000000000
F0010000006005700005000089011758300013552100000000000000000201407090002001GARCILLANTAS BARRANQUILLA S.A.                    D000000000050600000000000000000000100010010000000000000000000000F0010000006005700520140709000101 00000000000000000000000000000000000000000000000000000000000000000000000000000000000000000000000000000000000000000N 00000000000NCONT   00    00000000000          00000000000000000000000000000000000000000000 000000000000000A000000000000000000000000000000000000000000000 000000000000000000000000000000000000000     00000000                                                                                                                        000000000000000000
F0010000006005800001000090010880700013050500000000000000000201407090002001PROELECTRICAS DE BARRANQUILLA LTDA                D000000007970000000000000000000000100010010000000000000000000000F0010000006005800120140709000101 00000000000000000000000000000000000000000000000000000000000000000000000000000000000000000000000000000000000000000N 00000000000NCONT   00    00000000000          00000000000000000000000000000000000000000000 000000000000000A000000000000000000000000000000000000000000000 000000000000000000000000000000000000000     00000000                                                                                                                        000000000000000000
F0010000006005800002000090010880700041450500000000000000000201407090002001PROELECTRICAS DE BARRANQUILLA LTDA                C000000007920000000000000000000000100010010000000000000000000000F0010000006005800220140709000101 00000000000000000000000000000000000000000000000000000000000000000000000000000000000000000000000000000000000000000N 00000000000NCONT   00    00000000000          00000000000000000000000000000000000000000000 000000000000000A000000000000000000000000000000000000000000000 000000000000000000000000000000000000000     00000000                                                                                                                        000000000000000000
F0010000006005800003000090010880700042505000000000000000000201407090002001PROELECTRICAS DE BARRANQUILLA LTDA                C000000000050000000000000000000000100010010000000000000000000000F0010000006005800320140709000101 00000000000000000000000000000000000000000000000000000000000000000000000000000000000000000000000000000000000000000N 00000000000NCONT   00    00000000000          00000000000000000000000000000000000000000000 000000000000000A000000000000000000000000000000000000000000000 000000000000000000000000000000000000000     00000000                                                                                                                        000000000000000000
F0010000006005800004000090010880700023658300000000000000000201407090002001PROELECTRICAS DE BARRANQUILLA LTDA                C000000000063400000000000000000000100010010000000000000000000000F0010000006005800420140709000101 00000000000000000000000000000000000000000000000000000000000000000000000000000000000000000000000000000000000000000N 00000000000NCONT   00    00000000000          00000000000000000000000000000000000000000000 000000000000000A000000000000000000000000000000000000000000000 000000000000000000000000000000000000000     00000000                                                                                                                        000000000000000000
F0010000006005800005000090010880700013552100000000000000000201407090002001PROELECTRICAS DE BARRANQUILLA LTDA                D000000000063400000000000000000000100010010000000000000000000000F0010000006005800520140709000101 00000000000000000000000000000000000000000000000000000000000000000000000000000000000000000000000000000000000000000N 00000000000NCONT   00    00000000000          00000000000000000000000000000000000000000000 000000000000000A000000000000000000000000000000000000000000000 000000000000000000000000000000000000000     00000000                                                                                                                        000000000000000000
F0010000006005900001000080016665600013050500000000000000000201407090002001SUMICAL DE ANTIOQUIA S.A.S                        D000000015709700000000000000000000100010010000000000000000000000F0010000006005900120140709000101 00000000000000000000000000000000000000000000000000000000000000000000000000000000000000000000000000000000000000000N 00000000000NCONT   00    00000000000          00000000000000000000000000000000000000000000 000000000000000A000000000000000000000000000000000000000000000 000000000000000000000000000000000000000     00000000                                                                                                                        000000000000000000
F0010000006005900002000080016665600041450500000000000000000201407090002001SUMICAL DE ANTIOQUIA S.A.S                        C000000013350000000000000000000000100010010000000000000000000000F0010000006005900220140709000101 00000000000000000000000000000000000000000000000000000000000000000000000000000000000000000000000000000000000000000N 00000000000NCONT   00    00000000000          00000000000000000000000000000000000000000000 000000000000000A000000000000000000000000000000000000000000000 000000000000000000000000000000000000000     00000000                                                                                                                        000000000000000000
F0010000006005900003000080016665600042505000000000000000000201407090002001SUMICAL DE ANTIOQUIA S.A.S                        C000000002359700000000000000000000100010010000000000000000000000F0010000006005900320140709000101 00000000000000000000000000000000000000000000000000000000000000000000000000000000000000000000000000000000000000000N 00000000000NCONT   00    00000000000          00000000000000000000000000000000000000000000 000000000000000A000000000000000000000000000000000000000000000 000000000000000000000000000000000000000     00000000                                                                                                                        000000000000000000
F0010000006005900004000080016665600023658300000000000000000201407090002001SUMICAL DE ANTIOQUIA S.A.S                        C000000000106800000000000000000000100010010000000000000000000000F0010000006005900420140709000101 00000000000000000000000000000000000000000000000000000000000000000000000000000000000000000000000000000000000000000N 00000000000NCONT   00    00000000000          00000000000000000000000000000000000000000000 000000000000000A000000000000000000000000000000000000000000000 000000000000000000000000000000000000000     00000000                                                                                                                        000000000000000000
F0010000006005900005000080016665600013552100000000000000000201407090002001SUMICAL DE ANTIOQUIA S.A.S                        D000000000106800000000000000000000100010010000000000000000000000F0010000006005900520140709000101 00000000000000000000000000000000000000000000000000000000000000000000000000000000000000000000000000000000000000000N 00000000000NCONT   00    00000000000          00000000000000000000000000000000000000000000 000000000000000A000000000000000000000000000000000000000000000 000000000000000000000000000000000000000     00000000                                                                                                                        000000000000000000
F0010000006006000001000002245670100013050500000000000000000201407090002001YOLANDA  TOBON                                    D000000016303700000000000000000000100010010000000000000000000000F0010000006006000120140709000101 00000000000000000000000000000000000000000000000000000000000000000000000000000000000000000000000000000000000000000N 00000000000NCONT   00    00000000000          00000000000000000000000000000000000000000000 000000000000000A000000000000000000000000000000000000000000000 000000000000000000000000000000000000000     00000000                                                                                                                        000000000000000000
F0010000006006000002000002245670100041450500000000000000000201407090002001YOLANDA  TOBON                                    C000000013520000000000000000000000100010010000000000000000000000F0010000006006000220140709000101 00000000000000000000000000000000000000000000000000000000000000000000000000000000000000000000000000000000000000000N 00000000000NCONT   00    00000000000          00000000000000000000000000000000000000000000 000000000000000A000000000000000000000000000000000000000000000 000000000000000000000000000000000000000     00000000                                                                                                                        000000000000000000
F0010000006006000003000002245670100042505000000000000000000201407090002001YOLANDA  TOBON                                    C000000002783700000000000000000000100010010000000000000000000000F0010000006006000320140709000101 00000000000000000000000000000000000000000000000000000000000000000000000000000000000000000000000000000000000000000N 00000000000NCONT   00    00000000000          00000000000000000000000000000000000000000000 000000000000000A000000000000000000000000000000000000000000000 000000000000000000000000000000000000000     00000000                                                                                                                        000000000000000000
F0010000006006000004000002245670100023658300000000000000000201407090002001YOLANDA  TOBON                                    C000000000108200000000000000000000100010010000000000000000000000F0010000006006000420140709000101 00000000000000000000000000000000000000000000000000000000000000000000000000000000000000000000000000000000000000000N 00000000000NCONT   00    00000000000          00000000000000000000000000000000000000000000 000000000000000A000000000000000000000000000000000000000000000 000000000000000000000000000000000000000     00000000                                                                                                                        000000000000000000
F0010000006006000005000002245670100013552100000000000000000201407090002001YOLANDA  TOBON                                    D000000000108200000000000000000000100010010000000000000000000000F0010000006006000520140709000101 00000000000000000000000000000000000000000000000000000000000000000000000000000000000000000000000000000000000000000N 00000000000NCONT   00    00000000000          00000000000000000000000000000000000000000000 000000000000000A000000000000000000000000000000000000000000000 000000000000000000000000000000000000000     00000000                                                                                                                        000000000000000000
F0010000006006100001000000376399500013050500000000000000000201407090002001FORDPLAST                                         D000000007410000000000000000000000100010010000000000000000000000F0010000006006100120140709000101 00000000000000000000000000000000000000000000000000000000000000000000000000000000000000000000000000000000000000000N 00000000000NCONT   00    00000000000          00000000000000000000000000000000000000000000 000000000000000A000000000000000000000000000000000000000000000 000000000000000000000000000000000000000     00000000                                                                                                                        000000000000000000
F0010000006006100002000000376399500041450500000000000000000201407090002001FORDPLAST                                         C000000005760000000000000000000000100010010000000000000000000000F0010000006006100220140709000101 00000000000000000000000000000000000000000000000000000000000000000000000000000000000000000000000000000000000000000N 00000000000NCONT   00    00000000000          00000000000000000000000000000000000000000000 000000000000000A000000000000000000000000000000000000000000000 000000000000000000000000000000000000000     00000000                                                                                                                        000000000000000000
F0010000006006100003000000376399500042505000000000000000000201407090002001FORDPLAST                                         C000000001650000000000000000000000100010010000000000000000000000F0010000006006100320140709000101 00000000000000000000000000000000000000000000000000000000000000000000000000000000000000000000000000000000000000000N 00000000000NCONT   00    00000000000          00000000000000000000000000000000000000000000 000000000000000A000000000000000000000000000000000000000000000 000000000000000000000000000000000000000     00000000                                                                                                                        000000000000000000
F0010000006006100004000000376399500023658300000000000000000201407090002001FORDPLAST                                         C000000000046100000000000000000000100010010000000000000000000000F0010000006006100420140709000101 00000000000000000000000000000000000000000000000000000000000000000000000000000000000000000000000000000000000000000N 00000000000NCONT   00    00000000000          00000000000000000000000000000000000000000000 000000000000000A000000000000000000000000000000000000000000000 000000000000000000000000000000000000000     00000000                                                                                                                        000000000000000000
F0010000006006100005000000376399500013552100000000000000000201407090002001FORDPLAST                                         D000000000046100000000000000000000100010010000000000000000000000F0010000006006100520140709000101 00000000000000000000000000000000000000000000000000000000000000000000000000000000000000000000000000000000000000000N 00000000000NCONT   00    00000000000          00000000000000000000000000000000000000000000 000000000000000A000000000000000000000000000000000000000000000 000000000000000000000000000000000000000     00000000                                                                                                                        000000000000000000
F0010000006006200001000080200225800013050500000000000000000201407090002001PERF. TECNICOS DE LA COSTA S.A.S                  D000000055506200000000000000000000100010010000000000000000000000F0010000006006200120140709000101 00000000000000000000000000000000000000000000000000000000000000000000000000000000000000000000000000000000000000000N 00000000000NCONT   00    00000000000          00000000000000000000000000000000000000000000 000000000000000A000000000000000000000000000000000000000000000 000000000000000000000000000000000000000     00000000                                                                                                                        000000000000000000
F0010000006006200002000080200225800041450500000000000000000201407090002001PERF. TECNICOS DE LA COSTA S.A.S                  C000000048813200000000000000000000100010010000000000000000000000F0010000006006200220140709000101 00000000000000000000000000000000000000000000000000000000000000000000000000000000000000000000000000000000000000000N 00000000000NCONT   00    00000000000          00000000000000000000000000000000000000000000 000000000000000A000000000000000000000000000000000000000000000 000000000000000000000000000000000000000     00000000                                                                                                                        000000000000000000
F0010000006006200003000080200225800042505000000000000000000201407090002001PERF. TECNICOS DE LA COSTA S.A.S                  C000000006693000000000000000000000100010010000000000000000000000F0010000006006200320140709000101 00000000000000000000000000000000000000000000000000000000000000000000000000000000000000000000000000000000000000000N 00000000000NCONT   00    00000000000          00000000000000000000000000000000000000000000 000000000000000A000000000000000000000000000000000000000000000 000000000000000000000000000000000000000     00000000                                                                                                                        000000000000000000
F0010000006006200004000080200225800023658300000000000000000201407090002001PERF. TECNICOS DE LA COSTA S.A.S                  C000000000390500000000000000000000100010010000000000000000000000F0010000006006200420140709000101 00000000000000000000000000000000000000000000000000000000000000000000000000000000000000000000000000000000000000000N 00000000000NCONT   00    00000000000          00000000000000000000000000000000000000000000 000000000000000A000000000000000000000000000000000000000000000 000000000000000000000000000000000000000     00000000                                                                                                                        000000000000000000
F0010000006006200005000080200225800013552100000000000000000201407090002001PERF. TECNICOS DE LA COSTA S.A.S                  D000000000390500000000000000000000100010010000000000000000000000F0010000006006200520140709000101 00000000000000000000000000000000000000000000000000000000000000000000000000000000000000000000000000000000000000000N 00000000000NCONT   00    00000000000          00000000000000000000000000000000000000000000 000000000000000A000000000000000000000000000000000000000000000 000000000000000000000000000000000000000     00000000                                                                                                                        000000000000000000
F0010000006006300001000080201601700013050500000000000000000201407090002001PLASTICOS SUPERIOR S.A.                           D000000017622500000000000000000000100010010000000000000000000000F0010000006006300120140709000101 00000000000000000000000000000000000000000000000000000000000000000000000000000000000000000000000000000000000000000N 00000000000NCONT   00    00000000000          00000000000000000000000000000000000000000000 000000000000000A000000000000000000000000000000000000000000000 000000000000000000000000000000000000000     00000000                                                                                                                        000000000000000000
F0010000006006300002000080201601700041450500000000000000000201407090002001PLASTICOS SUPERIOR S.A.                           C000000013860000000000000000000000100010010000000000000000000000F0010000006006300220140709000101 00000000000000000000000000000000000000000000000000000000000000000000000000000000000000000000000000000000000000000N 00000000000NCONT   00    00000000000          00000000000000000000000000000000000000000000 000000000000000A000000000000000000000000000000000000000000000 000000000000000000000000000000000000000     00000000                                                                                                                        000000000000000000
F0010000006006300003000080201601700042505000000000000000000201407090002001PLASTICOS SUPERIOR S.A.                           C000000003762500000000000000000000100010010000000000000000000000F0010000006006300320140709000101 00000000000000000000000000000000000000000000000000000000000000000000000000000000000000000000000000000000000000000N 00000000000NCONT   00    00000000000          00000000000000000000000000000000000000000000 000000000000000A000000000000000000000000000000000000000000000 000000000000000000000000000000000000000     00000000                                                                                                                        000000000000000000
F0010000006006300004000080201601700023658300000000000000000201407090002001PLASTICOS SUPERIOR S.A.                           C000000000110900000000000000000000100010010000000000000000000000F0010000006006300420140709000101 00000000000000000000000000000000000000000000000000000000000000000000000000000000000000000000000000000000000000000N 00000000000NCONT   00    00000000000          00000000000000000000000000000000000000000000 000000000000000A000000000000000000000000000000000000000000000 000000000000000000000000000000000000000     00000000                                                                                                                        000000000000000000
F0010000006006300005000080201601700013552100000000000000000201407090002001PLASTICOS SUPERIOR S.A.                           D000000000110900000000000000000000100010010000000000000000000000F0010000006006300520140709000101 00000000000000000000000000000000000000000000000000000000000000000000000000000000000000000000000000000000000000000N 00000000000NCONT   00    00000000000          00000000000000000000000000000000000000000000 000000000000000A000000000000000000000000000000000000000000000 000000000000000000000000000000000000000     00000000                                                                                                                        000000000000000000
F0010000006006400001000089070997800013050500000000000000000201407090002001CENTRAL DE TORNILLOS                              D000000014400000000000000000000000100010010000000000000000000000F0010000006006400120140709000101 00000000000000000000000000000000000000000000000000000000000000000000000000000000000000000000000000000000000000000N 00000000000NCONT   00    00000000000          00000000000000000000000000000000000000000000 000000000000000A000000000000000000000000000000000000000000000 000000000000000000000000000000000000000     00000000                                                                                                                        000000000000000000
F0010000006006400002000089070997800041450500000000000000000201407090002001CENTRAL DE TORNILLOS                              C000000013100000000000000000000000100010010000000000000000000000F0010000006006400220140709000101 00000000000000000000000000000000000000000000000000000000000000000000000000000000000000000000000000000000000000000N 00000000000NCONT   00    00000000000          00000000000000000000000000000000000000000000 000000000000000A000000000000000000000000000000000000000000000 000000000000000000000000000000000000000     00000000                                                                                                                        000000000000000000
F0010000006006400003000089070997800042505000000000000000000201407090002001CENTRAL DE TORNILLOS                              C000000001300000000000000000000000100010010000000000000000000000F0010000006006400320140709000101 00000000000000000000000000000000000000000000000000000000000000000000000000000000000000000000000000000000000000000N 00000000000NCONT   00    00000000000          00000000000000000000000000000000000000000000 000000000000000A000000000000000000000000000000000000000000000 000000000000000000000000000000000000000     00000000                                                                                                                        000000000000000000
F0010000006006400004000089070997800023658300000000000000000201407090002001CENTRAL DE TORNILLOS                              C000000000104800000000000000000000100010010000000000000000000000F0010000006006400420140709000101 00000000000000000000000000000000000000000000000000000000000000000000000000000000000000000000000000000000000000000N 00000000000NCONT   00    00000000000          00000000000000000000000000000000000000000000 000000000000000A000000000000000000000000000000000000000000000 000000000000000000000000000000000000000     00000000                                                                                                                        000000000000000000
F0010000006006400005000089070997800013552100000000000000000201407090002001CENTRAL DE TORNILLOS                              D000000000104800000000000000000000100010010000000000000000000000F0010000006006400520140709000101 00000000000000000000000000000000000000000000000000000000000000000000000000000000000000000000000000000000000000000N 00000000000NCONT   00    00000000000          00000000000000000000000000000000000000000000 000000000000000A000000000000000000000000000000000000000000000 000000000000000000000000000000000000000     00000000                                                                                                                        000000000000000000
F0010000006006500001000090009800500013050500000000000000000201407090002001GLORIANT CHEMICAL DE COLOMBIA LTDA                D000000060305800000000000000000000100010010000000000000000000000F0010000006006500120140709000101 00000000000000000000000000000000000000000000000000000000000000000000000000000000000000000000000000000000000000000N 00000000000NCONT   00    00000000000          00000000000000000000000000000000000000000000 000000000000000A000000000000000000000000000000000000000000000 000000000000000000000000000000000000000     00000000                                                                                                                        000000000000000000
F0010000006006500002000090009800500041450500000000000000000201407090002001GLORIANT CHEMICAL DE COLOMBIA LTDA                C000000052630000000000000000000000100010010000000000000000000000F0010000006006500220140709000101 00000000000000000000000000000000000000000000000000000000000000000000000000000000000000000000000000000000000000000N 00000000000NCONT   00    00000000000          00000000000000000000000000000000000000000000 000000000000000A000000000000000000000000000000000000000000000 000000000000000000000000000000000000000     00000000                                                                                                                        000000000000000000
F0010000006006500003000090009800500042505000000000000000000201407090002001GLORIANT CHEMICAL DE COLOMBIA LTDA                C000000007675800000000000000000000100010010000000000000000000000F0010000006006500320140709000101 00000000000000000000000000000000000000000000000000000000000000000000000000000000000000000000000000000000000000000N 00000000000NCONT   00    00000000000          00000000000000000000000000000000000000000000 000000000000000A000000000000000000000000000000000000000000000 000000000000000000000000000000000000000     00000000                                                                                                                        000000000000000000
