F0010000009144700001000090067091400011050500000000000000000201609180002001COMERCIALIZADORA ESCOBAR ORTIZ                    D000000002500000000000000000000000100010010000000000000000000000F0010000009144700120160918000101 00000000000000000000000000000000000000000000000000000000000000000000000000000000000000000000000000000000000000000N 00000000000NCONT   00    00000000000          00000000000000000000000000000000000000000000 000000000000000A000000000000000000000000000000000000000000000 000000000000000000000000000000000000000     00000000                                                                                                                        000000000000000000
F0010000009144700002000090067091400041450500000000000000000201609180002001COMERCIALIZADORA ESCOBAR ORTIZ                    C000000002000000000000000000000000100010010000000000000000000000F0010000009144700220160918000101 00000000000000000000000000000000000000000000000000000000000000000000000000000000000000000000000000000000000000000N 00000000000NCONT   00    00000000000          00000000000000000000000000000000000000000000 000000000000000A000000000000000000000000000000000000000000000 000000000000000000000000000000000000000     00000000                                                                                                                        000000000000000000
F0010000009144700003000090067091400042505000000000000000000201609180002001COMERCIALIZADORA ESCOBAR ORTIZ                    C000000000500000000000000000000000100010010000000000000000000000F0010000009144700320160918000101 00000000000000000000000000000000000000000000000000000000000000000000000000000000000000000000000000000000000000000N 00000000000NCONT   00    00000000000          00000000000000000000000000000000000000000000 000000000000000A000000000000000000000000000000000000000000000 000000000000000000000000000000000000000     00000000                                                                                                                        000000000000000000
F0010000009144700004000090067091400023658300000000000000000201609180002001COMERCIALIZADORA ESCOBAR ORTIZ                    C000000000016000000000000000000000100010010000000000000000000000F0010000009144700420160918000101 00000000000000000000000000000000000000000000000000000000000000000000000000000000000000000000000000000000000000000N 00000000000NCONT   00    00000000000          00000000000000000000000000000000000000000000 000000000000000A000000000000000000000000000000000000000000000 000000000000000000000000000000000000000     00000000                                                                                                                        000000000000000000
F0010000009144700005000090067091400013552100000000000000000201609180002001COMERCIALIZADORA ESCOBAR ORTIZ                    D000000000016000000000000000000000100010010000000000000000000000F0010000009144700520160918000101 00000000000000000000000000000000000000000000000000000000000000000000000000000000000000000000000000000000000000000N 00000000000NCONT   00    00000000000          00000000000000000000000000000000000000000000 000000000000000A000000000000000000000000000000000000000000000 000000000000000000000000000000000000000     00000000                                                                                                                        000000000000000000
F0010000009144800001000090067091400011050500000000000000000201609180002001COMERCIALIZADORA ESCOBAR ORTIZ                    D000000002800000000000000000000000100010010000000000000000000000F0010000009144800120160918000101 00000000000000000000000000000000000000000000000000000000000000000000000000000000000000000000000000000000000000000N 00000000000NCONT   00    00000000000          00000000000000000000000000000000000000000000 000000000000000A000000000000000000000000000000000000000000000 000000000000000000000000000000000000000     00000000                                                                                                                        000000000000000000
F0010000009144800002000090067091400041450500000000000000000201609180002001COMERCIALIZADORA ESCOBAR ORTIZ                    C000000002600000000000000000000000100010010000000000000000000000F0010000009144800220160918000101 00000000000000000000000000000000000000000000000000000000000000000000000000000000000000000000000000000000000000000N 00000000000NCONT   00    00000000000          00000000000000000000000000000000000000000000 000000000000000A000000000000000000000000000000000000000000000 000000000000000000000000000000000000000     00000000                                                                                                                        000000000000000000
F0010000009144800003000090067091400042505000000000000000000201609180002001COMERCIALIZADORA ESCOBAR ORTIZ                    C000000000200000000000000000000000100010010000000000000000000000F0010000009144800320160918000101 00000000000000000000000000000000000000000000000000000000000000000000000000000000000000000000000000000000000000000N 00000000000NCONT   00    00000000000          00000000000000000000000000000000000000000000 000000000000000A000000000000000000000000000000000000000000000 000000000000000000000000000000000000000     00000000                                                                                                                        000000000000000000
F0010000009144800004000090067091400023658300000000000000000201609180002001COMERCIALIZADORA ESCOBAR ORTIZ                    C000000000020800000000000000000000100010010000000000000000000000F0010000009144800420160918000101 00000000000000000000000000000000000000000000000000000000000000000000000000000000000000000000000000000000000000000N 00000000000NCONT   00    00000000000          00000000000000000000000000000000000000000000 000000000000000A000000000000000000000000000000000000000000000 000000000000000000000000000000000000000     00000000                                                                                                                        000000000000000000
F0010000009144800005000090067091400013552100000000000000000201609180002001COMERCIALIZADORA ESCOBAR ORTIZ                    D000000000020800000000000000000000100010010000000000000000000000F0010000009144800520160918000101 00000000000000000000000000000000000000000000000000000000000000000000000000000000000000000000000000000000000000000N 00000000000NCONT   00    00000000000          00000000000000000000000000000000000000000000 000000000000000A000000000000000000000000000000000000000000000 000000000000000000000000000000000000000     00000000                                                                                                                        000000000000000000
F0010000009144900001000090067091400011050500000000000000000201609180002001COMERCIALIZADORA ESCOBAR ORTIZ                    D000000010000000000000000000000000100010010000000000000000000000F0010000009144900120160918000101 00000000000000000000000000000000000000000000000000000000000000000000000000000000000000000000000000000000000000000N 00000000000NCONT   00    00000000000          00000000000000000000000000000000000000000000 000000000000000A000000000000000000000000000000000000000000000 000000000000000000000000000000000000000     00000000                                                                                                                        000000000000000000
F0010000009144900002000090067091400041450500000000000000000201609180002001COMERCIALIZADORA ESCOBAR ORTIZ                    C000000009000000000000000000000000100010010000000000000000000000F0010000009144900220160918000101 00000000000000000000000000000000000000000000000000000000000000000000000000000000000000000000000000000000000000000N 00000000000NCONT   00    00000000000          00000000000000000000000000000000000000000000 000000000000000A000000000000000000000000000000000000000000000 000000000000000000000000000000000000000     00000000                                                                                                                        000000000000000000
F0010000009144900003000090067091400042505000000000000000000201609180002001COMERCIALIZADORA ESCOBAR ORTIZ                    C000000001000000000000000000000000100010010000000000000000000000F0010000009144900320160918000101 00000000000000000000000000000000000000000000000000000000000000000000000000000000000000000000000000000000000000000N 00000000000NCONT   00    00000000000          00000000000000000000000000000000000000000000 000000000000000A000000000000000000000000000000000000000000000 000000000000000000000000000000000000000     00000000                                                                                                                        000000000000000000
F0010000009144900004000090067091400023658300000000000000000201609180002001COMERCIALIZADORA ESCOBAR ORTIZ                    C000000000072000000000000000000000100010010000000000000000000000F0010000009144900420160918000101 00000000000000000000000000000000000000000000000000000000000000000000000000000000000000000000000000000000000000000N 00000000000NCONT   00    00000000000          00000000000000000000000000000000000000000000 000000000000000A000000000000000000000000000000000000000000000 000000000000000000000000000000000000000     00000000                                                                                                                        000000000000000000
F0010000009144900005000090067091400013552100000000000000000201609180002001COMERCIALIZADORA ESCOBAR ORTIZ                    D000000000072000000000000000000000100010010000000000000000000000F0010000009144900520160918000101 00000000000000000000000000000000000000000000000000000000000000000000000000000000000000000000000000000000000000000N 00000000000NCONT   00    00000000000          00000000000000000000000000000000000000000000 000000000000000A000000000000000000000000000000000000000000000 000000000000000000000000000000000000000     00000000                                                                                                                        000000000000000000
F0010000009145000001000090067091400011050500000000000000000201609180002001COMERCIALIZADORA ESCOBAR ORTIZ                    D000000001650000000000000000000000100010010000000000000000000000F0010000009145000120160918000101 00000000000000000000000000000000000000000000000000000000000000000000000000000000000000000000000000000000000000000N 00000000000NCONT   00    00000000000          00000000000000000000000000000000000000000000 000000000000000A000000000000000000000000000000000000000000000 000000000000000000000000000000000000000     00000000                                                                                                                        000000000000000000
F0010000009145000002000090067091400041450500000000000000000201609180002001COMERCIALIZADORA ESCOBAR ORTIZ                    C000000001500000000000000000000000100010010000000000000000000000F0010000009145000220160918000101 00000000000000000000000000000000000000000000000000000000000000000000000000000000000000000000000000000000000000000N 00000000000NCONT   00    00000000000          00000000000000000000000000000000000000000000 000000000000000A000000000000000000000000000000000000000000000 000000000000000000000000000000000000000     00000000                                                                                                                        000000000000000000
F0010000009145000003000090067091400042505000000000000000000201609180002001COMERCIALIZADORA ESCOBAR ORTIZ                    C000000000150000000000000000000000100010010000000000000000000000F0010000009145000320160918000101 00000000000000000000000000000000000000000000000000000000000000000000000000000000000000000000000000000000000000000N 00000000000NCONT   00    00000000000          00000000000000000000000000000000000000000000 000000000000000A000000000000000000000000000000000000000000000 000000000000000000000000000000000000000     00000000                                                                                                                        000000000000000000
F0010000009145000004000090067091400023658300000000000000000201609180002001COMERCIALIZADORA ESCOBAR ORTIZ                    C000000000012000000000000000000000100010010000000000000000000000F0010000009145000420160918000101 00000000000000000000000000000000000000000000000000000000000000000000000000000000000000000000000000000000000000000N 00000000000NCONT   00    00000000000          00000000000000000000000000000000000000000000 000000000000000A000000000000000000000000000000000000000000000 000000000000000000000000000000000000000     00000000                                                                                                                        000000000000000000
F0010000009145000005000090067091400013552100000000000000000201609180002001COMERCIALIZADORA ESCOBAR ORTIZ                    D000000000012000000000000000000000100010010000000000000000000000F0010000009145000520160918000101 00000000000000000000000000000000000000000000000000000000000000000000000000000000000000000000000000000000000000000N 00000000000NCONT   00    00000000000          00000000000000000000000000000000000000000000 000000000000000A000000000000000000000000000000000000000000000 000000000000000000000000000000000000000     00000000                                                                                                                        000000000000000000
F0010000009145100001000090067091400011050500000000000000000201609180002001COMERCIALIZADORA ESCOBAR ORTIZ                    D000000003400000000000000000000000100010010000000000000000000000F0010000009145100120160918000101 00000000000000000000000000000000000000000000000000000000000000000000000000000000000000000000000000000000000000000N 00000000000NCONT   00    00000000000          00000000000000000000000000000000000000000000 000000000000000A000000000000000000000000000000000000000000000 000000000000000000000000000000000000000     00000000                                                                                                                        000000000000000000
F0010000009145100002000090067091400041450500000000000000000201609180002001COMERCIALIZADORA ESCOBAR ORTIZ                    C000000003000000000000000000000000100010010000000000000000000000F0010000009145100220160918000101 00000000000000000000000000000000000000000000000000000000000000000000000000000000000000000000000000000000000000000N 00000000000NCONT   00    00000000000          00000000000000000000000000000000000000000000 000000000000000A000000000000000000000000000000000000000000000 000000000000000000000000000000000000000     00000000                                                                                                                        000000000000000000
F0010000009145100003000090067091400042505000000000000000000201609180002001COMERCIALIZADORA ESCOBAR ORTIZ                    C000000000400000000000000000000000100010010000000000000000000000F0010000009145100320160918000101 00000000000000000000000000000000000000000000000000000000000000000000000000000000000000000000000000000000000000000N 00000000000NCONT   00    00000000000          00000000000000000000000000000000000000000000 000000000000000A000000000000000000000000000000000000000000000 000000000000000000000000000000000000000     00000000                                                                                                                        000000000000000000
F0010000009145100004000090067091400023658300000000000000000201609180002001COMERCIALIZADORA ESCOBAR ORTIZ                    C000000000024000000000000000000000100010010000000000000000000000F0010000009145100420160918000101 00000000000000000000000000000000000000000000000000000000000000000000000000000000000000000000000000000000000000000N 00000000000NCONT   00    00000000000          00000000000000000000000000000000000000000000 000000000000000A000000000000000000000000000000000000000000000 000000000000000000000000000000000000000     00000000                                                                                                                        000000000000000000
F0010000009145100005000090067091400013552100000000000000000201609180002001COMERCIALIZADORA ESCOBAR ORTIZ                    D000000000024000000000000000000000100010010000000000000000000000F0010000009145100520160918000101 00000000000000000000000000000000000000000000000000000000000000000000000000000000000000000000000000000000000000000N 00000000000NCONT   00    00000000000          00000000000000000000000000000000000000000000 000000000000000A000000000000000000000000000000000000000000000 000000000000000000000000000000000000000     00000000                                                                                                                        000000000000000000
F0010000009145200001000090067091400011050500000000000000000201609180002001COMERCIALIZADORA ESCOBAR ORTIZ                    D000000001900000000000000000000000100010010000000000000000000000F0010000009145200120160918000101 00000000000000000000000000000000000000000000000000000000000000000000000000000000000000000000000000000000000000000N 00000000000NCONT   00    00000000000          00000000000000000000000000000000000000000000 000000000000000A000000000000000000000000000000000000000000000 000000000000000000000000000000000000000     00000000                                                                                                                        000000000000000000
F0010000009145200002000090067091400041450500000000000000000201609180002001COMERCIALIZADORA ESCOBAR ORTIZ                    C000000001500000000000000000000000100010010000000000000000000000F0010000009145200220160918000101 00000000000000000000000000000000000000000000000000000000000000000000000000000000000000000000000000000000000000000N 00000000000NCONT   00    00000000000          00000000000000000000000000000000000000000000 000000000000000A000000000000000000000000000000000000000000000 000000000000000000000000000000000000000     00000000                                                                                                                        000000000000000000
F0010000009145200003000090067091400042505000000000000000000201609180002001COMERCIALIZADORA ESCOBAR ORTIZ                    C000000000400000000000000000000000100010010000000000000000000000F0010000009145200320160918000101 00000000000000000000000000000000000000000000000000000000000000000000000000000000000000000000000000000000000000000N 00000000000NCONT   00    00000000000          00000000000000000000000000000000000000000000 000000000000000A000000000000000000000000000000000000000000000 000000000000000000000000000000000000000     00000000                                                                                                                        000000000000000000
F0010000009145200004000090067091400023658300000000000000000201609180002001COMERCIALIZADORA ESCOBAR ORTIZ                    C000000000012000000000000000000000100010010000000000000000000000F0010000009145200420160918000101 00000000000000000000000000000000000000000000000000000000000000000000000000000000000000000000000000000000000000000N 00000000000NCONT   00    00000000000          00000000000000000000000000000000000000000000 000000000000000A000000000000000000000000000000000000000000000 000000000000000000000000000000000000000     00000000                                                                                                                        000000000000000000
F0010000009145200005000090067091400013552100000000000000000201609180002001COMERCIALIZADORA ESCOBAR ORTIZ                    D000000000012000000000000000000000100010010000000000000000000000F0010000009145200520160918000101 00000000000000000000000000000000000000000000000000000000000000000000000000000000000000000000000000000000000000000N 00000000000NCONT   00    00000000000          00000000000000000000000000000000000000000000 000000000000000A000000000000000000000000000000000000000000000 000000000000000000000000000000000000000     00000000                                                                                                                        000000000000000000
F0010000009145300001000090067091400011050500000000000000000201609180002001COMERCIALIZADORA ESCOBAR ORTIZ                    D000000001400000000000000000000000100010010000000000000000000000F0010000009145300120160918000101 00000000000000000000000000000000000000000000000000000000000000000000000000000000000000000000000000000000000000000N 00000000000NCONT   00    00000000000          00000000000000000000000000000000000000000000 000000000000000A000000000000000000000000000000000000000000000 000000000000000000000000000000000000000     00000000                                                                                                                        000000000000000000
F0010000009145300002000090067091400041450500000000000000000201609180002001COMERCIALIZADORA ESCOBAR ORTIZ                    C000000001300000000000000000000000100010010000000000000000000000F0010000009145300220160918000101 00000000000000000000000000000000000000000000000000000000000000000000000000000000000000000000000000000000000000000N 00000000000NCONT   00    00000000000          00000000000000000000000000000000000000000000 000000000000000A000000000000000000000000000000000000000000000 000000000000000000000000000000000000000     00000000                                                                                                                        000000000000000000
F0010000009145300003000090067091400042505000000000000000000201609180002001COMERCIALIZADORA ESCOBAR ORTIZ                    C000000000100000000000000000000000100010010000000000000000000000F0010000009145300320160918000101 00000000000000000000000000000000000000000000000000000000000000000000000000000000000000000000000000000000000000000N 00000000000NCONT   00    00000000000          00000000000000000000000000000000000000000000 000000000000000A000000000000000000000000000000000000000000000 000000000000000000000000000000000000000     00000000                                                                                                                        000000000000000000
F0010000009145300004000090067091400023658300000000000000000201609180002001COMERCIALIZADORA ESCOBAR ORTIZ                    C000000000010400000000000000000000100010010000000000000000000000F0010000009145300420160918000101 00000000000000000000000000000000000000000000000000000000000000000000000000000000000000000000000000000000000000000N 00000000000NCONT   00    00000000000          00000000000000000000000000000000000000000000 000000000000000A000000000000000000000000000000000000000000000 000000000000000000000000000000000000000     00000000                                                                                                                        000000000000000000
F0010000009145300005000090067091400013552100000000000000000201609180002001COMERCIALIZADORA ESCOBAR ORTIZ                    D000000000010400000000000000000000100010010000000000000000000000F0010000009145300520160918000101 00000000000000000000000000000000000000000000000000000000000000000000000000000000000000000000000000000000000000000N 00000000000NCONT   00    00000000000          00000000000000000000000000000000000000000000 000000000000000A000000000000000000000000000000000000000000000 000000000000000000000000000000000000000     00000000                                                                                                                        000000000000000000
F0010000009145400001000090067091400011050500000000000000000201609180002001COMERCIALIZADORA ESCOBAR ORTIZ                    D000000001600000000000000000000000100010010000000000000000000000F0010000009145400120160918000101 00000000000000000000000000000000000000000000000000000000000000000000000000000000000000000000000000000000000000000N 00000000000NCONT   00    00000000000          00000000000000000000000000000000000000000000 000000000000000A000000000000000000000000000000000000000000000 000000000000000000000000000000000000000     00000000                                                                                                                        000000000000000000
F0010000009145400002000090067091400041450500000000000000000201609180002001COMERCIALIZADORA ESCOBAR ORTIZ                    C000000001300000000000000000000000100010010000000000000000000000F0010000009145400220160918000101 00000000000000000000000000000000000000000000000000000000000000000000000000000000000000000000000000000000000000000N 00000000000NCONT   00    00000000000          00000000000000000000000000000000000000000000 000000000000000A000000000000000000000000000000000000000000000 000000000000000000000000000000000000000     00000000                                                                                                                        000000000000000000
F0010000009145400003000090067091400042505000000000000000000201609180002001COMERCIALIZADORA ESCOBAR ORTIZ                    C000000000300000000000000000000000100010010000000000000000000000F0010000009145400320160918000101 00000000000000000000000000000000000000000000000000000000000000000000000000000000000000000000000000000000000000000N 00000000000NCONT   00    00000000000          00000000000000000000000000000000000000000000 000000000000000A000000000000000000000000000000000000000000000 000000000000000000000000000000000000000     00000000                                                                                                                        000000000000000000
F0010000009145400004000090067091400023658300000000000000000201609180002001COMERCIALIZADORA ESCOBAR ORTIZ                    C000000000010400000000000000000000100010010000000000000000000000F0010000009145400420160918000101 00000000000000000000000000000000000000000000000000000000000000000000000000000000000000000000000000000000000000000N 00000000000NCONT   00    00000000000          00000000000000000000000000000000000000000000 000000000000000A000000000000000000000000000000000000000000000 000000000000000000000000000000000000000     00000000                                                                                                                        000000000000000000
F0010000009145400005000090067091400013552100000000000000000201609180002001COMERCIALIZADORA ESCOBAR ORTIZ                    D000000000010400000000000000000000100010010000000000000000000000F0010000009145400520160918000101 00000000000000000000000000000000000000000000000000000000000000000000000000000000000000000000000000000000000000000N 00000000000NCONT   00    00000000000          00000000000000000000000000000000000000000000 000000000000000A000000000000000000000000000000000000000000000 000000000000000000000000000000000000000     00000000                                                                                                                        000000000000000000
F0010000009145500001000090067091400011050500000000000000000201609180002001COMERCIALIZADORA ESCOBAR ORTIZ                    D000000001200000000000000000000000100010010000000000000000000000F0010000009145500120160918000101 00000000000000000000000000000000000000000000000000000000000000000000000000000000000000000000000000000000000000000N 00000000000NCONT   00    00000000000          00000000000000000000000000000000000000000000 000000000000000A000000000000000000000000000000000000000000000 000000000000000000000000000000000000000     00000000                                                                                                                        000000000000000000
F0010000009145500002000090067091400041450500000000000000000201609180002001COMERCIALIZADORA ESCOBAR ORTIZ                    C000000001000000000000000000000000100010010000000000000000000000F0010000009145500220160918000101 00000000000000000000000000000000000000000000000000000000000000000000000000000000000000000000000000000000000000000N 00000000000NCONT   00    00000000000          00000000000000000000000000000000000000000000 000000000000000A000000000000000000000000000000000000000000000 000000000000000000000000000000000000000     00000000                                                                                                                        000000000000000000
F0010000009145500003000090067091400042505000000000000000000201609180002001COMERCIALIZADORA ESCOBAR ORTIZ                    C000000000200000000000000000000000100010010000000000000000000000F0010000009145500320160918000101 00000000000000000000000000000000000000000000000000000000000000000000000000000000000000000000000000000000000000000N 00000000000NCONT   00    00000000000          00000000000000000000000000000000000000000000 000000000000000A000000000000000000000000000000000000000000000 000000000000000000000000000000000000000     00000000                                                                                                                        000000000000000000
F0010000009145500004000090067091400023658300000000000000000201609180002001COMERCIALIZADORA ESCOBAR ORTIZ                    C000000000008000000000000000000000100010010000000000000000000000F0010000009145500420160918000101 00000000000000000000000000000000000000000000000000000000000000000000000000000000000000000000000000000000000000000N 00000000000NCONT   00    00000000000          00000000000000000000000000000000000000000000 000000000000000A000000000000000000000000000000000000000000000 000000000000000000000000000000000000000     00000000                                                                                                                        000000000000000000
F0010000009145500005000090067091400013552100000000000000000201609180002001COMERCIALIZADORA ESCOBAR ORTIZ                    D000000000008000000000000000000000100010010000000000000000000000F0010000009145500520160918000101 00000000000000000000000000000000000000000000000000000000000000000000000000000000000000000000000000000000000000000N 00000000000NCONT   00    00000000000          00000000000000000000000000000000000000000000 000000000000000A000000000000000000000000000000000000000000000 000000000000000000000000000000000000000     00000000                                                                                                                        000000000000000000
F0010000009145600001000090067091400011050500000000000000000201609180002001COMERCIALIZADORA ESCOBAR ORTIZ                    D000000004900000000000000000000000100010010000000000000000000000F0010000009145600120160918000101 00000000000000000000000000000000000000000000000000000000000000000000000000000000000000000000000000000000000000000N 00000000000NCONT   00    00000000000          00000000000000000000000000000000000000000000 000000000000000A000000000000000000000000000000000000000000000 000000000000000000000000000000000000000     00000000                                                                                                                        000000000000000000
F0010000009145600002000090067091400041450500000000000000000201609180002001COMERCIALIZADORA ESCOBAR ORTIZ                    C000000004000000000000000000000000100010010000000000000000000000F0010000009145600220160918000101 00000000000000000000000000000000000000000000000000000000000000000000000000000000000000000000000000000000000000000N 00000000000NCONT   00    00000000000          00000000000000000000000000000000000000000000 000000000000000A000000000000000000000000000000000000000000000 000000000000000000000000000000000000000     00000000                                                                                                                        000000000000000000
F0010000009145600003000090067091400042505000000000000000000201609180002001COMERCIALIZADORA ESCOBAR ORTIZ                    C000000000900000000000000000000000100010010000000000000000000000F0010000009145600320160918000101 00000000000000000000000000000000000000000000000000000000000000000000000000000000000000000000000000000000000000000N 00000000000NCONT   00    00000000000          00000000000000000000000000000000000000000000 000000000000000A000000000000000000000000000000000000000000000 000000000000000000000000000000000000000     00000000                                                                                                                        000000000000000000
F0010000009145600004000090067091400023658300000000000000000201609180002001COMERCIALIZADORA ESCOBAR ORTIZ                    C000000000032000000000000000000000100010010000000000000000000000F0010000009145600420160918000101 00000000000000000000000000000000000000000000000000000000000000000000000000000000000000000000000000000000000000000N 00000000000NCONT   00    00000000000          00000000000000000000000000000000000000000000 000000000000000A000000000000000000000000000000000000000000000 000000000000000000000000000000000000000     00000000                                                                                                                        000000000000000000
F0010000009145600005000090067091400013552100000000000000000201609180002001COMERCIALIZADORA ESCOBAR ORTIZ                    D000000000032000000000000000000000100010010000000000000000000000F0010000009145600520160918000101 00000000000000000000000000000000000000000000000000000000000000000000000000000000000000000000000000000000000000000N 00000000000NCONT   00    00000000000          00000000000000000000000000000000000000000000 000000000000000A000000000000000000000000000000000000000000000 000000000000000000000000000000000000000     00000000                                                                                                                        000000000000000000
F0010000009145700001000090067091400011050500000000000000000201609180002001COMERCIALIZADORA ESCOBAR ORTIZ                    D000000003100000000000000000000000100010010000000000000000000000F0010000009145700120160918000101 00000000000000000000000000000000000000000000000000000000000000000000000000000000000000000000000000000000000000000N 00000000000NCONT   00    00000000000          00000000000000000000000000000000000000000000 000000000000000A000000000000000000000000000000000000000000000 000000000000000000000000000000000000000     00000000                                                                                                                        000000000000000000
F0010000009145700002000090067091400041450500000000000000000201609180002001COMERCIALIZADORA ESCOBAR ORTIZ                    C000000002600000000000000000000000100010010000000000000000000000F0010000009145700220160918000101 00000000000000000000000000000000000000000000000000000000000000000000000000000000000000000000000000000000000000000N 00000000000NCONT   00    00000000000          00000000000000000000000000000000000000000000 000000000000000A000000000000000000000000000000000000000000000 000000000000000000000000000000000000000     00000000                                                                                                                        000000000000000000
F0010000009145700003000090067091400042505000000000000000000201609180002001COMERCIALIZADORA ESCOBAR ORTIZ                    C000000000500000000000000000000000100010010000000000000000000000F0010000009145700320160918000101 00000000000000000000000000000000000000000000000000000000000000000000000000000000000000000000000000000000000000000N 00000000000NCONT   00    00000000000          00000000000000000000000000000000000000000000 000000000000000A000000000000000000000000000000000000000000000 000000000000000000000000000000000000000     00000000                                                                                                                        000000000000000000
F0010000009145700004000090067091400023658300000000000000000201609180002001COMERCIALIZADORA ESCOBAR ORTIZ                    C000000000020800000000000000000000100010010000000000000000000000F0010000009145700420160918000101 00000000000000000000000000000000000000000000000000000000000000000000000000000000000000000000000000000000000000000N 00000000000NCONT   00    00000000000          00000000000000000000000000000000000000000000 000000000000000A000000000000000000000000000000000000000000000 000000000000000000000000000000000000000     00000000                                                                                                                        000000000000000000
F0010000009145700005000090067091400013552100000000000000000201609180002001COMERCIALIZADORA ESCOBAR ORTIZ                    D000000000020800000000000000000000100010010000000000000000000000F0010000009145700520160918000101 00000000000000000000000000000000000000000000000000000000000000000000000000000000000000000000000000000000000000000N 00000000000NCONT   00    00000000000          00000000000000000000000000000000000000000000 000000000000000A000000000000000000000000000000000000000000000 000000000000000000000000000000000000000     00000000                                                                                                                        000000000000000000
