F0010000006280800001000086000089600013050500000000000000000201409170002001SIKA COLOMBIA S.A.                                D000000060936200000000000000000000100010010000000000000000000000F0010000006280800120140917000101 00000000000000000000000000000000000000000000000000000000000000000000000000000000000000000000000000000000000000000N 00000000000NCONT   00    00000000000          00000000000000000000000000000000000000000000 000000000000000A000000000000000000000000000000000000000000000 000000000000000000000000000000000000000     00000000                                                                                                                        000000000000000000
F0010000006280800002000086000089600041450500000000000000000201409170002001SIKA COLOMBIA S.A.                                C000000058853000000000000000000000100010010000000000000000000000F0010000006280800220140917000101 00000000000000000000000000000000000000000000000000000000000000000000000000000000000000000000000000000000000000000N 00000000000NCONT   00    00000000000          00000000000000000000000000000000000000000000 000000000000000A000000000000000000000000000000000000000000000 000000000000000000000000000000000000000     00000000                                                                                                                        000000000000000000
F0010000006280800003000086000089600042505000000000000000000201409170002001SIKA COLOMBIA S.A.                                C000000002083200000000000000000000100010010000000000000000000000F0010000006280800320140917000101 00000000000000000000000000000000000000000000000000000000000000000000000000000000000000000000000000000000000000000N 00000000000NCONT   00    00000000000          00000000000000000000000000000000000000000000 000000000000000A000000000000000000000000000000000000000000000 000000000000000000000000000000000000000     00000000                                                                                                                        000000000000000000
F0010000006280800004000086000089600023658300000000000000000201409170002001SIKA COLOMBIA S.A.                                C000000000470800000000000000000000100010010000000000000000000000F0010000006280800420140917000101 00000000000000000000000000000000000000000000000000000000000000000000000000000000000000000000000000000000000000000N 00000000000NCONT   00    00000000000          00000000000000000000000000000000000000000000 000000000000000A000000000000000000000000000000000000000000000 000000000000000000000000000000000000000     00000000                                                                                                                        000000000000000000
F0010000006280800005000086000089600013552100000000000000000201409170002001SIKA COLOMBIA S.A.                                D000000000470800000000000000000000100010010000000000000000000000F0010000006280800520140917000101 00000000000000000000000000000000000000000000000000000000000000000000000000000000000000000000000000000000000000000N 00000000000NCONT   00    00000000000          00000000000000000000000000000000000000000000 000000000000000A000000000000000000000000000000000000000000000 000000000000000000000000000000000000000     00000000                                                                                                                        000000000000000000
F0010000006280900001000090049854300013050500000000000000000201409170002001TRAPOS INDUSTRIALES DE COLOMBIA SAS               D000000009750000000000000000000000100010010000000000000000000000F0010000006280900120140917000101 00000000000000000000000000000000000000000000000000000000000000000000000000000000000000000000000000000000000000000N 00000000000NCONT   00    00000000000          00000000000000000000000000000000000000000000 000000000000000A000000000000000000000000000000000000000000000 000000000000000000000000000000000000000     00000000                                                                                                                        000000000000000000
F0010000006280900002000090049854300041450500000000000000000201409170002001TRAPOS INDUSTRIALES DE COLOMBIA SAS               C000000009000000000000000000000000100010010000000000000000000000F0010000006280900220140917000101 00000000000000000000000000000000000000000000000000000000000000000000000000000000000000000000000000000000000000000N 00000000000NCONT   00    00000000000          00000000000000000000000000000000000000000000 000000000000000A000000000000000000000000000000000000000000000 000000000000000000000000000000000000000     00000000                                                                                                                        000000000000000000
F0010000006280900003000090049854300042505000000000000000000201409170002001TRAPOS INDUSTRIALES DE COLOMBIA SAS               C000000000750000000000000000000000100010010000000000000000000000F0010000006280900320140917000101 00000000000000000000000000000000000000000000000000000000000000000000000000000000000000000000000000000000000000000N 00000000000NCONT   00    00000000000          00000000000000000000000000000000000000000000 000000000000000A000000000000000000000000000000000000000000000 000000000000000000000000000000000000000     00000000                                                                                                                        000000000000000000
F0010000006280900004000090049854300023658300000000000000000201409170002001TRAPOS INDUSTRIALES DE COLOMBIA SAS               C000000000072000000000000000000000100010010000000000000000000000F0010000006280900420140917000101 00000000000000000000000000000000000000000000000000000000000000000000000000000000000000000000000000000000000000000N 00000000000NCONT   00    00000000000          00000000000000000000000000000000000000000000 000000000000000A000000000000000000000000000000000000000000000 000000000000000000000000000000000000000     00000000                                                                                                                        000000000000000000
F0010000006280900005000090049854300013552100000000000000000201409170002001TRAPOS INDUSTRIALES DE COLOMBIA SAS               D000000000072000000000000000000000100010010000000000000000000000F0010000006280900520140917000101 00000000000000000000000000000000000000000000000000000000000000000000000000000000000000000000000000000000000000000N 00000000000NCONT   00    00000000000          00000000000000000000000000000000000000000000 000000000000000A000000000000000000000000000000000000000000000 000000000000000000000000000000000000000     00000000                                                                                                                        000000000000000000
F0010000006281000001000083001155300013050500000000000000000201409170002001COMERCIALIZADORA RUBEN S LTDA                     D000000014680000000000000000000000100010010000000000000000000000F0010000006281000120140917000101 00000000000000000000000000000000000000000000000000000000000000000000000000000000000000000000000000000000000000000N 00000000000NCONT   00    00000000000          00000000000000000000000000000000000000000000 000000000000000A000000000000000000000000000000000000000000000 000000000000000000000000000000000000000     00000000                                                                                                                        000000000000000000
F0010000006281000002000083001155300041450500000000000000000201409170002001COMERCIALIZADORA RUBEN S LTDA                     C000000012982000000000000000000000100010010000000000000000000000F0010000006281000220140917000101 00000000000000000000000000000000000000000000000000000000000000000000000000000000000000000000000000000000000000000N 00000000000NCONT   00    00000000000          00000000000000000000000000000000000000000000 000000000000000A000000000000000000000000000000000000000000000 000000000000000000000000000000000000000     00000000                                                                                                                        000000000000000000
F0010000006281000003000083001155300042505000000000000000000201409170002001COMERCIALIZADORA RUBEN S LTDA                     C000000001698000000000000000000000100010010000000000000000000000F0010000006281000320140917000101 00000000000000000000000000000000000000000000000000000000000000000000000000000000000000000000000000000000000000000N 00000000000NCONT   00    00000000000          00000000000000000000000000000000000000000000 000000000000000A000000000000000000000000000000000000000000000 000000000000000000000000000000000000000     00000000                                                                                                                        000000000000000000
F0010000006281000004000083001155300023658300000000000000000201409170002001COMERCIALIZADORA RUBEN S LTDA                     C000000000103900000000000000000000100010010000000000000000000000F0010000006281000420140917000101 00000000000000000000000000000000000000000000000000000000000000000000000000000000000000000000000000000000000000000N 00000000000NCONT   00    00000000000          00000000000000000000000000000000000000000000 000000000000000A000000000000000000000000000000000000000000000 000000000000000000000000000000000000000     00000000                                                                                                                        000000000000000000
F0010000006281000005000083001155300013552100000000000000000201409170002001COMERCIALIZADORA RUBEN S LTDA                     D000000000103900000000000000000000100010010000000000000000000000F0010000006281000520140917000101 00000000000000000000000000000000000000000000000000000000000000000000000000000000000000000000000000000000000000000N 00000000000NCONT   00    00000000000          00000000000000000000000000000000000000000000 000000000000000A000000000000000000000000000000000000000000000 000000000000000000000000000000000000000     00000000                                                                                                                        000000000000000000
F0010000006281100001000090013035500013050500000000000000000201409170002001FUJIAN SHAN S.A.                                  D000000071298400000000000000000000100010010000000000000000000000F0010000006281100120140917000101 00000000000000000000000000000000000000000000000000000000000000000000000000000000000000000000000000000000000000000N 00000000000NCONT   00    00000000000          00000000000000000000000000000000000000000000 000000000000000A000000000000000000000000000000000000000000000 000000000000000000000000000000000000000     00000000                                                                                                                        000000000000000000
F0010000006281100002000090013035500041450500000000000000000201409170002001FUJIAN SHAN S.A.                                  C000000069298400000000000000000000100010010000000000000000000000F0010000006281100220140917000101 00000000000000000000000000000000000000000000000000000000000000000000000000000000000000000000000000000000000000000N 00000000000NCONT   00    00000000000          00000000000000000000000000000000000000000000 000000000000000A000000000000000000000000000000000000000000000 000000000000000000000000000000000000000     00000000                                                                                                                        000000000000000000
F0010000006281100003000090013035500042505000000000000000000201409170002001FUJIAN SHAN S.A.                                  C000000002000000000000000000000000100010010000000000000000000000F0010000006281100320140917000101 00000000000000000000000000000000000000000000000000000000000000000000000000000000000000000000000000000000000000000N 00000000000NCONT   00    00000000000          00000000000000000000000000000000000000000000 000000000000000A000000000000000000000000000000000000000000000 000000000000000000000000000000000000000     00000000                                                                                                                        000000000000000000
F0010000006281100004000090013035500023658300000000000000000201409170002001FUJIAN SHAN S.A.                                  C000000000554400000000000000000000100010010000000000000000000000F0010000006281100420140917000101 00000000000000000000000000000000000000000000000000000000000000000000000000000000000000000000000000000000000000000N 00000000000NCONT   00    00000000000          00000000000000000000000000000000000000000000 000000000000000A000000000000000000000000000000000000000000000 000000000000000000000000000000000000000     00000000                                                                                                                        000000000000000000
F0010000006281100005000090013035500013552100000000000000000201409170002001FUJIAN SHAN S.A.                                  D000000000554400000000000000000000100010010000000000000000000000F0010000006281100520140917000101 00000000000000000000000000000000000000000000000000000000000000000000000000000000000000000000000000000000000000000N 00000000000NCONT   00    00000000000          00000000000000000000000000000000000000000000 000000000000000A000000000000000000000000000000000000000000000 000000000000000000000000000000000000000     00000000                                                                                                                        000000000000000000
F0010000006281200001000090009800500013050500000000000000000201409170002001GLORIANT CHEMICAL DE COLOMBIA LTDA                D000000038366000000000000000000000100010010000000000000000000000F0010000006281200120140917000101 00000000000000000000000000000000000000000000000000000000000000000000000000000000000000000000000000000000000000000N 00000000000NCONT   00    00000000000          00000000000000000000000000000000000000000000 000000000000000A000000000000000000000000000000000000000000000 000000000000000000000000000000000000000     00000000                                                                                                                        000000000000000000
F0010000006281200002000090009800500041450500000000000000000201409170002001GLORIANT CHEMICAL DE COLOMBIA LTDA                C000000033480000000000000000000000100010010000000000000000000000F0010000006281200220140917000101 00000000000000000000000000000000000000000000000000000000000000000000000000000000000000000000000000000000000000000N 00000000000NCONT   00    00000000000          00000000000000000000000000000000000000000000 000000000000000A000000000000000000000000000000000000000000000 000000000000000000000000000000000000000     00000000                                                                                                                        000000000000000000
F0010000006281200003000090009800500042505000000000000000000201409170002001GLORIANT CHEMICAL DE COLOMBIA LTDA                C000000004886000000000000000000000100010010000000000000000000000F0010000006281200320140917000101 00000000000000000000000000000000000000000000000000000000000000000000000000000000000000000000000000000000000000000N 00000000000NCONT   00    00000000000          00000000000000000000000000000000000000000000 000000000000000A000000000000000000000000000000000000000000000 000000000000000000000000000000000000000     00000000                                                                                                                        000000000000000000
F0010000006281200004000090009800500023658300000000000000000201409170002001GLORIANT CHEMICAL DE COLOMBIA LTDA                C000000000267800000000000000000000100010010000000000000000000000F0010000006281200420140917000101 00000000000000000000000000000000000000000000000000000000000000000000000000000000000000000000000000000000000000000N 00000000000NCONT   00    00000000000          00000000000000000000000000000000000000000000 000000000000000A000000000000000000000000000000000000000000000 000000000000000000000000000000000000000     00000000                                                                                                                        000000000000000000
F0010000006281200005000090009800500013552100000000000000000201409170002001GLORIANT CHEMICAL DE COLOMBIA LTDA                D000000000267800000000000000000000100010010000000000000000000000F0010000006281200520140917000101 00000000000000000000000000000000000000000000000000000000000000000000000000000000000000000000000000000000000000000N 00000000000NCONT   00    00000000000          00000000000000000000000000000000000000000000 000000000000000A000000000000000000000000000000000000000000000 000000000000000000000000000000000000000     00000000                                                                                                                        000000000000000000
F0010000006281300001000090008711200013050500000000000000000201409170002001PACKAGING SUPPLIERS S.A.                          D000000055201900000000000000000000100010010000000000000000000000F0010000006281300120140917000101 00000000000000000000000000000000000000000000000000000000000000000000000000000000000000000000000000000000000000000N 00000000000NCONT   00    00000000000          00000000000000000000000000000000000000000000 000000000000000A000000000000000000000000000000000000000000000 000000000000000000000000000000000000000     00000000                                                                                                                        000000000000000000
F0010000006281300002000090008711200041450500000000000000000201409170002001PACKAGING SUPPLIERS S.A.                          C000000052170200000000000000000000100010010000000000000000000000F0010000006281300220140917000101 00000000000000000000000000000000000000000000000000000000000000000000000000000000000000000000000000000000000000000N 00000000000NCONT   00    00000000000          00000000000000000000000000000000000000000000 000000000000000A000000000000000000000000000000000000000000000 000000000000000000000000000000000000000     00000000                                                                                                                        000000000000000000
F0010000006281300003000090008711200042505000000000000000000201409170002001PACKAGING SUPPLIERS S.A.                          C000000003031700000000000000000000100010010000000000000000000000F0010000006281300320140917000101 00000000000000000000000000000000000000000000000000000000000000000000000000000000000000000000000000000000000000000N 00000000000NCONT   00    00000000000          00000000000000000000000000000000000000000000 000000000000000A000000000000000000000000000000000000000000000 000000000000000000000000000000000000000     00000000                                                                                                                        000000000000000000
F0010000006281300004000090008711200023658300000000000000000201409170002001PACKAGING SUPPLIERS S.A.                          C000000000417400000000000000000000100010010000000000000000000000F0010000006281300420140917000101 00000000000000000000000000000000000000000000000000000000000000000000000000000000000000000000000000000000000000000N 00000000000NCONT   00    00000000000          00000000000000000000000000000000000000000000 000000000000000A000000000000000000000000000000000000000000000 000000000000000000000000000000000000000     00000000                                                                                                                        000000000000000000
F0010000006281300005000090008711200013552100000000000000000201409170002001PACKAGING SUPPLIERS S.A.                          D000000000417400000000000000000000100010010000000000000000000000F0010000006281300520140917000101 00000000000000000000000000000000000000000000000000000000000000000000000000000000000000000000000000000000000000000N 00000000000NCONT   00    00000000000          00000000000000000000000000000000000000000000 000000000000000A000000000000000000000000000000000000000000000 000000000000000000000000000000000000000     00000000                                                                                                                        000000000000000000
F0010000006281400001000000376399500013050500000000000000000201409170002001FORDPLAST                                         D000000001740000000000000000000000100010010000000000000000000000F0010000006281400120140917000101 00000000000000000000000000000000000000000000000000000000000000000000000000000000000000000000000000000000000000000N 00000000000NCONT   00    00000000000          00000000000000000000000000000000000000000000 000000000000000A000000000000000000000000000000000000000000000 000000000000000000000000000000000000000     00000000                                                                                                                        000000000000000000
F0010000006281400002000000376399500041450500000000000000000201409170002001FORDPLAST                                         C000000001340000000000000000000000100010010000000000000000000000F0010000006281400220140917000101 00000000000000000000000000000000000000000000000000000000000000000000000000000000000000000000000000000000000000000N 00000000000NCONT   00    00000000000          00000000000000000000000000000000000000000000 000000000000000A000000000000000000000000000000000000000000000 000000000000000000000000000000000000000     00000000                                                                                                                        000000000000000000
F0010000006281400003000000376399500042505000000000000000000201409170002001FORDPLAST                                         C000000000400000000000000000000000100010010000000000000000000000F0010000006281400320140917000101 00000000000000000000000000000000000000000000000000000000000000000000000000000000000000000000000000000000000000000N 00000000000NCONT   00    00000000000          00000000000000000000000000000000000000000000 000000000000000A000000000000000000000000000000000000000000000 000000000000000000000000000000000000000     00000000                                                                                                                        000000000000000000
F0010000006281400004000000376399500023658300000000000000000201409170002001FORDPLAST                                         C000000000010700000000000000000000100010010000000000000000000000F0010000006281400420140917000101 00000000000000000000000000000000000000000000000000000000000000000000000000000000000000000000000000000000000000000N 00000000000NCONT   00    00000000000          00000000000000000000000000000000000000000000 000000000000000A000000000000000000000000000000000000000000000 000000000000000000000000000000000000000     00000000                                                                                                                        000000000000000000
F0010000006281400005000000376399500013552100000000000000000201409170002001FORDPLAST                                         D000000000010700000000000000000000100010010000000000000000000000F0010000006281400520140917000101 00000000000000000000000000000000000000000000000000000000000000000000000000000000000000000000000000000000000000000N 00000000000NCONT   00    00000000000          00000000000000000000000000000000000000000000 000000000000000A000000000000000000000000000000000000000000000 000000000000000000000000000000000000000     00000000                                                                                                                        000000000000000000
F0010000006281500001000080018525700013050500000000000000000201409170002001SUMINISTROS Y ACABADOS LTDA                       D000000005251700000000000000000000100010010000000000000000000000F0010000006281500120140917000101 00000000000000000000000000000000000000000000000000000000000000000000000000000000000000000000000000000000000000000N 00000000000NCONT   00    00000000000          00000000000000000000000000000000000000000000 000000000000000A000000000000000000000000000000000000000000000 000000000000000000000000000000000000000     00000000                                                                                                                        000000000000000000
F0010000006281500002000080018525700041450500000000000000000201409170002001SUMINISTROS Y ACABADOS LTDA                       C000000004158000000000000000000000100010010000000000000000000000F0010000006281500220140917000101 00000000000000000000000000000000000000000000000000000000000000000000000000000000000000000000000000000000000000000N 00000000000NCONT   00    00000000000          00000000000000000000000000000000000000000000 000000000000000A000000000000000000000000000000000000000000000 000000000000000000000000000000000000000     00000000                                                                                                                        000000000000000000
F0010000006281500003000080018525700042505000000000000000000201409170002001SUMINISTROS Y ACABADOS LTDA                       C000000001093700000000000000000000100010010000000000000000000000F0010000006281500320140917000101 00000000000000000000000000000000000000000000000000000000000000000000000000000000000000000000000000000000000000000N 00000000000NCONT   00    00000000000          00000000000000000000000000000000000000000000 000000000000000A000000000000000000000000000000000000000000000 000000000000000000000000000000000000000     00000000                                                                                                                        000000000000000000
F0010000006281500004000080018525700023658300000000000000000201409170002001SUMINISTROS Y ACABADOS LTDA                       C000000000033300000000000000000000100010010000000000000000000000F0010000006281500420140917000101 00000000000000000000000000000000000000000000000000000000000000000000000000000000000000000000000000000000000000000N 00000000000NCONT   00    00000000000          00000000000000000000000000000000000000000000 000000000000000A000000000000000000000000000000000000000000000 000000000000000000000000000000000000000     00000000                                                                                                                        000000000000000000
F0010000006281500005000080018525700013552100000000000000000201409170002001SUMINISTROS Y ACABADOS LTDA                       D000000000033300000000000000000000100010010000000000000000000000F0010000006281500520140917000101 00000000000000000000000000000000000000000000000000000000000000000000000000000000000000000000000000000000000000000N 00000000000NCONT   00    00000000000          00000000000000000000000000000000000000000000 000000000000000A000000000000000000000000000000000000000000000 000000000000000000000000000000000000000     00000000                                                                                                                        000000000000000000
F0010000006281600001000080200069100013050500000000000000000201409170002001PEGANTES Y PINTURAS ATLAS LTDA                    D000000006980000000000000000000000100010010000000000000000000000F0010000006281600120140917000101 00000000000000000000000000000000000000000000000000000000000000000000000000000000000000000000000000000000000000000N 00000000000NCONT   00    00000000000          00000000000000000000000000000000000000000000 000000000000000A000000000000000000000000000000000000000000000 000000000000000000000000000000000000000     00000000                                                                                                                        000000000000000000
F0010000006281600002000080200069100041450500000000000000000201409170002001PEGANTES Y PINTURAS ATLAS LTDA                    C000000006000000000000000000000000100010010000000000000000000000F0010000006281600220140917000101 00000000000000000000000000000000000000000000000000000000000000000000000000000000000000000000000000000000000000000N 00000000000NCONT   00    00000000000          00000000000000000000000000000000000000000000 000000000000000A000000000000000000000000000000000000000000000 000000000000000000000000000000000000000     00000000                                                                                                                        000000000000000000
F0010000006281600003000080200069100042505000000000000000000201409170002001PEGANTES Y PINTURAS ATLAS LTDA                    C000000000980000000000000000000000100010010000000000000000000000F0010000006281600320140917000101 00000000000000000000000000000000000000000000000000000000000000000000000000000000000000000000000000000000000000000N 00000000000NCONT   00    00000000000          00000000000000000000000000000000000000000000 000000000000000A000000000000000000000000000000000000000000000 000000000000000000000000000000000000000     00000000                                                                                                                        000000000000000000
F0010000006281600004000080200069100023658300000000000000000201409170002001PEGANTES Y PINTURAS ATLAS LTDA                    C000000000048000000000000000000000100010010000000000000000000000F0010000006281600420140917000101 00000000000000000000000000000000000000000000000000000000000000000000000000000000000000000000000000000000000000000N 00000000000NCONT   00    00000000000          00000000000000000000000000000000000000000000 000000000000000A000000000000000000000000000000000000000000000 000000000000000000000000000000000000000     00000000                                                                                                                        000000000000000000
F0010000006281600005000080200069100013552100000000000000000201409170002001PEGANTES Y PINTURAS ATLAS LTDA                    D000000000048000000000000000000000100010010000000000000000000000F0010000006281600520140917000101 00000000000000000000000000000000000000000000000000000000000000000000000000000000000000000000000000000000000000000N 00000000000NCONT   00    00000000000          00000000000000000000000000000000000000000000 000000000000000A000000000000000000000000000000000000000000000 000000000000000000000000000000000000000     00000000                                                                                                                        000000000000000000
F0010000006281700001000090002525100013050500000000000000000201409170002001VINILOS Y PEGANTES                                D000000011605200000000000000000000100010010000000000000000000000F0010000006281700120140917000101 00000000000000000000000000000000000000000000000000000000000000000000000000000000000000000000000000000000000000000N 00000000000NCONT   00    00000000000          00000000000000000000000000000000000000000000 000000000000000A000000000000000000000000000000000000000000000 000000000000000000000000000000000000000     00000000                                                                                                                        000000000000000000
F0010000006281700002000090002525100041450500000000000000000201409170002001VINILOS Y PEGANTES                                C000000009900000000000000000000000100010010000000000000000000000F0010000006281700220140917000101 00000000000000000000000000000000000000000000000000000000000000000000000000000000000000000000000000000000000000000N 00000000000NCONT   00    00000000000          00000000000000000000000000000000000000000000 000000000000000A000000000000000000000000000000000000000000000 000000000000000000000000000000000000000     00000000                                                                                                                        000000000000000000
F0010000006281700003000090002525100042505000000000000000000201409170002001VINILOS Y PEGANTES                                C000000001705200000000000000000000100010010000000000000000000000F0010000006281700320140917000101 00000000000000000000000000000000000000000000000000000000000000000000000000000000000000000000000000000000000000000N 00000000000NCONT   00    00000000000          00000000000000000000000000000000000000000000 000000000000000A000000000000000000000000000000000000000000000 000000000000000000000000000000000000000     00000000                                                                                                                        000000000000000000
F0010000006281700004000090002525100023658300000000000000000201409170002001VINILOS Y PEGANTES                                C000000000079200000000000000000000100010010000000000000000000000F0010000006281700420140917000101 00000000000000000000000000000000000000000000000000000000000000000000000000000000000000000000000000000000000000000N 00000000000NCONT   00    00000000000          00000000000000000000000000000000000000000000 000000000000000A000000000000000000000000000000000000000000000 000000000000000000000000000000000000000     00000000                                                                                                                        000000000000000000
F0010000006281700005000090002525100013552100000000000000000201409170002001VINILOS Y PEGANTES                                D000000000079200000000000000000000100010010000000000000000000000F0010000006281700520140917000101 00000000000000000000000000000000000000000000000000000000000000000000000000000000000000000000000000000000000000000N 00000000000NCONT   00    00000000000          00000000000000000000000000000000000000000000 000000000000000A000000000000000000000000000000000000000000000 000000000000000000000000000000000000000     00000000                                                                                                                        000000000000000000
F0010000006281800001000080016664500013050500000000000000000201409170002001TELAPLAS PANCER SAS                               D000000021915000000000000000000000100010010000000000000000000000F0010000006281800120140917000101 00000000000000000000000000000000000000000000000000000000000000000000000000000000000000000000000000000000000000000N 00000000000NCONT   00    00000000000          00000000000000000000000000000000000000000000 000000000000000A000000000000000000000000000000000000000000000 000000000000000000000000000000000000000     00000000                                                                                                                        000000000000000000
F0010000006281800002000080016664500041450500000000000000000201409170002001TELAPLAS PANCER SAS                               C000000018480000000000000000000000100010010000000000000000000000F0010000006281800220140917000101 00000000000000000000000000000000000000000000000000000000000000000000000000000000000000000000000000000000000000000N 00000000000NCONT   00    00000000000          00000000000000000000000000000000000000000000 000000000000000A000000000000000000000000000000000000000000000 000000000000000000000000000000000000000     00000000                                                                                                                        000000000000000000
F0010000006281800003000080016664500042505000000000000000000201409170002001TELAPLAS PANCER SAS                               C000000003435000000000000000000000100010010000000000000000000000F0010000006281800320140917000101 00000000000000000000000000000000000000000000000000000000000000000000000000000000000000000000000000000000000000000N 00000000000NCONT   00    00000000000          00000000000000000000000000000000000000000000 000000000000000A000000000000000000000000000000000000000000000 000000000000000000000000000000000000000     00000000                                                                                                                        000000000000000000
F0010000006281800004000080016664500023658300000000000000000201409170002001TELAPLAS PANCER SAS                               C000000000147800000000000000000000100010010000000000000000000000F0010000006281800420140917000101 00000000000000000000000000000000000000000000000000000000000000000000000000000000000000000000000000000000000000000N 00000000000NCONT   00    00000000000          00000000000000000000000000000000000000000000 000000000000000A000000000000000000000000000000000000000000000 000000000000000000000000000000000000000     00000000                                                                                                                        000000000000000000
F0010000006281800005000080016664500013552100000000000000000201409170002001TELAPLAS PANCER SAS                               D000000000147800000000000000000000100010010000000000000000000000F0010000006281800520140917000101 00000000000000000000000000000000000000000000000000000000000000000000000000000000000000000000000000000000000000000N 00000000000NCONT   00    00000000000          00000000000000000000000000000000000000000000 000000000000000A000000000000000000000000000000000000000000000 000000000000000000000000000000000000000     00000000                                                                                                                        000000000000000000
F0010000006281900001000000748239700013050500000000000000000201409170002001RAFAEL NAVARRO URIBE                              D000000033481500000000000000000000100010010000000000000000000000F0010000006281900120140917000101 00000000000000000000000000000000000000000000000000000000000000000000000000000000000000000000000000000000000000000N 00000000000NCONT   00    00000000000          00000000000000000000000000000000000000000000 000000000000000A000000000000000000000000000000000000000000000 000000000000000000000000000000000000000     00000000                                                                                                                        000000000000000000
F0010000006281900002000000748239700041450500000000000000000201409170002001RAFAEL NAVARRO URIBE                              C000000025100000000000000000000000100010010000000000000000000000F0010000006281900220140917000101 00000000000000000000000000000000000000000000000000000000000000000000000000000000000000000000000000000000000000000N 00000000000NCONT   00    00000000000          00000000000000000000000000000000000000000000 000000000000000A000000000000000000000000000000000000000000000 000000000000000000000000000000000000000     00000000                                                                                                                        000000000000000000
F0010000006281900003000000748239700042505000000000000000000201409170002001RAFAEL NAVARRO URIBE                              C000000008381500000000000000000000100010010000000000000000000000F0010000006281900320140917000101 00000000000000000000000000000000000000000000000000000000000000000000000000000000000000000000000000000000000000000N 00000000000NCONT   00    00000000000          00000000000000000000000000000000000000000000 000000000000000A000000000000000000000000000000000000000000000 000000000000000000000000000000000000000     00000000                                                                                                                        000000000000000000
F0010000006281900004000000748239700023658300000000000000000201409170002001RAFAEL NAVARRO URIBE                              C000000000200800000000000000000000100010010000000000000000000000F0010000006281900420140917000101 00000000000000000000000000000000000000000000000000000000000000000000000000000000000000000000000000000000000000000N 00000000000NCONT   00    00000000000          00000000000000000000000000000000000000000000 000000000000000A000000000000000000000000000000000000000000000 000000000000000000000000000000000000000     00000000                                                                                                                        000000000000000000
F0010000006281900005000000748239700013552100000000000000000201409170002001RAFAEL NAVARRO URIBE                              D000000000200800000000000000000000100010010000000000000000000000F0010000006281900520140917000101 00000000000000000000000000000000000000000000000000000000000000000000000000000000000000000000000000000000000000000N 00000000000NCONT   00    00000000000          00000000000000000000000000000000000000000000 000000000000000A000000000000000000000000000000000000000000000 000000000000000000000000000000000000000     00000000                                                                                                                        000000000000000000
F0010000006282000001000002245670100013050500000000000000000201409170002001YOLANDA  TOBON                                    D000000078522500000000000000000000100010010000000000000000000000F0010000006282000120140917000101 00000000000000000000000000000000000000000000000000000000000000000000000000000000000000000000000000000000000000000N 00000000000NCONT   00    00000000000          00000000000000000000000000000000000000000000 000000000000000A000000000000000000000000000000000000000000000 000000000000000000000000000000000000000     00000000                                                                                                                        000000000000000000
F0010000006282000002000002245670100041450500000000000000000201409170002001YOLANDA  TOBON                                    C000000066580000000000000000000000100010010000000000000000000000F0010000006282000220140917000101 00000000000000000000000000000000000000000000000000000000000000000000000000000000000000000000000000000000000000000N 00000000000NCONT   00    00000000000          00000000000000000000000000000000000000000000 000000000000000A000000000000000000000000000000000000000000000 000000000000000000000000000000000000000     00000000                                                                                                                        000000000000000000
F0010000006282000003000002245670100042505000000000000000000201409170002001YOLANDA  TOBON                                    C000000011942500000000000000000000100010010000000000000000000000F0010000006282000320140917000101 00000000000000000000000000000000000000000000000000000000000000000000000000000000000000000000000000000000000000000N 00000000000NCONT   00    00000000000          00000000000000000000000000000000000000000000 000000000000000A000000000000000000000000000000000000000000000 000000000000000000000000000000000000000     00000000                                                                                                                        000000000000000000
F0010000006282000004000002245670100023658300000000000000000201409170002001YOLANDA  TOBON                                    C000000000532600000000000000000000100010010000000000000000000000F0010000006282000420140917000101 00000000000000000000000000000000000000000000000000000000000000000000000000000000000000000000000000000000000000000N 00000000000NCONT   00    00000000000          00000000000000000000000000000000000000000000 000000000000000A000000000000000000000000000000000000000000000 000000000000000000000000000000000000000     00000000                                                                                                                        000000000000000000
F0010000006282000005000002245670100013552100000000000000000201409170002001YOLANDA  TOBON                                    D000000000532600000000000000000000100010010000000000000000000000F0010000006282000520140917000101 00000000000000000000000000000000000000000000000000000000000000000000000000000000000000000000000000000000000000000N 00000000000NCONT   00    00000000000          00000000000000000000000000000000000000000000 000000000000000A000000000000000000000000000000000000000000000 000000000000000000000000000000000000000     00000000                                                                                                                        000000000000000000
F0010000006282100001000080200225800013050500000000000000000201409170002001PERF. TECNICOS DE LA COSTA S.A.S                  D000000038650100000000000000000000100010010000000000000000000000F0010000006282100120140917000101 00000000000000000000000000000000000000000000000000000000000000000000000000000000000000000000000000000000000000000N 00000000000NCONT   00    00000000000          00000000000000000000000000000000000000000000 000000000000000A000000000000000000000000000000000000000000000 000000000000000000000000000000000000000     00000000                                                                                                                        000000000000000000
F0010000006282100002000080200225800041450500000000000000000201409170002001PERF. TECNICOS DE LA COSTA S.A.S                  C000000032877400000000000000000000100010010000000000000000000000F0010000006282100220140917000101 00000000000000000000000000000000000000000000000000000000000000000000000000000000000000000000000000000000000000000N 00000000000NCONT   00    00000000000          00000000000000000000000000000000000000000000 000000000000000A000000000000000000000000000000000000000000000 000000000000000000000000000000000000000     00000000                                                                                                                        000000000000000000
F0010000006282100003000080200225800042505000000000000000000201409170002001PERF. TECNICOS DE LA COSTA S.A.S                  C000000005772700000000000000000000100010010000000000000000000000F0010000006282100320140917000101 00000000000000000000000000000000000000000000000000000000000000000000000000000000000000000000000000000000000000000N 00000000000NCONT   00    00000000000          00000000000000000000000000000000000000000000 000000000000000A000000000000000000000000000000000000000000000 000000000000000000000000000000000000000     00000000                                                                                                                        000000000000000000
F0010000006282100004000080200225800023658300000000000000000201409170002001PERF. TECNICOS DE LA COSTA S.A.S                  C000000000263000000000000000000000100010010000000000000000000000F0010000006282100420140917000101 00000000000000000000000000000000000000000000000000000000000000000000000000000000000000000000000000000000000000000N 00000000000NCONT   00    00000000000          00000000000000000000000000000000000000000000 000000000000000A000000000000000000000000000000000000000000000 000000000000000000000000000000000000000     00000000                                                                                                                        000000000000000000
F0010000006282100005000080200225800013552100000000000000000201409170002001PERF. TECNICOS DE LA COSTA S.A.S                  D000000000263000000000000000000000100010010000000000000000000000F0010000006282100520140917000101 00000000000000000000000000000000000000000000000000000000000000000000000000000000000000000000000000000000000000000N 00000000000NCONT   00    00000000000          00000000000000000000000000000000000000000000 000000000000000A000000000000000000000000000000000000000000000 000000000000000000000000000000000000000     00000000                                                                                                                        000000000000000000
F0010000006282200001000080016665600013050500000000000000000201409170002001SUMICAL DE ANTIOQUIA S.A.S                        D000000031428000000000000000000000100010010000000000000000000000F0010000006282200120140917000101 00000000000000000000000000000000000000000000000000000000000000000000000000000000000000000000000000000000000000000N 00000000000NCONT   00    00000000000          00000000000000000000000000000000000000000000 000000000000000A000000000000000000000000000000000000000000000 000000000000000000000000000000000000000     00000000                                                                                                                        000000000000000000
F0010000006282200002000080016665600041450500000000000000000201409170002001SUMICAL DE ANTIOQUIA S.A.S                        C000000028210000000000000000000000100010010000000000000000000000F0010000006282200220140917000101 00000000000000000000000000000000000000000000000000000000000000000000000000000000000000000000000000000000000000000N 00000000000NCONT   00    00000000000          00000000000000000000000000000000000000000000 000000000000000A000000000000000000000000000000000000000000000 000000000000000000000000000000000000000     00000000                                                                                                                        000000000000000000
F0010000006282200003000080016665600042505000000000000000000201409170002001SUMICAL DE ANTIOQUIA S.A.S                        C000000003218000000000000000000000100010010000000000000000000000F0010000006282200320140917000101 00000000000000000000000000000000000000000000000000000000000000000000000000000000000000000000000000000000000000000N 00000000000NCONT   00    00000000000          00000000000000000000000000000000000000000000 000000000000000A000000000000000000000000000000000000000000000 000000000000000000000000000000000000000     00000000                                                                                                                        000000000000000000
F0010000006282200004000080016665600023658300000000000000000201409170002001SUMICAL DE ANTIOQUIA S.A.S                        C000000000225700000000000000000000100010010000000000000000000000F0010000006282200420140917000101 00000000000000000000000000000000000000000000000000000000000000000000000000000000000000000000000000000000000000000N 00000000000NCONT   00    00000000000          00000000000000000000000000000000000000000000 000000000000000A000000000000000000000000000000000000000000000 000000000000000000000000000000000000000     00000000                                                                                                                        000000000000000000
F0010000006282200005000080016665600013552100000000000000000201409170002001SUMICAL DE ANTIOQUIA S.A.S                        D000000000225700000000000000000000100010010000000000000000000000F0010000006282200520140917000101 00000000000000000000000000000000000000000000000000000000000000000000000000000000000000000000000000000000000000000N 00000000000NCONT   00    00000000000          00000000000000000000000000000000000000000000 000000000000000A000000000000000000000000000000000000000000000 000000000000000000000000000000000000000     00000000                                                                                                                        000000000000000000
F0010000006282300001000089010260300013050500000000000000000201409170002001FEDERICO OSORIO A. S.A.                           D000000229539200000000000000000000100010010000000000000000000000F0010000006282300120140917000101 00000000000000000000000000000000000000000000000000000000000000000000000000000000000000000000000000000000000000000N 00000000000NCONT   00    00000000000          00000000000000000000000000000000000000000000 000000000000000A000000000000000000000000000000000000000000000 000000000000000000000000000000000000000     00000000                                                                                                                        000000000000000000
F0010000006282300002000089010260300041450500000000000000000201409170002001FEDERICO OSORIO A. S.A.                           C000000214770000000000000000000000100010010000000000000000000000F0010000006282300220140917000101 00000000000000000000000000000000000000000000000000000000000000000000000000000000000000000000000000000000000000000N 00000000000NCONT   00    00000000000          00000000000000000000000000000000000000000000 000000000000000A000000000000000000000000000000000000000000000 000000000000000000000000000000000000000     00000000                                                                                                                        000000000000000000
F0010000006282300003000089010260300042505000000000000000000201409170002001FEDERICO OSORIO A. S.A.                           C000000014769200000000000000000000100010010000000000000000000000F0010000006282300320140917000101 00000000000000000000000000000000000000000000000000000000000000000000000000000000000000000000000000000000000000000N 00000000000NCONT   00    00000000000          00000000000000000000000000000000000000000000 000000000000000A000000000000000000000000000000000000000000000 000000000000000000000000000000000000000     00000000                                                                                                                        000000000000000000
F0010000006282300004000089010260300023658300000000000000000201409170002001FEDERICO OSORIO A. S.A.                           C000000001718200000000000000000000100010010000000000000000000000F0010000006282300420140917000101 00000000000000000000000000000000000000000000000000000000000000000000000000000000000000000000000000000000000000000N 00000000000NCONT   00    00000000000          00000000000000000000000000000000000000000000 000000000000000A000000000000000000000000000000000000000000000 000000000000000000000000000000000000000     00000000                                                                                                                        000000000000000000
F0010000006282300005000089010260300013552100000000000000000201409170002001FEDERICO OSORIO A. S.A.                           D000000001718200000000000000000000100010010000000000000000000000F0010000006282300520140917000101 00000000000000000000000000000000000000000000000000000000000000000000000000000000000000000000000000000000000000000N 00000000000NCONT   00    00000000000          00000000000000000000000000000000000000000000 000000000000000A000000000000000000000000000000000000000000000 000000000000000000000000000000000000000     00000000                                                                                                                        000000000000000000
F0010000006282400001000089010260300013050500000000000000000201409170002001FEDERICO OSORIO A. S.A.                           D000000049270400000000000000000000100010010000000000000000000000F0010000006282400120140917000101 00000000000000000000000000000000000000000000000000000000000000000000000000000000000000000000000000000000000000000N 00000000000NCONT   00    00000000000          00000000000000000000000000000000000000000000 000000000000000A000000000000000000000000000000000000000000000 000000000000000000000000000000000000000     00000000                                                                                                                        000000000000000000
F0010000006282400002000089010260300041450500000000000000000201409170002001FEDERICO OSORIO A. S.A.                           C000000045500000000000000000000000100010010000000000000000000000F0010000006282400220140917000101 00000000000000000000000000000000000000000000000000000000000000000000000000000000000000000000000000000000000000000N 00000000000NCONT   00    00000000000          00000000000000000000000000000000000000000000 000000000000000A000000000000000000000000000000000000000000000 000000000000000000000000000000000000000     00000000                                                                                                                        000000000000000000
F0010000006282400003000089010260300042505000000000000000000201409170002001FEDERICO OSORIO A. S.A.                           C000000003770400000000000000000000100010010000000000000000000000F0010000006282400320140917000101 00000000000000000000000000000000000000000000000000000000000000000000000000000000000000000000000000000000000000000N 00000000000NCONT   00    00000000000          00000000000000000000000000000000000000000000 000000000000000A000000000000000000000000000000000000000000000 000000000000000000000000000000000000000     00000000                                                                                                                        000000000000000000
F0010000006282400004000089010260300023658300000000000000000201409170002001FEDERICO OSORIO A. S.A.                           C000000000364000000000000000000000100010010000000000000000000000F0010000006282400420140917000101 00000000000000000000000000000000000000000000000000000000000000000000000000000000000000000000000000000000000000000N 00000000000NCONT   00    00000000000          00000000000000000000000000000000000000000000 000000000000000A000000000000000000000000000000000000000000000 000000000000000000000000000000000000000     00000000                                                                                                                        000000000000000000
F0010000006282400005000089010260300013552100000000000000000201409170002001FEDERICO OSORIO A. S.A.                           D000000000364000000000000000000000100010010000000000000000000000F0010000006282400520140917000101 00000000000000000000000000000000000000000000000000000000000000000000000000000000000000000000000000000000000000000N 00000000000NCONT   00    00000000000          00000000000000000000000000000000000000000000 000000000000000A000000000000000000000000000000000000000000000 000000000000000000000000000000000000000     00000000                                                                                                                        000000000000000000
F0010000006282500001000080202094000013050500000000000000000201409170002001DISTRIB. OMAR ORREGO S.A.                         D000000102852500000000000000000000100010010000000000000000000000F0010000006282500120140917000101 00000000000000000000000000000000000000000000000000000000000000000000000000000000000000000000000000000000000000000N 00000000000NCONT   00    00000000000          00000000000000000000000000000000000000000000 000000000000000A000000000000000000000000000000000000000000000 000000000000000000000000000000000000000     00000000                                                                                                                        000000000000000000
F0010000006282500002000080202094000041450500000000000000000201409170002001DISTRIB. OMAR ORREGO S.A.                         C000000080360000000000000000000000100010010000000000000000000000F0010000006282500220140917000101 00000000000000000000000000000000000000000000000000000000000000000000000000000000000000000000000000000000000000000N 00000000000NCONT   00    00000000000          00000000000000000000000000000000000000000000 000000000000000A000000000000000000000000000000000000000000000 000000000000000000000000000000000000000     00000000                                                                                                                        000000000000000000
F0010000006282500003000080202094000042505000000000000000000201409170002001DISTRIB. OMAR ORREGO S.A.                         C000000022492500000000000000000000100010010000000000000000000000F0010000006282500320140917000101 00000000000000000000000000000000000000000000000000000000000000000000000000000000000000000000000000000000000000000N 00000000000NCONT   00    00000000000          00000000000000000000000000000000000000000000 000000000000000A000000000000000000000000000000000000000000000 000000000000000000000000000000000000000     00000000                                                                                                                        000000000000000000
F0010000006282500004000080202094000023658300000000000000000201409170002001DISTRIB. OMAR ORREGO S.A.                         C000000000642900000000000000000000100010010000000000000000000000F0010000006282500420140917000101 00000000000000000000000000000000000000000000000000000000000000000000000000000000000000000000000000000000000000000N 00000000000NCONT   00    00000000000          00000000000000000000000000000000000000000000 000000000000000A000000000000000000000000000000000000000000000 000000000000000000000000000000000000000     00000000                                                                                                                        000000000000000000
F0010000006282500005000080202094000013552100000000000000000201409170002001DISTRIB. OMAR ORREGO S.A.                         D000000000642900000000000000000000100010010000000000000000000000F0010000006282500520140917000101 00000000000000000000000000000000000000000000000000000000000000000000000000000000000000000000000000000000000000000N 00000000000NCONT   00    00000000000          00000000000000000000000000000000000000000000 000000000000000A000000000000000000000000000000000000000000000 000000000000000000000000000000000000000     00000000                                                                                                                        000000000000000000
F0010000006282600001000080202094000013050500000000000000000201409170002001DISTRIB. OMAR ORREGO S.A.                         D000000045640900000000000000000000100010010000000000000000000000F0010000006282600120140917000101 00000000000000000000000000000000000000000000000000000000000000000000000000000000000000000000000000000000000000000N 00000000000NCONT   00    00000000000          00000000000000000000000000000000000000000000 000000000000000A000000000000000000000000000000000000000000000 000000000000000000000000000000000000000     00000000                                                                                                                        000000000000000000
F0010000006282600002000080202094000041450500000000000000000201409170002001DISTRIB. OMAR ORREGO S.A.                         C000000028800000000000000000000000100010010000000000000000000000F0010000006282600220140917000101 00000000000000000000000000000000000000000000000000000000000000000000000000000000000000000000000000000000000000000N 00000000000NCONT   00    00000000000          00000000000000000000000000000000000000000000 000000000000000A000000000000000000000000000000000000000000000 000000000000000000000000000000000000000     00000000                                                                                                                        000000000000000000
F0010000006282600003000080202094000042505000000000000000000201409170002001DISTRIB. OMAR ORREGO S.A.                         C000000016840900000000000000000000100010010000000000000000000000F0010000006282600320140917000101 00000000000000000000000000000000000000000000000000000000000000000000000000000000000000000000000000000000000000000N 00000000000NCONT   00    00000000000          00000000000000000000000000000000000000000000 000000000000000A000000000000000000000000000000000000000000000 000000000000000000000000000000000000000     00000000                                                                                                                        000000000000000000
F0010000006282600004000080202094000023658300000000000000000201409170002001DISTRIB. OMAR ORREGO S.A.                         C000000000230400000000000000000000100010010000000000000000000000F0010000006282600420140917000101 00000000000000000000000000000000000000000000000000000000000000000000000000000000000000000000000000000000000000000N 00000000000NCONT   00    00000000000          00000000000000000000000000000000000000000000 000000000000000A000000000000000000000000000000000000000000000 000000000000000000000000000000000000000     00000000                                                                                                                        000000000000000000
F0010000006282600005000080202094000013552100000000000000000201409170002001DISTRIB. OMAR ORREGO S.A.                         D000000000230400000000000000000000100010010000000000000000000000F0010000006282600520140917000101 00000000000000000000000000000000000000000000000000000000000000000000000000000000000000000000000000000000000000000N 00000000000NCONT   00    00000000000          00000000000000000000000000000000000000000000 000000000000000A000000000000000000000000000000000000000000000 000000000000000000000000000000000000000     00000000                                                                                                                        000000000000000000
F0010000006282700001000000616206000011050500000000000000000201409170002001DELIO VALLECILLA GARCES                           D000000005000000000000000000000000100010010000000000000000000000F0010000006282700120140917000101 00000000000000000000000000000000000000000000000000000000000000000000000000000000000000000000000000000000000000000N 00000000000NCONT   00    00000000000          00000000000000000000000000000000000000000000 000000000000000A000000000000000000000000000000000000000000000 000000000000000000000000000000000000000     00000000                                                                                                                        000000000000000000
F0010000006282700002000000616206000041450500000000000000000201409170002001DELIO VALLECILLA GARCES                           C000000004200000000000000000000000100010010000000000000000000000F0010000006282700220140917000101 00000000000000000000000000000000000000000000000000000000000000000000000000000000000000000000000000000000000000000N 00000000000NCONT   00    00000000000          00000000000000000000000000000000000000000000 000000000000000A000000000000000000000000000000000000000000000 000000000000000000000000000000000000000     00000000                                                                                                                        000000000000000000
F0010000006282700003000000616206000042505000000000000000000201409170002001DELIO VALLECILLA GARCES                           C000000000800000000000000000000000100010010000000000000000000000F0010000006282700320140917000101 00000000000000000000000000000000000000000000000000000000000000000000000000000000000000000000000000000000000000000N 00000000000NCONT   00    00000000000          00000000000000000000000000000000000000000000 000000000000000A000000000000000000000000000000000000000000000 000000000000000000000000000000000000000     00000000                                                                                                                        000000000000000000
F0010000006282700004000000616206000023658300000000000000000201409170002001DELIO VALLECILLA GARCES                           C000000000033600000000000000000000100010010000000000000000000000F0010000006282700420140917000101 00000000000000000000000000000000000000000000000000000000000000000000000000000000000000000000000000000000000000000N 00000000000NCONT   00    00000000000          00000000000000000000000000000000000000000000 000000000000000A000000000000000000000000000000000000000000000 000000000000000000000000000000000000000     00000000                                                                                                                        000000000000000000
F0010000006282700005000000616206000013552100000000000000000201409170002001DELIO VALLECILLA GARCES                           D000000000033600000000000000000000100010010000000000000000000000F0010000006282700520140917000101 00000000000000000000000000000000000000000000000000000000000000000000000000000000000000000000000000000000000000000N 00000000000NCONT   00    00000000000          00000000000000000000000000000000000000000000 000000000000000A000000000000000000000000000000000000000000000 000000000000000000000000000000000000000     00000000                                                                                                                        000000000000000000
F0010000006282800001000090055180500011050500000000000000000201409170002001LAMINAS Y SUELAS DE COLOMBIA S.A.S                D000000003750000000000000000000000100010010000000000000000000000F0010000006282800120140917000101 00000000000000000000000000000000000000000000000000000000000000000000000000000000000000000000000000000000000000000N 00000000000NCONT   00    00000000000          00000000000000000000000000000000000000000000 000000000000000A000000000000000000000000000000000000000000000 000000000000000000000000000000000000000     00000000                                                                                                                        000000000000000000
F0010000006282800002000090055180500041450500000000000000000201409170002001LAMINAS Y SUELAS DE COLOMBIA S.A.S                C000000003500000000000000000000000100010010000000000000000000000F0010000006282800220140917000101 00000000000000000000000000000000000000000000000000000000000000000000000000000000000000000000000000000000000000000N 00000000000NCONT   00    00000000000          00000000000000000000000000000000000000000000 000000000000000A000000000000000000000000000000000000000000000 000000000000000000000000000000000000000     00000000                                                                                                                        000000000000000000
F0010000006282800003000090055180500042505000000000000000000201409170002001LAMINAS Y SUELAS DE COLOMBIA S.A.S                C000000000250000000000000000000000100010010000000000000000000000F0010000006282800320140917000101 00000000000000000000000000000000000000000000000000000000000000000000000000000000000000000000000000000000000000000N 00000000000NCONT   00    00000000000          00000000000000000000000000000000000000000000 000000000000000A000000000000000000000000000000000000000000000 000000000000000000000000000000000000000     00000000                                                                                                                        000000000000000000
F0010000006282800004000090055180500023658300000000000000000201409170002001LAMINAS Y SUELAS DE COLOMBIA S.A.S                C000000000028000000000000000000000100010010000000000000000000000F0010000006282800420140917000101 00000000000000000000000000000000000000000000000000000000000000000000000000000000000000000000000000000000000000000N 00000000000NCONT   00    00000000000          00000000000000000000000000000000000000000000 000000000000000A000000000000000000000000000000000000000000000 000000000000000000000000000000000000000     00000000                                                                                                                        000000000000000000
F0010000006282800005000090055180500013552100000000000000000201409170002001LAMINAS Y SUELAS DE COLOMBIA S.A.S                D000000000028000000000000000000000100010010000000000000000000000F0010000006282800520140917000101 00000000000000000000000000000000000000000000000000000000000000000000000000000000000000000000000000000000000000000N 00000000000NCONT   00    00000000000          00000000000000000000000000000000000000000000 000000000000000A000000000000000000000000000000000000000000000 000000000000000000000000000000000000000     00000000                                                                                                                        000000000000000000
F0010000006282900001000090055180500011050500000000000000000201409170002001LAMINAS Y SUELAS DE COLOMBIA S.A.S                D000000005050000000000000000000000100010010000000000000000000000F0010000006282900120140917000101 00000000000000000000000000000000000000000000000000000000000000000000000000000000000000000000000000000000000000000N 00000000000NCONT   00    00000000000          00000000000000000000000000000000000000000000 000000000000000A000000000000000000000000000000000000000000000 000000000000000000000000000000000000000     00000000                                                                                                                        000000000000000000
F0010000006282900002000090055180500041450500000000000000000201409170002001LAMINAS Y SUELAS DE COLOMBIA S.A.S                C000000005000000000000000000000000100010010000000000000000000000F0010000006282900220140917000101 00000000000000000000000000000000000000000000000000000000000000000000000000000000000000000000000000000000000000000N 00000000000NCONT   00    00000000000          00000000000000000000000000000000000000000000 000000000000000A000000000000000000000000000000000000000000000 000000000000000000000000000000000000000     00000000                                                                                                                        000000000000000000
F0010000006282900003000090055180500042505000000000000000000201409170002001LAMINAS Y SUELAS DE COLOMBIA S.A.S                C000000000050000000000000000000000100010010000000000000000000000F0010000006282900320140917000101 00000000000000000000000000000000000000000000000000000000000000000000000000000000000000000000000000000000000000000N 00000000000NCONT   00    00000000000          00000000000000000000000000000000000000000000 000000000000000A000000000000000000000000000000000000000000000 000000000000000000000000000000000000000     00000000                                                                                                                        000000000000000000
F0010000006282900004000090055180500023658300000000000000000201409170002001LAMINAS Y SUELAS DE COLOMBIA S.A.S                C000000000040000000000000000000000100010010000000000000000000000F0010000006282900420140917000101 00000000000000000000000000000000000000000000000000000000000000000000000000000000000000000000000000000000000000000N 00000000000NCONT   00    00000000000          00000000000000000000000000000000000000000000 000000000000000A000000000000000000000000000000000000000000000 000000000000000000000000000000000000000     00000000                                                                                                                        000000000000000000
F0010000006282900005000090055180500013552100000000000000000201409170002001LAMINAS Y SUELAS DE COLOMBIA S.A.S                D000000000040000000000000000000000100010010000000000000000000000F0010000006282900520140917000101 00000000000000000000000000000000000000000000000000000000000000000000000000000000000000000000000000000000000000000N 00000000000NCONT   00    00000000000          00000000000000000000000000000000000000000000 000000000000000A000000000000000000000000000000000000000000000 000000000000000000000000000000000000000     00000000                                                                                                                        000000000000000000
F0010000006283000001000090055180500011050500000000000000000201409170002001LAMINAS Y SUELAS DE COLOMBIA S.A.S                D000000002550000000000000000000000100010010000000000000000000000F0010000006283000120140917000101 00000000000000000000000000000000000000000000000000000000000000000000000000000000000000000000000000000000000000000N 00000000000NCONT   00    00000000000          00000000000000000000000000000000000000000000 000000000000000A000000000000000000000000000000000000000000000 000000000000000000000000000000000000000     00000000                                                                                                                        000000000000000000
F0010000006283000002000090055180500041450500000000000000000201409170002001LAMINAS Y SUELAS DE COLOMBIA S.A.S                C000000002450000000000000000000000100010010000000000000000000000F0010000006283000220140917000101 00000000000000000000000000000000000000000000000000000000000000000000000000000000000000000000000000000000000000000N 00000000000NCONT   00    00000000000          00000000000000000000000000000000000000000000 000000000000000A000000000000000000000000000000000000000000000 000000000000000000000000000000000000000     00000000                                                                                                                        000000000000000000
F0010000006283000003000090055180500042505000000000000000000201409170002001LAMINAS Y SUELAS DE COLOMBIA S.A.S                C000000000100000000000000000000000100010010000000000000000000000F0010000006283000320140917000101 00000000000000000000000000000000000000000000000000000000000000000000000000000000000000000000000000000000000000000N 00000000000NCONT   00    00000000000          00000000000000000000000000000000000000000000 000000000000000A000000000000000000000000000000000000000000000 000000000000000000000000000000000000000     00000000                                                                                                                        000000000000000000
F0010000006283000004000090055180500023658300000000000000000201409170002001LAMINAS Y SUELAS DE COLOMBIA S.A.S                C000000000019600000000000000000000100010010000000000000000000000F0010000006283000420140917000101 00000000000000000000000000000000000000000000000000000000000000000000000000000000000000000000000000000000000000000N 00000000000NCONT   00    00000000000          00000000000000000000000000000000000000000000 000000000000000A000000000000000000000000000000000000000000000 000000000000000000000000000000000000000     00000000                                                                                                                        000000000000000000
F0010000006283000005000090055180500013552100000000000000000201409170002001LAMINAS Y SUELAS DE COLOMBIA S.A.S                D000000000019600000000000000000000100010010000000000000000000000F0010000006283000520140917000101 00000000000000000000000000000000000000000000000000000000000000000000000000000000000000000000000000000000000000000N 00000000000NCONT   00    00000000000          00000000000000000000000000000000000000000000 000000000000000A000000000000000000000000000000000000000000000 000000000000000000000000000000000000000     00000000                                                                                                                        000000000000000000
F0010000006283100001000002245670100011050500000000000000000201409170002001YOLANDA  TOBON                                    D000000003830000000000000000000000100010010000000000000000000000F0010000006283100120140917000101 00000000000000000000000000000000000000000000000000000000000000000000000000000000000000000000000000000000000000000N 00000000000NCONT   00    00000000000          00000000000000000000000000000000000000000000 000000000000000A000000000000000000000000000000000000000000000 000000000000000000000000000000000000000     00000000                                                                                                                        000000000000000000
F0010000006283100002000002245670100041450500000000000000000201409170002001YOLANDA  TOBON                                    C000000003500000000000000000000000100010010000000000000000000000F0010000006283100220140917000101 00000000000000000000000000000000000000000000000000000000000000000000000000000000000000000000000000000000000000000N 00000000000NCONT   00    00000000000          00000000000000000000000000000000000000000000 000000000000000A000000000000000000000000000000000000000000000 000000000000000000000000000000000000000     00000000                                                                                                                        000000000000000000
F0010000006283100003000002245670100042505000000000000000000201409170002001YOLANDA  TOBON                                    C000000000330000000000000000000000100010010000000000000000000000F0010000006283100320140917000101 00000000000000000000000000000000000000000000000000000000000000000000000000000000000000000000000000000000000000000N 00000000000NCONT   00    00000000000          00000000000000000000000000000000000000000000 000000000000000A000000000000000000000000000000000000000000000 000000000000000000000000000000000000000     00000000                                                                                                                        000000000000000000
F0010000006283100004000002245670100023658300000000000000000201409170002001YOLANDA  TOBON                                    C000000000028000000000000000000000100010010000000000000000000000F0010000006283100420140917000101 00000000000000000000000000000000000000000000000000000000000000000000000000000000000000000000000000000000000000000N 00000000000NCONT   00    00000000000          00000000000000000000000000000000000000000000 000000000000000A000000000000000000000000000000000000000000000 000000000000000000000000000000000000000     00000000                                                                                                                        000000000000000000
F0010000006283100005000002245670100013552100000000000000000201409170002001YOLANDA  TOBON                                    D000000000028000000000000000000000100010010000000000000000000000F0010000006283100520140917000101 00000000000000000000000000000000000000000000000000000000000000000000000000000000000000000000000000000000000000000N 00000000000NCONT   00    00000000000          00000000000000000000000000000000000000000000 000000000000000A000000000000000000000000000000000000000000000 000000000000000000000000000000000000000     00000000                                                                                                                        000000000000000000
F0010000006283200001000002245670100011050500000000000000000201409170002001YOLANDA  TOBON                                    D000000002870000000000000000000000100010010000000000000000000000F0010000006283200120140917000101 00000000000000000000000000000000000000000000000000000000000000000000000000000000000000000000000000000000000000000N 00000000000NCONT   00    00000000000          00000000000000000000000000000000000000000000 000000000000000A000000000000000000000000000000000000000000000 000000000000000000000000000000000000000     00000000                                                                                                                        000000000000000000
F0010000006283200002000002245670100041450500000000000000000201409170002001YOLANDA  TOBON                                    C000000002500000000000000000000000100010010000000000000000000000F0010000006283200220140917000101 00000000000000000000000000000000000000000000000000000000000000000000000000000000000000000000000000000000000000000N 00000000000NCONT   00    00000000000          00000000000000000000000000000000000000000000 000000000000000A000000000000000000000000000000000000000000000 000000000000000000000000000000000000000     00000000                                                                                                                        000000000000000000
F0010000006283200003000002245670100042505000000000000000000201409170002001YOLANDA  TOBON                                    C000000000370000000000000000000000100010010000000000000000000000F0010000006283200320140917000101 00000000000000000000000000000000000000000000000000000000000000000000000000000000000000000000000000000000000000000N 00000000000NCONT   00    00000000000          00000000000000000000000000000000000000000000 000000000000000A000000000000000000000000000000000000000000000 000000000000000000000000000000000000000     00000000                                                                                                                        000000000000000000
F0010000006283200004000002245670100023658300000000000000000201409170002001YOLANDA  TOBON                                    C000000000020000000000000000000000100010010000000000000000000000F0010000006283200420140917000101 00000000000000000000000000000000000000000000000000000000000000000000000000000000000000000000000000000000000000000N 00000000000NCONT   00    00000000000          00000000000000000000000000000000000000000000 000000000000000A000000000000000000000000000000000000000000000 000000000000000000000000000000000000000     00000000                                                                                                                        000000000000000000
F0010000006283200005000002245670100013552100000000000000000201409170002001YOLANDA  TOBON                                    D000000000020000000000000000000000100010010000000000000000000000F0010000006283200520140917000101 00000000000000000000000000000000000000000000000000000000000000000000000000000000000000000000000000000000000000000N 00000000000NCONT   00    00000000000          00000000000000000000000000000000000000000000 000000000000000A000000000000000000000000000000000000000000000 000000000000000000000000000000000000000     00000000                                                                                                                        000000000000000000
F0010000006283300001000002245670100011050500000000000000000201409170002001YOLANDA  TOBON                                    D000000002500000000000000000000000100010010000000000000000000000F0010000006283300120140917000101 00000000000000000000000000000000000000000000000000000000000000000000000000000000000000000000000000000000000000000N 00000000000NCONT   00    00000000000          00000000000000000000000000000000000000000000 000000000000000A000000000000000000000000000000000000000000000 000000000000000000000000000000000000000     00000000                                                                                                                        000000000000000000
F0010000006283300002000002245670100041450500000000000000000201409170002001YOLANDA  TOBON                                    C000000002100000000000000000000000100010010000000000000000000000F0010000006283300220140917000101 00000000000000000000000000000000000000000000000000000000000000000000000000000000000000000000000000000000000000000N 00000000000NCONT   00    00000000000          00000000000000000000000000000000000000000000 000000000000000A000000000000000000000000000000000000000000000 000000000000000000000000000000000000000     00000000                                                                                                                        000000000000000000
F0010000006283300003000002245670100042505000000000000000000201409170002001YOLANDA  TOBON                                    C000000000400000000000000000000000100010010000000000000000000000F0010000006283300320140917000101 00000000000000000000000000000000000000000000000000000000000000000000000000000000000000000000000000000000000000000N 00000000000NCONT   00    00000000000          00000000000000000000000000000000000000000000 000000000000000A000000000000000000000000000000000000000000000 000000000000000000000000000000000000000     00000000                                                                                                                        000000000000000000
F0010000006283300004000002245670100023658300000000000000000201409170002001YOLANDA  TOBON                                    C000000000016800000000000000000000100010010000000000000000000000F0010000006283300420140917000101 00000000000000000000000000000000000000000000000000000000000000000000000000000000000000000000000000000000000000000N 00000000000NCONT   00    00000000000          00000000000000000000000000000000000000000000 000000000000000A000000000000000000000000000000000000000000000 000000000000000000000000000000000000000     00000000                                                                                                                        000000000000000000
F0010000006283300005000002245670100013552100000000000000000201409170002001YOLANDA  TOBON                                    D000000000016800000000000000000000100010010000000000000000000000F0010000006283300520140917000101 00000000000000000000000000000000000000000000000000000000000000000000000000000000000000000000000000000000000000000N 00000000000NCONT   00    00000000000          00000000000000000000000000000000000000000000 000000000000000A000000000000000000000000000000000000000000000 000000000000000000000000000000000000000     00000000                                                                                                                        000000000000000000
F0010000006283400001000090036991700011050500000000000000000201409170002001DELTA INTERNACIONAL  S.A.S                        D000000001400000000000000000000000100010010000000000000000000000F0010000006283400120140917000101 00000000000000000000000000000000000000000000000000000000000000000000000000000000000000000000000000000000000000000N 00000000000NCONT   00    00000000000          00000000000000000000000000000000000000000000 000000000000000A000000000000000000000000000000000000000000000 000000000000000000000000000000000000000     00000000                                                                                                                        000000000000000000
F0010000006283400002000090036991700041450500000000000000000201409170002001DELTA INTERNACIONAL  S.A.S                        C000000001200000000000000000000000100010010000000000000000000000F0010000006283400220140917000101 00000000000000000000000000000000000000000000000000000000000000000000000000000000000000000000000000000000000000000N 00000000000NCONT   00    00000000000          00000000000000000000000000000000000000000000 000000000000000A000000000000000000000000000000000000000000000 000000000000000000000000000000000000000     00000000                                                                                                                        000000000000000000
F0010000006283400003000090036991700042505000000000000000000201409170002001DELTA INTERNACIONAL  S.A.S                        C000000000200000000000000000000000100010010000000000000000000000F0010000006283400320140917000101 00000000000000000000000000000000000000000000000000000000000000000000000000000000000000000000000000000000000000000N 00000000000NCONT   00    00000000000          00000000000000000000000000000000000000000000 000000000000000A000000000000000000000000000000000000000000000 000000000000000000000000000000000000000     00000000                                                                                                                        000000000000000000
F0010000006283400004000090036991700023658300000000000000000201409170002001DELTA INTERNACIONAL  S.A.S                        C000000000009600000000000000000000100010010000000000000000000000F0010000006283400420140917000101 00000000000000000000000000000000000000000000000000000000000000000000000000000000000000000000000000000000000000000N 00000000000NCONT   00    00000000000          00000000000000000000000000000000000000000000 000000000000000A000000000000000000000000000000000000000000000 000000000000000000000000000000000000000     00000000                                                                                                                        000000000000000000
F0010000006283400005000090036991700013552100000000000000000201409170002001DELTA INTERNACIONAL  S.A.S                        D000000000009600000000000000000000100010010000000000000000000000F0010000006283400520140917000101 00000000000000000000000000000000000000000000000000000000000000000000000000000000000000000000000000000000000000000N 00000000000NCONT   00    00000000000          00000000000000000000000000000000000000000000 000000000000000A000000000000000000000000000000000000000000000 000000000000000000000000000000000000000     00000000                                                                                                                        000000000000000000
F0010000006283500001000090036991700011050500000000000000000201409170002001DELTA INTERNACIONAL  S.A.S                        D000000006990000000000000000000000100010010000000000000000000000F0010000006283500120140917000101 00000000000000000000000000000000000000000000000000000000000000000000000000000000000000000000000000000000000000000N 00000000000NCONT   00    00000000000          00000000000000000000000000000000000000000000 000000000000000A000000000000000000000000000000000000000000000 000000000000000000000000000000000000000     00000000                                                                                                                        000000000000000000
F0010000006283500002000090036991700041450500000000000000000201409170002001DELTA INTERNACIONAL  S.A.S                        C000000006390000000000000000000000100010010000000000000000000000F0010000006283500220140917000101 00000000000000000000000000000000000000000000000000000000000000000000000000000000000000000000000000000000000000000N 00000000000NCONT   00    00000000000          00000000000000000000000000000000000000000000 000000000000000A000000000000000000000000000000000000000000000 000000000000000000000000000000000000000     00000000                                                                                                                        000000000000000000
F0010000006283500003000090036991700042505000000000000000000201409170002001DELTA INTERNACIONAL  S.A.S                        C000000000600000000000000000000000100010010000000000000000000000F0010000006283500320140917000101 00000000000000000000000000000000000000000000000000000000000000000000000000000000000000000000000000000000000000000N 00000000000NCONT   00    00000000000          00000000000000000000000000000000000000000000 000000000000000A000000000000000000000000000000000000000000000 000000000000000000000000000000000000000     00000000                                                                                                                        000000000000000000
F0010000006283500004000090036991700023658300000000000000000201409170002001DELTA INTERNACIONAL  S.A.S                        C000000000051100000000000000000000100010010000000000000000000000F0010000006283500420140917000101 00000000000000000000000000000000000000000000000000000000000000000000000000000000000000000000000000000000000000000N 00000000000NCONT   00    00000000000          00000000000000000000000000000000000000000000 000000000000000A000000000000000000000000000000000000000000000 000000000000000000000000000000000000000     00000000                                                                                                                        000000000000000000
F0010000006283500005000090036991700013552100000000000000000201409170002001DELTA INTERNACIONAL  S.A.S                        D000000000051100000000000000000000100010010000000000000000000000F0010000006283500520140917000101 00000000000000000000000000000000000000000000000000000000000000000000000000000000000000000000000000000000000000000N 00000000000NCONT   00    00000000000          00000000000000000000000000000000000000000000 000000000000000A000000000000000000000000000000000000000000000 000000000000000000000000000000000000000     00000000                                                                                                                        000000000000000000
F0010000006283600001000090020547900011050500000000000000000201409170002001DAC DEL CARIBE S.A.S.                             D000000001400000000000000000000000100010010000000000000000000000F0010000006283600120140917000101 00000000000000000000000000000000000000000000000000000000000000000000000000000000000000000000000000000000000000000N 00000000000NCONT   00    00000000000          00000000000000000000000000000000000000000000 000000000000000A000000000000000000000000000000000000000000000 000000000000000000000000000000000000000     00000000                                                                                                                        000000000000000000
F0010000006283600002000090020547900041450500000000000000000201409170002001DAC DEL CARIBE S.A.S.                             C000000001300000000000000000000000100010010000000000000000000000F0010000006283600220140917000101 00000000000000000000000000000000000000000000000000000000000000000000000000000000000000000000000000000000000000000N 00000000000NCONT   00    00000000000          00000000000000000000000000000000000000000000 000000000000000A000000000000000000000000000000000000000000000 000000000000000000000000000000000000000     00000000                                                                                                                        000000000000000000
F0010000006283600003000090020547900042505000000000000000000201409170002001DAC DEL CARIBE S.A.S.                             C000000000100000000000000000000000100010010000000000000000000000F0010000006283600320140917000101 00000000000000000000000000000000000000000000000000000000000000000000000000000000000000000000000000000000000000000N 00000000000NCONT   00    00000000000          00000000000000000000000000000000000000000000 000000000000000A000000000000000000000000000000000000000000000 000000000000000000000000000000000000000     00000000                                                                                                                        000000000000000000
F0010000006283600004000090020547900023658300000000000000000201409170002001DAC DEL CARIBE S.A.S.                             C000000000010400000000000000000000100010010000000000000000000000F0010000006283600420140917000101 00000000000000000000000000000000000000000000000000000000000000000000000000000000000000000000000000000000000000000N 00000000000NCONT   00    00000000000          00000000000000000000000000000000000000000000 000000000000000A000000000000000000000000000000000000000000000 000000000000000000000000000000000000000     00000000                                                                                                                        000000000000000000
F0010000006283600005000090020547900013552100000000000000000201409170002001DAC DEL CARIBE S.A.S.                             D000000000010400000000000000000000100010010000000000000000000000F0010000006283600520140917000101 00000000000000000000000000000000000000000000000000000000000000000000000000000000000000000000000000000000000000000N 00000000000NCONT   00    00000000000          00000000000000000000000000000000000000000000 000000000000000A000000000000000000000000000000000000000000000 000000000000000000000000000000000000000     00000000                                                                                                                        000000000000000000
F0010000006283700001000090020547900011050500000000000000000201409170002001DAC DEL CARIBE S.A.S.                             D000000003150000000000000000000000100010010000000000000000000000F0010000006283700120140917000101 00000000000000000000000000000000000000000000000000000000000000000000000000000000000000000000000000000000000000000N 00000000000NCONT   00    00000000000          00000000000000000000000000000000000000000000 000000000000000A000000000000000000000000000000000000000000000 000000000000000000000000000000000000000     00000000                                                                                                                        000000000000000000
F0010000006283700002000090020547900041450500000000000000000201409170002001DAC DEL CARIBE S.A.S.                             C000000002600000000000000000000000100010010000000000000000000000F0010000006283700220140917000101 00000000000000000000000000000000000000000000000000000000000000000000000000000000000000000000000000000000000000000N 00000000000NCONT   00    00000000000          00000000000000000000000000000000000000000000 000000000000000A000000000000000000000000000000000000000000000 000000000000000000000000000000000000000     00000000                                                                                                                        000000000000000000
