F0010000007390300001000002245670100013050500000000000000000201507240002001YOLANDA  TOBON                                    D000000045658000000000000000000000100010010000000000000000000000F0010000007390300120150724000101 00000000000000000000000000000000000000000000000000000000000000000000000000000000000000000000000000000000000000000N 00000000000NCONT   00    00000000000          00000000000000000000000000000000000000000000 000000000000000A000000000000000000000000000000000000000000000 000000000000000000000000000000000000000     00000000                                                                                                                        000000000000000000
F0010000007390300002000002245670100041450500000000000000000201507240002001YOLANDA  TOBON                                    C000000038800000000000000000000000100010010000000000000000000000F0010000007390300220150724000101 00000000000000000000000000000000000000000000000000000000000000000000000000000000000000000000000000000000000000000N 00000000000NCONT   00    00000000000          00000000000000000000000000000000000000000000 000000000000000A000000000000000000000000000000000000000000000 000000000000000000000000000000000000000     00000000                                                                                                                        000000000000000000
F0010000007390300003000002245670100042505000000000000000000201507240002001YOLANDA  TOBON                                    C000000006858000000000000000000000100010010000000000000000000000F0010000007390300320150724000101 00000000000000000000000000000000000000000000000000000000000000000000000000000000000000000000000000000000000000000N 00000000000NCONT   00    00000000000          00000000000000000000000000000000000000000000 000000000000000A000000000000000000000000000000000000000000000 000000000000000000000000000000000000000     00000000                                                                                                                        000000000000000000
F0010000007390300004000002245670100023658300000000000000000201507240002001YOLANDA  TOBON                                    C000000000310400000000000000000000100010010000000000000000000000F0010000007390300420150724000101 00000000000000000000000000000000000000000000000000000000000000000000000000000000000000000000000000000000000000000N 00000000000NCONT   00    00000000000          00000000000000000000000000000000000000000000 000000000000000A000000000000000000000000000000000000000000000 000000000000000000000000000000000000000     00000000                                                                                                                        000000000000000000
F0010000007390300005000002245670100013552100000000000000000201507240002001YOLANDA  TOBON                                    D000000000310400000000000000000000100010010000000000000000000000F0010000007390300520150724000101 00000000000000000000000000000000000000000000000000000000000000000000000000000000000000000000000000000000000000000N 00000000000NCONT   00    00000000000          00000000000000000000000000000000000000000000 000000000000000A000000000000000000000000000000000000000000000 000000000000000000000000000000000000000     00000000                                                                                                                        000000000000000000
F0010000007390400001000089010526900013050500000000000000000201507240002001DISTRIBUCIONES CANAL Y CIA S.A.S                  D000000019048700000000000000000000100010010000000000000000000000F0010000007390400120150724000101 00000000000000000000000000000000000000000000000000000000000000000000000000000000000000000000000000000000000000000N 00000000000NCONT   00    00000000000          00000000000000000000000000000000000000000000 000000000000000A000000000000000000000000000000000000000000000 000000000000000000000000000000000000000     00000000                                                                                                                        000000000000000000
F0010000007390400002000089010526900041450500000000000000000201507240002001DISTRIBUCIONES CANAL Y CIA S.A.S                  C000000013040000000000000000000000100010010000000000000000000000F0010000007390400220150724000101 00000000000000000000000000000000000000000000000000000000000000000000000000000000000000000000000000000000000000000N 00000000000NCONT   00    00000000000          00000000000000000000000000000000000000000000 000000000000000A000000000000000000000000000000000000000000000 000000000000000000000000000000000000000     00000000                                                                                                                        000000000000000000
F0010000007390400003000089010526900042505000000000000000000201507240002001DISTRIBUCIONES CANAL Y CIA S.A.S                  C000000006008700000000000000000000100010010000000000000000000000F0010000007390400320150724000101 00000000000000000000000000000000000000000000000000000000000000000000000000000000000000000000000000000000000000000N 00000000000NCONT   00    00000000000          00000000000000000000000000000000000000000000 000000000000000A000000000000000000000000000000000000000000000 000000000000000000000000000000000000000     00000000                                                                                                                        000000000000000000
F0010000007390400004000089010526900023658300000000000000000201507240002001DISTRIBUCIONES CANAL Y CIA S.A.S                  C000000000104300000000000000000000100010010000000000000000000000F0010000007390400420150724000101 00000000000000000000000000000000000000000000000000000000000000000000000000000000000000000000000000000000000000000N 00000000000NCONT   00    00000000000          00000000000000000000000000000000000000000000 000000000000000A000000000000000000000000000000000000000000000 000000000000000000000000000000000000000     00000000                                                                                                                        000000000000000000
F0010000007390400005000089010526900013552100000000000000000201507240002001DISTRIBUCIONES CANAL Y CIA S.A.S                  D000000000104300000000000000000000100010010000000000000000000000F0010000007390400520150724000101 00000000000000000000000000000000000000000000000000000000000000000000000000000000000000000000000000000000000000000N 00000000000NCONT   00    00000000000          00000000000000000000000000000000000000000000 000000000000000A000000000000000000000000000000000000000000000 000000000000000000000000000000000000000     00000000                                                                                                                        000000000000000000
F0010000007390500001000080016664500013050500000000000000000201507240002001TELAPLAS PANCER SAS                               D000000040612000000000000000000000100010010000000000000000000000F0010000007390500120150724000101 00000000000000000000000000000000000000000000000000000000000000000000000000000000000000000000000000000000000000000N 00000000000NCONT   00    00000000000          00000000000000000000000000000000000000000000 000000000000000A000000000000000000000000000000000000000000000 000000000000000000000000000000000000000     00000000                                                                                                                        000000000000000000
F0010000007390500002000080016664500041450500000000000000000201507240002001TELAPLAS PANCER SAS                               C000000033710000000000000000000000100010010000000000000000000000F0010000007390500220150724000101 00000000000000000000000000000000000000000000000000000000000000000000000000000000000000000000000000000000000000000N 00000000000NCONT   00    00000000000          00000000000000000000000000000000000000000000 000000000000000A000000000000000000000000000000000000000000000 000000000000000000000000000000000000000     00000000                                                                                                                        000000000000000000
F0010000007390500003000080016664500042505000000000000000000201507240002001TELAPLAS PANCER SAS                               C000000006902000000000000000000000100010010000000000000000000000F0010000007390500320150724000101 00000000000000000000000000000000000000000000000000000000000000000000000000000000000000000000000000000000000000000N 00000000000NCONT   00    00000000000          00000000000000000000000000000000000000000000 000000000000000A000000000000000000000000000000000000000000000 000000000000000000000000000000000000000     00000000                                                                                                                        000000000000000000
F0010000007390500004000080016664500023658300000000000000000201507240002001TELAPLAS PANCER SAS                               C000000000269700000000000000000000100010010000000000000000000000F0010000007390500420150724000101 00000000000000000000000000000000000000000000000000000000000000000000000000000000000000000000000000000000000000000N 00000000000NCONT   00    00000000000          00000000000000000000000000000000000000000000 000000000000000A000000000000000000000000000000000000000000000 000000000000000000000000000000000000000     00000000                                                                                                                        000000000000000000
F0010000007390500005000080016664500013552100000000000000000201507240002001TELAPLAS PANCER SAS                               D000000000269700000000000000000000100010010000000000000000000000F0010000007390500520150724000101 00000000000000000000000000000000000000000000000000000000000000000000000000000000000000000000000000000000000000000N 00000000000NCONT   00    00000000000          00000000000000000000000000000000000000000000 000000000000000A000000000000000000000000000000000000000000000 000000000000000000000000000000000000000     00000000                                                                                                                        000000000000000000
F0010000007390600001000080004943800013050500000000000000000201507240002001PAPELERIA EL CID S.A.                             D000000041517500000000000000000000100010010000000000000000000000F0010000007390600120150724000101 00000000000000000000000000000000000000000000000000000000000000000000000000000000000000000000000000000000000000000N 00000000000NCONT   00    00000000000          00000000000000000000000000000000000000000000 000000000000000A000000000000000000000000000000000000000000000 000000000000000000000000000000000000000     00000000                                                                                                                        000000000000000000
F0010000007390600002000080004943800041450500000000000000000201507240002001PAPELERIA EL CID S.A.                             C000000034000000000000000000000000100010010000000000000000000000F0010000007390600220150724000101 00000000000000000000000000000000000000000000000000000000000000000000000000000000000000000000000000000000000000000N 00000000000NCONT   00    00000000000          00000000000000000000000000000000000000000000 000000000000000A000000000000000000000000000000000000000000000 000000000000000000000000000000000000000     00000000                                                                                                                        000000000000000000
F0010000007390600003000080004943800042505000000000000000000201507240002001PAPELERIA EL CID S.A.                             C000000007517500000000000000000000100010010000000000000000000000F0010000007390600320150724000101 00000000000000000000000000000000000000000000000000000000000000000000000000000000000000000000000000000000000000000N 00000000000NCONT   00    00000000000          00000000000000000000000000000000000000000000 000000000000000A000000000000000000000000000000000000000000000 000000000000000000000000000000000000000     00000000                                                                                                                        000000000000000000
F0010000007390600004000080004943800023658300000000000000000201507240002001PAPELERIA EL CID S.A.                             C000000000272000000000000000000000100010010000000000000000000000F0010000007390600420150724000101 00000000000000000000000000000000000000000000000000000000000000000000000000000000000000000000000000000000000000000N 00000000000NCONT   00    00000000000          00000000000000000000000000000000000000000000 000000000000000A000000000000000000000000000000000000000000000 000000000000000000000000000000000000000     00000000                                                                                                                        000000000000000000
F0010000007390600005000080004943800013552100000000000000000201507240002001PAPELERIA EL CID S.A.                             D000000000272000000000000000000000100010010000000000000000000000F0010000007390600520150724000101 00000000000000000000000000000000000000000000000000000000000000000000000000000000000000000000000000000000000000000N 00000000000NCONT   00    00000000000          00000000000000000000000000000000000000000000 000000000000000A000000000000000000000000000000000000000000000 000000000000000000000000000000000000000     00000000                                                                                                                        000000000000000000
F0010000007390700001000080201112800013050500000000000000000201507240002001CANGURO INTERNATIONAL S.A.                        D000000108002300000000000000000000100010010000000000000000000000F0010000007390700120150724000101 00000000000000000000000000000000000000000000000000000000000000000000000000000000000000000000000000000000000000000N 00000000000NCONT   00    00000000000          00000000000000000000000000000000000000000000 000000000000000A000000000000000000000000000000000000000000000 000000000000000000000000000000000000000     00000000                                                                                                                        000000000000000000
F0010000007390700002000080201112800041450500000000000000000201507240002001CANGURO INTERNATIONAL S.A.                        C000000108002300000000000000000000100010010000000000000000000000F0010000007390700220150724000101 00000000000000000000000000000000000000000000000000000000000000000000000000000000000000000000000000000000000000000N 00000000000NCONT   00    00000000000          00000000000000000000000000000000000000000000 000000000000000A000000000000000000000000000000000000000000000 000000000000000000000000000000000000000     00000000                                                                                                                        000000000000000000
F0010000007390700003000080201112800042505000000000000000000201507240002001CANGURO INTERNATIONAL S.A.                        C000000000000000000000000000000000100010010000000000000000000000F0010000007390700320150724000101 00000000000000000000000000000000000000000000000000000000000000000000000000000000000000000000000000000000000000000N 00000000000NCONT   00    00000000000          00000000000000000000000000000000000000000000 000000000000000A000000000000000000000000000000000000000000000 000000000000000000000000000000000000000     00000000                                                                                                                        000000000000000000
F0010000007390700004000080201112800023658300000000000000000201507240002001CANGURO INTERNATIONAL S.A.                        C000000000864000000000000000000000100010010000000000000000000000F0010000007390700420150724000101 00000000000000000000000000000000000000000000000000000000000000000000000000000000000000000000000000000000000000000N 00000000000NCONT   00    00000000000          00000000000000000000000000000000000000000000 000000000000000A000000000000000000000000000000000000000000000 000000000000000000000000000000000000000     00000000                                                                                                                        000000000000000000
F0010000007390700005000080201112800013552100000000000000000201507240002001CANGURO INTERNATIONAL S.A.                        D000000000864000000000000000000000100010010000000000000000000000F0010000007390700520150724000101 00000000000000000000000000000000000000000000000000000000000000000000000000000000000000000000000000000000000000000N 00000000000NCONT   00    00000000000          00000000000000000000000000000000000000000000 000000000000000A000000000000000000000000000000000000000000000 000000000000000000000000000000000000000     00000000                                                                                                                        000000000000000000
F0010000007390800001000080201112800013050500000000000000000201507240002001CANGURO INTERNATIONAL S.A.                        D000000060395300000000000000000000100010010000000000000000000000F0010000007390800120150724000101 00000000000000000000000000000000000000000000000000000000000000000000000000000000000000000000000000000000000000000N 00000000000NCONT   00    00000000000          00000000000000000000000000000000000000000000 000000000000000A000000000000000000000000000000000000000000000 000000000000000000000000000000000000000     00000000                                                                                                                        000000000000000000
F0010000007390800002000080201112800041450500000000000000000201507240002001CANGURO INTERNATIONAL S.A.                        C000000057736300000000000000000000100010010000000000000000000000F0010000007390800220150724000101 00000000000000000000000000000000000000000000000000000000000000000000000000000000000000000000000000000000000000000N 00000000000NCONT   00    00000000000          00000000000000000000000000000000000000000000 000000000000000A000000000000000000000000000000000000000000000 000000000000000000000000000000000000000     00000000                                                                                                                        000000000000000000
F0010000007390800003000080201112800042505000000000000000000201507240002001CANGURO INTERNATIONAL S.A.                        C000000002659000000000000000000000100010010000000000000000000000F0010000007390800320150724000101 00000000000000000000000000000000000000000000000000000000000000000000000000000000000000000000000000000000000000000N 00000000000NCONT   00    00000000000          00000000000000000000000000000000000000000000 000000000000000A000000000000000000000000000000000000000000000 000000000000000000000000000000000000000     00000000                                                                                                                        000000000000000000
F0010000007390800004000080201112800023658300000000000000000201507240002001CANGURO INTERNATIONAL S.A.                        C000000000461900000000000000000000100010010000000000000000000000F0010000007390800420150724000101 00000000000000000000000000000000000000000000000000000000000000000000000000000000000000000000000000000000000000000N 00000000000NCONT   00    00000000000          00000000000000000000000000000000000000000000 000000000000000A000000000000000000000000000000000000000000000 000000000000000000000000000000000000000     00000000                                                                                                                        000000000000000000
F0010000007390800005000080201112800013552100000000000000000201507240002001CANGURO INTERNATIONAL S.A.                        D000000000461900000000000000000000100010010000000000000000000000F0010000007390800520150724000101 00000000000000000000000000000000000000000000000000000000000000000000000000000000000000000000000000000000000000000N 00000000000NCONT   00    00000000000          00000000000000000000000000000000000000000000 000000000000000A000000000000000000000000000000000000000000000 000000000000000000000000000000000000000     00000000                                                                                                                        000000000000000000
F0010000007390900001000089031248700013050500000000000000000201507240002001DISTRIBUIDORA CALIPLASTICOS LTDA                  D000000034511200000000000000000000100010010000000000000000000000F0010000007390900120150724000101 00000000000000000000000000000000000000000000000000000000000000000000000000000000000000000000000000000000000000000N 00000000000NCONT   00    00000000000          00000000000000000000000000000000000000000000 000000000000000A000000000000000000000000000000000000000000000 000000000000000000000000000000000000000     00000000                                                                                                                        000000000000000000
F0010000007390900002000089031248700041450500000000000000000201507240002001DISTRIBUIDORA CALIPLASTICOS LTDA                  C000000032861200000000000000000000100010010000000000000000000000F0010000007390900220150724000101 00000000000000000000000000000000000000000000000000000000000000000000000000000000000000000000000000000000000000000N 00000000000NCONT   00    00000000000          00000000000000000000000000000000000000000000 000000000000000A000000000000000000000000000000000000000000000 000000000000000000000000000000000000000     00000000                                                                                                                        000000000000000000
F0010000007390900003000089031248700042505000000000000000000201507240002001DISTRIBUIDORA CALIPLASTICOS LTDA                  C000000001650000000000000000000000100010010000000000000000000000F0010000007390900320150724000101 00000000000000000000000000000000000000000000000000000000000000000000000000000000000000000000000000000000000000000N 00000000000NCONT   00    00000000000          00000000000000000000000000000000000000000000 000000000000000A000000000000000000000000000000000000000000000 000000000000000000000000000000000000000     00000000                                                                                                                        000000000000000000
F0010000007390900004000089031248700023658300000000000000000201507240002001DISTRIBUIDORA CALIPLASTICOS LTDA                  C000000000262900000000000000000000100010010000000000000000000000F0010000007390900420150724000101 00000000000000000000000000000000000000000000000000000000000000000000000000000000000000000000000000000000000000000N 00000000000NCONT   00    00000000000          00000000000000000000000000000000000000000000 000000000000000A000000000000000000000000000000000000000000000 000000000000000000000000000000000000000     00000000                                                                                                                        000000000000000000
F0010000007390900005000089031248700013552100000000000000000201507240002001DISTRIBUIDORA CALIPLASTICOS LTDA                  D000000000262900000000000000000000100010010000000000000000000000F0010000007390900520150724000101 00000000000000000000000000000000000000000000000000000000000000000000000000000000000000000000000000000000000000000N 00000000000NCONT   00    00000000000          00000000000000000000000000000000000000000000 000000000000000A000000000000000000000000000000000000000000000 000000000000000000000000000000000000000     00000000                                                                                                                        000000000000000000
F0010000007391000001000090007142100013050500000000000000000201507240002001TODO BELLEZA Y MAX S.A.S                          D000000024890000000000000000000000100010010000000000000000000000F0010000007391000120150724000101 00000000000000000000000000000000000000000000000000000000000000000000000000000000000000000000000000000000000000000N 00000000000NCONT   00    00000000000          00000000000000000000000000000000000000000000 000000000000000A000000000000000000000000000000000000000000000 000000000000000000000000000000000000000     00000000                                                                                                                        000000000000000000
F0010000007391000002000090007142100041450500000000000000000201507240002001TODO BELLEZA Y MAX S.A.S                          C000000024340000000000000000000000100010010000000000000000000000F0010000007391000220150724000101 00000000000000000000000000000000000000000000000000000000000000000000000000000000000000000000000000000000000000000N 00000000000NCONT   00    00000000000          00000000000000000000000000000000000000000000 000000000000000A000000000000000000000000000000000000000000000 000000000000000000000000000000000000000     00000000                                                                                                                        000000000000000000
F0010000007391000003000090007142100042505000000000000000000201507240002001TODO BELLEZA Y MAX S.A.S                          C000000000550000000000000000000000100010010000000000000000000000F0010000007391000320150724000101 00000000000000000000000000000000000000000000000000000000000000000000000000000000000000000000000000000000000000000N 00000000000NCONT   00    00000000000          00000000000000000000000000000000000000000000 000000000000000A000000000000000000000000000000000000000000000 000000000000000000000000000000000000000     00000000                                                                                                                        000000000000000000
F0010000007391000004000090007142100023658300000000000000000201507240002001TODO BELLEZA Y MAX S.A.S                          C000000000194700000000000000000000100010010000000000000000000000F0010000007391000420150724000101 00000000000000000000000000000000000000000000000000000000000000000000000000000000000000000000000000000000000000000N 00000000000NCONT   00    00000000000          00000000000000000000000000000000000000000000 000000000000000A000000000000000000000000000000000000000000000 000000000000000000000000000000000000000     00000000                                                                                                                        000000000000000000
F0010000007391000005000090007142100013552100000000000000000201507240002001TODO BELLEZA Y MAX S.A.S                          D000000000194700000000000000000000100010010000000000000000000000F0010000007391000520150724000101 00000000000000000000000000000000000000000000000000000000000000000000000000000000000000000000000000000000000000000N 00000000000NCONT   00    00000000000          00000000000000000000000000000000000000000000 000000000000000A000000000000000000000000000000000000000000000 000000000000000000000000000000000000000     00000000                                                                                                                        000000000000000000
F0010000007391100001000090020547900013050500000000000000000201507240002001COMERCIALIZADORA DAC DEL CARIBE S.A.S.            D000000009927800000000000000000000100010010000000000000000000000F0010000007391100120150724000101 00000000000000000000000000000000000000000000000000000000000000000000000000000000000000000000000000000000000000000N 00000000000NCONT   00    00000000000          00000000000000000000000000000000000000000000 000000000000000A000000000000000000000000000000000000000000000 000000000000000000000000000000000000000     00000000                                                                                                                        000000000000000000
F0010000007391100002000090020547900041450500000000000000000201507240002001COMERCIALIZADORA DAC DEL CARIBE S.A.S.            C000000006300000000000000000000000100010010000000000000000000000F0010000007391100220150724000101 00000000000000000000000000000000000000000000000000000000000000000000000000000000000000000000000000000000000000000N 00000000000NCONT   00    00000000000          00000000000000000000000000000000000000000000 000000000000000A000000000000000000000000000000000000000000000 000000000000000000000000000000000000000     00000000                                                                                                                        000000000000000000
F0010000007391100003000090020547900042505000000000000000000201507240002001COMERCIALIZADORA DAC DEL CARIBE S.A.S.            C000000003627800000000000000000000100010010000000000000000000000F0010000007391100320150724000101 00000000000000000000000000000000000000000000000000000000000000000000000000000000000000000000000000000000000000000N 00000000000NCONT   00    00000000000          00000000000000000000000000000000000000000000 000000000000000A000000000000000000000000000000000000000000000 000000000000000000000000000000000000000     00000000                                                                                                                        000000000000000000
F0010000007391100004000090020547900023658300000000000000000201507240002001COMERCIALIZADORA DAC DEL CARIBE S.A.S.            C000000000050400000000000000000000100010010000000000000000000000F0010000007391100420150724000101 00000000000000000000000000000000000000000000000000000000000000000000000000000000000000000000000000000000000000000N 00000000000NCONT   00    00000000000          00000000000000000000000000000000000000000000 000000000000000A000000000000000000000000000000000000000000000 000000000000000000000000000000000000000     00000000                                                                                                                        000000000000000000
F0010000007391100005000090020547900013552100000000000000000201507240002001COMERCIALIZADORA DAC DEL CARIBE S.A.S.            D000000000050400000000000000000000100010010000000000000000000000F0010000007391100520150724000101 00000000000000000000000000000000000000000000000000000000000000000000000000000000000000000000000000000000000000000N 00000000000NCONT   00    00000000000          00000000000000000000000000000000000000000000 000000000000000A000000000000000000000000000000000000000000000 000000000000000000000000000000000000000     00000000                                                                                                                        000000000000000000
F0010000007391200001000000870907300013050500000000000000000201507240002001SURTIDOR FERRETERO                                D000000077195000000000000000000000100010010000000000000000000000F0010000007391200120150724000101 00000000000000000000000000000000000000000000000000000000000000000000000000000000000000000000000000000000000000000N 00000000000NCONT   00    00000000000          00000000000000000000000000000000000000000000 000000000000000A000000000000000000000000000000000000000000000 000000000000000000000000000000000000000     00000000                                                                                                                        000000000000000000
F0010000007391200002000000870907300041450500000000000000000201507240002001SURTIDOR FERRETERO                                C000000058940000000000000000000000100010010000000000000000000000F0010000007391200220150724000101 00000000000000000000000000000000000000000000000000000000000000000000000000000000000000000000000000000000000000000N 00000000000NCONT   00    00000000000          00000000000000000000000000000000000000000000 000000000000000A000000000000000000000000000000000000000000000 000000000000000000000000000000000000000     00000000                                                                                                                        000000000000000000
F0010000007391200003000000870907300041750100000000000000000201507240002001SURTIDOR FERRETERO                                D000000005894000000000000000000000100010010000000000000000000000F0010000007391200320150724000101 00000000000000000000000000000000000000000000000000000000000000000000000000000000000000000000000000000000000000000N 00000000000NCONT   00    00000000000          00000000000000000000000000000000000000000000 000000000000000A000000000000000000000000000000000000000000000 000000000000000000000000000000000000000     00000000                                                                                                                        000000000000000000
F0010000007391200004000000870907300042505000000000000000000201507240002001SURTIDOR FERRETERO                                C000000024149000000000000000000000100010010000000000000000000000F0010000007391200420150724000101 00000000000000000000000000000000000000000000000000000000000000000000000000000000000000000000000000000000000000000N 00000000000NCONT   00    00000000000          00000000000000000000000000000000000000000000 000000000000000A000000000000000000000000000000000000000000000 000000000000000000000000000000000000000     00000000                                                                                                                        000000000000000000
F0010000007391200005000000870907300023658300000000000000000201507240002001SURTIDOR FERRETERO                                C000000000471500000000000000000000100010010000000000000000000000F0010000007391200520150724000101 00000000000000000000000000000000000000000000000000000000000000000000000000000000000000000000000000000000000000000N 00000000000NCONT   00    00000000000          00000000000000000000000000000000000000000000 000000000000000A000000000000000000000000000000000000000000000 000000000000000000000000000000000000000     00000000                                                                                                                        000000000000000000
F0010000007391200006000000870907300013552100000000000000000201507240002001SURTIDOR FERRETERO                                D000000000471500000000000000000000100010010000000000000000000000F0010000007391200620150724000101 00000000000000000000000000000000000000000000000000000000000000000000000000000000000000000000000000000000000000000N 00000000000NCONT   00    00000000000          00000000000000000000000000000000000000000000 000000000000000A000000000000000000000000000000000000000000000 000000000000000000000000000000000000000     00000000                                                                                                                        000000000000000000
F0010000007391300001000001719393900013050500000000000000000201507240002001JAIRO BASTIDAS RAMIREZ                            D000000014410000000000000000000000100010010000000000000000000000F0010000007391300120150724000101 00000000000000000000000000000000000000000000000000000000000000000000000000000000000000000000000000000000000000000N 00000000000NCONT   00    00000000000          00000000000000000000000000000000000000000000 000000000000000A000000000000000000000000000000000000000000000 000000000000000000000000000000000000000     00000000                                                                                                                        000000000000000000
F0010000007391300002000001719393900041450500000000000000000201507240002001JAIRO BASTIDAS RAMIREZ                            C000000012310000000000000000000000100010010000000000000000000000F0010000007391300220150724000101 00000000000000000000000000000000000000000000000000000000000000000000000000000000000000000000000000000000000000000N 00000000000NCONT   00    00000000000          00000000000000000000000000000000000000000000 000000000000000A000000000000000000000000000000000000000000000 000000000000000000000000000000000000000     00000000                                                                                                                        000000000000000000
F0010000007391300003000001719393900042505000000000000000000201507240002001JAIRO BASTIDAS RAMIREZ                            C000000002100000000000000000000000100010010000000000000000000000F0010000007391300320150724000101 00000000000000000000000000000000000000000000000000000000000000000000000000000000000000000000000000000000000000000N 00000000000NCONT   00    00000000000          00000000000000000000000000000000000000000000 000000000000000A000000000000000000000000000000000000000000000 000000000000000000000000000000000000000     00000000                                                                                                                        000000000000000000
F0010000007391300004000001719393900023658300000000000000000201507240002001JAIRO BASTIDAS RAMIREZ                            C000000000098500000000000000000000100010010000000000000000000000F0010000007391300420150724000101 00000000000000000000000000000000000000000000000000000000000000000000000000000000000000000000000000000000000000000N 00000000000NCONT   00    00000000000          00000000000000000000000000000000000000000000 000000000000000A000000000000000000000000000000000000000000000 000000000000000000000000000000000000000     00000000                                                                                                                        000000000000000000
F0010000007391300005000001719393900013552100000000000000000201507240002001JAIRO BASTIDAS RAMIREZ                            D000000000098500000000000000000000100010010000000000000000000000F0010000007391300520150724000101 00000000000000000000000000000000000000000000000000000000000000000000000000000000000000000000000000000000000000000N 00000000000NCONT   00    00000000000          00000000000000000000000000000000000000000000 000000000000000A000000000000000000000000000000000000000000000 000000000000000000000000000000000000000     00000000                                                                                                                        000000000000000000
F0010000007391400001000089010952800013050500000000000000000201507240002001IND. LITOGRAF. BOSTON S.A.S.                      D000000027030000000000000000000000100010010000000000000000000000F0010000007391400120150724000101 00000000000000000000000000000000000000000000000000000000000000000000000000000000000000000000000000000000000000000N 00000000000NCONT   00    00000000000          00000000000000000000000000000000000000000000 000000000000000A000000000000000000000000000000000000000000000 000000000000000000000000000000000000000     00000000                                                                                                                        000000000000000000
F0010000007391400002000089010952800041450500000000000000000201507240002001IND. LITOGRAF. BOSTON S.A.S.                      C000000022850000000000000000000000100010010000000000000000000000F0010000007391400220150724000101 00000000000000000000000000000000000000000000000000000000000000000000000000000000000000000000000000000000000000000N 00000000000NCONT   00    00000000000          00000000000000000000000000000000000000000000 000000000000000A000000000000000000000000000000000000000000000 000000000000000000000000000000000000000     00000000                                                                                                                        000000000000000000
F0010000007391400003000089010952800042505000000000000000000201507240002001IND. LITOGRAF. BOSTON S.A.S.                      C000000004180000000000000000000000100010010000000000000000000000F0010000007391400320150724000101 00000000000000000000000000000000000000000000000000000000000000000000000000000000000000000000000000000000000000000N 00000000000NCONT   00    00000000000          00000000000000000000000000000000000000000000 000000000000000A000000000000000000000000000000000000000000000 000000000000000000000000000000000000000     00000000                                                                                                                        000000000000000000
F0010000007391400004000089010952800023658300000000000000000201507240002001IND. LITOGRAF. BOSTON S.A.S.                      C000000000182800000000000000000000100010010000000000000000000000F0010000007391400420150724000101 00000000000000000000000000000000000000000000000000000000000000000000000000000000000000000000000000000000000000000N 00000000000NCONT   00    00000000000          00000000000000000000000000000000000000000000 000000000000000A000000000000000000000000000000000000000000000 000000000000000000000000000000000000000     00000000                                                                                                                        000000000000000000
F0010000007391400005000089010952800013552100000000000000000201507240002001IND. LITOGRAF. BOSTON S.A.S.                      D000000000182800000000000000000000100010010000000000000000000000F0010000007391400520150724000101 00000000000000000000000000000000000000000000000000000000000000000000000000000000000000000000000000000000000000000N 00000000000NCONT   00    00000000000          00000000000000000000000000000000000000000000 000000000000000A000000000000000000000000000000000000000000000 000000000000000000000000000000000000000     00000000                                                                                                                        000000000000000000
F0010000007391500001000090080946500013050500000000000000000201507240002001INVERSIONES AFAP SAS                              D000000011099200000000000000000000100010010000000000000000000000F0010000007391500120150724000101 00000000000000000000000000000000000000000000000000000000000000000000000000000000000000000000000000000000000000000N 00000000000NCONT   00    00000000000          00000000000000000000000000000000000000000000 000000000000000A000000000000000000000000000000000000000000000 000000000000000000000000000000000000000     00000000                                                                                                                        000000000000000000
F0010000007391500002000090080946500041450500000000000000000201507240002001INVERSIONES AFAP SAS                              C000000008870000000000000000000000100010010000000000000000000000F0010000007391500220150724000101 00000000000000000000000000000000000000000000000000000000000000000000000000000000000000000000000000000000000000000N 00000000000NCONT   00    00000000000          00000000000000000000000000000000000000000000 000000000000000A000000000000000000000000000000000000000000000 000000000000000000000000000000000000000     00000000                                                                                                                        000000000000000000
F0010000007391500003000090080946500042505000000000000000000201507240002001INVERSIONES AFAP SAS                              C000000002229200000000000000000000100010010000000000000000000000F0010000007391500320150724000101 00000000000000000000000000000000000000000000000000000000000000000000000000000000000000000000000000000000000000000N 00000000000NCONT   00    00000000000          00000000000000000000000000000000000000000000 000000000000000A000000000000000000000000000000000000000000000 000000000000000000000000000000000000000     00000000                                                                                                                        000000000000000000
F0010000007391500004000090080946500023658300000000000000000201507240002001INVERSIONES AFAP SAS                              C000000000071000000000000000000000100010010000000000000000000000F0010000007391500420150724000101 00000000000000000000000000000000000000000000000000000000000000000000000000000000000000000000000000000000000000000N 00000000000NCONT   00    00000000000          00000000000000000000000000000000000000000000 000000000000000A000000000000000000000000000000000000000000000 000000000000000000000000000000000000000     00000000                                                                                                                        000000000000000000
F0010000007391500005000090080946500013552100000000000000000201507240002001INVERSIONES AFAP SAS                              D000000000071000000000000000000000100010010000000000000000000000F0010000007391500520150724000101 00000000000000000000000000000000000000000000000000000000000000000000000000000000000000000000000000000000000000000N 00000000000NCONT   00    00000000000          00000000000000000000000000000000000000000000 000000000000000A000000000000000000000000000000000000000000000 000000000000000000000000000000000000000     00000000                                                                                                                        000000000000000000
F0010000007391600001000090019362000013050500000000000000000201507240002001GENERAL SUPPLIES CIA LTDA                         D000000015300000000000000000000000100010010000000000000000000000F0010000007391600120150724000101 00000000000000000000000000000000000000000000000000000000000000000000000000000000000000000000000000000000000000000N 00000000000NCONT   00    00000000000          00000000000000000000000000000000000000000000 000000000000000A000000000000000000000000000000000000000000000 000000000000000000000000000000000000000     00000000                                                                                                                        000000000000000000
F0010000007391600002000090019362000041450500000000000000000201507240002001GENERAL SUPPLIES CIA LTDA                         C000000011900000000000000000000000100010010000000000000000000000F0010000007391600220150724000101 00000000000000000000000000000000000000000000000000000000000000000000000000000000000000000000000000000000000000000N 00000000000NCONT   00    00000000000          00000000000000000000000000000000000000000000 000000000000000A000000000000000000000000000000000000000000000 000000000000000000000000000000000000000     00000000                                                                                                                        000000000000000000
F0010000007391600003000090019362000042505000000000000000000201507240002001GENERAL SUPPLIES CIA LTDA                         C000000003400000000000000000000000100010010000000000000000000000F0010000007391600320150724000101 00000000000000000000000000000000000000000000000000000000000000000000000000000000000000000000000000000000000000000N 00000000000NCONT   00    00000000000          00000000000000000000000000000000000000000000 000000000000000A000000000000000000000000000000000000000000000 000000000000000000000000000000000000000     00000000                                                                                                                        000000000000000000
F0010000007391600004000090019362000023658300000000000000000201507240002001GENERAL SUPPLIES CIA LTDA                         C000000000095200000000000000000000100010010000000000000000000000F0010000007391600420150724000101 00000000000000000000000000000000000000000000000000000000000000000000000000000000000000000000000000000000000000000N 00000000000NCONT   00    00000000000          00000000000000000000000000000000000000000000 000000000000000A000000000000000000000000000000000000000000000 000000000000000000000000000000000000000     00000000                                                                                                                        000000000000000000
F0010000007391600005000090019362000013552100000000000000000201507240002001GENERAL SUPPLIES CIA LTDA                         D000000000095200000000000000000000100010010000000000000000000000F0010000007391600520150724000101 00000000000000000000000000000000000000000000000000000000000000000000000000000000000000000000000000000000000000000N 00000000000NCONT   00    00000000000          00000000000000000000000000000000000000000000 000000000000000A000000000000000000000000000000000000000000000 000000000000000000000000000000000000000     00000000                                                                                                                        000000000000000000
F0010000007391700001000080202132300013050500000000000000000201507240002001SUM Y SERV DE LA COSTA LTDA                       D000000016820000000000000000000000100010010000000000000000000000F0010000007391700120150724000101 00000000000000000000000000000000000000000000000000000000000000000000000000000000000000000000000000000000000000000N 00000000000NCONT   00    00000000000          00000000000000000000000000000000000000000000 000000000000000A000000000000000000000000000000000000000000000 000000000000000000000000000000000000000     00000000                                                                                                                        000000000000000000
F0010000007391700002000080202132300041450500000000000000000201507240002001SUM Y SERV DE LA COSTA LTDA                       C000000015600000000000000000000000100010010000000000000000000000F0010000007391700220150724000101 00000000000000000000000000000000000000000000000000000000000000000000000000000000000000000000000000000000000000000N 00000000000NCONT   00    00000000000          00000000000000000000000000000000000000000000 000000000000000A000000000000000000000000000000000000000000000 000000000000000000000000000000000000000     00000000                                                                                                                        000000000000000000
F0010000007391700003000080202132300042505000000000000000000201507240002001SUM Y SERV DE LA COSTA LTDA                       C000000001220000000000000000000000100010010000000000000000000000F0010000007391700320150724000101 00000000000000000000000000000000000000000000000000000000000000000000000000000000000000000000000000000000000000000N 00000000000NCONT   00    00000000000          00000000000000000000000000000000000000000000 000000000000000A000000000000000000000000000000000000000000000 000000000000000000000000000000000000000     00000000                                                                                                                        000000000000000000
F0010000007391700004000080202132300023658300000000000000000201507240002001SUM Y SERV DE LA COSTA LTDA                       C000000000124800000000000000000000100010010000000000000000000000F0010000007391700420150724000101 00000000000000000000000000000000000000000000000000000000000000000000000000000000000000000000000000000000000000000N 00000000000NCONT   00    00000000000          00000000000000000000000000000000000000000000 000000000000000A000000000000000000000000000000000000000000000 000000000000000000000000000000000000000     00000000                                                                                                                        000000000000000000
F0010000007391700005000080202132300013552100000000000000000201507240002001SUM Y SERV DE LA COSTA LTDA                       D000000000124800000000000000000000100010010000000000000000000000F0010000007391700520150724000101 00000000000000000000000000000000000000000000000000000000000000000000000000000000000000000000000000000000000000000N 00000000000NCONT   00    00000000000          00000000000000000000000000000000000000000000 000000000000000A000000000000000000000000000000000000000000000 000000000000000000000000000000000000000     00000000                                                                                                                        000000000000000000
F0010000007391800001000090044920600013050500000000000000000201507240002001QUATRO CARIBE SAS                                 D000000015635000000000000000000000100010010000000000000000000000F0010000007391800120150724000101 00000000000000000000000000000000000000000000000000000000000000000000000000000000000000000000000000000000000000000N 00000000000NCONT   00    00000000000          00000000000000000000000000000000000000000000 000000000000000A000000000000000000000000000000000000000000000 000000000000000000000000000000000000000     00000000                                                                                                                        000000000000000000
F0010000007391800002000090044920600041450500000000000000000201507240002001QUATRO CARIBE SAS                                 C000000011360000000000000000000000100010010000000000000000000000F0010000007391800220150724000101 00000000000000000000000000000000000000000000000000000000000000000000000000000000000000000000000000000000000000000N 00000000000NCONT   00    00000000000          00000000000000000000000000000000000000000000 000000000000000A000000000000000000000000000000000000000000000 000000000000000000000000000000000000000     00000000                                                                                                                        000000000000000000
F0010000007391800003000090044920600042505000000000000000000201507240002001QUATRO CARIBE SAS                                 C000000004275000000000000000000000100010010000000000000000000000F0010000007391800320150724000101 00000000000000000000000000000000000000000000000000000000000000000000000000000000000000000000000000000000000000000N 00000000000NCONT   00    00000000000          00000000000000000000000000000000000000000000 000000000000000A000000000000000000000000000000000000000000000 000000000000000000000000000000000000000     00000000                                                                                                                        000000000000000000
F0010000007391800004000090044920600023658300000000000000000201507240002001QUATRO CARIBE SAS                                 C000000000090900000000000000000000100010010000000000000000000000F0010000007391800420150724000101 00000000000000000000000000000000000000000000000000000000000000000000000000000000000000000000000000000000000000000N 00000000000NCONT   00    00000000000          00000000000000000000000000000000000000000000 000000000000000A000000000000000000000000000000000000000000000 000000000000000000000000000000000000000     00000000                                                                                                                        000000000000000000
F0010000007391800005000090044920600013552100000000000000000201507240002001QUATRO CARIBE SAS                                 D000000000090900000000000000000000100010010000000000000000000000F0010000007391800520150724000101 00000000000000000000000000000000000000000000000000000000000000000000000000000000000000000000000000000000000000000N 00000000000NCONT   00    00000000000          00000000000000000000000000000000000000000000 000000000000000A000000000000000000000000000000000000000000000 000000000000000000000000000000000000000     00000000                                                                                                                        000000000000000000
F0010000007391900001000089010272700013050500000000000000000201507240002001ALFONSOEME S.A.                                   D000000030303100000000000000000000100010010000000000000000000000F0010000007391900120150724000101 00000000000000000000000000000000000000000000000000000000000000000000000000000000000000000000000000000000000000000N 00000000000NCONT   00    00000000000          00000000000000000000000000000000000000000000 000000000000000A000000000000000000000000000000000000000000000 000000000000000000000000000000000000000     00000000                                                                                                                        000000000000000000
F0010000007391900002000089010272700041450500000000000000000201507240002001ALFONSOEME S.A.                                   C000000030559000000000000000000000100010010000000000000000000000F0010000007391900220150724000101 00000000000000000000000000000000000000000000000000000000000000000000000000000000000000000000000000000000000000000N 00000000000NCONT   00    00000000000          00000000000000000000000000000000000000000000 000000000000000A000000000000000000000000000000000000000000000 000000000000000000000000000000000000000     00000000                                                                                                                        000000000000000000
F0010000007391900003000089010272700041750100000000000000000201507240002001ALFONSOEME S.A.                                   D000000003055900000000000000000000100010010000000000000000000000F0010000007391900320150724000101 00000000000000000000000000000000000000000000000000000000000000000000000000000000000000000000000000000000000000000N 00000000000NCONT   00    00000000000          00000000000000000000000000000000000000000000 000000000000000A000000000000000000000000000000000000000000000 000000000000000000000000000000000000000     00000000                                                                                                                        000000000000000000
F0010000007391900004000089010272700042505000000000000000000201507240002001ALFONSOEME S.A.                                   C000000002800000000000000000000000100010010000000000000000000000F0010000007391900420150724000101 00000000000000000000000000000000000000000000000000000000000000000000000000000000000000000000000000000000000000000N 00000000000NCONT   00    00000000000          00000000000000000000000000000000000000000000 000000000000000A000000000000000000000000000000000000000000000 000000000000000000000000000000000000000     00000000                                                                                                                        000000000000000000
F0010000007391900005000089010272700023658300000000000000000201507240002001ALFONSOEME S.A.                                   C000000000244500000000000000000000100010010000000000000000000000F0010000007391900520150724000101 00000000000000000000000000000000000000000000000000000000000000000000000000000000000000000000000000000000000000000N 00000000000NCONT   00    00000000000          00000000000000000000000000000000000000000000 000000000000000A000000000000000000000000000000000000000000000 000000000000000000000000000000000000000     00000000                                                                                                                        000000000000000000
F0010000007391900006000089010272700013552100000000000000000201507240002001ALFONSOEME S.A.                                   D000000000244500000000000000000000100010010000000000000000000000F0010000007391900620150724000101 00000000000000000000000000000000000000000000000000000000000000000000000000000000000000000000000000000000000000000N 00000000000NCONT   00    00000000000          00000000000000000000000000000000000000000000 000000000000000A000000000000000000000000000000000000000000000 000000000000000000000000000000000000000     00000000                                                                                                                        000000000000000000
F0010000007392000001000089010272700013050500000000000000000201507240002001ALFONSOEME S.A.                                   D000000000971400000000000000000000100010010000000000000000000000F0010000007392000120150724000101 00000000000000000000000000000000000000000000000000000000000000000000000000000000000000000000000000000000000000000N 00000000000NCONT   00    00000000000          00000000000000000000000000000000000000000000 000000000000000A000000000000000000000000000000000000000000000 000000000000000000000000000000000000000     00000000                                                                                                                        000000000000000000
F0010000007392000002000089010272700041450500000000000000000201507240002001ALFONSOEME S.A.                                   C000000000990500000000000000000000100010010000000000000000000000F0010000007392000220150724000101 00000000000000000000000000000000000000000000000000000000000000000000000000000000000000000000000000000000000000000N 00000000000NCONT   00    00000000000          00000000000000000000000000000000000000000000 000000000000000A000000000000000000000000000000000000000000000 000000000000000000000000000000000000000     00000000                                                                                                                        000000000000000000
F0010000007392000003000089010272700041750100000000000000000201507240002001ALFONSOEME S.A.                                   D000000000099100000000000000000000100010010000000000000000000000F0010000007392000320150724000101 00000000000000000000000000000000000000000000000000000000000000000000000000000000000000000000000000000000000000000N 00000000000NCONT   00    00000000000          00000000000000000000000000000000000000000000 000000000000000A000000000000000000000000000000000000000000000 000000000000000000000000000000000000000     00000000                                                                                                                        000000000000000000
F0010000007392000004000089010272700042505000000000000000000201507240002001ALFONSOEME S.A.                                   C000000000080000000000000000000000100010010000000000000000000000F0010000007392000420150724000101 00000000000000000000000000000000000000000000000000000000000000000000000000000000000000000000000000000000000000000N 00000000000NCONT   00    00000000000          00000000000000000000000000000000000000000000 000000000000000A000000000000000000000000000000000000000000000 000000000000000000000000000000000000000     00000000                                                                                                                        000000000000000000
F0010000007392000005000089010272700023658300000000000000000201507240002001ALFONSOEME S.A.                                   C000000000007900000000000000000000100010010000000000000000000000F0010000007392000520150724000101 00000000000000000000000000000000000000000000000000000000000000000000000000000000000000000000000000000000000000000N 00000000000NCONT   00    00000000000          00000000000000000000000000000000000000000000 000000000000000A000000000000000000000000000000000000000000000 000000000000000000000000000000000000000     00000000                                                                                                                        000000000000000000
F0010000007392000006000089010272700013552100000000000000000201507240002001ALFONSOEME S.A.                                   D000000000007900000000000000000000100010010000000000000000000000F0010000007392000620150724000101 00000000000000000000000000000000000000000000000000000000000000000000000000000000000000000000000000000000000000000N 00000000000NCONT   00    00000000000          00000000000000000000000000000000000000000000 000000000000000A000000000000000000000000000000000000000000000 000000000000000000000000000000000000000     00000000                                                                                                                        000000000000000000
F0010000007392100001000090073498600011050500000000000000000201507240002001VALTAC S.A.S                                      D000000002500000000000000000000000100010010000000000000000000000F0010000007392100120150724000101 00000000000000000000000000000000000000000000000000000000000000000000000000000000000000000000000000000000000000000N 00000000000NCONT   00    00000000000          00000000000000000000000000000000000000000000 000000000000000A000000000000000000000000000000000000000000000 000000000000000000000000000000000000000     00000000                                                                                                                        000000000000000000
F0010000007392100002000090073498600041450500000000000000000201507240002001VALTAC S.A.S                                      C000000002350000000000000000000000100010010000000000000000000000F0010000007392100220150724000101 00000000000000000000000000000000000000000000000000000000000000000000000000000000000000000000000000000000000000000N 00000000000NCONT   00    00000000000          00000000000000000000000000000000000000000000 000000000000000A000000000000000000000000000000000000000000000 000000000000000000000000000000000000000     00000000                                                                                                                        000000000000000000
F0010000007392100003000090073498600042505000000000000000000201507240002001VALTAC S.A.S                                      C000000000150000000000000000000000100010010000000000000000000000F0010000007392100320150724000101 00000000000000000000000000000000000000000000000000000000000000000000000000000000000000000000000000000000000000000N 00000000000NCONT   00    00000000000          00000000000000000000000000000000000000000000 000000000000000A000000000000000000000000000000000000000000000 000000000000000000000000000000000000000     00000000                                                                                                                        000000000000000000
F0010000007392100004000090073498600023658300000000000000000201507240002001VALTAC S.A.S                                      C000000000018800000000000000000000100010010000000000000000000000F0010000007392100420150724000101 00000000000000000000000000000000000000000000000000000000000000000000000000000000000000000000000000000000000000000N 00000000000NCONT   00    00000000000          00000000000000000000000000000000000000000000 000000000000000A000000000000000000000000000000000000000000000 000000000000000000000000000000000000000     00000000                                                                                                                        000000000000000000
F0010000007392100005000090073498600013552100000000000000000201507240002001VALTAC S.A.S                                      D000000000018800000000000000000000100010010000000000000000000000F0010000007392100520150724000101 00000000000000000000000000000000000000000000000000000000000000000000000000000000000000000000000000000000000000000N 00000000000NCONT   00    00000000000          00000000000000000000000000000000000000000000 000000000000000A000000000000000000000000000000000000000000000 000000000000000000000000000000000000000     00000000                                                                                                                        000000000000000000
F0010000007392200001000090037350200011050500000000000000000201507240002001JIMAR C Y J LTDA                                  D000000003500000000000000000000000100010010000000000000000000000F0010000007392200120150724000101 00000000000000000000000000000000000000000000000000000000000000000000000000000000000000000000000000000000000000000N 00000000000NCONT   00    00000000000          00000000000000000000000000000000000000000000 000000000000000A000000000000000000000000000000000000000000000 000000000000000000000000000000000000000     00000000                                                                                                                        000000000000000000
F0010000007392200002000090037350200041450500000000000000000201507240002001JIMAR C Y J LTDA                                  C000000003300000000000000000000000100010010000000000000000000000F0010000007392200220150724000101 00000000000000000000000000000000000000000000000000000000000000000000000000000000000000000000000000000000000000000N 00000000000NCONT   00    00000000000          00000000000000000000000000000000000000000000 000000000000000A000000000000000000000000000000000000000000000 000000000000000000000000000000000000000     00000000                                                                                                                        000000000000000000
F0010000007392200003000090037350200042505000000000000000000201507240002001JIMAR C Y J LTDA                                  C000000000200000000000000000000000100010010000000000000000000000F0010000007392200320150724000101 00000000000000000000000000000000000000000000000000000000000000000000000000000000000000000000000000000000000000000N 00000000000NCONT   00    00000000000          00000000000000000000000000000000000000000000 000000000000000A000000000000000000000000000000000000000000000 000000000000000000000000000000000000000     00000000                                                                                                                        000000000000000000
F0010000007392200004000090037350200023658300000000000000000201507240002001JIMAR C Y J LTDA                                  C000000000026400000000000000000000100010010000000000000000000000F0010000007392200420150724000101 00000000000000000000000000000000000000000000000000000000000000000000000000000000000000000000000000000000000000000N 00000000000NCONT   00    00000000000          00000000000000000000000000000000000000000000 000000000000000A000000000000000000000000000000000000000000000 000000000000000000000000000000000000000     00000000                                                                                                                        000000000000000000
F0010000007392200005000090037350200013552100000000000000000201507240002001JIMAR C Y J LTDA                                  D000000000026400000000000000000000100010010000000000000000000000F0010000007392200520150724000101 00000000000000000000000000000000000000000000000000000000000000000000000000000000000000000000000000000000000000000N 00000000000NCONT   00    00000000000          00000000000000000000000000000000000000000000 000000000000000A000000000000000000000000000000000000000000000 000000000000000000000000000000000000000     00000000                                                                                                                        000000000000000000
F0010000007392300001000086050250900011050500000000000000000201507240002001P.V.C.GERFOR S.A-                                 D000000006000000000000000000000000100010010000000000000000000000F0010000007392300120150724000101 00000000000000000000000000000000000000000000000000000000000000000000000000000000000000000000000000000000000000000N 00000000000NCONT   00    00000000000          00000000000000000000000000000000000000000000 000000000000000A000000000000000000000000000000000000000000000 000000000000000000000000000000000000000     00000000                                                                                                                        000000000000000000
F0010000007392300002000086050250900041450500000000000000000201507240002001P.V.C.GERFOR S.A-                                 C000000005900000000000000000000000100010010000000000000000000000F0010000007392300220150724000101 00000000000000000000000000000000000000000000000000000000000000000000000000000000000000000000000000000000000000000N 00000000000NCONT   00    00000000000          00000000000000000000000000000000000000000000 000000000000000A000000000000000000000000000000000000000000000 000000000000000000000000000000000000000     00000000                                                                                                                        000000000000000000
F0010000007392300003000086050250900042505000000000000000000201507240002001P.V.C.GERFOR S.A-                                 C000000000100000000000000000000000100010010000000000000000000000F0010000007392300320150724000101 00000000000000000000000000000000000000000000000000000000000000000000000000000000000000000000000000000000000000000N 00000000000NCONT   00    00000000000          00000000000000000000000000000000000000000000 000000000000000A000000000000000000000000000000000000000000000 000000000000000000000000000000000000000     00000000                                                                                                                        000000000000000000
F0010000007392300004000086050250900023658300000000000000000201507240002001P.V.C.GERFOR S.A-                                 C000000000047200000000000000000000100010010000000000000000000000F0010000007392300420150724000101 00000000000000000000000000000000000000000000000000000000000000000000000000000000000000000000000000000000000000000N 00000000000NCONT   00    00000000000          00000000000000000000000000000000000000000000 000000000000000A000000000000000000000000000000000000000000000 000000000000000000000000000000000000000     00000000                                                                                                                        000000000000000000
F0010000007392300005000086050250900013552100000000000000000201507240002001P.V.C.GERFOR S.A-                                 D000000000047200000000000000000000100010010000000000000000000000F0010000007392300520150724000101 00000000000000000000000000000000000000000000000000000000000000000000000000000000000000000000000000000000000000000N 00000000000NCONT   00    00000000000          00000000000000000000000000000000000000000000 000000000000000A000000000000000000000000000000000000000000000 000000000000000000000000000000000000000     00000000                                                                                                                        000000000000000000
F0010000007392400001000080202486100011050500000000000000000201507240002001DISTRIBUIDORA RAMBAL LTDA                         D000000001500000000000000000000000100010010000000000000000000000F0010000007392400120150724000101 00000000000000000000000000000000000000000000000000000000000000000000000000000000000000000000000000000000000000000N 00000000000NCONT   00    00000000000          00000000000000000000000000000000000000000000 000000000000000A000000000000000000000000000000000000000000000 000000000000000000000000000000000000000     00000000                                                                                                                        000000000000000000
F0010000007392400002000080202486100041450500000000000000000201507240002001DISTRIBUIDORA RAMBAL LTDA                         C000000001300000000000000000000000100010010000000000000000000000F0010000007392400220150724000101 00000000000000000000000000000000000000000000000000000000000000000000000000000000000000000000000000000000000000000N 00000000000NCONT   00    00000000000          00000000000000000000000000000000000000000000 000000000000000A000000000000000000000000000000000000000000000 000000000000000000000000000000000000000     00000000                                                                                                                        000000000000000000
F0010000007392400003000080202486100042505000000000000000000201507240002001DISTRIBUIDORA RAMBAL LTDA                         C000000000200000000000000000000000100010010000000000000000000000F0010000007392400320150724000101 00000000000000000000000000000000000000000000000000000000000000000000000000000000000000000000000000000000000000000N 00000000000NCONT   00    00000000000          00000000000000000000000000000000000000000000 000000000000000A000000000000000000000000000000000000000000000 000000000000000000000000000000000000000     00000000                                                                                                                        000000000000000000
F0010000007392400004000080202486100023658300000000000000000201507240002001DISTRIBUIDORA RAMBAL LTDA                         C000000000010400000000000000000000100010010000000000000000000000F0010000007392400420150724000101 00000000000000000000000000000000000000000000000000000000000000000000000000000000000000000000000000000000000000000N 00000000000NCONT   00    00000000000          00000000000000000000000000000000000000000000 000000000000000A000000000000000000000000000000000000000000000 000000000000000000000000000000000000000     00000000                                                                                                                        000000000000000000
F0010000007392400005000080202486100013552100000000000000000201507240002001DISTRIBUIDORA RAMBAL LTDA                         D000000000010400000000000000000000100010010000000000000000000000F0010000007392400520150724000101 00000000000000000000000000000000000000000000000000000000000000000000000000000000000000000000000000000000000000000N 00000000000NCONT   00    00000000000          00000000000000000000000000000000000000000000 000000000000000A000000000000000000000000000000000000000000000 000000000000000000000000000000000000000     00000000                                                                                                                        000000000000000000
F0010000007392500001000007213133300011050500000000000000000201507240002001ALVARO ALBERTO FANDIO GOMEZ                     D000000001000000000000000000000000100010010000000000000000000000F0010000007392500120150724000101 00000000000000000000000000000000000000000000000000000000000000000000000000000000000000000000000000000000000000000N 00000000000NCONT   00    00000000000          00000000000000000000000000000000000000000000 000000000000000A000000000000000000000000000000000000000000000 000000000000000000000000000000000000000     00000000                                                                                                                        000000000000000000
F0010000007392500002000007213133300041450500000000000000000201507240002001ALVARO ALBERTO FANDIO GOMEZ                     C000000000900000000000000000000000100010010000000000000000000000F0010000007392500220150724000101 00000000000000000000000000000000000000000000000000000000000000000000000000000000000000000000000000000000000000000N 00000000000NCONT   00    00000000000          00000000000000000000000000000000000000000000 000000000000000A000000000000000000000000000000000000000000000 000000000000000000000000000000000000000     00000000                                                                                                                        000000000000000000
F0010000007392500003000007213133300042505000000000000000000201507240002001ALVARO ALBERTO FANDIO GOMEZ                     C000000000100000000000000000000000100010010000000000000000000000F0010000007392500320150724000101 00000000000000000000000000000000000000000000000000000000000000000000000000000000000000000000000000000000000000000N 00000000000NCONT   00    00000000000          00000000000000000000000000000000000000000000 000000000000000A000000000000000000000000000000000000000000000 000000000000000000000000000000000000000     00000000                                                                                                                        000000000000000000
F0010000007392500004000007213133300023658300000000000000000201507240002001ALVARO ALBERTO FANDIO GOMEZ                     C000000000007200000000000000000000100010010000000000000000000000F0010000007392500420150724000101 00000000000000000000000000000000000000000000000000000000000000000000000000000000000000000000000000000000000000000N 00000000000NCONT   00    00000000000          00000000000000000000000000000000000000000000 000000000000000A000000000000000000000000000000000000000000000 000000000000000000000000000000000000000     00000000                                                                                                                        000000000000000000
F0010000007392500005000007213133300013552100000000000000000201507240002001ALVARO ALBERTO FANDIO GOMEZ                     D000000000007200000000000000000000100010010000000000000000000000F0010000007392500520150724000101 00000000000000000000000000000000000000000000000000000000000000000000000000000000000000000000000000000000000000000N 00000000000NCONT   00    00000000000          00000000000000000000000000000000000000000000 000000000000000A000000000000000000000000000000000000000000000 000000000000000000000000000000000000000     00000000                                                                                                                        000000000000000000
F0010000007392600001000003319910700011050500000000000000000201507240002001LUZ DARY JIMENEZ MARTINEZ                         D000000001100000000000000000000000100010010000000000000000000000F0010000007392600120150724000101 00000000000000000000000000000000000000000000000000000000000000000000000000000000000000000000000000000000000000000N 00000000000NCONT   00    00000000000          00000000000000000000000000000000000000000000 000000000000000A000000000000000000000000000000000000000000000 000000000000000000000000000000000000000     00000000                                                                                                                        000000000000000000
F0010000007392600002000003319910700041450500000000000000000201507240002001LUZ DARY JIMENEZ MARTINEZ                         C000000001000000000000000000000000100010010000000000000000000000F0010000007392600220150724000101 00000000000000000000000000000000000000000000000000000000000000000000000000000000000000000000000000000000000000000N 00000000000NCONT   00    00000000000          00000000000000000000000000000000000000000000 000000000000000A000000000000000000000000000000000000000000000 000000000000000000000000000000000000000     00000000                                                                                                                        000000000000000000
F0010000007392600003000003319910700042505000000000000000000201507240002001LUZ DARY JIMENEZ MARTINEZ                         C000000000100000000000000000000000100010010000000000000000000000F0010000007392600320150724000101 00000000000000000000000000000000000000000000000000000000000000000000000000000000000000000000000000000000000000000N 00000000000NCONT   00    00000000000          00000000000000000000000000000000000000000000 000000000000000A000000000000000000000000000000000000000000000 000000000000000000000000000000000000000     00000000                                                                                                                        000000000000000000
F0010000007392600004000003319910700023658300000000000000000201507240002001LUZ DARY JIMENEZ MARTINEZ                         C000000000008000000000000000000000100010010000000000000000000000F0010000007392600420150724000101 00000000000000000000000000000000000000000000000000000000000000000000000000000000000000000000000000000000000000000N 00000000000NCONT   00    00000000000          00000000000000000000000000000000000000000000 000000000000000A000000000000000000000000000000000000000000000 000000000000000000000000000000000000000     00000000                                                                                                                        000000000000000000
F0010000007392600005000003319910700013552100000000000000000201507240002001LUZ DARY JIMENEZ MARTINEZ                         D000000000008000000000000000000000100010010000000000000000000000F0010000007392600520150724000101 00000000000000000000000000000000000000000000000000000000000000000000000000000000000000000000000000000000000000000N 00000000000NCONT   00    00000000000          00000000000000000000000000000000000000000000 000000000000000A000000000000000000000000000000000000000000000 000000000000000000000000000000000000000     00000000                                                                                                                        000000000000000000
F0010000007392700001000007200023300011050500000000000000000201507240002001COMERCIALIZADORA ORTEGA                           D000000004500000000000000000000000100010010000000000000000000000F0010000007392700120150724000101 00000000000000000000000000000000000000000000000000000000000000000000000000000000000000000000000000000000000000000N 00000000000NCONT   00    00000000000          00000000000000000000000000000000000000000000 000000000000000A000000000000000000000000000000000000000000000 000000000000000000000000000000000000000     00000000                                                                                                                        000000000000000000
F0010000007392700002000007200023300041450500000000000000000201507240002001COMERCIALIZADORA ORTEGA                           C000000004300000000000000000000000100010010000000000000000000000F0010000007392700220150724000101 00000000000000000000000000000000000000000000000000000000000000000000000000000000000000000000000000000000000000000N 00000000000NCONT   00    00000000000          00000000000000000000000000000000000000000000 000000000000000A000000000000000000000000000000000000000000000 000000000000000000000000000000000000000     00000000                                                                                                                        000000000000000000
F0010000007392700003000007200023300042505000000000000000000201507240002001COMERCIALIZADORA ORTEGA                           C000000000200000000000000000000000100010010000000000000000000000F0010000007392700320150724000101 00000000000000000000000000000000000000000000000000000000000000000000000000000000000000000000000000000000000000000N 00000000000NCONT   00    00000000000          00000000000000000000000000000000000000000000 000000000000000A000000000000000000000000000000000000000000000 000000000000000000000000000000000000000     00000000                                                                                                                        000000000000000000
F0010000007392700004000007200023300023658300000000000000000201507240002001COMERCIALIZADORA ORTEGA                           C000000000034400000000000000000000100010010000000000000000000000F0010000007392700420150724000101 00000000000000000000000000000000000000000000000000000000000000000000000000000000000000000000000000000000000000000N 00000000000NCONT   00    00000000000          00000000000000000000000000000000000000000000 000000000000000A000000000000000000000000000000000000000000000 000000000000000000000000000000000000000     00000000                                                                                                                        000000000000000000
F0010000007392700005000007200023300013552100000000000000000201507240002001COMERCIALIZADORA ORTEGA                           D000000000034400000000000000000000100010010000000000000000000000F0010000007392700520150724000101 00000000000000000000000000000000000000000000000000000000000000000000000000000000000000000000000000000000000000000N 00000000000NCONT   00    00000000000          00000000000000000000000000000000000000000000 000000000000000A000000000000000000000000000000000000000000000 000000000000000000000000000000000000000     00000000                                                                                                                        000000000000000000
F0010000007392800001000083001155300011050500000000000000000201507240002001COMERCIALIZADORA RUBEN S LTDA                     D000000001500000000000000000000000100010010000000000000000000000F0010000007392800120150724000101 00000000000000000000000000000000000000000000000000000000000000000000000000000000000000000000000000000000000000000N 00000000000NCONT   00    00000000000          00000000000000000000000000000000000000000000 000000000000000A000000000000000000000000000000000000000000000 000000000000000000000000000000000000000     00000000                                                                                                                        000000000000000000
F0010000007392800002000083001155300041450500000000000000000201507240002001COMERCIALIZADORA RUBEN S LTDA                     C000000001400000000000000000000000100010010000000000000000000000F0010000007392800220150724000101 00000000000000000000000000000000000000000000000000000000000000000000000000000000000000000000000000000000000000000N 00000000000NCONT   00    00000000000          00000000000000000000000000000000000000000000 000000000000000A000000000000000000000000000000000000000000000 000000000000000000000000000000000000000     00000000                                                                                                                        000000000000000000
F0010000007392800003000083001155300042505000000000000000000201507240002001COMERCIALIZADORA RUBEN S LTDA                     C000000000100000000000000000000000100010010000000000000000000000F0010000007392800320150724000101 00000000000000000000000000000000000000000000000000000000000000000000000000000000000000000000000000000000000000000N 00000000000NCONT   00    00000000000          00000000000000000000000000000000000000000000 000000000000000A000000000000000000000000000000000000000000000 000000000000000000000000000000000000000     00000000                                                                                                                        000000000000000000
F0010000007392800004000083001155300023658300000000000000000201507240002001COMERCIALIZADORA RUBEN S LTDA                     C000000000011200000000000000000000100010010000000000000000000000F0010000007392800420150724000101 00000000000000000000000000000000000000000000000000000000000000000000000000000000000000000000000000000000000000000N 00000000000NCONT   00    00000000000          00000000000000000000000000000000000000000000 000000000000000A000000000000000000000000000000000000000000000 000000000000000000000000000000000000000     00000000                                                                                                                        000000000000000000
F0010000007392800005000083001155300013552100000000000000000201507240002001COMERCIALIZADORA RUBEN S LTDA                     D000000000011200000000000000000000100010010000000000000000000000F0010000007392800520150724000101 00000000000000000000000000000000000000000000000000000000000000000000000000000000000000000000000000000000000000000N 00000000000NCONT   00    00000000000          00000000000000000000000000000000000000000000 000000000000000A000000000000000000000000000000000000000000000 000000000000000000000000000000000000000     00000000                                                                                                                        000000000000000000
F0010000007392900001000080202350700011050500000000000000000201507240002001CONNY DE LA COSTA SAS                             D000000001200000000000000000000000100010010000000000000000000000F0010000007392900120150724000101 00000000000000000000000000000000000000000000000000000000000000000000000000000000000000000000000000000000000000000N 00000000000NCONT   00    00000000000          00000000000000000000000000000000000000000000 000000000000000A000000000000000000000000000000000000000000000 000000000000000000000000000000000000000     00000000                                                                                                                        000000000000000000
F0010000007392900002000080202350700041450500000000000000000201507240002001CONNY DE LA COSTA SAS                             C000000001100000000000000000000000100010010000000000000000000000F0010000007392900220150724000101 00000000000000000000000000000000000000000000000000000000000000000000000000000000000000000000000000000000000000000N 00000000000NCONT   00    00000000000          00000000000000000000000000000000000000000000 000000000000000A000000000000000000000000000000000000000000000 000000000000000000000000000000000000000     00000000                                                                                                                        000000000000000000
F0010000007392900003000080202350700042505000000000000000000201507240002001CONNY DE LA COSTA SAS                             C000000000100000000000000000000000100010010000000000000000000000F0010000007392900320150724000101 00000000000000000000000000000000000000000000000000000000000000000000000000000000000000000000000000000000000000000N 00000000000NCONT   00    00000000000          00000000000000000000000000000000000000000000 000000000000000A000000000000000000000000000000000000000000000 000000000000000000000000000000000000000     00000000                                                                                                                        000000000000000000
F0010000007392900004000080202350700023658300000000000000000201507240002001CONNY DE LA COSTA SAS                             C000000000008800000000000000000000100010010000000000000000000000F0010000007392900420150724000101 00000000000000000000000000000000000000000000000000000000000000000000000000000000000000000000000000000000000000000N 00000000000NCONT   00    00000000000          00000000000000000000000000000000000000000000 000000000000000A000000000000000000000000000000000000000000000 000000000000000000000000000000000000000     00000000                                                                                                                        000000000000000000
F0010000007392900005000080202350700013552100000000000000000201507240002001CONNY DE LA COSTA SAS                             D000000000008800000000000000000000100010010000000000000000000000F0010000007392900520150724000101 00000000000000000000000000000000000000000000000000000000000000000000000000000000000000000000000000000000000000000N 00000000000NCONT   00    00000000000          00000000000000000000000000000000000000000000 000000000000000A000000000000000000000000000000000000000000000 000000000000000000000000000000000000000     00000000                                                                                                                        000000000000000000
F0010000007393000001000080202350700011050500000000000000000201507240002001CONNY DE LA COSTA SAS                             D000000001100000000000000000000000100010010000000000000000000000F0010000007393000120150724000101 00000000000000000000000000000000000000000000000000000000000000000000000000000000000000000000000000000000000000000N 00000000000NCONT   00    00000000000          00000000000000000000000000000000000000000000 000000000000000A000000000000000000000000000000000000000000000 000000000000000000000000000000000000000     00000000                                                                                                                        000000000000000000
F0010000007393000002000080202350700041450500000000000000000201507240002001CONNY DE LA COSTA SAS                             C000000000800000000000000000000000100010010000000000000000000000F0010000007393000220150724000101 00000000000000000000000000000000000000000000000000000000000000000000000000000000000000000000000000000000000000000N 00000000000NCONT   00    00000000000          00000000000000000000000000000000000000000000 000000000000000A000000000000000000000000000000000000000000000 000000000000000000000000000000000000000     00000000                                                                                                                        000000000000000000
F0010000007393000003000080202350700042505000000000000000000201507240002001CONNY DE LA COSTA SAS                             C000000000300000000000000000000000100010010000000000000000000000F0010000007393000320150724000101 00000000000000000000000000000000000000000000000000000000000000000000000000000000000000000000000000000000000000000N 00000000000NCONT   00    00000000000          00000000000000000000000000000000000000000000 000000000000000A000000000000000000000000000000000000000000000 000000000000000000000000000000000000000     00000000                                                                                                                        000000000000000000
F0010000007393000004000080202350700023658300000000000000000201507240002001CONNY DE LA COSTA SAS                             C000000000006400000000000000000000100010010000000000000000000000F0010000007393000420150724000101 00000000000000000000000000000000000000000000000000000000000000000000000000000000000000000000000000000000000000000N 00000000000NCONT   00    00000000000          00000000000000000000000000000000000000000000 000000000000000A000000000000000000000000000000000000000000000 000000000000000000000000000000000000000     00000000                                                                                                                        000000000000000000
F0010000007393000005000080202350700013552100000000000000000201507240002001CONNY DE LA COSTA SAS                             D000000000006400000000000000000000100010010000000000000000000000F0010000007393000520150724000101 00000000000000000000000000000000000000000000000000000000000000000000000000000000000000000000000000000000000000000N 00000000000NCONT   00    00000000000          00000000000000000000000000000000000000000000 000000000000000A000000000000000000000000000000000000000000000 000000000000000000000000000000000000000     00000000                                                                                                                        000000000000000000
F0010000007393100001000080202350700011050500000000000000000201507240002001CONNY DE LA COSTA SAS                             D000000001000000000000000000000000100010010000000000000000000000F0010000007393100120150724000101 00000000000000000000000000000000000000000000000000000000000000000000000000000000000000000000000000000000000000000N 00000000000NCONT   00    00000000000          00000000000000000000000000000000000000000000 000000000000000A000000000000000000000000000000000000000000000 000000000000000000000000000000000000000     00000000                                                                                                                        000000000000000000
F0010000007393100002000080202350700041450500000000000000000201507240002001CONNY DE LA COSTA SAS                             C000000000800000000000000000000000100010010000000000000000000000F0010000007393100220150724000101 00000000000000000000000000000000000000000000000000000000000000000000000000000000000000000000000000000000000000000N 00000000000NCONT   00    00000000000          00000000000000000000000000000000000000000000 000000000000000A000000000000000000000000000000000000000000000 000000000000000000000000000000000000000     00000000                                                                                                                        000000000000000000
F0010000007393100003000080202350700042505000000000000000000201507240002001CONNY DE LA COSTA SAS                             C000000000200000000000000000000000100010010000000000000000000000F0010000007393100320150724000101 00000000000000000000000000000000000000000000000000000000000000000000000000000000000000000000000000000000000000000N 00000000000NCONT   00    00000000000          00000000000000000000000000000000000000000000 000000000000000A000000000000000000000000000000000000000000000 000000000000000000000000000000000000000     00000000                                                                                                                        000000000000000000
F0010000007393100004000080202350700023658300000000000000000201507240002001CONNY DE LA COSTA SAS                             C000000000006400000000000000000000100010010000000000000000000000F0010000007393100420150724000101 00000000000000000000000000000000000000000000000000000000000000000000000000000000000000000000000000000000000000000N 00000000000NCONT   00    00000000000          00000000000000000000000000000000000000000000 000000000000000A000000000000000000000000000000000000000000000 000000000000000000000000000000000000000     00000000                                                                                                                        000000000000000000
