F0010000007897800001000089031248700011050500000000000000000201511160002001DISTRIBUIDORA CALIPLASTICOS LTDA                  D000000002157600000000000000000000100010010000000000000000000000F0010000007897800120151116000101 00000000000000000000000000000000000000000000000000000000000000000000000000000000000000000000000000000000000000000N 00000000000NCONT   00    00000000000          00000000000000000000000000000000000000000000 000000000000000A000000000000000000000000000000000000000000000 000000000000000000000000000000000000000     00000000                                                                                                                        000000000000000000
F0010000007897800002000089031248700041450500000000000000000201511160002001DISTRIBUIDORA CALIPLASTICOS LTDA                  C000000002082600000000000000000000100010010000000000000000000000F0010000007897800220151116000101 00000000000000000000000000000000000000000000000000000000000000000000000000000000000000000000000000000000000000000N 00000000000NCONT   00    00000000000          00000000000000000000000000000000000000000000 000000000000000A000000000000000000000000000000000000000000000 000000000000000000000000000000000000000     00000000                                                                                                                        000000000000000000
F0010000007897800003000089031248700042505000000000000000000201511160002001DISTRIBUIDORA CALIPLASTICOS LTDA                  C000000000075000000000000000000000100010010000000000000000000000F0010000007897800320151116000101 00000000000000000000000000000000000000000000000000000000000000000000000000000000000000000000000000000000000000000N 00000000000NCONT   00    00000000000          00000000000000000000000000000000000000000000 000000000000000A000000000000000000000000000000000000000000000 000000000000000000000000000000000000000     00000000                                                                                                                        000000000000000000
F0010000007897800004000089031248700023658300000000000000000201511160002001DISTRIBUIDORA CALIPLASTICOS LTDA                  C000000000016700000000000000000000100010010000000000000000000000F0010000007897800420151116000101 00000000000000000000000000000000000000000000000000000000000000000000000000000000000000000000000000000000000000000N 00000000000NCONT   00    00000000000          00000000000000000000000000000000000000000000 000000000000000A000000000000000000000000000000000000000000000 000000000000000000000000000000000000000     00000000                                                                                                                        000000000000000000
F0010000007897800005000089031248700013552100000000000000000201511160002001DISTRIBUIDORA CALIPLASTICOS LTDA                  D000000000016700000000000000000000100010010000000000000000000000F0010000007897800520151116000101 00000000000000000000000000000000000000000000000000000000000000000000000000000000000000000000000000000000000000000N 00000000000NCONT   00    00000000000          00000000000000000000000000000000000000000000 000000000000000A000000000000000000000000000000000000000000000 000000000000000000000000000000000000000     00000000                                                                                                                        000000000000000000
F0010000007897900001000009120302700011050500000000000000000201511160002001CALZADO REY ESTEBAN                               D000000001500000000000000000000000100010010000000000000000000000F0010000007897900120151116000101 00000000000000000000000000000000000000000000000000000000000000000000000000000000000000000000000000000000000000000N 00000000000NCONT   00    00000000000          00000000000000000000000000000000000000000000 000000000000000A000000000000000000000000000000000000000000000 000000000000000000000000000000000000000     00000000                                                                                                                        000000000000000000
F0010000007897900002000009120302700041450500000000000000000201511160002001CALZADO REY ESTEBAN                               C000000001200000000000000000000000100010010000000000000000000000F0010000007897900220151116000101 00000000000000000000000000000000000000000000000000000000000000000000000000000000000000000000000000000000000000000N 00000000000NCONT   00    00000000000          00000000000000000000000000000000000000000000 000000000000000A000000000000000000000000000000000000000000000 000000000000000000000000000000000000000     00000000                                                                                                                        000000000000000000
F0010000007897900003000009120302700042505000000000000000000201511160002001CALZADO REY ESTEBAN                               C000000000300000000000000000000000100010010000000000000000000000F0010000007897900320151116000101 00000000000000000000000000000000000000000000000000000000000000000000000000000000000000000000000000000000000000000N 00000000000NCONT   00    00000000000          00000000000000000000000000000000000000000000 000000000000000A000000000000000000000000000000000000000000000 000000000000000000000000000000000000000     00000000                                                                                                                        000000000000000000
F0010000007897900004000009120302700023658300000000000000000201511160002001CALZADO REY ESTEBAN                               C000000000009600000000000000000000100010010000000000000000000000F0010000007897900420151116000101 00000000000000000000000000000000000000000000000000000000000000000000000000000000000000000000000000000000000000000N 00000000000NCONT   00    00000000000          00000000000000000000000000000000000000000000 000000000000000A000000000000000000000000000000000000000000000 000000000000000000000000000000000000000     00000000                                                                                                                        000000000000000000
F0010000007897900005000009120302700013552100000000000000000201511160002001CALZADO REY ESTEBAN                               D000000000009600000000000000000000100010010000000000000000000000F0010000007897900520151116000101 00000000000000000000000000000000000000000000000000000000000000000000000000000000000000000000000000000000000000000N 00000000000NCONT   00    00000000000          00000000000000000000000000000000000000000000 000000000000000A000000000000000000000000000000000000000000000 000000000000000000000000000000000000000     00000000                                                                                                                        000000000000000000
F0010000007898000001000009120302700011050500000000000000000201511160002001CALZADO REY ESTEBAN                               D000000001700000000000000000000000100010010000000000000000000000F0010000007898000120151116000101 00000000000000000000000000000000000000000000000000000000000000000000000000000000000000000000000000000000000000000N 00000000000NCONT   00    00000000000          00000000000000000000000000000000000000000000 000000000000000A000000000000000000000000000000000000000000000 000000000000000000000000000000000000000     00000000                                                                                                                        000000000000000000
F0010000007898000002000009120302700041450500000000000000000201511160002001CALZADO REY ESTEBAN                               C000000001300000000000000000000000100010010000000000000000000000F0010000007898000220151116000101 00000000000000000000000000000000000000000000000000000000000000000000000000000000000000000000000000000000000000000N 00000000000NCONT   00    00000000000          00000000000000000000000000000000000000000000 000000000000000A000000000000000000000000000000000000000000000 000000000000000000000000000000000000000     00000000                                                                                                                        000000000000000000
F0010000007898000003000009120302700042505000000000000000000201511160002001CALZADO REY ESTEBAN                               C000000000400000000000000000000000100010010000000000000000000000F0010000007898000320151116000101 00000000000000000000000000000000000000000000000000000000000000000000000000000000000000000000000000000000000000000N 00000000000NCONT   00    00000000000          00000000000000000000000000000000000000000000 000000000000000A000000000000000000000000000000000000000000000 000000000000000000000000000000000000000     00000000                                                                                                                        000000000000000000
F0010000007898000004000009120302700023658300000000000000000201511160002001CALZADO REY ESTEBAN                               C000000000010400000000000000000000100010010000000000000000000000F0010000007898000420151116000101 00000000000000000000000000000000000000000000000000000000000000000000000000000000000000000000000000000000000000000N 00000000000NCONT   00    00000000000          00000000000000000000000000000000000000000000 000000000000000A000000000000000000000000000000000000000000000 000000000000000000000000000000000000000     00000000                                                                                                                        000000000000000000
F0010000007898000005000009120302700013552100000000000000000201511160002001CALZADO REY ESTEBAN                               D000000000010400000000000000000000100010010000000000000000000000F0010000007898000520151116000101 00000000000000000000000000000000000000000000000000000000000000000000000000000000000000000000000000000000000000000N 00000000000NCONT   00    00000000000          00000000000000000000000000000000000000000000 000000000000000A000000000000000000000000000000000000000000000 000000000000000000000000000000000000000     00000000                                                                                                                        000000000000000000
F0010000007898100001000007213612800011050500000000000000000201511160002001SOCRATES PLA                                      D000000005500000000000000000000000100010010000000000000000000000F0010000007898100120151116000101 00000000000000000000000000000000000000000000000000000000000000000000000000000000000000000000000000000000000000000N 00000000000NCONT   00    00000000000          00000000000000000000000000000000000000000000 000000000000000A000000000000000000000000000000000000000000000 000000000000000000000000000000000000000     00000000                                                                                                                        000000000000000000
F0010000007898100002000007213612800041450500000000000000000201511160002001SOCRATES PLA                                      C000000005000000000000000000000000100010010000000000000000000000F0010000007898100220151116000101 00000000000000000000000000000000000000000000000000000000000000000000000000000000000000000000000000000000000000000N 00000000000NCONT   00    00000000000          00000000000000000000000000000000000000000000 000000000000000A000000000000000000000000000000000000000000000 000000000000000000000000000000000000000     00000000                                                                                                                        000000000000000000
F0010000007898100003000007213612800042505000000000000000000201511160002001SOCRATES PLA                                      C000000000500000000000000000000000100010010000000000000000000000F0010000007898100320151116000101 00000000000000000000000000000000000000000000000000000000000000000000000000000000000000000000000000000000000000000N 00000000000NCONT   00    00000000000          00000000000000000000000000000000000000000000 000000000000000A000000000000000000000000000000000000000000000 000000000000000000000000000000000000000     00000000                                                                                                                        000000000000000000
F0010000007898100004000007213612800023658300000000000000000201511160002001SOCRATES PLA                                      C000000000040000000000000000000000100010010000000000000000000000F0010000007898100420151116000101 00000000000000000000000000000000000000000000000000000000000000000000000000000000000000000000000000000000000000000N 00000000000NCONT   00    00000000000          00000000000000000000000000000000000000000000 000000000000000A000000000000000000000000000000000000000000000 000000000000000000000000000000000000000     00000000                                                                                                                        000000000000000000
F0010000007898100005000007213612800013552100000000000000000201511160002001SOCRATES PLA                                      D000000000040000000000000000000000100010010000000000000000000000F0010000007898100520151116000101 00000000000000000000000000000000000000000000000000000000000000000000000000000000000000000000000000000000000000000N 00000000000NCONT   00    00000000000          00000000000000000000000000000000000000000000 000000000000000A000000000000000000000000000000000000000000000 000000000000000000000000000000000000000     00000000                                                                                                                        000000000000000000
