F0010000007026300001000090049854300013050500000000000000000201504160002001TRAPOS INDUSTRIALES DE COLOMBIA SAS               D000000005811000000000000000000000100010010000000000000000000000F0010000007026300120150416000101 00000000000000000000000000000000000000000000000000000000000000000000000000000000000000000000000000000000000000000N 00000000000NCONT   00    00000000000          00000000000000000000000000000000000000000000 000000000000000A000000000000000000000000000000000000000000000 000000000000000000000000000000000000000     00000000                                                                                                                        000000000000000000
F0010000007026300002000090049854300041450500000000000000000201504160002001TRAPOS INDUSTRIALES DE COLOMBIA SAS               C000000005200000000000000000000000100010010000000000000000000000F0010000007026300220150416000101 00000000000000000000000000000000000000000000000000000000000000000000000000000000000000000000000000000000000000000N 00000000000NCONT   00    00000000000          00000000000000000000000000000000000000000000 000000000000000A000000000000000000000000000000000000000000000 000000000000000000000000000000000000000     00000000                                                                                                                        000000000000000000
F0010000007026300003000090049854300042505000000000000000000201504160002001TRAPOS INDUSTRIALES DE COLOMBIA SAS               C000000000611000000000000000000000100010010000000000000000000000F0010000007026300320150416000101 00000000000000000000000000000000000000000000000000000000000000000000000000000000000000000000000000000000000000000N 00000000000NCONT   00    00000000000          00000000000000000000000000000000000000000000 000000000000000A000000000000000000000000000000000000000000000 000000000000000000000000000000000000000     00000000                                                                                                                        000000000000000000
F0010000007026300004000090049854300023658300000000000000000201504160002001TRAPOS INDUSTRIALES DE COLOMBIA SAS               C000000000041600000000000000000000100010010000000000000000000000F0010000007026300420150416000101 00000000000000000000000000000000000000000000000000000000000000000000000000000000000000000000000000000000000000000N 00000000000NCONT   00    00000000000          00000000000000000000000000000000000000000000 000000000000000A000000000000000000000000000000000000000000000 000000000000000000000000000000000000000     00000000                                                                                                                        000000000000000000
F0010000007026300005000090049854300013552100000000000000000201504160002001TRAPOS INDUSTRIALES DE COLOMBIA SAS               D000000000041600000000000000000000100010010000000000000000000000F0010000007026300520150416000101 00000000000000000000000000000000000000000000000000000000000000000000000000000000000000000000000000000000000000000N 00000000000NCONT   00    00000000000          00000000000000000000000000000000000000000000 000000000000000A000000000000000000000000000000000000000000000 000000000000000000000000000000000000000     00000000                                                                                                                        000000000000000000
F0010000007026400001000081102758700013050500000000000000000201504160002001C.I. ABRACOL S.A EMA                              D000000116179300000000000000000000100010010000000000000000000000F0010000007026400120150416000101 00000000000000000000000000000000000000000000000000000000000000000000000000000000000000000000000000000000000000000N 00000000000NCONT   00    00000000000          00000000000000000000000000000000000000000000 000000000000000A000000000000000000000000000000000000000000000 000000000000000000000000000000000000000     00000000                                                                                                                        000000000000000000
F0010000007026400002000081102758700041450500000000000000000201504160002001C.I. ABRACOL S.A EMA                              C000000095330000000000000000000000100010010000000000000000000000F0010000007026400220150416000101 00000000000000000000000000000000000000000000000000000000000000000000000000000000000000000000000000000000000000000N 00000000000NCONT   00    00000000000          00000000000000000000000000000000000000000000 000000000000000A000000000000000000000000000000000000000000000 000000000000000000000000000000000000000     00000000                                                                                                                        000000000000000000
F0010000007026400003000081102758700041750100000000000000000201504160002001C.I. ABRACOL S.A EMA                              D000000002859900000000000000000000100010010000000000000000000000F0010000007026400320150416000101 00000000000000000000000000000000000000000000000000000000000000000000000000000000000000000000000000000000000000000N 00000000000NCONT   00    00000000000          00000000000000000000000000000000000000000000 000000000000000A000000000000000000000000000000000000000000000 000000000000000000000000000000000000000     00000000                                                                                                                        000000000000000000
F0010000007026400004000081102758700042505000000000000000000201504160002001C.I. ABRACOL S.A EMA                              C000000023709200000000000000000000100010010000000000000000000000F0010000007026400420150416000101 00000000000000000000000000000000000000000000000000000000000000000000000000000000000000000000000000000000000000000N 00000000000NCONT   00    00000000000          00000000000000000000000000000000000000000000 000000000000000A000000000000000000000000000000000000000000000 000000000000000000000000000000000000000     00000000                                                                                                                        000000000000000000
F0010000007026400005000081102758700023658300000000000000000201504160002001C.I. ABRACOL S.A EMA                              C000000000762600000000000000000000100010010000000000000000000000F0010000007026400520150416000101 00000000000000000000000000000000000000000000000000000000000000000000000000000000000000000000000000000000000000000N 00000000000NCONT   00    00000000000          00000000000000000000000000000000000000000000 000000000000000A000000000000000000000000000000000000000000000 000000000000000000000000000000000000000     00000000                                                                                                                        000000000000000000
F0010000007026400006000081102758700013552100000000000000000201504160002001C.I. ABRACOL S.A EMA                              D000000000762600000000000000000000100010010000000000000000000000F0010000007026400620150416000101 00000000000000000000000000000000000000000000000000000000000000000000000000000000000000000000000000000000000000000N 00000000000NCONT   00    00000000000          00000000000000000000000000000000000000000000 000000000000000A000000000000000000000000000000000000000000000 000000000000000000000000000000000000000     00000000                                                                                                                        000000000000000000
F0010000007026500001000081102758700013050500000000000000000201504160002001C.I. ABRACOL S.A EMA                              D000000020635600000000000000000000100010010000000000000000000000F0010000007026500120150416000101 00000000000000000000000000000000000000000000000000000000000000000000000000000000000000000000000000000000000000000N 00000000000NCONT   00    00000000000          00000000000000000000000000000000000000000000 000000000000000A000000000000000000000000000000000000000000000 000000000000000000000000000000000000000     00000000                                                                                                                        000000000000000000
F0010000007026500002000081102758700041450500000000000000000201504160002001C.I. ABRACOL S.A EMA                              C000000015271600000000000000000000100010010000000000000000000000F0010000007026500220150416000101 00000000000000000000000000000000000000000000000000000000000000000000000000000000000000000000000000000000000000000N 00000000000NCONT   00    00000000000          00000000000000000000000000000000000000000000 000000000000000A000000000000000000000000000000000000000000000 000000000000000000000000000000000000000     00000000                                                                                                                        000000000000000000
F0010000007026500003000081102758700041750100000000000000000201504160002001C.I. ABRACOL S.A EMA                              D000000000458100000000000000000000100010010000000000000000000000F0010000007026500320150416000101 00000000000000000000000000000000000000000000000000000000000000000000000000000000000000000000000000000000000000000N 00000000000NCONT   00    00000000000          00000000000000000000000000000000000000000000 000000000000000A000000000000000000000000000000000000000000000 000000000000000000000000000000000000000     00000000                                                                                                                        000000000000000000
F0010000007026500004000081102758700042505000000000000000000201504160002001C.I. ABRACOL S.A EMA                              C000000005822100000000000000000000100010010000000000000000000000F0010000007026500420150416000101 00000000000000000000000000000000000000000000000000000000000000000000000000000000000000000000000000000000000000000N 00000000000NCONT   00    00000000000          00000000000000000000000000000000000000000000 000000000000000A000000000000000000000000000000000000000000000 000000000000000000000000000000000000000     00000000                                                                                                                        000000000000000000
F0010000007026500005000081102758700023658300000000000000000201504160002001C.I. ABRACOL S.A EMA                              C000000000122200000000000000000000100010010000000000000000000000F0010000007026500520150416000101 00000000000000000000000000000000000000000000000000000000000000000000000000000000000000000000000000000000000000000N 00000000000NCONT   00    00000000000          00000000000000000000000000000000000000000000 000000000000000A000000000000000000000000000000000000000000000 000000000000000000000000000000000000000     00000000                                                                                                                        000000000000000000
F0010000007026500006000081102758700013552100000000000000000201504160002001C.I. ABRACOL S.A EMA                              D000000000122200000000000000000000100010010000000000000000000000F0010000007026500620150416000101 00000000000000000000000000000000000000000000000000000000000000000000000000000000000000000000000000000000000000000N 00000000000NCONT   00    00000000000          00000000000000000000000000000000000000000000 000000000000000A000000000000000000000000000000000000000000000 000000000000000000000000000000000000000     00000000                                                                                                                        000000000000000000
F0010000007026600001000089011033000011050500000000000000000201504160002001INDUSTRIAS CRUZ & CAÑON LTDA                     D000000018000000000000000000000000100010010000000000000000000000F0010000007026600120150416000101 00000000000000000000000000000000000000000000000000000000000000000000000000000000000000000000000000000000000000000N 00000000000NCONT   00    00000000000          00000000000000000000000000000000000000000000 000000000000000A000000000000000000000000000000000000000000000 000000000000000000000000000000000000000     00000000                                                                                                                        000000000000000000
F0010000007026600002000089011033000041450500000000000000000201504160002001INDUSTRIAS CRUZ & CAÑON LTDA                     C000000016800000000000000000000000100010010000000000000000000000F0010000007026600220150416000101 00000000000000000000000000000000000000000000000000000000000000000000000000000000000000000000000000000000000000000N 00000000000NCONT   00    00000000000          00000000000000000000000000000000000000000000 000000000000000A000000000000000000000000000000000000000000000 000000000000000000000000000000000000000     00000000                                                                                                                        000000000000000000
F0010000007026600003000089011033000042505000000000000000000201504160002001INDUSTRIAS CRUZ & CAÑON LTDA                     C000000001200000000000000000000000100010010000000000000000000000F0010000007026600320150416000101 00000000000000000000000000000000000000000000000000000000000000000000000000000000000000000000000000000000000000000N 00000000000NCONT   00    00000000000          00000000000000000000000000000000000000000000 000000000000000A000000000000000000000000000000000000000000000 000000000000000000000000000000000000000     00000000                                                                                                                        000000000000000000
F0010000007026600004000089011033000023658300000000000000000201504160002001INDUSTRIAS CRUZ & CAÑON LTDA                     C000000000134400000000000000000000100010010000000000000000000000F0010000007026600420150416000101 00000000000000000000000000000000000000000000000000000000000000000000000000000000000000000000000000000000000000000N 00000000000NCONT   00    00000000000          00000000000000000000000000000000000000000000 000000000000000A000000000000000000000000000000000000000000000 000000000000000000000000000000000000000     00000000                                                                                                                        000000000000000000
F0010000007026600005000089011033000013552100000000000000000201504160002001INDUSTRIAS CRUZ & CAÑON LTDA                     D000000000134400000000000000000000100010010000000000000000000000F0010000007026600520150416000101 00000000000000000000000000000000000000000000000000000000000000000000000000000000000000000000000000000000000000000N 00000000000NCONT   00    00000000000          00000000000000000000000000000000000000000000 000000000000000A000000000000000000000000000000000000000000000 000000000000000000000000000000000000000     00000000                                                                                                                        000000000000000000
F0010000007026700001000003319910700011050500000000000000000201504160002001LUZ DARY JIMENEZ MARTINEZ                         D000000001100000000000000000000000100010010000000000000000000000F0010000007026700120150416000101 00000000000000000000000000000000000000000000000000000000000000000000000000000000000000000000000000000000000000000N 00000000000NCONT   00    00000000000          00000000000000000000000000000000000000000000 000000000000000A000000000000000000000000000000000000000000000 000000000000000000000000000000000000000     00000000                                                                                                                        000000000000000000
F0010000007026700002000003319910700041450500000000000000000201504160002001LUZ DARY JIMENEZ MARTINEZ                         C000000001000000000000000000000000100010010000000000000000000000F0010000007026700220150416000101 00000000000000000000000000000000000000000000000000000000000000000000000000000000000000000000000000000000000000000N 00000000000NCONT   00    00000000000          00000000000000000000000000000000000000000000 000000000000000A000000000000000000000000000000000000000000000 000000000000000000000000000000000000000     00000000                                                                                                                        000000000000000000
F0010000007026700003000003319910700042505000000000000000000201504160002001LUZ DARY JIMENEZ MARTINEZ                         C000000000100000000000000000000000100010010000000000000000000000F0010000007026700320150416000101 00000000000000000000000000000000000000000000000000000000000000000000000000000000000000000000000000000000000000000N 00000000000NCONT   00    00000000000          00000000000000000000000000000000000000000000 000000000000000A000000000000000000000000000000000000000000000 000000000000000000000000000000000000000     00000000                                                                                                                        000000000000000000
F0010000007026700004000003319910700023658300000000000000000201504160002001LUZ DARY JIMENEZ MARTINEZ                         C000000000008000000000000000000000100010010000000000000000000000F0010000007026700420150416000101 00000000000000000000000000000000000000000000000000000000000000000000000000000000000000000000000000000000000000000N 00000000000NCONT   00    00000000000          00000000000000000000000000000000000000000000 000000000000000A000000000000000000000000000000000000000000000 000000000000000000000000000000000000000     00000000                                                                                                                        000000000000000000
F0010000007026700005000003319910700013552100000000000000000201504160002001LUZ DARY JIMENEZ MARTINEZ                         D000000000008000000000000000000000100010010000000000000000000000F0010000007026700520150416000101 00000000000000000000000000000000000000000000000000000000000000000000000000000000000000000000000000000000000000000N 00000000000NCONT   00    00000000000          00000000000000000000000000000000000000000000 000000000000000A000000000000000000000000000000000000000000000 000000000000000000000000000000000000000     00000000                                                                                                                        000000000000000000
F0010000007026800001000003275934600011050500000000000000000201504160002001JACKELINE MEDINA MEJIA                            D000000006000000000000000000000000100010010000000000000000000000F0010000007026800120150416000101 00000000000000000000000000000000000000000000000000000000000000000000000000000000000000000000000000000000000000000N 00000000000NCONT   00    00000000000          00000000000000000000000000000000000000000000 000000000000000A000000000000000000000000000000000000000000000 000000000000000000000000000000000000000     00000000                                                                                                                        000000000000000000
F0010000007026800002000003275934600041450500000000000000000201504160002001JACKELINE MEDINA MEJIA                            C000000005800000000000000000000000100010010000000000000000000000F0010000007026800220150416000101 00000000000000000000000000000000000000000000000000000000000000000000000000000000000000000000000000000000000000000N 00000000000NCONT   00    00000000000          00000000000000000000000000000000000000000000 000000000000000A000000000000000000000000000000000000000000000 000000000000000000000000000000000000000     00000000                                                                                                                        000000000000000000
F0010000007026800003000003275934600042505000000000000000000201504160002001JACKELINE MEDINA MEJIA                            C000000000200000000000000000000000100010010000000000000000000000F0010000007026800320150416000101 00000000000000000000000000000000000000000000000000000000000000000000000000000000000000000000000000000000000000000N 00000000000NCONT   00    00000000000          00000000000000000000000000000000000000000000 000000000000000A000000000000000000000000000000000000000000000 000000000000000000000000000000000000000     00000000                                                                                                                        000000000000000000
F0010000007026800004000003275934600023658300000000000000000201504160002001JACKELINE MEDINA MEJIA                            C000000000046400000000000000000000100010010000000000000000000000F0010000007026800420150416000101 00000000000000000000000000000000000000000000000000000000000000000000000000000000000000000000000000000000000000000N 00000000000NCONT   00    00000000000          00000000000000000000000000000000000000000000 000000000000000A000000000000000000000000000000000000000000000 000000000000000000000000000000000000000     00000000                                                                                                                        000000000000000000
F0010000007026800005000003275934600013552100000000000000000201504160002001JACKELINE MEDINA MEJIA                            D000000000046400000000000000000000100010010000000000000000000000F0010000007026800520150416000101 00000000000000000000000000000000000000000000000000000000000000000000000000000000000000000000000000000000000000000N 00000000000NCONT   00    00000000000          00000000000000000000000000000000000000000000 000000000000000A000000000000000000000000000000000000000000000 000000000000000000000000000000000000000     00000000                                                                                                                        000000000000000000
F0010000007026900001000090037350200011050500000000000000000201504160002001JIMAR C Y J LTDA                                  D000000004000000000000000000000000100010010000000000000000000000F0010000007026900120150416000101 00000000000000000000000000000000000000000000000000000000000000000000000000000000000000000000000000000000000000000N 00000000000NCONT   00    00000000000          00000000000000000000000000000000000000000000 000000000000000A000000000000000000000000000000000000000000000 000000000000000000000000000000000000000     00000000                                                                                                                        000000000000000000
F0010000007026900002000090037350200041450500000000000000000201504160002001JIMAR C Y J LTDA                                  C000000003800000000000000000000000100010010000000000000000000000F0010000007026900220150416000101 00000000000000000000000000000000000000000000000000000000000000000000000000000000000000000000000000000000000000000N 00000000000NCONT   00    00000000000          00000000000000000000000000000000000000000000 000000000000000A000000000000000000000000000000000000000000000 000000000000000000000000000000000000000     00000000                                                                                                                        000000000000000000
F0010000007026900003000090037350200042505000000000000000000201504160002001JIMAR C Y J LTDA                                  C000000000200000000000000000000000100010010000000000000000000000F0010000007026900320150416000101 00000000000000000000000000000000000000000000000000000000000000000000000000000000000000000000000000000000000000000N 00000000000NCONT   00    00000000000          00000000000000000000000000000000000000000000 000000000000000A000000000000000000000000000000000000000000000 000000000000000000000000000000000000000     00000000                                                                                                                        000000000000000000
F0010000007026900004000090037350200023658300000000000000000201504160002001JIMAR C Y J LTDA                                  C000000000030400000000000000000000100010010000000000000000000000F0010000007026900420150416000101 00000000000000000000000000000000000000000000000000000000000000000000000000000000000000000000000000000000000000000N 00000000000NCONT   00    00000000000          00000000000000000000000000000000000000000000 000000000000000A000000000000000000000000000000000000000000000 000000000000000000000000000000000000000     00000000                                                                                                                        000000000000000000
F0010000007026900005000090037350200013552100000000000000000201504160002001JIMAR C Y J LTDA                                  D000000000030400000000000000000000100010010000000000000000000000F0010000007026900520150416000101 00000000000000000000000000000000000000000000000000000000000000000000000000000000000000000000000000000000000000000N 00000000000NCONT   00    00000000000          00000000000000000000000000000000000000000000 000000000000000A000000000000000000000000000000000000000000000 000000000000000000000000000000000000000     00000000                                                                                                                        000000000000000000
F0010000007027000001000090034602400011050500000000000000000201504160002001LA CUSTODIA                                       D000000002000000000000000000000000100010010000000000000000000000F0010000007027000120150416000101 00000000000000000000000000000000000000000000000000000000000000000000000000000000000000000000000000000000000000000N 00000000000NCONT   00    00000000000          00000000000000000000000000000000000000000000 000000000000000A000000000000000000000000000000000000000000000 000000000000000000000000000000000000000     00000000                                                                                                                        000000000000000000
F0010000007027000002000090034602400041450500000000000000000201504160002001LA CUSTODIA                                       C000000001800000000000000000000000100010010000000000000000000000F0010000007027000220150416000101 00000000000000000000000000000000000000000000000000000000000000000000000000000000000000000000000000000000000000000N 00000000000NCONT   00    00000000000          00000000000000000000000000000000000000000000 000000000000000A000000000000000000000000000000000000000000000 000000000000000000000000000000000000000     00000000                                                                                                                        000000000000000000
F0010000007027000003000090034602400042505000000000000000000201504160002001LA CUSTODIA                                       C000000000200000000000000000000000100010010000000000000000000000F0010000007027000320150416000101 00000000000000000000000000000000000000000000000000000000000000000000000000000000000000000000000000000000000000000N 00000000000NCONT   00    00000000000          00000000000000000000000000000000000000000000 000000000000000A000000000000000000000000000000000000000000000 000000000000000000000000000000000000000     00000000                                                                                                                        000000000000000000
F0010000007027000004000090034602400023658300000000000000000201504160002001LA CUSTODIA                                       C000000000014400000000000000000000100010010000000000000000000000F0010000007027000420150416000101 00000000000000000000000000000000000000000000000000000000000000000000000000000000000000000000000000000000000000000N 00000000000NCONT   00    00000000000          00000000000000000000000000000000000000000000 000000000000000A000000000000000000000000000000000000000000000 000000000000000000000000000000000000000     00000000                                                                                                                        000000000000000000
F0010000007027000005000090034602400013552100000000000000000201504160002001LA CUSTODIA                                       D000000000014400000000000000000000100010010000000000000000000000F0010000007027000520150416000101 00000000000000000000000000000000000000000000000000000000000000000000000000000000000000000000000000000000000000000N 00000000000NCONT   00    00000000000          00000000000000000000000000000000000000000000 000000000000000A000000000000000000000000000000000000000000000 000000000000000000000000000000000000000     00000000                                                                                                                        000000000000000000
F0010000007027100001000080013437100011050500000000000000000201504160002001CORTEACEROS SA                                    D000000007500000000000000000000000100010010000000000000000000000F0010000007027100120150416000101 00000000000000000000000000000000000000000000000000000000000000000000000000000000000000000000000000000000000000000N 00000000000NCONT   00    00000000000          00000000000000000000000000000000000000000000 000000000000000A000000000000000000000000000000000000000000000 000000000000000000000000000000000000000     00000000                                                                                                                        000000000000000000
F0010000007027100002000080013437100041450500000000000000000201504160002001CORTEACEROS SA                                    C000000006500000000000000000000000100010010000000000000000000000F0010000007027100220150416000101 00000000000000000000000000000000000000000000000000000000000000000000000000000000000000000000000000000000000000000N 00000000000NCONT   00    00000000000          00000000000000000000000000000000000000000000 000000000000000A000000000000000000000000000000000000000000000 000000000000000000000000000000000000000     00000000                                                                                                                        000000000000000000
F0010000007027100003000080013437100042505000000000000000000201504160002001CORTEACEROS SA                                    C000000001000000000000000000000000100010010000000000000000000000F0010000007027100320150416000101 00000000000000000000000000000000000000000000000000000000000000000000000000000000000000000000000000000000000000000N 00000000000NCONT   00    00000000000          00000000000000000000000000000000000000000000 000000000000000A000000000000000000000000000000000000000000000 000000000000000000000000000000000000000     00000000                                                                                                                        000000000000000000
F0010000007027100004000080013437100023658300000000000000000201504160002001CORTEACEROS SA                                    C000000000052000000000000000000000100010010000000000000000000000F0010000007027100420150416000101 00000000000000000000000000000000000000000000000000000000000000000000000000000000000000000000000000000000000000000N 00000000000NCONT   00    00000000000          00000000000000000000000000000000000000000000 000000000000000A000000000000000000000000000000000000000000000 000000000000000000000000000000000000000     00000000                                                                                                                        000000000000000000
F0010000007027100005000080013437100013552100000000000000000201504160002001CORTEACEROS SA                                    D000000000052000000000000000000000100010010000000000000000000000F0010000007027100520150416000101 00000000000000000000000000000000000000000000000000000000000000000000000000000000000000000000000000000000000000000N 00000000000NCONT   00    00000000000          00000000000000000000000000000000000000000000 000000000000000A000000000000000000000000000000000000000000000 000000000000000000000000000000000000000     00000000                                                                                                                        000000000000000000
F0010000007027200001000000876579700011050500000000000000000201504160002001JOSE LUIS MUÑOZ                                  D000000003000000000000000000000000100010010000000000000000000000F0010000007027200120150416000101 00000000000000000000000000000000000000000000000000000000000000000000000000000000000000000000000000000000000000000N 00000000000NCONT   00    00000000000          00000000000000000000000000000000000000000000 000000000000000A000000000000000000000000000000000000000000000 000000000000000000000000000000000000000     00000000                                                                                                                        000000000000000000
F0010000007027200002000000876579700041450500000000000000000201504160002001JOSE LUIS MUÑOZ                                  C000000002800000000000000000000000100010010000000000000000000000F0010000007027200220150416000101 00000000000000000000000000000000000000000000000000000000000000000000000000000000000000000000000000000000000000000N 00000000000NCONT   00    00000000000          00000000000000000000000000000000000000000000 000000000000000A000000000000000000000000000000000000000000000 000000000000000000000000000000000000000     00000000                                                                                                                        000000000000000000
F0010000007027200003000000876579700042505000000000000000000201504160002001JOSE LUIS MUÑOZ                                  C000000000200000000000000000000000100010010000000000000000000000F0010000007027200320150416000101 00000000000000000000000000000000000000000000000000000000000000000000000000000000000000000000000000000000000000000N 00000000000NCONT   00    00000000000          00000000000000000000000000000000000000000000 000000000000000A000000000000000000000000000000000000000000000 000000000000000000000000000000000000000     00000000                                                                                                                        000000000000000000
F0010000007027200004000000876579700023658300000000000000000201504160002001JOSE LUIS MUÑOZ                                  C000000000022400000000000000000000100010010000000000000000000000F0010000007027200420150416000101 00000000000000000000000000000000000000000000000000000000000000000000000000000000000000000000000000000000000000000N 00000000000NCONT   00    00000000000          00000000000000000000000000000000000000000000 000000000000000A000000000000000000000000000000000000000000000 000000000000000000000000000000000000000     00000000                                                                                                                        000000000000000000
F0010000007027200005000000876579700013552100000000000000000201504160002001JOSE LUIS MUÑOZ                                  D000000000022400000000000000000000100010010000000000000000000000F0010000007027200520150416000101 00000000000000000000000000000000000000000000000000000000000000000000000000000000000000000000000000000000000000000N 00000000000NCONT   00    00000000000          00000000000000000000000000000000000000000000 000000000000000A000000000000000000000000000000000000000000000 000000000000000000000000000000000000000     00000000                                                                                                                        000000000000000000
F0010000007027300001000090055180500011050500000000000000000201504160002001LAMINAS Y SUELAS DE COLOMBIA S.A.S                D000000050000000000000000000000000100010010000000000000000000000F0010000007027300120150416000101 00000000000000000000000000000000000000000000000000000000000000000000000000000000000000000000000000000000000000000N 00000000000NCONT   00    00000000000          00000000000000000000000000000000000000000000 000000000000000A000000000000000000000000000000000000000000000 000000000000000000000000000000000000000     00000000                                                                                                                        000000000000000000
F0010000007027300002000090055180500041450500000000000000000201504160002001LAMINAS Y SUELAS DE COLOMBIA S.A.S                C000000045000000000000000000000000100010010000000000000000000000F0010000007027300220150416000101 00000000000000000000000000000000000000000000000000000000000000000000000000000000000000000000000000000000000000000N 00000000000NCONT   00    00000000000          00000000000000000000000000000000000000000000 000000000000000A000000000000000000000000000000000000000000000 000000000000000000000000000000000000000     00000000                                                                                                                        000000000000000000
F0010000007027300003000090055180500042505000000000000000000201504160002001LAMINAS Y SUELAS DE COLOMBIA S.A.S                C000000005000000000000000000000000100010010000000000000000000000F0010000007027300320150416000101 00000000000000000000000000000000000000000000000000000000000000000000000000000000000000000000000000000000000000000N 00000000000NCONT   00    00000000000          00000000000000000000000000000000000000000000 000000000000000A000000000000000000000000000000000000000000000 000000000000000000000000000000000000000     00000000                                                                                                                        000000000000000000
F0010000007027300004000090055180500023658300000000000000000201504160002001LAMINAS Y SUELAS DE COLOMBIA S.A.S                C000000000360000000000000000000000100010010000000000000000000000F0010000007027300420150416000101 00000000000000000000000000000000000000000000000000000000000000000000000000000000000000000000000000000000000000000N 00000000000NCONT   00    00000000000          00000000000000000000000000000000000000000000 000000000000000A000000000000000000000000000000000000000000000 000000000000000000000000000000000000000     00000000                                                                                                                        000000000000000000
F0010000007027300005000090055180500013552100000000000000000201504160002001LAMINAS Y SUELAS DE COLOMBIA S.A.S                D000000000360000000000000000000000100010010000000000000000000000F0010000007027300520150416000101 00000000000000000000000000000000000000000000000000000000000000000000000000000000000000000000000000000000000000000N 00000000000NCONT   00    00000000000          00000000000000000000000000000000000000000000 000000000000000A000000000000000000000000000000000000000000000 000000000000000000000000000000000000000     00000000                                                                                                                        000000000000000000
F0010000007027400001000090055180500011050500000000000000000201504160002001LAMINAS Y SUELAS DE COLOMBIA S.A.S                D000000015000000000000000000000000100010010000000000000000000000F0010000007027400120150416000101 00000000000000000000000000000000000000000000000000000000000000000000000000000000000000000000000000000000000000000N 00000000000NCONT   00    00000000000          00000000000000000000000000000000000000000000 000000000000000A000000000000000000000000000000000000000000000 000000000000000000000000000000000000000     00000000                                                                                                                        000000000000000000
F0010000007027400002000090055180500041450500000000000000000201504160002001LAMINAS Y SUELAS DE COLOMBIA S.A.S                C000000015000000000000000000000000100010010000000000000000000000F0010000007027400220150416000101 00000000000000000000000000000000000000000000000000000000000000000000000000000000000000000000000000000000000000000N 00000000000NCONT   00    00000000000          00000000000000000000000000000000000000000000 000000000000000A000000000000000000000000000000000000000000000 000000000000000000000000000000000000000     00000000                                                                                                                        000000000000000000
F0010000007027400003000090055180500042505000000000000000000201504160002001LAMINAS Y SUELAS DE COLOMBIA S.A.S                C000000000000000000000000000000000100010010000000000000000000000F0010000007027400320150416000101 00000000000000000000000000000000000000000000000000000000000000000000000000000000000000000000000000000000000000000N 00000000000NCONT   00    00000000000          00000000000000000000000000000000000000000000 000000000000000A000000000000000000000000000000000000000000000 000000000000000000000000000000000000000     00000000                                                                                                                        000000000000000000
F0010000007027400004000090055180500023658300000000000000000201504160002001LAMINAS Y SUELAS DE COLOMBIA S.A.S                C000000000120000000000000000000000100010010000000000000000000000F0010000007027400420150416000101 00000000000000000000000000000000000000000000000000000000000000000000000000000000000000000000000000000000000000000N 00000000000NCONT   00    00000000000          00000000000000000000000000000000000000000000 000000000000000A000000000000000000000000000000000000000000000 000000000000000000000000000000000000000     00000000                                                                                                                        000000000000000000
F0010000007027400005000090055180500013552100000000000000000201504160002001LAMINAS Y SUELAS DE COLOMBIA S.A.S                D000000000120000000000000000000000100010010000000000000000000000F0010000007027400520150416000101 00000000000000000000000000000000000000000000000000000000000000000000000000000000000000000000000000000000000000000N 00000000000NCONT   00    00000000000          00000000000000000000000000000000000000000000 000000000000000A000000000000000000000000000000000000000000000 000000000000000000000000000000000000000     00000000                                                                                                                        000000000000000000
F0010000007027500001000003916363500011050500000000000000000201504160002001ORFILIA OSORIO                                    D000000008500000000000000000000000100010010000000000000000000000F0010000007027500120150416000101 00000000000000000000000000000000000000000000000000000000000000000000000000000000000000000000000000000000000000000N 00000000000NCONT   00    00000000000          00000000000000000000000000000000000000000000 000000000000000A000000000000000000000000000000000000000000000 000000000000000000000000000000000000000     00000000                                                                                                                        000000000000000000
F0010000007027500002000003916363500041450500000000000000000201504160002001ORFILIA OSORIO                                    C000000008000000000000000000000000100010010000000000000000000000F0010000007027500220150416000101 00000000000000000000000000000000000000000000000000000000000000000000000000000000000000000000000000000000000000000N 00000000000NCONT   00    00000000000          00000000000000000000000000000000000000000000 000000000000000A000000000000000000000000000000000000000000000 000000000000000000000000000000000000000     00000000                                                                                                                        000000000000000000
F0010000007027500003000003916363500042505000000000000000000201504160002001ORFILIA OSORIO                                    C000000000500000000000000000000000100010010000000000000000000000F0010000007027500320150416000101 00000000000000000000000000000000000000000000000000000000000000000000000000000000000000000000000000000000000000000N 00000000000NCONT   00    00000000000          00000000000000000000000000000000000000000000 000000000000000A000000000000000000000000000000000000000000000 000000000000000000000000000000000000000     00000000                                                                                                                        000000000000000000
F0010000007027500004000003916363500023658300000000000000000201504160002001ORFILIA OSORIO                                    C000000000064000000000000000000000100010010000000000000000000000F0010000007027500420150416000101 00000000000000000000000000000000000000000000000000000000000000000000000000000000000000000000000000000000000000000N 00000000000NCONT   00    00000000000          00000000000000000000000000000000000000000000 000000000000000A000000000000000000000000000000000000000000000 000000000000000000000000000000000000000     00000000                                                                                                                        000000000000000000
F0010000007027500005000003916363500013552100000000000000000201504160002001ORFILIA OSORIO                                    D000000000064000000000000000000000100010010000000000000000000000F0010000007027500520150416000101 00000000000000000000000000000000000000000000000000000000000000000000000000000000000000000000000000000000000000000N 00000000000NCONT   00    00000000000          00000000000000000000000000000000000000000000 000000000000000A000000000000000000000000000000000000000000000 000000000000000000000000000000000000000     00000000                                                                                                                        000000000000000000
F0010000007027600001000090027633800011050500000000000000000201504160002001MALLAS Y CERRAMIENTOS DEL ATLANTICO LTDA          D000000010000000000000000000000000100010010000000000000000000000F0010000007027600120150416000101 00000000000000000000000000000000000000000000000000000000000000000000000000000000000000000000000000000000000000000N 00000000000NCONT   00    00000000000          00000000000000000000000000000000000000000000 000000000000000A000000000000000000000000000000000000000000000 000000000000000000000000000000000000000     00000000                                                                                                                        000000000000000000
F0010000007027600002000090027633800041450500000000000000000201504160002001MALLAS Y CERRAMIENTOS DEL ATLANTICO LTDA          C000000009000000000000000000000000100010010000000000000000000000F0010000007027600220150416000101 00000000000000000000000000000000000000000000000000000000000000000000000000000000000000000000000000000000000000000N 00000000000NCONT   00    00000000000          00000000000000000000000000000000000000000000 000000000000000A000000000000000000000000000000000000000000000 000000000000000000000000000000000000000     00000000                                                                                                                        000000000000000000
F0010000007027600003000090027633800042505000000000000000000201504160002001MALLAS Y CERRAMIENTOS DEL ATLANTICO LTDA          C000000001000000000000000000000000100010010000000000000000000000F0010000007027600320150416000101 00000000000000000000000000000000000000000000000000000000000000000000000000000000000000000000000000000000000000000N 00000000000NCONT   00    00000000000          00000000000000000000000000000000000000000000 000000000000000A000000000000000000000000000000000000000000000 000000000000000000000000000000000000000     00000000                                                                                                                        000000000000000000
F0010000007027600004000090027633800023658300000000000000000201504160002001MALLAS Y CERRAMIENTOS DEL ATLANTICO LTDA          C000000000072000000000000000000000100010010000000000000000000000F0010000007027600420150416000101 00000000000000000000000000000000000000000000000000000000000000000000000000000000000000000000000000000000000000000N 00000000000NCONT   00    00000000000          00000000000000000000000000000000000000000000 000000000000000A000000000000000000000000000000000000000000000 000000000000000000000000000000000000000     00000000                                                                                                                        000000000000000000
F0010000007027600005000090027633800013552100000000000000000201504160002001MALLAS Y CERRAMIENTOS DEL ATLANTICO LTDA          D000000000072000000000000000000000100010010000000000000000000000F0010000007027600520150416000101 00000000000000000000000000000000000000000000000000000000000000000000000000000000000000000000000000000000000000000N 00000000000NCONT   00    00000000000          00000000000000000000000000000000000000000000 000000000000000A000000000000000000000000000000000000000000000 000000000000000000000000000000000000000     00000000                                                                                                                        000000000000000000
F0010000007027700001000080201703900011050500000000000000000201504160002001MUNDIAL CHEMICAL LTDA                             D000000001400000000000000000000000100010010000000000000000000000F0010000007027700120150416000101 00000000000000000000000000000000000000000000000000000000000000000000000000000000000000000000000000000000000000000N 00000000000NCONT   00    00000000000          00000000000000000000000000000000000000000000 000000000000000A000000000000000000000000000000000000000000000 000000000000000000000000000000000000000     00000000                                                                                                                        000000000000000000
F0010000007027700002000080201703900041450500000000000000000201504160002001MUNDIAL CHEMICAL LTDA                             C000000001200000000000000000000000100010010000000000000000000000F0010000007027700220150416000101 00000000000000000000000000000000000000000000000000000000000000000000000000000000000000000000000000000000000000000N 00000000000NCONT   00    00000000000          00000000000000000000000000000000000000000000 000000000000000A000000000000000000000000000000000000000000000 000000000000000000000000000000000000000     00000000                                                                                                                        000000000000000000
F0010000007027700003000080201703900042505000000000000000000201504160002001MUNDIAL CHEMICAL LTDA                             C000000000200000000000000000000000100010010000000000000000000000F0010000007027700320150416000101 00000000000000000000000000000000000000000000000000000000000000000000000000000000000000000000000000000000000000000N 00000000000NCONT   00    00000000000          00000000000000000000000000000000000000000000 000000000000000A000000000000000000000000000000000000000000000 000000000000000000000000000000000000000     00000000                                                                                                                        000000000000000000
F0010000007027700004000080201703900023658300000000000000000201504160002001MUNDIAL CHEMICAL LTDA                             C000000000009600000000000000000000100010010000000000000000000000F0010000007027700420150416000101 00000000000000000000000000000000000000000000000000000000000000000000000000000000000000000000000000000000000000000N 00000000000NCONT   00    00000000000          00000000000000000000000000000000000000000000 000000000000000A000000000000000000000000000000000000000000000 000000000000000000000000000000000000000     00000000                                                                                                                        000000000000000000
F0010000007027700005000080201703900013552100000000000000000201504160002001MUNDIAL CHEMICAL LTDA                             D000000000009600000000000000000000100010010000000000000000000000F0010000007027700520150416000101 00000000000000000000000000000000000000000000000000000000000000000000000000000000000000000000000000000000000000000N 00000000000NCONT   00    00000000000          00000000000000000000000000000000000000000000 000000000000000A000000000000000000000000000000000000000000000 000000000000000000000000000000000000000     00000000                                                                                                                        000000000000000000
F0010000007027800001000080014190300011050500000000000000000201504160002001QUIMINSA LTDA                                     D000000002100000000000000000000000100010010000000000000000000000F0010000007027800120150416000101 00000000000000000000000000000000000000000000000000000000000000000000000000000000000000000000000000000000000000000N 00000000000NCONT   00    00000000000          00000000000000000000000000000000000000000000 000000000000000A000000000000000000000000000000000000000000000 000000000000000000000000000000000000000     00000000                                                                                                                        000000000000000000
F0010000007027800002000080014190300041450500000000000000000201504160002001QUIMINSA LTDA                                     C000000001660000000000000000000000100010010000000000000000000000F0010000007027800220150416000101 00000000000000000000000000000000000000000000000000000000000000000000000000000000000000000000000000000000000000000N 00000000000NCONT   00    00000000000          00000000000000000000000000000000000000000000 000000000000000A000000000000000000000000000000000000000000000 000000000000000000000000000000000000000     00000000                                                                                                                        000000000000000000
F0010000007027800003000080014190300042505000000000000000000201504160002001QUIMINSA LTDA                                     C000000000440000000000000000000000100010010000000000000000000000F0010000007027800320150416000101 00000000000000000000000000000000000000000000000000000000000000000000000000000000000000000000000000000000000000000N 00000000000NCONT   00    00000000000          00000000000000000000000000000000000000000000 000000000000000A000000000000000000000000000000000000000000000 000000000000000000000000000000000000000     00000000                                                                                                                        000000000000000000
F0010000007027800004000080014190300023658300000000000000000201504160002001QUIMINSA LTDA                                     C000000000013300000000000000000000100010010000000000000000000000F0010000007027800420150416000101 00000000000000000000000000000000000000000000000000000000000000000000000000000000000000000000000000000000000000000N 00000000000NCONT   00    00000000000          00000000000000000000000000000000000000000000 000000000000000A000000000000000000000000000000000000000000000 000000000000000000000000000000000000000     00000000                                                                                                                        000000000000000000
F0010000007027800005000080014190300013552100000000000000000201504160002001QUIMINSA LTDA                                     D000000000013300000000000000000000100010010000000000000000000000F0010000007027800520150416000101 00000000000000000000000000000000000000000000000000000000000000000000000000000000000000000000000000000000000000000N 00000000000NCONT   00    00000000000          00000000000000000000000000000000000000000000 000000000000000A000000000000000000000000000000000000000000000 000000000000000000000000000000000000000     00000000                                                                                                                        000000000000000000
F0010000007027900001000080201703900011050500000000000000000201504160002001MUNDIAL CHEMICAL LTDA                             D000000003100000000000000000000000100010010000000000000000000000F0010000007027900120150416000101 00000000000000000000000000000000000000000000000000000000000000000000000000000000000000000000000000000000000000000N 00000000000NCONT   00    00000000000          00000000000000000000000000000000000000000000 000000000000000A000000000000000000000000000000000000000000000 000000000000000000000000000000000000000     00000000                                                                                                                        000000000000000000
F0010000007027900002000080201703900041450500000000000000000201504160002001MUNDIAL CHEMICAL LTDA                             C000000002500000000000000000000000100010010000000000000000000000F0010000007027900220150416000101 00000000000000000000000000000000000000000000000000000000000000000000000000000000000000000000000000000000000000000N 00000000000NCONT   00    00000000000          00000000000000000000000000000000000000000000 000000000000000A000000000000000000000000000000000000000000000 000000000000000000000000000000000000000     00000000                                                                                                                        000000000000000000
F0010000007027900003000080201703900042505000000000000000000201504160002001MUNDIAL CHEMICAL LTDA                             C000000000600000000000000000000000100010010000000000000000000000F0010000007027900320150416000101 00000000000000000000000000000000000000000000000000000000000000000000000000000000000000000000000000000000000000000N 00000000000NCONT   00    00000000000          00000000000000000000000000000000000000000000 000000000000000A000000000000000000000000000000000000000000000 000000000000000000000000000000000000000     00000000                                                                                                                        000000000000000000
F0010000007027900004000080201703900023658300000000000000000201504160002001MUNDIAL CHEMICAL LTDA                             C000000000020000000000000000000000100010010000000000000000000000F0010000007027900420150416000101 00000000000000000000000000000000000000000000000000000000000000000000000000000000000000000000000000000000000000000N 00000000000NCONT   00    00000000000          00000000000000000000000000000000000000000000 000000000000000A000000000000000000000000000000000000000000000 000000000000000000000000000000000000000     00000000                                                                                                                        000000000000000000
F0010000007027900005000080201703900013552100000000000000000201504160002001MUNDIAL CHEMICAL LTDA                             D000000000020000000000000000000000100010010000000000000000000000F0010000007027900520150416000101 00000000000000000000000000000000000000000000000000000000000000000000000000000000000000000000000000000000000000000N 00000000000NCONT   00    00000000000          00000000000000000000000000000000000000000000 000000000000000A000000000000000000000000000000000000000000000 000000000000000000000000000000000000000     00000000                                                                                                                        000000000000000000
F0010000007028000001000080201703900011050500000000000000000201504160002001MUNDIAL CHEMICAL LTDA                             D000000001100000000000000000000000100010010000000000000000000000F0010000007028000120150416000101 00000000000000000000000000000000000000000000000000000000000000000000000000000000000000000000000000000000000000000N 00000000000NCONT   00    00000000000          00000000000000000000000000000000000000000000 000000000000000A000000000000000000000000000000000000000000000 000000000000000000000000000000000000000     00000000                                                                                                                        000000000000000000
F0010000007028000002000080201703900041450500000000000000000201504160002001MUNDIAL CHEMICAL LTDA                             C000000000830000000000000000000000100010010000000000000000000000F0010000007028000220150416000101 00000000000000000000000000000000000000000000000000000000000000000000000000000000000000000000000000000000000000000N 00000000000NCONT   00    00000000000          00000000000000000000000000000000000000000000 000000000000000A000000000000000000000000000000000000000000000 000000000000000000000000000000000000000     00000000                                                                                                                        000000000000000000
F0010000007028000003000080201703900042505000000000000000000201504160002001MUNDIAL CHEMICAL LTDA                             C000000000270000000000000000000000100010010000000000000000000000F0010000007028000320150416000101 00000000000000000000000000000000000000000000000000000000000000000000000000000000000000000000000000000000000000000N 00000000000NCONT   00    00000000000          00000000000000000000000000000000000000000000 000000000000000A000000000000000000000000000000000000000000000 000000000000000000000000000000000000000     00000000                                                                                                                        000000000000000000
F0010000007028000004000080201703900023658300000000000000000201504160002001MUNDIAL CHEMICAL LTDA                             C000000000006600000000000000000000100010010000000000000000000000F0010000007028000420150416000101 00000000000000000000000000000000000000000000000000000000000000000000000000000000000000000000000000000000000000000N 00000000000NCONT   00    00000000000          00000000000000000000000000000000000000000000 000000000000000A000000000000000000000000000000000000000000000 000000000000000000000000000000000000000     00000000                                                                                                                        000000000000000000
F0010000007028000005000080201703900013552100000000000000000201504160002001MUNDIAL CHEMICAL LTDA                             D000000000006600000000000000000000100010010000000000000000000000F0010000007028000520150416000101 00000000000000000000000000000000000000000000000000000000000000000000000000000000000000000000000000000000000000000N 00000000000NCONT   00    00000000000          00000000000000000000000000000000000000000000 000000000000000A000000000000000000000000000000000000000000000 000000000000000000000000000000000000000     00000000                                                                                                                        000000000000000000
F0010000007028100001000080201703900011050500000000000000000201504160002001MUNDIAL CHEMICAL LTDA                             D000000001800000000000000000000000100010010000000000000000000000F0010000007028100120150416000101 00000000000000000000000000000000000000000000000000000000000000000000000000000000000000000000000000000000000000000N 00000000000NCONT   00    00000000000          00000000000000000000000000000000000000000000 000000000000000A000000000000000000000000000000000000000000000 000000000000000000000000000000000000000     00000000                                                                                                                        000000000000000000
F0010000007028100002000080201703900041450500000000000000000201504160002001MUNDIAL CHEMICAL LTDA                             C000000001400000000000000000000000100010010000000000000000000000F0010000007028100220150416000101 00000000000000000000000000000000000000000000000000000000000000000000000000000000000000000000000000000000000000000N 00000000000NCONT   00    00000000000          00000000000000000000000000000000000000000000 000000000000000A000000000000000000000000000000000000000000000 000000000000000000000000000000000000000     00000000                                                                                                                        000000000000000000
F0010000007028100003000080201703900042505000000000000000000201504160002001MUNDIAL CHEMICAL LTDA                             C000000000400000000000000000000000100010010000000000000000000000F0010000007028100320150416000101 00000000000000000000000000000000000000000000000000000000000000000000000000000000000000000000000000000000000000000N 00000000000NCONT   00    00000000000          00000000000000000000000000000000000000000000 000000000000000A000000000000000000000000000000000000000000000 000000000000000000000000000000000000000     00000000                                                                                                                        000000000000000000
F0010000007028100004000080201703900023658300000000000000000201504160002001MUNDIAL CHEMICAL LTDA                             C000000000011200000000000000000000100010010000000000000000000000F0010000007028100420150416000101 00000000000000000000000000000000000000000000000000000000000000000000000000000000000000000000000000000000000000000N 00000000000NCONT   00    00000000000          00000000000000000000000000000000000000000000 000000000000000A000000000000000000000000000000000000000000000 000000000000000000000000000000000000000     00000000                                                                                                                        000000000000000000
F0010000007028100005000080201703900013552100000000000000000201504160002001MUNDIAL CHEMICAL LTDA                             D000000000011200000000000000000000100010010000000000000000000000F0010000007028100520150416000101 00000000000000000000000000000000000000000000000000000000000000000000000000000000000000000000000000000000000000000N 00000000000NCONT   00    00000000000          00000000000000000000000000000000000000000000 000000000000000A000000000000000000000000000000000000000000000 000000000000000000000000000000000000000     00000000                                                                                                                        000000000000000000
F0010000007028200001000080201703900011050500000000000000000201504160002001MUNDIAL CHEMICAL LTDA                             D000000005200000000000000000000000100010010000000000000000000000F0010000007028200120150416000101 00000000000000000000000000000000000000000000000000000000000000000000000000000000000000000000000000000000000000000N 00000000000NCONT   00    00000000000          00000000000000000000000000000000000000000000 000000000000000A000000000000000000000000000000000000000000000 000000000000000000000000000000000000000     00000000                                                                                                                        000000000000000000
F0010000007028200002000080201703900041450500000000000000000201504160002001MUNDIAL CHEMICAL LTDA                             C000000005000000000000000000000000100010010000000000000000000000F0010000007028200220150416000101 00000000000000000000000000000000000000000000000000000000000000000000000000000000000000000000000000000000000000000N 00000000000NCONT   00    00000000000          00000000000000000000000000000000000000000000 000000000000000A000000000000000000000000000000000000000000000 000000000000000000000000000000000000000     00000000                                                                                                                        000000000000000000
F0010000007028200003000080201703900042505000000000000000000201504160002001MUNDIAL CHEMICAL LTDA                             C000000000200000000000000000000000100010010000000000000000000000F0010000007028200320150416000101 00000000000000000000000000000000000000000000000000000000000000000000000000000000000000000000000000000000000000000N 00000000000NCONT   00    00000000000          00000000000000000000000000000000000000000000 000000000000000A000000000000000000000000000000000000000000000 000000000000000000000000000000000000000     00000000                                                                                                                        000000000000000000
F0010000007028200004000080201703900023658300000000000000000201504160002001MUNDIAL CHEMICAL LTDA                             C000000000040000000000000000000000100010010000000000000000000000F0010000007028200420150416000101 00000000000000000000000000000000000000000000000000000000000000000000000000000000000000000000000000000000000000000N 00000000000NCONT   00    00000000000          00000000000000000000000000000000000000000000 000000000000000A000000000000000000000000000000000000000000000 000000000000000000000000000000000000000     00000000                                                                                                                        000000000000000000
F0010000007028200005000080201703900013552100000000000000000201504160002001MUNDIAL CHEMICAL LTDA                             D000000000040000000000000000000000100010010000000000000000000000F0010000007028200520150416000101 00000000000000000000000000000000000000000000000000000000000000000000000000000000000000000000000000000000000000000N 00000000000NCONT   00    00000000000          00000000000000000000000000000000000000000000 000000000000000A000000000000000000000000000000000000000000000 000000000000000000000000000000000000000     00000000                                                                                                                        000000000000000000
F0010000007028300001000000870907300011050500000000000000000201504160002001SURTIDOR FERRETERO                                D000000009400000000000000000000000100010010000000000000000000000F0010000007028300120150416000101 00000000000000000000000000000000000000000000000000000000000000000000000000000000000000000000000000000000000000000N 00000000000NCONT   00    00000000000          00000000000000000000000000000000000000000000 000000000000000A000000000000000000000000000000000000000000000 000000000000000000000000000000000000000     00000000                                                                                                                        000000000000000000
F0010000007028300002000000870907300041450500000000000000000201504160002001SURTIDOR FERRETERO                                C000000007200000000000000000000000100010010000000000000000000000F0010000007028300220150416000101 00000000000000000000000000000000000000000000000000000000000000000000000000000000000000000000000000000000000000000N 00000000000NCONT   00    00000000000          00000000000000000000000000000000000000000000 000000000000000A000000000000000000000000000000000000000000000 000000000000000000000000000000000000000     00000000                                                                                                                        000000000000000000
F0010000007028300003000000870907300042505000000000000000000201504160002001SURTIDOR FERRETERO                                C000000002200000000000000000000000100010010000000000000000000000F0010000007028300320150416000101 00000000000000000000000000000000000000000000000000000000000000000000000000000000000000000000000000000000000000000N 00000000000NCONT   00    00000000000          00000000000000000000000000000000000000000000 000000000000000A000000000000000000000000000000000000000000000 000000000000000000000000000000000000000     00000000                                                                                                                        000000000000000000
F0010000007028300004000000870907300023658300000000000000000201504160002001SURTIDOR FERRETERO                                C000000000057600000000000000000000100010010000000000000000000000F0010000007028300420150416000101 00000000000000000000000000000000000000000000000000000000000000000000000000000000000000000000000000000000000000000N 00000000000NCONT   00    00000000000          00000000000000000000000000000000000000000000 000000000000000A000000000000000000000000000000000000000000000 000000000000000000000000000000000000000     00000000                                                                                                                        000000000000000000
F0010000007028300005000000870907300013552100000000000000000201504160002001SURTIDOR FERRETERO                                D000000000057600000000000000000000100010010000000000000000000000F0010000007028300520150416000101 00000000000000000000000000000000000000000000000000000000000000000000000000000000000000000000000000000000000000000N 00000000000NCONT   00    00000000000          00000000000000000000000000000000000000000000 000000000000000A000000000000000000000000000000000000000000000 000000000000000000000000000000000000000     00000000                                                                                                                        000000000000000000
F0010000007028400001000090050144800011050500000000000000000201504160002001PLASTICOS JR ASOCIADOS SAS                        D000000013420000000000000000000000100010010000000000000000000000F0010000007028400120150416000101 00000000000000000000000000000000000000000000000000000000000000000000000000000000000000000000000000000000000000000N 00000000000NCONT   00    00000000000          00000000000000000000000000000000000000000000 000000000000000A000000000000000000000000000000000000000000000 000000000000000000000000000000000000000     00000000                                                                                                                        000000000000000000
F0010000007028400002000090050144800041450500000000000000000201504160002001PLASTICOS JR ASOCIADOS SAS                        C000000012300000000000000000000000100010010000000000000000000000F0010000007028400220150416000101 00000000000000000000000000000000000000000000000000000000000000000000000000000000000000000000000000000000000000000N 00000000000NCONT   00    00000000000          00000000000000000000000000000000000000000000 000000000000000A000000000000000000000000000000000000000000000 000000000000000000000000000000000000000     00000000                                                                                                                        000000000000000000
F0010000007028400003000090050144800042505000000000000000000201504160002001PLASTICOS JR ASOCIADOS SAS                        C000000001120000000000000000000000100010010000000000000000000000F0010000007028400320150416000101 00000000000000000000000000000000000000000000000000000000000000000000000000000000000000000000000000000000000000000N 00000000000NCONT   00    00000000000          00000000000000000000000000000000000000000000 000000000000000A000000000000000000000000000000000000000000000 000000000000000000000000000000000000000     00000000                                                                                                                        000000000000000000
F0010000007028400004000090050144800023658300000000000000000201504160002001PLASTICOS JR ASOCIADOS SAS                        C000000000098400000000000000000000100010010000000000000000000000F0010000007028400420150416000101 00000000000000000000000000000000000000000000000000000000000000000000000000000000000000000000000000000000000000000N 00000000000NCONT   00    00000000000          00000000000000000000000000000000000000000000 000000000000000A000000000000000000000000000000000000000000000 000000000000000000000000000000000000000     00000000                                                                                                                        000000000000000000
F0010000007028400005000090050144800013552100000000000000000201504160002001PLASTICOS JR ASOCIADOS SAS                        D000000000098400000000000000000000100010010000000000000000000000F0010000007028400520150416000101 00000000000000000000000000000000000000000000000000000000000000000000000000000000000000000000000000000000000000000N 00000000000NCONT   00    00000000000          00000000000000000000000000000000000000000000 000000000000000A000000000000000000000000000000000000000000000 000000000000000000000000000000000000000     00000000                                                                                                                        000000000000000000
F0010000007028500001000090050144800011050500000000000000000201504160002001PLASTICOS JR ASOCIADOS SAS                        D000000003000000000000000000000000100010010000000000000000000000F0010000007028500120150416000101 00000000000000000000000000000000000000000000000000000000000000000000000000000000000000000000000000000000000000000N 00000000000NCONT   00    00000000000          00000000000000000000000000000000000000000000 000000000000000A000000000000000000000000000000000000000000000 000000000000000000000000000000000000000     00000000                                                                                                                        000000000000000000
F0010000007028500002000090050144800041450500000000000000000201504160002001PLASTICOS JR ASOCIADOS SAS                        C000000002600000000000000000000000100010010000000000000000000000F0010000007028500220150416000101 00000000000000000000000000000000000000000000000000000000000000000000000000000000000000000000000000000000000000000N 00000000000NCONT   00    00000000000          00000000000000000000000000000000000000000000 000000000000000A000000000000000000000000000000000000000000000 000000000000000000000000000000000000000     00000000                                                                                                                        000000000000000000
F0010000007028500003000090050144800042505000000000000000000201504160002001PLASTICOS JR ASOCIADOS SAS                        C000000000400000000000000000000000100010010000000000000000000000F0010000007028500320150416000101 00000000000000000000000000000000000000000000000000000000000000000000000000000000000000000000000000000000000000000N 00000000000NCONT   00    00000000000          00000000000000000000000000000000000000000000 000000000000000A000000000000000000000000000000000000000000000 000000000000000000000000000000000000000     00000000                                                                                                                        000000000000000000
F0010000007028500004000090050144800023658300000000000000000201504160002001PLASTICOS JR ASOCIADOS SAS                        C000000000020800000000000000000000100010010000000000000000000000F0010000007028500420150416000101 00000000000000000000000000000000000000000000000000000000000000000000000000000000000000000000000000000000000000000N 00000000000NCONT   00    00000000000          00000000000000000000000000000000000000000000 000000000000000A000000000000000000000000000000000000000000000 000000000000000000000000000000000000000     00000000                                                                                                                        000000000000000000
F0010000007028500005000090050144800013552100000000000000000201504160002001PLASTICOS JR ASOCIADOS SAS                        D000000000020800000000000000000000100010010000000000000000000000F0010000007028500520150416000101 00000000000000000000000000000000000000000000000000000000000000000000000000000000000000000000000000000000000000000N 00000000000NCONT   00    00000000000          00000000000000000000000000000000000000000000 000000000000000A000000000000000000000000000000000000000000000 000000000000000000000000000000000000000     00000000                                                                                                                        000000000000000000
F0010000007028600001000090050144800011050500000000000000000201504160002001PLASTICOS JR ASOCIADOS SAS                        D000000003100000000000000000000000100010010000000000000000000000F0010000007028600120150416000101 00000000000000000000000000000000000000000000000000000000000000000000000000000000000000000000000000000000000000000N 00000000000NCONT   00    00000000000          00000000000000000000000000000000000000000000 000000000000000A000000000000000000000000000000000000000000000 000000000000000000000000000000000000000     00000000                                                                                                                        000000000000000000
F0010000007028600002000090050144800041450500000000000000000201504160002001PLASTICOS JR ASOCIADOS SAS                        C000000002600000000000000000000000100010010000000000000000000000F0010000007028600220150416000101 00000000000000000000000000000000000000000000000000000000000000000000000000000000000000000000000000000000000000000N 00000000000NCONT   00    00000000000          00000000000000000000000000000000000000000000 000000000000000A000000000000000000000000000000000000000000000 000000000000000000000000000000000000000     00000000                                                                                                                        000000000000000000
F0010000007028600003000090050144800042505000000000000000000201504160002001PLASTICOS JR ASOCIADOS SAS                        C000000000500000000000000000000000100010010000000000000000000000F0010000007028600320150416000101 00000000000000000000000000000000000000000000000000000000000000000000000000000000000000000000000000000000000000000N 00000000000NCONT   00    00000000000          00000000000000000000000000000000000000000000 000000000000000A000000000000000000000000000000000000000000000 000000000000000000000000000000000000000     00000000                                                                                                                        000000000000000000
F0010000007028600004000090050144800023658300000000000000000201504160002001PLASTICOS JR ASOCIADOS SAS                        C000000000020800000000000000000000100010010000000000000000000000F0010000007028600420150416000101 00000000000000000000000000000000000000000000000000000000000000000000000000000000000000000000000000000000000000000N 00000000000NCONT   00    00000000000          00000000000000000000000000000000000000000000 000000000000000A000000000000000000000000000000000000000000000 000000000000000000000000000000000000000     00000000                                                                                                                        000000000000000000
F0010000007028600005000090050144800013552100000000000000000201504160002001PLASTICOS JR ASOCIADOS SAS                        D000000000020800000000000000000000100010010000000000000000000000F0010000007028600520150416000101 00000000000000000000000000000000000000000000000000000000000000000000000000000000000000000000000000000000000000000N 00000000000NCONT   00    00000000000          00000000000000000000000000000000000000000000 000000000000000A000000000000000000000000000000000000000000000 000000000000000000000000000000000000000     00000000                                                                                                                        000000000000000000
F0010000007028700001000002245670100011050500000000000000000201504160002001YOLANDA  TOBON                                    D000000003300000000000000000000000100010010000000000000000000000F0010000007028700120150416000101 00000000000000000000000000000000000000000000000000000000000000000000000000000000000000000000000000000000000000000N 00000000000NCONT   00    00000000000          00000000000000000000000000000000000000000000 000000000000000A000000000000000000000000000000000000000000000 000000000000000000000000000000000000000     00000000                                                                                                                        000000000000000000
F0010000007028700002000002245670100041450500000000000000000201504160002001YOLANDA  TOBON                                    C000000002700000000000000000000000100010010000000000000000000000F0010000007028700220150416000101 00000000000000000000000000000000000000000000000000000000000000000000000000000000000000000000000000000000000000000N 00000000000NCONT   00    00000000000          00000000000000000000000000000000000000000000 000000000000000A000000000000000000000000000000000000000000000 000000000000000000000000000000000000000     00000000                                                                                                                        000000000000000000
F0010000007028700003000002245670100042505000000000000000000201504160002001YOLANDA  TOBON                                    C000000000600000000000000000000000100010010000000000000000000000F0010000007028700320150416000101 00000000000000000000000000000000000000000000000000000000000000000000000000000000000000000000000000000000000000000N 00000000000NCONT   00    00000000000          00000000000000000000000000000000000000000000 000000000000000A000000000000000000000000000000000000000000000 000000000000000000000000000000000000000     00000000                                                                                                                        000000000000000000
F0010000007028700004000002245670100023658300000000000000000201504160002001YOLANDA  TOBON                                    C000000000021600000000000000000000100010010000000000000000000000F0010000007028700420150416000101 00000000000000000000000000000000000000000000000000000000000000000000000000000000000000000000000000000000000000000N 00000000000NCONT   00    00000000000          00000000000000000000000000000000000000000000 000000000000000A000000000000000000000000000000000000000000000 000000000000000000000000000000000000000     00000000                                                                                                                        000000000000000000
F0010000007028700005000002245670100013552100000000000000000201504160002001YOLANDA  TOBON                                    D000000000021600000000000000000000100010010000000000000000000000F0010000007028700520150416000101 00000000000000000000000000000000000000000000000000000000000000000000000000000000000000000000000000000000000000000N 00000000000NCONT   00    00000000000          00000000000000000000000000000000000000000000 000000000000000A000000000000000000000000000000000000000000000 000000000000000000000000000000000000000     00000000                                                                                                                        000000000000000000
F0010000007028800001000002245670100011050500000000000000000201504160002001YOLANDA  TOBON                                    D000000000700000000000000000000000100010010000000000000000000000F0010000007028800120150416000101 00000000000000000000000000000000000000000000000000000000000000000000000000000000000000000000000000000000000000000N 00000000000NCONT   00    00000000000          00000000000000000000000000000000000000000000 000000000000000A000000000000000000000000000000000000000000000 000000000000000000000000000000000000000     00000000                                                                                                                        000000000000000000
F0010000007028800002000002245670100041450500000000000000000201504160002001YOLANDA  TOBON                                    C000000000600000000000000000000000100010010000000000000000000000F0010000007028800220150416000101 00000000000000000000000000000000000000000000000000000000000000000000000000000000000000000000000000000000000000000N 00000000000NCONT   00    00000000000          00000000000000000000000000000000000000000000 000000000000000A000000000000000000000000000000000000000000000 000000000000000000000000000000000000000     00000000                                                                                                                        000000000000000000
F0010000007028800003000002245670100042505000000000000000000201504160002001YOLANDA  TOBON                                    C000000000100000000000000000000000100010010000000000000000000000F0010000007028800320150416000101 00000000000000000000000000000000000000000000000000000000000000000000000000000000000000000000000000000000000000000N 00000000000NCONT   00    00000000000          00000000000000000000000000000000000000000000 000000000000000A000000000000000000000000000000000000000000000 000000000000000000000000000000000000000     00000000                                                                                                                        000000000000000000
F0010000007028800004000002245670100023658300000000000000000201504160002001YOLANDA  TOBON                                    C000000000004800000000000000000000100010010000000000000000000000F0010000007028800420150416000101 00000000000000000000000000000000000000000000000000000000000000000000000000000000000000000000000000000000000000000N 00000000000NCONT   00    00000000000          00000000000000000000000000000000000000000000 000000000000000A000000000000000000000000000000000000000000000 000000000000000000000000000000000000000     00000000                                                                                                                        000000000000000000
F0010000007028800005000002245670100013552100000000000000000201504160002001YOLANDA  TOBON                                    D000000000004800000000000000000000100010010000000000000000000000F0010000007028800520150416000101 00000000000000000000000000000000000000000000000000000000000000000000000000000000000000000000000000000000000000000N 00000000000NCONT   00    00000000000          00000000000000000000000000000000000000000000 000000000000000A000000000000000000000000000000000000000000000 000000000000000000000000000000000000000     00000000                                                                                                                        000000000000000000
F0010000007028900001000002245670100011050500000000000000000201504160002001YOLANDA  TOBON                                    D000000002120000000000000000000000100010010000000000000000000000F0010000007028900120150416000101 00000000000000000000000000000000000000000000000000000000000000000000000000000000000000000000000000000000000000000N 00000000000NCONT   00    00000000000          00000000000000000000000000000000000000000000 000000000000000A000000000000000000000000000000000000000000000 000000000000000000000000000000000000000     00000000                                                                                                                        000000000000000000
F0010000007028900002000002245670100041450500000000000000000201504160002001YOLANDA  TOBON                                    C000000001640000000000000000000000100010010000000000000000000000F0010000007028900220150416000101 00000000000000000000000000000000000000000000000000000000000000000000000000000000000000000000000000000000000000000N 00000000000NCONT   00    00000000000          00000000000000000000000000000000000000000000 000000000000000A000000000000000000000000000000000000000000000 000000000000000000000000000000000000000     00000000                                                                                                                        000000000000000000
F0010000007028900003000002245670100042505000000000000000000201504160002001YOLANDA  TOBON                                    C000000000480000000000000000000000100010010000000000000000000000F0010000007028900320150416000101 00000000000000000000000000000000000000000000000000000000000000000000000000000000000000000000000000000000000000000N 00000000000NCONT   00    00000000000          00000000000000000000000000000000000000000000 000000000000000A000000000000000000000000000000000000000000000 000000000000000000000000000000000000000     00000000                                                                                                                        000000000000000000
F0010000007028900004000002245670100023658300000000000000000201504160002001YOLANDA  TOBON                                    C000000000013100000000000000000000100010010000000000000000000000F0010000007028900420150416000101 00000000000000000000000000000000000000000000000000000000000000000000000000000000000000000000000000000000000000000N 00000000000NCONT   00    00000000000          00000000000000000000000000000000000000000000 000000000000000A000000000000000000000000000000000000000000000 000000000000000000000000000000000000000     00000000                                                                                                                        000000000000000000
F0010000007028900005000002245670100013552100000000000000000201504160002001YOLANDA  TOBON                                    D000000000013100000000000000000000100010010000000000000000000000F0010000007028900520150416000101 00000000000000000000000000000000000000000000000000000000000000000000000000000000000000000000000000000000000000000N 00000000000NCONT   00    00000000000          00000000000000000000000000000000000000000000 000000000000000A000000000000000000000000000000000000000000000 000000000000000000000000000000000000000     00000000                                                                                                                        000000000000000000
F0010000007029000001000000742399700011050500000000000000000201504160002001CARMELO MIGUEL CHADID ENSUNCHO                    D000000001100000000000000000000000100010010000000000000000000000F0010000007029000120150416000101 00000000000000000000000000000000000000000000000000000000000000000000000000000000000000000000000000000000000000000N 00000000000NCONT   00    00000000000          00000000000000000000000000000000000000000000 000000000000000A000000000000000000000000000000000000000000000 000000000000000000000000000000000000000     00000000                                                                                                                        000000000000000000
F0010000007029000002000000742399700041450500000000000000000201504160002001CARMELO MIGUEL CHADID ENSUNCHO                    C000000000800000000000000000000000100010010000000000000000000000F0010000007029000220150416000101 00000000000000000000000000000000000000000000000000000000000000000000000000000000000000000000000000000000000000000N 00000000000NCONT   00    00000000000          00000000000000000000000000000000000000000000 000000000000000A000000000000000000000000000000000000000000000 000000000000000000000000000000000000000     00000000                                                                                                                        000000000000000000
F0010000007029000003000000742399700042505000000000000000000201504160002001CARMELO MIGUEL CHADID ENSUNCHO                    C000000000300000000000000000000000100010010000000000000000000000F0010000007029000320150416000101 00000000000000000000000000000000000000000000000000000000000000000000000000000000000000000000000000000000000000000N 00000000000NCONT   00    00000000000          00000000000000000000000000000000000000000000 000000000000000A000000000000000000000000000000000000000000000 000000000000000000000000000000000000000     00000000                                                                                                                        000000000000000000
F0010000007029000004000000742399700023658300000000000000000201504160002001CARMELO MIGUEL CHADID ENSUNCHO                    C000000000006400000000000000000000100010010000000000000000000000F0010000007029000420150416000101 00000000000000000000000000000000000000000000000000000000000000000000000000000000000000000000000000000000000000000N 00000000000NCONT   00    00000000000          00000000000000000000000000000000000000000000 000000000000000A000000000000000000000000000000000000000000000 000000000000000000000000000000000000000     00000000                                                                                                                        000000000000000000
F0010000007029000005000000742399700013552100000000000000000201504160002001CARMELO MIGUEL CHADID ENSUNCHO                    D000000000006400000000000000000000100010010000000000000000000000F0010000007029000520150416000101 00000000000000000000000000000000000000000000000000000000000000000000000000000000000000000000000000000000000000000N 00000000000NCONT   00    00000000000          00000000000000000000000000000000000000000000 000000000000000A000000000000000000000000000000000000000000000 000000000000000000000000000000000000000     00000000                                                                                                                        000000000000000000
F0010000007029100001000090043169600011050500000000000000000201504160002001IMPORTADORA EL HUECO SAS                          D000000001000000000000000000000000100010010000000000000000000000F0010000007029100120150416000101 00000000000000000000000000000000000000000000000000000000000000000000000000000000000000000000000000000000000000000N 00000000000NCONT   00    00000000000          00000000000000000000000000000000000000000000 000000000000000A000000000000000000000000000000000000000000000 000000000000000000000000000000000000000     00000000                                                                                                                        000000000000000000
F0010000007029100002000090043169600041450500000000000000000201504160002001IMPORTADORA EL HUECO SAS                          C000000000900000000000000000000000100010010000000000000000000000F0010000007029100220150416000101 00000000000000000000000000000000000000000000000000000000000000000000000000000000000000000000000000000000000000000N 00000000000NCONT   00    00000000000          00000000000000000000000000000000000000000000 000000000000000A000000000000000000000000000000000000000000000 000000000000000000000000000000000000000     00000000                                                                                                                        000000000000000000
F0010000007029100003000090043169600042505000000000000000000201504160002001IMPORTADORA EL HUECO SAS                          C000000000100000000000000000000000100010010000000000000000000000F0010000007029100320150416000101 00000000000000000000000000000000000000000000000000000000000000000000000000000000000000000000000000000000000000000N 00000000000NCONT   00    00000000000          00000000000000000000000000000000000000000000 000000000000000A000000000000000000000000000000000000000000000 000000000000000000000000000000000000000     00000000                                                                                                                        000000000000000000
F0010000007029100004000090043169600023658300000000000000000201504160002001IMPORTADORA EL HUECO SAS                          C000000000007200000000000000000000100010010000000000000000000000F0010000007029100420150416000101 00000000000000000000000000000000000000000000000000000000000000000000000000000000000000000000000000000000000000000N 00000000000NCONT   00    00000000000          00000000000000000000000000000000000000000000 000000000000000A000000000000000000000000000000000000000000000 000000000000000000000000000000000000000     00000000                                                                                                                        000000000000000000
F0010000007029100005000090043169600013552100000000000000000201504160002001IMPORTADORA EL HUECO SAS                          D000000000007200000000000000000000100010010000000000000000000000F0010000007029100520150416000101 00000000000000000000000000000000000000000000000000000000000000000000000000000000000000000000000000000000000000000N 00000000000NCONT   00    00000000000          00000000000000000000000000000000000000000000 000000000000000A000000000000000000000000000000000000000000000 000000000000000000000000000000000000000     00000000                                                                                                                        000000000000000000
