F0010000008225600001000000868681600011050500000000000000000201602060002001HENRY RAFAEL VILLA SANTANDER / SPLENDOR           D000000001000000000000000000000000100010010000000000000000000000F0010000008225600120160206000101 00000000000000000000000000000000000000000000000000000000000000000000000000000000000000000000000000000000000000000N 00000000000NCONT   00    00000000000          00000000000000000000000000000000000000000000 000000000000000A000000000000000000000000000000000000000000000 000000000000000000000000000000000000000     00000000                                                                                                                        000000000000000000
F0010000008225600002000000868681600041450500000000000000000201602060002001HENRY RAFAEL VILLA SANTANDER / SPLENDOR           C000000000900000000000000000000000100010010000000000000000000000F0010000008225600220160206000101 00000000000000000000000000000000000000000000000000000000000000000000000000000000000000000000000000000000000000000N 00000000000NCONT   00    00000000000          00000000000000000000000000000000000000000000 000000000000000A000000000000000000000000000000000000000000000 000000000000000000000000000000000000000     00000000                                                                                                                        000000000000000000
F0010000008225600003000000868681600042505000000000000000000201602060002001HENRY RAFAEL VILLA SANTANDER / SPLENDOR           C000000000100000000000000000000000100010010000000000000000000000F0010000008225600320160206000101 00000000000000000000000000000000000000000000000000000000000000000000000000000000000000000000000000000000000000000N 00000000000NCONT   00    00000000000          00000000000000000000000000000000000000000000 000000000000000A000000000000000000000000000000000000000000000 000000000000000000000000000000000000000     00000000                                                                                                                        000000000000000000
F0010000008225600004000000868681600023658300000000000000000201602060002001HENRY RAFAEL VILLA SANTANDER / SPLENDOR           C000000000007200000000000000000000100010010000000000000000000000F0010000008225600420160206000101 00000000000000000000000000000000000000000000000000000000000000000000000000000000000000000000000000000000000000000N 00000000000NCONT   00    00000000000          00000000000000000000000000000000000000000000 000000000000000A000000000000000000000000000000000000000000000 000000000000000000000000000000000000000     00000000                                                                                                                        000000000000000000
F0010000008225600005000000868681600013552100000000000000000201602060002001HENRY RAFAEL VILLA SANTANDER / SPLENDOR           D000000000007200000000000000000000100010010000000000000000000000F0010000008225600520160206000101 00000000000000000000000000000000000000000000000000000000000000000000000000000000000000000000000000000000000000000N 00000000000NCONT   00    00000000000          00000000000000000000000000000000000000000000 000000000000000A000000000000000000000000000000000000000000000 000000000000000000000000000000000000000     00000000                                                                                                                        000000000000000000
F0010000008225700001000089031248700011050500000000000000000201602060002001DISTRIBUIDORA CALIPLASTICOS LTDA                  D000000000795600000000000000000000100010010000000000000000000000F0010000008225700120160206000101 00000000000000000000000000000000000000000000000000000000000000000000000000000000000000000000000000000000000000000N 00000000000NCONT   00    00000000000          00000000000000000000000000000000000000000000 000000000000000A000000000000000000000000000000000000000000000 000000000000000000000000000000000000000     00000000                                                                                                                        000000000000000000
F0010000008225700002000089031248700041450500000000000000000201602060002001DISTRIBUIDORA CALIPLASTICOS LTDA                  C000000000745600000000000000000000100010010000000000000000000000F0010000008225700220160206000101 00000000000000000000000000000000000000000000000000000000000000000000000000000000000000000000000000000000000000000N 00000000000NCONT   00    00000000000          00000000000000000000000000000000000000000000 000000000000000A000000000000000000000000000000000000000000000 000000000000000000000000000000000000000     00000000                                                                                                                        000000000000000000
F0010000008225700003000089031248700042505000000000000000000201602060002001DISTRIBUIDORA CALIPLASTICOS LTDA                  C000000000050000000000000000000000100010010000000000000000000000F0010000008225700320160206000101 00000000000000000000000000000000000000000000000000000000000000000000000000000000000000000000000000000000000000000N 00000000000NCONT   00    00000000000          00000000000000000000000000000000000000000000 000000000000000A000000000000000000000000000000000000000000000 000000000000000000000000000000000000000     00000000                                                                                                                        000000000000000000
F0010000008225700004000089031248700023658300000000000000000201602060002001DISTRIBUIDORA CALIPLASTICOS LTDA                  C000000000006000000000000000000000100010010000000000000000000000F0010000008225700420160206000101 00000000000000000000000000000000000000000000000000000000000000000000000000000000000000000000000000000000000000000N 00000000000NCONT   00    00000000000          00000000000000000000000000000000000000000000 000000000000000A000000000000000000000000000000000000000000000 000000000000000000000000000000000000000     00000000                                                                                                                        000000000000000000
F0010000008225700005000089031248700013552100000000000000000201602060002001DISTRIBUIDORA CALIPLASTICOS LTDA                  D000000000006000000000000000000000100010010000000000000000000000F0010000008225700520160206000101 00000000000000000000000000000000000000000000000000000000000000000000000000000000000000000000000000000000000000000N 00000000000NCONT   00    00000000000          00000000000000000000000000000000000000000000 000000000000000A000000000000000000000000000000000000000000000 000000000000000000000000000000000000000     00000000                                                                                                                        000000000000000000
F0010000008225800001000080202435000011050500000000000000000201602060002001DISTRIBUIDORA MACEA SAS                           D000000002000000000000000000000000100010010000000000000000000000F0010000008225800120160206000101 00000000000000000000000000000000000000000000000000000000000000000000000000000000000000000000000000000000000000000N 00000000000NCONT   00    00000000000          00000000000000000000000000000000000000000000 000000000000000A000000000000000000000000000000000000000000000 000000000000000000000000000000000000000     00000000                                                                                                                        000000000000000000
F0010000008225800002000080202435000041450500000000000000000201602060002001DISTRIBUIDORA MACEA SAS                           C000000001800000000000000000000000100010010000000000000000000000F0010000008225800220160206000101 00000000000000000000000000000000000000000000000000000000000000000000000000000000000000000000000000000000000000000N 00000000000NCONT   00    00000000000          00000000000000000000000000000000000000000000 000000000000000A000000000000000000000000000000000000000000000 000000000000000000000000000000000000000     00000000                                                                                                                        000000000000000000
F0010000008225800003000080202435000042505000000000000000000201602060002001DISTRIBUIDORA MACEA SAS                           C000000000200000000000000000000000100010010000000000000000000000F0010000008225800320160206000101 00000000000000000000000000000000000000000000000000000000000000000000000000000000000000000000000000000000000000000N 00000000000NCONT   00    00000000000          00000000000000000000000000000000000000000000 000000000000000A000000000000000000000000000000000000000000000 000000000000000000000000000000000000000     00000000                                                                                                                        000000000000000000
F0010000008225800004000080202435000023658300000000000000000201602060002001DISTRIBUIDORA MACEA SAS                           C000000000014400000000000000000000100010010000000000000000000000F0010000008225800420160206000101 00000000000000000000000000000000000000000000000000000000000000000000000000000000000000000000000000000000000000000N 00000000000NCONT   00    00000000000          00000000000000000000000000000000000000000000 000000000000000A000000000000000000000000000000000000000000000 000000000000000000000000000000000000000     00000000                                                                                                                        000000000000000000
F0010000008225800005000080202435000013552100000000000000000201602060002001DISTRIBUIDORA MACEA SAS                           D000000000014400000000000000000000100010010000000000000000000000F0010000008225800520160206000101 00000000000000000000000000000000000000000000000000000000000000000000000000000000000000000000000000000000000000000N 00000000000NCONT   00    00000000000          00000000000000000000000000000000000000000000 000000000000000A000000000000000000000000000000000000000000000 000000000000000000000000000000000000000     00000000                                                                                                                        000000000000000000
F0010000008225900001000090087617400011050500000000000000000201602060002001MASTERGLASS PREMIUM GROUP SAS                     D000000002400000000000000000000000100010010000000000000000000000F0010000008225900120160206000101 00000000000000000000000000000000000000000000000000000000000000000000000000000000000000000000000000000000000000000N 00000000000NCONT   00    00000000000          00000000000000000000000000000000000000000000 000000000000000A000000000000000000000000000000000000000000000 000000000000000000000000000000000000000     00000000                                                                                                                        000000000000000000
F0010000008225900002000090087617400041450500000000000000000201602060002001MASTERGLASS PREMIUM GROUP SAS                     C000000002100000000000000000000000100010010000000000000000000000F0010000008225900220160206000101 00000000000000000000000000000000000000000000000000000000000000000000000000000000000000000000000000000000000000000N 00000000000NCONT   00    00000000000          00000000000000000000000000000000000000000000 000000000000000A000000000000000000000000000000000000000000000 000000000000000000000000000000000000000     00000000                                                                                                                        000000000000000000
F0010000008225900003000090087617400042505000000000000000000201602060002001MASTERGLASS PREMIUM GROUP SAS                     C000000000300000000000000000000000100010010000000000000000000000F0010000008225900320160206000101 00000000000000000000000000000000000000000000000000000000000000000000000000000000000000000000000000000000000000000N 00000000000NCONT   00    00000000000          00000000000000000000000000000000000000000000 000000000000000A000000000000000000000000000000000000000000000 000000000000000000000000000000000000000     00000000                                                                                                                        000000000000000000
F0010000008225900004000090087617400023658300000000000000000201602060002001MASTERGLASS PREMIUM GROUP SAS                     C000000000016800000000000000000000100010010000000000000000000000F0010000008225900420160206000101 00000000000000000000000000000000000000000000000000000000000000000000000000000000000000000000000000000000000000000N 00000000000NCONT   00    00000000000          00000000000000000000000000000000000000000000 000000000000000A000000000000000000000000000000000000000000000 000000000000000000000000000000000000000     00000000                                                                                                                        000000000000000000
F0010000008225900005000090087617400013552100000000000000000201602060002001MASTERGLASS PREMIUM GROUP SAS                     D000000000016800000000000000000000100010010000000000000000000000F0010000008225900520160206000101 00000000000000000000000000000000000000000000000000000000000000000000000000000000000000000000000000000000000000000N 00000000000NCONT   00    00000000000          00000000000000000000000000000000000000000000 000000000000000A000000000000000000000000000000000000000000000 000000000000000000000000000000000000000     00000000                                                                                                                        000000000000000000
F0010000008226000001000004544401900011050500000000000000000201602060002001FISIOTER                                          D000000002100000000000000000000000100010010000000000000000000000F0010000008226000120160206000101 00000000000000000000000000000000000000000000000000000000000000000000000000000000000000000000000000000000000000000N 00000000000NCONT   00    00000000000          00000000000000000000000000000000000000000000 000000000000000A000000000000000000000000000000000000000000000 000000000000000000000000000000000000000     00000000                                                                                                                        000000000000000000
F0010000008226000002000004544401900041450500000000000000000201602060002001FISIOTER                                          C000000002000000000000000000000000100010010000000000000000000000F0010000008226000220160206000101 00000000000000000000000000000000000000000000000000000000000000000000000000000000000000000000000000000000000000000N 00000000000NCONT   00    00000000000          00000000000000000000000000000000000000000000 000000000000000A000000000000000000000000000000000000000000000 000000000000000000000000000000000000000     00000000                                                                                                                        000000000000000000
F0010000008226000003000004544401900042505000000000000000000201602060002001FISIOTER                                          C000000000100000000000000000000000100010010000000000000000000000F0010000008226000320160206000101 00000000000000000000000000000000000000000000000000000000000000000000000000000000000000000000000000000000000000000N 00000000000NCONT   00    00000000000          00000000000000000000000000000000000000000000 000000000000000A000000000000000000000000000000000000000000000 000000000000000000000000000000000000000     00000000                                                                                                                        000000000000000000
F0010000008226000004000004544401900023658300000000000000000201602060002001FISIOTER                                          C000000000016000000000000000000000100010010000000000000000000000F0010000008226000420160206000101 00000000000000000000000000000000000000000000000000000000000000000000000000000000000000000000000000000000000000000N 00000000000NCONT   00    00000000000          00000000000000000000000000000000000000000000 000000000000000A000000000000000000000000000000000000000000000 000000000000000000000000000000000000000     00000000                                                                                                                        000000000000000000
F0010000008226000005000004544401900013552100000000000000000201602060002001FISIOTER                                          D000000000016000000000000000000000100010010000000000000000000000F0010000008226000520160206000101 00000000000000000000000000000000000000000000000000000000000000000000000000000000000000000000000000000000000000000N 00000000000NCONT   00    00000000000          00000000000000000000000000000000000000000000 000000000000000A000000000000000000000000000000000000000000000 000000000000000000000000000000000000000     00000000                                                                                                                        000000000000000000
F0010000008226100001000004175790100011050500000000000000000201602060002001ROSIRIS FERIA HOYOS  (COSM. SHILLER)              D000000001300000000000000000000000100010010000000000000000000000F0010000008226100120160206000101 00000000000000000000000000000000000000000000000000000000000000000000000000000000000000000000000000000000000000000N 00000000000NCONT   00    00000000000          00000000000000000000000000000000000000000000 000000000000000A000000000000000000000000000000000000000000000 000000000000000000000000000000000000000     00000000                                                                                                                        000000000000000000
F0010000008226100002000004175790100041450500000000000000000201602060002001ROSIRIS FERIA HOYOS  (COSM. SHILLER)              C000000001200000000000000000000000100010010000000000000000000000F0010000008226100220160206000101 00000000000000000000000000000000000000000000000000000000000000000000000000000000000000000000000000000000000000000N 00000000000NCONT   00    00000000000          00000000000000000000000000000000000000000000 000000000000000A000000000000000000000000000000000000000000000 000000000000000000000000000000000000000     00000000                                                                                                                        000000000000000000
F0010000008226100003000004175790100042505000000000000000000201602060002001ROSIRIS FERIA HOYOS  (COSM. SHILLER)              C000000000100000000000000000000000100010010000000000000000000000F0010000008226100320160206000101 00000000000000000000000000000000000000000000000000000000000000000000000000000000000000000000000000000000000000000N 00000000000NCONT   00    00000000000          00000000000000000000000000000000000000000000 000000000000000A000000000000000000000000000000000000000000000 000000000000000000000000000000000000000     00000000                                                                                                                        000000000000000000
F0010000008226100004000004175790100023658300000000000000000201602060002001ROSIRIS FERIA HOYOS  (COSM. SHILLER)              C000000000009600000000000000000000100010010000000000000000000000F0010000008226100420160206000101 00000000000000000000000000000000000000000000000000000000000000000000000000000000000000000000000000000000000000000N 00000000000NCONT   00    00000000000          00000000000000000000000000000000000000000000 000000000000000A000000000000000000000000000000000000000000000 000000000000000000000000000000000000000     00000000                                                                                                                        000000000000000000
F0010000008226100005000004175790100013552100000000000000000201602060002001ROSIRIS FERIA HOYOS  (COSM. SHILLER)              D000000000009600000000000000000000100010010000000000000000000000F0010000008226100520160206000101 00000000000000000000000000000000000000000000000000000000000000000000000000000000000000000000000000000000000000000N 00000000000NCONT   00    00000000000          00000000000000000000000000000000000000000000 000000000000000A000000000000000000000000000000000000000000000 000000000000000000000000000000000000000     00000000                                                                                                                        000000000000000000
F0010000008226200001000004175790100011050500000000000000000201602060002001ROSIRIS FERIA HOYOS  (COSM. SHILLER)              D000000001000000000000000000000000100010010000000000000000000000F0010000008226200120160206000101 00000000000000000000000000000000000000000000000000000000000000000000000000000000000000000000000000000000000000000N 00000000000NCONT   00    00000000000          00000000000000000000000000000000000000000000 000000000000000A000000000000000000000000000000000000000000000 000000000000000000000000000000000000000     00000000                                                                                                                        000000000000000000
F0010000008226200002000004175790100041450500000000000000000201602060002001ROSIRIS FERIA HOYOS  (COSM. SHILLER)              C000000000900000000000000000000000100010010000000000000000000000F0010000008226200220160206000101 00000000000000000000000000000000000000000000000000000000000000000000000000000000000000000000000000000000000000000N 00000000000NCONT   00    00000000000          00000000000000000000000000000000000000000000 000000000000000A000000000000000000000000000000000000000000000 000000000000000000000000000000000000000     00000000                                                                                                                        000000000000000000
F0010000008226200003000004175790100042505000000000000000000201602060002001ROSIRIS FERIA HOYOS  (COSM. SHILLER)              C000000000100000000000000000000000100010010000000000000000000000F0010000008226200320160206000101 00000000000000000000000000000000000000000000000000000000000000000000000000000000000000000000000000000000000000000N 00000000000NCONT   00    00000000000          00000000000000000000000000000000000000000000 000000000000000A000000000000000000000000000000000000000000000 000000000000000000000000000000000000000     00000000                                                                                                                        000000000000000000
F0010000008226200004000004175790100023658300000000000000000201602060002001ROSIRIS FERIA HOYOS  (COSM. SHILLER)              C000000000007200000000000000000000100010010000000000000000000000F0010000008226200420160206000101 00000000000000000000000000000000000000000000000000000000000000000000000000000000000000000000000000000000000000000N 00000000000NCONT   00    00000000000          00000000000000000000000000000000000000000000 000000000000000A000000000000000000000000000000000000000000000 000000000000000000000000000000000000000     00000000                                                                                                                        000000000000000000
F0010000008226200005000004175790100013552100000000000000000201602060002001ROSIRIS FERIA HOYOS  (COSM. SHILLER)              D000000000007200000000000000000000100010010000000000000000000000F0010000008226200520160206000101 00000000000000000000000000000000000000000000000000000000000000000000000000000000000000000000000000000000000000000N 00000000000NCONT   00    00000000000          00000000000000000000000000000000000000000000 000000000000000A000000000000000000000000000000000000000000000 000000000000000000000000000000000000000     00000000                                                                                                                        000000000000000000
F0010000008226300001000004544401900011050500000000000000000201602060002001FISIOTER                                          D000000006400000000000000000000000100010010000000000000000000000F0010000008226300120160206000101 00000000000000000000000000000000000000000000000000000000000000000000000000000000000000000000000000000000000000000N 00000000000NCONT   00    00000000000          00000000000000000000000000000000000000000000 000000000000000A000000000000000000000000000000000000000000000 000000000000000000000000000000000000000     00000000                                                                                                                        000000000000000000
F0010000008226300002000004544401900041450500000000000000000201602060002001FISIOTER                                          C000000006000000000000000000000000100010010000000000000000000000F0010000008226300220160206000101 00000000000000000000000000000000000000000000000000000000000000000000000000000000000000000000000000000000000000000N 00000000000NCONT   00    00000000000          00000000000000000000000000000000000000000000 000000000000000A000000000000000000000000000000000000000000000 000000000000000000000000000000000000000     00000000                                                                                                                        000000000000000000
F0010000008226300003000004544401900042505000000000000000000201602060002001FISIOTER                                          C000000000400000000000000000000000100010010000000000000000000000F0010000008226300320160206000101 00000000000000000000000000000000000000000000000000000000000000000000000000000000000000000000000000000000000000000N 00000000000NCONT   00    00000000000          00000000000000000000000000000000000000000000 000000000000000A000000000000000000000000000000000000000000000 000000000000000000000000000000000000000     00000000                                                                                                                        000000000000000000
F0010000008226300004000004544401900023658300000000000000000201602060002001FISIOTER                                          C000000000048000000000000000000000100010010000000000000000000000F0010000008226300420160206000101 00000000000000000000000000000000000000000000000000000000000000000000000000000000000000000000000000000000000000000N 00000000000NCONT   00    00000000000          00000000000000000000000000000000000000000000 000000000000000A000000000000000000000000000000000000000000000 000000000000000000000000000000000000000     00000000                                                                                                                        000000000000000000
F0010000008226300005000004544401900013552100000000000000000201602060002001FISIOTER                                          D000000000048000000000000000000000100010010000000000000000000000F0010000008226300520160206000101 00000000000000000000000000000000000000000000000000000000000000000000000000000000000000000000000000000000000000000N 00000000000NCONT   00    00000000000          00000000000000000000000000000000000000000000 000000000000000A000000000000000000000000000000000000000000000 000000000000000000000000000000000000000     00000000                                                                                                                        000000000000000000
F0010000008226400001000000431178400011050500000000000000000201602060002001EFRAIN ALVAREZ                                    D000000002480000000000000000000000100010010000000000000000000000F0010000008226400120160206000101 00000000000000000000000000000000000000000000000000000000000000000000000000000000000000000000000000000000000000000N 00000000000NCONT   00    00000000000          00000000000000000000000000000000000000000000 000000000000000A000000000000000000000000000000000000000000000 000000000000000000000000000000000000000     00000000                                                                                                                        000000000000000000
F0010000008226400002000000431178400041450500000000000000000201602060002001EFRAIN ALVAREZ                                    C000000002380000000000000000000000100010010000000000000000000000F0010000008226400220160206000101 00000000000000000000000000000000000000000000000000000000000000000000000000000000000000000000000000000000000000000N 00000000000NCONT   00    00000000000          00000000000000000000000000000000000000000000 000000000000000A000000000000000000000000000000000000000000000 000000000000000000000000000000000000000     00000000                                                                                                                        000000000000000000
F0010000008226400003000000431178400042505000000000000000000201602060002001EFRAIN ALVAREZ                                    C000000000100000000000000000000000100010010000000000000000000000F0010000008226400320160206000101 00000000000000000000000000000000000000000000000000000000000000000000000000000000000000000000000000000000000000000N 00000000000NCONT   00    00000000000          00000000000000000000000000000000000000000000 000000000000000A000000000000000000000000000000000000000000000 000000000000000000000000000000000000000     00000000                                                                                                                        000000000000000000
F0010000008226400004000000431178400023658300000000000000000201602060002001EFRAIN ALVAREZ                                    C000000000019000000000000000000000100010010000000000000000000000F0010000008226400420160206000101 00000000000000000000000000000000000000000000000000000000000000000000000000000000000000000000000000000000000000000N 00000000000NCONT   00    00000000000          00000000000000000000000000000000000000000000 000000000000000A000000000000000000000000000000000000000000000 000000000000000000000000000000000000000     00000000                                                                                                                        000000000000000000
F0010000008226400005000000431178400013552100000000000000000201602060002001EFRAIN ALVAREZ                                    D000000000019000000000000000000000100010010000000000000000000000F0010000008226400520160206000101 00000000000000000000000000000000000000000000000000000000000000000000000000000000000000000000000000000000000000000N 00000000000NCONT   00    00000000000          00000000000000000000000000000000000000000000 000000000000000A000000000000000000000000000000000000000000000 000000000000000000000000000000000000000     00000000                                                                                                                        000000000000000000
F0010000008226500001000000431178400011050500000000000000000201602060002001EFRAIN ALVAREZ                                    D000000001820000000000000000000000100010010000000000000000000000F0010000008226500120160206000101 00000000000000000000000000000000000000000000000000000000000000000000000000000000000000000000000000000000000000000N 00000000000NCONT   00    00000000000          00000000000000000000000000000000000000000000 000000000000000A000000000000000000000000000000000000000000000 000000000000000000000000000000000000000     00000000                                                                                                                        000000000000000000
F0010000008226500002000000431178400041450500000000000000000201602060002001EFRAIN ALVAREZ                                    C000000001720000000000000000000000100010010000000000000000000000F0010000008226500220160206000101 00000000000000000000000000000000000000000000000000000000000000000000000000000000000000000000000000000000000000000N 00000000000NCONT   00    00000000000          00000000000000000000000000000000000000000000 000000000000000A000000000000000000000000000000000000000000000 000000000000000000000000000000000000000     00000000                                                                                                                        000000000000000000
F0010000008226500003000000431178400042505000000000000000000201602060002001EFRAIN ALVAREZ                                    C000000000100000000000000000000000100010010000000000000000000000F0010000008226500320160206000101 00000000000000000000000000000000000000000000000000000000000000000000000000000000000000000000000000000000000000000N 00000000000NCONT   00    00000000000          00000000000000000000000000000000000000000000 000000000000000A000000000000000000000000000000000000000000000 000000000000000000000000000000000000000     00000000                                                                                                                        000000000000000000
F0010000008226500004000000431178400023658300000000000000000201602060002001EFRAIN ALVAREZ                                    C000000000013800000000000000000000100010010000000000000000000000F0010000008226500420160206000101 00000000000000000000000000000000000000000000000000000000000000000000000000000000000000000000000000000000000000000N 00000000000NCONT   00    00000000000          00000000000000000000000000000000000000000000 000000000000000A000000000000000000000000000000000000000000000 000000000000000000000000000000000000000     00000000                                                                                                                        000000000000000000
F0010000008226500005000000431178400013552100000000000000000201602060002001EFRAIN ALVAREZ                                    D000000000013800000000000000000000100010010000000000000000000000F0010000008226500520160206000101 00000000000000000000000000000000000000000000000000000000000000000000000000000000000000000000000000000000000000000N 00000000000NCONT   00    00000000000          00000000000000000000000000000000000000000000 000000000000000A000000000000000000000000000000000000000000000 000000000000000000000000000000000000000     00000000                                                                                                                        000000000000000000
