F0010000008037000001000090027710900011050500000000000000000201512150002001DISANORTE LTDA                                    D000000004000000000000000000000000100010010000000000000000000000F0010000008037000120151215000101 00000000000000000000000000000000000000000000000000000000000000000000000000000000000000000000000000000000000000000N 00000000000NCONT   00    00000000000          00000000000000000000000000000000000000000000 000000000000000A000000000000000000000000000000000000000000000 000000000000000000000000000000000000000     00000000                                                                                                                        000000000000000000
F0010000008037000002000090027710900041450500000000000000000201512150002001DISANORTE LTDA                                    C000000003700000000000000000000000100010010000000000000000000000F0010000008037000220151215000101 00000000000000000000000000000000000000000000000000000000000000000000000000000000000000000000000000000000000000000N 00000000000NCONT   00    00000000000          00000000000000000000000000000000000000000000 000000000000000A000000000000000000000000000000000000000000000 000000000000000000000000000000000000000     00000000                                                                                                                        000000000000000000
F0010000008037000003000090027710900042505000000000000000000201512150002001DISANORTE LTDA                                    C000000000300000000000000000000000100010010000000000000000000000F0010000008037000320151215000101 00000000000000000000000000000000000000000000000000000000000000000000000000000000000000000000000000000000000000000N 00000000000NCONT   00    00000000000          00000000000000000000000000000000000000000000 000000000000000A000000000000000000000000000000000000000000000 000000000000000000000000000000000000000     00000000                                                                                                                        000000000000000000
F0010000008037000004000090027710900023658300000000000000000201512150002001DISANORTE LTDA                                    C000000000029600000000000000000000100010010000000000000000000000F0010000008037000420151215000101 00000000000000000000000000000000000000000000000000000000000000000000000000000000000000000000000000000000000000000N 00000000000NCONT   00    00000000000          00000000000000000000000000000000000000000000 000000000000000A000000000000000000000000000000000000000000000 000000000000000000000000000000000000000     00000000                                                                                                                        000000000000000000
F0010000008037000005000090027710900013552100000000000000000201512150002001DISANORTE LTDA                                    D000000000029600000000000000000000100010010000000000000000000000F0010000008037000520151215000101 00000000000000000000000000000000000000000000000000000000000000000000000000000000000000000000000000000000000000000N 00000000000NCONT   00    00000000000          00000000000000000000000000000000000000000000 000000000000000A000000000000000000000000000000000000000000000 000000000000000000000000000000000000000     00000000                                                                                                                        000000000000000000
F0010000008037100001000007801965300011050500000000000000000201512150002001CARLOS ESPINOZA PAEZ                              D000000010000000000000000000000000100010010000000000000000000000F0010000008037100120151215000101 00000000000000000000000000000000000000000000000000000000000000000000000000000000000000000000000000000000000000000N 00000000000NCONT   00    00000000000          00000000000000000000000000000000000000000000 000000000000000A000000000000000000000000000000000000000000000 000000000000000000000000000000000000000     00000000                                                                                                                        000000000000000000
F0010000008037100002000007801965300041450500000000000000000201512150002001CARLOS ESPINOZA PAEZ                              C000000009000000000000000000000000100010010000000000000000000000F0010000008037100220151215000101 00000000000000000000000000000000000000000000000000000000000000000000000000000000000000000000000000000000000000000N 00000000000NCONT   00    00000000000          00000000000000000000000000000000000000000000 000000000000000A000000000000000000000000000000000000000000000 000000000000000000000000000000000000000     00000000                                                                                                                        000000000000000000
F0010000008037100003000007801965300042505000000000000000000201512150002001CARLOS ESPINOZA PAEZ                              C000000001000000000000000000000000100010010000000000000000000000F0010000008037100320151215000101 00000000000000000000000000000000000000000000000000000000000000000000000000000000000000000000000000000000000000000N 00000000000NCONT   00    00000000000          00000000000000000000000000000000000000000000 000000000000000A000000000000000000000000000000000000000000000 000000000000000000000000000000000000000     00000000                                                                                                                        000000000000000000
F0010000008037100004000007801965300023658300000000000000000201512150002001CARLOS ESPINOZA PAEZ                              C000000000072000000000000000000000100010010000000000000000000000F0010000008037100420151215000101 00000000000000000000000000000000000000000000000000000000000000000000000000000000000000000000000000000000000000000N 00000000000NCONT   00    00000000000          00000000000000000000000000000000000000000000 000000000000000A000000000000000000000000000000000000000000000 000000000000000000000000000000000000000     00000000                                                                                                                        000000000000000000
F0010000008037100005000007801965300013552100000000000000000201512150002001CARLOS ESPINOZA PAEZ                              D000000000072000000000000000000000100010010000000000000000000000F0010000008037100520151215000101 00000000000000000000000000000000000000000000000000000000000000000000000000000000000000000000000000000000000000000N 00000000000NCONT   00    00000000000          00000000000000000000000000000000000000000000 000000000000000A000000000000000000000000000000000000000000000 000000000000000000000000000000000000000     00000000                                                                                                                        000000000000000000
F0010000008037200001000009125678500011050500000000000000000201512150002001SALOMON DIAZ MONSALVE                             D000000022000000000000000000000000100010010000000000000000000000F0010000008037200120151215000101 00000000000000000000000000000000000000000000000000000000000000000000000000000000000000000000000000000000000000000N 00000000000NCONT   00    00000000000          00000000000000000000000000000000000000000000 000000000000000A000000000000000000000000000000000000000000000 000000000000000000000000000000000000000     00000000                                                                                                                        000000000000000000
F0010000008037200002000009125678500041450500000000000000000201512150002001SALOMON DIAZ MONSALVE                             C000000020000000000000000000000000100010010000000000000000000000F0010000008037200220151215000101 00000000000000000000000000000000000000000000000000000000000000000000000000000000000000000000000000000000000000000N 00000000000NCONT   00    00000000000          00000000000000000000000000000000000000000000 000000000000000A000000000000000000000000000000000000000000000 000000000000000000000000000000000000000     00000000                                                                                                                        000000000000000000
F0010000008037200003000009125678500042505000000000000000000201512150002001SALOMON DIAZ MONSALVE                             C000000002000000000000000000000000100010010000000000000000000000F0010000008037200320151215000101 00000000000000000000000000000000000000000000000000000000000000000000000000000000000000000000000000000000000000000N 00000000000NCONT   00    00000000000          00000000000000000000000000000000000000000000 000000000000000A000000000000000000000000000000000000000000000 000000000000000000000000000000000000000     00000000                                                                                                                        000000000000000000
F0010000008037200004000009125678500023658300000000000000000201512150002001SALOMON DIAZ MONSALVE                             C000000000160000000000000000000000100010010000000000000000000000F0010000008037200420151215000101 00000000000000000000000000000000000000000000000000000000000000000000000000000000000000000000000000000000000000000N 00000000000NCONT   00    00000000000          00000000000000000000000000000000000000000000 000000000000000A000000000000000000000000000000000000000000000 000000000000000000000000000000000000000     00000000                                                                                                                        000000000000000000
F0010000008037200005000009125678500013552100000000000000000201512150002001SALOMON DIAZ MONSALVE                             D000000000160000000000000000000000100010010000000000000000000000F0010000008037200520151215000101 00000000000000000000000000000000000000000000000000000000000000000000000000000000000000000000000000000000000000000N 00000000000NCONT   00    00000000000          00000000000000000000000000000000000000000000 000000000000000A000000000000000000000000000000000000000000000 000000000000000000000000000000000000000     00000000                                                                                                                        000000000000000000
F0010000008037300001000002273575400011050500000000000000000201512150002001ISAURA VILLACOB                                   D000000001800000000000000000000000100010010000000000000000000000F0010000008037300120151215000101 00000000000000000000000000000000000000000000000000000000000000000000000000000000000000000000000000000000000000000N 00000000000NCONT   00    00000000000          00000000000000000000000000000000000000000000 000000000000000A000000000000000000000000000000000000000000000 000000000000000000000000000000000000000     00000000                                                                                                                        000000000000000000
F0010000008037300002000002273575400041450500000000000000000201512150002001ISAURA VILLACOB                                   C000000001600000000000000000000000100010010000000000000000000000F0010000008037300220151215000101 00000000000000000000000000000000000000000000000000000000000000000000000000000000000000000000000000000000000000000N 00000000000NCONT   00    00000000000          00000000000000000000000000000000000000000000 000000000000000A000000000000000000000000000000000000000000000 000000000000000000000000000000000000000     00000000                                                                                                                        000000000000000000
F0010000008037300003000002273575400042505000000000000000000201512150002001ISAURA VILLACOB                                   C000000000200000000000000000000000100010010000000000000000000000F0010000008037300320151215000101 00000000000000000000000000000000000000000000000000000000000000000000000000000000000000000000000000000000000000000N 00000000000NCONT   00    00000000000          00000000000000000000000000000000000000000000 000000000000000A000000000000000000000000000000000000000000000 000000000000000000000000000000000000000     00000000                                                                                                                        000000000000000000
F0010000008037300004000002273575400023658300000000000000000201512150002001ISAURA VILLACOB                                   C000000000012800000000000000000000100010010000000000000000000000F0010000008037300420151215000101 00000000000000000000000000000000000000000000000000000000000000000000000000000000000000000000000000000000000000000N 00000000000NCONT   00    00000000000          00000000000000000000000000000000000000000000 000000000000000A000000000000000000000000000000000000000000000 000000000000000000000000000000000000000     00000000                                                                                                                        000000000000000000
F0010000008037300005000002273575400013552100000000000000000201512150002001ISAURA VILLACOB                                   D000000000012800000000000000000000100010010000000000000000000000F0010000008037300520151215000101 00000000000000000000000000000000000000000000000000000000000000000000000000000000000000000000000000000000000000000N 00000000000NCONT   00    00000000000          00000000000000000000000000000000000000000000 000000000000000A000000000000000000000000000000000000000000000 000000000000000000000000000000000000000     00000000                                                                                                                        000000000000000000
F0010000008037400001000080202094000013050500000000000000000201512150002001DISTRIB. OMAR ORREGO S.A.                         D000000075422300000000000000000000100010010000000000000000000000F0010000008037400120151215000101 00000000000000000000000000000000000000000000000000000000000000000000000000000000000000000000000000000000000000000N 00000000000NCONT   00    00000000000          00000000000000000000000000000000000000000000 000000000000000A000000000000000000000000000000000000000000000 000000000000000000000000000000000000000     00000000                                                                                                                        000000000000000000
F0010000008037400002000080202094000041450500000000000000000201512150002001DISTRIB. OMAR ORREGO S.A.                         C000000043460000000000000000000000100010010000000000000000000000F0010000008037400220151215000101 00000000000000000000000000000000000000000000000000000000000000000000000000000000000000000000000000000000000000000N 00000000000NCONT   00    00000000000          00000000000000000000000000000000000000000000 000000000000000A000000000000000000000000000000000000000000000 000000000000000000000000000000000000000     00000000                                                                                                                        000000000000000000
F0010000008037400003000080202094000042505000000000000000000201512150002001DISTRIB. OMAR ORREGO S.A.                         C000000031962300000000000000000000100010010000000000000000000000F0010000008037400320151215000101 00000000000000000000000000000000000000000000000000000000000000000000000000000000000000000000000000000000000000000N 00000000000NCONT   00    00000000000          00000000000000000000000000000000000000000000 000000000000000A000000000000000000000000000000000000000000000 000000000000000000000000000000000000000     00000000                                                                                                                        000000000000000000
F0010000008037400004000080202094000023658300000000000000000201512150002001DISTRIB. OMAR ORREGO S.A.                         C000000000347700000000000000000000100010010000000000000000000000F0010000008037400420151215000101 00000000000000000000000000000000000000000000000000000000000000000000000000000000000000000000000000000000000000000N 00000000000NCONT   00    00000000000          00000000000000000000000000000000000000000000 000000000000000A000000000000000000000000000000000000000000000 000000000000000000000000000000000000000     00000000                                                                                                                        000000000000000000
F0010000008037400005000080202094000013552100000000000000000201512150002001DISTRIB. OMAR ORREGO S.A.                         D000000000347700000000000000000000100010010000000000000000000000F0010000008037400520151215000101 00000000000000000000000000000000000000000000000000000000000000000000000000000000000000000000000000000000000000000N 00000000000NCONT   00    00000000000          00000000000000000000000000000000000000000000 000000000000000A000000000000000000000000000000000000000000000 000000000000000000000000000000000000000     00000000                                                                                                                        000000000000000000
F0010000008037500001000080202094000013050500000000000000000201512150002001DISTRIB. OMAR ORREGO S.A.                         D000000065701600000000000000000000100010010000000000000000000000F0010000008037500120151215000101 00000000000000000000000000000000000000000000000000000000000000000000000000000000000000000000000000000000000000000N 00000000000NCONT   00    00000000000          00000000000000000000000000000000000000000000 000000000000000A000000000000000000000000000000000000000000000 000000000000000000000000000000000000000     00000000                                                                                                                        000000000000000000
F0010000008037500002000080202094000041450500000000000000000201512150002001DISTRIB. OMAR ORREGO S.A.                         C000000042940000000000000000000000100010010000000000000000000000F0010000008037500220151215000101 00000000000000000000000000000000000000000000000000000000000000000000000000000000000000000000000000000000000000000N 00000000000NCONT   00    00000000000          00000000000000000000000000000000000000000000 000000000000000A000000000000000000000000000000000000000000000 000000000000000000000000000000000000000     00000000                                                                                                                        000000000000000000
F0010000008037500003000080202094000042505000000000000000000201512150002001DISTRIB. OMAR ORREGO S.A.                         C000000022761600000000000000000000100010010000000000000000000000F0010000008037500320151215000101 00000000000000000000000000000000000000000000000000000000000000000000000000000000000000000000000000000000000000000N 00000000000NCONT   00    00000000000          00000000000000000000000000000000000000000000 000000000000000A000000000000000000000000000000000000000000000 000000000000000000000000000000000000000     00000000                                                                                                                        000000000000000000
F0010000008037500004000080202094000023658300000000000000000201512150002001DISTRIB. OMAR ORREGO S.A.                         C000000000343500000000000000000000100010010000000000000000000000F0010000008037500420151215000101 00000000000000000000000000000000000000000000000000000000000000000000000000000000000000000000000000000000000000000N 00000000000NCONT   00    00000000000          00000000000000000000000000000000000000000000 000000000000000A000000000000000000000000000000000000000000000 000000000000000000000000000000000000000     00000000                                                                                                                        000000000000000000
F0010000008037500005000080202094000013552100000000000000000201512150002001DISTRIB. OMAR ORREGO S.A.                         D000000000343500000000000000000000100010010000000000000000000000F0010000008037500520151215000101 00000000000000000000000000000000000000000000000000000000000000000000000000000000000000000000000000000000000000000N 00000000000NCONT   00    00000000000          00000000000000000000000000000000000000000000 000000000000000A000000000000000000000000000000000000000000000 000000000000000000000000000000000000000     00000000                                                                                                                        000000000000000000
F0010000008037600001000080202094000013050500000000000000000201512150002001DISTRIB. OMAR ORREGO S.A.                         D000000069421700000000000000000000100010010000000000000000000000F0010000008037600120151215000101 00000000000000000000000000000000000000000000000000000000000000000000000000000000000000000000000000000000000000000N 00000000000NCONT   00    00000000000          00000000000000000000000000000000000000000000 000000000000000A000000000000000000000000000000000000000000000 000000000000000000000000000000000000000     00000000                                                                                                                        000000000000000000
F0010000008037600002000080202094000041450500000000000000000201512150002001DISTRIB. OMAR ORREGO S.A.                         C000000040190000000000000000000000100010010000000000000000000000F0010000008037600220151215000101 00000000000000000000000000000000000000000000000000000000000000000000000000000000000000000000000000000000000000000N 00000000000NCONT   00    00000000000          00000000000000000000000000000000000000000000 000000000000000A000000000000000000000000000000000000000000000 000000000000000000000000000000000000000     00000000                                                                                                                        000000000000000000
F0010000008037600003000080202094000042505000000000000000000201512150002001DISTRIB. OMAR ORREGO S.A.                         C000000029231700000000000000000000100010010000000000000000000000F0010000008037600320151215000101 00000000000000000000000000000000000000000000000000000000000000000000000000000000000000000000000000000000000000000N 00000000000NCONT   00    00000000000          00000000000000000000000000000000000000000000 000000000000000A000000000000000000000000000000000000000000000 000000000000000000000000000000000000000     00000000                                                                                                                        000000000000000000
F0010000008037600004000080202094000023658300000000000000000201512150002001DISTRIB. OMAR ORREGO S.A.                         C000000000321500000000000000000000100010010000000000000000000000F0010000008037600420151215000101 00000000000000000000000000000000000000000000000000000000000000000000000000000000000000000000000000000000000000000N 00000000000NCONT   00    00000000000          00000000000000000000000000000000000000000000 000000000000000A000000000000000000000000000000000000000000000 000000000000000000000000000000000000000     00000000                                                                                                                        000000000000000000
F0010000008037600005000080202094000013552100000000000000000201512150002001DISTRIB. OMAR ORREGO S.A.                         D000000000321500000000000000000000100010010000000000000000000000F0010000008037600520151215000101 00000000000000000000000000000000000000000000000000000000000000000000000000000000000000000000000000000000000000000N 00000000000NCONT   00    00000000000          00000000000000000000000000000000000000000000 000000000000000A000000000000000000000000000000000000000000000 000000000000000000000000000000000000000     00000000                                                                                                                        000000000000000000
F0010000008037700001000080202094000013050500000000000000000201512150002001DISTRIB. OMAR ORREGO S.A.                         D000000027472100000000000000000000100010010000000000000000000000F0010000008037700120151215000101 00000000000000000000000000000000000000000000000000000000000000000000000000000000000000000000000000000000000000000N 00000000000NCONT   00    00000000000          00000000000000000000000000000000000000000000 000000000000000A000000000000000000000000000000000000000000000 000000000000000000000000000000000000000     00000000                                                                                                                        000000000000000000
F0010000008037700002000080202094000041450500000000000000000201512150002001DISTRIB. OMAR ORREGO S.A.                         C000000016100000000000000000000000100010010000000000000000000000F0010000008037700220151215000101 00000000000000000000000000000000000000000000000000000000000000000000000000000000000000000000000000000000000000000N 00000000000NCONT   00    00000000000          00000000000000000000000000000000000000000000 000000000000000A000000000000000000000000000000000000000000000 000000000000000000000000000000000000000     00000000                                                                                                                        000000000000000000
F0010000008037700003000080202094000042505000000000000000000201512150002001DISTRIB. OMAR ORREGO S.A.                         C000000011372100000000000000000000100010010000000000000000000000F0010000008037700320151215000101 00000000000000000000000000000000000000000000000000000000000000000000000000000000000000000000000000000000000000000N 00000000000NCONT   00    00000000000          00000000000000000000000000000000000000000000 000000000000000A000000000000000000000000000000000000000000000 000000000000000000000000000000000000000     00000000                                                                                                                        000000000000000000
F0010000008037700004000080202094000023658300000000000000000201512150002001DISTRIB. OMAR ORREGO S.A.                         C000000000128800000000000000000000100010010000000000000000000000F0010000008037700420151215000101 00000000000000000000000000000000000000000000000000000000000000000000000000000000000000000000000000000000000000000N 00000000000NCONT   00    00000000000          00000000000000000000000000000000000000000000 000000000000000A000000000000000000000000000000000000000000000 000000000000000000000000000000000000000     00000000                                                                                                                        000000000000000000
F0010000008037700005000080202094000013552100000000000000000201512150002001DISTRIB. OMAR ORREGO S.A.                         D000000000128800000000000000000000100010010000000000000000000000F0010000008037700520151215000101 00000000000000000000000000000000000000000000000000000000000000000000000000000000000000000000000000000000000000000N 00000000000NCONT   00    00000000000          00000000000000000000000000000000000000000000 000000000000000A000000000000000000000000000000000000000000000 000000000000000000000000000000000000000     00000000                                                                                                                        000000000000000000
F0010000008037800001000000748239700013050500000000000000000201512150002001RAFAEL NAVARRO URIBE                              D000000074005000000000000000000000100010010000000000000000000000F0010000008037800120151215000101 00000000000000000000000000000000000000000000000000000000000000000000000000000000000000000000000000000000000000000N 00000000000NCONT   00    00000000000          00000000000000000000000000000000000000000000 000000000000000A000000000000000000000000000000000000000000000 000000000000000000000000000000000000000     00000000                                                                                                                        000000000000000000
F0010000008037800002000000748239700041450500000000000000000201512150002001RAFAEL NAVARRO URIBE                              C000000040030000000000000000000000100010010000000000000000000000F0010000008037800220151215000101 00000000000000000000000000000000000000000000000000000000000000000000000000000000000000000000000000000000000000000N 00000000000NCONT   00    00000000000          00000000000000000000000000000000000000000000 000000000000000A000000000000000000000000000000000000000000000 000000000000000000000000000000000000000     00000000                                                                                                                        000000000000000000
F0010000008037800003000000748239700042505000000000000000000201512150002001RAFAEL NAVARRO URIBE                              C000000033975000000000000000000000100010010000000000000000000000F0010000008037800320151215000101 00000000000000000000000000000000000000000000000000000000000000000000000000000000000000000000000000000000000000000N 00000000000NCONT   00    00000000000          00000000000000000000000000000000000000000000 000000000000000A000000000000000000000000000000000000000000000 000000000000000000000000000000000000000     00000000                                                                                                                        000000000000000000
F0010000008037800004000000748239700023658300000000000000000201512150002001RAFAEL NAVARRO URIBE                              C000000000320200000000000000000000100010010000000000000000000000F0010000008037800420151215000101 00000000000000000000000000000000000000000000000000000000000000000000000000000000000000000000000000000000000000000N 00000000000NCONT   00    00000000000          00000000000000000000000000000000000000000000 000000000000000A000000000000000000000000000000000000000000000 000000000000000000000000000000000000000     00000000                                                                                                                        000000000000000000
F0010000008037800005000000748239700013552100000000000000000201512150002001RAFAEL NAVARRO URIBE                              D000000000320200000000000000000000100010010000000000000000000000F0010000008037800520151215000101 00000000000000000000000000000000000000000000000000000000000000000000000000000000000000000000000000000000000000000N 00000000000NCONT   00    00000000000          00000000000000000000000000000000000000000000 000000000000000A000000000000000000000000000000000000000000000 000000000000000000000000000000000000000     00000000                                                                                                                        000000000000000000
F0010000008037900001000000748239700013050500000000000000000201512150002001RAFAEL NAVARRO URIBE                              D000000009619400000000000000000000100010010000000000000000000000F0010000008037900120151215000101 00000000000000000000000000000000000000000000000000000000000000000000000000000000000000000000000000000000000000000N 00000000000NCONT   00    00000000000          00000000000000000000000000000000000000000000 000000000000000A000000000000000000000000000000000000000000000 000000000000000000000000000000000000000     00000000                                                                                                                        000000000000000000
F0010000008037900002000000748239700041450500000000000000000201512150002001RAFAEL NAVARRO URIBE                              C000000005850000000000000000000000100010010000000000000000000000F0010000008037900220151215000101 00000000000000000000000000000000000000000000000000000000000000000000000000000000000000000000000000000000000000000N 00000000000NCONT   00    00000000000          00000000000000000000000000000000000000000000 000000000000000A000000000000000000000000000000000000000000000 000000000000000000000000000000000000000     00000000                                                                                                                        000000000000000000
F0010000008037900003000000748239700042505000000000000000000201512150002001RAFAEL NAVARRO URIBE                              C000000003769400000000000000000000100010010000000000000000000000F0010000008037900320151215000101 00000000000000000000000000000000000000000000000000000000000000000000000000000000000000000000000000000000000000000N 00000000000NCONT   00    00000000000          00000000000000000000000000000000000000000000 000000000000000A000000000000000000000000000000000000000000000 000000000000000000000000000000000000000     00000000                                                                                                                        000000000000000000
F0010000008037900004000000748239700023658300000000000000000201512150002001RAFAEL NAVARRO URIBE                              C000000000046800000000000000000000100010010000000000000000000000F0010000008037900420151215000101 00000000000000000000000000000000000000000000000000000000000000000000000000000000000000000000000000000000000000000N 00000000000NCONT   00    00000000000          00000000000000000000000000000000000000000000 000000000000000A000000000000000000000000000000000000000000000 000000000000000000000000000000000000000     00000000                                                                                                                        000000000000000000
F0010000008037900005000000748239700013552100000000000000000201512150002001RAFAEL NAVARRO URIBE                              D000000000046800000000000000000000100010010000000000000000000000F0010000008037900520151215000101 00000000000000000000000000000000000000000000000000000000000000000000000000000000000000000000000000000000000000000N 00000000000NCONT   00    00000000000          00000000000000000000000000000000000000000000 000000000000000A000000000000000000000000000000000000000000000 000000000000000000000000000000000000000     00000000                                                                                                                        000000000000000000
F0010000008038000001000089011033000011050500000000000000000201512150002001INDUSTRIAS CRUZ & CAÑON LTDA                     D000000007100000000000000000000000100010010000000000000000000000F0010000008038000120151215000101 00000000000000000000000000000000000000000000000000000000000000000000000000000000000000000000000000000000000000000N 00000000000NCONT   00    00000000000          00000000000000000000000000000000000000000000 000000000000000A000000000000000000000000000000000000000000000 000000000000000000000000000000000000000     00000000                                                                                                                        000000000000000000
F0010000008038000002000089011033000041450500000000000000000201512150002001INDUSTRIAS CRUZ & CAÑON LTDA                     C000000006000000000000000000000000100010010000000000000000000000F0010000008038000220151215000101 00000000000000000000000000000000000000000000000000000000000000000000000000000000000000000000000000000000000000000N 00000000000NCONT   00    00000000000          00000000000000000000000000000000000000000000 000000000000000A000000000000000000000000000000000000000000000 000000000000000000000000000000000000000     00000000                                                                                                                        000000000000000000
F0010000008038000003000089011033000042505000000000000000000201512150002001INDUSTRIAS CRUZ & CAÑON LTDA                     C000000001100000000000000000000000100010010000000000000000000000F0010000008038000320151215000101 00000000000000000000000000000000000000000000000000000000000000000000000000000000000000000000000000000000000000000N 00000000000NCONT   00    00000000000          00000000000000000000000000000000000000000000 000000000000000A000000000000000000000000000000000000000000000 000000000000000000000000000000000000000     00000000                                                                                                                        000000000000000000
F0010000008038000004000089011033000023658300000000000000000201512150002001INDUSTRIAS CRUZ & CAÑON LTDA                     C000000000048000000000000000000000100010010000000000000000000000F0010000008038000420151215000101 00000000000000000000000000000000000000000000000000000000000000000000000000000000000000000000000000000000000000000N 00000000000NCONT   00    00000000000          00000000000000000000000000000000000000000000 000000000000000A000000000000000000000000000000000000000000000 000000000000000000000000000000000000000     00000000                                                                                                                        000000000000000000
F0010000008038000005000089011033000013552100000000000000000201512150002001INDUSTRIAS CRUZ & CAÑON LTDA                     D000000000048000000000000000000000100010010000000000000000000000F0010000008038000520151215000101 00000000000000000000000000000000000000000000000000000000000000000000000000000000000000000000000000000000000000000N 00000000000NCONT   00    00000000000          00000000000000000000000000000000000000000000 000000000000000A000000000000000000000000000000000000000000000 000000000000000000000000000000000000000     00000000                                                                                                                        000000000000000000
F0010000008038100001000089010260300013050500000000000000000201512150002001FEDERICO OSORIO A. S.A.                           D000000114667100000000000000000000100010010000000000000000000000F0010000008038100120151215000101 00000000000000000000000000000000000000000000000000000000000000000000000000000000000000000000000000000000000000000N 00000000000NCONT   00    00000000000          00000000000000000000000000000000000000000000 000000000000000A000000000000000000000000000000000000000000000 000000000000000000000000000000000000000     00000000                                                                                                                        000000000000000000
F0010000008038100002000089010260300041450500000000000000000201512150002001FEDERICO OSORIO A. S.A.                           C000000105700000000000000000000000100010010000000000000000000000F0010000008038100220151215000101 00000000000000000000000000000000000000000000000000000000000000000000000000000000000000000000000000000000000000000N 00000000000NCONT   00    00000000000          00000000000000000000000000000000000000000000 000000000000000A000000000000000000000000000000000000000000000 000000000000000000000000000000000000000     00000000                                                                                                                        000000000000000000
F0010000008038100003000089010260300042505000000000000000000201512150002001FEDERICO OSORIO A. S.A.                           C000000008967100000000000000000000100010010000000000000000000000F0010000008038100320151215000101 00000000000000000000000000000000000000000000000000000000000000000000000000000000000000000000000000000000000000000N 00000000000NCONT   00    00000000000          00000000000000000000000000000000000000000000 000000000000000A000000000000000000000000000000000000000000000 000000000000000000000000000000000000000     00000000                                                                                                                        000000000000000000
F0010000008038100004000089010260300023658300000000000000000201512150002001FEDERICO OSORIO A. S.A.                           C000000000845600000000000000000000100010010000000000000000000000F0010000008038100420151215000101 00000000000000000000000000000000000000000000000000000000000000000000000000000000000000000000000000000000000000000N 00000000000NCONT   00    00000000000          00000000000000000000000000000000000000000000 000000000000000A000000000000000000000000000000000000000000000 000000000000000000000000000000000000000     00000000                                                                                                                        000000000000000000
F0010000008038100005000089010260300013552100000000000000000201512150002001FEDERICO OSORIO A. S.A.                           D000000000845600000000000000000000100010010000000000000000000000F0010000008038100520151215000101 00000000000000000000000000000000000000000000000000000000000000000000000000000000000000000000000000000000000000000N 00000000000NCONT   00    00000000000          00000000000000000000000000000000000000000000 000000000000000A000000000000000000000000000000000000000000000 000000000000000000000000000000000000000     00000000                                                                                                                        000000000000000000
F0010000008038200001000089011033000011050500000000000000000201512150002001INDUSTRIAS CRUZ & CAÑON LTDA                     D000000005400000000000000000000000100010010000000000000000000000F0010000008038200120151215000101 00000000000000000000000000000000000000000000000000000000000000000000000000000000000000000000000000000000000000000N 00000000000NCONT   00    00000000000          00000000000000000000000000000000000000000000 000000000000000A000000000000000000000000000000000000000000000 000000000000000000000000000000000000000     00000000                                                                                                                        000000000000000000
F0010000008038200002000089011033000041450500000000000000000201512150002001INDUSTRIAS CRUZ & CAÑON LTDA                     C000000005000000000000000000000000100010010000000000000000000000F0010000008038200220151215000101 00000000000000000000000000000000000000000000000000000000000000000000000000000000000000000000000000000000000000000N 00000000000NCONT   00    00000000000          00000000000000000000000000000000000000000000 000000000000000A000000000000000000000000000000000000000000000 000000000000000000000000000000000000000     00000000                                                                                                                        000000000000000000
F0010000008038200003000089011033000042505000000000000000000201512150002001INDUSTRIAS CRUZ & CAÑON LTDA                     C000000000400000000000000000000000100010010000000000000000000000F0010000008038200320151215000101 00000000000000000000000000000000000000000000000000000000000000000000000000000000000000000000000000000000000000000N 00000000000NCONT   00    00000000000          00000000000000000000000000000000000000000000 000000000000000A000000000000000000000000000000000000000000000 000000000000000000000000000000000000000     00000000                                                                                                                        000000000000000000
F0010000008038200004000089011033000023658300000000000000000201512150002001INDUSTRIAS CRUZ & CAÑON LTDA                     C000000000040000000000000000000000100010010000000000000000000000F0010000008038200420151215000101 00000000000000000000000000000000000000000000000000000000000000000000000000000000000000000000000000000000000000000N 00000000000NCONT   00    00000000000          00000000000000000000000000000000000000000000 000000000000000A000000000000000000000000000000000000000000000 000000000000000000000000000000000000000     00000000                                                                                                                        000000000000000000
F0010000008038200005000089011033000013552100000000000000000201512150002001INDUSTRIAS CRUZ & CAÑON LTDA                     D000000000040000000000000000000000100010010000000000000000000000F0010000008038200520151215000101 00000000000000000000000000000000000000000000000000000000000000000000000000000000000000000000000000000000000000000N 00000000000NCONT   00    00000000000          00000000000000000000000000000000000000000000 000000000000000A000000000000000000000000000000000000000000000 000000000000000000000000000000000000000     00000000                                                                                                                        000000000000000000
F0010000008038300001000089010260300013050500000000000000000201512150002001FEDERICO OSORIO A. S.A.                           D000000064224500000000000000000000100010010000000000000000000000F0010000008038300120151215000101 00000000000000000000000000000000000000000000000000000000000000000000000000000000000000000000000000000000000000000N 00000000000NCONT   00    00000000000          00000000000000000000000000000000000000000000 000000000000000A000000000000000000000000000000000000000000000 000000000000000000000000000000000000000     00000000                                                                                                                        000000000000000000
F0010000008038300002000089010260300041450500000000000000000201512150002001FEDERICO OSORIO A. S.A.                           C000000060180000000000000000000000100010010000000000000000000000F0010000008038300220151215000101 00000000000000000000000000000000000000000000000000000000000000000000000000000000000000000000000000000000000000000N 00000000000NCONT   00    00000000000          00000000000000000000000000000000000000000000 000000000000000A000000000000000000000000000000000000000000000 000000000000000000000000000000000000000     00000000                                                                                                                        000000000000000000
F0010000008038300003000089010260300042505000000000000000000201512150002001FEDERICO OSORIO A. S.A.                           C000000004044500000000000000000000100010010000000000000000000000F0010000008038300320151215000101 00000000000000000000000000000000000000000000000000000000000000000000000000000000000000000000000000000000000000000N 00000000000NCONT   00    00000000000          00000000000000000000000000000000000000000000 000000000000000A000000000000000000000000000000000000000000000 000000000000000000000000000000000000000     00000000                                                                                                                        000000000000000000
F0010000008038300004000089010260300023658300000000000000000201512150002001FEDERICO OSORIO A. S.A.                           C000000000481400000000000000000000100010010000000000000000000000F0010000008038300420151215000101 00000000000000000000000000000000000000000000000000000000000000000000000000000000000000000000000000000000000000000N 00000000000NCONT   00    00000000000          00000000000000000000000000000000000000000000 000000000000000A000000000000000000000000000000000000000000000 000000000000000000000000000000000000000     00000000                                                                                                                        000000000000000000
F0010000008038300005000089010260300013552100000000000000000201512150002001FEDERICO OSORIO A. S.A.                           D000000000481400000000000000000000100010010000000000000000000000F0010000008038300520151215000101 00000000000000000000000000000000000000000000000000000000000000000000000000000000000000000000000000000000000000000N 00000000000NCONT   00    00000000000          00000000000000000000000000000000000000000000 000000000000000A000000000000000000000000000000000000000000000 000000000000000000000000000000000000000     00000000                                                                                                                        000000000000000000
F0010000008038400001000080004943800013050500000000000000000201512150002001PAPELERIA EL CID S.A.                             D000000054833000000000000000000000100010010000000000000000000000F0010000008038400120151215000101 00000000000000000000000000000000000000000000000000000000000000000000000000000000000000000000000000000000000000000N 00000000000NCONT   00    00000000000          00000000000000000000000000000000000000000000 000000000000000A000000000000000000000000000000000000000000000 000000000000000000000000000000000000000     00000000                                                                                                                        000000000000000000
F0010000008038400002000080004943800041450500000000000000000201512150002001PAPELERIA EL CID S.A.                             C000000043200500000000000000000000100010010000000000000000000000F0010000008038400220151215000101 00000000000000000000000000000000000000000000000000000000000000000000000000000000000000000000000000000000000000000N 00000000000NCONT   00    00000000000          00000000000000000000000000000000000000000000 000000000000000A000000000000000000000000000000000000000000000 000000000000000000000000000000000000000     00000000                                                                                                                        000000000000000000
F0010000008038400003000080004943800042505000000000000000000201512150002001PAPELERIA EL CID S.A.                             C000000011632500000000000000000000100010010000000000000000000000F0010000008038400320151215000101 00000000000000000000000000000000000000000000000000000000000000000000000000000000000000000000000000000000000000000N 00000000000NCONT   00    00000000000          00000000000000000000000000000000000000000000 000000000000000A000000000000000000000000000000000000000000000 000000000000000000000000000000000000000     00000000                                                                                                                        000000000000000000
F0010000008038400004000080004943800023658300000000000000000201512150002001PAPELERIA EL CID S.A.                             C000000000345600000000000000000000100010010000000000000000000000F0010000008038400420151215000101 00000000000000000000000000000000000000000000000000000000000000000000000000000000000000000000000000000000000000000N 00000000000NCONT   00    00000000000          00000000000000000000000000000000000000000000 000000000000000A000000000000000000000000000000000000000000000 000000000000000000000000000000000000000     00000000                                                                                                                        000000000000000000
F0010000008038400005000080004943800013552100000000000000000201512150002001PAPELERIA EL CID S.A.                             D000000000345600000000000000000000100010010000000000000000000000F0010000008038400520151215000101 00000000000000000000000000000000000000000000000000000000000000000000000000000000000000000000000000000000000000000N 00000000000NCONT   00    00000000000          00000000000000000000000000000000000000000000 000000000000000A000000000000000000000000000000000000000000000 000000000000000000000000000000000000000     00000000                                                                                                                        000000000000000000
F0010000008038500001000080004943800013050500000000000000000201512150002001PAPELERIA EL CID S.A.                             D000000018619000000000000000000000100010010000000000000000000000F0010000008038500120151215000101 00000000000000000000000000000000000000000000000000000000000000000000000000000000000000000000000000000000000000000N 00000000000NCONT   00    00000000000          00000000000000000000000000000000000000000000 000000000000000A000000000000000000000000000000000000000000000 000000000000000000000000000000000000000     00000000                                                                                                                        000000000000000000
F0010000008038500002000080004943800041450500000000000000000201512150002001PAPELERIA EL CID S.A.                             C000000014811500000000000000000000100010010000000000000000000000F0010000008038500220151215000101 00000000000000000000000000000000000000000000000000000000000000000000000000000000000000000000000000000000000000000N 00000000000NCONT   00    00000000000          00000000000000000000000000000000000000000000 000000000000000A000000000000000000000000000000000000000000000 000000000000000000000000000000000000000     00000000                                                                                                                        000000000000000000
F0010000008038500003000080004943800042505000000000000000000201512150002001PAPELERIA EL CID S.A.                             C000000003807500000000000000000000100010010000000000000000000000F0010000008038500320151215000101 00000000000000000000000000000000000000000000000000000000000000000000000000000000000000000000000000000000000000000N 00000000000NCONT   00    00000000000          00000000000000000000000000000000000000000000 000000000000000A000000000000000000000000000000000000000000000 000000000000000000000000000000000000000     00000000                                                                                                                        000000000000000000
F0010000008038500004000080004943800023658300000000000000000201512150002001PAPELERIA EL CID S.A.                             C000000000118500000000000000000000100010010000000000000000000000F0010000008038500420151215000101 00000000000000000000000000000000000000000000000000000000000000000000000000000000000000000000000000000000000000000N 00000000000NCONT   00    00000000000          00000000000000000000000000000000000000000000 000000000000000A000000000000000000000000000000000000000000000 000000000000000000000000000000000000000     00000000                                                                                                                        000000000000000000
F0010000008038500005000080004943800013552100000000000000000201512150002001PAPELERIA EL CID S.A.                             D000000000118500000000000000000000100010010000000000000000000000F0010000008038500520151215000101 00000000000000000000000000000000000000000000000000000000000000000000000000000000000000000000000000000000000000000N 00000000000NCONT   00    00000000000          00000000000000000000000000000000000000000000 000000000000000A000000000000000000000000000000000000000000000 000000000000000000000000000000000000000     00000000                                                                                                                        000000000000000000
F0010000008038600001000080004943800013050500000000000000000201512150002001PAPELERIA EL CID S.A.                             D000000089381500000000000000000000100010010000000000000000000000F0010000008038600120151215000101 00000000000000000000000000000000000000000000000000000000000000000000000000000000000000000000000000000000000000000N 00000000000NCONT   00    00000000000          00000000000000000000000000000000000000000000 000000000000000A000000000000000000000000000000000000000000000 000000000000000000000000000000000000000     00000000                                                                                                                        000000000000000000
F0010000008038600002000080004943800041450500000000000000000201512150002001PAPELERIA EL CID S.A.                             C000000074544000000000000000000000100010010000000000000000000000F0010000008038600220151215000101 00000000000000000000000000000000000000000000000000000000000000000000000000000000000000000000000000000000000000000N 00000000000NCONT   00    00000000000          00000000000000000000000000000000000000000000 000000000000000A000000000000000000000000000000000000000000000 000000000000000000000000000000000000000     00000000                                                                                                                        000000000000000000
F0010000008038600003000080004943800042505000000000000000000201512150002001PAPELERIA EL CID S.A.                             C000000014837500000000000000000000100010010000000000000000000000F0010000008038600320151215000101 00000000000000000000000000000000000000000000000000000000000000000000000000000000000000000000000000000000000000000N 00000000000NCONT   00    00000000000          00000000000000000000000000000000000000000000 000000000000000A000000000000000000000000000000000000000000000 000000000000000000000000000000000000000     00000000                                                                                                                        000000000000000000
F0010000008038600004000080004943800023658300000000000000000201512150002001PAPELERIA EL CID S.A.                             C000000000596400000000000000000000100010010000000000000000000000F0010000008038600420151215000101 00000000000000000000000000000000000000000000000000000000000000000000000000000000000000000000000000000000000000000N 00000000000NCONT   00    00000000000          00000000000000000000000000000000000000000000 000000000000000A000000000000000000000000000000000000000000000 000000000000000000000000000000000000000     00000000                                                                                                                        000000000000000000
F0010000008038600005000080004943800013552100000000000000000201512150002001PAPELERIA EL CID S.A.                             D000000000596400000000000000000000100010010000000000000000000000F0010000008038600520151215000101 00000000000000000000000000000000000000000000000000000000000000000000000000000000000000000000000000000000000000000N 00000000000NCONT   00    00000000000          00000000000000000000000000000000000000000000 000000000000000A000000000000000000000000000000000000000000000 000000000000000000000000000000000000000     00000000                                                                                                                        000000000000000000
F0010000008038700001000080201112800013050500000000000000000201512150002001CANGURO INTERNATIONAL S.A.                        D000000103340800000000000000000000100010010000000000000000000000F0010000008038700120151215000101 00000000000000000000000000000000000000000000000000000000000000000000000000000000000000000000000000000000000000000N 00000000000NCONT   00    00000000000          00000000000000000000000000000000000000000000 000000000000000A000000000000000000000000000000000000000000000 000000000000000000000000000000000000000     00000000                                                                                                                        000000000000000000
F0010000008038700002000080201112800041450500000000000000000201512150002001CANGURO INTERNATIONAL S.A.                        C000000103340800000000000000000000100010010000000000000000000000F0010000008038700220151215000101 00000000000000000000000000000000000000000000000000000000000000000000000000000000000000000000000000000000000000000N 00000000000NCONT   00    00000000000          00000000000000000000000000000000000000000000 000000000000000A000000000000000000000000000000000000000000000 000000000000000000000000000000000000000     00000000                                                                                                                        000000000000000000
F0010000008038700003000080201112800042505000000000000000000201512150002001CANGURO INTERNATIONAL S.A.                        C000000000000000000000000000000000100010010000000000000000000000F0010000008038700320151215000101 00000000000000000000000000000000000000000000000000000000000000000000000000000000000000000000000000000000000000000N 00000000000NCONT   00    00000000000          00000000000000000000000000000000000000000000 000000000000000A000000000000000000000000000000000000000000000 000000000000000000000000000000000000000     00000000                                                                                                                        000000000000000000
F0010000008038700004000080201112800023658300000000000000000201512150002001CANGURO INTERNATIONAL S.A.                        C000000000826700000000000000000000100010010000000000000000000000F0010000008038700420151215000101 00000000000000000000000000000000000000000000000000000000000000000000000000000000000000000000000000000000000000000N 00000000000NCONT   00    00000000000          00000000000000000000000000000000000000000000 000000000000000A000000000000000000000000000000000000000000000 000000000000000000000000000000000000000     00000000                                                                                                                        000000000000000000
F0010000008038700005000080201112800013552100000000000000000201512150002001CANGURO INTERNATIONAL S.A.                        D000000000826700000000000000000000100010010000000000000000000000F0010000008038700520151215000101 00000000000000000000000000000000000000000000000000000000000000000000000000000000000000000000000000000000000000000N 00000000000NCONT   00    00000000000          00000000000000000000000000000000000000000000 000000000000000A000000000000000000000000000000000000000000000 000000000000000000000000000000000000000     00000000                                                                                                                        000000000000000000
F0010000008038800001000080201112800013050500000000000000000201512150002001CANGURO INTERNATIONAL S.A.                        D000000127093300000000000000000000100010010000000000000000000000F0010000008038800120151215000101 00000000000000000000000000000000000000000000000000000000000000000000000000000000000000000000000000000000000000000N 00000000000NCONT   00    00000000000          00000000000000000000000000000000000000000000 000000000000000A000000000000000000000000000000000000000000000 000000000000000000000000000000000000000     00000000                                                                                                                        000000000000000000
F0010000008038800002000080201112800041450500000000000000000201512150002001CANGURO INTERNATIONAL S.A.                        C000000127093300000000000000000000100010010000000000000000000000F0010000008038800220151215000101 00000000000000000000000000000000000000000000000000000000000000000000000000000000000000000000000000000000000000000N 00000000000NCONT   00    00000000000          00000000000000000000000000000000000000000000 000000000000000A000000000000000000000000000000000000000000000 000000000000000000000000000000000000000     00000000                                                                                                                        000000000000000000
F0010000008038800003000080201112800042505000000000000000000201512150002001CANGURO INTERNATIONAL S.A.                        C000000000000000000000000000000000100010010000000000000000000000F0010000008038800320151215000101 00000000000000000000000000000000000000000000000000000000000000000000000000000000000000000000000000000000000000000N 00000000000NCONT   00    00000000000          00000000000000000000000000000000000000000000 000000000000000A000000000000000000000000000000000000000000000 000000000000000000000000000000000000000     00000000                                                                                                                        000000000000000000
F0010000008038800004000080201112800023658300000000000000000201512150002001CANGURO INTERNATIONAL S.A.                        C000000001016700000000000000000000100010010000000000000000000000F0010000008038800420151215000101 00000000000000000000000000000000000000000000000000000000000000000000000000000000000000000000000000000000000000000N 00000000000NCONT   00    00000000000          00000000000000000000000000000000000000000000 000000000000000A000000000000000000000000000000000000000000000 000000000000000000000000000000000000000     00000000                                                                                                                        000000000000000000
F0010000008038800005000080201112800013552100000000000000000201512150002001CANGURO INTERNATIONAL S.A.                        D000000001016700000000000000000000100010010000000000000000000000F0010000008038800520151215000101 00000000000000000000000000000000000000000000000000000000000000000000000000000000000000000000000000000000000000000N 00000000000NCONT   00    00000000000          00000000000000000000000000000000000000000000 000000000000000A000000000000000000000000000000000000000000000 000000000000000000000000000000000000000     00000000                                                                                                                        000000000000000000
F0010000008038900001000080201112800013050500000000000000000201512150002001CANGURO INTERNATIONAL S.A.                        D000000157432800000000000000000000100010010000000000000000000000F0010000008038900120151215000101 00000000000000000000000000000000000000000000000000000000000000000000000000000000000000000000000000000000000000000N 00000000000NCONT   00    00000000000          00000000000000000000000000000000000000000000 000000000000000A000000000000000000000000000000000000000000000 000000000000000000000000000000000000000     00000000                                                                                                                        000000000000000000
F0010000008038900002000080201112800041450500000000000000000201512150002001CANGURO INTERNATIONAL S.A.                        C000000157432800000000000000000000100010010000000000000000000000F0010000008038900220151215000101 00000000000000000000000000000000000000000000000000000000000000000000000000000000000000000000000000000000000000000N 00000000000NCONT   00    00000000000          00000000000000000000000000000000000000000000 000000000000000A000000000000000000000000000000000000000000000 000000000000000000000000000000000000000     00000000                                                                                                                        000000000000000000
F0010000008038900003000080201112800042505000000000000000000201512150002001CANGURO INTERNATIONAL S.A.                        C000000000000000000000000000000000100010010000000000000000000000F0010000008038900320151215000101 00000000000000000000000000000000000000000000000000000000000000000000000000000000000000000000000000000000000000000N 00000000000NCONT   00    00000000000          00000000000000000000000000000000000000000000 000000000000000A000000000000000000000000000000000000000000000 000000000000000000000000000000000000000     00000000                                                                                                                        000000000000000000
F0010000008038900004000080201112800023658300000000000000000201512150002001CANGURO INTERNATIONAL S.A.                        C000000001259500000000000000000000100010010000000000000000000000F0010000008038900420151215000101 00000000000000000000000000000000000000000000000000000000000000000000000000000000000000000000000000000000000000000N 00000000000NCONT   00    00000000000          00000000000000000000000000000000000000000000 000000000000000A000000000000000000000000000000000000000000000 000000000000000000000000000000000000000     00000000                                                                                                                        000000000000000000
F0010000008038900005000080201112800013552100000000000000000201512150002001CANGURO INTERNATIONAL S.A.                        D000000001259500000000000000000000100010010000000000000000000000F0010000008038900520151215000101 00000000000000000000000000000000000000000000000000000000000000000000000000000000000000000000000000000000000000000N 00000000000NCONT   00    00000000000          00000000000000000000000000000000000000000000 000000000000000A000000000000000000000000000000000000000000000 000000000000000000000000000000000000000     00000000                                                                                                                        000000000000000000
F0010000008039000001000080201112800013050500000000000000000201512150002001CANGURO INTERNATIONAL S.A.                        D000000192344200000000000000000000100010010000000000000000000000F0010000008039000120151215000101 00000000000000000000000000000000000000000000000000000000000000000000000000000000000000000000000000000000000000000N 00000000000NCONT   00    00000000000          00000000000000000000000000000000000000000000 000000000000000A000000000000000000000000000000000000000000000 000000000000000000000000000000000000000     00000000                                                                                                                        000000000000000000
F0010000008039000002000080201112800041450500000000000000000201512150002001CANGURO INTERNATIONAL S.A.                        C000000182245000000000000000000000100010010000000000000000000000F0010000008039000220151215000101 00000000000000000000000000000000000000000000000000000000000000000000000000000000000000000000000000000000000000000N 00000000000NCONT   00    00000000000          00000000000000000000000000000000000000000000 000000000000000A000000000000000000000000000000000000000000000 000000000000000000000000000000000000000     00000000                                                                                                                        000000000000000000
F0010000008039000003000080201112800042505000000000000000000201512150002001CANGURO INTERNATIONAL S.A.                        C000000010099200000000000000000000100010010000000000000000000000F0010000008039000320151215000101 00000000000000000000000000000000000000000000000000000000000000000000000000000000000000000000000000000000000000000N 00000000000NCONT   00    00000000000          00000000000000000000000000000000000000000000 000000000000000A000000000000000000000000000000000000000000000 000000000000000000000000000000000000000     00000000                                                                                                                        000000000000000000
F0010000008039000004000080201112800023658300000000000000000201512150002001CANGURO INTERNATIONAL S.A.                        C000000001458000000000000000000000100010010000000000000000000000F0010000008039000420151215000101 00000000000000000000000000000000000000000000000000000000000000000000000000000000000000000000000000000000000000000N 00000000000NCONT   00    00000000000          00000000000000000000000000000000000000000000 000000000000000A000000000000000000000000000000000000000000000 000000000000000000000000000000000000000     00000000                                                                                                                        000000000000000000
F0010000008039000005000080201112800013552100000000000000000201512150002001CANGURO INTERNATIONAL S.A.                        D000000001458000000000000000000000100010010000000000000000000000F0010000008039000520151215000101 00000000000000000000000000000000000000000000000000000000000000000000000000000000000000000000000000000000000000000N 00000000000NCONT   00    00000000000          00000000000000000000000000000000000000000000 000000000000000A000000000000000000000000000000000000000000000 000000000000000000000000000000000000000     00000000                                                                                                                        000000000000000000
F0010000008039100001000080201112800013050500000000000000000201512150002001CANGURO INTERNATIONAL S.A.                        D000000207169200000000000000000000100010010000000000000000000000F0010000008039100120151215000101 00000000000000000000000000000000000000000000000000000000000000000000000000000000000000000000000000000000000000000N 00000000000NCONT   00    00000000000          00000000000000000000000000000000000000000000 000000000000000A000000000000000000000000000000000000000000000 000000000000000000000000000000000000000     00000000                                                                                                                        000000000000000000
F0010000008039100002000080201112800041450500000000000000000201512150002001CANGURO INTERNATIONAL S.A.                        C000000201693600000000000000000000100010010000000000000000000000F0010000008039100220151215000101 00000000000000000000000000000000000000000000000000000000000000000000000000000000000000000000000000000000000000000N 00000000000NCONT   00    00000000000          00000000000000000000000000000000000000000000 000000000000000A000000000000000000000000000000000000000000000 000000000000000000000000000000000000000     00000000                                                                                                                        000000000000000000
F0010000008039100003000080201112800042505000000000000000000201512150002001CANGURO INTERNATIONAL S.A.                        C000000005475600000000000000000000100010010000000000000000000000F0010000008039100320151215000101 00000000000000000000000000000000000000000000000000000000000000000000000000000000000000000000000000000000000000000N 00000000000NCONT   00    00000000000          00000000000000000000000000000000000000000000 000000000000000A000000000000000000000000000000000000000000000 000000000000000000000000000000000000000     00000000                                                                                                                        000000000000000000
F0010000008039100004000080201112800023658300000000000000000201512150002001CANGURO INTERNATIONAL S.A.                        C000000001613500000000000000000000100010010000000000000000000000F0010000008039100420151215000101 00000000000000000000000000000000000000000000000000000000000000000000000000000000000000000000000000000000000000000N 00000000000NCONT   00    00000000000          00000000000000000000000000000000000000000000 000000000000000A000000000000000000000000000000000000000000000 000000000000000000000000000000000000000     00000000                                                                                                                        000000000000000000
F0010000008039100005000080201112800013552100000000000000000201512150002001CANGURO INTERNATIONAL S.A.                        D000000001613500000000000000000000100010010000000000000000000000F0010000008039100520151215000101 00000000000000000000000000000000000000000000000000000000000000000000000000000000000000000000000000000000000000000N 00000000000NCONT   00    00000000000          00000000000000000000000000000000000000000000 000000000000000A000000000000000000000000000000000000000000000 000000000000000000000000000000000000000     00000000                                                                                                                        000000000000000000
F0010000008039200001000089011078600013050500000000000000000201512150002001DIST. NUEVO MUNDO S.A.S.                          D000000017681700000000000000000000100010010000000000000000000000F0010000008039200120151215000101 00000000000000000000000000000000000000000000000000000000000000000000000000000000000000000000000000000000000000000N 00000000000NCONT   00    00000000000          00000000000000000000000000000000000000000000 000000000000000A000000000000000000000000000000000000000000000 000000000000000000000000000000000000000     00000000                                                                                                                        000000000000000000
F0010000008039200002000089011078600041450500000000000000000201512150002001DIST. NUEVO MUNDO S.A.S.                          C000000015672000000000000000000000100010010000000000000000000000F0010000008039200220151215000101 00000000000000000000000000000000000000000000000000000000000000000000000000000000000000000000000000000000000000000N 00000000000NCONT   00    00000000000          00000000000000000000000000000000000000000000 000000000000000A000000000000000000000000000000000000000000000 000000000000000000000000000000000000000     00000000                                                                                                                        000000000000000000
F0010000008039200003000089011078600042505000000000000000000201512150002001DIST. NUEVO MUNDO S.A.S.                          C000000002009700000000000000000000100010010000000000000000000000F0010000008039200320151215000101 00000000000000000000000000000000000000000000000000000000000000000000000000000000000000000000000000000000000000000N 00000000000NCONT   00    00000000000          00000000000000000000000000000000000000000000 000000000000000A000000000000000000000000000000000000000000000 000000000000000000000000000000000000000     00000000                                                                                                                        000000000000000000
F0010000008039200004000089011078600023658300000000000000000201512150002001DIST. NUEVO MUNDO S.A.S.                          C000000000125400000000000000000000100010010000000000000000000000F0010000008039200420151215000101 00000000000000000000000000000000000000000000000000000000000000000000000000000000000000000000000000000000000000000N 00000000000NCONT   00    00000000000          00000000000000000000000000000000000000000000 000000000000000A000000000000000000000000000000000000000000000 000000000000000000000000000000000000000     00000000                                                                                                                        000000000000000000
F0010000008039200005000089011078600013552100000000000000000201512150002001DIST. NUEVO MUNDO S.A.S.                          D000000000125400000000000000000000100010010000000000000000000000F0010000008039200520151215000101 00000000000000000000000000000000000000000000000000000000000000000000000000000000000000000000000000000000000000000N 00000000000NCONT   00    00000000000          00000000000000000000000000000000000000000000 000000000000000A000000000000000000000000000000000000000000000 000000000000000000000000000000000000000     00000000                                                                                                                        000000000000000000
F0010000008039300001000090080946500013050500000000000000000201512150002001INVERSIONES AFAP SAS                              D000000018044500000000000000000000100010010000000000000000000000F0010000008039300120151215000101 00000000000000000000000000000000000000000000000000000000000000000000000000000000000000000000000000000000000000000N 00000000000NCONT   00    00000000000          00000000000000000000000000000000000000000000 000000000000000A000000000000000000000000000000000000000000000 000000000000000000000000000000000000000     00000000                                                                                                                        000000000000000000
F0010000008039300002000090080946500041450500000000000000000201512150002001INVERSIONES AFAP SAS                              C000000012550000000000000000000000100010010000000000000000000000F0010000008039300220151215000101 00000000000000000000000000000000000000000000000000000000000000000000000000000000000000000000000000000000000000000N 00000000000NCONT   00    00000000000          00000000000000000000000000000000000000000000 000000000000000A000000000000000000000000000000000000000000000 000000000000000000000000000000000000000     00000000                                                                                                                        000000000000000000
F0010000008039300003000090080946500042505000000000000000000201512150002001INVERSIONES AFAP SAS                              C000000005494500000000000000000000100010010000000000000000000000F0010000008039300320151215000101 00000000000000000000000000000000000000000000000000000000000000000000000000000000000000000000000000000000000000000N 00000000000NCONT   00    00000000000          00000000000000000000000000000000000000000000 000000000000000A000000000000000000000000000000000000000000000 000000000000000000000000000000000000000     00000000                                                                                                                        000000000000000000
F0010000008039300004000090080946500023658300000000000000000201512150002001INVERSIONES AFAP SAS                              C000000000100400000000000000000000100010010000000000000000000000F0010000008039300420151215000101 00000000000000000000000000000000000000000000000000000000000000000000000000000000000000000000000000000000000000000N 00000000000NCONT   00    00000000000          00000000000000000000000000000000000000000000 000000000000000A000000000000000000000000000000000000000000000 000000000000000000000000000000000000000     00000000                                                                                                                        000000000000000000
F0010000008039300005000090080946500013552100000000000000000201512150002001INVERSIONES AFAP SAS                              D000000000100400000000000000000000100010010000000000000000000000F0010000008039300520151215000101 00000000000000000000000000000000000000000000000000000000000000000000000000000000000000000000000000000000000000000N 00000000000NCONT   00    00000000000          00000000000000000000000000000000000000000000 000000000000000A000000000000000000000000000000000000000000000 000000000000000000000000000000000000000     00000000                                                                                                                        000000000000000000
F0010000008039400001000090001973700013050500000000000000000201512150002001DISTRIBUIDORA Y PAPELERIA VENEPLAS LTDA           D000000002500000000000000000000000100010010000000000000000000000F0010000008039400120151215000101 00000000000000000000000000000000000000000000000000000000000000000000000000000000000000000000000000000000000000000N 00000000000NCONT   00    00000000000          00000000000000000000000000000000000000000000 000000000000000A000000000000000000000000000000000000000000000 000000000000000000000000000000000000000     00000000                                                                                                                        000000000000000000
F0010000008039400002000090001973700041450500000000000000000201512150002001DISTRIBUIDORA Y PAPELERIA VENEPLAS LTDA           C000000002400000000000000000000000100010010000000000000000000000F0010000008039400220151215000101 00000000000000000000000000000000000000000000000000000000000000000000000000000000000000000000000000000000000000000N 00000000000NCONT   00    00000000000          00000000000000000000000000000000000000000000 000000000000000A000000000000000000000000000000000000000000000 000000000000000000000000000000000000000     00000000                                                                                                                        000000000000000000
F0010000008039400003000090001973700042505000000000000000000201512150002001DISTRIBUIDORA Y PAPELERIA VENEPLAS LTDA           C000000000100000000000000000000000100010010000000000000000000000F0010000008039400320151215000101 00000000000000000000000000000000000000000000000000000000000000000000000000000000000000000000000000000000000000000N 00000000000NCONT   00    00000000000          00000000000000000000000000000000000000000000 000000000000000A000000000000000000000000000000000000000000000 000000000000000000000000000000000000000     00000000                                                                                                                        000000000000000000
F0010000008039400004000090001973700023658300000000000000000201512150002001DISTRIBUIDORA Y PAPELERIA VENEPLAS LTDA           C000000000019200000000000000000000100010010000000000000000000000F0010000008039400420151215000101 00000000000000000000000000000000000000000000000000000000000000000000000000000000000000000000000000000000000000000N 00000000000NCONT   00    00000000000          00000000000000000000000000000000000000000000 000000000000000A000000000000000000000000000000000000000000000 000000000000000000000000000000000000000     00000000                                                                                                                        000000000000000000
F0010000008039400005000090001973700013552100000000000000000201512150002001DISTRIBUIDORA Y PAPELERIA VENEPLAS LTDA           D000000000019200000000000000000000100010010000000000000000000000F0010000008039400520151215000101 00000000000000000000000000000000000000000000000000000000000000000000000000000000000000000000000000000000000000000N 00000000000NCONT   00    00000000000          00000000000000000000000000000000000000000000 000000000000000A000000000000000000000000000000000000000000000 000000000000000000000000000000000000000     00000000                                                                                                                        000000000000000000
F0010000008039500001000007215902600013050500000000000000000201512150002001KRISS LORENA BLANCO  (BANTEX)                     D000000004200000000000000000000000100010010000000000000000000000F0010000008039500120151215000101 00000000000000000000000000000000000000000000000000000000000000000000000000000000000000000000000000000000000000000N 00000000000NCONT   00    00000000000          00000000000000000000000000000000000000000000 000000000000000A000000000000000000000000000000000000000000000 000000000000000000000000000000000000000     00000000                                                                                                                        000000000000000000
F0010000008039500002000007215902600041450500000000000000000201512150002001KRISS LORENA BLANCO  (BANTEX)                     C000000003900000000000000000000000100010010000000000000000000000F0010000008039500220151215000101 00000000000000000000000000000000000000000000000000000000000000000000000000000000000000000000000000000000000000000N 00000000000NCONT   00    00000000000          00000000000000000000000000000000000000000000 000000000000000A000000000000000000000000000000000000000000000 000000000000000000000000000000000000000     00000000                                                                                                                        000000000000000000
F0010000008039500003000007215902600042505000000000000000000201512150002001KRISS LORENA BLANCO  (BANTEX)                     C000000000300000000000000000000000100010010000000000000000000000F0010000008039500320151215000101 00000000000000000000000000000000000000000000000000000000000000000000000000000000000000000000000000000000000000000N 00000000000NCONT   00    00000000000          00000000000000000000000000000000000000000000 000000000000000A000000000000000000000000000000000000000000000 000000000000000000000000000000000000000     00000000                                                                                                                        000000000000000000
F0010000008039500004000007215902600023658300000000000000000201512150002001KRISS LORENA BLANCO  (BANTEX)                     C000000000031200000000000000000000100010010000000000000000000000F0010000008039500420151215000101 00000000000000000000000000000000000000000000000000000000000000000000000000000000000000000000000000000000000000000N 00000000000NCONT   00    00000000000          00000000000000000000000000000000000000000000 000000000000000A000000000000000000000000000000000000000000000 000000000000000000000000000000000000000     00000000                                                                                                                        000000000000000000
F0010000008039500005000007215902600013552100000000000000000201512150002001KRISS LORENA BLANCO  (BANTEX)                     D000000000031200000000000000000000100010010000000000000000000000F0010000008039500520151215000101 00000000000000000000000000000000000000000000000000000000000000000000000000000000000000000000000000000000000000000N 00000000000NCONT   00    00000000000          00000000000000000000000000000000000000000000 000000000000000A000000000000000000000000000000000000000000000 000000000000000000000000000000000000000     00000000                                                                                                                        000000000000000000
F0010000008039600001000000827614700013050500000000000000000201512150002001ALVARO  HERNAN  PEREZ ALVAREZ                     D000000005350000000000000000000000100010010000000000000000000000F0010000008039600120151215000101 00000000000000000000000000000000000000000000000000000000000000000000000000000000000000000000000000000000000000000N 00000000000NCONT   00    00000000000          00000000000000000000000000000000000000000000 000000000000000A000000000000000000000000000000000000000000000 000000000000000000000000000000000000000     00000000                                                                                                                        000000000000000000
F0010000008039600002000000827614700041450500000000000000000201512150002001ALVARO  HERNAN  PEREZ ALVAREZ                     C000000004800000000000000000000000100010010000000000000000000000F0010000008039600220151215000101 00000000000000000000000000000000000000000000000000000000000000000000000000000000000000000000000000000000000000000N 00000000000NCONT   00    00000000000          00000000000000000000000000000000000000000000 000000000000000A000000000000000000000000000000000000000000000 000000000000000000000000000000000000000     00000000                                                                                                                        000000000000000000
F0010000008039600003000000827614700042505000000000000000000201512150002001ALVARO  HERNAN  PEREZ ALVAREZ                     C000000000550000000000000000000000100010010000000000000000000000F0010000008039600320151215000101 00000000000000000000000000000000000000000000000000000000000000000000000000000000000000000000000000000000000000000N 00000000000NCONT   00    00000000000          00000000000000000000000000000000000000000000 000000000000000A000000000000000000000000000000000000000000000 000000000000000000000000000000000000000     00000000                                                                                                                        000000000000000000
F0010000008039600004000000827614700023658300000000000000000201512150002001ALVARO  HERNAN  PEREZ ALVAREZ                     C000000000038400000000000000000000100010010000000000000000000000F0010000008039600420151215000101 00000000000000000000000000000000000000000000000000000000000000000000000000000000000000000000000000000000000000000N 00000000000NCONT   00    00000000000          00000000000000000000000000000000000000000000 000000000000000A000000000000000000000000000000000000000000000 000000000000000000000000000000000000000     00000000                                                                                                                        000000000000000000
F0010000008039600005000000827614700013552100000000000000000201512150002001ALVARO  HERNAN  PEREZ ALVAREZ                     D000000000038400000000000000000000100010010000000000000000000000F0010000008039600520151215000101 00000000000000000000000000000000000000000000000000000000000000000000000000000000000000000000000000000000000000000N 00000000000NCONT   00    00000000000          00000000000000000000000000000000000000000000 000000000000000A000000000000000000000000000000000000000000000 000000000000000000000000000000000000000     00000000                                                                                                                        000000000000000000
F0010000008039700001000080019113900013050500000000000000000201512150002001COMERCIAL NOVAPEL LTDA                            D000000012850000000000000000000000100010010000000000000000000000F0010000008039700120151215000101 00000000000000000000000000000000000000000000000000000000000000000000000000000000000000000000000000000000000000000N 00000000000NCONT   00    00000000000          00000000000000000000000000000000000000000000 000000000000000A000000000000000000000000000000000000000000000 000000000000000000000000000000000000000     00000000                                                                                                                        000000000000000000
F0010000008039700002000080019113900041450500000000000000000201512150002001COMERCIAL NOVAPEL LTDA                            C000000012000000000000000000000000100010010000000000000000000000F0010000008039700220151215000101 00000000000000000000000000000000000000000000000000000000000000000000000000000000000000000000000000000000000000000N 00000000000NCONT   00    00000000000          00000000000000000000000000000000000000000000 000000000000000A000000000000000000000000000000000000000000000 000000000000000000000000000000000000000     00000000                                                                                                                        000000000000000000
F0010000008039700003000080019113900042505000000000000000000201512150002001COMERCIAL NOVAPEL LTDA                            C000000000850000000000000000000000100010010000000000000000000000F0010000008039700320151215000101 00000000000000000000000000000000000000000000000000000000000000000000000000000000000000000000000000000000000000000N 00000000000NCONT   00    00000000000          00000000000000000000000000000000000000000000 000000000000000A000000000000000000000000000000000000000000000 000000000000000000000000000000000000000     00000000                                                                                                                        000000000000000000
F0010000008039700004000080019113900023658300000000000000000201512150002001COMERCIAL NOVAPEL LTDA                            C000000000096000000000000000000000100010010000000000000000000000F0010000008039700420151215000101 00000000000000000000000000000000000000000000000000000000000000000000000000000000000000000000000000000000000000000N 00000000000NCONT   00    00000000000          00000000000000000000000000000000000000000000 000000000000000A000000000000000000000000000000000000000000000 000000000000000000000000000000000000000     00000000                                                                                                                        000000000000000000
F0010000008039700005000080019113900013552100000000000000000201512150002001COMERCIAL NOVAPEL LTDA                            D000000000096000000000000000000000100010010000000000000000000000F0010000008039700520151215000101 00000000000000000000000000000000000000000000000000000000000000000000000000000000000000000000000000000000000000000N 00000000000NCONT   00    00000000000          00000000000000000000000000000000000000000000 000000000000000A000000000000000000000000000000000000000000000 000000000000000000000000000000000000000     00000000                                                                                                                        000000000000000000
F0010000008039800001000090010880700013050500000000000000000201512150002001PROELECTRICAS DE BARRANQUILLA LTDA                D000000019302700000000000000000000100010010000000000000000000000F0010000008039800120151215000101 00000000000000000000000000000000000000000000000000000000000000000000000000000000000000000000000000000000000000000N 00000000000NCONT   00    00000000000          00000000000000000000000000000000000000000000 000000000000000A000000000000000000000000000000000000000000000 000000000000000000000000000000000000000     00000000                                                                                                                        000000000000000000
F0010000008039800002000090010880700041450500000000000000000201512150002001PROELECTRICAS DE BARRANQUILLA LTDA                C000000018802700000000000000000000100010010000000000000000000000F0010000008039800220151215000101 00000000000000000000000000000000000000000000000000000000000000000000000000000000000000000000000000000000000000000N 00000000000NCONT   00    00000000000          00000000000000000000000000000000000000000000 000000000000000A000000000000000000000000000000000000000000000 000000000000000000000000000000000000000     00000000                                                                                                                        000000000000000000
F0010000008039800003000090010880700042505000000000000000000201512150002001PROELECTRICAS DE BARRANQUILLA LTDA                C000000000500000000000000000000000100010010000000000000000000000F0010000008039800320151215000101 00000000000000000000000000000000000000000000000000000000000000000000000000000000000000000000000000000000000000000N 00000000000NCONT   00    00000000000          00000000000000000000000000000000000000000000 000000000000000A000000000000000000000000000000000000000000000 000000000000000000000000000000000000000     00000000                                                                                                                        000000000000000000
F0010000008039800004000090010880700023658300000000000000000201512150002001PROELECTRICAS DE BARRANQUILLA LTDA                C000000000150400000000000000000000100010010000000000000000000000F0010000008039800420151215000101 00000000000000000000000000000000000000000000000000000000000000000000000000000000000000000000000000000000000000000N 00000000000NCONT   00    00000000000          00000000000000000000000000000000000000000000 000000000000000A000000000000000000000000000000000000000000000 000000000000000000000000000000000000000     00000000                                                                                                                        000000000000000000
F0010000008039800005000090010880700013552100000000000000000201512150002001PROELECTRICAS DE BARRANQUILLA LTDA                D000000000150400000000000000000000100010010000000000000000000000F0010000008039800520151215000101 00000000000000000000000000000000000000000000000000000000000000000000000000000000000000000000000000000000000000000N 00000000000NCONT   00    00000000000          00000000000000000000000000000000000000000000 000000000000000A000000000000000000000000000000000000000000000 000000000000000000000000000000000000000     00000000                                                                                                                        000000000000000000
F0010000008039900001000090056561700013050500000000000000000201512150002001TODOFER DISTRIBUCIONES S.A.S                      D000000002200000000000000000000000100010010000000000000000000000F0010000008039900120151215000101 00000000000000000000000000000000000000000000000000000000000000000000000000000000000000000000000000000000000000000N 00000000000NCONT   00    00000000000          00000000000000000000000000000000000000000000 000000000000000A000000000000000000000000000000000000000000000 000000000000000000000000000000000000000     00000000                                                                                                                        000000000000000000
F0010000008039900002000090056561700041450500000000000000000201512150002001TODOFER DISTRIBUCIONES S.A.S                      C000000001800000000000000000000000100010010000000000000000000000F0010000008039900220151215000101 00000000000000000000000000000000000000000000000000000000000000000000000000000000000000000000000000000000000000000N 00000000000NCONT   00    00000000000          00000000000000000000000000000000000000000000 000000000000000A000000000000000000000000000000000000000000000 000000000000000000000000000000000000000     00000000                                                                                                                        000000000000000000
