F0010000010318700001000083008772100013050500000000000000000201711020002001ILUMEC SAS                                        D000000000000000000000000000000000100010010000000000000000000000F0010000010318700120171102000101 00000000000000000000000000000000000000000000000000000000000000000000000000000000000000000000000000000000000000000N 00000000000NCONT   00    00000000000          00000000000000000000000000000000000000000000 000000000000000A000000000000000000000000000000000000000000000 000000000000000000000000000000000000000     00000000                                                                                                                        000000000000000000
F0010000010318700002000083008772100041450500000000000000000201711020002001ILUMEC SAS                                        C000000000000000000000000000000000100010010000000000000000000000F0010000010318700220171102000101 00000000000000000000000000000000000000000000000000000000000000000000000000000000000000000000000000000000000000000N 00000000000NCONT   00    00000000000          00000000000000000000000000000000000000000000 000000000000000A000000000000000000000000000000000000000000000 000000000000000000000000000000000000000     00000000                                                                                                                        000000000000000000
F0010000010318700003000083008772100042505000000000000000000201711020002001ILUMEC SAS                                        C000000000000000000000000000000000100010010000000000000000000000F0010000010318700320171102000101 00000000000000000000000000000000000000000000000000000000000000000000000000000000000000000000000000000000000000000N 00000000000NCONT   00    00000000000          00000000000000000000000000000000000000000000 000000000000000A000000000000000000000000000000000000000000000 000000000000000000000000000000000000000     00000000                                                                                                                        000000000000000000
F0010000010318700004000083008772100023658300000000000000000201711020002001ILUMEC SAS                                        C000000000000000000000000000000000100010010000000000000000000000F0010000010318700420171102000101 00000000000000000000000000000000000000000000000000000000000000000000000000000000000000000000000000000000000000000N 00000000000NCONT   00    00000000000          00000000000000000000000000000000000000000000 000000000000000A000000000000000000000000000000000000000000000 000000000000000000000000000000000000000     00000000                                                                                                                        000000000000000000
F0010000010318700005000083008772100013552100000000000000000201711020002001ILUMEC SAS                                        D000000000000000000000000000000000100010010000000000000000000000F0010000010318700520171102000101 00000000000000000000000000000000000000000000000000000000000000000000000000000000000000000000000000000000000000000N 00000000000NCONT   00    00000000000          00000000000000000000000000000000000000000000 000000000000000A000000000000000000000000000000000000000000000 000000000000000000000000000000000000000     00000000                                                                                                                        000000000000000000
F0010000010589800001000089080176300013050500000000000000000201711020002001SEGAR S.A.                                        D000000068331300000000000000000000100010010000000000000000000000F0010000010589800120171102000101 00000000000000000000000000000000000000000000000000000000000000000000000000000000000000000000000000000000000000000N 00000000000NCONT   00    00000000000          00000000000000000000000000000000000000000000 000000000000000A000000000000000000000000000000000000000000000 000000000000000000000000000000000000000     00000000                                                                                                                        000000000000000000
F0010000010589800002000089080176300041450500000000000000000201711020002001SEGAR S.A.                                        C000000057413200000000000000000000100010010000000000000000000000F0010000010589800220171102000101 00000000000000000000000000000000000000000000000000000000000000000000000000000000000000000000000000000000000000000N 00000000000NCONT   00    00000000000          00000000000000000000000000000000000000000000 000000000000000A000000000000000000000000000000000000000000000 000000000000000000000000000000000000000     00000000                                                                                                                        000000000000000000
F0010000010589800003000089080176300042505000000000000000000201711020002001SEGAR S.A.                                        C000000010918100000000000000000000100010010000000000000000000000F0010000010589800320171102000101 00000000000000000000000000000000000000000000000000000000000000000000000000000000000000000000000000000000000000000N 00000000000NCONT   00    00000000000          00000000000000000000000000000000000000000000 000000000000000A000000000000000000000000000000000000000000000 000000000000000000000000000000000000000     00000000                                                                                                                        000000000000000000
F0010000010589800004000089080176300023658300000000000000000201711020002001SEGAR S.A.                                        C000000000000000000000000000000000100010010000000000000000000000F0010000010589800420171102000101 00000000000000000000000000000000000000000000000000000000000000000000000000000000000000000000000000000000000000000N 00000000000NCONT   00    00000000000          00000000000000000000000000000000000000000000 000000000000000A000000000000000000000000000000000000000000000 000000000000000000000000000000000000000     00000000                                                                                                                        000000000000000000
F0010000010589800005000089080176300013552100000000000000000201711020002001SEGAR S.A.                                        D000000000000000000000000000000000100010010000000000000000000000F0010000010589800520171102000101 00000000000000000000000000000000000000000000000000000000000000000000000000000000000000000000000000000000000000000N 00000000000NCONT   00    00000000000          00000000000000000000000000000000000000000000 000000000000000A000000000000000000000000000000000000000000000 000000000000000000000000000000000000000     00000000                                                                                                                        000000000000000000
F0010000010589900001000089080176300013050500000000000000000201711020002001SEGAR S.A.                                        D000000096896700000000000000000000100010010000000000000000000000F0010000010589900120171102000101 00000000000000000000000000000000000000000000000000000000000000000000000000000000000000000000000000000000000000000N 00000000000NCONT   00    00000000000          00000000000000000000000000000000000000000000 000000000000000A000000000000000000000000000000000000000000000 000000000000000000000000000000000000000     00000000                                                                                                                        000000000000000000
F0010000010589900002000089080176300041450500000000000000000201711020002001SEGAR S.A.                                        C000000084091200000000000000000000100010010000000000000000000000F0010000010589900220171102000101 00000000000000000000000000000000000000000000000000000000000000000000000000000000000000000000000000000000000000000N 00000000000NCONT   00    00000000000          00000000000000000000000000000000000000000000 000000000000000A000000000000000000000000000000000000000000000 000000000000000000000000000000000000000     00000000                                                                                                                        000000000000000000
F0010000010589900003000089080176300042505000000000000000000201711020002001SEGAR S.A.                                        C000000012805500000000000000000000100010010000000000000000000000F0010000010589900320171102000101 00000000000000000000000000000000000000000000000000000000000000000000000000000000000000000000000000000000000000000N 00000000000NCONT   00    00000000000          00000000000000000000000000000000000000000000 000000000000000A000000000000000000000000000000000000000000000 000000000000000000000000000000000000000     00000000                                                                                                                        000000000000000000
F0010000010589900004000089080176300023658300000000000000000201711020002001SEGAR S.A.                                        C000000000000000000000000000000000100010010000000000000000000000F0010000010589900420171102000101 00000000000000000000000000000000000000000000000000000000000000000000000000000000000000000000000000000000000000000N 00000000000NCONT   00    00000000000          00000000000000000000000000000000000000000000 000000000000000A000000000000000000000000000000000000000000000 000000000000000000000000000000000000000     00000000                                                                                                                        000000000000000000
F0010000010589900005000089080176300013552100000000000000000201711020002001SEGAR S.A.                                        D000000000000000000000000000000000100010010000000000000000000000F0010000010589900520171102000101 00000000000000000000000000000000000000000000000000000000000000000000000000000000000000000000000000000000000000000N 00000000000NCONT   00    00000000000          00000000000000000000000000000000000000000000 000000000000000A000000000000000000000000000000000000000000000 000000000000000000000000000000000000000     00000000                                                                                                                        000000000000000000
F0010000010590000001000089080176300013050500000000000000000201711020002001SEGAR S.A.                                        D000000077979800000000000000000000100010010000000000000000000000F0010000010590000120171102000101 00000000000000000000000000000000000000000000000000000000000000000000000000000000000000000000000000000000000000000N 00000000000NCONT   00    00000000000          00000000000000000000000000000000000000000000 000000000000000A000000000000000000000000000000000000000000000 000000000000000000000000000000000000000     00000000                                                                                                                        000000000000000000
F0010000010590000002000089080176300041450500000000000000000201711020002001SEGAR S.A.                                        C000000065411000000000000000000000100010010000000000000000000000F0010000010590000220171102000101 00000000000000000000000000000000000000000000000000000000000000000000000000000000000000000000000000000000000000000N 00000000000NCONT   00    00000000000          00000000000000000000000000000000000000000000 000000000000000A000000000000000000000000000000000000000000000 000000000000000000000000000000000000000     00000000                                                                                                                        000000000000000000
F0010000010590000003000089080176300042505000000000000000000201711020002001SEGAR S.A.                                        C000000012568800000000000000000000100010010000000000000000000000F0010000010590000320171102000101 00000000000000000000000000000000000000000000000000000000000000000000000000000000000000000000000000000000000000000N 00000000000NCONT   00    00000000000          00000000000000000000000000000000000000000000 000000000000000A000000000000000000000000000000000000000000000 000000000000000000000000000000000000000     00000000                                                                                                                        000000000000000000
F0010000010590000004000089080176300023658300000000000000000201711020002001SEGAR S.A.                                        C000000000000000000000000000000000100010010000000000000000000000F0010000010590000420171102000101 00000000000000000000000000000000000000000000000000000000000000000000000000000000000000000000000000000000000000000N 00000000000NCONT   00    00000000000          00000000000000000000000000000000000000000000 000000000000000A000000000000000000000000000000000000000000000 000000000000000000000000000000000000000     00000000                                                                                                                        000000000000000000
F0010000010590000005000089080176300013552100000000000000000201711020002001SEGAR S.A.                                        D000000000000000000000000000000000100010010000000000000000000000F0010000010590000520171102000101 00000000000000000000000000000000000000000000000000000000000000000000000000000000000000000000000000000000000000000N 00000000000NCONT   00    00000000000          00000000000000000000000000000000000000000000 000000000000000A000000000000000000000000000000000000000000000 000000000000000000000000000000000000000     00000000                                                                                                                        000000000000000000
F0010000010590100001000086000490200013050500000000000000000201711020002001PROV. DE PAPELES ANDINA S.A.                      D000000193431100000000000000000000100010010000000000000000000000F0010000010590100120171102000101 00000000000000000000000000000000000000000000000000000000000000000000000000000000000000000000000000000000000000000N 00000000000NCONT   00    00000000000          00000000000000000000000000000000000000000000 000000000000000A000000000000000000000000000000000000000000000 000000000000000000000000000000000000000     00000000                                                                                                                        000000000000000000
F0010000010590100002000086000490200041450500000000000000000201711020002001PROV. DE PAPELES ANDINA S.A.                      C000000179969800000000000000000000100010010000000000000000000000F0010000010590100220171102000101 00000000000000000000000000000000000000000000000000000000000000000000000000000000000000000000000000000000000000000N 00000000000NCONT   00    00000000000          00000000000000000000000000000000000000000000 000000000000000A000000000000000000000000000000000000000000000 000000000000000000000000000000000000000     00000000                                                                                                                        000000000000000000
F0010000010590100003000086000490200042505000000000000000000201711020002001PROV. DE PAPELES ANDINA S.A.                      C000000013461300000000000000000000100010010000000000000000000000F0010000010590100320171102000101 00000000000000000000000000000000000000000000000000000000000000000000000000000000000000000000000000000000000000000N 00000000000NCONT   00    00000000000          00000000000000000000000000000000000000000000 000000000000000A000000000000000000000000000000000000000000000 000000000000000000000000000000000000000     00000000                                                                                                                        000000000000000000
F0010000010590100004000086000490200023658300000000000000000201711020002001PROV. DE PAPELES ANDINA S.A.                      C000000000000000000000000000000000100010010000000000000000000000F0010000010590100420171102000101 00000000000000000000000000000000000000000000000000000000000000000000000000000000000000000000000000000000000000000N 00000000000NCONT   00    00000000000          00000000000000000000000000000000000000000000 000000000000000A000000000000000000000000000000000000000000000 000000000000000000000000000000000000000     00000000                                                                                                                        000000000000000000
F0010000010590100005000086000490200013552100000000000000000201711020002001PROV. DE PAPELES ANDINA S.A.                      D000000000000000000000000000000000100010010000000000000000000000F0010000010590100520171102000101 00000000000000000000000000000000000000000000000000000000000000000000000000000000000000000000000000000000000000000N 00000000000NCONT   00    00000000000          00000000000000000000000000000000000000000000 000000000000000A000000000000000000000000000000000000000000000 000000000000000000000000000000000000000     00000000                                                                                                                        000000000000000000
F0010000010590200001000089080176300013050500000000000000000201711020002001SEGAR S.A.                                        D000000041988500000000000000000000100010010000000000000000000000F0010000010590200120171102000101 00000000000000000000000000000000000000000000000000000000000000000000000000000000000000000000000000000000000000000N 00000000000NCONT   00    00000000000          00000000000000000000000000000000000000000000 000000000000000A000000000000000000000000000000000000000000000 000000000000000000000000000000000000000     00000000                                                                                                                        000000000000000000
F0010000010590200002000089080176300041450500000000000000000201711020002001SEGAR S.A.                                        C000000030915800000000000000000000100010010000000000000000000000F0010000010590200220171102000101 00000000000000000000000000000000000000000000000000000000000000000000000000000000000000000000000000000000000000000N 00000000000NCONT   00    00000000000          00000000000000000000000000000000000000000000 000000000000000A000000000000000000000000000000000000000000000 000000000000000000000000000000000000000     00000000                                                                                                                        000000000000000000
F0010000010590200003000089080176300042505000000000000000000201711020002001SEGAR S.A.                                        C000000011072700000000000000000000100010010000000000000000000000F0010000010590200320171102000101 00000000000000000000000000000000000000000000000000000000000000000000000000000000000000000000000000000000000000000N 00000000000NCONT   00    00000000000          00000000000000000000000000000000000000000000 000000000000000A000000000000000000000000000000000000000000000 000000000000000000000000000000000000000     00000000                                                                                                                        000000000000000000
F0010000010590200004000089080176300023658300000000000000000201711020002001SEGAR S.A.                                        C000000000000000000000000000000000100010010000000000000000000000F0010000010590200420171102000101 00000000000000000000000000000000000000000000000000000000000000000000000000000000000000000000000000000000000000000N 00000000000NCONT   00    00000000000          00000000000000000000000000000000000000000000 000000000000000A000000000000000000000000000000000000000000000 000000000000000000000000000000000000000     00000000                                                                                                                        000000000000000000
F0010000010590200005000089080176300013552100000000000000000201711020002001SEGAR S.A.                                        D000000000000000000000000000000000100010010000000000000000000000F0010000010590200520171102000101 00000000000000000000000000000000000000000000000000000000000000000000000000000000000000000000000000000000000000000N 00000000000NCONT   00    00000000000          00000000000000000000000000000000000000000000 000000000000000A000000000000000000000000000000000000000000000 000000000000000000000000000000000000000     00000000                                                                                                                        000000000000000000
F0010000010590300001000089080176300013050500000000000000000201711020002001SEGAR S.A.                                        D000000063657000000000000000000000100010010000000000000000000000F0010000010590300120171102000101 00000000000000000000000000000000000000000000000000000000000000000000000000000000000000000000000000000000000000000N 00000000000NCONT   00    00000000000          00000000000000000000000000000000000000000000 000000000000000A000000000000000000000000000000000000000000000 000000000000000000000000000000000000000     00000000                                                                                                                        000000000000000000
F0010000010590300002000089080176300041450500000000000000000201711020002001SEGAR S.A.                                        C000000050608100000000000000000000100010010000000000000000000000F0010000010590300220171102000101 00000000000000000000000000000000000000000000000000000000000000000000000000000000000000000000000000000000000000000N 00000000000NCONT   00    00000000000          00000000000000000000000000000000000000000000 000000000000000A000000000000000000000000000000000000000000000 000000000000000000000000000000000000000     00000000                                                                                                                        000000000000000000
F0010000010590300003000089080176300042505000000000000000000201711020002001SEGAR S.A.                                        C000000013048900000000000000000000100010010000000000000000000000F0010000010590300320171102000101 00000000000000000000000000000000000000000000000000000000000000000000000000000000000000000000000000000000000000000N 00000000000NCONT   00    00000000000          00000000000000000000000000000000000000000000 000000000000000A000000000000000000000000000000000000000000000 000000000000000000000000000000000000000     00000000                                                                                                                        000000000000000000
F0010000010590300004000089080176300023658300000000000000000201711020002001SEGAR S.A.                                        C000000000000000000000000000000000100010010000000000000000000000F0010000010590300420171102000101 00000000000000000000000000000000000000000000000000000000000000000000000000000000000000000000000000000000000000000N 00000000000NCONT   00    00000000000          00000000000000000000000000000000000000000000 000000000000000A000000000000000000000000000000000000000000000 000000000000000000000000000000000000000     00000000                                                                                                                        000000000000000000
F0010000010590300005000089080176300013552100000000000000000201711020002001SEGAR S.A.                                        D000000000000000000000000000000000100010010000000000000000000000F0010000010590300520171102000101 00000000000000000000000000000000000000000000000000000000000000000000000000000000000000000000000000000000000000000N 00000000000NCONT   00    00000000000          00000000000000000000000000000000000000000000 000000000000000A000000000000000000000000000000000000000000000 000000000000000000000000000000000000000     00000000                                                                                                                        000000000000000000
F0010000010590400001000089080176300013050500000000000000000201711020002001SEGAR S.A.                                        D000000059393500000000000000000000100010010000000000000000000000F0010000010590400120171102000101 00000000000000000000000000000000000000000000000000000000000000000000000000000000000000000000000000000000000000000N 00000000000NCONT   00    00000000000          00000000000000000000000000000000000000000000 000000000000000A000000000000000000000000000000000000000000000 000000000000000000000000000000000000000     00000000                                                                                                                        000000000000000000
F0010000010590400002000089080176300041450500000000000000000201711020002001SEGAR S.A.                                        C000000048720100000000000000000000100010010000000000000000000000F0010000010590400220171102000101 00000000000000000000000000000000000000000000000000000000000000000000000000000000000000000000000000000000000000000N 00000000000NCONT   00    00000000000          00000000000000000000000000000000000000000000 000000000000000A000000000000000000000000000000000000000000000 000000000000000000000000000000000000000     00000000                                                                                                                        000000000000000000
F0010000010590400003000089080176300042505000000000000000000201711020002001SEGAR S.A.                                        C000000010673400000000000000000000100010010000000000000000000000F0010000010590400320171102000101 00000000000000000000000000000000000000000000000000000000000000000000000000000000000000000000000000000000000000000N 00000000000NCONT   00    00000000000          00000000000000000000000000000000000000000000 000000000000000A000000000000000000000000000000000000000000000 000000000000000000000000000000000000000     00000000                                                                                                                        000000000000000000
F0010000010590400004000089080176300023658300000000000000000201711020002001SEGAR S.A.                                        C000000000000000000000000000000000100010010000000000000000000000F0010000010590400420171102000101 00000000000000000000000000000000000000000000000000000000000000000000000000000000000000000000000000000000000000000N 00000000000NCONT   00    00000000000          00000000000000000000000000000000000000000000 000000000000000A000000000000000000000000000000000000000000000 000000000000000000000000000000000000000     00000000                                                                                                                        000000000000000000
F0010000010590400005000089080176300013552100000000000000000201711020002001SEGAR S.A.                                        D000000000000000000000000000000000100010010000000000000000000000F0010000010590400520171102000101 00000000000000000000000000000000000000000000000000000000000000000000000000000000000000000000000000000000000000000N 00000000000NCONT   00    00000000000          00000000000000000000000000000000000000000000 000000000000000A000000000000000000000000000000000000000000000 000000000000000000000000000000000000000     00000000                                                                                                                        000000000000000000
F0010000010590500001000089080176300013050500000000000000000201711020002001SEGAR S.A.                                        D000000056671300000000000000000000100010010000000000000000000000F0010000010590500120171102000101 00000000000000000000000000000000000000000000000000000000000000000000000000000000000000000000000000000000000000000N 00000000000NCONT   00    00000000000          00000000000000000000000000000000000000000000 000000000000000A000000000000000000000000000000000000000000000 000000000000000000000000000000000000000     00000000                                                                                                                        000000000000000000
F0010000010590500002000089080176300041450500000000000000000201711020002001SEGAR S.A.                                        C000000043663600000000000000000000100010010000000000000000000000F0010000010590500220171102000101 00000000000000000000000000000000000000000000000000000000000000000000000000000000000000000000000000000000000000000N 00000000000NCONT   00    00000000000          00000000000000000000000000000000000000000000 000000000000000A000000000000000000000000000000000000000000000 000000000000000000000000000000000000000     00000000                                                                                                                        000000000000000000
F0010000010590500003000089080176300042505000000000000000000201711020002001SEGAR S.A.                                        C000000013007700000000000000000000100010010000000000000000000000F0010000010590500320171102000101 00000000000000000000000000000000000000000000000000000000000000000000000000000000000000000000000000000000000000000N 00000000000NCONT   00    00000000000          00000000000000000000000000000000000000000000 000000000000000A000000000000000000000000000000000000000000000 000000000000000000000000000000000000000     00000000                                                                                                                        000000000000000000
F0010000010590500004000089080176300023658300000000000000000201711020002001SEGAR S.A.                                        C000000000000000000000000000000000100010010000000000000000000000F0010000010590500420171102000101 00000000000000000000000000000000000000000000000000000000000000000000000000000000000000000000000000000000000000000N 00000000000NCONT   00    00000000000          00000000000000000000000000000000000000000000 000000000000000A000000000000000000000000000000000000000000000 000000000000000000000000000000000000000     00000000                                                                                                                        000000000000000000
F0010000010590500005000089080176300013552100000000000000000201711020002001SEGAR S.A.                                        D000000000000000000000000000000000100010010000000000000000000000F0010000010590500520171102000101 00000000000000000000000000000000000000000000000000000000000000000000000000000000000000000000000000000000000000000N 00000000000NCONT   00    00000000000          00000000000000000000000000000000000000000000 000000000000000A000000000000000000000000000000000000000000000 000000000000000000000000000000000000000     00000000                                                                                                                        000000000000000000
F0010000010590600001000089080176300013050500000000000000000201711020002001SEGAR S.A.                                        D000000061788000000000000000000000100010010000000000000000000000F0010000010590600120171102000101 00000000000000000000000000000000000000000000000000000000000000000000000000000000000000000000000000000000000000000N 00000000000NCONT   00    00000000000          00000000000000000000000000000000000000000000 000000000000000A000000000000000000000000000000000000000000000 000000000000000000000000000000000000000     00000000                                                                                                                        000000000000000000
F0010000010590600002000089080176300041450500000000000000000201711020002001SEGAR S.A.                                        C000000049403300000000000000000000100010010000000000000000000000F0010000010590600220171102000101 00000000000000000000000000000000000000000000000000000000000000000000000000000000000000000000000000000000000000000N 00000000000NCONT   00    00000000000          00000000000000000000000000000000000000000000 000000000000000A000000000000000000000000000000000000000000000 000000000000000000000000000000000000000     00000000                                                                                                                        000000000000000000
F0010000010590600003000089080176300042505000000000000000000201711020002001SEGAR S.A.                                        C000000012384700000000000000000000100010010000000000000000000000F0010000010590600320171102000101 00000000000000000000000000000000000000000000000000000000000000000000000000000000000000000000000000000000000000000N 00000000000NCONT   00    00000000000          00000000000000000000000000000000000000000000 000000000000000A000000000000000000000000000000000000000000000 000000000000000000000000000000000000000     00000000                                                                                                                        000000000000000000
F0010000010590600004000089080176300023658300000000000000000201711020002001SEGAR S.A.                                        C000000000000000000000000000000000100010010000000000000000000000F0010000010590600420171102000101 00000000000000000000000000000000000000000000000000000000000000000000000000000000000000000000000000000000000000000N 00000000000NCONT   00    00000000000          00000000000000000000000000000000000000000000 000000000000000A000000000000000000000000000000000000000000000 000000000000000000000000000000000000000     00000000                                                                                                                        000000000000000000
F0010000010590600005000089080176300013552100000000000000000201711020002001SEGAR S.A.                                        D000000000000000000000000000000000100010010000000000000000000000F0010000010590600520171102000101 00000000000000000000000000000000000000000000000000000000000000000000000000000000000000000000000000000000000000000N 00000000000NCONT   00    00000000000          00000000000000000000000000000000000000000000 000000000000000A000000000000000000000000000000000000000000000 000000000000000000000000000000000000000     00000000                                                                                                                        000000000000000000
F0010000010590700001000080201127600013050500000000000000000201711020002001ELECTRICOS DEL RUIZ S.A.S.                        D000000015254000000000000000000000100010010000000000000000000000F0010000010590700120171102000101 00000000000000000000000000000000000000000000000000000000000000000000000000000000000000000000000000000000000000000N 00000000000NCONT   00    00000000000          00000000000000000000000000000000000000000000 000000000000000A000000000000000000000000000000000000000000000 000000000000000000000000000000000000000     00000000                                                                                                                        000000000000000000
F0010000010590700002000080201127600041450500000000000000000201711020002001ELECTRICOS DEL RUIZ S.A.S.                        C000000011000000000000000000000000100010010000000000000000000000F0010000010590700220171102000101 00000000000000000000000000000000000000000000000000000000000000000000000000000000000000000000000000000000000000000N 00000000000NCONT   00    00000000000          00000000000000000000000000000000000000000000 000000000000000A000000000000000000000000000000000000000000000 000000000000000000000000000000000000000     00000000                                                                                                                        000000000000000000
F0010000010590700003000080201127600042505000000000000000000201711020002001ELECTRICOS DEL RUIZ S.A.S.                        C000000004254000000000000000000000100010010000000000000000000000F0010000010590700320171102000101 00000000000000000000000000000000000000000000000000000000000000000000000000000000000000000000000000000000000000000N 00000000000NCONT   00    00000000000          00000000000000000000000000000000000000000000 000000000000000A000000000000000000000000000000000000000000000 000000000000000000000000000000000000000     00000000                                                                                                                        000000000000000000
F0010000010590700004000080201127600023658300000000000000000201711020002001ELECTRICOS DEL RUIZ S.A.S.                        C000000000000000000000000000000000100010010000000000000000000000F0010000010590700420171102000101 00000000000000000000000000000000000000000000000000000000000000000000000000000000000000000000000000000000000000000N 00000000000NCONT   00    00000000000          00000000000000000000000000000000000000000000 000000000000000A000000000000000000000000000000000000000000000 000000000000000000000000000000000000000     00000000                                                                                                                        000000000000000000
F0010000010590700005000080201127600013552100000000000000000201711020002001ELECTRICOS DEL RUIZ S.A.S.                        D000000000000000000000000000000000100010010000000000000000000000F0010000010590700520171102000101 00000000000000000000000000000000000000000000000000000000000000000000000000000000000000000000000000000000000000000N 00000000000NCONT   00    00000000000          00000000000000000000000000000000000000000000 000000000000000A000000000000000000000000000000000000000000000 000000000000000000000000000000000000000     00000000                                                                                                                        000000000000000000
F0010000010590800001000080016665600013050500000000000000000201711020002001SUMICAL DE ANTIOQUIA S.A.S                        D000000016110900000000000000000000100010010000000000000000000000F0010000010590800120171102000101 00000000000000000000000000000000000000000000000000000000000000000000000000000000000000000000000000000000000000000N 00000000000NCONT   00    00000000000          00000000000000000000000000000000000000000000 000000000000000A000000000000000000000000000000000000000000000 000000000000000000000000000000000000000     00000000                                                                                                                        000000000000000000
F0010000010590800002000080016665600041450500000000000000000201711020002001SUMICAL DE ANTIOQUIA S.A.S                        C000000012920000000000000000000000100010010000000000000000000000F0010000010590800220171102000101 00000000000000000000000000000000000000000000000000000000000000000000000000000000000000000000000000000000000000000N 00000000000NCONT   00    00000000000          00000000000000000000000000000000000000000000 000000000000000A000000000000000000000000000000000000000000000 000000000000000000000000000000000000000     00000000                                                                                                                        000000000000000000
F0010000010590800003000080016665600042505000000000000000000201711020002001SUMICAL DE ANTIOQUIA S.A.S                        C000000003190900000000000000000000100010010000000000000000000000F0010000010590800320171102000101 00000000000000000000000000000000000000000000000000000000000000000000000000000000000000000000000000000000000000000N 00000000000NCONT   00    00000000000          00000000000000000000000000000000000000000000 000000000000000A000000000000000000000000000000000000000000000 000000000000000000000000000000000000000     00000000                                                                                                                        000000000000000000
F0010000010590800004000080016665600023658300000000000000000201711020002001SUMICAL DE ANTIOQUIA S.A.S                        C000000000000000000000000000000000100010010000000000000000000000F0010000010590800420171102000101 00000000000000000000000000000000000000000000000000000000000000000000000000000000000000000000000000000000000000000N 00000000000NCONT   00    00000000000          00000000000000000000000000000000000000000000 000000000000000A000000000000000000000000000000000000000000000 000000000000000000000000000000000000000     00000000                                                                                                                        000000000000000000
F0010000010590800005000080016665600013552100000000000000000201711020002001SUMICAL DE ANTIOQUIA S.A.S                        D000000000000000000000000000000000100010010000000000000000000000F0010000010590800520171102000101 00000000000000000000000000000000000000000000000000000000000000000000000000000000000000000000000000000000000000000N 00000000000NCONT   00    00000000000          00000000000000000000000000000000000000000000 000000000000000A000000000000000000000000000000000000000000000 000000000000000000000000000000000000000     00000000                                                                                                                        000000000000000000
F0010000010590900001000090059316900013050500000000000000000201711020002001DISTRIBUCIONES Y REPRESENTACIONES MANA            D000000007759000000000000000000000100010010000000000000000000000F0010000010590900120171102000101 00000000000000000000000000000000000000000000000000000000000000000000000000000000000000000000000000000000000000000N 00000000000NCONT   00    00000000000          00000000000000000000000000000000000000000000 000000000000000A000000000000000000000000000000000000000000000 000000000000000000000000000000000000000     00000000                                                                                                                        000000000000000000
F0010000010590900002000090059316900041450500000000000000000201711020002001DISTRIBUCIONES Y REPRESENTACIONES MANA            C000000006450000000000000000000000100010010000000000000000000000F0010000010590900220171102000101 00000000000000000000000000000000000000000000000000000000000000000000000000000000000000000000000000000000000000000N 00000000000NCONT   00    00000000000          00000000000000000000000000000000000000000000 000000000000000A000000000000000000000000000000000000000000000 000000000000000000000000000000000000000     00000000                                                                                                                        000000000000000000
F0010000010590900003000090059316900042505000000000000000000201711020002001DISTRIBUCIONES Y REPRESENTACIONES MANA            C000000001309000000000000000000000100010010000000000000000000000F0010000010590900320171102000101 00000000000000000000000000000000000000000000000000000000000000000000000000000000000000000000000000000000000000000N 00000000000NCONT   00    00000000000          00000000000000000000000000000000000000000000 000000000000000A000000000000000000000000000000000000000000000 000000000000000000000000000000000000000     00000000                                                                                                                        000000000000000000
F0010000010590900004000090059316900023658300000000000000000201711020002001DISTRIBUCIONES Y REPRESENTACIONES MANA            C000000000000000000000000000000000100010010000000000000000000000F0010000010590900420171102000101 00000000000000000000000000000000000000000000000000000000000000000000000000000000000000000000000000000000000000000N 00000000000NCONT   00    00000000000          00000000000000000000000000000000000000000000 000000000000000A000000000000000000000000000000000000000000000 000000000000000000000000000000000000000     00000000                                                                                                                        000000000000000000
F0010000010590900005000090059316900013552100000000000000000201711020002001DISTRIBUCIONES Y REPRESENTACIONES MANA            D000000000000000000000000000000000100010010000000000000000000000F0010000010590900520171102000101 00000000000000000000000000000000000000000000000000000000000000000000000000000000000000000000000000000000000000000N 00000000000NCONT   00    00000000000          00000000000000000000000000000000000000000000 000000000000000A000000000000000000000000000000000000000000000 000000000000000000000000000000000000000     00000000                                                                                                                        000000000000000000
F0010000010591000001000089011193000013050500000000000000000201711020002001DOQUIMICA DE LA COSTA LT DA                       D000000006700000000000000000000000100010010000000000000000000000F0010000010591000120171102000101 00000000000000000000000000000000000000000000000000000000000000000000000000000000000000000000000000000000000000000N 00000000000NCONT   00    00000000000          00000000000000000000000000000000000000000000 000000000000000A000000000000000000000000000000000000000000000 000000000000000000000000000000000000000     00000000                                                                                                                        000000000000000000
F0010000010591000002000089011193000041450500000000000000000201711020002001DOQUIMICA DE LA COSTA LT DA                       C000000006500000000000000000000000100010010000000000000000000000F0010000010591000220171102000101 00000000000000000000000000000000000000000000000000000000000000000000000000000000000000000000000000000000000000000N 00000000000NCONT   00    00000000000          00000000000000000000000000000000000000000000 000000000000000A000000000000000000000000000000000000000000000 000000000000000000000000000000000000000     00000000                                                                                                                        000000000000000000
F0010000010591000003000089011193000042505000000000000000000201711020002001DOQUIMICA DE LA COSTA LT DA                       C000000000200000000000000000000000100010010000000000000000000000F0010000010591000320171102000101 00000000000000000000000000000000000000000000000000000000000000000000000000000000000000000000000000000000000000000N 00000000000NCONT   00    00000000000          00000000000000000000000000000000000000000000 000000000000000A000000000000000000000000000000000000000000000 000000000000000000000000000000000000000     00000000                                                                                                                        000000000000000000
F0010000010591000004000089011193000023658300000000000000000201711020002001DOQUIMICA DE LA COSTA LT DA                       C000000000000000000000000000000000100010010000000000000000000000F0010000010591000420171102000101 00000000000000000000000000000000000000000000000000000000000000000000000000000000000000000000000000000000000000000N 00000000000NCONT   00    00000000000          00000000000000000000000000000000000000000000 000000000000000A000000000000000000000000000000000000000000000 000000000000000000000000000000000000000     00000000                                                                                                                        000000000000000000
F0010000010591000005000089011193000013552100000000000000000201711020002001DOQUIMICA DE LA COSTA LT DA                       D000000000000000000000000000000000100010010000000000000000000000F0010000010591000520171102000101 00000000000000000000000000000000000000000000000000000000000000000000000000000000000000000000000000000000000000000N 00000000000NCONT   00    00000000000          00000000000000000000000000000000000000000000 000000000000000A000000000000000000000000000000000000000000000 000000000000000000000000000000000000000     00000000                                                                                                                        000000000000000000
F0010000010591100001000090064982900013050500000000000000000201711020002001DISDIES S.A.S                                     D000000015553800000000000000000000100010010000000000000000000000F0010000010591100120171102000101 00000000000000000000000000000000000000000000000000000000000000000000000000000000000000000000000000000000000000000N 00000000000NCONT   00    00000000000          00000000000000000000000000000000000000000000 000000000000000A000000000000000000000000000000000000000000000 000000000000000000000000000000000000000     00000000                                                                                                                        000000000000000000
F0010000010591100002000090064982900041450500000000000000000201711020002001DISDIES S.A.S                                     C000000013128800000000000000000000100010010000000000000000000000F0010000010591100220171102000101 00000000000000000000000000000000000000000000000000000000000000000000000000000000000000000000000000000000000000000N 00000000000NCONT   00    00000000000          00000000000000000000000000000000000000000000 000000000000000A000000000000000000000000000000000000000000000 000000000000000000000000000000000000000     00000000                                                                                                                        000000000000000000
F0010000010591100003000090064982900042505000000000000000000201711020002001DISDIES S.A.S                                     C000000002425000000000000000000000100010010000000000000000000000F0010000010591100320171102000101 00000000000000000000000000000000000000000000000000000000000000000000000000000000000000000000000000000000000000000N 00000000000NCONT   00    00000000000          00000000000000000000000000000000000000000000 000000000000000A000000000000000000000000000000000000000000000 000000000000000000000000000000000000000     00000000                                                                                                                        000000000000000000
F0010000010591100004000090064982900023658300000000000000000201711020002001DISDIES S.A.S                                     C000000000000000000000000000000000100010010000000000000000000000F0010000010591100420171102000101 00000000000000000000000000000000000000000000000000000000000000000000000000000000000000000000000000000000000000000N 00000000000NCONT   00    00000000000          00000000000000000000000000000000000000000000 000000000000000A000000000000000000000000000000000000000000000 000000000000000000000000000000000000000     00000000                                                                                                                        000000000000000000
F0010000010591100005000090064982900013552100000000000000000201711020002001DISDIES S.A.S                                     D000000000000000000000000000000000100010010000000000000000000000F0010000010591100520171102000101 00000000000000000000000000000000000000000000000000000000000000000000000000000000000000000000000000000000000000000N 00000000000NCONT   00    00000000000          00000000000000000000000000000000000000000000 000000000000000A000000000000000000000000000000000000000000000 000000000000000000000000000000000000000     00000000                                                                                                                        000000000000000000
F0010000010591200001000080201703900013050500000000000000000201711020002001MUNDIAL CHEMICAL LTDA                             D000000002580000000000000000000000100010010000000000000000000000F0010000010591200120171102000101 00000000000000000000000000000000000000000000000000000000000000000000000000000000000000000000000000000000000000000N 00000000000NCONT   00    00000000000          00000000000000000000000000000000000000000000 000000000000000A000000000000000000000000000000000000000000000 000000000000000000000000000000000000000     00000000                                                                                                                        000000000000000000
F0010000010591200002000080201703900041450500000000000000000201711020002001MUNDIAL CHEMICAL LTDA                             C000000002000000000000000000000000100010010000000000000000000000F0010000010591200220171102000101 00000000000000000000000000000000000000000000000000000000000000000000000000000000000000000000000000000000000000000N 00000000000NCONT   00    00000000000          00000000000000000000000000000000000000000000 000000000000000A000000000000000000000000000000000000000000000 000000000000000000000000000000000000000     00000000                                                                                                                        000000000000000000
F0010000010591200003000080201703900042505000000000000000000201711020002001MUNDIAL CHEMICAL LTDA                             C000000000580000000000000000000000100010010000000000000000000000F0010000010591200320171102000101 00000000000000000000000000000000000000000000000000000000000000000000000000000000000000000000000000000000000000000N 00000000000NCONT   00    00000000000          00000000000000000000000000000000000000000000 000000000000000A000000000000000000000000000000000000000000000 000000000000000000000000000000000000000     00000000                                                                                                                        000000000000000000
F0010000010591200004000080201703900023658300000000000000000201711020002001MUNDIAL CHEMICAL LTDA                             C000000000000000000000000000000000100010010000000000000000000000F0010000010591200420171102000101 00000000000000000000000000000000000000000000000000000000000000000000000000000000000000000000000000000000000000000N 00000000000NCONT   00    00000000000          00000000000000000000000000000000000000000000 000000000000000A000000000000000000000000000000000000000000000 000000000000000000000000000000000000000     00000000                                                                                                                        000000000000000000
F0010000010591200005000080201703900013552100000000000000000201711020002001MUNDIAL CHEMICAL LTDA                             D000000000000000000000000000000000100010010000000000000000000000F0010000010591200520171102000101 00000000000000000000000000000000000000000000000000000000000000000000000000000000000000000000000000000000000000000N 00000000000NCONT   00    00000000000          00000000000000000000000000000000000000000000 000000000000000A000000000000000000000000000000000000000000000 000000000000000000000000000000000000000     00000000                                                                                                                        000000000000000000
F0010000010591300001000000091780800013050500000000000000000201711020002001ITALO RENE HERAZO CARCAMO /CENTRAL DE TORNILLOS   D000000016780000000000000000000000100010010000000000000000000000F0010000010591300120171102000101 00000000000000000000000000000000000000000000000000000000000000000000000000000000000000000000000000000000000000000N 00000000000NCONT   00    00000000000          00000000000000000000000000000000000000000000 000000000000000A000000000000000000000000000000000000000000000 000000000000000000000000000000000000000     00000000                                                                                                                        000000000000000000
F0010000010591300002000000091780800041450500000000000000000201711020002001ITALO RENE HERAZO CARCAMO /CENTRAL DE TORNILLOS   C000000014080000000000000000000000100010010000000000000000000000F0010000010591300220171102000101 00000000000000000000000000000000000000000000000000000000000000000000000000000000000000000000000000000000000000000N 00000000000NCONT   00    00000000000          00000000000000000000000000000000000000000000 000000000000000A000000000000000000000000000000000000000000000 000000000000000000000000000000000000000     00000000                                                                                                                        000000000000000000
F0010000010591300003000000091780800042505000000000000000000201711020002001ITALO RENE HERAZO CARCAMO /CENTRAL DE TORNILLOS   C000000002700000000000000000000000100010010000000000000000000000F0010000010591300320171102000101 00000000000000000000000000000000000000000000000000000000000000000000000000000000000000000000000000000000000000000N 00000000000NCONT   00    00000000000          00000000000000000000000000000000000000000000 000000000000000A000000000000000000000000000000000000000000000 000000000000000000000000000000000000000     00000000                                                                                                                        000000000000000000
F0010000010591300004000000091780800023658300000000000000000201711020002001ITALO RENE HERAZO CARCAMO /CENTRAL DE TORNILLOS   C000000000000000000000000000000000100010010000000000000000000000F0010000010591300420171102000101 00000000000000000000000000000000000000000000000000000000000000000000000000000000000000000000000000000000000000000N 00000000000NCONT   00    00000000000          00000000000000000000000000000000000000000000 000000000000000A000000000000000000000000000000000000000000000 000000000000000000000000000000000000000     00000000                                                                                                                        000000000000000000
F0010000010591300005000000091780800013552100000000000000000201711020002001ITALO RENE HERAZO CARCAMO /CENTRAL DE TORNILLOS   D000000000000000000000000000000000100010010000000000000000000000F0010000010591300520171102000101 00000000000000000000000000000000000000000000000000000000000000000000000000000000000000000000000000000000000000000N 00000000000NCONT   00    00000000000          00000000000000000000000000000000000000000000 000000000000000A000000000000000000000000000000000000000000000 000000000000000000000000000000000000000     00000000                                                                                                                        000000000000000000
F0010000010591400001000090060531100013050500000000000000000201711020002001RECUBRIMIENTOS ESENCIALES SAS                     D000000309925000000000000000000000100010010000000000000000000000F0010000010591400120171102000101 00000000000000000000000000000000000000000000000000000000000000000000000000000000000000000000000000000000000000000N 00000000000NCONT   00    00000000000          00000000000000000000000000000000000000000000 000000000000000A000000000000000000000000000000000000000000000 000000000000000000000000000000000000000     00000000                                                                                                                        000000000000000000
F0010000010591400002000090060531100041450500000000000000000201711020002001RECUBRIMIENTOS ESENCIALES SAS                     C000000303175000000000000000000000100010010000000000000000000000F0010000010591400220171102000101 00000000000000000000000000000000000000000000000000000000000000000000000000000000000000000000000000000000000000000N 00000000000NCONT   00    00000000000          00000000000000000000000000000000000000000000 000000000000000A000000000000000000000000000000000000000000000 000000000000000000000000000000000000000     00000000                                                                                                                        000000000000000000
F0010000010591400003000090060531100042505000000000000000000201711020002001RECUBRIMIENTOS ESENCIALES SAS                     C000000006750000000000000000000000100010010000000000000000000000F0010000010591400320171102000101 00000000000000000000000000000000000000000000000000000000000000000000000000000000000000000000000000000000000000000N 00000000000NCONT   00    00000000000          00000000000000000000000000000000000000000000 000000000000000A000000000000000000000000000000000000000000000 000000000000000000000000000000000000000     00000000                                                                                                                        000000000000000000
F0010000010591400004000090060531100023658300000000000000000201711020002001RECUBRIMIENTOS ESENCIALES SAS                     C000000000000000000000000000000000100010010000000000000000000000F0010000010591400420171102000101 00000000000000000000000000000000000000000000000000000000000000000000000000000000000000000000000000000000000000000N 00000000000NCONT   00    00000000000          00000000000000000000000000000000000000000000 000000000000000A000000000000000000000000000000000000000000000 000000000000000000000000000000000000000     00000000                                                                                                                        000000000000000000
F0010000010591400005000090060531100013552100000000000000000201711020002001RECUBRIMIENTOS ESENCIALES SAS                     D000000000000000000000000000000000100010010000000000000000000000F0010000010591400520171102000101 00000000000000000000000000000000000000000000000000000000000000000000000000000000000000000000000000000000000000000N 00000000000NCONT   00    00000000000          00000000000000000000000000000000000000000000 000000000000000A000000000000000000000000000000000000000000000 000000000000000000000000000000000000000     00000000                                                                                                                        000000000000000000
F0010000010591500001000003273290300013050500000000000000000201711020002001YANETH GOMEZ ROJANO -  COMERCIALIZADORA YG        D000000003348600000000000000000000100010010000000000000000000000F0010000010591500120171102000101 00000000000000000000000000000000000000000000000000000000000000000000000000000000000000000000000000000000000000000N 00000000000NCONT   00    00000000000          00000000000000000000000000000000000000000000 000000000000000A000000000000000000000000000000000000000000000 000000000000000000000000000000000000000     00000000                                                                                                                        000000000000000000
F0010000010591500002000003273290300041450500000000000000000201711020002001YANETH GOMEZ ROJANO -  COMERCIALIZADORA YG        C000000002400000000000000000000000100010010000000000000000000000F0010000010591500220171102000101 00000000000000000000000000000000000000000000000000000000000000000000000000000000000000000000000000000000000000000N 00000000000NCONT   00    00000000000          00000000000000000000000000000000000000000000 000000000000000A000000000000000000000000000000000000000000000 000000000000000000000000000000000000000     00000000                                                                                                                        000000000000000000
F0010000010591500003000003273290300042505000000000000000000201711020002001YANETH GOMEZ ROJANO -  COMERCIALIZADORA YG        C000000000948600000000000000000000100010010000000000000000000000F0010000010591500320171102000101 00000000000000000000000000000000000000000000000000000000000000000000000000000000000000000000000000000000000000000N 00000000000NCONT   00    00000000000          00000000000000000000000000000000000000000000 000000000000000A000000000000000000000000000000000000000000000 000000000000000000000000000000000000000     00000000                                                                                                                        000000000000000000
F0010000010591500004000003273290300023658300000000000000000201711020002001YANETH GOMEZ ROJANO -  COMERCIALIZADORA YG        C000000000000000000000000000000000100010010000000000000000000000F0010000010591500420171102000101 00000000000000000000000000000000000000000000000000000000000000000000000000000000000000000000000000000000000000000N 00000000000NCONT   00    00000000000          00000000000000000000000000000000000000000000 000000000000000A000000000000000000000000000000000000000000000 000000000000000000000000000000000000000     00000000                                                                                                                        000000000000000000
F0010000010591500005000003273290300013552100000000000000000201711020002001YANETH GOMEZ ROJANO -  COMERCIALIZADORA YG        D000000000000000000000000000000000100010010000000000000000000000F0010000010591500520171102000101 00000000000000000000000000000000000000000000000000000000000000000000000000000000000000000000000000000000000000000N 00000000000NCONT   00    00000000000          00000000000000000000000000000000000000000000 000000000000000A000000000000000000000000000000000000000000000 000000000000000000000000000000000000000     00000000                                                                                                                        000000000000000000
F0010000010591600001000080002300200013050500000000000000000201711020002001DISREL S.A.                                       D000000015975000000000000000000000100010010000000000000000000000F0010000010591600120171102000101 00000000000000000000000000000000000000000000000000000000000000000000000000000000000000000000000000000000000000000N 00000000000NCONT   00    00000000000          00000000000000000000000000000000000000000000 000000000000000A000000000000000000000000000000000000000000000 000000000000000000000000000000000000000     00000000                                                                                                                        000000000000000000
F0010000010591600002000080002300200041450500000000000000000201711020002001DISREL S.A.                                       C000000013460000000000000000000000100010010000000000000000000000F0010000010591600220171102000101 00000000000000000000000000000000000000000000000000000000000000000000000000000000000000000000000000000000000000000N 00000000000NCONT   00    00000000000          00000000000000000000000000000000000000000000 000000000000000A000000000000000000000000000000000000000000000 000000000000000000000000000000000000000     00000000                                                                                                                        000000000000000000
F0010000010591600003000080002300200042505000000000000000000201711020002001DISREL S.A.                                       C000000002515000000000000000000000100010010000000000000000000000F0010000010591600320171102000101 00000000000000000000000000000000000000000000000000000000000000000000000000000000000000000000000000000000000000000N 00000000000NCONT   00    00000000000          00000000000000000000000000000000000000000000 000000000000000A000000000000000000000000000000000000000000000 000000000000000000000000000000000000000     00000000                                                                                                                        000000000000000000
F0010000010591600004000080002300200023658300000000000000000201711020002001DISREL S.A.                                       C000000000000000000000000000000000100010010000000000000000000000F0010000010591600420171102000101 00000000000000000000000000000000000000000000000000000000000000000000000000000000000000000000000000000000000000000N 00000000000NCONT   00    00000000000          00000000000000000000000000000000000000000000 000000000000000A000000000000000000000000000000000000000000000 000000000000000000000000000000000000000     00000000                                                                                                                        000000000000000000
F0010000010591600005000080002300200013552100000000000000000201711020002001DISREL S.A.                                       D000000000000000000000000000000000100010010000000000000000000000F0010000010591600520171102000101 00000000000000000000000000000000000000000000000000000000000000000000000000000000000000000000000000000000000000000N 00000000000NCONT   00    00000000000          00000000000000000000000000000000000000000000 000000000000000A000000000000000000000000000000000000000000000 000000000000000000000000000000000000000     00000000                                                                                                                        000000000000000000
F0010000010591700001000083001155300013050500000000000000000201711020002001COMERCIALIZADORA RUBEN S LTDA                     D000000046488900000000000000000000100010010000000000000000000000F0010000010591700120171102000101 00000000000000000000000000000000000000000000000000000000000000000000000000000000000000000000000000000000000000000N 00000000000NCONT   00    00000000000          00000000000000000000000000000000000000000000 000000000000000A000000000000000000000000000000000000000000000 000000000000000000000000000000000000000     00000000                                                                                                                        000000000000000000
F0010000010591700002000083001155300041450500000000000000000201711020002001COMERCIALIZADORA RUBEN S LTDA                     C000000042013200000000000000000000100010010000000000000000000000F0010000010591700220171102000101 00000000000000000000000000000000000000000000000000000000000000000000000000000000000000000000000000000000000000000N 00000000000NCONT   00    00000000000          00000000000000000000000000000000000000000000 000000000000000A000000000000000000000000000000000000000000000 000000000000000000000000000000000000000     00000000                                                                                                                        000000000000000000
F0010000010591700003000083001155300042505000000000000000000201711020002001COMERCIALIZADORA RUBEN S LTDA                     C000000004475700000000000000000000100010010000000000000000000000F0010000010591700320171102000101 00000000000000000000000000000000000000000000000000000000000000000000000000000000000000000000000000000000000000000N 00000000000NCONT   00    00000000000          00000000000000000000000000000000000000000000 000000000000000A000000000000000000000000000000000000000000000 000000000000000000000000000000000000000     00000000                                                                                                                        000000000000000000
F0010000010591700004000083001155300023658300000000000000000201711020002001COMERCIALIZADORA RUBEN S LTDA                     C000000000000000000000000000000000100010010000000000000000000000F0010000010591700420171102000101 00000000000000000000000000000000000000000000000000000000000000000000000000000000000000000000000000000000000000000N 00000000000NCONT   00    00000000000          00000000000000000000000000000000000000000000 000000000000000A000000000000000000000000000000000000000000000 000000000000000000000000000000000000000     00000000                                                                                                                        000000000000000000
F0010000010591700005000083001155300013552100000000000000000201711020002001COMERCIALIZADORA RUBEN S LTDA                     D000000000000000000000000000000000100010010000000000000000000000F0010000010591700520171102000101 00000000000000000000000000000000000000000000000000000000000000000000000000000000000000000000000000000000000000000N 00000000000NCONT   00    00000000000          00000000000000000000000000000000000000000000 000000000000000A000000000000000000000000000000000000000000000 000000000000000000000000000000000000000     00000000                                                                                                                        000000000000000000
F0010000010591800001000090048173700013050500000000000000000201711020002001ESPECIALIDADES QUIMICAS DEL NORTE SAS             D000000005720000000000000000000000100010010000000000000000000000F0010000010591800120171102000101 00000000000000000000000000000000000000000000000000000000000000000000000000000000000000000000000000000000000000000N 00000000000NCONT   00    00000000000          00000000000000000000000000000000000000000000 000000000000000A000000000000000000000000000000000000000000000 000000000000000000000000000000000000000     00000000                                                                                                                        000000000000000000
F0010000010591800002000090048173700041450500000000000000000201711020002001ESPECIALIDADES QUIMICAS DEL NORTE SAS             C000000005220000000000000000000000100010010000000000000000000000F0010000010591800220171102000101 00000000000000000000000000000000000000000000000000000000000000000000000000000000000000000000000000000000000000000N 00000000000NCONT   00    00000000000          00000000000000000000000000000000000000000000 000000000000000A000000000000000000000000000000000000000000000 000000000000000000000000000000000000000     00000000                                                                                                                        000000000000000000
F0010000010591800003000090048173700042505000000000000000000201711020002001ESPECIALIDADES QUIMICAS DEL NORTE SAS             C000000000500000000000000000000000100010010000000000000000000000F0010000010591800320171102000101 00000000000000000000000000000000000000000000000000000000000000000000000000000000000000000000000000000000000000000N 00000000000NCONT   00    00000000000          00000000000000000000000000000000000000000000 000000000000000A000000000000000000000000000000000000000000000 000000000000000000000000000000000000000     00000000                                                                                                                        000000000000000000
F0010000010591800004000090048173700023658300000000000000000201711020002001ESPECIALIDADES QUIMICAS DEL NORTE SAS             C000000000000000000000000000000000100010010000000000000000000000F0010000010591800420171102000101 00000000000000000000000000000000000000000000000000000000000000000000000000000000000000000000000000000000000000000N 00000000000NCONT   00    00000000000          00000000000000000000000000000000000000000000 000000000000000A000000000000000000000000000000000000000000000 000000000000000000000000000000000000000     00000000                                                                                                                        000000000000000000
F0010000010591800005000090048173700013552100000000000000000201711020002001ESPECIALIDADES QUIMICAS DEL NORTE SAS             D000000000000000000000000000000000100010010000000000000000000000F0010000010591800520171102000101 00000000000000000000000000000000000000000000000000000000000000000000000000000000000000000000000000000000000000000N 00000000000NCONT   00    00000000000          00000000000000000000000000000000000000000000 000000000000000A000000000000000000000000000000000000000000000 000000000000000000000000000000000000000     00000000                                                                                                                        000000000000000000
F0010000010591900001000090009800500013050500000000000000000201711020002001GLORIANT CHEMICHALS DE COLOMBIA LTDA              D000000036394000000000000000000000100010010000000000000000000000F0010000010591900120171102000101 00000000000000000000000000000000000000000000000000000000000000000000000000000000000000000000000000000000000000000N 00000000000NCONT   00    00000000000          00000000000000000000000000000000000000000000 000000000000000A000000000000000000000000000000000000000000000 000000000000000000000000000000000000000     00000000                                                                                                                        000000000000000000
F0010000010591900002000090009800500041450500000000000000000201711020002001GLORIANT CHEMICHALS DE COLOMBIA LTDA              C000000030720000000000000000000000100010010000000000000000000000F0010000010591900220171102000101 00000000000000000000000000000000000000000000000000000000000000000000000000000000000000000000000000000000000000000N 00000000000NCONT   00    00000000000          00000000000000000000000000000000000000000000 000000000000000A000000000000000000000000000000000000000000000 000000000000000000000000000000000000000     00000000                                                                                                                        000000000000000000
F0010000010591900003000090009800500042505000000000000000000201711020002001GLORIANT CHEMICHALS DE COLOMBIA LTDA              C000000005674000000000000000000000100010010000000000000000000000F0010000010591900320171102000101 00000000000000000000000000000000000000000000000000000000000000000000000000000000000000000000000000000000000000000N 00000000000NCONT   00    00000000000          00000000000000000000000000000000000000000000 000000000000000A000000000000000000000000000000000000000000000 000000000000000000000000000000000000000     00000000                                                                                                                        000000000000000000
F0010000010591900004000090009800500023658300000000000000000201711020002001GLORIANT CHEMICHALS DE COLOMBIA LTDA              C000000000000000000000000000000000100010010000000000000000000000F0010000010591900420171102000101 00000000000000000000000000000000000000000000000000000000000000000000000000000000000000000000000000000000000000000N 00000000000NCONT   00    00000000000          00000000000000000000000000000000000000000000 000000000000000A000000000000000000000000000000000000000000000 000000000000000000000000000000000000000     00000000                                                                                                                        000000000000000000
F0010000010591900005000090009800500013552100000000000000000201711020002001GLORIANT CHEMICHALS DE COLOMBIA LTDA              D000000000000000000000000000000000100010010000000000000000000000F0010000010591900520171102000101 00000000000000000000000000000000000000000000000000000000000000000000000000000000000000000000000000000000000000000N 00000000000NCONT   00    00000000000          00000000000000000000000000000000000000000000 000000000000000A000000000000000000000000000000000000000000000 000000000000000000000000000000000000000     00000000                                                                                                                        000000000000000000
F0010000010592000001000000748239700013050500000000000000000201711020002001RAFAEL NAVARRO URIBE                              D000000049981000000000000000000000100010010000000000000000000000F0010000010592000120171102000101 00000000000000000000000000000000000000000000000000000000000000000000000000000000000000000000000000000000000000000N 00000000000NCONT   00    00000000000          00000000000000000000000000000000000000000000 000000000000000A000000000000000000000000000000000000000000000 000000000000000000000000000000000000000     00000000                                                                                                                        000000000000000000
F0010000010592000002000000748239700041450500000000000000000201711020002001RAFAEL NAVARRO URIBE                              C000000031400000000000000000000000100010010000000000000000000000F0010000010592000220171102000101 00000000000000000000000000000000000000000000000000000000000000000000000000000000000000000000000000000000000000000N 00000000000NCONT   00    00000000000          00000000000000000000000000000000000000000000 000000000000000A000000000000000000000000000000000000000000000 000000000000000000000000000000000000000     00000000                                                                                                                        000000000000000000
F0010000010592000003000000748239700042505000000000000000000201711020002001RAFAEL NAVARRO URIBE                              C000000018581000000000000000000000100010010000000000000000000000F0010000010592000320171102000101 00000000000000000000000000000000000000000000000000000000000000000000000000000000000000000000000000000000000000000N 00000000000NCONT   00    00000000000          00000000000000000000000000000000000000000000 000000000000000A000000000000000000000000000000000000000000000 000000000000000000000000000000000000000     00000000                                                                                                                        000000000000000000
F0010000010592000004000000748239700023658300000000000000000201711020002001RAFAEL NAVARRO URIBE                              C000000000000000000000000000000000100010010000000000000000000000F0010000010592000420171102000101 00000000000000000000000000000000000000000000000000000000000000000000000000000000000000000000000000000000000000000N 00000000000NCONT   00    00000000000          00000000000000000000000000000000000000000000 000000000000000A000000000000000000000000000000000000000000000 000000000000000000000000000000000000000     00000000                                                                                                                        000000000000000000
F0010000010592000005000000748239700013552100000000000000000201711020002001RAFAEL NAVARRO URIBE                              D000000000000000000000000000000000100010010000000000000000000000F0010000010592000520171102000101 00000000000000000000000000000000000000000000000000000000000000000000000000000000000000000000000000000000000000000N 00000000000NCONT   00    00000000000          00000000000000000000000000000000000000000000 000000000000000A000000000000000000000000000000000000000000000 000000000000000000000000000000000000000     00000000                                                                                                                        000000000000000000
F0010000010592100001000089010260300013050500000000000000000201711020002001FEDERICO OSORIO A. S.A.                           D000000149809900000000000000000000100010010000000000000000000000F0010000010592100120171102000101 00000000000000000000000000000000000000000000000000000000000000000000000000000000000000000000000000000000000000000N 00000000000NCONT   00    00000000000          00000000000000000000000000000000000000000000 000000000000000A000000000000000000000000000000000000000000000 000000000000000000000000000000000000000     00000000                                                                                                                        000000000000000000
F0010000010592100002000089010260300041450500000000000000000201711020002001FEDERICO OSORIO A. S.A.                           C000000137320000000000000000000000100010010000000000000000000000F0010000010592100220171102000101 00000000000000000000000000000000000000000000000000000000000000000000000000000000000000000000000000000000000000000N 00000000000NCONT   00    00000000000          00000000000000000000000000000000000000000000 000000000000000A000000000000000000000000000000000000000000000 000000000000000000000000000000000000000     00000000                                                                                                                        000000000000000000
F0010000010592100003000089010260300042505000000000000000000201711020002001FEDERICO OSORIO A. S.A.                           C000000012489900000000000000000000100010010000000000000000000000F0010000010592100320171102000101 00000000000000000000000000000000000000000000000000000000000000000000000000000000000000000000000000000000000000000N 00000000000NCONT   00    00000000000          00000000000000000000000000000000000000000000 000000000000000A000000000000000000000000000000000000000000000 000000000000000000000000000000000000000     00000000                                                                                                                        000000000000000000
F0010000010592100004000089010260300023658300000000000000000201711020002001FEDERICO OSORIO A. S.A.                           C000000000000000000000000000000000100010010000000000000000000000F0010000010592100420171102000101 00000000000000000000000000000000000000000000000000000000000000000000000000000000000000000000000000000000000000000N 00000000000NCONT   00    00000000000          00000000000000000000000000000000000000000000 000000000000000A000000000000000000000000000000000000000000000 000000000000000000000000000000000000000     00000000                                                                                                                        000000000000000000
F0010000010592100005000089010260300013552100000000000000000201711020002001FEDERICO OSORIO A. S.A.                           D000000000000000000000000000000000100010010000000000000000000000F0010000010592100520171102000101 00000000000000000000000000000000000000000000000000000000000000000000000000000000000000000000000000000000000000000N 00000000000NCONT   00    00000000000          00000000000000000000000000000000000000000000 000000000000000A000000000000000000000000000000000000000000000 000000000000000000000000000000000000000     00000000                                                                                                                        000000000000000000
F0010000010592200001000089010260300013050500000000000000000201711020002001FEDERICO OSORIO A. S.A.                           D000000059900400000000000000000000100010010000000000000000000000F0010000010592200120171102000101 00000000000000000000000000000000000000000000000000000000000000000000000000000000000000000000000000000000000000000N 00000000000NCONT   00    00000000000          00000000000000000000000000000000000000000000 000000000000000A000000000000000000000000000000000000000000000 000000000000000000000000000000000000000     00000000                                                                                                                        000000000000000000
F0010000010592200002000089010260300041450500000000000000000201711020002001FEDERICO OSORIO A. S.A.                           C000000057030000000000000000000000100010010000000000000000000000F0010000010592200220171102000101 00000000000000000000000000000000000000000000000000000000000000000000000000000000000000000000000000000000000000000N 00000000000NCONT   00    00000000000          00000000000000000000000000000000000000000000 000000000000000A000000000000000000000000000000000000000000000 000000000000000000000000000000000000000     00000000                                                                                                                        000000000000000000
F0010000010592200003000089010260300042505000000000000000000201711020002001FEDERICO OSORIO A. S.A.                           C000000002870400000000000000000000100010010000000000000000000000F0010000010592200320171102000101 00000000000000000000000000000000000000000000000000000000000000000000000000000000000000000000000000000000000000000N 00000000000NCONT   00    00000000000          00000000000000000000000000000000000000000000 000000000000000A000000000000000000000000000000000000000000000 000000000000000000000000000000000000000     00000000                                                                                                                        000000000000000000
F0010000010592200004000089010260300023658300000000000000000201711020002001FEDERICO OSORIO A. S.A.                           C000000000000000000000000000000000100010010000000000000000000000F0010000010592200420171102000101 00000000000000000000000000000000000000000000000000000000000000000000000000000000000000000000000000000000000000000N 00000000000NCONT   00    00000000000          00000000000000000000000000000000000000000000 000000000000000A000000000000000000000000000000000000000000000 000000000000000000000000000000000000000     00000000                                                                                                                        000000000000000000
F0010000010592200005000089010260300013552100000000000000000201711020002001FEDERICO OSORIO A. S.A.                           D000000000000000000000000000000000100010010000000000000000000000F0010000010592200520171102000101 00000000000000000000000000000000000000000000000000000000000000000000000000000000000000000000000000000000000000000N 00000000000NCONT   00    00000000000          00000000000000000000000000000000000000000000 000000000000000A000000000000000000000000000000000000000000000 000000000000000000000000000000000000000     00000000                                                                                                                        000000000000000000
F0010000010592300001000090052543100013050500000000000000000201711020002001SECRET COLOR SAS                                  D000000009610000000000000000000000100010010000000000000000000000F0010000010592300120171102000101 00000000000000000000000000000000000000000000000000000000000000000000000000000000000000000000000000000000000000000N 00000000000NCONT   00    00000000000          00000000000000000000000000000000000000000000 000000000000000A000000000000000000000000000000000000000000000 000000000000000000000000000000000000000     00000000                                                                                                                        000000000000000000
F0010000010592300002000090052543100041450500000000000000000201711020002001SECRET COLOR SAS                                  C000000009610000000000000000000000100010010000000000000000000000F0010000010592300220171102000101 00000000000000000000000000000000000000000000000000000000000000000000000000000000000000000000000000000000000000000N 00000000000NCONT   00    00000000000          00000000000000000000000000000000000000000000 000000000000000A000000000000000000000000000000000000000000000 000000000000000000000000000000000000000     00000000                                                                                                                        000000000000000000
F0010000010592300003000090052543100042505000000000000000000201711020002001SECRET COLOR SAS                                  C000000000000000000000000000000000100010010000000000000000000000F0010000010592300320171102000101 00000000000000000000000000000000000000000000000000000000000000000000000000000000000000000000000000000000000000000N 00000000000NCONT   00    00000000000          00000000000000000000000000000000000000000000 000000000000000A000000000000000000000000000000000000000000000 000000000000000000000000000000000000000     00000000                                                                                                                        000000000000000000
F0010000010592300004000090052543100023658300000000000000000201711020002001SECRET COLOR SAS                                  C000000000000000000000000000000000100010010000000000000000000000F0010000010592300420171102000101 00000000000000000000000000000000000000000000000000000000000000000000000000000000000000000000000000000000000000000N 00000000000NCONT   00    00000000000          00000000000000000000000000000000000000000000 000000000000000A000000000000000000000000000000000000000000000 000000000000000000000000000000000000000     00000000                                                                                                                        000000000000000000
F0010000010592300005000090052543100013552100000000000000000201711020002001SECRET COLOR SAS                                  D000000000000000000000000000000000100010010000000000000000000000F0010000010592300520171102000101 00000000000000000000000000000000000000000000000000000000000000000000000000000000000000000000000000000000000000000N 00000000000NCONT   00    00000000000          00000000000000000000000000000000000000000000 000000000000000A000000000000000000000000000000000000000000000 000000000000000000000000000000000000000     00000000                                                                                                                        000000000000000000
F0010000010592400001000000376399500013050500000000000000000201711020002001FORDPLAST                                         D000000004410000000000000000000000100010010000000000000000000000F0010000010592400120171102000101 00000000000000000000000000000000000000000000000000000000000000000000000000000000000000000000000000000000000000000N 00000000000NCONT   00    00000000000          00000000000000000000000000000000000000000000 000000000000000A000000000000000000000000000000000000000000000 000000000000000000000000000000000000000     00000000                                                                                                                        000000000000000000
F0010000010592400002000000376399500041450500000000000000000201711020002001FORDPLAST                                         C000000003440000000000000000000000100010010000000000000000000000F0010000010592400220171102000101 00000000000000000000000000000000000000000000000000000000000000000000000000000000000000000000000000000000000000000N 00000000000NCONT   00    00000000000          00000000000000000000000000000000000000000000 000000000000000A000000000000000000000000000000000000000000000 000000000000000000000000000000000000000     00000000                                                                                                                        000000000000000000
F0010000010592400003000000376399500042505000000000000000000201711020002001FORDPLAST                                         C000000000970000000000000000000000100010010000000000000000000000F0010000010592400320171102000101 00000000000000000000000000000000000000000000000000000000000000000000000000000000000000000000000000000000000000000N 00000000000NCONT   00    00000000000          00000000000000000000000000000000000000000000 000000000000000A000000000000000000000000000000000000000000000 000000000000000000000000000000000000000     00000000                                                                                                                        000000000000000000
F0010000010592400004000000376399500023658300000000000000000201711020002001FORDPLAST                                         C000000000000000000000000000000000100010010000000000000000000000F0010000010592400420171102000101 00000000000000000000000000000000000000000000000000000000000000000000000000000000000000000000000000000000000000000N 00000000000NCONT   00    00000000000          00000000000000000000000000000000000000000000 000000000000000A000000000000000000000000000000000000000000000 000000000000000000000000000000000000000     00000000                                                                                                                        000000000000000000
F0010000010592400005000000376399500013552100000000000000000201711020002001FORDPLAST                                         D000000000000000000000000000000000100010010000000000000000000000F0010000010592400520171102000101 00000000000000000000000000000000000000000000000000000000000000000000000000000000000000000000000000000000000000000N 00000000000NCONT   00    00000000000          00000000000000000000000000000000000000000000 000000000000000A000000000000000000000000000000000000000000000 000000000000000000000000000000000000000     00000000                                                                                                                        000000000000000000
F0010000010592500001000090070305900013050500000000000000000201711020002001CONSTRUCCIONES Y ASOCIADOS DE LA COSTA            D000000134400000000000000000000000100010010000000000000000000000F0010000010592500120171102000101 00000000000000000000000000000000000000000000000000000000000000000000000000000000000000000000000000000000000000000N 00000000000NCONT   00    00000000000          00000000000000000000000000000000000000000000 000000000000000A000000000000000000000000000000000000000000000 000000000000000000000000000000000000000     00000000                                                                                                                        000000000000000000
F0010000010592500002000090070305900041450500000000000000000201711020002001CONSTRUCCIONES Y ASOCIADOS DE LA COSTA            C000000132700000000000000000000000100010010000000000000000000000F0010000010592500220171102000101 00000000000000000000000000000000000000000000000000000000000000000000000000000000000000000000000000000000000000000N 00000000000NCONT   00    00000000000          00000000000000000000000000000000000000000000 000000000000000A000000000000000000000000000000000000000000000 000000000000000000000000000000000000000     00000000                                                                                                                        000000000000000000
F0010000010592500003000090070305900042505000000000000000000201711020002001CONSTRUCCIONES Y ASOCIADOS DE LA COSTA            C000000001700000000000000000000000100010010000000000000000000000F0010000010592500320171102000101 00000000000000000000000000000000000000000000000000000000000000000000000000000000000000000000000000000000000000000N 00000000000NCONT   00    00000000000          00000000000000000000000000000000000000000000 000000000000000A000000000000000000000000000000000000000000000 000000000000000000000000000000000000000     00000000                                                                                                                        000000000000000000
F0010000010592500004000090070305900023658300000000000000000201711020002001CONSTRUCCIONES Y ASOCIADOS DE LA COSTA            C000000000000000000000000000000000100010010000000000000000000000F0010000010592500420171102000101 00000000000000000000000000000000000000000000000000000000000000000000000000000000000000000000000000000000000000000N 00000000000NCONT   00    00000000000          00000000000000000000000000000000000000000000 000000000000000A000000000000000000000000000000000000000000000 000000000000000000000000000000000000000     00000000                                                                                                                        000000000000000000
F0010000010592500005000090070305900013552100000000000000000201711020002001CONSTRUCCIONES Y ASOCIADOS DE LA COSTA            D000000000000000000000000000000000100010010000000000000000000000F0010000010592500520171102000101 00000000000000000000000000000000000000000000000000000000000000000000000000000000000000000000000000000000000000000N 00000000000NCONT   00    00000000000          00000000000000000000000000000000000000000000 000000000000000A000000000000000000000000000000000000000000000 000000000000000000000000000000000000000     00000000                                                                                                                        000000000000000000
F0010000010592600001000080200069100013050500000000000000000201711020002001PEGANTES Y PINTURAS ATLAS LTDA                    D000000019377600000000000000000000100010010000000000000000000000F0010000010592600120171102000101 00000000000000000000000000000000000000000000000000000000000000000000000000000000000000000000000000000000000000000N 00000000000NCONT   00    00000000000          00000000000000000000000000000000000000000000 000000000000000A000000000000000000000000000000000000000000000 000000000000000000000000000000000000000     00000000                                                                                                                        000000000000000000
F0010000010592600002000080200069100041450500000000000000000201711020002001PEGANTES Y PINTURAS ATLAS LTDA                    C000000017260000000000000000000000100010010000000000000000000000F0010000010592600220171102000101 00000000000000000000000000000000000000000000000000000000000000000000000000000000000000000000000000000000000000000N 00000000000NCONT   00    00000000000          00000000000000000000000000000000000000000000 000000000000000A000000000000000000000000000000000000000000000 000000000000000000000000000000000000000     00000000                                                                                                                        000000000000000000
