F0010000006373600001000007218448100011050500000000000000000201410100002001MARIANO SARABIA                                   D000000001500000000000000000000000100010010000000000000000000000F0010000006373600120141010000101 00000000000000000000000000000000000000000000000000000000000000000000000000000000000000000000000000000000000000000N 00000000000NCONT   00    00000000000          00000000000000000000000000000000000000000000 000000000000000A000000000000000000000000000000000000000000000 000000000000000000000000000000000000000     00000000                                                                                                                        000000000000000000
F0010000006373600002000007218448100041450500000000000000000201410100002001MARIANO SARABIA                                   C000000001200000000000000000000000100010010000000000000000000000F0010000006373600220141010000101 00000000000000000000000000000000000000000000000000000000000000000000000000000000000000000000000000000000000000000N 00000000000NCONT   00    00000000000          00000000000000000000000000000000000000000000 000000000000000A000000000000000000000000000000000000000000000 000000000000000000000000000000000000000     00000000                                                                                                                        000000000000000000
F0010000006373600003000007218448100042505000000000000000000201410100002001MARIANO SARABIA                                   C000000000300000000000000000000000100010010000000000000000000000F0010000006373600320141010000101 00000000000000000000000000000000000000000000000000000000000000000000000000000000000000000000000000000000000000000N 00000000000NCONT   00    00000000000          00000000000000000000000000000000000000000000 000000000000000A000000000000000000000000000000000000000000000 000000000000000000000000000000000000000     00000000                                                                                                                        000000000000000000
F0010000006373600004000007218448100023658300000000000000000201410100002001MARIANO SARABIA                                   C000000000009600000000000000000000100010010000000000000000000000F0010000006373600420141010000101 00000000000000000000000000000000000000000000000000000000000000000000000000000000000000000000000000000000000000000N 00000000000NCONT   00    00000000000          00000000000000000000000000000000000000000000 000000000000000A000000000000000000000000000000000000000000000 000000000000000000000000000000000000000     00000000                                                                                                                        000000000000000000
F0010000006373600005000007218448100013552100000000000000000201410100002001MARIANO SARABIA                                   D000000000009600000000000000000000100010010000000000000000000000F0010000006373600520141010000101 00000000000000000000000000000000000000000000000000000000000000000000000000000000000000000000000000000000000000000N 00000000000NCONT   00    00000000000          00000000000000000000000000000000000000000000 000000000000000A000000000000000000000000000000000000000000000 000000000000000000000000000000000000000     00000000                                                                                                                        000000000000000000
F0010000006373700001000007218448100011050500000000000000000201410100002001MARIANO SARABIA                                   D000000001500000000000000000000000100010010000000000000000000000F0010000006373700120141010000101 00000000000000000000000000000000000000000000000000000000000000000000000000000000000000000000000000000000000000000N 00000000000NCONT   00    00000000000          00000000000000000000000000000000000000000000 000000000000000A000000000000000000000000000000000000000000000 000000000000000000000000000000000000000     00000000                                                                                                                        000000000000000000
F0010000006373700002000007218448100041450500000000000000000201410100002001MARIANO SARABIA                                   C000000001200000000000000000000000100010010000000000000000000000F0010000006373700220141010000101 00000000000000000000000000000000000000000000000000000000000000000000000000000000000000000000000000000000000000000N 00000000000NCONT   00    00000000000          00000000000000000000000000000000000000000000 000000000000000A000000000000000000000000000000000000000000000 000000000000000000000000000000000000000     00000000                                                                                                                        000000000000000000
F0010000006373700003000007218448100042505000000000000000000201410100002001MARIANO SARABIA                                   C000000000300000000000000000000000100010010000000000000000000000F0010000006373700320141010000101 00000000000000000000000000000000000000000000000000000000000000000000000000000000000000000000000000000000000000000N 00000000000NCONT   00    00000000000          00000000000000000000000000000000000000000000 000000000000000A000000000000000000000000000000000000000000000 000000000000000000000000000000000000000     00000000                                                                                                                        000000000000000000
F0010000006373700004000007218448100023658300000000000000000201410100002001MARIANO SARABIA                                   C000000000009600000000000000000000100010010000000000000000000000F0010000006373700420141010000101 00000000000000000000000000000000000000000000000000000000000000000000000000000000000000000000000000000000000000000N 00000000000NCONT   00    00000000000          00000000000000000000000000000000000000000000 000000000000000A000000000000000000000000000000000000000000000 000000000000000000000000000000000000000     00000000                                                                                                                        000000000000000000
F0010000006373700005000007218448100013552100000000000000000201410100002001MARIANO SARABIA                                   D000000000009600000000000000000000100010010000000000000000000000F0010000006373700520141010000101 00000000000000000000000000000000000000000000000000000000000000000000000000000000000000000000000000000000000000000N 00000000000NCONT   00    00000000000          00000000000000000000000000000000000000000000 000000000000000A000000000000000000000000000000000000000000000 000000000000000000000000000000000000000     00000000                                                                                                                        000000000000000000
F0010000006373800001000086000089600013050500000000000000000201410100002001SIKA COLOMBIA S.A.                                D000000039563800000000000000000000100010010000000000000000000000F0010000006373800120141010000101 00000000000000000000000000000000000000000000000000000000000000000000000000000000000000000000000000000000000000000N 00000000000NCONT   00    00000000000          00000000000000000000000000000000000000000000 000000000000000A000000000000000000000000000000000000000000000 000000000000000000000000000000000000000     00000000                                                                                                                        000000000000000000
F0010000006373800002000086000089600041450500000000000000000201410100002001SIKA COLOMBIA S.A.                                C000000035917000000000000000000000100010010000000000000000000000F0010000006373800220141010000101 00000000000000000000000000000000000000000000000000000000000000000000000000000000000000000000000000000000000000000N 00000000000NCONT   00    00000000000          00000000000000000000000000000000000000000000 000000000000000A000000000000000000000000000000000000000000000 000000000000000000000000000000000000000     00000000                                                                                                                        000000000000000000
F0010000006373800003000086000089600042505000000000000000000201410100002001SIKA COLOMBIA S.A.                                C000000003646800000000000000000000100010010000000000000000000000F0010000006373800320141010000101 00000000000000000000000000000000000000000000000000000000000000000000000000000000000000000000000000000000000000000N 00000000000NCONT   00    00000000000          00000000000000000000000000000000000000000000 000000000000000A000000000000000000000000000000000000000000000 000000000000000000000000000000000000000     00000000                                                                                                                        000000000000000000
F0010000006373800004000086000089600023658300000000000000000201410100002001SIKA COLOMBIA S.A.                                C000000000287300000000000000000000100010010000000000000000000000F0010000006373800420141010000101 00000000000000000000000000000000000000000000000000000000000000000000000000000000000000000000000000000000000000000N 00000000000NCONT   00    00000000000          00000000000000000000000000000000000000000000 000000000000000A000000000000000000000000000000000000000000000 000000000000000000000000000000000000000     00000000                                                                                                                        000000000000000000
F0010000006373800005000086000089600013552100000000000000000201410100002001SIKA COLOMBIA S.A.                                D000000000287300000000000000000000100010010000000000000000000000F0010000006373800520141010000101 00000000000000000000000000000000000000000000000000000000000000000000000000000000000000000000000000000000000000000N 00000000000NCONT   00    00000000000          00000000000000000000000000000000000000000000 000000000000000A000000000000000000000000000000000000000000000 000000000000000000000000000000000000000     00000000                                                                                                                        000000000000000000
F0010000006373900001000086000089600013050500000000000000000201410100002001SIKA COLOMBIA S.A.                                D000000042768600000000000000000000100010010000000000000000000000F0010000006373900120141010000101 00000000000000000000000000000000000000000000000000000000000000000000000000000000000000000000000000000000000000000N 00000000000NCONT   00    00000000000          00000000000000000000000000000000000000000000 000000000000000A000000000000000000000000000000000000000000000 000000000000000000000000000000000000000     00000000                                                                                                                        000000000000000000
F0010000006373900002000086000089600041450500000000000000000201410100002001SIKA COLOMBIA S.A.                                C000000037356500000000000000000000100010010000000000000000000000F0010000006373900220141010000101 00000000000000000000000000000000000000000000000000000000000000000000000000000000000000000000000000000000000000000N 00000000000NCONT   00    00000000000          00000000000000000000000000000000000000000000 000000000000000A000000000000000000000000000000000000000000000 000000000000000000000000000000000000000     00000000                                                                                                                        000000000000000000
F0010000006373900003000086000089600042505000000000000000000201410100002001SIKA COLOMBIA S.A.                                C000000005412100000000000000000000100010010000000000000000000000F0010000006373900320141010000101 00000000000000000000000000000000000000000000000000000000000000000000000000000000000000000000000000000000000000000N 00000000000NCONT   00    00000000000          00000000000000000000000000000000000000000000 000000000000000A000000000000000000000000000000000000000000000 000000000000000000000000000000000000000     00000000                                                                                                                        000000000000000000
F0010000006373900004000086000089600023658300000000000000000201410100002001SIKA COLOMBIA S.A.                                C000000000298900000000000000000000100010010000000000000000000000F0010000006373900420141010000101 00000000000000000000000000000000000000000000000000000000000000000000000000000000000000000000000000000000000000000N 00000000000NCONT   00    00000000000          00000000000000000000000000000000000000000000 000000000000000A000000000000000000000000000000000000000000000 000000000000000000000000000000000000000     00000000                                                                                                                        000000000000000000
F0010000006373900005000086000089600013552100000000000000000201410100002001SIKA COLOMBIA S.A.                                D000000000298900000000000000000000100010010000000000000000000000F0010000006373900520141010000101 00000000000000000000000000000000000000000000000000000000000000000000000000000000000000000000000000000000000000000N 00000000000NCONT   00    00000000000          00000000000000000000000000000000000000000000 000000000000000A000000000000000000000000000000000000000000000 000000000000000000000000000000000000000     00000000                                                                                                                        000000000000000000
F0010000006374000001000086000089600013050500000000000000000201410100002001SIKA COLOMBIA S.A.                                D000000030637200000000000000000000100010010000000000000000000000F0010000006374000120141010000101 00000000000000000000000000000000000000000000000000000000000000000000000000000000000000000000000000000000000000000N 00000000000NCONT   00    00000000000          00000000000000000000000000000000000000000000 000000000000000A000000000000000000000000000000000000000000000 000000000000000000000000000000000000000     00000000                                                                                                                        000000000000000000
F0010000006374000002000086000089600041450500000000000000000201410100002001SIKA COLOMBIA S.A.                                C000000026207700000000000000000000100010010000000000000000000000F0010000006374000220141010000101 00000000000000000000000000000000000000000000000000000000000000000000000000000000000000000000000000000000000000000N 00000000000NCONT   00    00000000000          00000000000000000000000000000000000000000000 000000000000000A000000000000000000000000000000000000000000000 000000000000000000000000000000000000000     00000000                                                                                                                        000000000000000000
F0010000006374000003000086000089600042505000000000000000000201410100002001SIKA COLOMBIA S.A.                                C000000004429500000000000000000000100010010000000000000000000000F0010000006374000320141010000101 00000000000000000000000000000000000000000000000000000000000000000000000000000000000000000000000000000000000000000N 00000000000NCONT   00    00000000000          00000000000000000000000000000000000000000000 000000000000000A000000000000000000000000000000000000000000000 000000000000000000000000000000000000000     00000000                                                                                                                        000000000000000000
F0010000006374000004000086000089600023658300000000000000000201410100002001SIKA COLOMBIA S.A.                                C000000000209700000000000000000000100010010000000000000000000000F0010000006374000420141010000101 00000000000000000000000000000000000000000000000000000000000000000000000000000000000000000000000000000000000000000N 00000000000NCONT   00    00000000000          00000000000000000000000000000000000000000000 000000000000000A000000000000000000000000000000000000000000000 000000000000000000000000000000000000000     00000000                                                                                                                        000000000000000000
F0010000006374000005000086000089600013552100000000000000000201410100002001SIKA COLOMBIA S.A.                                D000000000209700000000000000000000100010010000000000000000000000F0010000006374000520141010000101 00000000000000000000000000000000000000000000000000000000000000000000000000000000000000000000000000000000000000000N 00000000000NCONT   00    00000000000          00000000000000000000000000000000000000000000 000000000000000A000000000000000000000000000000000000000000000 000000000000000000000000000000000000000     00000000                                                                                                                        000000000000000000
F0010000006374100001000086000089600013050500000000000000000201410100002001SIKA COLOMBIA S.A.                                D000000061430700000000000000000000100010010000000000000000000000F0010000006374100120141010000101 00000000000000000000000000000000000000000000000000000000000000000000000000000000000000000000000000000000000000000N 00000000000NCONT   00    00000000000          00000000000000000000000000000000000000000000 000000000000000A000000000000000000000000000000000000000000000 000000000000000000000000000000000000000     00000000                                                                                                                        000000000000000000
F0010000006374100002000086000089600041450500000000000000000201410100002001SIKA COLOMBIA S.A.                                C000000058000000000000000000000000100010010000000000000000000000F0010000006374100220141010000101 00000000000000000000000000000000000000000000000000000000000000000000000000000000000000000000000000000000000000000N 00000000000NCONT   00    00000000000          00000000000000000000000000000000000000000000 000000000000000A000000000000000000000000000000000000000000000 000000000000000000000000000000000000000     00000000                                                                                                                        000000000000000000
F0010000006374100003000086000089600042505000000000000000000201410100002001SIKA COLOMBIA S.A.                                C000000003430700000000000000000000100010010000000000000000000000F0010000006374100320141010000101 00000000000000000000000000000000000000000000000000000000000000000000000000000000000000000000000000000000000000000N 00000000000NCONT   00    00000000000          00000000000000000000000000000000000000000000 000000000000000A000000000000000000000000000000000000000000000 000000000000000000000000000000000000000     00000000                                                                                                                        000000000000000000
F0010000006374100004000086000089600023658300000000000000000201410100002001SIKA COLOMBIA S.A.                                C000000000464000000000000000000000100010010000000000000000000000F0010000006374100420141010000101 00000000000000000000000000000000000000000000000000000000000000000000000000000000000000000000000000000000000000000N 00000000000NCONT   00    00000000000          00000000000000000000000000000000000000000000 000000000000000A000000000000000000000000000000000000000000000 000000000000000000000000000000000000000     00000000                                                                                                                        000000000000000000
F0010000006374100005000086000089600013552100000000000000000201410100002001SIKA COLOMBIA S.A.                                D000000000464000000000000000000000100010010000000000000000000000F0010000006374100520141010000101 00000000000000000000000000000000000000000000000000000000000000000000000000000000000000000000000000000000000000000N 00000000000NCONT   00    00000000000          00000000000000000000000000000000000000000000 000000000000000A000000000000000000000000000000000000000000000 000000000000000000000000000000000000000     00000000                                                                                                                        000000000000000000
F0010000006374200001000003207718300011050500000000000000000201410100002001GILMA RAMIREZ                                     D000000009000000000000000000000000100010010000000000000000000000F0010000006374200120141010000101 00000000000000000000000000000000000000000000000000000000000000000000000000000000000000000000000000000000000000000N 00000000000NCONT   00    00000000000          00000000000000000000000000000000000000000000 000000000000000A000000000000000000000000000000000000000000000 000000000000000000000000000000000000000     00000000                                                                                                                        000000000000000000
F0010000006374200002000003207718300041450500000000000000000201410100002001GILMA RAMIREZ                                     C000000007500000000000000000000000100010010000000000000000000000F0010000006374200220141010000101 00000000000000000000000000000000000000000000000000000000000000000000000000000000000000000000000000000000000000000N 00000000000NCONT   00    00000000000          00000000000000000000000000000000000000000000 000000000000000A000000000000000000000000000000000000000000000 000000000000000000000000000000000000000     00000000                                                                                                                        000000000000000000
F0010000006374200003000003207718300042505000000000000000000201410100002001GILMA RAMIREZ                                     C000000001500000000000000000000000100010010000000000000000000000F0010000006374200320141010000101 00000000000000000000000000000000000000000000000000000000000000000000000000000000000000000000000000000000000000000N 00000000000NCONT   00    00000000000          00000000000000000000000000000000000000000000 000000000000000A000000000000000000000000000000000000000000000 000000000000000000000000000000000000000     00000000                                                                                                                        000000000000000000
F0010000006374200004000003207718300023658300000000000000000201410100002001GILMA RAMIREZ                                     C000000000060000000000000000000000100010010000000000000000000000F0010000006374200420141010000101 00000000000000000000000000000000000000000000000000000000000000000000000000000000000000000000000000000000000000000N 00000000000NCONT   00    00000000000          00000000000000000000000000000000000000000000 000000000000000A000000000000000000000000000000000000000000000 000000000000000000000000000000000000000     00000000                                                                                                                        000000000000000000
F0010000006374200005000003207718300013552100000000000000000201410100002001GILMA RAMIREZ                                     D000000000060000000000000000000000100010010000000000000000000000F0010000006374200520141010000101 00000000000000000000000000000000000000000000000000000000000000000000000000000000000000000000000000000000000000000N 00000000000NCONT   00    00000000000          00000000000000000000000000000000000000000000 000000000000000A000000000000000000000000000000000000000000000 000000000000000000000000000000000000000     00000000                                                                                                                        000000000000000000
F0010000006374300001000000871745700011050500000000000000000201410100002001CONFECCIONES ORO SPORT 33                         D000000001600000000000000000000000100010010000000000000000000000F0010000006374300120141010000101 00000000000000000000000000000000000000000000000000000000000000000000000000000000000000000000000000000000000000000N 00000000000NCONT   00    00000000000          00000000000000000000000000000000000000000000 000000000000000A000000000000000000000000000000000000000000000 000000000000000000000000000000000000000     00000000                                                                                                                        000000000000000000
F0010000006374300002000000871745700041450500000000000000000201410100002001CONFECCIONES ORO SPORT 33                         C000000000900000000000000000000000100010010000000000000000000000F0010000006374300220141010000101 00000000000000000000000000000000000000000000000000000000000000000000000000000000000000000000000000000000000000000N 00000000000NCONT   00    00000000000          00000000000000000000000000000000000000000000 000000000000000A000000000000000000000000000000000000000000000 000000000000000000000000000000000000000     00000000                                                                                                                        000000000000000000
F0010000006374300003000000871745700042505000000000000000000201410100002001CONFECCIONES ORO SPORT 33                         C000000000700000000000000000000000100010010000000000000000000000F0010000006374300320141010000101 00000000000000000000000000000000000000000000000000000000000000000000000000000000000000000000000000000000000000000N 00000000000NCONT   00    00000000000          00000000000000000000000000000000000000000000 000000000000000A000000000000000000000000000000000000000000000 000000000000000000000000000000000000000     00000000                                                                                                                        000000000000000000
F0010000006374300004000000871745700023658300000000000000000201410100002001CONFECCIONES ORO SPORT 33                         C000000000007200000000000000000000100010010000000000000000000000F0010000006374300420141010000101 00000000000000000000000000000000000000000000000000000000000000000000000000000000000000000000000000000000000000000N 00000000000NCONT   00    00000000000          00000000000000000000000000000000000000000000 000000000000000A000000000000000000000000000000000000000000000 000000000000000000000000000000000000000     00000000                                                                                                                        000000000000000000
F0010000006374300005000000871745700013552100000000000000000201410100002001CONFECCIONES ORO SPORT 33                         D000000000007200000000000000000000100010010000000000000000000000F0010000006374300520141010000101 00000000000000000000000000000000000000000000000000000000000000000000000000000000000000000000000000000000000000000N 00000000000NCONT   00    00000000000          00000000000000000000000000000000000000000000 000000000000000A000000000000000000000000000000000000000000000 000000000000000000000000000000000000000     00000000                                                                                                                        000000000000000000
F0010000006374400001000000871745700011050500000000000000000201410100002001CONFECCIONES ORO SPORT 33                         D000000001600000000000000000000000100010010000000000000000000000F0010000006374400120141010000101 00000000000000000000000000000000000000000000000000000000000000000000000000000000000000000000000000000000000000000N 00000000000NCONT   00    00000000000          00000000000000000000000000000000000000000000 000000000000000A000000000000000000000000000000000000000000000 000000000000000000000000000000000000000     00000000                                                                                                                        000000000000000000
F0010000006374400002000000871745700041450500000000000000000201410100002001CONFECCIONES ORO SPORT 33                         C000000000900000000000000000000000100010010000000000000000000000F0010000006374400220141010000101 00000000000000000000000000000000000000000000000000000000000000000000000000000000000000000000000000000000000000000N 00000000000NCONT   00    00000000000          00000000000000000000000000000000000000000000 000000000000000A000000000000000000000000000000000000000000000 000000000000000000000000000000000000000     00000000                                                                                                                        000000000000000000
F0010000006374400003000000871745700042505000000000000000000201410100002001CONFECCIONES ORO SPORT 33                         C000000000700000000000000000000000100010010000000000000000000000F0010000006374400320141010000101 00000000000000000000000000000000000000000000000000000000000000000000000000000000000000000000000000000000000000000N 00000000000NCONT   00    00000000000          00000000000000000000000000000000000000000000 000000000000000A000000000000000000000000000000000000000000000 000000000000000000000000000000000000000     00000000                                                                                                                        000000000000000000
F0010000006374400004000000871745700023658300000000000000000201410100002001CONFECCIONES ORO SPORT 33                         C000000000007200000000000000000000100010010000000000000000000000F0010000006374400420141010000101 00000000000000000000000000000000000000000000000000000000000000000000000000000000000000000000000000000000000000000N 00000000000NCONT   00    00000000000          00000000000000000000000000000000000000000000 000000000000000A000000000000000000000000000000000000000000000 000000000000000000000000000000000000000     00000000                                                                                                                        000000000000000000
F0010000006374400005000000871745700013552100000000000000000201410100002001CONFECCIONES ORO SPORT 33                         D000000000007200000000000000000000100010010000000000000000000000F0010000006374400520141010000101 00000000000000000000000000000000000000000000000000000000000000000000000000000000000000000000000000000000000000000N 00000000000NCONT   00    00000000000          00000000000000000000000000000000000000000000 000000000000000A000000000000000000000000000000000000000000000 000000000000000000000000000000000000000     00000000                                                                                                                        000000000000000000
F0010000006374500001000086053108300011050500000000000000000201410100002001EL PALACIO DEL ALUMINIO  LTDA                     D000000011000000000000000000000000100010010000000000000000000000F0010000006374500120141010000101 00000000000000000000000000000000000000000000000000000000000000000000000000000000000000000000000000000000000000000N 00000000000NCONT   00    00000000000          00000000000000000000000000000000000000000000 000000000000000A000000000000000000000000000000000000000000000 000000000000000000000000000000000000000     00000000                                                                                                                        000000000000000000
F0010000006374500002000086053108300041450500000000000000000201410100002001EL PALACIO DEL ALUMINIO  LTDA                     C000000010000000000000000000000000100010010000000000000000000000F0010000006374500220141010000101 00000000000000000000000000000000000000000000000000000000000000000000000000000000000000000000000000000000000000000N 00000000000NCONT   00    00000000000          00000000000000000000000000000000000000000000 000000000000000A000000000000000000000000000000000000000000000 000000000000000000000000000000000000000     00000000                                                                                                                        000000000000000000
F0010000006374500003000086053108300042505000000000000000000201410100002001EL PALACIO DEL ALUMINIO  LTDA                     C000000001000000000000000000000000100010010000000000000000000000F0010000006374500320141010000101 00000000000000000000000000000000000000000000000000000000000000000000000000000000000000000000000000000000000000000N 00000000000NCONT   00    00000000000          00000000000000000000000000000000000000000000 000000000000000A000000000000000000000000000000000000000000000 000000000000000000000000000000000000000     00000000                                                                                                                        000000000000000000
F0010000006374500004000086053108300023658300000000000000000201410100002001EL PALACIO DEL ALUMINIO  LTDA                     C000000000080000000000000000000000100010010000000000000000000000F0010000006374500420141010000101 00000000000000000000000000000000000000000000000000000000000000000000000000000000000000000000000000000000000000000N 00000000000NCONT   00    00000000000          00000000000000000000000000000000000000000000 000000000000000A000000000000000000000000000000000000000000000 000000000000000000000000000000000000000     00000000                                                                                                                        000000000000000000
F0010000006374500005000086053108300013552100000000000000000201410100002001EL PALACIO DEL ALUMINIO  LTDA                     D000000000080000000000000000000000100010010000000000000000000000F0010000006374500520141010000101 00000000000000000000000000000000000000000000000000000000000000000000000000000000000000000000000000000000000000000N 00000000000NCONT   00    00000000000          00000000000000000000000000000000000000000000 000000000000000A000000000000000000000000000000000000000000000 000000000000000000000000000000000000000     00000000                                                                                                                        000000000000000000
F0010000006374600001000003319910700011050500000000000000000201410100002001LUZ DARY JIMENEZ MARTINEZ                         D000000001100000000000000000000000100010010000000000000000000000F0010000006374600120141010000101 00000000000000000000000000000000000000000000000000000000000000000000000000000000000000000000000000000000000000000N 00000000000NCONT   00    00000000000          00000000000000000000000000000000000000000000 000000000000000A000000000000000000000000000000000000000000000 000000000000000000000000000000000000000     00000000                                                                                                                        000000000000000000
F0010000006374600002000003319910700041450500000000000000000201410100002001LUZ DARY JIMENEZ MARTINEZ                         C000000001000000000000000000000000100010010000000000000000000000F0010000006374600220141010000101 00000000000000000000000000000000000000000000000000000000000000000000000000000000000000000000000000000000000000000N 00000000000NCONT   00    00000000000          00000000000000000000000000000000000000000000 000000000000000A000000000000000000000000000000000000000000000 000000000000000000000000000000000000000     00000000                                                                                                                        000000000000000000
F0010000006374600003000003319910700042505000000000000000000201410100002001LUZ DARY JIMENEZ MARTINEZ                         C000000000100000000000000000000000100010010000000000000000000000F0010000006374600320141010000101 00000000000000000000000000000000000000000000000000000000000000000000000000000000000000000000000000000000000000000N 00000000000NCONT   00    00000000000          00000000000000000000000000000000000000000000 000000000000000A000000000000000000000000000000000000000000000 000000000000000000000000000000000000000     00000000                                                                                                                        000000000000000000
F0010000006374600004000003319910700023658300000000000000000201410100002001LUZ DARY JIMENEZ MARTINEZ                         C000000000008000000000000000000000100010010000000000000000000000F0010000006374600420141010000101 00000000000000000000000000000000000000000000000000000000000000000000000000000000000000000000000000000000000000000N 00000000000NCONT   00    00000000000          00000000000000000000000000000000000000000000 000000000000000A000000000000000000000000000000000000000000000 000000000000000000000000000000000000000     00000000                                                                                                                        000000000000000000
F0010000006374600005000003319910700013552100000000000000000201410100002001LUZ DARY JIMENEZ MARTINEZ                         D000000000008000000000000000000000100010010000000000000000000000F0010000006374600520141010000101 00000000000000000000000000000000000000000000000000000000000000000000000000000000000000000000000000000000000000000N 00000000000NCONT   00    00000000000          00000000000000000000000000000000000000000000 000000000000000A000000000000000000000000000000000000000000000 000000000000000000000000000000000000000     00000000                                                                                                                        000000000000000000
F0010000006374700001000001502923600011050500000000000000000201410100002001ALCIDES MARTINEZ                                  D000000001220000000000000000000000100010010000000000000000000000F0010000006374700120141010000101 00000000000000000000000000000000000000000000000000000000000000000000000000000000000000000000000000000000000000000N 00000000000NCONT   00    00000000000          00000000000000000000000000000000000000000000 000000000000000A000000000000000000000000000000000000000000000 000000000000000000000000000000000000000     00000000                                                                                                                        000000000000000000
F0010000006374700002000001502923600041450500000000000000000201410100002001ALCIDES MARTINEZ                                  C000000000900000000000000000000000100010010000000000000000000000F0010000006374700220141010000101 00000000000000000000000000000000000000000000000000000000000000000000000000000000000000000000000000000000000000000N 00000000000NCONT   00    00000000000          00000000000000000000000000000000000000000000 000000000000000A000000000000000000000000000000000000000000000 000000000000000000000000000000000000000     00000000                                                                                                                        000000000000000000
F0010000006374700003000001502923600042505000000000000000000201410100002001ALCIDES MARTINEZ                                  C000000000320000000000000000000000100010010000000000000000000000F0010000006374700320141010000101 00000000000000000000000000000000000000000000000000000000000000000000000000000000000000000000000000000000000000000N 00000000000NCONT   00    00000000000          00000000000000000000000000000000000000000000 000000000000000A000000000000000000000000000000000000000000000 000000000000000000000000000000000000000     00000000                                                                                                                        000000000000000000
F0010000006374700004000001502923600023658300000000000000000201410100002001ALCIDES MARTINEZ                                  C000000000007200000000000000000000100010010000000000000000000000F0010000006374700420141010000101 00000000000000000000000000000000000000000000000000000000000000000000000000000000000000000000000000000000000000000N 00000000000NCONT   00    00000000000          00000000000000000000000000000000000000000000 000000000000000A000000000000000000000000000000000000000000000 000000000000000000000000000000000000000     00000000                                                                                                                        000000000000000000
F0010000006374700005000001502923600013552100000000000000000201410100002001ALCIDES MARTINEZ                                  D000000000007200000000000000000000100010010000000000000000000000F0010000006374700520141010000101 00000000000000000000000000000000000000000000000000000000000000000000000000000000000000000000000000000000000000000N 00000000000NCONT   00    00000000000          00000000000000000000000000000000000000000000 000000000000000A000000000000000000000000000000000000000000000 000000000000000000000000000000000000000     00000000                                                                                                                        000000000000000000
F0010000006374800001000080201490100011050500000000000000000201410100002001COMERCIALIZADORA PAITILLA                         D000000001800000000000000000000000100010010000000000000000000000F0010000006374800120141010000101 00000000000000000000000000000000000000000000000000000000000000000000000000000000000000000000000000000000000000000N 00000000000NCONT   00    00000000000          00000000000000000000000000000000000000000000 000000000000000A000000000000000000000000000000000000000000000 000000000000000000000000000000000000000     00000000                                                                                                                        000000000000000000
F0010000006374800002000080201490100041450500000000000000000201410100002001COMERCIALIZADORA PAITILLA                         C000000001600000000000000000000000100010010000000000000000000000F0010000006374800220141010000101 00000000000000000000000000000000000000000000000000000000000000000000000000000000000000000000000000000000000000000N 00000000000NCONT   00    00000000000          00000000000000000000000000000000000000000000 000000000000000A000000000000000000000000000000000000000000000 000000000000000000000000000000000000000     00000000                                                                                                                        000000000000000000
F0010000006374800003000080201490100042505000000000000000000201410100002001COMERCIALIZADORA PAITILLA                         C000000000200000000000000000000000100010010000000000000000000000F0010000006374800320141010000101 00000000000000000000000000000000000000000000000000000000000000000000000000000000000000000000000000000000000000000N 00000000000NCONT   00    00000000000          00000000000000000000000000000000000000000000 000000000000000A000000000000000000000000000000000000000000000 000000000000000000000000000000000000000     00000000                                                                                                                        000000000000000000
F0010000006374800004000080201490100023658300000000000000000201410100002001COMERCIALIZADORA PAITILLA                         C000000000012800000000000000000000100010010000000000000000000000F0010000006374800420141010000101 00000000000000000000000000000000000000000000000000000000000000000000000000000000000000000000000000000000000000000N 00000000000NCONT   00    00000000000          00000000000000000000000000000000000000000000 000000000000000A000000000000000000000000000000000000000000000 000000000000000000000000000000000000000     00000000                                                                                                                        000000000000000000
F0010000006374800005000080201490100013552100000000000000000201410100002001COMERCIALIZADORA PAITILLA                         D000000000012800000000000000000000100010010000000000000000000000F0010000006374800520141010000101 00000000000000000000000000000000000000000000000000000000000000000000000000000000000000000000000000000000000000000N 00000000000NCONT   00    00000000000          00000000000000000000000000000000000000000000 000000000000000A000000000000000000000000000000000000000000000 000000000000000000000000000000000000000     00000000                                                                                                                        000000000000000000
F0010000006374900001000080201490100011050500000000000000000201410100002001COMERCIALIZADORA PAITILLA                         D000000001800000000000000000000000100010010000000000000000000000F0010000006374900120141010000101 00000000000000000000000000000000000000000000000000000000000000000000000000000000000000000000000000000000000000000N 00000000000NCONT   00    00000000000          00000000000000000000000000000000000000000000 000000000000000A000000000000000000000000000000000000000000000 000000000000000000000000000000000000000     00000000                                                                                                                        000000000000000000
F0010000006374900002000080201490100041450500000000000000000201410100002001COMERCIALIZADORA PAITILLA                         C000000001600000000000000000000000100010010000000000000000000000F0010000006374900220141010000101 00000000000000000000000000000000000000000000000000000000000000000000000000000000000000000000000000000000000000000N 00000000000NCONT   00    00000000000          00000000000000000000000000000000000000000000 000000000000000A000000000000000000000000000000000000000000000 000000000000000000000000000000000000000     00000000                                                                                                                        000000000000000000
F0010000006374900003000080201490100042505000000000000000000201410100002001COMERCIALIZADORA PAITILLA                         C000000000200000000000000000000000100010010000000000000000000000F0010000006374900320141010000101 00000000000000000000000000000000000000000000000000000000000000000000000000000000000000000000000000000000000000000N 00000000000NCONT   00    00000000000          00000000000000000000000000000000000000000000 000000000000000A000000000000000000000000000000000000000000000 000000000000000000000000000000000000000     00000000                                                                                                                        000000000000000000
F0010000006374900004000080201490100023658300000000000000000201410100002001COMERCIALIZADORA PAITILLA                         C000000000012800000000000000000000100010010000000000000000000000F0010000006374900420141010000101 00000000000000000000000000000000000000000000000000000000000000000000000000000000000000000000000000000000000000000N 00000000000NCONT   00    00000000000          00000000000000000000000000000000000000000000 000000000000000A000000000000000000000000000000000000000000000 000000000000000000000000000000000000000     00000000                                                                                                                        000000000000000000
F0010000006374900005000080201490100013552100000000000000000201410100002001COMERCIALIZADORA PAITILLA                         D000000000012800000000000000000000100010010000000000000000000000F0010000006374900520141010000101 00000000000000000000000000000000000000000000000000000000000000000000000000000000000000000000000000000000000000000N 00000000000NCONT   00    00000000000          00000000000000000000000000000000000000000000 000000000000000A000000000000000000000000000000000000000000000 000000000000000000000000000000000000000     00000000                                                                                                                        000000000000000000
F0010000006375000001000003276535300011050500000000000000000201410100002001YASLEYS CATAﾃ前 ESCOBAR                           D000000007600000000000000000000000100010010000000000000000000000F0010000006375000120141010000101 00000000000000000000000000000000000000000000000000000000000000000000000000000000000000000000000000000000000000000N 00000000000NCONT   00    00000000000          00000000000000000000000000000000000000000000 000000000000000A000000000000000000000000000000000000000000000 000000000000000000000000000000000000000     00000000                                                                                                                        000000000000000000
F0010000006375000002000003276535300041450500000000000000000201410100002001YASLEYS CATAﾃ前 ESCOBAR                           C000000007000000000000000000000000100010010000000000000000000000F0010000006375000220141010000101 00000000000000000000000000000000000000000000000000000000000000000000000000000000000000000000000000000000000000000N 00000000000NCONT   00    00000000000          00000000000000000000000000000000000000000000 000000000000000A000000000000000000000000000000000000000000000 000000000000000000000000000000000000000     00000000                                                                                                                        000000000000000000
F0010000006375000003000003276535300042505000000000000000000201410100002001YASLEYS CATAﾃ前 ESCOBAR                           C000000000600000000000000000000000100010010000000000000000000000F0010000006375000320141010000101 00000000000000000000000000000000000000000000000000000000000000000000000000000000000000000000000000000000000000000N 00000000000NCONT   00    00000000000          00000000000000000000000000000000000000000000 000000000000000A000000000000000000000000000000000000000000000 000000000000000000000000000000000000000     00000000                                                                                                                        000000000000000000
F0010000006375000004000003276535300023658300000000000000000201410100002001YASLEYS CATAﾃ前 ESCOBAR                           C000000000056000000000000000000000100010010000000000000000000000F0010000006375000420141010000101 00000000000000000000000000000000000000000000000000000000000000000000000000000000000000000000000000000000000000000N 00000000000NCONT   00    00000000000          00000000000000000000000000000000000000000000 000000000000000A000000000000000000000000000000000000000000000 000000000000000000000000000000000000000     00000000                                                                                                                        000000000000000000
F0010000006375000005000003276535300013552100000000000000000201410100002001YASLEYS CATAﾃ前 ESCOBAR                           D000000000056000000000000000000000100010010000000000000000000000F0010000006375000520141010000101 00000000000000000000000000000000000000000000000000000000000000000000000000000000000000000000000000000000000000000N 00000000000NCONT   00    00000000000          00000000000000000000000000000000000000000000 000000000000000A000000000000000000000000000000000000000000000 000000000000000000000000000000000000000     00000000                                                                                                                        000000000000000000
F0010000006375100001000000870907300011050500000000000000000201410100002001SURTIDOR FERRETERO                                D000000001200000000000000000000000100010010000000000000000000000F0010000006375100120141010000101 00000000000000000000000000000000000000000000000000000000000000000000000000000000000000000000000000000000000000000N 00000000000NCONT   00    00000000000          00000000000000000000000000000000000000000000 000000000000000A000000000000000000000000000000000000000000000 000000000000000000000000000000000000000     00000000                                                                                                                        000000000000000000
F0010000006375100002000000870907300041450500000000000000000201410100002001SURTIDOR FERRETERO                                C000000000750000000000000000000000100010010000000000000000000000F0010000006375100220141010000101 00000000000000000000000000000000000000000000000000000000000000000000000000000000000000000000000000000000000000000N 00000000000NCONT   00    00000000000          00000000000000000000000000000000000000000000 000000000000000A000000000000000000000000000000000000000000000 000000000000000000000000000000000000000     00000000                                                                                                                        000000000000000000
F0010000006375100003000000870907300042505000000000000000000201410100002001SURTIDOR FERRETERO                                C000000000450000000000000000000000100010010000000000000000000000F0010000006375100320141010000101 00000000000000000000000000000000000000000000000000000000000000000000000000000000000000000000000000000000000000000N 00000000000NCONT   00    00000000000          00000000000000000000000000000000000000000000 000000000000000A000000000000000000000000000000000000000000000 000000000000000000000000000000000000000     00000000                                                                                                                        000000000000000000
F0010000006375100004000000870907300023658300000000000000000201410100002001SURTIDOR FERRETERO                                C000000000006000000000000000000000100010010000000000000000000000F0010000006375100420141010000101 00000000000000000000000000000000000000000000000000000000000000000000000000000000000000000000000000000000000000000N 00000000000NCONT   00    00000000000          00000000000000000000000000000000000000000000 000000000000000A000000000000000000000000000000000000000000000 000000000000000000000000000000000000000     00000000                                                                                                                        000000000000000000
F0010000006375100005000000870907300013552100000000000000000201410100002001SURTIDOR FERRETERO                                D000000000006000000000000000000000100010010000000000000000000000F0010000006375100520141010000101 00000000000000000000000000000000000000000000000000000000000000000000000000000000000000000000000000000000000000000N 00000000000NCONT   00    00000000000          00000000000000000000000000000000000000000000 000000000000000A000000000000000000000000000000000000000000000 000000000000000000000000000000000000000     00000000                                                                                                                        000000000000000000
F0010000006375200001000090050144800011050500000000000000000201410100002001PLASTICOS JR ASOCIADOS SAS                        D000000003000000000000000000000000100010010000000000000000000000F0010000006375200120141010000101 00000000000000000000000000000000000000000000000000000000000000000000000000000000000000000000000000000000000000000N 00000000000NCONT   00    00000000000          00000000000000000000000000000000000000000000 000000000000000A000000000000000000000000000000000000000000000 000000000000000000000000000000000000000     00000000                                                                                                                        000000000000000000
F0010000006375200002000090050144800041450500000000000000000201410100002001PLASTICOS JR ASOCIADOS SAS                        C000000002600000000000000000000000100010010000000000000000000000F0010000006375200220141010000101 00000000000000000000000000000000000000000000000000000000000000000000000000000000000000000000000000000000000000000N 00000000000NCONT   00    00000000000          00000000000000000000000000000000000000000000 000000000000000A000000000000000000000000000000000000000000000 000000000000000000000000000000000000000     00000000                                                                                                                        000000000000000000
F0010000006375200003000090050144800042505000000000000000000201410100002001PLASTICOS JR ASOCIADOS SAS                        C000000000400000000000000000000000100010010000000000000000000000F0010000006375200320141010000101 00000000000000000000000000000000000000000000000000000000000000000000000000000000000000000000000000000000000000000N 00000000000NCONT   00    00000000000          00000000000000000000000000000000000000000000 000000000000000A000000000000000000000000000000000000000000000 000000000000000000000000000000000000000     00000000                                                                                                                        000000000000000000
F0010000006375200004000090050144800023658300000000000000000201410100002001PLASTICOS JR ASOCIADOS SAS                        C000000000020800000000000000000000100010010000000000000000000000F0010000006375200420141010000101 00000000000000000000000000000000000000000000000000000000000000000000000000000000000000000000000000000000000000000N 00000000000NCONT   00    00000000000          00000000000000000000000000000000000000000000 000000000000000A000000000000000000000000000000000000000000000 000000000000000000000000000000000000000     00000000                                                                                                                        000000000000000000
F0010000006375200005000090050144800013552100000000000000000201410100002001PLASTICOS JR ASOCIADOS SAS                        D000000000020800000000000000000000100010010000000000000000000000F0010000006375200520141010000101 00000000000000000000000000000000000000000000000000000000000000000000000000000000000000000000000000000000000000000N 00000000000NCONT   00    00000000000          00000000000000000000000000000000000000000000 000000000000000A000000000000000000000000000000000000000000000 000000000000000000000000000000000000000     00000000                                                                                                                        000000000000000000
F0010000006375300001000090050144800011050500000000000000000201410100002001PLASTICOS JR ASOCIADOS SAS                        D000000007500000000000000000000000100010010000000000000000000000F0010000006375300120141010000101 00000000000000000000000000000000000000000000000000000000000000000000000000000000000000000000000000000000000000000N 00000000000NCONT   00    00000000000          00000000000000000000000000000000000000000000 000000000000000A000000000000000000000000000000000000000000000 000000000000000000000000000000000000000     00000000                                                                                                                        000000000000000000
F0010000006375300002000090050144800041450500000000000000000201410100002001PLASTICOS JR ASOCIADOS SAS                        C000000006800000000000000000000000100010010000000000000000000000F0010000006375300220141010000101 00000000000000000000000000000000000000000000000000000000000000000000000000000000000000000000000000000000000000000N 00000000000NCONT   00    00000000000          00000000000000000000000000000000000000000000 000000000000000A000000000000000000000000000000000000000000000 000000000000000000000000000000000000000     00000000                                                                                                                        000000000000000000
F0010000006375300003000090050144800042505000000000000000000201410100002001PLASTICOS JR ASOCIADOS SAS                        C000000000700000000000000000000000100010010000000000000000000000F0010000006375300320141010000101 00000000000000000000000000000000000000000000000000000000000000000000000000000000000000000000000000000000000000000N 00000000000NCONT   00    00000000000          00000000000000000000000000000000000000000000 000000000000000A000000000000000000000000000000000000000000000 000000000000000000000000000000000000000     00000000                                                                                                                        000000000000000000
F0010000006375300004000090050144800023658300000000000000000201410100002001PLASTICOS JR ASOCIADOS SAS                        C000000000054400000000000000000000100010010000000000000000000000F0010000006375300420141010000101 00000000000000000000000000000000000000000000000000000000000000000000000000000000000000000000000000000000000000000N 00000000000NCONT   00    00000000000          00000000000000000000000000000000000000000000 000000000000000A000000000000000000000000000000000000000000000 000000000000000000000000000000000000000     00000000                                                                                                                        000000000000000000
F0010000006375300005000090050144800013552100000000000000000201410100002001PLASTICOS JR ASOCIADOS SAS                        D000000000054400000000000000000000100010010000000000000000000000F0010000006375300520141010000101 00000000000000000000000000000000000000000000000000000000000000000000000000000000000000000000000000000000000000000N 00000000000NCONT   00    00000000000          00000000000000000000000000000000000000000000 000000000000000A000000000000000000000000000000000000000000000 000000000000000000000000000000000000000     00000000                                                                                                                        000000000000000000
F0010000006375400001000080201411900011050500000000000000000201410100002001PLASTISERVICIOS S DE H                            D000000002500000000000000000000000100010010000000000000000000000F0010000006375400120141010000101 00000000000000000000000000000000000000000000000000000000000000000000000000000000000000000000000000000000000000000N 00000000000NCONT   00    00000000000          00000000000000000000000000000000000000000000 000000000000000A000000000000000000000000000000000000000000000 000000000000000000000000000000000000000     00000000                                                                                                                        000000000000000000
F0010000006375400002000080201411900041450500000000000000000201410100002001PLASTISERVICIOS S DE H                            C000000002300000000000000000000000100010010000000000000000000000F0010000006375400220141010000101 00000000000000000000000000000000000000000000000000000000000000000000000000000000000000000000000000000000000000000N 00000000000NCONT   00    00000000000          00000000000000000000000000000000000000000000 000000000000000A000000000000000000000000000000000000000000000 000000000000000000000000000000000000000     00000000                                                                                                                        000000000000000000
F0010000006375400003000080201411900042505000000000000000000201410100002001PLASTISERVICIOS S DE H                            C000000000200000000000000000000000100010010000000000000000000000F0010000006375400320141010000101 00000000000000000000000000000000000000000000000000000000000000000000000000000000000000000000000000000000000000000N 00000000000NCONT   00    00000000000          00000000000000000000000000000000000000000000 000000000000000A000000000000000000000000000000000000000000000 000000000000000000000000000000000000000     00000000                                                                                                                        000000000000000000
F0010000006375400004000080201411900023658300000000000000000201410100002001PLASTISERVICIOS S DE H                            C000000000018400000000000000000000100010010000000000000000000000F0010000006375400420141010000101 00000000000000000000000000000000000000000000000000000000000000000000000000000000000000000000000000000000000000000N 00000000000NCONT   00    00000000000          00000000000000000000000000000000000000000000 000000000000000A000000000000000000000000000000000000000000000 000000000000000000000000000000000000000     00000000                                                                                                                        000000000000000000
F0010000006375400005000080201411900013552100000000000000000201410100002001PLASTISERVICIOS S DE H                            D000000000018400000000000000000000100010010000000000000000000000F0010000006375400520141010000101 00000000000000000000000000000000000000000000000000000000000000000000000000000000000000000000000000000000000000000N 00000000000NCONT   00    00000000000          00000000000000000000000000000000000000000000 000000000000000A000000000000000000000000000000000000000000000 000000000000000000000000000000000000000     00000000                                                                                                                        000000000000000000
F0010000006375500001000000876579700011050500000000000000000201410100002001JOSE LUIS MUﾃ前Z                                  D000000004500000000000000000000000100010010000000000000000000000F0010000006375500120141010000101 00000000000000000000000000000000000000000000000000000000000000000000000000000000000000000000000000000000000000000N 00000000000NCONT   00    00000000000          00000000000000000000000000000000000000000000 000000000000000A000000000000000000000000000000000000000000000 000000000000000000000000000000000000000     00000000                                                                                                                        000000000000000000
F0010000006375500002000000876579700041450500000000000000000201410100002001JOSE LUIS MUﾃ前Z                                  C000000004200000000000000000000000100010010000000000000000000000F0010000006375500220141010000101 00000000000000000000000000000000000000000000000000000000000000000000000000000000000000000000000000000000000000000N 00000000000NCONT   00    00000000000          00000000000000000000000000000000000000000000 000000000000000A000000000000000000000000000000000000000000000 000000000000000000000000000000000000000     00000000                                                                                                                        000000000000000000
F0010000006375500003000000876579700042505000000000000000000201410100002001JOSE LUIS MUﾃ前Z                                  C000000000300000000000000000000000100010010000000000000000000000F0010000006375500320141010000101 00000000000000000000000000000000000000000000000000000000000000000000000000000000000000000000000000000000000000000N 00000000000NCONT   00    00000000000          00000000000000000000000000000000000000000000 000000000000000A000000000000000000000000000000000000000000000 000000000000000000000000000000000000000     00000000                                                                                                                        000000000000000000
F0010000006375500004000000876579700023658300000000000000000201410100002001JOSE LUIS MUﾃ前Z                                  C000000000033600000000000000000000100010010000000000000000000000F0010000006375500420141010000101 00000000000000000000000000000000000000000000000000000000000000000000000000000000000000000000000000000000000000000N 00000000000NCONT   00    00000000000          00000000000000000000000000000000000000000000 000000000000000A000000000000000000000000000000000000000000000 000000000000000000000000000000000000000     00000000                                                                                                                        000000000000000000
F0010000006375500005000000876579700013552100000000000000000201410100002001JOSE LUIS MUﾃ前Z                                  D000000000033600000000000000000000100010010000000000000000000000F0010000006375500520141010000101 00000000000000000000000000000000000000000000000000000000000000000000000000000000000000000000000000000000000000000N 00000000000NCONT   00    00000000000          00000000000000000000000000000000000000000000 000000000000000A000000000000000000000000000000000000000000000 000000000000000000000000000000000000000     00000000                                                                                                                        000000000000000000
F0010000006375600001000090020547900011050500000000000000000201410100002001DAC DEL CARIBE S.A.S.                             D000000001750000000000000000000000100010010000000000000000000000F0010000006375600120141010000101 00000000000000000000000000000000000000000000000000000000000000000000000000000000000000000000000000000000000000000N 00000000000NCONT   00    00000000000          00000000000000000000000000000000000000000000 000000000000000A000000000000000000000000000000000000000000000 000000000000000000000000000000000000000     00000000                                                                                                                        000000000000000000
F0010000006375600002000090020547900041450500000000000000000201410100002001DAC DEL CARIBE S.A.S.                             C000000001400000000000000000000000100010010000000000000000000000F0010000006375600220141010000101 00000000000000000000000000000000000000000000000000000000000000000000000000000000000000000000000000000000000000000N 00000000000NCONT   00    00000000000          00000000000000000000000000000000000000000000 000000000000000A000000000000000000000000000000000000000000000 000000000000000000000000000000000000000     00000000                                                                                                                        000000000000000000
F0010000006375600003000090020547900042505000000000000000000201410100002001DAC DEL CARIBE S.A.S.                             C000000000350000000000000000000000100010010000000000000000000000F0010000006375600320141010000101 00000000000000000000000000000000000000000000000000000000000000000000000000000000000000000000000000000000000000000N 00000000000NCONT   00    00000000000          00000000000000000000000000000000000000000000 000000000000000A000000000000000000000000000000000000000000000 000000000000000000000000000000000000000     00000000                                                                                                                        000000000000000000
F0010000006375600004000090020547900023658300000000000000000201410100002001DAC DEL CARIBE S.A.S.                             C000000000011200000000000000000000100010010000000000000000000000F0010000006375600420141010000101 00000000000000000000000000000000000000000000000000000000000000000000000000000000000000000000000000000000000000000N 00000000000NCONT   00    00000000000          00000000000000000000000000000000000000000000 000000000000000A000000000000000000000000000000000000000000000 000000000000000000000000000000000000000     00000000                                                                                                                        000000000000000000
F0010000006375600005000090020547900013552100000000000000000201410100002001DAC DEL CARIBE S.A.S.                             D000000000011200000000000000000000100010010000000000000000000000F0010000006375600520141010000101 00000000000000000000000000000000000000000000000000000000000000000000000000000000000000000000000000000000000000000N 00000000000NCONT   00    00000000000          00000000000000000000000000000000000000000000 000000000000000A000000000000000000000000000000000000000000000 000000000000000000000000000000000000000     00000000                                                                                                                        000000000000000000
F0010000006375700001000090020547900011050500000000000000000201410100002001DAC DEL CARIBE S.A.S.                             D000000003200000000000000000000000100010010000000000000000000000F0010000006375700120141010000101 00000000000000000000000000000000000000000000000000000000000000000000000000000000000000000000000000000000000000000N 00000000000NCONT   00    00000000000          00000000000000000000000000000000000000000000 000000000000000A000000000000000000000000000000000000000000000 000000000000000000000000000000000000000     00000000                                                                                                                        000000000000000000
F0010000006375700002000090020547900041450500000000000000000201410100002001DAC DEL CARIBE S.A.S.                             C000000002600000000000000000000000100010010000000000000000000000F0010000006375700220141010000101 00000000000000000000000000000000000000000000000000000000000000000000000000000000000000000000000000000000000000000N 00000000000NCONT   00    00000000000          00000000000000000000000000000000000000000000 000000000000000A000000000000000000000000000000000000000000000 000000000000000000000000000000000000000     00000000                                                                                                                        000000000000000000
F0010000006375700003000090020547900042505000000000000000000201410100002001DAC DEL CARIBE S.A.S.                             C000000000600000000000000000000000100010010000000000000000000000F0010000006375700320141010000101 00000000000000000000000000000000000000000000000000000000000000000000000000000000000000000000000000000000000000000N 00000000000NCONT   00    00000000000          00000000000000000000000000000000000000000000 000000000000000A000000000000000000000000000000000000000000000 000000000000000000000000000000000000000     00000000                                                                                                                        000000000000000000
F0010000006375700004000090020547900023658300000000000000000201410100002001DAC DEL CARIBE S.A.S.                             C000000000020800000000000000000000100010010000000000000000000000F0010000006375700420141010000101 00000000000000000000000000000000000000000000000000000000000000000000000000000000000000000000000000000000000000000N 00000000000NCONT   00    00000000000          00000000000000000000000000000000000000000000 000000000000000A000000000000000000000000000000000000000000000 000000000000000000000000000000000000000     00000000                                                                                                                        000000000000000000
F0010000006375700005000090020547900013552100000000000000000201410100002001DAC DEL CARIBE S.A.S.                             D000000000020800000000000000000000100010010000000000000000000000F0010000006375700520141010000101 00000000000000000000000000000000000000000000000000000000000000000000000000000000000000000000000000000000000000000N 00000000000NCONT   00    00000000000          00000000000000000000000000000000000000000000 000000000000000A000000000000000000000000000000000000000000000 000000000000000000000000000000000000000     00000000                                                                                                                        000000000000000000
F0010000006375800001000000870907300011050500000000000000000201410100002001SURTIDOR FERRETERO                                D000000001780000000000000000000000100010010000000000000000000000F0010000006375800120141010000101 00000000000000000000000000000000000000000000000000000000000000000000000000000000000000000000000000000000000000000N 00000000000NCONT   00    00000000000          00000000000000000000000000000000000000000000 000000000000000A000000000000000000000000000000000000000000000 000000000000000000000000000000000000000     00000000                                                                                                                        000000000000000000
F0010000006375800002000000870907300041450500000000000000000201410100002001SURTIDOR FERRETERO                                C000000000760000000000000000000000100010010000000000000000000000F0010000006375800220141010000101 00000000000000000000000000000000000000000000000000000000000000000000000000000000000000000000000000000000000000000N 00000000000NCONT   00    00000000000          00000000000000000000000000000000000000000000 000000000000000A000000000000000000000000000000000000000000000 000000000000000000000000000000000000000     00000000                                                                                                                        000000000000000000
F0010000006375800003000000870907300042505000000000000000000201410100002001SURTIDOR FERRETERO                                C000000001020000000000000000000000100010010000000000000000000000F0010000006375800320141010000101 00000000000000000000000000000000000000000000000000000000000000000000000000000000000000000000000000000000000000000N 00000000000NCONT   00    00000000000          00000000000000000000000000000000000000000000 000000000000000A000000000000000000000000000000000000000000000 000000000000000000000000000000000000000     00000000                                                                                                                        000000000000000000
F0010000006375800004000000870907300023658300000000000000000201410100002001SURTIDOR FERRETERO                                C000000000006100000000000000000000100010010000000000000000000000F0010000006375800420141010000101 00000000000000000000000000000000000000000000000000000000000000000000000000000000000000000000000000000000000000000N 00000000000NCONT   00    00000000000          00000000000000000000000000000000000000000000 000000000000000A000000000000000000000000000000000000000000000 000000000000000000000000000000000000000     00000000                                                                                                                        000000000000000000
F0010000006375800005000000870907300013552100000000000000000201410100002001SURTIDOR FERRETERO                                D000000000006100000000000000000000100010010000000000000000000000F0010000006375800520141010000101 00000000000000000000000000000000000000000000000000000000000000000000000000000000000000000000000000000000000000000N 00000000000NCONT   00    00000000000          00000000000000000000000000000000000000000000 000000000000000A000000000000000000000000000000000000000000000 000000000000000000000000000000000000000     00000000                                                                                                                        000000000000000000
F0010000006375900001000000871693500011050500000000000000000201410100002001ALBERTO MUﾃ前Z ALTAMIRANDA                        D000000012000000000000000000000000100010010000000000000000000000F0010000006375900120141010000101 00000000000000000000000000000000000000000000000000000000000000000000000000000000000000000000000000000000000000000N 00000000000NCONT   00    00000000000          00000000000000000000000000000000000000000000 000000000000000A000000000000000000000000000000000000000000000 000000000000000000000000000000000000000     00000000                                                                                                                        000000000000000000
F0010000006375900002000000871693500041450500000000000000000201410100002001ALBERTO MUﾃ前Z ALTAMIRANDA                        C000000011900000000000000000000000100010010000000000000000000000F0010000006375900220141010000101 00000000000000000000000000000000000000000000000000000000000000000000000000000000000000000000000000000000000000000N 00000000000NCONT   00    00000000000          00000000000000000000000000000000000000000000 000000000000000A000000000000000000000000000000000000000000000 000000000000000000000000000000000000000     00000000                                                                                                                        000000000000000000
F0010000006375900003000000871693500042505000000000000000000201410100002001ALBERTO MUﾃ前Z ALTAMIRANDA                        C000000000100000000000000000000000100010010000000000000000000000F0010000006375900320141010000101 00000000000000000000000000000000000000000000000000000000000000000000000000000000000000000000000000000000000000000N 00000000000NCONT   00    00000000000          00000000000000000000000000000000000000000000 000000000000000A000000000000000000000000000000000000000000000 000000000000000000000000000000000000000     00000000                                                                                                                        000000000000000000
F0010000006375900004000000871693500023658300000000000000000201410100002001ALBERTO MUﾃ前Z ALTAMIRANDA                        C000000000095200000000000000000000100010010000000000000000000000F0010000006375900420141010000101 00000000000000000000000000000000000000000000000000000000000000000000000000000000000000000000000000000000000000000N 00000000000NCONT   00    00000000000          00000000000000000000000000000000000000000000 000000000000000A000000000000000000000000000000000000000000000 000000000000000000000000000000000000000     00000000                                                                                                                        000000000000000000
F0010000006375900005000000871693500013552100000000000000000201410100002001ALBERTO MUﾃ前Z ALTAMIRANDA                        D000000000095200000000000000000000100010010000000000000000000000F0010000006375900520141010000101 00000000000000000000000000000000000000000000000000000000000000000000000000000000000000000000000000000000000000000N 00000000000NCONT   00    00000000000          00000000000000000000000000000000000000000000 000000000000000A000000000000000000000000000000000000000000000 000000000000000000000000000000000000000     00000000                                                                                                                        000000000000000000
F0010000006376000001000004175790100011050500000000000000000201410100002001ROSIRIS FERIA HOYOS  (COSM. SHILLER)              D000000001200000000000000000000000100010010000000000000000000000F0010000006376000120141010000101 00000000000000000000000000000000000000000000000000000000000000000000000000000000000000000000000000000000000000000N 00000000000NCONT   00    00000000000          00000000000000000000000000000000000000000000 000000000000000A000000000000000000000000000000000000000000000 000000000000000000000000000000000000000     00000000                                                                                                                        000000000000000000
F0010000006376000002000004175790100041450500000000000000000201410100002001ROSIRIS FERIA HOYOS  (COSM. SHILLER)              C000000001100000000000000000000000100010010000000000000000000000F0010000006376000220141010000101 00000000000000000000000000000000000000000000000000000000000000000000000000000000000000000000000000000000000000000N 00000000000NCONT   00    00000000000          00000000000000000000000000000000000000000000 000000000000000A000000000000000000000000000000000000000000000 000000000000000000000000000000000000000     00000000                                                                                                                        000000000000000000
F0010000006376000003000004175790100042505000000000000000000201410100002001ROSIRIS FERIA HOYOS  (COSM. SHILLER)              C000000000100000000000000000000000100010010000000000000000000000F0010000006376000320141010000101 00000000000000000000000000000000000000000000000000000000000000000000000000000000000000000000000000000000000000000N 00000000000NCONT   00    00000000000          00000000000000000000000000000000000000000000 000000000000000A000000000000000000000000000000000000000000000 000000000000000000000000000000000000000     00000000                                                                                                                        000000000000000000
F0010000006376000004000004175790100023658300000000000000000201410100002001ROSIRIS FERIA HOYOS  (COSM. SHILLER)              C000000000008800000000000000000000100010010000000000000000000000F0010000006376000420141010000101 00000000000000000000000000000000000000000000000000000000000000000000000000000000000000000000000000000000000000000N 00000000000NCONT   00    00000000000          00000000000000000000000000000000000000000000 000000000000000A000000000000000000000000000000000000000000000 000000000000000000000000000000000000000     00000000                                                                                                                        000000000000000000
F0010000006376000005000004175790100013552100000000000000000201410100002001ROSIRIS FERIA HOYOS  (COSM. SHILLER)              D000000000008800000000000000000000100010010000000000000000000000F0010000006376000520141010000101 00000000000000000000000000000000000000000000000000000000000000000000000000000000000000000000000000000000000000000N 00000000000NCONT   00    00000000000          00000000000000000000000000000000000000000000 000000000000000A000000000000000000000000000000000000000000000 000000000000000000000000000000000000000     00000000                                                                                                                        000000000000000000
F0010000006376100001000000431178400011050500000000000000000201410100002001EFRAIN ALVAREZ                                    D000000000430000000000000000000000100010010000000000000000000000F0010000006376100120141010000101 00000000000000000000000000000000000000000000000000000000000000000000000000000000000000000000000000000000000000000N 00000000000NCONT   00    00000000000          00000000000000000000000000000000000000000000 000000000000000A000000000000000000000000000000000000000000000 000000000000000000000000000000000000000     00000000                                                                                                                        000000000000000000
F0010000006376100002000000431178400041450500000000000000000201410100002001EFRAIN ALVAREZ                                    C000000000380000000000000000000000100010010000000000000000000000F0010000006376100220141010000101 00000000000000000000000000000000000000000000000000000000000000000000000000000000000000000000000000000000000000000N 00000000000NCONT   00    00000000000          00000000000000000000000000000000000000000000 000000000000000A000000000000000000000000000000000000000000000 000000000000000000000000000000000000000     00000000                                                                                                                        000000000000000000
F0010000006376100003000000431178400042505000000000000000000201410100002001EFRAIN ALVAREZ                                    C000000000050000000000000000000000100010010000000000000000000000F0010000006376100320141010000101 00000000000000000000000000000000000000000000000000000000000000000000000000000000000000000000000000000000000000000N 00000000000NCONT   00    00000000000          00000000000000000000000000000000000000000000 000000000000000A000000000000000000000000000000000000000000000 000000000000000000000000000000000000000     00000000                                                                                                                        000000000000000000
F0010000006376100004000000431178400023658300000000000000000201410100002001EFRAIN ALVAREZ                                    C000000000003000000000000000000000100010010000000000000000000000F0010000006376100420141010000101 00000000000000000000000000000000000000000000000000000000000000000000000000000000000000000000000000000000000000000N 00000000000NCONT   00    00000000000          00000000000000000000000000000000000000000000 000000000000000A000000000000000000000000000000000000000000000 000000000000000000000000000000000000000     00000000                                                                                                                        000000000000000000
F0010000006376100005000000431178400013552100000000000000000201410100002001EFRAIN ALVAREZ                                    D000000000003000000000000000000000100010010000000000000000000000F0010000006376100520141010000101 00000000000000000000000000000000000000000000000000000000000000000000000000000000000000000000000000000000000000000N 00000000000NCONT   00    00000000000          00000000000000000000000000000000000000000000 000000000000000A000000000000000000000000000000000000000000000 000000000000000000000000000000000000000     00000000                                                                                                                        000000000000000000
F0010000006376200001000000431178400011050500000000000000000201410100002001EFRAIN ALVAREZ                                    D000000000430000000000000000000000100010010000000000000000000000F0010000006376200120141010000101 00000000000000000000000000000000000000000000000000000000000000000000000000000000000000000000000000000000000000000N 00000000000NCONT   00    00000000000          00000000000000000000000000000000000000000000 000000000000000A000000000000000000000000000000000000000000000 000000000000000000000000000000000000000     00000000                                                                                                                        000000000000000000
F0010000006376200002000000431178400041450500000000000000000201410100002001EFRAIN ALVAREZ                                    C000000000380000000000000000000000100010010000000000000000000000F0010000006376200220141010000101 00000000000000000000000000000000000000000000000000000000000000000000000000000000000000000000000000000000000000000N 00000000000NCONT   00    00000000000          00000000000000000000000000000000000000000000 000000000000000A000000000000000000000000000000000000000000000 000000000000000000000000000000000000000     00000000                                                                                                                        000000000000000000
F0010000006376200003000000431178400042505000000000000000000201410100002001EFRAIN ALVAREZ                                    C000000000050000000000000000000000100010010000000000000000000000F0010000006376200320141010000101 00000000000000000000000000000000000000000000000000000000000000000000000000000000000000000000000000000000000000000N 00000000000NCONT   00    00000000000          00000000000000000000000000000000000000000000 000000000000000A000000000000000000000000000000000000000000000 000000000000000000000000000000000000000     00000000                                                                                                                        000000000000000000
F0010000006376200004000000431178400023658300000000000000000201410100002001EFRAIN ALVAREZ                                    C000000000003000000000000000000000100010010000000000000000000000F0010000006376200420141010000101 00000000000000000000000000000000000000000000000000000000000000000000000000000000000000000000000000000000000000000N 00000000000NCONT   00    00000000000          00000000000000000000000000000000000000000000 000000000000000A000000000000000000000000000000000000000000000 000000000000000000000000000000000000000     00000000                                                                                                                        000000000000000000
F0010000006376200005000000431178400013552100000000000000000201410100002001EFRAIN ALVAREZ                                    D000000000003000000000000000000000100010010000000000000000000000F0010000006376200520141010000101 00000000000000000000000000000000000000000000000000000000000000000000000000000000000000000000000000000000000000000N 00000000000NCONT   00    00000000000          00000000000000000000000000000000000000000000 000000000000000A000000000000000000000000000000000000000000000 000000000000000000000000000000000000000     00000000                                                                                                                        000000000000000000
F0010000006376300001000000431178400011050500000000000000000201410100002001EFRAIN ALVAREZ                                    D000000000430000000000000000000000100010010000000000000000000000F0010000006376300120141010000101 00000000000000000000000000000000000000000000000000000000000000000000000000000000000000000000000000000000000000000N 00000000000NCONT   00    00000000000          00000000000000000000000000000000000000000000 000000000000000A000000000000000000000000000000000000000000000 000000000000000000000000000000000000000     00000000                                                                                                                        000000000000000000
F0010000006376300002000000431178400041450500000000000000000201410100002001EFRAIN ALVAREZ                                    C000000000380000000000000000000000100010010000000000000000000000F0010000006376300220141010000101 00000000000000000000000000000000000000000000000000000000000000000000000000000000000000000000000000000000000000000N 00000000000NCONT   00    00000000000          00000000000000000000000000000000000000000000 000000000000000A000000000000000000000000000000000000000000000 000000000000000000000000000000000000000     00000000                                                                                                                        000000000000000000
F0010000006376300003000000431178400042505000000000000000000201410100002001EFRAIN ALVAREZ                                    C000000000050000000000000000000000100010010000000000000000000000F0010000006376300320141010000101 00000000000000000000000000000000000000000000000000000000000000000000000000000000000000000000000000000000000000000N 00000000000NCONT   00    00000000000          00000000000000000000000000000000000000000000 000000000000000A000000000000000000000000000000000000000000000 000000000000000000000000000000000000000     00000000                                                                                                                        000000000000000000
F0010000006376300004000000431178400023658300000000000000000201410100002001EFRAIN ALVAREZ                                    C000000000003000000000000000000000100010010000000000000000000000F0010000006376300420141010000101 00000000000000000000000000000000000000000000000000000000000000000000000000000000000000000000000000000000000000000N 00000000000NCONT   00    00000000000          00000000000000000000000000000000000000000000 000000000000000A000000000000000000000000000000000000000000000 000000000000000000000000000000000000000     00000000                                                                                                                        000000000000000000
F0010000006376300005000000431178400013552100000000000000000201410100002001EFRAIN ALVAREZ                                    D000000000003000000000000000000000100010010000000000000000000000F0010000006376300520141010000101 00000000000000000000000000000000000000000000000000000000000000000000000000000000000000000000000000000000000000000N 00000000000NCONT   00    00000000000          00000000000000000000000000000000000000000000 000000000000000A000000000000000000000000000000000000000000000 000000000000000000000000000000000000000     00000000                                                                                                                        000000000000000000
F0010000006376400001000001022529300011050500000000000000000201410100002001ALBERTO ALVAREZ ISAZA                             D000000001350000000000000000000000100010010000000000000000000000F0010000006376400120141010000101 00000000000000000000000000000000000000000000000000000000000000000000000000000000000000000000000000000000000000000N 00000000000NCONT   00    00000000000          00000000000000000000000000000000000000000000 000000000000000A000000000000000000000000000000000000000000000 000000000000000000000000000000000000000     00000000                                                                                                                        000000000000000000
F0010000006376400002000001022529300041450500000000000000000201410100002001ALBERTO ALVAREZ ISAZA                             C000000001300000000000000000000000100010010000000000000000000000F0010000006376400220141010000101 00000000000000000000000000000000000000000000000000000000000000000000000000000000000000000000000000000000000000000N 00000000000NCONT   00    00000000000          00000000000000000000000000000000000000000000 000000000000000A000000000000000000000000000000000000000000000 000000000000000000000000000000000000000     00000000                                                                                                                        000000000000000000
F0010000006376400003000001022529300042505000000000000000000201410100002001ALBERTO ALVAREZ ISAZA                             C000000000050000000000000000000000100010010000000000000000000000F0010000006376400320141010000101 00000000000000000000000000000000000000000000000000000000000000000000000000000000000000000000000000000000000000000N 00000000000NCONT   00    00000000000          00000000000000000000000000000000000000000000 000000000000000A000000000000000000000000000000000000000000000 000000000000000000000000000000000000000     00000000                                                                                                                        000000000000000000
F0010000006376400004000001022529300023658300000000000000000201410100002001ALBERTO ALVAREZ ISAZA                             C000000000010400000000000000000000100010010000000000000000000000F0010000006376400420141010000101 00000000000000000000000000000000000000000000000000000000000000000000000000000000000000000000000000000000000000000N 00000000000NCONT   00    00000000000          00000000000000000000000000000000000000000000 000000000000000A000000000000000000000000000000000000000000000 000000000000000000000000000000000000000     00000000                                                                                                                        000000000000000000
F0010000006376400005000001022529300013552100000000000000000201410100002001ALBERTO ALVAREZ ISAZA                             D000000000010400000000000000000000100010010000000000000000000000F0010000006376400520141010000101 00000000000000000000000000000000000000000000000000000000000000000000000000000000000000000000000000000000000000000N 00000000000NCONT   00    00000000000          00000000000000000000000000000000000000000000 000000000000000A000000000000000000000000000000000000000000000 000000000000000000000000000000000000000     00000000                                                                                                                        000000000000000000
F0010000006376500001000001022529300011050500000000000000000201410100002001ALBERTO ALVAREZ ISAZA                             D000000000415000000000000000000000100010010000000000000000000000F0010000006376500120141010000101 00000000000000000000000000000000000000000000000000000000000000000000000000000000000000000000000000000000000000000N 00000000000NCONT   00    00000000000          00000000000000000000000000000000000000000000 000000000000000A000000000000000000000000000000000000000000000 000000000000000000000000000000000000000     00000000                                                                                                                        000000000000000000
F0010000006376500002000001022529300041450500000000000000000201410100002001ALBERTO ALVAREZ ISAZA                             C000000000380000000000000000000000100010010000000000000000000000F0010000006376500220141010000101 00000000000000000000000000000000000000000000000000000000000000000000000000000000000000000000000000000000000000000N 00000000000NCONT   00    00000000000          00000000000000000000000000000000000000000000 000000000000000A000000000000000000000000000000000000000000000 000000000000000000000000000000000000000     00000000                                                                                                                        000000000000000000
