F0010000007363800001000081102758700013050500000000000000000201507170002001C.I. ABRACOL S.A EMA                              D000000085658700000000000000000000100010010000000000000000000000F0010000007363800120150717000101 00000000000000000000000000000000000000000000000000000000000000000000000000000000000000000000000000000000000000000N 00000000000NCONT   00    00000000000          00000000000000000000000000000000000000000000 000000000000000A000000000000000000000000000000000000000000000 000000000000000000000000000000000000000     00000000                                                                                                                        000000000000000000
F0010000007363800002000081102758700041450500000000000000000201507170002001C.I. ABRACOL S.A EMA                              C000000060000000000000000000000000100010010000000000000000000000F0010000007363800220150717000101 00000000000000000000000000000000000000000000000000000000000000000000000000000000000000000000000000000000000000000N 00000000000NCONT   00    00000000000          00000000000000000000000000000000000000000000 000000000000000A000000000000000000000000000000000000000000000 000000000000000000000000000000000000000     00000000                                                                                                                        000000000000000000
F0010000007363800003000081102758700041750100000000000000000201507170002001C.I. ABRACOL S.A EMA                              D000000001800000000000000000000000100010010000000000000000000000F0010000007363800320150717000101 00000000000000000000000000000000000000000000000000000000000000000000000000000000000000000000000000000000000000000N 00000000000NCONT   00    00000000000          00000000000000000000000000000000000000000000 000000000000000A000000000000000000000000000000000000000000000 000000000000000000000000000000000000000     00000000                                                                                                                        000000000000000000
F0010000007363800004000081102758700042505000000000000000000201507170002001C.I. ABRACOL S.A EMA                              C000000027458700000000000000000000100010010000000000000000000000F0010000007363800420150717000101 00000000000000000000000000000000000000000000000000000000000000000000000000000000000000000000000000000000000000000N 00000000000NCONT   00    00000000000          00000000000000000000000000000000000000000000 000000000000000A000000000000000000000000000000000000000000000 000000000000000000000000000000000000000     00000000                                                                                                                        000000000000000000
F0010000007363800005000081102758700023658300000000000000000201507170002001C.I. ABRACOL S.A EMA                              C000000000480000000000000000000000100010010000000000000000000000F0010000007363800520150717000101 00000000000000000000000000000000000000000000000000000000000000000000000000000000000000000000000000000000000000000N 00000000000NCONT   00    00000000000          00000000000000000000000000000000000000000000 000000000000000A000000000000000000000000000000000000000000000 000000000000000000000000000000000000000     00000000                                                                                                                        000000000000000000
F0010000007363800006000081102758700013552100000000000000000201507170002001C.I. ABRACOL S.A EMA                              D000000000480000000000000000000000100010010000000000000000000000F0010000007363800620150717000101 00000000000000000000000000000000000000000000000000000000000000000000000000000000000000000000000000000000000000000N 00000000000NCONT   00    00000000000          00000000000000000000000000000000000000000000 000000000000000A000000000000000000000000000000000000000000000 000000000000000000000000000000000000000     00000000                                                                                                                        000000000000000000
F0010000007363900001000081102758700013050500000000000000000201507170002001C.I. ABRACOL S.A EMA                              D000000039227800000000000000000000100010010000000000000000000000F0010000007363900120150717000101 00000000000000000000000000000000000000000000000000000000000000000000000000000000000000000000000000000000000000000N 00000000000NCONT   00    00000000000          00000000000000000000000000000000000000000000 000000000000000A000000000000000000000000000000000000000000000 000000000000000000000000000000000000000     00000000                                                                                                                        000000000000000000
F0010000007363900002000081102758700041450500000000000000000201507170002001C.I. ABRACOL S.A EMA                              C000000020920000000000000000000000100010010000000000000000000000F0010000007363900220150717000101 00000000000000000000000000000000000000000000000000000000000000000000000000000000000000000000000000000000000000000N 00000000000NCONT   00    00000000000          00000000000000000000000000000000000000000000 000000000000000A000000000000000000000000000000000000000000000 000000000000000000000000000000000000000     00000000                                                                                                                        000000000000000000
F0010000007363900003000081102758700041750100000000000000000201507170002001C.I. ABRACOL S.A EMA                              D000000000627600000000000000000000100010010000000000000000000000F0010000007363900320150717000101 00000000000000000000000000000000000000000000000000000000000000000000000000000000000000000000000000000000000000000N 00000000000NCONT   00    00000000000          00000000000000000000000000000000000000000000 000000000000000A000000000000000000000000000000000000000000000 000000000000000000000000000000000000000     00000000                                                                                                                        000000000000000000
F0010000007363900004000081102758700042505000000000000000000201507170002001C.I. ABRACOL S.A EMA                              C000000018935400000000000000000000100010010000000000000000000000F0010000007363900420150717000101 00000000000000000000000000000000000000000000000000000000000000000000000000000000000000000000000000000000000000000N 00000000000NCONT   00    00000000000          00000000000000000000000000000000000000000000 000000000000000A000000000000000000000000000000000000000000000 000000000000000000000000000000000000000     00000000                                                                                                                        000000000000000000
F0010000007363900005000081102758700023658300000000000000000201507170002001C.I. ABRACOL S.A EMA                              C000000000167400000000000000000000100010010000000000000000000000F0010000007363900520150717000101 00000000000000000000000000000000000000000000000000000000000000000000000000000000000000000000000000000000000000000N 00000000000NCONT   00    00000000000          00000000000000000000000000000000000000000000 000000000000000A000000000000000000000000000000000000000000000 000000000000000000000000000000000000000     00000000                                                                                                                        000000000000000000
F0010000007363900006000081102758700013552100000000000000000201507170002001C.I. ABRACOL S.A EMA                              D000000000167400000000000000000000100010010000000000000000000000F0010000007363900620150717000101 00000000000000000000000000000000000000000000000000000000000000000000000000000000000000000000000000000000000000000N 00000000000NCONT   00    00000000000          00000000000000000000000000000000000000000000 000000000000000A000000000000000000000000000000000000000000000 000000000000000000000000000000000000000     00000000                                                                                                                        000000000000000000
F0010000007364000001000080200250700013050500000000000000000201507170002001ETICOL SAS                                        D000000030250000000000000000000000100010010000000000000000000000F0010000007364000120150717000101 00000000000000000000000000000000000000000000000000000000000000000000000000000000000000000000000000000000000000000N 00000000000NCONT   00    00000000000          00000000000000000000000000000000000000000000 000000000000000A000000000000000000000000000000000000000000000 000000000000000000000000000000000000000     00000000                                                                                                                        000000000000000000
F0010000007364000002000080200250700041450500000000000000000201507170002001ETICOL SAS                                        C000000028750000000000000000000000100010010000000000000000000000F0010000007364000220150717000101 00000000000000000000000000000000000000000000000000000000000000000000000000000000000000000000000000000000000000000N 00000000000NCONT   00    00000000000          00000000000000000000000000000000000000000000 000000000000000A000000000000000000000000000000000000000000000 000000000000000000000000000000000000000     00000000                                                                                                                        000000000000000000
F0010000007364000003000080200250700042505000000000000000000201507170002001ETICOL SAS                                        C000000001500000000000000000000000100010010000000000000000000000F0010000007364000320150717000101 00000000000000000000000000000000000000000000000000000000000000000000000000000000000000000000000000000000000000000N 00000000000NCONT   00    00000000000          00000000000000000000000000000000000000000000 000000000000000A000000000000000000000000000000000000000000000 000000000000000000000000000000000000000     00000000                                                                                                                        000000000000000000
F0010000007364000004000080200250700023658300000000000000000201507170002001ETICOL SAS                                        C000000000230000000000000000000000100010010000000000000000000000F0010000007364000420150717000101 00000000000000000000000000000000000000000000000000000000000000000000000000000000000000000000000000000000000000000N 00000000000NCONT   00    00000000000          00000000000000000000000000000000000000000000 000000000000000A000000000000000000000000000000000000000000000 000000000000000000000000000000000000000     00000000                                                                                                                        000000000000000000
F0010000007364000005000080200250700013552100000000000000000201507170002001ETICOL SAS                                        D000000000230000000000000000000000100010010000000000000000000000F0010000007364000520150717000101 00000000000000000000000000000000000000000000000000000000000000000000000000000000000000000000000000000000000000000N 00000000000NCONT   00    00000000000          00000000000000000000000000000000000000000000 000000000000000A000000000000000000000000000000000000000000000 000000000000000000000000000000000000000     00000000                                                                                                                        000000000000000000
F0010000007364100001000090008711200013050500000000000000000201507170002001PACKAGING SUPPLIERS S.A.                          D000000011214000000000000000000000100010010000000000000000000000F0010000007364100120150717000101 00000000000000000000000000000000000000000000000000000000000000000000000000000000000000000000000000000000000000000N 00000000000NCONT   00    00000000000          00000000000000000000000000000000000000000000 000000000000000A000000000000000000000000000000000000000000000 000000000000000000000000000000000000000     00000000                                                                                                                        000000000000000000
F0010000007364100002000090008711200041450500000000000000000201507170002001PACKAGING SUPPLIERS S.A.                          C000000010260000000000000000000000100010010000000000000000000000F0010000007364100220150717000101 00000000000000000000000000000000000000000000000000000000000000000000000000000000000000000000000000000000000000000N 00000000000NCONT   00    00000000000          00000000000000000000000000000000000000000000 000000000000000A000000000000000000000000000000000000000000000 000000000000000000000000000000000000000     00000000                                                                                                                        000000000000000000
F0010000007364100003000090008711200042505000000000000000000201507170002001PACKAGING SUPPLIERS S.A.                          C000000000954000000000000000000000100010010000000000000000000000F0010000007364100320150717000101 00000000000000000000000000000000000000000000000000000000000000000000000000000000000000000000000000000000000000000N 00000000000NCONT   00    00000000000          00000000000000000000000000000000000000000000 000000000000000A000000000000000000000000000000000000000000000 000000000000000000000000000000000000000     00000000                                                                                                                        000000000000000000
F0010000007364100004000090008711200023658300000000000000000201507170002001PACKAGING SUPPLIERS S.A.                          C000000000082100000000000000000000100010010000000000000000000000F0010000007364100420150717000101 00000000000000000000000000000000000000000000000000000000000000000000000000000000000000000000000000000000000000000N 00000000000NCONT   00    00000000000          00000000000000000000000000000000000000000000 000000000000000A000000000000000000000000000000000000000000000 000000000000000000000000000000000000000     00000000                                                                                                                        000000000000000000
F0010000007364100005000090008711200013552100000000000000000201507170002001PACKAGING SUPPLIERS S.A.                          D000000000082100000000000000000000100010010000000000000000000000F0010000007364100520150717000101 00000000000000000000000000000000000000000000000000000000000000000000000000000000000000000000000000000000000000000N 00000000000NCONT   00    00000000000          00000000000000000000000000000000000000000000 000000000000000A000000000000000000000000000000000000000000000 000000000000000000000000000000000000000     00000000                                                                                                                        000000000000000000
F0010000007364200001000000376399500013050500000000000000000201507170002001FORDPLAST                                         D000000007230000000000000000000000100010010000000000000000000000F0010000007364200120150717000101 00000000000000000000000000000000000000000000000000000000000000000000000000000000000000000000000000000000000000000N 00000000000NCONT   00    00000000000          00000000000000000000000000000000000000000000 000000000000000A000000000000000000000000000000000000000000000 000000000000000000000000000000000000000     00000000                                                                                                                        000000000000000000
F0010000007364200002000000376399500041450500000000000000000201507170002001FORDPLAST                                         C000000006030000000000000000000000100010010000000000000000000000F0010000007364200220150717000101 00000000000000000000000000000000000000000000000000000000000000000000000000000000000000000000000000000000000000000N 00000000000NCONT   00    00000000000          00000000000000000000000000000000000000000000 000000000000000A000000000000000000000000000000000000000000000 000000000000000000000000000000000000000     00000000                                                                                                                        000000000000000000
F0010000007364200003000000376399500042505000000000000000000201507170002001FORDPLAST                                         C000000001200000000000000000000000100010010000000000000000000000F0010000007364200320150717000101 00000000000000000000000000000000000000000000000000000000000000000000000000000000000000000000000000000000000000000N 00000000000NCONT   00    00000000000          00000000000000000000000000000000000000000000 000000000000000A000000000000000000000000000000000000000000000 000000000000000000000000000000000000000     00000000                                                                                                                        000000000000000000
F0010000007364200004000000376399500023658300000000000000000201507170002001FORDPLAST                                         C000000000048200000000000000000000100010010000000000000000000000F0010000007364200420150717000101 00000000000000000000000000000000000000000000000000000000000000000000000000000000000000000000000000000000000000000N 00000000000NCONT   00    00000000000          00000000000000000000000000000000000000000000 000000000000000A000000000000000000000000000000000000000000000 000000000000000000000000000000000000000     00000000                                                                                                                        000000000000000000
F0010000007364200005000000376399500013552100000000000000000201507170002001FORDPLAST                                         D000000000048200000000000000000000100010010000000000000000000000F0010000007364200520150717000101 00000000000000000000000000000000000000000000000000000000000000000000000000000000000000000000000000000000000000000N 00000000000NCONT   00    00000000000          00000000000000000000000000000000000000000000 000000000000000A000000000000000000000000000000000000000000000 000000000000000000000000000000000000000     00000000                                                                                                                        000000000000000000
F0010000007364300001000000748239700013050500000000000000000201507170002001RAFAEL NAVARRO URIBE                              D000000123784800000000000000000000100010010000000000000000000000F0010000007364300120150717000101 00000000000000000000000000000000000000000000000000000000000000000000000000000000000000000000000000000000000000000N 00000000000NCONT   00    00000000000          00000000000000000000000000000000000000000000 000000000000000A000000000000000000000000000000000000000000000 000000000000000000000000000000000000000     00000000                                                                                                                        000000000000000000
F0010000007364300002000000748239700041450500000000000000000201507170002001RAFAEL NAVARRO URIBE                              C000000095340000000000000000000000100010010000000000000000000000F0010000007364300220150717000101 00000000000000000000000000000000000000000000000000000000000000000000000000000000000000000000000000000000000000000N 00000000000NCONT   00    00000000000          00000000000000000000000000000000000000000000 000000000000000A000000000000000000000000000000000000000000000 000000000000000000000000000000000000000     00000000                                                                                                                        000000000000000000
F0010000007364300003000000748239700042505000000000000000000201507170002001RAFAEL NAVARRO URIBE                              C000000028444800000000000000000000100010010000000000000000000000F0010000007364300320150717000101 00000000000000000000000000000000000000000000000000000000000000000000000000000000000000000000000000000000000000000N 00000000000NCONT   00    00000000000          00000000000000000000000000000000000000000000 000000000000000A000000000000000000000000000000000000000000000 000000000000000000000000000000000000000     00000000                                                                                                                        000000000000000000
F0010000007364300004000000748239700023658300000000000000000201507170002001RAFAEL NAVARRO URIBE                              C000000000762700000000000000000000100010010000000000000000000000F0010000007364300420150717000101 00000000000000000000000000000000000000000000000000000000000000000000000000000000000000000000000000000000000000000N 00000000000NCONT   00    00000000000          00000000000000000000000000000000000000000000 000000000000000A000000000000000000000000000000000000000000000 000000000000000000000000000000000000000     00000000                                                                                                                        000000000000000000
F0010000007364300005000000748239700013552100000000000000000201507170002001RAFAEL NAVARRO URIBE                              D000000000762700000000000000000000100010010000000000000000000000F0010000007364300520150717000101 00000000000000000000000000000000000000000000000000000000000000000000000000000000000000000000000000000000000000000N 00000000000NCONT   00    00000000000          00000000000000000000000000000000000000000000 000000000000000A000000000000000000000000000000000000000000000 000000000000000000000000000000000000000     00000000                                                                                                                        000000000000000000
F0010000007364400001000089080078800013050500000000000000000201507170002001SUMATEC S.A.                                      D000000024514000000000000000000000100010010000000000000000000000F0010000007364400120150717000101 00000000000000000000000000000000000000000000000000000000000000000000000000000000000000000000000000000000000000000N 00000000000NCONT   00    00000000000          00000000000000000000000000000000000000000000 000000000000000A000000000000000000000000000000000000000000000 000000000000000000000000000000000000000     00000000                                                                                                                        000000000000000000
F0010000007364400002000089080078800041450500000000000000000201507170002001SUMATEC S.A.                                      C000000016940000000000000000000000100010010000000000000000000000F0010000007364400220150717000101 00000000000000000000000000000000000000000000000000000000000000000000000000000000000000000000000000000000000000000N 00000000000NCONT   00    00000000000          00000000000000000000000000000000000000000000 000000000000000A000000000000000000000000000000000000000000000 000000000000000000000000000000000000000     00000000                                                                                                                        000000000000000000
F0010000007364400003000089080078800042505000000000000000000201507170002001SUMATEC S.A.                                      C000000007574000000000000000000000100010010000000000000000000000F0010000007364400320150717000101 00000000000000000000000000000000000000000000000000000000000000000000000000000000000000000000000000000000000000000N 00000000000NCONT   00    00000000000          00000000000000000000000000000000000000000000 000000000000000A000000000000000000000000000000000000000000000 000000000000000000000000000000000000000     00000000                                                                                                                        000000000000000000
F0010000007364400004000089080078800023658300000000000000000201507170002001SUMATEC S.A.                                      C000000000135500000000000000000000100010010000000000000000000000F0010000007364400420150717000101 00000000000000000000000000000000000000000000000000000000000000000000000000000000000000000000000000000000000000000N 00000000000NCONT   00    00000000000          00000000000000000000000000000000000000000000 000000000000000A000000000000000000000000000000000000000000000 000000000000000000000000000000000000000     00000000                                                                                                                        000000000000000000
F0010000007364400005000089080078800013552100000000000000000201507170002001SUMATEC S.A.                                      D000000000135500000000000000000000100010010000000000000000000000F0010000007364400520150717000101 00000000000000000000000000000000000000000000000000000000000000000000000000000000000000000000000000000000000000000N 00000000000NCONT   00    00000000000          00000000000000000000000000000000000000000000 000000000000000A000000000000000000000000000000000000000000000 000000000000000000000000000000000000000     00000000                                                                                                                        000000000000000000
F0010000007364500001000080016665600013050500000000000000000201507170002001SUMICAL DE ANTIOQUIA S.A.S                        D000000026304600000000000000000000100010010000000000000000000000F0010000007364500120150717000101 00000000000000000000000000000000000000000000000000000000000000000000000000000000000000000000000000000000000000000N 00000000000NCONT   00    00000000000          00000000000000000000000000000000000000000000 000000000000000A000000000000000000000000000000000000000000000 000000000000000000000000000000000000000     00000000                                                                                                                        000000000000000000
F0010000007364500002000080016665600041450500000000000000000201507170002001SUMICAL DE ANTIOQUIA S.A.S                        C000000023230000000000000000000000100010010000000000000000000000F0010000007364500220150717000101 00000000000000000000000000000000000000000000000000000000000000000000000000000000000000000000000000000000000000000N 00000000000NCONT   00    00000000000          00000000000000000000000000000000000000000000 000000000000000A000000000000000000000000000000000000000000000 000000000000000000000000000000000000000     00000000                                                                                                                        000000000000000000
F0010000007364500003000080016665600042505000000000000000000201507170002001SUMICAL DE ANTIOQUIA S.A.S                        C000000003074600000000000000000000100010010000000000000000000000F0010000007364500320150717000101 00000000000000000000000000000000000000000000000000000000000000000000000000000000000000000000000000000000000000000N 00000000000NCONT   00    00000000000          00000000000000000000000000000000000000000000 000000000000000A000000000000000000000000000000000000000000000 000000000000000000000000000000000000000     00000000                                                                                                                        000000000000000000
F0010000007364500004000080016665600023658300000000000000000201507170002001SUMICAL DE ANTIOQUIA S.A.S                        C000000000185800000000000000000000100010010000000000000000000000F0010000007364500420150717000101 00000000000000000000000000000000000000000000000000000000000000000000000000000000000000000000000000000000000000000N 00000000000NCONT   00    00000000000          00000000000000000000000000000000000000000000 000000000000000A000000000000000000000000000000000000000000000 000000000000000000000000000000000000000     00000000                                                                                                                        000000000000000000
F0010000007364500005000080016665600013552100000000000000000201507170002001SUMICAL DE ANTIOQUIA S.A.S                        D000000000185800000000000000000000100010010000000000000000000000F0010000007364500520150717000101 00000000000000000000000000000000000000000000000000000000000000000000000000000000000000000000000000000000000000000N 00000000000NCONT   00    00000000000          00000000000000000000000000000000000000000000 000000000000000A000000000000000000000000000000000000000000000 000000000000000000000000000000000000000     00000000                                                                                                                        000000000000000000
F0010000007364600001000089190114700013050500000000000000000201507170002001SUPAPEL S.A.S                                     D000000009967500000000000000000000100010010000000000000000000000F0010000007364600120150717000101 00000000000000000000000000000000000000000000000000000000000000000000000000000000000000000000000000000000000000000N 00000000000NCONT   00    00000000000          00000000000000000000000000000000000000000000 000000000000000A000000000000000000000000000000000000000000000 000000000000000000000000000000000000000     00000000                                                                                                                        000000000000000000
F0010000007364600002000089190114700041450500000000000000000201507170002001SUPAPEL S.A.S                                     C000000008830000000000000000000000100010010000000000000000000000F0010000007364600220150717000101 00000000000000000000000000000000000000000000000000000000000000000000000000000000000000000000000000000000000000000N 00000000000NCONT   00    00000000000          00000000000000000000000000000000000000000000 000000000000000A000000000000000000000000000000000000000000000 000000000000000000000000000000000000000     00000000                                                                                                                        000000000000000000
F0010000007364600003000089190114700042505000000000000000000201507170002001SUPAPEL S.A.S                                     C000000001137500000000000000000000100010010000000000000000000000F0010000007364600320150717000101 00000000000000000000000000000000000000000000000000000000000000000000000000000000000000000000000000000000000000000N 00000000000NCONT   00    00000000000          00000000000000000000000000000000000000000000 000000000000000A000000000000000000000000000000000000000000000 000000000000000000000000000000000000000     00000000                                                                                                                        000000000000000000
F0010000007364600004000089190114700023658300000000000000000201507170002001SUPAPEL S.A.S                                     C000000000070600000000000000000000100010010000000000000000000000F0010000007364600420150717000101 00000000000000000000000000000000000000000000000000000000000000000000000000000000000000000000000000000000000000000N 00000000000NCONT   00    00000000000          00000000000000000000000000000000000000000000 000000000000000A000000000000000000000000000000000000000000000 000000000000000000000000000000000000000     00000000                                                                                                                        000000000000000000
F0010000007364600005000089190114700013552100000000000000000201507170002001SUPAPEL S.A.S                                     D000000000070600000000000000000000100010010000000000000000000000F0010000007364600520150717000101 00000000000000000000000000000000000000000000000000000000000000000000000000000000000000000000000000000000000000000N 00000000000NCONT   00    00000000000          00000000000000000000000000000000000000000000 000000000000000A000000000000000000000000000000000000000000000 000000000000000000000000000000000000000     00000000                                                                                                                        000000000000000000
F0010000007364700001000080002300200013050500000000000000000201507170002001DISREL S.A.                                       D000000010250000000000000000000000100010010000000000000000000000F0010000007364700120150717000101 00000000000000000000000000000000000000000000000000000000000000000000000000000000000000000000000000000000000000000N 00000000000NCONT   00    00000000000          00000000000000000000000000000000000000000000 000000000000000A000000000000000000000000000000000000000000000 000000000000000000000000000000000000000     00000000                                                                                                                        000000000000000000
F0010000007364700002000080002300200041450500000000000000000201507170002001DISREL S.A.                                       C000000008200000000000000000000000100010010000000000000000000000F0010000007364700220150717000101 00000000000000000000000000000000000000000000000000000000000000000000000000000000000000000000000000000000000000000N 00000000000NCONT   00    00000000000          00000000000000000000000000000000000000000000 000000000000000A000000000000000000000000000000000000000000000 000000000000000000000000000000000000000     00000000                                                                                                                        000000000000000000
F0010000007364700003000080002300200042505000000000000000000201507170002001DISREL S.A.                                       C000000002050000000000000000000000100010010000000000000000000000F0010000007364700320150717000101 00000000000000000000000000000000000000000000000000000000000000000000000000000000000000000000000000000000000000000N 00000000000NCONT   00    00000000000          00000000000000000000000000000000000000000000 000000000000000A000000000000000000000000000000000000000000000 000000000000000000000000000000000000000     00000000                                                                                                                        000000000000000000
F0010000007364700004000080002300200023658300000000000000000201507170002001DISREL S.A.                                       C000000000065600000000000000000000100010010000000000000000000000F0010000007364700420150717000101 00000000000000000000000000000000000000000000000000000000000000000000000000000000000000000000000000000000000000000N 00000000000NCONT   00    00000000000          00000000000000000000000000000000000000000000 000000000000000A000000000000000000000000000000000000000000000 000000000000000000000000000000000000000     00000000                                                                                                                        000000000000000000
F0010000007364700005000080002300200013552100000000000000000201507170002001DISREL S.A.                                       D000000000065600000000000000000000100010010000000000000000000000F0010000007364700520150717000101 00000000000000000000000000000000000000000000000000000000000000000000000000000000000000000000000000000000000000000N 00000000000NCONT   00    00000000000          00000000000000000000000000000000000000000000 000000000000000A000000000000000000000000000000000000000000000 000000000000000000000000000000000000000     00000000                                                                                                                        000000000000000000
F0010000007364800001000090013035500013050500000000000000000201507170002001FUJIAN SHAN S.A.                                  D000000029060000000000000000000000100010010000000000000000000000F0010000007364800120150717000101 00000000000000000000000000000000000000000000000000000000000000000000000000000000000000000000000000000000000000000N 00000000000NCONT   00    00000000000          00000000000000000000000000000000000000000000 000000000000000A000000000000000000000000000000000000000000000 000000000000000000000000000000000000000     00000000                                                                                                                        000000000000000000
F0010000007364800002000090013035500041450500000000000000000201507170002001FUJIAN SHAN S.A.                                  C000000028560000000000000000000000100010010000000000000000000000F0010000007364800220150717000101 00000000000000000000000000000000000000000000000000000000000000000000000000000000000000000000000000000000000000000N 00000000000NCONT   00    00000000000          00000000000000000000000000000000000000000000 000000000000000A000000000000000000000000000000000000000000000 000000000000000000000000000000000000000     00000000                                                                                                                        000000000000000000
F0010000007364800003000090013035500042505000000000000000000201507170002001FUJIAN SHAN S.A.                                  C000000000500000000000000000000000100010010000000000000000000000F0010000007364800320150717000101 00000000000000000000000000000000000000000000000000000000000000000000000000000000000000000000000000000000000000000N 00000000000NCONT   00    00000000000          00000000000000000000000000000000000000000000 000000000000000A000000000000000000000000000000000000000000000 000000000000000000000000000000000000000     00000000                                                                                                                        000000000000000000
F0010000007364800004000090013035500023658300000000000000000201507170002001FUJIAN SHAN S.A.                                  C000000000228500000000000000000000100010010000000000000000000000F0010000007364800420150717000101 00000000000000000000000000000000000000000000000000000000000000000000000000000000000000000000000000000000000000000N 00000000000NCONT   00    00000000000          00000000000000000000000000000000000000000000 000000000000000A000000000000000000000000000000000000000000000 000000000000000000000000000000000000000     00000000                                                                                                                        000000000000000000
F0010000007364800005000090013035500013552100000000000000000201507170002001FUJIAN SHAN S.A.                                  D000000000228500000000000000000000100010010000000000000000000000F0010000007364800520150717000101 00000000000000000000000000000000000000000000000000000000000000000000000000000000000000000000000000000000000000000N 00000000000NCONT   00    00000000000          00000000000000000000000000000000000000000000 000000000000000A000000000000000000000000000000000000000000000 000000000000000000000000000000000000000     00000000                                                                                                                        000000000000000000
F0010000007364900001000090009800500013050500000000000000000201507170002001GLORIANT CHEMICAL DE COLOMBIA LTDA                D000000022754000000000000000000000100010010000000000000000000000F0010000007364900120150717000101 00000000000000000000000000000000000000000000000000000000000000000000000000000000000000000000000000000000000000000N 00000000000NCONT   00    00000000000          00000000000000000000000000000000000000000000 000000000000000A000000000000000000000000000000000000000000000 000000000000000000000000000000000000000     00000000                                                                                                                        000000000000000000
F0010000007364900002000090009800500041450500000000000000000201507170002001GLORIANT CHEMICAL DE COLOMBIA LTDA                C000000019700000000000000000000000100010010000000000000000000000F0010000007364900220150717000101 00000000000000000000000000000000000000000000000000000000000000000000000000000000000000000000000000000000000000000N 00000000000NCONT   00    00000000000          00000000000000000000000000000000000000000000 000000000000000A000000000000000000000000000000000000000000000 000000000000000000000000000000000000000     00000000                                                                                                                        000000000000000000
F0010000007364900003000090009800500042505000000000000000000201507170002001GLORIANT CHEMICAL DE COLOMBIA LTDA                C000000003054000000000000000000000100010010000000000000000000000F0010000007364900320150717000101 00000000000000000000000000000000000000000000000000000000000000000000000000000000000000000000000000000000000000000N 00000000000NCONT   00    00000000000          00000000000000000000000000000000000000000000 000000000000000A000000000000000000000000000000000000000000000 000000000000000000000000000000000000000     00000000                                                                                                                        000000000000000000
F0010000007364900004000090009800500023658300000000000000000201507170002001GLORIANT CHEMICAL DE COLOMBIA LTDA                C000000000157600000000000000000000100010010000000000000000000000F0010000007364900420150717000101 00000000000000000000000000000000000000000000000000000000000000000000000000000000000000000000000000000000000000000N 00000000000NCONT   00    00000000000          00000000000000000000000000000000000000000000 000000000000000A000000000000000000000000000000000000000000000 000000000000000000000000000000000000000     00000000                                                                                                                        000000000000000000
F0010000007364900005000090009800500013552100000000000000000201507170002001GLORIANT CHEMICAL DE COLOMBIA LTDA                D000000000157600000000000000000000100010010000000000000000000000F0010000007364900520150717000101 00000000000000000000000000000000000000000000000000000000000000000000000000000000000000000000000000000000000000000N 00000000000NCONT   00    00000000000          00000000000000000000000000000000000000000000 000000000000000A000000000000000000000000000000000000000000000 000000000000000000000000000000000000000     00000000                                                                                                                        000000000000000000
F0010000007365000001000086000490200013050500000000000000000201507170002001PROV. DE PAPELES ANDINA S.A.                      D000000006057000000000000000000000100010010000000000000000000000F0010000007365000120150717000101 00000000000000000000000000000000000000000000000000000000000000000000000000000000000000000000000000000000000000000N 00000000000NCONT   00    00000000000          00000000000000000000000000000000000000000000 000000000000000A000000000000000000000000000000000000000000000 000000000000000000000000000000000000000     00000000                                                                                                                        000000000000000000
F0010000007365000002000086000490200041450500000000000000000201507170002001PROV. DE PAPELES ANDINA S.A.                      C000000005340000000000000000000000100010010000000000000000000000F0010000007365000220150717000101 00000000000000000000000000000000000000000000000000000000000000000000000000000000000000000000000000000000000000000N 00000000000NCONT   00    00000000000          00000000000000000000000000000000000000000000 000000000000000A000000000000000000000000000000000000000000000 000000000000000000000000000000000000000     00000000                                                                                                                        000000000000000000
F0010000007365000003000086000490200042505000000000000000000201507170002001PROV. DE PAPELES ANDINA S.A.                      C000000000717000000000000000000000100010010000000000000000000000F0010000007365000320150717000101 00000000000000000000000000000000000000000000000000000000000000000000000000000000000000000000000000000000000000000N 00000000000NCONT   00    00000000000          00000000000000000000000000000000000000000000 000000000000000A000000000000000000000000000000000000000000000 000000000000000000000000000000000000000     00000000                                                                                                                        000000000000000000
F0010000007365000004000086000490200023658300000000000000000201507170002001PROV. DE PAPELES ANDINA S.A.                      C000000000042700000000000000000000100010010000000000000000000000F0010000007365000420150717000101 00000000000000000000000000000000000000000000000000000000000000000000000000000000000000000000000000000000000000000N 00000000000NCONT   00    00000000000          00000000000000000000000000000000000000000000 000000000000000A000000000000000000000000000000000000000000000 000000000000000000000000000000000000000     00000000                                                                                                                        000000000000000000
F0010000007365000005000086000490200013552100000000000000000201507170002001PROV. DE PAPELES ANDINA S.A.                      D000000000042700000000000000000000100010010000000000000000000000F0010000007365000520150717000101 00000000000000000000000000000000000000000000000000000000000000000000000000000000000000000000000000000000000000000N 00000000000NCONT   00    00000000000          00000000000000000000000000000000000000000000 000000000000000A000000000000000000000000000000000000000000000 000000000000000000000000000000000000000     00000000                                                                                                                        000000000000000000
F0010000007365100001000000869402400011050500000000000000000201507170002001ISRAEL MANGA                                      D000000001600000000000000000000000100010010000000000000000000000F0010000007365100120150717000101 00000000000000000000000000000000000000000000000000000000000000000000000000000000000000000000000000000000000000000N 00000000000NCONT   00    00000000000          00000000000000000000000000000000000000000000 000000000000000A000000000000000000000000000000000000000000000 000000000000000000000000000000000000000     00000000                                                                                                                        000000000000000000
F0010000007365100002000000869402400041450500000000000000000201507170002001ISRAEL MANGA                                      C000000001200000000000000000000000100010010000000000000000000000F0010000007365100220150717000101 00000000000000000000000000000000000000000000000000000000000000000000000000000000000000000000000000000000000000000N 00000000000NCONT   00    00000000000          00000000000000000000000000000000000000000000 000000000000000A000000000000000000000000000000000000000000000 000000000000000000000000000000000000000     00000000                                                                                                                        000000000000000000
F0010000007365100003000000869402400042505000000000000000000201507170002001ISRAEL MANGA                                      C000000000400000000000000000000000100010010000000000000000000000F0010000007365100320150717000101 00000000000000000000000000000000000000000000000000000000000000000000000000000000000000000000000000000000000000000N 00000000000NCONT   00    00000000000          00000000000000000000000000000000000000000000 000000000000000A000000000000000000000000000000000000000000000 000000000000000000000000000000000000000     00000000                                                                                                                        000000000000000000
F0010000007365100004000000869402400023658300000000000000000201507170002001ISRAEL MANGA                                      C000000000009600000000000000000000100010010000000000000000000000F0010000007365100420150717000101 00000000000000000000000000000000000000000000000000000000000000000000000000000000000000000000000000000000000000000N 00000000000NCONT   00    00000000000          00000000000000000000000000000000000000000000 000000000000000A000000000000000000000000000000000000000000000 000000000000000000000000000000000000000     00000000                                                                                                                        000000000000000000
F0010000007365100005000000869402400013552100000000000000000201507170002001ISRAEL MANGA                                      D000000000009600000000000000000000100010010000000000000000000000F0010000007365100520150717000101 00000000000000000000000000000000000000000000000000000000000000000000000000000000000000000000000000000000000000000N 00000000000NCONT   00    00000000000          00000000000000000000000000000000000000000000 000000000000000A000000000000000000000000000000000000000000000 000000000000000000000000000000000000000     00000000                                                                                                                        000000000000000000
F0010000007365200001000089010952800013050500000000000000000201507170002001IND. LITOGRAF. BOSTON S.A.S.                      D000000022750000000000000000000000100010010000000000000000000000F0010000007365200120150717000101 00000000000000000000000000000000000000000000000000000000000000000000000000000000000000000000000000000000000000000N 00000000000NCONT   00    00000000000          00000000000000000000000000000000000000000000 000000000000000A000000000000000000000000000000000000000000000 000000000000000000000000000000000000000     00000000                                                                                                                        000000000000000000
F0010000007365200002000089010952800041450500000000000000000201507170002001IND. LITOGRAF. BOSTON S.A.S.                      C000000019950000000000000000000000100010010000000000000000000000F0010000007365200220150717000101 00000000000000000000000000000000000000000000000000000000000000000000000000000000000000000000000000000000000000000N 00000000000NCONT   00    00000000000          00000000000000000000000000000000000000000000 000000000000000A000000000000000000000000000000000000000000000 000000000000000000000000000000000000000     00000000                                                                                                                        000000000000000000
F0010000007365200003000089010952800042505000000000000000000201507170002001IND. LITOGRAF. BOSTON S.A.S.                      C000000002800000000000000000000000100010010000000000000000000000F0010000007365200320150717000101 00000000000000000000000000000000000000000000000000000000000000000000000000000000000000000000000000000000000000000N 00000000000NCONT   00    00000000000          00000000000000000000000000000000000000000000 000000000000000A000000000000000000000000000000000000000000000 000000000000000000000000000000000000000     00000000                                                                                                                        000000000000000000
F0010000007365200004000089010952800023658300000000000000000201507170002001IND. LITOGRAF. BOSTON S.A.S.                      C000000000159600000000000000000000100010010000000000000000000000F0010000007365200420150717000101 00000000000000000000000000000000000000000000000000000000000000000000000000000000000000000000000000000000000000000N 00000000000NCONT   00    00000000000          00000000000000000000000000000000000000000000 000000000000000A000000000000000000000000000000000000000000000 000000000000000000000000000000000000000     00000000                                                                                                                        000000000000000000
F0010000007365200005000089010952800013552100000000000000000201507170002001IND. LITOGRAF. BOSTON S.A.S.                      D000000000159600000000000000000000100010010000000000000000000000F0010000007365200520150717000101 00000000000000000000000000000000000000000000000000000000000000000000000000000000000000000000000000000000000000000N 00000000000NCONT   00    00000000000          00000000000000000000000000000000000000000000 000000000000000A000000000000000000000000000000000000000000000 000000000000000000000000000000000000000     00000000                                                                                                                        000000000000000000
F0010000007365300001000090007142100013050500000000000000000201507170002001TODO BELLEZA Y MAX S.A.S                          D000000032243700000000000000000000100010010000000000000000000000F0010000007365300120150717000101 00000000000000000000000000000000000000000000000000000000000000000000000000000000000000000000000000000000000000000N 00000000000NCONT   00    00000000000          00000000000000000000000000000000000000000000 000000000000000A000000000000000000000000000000000000000000000 000000000000000000000000000000000000000     00000000                                                                                                                        000000000000000000
F0010000007365300002000090007142100041450500000000000000000201507170002001TODO BELLEZA Y MAX S.A.S                          C000000031040000000000000000000000100010010000000000000000000000F0010000007365300220150717000101 00000000000000000000000000000000000000000000000000000000000000000000000000000000000000000000000000000000000000000N 00000000000NCONT   00    00000000000          00000000000000000000000000000000000000000000 000000000000000A000000000000000000000000000000000000000000000 000000000000000000000000000000000000000     00000000                                                                                                                        000000000000000000
F0010000007365300003000090007142100042505000000000000000000201507170002001TODO BELLEZA Y MAX S.A.S                          C000000001203700000000000000000000100010010000000000000000000000F0010000007365300320150717000101 00000000000000000000000000000000000000000000000000000000000000000000000000000000000000000000000000000000000000000N 00000000000NCONT   00    00000000000          00000000000000000000000000000000000000000000 000000000000000A000000000000000000000000000000000000000000000 000000000000000000000000000000000000000     00000000                                                                                                                        000000000000000000
F0010000007365300004000090007142100023658300000000000000000201507170002001TODO BELLEZA Y MAX S.A.S                          C000000000248300000000000000000000100010010000000000000000000000F0010000007365300420150717000101 00000000000000000000000000000000000000000000000000000000000000000000000000000000000000000000000000000000000000000N 00000000000NCONT   00    00000000000          00000000000000000000000000000000000000000000 000000000000000A000000000000000000000000000000000000000000000 000000000000000000000000000000000000000     00000000                                                                                                                        000000000000000000
F0010000007365300005000090007142100013552100000000000000000201507170002001TODO BELLEZA Y MAX S.A.S                          D000000000248300000000000000000000100010010000000000000000000000F0010000007365300520150717000101 00000000000000000000000000000000000000000000000000000000000000000000000000000000000000000000000000000000000000000N 00000000000NCONT   00    00000000000          00000000000000000000000000000000000000000000 000000000000000A000000000000000000000000000000000000000000000 000000000000000000000000000000000000000     00000000                                                                                                                        000000000000000000
F0010000007365400001000000744822500013050500000000000000000201507170002001LABORATORIO Y PERFUMERIA BORGE                    D000000022680000000000000000000000100010010000000000000000000000F0010000007365400120150717000101 00000000000000000000000000000000000000000000000000000000000000000000000000000000000000000000000000000000000000000N 00000000000NCONT   00    00000000000          00000000000000000000000000000000000000000000 000000000000000A000000000000000000000000000000000000000000000 000000000000000000000000000000000000000     00000000                                                                                                                        000000000000000000
F0010000007365400002000000744822500041450500000000000000000201507170002001LABORATORIO Y PERFUMERIA BORGE                    C000000017620000000000000000000000100010010000000000000000000000F0010000007365400220150717000101 00000000000000000000000000000000000000000000000000000000000000000000000000000000000000000000000000000000000000000N 00000000000NCONT   00    00000000000          00000000000000000000000000000000000000000000 000000000000000A000000000000000000000000000000000000000000000 000000000000000000000000000000000000000     00000000                                                                                                                        000000000000000000
F0010000007365400003000000744822500042505000000000000000000201507170002001LABORATORIO Y PERFUMERIA BORGE                    C000000005060000000000000000000000100010010000000000000000000000F0010000007365400320150717000101 00000000000000000000000000000000000000000000000000000000000000000000000000000000000000000000000000000000000000000N 00000000000NCONT   00    00000000000          00000000000000000000000000000000000000000000 000000000000000A000000000000000000000000000000000000000000000 000000000000000000000000000000000000000     00000000                                                                                                                        000000000000000000
F0010000007365400004000000744822500023658300000000000000000201507170002001LABORATORIO Y PERFUMERIA BORGE                    C000000000141000000000000000000000100010010000000000000000000000F0010000007365400420150717000101 00000000000000000000000000000000000000000000000000000000000000000000000000000000000000000000000000000000000000000N 00000000000NCONT   00    00000000000          00000000000000000000000000000000000000000000 000000000000000A000000000000000000000000000000000000000000000 000000000000000000000000000000000000000     00000000                                                                                                                        000000000000000000
F0010000007365400005000000744822500013552100000000000000000201507170002001LABORATORIO Y PERFUMERIA BORGE                    D000000000141000000000000000000000100010010000000000000000000000F0010000007365400520150717000101 00000000000000000000000000000000000000000000000000000000000000000000000000000000000000000000000000000000000000000N 00000000000NCONT   00    00000000000          00000000000000000000000000000000000000000000 000000000000000A000000000000000000000000000000000000000000000 000000000000000000000000000000000000000     00000000                                                                                                                        000000000000000000
F0010000007365500001000086003979400013050500000000000000000201507170002001CALYPSO BARRANQUILLA LTDA                         D000000019947000000000000000000000100010010000000000000000000000F0010000007365500120150717000101 00000000000000000000000000000000000000000000000000000000000000000000000000000000000000000000000000000000000000000N 00000000000NCONT   00    00000000000          00000000000000000000000000000000000000000000 000000000000000A000000000000000000000000000000000000000000000 000000000000000000000000000000000000000     00000000                                                                                                                        000000000000000000
F0010000007365500002000086003979400041450500000000000000000201507170002001CALYPSO BARRANQUILLA LTDA                         C000000017820000000000000000000000100010010000000000000000000000F0010000007365500220150717000101 00000000000000000000000000000000000000000000000000000000000000000000000000000000000000000000000000000000000000000N 00000000000NCONT   00    00000000000          00000000000000000000000000000000000000000000 000000000000000A000000000000000000000000000000000000000000000 000000000000000000000000000000000000000     00000000                                                                                                                        000000000000000000
F0010000007365500003000086003979400042505000000000000000000201507170002001CALYPSO BARRANQUILLA LTDA                         C000000002127000000000000000000000100010010000000000000000000000F0010000007365500320150717000101 00000000000000000000000000000000000000000000000000000000000000000000000000000000000000000000000000000000000000000N 00000000000NCONT   00    00000000000          00000000000000000000000000000000000000000000 000000000000000A000000000000000000000000000000000000000000000 000000000000000000000000000000000000000     00000000                                                                                                                        000000000000000000
F0010000007365500004000086003979400023658300000000000000000201507170002001CALYPSO BARRANQUILLA LTDA                         C000000000142600000000000000000000100010010000000000000000000000F0010000007365500420150717000101 00000000000000000000000000000000000000000000000000000000000000000000000000000000000000000000000000000000000000000N 00000000000NCONT   00    00000000000          00000000000000000000000000000000000000000000 000000000000000A000000000000000000000000000000000000000000000 000000000000000000000000000000000000000     00000000                                                                                                                        000000000000000000
F0010000007365500005000086003979400013552100000000000000000201507170002001CALYPSO BARRANQUILLA LTDA                         D000000000142600000000000000000000100010010000000000000000000000F0010000007365500520150717000101 00000000000000000000000000000000000000000000000000000000000000000000000000000000000000000000000000000000000000000N 00000000000NCONT   00    00000000000          00000000000000000000000000000000000000000000 000000000000000A000000000000000000000000000000000000000000000 000000000000000000000000000000000000000     00000000                                                                                                                        000000000000000000
F0010000007365600001000007215896800013050500000000000000000201507170002001EDDIER CIRO                                       D000000023674300000000000000000000100010010000000000000000000000F0010000007365600120150717000101 00000000000000000000000000000000000000000000000000000000000000000000000000000000000000000000000000000000000000000N 00000000000NCONT   00    00000000000          00000000000000000000000000000000000000000000 000000000000000A000000000000000000000000000000000000000000000 000000000000000000000000000000000000000     00000000                                                                                                                        000000000000000000
F0010000007365600002000007215896800041450500000000000000000201507170002001EDDIER CIRO                                       C000000019280000000000000000000000100010010000000000000000000000F0010000007365600220150717000101 00000000000000000000000000000000000000000000000000000000000000000000000000000000000000000000000000000000000000000N 00000000000NCONT   00    00000000000          00000000000000000000000000000000000000000000 000000000000000A000000000000000000000000000000000000000000000 000000000000000000000000000000000000000     00000000                                                                                                                        000000000000000000
F0010000007365600003000007215896800042505000000000000000000201507170002001EDDIER CIRO                                       C000000004394300000000000000000000100010010000000000000000000000F0010000007365600320150717000101 00000000000000000000000000000000000000000000000000000000000000000000000000000000000000000000000000000000000000000N 00000000000NCONT   00    00000000000          00000000000000000000000000000000000000000000 000000000000000A000000000000000000000000000000000000000000000 000000000000000000000000000000000000000     00000000                                                                                                                        000000000000000000
F0010000007365600004000007215896800023658300000000000000000201507170002001EDDIER CIRO                                       C000000000154200000000000000000000100010010000000000000000000000F0010000007365600420150717000101 00000000000000000000000000000000000000000000000000000000000000000000000000000000000000000000000000000000000000000N 00000000000NCONT   00    00000000000          00000000000000000000000000000000000000000000 000000000000000A000000000000000000000000000000000000000000000 000000000000000000000000000000000000000     00000000                                                                                                                        000000000000000000
F0010000007365600005000007215896800013552100000000000000000201507170002001EDDIER CIRO                                       D000000000154200000000000000000000100010010000000000000000000000F0010000007365600520150717000101 00000000000000000000000000000000000000000000000000000000000000000000000000000000000000000000000000000000000000000N 00000000000NCONT   00    00000000000          00000000000000000000000000000000000000000000 000000000000000A000000000000000000000000000000000000000000000 000000000000000000000000000000000000000     00000000                                                                                                                        000000000000000000
F0010000007365700001000089030195100013050500000000000000000201507170002001LIBRERIA NACIONAL S.A.                            D000000027730000000000000000000000100010010000000000000000000000F0010000007365700120150717000101 00000000000000000000000000000000000000000000000000000000000000000000000000000000000000000000000000000000000000000N 00000000000NCONT   00    00000000000          00000000000000000000000000000000000000000000 000000000000000A000000000000000000000000000000000000000000000 000000000000000000000000000000000000000     00000000                                                                                                                        000000000000000000
F0010000007365700002000089030195100041450500000000000000000201507170002001LIBRERIA NACIONAL S.A.                            C000000022230000000000000000000000100010010000000000000000000000F0010000007365700220150717000101 00000000000000000000000000000000000000000000000000000000000000000000000000000000000000000000000000000000000000000N 00000000000NCONT   00    00000000000          00000000000000000000000000000000000000000000 000000000000000A000000000000000000000000000000000000000000000 000000000000000000000000000000000000000     00000000                                                                                                                        000000000000000000
F0010000007365700003000089030195100042505000000000000000000201507170002001LIBRERIA NACIONAL S.A.                            C000000005500000000000000000000000100010010000000000000000000000F0010000007365700320150717000101 00000000000000000000000000000000000000000000000000000000000000000000000000000000000000000000000000000000000000000N 00000000000NCONT   00    00000000000          00000000000000000000000000000000000000000000 000000000000000A000000000000000000000000000000000000000000000 000000000000000000000000000000000000000     00000000                                                                                                                        000000000000000000
F0010000007365700004000089030195100023658300000000000000000201507170002001LIBRERIA NACIONAL S.A.                            C000000000177800000000000000000000100010010000000000000000000000F0010000007365700420150717000101 00000000000000000000000000000000000000000000000000000000000000000000000000000000000000000000000000000000000000000N 00000000000NCONT   00    00000000000          00000000000000000000000000000000000000000000 000000000000000A000000000000000000000000000000000000000000000 000000000000000000000000000000000000000     00000000                                                                                                                        000000000000000000
F0010000007365700005000089030195100013552100000000000000000201507170002001LIBRERIA NACIONAL S.A.                            D000000000177800000000000000000000100010010000000000000000000000F0010000007365700520150717000101 00000000000000000000000000000000000000000000000000000000000000000000000000000000000000000000000000000000000000000N 00000000000NCONT   00    00000000000          00000000000000000000000000000000000000000000 000000000000000A000000000000000000000000000000000000000000000 000000000000000000000000000000000000000     00000000                                                                                                                        000000000000000000
F0010000007365800001000089010272700013050500000000000000000201507170002001ALFONSOEME S.A.                                   D000000024487000000000000000000000100010010000000000000000000000F0010000007365800120150717000101 00000000000000000000000000000000000000000000000000000000000000000000000000000000000000000000000000000000000000000N 00000000000NCONT   00    00000000000          00000000000000000000000000000000000000000000 000000000000000A000000000000000000000000000000000000000000000 000000000000000000000000000000000000000     00000000                                                                                                                        000000000000000000
F0010000007365800002000089010272700041450500000000000000000201507170002001ALFONSOEME S.A.                                   C000000023830000000000000000000000100010010000000000000000000000F0010000007365800220150717000101 00000000000000000000000000000000000000000000000000000000000000000000000000000000000000000000000000000000000000000N 00000000000NCONT   00    00000000000          00000000000000000000000000000000000000000000 000000000000000A000000000000000000000000000000000000000000000 000000000000000000000000000000000000000     00000000                                                                                                                        000000000000000000
F0010000007365800003000089010272700041750100000000000000000201507170002001ALFONSOEME S.A.                                   D000000002383000000000000000000000100010010000000000000000000000F0010000007365800320150717000101 00000000000000000000000000000000000000000000000000000000000000000000000000000000000000000000000000000000000000000N 00000000000NCONT   00    00000000000          00000000000000000000000000000000000000000000 000000000000000A000000000000000000000000000000000000000000000 000000000000000000000000000000000000000     00000000                                                                                                                        000000000000000000
F0010000007365800004000089010272700042505000000000000000000201507170002001ALFONSOEME S.A.                                   C000000003040000000000000000000000100010010000000000000000000000F0010000007365800420150717000101 00000000000000000000000000000000000000000000000000000000000000000000000000000000000000000000000000000000000000000N 00000000000NCONT   00    00000000000          00000000000000000000000000000000000000000000 000000000000000A000000000000000000000000000000000000000000000 000000000000000000000000000000000000000     00000000                                                                                                                        000000000000000000
F0010000007365800005000089010272700023658300000000000000000201507170002001ALFONSOEME S.A.                                   C000000000190600000000000000000000100010010000000000000000000000F0010000007365800520150717000101 00000000000000000000000000000000000000000000000000000000000000000000000000000000000000000000000000000000000000000N 00000000000NCONT   00    00000000000          00000000000000000000000000000000000000000000 000000000000000A000000000000000000000000000000000000000000000 000000000000000000000000000000000000000     00000000                                                                                                                        000000000000000000
F0010000007365800006000089010272700013552100000000000000000201507170002001ALFONSOEME S.A.                                   D000000000190600000000000000000000100010010000000000000000000000F0010000007365800620150717000101 00000000000000000000000000000000000000000000000000000000000000000000000000000000000000000000000000000000000000000N 00000000000NCONT   00    00000000000          00000000000000000000000000000000000000000000 000000000000000A000000000000000000000000000000000000000000000 000000000000000000000000000000000000000     00000000                                                                                                                        000000000000000000
F0010000007365900001000089010260300013050500000000000000000201507170002001FEDERICO OSORIO A. S.A.                           D000000100579900000000000000000000100010010000000000000000000000F0010000007365900120150717000101 00000000000000000000000000000000000000000000000000000000000000000000000000000000000000000000000000000000000000000N 00000000000NCONT   00    00000000000          00000000000000000000000000000000000000000000 000000000000000A000000000000000000000000000000000000000000000 000000000000000000000000000000000000000     00000000                                                                                                                        000000000000000000
F0010000007365900002000089010260300041450500000000000000000201507170002001FEDERICO OSORIO A. S.A.                           C000000093890000000000000000000000100010010000000000000000000000F0010000007365900220150717000101 00000000000000000000000000000000000000000000000000000000000000000000000000000000000000000000000000000000000000000N 00000000000NCONT   00    00000000000          00000000000000000000000000000000000000000000 000000000000000A000000000000000000000000000000000000000000000 000000000000000000000000000000000000000     00000000                                                                                                                        000000000000000000
F0010000007365900003000089010260300042505000000000000000000201507170002001FEDERICO OSORIO A. S.A.                           C000000006689900000000000000000000100010010000000000000000000000F0010000007365900320150717000101 00000000000000000000000000000000000000000000000000000000000000000000000000000000000000000000000000000000000000000N 00000000000NCONT   00    00000000000          00000000000000000000000000000000000000000000 000000000000000A000000000000000000000000000000000000000000000 000000000000000000000000000000000000000     00000000                                                                                                                        000000000000000000
F0010000007365900004000089010260300023658300000000000000000201507170002001FEDERICO OSORIO A. S.A.                           C000000000751100000000000000000000100010010000000000000000000000F0010000007365900420150717000101 00000000000000000000000000000000000000000000000000000000000000000000000000000000000000000000000000000000000000000N 00000000000NCONT   00    00000000000          00000000000000000000000000000000000000000000 000000000000000A000000000000000000000000000000000000000000000 000000000000000000000000000000000000000     00000000                                                                                                                        000000000000000000
F0010000007365900005000089010260300013552100000000000000000201507170002001FEDERICO OSORIO A. S.A.                           D000000000751100000000000000000000100010010000000000000000000000F0010000007365900520150717000101 00000000000000000000000000000000000000000000000000000000000000000000000000000000000000000000000000000000000000000N 00000000000NCONT   00    00000000000          00000000000000000000000000000000000000000000 000000000000000A000000000000000000000000000000000000000000000 000000000000000000000000000000000000000     00000000                                                                                                                        000000000000000000
F0010000007366000001000080004943800013050500000000000000000201507170002001PAPELERIA EL CID S.A.                             D000000074065000000000000000000000100010010000000000000000000000F0010000007366000120150717000101 00000000000000000000000000000000000000000000000000000000000000000000000000000000000000000000000000000000000000000N 00000000000NCONT   00    00000000000          00000000000000000000000000000000000000000000 000000000000000A000000000000000000000000000000000000000000000 000000000000000000000000000000000000000     00000000                                                                                                                        000000000000000000
F0010000007366000002000080004943800041450500000000000000000201507170002001PAPELERIA EL CID S.A.                             C000000058900000000000000000000000100010010000000000000000000000F0010000007366000220150717000101 00000000000000000000000000000000000000000000000000000000000000000000000000000000000000000000000000000000000000000N 00000000000NCONT   00    00000000000          00000000000000000000000000000000000000000000 000000000000000A000000000000000000000000000000000000000000000 000000000000000000000000000000000000000     00000000                                                                                                                        000000000000000000
F0010000007366000003000080004943800042505000000000000000000201507170002001PAPELERIA EL CID S.A.                             C000000015165000000000000000000000100010010000000000000000000000F0010000007366000320150717000101 00000000000000000000000000000000000000000000000000000000000000000000000000000000000000000000000000000000000000000N 00000000000NCONT   00    00000000000          00000000000000000000000000000000000000000000 000000000000000A000000000000000000000000000000000000000000000 000000000000000000000000000000000000000     00000000                                                                                                                        000000000000000000
F0010000007366000004000080004943800023658300000000000000000201507170002001PAPELERIA EL CID S.A.                             C000000000471200000000000000000000100010010000000000000000000000F0010000007366000420150717000101 00000000000000000000000000000000000000000000000000000000000000000000000000000000000000000000000000000000000000000N 00000000000NCONT   00    00000000000          00000000000000000000000000000000000000000000 000000000000000A000000000000000000000000000000000000000000000 000000000000000000000000000000000000000     00000000                                                                                                                        000000000000000000
F0010000007366000005000080004943800013552100000000000000000201507170002001PAPELERIA EL CID S.A.                             D000000000471200000000000000000000100010010000000000000000000000F0010000007366000520150717000101 00000000000000000000000000000000000000000000000000000000000000000000000000000000000000000000000000000000000000000N 00000000000NCONT   00    00000000000          00000000000000000000000000000000000000000000 000000000000000A000000000000000000000000000000000000000000000 000000000000000000000000000000000000000     00000000                                                                                                                        000000000000000000
F0010000007366100001000080004943800013050500000000000000000201507170002001PAPELERIA EL CID S.A.                             D000000001245000000000000000000000100010010000000000000000000000F0010000007366100120150717000101 00000000000000000000000000000000000000000000000000000000000000000000000000000000000000000000000000000000000000000N 00000000000NCONT   00    00000000000          00000000000000000000000000000000000000000000 000000000000000A000000000000000000000000000000000000000000000 000000000000000000000000000000000000000     00000000                                                                                                                        000000000000000000
F0010000007366100002000080004943800041450500000000000000000201507170002001PAPELERIA EL CID S.A.                             C000000001050000000000000000000000100010010000000000000000000000F0010000007366100220150717000101 00000000000000000000000000000000000000000000000000000000000000000000000000000000000000000000000000000000000000000N 00000000000NCONT   00    00000000000          00000000000000000000000000000000000000000000 000000000000000A000000000000000000000000000000000000000000000 000000000000000000000000000000000000000     00000000                                                                                                                        000000000000000000
F0010000007366100003000080004943800042505000000000000000000201507170002001PAPELERIA EL CID S.A.                             C000000000195000000000000000000000100010010000000000000000000000F0010000007366100320150717000101 00000000000000000000000000000000000000000000000000000000000000000000000000000000000000000000000000000000000000000N 00000000000NCONT   00    00000000000          00000000000000000000000000000000000000000000 000000000000000A000000000000000000000000000000000000000000000 000000000000000000000000000000000000000     00000000                                                                                                                        000000000000000000
F0010000007366100004000080004943800023658300000000000000000201507170002001PAPELERIA EL CID S.A.                             C000000000008400000000000000000000100010010000000000000000000000F0010000007366100420150717000101 00000000000000000000000000000000000000000000000000000000000000000000000000000000000000000000000000000000000000000N 00000000000NCONT   00    00000000000          00000000000000000000000000000000000000000000 000000000000000A000000000000000000000000000000000000000000000 000000000000000000000000000000000000000     00000000                                                                                                                        000000000000000000
F0010000007366100005000080004943800013552100000000000000000201507170002001PAPELERIA EL CID S.A.                             D000000000008400000000000000000000100010010000000000000000000000F0010000007366100520150717000101 00000000000000000000000000000000000000000000000000000000000000000000000000000000000000000000000000000000000000000N 00000000000NCONT   00    00000000000          00000000000000000000000000000000000000000000 000000000000000A000000000000000000000000000000000000000000000 000000000000000000000000000000000000000     00000000                                                                                                                        000000000000000000
F0010000007366200001000080202094000013050500000000000000000201507170002001DISTRIB. OMAR ORREGO S.A.                         D000000044626600000000000000000000100010010000000000000000000000F0010000007366200120150717000101 00000000000000000000000000000000000000000000000000000000000000000000000000000000000000000000000000000000000000000N 00000000000NCONT   00    00000000000          00000000000000000000000000000000000000000000 000000000000000A000000000000000000000000000000000000000000000 000000000000000000000000000000000000000     00000000                                                                                                                        000000000000000000
F0010000007366200002000080202094000041450500000000000000000201507170002001DISTRIB. OMAR ORREGO S.A.                         C000000023770000000000000000000000100010010000000000000000000000F0010000007366200220150717000101 00000000000000000000000000000000000000000000000000000000000000000000000000000000000000000000000000000000000000000N 00000000000NCONT   00    00000000000          00000000000000000000000000000000000000000000 000000000000000A000000000000000000000000000000000000000000000 000000000000000000000000000000000000000     00000000                                                                                                                        000000000000000000
F0010000007366200003000080202094000042505000000000000000000201507170002001DISTRIB. OMAR ORREGO S.A.                         C000000020856600000000000000000000100010010000000000000000000000F0010000007366200320150717000101 00000000000000000000000000000000000000000000000000000000000000000000000000000000000000000000000000000000000000000N 00000000000NCONT   00    00000000000          00000000000000000000000000000000000000000000 000000000000000A000000000000000000000000000000000000000000000 000000000000000000000000000000000000000     00000000                                                                                                                        000000000000000000
F0010000007366200004000080202094000023658300000000000000000201507170002001DISTRIB. OMAR ORREGO S.A.                         C000000000190200000000000000000000100010010000000000000000000000F0010000007366200420150717000101 00000000000000000000000000000000000000000000000000000000000000000000000000000000000000000000000000000000000000000N 00000000000NCONT   00    00000000000          00000000000000000000000000000000000000000000 000000000000000A000000000000000000000000000000000000000000000 000000000000000000000000000000000000000     00000000                                                                                                                        000000000000000000
F0010000007366200005000080202094000013552100000000000000000201507170002001DISTRIB. OMAR ORREGO S.A.                         D000000000190200000000000000000000100010010000000000000000000000F0010000007366200520150717000101 00000000000000000000000000000000000000000000000000000000000000000000000000000000000000000000000000000000000000000N 00000000000NCONT   00    00000000000          00000000000000000000000000000000000000000000 000000000000000A000000000000000000000000000000000000000000000 000000000000000000000000000000000000000     00000000                                                                                                                        000000000000000000
F0010000007366300001000090073498600011050500000000000000000201507170002001VALTAC S.A.S                                      D000000001000000000000000000000000100010010000000000000000000000F0010000007366300120150717000101 00000000000000000000000000000000000000000000000000000000000000000000000000000000000000000000000000000000000000000N 00000000000NCONT   00    00000000000          00000000000000000000000000000000000000000000 000000000000000A000000000000000000000000000000000000000000000 000000000000000000000000000000000000000     00000000                                                                                                                        000000000000000000
F0010000007366300002000090073498600041450500000000000000000201507170002001VALTAC S.A.S                                      C000000000900000000000000000000000100010010000000000000000000000F0010000007366300220150717000101 00000000000000000000000000000000000000000000000000000000000000000000000000000000000000000000000000000000000000000N 00000000000NCONT   00    00000000000          00000000000000000000000000000000000000000000 000000000000000A000000000000000000000000000000000000000000000 000000000000000000000000000000000000000     00000000                                                                                                                        000000000000000000
F0010000007366300003000090073498600042505000000000000000000201507170002001VALTAC S.A.S                                      C000000000100000000000000000000000100010010000000000000000000000F0010000007366300320150717000101 00000000000000000000000000000000000000000000000000000000000000000000000000000000000000000000000000000000000000000N 00000000000NCONT   00    00000000000          00000000000000000000000000000000000000000000 000000000000000A000000000000000000000000000000000000000000000 000000000000000000000000000000000000000     00000000                                                                                                                        000000000000000000
F0010000007366300004000090073498600023658300000000000000000201507170002001VALTAC S.A.S                                      C000000000007200000000000000000000100010010000000000000000000000F0010000007366300420150717000101 00000000000000000000000000000000000000000000000000000000000000000000000000000000000000000000000000000000000000000N 00000000000NCONT   00    00000000000          00000000000000000000000000000000000000000000 000000000000000A000000000000000000000000000000000000000000000 000000000000000000000000000000000000000     00000000                                                                                                                        000000000000000000
F0010000007366300005000090073498600013552100000000000000000201507170002001VALTAC S.A.S                                      D000000000007200000000000000000000100010010000000000000000000000F0010000007366300520150717000101 00000000000000000000000000000000000000000000000000000000000000000000000000000000000000000000000000000000000000000N 00000000000NCONT   00    00000000000          00000000000000000000000000000000000000000000 000000000000000A000000000000000000000000000000000000000000000 000000000000000000000000000000000000000     00000000                                                                                                                        000000000000000000
F0010000007366400001000080202094000013050500000000000000000201507170002001DISTRIB. OMAR ORREGO S.A.                         D000000008508900000000000000000000100010010000000000000000000000F0010000007366400120150717000101 00000000000000000000000000000000000000000000000000000000000000000000000000000000000000000000000000000000000000000N 00000000000NCONT   00    00000000000          00000000000000000000000000000000000000000000 000000000000000A000000000000000000000000000000000000000000000 000000000000000000000000000000000000000     00000000                                                                                                                        000000000000000000
F0010000007366400002000080202094000041450500000000000000000201507170002001DISTRIB. OMAR ORREGO S.A.                         C000000005710000000000000000000000100010010000000000000000000000F0010000007366400220150717000101 00000000000000000000000000000000000000000000000000000000000000000000000000000000000000000000000000000000000000000N 00000000000NCONT   00    00000000000          00000000000000000000000000000000000000000000 000000000000000A000000000000000000000000000000000000000000000 000000000000000000000000000000000000000     00000000                                                                                                                        000000000000000000
F0010000007366400003000080202094000042505000000000000000000201507170002001DISTRIB. OMAR ORREGO S.A.                         C000000002798900000000000000000000100010010000000000000000000000F0010000007366400320150717000101 00000000000000000000000000000000000000000000000000000000000000000000000000000000000000000000000000000000000000000N 00000000000NCONT   00    00000000000          00000000000000000000000000000000000000000000 000000000000000A000000000000000000000000000000000000000000000 000000000000000000000000000000000000000     00000000                                                                                                                        000000000000000000
F0010000007366400004000080202094000023658300000000000000000201507170002001DISTRIB. OMAR ORREGO S.A.                         C000000000045700000000000000000000100010010000000000000000000000F0010000007366400420150717000101 00000000000000000000000000000000000000000000000000000000000000000000000000000000000000000000000000000000000000000N 00000000000NCONT   00    00000000000          00000000000000000000000000000000000000000000 000000000000000A000000000000000000000000000000000000000000000 000000000000000000000000000000000000000     00000000                                                                                                                        000000000000000000
F0010000007366400005000080202094000013552100000000000000000201507170002001DISTRIB. OMAR ORREGO S.A.                         D000000000045700000000000000000000100010010000000000000000000000F0010000007366400520150717000101 00000000000000000000000000000000000000000000000000000000000000000000000000000000000000000000000000000000000000000N 00000000000NCONT   00    00000000000          00000000000000000000000000000000000000000000 000000000000000A000000000000000000000000000000000000000000000 000000000000000000000000000000000000000     00000000                                                                                                                        000000000000000000
F0010000007366500001000080201112800013050500000000000000000201507170002001CANGURO INTERNATIONAL S.A.                        D000000113443700000000000000000000100010010000000000000000000000F0010000007366500120150717000101 00000000000000000000000000000000000000000000000000000000000000000000000000000000000000000000000000000000000000000N 00000000000NCONT   00    00000000000          00000000000000000000000000000000000000000000 000000000000000A000000000000000000000000000000000000000000000 000000000000000000000000000000000000000     00000000                                                                                                                        000000000000000000
F0010000007366500002000080201112800041450500000000000000000201507170002001CANGURO INTERNATIONAL S.A.                        C000000113443700000000000000000000100010010000000000000000000000F0010000007366500220150717000101 00000000000000000000000000000000000000000000000000000000000000000000000000000000000000000000000000000000000000000N 00000000000NCONT   00    00000000000          00000000000000000000000000000000000000000000 000000000000000A000000000000000000000000000000000000000000000 000000000000000000000000000000000000000     00000000                                                                                                                        000000000000000000
F0010000007366500003000080201112800042505000000000000000000201507170002001CANGURO INTERNATIONAL S.A.                        C000000000000000000000000000000000100010010000000000000000000000F0010000007366500320150717000101 00000000000000000000000000000000000000000000000000000000000000000000000000000000000000000000000000000000000000000N 00000000000NCONT   00    00000000000          00000000000000000000000000000000000000000000 000000000000000A000000000000000000000000000000000000000000000 000000000000000000000000000000000000000     00000000                                                                                                                        000000000000000000
F0010000007366500004000080201112800023658300000000000000000201507170002001CANGURO INTERNATIONAL S.A.                        C000000000907500000000000000000000100010010000000000000000000000F0010000007366500420150717000101 00000000000000000000000000000000000000000000000000000000000000000000000000000000000000000000000000000000000000000N 00000000000NCONT   00    00000000000          00000000000000000000000000000000000000000000 000000000000000A000000000000000000000000000000000000000000000 000000000000000000000000000000000000000     00000000                                                                                                                        000000000000000000
F0010000007366500005000080201112800013552100000000000000000201507170002001CANGURO INTERNATIONAL S.A.                        D000000000907500000000000000000000100010010000000000000000000000F0010000007366500520150717000101 00000000000000000000000000000000000000000000000000000000000000000000000000000000000000000000000000000000000000000N 00000000000NCONT   00    00000000000          00000000000000000000000000000000000000000000 000000000000000A000000000000000000000000000000000000000000000 000000000000000000000000000000000000000     00000000                                                                                                                        000000000000000000
F0010000007366600001000080201112800013050500000000000000000201507170002001CANGURO INTERNATIONAL S.A.                        D000000039285600000000000000000000100010010000000000000000000000F0010000007366600120150717000101 00000000000000000000000000000000000000000000000000000000000000000000000000000000000000000000000000000000000000000N 00000000000NCONT   00    00000000000          00000000000000000000000000000000000000000000 000000000000000A000000000000000000000000000000000000000000000 000000000000000000000000000000000000000     00000000                                                                                                                        000000000000000000
F0010000007366600002000080201112800041450500000000000000000201507170002001CANGURO INTERNATIONAL S.A.                        C000000039285600000000000000000000100010010000000000000000000000F0010000007366600220150717000101 00000000000000000000000000000000000000000000000000000000000000000000000000000000000000000000000000000000000000000N 00000000000NCONT   00    00000000000          00000000000000000000000000000000000000000000 000000000000000A000000000000000000000000000000000000000000000 000000000000000000000000000000000000000     00000000                                                                                                                        000000000000000000
F0010000007366600003000080201112800042505000000000000000000201507170002001CANGURO INTERNATIONAL S.A.                        C000000000000000000000000000000000100010010000000000000000000000F0010000007366600320150717000101 00000000000000000000000000000000000000000000000000000000000000000000000000000000000000000000000000000000000000000N 00000000000NCONT   00    00000000000          00000000000000000000000000000000000000000000 000000000000000A000000000000000000000000000000000000000000000 000000000000000000000000000000000000000     00000000                                                                                                                        000000000000000000
F0010000007366600004000080201112800023658300000000000000000201507170002001CANGURO INTERNATIONAL S.A.                        C000000000314300000000000000000000100010010000000000000000000000F0010000007366600420150717000101 00000000000000000000000000000000000000000000000000000000000000000000000000000000000000000000000000000000000000000N 00000000000NCONT   00    00000000000          00000000000000000000000000000000000000000000 000000000000000A000000000000000000000000000000000000000000000 000000000000000000000000000000000000000     00000000                                                                                                                        000000000000000000
