F0010000006801300001000003265780700011050500000000000000000201502100002001ZUNILDA GUERRERO                                  D000000001200000000000000000000000100010010000000000000000000000F0010000006801300120150210000101 00000000000000000000000000000000000000000000000000000000000000000000000000000000000000000000000000000000000000000N 00000000000NCONT   00    00000000000          00000000000000000000000000000000000000000000 000000000000000A000000000000000000000000000000000000000000000 000000000000000000000000000000000000000     00000000                                                                                                                        000000000000000000
F0010000006801300002000003265780700041450500000000000000000201502100002001ZUNILDA GUERRERO                                  C000000000900000000000000000000000100010010000000000000000000000F0010000006801300220150210000101 00000000000000000000000000000000000000000000000000000000000000000000000000000000000000000000000000000000000000000N 00000000000NCONT   00    00000000000          00000000000000000000000000000000000000000000 000000000000000A000000000000000000000000000000000000000000000 000000000000000000000000000000000000000     00000000                                                                                                                        000000000000000000
F0010000006801300003000003265780700042505000000000000000000201502100002001ZUNILDA GUERRERO                                  C000000000300000000000000000000000100010010000000000000000000000F0010000006801300320150210000101 00000000000000000000000000000000000000000000000000000000000000000000000000000000000000000000000000000000000000000N 00000000000NCONT   00    00000000000          00000000000000000000000000000000000000000000 000000000000000A000000000000000000000000000000000000000000000 000000000000000000000000000000000000000     00000000                                                                                                                        000000000000000000
F0010000006801300004000003265780700023658300000000000000000201502100002001ZUNILDA GUERRERO                                  C000000000007200000000000000000000100010010000000000000000000000F0010000006801300420150210000101 00000000000000000000000000000000000000000000000000000000000000000000000000000000000000000000000000000000000000000N 00000000000NCONT   00    00000000000          00000000000000000000000000000000000000000000 000000000000000A000000000000000000000000000000000000000000000 000000000000000000000000000000000000000     00000000                                                                                                                        000000000000000000
F0010000006801300005000003265780700013552100000000000000000201502100002001ZUNILDA GUERRERO                                  D000000000007200000000000000000000100010010000000000000000000000F0010000006801300520150210000101 00000000000000000000000000000000000000000000000000000000000000000000000000000000000000000000000000000000000000000N 00000000000NCONT   00    00000000000          00000000000000000000000000000000000000000000 000000000000000A000000000000000000000000000000000000000000000 000000000000000000000000000000000000000     00000000                                                                                                                        000000000000000000
F0010000006801400001000003265780700011050500000000000000000201502100002001ZUNILDA GUERRERO                                  D000000001500000000000000000000000100010010000000000000000000000F0010000006801400120150210000101 00000000000000000000000000000000000000000000000000000000000000000000000000000000000000000000000000000000000000000N 00000000000NCONT   00    00000000000          00000000000000000000000000000000000000000000 000000000000000A000000000000000000000000000000000000000000000 000000000000000000000000000000000000000     00000000                                                                                                                        000000000000000000
F0010000006801400002000003265780700041450500000000000000000201502100002001ZUNILDA GUERRERO                                  C000000001200000000000000000000000100010010000000000000000000000F0010000006801400220150210000101 00000000000000000000000000000000000000000000000000000000000000000000000000000000000000000000000000000000000000000N 00000000000NCONT   00    00000000000          00000000000000000000000000000000000000000000 000000000000000A000000000000000000000000000000000000000000000 000000000000000000000000000000000000000     00000000                                                                                                                        000000000000000000
F0010000006801400003000003265780700042505000000000000000000201502100002001ZUNILDA GUERRERO                                  C000000000300000000000000000000000100010010000000000000000000000F0010000006801400320150210000101 00000000000000000000000000000000000000000000000000000000000000000000000000000000000000000000000000000000000000000N 00000000000NCONT   00    00000000000          00000000000000000000000000000000000000000000 000000000000000A000000000000000000000000000000000000000000000 000000000000000000000000000000000000000     00000000                                                                                                                        000000000000000000
F0010000006801400004000003265780700023658300000000000000000201502100002001ZUNILDA GUERRERO                                  C000000000009600000000000000000000100010010000000000000000000000F0010000006801400420150210000101 00000000000000000000000000000000000000000000000000000000000000000000000000000000000000000000000000000000000000000N 00000000000NCONT   00    00000000000          00000000000000000000000000000000000000000000 000000000000000A000000000000000000000000000000000000000000000 000000000000000000000000000000000000000     00000000                                                                                                                        000000000000000000
F0010000006801400005000003265780700013552100000000000000000201502100002001ZUNILDA GUERRERO                                  D000000000009600000000000000000000100010010000000000000000000000F0010000006801400520150210000101 00000000000000000000000000000000000000000000000000000000000000000000000000000000000000000000000000000000000000000N 00000000000NCONT   00    00000000000          00000000000000000000000000000000000000000000 000000000000000A000000000000000000000000000000000000000000000 000000000000000000000000000000000000000     00000000                                                                                                                        000000000000000000
F0010000006801500001000080004943800013050500000000000000000201502100002001PAPELERIA EL CID S.A.                             D000000023822500000000000000000000100010010000000000000000000000F0010000006801500120150210000101 00000000000000000000000000000000000000000000000000000000000000000000000000000000000000000000000000000000000000000N 00000000000NCONT   00    00000000000          00000000000000000000000000000000000000000000 000000000000000A000000000000000000000000000000000000000000000 000000000000000000000000000000000000000     00000000                                                                                                                        000000000000000000
F0010000006801500002000080004943800041450500000000000000000201502100002001PAPELERIA EL CID S.A.                             C000000021840000000000000000000000100010010000000000000000000000F0010000006801500220150210000101 00000000000000000000000000000000000000000000000000000000000000000000000000000000000000000000000000000000000000000N 00000000000NCONT   00    00000000000          00000000000000000000000000000000000000000000 000000000000000A000000000000000000000000000000000000000000000 000000000000000000000000000000000000000     00000000                                                                                                                        000000000000000000
F0010000006801500003000080004943800042505000000000000000000201502100002001PAPELERIA EL CID S.A.                             C000000001982500000000000000000000100010010000000000000000000000F0010000006801500320150210000101 00000000000000000000000000000000000000000000000000000000000000000000000000000000000000000000000000000000000000000N 00000000000NCONT   00    00000000000          00000000000000000000000000000000000000000000 000000000000000A000000000000000000000000000000000000000000000 000000000000000000000000000000000000000     00000000                                                                                                                        000000000000000000
F0010000006801500004000080004943800023658300000000000000000201502100002001PAPELERIA EL CID S.A.                             C000000000174700000000000000000000100010010000000000000000000000F0010000006801500420150210000101 00000000000000000000000000000000000000000000000000000000000000000000000000000000000000000000000000000000000000000N 00000000000NCONT   00    00000000000          00000000000000000000000000000000000000000000 000000000000000A000000000000000000000000000000000000000000000 000000000000000000000000000000000000000     00000000                                                                                                                        000000000000000000
F0010000006801500005000080004943800013552100000000000000000201502100002001PAPELERIA EL CID S.A.                             D000000000174700000000000000000000100010010000000000000000000000F0010000006801500520150210000101 00000000000000000000000000000000000000000000000000000000000000000000000000000000000000000000000000000000000000000N 00000000000NCONT   00    00000000000          00000000000000000000000000000000000000000000 000000000000000A000000000000000000000000000000000000000000000 000000000000000000000000000000000000000     00000000                                                                                                                        000000000000000000
F0010000006801600001000080200863700013050500000000000000000201502100002001COPIN LTDA                                        D000000056792700000000000000000000100010010000000000000000000000F0010000006801600120150210000101 00000000000000000000000000000000000000000000000000000000000000000000000000000000000000000000000000000000000000000N 00000000000NCONT   00    00000000000          00000000000000000000000000000000000000000000 000000000000000A000000000000000000000000000000000000000000000 000000000000000000000000000000000000000     00000000                                                                                                                        000000000000000000
F0010000006801600002000080200863700041450500000000000000000201502100002001COPIN LTDA                                        C000000050660000000000000000000000100010010000000000000000000000F0010000006801600220150210000101 00000000000000000000000000000000000000000000000000000000000000000000000000000000000000000000000000000000000000000N 00000000000NCONT   00    00000000000          00000000000000000000000000000000000000000000 000000000000000A000000000000000000000000000000000000000000000 000000000000000000000000000000000000000     00000000                                                                                                                        000000000000000000
F0010000006801600003000080200863700042505000000000000000000201502100002001COPIN LTDA                                        C000000006132700000000000000000000100010010000000000000000000000F0010000006801600320150210000101 00000000000000000000000000000000000000000000000000000000000000000000000000000000000000000000000000000000000000000N 00000000000NCONT   00    00000000000          00000000000000000000000000000000000000000000 000000000000000A000000000000000000000000000000000000000000000 000000000000000000000000000000000000000     00000000                                                                                                                        000000000000000000
F0010000006801600004000080200863700023658300000000000000000201502100002001COPIN LTDA                                        C000000000405300000000000000000000100010010000000000000000000000F0010000006801600420150210000101 00000000000000000000000000000000000000000000000000000000000000000000000000000000000000000000000000000000000000000N 00000000000NCONT   00    00000000000          00000000000000000000000000000000000000000000 000000000000000A000000000000000000000000000000000000000000000 000000000000000000000000000000000000000     00000000                                                                                                                        000000000000000000
F0010000006801600005000080200863700013552100000000000000000201502100002001COPIN LTDA                                        D000000000405300000000000000000000100010010000000000000000000000F0010000006801600520150210000101 00000000000000000000000000000000000000000000000000000000000000000000000000000000000000000000000000000000000000000N 00000000000NCONT   00    00000000000          00000000000000000000000000000000000000000000 000000000000000A000000000000000000000000000000000000000000000 000000000000000000000000000000000000000     00000000                                                                                                                        000000000000000000
F0010000006801700001000080014190300013050500000000000000000201502100002001QUIMINSA LTDA                                     D000000008309000000000000000000000100010010000000000000000000000F0010000006801700120150210000101 00000000000000000000000000000000000000000000000000000000000000000000000000000000000000000000000000000000000000000N 00000000000NCONT   00    00000000000          00000000000000000000000000000000000000000000 000000000000000A000000000000000000000000000000000000000000000 000000000000000000000000000000000000000     00000000                                                                                                                        000000000000000000
F0010000006801700002000080014190300041450500000000000000000201502100002001QUIMINSA LTDA                                     C000000007700000000000000000000000100010010000000000000000000000F0010000006801700220150210000101 00000000000000000000000000000000000000000000000000000000000000000000000000000000000000000000000000000000000000000N 00000000000NCONT   00    00000000000          00000000000000000000000000000000000000000000 000000000000000A000000000000000000000000000000000000000000000 000000000000000000000000000000000000000     00000000                                                                                                                        000000000000000000
F0010000006801700003000080014190300042505000000000000000000201502100002001QUIMINSA LTDA                                     C000000000609000000000000000000000100010010000000000000000000000F0010000006801700320150210000101 00000000000000000000000000000000000000000000000000000000000000000000000000000000000000000000000000000000000000000N 00000000000NCONT   00    00000000000          00000000000000000000000000000000000000000000 000000000000000A000000000000000000000000000000000000000000000 000000000000000000000000000000000000000     00000000                                                                                                                        000000000000000000
F0010000006801700004000080014190300023658300000000000000000201502100002001QUIMINSA LTDA                                     C000000000061600000000000000000000100010010000000000000000000000F0010000006801700420150210000101 00000000000000000000000000000000000000000000000000000000000000000000000000000000000000000000000000000000000000000N 00000000000NCONT   00    00000000000          00000000000000000000000000000000000000000000 000000000000000A000000000000000000000000000000000000000000000 000000000000000000000000000000000000000     00000000                                                                                                                        000000000000000000
F0010000006801700005000080014190300013552100000000000000000201502100002001QUIMINSA LTDA                                     D000000000061600000000000000000000100010010000000000000000000000F0010000006801700520150210000101 00000000000000000000000000000000000000000000000000000000000000000000000000000000000000000000000000000000000000000N 00000000000NCONT   00    00000000000          00000000000000000000000000000000000000000000 000000000000000A000000000000000000000000000000000000000000000 000000000000000000000000000000000000000     00000000                                                                                                                        000000000000000000
F0010000006801800001000080018525700013050500000000000000000201502100002001SUMINISTROS Y ACABADOS LTDA                       D000000014256600000000000000000000100010010000000000000000000000F0010000006801800120150210000101 00000000000000000000000000000000000000000000000000000000000000000000000000000000000000000000000000000000000000000N 00000000000NCONT   00    00000000000          00000000000000000000000000000000000000000000 000000000000000A000000000000000000000000000000000000000000000 000000000000000000000000000000000000000     00000000                                                                                                                        000000000000000000
F0010000006801800002000080018525700041450500000000000000000201502100002001SUMINISTROS Y ACABADOS LTDA                       C000000012012000000000000000000000100010010000000000000000000000F0010000006801800220150210000101 00000000000000000000000000000000000000000000000000000000000000000000000000000000000000000000000000000000000000000N 00000000000NCONT   00    00000000000          00000000000000000000000000000000000000000000 000000000000000A000000000000000000000000000000000000000000000 000000000000000000000000000000000000000     00000000                                                                                                                        000000000000000000
F0010000006801800003000080018525700042505000000000000000000201502100002001SUMINISTROS Y ACABADOS LTDA                       C000000002244600000000000000000000100010010000000000000000000000F0010000006801800320150210000101 00000000000000000000000000000000000000000000000000000000000000000000000000000000000000000000000000000000000000000N 00000000000NCONT   00    00000000000          00000000000000000000000000000000000000000000 000000000000000A000000000000000000000000000000000000000000000 000000000000000000000000000000000000000     00000000                                                                                                                        000000000000000000
F0010000006801800004000080018525700023658300000000000000000201502100002001SUMINISTROS Y ACABADOS LTDA                       C000000000096100000000000000000000100010010000000000000000000000F0010000006801800420150210000101 00000000000000000000000000000000000000000000000000000000000000000000000000000000000000000000000000000000000000000N 00000000000NCONT   00    00000000000          00000000000000000000000000000000000000000000 000000000000000A000000000000000000000000000000000000000000000 000000000000000000000000000000000000000     00000000                                                                                                                        000000000000000000
F0010000006801800005000080018525700013552100000000000000000201502100002001SUMINISTROS Y ACABADOS LTDA                       D000000000096100000000000000000000100010010000000000000000000000F0010000006801800520150210000101 00000000000000000000000000000000000000000000000000000000000000000000000000000000000000000000000000000000000000000N 00000000000NCONT   00    00000000000          00000000000000000000000000000000000000000000 000000000000000A000000000000000000000000000000000000000000000 000000000000000000000000000000000000000     00000000                                                                                                                        000000000000000000
F0010000006801900001000090008711200013050500000000000000000201502100002001PACKAGING SUPPLIERS S.A.                          D000000030840800000000000000000000100010010000000000000000000000F0010000006801900120150210000101 00000000000000000000000000000000000000000000000000000000000000000000000000000000000000000000000000000000000000000N 00000000000NCONT   00    00000000000          00000000000000000000000000000000000000000000 000000000000000A000000000000000000000000000000000000000000000 000000000000000000000000000000000000000     00000000                                                                                                                        000000000000000000
F0010000006801900002000090008711200041450500000000000000000201502100002001PACKAGING SUPPLIERS S.A.                          C000000028149600000000000000000000100010010000000000000000000000F0010000006801900220150210000101 00000000000000000000000000000000000000000000000000000000000000000000000000000000000000000000000000000000000000000N 00000000000NCONT   00    00000000000          00000000000000000000000000000000000000000000 000000000000000A000000000000000000000000000000000000000000000 000000000000000000000000000000000000000     00000000                                                                                                                        000000000000000000
F0010000006801900003000090008711200042505000000000000000000201502100002001PACKAGING SUPPLIERS S.A.                          C000000002691200000000000000000000100010010000000000000000000000F0010000006801900320150210000101 00000000000000000000000000000000000000000000000000000000000000000000000000000000000000000000000000000000000000000N 00000000000NCONT   00    00000000000          00000000000000000000000000000000000000000000 000000000000000A000000000000000000000000000000000000000000000 000000000000000000000000000000000000000     00000000                                                                                                                        000000000000000000
F0010000006801900004000090008711200023658300000000000000000201502100002001PACKAGING SUPPLIERS S.A.                          C000000000225200000000000000000000100010010000000000000000000000F0010000006801900420150210000101 00000000000000000000000000000000000000000000000000000000000000000000000000000000000000000000000000000000000000000N 00000000000NCONT   00    00000000000          00000000000000000000000000000000000000000000 000000000000000A000000000000000000000000000000000000000000000 000000000000000000000000000000000000000     00000000                                                                                                                        000000000000000000
F0010000006801900005000090008711200013552100000000000000000201502100002001PACKAGING SUPPLIERS S.A.                          D000000000225200000000000000000000100010010000000000000000000000F0010000006801900520150210000101 00000000000000000000000000000000000000000000000000000000000000000000000000000000000000000000000000000000000000000N 00000000000NCONT   00    00000000000          00000000000000000000000000000000000000000000 000000000000000A000000000000000000000000000000000000000000000 000000000000000000000000000000000000000     00000000                                                                                                                        000000000000000000
F0010000006802000001000090050863700013050500000000000000000201502100002001COMERCIALIZADORA PERFECT SAS                      D000000011342000000000000000000000100010010000000000000000000000F0010000006802000120150210000101 00000000000000000000000000000000000000000000000000000000000000000000000000000000000000000000000000000000000000000N 00000000000NCONT   00    00000000000          00000000000000000000000000000000000000000000 000000000000000A000000000000000000000000000000000000000000000 000000000000000000000000000000000000000     00000000                                                                                                                        000000000000000000
F0010000006802000002000090050863700041450500000000000000000201502100002001COMERCIALIZADORA PERFECT SAS                      C000000009842000000000000000000000100010010000000000000000000000F0010000006802000220150210000101 00000000000000000000000000000000000000000000000000000000000000000000000000000000000000000000000000000000000000000N 00000000000NCONT   00    00000000000          00000000000000000000000000000000000000000000 000000000000000A000000000000000000000000000000000000000000000 000000000000000000000000000000000000000     00000000                                                                                                                        000000000000000000
F0010000006802000003000090050863700042505000000000000000000201502100002001COMERCIALIZADORA PERFECT SAS                      C000000001500000000000000000000000100010010000000000000000000000F0010000006802000320150210000101 00000000000000000000000000000000000000000000000000000000000000000000000000000000000000000000000000000000000000000N 00000000000NCONT   00    00000000000          00000000000000000000000000000000000000000000 000000000000000A000000000000000000000000000000000000000000000 000000000000000000000000000000000000000     00000000                                                                                                                        000000000000000000
F0010000006802000004000090050863700023658300000000000000000201502100002001COMERCIALIZADORA PERFECT SAS                      C000000000078700000000000000000000100010010000000000000000000000F0010000006802000420150210000101 00000000000000000000000000000000000000000000000000000000000000000000000000000000000000000000000000000000000000000N 00000000000NCONT   00    00000000000          00000000000000000000000000000000000000000000 000000000000000A000000000000000000000000000000000000000000000 000000000000000000000000000000000000000     00000000                                                                                                                        000000000000000000
F0010000006802000005000090050863700013552100000000000000000201502100002001COMERCIALIZADORA PERFECT SAS                      D000000000078700000000000000000000100010010000000000000000000000F0010000006802000520150210000101 00000000000000000000000000000000000000000000000000000000000000000000000000000000000000000000000000000000000000000N 00000000000NCONT   00    00000000000          00000000000000000000000000000000000000000000 000000000000000A000000000000000000000000000000000000000000000 000000000000000000000000000000000000000     00000000                                                                                                                        000000000000000000
F0010000006802200001000007200886100011050500000000000000000201502100002001JAIRO CAT AñO ..                                 D000000002800000000000000000000000100010010000000000000000000000F0010000006802200120150210000101 00000000000000000000000000000000000000000000000000000000000000000000000000000000000000000000000000000000000000000N 00000000000NCONT   00    00000000000          00000000000000000000000000000000000000000000 000000000000000A000000000000000000000000000000000000000000000 000000000000000000000000000000000000000     00000000                                                                                                                        000000000000000000
F0010000006802200002000007200886100041450500000000000000000201502100002001JAIRO CAT AñO ..                                 C000000002500000000000000000000000100010010000000000000000000000F0010000006802200220150210000101 00000000000000000000000000000000000000000000000000000000000000000000000000000000000000000000000000000000000000000N 00000000000NCONT   00    00000000000          00000000000000000000000000000000000000000000 000000000000000A000000000000000000000000000000000000000000000 000000000000000000000000000000000000000     00000000                                                                                                                        000000000000000000
F0010000006802200003000007200886100042505000000000000000000201502100002001JAIRO CAT AñO ..                                 C000000000300000000000000000000000100010010000000000000000000000F0010000006802200320150210000101 00000000000000000000000000000000000000000000000000000000000000000000000000000000000000000000000000000000000000000N 00000000000NCONT   00    00000000000          00000000000000000000000000000000000000000000 000000000000000A000000000000000000000000000000000000000000000 000000000000000000000000000000000000000     00000000                                                                                                                        000000000000000000
F0010000006802200004000007200886100023658300000000000000000201502100002001JAIRO CAT AñO ..                                 C000000000020000000000000000000000100010010000000000000000000000F0010000006802200420150210000101 00000000000000000000000000000000000000000000000000000000000000000000000000000000000000000000000000000000000000000N 00000000000NCONT   00    00000000000          00000000000000000000000000000000000000000000 000000000000000A000000000000000000000000000000000000000000000 000000000000000000000000000000000000000     00000000                                                                                                                        000000000000000000
F0010000006802200005000007200886100013552100000000000000000201502100002001JAIRO CAT AñO ..                                 D000000000020000000000000000000000100010010000000000000000000000F0010000006802200520150210000101 00000000000000000000000000000000000000000000000000000000000000000000000000000000000000000000000000000000000000000N 00000000000NCONT   00    00000000000          00000000000000000000000000000000000000000000 000000000000000A000000000000000000000000000000000000000000000 000000000000000000000000000000000000000     00000000                                                                                                                        000000000000000000
F0010000006802300001000000748239700013050500000000000000000201502100002001RAFAEL NAVARRO URIBE                              D000000055750100000000000000000000100010010000000000000000000000F0010000006802300120150210000101 00000000000000000000000000000000000000000000000000000000000000000000000000000000000000000000000000000000000000000N 00000000000NCONT   00    00000000000          00000000000000000000000000000000000000000000 000000000000000A000000000000000000000000000000000000000000000 000000000000000000000000000000000000000     00000000                                                                                                                        000000000000000000
F0010000006802300002000000748239700041450500000000000000000201502100002001RAFAEL NAVARRO URIBE                              C000000041300000000000000000000000100010010000000000000000000000F0010000006802300220150210000101 00000000000000000000000000000000000000000000000000000000000000000000000000000000000000000000000000000000000000000N 00000000000NCONT   00    00000000000          00000000000000000000000000000000000000000000 000000000000000A000000000000000000000000000000000000000000000 000000000000000000000000000000000000000     00000000                                                                                                                        000000000000000000
F0010000006802300003000000748239700042505000000000000000000201502100002001RAFAEL NAVARRO URIBE                              C000000014450100000000000000000000100010010000000000000000000000F0010000006802300320150210000101 00000000000000000000000000000000000000000000000000000000000000000000000000000000000000000000000000000000000000000N 00000000000NCONT   00    00000000000          00000000000000000000000000000000000000000000 000000000000000A000000000000000000000000000000000000000000000 000000000000000000000000000000000000000     00000000                                                                                                                        000000000000000000
F0010000006802300004000000748239700023658300000000000000000201502100002001RAFAEL NAVARRO URIBE                              C000000000330400000000000000000000100010010000000000000000000000F0010000006802300420150210000101 00000000000000000000000000000000000000000000000000000000000000000000000000000000000000000000000000000000000000000N 00000000000NCONT   00    00000000000          00000000000000000000000000000000000000000000 000000000000000A000000000000000000000000000000000000000000000 000000000000000000000000000000000000000     00000000                                                                                                                        000000000000000000
F0010000006802300005000000748239700013552100000000000000000201502100002001RAFAEL NAVARRO URIBE                              D000000000330400000000000000000000100010010000000000000000000000F0010000006802300520150210000101 00000000000000000000000000000000000000000000000000000000000000000000000000000000000000000000000000000000000000000N 00000000000NCONT   00    00000000000          00000000000000000000000000000000000000000000 000000000000000A000000000000000000000000000000000000000000000 000000000000000000000000000000000000000     00000000                                                                                                                        000000000000000000
F0010000006802400001000090064982900013050500000000000000000201502100002001DISDIES S.A.S                                     D000000086224000000000000000000000100010010000000000000000000000F0010000006802400120150210000101 00000000000000000000000000000000000000000000000000000000000000000000000000000000000000000000000000000000000000000N 00000000000NCONT   00    00000000000          00000000000000000000000000000000000000000000 000000000000000A000000000000000000000000000000000000000000000 000000000000000000000000000000000000000     00000000                                                                                                                        000000000000000000
F0010000006802400002000090064982900041450500000000000000000201502100002001DISDIES S.A.S                                     C000000077339500000000000000000000100010010000000000000000000000F0010000006802400220150210000101 00000000000000000000000000000000000000000000000000000000000000000000000000000000000000000000000000000000000000000N 00000000000NCONT   00    00000000000          00000000000000000000000000000000000000000000 000000000000000A000000000000000000000000000000000000000000000 000000000000000000000000000000000000000     00000000                                                                                                                        000000000000000000
F0010000006802400003000090064982900042505000000000000000000201502100002001DISDIES S.A.S                                     C000000008884500000000000000000000100010010000000000000000000000F0010000006802400320150210000101 00000000000000000000000000000000000000000000000000000000000000000000000000000000000000000000000000000000000000000N 00000000000NCONT   00    00000000000          00000000000000000000000000000000000000000000 000000000000000A000000000000000000000000000000000000000000000 000000000000000000000000000000000000000     00000000                                                                                                                        000000000000000000
F0010000006802400004000090064982900023658300000000000000000201502100002001DISDIES S.A.S                                     C000000000618700000000000000000000100010010000000000000000000000F0010000006802400420150210000101 00000000000000000000000000000000000000000000000000000000000000000000000000000000000000000000000000000000000000000N 00000000000NCONT   00    00000000000          00000000000000000000000000000000000000000000 000000000000000A000000000000000000000000000000000000000000000 000000000000000000000000000000000000000     00000000                                                                                                                        000000000000000000
F0010000006802400005000090064982900013552100000000000000000201502100002001DISDIES S.A.S                                     D000000000618700000000000000000000100010010000000000000000000000F0010000006802400520150210000101 00000000000000000000000000000000000000000000000000000000000000000000000000000000000000000000000000000000000000000N 00000000000NCONT   00    00000000000          00000000000000000000000000000000000000000000 000000000000000A000000000000000000000000000000000000000000000 000000000000000000000000000000000000000     00000000                                                                                                                        000000000000000000
F0010000006802500001000089080078800013050500000000000000000201502100002001SUMATEC S.A.                                      D000000026096200000000000000000000100010010000000000000000000000F0010000006802500120150210000101 00000000000000000000000000000000000000000000000000000000000000000000000000000000000000000000000000000000000000000N 00000000000NCONT   00    00000000000          00000000000000000000000000000000000000000000 000000000000000A000000000000000000000000000000000000000000000 000000000000000000000000000000000000000     00000000                                                                                                                        000000000000000000
F0010000006802500002000089080078800041450500000000000000000201502100002001SUMATEC S.A.                                      C000000017040000000000000000000000100010010000000000000000000000F0010000006802500220150210000101 00000000000000000000000000000000000000000000000000000000000000000000000000000000000000000000000000000000000000000N 00000000000NCONT   00    00000000000          00000000000000000000000000000000000000000000 000000000000000A000000000000000000000000000000000000000000000 000000000000000000000000000000000000000     00000000                                                                                                                        000000000000000000
F0010000006802500003000089080078800042505000000000000000000201502100002001SUMATEC S.A.                                      C000000009056200000000000000000000100010010000000000000000000000F0010000006802500320150210000101 00000000000000000000000000000000000000000000000000000000000000000000000000000000000000000000000000000000000000000N 00000000000NCONT   00    00000000000          00000000000000000000000000000000000000000000 000000000000000A000000000000000000000000000000000000000000000 000000000000000000000000000000000000000     00000000                                                                                                                        000000000000000000
F0010000006802500004000089080078800023658300000000000000000201502100002001SUMATEC S.A.                                      C000000000136300000000000000000000100010010000000000000000000000F0010000006802500420150210000101 00000000000000000000000000000000000000000000000000000000000000000000000000000000000000000000000000000000000000000N 00000000000NCONT   00    00000000000          00000000000000000000000000000000000000000000 000000000000000A000000000000000000000000000000000000000000000 000000000000000000000000000000000000000     00000000                                                                                                                        000000000000000000
F0010000006802500005000089080078800013552100000000000000000201502100002001SUMATEC S.A.                                      D000000000136300000000000000000000100010010000000000000000000000F0010000006802500520150210000101 00000000000000000000000000000000000000000000000000000000000000000000000000000000000000000000000000000000000000000N 00000000000NCONT   00    00000000000          00000000000000000000000000000000000000000000 000000000000000A000000000000000000000000000000000000000000000 000000000000000000000000000000000000000     00000000                                                                                                                        000000000000000000
F0010000006802600001000090073498600011050500000000000000000201502100002001VALTAC DEL CARIBE LTDA                            D000000001000000000000000000000000100010010000000000000000000000F0010000006802600120150210000101 00000000000000000000000000000000000000000000000000000000000000000000000000000000000000000000000000000000000000000N 00000000000NCONT   00    00000000000          00000000000000000000000000000000000000000000 000000000000000A000000000000000000000000000000000000000000000 000000000000000000000000000000000000000     00000000                                                                                                                        000000000000000000
F0010000006802600002000090073498600041450500000000000000000201502100002001VALTAC DEL CARIBE LTDA                            C000000000800000000000000000000000100010010000000000000000000000F0010000006802600220150210000101 00000000000000000000000000000000000000000000000000000000000000000000000000000000000000000000000000000000000000000N 00000000000NCONT   00    00000000000          00000000000000000000000000000000000000000000 000000000000000A000000000000000000000000000000000000000000000 000000000000000000000000000000000000000     00000000                                                                                                                        000000000000000000
F0010000006802600003000090073498600042505000000000000000000201502100002001VALTAC DEL CARIBE LTDA                            C000000000200000000000000000000000100010010000000000000000000000F0010000006802600320150210000101 00000000000000000000000000000000000000000000000000000000000000000000000000000000000000000000000000000000000000000N 00000000000NCONT   00    00000000000          00000000000000000000000000000000000000000000 000000000000000A000000000000000000000000000000000000000000000 000000000000000000000000000000000000000     00000000                                                                                                                        000000000000000000
F0010000006802600004000090073498600023658300000000000000000201502100002001VALTAC DEL CARIBE LTDA                            C000000000006400000000000000000000100010010000000000000000000000F0010000006802600420150210000101 00000000000000000000000000000000000000000000000000000000000000000000000000000000000000000000000000000000000000000N 00000000000NCONT   00    00000000000          00000000000000000000000000000000000000000000 000000000000000A000000000000000000000000000000000000000000000 000000000000000000000000000000000000000     00000000                                                                                                                        000000000000000000
F0010000006802600005000090073498600013552100000000000000000201502100002001VALTAC DEL CARIBE LTDA                            D000000000006400000000000000000000100010010000000000000000000000F0010000006802600520150210000101 00000000000000000000000000000000000000000000000000000000000000000000000000000000000000000000000000000000000000000N 00000000000NCONT   00    00000000000          00000000000000000000000000000000000000000000 000000000000000A000000000000000000000000000000000000000000000 000000000000000000000000000000000000000     00000000                                                                                                                        000000000000000000
F0010000006802700001000080202094000013050500000000000000000201502100002001DISTRIB. OMAR ORREGO S.A.                         D000000043481700000000000000000000100010010000000000000000000000F0010000006802700120150210000101 00000000000000000000000000000000000000000000000000000000000000000000000000000000000000000000000000000000000000000N 00000000000NCONT   00    00000000000          00000000000000000000000000000000000000000000 000000000000000A000000000000000000000000000000000000000000000 000000000000000000000000000000000000000     00000000                                                                                                                        000000000000000000
F0010000006802700002000080202094000041450500000000000000000201502100002001DISTRIB. OMAR ORREGO S.A.                         C000000026390000000000000000000000100010010000000000000000000000F0010000006802700220150210000101 00000000000000000000000000000000000000000000000000000000000000000000000000000000000000000000000000000000000000000N 00000000000NCONT   00    00000000000          00000000000000000000000000000000000000000000 000000000000000A000000000000000000000000000000000000000000000 000000000000000000000000000000000000000     00000000                                                                                                                        000000000000000000
F0010000006802700003000080202094000042505000000000000000000201502100002001DISTRIB. OMAR ORREGO S.A.                         C000000017091700000000000000000000100010010000000000000000000000F0010000006802700320150210000101 00000000000000000000000000000000000000000000000000000000000000000000000000000000000000000000000000000000000000000N 00000000000NCONT   00    00000000000          00000000000000000000000000000000000000000000 000000000000000A000000000000000000000000000000000000000000000 000000000000000000000000000000000000000     00000000                                                                                                                        000000000000000000
F0010000006802700004000080202094000023658300000000000000000201502100002001DISTRIB. OMAR ORREGO S.A.                         C000000000211100000000000000000000100010010000000000000000000000F0010000006802700420150210000101 00000000000000000000000000000000000000000000000000000000000000000000000000000000000000000000000000000000000000000N 00000000000NCONT   00    00000000000          00000000000000000000000000000000000000000000 000000000000000A000000000000000000000000000000000000000000000 000000000000000000000000000000000000000     00000000                                                                                                                        000000000000000000
F0010000006802700005000080202094000013552100000000000000000201502100002001DISTRIB. OMAR ORREGO S.A.                         D000000000211100000000000000000000100010010000000000000000000000F0010000006802700520150210000101 00000000000000000000000000000000000000000000000000000000000000000000000000000000000000000000000000000000000000000N 00000000000NCONT   00    00000000000          00000000000000000000000000000000000000000000 000000000000000A000000000000000000000000000000000000000000000 000000000000000000000000000000000000000     00000000                                                                                                                        000000000000000000
F0010000006802800001000080202094000013050500000000000000000201502100002001DISTRIB. OMAR ORREGO S.A.                         D000000070432700000000000000000000100010010000000000000000000000F0010000006802800120150210000101 00000000000000000000000000000000000000000000000000000000000000000000000000000000000000000000000000000000000000000N 00000000000NCONT   00    00000000000          00000000000000000000000000000000000000000000 000000000000000A000000000000000000000000000000000000000000000 000000000000000000000000000000000000000     00000000                                                                                                                        000000000000000000
F0010000006802800002000080202094000041450500000000000000000201502100002001DISTRIB. OMAR ORREGO S.A.                         C000000046680000000000000000000000100010010000000000000000000000F0010000006802800220150210000101 00000000000000000000000000000000000000000000000000000000000000000000000000000000000000000000000000000000000000000N 00000000000NCONT   00    00000000000          00000000000000000000000000000000000000000000 000000000000000A000000000000000000000000000000000000000000000 000000000000000000000000000000000000000     00000000                                                                                                                        000000000000000000
F0010000006802800003000080202094000042505000000000000000000201502100002001DISTRIB. OMAR ORREGO S.A.                         C000000023752700000000000000000000100010010000000000000000000000F0010000006802800320150210000101 00000000000000000000000000000000000000000000000000000000000000000000000000000000000000000000000000000000000000000N 00000000000NCONT   00    00000000000          00000000000000000000000000000000000000000000 000000000000000A000000000000000000000000000000000000000000000 000000000000000000000000000000000000000     00000000                                                                                                                        000000000000000000
F0010000006802800004000080202094000023658300000000000000000201502100002001DISTRIB. OMAR ORREGO S.A.                         C000000000373400000000000000000000100010010000000000000000000000F0010000006802800420150210000101 00000000000000000000000000000000000000000000000000000000000000000000000000000000000000000000000000000000000000000N 00000000000NCONT   00    00000000000          00000000000000000000000000000000000000000000 000000000000000A000000000000000000000000000000000000000000000 000000000000000000000000000000000000000     00000000                                                                                                                        000000000000000000
F0010000006802800005000080202094000013552100000000000000000201502100002001DISTRIB. OMAR ORREGO S.A.                         D000000000373400000000000000000000100010010000000000000000000000F0010000006802800520150210000101 00000000000000000000000000000000000000000000000000000000000000000000000000000000000000000000000000000000000000000N 00000000000NCONT   00    00000000000          00000000000000000000000000000000000000000000 000000000000000A000000000000000000000000000000000000000000000 000000000000000000000000000000000000000     00000000                                                                                                                        000000000000000000
F0010000006802900001000080202094000013050500000000000000000201502100002001DISTRIB. OMAR ORREGO S.A.                         D000000013432400000000000000000000100010010000000000000000000000F0010000006802900120150210000101 00000000000000000000000000000000000000000000000000000000000000000000000000000000000000000000000000000000000000000N 00000000000NCONT   00    00000000000          00000000000000000000000000000000000000000000 000000000000000A000000000000000000000000000000000000000000000 000000000000000000000000000000000000000     00000000                                                                                                                        000000000000000000
F0010000006802900002000080202094000041450500000000000000000201502100002001DISTRIB. OMAR ORREGO S.A.                         C000000007100000000000000000000000100010010000000000000000000000F0010000006802900220150210000101 00000000000000000000000000000000000000000000000000000000000000000000000000000000000000000000000000000000000000000N 00000000000NCONT   00    00000000000          00000000000000000000000000000000000000000000 000000000000000A000000000000000000000000000000000000000000000 000000000000000000000000000000000000000     00000000                                                                                                                        000000000000000000
F0010000006802900003000080202094000042505000000000000000000201502100002001DISTRIB. OMAR ORREGO S.A.                         C000000006332400000000000000000000100010010000000000000000000000F0010000006802900320150210000101 00000000000000000000000000000000000000000000000000000000000000000000000000000000000000000000000000000000000000000N 00000000000NCONT   00    00000000000          00000000000000000000000000000000000000000000 000000000000000A000000000000000000000000000000000000000000000 000000000000000000000000000000000000000     00000000                                                                                                                        000000000000000000
F0010000006802900004000080202094000023658300000000000000000201502100002001DISTRIB. OMAR ORREGO S.A.                         C000000000056800000000000000000000100010010000000000000000000000F0010000006802900420150210000101 00000000000000000000000000000000000000000000000000000000000000000000000000000000000000000000000000000000000000000N 00000000000NCONT   00    00000000000          00000000000000000000000000000000000000000000 000000000000000A000000000000000000000000000000000000000000000 000000000000000000000000000000000000000     00000000                                                                                                                        000000000000000000
F0010000006802900005000080202094000013552100000000000000000201502100002001DISTRIB. OMAR ORREGO S.A.                         D000000000056800000000000000000000100010010000000000000000000000F0010000006802900520150210000101 00000000000000000000000000000000000000000000000000000000000000000000000000000000000000000000000000000000000000000N 00000000000NCONT   00    00000000000          00000000000000000000000000000000000000000000 000000000000000A000000000000000000000000000000000000000000000 000000000000000000000000000000000000000     00000000                                                                                                                        000000000000000000
F0010000006803000001000080201112800013050500000000000000000201502100002001CANGURO INTERNATIONAL S.A.                        D000000162711100000000000000000000100010010000000000000000000000F0010000006803000120150210000101 00000000000000000000000000000000000000000000000000000000000000000000000000000000000000000000000000000000000000000N 00000000000NCONT   00    00000000000          00000000000000000000000000000000000000000000 000000000000000A000000000000000000000000000000000000000000000 000000000000000000000000000000000000000     00000000                                                                                                                        000000000000000000
F0010000006803000002000080201112800041450500000000000000000201502100002001CANGURO INTERNATIONAL S.A.                        C000000162711100000000000000000000100010010000000000000000000000F0010000006803000220150210000101 00000000000000000000000000000000000000000000000000000000000000000000000000000000000000000000000000000000000000000N 00000000000NCONT   00    00000000000          00000000000000000000000000000000000000000000 000000000000000A000000000000000000000000000000000000000000000 000000000000000000000000000000000000000     00000000                                                                                                                        000000000000000000
F0010000006803000003000080201112800042505000000000000000000201502100002001CANGURO INTERNATIONAL S.A.                        C000000000000000000000000000000000100010010000000000000000000000F0010000006803000320150210000101 00000000000000000000000000000000000000000000000000000000000000000000000000000000000000000000000000000000000000000N 00000000000NCONT   00    00000000000          00000000000000000000000000000000000000000000 000000000000000A000000000000000000000000000000000000000000000 000000000000000000000000000000000000000     00000000                                                                                                                        000000000000000000
F0010000006803000004000080201112800023658300000000000000000201502100002001CANGURO INTERNATIONAL S.A.                        C000000001301700000000000000000000100010010000000000000000000000F0010000006803000420150210000101 00000000000000000000000000000000000000000000000000000000000000000000000000000000000000000000000000000000000000000N 00000000000NCONT   00    00000000000          00000000000000000000000000000000000000000000 000000000000000A000000000000000000000000000000000000000000000 000000000000000000000000000000000000000     00000000                                                                                                                        000000000000000000
F0010000006803000005000080201112800013552100000000000000000201502100002001CANGURO INTERNATIONAL S.A.                        D000000001301700000000000000000000100010010000000000000000000000F0010000006803000520150210000101 00000000000000000000000000000000000000000000000000000000000000000000000000000000000000000000000000000000000000000N 00000000000NCONT   00    00000000000          00000000000000000000000000000000000000000000 000000000000000A000000000000000000000000000000000000000000000 000000000000000000000000000000000000000     00000000                                                                                                                        000000000000000000
F0010000006803100001000080201112800013050500000000000000000201502100002001CANGURO INTERNATIONAL S.A.                        D000000108226600000000000000000000100010010000000000000000000000F0010000006803100120150210000101 00000000000000000000000000000000000000000000000000000000000000000000000000000000000000000000000000000000000000000N 00000000000NCONT   00    00000000000          00000000000000000000000000000000000000000000 000000000000000A000000000000000000000000000000000000000000000 000000000000000000000000000000000000000     00000000                                                                                                                        000000000000000000
F0010000006803100002000080201112800041450500000000000000000201502100002001CANGURO INTERNATIONAL S.A.                        C000000108226600000000000000000000100010010000000000000000000000F0010000006803100220150210000101 00000000000000000000000000000000000000000000000000000000000000000000000000000000000000000000000000000000000000000N 00000000000NCONT   00    00000000000          00000000000000000000000000000000000000000000 000000000000000A000000000000000000000000000000000000000000000 000000000000000000000000000000000000000     00000000                                                                                                                        000000000000000000
F0010000006803100003000080201112800042505000000000000000000201502100002001CANGURO INTERNATIONAL S.A.                        C000000000000000000000000000000000100010010000000000000000000000F0010000006803100320150210000101 00000000000000000000000000000000000000000000000000000000000000000000000000000000000000000000000000000000000000000N 00000000000NCONT   00    00000000000          00000000000000000000000000000000000000000000 000000000000000A000000000000000000000000000000000000000000000 000000000000000000000000000000000000000     00000000                                                                                                                        000000000000000000
F0010000006803100004000080201112800023658300000000000000000201502100002001CANGURO INTERNATIONAL S.A.                        C000000000865800000000000000000000100010010000000000000000000000F0010000006803100420150210000101 00000000000000000000000000000000000000000000000000000000000000000000000000000000000000000000000000000000000000000N 00000000000NCONT   00    00000000000          00000000000000000000000000000000000000000000 000000000000000A000000000000000000000000000000000000000000000 000000000000000000000000000000000000000     00000000                                                                                                                        000000000000000000
F0010000006803100005000080201112800013552100000000000000000201502100002001CANGURO INTERNATIONAL S.A.                        D000000000865800000000000000000000100010010000000000000000000000F0010000006803100520150210000101 00000000000000000000000000000000000000000000000000000000000000000000000000000000000000000000000000000000000000000N 00000000000NCONT   00    00000000000          00000000000000000000000000000000000000000000 000000000000000A000000000000000000000000000000000000000000000 000000000000000000000000000000000000000     00000000                                                                                                                        000000000000000000
F0010000006803200001000089010260300013050500000000000000000201502100002001FEDERICO OSORIO A. S.A.                           D000000073108300000000000000000000100010010000000000000000000000F0010000006803200120150210000101 00000000000000000000000000000000000000000000000000000000000000000000000000000000000000000000000000000000000000000N 00000000000NCONT   00    00000000000          00000000000000000000000000000000000000000000 000000000000000A000000000000000000000000000000000000000000000 000000000000000000000000000000000000000     00000000                                                                                                                        000000000000000000
F0010000006803200002000089010260300041450500000000000000000201502100002001FEDERICO OSORIO A. S.A.                           C000000066390000000000000000000000100010010000000000000000000000F0010000006803200220150210000101 00000000000000000000000000000000000000000000000000000000000000000000000000000000000000000000000000000000000000000N 00000000000NCONT   00    00000000000          00000000000000000000000000000000000000000000 000000000000000A000000000000000000000000000000000000000000000 000000000000000000000000000000000000000     00000000                                                                                                                        000000000000000000
F0010000006803200003000089010260300042505000000000000000000201502100002001FEDERICO OSORIO A. S.A.                           C000000006718300000000000000000000100010010000000000000000000000F0010000006803200320150210000101 00000000000000000000000000000000000000000000000000000000000000000000000000000000000000000000000000000000000000000N 00000000000NCONT   00    00000000000          00000000000000000000000000000000000000000000 000000000000000A000000000000000000000000000000000000000000000 000000000000000000000000000000000000000     00000000                                                                                                                        000000000000000000
F0010000006803200004000089010260300023658300000000000000000201502100002001FEDERICO OSORIO A. S.A.                           C000000000531100000000000000000000100010010000000000000000000000F0010000006803200420150210000101 00000000000000000000000000000000000000000000000000000000000000000000000000000000000000000000000000000000000000000N 00000000000NCONT   00    00000000000          00000000000000000000000000000000000000000000 000000000000000A000000000000000000000000000000000000000000000 000000000000000000000000000000000000000     00000000                                                                                                                        000000000000000000
F0010000006803200005000089010260300013552100000000000000000201502100002001FEDERICO OSORIO A. S.A.                           D000000000531100000000000000000000100010010000000000000000000000F0010000006803200520150210000101 00000000000000000000000000000000000000000000000000000000000000000000000000000000000000000000000000000000000000000N 00000000000NCONT   00    00000000000          00000000000000000000000000000000000000000000 000000000000000A000000000000000000000000000000000000000000000 000000000000000000000000000000000000000     00000000                                                                                                                        000000000000000000
F0010000006803300001000089010260300013050500000000000000000201502100002001FEDERICO OSORIO A. S.A.                           D000000014101000000000000000000000100010010000000000000000000000F0010000006803300120150210000101 00000000000000000000000000000000000000000000000000000000000000000000000000000000000000000000000000000000000000000N 00000000000NCONT   00    00000000000          00000000000000000000000000000000000000000000 000000000000000A000000000000000000000000000000000000000000000 000000000000000000000000000000000000000     00000000                                                                                                                        000000000000000000
F0010000006803300002000089010260300041450500000000000000000201502100002001FEDERICO OSORIO A. S.A.                           C000000012340000000000000000000000100010010000000000000000000000F0010000006803300220150210000101 00000000000000000000000000000000000000000000000000000000000000000000000000000000000000000000000000000000000000000N 00000000000NCONT   00    00000000000          00000000000000000000000000000000000000000000 000000000000000A000000000000000000000000000000000000000000000 000000000000000000000000000000000000000     00000000                                                                                                                        000000000000000000
F0010000006803300003000089010260300042505000000000000000000201502100002001FEDERICO OSORIO A. S.A.                           C000000001761000000000000000000000100010010000000000000000000000F0010000006803300320150210000101 00000000000000000000000000000000000000000000000000000000000000000000000000000000000000000000000000000000000000000N 00000000000NCONT   00    00000000000          00000000000000000000000000000000000000000000 000000000000000A000000000000000000000000000000000000000000000 000000000000000000000000000000000000000     00000000                                                                                                                        000000000000000000
F0010000006803300004000089010260300023658300000000000000000201502100002001FEDERICO OSORIO A. S.A.                           C000000000098700000000000000000000100010010000000000000000000000F0010000006803300420150210000101 00000000000000000000000000000000000000000000000000000000000000000000000000000000000000000000000000000000000000000N 00000000000NCONT   00    00000000000          00000000000000000000000000000000000000000000 000000000000000A000000000000000000000000000000000000000000000 000000000000000000000000000000000000000     00000000                                                                                                                        000000000000000000
F0010000006803300005000089010260300013552100000000000000000201502100002001FEDERICO OSORIO A. S.A.                           D000000000098700000000000000000000100010010000000000000000000000F0010000006803300520150210000101 00000000000000000000000000000000000000000000000000000000000000000000000000000000000000000000000000000000000000000N 00000000000NCONT   00    00000000000          00000000000000000000000000000000000000000000 000000000000000A000000000000000000000000000000000000000000000 000000000000000000000000000000000000000     00000000                                                                                                                        000000000000000000
F0010000006803400001000003276535300013050500000000000000000201502100002001YASLEYS CATAÑO ESCOBAR                           D000000022750000000000000000000000100010010000000000000000000000F0010000006803400120150210000101 00000000000000000000000000000000000000000000000000000000000000000000000000000000000000000000000000000000000000000N 00000000000NCONT   00    00000000000          00000000000000000000000000000000000000000000 000000000000000A000000000000000000000000000000000000000000000 000000000000000000000000000000000000000     00000000                                                                                                                        000000000000000000
F0010000006803400002000003276535300041450500000000000000000201502100002001YASLEYS CATAÑO ESCOBAR                           C000000019750000000000000000000000100010010000000000000000000000F0010000006803400220150210000101 00000000000000000000000000000000000000000000000000000000000000000000000000000000000000000000000000000000000000000N 00000000000NCONT   00    00000000000          00000000000000000000000000000000000000000000 000000000000000A000000000000000000000000000000000000000000000 000000000000000000000000000000000000000     00000000                                                                                                                        000000000000000000
F0010000006803400003000003276535300042505000000000000000000201502100002001YASLEYS CATAÑO ESCOBAR                           C000000003000000000000000000000000100010010000000000000000000000F0010000006803400320150210000101 00000000000000000000000000000000000000000000000000000000000000000000000000000000000000000000000000000000000000000N 00000000000NCONT   00    00000000000          00000000000000000000000000000000000000000000 000000000000000A000000000000000000000000000000000000000000000 000000000000000000000000000000000000000     00000000                                                                                                                        000000000000000000
F0010000006803400004000003276535300023658300000000000000000201502100002001YASLEYS CATAÑO ESCOBAR                           C000000000158000000000000000000000100010010000000000000000000000F0010000006803400420150210000101 00000000000000000000000000000000000000000000000000000000000000000000000000000000000000000000000000000000000000000N 00000000000NCONT   00    00000000000          00000000000000000000000000000000000000000000 000000000000000A000000000000000000000000000000000000000000000 000000000000000000000000000000000000000     00000000                                                                                                                        000000000000000000
F0010000006803400005000003276535300013552100000000000000000201502100002001YASLEYS CATAÑO ESCOBAR                           D000000000158000000000000000000000100010010000000000000000000000F0010000006803400520150210000101 00000000000000000000000000000000000000000000000000000000000000000000000000000000000000000000000000000000000000000N 00000000000NCONT   00    00000000000          00000000000000000000000000000000000000000000 000000000000000A000000000000000000000000000000000000000000000 000000000000000000000000000000000000000     00000000                                                                                                                        000000000000000000
F0010000006803500001000009110029700011050500000000000000000201502100002001LUIS MEZA ROMERO                                  D000000005500000000000000000000000100010010000000000000000000000F0010000006803500120150210000101 00000000000000000000000000000000000000000000000000000000000000000000000000000000000000000000000000000000000000000N 00000000000NCONT   00    00000000000          00000000000000000000000000000000000000000000 000000000000000A000000000000000000000000000000000000000000000 000000000000000000000000000000000000000     00000000                                                                                                                        000000000000000000
F0010000006803500002000009110029700041450500000000000000000201502100002001LUIS MEZA ROMERO                                  C000000005000000000000000000000000100010010000000000000000000000F0010000006803500220150210000101 00000000000000000000000000000000000000000000000000000000000000000000000000000000000000000000000000000000000000000N 00000000000NCONT   00    00000000000          00000000000000000000000000000000000000000000 000000000000000A000000000000000000000000000000000000000000000 000000000000000000000000000000000000000     00000000                                                                                                                        000000000000000000
F0010000006803500003000009110029700042505000000000000000000201502100002001LUIS MEZA ROMERO                                  C000000000500000000000000000000000100010010000000000000000000000F0010000006803500320150210000101 00000000000000000000000000000000000000000000000000000000000000000000000000000000000000000000000000000000000000000N 00000000000NCONT   00    00000000000          00000000000000000000000000000000000000000000 000000000000000A000000000000000000000000000000000000000000000 000000000000000000000000000000000000000     00000000                                                                                                                        000000000000000000
F0010000006803500004000009110029700023658300000000000000000201502100002001LUIS MEZA ROMERO                                  C000000000040000000000000000000000100010010000000000000000000000F0010000006803500420150210000101 00000000000000000000000000000000000000000000000000000000000000000000000000000000000000000000000000000000000000000N 00000000000NCONT   00    00000000000          00000000000000000000000000000000000000000000 000000000000000A000000000000000000000000000000000000000000000 000000000000000000000000000000000000000     00000000                                                                                                                        000000000000000000
F0010000006803500005000009110029700013552100000000000000000201502100002001LUIS MEZA ROMERO                                  D000000000040000000000000000000000100010010000000000000000000000F0010000006803500520150210000101 00000000000000000000000000000000000000000000000000000000000000000000000000000000000000000000000000000000000000000N 00000000000NCONT   00    00000000000          00000000000000000000000000000000000000000000 000000000000000A000000000000000000000000000000000000000000000 000000000000000000000000000000000000000     00000000                                                                                                                        000000000000000000
F0010000006803600001000090038852800013050500000000000000000201502100002001EL COMERCIO ELECTRICO DE LA CO                    D000000038140000000000000000000000100010010000000000000000000000F0010000006803600120150210000101 00000000000000000000000000000000000000000000000000000000000000000000000000000000000000000000000000000000000000000N 00000000000NCONT   00    00000000000          00000000000000000000000000000000000000000000 000000000000000A000000000000000000000000000000000000000000000 000000000000000000000000000000000000000     00000000                                                                                                                        000000000000000000
F0010000006803600002000090038852800041450500000000000000000201502100002001EL COMERCIO ELECTRICO DE LA CO                    C000000028340000000000000000000000100010010000000000000000000000F0010000006803600220150210000101 00000000000000000000000000000000000000000000000000000000000000000000000000000000000000000000000000000000000000000N 00000000000NCONT   00    00000000000          00000000000000000000000000000000000000000000 000000000000000A000000000000000000000000000000000000000000000 000000000000000000000000000000000000000     00000000                                                                                                                        000000000000000000
F0010000006803600003000090038852800042505000000000000000000201502100002001EL COMERCIO ELECTRICO DE LA CO                    C000000009800000000000000000000000100010010000000000000000000000F0010000006803600320150210000101 00000000000000000000000000000000000000000000000000000000000000000000000000000000000000000000000000000000000000000N 00000000000NCONT   00    00000000000          00000000000000000000000000000000000000000000 000000000000000A000000000000000000000000000000000000000000000 000000000000000000000000000000000000000     00000000                                                                                                                        000000000000000000
F0010000006803600004000090038852800023658300000000000000000201502100002001EL COMERCIO ELECTRICO DE LA CO                    C000000000226700000000000000000000100010010000000000000000000000F0010000006803600420150210000101 00000000000000000000000000000000000000000000000000000000000000000000000000000000000000000000000000000000000000000N 00000000000NCONT   00    00000000000          00000000000000000000000000000000000000000000 000000000000000A000000000000000000000000000000000000000000000 000000000000000000000000000000000000000     00000000                                                                                                                        000000000000000000
F0010000006803600005000090038852800013552100000000000000000201502100002001EL COMERCIO ELECTRICO DE LA CO                    D000000000226700000000000000000000100010010000000000000000000000F0010000006803600520150210000101 00000000000000000000000000000000000000000000000000000000000000000000000000000000000000000000000000000000000000000N 00000000000NCONT   00    00000000000          00000000000000000000000000000000000000000000 000000000000000A000000000000000000000000000000000000000000000 000000000000000000000000000000000000000     00000000                                                                                                                        000000000000000000
F0010000006803700001000080001063400013050500000000000000000201502100002001PRODUCTOS JULIAO SAS                              D000000031242800000000000000000000100010010000000000000000000000F0010000006803700120150210000101 00000000000000000000000000000000000000000000000000000000000000000000000000000000000000000000000000000000000000000N 00000000000NCONT   00    00000000000          00000000000000000000000000000000000000000000 000000000000000A000000000000000000000000000000000000000000000 000000000000000000000000000000000000000     00000000                                                                                                                        000000000000000000
F0010000006803700002000080001063400041450500000000000000000201502100002001PRODUCTOS JULIAO SAS                              C000000029400000000000000000000000100010010000000000000000000000F0010000006803700220150210000101 00000000000000000000000000000000000000000000000000000000000000000000000000000000000000000000000000000000000000000N 00000000000NCONT   00    00000000000          00000000000000000000000000000000000000000000 000000000000000A000000000000000000000000000000000000000000000 000000000000000000000000000000000000000     00000000                                                                                                                        000000000000000000
F0010000006803700003000080001063400042505000000000000000000201502100002001PRODUCTOS JULIAO SAS                              C000000001842800000000000000000000100010010000000000000000000000F0010000006803700320150210000101 00000000000000000000000000000000000000000000000000000000000000000000000000000000000000000000000000000000000000000N 00000000000NCONT   00    00000000000          00000000000000000000000000000000000000000000 000000000000000A000000000000000000000000000000000000000000000 000000000000000000000000000000000000000     00000000                                                                                                                        000000000000000000
F0010000006803700004000080001063400023658300000000000000000201502100002001PRODUCTOS JULIAO SAS                              C000000000235200000000000000000000100010010000000000000000000000F0010000006803700420150210000101 00000000000000000000000000000000000000000000000000000000000000000000000000000000000000000000000000000000000000000N 00000000000NCONT   00    00000000000          00000000000000000000000000000000000000000000 000000000000000A000000000000000000000000000000000000000000000 000000000000000000000000000000000000000     00000000                                                                                                                        000000000000000000
F0010000006803700005000080001063400013552100000000000000000201502100002001PRODUCTOS JULIAO SAS                              D000000000235200000000000000000000100010010000000000000000000000F0010000006803700520150210000101 00000000000000000000000000000000000000000000000000000000000000000000000000000000000000000000000000000000000000000N 00000000000NCONT   00    00000000000          00000000000000000000000000000000000000000000 000000000000000A000000000000000000000000000000000000000000000 000000000000000000000000000000000000000     00000000                                                                                                                        000000000000000000
F0010000006803800001000089010272700013050500000000000000000201502100002001ALFONSOEME S.A.                                   D000000034392100000000000000000000100010010000000000000000000000F0010000006803800120150210000101 00000000000000000000000000000000000000000000000000000000000000000000000000000000000000000000000000000000000000000N 00000000000NCONT   00    00000000000          00000000000000000000000000000000000000000000 000000000000000A000000000000000000000000000000000000000000000 000000000000000000000000000000000000000     00000000                                                                                                                        000000000000000000
F0010000006803800002000089010272700041450500000000000000000201502100002001ALFONSOEME S.A.                                   C000000035102300000000000000000000100010010000000000000000000000F0010000006803800220150210000101 00000000000000000000000000000000000000000000000000000000000000000000000000000000000000000000000000000000000000000N 00000000000NCONT   00    00000000000          00000000000000000000000000000000000000000000 000000000000000A000000000000000000000000000000000000000000000 000000000000000000000000000000000000000     00000000                                                                                                                        000000000000000000
F0010000006803800003000089010272700041750100000000000000000201502100002001ALFONSOEME S.A.                                   D000000003510200000000000000000000100010010000000000000000000000F0010000006803800320150210000101 00000000000000000000000000000000000000000000000000000000000000000000000000000000000000000000000000000000000000000N 00000000000NCONT   00    00000000000          00000000000000000000000000000000000000000000 000000000000000A000000000000000000000000000000000000000000000 000000000000000000000000000000000000000     00000000                                                                                                                        000000000000000000
F0010000006803800004000089010272700042505000000000000000000201502100002001ALFONSOEME S.A.                                   C000000002800000000000000000000000100010010000000000000000000000F0010000006803800420150210000101 00000000000000000000000000000000000000000000000000000000000000000000000000000000000000000000000000000000000000000N 00000000000NCONT   00    00000000000          00000000000000000000000000000000000000000000 000000000000000A000000000000000000000000000000000000000000000 000000000000000000000000000000000000000     00000000                                                                                                                        000000000000000000
F0010000006803800005000089010272700023658300000000000000000201502100002001ALFONSOEME S.A.                                   C000000000280800000000000000000000100010010000000000000000000000F0010000006803800520150210000101 00000000000000000000000000000000000000000000000000000000000000000000000000000000000000000000000000000000000000000N 00000000000NCONT   00    00000000000          00000000000000000000000000000000000000000000 000000000000000A000000000000000000000000000000000000000000000 000000000000000000000000000000000000000     00000000                                                                                                                        000000000000000000
F0010000006803800006000089010272700013552100000000000000000201502100002001ALFONSOEME S.A.                                   D000000000280800000000000000000000100010010000000000000000000000F0010000006803800620150210000101 00000000000000000000000000000000000000000000000000000000000000000000000000000000000000000000000000000000000000000N 00000000000NCONT   00    00000000000          00000000000000000000000000000000000000000000 000000000000000A000000000000000000000000000000000000000000000 000000000000000000000000000000000000000     00000000                                                                                                                        000000000000000000
F0010000006803900001000089010272700013050500000000000000000201502100002001ALFONSOEME S.A.                                   D000000001806000000000000000000000100010010000000000000000000000F0010000006803900120150210000101 00000000000000000000000000000000000000000000000000000000000000000000000000000000000000000000000000000000000000000N 00000000000NCONT   00    00000000000          00000000000000000000000000000000000000000000 000000000000000A000000000000000000000000000000000000000000000 000000000000000000000000000000000000000     00000000                                                                                                                        000000000000000000
F0010000006803900002000089010272700041450500000000000000000201502100002001ALFONSOEME S.A.                                   C000000001740000000000000000000000100010010000000000000000000000F0010000006803900220150210000101 00000000000000000000000000000000000000000000000000000000000000000000000000000000000000000000000000000000000000000N 00000000000NCONT   00    00000000000          00000000000000000000000000000000000000000000 000000000000000A000000000000000000000000000000000000000000000 000000000000000000000000000000000000000     00000000                                                                                                                        000000000000000000
F0010000006803900003000089010272700041750100000000000000000201502100002001ALFONSOEME S.A.                                   D000000000174000000000000000000000100010010000000000000000000000F0010000006803900320150210000101 00000000000000000000000000000000000000000000000000000000000000000000000000000000000000000000000000000000000000000N 00000000000NCONT   00    00000000000          00000000000000000000000000000000000000000000 000000000000000A000000000000000000000000000000000000000000000 000000000000000000000000000000000000000     00000000                                                                                                                        000000000000000000
F0010000006803900004000089010272700042505000000000000000000201502100002001ALFONSOEME S.A.                                   C000000000240000000000000000000000100010010000000000000000000000F0010000006803900420150210000101 00000000000000000000000000000000000000000000000000000000000000000000000000000000000000000000000000000000000000000N 00000000000NCONT   00    00000000000          00000000000000000000000000000000000000000000 000000000000000A000000000000000000000000000000000000000000000 000000000000000000000000000000000000000     00000000                                                                                                                        000000000000000000
F0010000006803900005000089010272700023658300000000000000000201502100002001ALFONSOEME S.A.                                   C000000000013900000000000000000000100010010000000000000000000000F0010000006803900520150210000101 00000000000000000000000000000000000000000000000000000000000000000000000000000000000000000000000000000000000000000N 00000000000NCONT   00    00000000000          00000000000000000000000000000000000000000000 000000000000000A000000000000000000000000000000000000000000000 000000000000000000000000000000000000000     00000000                                                                                                                        000000000000000000
F0010000006803900006000089010272700013552100000000000000000201502100002001ALFONSOEME S.A.                                   D000000000013900000000000000000000100010010000000000000000000000F0010000006803900620150210000101 00000000000000000000000000000000000000000000000000000000000000000000000000000000000000000000000000000000000000000N 00000000000NCONT   00    00000000000          00000000000000000000000000000000000000000000 000000000000000A000000000000000000000000000000000000000000000 000000000000000000000000000000000000000     00000000                                                                                                                        000000000000000000
F0010000006804000001000000744822500013050500000000000000000201502100002001PERFUMERIA BORGE                                  D000000030486200000000000000000000100010010000000000000000000000F0010000006804000120150210000101 00000000000000000000000000000000000000000000000000000000000000000000000000000000000000000000000000000000000000000N 00000000000NCONT   00    00000000000          00000000000000000000000000000000000000000000 000000000000000A000000000000000000000000000000000000000000000 000000000000000000000000000000000000000     00000000                                                                                                                        000000000000000000
F0010000006804000002000000744822500041450500000000000000000201502100002001PERFUMERIA BORGE                                  C000000024711200000000000000000000100010010000000000000000000000F0010000006804000220150210000101 00000000000000000000000000000000000000000000000000000000000000000000000000000000000000000000000000000000000000000N 00000000000NCONT   00    00000000000          00000000000000000000000000000000000000000000 000000000000000A000000000000000000000000000000000000000000000 000000000000000000000000000000000000000     00000000                                                                                                                        000000000000000000
F0010000006804000003000000744822500042505000000000000000000201502100002001PERFUMERIA BORGE                                  C000000005775000000000000000000000100010010000000000000000000000F0010000006804000320150210000101 00000000000000000000000000000000000000000000000000000000000000000000000000000000000000000000000000000000000000000N 00000000000NCONT   00    00000000000          00000000000000000000000000000000000000000000 000000000000000A000000000000000000000000000000000000000000000 000000000000000000000000000000000000000     00000000                                                                                                                        000000000000000000
F0010000006804000004000000744822500023658300000000000000000201502100002001PERFUMERIA BORGE                                  C000000000197700000000000000000000100010010000000000000000000000F0010000006804000420150210000101 00000000000000000000000000000000000000000000000000000000000000000000000000000000000000000000000000000000000000000N 00000000000NCONT   00    00000000000          00000000000000000000000000000000000000000000 000000000000000A000000000000000000000000000000000000000000000 000000000000000000000000000000000000000     00000000                                                                                                                        000000000000000000
F0010000006804000005000000744822500013552100000000000000000201502100002001PERFUMERIA BORGE                                  D000000000197700000000000000000000100010010000000000000000000000F0010000006804000520150210000101 00000000000000000000000000000000000000000000000000000000000000000000000000000000000000000000000000000000000000000N 00000000000NCONT   00    00000000000          00000000000000000000000000000000000000000000 000000000000000A000000000000000000000000000000000000000000000 000000000000000000000000000000000000000     00000000                                                                                                                        000000000000000000
F0010000006804100001000090007142100013050500000000000000000201502100002001TODO BELLEZA Y MAX S.A.S                          D000000030880000000000000000000000100010010000000000000000000000F0010000006804100120150210000101 00000000000000000000000000000000000000000000000000000000000000000000000000000000000000000000000000000000000000000N 00000000000NCONT   00    00000000000          00000000000000000000000000000000000000000000 000000000000000A000000000000000000000000000000000000000000000 000000000000000000000000000000000000000     00000000                                                                                                                        000000000000000000
F0010000006804100002000090007142100041450500000000000000000201502100002001TODO BELLEZA Y MAX S.A.S                          C000000029830000000000000000000000100010010000000000000000000000F0010000006804100220150210000101 00000000000000000000000000000000000000000000000000000000000000000000000000000000000000000000000000000000000000000N 00000000000NCONT   00    00000000000          00000000000000000000000000000000000000000000 000000000000000A000000000000000000000000000000000000000000000 000000000000000000000000000000000000000     00000000                                                                                                                        000000000000000000
F0010000006804100003000090007142100042505000000000000000000201502100002001TODO BELLEZA Y MAX S.A.S                          C000000001050000000000000000000000100010010000000000000000000000F0010000006804100320150210000101 00000000000000000000000000000000000000000000000000000000000000000000000000000000000000000000000000000000000000000N 00000000000NCONT   00    00000000000          00000000000000000000000000000000000000000000 000000000000000A000000000000000000000000000000000000000000000 000000000000000000000000000000000000000     00000000                                                                                                                        000000000000000000
F0010000006804100004000090007142100023658300000000000000000201502100002001TODO BELLEZA Y MAX S.A.S                          C000000000238600000000000000000000100010010000000000000000000000F0010000006804100420150210000101 00000000000000000000000000000000000000000000000000000000000000000000000000000000000000000000000000000000000000000N 00000000000NCONT   00    00000000000          00000000000000000000000000000000000000000000 000000000000000A000000000000000000000000000000000000000000000 000000000000000000000000000000000000000     00000000                                                                                                                        000000000000000000
F0010000006804100005000090007142100013552100000000000000000201502100002001TODO BELLEZA Y MAX S.A.S                          D000000000238600000000000000000000100010010000000000000000000000F0010000006804100520150210000101 00000000000000000000000000000000000000000000000000000000000000000000000000000000000000000000000000000000000000000N 00000000000NCONT   00    00000000000          00000000000000000000000000000000000000000000 000000000000000A000000000000000000000000000000000000000000000 000000000000000000000000000000000000000     00000000                                                                                                                        000000000000000000
F0010000006804200001000080202132300013050500000000000000000201502100002001SUM Y SERV DE LA COSTA LTDA                       D000000033750000000000000000000000100010010000000000000000000000F0010000006804200120150210000101 00000000000000000000000000000000000000000000000000000000000000000000000000000000000000000000000000000000000000000N 00000000000NCONT   00    00000000000          00000000000000000000000000000000000000000000 000000000000000A000000000000000000000000000000000000000000000 000000000000000000000000000000000000000     00000000                                                                                                                        000000000000000000
F0010000006804200002000080202132300041450500000000000000000201502100002001SUM Y SERV DE LA COSTA LTDA                       C000000031670000000000000000000000100010010000000000000000000000F0010000006804200220150210000101 00000000000000000000000000000000000000000000000000000000000000000000000000000000000000000000000000000000000000000N 00000000000NCONT   00    00000000000          00000000000000000000000000000000000000000000 000000000000000A000000000000000000000000000000000000000000000 000000000000000000000000000000000000000     00000000                                                                                                                        000000000000000000
F0010000006804200003000080202132300042505000000000000000000201502100002001SUM Y SERV DE LA COSTA LTDA                       C000000002080000000000000000000000100010010000000000000000000000F0010000006804200320150210000101 00000000000000000000000000000000000000000000000000000000000000000000000000000000000000000000000000000000000000000N 00000000000NCONT   00    00000000000          00000000000000000000000000000000000000000000 000000000000000A000000000000000000000000000000000000000000000 000000000000000000000000000000000000000     00000000                                                                                                                        000000000000000000
F0010000006804200004000080202132300023658300000000000000000201502100002001SUM Y SERV DE LA COSTA LTDA                       C000000000253400000000000000000000100010010000000000000000000000F0010000006804200420150210000101 00000000000000000000000000000000000000000000000000000000000000000000000000000000000000000000000000000000000000000N 00000000000NCONT   00    00000000000          00000000000000000000000000000000000000000000 000000000000000A000000000000000000000000000000000000000000000 000000000000000000000000000000000000000     00000000                                                                                                                        000000000000000000
F0010000006804200005000080202132300013552100000000000000000201502100002001SUM Y SERV DE LA COSTA LTDA                       D000000000253400000000000000000000100010010000000000000000000000F0010000006804200520150210000101 00000000000000000000000000000000000000000000000000000000000000000000000000000000000000000000000000000000000000000N 00000000000NCONT   00    00000000000          00000000000000000000000000000000000000000000 000000000000000A000000000000000000000000000000000000000000000 000000000000000000000000000000000000000     00000000                                                                                                                        000000000000000000
