F0010000010007300001000000856527900011050500000000000000000201704040002001CESAR AUGUSTO MIER BUELVAS                        D000000001300000000000000000000000100010010000000000000000000000F0010000010007300120170404000101 00000000000000000000000000000000000000000000000000000000000000000000000000000000000000000000000000000000000000000N 00000000000NCONT   00    00000000000          00000000000000000000000000000000000000000000 000000000000000A000000000000000000000000000000000000000000000 000000000000000000000000000000000000000     00000000                                                                                                                        000000000000000000
F0010000010007300002000000856527900041450500000000000000000201704040002001CESAR AUGUSTO MIER BUELVAS                        C000000001200000000000000000000000100010010000000000000000000000F0010000010007300220170404000101 00000000000000000000000000000000000000000000000000000000000000000000000000000000000000000000000000000000000000000N 00000000000NCONT   00    00000000000          00000000000000000000000000000000000000000000 000000000000000A000000000000000000000000000000000000000000000 000000000000000000000000000000000000000     00000000                                                                                                                        000000000000000000
F0010000010007300003000000856527900042505000000000000000000201704040002001CESAR AUGUSTO MIER BUELVAS                        C000000000100000000000000000000000100010010000000000000000000000F0010000010007300320170404000101 00000000000000000000000000000000000000000000000000000000000000000000000000000000000000000000000000000000000000000N 00000000000NCONT   00    00000000000          00000000000000000000000000000000000000000000 000000000000000A000000000000000000000000000000000000000000000 000000000000000000000000000000000000000     00000000                                                                                                                        000000000000000000
F0010000010007300004000000856527900023658300000000000000000201704040002001CESAR AUGUSTO MIER BUELVAS                        C000000000000000000000000000000000100010010000000000000000000000F0010000010007300420170404000101 00000000000000000000000000000000000000000000000000000000000000000000000000000000000000000000000000000000000000000N 00000000000NCONT   00    00000000000          00000000000000000000000000000000000000000000 000000000000000A000000000000000000000000000000000000000000000 000000000000000000000000000000000000000     00000000                                                                                                                        000000000000000000
F0010000010007300005000000856527900013552100000000000000000201704040002001CESAR AUGUSTO MIER BUELVAS                        D000000000000000000000000000000000100010010000000000000000000000F0010000010007300520170404000101 00000000000000000000000000000000000000000000000000000000000000000000000000000000000000000000000000000000000000000N 00000000000NCONT   00    00000000000          00000000000000000000000000000000000000000000 000000000000000A000000000000000000000000000000000000000000000 000000000000000000000000000000000000000     00000000                                                                                                                        000000000000000000
F0010000010007400001000080016664500013050500000000000000000201704040002001TELAPLAS PANCER SAS                               D000000056345000000000000000000000100010010000000000000000000000F0010000010007400120170404000101 00000000000000000000000000000000000000000000000000000000000000000000000000000000000000000000000000000000000000000N 00000000000NCONT   00    00000000000          00000000000000000000000000000000000000000000 000000000000000A000000000000000000000000000000000000000000000 000000000000000000000000000000000000000     00000000                                                                                                                        000000000000000000
F0010000010007400002000080016664500041450500000000000000000201704040002001TELAPLAS PANCER SAS                               C000000046770000000000000000000000100010010000000000000000000000F0010000010007400220170404000101 00000000000000000000000000000000000000000000000000000000000000000000000000000000000000000000000000000000000000000N 00000000000NCONT   00    00000000000          00000000000000000000000000000000000000000000 000000000000000A000000000000000000000000000000000000000000000 000000000000000000000000000000000000000     00000000                                                                                                                        000000000000000000
F0010000010007400003000080016664500042505000000000000000000201704040002001TELAPLAS PANCER SAS                               C000000009575000000000000000000000100010010000000000000000000000F0010000010007400320170404000101 00000000000000000000000000000000000000000000000000000000000000000000000000000000000000000000000000000000000000000N 00000000000NCONT   00    00000000000          00000000000000000000000000000000000000000000 000000000000000A000000000000000000000000000000000000000000000 000000000000000000000000000000000000000     00000000                                                                                                                        000000000000000000
F0010000010007400004000080016664500023658300000000000000000201704040002001TELAPLAS PANCER SAS                               C000000000000000000000000000000000100010010000000000000000000000F0010000010007400420170404000101 00000000000000000000000000000000000000000000000000000000000000000000000000000000000000000000000000000000000000000N 00000000000NCONT   00    00000000000          00000000000000000000000000000000000000000000 000000000000000A000000000000000000000000000000000000000000000 000000000000000000000000000000000000000     00000000                                                                                                                        000000000000000000
F0010000010007400005000080016664500013552100000000000000000201704040002001TELAPLAS PANCER SAS                               D000000000000000000000000000000000100010010000000000000000000000F0010000010007400520170404000101 00000000000000000000000000000000000000000000000000000000000000000000000000000000000000000000000000000000000000000N 00000000000NCONT   00    00000000000          00000000000000000000000000000000000000000000 000000000000000A000000000000000000000000000000000000000000000 000000000000000000000000000000000000000     00000000                                                                                                                        000000000000000000
F0010000010007500001000000091780800013050500000000000000000201704040002001ITALO RENE HERAZO CARCAMO /CENTRAL DE TORNILLOS   D000000008917300000000000000000000100010010000000000000000000000F0010000010007500120170404000101 00000000000000000000000000000000000000000000000000000000000000000000000000000000000000000000000000000000000000000N 00000000000NCONT   00    00000000000          00000000000000000000000000000000000000000000 000000000000000A000000000000000000000000000000000000000000000 000000000000000000000000000000000000000     00000000                                                                                                                        000000000000000000
F0010000010007500002000000091780800041450500000000000000000201704040002001ITALO RENE HERAZO CARCAMO /CENTRAL DE TORNILLOS   C000000007820000000000000000000000100010010000000000000000000000F0010000010007500220170404000101 00000000000000000000000000000000000000000000000000000000000000000000000000000000000000000000000000000000000000000N 00000000000NCONT   00    00000000000          00000000000000000000000000000000000000000000 000000000000000A000000000000000000000000000000000000000000000 000000000000000000000000000000000000000     00000000                                                                                                                        000000000000000000
F0010000010007500003000000091780800042505000000000000000000201704040002001ITALO RENE HERAZO CARCAMO /CENTRAL DE TORNILLOS   C000000001097300000000000000000000100010010000000000000000000000F0010000010007500320170404000101 00000000000000000000000000000000000000000000000000000000000000000000000000000000000000000000000000000000000000000N 00000000000NCONT   00    00000000000          00000000000000000000000000000000000000000000 000000000000000A000000000000000000000000000000000000000000000 000000000000000000000000000000000000000     00000000                                                                                                                        000000000000000000
F0010000010007500004000000091780800023658300000000000000000201704040002001ITALO RENE HERAZO CARCAMO /CENTRAL DE TORNILLOS   C000000000000000000000000000000000100010010000000000000000000000F0010000010007500420170404000101 00000000000000000000000000000000000000000000000000000000000000000000000000000000000000000000000000000000000000000N 00000000000NCONT   00    00000000000          00000000000000000000000000000000000000000000 000000000000000A000000000000000000000000000000000000000000000 000000000000000000000000000000000000000     00000000                                                                                                                        000000000000000000
F0010000010007500005000000091780800013552100000000000000000201704040002001ITALO RENE HERAZO CARCAMO /CENTRAL DE TORNILLOS   D000000000000000000000000000000000100010010000000000000000000000F0010000010007500520170404000101 00000000000000000000000000000000000000000000000000000000000000000000000000000000000000000000000000000000000000000N 00000000000NCONT   00    00000000000          00000000000000000000000000000000000000000000 000000000000000A000000000000000000000000000000000000000000000 000000000000000000000000000000000000000     00000000                                                                                                                        000000000000000000
F0010000010007600001000000871714900013050500000000000000000201704040002001ROLNAN DE LA ROSA  INSIGNARES                     D000000007342000000000000000000000100010010000000000000000000000F0010000010007600120170404000101 00000000000000000000000000000000000000000000000000000000000000000000000000000000000000000000000000000000000000000N 00000000000NCONT   00    00000000000          00000000000000000000000000000000000000000000 000000000000000A000000000000000000000000000000000000000000000 000000000000000000000000000000000000000     00000000                                                                                                                        000000000000000000
F0010000010007600002000000871714900041450500000000000000000201704040002001ROLNAN DE LA ROSA  INSIGNARES                     C000000006144000000000000000000000100010010000000000000000000000F0010000010007600220170404000101 00000000000000000000000000000000000000000000000000000000000000000000000000000000000000000000000000000000000000000N 00000000000NCONT   00    00000000000          00000000000000000000000000000000000000000000 000000000000000A000000000000000000000000000000000000000000000 000000000000000000000000000000000000000     00000000                                                                                                                        000000000000000000
F0010000010007600003000000871714900042505000000000000000000201704040002001ROLNAN DE LA ROSA  INSIGNARES                     C000000001198000000000000000000000100010010000000000000000000000F0010000010007600320170404000101 00000000000000000000000000000000000000000000000000000000000000000000000000000000000000000000000000000000000000000N 00000000000NCONT   00    00000000000          00000000000000000000000000000000000000000000 000000000000000A000000000000000000000000000000000000000000000 000000000000000000000000000000000000000     00000000                                                                                                                        000000000000000000
F0010000010007600004000000871714900023658300000000000000000201704040002001ROLNAN DE LA ROSA  INSIGNARES                     C000000000000000000000000000000000100010010000000000000000000000F0010000010007600420170404000101 00000000000000000000000000000000000000000000000000000000000000000000000000000000000000000000000000000000000000000N 00000000000NCONT   00    00000000000          00000000000000000000000000000000000000000000 000000000000000A000000000000000000000000000000000000000000000 000000000000000000000000000000000000000     00000000                                                                                                                        000000000000000000
F0010000010007600005000000871714900013552100000000000000000201704040002001ROLNAN DE LA ROSA  INSIGNARES                     D000000000000000000000000000000000100010010000000000000000000000F0010000010007600520170404000101 00000000000000000000000000000000000000000000000000000000000000000000000000000000000000000000000000000000000000000N 00000000000NCONT   00    00000000000          00000000000000000000000000000000000000000000 000000000000000A000000000000000000000000000000000000000000000 000000000000000000000000000000000000000     00000000                                                                                                                        000000000000000000
F0010000010007700001000090049421600013050500000000000000000201704040002001GRUPO SERGEM DE COLOMBIA Z.P SAS                  D000000035073800000000000000000000100010010000000000000000000000F0010000010007700120170404000101 00000000000000000000000000000000000000000000000000000000000000000000000000000000000000000000000000000000000000000N 00000000000NCONT   00    00000000000          00000000000000000000000000000000000000000000 000000000000000A000000000000000000000000000000000000000000000 000000000000000000000000000000000000000     00000000                                                                                                                        000000000000000000
F0010000010007700002000090049421600041450500000000000000000201704040002001GRUPO SERGEM DE COLOMBIA Z.P SAS                  C000000030830000000000000000000000100010010000000000000000000000F0010000010007700220170404000101 00000000000000000000000000000000000000000000000000000000000000000000000000000000000000000000000000000000000000000N 00000000000NCONT   00    00000000000          00000000000000000000000000000000000000000000 000000000000000A000000000000000000000000000000000000000000000 000000000000000000000000000000000000000     00000000                                                                                                                        000000000000000000
F0010000010007700003000090049421600042505000000000000000000201704040002001GRUPO SERGEM DE COLOMBIA Z.P SAS                  C000000004243800000000000000000000100010010000000000000000000000F0010000010007700320170404000101 00000000000000000000000000000000000000000000000000000000000000000000000000000000000000000000000000000000000000000N 00000000000NCONT   00    00000000000          00000000000000000000000000000000000000000000 000000000000000A000000000000000000000000000000000000000000000 000000000000000000000000000000000000000     00000000                                                                                                                        000000000000000000
F0010000010007700004000090049421600023658300000000000000000201704040002001GRUPO SERGEM DE COLOMBIA Z.P SAS                  C000000000000000000000000000000000100010010000000000000000000000F0010000010007700420170404000101 00000000000000000000000000000000000000000000000000000000000000000000000000000000000000000000000000000000000000000N 00000000000NCONT   00    00000000000          00000000000000000000000000000000000000000000 000000000000000A000000000000000000000000000000000000000000000 000000000000000000000000000000000000000     00000000                                                                                                                        000000000000000000
F0010000010007700005000090049421600013552100000000000000000201704040002001GRUPO SERGEM DE COLOMBIA Z.P SAS                  D000000000000000000000000000000000100010010000000000000000000000F0010000010007700520170404000101 00000000000000000000000000000000000000000000000000000000000000000000000000000000000000000000000000000000000000000N 00000000000NCONT   00    00000000000          00000000000000000000000000000000000000000000 000000000000000A000000000000000000000000000000000000000000000 000000000000000000000000000000000000000     00000000                                                                                                                        000000000000000000
F0010000010007800001000080200608400013050500000000000000000201704040002001HIT DISTRIBUCIONES SAS                            D000000011800000000000000000000000100010010000000000000000000000F0010000010007800120170404000101 00000000000000000000000000000000000000000000000000000000000000000000000000000000000000000000000000000000000000000N 00000000000NCONT   00    00000000000          00000000000000000000000000000000000000000000 000000000000000A000000000000000000000000000000000000000000000 000000000000000000000000000000000000000     00000000                                                                                                                        000000000000000000
F0010000010007800002000080200608400041450500000000000000000201704040002001HIT DISTRIBUCIONES SAS                            C000000009900000000000000000000000100010010000000000000000000000F0010000010007800220170404000101 00000000000000000000000000000000000000000000000000000000000000000000000000000000000000000000000000000000000000000N 00000000000NCONT   00    00000000000          00000000000000000000000000000000000000000000 000000000000000A000000000000000000000000000000000000000000000 000000000000000000000000000000000000000     00000000                                                                                                                        000000000000000000
F0010000010007800003000080200608400042505000000000000000000201704040002001HIT DISTRIBUCIONES SAS                            C000000001900000000000000000000000100010010000000000000000000000F0010000010007800320170404000101 00000000000000000000000000000000000000000000000000000000000000000000000000000000000000000000000000000000000000000N 00000000000NCONT   00    00000000000          00000000000000000000000000000000000000000000 000000000000000A000000000000000000000000000000000000000000000 000000000000000000000000000000000000000     00000000                                                                                                                        000000000000000000
F0010000010007800004000080200608400023658300000000000000000201704040002001HIT DISTRIBUCIONES SAS                            C000000000000000000000000000000000100010010000000000000000000000F0010000010007800420170404000101 00000000000000000000000000000000000000000000000000000000000000000000000000000000000000000000000000000000000000000N 00000000000NCONT   00    00000000000          00000000000000000000000000000000000000000000 000000000000000A000000000000000000000000000000000000000000000 000000000000000000000000000000000000000     00000000                                                                                                                        000000000000000000
F0010000010007800005000080200608400013552100000000000000000201704040002001HIT DISTRIBUCIONES SAS                            D000000000000000000000000000000000100010010000000000000000000000F0010000010007800520170404000101 00000000000000000000000000000000000000000000000000000000000000000000000000000000000000000000000000000000000000000N 00000000000NCONT   00    00000000000          00000000000000000000000000000000000000000000 000000000000000A000000000000000000000000000000000000000000000 000000000000000000000000000000000000000     00000000                                                                                                                        000000000000000000
F0010000010007900001000090060531100013050500000000000000000201704040002001RECUBRIMIENTOS ESENCIALES SAS                     D000000043170000000000000000000000100010010000000000000000000000F0010000010007900120170404000101 00000000000000000000000000000000000000000000000000000000000000000000000000000000000000000000000000000000000000000N 00000000000NCONT   00    00000000000          00000000000000000000000000000000000000000000 000000000000000A000000000000000000000000000000000000000000000 000000000000000000000000000000000000000     00000000                                                                                                                        000000000000000000
F0010000010007900002000090060531100041450500000000000000000201704040002001RECUBRIMIENTOS ESENCIALES SAS                     C000000038170000000000000000000000100010010000000000000000000000F0010000010007900220170404000101 00000000000000000000000000000000000000000000000000000000000000000000000000000000000000000000000000000000000000000N 00000000000NCONT   00    00000000000          00000000000000000000000000000000000000000000 000000000000000A000000000000000000000000000000000000000000000 000000000000000000000000000000000000000     00000000                                                                                                                        000000000000000000
F0010000010007900003000090060531100042505000000000000000000201704040002001RECUBRIMIENTOS ESENCIALES SAS                     C000000005000000000000000000000000100010010000000000000000000000F0010000010007900320170404000101 00000000000000000000000000000000000000000000000000000000000000000000000000000000000000000000000000000000000000000N 00000000000NCONT   00    00000000000          00000000000000000000000000000000000000000000 000000000000000A000000000000000000000000000000000000000000000 000000000000000000000000000000000000000     00000000                                                                                                                        000000000000000000
F0010000010007900004000090060531100023658300000000000000000201704040002001RECUBRIMIENTOS ESENCIALES SAS                     C000000000000000000000000000000000100010010000000000000000000000F0010000010007900420170404000101 00000000000000000000000000000000000000000000000000000000000000000000000000000000000000000000000000000000000000000N 00000000000NCONT   00    00000000000          00000000000000000000000000000000000000000000 000000000000000A000000000000000000000000000000000000000000000 000000000000000000000000000000000000000     00000000                                                                                                                        000000000000000000
F0010000010007900005000090060531100013552100000000000000000201704040002001RECUBRIMIENTOS ESENCIALES SAS                     D000000000000000000000000000000000100010010000000000000000000000F0010000010007900520170404000101 00000000000000000000000000000000000000000000000000000000000000000000000000000000000000000000000000000000000000000N 00000000000NCONT   00    00000000000          00000000000000000000000000000000000000000000 000000000000000A000000000000000000000000000000000000000000000 000000000000000000000000000000000000000     00000000                                                                                                                        000000000000000000
F0010000010008000001000080002300200013050500000000000000000201704040002001DISREL S.A.                                       D000000055550000000000000000000000100010010000000000000000000000F0010000010008000120170404000101 00000000000000000000000000000000000000000000000000000000000000000000000000000000000000000000000000000000000000000N 00000000000NCONT   00    00000000000          00000000000000000000000000000000000000000000 000000000000000A000000000000000000000000000000000000000000000 000000000000000000000000000000000000000     00000000                                                                                                                        000000000000000000
F0010000010008000002000080002300200041450500000000000000000201704040002001DISREL S.A.                                       C000000046740000000000000000000000100010010000000000000000000000F0010000010008000220170404000101 00000000000000000000000000000000000000000000000000000000000000000000000000000000000000000000000000000000000000000N 00000000000NCONT   00    00000000000          00000000000000000000000000000000000000000000 000000000000000A000000000000000000000000000000000000000000000 000000000000000000000000000000000000000     00000000                                                                                                                        000000000000000000
F0010000010008000003000080002300200042505000000000000000000201704040002001DISREL S.A.                                       C000000008810000000000000000000000100010010000000000000000000000F0010000010008000320170404000101 00000000000000000000000000000000000000000000000000000000000000000000000000000000000000000000000000000000000000000N 00000000000NCONT   00    00000000000          00000000000000000000000000000000000000000000 000000000000000A000000000000000000000000000000000000000000000 000000000000000000000000000000000000000     00000000                                                                                                                        000000000000000000
F0010000010008000004000080002300200023658300000000000000000201704040002001DISREL S.A.                                       C000000000000000000000000000000000100010010000000000000000000000F0010000010008000420170404000101 00000000000000000000000000000000000000000000000000000000000000000000000000000000000000000000000000000000000000000N 00000000000NCONT   00    00000000000          00000000000000000000000000000000000000000000 000000000000000A000000000000000000000000000000000000000000000 000000000000000000000000000000000000000     00000000                                                                                                                        000000000000000000
F0010000010008000005000080002300200013552100000000000000000201704040002001DISREL S.A.                                       D000000000000000000000000000000000100010010000000000000000000000F0010000010008000520170404000101 00000000000000000000000000000000000000000000000000000000000000000000000000000000000000000000000000000000000000000N 00000000000NCONT   00    00000000000          00000000000000000000000000000000000000000000 000000000000000A000000000000000000000000000000000000000000000 000000000000000000000000000000000000000     00000000                                                                                                                        000000000000000000
F0010000010008100001000080022903500013050500000000000000000201704040002001TECNOGLASS S.A                                    D000000050263700000000000000000000100010010000000000000000000000F0010000010008100120170404000101 00000000000000000000000000000000000000000000000000000000000000000000000000000000000000000000000000000000000000000N 00000000000NCONT   00    00000000000          00000000000000000000000000000000000000000000 000000000000000A000000000000000000000000000000000000000000000 000000000000000000000000000000000000000     00000000                                                                                                                        000000000000000000
F0010000010008100002000080022903500041450500000000000000000201704040002001TECNOGLASS S.A                                    C000000044700000000000000000000000100010010000000000000000000000F0010000010008100220170404000101 00000000000000000000000000000000000000000000000000000000000000000000000000000000000000000000000000000000000000000N 00000000000NCONT   00    00000000000          00000000000000000000000000000000000000000000 000000000000000A000000000000000000000000000000000000000000000 000000000000000000000000000000000000000     00000000                                                                                                                        000000000000000000
F0010000010008100003000080022903500042505000000000000000000201704040002001TECNOGLASS S.A                                    C000000005563700000000000000000000100010010000000000000000000000F0010000010008100320170404000101 00000000000000000000000000000000000000000000000000000000000000000000000000000000000000000000000000000000000000000N 00000000000NCONT   00    00000000000          00000000000000000000000000000000000000000000 000000000000000A000000000000000000000000000000000000000000000 000000000000000000000000000000000000000     00000000                                                                                                                        000000000000000000
F0010000010008100004000080022903500023658300000000000000000201704040002001TECNOGLASS S.A                                    C000000000000000000000000000000000100010010000000000000000000000F0010000010008100420170404000101 00000000000000000000000000000000000000000000000000000000000000000000000000000000000000000000000000000000000000000N 00000000000NCONT   00    00000000000          00000000000000000000000000000000000000000000 000000000000000A000000000000000000000000000000000000000000000 000000000000000000000000000000000000000     00000000                                                                                                                        000000000000000000
F0010000010008100005000080022903500013552100000000000000000201704040002001TECNOGLASS S.A                                    D000000000000000000000000000000000100010010000000000000000000000F0010000010008100520170404000101 00000000000000000000000000000000000000000000000000000000000000000000000000000000000000000000000000000000000000000N 00000000000NCONT   00    00000000000          00000000000000000000000000000000000000000000 000000000000000A000000000000000000000000000000000000000000000 000000000000000000000000000000000000000     00000000                                                                                                                        000000000000000000
F0010000010008200001000089010260300013050500000000000000000201704040002001FEDERICO OSORIO A. S.A.                           D000000098219300000000000000000000100010010000000000000000000000F0010000010008200120170404000101 00000000000000000000000000000000000000000000000000000000000000000000000000000000000000000000000000000000000000000N 00000000000NCONT   00    00000000000          00000000000000000000000000000000000000000000 000000000000000A000000000000000000000000000000000000000000000 000000000000000000000000000000000000000     00000000                                                                                                                        000000000000000000
F0010000010008200002000089010260300041450500000000000000000201704040002001FEDERICO OSORIO A. S.A.                           C000000089050000000000000000000000100010010000000000000000000000F0010000010008200220170404000101 00000000000000000000000000000000000000000000000000000000000000000000000000000000000000000000000000000000000000000N 00000000000NCONT   00    00000000000          00000000000000000000000000000000000000000000 000000000000000A000000000000000000000000000000000000000000000 000000000000000000000000000000000000000     00000000                                                                                                                        000000000000000000
F0010000010008200003000089010260300042505000000000000000000201704040002001FEDERICO OSORIO A. S.A.                           C000000009169300000000000000000000100010010000000000000000000000F0010000010008200320170404000101 00000000000000000000000000000000000000000000000000000000000000000000000000000000000000000000000000000000000000000N 00000000000NCONT   00    00000000000          00000000000000000000000000000000000000000000 000000000000000A000000000000000000000000000000000000000000000 000000000000000000000000000000000000000     00000000                                                                                                                        000000000000000000
F0010000010008200004000089010260300023658300000000000000000201704040002001FEDERICO OSORIO A. S.A.                           C000000000000000000000000000000000100010010000000000000000000000F0010000010008200420170404000101 00000000000000000000000000000000000000000000000000000000000000000000000000000000000000000000000000000000000000000N 00000000000NCONT   00    00000000000          00000000000000000000000000000000000000000000 000000000000000A000000000000000000000000000000000000000000000 000000000000000000000000000000000000000     00000000                                                                                                                        000000000000000000
F0010000010008200005000089010260300013552100000000000000000201704040002001FEDERICO OSORIO A. S.A.                           D000000000000000000000000000000000100010010000000000000000000000F0010000010008200520170404000101 00000000000000000000000000000000000000000000000000000000000000000000000000000000000000000000000000000000000000000N 00000000000NCONT   00    00000000000          00000000000000000000000000000000000000000000 000000000000000A000000000000000000000000000000000000000000000 000000000000000000000000000000000000000     00000000                                                                                                                        000000000000000000
F0010000010008300001000089010260300013050500000000000000000201704040002001FEDERICO OSORIO A. S.A.                           D000000059108700000000000000000000100010010000000000000000000000F0010000010008300120170404000101 00000000000000000000000000000000000000000000000000000000000000000000000000000000000000000000000000000000000000000N 00000000000NCONT   00    00000000000          00000000000000000000000000000000000000000000 000000000000000A000000000000000000000000000000000000000000000 000000000000000000000000000000000000000     00000000                                                                                                                        000000000000000000
F0010000010008300002000089010260300041450500000000000000000201704040002001FEDERICO OSORIO A. S.A.                           C000000055820000000000000000000000100010010000000000000000000000F0010000010008300220170404000101 00000000000000000000000000000000000000000000000000000000000000000000000000000000000000000000000000000000000000000N 00000000000NCONT   00    00000000000          00000000000000000000000000000000000000000000 000000000000000A000000000000000000000000000000000000000000000 000000000000000000000000000000000000000     00000000                                                                                                                        000000000000000000
F0010000010008300003000089010260300042505000000000000000000201704040002001FEDERICO OSORIO A. S.A.                           C000000003288700000000000000000000100010010000000000000000000000F0010000010008300320170404000101 00000000000000000000000000000000000000000000000000000000000000000000000000000000000000000000000000000000000000000N 00000000000NCONT   00    00000000000          00000000000000000000000000000000000000000000 000000000000000A000000000000000000000000000000000000000000000 000000000000000000000000000000000000000     00000000                                                                                                                        000000000000000000
F0010000010008300004000089010260300023658300000000000000000201704040002001FEDERICO OSORIO A. S.A.                           C000000000000000000000000000000000100010010000000000000000000000F0010000010008300420170404000101 00000000000000000000000000000000000000000000000000000000000000000000000000000000000000000000000000000000000000000N 00000000000NCONT   00    00000000000          00000000000000000000000000000000000000000000 000000000000000A000000000000000000000000000000000000000000000 000000000000000000000000000000000000000     00000000                                                                                                                        000000000000000000
F0010000010008300005000089010260300013552100000000000000000201704040002001FEDERICO OSORIO A. S.A.                           D000000000000000000000000000000000100010010000000000000000000000F0010000010008300520170404000101 00000000000000000000000000000000000000000000000000000000000000000000000000000000000000000000000000000000000000000N 00000000000NCONT   00    00000000000          00000000000000000000000000000000000000000000 000000000000000A000000000000000000000000000000000000000000000 000000000000000000000000000000000000000     00000000                                                                                                                        000000000000000000
F0010000010008400001000090064982900013050500000000000000000201704040002001DISDIES S.A.S                                     D000000104028600000000000000000000100010010000000000000000000000F0010000010008400120170404000101 00000000000000000000000000000000000000000000000000000000000000000000000000000000000000000000000000000000000000000N 00000000000NCONT   00    00000000000          00000000000000000000000000000000000000000000 000000000000000A000000000000000000000000000000000000000000000 000000000000000000000000000000000000000     00000000                                                                                                                        000000000000000000
F0010000010008400002000090064982900041450500000000000000000201704040002001DISDIES S.A.S                                     C000000090633600000000000000000000100010010000000000000000000000F0010000010008400220170404000101 00000000000000000000000000000000000000000000000000000000000000000000000000000000000000000000000000000000000000000N 00000000000NCONT   00    00000000000          00000000000000000000000000000000000000000000 000000000000000A000000000000000000000000000000000000000000000 000000000000000000000000000000000000000     00000000                                                                                                                        000000000000000000
F0010000010008400003000090064982900042505000000000000000000201704040002001DISDIES S.A.S                                     C000000013395000000000000000000000100010010000000000000000000000F0010000010008400320170404000101 00000000000000000000000000000000000000000000000000000000000000000000000000000000000000000000000000000000000000000N 00000000000NCONT   00    00000000000          00000000000000000000000000000000000000000000 000000000000000A000000000000000000000000000000000000000000000 000000000000000000000000000000000000000     00000000                                                                                                                        000000000000000000
F0010000010008400004000090064982900023658300000000000000000201704040002001DISDIES S.A.S                                     C000000000000000000000000000000000100010010000000000000000000000F0010000010008400420170404000101 00000000000000000000000000000000000000000000000000000000000000000000000000000000000000000000000000000000000000000N 00000000000NCONT   00    00000000000          00000000000000000000000000000000000000000000 000000000000000A000000000000000000000000000000000000000000000 000000000000000000000000000000000000000     00000000                                                                                                                        000000000000000000
F0010000010008400005000090064982900013552100000000000000000201704040002001DISDIES S.A.S                                     D000000000000000000000000000000000100010010000000000000000000000F0010000010008400520170404000101 00000000000000000000000000000000000000000000000000000000000000000000000000000000000000000000000000000000000000000N 00000000000NCONT   00    00000000000          00000000000000000000000000000000000000000000 000000000000000A000000000000000000000000000000000000000000000 000000000000000000000000000000000000000     00000000                                                                                                                        000000000000000000
F0010000010008700001000090008711200013050500000000000000000201704040002001PACKAGING SUPPLIERS S.A.                          D000000065453700000000000000000000100010010000000000000000000000F0010000010008700120170404000101 00000000000000000000000000000000000000000000000000000000000000000000000000000000000000000000000000000000000000000N 00000000000NCONT   00    00000000000          00000000000000000000000000000000000000000000 000000000000000A000000000000000000000000000000000000000000000 000000000000000000000000000000000000000     00000000                                                                                                                        000000000000000000
F0010000010008700002000090008711200041450500000000000000000201704040002001PACKAGING SUPPLIERS S.A.                          C000000057455700000000000000000000100010010000000000000000000000F0010000010008700220170404000101 00000000000000000000000000000000000000000000000000000000000000000000000000000000000000000000000000000000000000000N 00000000000NCONT   00    00000000000          00000000000000000000000000000000000000000000 000000000000000A000000000000000000000000000000000000000000000 000000000000000000000000000000000000000     00000000                                                                                                                        000000000000000000
F0010000010008700003000090008711200042505000000000000000000201704040002001PACKAGING SUPPLIERS S.A.                          C000000007998000000000000000000000100010010000000000000000000000F0010000010008700320170404000101 00000000000000000000000000000000000000000000000000000000000000000000000000000000000000000000000000000000000000000N 00000000000NCONT   00    00000000000          00000000000000000000000000000000000000000000 000000000000000A000000000000000000000000000000000000000000000 000000000000000000000000000000000000000     00000000                                                                                                                        000000000000000000
F0010000010008700004000090008711200023658300000000000000000201704040002001PACKAGING SUPPLIERS S.A.                          C000000000000000000000000000000000100010010000000000000000000000F0010000010008700420170404000101 00000000000000000000000000000000000000000000000000000000000000000000000000000000000000000000000000000000000000000N 00000000000NCONT   00    00000000000          00000000000000000000000000000000000000000000 000000000000000A000000000000000000000000000000000000000000000 000000000000000000000000000000000000000     00000000                                                                                                                        000000000000000000
F0010000010008700005000090008711200013552100000000000000000201704040002001PACKAGING SUPPLIERS S.A.                          D000000000000000000000000000000000100010010000000000000000000000F0010000010008700520170404000101 00000000000000000000000000000000000000000000000000000000000000000000000000000000000000000000000000000000000000000N 00000000000NCONT   00    00000000000          00000000000000000000000000000000000000000000 000000000000000A000000000000000000000000000000000000000000000 000000000000000000000000000000000000000     00000000                                                                                                                        000000000000000000
F0010000010008800001000090008711200013050500000000000000000201704040002001PACKAGING SUPPLIERS S.A.                          D000000025223700000000000000000000100010010000000000000000000000F0010000010008800120170404000101 00000000000000000000000000000000000000000000000000000000000000000000000000000000000000000000000000000000000000000N 00000000000NCONT   00    00000000000          00000000000000000000000000000000000000000000 000000000000000A000000000000000000000000000000000000000000000 000000000000000000000000000000000000000     00000000                                                                                                                        000000000000000000
F0010000010008800002000090008711200041450500000000000000000201704040002001PACKAGING SUPPLIERS S.A.                          C000000023078700000000000000000000100010010000000000000000000000F0010000010008800220170404000101 00000000000000000000000000000000000000000000000000000000000000000000000000000000000000000000000000000000000000000N 00000000000NCONT   00    00000000000          00000000000000000000000000000000000000000000 000000000000000A000000000000000000000000000000000000000000000 000000000000000000000000000000000000000     00000000                                                                                                                        000000000000000000
F0010000010008800003000090008711200042505000000000000000000201704040002001PACKAGING SUPPLIERS S.A.                          C000000002145000000000000000000000100010010000000000000000000000F0010000010008800320170404000101 00000000000000000000000000000000000000000000000000000000000000000000000000000000000000000000000000000000000000000N 00000000000NCONT   00    00000000000          00000000000000000000000000000000000000000000 000000000000000A000000000000000000000000000000000000000000000 000000000000000000000000000000000000000     00000000                                                                                                                        000000000000000000
F0010000010008800004000090008711200023658300000000000000000201704040002001PACKAGING SUPPLIERS S.A.                          C000000000000000000000000000000000100010010000000000000000000000F0010000010008800420170404000101 00000000000000000000000000000000000000000000000000000000000000000000000000000000000000000000000000000000000000000N 00000000000NCONT   00    00000000000          00000000000000000000000000000000000000000000 000000000000000A000000000000000000000000000000000000000000000 000000000000000000000000000000000000000     00000000                                                                                                                        000000000000000000
F0010000010008800005000090008711200013552100000000000000000201704040002001PACKAGING SUPPLIERS S.A.                          D000000000000000000000000000000000100010010000000000000000000000F0010000010008800520170404000101 00000000000000000000000000000000000000000000000000000000000000000000000000000000000000000000000000000000000000000N 00000000000NCONT   00    00000000000          00000000000000000000000000000000000000000000 000000000000000A000000000000000000000000000000000000000000000 000000000000000000000000000000000000000     00000000                                                                                                                        000000000000000000
F0010000010008900001000080202094000013050500000000000000000201704040002001DISTRIB. OMAR ORREGO S.A.                         D000000056912700000000000000000000100010010000000000000000000000F0010000010008900120170404000101 00000000000000000000000000000000000000000000000000000000000000000000000000000000000000000000000000000000000000000N 00000000000NCONT   00    00000000000          00000000000000000000000000000000000000000000 000000000000000A000000000000000000000000000000000000000000000 000000000000000000000000000000000000000     00000000                                                                                                                        000000000000000000
F0010000010008900002000080202094000041450500000000000000000201704040002001DISTRIB. OMAR ORREGO S.A.                         C000000033150000000000000000000000100010010000000000000000000000F0010000010008900220170404000101 00000000000000000000000000000000000000000000000000000000000000000000000000000000000000000000000000000000000000000N 00000000000NCONT   00    00000000000          00000000000000000000000000000000000000000000 000000000000000A000000000000000000000000000000000000000000000 000000000000000000000000000000000000000     00000000                                                                                                                        000000000000000000
F0010000010008900003000080202094000042505000000000000000000201704040002001DISTRIB. OMAR ORREGO S.A.                         C000000023762700000000000000000000100010010000000000000000000000F0010000010008900320170404000101 00000000000000000000000000000000000000000000000000000000000000000000000000000000000000000000000000000000000000000N 00000000000NCONT   00    00000000000          00000000000000000000000000000000000000000000 000000000000000A000000000000000000000000000000000000000000000 000000000000000000000000000000000000000     00000000                                                                                                                        000000000000000000
F0010000010008900004000080202094000023658300000000000000000201704040002001DISTRIB. OMAR ORREGO S.A.                         C000000000000000000000000000000000100010010000000000000000000000F0010000010008900420170404000101 00000000000000000000000000000000000000000000000000000000000000000000000000000000000000000000000000000000000000000N 00000000000NCONT   00    00000000000          00000000000000000000000000000000000000000000 000000000000000A000000000000000000000000000000000000000000000 000000000000000000000000000000000000000     00000000                                                                                                                        000000000000000000
F0010000010008900005000080202094000013552100000000000000000201704040002001DISTRIB. OMAR ORREGO S.A.                         D000000000000000000000000000000000100010010000000000000000000000F0010000010008900520170404000101 00000000000000000000000000000000000000000000000000000000000000000000000000000000000000000000000000000000000000000N 00000000000NCONT   00    00000000000          00000000000000000000000000000000000000000000 000000000000000A000000000000000000000000000000000000000000000 000000000000000000000000000000000000000     00000000                                                                                                                        000000000000000000
F0010000010009000001000080202094000013050500000000000000000201704040002001DISTRIB. OMAR ORREGO S.A.                         D000000054124700000000000000000000100010010000000000000000000000F0010000010009000120170404000101 00000000000000000000000000000000000000000000000000000000000000000000000000000000000000000000000000000000000000000N 00000000000NCONT   00    00000000000          00000000000000000000000000000000000000000000 000000000000000A000000000000000000000000000000000000000000000 000000000000000000000000000000000000000     00000000                                                                                                                        000000000000000000
F0010000010009000002000080202094000041450500000000000000000201704040002001DISTRIB. OMAR ORREGO S.A.                         C000000040200000000000000000000000100010010000000000000000000000F0010000010009000220170404000101 00000000000000000000000000000000000000000000000000000000000000000000000000000000000000000000000000000000000000000N 00000000000NCONT   00    00000000000          00000000000000000000000000000000000000000000 000000000000000A000000000000000000000000000000000000000000000 000000000000000000000000000000000000000     00000000                                                                                                                        000000000000000000
F0010000010009000003000080202094000042505000000000000000000201704040002001DISTRIB. OMAR ORREGO S.A.                         C000000013924700000000000000000000100010010000000000000000000000F0010000010009000320170404000101 00000000000000000000000000000000000000000000000000000000000000000000000000000000000000000000000000000000000000000N 00000000000NCONT   00    00000000000          00000000000000000000000000000000000000000000 000000000000000A000000000000000000000000000000000000000000000 000000000000000000000000000000000000000     00000000                                                                                                                        000000000000000000
F0010000010009000004000080202094000023658300000000000000000201704040002001DISTRIB. OMAR ORREGO S.A.                         C000000000000000000000000000000000100010010000000000000000000000F0010000010009000420170404000101 00000000000000000000000000000000000000000000000000000000000000000000000000000000000000000000000000000000000000000N 00000000000NCONT   00    00000000000          00000000000000000000000000000000000000000000 000000000000000A000000000000000000000000000000000000000000000 000000000000000000000000000000000000000     00000000                                                                                                                        000000000000000000
F0010000010009000005000080202094000013552100000000000000000201704040002001DISTRIB. OMAR ORREGO S.A.                         D000000000000000000000000000000000100010010000000000000000000000F0010000010009000520170404000101 00000000000000000000000000000000000000000000000000000000000000000000000000000000000000000000000000000000000000000N 00000000000NCONT   00    00000000000          00000000000000000000000000000000000000000000 000000000000000A000000000000000000000000000000000000000000000 000000000000000000000000000000000000000     00000000                                                                                                                        000000000000000000
F0010000010009100001000080201112800013050500000000000000000201704040002001CANGURO INTERNATIONAL S.A.                        D000000094224400000000000000000000100010010000000000000000000000F0010000010009100120170404000101 00000000000000000000000000000000000000000000000000000000000000000000000000000000000000000000000000000000000000000N 00000000000NCONT   00    00000000000          00000000000000000000000000000000000000000000 000000000000000A000000000000000000000000000000000000000000000 000000000000000000000000000000000000000     00000000                                                                                                                        000000000000000000
F0010000010009100002000080201112800041450500000000000000000201704040002001CANGURO INTERNATIONAL S.A.                        C000000092079100000000000000000000100010010000000000000000000000F0010000010009100220170404000101 00000000000000000000000000000000000000000000000000000000000000000000000000000000000000000000000000000000000000000N 00000000000NCONT   00    00000000000          00000000000000000000000000000000000000000000 000000000000000A000000000000000000000000000000000000000000000 000000000000000000000000000000000000000     00000000                                                                                                                        000000000000000000
F0010000010009100003000080201112800042505000000000000000000201704040002001CANGURO INTERNATIONAL S.A.                        C000000002145300000000000000000000100010010000000000000000000000F0010000010009100320170404000101 00000000000000000000000000000000000000000000000000000000000000000000000000000000000000000000000000000000000000000N 00000000000NCONT   00    00000000000          00000000000000000000000000000000000000000000 000000000000000A000000000000000000000000000000000000000000000 000000000000000000000000000000000000000     00000000                                                                                                                        000000000000000000
F0010000010009100004000080201112800023658300000000000000000201704040002001CANGURO INTERNATIONAL S.A.                        C000000000000000000000000000000000100010010000000000000000000000F0010000010009100420170404000101 00000000000000000000000000000000000000000000000000000000000000000000000000000000000000000000000000000000000000000N 00000000000NCONT   00    00000000000          00000000000000000000000000000000000000000000 000000000000000A000000000000000000000000000000000000000000000 000000000000000000000000000000000000000     00000000                                                                                                                        000000000000000000
F0010000010009100005000080201112800013552100000000000000000201704040002001CANGURO INTERNATIONAL S.A.                        D000000000000000000000000000000000100010010000000000000000000000F0010000010009100520170404000101 00000000000000000000000000000000000000000000000000000000000000000000000000000000000000000000000000000000000000000N 00000000000NCONT   00    00000000000          00000000000000000000000000000000000000000000 000000000000000A000000000000000000000000000000000000000000000 000000000000000000000000000000000000000     00000000                                                                                                                        000000000000000000
F0010000010009200001000080201112800013050500000000000000000201704040002001CANGURO INTERNATIONAL S.A.                        D000000254967700000000000000000000100010010000000000000000000000F0010000010009200120170404000101 00000000000000000000000000000000000000000000000000000000000000000000000000000000000000000000000000000000000000000N 00000000000NCONT   00    00000000000          00000000000000000000000000000000000000000000 000000000000000A000000000000000000000000000000000000000000000 000000000000000000000000000000000000000     00000000                                                                                                                        000000000000000000
F0010000010009200002000080201112800041450500000000000000000201704040002001CANGURO INTERNATIONAL S.A.                        C000000241310200000000000000000000100010010000000000000000000000F0010000010009200220170404000101 00000000000000000000000000000000000000000000000000000000000000000000000000000000000000000000000000000000000000000N 00000000000NCONT   00    00000000000          00000000000000000000000000000000000000000000 000000000000000A000000000000000000000000000000000000000000000 000000000000000000000000000000000000000     00000000                                                                                                                        000000000000000000
F0010000010009200003000080201112800042505000000000000000000201704040002001CANGURO INTERNATIONAL S.A.                        C000000013657500000000000000000000100010010000000000000000000000F0010000010009200320170404000101 00000000000000000000000000000000000000000000000000000000000000000000000000000000000000000000000000000000000000000N 00000000000NCONT   00    00000000000          00000000000000000000000000000000000000000000 000000000000000A000000000000000000000000000000000000000000000 000000000000000000000000000000000000000     00000000                                                                                                                        000000000000000000
F0010000010009200004000080201112800023658300000000000000000201704040002001CANGURO INTERNATIONAL S.A.                        C000000000000000000000000000000000100010010000000000000000000000F0010000010009200420170404000101 00000000000000000000000000000000000000000000000000000000000000000000000000000000000000000000000000000000000000000N 00000000000NCONT   00    00000000000          00000000000000000000000000000000000000000000 000000000000000A000000000000000000000000000000000000000000000 000000000000000000000000000000000000000     00000000                                                                                                                        000000000000000000
F0010000010009200005000080201112800013552100000000000000000201704040002001CANGURO INTERNATIONAL S.A.                        D000000000000000000000000000000000100010010000000000000000000000F0010000010009200520170404000101 00000000000000000000000000000000000000000000000000000000000000000000000000000000000000000000000000000000000000000N 00000000000NCONT   00    00000000000          00000000000000000000000000000000000000000000 000000000000000A000000000000000000000000000000000000000000000 000000000000000000000000000000000000000     00000000                                                                                                                        000000000000000000
F0010000010009300001000080201112800013050500000000000000000201704040002001CANGURO INTERNATIONAL S.A.                        D000000009920000000000000000000000100010010000000000000000000000F0010000010009300120170404000101 00000000000000000000000000000000000000000000000000000000000000000000000000000000000000000000000000000000000000000N 00000000000NCONT   00    00000000000          00000000000000000000000000000000000000000000 000000000000000A000000000000000000000000000000000000000000000 000000000000000000000000000000000000000     00000000                                                                                                                        000000000000000000
F0010000010009300002000080201112800041450500000000000000000201704040002001CANGURO INTERNATIONAL S.A.                        C000000009920000000000000000000000100010010000000000000000000000F0010000010009300220170404000101 00000000000000000000000000000000000000000000000000000000000000000000000000000000000000000000000000000000000000000N 00000000000NCONT   00    00000000000          00000000000000000000000000000000000000000000 000000000000000A000000000000000000000000000000000000000000000 000000000000000000000000000000000000000     00000000                                                                                                                        000000000000000000
F0010000010009300003000080201112800042505000000000000000000201704040002001CANGURO INTERNATIONAL S.A.                        C000000000000000000000000000000000100010010000000000000000000000F0010000010009300320170404000101 00000000000000000000000000000000000000000000000000000000000000000000000000000000000000000000000000000000000000000N 00000000000NCONT   00    00000000000          00000000000000000000000000000000000000000000 000000000000000A000000000000000000000000000000000000000000000 000000000000000000000000000000000000000     00000000                                                                                                                        000000000000000000
F0010000010009300004000080201112800023658300000000000000000201704040002001CANGURO INTERNATIONAL S.A.                        C000000000000000000000000000000000100010010000000000000000000000F0010000010009300420170404000101 00000000000000000000000000000000000000000000000000000000000000000000000000000000000000000000000000000000000000000N 00000000000NCONT   00    00000000000          00000000000000000000000000000000000000000000 000000000000000A000000000000000000000000000000000000000000000 000000000000000000000000000000000000000     00000000                                                                                                                        000000000000000000
F0010000010009300005000080201112800013552100000000000000000201704040002001CANGURO INTERNATIONAL S.A.                        D000000000000000000000000000000000100010010000000000000000000000F0010000010009300520170404000101 00000000000000000000000000000000000000000000000000000000000000000000000000000000000000000000000000000000000000000N 00000000000NCONT   00    00000000000          00000000000000000000000000000000000000000000 000000000000000A000000000000000000000000000000000000000000000 000000000000000000000000000000000000000     00000000                                                                                                                        000000000000000000
F0010000010009400001000000872328300011050500000000000000000201704040002001DISTRIBUCIONES LAO                                D000000006000000000000000000000000100010010000000000000000000000F0010000010009400120170404000101 00000000000000000000000000000000000000000000000000000000000000000000000000000000000000000000000000000000000000000N 00000000000NCONT   00    00000000000          00000000000000000000000000000000000000000000 000000000000000A000000000000000000000000000000000000000000000 000000000000000000000000000000000000000     00000000                                                                                                                        000000000000000000
F0010000010009400002000000872328300041450500000000000000000201704040002001DISTRIBUCIONES LAO                                C000000004500000000000000000000000100010010000000000000000000000F0010000010009400220170404000101 00000000000000000000000000000000000000000000000000000000000000000000000000000000000000000000000000000000000000000N 00000000000NCONT   00    00000000000          00000000000000000000000000000000000000000000 000000000000000A000000000000000000000000000000000000000000000 000000000000000000000000000000000000000     00000000                                                                                                                        000000000000000000
F0010000010009400003000000872328300042505000000000000000000201704040002001DISTRIBUCIONES LAO                                C000000001500000000000000000000000100010010000000000000000000000F0010000010009400320170404000101 00000000000000000000000000000000000000000000000000000000000000000000000000000000000000000000000000000000000000000N 00000000000NCONT   00    00000000000          00000000000000000000000000000000000000000000 000000000000000A000000000000000000000000000000000000000000000 000000000000000000000000000000000000000     00000000                                                                                                                        000000000000000000
F0010000010009400004000000872328300023658300000000000000000201704040002001DISTRIBUCIONES LAO                                C000000000000000000000000000000000100010010000000000000000000000F0010000010009400420170404000101 00000000000000000000000000000000000000000000000000000000000000000000000000000000000000000000000000000000000000000N 00000000000NCONT   00    00000000000          00000000000000000000000000000000000000000000 000000000000000A000000000000000000000000000000000000000000000 000000000000000000000000000000000000000     00000000                                                                                                                        000000000000000000
F0010000010009400005000000872328300013552100000000000000000201704040002001DISTRIBUCIONES LAO                                D000000000000000000000000000000000100010010000000000000000000000F0010000010009400520170404000101 00000000000000000000000000000000000000000000000000000000000000000000000000000000000000000000000000000000000000000N 00000000000NCONT   00    00000000000          00000000000000000000000000000000000000000000 000000000000000A000000000000000000000000000000000000000000000 000000000000000000000000000000000000000     00000000                                                                                                                        000000000000000000
F0010000010009500001000090024619400013050500000000000000000201704040002001COMERCIALIZADORA SALMAR LTDA                      D000000010300000000000000000000000100010010000000000000000000000F0010000010009500120170404000101 00000000000000000000000000000000000000000000000000000000000000000000000000000000000000000000000000000000000000000N 00000000000NCONT   00    00000000000          00000000000000000000000000000000000000000000 000000000000000A000000000000000000000000000000000000000000000 000000000000000000000000000000000000000     00000000                                                                                                                        000000000000000000
F0010000010009500002000090024619400041450500000000000000000201704040002001COMERCIALIZADORA SALMAR LTDA                      C000000007800000000000000000000000100010010000000000000000000000F0010000010009500220170404000101 00000000000000000000000000000000000000000000000000000000000000000000000000000000000000000000000000000000000000000N 00000000000NCONT   00    00000000000          00000000000000000000000000000000000000000000 000000000000000A000000000000000000000000000000000000000000000 000000000000000000000000000000000000000     00000000                                                                                                                        000000000000000000
F0010000010009500003000090024619400042505000000000000000000201704040002001COMERCIALIZADORA SALMAR LTDA                      C000000002500000000000000000000000100010010000000000000000000000F0010000010009500320170404000101 00000000000000000000000000000000000000000000000000000000000000000000000000000000000000000000000000000000000000000N 00000000000NCONT   00    00000000000          00000000000000000000000000000000000000000000 000000000000000A000000000000000000000000000000000000000000000 000000000000000000000000000000000000000     00000000                                                                                                                        000000000000000000
F0010000010009500004000090024619400023658300000000000000000201704040002001COMERCIALIZADORA SALMAR LTDA                      C000000000000000000000000000000000100010010000000000000000000000F0010000010009500420170404000101 00000000000000000000000000000000000000000000000000000000000000000000000000000000000000000000000000000000000000000N 00000000000NCONT   00    00000000000          00000000000000000000000000000000000000000000 000000000000000A000000000000000000000000000000000000000000000 000000000000000000000000000000000000000     00000000                                                                                                                        000000000000000000
F0010000010009500005000090024619400013552100000000000000000201704040002001COMERCIALIZADORA SALMAR LTDA                      D000000000000000000000000000000000100010010000000000000000000000F0010000010009500520170404000101 00000000000000000000000000000000000000000000000000000000000000000000000000000000000000000000000000000000000000000N 00000000000NCONT   00    00000000000          00000000000000000000000000000000000000000000 000000000000000A000000000000000000000000000000000000000000000 000000000000000000000000000000000000000     00000000                                                                                                                        000000000000000000
F0010000010009600001000114082682800013050500000000000000000201704040002001MARIA MERCEDES ROCA SANCHEZ  / FULL QUIMICOS      D000000008630000000000000000000000100010010000000000000000000000F0010000010009600120170404000101 00000000000000000000000000000000000000000000000000000000000000000000000000000000000000000000000000000000000000000N 00000000000NCONT   00    00000000000          00000000000000000000000000000000000000000000 000000000000000A000000000000000000000000000000000000000000000 000000000000000000000000000000000000000     00000000                                                                                                                        000000000000000000
F0010000010009600002000114082682800041450500000000000000000201704040002001MARIA MERCEDES ROCA SANCHEZ  / FULL QUIMICOS      C000000008100000000000000000000000100010010000000000000000000000F0010000010009600220170404000101 00000000000000000000000000000000000000000000000000000000000000000000000000000000000000000000000000000000000000000N 00000000000NCONT   00    00000000000          00000000000000000000000000000000000000000000 000000000000000A000000000000000000000000000000000000000000000 000000000000000000000000000000000000000     00000000                                                                                                                        000000000000000000
F0010000010009600003000114082682800042505000000000000000000201704040002001MARIA MERCEDES ROCA SANCHEZ  / FULL QUIMICOS      C000000000530000000000000000000000100010010000000000000000000000F0010000010009600320170404000101 00000000000000000000000000000000000000000000000000000000000000000000000000000000000000000000000000000000000000000N 00000000000NCONT   00    00000000000          00000000000000000000000000000000000000000000 000000000000000A000000000000000000000000000000000000000000000 000000000000000000000000000000000000000     00000000                                                                                                                        000000000000000000
F0010000010009600004000114082682800023658300000000000000000201704040002001MARIA MERCEDES ROCA SANCHEZ  / FULL QUIMICOS      C000000000000000000000000000000000100010010000000000000000000000F0010000010009600420170404000101 00000000000000000000000000000000000000000000000000000000000000000000000000000000000000000000000000000000000000000N 00000000000NCONT   00    00000000000          00000000000000000000000000000000000000000000 000000000000000A000000000000000000000000000000000000000000000 000000000000000000000000000000000000000     00000000                                                                                                                        000000000000000000
F0010000010009600005000114082682800013552100000000000000000201704040002001MARIA MERCEDES ROCA SANCHEZ  / FULL QUIMICOS      D000000000000000000000000000000000100010010000000000000000000000F0010000010009600520170404000101 00000000000000000000000000000000000000000000000000000000000000000000000000000000000000000000000000000000000000000N 00000000000NCONT   00    00000000000          00000000000000000000000000000000000000000000 000000000000000A000000000000000000000000000000000000000000000 000000000000000000000000000000000000000     00000000                                                                                                                        000000000000000000
F0010000010009700001000000827614700013050500000000000000000201704040002001ALVARO  HERNAN  PEREZ ALVAREZ                     D000000005400000000000000000000000100010010000000000000000000000F0010000010009700120170404000101 00000000000000000000000000000000000000000000000000000000000000000000000000000000000000000000000000000000000000000N 00000000000NCONT   00    00000000000          00000000000000000000000000000000000000000000 000000000000000A000000000000000000000000000000000000000000000 000000000000000000000000000000000000000     00000000                                                                                                                        000000000000000000
F0010000010009700002000000827614700041450500000000000000000201704040002001ALVARO  HERNAN  PEREZ ALVAREZ                     C000000004800000000000000000000000100010010000000000000000000000F0010000010009700220170404000101 00000000000000000000000000000000000000000000000000000000000000000000000000000000000000000000000000000000000000000N 00000000000NCONT   00    00000000000          00000000000000000000000000000000000000000000 000000000000000A000000000000000000000000000000000000000000000 000000000000000000000000000000000000000     00000000                                                                                                                        000000000000000000
F0010000010009700003000000827614700042505000000000000000000201704040002001ALVARO  HERNAN  PEREZ ALVAREZ                     C000000000600000000000000000000000100010010000000000000000000000F0010000010009700320170404000101 00000000000000000000000000000000000000000000000000000000000000000000000000000000000000000000000000000000000000000N 00000000000NCONT   00    00000000000          00000000000000000000000000000000000000000000 000000000000000A000000000000000000000000000000000000000000000 000000000000000000000000000000000000000     00000000                                                                                                                        000000000000000000
F0010000010009700004000000827614700023658300000000000000000201704040002001ALVARO  HERNAN  PEREZ ALVAREZ                     C000000000000000000000000000000000100010010000000000000000000000F0010000010009700420170404000101 00000000000000000000000000000000000000000000000000000000000000000000000000000000000000000000000000000000000000000N 00000000000NCONT   00    00000000000          00000000000000000000000000000000000000000000 000000000000000A000000000000000000000000000000000000000000000 000000000000000000000000000000000000000     00000000                                                                                                                        000000000000000000
F0010000010009700005000000827614700013552100000000000000000201704040002001ALVARO  HERNAN  PEREZ ALVAREZ                     D000000000000000000000000000000000100010010000000000000000000000F0010000010009700520170404000101 00000000000000000000000000000000000000000000000000000000000000000000000000000000000000000000000000000000000000000N 00000000000NCONT   00    00000000000          00000000000000000000000000000000000000000000 000000000000000A000000000000000000000000000000000000000000000 000000000000000000000000000000000000000     00000000                                                                                                                        000000000000000000
F0010000010009800001000090001973700013050500000000000000000201704040002001DISTRIBUIDORA Y PAPELERIA VENEPLAS LTDA           D000000012350000000000000000000000100010010000000000000000000000F0010000010009800120170404000101 00000000000000000000000000000000000000000000000000000000000000000000000000000000000000000000000000000000000000000N 00000000000NCONT   00    00000000000          00000000000000000000000000000000000000000000 000000000000000A000000000000000000000000000000000000000000000 000000000000000000000000000000000000000     00000000                                                                                                                        000000000000000000
F0010000010009800002000090001973700041450500000000000000000201704040002001DISTRIBUIDORA Y PAPELERIA VENEPLAS LTDA           C000000012200000000000000000000000100010010000000000000000000000F0010000010009800220170404000101 00000000000000000000000000000000000000000000000000000000000000000000000000000000000000000000000000000000000000000N 00000000000NCONT   00    00000000000          00000000000000000000000000000000000000000000 000000000000000A000000000000000000000000000000000000000000000 000000000000000000000000000000000000000     00000000                                                                                                                        000000000000000000
F0010000010009800003000090001973700042505000000000000000000201704040002001DISTRIBUIDORA Y PAPELERIA VENEPLAS LTDA           C000000000150000000000000000000000100010010000000000000000000000F0010000010009800320170404000101 00000000000000000000000000000000000000000000000000000000000000000000000000000000000000000000000000000000000000000N 00000000000NCONT   00    00000000000          00000000000000000000000000000000000000000000 000000000000000A000000000000000000000000000000000000000000000 000000000000000000000000000000000000000     00000000                                                                                                                        000000000000000000
F0010000010009800004000090001973700023658300000000000000000201704040002001DISTRIBUIDORA Y PAPELERIA VENEPLAS LTDA           C000000000000000000000000000000000100010010000000000000000000000F0010000010009800420170404000101 00000000000000000000000000000000000000000000000000000000000000000000000000000000000000000000000000000000000000000N 00000000000NCONT   00    00000000000          00000000000000000000000000000000000000000000 000000000000000A000000000000000000000000000000000000000000000 000000000000000000000000000000000000000     00000000                                                                                                                        000000000000000000
F0010000010009800005000090001973700013552100000000000000000201704040002001DISTRIBUIDORA Y PAPELERIA VENEPLAS LTDA           D000000000000000000000000000000000100010010000000000000000000000F0010000010009800520170404000101 00000000000000000000000000000000000000000000000000000000000000000000000000000000000000000000000000000000000000000N 00000000000NCONT   00    00000000000          00000000000000000000000000000000000000000000 000000000000000A000000000000000000000000000000000000000000000 000000000000000000000000000000000000000     00000000                                                                                                                        000000000000000000
F0010000010009900001000083008772100013050500000000000000000201704040002001ILUMEC SAS                                        D000000029225000000000000000000000100010010000000000000000000000F0010000010009900120170404000101 00000000000000000000000000000000000000000000000000000000000000000000000000000000000000000000000000000000000000000N 00000000000NCONT   00    00000000000          00000000000000000000000000000000000000000000 000000000000000A000000000000000000000000000000000000000000000 000000000000000000000000000000000000000     00000000                                                                                                                        000000000000000000
F0010000010009900002000083008772100041450500000000000000000201704040002001ILUMEC SAS                                        C000000021120000000000000000000000100010010000000000000000000000F0010000010009900220170404000101 00000000000000000000000000000000000000000000000000000000000000000000000000000000000000000000000000000000000000000N 00000000000NCONT   00    00000000000          00000000000000000000000000000000000000000000 000000000000000A000000000000000000000000000000000000000000000 000000000000000000000000000000000000000     00000000                                                                                                                        000000000000000000
F0010000010009900003000083008772100042505000000000000000000201704040002001ILUMEC SAS                                        C000000008105000000000000000000000100010010000000000000000000000F0010000010009900320170404000101 00000000000000000000000000000000000000000000000000000000000000000000000000000000000000000000000000000000000000000N 00000000000NCONT   00    00000000000          00000000000000000000000000000000000000000000 000000000000000A000000000000000000000000000000000000000000000 000000000000000000000000000000000000000     00000000                                                                                                                        000000000000000000
F0010000010009900004000083008772100023658300000000000000000201704040002001ILUMEC SAS                                        C000000000000000000000000000000000100010010000000000000000000000F0010000010009900420170404000101 00000000000000000000000000000000000000000000000000000000000000000000000000000000000000000000000000000000000000000N 00000000000NCONT   00    00000000000          00000000000000000000000000000000000000000000 000000000000000A000000000000000000000000000000000000000000000 000000000000000000000000000000000000000     00000000                                                                                                                        000000000000000000
F0010000010009900005000083008772100013552100000000000000000201704040002001ILUMEC SAS                                        D000000000000000000000000000000000100010010000000000000000000000F0010000010009900520170404000101 00000000000000000000000000000000000000000000000000000000000000000000000000000000000000000000000000000000000000000N 00000000000NCONT   00    00000000000          00000000000000000000000000000000000000000000 000000000000000A000000000000000000000000000000000000000000000 000000000000000000000000000000000000000     00000000                                                                                                                        000000000000000000
F0010000010010000001000090038852800013050500000000000000000201704040002001EL COMERCIO ELECTRICO DE LA CO                    D000000034120000000000000000000000100010010000000000000000000000F0010000010010000120170404000101 00000000000000000000000000000000000000000000000000000000000000000000000000000000000000000000000000000000000000000N 00000000000NCONT   00    00000000000          00000000000000000000000000000000000000000000 000000000000000A000000000000000000000000000000000000000000000 000000000000000000000000000000000000000     00000000                                                                                                                        000000000000000000
F0010000010010000002000090038852800041450500000000000000000201704040002001EL COMERCIO ELECTRICO DE LA CO                    C000000027640000000000000000000000100010010000000000000000000000F0010000010010000220170404000101 00000000000000000000000000000000000000000000000000000000000000000000000000000000000000000000000000000000000000000N 00000000000NCONT   00    00000000000          00000000000000000000000000000000000000000000 000000000000000A000000000000000000000000000000000000000000000 000000000000000000000000000000000000000     00000000                                                                                                                        000000000000000000
F0010000010010000003000090038852800042505000000000000000000201704040002001EL COMERCIO ELECTRICO DE LA CO                    C000000006480000000000000000000000100010010000000000000000000000F0010000010010000320170404000101 00000000000000000000000000000000000000000000000000000000000000000000000000000000000000000000000000000000000000000N 00000000000NCONT   00    00000000000          00000000000000000000000000000000000000000000 000000000000000A000000000000000000000000000000000000000000000 000000000000000000000000000000000000000     00000000                                                                                                                        000000000000000000
F0010000010010000004000090038852800023658300000000000000000201704040002001EL COMERCIO ELECTRICO DE LA CO                    C000000000000000000000000000000000100010010000000000000000000000F0010000010010000420170404000101 00000000000000000000000000000000000000000000000000000000000000000000000000000000000000000000000000000000000000000N 00000000000NCONT   00    00000000000          00000000000000000000000000000000000000000000 000000000000000A000000000000000000000000000000000000000000000 000000000000000000000000000000000000000     00000000                                                                                                                        000000000000000000
F0010000010010000005000090038852800013552100000000000000000201704040002001EL COMERCIO ELECTRICO DE LA CO                    D000000000000000000000000000000000100010010000000000000000000000F0010000010010000520170404000101 00000000000000000000000000000000000000000000000000000000000000000000000000000000000000000000000000000000000000000N 00000000000NCONT   00    00000000000          00000000000000000000000000000000000000000000 000000000000000A000000000000000000000000000000000000000000000 000000000000000000000000000000000000000     00000000                                                                                                                        000000000000000000
F0010000010010100001000090050863700013050500000000000000000201704040002001COMERCIALIZADORA PERFECT SAS                      D000000014421300000000000000000000100010010000000000000000000000F0010000010010100120170404000101 00000000000000000000000000000000000000000000000000000000000000000000000000000000000000000000000000000000000000000N 00000000000NCONT   00    00000000000          00000000000000000000000000000000000000000000 000000000000000A000000000000000000000000000000000000000000000 000000000000000000000000000000000000000     00000000                                                                                                                        000000000000000000
F0010000010010100002000090050863700041450500000000000000000201704040002001COMERCIALIZADORA PERFECT SAS                      C000000007571300000000000000000000100010010000000000000000000000F0010000010010100220170404000101 00000000000000000000000000000000000000000000000000000000000000000000000000000000000000000000000000000000000000000N 00000000000NCONT   00    00000000000          00000000000000000000000000000000000000000000 000000000000000A000000000000000000000000000000000000000000000 000000000000000000000000000000000000000     00000000                                                                                                                        000000000000000000
F0010000010010100003000090050863700042505000000000000000000201704040002001COMERCIALIZADORA PERFECT SAS                      C000000006850000000000000000000000100010010000000000000000000000F0010000010010100320170404000101 00000000000000000000000000000000000000000000000000000000000000000000000000000000000000000000000000000000000000000N 00000000000NCONT   00    00000000000          00000000000000000000000000000000000000000000 000000000000000A000000000000000000000000000000000000000000000 000000000000000000000000000000000000000     00000000                                                                                                                        000000000000000000
F0010000010010100004000090050863700023658300000000000000000201704040002001COMERCIALIZADORA PERFECT SAS                      C000000000000000000000000000000000100010010000000000000000000000F0010000010010100420170404000101 00000000000000000000000000000000000000000000000000000000000000000000000000000000000000000000000000000000000000000N 00000000000NCONT   00    00000000000          00000000000000000000000000000000000000000000 000000000000000A000000000000000000000000000000000000000000000 000000000000000000000000000000000000000     00000000                                                                                                                        000000000000000000
F0010000010010100005000090050863700013552100000000000000000201704040002001COMERCIALIZADORA PERFECT SAS                      D000000000000000000000000000000000100010010000000000000000000000F0010000010010100520170404000101 00000000000000000000000000000000000000000000000000000000000000000000000000000000000000000000000000000000000000000N 00000000000NCONT   00    00000000000          00000000000000000000000000000000000000000000 000000000000000A000000000000000000000000000000000000000000000 000000000000000000000000000000000000000     00000000                                                                                                                        000000000000000000
F0010000010010200001000086003979400013050500000000000000000201704040002001CALYPSO BARRANQUILLA LTDA                         D000000022832800000000000000000000100010010000000000000000000000F0010000010010200120170404000101 00000000000000000000000000000000000000000000000000000000000000000000000000000000000000000000000000000000000000000N 00000000000NCONT   00    00000000000          00000000000000000000000000000000000000000000 000000000000000A000000000000000000000000000000000000000000000 000000000000000000000000000000000000000     00000000                                                                                                                        000000000000000000
F0010000010010200002000086003979400041450500000000000000000201704040002001CALYPSO BARRANQUILLA LTDA                         C000000020360000000000000000000000100010010000000000000000000000F0010000010010200220170404000101 00000000000000000000000000000000000000000000000000000000000000000000000000000000000000000000000000000000000000000N 00000000000NCONT   00    00000000000          00000000000000000000000000000000000000000000 000000000000000A000000000000000000000000000000000000000000000 000000000000000000000000000000000000000     00000000                                                                                                                        000000000000000000
F0010000010010200003000086003979400042505000000000000000000201704040002001CALYPSO BARRANQUILLA LTDA                         C000000002472800000000000000000000100010010000000000000000000000F0010000010010200320170404000101 00000000000000000000000000000000000000000000000000000000000000000000000000000000000000000000000000000000000000000N 00000000000NCONT   00    00000000000          00000000000000000000000000000000000000000000 000000000000000A000000000000000000000000000000000000000000000 000000000000000000000000000000000000000     00000000                                                                                                                        000000000000000000
F0010000010010200004000086003979400023658300000000000000000201704040002001CALYPSO BARRANQUILLA LTDA                         C000000000000000000000000000000000100010010000000000000000000000F0010000010010200420170404000101 00000000000000000000000000000000000000000000000000000000000000000000000000000000000000000000000000000000000000000N 00000000000NCONT   00    00000000000          00000000000000000000000000000000000000000000 000000000000000A000000000000000000000000000000000000000000000 000000000000000000000000000000000000000     00000000                                                                                                                        000000000000000000
F0010000010010200005000086003979400013552100000000000000000201704040002001CALYPSO BARRANQUILLA LTDA                         D000000000000000000000000000000000100010010000000000000000000000F0010000010010200520170404000101 00000000000000000000000000000000000000000000000000000000000000000000000000000000000000000000000000000000000000000N 00000000000NCONT   00    00000000000          00000000000000000000000000000000000000000000 000000000000000A000000000000000000000000000000000000000000000 000000000000000000000000000000000000000     00000000                                                                                                                        000000000000000000
F0010000010010300001000089011193000013050500000000000000000201704040002001DOQUIMICA DE LA COSTA LT DA                       D000000008000000000000000000000000100010010000000000000000000000F0010000010010300120170404000101 00000000000000000000000000000000000000000000000000000000000000000000000000000000000000000000000000000000000000000N 00000000000NCONT   00    00000000000          00000000000000000000000000000000000000000000 000000000000000A000000000000000000000000000000000000000000000 000000000000000000000000000000000000000     00000000                                                                                                                        000000000000000000
F0010000010010300002000089011193000041450500000000000000000201704040002001DOQUIMICA DE LA COSTA LT DA                       C000000006000000000000000000000000100010010000000000000000000000F0010000010010300220170404000101 00000000000000000000000000000000000000000000000000000000000000000000000000000000000000000000000000000000000000000N 00000000000NCONT   00    00000000000          00000000000000000000000000000000000000000000 000000000000000A000000000000000000000000000000000000000000000 000000000000000000000000000000000000000     00000000                                                                                                                        000000000000000000
F0010000010010300003000089011193000042505000000000000000000201704040002001DOQUIMICA DE LA COSTA LT DA                       C000000002000000000000000000000000100010010000000000000000000000F0010000010010300320170404000101 00000000000000000000000000000000000000000000000000000000000000000000000000000000000000000000000000000000000000000N 00000000000NCONT   00    00000000000          00000000000000000000000000000000000000000000 000000000000000A000000000000000000000000000000000000000000000 000000000000000000000000000000000000000     00000000                                                                                                                        000000000000000000
F0010000010010300004000089011193000023658300000000000000000201704040002001DOQUIMICA DE LA COSTA LT DA                       C000000000000000000000000000000000100010010000000000000000000000F0010000010010300420170404000101 00000000000000000000000000000000000000000000000000000000000000000000000000000000000000000000000000000000000000000N 00000000000NCONT   00    00000000000          00000000000000000000000000000000000000000000 000000000000000A000000000000000000000000000000000000000000000 000000000000000000000000000000000000000     00000000                                                                                                                        000000000000000000
F0010000010010300005000089011193000013552100000000000000000201704040002001DOQUIMICA DE LA COSTA LT DA                       D000000000000000000000000000000000100010010000000000000000000000F0010000010010300520170404000101 00000000000000000000000000000000000000000000000000000000000000000000000000000000000000000000000000000000000000000N 00000000000NCONT   00    00000000000          00000000000000000000000000000000000000000000 000000000000000A000000000000000000000000000000000000000000000 000000000000000000000000000000000000000     00000000                                                                                                                        000000000000000000
F0010000010010400001000090040631000013050500000000000000000201704040002001BEINEX SAS                                        D000000014995200000000000000000000100010010000000000000000000000F0010000010010400120170404000101 00000000000000000000000000000000000000000000000000000000000000000000000000000000000000000000000000000000000000000N 00000000000NCONT   00    00000000000          00000000000000000000000000000000000000000000 000000000000000A000000000000000000000000000000000000000000000 000000000000000000000000000000000000000     00000000                                                                                                                        000000000000000000
F0010000010010400002000090040631000041450500000000000000000201704040002001BEINEX SAS                                        C000000015620000000000000000000000100010010000000000000000000000F0010000010010400220170404000101 00000000000000000000000000000000000000000000000000000000000000000000000000000000000000000000000000000000000000000N 00000000000NCONT   00    00000000000          00000000000000000000000000000000000000000000 000000000000000A000000000000000000000000000000000000000000000 000000000000000000000000000000000000000     00000000                                                                                                                        000000000000000000
