F0010000008462600001000086053108300011050500000000000000000201604080002001EL PALACIO DEL ALUMINIO  LTDA                     D000000006200000000000000000000000100010010000000000000000000000F0010000008462600120160408000101 00000000000000000000000000000000000000000000000000000000000000000000000000000000000000000000000000000000000000000N 00000000000NCONT   00    00000000000          00000000000000000000000000000000000000000000 000000000000000A000000000000000000000000000000000000000000000 000000000000000000000000000000000000000     00000000                                                                                                                        000000000000000000
F0010000008462600002000086053108300041450500000000000000000201604080002001EL PALACIO DEL ALUMINIO  LTDA                     C000000004650000000000000000000000100010010000000000000000000000F0010000008462600220160408000101 00000000000000000000000000000000000000000000000000000000000000000000000000000000000000000000000000000000000000000N 00000000000NCONT   00    00000000000          00000000000000000000000000000000000000000000 000000000000000A000000000000000000000000000000000000000000000 000000000000000000000000000000000000000     00000000                                                                                                                        000000000000000000
F0010000008462600003000086053108300042505000000000000000000201604080002001EL PALACIO DEL ALUMINIO  LTDA                     C000000001550000000000000000000000100010010000000000000000000000F0010000008462600320160408000101 00000000000000000000000000000000000000000000000000000000000000000000000000000000000000000000000000000000000000000N 00000000000NCONT   00    00000000000          00000000000000000000000000000000000000000000 000000000000000A000000000000000000000000000000000000000000000 000000000000000000000000000000000000000     00000000                                                                                                                        000000000000000000
F0010000008462600004000086053108300023658300000000000000000201604080002001EL PALACIO DEL ALUMINIO  LTDA                     C000000000037200000000000000000000100010010000000000000000000000F0010000008462600420160408000101 00000000000000000000000000000000000000000000000000000000000000000000000000000000000000000000000000000000000000000N 00000000000NCONT   00    00000000000          00000000000000000000000000000000000000000000 000000000000000A000000000000000000000000000000000000000000000 000000000000000000000000000000000000000     00000000                                                                                                                        000000000000000000
F0010000008462600005000086053108300013552100000000000000000201604080002001EL PALACIO DEL ALUMINIO  LTDA                     D000000000037200000000000000000000100010010000000000000000000000F0010000008462600520160408000101 00000000000000000000000000000000000000000000000000000000000000000000000000000000000000000000000000000000000000000N 00000000000NCONT   00    00000000000          00000000000000000000000000000000000000000000 000000000000000A000000000000000000000000000000000000000000000 000000000000000000000000000000000000000     00000000                                                                                                                        000000000000000000
F0010000008462700001000089011033000011050500000000000000000201604080002001INDUSTRIAS CRUZ & CAÑON LTDA                     D000000015000000000000000000000000100010010000000000000000000000F0010000008462700120160408000101 00000000000000000000000000000000000000000000000000000000000000000000000000000000000000000000000000000000000000000N 00000000000NCONT   00    00000000000          00000000000000000000000000000000000000000000 000000000000000A000000000000000000000000000000000000000000000 000000000000000000000000000000000000000     00000000                                                                                                                        000000000000000000
F0010000008462700002000089011033000041450500000000000000000201604080002001INDUSTRIAS CRUZ & CAÑON LTDA                     C000000013500000000000000000000000100010010000000000000000000000F0010000008462700220160408000101 00000000000000000000000000000000000000000000000000000000000000000000000000000000000000000000000000000000000000000N 00000000000NCONT   00    00000000000          00000000000000000000000000000000000000000000 000000000000000A000000000000000000000000000000000000000000000 000000000000000000000000000000000000000     00000000                                                                                                                        000000000000000000
F0010000008462700003000089011033000042505000000000000000000201604080002001INDUSTRIAS CRUZ & CAÑON LTDA                     C000000001500000000000000000000000100010010000000000000000000000F0010000008462700320160408000101 00000000000000000000000000000000000000000000000000000000000000000000000000000000000000000000000000000000000000000N 00000000000NCONT   00    00000000000          00000000000000000000000000000000000000000000 000000000000000A000000000000000000000000000000000000000000000 000000000000000000000000000000000000000     00000000                                                                                                                        000000000000000000
F0010000008462700004000089011033000023658300000000000000000201604080002001INDUSTRIAS CRUZ & CAÑON LTDA                     C000000000108000000000000000000000100010010000000000000000000000F0010000008462700420160408000101 00000000000000000000000000000000000000000000000000000000000000000000000000000000000000000000000000000000000000000N 00000000000NCONT   00    00000000000          00000000000000000000000000000000000000000000 000000000000000A000000000000000000000000000000000000000000000 000000000000000000000000000000000000000     00000000                                                                                                                        000000000000000000
F0010000008462700005000089011033000013552100000000000000000201604080002001INDUSTRIAS CRUZ & CAÑON LTDA                     D000000000108000000000000000000000100010010000000000000000000000F0010000008462700520160408000101 00000000000000000000000000000000000000000000000000000000000000000000000000000000000000000000000000000000000000000N 00000000000NCONT   00    00000000000          00000000000000000000000000000000000000000000 000000000000000A000000000000000000000000000000000000000000000 000000000000000000000000000000000000000     00000000                                                                                                                        000000000000000000
F0010000008462800001000000878369700011050500000000000000000201604080002001REYNALDO PANZA DE LA HOZ                          D000000001100000000000000000000000100010010000000000000000000000F0010000008462800120160408000101 00000000000000000000000000000000000000000000000000000000000000000000000000000000000000000000000000000000000000000N 00000000000NCONT   00    00000000000          00000000000000000000000000000000000000000000 000000000000000A000000000000000000000000000000000000000000000 000000000000000000000000000000000000000     00000000                                                                                                                        000000000000000000
F0010000008462800002000000878369700041450500000000000000000201604080002001REYNALDO PANZA DE LA HOZ                          C000000001000000000000000000000000100010010000000000000000000000F0010000008462800220160408000101 00000000000000000000000000000000000000000000000000000000000000000000000000000000000000000000000000000000000000000N 00000000000NCONT   00    00000000000          00000000000000000000000000000000000000000000 000000000000000A000000000000000000000000000000000000000000000 000000000000000000000000000000000000000     00000000                                                                                                                        000000000000000000
F0010000008462800003000000878369700042505000000000000000000201604080002001REYNALDO PANZA DE LA HOZ                          C000000000100000000000000000000000100010010000000000000000000000F0010000008462800320160408000101 00000000000000000000000000000000000000000000000000000000000000000000000000000000000000000000000000000000000000000N 00000000000NCONT   00    00000000000          00000000000000000000000000000000000000000000 000000000000000A000000000000000000000000000000000000000000000 000000000000000000000000000000000000000     00000000                                                                                                                        000000000000000000
F0010000008462800004000000878369700023658300000000000000000201604080002001REYNALDO PANZA DE LA HOZ                          C000000000008000000000000000000000100010010000000000000000000000F0010000008462800420160408000101 00000000000000000000000000000000000000000000000000000000000000000000000000000000000000000000000000000000000000000N 00000000000NCONT   00    00000000000          00000000000000000000000000000000000000000000 000000000000000A000000000000000000000000000000000000000000000 000000000000000000000000000000000000000     00000000                                                                                                                        000000000000000000
F0010000008462800005000000878369700013552100000000000000000201604080002001REYNALDO PANZA DE LA HOZ                          D000000000008000000000000000000000100010010000000000000000000000F0010000008462800520160408000101 00000000000000000000000000000000000000000000000000000000000000000000000000000000000000000000000000000000000000000N 00000000000NCONT   00    00000000000          00000000000000000000000000000000000000000000 000000000000000A000000000000000000000000000000000000000000000 000000000000000000000000000000000000000     00000000                                                                                                                        000000000000000000
F0010000008462900001000007314673400011050500000000000000000201604080002001ALONSO LOPEZ                                      D000000003500000000000000000000000100010010000000000000000000000F0010000008462900120160408000101 00000000000000000000000000000000000000000000000000000000000000000000000000000000000000000000000000000000000000000N 00000000000NCONT   00    00000000000          00000000000000000000000000000000000000000000 000000000000000A000000000000000000000000000000000000000000000 000000000000000000000000000000000000000     00000000                                                                                                                        000000000000000000
F0010000008462900002000007314673400041450500000000000000000201604080002001ALONSO LOPEZ                                      C000000002000000000000000000000000100010010000000000000000000000F0010000008462900220160408000101 00000000000000000000000000000000000000000000000000000000000000000000000000000000000000000000000000000000000000000N 00000000000NCONT   00    00000000000          00000000000000000000000000000000000000000000 000000000000000A000000000000000000000000000000000000000000000 000000000000000000000000000000000000000     00000000                                                                                                                        000000000000000000
F0010000008462900003000007314673400042505000000000000000000201604080002001ALONSO LOPEZ                                      C000000001500000000000000000000000100010010000000000000000000000F0010000008462900320160408000101 00000000000000000000000000000000000000000000000000000000000000000000000000000000000000000000000000000000000000000N 00000000000NCONT   00    00000000000          00000000000000000000000000000000000000000000 000000000000000A000000000000000000000000000000000000000000000 000000000000000000000000000000000000000     00000000                                                                                                                        000000000000000000
F0010000008462900004000007314673400023658300000000000000000201604080002001ALONSO LOPEZ                                      C000000000016000000000000000000000100010010000000000000000000000F0010000008462900420160408000101 00000000000000000000000000000000000000000000000000000000000000000000000000000000000000000000000000000000000000000N 00000000000NCONT   00    00000000000          00000000000000000000000000000000000000000000 000000000000000A000000000000000000000000000000000000000000000 000000000000000000000000000000000000000     00000000                                                                                                                        000000000000000000
F0010000008462900005000007314673400013552100000000000000000201604080002001ALONSO LOPEZ                                      D000000000016000000000000000000000100010010000000000000000000000F0010000008462900520160408000101 00000000000000000000000000000000000000000000000000000000000000000000000000000000000000000000000000000000000000000N 00000000000NCONT   00    00000000000          00000000000000000000000000000000000000000000 000000000000000A000000000000000000000000000000000000000000000 000000000000000000000000000000000000000     00000000                                                                                                                        000000000000000000
F0010000008463000001000003265780700011050500000000000000000201604080002001ZUNILDA GUERRERO                                  D000000001500000000000000000000000100010010000000000000000000000F0010000008463000120160408000101 00000000000000000000000000000000000000000000000000000000000000000000000000000000000000000000000000000000000000000N 00000000000NCONT   00    00000000000          00000000000000000000000000000000000000000000 000000000000000A000000000000000000000000000000000000000000000 000000000000000000000000000000000000000     00000000                                                                                                                        000000000000000000
F0010000008463000002000003265780700041450500000000000000000201604080002001ZUNILDA GUERRERO                                  C000000001300000000000000000000000100010010000000000000000000000F0010000008463000220160408000101 00000000000000000000000000000000000000000000000000000000000000000000000000000000000000000000000000000000000000000N 00000000000NCONT   00    00000000000          00000000000000000000000000000000000000000000 000000000000000A000000000000000000000000000000000000000000000 000000000000000000000000000000000000000     00000000                                                                                                                        000000000000000000
F0010000008463000003000003265780700042505000000000000000000201604080002001ZUNILDA GUERRERO                                  C000000000200000000000000000000000100010010000000000000000000000F0010000008463000320160408000101 00000000000000000000000000000000000000000000000000000000000000000000000000000000000000000000000000000000000000000N 00000000000NCONT   00    00000000000          00000000000000000000000000000000000000000000 000000000000000A000000000000000000000000000000000000000000000 000000000000000000000000000000000000000     00000000                                                                                                                        000000000000000000
F0010000008463000004000003265780700023658300000000000000000201604080002001ZUNILDA GUERRERO                                  C000000000010400000000000000000000100010010000000000000000000000F0010000008463000420160408000101 00000000000000000000000000000000000000000000000000000000000000000000000000000000000000000000000000000000000000000N 00000000000NCONT   00    00000000000          00000000000000000000000000000000000000000000 000000000000000A000000000000000000000000000000000000000000000 000000000000000000000000000000000000000     00000000                                                                                                                        000000000000000000
F0010000008463000005000003265780700013552100000000000000000201604080002001ZUNILDA GUERRERO                                  D000000000010400000000000000000000100010010000000000000000000000F0010000008463000520160408000101 00000000000000000000000000000000000000000000000000000000000000000000000000000000000000000000000000000000000000000N 00000000000NCONT   00    00000000000          00000000000000000000000000000000000000000000 000000000000000A000000000000000000000000000000000000000000000 000000000000000000000000000000000000000     00000000                                                                                                                        000000000000000000
F0010000008463100001000090034602400011050500000000000000000201604080002001PRODUCTOS NACIONALES PARAFINICOS LA CUSTODIA S.A.SD000000001050000000000000000000000100010010000000000000000000000F0010000008463100120160408000101 00000000000000000000000000000000000000000000000000000000000000000000000000000000000000000000000000000000000000000N 00000000000NCONT   00    00000000000          00000000000000000000000000000000000000000000 000000000000000A000000000000000000000000000000000000000000000 000000000000000000000000000000000000000     00000000                                                                                                                        000000000000000000
F0010000008463100002000090034602400041450500000000000000000201604080002001PRODUCTOS NACIONALES PARAFINICOS LA CUSTODIA S.A.SC000000000950000000000000000000000100010010000000000000000000000F0010000008463100220160408000101 00000000000000000000000000000000000000000000000000000000000000000000000000000000000000000000000000000000000000000N 00000000000NCONT   00    00000000000          00000000000000000000000000000000000000000000 000000000000000A000000000000000000000000000000000000000000000 000000000000000000000000000000000000000     00000000                                                                                                                        000000000000000000
F0010000008463100003000090034602400042505000000000000000000201604080002001PRODUCTOS NACIONALES PARAFINICOS LA CUSTODIA S.A.SC000000000100000000000000000000000100010010000000000000000000000F0010000008463100320160408000101 00000000000000000000000000000000000000000000000000000000000000000000000000000000000000000000000000000000000000000N 00000000000NCONT   00    00000000000          00000000000000000000000000000000000000000000 000000000000000A000000000000000000000000000000000000000000000 000000000000000000000000000000000000000     00000000                                                                                                                        000000000000000000
F0010000008463100004000090034602400023658300000000000000000201604080002001PRODUCTOS NACIONALES PARAFINICOS LA CUSTODIA S.A.SC000000000007600000000000000000000100010010000000000000000000000F0010000008463100420160408000101 00000000000000000000000000000000000000000000000000000000000000000000000000000000000000000000000000000000000000000N 00000000000NCONT   00    00000000000          00000000000000000000000000000000000000000000 000000000000000A000000000000000000000000000000000000000000000 000000000000000000000000000000000000000     00000000                                                                                                                        000000000000000000
F0010000008463100005000090034602400013552100000000000000000201604080002001PRODUCTOS NACIONALES PARAFINICOS LA CUSTODIA S.A.SD000000000007600000000000000000000100010010000000000000000000000F0010000008463100520160408000101 00000000000000000000000000000000000000000000000000000000000000000000000000000000000000000000000000000000000000000N 00000000000NCONT   00    00000000000          00000000000000000000000000000000000000000000 000000000000000A000000000000000000000000000000000000000000000 000000000000000000000000000000000000000     00000000                                                                                                                        000000000000000000
F0010000008463200001000090034602400011050500000000000000000201604080002001PRODUCTOS NACIONALES PARAFINICOS LA CUSTODIA S.A.SD000000001050000000000000000000000100010010000000000000000000000F0010000008463200120160408000101 00000000000000000000000000000000000000000000000000000000000000000000000000000000000000000000000000000000000000000N 00000000000NCONT   00    00000000000          00000000000000000000000000000000000000000000 000000000000000A000000000000000000000000000000000000000000000 000000000000000000000000000000000000000     00000000                                                                                                                        000000000000000000
F0010000008463200002000090034602400041450500000000000000000201604080002001PRODUCTOS NACIONALES PARAFINICOS LA CUSTODIA S.A.SC000000000950000000000000000000000100010010000000000000000000000F0010000008463200220160408000101 00000000000000000000000000000000000000000000000000000000000000000000000000000000000000000000000000000000000000000N 00000000000NCONT   00    00000000000          00000000000000000000000000000000000000000000 000000000000000A000000000000000000000000000000000000000000000 000000000000000000000000000000000000000     00000000                                                                                                                        000000000000000000
F0010000008463200003000090034602400042505000000000000000000201604080002001PRODUCTOS NACIONALES PARAFINICOS LA CUSTODIA S.A.SC000000000100000000000000000000000100010010000000000000000000000F0010000008463200320160408000101 00000000000000000000000000000000000000000000000000000000000000000000000000000000000000000000000000000000000000000N 00000000000NCONT   00    00000000000          00000000000000000000000000000000000000000000 000000000000000A000000000000000000000000000000000000000000000 000000000000000000000000000000000000000     00000000                                                                                                                        000000000000000000
F0010000008463200004000090034602400023658300000000000000000201604080002001PRODUCTOS NACIONALES PARAFINICOS LA CUSTODIA S.A.SC000000000007600000000000000000000100010010000000000000000000000F0010000008463200420160408000101 00000000000000000000000000000000000000000000000000000000000000000000000000000000000000000000000000000000000000000N 00000000000NCONT   00    00000000000          00000000000000000000000000000000000000000000 000000000000000A000000000000000000000000000000000000000000000 000000000000000000000000000000000000000     00000000                                                                                                                        000000000000000000
F0010000008463200005000090034602400013552100000000000000000201604080002001PRODUCTOS NACIONALES PARAFINICOS LA CUSTODIA S.A.SD000000000007600000000000000000000100010010000000000000000000000F0010000008463200520160408000101 00000000000000000000000000000000000000000000000000000000000000000000000000000000000000000000000000000000000000000N 00000000000NCONT   00    00000000000          00000000000000000000000000000000000000000000 000000000000000A000000000000000000000000000000000000000000000 000000000000000000000000000000000000000     00000000                                                                                                                        000000000000000000
F0010000008463300001000090015305700011050500000000000000000201604080002001PLASTICOS Y SERVICIOS BARRANQUILLA EU             D000000003900000000000000000000000100010010000000000000000000000F0010000008463300120160408000101 00000000000000000000000000000000000000000000000000000000000000000000000000000000000000000000000000000000000000000N 00000000000NCONT   00    00000000000          00000000000000000000000000000000000000000000 000000000000000A000000000000000000000000000000000000000000000 000000000000000000000000000000000000000     00000000                                                                                                                        000000000000000000
F0010000008463300002000090015305700041450500000000000000000201604080002001PLASTICOS Y SERVICIOS BARRANQUILLA EU             C000000002900000000000000000000000100010010000000000000000000000F0010000008463300220160408000101 00000000000000000000000000000000000000000000000000000000000000000000000000000000000000000000000000000000000000000N 00000000000NCONT   00    00000000000          00000000000000000000000000000000000000000000 000000000000000A000000000000000000000000000000000000000000000 000000000000000000000000000000000000000     00000000                                                                                                                        000000000000000000
F0010000008463300003000090015305700042505000000000000000000201604080002001PLASTICOS Y SERVICIOS BARRANQUILLA EU             C000000001000000000000000000000000100010010000000000000000000000F0010000008463300320160408000101 00000000000000000000000000000000000000000000000000000000000000000000000000000000000000000000000000000000000000000N 00000000000NCONT   00    00000000000          00000000000000000000000000000000000000000000 000000000000000A000000000000000000000000000000000000000000000 000000000000000000000000000000000000000     00000000                                                                                                                        000000000000000000
F0010000008463300004000090015305700023658300000000000000000201604080002001PLASTICOS Y SERVICIOS BARRANQUILLA EU             C000000000023200000000000000000000100010010000000000000000000000F0010000008463300420160408000101 00000000000000000000000000000000000000000000000000000000000000000000000000000000000000000000000000000000000000000N 00000000000NCONT   00    00000000000          00000000000000000000000000000000000000000000 000000000000000A000000000000000000000000000000000000000000000 000000000000000000000000000000000000000     00000000                                                                                                                        000000000000000000
F0010000008463300005000090015305700013552100000000000000000201604080002001PLASTICOS Y SERVICIOS BARRANQUILLA EU             D000000000023200000000000000000000100010010000000000000000000000F0010000008463300520160408000101 00000000000000000000000000000000000000000000000000000000000000000000000000000000000000000000000000000000000000000N 00000000000NCONT   00    00000000000          00000000000000000000000000000000000000000000 000000000000000A000000000000000000000000000000000000000000000 000000000000000000000000000000000000000     00000000                                                                                                                        000000000000000000
F0010000008463400001000007213133300011050500000000000000000201604080002001ALVARO ALBERTO FANDIÑO GOMEZ                     D000000001050000000000000000000000100010010000000000000000000000F0010000008463400120160408000101 00000000000000000000000000000000000000000000000000000000000000000000000000000000000000000000000000000000000000000N 00000000000NCONT   00    00000000000          00000000000000000000000000000000000000000000 000000000000000A000000000000000000000000000000000000000000000 000000000000000000000000000000000000000     00000000                                                                                                                        000000000000000000
F0010000008463400002000007213133300041450500000000000000000201604080002001ALVARO ALBERTO FANDIÑO GOMEZ                     C000000000950000000000000000000000100010010000000000000000000000F0010000008463400220160408000101 00000000000000000000000000000000000000000000000000000000000000000000000000000000000000000000000000000000000000000N 00000000000NCONT   00    00000000000          00000000000000000000000000000000000000000000 000000000000000A000000000000000000000000000000000000000000000 000000000000000000000000000000000000000     00000000                                                                                                                        000000000000000000
F0010000008463400003000007213133300042505000000000000000000201604080002001ALVARO ALBERTO FANDIÑO GOMEZ                     C000000000100000000000000000000000100010010000000000000000000000F0010000008463400320160408000101 00000000000000000000000000000000000000000000000000000000000000000000000000000000000000000000000000000000000000000N 00000000000NCONT   00    00000000000          00000000000000000000000000000000000000000000 000000000000000A000000000000000000000000000000000000000000000 000000000000000000000000000000000000000     00000000                                                                                                                        000000000000000000
F0010000008463400004000007213133300023658300000000000000000201604080002001ALVARO ALBERTO FANDIÑO GOMEZ                     C000000000007600000000000000000000100010010000000000000000000000F0010000008463400420160408000101 00000000000000000000000000000000000000000000000000000000000000000000000000000000000000000000000000000000000000000N 00000000000NCONT   00    00000000000          00000000000000000000000000000000000000000000 000000000000000A000000000000000000000000000000000000000000000 000000000000000000000000000000000000000     00000000                                                                                                                        000000000000000000
F0010000008463400005000007213133300013552100000000000000000201604080002001ALVARO ALBERTO FANDIÑO GOMEZ                     D000000000007600000000000000000000100010010000000000000000000000F0010000008463400520160408000101 00000000000000000000000000000000000000000000000000000000000000000000000000000000000000000000000000000000000000000N 00000000000NCONT   00    00000000000          00000000000000000000000000000000000000000000 000000000000000A000000000000000000000000000000000000000000000 000000000000000000000000000000000000000     00000000                                                                                                                        000000000000000000
F0010000008463500001000001795376100011050500000000000000000201604080002001WILMER ANTONIO CAMARGO                            D000000007000000000000000000000000100010010000000000000000000000F0010000008463500120160408000101 00000000000000000000000000000000000000000000000000000000000000000000000000000000000000000000000000000000000000000N 00000000000NCONT   00    00000000000          00000000000000000000000000000000000000000000 000000000000000A000000000000000000000000000000000000000000000 000000000000000000000000000000000000000     00000000                                                                                                                        000000000000000000
F0010000008463500002000001795376100041450500000000000000000201604080002001WILMER ANTONIO CAMARGO                            C000000006500000000000000000000000100010010000000000000000000000F0010000008463500220160408000101 00000000000000000000000000000000000000000000000000000000000000000000000000000000000000000000000000000000000000000N 00000000000NCONT   00    00000000000          00000000000000000000000000000000000000000000 000000000000000A000000000000000000000000000000000000000000000 000000000000000000000000000000000000000     00000000                                                                                                                        000000000000000000
F0010000008463500003000001795376100042505000000000000000000201604080002001WILMER ANTONIO CAMARGO                            C000000000500000000000000000000000100010010000000000000000000000F0010000008463500320160408000101 00000000000000000000000000000000000000000000000000000000000000000000000000000000000000000000000000000000000000000N 00000000000NCONT   00    00000000000          00000000000000000000000000000000000000000000 000000000000000A000000000000000000000000000000000000000000000 000000000000000000000000000000000000000     00000000                                                                                                                        000000000000000000
F0010000008463500004000001795376100023658300000000000000000201604080002001WILMER ANTONIO CAMARGO                            C000000000052000000000000000000000100010010000000000000000000000F0010000008463500420160408000101 00000000000000000000000000000000000000000000000000000000000000000000000000000000000000000000000000000000000000000N 00000000000NCONT   00    00000000000          00000000000000000000000000000000000000000000 000000000000000A000000000000000000000000000000000000000000000 000000000000000000000000000000000000000     00000000                                                                                                                        000000000000000000
F0010000008463500005000001795376100013552100000000000000000201604080002001WILMER ANTONIO CAMARGO                            D000000000052000000000000000000000100010010000000000000000000000F0010000008463500520160408000101 00000000000000000000000000000000000000000000000000000000000000000000000000000000000000000000000000000000000000000N 00000000000NCONT   00    00000000000          00000000000000000000000000000000000000000000 000000000000000A000000000000000000000000000000000000000000000 000000000000000000000000000000000000000     00000000                                                                                                                        000000000000000000
F0010000008463600001000090050144800011050500000000000000000201604080002001PLASTICOS JR ASOCIADOS SAS                        D000000003900000000000000000000000100010010000000000000000000000F0010000008463600120160408000101 00000000000000000000000000000000000000000000000000000000000000000000000000000000000000000000000000000000000000000N 00000000000NCONT   00    00000000000          00000000000000000000000000000000000000000000 000000000000000A000000000000000000000000000000000000000000000 000000000000000000000000000000000000000     00000000                                                                                                                        000000000000000000
F0010000008463600002000090050144800041450500000000000000000201604080002001PLASTICOS JR ASOCIADOS SAS                        C000000002900000000000000000000000100010010000000000000000000000F0010000008463600220160408000101 00000000000000000000000000000000000000000000000000000000000000000000000000000000000000000000000000000000000000000N 00000000000NCONT   00    00000000000          00000000000000000000000000000000000000000000 000000000000000A000000000000000000000000000000000000000000000 000000000000000000000000000000000000000     00000000                                                                                                                        000000000000000000
F0010000008463600003000090050144800042505000000000000000000201604080002001PLASTICOS JR ASOCIADOS SAS                        C000000001000000000000000000000000100010010000000000000000000000F0010000008463600320160408000101 00000000000000000000000000000000000000000000000000000000000000000000000000000000000000000000000000000000000000000N 00000000000NCONT   00    00000000000          00000000000000000000000000000000000000000000 000000000000000A000000000000000000000000000000000000000000000 000000000000000000000000000000000000000     00000000                                                                                                                        000000000000000000
F0010000008463600004000090050144800023658300000000000000000201604080002001PLASTICOS JR ASOCIADOS SAS                        C000000000023200000000000000000000100010010000000000000000000000F0010000008463600420160408000101 00000000000000000000000000000000000000000000000000000000000000000000000000000000000000000000000000000000000000000N 00000000000NCONT   00    00000000000          00000000000000000000000000000000000000000000 000000000000000A000000000000000000000000000000000000000000000 000000000000000000000000000000000000000     00000000                                                                                                                        000000000000000000
F0010000008463600005000090050144800013552100000000000000000201604080002001PLASTICOS JR ASOCIADOS SAS                        D000000000023200000000000000000000100010010000000000000000000000F0010000008463600520160408000101 00000000000000000000000000000000000000000000000000000000000000000000000000000000000000000000000000000000000000000N 00000000000NCONT   00    00000000000          00000000000000000000000000000000000000000000 000000000000000A000000000000000000000000000000000000000000000 000000000000000000000000000000000000000     00000000                                                                                                                        000000000000000000
F0010000008463700001000000870907300011050500000000000000000201604080002001SURTIDOR FERRETERO                                D000000004400000000000000000000000100010010000000000000000000000F0010000008463700120160408000101 00000000000000000000000000000000000000000000000000000000000000000000000000000000000000000000000000000000000000000N 00000000000NCONT   00    00000000000          00000000000000000000000000000000000000000000 000000000000000A000000000000000000000000000000000000000000000 000000000000000000000000000000000000000     00000000                                                                                                                        000000000000000000
F0010000008463700002000000870907300041450500000000000000000201604080002001SURTIDOR FERRETERO                                C000000003360000000000000000000000100010010000000000000000000000F0010000008463700220160408000101 00000000000000000000000000000000000000000000000000000000000000000000000000000000000000000000000000000000000000000N 00000000000NCONT   00    00000000000          00000000000000000000000000000000000000000000 000000000000000A000000000000000000000000000000000000000000000 000000000000000000000000000000000000000     00000000                                                                                                                        000000000000000000
F0010000008463700003000000870907300042505000000000000000000201604080002001SURTIDOR FERRETERO                                C000000001040000000000000000000000100010010000000000000000000000F0010000008463700320160408000101 00000000000000000000000000000000000000000000000000000000000000000000000000000000000000000000000000000000000000000N 00000000000NCONT   00    00000000000          00000000000000000000000000000000000000000000 000000000000000A000000000000000000000000000000000000000000000 000000000000000000000000000000000000000     00000000                                                                                                                        000000000000000000
F0010000008463700004000000870907300023658300000000000000000201604080002001SURTIDOR FERRETERO                                C000000000026900000000000000000000100010010000000000000000000000F0010000008463700420160408000101 00000000000000000000000000000000000000000000000000000000000000000000000000000000000000000000000000000000000000000N 00000000000NCONT   00    00000000000          00000000000000000000000000000000000000000000 000000000000000A000000000000000000000000000000000000000000000 000000000000000000000000000000000000000     00000000                                                                                                                        000000000000000000
F0010000008463700005000000870907300013552100000000000000000201604080002001SURTIDOR FERRETERO                                D000000000026900000000000000000000100010010000000000000000000000F0010000008463700520160408000101 00000000000000000000000000000000000000000000000000000000000000000000000000000000000000000000000000000000000000000N 00000000000NCONT   00    00000000000          00000000000000000000000000000000000000000000 000000000000000A000000000000000000000000000000000000000000000 000000000000000000000000000000000000000     00000000                                                                                                                        000000000000000000
F0010000008463800001000004544401900011050500000000000000000201604080002001FISIOTER                                          D000000002200000000000000000000000100010010000000000000000000000F0010000008463800120160408000101 00000000000000000000000000000000000000000000000000000000000000000000000000000000000000000000000000000000000000000N 00000000000NCONT   00    00000000000          00000000000000000000000000000000000000000000 000000000000000A000000000000000000000000000000000000000000000 000000000000000000000000000000000000000     00000000                                                                                                                        000000000000000000
F0010000008463800002000004544401900041450500000000000000000201604080002001FISIOTER                                          C000000002000000000000000000000000100010010000000000000000000000F0010000008463800220160408000101 00000000000000000000000000000000000000000000000000000000000000000000000000000000000000000000000000000000000000000N 00000000000NCONT   00    00000000000          00000000000000000000000000000000000000000000 000000000000000A000000000000000000000000000000000000000000000 000000000000000000000000000000000000000     00000000                                                                                                                        000000000000000000
F0010000008463800003000004544401900042505000000000000000000201604080002001FISIOTER                                          C000000000200000000000000000000000100010010000000000000000000000F0010000008463800320160408000101 00000000000000000000000000000000000000000000000000000000000000000000000000000000000000000000000000000000000000000N 00000000000NCONT   00    00000000000          00000000000000000000000000000000000000000000 000000000000000A000000000000000000000000000000000000000000000 000000000000000000000000000000000000000     00000000                                                                                                                        000000000000000000
F0010000008463800004000004544401900023658300000000000000000201604080002001FISIOTER                                          C000000000016000000000000000000000100010010000000000000000000000F0010000008463800420160408000101 00000000000000000000000000000000000000000000000000000000000000000000000000000000000000000000000000000000000000000N 00000000000NCONT   00    00000000000          00000000000000000000000000000000000000000000 000000000000000A000000000000000000000000000000000000000000000 000000000000000000000000000000000000000     00000000                                                                                                                        000000000000000000
F0010000008463800005000004544401900013552100000000000000000201604080002001FISIOTER                                          D000000000016000000000000000000000100010010000000000000000000000F0010000008463800520160408000101 00000000000000000000000000000000000000000000000000000000000000000000000000000000000000000000000000000000000000000N 00000000000NCONT   00    00000000000          00000000000000000000000000000000000000000000 000000000000000A000000000000000000000000000000000000000000000 000000000000000000000000000000000000000     00000000                                                                                                                        000000000000000000
F0010000008463900001000004544401900011050500000000000000000201604080002001FISIOTER                                          D000000001100000000000000000000000100010010000000000000000000000F0010000008463900120160408000101 00000000000000000000000000000000000000000000000000000000000000000000000000000000000000000000000000000000000000000N 00000000000NCONT   00    00000000000          00000000000000000000000000000000000000000000 000000000000000A000000000000000000000000000000000000000000000 000000000000000000000000000000000000000     00000000                                                                                                                        000000000000000000
F0010000008463900002000004544401900041450500000000000000000201604080002001FISIOTER                                          C000000001000000000000000000000000100010010000000000000000000000F0010000008463900220160408000101 00000000000000000000000000000000000000000000000000000000000000000000000000000000000000000000000000000000000000000N 00000000000NCONT   00    00000000000          00000000000000000000000000000000000000000000 000000000000000A000000000000000000000000000000000000000000000 000000000000000000000000000000000000000     00000000                                                                                                                        000000000000000000
F0010000008463900003000004544401900042505000000000000000000201604080002001FISIOTER                                          C000000000100000000000000000000000100010010000000000000000000000F0010000008463900320160408000101 00000000000000000000000000000000000000000000000000000000000000000000000000000000000000000000000000000000000000000N 00000000000NCONT   00    00000000000          00000000000000000000000000000000000000000000 000000000000000A000000000000000000000000000000000000000000000 000000000000000000000000000000000000000     00000000                                                                                                                        000000000000000000
F0010000008463900004000004544401900023658300000000000000000201604080002001FISIOTER                                          C000000000008000000000000000000000100010010000000000000000000000F0010000008463900420160408000101 00000000000000000000000000000000000000000000000000000000000000000000000000000000000000000000000000000000000000000N 00000000000NCONT   00    00000000000          00000000000000000000000000000000000000000000 000000000000000A000000000000000000000000000000000000000000000 000000000000000000000000000000000000000     00000000                                                                                                                        000000000000000000
F0010000008463900005000004544401900013552100000000000000000201604080002001FISIOTER                                          D000000000008000000000000000000000100010010000000000000000000000F0010000008463900520160408000101 00000000000000000000000000000000000000000000000000000000000000000000000000000000000000000000000000000000000000000N 00000000000NCONT   00    00000000000          00000000000000000000000000000000000000000000 000000000000000A000000000000000000000000000000000000000000000 000000000000000000000000000000000000000     00000000                                                                                                                        000000000000000000
F0010000008464000001000090050144800011050500000000000000000201604080002001PLASTICOS JR ASOCIADOS SAS                        D000000001150000000000000000000000100010010000000000000000000000F0010000008464000120160408000101 00000000000000000000000000000000000000000000000000000000000000000000000000000000000000000000000000000000000000000N 00000000000NCONT   00    00000000000          00000000000000000000000000000000000000000000 000000000000000A000000000000000000000000000000000000000000000 000000000000000000000000000000000000000     00000000                                                                                                                        000000000000000000
F0010000008464000002000090050144800041450500000000000000000201604080002001PLASTICOS JR ASOCIADOS SAS                        C000000000950000000000000000000000100010010000000000000000000000F0010000008464000220160408000101 00000000000000000000000000000000000000000000000000000000000000000000000000000000000000000000000000000000000000000N 00000000000NCONT   00    00000000000          00000000000000000000000000000000000000000000 000000000000000A000000000000000000000000000000000000000000000 000000000000000000000000000000000000000     00000000                                                                                                                        000000000000000000
F0010000008464000003000090050144800042505000000000000000000201604080002001PLASTICOS JR ASOCIADOS SAS                        C000000000200000000000000000000000100010010000000000000000000000F0010000008464000320160408000101 00000000000000000000000000000000000000000000000000000000000000000000000000000000000000000000000000000000000000000N 00000000000NCONT   00    00000000000          00000000000000000000000000000000000000000000 000000000000000A000000000000000000000000000000000000000000000 000000000000000000000000000000000000000     00000000                                                                                                                        000000000000000000
F0010000008464000004000090050144800023658300000000000000000201604080002001PLASTICOS JR ASOCIADOS SAS                        C000000000007600000000000000000000100010010000000000000000000000F0010000008464000420160408000101 00000000000000000000000000000000000000000000000000000000000000000000000000000000000000000000000000000000000000000N 00000000000NCONT   00    00000000000          00000000000000000000000000000000000000000000 000000000000000A000000000000000000000000000000000000000000000 000000000000000000000000000000000000000     00000000                                                                                                                        000000000000000000
F0010000008464000005000090050144800013552100000000000000000201604080002001PLASTICOS JR ASOCIADOS SAS                        D000000000007600000000000000000000100010010000000000000000000000F0010000008464000520160408000101 00000000000000000000000000000000000000000000000000000000000000000000000000000000000000000000000000000000000000000N 00000000000NCONT   00    00000000000          00000000000000000000000000000000000000000000 000000000000000A000000000000000000000000000000000000000000000 000000000000000000000000000000000000000     00000000                                                                                                                        000000000000000000
F0010000008464100001000080201703900011050500000000000000000201604080002001MUNDIAL CHEMICAL LTDA                             D000000001020000000000000000000000100010010000000000000000000000F0010000008464100120160408000101 00000000000000000000000000000000000000000000000000000000000000000000000000000000000000000000000000000000000000000N 00000000000NCONT   00    00000000000          00000000000000000000000000000000000000000000 000000000000000A000000000000000000000000000000000000000000000 000000000000000000000000000000000000000     00000000                                                                                                                        000000000000000000
F0010000008464100002000080201703900041450500000000000000000201604080002001MUNDIAL CHEMICAL LTDA                             C000000000920000000000000000000000100010010000000000000000000000F0010000008464100220160408000101 00000000000000000000000000000000000000000000000000000000000000000000000000000000000000000000000000000000000000000N 00000000000NCONT   00    00000000000          00000000000000000000000000000000000000000000 000000000000000A000000000000000000000000000000000000000000000 000000000000000000000000000000000000000     00000000                                                                                                                        000000000000000000
F0010000008464100003000080201703900042505000000000000000000201604080002001MUNDIAL CHEMICAL LTDA                             C000000000100000000000000000000000100010010000000000000000000000F0010000008464100320160408000101 00000000000000000000000000000000000000000000000000000000000000000000000000000000000000000000000000000000000000000N 00000000000NCONT   00    00000000000          00000000000000000000000000000000000000000000 000000000000000A000000000000000000000000000000000000000000000 000000000000000000000000000000000000000     00000000                                                                                                                        000000000000000000
F0010000008464100004000080201703900023658300000000000000000201604080002001MUNDIAL CHEMICAL LTDA                             C000000000007400000000000000000000100010010000000000000000000000F0010000008464100420160408000101 00000000000000000000000000000000000000000000000000000000000000000000000000000000000000000000000000000000000000000N 00000000000NCONT   00    00000000000          00000000000000000000000000000000000000000000 000000000000000A000000000000000000000000000000000000000000000 000000000000000000000000000000000000000     00000000                                                                                                                        000000000000000000
F0010000008464100005000080201703900013552100000000000000000201604080002001MUNDIAL CHEMICAL LTDA                             D000000000007400000000000000000000100010010000000000000000000000F0010000008464100520160408000101 00000000000000000000000000000000000000000000000000000000000000000000000000000000000000000000000000000000000000000N 00000000000NCONT   00    00000000000          00000000000000000000000000000000000000000000 000000000000000A000000000000000000000000000000000000000000000 000000000000000000000000000000000000000     00000000                                                                                                                        000000000000000000
F0010000008464200001000080200049600011050500000000000000000201604080002001FAMAPAN DEL CARIBE                                D000000004600000000000000000000000100010010000000000000000000000F0010000008464200120160408000101 00000000000000000000000000000000000000000000000000000000000000000000000000000000000000000000000000000000000000000N 00000000000NCONT   00    00000000000          00000000000000000000000000000000000000000000 000000000000000A000000000000000000000000000000000000000000000 000000000000000000000000000000000000000     00000000                                                                                                                        000000000000000000
F0010000008464200002000080200049600041450500000000000000000201604080002001FAMAPAN DEL CARIBE                                C000000004500000000000000000000000100010010000000000000000000000F0010000008464200220160408000101 00000000000000000000000000000000000000000000000000000000000000000000000000000000000000000000000000000000000000000N 00000000000NCONT   00    00000000000          00000000000000000000000000000000000000000000 000000000000000A000000000000000000000000000000000000000000000 000000000000000000000000000000000000000     00000000                                                                                                                        000000000000000000
F0010000008464200003000080200049600042505000000000000000000201604080002001FAMAPAN DEL CARIBE                                C000000000100000000000000000000000100010010000000000000000000000F0010000008464200320160408000101 00000000000000000000000000000000000000000000000000000000000000000000000000000000000000000000000000000000000000000N 00000000000NCONT   00    00000000000          00000000000000000000000000000000000000000000 000000000000000A000000000000000000000000000000000000000000000 000000000000000000000000000000000000000     00000000                                                                                                                        000000000000000000
F0010000008464200004000080200049600023658300000000000000000201604080002001FAMAPAN DEL CARIBE                                C000000000036000000000000000000000100010010000000000000000000000F0010000008464200420160408000101 00000000000000000000000000000000000000000000000000000000000000000000000000000000000000000000000000000000000000000N 00000000000NCONT   00    00000000000          00000000000000000000000000000000000000000000 000000000000000A000000000000000000000000000000000000000000000 000000000000000000000000000000000000000     00000000                                                                                                                        000000000000000000
F0010000008464200005000080200049600013552100000000000000000201604080002001FAMAPAN DEL CARIBE                                D000000000036000000000000000000000100010010000000000000000000000F0010000008464200520160408000101 00000000000000000000000000000000000000000000000000000000000000000000000000000000000000000000000000000000000000000N 00000000000NCONT   00    00000000000          00000000000000000000000000000000000000000000 000000000000000A000000000000000000000000000000000000000000000 000000000000000000000000000000000000000     00000000                                                                                                                        000000000000000000
F0010000008464300001000080012418800011050500000000000000000201604080002001DISTRITEC S.A.S                                   D000000002100000000000000000000000100010010000000000000000000000F0010000008464300120160408000101 00000000000000000000000000000000000000000000000000000000000000000000000000000000000000000000000000000000000000000N 00000000000NCONT   00    00000000000          00000000000000000000000000000000000000000000 000000000000000A000000000000000000000000000000000000000000000 000000000000000000000000000000000000000     00000000                                                                                                                        000000000000000000
F0010000008464300002000080012418800041450500000000000000000201604080002001DISTRITEC S.A.S                                   C000000001900000000000000000000000100010010000000000000000000000F0010000008464300220160408000101 00000000000000000000000000000000000000000000000000000000000000000000000000000000000000000000000000000000000000000N 00000000000NCONT   00    00000000000          00000000000000000000000000000000000000000000 000000000000000A000000000000000000000000000000000000000000000 000000000000000000000000000000000000000     00000000                                                                                                                        000000000000000000
F0010000008464300003000080012418800042505000000000000000000201604080002001DISTRITEC S.A.S                                   C000000000200000000000000000000000100010010000000000000000000000F0010000008464300320160408000101 00000000000000000000000000000000000000000000000000000000000000000000000000000000000000000000000000000000000000000N 00000000000NCONT   00    00000000000          00000000000000000000000000000000000000000000 000000000000000A000000000000000000000000000000000000000000000 000000000000000000000000000000000000000     00000000                                                                                                                        000000000000000000
F0010000008464300004000080012418800023658300000000000000000201604080002001DISTRITEC S.A.S                                   C000000000015200000000000000000000100010010000000000000000000000F0010000008464300420160408000101 00000000000000000000000000000000000000000000000000000000000000000000000000000000000000000000000000000000000000000N 00000000000NCONT   00    00000000000          00000000000000000000000000000000000000000000 000000000000000A000000000000000000000000000000000000000000000 000000000000000000000000000000000000000     00000000                                                                                                                        000000000000000000
F0010000008464300005000080012418800013552100000000000000000201604080002001DISTRITEC S.A.S                                   D000000000015200000000000000000000100010010000000000000000000000F0010000008464300520160408000101 00000000000000000000000000000000000000000000000000000000000000000000000000000000000000000000000000000000000000000N 00000000000NCONT   00    00000000000          00000000000000000000000000000000000000000000 000000000000000A000000000000000000000000000000000000000000000 000000000000000000000000000000000000000     00000000                                                                                                                        000000000000000000
F0010000008464400001000090061985600011050500000000000000000201604080002001COMERCIALIZADORA PATRY SAS                        D000000001400000000000000000000000100010010000000000000000000000F0010000008464400120160408000101 00000000000000000000000000000000000000000000000000000000000000000000000000000000000000000000000000000000000000000N 00000000000NCONT   00    00000000000          00000000000000000000000000000000000000000000 000000000000000A000000000000000000000000000000000000000000000 000000000000000000000000000000000000000     00000000                                                                                                                        000000000000000000
F0010000008464400002000090061985600041450500000000000000000201604080002001COMERCIALIZADORA PATRY SAS                        C000000000900000000000000000000000100010010000000000000000000000F0010000008464400220160408000101 00000000000000000000000000000000000000000000000000000000000000000000000000000000000000000000000000000000000000000N 00000000000NCONT   00    00000000000          00000000000000000000000000000000000000000000 000000000000000A000000000000000000000000000000000000000000000 000000000000000000000000000000000000000     00000000                                                                                                                        000000000000000000
F0010000008464400003000090061985600042505000000000000000000201604080002001COMERCIALIZADORA PATRY SAS                        C000000000500000000000000000000000100010010000000000000000000000F0010000008464400320160408000101 00000000000000000000000000000000000000000000000000000000000000000000000000000000000000000000000000000000000000000N 00000000000NCONT   00    00000000000          00000000000000000000000000000000000000000000 000000000000000A000000000000000000000000000000000000000000000 000000000000000000000000000000000000000     00000000                                                                                                                        000000000000000000
F0010000008464400004000090061985600023658300000000000000000201604080002001COMERCIALIZADORA PATRY SAS                        C000000000007200000000000000000000100010010000000000000000000000F0010000008464400420160408000101 00000000000000000000000000000000000000000000000000000000000000000000000000000000000000000000000000000000000000000N 00000000000NCONT   00    00000000000          00000000000000000000000000000000000000000000 000000000000000A000000000000000000000000000000000000000000000 000000000000000000000000000000000000000     00000000                                                                                                                        000000000000000000
F0010000008464400005000090061985600013552100000000000000000201604080002001COMERCIALIZADORA PATRY SAS                        D000000000007200000000000000000000100010010000000000000000000000F0010000008464400520160408000101 00000000000000000000000000000000000000000000000000000000000000000000000000000000000000000000000000000000000000000N 00000000000NCONT   00    00000000000          00000000000000000000000000000000000000000000 000000000000000A000000000000000000000000000000000000000000000 000000000000000000000000000000000000000     00000000                                                                                                                        000000000000000000
F0010000008464500001000086000061500011050500000000000000000201604080002001DISTRIBUIDORA CORDOBA                             D000000009400000000000000000000000100010010000000000000000000000F0010000008464500120160408000101 00000000000000000000000000000000000000000000000000000000000000000000000000000000000000000000000000000000000000000N 00000000000NCONT   00    00000000000          00000000000000000000000000000000000000000000 000000000000000A000000000000000000000000000000000000000000000 000000000000000000000000000000000000000     00000000                                                                                                                        000000000000000000
F0010000008464500002000086000061500041450500000000000000000201604080002001DISTRIBUIDORA CORDOBA                             C000000008600000000000000000000000100010010000000000000000000000F0010000008464500220160408000101 00000000000000000000000000000000000000000000000000000000000000000000000000000000000000000000000000000000000000000N 00000000000NCONT   00    00000000000          00000000000000000000000000000000000000000000 000000000000000A000000000000000000000000000000000000000000000 000000000000000000000000000000000000000     00000000                                                                                                                        000000000000000000
F0010000008464500003000086000061500042505000000000000000000201604080002001DISTRIBUIDORA CORDOBA                             C000000000800000000000000000000000100010010000000000000000000000F0010000008464500320160408000101 00000000000000000000000000000000000000000000000000000000000000000000000000000000000000000000000000000000000000000N 00000000000NCONT   00    00000000000          00000000000000000000000000000000000000000000 000000000000000A000000000000000000000000000000000000000000000 000000000000000000000000000000000000000     00000000                                                                                                                        000000000000000000
F0010000008464500004000086000061500023658300000000000000000201604080002001DISTRIBUIDORA CORDOBA                             C000000000068800000000000000000000100010010000000000000000000000F0010000008464500420160408000101 00000000000000000000000000000000000000000000000000000000000000000000000000000000000000000000000000000000000000000N 00000000000NCONT   00    00000000000          00000000000000000000000000000000000000000000 000000000000000A000000000000000000000000000000000000000000000 000000000000000000000000000000000000000     00000000                                                                                                                        000000000000000000
F0010000008464500005000086000061500013552100000000000000000201604080002001DISTRIBUIDORA CORDOBA                             D000000000068800000000000000000000100010010000000000000000000000F0010000008464500520160408000101 00000000000000000000000000000000000000000000000000000000000000000000000000000000000000000000000000000000000000000N 00000000000NCONT   00    00000000000          00000000000000000000000000000000000000000000 000000000000000A000000000000000000000000000000000000000000000 000000000000000000000000000000000000000     00000000                                                                                                                        000000000000000000
F0010000008464600001000000744496800011050500000000000000000201604080002001TOMAS SANCHEZ                                     D000000003000000000000000000000000100010010000000000000000000000F0010000008464600120160408000101 00000000000000000000000000000000000000000000000000000000000000000000000000000000000000000000000000000000000000000N 00000000000NCONT   00    00000000000          00000000000000000000000000000000000000000000 000000000000000A000000000000000000000000000000000000000000000 000000000000000000000000000000000000000     00000000                                                                                                                        000000000000000000
F0010000008464600002000000744496800041450500000000000000000201604080002001TOMAS SANCHEZ                                     C000000002700000000000000000000000100010010000000000000000000000F0010000008464600220160408000101 00000000000000000000000000000000000000000000000000000000000000000000000000000000000000000000000000000000000000000N 00000000000NCONT   00    00000000000          00000000000000000000000000000000000000000000 000000000000000A000000000000000000000000000000000000000000000 000000000000000000000000000000000000000     00000000                                                                                                                        000000000000000000
F0010000008464600003000000744496800042505000000000000000000201604080002001TOMAS SANCHEZ                                     C000000000300000000000000000000000100010010000000000000000000000F0010000008464600320160408000101 00000000000000000000000000000000000000000000000000000000000000000000000000000000000000000000000000000000000000000N 00000000000NCONT   00    00000000000          00000000000000000000000000000000000000000000 000000000000000A000000000000000000000000000000000000000000000 000000000000000000000000000000000000000     00000000                                                                                                                        000000000000000000
F0010000008464600004000000744496800023658300000000000000000201604080002001TOMAS SANCHEZ                                     C000000000021600000000000000000000100010010000000000000000000000F0010000008464600420160408000101 00000000000000000000000000000000000000000000000000000000000000000000000000000000000000000000000000000000000000000N 00000000000NCONT   00    00000000000          00000000000000000000000000000000000000000000 000000000000000A000000000000000000000000000000000000000000000 000000000000000000000000000000000000000     00000000                                                                                                                        000000000000000000
F0010000008464600005000000744496800013552100000000000000000201604080002001TOMAS SANCHEZ                                     D000000000021600000000000000000000100010010000000000000000000000F0010000008464600520160408000101 00000000000000000000000000000000000000000000000000000000000000000000000000000000000000000000000000000000000000000N 00000000000NCONT   00    00000000000          00000000000000000000000000000000000000000000 000000000000000A000000000000000000000000000000000000000000000 000000000000000000000000000000000000000     00000000                                                                                                                        000000000000000000
F0010000008464700001000000744496800011050500000000000000000201604080002001TOMAS SANCHEZ                                     D000000001000000000000000000000000100010010000000000000000000000F0010000008464700120160408000101 00000000000000000000000000000000000000000000000000000000000000000000000000000000000000000000000000000000000000000N 00000000000NCONT   00    00000000000          00000000000000000000000000000000000000000000 000000000000000A000000000000000000000000000000000000000000000 000000000000000000000000000000000000000     00000000                                                                                                                        000000000000000000
F0010000008464700002000000744496800041450500000000000000000201604080002001TOMAS SANCHEZ                                     C000000000900000000000000000000000100010010000000000000000000000F0010000008464700220160408000101 00000000000000000000000000000000000000000000000000000000000000000000000000000000000000000000000000000000000000000N 00000000000NCONT   00    00000000000          00000000000000000000000000000000000000000000 000000000000000A000000000000000000000000000000000000000000000 000000000000000000000000000000000000000     00000000                                                                                                                        000000000000000000
F0010000008464700003000000744496800042505000000000000000000201604080002001TOMAS SANCHEZ                                     C000000000100000000000000000000000100010010000000000000000000000F0010000008464700320160408000101 00000000000000000000000000000000000000000000000000000000000000000000000000000000000000000000000000000000000000000N 00000000000NCONT   00    00000000000          00000000000000000000000000000000000000000000 000000000000000A000000000000000000000000000000000000000000000 000000000000000000000000000000000000000     00000000                                                                                                                        000000000000000000
F0010000008464700004000000744496800023658300000000000000000201604080002001TOMAS SANCHEZ                                     C000000000007200000000000000000000100010010000000000000000000000F0010000008464700420160408000101 00000000000000000000000000000000000000000000000000000000000000000000000000000000000000000000000000000000000000000N 00000000000NCONT   00    00000000000          00000000000000000000000000000000000000000000 000000000000000A000000000000000000000000000000000000000000000 000000000000000000000000000000000000000     00000000                                                                                                                        000000000000000000
F0010000008464700005000000744496800013552100000000000000000201604080002001TOMAS SANCHEZ                                     D000000000007200000000000000000000100010010000000000000000000000F0010000008464700520160408000101 00000000000000000000000000000000000000000000000000000000000000000000000000000000000000000000000000000000000000000N 00000000000NCONT   00    00000000000          00000000000000000000000000000000000000000000 000000000000000A000000000000000000000000000000000000000000000 000000000000000000000000000000000000000     00000000                                                                                                                        000000000000000000
F0010000008464800001000003129177700011050500000000000000000201604080002001MULTISUELAS                                       D000000002260000000000000000000000100010010000000000000000000000F0010000008464800120160408000101 00000000000000000000000000000000000000000000000000000000000000000000000000000000000000000000000000000000000000000N 00000000000NCONT   00    00000000000          00000000000000000000000000000000000000000000 000000000000000A000000000000000000000000000000000000000000000 000000000000000000000000000000000000000     00000000                                                                                                                        000000000000000000
F0010000008464800002000003129177700041450500000000000000000201604080002001MULTISUELAS                                       C000000001860000000000000000000000100010010000000000000000000000F0010000008464800220160408000101 00000000000000000000000000000000000000000000000000000000000000000000000000000000000000000000000000000000000000000N 00000000000NCONT   00    00000000000          00000000000000000000000000000000000000000000 000000000000000A000000000000000000000000000000000000000000000 000000000000000000000000000000000000000     00000000                                                                                                                        000000000000000000
F0010000008464800003000003129177700042505000000000000000000201604080002001MULTISUELAS                                       C000000000400000000000000000000000100010010000000000000000000000F0010000008464800320160408000101 00000000000000000000000000000000000000000000000000000000000000000000000000000000000000000000000000000000000000000N 00000000000NCONT   00    00000000000          00000000000000000000000000000000000000000000 000000000000000A000000000000000000000000000000000000000000000 000000000000000000000000000000000000000     00000000                                                                                                                        000000000000000000
F0010000008464800004000003129177700023658300000000000000000201604080002001MULTISUELAS                                       C000000000014900000000000000000000100010010000000000000000000000F0010000008464800420160408000101 00000000000000000000000000000000000000000000000000000000000000000000000000000000000000000000000000000000000000000N 00000000000NCONT   00    00000000000          00000000000000000000000000000000000000000000 000000000000000A000000000000000000000000000000000000000000000 000000000000000000000000000000000000000     00000000                                                                                                                        000000000000000000
F0010000008464800005000003129177700013552100000000000000000201604080002001MULTISUELAS                                       D000000000014900000000000000000000100010010000000000000000000000F0010000008464800520160408000101 00000000000000000000000000000000000000000000000000000000000000000000000000000000000000000000000000000000000000000N 00000000000NCONT   00    00000000000          00000000000000000000000000000000000000000000 000000000000000A000000000000000000000000000000000000000000000 000000000000000000000000000000000000000     00000000                                                                                                                        000000000000000000
F0010000008464900001000007200289400011050500000000000000000201604080002001MIGUEL CORTINA                                    D000000001300000000000000000000000100010010000000000000000000000F0010000008464900120160408000101 00000000000000000000000000000000000000000000000000000000000000000000000000000000000000000000000000000000000000000N 00000000000NCONT   00    00000000000          00000000000000000000000000000000000000000000 000000000000000A000000000000000000000000000000000000000000000 000000000000000000000000000000000000000     00000000                                                                                                                        000000000000000000
F0010000008464900002000007200289400041450500000000000000000201604080002001MIGUEL CORTINA                                    C000000001000000000000000000000000100010010000000000000000000000F0010000008464900220160408000101 00000000000000000000000000000000000000000000000000000000000000000000000000000000000000000000000000000000000000000N 00000000000NCONT   00    00000000000          00000000000000000000000000000000000000000000 000000000000000A000000000000000000000000000000000000000000000 000000000000000000000000000000000000000     00000000                                                                                                                        000000000000000000
F0010000008464900003000007200289400042505000000000000000000201604080002001MIGUEL CORTINA                                    C000000000300000000000000000000000100010010000000000000000000000F0010000008464900320160408000101 00000000000000000000000000000000000000000000000000000000000000000000000000000000000000000000000000000000000000000N 00000000000NCONT   00    00000000000          00000000000000000000000000000000000000000000 000000000000000A000000000000000000000000000000000000000000000 000000000000000000000000000000000000000     00000000                                                                                                                        000000000000000000
F0010000008464900004000007200289400023658300000000000000000201604080002001MIGUEL CORTINA                                    C000000000008000000000000000000000100010010000000000000000000000F0010000008464900420160408000101 00000000000000000000000000000000000000000000000000000000000000000000000000000000000000000000000000000000000000000N 00000000000NCONT   00    00000000000          00000000000000000000000000000000000000000000 000000000000000A000000000000000000000000000000000000000000000 000000000000000000000000000000000000000     00000000                                                                                                                        000000000000000000
F0010000008464900005000007200289400013552100000000000000000201604080002001MIGUEL CORTINA                                    D000000000008000000000000000000000100010010000000000000000000000F0010000008464900520160408000101 00000000000000000000000000000000000000000000000000000000000000000000000000000000000000000000000000000000000000000N 00000000000NCONT   00    00000000000          00000000000000000000000000000000000000000000 000000000000000A000000000000000000000000000000000000000000000 000000000000000000000000000000000000000     00000000                                                                                                                        000000000000000000
F0010000008465000001000007904689600011050500000000000000000201604080002001VICTOR MANUEL BOCANEGRA RAMIREZ                   D000000004800000000000000000000000100010010000000000000000000000F0010000008465000120160408000101 00000000000000000000000000000000000000000000000000000000000000000000000000000000000000000000000000000000000000000N 00000000000NCONT   00    00000000000          00000000000000000000000000000000000000000000 000000000000000A000000000000000000000000000000000000000000000 000000000000000000000000000000000000000     00000000                                                                                                                        000000000000000000
F0010000008465000002000007904689600041450500000000000000000201604080002001VICTOR MANUEL BOCANEGRA RAMIREZ                   C000000004700000000000000000000000100010010000000000000000000000F0010000008465000220160408000101 00000000000000000000000000000000000000000000000000000000000000000000000000000000000000000000000000000000000000000N 00000000000NCONT   00    00000000000          00000000000000000000000000000000000000000000 000000000000000A000000000000000000000000000000000000000000000 000000000000000000000000000000000000000     00000000                                                                                                                        000000000000000000
F0010000008465000003000007904689600042505000000000000000000201604080002001VICTOR MANUEL BOCANEGRA RAMIREZ                   C000000000100000000000000000000000100010010000000000000000000000F0010000008465000320160408000101 00000000000000000000000000000000000000000000000000000000000000000000000000000000000000000000000000000000000000000N 00000000000NCONT   00    00000000000          00000000000000000000000000000000000000000000 000000000000000A000000000000000000000000000000000000000000000 000000000000000000000000000000000000000     00000000                                                                                                                        000000000000000000
F0010000008465000004000007904689600023658300000000000000000201604080002001VICTOR MANUEL BOCANEGRA RAMIREZ                   C000000000037600000000000000000000100010010000000000000000000000F0010000008465000420160408000101 00000000000000000000000000000000000000000000000000000000000000000000000000000000000000000000000000000000000000000N 00000000000NCONT   00    00000000000          00000000000000000000000000000000000000000000 000000000000000A000000000000000000000000000000000000000000000 000000000000000000000000000000000000000     00000000                                                                                                                        000000000000000000
F0010000008465000005000007904689600013552100000000000000000201604080002001VICTOR MANUEL BOCANEGRA RAMIREZ                   D000000000037600000000000000000000100010010000000000000000000000F0010000008465000520160408000101 00000000000000000000000000000000000000000000000000000000000000000000000000000000000000000000000000000000000000000N 00000000000NCONT   00    00000000000          00000000000000000000000000000000000000000000 000000000000000A000000000000000000000000000000000000000000000 000000000000000000000000000000000000000     00000000                                                                                                                        000000000000000000
F0010000008465100001000090047878200011050500000000000000000201604080002001GRUMAD SAS                                        D000000002500000000000000000000000100010010000000000000000000000F0010000008465100120160408000101 00000000000000000000000000000000000000000000000000000000000000000000000000000000000000000000000000000000000000000N 00000000000NCONT   00    00000000000          00000000000000000000000000000000000000000000 000000000000000A000000000000000000000000000000000000000000000 000000000000000000000000000000000000000     00000000                                                                                                                        000000000000000000
F0010000008465100002000090047878200041450500000000000000000201604080002001GRUMAD SAS                                        C000000002200000000000000000000000100010010000000000000000000000F0010000008465100220160408000101 00000000000000000000000000000000000000000000000000000000000000000000000000000000000000000000000000000000000000000N 00000000000NCONT   00    00000000000          00000000000000000000000000000000000000000000 000000000000000A000000000000000000000000000000000000000000000 000000000000000000000000000000000000000     00000000                                                                                                                        000000000000000000
F0010000008465100003000090047878200042505000000000000000000201604080002001GRUMAD SAS                                        C000000000300000000000000000000000100010010000000000000000000000F0010000008465100320160408000101 00000000000000000000000000000000000000000000000000000000000000000000000000000000000000000000000000000000000000000N 00000000000NCONT   00    00000000000          00000000000000000000000000000000000000000000 000000000000000A000000000000000000000000000000000000000000000 000000000000000000000000000000000000000     00000000                                                                                                                        000000000000000000
F0010000008465100004000090047878200023658300000000000000000201604080002001GRUMAD SAS                                        C000000000017600000000000000000000100010010000000000000000000000F0010000008465100420160408000101 00000000000000000000000000000000000000000000000000000000000000000000000000000000000000000000000000000000000000000N 00000000000NCONT   00    00000000000          00000000000000000000000000000000000000000000 000000000000000A000000000000000000000000000000000000000000000 000000000000000000000000000000000000000     00000000                                                                                                                        000000000000000000
F0010000008465100005000090047878200013552100000000000000000201604080002001GRUMAD SAS                                        D000000000017600000000000000000000100010010000000000000000000000F0010000008465100520160408000101 00000000000000000000000000000000000000000000000000000000000000000000000000000000000000000000000000000000000000000N 00000000000NCONT   00    00000000000          00000000000000000000000000000000000000000000 000000000000000A000000000000000000000000000000000000000000000 000000000000000000000000000000000000000     00000000                                                                                                                        000000000000000000
F0010000008465200001000090054716100011050500000000000000000201604080002001IMPORTVAL SAS                                     D000000016400000000000000000000000100010010000000000000000000000F0010000008465200120160408000101 00000000000000000000000000000000000000000000000000000000000000000000000000000000000000000000000000000000000000000N 00000000000NCONT   00    00000000000          00000000000000000000000000000000000000000000 000000000000000A000000000000000000000000000000000000000000000 000000000000000000000000000000000000000     00000000                                                                                                                        000000000000000000
F0010000008465200002000090054716100041450500000000000000000201604080002001IMPORTVAL SAS                                     C000000015000000000000000000000000100010010000000000000000000000F0010000008465200220160408000101 00000000000000000000000000000000000000000000000000000000000000000000000000000000000000000000000000000000000000000N 00000000000NCONT   00    00000000000          00000000000000000000000000000000000000000000 000000000000000A000000000000000000000000000000000000000000000 000000000000000000000000000000000000000     00000000                                                                                                                        000000000000000000
F0010000008465200003000090054716100042505000000000000000000201604080002001IMPORTVAL SAS                                     C000000001400000000000000000000000100010010000000000000000000000F0010000008465200320160408000101 00000000000000000000000000000000000000000000000000000000000000000000000000000000000000000000000000000000000000000N 00000000000NCONT   00    00000000000          00000000000000000000000000000000000000000000 000000000000000A000000000000000000000000000000000000000000000 000000000000000000000000000000000000000     00000000                                                                                                                        000000000000000000
F0010000008465200004000090054716100023658300000000000000000201604080002001IMPORTVAL SAS                                     C000000000120000000000000000000000100010010000000000000000000000F0010000008465200420160408000101 00000000000000000000000000000000000000000000000000000000000000000000000000000000000000000000000000000000000000000N 00000000000NCONT   00    00000000000          00000000000000000000000000000000000000000000 000000000000000A000000000000000000000000000000000000000000000 000000000000000000000000000000000000000     00000000                                                                                                                        000000000000000000
F0010000008465200005000090054716100013552100000000000000000201604080002001IMPORTVAL SAS                                     D000000000120000000000000000000000100010010000000000000000000000F0010000008465200520160408000101 00000000000000000000000000000000000000000000000000000000000000000000000000000000000000000000000000000000000000000N 00000000000NCONT   00    00000000000          00000000000000000000000000000000000000000000 000000000000000A000000000000000000000000000000000000000000000 000000000000000000000000000000000000000     00000000                                                                                                                        000000000000000000
