F0010000010543100001000089010917700011050500000000000000000201710240002001MAQUIPLAST S.A.S.                                 D000000010500000000000000000000000100010010000000000000000000000F0010000010543100120171024000101 00000000000000000000000000000000000000000000000000000000000000000000000000000000000000000000000000000000000000000N 00000000000NCONT   00    00000000000          00000000000000000000000000000000000000000000 000000000000000A000000000000000000000000000000000000000000000 000000000000000000000000000000000000000     00000000                                                                                                                        000000000000000000
F0010000010543100002000089010917700041450500000000000000000201710240002001MAQUIPLAST S.A.S.                                 C000000010180000000000000000000000100010010000000000000000000000F0010000010543100220171024000101 00000000000000000000000000000000000000000000000000000000000000000000000000000000000000000000000000000000000000000N 00000000000NCONT   00    00000000000          00000000000000000000000000000000000000000000 000000000000000A000000000000000000000000000000000000000000000 000000000000000000000000000000000000000     00000000                                                                                                                        000000000000000000
F0010000010543100003000089010917700042505000000000000000000201710240002001MAQUIPLAST S.A.S.                                 C000000000320000000000000000000000100010010000000000000000000000F0010000010543100320171024000101 00000000000000000000000000000000000000000000000000000000000000000000000000000000000000000000000000000000000000000N 00000000000NCONT   00    00000000000          00000000000000000000000000000000000000000000 000000000000000A000000000000000000000000000000000000000000000 000000000000000000000000000000000000000     00000000                                                                                                                        000000000000000000
F0010000010543100004000089010917700023658300000000000000000201710240002001MAQUIPLAST S.A.S.                                 C000000000000000000000000000000000100010010000000000000000000000F0010000010543100420171024000101 00000000000000000000000000000000000000000000000000000000000000000000000000000000000000000000000000000000000000000N 00000000000NCONT   00    00000000000          00000000000000000000000000000000000000000000 000000000000000A000000000000000000000000000000000000000000000 000000000000000000000000000000000000000     00000000                                                                                                                        000000000000000000
F0010000010543100005000089010917700013552100000000000000000201710240002001MAQUIPLAST S.A.S.                                 D000000000000000000000000000000000100010010000000000000000000000F0010000010543100520171024000101 00000000000000000000000000000000000000000000000000000000000000000000000000000000000000000000000000000000000000000N 00000000000NCONT   00    00000000000          00000000000000000000000000000000000000000000 000000000000000A000000000000000000000000000000000000000000000 000000000000000000000000000000000000000     00000000                                                                                                                        000000000000000000
F0010000010543200001000000431178400013050500000000000000000201710240002001EFRAIN ALVAREZ                                    D000000021980000000000000000000000100010010000000000000000000000F0010000010543200120171024000101 00000000000000000000000000000000000000000000000000000000000000000000000000000000000000000000000000000000000000000N 00000000000NCONT   00    00000000000          00000000000000000000000000000000000000000000 000000000000000A000000000000000000000000000000000000000000000 000000000000000000000000000000000000000     00000000                                                                                                                        000000000000000000
F0010000010543200002000000431178400041450500000000000000000201710240002001EFRAIN ALVAREZ                                    C000000020380000000000000000000000100010010000000000000000000000F0010000010543200220171024000101 00000000000000000000000000000000000000000000000000000000000000000000000000000000000000000000000000000000000000000N 00000000000NCONT   00    00000000000          00000000000000000000000000000000000000000000 000000000000000A000000000000000000000000000000000000000000000 000000000000000000000000000000000000000     00000000                                                                                                                        000000000000000000
F0010000010543200003000000431178400042505000000000000000000201710240002001EFRAIN ALVAREZ                                    C000000001600000000000000000000000100010010000000000000000000000F0010000010543200320171024000101 00000000000000000000000000000000000000000000000000000000000000000000000000000000000000000000000000000000000000000N 00000000000NCONT   00    00000000000          00000000000000000000000000000000000000000000 000000000000000A000000000000000000000000000000000000000000000 000000000000000000000000000000000000000     00000000                                                                                                                        000000000000000000
F0010000010543200004000000431178400023658300000000000000000201710240002001EFRAIN ALVAREZ                                    C000000000000000000000000000000000100010010000000000000000000000F0010000010543200420171024000101 00000000000000000000000000000000000000000000000000000000000000000000000000000000000000000000000000000000000000000N 00000000000NCONT   00    00000000000          00000000000000000000000000000000000000000000 000000000000000A000000000000000000000000000000000000000000000 000000000000000000000000000000000000000     00000000                                                                                                                        000000000000000000
F0010000010543200005000000431178400013552100000000000000000201710240002001EFRAIN ALVAREZ                                    D000000000000000000000000000000000100010010000000000000000000000F0010000010543200520171024000101 00000000000000000000000000000000000000000000000000000000000000000000000000000000000000000000000000000000000000000N 00000000000NCONT   00    00000000000          00000000000000000000000000000000000000000000 000000000000000A000000000000000000000000000000000000000000000 000000000000000000000000000000000000000     00000000                                                                                                                        000000000000000000
F0010000010543300001000001022529300013050500000000000000000201710240002001ALBERTO ALVAREZ ISAZA                             D000000002630000000000000000000000100010010000000000000000000000F0010000010543300120171024000101 00000000000000000000000000000000000000000000000000000000000000000000000000000000000000000000000000000000000000000N 00000000000NCONT   00    00000000000          00000000000000000000000000000000000000000000 000000000000000A000000000000000000000000000000000000000000000 000000000000000000000000000000000000000     00000000                                                                                                                        000000000000000000
F0010000010543300002000001022529300041450500000000000000000201710240002001ALBERTO ALVAREZ ISAZA                             C000000002630000000000000000000000100010010000000000000000000000F0010000010543300220171024000101 00000000000000000000000000000000000000000000000000000000000000000000000000000000000000000000000000000000000000000N 00000000000NCONT   00    00000000000          00000000000000000000000000000000000000000000 000000000000000A000000000000000000000000000000000000000000000 000000000000000000000000000000000000000     00000000                                                                                                                        000000000000000000
F0010000010543300003000001022529300042505000000000000000000201710240002001ALBERTO ALVAREZ ISAZA                             C000000000000000000000000000000000100010010000000000000000000000F0010000010543300320171024000101 00000000000000000000000000000000000000000000000000000000000000000000000000000000000000000000000000000000000000000N 00000000000NCONT   00    00000000000          00000000000000000000000000000000000000000000 000000000000000A000000000000000000000000000000000000000000000 000000000000000000000000000000000000000     00000000                                                                                                                        000000000000000000
F0010000010543300004000001022529300023658300000000000000000201710240002001ALBERTO ALVAREZ ISAZA                             C000000000000000000000000000000000100010010000000000000000000000F0010000010543300420171024000101 00000000000000000000000000000000000000000000000000000000000000000000000000000000000000000000000000000000000000000N 00000000000NCONT   00    00000000000          00000000000000000000000000000000000000000000 000000000000000A000000000000000000000000000000000000000000000 000000000000000000000000000000000000000     00000000                                                                                                                        000000000000000000
F0010000010543300005000001022529300013552100000000000000000201710240002001ALBERTO ALVAREZ ISAZA                             D000000000000000000000000000000000100010010000000000000000000000F0010000010543300520171024000101 00000000000000000000000000000000000000000000000000000000000000000000000000000000000000000000000000000000000000000N 00000000000NCONT   00    00000000000          00000000000000000000000000000000000000000000 000000000000000A000000000000000000000000000000000000000000000 000000000000000000000000000000000000000     00000000                                                                                                                        000000000000000000
F0010000010543400001000090087617400011050500000000000000000201710240002001MASTERGLASS PREMIUM GROUP SAS                     D000000001600000000000000000000000100010010000000000000000000000F0010000010543400120171024000101 00000000000000000000000000000000000000000000000000000000000000000000000000000000000000000000000000000000000000000N 00000000000NCONT   00    00000000000          00000000000000000000000000000000000000000000 000000000000000A000000000000000000000000000000000000000000000 000000000000000000000000000000000000000     00000000                                                                                                                        000000000000000000
F0010000010543400002000090087617400041450500000000000000000201710240002001MASTERGLASS PREMIUM GROUP SAS                     C000000001200000000000000000000000100010010000000000000000000000F0010000010543400220171024000101 00000000000000000000000000000000000000000000000000000000000000000000000000000000000000000000000000000000000000000N 00000000000NCONT   00    00000000000          00000000000000000000000000000000000000000000 000000000000000A000000000000000000000000000000000000000000000 000000000000000000000000000000000000000     00000000                                                                                                                        000000000000000000
F0010000010543400003000090087617400042505000000000000000000201710240002001MASTERGLASS PREMIUM GROUP SAS                     C000000000400000000000000000000000100010010000000000000000000000F0010000010543400320171024000101 00000000000000000000000000000000000000000000000000000000000000000000000000000000000000000000000000000000000000000N 00000000000NCONT   00    00000000000          00000000000000000000000000000000000000000000 000000000000000A000000000000000000000000000000000000000000000 000000000000000000000000000000000000000     00000000                                                                                                                        000000000000000000
F0010000010543400004000090087617400023658300000000000000000201710240002001MASTERGLASS PREMIUM GROUP SAS                     C000000000000000000000000000000000100010010000000000000000000000F0010000010543400420171024000101 00000000000000000000000000000000000000000000000000000000000000000000000000000000000000000000000000000000000000000N 00000000000NCONT   00    00000000000          00000000000000000000000000000000000000000000 000000000000000A000000000000000000000000000000000000000000000 000000000000000000000000000000000000000     00000000                                                                                                                        000000000000000000
F0010000010543400005000090087617400013552100000000000000000201710240002001MASTERGLASS PREMIUM GROUP SAS                     D000000000000000000000000000000000100010010000000000000000000000F0010000010543400520171024000101 00000000000000000000000000000000000000000000000000000000000000000000000000000000000000000000000000000000000000000N 00000000000NCONT   00    00000000000          00000000000000000000000000000000000000000000 000000000000000A000000000000000000000000000000000000000000000 000000000000000000000000000000000000000     00000000                                                                                                                        000000000000000000
F0010000010543500001000090015039900011050500000000000000000201710240002001METALMAX DE COLOMBIA S.A.S                        D000000001100000000000000000000000100010010000000000000000000000F0010000010543500120171024000101 00000000000000000000000000000000000000000000000000000000000000000000000000000000000000000000000000000000000000000N 00000000000NCONT   00    00000000000          00000000000000000000000000000000000000000000 000000000000000A000000000000000000000000000000000000000000000 000000000000000000000000000000000000000     00000000                                                                                                                        000000000000000000
F0010000010543500002000090015039900041450500000000000000000201710240002001METALMAX DE COLOMBIA S.A.S                        C000000001000000000000000000000000100010010000000000000000000000F0010000010543500220171024000101 00000000000000000000000000000000000000000000000000000000000000000000000000000000000000000000000000000000000000000N 00000000000NCONT   00    00000000000          00000000000000000000000000000000000000000000 000000000000000A000000000000000000000000000000000000000000000 000000000000000000000000000000000000000     00000000                                                                                                                        000000000000000000
F0010000010543500003000090015039900042505000000000000000000201710240002001METALMAX DE COLOMBIA S.A.S                        C000000000100000000000000000000000100010010000000000000000000000F0010000010543500320171024000101 00000000000000000000000000000000000000000000000000000000000000000000000000000000000000000000000000000000000000000N 00000000000NCONT   00    00000000000          00000000000000000000000000000000000000000000 000000000000000A000000000000000000000000000000000000000000000 000000000000000000000000000000000000000     00000000                                                                                                                        000000000000000000
F0010000010543500004000090015039900023658300000000000000000201710240002001METALMAX DE COLOMBIA S.A.S                        C000000000000000000000000000000000100010010000000000000000000000F0010000010543500420171024000101 00000000000000000000000000000000000000000000000000000000000000000000000000000000000000000000000000000000000000000N 00000000000NCONT   00    00000000000          00000000000000000000000000000000000000000000 000000000000000A000000000000000000000000000000000000000000000 000000000000000000000000000000000000000     00000000                                                                                                                        000000000000000000
F0010000010543500005000090015039900013552100000000000000000201710240002001METALMAX DE COLOMBIA S.A.S                        D000000000000000000000000000000000100010010000000000000000000000F0010000010543500520171024000101 00000000000000000000000000000000000000000000000000000000000000000000000000000000000000000000000000000000000000000N 00000000000NCONT   00    00000000000          00000000000000000000000000000000000000000000 000000000000000A000000000000000000000000000000000000000000000 000000000000000000000000000000000000000     00000000                                                                                                                        000000000000000000
F0010000010543600001000003319910700011050500000000000000000201710240002001LUZ DARY JIMENEZ MARTINEZ                         D000000001200000000000000000000000100010010000000000000000000000F0010000010543600120171024000101 00000000000000000000000000000000000000000000000000000000000000000000000000000000000000000000000000000000000000000N 00000000000NCONT   00    00000000000          00000000000000000000000000000000000000000000 000000000000000A000000000000000000000000000000000000000000000 000000000000000000000000000000000000000     00000000                                                                                                                        000000000000000000
F0010000010543600002000003319910700041450500000000000000000201710240002001LUZ DARY JIMENEZ MARTINEZ                         C000000001100000000000000000000000100010010000000000000000000000F0010000010543600220171024000101 00000000000000000000000000000000000000000000000000000000000000000000000000000000000000000000000000000000000000000N 00000000000NCONT   00    00000000000          00000000000000000000000000000000000000000000 000000000000000A000000000000000000000000000000000000000000000 000000000000000000000000000000000000000     00000000                                                                                                                        000000000000000000
F0010000010543600003000003319910700042505000000000000000000201710240002001LUZ DARY JIMENEZ MARTINEZ                         C000000000100000000000000000000000100010010000000000000000000000F0010000010543600320171024000101 00000000000000000000000000000000000000000000000000000000000000000000000000000000000000000000000000000000000000000N 00000000000NCONT   00    00000000000          00000000000000000000000000000000000000000000 000000000000000A000000000000000000000000000000000000000000000 000000000000000000000000000000000000000     00000000                                                                                                                        000000000000000000
F0010000010543600004000003319910700023658300000000000000000201710240002001LUZ DARY JIMENEZ MARTINEZ                         C000000000000000000000000000000000100010010000000000000000000000F0010000010543600420171024000101 00000000000000000000000000000000000000000000000000000000000000000000000000000000000000000000000000000000000000000N 00000000000NCONT   00    00000000000          00000000000000000000000000000000000000000000 000000000000000A000000000000000000000000000000000000000000000 000000000000000000000000000000000000000     00000000                                                                                                                        000000000000000000
F0010000010543600005000003319910700013552100000000000000000201710240002001LUZ DARY JIMENEZ MARTINEZ                         D000000000000000000000000000000000100010010000000000000000000000F0010000010543600520171024000101 00000000000000000000000000000000000000000000000000000000000000000000000000000000000000000000000000000000000000000N 00000000000NCONT   00    00000000000          00000000000000000000000000000000000000000000 000000000000000A000000000000000000000000000000000000000000000 000000000000000000000000000000000000000     00000000                                                                                                                        000000000000000000
F0010000010543700001000090034602400011050500000000000000000201710240002001PRODUCTOS NACIONALES PARAFINICOS LA CUSTODIA S.A.SD000000002200000000000000000000000100010010000000000000000000000F0010000010543700120171024000101 00000000000000000000000000000000000000000000000000000000000000000000000000000000000000000000000000000000000000000N 00000000000NCONT   00    00000000000          00000000000000000000000000000000000000000000 000000000000000A000000000000000000000000000000000000000000000 000000000000000000000000000000000000000     00000000                                                                                                                        000000000000000000
F0010000010543700002000090034602400041450500000000000000000201710240002001PRODUCTOS NACIONALES PARAFINICOS LA CUSTODIA S.A.SC000000002100000000000000000000000100010010000000000000000000000F0010000010543700220171024000101 00000000000000000000000000000000000000000000000000000000000000000000000000000000000000000000000000000000000000000N 00000000000NCONT   00    00000000000          00000000000000000000000000000000000000000000 000000000000000A000000000000000000000000000000000000000000000 000000000000000000000000000000000000000     00000000                                                                                                                        000000000000000000
F0010000010543700003000090034602400042505000000000000000000201710240002001PRODUCTOS NACIONALES PARAFINICOS LA CUSTODIA S.A.SC000000000100000000000000000000000100010010000000000000000000000F0010000010543700320171024000101 00000000000000000000000000000000000000000000000000000000000000000000000000000000000000000000000000000000000000000N 00000000000NCONT   00    00000000000          00000000000000000000000000000000000000000000 000000000000000A000000000000000000000000000000000000000000000 000000000000000000000000000000000000000     00000000                                                                                                                        000000000000000000
F0010000010543700004000090034602400023658300000000000000000201710240002001PRODUCTOS NACIONALES PARAFINICOS LA CUSTODIA S.A.SC000000000000000000000000000000000100010010000000000000000000000F0010000010543700420171024000101 00000000000000000000000000000000000000000000000000000000000000000000000000000000000000000000000000000000000000000N 00000000000NCONT   00    00000000000          00000000000000000000000000000000000000000000 000000000000000A000000000000000000000000000000000000000000000 000000000000000000000000000000000000000     00000000                                                                                                                        000000000000000000
F0010000010543700005000090034602400013552100000000000000000201710240002001PRODUCTOS NACIONALES PARAFINICOS LA CUSTODIA S.A.SD000000000000000000000000000000000100010010000000000000000000000F0010000010543700520171024000101 00000000000000000000000000000000000000000000000000000000000000000000000000000000000000000000000000000000000000000N 00000000000NCONT   00    00000000000          00000000000000000000000000000000000000000000 000000000000000A000000000000000000000000000000000000000000000 000000000000000000000000000000000000000     00000000                                                                                                                        000000000000000000
F0010000010543800001000080002300200011050500000000000000000201710240002001DISREL S.A.                                       D000000000350000000000000000000000100010010000000000000000000000F0010000010543800120171024000101 00000000000000000000000000000000000000000000000000000000000000000000000000000000000000000000000000000000000000000N 00000000000NCONT   00    00000000000          00000000000000000000000000000000000000000000 000000000000000A000000000000000000000000000000000000000000000 000000000000000000000000000000000000000     00000000                                                                                                                        000000000000000000
F0010000010543800002000080002300200041450500000000000000000201710240002001DISREL S.A.                                       C000000000280000000000000000000000100010010000000000000000000000F0010000010543800220171024000101 00000000000000000000000000000000000000000000000000000000000000000000000000000000000000000000000000000000000000000N 00000000000NCONT   00    00000000000          00000000000000000000000000000000000000000000 000000000000000A000000000000000000000000000000000000000000000 000000000000000000000000000000000000000     00000000                                                                                                                        000000000000000000
F0010000010543800003000080002300200042505000000000000000000201710240002001DISREL S.A.                                       C000000000070000000000000000000000100010010000000000000000000000F0010000010543800320171024000101 00000000000000000000000000000000000000000000000000000000000000000000000000000000000000000000000000000000000000000N 00000000000NCONT   00    00000000000          00000000000000000000000000000000000000000000 000000000000000A000000000000000000000000000000000000000000000 000000000000000000000000000000000000000     00000000                                                                                                                        000000000000000000
F0010000010543800004000080002300200023658300000000000000000201710240002001DISREL S.A.                                       C000000000000000000000000000000000100010010000000000000000000000F0010000010543800420171024000101 00000000000000000000000000000000000000000000000000000000000000000000000000000000000000000000000000000000000000000N 00000000000NCONT   00    00000000000          00000000000000000000000000000000000000000000 000000000000000A000000000000000000000000000000000000000000000 000000000000000000000000000000000000000     00000000                                                                                                                        000000000000000000
F0010000010543800005000080002300200013552100000000000000000201710240002001DISREL S.A.                                       D000000000000000000000000000000000100010010000000000000000000000F0010000010543800520171024000101 00000000000000000000000000000000000000000000000000000000000000000000000000000000000000000000000000000000000000000N 00000000000NCONT   00    00000000000          00000000000000000000000000000000000000000000 000000000000000A000000000000000000000000000000000000000000000 000000000000000000000000000000000000000     00000000                                                                                                                        000000000000000000
F0010000010543900001000089011078600011050500000000000000000201710240002001DIST. NUEVO MUNDO S.A.S.                          D000000001877500000000000000000000100010010000000000000000000000F0010000010543900120171024000101 00000000000000000000000000000000000000000000000000000000000000000000000000000000000000000000000000000000000000000N 00000000000NCONT   00    00000000000          00000000000000000000000000000000000000000000 000000000000000A000000000000000000000000000000000000000000000 000000000000000000000000000000000000000     00000000                                                                                                                        000000000000000000
F0010000010543900002000089011078600041450500000000000000000201710240002001DIST. NUEVO MUNDO S.A.S.                          C000000001590000000000000000000000100010010000000000000000000000F0010000010543900220171024000101 00000000000000000000000000000000000000000000000000000000000000000000000000000000000000000000000000000000000000000N 00000000000NCONT   00    00000000000          00000000000000000000000000000000000000000000 000000000000000A000000000000000000000000000000000000000000000 000000000000000000000000000000000000000     00000000                                                                                                                        000000000000000000
F0010000010543900003000089011078600042505000000000000000000201710240002001DIST. NUEVO MUNDO S.A.S.                          C000000000287500000000000000000000100010010000000000000000000000F0010000010543900320171024000101 00000000000000000000000000000000000000000000000000000000000000000000000000000000000000000000000000000000000000000N 00000000000NCONT   00    00000000000          00000000000000000000000000000000000000000000 000000000000000A000000000000000000000000000000000000000000000 000000000000000000000000000000000000000     00000000                                                                                                                        000000000000000000
F0010000010543900004000089011078600023658300000000000000000201710240002001DIST. NUEVO MUNDO S.A.S.                          C000000000000000000000000000000000100010010000000000000000000000F0010000010543900420171024000101 00000000000000000000000000000000000000000000000000000000000000000000000000000000000000000000000000000000000000000N 00000000000NCONT   00    00000000000          00000000000000000000000000000000000000000000 000000000000000A000000000000000000000000000000000000000000000 000000000000000000000000000000000000000     00000000                                                                                                                        000000000000000000
F0010000010543900005000089011078600013552100000000000000000201710240002001DIST. NUEVO MUNDO S.A.S.                          D000000000000000000000000000000000100010010000000000000000000000F0010000010543900520171024000101 00000000000000000000000000000000000000000000000000000000000000000000000000000000000000000000000000000000000000000N 00000000000NCONT   00    00000000000          00000000000000000000000000000000000000000000 000000000000000A000000000000000000000000000000000000000000000 000000000000000000000000000000000000000     00000000                                                                                                                        000000000000000000
F0010000010544000001000083008772100011050500000000000000000201710240002001ILUMEC SAS                                        D000000001350000000000000000000000100010010000000000000000000000F0010000010544000120171024000101 00000000000000000000000000000000000000000000000000000000000000000000000000000000000000000000000000000000000000000N 00000000000NCONT   00    00000000000          00000000000000000000000000000000000000000000 000000000000000A000000000000000000000000000000000000000000000 000000000000000000000000000000000000000     00000000                                                                                                                        000000000000000000
F0010000010544000002000083008772100041450500000000000000000201710240002001ILUMEC SAS                                        C000000000950000000000000000000000100010010000000000000000000000F0010000010544000220171024000101 00000000000000000000000000000000000000000000000000000000000000000000000000000000000000000000000000000000000000000N 00000000000NCONT   00    00000000000          00000000000000000000000000000000000000000000 000000000000000A000000000000000000000000000000000000000000000 000000000000000000000000000000000000000     00000000                                                                                                                        000000000000000000
F0010000010544000003000083008772100042505000000000000000000201710240002001ILUMEC SAS                                        C000000000400000000000000000000000100010010000000000000000000000F0010000010544000320171024000101 00000000000000000000000000000000000000000000000000000000000000000000000000000000000000000000000000000000000000000N 00000000000NCONT   00    00000000000          00000000000000000000000000000000000000000000 000000000000000A000000000000000000000000000000000000000000000 000000000000000000000000000000000000000     00000000                                                                                                                        000000000000000000
F0010000010544000004000083008772100023658300000000000000000201710240002001ILUMEC SAS                                        C000000000000000000000000000000000100010010000000000000000000000F0010000010544000420171024000101 00000000000000000000000000000000000000000000000000000000000000000000000000000000000000000000000000000000000000000N 00000000000NCONT   00    00000000000          00000000000000000000000000000000000000000000 000000000000000A000000000000000000000000000000000000000000000 000000000000000000000000000000000000000     00000000                                                                                                                        000000000000000000
F0010000010544000005000083008772100013552100000000000000000201710240002001ILUMEC SAS                                        D000000000000000000000000000000000100010010000000000000000000000F0010000010544000520171024000101 00000000000000000000000000000000000000000000000000000000000000000000000000000000000000000000000000000000000000000N 00000000000NCONT   00    00000000000          00000000000000000000000000000000000000000000 000000000000000A000000000000000000000000000000000000000000000 000000000000000000000000000000000000000     00000000                                                                                                                        000000000000000000
F0010000010544100001000080202350700011050500000000000000000201710240002001CONNY DE LA COSTA SAS                             D000000004600000000000000000000000100010010000000000000000000000F0010000010544100120171024000101 00000000000000000000000000000000000000000000000000000000000000000000000000000000000000000000000000000000000000000N 00000000000NCONT   00    00000000000          00000000000000000000000000000000000000000000 000000000000000A000000000000000000000000000000000000000000000 000000000000000000000000000000000000000     00000000                                                                                                                        000000000000000000
F0010000010544100002000080202350700041450500000000000000000201710240002001CONNY DE LA COSTA SAS                             C000000004500000000000000000000000100010010000000000000000000000F0010000010544100220171024000101 00000000000000000000000000000000000000000000000000000000000000000000000000000000000000000000000000000000000000000N 00000000000NCONT   00    00000000000          00000000000000000000000000000000000000000000 000000000000000A000000000000000000000000000000000000000000000 000000000000000000000000000000000000000     00000000                                                                                                                        000000000000000000
F0010000010544100003000080202350700042505000000000000000000201710240002001CONNY DE LA COSTA SAS                             C000000000100000000000000000000000100010010000000000000000000000F0010000010544100320171024000101 00000000000000000000000000000000000000000000000000000000000000000000000000000000000000000000000000000000000000000N 00000000000NCONT   00    00000000000          00000000000000000000000000000000000000000000 000000000000000A000000000000000000000000000000000000000000000 000000000000000000000000000000000000000     00000000                                                                                                                        000000000000000000
F0010000010544100004000080202350700023658300000000000000000201710240002001CONNY DE LA COSTA SAS                             C000000000000000000000000000000000100010010000000000000000000000F0010000010544100420171024000101 00000000000000000000000000000000000000000000000000000000000000000000000000000000000000000000000000000000000000000N 00000000000NCONT   00    00000000000          00000000000000000000000000000000000000000000 000000000000000A000000000000000000000000000000000000000000000 000000000000000000000000000000000000000     00000000                                                                                                                        000000000000000000
F0010000010544100005000080202350700013552100000000000000000201710240002001CONNY DE LA COSTA SAS                             D000000000000000000000000000000000100010010000000000000000000000F0010000010544100520171024000101 00000000000000000000000000000000000000000000000000000000000000000000000000000000000000000000000000000000000000000N 00000000000NCONT   00    00000000000          00000000000000000000000000000000000000000000 000000000000000A000000000000000000000000000000000000000000000 000000000000000000000000000000000000000     00000000                                                                                                                        000000000000000000
F0010000010544200001000000742399700011050500000000000000000201710240002001CACHARRERIA EL NUEVO CHADID                       D000000014400000000000000000000000100010010000000000000000000000F0010000010544200120171024000101 00000000000000000000000000000000000000000000000000000000000000000000000000000000000000000000000000000000000000000N 00000000000NCONT   00    00000000000          00000000000000000000000000000000000000000000 000000000000000A000000000000000000000000000000000000000000000 000000000000000000000000000000000000000     00000000                                                                                                                        000000000000000000
F0010000010544200002000000742399700041450500000000000000000201710240002001CACHARRERIA EL NUEVO CHADID                       C000000012000000000000000000000000100010010000000000000000000000F0010000010544200220171024000101 00000000000000000000000000000000000000000000000000000000000000000000000000000000000000000000000000000000000000000N 00000000000NCONT   00    00000000000          00000000000000000000000000000000000000000000 000000000000000A000000000000000000000000000000000000000000000 000000000000000000000000000000000000000     00000000                                                                                                                        000000000000000000
F0010000010544200003000000742399700042505000000000000000000201710240002001CACHARRERIA EL NUEVO CHADID                       C000000002400000000000000000000000100010010000000000000000000000F0010000010544200320171024000101 00000000000000000000000000000000000000000000000000000000000000000000000000000000000000000000000000000000000000000N 00000000000NCONT   00    00000000000          00000000000000000000000000000000000000000000 000000000000000A000000000000000000000000000000000000000000000 000000000000000000000000000000000000000     00000000                                                                                                                        000000000000000000
F0010000010544200004000000742399700023658300000000000000000201710240002001CACHARRERIA EL NUEVO CHADID                       C000000000000000000000000000000000100010010000000000000000000000F0010000010544200420171024000101 00000000000000000000000000000000000000000000000000000000000000000000000000000000000000000000000000000000000000000N 00000000000NCONT   00    00000000000          00000000000000000000000000000000000000000000 000000000000000A000000000000000000000000000000000000000000000 000000000000000000000000000000000000000     00000000                                                                                                                        000000000000000000
F0010000010544200005000000742399700013552100000000000000000201710240002001CACHARRERIA EL NUEVO CHADID                       D000000000000000000000000000000000100010010000000000000000000000F0010000010544200520171024000101 00000000000000000000000000000000000000000000000000000000000000000000000000000000000000000000000000000000000000000N 00000000000NCONT   00    00000000000          00000000000000000000000000000000000000000000 000000000000000A000000000000000000000000000000000000000000000 000000000000000000000000000000000000000     00000000                                                                                                                        000000000000000000
F0010000010544300001000000742399700011050500000000000000000201710240002001CACHARRERIA EL NUEVO CHADID                       D000000004100000000000000000000000100010010000000000000000000000F0010000010544300120171024000101 00000000000000000000000000000000000000000000000000000000000000000000000000000000000000000000000000000000000000000N 00000000000NCONT   00    00000000000          00000000000000000000000000000000000000000000 000000000000000A000000000000000000000000000000000000000000000 000000000000000000000000000000000000000     00000000                                                                                                                        000000000000000000
F0010000010544300002000000742399700041450500000000000000000201710240002001CACHARRERIA EL NUEVO CHADID                       C000000003600000000000000000000000100010010000000000000000000000F0010000010544300220171024000101 00000000000000000000000000000000000000000000000000000000000000000000000000000000000000000000000000000000000000000N 00000000000NCONT   00    00000000000          00000000000000000000000000000000000000000000 000000000000000A000000000000000000000000000000000000000000000 000000000000000000000000000000000000000     00000000                                                                                                                        000000000000000000
F0010000010544300003000000742399700042505000000000000000000201710240002001CACHARRERIA EL NUEVO CHADID                       C000000000500000000000000000000000100010010000000000000000000000F0010000010544300320171024000101 00000000000000000000000000000000000000000000000000000000000000000000000000000000000000000000000000000000000000000N 00000000000NCONT   00    00000000000          00000000000000000000000000000000000000000000 000000000000000A000000000000000000000000000000000000000000000 000000000000000000000000000000000000000     00000000                                                                                                                        000000000000000000
F0010000010544300004000000742399700023658300000000000000000201710240002001CACHARRERIA EL NUEVO CHADID                       C000000000000000000000000000000000100010010000000000000000000000F0010000010544300420171024000101 00000000000000000000000000000000000000000000000000000000000000000000000000000000000000000000000000000000000000000N 00000000000NCONT   00    00000000000          00000000000000000000000000000000000000000000 000000000000000A000000000000000000000000000000000000000000000 000000000000000000000000000000000000000     00000000                                                                                                                        000000000000000000
F0010000010544300005000000742399700013552100000000000000000201710240002001CACHARRERIA EL NUEVO CHADID                       D000000000000000000000000000000000100010010000000000000000000000F0010000010544300520171024000101 00000000000000000000000000000000000000000000000000000000000000000000000000000000000000000000000000000000000000000N 00000000000NCONT   00    00000000000          00000000000000000000000000000000000000000000 000000000000000A000000000000000000000000000000000000000000000 000000000000000000000000000000000000000     00000000                                                                                                                        000000000000000000
F0010000010544400001000007214453300011050500000000000000000201710240002001CARLOS RESTREPO                                   D000000004700000000000000000000000100010010000000000000000000000F0010000010544400120171024000101 00000000000000000000000000000000000000000000000000000000000000000000000000000000000000000000000000000000000000000N 00000000000NCONT   00    00000000000          00000000000000000000000000000000000000000000 000000000000000A000000000000000000000000000000000000000000000 000000000000000000000000000000000000000     00000000                                                                                                                        000000000000000000
F0010000010544400002000007214453300041450500000000000000000201710240002001CARLOS RESTREPO                                   C000000004400000000000000000000000100010010000000000000000000000F0010000010544400220171024000101 00000000000000000000000000000000000000000000000000000000000000000000000000000000000000000000000000000000000000000N 00000000000NCONT   00    00000000000          00000000000000000000000000000000000000000000 000000000000000A000000000000000000000000000000000000000000000 000000000000000000000000000000000000000     00000000                                                                                                                        000000000000000000
F0010000010544400003000007214453300042505000000000000000000201710240002001CARLOS RESTREPO                                   C000000000300000000000000000000000100010010000000000000000000000F0010000010544400320171024000101 00000000000000000000000000000000000000000000000000000000000000000000000000000000000000000000000000000000000000000N 00000000000NCONT   00    00000000000          00000000000000000000000000000000000000000000 000000000000000A000000000000000000000000000000000000000000000 000000000000000000000000000000000000000     00000000                                                                                                                        000000000000000000
F0010000010544400004000007214453300023658300000000000000000201710240002001CARLOS RESTREPO                                   C000000000000000000000000000000000100010010000000000000000000000F0010000010544400420171024000101 00000000000000000000000000000000000000000000000000000000000000000000000000000000000000000000000000000000000000000N 00000000000NCONT   00    00000000000          00000000000000000000000000000000000000000000 000000000000000A000000000000000000000000000000000000000000000 000000000000000000000000000000000000000     00000000                                                                                                                        000000000000000000
F0010000010544400005000007214453300013552100000000000000000201710240002001CARLOS RESTREPO                                   D000000000000000000000000000000000100010010000000000000000000000F0010000010544400520171024000101 00000000000000000000000000000000000000000000000000000000000000000000000000000000000000000000000000000000000000000N 00000000000NCONT   00    00000000000          00000000000000000000000000000000000000000000 000000000000000A000000000000000000000000000000000000000000000 000000000000000000000000000000000000000     00000000                                                                                                                        000000000000000000
F0010000010544500001000080202350700011050500000000000000000201710240002001CONNY DE LA COSTA SAS                             D000000001900000000000000000000000100010010000000000000000000000F0010000010544500120171024000101 00000000000000000000000000000000000000000000000000000000000000000000000000000000000000000000000000000000000000000N 00000000000NCONT   00    00000000000          00000000000000000000000000000000000000000000 000000000000000A000000000000000000000000000000000000000000000 000000000000000000000000000000000000000     00000000                                                                                                                        000000000000000000
F0010000010544500002000080202350700041450500000000000000000201710240002001CONNY DE LA COSTA SAS                             C000000001800000000000000000000000100010010000000000000000000000F0010000010544500220171024000101 00000000000000000000000000000000000000000000000000000000000000000000000000000000000000000000000000000000000000000N 00000000000NCONT   00    00000000000          00000000000000000000000000000000000000000000 000000000000000A000000000000000000000000000000000000000000000 000000000000000000000000000000000000000     00000000                                                                                                                        000000000000000000
F0010000010544500003000080202350700042505000000000000000000201710240002001CONNY DE LA COSTA SAS                             C000000000100000000000000000000000100010010000000000000000000000F0010000010544500320171024000101 00000000000000000000000000000000000000000000000000000000000000000000000000000000000000000000000000000000000000000N 00000000000NCONT   00    00000000000          00000000000000000000000000000000000000000000 000000000000000A000000000000000000000000000000000000000000000 000000000000000000000000000000000000000     00000000                                                                                                                        000000000000000000
F0010000010544500004000080202350700023658300000000000000000201710240002001CONNY DE LA COSTA SAS                             C000000000000000000000000000000000100010010000000000000000000000F0010000010544500420171024000101 00000000000000000000000000000000000000000000000000000000000000000000000000000000000000000000000000000000000000000N 00000000000NCONT   00    00000000000          00000000000000000000000000000000000000000000 000000000000000A000000000000000000000000000000000000000000000 000000000000000000000000000000000000000     00000000                                                                                                                        000000000000000000
F0010000010544500005000080202350700013552100000000000000000201710240002001CONNY DE LA COSTA SAS                             D000000000000000000000000000000000100010010000000000000000000000F0010000010544500520171024000101 00000000000000000000000000000000000000000000000000000000000000000000000000000000000000000000000000000000000000000N 00000000000NCONT   00    00000000000          00000000000000000000000000000000000000000000 000000000000000A000000000000000000000000000000000000000000000 000000000000000000000000000000000000000     00000000                                                                                                                        000000000000000000
F0010000010544600001000000866840800011050500000000000000000201710240002001CACHARRERIA MARTIN                                D000000004200000000000000000000000100010010000000000000000000000F0010000010544600120171024000101 00000000000000000000000000000000000000000000000000000000000000000000000000000000000000000000000000000000000000000N 00000000000NCONT   00    00000000000          00000000000000000000000000000000000000000000 000000000000000A000000000000000000000000000000000000000000000 000000000000000000000000000000000000000     00000000                                                                                                                        000000000000000000
F0010000010544600002000000866840800041450500000000000000000201710240002001CACHARRERIA MARTIN                                C000000002200000000000000000000000100010010000000000000000000000F0010000010544600220171024000101 00000000000000000000000000000000000000000000000000000000000000000000000000000000000000000000000000000000000000000N 00000000000NCONT   00    00000000000          00000000000000000000000000000000000000000000 000000000000000A000000000000000000000000000000000000000000000 000000000000000000000000000000000000000     00000000                                                                                                                        000000000000000000
F0010000010544600003000000866840800042505000000000000000000201710240002001CACHARRERIA MARTIN                                C000000002000000000000000000000000100010010000000000000000000000F0010000010544600320171024000101 00000000000000000000000000000000000000000000000000000000000000000000000000000000000000000000000000000000000000000N 00000000000NCONT   00    00000000000          00000000000000000000000000000000000000000000 000000000000000A000000000000000000000000000000000000000000000 000000000000000000000000000000000000000     00000000                                                                                                                        000000000000000000
F0010000010544600004000000866840800023658300000000000000000201710240002001CACHARRERIA MARTIN                                C000000000000000000000000000000000100010010000000000000000000000F0010000010544600420171024000101 00000000000000000000000000000000000000000000000000000000000000000000000000000000000000000000000000000000000000000N 00000000000NCONT   00    00000000000          00000000000000000000000000000000000000000000 000000000000000A000000000000000000000000000000000000000000000 000000000000000000000000000000000000000     00000000                                                                                                                        000000000000000000
F0010000010544600005000000866840800013552100000000000000000201710240002001CACHARRERIA MARTIN                                D000000000000000000000000000000000100010010000000000000000000000F0010000010544600520171024000101 00000000000000000000000000000000000000000000000000000000000000000000000000000000000000000000000000000000000000000N 00000000000NCONT   00    00000000000          00000000000000000000000000000000000000000000 000000000000000A000000000000000000000000000000000000000000000 000000000000000000000000000000000000000     00000000                                                                                                                        000000000000000000
F0010000010544700001000114085854800011050500000000000000000201710240002001DAVID ANTONIO BARROS ARRIETA                      D000000004100000000000000000000000100010010000000000000000000000F0010000010544700120171024000101 00000000000000000000000000000000000000000000000000000000000000000000000000000000000000000000000000000000000000000N 00000000000NCONT   00    00000000000          00000000000000000000000000000000000000000000 000000000000000A000000000000000000000000000000000000000000000 000000000000000000000000000000000000000     00000000                                                                                                                        000000000000000000
F0010000010544700002000114085854800041450500000000000000000201710240002001DAVID ANTONIO BARROS ARRIETA                      C000000003300000000000000000000000100010010000000000000000000000F0010000010544700220171024000101 00000000000000000000000000000000000000000000000000000000000000000000000000000000000000000000000000000000000000000N 00000000000NCONT   00    00000000000          00000000000000000000000000000000000000000000 000000000000000A000000000000000000000000000000000000000000000 000000000000000000000000000000000000000     00000000                                                                                                                        000000000000000000
F0010000010544700003000114085854800042505000000000000000000201710240002001DAVID ANTONIO BARROS ARRIETA                      C000000000800000000000000000000000100010010000000000000000000000F0010000010544700320171024000101 00000000000000000000000000000000000000000000000000000000000000000000000000000000000000000000000000000000000000000N 00000000000NCONT   00    00000000000          00000000000000000000000000000000000000000000 000000000000000A000000000000000000000000000000000000000000000 000000000000000000000000000000000000000     00000000                                                                                                                        000000000000000000
F0010000010544700004000114085854800023658300000000000000000201710240002001DAVID ANTONIO BARROS ARRIETA                      C000000000000000000000000000000000100010010000000000000000000000F0010000010544700420171024000101 00000000000000000000000000000000000000000000000000000000000000000000000000000000000000000000000000000000000000000N 00000000000NCONT   00    00000000000          00000000000000000000000000000000000000000000 000000000000000A000000000000000000000000000000000000000000000 000000000000000000000000000000000000000     00000000                                                                                                                        000000000000000000
F0010000010544700005000114085854800013552100000000000000000201710240002001DAVID ANTONIO BARROS ARRIETA                      D000000000000000000000000000000000100010010000000000000000000000F0010000010544700520171024000101 00000000000000000000000000000000000000000000000000000000000000000000000000000000000000000000000000000000000000000N 00000000000NCONT   00    00000000000          00000000000000000000000000000000000000000000 000000000000000A000000000000000000000000000000000000000000000 000000000000000000000000000000000000000     00000000                                                                                                                        000000000000000000
F0010000010544800001000001961875400011050500000000000000000201710240002001PALETERIA  KAYROS                                 D000000001350000000000000000000000100010010000000000000000000000F0010000010544800120171024000101 00000000000000000000000000000000000000000000000000000000000000000000000000000000000000000000000000000000000000000N 00000000000NCONT   00    00000000000          00000000000000000000000000000000000000000000 000000000000000A000000000000000000000000000000000000000000000 000000000000000000000000000000000000000     00000000                                                                                                                        000000000000000000
F0010000010544800002000001961875400041450500000000000000000201710240002001PALETERIA  KAYROS                                 C000000001100000000000000000000000100010010000000000000000000000F0010000010544800220171024000101 00000000000000000000000000000000000000000000000000000000000000000000000000000000000000000000000000000000000000000N 00000000000NCONT   00    00000000000          00000000000000000000000000000000000000000000 000000000000000A000000000000000000000000000000000000000000000 000000000000000000000000000000000000000     00000000                                                                                                                        000000000000000000
F0010000010544800003000001961875400042505000000000000000000201710240002001PALETERIA  KAYROS                                 C000000000250000000000000000000000100010010000000000000000000000F0010000010544800320171024000101 00000000000000000000000000000000000000000000000000000000000000000000000000000000000000000000000000000000000000000N 00000000000NCONT   00    00000000000          00000000000000000000000000000000000000000000 000000000000000A000000000000000000000000000000000000000000000 000000000000000000000000000000000000000     00000000                                                                                                                        000000000000000000
F0010000010544800004000001961875400023658300000000000000000201710240002001PALETERIA  KAYROS                                 C000000000000000000000000000000000100010010000000000000000000000F0010000010544800420171024000101 00000000000000000000000000000000000000000000000000000000000000000000000000000000000000000000000000000000000000000N 00000000000NCONT   00    00000000000          00000000000000000000000000000000000000000000 000000000000000A000000000000000000000000000000000000000000000 000000000000000000000000000000000000000     00000000                                                                                                                        000000000000000000
F0010000010544800005000001961875400013552100000000000000000201710240002001PALETERIA  KAYROS                                 D000000000000000000000000000000000100010010000000000000000000000F0010000010544800520171024000101 00000000000000000000000000000000000000000000000000000000000000000000000000000000000000000000000000000000000000000N 00000000000NCONT   00    00000000000          00000000000000000000000000000000000000000000 000000000000000A000000000000000000000000000000000000000000000 000000000000000000000000000000000000000     00000000                                                                                                                        000000000000000000
F0010000010544900001000102390001700011050500000000000000000201710240002001LILIANA HERNANDEZ PINILLA                         D000000007700000000000000000000000100010010000000000000000000000F0010000010544900120171024000101 00000000000000000000000000000000000000000000000000000000000000000000000000000000000000000000000000000000000000000N 00000000000NCONT   00    00000000000          00000000000000000000000000000000000000000000 000000000000000A000000000000000000000000000000000000000000000 000000000000000000000000000000000000000     00000000                                                                                                                        000000000000000000
F0010000010544900002000102390001700041450500000000000000000201710240002001LILIANA HERNANDEZ PINILLA                         C000000006500000000000000000000000100010010000000000000000000000F0010000010544900220171024000101 00000000000000000000000000000000000000000000000000000000000000000000000000000000000000000000000000000000000000000N 00000000000NCONT   00    00000000000          00000000000000000000000000000000000000000000 000000000000000A000000000000000000000000000000000000000000000 000000000000000000000000000000000000000     00000000                                                                                                                        000000000000000000
F0010000010544900003000102390001700042505000000000000000000201710240002001LILIANA HERNANDEZ PINILLA                         C000000001200000000000000000000000100010010000000000000000000000F0010000010544900320171024000101 00000000000000000000000000000000000000000000000000000000000000000000000000000000000000000000000000000000000000000N 00000000000NCONT   00    00000000000          00000000000000000000000000000000000000000000 000000000000000A000000000000000000000000000000000000000000000 000000000000000000000000000000000000000     00000000                                                                                                                        000000000000000000
F0010000010544900004000102390001700023658300000000000000000201710240002001LILIANA HERNANDEZ PINILLA                         C000000000000000000000000000000000100010010000000000000000000000F0010000010544900420171024000101 00000000000000000000000000000000000000000000000000000000000000000000000000000000000000000000000000000000000000000N 00000000000NCONT   00    00000000000          00000000000000000000000000000000000000000000 000000000000000A000000000000000000000000000000000000000000000 000000000000000000000000000000000000000     00000000                                                                                                                        000000000000000000
F0010000010544900005000102390001700013552100000000000000000201710240002001LILIANA HERNANDEZ PINILLA                         D000000000000000000000000000000000100010010000000000000000000000F0010000010544900520171024000101 00000000000000000000000000000000000000000000000000000000000000000000000000000000000000000000000000000000000000000N 00000000000NCONT   00    00000000000          00000000000000000000000000000000000000000000 000000000000000A000000000000000000000000000000000000000000000 000000000000000000000000000000000000000     00000000                                                                                                                        000000000000000000
F0010000010545000001000102390001700011050500000000000000000201710240002001LILIANA HERNANDEZ PINILLA                         D000000003600000000000000000000000100010010000000000000000000000F0010000010545000120171024000101 00000000000000000000000000000000000000000000000000000000000000000000000000000000000000000000000000000000000000000N 00000000000NCONT   00    00000000000          00000000000000000000000000000000000000000000 000000000000000A000000000000000000000000000000000000000000000 000000000000000000000000000000000000000     00000000                                                                                                                        000000000000000000
F0010000010545000002000102390001700041450500000000000000000201710240002001LILIANA HERNANDEZ PINILLA                         C000000002600000000000000000000000100010010000000000000000000000F0010000010545000220171024000101 00000000000000000000000000000000000000000000000000000000000000000000000000000000000000000000000000000000000000000N 00000000000NCONT   00    00000000000          00000000000000000000000000000000000000000000 000000000000000A000000000000000000000000000000000000000000000 000000000000000000000000000000000000000     00000000                                                                                                                        000000000000000000
F0010000010545000003000102390001700042505000000000000000000201710240002001LILIANA HERNANDEZ PINILLA                         C000000001000000000000000000000000100010010000000000000000000000F0010000010545000320171024000101 00000000000000000000000000000000000000000000000000000000000000000000000000000000000000000000000000000000000000000N 00000000000NCONT   00    00000000000          00000000000000000000000000000000000000000000 000000000000000A000000000000000000000000000000000000000000000 000000000000000000000000000000000000000     00000000                                                                                                                        000000000000000000
F0010000010545000004000102390001700023658300000000000000000201710240002001LILIANA HERNANDEZ PINILLA                         C000000000000000000000000000000000100010010000000000000000000000F0010000010545000420171024000101 00000000000000000000000000000000000000000000000000000000000000000000000000000000000000000000000000000000000000000N 00000000000NCONT   00    00000000000          00000000000000000000000000000000000000000000 000000000000000A000000000000000000000000000000000000000000000 000000000000000000000000000000000000000     00000000                                                                                                                        000000000000000000
F0010000010545000005000102390001700013552100000000000000000201710240002001LILIANA HERNANDEZ PINILLA                         D000000000000000000000000000000000100010010000000000000000000000F0010000010545000520171024000101 00000000000000000000000000000000000000000000000000000000000000000000000000000000000000000000000000000000000000000N 00000000000NCONT   00    00000000000          00000000000000000000000000000000000000000000 000000000000000A000000000000000000000000000000000000000000000 000000000000000000000000000000000000000     00000000                                                                                                                        000000000000000000
F0010000010545100001000102390001700011050500000000000000000201710240002001LILIANA HERNANDEZ PINILLA                         D000000001800000000000000000000000100010010000000000000000000000F0010000010545100120171024000101 00000000000000000000000000000000000000000000000000000000000000000000000000000000000000000000000000000000000000000N 00000000000NCONT   00    00000000000          00000000000000000000000000000000000000000000 000000000000000A000000000000000000000000000000000000000000000 000000000000000000000000000000000000000     00000000                                                                                                                        000000000000000000
F0010000010545100002000102390001700041450500000000000000000201710240002001LILIANA HERNANDEZ PINILLA                         C000000001300000000000000000000000100010010000000000000000000000F0010000010545100220171024000101 00000000000000000000000000000000000000000000000000000000000000000000000000000000000000000000000000000000000000000N 00000000000NCONT   00    00000000000          00000000000000000000000000000000000000000000 000000000000000A000000000000000000000000000000000000000000000 000000000000000000000000000000000000000     00000000                                                                                                                        000000000000000000
F0010000010545100003000102390001700042505000000000000000000201710240002001LILIANA HERNANDEZ PINILLA                         C000000000500000000000000000000000100010010000000000000000000000F0010000010545100320171024000101 00000000000000000000000000000000000000000000000000000000000000000000000000000000000000000000000000000000000000000N 00000000000NCONT   00    00000000000          00000000000000000000000000000000000000000000 000000000000000A000000000000000000000000000000000000000000000 000000000000000000000000000000000000000     00000000                                                                                                                        000000000000000000
F0010000010545100004000102390001700023658300000000000000000201710240002001LILIANA HERNANDEZ PINILLA                         C000000000000000000000000000000000100010010000000000000000000000F0010000010545100420171024000101 00000000000000000000000000000000000000000000000000000000000000000000000000000000000000000000000000000000000000000N 00000000000NCONT   00    00000000000          00000000000000000000000000000000000000000000 000000000000000A000000000000000000000000000000000000000000000 000000000000000000000000000000000000000     00000000                                                                                                                        000000000000000000
F0010000010545100005000102390001700013552100000000000000000201710240002001LILIANA HERNANDEZ PINILLA                         D000000000000000000000000000000000100010010000000000000000000000F0010000010545100520171024000101 00000000000000000000000000000000000000000000000000000000000000000000000000000000000000000000000000000000000000000N 00000000000NCONT   00    00000000000          00000000000000000000000000000000000000000000 000000000000000A000000000000000000000000000000000000000000000 000000000000000000000000000000000000000     00000000                                                                                                                        000000000000000000
F0010000010545200001000000866531000011050500000000000000000201710240002001CLAUDIO RAFAEL DE JESUS LLINAS MOLINA             D000000005700000000000000000000000100010010000000000000000000000F0010000010545200120171024000101 00000000000000000000000000000000000000000000000000000000000000000000000000000000000000000000000000000000000000000N 00000000000NCONT   00    00000000000          00000000000000000000000000000000000000000000 000000000000000A000000000000000000000000000000000000000000000 000000000000000000000000000000000000000     00000000                                                                                                                        000000000000000000
F0010000010545200002000000866531000041450500000000000000000201710240002001CLAUDIO RAFAEL DE JESUS LLINAS MOLINA             C000000005200000000000000000000000100010010000000000000000000000F0010000010545200220171024000101 00000000000000000000000000000000000000000000000000000000000000000000000000000000000000000000000000000000000000000N 00000000000NCONT   00    00000000000          00000000000000000000000000000000000000000000 000000000000000A000000000000000000000000000000000000000000000 000000000000000000000000000000000000000     00000000                                                                                                                        000000000000000000
F0010000010545200003000000866531000042505000000000000000000201710240002001CLAUDIO RAFAEL DE JESUS LLINAS MOLINA             C000000000500000000000000000000000100010010000000000000000000000F0010000010545200320171024000101 00000000000000000000000000000000000000000000000000000000000000000000000000000000000000000000000000000000000000000N 00000000000NCONT   00    00000000000          00000000000000000000000000000000000000000000 000000000000000A000000000000000000000000000000000000000000000 000000000000000000000000000000000000000     00000000                                                                                                                        000000000000000000
F0010000010545200004000000866531000023658300000000000000000201710240002001CLAUDIO RAFAEL DE JESUS LLINAS MOLINA             C000000000000000000000000000000000100010010000000000000000000000F0010000010545200420171024000101 00000000000000000000000000000000000000000000000000000000000000000000000000000000000000000000000000000000000000000N 00000000000NCONT   00    00000000000          00000000000000000000000000000000000000000000 000000000000000A000000000000000000000000000000000000000000000 000000000000000000000000000000000000000     00000000                                                                                                                        000000000000000000
F0010000010545200005000000866531000013552100000000000000000201710240002001CLAUDIO RAFAEL DE JESUS LLINAS MOLINA             D000000000000000000000000000000000100010010000000000000000000000F0010000010545200520171024000101 00000000000000000000000000000000000000000000000000000000000000000000000000000000000000000000000000000000000000000N 00000000000NCONT   00    00000000000          00000000000000000000000000000000000000000000 000000000000000A000000000000000000000000000000000000000000000 000000000000000000000000000000000000000     00000000                                                                                                                        000000000000000000
F0010000010545300001000000856905200011050500000000000000000201710240002001SUELAS Y MATERIALES BARRANQUILL                   D000000002100000000000000000000000100010010000000000000000000000F0010000010545300120171024000101 00000000000000000000000000000000000000000000000000000000000000000000000000000000000000000000000000000000000000000N 00000000000NCONT   00    00000000000          00000000000000000000000000000000000000000000 000000000000000A000000000000000000000000000000000000000000000 000000000000000000000000000000000000000     00000000                                                                                                                        000000000000000000
F0010000010545300002000000856905200041450500000000000000000201710240002001SUELAS Y MATERIALES BARRANQUILL                   C000000001800000000000000000000000100010010000000000000000000000F0010000010545300220171024000101 00000000000000000000000000000000000000000000000000000000000000000000000000000000000000000000000000000000000000000N 00000000000NCONT   00    00000000000          00000000000000000000000000000000000000000000 000000000000000A000000000000000000000000000000000000000000000 000000000000000000000000000000000000000     00000000                                                                                                                        000000000000000000
F0010000010545300003000000856905200042505000000000000000000201710240002001SUELAS Y MATERIALES BARRANQUILL                   C000000000300000000000000000000000100010010000000000000000000000F0010000010545300320171024000101 00000000000000000000000000000000000000000000000000000000000000000000000000000000000000000000000000000000000000000N 00000000000NCONT   00    00000000000          00000000000000000000000000000000000000000000 000000000000000A000000000000000000000000000000000000000000000 000000000000000000000000000000000000000     00000000                                                                                                                        000000000000000000
F0010000010545300004000000856905200023658300000000000000000201710240002001SUELAS Y MATERIALES BARRANQUILL                   C000000000000000000000000000000000100010010000000000000000000000F0010000010545300420171024000101 00000000000000000000000000000000000000000000000000000000000000000000000000000000000000000000000000000000000000000N 00000000000NCONT   00    00000000000          00000000000000000000000000000000000000000000 000000000000000A000000000000000000000000000000000000000000000 000000000000000000000000000000000000000     00000000                                                                                                                        000000000000000000
F0010000010545300005000000856905200013552100000000000000000201710240002001SUELAS Y MATERIALES BARRANQUILL                   D000000000000000000000000000000000100010010000000000000000000000F0010000010545300520171024000101 00000000000000000000000000000000000000000000000000000000000000000000000000000000000000000000000000000000000000000N 00000000000NCONT   00    00000000000          00000000000000000000000000000000000000000000 000000000000000A000000000000000000000000000000000000000000000 000000000000000000000000000000000000000     00000000                                                                                                                        000000000000000000
F0010000010545400001000007069087100011050500000000000000000201710240002001IVAN DUQUE                                        D000000004500000000000000000000000100010010000000000000000000000F0010000010545400120171024000101 00000000000000000000000000000000000000000000000000000000000000000000000000000000000000000000000000000000000000000N 00000000000NCONT   00    00000000000          00000000000000000000000000000000000000000000 000000000000000A000000000000000000000000000000000000000000000 000000000000000000000000000000000000000     00000000                                                                                                                        000000000000000000
F0010000010545400002000007069087100041450500000000000000000201710240002001IVAN DUQUE                                        C000000004400000000000000000000000100010010000000000000000000000F0010000010545400220171024000101 00000000000000000000000000000000000000000000000000000000000000000000000000000000000000000000000000000000000000000N 00000000000NCONT   00    00000000000          00000000000000000000000000000000000000000000 000000000000000A000000000000000000000000000000000000000000000 000000000000000000000000000000000000000     00000000                                                                                                                        000000000000000000
F0010000010545400003000007069087100042505000000000000000000201710240002001IVAN DUQUE                                        C000000000100000000000000000000000100010010000000000000000000000F0010000010545400320171024000101 00000000000000000000000000000000000000000000000000000000000000000000000000000000000000000000000000000000000000000N 00000000000NCONT   00    00000000000          00000000000000000000000000000000000000000000 000000000000000A000000000000000000000000000000000000000000000 000000000000000000000000000000000000000     00000000                                                                                                                        000000000000000000
F0010000010545400004000007069087100023658300000000000000000201710240002001IVAN DUQUE                                        C000000000000000000000000000000000100010010000000000000000000000F0010000010545400420171024000101 00000000000000000000000000000000000000000000000000000000000000000000000000000000000000000000000000000000000000000N 00000000000NCONT   00    00000000000          00000000000000000000000000000000000000000000 000000000000000A000000000000000000000000000000000000000000000 000000000000000000000000000000000000000     00000000                                                                                                                        000000000000000000
F0010000010545400005000007069087100013552100000000000000000201710240002001IVAN DUQUE                                        D000000000000000000000000000000000100010010000000000000000000000F0010000010545400520171024000101 00000000000000000000000000000000000000000000000000000000000000000000000000000000000000000000000000000000000000000N 00000000000NCONT   00    00000000000          00000000000000000000000000000000000000000000 000000000000000A000000000000000000000000000000000000000000000 000000000000000000000000000000000000000     00000000                                                                                                                        000000000000000000
F0010000010545500001000000856905200011050500000000000000000201710240002001SUELAS Y MATERIALES BARRANQUILL                   D000000001200000000000000000000000100010010000000000000000000000F0010000010545500120171024000101 00000000000000000000000000000000000000000000000000000000000000000000000000000000000000000000000000000000000000000N 00000000000NCONT   00    00000000000          00000000000000000000000000000000000000000000 000000000000000A000000000000000000000000000000000000000000000 000000000000000000000000000000000000000     00000000                                                                                                                        000000000000000000
F0010000010545500002000000856905200041450500000000000000000201710240002001SUELAS Y MATERIALES BARRANQUILL                   C000000001100000000000000000000000100010010000000000000000000000F0010000010545500220171024000101 00000000000000000000000000000000000000000000000000000000000000000000000000000000000000000000000000000000000000000N 00000000000NCONT   00    00000000000          00000000000000000000000000000000000000000000 000000000000000A000000000000000000000000000000000000000000000 000000000000000000000000000000000000000     00000000                                                                                                                        000000000000000000
F0010000010545500003000000856905200042505000000000000000000201710240002001SUELAS Y MATERIALES BARRANQUILL                   C000000000100000000000000000000000100010010000000000000000000000F0010000010545500320171024000101 00000000000000000000000000000000000000000000000000000000000000000000000000000000000000000000000000000000000000000N 00000000000NCONT   00    00000000000          00000000000000000000000000000000000000000000 000000000000000A000000000000000000000000000000000000000000000 000000000000000000000000000000000000000     00000000                                                                                                                        000000000000000000
F0010000010545500004000000856905200023658300000000000000000201710240002001SUELAS Y MATERIALES BARRANQUILL                   C000000000000000000000000000000000100010010000000000000000000000F0010000010545500420171024000101 00000000000000000000000000000000000000000000000000000000000000000000000000000000000000000000000000000000000000000N 00000000000NCONT   00    00000000000          00000000000000000000000000000000000000000000 000000000000000A000000000000000000000000000000000000000000000 000000000000000000000000000000000000000     00000000                                                                                                                        000000000000000000
F0010000010545500005000000856905200013552100000000000000000201710240002001SUELAS Y MATERIALES BARRANQUILL                   D000000000000000000000000000000000100010010000000000000000000000F0010000010545500520171024000101 00000000000000000000000000000000000000000000000000000000000000000000000000000000000000000000000000000000000000000N 00000000000NCONT   00    00000000000          00000000000000000000000000000000000000000000 000000000000000A000000000000000000000000000000000000000000000 000000000000000000000000000000000000000     00000000                                                                                                                        000000000000000000
F0010000010545600001000003207718300011050500000000000000000201710240002001MARIA GILMA RAMIREZ GARCIA                        D000000006700000000000000000000000100010010000000000000000000000F0010000010545600120171024000101 00000000000000000000000000000000000000000000000000000000000000000000000000000000000000000000000000000000000000000N 00000000000NCONT   00    00000000000          00000000000000000000000000000000000000000000 000000000000000A000000000000000000000000000000000000000000000 000000000000000000000000000000000000000     00000000                                                                                                                        000000000000000000
F0010000010545600002000003207718300041450500000000000000000201710240002001MARIA GILMA RAMIREZ GARCIA                        C000000006000000000000000000000000100010010000000000000000000000F0010000010545600220171024000101 00000000000000000000000000000000000000000000000000000000000000000000000000000000000000000000000000000000000000000N 00000000000NCONT   00    00000000000          00000000000000000000000000000000000000000000 000000000000000A000000000000000000000000000000000000000000000 000000000000000000000000000000000000000     00000000                                                                                                                        000000000000000000
F0010000010545600003000003207718300042505000000000000000000201710240002001MARIA GILMA RAMIREZ GARCIA                        C000000000700000000000000000000000100010010000000000000000000000F0010000010545600320171024000101 00000000000000000000000000000000000000000000000000000000000000000000000000000000000000000000000000000000000000000N 00000000000NCONT   00    00000000000          00000000000000000000000000000000000000000000 000000000000000A000000000000000000000000000000000000000000000 000000000000000000000000000000000000000     00000000                                                                                                                        000000000000000000
F0010000010545600004000003207718300023658300000000000000000201710240002001MARIA GILMA RAMIREZ GARCIA                        C000000000000000000000000000000000100010010000000000000000000000F0010000010545600420171024000101 00000000000000000000000000000000000000000000000000000000000000000000000000000000000000000000000000000000000000000N 00000000000NCONT   00    00000000000          00000000000000000000000000000000000000000000 000000000000000A000000000000000000000000000000000000000000000 000000000000000000000000000000000000000     00000000                                                                                                                        000000000000000000
F0010000010545600005000003207718300013552100000000000000000201710240002001MARIA GILMA RAMIREZ GARCIA                        D000000000000000000000000000000000100010010000000000000000000000F0010000010545600520171024000101 00000000000000000000000000000000000000000000000000000000000000000000000000000000000000000000000000000000000000000N 00000000000NCONT   00    00000000000          00000000000000000000000000000000000000000000 000000000000000A000000000000000000000000000000000000000000000 000000000000000000000000000000000000000     00000000                                                                                                                        000000000000000000
F0010000010545700001000003207718300011050500000000000000000201710240002001MARIA GILMA  RAMIREZ GARCIA                       D000000001300000000000000000000000100010010000000000000000000000F0010000010545700120171024000101 00000000000000000000000000000000000000000000000000000000000000000000000000000000000000000000000000000000000000000N 00000000000NCONT   00    00000000000          00000000000000000000000000000000000000000000 000000000000000A000000000000000000000000000000000000000000000 000000000000000000000000000000000000000     00000000                                                                                                                        000000000000000000
F0010000010545700002000003207718300041450500000000000000000201710240002001MARIA GILMA  RAMIREZ GARCIA                       C000000001100000000000000000000000100010010000000000000000000000F0010000010545700220171024000101 00000000000000000000000000000000000000000000000000000000000000000000000000000000000000000000000000000000000000000N 00000000000NCONT   00    00000000000          00000000000000000000000000000000000000000000 000000000000000A000000000000000000000000000000000000000000000 000000000000000000000000000000000000000     00000000                                                                                                                        000000000000000000
F0010000010545700003000003207718300042505000000000000000000201710240002001MARIA GILMA  RAMIREZ GARCIA                       C000000000200000000000000000000000100010010000000000000000000000F0010000010545700320171024000101 00000000000000000000000000000000000000000000000000000000000000000000000000000000000000000000000000000000000000000N 00000000000NCONT   00    00000000000          00000000000000000000000000000000000000000000 000000000000000A000000000000000000000000000000000000000000000 000000000000000000000000000000000000000     00000000                                                                                                                        000000000000000000
F0010000010545700004000003207718300023658300000000000000000201710240002001MARIA GILMA  RAMIREZ GARCIA                       C000000000000000000000000000000000100010010000000000000000000000F0010000010545700420171024000101 00000000000000000000000000000000000000000000000000000000000000000000000000000000000000000000000000000000000000000N 00000000000NCONT   00    00000000000          00000000000000000000000000000000000000000000 000000000000000A000000000000000000000000000000000000000000000 000000000000000000000000000000000000000     00000000                                                                                                                        000000000000000000
F0010000010545700005000003207718300013552100000000000000000201710240002001MARIA GILMA  RAMIREZ GARCIA                       D000000000000000000000000000000000100010010000000000000000000000F0010000010545700520171024000101 00000000000000000000000000000000000000000000000000000000000000000000000000000000000000000000000000000000000000000N 00000000000NCONT   00    00000000000          00000000000000000000000000000000000000000000 000000000000000A000000000000000000000000000000000000000000000 000000000000000000000000000000000000000     00000000                                                                                                                        000000000000000000
F0010000010545800001000004175790100011050500000000000000000201710240002001ROSIRIS FERIA HOYOS  (COSM. SHILLER)              D000000001200000000000000000000000100010010000000000000000000000F0010000010545800120171024000101 00000000000000000000000000000000000000000000000000000000000000000000000000000000000000000000000000000000000000000N 00000000000NCONT   00    00000000000          00000000000000000000000000000000000000000000 000000000000000A000000000000000000000000000000000000000000000 000000000000000000000000000000000000000     00000000                                                                                                                        000000000000000000
F0010000010545800002000004175790100041450500000000000000000201710240002001ROSIRIS FERIA HOYOS  (COSM. SHILLER)              C000000001000000000000000000000000100010010000000000000000000000F0010000010545800220171024000101 00000000000000000000000000000000000000000000000000000000000000000000000000000000000000000000000000000000000000000N 00000000000NCONT   00    00000000000          00000000000000000000000000000000000000000000 000000000000000A000000000000000000000000000000000000000000000 000000000000000000000000000000000000000     00000000                                                                                                                        000000000000000000
F0010000010545800003000004175790100042505000000000000000000201710240002001ROSIRIS FERIA HOYOS  (COSM. SHILLER)              C000000000200000000000000000000000100010010000000000000000000000F0010000010545800320171024000101 00000000000000000000000000000000000000000000000000000000000000000000000000000000000000000000000000000000000000000N 00000000000NCONT   00    00000000000          00000000000000000000000000000000000000000000 000000000000000A000000000000000000000000000000000000000000000 000000000000000000000000000000000000000     00000000                                                                                                                        000000000000000000
F0010000010545800004000004175790100023658300000000000000000201710240002001ROSIRIS FERIA HOYOS  (COSM. SHILLER)              C000000000000000000000000000000000100010010000000000000000000000F0010000010545800420171024000101 00000000000000000000000000000000000000000000000000000000000000000000000000000000000000000000000000000000000000000N 00000000000NCONT   00    00000000000          00000000000000000000000000000000000000000000 000000000000000A000000000000000000000000000000000000000000000 000000000000000000000000000000000000000     00000000                                                                                                                        000000000000000000
F0010000010545800005000004175790100013552100000000000000000201710240002001ROSIRIS FERIA HOYOS  (COSM. SHILLER)              D000000000000000000000000000000000100010010000000000000000000000F0010000010545800520171024000101 00000000000000000000000000000000000000000000000000000000000000000000000000000000000000000000000000000000000000000N 00000000000NCONT   00    00000000000          00000000000000000000000000000000000000000000 000000000000000A000000000000000000000000000000000000000000000 000000000000000000000000000000000000000     00000000                                                                                                                        000000000000000000
F0010000010545900001000004175790100011050500000000000000000201710240002001ROSIRIS FERIA HOYOS  (COSM. SHILLER)              D000000001100000000000000000000000100010010000000000000000000000F0010000010545900120171024000101 00000000000000000000000000000000000000000000000000000000000000000000000000000000000000000000000000000000000000000N 00000000000NCONT   00    00000000000          00000000000000000000000000000000000000000000 000000000000000A000000000000000000000000000000000000000000000 000000000000000000000000000000000000000     00000000                                                                                                                        000000000000000000
F0010000010545900002000004175790100041450500000000000000000201710240002001ROSIRIS FERIA HOYOS  (COSM. SHILLER)              C000000001000000000000000000000000100010010000000000000000000000F0010000010545900220171024000101 00000000000000000000000000000000000000000000000000000000000000000000000000000000000000000000000000000000000000000N 00000000000NCONT   00    00000000000          00000000000000000000000000000000000000000000 000000000000000A000000000000000000000000000000000000000000000 000000000000000000000000000000000000000     00000000                                                                                                                        000000000000000000
F0010000010545900003000004175790100042505000000000000000000201710240002001ROSIRIS FERIA HOYOS  (COSM. SHILLER)              C000000000100000000000000000000000100010010000000000000000000000F0010000010545900320171024000101 00000000000000000000000000000000000000000000000000000000000000000000000000000000000000000000000000000000000000000N 00000000000NCONT   00    00000000000          00000000000000000000000000000000000000000000 000000000000000A000000000000000000000000000000000000000000000 000000000000000000000000000000000000000     00000000                                                                                                                        000000000000000000
F0010000010545900004000004175790100023658300000000000000000201710240002001ROSIRIS FERIA HOYOS  (COSM. SHILLER)              C000000000000000000000000000000000100010010000000000000000000000F0010000010545900420171024000101 00000000000000000000000000000000000000000000000000000000000000000000000000000000000000000000000000000000000000000N 00000000000NCONT   00    00000000000          00000000000000000000000000000000000000000000 000000000000000A000000000000000000000000000000000000000000000 000000000000000000000000000000000000000     00000000                                                                                                                        000000000000000000
F0010000010545900005000004175790100013552100000000000000000201710240002001ROSIRIS FERIA HOYOS  (COSM. SHILLER)              D000000000000000000000000000000000100010010000000000000000000000F0010000010545900520171024000101 00000000000000000000000000000000000000000000000000000000000000000000000000000000000000000000000000000000000000000N 00000000000NCONT   00    00000000000          00000000000000000000000000000000000000000000 000000000000000A000000000000000000000000000000000000000000000 000000000000000000000000000000000000000     00000000                                                                                                                        000000000000000000
F0010000010546000001000004175790100011050500000000000000000201710240002001ROSIRIS FERIA HOYOS  (COSM. SHILLER)              D000000001400000000000000000000000100010010000000000000000000000F0010000010546000120171024000101 00000000000000000000000000000000000000000000000000000000000000000000000000000000000000000000000000000000000000000N 00000000000NCONT   00    00000000000          00000000000000000000000000000000000000000000 000000000000000A000000000000000000000000000000000000000000000 000000000000000000000000000000000000000     00000000                                                                                                                        000000000000000000
F0010000010546000002000004175790100041450500000000000000000201710240002001ROSIRIS FERIA HOYOS  (COSM. SHILLER)              C000000001200000000000000000000000100010010000000000000000000000F0010000010546000220171024000101 00000000000000000000000000000000000000000000000000000000000000000000000000000000000000000000000000000000000000000N 00000000000NCONT   00    00000000000          00000000000000000000000000000000000000000000 000000000000000A000000000000000000000000000000000000000000000 000000000000000000000000000000000000000     00000000                                                                                                                        000000000000000000
