F0010000010586200001000003207718300011050500000000000000000201711010002001MARIA GILMA RAMIREZ GARCIA                        D000000004000000000000000000000000100010010000000000000000000000F0010000010586200120171101000101 00000000000000000000000000000000000000000000000000000000000000000000000000000000000000000000000000000000000000000N 00000000000NCONT   00    00000000000          00000000000000000000000000000000000000000000 000000000000000A000000000000000000000000000000000000000000000 000000000000000000000000000000000000000     00000000                                                                                                                        000000000000000000
F0010000010586200002000003207718300041450500000000000000000201711010002001MARIA GILMA RAMIREZ GARCIA                        C000000003400000000000000000000000100010010000000000000000000000F0010000010586200220171101000101 00000000000000000000000000000000000000000000000000000000000000000000000000000000000000000000000000000000000000000N 00000000000NCONT   00    00000000000          00000000000000000000000000000000000000000000 000000000000000A000000000000000000000000000000000000000000000 000000000000000000000000000000000000000     00000000                                                                                                                        000000000000000000
F0010000010586200003000003207718300042505000000000000000000201711010002001MARIA GILMA RAMIREZ GARCIA                        C000000000600000000000000000000000100010010000000000000000000000F0010000010586200320171101000101 00000000000000000000000000000000000000000000000000000000000000000000000000000000000000000000000000000000000000000N 00000000000NCONT   00    00000000000          00000000000000000000000000000000000000000000 000000000000000A000000000000000000000000000000000000000000000 000000000000000000000000000000000000000     00000000                                                                                                                        000000000000000000
F0010000010586200004000003207718300023658300000000000000000201711010002001MARIA GILMA RAMIREZ GARCIA                        C000000000000000000000000000000000100010010000000000000000000000F0010000010586200420171101000101 00000000000000000000000000000000000000000000000000000000000000000000000000000000000000000000000000000000000000000N 00000000000NCONT   00    00000000000          00000000000000000000000000000000000000000000 000000000000000A000000000000000000000000000000000000000000000 000000000000000000000000000000000000000     00000000                                                                                                                        000000000000000000
F0010000010586200005000003207718300013552100000000000000000201711010002001MARIA GILMA RAMIREZ GARCIA                        D000000000000000000000000000000000100010010000000000000000000000F0010000010586200520171101000101 00000000000000000000000000000000000000000000000000000000000000000000000000000000000000000000000000000000000000000N 00000000000NCONT   00    00000000000          00000000000000000000000000000000000000000000 000000000000000A000000000000000000000000000000000000000000000 000000000000000000000000000000000000000     00000000                                                                                                                        000000000000000000
F0010000010586300001000081102758700013050500000000000000000201711010002001C.I. ABRACOL S.A EMA                              D000000135262700000000000000000000100010010000000000000000000000F0010000010586300120171101000101 00000000000000000000000000000000000000000000000000000000000000000000000000000000000000000000000000000000000000000N 00000000000NCONT   00    00000000000          00000000000000000000000000000000000000000000 000000000000000A000000000000000000000000000000000000000000000 000000000000000000000000000000000000000     00000000                                                                                                                        000000000000000000
F0010000010586300002000081102758700041450500000000000000000201711010002001C.I. ABRACOL S.A EMA                              C000000118640000000000000000000000100010010000000000000000000000F0010000010586300220171101000101 00000000000000000000000000000000000000000000000000000000000000000000000000000000000000000000000000000000000000000N 00000000000NCONT   00    00000000000          00000000000000000000000000000000000000000000 000000000000000A000000000000000000000000000000000000000000000 000000000000000000000000000000000000000     00000000                                                                                                                        000000000000000000
F0010000010586300003000081102758700041750100000000000000000201711010002001C.I. ABRACOL S.A EMA                              D000000003559200000000000000000000100010010000000000000000000000F0010000010586300320171101000101 00000000000000000000000000000000000000000000000000000000000000000000000000000000000000000000000000000000000000000N 00000000000NCONT   00    00000000000          00000000000000000000000000000000000000000000 000000000000000A000000000000000000000000000000000000000000000 000000000000000000000000000000000000000     00000000                                                                                                                        000000000000000000
F0010000010586300004000081102758700042505000000000000000000201711010002001C.I. ABRACOL S.A EMA                              C000000020181900000000000000000000100010010000000000000000000000F0010000010586300420171101000101 00000000000000000000000000000000000000000000000000000000000000000000000000000000000000000000000000000000000000000N 00000000000NCONT   00    00000000000          00000000000000000000000000000000000000000000 000000000000000A000000000000000000000000000000000000000000000 000000000000000000000000000000000000000     00000000                                                                                                                        000000000000000000
F0010000010586300005000081102758700023658300000000000000000201711010002001C.I. ABRACOL S.A EMA                              C000000000000000000000000000000000100010010000000000000000000000F0010000010586300520171101000101 00000000000000000000000000000000000000000000000000000000000000000000000000000000000000000000000000000000000000000N 00000000000NCONT   00    00000000000          00000000000000000000000000000000000000000000 000000000000000A000000000000000000000000000000000000000000000 000000000000000000000000000000000000000     00000000                                                                                                                        000000000000000000
F0010000010586300006000081102758700013552100000000000000000201711010002001C.I. ABRACOL S.A EMA                              D000000000000000000000000000000000100010010000000000000000000000F0010000010586300620171101000101 00000000000000000000000000000000000000000000000000000000000000000000000000000000000000000000000000000000000000000N 00000000000NCONT   00    00000000000          00000000000000000000000000000000000000000000 000000000000000A000000000000000000000000000000000000000000000 000000000000000000000000000000000000000     00000000                                                                                                                        000000000000000000
F0010000010586400001000081102758700013050500000000000000000201711010002001C.I. ABRACOL S.A EMA                              D000000058683400000000000000000000100010010000000000000000000000F0010000010586400120171101000101 00000000000000000000000000000000000000000000000000000000000000000000000000000000000000000000000000000000000000000N 00000000000NCONT   00    00000000000          00000000000000000000000000000000000000000000 000000000000000A000000000000000000000000000000000000000000000 000000000000000000000000000000000000000     00000000                                                                                                                        000000000000000000
F0010000010586400002000081102758700041450500000000000000000201711010002001C.I. ABRACOL S.A EMA                              C000000045980000000000000000000000100010010000000000000000000000F0010000010586400220171101000101 00000000000000000000000000000000000000000000000000000000000000000000000000000000000000000000000000000000000000000N 00000000000NCONT   00    00000000000          00000000000000000000000000000000000000000000 000000000000000A000000000000000000000000000000000000000000000 000000000000000000000000000000000000000     00000000                                                                                                                        000000000000000000
F0010000010586400003000081102758700041750100000000000000000201711010002001C.I. ABRACOL S.A EMA                              D000000001379400000000000000000000100010010000000000000000000000F0010000010586400320171101000101 00000000000000000000000000000000000000000000000000000000000000000000000000000000000000000000000000000000000000000N 00000000000NCONT   00    00000000000          00000000000000000000000000000000000000000000 000000000000000A000000000000000000000000000000000000000000000 000000000000000000000000000000000000000     00000000                                                                                                                        000000000000000000
F0010000010586400004000081102758700042505000000000000000000201711010002001C.I. ABRACOL S.A EMA                              C000000014082800000000000000000000100010010000000000000000000000F0010000010586400420171101000101 00000000000000000000000000000000000000000000000000000000000000000000000000000000000000000000000000000000000000000N 00000000000NCONT   00    00000000000          00000000000000000000000000000000000000000000 000000000000000A000000000000000000000000000000000000000000000 000000000000000000000000000000000000000     00000000                                                                                                                        000000000000000000
F0010000010586400005000081102758700023658300000000000000000201711010002001C.I. ABRACOL S.A EMA                              C000000000000000000000000000000000100010010000000000000000000000F0010000010586400520171101000101 00000000000000000000000000000000000000000000000000000000000000000000000000000000000000000000000000000000000000000N 00000000000NCONT   00    00000000000          00000000000000000000000000000000000000000000 000000000000000A000000000000000000000000000000000000000000000 000000000000000000000000000000000000000     00000000                                                                                                                        000000000000000000
F0010000010586400006000081102758700013552100000000000000000201711010002001C.I. ABRACOL S.A EMA                              D000000000000000000000000000000000100010010000000000000000000000F0010000010586400620171101000101 00000000000000000000000000000000000000000000000000000000000000000000000000000000000000000000000000000000000000000N 00000000000NCONT   00    00000000000          00000000000000000000000000000000000000000000 000000000000000A000000000000000000000000000000000000000000000 000000000000000000000000000000000000000     00000000                                                                                                                        000000000000000000
F0010000010586500001000081102758700013050500000000000000000201711010002001C.I. ABRACOL S.A EMA                              D000000093410200000000000000000000100010010000000000000000000000F0010000010586500120171101000101 00000000000000000000000000000000000000000000000000000000000000000000000000000000000000000000000000000000000000000N 00000000000NCONT   00    00000000000          00000000000000000000000000000000000000000000 000000000000000A000000000000000000000000000000000000000000000 000000000000000000000000000000000000000     00000000                                                                                                                        000000000000000000
F0010000010586500002000081102758700041450500000000000000000201711010002001C.I. ABRACOL S.A EMA                              C000000067860000000000000000000000100010010000000000000000000000F0010000010586500220171101000101 00000000000000000000000000000000000000000000000000000000000000000000000000000000000000000000000000000000000000000N 00000000000NCONT   00    00000000000          00000000000000000000000000000000000000000000 000000000000000A000000000000000000000000000000000000000000000 000000000000000000000000000000000000000     00000000                                                                                                                        000000000000000000
F0010000010586500003000081102758700041750100000000000000000201711010002001C.I. ABRACOL S.A EMA                              D000000002035800000000000000000000100010010000000000000000000000F0010000010586500320171101000101 00000000000000000000000000000000000000000000000000000000000000000000000000000000000000000000000000000000000000000N 00000000000NCONT   00    00000000000          00000000000000000000000000000000000000000000 000000000000000A000000000000000000000000000000000000000000000 000000000000000000000000000000000000000     00000000                                                                                                                        000000000000000000
F0010000010586500004000081102758700042505000000000000000000201711010002001C.I. ABRACOL S.A EMA                              C000000027586000000000000000000000100010010000000000000000000000F0010000010586500420171101000101 00000000000000000000000000000000000000000000000000000000000000000000000000000000000000000000000000000000000000000N 00000000000NCONT   00    00000000000          00000000000000000000000000000000000000000000 000000000000000A000000000000000000000000000000000000000000000 000000000000000000000000000000000000000     00000000                                                                                                                        000000000000000000
F0010000010586500005000081102758700023658300000000000000000201711010002001C.I. ABRACOL S.A EMA                              C000000000000000000000000000000000100010010000000000000000000000F0010000010586500520171101000101 00000000000000000000000000000000000000000000000000000000000000000000000000000000000000000000000000000000000000000N 00000000000NCONT   00    00000000000          00000000000000000000000000000000000000000000 000000000000000A000000000000000000000000000000000000000000000 000000000000000000000000000000000000000     00000000                                                                                                                        000000000000000000
F0010000010586500006000081102758700013552100000000000000000201711010002001C.I. ABRACOL S.A EMA                              D000000000000000000000000000000000100010010000000000000000000000F0010000010586500620171101000101 00000000000000000000000000000000000000000000000000000000000000000000000000000000000000000000000000000000000000000N 00000000000NCONT   00    00000000000          00000000000000000000000000000000000000000000 000000000000000A000000000000000000000000000000000000000000000 000000000000000000000000000000000000000     00000000                                                                                                                        000000000000000000
F0010000010586600001000081102758700013050500000000000000000201711010002001C.I. ABRACOL S.A EMA                              D000000119468100000000000000000000100010010000000000000000000000F0010000010586600120171101000101 00000000000000000000000000000000000000000000000000000000000000000000000000000000000000000000000000000000000000000N 00000000000NCONT   00    00000000000          00000000000000000000000000000000000000000000 000000000000000A000000000000000000000000000000000000000000000 000000000000000000000000000000000000000     00000000                                                                                                                        000000000000000000
F0010000010586600002000081102758700041450500000000000000000201711010002001C.I. ABRACOL S.A EMA                              C000000084120000000000000000000000100010010000000000000000000000F0010000010586600220171101000101 00000000000000000000000000000000000000000000000000000000000000000000000000000000000000000000000000000000000000000N 00000000000NCONT   00    00000000000          00000000000000000000000000000000000000000000 000000000000000A000000000000000000000000000000000000000000000 000000000000000000000000000000000000000     00000000                                                                                                                        000000000000000000
F0010000010586600003000081102758700041750100000000000000000201711010002001C.I. ABRACOL S.A EMA                              D000000002523600000000000000000000100010010000000000000000000000F0010000010586600320171101000101 00000000000000000000000000000000000000000000000000000000000000000000000000000000000000000000000000000000000000000N 00000000000NCONT   00    00000000000          00000000000000000000000000000000000000000000 000000000000000A000000000000000000000000000000000000000000000 000000000000000000000000000000000000000     00000000                                                                                                                        000000000000000000
F0010000010586600004000081102758700042505000000000000000000201711010002001C.I. ABRACOL S.A EMA                              C000000037871700000000000000000000100010010000000000000000000000F0010000010586600420171101000101 00000000000000000000000000000000000000000000000000000000000000000000000000000000000000000000000000000000000000000N 00000000000NCONT   00    00000000000          00000000000000000000000000000000000000000000 000000000000000A000000000000000000000000000000000000000000000 000000000000000000000000000000000000000     00000000                                                                                                                        000000000000000000
F0010000010586600005000081102758700023658300000000000000000201711010002001C.I. ABRACOL S.A EMA                              C000000000000000000000000000000000100010010000000000000000000000F0010000010586600520171101000101 00000000000000000000000000000000000000000000000000000000000000000000000000000000000000000000000000000000000000000N 00000000000NCONT   00    00000000000          00000000000000000000000000000000000000000000 000000000000000A000000000000000000000000000000000000000000000 000000000000000000000000000000000000000     00000000                                                                                                                        000000000000000000
F0010000010586600006000081102758700013552100000000000000000201711010002001C.I. ABRACOL S.A EMA                              D000000000000000000000000000000000100010010000000000000000000000F0010000010586600620171101000101 00000000000000000000000000000000000000000000000000000000000000000000000000000000000000000000000000000000000000000N 00000000000NCONT   00    00000000000          00000000000000000000000000000000000000000000 000000000000000A000000000000000000000000000000000000000000000 000000000000000000000000000000000000000     00000000                                                                                                                        000000000000000000
F0010000010586700001000114342948900011050500000000000000000201711010002001PEDRO TORRES                                      D000000012000000000000000000000000100010010000000000000000000000F0010000010586700120171101000101 00000000000000000000000000000000000000000000000000000000000000000000000000000000000000000000000000000000000000000N 00000000000NCONT   00    00000000000          00000000000000000000000000000000000000000000 000000000000000A000000000000000000000000000000000000000000000 000000000000000000000000000000000000000     00000000                                                                                                                        000000000000000000
F0010000010586700002000114342948900041450500000000000000000201711010002001PEDRO TORRES                                      C000000010000000000000000000000000100010010000000000000000000000F0010000010586700220171101000101 00000000000000000000000000000000000000000000000000000000000000000000000000000000000000000000000000000000000000000N 00000000000NCONT   00    00000000000          00000000000000000000000000000000000000000000 000000000000000A000000000000000000000000000000000000000000000 000000000000000000000000000000000000000     00000000                                                                                                                        000000000000000000
F0010000010586700003000114342948900042505000000000000000000201711010002001PEDRO TORRES                                      C000000002000000000000000000000000100010010000000000000000000000F0010000010586700320171101000101 00000000000000000000000000000000000000000000000000000000000000000000000000000000000000000000000000000000000000000N 00000000000NCONT   00    00000000000          00000000000000000000000000000000000000000000 000000000000000A000000000000000000000000000000000000000000000 000000000000000000000000000000000000000     00000000                                                                                                                        000000000000000000
F0010000010586700004000114342948900023658300000000000000000201711010002001PEDRO TORRES                                      C000000000000000000000000000000000100010010000000000000000000000F0010000010586700420171101000101 00000000000000000000000000000000000000000000000000000000000000000000000000000000000000000000000000000000000000000N 00000000000NCONT   00    00000000000          00000000000000000000000000000000000000000000 000000000000000A000000000000000000000000000000000000000000000 000000000000000000000000000000000000000     00000000                                                                                                                        000000000000000000
F0010000010586700005000114342948900013552100000000000000000201711010002001PEDRO TORRES                                      D000000000000000000000000000000000100010010000000000000000000000F0010000010586700520171101000101 00000000000000000000000000000000000000000000000000000000000000000000000000000000000000000000000000000000000000000N 00000000000NCONT   00    00000000000          00000000000000000000000000000000000000000000 000000000000000A000000000000000000000000000000000000000000000 000000000000000000000000000000000000000     00000000                                                                                                                        000000000000000000
F0010000010586800001000004175790100011050500000000000000000201711010002001ROSIRIS FERIA HOYOS  (COSM. SHILLER)              D000000001500000000000000000000000100010010000000000000000000000F0010000010586800120171101000101 00000000000000000000000000000000000000000000000000000000000000000000000000000000000000000000000000000000000000000N 00000000000NCONT   00    00000000000          00000000000000000000000000000000000000000000 000000000000000A000000000000000000000000000000000000000000000 000000000000000000000000000000000000000     00000000                                                                                                                        000000000000000000
F0010000010586800002000004175790100041450500000000000000000201711010002001ROSIRIS FERIA HOYOS  (COSM. SHILLER)              C000000001200000000000000000000000100010010000000000000000000000F0010000010586800220171101000101 00000000000000000000000000000000000000000000000000000000000000000000000000000000000000000000000000000000000000000N 00000000000NCONT   00    00000000000          00000000000000000000000000000000000000000000 000000000000000A000000000000000000000000000000000000000000000 000000000000000000000000000000000000000     00000000                                                                                                                        000000000000000000
F0010000010586800003000004175790100042505000000000000000000201711010002001ROSIRIS FERIA HOYOS  (COSM. SHILLER)              C000000000300000000000000000000000100010010000000000000000000000F0010000010586800320171101000101 00000000000000000000000000000000000000000000000000000000000000000000000000000000000000000000000000000000000000000N 00000000000NCONT   00    00000000000          00000000000000000000000000000000000000000000 000000000000000A000000000000000000000000000000000000000000000 000000000000000000000000000000000000000     00000000                                                                                                                        000000000000000000
F0010000010586800004000004175790100023658300000000000000000201711010002001ROSIRIS FERIA HOYOS  (COSM. SHILLER)              C000000000000000000000000000000000100010010000000000000000000000F0010000010586800420171101000101 00000000000000000000000000000000000000000000000000000000000000000000000000000000000000000000000000000000000000000N 00000000000NCONT   00    00000000000          00000000000000000000000000000000000000000000 000000000000000A000000000000000000000000000000000000000000000 000000000000000000000000000000000000000     00000000                                                                                                                        000000000000000000
F0010000010586800005000004175790100013552100000000000000000201711010002001ROSIRIS FERIA HOYOS  (COSM. SHILLER)              D000000000000000000000000000000000100010010000000000000000000000F0010000010586800520171101000101 00000000000000000000000000000000000000000000000000000000000000000000000000000000000000000000000000000000000000000N 00000000000NCONT   00    00000000000          00000000000000000000000000000000000000000000 000000000000000A000000000000000000000000000000000000000000000 000000000000000000000000000000000000000     00000000                                                                                                                        000000000000000000
F0010000010586900001000004175790100011050500000000000000000201711010002001ROSIRIS FERIA HOYOS  (COSM. SHILLER)              D000000001800000000000000000000000100010010000000000000000000000F0010000010586900120171101000101 00000000000000000000000000000000000000000000000000000000000000000000000000000000000000000000000000000000000000000N 00000000000NCONT   00    00000000000          00000000000000000000000000000000000000000000 000000000000000A000000000000000000000000000000000000000000000 000000000000000000000000000000000000000     00000000                                                                                                                        000000000000000000
F0010000010586900002000004175790100041450500000000000000000201711010002001ROSIRIS FERIA HOYOS  (COSM. SHILLER)              C000000001400000000000000000000000100010010000000000000000000000F0010000010586900220171101000101 00000000000000000000000000000000000000000000000000000000000000000000000000000000000000000000000000000000000000000N 00000000000NCONT   00    00000000000          00000000000000000000000000000000000000000000 000000000000000A000000000000000000000000000000000000000000000 000000000000000000000000000000000000000     00000000                                                                                                                        000000000000000000
F0010000010586900003000004175790100042505000000000000000000201711010002001ROSIRIS FERIA HOYOS  (COSM. SHILLER)              C000000000400000000000000000000000100010010000000000000000000000F0010000010586900320171101000101 00000000000000000000000000000000000000000000000000000000000000000000000000000000000000000000000000000000000000000N 00000000000NCONT   00    00000000000          00000000000000000000000000000000000000000000 000000000000000A000000000000000000000000000000000000000000000 000000000000000000000000000000000000000     00000000                                                                                                                        000000000000000000
F0010000010586900004000004175790100023658300000000000000000201711010002001ROSIRIS FERIA HOYOS  (COSM. SHILLER)              C000000000000000000000000000000000100010010000000000000000000000F0010000010586900420171101000101 00000000000000000000000000000000000000000000000000000000000000000000000000000000000000000000000000000000000000000N 00000000000NCONT   00    00000000000          00000000000000000000000000000000000000000000 000000000000000A000000000000000000000000000000000000000000000 000000000000000000000000000000000000000     00000000                                                                                                                        000000000000000000
F0010000010586900005000004175790100013552100000000000000000201711010002001ROSIRIS FERIA HOYOS  (COSM. SHILLER)              D000000000000000000000000000000000100010010000000000000000000000F0010000010586900520171101000101 00000000000000000000000000000000000000000000000000000000000000000000000000000000000000000000000000000000000000000N 00000000000NCONT   00    00000000000          00000000000000000000000000000000000000000000 000000000000000A000000000000000000000000000000000000000000000 000000000000000000000000000000000000000     00000000                                                                                                                        000000000000000000
F0010000010587000001000004175790100011050500000000000000000201711010002001ROSIRIS FERIA HOYOS  (COSM. SHILLER)              D000000001600000000000000000000000100010010000000000000000000000F0010000010587000120171101000101 00000000000000000000000000000000000000000000000000000000000000000000000000000000000000000000000000000000000000000N 00000000000NCONT   00    00000000000          00000000000000000000000000000000000000000000 000000000000000A000000000000000000000000000000000000000000000 000000000000000000000000000000000000000     00000000                                                                                                                        000000000000000000
F0010000010587000002000004175790100041450500000000000000000201711010002001ROSIRIS FERIA HOYOS  (COSM. SHILLER)              C000000001200000000000000000000000100010010000000000000000000000F0010000010587000220171101000101 00000000000000000000000000000000000000000000000000000000000000000000000000000000000000000000000000000000000000000N 00000000000NCONT   00    00000000000          00000000000000000000000000000000000000000000 000000000000000A000000000000000000000000000000000000000000000 000000000000000000000000000000000000000     00000000                                                                                                                        000000000000000000
F0010000010587000003000004175790100042505000000000000000000201711010002001ROSIRIS FERIA HOYOS  (COSM. SHILLER)              C000000000400000000000000000000000100010010000000000000000000000F0010000010587000320171101000101 00000000000000000000000000000000000000000000000000000000000000000000000000000000000000000000000000000000000000000N 00000000000NCONT   00    00000000000          00000000000000000000000000000000000000000000 000000000000000A000000000000000000000000000000000000000000000 000000000000000000000000000000000000000     00000000                                                                                                                        000000000000000000
F0010000010587000004000004175790100023658300000000000000000201711010002001ROSIRIS FERIA HOYOS  (COSM. SHILLER)              C000000000000000000000000000000000100010010000000000000000000000F0010000010587000420171101000101 00000000000000000000000000000000000000000000000000000000000000000000000000000000000000000000000000000000000000000N 00000000000NCONT   00    00000000000          00000000000000000000000000000000000000000000 000000000000000A000000000000000000000000000000000000000000000 000000000000000000000000000000000000000     00000000                                                                                                                        000000000000000000
F0010000010587000005000004175790100013552100000000000000000201711010002001ROSIRIS FERIA HOYOS  (COSM. SHILLER)              D000000000000000000000000000000000100010010000000000000000000000F0010000010587000520171101000101 00000000000000000000000000000000000000000000000000000000000000000000000000000000000000000000000000000000000000000N 00000000000NCONT   00    00000000000          00000000000000000000000000000000000000000000 000000000000000A000000000000000000000000000000000000000000000 000000000000000000000000000000000000000     00000000                                                                                                                        000000000000000000
F0010000010587100001000004175790100011050500000000000000000201711010002001ROSIRIS FERIA HOYOS  (COSM. SHILLER)              D000000001900000000000000000000000100010010000000000000000000000F0010000010587100120171101000101 00000000000000000000000000000000000000000000000000000000000000000000000000000000000000000000000000000000000000000N 00000000000NCONT   00    00000000000          00000000000000000000000000000000000000000000 000000000000000A000000000000000000000000000000000000000000000 000000000000000000000000000000000000000     00000000                                                                                                                        000000000000000000
F0010000010587100002000004175790100041450500000000000000000201711010002001ROSIRIS FERIA HOYOS  (COSM. SHILLER)              C000000001200000000000000000000000100010010000000000000000000000F0010000010587100220171101000101 00000000000000000000000000000000000000000000000000000000000000000000000000000000000000000000000000000000000000000N 00000000000NCONT   00    00000000000          00000000000000000000000000000000000000000000 000000000000000A000000000000000000000000000000000000000000000 000000000000000000000000000000000000000     00000000                                                                                                                        000000000000000000
F0010000010587100003000004175790100042505000000000000000000201711010002001ROSIRIS FERIA HOYOS  (COSM. SHILLER)              C000000000700000000000000000000000100010010000000000000000000000F0010000010587100320171101000101 00000000000000000000000000000000000000000000000000000000000000000000000000000000000000000000000000000000000000000N 00000000000NCONT   00    00000000000          00000000000000000000000000000000000000000000 000000000000000A000000000000000000000000000000000000000000000 000000000000000000000000000000000000000     00000000                                                                                                                        000000000000000000
F0010000010587100004000004175790100023658300000000000000000201711010002001ROSIRIS FERIA HOYOS  (COSM. SHILLER)              C000000000000000000000000000000000100010010000000000000000000000F0010000010587100420171101000101 00000000000000000000000000000000000000000000000000000000000000000000000000000000000000000000000000000000000000000N 00000000000NCONT   00    00000000000          00000000000000000000000000000000000000000000 000000000000000A000000000000000000000000000000000000000000000 000000000000000000000000000000000000000     00000000                                                                                                                        000000000000000000
F0010000010587100005000004175790100013552100000000000000000201711010002001ROSIRIS FERIA HOYOS  (COSM. SHILLER)              D000000000000000000000000000000000100010010000000000000000000000F0010000010587100520171101000101 00000000000000000000000000000000000000000000000000000000000000000000000000000000000000000000000000000000000000000N 00000000000NCONT   00    00000000000          00000000000000000000000000000000000000000000 000000000000000A000000000000000000000000000000000000000000000 000000000000000000000000000000000000000     00000000                                                                                                                        000000000000000000
F0010000010587200001000004175790100011050500000000000000000201711010002001ROSIRIS FERIA HOYOS  (COSM. SHILLER)              D000000001200000000000000000000000100010010000000000000000000000F0010000010587200120171101000101 00000000000000000000000000000000000000000000000000000000000000000000000000000000000000000000000000000000000000000N 00000000000NCONT   00    00000000000          00000000000000000000000000000000000000000000 000000000000000A000000000000000000000000000000000000000000000 000000000000000000000000000000000000000     00000000                                                                                                                        000000000000000000
F0010000010587200002000004175790100041450500000000000000000201711010002001ROSIRIS FERIA HOYOS  (COSM. SHILLER)              C000000001000000000000000000000000100010010000000000000000000000F0010000010587200220171101000101 00000000000000000000000000000000000000000000000000000000000000000000000000000000000000000000000000000000000000000N 00000000000NCONT   00    00000000000          00000000000000000000000000000000000000000000 000000000000000A000000000000000000000000000000000000000000000 000000000000000000000000000000000000000     00000000                                                                                                                        000000000000000000
F0010000010587200003000004175790100042505000000000000000000201711010002001ROSIRIS FERIA HOYOS  (COSM. SHILLER)              C000000000200000000000000000000000100010010000000000000000000000F0010000010587200320171101000101 00000000000000000000000000000000000000000000000000000000000000000000000000000000000000000000000000000000000000000N 00000000000NCONT   00    00000000000          00000000000000000000000000000000000000000000 000000000000000A000000000000000000000000000000000000000000000 000000000000000000000000000000000000000     00000000                                                                                                                        000000000000000000
F0010000010587200004000004175790100023658300000000000000000201711010002001ROSIRIS FERIA HOYOS  (COSM. SHILLER)              C000000000000000000000000000000000100010010000000000000000000000F0010000010587200420171101000101 00000000000000000000000000000000000000000000000000000000000000000000000000000000000000000000000000000000000000000N 00000000000NCONT   00    00000000000          00000000000000000000000000000000000000000000 000000000000000A000000000000000000000000000000000000000000000 000000000000000000000000000000000000000     00000000                                                                                                                        000000000000000000
F0010000010587200005000004175790100013552100000000000000000201711010002001ROSIRIS FERIA HOYOS  (COSM. SHILLER)              D000000000000000000000000000000000100010010000000000000000000000F0010000010587200520171101000101 00000000000000000000000000000000000000000000000000000000000000000000000000000000000000000000000000000000000000000N 00000000000NCONT   00    00000000000          00000000000000000000000000000000000000000000 000000000000000A000000000000000000000000000000000000000000000 000000000000000000000000000000000000000     00000000                                                                                                                        000000000000000000
F0010000010587300001000004175790100011050500000000000000000201711010002001ROSIRIS FERIA HOYOS  (COSM. SHILLER)              D000000002100000000000000000000000100010010000000000000000000000F0010000010587300120171101000101 00000000000000000000000000000000000000000000000000000000000000000000000000000000000000000000000000000000000000000N 00000000000NCONT   00    00000000000          00000000000000000000000000000000000000000000 000000000000000A000000000000000000000000000000000000000000000 000000000000000000000000000000000000000     00000000                                                                                                                        000000000000000000
F0010000010587300002000004175790100041450500000000000000000201711010002001ROSIRIS FERIA HOYOS  (COSM. SHILLER)              C000000001500000000000000000000000100010010000000000000000000000F0010000010587300220171101000101 00000000000000000000000000000000000000000000000000000000000000000000000000000000000000000000000000000000000000000N 00000000000NCONT   00    00000000000          00000000000000000000000000000000000000000000 000000000000000A000000000000000000000000000000000000000000000 000000000000000000000000000000000000000     00000000                                                                                                                        000000000000000000
F0010000010587300003000004175790100042505000000000000000000201711010002001ROSIRIS FERIA HOYOS  (COSM. SHILLER)              C000000000600000000000000000000000100010010000000000000000000000F0010000010587300320171101000101 00000000000000000000000000000000000000000000000000000000000000000000000000000000000000000000000000000000000000000N 00000000000NCONT   00    00000000000          00000000000000000000000000000000000000000000 000000000000000A000000000000000000000000000000000000000000000 000000000000000000000000000000000000000     00000000                                                                                                                        000000000000000000
F0010000010587300004000004175790100023658300000000000000000201711010002001ROSIRIS FERIA HOYOS  (COSM. SHILLER)              C000000000000000000000000000000000100010010000000000000000000000F0010000010587300420171101000101 00000000000000000000000000000000000000000000000000000000000000000000000000000000000000000000000000000000000000000N 00000000000NCONT   00    00000000000          00000000000000000000000000000000000000000000 000000000000000A000000000000000000000000000000000000000000000 000000000000000000000000000000000000000     00000000                                                                                                                        000000000000000000
F0010000010587300005000004175790100013552100000000000000000201711010002001ROSIRIS FERIA HOYOS  (COSM. SHILLER)              D000000000000000000000000000000000100010010000000000000000000000F0010000010587300520171101000101 00000000000000000000000000000000000000000000000000000000000000000000000000000000000000000000000000000000000000000N 00000000000NCONT   00    00000000000          00000000000000000000000000000000000000000000 000000000000000A000000000000000000000000000000000000000000000 000000000000000000000000000000000000000     00000000                                                                                                                        000000000000000000
F0010000010587400001000004175790100011050500000000000000000201711010002001ROSIRIS FERIA HOYOS  (COSM. SHILLER)              D000000002100000000000000000000000100010010000000000000000000000F0010000010587400120171101000101 00000000000000000000000000000000000000000000000000000000000000000000000000000000000000000000000000000000000000000N 00000000000NCONT   00    00000000000          00000000000000000000000000000000000000000000 000000000000000A000000000000000000000000000000000000000000000 000000000000000000000000000000000000000     00000000                                                                                                                        000000000000000000
F0010000010587400002000004175790100041450500000000000000000201711010002001ROSIRIS FERIA HOYOS  (COSM. SHILLER)              C000000001500000000000000000000000100010010000000000000000000000F0010000010587400220171101000101 00000000000000000000000000000000000000000000000000000000000000000000000000000000000000000000000000000000000000000N 00000000000NCONT   00    00000000000          00000000000000000000000000000000000000000000 000000000000000A000000000000000000000000000000000000000000000 000000000000000000000000000000000000000     00000000                                                                                                                        000000000000000000
F0010000010587400003000004175790100042505000000000000000000201711010002001ROSIRIS FERIA HOYOS  (COSM. SHILLER)              C000000000600000000000000000000000100010010000000000000000000000F0010000010587400320171101000101 00000000000000000000000000000000000000000000000000000000000000000000000000000000000000000000000000000000000000000N 00000000000NCONT   00    00000000000          00000000000000000000000000000000000000000000 000000000000000A000000000000000000000000000000000000000000000 000000000000000000000000000000000000000     00000000                                                                                                                        000000000000000000
F0010000010587400004000004175790100023658300000000000000000201711010002001ROSIRIS FERIA HOYOS  (COSM. SHILLER)              C000000000000000000000000000000000100010010000000000000000000000F0010000010587400420171101000101 00000000000000000000000000000000000000000000000000000000000000000000000000000000000000000000000000000000000000000N 00000000000NCONT   00    00000000000          00000000000000000000000000000000000000000000 000000000000000A000000000000000000000000000000000000000000000 000000000000000000000000000000000000000     00000000                                                                                                                        000000000000000000
F0010000010587400005000004175790100013552100000000000000000201711010002001ROSIRIS FERIA HOYOS  (COSM. SHILLER)              D000000000000000000000000000000000100010010000000000000000000000F0010000010587400520171101000101 00000000000000000000000000000000000000000000000000000000000000000000000000000000000000000000000000000000000000000N 00000000000NCONT   00    00000000000          00000000000000000000000000000000000000000000 000000000000000A000000000000000000000000000000000000000000000 000000000000000000000000000000000000000     00000000                                                                                                                        000000000000000000
F0010000010587500001000000744496800011050500000000000000000201711010002001TOMAS SANCHEZ                                     D000000001200000000000000000000000100010010000000000000000000000F0010000010587500120171101000101 00000000000000000000000000000000000000000000000000000000000000000000000000000000000000000000000000000000000000000N 00000000000NCONT   00    00000000000          00000000000000000000000000000000000000000000 000000000000000A000000000000000000000000000000000000000000000 000000000000000000000000000000000000000     00000000                                                                                                                        000000000000000000
F0010000010587500002000000744496800041450500000000000000000201711010002001TOMAS SANCHEZ                                     C000000001100000000000000000000000100010010000000000000000000000F0010000010587500220171101000101 00000000000000000000000000000000000000000000000000000000000000000000000000000000000000000000000000000000000000000N 00000000000NCONT   00    00000000000          00000000000000000000000000000000000000000000 000000000000000A000000000000000000000000000000000000000000000 000000000000000000000000000000000000000     00000000                                                                                                                        000000000000000000
F0010000010587500003000000744496800042505000000000000000000201711010002001TOMAS SANCHEZ                                     C000000000100000000000000000000000100010010000000000000000000000F0010000010587500320171101000101 00000000000000000000000000000000000000000000000000000000000000000000000000000000000000000000000000000000000000000N 00000000000NCONT   00    00000000000          00000000000000000000000000000000000000000000 000000000000000A000000000000000000000000000000000000000000000 000000000000000000000000000000000000000     00000000                                                                                                                        000000000000000000
F0010000010587500004000000744496800023658300000000000000000201711010002001TOMAS SANCHEZ                                     C000000000000000000000000000000000100010010000000000000000000000F0010000010587500420171101000101 00000000000000000000000000000000000000000000000000000000000000000000000000000000000000000000000000000000000000000N 00000000000NCONT   00    00000000000          00000000000000000000000000000000000000000000 000000000000000A000000000000000000000000000000000000000000000 000000000000000000000000000000000000000     00000000                                                                                                                        000000000000000000
F0010000010587500005000000744496800013552100000000000000000201711010002001TOMAS SANCHEZ                                     D000000000000000000000000000000000100010010000000000000000000000F0010000010587500520171101000101 00000000000000000000000000000000000000000000000000000000000000000000000000000000000000000000000000000000000000000N 00000000000NCONT   00    00000000000          00000000000000000000000000000000000000000000 000000000000000A000000000000000000000000000000000000000000000 000000000000000000000000000000000000000     00000000                                                                                                                        000000000000000000
F0010000010587600001000003319910700011050500000000000000000201711010002001LUZ DARY JIMENEZ MARTINEZ                         D000000001200000000000000000000000100010010000000000000000000000F0010000010587600120171101000101 00000000000000000000000000000000000000000000000000000000000000000000000000000000000000000000000000000000000000000N 00000000000NCONT   00    00000000000          00000000000000000000000000000000000000000000 000000000000000A000000000000000000000000000000000000000000000 000000000000000000000000000000000000000     00000000                                                                                                                        000000000000000000
F0010000010587600002000003319910700041450500000000000000000201711010002001LUZ DARY JIMENEZ MARTINEZ                         C000000001100000000000000000000000100010010000000000000000000000F0010000010587600220171101000101 00000000000000000000000000000000000000000000000000000000000000000000000000000000000000000000000000000000000000000N 00000000000NCONT   00    00000000000          00000000000000000000000000000000000000000000 000000000000000A000000000000000000000000000000000000000000000 000000000000000000000000000000000000000     00000000                                                                                                                        000000000000000000
F0010000010587600003000003319910700042505000000000000000000201711010002001LUZ DARY JIMENEZ MARTINEZ                         C000000000100000000000000000000000100010010000000000000000000000F0010000010587600320171101000101 00000000000000000000000000000000000000000000000000000000000000000000000000000000000000000000000000000000000000000N 00000000000NCONT   00    00000000000          00000000000000000000000000000000000000000000 000000000000000A000000000000000000000000000000000000000000000 000000000000000000000000000000000000000     00000000                                                                                                                        000000000000000000
F0010000010587600004000003319910700023658300000000000000000201711010002001LUZ DARY JIMENEZ MARTINEZ                         C000000000000000000000000000000000100010010000000000000000000000F0010000010587600420171101000101 00000000000000000000000000000000000000000000000000000000000000000000000000000000000000000000000000000000000000000N 00000000000NCONT   00    00000000000          00000000000000000000000000000000000000000000 000000000000000A000000000000000000000000000000000000000000000 000000000000000000000000000000000000000     00000000                                                                                                                        000000000000000000
F0010000010587600005000003319910700013552100000000000000000201711010002001LUZ DARY JIMENEZ MARTINEZ                         D000000000000000000000000000000000100010010000000000000000000000F0010000010587600520171101000101 00000000000000000000000000000000000000000000000000000000000000000000000000000000000000000000000000000000000000000N 00000000000NCONT   00    00000000000          00000000000000000000000000000000000000000000 000000000000000A000000000000000000000000000000000000000000000 000000000000000000000000000000000000000     00000000                                                                                                                        000000000000000000
F0010000010587700001000002251901400011050500000000000000000201711010002001MAYRA CORTES                                      D000000004300000000000000000000000100010010000000000000000000000F0010000010587700120171101000101 00000000000000000000000000000000000000000000000000000000000000000000000000000000000000000000000000000000000000000N 00000000000NCONT   00    00000000000          00000000000000000000000000000000000000000000 000000000000000A000000000000000000000000000000000000000000000 000000000000000000000000000000000000000     00000000                                                                                                                        000000000000000000
F0010000010587700002000002251901400041450500000000000000000201711010002001MAYRA CORTES                                      C000000003300000000000000000000000100010010000000000000000000000F0010000010587700220171101000101 00000000000000000000000000000000000000000000000000000000000000000000000000000000000000000000000000000000000000000N 00000000000NCONT   00    00000000000          00000000000000000000000000000000000000000000 000000000000000A000000000000000000000000000000000000000000000 000000000000000000000000000000000000000     00000000                                                                                                                        000000000000000000
F0010000010587700003000002251901400042505000000000000000000201711010002001MAYRA CORTES                                      C000000001000000000000000000000000100010010000000000000000000000F0010000010587700320171101000101 00000000000000000000000000000000000000000000000000000000000000000000000000000000000000000000000000000000000000000N 00000000000NCONT   00    00000000000          00000000000000000000000000000000000000000000 000000000000000A000000000000000000000000000000000000000000000 000000000000000000000000000000000000000     00000000                                                                                                                        000000000000000000
F0010000010587700004000002251901400023658300000000000000000201711010002001MAYRA CORTES                                      C000000000000000000000000000000000100010010000000000000000000000F0010000010587700420171101000101 00000000000000000000000000000000000000000000000000000000000000000000000000000000000000000000000000000000000000000N 00000000000NCONT   00    00000000000          00000000000000000000000000000000000000000000 000000000000000A000000000000000000000000000000000000000000000 000000000000000000000000000000000000000     00000000                                                                                                                        000000000000000000
F0010000010587700005000002251901400013552100000000000000000201711010002001MAYRA CORTES                                      D000000000000000000000000000000000100010010000000000000000000000F0010000010587700520171101000101 00000000000000000000000000000000000000000000000000000000000000000000000000000000000000000000000000000000000000000N 00000000000NCONT   00    00000000000          00000000000000000000000000000000000000000000 000000000000000A000000000000000000000000000000000000000000000 000000000000000000000000000000000000000     00000000                                                                                                                        000000000000000000
F0010000010587800001000090043154800011050500000000000000000201711010002001DISTRIB. GOMEZ CONTRERAS                          D000000001300000000000000000000000100010010000000000000000000000F0010000010587800120171101000101 00000000000000000000000000000000000000000000000000000000000000000000000000000000000000000000000000000000000000000N 00000000000NCONT   00    00000000000          00000000000000000000000000000000000000000000 000000000000000A000000000000000000000000000000000000000000000 000000000000000000000000000000000000000     00000000                                                                                                                        000000000000000000
F0010000010587800002000090043154800041450500000000000000000201711010002001DISTRIB. GOMEZ CONTRERAS                          C000000001100000000000000000000000100010010000000000000000000000F0010000010587800220171101000101 00000000000000000000000000000000000000000000000000000000000000000000000000000000000000000000000000000000000000000N 00000000000NCONT   00    00000000000          00000000000000000000000000000000000000000000 000000000000000A000000000000000000000000000000000000000000000 000000000000000000000000000000000000000     00000000                                                                                                                        000000000000000000
F0010000010587800003000090043154800042505000000000000000000201711010002001DISTRIB. GOMEZ CONTRERAS                          C000000000200000000000000000000000100010010000000000000000000000F0010000010587800320171101000101 00000000000000000000000000000000000000000000000000000000000000000000000000000000000000000000000000000000000000000N 00000000000NCONT   00    00000000000          00000000000000000000000000000000000000000000 000000000000000A000000000000000000000000000000000000000000000 000000000000000000000000000000000000000     00000000                                                                                                                        000000000000000000
F0010000010587800004000090043154800023658300000000000000000201711010002001DISTRIB. GOMEZ CONTRERAS                          C000000000000000000000000000000000100010010000000000000000000000F0010000010587800420171101000101 00000000000000000000000000000000000000000000000000000000000000000000000000000000000000000000000000000000000000000N 00000000000NCONT   00    00000000000          00000000000000000000000000000000000000000000 000000000000000A000000000000000000000000000000000000000000000 000000000000000000000000000000000000000     00000000                                                                                                                        000000000000000000
F0010000010587800005000090043154800013552100000000000000000201711010002001DISTRIB. GOMEZ CONTRERAS                          D000000000000000000000000000000000100010010000000000000000000000F0010000010587800520171101000101 00000000000000000000000000000000000000000000000000000000000000000000000000000000000000000000000000000000000000000N 00000000000NCONT   00    00000000000          00000000000000000000000000000000000000000000 000000000000000A000000000000000000000000000000000000000000000 000000000000000000000000000000000000000     00000000                                                                                                                        000000000000000000
F0010000010587900001000102390001700011050500000000000000000201711010002001LILIANA HERNANDEZ PINILLA                         D000000001800000000000000000000000100010010000000000000000000000F0010000010587900120171101000101 00000000000000000000000000000000000000000000000000000000000000000000000000000000000000000000000000000000000000000N 00000000000NCONT   00    00000000000          00000000000000000000000000000000000000000000 000000000000000A000000000000000000000000000000000000000000000 000000000000000000000000000000000000000     00000000                                                                                                                        000000000000000000
F0010000010587900002000102390001700041450500000000000000000201711010002001LILIANA HERNANDEZ PINILLA                         C000000001300000000000000000000000100010010000000000000000000000F0010000010587900220171101000101 00000000000000000000000000000000000000000000000000000000000000000000000000000000000000000000000000000000000000000N 00000000000NCONT   00    00000000000          00000000000000000000000000000000000000000000 000000000000000A000000000000000000000000000000000000000000000 000000000000000000000000000000000000000     00000000                                                                                                                        000000000000000000
F0010000010587900003000102390001700042505000000000000000000201711010002001LILIANA HERNANDEZ PINILLA                         C000000000500000000000000000000000100010010000000000000000000000F0010000010587900320171101000101 00000000000000000000000000000000000000000000000000000000000000000000000000000000000000000000000000000000000000000N 00000000000NCONT   00    00000000000          00000000000000000000000000000000000000000000 000000000000000A000000000000000000000000000000000000000000000 000000000000000000000000000000000000000     00000000                                                                                                                        000000000000000000
F0010000010587900004000102390001700023658300000000000000000201711010002001LILIANA HERNANDEZ PINILLA                         C000000000000000000000000000000000100010010000000000000000000000F0010000010587900420171101000101 00000000000000000000000000000000000000000000000000000000000000000000000000000000000000000000000000000000000000000N 00000000000NCONT   00    00000000000          00000000000000000000000000000000000000000000 000000000000000A000000000000000000000000000000000000000000000 000000000000000000000000000000000000000     00000000                                                                                                                        000000000000000000
F0010000010587900005000102390001700013552100000000000000000201711010002001LILIANA HERNANDEZ PINILLA                         D000000000000000000000000000000000100010010000000000000000000000F0010000010587900520171101000101 00000000000000000000000000000000000000000000000000000000000000000000000000000000000000000000000000000000000000000N 00000000000NCONT   00    00000000000          00000000000000000000000000000000000000000000 000000000000000A000000000000000000000000000000000000000000000 000000000000000000000000000000000000000     00000000                                                                                                                        000000000000000000
F0010000010588000001000080202435000011050500000000000000000201711010002001DISTRIBUIDORA MACEA SAS                           D000000004743200000000000000000000100010010000000000000000000000F0010000010588000120171101000101 00000000000000000000000000000000000000000000000000000000000000000000000000000000000000000000000000000000000000000N 00000000000NCONT   00    00000000000          00000000000000000000000000000000000000000000 000000000000000A000000000000000000000000000000000000000000000 000000000000000000000000000000000000000     00000000                                                                                                                        000000000000000000
F0010000010588000002000080202435000041450500000000000000000201711010002001DISTRIBUIDORA MACEA SAS                           C000000003900000000000000000000000100010010000000000000000000000F0010000010588000220171101000101 00000000000000000000000000000000000000000000000000000000000000000000000000000000000000000000000000000000000000000N 00000000000NCONT   00    00000000000          00000000000000000000000000000000000000000000 000000000000000A000000000000000000000000000000000000000000000 000000000000000000000000000000000000000     00000000                                                                                                                        000000000000000000
F0010000010588000003000080202435000042505000000000000000000201711010002001DISTRIBUIDORA MACEA SAS                           C000000000843200000000000000000000100010010000000000000000000000F0010000010588000320171101000101 00000000000000000000000000000000000000000000000000000000000000000000000000000000000000000000000000000000000000000N 00000000000NCONT   00    00000000000          00000000000000000000000000000000000000000000 000000000000000A000000000000000000000000000000000000000000000 000000000000000000000000000000000000000     00000000                                                                                                                        000000000000000000
F0010000010588000004000080202435000023658300000000000000000201711010002001DISTRIBUIDORA MACEA SAS                           C000000000000000000000000000000000100010010000000000000000000000F0010000010588000420171101000101 00000000000000000000000000000000000000000000000000000000000000000000000000000000000000000000000000000000000000000N 00000000000NCONT   00    00000000000          00000000000000000000000000000000000000000000 000000000000000A000000000000000000000000000000000000000000000 000000000000000000000000000000000000000     00000000                                                                                                                        000000000000000000
F0010000010588000005000080202435000013552100000000000000000201711010002001DISTRIBUIDORA MACEA SAS                           D000000000000000000000000000000000100010010000000000000000000000F0010000010588000520171101000101 00000000000000000000000000000000000000000000000000000000000000000000000000000000000000000000000000000000000000000N 00000000000NCONT   00    00000000000          00000000000000000000000000000000000000000000 000000000000000A000000000000000000000000000000000000000000000 000000000000000000000000000000000000000     00000000                                                                                                                        000000000000000000
F0010000010588100001000007213847800011050500000000000000000201711010002001ALEJANDRO MEZA ALVAREZ                            D000000002800000000000000000000000100010010000000000000000000000F0010000010588100120171101000101 00000000000000000000000000000000000000000000000000000000000000000000000000000000000000000000000000000000000000000N 00000000000NCONT   00    00000000000          00000000000000000000000000000000000000000000 000000000000000A000000000000000000000000000000000000000000000 000000000000000000000000000000000000000     00000000                                                                                                                        000000000000000000
F0010000010588100002000007213847800041450500000000000000000201711010002001ALEJANDRO MEZA ALVAREZ                            C000000002600000000000000000000000100010010000000000000000000000F0010000010588100220171101000101 00000000000000000000000000000000000000000000000000000000000000000000000000000000000000000000000000000000000000000N 00000000000NCONT   00    00000000000          00000000000000000000000000000000000000000000 000000000000000A000000000000000000000000000000000000000000000 000000000000000000000000000000000000000     00000000                                                                                                                        000000000000000000
F0010000010588100003000007213847800042505000000000000000000201711010002001ALEJANDRO MEZA ALVAREZ                            C000000000200000000000000000000000100010010000000000000000000000F0010000010588100320171101000101 00000000000000000000000000000000000000000000000000000000000000000000000000000000000000000000000000000000000000000N 00000000000NCONT   00    00000000000          00000000000000000000000000000000000000000000 000000000000000A000000000000000000000000000000000000000000000 000000000000000000000000000000000000000     00000000                                                                                                                        000000000000000000
F0010000010588100004000007213847800023658300000000000000000201711010002001ALEJANDRO MEZA ALVAREZ                            C000000000000000000000000000000000100010010000000000000000000000F0010000010588100420171101000101 00000000000000000000000000000000000000000000000000000000000000000000000000000000000000000000000000000000000000000N 00000000000NCONT   00    00000000000          00000000000000000000000000000000000000000000 000000000000000A000000000000000000000000000000000000000000000 000000000000000000000000000000000000000     00000000                                                                                                                        000000000000000000
F0010000010588100005000007213847800013552100000000000000000201711010002001ALEJANDRO MEZA ALVAREZ                            D000000000000000000000000000000000100010010000000000000000000000F0010000010588100520171101000101 00000000000000000000000000000000000000000000000000000000000000000000000000000000000000000000000000000000000000000N 00000000000NCONT   00    00000000000          00000000000000000000000000000000000000000000 000000000000000A000000000000000000000000000000000000000000000 000000000000000000000000000000000000000     00000000                                                                                                                        000000000000000000
F0010000010588200001000007200023300011050500000000000000000201711010002001WILLIAM ORTEGA                                    D000000000975000000000000000000000100010010000000000000000000000F0010000010588200120171101000101 00000000000000000000000000000000000000000000000000000000000000000000000000000000000000000000000000000000000000000N 00000000000NCONT   00    00000000000          00000000000000000000000000000000000000000000 000000000000000A000000000000000000000000000000000000000000000 000000000000000000000000000000000000000     00000000                                                                                                                        000000000000000000
F0010000010588200002000007200023300041450500000000000000000201711010002001WILLIAM ORTEGA                                    C000000000850000000000000000000000100010010000000000000000000000F0010000010588200220171101000101 00000000000000000000000000000000000000000000000000000000000000000000000000000000000000000000000000000000000000000N 00000000000NCONT   00    00000000000          00000000000000000000000000000000000000000000 000000000000000A000000000000000000000000000000000000000000000 000000000000000000000000000000000000000     00000000                                                                                                                        000000000000000000
F0010000010588200003000007200023300042505000000000000000000201711010002001WILLIAM ORTEGA                                    C000000000125000000000000000000000100010010000000000000000000000F0010000010588200320171101000101 00000000000000000000000000000000000000000000000000000000000000000000000000000000000000000000000000000000000000000N 00000000000NCONT   00    00000000000          00000000000000000000000000000000000000000000 000000000000000A000000000000000000000000000000000000000000000 000000000000000000000000000000000000000     00000000                                                                                                                        000000000000000000
F0010000010588200004000007200023300023658300000000000000000201711010002001WILLIAM ORTEGA                                    C000000000000000000000000000000000100010010000000000000000000000F0010000010588200420171101000101 00000000000000000000000000000000000000000000000000000000000000000000000000000000000000000000000000000000000000000N 00000000000NCONT   00    00000000000          00000000000000000000000000000000000000000000 000000000000000A000000000000000000000000000000000000000000000 000000000000000000000000000000000000000     00000000                                                                                                                        000000000000000000
F0010000010588200005000007200023300013552100000000000000000201711010002001WILLIAM ORTEGA                                    D000000000000000000000000000000000100010010000000000000000000000F0010000010588200520171101000101 00000000000000000000000000000000000000000000000000000000000000000000000000000000000000000000000000000000000000000N 00000000000NCONT   00    00000000000          00000000000000000000000000000000000000000000 000000000000000A000000000000000000000000000000000000000000000 000000000000000000000000000000000000000     00000000                                                                                                                        000000000000000000
F0010000010588300001000090067091400011050500000000000000000201711010002001COMERCIALIZADORA ESCOBAR ORTIZ                    D000000003678000000000000000000000100010010000000000000000000000F0010000010588300120171101000101 00000000000000000000000000000000000000000000000000000000000000000000000000000000000000000000000000000000000000000N 00000000000NCONT   00    00000000000          00000000000000000000000000000000000000000000 000000000000000A000000000000000000000000000000000000000000000 000000000000000000000000000000000000000     00000000                                                                                                                        000000000000000000
F0010000010588300002000090067091400041450500000000000000000201711010002001COMERCIALIZADORA ESCOBAR ORTIZ                    C000000002600000000000000000000000100010010000000000000000000000F0010000010588300220171101000101 00000000000000000000000000000000000000000000000000000000000000000000000000000000000000000000000000000000000000000N 00000000000NCONT   00    00000000000          00000000000000000000000000000000000000000000 000000000000000A000000000000000000000000000000000000000000000 000000000000000000000000000000000000000     00000000                                                                                                                        000000000000000000
F0010000010588300003000090067091400042505000000000000000000201711010002001COMERCIALIZADORA ESCOBAR ORTIZ                    C000000001078000000000000000000000100010010000000000000000000000F0010000010588300320171101000101 00000000000000000000000000000000000000000000000000000000000000000000000000000000000000000000000000000000000000000N 00000000000NCONT   00    00000000000          00000000000000000000000000000000000000000000 000000000000000A000000000000000000000000000000000000000000000 000000000000000000000000000000000000000     00000000                                                                                                                        000000000000000000
F0010000010588300004000090067091400023658300000000000000000201711010002001COMERCIALIZADORA ESCOBAR ORTIZ                    C000000000000000000000000000000000100010010000000000000000000000F0010000010588300420171101000101 00000000000000000000000000000000000000000000000000000000000000000000000000000000000000000000000000000000000000000N 00000000000NCONT   00    00000000000          00000000000000000000000000000000000000000000 000000000000000A000000000000000000000000000000000000000000000 000000000000000000000000000000000000000     00000000                                                                                                                        000000000000000000
F0010000010588300005000090067091400013552100000000000000000201711010002001COMERCIALIZADORA ESCOBAR ORTIZ                    D000000000000000000000000000000000100010010000000000000000000000F0010000010588300520171101000101 00000000000000000000000000000000000000000000000000000000000000000000000000000000000000000000000000000000000000000N 00000000000NCONT   00    00000000000          00000000000000000000000000000000000000000000 000000000000000A000000000000000000000000000000000000000000000 000000000000000000000000000000000000000     00000000                                                                                                                        000000000000000000
F0010000010588400001000090067091400011050500000000000000000201711010002001COMERCIALIZADORA ESCOBAR ORTIZ                    D000000000754000000000000000000000100010010000000000000000000000F0010000010588400120171101000101 00000000000000000000000000000000000000000000000000000000000000000000000000000000000000000000000000000000000000000N 00000000000NCONT   00    00000000000          00000000000000000000000000000000000000000000 000000000000000A000000000000000000000000000000000000000000000 000000000000000000000000000000000000000     00000000                                                                                                                        000000000000000000
F0010000010588400002000090067091400041450500000000000000000201711010002001COMERCIALIZADORA ESCOBAR ORTIZ                    C000000000350000000000000000000000100010010000000000000000000000F0010000010588400220171101000101 00000000000000000000000000000000000000000000000000000000000000000000000000000000000000000000000000000000000000000N 00000000000NCONT   00    00000000000          00000000000000000000000000000000000000000000 000000000000000A000000000000000000000000000000000000000000000 000000000000000000000000000000000000000     00000000                                                                                                                        000000000000000000
F0010000010588400003000090067091400042505000000000000000000201711010002001COMERCIALIZADORA ESCOBAR ORTIZ                    C000000000404000000000000000000000100010010000000000000000000000F0010000010588400320171101000101 00000000000000000000000000000000000000000000000000000000000000000000000000000000000000000000000000000000000000000N 00000000000NCONT   00    00000000000          00000000000000000000000000000000000000000000 000000000000000A000000000000000000000000000000000000000000000 000000000000000000000000000000000000000     00000000                                                                                                                        000000000000000000
F0010000010588400004000090067091400023658300000000000000000201711010002001COMERCIALIZADORA ESCOBAR ORTIZ                    C000000000000000000000000000000000100010010000000000000000000000F0010000010588400420171101000101 00000000000000000000000000000000000000000000000000000000000000000000000000000000000000000000000000000000000000000N 00000000000NCONT   00    00000000000          00000000000000000000000000000000000000000000 000000000000000A000000000000000000000000000000000000000000000 000000000000000000000000000000000000000     00000000                                                                                                                        000000000000000000
F0010000010588400005000090067091400013552100000000000000000201711010002001COMERCIALIZADORA ESCOBAR ORTIZ                    D000000000000000000000000000000000100010010000000000000000000000F0010000010588400520171101000101 00000000000000000000000000000000000000000000000000000000000000000000000000000000000000000000000000000000000000000N 00000000000NCONT   00    00000000000          00000000000000000000000000000000000000000000 000000000000000A000000000000000000000000000000000000000000000 000000000000000000000000000000000000000     00000000                                                                                                                        000000000000000000
F0010000010588500001000090067091400011050500000000000000000201711010002001COMERCIALIZADORA ESCOBAR ORTIZ                    D000000002944000000000000000000000100010010000000000000000000000F0010000010588500120171101000101 00000000000000000000000000000000000000000000000000000000000000000000000000000000000000000000000000000000000000000N 00000000000NCONT   00    00000000000          00000000000000000000000000000000000000000000 000000000000000A000000000000000000000000000000000000000000000 000000000000000000000000000000000000000     00000000                                                                                                                        000000000000000000
F0010000010588500002000090067091400041450500000000000000000201711010002001COMERCIALIZADORA ESCOBAR ORTIZ                    C000000002200000000000000000000000100010010000000000000000000000F0010000010588500220171101000101 00000000000000000000000000000000000000000000000000000000000000000000000000000000000000000000000000000000000000000N 00000000000NCONT   00    00000000000          00000000000000000000000000000000000000000000 000000000000000A000000000000000000000000000000000000000000000 000000000000000000000000000000000000000     00000000                                                                                                                        000000000000000000
F0010000010588500003000090067091400042505000000000000000000201711010002001COMERCIALIZADORA ESCOBAR ORTIZ                    C000000000744000000000000000000000100010010000000000000000000000F0010000010588500320171101000101 00000000000000000000000000000000000000000000000000000000000000000000000000000000000000000000000000000000000000000N 00000000000NCONT   00    00000000000          00000000000000000000000000000000000000000000 000000000000000A000000000000000000000000000000000000000000000 000000000000000000000000000000000000000     00000000                                                                                                                        000000000000000000
F0010000010588500004000090067091400023658300000000000000000201711010002001COMERCIALIZADORA ESCOBAR ORTIZ                    C000000000000000000000000000000000100010010000000000000000000000F0010000010588500420171101000101 00000000000000000000000000000000000000000000000000000000000000000000000000000000000000000000000000000000000000000N 00000000000NCONT   00    00000000000          00000000000000000000000000000000000000000000 000000000000000A000000000000000000000000000000000000000000000 000000000000000000000000000000000000000     00000000                                                                                                                        000000000000000000
F0010000010588500005000090067091400013552100000000000000000201711010002001COMERCIALIZADORA ESCOBAR ORTIZ                    D000000000000000000000000000000000100010010000000000000000000000F0010000010588500520171101000101 00000000000000000000000000000000000000000000000000000000000000000000000000000000000000000000000000000000000000000N 00000000000NCONT   00    00000000000          00000000000000000000000000000000000000000000 000000000000000A000000000000000000000000000000000000000000000 000000000000000000000000000000000000000     00000000                                                                                                                        000000000000000000
F0010000010588600001000090067091400011050500000000000000000201711010002001COMERCIALIZADORA ESCOBAR ORTIZ                    D000000002897000000000000000000000100010010000000000000000000000F0010000010588600120171101000101 00000000000000000000000000000000000000000000000000000000000000000000000000000000000000000000000000000000000000000N 00000000000NCONT   00    00000000000          00000000000000000000000000000000000000000000 000000000000000A000000000000000000000000000000000000000000000 000000000000000000000000000000000000000     00000000                                                                                                                        000000000000000000
F0010000010588600002000090067091400041450500000000000000000201711010002001COMERCIALIZADORA ESCOBAR ORTIZ                    C000000001050000000000000000000000100010010000000000000000000000F0010000010588600220171101000101 00000000000000000000000000000000000000000000000000000000000000000000000000000000000000000000000000000000000000000N 00000000000NCONT   00    00000000000          00000000000000000000000000000000000000000000 000000000000000A000000000000000000000000000000000000000000000 000000000000000000000000000000000000000     00000000                                                                                                                        000000000000000000
F0010000010588600003000090067091400042505000000000000000000201711010002001COMERCIALIZADORA ESCOBAR ORTIZ                    C000000001847000000000000000000000100010010000000000000000000000F0010000010588600320171101000101 00000000000000000000000000000000000000000000000000000000000000000000000000000000000000000000000000000000000000000N 00000000000NCONT   00    00000000000          00000000000000000000000000000000000000000000 000000000000000A000000000000000000000000000000000000000000000 000000000000000000000000000000000000000     00000000                                                                                                                        000000000000000000
F0010000010588600004000090067091400023658300000000000000000201711010002001COMERCIALIZADORA ESCOBAR ORTIZ                    C000000000000000000000000000000000100010010000000000000000000000F0010000010588600420171101000101 00000000000000000000000000000000000000000000000000000000000000000000000000000000000000000000000000000000000000000N 00000000000NCONT   00    00000000000          00000000000000000000000000000000000000000000 000000000000000A000000000000000000000000000000000000000000000 000000000000000000000000000000000000000     00000000                                                                                                                        000000000000000000
F0010000010588600005000090067091400013552100000000000000000201711010002001COMERCIALIZADORA ESCOBAR ORTIZ                    D000000000000000000000000000000000100010010000000000000000000000F0010000010588600520171101000101 00000000000000000000000000000000000000000000000000000000000000000000000000000000000000000000000000000000000000000N 00000000000NCONT   00    00000000000          00000000000000000000000000000000000000000000 000000000000000A000000000000000000000000000000000000000000000 000000000000000000000000000000000000000     00000000                                                                                                                        000000000000000000
F0010000010588700001000090067091400011050500000000000000000201711010002001COMERCIALIZADORA ESCOBAR ORTIZ                    D000000001253000000000000000000000100010010000000000000000000000F0010000010588700120171101000101 00000000000000000000000000000000000000000000000000000000000000000000000000000000000000000000000000000000000000000N 00000000000NCONT   00    00000000000          00000000000000000000000000000000000000000000 000000000000000A000000000000000000000000000000000000000000000 000000000000000000000000000000000000000     00000000                                                                                                                        000000000000000000
F0010000010588700002000090067091400041450500000000000000000201711010002001COMERCIALIZADORA ESCOBAR ORTIZ                    C000000000350000000000000000000000100010010000000000000000000000F0010000010588700220171101000101 00000000000000000000000000000000000000000000000000000000000000000000000000000000000000000000000000000000000000000N 00000000000NCONT   00    00000000000          00000000000000000000000000000000000000000000 000000000000000A000000000000000000000000000000000000000000000 000000000000000000000000000000000000000     00000000                                                                                                                        000000000000000000
F0010000010588700003000090067091400042505000000000000000000201711010002001COMERCIALIZADORA ESCOBAR ORTIZ                    C000000000903000000000000000000000100010010000000000000000000000F0010000010588700320171101000101 00000000000000000000000000000000000000000000000000000000000000000000000000000000000000000000000000000000000000000N 00000000000NCONT   00    00000000000          00000000000000000000000000000000000000000000 000000000000000A000000000000000000000000000000000000000000000 000000000000000000000000000000000000000     00000000                                                                                                                        000000000000000000
F0010000010588700004000090067091400023658300000000000000000201711010002001COMERCIALIZADORA ESCOBAR ORTIZ                    C000000000000000000000000000000000100010010000000000000000000000F0010000010588700420171101000101 00000000000000000000000000000000000000000000000000000000000000000000000000000000000000000000000000000000000000000N 00000000000NCONT   00    00000000000          00000000000000000000000000000000000000000000 000000000000000A000000000000000000000000000000000000000000000 000000000000000000000000000000000000000     00000000                                                                                                                        000000000000000000
F0010000010588700005000090067091400013552100000000000000000201711010002001COMERCIALIZADORA ESCOBAR ORTIZ                    D000000000000000000000000000000000100010010000000000000000000000F0010000010588700520171101000101 00000000000000000000000000000000000000000000000000000000000000000000000000000000000000000000000000000000000000000N 00000000000NCONT   00    00000000000          00000000000000000000000000000000000000000000 000000000000000A000000000000000000000000000000000000000000000 000000000000000000000000000000000000000     00000000                                                                                                                        000000000000000000
F0010000010588800001000090067091400011050500000000000000000201711010002001COMERCIALIZADORA ESCOBAR ORTIZ                    D000000002691000000000000000000000100010010000000000000000000000F0010000010588800120171101000101 00000000000000000000000000000000000000000000000000000000000000000000000000000000000000000000000000000000000000000N 00000000000NCONT   00    00000000000          00000000000000000000000000000000000000000000 000000000000000A000000000000000000000000000000000000000000000 000000000000000000000000000000000000000     00000000                                                                                                                        000000000000000000
F0010000010588800002000090067091400041450500000000000000000201711010002001COMERCIALIZADORA ESCOBAR ORTIZ                    C000000002200000000000000000000000100010010000000000000000000000F0010000010588800220171101000101 00000000000000000000000000000000000000000000000000000000000000000000000000000000000000000000000000000000000000000N 00000000000NCONT   00    00000000000          00000000000000000000000000000000000000000000 000000000000000A000000000000000000000000000000000000000000000 000000000000000000000000000000000000000     00000000                                                                                                                        000000000000000000
F0010000010588800003000090067091400042505000000000000000000201711010002001COMERCIALIZADORA ESCOBAR ORTIZ                    C000000000491000000000000000000000100010010000000000000000000000F0010000010588800320171101000101 00000000000000000000000000000000000000000000000000000000000000000000000000000000000000000000000000000000000000000N 00000000000NCONT   00    00000000000          00000000000000000000000000000000000000000000 000000000000000A000000000000000000000000000000000000000000000 000000000000000000000000000000000000000     00000000                                                                                                                        000000000000000000
F0010000010588800004000090067091400023658300000000000000000201711010002001COMERCIALIZADORA ESCOBAR ORTIZ                    C000000000000000000000000000000000100010010000000000000000000000F0010000010588800420171101000101 00000000000000000000000000000000000000000000000000000000000000000000000000000000000000000000000000000000000000000N 00000000000NCONT   00    00000000000          00000000000000000000000000000000000000000000 000000000000000A000000000000000000000000000000000000000000000 000000000000000000000000000000000000000     00000000                                                                                                                        000000000000000000
F0010000010588800005000090067091400013552100000000000000000201711010002001COMERCIALIZADORA ESCOBAR ORTIZ                    D000000000000000000000000000000000100010010000000000000000000000F0010000010588800520171101000101 00000000000000000000000000000000000000000000000000000000000000000000000000000000000000000000000000000000000000000N 00000000000NCONT   00    00000000000          00000000000000000000000000000000000000000000 000000000000000A000000000000000000000000000000000000000000000 000000000000000000000000000000000000000     00000000                                                                                                                        000000000000000000
F0010000010588900001000090067091400011050500000000000000000201711010002001COMERCIALIZADORA ESCOBAR ORTIZ                    D000000004105000000000000000000000100010010000000000000000000000F0010000010588900120171101000101 00000000000000000000000000000000000000000000000000000000000000000000000000000000000000000000000000000000000000000N 00000000000NCONT   00    00000000000          00000000000000000000000000000000000000000000 000000000000000A000000000000000000000000000000000000000000000 000000000000000000000000000000000000000     00000000                                                                                                                        000000000000000000
F0010000010588900002000090067091400041450500000000000000000201711010002001COMERCIALIZADORA ESCOBAR ORTIZ                    C000000001750000000000000000000000100010010000000000000000000000F0010000010588900220171101000101 00000000000000000000000000000000000000000000000000000000000000000000000000000000000000000000000000000000000000000N 00000000000NCONT   00    00000000000          00000000000000000000000000000000000000000000 000000000000000A000000000000000000000000000000000000000000000 000000000000000000000000000000000000000     00000000                                                                                                                        000000000000000000
F0010000010588900003000090067091400042505000000000000000000201711010002001COMERCIALIZADORA ESCOBAR ORTIZ                    C000000002355000000000000000000000100010010000000000000000000000F0010000010588900320171101000101 00000000000000000000000000000000000000000000000000000000000000000000000000000000000000000000000000000000000000000N 00000000000NCONT   00    00000000000          00000000000000000000000000000000000000000000 000000000000000A000000000000000000000000000000000000000000000 000000000000000000000000000000000000000     00000000                                                                                                                        000000000000000000
F0010000010588900004000090067091400023658300000000000000000201711010002001COMERCIALIZADORA ESCOBAR ORTIZ                    C000000000000000000000000000000000100010010000000000000000000000F0010000010588900420171101000101 00000000000000000000000000000000000000000000000000000000000000000000000000000000000000000000000000000000000000000N 00000000000NCONT   00    00000000000          00000000000000000000000000000000000000000000 000000000000000A000000000000000000000000000000000000000000000 000000000000000000000000000000000000000     00000000                                                                                                                        000000000000000000
F0010000010588900005000090067091400013552100000000000000000201711010002001COMERCIALIZADORA ESCOBAR ORTIZ                    D000000000000000000000000000000000100010010000000000000000000000F0010000010588900520171101000101 00000000000000000000000000000000000000000000000000000000000000000000000000000000000000000000000000000000000000000N 00000000000NCONT   00    00000000000          00000000000000000000000000000000000000000000 000000000000000A000000000000000000000000000000000000000000000 000000000000000000000000000000000000000     00000000                                                                                                                        000000000000000000
F0010000010589000001000090067091400011050500000000000000000201711010002001COMERCIALIZADORA ESCOBAR ORTIZ                    D000000003965000000000000000000000100010010000000000000000000000F0010000010589000120171101000101 00000000000000000000000000000000000000000000000000000000000000000000000000000000000000000000000000000000000000000N 00000000000NCONT   00    00000000000          00000000000000000000000000000000000000000000 000000000000000A000000000000000000000000000000000000000000000 000000000000000000000000000000000000000     00000000                                                                                                                        000000000000000000
F0010000010589000002000090067091400041450500000000000000000201711010002001COMERCIALIZADORA ESCOBAR ORTIZ                    C000000002600000000000000000000000100010010000000000000000000000F0010000010589000220171101000101 00000000000000000000000000000000000000000000000000000000000000000000000000000000000000000000000000000000000000000N 00000000000NCONT   00    00000000000          00000000000000000000000000000000000000000000 000000000000000A000000000000000000000000000000000000000000000 000000000000000000000000000000000000000     00000000                                                                                                                        000000000000000000
F0010000010589000003000090067091400042505000000000000000000201711010002001COMERCIALIZADORA ESCOBAR ORTIZ                    C000000001365000000000000000000000100010010000000000000000000000F0010000010589000320171101000101 00000000000000000000000000000000000000000000000000000000000000000000000000000000000000000000000000000000000000000N 00000000000NCONT   00    00000000000          00000000000000000000000000000000000000000000 000000000000000A000000000000000000000000000000000000000000000 000000000000000000000000000000000000000     00000000                                                                                                                        000000000000000000
