F0010000005894600001000007934219000011050500000000000000000201406060002001CANDELEC ILUMINACIONE                             D000000003800000000000000000000000100010010000000000000000000000F0010000005894600120140606000101 00000000000000000000000000000000000000000000000000000000000000000000000000000000000000000000000000000000000000000N 00000000000NCONT   00    00000000000          00000000000000000000000000000000000000000000 000000000000000A000000000000000000000000000000000000000000000 000000000000000000000000000000000000000     00000000                                                                                                                        000000000000000000
F0010000005894600002000007934219000041450500000000000000000201406060002001CANDELEC ILUMINACIONE                             C000000003600000000000000000000000100010010000000000000000000000F0010000005894600220140606000101 00000000000000000000000000000000000000000000000000000000000000000000000000000000000000000000000000000000000000000N 00000000000NCONT   00    00000000000          00000000000000000000000000000000000000000000 000000000000000A000000000000000000000000000000000000000000000 000000000000000000000000000000000000000     00000000                                                                                                                        000000000000000000
F0010000005894600003000007934219000042505000000000000000000201406060002001CANDELEC ILUMINACIONE                             C000000000200000000000000000000000100010010000000000000000000000F0010000005894600320140606000101 00000000000000000000000000000000000000000000000000000000000000000000000000000000000000000000000000000000000000000N 00000000000NCONT   00    00000000000          00000000000000000000000000000000000000000000 000000000000000A000000000000000000000000000000000000000000000 000000000000000000000000000000000000000     00000000                                                                                                                        000000000000000000
F0010000005894600004000007934219000023658300000000000000000201406060002001CANDELEC ILUMINACIONE                             C000000000028800000000000000000000100010010000000000000000000000F0010000005894600420140606000101 00000000000000000000000000000000000000000000000000000000000000000000000000000000000000000000000000000000000000000N 00000000000NCONT   00    00000000000          00000000000000000000000000000000000000000000 000000000000000A000000000000000000000000000000000000000000000 000000000000000000000000000000000000000     00000000                                                                                                                        000000000000000000
F0010000005894600005000007934219000013552100000000000000000201406060002001CANDELEC ILUMINACIONE                             D000000000028800000000000000000000100010010000000000000000000000F0010000005894600520140606000101 00000000000000000000000000000000000000000000000000000000000000000000000000000000000000000000000000000000000000000N 00000000000NCONT   00    00000000000          00000000000000000000000000000000000000000000 000000000000000A000000000000000000000000000000000000000000000 000000000000000000000000000000000000000     00000000                                                                                                                        000000000000000000
F0010000005894700001000090035510100013050500000000000000000201406060002001GRAINGER COLOMBIA S.A.S.                          D000000091069500000000000000000000100010010000000000000000000000F0010000005894700120140606000101 00000000000000000000000000000000000000000000000000000000000000000000000000000000000000000000000000000000000000000N 00000000000NCONT   00    00000000000          00000000000000000000000000000000000000000000 000000000000000A000000000000000000000000000000000000000000000 000000000000000000000000000000000000000     00000000                                                                                                                        000000000000000000
F0010000005894700002000090035510100041450500000000000000000201406060002001GRAINGER COLOMBIA S.A.S.                          C000000069188600000000000000000000100010010000000000000000000000F0010000005894700220140606000101 00000000000000000000000000000000000000000000000000000000000000000000000000000000000000000000000000000000000000000N 00000000000NCONT   00    00000000000          00000000000000000000000000000000000000000000 000000000000000A000000000000000000000000000000000000000000000 000000000000000000000000000000000000000     00000000                                                                                                                        000000000000000000
F0010000005894700003000090035510100042505000000000000000000201406060002001GRAINGER COLOMBIA S.A.S.                          C000000021880900000000000000000000100010010000000000000000000000F0010000005894700320140606000101 00000000000000000000000000000000000000000000000000000000000000000000000000000000000000000000000000000000000000000N 00000000000NCONT   00    00000000000          00000000000000000000000000000000000000000000 000000000000000A000000000000000000000000000000000000000000000 000000000000000000000000000000000000000     00000000                                                                                                                        000000000000000000
F0010000005894700004000090035510100023658300000000000000000201406060002001GRAINGER COLOMBIA S.A.S.                          C000000000553500000000000000000000100010010000000000000000000000F0010000005894700420140606000101 00000000000000000000000000000000000000000000000000000000000000000000000000000000000000000000000000000000000000000N 00000000000NCONT   00    00000000000          00000000000000000000000000000000000000000000 000000000000000A000000000000000000000000000000000000000000000 000000000000000000000000000000000000000     00000000                                                                                                                        000000000000000000
F0010000005894700005000090035510100013552100000000000000000201406060002001GRAINGER COLOMBIA S.A.S.                          D000000000553500000000000000000000100010010000000000000000000000F0010000005894700520140606000101 00000000000000000000000000000000000000000000000000000000000000000000000000000000000000000000000000000000000000000N 00000000000NCONT   00    00000000000          00000000000000000000000000000000000000000000 000000000000000A000000000000000000000000000000000000000000000 000000000000000000000000000000000000000     00000000                                                                                                                        000000000000000000
F0010000005894800001000090012911500013050500000000000000000201406060002001UNIFORMES EDGAR DUARTE LTDA                       D000000008732000000000000000000000100010010000000000000000000000F0010000005894800120140606000101 00000000000000000000000000000000000000000000000000000000000000000000000000000000000000000000000000000000000000000N 00000000000NCONT   00    00000000000          00000000000000000000000000000000000000000000 000000000000000A000000000000000000000000000000000000000000000 000000000000000000000000000000000000000     00000000                                                                                                                        000000000000000000
F0010000005894800002000090012911500041450500000000000000000201406060002001UNIFORMES EDGAR DUARTE LTDA                       C000000008282000000000000000000000100010010000000000000000000000F0010000005894800220140606000101 00000000000000000000000000000000000000000000000000000000000000000000000000000000000000000000000000000000000000000N 00000000000NCONT   00    00000000000          00000000000000000000000000000000000000000000 000000000000000A000000000000000000000000000000000000000000000 000000000000000000000000000000000000000     00000000                                                                                                                        000000000000000000
F0010000005894800003000090012911500042505000000000000000000201406060002001UNIFORMES EDGAR DUARTE LTDA                       C000000000450000000000000000000000100010010000000000000000000000F0010000005894800320140606000101 00000000000000000000000000000000000000000000000000000000000000000000000000000000000000000000000000000000000000000N 00000000000NCONT   00    00000000000          00000000000000000000000000000000000000000000 000000000000000A000000000000000000000000000000000000000000000 000000000000000000000000000000000000000     00000000                                                                                                                        000000000000000000
F0010000005894800004000090012911500023658300000000000000000201406060002001UNIFORMES EDGAR DUARTE LTDA                       C000000000066300000000000000000000100010010000000000000000000000F0010000005894800420140606000101 00000000000000000000000000000000000000000000000000000000000000000000000000000000000000000000000000000000000000000N 00000000000NCONT   00    00000000000          00000000000000000000000000000000000000000000 000000000000000A000000000000000000000000000000000000000000000 000000000000000000000000000000000000000     00000000                                                                                                                        000000000000000000
F0010000005894800005000090012911500013552100000000000000000201406060002001UNIFORMES EDGAR DUARTE LTDA                       D000000000066300000000000000000000100010010000000000000000000000F0010000005894800520140606000101 00000000000000000000000000000000000000000000000000000000000000000000000000000000000000000000000000000000000000000N 00000000000NCONT   00    00000000000          00000000000000000000000000000000000000000000 000000000000000A000000000000000000000000000000000000000000000 000000000000000000000000000000000000000     00000000                                                                                                                        000000000000000000
F0010000005894900001000089010952800013050500000000000000000201406060002001IND. LITOGRAF. BOSTON S.A.S.                      D000000103460000000000000000000000100010010000000000000000000000F0010000005894900120140606000101 00000000000000000000000000000000000000000000000000000000000000000000000000000000000000000000000000000000000000000N 00000000000NCONT   00    00000000000          00000000000000000000000000000000000000000000 000000000000000A000000000000000000000000000000000000000000000 000000000000000000000000000000000000000     00000000                                                                                                                        000000000000000000
F0010000005894900002000089010952800041450500000000000000000201406060002001IND. LITOGRAF. BOSTON S.A.S.                      C000000085310000000000000000000000100010010000000000000000000000F0010000005894900220140606000101 00000000000000000000000000000000000000000000000000000000000000000000000000000000000000000000000000000000000000000N 00000000000NCONT   00    00000000000          00000000000000000000000000000000000000000000 000000000000000A000000000000000000000000000000000000000000000 000000000000000000000000000000000000000     00000000                                                                                                                        000000000000000000
F0010000005894900003000089010952800042505000000000000000000201406060002001IND. LITOGRAF. BOSTON S.A.S.                      C000000018150000000000000000000000100010010000000000000000000000F0010000005894900320140606000101 00000000000000000000000000000000000000000000000000000000000000000000000000000000000000000000000000000000000000000N 00000000000NCONT   00    00000000000          00000000000000000000000000000000000000000000 000000000000000A000000000000000000000000000000000000000000000 000000000000000000000000000000000000000     00000000                                                                                                                        000000000000000000
F0010000005894900004000089010952800023658300000000000000000201406060002001IND. LITOGRAF. BOSTON S.A.S.                      C000000000682500000000000000000000100010010000000000000000000000F0010000005894900420140606000101 00000000000000000000000000000000000000000000000000000000000000000000000000000000000000000000000000000000000000000N 00000000000NCONT   00    00000000000          00000000000000000000000000000000000000000000 000000000000000A000000000000000000000000000000000000000000000 000000000000000000000000000000000000000     00000000                                                                                                                        000000000000000000
F0010000005894900005000089010952800013552100000000000000000201406060002001IND. LITOGRAF. BOSTON S.A.S.                      D000000000682500000000000000000000100010010000000000000000000000F0010000005894900520140606000101 00000000000000000000000000000000000000000000000000000000000000000000000000000000000000000000000000000000000000000N 00000000000NCONT   00    00000000000          00000000000000000000000000000000000000000000 000000000000000A000000000000000000000000000000000000000000000 000000000000000000000000000000000000000     00000000                                                                                                                        000000000000000000
F0010000005895000001000000748006100011050500000000000000000201406060002001ROBERTO GARCIA                                    D000000000700000000000000000000000100010010000000000000000000000F0010000005895000120140606000101 00000000000000000000000000000000000000000000000000000000000000000000000000000000000000000000000000000000000000000N 00000000000NCONT   00    00000000000          00000000000000000000000000000000000000000000 000000000000000A000000000000000000000000000000000000000000000 000000000000000000000000000000000000000     00000000                                                                                                                        000000000000000000
F0010000005895000002000000748006100041450500000000000000000201406060002001ROBERTO GARCIA                                    C000000000600000000000000000000000100010010000000000000000000000F0010000005895000220140606000101 00000000000000000000000000000000000000000000000000000000000000000000000000000000000000000000000000000000000000000N 00000000000NCONT   00    00000000000          00000000000000000000000000000000000000000000 000000000000000A000000000000000000000000000000000000000000000 000000000000000000000000000000000000000     00000000                                                                                                                        000000000000000000
F0010000005895000003000000748006100042505000000000000000000201406060002001ROBERTO GARCIA                                    C000000000100000000000000000000000100010010000000000000000000000F0010000005895000320140606000101 00000000000000000000000000000000000000000000000000000000000000000000000000000000000000000000000000000000000000000N 00000000000NCONT   00    00000000000          00000000000000000000000000000000000000000000 000000000000000A000000000000000000000000000000000000000000000 000000000000000000000000000000000000000     00000000                                                                                                                        000000000000000000
F0010000005895000004000000748006100023658300000000000000000201406060002001ROBERTO GARCIA                                    C000000000004800000000000000000000100010010000000000000000000000F0010000005895000420140606000101 00000000000000000000000000000000000000000000000000000000000000000000000000000000000000000000000000000000000000000N 00000000000NCONT   00    00000000000          00000000000000000000000000000000000000000000 000000000000000A000000000000000000000000000000000000000000000 000000000000000000000000000000000000000     00000000                                                                                                                        000000000000000000
F0010000005895000005000000748006100013552100000000000000000201406060002001ROBERTO GARCIA                                    D000000000004800000000000000000000100010010000000000000000000000F0010000005895000520140606000101 00000000000000000000000000000000000000000000000000000000000000000000000000000000000000000000000000000000000000000N 00000000000NCONT   00    00000000000          00000000000000000000000000000000000000000000 000000000000000A000000000000000000000000000000000000000000000 000000000000000000000000000000000000000     00000000                                                                                                                        000000000000000000
F0010000005895100001000086000089600013050500000000000000000201406060002001SIKA COLOMBIA S.A.                                D000000070234600000000000000000000100010010000000000000000000000F0010000005895100120140606000101 00000000000000000000000000000000000000000000000000000000000000000000000000000000000000000000000000000000000000000N 00000000000NCONT   00    00000000000          00000000000000000000000000000000000000000000 000000000000000A000000000000000000000000000000000000000000000 000000000000000000000000000000000000000     00000000                                                                                                                        000000000000000000
F0010000005895100002000086000089600041450500000000000000000201406060002001SIKA COLOMBIA S.A.                                C000000059677100000000000000000000100010010000000000000000000000F0010000005895100220140606000101 00000000000000000000000000000000000000000000000000000000000000000000000000000000000000000000000000000000000000000N 00000000000NCONT   00    00000000000          00000000000000000000000000000000000000000000 000000000000000A000000000000000000000000000000000000000000000 000000000000000000000000000000000000000     00000000                                                                                                                        000000000000000000
F0010000005895100003000086000089600042505000000000000000000201406060002001SIKA COLOMBIA S.A.                                C000000010557500000000000000000000100010010000000000000000000000F0010000005895100320140606000101 00000000000000000000000000000000000000000000000000000000000000000000000000000000000000000000000000000000000000000N 00000000000NCONT   00    00000000000          00000000000000000000000000000000000000000000 000000000000000A000000000000000000000000000000000000000000000 000000000000000000000000000000000000000     00000000                                                                                                                        000000000000000000
F0010000005895100004000086000089600023658300000000000000000201406060002001SIKA COLOMBIA S.A.                                C000000000477400000000000000000000100010010000000000000000000000F0010000005895100420140606000101 00000000000000000000000000000000000000000000000000000000000000000000000000000000000000000000000000000000000000000N 00000000000NCONT   00    00000000000          00000000000000000000000000000000000000000000 000000000000000A000000000000000000000000000000000000000000000 000000000000000000000000000000000000000     00000000                                                                                                                        000000000000000000
F0010000005895100005000086000089600013552100000000000000000201406060002001SIKA COLOMBIA S.A.                                D000000000477400000000000000000000100010010000000000000000000000F0010000005895100520140606000101 00000000000000000000000000000000000000000000000000000000000000000000000000000000000000000000000000000000000000000N 00000000000NCONT   00    00000000000          00000000000000000000000000000000000000000000 000000000000000A000000000000000000000000000000000000000000000 000000000000000000000000000000000000000     00000000                                                                                                                        000000000000000000
F0010000005895200001000003900336900011050500000000000000000201406060002001LUISA FERNANDA BOLAñOS                           D000000008450000000000000000000000100010010000000000000000000000F0010000005895200120140606000101 00000000000000000000000000000000000000000000000000000000000000000000000000000000000000000000000000000000000000000N 00000000000NCONT   00    00000000000          00000000000000000000000000000000000000000000 000000000000000A000000000000000000000000000000000000000000000 000000000000000000000000000000000000000     00000000                                                                                                                        000000000000000000
F0010000005895200002000003900336900041450500000000000000000201406060002001LUISA FERNANDA BOLAñOS                           C000000007000000000000000000000000100010010000000000000000000000F0010000005895200220140606000101 00000000000000000000000000000000000000000000000000000000000000000000000000000000000000000000000000000000000000000N 00000000000NCONT   00    00000000000          00000000000000000000000000000000000000000000 000000000000000A000000000000000000000000000000000000000000000 000000000000000000000000000000000000000     00000000                                                                                                                        000000000000000000
F0010000005895200003000003900336900042505000000000000000000201406060002001LUISA FERNANDA BOLAñOS                           C000000001450000000000000000000000100010010000000000000000000000F0010000005895200320140606000101 00000000000000000000000000000000000000000000000000000000000000000000000000000000000000000000000000000000000000000N 00000000000NCONT   00    00000000000          00000000000000000000000000000000000000000000 000000000000000A000000000000000000000000000000000000000000000 000000000000000000000000000000000000000     00000000                                                                                                                        000000000000000000
F0010000005895200004000003900336900023658300000000000000000201406060002001LUISA FERNANDA BOLAñOS                           C000000000056000000000000000000000100010010000000000000000000000F0010000005895200420140606000101 00000000000000000000000000000000000000000000000000000000000000000000000000000000000000000000000000000000000000000N 00000000000NCONT   00    00000000000          00000000000000000000000000000000000000000000 000000000000000A000000000000000000000000000000000000000000000 000000000000000000000000000000000000000     00000000                                                                                                                        000000000000000000
F0010000005895200005000003900336900013552100000000000000000201406060002001LUISA FERNANDA BOLAñOS                           D000000000056000000000000000000000100010010000000000000000000000F0010000005895200520140606000101 00000000000000000000000000000000000000000000000000000000000000000000000000000000000000000000000000000000000000000N 00000000000NCONT   00    00000000000          00000000000000000000000000000000000000000000 000000000000000A000000000000000000000000000000000000000000000 000000000000000000000000000000000000000     00000000                                                                                                                        000000000000000000
F0010000005895300001000086000089600013050500000000000000000201406060002001SIKA COLOMBIA S.A.                                D000000066055700000000000000000000100010010000000000000000000000F0010000005895300120140606000101 00000000000000000000000000000000000000000000000000000000000000000000000000000000000000000000000000000000000000000N 00000000000NCONT   00    00000000000          00000000000000000000000000000000000000000000 000000000000000A000000000000000000000000000000000000000000000 000000000000000000000000000000000000000     00000000                                                                                                                        000000000000000000
F0010000005895300002000086000089600041450500000000000000000201406060002001SIKA COLOMBIA S.A.                                C000000065600000000000000000000000100010010000000000000000000000F0010000005895300220140606000101 00000000000000000000000000000000000000000000000000000000000000000000000000000000000000000000000000000000000000000N 00000000000NCONT   00    00000000000          00000000000000000000000000000000000000000000 000000000000000A000000000000000000000000000000000000000000000 000000000000000000000000000000000000000     00000000                                                                                                                        000000000000000000
F0010000005895300003000086000089600042505000000000000000000201406060002001SIKA COLOMBIA S.A.                                C000000000455700000000000000000000100010010000000000000000000000F0010000005895300320140606000101 00000000000000000000000000000000000000000000000000000000000000000000000000000000000000000000000000000000000000000N 00000000000NCONT   00    00000000000          00000000000000000000000000000000000000000000 000000000000000A000000000000000000000000000000000000000000000 000000000000000000000000000000000000000     00000000                                                                                                                        000000000000000000
F0010000005895300004000086000089600023658300000000000000000201406060002001SIKA COLOMBIA S.A.                                C000000000524800000000000000000000100010010000000000000000000000F0010000005895300420140606000101 00000000000000000000000000000000000000000000000000000000000000000000000000000000000000000000000000000000000000000N 00000000000NCONT   00    00000000000          00000000000000000000000000000000000000000000 000000000000000A000000000000000000000000000000000000000000000 000000000000000000000000000000000000000     00000000                                                                                                                        000000000000000000
F0010000005895300005000086000089600013552100000000000000000201406060002001SIKA COLOMBIA S.A.                                D000000000524800000000000000000000100010010000000000000000000000F0010000005895300520140606000101 00000000000000000000000000000000000000000000000000000000000000000000000000000000000000000000000000000000000000000N 00000000000NCONT   00    00000000000          00000000000000000000000000000000000000000000 000000000000000A000000000000000000000000000000000000000000000 000000000000000000000000000000000000000     00000000                                                                                                                        000000000000000000
F0010000005895400001000086000089600013050500000000000000000201406060002001SIKA COLOMBIA S.A.                                D000000014738500000000000000000000100010010000000000000000000000F0010000005895400120140606000101 00000000000000000000000000000000000000000000000000000000000000000000000000000000000000000000000000000000000000000N 00000000000NCONT   00    00000000000          00000000000000000000000000000000000000000000 000000000000000A000000000000000000000000000000000000000000000 000000000000000000000000000000000000000     00000000                                                                                                                        000000000000000000
F0010000005895400002000086000089600041450500000000000000000201406060002001SIKA COLOMBIA S.A.                                C000000014400000000000000000000000100010010000000000000000000000F0010000005895400220140606000101 00000000000000000000000000000000000000000000000000000000000000000000000000000000000000000000000000000000000000000N 00000000000NCONT   00    00000000000          00000000000000000000000000000000000000000000 000000000000000A000000000000000000000000000000000000000000000 000000000000000000000000000000000000000     00000000                                                                                                                        000000000000000000
F0010000005895400003000086000089600042505000000000000000000201406060002001SIKA COLOMBIA S.A.                                C000000000338500000000000000000000100010010000000000000000000000F0010000005895400320140606000101 00000000000000000000000000000000000000000000000000000000000000000000000000000000000000000000000000000000000000000N 00000000000NCONT   00    00000000000          00000000000000000000000000000000000000000000 000000000000000A000000000000000000000000000000000000000000000 000000000000000000000000000000000000000     00000000                                                                                                                        000000000000000000
F0010000005895400004000086000089600023658300000000000000000201406060002001SIKA COLOMBIA S.A.                                C000000000115200000000000000000000100010010000000000000000000000F0010000005895400420140606000101 00000000000000000000000000000000000000000000000000000000000000000000000000000000000000000000000000000000000000000N 00000000000NCONT   00    00000000000          00000000000000000000000000000000000000000000 000000000000000A000000000000000000000000000000000000000000000 000000000000000000000000000000000000000     00000000                                                                                                                        000000000000000000
F0010000005895400005000086000089600013552100000000000000000201406060002001SIKA COLOMBIA S.A.                                D000000000115200000000000000000000100010010000000000000000000000F0010000005895400520140606000101 00000000000000000000000000000000000000000000000000000000000000000000000000000000000000000000000000000000000000000N 00000000000NCONT   00    00000000000          00000000000000000000000000000000000000000000 000000000000000A000000000000000000000000000000000000000000000 000000000000000000000000000000000000000     00000000                                                                                                                        000000000000000000
F0010000005895500001000086000089600013050500000000000000000201406060002001SIKA COLOMBIA S.A.                                D000000020684000000000000000000000100010010000000000000000000000F0010000005895500120140606000101 00000000000000000000000000000000000000000000000000000000000000000000000000000000000000000000000000000000000000000N 00000000000NCONT   00    00000000000          00000000000000000000000000000000000000000000 000000000000000A000000000000000000000000000000000000000000000 000000000000000000000000000000000000000     00000000                                                                                                                        000000000000000000
F0010000005895500002000086000089600041450500000000000000000201406060002001SIKA COLOMBIA S.A.                                C000000020311200000000000000000000100010010000000000000000000000F0010000005895500220140606000101 00000000000000000000000000000000000000000000000000000000000000000000000000000000000000000000000000000000000000000N 00000000000NCONT   00    00000000000          00000000000000000000000000000000000000000000 000000000000000A000000000000000000000000000000000000000000000 000000000000000000000000000000000000000     00000000                                                                                                                        000000000000000000
F0010000005895500003000086000089600042505000000000000000000201406060002001SIKA COLOMBIA S.A.                                C000000000372800000000000000000000100010010000000000000000000000F0010000005895500320140606000101 00000000000000000000000000000000000000000000000000000000000000000000000000000000000000000000000000000000000000000N 00000000000NCONT   00    00000000000          00000000000000000000000000000000000000000000 000000000000000A000000000000000000000000000000000000000000000 000000000000000000000000000000000000000     00000000                                                                                                                        000000000000000000
F0010000005895500004000086000089600023658300000000000000000201406060002001SIKA COLOMBIA S.A.                                C000000000162500000000000000000000100010010000000000000000000000F0010000005895500420140606000101 00000000000000000000000000000000000000000000000000000000000000000000000000000000000000000000000000000000000000000N 00000000000NCONT   00    00000000000          00000000000000000000000000000000000000000000 000000000000000A000000000000000000000000000000000000000000000 000000000000000000000000000000000000000     00000000                                                                                                                        000000000000000000
F0010000005895500005000086000089600013552100000000000000000201406060002001SIKA COLOMBIA S.A.                                D000000000162500000000000000000000100010010000000000000000000000F0010000005895500520140606000101 00000000000000000000000000000000000000000000000000000000000000000000000000000000000000000000000000000000000000000N 00000000000NCONT   00    00000000000          00000000000000000000000000000000000000000000 000000000000000A000000000000000000000000000000000000000000000 000000000000000000000000000000000000000     00000000                                                                                                                        000000000000000000
F0010000005895600001000001502923600011050500000000000000000201406060002001ALCIDES MARTINEZ                                  D000000001700000000000000000000000100010010000000000000000000000F0010000005895600120140606000101 00000000000000000000000000000000000000000000000000000000000000000000000000000000000000000000000000000000000000000N 00000000000NCONT   00    00000000000          00000000000000000000000000000000000000000000 000000000000000A000000000000000000000000000000000000000000000 000000000000000000000000000000000000000     00000000                                                                                                                        000000000000000000
F0010000005895600002000001502923600041450500000000000000000201406060002001ALCIDES MARTINEZ                                  C000000001200000000000000000000000100010010000000000000000000000F0010000005895600220140606000101 00000000000000000000000000000000000000000000000000000000000000000000000000000000000000000000000000000000000000000N 00000000000NCONT   00    00000000000          00000000000000000000000000000000000000000000 000000000000000A000000000000000000000000000000000000000000000 000000000000000000000000000000000000000     00000000                                                                                                                        000000000000000000
F0010000005895600003000001502923600042505000000000000000000201406060002001ALCIDES MARTINEZ                                  C000000000500000000000000000000000100010010000000000000000000000F0010000005895600320140606000101 00000000000000000000000000000000000000000000000000000000000000000000000000000000000000000000000000000000000000000N 00000000000NCONT   00    00000000000          00000000000000000000000000000000000000000000 000000000000000A000000000000000000000000000000000000000000000 000000000000000000000000000000000000000     00000000                                                                                                                        000000000000000000
F0010000005895600004000001502923600023658300000000000000000201406060002001ALCIDES MARTINEZ                                  C000000000009600000000000000000000100010010000000000000000000000F0010000005895600420140606000101 00000000000000000000000000000000000000000000000000000000000000000000000000000000000000000000000000000000000000000N 00000000000NCONT   00    00000000000          00000000000000000000000000000000000000000000 000000000000000A000000000000000000000000000000000000000000000 000000000000000000000000000000000000000     00000000                                                                                                                        000000000000000000
F0010000005895600005000001502923600013552100000000000000000201406060002001ALCIDES MARTINEZ                                  D000000000009600000000000000000000100010010000000000000000000000F0010000005895600520140606000101 00000000000000000000000000000000000000000000000000000000000000000000000000000000000000000000000000000000000000000N 00000000000NCONT   00    00000000000          00000000000000000000000000000000000000000000 000000000000000A000000000000000000000000000000000000000000000 000000000000000000000000000000000000000     00000000                                                                                                                        000000000000000000
F0010000005895700001000090015305700011050500000000000000000201406060002001PLASTICOS Y SERVICIOS BARRANQUILLA EU             D000000006000000000000000000000000100010010000000000000000000000F0010000005895700120140606000101 00000000000000000000000000000000000000000000000000000000000000000000000000000000000000000000000000000000000000000N 00000000000NCONT   00    00000000000          00000000000000000000000000000000000000000000 000000000000000A000000000000000000000000000000000000000000000 000000000000000000000000000000000000000     00000000                                                                                                                        000000000000000000
F0010000005895700002000090015305700041450500000000000000000201406060002001PLASTICOS Y SERVICIOS BARRANQUILLA EU             C000000005000000000000000000000000100010010000000000000000000000F0010000005895700220140606000101 00000000000000000000000000000000000000000000000000000000000000000000000000000000000000000000000000000000000000000N 00000000000NCONT   00    00000000000          00000000000000000000000000000000000000000000 000000000000000A000000000000000000000000000000000000000000000 000000000000000000000000000000000000000     00000000                                                                                                                        000000000000000000
F0010000005895700003000090015305700042505000000000000000000201406060002001PLASTICOS Y SERVICIOS BARRANQUILLA EU             C000000001000000000000000000000000100010010000000000000000000000F0010000005895700320140606000101 00000000000000000000000000000000000000000000000000000000000000000000000000000000000000000000000000000000000000000N 00000000000NCONT   00    00000000000          00000000000000000000000000000000000000000000 000000000000000A000000000000000000000000000000000000000000000 000000000000000000000000000000000000000     00000000                                                                                                                        000000000000000000
F0010000005895700004000090015305700023658300000000000000000201406060002001PLASTICOS Y SERVICIOS BARRANQUILLA EU             C000000000040000000000000000000000100010010000000000000000000000F0010000005895700420140606000101 00000000000000000000000000000000000000000000000000000000000000000000000000000000000000000000000000000000000000000N 00000000000NCONT   00    00000000000          00000000000000000000000000000000000000000000 000000000000000A000000000000000000000000000000000000000000000 000000000000000000000000000000000000000     00000000                                                                                                                        000000000000000000
F0010000005895700005000090015305700013552100000000000000000201406060002001PLASTICOS Y SERVICIOS BARRANQUILLA EU             D000000000040000000000000000000000100010010000000000000000000000F0010000005895700520140606000101 00000000000000000000000000000000000000000000000000000000000000000000000000000000000000000000000000000000000000000N 00000000000NCONT   00    00000000000          00000000000000000000000000000000000000000000 000000000000000A000000000000000000000000000000000000000000000 000000000000000000000000000000000000000     00000000                                                                                                                        000000000000000000
F0010000005895800001000090050144800011050500000000000000000201406060002001PLASTICOS JR ASOCIADOS SAS                        D000000006000000000000000000000000100010010000000000000000000000F0010000005895800120140606000101 00000000000000000000000000000000000000000000000000000000000000000000000000000000000000000000000000000000000000000N 00000000000NCONT   00    00000000000          00000000000000000000000000000000000000000000 000000000000000A000000000000000000000000000000000000000000000 000000000000000000000000000000000000000     00000000                                                                                                                        000000000000000000
F0010000005895800002000090050144800041450500000000000000000201406060002001PLASTICOS JR ASOCIADOS SAS                        C000000005100000000000000000000000100010010000000000000000000000F0010000005895800220140606000101 00000000000000000000000000000000000000000000000000000000000000000000000000000000000000000000000000000000000000000N 00000000000NCONT   00    00000000000          00000000000000000000000000000000000000000000 000000000000000A000000000000000000000000000000000000000000000 000000000000000000000000000000000000000     00000000                                                                                                                        000000000000000000
F0010000005895800003000090050144800042505000000000000000000201406060002001PLASTICOS JR ASOCIADOS SAS                        C000000000900000000000000000000000100010010000000000000000000000F0010000005895800320140606000101 00000000000000000000000000000000000000000000000000000000000000000000000000000000000000000000000000000000000000000N 00000000000NCONT   00    00000000000          00000000000000000000000000000000000000000000 000000000000000A000000000000000000000000000000000000000000000 000000000000000000000000000000000000000     00000000                                                                                                                        000000000000000000
F0010000005895800004000090050144800023658300000000000000000201406060002001PLASTICOS JR ASOCIADOS SAS                        C000000000040800000000000000000000100010010000000000000000000000F0010000005895800420140606000101 00000000000000000000000000000000000000000000000000000000000000000000000000000000000000000000000000000000000000000N 00000000000NCONT   00    00000000000          00000000000000000000000000000000000000000000 000000000000000A000000000000000000000000000000000000000000000 000000000000000000000000000000000000000     00000000                                                                                                                        000000000000000000
F0010000005895800005000090050144800013552100000000000000000201406060002001PLASTICOS JR ASOCIADOS SAS                        D000000000040800000000000000000000100010010000000000000000000000F0010000005895800520140606000101 00000000000000000000000000000000000000000000000000000000000000000000000000000000000000000000000000000000000000000N 00000000000NCONT   00    00000000000          00000000000000000000000000000000000000000000 000000000000000A000000000000000000000000000000000000000000000 000000000000000000000000000000000000000     00000000                                                                                                                        000000000000000000
F0010000005895900001000000872671800011050500000000000000000201406060002001RUBEN ARENAS PARRA                                D000000002800000000000000000000000100010010000000000000000000000F0010000005895900120140606000101 00000000000000000000000000000000000000000000000000000000000000000000000000000000000000000000000000000000000000000N 00000000000NCONT   00    00000000000          00000000000000000000000000000000000000000000 000000000000000A000000000000000000000000000000000000000000000 000000000000000000000000000000000000000     00000000                                                                                                                        000000000000000000
F0010000005895900002000000872671800041450500000000000000000201406060002001RUBEN ARENAS PARRA                                C000000002000000000000000000000000100010010000000000000000000000F0010000005895900220140606000101 00000000000000000000000000000000000000000000000000000000000000000000000000000000000000000000000000000000000000000N 00000000000NCONT   00    00000000000          00000000000000000000000000000000000000000000 000000000000000A000000000000000000000000000000000000000000000 000000000000000000000000000000000000000     00000000                                                                                                                        000000000000000000
F0010000005895900003000000872671800042505000000000000000000201406060002001RUBEN ARENAS PARRA                                C000000000800000000000000000000000100010010000000000000000000000F0010000005895900320140606000101 00000000000000000000000000000000000000000000000000000000000000000000000000000000000000000000000000000000000000000N 00000000000NCONT   00    00000000000          00000000000000000000000000000000000000000000 000000000000000A000000000000000000000000000000000000000000000 000000000000000000000000000000000000000     00000000                                                                                                                        000000000000000000
F0010000005895900004000000872671800023658300000000000000000201406060002001RUBEN ARENAS PARRA                                C000000000016000000000000000000000100010010000000000000000000000F0010000005895900420140606000101 00000000000000000000000000000000000000000000000000000000000000000000000000000000000000000000000000000000000000000N 00000000000NCONT   00    00000000000          00000000000000000000000000000000000000000000 000000000000000A000000000000000000000000000000000000000000000 000000000000000000000000000000000000000     00000000                                                                                                                        000000000000000000
F0010000005895900005000000872671800013552100000000000000000201406060002001RUBEN ARENAS PARRA                                D000000000016000000000000000000000100010010000000000000000000000F0010000005895900520140606000101 00000000000000000000000000000000000000000000000000000000000000000000000000000000000000000000000000000000000000000N 00000000000NCONT   00    00000000000          00000000000000000000000000000000000000000000 000000000000000A000000000000000000000000000000000000000000000 000000000000000000000000000000000000000     00000000                                                                                                                        000000000000000000
F0010000005896000001000000872671800011050500000000000000000201406060002001RUBEN ARENAS PARRA                                D000000002500000000000000000000000100010010000000000000000000000F0010000005896000120140606000101 00000000000000000000000000000000000000000000000000000000000000000000000000000000000000000000000000000000000000000N 00000000000NCONT   00    00000000000          00000000000000000000000000000000000000000000 000000000000000A000000000000000000000000000000000000000000000 000000000000000000000000000000000000000     00000000                                                                                                                        000000000000000000
F0010000005896000002000000872671800041450500000000000000000201406060002001RUBEN ARENAS PARRA                                C000000002000000000000000000000000100010010000000000000000000000F0010000005896000220140606000101 00000000000000000000000000000000000000000000000000000000000000000000000000000000000000000000000000000000000000000N 00000000000NCONT   00    00000000000          00000000000000000000000000000000000000000000 000000000000000A000000000000000000000000000000000000000000000 000000000000000000000000000000000000000     00000000                                                                                                                        000000000000000000
F0010000005896000003000000872671800042505000000000000000000201406060002001RUBEN ARENAS PARRA                                C000000000500000000000000000000000100010010000000000000000000000F0010000005896000320140606000101 00000000000000000000000000000000000000000000000000000000000000000000000000000000000000000000000000000000000000000N 00000000000NCONT   00    00000000000          00000000000000000000000000000000000000000000 000000000000000A000000000000000000000000000000000000000000000 000000000000000000000000000000000000000     00000000                                                                                                                        000000000000000000
F0010000005896000004000000872671800023658300000000000000000201406060002001RUBEN ARENAS PARRA                                C000000000016000000000000000000000100010010000000000000000000000F0010000005896000420140606000101 00000000000000000000000000000000000000000000000000000000000000000000000000000000000000000000000000000000000000000N 00000000000NCONT   00    00000000000          00000000000000000000000000000000000000000000 000000000000000A000000000000000000000000000000000000000000000 000000000000000000000000000000000000000     00000000                                                                                                                        000000000000000000
F0010000005896000005000000872671800013552100000000000000000201406060002001RUBEN ARENAS PARRA                                D000000000016000000000000000000000100010010000000000000000000000F0010000005896000520140606000101 00000000000000000000000000000000000000000000000000000000000000000000000000000000000000000000000000000000000000000N 00000000000NCONT   00    00000000000          00000000000000000000000000000000000000000000 000000000000000A000000000000000000000000000000000000000000000 000000000000000000000000000000000000000     00000000                                                                                                                        000000000000000000
F0010000005896100001000090050144800011050500000000000000000201406060002001PLASTICOS JR ASOCIADOS SAS                        D000000007500000000000000000000000100010010000000000000000000000F0010000005896100120140606000101 00000000000000000000000000000000000000000000000000000000000000000000000000000000000000000000000000000000000000000N 00000000000NCONT   00    00000000000          00000000000000000000000000000000000000000000 000000000000000A000000000000000000000000000000000000000000000 000000000000000000000000000000000000000     00000000                                                                                                                        000000000000000000
F0010000005896100002000090050144800041450500000000000000000201406060002001PLASTICOS JR ASOCIADOS SAS                        C000000006800000000000000000000000100010010000000000000000000000F0010000005896100220140606000101 00000000000000000000000000000000000000000000000000000000000000000000000000000000000000000000000000000000000000000N 00000000000NCONT   00    00000000000          00000000000000000000000000000000000000000000 000000000000000A000000000000000000000000000000000000000000000 000000000000000000000000000000000000000     00000000                                                                                                                        000000000000000000
F0010000005896100003000090050144800042505000000000000000000201406060002001PLASTICOS JR ASOCIADOS SAS                        C000000000700000000000000000000000100010010000000000000000000000F0010000005896100320140606000101 00000000000000000000000000000000000000000000000000000000000000000000000000000000000000000000000000000000000000000N 00000000000NCONT   00    00000000000          00000000000000000000000000000000000000000000 000000000000000A000000000000000000000000000000000000000000000 000000000000000000000000000000000000000     00000000                                                                                                                        000000000000000000
F0010000005896100004000090050144800023658300000000000000000201406060002001PLASTICOS JR ASOCIADOS SAS                        C000000000054400000000000000000000100010010000000000000000000000F0010000005896100420140606000101 00000000000000000000000000000000000000000000000000000000000000000000000000000000000000000000000000000000000000000N 00000000000NCONT   00    00000000000          00000000000000000000000000000000000000000000 000000000000000A000000000000000000000000000000000000000000000 000000000000000000000000000000000000000     00000000                                                                                                                        000000000000000000
F0010000005896100005000090050144800013552100000000000000000201406060002001PLASTICOS JR ASOCIADOS SAS                        D000000000054400000000000000000000100010010000000000000000000000F0010000005896100520140606000101 00000000000000000000000000000000000000000000000000000000000000000000000000000000000000000000000000000000000000000N 00000000000NCONT   00    00000000000          00000000000000000000000000000000000000000000 000000000000000A000000000000000000000000000000000000000000000 000000000000000000000000000000000000000     00000000                                                                                                                        000000000000000000
F0010000005896200001000000872671800011050500000000000000000201406060002001RUBEN ARENAS PARRA                                D000000006000000000000000000000000100010010000000000000000000000F0010000005896200120140606000101 00000000000000000000000000000000000000000000000000000000000000000000000000000000000000000000000000000000000000000N 00000000000NCONT   00    00000000000          00000000000000000000000000000000000000000000 000000000000000A000000000000000000000000000000000000000000000 000000000000000000000000000000000000000     00000000                                                                                                                        000000000000000000
F0010000005896200002000000872671800041450500000000000000000201406060002001RUBEN ARENAS PARRA                                C000000004000000000000000000000000100010010000000000000000000000F0010000005896200220140606000101 00000000000000000000000000000000000000000000000000000000000000000000000000000000000000000000000000000000000000000N 00000000000NCONT   00    00000000000          00000000000000000000000000000000000000000000 000000000000000A000000000000000000000000000000000000000000000 000000000000000000000000000000000000000     00000000                                                                                                                        000000000000000000
F0010000005896200003000000872671800042505000000000000000000201406060002001RUBEN ARENAS PARRA                                C000000002000000000000000000000000100010010000000000000000000000F0010000005896200320140606000101 00000000000000000000000000000000000000000000000000000000000000000000000000000000000000000000000000000000000000000N 00000000000NCONT   00    00000000000          00000000000000000000000000000000000000000000 000000000000000A000000000000000000000000000000000000000000000 000000000000000000000000000000000000000     00000000                                                                                                                        000000000000000000
F0010000005896200004000000872671800023658300000000000000000201406060002001RUBEN ARENAS PARRA                                C000000000032000000000000000000000100010010000000000000000000000F0010000005896200420140606000101 00000000000000000000000000000000000000000000000000000000000000000000000000000000000000000000000000000000000000000N 00000000000NCONT   00    00000000000          00000000000000000000000000000000000000000000 000000000000000A000000000000000000000000000000000000000000000 000000000000000000000000000000000000000     00000000                                                                                                                        000000000000000000
F0010000005896200005000000872671800013552100000000000000000201406060002001RUBEN ARENAS PARRA                                D000000000032000000000000000000000100010010000000000000000000000F0010000005896200520140606000101 00000000000000000000000000000000000000000000000000000000000000000000000000000000000000000000000000000000000000000N 00000000000NCONT   00    00000000000          00000000000000000000000000000000000000000000 000000000000000A000000000000000000000000000000000000000000000 000000000000000000000000000000000000000     00000000                                                                                                                        000000000000000000
F0010000005896300001000004544401900011050500000000000000000201406060002001FISIOTER                                          D000000002000000000000000000000000100010010000000000000000000000F0010000005896300120140606000101 00000000000000000000000000000000000000000000000000000000000000000000000000000000000000000000000000000000000000000N 00000000000NCONT   00    00000000000          00000000000000000000000000000000000000000000 000000000000000A000000000000000000000000000000000000000000000 000000000000000000000000000000000000000     00000000                                                                                                                        000000000000000000
F0010000005896300002000004544401900041450500000000000000000201406060002001FISIOTER                                          C000000001800000000000000000000000100010010000000000000000000000F0010000005896300220140606000101 00000000000000000000000000000000000000000000000000000000000000000000000000000000000000000000000000000000000000000N 00000000000NCONT   00    00000000000          00000000000000000000000000000000000000000000 000000000000000A000000000000000000000000000000000000000000000 000000000000000000000000000000000000000     00000000                                                                                                                        000000000000000000
F0010000005896300003000004544401900042505000000000000000000201406060002001FISIOTER                                          C000000000200000000000000000000000100010010000000000000000000000F0010000005896300320140606000101 00000000000000000000000000000000000000000000000000000000000000000000000000000000000000000000000000000000000000000N 00000000000NCONT   00    00000000000          00000000000000000000000000000000000000000000 000000000000000A000000000000000000000000000000000000000000000 000000000000000000000000000000000000000     00000000                                                                                                                        000000000000000000
F0010000005896300004000004544401900023658300000000000000000201406060002001FISIOTER                                          C000000000014400000000000000000000100010010000000000000000000000F0010000005896300420140606000101 00000000000000000000000000000000000000000000000000000000000000000000000000000000000000000000000000000000000000000N 00000000000NCONT   00    00000000000          00000000000000000000000000000000000000000000 000000000000000A000000000000000000000000000000000000000000000 000000000000000000000000000000000000000     00000000                                                                                                                        000000000000000000
F0010000005896300005000004544401900013552100000000000000000201406060002001FISIOTER                                          D000000000014400000000000000000000100010010000000000000000000000F0010000005896300520140606000101 00000000000000000000000000000000000000000000000000000000000000000000000000000000000000000000000000000000000000000N 00000000000NCONT   00    00000000000          00000000000000000000000000000000000000000000 000000000000000A000000000000000000000000000000000000000000000 000000000000000000000000000000000000000     00000000                                                                                                                        000000000000000000
F0010000005896400001000000870907300011050500000000000000000201406060002001SURTIDOR FERRETERO                                D000000002800000000000000000000000100010010000000000000000000000F0010000005896400120140606000101 00000000000000000000000000000000000000000000000000000000000000000000000000000000000000000000000000000000000000000N 00000000000NCONT   00    00000000000          00000000000000000000000000000000000000000000 000000000000000A000000000000000000000000000000000000000000000 000000000000000000000000000000000000000     00000000                                                                                                                        000000000000000000
F0010000005896400002000000870907300041450500000000000000000201406060002001SURTIDOR FERRETERO                                C000000001500000000000000000000000100010010000000000000000000000F0010000005896400220140606000101 00000000000000000000000000000000000000000000000000000000000000000000000000000000000000000000000000000000000000000N 00000000000NCONT   00    00000000000          00000000000000000000000000000000000000000000 000000000000000A000000000000000000000000000000000000000000000 000000000000000000000000000000000000000     00000000                                                                                                                        000000000000000000
F0010000005896400003000000870907300042505000000000000000000201406060002001SURTIDOR FERRETERO                                C000000001300000000000000000000000100010010000000000000000000000F0010000005896400320140606000101 00000000000000000000000000000000000000000000000000000000000000000000000000000000000000000000000000000000000000000N 00000000000NCONT   00    00000000000          00000000000000000000000000000000000000000000 000000000000000A000000000000000000000000000000000000000000000 000000000000000000000000000000000000000     00000000                                                                                                                        000000000000000000
F0010000005896400004000000870907300023658300000000000000000201406060002001SURTIDOR FERRETERO                                C000000000012000000000000000000000100010010000000000000000000000F0010000005896400420140606000101 00000000000000000000000000000000000000000000000000000000000000000000000000000000000000000000000000000000000000000N 00000000000NCONT   00    00000000000          00000000000000000000000000000000000000000000 000000000000000A000000000000000000000000000000000000000000000 000000000000000000000000000000000000000     00000000                                                                                                                        000000000000000000
F0010000005896400005000000870907300013552100000000000000000201406060002001SURTIDOR FERRETERO                                D000000000012000000000000000000000100010010000000000000000000000F0010000005896400520140606000101 00000000000000000000000000000000000000000000000000000000000000000000000000000000000000000000000000000000000000000N 00000000000NCONT   00    00000000000          00000000000000000000000000000000000000000000 000000000000000A000000000000000000000000000000000000000000000 000000000000000000000000000000000000000     00000000                                                                                                                        000000000000000000
F0010000005896500001000001022529300011050500000000000000000201406060002001ALBERTO ALVAREZ ISAZA                             D000000000400000000000000000000000100010010000000000000000000000F0010000005896500120140606000101 00000000000000000000000000000000000000000000000000000000000000000000000000000000000000000000000000000000000000000N 00000000000NCONT   00    00000000000          00000000000000000000000000000000000000000000 000000000000000A000000000000000000000000000000000000000000000 000000000000000000000000000000000000000     00000000                                                                                                                        000000000000000000
F0010000005896500002000001022529300041450500000000000000000201406060002001ALBERTO ALVAREZ ISAZA                             C000000000350000000000000000000000100010010000000000000000000000F0010000005896500220140606000101 00000000000000000000000000000000000000000000000000000000000000000000000000000000000000000000000000000000000000000N 00000000000NCONT   00    00000000000          00000000000000000000000000000000000000000000 000000000000000A000000000000000000000000000000000000000000000 000000000000000000000000000000000000000     00000000                                                                                                                        000000000000000000
F0010000005896500003000001022529300042505000000000000000000201406060002001ALBERTO ALVAREZ ISAZA                             C000000000050000000000000000000000100010010000000000000000000000F0010000005896500320140606000101 00000000000000000000000000000000000000000000000000000000000000000000000000000000000000000000000000000000000000000N 00000000000NCONT   00    00000000000          00000000000000000000000000000000000000000000 000000000000000A000000000000000000000000000000000000000000000 000000000000000000000000000000000000000     00000000                                                                                                                        000000000000000000
F0010000005896500004000001022529300023658300000000000000000201406060002001ALBERTO ALVAREZ ISAZA                             C000000000002800000000000000000000100010010000000000000000000000F0010000005896500420140606000101 00000000000000000000000000000000000000000000000000000000000000000000000000000000000000000000000000000000000000000N 00000000000NCONT   00    00000000000          00000000000000000000000000000000000000000000 000000000000000A000000000000000000000000000000000000000000000 000000000000000000000000000000000000000     00000000                                                                                                                        000000000000000000
F0010000005896500005000001022529300013552100000000000000000201406060002001ALBERTO ALVAREZ ISAZA                             D000000000002800000000000000000000100010010000000000000000000000F0010000005896500520140606000101 00000000000000000000000000000000000000000000000000000000000000000000000000000000000000000000000000000000000000000N 00000000000NCONT   00    00000000000          00000000000000000000000000000000000000000000 000000000000000A000000000000000000000000000000000000000000000 000000000000000000000000000000000000000     00000000                                                                                                                        000000000000000000
F0010000005896600001000086003979400011050500000000000000000201406060002001CALYPSO BARRANQUILLA LTDA                         D000000040000000000000000000000000100010010000000000000000000000F0010000005896600120140606000101 00000000000000000000000000000000000000000000000000000000000000000000000000000000000000000000000000000000000000000N 00000000000NCONT   00    00000000000          00000000000000000000000000000000000000000000 000000000000000A000000000000000000000000000000000000000000000 000000000000000000000000000000000000000     00000000                                                                                                                        000000000000000000
F0010000005896600002000086003979400041450500000000000000000201406060002001CALYPSO BARRANQUILLA LTDA                         C000000037200000000000000000000000100010010000000000000000000000F0010000005896600220140606000101 00000000000000000000000000000000000000000000000000000000000000000000000000000000000000000000000000000000000000000N 00000000000NCONT   00    00000000000          00000000000000000000000000000000000000000000 000000000000000A000000000000000000000000000000000000000000000 000000000000000000000000000000000000000     00000000                                                                                                                        000000000000000000
F0010000005896600003000086003979400042505000000000000000000201406060002001CALYPSO BARRANQUILLA LTDA                         C000000002800000000000000000000000100010010000000000000000000000F0010000005896600320140606000101 00000000000000000000000000000000000000000000000000000000000000000000000000000000000000000000000000000000000000000N 00000000000NCONT   00    00000000000          00000000000000000000000000000000000000000000 000000000000000A000000000000000000000000000000000000000000000 000000000000000000000000000000000000000     00000000                                                                                                                        000000000000000000
F0010000005896600004000086003979400023658300000000000000000201406060002001CALYPSO BARRANQUILLA LTDA                         C000000000297600000000000000000000100010010000000000000000000000F0010000005896600420140606000101 00000000000000000000000000000000000000000000000000000000000000000000000000000000000000000000000000000000000000000N 00000000000NCONT   00    00000000000          00000000000000000000000000000000000000000000 000000000000000A000000000000000000000000000000000000000000000 000000000000000000000000000000000000000     00000000                                                                                                                        000000000000000000
F0010000005896600005000086003979400013552100000000000000000201406060002001CALYPSO BARRANQUILLA LTDA                         D000000000297600000000000000000000100010010000000000000000000000F0010000005896600520140606000101 00000000000000000000000000000000000000000000000000000000000000000000000000000000000000000000000000000000000000000N 00000000000NCONT   00    00000000000          00000000000000000000000000000000000000000000 000000000000000A000000000000000000000000000000000000000000000 000000000000000000000000000000000000000     00000000                                                                                                                        000000000000000000
F0010000005896700001000005525050200011050500000000000000000201406060002001PLASTICOS  DE LA COSTA                            D000000002652000000000000000000000100010010000000000000000000000F0010000005896700120140606000101 00000000000000000000000000000000000000000000000000000000000000000000000000000000000000000000000000000000000000000N 00000000000NCONT   00    00000000000          00000000000000000000000000000000000000000000 000000000000000A000000000000000000000000000000000000000000000 000000000000000000000000000000000000000     00000000                                                                                                                        000000000000000000
F0010000005896700002000005525050200041450500000000000000000201406060002001PLASTICOS  DE LA COSTA                            C000000002552000000000000000000000100010010000000000000000000000F0010000005896700220140606000101 00000000000000000000000000000000000000000000000000000000000000000000000000000000000000000000000000000000000000000N 00000000000NCONT   00    00000000000          00000000000000000000000000000000000000000000 000000000000000A000000000000000000000000000000000000000000000 000000000000000000000000000000000000000     00000000                                                                                                                        000000000000000000
F0010000005896700003000005525050200042505000000000000000000201406060002001PLASTICOS  DE LA COSTA                            C000000000100000000000000000000000100010010000000000000000000000F0010000005896700320140606000101 00000000000000000000000000000000000000000000000000000000000000000000000000000000000000000000000000000000000000000N 00000000000NCONT   00    00000000000          00000000000000000000000000000000000000000000 000000000000000A000000000000000000000000000000000000000000000 000000000000000000000000000000000000000     00000000                                                                                                                        000000000000000000
F0010000005896700004000005525050200023658300000000000000000201406060002001PLASTICOS  DE LA COSTA                            C000000000020400000000000000000000100010010000000000000000000000F0010000005896700420140606000101 00000000000000000000000000000000000000000000000000000000000000000000000000000000000000000000000000000000000000000N 00000000000NCONT   00    00000000000          00000000000000000000000000000000000000000000 000000000000000A000000000000000000000000000000000000000000000 000000000000000000000000000000000000000     00000000                                                                                                                        000000000000000000
F0010000005896700005000005525050200013552100000000000000000201406060002001PLASTICOS  DE LA COSTA                            D000000000020400000000000000000000100010010000000000000000000000F0010000005896700520140606000101 00000000000000000000000000000000000000000000000000000000000000000000000000000000000000000000000000000000000000000N 00000000000NCONT   00    00000000000          00000000000000000000000000000000000000000000 000000000000000A000000000000000000000000000000000000000000000 000000000000000000000000000000000000000     00000000                                                                                                                        000000000000000000
F0010000005896800001000090047878200011050500000000000000000201406060002001GRUMAD SAS                                        D000000015000000000000000000000000100010010000000000000000000000F0010000005896800120140606000101 00000000000000000000000000000000000000000000000000000000000000000000000000000000000000000000000000000000000000000N 00000000000NCONT   00    00000000000          00000000000000000000000000000000000000000000 000000000000000A000000000000000000000000000000000000000000000 000000000000000000000000000000000000000     00000000                                                                                                                        000000000000000000
F0010000005896800002000090047878200041450500000000000000000201406060002001GRUMAD SAS                                        C000000013400000000000000000000000100010010000000000000000000000F0010000005896800220140606000101 00000000000000000000000000000000000000000000000000000000000000000000000000000000000000000000000000000000000000000N 00000000000NCONT   00    00000000000          00000000000000000000000000000000000000000000 000000000000000A000000000000000000000000000000000000000000000 000000000000000000000000000000000000000     00000000                                                                                                                        000000000000000000
F0010000005896800003000090047878200042505000000000000000000201406060002001GRUMAD SAS                                        C000000001600000000000000000000000100010010000000000000000000000F0010000005896800320140606000101 00000000000000000000000000000000000000000000000000000000000000000000000000000000000000000000000000000000000000000N 00000000000NCONT   00    00000000000          00000000000000000000000000000000000000000000 000000000000000A000000000000000000000000000000000000000000000 000000000000000000000000000000000000000     00000000                                                                                                                        000000000000000000
F0010000005896800004000090047878200023658300000000000000000201406060002001GRUMAD SAS                                        C000000000107200000000000000000000100010010000000000000000000000F0010000005896800420140606000101 00000000000000000000000000000000000000000000000000000000000000000000000000000000000000000000000000000000000000000N 00000000000NCONT   00    00000000000          00000000000000000000000000000000000000000000 000000000000000A000000000000000000000000000000000000000000000 000000000000000000000000000000000000000     00000000                                                                                                                        000000000000000000
F0010000005896800005000090047878200013552100000000000000000201406060002001GRUMAD SAS                                        D000000000107200000000000000000000100010010000000000000000000000F0010000005896800520140606000101 00000000000000000000000000000000000000000000000000000000000000000000000000000000000000000000000000000000000000000N 00000000000NCONT   00    00000000000          00000000000000000000000000000000000000000000 000000000000000A000000000000000000000000000000000000000000000 000000000000000000000000000000000000000     00000000                                                                                                                        000000000000000000
F0010000005896900001000001022529300011050500000000000000000201406060002001ALBERTO ALVAREZ ISAZA                             D000000003100000000000000000000000100010010000000000000000000000F0010000005896900120140606000101 00000000000000000000000000000000000000000000000000000000000000000000000000000000000000000000000000000000000000000N 00000000000NCONT   00    00000000000          00000000000000000000000000000000000000000000 000000000000000A000000000000000000000000000000000000000000000 000000000000000000000000000000000000000     00000000                                                                                                                        000000000000000000
F0010000005896900002000001022529300041450500000000000000000201406060002001ALBERTO ALVAREZ ISAZA                             C000000002800000000000000000000000100010010000000000000000000000F0010000005896900220140606000101 00000000000000000000000000000000000000000000000000000000000000000000000000000000000000000000000000000000000000000N 00000000000NCONT   00    00000000000          00000000000000000000000000000000000000000000 000000000000000A000000000000000000000000000000000000000000000 000000000000000000000000000000000000000     00000000                                                                                                                        000000000000000000
F0010000005896900003000001022529300042505000000000000000000201406060002001ALBERTO ALVAREZ ISAZA                             C000000000300000000000000000000000100010010000000000000000000000F0010000005896900320140606000101 00000000000000000000000000000000000000000000000000000000000000000000000000000000000000000000000000000000000000000N 00000000000NCONT   00    00000000000          00000000000000000000000000000000000000000000 000000000000000A000000000000000000000000000000000000000000000 000000000000000000000000000000000000000     00000000                                                                                                                        000000000000000000
F0010000005896900004000001022529300023658300000000000000000201406060002001ALBERTO ALVAREZ ISAZA                             C000000000022400000000000000000000100010010000000000000000000000F0010000005896900420140606000101 00000000000000000000000000000000000000000000000000000000000000000000000000000000000000000000000000000000000000000N 00000000000NCONT   00    00000000000          00000000000000000000000000000000000000000000 000000000000000A000000000000000000000000000000000000000000000 000000000000000000000000000000000000000     00000000                                                                                                                        000000000000000000
F0010000005896900005000001022529300013552100000000000000000201406060002001ALBERTO ALVAREZ ISAZA                             D000000000022400000000000000000000100010010000000000000000000000F0010000005896900520140606000101 00000000000000000000000000000000000000000000000000000000000000000000000000000000000000000000000000000000000000000N 00000000000NCONT   00    00000000000          00000000000000000000000000000000000000000000 000000000000000A000000000000000000000000000000000000000000000 000000000000000000000000000000000000000     00000000                                                                                                                        000000000000000000
F0010000005897000001000007200023300011050500000000000000000201406060002001WILLIAM ORTEGA                                    D000000004300000000000000000000000100010010000000000000000000000F0010000005897000120140606000101 00000000000000000000000000000000000000000000000000000000000000000000000000000000000000000000000000000000000000000N 00000000000NCONT   00    00000000000          00000000000000000000000000000000000000000000 000000000000000A000000000000000000000000000000000000000000000 000000000000000000000000000000000000000     00000000                                                                                                                        000000000000000000
F0010000005897000002000007200023300041450500000000000000000201406060002001WILLIAM ORTEGA                                    C000000004000000000000000000000000100010010000000000000000000000F0010000005897000220140606000101 00000000000000000000000000000000000000000000000000000000000000000000000000000000000000000000000000000000000000000N 00000000000NCONT   00    00000000000          00000000000000000000000000000000000000000000 000000000000000A000000000000000000000000000000000000000000000 000000000000000000000000000000000000000     00000000                                                                                                                        000000000000000000
F0010000005897000003000007200023300042505000000000000000000201406060002001WILLIAM ORTEGA                                    C000000000300000000000000000000000100010010000000000000000000000F0010000005897000320140606000101 00000000000000000000000000000000000000000000000000000000000000000000000000000000000000000000000000000000000000000N 00000000000NCONT   00    00000000000          00000000000000000000000000000000000000000000 000000000000000A000000000000000000000000000000000000000000000 000000000000000000000000000000000000000     00000000                                                                                                                        000000000000000000
F0010000005897000004000007200023300023658300000000000000000201406060002001WILLIAM ORTEGA                                    C000000000032000000000000000000000100010010000000000000000000000F0010000005897000420140606000101 00000000000000000000000000000000000000000000000000000000000000000000000000000000000000000000000000000000000000000N 00000000000NCONT   00    00000000000          00000000000000000000000000000000000000000000 000000000000000A000000000000000000000000000000000000000000000 000000000000000000000000000000000000000     00000000                                                                                                                        000000000000000000
F0010000005897000005000007200023300013552100000000000000000201406060002001WILLIAM ORTEGA                                    D000000000032000000000000000000000100010010000000000000000000000F0010000005897000520140606000101 00000000000000000000000000000000000000000000000000000000000000000000000000000000000000000000000000000000000000000N 00000000000NCONT   00    00000000000          00000000000000000000000000000000000000000000 000000000000000A000000000000000000000000000000000000000000000 000000000000000000000000000000000000000     00000000                                                                                                                        000000000000000000
F0010000005897100001000007214782600011050500000000000000000201406060002001OSCAR JOSE LIAN ROCHA                             D000000001400000000000000000000000100010010000000000000000000000F0010000005897100120140606000101 00000000000000000000000000000000000000000000000000000000000000000000000000000000000000000000000000000000000000000N 00000000000NCONT   00    00000000000          00000000000000000000000000000000000000000000 000000000000000A000000000000000000000000000000000000000000000 000000000000000000000000000000000000000     00000000                                                                                                                        000000000000000000
F0010000005897100002000007214782600041450500000000000000000201406060002001OSCAR JOSE LIAN ROCHA                             C000000001200000000000000000000000100010010000000000000000000000F0010000005897100220140606000101 00000000000000000000000000000000000000000000000000000000000000000000000000000000000000000000000000000000000000000N 00000000000NCONT   00    00000000000          00000000000000000000000000000000000000000000 000000000000000A000000000000000000000000000000000000000000000 000000000000000000000000000000000000000     00000000                                                                                                                        000000000000000000
F0010000005897100003000007214782600042505000000000000000000201406060002001OSCAR JOSE LIAN ROCHA                             C000000000200000000000000000000000100010010000000000000000000000F0010000005897100320140606000101 00000000000000000000000000000000000000000000000000000000000000000000000000000000000000000000000000000000000000000N 00000000000NCONT   00    00000000000          00000000000000000000000000000000000000000000 000000000000000A000000000000000000000000000000000000000000000 000000000000000000000000000000000000000     00000000                                                                                                                        000000000000000000
F0010000005897100004000007214782600023658300000000000000000201406060002001OSCAR JOSE LIAN ROCHA                             C000000000009600000000000000000000100010010000000000000000000000F0010000005897100420140606000101 00000000000000000000000000000000000000000000000000000000000000000000000000000000000000000000000000000000000000000N 00000000000NCONT   00    00000000000          00000000000000000000000000000000000000000000 000000000000000A000000000000000000000000000000000000000000000 000000000000000000000000000000000000000     00000000                                                                                                                        000000000000000000
F0010000005897100005000007214782600013552100000000000000000201406060002001OSCAR JOSE LIAN ROCHA                             D000000000009600000000000000000000100010010000000000000000000000F0010000005897100520140606000101 00000000000000000000000000000000000000000000000000000000000000000000000000000000000000000000000000000000000000000N 00000000000NCONT   00    00000000000          00000000000000000000000000000000000000000000 000000000000000A000000000000000000000000000000000000000000000 000000000000000000000000000000000000000     00000000                                                                                                                        000000000000000000
F0010000005897200001000007214782600011050500000000000000000201406060002001OSCAR JOSE LIAN ROCHA                             D000000001100000000000000000000000100010010000000000000000000000F0010000005897200120140606000101 00000000000000000000000000000000000000000000000000000000000000000000000000000000000000000000000000000000000000000N 00000000000NCONT   00    00000000000          00000000000000000000000000000000000000000000 000000000000000A000000000000000000000000000000000000000000000 000000000000000000000000000000000000000     00000000                                                                                                                        000000000000000000
F0010000005897200002000007214782600041450500000000000000000201406060002001OSCAR JOSE LIAN ROCHA                             C000000000900000000000000000000000100010010000000000000000000000F0010000005897200220140606000101 00000000000000000000000000000000000000000000000000000000000000000000000000000000000000000000000000000000000000000N 00000000000NCONT   00    00000000000          00000000000000000000000000000000000000000000 000000000000000A000000000000000000000000000000000000000000000 000000000000000000000000000000000000000     00000000                                                                                                                        000000000000000000
F0010000005897200003000007214782600042505000000000000000000201406060002001OSCAR JOSE LIAN ROCHA                             C000000000200000000000000000000000100010010000000000000000000000F0010000005897200320140606000101 00000000000000000000000000000000000000000000000000000000000000000000000000000000000000000000000000000000000000000N 00000000000NCONT   00    00000000000          00000000000000000000000000000000000000000000 000000000000000A000000000000000000000000000000000000000000000 000000000000000000000000000000000000000     00000000                                                                                                                        000000000000000000
F0010000005897200004000007214782600023658300000000000000000201406060002001OSCAR JOSE LIAN ROCHA                             C000000000007200000000000000000000100010010000000000000000000000F0010000005897200420140606000101 00000000000000000000000000000000000000000000000000000000000000000000000000000000000000000000000000000000000000000N 00000000000NCONT   00    00000000000          00000000000000000000000000000000000000000000 000000000000000A000000000000000000000000000000000000000000000 000000000000000000000000000000000000000     00000000                                                                                                                        000000000000000000
F0010000005897200005000007214782600013552100000000000000000201406060002001OSCAR JOSE LIAN ROCHA                             D000000000007200000000000000000000100010010000000000000000000000F0010000005897200520140606000101 00000000000000000000000000000000000000000000000000000000000000000000000000000000000000000000000000000000000000000N 00000000000NCONT   00    00000000000          00000000000000000000000000000000000000000000 000000000000000A000000000000000000000000000000000000000000000 000000000000000000000000000000000000000     00000000                                                                                                                        000000000000000000
F0010000005897300001000007214782600011050500000000000000000201406060002001OSCAR JOSE LIAN ROCHA                             D000000001100000000000000000000000100010010000000000000000000000F0010000005897300120140606000101 00000000000000000000000000000000000000000000000000000000000000000000000000000000000000000000000000000000000000000N 00000000000NCONT   00    00000000000          00000000000000000000000000000000000000000000 000000000000000A000000000000000000000000000000000000000000000 000000000000000000000000000000000000000     00000000                                                                                                                        000000000000000000
F0010000005897300002000007214782600041450500000000000000000201406060002001OSCAR JOSE LIAN ROCHA                             C000000000900000000000000000000000100010010000000000000000000000F0010000005897300220140606000101 00000000000000000000000000000000000000000000000000000000000000000000000000000000000000000000000000000000000000000N 00000000000NCONT   00    00000000000          00000000000000000000000000000000000000000000 000000000000000A000000000000000000000000000000000000000000000 000000000000000000000000000000000000000     00000000                                                                                                                        000000000000000000
F0010000005897300003000007214782600042505000000000000000000201406060002001OSCAR JOSE LIAN ROCHA                             C000000000200000000000000000000000100010010000000000000000000000F0010000005897300320140606000101 00000000000000000000000000000000000000000000000000000000000000000000000000000000000000000000000000000000000000000N 00000000000NCONT   00    00000000000          00000000000000000000000000000000000000000000 000000000000000A000000000000000000000000000000000000000000000 000000000000000000000000000000000000000     00000000                                                                                                                        000000000000000000
F0010000005897300004000007214782600023658300000000000000000201406060002001OSCAR JOSE LIAN ROCHA                             C000000000007200000000000000000000100010010000000000000000000000F0010000005897300420140606000101 00000000000000000000000000000000000000000000000000000000000000000000000000000000000000000000000000000000000000000N 00000000000NCONT   00    00000000000          00000000000000000000000000000000000000000000 000000000000000A000000000000000000000000000000000000000000000 000000000000000000000000000000000000000     00000000                                                                                                                        000000000000000000
F0010000005897300005000007214782600013552100000000000000000201406060002001OSCAR JOSE LIAN ROCHA                             D000000000007200000000000000000000100010010000000000000000000000F0010000005897300520140606000101 00000000000000000000000000000000000000000000000000000000000000000000000000000000000000000000000000000000000000000N 00000000000NCONT   00    00000000000          00000000000000000000000000000000000000000000 000000000000000A000000000000000000000000000000000000000000000 000000000000000000000000000000000000000     00000000                                                                                                                        000000000000000000
F0010000005897400001000001022529300011050500000000000000000201406060002001ALBERTO ALVAREZ ISAZA                             D000000001210000000000000000000000100010010000000000000000000000F0010000005897400120140606000101 00000000000000000000000000000000000000000000000000000000000000000000000000000000000000000000000000000000000000000N 00000000000NCONT   00    00000000000          00000000000000000000000000000000000000000000 000000000000000A000000000000000000000000000000000000000000000 000000000000000000000000000000000000000     00000000                                                                                                                        000000000000000000
F0010000005897400002000001022529300041450500000000000000000201406060002001ALBERTO ALVAREZ ISAZA                             C000000001150000000000000000000000100010010000000000000000000000F0010000005897400220140606000101 00000000000000000000000000000000000000000000000000000000000000000000000000000000000000000000000000000000000000000N 00000000000NCONT   00    00000000000          00000000000000000000000000000000000000000000 000000000000000A000000000000000000000000000000000000000000000 000000000000000000000000000000000000000     00000000                                                                                                                        000000000000000000
F0010000005897400003000001022529300042505000000000000000000201406060002001ALBERTO ALVAREZ ISAZA                             C000000000060000000000000000000000100010010000000000000000000000F0010000005897400320140606000101 00000000000000000000000000000000000000000000000000000000000000000000000000000000000000000000000000000000000000000N 00000000000NCONT   00    00000000000          00000000000000000000000000000000000000000000 000000000000000A000000000000000000000000000000000000000000000 000000000000000000000000000000000000000     00000000                                                                                                                        000000000000000000
F0010000005897400004000001022529300023658300000000000000000201406060002001ALBERTO ALVAREZ ISAZA                             C000000000009200000000000000000000100010010000000000000000000000F0010000005897400420140606000101 00000000000000000000000000000000000000000000000000000000000000000000000000000000000000000000000000000000000000000N 00000000000NCONT   00    00000000000          00000000000000000000000000000000000000000000 000000000000000A000000000000000000000000000000000000000000000 000000000000000000000000000000000000000     00000000                                                                                                                        000000000000000000
F0010000005897400005000001022529300013552100000000000000000201406060002001ALBERTO ALVAREZ ISAZA                             D000000000009200000000000000000000100010010000000000000000000000F0010000005897400520140606000101 00000000000000000000000000000000000000000000000000000000000000000000000000000000000000000000000000000000000000000N 00000000000NCONT   00    00000000000          00000000000000000000000000000000000000000000 000000000000000A000000000000000000000000000000000000000000000 000000000000000000000000000000000000000     00000000                                                                                                                        000000000000000000
F0010000005897500001000001022529300011050500000000000000000201406060002001ALBERTO ALVAREZ ISAZA                             D000000000400000000000000000000000100010010000000000000000000000F0010000005897500120140606000101 00000000000000000000000000000000000000000000000000000000000000000000000000000000000000000000000000000000000000000N 00000000000NCONT   00    00000000000          00000000000000000000000000000000000000000000 000000000000000A000000000000000000000000000000000000000000000 000000000000000000000000000000000000000     00000000                                                                                                                        000000000000000000
F0010000005897500002000001022529300041450500000000000000000201406060002001ALBERTO ALVAREZ ISAZA                             C000000000350000000000000000000000100010010000000000000000000000F0010000005897500220140606000101 00000000000000000000000000000000000000000000000000000000000000000000000000000000000000000000000000000000000000000N 00000000000NCONT   00    00000000000          00000000000000000000000000000000000000000000 000000000000000A000000000000000000000000000000000000000000000 000000000000000000000000000000000000000     00000000                                                                                                                        000000000000000000
