F0010000007931000001000090024483300011050500000000000000000201511240002001COSMETICOS A-GUZ                                  D000000006000000000000000000000000100010010000000000000000000000F0010000007931000120151124000101 00000000000000000000000000000000000000000000000000000000000000000000000000000000000000000000000000000000000000000N 00000000000NCONT   00    00000000000          00000000000000000000000000000000000000000000 000000000000000A000000000000000000000000000000000000000000000 000000000000000000000000000000000000000     00000000                                                                                                                        000000000000000000
F0010000007931000002000090024483300041450500000000000000000201511240002001COSMETICOS A-GUZ                                  C000000005400000000000000000000000100010010000000000000000000000F0010000007931000220151124000101 00000000000000000000000000000000000000000000000000000000000000000000000000000000000000000000000000000000000000000N 00000000000NCONT   00    00000000000          00000000000000000000000000000000000000000000 000000000000000A000000000000000000000000000000000000000000000 000000000000000000000000000000000000000     00000000                                                                                                                        000000000000000000
F0010000007931000003000090024483300042505000000000000000000201511240002001COSMETICOS A-GUZ                                  C000000000600000000000000000000000100010010000000000000000000000F0010000007931000320151124000101 00000000000000000000000000000000000000000000000000000000000000000000000000000000000000000000000000000000000000000N 00000000000NCONT   00    00000000000          00000000000000000000000000000000000000000000 000000000000000A000000000000000000000000000000000000000000000 000000000000000000000000000000000000000     00000000                                                                                                                        000000000000000000
F0010000007931000004000090024483300023658300000000000000000201511240002001COSMETICOS A-GUZ                                  C000000000043200000000000000000000100010010000000000000000000000F0010000007931000420151124000101 00000000000000000000000000000000000000000000000000000000000000000000000000000000000000000000000000000000000000000N 00000000000NCONT   00    00000000000          00000000000000000000000000000000000000000000 000000000000000A000000000000000000000000000000000000000000000 000000000000000000000000000000000000000     00000000                                                                                                                        000000000000000000
F0010000007931000005000090024483300013552100000000000000000201511240002001COSMETICOS A-GUZ                                  D000000000043200000000000000000000100010010000000000000000000000F0010000007931000520151124000101 00000000000000000000000000000000000000000000000000000000000000000000000000000000000000000000000000000000000000000N 00000000000NCONT   00    00000000000          00000000000000000000000000000000000000000000 000000000000000A000000000000000000000000000000000000000000000 000000000000000000000000000000000000000     00000000                                                                                                                        000000000000000000
F0010000007931100001000080019113900013050500000000000000000201511240002001COMERCIAL NOVAPEL LTDA                            D000000008050000000000000000000000100010010000000000000000000000F0010000007931100120151124000101 00000000000000000000000000000000000000000000000000000000000000000000000000000000000000000000000000000000000000000N 00000000000NCONT   00    00000000000          00000000000000000000000000000000000000000000 000000000000000A000000000000000000000000000000000000000000000 000000000000000000000000000000000000000     00000000                                                                                                                        000000000000000000
F0010000007931100002000080019113900041450500000000000000000201511240002001COMERCIAL NOVAPEL LTDA                            C000000006600000000000000000000000100010010000000000000000000000F0010000007931100220151124000101 00000000000000000000000000000000000000000000000000000000000000000000000000000000000000000000000000000000000000000N 00000000000NCONT   00    00000000000          00000000000000000000000000000000000000000000 000000000000000A000000000000000000000000000000000000000000000 000000000000000000000000000000000000000     00000000                                                                                                                        000000000000000000
F0010000007931100003000080019113900042505000000000000000000201511240002001COMERCIAL NOVAPEL LTDA                            C000000001450000000000000000000000100010010000000000000000000000F0010000007931100320151124000101 00000000000000000000000000000000000000000000000000000000000000000000000000000000000000000000000000000000000000000N 00000000000NCONT   00    00000000000          00000000000000000000000000000000000000000000 000000000000000A000000000000000000000000000000000000000000000 000000000000000000000000000000000000000     00000000                                                                                                                        000000000000000000
F0010000007931100004000080019113900023658300000000000000000201511240002001COMERCIAL NOVAPEL LTDA                            C000000000052800000000000000000000100010010000000000000000000000F0010000007931100420151124000101 00000000000000000000000000000000000000000000000000000000000000000000000000000000000000000000000000000000000000000N 00000000000NCONT   00    00000000000          00000000000000000000000000000000000000000000 000000000000000A000000000000000000000000000000000000000000000 000000000000000000000000000000000000000     00000000                                                                                                                        000000000000000000
F0010000007931100005000080019113900013552100000000000000000201511240002001COMERCIAL NOVAPEL LTDA                            D000000000052800000000000000000000100010010000000000000000000000F0010000007931100520151124000101 00000000000000000000000000000000000000000000000000000000000000000000000000000000000000000000000000000000000000000N 00000000000NCONT   00    00000000000          00000000000000000000000000000000000000000000 000000000000000A000000000000000000000000000000000000000000000 000000000000000000000000000000000000000     00000000                                                                                                                        000000000000000000
F0010000007931300001000002258669400013050500000000000000000201511240002001YURY PAOLA  SANTAMARIA ..                         D000000011605000000000000000000000100010010000000000000000000000F0010000007931300120151124000101 00000000000000000000000000000000000000000000000000000000000000000000000000000000000000000000000000000000000000000N 00000000000NCONT   00    00000000000          00000000000000000000000000000000000000000000 000000000000000A000000000000000000000000000000000000000000000 000000000000000000000000000000000000000     00000000                                                                                                                        000000000000000000
F0010000007931300002000002258669400041450500000000000000000201511240002001YURY PAOLA  SANTAMARIA ..                         C000000009330000000000000000000000100010010000000000000000000000F0010000007931300220151124000101 00000000000000000000000000000000000000000000000000000000000000000000000000000000000000000000000000000000000000000N 00000000000NCONT   00    00000000000          00000000000000000000000000000000000000000000 000000000000000A000000000000000000000000000000000000000000000 000000000000000000000000000000000000000     00000000                                                                                                                        000000000000000000
F0010000007931300003000002258669400042505000000000000000000201511240002001YURY PAOLA  SANTAMARIA ..                         C000000002275000000000000000000000100010010000000000000000000000F0010000007931300320151124000101 00000000000000000000000000000000000000000000000000000000000000000000000000000000000000000000000000000000000000000N 00000000000NCONT   00    00000000000          00000000000000000000000000000000000000000000 000000000000000A000000000000000000000000000000000000000000000 000000000000000000000000000000000000000     00000000                                                                                                                        000000000000000000
F0010000007931300004000002258669400023658300000000000000000201511240002001YURY PAOLA  SANTAMARIA ..                         C000000000074600000000000000000000100010010000000000000000000000F0010000007931300420151124000101 00000000000000000000000000000000000000000000000000000000000000000000000000000000000000000000000000000000000000000N 00000000000NCONT   00    00000000000          00000000000000000000000000000000000000000000 000000000000000A000000000000000000000000000000000000000000000 000000000000000000000000000000000000000     00000000                                                                                                                        000000000000000000
F0010000007931300005000002258669400013552100000000000000000201511240002001YURY PAOLA  SANTAMARIA ..                         D000000000074600000000000000000000100010010000000000000000000000F0010000007931300520151124000101 00000000000000000000000000000000000000000000000000000000000000000000000000000000000000000000000000000000000000000N 00000000000NCONT   00    00000000000          00000000000000000000000000000000000000000000 000000000000000A000000000000000000000000000000000000000000000 000000000000000000000000000000000000000     00000000                                                                                                                        000000000000000000
F0010000007931400001000080200069100013050500000000000000000201511240002001PEGANTES Y PINTURAS ATLAS LTDA                    D000000007094800000000000000000000100010010000000000000000000000F0010000007931400120151124000101 00000000000000000000000000000000000000000000000000000000000000000000000000000000000000000000000000000000000000000N 00000000000NCONT   00    00000000000          00000000000000000000000000000000000000000000 000000000000000A000000000000000000000000000000000000000000000 000000000000000000000000000000000000000     00000000                                                                                                                        000000000000000000
F0010000007931400002000080200069100041450500000000000000000201511240002001PEGANTES Y PINTURAS ATLAS LTDA                    C000000006000000000000000000000000100010010000000000000000000000F0010000007931400220151124000101 00000000000000000000000000000000000000000000000000000000000000000000000000000000000000000000000000000000000000000N 00000000000NCONT   00    00000000000          00000000000000000000000000000000000000000000 000000000000000A000000000000000000000000000000000000000000000 000000000000000000000000000000000000000     00000000                                                                                                                        000000000000000000
F0010000007931400003000080200069100042505000000000000000000201511240002001PEGANTES Y PINTURAS ATLAS LTDA                    C000000001094800000000000000000000100010010000000000000000000000F0010000007931400320151124000101 00000000000000000000000000000000000000000000000000000000000000000000000000000000000000000000000000000000000000000N 00000000000NCONT   00    00000000000          00000000000000000000000000000000000000000000 000000000000000A000000000000000000000000000000000000000000000 000000000000000000000000000000000000000     00000000                                                                                                                        000000000000000000
F0010000007931400004000080200069100023658300000000000000000201511240002001PEGANTES Y PINTURAS ATLAS LTDA                    C000000000048000000000000000000000100010010000000000000000000000F0010000007931400420151124000101 00000000000000000000000000000000000000000000000000000000000000000000000000000000000000000000000000000000000000000N 00000000000NCONT   00    00000000000          00000000000000000000000000000000000000000000 000000000000000A000000000000000000000000000000000000000000000 000000000000000000000000000000000000000     00000000                                                                                                                        000000000000000000
F0010000007931400005000080200069100013552100000000000000000201511240002001PEGANTES Y PINTURAS ATLAS LTDA                    D000000000048000000000000000000000100010010000000000000000000000F0010000007931400520151124000101 00000000000000000000000000000000000000000000000000000000000000000000000000000000000000000000000000000000000000000N 00000000000NCONT   00    00000000000          00000000000000000000000000000000000000000000 000000000000000A000000000000000000000000000000000000000000000 000000000000000000000000000000000000000     00000000                                                                                                                        000000000000000000
F0010000007931500001000000748239700013050500000000000000000201511240002001RAFAEL NAVARRO URIBE                              D000000079611800000000000000000000100010010000000000000000000000F0010000007931500120151124000101 00000000000000000000000000000000000000000000000000000000000000000000000000000000000000000000000000000000000000000N 00000000000NCONT   00    00000000000          00000000000000000000000000000000000000000000 000000000000000A000000000000000000000000000000000000000000000 000000000000000000000000000000000000000     00000000                                                                                                                        000000000000000000
F0010000007931500002000000748239700041450500000000000000000201511240002001RAFAEL NAVARRO URIBE                              C000000055190000000000000000000000100010010000000000000000000000F0010000007931500220151124000101 00000000000000000000000000000000000000000000000000000000000000000000000000000000000000000000000000000000000000000N 00000000000NCONT   00    00000000000          00000000000000000000000000000000000000000000 000000000000000A000000000000000000000000000000000000000000000 000000000000000000000000000000000000000     00000000                                                                                                                        000000000000000000
F0010000007931500003000000748239700042505000000000000000000201511240002001RAFAEL NAVARRO URIBE                              C000000024421800000000000000000000100010010000000000000000000000F0010000007931500320151124000101 00000000000000000000000000000000000000000000000000000000000000000000000000000000000000000000000000000000000000000N 00000000000NCONT   00    00000000000          00000000000000000000000000000000000000000000 000000000000000A000000000000000000000000000000000000000000000 000000000000000000000000000000000000000     00000000                                                                                                                        000000000000000000
F0010000007931500004000000748239700023658300000000000000000201511240002001RAFAEL NAVARRO URIBE                              C000000000441500000000000000000000100010010000000000000000000000F0010000007931500420151124000101 00000000000000000000000000000000000000000000000000000000000000000000000000000000000000000000000000000000000000000N 00000000000NCONT   00    00000000000          00000000000000000000000000000000000000000000 000000000000000A000000000000000000000000000000000000000000000 000000000000000000000000000000000000000     00000000                                                                                                                        000000000000000000
F0010000007931500005000000748239700013552100000000000000000201511240002001RAFAEL NAVARRO URIBE                              D000000000441500000000000000000000100010010000000000000000000000F0010000007931500520151124000101 00000000000000000000000000000000000000000000000000000000000000000000000000000000000000000000000000000000000000000N 00000000000NCONT   00    00000000000          00000000000000000000000000000000000000000000 000000000000000A000000000000000000000000000000000000000000000 000000000000000000000000000000000000000     00000000                                                                                                                        000000000000000000
F0010000007931600001000007215983800013050500000000000000000201511240002001INDUSTRIA  LAFERBE                                D000000002735000000000000000000000100010010000000000000000000000F0010000007931600120151124000101 00000000000000000000000000000000000000000000000000000000000000000000000000000000000000000000000000000000000000000N 00000000000NCONT   00    00000000000          00000000000000000000000000000000000000000000 000000000000000A000000000000000000000000000000000000000000000 000000000000000000000000000000000000000     00000000                                                                                                                        000000000000000000
F0010000007931600002000007215983800041450500000000000000000201511240002001INDUSTRIA  LAFERBE                                C000000002410000000000000000000000100010010000000000000000000000F0010000007931600220151124000101 00000000000000000000000000000000000000000000000000000000000000000000000000000000000000000000000000000000000000000N 00000000000NCONT   00    00000000000          00000000000000000000000000000000000000000000 000000000000000A000000000000000000000000000000000000000000000 000000000000000000000000000000000000000     00000000                                                                                                                        000000000000000000
F0010000007931600003000007215983800042505000000000000000000201511240002001INDUSTRIA  LAFERBE                                C000000000325000000000000000000000100010010000000000000000000000F0010000007931600320151124000101 00000000000000000000000000000000000000000000000000000000000000000000000000000000000000000000000000000000000000000N 00000000000NCONT   00    00000000000          00000000000000000000000000000000000000000000 000000000000000A000000000000000000000000000000000000000000000 000000000000000000000000000000000000000     00000000                                                                                                                        000000000000000000
F0010000007931600004000007215983800023658300000000000000000201511240002001INDUSTRIA  LAFERBE                                C000000000019300000000000000000000100010010000000000000000000000F0010000007931600420151124000101 00000000000000000000000000000000000000000000000000000000000000000000000000000000000000000000000000000000000000000N 00000000000NCONT   00    00000000000          00000000000000000000000000000000000000000000 000000000000000A000000000000000000000000000000000000000000000 000000000000000000000000000000000000000     00000000                                                                                                                        000000000000000000
F0010000007931600005000007215983800013552100000000000000000201511240002001INDUSTRIA  LAFERBE                                D000000000019300000000000000000000100010010000000000000000000000F0010000007931600520151124000101 00000000000000000000000000000000000000000000000000000000000000000000000000000000000000000000000000000000000000000N 00000000000NCONT   00    00000000000          00000000000000000000000000000000000000000000 000000000000000A000000000000000000000000000000000000000000000 000000000000000000000000000000000000000     00000000                                                                                                                        000000000000000000
F0010000007931700001000080002300200013050500000000000000000201511240002001DISREL S.A.                                       D000000022950000000000000000000000100010010000000000000000000000F0010000007931700120151124000101 00000000000000000000000000000000000000000000000000000000000000000000000000000000000000000000000000000000000000000N 00000000000NCONT   00    00000000000          00000000000000000000000000000000000000000000 000000000000000A000000000000000000000000000000000000000000000 000000000000000000000000000000000000000     00000000                                                                                                                        000000000000000000
F0010000007931700002000080002300200041450500000000000000000201511240002001DISREL S.A.                                       C000000018360000000000000000000000100010010000000000000000000000F0010000007931700220151124000101 00000000000000000000000000000000000000000000000000000000000000000000000000000000000000000000000000000000000000000N 00000000000NCONT   00    00000000000          00000000000000000000000000000000000000000000 000000000000000A000000000000000000000000000000000000000000000 000000000000000000000000000000000000000     00000000                                                                                                                        000000000000000000
F0010000007931700003000080002300200042505000000000000000000201511240002001DISREL S.A.                                       C000000004590000000000000000000000100010010000000000000000000000F0010000007931700320151124000101 00000000000000000000000000000000000000000000000000000000000000000000000000000000000000000000000000000000000000000N 00000000000NCONT   00    00000000000          00000000000000000000000000000000000000000000 000000000000000A000000000000000000000000000000000000000000000 000000000000000000000000000000000000000     00000000                                                                                                                        000000000000000000
F0010000007931700004000080002300200023658300000000000000000201511240002001DISREL S.A.                                       C000000000146900000000000000000000100010010000000000000000000000F0010000007931700420151124000101 00000000000000000000000000000000000000000000000000000000000000000000000000000000000000000000000000000000000000000N 00000000000NCONT   00    00000000000          00000000000000000000000000000000000000000000 000000000000000A000000000000000000000000000000000000000000000 000000000000000000000000000000000000000     00000000                                                                                                                        000000000000000000
F0010000007931700005000080002300200013552100000000000000000201511240002001DISREL S.A.                                       D000000000146900000000000000000000100010010000000000000000000000F0010000007931700520151124000101 00000000000000000000000000000000000000000000000000000000000000000000000000000000000000000000000000000000000000000N 00000000000NCONT   00    00000000000          00000000000000000000000000000000000000000000 000000000000000A000000000000000000000000000000000000000000000 000000000000000000000000000000000000000     00000000                                                                                                                        000000000000000000
F0010000007931800001000080016665600013050500000000000000000201511240002001SUMICAL DE ANTIOQUIA S.A.S                        D000000035427200000000000000000000100010010000000000000000000000F0010000007931800120151124000101 00000000000000000000000000000000000000000000000000000000000000000000000000000000000000000000000000000000000000000N 00000000000NCONT   00    00000000000          00000000000000000000000000000000000000000000 000000000000000A000000000000000000000000000000000000000000000 000000000000000000000000000000000000000     00000000                                                                                                                        000000000000000000
F0010000007931800002000080016665600041450500000000000000000201511240002001SUMICAL DE ANTIOQUIA S.A.S                        C000000027750000000000000000000000100010010000000000000000000000F0010000007931800220151124000101 00000000000000000000000000000000000000000000000000000000000000000000000000000000000000000000000000000000000000000N 00000000000NCONT   00    00000000000          00000000000000000000000000000000000000000000 000000000000000A000000000000000000000000000000000000000000000 000000000000000000000000000000000000000     00000000                                                                                                                        000000000000000000
F0010000007931800003000080016665600042505000000000000000000201511240002001SUMICAL DE ANTIOQUIA S.A.S                        C000000007677200000000000000000000100010010000000000000000000000F0010000007931800320151124000101 00000000000000000000000000000000000000000000000000000000000000000000000000000000000000000000000000000000000000000N 00000000000NCONT   00    00000000000          00000000000000000000000000000000000000000000 000000000000000A000000000000000000000000000000000000000000000 000000000000000000000000000000000000000     00000000                                                                                                                        000000000000000000
F0010000007931800004000080016665600023658300000000000000000201511240002001SUMICAL DE ANTIOQUIA S.A.S                        C000000000222000000000000000000000100010010000000000000000000000F0010000007931800420151124000101 00000000000000000000000000000000000000000000000000000000000000000000000000000000000000000000000000000000000000000N 00000000000NCONT   00    00000000000          00000000000000000000000000000000000000000000 000000000000000A000000000000000000000000000000000000000000000 000000000000000000000000000000000000000     00000000                                                                                                                        000000000000000000
F0010000007931800005000080016665600013552100000000000000000201511240002001SUMICAL DE ANTIOQUIA S.A.S                        D000000000222000000000000000000000100010010000000000000000000000F0010000007931800520151124000101 00000000000000000000000000000000000000000000000000000000000000000000000000000000000000000000000000000000000000000N 00000000000NCONT   00    00000000000          00000000000000000000000000000000000000000000 000000000000000A000000000000000000000000000000000000000000000 000000000000000000000000000000000000000     00000000                                                                                                                        000000000000000000
F0010000007931900001000080200250700013050500000000000000000201511240002001ETICOL SAS                                        D000000046500000000000000000000000100010010000000000000000000000F0010000007931900120151124000101 00000000000000000000000000000000000000000000000000000000000000000000000000000000000000000000000000000000000000000N 00000000000NCONT   00    00000000000          00000000000000000000000000000000000000000000 000000000000000A000000000000000000000000000000000000000000000 000000000000000000000000000000000000000     00000000                                                                                                                        000000000000000000
F0010000007931900002000080200250700041450500000000000000000201511240002001ETICOL SAS                                        C000000045300000000000000000000000100010010000000000000000000000F0010000007931900220151124000101 00000000000000000000000000000000000000000000000000000000000000000000000000000000000000000000000000000000000000000N 00000000000NCONT   00    00000000000          00000000000000000000000000000000000000000000 000000000000000A000000000000000000000000000000000000000000000 000000000000000000000000000000000000000     00000000                                                                                                                        000000000000000000
F0010000007931900003000080200250700042505000000000000000000201511240002001ETICOL SAS                                        C000000001200000000000000000000000100010010000000000000000000000F0010000007931900320151124000101 00000000000000000000000000000000000000000000000000000000000000000000000000000000000000000000000000000000000000000N 00000000000NCONT   00    00000000000          00000000000000000000000000000000000000000000 000000000000000A000000000000000000000000000000000000000000000 000000000000000000000000000000000000000     00000000                                                                                                                        000000000000000000
F0010000007931900004000080200250700023658300000000000000000201511240002001ETICOL SAS                                        C000000000362400000000000000000000100010010000000000000000000000F0010000007931900420151124000101 00000000000000000000000000000000000000000000000000000000000000000000000000000000000000000000000000000000000000000N 00000000000NCONT   00    00000000000          00000000000000000000000000000000000000000000 000000000000000A000000000000000000000000000000000000000000000 000000000000000000000000000000000000000     00000000                                                                                                                        000000000000000000
F0010000007931900005000080200250700013552100000000000000000201511240002001ETICOL SAS                                        D000000000362400000000000000000000100010010000000000000000000000F0010000007931900520151124000101 00000000000000000000000000000000000000000000000000000000000000000000000000000000000000000000000000000000000000000N 00000000000NCONT   00    00000000000          00000000000000000000000000000000000000000000 000000000000000A000000000000000000000000000000000000000000000 000000000000000000000000000000000000000     00000000                                                                                                                        000000000000000000
F0010000007932000001000089010526900013050500000000000000000201511240002001DISTRIBUCIONES CANAL Y CIA S.A.S                  D000000030269800000000000000000000100010010000000000000000000000F0010000007932000120151124000101 00000000000000000000000000000000000000000000000000000000000000000000000000000000000000000000000000000000000000000N 00000000000NCONT   00    00000000000          00000000000000000000000000000000000000000000 000000000000000A000000000000000000000000000000000000000000000 000000000000000000000000000000000000000     00000000                                                                                                                        000000000000000000
F0010000007932000002000089010526900041450500000000000000000201511240002001DISTRIBUCIONES CANAL Y CIA S.A.S                  C000000019870000000000000000000000100010010000000000000000000000F0010000007932000220151124000101 00000000000000000000000000000000000000000000000000000000000000000000000000000000000000000000000000000000000000000N 00000000000NCONT   00    00000000000          00000000000000000000000000000000000000000000 000000000000000A000000000000000000000000000000000000000000000 000000000000000000000000000000000000000     00000000                                                                                                                        000000000000000000
F0010000007932000003000089010526900042505000000000000000000201511240002001DISTRIBUCIONES CANAL Y CIA S.A.S                  C000000010399800000000000000000000100010010000000000000000000000F0010000007932000320151124000101 00000000000000000000000000000000000000000000000000000000000000000000000000000000000000000000000000000000000000000N 00000000000NCONT   00    00000000000          00000000000000000000000000000000000000000000 000000000000000A000000000000000000000000000000000000000000000 000000000000000000000000000000000000000     00000000                                                                                                                        000000000000000000
F0010000007932000004000089010526900023658300000000000000000201511240002001DISTRIBUCIONES CANAL Y CIA S.A.S                  C000000000159000000000000000000000100010010000000000000000000000F0010000007932000420151124000101 00000000000000000000000000000000000000000000000000000000000000000000000000000000000000000000000000000000000000000N 00000000000NCONT   00    00000000000          00000000000000000000000000000000000000000000 000000000000000A000000000000000000000000000000000000000000000 000000000000000000000000000000000000000     00000000                                                                                                                        000000000000000000
F0010000007932000005000089010526900013552100000000000000000201511240002001DISTRIBUCIONES CANAL Y CIA S.A.S                  D000000000159000000000000000000000100010010000000000000000000000F0010000007932000520151124000101 00000000000000000000000000000000000000000000000000000000000000000000000000000000000000000000000000000000000000000N 00000000000NCONT   00    00000000000          00000000000000000000000000000000000000000000 000000000000000A000000000000000000000000000000000000000000000 000000000000000000000000000000000000000     00000000                                                                                                                        000000000000000000
F0010000007932100001000080016664500013050500000000000000000201511240002001TELAPLAS PANCER SAS                               D000000024831000000000000000000000100010010000000000000000000000F0010000007932100120151124000101 00000000000000000000000000000000000000000000000000000000000000000000000000000000000000000000000000000000000000000N 00000000000NCONT   00    00000000000          00000000000000000000000000000000000000000000 000000000000000A000000000000000000000000000000000000000000000 000000000000000000000000000000000000000     00000000                                                                                                                        000000000000000000
F0010000007932100002000080016664500041450500000000000000000201511240002001TELAPLAS PANCER SAS                               C000000019580000000000000000000000100010010000000000000000000000F0010000007932100220151124000101 00000000000000000000000000000000000000000000000000000000000000000000000000000000000000000000000000000000000000000N 00000000000NCONT   00    00000000000          00000000000000000000000000000000000000000000 000000000000000A000000000000000000000000000000000000000000000 000000000000000000000000000000000000000     00000000                                                                                                                        000000000000000000
F0010000007932100003000080016664500042505000000000000000000201511240002001TELAPLAS PANCER SAS                               C000000005251000000000000000000000100010010000000000000000000000F0010000007932100320151124000101 00000000000000000000000000000000000000000000000000000000000000000000000000000000000000000000000000000000000000000N 00000000000NCONT   00    00000000000          00000000000000000000000000000000000000000000 000000000000000A000000000000000000000000000000000000000000000 000000000000000000000000000000000000000     00000000                                                                                                                        000000000000000000
F0010000007932100004000080016664500023658300000000000000000201511240002001TELAPLAS PANCER SAS                               C000000000156600000000000000000000100010010000000000000000000000F0010000007932100420151124000101 00000000000000000000000000000000000000000000000000000000000000000000000000000000000000000000000000000000000000000N 00000000000NCONT   00    00000000000          00000000000000000000000000000000000000000000 000000000000000A000000000000000000000000000000000000000000000 000000000000000000000000000000000000000     00000000                                                                                                                        000000000000000000
F0010000007932100005000080016664500013552100000000000000000201511240002001TELAPLAS PANCER SAS                               D000000000156600000000000000000000100010010000000000000000000000F0010000007932100520151124000101 00000000000000000000000000000000000000000000000000000000000000000000000000000000000000000000000000000000000000000N 00000000000NCONT   00    00000000000          00000000000000000000000000000000000000000000 000000000000000A000000000000000000000000000000000000000000000 000000000000000000000000000000000000000     00000000                                                                                                                        000000000000000000
F0010000007932200001000090049854300013050500000000000000000201511240002001TRAPOS INDUSTRIALES DE COLOMBIA SAS               D000000007967500000000000000000000100010010000000000000000000000F0010000007932200120151124000101 00000000000000000000000000000000000000000000000000000000000000000000000000000000000000000000000000000000000000000N 00000000000NCONT   00    00000000000          00000000000000000000000000000000000000000000 000000000000000A000000000000000000000000000000000000000000000 000000000000000000000000000000000000000     00000000                                                                                                                        000000000000000000
F0010000007932200002000090049854300041450500000000000000000201511240002001TRAPOS INDUSTRIALES DE COLOMBIA SAS               C000000007250000000000000000000000100010010000000000000000000000F0010000007932200220151124000101 00000000000000000000000000000000000000000000000000000000000000000000000000000000000000000000000000000000000000000N 00000000000NCONT   00    00000000000          00000000000000000000000000000000000000000000 000000000000000A000000000000000000000000000000000000000000000 000000000000000000000000000000000000000     00000000                                                                                                                        000000000000000000
F0010000007932200003000090049854300042505000000000000000000201511240002001TRAPOS INDUSTRIALES DE COLOMBIA SAS               C000000000717500000000000000000000100010010000000000000000000000F0010000007932200320151124000101 00000000000000000000000000000000000000000000000000000000000000000000000000000000000000000000000000000000000000000N 00000000000NCONT   00    00000000000          00000000000000000000000000000000000000000000 000000000000000A000000000000000000000000000000000000000000000 000000000000000000000000000000000000000     00000000                                                                                                                        000000000000000000
F0010000007932200004000090049854300023658300000000000000000201511240002001TRAPOS INDUSTRIALES DE COLOMBIA SAS               C000000000058000000000000000000000100010010000000000000000000000F0010000007932200420151124000101 00000000000000000000000000000000000000000000000000000000000000000000000000000000000000000000000000000000000000000N 00000000000NCONT   00    00000000000          00000000000000000000000000000000000000000000 000000000000000A000000000000000000000000000000000000000000000 000000000000000000000000000000000000000     00000000                                                                                                                        000000000000000000
F0010000007932200005000090049854300013552100000000000000000201511240002001TRAPOS INDUSTRIALES DE COLOMBIA SAS               D000000000058000000000000000000000100010010000000000000000000000F0010000007932200520151124000101 00000000000000000000000000000000000000000000000000000000000000000000000000000000000000000000000000000000000000000N 00000000000NCONT   00    00000000000          00000000000000000000000000000000000000000000 000000000000000A000000000000000000000000000000000000000000000 000000000000000000000000000000000000000     00000000                                                                                                                        000000000000000000
F0010000007932300001000089070997800013050500000000000000000201511240002001CENTRAL DE TORNILLOS                              D000000025260000000000000000000000100010010000000000000000000000F0010000007932300120151124000101 00000000000000000000000000000000000000000000000000000000000000000000000000000000000000000000000000000000000000000N 00000000000NCONT   00    00000000000          00000000000000000000000000000000000000000000 000000000000000A000000000000000000000000000000000000000000000 000000000000000000000000000000000000000     00000000                                                                                                                        000000000000000000
F0010000007932300002000089070997800041450500000000000000000201511240002001CENTRAL DE TORNILLOS                              C000000023310000000000000000000000100010010000000000000000000000F0010000007932300220151124000101 00000000000000000000000000000000000000000000000000000000000000000000000000000000000000000000000000000000000000000N 00000000000NCONT   00    00000000000          00000000000000000000000000000000000000000000 000000000000000A000000000000000000000000000000000000000000000 000000000000000000000000000000000000000     00000000                                                                                                                        000000000000000000
F0010000007932300003000089070997800042505000000000000000000201511240002001CENTRAL DE TORNILLOS                              C000000001950000000000000000000000100010010000000000000000000000F0010000007932300320151124000101 00000000000000000000000000000000000000000000000000000000000000000000000000000000000000000000000000000000000000000N 00000000000NCONT   00    00000000000          00000000000000000000000000000000000000000000 000000000000000A000000000000000000000000000000000000000000000 000000000000000000000000000000000000000     00000000                                                                                                                        000000000000000000
F0010000007932300004000089070997800023658300000000000000000201511240002001CENTRAL DE TORNILLOS                              C000000000186500000000000000000000100010010000000000000000000000F0010000007932300420151124000101 00000000000000000000000000000000000000000000000000000000000000000000000000000000000000000000000000000000000000000N 00000000000NCONT   00    00000000000          00000000000000000000000000000000000000000000 000000000000000A000000000000000000000000000000000000000000000 000000000000000000000000000000000000000     00000000                                                                                                                        000000000000000000
F0010000007932300005000089070997800013552100000000000000000201511240002001CENTRAL DE TORNILLOS                              D000000000186500000000000000000000100010010000000000000000000000F0010000007932300520151124000101 00000000000000000000000000000000000000000000000000000000000000000000000000000000000000000000000000000000000000000N 00000000000NCONT   00    00000000000          00000000000000000000000000000000000000000000 000000000000000A000000000000000000000000000000000000000000000 000000000000000000000000000000000000000     00000000                                                                                                                        000000000000000000
F0010000007932400001000089080078800013050500000000000000000201511240002001SUMATEC SA                                        D000000025577900000000000000000000100010010000000000000000000000F0010000007932400120151124000101 00000000000000000000000000000000000000000000000000000000000000000000000000000000000000000000000000000000000000000N 00000000000NCONT   00    00000000000          00000000000000000000000000000000000000000000 000000000000000A000000000000000000000000000000000000000000000 000000000000000000000000000000000000000     00000000                                                                                                                        000000000000000000
F0010000007932400002000089080078800041450500000000000000000201511240002001SUMATEC SA                                        C000000023040000000000000000000000100010010000000000000000000000F0010000007932400220151124000101 00000000000000000000000000000000000000000000000000000000000000000000000000000000000000000000000000000000000000000N 00000000000NCONT   00    00000000000          00000000000000000000000000000000000000000000 000000000000000A000000000000000000000000000000000000000000000 000000000000000000000000000000000000000     00000000                                                                                                                        000000000000000000
F0010000007932400003000089080078800042505000000000000000000201511240002001SUMATEC SA                                        C000000002537900000000000000000000100010010000000000000000000000F0010000007932400320151124000101 00000000000000000000000000000000000000000000000000000000000000000000000000000000000000000000000000000000000000000N 00000000000NCONT   00    00000000000          00000000000000000000000000000000000000000000 000000000000000A000000000000000000000000000000000000000000000 000000000000000000000000000000000000000     00000000                                                                                                                        000000000000000000
F0010000007932400004000089080078800023658300000000000000000201511240002001SUMATEC SA                                        C000000000184300000000000000000000100010010000000000000000000000F0010000007932400420151124000101 00000000000000000000000000000000000000000000000000000000000000000000000000000000000000000000000000000000000000000N 00000000000NCONT   00    00000000000          00000000000000000000000000000000000000000000 000000000000000A000000000000000000000000000000000000000000000 000000000000000000000000000000000000000     00000000                                                                                                                        000000000000000000
F0010000007932400005000089080078800013552100000000000000000201511240002001SUMATEC SA                                        D000000000184300000000000000000000100010010000000000000000000000F0010000007932400520151124000101 00000000000000000000000000000000000000000000000000000000000000000000000000000000000000000000000000000000000000000N 00000000000NCONT   00    00000000000          00000000000000000000000000000000000000000000 000000000000000A000000000000000000000000000000000000000000000 000000000000000000000000000000000000000     00000000                                                                                                                        000000000000000000
F0010000007932500001000089080078800013050500000000000000000201511240002001SUMATEC S.A.                                      D000000021212200000000000000000000100010010000000000000000000000F0010000007932500120151124000101 00000000000000000000000000000000000000000000000000000000000000000000000000000000000000000000000000000000000000000N 00000000000NCONT   00    00000000000          00000000000000000000000000000000000000000000 000000000000000A000000000000000000000000000000000000000000000 000000000000000000000000000000000000000     00000000                                                                                                                        000000000000000000
F0010000007932500002000089080078800041450500000000000000000201511240002001SUMATEC S.A.                                      C000000018320000000000000000000000100010010000000000000000000000F0010000007932500220151124000101 00000000000000000000000000000000000000000000000000000000000000000000000000000000000000000000000000000000000000000N 00000000000NCONT   00    00000000000          00000000000000000000000000000000000000000000 000000000000000A000000000000000000000000000000000000000000000 000000000000000000000000000000000000000     00000000                                                                                                                        000000000000000000
F0010000007932500003000089080078800042505000000000000000000201511240002001SUMATEC S.A.                                      C000000002892200000000000000000000100010010000000000000000000000F0010000007932500320151124000101 00000000000000000000000000000000000000000000000000000000000000000000000000000000000000000000000000000000000000000N 00000000000NCONT   00    00000000000          00000000000000000000000000000000000000000000 000000000000000A000000000000000000000000000000000000000000000 000000000000000000000000000000000000000     00000000                                                                                                                        000000000000000000
F0010000007932500004000089080078800023658300000000000000000201511240002001SUMATEC S.A.                                      C000000000146600000000000000000000100010010000000000000000000000F0010000007932500420151124000101 00000000000000000000000000000000000000000000000000000000000000000000000000000000000000000000000000000000000000000N 00000000000NCONT   00    00000000000          00000000000000000000000000000000000000000000 000000000000000A000000000000000000000000000000000000000000000 000000000000000000000000000000000000000     00000000                                                                                                                        000000000000000000
F0010000007932500005000089080078800013552100000000000000000201511240002001SUMATEC S.A.                                      D000000000146600000000000000000000100010010000000000000000000000F0010000007932500520151124000101 00000000000000000000000000000000000000000000000000000000000000000000000000000000000000000000000000000000000000000N 00000000000NCONT   00    00000000000          00000000000000000000000000000000000000000000 000000000000000A000000000000000000000000000000000000000000000 000000000000000000000000000000000000000     00000000                                                                                                                        000000000000000000
F0010000007932600001000002261657700013050500000000000000000201511240002001LILIANA SANCHEZ SOLANO                            D000000018000000000000000000000000100010010000000000000000000000F0010000007932600120151124000101 00000000000000000000000000000000000000000000000000000000000000000000000000000000000000000000000000000000000000000N 00000000000NCONT   00    00000000000          00000000000000000000000000000000000000000000 000000000000000A000000000000000000000000000000000000000000000 000000000000000000000000000000000000000     00000000                                                                                                                        000000000000000000
F0010000007932600002000002261657700041450500000000000000000201511240002001LILIANA SANCHEZ SOLANO                            C000000015000000000000000000000000100010010000000000000000000000F0010000007932600220151124000101 00000000000000000000000000000000000000000000000000000000000000000000000000000000000000000000000000000000000000000N 00000000000NCONT   00    00000000000          00000000000000000000000000000000000000000000 000000000000000A000000000000000000000000000000000000000000000 000000000000000000000000000000000000000     00000000                                                                                                                        000000000000000000
F0010000007932600003000002261657700042505000000000000000000201511240002001LILIANA SANCHEZ SOLANO                            C000000003000000000000000000000000100010010000000000000000000000F0010000007932600320151124000101 00000000000000000000000000000000000000000000000000000000000000000000000000000000000000000000000000000000000000000N 00000000000NCONT   00    00000000000          00000000000000000000000000000000000000000000 000000000000000A000000000000000000000000000000000000000000000 000000000000000000000000000000000000000     00000000                                                                                                                        000000000000000000
F0010000007932600004000002261657700023658300000000000000000201511240002001LILIANA SANCHEZ SOLANO                            C000000000120000000000000000000000100010010000000000000000000000F0010000007932600420151124000101 00000000000000000000000000000000000000000000000000000000000000000000000000000000000000000000000000000000000000000N 00000000000NCONT   00    00000000000          00000000000000000000000000000000000000000000 000000000000000A000000000000000000000000000000000000000000000 000000000000000000000000000000000000000     00000000                                                                                                                        000000000000000000
F0010000007932600005000002261657700013552100000000000000000201511240002001LILIANA SANCHEZ SOLANO                            D000000000120000000000000000000000100010010000000000000000000000F0010000007932600520151124000101 00000000000000000000000000000000000000000000000000000000000000000000000000000000000000000000000000000000000000000N 00000000000NCONT   00    00000000000          00000000000000000000000000000000000000000000 000000000000000A000000000000000000000000000000000000000000000 000000000000000000000000000000000000000     00000000                                                                                                                        000000000000000000
F0010000007932700001000080200863700013050500000000000000000201511240002001COPIN S.A.S                                       D000000112785800000000000000000000100010010000000000000000000000F0010000007932700120151124000101 00000000000000000000000000000000000000000000000000000000000000000000000000000000000000000000000000000000000000000N 00000000000NCONT   00    00000000000          00000000000000000000000000000000000000000000 000000000000000A000000000000000000000000000000000000000000000 000000000000000000000000000000000000000     00000000                                                                                                                        000000000000000000
F0010000007932700002000080200863700041450500000000000000000201511240002001COPIN S.A.S                                       C000000099190000000000000000000000100010010000000000000000000000F0010000007932700220151124000101 00000000000000000000000000000000000000000000000000000000000000000000000000000000000000000000000000000000000000000N 00000000000NCONT   00    00000000000          00000000000000000000000000000000000000000000 000000000000000A000000000000000000000000000000000000000000000 000000000000000000000000000000000000000     00000000                                                                                                                        000000000000000000
F0010000007932700003000080200863700042505000000000000000000201511240002001COPIN S.A.S                                       C000000013595800000000000000000000100010010000000000000000000000F0010000007932700320151124000101 00000000000000000000000000000000000000000000000000000000000000000000000000000000000000000000000000000000000000000N 00000000000NCONT   00    00000000000          00000000000000000000000000000000000000000000 000000000000000A000000000000000000000000000000000000000000000 000000000000000000000000000000000000000     00000000                                                                                                                        000000000000000000
F0010000007932700004000080200863700023658300000000000000000201511240002001COPIN S.A.S                                       C000000000793500000000000000000000100010010000000000000000000000F0010000007932700420151124000101 00000000000000000000000000000000000000000000000000000000000000000000000000000000000000000000000000000000000000000N 00000000000NCONT   00    00000000000          00000000000000000000000000000000000000000000 000000000000000A000000000000000000000000000000000000000000000 000000000000000000000000000000000000000     00000000                                                                                                                        000000000000000000
F0010000007932700005000080200863700013552100000000000000000201511240002001COPIN S.A.S                                       D000000000793500000000000000000000100010010000000000000000000000F0010000007932700520151124000101 00000000000000000000000000000000000000000000000000000000000000000000000000000000000000000000000000000000000000000N 00000000000NCONT   00    00000000000          00000000000000000000000000000000000000000000 000000000000000A000000000000000000000000000000000000000000000 000000000000000000000000000000000000000     00000000                                                                                                                        000000000000000000
F0010000007932800001000080022903500013050500000000000000000201511240002001TECNOGLASS S.A                                    D000000041869100000000000000000000100010010000000000000000000000F0010000007932800120151124000101 00000000000000000000000000000000000000000000000000000000000000000000000000000000000000000000000000000000000000000N 00000000000NCONT   00    00000000000          00000000000000000000000000000000000000000000 000000000000000A000000000000000000000000000000000000000000000 000000000000000000000000000000000000000     00000000                                                                                                                        000000000000000000
F0010000007932800002000080022903500041450500000000000000000201511240002001TECNOGLASS S.A                                    C000000035551000000000000000000000100010010000000000000000000000F0010000007932800220151124000101 00000000000000000000000000000000000000000000000000000000000000000000000000000000000000000000000000000000000000000N 00000000000NCONT   00    00000000000          00000000000000000000000000000000000000000000 000000000000000A000000000000000000000000000000000000000000000 000000000000000000000000000000000000000     00000000                                                                                                                        000000000000000000
F0010000007932800003000080022903500042505000000000000000000201511240002001TECNOGLASS S.A                                    C000000006318100000000000000000000100010010000000000000000000000F0010000007932800320151124000101 00000000000000000000000000000000000000000000000000000000000000000000000000000000000000000000000000000000000000000N 00000000000NCONT   00    00000000000          00000000000000000000000000000000000000000000 000000000000000A000000000000000000000000000000000000000000000 000000000000000000000000000000000000000     00000000                                                                                                                        000000000000000000
F0010000007932800004000080022903500023658300000000000000000201511240002001TECNOGLASS S.A                                    C000000000284400000000000000000000100010010000000000000000000000F0010000007932800420151124000101 00000000000000000000000000000000000000000000000000000000000000000000000000000000000000000000000000000000000000000N 00000000000NCONT   00    00000000000          00000000000000000000000000000000000000000000 000000000000000A000000000000000000000000000000000000000000000 000000000000000000000000000000000000000     00000000                                                                                                                        000000000000000000
F0010000007932800005000080022903500013552100000000000000000201511240002001TECNOGLASS S.A                                    D000000000284400000000000000000000100010010000000000000000000000F0010000007932800520151124000101 00000000000000000000000000000000000000000000000000000000000000000000000000000000000000000000000000000000000000000N 00000000000NCONT   00    00000000000          00000000000000000000000000000000000000000000 000000000000000A000000000000000000000000000000000000000000000 000000000000000000000000000000000000000     00000000                                                                                                                        000000000000000000
F0010000007932900001000090009800500013050500000000000000000201511240002001GLORIANT CHEMICAL DE COLOMBIA LTDA                D000000048058000000000000000000000100010010000000000000000000000F0010000007932900120151124000101 00000000000000000000000000000000000000000000000000000000000000000000000000000000000000000000000000000000000000000N 00000000000NCONT   00    00000000000          00000000000000000000000000000000000000000000 000000000000000A000000000000000000000000000000000000000000000 000000000000000000000000000000000000000     00000000                                                                                                                        000000000000000000
F0010000007932900002000090009800500041450500000000000000000201511240002001GLORIANT CHEMICAL DE COLOMBIA LTDA                C000000040750000000000000000000000100010010000000000000000000000F0010000007932900220151124000101 00000000000000000000000000000000000000000000000000000000000000000000000000000000000000000000000000000000000000000N 00000000000NCONT   00    00000000000          00000000000000000000000000000000000000000000 000000000000000A000000000000000000000000000000000000000000000 000000000000000000000000000000000000000     00000000                                                                                                                        000000000000000000
F0010000007932900003000090009800500042505000000000000000000201511240002001GLORIANT CHEMICAL DE COLOMBIA LTDA                C000000007308000000000000000000000100010010000000000000000000000F0010000007932900320151124000101 00000000000000000000000000000000000000000000000000000000000000000000000000000000000000000000000000000000000000000N 00000000000NCONT   00    00000000000          00000000000000000000000000000000000000000000 000000000000000A000000000000000000000000000000000000000000000 000000000000000000000000000000000000000     00000000                                                                                                                        000000000000000000
F0010000007932900004000090009800500023658300000000000000000201511240002001GLORIANT CHEMICAL DE COLOMBIA LTDA                C000000000326000000000000000000000100010010000000000000000000000F0010000007932900420151124000101 00000000000000000000000000000000000000000000000000000000000000000000000000000000000000000000000000000000000000000N 00000000000NCONT   00    00000000000          00000000000000000000000000000000000000000000 000000000000000A000000000000000000000000000000000000000000000 000000000000000000000000000000000000000     00000000                                                                                                                        000000000000000000
F0010000007932900005000090009800500013552100000000000000000201511240002001GLORIANT CHEMICAL DE COLOMBIA LTDA                D000000000326000000000000000000000100010010000000000000000000000F0010000007932900520151124000101 00000000000000000000000000000000000000000000000000000000000000000000000000000000000000000000000000000000000000000N 00000000000NCONT   00    00000000000          00000000000000000000000000000000000000000000 000000000000000A000000000000000000000000000000000000000000000 000000000000000000000000000000000000000     00000000                                                                                                                        000000000000000000
F0010000007933000001000090008711200013050500000000000000000201511240002001PACKAGING SUPPLIERS S.A.                          D000000020185000000000000000000000100010010000000000000000000000F0010000007933000120151124000101 00000000000000000000000000000000000000000000000000000000000000000000000000000000000000000000000000000000000000000N 00000000000NCONT   00    00000000000          00000000000000000000000000000000000000000000 000000000000000A000000000000000000000000000000000000000000000 000000000000000000000000000000000000000     00000000                                                                                                                        000000000000000000
F0010000007933000002000090008711200041450500000000000000000201511240002001PACKAGING SUPPLIERS S.A.                          C000000018700000000000000000000000100010010000000000000000000000F0010000007933000220151124000101 00000000000000000000000000000000000000000000000000000000000000000000000000000000000000000000000000000000000000000N 00000000000NCONT   00    00000000000          00000000000000000000000000000000000000000000 000000000000000A000000000000000000000000000000000000000000000 000000000000000000000000000000000000000     00000000                                                                                                                        000000000000000000
F0010000007933000003000090008711200042505000000000000000000201511240002001PACKAGING SUPPLIERS S.A.                          C000000001485000000000000000000000100010010000000000000000000000F0010000007933000320151124000101 00000000000000000000000000000000000000000000000000000000000000000000000000000000000000000000000000000000000000000N 00000000000NCONT   00    00000000000          00000000000000000000000000000000000000000000 000000000000000A000000000000000000000000000000000000000000000 000000000000000000000000000000000000000     00000000                                                                                                                        000000000000000000
F0010000007933000004000090008711200023658300000000000000000201511240002001PACKAGING SUPPLIERS S.A.                          C000000000149600000000000000000000100010010000000000000000000000F0010000007933000420151124000101 00000000000000000000000000000000000000000000000000000000000000000000000000000000000000000000000000000000000000000N 00000000000NCONT   00    00000000000          00000000000000000000000000000000000000000000 000000000000000A000000000000000000000000000000000000000000000 000000000000000000000000000000000000000     00000000                                                                                                                        000000000000000000
F0010000007933000005000090008711200013552100000000000000000201511240002001PACKAGING SUPPLIERS S.A.                          D000000000149600000000000000000000100010010000000000000000000000F0010000007933000520151124000101 00000000000000000000000000000000000000000000000000000000000000000000000000000000000000000000000000000000000000000N 00000000000NCONT   00    00000000000          00000000000000000000000000000000000000000000 000000000000000A000000000000000000000000000000000000000000000 000000000000000000000000000000000000000     00000000                                                                                                                        000000000000000000
F0010000007933100001000089010260300013050500000000000000000201511240002001FEDERICO OSORIO A. S.A.                           D000000082740400000000000000000000100010010000000000000000000000F0010000007933100120151124000101 00000000000000000000000000000000000000000000000000000000000000000000000000000000000000000000000000000000000000000N 00000000000NCONT   00    00000000000          00000000000000000000000000000000000000000000 000000000000000A000000000000000000000000000000000000000000000 000000000000000000000000000000000000000     00000000                                                                                                                        000000000000000000
F0010000007933100002000089010260300041450500000000000000000201511240002001FEDERICO OSORIO A. S.A.                           C000000077690000000000000000000000100010010000000000000000000000F0010000007933100220151124000101 00000000000000000000000000000000000000000000000000000000000000000000000000000000000000000000000000000000000000000N 00000000000NCONT   00    00000000000          00000000000000000000000000000000000000000000 000000000000000A000000000000000000000000000000000000000000000 000000000000000000000000000000000000000     00000000                                                                                                                        000000000000000000
F0010000007933100003000089010260300042505000000000000000000201511240002001FEDERICO OSORIO A. S.A.                           C000000005050400000000000000000000100010010000000000000000000000F0010000007933100320151124000101 00000000000000000000000000000000000000000000000000000000000000000000000000000000000000000000000000000000000000000N 00000000000NCONT   00    00000000000          00000000000000000000000000000000000000000000 000000000000000A000000000000000000000000000000000000000000000 000000000000000000000000000000000000000     00000000                                                                                                                        000000000000000000
F0010000007933100004000089010260300023658300000000000000000201511240002001FEDERICO OSORIO A. S.A.                           C000000000621500000000000000000000100010010000000000000000000000F0010000007933100420151124000101 00000000000000000000000000000000000000000000000000000000000000000000000000000000000000000000000000000000000000000N 00000000000NCONT   00    00000000000          00000000000000000000000000000000000000000000 000000000000000A000000000000000000000000000000000000000000000 000000000000000000000000000000000000000     00000000                                                                                                                        000000000000000000
F0010000007933100005000089010260300013552100000000000000000201511240002001FEDERICO OSORIO A. S.A.                           D000000000621500000000000000000000100010010000000000000000000000F0010000007933100520151124000101 00000000000000000000000000000000000000000000000000000000000000000000000000000000000000000000000000000000000000000N 00000000000NCONT   00    00000000000          00000000000000000000000000000000000000000000 000000000000000A000000000000000000000000000000000000000000000 000000000000000000000000000000000000000     00000000                                                                                                                        000000000000000000
F0010000007933200001000080202094000013050500000000000000000201511240002001DISTRIB. OMAR ORREGO S.A.                         D000000084009600000000000000000000100010010000000000000000000000F0010000007933200120151124000101 00000000000000000000000000000000000000000000000000000000000000000000000000000000000000000000000000000000000000000N 00000000000NCONT   00    00000000000          00000000000000000000000000000000000000000000 000000000000000A000000000000000000000000000000000000000000000 000000000000000000000000000000000000000     00000000                                                                                                                        000000000000000000
F0010000007933200002000080202094000041450500000000000000000201511240002001DISTRIB. OMAR ORREGO S.A.                         C000000050550000000000000000000000100010010000000000000000000000F0010000007933200220151124000101 00000000000000000000000000000000000000000000000000000000000000000000000000000000000000000000000000000000000000000N 00000000000NCONT   00    00000000000          00000000000000000000000000000000000000000000 000000000000000A000000000000000000000000000000000000000000000 000000000000000000000000000000000000000     00000000                                                                                                                        000000000000000000
F0010000007933200003000080202094000042505000000000000000000201511240002001DISTRIB. OMAR ORREGO S.A.                         C000000033459600000000000000000000100010010000000000000000000000F0010000007933200320151124000101 00000000000000000000000000000000000000000000000000000000000000000000000000000000000000000000000000000000000000000N 00000000000NCONT   00    00000000000          00000000000000000000000000000000000000000000 000000000000000A000000000000000000000000000000000000000000000 000000000000000000000000000000000000000     00000000                                                                                                                        000000000000000000
F0010000007933200004000080202094000023658300000000000000000201511240002001DISTRIB. OMAR ORREGO S.A.                         C000000000404400000000000000000000100010010000000000000000000000F0010000007933200420151124000101 00000000000000000000000000000000000000000000000000000000000000000000000000000000000000000000000000000000000000000N 00000000000NCONT   00    00000000000          00000000000000000000000000000000000000000000 000000000000000A000000000000000000000000000000000000000000000 000000000000000000000000000000000000000     00000000                                                                                                                        000000000000000000
F0010000007933200005000080202094000013552100000000000000000201511240002001DISTRIB. OMAR ORREGO S.A.                         D000000000404400000000000000000000100010010000000000000000000000F0010000007933200520151124000101 00000000000000000000000000000000000000000000000000000000000000000000000000000000000000000000000000000000000000000N 00000000000NCONT   00    00000000000          00000000000000000000000000000000000000000000 000000000000000A000000000000000000000000000000000000000000000 000000000000000000000000000000000000000     00000000                                                                                                                        000000000000000000
F0010000007933300001000080202094000013050500000000000000000201511240002001DISTRIB. OMAR ORREGO S.A.                         D000000028569100000000000000000000100010010000000000000000000000F0010000007933300120151124000101 00000000000000000000000000000000000000000000000000000000000000000000000000000000000000000000000000000000000000000N 00000000000NCONT   00    00000000000          00000000000000000000000000000000000000000000 000000000000000A000000000000000000000000000000000000000000000 000000000000000000000000000000000000000     00000000                                                                                                                        000000000000000000
F0010000007933300002000080202094000041450500000000000000000201511240002001DISTRIB. OMAR ORREGO S.A.                         C000000021380000000000000000000000100010010000000000000000000000F0010000007933300220151124000101 00000000000000000000000000000000000000000000000000000000000000000000000000000000000000000000000000000000000000000N 00000000000NCONT   00    00000000000          00000000000000000000000000000000000000000000 000000000000000A000000000000000000000000000000000000000000000 000000000000000000000000000000000000000     00000000                                                                                                                        000000000000000000
F0010000007933300003000080202094000042505000000000000000000201511240002001DISTRIB. OMAR ORREGO S.A.                         C000000007189100000000000000000000100010010000000000000000000000F0010000007933300320151124000101 00000000000000000000000000000000000000000000000000000000000000000000000000000000000000000000000000000000000000000N 00000000000NCONT   00    00000000000          00000000000000000000000000000000000000000000 000000000000000A000000000000000000000000000000000000000000000 000000000000000000000000000000000000000     00000000                                                                                                                        000000000000000000
F0010000007933300004000080202094000023658300000000000000000201511240002001DISTRIB. OMAR ORREGO S.A.                         C000000000171000000000000000000000100010010000000000000000000000F0010000007933300420151124000101 00000000000000000000000000000000000000000000000000000000000000000000000000000000000000000000000000000000000000000N 00000000000NCONT   00    00000000000          00000000000000000000000000000000000000000000 000000000000000A000000000000000000000000000000000000000000000 000000000000000000000000000000000000000     00000000                                                                                                                        000000000000000000
F0010000007933300005000080202094000013552100000000000000000201511240002001DISTRIB. OMAR ORREGO S.A.                         D000000000171000000000000000000000100010010000000000000000000000F0010000007933300520151124000101 00000000000000000000000000000000000000000000000000000000000000000000000000000000000000000000000000000000000000000N 00000000000NCONT   00    00000000000          00000000000000000000000000000000000000000000 000000000000000A000000000000000000000000000000000000000000000 000000000000000000000000000000000000000     00000000                                                                                                                        000000000000000000
F0010000007933400001000080201112800013050500000000000000000201511240002001CANGURO INTERNATIONAL S.A.                        D000000148468600000000000000000000100010010000000000000000000000F0010000007933400120151124000101 00000000000000000000000000000000000000000000000000000000000000000000000000000000000000000000000000000000000000000N 00000000000NCONT   00    00000000000          00000000000000000000000000000000000000000000 000000000000000A000000000000000000000000000000000000000000000 000000000000000000000000000000000000000     00000000                                                                                                                        000000000000000000
F0010000007933400002000080201112800041450500000000000000000201511240002001CANGURO INTERNATIONAL S.A.                        C000000147163600000000000000000000100010010000000000000000000000F0010000007933400220151124000101 00000000000000000000000000000000000000000000000000000000000000000000000000000000000000000000000000000000000000000N 00000000000NCONT   00    00000000000          00000000000000000000000000000000000000000000 000000000000000A000000000000000000000000000000000000000000000 000000000000000000000000000000000000000     00000000                                                                                                                        000000000000000000
F0010000007933400003000080201112800042505000000000000000000201511240002001CANGURO INTERNATIONAL S.A.                        C000000001305000000000000000000000100010010000000000000000000000F0010000007933400320151124000101 00000000000000000000000000000000000000000000000000000000000000000000000000000000000000000000000000000000000000000N 00000000000NCONT   00    00000000000          00000000000000000000000000000000000000000000 000000000000000A000000000000000000000000000000000000000000000 000000000000000000000000000000000000000     00000000                                                                                                                        000000000000000000
F0010000007933400004000080201112800023658300000000000000000201511240002001CANGURO INTERNATIONAL S.A.                        C000000001177300000000000000000000100010010000000000000000000000F0010000007933400420151124000101 00000000000000000000000000000000000000000000000000000000000000000000000000000000000000000000000000000000000000000N 00000000000NCONT   00    00000000000          00000000000000000000000000000000000000000000 000000000000000A000000000000000000000000000000000000000000000 000000000000000000000000000000000000000     00000000                                                                                                                        000000000000000000
F0010000007933400005000080201112800013552100000000000000000201511240002001CANGURO INTERNATIONAL S.A.                        D000000001177300000000000000000000100010010000000000000000000000F0010000007933400520151124000101 00000000000000000000000000000000000000000000000000000000000000000000000000000000000000000000000000000000000000000N 00000000000NCONT   00    00000000000          00000000000000000000000000000000000000000000 000000000000000A000000000000000000000000000000000000000000000 000000000000000000000000000000000000000     00000000                                                                                                                        000000000000000000
F0010000007933500001000080201112800013050500000000000000000201511240002001CANGURO INTERNATIONAL S.A.                        D000000204152600000000000000000000100010010000000000000000000000F0010000007933500120151124000101 00000000000000000000000000000000000000000000000000000000000000000000000000000000000000000000000000000000000000000N 00000000000NCONT   00    00000000000          00000000000000000000000000000000000000000000 000000000000000A000000000000000000000000000000000000000000000 000000000000000000000000000000000000000     00000000                                                                                                                        000000000000000000
F0010000007933500002000080201112800041450500000000000000000201511240002001CANGURO INTERNATIONAL S.A.                        C000000195389600000000000000000000100010010000000000000000000000F0010000007933500220151124000101 00000000000000000000000000000000000000000000000000000000000000000000000000000000000000000000000000000000000000000N 00000000000NCONT   00    00000000000          00000000000000000000000000000000000000000000 000000000000000A000000000000000000000000000000000000000000000 000000000000000000000000000000000000000     00000000                                                                                                                        000000000000000000
F0010000007933500003000080201112800042505000000000000000000201511240002001CANGURO INTERNATIONAL S.A.                        C000000008763000000000000000000000100010010000000000000000000000F0010000007933500320151124000101 00000000000000000000000000000000000000000000000000000000000000000000000000000000000000000000000000000000000000000N 00000000000NCONT   00    00000000000          00000000000000000000000000000000000000000000 000000000000000A000000000000000000000000000000000000000000000 000000000000000000000000000000000000000     00000000                                                                                                                        000000000000000000
F0010000007933500004000080201112800023658300000000000000000201511240002001CANGURO INTERNATIONAL S.A.                        C000000001563100000000000000000000100010010000000000000000000000F0010000007933500420151124000101 00000000000000000000000000000000000000000000000000000000000000000000000000000000000000000000000000000000000000000N 00000000000NCONT   00    00000000000          00000000000000000000000000000000000000000000 000000000000000A000000000000000000000000000000000000000000000 000000000000000000000000000000000000000     00000000                                                                                                                        000000000000000000
F0010000007933500005000080201112800013552100000000000000000201511240002001CANGURO INTERNATIONAL S.A.                        D000000001563100000000000000000000100010010000000000000000000000F0010000007933500520151124000101 00000000000000000000000000000000000000000000000000000000000000000000000000000000000000000000000000000000000000000N 00000000000NCONT   00    00000000000          00000000000000000000000000000000000000000000 000000000000000A000000000000000000000000000000000000000000000 000000000000000000000000000000000000000     00000000                                                                                                                        000000000000000000
F0010000007933600001000080004943800013050500000000000000000201511240002001PAPELERIA EL CID S.A.                             D000000033266400000000000000000000100010010000000000000000000000F0010000007933600120151124000101 00000000000000000000000000000000000000000000000000000000000000000000000000000000000000000000000000000000000000000N 00000000000NCONT   00    00000000000          00000000000000000000000000000000000000000000 000000000000000A000000000000000000000000000000000000000000000 000000000000000000000000000000000000000     00000000                                                                                                                        000000000000000000
F0010000007933600002000080004943800041450500000000000000000201511240002001PAPELERIA EL CID S.A.                             C000000026250000000000000000000000100010010000000000000000000000F0010000007933600220151124000101 00000000000000000000000000000000000000000000000000000000000000000000000000000000000000000000000000000000000000000N 00000000000NCONT   00    00000000000          00000000000000000000000000000000000000000000 000000000000000A000000000000000000000000000000000000000000000 000000000000000000000000000000000000000     00000000                                                                                                                        000000000000000000
F0010000007933600003000080004943800042505000000000000000000201511240002001PAPELERIA EL CID S.A.                             C000000007016400000000000000000000100010010000000000000000000000F0010000007933600320151124000101 00000000000000000000000000000000000000000000000000000000000000000000000000000000000000000000000000000000000000000N 00000000000NCONT   00    00000000000          00000000000000000000000000000000000000000000 000000000000000A000000000000000000000000000000000000000000000 000000000000000000000000000000000000000     00000000                                                                                                                        000000000000000000
F0010000007933600004000080004943800023658300000000000000000201511240002001PAPELERIA EL CID S.A.                             C000000000210000000000000000000000100010010000000000000000000000F0010000007933600420151124000101 00000000000000000000000000000000000000000000000000000000000000000000000000000000000000000000000000000000000000000N 00000000000NCONT   00    00000000000          00000000000000000000000000000000000000000000 000000000000000A000000000000000000000000000000000000000000000 000000000000000000000000000000000000000     00000000                                                                                                                        000000000000000000
F0010000007933600005000080004943800013552100000000000000000201511240002001PAPELERIA EL CID S.A.                             D000000000210000000000000000000000100010010000000000000000000000F0010000007933600520151124000101 00000000000000000000000000000000000000000000000000000000000000000000000000000000000000000000000000000000000000000N 00000000000NCONT   00    00000000000          00000000000000000000000000000000000000000000 000000000000000A000000000000000000000000000000000000000000000 000000000000000000000000000000000000000     00000000                                                                                                                        000000000000000000
F0010000007933700001000080004943800013050500000000000000000201511240002001PAPELERIA EL CID S.A.                             D000000042860000000000000000000000100010010000000000000000000000F0010000007933700120151124000101 00000000000000000000000000000000000000000000000000000000000000000000000000000000000000000000000000000000000000000N 00000000000NCONT   00    00000000000          00000000000000000000000000000000000000000000 000000000000000A000000000000000000000000000000000000000000000 000000000000000000000000000000000000000     00000000                                                                                                                        000000000000000000
F0010000007933700002000080004943800041450500000000000000000201511240002001PAPELERIA EL CID S.A.                             C000000036610000000000000000000000100010010000000000000000000000F0010000007933700220151124000101 00000000000000000000000000000000000000000000000000000000000000000000000000000000000000000000000000000000000000000N 00000000000NCONT   00    00000000000          00000000000000000000000000000000000000000000 000000000000000A000000000000000000000000000000000000000000000 000000000000000000000000000000000000000     00000000                                                                                                                        000000000000000000
F0010000007933700003000080004943800042505000000000000000000201511240002001PAPELERIA EL CID S.A.                             C000000006250000000000000000000000100010010000000000000000000000F0010000007933700320151124000101 00000000000000000000000000000000000000000000000000000000000000000000000000000000000000000000000000000000000000000N 00000000000NCONT   00    00000000000          00000000000000000000000000000000000000000000 000000000000000A000000000000000000000000000000000000000000000 000000000000000000000000000000000000000     00000000                                                                                                                        000000000000000000
F0010000007933700004000080004943800023658300000000000000000201511240002001PAPELERIA EL CID S.A.                             C000000000292900000000000000000000100010010000000000000000000000F0010000007933700420151124000101 00000000000000000000000000000000000000000000000000000000000000000000000000000000000000000000000000000000000000000N 00000000000NCONT   00    00000000000          00000000000000000000000000000000000000000000 000000000000000A000000000000000000000000000000000000000000000 000000000000000000000000000000000000000     00000000                                                                                                                        000000000000000000
F0010000007933700005000080004943800013552100000000000000000201511240002001PAPELERIA EL CID S.A.                             D000000000292900000000000000000000100010010000000000000000000000F0010000007933700520151124000101 00000000000000000000000000000000000000000000000000000000000000000000000000000000000000000000000000000000000000000N 00000000000NCONT   00    00000000000          00000000000000000000000000000000000000000000 000000000000000A000000000000000000000000000000000000000000000 000000000000000000000000000000000000000     00000000                                                                                                                        000000000000000000
F0010000007933800001000090080946500013050500000000000000000201511240002001INVERSIONES AFAP SAS                              D000000005570900000000000000000000100010010000000000000000000000F0010000007933800120151124000101 00000000000000000000000000000000000000000000000000000000000000000000000000000000000000000000000000000000000000000N 00000000000NCONT   00    00000000000          00000000000000000000000000000000000000000000 000000000000000A000000000000000000000000000000000000000000000 000000000000000000000000000000000000000     00000000                                                                                                                        000000000000000000
F0010000007933800002000090080946500041450500000000000000000201511240002001INVERSIONES AFAP SAS                              C000000003020000000000000000000000100010010000000000000000000000F0010000007933800220151124000101 00000000000000000000000000000000000000000000000000000000000000000000000000000000000000000000000000000000000000000N 00000000000NCONT   00    00000000000          00000000000000000000000000000000000000000000 000000000000000A000000000000000000000000000000000000000000000 000000000000000000000000000000000000000     00000000                                                                                                                        000000000000000000
F0010000007933800003000090080946500042505000000000000000000201511240002001INVERSIONES AFAP SAS                              C000000002550900000000000000000000100010010000000000000000000000F0010000007933800320151124000101 00000000000000000000000000000000000000000000000000000000000000000000000000000000000000000000000000000000000000000N 00000000000NCONT   00    00000000000          00000000000000000000000000000000000000000000 000000000000000A000000000000000000000000000000000000000000000 000000000000000000000000000000000000000     00000000                                                                                                                        000000000000000000
F0010000007933800004000090080946500023658300000000000000000201511240002001INVERSIONES AFAP SAS                              C000000000024200000000000000000000100010010000000000000000000000F0010000007933800420151124000101 00000000000000000000000000000000000000000000000000000000000000000000000000000000000000000000000000000000000000000N 00000000000NCONT   00    00000000000          00000000000000000000000000000000000000000000 000000000000000A000000000000000000000000000000000000000000000 000000000000000000000000000000000000000     00000000                                                                                                                        000000000000000000
F0010000007933800005000090080946500013552100000000000000000201511240002001INVERSIONES AFAP SAS                              D000000000024200000000000000000000100010010000000000000000000000F0010000007933800520151124000101 00000000000000000000000000000000000000000000000000000000000000000000000000000000000000000000000000000000000000000N 00000000000NCONT   00    00000000000          00000000000000000000000000000000000000000000 000000000000000A000000000000000000000000000000000000000000000 000000000000000000000000000000000000000     00000000                                                                                                                        000000000000000000
F0010000007933900001000090064337300013050500000000000000000201511240002001DISCOMERCIAL TEXTIL DEL CARIBE SAS                D000000007050000000000000000000000100010010000000000000000000000F0010000007933900120151124000101 00000000000000000000000000000000000000000000000000000000000000000000000000000000000000000000000000000000000000000N 00000000000NCONT   00    00000000000          00000000000000000000000000000000000000000000 000000000000000A000000000000000000000000000000000000000000000 000000000000000000000000000000000000000     00000000                                                                                                                        000000000000000000
F0010000007933900002000090064337300041450500000000000000000201511240002001DISCOMERCIAL TEXTIL DEL CARIBE SAS                C000000006330000000000000000000000100010010000000000000000000000F0010000007933900220151124000101 00000000000000000000000000000000000000000000000000000000000000000000000000000000000000000000000000000000000000000N 00000000000NCONT   00    00000000000          00000000000000000000000000000000000000000000 000000000000000A000000000000000000000000000000000000000000000 000000000000000000000000000000000000000     00000000                                                                                                                        000000000000000000
F0010000007933900003000090064337300042505000000000000000000201511240002001DISCOMERCIAL TEXTIL DEL CARIBE SAS                C000000000720000000000000000000000100010010000000000000000000000F0010000007933900320151124000101 00000000000000000000000000000000000000000000000000000000000000000000000000000000000000000000000000000000000000000N 00000000000NCONT   00    00000000000          00000000000000000000000000000000000000000000 000000000000000A000000000000000000000000000000000000000000000 000000000000000000000000000000000000000     00000000                                                                                                                        000000000000000000
F0010000007933900004000090064337300023658300000000000000000201511240002001DISCOMERCIAL TEXTIL DEL CARIBE SAS                C000000000050600000000000000000000100010010000000000000000000000F0010000007933900420151124000101 00000000000000000000000000000000000000000000000000000000000000000000000000000000000000000000000000000000000000000N 00000000000NCONT   00    00000000000          00000000000000000000000000000000000000000000 000000000000000A000000000000000000000000000000000000000000000 000000000000000000000000000000000000000     00000000                                                                                                                        000000000000000000
F0010000007933900005000090064337300013552100000000000000000201511240002001DISCOMERCIAL TEXTIL DEL CARIBE SAS                D000000000050600000000000000000000100010010000000000000000000000F0010000007933900520151124000101 00000000000000000000000000000000000000000000000000000000000000000000000000000000000000000000000000000000000000000N 00000000000NCONT   00    00000000000          00000000000000000000000000000000000000000000 000000000000000A000000000000000000000000000000000000000000000 000000000000000000000000000000000000000     00000000                                                                                                                        000000000000000000
F0010000007934000001000000827614700013050500000000000000000201511240002001ALVARO  HERNAN  PEREZ ALVAREZ                     D000000016900000000000000000000000100010010000000000000000000000F0010000007934000120151124000101 00000000000000000000000000000000000000000000000000000000000000000000000000000000000000000000000000000000000000000N 00000000000NCONT   00    00000000000          00000000000000000000000000000000000000000000 000000000000000A000000000000000000000000000000000000000000000 000000000000000000000000000000000000000     00000000                                                                                                                        000000000000000000
F0010000007934000002000000827614700041450500000000000000000201511240002001ALVARO  HERNAN  PEREZ ALVAREZ                     C000000015600000000000000000000000100010010000000000000000000000F0010000007934000220151124000101 00000000000000000000000000000000000000000000000000000000000000000000000000000000000000000000000000000000000000000N 00000000000NCONT   00    00000000000          00000000000000000000000000000000000000000000 000000000000000A000000000000000000000000000000000000000000000 000000000000000000000000000000000000000     00000000                                                                                                                        000000000000000000
