F0010000010208200001000090044920600013050500000000000000000201707250002001QUATRO CARIBE SAS                                 D000000018195000000000000000000000100010010000000000000000000000F0010000010208200120170725000101 00000000000000000000000000000000000000000000000000000000000000000000000000000000000000000000000000000000000000000N 00000000000NCONT   00    00000000000          00000000000000000000000000000000000000000000 000000000000000A000000000000000000000000000000000000000000000 000000000000000000000000000000000000000     00000000                                                                                                                        000000000000000000
F0010000010208200002000090044920600041450500000000000000000201707250002001QUATRO CARIBE SAS                                 C000000014370000000000000000000000100010010000000000000000000000F0010000010208200220170725000101 00000000000000000000000000000000000000000000000000000000000000000000000000000000000000000000000000000000000000000N 00000000000NCONT   00    00000000000          00000000000000000000000000000000000000000000 000000000000000A000000000000000000000000000000000000000000000 000000000000000000000000000000000000000     00000000                                                                                                                        000000000000000000
F0010000010208200003000090044920600042505000000000000000000201707250002001QUATRO CARIBE SAS                                 C000000003825000000000000000000000100010010000000000000000000000F0010000010208200320170725000101 00000000000000000000000000000000000000000000000000000000000000000000000000000000000000000000000000000000000000000N 00000000000NCONT   00    00000000000          00000000000000000000000000000000000000000000 000000000000000A000000000000000000000000000000000000000000000 000000000000000000000000000000000000000     00000000                                                                                                                        000000000000000000
F0010000010208200004000090044920600023658300000000000000000201707250002001QUATRO CARIBE SAS                                 C000000000000000000000000000000000100010010000000000000000000000F0010000010208200420170725000101 00000000000000000000000000000000000000000000000000000000000000000000000000000000000000000000000000000000000000000N 00000000000NCONT   00    00000000000          00000000000000000000000000000000000000000000 000000000000000A000000000000000000000000000000000000000000000 000000000000000000000000000000000000000     00000000                                                                                                                        000000000000000000
F0010000010208200005000090044920600013552100000000000000000201707250002001QUATRO CARIBE SAS                                 D000000000000000000000000000000000100010010000000000000000000000F0010000010208200520170725000101 00000000000000000000000000000000000000000000000000000000000000000000000000000000000000000000000000000000000000000N 00000000000NCONT   00    00000000000          00000000000000000000000000000000000000000000 000000000000000A000000000000000000000000000000000000000000000 000000000000000000000000000000000000000     00000000                                                                                                                        000000000000000000
F0010000010208300001000089030195100013050500000000000000000201707250002001LIBRERIA NACIONAL S.A.                            D000000027960000000000000000000000100010010000000000000000000000F0010000010208300120170725000101 00000000000000000000000000000000000000000000000000000000000000000000000000000000000000000000000000000000000000000N 00000000000NCONT   00    00000000000          00000000000000000000000000000000000000000000 000000000000000A000000000000000000000000000000000000000000000 000000000000000000000000000000000000000     00000000                                                                                                                        000000000000000000
F0010000010208300002000089030195100041450500000000000000000201707250002001LIBRERIA NACIONAL S.A.                            C000000024000000000000000000000000100010010000000000000000000000F0010000010208300220170725000101 00000000000000000000000000000000000000000000000000000000000000000000000000000000000000000000000000000000000000000N 00000000000NCONT   00    00000000000          00000000000000000000000000000000000000000000 000000000000000A000000000000000000000000000000000000000000000 000000000000000000000000000000000000000     00000000                                                                                                                        000000000000000000
F0010000010208300003000089030195100042505000000000000000000201707250002001LIBRERIA NACIONAL S.A.                            C000000003960000000000000000000000100010010000000000000000000000F0010000010208300320170725000101 00000000000000000000000000000000000000000000000000000000000000000000000000000000000000000000000000000000000000000N 00000000000NCONT   00    00000000000          00000000000000000000000000000000000000000000 000000000000000A000000000000000000000000000000000000000000000 000000000000000000000000000000000000000     00000000                                                                                                                        000000000000000000
F0010000010208300004000089030195100023658300000000000000000201707250002001LIBRERIA NACIONAL S.A.                            C000000000000000000000000000000000100010010000000000000000000000F0010000010208300420170725000101 00000000000000000000000000000000000000000000000000000000000000000000000000000000000000000000000000000000000000000N 00000000000NCONT   00    00000000000          00000000000000000000000000000000000000000000 000000000000000A000000000000000000000000000000000000000000000 000000000000000000000000000000000000000     00000000                                                                                                                        000000000000000000
F0010000010208300005000089030195100013552100000000000000000201707250002001LIBRERIA NACIONAL S.A.                            D000000000000000000000000000000000100010010000000000000000000000F0010000010208300520170725000101 00000000000000000000000000000000000000000000000000000000000000000000000000000000000000000000000000000000000000000N 00000000000NCONT   00    00000000000          00000000000000000000000000000000000000000000 000000000000000A000000000000000000000000000000000000000000000 000000000000000000000000000000000000000     00000000                                                                                                                        000000000000000000
F0010000010208400001000080001063400013050500000000000000000201707250002001PRODUCTOS JULIAO SAS                              D000000031386000000000000000000000100010010000000000000000000000F0010000010208400120170725000101 00000000000000000000000000000000000000000000000000000000000000000000000000000000000000000000000000000000000000000N 00000000000NCONT   00    00000000000          00000000000000000000000000000000000000000000 000000000000000A000000000000000000000000000000000000000000000 000000000000000000000000000000000000000     00000000                                                                                                                        000000000000000000
F0010000010208400002000080001063400041450500000000000000000201707250002001PRODUCTOS JULIAO SAS                              C000000029880000000000000000000000100010010000000000000000000000F0010000010208400220170725000101 00000000000000000000000000000000000000000000000000000000000000000000000000000000000000000000000000000000000000000N 00000000000NCONT   00    00000000000          00000000000000000000000000000000000000000000 000000000000000A000000000000000000000000000000000000000000000 000000000000000000000000000000000000000     00000000                                                                                                                        000000000000000000
F0010000010208400003000080001063400042505000000000000000000201707250002001PRODUCTOS JULIAO SAS                              C000000001506000000000000000000000100010010000000000000000000000F0010000010208400320170725000101 00000000000000000000000000000000000000000000000000000000000000000000000000000000000000000000000000000000000000000N 00000000000NCONT   00    00000000000          00000000000000000000000000000000000000000000 000000000000000A000000000000000000000000000000000000000000000 000000000000000000000000000000000000000     00000000                                                                                                                        000000000000000000
F0010000010208400004000080001063400023658300000000000000000201707250002001PRODUCTOS JULIAO SAS                              C000000000000000000000000000000000100010010000000000000000000000F0010000010208400420170725000101 00000000000000000000000000000000000000000000000000000000000000000000000000000000000000000000000000000000000000000N 00000000000NCONT   00    00000000000          00000000000000000000000000000000000000000000 000000000000000A000000000000000000000000000000000000000000000 000000000000000000000000000000000000000     00000000                                                                                                                        000000000000000000
F0010000010208400005000080001063400013552100000000000000000201707250002001PRODUCTOS JULIAO SAS                              D000000000000000000000000000000000100010010000000000000000000000F0010000010208400520170725000101 00000000000000000000000000000000000000000000000000000000000000000000000000000000000000000000000000000000000000000N 00000000000NCONT   00    00000000000          00000000000000000000000000000000000000000000 000000000000000A000000000000000000000000000000000000000000000 000000000000000000000000000000000000000     00000000                                                                                                                        000000000000000000
F0010000010208500001000080201773400013050500000000000000000201707250002001DATALASER SAS                                     D000000019700000000000000000000000100010010000000000000000000000F0010000010208500120170725000101 00000000000000000000000000000000000000000000000000000000000000000000000000000000000000000000000000000000000000000N 00000000000NCONT   00    00000000000          00000000000000000000000000000000000000000000 000000000000000A000000000000000000000000000000000000000000000 000000000000000000000000000000000000000     00000000                                                                                                                        000000000000000000
F0010000010208500002000080201773400041450500000000000000000201707250002001DATALASER SAS                                     C000000019500000000000000000000000100010010000000000000000000000F0010000010208500220170725000101 00000000000000000000000000000000000000000000000000000000000000000000000000000000000000000000000000000000000000000N 00000000000NCONT   00    00000000000          00000000000000000000000000000000000000000000 000000000000000A000000000000000000000000000000000000000000000 000000000000000000000000000000000000000     00000000                                                                                                                        000000000000000000
F0010000010208500003000080201773400042505000000000000000000201707250002001DATALASER SAS                                     C000000000200000000000000000000000100010010000000000000000000000F0010000010208500320170725000101 00000000000000000000000000000000000000000000000000000000000000000000000000000000000000000000000000000000000000000N 00000000000NCONT   00    00000000000          00000000000000000000000000000000000000000000 000000000000000A000000000000000000000000000000000000000000000 000000000000000000000000000000000000000     00000000                                                                                                                        000000000000000000
F0010000010208500004000080201773400023658300000000000000000201707250002001DATALASER SAS                                     C000000000000000000000000000000000100010010000000000000000000000F0010000010208500420170725000101 00000000000000000000000000000000000000000000000000000000000000000000000000000000000000000000000000000000000000000N 00000000000NCONT   00    00000000000          00000000000000000000000000000000000000000000 000000000000000A000000000000000000000000000000000000000000000 000000000000000000000000000000000000000     00000000                                                                                                                        000000000000000000
F0010000010208500005000080201773400013552100000000000000000201707250002001DATALASER SAS                                     D000000000000000000000000000000000100010010000000000000000000000F0010000010208500520170725000101 00000000000000000000000000000000000000000000000000000000000000000000000000000000000000000000000000000000000000000N 00000000000NCONT   00    00000000000          00000000000000000000000000000000000000000000 000000000000000A000000000000000000000000000000000000000000000 000000000000000000000000000000000000000     00000000                                                                                                                        000000000000000000
F0010000010208600001000000870907300013050500000000000000000201707250002001SURTIDOR FERRETERO                                D000000029271000000000000000000000100010010000000000000000000000F0010000010208600120170725000101 00000000000000000000000000000000000000000000000000000000000000000000000000000000000000000000000000000000000000000N 00000000000NCONT   00    00000000000          00000000000000000000000000000000000000000000 000000000000000A000000000000000000000000000000000000000000000 000000000000000000000000000000000000000     00000000                                                                                                                        000000000000000000
F0010000010208600002000000870907300041450500000000000000000201707250002001SURTIDOR FERRETERO                                C000000022360000000000000000000000100010010000000000000000000000F0010000010208600220170725000101 00000000000000000000000000000000000000000000000000000000000000000000000000000000000000000000000000000000000000000N 00000000000NCONT   00    00000000000          00000000000000000000000000000000000000000000 000000000000000A000000000000000000000000000000000000000000000 000000000000000000000000000000000000000     00000000                                                                                                                        000000000000000000
F0010000010208600003000000870907300041750100000000000000000201707250002001SURTIDOR FERRETERO                                D000000002236000000000000000000000100010010000000000000000000000F0010000010208600320170725000101 00000000000000000000000000000000000000000000000000000000000000000000000000000000000000000000000000000000000000000N 00000000000NCONT   00    00000000000          00000000000000000000000000000000000000000000 000000000000000A000000000000000000000000000000000000000000000 000000000000000000000000000000000000000     00000000                                                                                                                        000000000000000000
F0010000010208600004000000870907300042505000000000000000000201707250002001SURTIDOR FERRETERO                                C000000009147000000000000000000000100010010000000000000000000000F0010000010208600420170725000101 00000000000000000000000000000000000000000000000000000000000000000000000000000000000000000000000000000000000000000N 00000000000NCONT   00    00000000000          00000000000000000000000000000000000000000000 000000000000000A000000000000000000000000000000000000000000000 000000000000000000000000000000000000000     00000000                                                                                                                        000000000000000000
F0010000010208600005000000870907300023658300000000000000000201707250002001SURTIDOR FERRETERO                                C000000000000000000000000000000000100010010000000000000000000000F0010000010208600520170725000101 00000000000000000000000000000000000000000000000000000000000000000000000000000000000000000000000000000000000000000N 00000000000NCONT   00    00000000000          00000000000000000000000000000000000000000000 000000000000000A000000000000000000000000000000000000000000000 000000000000000000000000000000000000000     00000000                                                                                                                        000000000000000000
F0010000010208600006000000870907300013552100000000000000000201707250002001SURTIDOR FERRETERO                                D000000000000000000000000000000000100010010000000000000000000000F0010000010208600620170725000101 00000000000000000000000000000000000000000000000000000000000000000000000000000000000000000000000000000000000000000N 00000000000NCONT   00    00000000000          00000000000000000000000000000000000000000000 000000000000000A000000000000000000000000000000000000000000000 000000000000000000000000000000000000000     00000000                                                                                                                        000000000000000000
F0010000010208700001000080200250700013050500000000000000000201707250002001ETICOL SAS                                        D000000054590000000000000000000000100010010000000000000000000000F0010000010208700120170725000101 00000000000000000000000000000000000000000000000000000000000000000000000000000000000000000000000000000000000000000N 00000000000NCONT   00    00000000000          00000000000000000000000000000000000000000000 000000000000000A000000000000000000000000000000000000000000000 000000000000000000000000000000000000000     00000000                                                                                                                        000000000000000000
F0010000010208700002000080200250700041450500000000000000000201707250002001ETICOL SAS                                        C000000049290000000000000000000000100010010000000000000000000000F0010000010208700220170725000101 00000000000000000000000000000000000000000000000000000000000000000000000000000000000000000000000000000000000000000N 00000000000NCONT   00    00000000000          00000000000000000000000000000000000000000000 000000000000000A000000000000000000000000000000000000000000000 000000000000000000000000000000000000000     00000000                                                                                                                        000000000000000000
F0010000010208700003000080200250700042505000000000000000000201707250002001ETICOL SAS                                        C000000005300000000000000000000000100010010000000000000000000000F0010000010208700320170725000101 00000000000000000000000000000000000000000000000000000000000000000000000000000000000000000000000000000000000000000N 00000000000NCONT   00    00000000000          00000000000000000000000000000000000000000000 000000000000000A000000000000000000000000000000000000000000000 000000000000000000000000000000000000000     00000000                                                                                                                        000000000000000000
F0010000010208700004000080200250700023658300000000000000000201707250002001ETICOL SAS                                        C000000000000000000000000000000000100010010000000000000000000000F0010000010208700420170725000101 00000000000000000000000000000000000000000000000000000000000000000000000000000000000000000000000000000000000000000N 00000000000NCONT   00    00000000000          00000000000000000000000000000000000000000000 000000000000000A000000000000000000000000000000000000000000000 000000000000000000000000000000000000000     00000000                                                                                                                        000000000000000000
F0010000010208700005000080200250700013552100000000000000000201707250002001ETICOL SAS                                        D000000000000000000000000000000000100010010000000000000000000000F0010000010208700520170725000101 00000000000000000000000000000000000000000000000000000000000000000000000000000000000000000000000000000000000000000N 00000000000NCONT   00    00000000000          00000000000000000000000000000000000000000000 000000000000000A000000000000000000000000000000000000000000000 000000000000000000000000000000000000000     00000000                                                                                                                        000000000000000000
F0010000010208800001000090014415700013050500000000000000000201707250002001CORDELES Y EXTRUIDOS DE COLOMBIA S.A.S.           D000000011365600000000000000000000100010010000000000000000000000F0010000010208800120170725000101 00000000000000000000000000000000000000000000000000000000000000000000000000000000000000000000000000000000000000000N 00000000000NCONT   00    00000000000          00000000000000000000000000000000000000000000 000000000000000A000000000000000000000000000000000000000000000 000000000000000000000000000000000000000     00000000                                                                                                                        000000000000000000
F0010000010208800002000090014415700041450500000000000000000201707250002001CORDELES Y EXTRUIDOS DE COLOMBIA S.A.S.           C000000009768000000000000000000000100010010000000000000000000000F0010000010208800220170725000101 00000000000000000000000000000000000000000000000000000000000000000000000000000000000000000000000000000000000000000N 00000000000NCONT   00    00000000000          00000000000000000000000000000000000000000000 000000000000000A000000000000000000000000000000000000000000000 000000000000000000000000000000000000000     00000000                                                                                                                        000000000000000000
F0010000010208800003000090014415700042505000000000000000000201707250002001CORDELES Y EXTRUIDOS DE COLOMBIA S.A.S.           C000000001597600000000000000000000100010010000000000000000000000F0010000010208800320170725000101 00000000000000000000000000000000000000000000000000000000000000000000000000000000000000000000000000000000000000000N 00000000000NCONT   00    00000000000          00000000000000000000000000000000000000000000 000000000000000A000000000000000000000000000000000000000000000 000000000000000000000000000000000000000     00000000                                                                                                                        000000000000000000
F0010000010208800004000090014415700023658300000000000000000201707250002001CORDELES Y EXTRUIDOS DE COLOMBIA S.A.S.           C000000000000000000000000000000000100010010000000000000000000000F0010000010208800420170725000101 00000000000000000000000000000000000000000000000000000000000000000000000000000000000000000000000000000000000000000N 00000000000NCONT   00    00000000000          00000000000000000000000000000000000000000000 000000000000000A000000000000000000000000000000000000000000000 000000000000000000000000000000000000000     00000000                                                                                                                        000000000000000000
F0010000010208800005000090014415700013552100000000000000000201707250002001CORDELES Y EXTRUIDOS DE COLOMBIA S.A.S.           D000000000000000000000000000000000100010010000000000000000000000F0010000010208800520170725000101 00000000000000000000000000000000000000000000000000000000000000000000000000000000000000000000000000000000000000000N 00000000000NCONT   00    00000000000          00000000000000000000000000000000000000000000 000000000000000A000000000000000000000000000000000000000000000 000000000000000000000000000000000000000     00000000                                                                                                                        000000000000000000
F0010000010208900001000080018337600013050500000000000000000201707250002001CENTRO FERRETERO INDUSTRIAL S.A.S                 D000000006000000000000000000000000100010010000000000000000000000F0010000010208900120170725000101 00000000000000000000000000000000000000000000000000000000000000000000000000000000000000000000000000000000000000000N 00000000000NCONT   00    00000000000          00000000000000000000000000000000000000000000 000000000000000A000000000000000000000000000000000000000000000 000000000000000000000000000000000000000     00000000                                                                                                                        000000000000000000
F0010000010208900002000080018337600041450500000000000000000201707250002001CENTRO FERRETERO INDUSTRIAL S.A.S                 C000000005900000000000000000000000100010010000000000000000000000F0010000010208900220170725000101 00000000000000000000000000000000000000000000000000000000000000000000000000000000000000000000000000000000000000000N 00000000000NCONT   00    00000000000          00000000000000000000000000000000000000000000 000000000000000A000000000000000000000000000000000000000000000 000000000000000000000000000000000000000     00000000                                                                                                                        000000000000000000
F0010000010208900003000080018337600042505000000000000000000201707250002001CENTRO FERRETERO INDUSTRIAL S.A.S                 C000000000100000000000000000000000100010010000000000000000000000F0010000010208900320170725000101 00000000000000000000000000000000000000000000000000000000000000000000000000000000000000000000000000000000000000000N 00000000000NCONT   00    00000000000          00000000000000000000000000000000000000000000 000000000000000A000000000000000000000000000000000000000000000 000000000000000000000000000000000000000     00000000                                                                                                                        000000000000000000
F0010000010208900004000080018337600023658300000000000000000201707250002001CENTRO FERRETERO INDUSTRIAL S.A.S                 C000000000000000000000000000000000100010010000000000000000000000F0010000010208900420170725000101 00000000000000000000000000000000000000000000000000000000000000000000000000000000000000000000000000000000000000000N 00000000000NCONT   00    00000000000          00000000000000000000000000000000000000000000 000000000000000A000000000000000000000000000000000000000000000 000000000000000000000000000000000000000     00000000                                                                                                                        000000000000000000
F0010000010208900005000080018337600013552100000000000000000201707250002001CENTRO FERRETERO INDUSTRIAL S.A.S                 D000000000000000000000000000000000100010010000000000000000000000F0010000010208900520170725000101 00000000000000000000000000000000000000000000000000000000000000000000000000000000000000000000000000000000000000000N 00000000000NCONT   00    00000000000          00000000000000000000000000000000000000000000 000000000000000A000000000000000000000000000000000000000000000 000000000000000000000000000000000000000     00000000                                                                                                                        000000000000000000
F0010000010209000001000090106344000013050500000000000000000201707250002001REPRESENTACIONES FERRELECTRICAS SAS (EDDIE CIRO)  D000000017125800000000000000000000100010010000000000000000000000F0010000010209000120170725000101 00000000000000000000000000000000000000000000000000000000000000000000000000000000000000000000000000000000000000000N 00000000000NCONT   00    00000000000          00000000000000000000000000000000000000000000 000000000000000A000000000000000000000000000000000000000000000 000000000000000000000000000000000000000     00000000                                                                                                                        000000000000000000
F0010000010209000002000090106344000041450500000000000000000201707250002001REPRESENTACIONES FERRELECTRICAS SAS (EDDIE CIRO)  C000000012680000000000000000000000100010010000000000000000000000F0010000010209000220170725000101 00000000000000000000000000000000000000000000000000000000000000000000000000000000000000000000000000000000000000000N 00000000000NCONT   00    00000000000          00000000000000000000000000000000000000000000 000000000000000A000000000000000000000000000000000000000000000 000000000000000000000000000000000000000     00000000                                                                                                                        000000000000000000
F0010000010209000003000090106344000042505000000000000000000201707250002001REPRESENTACIONES FERRELECTRICAS SAS (EDDIE CIRO)  C000000004445800000000000000000000100010010000000000000000000000F0010000010209000320170725000101 00000000000000000000000000000000000000000000000000000000000000000000000000000000000000000000000000000000000000000N 00000000000NCONT   00    00000000000          00000000000000000000000000000000000000000000 000000000000000A000000000000000000000000000000000000000000000 000000000000000000000000000000000000000     00000000                                                                                                                        000000000000000000
F0010000010209000004000090106344000023658300000000000000000201707250002001REPRESENTACIONES FERRELECTRICAS SAS (EDDIE CIRO)  C000000000000000000000000000000000100010010000000000000000000000F0010000010209000420170725000101 00000000000000000000000000000000000000000000000000000000000000000000000000000000000000000000000000000000000000000N 00000000000NCONT   00    00000000000          00000000000000000000000000000000000000000000 000000000000000A000000000000000000000000000000000000000000000 000000000000000000000000000000000000000     00000000                                                                                                                        000000000000000000
F0010000010209000005000090106344000013552100000000000000000201707250002001REPRESENTACIONES FERRELECTRICAS SAS (EDDIE CIRO)  D000000000000000000000000000000000100010010000000000000000000000F0010000010209000520170725000101 00000000000000000000000000000000000000000000000000000000000000000000000000000000000000000000000000000000000000000N 00000000000NCONT   00    00000000000          00000000000000000000000000000000000000000000 000000000000000A000000000000000000000000000000000000000000000 000000000000000000000000000000000000000     00000000                                                                                                                        000000000000000000
F0010000010209100001000090038852800013050500000000000000000201707250002001EL COMERCIO ELECTRICO DE LA CO                    D000000025980000000000000000000000100010010000000000000000000000F0010000010209100120170725000101 00000000000000000000000000000000000000000000000000000000000000000000000000000000000000000000000000000000000000000N 00000000000NCONT   00    00000000000          00000000000000000000000000000000000000000000 000000000000000A000000000000000000000000000000000000000000000 000000000000000000000000000000000000000     00000000                                                                                                                        000000000000000000
F0010000010209100002000090038852800041450500000000000000000201707250002001EL COMERCIO ELECTRICO DE LA CO                    C000000022230000000000000000000000100010010000000000000000000000F0010000010209100220170725000101 00000000000000000000000000000000000000000000000000000000000000000000000000000000000000000000000000000000000000000N 00000000000NCONT   00    00000000000          00000000000000000000000000000000000000000000 000000000000000A000000000000000000000000000000000000000000000 000000000000000000000000000000000000000     00000000                                                                                                                        000000000000000000
F0010000010209100003000090038852800042505000000000000000000201707250002001EL COMERCIO ELECTRICO DE LA CO                    C000000003750000000000000000000000100010010000000000000000000000F0010000010209100320170725000101 00000000000000000000000000000000000000000000000000000000000000000000000000000000000000000000000000000000000000000N 00000000000NCONT   00    00000000000          00000000000000000000000000000000000000000000 000000000000000A000000000000000000000000000000000000000000000 000000000000000000000000000000000000000     00000000                                                                                                                        000000000000000000
F0010000010209100004000090038852800023658300000000000000000201707250002001EL COMERCIO ELECTRICO DE LA CO                    C000000000000000000000000000000000100010010000000000000000000000F0010000010209100420170725000101 00000000000000000000000000000000000000000000000000000000000000000000000000000000000000000000000000000000000000000N 00000000000NCONT   00    00000000000          00000000000000000000000000000000000000000000 000000000000000A000000000000000000000000000000000000000000000 000000000000000000000000000000000000000     00000000                                                                                                                        000000000000000000
F0010000010209100005000090038852800013552100000000000000000201707250002001EL COMERCIO ELECTRICO DE LA CO                    D000000000000000000000000000000000100010010000000000000000000000F0010000010209100520170725000101 00000000000000000000000000000000000000000000000000000000000000000000000000000000000000000000000000000000000000000N 00000000000NCONT   00    00000000000          00000000000000000000000000000000000000000000 000000000000000A000000000000000000000000000000000000000000000 000000000000000000000000000000000000000     00000000                                                                                                                        000000000000000000
F0010000010209200001000000744822500013050500000000000000000201707250002001LABORATORIO Y PERFUMERIA BORGE                    D000000015827000000000000000000000100010010000000000000000000000F0010000010209200120170725000101 00000000000000000000000000000000000000000000000000000000000000000000000000000000000000000000000000000000000000000N 00000000000NCONT   00    00000000000          00000000000000000000000000000000000000000000 000000000000000A000000000000000000000000000000000000000000000 000000000000000000000000000000000000000     00000000                                                                                                                        000000000000000000
F0010000010209200002000000744822500041450500000000000000000201707250002001LABORATORIO Y PERFUMERIA BORGE                    C000000010613000000000000000000000100010010000000000000000000000F0010000010209200220170725000101 00000000000000000000000000000000000000000000000000000000000000000000000000000000000000000000000000000000000000000N 00000000000NCONT   00    00000000000          00000000000000000000000000000000000000000000 000000000000000A000000000000000000000000000000000000000000000 000000000000000000000000000000000000000     00000000                                                                                                                        000000000000000000
F0010000010209200003000000744822500042505000000000000000000201707250002001LABORATORIO Y PERFUMERIA BORGE                    C000000005214000000000000000000000100010010000000000000000000000F0010000010209200320170725000101 00000000000000000000000000000000000000000000000000000000000000000000000000000000000000000000000000000000000000000N 00000000000NCONT   00    00000000000          00000000000000000000000000000000000000000000 000000000000000A000000000000000000000000000000000000000000000 000000000000000000000000000000000000000     00000000                                                                                                                        000000000000000000
F0010000010209200004000000744822500023658300000000000000000201707250002001LABORATORIO Y PERFUMERIA BORGE                    C000000000000000000000000000000000100010010000000000000000000000F0010000010209200420170725000101 00000000000000000000000000000000000000000000000000000000000000000000000000000000000000000000000000000000000000000N 00000000000NCONT   00    00000000000          00000000000000000000000000000000000000000000 000000000000000A000000000000000000000000000000000000000000000 000000000000000000000000000000000000000     00000000                                                                                                                        000000000000000000
F0010000010209200005000000744822500013552100000000000000000201707250002001LABORATORIO Y PERFUMERIA BORGE                    D000000000000000000000000000000000100010010000000000000000000000F0010000010209200520170725000101 00000000000000000000000000000000000000000000000000000000000000000000000000000000000000000000000000000000000000000N 00000000000NCONT   00    00000000000          00000000000000000000000000000000000000000000 000000000000000A000000000000000000000000000000000000000000000 000000000000000000000000000000000000000     00000000                                                                                                                        000000000000000000
F0010000010209300001000089010952800013050500000000000000000201707250002001IND. LITOGRAF. BOSTON S.A.S.                      D000000041570000000000000000000000100010010000000000000000000000F0010000010209300120170725000101 00000000000000000000000000000000000000000000000000000000000000000000000000000000000000000000000000000000000000000N 00000000000NCONT   00    00000000000          00000000000000000000000000000000000000000000 000000000000000A000000000000000000000000000000000000000000000 000000000000000000000000000000000000000     00000000                                                                                                                        000000000000000000
F0010000010209300002000089010952800041450500000000000000000201707250002001IND. LITOGRAF. BOSTON S.A.S.                      C000000037870000000000000000000000100010010000000000000000000000F0010000010209300220170725000101 00000000000000000000000000000000000000000000000000000000000000000000000000000000000000000000000000000000000000000N 00000000000NCONT   00    00000000000          00000000000000000000000000000000000000000000 000000000000000A000000000000000000000000000000000000000000000 000000000000000000000000000000000000000     00000000                                                                                                                        000000000000000000
F0010000010209300003000089010952800042505000000000000000000201707250002001IND. LITOGRAF. BOSTON S.A.S.                      C000000003700000000000000000000000100010010000000000000000000000F0010000010209300320170725000101 00000000000000000000000000000000000000000000000000000000000000000000000000000000000000000000000000000000000000000N 00000000000NCONT   00    00000000000          00000000000000000000000000000000000000000000 000000000000000A000000000000000000000000000000000000000000000 000000000000000000000000000000000000000     00000000                                                                                                                        000000000000000000
F0010000010209300004000089010952800023658300000000000000000201707250002001IND. LITOGRAF. BOSTON S.A.S.                      C000000000000000000000000000000000100010010000000000000000000000F0010000010209300420170725000101 00000000000000000000000000000000000000000000000000000000000000000000000000000000000000000000000000000000000000000N 00000000000NCONT   00    00000000000          00000000000000000000000000000000000000000000 000000000000000A000000000000000000000000000000000000000000000 000000000000000000000000000000000000000     00000000                                                                                                                        000000000000000000
F0010000010209300005000089010952800013552100000000000000000201707250002001IND. LITOGRAF. BOSTON S.A.S.                      D000000000000000000000000000000000100010010000000000000000000000F0010000010209300520170725000101 00000000000000000000000000000000000000000000000000000000000000000000000000000000000000000000000000000000000000000N 00000000000NCONT   00    00000000000          00000000000000000000000000000000000000000000 000000000000000A000000000000000000000000000000000000000000000 000000000000000000000000000000000000000     00000000                                                                                                                        000000000000000000
F0010000010209400001000004175790100013050500000000000000000201707250002001ROSIRIS FERIA HOYOS  (COSM. SHILLER)              D000000009000000000000000000000000100010010000000000000000000000F0010000010209400120170725000101 00000000000000000000000000000000000000000000000000000000000000000000000000000000000000000000000000000000000000000N 00000000000NCONT   00    00000000000          00000000000000000000000000000000000000000000 000000000000000A000000000000000000000000000000000000000000000 000000000000000000000000000000000000000     00000000                                                                                                                        000000000000000000
F0010000010209400002000004175790100041450500000000000000000201707250002001ROSIRIS FERIA HOYOS  (COSM. SHILLER)              C000000006900000000000000000000000100010010000000000000000000000F0010000010209400220170725000101 00000000000000000000000000000000000000000000000000000000000000000000000000000000000000000000000000000000000000000N 00000000000NCONT   00    00000000000          00000000000000000000000000000000000000000000 000000000000000A000000000000000000000000000000000000000000000 000000000000000000000000000000000000000     00000000                                                                                                                        000000000000000000
F0010000010209400003000004175790100042505000000000000000000201707250002001ROSIRIS FERIA HOYOS  (COSM. SHILLER)              C000000002100000000000000000000000100010010000000000000000000000F0010000010209400320170725000101 00000000000000000000000000000000000000000000000000000000000000000000000000000000000000000000000000000000000000000N 00000000000NCONT   00    00000000000          00000000000000000000000000000000000000000000 000000000000000A000000000000000000000000000000000000000000000 000000000000000000000000000000000000000     00000000                                                                                                                        000000000000000000
F0010000010209400004000004175790100023658300000000000000000201707250002001ROSIRIS FERIA HOYOS  (COSM. SHILLER)              C000000000000000000000000000000000100010010000000000000000000000F0010000010209400420170725000101 00000000000000000000000000000000000000000000000000000000000000000000000000000000000000000000000000000000000000000N 00000000000NCONT   00    00000000000          00000000000000000000000000000000000000000000 000000000000000A000000000000000000000000000000000000000000000 000000000000000000000000000000000000000     00000000                                                                                                                        000000000000000000
F0010000010209400005000004175790100013552100000000000000000201707250002001ROSIRIS FERIA HOYOS  (COSM. SHILLER)              D000000000000000000000000000000000100010010000000000000000000000F0010000010209400520170725000101 00000000000000000000000000000000000000000000000000000000000000000000000000000000000000000000000000000000000000000N 00000000000NCONT   00    00000000000          00000000000000000000000000000000000000000000 000000000000000A000000000000000000000000000000000000000000000 000000000000000000000000000000000000000     00000000                                                                                                                        000000000000000000
F0010000010209500001000001022529300013050500000000000000000201707250002001ALBERTO ALVAREZ ISAZA                             D000000006489300000000000000000000100010010000000000000000000000F0010000010209500120170725000101 00000000000000000000000000000000000000000000000000000000000000000000000000000000000000000000000000000000000000000N 00000000000NCONT   00    00000000000          00000000000000000000000000000000000000000000 000000000000000A000000000000000000000000000000000000000000000 000000000000000000000000000000000000000     00000000                                                                                                                        000000000000000000
F0010000010209500002000001022529300041450500000000000000000201707250002001ALBERTO ALVAREZ ISAZA                             C000000006210000000000000000000000100010010000000000000000000000F0010000010209500220170725000101 00000000000000000000000000000000000000000000000000000000000000000000000000000000000000000000000000000000000000000N 00000000000NCONT   00    00000000000          00000000000000000000000000000000000000000000 000000000000000A000000000000000000000000000000000000000000000 000000000000000000000000000000000000000     00000000                                                                                                                        000000000000000000
F0010000010209500003000001022529300042505000000000000000000201707250002001ALBERTO ALVAREZ ISAZA                             C000000000279300000000000000000000100010010000000000000000000000F0010000010209500320170725000101 00000000000000000000000000000000000000000000000000000000000000000000000000000000000000000000000000000000000000000N 00000000000NCONT   00    00000000000          00000000000000000000000000000000000000000000 000000000000000A000000000000000000000000000000000000000000000 000000000000000000000000000000000000000     00000000                                                                                                                        000000000000000000
F0010000010209500004000001022529300023658300000000000000000201707250002001ALBERTO ALVAREZ ISAZA                             C000000000000000000000000000000000100010010000000000000000000000F0010000010209500420170725000101 00000000000000000000000000000000000000000000000000000000000000000000000000000000000000000000000000000000000000000N 00000000000NCONT   00    00000000000          00000000000000000000000000000000000000000000 000000000000000A000000000000000000000000000000000000000000000 000000000000000000000000000000000000000     00000000                                                                                                                        000000000000000000
F0010000010209500005000001022529300013552100000000000000000201707250002001ALBERTO ALVAREZ ISAZA                             D000000000000000000000000000000000100010010000000000000000000000F0010000010209500520170725000101 00000000000000000000000000000000000000000000000000000000000000000000000000000000000000000000000000000000000000000N 00000000000NCONT   00    00000000000          00000000000000000000000000000000000000000000 000000000000000A000000000000000000000000000000000000000000000 000000000000000000000000000000000000000     00000000                                                                                                                        000000000000000000
F0010000010209600001000000431178400013050500000000000000000201707250002001EFRAIN ALVAREZ                                    D000000014670000000000000000000000100010010000000000000000000000F0010000010209600120170725000101 00000000000000000000000000000000000000000000000000000000000000000000000000000000000000000000000000000000000000000N 00000000000NCONT   00    00000000000          00000000000000000000000000000000000000000000 000000000000000A000000000000000000000000000000000000000000000 000000000000000000000000000000000000000     00000000                                                                                                                        000000000000000000
F0010000010209600002000000431178400041450500000000000000000201707250002001EFRAIN ALVAREZ                                    C000000013920000000000000000000000100010010000000000000000000000F0010000010209600220170725000101 00000000000000000000000000000000000000000000000000000000000000000000000000000000000000000000000000000000000000000N 00000000000NCONT   00    00000000000          00000000000000000000000000000000000000000000 000000000000000A000000000000000000000000000000000000000000000 000000000000000000000000000000000000000     00000000                                                                                                                        000000000000000000
F0010000010209600003000000431178400042505000000000000000000201707250002001EFRAIN ALVAREZ                                    C000000000750000000000000000000000100010010000000000000000000000F0010000010209600320170725000101 00000000000000000000000000000000000000000000000000000000000000000000000000000000000000000000000000000000000000000N 00000000000NCONT   00    00000000000          00000000000000000000000000000000000000000000 000000000000000A000000000000000000000000000000000000000000000 000000000000000000000000000000000000000     00000000                                                                                                                        000000000000000000
F0010000010209600004000000431178400023658300000000000000000201707250002001EFRAIN ALVAREZ                                    C000000000000000000000000000000000100010010000000000000000000000F0010000010209600420170725000101 00000000000000000000000000000000000000000000000000000000000000000000000000000000000000000000000000000000000000000N 00000000000NCONT   00    00000000000          00000000000000000000000000000000000000000000 000000000000000A000000000000000000000000000000000000000000000 000000000000000000000000000000000000000     00000000                                                                                                                        000000000000000000
F0010000010209600005000000431178400013552100000000000000000201707250002001EFRAIN ALVAREZ                                    D000000000000000000000000000000000100010010000000000000000000000F0010000010209600520170725000101 00000000000000000000000000000000000000000000000000000000000000000000000000000000000000000000000000000000000000000N 00000000000NCONT   00    00000000000          00000000000000000000000000000000000000000000 000000000000000A000000000000000000000000000000000000000000000 000000000000000000000000000000000000000     00000000                                                                                                                        000000000000000000
F0010000010209700001000090019362000013050500000000000000000201707250002001GENERAL SUPPLIES CIA LTDA                         D000000014786000000000000000000000100010010000000000000000000000F0010000010209700120170725000101 00000000000000000000000000000000000000000000000000000000000000000000000000000000000000000000000000000000000000000N 00000000000NCONT   00    00000000000          00000000000000000000000000000000000000000000 000000000000000A000000000000000000000000000000000000000000000 000000000000000000000000000000000000000     00000000                                                                                                                        000000000000000000
F0010000010209700002000090019362000041450500000000000000000201707250002001GENERAL SUPPLIES CIA LTDA                         C000000013050000000000000000000000100010010000000000000000000000F0010000010209700220170725000101 00000000000000000000000000000000000000000000000000000000000000000000000000000000000000000000000000000000000000000N 00000000000NCONT   00    00000000000          00000000000000000000000000000000000000000000 000000000000000A000000000000000000000000000000000000000000000 000000000000000000000000000000000000000     00000000                                                                                                                        000000000000000000
F0010000010209700003000090019362000042505000000000000000000201707250002001GENERAL SUPPLIES CIA LTDA                         C000000001736000000000000000000000100010010000000000000000000000F0010000010209700320170725000101 00000000000000000000000000000000000000000000000000000000000000000000000000000000000000000000000000000000000000000N 00000000000NCONT   00    00000000000          00000000000000000000000000000000000000000000 000000000000000A000000000000000000000000000000000000000000000 000000000000000000000000000000000000000     00000000                                                                                                                        000000000000000000
F0010000010209700004000090019362000023658300000000000000000201707250002001GENERAL SUPPLIES CIA LTDA                         C000000000000000000000000000000000100010010000000000000000000000F0010000010209700420170725000101 00000000000000000000000000000000000000000000000000000000000000000000000000000000000000000000000000000000000000000N 00000000000NCONT   00    00000000000          00000000000000000000000000000000000000000000 000000000000000A000000000000000000000000000000000000000000000 000000000000000000000000000000000000000     00000000                                                                                                                        000000000000000000
F0010000010209700005000090019362000013552100000000000000000201707250002001GENERAL SUPPLIES CIA LTDA                         D000000000000000000000000000000000100010010000000000000000000000F0010000010209700520170725000101 00000000000000000000000000000000000000000000000000000000000000000000000000000000000000000000000000000000000000000N 00000000000NCONT   00    00000000000          00000000000000000000000000000000000000000000 000000000000000A000000000000000000000000000000000000000000000 000000000000000000000000000000000000000     00000000                                                                                                                        000000000000000000
F0010000010209800001000000827614700013050500000000000000000201707250002001ALVARO  HERNAN  PEREZ ALVAREZ                     D000000005200000000000000000000000100010010000000000000000000000F0010000010209800120170725000101 00000000000000000000000000000000000000000000000000000000000000000000000000000000000000000000000000000000000000000N 00000000000NCONT   00    00000000000          00000000000000000000000000000000000000000000 000000000000000A000000000000000000000000000000000000000000000 000000000000000000000000000000000000000     00000000                                                                                                                        000000000000000000
F0010000010209800002000000827614700041450500000000000000000201707250002001ALVARO  HERNAN  PEREZ ALVAREZ                     C000000004800000000000000000000000100010010000000000000000000000F0010000010209800220170725000101 00000000000000000000000000000000000000000000000000000000000000000000000000000000000000000000000000000000000000000N 00000000000NCONT   00    00000000000          00000000000000000000000000000000000000000000 000000000000000A000000000000000000000000000000000000000000000 000000000000000000000000000000000000000     00000000                                                                                                                        000000000000000000
F0010000010209800003000000827614700042505000000000000000000201707250002001ALVARO  HERNAN  PEREZ ALVAREZ                     C000000000400000000000000000000000100010010000000000000000000000F0010000010209800320170725000101 00000000000000000000000000000000000000000000000000000000000000000000000000000000000000000000000000000000000000000N 00000000000NCONT   00    00000000000          00000000000000000000000000000000000000000000 000000000000000A000000000000000000000000000000000000000000000 000000000000000000000000000000000000000     00000000                                                                                                                        000000000000000000
F0010000010209800004000000827614700023658300000000000000000201707250002001ALVARO  HERNAN  PEREZ ALVAREZ                     C000000000000000000000000000000000100010010000000000000000000000F0010000010209800420170725000101 00000000000000000000000000000000000000000000000000000000000000000000000000000000000000000000000000000000000000000N 00000000000NCONT   00    00000000000          00000000000000000000000000000000000000000000 000000000000000A000000000000000000000000000000000000000000000 000000000000000000000000000000000000000     00000000                                                                                                                        000000000000000000
F0010000010209800005000000827614700013552100000000000000000201707250002001ALVARO  HERNAN  PEREZ ALVAREZ                     D000000000000000000000000000000000100010010000000000000000000000F0010000010209800520170725000101 00000000000000000000000000000000000000000000000000000000000000000000000000000000000000000000000000000000000000000N 00000000000NCONT   00    00000000000          00000000000000000000000000000000000000000000 000000000000000A000000000000000000000000000000000000000000000 000000000000000000000000000000000000000     00000000                                                                                                                        000000000000000000
F0010000010209900001000080202132300013050500000000000000000201707250002001SUM Y SERV DE LA COSTA LTDA                       D000000013855000000000000000000000100010010000000000000000000000F0010000010209900120170725000101 00000000000000000000000000000000000000000000000000000000000000000000000000000000000000000000000000000000000000000N 00000000000NCONT   00    00000000000          00000000000000000000000000000000000000000000 000000000000000A000000000000000000000000000000000000000000000 000000000000000000000000000000000000000     00000000                                                                                                                        000000000000000000
F0010000010209900002000080202132300041450500000000000000000201707250002001SUM Y SERV DE LA COSTA LTDA                       C000000012720000000000000000000000100010010000000000000000000000F0010000010209900220170725000101 00000000000000000000000000000000000000000000000000000000000000000000000000000000000000000000000000000000000000000N 00000000000NCONT   00    00000000000          00000000000000000000000000000000000000000000 000000000000000A000000000000000000000000000000000000000000000 000000000000000000000000000000000000000     00000000                                                                                                                        000000000000000000
F0010000010209900003000080202132300042505000000000000000000201707250002001SUM Y SERV DE LA COSTA LTDA                       C000000001135000000000000000000000100010010000000000000000000000F0010000010209900320170725000101 00000000000000000000000000000000000000000000000000000000000000000000000000000000000000000000000000000000000000000N 00000000000NCONT   00    00000000000          00000000000000000000000000000000000000000000 000000000000000A000000000000000000000000000000000000000000000 000000000000000000000000000000000000000     00000000                                                                                                                        000000000000000000
F0010000010209900004000080202132300023658300000000000000000201707250002001SUM Y SERV DE LA COSTA LTDA                       C000000000000000000000000000000000100010010000000000000000000000F0010000010209900420170725000101 00000000000000000000000000000000000000000000000000000000000000000000000000000000000000000000000000000000000000000N 00000000000NCONT   00    00000000000          00000000000000000000000000000000000000000000 000000000000000A000000000000000000000000000000000000000000000 000000000000000000000000000000000000000     00000000                                                                                                                        000000000000000000
F0010000010209900005000080202132300013552100000000000000000201707250002001SUM Y SERV DE LA COSTA LTDA                       D000000000000000000000000000000000100010010000000000000000000000F0010000010209900520170725000101 00000000000000000000000000000000000000000000000000000000000000000000000000000000000000000000000000000000000000000N 00000000000NCONT   00    00000000000          00000000000000000000000000000000000000000000 000000000000000A000000000000000000000000000000000000000000000 000000000000000000000000000000000000000     00000000                                                                                                                        000000000000000000
F0010000010210000001000086003979400013050500000000000000000201707250002001CALYPSO BARRANQUILLA LTDA                         D000000039543300000000000000000000100010010000000000000000000000F0010000010210000120170725000101 00000000000000000000000000000000000000000000000000000000000000000000000000000000000000000000000000000000000000000N 00000000000NCONT   00    00000000000          00000000000000000000000000000000000000000000 000000000000000A000000000000000000000000000000000000000000000 000000000000000000000000000000000000000     00000000                                                                                                                        000000000000000000
F0010000010210000002000086003979400041450500000000000000000201707250002001CALYPSO BARRANQUILLA LTDA                         C000000036620000000000000000000000100010010000000000000000000000F0010000010210000220170725000101 00000000000000000000000000000000000000000000000000000000000000000000000000000000000000000000000000000000000000000N 00000000000NCONT   00    00000000000          00000000000000000000000000000000000000000000 000000000000000A000000000000000000000000000000000000000000000 000000000000000000000000000000000000000     00000000                                                                                                                        000000000000000000
F0010000010210000003000086003979400042505000000000000000000201707250002001CALYPSO BARRANQUILLA LTDA                         C000000002923300000000000000000000100010010000000000000000000000F0010000010210000320170725000101 00000000000000000000000000000000000000000000000000000000000000000000000000000000000000000000000000000000000000000N 00000000000NCONT   00    00000000000          00000000000000000000000000000000000000000000 000000000000000A000000000000000000000000000000000000000000000 000000000000000000000000000000000000000     00000000                                                                                                                        000000000000000000
F0010000010210000004000086003979400023658300000000000000000201707250002001CALYPSO BARRANQUILLA LTDA                         C000000000000000000000000000000000100010010000000000000000000000F0010000010210000420170725000101 00000000000000000000000000000000000000000000000000000000000000000000000000000000000000000000000000000000000000000N 00000000000NCONT   00    00000000000          00000000000000000000000000000000000000000000 000000000000000A000000000000000000000000000000000000000000000 000000000000000000000000000000000000000     00000000                                                                                                                        000000000000000000
F0010000010210000005000086003979400013552100000000000000000201707250002001CALYPSO BARRANQUILLA LTDA                         D000000000000000000000000000000000100010010000000000000000000000F0010000010210000520170725000101 00000000000000000000000000000000000000000000000000000000000000000000000000000000000000000000000000000000000000000N 00000000000NCONT   00    00000000000          00000000000000000000000000000000000000000000 000000000000000A000000000000000000000000000000000000000000000 000000000000000000000000000000000000000     00000000                                                                                                                        000000000000000000
