F0010000008085100001000086002732600011050500000000000000000201512230002001PINTURAS EVERY                                    D000000001100000000000000000000000100010010000000000000000000000F0010000008085100120151223000101 00000000000000000000000000000000000000000000000000000000000000000000000000000000000000000000000000000000000000000N 00000000000NCONT   00    00000000000          00000000000000000000000000000000000000000000 000000000000000A000000000000000000000000000000000000000000000 000000000000000000000000000000000000000     00000000                                                                                                                        000000000000000000
F0010000008085100002000086002732600041450500000000000000000201512230002001PINTURAS EVERY                                    C000000001000000000000000000000000100010010000000000000000000000F0010000008085100220151223000101 00000000000000000000000000000000000000000000000000000000000000000000000000000000000000000000000000000000000000000N 00000000000NCONT   00    00000000000          00000000000000000000000000000000000000000000 000000000000000A000000000000000000000000000000000000000000000 000000000000000000000000000000000000000     00000000                                                                                                                        000000000000000000
F0010000008085100003000086002732600042505000000000000000000201512230002001PINTURAS EVERY                                    C000000000100000000000000000000000100010010000000000000000000000F0010000008085100320151223000101 00000000000000000000000000000000000000000000000000000000000000000000000000000000000000000000000000000000000000000N 00000000000NCONT   00    00000000000          00000000000000000000000000000000000000000000 000000000000000A000000000000000000000000000000000000000000000 000000000000000000000000000000000000000     00000000                                                                                                                        000000000000000000
F0010000008085100004000086002732600023658300000000000000000201512230002001PINTURAS EVERY                                    C000000000008000000000000000000000100010010000000000000000000000F0010000008085100420151223000101 00000000000000000000000000000000000000000000000000000000000000000000000000000000000000000000000000000000000000000N 00000000000NCONT   00    00000000000          00000000000000000000000000000000000000000000 000000000000000A000000000000000000000000000000000000000000000 000000000000000000000000000000000000000     00000000                                                                                                                        000000000000000000
F0010000008085100005000086002732600013552100000000000000000201512230002001PINTURAS EVERY                                    D000000000008000000000000000000000100010010000000000000000000000F0010000008085100520151223000101 00000000000000000000000000000000000000000000000000000000000000000000000000000000000000000000000000000000000000000N 00000000000NCONT   00    00000000000          00000000000000000000000000000000000000000000 000000000000000A000000000000000000000000000000000000000000000 000000000000000000000000000000000000000     00000000                                                                                                                        000000000000000000
F0010000008085200001000090020547900011050500000000000000000201512230002001COMERCIALIZADORA DAC DEL CARIBE S.A.S.            D000000002000000000000000000000000100010010000000000000000000000F0010000008085200120151223000101 00000000000000000000000000000000000000000000000000000000000000000000000000000000000000000000000000000000000000000N 00000000000NCONT   00    00000000000          00000000000000000000000000000000000000000000 000000000000000A000000000000000000000000000000000000000000000 000000000000000000000000000000000000000     00000000                                                                                                                        000000000000000000
F0010000008085200002000090020547900041450500000000000000000201512230002001COMERCIALIZADORA DAC DEL CARIBE S.A.S.            C000000001500000000000000000000000100010010000000000000000000000F0010000008085200220151223000101 00000000000000000000000000000000000000000000000000000000000000000000000000000000000000000000000000000000000000000N 00000000000NCONT   00    00000000000          00000000000000000000000000000000000000000000 000000000000000A000000000000000000000000000000000000000000000 000000000000000000000000000000000000000     00000000                                                                                                                        000000000000000000
F0010000008085200003000090020547900042505000000000000000000201512230002001COMERCIALIZADORA DAC DEL CARIBE S.A.S.            C000000000500000000000000000000000100010010000000000000000000000F0010000008085200320151223000101 00000000000000000000000000000000000000000000000000000000000000000000000000000000000000000000000000000000000000000N 00000000000NCONT   00    00000000000          00000000000000000000000000000000000000000000 000000000000000A000000000000000000000000000000000000000000000 000000000000000000000000000000000000000     00000000                                                                                                                        000000000000000000
F0010000008085200004000090020547900023658300000000000000000201512230002001COMERCIALIZADORA DAC DEL CARIBE S.A.S.            C000000000012000000000000000000000100010010000000000000000000000F0010000008085200420151223000101 00000000000000000000000000000000000000000000000000000000000000000000000000000000000000000000000000000000000000000N 00000000000NCONT   00    00000000000          00000000000000000000000000000000000000000000 000000000000000A000000000000000000000000000000000000000000000 000000000000000000000000000000000000000     00000000                                                                                                                        000000000000000000
F0010000008085200005000090020547900013552100000000000000000201512230002001COMERCIALIZADORA DAC DEL CARIBE S.A.S.            D000000000012000000000000000000000100010010000000000000000000000F0010000008085200520151223000101 00000000000000000000000000000000000000000000000000000000000000000000000000000000000000000000000000000000000000000N 00000000000NCONT   00    00000000000          00000000000000000000000000000000000000000000 000000000000000A000000000000000000000000000000000000000000000 000000000000000000000000000000000000000     00000000                                                                                                                        000000000000000000
F0010000008085300001000007225219800011050500000000000000000201512230002001MAURICIO ALVAREZ VARELO                           D000000011000000000000000000000000100010010000000000000000000000F0010000008085300120151223000101 00000000000000000000000000000000000000000000000000000000000000000000000000000000000000000000000000000000000000000N 00000000000NCONT   00    00000000000          00000000000000000000000000000000000000000000 000000000000000A000000000000000000000000000000000000000000000 000000000000000000000000000000000000000     00000000                                                                                                                        000000000000000000
F0010000008085300002000007225219800041450500000000000000000201512230002001MAURICIO ALVAREZ VARELO                           C000000008500000000000000000000000100010010000000000000000000000F0010000008085300220151223000101 00000000000000000000000000000000000000000000000000000000000000000000000000000000000000000000000000000000000000000N 00000000000NCONT   00    00000000000          00000000000000000000000000000000000000000000 000000000000000A000000000000000000000000000000000000000000000 000000000000000000000000000000000000000     00000000                                                                                                                        000000000000000000
F0010000008085300003000007225219800042505000000000000000000201512230002001MAURICIO ALVAREZ VARELO                           C000000002500000000000000000000000100010010000000000000000000000F0010000008085300320151223000101 00000000000000000000000000000000000000000000000000000000000000000000000000000000000000000000000000000000000000000N 00000000000NCONT   00    00000000000          00000000000000000000000000000000000000000000 000000000000000A000000000000000000000000000000000000000000000 000000000000000000000000000000000000000     00000000                                                                                                                        000000000000000000
F0010000008085300004000007225219800023658300000000000000000201512230002001MAURICIO ALVAREZ VARELO                           C000000000068000000000000000000000100010010000000000000000000000F0010000008085300420151223000101 00000000000000000000000000000000000000000000000000000000000000000000000000000000000000000000000000000000000000000N 00000000000NCONT   00    00000000000          00000000000000000000000000000000000000000000 000000000000000A000000000000000000000000000000000000000000000 000000000000000000000000000000000000000     00000000                                                                                                                        000000000000000000
F0010000008085300005000007225219800013552100000000000000000201512230002001MAURICIO ALVAREZ VARELO                           D000000000068000000000000000000000100010010000000000000000000000F0010000008085300520151223000101 00000000000000000000000000000000000000000000000000000000000000000000000000000000000000000000000000000000000000000N 00000000000NCONT   00    00000000000          00000000000000000000000000000000000000000000 000000000000000A000000000000000000000000000000000000000000000 000000000000000000000000000000000000000     00000000                                                                                                                        000000000000000000
F0010000008085400001000009125678500011050500000000000000000201512230002001SALOMON DIAZ MONSALVE                             D000000005500000000000000000000000100010010000000000000000000000F0010000008085400120151223000101 00000000000000000000000000000000000000000000000000000000000000000000000000000000000000000000000000000000000000000N 00000000000NCONT   00    00000000000          00000000000000000000000000000000000000000000 000000000000000A000000000000000000000000000000000000000000000 000000000000000000000000000000000000000     00000000                                                                                                                        000000000000000000
F0010000008085400002000009125678500041450500000000000000000201512230002001SALOMON DIAZ MONSALVE                             C000000005000000000000000000000000100010010000000000000000000000F0010000008085400220151223000101 00000000000000000000000000000000000000000000000000000000000000000000000000000000000000000000000000000000000000000N 00000000000NCONT   00    00000000000          00000000000000000000000000000000000000000000 000000000000000A000000000000000000000000000000000000000000000 000000000000000000000000000000000000000     00000000                                                                                                                        000000000000000000
F0010000008085400003000009125678500042505000000000000000000201512230002001SALOMON DIAZ MONSALVE                             C000000000500000000000000000000000100010010000000000000000000000F0010000008085400320151223000101 00000000000000000000000000000000000000000000000000000000000000000000000000000000000000000000000000000000000000000N 00000000000NCONT   00    00000000000          00000000000000000000000000000000000000000000 000000000000000A000000000000000000000000000000000000000000000 000000000000000000000000000000000000000     00000000                                                                                                                        000000000000000000
F0010000008085400004000009125678500023658300000000000000000201512230002001SALOMON DIAZ MONSALVE                             C000000000040000000000000000000000100010010000000000000000000000F0010000008085400420151223000101 00000000000000000000000000000000000000000000000000000000000000000000000000000000000000000000000000000000000000000N 00000000000NCONT   00    00000000000          00000000000000000000000000000000000000000000 000000000000000A000000000000000000000000000000000000000000000 000000000000000000000000000000000000000     00000000                                                                                                                        000000000000000000
F0010000008085400005000009125678500013552100000000000000000201512230002001SALOMON DIAZ MONSALVE                             D000000000040000000000000000000000100010010000000000000000000000F0010000008085400520151223000101 00000000000000000000000000000000000000000000000000000000000000000000000000000000000000000000000000000000000000000N 00000000000NCONT   00    00000000000          00000000000000000000000000000000000000000000 000000000000000A000000000000000000000000000000000000000000000 000000000000000000000000000000000000000     00000000                                                                                                                        000000000000000000
F0010000008085500001000080201411900011050500000000000000000201512230002001PLASTISERVICIOS S DE H                            D000000001000000000000000000000000100010010000000000000000000000F0010000008085500120151223000101 00000000000000000000000000000000000000000000000000000000000000000000000000000000000000000000000000000000000000000N 00000000000NCONT   00    00000000000          00000000000000000000000000000000000000000000 000000000000000A000000000000000000000000000000000000000000000 000000000000000000000000000000000000000     00000000                                                                                                                        000000000000000000
F0010000008085500002000080201411900041450500000000000000000201512230002001PLASTISERVICIOS S DE H                            C000000000900000000000000000000000100010010000000000000000000000F0010000008085500220151223000101 00000000000000000000000000000000000000000000000000000000000000000000000000000000000000000000000000000000000000000N 00000000000NCONT   00    00000000000          00000000000000000000000000000000000000000000 000000000000000A000000000000000000000000000000000000000000000 000000000000000000000000000000000000000     00000000                                                                                                                        000000000000000000
F0010000008085500003000080201411900042505000000000000000000201512230002001PLASTISERVICIOS S DE H                            C000000000100000000000000000000000100010010000000000000000000000F0010000008085500320151223000101 00000000000000000000000000000000000000000000000000000000000000000000000000000000000000000000000000000000000000000N 00000000000NCONT   00    00000000000          00000000000000000000000000000000000000000000 000000000000000A000000000000000000000000000000000000000000000 000000000000000000000000000000000000000     00000000                                                                                                                        000000000000000000
F0010000008085500004000080201411900023658300000000000000000201512230002001PLASTISERVICIOS S DE H                            C000000000007200000000000000000000100010010000000000000000000000F0010000008085500420151223000101 00000000000000000000000000000000000000000000000000000000000000000000000000000000000000000000000000000000000000000N 00000000000NCONT   00    00000000000          00000000000000000000000000000000000000000000 000000000000000A000000000000000000000000000000000000000000000 000000000000000000000000000000000000000     00000000                                                                                                                        000000000000000000
F0010000008085500005000080201411900013552100000000000000000201512230002001PLASTISERVICIOS S DE H                            D000000000007200000000000000000000100010010000000000000000000000F0010000008085500520151223000101 00000000000000000000000000000000000000000000000000000000000000000000000000000000000000000000000000000000000000000N 00000000000NCONT   00    00000000000          00000000000000000000000000000000000000000000 000000000000000A000000000000000000000000000000000000000000000 000000000000000000000000000000000000000     00000000                                                                                                                        000000000000000000
F0010000008085600001000007213133300011050500000000000000000201512230002001ALVARO ALBERTO FANDIÑO GOMEZ                     D000000001000000000000000000000000100010010000000000000000000000F0010000008085600120151223000101 00000000000000000000000000000000000000000000000000000000000000000000000000000000000000000000000000000000000000000N 00000000000NCONT   00    00000000000          00000000000000000000000000000000000000000000 000000000000000A000000000000000000000000000000000000000000000 000000000000000000000000000000000000000     00000000                                                                                                                        000000000000000000
F0010000008085600002000007213133300041450500000000000000000201512230002001ALVARO ALBERTO FANDIÑO GOMEZ                     C000000000900000000000000000000000100010010000000000000000000000F0010000008085600220151223000101 00000000000000000000000000000000000000000000000000000000000000000000000000000000000000000000000000000000000000000N 00000000000NCONT   00    00000000000          00000000000000000000000000000000000000000000 000000000000000A000000000000000000000000000000000000000000000 000000000000000000000000000000000000000     00000000                                                                                                                        000000000000000000
F0010000008085600003000007213133300042505000000000000000000201512230002001ALVARO ALBERTO FANDIÑO GOMEZ                     C000000000100000000000000000000000100010010000000000000000000000F0010000008085600320151223000101 00000000000000000000000000000000000000000000000000000000000000000000000000000000000000000000000000000000000000000N 00000000000NCONT   00    00000000000          00000000000000000000000000000000000000000000 000000000000000A000000000000000000000000000000000000000000000 000000000000000000000000000000000000000     00000000                                                                                                                        000000000000000000
F0010000008085600004000007213133300023658300000000000000000201512230002001ALVARO ALBERTO FANDIÑO GOMEZ                     C000000000007200000000000000000000100010010000000000000000000000F0010000008085600420151223000101 00000000000000000000000000000000000000000000000000000000000000000000000000000000000000000000000000000000000000000N 00000000000NCONT   00    00000000000          00000000000000000000000000000000000000000000 000000000000000A000000000000000000000000000000000000000000000 000000000000000000000000000000000000000     00000000                                                                                                                        000000000000000000
F0010000008085600005000007213133300013552100000000000000000201512230002001ALVARO ALBERTO FANDIÑO GOMEZ                     D000000000007200000000000000000000100010010000000000000000000000F0010000008085600520151223000101 00000000000000000000000000000000000000000000000000000000000000000000000000000000000000000000000000000000000000000N 00000000000NCONT   00    00000000000          00000000000000000000000000000000000000000000 000000000000000A000000000000000000000000000000000000000000000 000000000000000000000000000000000000000     00000000                                                                                                                        000000000000000000
F0010000008085700001000005160544500011050500000000000000000201512230002001METAL MUEBLES DE LA COSTA                         D000000010000000000000000000000000100010010000000000000000000000F0010000008085700120151223000101 00000000000000000000000000000000000000000000000000000000000000000000000000000000000000000000000000000000000000000N 00000000000NCONT   00    00000000000          00000000000000000000000000000000000000000000 000000000000000A000000000000000000000000000000000000000000000 000000000000000000000000000000000000000     00000000                                                                                                                        000000000000000000
F0010000008085700002000005160544500041450500000000000000000201512230002001METAL MUEBLES DE LA COSTA                         C000000009600000000000000000000000100010010000000000000000000000F0010000008085700220151223000101 00000000000000000000000000000000000000000000000000000000000000000000000000000000000000000000000000000000000000000N 00000000000NCONT   00    00000000000          00000000000000000000000000000000000000000000 000000000000000A000000000000000000000000000000000000000000000 000000000000000000000000000000000000000     00000000                                                                                                                        000000000000000000
F0010000008085700003000005160544500042505000000000000000000201512230002001METAL MUEBLES DE LA COSTA                         C000000000400000000000000000000000100010010000000000000000000000F0010000008085700320151223000101 00000000000000000000000000000000000000000000000000000000000000000000000000000000000000000000000000000000000000000N 00000000000NCONT   00    00000000000          00000000000000000000000000000000000000000000 000000000000000A000000000000000000000000000000000000000000000 000000000000000000000000000000000000000     00000000                                                                                                                        000000000000000000
F0010000008085700004000005160544500023658300000000000000000201512230002001METAL MUEBLES DE LA COSTA                         C000000000076800000000000000000000100010010000000000000000000000F0010000008085700420151223000101 00000000000000000000000000000000000000000000000000000000000000000000000000000000000000000000000000000000000000000N 00000000000NCONT   00    00000000000          00000000000000000000000000000000000000000000 000000000000000A000000000000000000000000000000000000000000000 000000000000000000000000000000000000000     00000000                                                                                                                        000000000000000000
F0010000008085700005000005160544500013552100000000000000000201512230002001METAL MUEBLES DE LA COSTA                         D000000000076800000000000000000000100010010000000000000000000000F0010000008085700520151223000101 00000000000000000000000000000000000000000000000000000000000000000000000000000000000000000000000000000000000000000N 00000000000NCONT   00    00000000000          00000000000000000000000000000000000000000000 000000000000000A000000000000000000000000000000000000000000000 000000000000000000000000000000000000000     00000000                                                                                                                        000000000000000000
F0010000008085800001000003656369400011050500000000000000000201512230002001LUPE LUNA HERRERA                                 D000000003700000000000000000000000100010010000000000000000000000F0010000008085800120151223000101 00000000000000000000000000000000000000000000000000000000000000000000000000000000000000000000000000000000000000000N 00000000000NCONT   00    00000000000          00000000000000000000000000000000000000000000 000000000000000A000000000000000000000000000000000000000000000 000000000000000000000000000000000000000     00000000                                                                                                                        000000000000000000
F0010000008085800002000003656369400041450500000000000000000201512230002001LUPE LUNA HERRERA                                 C000000002700000000000000000000000100010010000000000000000000000F0010000008085800220151223000101 00000000000000000000000000000000000000000000000000000000000000000000000000000000000000000000000000000000000000000N 00000000000NCONT   00    00000000000          00000000000000000000000000000000000000000000 000000000000000A000000000000000000000000000000000000000000000 000000000000000000000000000000000000000     00000000                                                                                                                        000000000000000000
F0010000008085800003000003656369400042505000000000000000000201512230002001LUPE LUNA HERRERA                                 C000000001000000000000000000000000100010010000000000000000000000F0010000008085800320151223000101 00000000000000000000000000000000000000000000000000000000000000000000000000000000000000000000000000000000000000000N 00000000000NCONT   00    00000000000          00000000000000000000000000000000000000000000 000000000000000A000000000000000000000000000000000000000000000 000000000000000000000000000000000000000     00000000                                                                                                                        000000000000000000
F0010000008085800004000003656369400023658300000000000000000201512230002001LUPE LUNA HERRERA                                 C000000000021600000000000000000000100010010000000000000000000000F0010000008085800420151223000101 00000000000000000000000000000000000000000000000000000000000000000000000000000000000000000000000000000000000000000N 00000000000NCONT   00    00000000000          00000000000000000000000000000000000000000000 000000000000000A000000000000000000000000000000000000000000000 000000000000000000000000000000000000000     00000000                                                                                                                        000000000000000000
F0010000008085800005000003656369400013552100000000000000000201512230002001LUPE LUNA HERRERA                                 D000000000021600000000000000000000100010010000000000000000000000F0010000008085800520151223000101 00000000000000000000000000000000000000000000000000000000000000000000000000000000000000000000000000000000000000000N 00000000000NCONT   00    00000000000          00000000000000000000000000000000000000000000 000000000000000A000000000000000000000000000000000000000000000 000000000000000000000000000000000000000     00000000                                                                                                                        000000000000000000
F0010000008085900001000090034602400011050500000000000000000201512230002001PRODUCTOS NACIONALES PARAFINICOS LA CUSTODIA S.A.SD000000001000000000000000000000000100010010000000000000000000000F0010000008085900120151223000101 00000000000000000000000000000000000000000000000000000000000000000000000000000000000000000000000000000000000000000N 00000000000NCONT   00    00000000000          00000000000000000000000000000000000000000000 000000000000000A000000000000000000000000000000000000000000000 000000000000000000000000000000000000000     00000000                                                                                                                        000000000000000000
F0010000008085900002000090034602400041450500000000000000000201512230002001PRODUCTOS NACIONALES PARAFINICOS LA CUSTODIA S.A.SC000000000900000000000000000000000100010010000000000000000000000F0010000008085900220151223000101 00000000000000000000000000000000000000000000000000000000000000000000000000000000000000000000000000000000000000000N 00000000000NCONT   00    00000000000          00000000000000000000000000000000000000000000 000000000000000A000000000000000000000000000000000000000000000 000000000000000000000000000000000000000     00000000                                                                                                                        000000000000000000
F0010000008085900003000090034602400042505000000000000000000201512230002001PRODUCTOS NACIONALES PARAFINICOS LA CUSTODIA S.A.SC000000000100000000000000000000000100010010000000000000000000000F0010000008085900320151223000101 00000000000000000000000000000000000000000000000000000000000000000000000000000000000000000000000000000000000000000N 00000000000NCONT   00    00000000000          00000000000000000000000000000000000000000000 000000000000000A000000000000000000000000000000000000000000000 000000000000000000000000000000000000000     00000000                                                                                                                        000000000000000000
F0010000008085900004000090034602400023658300000000000000000201512230002001PRODUCTOS NACIONALES PARAFINICOS LA CUSTODIA S.A.SC000000000007200000000000000000000100010010000000000000000000000F0010000008085900420151223000101 00000000000000000000000000000000000000000000000000000000000000000000000000000000000000000000000000000000000000000N 00000000000NCONT   00    00000000000          00000000000000000000000000000000000000000000 000000000000000A000000000000000000000000000000000000000000000 000000000000000000000000000000000000000     00000000                                                                                                                        000000000000000000
F0010000008085900005000090034602400013552100000000000000000201512230002001PRODUCTOS NACIONALES PARAFINICOS LA CUSTODIA S.A.SD000000000007200000000000000000000100010010000000000000000000000F0010000008085900520151223000101 00000000000000000000000000000000000000000000000000000000000000000000000000000000000000000000000000000000000000000N 00000000000NCONT   00    00000000000          00000000000000000000000000000000000000000000 000000000000000A000000000000000000000000000000000000000000000 000000000000000000000000000000000000000     00000000                                                                                                                        000000000000000000
F0010000008086000001000003287795000011050500000000000000000201512230002001COMERCIALIZADORA KUZMAR                           D000000002600000000000000000000000100010010000000000000000000000F0010000008086000120151223000101 00000000000000000000000000000000000000000000000000000000000000000000000000000000000000000000000000000000000000000N 00000000000NCONT   00    00000000000          00000000000000000000000000000000000000000000 000000000000000A000000000000000000000000000000000000000000000 000000000000000000000000000000000000000     00000000                                                                                                                        000000000000000000
F0010000008086000002000003287795000041450500000000000000000201512230002001COMERCIALIZADORA KUZMAR                           C000000002100000000000000000000000100010010000000000000000000000F0010000008086000220151223000101 00000000000000000000000000000000000000000000000000000000000000000000000000000000000000000000000000000000000000000N 00000000000NCONT   00    00000000000          00000000000000000000000000000000000000000000 000000000000000A000000000000000000000000000000000000000000000 000000000000000000000000000000000000000     00000000                                                                                                                        000000000000000000
F0010000008086000003000003287795000042505000000000000000000201512230002001COMERCIALIZADORA KUZMAR                           C000000000500000000000000000000000100010010000000000000000000000F0010000008086000320151223000101 00000000000000000000000000000000000000000000000000000000000000000000000000000000000000000000000000000000000000000N 00000000000NCONT   00    00000000000          00000000000000000000000000000000000000000000 000000000000000A000000000000000000000000000000000000000000000 000000000000000000000000000000000000000     00000000                                                                                                                        000000000000000000
F0010000008086000004000003287795000023658300000000000000000201512230002001COMERCIALIZADORA KUZMAR                           C000000000016800000000000000000000100010010000000000000000000000F0010000008086000420151223000101 00000000000000000000000000000000000000000000000000000000000000000000000000000000000000000000000000000000000000000N 00000000000NCONT   00    00000000000          00000000000000000000000000000000000000000000 000000000000000A000000000000000000000000000000000000000000000 000000000000000000000000000000000000000     00000000                                                                                                                        000000000000000000
F0010000008086000005000003287795000013552100000000000000000201512230002001COMERCIALIZADORA KUZMAR                           D000000000016800000000000000000000100010010000000000000000000000F0010000008086000520151223000101 00000000000000000000000000000000000000000000000000000000000000000000000000000000000000000000000000000000000000000N 00000000000NCONT   00    00000000000          00000000000000000000000000000000000000000000 000000000000000A000000000000000000000000000000000000000000000 000000000000000000000000000000000000000     00000000                                                                                                                        000000000000000000
F0010000008086100001000090050144800011050500000000000000000201512230002001PLASTICOS JR ASOCIADOS SAS                        D000000002000000000000000000000000100010010000000000000000000000F0010000008086100120151223000101 00000000000000000000000000000000000000000000000000000000000000000000000000000000000000000000000000000000000000000N 00000000000NCONT   00    00000000000          00000000000000000000000000000000000000000000 000000000000000A000000000000000000000000000000000000000000000 000000000000000000000000000000000000000     00000000                                                                                                                        000000000000000000
F0010000008086100002000090050144800041450500000000000000000201512230002001PLASTICOS JR ASOCIADOS SAS                        C000000001700000000000000000000000100010010000000000000000000000F0010000008086100220151223000101 00000000000000000000000000000000000000000000000000000000000000000000000000000000000000000000000000000000000000000N 00000000000NCONT   00    00000000000          00000000000000000000000000000000000000000000 000000000000000A000000000000000000000000000000000000000000000 000000000000000000000000000000000000000     00000000                                                                                                                        000000000000000000
F0010000008086100003000090050144800042505000000000000000000201512230002001PLASTICOS JR ASOCIADOS SAS                        C000000000300000000000000000000000100010010000000000000000000000F0010000008086100320151223000101 00000000000000000000000000000000000000000000000000000000000000000000000000000000000000000000000000000000000000000N 00000000000NCONT   00    00000000000          00000000000000000000000000000000000000000000 000000000000000A000000000000000000000000000000000000000000000 000000000000000000000000000000000000000     00000000                                                                                                                        000000000000000000
F0010000008086100004000090050144800023658300000000000000000201512230002001PLASTICOS JR ASOCIADOS SAS                        C000000000013600000000000000000000100010010000000000000000000000F0010000008086100420151223000101 00000000000000000000000000000000000000000000000000000000000000000000000000000000000000000000000000000000000000000N 00000000000NCONT   00    00000000000          00000000000000000000000000000000000000000000 000000000000000A000000000000000000000000000000000000000000000 000000000000000000000000000000000000000     00000000                                                                                                                        000000000000000000
F0010000008086100005000090050144800013552100000000000000000201512230002001PLASTICOS JR ASOCIADOS SAS                        D000000000013600000000000000000000100010010000000000000000000000F0010000008086100520151223000101 00000000000000000000000000000000000000000000000000000000000000000000000000000000000000000000000000000000000000000N 00000000000NCONT   00    00000000000          00000000000000000000000000000000000000000000 000000000000000A000000000000000000000000000000000000000000000 000000000000000000000000000000000000000     00000000                                                                                                                        000000000000000000
F0010000008086200001000090050144800011050500000000000000000201512230002001PLASTICOS JR ASOCIADOS SAS                        D000000002100000000000000000000000100010010000000000000000000000F0010000008086200120151223000101 00000000000000000000000000000000000000000000000000000000000000000000000000000000000000000000000000000000000000000N 00000000000NCONT   00    00000000000          00000000000000000000000000000000000000000000 000000000000000A000000000000000000000000000000000000000000000 000000000000000000000000000000000000000     00000000                                                                                                                        000000000000000000
F0010000008086200002000090050144800041450500000000000000000201512230002001PLASTICOS JR ASOCIADOS SAS                        C000000001700000000000000000000000100010010000000000000000000000F0010000008086200220151223000101 00000000000000000000000000000000000000000000000000000000000000000000000000000000000000000000000000000000000000000N 00000000000NCONT   00    00000000000          00000000000000000000000000000000000000000000 000000000000000A000000000000000000000000000000000000000000000 000000000000000000000000000000000000000     00000000                                                                                                                        000000000000000000
F0010000008086200003000090050144800042505000000000000000000201512230002001PLASTICOS JR ASOCIADOS SAS                        C000000000400000000000000000000000100010010000000000000000000000F0010000008086200320151223000101 00000000000000000000000000000000000000000000000000000000000000000000000000000000000000000000000000000000000000000N 00000000000NCONT   00    00000000000          00000000000000000000000000000000000000000000 000000000000000A000000000000000000000000000000000000000000000 000000000000000000000000000000000000000     00000000                                                                                                                        000000000000000000
F0010000008086200004000090050144800023658300000000000000000201512230002001PLASTICOS JR ASOCIADOS SAS                        C000000000013600000000000000000000100010010000000000000000000000F0010000008086200420151223000101 00000000000000000000000000000000000000000000000000000000000000000000000000000000000000000000000000000000000000000N 00000000000NCONT   00    00000000000          00000000000000000000000000000000000000000000 000000000000000A000000000000000000000000000000000000000000000 000000000000000000000000000000000000000     00000000                                                                                                                        000000000000000000
F0010000008086200005000090050144800013552100000000000000000201512230002001PLASTICOS JR ASOCIADOS SAS                        D000000000013600000000000000000000100010010000000000000000000000F0010000008086200520151223000101 00000000000000000000000000000000000000000000000000000000000000000000000000000000000000000000000000000000000000000N 00000000000NCONT   00    00000000000          00000000000000000000000000000000000000000000 000000000000000A000000000000000000000000000000000000000000000 000000000000000000000000000000000000000     00000000                                                                                                                        000000000000000000
F0010000008086300001000004249683600011050500000000000000000201512230002001ELIZABETH OCHOA                                   D000000050000000000000000000000000100010010000000000000000000000F0010000008086300120151223000101 00000000000000000000000000000000000000000000000000000000000000000000000000000000000000000000000000000000000000000N 00000000000NCONT   00    00000000000          00000000000000000000000000000000000000000000 000000000000000A000000000000000000000000000000000000000000000 000000000000000000000000000000000000000     00000000                                                                                                                        000000000000000000
F0010000008086300002000004249683600041450500000000000000000201512230002001ELIZABETH OCHOA                                   C000000048000000000000000000000000100010010000000000000000000000F0010000008086300220151223000101 00000000000000000000000000000000000000000000000000000000000000000000000000000000000000000000000000000000000000000N 00000000000NCONT   00    00000000000          00000000000000000000000000000000000000000000 000000000000000A000000000000000000000000000000000000000000000 000000000000000000000000000000000000000     00000000                                                                                                                        000000000000000000
F0010000008086300003000004249683600042505000000000000000000201512230002001ELIZABETH OCHOA                                   C000000002000000000000000000000000100010010000000000000000000000F0010000008086300320151223000101 00000000000000000000000000000000000000000000000000000000000000000000000000000000000000000000000000000000000000000N 00000000000NCONT   00    00000000000          00000000000000000000000000000000000000000000 000000000000000A000000000000000000000000000000000000000000000 000000000000000000000000000000000000000     00000000                                                                                                                        000000000000000000
F0010000008086300004000004249683600023658300000000000000000201512230002001ELIZABETH OCHOA                                   C000000000384000000000000000000000100010010000000000000000000000F0010000008086300420151223000101 00000000000000000000000000000000000000000000000000000000000000000000000000000000000000000000000000000000000000000N 00000000000NCONT   00    00000000000          00000000000000000000000000000000000000000000 000000000000000A000000000000000000000000000000000000000000000 000000000000000000000000000000000000000     00000000                                                                                                                        000000000000000000
F0010000008086300005000004249683600013552100000000000000000201512230002001ELIZABETH OCHOA                                   D000000000384000000000000000000000100010010000000000000000000000F0010000008086300520151223000101 00000000000000000000000000000000000000000000000000000000000000000000000000000000000000000000000000000000000000000N 00000000000NCONT   00    00000000000          00000000000000000000000000000000000000000000 000000000000000A000000000000000000000000000000000000000000000 000000000000000000000000000000000000000     00000000                                                                                                                        000000000000000000
F0010000008086400001000004175790100011050500000000000000000201512230002001ROSIRIS FERIA HOYOS  (COSM. SHILLER)              D000000001100000000000000000000000100010010000000000000000000000F0010000008086400120151223000101 00000000000000000000000000000000000000000000000000000000000000000000000000000000000000000000000000000000000000000N 00000000000NCONT   00    00000000000          00000000000000000000000000000000000000000000 000000000000000A000000000000000000000000000000000000000000000 000000000000000000000000000000000000000     00000000                                                                                                                        000000000000000000
F0010000008086400002000004175790100041450500000000000000000201512230002001ROSIRIS FERIA HOYOS  (COSM. SHILLER)              C000000001000000000000000000000000100010010000000000000000000000F0010000008086400220151223000101 00000000000000000000000000000000000000000000000000000000000000000000000000000000000000000000000000000000000000000N 00000000000NCONT   00    00000000000          00000000000000000000000000000000000000000000 000000000000000A000000000000000000000000000000000000000000000 000000000000000000000000000000000000000     00000000                                                                                                                        000000000000000000
F0010000008086400003000004175790100042505000000000000000000201512230002001ROSIRIS FERIA HOYOS  (COSM. SHILLER)              C000000000100000000000000000000000100010010000000000000000000000F0010000008086400320151223000101 00000000000000000000000000000000000000000000000000000000000000000000000000000000000000000000000000000000000000000N 00000000000NCONT   00    00000000000          00000000000000000000000000000000000000000000 000000000000000A000000000000000000000000000000000000000000000 000000000000000000000000000000000000000     00000000                                                                                                                        000000000000000000
F0010000008086400004000004175790100023658300000000000000000201512230002001ROSIRIS FERIA HOYOS  (COSM. SHILLER)              C000000000008000000000000000000000100010010000000000000000000000F0010000008086400420151223000101 00000000000000000000000000000000000000000000000000000000000000000000000000000000000000000000000000000000000000000N 00000000000NCONT   00    00000000000          00000000000000000000000000000000000000000000 000000000000000A000000000000000000000000000000000000000000000 000000000000000000000000000000000000000     00000000                                                                                                                        000000000000000000
F0010000008086400005000004175790100013552100000000000000000201512230002001ROSIRIS FERIA HOYOS  (COSM. SHILLER)              D000000000008000000000000000000000100010010000000000000000000000F0010000008086400520151223000101 00000000000000000000000000000000000000000000000000000000000000000000000000000000000000000000000000000000000000000N 00000000000NCONT   00    00000000000          00000000000000000000000000000000000000000000 000000000000000A000000000000000000000000000000000000000000000 000000000000000000000000000000000000000     00000000                                                                                                                        000000000000000000
F0010000008086500001000004175790100011050500000000000000000201512230002001ROSIRIS FERIA HOYOS  (COSM. SHILLER)              D000000001100000000000000000000000100010010000000000000000000000F0010000008086500120151223000101 00000000000000000000000000000000000000000000000000000000000000000000000000000000000000000000000000000000000000000N 00000000000NCONT   00    00000000000          00000000000000000000000000000000000000000000 000000000000000A000000000000000000000000000000000000000000000 000000000000000000000000000000000000000     00000000                                                                                                                        000000000000000000
F0010000008086500002000004175790100041450500000000000000000201512230002001ROSIRIS FERIA HOYOS  (COSM. SHILLER)              C000000001000000000000000000000000100010010000000000000000000000F0010000008086500220151223000101 00000000000000000000000000000000000000000000000000000000000000000000000000000000000000000000000000000000000000000N 00000000000NCONT   00    00000000000          00000000000000000000000000000000000000000000 000000000000000A000000000000000000000000000000000000000000000 000000000000000000000000000000000000000     00000000                                                                                                                        000000000000000000
F0010000008086500003000004175790100042505000000000000000000201512230002001ROSIRIS FERIA HOYOS  (COSM. SHILLER)              C000000000100000000000000000000000100010010000000000000000000000F0010000008086500320151223000101 00000000000000000000000000000000000000000000000000000000000000000000000000000000000000000000000000000000000000000N 00000000000NCONT   00    00000000000          00000000000000000000000000000000000000000000 000000000000000A000000000000000000000000000000000000000000000 000000000000000000000000000000000000000     00000000                                                                                                                        000000000000000000
F0010000008086500004000004175790100023658300000000000000000201512230002001ROSIRIS FERIA HOYOS  (COSM. SHILLER)              C000000000008000000000000000000000100010010000000000000000000000F0010000008086500420151223000101 00000000000000000000000000000000000000000000000000000000000000000000000000000000000000000000000000000000000000000N 00000000000NCONT   00    00000000000          00000000000000000000000000000000000000000000 000000000000000A000000000000000000000000000000000000000000000 000000000000000000000000000000000000000     00000000                                                                                                                        000000000000000000
F0010000008086500005000004175790100013552100000000000000000201512230002001ROSIRIS FERIA HOYOS  (COSM. SHILLER)              D000000000008000000000000000000000100010010000000000000000000000F0010000008086500520151223000101 00000000000000000000000000000000000000000000000000000000000000000000000000000000000000000000000000000000000000000N 00000000000NCONT   00    00000000000          00000000000000000000000000000000000000000000 000000000000000A000000000000000000000000000000000000000000000 000000000000000000000000000000000000000     00000000                                                                                                                        000000000000000000
F0010000008086600001000003314755400011050500000000000000000201512230002001RUMATEX DE COLOMBIA                               D000000001200000000000000000000000100010010000000000000000000000F0010000008086600120151223000101 00000000000000000000000000000000000000000000000000000000000000000000000000000000000000000000000000000000000000000N 00000000000NCONT   00    00000000000          00000000000000000000000000000000000000000000 000000000000000A000000000000000000000000000000000000000000000 000000000000000000000000000000000000000     00000000                                                                                                                        000000000000000000
F0010000008086600002000003314755400041450500000000000000000201512230002001RUMATEX DE COLOMBIA                               C000000000900000000000000000000000100010010000000000000000000000F0010000008086600220151223000101 00000000000000000000000000000000000000000000000000000000000000000000000000000000000000000000000000000000000000000N 00000000000NCONT   00    00000000000          00000000000000000000000000000000000000000000 000000000000000A000000000000000000000000000000000000000000000 000000000000000000000000000000000000000     00000000                                                                                                                        000000000000000000
F0010000008086600003000003314755400042505000000000000000000201512230002001RUMATEX DE COLOMBIA                               C000000000300000000000000000000000100010010000000000000000000000F0010000008086600320151223000101 00000000000000000000000000000000000000000000000000000000000000000000000000000000000000000000000000000000000000000N 00000000000NCONT   00    00000000000          00000000000000000000000000000000000000000000 000000000000000A000000000000000000000000000000000000000000000 000000000000000000000000000000000000000     00000000                                                                                                                        000000000000000000
F0010000008086600004000003314755400023658300000000000000000201512230002001RUMATEX DE COLOMBIA                               C000000000007200000000000000000000100010010000000000000000000000F0010000008086600420151223000101 00000000000000000000000000000000000000000000000000000000000000000000000000000000000000000000000000000000000000000N 00000000000NCONT   00    00000000000          00000000000000000000000000000000000000000000 000000000000000A000000000000000000000000000000000000000000000 000000000000000000000000000000000000000     00000000                                                                                                                        000000000000000000
F0010000008086600005000003314755400013552100000000000000000201512230002001RUMATEX DE COLOMBIA                               D000000000007200000000000000000000100010010000000000000000000000F0010000008086600520151223000101 00000000000000000000000000000000000000000000000000000000000000000000000000000000000000000000000000000000000000000N 00000000000NCONT   00    00000000000          00000000000000000000000000000000000000000000 000000000000000A000000000000000000000000000000000000000000000 000000000000000000000000000000000000000     00000000                                                                                                                        000000000000000000
F0010000008086700001000003314755400011050500000000000000000201512230002001RUMATEX DE COLOMBIA                               D000000002000000000000000000000000100010010000000000000000000000F0010000008086700120151223000101 00000000000000000000000000000000000000000000000000000000000000000000000000000000000000000000000000000000000000000N 00000000000NCONT   00    00000000000          00000000000000000000000000000000000000000000 000000000000000A000000000000000000000000000000000000000000000 000000000000000000000000000000000000000     00000000                                                                                                                        000000000000000000
F0010000008086700002000003314755400041450500000000000000000201512230002001RUMATEX DE COLOMBIA                               C000000001200000000000000000000000100010010000000000000000000000F0010000008086700220151223000101 00000000000000000000000000000000000000000000000000000000000000000000000000000000000000000000000000000000000000000N 00000000000NCONT   00    00000000000          00000000000000000000000000000000000000000000 000000000000000A000000000000000000000000000000000000000000000 000000000000000000000000000000000000000     00000000                                                                                                                        000000000000000000
F0010000008086700003000003314755400042505000000000000000000201512230002001RUMATEX DE COLOMBIA                               C000000000800000000000000000000000100010010000000000000000000000F0010000008086700320151223000101 00000000000000000000000000000000000000000000000000000000000000000000000000000000000000000000000000000000000000000N 00000000000NCONT   00    00000000000          00000000000000000000000000000000000000000000 000000000000000A000000000000000000000000000000000000000000000 000000000000000000000000000000000000000     00000000                                                                                                                        000000000000000000
F0010000008086700004000003314755400023658300000000000000000201512230002001RUMATEX DE COLOMBIA                               C000000000009600000000000000000000100010010000000000000000000000F0010000008086700420151223000101 00000000000000000000000000000000000000000000000000000000000000000000000000000000000000000000000000000000000000000N 00000000000NCONT   00    00000000000          00000000000000000000000000000000000000000000 000000000000000A000000000000000000000000000000000000000000000 000000000000000000000000000000000000000     00000000                                                                                                                        000000000000000000
F0010000008086700005000003314755400013552100000000000000000201512230002001RUMATEX DE COLOMBIA                               D000000000009600000000000000000000100010010000000000000000000000F0010000008086700520151223000101 00000000000000000000000000000000000000000000000000000000000000000000000000000000000000000000000000000000000000000N 00000000000NCONT   00    00000000000          00000000000000000000000000000000000000000000 000000000000000A000000000000000000000000000000000000000000000 000000000000000000000000000000000000000     00000000                                                                                                                        000000000000000000
F0010000008086800001000003314755400011050500000000000000000201512230002001RUMATEX DE COLOMBIA                               D000000002000000000000000000000000100010010000000000000000000000F0010000008086800120151223000101 00000000000000000000000000000000000000000000000000000000000000000000000000000000000000000000000000000000000000000N 00000000000NCONT   00    00000000000          00000000000000000000000000000000000000000000 000000000000000A000000000000000000000000000000000000000000000 000000000000000000000000000000000000000     00000000                                                                                                                        000000000000000000
F0010000008086800002000003314755400041450500000000000000000201512230002001RUMATEX DE COLOMBIA                               C000000001200000000000000000000000100010010000000000000000000000F0010000008086800220151223000101 00000000000000000000000000000000000000000000000000000000000000000000000000000000000000000000000000000000000000000N 00000000000NCONT   00    00000000000          00000000000000000000000000000000000000000000 000000000000000A000000000000000000000000000000000000000000000 000000000000000000000000000000000000000     00000000                                                                                                                        000000000000000000
F0010000008086800003000003314755400042505000000000000000000201512230002001RUMATEX DE COLOMBIA                               C000000000800000000000000000000000100010010000000000000000000000F0010000008086800320151223000101 00000000000000000000000000000000000000000000000000000000000000000000000000000000000000000000000000000000000000000N 00000000000NCONT   00    00000000000          00000000000000000000000000000000000000000000 000000000000000A000000000000000000000000000000000000000000000 000000000000000000000000000000000000000     00000000                                                                                                                        000000000000000000
F0010000008086800004000003314755400023658300000000000000000201512230002001RUMATEX DE COLOMBIA                               C000000000009600000000000000000000100010010000000000000000000000F0010000008086800420151223000101 00000000000000000000000000000000000000000000000000000000000000000000000000000000000000000000000000000000000000000N 00000000000NCONT   00    00000000000          00000000000000000000000000000000000000000000 000000000000000A000000000000000000000000000000000000000000000 000000000000000000000000000000000000000     00000000                                                                                                                        000000000000000000
F0010000008086800005000003314755400013552100000000000000000201512230002001RUMATEX DE COLOMBIA                               D000000000009600000000000000000000100010010000000000000000000000F0010000008086800520151223000101 00000000000000000000000000000000000000000000000000000000000000000000000000000000000000000000000000000000000000000N 00000000000NCONT   00    00000000000          00000000000000000000000000000000000000000000 000000000000000A000000000000000000000000000000000000000000000 000000000000000000000000000000000000000     00000000                                                                                                                        000000000000000000
F0010000008086900001000007957099900011050500000000000000000201512230002001RUBEN GOMEZ                                       D000000003200000000000000000000000100010010000000000000000000000F0010000008086900120151223000101 00000000000000000000000000000000000000000000000000000000000000000000000000000000000000000000000000000000000000000N 00000000000NCONT   00    00000000000          00000000000000000000000000000000000000000000 000000000000000A000000000000000000000000000000000000000000000 000000000000000000000000000000000000000     00000000                                                                                                                        000000000000000000
F0010000008086900002000007957099900041450500000000000000000201512230002001RUBEN GOMEZ                                       C000000002400000000000000000000000100010010000000000000000000000F0010000008086900220151223000101 00000000000000000000000000000000000000000000000000000000000000000000000000000000000000000000000000000000000000000N 00000000000NCONT   00    00000000000          00000000000000000000000000000000000000000000 000000000000000A000000000000000000000000000000000000000000000 000000000000000000000000000000000000000     00000000                                                                                                                        000000000000000000
F0010000008086900003000007957099900042505000000000000000000201512230002001RUBEN GOMEZ                                       C000000000800000000000000000000000100010010000000000000000000000F0010000008086900320151223000101 00000000000000000000000000000000000000000000000000000000000000000000000000000000000000000000000000000000000000000N 00000000000NCONT   00    00000000000          00000000000000000000000000000000000000000000 000000000000000A000000000000000000000000000000000000000000000 000000000000000000000000000000000000000     00000000                                                                                                                        000000000000000000
F0010000008086900004000007957099900023658300000000000000000201512230002001RUBEN GOMEZ                                       C000000000019200000000000000000000100010010000000000000000000000F0010000008086900420151223000101 00000000000000000000000000000000000000000000000000000000000000000000000000000000000000000000000000000000000000000N 00000000000NCONT   00    00000000000          00000000000000000000000000000000000000000000 000000000000000A000000000000000000000000000000000000000000000 000000000000000000000000000000000000000     00000000                                                                                                                        000000000000000000
F0010000008086900005000007957099900013552100000000000000000201512230002001RUBEN GOMEZ                                       D000000000019200000000000000000000100010010000000000000000000000F0010000008086900520151223000101 00000000000000000000000000000000000000000000000000000000000000000000000000000000000000000000000000000000000000000N 00000000000NCONT   00    00000000000          00000000000000000000000000000000000000000000 000000000000000A000000000000000000000000000000000000000000000 000000000000000000000000000000000000000     00000000                                                                                                                        000000000000000000
F0010000008087000001000003129177700011050500000000000000000201512230002001MULTISUELAS                                       D000000004000000000000000000000000100010010000000000000000000000F0010000008087000120151223000101 00000000000000000000000000000000000000000000000000000000000000000000000000000000000000000000000000000000000000000N 00000000000NCONT   00    00000000000          00000000000000000000000000000000000000000000 000000000000000A000000000000000000000000000000000000000000000 000000000000000000000000000000000000000     00000000                                                                                                                        000000000000000000
F0010000008087000002000003129177700041450500000000000000000201512230002001MULTISUELAS                                       C000000003000000000000000000000000100010010000000000000000000000F0010000008087000220151223000101 00000000000000000000000000000000000000000000000000000000000000000000000000000000000000000000000000000000000000000N 00000000000NCONT   00    00000000000          00000000000000000000000000000000000000000000 000000000000000A000000000000000000000000000000000000000000000 000000000000000000000000000000000000000     00000000                                                                                                                        000000000000000000
F0010000008087000003000003129177700042505000000000000000000201512230002001MULTISUELAS                                       C000000001000000000000000000000000100010010000000000000000000000F0010000008087000320151223000101 00000000000000000000000000000000000000000000000000000000000000000000000000000000000000000000000000000000000000000N 00000000000NCONT   00    00000000000          00000000000000000000000000000000000000000000 000000000000000A000000000000000000000000000000000000000000000 000000000000000000000000000000000000000     00000000                                                                                                                        000000000000000000
F0010000008087000004000003129177700023658300000000000000000201512230002001MULTISUELAS                                       C000000000024000000000000000000000100010010000000000000000000000F0010000008087000420151223000101 00000000000000000000000000000000000000000000000000000000000000000000000000000000000000000000000000000000000000000N 00000000000NCONT   00    00000000000          00000000000000000000000000000000000000000000 000000000000000A000000000000000000000000000000000000000000000 000000000000000000000000000000000000000     00000000                                                                                                                        000000000000000000
F0010000008087000005000003129177700013552100000000000000000201512230002001MULTISUELAS                                       D000000000024000000000000000000000100010010000000000000000000000F0010000008087000520151223000101 00000000000000000000000000000000000000000000000000000000000000000000000000000000000000000000000000000000000000000N 00000000000NCONT   00    00000000000          00000000000000000000000000000000000000000000 000000000000000A000000000000000000000000000000000000000000000 000000000000000000000000000000000000000     00000000                                                                                                                        000000000000000000
F0010000008087100001000000744496800011050500000000000000000201512230002001TOMAS SANCHEZ                                     D000000001000000000000000000000000100010010000000000000000000000F0010000008087100120151223000101 00000000000000000000000000000000000000000000000000000000000000000000000000000000000000000000000000000000000000000N 00000000000NCONT   00    00000000000          00000000000000000000000000000000000000000000 000000000000000A000000000000000000000000000000000000000000000 000000000000000000000000000000000000000     00000000                                                                                                                        000000000000000000
F0010000008087100002000000744496800041450500000000000000000201512230002001TOMAS SANCHEZ                                     C000000000900000000000000000000000100010010000000000000000000000F0010000008087100220151223000101 00000000000000000000000000000000000000000000000000000000000000000000000000000000000000000000000000000000000000000N 00000000000NCONT   00    00000000000          00000000000000000000000000000000000000000000 000000000000000A000000000000000000000000000000000000000000000 000000000000000000000000000000000000000     00000000                                                                                                                        000000000000000000
F0010000008087100003000000744496800042505000000000000000000201512230002001TOMAS SANCHEZ                                     C000000000100000000000000000000000100010010000000000000000000000F0010000008087100320151223000101 00000000000000000000000000000000000000000000000000000000000000000000000000000000000000000000000000000000000000000N 00000000000NCONT   00    00000000000          00000000000000000000000000000000000000000000 000000000000000A000000000000000000000000000000000000000000000 000000000000000000000000000000000000000     00000000                                                                                                                        000000000000000000
F0010000008087100004000000744496800023658300000000000000000201512230002001TOMAS SANCHEZ                                     C000000000007200000000000000000000100010010000000000000000000000F0010000008087100420151223000101 00000000000000000000000000000000000000000000000000000000000000000000000000000000000000000000000000000000000000000N 00000000000NCONT   00    00000000000          00000000000000000000000000000000000000000000 000000000000000A000000000000000000000000000000000000000000000 000000000000000000000000000000000000000     00000000                                                                                                                        000000000000000000
F0010000008087100005000000744496800013552100000000000000000201512230002001TOMAS SANCHEZ                                     D000000000007200000000000000000000100010010000000000000000000000F0010000008087100520151223000101 00000000000000000000000000000000000000000000000000000000000000000000000000000000000000000000000000000000000000000N 00000000000NCONT   00    00000000000          00000000000000000000000000000000000000000000 000000000000000A000000000000000000000000000000000000000000000 000000000000000000000000000000000000000     00000000                                                                                                                        000000000000000000
F0010000008087200001000000744496800011050500000000000000000201512230002001TOMAS SANCHEZ                                     D000000002000000000000000000000000100010010000000000000000000000F0010000008087200120151223000101 00000000000000000000000000000000000000000000000000000000000000000000000000000000000000000000000000000000000000000N 00000000000NCONT   00    00000000000          00000000000000000000000000000000000000000000 000000000000000A000000000000000000000000000000000000000000000 000000000000000000000000000000000000000     00000000                                                                                                                        000000000000000000
F0010000008087200002000000744496800041450500000000000000000201512230002001TOMAS SANCHEZ                                     C000000001800000000000000000000000100010010000000000000000000000F0010000008087200220151223000101 00000000000000000000000000000000000000000000000000000000000000000000000000000000000000000000000000000000000000000N 00000000000NCONT   00    00000000000          00000000000000000000000000000000000000000000 000000000000000A000000000000000000000000000000000000000000000 000000000000000000000000000000000000000     00000000                                                                                                                        000000000000000000
F0010000008087200003000000744496800042505000000000000000000201512230002001TOMAS SANCHEZ                                     C000000000200000000000000000000000100010010000000000000000000000F0010000008087200320151223000101 00000000000000000000000000000000000000000000000000000000000000000000000000000000000000000000000000000000000000000N 00000000000NCONT   00    00000000000          00000000000000000000000000000000000000000000 000000000000000A000000000000000000000000000000000000000000000 000000000000000000000000000000000000000     00000000                                                                                                                        000000000000000000
F0010000008087200004000000744496800023658300000000000000000201512230002001TOMAS SANCHEZ                                     C000000000014400000000000000000000100010010000000000000000000000F0010000008087200420151223000101 00000000000000000000000000000000000000000000000000000000000000000000000000000000000000000000000000000000000000000N 00000000000NCONT   00    00000000000          00000000000000000000000000000000000000000000 000000000000000A000000000000000000000000000000000000000000000 000000000000000000000000000000000000000     00000000                                                                                                                        000000000000000000
F0010000008087200005000000744496800013552100000000000000000201512230002001TOMAS SANCHEZ                                     D000000000014400000000000000000000100010010000000000000000000000F0010000008087200520151223000101 00000000000000000000000000000000000000000000000000000000000000000000000000000000000000000000000000000000000000000N 00000000000NCONT   00    00000000000          00000000000000000000000000000000000000000000 000000000000000A000000000000000000000000000000000000000000000 000000000000000000000000000000000000000     00000000                                                                                                                        000000000000000000
F0010000008087300001000080002840900011050500000000000000000201512230002001DIAGO MATERIALES                                  D000000018000000000000000000000000100010010000000000000000000000F0010000008087300120151223000101 00000000000000000000000000000000000000000000000000000000000000000000000000000000000000000000000000000000000000000N 00000000000NCONT   00    00000000000          00000000000000000000000000000000000000000000 000000000000000A000000000000000000000000000000000000000000000 000000000000000000000000000000000000000     00000000                                                                                                                        000000000000000000
F0010000008087300002000080002840900041450500000000000000000201512230002001DIAGO MATERIALES                                  C000000016500000000000000000000000100010010000000000000000000000F0010000008087300220151223000101 00000000000000000000000000000000000000000000000000000000000000000000000000000000000000000000000000000000000000000N 00000000000NCONT   00    00000000000          00000000000000000000000000000000000000000000 000000000000000A000000000000000000000000000000000000000000000 000000000000000000000000000000000000000     00000000                                                                                                                        000000000000000000
F0010000008087300003000080002840900042505000000000000000000201512230002001DIAGO MATERIALES                                  C000000001500000000000000000000000100010010000000000000000000000F0010000008087300320151223000101 00000000000000000000000000000000000000000000000000000000000000000000000000000000000000000000000000000000000000000N 00000000000NCONT   00    00000000000          00000000000000000000000000000000000000000000 000000000000000A000000000000000000000000000000000000000000000 000000000000000000000000000000000000000     00000000                                                                                                                        000000000000000000
F0010000008087300004000080002840900023658300000000000000000201512230002001DIAGO MATERIALES                                  C000000000132000000000000000000000100010010000000000000000000000F0010000008087300420151223000101 00000000000000000000000000000000000000000000000000000000000000000000000000000000000000000000000000000000000000000N 00000000000NCONT   00    00000000000          00000000000000000000000000000000000000000000 000000000000000A000000000000000000000000000000000000000000000 000000000000000000000000000000000000000     00000000                                                                                                                        000000000000000000
F0010000008087300005000080002840900013552100000000000000000201512230002001DIAGO MATERIALES                                  D000000000132000000000000000000000100010010000000000000000000000F0010000008087300520151223000101 00000000000000000000000000000000000000000000000000000000000000000000000000000000000000000000000000000000000000000N 00000000000NCONT   00    00000000000          00000000000000000000000000000000000000000000 000000000000000A000000000000000000000000000000000000000000000 000000000000000000000000000000000000000     00000000                                                                                                                        000000000000000000
F0010000008087400001000080012418800011050500000000000000000201512230002001DISTRITEC S.A.S                                   D000000007500000000000000000000000100010010000000000000000000000F0010000008087400120151223000101 00000000000000000000000000000000000000000000000000000000000000000000000000000000000000000000000000000000000000000N 00000000000NCONT   00    00000000000          00000000000000000000000000000000000000000000 000000000000000A000000000000000000000000000000000000000000000 000000000000000000000000000000000000000     00000000                                                                                                                        000000000000000000
F0010000008087400002000080012418800041450500000000000000000201512230002001DISTRITEC S.A.S                                   C000000007200000000000000000000000100010010000000000000000000000F0010000008087400220151223000101 00000000000000000000000000000000000000000000000000000000000000000000000000000000000000000000000000000000000000000N 00000000000NCONT   00    00000000000          00000000000000000000000000000000000000000000 000000000000000A000000000000000000000000000000000000000000000 000000000000000000000000000000000000000     00000000                                                                                                                        000000000000000000
F0010000008087400003000080012418800042505000000000000000000201512230002001DISTRITEC S.A.S                                   C000000000300000000000000000000000100010010000000000000000000000F0010000008087400320151223000101 00000000000000000000000000000000000000000000000000000000000000000000000000000000000000000000000000000000000000000N 00000000000NCONT   00    00000000000          00000000000000000000000000000000000000000000 000000000000000A000000000000000000000000000000000000000000000 000000000000000000000000000000000000000     00000000                                                                                                                        000000000000000000
F0010000008087400004000080012418800023658300000000000000000201512230002001DISTRITEC S.A.S                                   C000000000057600000000000000000000100010010000000000000000000000F0010000008087400420151223000101 00000000000000000000000000000000000000000000000000000000000000000000000000000000000000000000000000000000000000000N 00000000000NCONT   00    00000000000          00000000000000000000000000000000000000000000 000000000000000A000000000000000000000000000000000000000000000 000000000000000000000000000000000000000     00000000                                                                                                                        000000000000000000
F0010000008087400005000080012418800013552100000000000000000201512230002001DISTRITEC S.A.S                                   D000000000057600000000000000000000100010010000000000000000000000F0010000008087400520151223000101 00000000000000000000000000000000000000000000000000000000000000000000000000000000000000000000000000000000000000000N 00000000000NCONT   00    00000000000          00000000000000000000000000000000000000000000 000000000000000A000000000000000000000000000000000000000000000 000000000000000000000000000000000000000     00000000                                                                                                                        000000000000000000
F0010000008087500001000007214782600011050500000000000000000201512230002001OSCAR JOSE LIAN ROCHA                             D000000001600000000000000000000000100010010000000000000000000000F0010000008087500120151223000101 00000000000000000000000000000000000000000000000000000000000000000000000000000000000000000000000000000000000000000N 00000000000NCONT   00    00000000000          00000000000000000000000000000000000000000000 000000000000000A000000000000000000000000000000000000000000000 000000000000000000000000000000000000000     00000000                                                                                                                        000000000000000000
F0010000008087500002000007214782600041450500000000000000000201512230002001OSCAR JOSE LIAN ROCHA                             C000000001200000000000000000000000100010010000000000000000000000F0010000008087500220151223000101 00000000000000000000000000000000000000000000000000000000000000000000000000000000000000000000000000000000000000000N 00000000000NCONT   00    00000000000          00000000000000000000000000000000000000000000 000000000000000A000000000000000000000000000000000000000000000 000000000000000000000000000000000000000     00000000                                                                                                                        000000000000000000
F0010000008087500003000007214782600042505000000000000000000201512230002001OSCAR JOSE LIAN ROCHA                             C000000000400000000000000000000000100010010000000000000000000000F0010000008087500320151223000101 00000000000000000000000000000000000000000000000000000000000000000000000000000000000000000000000000000000000000000N 00000000000NCONT   00    00000000000          00000000000000000000000000000000000000000000 000000000000000A000000000000000000000000000000000000000000000 000000000000000000000000000000000000000     00000000                                                                                                                        000000000000000000
F0010000008087500004000007214782600023658300000000000000000201512230002001OSCAR JOSE LIAN ROCHA                             C000000000009600000000000000000000100010010000000000000000000000F0010000008087500420151223000101 00000000000000000000000000000000000000000000000000000000000000000000000000000000000000000000000000000000000000000N 00000000000NCONT   00    00000000000          00000000000000000000000000000000000000000000 000000000000000A000000000000000000000000000000000000000000000 000000000000000000000000000000000000000     00000000                                                                                                                        000000000000000000
F0010000008087500005000007214782600013552100000000000000000201512230002001OSCAR JOSE LIAN ROCHA                             D000000000009600000000000000000000100010010000000000000000000000F0010000008087500520151223000101 00000000000000000000000000000000000000000000000000000000000000000000000000000000000000000000000000000000000000000N 00000000000NCONT   00    00000000000          00000000000000000000000000000000000000000000 000000000000000A000000000000000000000000000000000000000000000 000000000000000000000000000000000000000     00000000                                                                                                                        000000000000000000
F0010000008087600001000007214782600011050500000000000000000201512230002001OSCAR JOSE LIAN ROCHA                             D000000001500000000000000000000000100010010000000000000000000000F0010000008087600120151223000101 00000000000000000000000000000000000000000000000000000000000000000000000000000000000000000000000000000000000000000N 00000000000NCONT   00    00000000000          00000000000000000000000000000000000000000000 000000000000000A000000000000000000000000000000000000000000000 000000000000000000000000000000000000000     00000000                                                                                                                        000000000000000000
F0010000008087600002000007214782600041450500000000000000000201512230002001OSCAR JOSE LIAN ROCHA                             C000000001200000000000000000000000100010010000000000000000000000F0010000008087600220151223000101 00000000000000000000000000000000000000000000000000000000000000000000000000000000000000000000000000000000000000000N 00000000000NCONT   00    00000000000          00000000000000000000000000000000000000000000 000000000000000A000000000000000000000000000000000000000000000 000000000000000000000000000000000000000     00000000                                                                                                                        000000000000000000
F0010000008087600003000007214782600042505000000000000000000201512230002001OSCAR JOSE LIAN ROCHA                             C000000000300000000000000000000000100010010000000000000000000000F0010000008087600320151223000101 00000000000000000000000000000000000000000000000000000000000000000000000000000000000000000000000000000000000000000N 00000000000NCONT   00    00000000000          00000000000000000000000000000000000000000000 000000000000000A000000000000000000000000000000000000000000000 000000000000000000000000000000000000000     00000000                                                                                                                        000000000000000000
F0010000008087600004000007214782600023658300000000000000000201512230002001OSCAR JOSE LIAN ROCHA                             C000000000009600000000000000000000100010010000000000000000000000F0010000008087600420151223000101 00000000000000000000000000000000000000000000000000000000000000000000000000000000000000000000000000000000000000000N 00000000000NCONT   00    00000000000          00000000000000000000000000000000000000000000 000000000000000A000000000000000000000000000000000000000000000 000000000000000000000000000000000000000     00000000                                                                                                                        000000000000000000
F0010000008087600005000007214782600013552100000000000000000201512230002001OSCAR JOSE LIAN ROCHA                             D000000000009600000000000000000000100010010000000000000000000000F0010000008087600520151223000101 00000000000000000000000000000000000000000000000000000000000000000000000000000000000000000000000000000000000000000N 00000000000NCONT   00    00000000000          00000000000000000000000000000000000000000000 000000000000000A000000000000000000000000000000000000000000000 000000000000000000000000000000000000000     00000000                                                                                                                        000000000000000000
F0010000008087700001000007904689600011050500000000000000000201512230002001VICTOR MANUEL BOCANEGRA RAMIREZ                   D000000001300000000000000000000000100010010000000000000000000000F0010000008087700120151223000101 00000000000000000000000000000000000000000000000000000000000000000000000000000000000000000000000000000000000000000N 00000000000NCONT   00    00000000000          00000000000000000000000000000000000000000000 000000000000000A000000000000000000000000000000000000000000000 000000000000000000000000000000000000000     00000000                                                                                                                        000000000000000000
F0010000008087700002000007904689600041450500000000000000000201512230002001VICTOR MANUEL BOCANEGRA RAMIREZ                   C000000001200000000000000000000000100010010000000000000000000000F0010000008087700220151223000101 00000000000000000000000000000000000000000000000000000000000000000000000000000000000000000000000000000000000000000N 00000000000NCONT   00    00000000000          00000000000000000000000000000000000000000000 000000000000000A000000000000000000000000000000000000000000000 000000000000000000000000000000000000000     00000000                                                                                                                        000000000000000000
F0010000008087700003000007904689600042505000000000000000000201512230002001VICTOR MANUEL BOCANEGRA RAMIREZ                   C000000000100000000000000000000000100010010000000000000000000000F0010000008087700320151223000101 00000000000000000000000000000000000000000000000000000000000000000000000000000000000000000000000000000000000000000N 00000000000NCONT   00    00000000000          00000000000000000000000000000000000000000000 000000000000000A000000000000000000000000000000000000000000000 000000000000000000000000000000000000000     00000000                                                                                                                        000000000000000000
F0010000008087700004000007904689600023658300000000000000000201512230002001VICTOR MANUEL BOCANEGRA RAMIREZ                   C000000000009600000000000000000000100010010000000000000000000000F0010000008087700420151223000101 00000000000000000000000000000000000000000000000000000000000000000000000000000000000000000000000000000000000000000N 00000000000NCONT   00    00000000000          00000000000000000000000000000000000000000000 000000000000000A000000000000000000000000000000000000000000000 000000000000000000000000000000000000000     00000000                                                                                                                        000000000000000000
F0010000008087700005000007904689600013552100000000000000000201512230002001VICTOR MANUEL BOCANEGRA RAMIREZ                   D000000000009600000000000000000000100010010000000000000000000000F0010000008087700520151223000101 00000000000000000000000000000000000000000000000000000000000000000000000000000000000000000000000000000000000000000N 00000000000NCONT   00    00000000000          00000000000000000000000000000000000000000000 000000000000000A000000000000000000000000000000000000000000000 000000000000000000000000000000000000000     00000000                                                                                                                        000000000000000000
F0010000008087800001000007904689600011050500000000000000000201512230002001VICTOR MANUEL BOCANEGRA RAMIREZ                   D000000001100000000000000000000000100010010000000000000000000000F0010000008087800120151223000101 00000000000000000000000000000000000000000000000000000000000000000000000000000000000000000000000000000000000000000N 00000000000NCONT   00    00000000000          00000000000000000000000000000000000000000000 000000000000000A000000000000000000000000000000000000000000000 000000000000000000000000000000000000000     00000000                                                                                                                        000000000000000000
F0010000008087800002000007904689600041450500000000000000000201512230002001VICTOR MANUEL BOCANEGRA RAMIREZ                   C000000001000000000000000000000000100010010000000000000000000000F0010000008087800220151223000101 00000000000000000000000000000000000000000000000000000000000000000000000000000000000000000000000000000000000000000N 00000000000NCONT   00    00000000000          00000000000000000000000000000000000000000000 000000000000000A000000000000000000000000000000000000000000000 000000000000000000000000000000000000000     00000000                                                                                                                        000000000000000000
F0010000008087800003000007904689600042505000000000000000000201512230002001VICTOR MANUEL BOCANEGRA RAMIREZ                   C000000000100000000000000000000000100010010000000000000000000000F0010000008087800320151223000101 00000000000000000000000000000000000000000000000000000000000000000000000000000000000000000000000000000000000000000N 00000000000NCONT   00    00000000000          00000000000000000000000000000000000000000000 000000000000000A000000000000000000000000000000000000000000000 000000000000000000000000000000000000000     00000000                                                                                                                        000000000000000000
F0010000008087800004000007904689600023658300000000000000000201512230002001VICTOR MANUEL BOCANEGRA RAMIREZ                   C000000000008000000000000000000000100010010000000000000000000000F0010000008087800420151223000101 00000000000000000000000000000000000000000000000000000000000000000000000000000000000000000000000000000000000000000N 00000000000NCONT   00    00000000000          00000000000000000000000000000000000000000000 000000000000000A000000000000000000000000000000000000000000000 000000000000000000000000000000000000000     00000000                                                                                                                        000000000000000000
F0010000008087800005000007904689600013552100000000000000000201512230002001VICTOR MANUEL BOCANEGRA RAMIREZ                   D000000000008000000000000000000000100010010000000000000000000000F0010000008087800520151223000101 00000000000000000000000000000000000000000000000000000000000000000000000000000000000000000000000000000000000000000N 00000000000NCONT   00    00000000000          00000000000000000000000000000000000000000000 000000000000000A000000000000000000000000000000000000000000000 000000000000000000000000000000000000000     00000000                                                                                                                        000000000000000000
F0010000008087900001000000869805000011050500000000000000000201512230002001WILMAN RAMBAL LARA                                D000000000850000000000000000000000100010010000000000000000000000F0010000008087900120151223000101 00000000000000000000000000000000000000000000000000000000000000000000000000000000000000000000000000000000000000000N 00000000000NCONT   00    00000000000          00000000000000000000000000000000000000000000 000000000000000A000000000000000000000000000000000000000000000 000000000000000000000000000000000000000     00000000                                                                                                                        000000000000000000
F0010000008087900002000000869805000041450500000000000000000201512230002001WILMAN RAMBAL LARA                                C000000000750000000000000000000000100010010000000000000000000000F0010000008087900220151223000101 00000000000000000000000000000000000000000000000000000000000000000000000000000000000000000000000000000000000000000N 00000000000NCONT   00    00000000000          00000000000000000000000000000000000000000000 000000000000000A000000000000000000000000000000000000000000000 000000000000000000000000000000000000000     00000000                                                                                                                        000000000000000000
F0010000008087900003000000869805000042505000000000000000000201512230002001WILMAN RAMBAL LARA                                C000000000100000000000000000000000100010010000000000000000000000F0010000008087900320151223000101 00000000000000000000000000000000000000000000000000000000000000000000000000000000000000000000000000000000000000000N 00000000000NCONT   00    00000000000          00000000000000000000000000000000000000000000 000000000000000A000000000000000000000000000000000000000000000 000000000000000000000000000000000000000     00000000                                                                                                                        000000000000000000
F0010000008087900004000000869805000023658300000000000000000201512230002001WILMAN RAMBAL LARA                                C000000000006000000000000000000000100010010000000000000000000000F0010000008087900420151223000101 00000000000000000000000000000000000000000000000000000000000000000000000000000000000000000000000000000000000000000N 00000000000NCONT   00    00000000000          00000000000000000000000000000000000000000000 000000000000000A000000000000000000000000000000000000000000000 000000000000000000000000000000000000000     00000000                                                                                                                        000000000000000000
F0010000008087900005000000869805000013552100000000000000000201512230002001WILMAN RAMBAL LARA                                D000000000006000000000000000000000100010010000000000000000000000F0010000008087900520151223000101 00000000000000000000000000000000000000000000000000000000000000000000000000000000000000000000000000000000000000000N 00000000000NCONT   00    00000000000          00000000000000000000000000000000000000000000 000000000000000A000000000000000000000000000000000000000000000 000000000000000000000000000000000000000     00000000                                                                                                                        000000000000000000
F0010000008088000001000080023327700011050500000000000000000201512230002001DISINCO LTDA                                      D000000004665000000000000000000000100010010000000000000000000000F0010000008088000120151223000101 00000000000000000000000000000000000000000000000000000000000000000000000000000000000000000000000000000000000000000N 00000000000NCONT   00    00000000000          00000000000000000000000000000000000000000000 000000000000000A000000000000000000000000000000000000000000000 000000000000000000000000000000000000000     00000000                                                                                                                        000000000000000000
F0010000008088000002000080023327700041450500000000000000000201512230002001DISINCO LTDA                                      C000000004400000000000000000000000100010010000000000000000000000F0010000008088000220151223000101 00000000000000000000000000000000000000000000000000000000000000000000000000000000000000000000000000000000000000000N 00000000000NCONT   00    00000000000          00000000000000000000000000000000000000000000 000000000000000A000000000000000000000000000000000000000000000 000000000000000000000000000000000000000     00000000                                                                                                                        000000000000000000
