F0010000005985400001000083050133900011050500000000000000000201407030002001VALTAC DEL CARIBE LTDA                            D000000002900000000000000000000000100010010000000000000000000000F0010000005985400120140703000101 00000000000000000000000000000000000000000000000000000000000000000000000000000000000000000000000000000000000000000N 00000000000NCONT   00    00000000000          00000000000000000000000000000000000000000000 000000000000000A000000000000000000000000000000000000000000000 000000000000000000000000000000000000000     00000000                                                                                                                        000000000000000000
F0010000005985400002000083050133900041450500000000000000000201407030002001VALTAC DEL CARIBE LTDA                            C000000002700000000000000000000000100010010000000000000000000000F0010000005985400220140703000101 00000000000000000000000000000000000000000000000000000000000000000000000000000000000000000000000000000000000000000N 00000000000NCONT   00    00000000000          00000000000000000000000000000000000000000000 000000000000000A000000000000000000000000000000000000000000000 000000000000000000000000000000000000000     00000000                                                                                                                        000000000000000000
F0010000005985400003000083050133900042505000000000000000000201407030002001VALTAC DEL CARIBE LTDA                            C000000000200000000000000000000000100010010000000000000000000000F0010000005985400320140703000101 00000000000000000000000000000000000000000000000000000000000000000000000000000000000000000000000000000000000000000N 00000000000NCONT   00    00000000000          00000000000000000000000000000000000000000000 000000000000000A000000000000000000000000000000000000000000000 000000000000000000000000000000000000000     00000000                                                                                                                        000000000000000000
F0010000005985400004000083050133900023658300000000000000000201407030002001VALTAC DEL CARIBE LTDA                            C000000000021600000000000000000000100010010000000000000000000000F0010000005985400420140703000101 00000000000000000000000000000000000000000000000000000000000000000000000000000000000000000000000000000000000000000N 00000000000NCONT   00    00000000000          00000000000000000000000000000000000000000000 000000000000000A000000000000000000000000000000000000000000000 000000000000000000000000000000000000000     00000000                                                                                                                        000000000000000000
F0010000005985400005000083050133900013552100000000000000000201407030002001VALTAC DEL CARIBE LTDA                            D000000000021600000000000000000000100010010000000000000000000000F0010000005985400520140703000101 00000000000000000000000000000000000000000000000000000000000000000000000000000000000000000000000000000000000000000N 00000000000NCONT   00    00000000000          00000000000000000000000000000000000000000000 000000000000000A000000000000000000000000000000000000000000000 000000000000000000000000000000000000000     00000000                                                                                                                        000000000000000000
F0010000005985500001000000747559300011050500000000000000000201407030002001RAFAEL SERRANO                                    D000000002700000000000000000000000100010010000000000000000000000F0010000005985500120140703000101 00000000000000000000000000000000000000000000000000000000000000000000000000000000000000000000000000000000000000000N 00000000000NCONT   00    00000000000          00000000000000000000000000000000000000000000 000000000000000A000000000000000000000000000000000000000000000 000000000000000000000000000000000000000     00000000                                                                                                                        000000000000000000
F0010000005985500002000000747559300041450500000000000000000201407030002001RAFAEL SERRANO                                    C000000002000000000000000000000000100010010000000000000000000000F0010000005985500220140703000101 00000000000000000000000000000000000000000000000000000000000000000000000000000000000000000000000000000000000000000N 00000000000NCONT   00    00000000000          00000000000000000000000000000000000000000000 000000000000000A000000000000000000000000000000000000000000000 000000000000000000000000000000000000000     00000000                                                                                                                        000000000000000000
F0010000005985500003000000747559300042505000000000000000000201407030002001RAFAEL SERRANO                                    C000000000700000000000000000000000100010010000000000000000000000F0010000005985500320140703000101 00000000000000000000000000000000000000000000000000000000000000000000000000000000000000000000000000000000000000000N 00000000000NCONT   00    00000000000          00000000000000000000000000000000000000000000 000000000000000A000000000000000000000000000000000000000000000 000000000000000000000000000000000000000     00000000                                                                                                                        000000000000000000
F0010000005985500004000000747559300023658300000000000000000201407030002001RAFAEL SERRANO                                    C000000000016000000000000000000000100010010000000000000000000000F0010000005985500420140703000101 00000000000000000000000000000000000000000000000000000000000000000000000000000000000000000000000000000000000000000N 00000000000NCONT   00    00000000000          00000000000000000000000000000000000000000000 000000000000000A000000000000000000000000000000000000000000000 000000000000000000000000000000000000000     00000000                                                                                                                        000000000000000000
F0010000005985500005000000747559300013552100000000000000000201407030002001RAFAEL SERRANO                                    D000000000016000000000000000000000100010010000000000000000000000F0010000005985500520140703000101 00000000000000000000000000000000000000000000000000000000000000000000000000000000000000000000000000000000000000000N 00000000000NCONT   00    00000000000          00000000000000000000000000000000000000000000 000000000000000A000000000000000000000000000000000000000000000 000000000000000000000000000000000000000     00000000                                                                                                                        000000000000000000
F0010000005985600001000086000089600013050500000000000000000201407030002001SIKA COLOMBIA S.A.                                D000000062610600000000000000000000100010010000000000000000000000F0010000005985600120140703000101 00000000000000000000000000000000000000000000000000000000000000000000000000000000000000000000000000000000000000000N 00000000000NCONT   00    00000000000          00000000000000000000000000000000000000000000 000000000000000A000000000000000000000000000000000000000000000 000000000000000000000000000000000000000     00000000                                                                                                                        000000000000000000
F0010000005985600002000086000089600041450500000000000000000201407030002001SIKA COLOMBIA S.A.                                C000000058000000000000000000000000100010010000000000000000000000F0010000005985600220140703000101 00000000000000000000000000000000000000000000000000000000000000000000000000000000000000000000000000000000000000000N 00000000000NCONT   00    00000000000          00000000000000000000000000000000000000000000 000000000000000A000000000000000000000000000000000000000000000 000000000000000000000000000000000000000     00000000                                                                                                                        000000000000000000
F0010000005985600003000086000089600042505000000000000000000201407030002001SIKA COLOMBIA S.A.                                C000000004610600000000000000000000100010010000000000000000000000F0010000005985600320140703000101 00000000000000000000000000000000000000000000000000000000000000000000000000000000000000000000000000000000000000000N 00000000000NCONT   00    00000000000          00000000000000000000000000000000000000000000 000000000000000A000000000000000000000000000000000000000000000 000000000000000000000000000000000000000     00000000                                                                                                                        000000000000000000
F0010000005985600004000086000089600023658300000000000000000201407030002001SIKA COLOMBIA S.A.                                C000000000464000000000000000000000100010010000000000000000000000F0010000005985600420140703000101 00000000000000000000000000000000000000000000000000000000000000000000000000000000000000000000000000000000000000000N 00000000000NCONT   00    00000000000          00000000000000000000000000000000000000000000 000000000000000A000000000000000000000000000000000000000000000 000000000000000000000000000000000000000     00000000                                                                                                                        000000000000000000
F0010000005985600005000086000089600013552100000000000000000201407030002001SIKA COLOMBIA S.A.                                D000000000464000000000000000000000100010010000000000000000000000F0010000005985600520140703000101 00000000000000000000000000000000000000000000000000000000000000000000000000000000000000000000000000000000000000000N 00000000000NCONT   00    00000000000          00000000000000000000000000000000000000000000 000000000000000A000000000000000000000000000000000000000000000 000000000000000000000000000000000000000     00000000                                                                                                                        000000000000000000
F0010000005985700001000086000089600013050500000000000000000201407030002001SIKA COLOMBIA S.A.                                D000000015797600000000000000000000100010010000000000000000000000F0010000005985700120140703000101 00000000000000000000000000000000000000000000000000000000000000000000000000000000000000000000000000000000000000000N 00000000000NCONT   00    00000000000          00000000000000000000000000000000000000000000 000000000000000A000000000000000000000000000000000000000000000 000000000000000000000000000000000000000     00000000                                                                                                                        000000000000000000
F0010000005985700002000086000089600041450500000000000000000201407030002001SIKA COLOMBIA S.A.                                C000000015797600000000000000000000100010010000000000000000000000F0010000005985700220140703000101 00000000000000000000000000000000000000000000000000000000000000000000000000000000000000000000000000000000000000000N 00000000000NCONT   00    00000000000          00000000000000000000000000000000000000000000 000000000000000A000000000000000000000000000000000000000000000 000000000000000000000000000000000000000     00000000                                                                                                                        000000000000000000
F0010000005985700003000086000089600042505000000000000000000201407030002001SIKA COLOMBIA S.A.                                C000000000000000000000000000000000100010010000000000000000000000F0010000005985700320140703000101 00000000000000000000000000000000000000000000000000000000000000000000000000000000000000000000000000000000000000000N 00000000000NCONT   00    00000000000          00000000000000000000000000000000000000000000 000000000000000A000000000000000000000000000000000000000000000 000000000000000000000000000000000000000     00000000                                                                                                                        000000000000000000
F0010000005985700004000086000089600023658300000000000000000201407030002001SIKA COLOMBIA S.A.                                C000000000126400000000000000000000100010010000000000000000000000F0010000005985700420140703000101 00000000000000000000000000000000000000000000000000000000000000000000000000000000000000000000000000000000000000000N 00000000000NCONT   00    00000000000          00000000000000000000000000000000000000000000 000000000000000A000000000000000000000000000000000000000000000 000000000000000000000000000000000000000     00000000                                                                                                                        000000000000000000
F0010000005985700005000086000089600013552100000000000000000201407030002001SIKA COLOMBIA S.A.                                D000000000126400000000000000000000100010010000000000000000000000F0010000005985700520140703000101 00000000000000000000000000000000000000000000000000000000000000000000000000000000000000000000000000000000000000000N 00000000000NCONT   00    00000000000          00000000000000000000000000000000000000000000 000000000000000A000000000000000000000000000000000000000000000 000000000000000000000000000000000000000     00000000                                                                                                                        000000000000000000
F0010000005985800001000089011033000011050500000000000000000201407030002001INDUSTRIAS CRUZ & CAÑON LTDA                     D000000007800000000000000000000000100010010000000000000000000000F0010000005985800120140703000101 00000000000000000000000000000000000000000000000000000000000000000000000000000000000000000000000000000000000000000N 00000000000NCONT   00    00000000000          00000000000000000000000000000000000000000000 000000000000000A000000000000000000000000000000000000000000000 000000000000000000000000000000000000000     00000000                                                                                                                        000000000000000000
F0010000005985800002000089011033000041450500000000000000000201407030002001INDUSTRIAS CRUZ & CAÑON LTDA                     C000000007000000000000000000000000100010010000000000000000000000F0010000005985800220140703000101 00000000000000000000000000000000000000000000000000000000000000000000000000000000000000000000000000000000000000000N 00000000000NCONT   00    00000000000          00000000000000000000000000000000000000000000 000000000000000A000000000000000000000000000000000000000000000 000000000000000000000000000000000000000     00000000                                                                                                                        000000000000000000
F0010000005985800003000089011033000042505000000000000000000201407030002001INDUSTRIAS CRUZ & CAÑON LTDA                     C000000000800000000000000000000000100010010000000000000000000000F0010000005985800320140703000101 00000000000000000000000000000000000000000000000000000000000000000000000000000000000000000000000000000000000000000N 00000000000NCONT   00    00000000000          00000000000000000000000000000000000000000000 000000000000000A000000000000000000000000000000000000000000000 000000000000000000000000000000000000000     00000000                                                                                                                        000000000000000000
F0010000005985800004000089011033000023658300000000000000000201407030002001INDUSTRIAS CRUZ & CAÑON LTDA                     C000000000056000000000000000000000100010010000000000000000000000F0010000005985800420140703000101 00000000000000000000000000000000000000000000000000000000000000000000000000000000000000000000000000000000000000000N 00000000000NCONT   00    00000000000          00000000000000000000000000000000000000000000 000000000000000A000000000000000000000000000000000000000000000 000000000000000000000000000000000000000     00000000                                                                                                                        000000000000000000
F0010000005985800005000089011033000013552100000000000000000201407030002001INDUSTRIAS CRUZ & CAÑON LTDA                     D000000000056000000000000000000000100010010000000000000000000000F0010000005985800520140703000101 00000000000000000000000000000000000000000000000000000000000000000000000000000000000000000000000000000000000000000N 00000000000NCONT   00    00000000000          00000000000000000000000000000000000000000000 000000000000000A000000000000000000000000000000000000000000000 000000000000000000000000000000000000000     00000000                                                                                                                        000000000000000000
F0010000005985900001000090034602400011050500000000000000000201407030002001LA CUSTODIA                                       D000000001000000000000000000000000100010010000000000000000000000F0010000005985900120140703000101 00000000000000000000000000000000000000000000000000000000000000000000000000000000000000000000000000000000000000000N 00000000000NCONT   00    00000000000          00000000000000000000000000000000000000000000 000000000000000A000000000000000000000000000000000000000000000 000000000000000000000000000000000000000     00000000                                                                                                                        000000000000000000
F0010000005985900002000090034602400041450500000000000000000201407030002001LA CUSTODIA                                       C000000000900000000000000000000000100010010000000000000000000000F0010000005985900220140703000101 00000000000000000000000000000000000000000000000000000000000000000000000000000000000000000000000000000000000000000N 00000000000NCONT   00    00000000000          00000000000000000000000000000000000000000000 000000000000000A000000000000000000000000000000000000000000000 000000000000000000000000000000000000000     00000000                                                                                                                        000000000000000000
F0010000005985900003000090034602400042505000000000000000000201407030002001LA CUSTODIA                                       C000000000100000000000000000000000100010010000000000000000000000F0010000005985900320140703000101 00000000000000000000000000000000000000000000000000000000000000000000000000000000000000000000000000000000000000000N 00000000000NCONT   00    00000000000          00000000000000000000000000000000000000000000 000000000000000A000000000000000000000000000000000000000000000 000000000000000000000000000000000000000     00000000                                                                                                                        000000000000000000
F0010000005985900004000090034602400023658300000000000000000201407030002001LA CUSTODIA                                       C000000000007200000000000000000000100010010000000000000000000000F0010000005985900420140703000101 00000000000000000000000000000000000000000000000000000000000000000000000000000000000000000000000000000000000000000N 00000000000NCONT   00    00000000000          00000000000000000000000000000000000000000000 000000000000000A000000000000000000000000000000000000000000000 000000000000000000000000000000000000000     00000000                                                                                                                        000000000000000000
F0010000005985900005000090034602400013552100000000000000000201407030002001LA CUSTODIA                                       D000000000007200000000000000000000100010010000000000000000000000F0010000005985900520140703000101 00000000000000000000000000000000000000000000000000000000000000000000000000000000000000000000000000000000000000000N 00000000000NCONT   00    00000000000          00000000000000000000000000000000000000000000 000000000000000A000000000000000000000000000000000000000000000 000000000000000000000000000000000000000     00000000                                                                                                                        000000000000000000
F0010000005986000001000090034602400011050500000000000000000201407030002001LA CUSTODIA                                       D000000001000000000000000000000000100010010000000000000000000000F0010000005986000120140703000101 00000000000000000000000000000000000000000000000000000000000000000000000000000000000000000000000000000000000000000N 00000000000NCONT   00    00000000000          00000000000000000000000000000000000000000000 000000000000000A000000000000000000000000000000000000000000000 000000000000000000000000000000000000000     00000000                                                                                                                        000000000000000000
F0010000005986000002000090034602400041450500000000000000000201407030002001LA CUSTODIA                                       C000000000900000000000000000000000100010010000000000000000000000F0010000005986000220140703000101 00000000000000000000000000000000000000000000000000000000000000000000000000000000000000000000000000000000000000000N 00000000000NCONT   00    00000000000          00000000000000000000000000000000000000000000 000000000000000A000000000000000000000000000000000000000000000 000000000000000000000000000000000000000     00000000                                                                                                                        000000000000000000
F0010000005986000003000090034602400042505000000000000000000201407030002001LA CUSTODIA                                       C000000000100000000000000000000000100010010000000000000000000000F0010000005986000320140703000101 00000000000000000000000000000000000000000000000000000000000000000000000000000000000000000000000000000000000000000N 00000000000NCONT   00    00000000000          00000000000000000000000000000000000000000000 000000000000000A000000000000000000000000000000000000000000000 000000000000000000000000000000000000000     00000000                                                                                                                        000000000000000000
F0010000005986000004000090034602400023658300000000000000000201407030002001LA CUSTODIA                                       C000000000007200000000000000000000100010010000000000000000000000F0010000005986000420140703000101 00000000000000000000000000000000000000000000000000000000000000000000000000000000000000000000000000000000000000000N 00000000000NCONT   00    00000000000          00000000000000000000000000000000000000000000 000000000000000A000000000000000000000000000000000000000000000 000000000000000000000000000000000000000     00000000                                                                                                                        000000000000000000
F0010000005986000005000090034602400013552100000000000000000201407030002001LA CUSTODIA                                       D000000000007200000000000000000000100010010000000000000000000000F0010000005986000520140703000101 00000000000000000000000000000000000000000000000000000000000000000000000000000000000000000000000000000000000000000N 00000000000NCONT   00    00000000000          00000000000000000000000000000000000000000000 000000000000000A000000000000000000000000000000000000000000000 000000000000000000000000000000000000000     00000000                                                                                                                        000000000000000000
F0010000005986100001000000871745700011050500000000000000000201407030002001JOEL MARIN R                                      D000000002200000000000000000000000100010010000000000000000000000F0010000005986100120140703000101 00000000000000000000000000000000000000000000000000000000000000000000000000000000000000000000000000000000000000000N 00000000000NCONT   00    00000000000          00000000000000000000000000000000000000000000 000000000000000A000000000000000000000000000000000000000000000 000000000000000000000000000000000000000     00000000                                                                                                                        000000000000000000
F0010000005986100002000000871745700041450500000000000000000201407030002001JOEL MARIN R                                      C000000001200000000000000000000000100010010000000000000000000000F0010000005986100220140703000101 00000000000000000000000000000000000000000000000000000000000000000000000000000000000000000000000000000000000000000N 00000000000NCONT   00    00000000000          00000000000000000000000000000000000000000000 000000000000000A000000000000000000000000000000000000000000000 000000000000000000000000000000000000000     00000000                                                                                                                        000000000000000000
F0010000005986100003000000871745700042505000000000000000000201407030002001JOEL MARIN R                                      C000000001000000000000000000000000100010010000000000000000000000F0010000005986100320140703000101 00000000000000000000000000000000000000000000000000000000000000000000000000000000000000000000000000000000000000000N 00000000000NCONT   00    00000000000          00000000000000000000000000000000000000000000 000000000000000A000000000000000000000000000000000000000000000 000000000000000000000000000000000000000     00000000                                                                                                                        000000000000000000
F0010000005986100004000000871745700023658300000000000000000201407030002001JOEL MARIN R                                      C000000000009600000000000000000000100010010000000000000000000000F0010000005986100420140703000101 00000000000000000000000000000000000000000000000000000000000000000000000000000000000000000000000000000000000000000N 00000000000NCONT   00    00000000000          00000000000000000000000000000000000000000000 000000000000000A000000000000000000000000000000000000000000000 000000000000000000000000000000000000000     00000000                                                                                                                        000000000000000000
F0010000005986100005000000871745700013552100000000000000000201407030002001JOEL MARIN R                                      D000000000009600000000000000000000100010010000000000000000000000F0010000005986100520140703000101 00000000000000000000000000000000000000000000000000000000000000000000000000000000000000000000000000000000000000000N 00000000000NCONT   00    00000000000          00000000000000000000000000000000000000000000 000000000000000A000000000000000000000000000000000000000000000 000000000000000000000000000000000000000     00000000                                                                                                                        000000000000000000
F0010000005986200001000007231376500011050500000000000000000201407030002001COMERCIALIZADORA PELUCHE                          D000000008000000000000000000000000100010010000000000000000000000F0010000005986200120140703000101 00000000000000000000000000000000000000000000000000000000000000000000000000000000000000000000000000000000000000000N 00000000000NCONT   00    00000000000          00000000000000000000000000000000000000000000 000000000000000A000000000000000000000000000000000000000000000 000000000000000000000000000000000000000     00000000                                                                                                                        000000000000000000
F0010000005986200002000007231376500041450500000000000000000201407030002001COMERCIALIZADORA PELUCHE                          C000000006500000000000000000000000100010010000000000000000000000F0010000005986200220140703000101 00000000000000000000000000000000000000000000000000000000000000000000000000000000000000000000000000000000000000000N 00000000000NCONT   00    00000000000          00000000000000000000000000000000000000000000 000000000000000A000000000000000000000000000000000000000000000 000000000000000000000000000000000000000     00000000                                                                                                                        000000000000000000
F0010000005986200003000007231376500042505000000000000000000201407030002001COMERCIALIZADORA PELUCHE                          C000000001500000000000000000000000100010010000000000000000000000F0010000005986200320140703000101 00000000000000000000000000000000000000000000000000000000000000000000000000000000000000000000000000000000000000000N 00000000000NCONT   00    00000000000          00000000000000000000000000000000000000000000 000000000000000A000000000000000000000000000000000000000000000 000000000000000000000000000000000000000     00000000                                                                                                                        000000000000000000
F0010000005986200004000007231376500023658300000000000000000201407030002001COMERCIALIZADORA PELUCHE                          C000000000052000000000000000000000100010010000000000000000000000F0010000005986200420140703000101 00000000000000000000000000000000000000000000000000000000000000000000000000000000000000000000000000000000000000000N 00000000000NCONT   00    00000000000          00000000000000000000000000000000000000000000 000000000000000A000000000000000000000000000000000000000000000 000000000000000000000000000000000000000     00000000                                                                                                                        000000000000000000
F0010000005986200005000007231376500013552100000000000000000201407030002001COMERCIALIZADORA PELUCHE                          D000000000052000000000000000000000100010010000000000000000000000F0010000005986200520140703000101 00000000000000000000000000000000000000000000000000000000000000000000000000000000000000000000000000000000000000000N 00000000000NCONT   00    00000000000          00000000000000000000000000000000000000000000 000000000000000A000000000000000000000000000000000000000000000 000000000000000000000000000000000000000     00000000                                                                                                                        000000000000000000
F0010000005986300001000090020547900011050500000000000000000201407030002001DAC DEL CARIBE S.A.S.                             D000000010600000000000000000000000100010010000000000000000000000F0010000005986300120140703000101 00000000000000000000000000000000000000000000000000000000000000000000000000000000000000000000000000000000000000000N 00000000000NCONT   00    00000000000          00000000000000000000000000000000000000000000 000000000000000A000000000000000000000000000000000000000000000 000000000000000000000000000000000000000     00000000                                                                                                                        000000000000000000
F0010000005986300002000090020547900041450500000000000000000201407030002001DAC DEL CARIBE S.A.S.                             C000000007200000000000000000000000100010010000000000000000000000F0010000005986300220140703000101 00000000000000000000000000000000000000000000000000000000000000000000000000000000000000000000000000000000000000000N 00000000000NCONT   00    00000000000          00000000000000000000000000000000000000000000 000000000000000A000000000000000000000000000000000000000000000 000000000000000000000000000000000000000     00000000                                                                                                                        000000000000000000
F0010000005986300003000090020547900042505000000000000000000201407030002001DAC DEL CARIBE S.A.S.                             C000000003400000000000000000000000100010010000000000000000000000F0010000005986300320140703000101 00000000000000000000000000000000000000000000000000000000000000000000000000000000000000000000000000000000000000000N 00000000000NCONT   00    00000000000          00000000000000000000000000000000000000000000 000000000000000A000000000000000000000000000000000000000000000 000000000000000000000000000000000000000     00000000                                                                                                                        000000000000000000
F0010000005986300004000090020547900023658300000000000000000201407030002001DAC DEL CARIBE S.A.S.                             C000000000057600000000000000000000100010010000000000000000000000F0010000005986300420140703000101 00000000000000000000000000000000000000000000000000000000000000000000000000000000000000000000000000000000000000000N 00000000000NCONT   00    00000000000          00000000000000000000000000000000000000000000 000000000000000A000000000000000000000000000000000000000000000 000000000000000000000000000000000000000     00000000                                                                                                                        000000000000000000
F0010000005986300005000090020547900013552100000000000000000201407030002001DAC DEL CARIBE S.A.S.                             D000000000057600000000000000000000100010010000000000000000000000F0010000005986300520140703000101 00000000000000000000000000000000000000000000000000000000000000000000000000000000000000000000000000000000000000000N 00000000000NCONT   00    00000000000          00000000000000000000000000000000000000000000 000000000000000A000000000000000000000000000000000000000000000 000000000000000000000000000000000000000     00000000                                                                                                                        000000000000000000
F0010000005986400001000090020547900011050500000000000000000201407030002001DAC DEL CARIBE S.A.S.                             D000000004400000000000000000000000100010010000000000000000000000F0010000005986400120140703000101 00000000000000000000000000000000000000000000000000000000000000000000000000000000000000000000000000000000000000000N 00000000000NCONT   00    00000000000          00000000000000000000000000000000000000000000 000000000000000A000000000000000000000000000000000000000000000 000000000000000000000000000000000000000     00000000                                                                                                                        000000000000000000
F0010000005986400002000090020547900041450500000000000000000201407030002001DAC DEL CARIBE S.A.S.                             C000000003600000000000000000000000100010010000000000000000000000F0010000005986400220140703000101 00000000000000000000000000000000000000000000000000000000000000000000000000000000000000000000000000000000000000000N 00000000000NCONT   00    00000000000          00000000000000000000000000000000000000000000 000000000000000A000000000000000000000000000000000000000000000 000000000000000000000000000000000000000     00000000                                                                                                                        000000000000000000
F0010000005986400003000090020547900042505000000000000000000201407030002001DAC DEL CARIBE S.A.S.                             C000000000800000000000000000000000100010010000000000000000000000F0010000005986400320140703000101 00000000000000000000000000000000000000000000000000000000000000000000000000000000000000000000000000000000000000000N 00000000000NCONT   00    00000000000          00000000000000000000000000000000000000000000 000000000000000A000000000000000000000000000000000000000000000 000000000000000000000000000000000000000     00000000                                                                                                                        000000000000000000
F0010000005986400004000090020547900023658300000000000000000201407030002001DAC DEL CARIBE S.A.S.                             C000000000028800000000000000000000100010010000000000000000000000F0010000005986400420140703000101 00000000000000000000000000000000000000000000000000000000000000000000000000000000000000000000000000000000000000000N 00000000000NCONT   00    00000000000          00000000000000000000000000000000000000000000 000000000000000A000000000000000000000000000000000000000000000 000000000000000000000000000000000000000     00000000                                                                                                                        000000000000000000
F0010000005986400005000090020547900013552100000000000000000201407030002001DAC DEL CARIBE S.A.S.                             D000000000028800000000000000000000100010010000000000000000000000F0010000005986400520140703000101 00000000000000000000000000000000000000000000000000000000000000000000000000000000000000000000000000000000000000000N 00000000000NCONT   00    00000000000          00000000000000000000000000000000000000000000 000000000000000A000000000000000000000000000000000000000000000 000000000000000000000000000000000000000     00000000                                                                                                                        000000000000000000
F0010000005986500001000090020547900011050500000000000000000201407030002001DAC DEL CARIBE S.A.S.                             D000000004000000000000000000000000100010010000000000000000000000F0010000005986500120140703000101 00000000000000000000000000000000000000000000000000000000000000000000000000000000000000000000000000000000000000000N 00000000000NCONT   00    00000000000          00000000000000000000000000000000000000000000 000000000000000A000000000000000000000000000000000000000000000 000000000000000000000000000000000000000     00000000                                                                                                                        000000000000000000
F0010000005986500002000090020547900041450500000000000000000201407030002001DAC DEL CARIBE S.A.S.                             C000000003000000000000000000000000100010010000000000000000000000F0010000005986500220140703000101 00000000000000000000000000000000000000000000000000000000000000000000000000000000000000000000000000000000000000000N 00000000000NCONT   00    00000000000          00000000000000000000000000000000000000000000 000000000000000A000000000000000000000000000000000000000000000 000000000000000000000000000000000000000     00000000                                                                                                                        000000000000000000
F0010000005986500003000090020547900042505000000000000000000201407030002001DAC DEL CARIBE S.A.S.                             C000000001000000000000000000000000100010010000000000000000000000F0010000005986500320140703000101 00000000000000000000000000000000000000000000000000000000000000000000000000000000000000000000000000000000000000000N 00000000000NCONT   00    00000000000          00000000000000000000000000000000000000000000 000000000000000A000000000000000000000000000000000000000000000 000000000000000000000000000000000000000     00000000                                                                                                                        000000000000000000
F0010000005986500004000090020547900023658300000000000000000201407030002001DAC DEL CARIBE S.A.S.                             C000000000024000000000000000000000100010010000000000000000000000F0010000005986500420140703000101 00000000000000000000000000000000000000000000000000000000000000000000000000000000000000000000000000000000000000000N 00000000000NCONT   00    00000000000          00000000000000000000000000000000000000000000 000000000000000A000000000000000000000000000000000000000000000 000000000000000000000000000000000000000     00000000                                                                                                                        000000000000000000
F0010000005986500005000090020547900013552100000000000000000201407030002001DAC DEL CARIBE S.A.S.                             D000000000024000000000000000000000100010010000000000000000000000F0010000005986500520140703000101 00000000000000000000000000000000000000000000000000000000000000000000000000000000000000000000000000000000000000000N 00000000000NCONT   00    00000000000          00000000000000000000000000000000000000000000 000000000000000A000000000000000000000000000000000000000000000 000000000000000000000000000000000000000     00000000                                                                                                                        000000000000000000
F0010000005986600001000090020547900011050500000000000000000201407030002001DAC DEL CARIBE S.A.S.                             D000000007800000000000000000000000100010010000000000000000000000F0010000005986600120140703000101 00000000000000000000000000000000000000000000000000000000000000000000000000000000000000000000000000000000000000000N 00000000000NCONT   00    00000000000          00000000000000000000000000000000000000000000 000000000000000A000000000000000000000000000000000000000000000 000000000000000000000000000000000000000     00000000                                                                                                                        000000000000000000
F0010000005986600002000090020547900041450500000000000000000201407030002001DAC DEL CARIBE S.A.S.                             C000000006000000000000000000000000100010010000000000000000000000F0010000005986600220140703000101 00000000000000000000000000000000000000000000000000000000000000000000000000000000000000000000000000000000000000000N 00000000000NCONT   00    00000000000          00000000000000000000000000000000000000000000 000000000000000A000000000000000000000000000000000000000000000 000000000000000000000000000000000000000     00000000                                                                                                                        000000000000000000
F0010000005986600003000090020547900042505000000000000000000201407030002001DAC DEL CARIBE S.A.S.                             C000000001800000000000000000000000100010010000000000000000000000F0010000005986600320140703000101 00000000000000000000000000000000000000000000000000000000000000000000000000000000000000000000000000000000000000000N 00000000000NCONT   00    00000000000          00000000000000000000000000000000000000000000 000000000000000A000000000000000000000000000000000000000000000 000000000000000000000000000000000000000     00000000                                                                                                                        000000000000000000
F0010000005986600004000090020547900023658300000000000000000201407030002001DAC DEL CARIBE S.A.S.                             C000000000048000000000000000000000100010010000000000000000000000F0010000005986600420140703000101 00000000000000000000000000000000000000000000000000000000000000000000000000000000000000000000000000000000000000000N 00000000000NCONT   00    00000000000          00000000000000000000000000000000000000000000 000000000000000A000000000000000000000000000000000000000000000 000000000000000000000000000000000000000     00000000                                                                                                                        000000000000000000
F0010000005986600005000090020547900013552100000000000000000201407030002001DAC DEL CARIBE S.A.S.                             D000000000048000000000000000000000100010010000000000000000000000F0010000005986600520140703000101 00000000000000000000000000000000000000000000000000000000000000000000000000000000000000000000000000000000000000000N 00000000000NCONT   00    00000000000          00000000000000000000000000000000000000000000 000000000000000A000000000000000000000000000000000000000000000 000000000000000000000000000000000000000     00000000                                                                                                                        000000000000000000
F0010000005986700001000090020547900011050500000000000000000201407030002001DAC DEL CARIBE S.A.S.                             D000000003800000000000000000000000100010010000000000000000000000F0010000005986700120140703000101 00000000000000000000000000000000000000000000000000000000000000000000000000000000000000000000000000000000000000000N 00000000000NCONT   00    00000000000          00000000000000000000000000000000000000000000 000000000000000A000000000000000000000000000000000000000000000 000000000000000000000000000000000000000     00000000                                                                                                                        000000000000000000
F0010000005986700002000090020547900041450500000000000000000201407030002001DAC DEL CARIBE S.A.S.                             C000000002700000000000000000000000100010010000000000000000000000F0010000005986700220140703000101 00000000000000000000000000000000000000000000000000000000000000000000000000000000000000000000000000000000000000000N 00000000000NCONT   00    00000000000          00000000000000000000000000000000000000000000 000000000000000A000000000000000000000000000000000000000000000 000000000000000000000000000000000000000     00000000                                                                                                                        000000000000000000
F0010000005986700003000090020547900042505000000000000000000201407030002001DAC DEL CARIBE S.A.S.                             C000000001100000000000000000000000100010010000000000000000000000F0010000005986700320140703000101 00000000000000000000000000000000000000000000000000000000000000000000000000000000000000000000000000000000000000000N 00000000000NCONT   00    00000000000          00000000000000000000000000000000000000000000 000000000000000A000000000000000000000000000000000000000000000 000000000000000000000000000000000000000     00000000                                                                                                                        000000000000000000
F0010000005986700004000090020547900023658300000000000000000201407030002001DAC DEL CARIBE S.A.S.                             C000000000021600000000000000000000100010010000000000000000000000F0010000005986700420140703000101 00000000000000000000000000000000000000000000000000000000000000000000000000000000000000000000000000000000000000000N 00000000000NCONT   00    00000000000          00000000000000000000000000000000000000000000 000000000000000A000000000000000000000000000000000000000000000 000000000000000000000000000000000000000     00000000                                                                                                                        000000000000000000
F0010000005986700005000090020547900013552100000000000000000201407030002001DAC DEL CARIBE S.A.S.                             D000000000021600000000000000000000100010010000000000000000000000F0010000005986700520140703000101 00000000000000000000000000000000000000000000000000000000000000000000000000000000000000000000000000000000000000000N 00000000000NCONT   00    00000000000          00000000000000000000000000000000000000000000 000000000000000A000000000000000000000000000000000000000000000 000000000000000000000000000000000000000     00000000                                                                                                                        000000000000000000
F0010000005986800001000004555368600011050500000000000000000201407030002001MILDREY MARIN                                     D000000003700000000000000000000000100010010000000000000000000000F0010000005986800120140703000101 00000000000000000000000000000000000000000000000000000000000000000000000000000000000000000000000000000000000000000N 00000000000NCONT   00    00000000000          00000000000000000000000000000000000000000000 000000000000000A000000000000000000000000000000000000000000000 000000000000000000000000000000000000000     00000000                                                                                                                        000000000000000000
F0010000005986800002000004555368600041450500000000000000000201407030002001MILDREY MARIN                                     C000000003600000000000000000000000100010010000000000000000000000F0010000005986800220140703000101 00000000000000000000000000000000000000000000000000000000000000000000000000000000000000000000000000000000000000000N 00000000000NCONT   00    00000000000          00000000000000000000000000000000000000000000 000000000000000A000000000000000000000000000000000000000000000 000000000000000000000000000000000000000     00000000                                                                                                                        000000000000000000
F0010000005986800003000004555368600042505000000000000000000201407030002001MILDREY MARIN                                     C000000000100000000000000000000000100010010000000000000000000000F0010000005986800320140703000101 00000000000000000000000000000000000000000000000000000000000000000000000000000000000000000000000000000000000000000N 00000000000NCONT   00    00000000000          00000000000000000000000000000000000000000000 000000000000000A000000000000000000000000000000000000000000000 000000000000000000000000000000000000000     00000000                                                                                                                        000000000000000000
F0010000005986800004000004555368600023658300000000000000000201407030002001MILDREY MARIN                                     C000000000028800000000000000000000100010010000000000000000000000F0010000005986800420140703000101 00000000000000000000000000000000000000000000000000000000000000000000000000000000000000000000000000000000000000000N 00000000000NCONT   00    00000000000          00000000000000000000000000000000000000000000 000000000000000A000000000000000000000000000000000000000000000 000000000000000000000000000000000000000     00000000                                                                                                                        000000000000000000
F0010000005986800005000004555368600013552100000000000000000201407030002001MILDREY MARIN                                     D000000000028800000000000000000000100010010000000000000000000000F0010000005986800520140703000101 00000000000000000000000000000000000000000000000000000000000000000000000000000000000000000000000000000000000000000N 00000000000NCONT   00    00000000000          00000000000000000000000000000000000000000000 000000000000000A000000000000000000000000000000000000000000000 000000000000000000000000000000000000000     00000000                                                                                                                        000000000000000000
F0010000005986900001000007229328500011050500000000000000000201407030002001PV ELECTRIC   DEL CARIBE                          D000000002600000000000000000000000100010010000000000000000000000F0010000005986900120140703000101 00000000000000000000000000000000000000000000000000000000000000000000000000000000000000000000000000000000000000000N 00000000000NCONT   00    00000000000          00000000000000000000000000000000000000000000 000000000000000A000000000000000000000000000000000000000000000 000000000000000000000000000000000000000     00000000                                                                                                                        000000000000000000
F0010000005986900002000007229328500041450500000000000000000201407030002001PV ELECTRIC   DEL CARIBE                          C000000002400000000000000000000000100010010000000000000000000000F0010000005986900220140703000101 00000000000000000000000000000000000000000000000000000000000000000000000000000000000000000000000000000000000000000N 00000000000NCONT   00    00000000000          00000000000000000000000000000000000000000000 000000000000000A000000000000000000000000000000000000000000000 000000000000000000000000000000000000000     00000000                                                                                                                        000000000000000000
F0010000005986900003000007229328500042505000000000000000000201407030002001PV ELECTRIC   DEL CARIBE                          C000000000200000000000000000000000100010010000000000000000000000F0010000005986900320140703000101 00000000000000000000000000000000000000000000000000000000000000000000000000000000000000000000000000000000000000000N 00000000000NCONT   00    00000000000          00000000000000000000000000000000000000000000 000000000000000A000000000000000000000000000000000000000000000 000000000000000000000000000000000000000     00000000                                                                                                                        000000000000000000
F0010000005986900004000007229328500023658300000000000000000201407030002001PV ELECTRIC   DEL CARIBE                          C000000000019200000000000000000000100010010000000000000000000000F0010000005986900420140703000101 00000000000000000000000000000000000000000000000000000000000000000000000000000000000000000000000000000000000000000N 00000000000NCONT   00    00000000000          00000000000000000000000000000000000000000000 000000000000000A000000000000000000000000000000000000000000000 000000000000000000000000000000000000000     00000000                                                                                                                        000000000000000000
F0010000005986900005000007229328500013552100000000000000000201407030002001PV ELECTRIC   DEL CARIBE                          D000000000019200000000000000000000100010010000000000000000000000F0010000005986900520140703000101 00000000000000000000000000000000000000000000000000000000000000000000000000000000000000000000000000000000000000000N 00000000000NCONT   00    00000000000          00000000000000000000000000000000000000000000 000000000000000A000000000000000000000000000000000000000000000 000000000000000000000000000000000000000     00000000                                                                                                                        000000000000000000
F0010000005987000001000007229328500011050500000000000000000201407030002001PV ELECTRIC   DEL CARIBE                          D000000000850000000000000000000000100010010000000000000000000000F0010000005987000120140703000101 00000000000000000000000000000000000000000000000000000000000000000000000000000000000000000000000000000000000000000N 00000000000NCONT   00    00000000000          00000000000000000000000000000000000000000000 000000000000000A000000000000000000000000000000000000000000000 000000000000000000000000000000000000000     00000000                                                                                                                        000000000000000000
F0010000005987000002000007229328500041450500000000000000000201407030002001PV ELECTRIC   DEL CARIBE                          C000000000800000000000000000000000100010010000000000000000000000F0010000005987000220140703000101 00000000000000000000000000000000000000000000000000000000000000000000000000000000000000000000000000000000000000000N 00000000000NCONT   00    00000000000          00000000000000000000000000000000000000000000 000000000000000A000000000000000000000000000000000000000000000 000000000000000000000000000000000000000     00000000                                                                                                                        000000000000000000
F0010000005987000003000007229328500042505000000000000000000201407030002001PV ELECTRIC   DEL CARIBE                          C000000000050000000000000000000000100010010000000000000000000000F0010000005987000320140703000101 00000000000000000000000000000000000000000000000000000000000000000000000000000000000000000000000000000000000000000N 00000000000NCONT   00    00000000000          00000000000000000000000000000000000000000000 000000000000000A000000000000000000000000000000000000000000000 000000000000000000000000000000000000000     00000000                                                                                                                        000000000000000000
F0010000005987000004000007229328500023658300000000000000000201407030002001PV ELECTRIC   DEL CARIBE                          C000000000006400000000000000000000100010010000000000000000000000F0010000005987000420140703000101 00000000000000000000000000000000000000000000000000000000000000000000000000000000000000000000000000000000000000000N 00000000000NCONT   00    00000000000          00000000000000000000000000000000000000000000 000000000000000A000000000000000000000000000000000000000000000 000000000000000000000000000000000000000     00000000                                                                                                                        000000000000000000
F0010000005987000005000007229328500013552100000000000000000201407030002001PV ELECTRIC   DEL CARIBE                          D000000000006400000000000000000000100010010000000000000000000000F0010000005987000520140703000101 00000000000000000000000000000000000000000000000000000000000000000000000000000000000000000000000000000000000000000N 00000000000NCONT   00    00000000000          00000000000000000000000000000000000000000000 000000000000000A000000000000000000000000000000000000000000000 000000000000000000000000000000000000000     00000000                                                                                                                        000000000000000000
F0010000005987100001000007229328500011050500000000000000000201407030002001PV ELECTRIC   DEL CARIBE                          D000000003300000000000000000000000100010010000000000000000000000F0010000005987100120140703000101 00000000000000000000000000000000000000000000000000000000000000000000000000000000000000000000000000000000000000000N 00000000000NCONT   00    00000000000          00000000000000000000000000000000000000000000 000000000000000A000000000000000000000000000000000000000000000 000000000000000000000000000000000000000     00000000                                                                                                                        000000000000000000
F0010000005987100002000007229328500041450500000000000000000201407030002001PV ELECTRIC   DEL CARIBE                          C000000003000000000000000000000000100010010000000000000000000000F0010000005987100220140703000101 00000000000000000000000000000000000000000000000000000000000000000000000000000000000000000000000000000000000000000N 00000000000NCONT   00    00000000000          00000000000000000000000000000000000000000000 000000000000000A000000000000000000000000000000000000000000000 000000000000000000000000000000000000000     00000000                                                                                                                        000000000000000000
F0010000005987100003000007229328500042505000000000000000000201407030002001PV ELECTRIC   DEL CARIBE                          C000000000300000000000000000000000100010010000000000000000000000F0010000005987100320140703000101 00000000000000000000000000000000000000000000000000000000000000000000000000000000000000000000000000000000000000000N 00000000000NCONT   00    00000000000          00000000000000000000000000000000000000000000 000000000000000A000000000000000000000000000000000000000000000 000000000000000000000000000000000000000     00000000                                                                                                                        000000000000000000
F0010000005987100004000007229328500023658300000000000000000201407030002001PV ELECTRIC   DEL CARIBE                          C000000000024000000000000000000000100010010000000000000000000000F0010000005987100420140703000101 00000000000000000000000000000000000000000000000000000000000000000000000000000000000000000000000000000000000000000N 00000000000NCONT   00    00000000000          00000000000000000000000000000000000000000000 000000000000000A000000000000000000000000000000000000000000000 000000000000000000000000000000000000000     00000000                                                                                                                        000000000000000000
F0010000005987100005000007229328500013552100000000000000000201407030002001PV ELECTRIC   DEL CARIBE                          D000000000024000000000000000000000100010010000000000000000000000F0010000005987100520140703000101 00000000000000000000000000000000000000000000000000000000000000000000000000000000000000000000000000000000000000000N 00000000000NCONT   00    00000000000          00000000000000000000000000000000000000000000 000000000000000A000000000000000000000000000000000000000000000 000000000000000000000000000000000000000     00000000                                                                                                                        000000000000000000
F0010000005987200001000003276535300011050500000000000000000201407030002001YASLEYS CATAÑO ESCOBAR                           D000000004670000000000000000000000100010010000000000000000000000F0010000005987200120140703000101 00000000000000000000000000000000000000000000000000000000000000000000000000000000000000000000000000000000000000000N 00000000000NCONT   00    00000000000          00000000000000000000000000000000000000000000 000000000000000A000000000000000000000000000000000000000000000 000000000000000000000000000000000000000     00000000                                                                                                                        000000000000000000
F0010000005987200002000003276535300041450500000000000000000201407030002001YASLEYS CATAÑO ESCOBAR                           C000000003570000000000000000000000100010010000000000000000000000F0010000005987200220140703000101 00000000000000000000000000000000000000000000000000000000000000000000000000000000000000000000000000000000000000000N 00000000000NCONT   00    00000000000          00000000000000000000000000000000000000000000 000000000000000A000000000000000000000000000000000000000000000 000000000000000000000000000000000000000     00000000                                                                                                                        000000000000000000
F0010000005987200003000003276535300042505000000000000000000201407030002001YASLEYS CATAÑO ESCOBAR                           C000000001100000000000000000000000100010010000000000000000000000F0010000005987200320140703000101 00000000000000000000000000000000000000000000000000000000000000000000000000000000000000000000000000000000000000000N 00000000000NCONT   00    00000000000          00000000000000000000000000000000000000000000 000000000000000A000000000000000000000000000000000000000000000 000000000000000000000000000000000000000     00000000                                                                                                                        000000000000000000
F0010000005987200004000003276535300023658300000000000000000201407030002001YASLEYS CATAÑO ESCOBAR                           C000000000028600000000000000000000100010010000000000000000000000F0010000005987200420140703000101 00000000000000000000000000000000000000000000000000000000000000000000000000000000000000000000000000000000000000000N 00000000000NCONT   00    00000000000          00000000000000000000000000000000000000000000 000000000000000A000000000000000000000000000000000000000000000 000000000000000000000000000000000000000     00000000                                                                                                                        000000000000000000
F0010000005987200005000003276535300013552100000000000000000201407030002001YASLEYS CATAÑO ESCOBAR                           D000000000028600000000000000000000100010010000000000000000000000F0010000005987200520140703000101 00000000000000000000000000000000000000000000000000000000000000000000000000000000000000000000000000000000000000000N 00000000000NCONT   00    00000000000          00000000000000000000000000000000000000000000 000000000000000A000000000000000000000000000000000000000000000 000000000000000000000000000000000000000     00000000                                                                                                                        000000000000000000
F0010000005987300001000003276535300011050500000000000000000201407030002001YASLEYS CATAÑO ESCOBAR                           D000000003260000000000000000000000100010010000000000000000000000F0010000005987300120140703000101 00000000000000000000000000000000000000000000000000000000000000000000000000000000000000000000000000000000000000000N 00000000000NCONT   00    00000000000          00000000000000000000000000000000000000000000 000000000000000A000000000000000000000000000000000000000000000 000000000000000000000000000000000000000     00000000                                                                                                                        000000000000000000
F0010000005987300002000003276535300041450500000000000000000201407030002001YASLEYS CATAÑO ESCOBAR                           C000000002860000000000000000000000100010010000000000000000000000F0010000005987300220140703000101 00000000000000000000000000000000000000000000000000000000000000000000000000000000000000000000000000000000000000000N 00000000000NCONT   00    00000000000          00000000000000000000000000000000000000000000 000000000000000A000000000000000000000000000000000000000000000 000000000000000000000000000000000000000     00000000                                                                                                                        000000000000000000
F0010000005987300003000003276535300042505000000000000000000201407030002001YASLEYS CATAÑO ESCOBAR                           C000000000400000000000000000000000100010010000000000000000000000F0010000005987300320140703000101 00000000000000000000000000000000000000000000000000000000000000000000000000000000000000000000000000000000000000000N 00000000000NCONT   00    00000000000          00000000000000000000000000000000000000000000 000000000000000A000000000000000000000000000000000000000000000 000000000000000000000000000000000000000     00000000                                                                                                                        000000000000000000
F0010000005987300004000003276535300023658300000000000000000201407030002001YASLEYS CATAÑO ESCOBAR                           C000000000022900000000000000000000100010010000000000000000000000F0010000005987300420140703000101 00000000000000000000000000000000000000000000000000000000000000000000000000000000000000000000000000000000000000000N 00000000000NCONT   00    00000000000          00000000000000000000000000000000000000000000 000000000000000A000000000000000000000000000000000000000000000 000000000000000000000000000000000000000     00000000                                                                                                                        000000000000000000
F0010000005987300005000003276535300013552100000000000000000201407030002001YASLEYS CATAÑO ESCOBAR                           D000000000022900000000000000000000100010010000000000000000000000F0010000005987300520140703000101 00000000000000000000000000000000000000000000000000000000000000000000000000000000000000000000000000000000000000000N 00000000000NCONT   00    00000000000          00000000000000000000000000000000000000000000 000000000000000A000000000000000000000000000000000000000000000 000000000000000000000000000000000000000     00000000                                                                                                                        000000000000000000
F0010000005987400001000000866309000011050500000000000000000201407030002001MARCO MORA PATIÑO                                D000000001500000000000000000000000100010010000000000000000000000F0010000005987400120140703000101 00000000000000000000000000000000000000000000000000000000000000000000000000000000000000000000000000000000000000000N 00000000000NCONT   00    00000000000          00000000000000000000000000000000000000000000 000000000000000A000000000000000000000000000000000000000000000 000000000000000000000000000000000000000     00000000                                                                                                                        000000000000000000
F0010000005987400002000000866309000041450500000000000000000201407030002001MARCO MORA PATIÑO                                C000000001400000000000000000000000100010010000000000000000000000F0010000005987400220140703000101 00000000000000000000000000000000000000000000000000000000000000000000000000000000000000000000000000000000000000000N 00000000000NCONT   00    00000000000          00000000000000000000000000000000000000000000 000000000000000A000000000000000000000000000000000000000000000 000000000000000000000000000000000000000     00000000                                                                                                                        000000000000000000
F0010000005987400003000000866309000042505000000000000000000201407030002001MARCO MORA PATIÑO                                C000000000100000000000000000000000100010010000000000000000000000F0010000005987400320140703000101 00000000000000000000000000000000000000000000000000000000000000000000000000000000000000000000000000000000000000000N 00000000000NCONT   00    00000000000          00000000000000000000000000000000000000000000 000000000000000A000000000000000000000000000000000000000000000 000000000000000000000000000000000000000     00000000                                                                                                                        000000000000000000
F0010000005987400004000000866309000023658300000000000000000201407030002001MARCO MORA PATIÑO                                C000000000011200000000000000000000100010010000000000000000000000F0010000005987400420140703000101 00000000000000000000000000000000000000000000000000000000000000000000000000000000000000000000000000000000000000000N 00000000000NCONT   00    00000000000          00000000000000000000000000000000000000000000 000000000000000A000000000000000000000000000000000000000000000 000000000000000000000000000000000000000     00000000                                                                                                                        000000000000000000
F0010000005987400005000000866309000013552100000000000000000201407030002001MARCO MORA PATIÑO                                D000000000011200000000000000000000100010010000000000000000000000F0010000005987400520140703000101 00000000000000000000000000000000000000000000000000000000000000000000000000000000000000000000000000000000000000000N 00000000000NCONT   00    00000000000          00000000000000000000000000000000000000000000 000000000000000A000000000000000000000000000000000000000000000 000000000000000000000000000000000000000     00000000                                                                                                                        000000000000000000
F0010000005987500001000007069760600011050500000000000000000201407030002001JUAN PANESO                                       D000000008500000000000000000000000100010010000000000000000000000F0010000005987500120140703000101 00000000000000000000000000000000000000000000000000000000000000000000000000000000000000000000000000000000000000000N 00000000000NCONT   00    00000000000          00000000000000000000000000000000000000000000 000000000000000A000000000000000000000000000000000000000000000 000000000000000000000000000000000000000     00000000                                                                                                                        000000000000000000
F0010000005987500002000007069760600041450500000000000000000201407030002001JUAN PANESO                                       C000000007500000000000000000000000100010010000000000000000000000F0010000005987500220140703000101 00000000000000000000000000000000000000000000000000000000000000000000000000000000000000000000000000000000000000000N 00000000000NCONT   00    00000000000          00000000000000000000000000000000000000000000 000000000000000A000000000000000000000000000000000000000000000 000000000000000000000000000000000000000     00000000                                                                                                                        000000000000000000
F0010000005987500003000007069760600042505000000000000000000201407030002001JUAN PANESO                                       C000000001000000000000000000000000100010010000000000000000000000F0010000005987500320140703000101 00000000000000000000000000000000000000000000000000000000000000000000000000000000000000000000000000000000000000000N 00000000000NCONT   00    00000000000          00000000000000000000000000000000000000000000 000000000000000A000000000000000000000000000000000000000000000 000000000000000000000000000000000000000     00000000                                                                                                                        000000000000000000
F0010000005987500004000007069760600023658300000000000000000201407030002001JUAN PANESO                                       C000000000060000000000000000000000100010010000000000000000000000F0010000005987500420140703000101 00000000000000000000000000000000000000000000000000000000000000000000000000000000000000000000000000000000000000000N 00000000000NCONT   00    00000000000          00000000000000000000000000000000000000000000 000000000000000A000000000000000000000000000000000000000000000 000000000000000000000000000000000000000     00000000                                                                                                                        000000000000000000
F0010000005987500005000007069760600013552100000000000000000201407030002001JUAN PANESO                                       D000000000060000000000000000000000100010010000000000000000000000F0010000005987500520140703000101 00000000000000000000000000000000000000000000000000000000000000000000000000000000000000000000000000000000000000000N 00000000000NCONT   00    00000000000          00000000000000000000000000000000000000000000 000000000000000A000000000000000000000000000000000000000000000 000000000000000000000000000000000000000     00000000                                                                                                                        000000000000000000
F0010000005987600001000000866309000011050500000000000000000201407030002001MARCO MORA PATIÑO                                D000000002540000000000000000000000100010010000000000000000000000F0010000005987600120140703000101 00000000000000000000000000000000000000000000000000000000000000000000000000000000000000000000000000000000000000000N 00000000000NCONT   00    00000000000          00000000000000000000000000000000000000000000 000000000000000A000000000000000000000000000000000000000000000 000000000000000000000000000000000000000     00000000                                                                                                                        000000000000000000
F0010000005987600002000000866309000041450500000000000000000201407030002001MARCO MORA PATIÑO                                C000000001400000000000000000000000100010010000000000000000000000F0010000005987600220140703000101 00000000000000000000000000000000000000000000000000000000000000000000000000000000000000000000000000000000000000000N 00000000000NCONT   00    00000000000          00000000000000000000000000000000000000000000 000000000000000A000000000000000000000000000000000000000000000 000000000000000000000000000000000000000     00000000                                                                                                                        000000000000000000
F0010000005987600003000000866309000042505000000000000000000201407030002001MARCO MORA PATIÑO                                C000000001140000000000000000000000100010010000000000000000000000F0010000005987600320140703000101 00000000000000000000000000000000000000000000000000000000000000000000000000000000000000000000000000000000000000000N 00000000000NCONT   00    00000000000          00000000000000000000000000000000000000000000 000000000000000A000000000000000000000000000000000000000000000 000000000000000000000000000000000000000     00000000                                                                                                                        000000000000000000
F0010000005987600004000000866309000023658300000000000000000201407030002001MARCO MORA PATIÑO                                C000000000011200000000000000000000100010010000000000000000000000F0010000005987600420140703000101 00000000000000000000000000000000000000000000000000000000000000000000000000000000000000000000000000000000000000000N 00000000000NCONT   00    00000000000          00000000000000000000000000000000000000000000 000000000000000A000000000000000000000000000000000000000000000 000000000000000000000000000000000000000     00000000                                                                                                                        000000000000000000
F0010000005987600005000000866309000013552100000000000000000201407030002001MARCO MORA PATIÑO                                D000000000011200000000000000000000100010010000000000000000000000F0010000005987600520140703000101 00000000000000000000000000000000000000000000000000000000000000000000000000000000000000000000000000000000000000000N 00000000000NCONT   00    00000000000          00000000000000000000000000000000000000000000 000000000000000A000000000000000000000000000000000000000000000 000000000000000000000000000000000000000     00000000                                                                                                                        000000000000000000
F0010000005987700001000090050144800011050500000000000000000201407030002001PLASTICOS JR ASOCIADOS SAS                        D000000007600000000000000000000000100010010000000000000000000000F0010000005987700120140703000101 00000000000000000000000000000000000000000000000000000000000000000000000000000000000000000000000000000000000000000N 00000000000NCONT   00    00000000000          00000000000000000000000000000000000000000000 000000000000000A000000000000000000000000000000000000000000000 000000000000000000000000000000000000000     00000000                                                                                                                        000000000000000000
F0010000005987700002000090050144800041450500000000000000000201407030002001PLASTICOS JR ASOCIADOS SAS                        C000000006800000000000000000000000100010010000000000000000000000F0010000005987700220140703000101 00000000000000000000000000000000000000000000000000000000000000000000000000000000000000000000000000000000000000000N 00000000000NCONT   00    00000000000          00000000000000000000000000000000000000000000 000000000000000A000000000000000000000000000000000000000000000 000000000000000000000000000000000000000     00000000                                                                                                                        000000000000000000
F0010000005987700003000090050144800042505000000000000000000201407030002001PLASTICOS JR ASOCIADOS SAS                        C000000000800000000000000000000000100010010000000000000000000000F0010000005987700320140703000101 00000000000000000000000000000000000000000000000000000000000000000000000000000000000000000000000000000000000000000N 00000000000NCONT   00    00000000000          00000000000000000000000000000000000000000000 000000000000000A000000000000000000000000000000000000000000000 000000000000000000000000000000000000000     00000000                                                                                                                        000000000000000000
F0010000005987700004000090050144800023658300000000000000000201407030002001PLASTICOS JR ASOCIADOS SAS                        C000000000054400000000000000000000100010010000000000000000000000F0010000005987700420140703000101 00000000000000000000000000000000000000000000000000000000000000000000000000000000000000000000000000000000000000000N 00000000000NCONT   00    00000000000          00000000000000000000000000000000000000000000 000000000000000A000000000000000000000000000000000000000000000 000000000000000000000000000000000000000     00000000                                                                                                                        000000000000000000
F0010000005987700005000090050144800013552100000000000000000201407030002001PLASTICOS JR ASOCIADOS SAS                        D000000000054400000000000000000000100010010000000000000000000000F0010000005987700520140703000101 00000000000000000000000000000000000000000000000000000000000000000000000000000000000000000000000000000000000000000N 00000000000NCONT   00    00000000000          00000000000000000000000000000000000000000000 000000000000000A000000000000000000000000000000000000000000000 000000000000000000000000000000000000000     00000000                                                                                                                        000000000000000000
F0010000005987800001000000870907300011050500000000000000000201407030002001SURTIDOR FERRETERO                                D000000001000000000000000000000000100010010000000000000000000000F0010000005987800120140703000101 00000000000000000000000000000000000000000000000000000000000000000000000000000000000000000000000000000000000000000N 00000000000NCONT   00    00000000000          00000000000000000000000000000000000000000000 000000000000000A000000000000000000000000000000000000000000000 000000000000000000000000000000000000000     00000000                                                                                                                        000000000000000000
F0010000005987800002000000870907300041450500000000000000000201407030002001SURTIDOR FERRETERO                                C000000000750000000000000000000000100010010000000000000000000000F0010000005987800220140703000101 00000000000000000000000000000000000000000000000000000000000000000000000000000000000000000000000000000000000000000N 00000000000NCONT   00    00000000000          00000000000000000000000000000000000000000000 000000000000000A000000000000000000000000000000000000000000000 000000000000000000000000000000000000000     00000000                                                                                                                        000000000000000000
F0010000005987800003000000870907300042505000000000000000000201407030002001SURTIDOR FERRETERO                                C000000000250000000000000000000000100010010000000000000000000000F0010000005987800320140703000101 00000000000000000000000000000000000000000000000000000000000000000000000000000000000000000000000000000000000000000N 00000000000NCONT   00    00000000000          00000000000000000000000000000000000000000000 000000000000000A000000000000000000000000000000000000000000000 000000000000000000000000000000000000000     00000000                                                                                                                        000000000000000000
F0010000005987800004000000870907300023658300000000000000000201407030002001SURTIDOR FERRETERO                                C000000000006000000000000000000000100010010000000000000000000000F0010000005987800420140703000101 00000000000000000000000000000000000000000000000000000000000000000000000000000000000000000000000000000000000000000N 00000000000NCONT   00    00000000000          00000000000000000000000000000000000000000000 000000000000000A000000000000000000000000000000000000000000000 000000000000000000000000000000000000000     00000000                                                                                                                        000000000000000000
F0010000005987800005000000870907300013552100000000000000000201407030002001SURTIDOR FERRETERO                                D000000000006000000000000000000000100010010000000000000000000000F0010000005987800520140703000101 00000000000000000000000000000000000000000000000000000000000000000000000000000000000000000000000000000000000000000N 00000000000NCONT   00    00000000000          00000000000000000000000000000000000000000000 000000000000000A000000000000000000000000000000000000000000000 000000000000000000000000000000000000000     00000000                                                                                                                        000000000000000000
F0010000005987900001000004175790100011050500000000000000000201407030002001ROSIRIS FERIA HOYOS  (COSM. SHILLER)              D000000001300000000000000000000000100010010000000000000000000000F0010000005987900120140703000101 00000000000000000000000000000000000000000000000000000000000000000000000000000000000000000000000000000000000000000N 00000000000NCONT   00    00000000000          00000000000000000000000000000000000000000000 000000000000000A000000000000000000000000000000000000000000000 000000000000000000000000000000000000000     00000000                                                                                                                        000000000000000000
F0010000005987900002000004175790100041450500000000000000000201407030002001ROSIRIS FERIA HOYOS  (COSM. SHILLER)              C000000001200000000000000000000000100010010000000000000000000000F0010000005987900220140703000101 00000000000000000000000000000000000000000000000000000000000000000000000000000000000000000000000000000000000000000N 00000000000NCONT   00    00000000000          00000000000000000000000000000000000000000000 000000000000000A000000000000000000000000000000000000000000000 000000000000000000000000000000000000000     00000000                                                                                                                        000000000000000000
F0010000005987900003000004175790100042505000000000000000000201407030002001ROSIRIS FERIA HOYOS  (COSM. SHILLER)              C000000000100000000000000000000000100010010000000000000000000000F0010000005987900320140703000101 00000000000000000000000000000000000000000000000000000000000000000000000000000000000000000000000000000000000000000N 00000000000NCONT   00    00000000000          00000000000000000000000000000000000000000000 000000000000000A000000000000000000000000000000000000000000000 000000000000000000000000000000000000000     00000000                                                                                                                        000000000000000000
F0010000005987900004000004175790100023658300000000000000000201407030002001ROSIRIS FERIA HOYOS  (COSM. SHILLER)              C000000000009600000000000000000000100010010000000000000000000000F0010000005987900420140703000101 00000000000000000000000000000000000000000000000000000000000000000000000000000000000000000000000000000000000000000N 00000000000NCONT   00    00000000000          00000000000000000000000000000000000000000000 000000000000000A000000000000000000000000000000000000000000000 000000000000000000000000000000000000000     00000000                                                                                                                        000000000000000000
F0010000005987900005000004175790100013552100000000000000000201407030002001ROSIRIS FERIA HOYOS  (COSM. SHILLER)              D000000000009600000000000000000000100010010000000000000000000000F0010000005987900520140703000101 00000000000000000000000000000000000000000000000000000000000000000000000000000000000000000000000000000000000000000N 00000000000NCONT   00    00000000000          00000000000000000000000000000000000000000000 000000000000000A000000000000000000000000000000000000000000000 000000000000000000000000000000000000000     00000000                                                                                                                        000000000000000000
F0010000005988000001000004175790100011050500000000000000000201407030002001ROSIRIS FERIA HOYOS  (COSM. SHILLER)              D000000001000000000000000000000000100010010000000000000000000000F0010000005988000120140703000101 00000000000000000000000000000000000000000000000000000000000000000000000000000000000000000000000000000000000000000N 00000000000NCONT   00    00000000000          00000000000000000000000000000000000000000000 000000000000000A000000000000000000000000000000000000000000000 000000000000000000000000000000000000000     00000000                                                                                                                        000000000000000000
F0010000005988000002000004175790100041450500000000000000000201407030002001ROSIRIS FERIA HOYOS  (COSM. SHILLER)              C000000000900000000000000000000000100010010000000000000000000000F0010000005988000220140703000101 00000000000000000000000000000000000000000000000000000000000000000000000000000000000000000000000000000000000000000N 00000000000NCONT   00    00000000000          00000000000000000000000000000000000000000000 000000000000000A000000000000000000000000000000000000000000000 000000000000000000000000000000000000000     00000000                                                                                                                        000000000000000000
F0010000005988000003000004175790100042505000000000000000000201407030002001ROSIRIS FERIA HOYOS  (COSM. SHILLER)              C000000000100000000000000000000000100010010000000000000000000000F0010000005988000320140703000101 00000000000000000000000000000000000000000000000000000000000000000000000000000000000000000000000000000000000000000N 00000000000NCONT   00    00000000000          00000000000000000000000000000000000000000000 000000000000000A000000000000000000000000000000000000000000000 000000000000000000000000000000000000000     00000000                                                                                                                        000000000000000000
F0010000005988000004000004175790100023658300000000000000000201407030002001ROSIRIS FERIA HOYOS  (COSM. SHILLER)              C000000000007200000000000000000000100010010000000000000000000000F0010000005988000420140703000101 00000000000000000000000000000000000000000000000000000000000000000000000000000000000000000000000000000000000000000N 00000000000NCONT   00    00000000000          00000000000000000000000000000000000000000000 000000000000000A000000000000000000000000000000000000000000000 000000000000000000000000000000000000000     00000000                                                                                                                        000000000000000000
F0010000005988000005000004175790100013552100000000000000000201407030002001ROSIRIS FERIA HOYOS  (COSM. SHILLER)              D000000000007200000000000000000000100010010000000000000000000000F0010000005988000520140703000101 00000000000000000000000000000000000000000000000000000000000000000000000000000000000000000000000000000000000000000N 00000000000NCONT   00    00000000000          00000000000000000000000000000000000000000000 000000000000000A000000000000000000000000000000000000000000000 000000000000000000000000000000000000000     00000000                                                                                                                        000000000000000000
F0010000005988100001000000431178400011050500000000000000000201407030002001EFRAIN ALVAREZ                                    D000000001200000000000000000000000100010010000000000000000000000F0010000005988100120140703000101 00000000000000000000000000000000000000000000000000000000000000000000000000000000000000000000000000000000000000000N 00000000000NCONT   00    00000000000          00000000000000000000000000000000000000000000 000000000000000A000000000000000000000000000000000000000000000 000000000000000000000000000000000000000     00000000                                                                                                                        000000000000000000
F0010000005988100002000000431178400041450500000000000000000201407030002001EFRAIN ALVAREZ                                    C000000001150000000000000000000000100010010000000000000000000000F0010000005988100220140703000101 00000000000000000000000000000000000000000000000000000000000000000000000000000000000000000000000000000000000000000N 00000000000NCONT   00    00000000000          00000000000000000000000000000000000000000000 000000000000000A000000000000000000000000000000000000000000000 000000000000000000000000000000000000000     00000000                                                                                                                        000000000000000000
F0010000005988100003000000431178400042505000000000000000000201407030002001EFRAIN ALVAREZ                                    C000000000050000000000000000000000100010010000000000000000000000F0010000005988100320140703000101 00000000000000000000000000000000000000000000000000000000000000000000000000000000000000000000000000000000000000000N 00000000000NCONT   00    00000000000          00000000000000000000000000000000000000000000 000000000000000A000000000000000000000000000000000000000000000 000000000000000000000000000000000000000     00000000                                                                                                                        000000000000000000
F0010000005988100004000000431178400023658300000000000000000201407030002001EFRAIN ALVAREZ                                    C000000000009200000000000000000000100010010000000000000000000000F0010000005988100420140703000101 00000000000000000000000000000000000000000000000000000000000000000000000000000000000000000000000000000000000000000N 00000000000NCONT   00    00000000000          00000000000000000000000000000000000000000000 000000000000000A000000000000000000000000000000000000000000000 000000000000000000000000000000000000000     00000000                                                                                                                        000000000000000000
F0010000005988100005000000431178400013552100000000000000000201407030002001EFRAIN ALVAREZ                                    D000000000009200000000000000000000100010010000000000000000000000F0010000005988100520140703000101 00000000000000000000000000000000000000000000000000000000000000000000000000000000000000000000000000000000000000000N 00000000000NCONT   00    00000000000          00000000000000000000000000000000000000000000 000000000000000A000000000000000000000000000000000000000000000 000000000000000000000000000000000000000     00000000                                                                                                                        000000000000000000
F0010000005988200001000000431178400011050500000000000000000201407030002001EFRAIN ALVAREZ                                    D000000002550000000000000000000000100010010000000000000000000000F0010000005988200120140703000101 00000000000000000000000000000000000000000000000000000000000000000000000000000000000000000000000000000000000000000N 00000000000NCONT   00    00000000000          00000000000000000000000000000000000000000000 000000000000000A000000000000000000000000000000000000000000000 000000000000000000000000000000000000000     00000000                                                                                                                        000000000000000000
F0010000005988200002000000431178400041450500000000000000000201407030002001EFRAIN ALVAREZ                                    C000000002300000000000000000000000100010010000000000000000000000F0010000005988200220140703000101 00000000000000000000000000000000000000000000000000000000000000000000000000000000000000000000000000000000000000000N 00000000000NCONT   00    00000000000          00000000000000000000000000000000000000000000 000000000000000A000000000000000000000000000000000000000000000 000000000000000000000000000000000000000     00000000                                                                                                                        000000000000000000
F0010000005988200003000000431178400042505000000000000000000201407030002001EFRAIN ALVAREZ                                    C000000000250000000000000000000000100010010000000000000000000000F0010000005988200320140703000101 00000000000000000000000000000000000000000000000000000000000000000000000000000000000000000000000000000000000000000N 00000000000NCONT   00    00000000000          00000000000000000000000000000000000000000000 000000000000000A000000000000000000000000000000000000000000000 000000000000000000000000000000000000000     00000000                                                                                                                        000000000000000000
F0010000005988200004000000431178400023658300000000000000000201407030002001EFRAIN ALVAREZ                                    C000000000018400000000000000000000100010010000000000000000000000F0010000005988200420140703000101 00000000000000000000000000000000000000000000000000000000000000000000000000000000000000000000000000000000000000000N 00000000000NCONT   00    00000000000          00000000000000000000000000000000000000000000 000000000000000A000000000000000000000000000000000000000000000 000000000000000000000000000000000000000     00000000                                                                                                                        000000000000000000
F0010000005988200005000000431178400013552100000000000000000201407030002001EFRAIN ALVAREZ                                    D000000000018400000000000000000000100010010000000000000000000000F0010000005988200520140703000101 00000000000000000000000000000000000000000000000000000000000000000000000000000000000000000000000000000000000000000N 00000000000NCONT   00    00000000000          00000000000000000000000000000000000000000000 000000000000000A000000000000000000000000000000000000000000000 000000000000000000000000000000000000000     00000000                                                                                                                        000000000000000000
F0010000005988300001000000431178400011050500000000000000000201407030002001EFRAIN ALVAREZ                                    D000000002400000000000000000000000100010010000000000000000000000F0010000005988300120140703000101 00000000000000000000000000000000000000000000000000000000000000000000000000000000000000000000000000000000000000000N 00000000000NCONT   00    00000000000          00000000000000000000000000000000000000000000 000000000000000A000000000000000000000000000000000000000000000 000000000000000000000000000000000000000     00000000                                                                                                                        000000000000000000
F0010000005988300002000000431178400041450500000000000000000201407030002001EFRAIN ALVAREZ                                    C000000002300000000000000000000000100010010000000000000000000000F0010000005988300220140703000101 00000000000000000000000000000000000000000000000000000000000000000000000000000000000000000000000000000000000000000N 00000000000NCONT   00    00000000000          00000000000000000000000000000000000000000000 000000000000000A000000000000000000000000000000000000000000000 000000000000000000000000000000000000000     00000000                                                                                                                        000000000000000000
