F0010000008624000001000090035510100013050500000000000000000201605190002001GRAINGER COLOMBIA S.A.S.                          D000000144688300000000000000000000100010010000000000000000000000F0010000008624000120160519000101 00000000000000000000000000000000000000000000000000000000000000000000000000000000000000000000000000000000000000000N 00000000000NCONT   00    00000000000          00000000000000000000000000000000000000000000 000000000000000A000000000000000000000000000000000000000000000 000000000000000000000000000000000000000     00000000                                                                                                                        000000000000000000
F0010000008624000002000090035510100041450500000000000000000201605190002001GRAINGER COLOMBIA S.A.S.                          C000000095336800000000000000000000100010010000000000000000000000F0010000008624000220160519000101 00000000000000000000000000000000000000000000000000000000000000000000000000000000000000000000000000000000000000000N 00000000000NCONT   00    00000000000          00000000000000000000000000000000000000000000 000000000000000A000000000000000000000000000000000000000000000 000000000000000000000000000000000000000     00000000                                                                                                                        000000000000000000
F0010000008624000003000090035510100042505000000000000000000201605190002001GRAINGER COLOMBIA S.A.S.                          C000000049351500000000000000000000100010010000000000000000000000F0010000008624000320160519000101 00000000000000000000000000000000000000000000000000000000000000000000000000000000000000000000000000000000000000000N 00000000000NCONT   00    00000000000          00000000000000000000000000000000000000000000 000000000000000A000000000000000000000000000000000000000000000 000000000000000000000000000000000000000     00000000                                                                                                                        000000000000000000
F0010000008624000004000090035510100023658300000000000000000201605190002001GRAINGER COLOMBIA S.A.S.                          C000000000762700000000000000000000100010010000000000000000000000F0010000008624000420160519000101 00000000000000000000000000000000000000000000000000000000000000000000000000000000000000000000000000000000000000000N 00000000000NCONT   00    00000000000          00000000000000000000000000000000000000000000 000000000000000A000000000000000000000000000000000000000000000 000000000000000000000000000000000000000     00000000                                                                                                                        000000000000000000
F0010000008624000005000090035510100013552100000000000000000201605190002001GRAINGER COLOMBIA S.A.S.                          D000000000762700000000000000000000100010010000000000000000000000F0010000008624000520160519000101 00000000000000000000000000000000000000000000000000000000000000000000000000000000000000000000000000000000000000000N 00000000000NCONT   00    00000000000          00000000000000000000000000000000000000000000 000000000000000A000000000000000000000000000000000000000000000 000000000000000000000000000000000000000     00000000                                                                                                                        000000000000000000
F0010000008624100001000080001156600013050500000000000000000201605190002001VISBAL MORENO Y SUCESORES LTDA                    D000000008000000000000000000000000100010010000000000000000000000F0010000008624100120160519000101 00000000000000000000000000000000000000000000000000000000000000000000000000000000000000000000000000000000000000000N 00000000000NCONT   00    00000000000          00000000000000000000000000000000000000000000 000000000000000A000000000000000000000000000000000000000000000 000000000000000000000000000000000000000     00000000                                                                                                                        000000000000000000
F0010000008624100002000080001156600041450500000000000000000201605190002001VISBAL MORENO Y SUCESORES LTDA                    C000000007900000000000000000000000100010010000000000000000000000F0010000008624100220160519000101 00000000000000000000000000000000000000000000000000000000000000000000000000000000000000000000000000000000000000000N 00000000000NCONT   00    00000000000          00000000000000000000000000000000000000000000 000000000000000A000000000000000000000000000000000000000000000 000000000000000000000000000000000000000     00000000                                                                                                                        000000000000000000
F0010000008624100003000080001156600042505000000000000000000201605190002001VISBAL MORENO Y SUCESORES LTDA                    C000000000100000000000000000000000100010010000000000000000000000F0010000008624100320160519000101 00000000000000000000000000000000000000000000000000000000000000000000000000000000000000000000000000000000000000000N 00000000000NCONT   00    00000000000          00000000000000000000000000000000000000000000 000000000000000A000000000000000000000000000000000000000000000 000000000000000000000000000000000000000     00000000                                                                                                                        000000000000000000
F0010000008624100004000080001156600023658300000000000000000201605190002001VISBAL MORENO Y SUCESORES LTDA                    C000000000063200000000000000000000100010010000000000000000000000F0010000008624100420160519000101 00000000000000000000000000000000000000000000000000000000000000000000000000000000000000000000000000000000000000000N 00000000000NCONT   00    00000000000          00000000000000000000000000000000000000000000 000000000000000A000000000000000000000000000000000000000000000 000000000000000000000000000000000000000     00000000                                                                                                                        000000000000000000
F0010000008624100005000080001156600013552100000000000000000201605190002001VISBAL MORENO Y SUCESORES LTDA                    D000000000063200000000000000000000100010010000000000000000000000F0010000008624100520160519000101 00000000000000000000000000000000000000000000000000000000000000000000000000000000000000000000000000000000000000000N 00000000000NCONT   00    00000000000          00000000000000000000000000000000000000000000 000000000000000A000000000000000000000000000000000000000000000 000000000000000000000000000000000000000     00000000                                                                                                                        000000000000000000
F0010000008624200001000007225219800011050500000000000000000201605190002001MAURICIO ALVAREZ VARELO                           D000000008600000000000000000000000100010010000000000000000000000F0010000008624200120160519000101 00000000000000000000000000000000000000000000000000000000000000000000000000000000000000000000000000000000000000000N 00000000000NCONT   00    00000000000          00000000000000000000000000000000000000000000 000000000000000A000000000000000000000000000000000000000000000 000000000000000000000000000000000000000     00000000                                                                                                                        000000000000000000
F0010000008624200002000007225219800041450500000000000000000201605190002001MAURICIO ALVAREZ VARELO                           C000000006600000000000000000000000100010010000000000000000000000F0010000008624200220160519000101 00000000000000000000000000000000000000000000000000000000000000000000000000000000000000000000000000000000000000000N 00000000000NCONT   00    00000000000          00000000000000000000000000000000000000000000 000000000000000A000000000000000000000000000000000000000000000 000000000000000000000000000000000000000     00000000                                                                                                                        000000000000000000
F0010000008624200003000007225219800042505000000000000000000201605190002001MAURICIO ALVAREZ VARELO                           C000000002000000000000000000000000100010010000000000000000000000F0010000008624200320160519000101 00000000000000000000000000000000000000000000000000000000000000000000000000000000000000000000000000000000000000000N 00000000000NCONT   00    00000000000          00000000000000000000000000000000000000000000 000000000000000A000000000000000000000000000000000000000000000 000000000000000000000000000000000000000     00000000                                                                                                                        000000000000000000
F0010000008624200004000007225219800023658300000000000000000201605190002001MAURICIO ALVAREZ VARELO                           C000000000052800000000000000000000100010010000000000000000000000F0010000008624200420160519000101 00000000000000000000000000000000000000000000000000000000000000000000000000000000000000000000000000000000000000000N 00000000000NCONT   00    00000000000          00000000000000000000000000000000000000000000 000000000000000A000000000000000000000000000000000000000000000 000000000000000000000000000000000000000     00000000                                                                                                                        000000000000000000
F0010000008624200005000007225219800013552100000000000000000201605190002001MAURICIO ALVAREZ VARELO                           D000000000052800000000000000000000100010010000000000000000000000F0010000008624200520160519000101 00000000000000000000000000000000000000000000000000000000000000000000000000000000000000000000000000000000000000000N 00000000000NCONT   00    00000000000          00000000000000000000000000000000000000000000 000000000000000A000000000000000000000000000000000000000000000 000000000000000000000000000000000000000     00000000                                                                                                                        000000000000000000
F0010000008624400001000090008711200013050500000000000000000201605190002001PACKAGING SUPPLIERS S.A.                          D000000020405400000000000000000000100010010000000000000000000000F0010000008624400120160519000101 00000000000000000000000000000000000000000000000000000000000000000000000000000000000000000000000000000000000000000N 00000000000NCONT   00    00000000000          00000000000000000000000000000000000000000000 000000000000000A000000000000000000000000000000000000000000000 000000000000000000000000000000000000000     00000000                                                                                                                        000000000000000000
F0010000008624400002000090008711200041450500000000000000000201605190002001PACKAGING SUPPLIERS S.A.                          C000000018751900000000000000000000100010010000000000000000000000F0010000008624400220160519000101 00000000000000000000000000000000000000000000000000000000000000000000000000000000000000000000000000000000000000000N 00000000000NCONT   00    00000000000          00000000000000000000000000000000000000000000 000000000000000A000000000000000000000000000000000000000000000 000000000000000000000000000000000000000     00000000                                                                                                                        000000000000000000
F0010000008624400003000090008711200042505000000000000000000201605190002001PACKAGING SUPPLIERS S.A.                          C000000001653500000000000000000000100010010000000000000000000000F0010000008624400320160519000101 00000000000000000000000000000000000000000000000000000000000000000000000000000000000000000000000000000000000000000N 00000000000NCONT   00    00000000000          00000000000000000000000000000000000000000000 000000000000000A000000000000000000000000000000000000000000000 000000000000000000000000000000000000000     00000000                                                                                                                        000000000000000000
F0010000008624400004000090008711200023658300000000000000000201605190002001PACKAGING SUPPLIERS S.A.                          C000000000150000000000000000000000100010010000000000000000000000F0010000008624400420160519000101 00000000000000000000000000000000000000000000000000000000000000000000000000000000000000000000000000000000000000000N 00000000000NCONT   00    00000000000          00000000000000000000000000000000000000000000 000000000000000A000000000000000000000000000000000000000000000 000000000000000000000000000000000000000     00000000                                                                                                                        000000000000000000
F0010000008624400005000090008711200013552100000000000000000201605190002001PACKAGING SUPPLIERS S.A.                          D000000000150000000000000000000000100010010000000000000000000000F0010000008624400520160519000101 00000000000000000000000000000000000000000000000000000000000000000000000000000000000000000000000000000000000000000N 00000000000NCONT   00    00000000000          00000000000000000000000000000000000000000000 000000000000000A000000000000000000000000000000000000000000000 000000000000000000000000000000000000000     00000000                                                                                                                        000000000000000000
F0010000008624500001000080200069100013050500000000000000000201605190002001PEGANTES Y PINTURAS ATLAS LTDA                    D000000011632700000000000000000000100010010000000000000000000000F0010000008624500120160519000101 00000000000000000000000000000000000000000000000000000000000000000000000000000000000000000000000000000000000000000N 00000000000NCONT   00    00000000000          00000000000000000000000000000000000000000000 000000000000000A000000000000000000000000000000000000000000000 000000000000000000000000000000000000000     00000000                                                                                                                        000000000000000000
F0010000008624500002000080200069100041450500000000000000000201605190002001PEGANTES Y PINTURAS ATLAS LTDA                    C000000009900000000000000000000000100010010000000000000000000000F0010000008624500220160519000101 00000000000000000000000000000000000000000000000000000000000000000000000000000000000000000000000000000000000000000N 00000000000NCONT   00    00000000000          00000000000000000000000000000000000000000000 000000000000000A000000000000000000000000000000000000000000000 000000000000000000000000000000000000000     00000000                                                                                                                        000000000000000000
F0010000008624500003000080200069100042505000000000000000000201605190002001PEGANTES Y PINTURAS ATLAS LTDA                    C000000001732700000000000000000000100010010000000000000000000000F0010000008624500320160519000101 00000000000000000000000000000000000000000000000000000000000000000000000000000000000000000000000000000000000000000N 00000000000NCONT   00    00000000000          00000000000000000000000000000000000000000000 000000000000000A000000000000000000000000000000000000000000000 000000000000000000000000000000000000000     00000000                                                                                                                        000000000000000000
F0010000008624500004000080200069100023658300000000000000000201605190002001PEGANTES Y PINTURAS ATLAS LTDA                    C000000000079200000000000000000000100010010000000000000000000000F0010000008624500420160519000101 00000000000000000000000000000000000000000000000000000000000000000000000000000000000000000000000000000000000000000N 00000000000NCONT   00    00000000000          00000000000000000000000000000000000000000000 000000000000000A000000000000000000000000000000000000000000000 000000000000000000000000000000000000000     00000000                                                                                                                        000000000000000000
F0010000008624500005000080200069100013552100000000000000000201605190002001PEGANTES Y PINTURAS ATLAS LTDA                    D000000000079200000000000000000000100010010000000000000000000000F0010000008624500520160519000101 00000000000000000000000000000000000000000000000000000000000000000000000000000000000000000000000000000000000000000N 00000000000NCONT   00    00000000000          00000000000000000000000000000000000000000000 000000000000000A000000000000000000000000000000000000000000000 000000000000000000000000000000000000000     00000000                                                                                                                        000000000000000000
F0010000008624600001000080200608400013050500000000000000000201605190002001HIT DISTRIBUCIONES SAS                            D000000009280000000000000000000000100010010000000000000000000000F0010000008624600120160519000101 00000000000000000000000000000000000000000000000000000000000000000000000000000000000000000000000000000000000000000N 00000000000NCONT   00    00000000000          00000000000000000000000000000000000000000000 000000000000000A000000000000000000000000000000000000000000000 000000000000000000000000000000000000000     00000000                                                                                                                        000000000000000000
F0010000008624600002000080200608400041450500000000000000000201605190002001HIT DISTRIBUCIONES SAS                            C000000007080000000000000000000000100010010000000000000000000000F0010000008624600220160519000101 00000000000000000000000000000000000000000000000000000000000000000000000000000000000000000000000000000000000000000N 00000000000NCONT   00    00000000000          00000000000000000000000000000000000000000000 000000000000000A000000000000000000000000000000000000000000000 000000000000000000000000000000000000000     00000000                                                                                                                        000000000000000000
F0010000008624600003000080200608400042505000000000000000000201605190002001HIT DISTRIBUCIONES SAS                            C000000002200000000000000000000000100010010000000000000000000000F0010000008624600320160519000101 00000000000000000000000000000000000000000000000000000000000000000000000000000000000000000000000000000000000000000N 00000000000NCONT   00    00000000000          00000000000000000000000000000000000000000000 000000000000000A000000000000000000000000000000000000000000000 000000000000000000000000000000000000000     00000000                                                                                                                        000000000000000000
F0010000008624600004000080200608400023658300000000000000000201605190002001HIT DISTRIBUCIONES SAS                            C000000000056600000000000000000000100010010000000000000000000000F0010000008624600420160519000101 00000000000000000000000000000000000000000000000000000000000000000000000000000000000000000000000000000000000000000N 00000000000NCONT   00    00000000000          00000000000000000000000000000000000000000000 000000000000000A000000000000000000000000000000000000000000000 000000000000000000000000000000000000000     00000000                                                                                                                        000000000000000000
F0010000008624600005000080200608400013552100000000000000000201605190002001HIT DISTRIBUCIONES SAS                            D000000000056600000000000000000000100010010000000000000000000000F0010000008624600520160519000101 00000000000000000000000000000000000000000000000000000000000000000000000000000000000000000000000000000000000000000N 00000000000NCONT   00    00000000000          00000000000000000000000000000000000000000000 000000000000000A000000000000000000000000000000000000000000000 000000000000000000000000000000000000000     00000000                                                                                                                        000000000000000000
F0010000008624700001000089010526900013050500000000000000000201605190002001DISTRIBUCIONES CANAL Y CIA S.A.S                  D000000012512400000000000000000000100010010000000000000000000000F0010000008624700120160519000101 00000000000000000000000000000000000000000000000000000000000000000000000000000000000000000000000000000000000000000N 00000000000NCONT   00    00000000000          00000000000000000000000000000000000000000000 000000000000000A000000000000000000000000000000000000000000000 000000000000000000000000000000000000000     00000000                                                                                                                        000000000000000000
F0010000008624700002000089010526900041450500000000000000000201605190002001DISTRIBUCIONES CANAL Y CIA S.A.S                  C000000009160000000000000000000000100010010000000000000000000000F0010000008624700220160519000101 00000000000000000000000000000000000000000000000000000000000000000000000000000000000000000000000000000000000000000N 00000000000NCONT   00    00000000000          00000000000000000000000000000000000000000000 000000000000000A000000000000000000000000000000000000000000000 000000000000000000000000000000000000000     00000000                                                                                                                        000000000000000000
F0010000008624700003000089010526900042505000000000000000000201605190002001DISTRIBUCIONES CANAL Y CIA S.A.S                  C000000003352400000000000000000000100010010000000000000000000000F0010000008624700320160519000101 00000000000000000000000000000000000000000000000000000000000000000000000000000000000000000000000000000000000000000N 00000000000NCONT   00    00000000000          00000000000000000000000000000000000000000000 000000000000000A000000000000000000000000000000000000000000000 000000000000000000000000000000000000000     00000000                                                                                                                        000000000000000000
F0010000008624700004000089010526900023658300000000000000000201605190002001DISTRIBUCIONES CANAL Y CIA S.A.S                  C000000000073300000000000000000000100010010000000000000000000000F0010000008624700420160519000101 00000000000000000000000000000000000000000000000000000000000000000000000000000000000000000000000000000000000000000N 00000000000NCONT   00    00000000000          00000000000000000000000000000000000000000000 000000000000000A000000000000000000000000000000000000000000000 000000000000000000000000000000000000000     00000000                                                                                                                        000000000000000000
F0010000008624700005000089010526900013552100000000000000000201605190002001DISTRIBUCIONES CANAL Y CIA S.A.S                  D000000000073300000000000000000000100010010000000000000000000000F0010000008624700520160519000101 00000000000000000000000000000000000000000000000000000000000000000000000000000000000000000000000000000000000000000N 00000000000NCONT   00    00000000000          00000000000000000000000000000000000000000000 000000000000000A000000000000000000000000000000000000000000000 000000000000000000000000000000000000000     00000000                                                                                                                        000000000000000000
F0010000008624800001000090064982900013050500000000000000000201605190002001DISDIES S.A.S                                     D000000049713500000000000000000000100010010000000000000000000000F0010000008624800120160519000101 00000000000000000000000000000000000000000000000000000000000000000000000000000000000000000000000000000000000000000N 00000000000NCONT   00    00000000000          00000000000000000000000000000000000000000000 000000000000000A000000000000000000000000000000000000000000000 000000000000000000000000000000000000000     00000000                                                                                                                        000000000000000000
F0010000008624800002000090064982900041450500000000000000000201605190002001DISDIES S.A.S                                     C000000043737100000000000000000000100010010000000000000000000000F0010000008624800220160519000101 00000000000000000000000000000000000000000000000000000000000000000000000000000000000000000000000000000000000000000N 00000000000NCONT   00    00000000000          00000000000000000000000000000000000000000000 000000000000000A000000000000000000000000000000000000000000000 000000000000000000000000000000000000000     00000000                                                                                                                        000000000000000000
F0010000008624800003000090064982900042505000000000000000000201605190002001DISDIES S.A.S                                     C000000005976400000000000000000000100010010000000000000000000000F0010000008624800320160519000101 00000000000000000000000000000000000000000000000000000000000000000000000000000000000000000000000000000000000000000N 00000000000NCONT   00    00000000000          00000000000000000000000000000000000000000000 000000000000000A000000000000000000000000000000000000000000000 000000000000000000000000000000000000000     00000000                                                                                                                        000000000000000000
F0010000008624800004000090064982900023658300000000000000000201605190002001DISDIES S.A.S                                     C000000000349900000000000000000000100010010000000000000000000000F0010000008624800420160519000101 00000000000000000000000000000000000000000000000000000000000000000000000000000000000000000000000000000000000000000N 00000000000NCONT   00    00000000000          00000000000000000000000000000000000000000000 000000000000000A000000000000000000000000000000000000000000000 000000000000000000000000000000000000000     00000000                                                                                                                        000000000000000000
F0010000008624800005000090064982900013552100000000000000000201605190002001DISDIES S.A.S                                     D000000000349900000000000000000000100010010000000000000000000000F0010000008624800520160519000101 00000000000000000000000000000000000000000000000000000000000000000000000000000000000000000000000000000000000000000N 00000000000NCONT   00    00000000000          00000000000000000000000000000000000000000000 000000000000000A000000000000000000000000000000000000000000000 000000000000000000000000000000000000000     00000000                                                                                                                        000000000000000000
F0010000008624900001000090011041100013050500000000000000000201605190002001OFINEXT S.A.S.                                    D000000007750000000000000000000000100010010000000000000000000000F0010000008624900120160519000101 00000000000000000000000000000000000000000000000000000000000000000000000000000000000000000000000000000000000000000N 00000000000NCONT   00    00000000000          00000000000000000000000000000000000000000000 000000000000000A000000000000000000000000000000000000000000000 000000000000000000000000000000000000000     00000000                                                                                                                        000000000000000000
F0010000008624900002000090011041100041450500000000000000000201605190002001OFINEXT S.A.S.                                    C000000007000000000000000000000000100010010000000000000000000000F0010000008624900220160519000101 00000000000000000000000000000000000000000000000000000000000000000000000000000000000000000000000000000000000000000N 00000000000NCONT   00    00000000000          00000000000000000000000000000000000000000000 000000000000000A000000000000000000000000000000000000000000000 000000000000000000000000000000000000000     00000000                                                                                                                        000000000000000000
F0010000008624900003000090011041100042505000000000000000000201605190002001OFINEXT S.A.S.                                    C000000000750000000000000000000000100010010000000000000000000000F0010000008624900320160519000101 00000000000000000000000000000000000000000000000000000000000000000000000000000000000000000000000000000000000000000N 00000000000NCONT   00    00000000000          00000000000000000000000000000000000000000000 000000000000000A000000000000000000000000000000000000000000000 000000000000000000000000000000000000000     00000000                                                                                                                        000000000000000000
F0010000008624900004000090011041100023658300000000000000000201605190002001OFINEXT S.A.S.                                    C000000000056000000000000000000000100010010000000000000000000000F0010000008624900420160519000101 00000000000000000000000000000000000000000000000000000000000000000000000000000000000000000000000000000000000000000N 00000000000NCONT   00    00000000000          00000000000000000000000000000000000000000000 000000000000000A000000000000000000000000000000000000000000000 000000000000000000000000000000000000000     00000000                                                                                                                        000000000000000000
F0010000008624900005000090011041100013552100000000000000000201605190002001OFINEXT S.A.S.                                    D000000000056000000000000000000000100010010000000000000000000000F0010000008624900520160519000101 00000000000000000000000000000000000000000000000000000000000000000000000000000000000000000000000000000000000000000N 00000000000NCONT   00    00000000000          00000000000000000000000000000000000000000000 000000000000000A000000000000000000000000000000000000000000000 000000000000000000000000000000000000000     00000000                                                                                                                        000000000000000000
F0010000008625000001000080023327700013050500000000000000000201605190002001DISINCO LTDA                                      D000000008471000000000000000000000100010010000000000000000000000F0010000008625000120160519000101 00000000000000000000000000000000000000000000000000000000000000000000000000000000000000000000000000000000000000000N 00000000000NCONT   00    00000000000          00000000000000000000000000000000000000000000 000000000000000A000000000000000000000000000000000000000000000 000000000000000000000000000000000000000     00000000                                                                                                                        000000000000000000
F0010000008625000002000080023327700041450500000000000000000201605190002001DISINCO LTDA                                      C000000007534000000000000000000000100010010000000000000000000000F0010000008625000220160519000101 00000000000000000000000000000000000000000000000000000000000000000000000000000000000000000000000000000000000000000N 00000000000NCONT   00    00000000000          00000000000000000000000000000000000000000000 000000000000000A000000000000000000000000000000000000000000000 000000000000000000000000000000000000000     00000000                                                                                                                        000000000000000000
F0010000008625000003000080023327700042505000000000000000000201605190002001DISINCO LTDA                                      C000000000937000000000000000000000100010010000000000000000000000F0010000008625000320160519000101 00000000000000000000000000000000000000000000000000000000000000000000000000000000000000000000000000000000000000000N 00000000000NCONT   00    00000000000          00000000000000000000000000000000000000000000 000000000000000A000000000000000000000000000000000000000000000 000000000000000000000000000000000000000     00000000                                                                                                                        000000000000000000
F0010000008625000004000080023327700023658300000000000000000201605190002001DISINCO LTDA                                      C000000000060300000000000000000000100010010000000000000000000000F0010000008625000420160519000101 00000000000000000000000000000000000000000000000000000000000000000000000000000000000000000000000000000000000000000N 00000000000NCONT   00    00000000000          00000000000000000000000000000000000000000000 000000000000000A000000000000000000000000000000000000000000000 000000000000000000000000000000000000000     00000000                                                                                                                        000000000000000000
F0010000008625000005000080023327700013552100000000000000000201605190002001DISINCO LTDA                                      D000000000060300000000000000000000100010010000000000000000000000F0010000008625000520160519000101 00000000000000000000000000000000000000000000000000000000000000000000000000000000000000000000000000000000000000000N 00000000000NCONT   00    00000000000          00000000000000000000000000000000000000000000 000000000000000A000000000000000000000000000000000000000000000 000000000000000000000000000000000000000     00000000                                                                                                                        000000000000000000
F0010000008625100001000090060531100013050500000000000000000201605190002001RECUBRIMIENTOS ESENCIALES SAS                     D000000035300000000000000000000000100010010000000000000000000000F0010000008625100120160519000101 00000000000000000000000000000000000000000000000000000000000000000000000000000000000000000000000000000000000000000N 00000000000NCONT   00    00000000000          00000000000000000000000000000000000000000000 000000000000000A000000000000000000000000000000000000000000000 000000000000000000000000000000000000000     00000000                                                                                                                        000000000000000000
F0010000008625100002000090060531100041450500000000000000000201605190002001RECUBRIMIENTOS ESENCIALES SAS                     C000000032700000000000000000000000100010010000000000000000000000F0010000008625100220160519000101 00000000000000000000000000000000000000000000000000000000000000000000000000000000000000000000000000000000000000000N 00000000000NCONT   00    00000000000          00000000000000000000000000000000000000000000 000000000000000A000000000000000000000000000000000000000000000 000000000000000000000000000000000000000     00000000                                                                                                                        000000000000000000
F0010000008625100003000090060531100042505000000000000000000201605190002001RECUBRIMIENTOS ESENCIALES SAS                     C000000002600000000000000000000000100010010000000000000000000000F0010000008625100320160519000101 00000000000000000000000000000000000000000000000000000000000000000000000000000000000000000000000000000000000000000N 00000000000NCONT   00    00000000000          00000000000000000000000000000000000000000000 000000000000000A000000000000000000000000000000000000000000000 000000000000000000000000000000000000000     00000000                                                                                                                        000000000000000000
F0010000008625100004000090060531100023658300000000000000000201605190002001RECUBRIMIENTOS ESENCIALES SAS                     C000000000261600000000000000000000100010010000000000000000000000F0010000008625100420160519000101 00000000000000000000000000000000000000000000000000000000000000000000000000000000000000000000000000000000000000000N 00000000000NCONT   00    00000000000          00000000000000000000000000000000000000000000 000000000000000A000000000000000000000000000000000000000000000 000000000000000000000000000000000000000     00000000                                                                                                                        000000000000000000
F0010000008625100005000090060531100013552100000000000000000201605190002001RECUBRIMIENTOS ESENCIALES SAS                     D000000000261600000000000000000000100010010000000000000000000000F0010000008625100520160519000101 00000000000000000000000000000000000000000000000000000000000000000000000000000000000000000000000000000000000000000N 00000000000NCONT   00    00000000000          00000000000000000000000000000000000000000000 000000000000000A000000000000000000000000000000000000000000000 000000000000000000000000000000000000000     00000000                                                                                                                        000000000000000000
F0010000008625200001000089010260300013050500000000000000000201605190002001FEDERICO OSORIO A. S.A.                           D000000144910700000000000000000000100010010000000000000000000000F0010000008625200120160519000101 00000000000000000000000000000000000000000000000000000000000000000000000000000000000000000000000000000000000000000N 00000000000NCONT   00    00000000000          00000000000000000000000000000000000000000000 000000000000000A000000000000000000000000000000000000000000000 000000000000000000000000000000000000000     00000000                                                                                                                        000000000000000000
F0010000008625200002000089010260300041450500000000000000000201605190002001FEDERICO OSORIO A. S.A.                           C000000138210000000000000000000000100010010000000000000000000000F0010000008625200220160519000101 00000000000000000000000000000000000000000000000000000000000000000000000000000000000000000000000000000000000000000N 00000000000NCONT   00    00000000000          00000000000000000000000000000000000000000000 000000000000000A000000000000000000000000000000000000000000000 000000000000000000000000000000000000000     00000000                                                                                                                        000000000000000000
F0010000008625200003000089010260300042505000000000000000000201605190002001FEDERICO OSORIO A. S.A.                           C000000006700700000000000000000000100010010000000000000000000000F0010000008625200320160519000101 00000000000000000000000000000000000000000000000000000000000000000000000000000000000000000000000000000000000000000N 00000000000NCONT   00    00000000000          00000000000000000000000000000000000000000000 000000000000000A000000000000000000000000000000000000000000000 000000000000000000000000000000000000000     00000000                                                                                                                        000000000000000000
F0010000008625200004000089010260300023658300000000000000000201605190002001FEDERICO OSORIO A. S.A.                           C000000001105700000000000000000000100010010000000000000000000000F0010000008625200420160519000101 00000000000000000000000000000000000000000000000000000000000000000000000000000000000000000000000000000000000000000N 00000000000NCONT   00    00000000000          00000000000000000000000000000000000000000000 000000000000000A000000000000000000000000000000000000000000000 000000000000000000000000000000000000000     00000000                                                                                                                        000000000000000000
F0010000008625200005000089010260300013552100000000000000000201605190002001FEDERICO OSORIO A. S.A.                           D000000001105700000000000000000000100010010000000000000000000000F0010000008625200520160519000101 00000000000000000000000000000000000000000000000000000000000000000000000000000000000000000000000000000000000000000N 00000000000NCONT   00    00000000000          00000000000000000000000000000000000000000000 000000000000000A000000000000000000000000000000000000000000000 000000000000000000000000000000000000000     00000000                                                                                                                        000000000000000000
F0010000008625300001000000748239700013050500000000000000000201605190002001RAFAEL NAVARRO URIBE                              D000000097061800000000000000000000100010010000000000000000000000F0010000008625300120160519000101 00000000000000000000000000000000000000000000000000000000000000000000000000000000000000000000000000000000000000000N 00000000000NCONT   00    00000000000          00000000000000000000000000000000000000000000 000000000000000A000000000000000000000000000000000000000000000 000000000000000000000000000000000000000     00000000                                                                                                                        000000000000000000
F0010000008625300002000000748239700041450500000000000000000201605190002001RAFAEL NAVARRO URIBE                              C000000072780000000000000000000000100010010000000000000000000000F0010000008625300220160519000101 00000000000000000000000000000000000000000000000000000000000000000000000000000000000000000000000000000000000000000N 00000000000NCONT   00    00000000000          00000000000000000000000000000000000000000000 000000000000000A000000000000000000000000000000000000000000000 000000000000000000000000000000000000000     00000000                                                                                                                        000000000000000000
F0010000008625300003000000748239700042505000000000000000000201605190002001RAFAEL NAVARRO URIBE                              C000000024281800000000000000000000100010010000000000000000000000F0010000008625300320160519000101 00000000000000000000000000000000000000000000000000000000000000000000000000000000000000000000000000000000000000000N 00000000000NCONT   00    00000000000          00000000000000000000000000000000000000000000 000000000000000A000000000000000000000000000000000000000000000 000000000000000000000000000000000000000     00000000                                                                                                                        000000000000000000
F0010000008625300004000000748239700023658300000000000000000201605190002001RAFAEL NAVARRO URIBE                              C000000000582200000000000000000000100010010000000000000000000000F0010000008625300420160519000101 00000000000000000000000000000000000000000000000000000000000000000000000000000000000000000000000000000000000000000N 00000000000NCONT   00    00000000000          00000000000000000000000000000000000000000000 000000000000000A000000000000000000000000000000000000000000000 000000000000000000000000000000000000000     00000000                                                                                                                        000000000000000000
F0010000008625300005000000748239700013552100000000000000000201605190002001RAFAEL NAVARRO URIBE                              D000000000582200000000000000000000100010010000000000000000000000F0010000008625300520160519000101 00000000000000000000000000000000000000000000000000000000000000000000000000000000000000000000000000000000000000000N 00000000000NCONT   00    00000000000          00000000000000000000000000000000000000000000 000000000000000A000000000000000000000000000000000000000000000 000000000000000000000000000000000000000     00000000                                                                                                                        000000000000000000
F0010000008625400001000080016665600013050500000000000000000201605190002001SUMICAL DE ANTIOQUIA S.A.S                        D000000053263300000000000000000000100010010000000000000000000000F0010000008625400120160519000101 00000000000000000000000000000000000000000000000000000000000000000000000000000000000000000000000000000000000000000N 00000000000NCONT   00    00000000000          00000000000000000000000000000000000000000000 000000000000000A000000000000000000000000000000000000000000000 000000000000000000000000000000000000000     00000000                                                                                                                        000000000000000000
F0010000008625400002000080016665600041450500000000000000000201605190002001SUMICAL DE ANTIOQUIA S.A.S                        C000000045350000000000000000000000100010010000000000000000000000F0010000008625400220160519000101 00000000000000000000000000000000000000000000000000000000000000000000000000000000000000000000000000000000000000000N 00000000000NCONT   00    00000000000          00000000000000000000000000000000000000000000 000000000000000A000000000000000000000000000000000000000000000 000000000000000000000000000000000000000     00000000                                                                                                                        000000000000000000
F0010000008625400003000080016665600042505000000000000000000201605190002001SUMICAL DE ANTIOQUIA S.A.S                        C000000007913300000000000000000000100010010000000000000000000000F0010000008625400320160519000101 00000000000000000000000000000000000000000000000000000000000000000000000000000000000000000000000000000000000000000N 00000000000NCONT   00    00000000000          00000000000000000000000000000000000000000000 000000000000000A000000000000000000000000000000000000000000000 000000000000000000000000000000000000000     00000000                                                                                                                        000000000000000000
F0010000008625400004000080016665600023658300000000000000000201605190002001SUMICAL DE ANTIOQUIA S.A.S                        C000000000362800000000000000000000100010010000000000000000000000F0010000008625400420160519000101 00000000000000000000000000000000000000000000000000000000000000000000000000000000000000000000000000000000000000000N 00000000000NCONT   00    00000000000          00000000000000000000000000000000000000000000 000000000000000A000000000000000000000000000000000000000000000 000000000000000000000000000000000000000     00000000                                                                                                                        000000000000000000
F0010000008625400005000080016665600013552100000000000000000201605190002001SUMICAL DE ANTIOQUIA S.A.S                        D000000000362800000000000000000000100010010000000000000000000000F0010000008625400520160519000101 00000000000000000000000000000000000000000000000000000000000000000000000000000000000000000000000000000000000000000N 00000000000NCONT   00    00000000000          00000000000000000000000000000000000000000000 000000000000000A000000000000000000000000000000000000000000000 000000000000000000000000000000000000000     00000000                                                                                                                        000000000000000000
F0010000008625500001000002245670100013050500000000000000000201605190002001YOLANDA  TOBON                                    D000000015423600000000000000000000100010010000000000000000000000F0010000008625500120160519000101 00000000000000000000000000000000000000000000000000000000000000000000000000000000000000000000000000000000000000000N 00000000000NCONT   00    00000000000          00000000000000000000000000000000000000000000 000000000000000A000000000000000000000000000000000000000000000 000000000000000000000000000000000000000     00000000                                                                                                                        000000000000000000
F0010000008625500002000002245670100041450500000000000000000201605190002001YOLANDA  TOBON                                    C000000011640000000000000000000000100010010000000000000000000000F0010000008625500220160519000101 00000000000000000000000000000000000000000000000000000000000000000000000000000000000000000000000000000000000000000N 00000000000NCONT   00    00000000000          00000000000000000000000000000000000000000000 000000000000000A000000000000000000000000000000000000000000000 000000000000000000000000000000000000000     00000000                                                                                                                        000000000000000000
F0010000008625500003000002245670100042505000000000000000000201605190002001YOLANDA  TOBON                                    C000000003783600000000000000000000100010010000000000000000000000F0010000008625500320160519000101 00000000000000000000000000000000000000000000000000000000000000000000000000000000000000000000000000000000000000000N 00000000000NCONT   00    00000000000          00000000000000000000000000000000000000000000 000000000000000A000000000000000000000000000000000000000000000 000000000000000000000000000000000000000     00000000                                                                                                                        000000000000000000
F0010000008625500004000002245670100023658300000000000000000201605190002001YOLANDA  TOBON                                    C000000000093100000000000000000000100010010000000000000000000000F0010000008625500420160519000101 00000000000000000000000000000000000000000000000000000000000000000000000000000000000000000000000000000000000000000N 00000000000NCONT   00    00000000000          00000000000000000000000000000000000000000000 000000000000000A000000000000000000000000000000000000000000000 000000000000000000000000000000000000000     00000000                                                                                                                        000000000000000000
F0010000008625500005000002245670100013552100000000000000000201605190002001YOLANDA  TOBON                                    D000000000093100000000000000000000100010010000000000000000000000F0010000008625500520160519000101 00000000000000000000000000000000000000000000000000000000000000000000000000000000000000000000000000000000000000000N 00000000000NCONT   00    00000000000          00000000000000000000000000000000000000000000 000000000000000A000000000000000000000000000000000000000000000 000000000000000000000000000000000000000     00000000                                                                                                                        000000000000000000
F0010000008625600001000089070997800013050500000000000000000201605190002001CENTRAL DE TORNILLOS                              D000000024050000000000000000000000100010010000000000000000000000F0010000008625600120160519000101 00000000000000000000000000000000000000000000000000000000000000000000000000000000000000000000000000000000000000000N 00000000000NCONT   00    00000000000          00000000000000000000000000000000000000000000 000000000000000A000000000000000000000000000000000000000000000 000000000000000000000000000000000000000     00000000                                                                                                                        000000000000000000
F0010000008625600002000089070997800041450500000000000000000201605190002001CENTRAL DE TORNILLOS                              C000000022200000000000000000000000100010010000000000000000000000F0010000008625600220160519000101 00000000000000000000000000000000000000000000000000000000000000000000000000000000000000000000000000000000000000000N 00000000000NCONT   00    00000000000          00000000000000000000000000000000000000000000 000000000000000A000000000000000000000000000000000000000000000 000000000000000000000000000000000000000     00000000                                                                                                                        000000000000000000
F0010000008625600003000089070997800042505000000000000000000201605190002001CENTRAL DE TORNILLOS                              C000000001850000000000000000000000100010010000000000000000000000F0010000008625600320160519000101 00000000000000000000000000000000000000000000000000000000000000000000000000000000000000000000000000000000000000000N 00000000000NCONT   00    00000000000          00000000000000000000000000000000000000000000 000000000000000A000000000000000000000000000000000000000000000 000000000000000000000000000000000000000     00000000                                                                                                                        000000000000000000
F0010000008625600004000089070997800023658300000000000000000201605190002001CENTRAL DE TORNILLOS                              C000000000177600000000000000000000100010010000000000000000000000F0010000008625600420160519000101 00000000000000000000000000000000000000000000000000000000000000000000000000000000000000000000000000000000000000000N 00000000000NCONT   00    00000000000          00000000000000000000000000000000000000000000 000000000000000A000000000000000000000000000000000000000000000 000000000000000000000000000000000000000     00000000                                                                                                                        000000000000000000
F0010000008625600005000089070997800013552100000000000000000201605190002001CENTRAL DE TORNILLOS                              D000000000177600000000000000000000100010010000000000000000000000F0010000008625600520160519000101 00000000000000000000000000000000000000000000000000000000000000000000000000000000000000000000000000000000000000000N 00000000000NCONT   00    00000000000          00000000000000000000000000000000000000000000 000000000000000A000000000000000000000000000000000000000000000 000000000000000000000000000000000000000     00000000                                                                                                                        000000000000000000
F0010000008625700001000080019113900013050500000000000000000201605190002001COMERCIAL NOVAPEL LTDA                            D000000023340000000000000000000000100010010000000000000000000000F0010000008625700120160519000101 00000000000000000000000000000000000000000000000000000000000000000000000000000000000000000000000000000000000000000N 00000000000NCONT   00    00000000000          00000000000000000000000000000000000000000000 000000000000000A000000000000000000000000000000000000000000000 000000000000000000000000000000000000000     00000000                                                                                                                        000000000000000000
F0010000008625700002000080019113900041450500000000000000000201605190002001COMERCIAL NOVAPEL LTDA                            C000000019200000000000000000000000100010010000000000000000000000F0010000008625700220160519000101 00000000000000000000000000000000000000000000000000000000000000000000000000000000000000000000000000000000000000000N 00000000000NCONT   00    00000000000          00000000000000000000000000000000000000000000 000000000000000A000000000000000000000000000000000000000000000 000000000000000000000000000000000000000     00000000                                                                                                                        000000000000000000
F0010000008625700003000080019113900042505000000000000000000201605190002001COMERCIAL NOVAPEL LTDA                            C000000004140000000000000000000000100010010000000000000000000000F0010000008625700320160519000101 00000000000000000000000000000000000000000000000000000000000000000000000000000000000000000000000000000000000000000N 00000000000NCONT   00    00000000000          00000000000000000000000000000000000000000000 000000000000000A000000000000000000000000000000000000000000000 000000000000000000000000000000000000000     00000000                                                                                                                        000000000000000000
F0010000008625700004000080019113900023658300000000000000000201605190002001COMERCIAL NOVAPEL LTDA                            C000000000153600000000000000000000100010010000000000000000000000F0010000008625700420160519000101 00000000000000000000000000000000000000000000000000000000000000000000000000000000000000000000000000000000000000000N 00000000000NCONT   00    00000000000          00000000000000000000000000000000000000000000 000000000000000A000000000000000000000000000000000000000000000 000000000000000000000000000000000000000     00000000                                                                                                                        000000000000000000
F0010000008625700005000080019113900013552100000000000000000201605190002001COMERCIAL NOVAPEL LTDA                            D000000000153600000000000000000000100010010000000000000000000000F0010000008625700520160519000101 00000000000000000000000000000000000000000000000000000000000000000000000000000000000000000000000000000000000000000N 00000000000NCONT   00    00000000000          00000000000000000000000000000000000000000000 000000000000000A000000000000000000000000000000000000000000000 000000000000000000000000000000000000000     00000000                                                                                                                        000000000000000000
F0010000008625800001000080022903500013050500000000000000000201605190002001TECNOGLASS S.A                                    D000000060076900000000000000000000100010010000000000000000000000F0010000008625800120160519000101 00000000000000000000000000000000000000000000000000000000000000000000000000000000000000000000000000000000000000000N 00000000000NCONT   00    00000000000          00000000000000000000000000000000000000000000 000000000000000A000000000000000000000000000000000000000000000 000000000000000000000000000000000000000     00000000                                                                                                                        000000000000000000
F0010000008625800002000080022903500041450500000000000000000201605190002001TECNOGLASS S.A                                    C000000056000000000000000000000000100010010000000000000000000000F0010000008625800220160519000101 00000000000000000000000000000000000000000000000000000000000000000000000000000000000000000000000000000000000000000N 00000000000NCONT   00    00000000000          00000000000000000000000000000000000000000000 000000000000000A000000000000000000000000000000000000000000000 000000000000000000000000000000000000000     00000000                                                                                                                        000000000000000000
F0010000008625800003000080022903500042505000000000000000000201605190002001TECNOGLASS S.A                                    C000000004076900000000000000000000100010010000000000000000000000F0010000008625800320160519000101 00000000000000000000000000000000000000000000000000000000000000000000000000000000000000000000000000000000000000000N 00000000000NCONT   00    00000000000          00000000000000000000000000000000000000000000 000000000000000A000000000000000000000000000000000000000000000 000000000000000000000000000000000000000     00000000                                                                                                                        000000000000000000
F0010000008625800004000080022903500023658300000000000000000201605190002001TECNOGLASS S.A                                    C000000000448000000000000000000000100010010000000000000000000000F0010000008625800420160519000101 00000000000000000000000000000000000000000000000000000000000000000000000000000000000000000000000000000000000000000N 00000000000NCONT   00    00000000000          00000000000000000000000000000000000000000000 000000000000000A000000000000000000000000000000000000000000000 000000000000000000000000000000000000000     00000000                                                                                                                        000000000000000000
F0010000008625800005000080022903500013552100000000000000000201605190002001TECNOGLASS S.A                                    D000000000448000000000000000000000100010010000000000000000000000F0010000008625800520160519000101 00000000000000000000000000000000000000000000000000000000000000000000000000000000000000000000000000000000000000000N 00000000000NCONT   00    00000000000          00000000000000000000000000000000000000000000 000000000000000A000000000000000000000000000000000000000000000 000000000000000000000000000000000000000     00000000                                                                                                                        000000000000000000
F0010000008625900001000080004943800013050500000000000000000201605190002001PAPELERIA EL CID S.A.                             D000000020982500000000000000000000100010010000000000000000000000F0010000008625900120160519000101 00000000000000000000000000000000000000000000000000000000000000000000000000000000000000000000000000000000000000000N 00000000000NCONT   00    00000000000          00000000000000000000000000000000000000000000 000000000000000A000000000000000000000000000000000000000000000 000000000000000000000000000000000000000     00000000                                                                                                                        000000000000000000
F0010000008625900002000080004943800041450500000000000000000201605190002001PAPELERIA EL CID S.A.                             C000000016320000000000000000000000100010010000000000000000000000F0010000008625900220160519000101 00000000000000000000000000000000000000000000000000000000000000000000000000000000000000000000000000000000000000000N 00000000000NCONT   00    00000000000          00000000000000000000000000000000000000000000 000000000000000A000000000000000000000000000000000000000000000 000000000000000000000000000000000000000     00000000                                                                                                                        000000000000000000
F0010000008625900003000080004943800042505000000000000000000201605190002001PAPELERIA EL CID S.A.                             C000000004662500000000000000000000100010010000000000000000000000F0010000008625900320160519000101 00000000000000000000000000000000000000000000000000000000000000000000000000000000000000000000000000000000000000000N 00000000000NCONT   00    00000000000          00000000000000000000000000000000000000000000 000000000000000A000000000000000000000000000000000000000000000 000000000000000000000000000000000000000     00000000                                                                                                                        000000000000000000
F0010000008625900004000080004943800023658300000000000000000201605190002001PAPELERIA EL CID S.A.                             C000000000130600000000000000000000100010010000000000000000000000F0010000008625900420160519000101 00000000000000000000000000000000000000000000000000000000000000000000000000000000000000000000000000000000000000000N 00000000000NCONT   00    00000000000          00000000000000000000000000000000000000000000 000000000000000A000000000000000000000000000000000000000000000 000000000000000000000000000000000000000     00000000                                                                                                                        000000000000000000
F0010000008625900005000080004943800013552100000000000000000201605190002001PAPELERIA EL CID S.A.                             D000000000130600000000000000000000100010010000000000000000000000F0010000008625900520160519000101 00000000000000000000000000000000000000000000000000000000000000000000000000000000000000000000000000000000000000000N 00000000000NCONT   00    00000000000          00000000000000000000000000000000000000000000 000000000000000A000000000000000000000000000000000000000000000 000000000000000000000000000000000000000     00000000                                                                                                                        000000000000000000
F0010000008626000001000080202094000013050500000000000000000201605190002001DISTRIB. OMAR ORREGO S.A.                         D000000031182000000000000000000000100010010000000000000000000000F0010000008626000120160519000101 00000000000000000000000000000000000000000000000000000000000000000000000000000000000000000000000000000000000000000N 00000000000NCONT   00    00000000000          00000000000000000000000000000000000000000000 000000000000000A000000000000000000000000000000000000000000000 000000000000000000000000000000000000000     00000000                                                                                                                        000000000000000000
F0010000008626000002000080202094000041450500000000000000000201605190002001DISTRIB. OMAR ORREGO S.A.                         C000000021880000000000000000000000100010010000000000000000000000F0010000008626000220160519000101 00000000000000000000000000000000000000000000000000000000000000000000000000000000000000000000000000000000000000000N 00000000000NCONT   00    00000000000          00000000000000000000000000000000000000000000 000000000000000A000000000000000000000000000000000000000000000 000000000000000000000000000000000000000     00000000                                                                                                                        000000000000000000
F0010000008626000003000080202094000042505000000000000000000201605190002001DISTRIB. OMAR ORREGO S.A.                         C000000009302000000000000000000000100010010000000000000000000000F0010000008626000320160519000101 00000000000000000000000000000000000000000000000000000000000000000000000000000000000000000000000000000000000000000N 00000000000NCONT   00    00000000000          00000000000000000000000000000000000000000000 000000000000000A000000000000000000000000000000000000000000000 000000000000000000000000000000000000000     00000000                                                                                                                        000000000000000000
F0010000008626000004000080202094000023658300000000000000000201605190002001DISTRIB. OMAR ORREGO S.A.                         C000000000175000000000000000000000100010010000000000000000000000F0010000008626000420160519000101 00000000000000000000000000000000000000000000000000000000000000000000000000000000000000000000000000000000000000000N 00000000000NCONT   00    00000000000          00000000000000000000000000000000000000000000 000000000000000A000000000000000000000000000000000000000000000 000000000000000000000000000000000000000     00000000                                                                                                                        000000000000000000
F0010000008626000005000080202094000013552100000000000000000201605190002001DISTRIB. OMAR ORREGO S.A.                         D000000000175000000000000000000000100010010000000000000000000000F0010000008626000520160519000101 00000000000000000000000000000000000000000000000000000000000000000000000000000000000000000000000000000000000000000N 00000000000NCONT   00    00000000000          00000000000000000000000000000000000000000000 000000000000000A000000000000000000000000000000000000000000000 000000000000000000000000000000000000000     00000000                                                                                                                        000000000000000000
F0010000008626100001000003207718300011050500000000000000000201605190002001MARIA GILMA RAMIREZ GARCIA                        D000000004000000000000000000000000100010010000000000000000000000F0010000008626100120160519000101 00000000000000000000000000000000000000000000000000000000000000000000000000000000000000000000000000000000000000000N 00000000000NCONT   00    00000000000          00000000000000000000000000000000000000000000 000000000000000A000000000000000000000000000000000000000000000 000000000000000000000000000000000000000     00000000                                                                                                                        000000000000000000
F0010000008626100002000003207718300041450500000000000000000201605190002001MARIA GILMA RAMIREZ GARCIA                        C000000003000000000000000000000000100010010000000000000000000000F0010000008626100220160519000101 00000000000000000000000000000000000000000000000000000000000000000000000000000000000000000000000000000000000000000N 00000000000NCONT   00    00000000000          00000000000000000000000000000000000000000000 000000000000000A000000000000000000000000000000000000000000000 000000000000000000000000000000000000000     00000000                                                                                                                        000000000000000000
F0010000008626100003000003207718300042505000000000000000000201605190002001MARIA GILMA RAMIREZ GARCIA                        C000000001000000000000000000000000100010010000000000000000000000F0010000008626100320160519000101 00000000000000000000000000000000000000000000000000000000000000000000000000000000000000000000000000000000000000000N 00000000000NCONT   00    00000000000          00000000000000000000000000000000000000000000 000000000000000A000000000000000000000000000000000000000000000 000000000000000000000000000000000000000     00000000                                                                                                                        000000000000000000
F0010000008626100004000003207718300023658300000000000000000201605190002001MARIA GILMA RAMIREZ GARCIA                        C000000000024000000000000000000000100010010000000000000000000000F0010000008626100420160519000101 00000000000000000000000000000000000000000000000000000000000000000000000000000000000000000000000000000000000000000N 00000000000NCONT   00    00000000000          00000000000000000000000000000000000000000000 000000000000000A000000000000000000000000000000000000000000000 000000000000000000000000000000000000000     00000000                                                                                                                        000000000000000000
F0010000008626100005000003207718300013552100000000000000000201605190002001MARIA GILMA RAMIREZ GARCIA                        D000000000024000000000000000000000100010010000000000000000000000F0010000008626100520160519000101 00000000000000000000000000000000000000000000000000000000000000000000000000000000000000000000000000000000000000000N 00000000000NCONT   00    00000000000          00000000000000000000000000000000000000000000 000000000000000A000000000000000000000000000000000000000000000 000000000000000000000000000000000000000     00000000                                                                                                                        000000000000000000
F0010000008626200001000080201112800013050500000000000000000201605190002001CANGURO INTERNATIONAL S.A.                        D000000287814400000000000000000000100010010000000000000000000000F0010000008626200120160519000101 00000000000000000000000000000000000000000000000000000000000000000000000000000000000000000000000000000000000000000N 00000000000NCONT   00    00000000000          00000000000000000000000000000000000000000000 000000000000000A000000000000000000000000000000000000000000000 000000000000000000000000000000000000000     00000000                                                                                                                        000000000000000000
F0010000008626200002000080201112800041450500000000000000000201605190002001CANGURO INTERNATIONAL S.A.                        C000000287814400000000000000000000100010010000000000000000000000F0010000008626200220160519000101 00000000000000000000000000000000000000000000000000000000000000000000000000000000000000000000000000000000000000000N 00000000000NCONT   00    00000000000          00000000000000000000000000000000000000000000 000000000000000A000000000000000000000000000000000000000000000 000000000000000000000000000000000000000     00000000                                                                                                                        000000000000000000
F0010000008626200003000080201112800042505000000000000000000201605190002001CANGURO INTERNATIONAL S.A.                        C000000000000000000000000000000000100010010000000000000000000000F0010000008626200320160519000101 00000000000000000000000000000000000000000000000000000000000000000000000000000000000000000000000000000000000000000N 00000000000NCONT   00    00000000000          00000000000000000000000000000000000000000000 000000000000000A000000000000000000000000000000000000000000000 000000000000000000000000000000000000000     00000000                                                                                                                        000000000000000000
F0010000008626200004000080201112800023658300000000000000000201605190002001CANGURO INTERNATIONAL S.A.                        C000000002302500000000000000000000100010010000000000000000000000F0010000008626200420160519000101 00000000000000000000000000000000000000000000000000000000000000000000000000000000000000000000000000000000000000000N 00000000000NCONT   00    00000000000          00000000000000000000000000000000000000000000 000000000000000A000000000000000000000000000000000000000000000 000000000000000000000000000000000000000     00000000                                                                                                                        000000000000000000
F0010000008626200005000080201112800013552100000000000000000201605190002001CANGURO INTERNATIONAL S.A.                        D000000002302500000000000000000000100010010000000000000000000000F0010000008626200520160519000101 00000000000000000000000000000000000000000000000000000000000000000000000000000000000000000000000000000000000000000N 00000000000NCONT   00    00000000000          00000000000000000000000000000000000000000000 000000000000000A000000000000000000000000000000000000000000000 000000000000000000000000000000000000000     00000000                                                                                                                        000000000000000000
F0010000008626300001000080201112800013050500000000000000000201605190002001CANGURO INTERNATIONAL S.A.                        D000000026415300000000000000000000100010010000000000000000000000F0010000008626300120160519000101 00000000000000000000000000000000000000000000000000000000000000000000000000000000000000000000000000000000000000000N 00000000000NCONT   00    00000000000          00000000000000000000000000000000000000000000 000000000000000A000000000000000000000000000000000000000000000 000000000000000000000000000000000000000     00000000                                                                                                                        000000000000000000
F0010000008626300002000080201112800041450500000000000000000201605190002001CANGURO INTERNATIONAL S.A.                        C000000026415300000000000000000000100010010000000000000000000000F0010000008626300220160519000101 00000000000000000000000000000000000000000000000000000000000000000000000000000000000000000000000000000000000000000N 00000000000NCONT   00    00000000000          00000000000000000000000000000000000000000000 000000000000000A000000000000000000000000000000000000000000000 000000000000000000000000000000000000000     00000000                                                                                                                        000000000000000000
F0010000008626300003000080201112800042505000000000000000000201605190002001CANGURO INTERNATIONAL S.A.                        C000000000000000000000000000000000100010010000000000000000000000F0010000008626300320160519000101 00000000000000000000000000000000000000000000000000000000000000000000000000000000000000000000000000000000000000000N 00000000000NCONT   00    00000000000          00000000000000000000000000000000000000000000 000000000000000A000000000000000000000000000000000000000000000 000000000000000000000000000000000000000     00000000                                                                                                                        000000000000000000
F0010000008626300004000080201112800023658300000000000000000201605190002001CANGURO INTERNATIONAL S.A.                        C000000000211300000000000000000000100010010000000000000000000000F0010000008626300420160519000101 00000000000000000000000000000000000000000000000000000000000000000000000000000000000000000000000000000000000000000N 00000000000NCONT   00    00000000000          00000000000000000000000000000000000000000000 000000000000000A000000000000000000000000000000000000000000000 000000000000000000000000000000000000000     00000000                                                                                                                        000000000000000000
F0010000008626300005000080201112800013552100000000000000000201605190002001CANGURO INTERNATIONAL S.A.                        D000000000211300000000000000000000100010010000000000000000000000F0010000008626300520160519000101 00000000000000000000000000000000000000000000000000000000000000000000000000000000000000000000000000000000000000000N 00000000000NCONT   00    00000000000          00000000000000000000000000000000000000000000 000000000000000A000000000000000000000000000000000000000000000 000000000000000000000000000000000000000     00000000                                                                                                                        000000000000000000
F0010000008626400001000080202132300013050500000000000000000201605190002001SUM Y SERV DE LA COSTA LTDA                       D000000026500000000000000000000000100010010000000000000000000000F0010000008626400120160519000101 00000000000000000000000000000000000000000000000000000000000000000000000000000000000000000000000000000000000000000N 00000000000NCONT   00    00000000000          00000000000000000000000000000000000000000000 000000000000000A000000000000000000000000000000000000000000000 000000000000000000000000000000000000000     00000000                                                                                                                        000000000000000000
F0010000008626400002000080202132300041450500000000000000000201605190002001SUM Y SERV DE LA COSTA LTDA                       C000000025020000000000000000000000100010010000000000000000000000F0010000008626400220160519000101 00000000000000000000000000000000000000000000000000000000000000000000000000000000000000000000000000000000000000000N 00000000000NCONT   00    00000000000          00000000000000000000000000000000000000000000 000000000000000A000000000000000000000000000000000000000000000 000000000000000000000000000000000000000     00000000                                                                                                                        000000000000000000
F0010000008626400003000080202132300042505000000000000000000201605190002001SUM Y SERV DE LA COSTA LTDA                       C000000001480000000000000000000000100010010000000000000000000000F0010000008626400320160519000101 00000000000000000000000000000000000000000000000000000000000000000000000000000000000000000000000000000000000000000N 00000000000NCONT   00    00000000000          00000000000000000000000000000000000000000000 000000000000000A000000000000000000000000000000000000000000000 000000000000000000000000000000000000000     00000000                                                                                                                        000000000000000000
F0010000008626400004000080202132300023658300000000000000000201605190002001SUM Y SERV DE LA COSTA LTDA                       C000000000200200000000000000000000100010010000000000000000000000F0010000008626400420160519000101 00000000000000000000000000000000000000000000000000000000000000000000000000000000000000000000000000000000000000000N 00000000000NCONT   00    00000000000          00000000000000000000000000000000000000000000 000000000000000A000000000000000000000000000000000000000000000 000000000000000000000000000000000000000     00000000                                                                                                                        000000000000000000
F0010000008626400005000080202132300013552100000000000000000201605190002001SUM Y SERV DE LA COSTA LTDA                       D000000000200200000000000000000000100010010000000000000000000000F0010000008626400520160519000101 00000000000000000000000000000000000000000000000000000000000000000000000000000000000000000000000000000000000000000N 00000000000NCONT   00    00000000000          00000000000000000000000000000000000000000000 000000000000000A000000000000000000000000000000000000000000000 000000000000000000000000000000000000000     00000000                                                                                                                        000000000000000000
F0010000008626500001000090019362000013050500000000000000000201605190002001GENERAL SUPPLIES CIA LTDA                         D000000013049000000000000000000000100010010000000000000000000000F0010000008626500120160519000101 00000000000000000000000000000000000000000000000000000000000000000000000000000000000000000000000000000000000000000N 00000000000NCONT   00    00000000000          00000000000000000000000000000000000000000000 000000000000000A000000000000000000000000000000000000000000000 000000000000000000000000000000000000000     00000000                                                                                                                        000000000000000000
F0010000008626500002000090019362000041450500000000000000000201605190002001GENERAL SUPPLIES CIA LTDA                         C000000010745000000000000000000000100010010000000000000000000000F0010000008626500220160519000101 00000000000000000000000000000000000000000000000000000000000000000000000000000000000000000000000000000000000000000N 00000000000NCONT   00    00000000000          00000000000000000000000000000000000000000000 000000000000000A000000000000000000000000000000000000000000000 000000000000000000000000000000000000000     00000000                                                                                                                        000000000000000000
F0010000008626500003000090019362000042505000000000000000000201605190002001GENERAL SUPPLIES CIA LTDA                         C000000002304000000000000000000000100010010000000000000000000000F0010000008626500320160519000101 00000000000000000000000000000000000000000000000000000000000000000000000000000000000000000000000000000000000000000N 00000000000NCONT   00    00000000000          00000000000000000000000000000000000000000000 000000000000000A000000000000000000000000000000000000000000000 000000000000000000000000000000000000000     00000000                                                                                                                        000000000000000000
F0010000008626500004000090019362000023658300000000000000000201605190002001GENERAL SUPPLIES CIA LTDA                         C000000000086000000000000000000000100010010000000000000000000000F0010000008626500420160519000101 00000000000000000000000000000000000000000000000000000000000000000000000000000000000000000000000000000000000000000N 00000000000NCONT   00    00000000000          00000000000000000000000000000000000000000000 000000000000000A000000000000000000000000000000000000000000000 000000000000000000000000000000000000000     00000000                                                                                                                        000000000000000000
F0010000008626500005000090019362000013552100000000000000000201605190002001GENERAL SUPPLIES CIA LTDA                         D000000000086000000000000000000000100010010000000000000000000000F0010000008626500520160519000101 00000000000000000000000000000000000000000000000000000000000000000000000000000000000000000000000000000000000000000N 00000000000NCONT   00    00000000000          00000000000000000000000000000000000000000000 000000000000000A000000000000000000000000000000000000000000000 000000000000000000000000000000000000000     00000000                                                                                                                        000000000000000000
F0010000008626600001000090001736600013050500000000000000000201605190002001AF SUMINISTROS E.U.                               D000000009000000000000000000000000100010010000000000000000000000F0010000008626600120160519000101 00000000000000000000000000000000000000000000000000000000000000000000000000000000000000000000000000000000000000000N 00000000000NCONT   00    00000000000          00000000000000000000000000000000000000000000 000000000000000A000000000000000000000000000000000000000000000 000000000000000000000000000000000000000     00000000                                                                                                                        000000000000000000
F0010000008626600002000090001736600041450500000000000000000201605190002001AF SUMINISTROS E.U.                               C000000008000000000000000000000000100010010000000000000000000000F0010000008626600220160519000101 00000000000000000000000000000000000000000000000000000000000000000000000000000000000000000000000000000000000000000N 00000000000NCONT   00    00000000000          00000000000000000000000000000000000000000000 000000000000000A000000000000000000000000000000000000000000000 000000000000000000000000000000000000000     00000000                                                                                                                        000000000000000000
F0010000008626600003000090001736600042505000000000000000000201605190002001AF SUMINISTROS E.U.                               C000000001000000000000000000000000100010010000000000000000000000F0010000008626600320160519000101 00000000000000000000000000000000000000000000000000000000000000000000000000000000000000000000000000000000000000000N 00000000000NCONT   00    00000000000          00000000000000000000000000000000000000000000 000000000000000A000000000000000000000000000000000000000000000 000000000000000000000000000000000000000     00000000                                                                                                                        000000000000000000
F0010000008626600004000090001736600023658300000000000000000201605190002001AF SUMINISTROS E.U.                               C000000000064000000000000000000000100010010000000000000000000000F0010000008626600420160519000101 00000000000000000000000000000000000000000000000000000000000000000000000000000000000000000000000000000000000000000N 00000000000NCONT   00    00000000000          00000000000000000000000000000000000000000000 000000000000000A000000000000000000000000000000000000000000000 000000000000000000000000000000000000000     00000000                                                                                                                        000000000000000000
F0010000008626600005000090001736600013552100000000000000000201605190002001AF SUMINISTROS E.U.                               D000000000064000000000000000000000100010010000000000000000000000F0010000008626600520160519000101 00000000000000000000000000000000000000000000000000000000000000000000000000000000000000000000000000000000000000000N 00000000000NCONT   00    00000000000          00000000000000000000000000000000000000000000 000000000000000A000000000000000000000000000000000000000000000 000000000000000000000000000000000000000     00000000                                                                                                                        000000000000000000
F0010000008626700001000089011078600013050500000000000000000201605190002001DIST. NUEVO MUNDO S.A.S.                          D000000020108800000000000000000000100010010000000000000000000000F0010000008626700120160519000101 00000000000000000000000000000000000000000000000000000000000000000000000000000000000000000000000000000000000000000N 00000000000NCONT   00    00000000000          00000000000000000000000000000000000000000000 000000000000000A000000000000000000000000000000000000000000000 000000000000000000000000000000000000000     00000000                                                                                                                        000000000000000000
F0010000008626700002000089011078600041450500000000000000000201605190002001DIST. NUEVO MUNDO S.A.S.                          C000000019146700000000000000000000100010010000000000000000000000F0010000008626700220160519000101 00000000000000000000000000000000000000000000000000000000000000000000000000000000000000000000000000000000000000000N 00000000000NCONT   00    00000000000          00000000000000000000000000000000000000000000 000000000000000A000000000000000000000000000000000000000000000 000000000000000000000000000000000000000     00000000                                                                                                                        000000000000000000
F0010000008626700003000089011078600042505000000000000000000201605190002001DIST. NUEVO MUNDO S.A.S.                          C000000000962100000000000000000000100010010000000000000000000000F0010000008626700320160519000101 00000000000000000000000000000000000000000000000000000000000000000000000000000000000000000000000000000000000000000N 00000000000NCONT   00    00000000000          00000000000000000000000000000000000000000000 000000000000000A000000000000000000000000000000000000000000000 000000000000000000000000000000000000000     00000000                                                                                                                        000000000000000000
F0010000008626700004000089011078600023658300000000000000000201605190002001DIST. NUEVO MUNDO S.A.S.                          C000000000153200000000000000000000100010010000000000000000000000F0010000008626700420160519000101 00000000000000000000000000000000000000000000000000000000000000000000000000000000000000000000000000000000000000000N 00000000000NCONT   00    00000000000          00000000000000000000000000000000000000000000 000000000000000A000000000000000000000000000000000000000000000 000000000000000000000000000000000000000     00000000                                                                                                                        000000000000000000
F0010000008626700005000089011078600013552100000000000000000201605190002001DIST. NUEVO MUNDO S.A.S.                          D000000000153200000000000000000000100010010000000000000000000000F0010000008626700520160519000101 00000000000000000000000000000000000000000000000000000000000000000000000000000000000000000000000000000000000000000N 00000000000NCONT   00    00000000000          00000000000000000000000000000000000000000000 000000000000000A000000000000000000000000000000000000000000000 000000000000000000000000000000000000000     00000000                                                                                                                        000000000000000000
F0010000008626800001000080001063400013050500000000000000000201605190002001PRODUCTOS JULIAO SAS                              D000000014468200000000000000000000100010010000000000000000000000F0010000008626800120160519000101 00000000000000000000000000000000000000000000000000000000000000000000000000000000000000000000000000000000000000000N 00000000000NCONT   00    00000000000          00000000000000000000000000000000000000000000 000000000000000A000000000000000000000000000000000000000000000 000000000000000000000000000000000000000     00000000                                                                                                                        000000000000000000
F0010000008626800002000080001063400041450500000000000000000201605190002001PRODUCTOS JULIAO SAS                              C000000013860000000000000000000000100010010000000000000000000000F0010000008626800220160519000101 00000000000000000000000000000000000000000000000000000000000000000000000000000000000000000000000000000000000000000N 00000000000NCONT   00    00000000000          00000000000000000000000000000000000000000000 000000000000000A000000000000000000000000000000000000000000000 000000000000000000000000000000000000000     00000000                                                                                                                        000000000000000000
F0010000008626800003000080001063400042505000000000000000000201605190002001PRODUCTOS JULIAO SAS                              C000000000608200000000000000000000100010010000000000000000000000F0010000008626800320160519000101 00000000000000000000000000000000000000000000000000000000000000000000000000000000000000000000000000000000000000000N 00000000000NCONT   00    00000000000          00000000000000000000000000000000000000000000 000000000000000A000000000000000000000000000000000000000000000 000000000000000000000000000000000000000     00000000                                                                                                                        000000000000000000
F0010000008626800004000080001063400023658300000000000000000201605190002001PRODUCTOS JULIAO SAS                              C000000000110900000000000000000000100010010000000000000000000000F0010000008626800420160519000101 00000000000000000000000000000000000000000000000000000000000000000000000000000000000000000000000000000000000000000N 00000000000NCONT   00    00000000000          00000000000000000000000000000000000000000000 000000000000000A000000000000000000000000000000000000000000000 000000000000000000000000000000000000000     00000000                                                                                                                        000000000000000000
F0010000008626800005000080001063400013552100000000000000000201605190002001PRODUCTOS JULIAO SAS                              D000000000110900000000000000000000100010010000000000000000000000F0010000008626800520160519000101 00000000000000000000000000000000000000000000000000000000000000000000000000000000000000000000000000000000000000000N 00000000000NCONT   00    00000000000          00000000000000000000000000000000000000000000 000000000000000A000000000000000000000000000000000000000000000 000000000000000000000000000000000000000     00000000                                                                                                                        000000000000000000
F0010000008626900001000089030195100013050500000000000000000201605190002001LIBRERIA NACIONAL S.A.                            D000000023150000000000000000000000100010010000000000000000000000F0010000008626900120160519000101 00000000000000000000000000000000000000000000000000000000000000000000000000000000000000000000000000000000000000000N 00000000000NCONT   00    00000000000          00000000000000000000000000000000000000000000 000000000000000A000000000000000000000000000000000000000000000 000000000000000000000000000000000000000     00000000                                                                                                                        000000000000000000
F0010000008626900002000089030195100041450500000000000000000201605190002001LIBRERIA NACIONAL S.A.                            C000000019700000000000000000000000100010010000000000000000000000F0010000008626900220160519000101 00000000000000000000000000000000000000000000000000000000000000000000000000000000000000000000000000000000000000000N 00000000000NCONT   00    00000000000          00000000000000000000000000000000000000000000 000000000000000A000000000000000000000000000000000000000000000 000000000000000000000000000000000000000     00000000                                                                                                                        000000000000000000
F0010000008626900003000089030195100042505000000000000000000201605190002001LIBRERIA NACIONAL S.A.                            C000000003450000000000000000000000100010010000000000000000000000F0010000008626900320160519000101 00000000000000000000000000000000000000000000000000000000000000000000000000000000000000000000000000000000000000000N 00000000000NCONT   00    00000000000          00000000000000000000000000000000000000000000 000000000000000A000000000000000000000000000000000000000000000 000000000000000000000000000000000000000     00000000                                                                                                                        000000000000000000
F0010000008626900004000089030195100023658300000000000000000201605190002001LIBRERIA NACIONAL S.A.                            C000000000157600000000000000000000100010010000000000000000000000F0010000008626900420160519000101 00000000000000000000000000000000000000000000000000000000000000000000000000000000000000000000000000000000000000000N 00000000000NCONT   00    00000000000          00000000000000000000000000000000000000000000 000000000000000A000000000000000000000000000000000000000000000 000000000000000000000000000000000000000     00000000                                                                                                                        000000000000000000
F0010000008626900005000089030195100013552100000000000000000201605190002001LIBRERIA NACIONAL S.A.                            D000000000157600000000000000000000100010010000000000000000000000F0010000008626900520160519000101 00000000000000000000000000000000000000000000000000000000000000000000000000000000000000000000000000000000000000000N 00000000000NCONT   00    00000000000          00000000000000000000000000000000000000000000 000000000000000A000000000000000000000000000000000000000000000 000000000000000000000000000000000000000     00000000                                                                                                                        000000000000000000
F0010000008627000001000081102758700013050500000000000000000201605190002001C.I. ABRACOL S.A EMA                              D000000114683300000000000000000000100010010000000000000000000000F0010000008627000120160519000101 00000000000000000000000000000000000000000000000000000000000000000000000000000000000000000000000000000000000000000N 00000000000NCONT   00    00000000000          00000000000000000000000000000000000000000000 000000000000000A000000000000000000000000000000000000000000000 000000000000000000000000000000000000000     00000000                                                                                                                        000000000000000000
F0010000008627000002000081102758700041450500000000000000000201605190002001C.I. ABRACOL S.A EMA                              C000000076940000000000000000000000100010010000000000000000000000F0010000008627000220160519000101 00000000000000000000000000000000000000000000000000000000000000000000000000000000000000000000000000000000000000000N 00000000000NCONT   00    00000000000          00000000000000000000000000000000000000000000 000000000000000A000000000000000000000000000000000000000000000 000000000000000000000000000000000000000     00000000                                                                                                                        000000000000000000
