F0010000006451700001000003207718300011050500000000000000000201410310002001MARIA GILMA RAMIREZ GARCIA                        D000000005600000000000000000000000100010010000000000000000000000F0010000006451700120141031000101 00000000000000000000000000000000000000000000000000000000000000000000000000000000000000000000000000000000000000000N 00000000000NCONT   00    00000000000          00000000000000000000000000000000000000000000 000000000000000A000000000000000000000000000000000000000000000 000000000000000000000000000000000000000     00000000                                                                                                                        000000000000000000
F0010000006451700002000003207718300041450500000000000000000201410310002001MARIA GILMA RAMIREZ GARCIA                        C000000004800000000000000000000000100010010000000000000000000000F0010000006451700220141031000101 00000000000000000000000000000000000000000000000000000000000000000000000000000000000000000000000000000000000000000N 00000000000NCONT   00    00000000000          00000000000000000000000000000000000000000000 000000000000000A000000000000000000000000000000000000000000000 000000000000000000000000000000000000000     00000000                                                                                                                        000000000000000000
F0010000006451700003000003207718300042505000000000000000000201410310002001MARIA GILMA RAMIREZ GARCIA                        C000000000800000000000000000000000100010010000000000000000000000F0010000006451700320141031000101 00000000000000000000000000000000000000000000000000000000000000000000000000000000000000000000000000000000000000000N 00000000000NCONT   00    00000000000          00000000000000000000000000000000000000000000 000000000000000A000000000000000000000000000000000000000000000 000000000000000000000000000000000000000     00000000                                                                                                                        000000000000000000
F0010000006451700004000003207718300023658300000000000000000201410310002001MARIA GILMA RAMIREZ GARCIA                        C000000000038400000000000000000000100010010000000000000000000000F0010000006451700420141031000101 00000000000000000000000000000000000000000000000000000000000000000000000000000000000000000000000000000000000000000N 00000000000NCONT   00    00000000000          00000000000000000000000000000000000000000000 000000000000000A000000000000000000000000000000000000000000000 000000000000000000000000000000000000000     00000000                                                                                                                        000000000000000000
F0010000006451700005000003207718300013552100000000000000000201410310002001MARIA GILMA RAMIREZ GARCIA                        D000000000038400000000000000000000100010010000000000000000000000F0010000006451700520141031000101 00000000000000000000000000000000000000000000000000000000000000000000000000000000000000000000000000000000000000000N 00000000000NCONT   00    00000000000          00000000000000000000000000000000000000000000 000000000000000A000000000000000000000000000000000000000000000 000000000000000000000000000000000000000     00000000                                                                                                                        000000000000000000
F0010000006451800001000003207718300011050500000000000000000201410310002001MARIA GILMA RAMIREZ GARCIA                        D000000009000000000000000000000000100010010000000000000000000000F0010000006451800120141031000101 00000000000000000000000000000000000000000000000000000000000000000000000000000000000000000000000000000000000000000N 00000000000NCONT   00    00000000000          00000000000000000000000000000000000000000000 000000000000000A000000000000000000000000000000000000000000000 000000000000000000000000000000000000000     00000000                                                                                                                        000000000000000000
F0010000006451800002000003207718300041450500000000000000000201410310002001MARIA GILMA RAMIREZ GARCIA                        C000000008000000000000000000000000100010010000000000000000000000F0010000006451800220141031000101 00000000000000000000000000000000000000000000000000000000000000000000000000000000000000000000000000000000000000000N 00000000000NCONT   00    00000000000          00000000000000000000000000000000000000000000 000000000000000A000000000000000000000000000000000000000000000 000000000000000000000000000000000000000     00000000                                                                                                                        000000000000000000
F0010000006451800003000003207718300042505000000000000000000201410310002001MARIA GILMA RAMIREZ GARCIA                        C000000001000000000000000000000000100010010000000000000000000000F0010000006451800320141031000101 00000000000000000000000000000000000000000000000000000000000000000000000000000000000000000000000000000000000000000N 00000000000NCONT   00    00000000000          00000000000000000000000000000000000000000000 000000000000000A000000000000000000000000000000000000000000000 000000000000000000000000000000000000000     00000000                                                                                                                        000000000000000000
F0010000006451800004000003207718300023658300000000000000000201410310002001MARIA GILMA RAMIREZ GARCIA                        C000000000064000000000000000000000100010010000000000000000000000F0010000006451800420141031000101 00000000000000000000000000000000000000000000000000000000000000000000000000000000000000000000000000000000000000000N 00000000000NCONT   00    00000000000          00000000000000000000000000000000000000000000 000000000000000A000000000000000000000000000000000000000000000 000000000000000000000000000000000000000     00000000                                                                                                                        000000000000000000
F0010000006451800005000003207718300013552100000000000000000201410310002001MARIA GILMA RAMIREZ GARCIA                        D000000000064000000000000000000000100010010000000000000000000000F0010000006451800520141031000101 00000000000000000000000000000000000000000000000000000000000000000000000000000000000000000000000000000000000000000N 00000000000NCONT   00    00000000000          00000000000000000000000000000000000000000000 000000000000000A000000000000000000000000000000000000000000000 000000000000000000000000000000000000000     00000000                                                                                                                        000000000000000000
F0010000006451900001000090073498600011050500000000000000000201410310002001VALTAC DEL CARIBE LTDA                            D000000003700000000000000000000000100010010000000000000000000000F0010000006451900120141031000101 00000000000000000000000000000000000000000000000000000000000000000000000000000000000000000000000000000000000000000N 00000000000NCONT   00    00000000000          00000000000000000000000000000000000000000000 000000000000000A000000000000000000000000000000000000000000000 000000000000000000000000000000000000000     00000000                                                                                                                        000000000000000000
F0010000006451900002000090073498600041450500000000000000000201410310002001VALTAC DEL CARIBE LTDA                            C000000003200000000000000000000000100010010000000000000000000000F0010000006451900220141031000101 00000000000000000000000000000000000000000000000000000000000000000000000000000000000000000000000000000000000000000N 00000000000NCONT   00    00000000000          00000000000000000000000000000000000000000000 000000000000000A000000000000000000000000000000000000000000000 000000000000000000000000000000000000000     00000000                                                                                                                        000000000000000000
F0010000006451900003000090073498600042505000000000000000000201410310002001VALTAC DEL CARIBE LTDA                            C000000000500000000000000000000000100010010000000000000000000000F0010000006451900320141031000101 00000000000000000000000000000000000000000000000000000000000000000000000000000000000000000000000000000000000000000N 00000000000NCONT   00    00000000000          00000000000000000000000000000000000000000000 000000000000000A000000000000000000000000000000000000000000000 000000000000000000000000000000000000000     00000000                                                                                                                        000000000000000000
F0010000006451900004000090073498600023658300000000000000000201410310002001VALTAC DEL CARIBE LTDA                            C000000000025600000000000000000000100010010000000000000000000000F0010000006451900420141031000101 00000000000000000000000000000000000000000000000000000000000000000000000000000000000000000000000000000000000000000N 00000000000NCONT   00    00000000000          00000000000000000000000000000000000000000000 000000000000000A000000000000000000000000000000000000000000000 000000000000000000000000000000000000000     00000000                                                                                                                        000000000000000000
F0010000006451900005000090073498600013552100000000000000000201410310002001VALTAC DEL CARIBE LTDA                            D000000000025600000000000000000000100010010000000000000000000000F0010000006451900520141031000101 00000000000000000000000000000000000000000000000000000000000000000000000000000000000000000000000000000000000000000N 00000000000NCONT   00    00000000000          00000000000000000000000000000000000000000000 000000000000000A000000000000000000000000000000000000000000000 000000000000000000000000000000000000000     00000000                                                                                                                        000000000000000000
F0010000006452000001000080600858200011050500000000000000000201410310002001TRIPLEX Y ACCESORIOS EU.                          D000000050000000000000000000000000100010010000000000000000000000F0010000006452000120141031000101 00000000000000000000000000000000000000000000000000000000000000000000000000000000000000000000000000000000000000000N 00000000000NCONT   00    00000000000          00000000000000000000000000000000000000000000 000000000000000A000000000000000000000000000000000000000000000 000000000000000000000000000000000000000     00000000                                                                                                                        000000000000000000
F0010000006452000002000080600858200041450500000000000000000201410310002001TRIPLEX Y ACCESORIOS EU.                          C000000045000000000000000000000000100010010000000000000000000000F0010000006452000220141031000101 00000000000000000000000000000000000000000000000000000000000000000000000000000000000000000000000000000000000000000N 00000000000NCONT   00    00000000000          00000000000000000000000000000000000000000000 000000000000000A000000000000000000000000000000000000000000000 000000000000000000000000000000000000000     00000000                                                                                                                        000000000000000000
F0010000006452000003000080600858200042505000000000000000000201410310002001TRIPLEX Y ACCESORIOS EU.                          C000000005000000000000000000000000100010010000000000000000000000F0010000006452000320141031000101 00000000000000000000000000000000000000000000000000000000000000000000000000000000000000000000000000000000000000000N 00000000000NCONT   00    00000000000          00000000000000000000000000000000000000000000 000000000000000A000000000000000000000000000000000000000000000 000000000000000000000000000000000000000     00000000                                                                                                                        000000000000000000
F0010000006452000004000080600858200023658300000000000000000201410310002001TRIPLEX Y ACCESORIOS EU.                          C000000000360000000000000000000000100010010000000000000000000000F0010000006452000420141031000101 00000000000000000000000000000000000000000000000000000000000000000000000000000000000000000000000000000000000000000N 00000000000NCONT   00    00000000000          00000000000000000000000000000000000000000000 000000000000000A000000000000000000000000000000000000000000000 000000000000000000000000000000000000000     00000000                                                                                                                        000000000000000000
F0010000006452000005000080600858200013552100000000000000000201410310002001TRIPLEX Y ACCESORIOS EU.                          D000000000360000000000000000000000100010010000000000000000000000F0010000006452000520141031000101 00000000000000000000000000000000000000000000000000000000000000000000000000000000000000000000000000000000000000000N 00000000000NCONT   00    00000000000          00000000000000000000000000000000000000000000 000000000000000A000000000000000000000000000000000000000000000 000000000000000000000000000000000000000     00000000                                                                                                                        000000000000000000
F0010000006452100001000089011033000011050500000000000000000201410310002001INDUSTRIAS CRUZ & CAÑON LTDA                     D000000003000000000000000000000000100010010000000000000000000000F0010000006452100120141031000101 00000000000000000000000000000000000000000000000000000000000000000000000000000000000000000000000000000000000000000N 00000000000NCONT   00    00000000000          00000000000000000000000000000000000000000000 000000000000000A000000000000000000000000000000000000000000000 000000000000000000000000000000000000000     00000000                                                                                                                        000000000000000000
F0010000006452100002000089011033000041450500000000000000000201410310002001INDUSTRIAS CRUZ & CAÑON LTDA                     C000000002900000000000000000000000100010010000000000000000000000F0010000006452100220141031000101 00000000000000000000000000000000000000000000000000000000000000000000000000000000000000000000000000000000000000000N 00000000000NCONT   00    00000000000          00000000000000000000000000000000000000000000 000000000000000A000000000000000000000000000000000000000000000 000000000000000000000000000000000000000     00000000                                                                                                                        000000000000000000
F0010000006452100003000089011033000042505000000000000000000201410310002001INDUSTRIAS CRUZ & CAÑON LTDA                     C000000000100000000000000000000000100010010000000000000000000000F0010000006452100320141031000101 00000000000000000000000000000000000000000000000000000000000000000000000000000000000000000000000000000000000000000N 00000000000NCONT   00    00000000000          00000000000000000000000000000000000000000000 000000000000000A000000000000000000000000000000000000000000000 000000000000000000000000000000000000000     00000000                                                                                                                        000000000000000000
F0010000006452100004000089011033000023658300000000000000000201410310002001INDUSTRIAS CRUZ & CAÑON LTDA                     C000000000023200000000000000000000100010010000000000000000000000F0010000006452100420141031000101 00000000000000000000000000000000000000000000000000000000000000000000000000000000000000000000000000000000000000000N 00000000000NCONT   00    00000000000          00000000000000000000000000000000000000000000 000000000000000A000000000000000000000000000000000000000000000 000000000000000000000000000000000000000     00000000                                                                                                                        000000000000000000
F0010000006452100005000089011033000013552100000000000000000201410310002001INDUSTRIAS CRUZ & CAÑON LTDA                     D000000000023200000000000000000000100010010000000000000000000000F0010000006452100520141031000101 00000000000000000000000000000000000000000000000000000000000000000000000000000000000000000000000000000000000000000N 00000000000NCONT   00    00000000000          00000000000000000000000000000000000000000000 000000000000000A000000000000000000000000000000000000000000000 000000000000000000000000000000000000000     00000000                                                                                                                        000000000000000000
F0010000006452200001000009249843700011050500000000000000000201410310002001CESAR MERCADO                                     D000000009800000000000000000000000100010010000000000000000000000F0010000006452200120141031000101 00000000000000000000000000000000000000000000000000000000000000000000000000000000000000000000000000000000000000000N 00000000000NCONT   00    00000000000          00000000000000000000000000000000000000000000 000000000000000A000000000000000000000000000000000000000000000 000000000000000000000000000000000000000     00000000                                                                                                                        000000000000000000
F0010000006452200002000009249843700041450500000000000000000201410310002001CESAR MERCADO                                     C000000009000000000000000000000000100010010000000000000000000000F0010000006452200220141031000101 00000000000000000000000000000000000000000000000000000000000000000000000000000000000000000000000000000000000000000N 00000000000NCONT   00    00000000000          00000000000000000000000000000000000000000000 000000000000000A000000000000000000000000000000000000000000000 000000000000000000000000000000000000000     00000000                                                                                                                        000000000000000000
F0010000006452200003000009249843700042505000000000000000000201410310002001CESAR MERCADO                                     C000000000800000000000000000000000100010010000000000000000000000F0010000006452200320141031000101 00000000000000000000000000000000000000000000000000000000000000000000000000000000000000000000000000000000000000000N 00000000000NCONT   00    00000000000          00000000000000000000000000000000000000000000 000000000000000A000000000000000000000000000000000000000000000 000000000000000000000000000000000000000     00000000                                                                                                                        000000000000000000
F0010000006452200004000009249843700023658300000000000000000201410310002001CESAR MERCADO                                     C000000000072000000000000000000000100010010000000000000000000000F0010000006452200420141031000101 00000000000000000000000000000000000000000000000000000000000000000000000000000000000000000000000000000000000000000N 00000000000NCONT   00    00000000000          00000000000000000000000000000000000000000000 000000000000000A000000000000000000000000000000000000000000000 000000000000000000000000000000000000000     00000000                                                                                                                        000000000000000000
F0010000006452200005000009249843700013552100000000000000000201410310002001CESAR MERCADO                                     D000000000072000000000000000000000100010010000000000000000000000F0010000006452200520141031000101 00000000000000000000000000000000000000000000000000000000000000000000000000000000000000000000000000000000000000000N 00000000000NCONT   00    00000000000          00000000000000000000000000000000000000000000 000000000000000A000000000000000000000000000000000000000000000 000000000000000000000000000000000000000     00000000                                                                                                                        000000000000000000
F0010000006452300001000003207718300011050500000000000000000201410310002001MARIA GILMA RAMIREZ GARCIA                        D000000006800000000000000000000000100010010000000000000000000000F0010000006452300120141031000101 00000000000000000000000000000000000000000000000000000000000000000000000000000000000000000000000000000000000000000N 00000000000NCONT   00    00000000000          00000000000000000000000000000000000000000000 000000000000000A000000000000000000000000000000000000000000000 000000000000000000000000000000000000000     00000000                                                                                                                        000000000000000000
F0010000006452300002000003207718300041450500000000000000000201410310002001MARIA GILMA RAMIREZ GARCIA                        C000000006000000000000000000000000100010010000000000000000000000F0010000006452300220141031000101 00000000000000000000000000000000000000000000000000000000000000000000000000000000000000000000000000000000000000000N 00000000000NCONT   00    00000000000          00000000000000000000000000000000000000000000 000000000000000A000000000000000000000000000000000000000000000 000000000000000000000000000000000000000     00000000                                                                                                                        000000000000000000
F0010000006452300003000003207718300042505000000000000000000201410310002001MARIA GILMA RAMIREZ GARCIA                        C000000000800000000000000000000000100010010000000000000000000000F0010000006452300320141031000101 00000000000000000000000000000000000000000000000000000000000000000000000000000000000000000000000000000000000000000N 00000000000NCONT   00    00000000000          00000000000000000000000000000000000000000000 000000000000000A000000000000000000000000000000000000000000000 000000000000000000000000000000000000000     00000000                                                                                                                        000000000000000000
F0010000006452300004000003207718300023658300000000000000000201410310002001MARIA GILMA RAMIREZ GARCIA                        C000000000048000000000000000000000100010010000000000000000000000F0010000006452300420141031000101 00000000000000000000000000000000000000000000000000000000000000000000000000000000000000000000000000000000000000000N 00000000000NCONT   00    00000000000          00000000000000000000000000000000000000000000 000000000000000A000000000000000000000000000000000000000000000 000000000000000000000000000000000000000     00000000                                                                                                                        000000000000000000
F0010000006452300005000003207718300013552100000000000000000201410310002001MARIA GILMA RAMIREZ GARCIA                        D000000000048000000000000000000000100010010000000000000000000000F0010000006452300520141031000101 00000000000000000000000000000000000000000000000000000000000000000000000000000000000000000000000000000000000000000N 00000000000NCONT   00    00000000000          00000000000000000000000000000000000000000000 000000000000000A000000000000000000000000000000000000000000000 000000000000000000000000000000000000000     00000000                                                                                                                        000000000000000000
F0010000006452400001000086000061500011050500000000000000000201410310002001DISTRIBUIDORA CORDOBA                             D000000004700000000000000000000000100010010000000000000000000000F0010000006452400120141031000101 00000000000000000000000000000000000000000000000000000000000000000000000000000000000000000000000000000000000000000N 00000000000NCONT   00    00000000000          00000000000000000000000000000000000000000000 000000000000000A000000000000000000000000000000000000000000000 000000000000000000000000000000000000000     00000000                                                                                                                        000000000000000000
F0010000006452400002000086000061500041450500000000000000000201410310002001DISTRIBUIDORA CORDOBA                             C000000004250000000000000000000000100010010000000000000000000000F0010000006452400220141031000101 00000000000000000000000000000000000000000000000000000000000000000000000000000000000000000000000000000000000000000N 00000000000NCONT   00    00000000000          00000000000000000000000000000000000000000000 000000000000000A000000000000000000000000000000000000000000000 000000000000000000000000000000000000000     00000000                                                                                                                        000000000000000000
F0010000006452400003000086000061500042505000000000000000000201410310002001DISTRIBUIDORA CORDOBA                             C000000000450000000000000000000000100010010000000000000000000000F0010000006452400320141031000101 00000000000000000000000000000000000000000000000000000000000000000000000000000000000000000000000000000000000000000N 00000000000NCONT   00    00000000000          00000000000000000000000000000000000000000000 000000000000000A000000000000000000000000000000000000000000000 000000000000000000000000000000000000000     00000000                                                                                                                        000000000000000000
F0010000006452400004000086000061500023658300000000000000000201410310002001DISTRIBUIDORA CORDOBA                             C000000000034000000000000000000000100010010000000000000000000000F0010000006452400420141031000101 00000000000000000000000000000000000000000000000000000000000000000000000000000000000000000000000000000000000000000N 00000000000NCONT   00    00000000000          00000000000000000000000000000000000000000000 000000000000000A000000000000000000000000000000000000000000000 000000000000000000000000000000000000000     00000000                                                                                                                        000000000000000000
F0010000006452400005000086000061500013552100000000000000000201410310002001DISTRIBUIDORA CORDOBA                             D000000000034000000000000000000000100010010000000000000000000000F0010000006452400520141031000101 00000000000000000000000000000000000000000000000000000000000000000000000000000000000000000000000000000000000000000N 00000000000NCONT   00    00000000000          00000000000000000000000000000000000000000000 000000000000000A000000000000000000000000000000000000000000000 000000000000000000000000000000000000000     00000000                                                                                                                        000000000000000000
F0010000006452500001000005525050200011050500000000000000000201410310002001PLASTICOS  DE LA COSTA                            D000000002718000000000000000000000100010010000000000000000000000F0010000006452500120141031000101 00000000000000000000000000000000000000000000000000000000000000000000000000000000000000000000000000000000000000000N 00000000000NCONT   00    00000000000          00000000000000000000000000000000000000000000 000000000000000A000000000000000000000000000000000000000000000 000000000000000000000000000000000000000     00000000                                                                                                                        000000000000000000
F0010000006452500002000005525050200041450500000000000000000201410310002001PLASTICOS  DE LA COSTA                            C000000002618000000000000000000000100010010000000000000000000000F0010000006452500220141031000101 00000000000000000000000000000000000000000000000000000000000000000000000000000000000000000000000000000000000000000N 00000000000NCONT   00    00000000000          00000000000000000000000000000000000000000000 000000000000000A000000000000000000000000000000000000000000000 000000000000000000000000000000000000000     00000000                                                                                                                        000000000000000000
F0010000006452500003000005525050200042505000000000000000000201410310002001PLASTICOS  DE LA COSTA                            C000000000100000000000000000000000100010010000000000000000000000F0010000006452500320141031000101 00000000000000000000000000000000000000000000000000000000000000000000000000000000000000000000000000000000000000000N 00000000000NCONT   00    00000000000          00000000000000000000000000000000000000000000 000000000000000A000000000000000000000000000000000000000000000 000000000000000000000000000000000000000     00000000                                                                                                                        000000000000000000
F0010000006452500004000005525050200023658300000000000000000201410310002001PLASTICOS  DE LA COSTA                            C000000000020900000000000000000000100010010000000000000000000000F0010000006452500420141031000101 00000000000000000000000000000000000000000000000000000000000000000000000000000000000000000000000000000000000000000N 00000000000NCONT   00    00000000000          00000000000000000000000000000000000000000000 000000000000000A000000000000000000000000000000000000000000000 000000000000000000000000000000000000000     00000000                                                                                                                        000000000000000000
F0010000006452500005000005525050200013552100000000000000000201410310002001PLASTICOS  DE LA COSTA                            D000000000020900000000000000000000100010010000000000000000000000F0010000006452500520141031000101 00000000000000000000000000000000000000000000000000000000000000000000000000000000000000000000000000000000000000000N 00000000000NCONT   00    00000000000          00000000000000000000000000000000000000000000 000000000000000A000000000000000000000000000000000000000000000 000000000000000000000000000000000000000     00000000                                                                                                                        000000000000000000
F0010000006452600001000090050144800011050500000000000000000201410310002001PLASTICOS JR ASOCIADOS SAS                        D000000005600000000000000000000000100010010000000000000000000000F0010000006452600120141031000101 00000000000000000000000000000000000000000000000000000000000000000000000000000000000000000000000000000000000000000N 00000000000NCONT   00    00000000000          00000000000000000000000000000000000000000000 000000000000000A000000000000000000000000000000000000000000000 000000000000000000000000000000000000000     00000000                                                                                                                        000000000000000000
F0010000006452600002000090050144800041450500000000000000000201410310002001PLASTICOS JR ASOCIADOS SAS                        C000000005100000000000000000000000100010010000000000000000000000F0010000006452600220141031000101 00000000000000000000000000000000000000000000000000000000000000000000000000000000000000000000000000000000000000000N 00000000000NCONT   00    00000000000          00000000000000000000000000000000000000000000 000000000000000A000000000000000000000000000000000000000000000 000000000000000000000000000000000000000     00000000                                                                                                                        000000000000000000
F0010000006452600003000090050144800042505000000000000000000201410310002001PLASTICOS JR ASOCIADOS SAS                        C000000000500000000000000000000000100010010000000000000000000000F0010000006452600320141031000101 00000000000000000000000000000000000000000000000000000000000000000000000000000000000000000000000000000000000000000N 00000000000NCONT   00    00000000000          00000000000000000000000000000000000000000000 000000000000000A000000000000000000000000000000000000000000000 000000000000000000000000000000000000000     00000000                                                                                                                        000000000000000000
F0010000006452600004000090050144800023658300000000000000000201410310002001PLASTICOS JR ASOCIADOS SAS                        C000000000040800000000000000000000100010010000000000000000000000F0010000006452600420141031000101 00000000000000000000000000000000000000000000000000000000000000000000000000000000000000000000000000000000000000000N 00000000000NCONT   00    00000000000          00000000000000000000000000000000000000000000 000000000000000A000000000000000000000000000000000000000000000 000000000000000000000000000000000000000     00000000                                                                                                                        000000000000000000
F0010000006452600005000090050144800013552100000000000000000201410310002001PLASTICOS JR ASOCIADOS SAS                        D000000000040800000000000000000000100010010000000000000000000000F0010000006452600520141031000101 00000000000000000000000000000000000000000000000000000000000000000000000000000000000000000000000000000000000000000N 00000000000NCONT   00    00000000000          00000000000000000000000000000000000000000000 000000000000000A000000000000000000000000000000000000000000000 000000000000000000000000000000000000000     00000000                                                                                                                        000000000000000000
F0010000006452700001000000870907300011050500000000000000000201410310002001SURTIDOR FERRETERO                                D000000006500000000000000000000000100010010000000000000000000000F0010000006452700120141031000101 00000000000000000000000000000000000000000000000000000000000000000000000000000000000000000000000000000000000000000N 00000000000NCONT   00    00000000000          00000000000000000000000000000000000000000000 000000000000000A000000000000000000000000000000000000000000000 000000000000000000000000000000000000000     00000000                                                                                                                        000000000000000000
F0010000006452700002000000870907300041450500000000000000000201410310002001SURTIDOR FERRETERO                                C000000004500000000000000000000000100010010000000000000000000000F0010000006452700220141031000101 00000000000000000000000000000000000000000000000000000000000000000000000000000000000000000000000000000000000000000N 00000000000NCONT   00    00000000000          00000000000000000000000000000000000000000000 000000000000000A000000000000000000000000000000000000000000000 000000000000000000000000000000000000000     00000000                                                                                                                        000000000000000000
F0010000006452700003000000870907300042505000000000000000000201410310002001SURTIDOR FERRETERO                                C000000002000000000000000000000000100010010000000000000000000000F0010000006452700320141031000101 00000000000000000000000000000000000000000000000000000000000000000000000000000000000000000000000000000000000000000N 00000000000NCONT   00    00000000000          00000000000000000000000000000000000000000000 000000000000000A000000000000000000000000000000000000000000000 000000000000000000000000000000000000000     00000000                                                                                                                        000000000000000000
F0010000006452700004000000870907300023658300000000000000000201410310002001SURTIDOR FERRETERO                                C000000000036000000000000000000000100010010000000000000000000000F0010000006452700420141031000101 00000000000000000000000000000000000000000000000000000000000000000000000000000000000000000000000000000000000000000N 00000000000NCONT   00    00000000000          00000000000000000000000000000000000000000000 000000000000000A000000000000000000000000000000000000000000000 000000000000000000000000000000000000000     00000000                                                                                                                        000000000000000000
F0010000006452700005000000870907300013552100000000000000000201410310002001SURTIDOR FERRETERO                                D000000000036000000000000000000000100010010000000000000000000000F0010000006452700520141031000101 00000000000000000000000000000000000000000000000000000000000000000000000000000000000000000000000000000000000000000N 00000000000NCONT   00    00000000000          00000000000000000000000000000000000000000000 000000000000000A000000000000000000000000000000000000000000000 000000000000000000000000000000000000000     00000000                                                                                                                        000000000000000000
F0010000006452800001000001022529300011050500000000000000000201410310002001ALBERTO ALVAREZ ISAZA                             D000000001870000000000000000000000100010010000000000000000000000F0010000006452800120141031000101 00000000000000000000000000000000000000000000000000000000000000000000000000000000000000000000000000000000000000000N 00000000000NCONT   00    00000000000          00000000000000000000000000000000000000000000 000000000000000A000000000000000000000000000000000000000000000 000000000000000000000000000000000000000     00000000                                                                                                                        000000000000000000
F0010000006452800002000001022529300041450500000000000000000201410310002001ALBERTO ALVAREZ ISAZA                             C000000001720000000000000000000000100010010000000000000000000000F0010000006452800220141031000101 00000000000000000000000000000000000000000000000000000000000000000000000000000000000000000000000000000000000000000N 00000000000NCONT   00    00000000000          00000000000000000000000000000000000000000000 000000000000000A000000000000000000000000000000000000000000000 000000000000000000000000000000000000000     00000000                                                                                                                        000000000000000000
F0010000006452800003000001022529300042505000000000000000000201410310002001ALBERTO ALVAREZ ISAZA                             C000000000150000000000000000000000100010010000000000000000000000F0010000006452800320141031000101 00000000000000000000000000000000000000000000000000000000000000000000000000000000000000000000000000000000000000000N 00000000000NCONT   00    00000000000          00000000000000000000000000000000000000000000 000000000000000A000000000000000000000000000000000000000000000 000000000000000000000000000000000000000     00000000                                                                                                                        000000000000000000
F0010000006452800004000001022529300023658300000000000000000201410310002001ALBERTO ALVAREZ ISAZA                             C000000000013800000000000000000000100010010000000000000000000000F0010000006452800420141031000101 00000000000000000000000000000000000000000000000000000000000000000000000000000000000000000000000000000000000000000N 00000000000NCONT   00    00000000000          00000000000000000000000000000000000000000000 000000000000000A000000000000000000000000000000000000000000000 000000000000000000000000000000000000000     00000000                                                                                                                        000000000000000000
F0010000006452800005000001022529300013552100000000000000000201410310002001ALBERTO ALVAREZ ISAZA                             D000000000013800000000000000000000100010010000000000000000000000F0010000006452800520141031000101 00000000000000000000000000000000000000000000000000000000000000000000000000000000000000000000000000000000000000000N 00000000000NCONT   00    00000000000          00000000000000000000000000000000000000000000 000000000000000A000000000000000000000000000000000000000000000 000000000000000000000000000000000000000     00000000                                                                                                                        000000000000000000
F0010000006452900001000001022529300011050500000000000000000201410310002001ALBERTO ALVAREZ ISAZA                             D000000002275000000000000000000000100010010000000000000000000000F0010000006452900120141031000101 00000000000000000000000000000000000000000000000000000000000000000000000000000000000000000000000000000000000000000N 00000000000NCONT   00    00000000000          00000000000000000000000000000000000000000000 000000000000000A000000000000000000000000000000000000000000000 000000000000000000000000000000000000000     00000000                                                                                                                        000000000000000000
F0010000006452900002000001022529300041450500000000000000000201410310002001ALBERTO ALVAREZ ISAZA                             C000000002200000000000000000000000100010010000000000000000000000F0010000006452900220141031000101 00000000000000000000000000000000000000000000000000000000000000000000000000000000000000000000000000000000000000000N 00000000000NCONT   00    00000000000          00000000000000000000000000000000000000000000 000000000000000A000000000000000000000000000000000000000000000 000000000000000000000000000000000000000     00000000                                                                                                                        000000000000000000
F0010000006452900003000001022529300042505000000000000000000201410310002001ALBERTO ALVAREZ ISAZA                             C000000000075000000000000000000000100010010000000000000000000000F0010000006452900320141031000101 00000000000000000000000000000000000000000000000000000000000000000000000000000000000000000000000000000000000000000N 00000000000NCONT   00    00000000000          00000000000000000000000000000000000000000000 000000000000000A000000000000000000000000000000000000000000000 000000000000000000000000000000000000000     00000000                                                                                                                        000000000000000000
F0010000006452900004000001022529300023658300000000000000000201410310002001ALBERTO ALVAREZ ISAZA                             C000000000017600000000000000000000100010010000000000000000000000F0010000006452900420141031000101 00000000000000000000000000000000000000000000000000000000000000000000000000000000000000000000000000000000000000000N 00000000000NCONT   00    00000000000          00000000000000000000000000000000000000000000 000000000000000A000000000000000000000000000000000000000000000 000000000000000000000000000000000000000     00000000                                                                                                                        000000000000000000
F0010000006452900005000001022529300013552100000000000000000201410310002001ALBERTO ALVAREZ ISAZA                             D000000000017600000000000000000000100010010000000000000000000000F0010000006452900520141031000101 00000000000000000000000000000000000000000000000000000000000000000000000000000000000000000000000000000000000000000N 00000000000NCONT   00    00000000000          00000000000000000000000000000000000000000000 000000000000000A000000000000000000000000000000000000000000000 000000000000000000000000000000000000000     00000000                                                                                                                        000000000000000000
F0010000006453000001000003262315300011050500000000000000000201410310002001CACHARRERIA LA PROPIA JICHA                       D000000002000000000000000000000000100010010000000000000000000000F0010000006453000120141031000101 00000000000000000000000000000000000000000000000000000000000000000000000000000000000000000000000000000000000000000N 00000000000NCONT   00    00000000000          00000000000000000000000000000000000000000000 000000000000000A000000000000000000000000000000000000000000000 000000000000000000000000000000000000000     00000000                                                                                                                        000000000000000000
F0010000006453000002000003262315300041450500000000000000000201410310002001CACHARRERIA LA PROPIA JICHA                       C000000001600000000000000000000000100010010000000000000000000000F0010000006453000220141031000101 00000000000000000000000000000000000000000000000000000000000000000000000000000000000000000000000000000000000000000N 00000000000NCONT   00    00000000000          00000000000000000000000000000000000000000000 000000000000000A000000000000000000000000000000000000000000000 000000000000000000000000000000000000000     00000000                                                                                                                        000000000000000000
F0010000006453000003000003262315300042505000000000000000000201410310002001CACHARRERIA LA PROPIA JICHA                       C000000000400000000000000000000000100010010000000000000000000000F0010000006453000320141031000101 00000000000000000000000000000000000000000000000000000000000000000000000000000000000000000000000000000000000000000N 00000000000NCONT   00    00000000000          00000000000000000000000000000000000000000000 000000000000000A000000000000000000000000000000000000000000000 000000000000000000000000000000000000000     00000000                                                                                                                        000000000000000000
F0010000006453000004000003262315300023658300000000000000000201410310002001CACHARRERIA LA PROPIA JICHA                       C000000000012800000000000000000000100010010000000000000000000000F0010000006453000420141031000101 00000000000000000000000000000000000000000000000000000000000000000000000000000000000000000000000000000000000000000N 00000000000NCONT   00    00000000000          00000000000000000000000000000000000000000000 000000000000000A000000000000000000000000000000000000000000000 000000000000000000000000000000000000000     00000000                                                                                                                        000000000000000000
F0010000006453000005000003262315300013552100000000000000000201410310002001CACHARRERIA LA PROPIA JICHA                       D000000000012800000000000000000000100010010000000000000000000000F0010000006453000520141031000101 00000000000000000000000000000000000000000000000000000000000000000000000000000000000000000000000000000000000000000N 00000000000NCONT   00    00000000000          00000000000000000000000000000000000000000000 000000000000000A000000000000000000000000000000000000000000000 000000000000000000000000000000000000000     00000000                                                                                                                        000000000000000000
F0010000006453100001000000431178400011050500000000000000000201410310002001EFRAIN ALVAREZ                                    D000000003120000000000000000000000100010010000000000000000000000F0010000006453100120141031000101 00000000000000000000000000000000000000000000000000000000000000000000000000000000000000000000000000000000000000000N 00000000000NCONT   00    00000000000          00000000000000000000000000000000000000000000 000000000000000A000000000000000000000000000000000000000000000 000000000000000000000000000000000000000     00000000                                                                                                                        000000000000000000
F0010000006453100002000000431178400041450500000000000000000201410310002001EFRAIN ALVAREZ                                    C000000003020000000000000000000000100010010000000000000000000000F0010000006453100220141031000101 00000000000000000000000000000000000000000000000000000000000000000000000000000000000000000000000000000000000000000N 00000000000NCONT   00    00000000000          00000000000000000000000000000000000000000000 000000000000000A000000000000000000000000000000000000000000000 000000000000000000000000000000000000000     00000000                                                                                                                        000000000000000000
F0010000006453100003000000431178400042505000000000000000000201410310002001EFRAIN ALVAREZ                                    C000000000100000000000000000000000100010010000000000000000000000F0010000006453100320141031000101 00000000000000000000000000000000000000000000000000000000000000000000000000000000000000000000000000000000000000000N 00000000000NCONT   00    00000000000          00000000000000000000000000000000000000000000 000000000000000A000000000000000000000000000000000000000000000 000000000000000000000000000000000000000     00000000                                                                                                                        000000000000000000
F0010000006453100004000000431178400023658300000000000000000201410310002001EFRAIN ALVAREZ                                    C000000000024200000000000000000000100010010000000000000000000000F0010000006453100420141031000101 00000000000000000000000000000000000000000000000000000000000000000000000000000000000000000000000000000000000000000N 00000000000NCONT   00    00000000000          00000000000000000000000000000000000000000000 000000000000000A000000000000000000000000000000000000000000000 000000000000000000000000000000000000000     00000000                                                                                                                        000000000000000000
F0010000006453100005000000431178400013552100000000000000000201410310002001EFRAIN ALVAREZ                                    D000000000024200000000000000000000100010010000000000000000000000F0010000006453100520141031000101 00000000000000000000000000000000000000000000000000000000000000000000000000000000000000000000000000000000000000000N 00000000000NCONT   00    00000000000          00000000000000000000000000000000000000000000 000000000000000A000000000000000000000000000000000000000000000 000000000000000000000000000000000000000     00000000                                                                                                                        000000000000000000
F0010000006453200001000000431178400011050500000000000000000201410310002001EFRAIN ALVAREZ                                    D000000000910000000000000000000000100010010000000000000000000000F0010000006453200120141031000101 00000000000000000000000000000000000000000000000000000000000000000000000000000000000000000000000000000000000000000N 00000000000NCONT   00    00000000000          00000000000000000000000000000000000000000000 000000000000000A000000000000000000000000000000000000000000000 000000000000000000000000000000000000000     00000000                                                                                                                        000000000000000000
F0010000006453200002000000431178400041450500000000000000000201410310002001EFRAIN ALVAREZ                                    C000000000860000000000000000000000100010010000000000000000000000F0010000006453200220141031000101 00000000000000000000000000000000000000000000000000000000000000000000000000000000000000000000000000000000000000000N 00000000000NCONT   00    00000000000          00000000000000000000000000000000000000000000 000000000000000A000000000000000000000000000000000000000000000 000000000000000000000000000000000000000     00000000                                                                                                                        000000000000000000
F0010000006453200003000000431178400042505000000000000000000201410310002001EFRAIN ALVAREZ                                    C000000000050000000000000000000000100010010000000000000000000000F0010000006453200320141031000101 00000000000000000000000000000000000000000000000000000000000000000000000000000000000000000000000000000000000000000N 00000000000NCONT   00    00000000000          00000000000000000000000000000000000000000000 000000000000000A000000000000000000000000000000000000000000000 000000000000000000000000000000000000000     00000000                                                                                                                        000000000000000000
F0010000006453200004000000431178400023658300000000000000000201410310002001EFRAIN ALVAREZ                                    C000000000006900000000000000000000100010010000000000000000000000F0010000006453200420141031000101 00000000000000000000000000000000000000000000000000000000000000000000000000000000000000000000000000000000000000000N 00000000000NCONT   00    00000000000          00000000000000000000000000000000000000000000 000000000000000A000000000000000000000000000000000000000000000 000000000000000000000000000000000000000     00000000                                                                                                                        000000000000000000
F0010000006453200005000000431178400013552100000000000000000201410310002001EFRAIN ALVAREZ                                    D000000000006900000000000000000000100010010000000000000000000000F0010000006453200520141031000101 00000000000000000000000000000000000000000000000000000000000000000000000000000000000000000000000000000000000000000N 00000000000NCONT   00    00000000000          00000000000000000000000000000000000000000000 000000000000000A000000000000000000000000000000000000000000000 000000000000000000000000000000000000000     00000000                                                                                                                        000000000000000000
F0010000006453300001000000431178400011050500000000000000000201410310002001EFRAIN ALVAREZ                                    D000000003670000000000000000000000100010010000000000000000000000F0010000006453300120141031000101 00000000000000000000000000000000000000000000000000000000000000000000000000000000000000000000000000000000000000000N 00000000000NCONT   00    00000000000          00000000000000000000000000000000000000000000 000000000000000A000000000000000000000000000000000000000000000 000000000000000000000000000000000000000     00000000                                                                                                                        000000000000000000
F0010000006453300002000000431178400041450500000000000000000201410310002001EFRAIN ALVAREZ                                    C000000003570000000000000000000000100010010000000000000000000000F0010000006453300220141031000101 00000000000000000000000000000000000000000000000000000000000000000000000000000000000000000000000000000000000000000N 00000000000NCONT   00    00000000000          00000000000000000000000000000000000000000000 000000000000000A000000000000000000000000000000000000000000000 000000000000000000000000000000000000000     00000000                                                                                                                        000000000000000000
F0010000006453300003000000431178400042505000000000000000000201410310002001EFRAIN ALVAREZ                                    C000000000100000000000000000000000100010010000000000000000000000F0010000006453300320141031000101 00000000000000000000000000000000000000000000000000000000000000000000000000000000000000000000000000000000000000000N 00000000000NCONT   00    00000000000          00000000000000000000000000000000000000000000 000000000000000A000000000000000000000000000000000000000000000 000000000000000000000000000000000000000     00000000                                                                                                                        000000000000000000
F0010000006453300004000000431178400023658300000000000000000201410310002001EFRAIN ALVAREZ                                    C000000000028600000000000000000000100010010000000000000000000000F0010000006453300420141031000101 00000000000000000000000000000000000000000000000000000000000000000000000000000000000000000000000000000000000000000N 00000000000NCONT   00    00000000000          00000000000000000000000000000000000000000000 000000000000000A000000000000000000000000000000000000000000000 000000000000000000000000000000000000000     00000000                                                                                                                        000000000000000000
F0010000006453300005000000431178400013552100000000000000000201410310002001EFRAIN ALVAREZ                                    D000000000028600000000000000000000100010010000000000000000000000F0010000006453300520141031000101 00000000000000000000000000000000000000000000000000000000000000000000000000000000000000000000000000000000000000000N 00000000000NCONT   00    00000000000          00000000000000000000000000000000000000000000 000000000000000A000000000000000000000000000000000000000000000 000000000000000000000000000000000000000     00000000                                                                                                                        000000000000000000
F0010000006453400001000000431178400011050500000000000000000201410310002001EFRAIN ALVAREZ                                    D000000000960000000000000000000000100010010000000000000000000000F0010000006453400120141031000101 00000000000000000000000000000000000000000000000000000000000000000000000000000000000000000000000000000000000000000N 00000000000NCONT   00    00000000000          00000000000000000000000000000000000000000000 000000000000000A000000000000000000000000000000000000000000000 000000000000000000000000000000000000000     00000000                                                                                                                        000000000000000000
F0010000006453400002000000431178400041450500000000000000000201410310002001EFRAIN ALVAREZ                                    C000000000860000000000000000000000100010010000000000000000000000F0010000006453400220141031000101 00000000000000000000000000000000000000000000000000000000000000000000000000000000000000000000000000000000000000000N 00000000000NCONT   00    00000000000          00000000000000000000000000000000000000000000 000000000000000A000000000000000000000000000000000000000000000 000000000000000000000000000000000000000     00000000                                                                                                                        000000000000000000
F0010000006453400003000000431178400042505000000000000000000201410310002001EFRAIN ALVAREZ                                    C000000000100000000000000000000000100010010000000000000000000000F0010000006453400320141031000101 00000000000000000000000000000000000000000000000000000000000000000000000000000000000000000000000000000000000000000N 00000000000NCONT   00    00000000000          00000000000000000000000000000000000000000000 000000000000000A000000000000000000000000000000000000000000000 000000000000000000000000000000000000000     00000000                                                                                                                        000000000000000000
F0010000006453400004000000431178400023658300000000000000000201410310002001EFRAIN ALVAREZ                                    C000000000006900000000000000000000100010010000000000000000000000F0010000006453400420141031000101 00000000000000000000000000000000000000000000000000000000000000000000000000000000000000000000000000000000000000000N 00000000000NCONT   00    00000000000          00000000000000000000000000000000000000000000 000000000000000A000000000000000000000000000000000000000000000 000000000000000000000000000000000000000     00000000                                                                                                                        000000000000000000
F0010000006453400005000000431178400013552100000000000000000201410310002001EFRAIN ALVAREZ                                    D000000000006900000000000000000000100010010000000000000000000000F0010000006453400520141031000101 00000000000000000000000000000000000000000000000000000000000000000000000000000000000000000000000000000000000000000N 00000000000NCONT   00    00000000000          00000000000000000000000000000000000000000000 000000000000000A000000000000000000000000000000000000000000000 000000000000000000000000000000000000000     00000000                                                                                                                        000000000000000000
F0010000006453500001000000431178400011050500000000000000000201410310002001EFRAIN ALVAREZ                                    D000000002530000000000000000000000100010010000000000000000000000F0010000006453500120141031000101 00000000000000000000000000000000000000000000000000000000000000000000000000000000000000000000000000000000000000000N 00000000000NCONT   00    00000000000          00000000000000000000000000000000000000000000 000000000000000A000000000000000000000000000000000000000000000 000000000000000000000000000000000000000     00000000                                                                                                                        000000000000000000
F0010000006453500002000000431178400041450500000000000000000201410310002001EFRAIN ALVAREZ                                    C000000002380000000000000000000000100010010000000000000000000000F0010000006453500220141031000101 00000000000000000000000000000000000000000000000000000000000000000000000000000000000000000000000000000000000000000N 00000000000NCONT   00    00000000000          00000000000000000000000000000000000000000000 000000000000000A000000000000000000000000000000000000000000000 000000000000000000000000000000000000000     00000000                                                                                                                        000000000000000000
F0010000006453500003000000431178400042505000000000000000000201410310002001EFRAIN ALVAREZ                                    C000000000150000000000000000000000100010010000000000000000000000F0010000006453500320141031000101 00000000000000000000000000000000000000000000000000000000000000000000000000000000000000000000000000000000000000000N 00000000000NCONT   00    00000000000          00000000000000000000000000000000000000000000 000000000000000A000000000000000000000000000000000000000000000 000000000000000000000000000000000000000     00000000                                                                                                                        000000000000000000
F0010000006453500004000000431178400023658300000000000000000201410310002001EFRAIN ALVAREZ                                    C000000000019000000000000000000000100010010000000000000000000000F0010000006453500420141031000101 00000000000000000000000000000000000000000000000000000000000000000000000000000000000000000000000000000000000000000N 00000000000NCONT   00    00000000000          00000000000000000000000000000000000000000000 000000000000000A000000000000000000000000000000000000000000000 000000000000000000000000000000000000000     00000000                                                                                                                        000000000000000000
F0010000006453500005000000431178400013552100000000000000000201410310002001EFRAIN ALVAREZ                                    D000000000019000000000000000000000100010010000000000000000000000F0010000006453500520141031000101 00000000000000000000000000000000000000000000000000000000000000000000000000000000000000000000000000000000000000000N 00000000000NCONT   00    00000000000          00000000000000000000000000000000000000000000 000000000000000A000000000000000000000000000000000000000000000 000000000000000000000000000000000000000     00000000                                                                                                                        000000000000000000
F0010000006453600001000002245670100011050500000000000000000201410310002001YOLANDA  TOBON                                    D000000004000000000000000000000000100010010000000000000000000000F0010000006453600120141031000101 00000000000000000000000000000000000000000000000000000000000000000000000000000000000000000000000000000000000000000N 00000000000NCONT   00    00000000000          00000000000000000000000000000000000000000000 000000000000000A000000000000000000000000000000000000000000000 000000000000000000000000000000000000000     00000000                                                                                                                        000000000000000000
F0010000006453600002000002245670100041450500000000000000000201410310002001YOLANDA  TOBON                                    C000000003500000000000000000000000100010010000000000000000000000F0010000006453600220141031000101 00000000000000000000000000000000000000000000000000000000000000000000000000000000000000000000000000000000000000000N 00000000000NCONT   00    00000000000          00000000000000000000000000000000000000000000 000000000000000A000000000000000000000000000000000000000000000 000000000000000000000000000000000000000     00000000                                                                                                                        000000000000000000
F0010000006453600003000002245670100042505000000000000000000201410310002001YOLANDA  TOBON                                    C000000000500000000000000000000000100010010000000000000000000000F0010000006453600320141031000101 00000000000000000000000000000000000000000000000000000000000000000000000000000000000000000000000000000000000000000N 00000000000NCONT   00    00000000000          00000000000000000000000000000000000000000000 000000000000000A000000000000000000000000000000000000000000000 000000000000000000000000000000000000000     00000000                                                                                                                        000000000000000000
F0010000006453600004000002245670100023658300000000000000000201410310002001YOLANDA  TOBON                                    C000000000028000000000000000000000100010010000000000000000000000F0010000006453600420141031000101 00000000000000000000000000000000000000000000000000000000000000000000000000000000000000000000000000000000000000000N 00000000000NCONT   00    00000000000          00000000000000000000000000000000000000000000 000000000000000A000000000000000000000000000000000000000000000 000000000000000000000000000000000000000     00000000                                                                                                                        000000000000000000
F0010000006453600005000002245670100013552100000000000000000201410310002001YOLANDA  TOBON                                    D000000000028000000000000000000000100010010000000000000000000000F0010000006453600520141031000101 00000000000000000000000000000000000000000000000000000000000000000000000000000000000000000000000000000000000000000N 00000000000NCONT   00    00000000000          00000000000000000000000000000000000000000000 000000000000000A000000000000000000000000000000000000000000000 000000000000000000000000000000000000000     00000000                                                                                                                        000000000000000000
F0010000006453700001000000431178400011050500000000000000000201410310002001EFRAIN ALVAREZ                                    D000000000960000000000000000000000100010010000000000000000000000F0010000006453700120141031000101 00000000000000000000000000000000000000000000000000000000000000000000000000000000000000000000000000000000000000000N 00000000000NCONT   00    00000000000          00000000000000000000000000000000000000000000 000000000000000A000000000000000000000000000000000000000000000 000000000000000000000000000000000000000     00000000                                                                                                                        000000000000000000
F0010000006453700002000000431178400041450500000000000000000201410310002001EFRAIN ALVAREZ                                    C000000000860000000000000000000000100010010000000000000000000000F0010000006453700220141031000101 00000000000000000000000000000000000000000000000000000000000000000000000000000000000000000000000000000000000000000N 00000000000NCONT   00    00000000000          00000000000000000000000000000000000000000000 000000000000000A000000000000000000000000000000000000000000000 000000000000000000000000000000000000000     00000000                                                                                                                        000000000000000000
F0010000006453700003000000431178400042505000000000000000000201410310002001EFRAIN ALVAREZ                                    C000000000100000000000000000000000100010010000000000000000000000F0010000006453700320141031000101 00000000000000000000000000000000000000000000000000000000000000000000000000000000000000000000000000000000000000000N 00000000000NCONT   00    00000000000          00000000000000000000000000000000000000000000 000000000000000A000000000000000000000000000000000000000000000 000000000000000000000000000000000000000     00000000                                                                                                                        000000000000000000
F0010000006453700004000000431178400023658300000000000000000201410310002001EFRAIN ALVAREZ                                    C000000000006900000000000000000000100010010000000000000000000000F0010000006453700420141031000101 00000000000000000000000000000000000000000000000000000000000000000000000000000000000000000000000000000000000000000N 00000000000NCONT   00    00000000000          00000000000000000000000000000000000000000000 000000000000000A000000000000000000000000000000000000000000000 000000000000000000000000000000000000000     00000000                                                                                                                        000000000000000000
F0010000006453700005000000431178400013552100000000000000000201410310002001EFRAIN ALVAREZ                                    D000000000006900000000000000000000100010010000000000000000000000F0010000006453700520141031000101 00000000000000000000000000000000000000000000000000000000000000000000000000000000000000000000000000000000000000000N 00000000000NCONT   00    00000000000          00000000000000000000000000000000000000000000 000000000000000A000000000000000000000000000000000000000000000 000000000000000000000000000000000000000     00000000                                                                                                                        000000000000000000
F0010000006453800001000002245670100011050500000000000000000201410310002001YOLANDA  TOBON                                    D000000016000000000000000000000000100010010000000000000000000000F0010000006453800120141031000101 00000000000000000000000000000000000000000000000000000000000000000000000000000000000000000000000000000000000000000N 00000000000NCONT   00    00000000000          00000000000000000000000000000000000000000000 000000000000000A000000000000000000000000000000000000000000000 000000000000000000000000000000000000000     00000000                                                                                                                        000000000000000000
F0010000006453800002000002245670100041450500000000000000000201410310002001YOLANDA  TOBON                                    C000000013200000000000000000000000100010010000000000000000000000F0010000006453800220141031000101 00000000000000000000000000000000000000000000000000000000000000000000000000000000000000000000000000000000000000000N 00000000000NCONT   00    00000000000          00000000000000000000000000000000000000000000 000000000000000A000000000000000000000000000000000000000000000 000000000000000000000000000000000000000     00000000                                                                                                                        000000000000000000
F0010000006453800003000002245670100042505000000000000000000201410310002001YOLANDA  TOBON                                    C000000002800000000000000000000000100010010000000000000000000000F0010000006453800320141031000101 00000000000000000000000000000000000000000000000000000000000000000000000000000000000000000000000000000000000000000N 00000000000NCONT   00    00000000000          00000000000000000000000000000000000000000000 000000000000000A000000000000000000000000000000000000000000000 000000000000000000000000000000000000000     00000000                                                                                                                        000000000000000000
F0010000006453800004000002245670100023658300000000000000000201410310002001YOLANDA  TOBON                                    C000000000105600000000000000000000100010010000000000000000000000F0010000006453800420141031000101 00000000000000000000000000000000000000000000000000000000000000000000000000000000000000000000000000000000000000000N 00000000000NCONT   00    00000000000          00000000000000000000000000000000000000000000 000000000000000A000000000000000000000000000000000000000000000 000000000000000000000000000000000000000     00000000                                                                                                                        000000000000000000
F0010000006453800005000002245670100013552100000000000000000201410310002001YOLANDA  TOBON                                    D000000000105600000000000000000000100010010000000000000000000000F0010000006453800520141031000101 00000000000000000000000000000000000000000000000000000000000000000000000000000000000000000000000000000000000000000N 00000000000NCONT   00    00000000000          00000000000000000000000000000000000000000000 000000000000000A000000000000000000000000000000000000000000000 000000000000000000000000000000000000000     00000000                                                                                                                        000000000000000000
F0010000006453900001000000431178400011050500000000000000000201410310002001EFRAIN ALVAREZ                                    D000000001560000000000000000000000100010010000000000000000000000F0010000006453900120141031000101 00000000000000000000000000000000000000000000000000000000000000000000000000000000000000000000000000000000000000000N 00000000000NCONT   00    00000000000          00000000000000000000000000000000000000000000 000000000000000A000000000000000000000000000000000000000000000 000000000000000000000000000000000000000     00000000                                                                                                                        000000000000000000
F0010000006453900002000000431178400041450500000000000000000201410310002001EFRAIN ALVAREZ                                    C000000001510000000000000000000000100010010000000000000000000000F0010000006453900220141031000101 00000000000000000000000000000000000000000000000000000000000000000000000000000000000000000000000000000000000000000N 00000000000NCONT   00    00000000000          00000000000000000000000000000000000000000000 000000000000000A000000000000000000000000000000000000000000000 000000000000000000000000000000000000000     00000000                                                                                                                        000000000000000000
F0010000006453900003000000431178400042505000000000000000000201410310002001EFRAIN ALVAREZ                                    C000000000050000000000000000000000100010010000000000000000000000F0010000006453900320141031000101 00000000000000000000000000000000000000000000000000000000000000000000000000000000000000000000000000000000000000000N 00000000000NCONT   00    00000000000          00000000000000000000000000000000000000000000 000000000000000A000000000000000000000000000000000000000000000 000000000000000000000000000000000000000     00000000                                                                                                                        000000000000000000
F0010000006453900004000000431178400023658300000000000000000201410310002001EFRAIN ALVAREZ                                    C000000000012100000000000000000000100010010000000000000000000000F0010000006453900420141031000101 00000000000000000000000000000000000000000000000000000000000000000000000000000000000000000000000000000000000000000N 00000000000NCONT   00    00000000000          00000000000000000000000000000000000000000000 000000000000000A000000000000000000000000000000000000000000000 000000000000000000000000000000000000000     00000000                                                                                                                        000000000000000000
F0010000006453900005000000431178400013552100000000000000000201410310002001EFRAIN ALVAREZ                                    D000000000012100000000000000000000100010010000000000000000000000F0010000006453900520141031000101 00000000000000000000000000000000000000000000000000000000000000000000000000000000000000000000000000000000000000000N 00000000000NCONT   00    00000000000          00000000000000000000000000000000000000000000 000000000000000A000000000000000000000000000000000000000000000 000000000000000000000000000000000000000     00000000                                                                                                                        000000000000000000
F0010000006454000001000002245670100011050500000000000000000201410310002001YOLANDA  TOBON                                    D000000002500000000000000000000000100010010000000000000000000000F0010000006454000120141031000101 00000000000000000000000000000000000000000000000000000000000000000000000000000000000000000000000000000000000000000N 00000000000NCONT   00    00000000000          00000000000000000000000000000000000000000000 000000000000000A000000000000000000000000000000000000000000000 000000000000000000000000000000000000000     00000000                                                                                                                        000000000000000000
F0010000006454000002000002245670100041450500000000000000000201410310002001YOLANDA  TOBON                                    C000000002000000000000000000000000100010010000000000000000000000F0010000006454000220141031000101 00000000000000000000000000000000000000000000000000000000000000000000000000000000000000000000000000000000000000000N 00000000000NCONT   00    00000000000          00000000000000000000000000000000000000000000 000000000000000A000000000000000000000000000000000000000000000 000000000000000000000000000000000000000     00000000                                                                                                                        000000000000000000
F0010000006454000003000002245670100042505000000000000000000201410310002001YOLANDA  TOBON                                    C000000000500000000000000000000000100010010000000000000000000000F0010000006454000320141031000101 00000000000000000000000000000000000000000000000000000000000000000000000000000000000000000000000000000000000000000N 00000000000NCONT   00    00000000000          00000000000000000000000000000000000000000000 000000000000000A000000000000000000000000000000000000000000000 000000000000000000000000000000000000000     00000000                                                                                                                        000000000000000000
F0010000006454000004000002245670100023658300000000000000000201410310002001YOLANDA  TOBON                                    C000000000016000000000000000000000100010010000000000000000000000F0010000006454000420141031000101 00000000000000000000000000000000000000000000000000000000000000000000000000000000000000000000000000000000000000000N 00000000000NCONT   00    00000000000          00000000000000000000000000000000000000000000 000000000000000A000000000000000000000000000000000000000000000 000000000000000000000000000000000000000     00000000                                                                                                                        000000000000000000
F0010000006454000005000002245670100013552100000000000000000201410310002001YOLANDA  TOBON                                    D000000000016000000000000000000000100010010000000000000000000000F0010000006454000520141031000101 00000000000000000000000000000000000000000000000000000000000000000000000000000000000000000000000000000000000000000N 00000000000NCONT   00    00000000000          00000000000000000000000000000000000000000000 000000000000000A000000000000000000000000000000000000000000000 000000000000000000000000000000000000000     00000000                                                                                                                        000000000000000000
F0010000006454100001000000742399700011050500000000000000000201410310002001CACHARRERIA EL NUEVO CHADID                       D000000003000000000000000000000000100010010000000000000000000000F0010000006454100120141031000101 00000000000000000000000000000000000000000000000000000000000000000000000000000000000000000000000000000000000000000N 00000000000NCONT   00    00000000000          00000000000000000000000000000000000000000000 000000000000000A000000000000000000000000000000000000000000000 000000000000000000000000000000000000000     00000000                                                                                                                        000000000000000000
F0010000006454100002000000742399700041450500000000000000000201410310002001CACHARRERIA EL NUEVO CHADID                       C000000002400000000000000000000000100010010000000000000000000000F0010000006454100220141031000101 00000000000000000000000000000000000000000000000000000000000000000000000000000000000000000000000000000000000000000N 00000000000NCONT   00    00000000000          00000000000000000000000000000000000000000000 000000000000000A000000000000000000000000000000000000000000000 000000000000000000000000000000000000000     00000000                                                                                                                        000000000000000000
F0010000006454100003000000742399700042505000000000000000000201410310002001CACHARRERIA EL NUEVO CHADID                       C000000000600000000000000000000000100010010000000000000000000000F0010000006454100320141031000101 00000000000000000000000000000000000000000000000000000000000000000000000000000000000000000000000000000000000000000N 00000000000NCONT   00    00000000000          00000000000000000000000000000000000000000000 000000000000000A000000000000000000000000000000000000000000000 000000000000000000000000000000000000000     00000000                                                                                                                        000000000000000000
F0010000006454100004000000742399700023658300000000000000000201410310002001CACHARRERIA EL NUEVO CHADID                       C000000000019200000000000000000000100010010000000000000000000000F0010000006454100420141031000101 00000000000000000000000000000000000000000000000000000000000000000000000000000000000000000000000000000000000000000N 00000000000NCONT   00    00000000000          00000000000000000000000000000000000000000000 000000000000000A000000000000000000000000000000000000000000000 000000000000000000000000000000000000000     00000000                                                                                                                        000000000000000000
F0010000006454100005000000742399700013552100000000000000000201410310002001CACHARRERIA EL NUEVO CHADID                       D000000000019200000000000000000000100010010000000000000000000000F0010000006454100520141031000101 00000000000000000000000000000000000000000000000000000000000000000000000000000000000000000000000000000000000000000N 00000000000NCONT   00    00000000000          00000000000000000000000000000000000000000000 000000000000000A000000000000000000000000000000000000000000000 000000000000000000000000000000000000000     00000000                                                                                                                        000000000000000000
F0010000006454200001000080201703900011050500000000000000000201410310002001MUNDIAL CHEMICAL LTDA                             D000000002600000000000000000000000100010010000000000000000000000F0010000006454200120141031000101 00000000000000000000000000000000000000000000000000000000000000000000000000000000000000000000000000000000000000000N 00000000000NCONT   00    00000000000          00000000000000000000000000000000000000000000 000000000000000A000000000000000000000000000000000000000000000 000000000000000000000000000000000000000     00000000                                                                                                                        000000000000000000
F0010000006454200002000080201703900041450500000000000000000201410310002001MUNDIAL CHEMICAL LTDA                             C000000002100000000000000000000000100010010000000000000000000000F0010000006454200220141031000101 00000000000000000000000000000000000000000000000000000000000000000000000000000000000000000000000000000000000000000N 00000000000NCONT   00    00000000000          00000000000000000000000000000000000000000000 000000000000000A000000000000000000000000000000000000000000000 000000000000000000000000000000000000000     00000000                                                                                                                        000000000000000000
F0010000006454200003000080201703900042505000000000000000000201410310002001MUNDIAL CHEMICAL LTDA                             C000000000500000000000000000000000100010010000000000000000000000F0010000006454200320141031000101 00000000000000000000000000000000000000000000000000000000000000000000000000000000000000000000000000000000000000000N 00000000000NCONT   00    00000000000          00000000000000000000000000000000000000000000 000000000000000A000000000000000000000000000000000000000000000 000000000000000000000000000000000000000     00000000                                                                                                                        000000000000000000
F0010000006454200004000080201703900023658300000000000000000201410310002001MUNDIAL CHEMICAL LTDA                             C000000000016800000000000000000000100010010000000000000000000000F0010000006454200420141031000101 00000000000000000000000000000000000000000000000000000000000000000000000000000000000000000000000000000000000000000N 00000000000NCONT   00    00000000000          00000000000000000000000000000000000000000000 000000000000000A000000000000000000000000000000000000000000000 000000000000000000000000000000000000000     00000000                                                                                                                        000000000000000000
F0010000006454200005000080201703900013552100000000000000000201410310002001MUNDIAL CHEMICAL LTDA                             D000000000016800000000000000000000100010010000000000000000000000F0010000006454200520141031000101 00000000000000000000000000000000000000000000000000000000000000000000000000000000000000000000000000000000000000000N 00000000000NCONT   00    00000000000          00000000000000000000000000000000000000000000 000000000000000A000000000000000000000000000000000000000000000 000000000000000000000000000000000000000     00000000                                                                                                                        000000000000000000
F0010000006454300001000080201703900011050500000000000000000201410310002001MUNDIAL CHEMICAL LTDA                             D000000001750000000000000000000000100010010000000000000000000000F0010000006454300120141031000101 00000000000000000000000000000000000000000000000000000000000000000000000000000000000000000000000000000000000000000N 00000000000NCONT   00    00000000000          00000000000000000000000000000000000000000000 000000000000000A000000000000000000000000000000000000000000000 000000000000000000000000000000000000000     00000000                                                                                                                        000000000000000000
F0010000006454300002000080201703900041450500000000000000000201410310002001MUNDIAL CHEMICAL LTDA                             C000000001400000000000000000000000100010010000000000000000000000F0010000006454300220141031000101 00000000000000000000000000000000000000000000000000000000000000000000000000000000000000000000000000000000000000000N 00000000000NCONT   00    00000000000          00000000000000000000000000000000000000000000 000000000000000A000000000000000000000000000000000000000000000 000000000000000000000000000000000000000     00000000                                                                                                                        000000000000000000
F0010000006454300003000080201703900042505000000000000000000201410310002001MUNDIAL CHEMICAL LTDA                             C000000000350000000000000000000000100010010000000000000000000000F0010000006454300320141031000101 00000000000000000000000000000000000000000000000000000000000000000000000000000000000000000000000000000000000000000N 00000000000NCONT   00    00000000000          00000000000000000000000000000000000000000000 000000000000000A000000000000000000000000000000000000000000000 000000000000000000000000000000000000000     00000000                                                                                                                        000000000000000000
F0010000006454300004000080201703900023658300000000000000000201410310002001MUNDIAL CHEMICAL LTDA                             C000000000011200000000000000000000100010010000000000000000000000F0010000006454300420141031000101 00000000000000000000000000000000000000000000000000000000000000000000000000000000000000000000000000000000000000000N 00000000000NCONT   00    00000000000          00000000000000000000000000000000000000000000 000000000000000A000000000000000000000000000000000000000000000 000000000000000000000000000000000000000     00000000                                                                                                                        000000000000000000
F0010000006454300005000080201703900013552100000000000000000201410310002001MUNDIAL CHEMICAL LTDA                             D000000000011200000000000000000000100010010000000000000000000000F0010000006454300520141031000101 00000000000000000000000000000000000000000000000000000000000000000000000000000000000000000000000000000000000000000N 00000000000NCONT   00    00000000000          00000000000000000000000000000000000000000000 000000000000000A000000000000000000000000000000000000000000000 000000000000000000000000000000000000000     00000000                                                                                                                        000000000000000000
F0010000006454400001000080200962900011050500000000000000000201410310002001ACERO & MALLAS S.A.S.                             D000000007000000000000000000000000100010010000000000000000000000F0010000006454400120141031000101 00000000000000000000000000000000000000000000000000000000000000000000000000000000000000000000000000000000000000000N 00000000000NCONT   00    00000000000          00000000000000000000000000000000000000000000 000000000000000A000000000000000000000000000000000000000000000 000000000000000000000000000000000000000     00000000                                                                                                                        000000000000000000
F0010000006454400002000080200962900041450500000000000000000201410310002001ACERO & MALLAS S.A.S.                             C000000006000000000000000000000000100010010000000000000000000000F0010000006454400220141031000101 00000000000000000000000000000000000000000000000000000000000000000000000000000000000000000000000000000000000000000N 00000000000NCONT   00    00000000000          00000000000000000000000000000000000000000000 000000000000000A000000000000000000000000000000000000000000000 000000000000000000000000000000000000000     00000000                                                                                                                        000000000000000000
F0010000006454400003000080200962900042505000000000000000000201410310002001ACERO & MALLAS S.A.S.                             C000000001000000000000000000000000100010010000000000000000000000F0010000006454400320141031000101 00000000000000000000000000000000000000000000000000000000000000000000000000000000000000000000000000000000000000000N 00000000000NCONT   00    00000000000          00000000000000000000000000000000000000000000 000000000000000A000000000000000000000000000000000000000000000 000000000000000000000000000000000000000     00000000                                                                                                                        000000000000000000
F0010000006454400004000080200962900023658300000000000000000201410310002001ACERO & MALLAS S.A.S.                             C000000000048000000000000000000000100010010000000000000000000000F0010000006454400420141031000101 00000000000000000000000000000000000000000000000000000000000000000000000000000000000000000000000000000000000000000N 00000000000NCONT   00    00000000000          00000000000000000000000000000000000000000000 000000000000000A000000000000000000000000000000000000000000000 000000000000000000000000000000000000000     00000000                                                                                                                        000000000000000000
F0010000006454400005000080200962900013552100000000000000000201410310002001ACERO & MALLAS S.A.S.                             D000000000048000000000000000000000100010010000000000000000000000F0010000006454400520141031000101 00000000000000000000000000000000000000000000000000000000000000000000000000000000000000000000000000000000000000000N 00000000000NCONT   00    00000000000          00000000000000000000000000000000000000000000 000000000000000A000000000000000000000000000000000000000000000 000000000000000000000000000000000000000     00000000                                                                                                                        000000000000000000
