F0010000010395800001000007127017300011050500000000000000000201709230002001JUAN DIEGO ECHAVARRIA LOAIZA                      D000000004800000000000000000000000100010010000000000000000000000F0010000010395800120170923000101 00000000000000000000000000000000000000000000000000000000000000000000000000000000000000000000000000000000000000000N 00000000000NCONT   00    00000000000          00000000000000000000000000000000000000000000 000000000000000A000000000000000000000000000000000000000000000 000000000000000000000000000000000000000     00000000                                                                                                                        000000000000000000
F0010000010395800002000007127017300041450500000000000000000201709230002001JUAN DIEGO ECHAVARRIA LOAIZA                      C000000004400000000000000000000000100010010000000000000000000000F0010000010395800220170923000101 00000000000000000000000000000000000000000000000000000000000000000000000000000000000000000000000000000000000000000N 00000000000NCONT   00    00000000000          00000000000000000000000000000000000000000000 000000000000000A000000000000000000000000000000000000000000000 000000000000000000000000000000000000000     00000000                                                                                                                        000000000000000000
F0010000010395800003000007127017300042505000000000000000000201709230002001JUAN DIEGO ECHAVARRIA LOAIZA                      C000000000400000000000000000000000100010010000000000000000000000F0010000010395800320170923000101 00000000000000000000000000000000000000000000000000000000000000000000000000000000000000000000000000000000000000000N 00000000000NCONT   00    00000000000          00000000000000000000000000000000000000000000 000000000000000A000000000000000000000000000000000000000000000 000000000000000000000000000000000000000     00000000                                                                                                                        000000000000000000
F0010000010395800004000007127017300023658300000000000000000201709230002001JUAN DIEGO ECHAVARRIA LOAIZA                      C000000000000000000000000000000000100010010000000000000000000000F0010000010395800420170923000101 00000000000000000000000000000000000000000000000000000000000000000000000000000000000000000000000000000000000000000N 00000000000NCONT   00    00000000000          00000000000000000000000000000000000000000000 000000000000000A000000000000000000000000000000000000000000000 000000000000000000000000000000000000000     00000000                                                                                                                        000000000000000000
F0010000010395800005000007127017300013552100000000000000000201709230002001JUAN DIEGO ECHAVARRIA LOAIZA                      D000000000000000000000000000000000100010010000000000000000000000F0010000010395800520170923000101 00000000000000000000000000000000000000000000000000000000000000000000000000000000000000000000000000000000000000000N 00000000000NCONT   00    00000000000          00000000000000000000000000000000000000000000 000000000000000A000000000000000000000000000000000000000000000 000000000000000000000000000000000000000     00000000                                                                                                                        000000000000000000
F0010000010395900001000080202393800011050500000000000000000201709230002001DIBEL & CIA LTDA                                  D000000003000000000000000000000000100010010000000000000000000000F0010000010395900120170923000101 00000000000000000000000000000000000000000000000000000000000000000000000000000000000000000000000000000000000000000N 00000000000NCONT   00    00000000000          00000000000000000000000000000000000000000000 000000000000000A000000000000000000000000000000000000000000000 000000000000000000000000000000000000000     00000000                                                                                                                        000000000000000000
F0010000010395900002000080202393800041450500000000000000000201709230002001DIBEL & CIA LTDA                                  C000000002500000000000000000000000100010010000000000000000000000F0010000010395900220170923000101 00000000000000000000000000000000000000000000000000000000000000000000000000000000000000000000000000000000000000000N 00000000000NCONT   00    00000000000          00000000000000000000000000000000000000000000 000000000000000A000000000000000000000000000000000000000000000 000000000000000000000000000000000000000     00000000                                                                                                                        000000000000000000
F0010000010395900003000080202393800042505000000000000000000201709230002001DIBEL & CIA LTDA                                  C000000000500000000000000000000000100010010000000000000000000000F0010000010395900320170923000101 00000000000000000000000000000000000000000000000000000000000000000000000000000000000000000000000000000000000000000N 00000000000NCONT   00    00000000000          00000000000000000000000000000000000000000000 000000000000000A000000000000000000000000000000000000000000000 000000000000000000000000000000000000000     00000000                                                                                                                        000000000000000000
F0010000010395900004000080202393800023658300000000000000000201709230002001DIBEL & CIA LTDA                                  C000000000000000000000000000000000100010010000000000000000000000F0010000010395900420170923000101 00000000000000000000000000000000000000000000000000000000000000000000000000000000000000000000000000000000000000000N 00000000000NCONT   00    00000000000          00000000000000000000000000000000000000000000 000000000000000A000000000000000000000000000000000000000000000 000000000000000000000000000000000000000     00000000                                                                                                                        000000000000000000
F0010000010395900005000080202393800013552100000000000000000201709230002001DIBEL & CIA LTDA                                  D000000000000000000000000000000000100010010000000000000000000000F0010000010395900520170923000101 00000000000000000000000000000000000000000000000000000000000000000000000000000000000000000000000000000000000000000N 00000000000NCONT   00    00000000000          00000000000000000000000000000000000000000000 000000000000000A000000000000000000000000000000000000000000000 000000000000000000000000000000000000000     00000000                                                                                                                        000000000000000000
F0010000010396000001000002242960100011050500000000000000000201709230002001SOCORRO QUINTERO RINCON- ALM. HERRERA             D000000008000000000000000000000000100010010000000000000000000000F0010000010396000120170923000101 00000000000000000000000000000000000000000000000000000000000000000000000000000000000000000000000000000000000000000N 00000000000NCONT   00    00000000000          00000000000000000000000000000000000000000000 000000000000000A000000000000000000000000000000000000000000000 000000000000000000000000000000000000000     00000000                                                                                                                        000000000000000000
F0010000010396000002000002242960100041450500000000000000000201709230002001SOCORRO QUINTERO RINCON- ALM. HERRERA             C000000007800000000000000000000000100010010000000000000000000000F0010000010396000220170923000101 00000000000000000000000000000000000000000000000000000000000000000000000000000000000000000000000000000000000000000N 00000000000NCONT   00    00000000000          00000000000000000000000000000000000000000000 000000000000000A000000000000000000000000000000000000000000000 000000000000000000000000000000000000000     00000000                                                                                                                        000000000000000000
F0010000010396000003000002242960100042505000000000000000000201709230002001SOCORRO QUINTERO RINCON- ALM. HERRERA             C000000000200000000000000000000000100010010000000000000000000000F0010000010396000320170923000101 00000000000000000000000000000000000000000000000000000000000000000000000000000000000000000000000000000000000000000N 00000000000NCONT   00    00000000000          00000000000000000000000000000000000000000000 000000000000000A000000000000000000000000000000000000000000000 000000000000000000000000000000000000000     00000000                                                                                                                        000000000000000000
F0010000010396000004000002242960100023658300000000000000000201709230002001SOCORRO QUINTERO RINCON- ALM. HERRERA             C000000000000000000000000000000000100010010000000000000000000000F0010000010396000420170923000101 00000000000000000000000000000000000000000000000000000000000000000000000000000000000000000000000000000000000000000N 00000000000NCONT   00    00000000000          00000000000000000000000000000000000000000000 000000000000000A000000000000000000000000000000000000000000000 000000000000000000000000000000000000000     00000000                                                                                                                        000000000000000000
F0010000010396000005000002242960100013552100000000000000000201709230002001SOCORRO QUINTERO RINCON- ALM. HERRERA             D000000000000000000000000000000000100010010000000000000000000000F0010000010396000520170923000101 00000000000000000000000000000000000000000000000000000000000000000000000000000000000000000000000000000000000000000N 00000000000NCONT   00    00000000000          00000000000000000000000000000000000000000000 000000000000000A000000000000000000000000000000000000000000000 000000000000000000000000000000000000000     00000000                                                                                                                        000000000000000000
F0010000010396100001000007213653800011050500000000000000000201709230002001VICTOR ECHAVEZ                                    D000000004900000000000000000000000100010010000000000000000000000F0010000010396100120170923000101 00000000000000000000000000000000000000000000000000000000000000000000000000000000000000000000000000000000000000000N 00000000000NCONT   00    00000000000          00000000000000000000000000000000000000000000 000000000000000A000000000000000000000000000000000000000000000 000000000000000000000000000000000000000     00000000                                                                                                                        000000000000000000
F0010000010396100002000007213653800041450500000000000000000201709230002001VICTOR ECHAVEZ                                    C000000003900000000000000000000000100010010000000000000000000000F0010000010396100220170923000101 00000000000000000000000000000000000000000000000000000000000000000000000000000000000000000000000000000000000000000N 00000000000NCONT   00    00000000000          00000000000000000000000000000000000000000000 000000000000000A000000000000000000000000000000000000000000000 000000000000000000000000000000000000000     00000000                                                                                                                        000000000000000000
F0010000010396100003000007213653800042505000000000000000000201709230002001VICTOR ECHAVEZ                                    C000000001000000000000000000000000100010010000000000000000000000F0010000010396100320170923000101 00000000000000000000000000000000000000000000000000000000000000000000000000000000000000000000000000000000000000000N 00000000000NCONT   00    00000000000          00000000000000000000000000000000000000000000 000000000000000A000000000000000000000000000000000000000000000 000000000000000000000000000000000000000     00000000                                                                                                                        000000000000000000
F0010000010396100004000007213653800023658300000000000000000201709230002001VICTOR ECHAVEZ                                    C000000000000000000000000000000000100010010000000000000000000000F0010000010396100420170923000101 00000000000000000000000000000000000000000000000000000000000000000000000000000000000000000000000000000000000000000N 00000000000NCONT   00    00000000000          00000000000000000000000000000000000000000000 000000000000000A000000000000000000000000000000000000000000000 000000000000000000000000000000000000000     00000000                                                                                                                        000000000000000000
F0010000010396100005000007213653800013552100000000000000000201709230002001VICTOR ECHAVEZ                                    D000000000000000000000000000000000100010010000000000000000000000F0010000010396100520170923000101 00000000000000000000000000000000000000000000000000000000000000000000000000000000000000000000000000000000000000000N 00000000000NCONT   00    00000000000          00000000000000000000000000000000000000000000 000000000000000A000000000000000000000000000000000000000000000 000000000000000000000000000000000000000     00000000                                                                                                                        000000000000000000
F0010000010396200001000007200023300011050500000000000000000201709230002001WILLIAM ORTEGA                                    D000000004400000000000000000000000100010010000000000000000000000F0010000010396200120170923000101 00000000000000000000000000000000000000000000000000000000000000000000000000000000000000000000000000000000000000000N 00000000000NCONT   00    00000000000          00000000000000000000000000000000000000000000 000000000000000A000000000000000000000000000000000000000000000 000000000000000000000000000000000000000     00000000                                                                                                                        000000000000000000
F0010000010396200002000007200023300041450500000000000000000201709230002001WILLIAM ORTEGA                                    C000000003900000000000000000000000100010010000000000000000000000F0010000010396200220170923000101 00000000000000000000000000000000000000000000000000000000000000000000000000000000000000000000000000000000000000000N 00000000000NCONT   00    00000000000          00000000000000000000000000000000000000000000 000000000000000A000000000000000000000000000000000000000000000 000000000000000000000000000000000000000     00000000                                                                                                                        000000000000000000
F0010000010396200003000007200023300042505000000000000000000201709230002001WILLIAM ORTEGA                                    C000000000500000000000000000000000100010010000000000000000000000F0010000010396200320170923000101 00000000000000000000000000000000000000000000000000000000000000000000000000000000000000000000000000000000000000000N 00000000000NCONT   00    00000000000          00000000000000000000000000000000000000000000 000000000000000A000000000000000000000000000000000000000000000 000000000000000000000000000000000000000     00000000                                                                                                                        000000000000000000
F0010000010396200004000007200023300023658300000000000000000201709230002001WILLIAM ORTEGA                                    C000000000000000000000000000000000100010010000000000000000000000F0010000010396200420170923000101 00000000000000000000000000000000000000000000000000000000000000000000000000000000000000000000000000000000000000000N 00000000000NCONT   00    00000000000          00000000000000000000000000000000000000000000 000000000000000A000000000000000000000000000000000000000000000 000000000000000000000000000000000000000     00000000                                                                                                                        000000000000000000
F0010000010396200005000007200023300013552100000000000000000201709230002001WILLIAM ORTEGA                                    D000000000000000000000000000000000100010010000000000000000000000F0010000010396200520170923000101 00000000000000000000000000000000000000000000000000000000000000000000000000000000000000000000000000000000000000000N 00000000000NCONT   00    00000000000          00000000000000000000000000000000000000000000 000000000000000A000000000000000000000000000000000000000000000 000000000000000000000000000000000000000     00000000                                                                                                                        000000000000000000
F0010000010396300001000007200023300011050500000000000000000201709230002001WILLIAM ORTEGA                                    D000000004500000000000000000000000100010010000000000000000000000F0010000010396300120170923000101 00000000000000000000000000000000000000000000000000000000000000000000000000000000000000000000000000000000000000000N 00000000000NCONT   00    00000000000          00000000000000000000000000000000000000000000 000000000000000A000000000000000000000000000000000000000000000 000000000000000000000000000000000000000     00000000                                                                                                                        000000000000000000
F0010000010396300002000007200023300041450500000000000000000201709230002001WILLIAM ORTEGA                                    C000000003900000000000000000000000100010010000000000000000000000F0010000010396300220170923000101 00000000000000000000000000000000000000000000000000000000000000000000000000000000000000000000000000000000000000000N 00000000000NCONT   00    00000000000          00000000000000000000000000000000000000000000 000000000000000A000000000000000000000000000000000000000000000 000000000000000000000000000000000000000     00000000                                                                                                                        000000000000000000
F0010000010396300003000007200023300042505000000000000000000201709230002001WILLIAM ORTEGA                                    C000000000600000000000000000000000100010010000000000000000000000F0010000010396300320170923000101 00000000000000000000000000000000000000000000000000000000000000000000000000000000000000000000000000000000000000000N 00000000000NCONT   00    00000000000          00000000000000000000000000000000000000000000 000000000000000A000000000000000000000000000000000000000000000 000000000000000000000000000000000000000     00000000                                                                                                                        000000000000000000
F0010000010396300004000007200023300023658300000000000000000201709230002001WILLIAM ORTEGA                                    C000000000000000000000000000000000100010010000000000000000000000F0010000010396300420170923000101 00000000000000000000000000000000000000000000000000000000000000000000000000000000000000000000000000000000000000000N 00000000000NCONT   00    00000000000          00000000000000000000000000000000000000000000 000000000000000A000000000000000000000000000000000000000000000 000000000000000000000000000000000000000     00000000                                                                                                                        000000000000000000
F0010000010396300005000007200023300013552100000000000000000201709230002001WILLIAM ORTEGA                                    D000000000000000000000000000000000100010010000000000000000000000F0010000010396300520170923000101 00000000000000000000000000000000000000000000000000000000000000000000000000000000000000000000000000000000000000000N 00000000000NCONT   00    00000000000          00000000000000000000000000000000000000000000 000000000000000A000000000000000000000000000000000000000000000 000000000000000000000000000000000000000     00000000                                                                                                                        000000000000000000
F0010000010396400001000001022529300011050500000000000000000201709230002001ALBERTO ALVAREZ ISAZA                             D000000000880000000000000000000000100010010000000000000000000000F0010000010396400120170923000101 00000000000000000000000000000000000000000000000000000000000000000000000000000000000000000000000000000000000000000N 00000000000NCONT   00    00000000000          00000000000000000000000000000000000000000000 000000000000000A000000000000000000000000000000000000000000000 000000000000000000000000000000000000000     00000000                                                                                                                        000000000000000000
F0010000010396400002000001022529300041450500000000000000000201709230002001ALBERTO ALVAREZ ISAZA                             C000000000880000000000000000000000100010010000000000000000000000F0010000010396400220170923000101 00000000000000000000000000000000000000000000000000000000000000000000000000000000000000000000000000000000000000000N 00000000000NCONT   00    00000000000          00000000000000000000000000000000000000000000 000000000000000A000000000000000000000000000000000000000000000 000000000000000000000000000000000000000     00000000                                                                                                                        000000000000000000
F0010000010396400003000001022529300042505000000000000000000201709230002001ALBERTO ALVAREZ ISAZA                             C000000000000000000000000000000000100010010000000000000000000000F0010000010396400320170923000101 00000000000000000000000000000000000000000000000000000000000000000000000000000000000000000000000000000000000000000N 00000000000NCONT   00    00000000000          00000000000000000000000000000000000000000000 000000000000000A000000000000000000000000000000000000000000000 000000000000000000000000000000000000000     00000000                                                                                                                        000000000000000000
F0010000010396400004000001022529300023658300000000000000000201709230002001ALBERTO ALVAREZ ISAZA                             C000000000000000000000000000000000100010010000000000000000000000F0010000010396400420170923000101 00000000000000000000000000000000000000000000000000000000000000000000000000000000000000000000000000000000000000000N 00000000000NCONT   00    00000000000          00000000000000000000000000000000000000000000 000000000000000A000000000000000000000000000000000000000000000 000000000000000000000000000000000000000     00000000                                                                                                                        000000000000000000
F0010000010396400005000001022529300013552100000000000000000201709230002001ALBERTO ALVAREZ ISAZA                             D000000000000000000000000000000000100010010000000000000000000000F0010000010396400520170923000101 00000000000000000000000000000000000000000000000000000000000000000000000000000000000000000000000000000000000000000N 00000000000NCONT   00    00000000000          00000000000000000000000000000000000000000000 000000000000000A000000000000000000000000000000000000000000000 000000000000000000000000000000000000000     00000000                                                                                                                        000000000000000000
F0010000010396500001000090064337300011050500000000000000000201709230002001DISCOMERCIAL TEXTIL DEL CARIBE SAS                D000000024180000000000000000000000100010010000000000000000000000F0010000010396500120170923000101 00000000000000000000000000000000000000000000000000000000000000000000000000000000000000000000000000000000000000000N 00000000000NCONT   00    00000000000          00000000000000000000000000000000000000000000 000000000000000A000000000000000000000000000000000000000000000 000000000000000000000000000000000000000     00000000                                                                                                                        000000000000000000
F0010000010396500002000090064337300041450500000000000000000201709230002001DISCOMERCIAL TEXTIL DEL CARIBE SAS                C000000021780000000000000000000000100010010000000000000000000000F0010000010396500220170923000101 00000000000000000000000000000000000000000000000000000000000000000000000000000000000000000000000000000000000000000N 00000000000NCONT   00    00000000000          00000000000000000000000000000000000000000000 000000000000000A000000000000000000000000000000000000000000000 000000000000000000000000000000000000000     00000000                                                                                                                        000000000000000000
F0010000010396500003000090064337300042505000000000000000000201709230002001DISCOMERCIAL TEXTIL DEL CARIBE SAS                C000000002400000000000000000000000100010010000000000000000000000F0010000010396500320170923000101 00000000000000000000000000000000000000000000000000000000000000000000000000000000000000000000000000000000000000000N 00000000000NCONT   00    00000000000          00000000000000000000000000000000000000000000 000000000000000A000000000000000000000000000000000000000000000 000000000000000000000000000000000000000     00000000                                                                                                                        000000000000000000
F0010000010396500004000090064337300023658300000000000000000201709230002001DISCOMERCIAL TEXTIL DEL CARIBE SAS                C000000000000000000000000000000000100010010000000000000000000000F0010000010396500420170923000101 00000000000000000000000000000000000000000000000000000000000000000000000000000000000000000000000000000000000000000N 00000000000NCONT   00    00000000000          00000000000000000000000000000000000000000000 000000000000000A000000000000000000000000000000000000000000000 000000000000000000000000000000000000000     00000000                                                                                                                        000000000000000000
F0010000010396500005000090064337300013552100000000000000000201709230002001DISCOMERCIAL TEXTIL DEL CARIBE SAS                D000000000000000000000000000000000100010010000000000000000000000F0010000010396500520170923000101 00000000000000000000000000000000000000000000000000000000000000000000000000000000000000000000000000000000000000000N 00000000000NCONT   00    00000000000          00000000000000000000000000000000000000000000 000000000000000A000000000000000000000000000000000000000000000 000000000000000000000000000000000000000     00000000                                                                                                                        000000000000000000
F0010000010396600001000000431178400011050500000000000000000201709230002001EFRAIN ALVAREZ                                    D000000003080000000000000000000000100010010000000000000000000000F0010000010396600120170923000101 00000000000000000000000000000000000000000000000000000000000000000000000000000000000000000000000000000000000000000N 00000000000NCONT   00    00000000000          00000000000000000000000000000000000000000000 000000000000000A000000000000000000000000000000000000000000000 000000000000000000000000000000000000000     00000000                                                                                                                        000000000000000000
F0010000010396600002000000431178400041450500000000000000000201709230002001EFRAIN ALVAREZ                                    C000000002680000000000000000000000100010010000000000000000000000F0010000010396600220170923000101 00000000000000000000000000000000000000000000000000000000000000000000000000000000000000000000000000000000000000000N 00000000000NCONT   00    00000000000          00000000000000000000000000000000000000000000 000000000000000A000000000000000000000000000000000000000000000 000000000000000000000000000000000000000     00000000                                                                                                                        000000000000000000
F0010000010396600003000000431178400042505000000000000000000201709230002001EFRAIN ALVAREZ                                    C000000000400000000000000000000000100010010000000000000000000000F0010000010396600320170923000101 00000000000000000000000000000000000000000000000000000000000000000000000000000000000000000000000000000000000000000N 00000000000NCONT   00    00000000000          00000000000000000000000000000000000000000000 000000000000000A000000000000000000000000000000000000000000000 000000000000000000000000000000000000000     00000000                                                                                                                        000000000000000000
F0010000010396600004000000431178400023658300000000000000000201709230002001EFRAIN ALVAREZ                                    C000000000000000000000000000000000100010010000000000000000000000F0010000010396600420170923000101 00000000000000000000000000000000000000000000000000000000000000000000000000000000000000000000000000000000000000000N 00000000000NCONT   00    00000000000          00000000000000000000000000000000000000000000 000000000000000A000000000000000000000000000000000000000000000 000000000000000000000000000000000000000     00000000                                                                                                                        000000000000000000
F0010000010396600005000000431178400013552100000000000000000201709230002001EFRAIN ALVAREZ                                    D000000000000000000000000000000000100010010000000000000000000000F0010000010396600520170923000101 00000000000000000000000000000000000000000000000000000000000000000000000000000000000000000000000000000000000000000N 00000000000NCONT   00    00000000000          00000000000000000000000000000000000000000000 000000000000000A000000000000000000000000000000000000000000000 000000000000000000000000000000000000000     00000000                                                                                                                        000000000000000000
F0010000010396700001000000431178400011050500000000000000000201709230002001EFRAIN ALVAREZ                                    D000000003060000000000000000000000100010010000000000000000000000F0010000010396700120170923000101 00000000000000000000000000000000000000000000000000000000000000000000000000000000000000000000000000000000000000000N 00000000000NCONT   00    00000000000          00000000000000000000000000000000000000000000 000000000000000A000000000000000000000000000000000000000000000 000000000000000000000000000000000000000     00000000                                                                                                                        000000000000000000
F0010000010396700002000000431178400041450500000000000000000201709230002001EFRAIN ALVAREZ                                    C000000002910000000000000000000000100010010000000000000000000000F0010000010396700220170923000101 00000000000000000000000000000000000000000000000000000000000000000000000000000000000000000000000000000000000000000N 00000000000NCONT   00    00000000000          00000000000000000000000000000000000000000000 000000000000000A000000000000000000000000000000000000000000000 000000000000000000000000000000000000000     00000000                                                                                                                        000000000000000000
F0010000010396700003000000431178400042505000000000000000000201709230002001EFRAIN ALVAREZ                                    C000000000150000000000000000000000100010010000000000000000000000F0010000010396700320170923000101 00000000000000000000000000000000000000000000000000000000000000000000000000000000000000000000000000000000000000000N 00000000000NCONT   00    00000000000          00000000000000000000000000000000000000000000 000000000000000A000000000000000000000000000000000000000000000 000000000000000000000000000000000000000     00000000                                                                                                                        000000000000000000
F0010000010396700004000000431178400023658300000000000000000201709230002001EFRAIN ALVAREZ                                    C000000000000000000000000000000000100010010000000000000000000000F0010000010396700420170923000101 00000000000000000000000000000000000000000000000000000000000000000000000000000000000000000000000000000000000000000N 00000000000NCONT   00    00000000000          00000000000000000000000000000000000000000000 000000000000000A000000000000000000000000000000000000000000000 000000000000000000000000000000000000000     00000000                                                                                                                        000000000000000000
F0010000010396700005000000431178400013552100000000000000000201709230002001EFRAIN ALVAREZ                                    D000000000000000000000000000000000100010010000000000000000000000F0010000010396700520170923000101 00000000000000000000000000000000000000000000000000000000000000000000000000000000000000000000000000000000000000000N 00000000000NCONT   00    00000000000          00000000000000000000000000000000000000000000 000000000000000A000000000000000000000000000000000000000000000 000000000000000000000000000000000000000     00000000                                                                                                                        000000000000000000
F0010000010396800001000090031375000011050500000000000000000201709230002001FRANCO Y FRANCO ASOCIADOS S.A.S. / LA CASA DEL FABD000000002600000000000000000000000100010010000000000000000000000F0010000010396800120170923000101 00000000000000000000000000000000000000000000000000000000000000000000000000000000000000000000000000000000000000000N 00000000000NCONT   00    00000000000          00000000000000000000000000000000000000000000 000000000000000A000000000000000000000000000000000000000000000 000000000000000000000000000000000000000     00000000                                                                                                                        000000000000000000
F0010000010396800002000090031375000041450500000000000000000201709230002001FRANCO Y FRANCO ASOCIADOS S.A.S. / LA CASA DEL FABC000000001800000000000000000000000100010010000000000000000000000F0010000010396800220170923000101 00000000000000000000000000000000000000000000000000000000000000000000000000000000000000000000000000000000000000000N 00000000000NCONT   00    00000000000          00000000000000000000000000000000000000000000 000000000000000A000000000000000000000000000000000000000000000 000000000000000000000000000000000000000     00000000                                                                                                                        000000000000000000
F0010000010396800003000090031375000042505000000000000000000201709230002001FRANCO Y FRANCO ASOCIADOS S.A.S. / LA CASA DEL FABC000000000800000000000000000000000100010010000000000000000000000F0010000010396800320170923000101 00000000000000000000000000000000000000000000000000000000000000000000000000000000000000000000000000000000000000000N 00000000000NCONT   00    00000000000          00000000000000000000000000000000000000000000 000000000000000A000000000000000000000000000000000000000000000 000000000000000000000000000000000000000     00000000                                                                                                                        000000000000000000
F0010000010396800004000090031375000023658300000000000000000201709230002001FRANCO Y FRANCO ASOCIADOS S.A.S. / LA CASA DEL FABC000000000000000000000000000000000100010010000000000000000000000F0010000010396800420170923000101 00000000000000000000000000000000000000000000000000000000000000000000000000000000000000000000000000000000000000000N 00000000000NCONT   00    00000000000          00000000000000000000000000000000000000000000 000000000000000A000000000000000000000000000000000000000000000 000000000000000000000000000000000000000     00000000                                                                                                                        000000000000000000
F0010000010396800005000090031375000013552100000000000000000201709230002001FRANCO Y FRANCO ASOCIADOS S.A.S. / LA CASA DEL FABD000000000000000000000000000000000100010010000000000000000000000F0010000010396800520170923000101 00000000000000000000000000000000000000000000000000000000000000000000000000000000000000000000000000000000000000000N 00000000000NCONT   00    00000000000          00000000000000000000000000000000000000000000 000000000000000A000000000000000000000000000000000000000000000 000000000000000000000000000000000000000     00000000                                                                                                                        000000000000000000
F0010000010396900001000090031375000011050500000000000000000201709230002001FRANCO Y FRANCO ASOCIADOS S.A.S. / LA CASA DEL FABD000000006500000000000000000000000100010010000000000000000000000F0010000010396900120170923000101 00000000000000000000000000000000000000000000000000000000000000000000000000000000000000000000000000000000000000000N 00000000000NCONT   00    00000000000          00000000000000000000000000000000000000000000 000000000000000A000000000000000000000000000000000000000000000 000000000000000000000000000000000000000     00000000                                                                                                                        000000000000000000
F0010000010396900002000090031375000041450500000000000000000201709230002001FRANCO Y FRANCO ASOCIADOS S.A.S. / LA CASA DEL FABC000000004500000000000000000000000100010010000000000000000000000F0010000010396900220170923000101 00000000000000000000000000000000000000000000000000000000000000000000000000000000000000000000000000000000000000000N 00000000000NCONT   00    00000000000          00000000000000000000000000000000000000000000 000000000000000A000000000000000000000000000000000000000000000 000000000000000000000000000000000000000     00000000                                                                                                                        000000000000000000
F0010000010396900003000090031375000042505000000000000000000201709230002001FRANCO Y FRANCO ASOCIADOS S.A.S. / LA CASA DEL FABC000000002000000000000000000000000100010010000000000000000000000F0010000010396900320170923000101 00000000000000000000000000000000000000000000000000000000000000000000000000000000000000000000000000000000000000000N 00000000000NCONT   00    00000000000          00000000000000000000000000000000000000000000 000000000000000A000000000000000000000000000000000000000000000 000000000000000000000000000000000000000     00000000                                                                                                                        000000000000000000
F0010000010396900004000090031375000023658300000000000000000201709230002001FRANCO Y FRANCO ASOCIADOS S.A.S. / LA CASA DEL FABC000000000000000000000000000000000100010010000000000000000000000F0010000010396900420170923000101 00000000000000000000000000000000000000000000000000000000000000000000000000000000000000000000000000000000000000000N 00000000000NCONT   00    00000000000          00000000000000000000000000000000000000000000 000000000000000A000000000000000000000000000000000000000000000 000000000000000000000000000000000000000     00000000                                                                                                                        000000000000000000
F0010000010396900005000090031375000013552100000000000000000201709230002001FRANCO Y FRANCO ASOCIADOS S.A.S. / LA CASA DEL FABD000000000000000000000000000000000100010010000000000000000000000F0010000010396900520170923000101 00000000000000000000000000000000000000000000000000000000000000000000000000000000000000000000000000000000000000000N 00000000000NCONT   00    00000000000          00000000000000000000000000000000000000000000 000000000000000A000000000000000000000000000000000000000000000 000000000000000000000000000000000000000     00000000                                                                                                                        000000000000000000
F0010000010397000001000007225511500011050500000000000000000201709230002001MIGUEL ABRAHAAM CHADID ARANGUREN                  D000000001745000000000000000000000100010010000000000000000000000F0010000010397000120170923000101 00000000000000000000000000000000000000000000000000000000000000000000000000000000000000000000000000000000000000000N 00000000000NCONT   00    00000000000          00000000000000000000000000000000000000000000 000000000000000A000000000000000000000000000000000000000000000 000000000000000000000000000000000000000     00000000                                                                                                                        000000000000000000
F0010000010397000002000007225511500041450500000000000000000201709230002001MIGUEL ABRAHAAM CHADID ARANGUREN                  C000000001300000000000000000000000100010010000000000000000000000F0010000010397000220170923000101 00000000000000000000000000000000000000000000000000000000000000000000000000000000000000000000000000000000000000000N 00000000000NCONT   00    00000000000          00000000000000000000000000000000000000000000 000000000000000A000000000000000000000000000000000000000000000 000000000000000000000000000000000000000     00000000                                                                                                                        000000000000000000
F0010000010397000003000007225511500042505000000000000000000201709230002001MIGUEL ABRAHAAM CHADID ARANGUREN                  C000000000445000000000000000000000100010010000000000000000000000F0010000010397000320170923000101 00000000000000000000000000000000000000000000000000000000000000000000000000000000000000000000000000000000000000000N 00000000000NCONT   00    00000000000          00000000000000000000000000000000000000000000 000000000000000A000000000000000000000000000000000000000000000 000000000000000000000000000000000000000     00000000                                                                                                                        000000000000000000
F0010000010397000004000007225511500023658300000000000000000201709230002001MIGUEL ABRAHAAM CHADID ARANGUREN                  C000000000000000000000000000000000100010010000000000000000000000F0010000010397000420170923000101 00000000000000000000000000000000000000000000000000000000000000000000000000000000000000000000000000000000000000000N 00000000000NCONT   00    00000000000          00000000000000000000000000000000000000000000 000000000000000A000000000000000000000000000000000000000000000 000000000000000000000000000000000000000     00000000                                                                                                                        000000000000000000
F0010000010397000005000007225511500013552100000000000000000201709230002001MIGUEL ABRAHAAM CHADID ARANGUREN                  D000000000000000000000000000000000100010010000000000000000000000F0010000010397000520170923000101 00000000000000000000000000000000000000000000000000000000000000000000000000000000000000000000000000000000000000000N 00000000000NCONT   00    00000000000          00000000000000000000000000000000000000000000 000000000000000A000000000000000000000000000000000000000000000 000000000000000000000000000000000000000     00000000                                                                                                                        000000000000000000
F0010000010397100001000111246580400011050500000000000000000201709230002001DANIEL ALEJANDRO GALLO GOMEZ / MEGA 5000          D000000001400000000000000000000000100010010000000000000000000000F0010000010397100120170923000101 00000000000000000000000000000000000000000000000000000000000000000000000000000000000000000000000000000000000000000N 00000000000NCONT   00    00000000000          00000000000000000000000000000000000000000000 000000000000000A000000000000000000000000000000000000000000000 000000000000000000000000000000000000000     00000000                                                                                                                        000000000000000000
F0010000010397100002000111246580400041450500000000000000000201709230002001DANIEL ALEJANDRO GALLO GOMEZ / MEGA 5000          C000000001100000000000000000000000100010010000000000000000000000F0010000010397100220170923000101 00000000000000000000000000000000000000000000000000000000000000000000000000000000000000000000000000000000000000000N 00000000000NCONT   00    00000000000          00000000000000000000000000000000000000000000 000000000000000A000000000000000000000000000000000000000000000 000000000000000000000000000000000000000     00000000                                                                                                                        000000000000000000
F0010000010397100003000111246580400042505000000000000000000201709230002001DANIEL ALEJANDRO GALLO GOMEZ / MEGA 5000          C000000000300000000000000000000000100010010000000000000000000000F0010000010397100320170923000101 00000000000000000000000000000000000000000000000000000000000000000000000000000000000000000000000000000000000000000N 00000000000NCONT   00    00000000000          00000000000000000000000000000000000000000000 000000000000000A000000000000000000000000000000000000000000000 000000000000000000000000000000000000000     00000000                                                                                                                        000000000000000000
F0010000010397100004000111246580400023658300000000000000000201709230002001DANIEL ALEJANDRO GALLO GOMEZ / MEGA 5000          C000000000000000000000000000000000100010010000000000000000000000F0010000010397100420170923000101 00000000000000000000000000000000000000000000000000000000000000000000000000000000000000000000000000000000000000000N 00000000000NCONT   00    00000000000          00000000000000000000000000000000000000000000 000000000000000A000000000000000000000000000000000000000000000 000000000000000000000000000000000000000     00000000                                                                                                                        000000000000000000
F0010000010397100005000111246580400013552100000000000000000201709230002001DANIEL ALEJANDRO GALLO GOMEZ / MEGA 5000          D000000000000000000000000000000000100010010000000000000000000000F0010000010397100520170923000101 00000000000000000000000000000000000000000000000000000000000000000000000000000000000000000000000000000000000000000N 00000000000NCONT   00    00000000000          00000000000000000000000000000000000000000000 000000000000000A000000000000000000000000000000000000000000000 000000000000000000000000000000000000000     00000000                                                                                                                        000000000000000000
F0010000010397200001000090108746700011050500000000000000000201709230002001CACHARRERIA PAESA                                 D000000001550000000000000000000000100010010000000000000000000000F0010000010397200120170923000101 00000000000000000000000000000000000000000000000000000000000000000000000000000000000000000000000000000000000000000N 00000000000NCONT   00    00000000000          00000000000000000000000000000000000000000000 000000000000000A000000000000000000000000000000000000000000000 000000000000000000000000000000000000000     00000000                                                                                                                        000000000000000000
F0010000010397200002000090108746700041450500000000000000000201709230002001CACHARRERIA PAESA                                 C000000001300000000000000000000000100010010000000000000000000000F0010000010397200220170923000101 00000000000000000000000000000000000000000000000000000000000000000000000000000000000000000000000000000000000000000N 00000000000NCONT   00    00000000000          00000000000000000000000000000000000000000000 000000000000000A000000000000000000000000000000000000000000000 000000000000000000000000000000000000000     00000000                                                                                                                        000000000000000000
F0010000010397200003000090108746700042505000000000000000000201709230002001CACHARRERIA PAESA                                 C000000000250000000000000000000000100010010000000000000000000000F0010000010397200320170923000101 00000000000000000000000000000000000000000000000000000000000000000000000000000000000000000000000000000000000000000N 00000000000NCONT   00    00000000000          00000000000000000000000000000000000000000000 000000000000000A000000000000000000000000000000000000000000000 000000000000000000000000000000000000000     00000000                                                                                                                        000000000000000000
F0010000010397200004000090108746700023658300000000000000000201709230002001CACHARRERIA PAESA                                 C000000000000000000000000000000000100010010000000000000000000000F0010000010397200420170923000101 00000000000000000000000000000000000000000000000000000000000000000000000000000000000000000000000000000000000000000N 00000000000NCONT   00    00000000000          00000000000000000000000000000000000000000000 000000000000000A000000000000000000000000000000000000000000000 000000000000000000000000000000000000000     00000000                                                                                                                        000000000000000000
F0010000010397200005000090108746700013552100000000000000000201709230002001CACHARRERIA PAESA                                 D000000000000000000000000000000000100010010000000000000000000000F0010000010397200520170923000101 00000000000000000000000000000000000000000000000000000000000000000000000000000000000000000000000000000000000000000N 00000000000NCONT   00    00000000000          00000000000000000000000000000000000000000000 000000000000000A000000000000000000000000000000000000000000000 000000000000000000000000000000000000000     00000000                                                                                                                        000000000000000000
F0010000010397300001000090098897000011050500000000000000000201709230002001IMPORTACIONES Y DISTRIBUCIONES JE SAS             D000000015600000000000000000000000100010010000000000000000000000F0010000010397300120170923000101 00000000000000000000000000000000000000000000000000000000000000000000000000000000000000000000000000000000000000000N 00000000000NCONT   00    00000000000          00000000000000000000000000000000000000000000 000000000000000A000000000000000000000000000000000000000000000 000000000000000000000000000000000000000     00000000                                                                                                                        000000000000000000
F0010000010397300002000090098897000041450500000000000000000201709230002001IMPORTACIONES Y DISTRIBUCIONES JE SAS             C000000013600000000000000000000000100010010000000000000000000000F0010000010397300220170923000101 00000000000000000000000000000000000000000000000000000000000000000000000000000000000000000000000000000000000000000N 00000000000NCONT   00    00000000000          00000000000000000000000000000000000000000000 000000000000000A000000000000000000000000000000000000000000000 000000000000000000000000000000000000000     00000000                                                                                                                        000000000000000000
F0010000010397300003000090098897000042505000000000000000000201709230002001IMPORTACIONES Y DISTRIBUCIONES JE SAS             C000000002000000000000000000000000100010010000000000000000000000F0010000010397300320170923000101 00000000000000000000000000000000000000000000000000000000000000000000000000000000000000000000000000000000000000000N 00000000000NCONT   00    00000000000          00000000000000000000000000000000000000000000 000000000000000A000000000000000000000000000000000000000000000 000000000000000000000000000000000000000     00000000                                                                                                                        000000000000000000
F0010000010397300004000090098897000023658300000000000000000201709230002001IMPORTACIONES Y DISTRIBUCIONES JE SAS             C000000000000000000000000000000000100010010000000000000000000000F0010000010397300420170923000101 00000000000000000000000000000000000000000000000000000000000000000000000000000000000000000000000000000000000000000N 00000000000NCONT   00    00000000000          00000000000000000000000000000000000000000000 000000000000000A000000000000000000000000000000000000000000000 000000000000000000000000000000000000000     00000000                                                                                                                        000000000000000000
F0010000010397300005000090098897000013552100000000000000000201709230002001IMPORTACIONES Y DISTRIBUCIONES JE SAS             D000000000000000000000000000000000100010010000000000000000000000F0010000010397300520170923000101 00000000000000000000000000000000000000000000000000000000000000000000000000000000000000000000000000000000000000000N 00000000000NCONT   00    00000000000          00000000000000000000000000000000000000000000 000000000000000A000000000000000000000000000000000000000000000 000000000000000000000000000000000000000     00000000                                                                                                                        000000000000000000
F0010000010397400001000080202350700011050500000000000000000201709230002001CONNY DE LA COSTA SAS                             D000000002800000000000000000000000100010010000000000000000000000F0010000010397400120170923000101 00000000000000000000000000000000000000000000000000000000000000000000000000000000000000000000000000000000000000000N 00000000000NCONT   00    00000000000          00000000000000000000000000000000000000000000 000000000000000A000000000000000000000000000000000000000000000 000000000000000000000000000000000000000     00000000                                                                                                                        000000000000000000
F0010000010397400002000080202350700041450500000000000000000201709230002001CONNY DE LA COSTA SAS                             C000000002700000000000000000000000100010010000000000000000000000F0010000010397400220170923000101 00000000000000000000000000000000000000000000000000000000000000000000000000000000000000000000000000000000000000000N 00000000000NCONT   00    00000000000          00000000000000000000000000000000000000000000 000000000000000A000000000000000000000000000000000000000000000 000000000000000000000000000000000000000     00000000                                                                                                                        000000000000000000
F0010000010397400003000080202350700042505000000000000000000201709230002001CONNY DE LA COSTA SAS                             C000000000100000000000000000000000100010010000000000000000000000F0010000010397400320170923000101 00000000000000000000000000000000000000000000000000000000000000000000000000000000000000000000000000000000000000000N 00000000000NCONT   00    00000000000          00000000000000000000000000000000000000000000 000000000000000A000000000000000000000000000000000000000000000 000000000000000000000000000000000000000     00000000                                                                                                                        000000000000000000
F0010000010397400004000080202350700023658300000000000000000201709230002001CONNY DE LA COSTA SAS                             C000000000000000000000000000000000100010010000000000000000000000F0010000010397400420170923000101 00000000000000000000000000000000000000000000000000000000000000000000000000000000000000000000000000000000000000000N 00000000000NCONT   00    00000000000          00000000000000000000000000000000000000000000 000000000000000A000000000000000000000000000000000000000000000 000000000000000000000000000000000000000     00000000                                                                                                                        000000000000000000
F0010000010397400005000080202350700013552100000000000000000201709230002001CONNY DE LA COSTA SAS                             D000000000000000000000000000000000100010010000000000000000000000F0010000010397400520170923000101 00000000000000000000000000000000000000000000000000000000000000000000000000000000000000000000000000000000000000000N 00000000000NCONT   00    00000000000          00000000000000000000000000000000000000000000 000000000000000A000000000000000000000000000000000000000000000 000000000000000000000000000000000000000     00000000                                                                                                                        000000000000000000
F0010000010397500001000090098897000011050500000000000000000201709230002001IMPORTACIONES Y DISTRIBUCIONES JE SAS             D000000007960000000000000000000000100010010000000000000000000000F0010000010397500120170923000101 00000000000000000000000000000000000000000000000000000000000000000000000000000000000000000000000000000000000000000N 00000000000NCONT   00    00000000000          00000000000000000000000000000000000000000000 000000000000000A000000000000000000000000000000000000000000000 000000000000000000000000000000000000000     00000000                                                                                                                        000000000000000000
F0010000010397500002000090098897000041450500000000000000000201709230002001IMPORTACIONES Y DISTRIBUCIONES JE SAS             C000000006960000000000000000000000100010010000000000000000000000F0010000010397500220170923000101 00000000000000000000000000000000000000000000000000000000000000000000000000000000000000000000000000000000000000000N 00000000000NCONT   00    00000000000          00000000000000000000000000000000000000000000 000000000000000A000000000000000000000000000000000000000000000 000000000000000000000000000000000000000     00000000                                                                                                                        000000000000000000
F0010000010397500003000090098897000042505000000000000000000201709230002001IMPORTACIONES Y DISTRIBUCIONES JE SAS             C000000001000000000000000000000000100010010000000000000000000000F0010000010397500320170923000101 00000000000000000000000000000000000000000000000000000000000000000000000000000000000000000000000000000000000000000N 00000000000NCONT   00    00000000000          00000000000000000000000000000000000000000000 000000000000000A000000000000000000000000000000000000000000000 000000000000000000000000000000000000000     00000000                                                                                                                        000000000000000000
F0010000010397500004000090098897000023658300000000000000000201709230002001IMPORTACIONES Y DISTRIBUCIONES JE SAS             C000000000000000000000000000000000100010010000000000000000000000F0010000010397500420170923000101 00000000000000000000000000000000000000000000000000000000000000000000000000000000000000000000000000000000000000000N 00000000000NCONT   00    00000000000          00000000000000000000000000000000000000000000 000000000000000A000000000000000000000000000000000000000000000 000000000000000000000000000000000000000     00000000                                                                                                                        000000000000000000
F0010000010397500005000090098897000013552100000000000000000201709230002001IMPORTACIONES Y DISTRIBUCIONES JE SAS             D000000000000000000000000000000000100010010000000000000000000000F0010000010397500520170923000101 00000000000000000000000000000000000000000000000000000000000000000000000000000000000000000000000000000000000000000N 00000000000NCONT   00    00000000000          00000000000000000000000000000000000000000000 000000000000000A000000000000000000000000000000000000000000000 000000000000000000000000000000000000000     00000000                                                                                                                        000000000000000000
F0010000010397600001000090098897000011050500000000000000000201709230002001IMPORTACIONES Y DISTRIBUCIONES JE SAS             D000000013460000000000000000000000100010010000000000000000000000F0010000010397600120170923000101 00000000000000000000000000000000000000000000000000000000000000000000000000000000000000000000000000000000000000000N 00000000000NCONT   00    00000000000          00000000000000000000000000000000000000000000 000000000000000A000000000000000000000000000000000000000000000 000000000000000000000000000000000000000     00000000                                                                                                                        000000000000000000
F0010000010397600002000090098897000041450500000000000000000201709230002001IMPORTACIONES Y DISTRIBUCIONES JE SAS             C000000010960000000000000000000000100010010000000000000000000000F0010000010397600220170923000101 00000000000000000000000000000000000000000000000000000000000000000000000000000000000000000000000000000000000000000N 00000000000NCONT   00    00000000000          00000000000000000000000000000000000000000000 000000000000000A000000000000000000000000000000000000000000000 000000000000000000000000000000000000000     00000000                                                                                                                        000000000000000000
F0010000010397600003000090098897000042505000000000000000000201709230002001IMPORTACIONES Y DISTRIBUCIONES JE SAS             C000000002500000000000000000000000100010010000000000000000000000F0010000010397600320170923000101 00000000000000000000000000000000000000000000000000000000000000000000000000000000000000000000000000000000000000000N 00000000000NCONT   00    00000000000          00000000000000000000000000000000000000000000 000000000000000A000000000000000000000000000000000000000000000 000000000000000000000000000000000000000     00000000                                                                                                                        000000000000000000
F0010000010397600004000090098897000023658300000000000000000201709230002001IMPORTACIONES Y DISTRIBUCIONES JE SAS             C000000000000000000000000000000000100010010000000000000000000000F0010000010397600420170923000101 00000000000000000000000000000000000000000000000000000000000000000000000000000000000000000000000000000000000000000N 00000000000NCONT   00    00000000000          00000000000000000000000000000000000000000000 000000000000000A000000000000000000000000000000000000000000000 000000000000000000000000000000000000000     00000000                                                                                                                        000000000000000000
F0010000010397600005000090098897000013552100000000000000000201709230002001IMPORTACIONES Y DISTRIBUCIONES JE SAS             D000000000000000000000000000000000100010010000000000000000000000F0010000010397600520170923000101 00000000000000000000000000000000000000000000000000000000000000000000000000000000000000000000000000000000000000000N 00000000000NCONT   00    00000000000          00000000000000000000000000000000000000000000 000000000000000A000000000000000000000000000000000000000000000 000000000000000000000000000000000000000     00000000                                                                                                                        000000000000000000
F0010000010397700001000080202350700011050500000000000000000201709230002001CONNY DE LA COSTA SAS                             D000000002800000000000000000000000100010010000000000000000000000F0010000010397700120170923000101 00000000000000000000000000000000000000000000000000000000000000000000000000000000000000000000000000000000000000000N 00000000000NCONT   00    00000000000          00000000000000000000000000000000000000000000 000000000000000A000000000000000000000000000000000000000000000 000000000000000000000000000000000000000     00000000                                                                                                                        000000000000000000
F0010000010397700002000080202350700041450500000000000000000201709230002001CONNY DE LA COSTA SAS                             C000000002700000000000000000000000100010010000000000000000000000F0010000010397700220170923000101 00000000000000000000000000000000000000000000000000000000000000000000000000000000000000000000000000000000000000000N 00000000000NCONT   00    00000000000          00000000000000000000000000000000000000000000 000000000000000A000000000000000000000000000000000000000000000 000000000000000000000000000000000000000     00000000                                                                                                                        000000000000000000
F0010000010397700003000080202350700042505000000000000000000201709230002001CONNY DE LA COSTA SAS                             C000000000100000000000000000000000100010010000000000000000000000F0010000010397700320170923000101 00000000000000000000000000000000000000000000000000000000000000000000000000000000000000000000000000000000000000000N 00000000000NCONT   00    00000000000          00000000000000000000000000000000000000000000 000000000000000A000000000000000000000000000000000000000000000 000000000000000000000000000000000000000     00000000                                                                                                                        000000000000000000
F0010000010397700004000080202350700023658300000000000000000201709230002001CONNY DE LA COSTA SAS                             C000000000000000000000000000000000100010010000000000000000000000F0010000010397700420170923000101 00000000000000000000000000000000000000000000000000000000000000000000000000000000000000000000000000000000000000000N 00000000000NCONT   00    00000000000          00000000000000000000000000000000000000000000 000000000000000A000000000000000000000000000000000000000000000 000000000000000000000000000000000000000     00000000                                                                                                                        000000000000000000
F0010000010397700005000080202350700013552100000000000000000201709230002001CONNY DE LA COSTA SAS                             D000000000000000000000000000000000100010010000000000000000000000F0010000010397700520170923000101 00000000000000000000000000000000000000000000000000000000000000000000000000000000000000000000000000000000000000000N 00000000000NCONT   00    00000000000          00000000000000000000000000000000000000000000 000000000000000A000000000000000000000000000000000000000000000 000000000000000000000000000000000000000     00000000                                                                                                                        000000000000000000
F0010000010397800001000090098897000011050500000000000000000201709230002001IMPORTACIONES Y DISTRIBUCIONES JE SAS             D000000024160000000000000000000000100010010000000000000000000000F0010000010397800120170923000101 00000000000000000000000000000000000000000000000000000000000000000000000000000000000000000000000000000000000000000N 00000000000NCONT   00    00000000000          00000000000000000000000000000000000000000000 000000000000000A000000000000000000000000000000000000000000000 000000000000000000000000000000000000000     00000000                                                                                                                        000000000000000000
F0010000010397800002000090098897000041450500000000000000000201709230002001IMPORTACIONES Y DISTRIBUCIONES JE SAS             C000000022160000000000000000000000100010010000000000000000000000F0010000010397800220170923000101 00000000000000000000000000000000000000000000000000000000000000000000000000000000000000000000000000000000000000000N 00000000000NCONT   00    00000000000          00000000000000000000000000000000000000000000 000000000000000A000000000000000000000000000000000000000000000 000000000000000000000000000000000000000     00000000                                                                                                                        000000000000000000
F0010000010397800003000090098897000042505000000000000000000201709230002001IMPORTACIONES Y DISTRIBUCIONES JE SAS             C000000002000000000000000000000000100010010000000000000000000000F0010000010397800320170923000101 00000000000000000000000000000000000000000000000000000000000000000000000000000000000000000000000000000000000000000N 00000000000NCONT   00    00000000000          00000000000000000000000000000000000000000000 000000000000000A000000000000000000000000000000000000000000000 000000000000000000000000000000000000000     00000000                                                                                                                        000000000000000000
F0010000010397800004000090098897000023658300000000000000000201709230002001IMPORTACIONES Y DISTRIBUCIONES JE SAS             C000000000000000000000000000000000100010010000000000000000000000F0010000010397800420170923000101 00000000000000000000000000000000000000000000000000000000000000000000000000000000000000000000000000000000000000000N 00000000000NCONT   00    00000000000          00000000000000000000000000000000000000000000 000000000000000A000000000000000000000000000000000000000000000 000000000000000000000000000000000000000     00000000                                                                                                                        000000000000000000
F0010000010397800005000090098897000013552100000000000000000201709230002001IMPORTACIONES Y DISTRIBUCIONES JE SAS             D000000000000000000000000000000000100010010000000000000000000000F0010000010397800520170923000101 00000000000000000000000000000000000000000000000000000000000000000000000000000000000000000000000000000000000000000N 00000000000NCONT   00    00000000000          00000000000000000000000000000000000000000000 000000000000000A000000000000000000000000000000000000000000000 000000000000000000000000000000000000000     00000000                                                                                                                        000000000000000000
