F0010000007814500001000007950771100011050500000000000000000201510280002001GERMAN GONZALEZ BOHORQUEZ                         D000000001100000000000000000000000100010010000000000000000000000F0010000007814500120151028000101 00000000000000000000000000000000000000000000000000000000000000000000000000000000000000000000000000000000000000000N 00000000000NCONT   00    00000000000          00000000000000000000000000000000000000000000 000000000000000A000000000000000000000000000000000000000000000 000000000000000000000000000000000000000     00000000                                                                                                                        000000000000000000
F0010000007814500002000007950771100041450500000000000000000201510280002001GERMAN GONZALEZ BOHORQUEZ                         C000000000900000000000000000000000100010010000000000000000000000F0010000007814500220151028000101 00000000000000000000000000000000000000000000000000000000000000000000000000000000000000000000000000000000000000000N 00000000000NCONT   00    00000000000          00000000000000000000000000000000000000000000 000000000000000A000000000000000000000000000000000000000000000 000000000000000000000000000000000000000     00000000                                                                                                                        000000000000000000
F0010000007814500003000007950771100042505000000000000000000201510280002001GERMAN GONZALEZ BOHORQUEZ                         C000000000200000000000000000000000100010010000000000000000000000F0010000007814500320151028000101 00000000000000000000000000000000000000000000000000000000000000000000000000000000000000000000000000000000000000000N 00000000000NCONT   00    00000000000          00000000000000000000000000000000000000000000 000000000000000A000000000000000000000000000000000000000000000 000000000000000000000000000000000000000     00000000                                                                                                                        000000000000000000
F0010000007814500004000007950771100023658300000000000000000201510280002001GERMAN GONZALEZ BOHORQUEZ                         C000000000007200000000000000000000100010010000000000000000000000F0010000007814500420151028000101 00000000000000000000000000000000000000000000000000000000000000000000000000000000000000000000000000000000000000000N 00000000000NCONT   00    00000000000          00000000000000000000000000000000000000000000 000000000000000A000000000000000000000000000000000000000000000 000000000000000000000000000000000000000     00000000                                                                                                                        000000000000000000
F0010000007814500005000007950771100013552100000000000000000201510280002001GERMAN GONZALEZ BOHORQUEZ                         D000000000007200000000000000000000100010010000000000000000000000F0010000007814500520151028000101 00000000000000000000000000000000000000000000000000000000000000000000000000000000000000000000000000000000000000000N 00000000000NCONT   00    00000000000          00000000000000000000000000000000000000000000 000000000000000A000000000000000000000000000000000000000000000 000000000000000000000000000000000000000     00000000                                                                                                                        000000000000000000
F0010000007814600001000007309616500011050500000000000000000201510280002001ALVARO HERBALES GONZALEZ                          D000000001500000000000000000000000100010010000000000000000000000F0010000007814600120151028000101 00000000000000000000000000000000000000000000000000000000000000000000000000000000000000000000000000000000000000000N 00000000000NCONT   00    00000000000          00000000000000000000000000000000000000000000 000000000000000A000000000000000000000000000000000000000000000 000000000000000000000000000000000000000     00000000                                                                                                                        000000000000000000
F0010000007814600002000007309616500041450500000000000000000201510280002001ALVARO HERBALES GONZALEZ                          C000000001400000000000000000000000100010010000000000000000000000F0010000007814600220151028000101 00000000000000000000000000000000000000000000000000000000000000000000000000000000000000000000000000000000000000000N 00000000000NCONT   00    00000000000          00000000000000000000000000000000000000000000 000000000000000A000000000000000000000000000000000000000000000 000000000000000000000000000000000000000     00000000                                                                                                                        000000000000000000
F0010000007814600003000007309616500042505000000000000000000201510280002001ALVARO HERBALES GONZALEZ                          C000000000100000000000000000000000100010010000000000000000000000F0010000007814600320151028000101 00000000000000000000000000000000000000000000000000000000000000000000000000000000000000000000000000000000000000000N 00000000000NCONT   00    00000000000          00000000000000000000000000000000000000000000 000000000000000A000000000000000000000000000000000000000000000 000000000000000000000000000000000000000     00000000                                                                                                                        000000000000000000
F0010000007814600004000007309616500023658300000000000000000201510280002001ALVARO HERBALES GONZALEZ                          C000000000011200000000000000000000100010010000000000000000000000F0010000007814600420151028000101 00000000000000000000000000000000000000000000000000000000000000000000000000000000000000000000000000000000000000000N 00000000000NCONT   00    00000000000          00000000000000000000000000000000000000000000 000000000000000A000000000000000000000000000000000000000000000 000000000000000000000000000000000000000     00000000                                                                                                                        000000000000000000
F0010000007814600005000007309616500013552100000000000000000201510280002001ALVARO HERBALES GONZALEZ                          D000000000011200000000000000000000100010010000000000000000000000F0010000007814600520151028000101 00000000000000000000000000000000000000000000000000000000000000000000000000000000000000000000000000000000000000000N 00000000000NCONT   00    00000000000          00000000000000000000000000000000000000000000 000000000000000A000000000000000000000000000000000000000000000 000000000000000000000000000000000000000     00000000                                                                                                                        000000000000000000
F0010000007814700001000000745762500011050500000000000000000201510280002001DISTRIBUCIONES VICTORIA                           D000000001400000000000000000000000100010010000000000000000000000F0010000007814700120151028000101 00000000000000000000000000000000000000000000000000000000000000000000000000000000000000000000000000000000000000000N 00000000000NCONT   00    00000000000          00000000000000000000000000000000000000000000 000000000000000A000000000000000000000000000000000000000000000 000000000000000000000000000000000000000     00000000                                                                                                                        000000000000000000
F0010000007814700002000000745762500041450500000000000000000201510280002001DISTRIBUCIONES VICTORIA                           C000000001300000000000000000000000100010010000000000000000000000F0010000007814700220151028000101 00000000000000000000000000000000000000000000000000000000000000000000000000000000000000000000000000000000000000000N 00000000000NCONT   00    00000000000          00000000000000000000000000000000000000000000 000000000000000A000000000000000000000000000000000000000000000 000000000000000000000000000000000000000     00000000                                                                                                                        000000000000000000
F0010000007814700003000000745762500042505000000000000000000201510280002001DISTRIBUCIONES VICTORIA                           C000000000100000000000000000000000100010010000000000000000000000F0010000007814700320151028000101 00000000000000000000000000000000000000000000000000000000000000000000000000000000000000000000000000000000000000000N 00000000000NCONT   00    00000000000          00000000000000000000000000000000000000000000 000000000000000A000000000000000000000000000000000000000000000 000000000000000000000000000000000000000     00000000                                                                                                                        000000000000000000
F0010000007814700004000000745762500023658300000000000000000201510280002001DISTRIBUCIONES VICTORIA                           C000000000010400000000000000000000100010010000000000000000000000F0010000007814700420151028000101 00000000000000000000000000000000000000000000000000000000000000000000000000000000000000000000000000000000000000000N 00000000000NCONT   00    00000000000          00000000000000000000000000000000000000000000 000000000000000A000000000000000000000000000000000000000000000 000000000000000000000000000000000000000     00000000                                                                                                                        000000000000000000
F0010000007814700005000000745762500013552100000000000000000201510280002001DISTRIBUCIONES VICTORIA                           D000000000010400000000000000000000100010010000000000000000000000F0010000007814700520151028000101 00000000000000000000000000000000000000000000000000000000000000000000000000000000000000000000000000000000000000000N 00000000000NCONT   00    00000000000          00000000000000000000000000000000000000000000 000000000000000A000000000000000000000000000000000000000000000 000000000000000000000000000000000000000     00000000                                                                                                                        000000000000000000
F0010000007814800001000080004943800013050500000000000000000201510280002001PAPELERIA EL CID S.A.                             D000000038900000000000000000000000100010010000000000000000000000F0010000007814800120151028000101 00000000000000000000000000000000000000000000000000000000000000000000000000000000000000000000000000000000000000000N 00000000000NCONT   00    00000000000          00000000000000000000000000000000000000000000 000000000000000A000000000000000000000000000000000000000000000 000000000000000000000000000000000000000     00000000                                                                                                                        000000000000000000
F0010000007814800002000080004943800041450500000000000000000201510280002001PAPELERIA EL CID S.A.                             C000000027257500000000000000000000100010010000000000000000000000F0010000007814800220151028000101 00000000000000000000000000000000000000000000000000000000000000000000000000000000000000000000000000000000000000000N 00000000000NCONT   00    00000000000          00000000000000000000000000000000000000000000 000000000000000A000000000000000000000000000000000000000000000 000000000000000000000000000000000000000     00000000                                                                                                                        000000000000000000
F0010000007814800003000080004943800042505000000000000000000201510280002001PAPELERIA EL CID S.A.                             C000000011642500000000000000000000100010010000000000000000000000F0010000007814800320151028000101 00000000000000000000000000000000000000000000000000000000000000000000000000000000000000000000000000000000000000000N 00000000000NCONT   00    00000000000          00000000000000000000000000000000000000000000 000000000000000A000000000000000000000000000000000000000000000 000000000000000000000000000000000000000     00000000                                                                                                                        000000000000000000
F0010000007814800004000080004943800023658300000000000000000201510280002001PAPELERIA EL CID S.A.                             C000000000218100000000000000000000100010010000000000000000000000F0010000007814800420151028000101 00000000000000000000000000000000000000000000000000000000000000000000000000000000000000000000000000000000000000000N 00000000000NCONT   00    00000000000          00000000000000000000000000000000000000000000 000000000000000A000000000000000000000000000000000000000000000 000000000000000000000000000000000000000     00000000                                                                                                                        000000000000000000
F0010000007814800005000080004943800013552100000000000000000201510280002001PAPELERIA EL CID S.A.                             D000000000218100000000000000000000100010010000000000000000000000F0010000007814800520151028000101 00000000000000000000000000000000000000000000000000000000000000000000000000000000000000000000000000000000000000000N 00000000000NCONT   00    00000000000          00000000000000000000000000000000000000000000 000000000000000A000000000000000000000000000000000000000000000 000000000000000000000000000000000000000     00000000                                                                                                                        000000000000000000
F0010000007814900001000090059316900013050500000000000000000201510280002001DISTRIBUCIONES Y REPRESENTACIONES MANA            D000000023918600000000000000000000100010010000000000000000000000F0010000007814900120151028000101 00000000000000000000000000000000000000000000000000000000000000000000000000000000000000000000000000000000000000000N 00000000000NCONT   00    00000000000          00000000000000000000000000000000000000000000 000000000000000A000000000000000000000000000000000000000000000 000000000000000000000000000000000000000     00000000                                                                                                                        000000000000000000
F0010000007814900002000090059316900041450500000000000000000201510280002001DISTRIBUCIONES Y REPRESENTACIONES MANA            C000000019570000000000000000000000100010010000000000000000000000F0010000007814900220151028000101 00000000000000000000000000000000000000000000000000000000000000000000000000000000000000000000000000000000000000000N 00000000000NCONT   00    00000000000          00000000000000000000000000000000000000000000 000000000000000A000000000000000000000000000000000000000000000 000000000000000000000000000000000000000     00000000                                                                                                                        000000000000000000
F0010000007814900003000090059316900042505000000000000000000201510280002001DISTRIBUCIONES Y REPRESENTACIONES MANA            C000000004348600000000000000000000100010010000000000000000000000F0010000007814900320151028000101 00000000000000000000000000000000000000000000000000000000000000000000000000000000000000000000000000000000000000000N 00000000000NCONT   00    00000000000          00000000000000000000000000000000000000000000 000000000000000A000000000000000000000000000000000000000000000 000000000000000000000000000000000000000     00000000                                                                                                                        000000000000000000
F0010000007814900004000090059316900023658300000000000000000201510280002001DISTRIBUCIONES Y REPRESENTACIONES MANA            C000000000156600000000000000000000100010010000000000000000000000F0010000007814900420151028000101 00000000000000000000000000000000000000000000000000000000000000000000000000000000000000000000000000000000000000000N 00000000000NCONT   00    00000000000          00000000000000000000000000000000000000000000 000000000000000A000000000000000000000000000000000000000000000 000000000000000000000000000000000000000     00000000                                                                                                                        000000000000000000
F0010000007814900005000090059316900013552100000000000000000201510280002001DISTRIBUCIONES Y REPRESENTACIONES MANA            D000000000156600000000000000000000100010010000000000000000000000F0010000007814900520151028000101 00000000000000000000000000000000000000000000000000000000000000000000000000000000000000000000000000000000000000000N 00000000000NCONT   00    00000000000          00000000000000000000000000000000000000000000 000000000000000A000000000000000000000000000000000000000000000 000000000000000000000000000000000000000     00000000                                                                                                                        000000000000000000
F0010000007815000001000080200069100013050500000000000000000201510280002001PEGANTES Y PINTURAS ATLAS LTDA                    D000000015198200000000000000000000100010010000000000000000000000F0010000007815000120151028000101 00000000000000000000000000000000000000000000000000000000000000000000000000000000000000000000000000000000000000000N 00000000000NCONT   00    00000000000          00000000000000000000000000000000000000000000 000000000000000A000000000000000000000000000000000000000000000 000000000000000000000000000000000000000     00000000                                                                                                                        000000000000000000
F0010000007815000002000080200069100041450500000000000000000201510280002001PEGANTES Y PINTURAS ATLAS LTDA                    C000000013000000000000000000000000100010010000000000000000000000F0010000007815000220151028000101 00000000000000000000000000000000000000000000000000000000000000000000000000000000000000000000000000000000000000000N 00000000000NCONT   00    00000000000          00000000000000000000000000000000000000000000 000000000000000A000000000000000000000000000000000000000000000 000000000000000000000000000000000000000     00000000                                                                                                                        000000000000000000
F0010000007815000003000080200069100042505000000000000000000201510280002001PEGANTES Y PINTURAS ATLAS LTDA                    C000000002198200000000000000000000100010010000000000000000000000F0010000007815000320151028000101 00000000000000000000000000000000000000000000000000000000000000000000000000000000000000000000000000000000000000000N 00000000000NCONT   00    00000000000          00000000000000000000000000000000000000000000 000000000000000A000000000000000000000000000000000000000000000 000000000000000000000000000000000000000     00000000                                                                                                                        000000000000000000
F0010000007815000004000080200069100023658300000000000000000201510280002001PEGANTES Y PINTURAS ATLAS LTDA                    C000000000104000000000000000000000100010010000000000000000000000F0010000007815000420151028000101 00000000000000000000000000000000000000000000000000000000000000000000000000000000000000000000000000000000000000000N 00000000000NCONT   00    00000000000          00000000000000000000000000000000000000000000 000000000000000A000000000000000000000000000000000000000000000 000000000000000000000000000000000000000     00000000                                                                                                                        000000000000000000
F0010000007815000005000080200069100013552100000000000000000201510280002001PEGANTES Y PINTURAS ATLAS LTDA                    D000000000104000000000000000000000100010010000000000000000000000F0010000007815000520151028000101 00000000000000000000000000000000000000000000000000000000000000000000000000000000000000000000000000000000000000000N 00000000000NCONT   00    00000000000          00000000000000000000000000000000000000000000 000000000000000A000000000000000000000000000000000000000000000 000000000000000000000000000000000000000     00000000                                                                                                                        000000000000000000
F0010000007815100001000090064982900013050500000000000000000201510280002001DISDIES S.A.S                                     D000000029439900000000000000000000100010010000000000000000000000F0010000007815100120151028000101 00000000000000000000000000000000000000000000000000000000000000000000000000000000000000000000000000000000000000000N 00000000000NCONT   00    00000000000          00000000000000000000000000000000000000000000 000000000000000A000000000000000000000000000000000000000000000 000000000000000000000000000000000000000     00000000                                                                                                                        000000000000000000
F0010000007815100002000090064982900041450500000000000000000201510280002001DISDIES S.A.S                                     C000000027315400000000000000000000100010010000000000000000000000F0010000007815100220151028000101 00000000000000000000000000000000000000000000000000000000000000000000000000000000000000000000000000000000000000000N 00000000000NCONT   00    00000000000          00000000000000000000000000000000000000000000 000000000000000A000000000000000000000000000000000000000000000 000000000000000000000000000000000000000     00000000                                                                                                                        000000000000000000
F0010000007815100003000090064982900042505000000000000000000201510280002001DISDIES S.A.S                                     C000000002124500000000000000000000100010010000000000000000000000F0010000007815100320151028000101 00000000000000000000000000000000000000000000000000000000000000000000000000000000000000000000000000000000000000000N 00000000000NCONT   00    00000000000          00000000000000000000000000000000000000000000 000000000000000A000000000000000000000000000000000000000000000 000000000000000000000000000000000000000     00000000                                                                                                                        000000000000000000
F0010000007815100004000090064982900023658300000000000000000201510280002001DISDIES S.A.S                                     C000000000218500000000000000000000100010010000000000000000000000F0010000007815100420151028000101 00000000000000000000000000000000000000000000000000000000000000000000000000000000000000000000000000000000000000000N 00000000000NCONT   00    00000000000          00000000000000000000000000000000000000000000 000000000000000A000000000000000000000000000000000000000000000 000000000000000000000000000000000000000     00000000                                                                                                                        000000000000000000
F0010000007815100005000090064982900013552100000000000000000201510280002001DISDIES S.A.S                                     D000000000218500000000000000000000100010010000000000000000000000F0010000007815100520151028000101 00000000000000000000000000000000000000000000000000000000000000000000000000000000000000000000000000000000000000000N 00000000000NCONT   00    00000000000          00000000000000000000000000000000000000000000 000000000000000A000000000000000000000000000000000000000000000 000000000000000000000000000000000000000     00000000                                                                                                                        000000000000000000
F0010000007815200001000080002300200013050500000000000000000201510280002001DISREL S.A.                                       D000000017050000000000000000000000100010010000000000000000000000F0010000007815200120151028000101 00000000000000000000000000000000000000000000000000000000000000000000000000000000000000000000000000000000000000000N 00000000000NCONT   00    00000000000          00000000000000000000000000000000000000000000 000000000000000A000000000000000000000000000000000000000000000 000000000000000000000000000000000000000     00000000                                                                                                                        000000000000000000
F0010000007815200002000080002300200041450500000000000000000201510280002001DISREL S.A.                                       C000000013200000000000000000000000100010010000000000000000000000F0010000007815200220151028000101 00000000000000000000000000000000000000000000000000000000000000000000000000000000000000000000000000000000000000000N 00000000000NCONT   00    00000000000          00000000000000000000000000000000000000000000 000000000000000A000000000000000000000000000000000000000000000 000000000000000000000000000000000000000     00000000                                                                                                                        000000000000000000
F0010000007815200003000080002300200042505000000000000000000201510280002001DISREL S.A.                                       C000000003850000000000000000000000100010010000000000000000000000F0010000007815200320151028000101 00000000000000000000000000000000000000000000000000000000000000000000000000000000000000000000000000000000000000000N 00000000000NCONT   00    00000000000          00000000000000000000000000000000000000000000 000000000000000A000000000000000000000000000000000000000000000 000000000000000000000000000000000000000     00000000                                                                                                                        000000000000000000
F0010000007815200004000080002300200023658300000000000000000201510280002001DISREL S.A.                                       C000000000105600000000000000000000100010010000000000000000000000F0010000007815200420151028000101 00000000000000000000000000000000000000000000000000000000000000000000000000000000000000000000000000000000000000000N 00000000000NCONT   00    00000000000          00000000000000000000000000000000000000000000 000000000000000A000000000000000000000000000000000000000000000 000000000000000000000000000000000000000     00000000                                                                                                                        000000000000000000
F0010000007815200005000080002300200013552100000000000000000201510280002001DISREL S.A.                                       D000000000105600000000000000000000100010010000000000000000000000F0010000007815200520151028000101 00000000000000000000000000000000000000000000000000000000000000000000000000000000000000000000000000000000000000000N 00000000000NCONT   00    00000000000          00000000000000000000000000000000000000000000 000000000000000A000000000000000000000000000000000000000000000 000000000000000000000000000000000000000     00000000                                                                                                                        000000000000000000
F0010000007815300001000080016664500013050500000000000000000201510280002001TELAPLAS PANCER SAS                               D000000028313000000000000000000000100010010000000000000000000000F0010000007815300120151028000101 00000000000000000000000000000000000000000000000000000000000000000000000000000000000000000000000000000000000000000N 00000000000NCONT   00    00000000000          00000000000000000000000000000000000000000000 000000000000000A000000000000000000000000000000000000000000000 000000000000000000000000000000000000000     00000000                                                                                                                        000000000000000000
F0010000007815300002000080016664500041450500000000000000000201510280002001TELAPLAS PANCER SAS                               C000000022350000000000000000000000100010010000000000000000000000F0010000007815300220151028000101 00000000000000000000000000000000000000000000000000000000000000000000000000000000000000000000000000000000000000000N 00000000000NCONT   00    00000000000          00000000000000000000000000000000000000000000 000000000000000A000000000000000000000000000000000000000000000 000000000000000000000000000000000000000     00000000                                                                                                                        000000000000000000
F0010000007815300003000080016664500042505000000000000000000201510280002001TELAPLAS PANCER SAS                               C000000005963000000000000000000000100010010000000000000000000000F0010000007815300320151028000101 00000000000000000000000000000000000000000000000000000000000000000000000000000000000000000000000000000000000000000N 00000000000NCONT   00    00000000000          00000000000000000000000000000000000000000000 000000000000000A000000000000000000000000000000000000000000000 000000000000000000000000000000000000000     00000000                                                                                                                        000000000000000000
F0010000007815300004000080016664500023658300000000000000000201510280002001TELAPLAS PANCER SAS                               C000000000178800000000000000000000100010010000000000000000000000F0010000007815300420151028000101 00000000000000000000000000000000000000000000000000000000000000000000000000000000000000000000000000000000000000000N 00000000000NCONT   00    00000000000          00000000000000000000000000000000000000000000 000000000000000A000000000000000000000000000000000000000000000 000000000000000000000000000000000000000     00000000                                                                                                                        000000000000000000
F0010000007815300005000080016664500013552100000000000000000201510280002001TELAPLAS PANCER SAS                               D000000000178800000000000000000000100010010000000000000000000000F0010000007815300520151028000101 00000000000000000000000000000000000000000000000000000000000000000000000000000000000000000000000000000000000000000N 00000000000NCONT   00    00000000000          00000000000000000000000000000000000000000000 000000000000000A000000000000000000000000000000000000000000000 000000000000000000000000000000000000000     00000000                                                                                                                        000000000000000000
F0010000007815400001000090008711200013050500000000000000000201510280002001PACKAGING SUPPLIERS S.A.                          D000000055318300000000000000000000100010010000000000000000000000F0010000007815400120151028000101 00000000000000000000000000000000000000000000000000000000000000000000000000000000000000000000000000000000000000000N 00000000000NCONT   00    00000000000          00000000000000000000000000000000000000000000 000000000000000A000000000000000000000000000000000000000000000 000000000000000000000000000000000000000     00000000                                                                                                                        000000000000000000
F0010000007815400002000090008711200041450500000000000000000201510280002001PACKAGING SUPPLIERS S.A.                          C000000051653300000000000000000000100010010000000000000000000000F0010000007815400220151028000101 00000000000000000000000000000000000000000000000000000000000000000000000000000000000000000000000000000000000000000N 00000000000NCONT   00    00000000000          00000000000000000000000000000000000000000000 000000000000000A000000000000000000000000000000000000000000000 000000000000000000000000000000000000000     00000000                                                                                                                        000000000000000000
F0010000007815400003000090008711200042505000000000000000000201510280002001PACKAGING SUPPLIERS S.A.                          C000000003665000000000000000000000100010010000000000000000000000F0010000007815400320151028000101 00000000000000000000000000000000000000000000000000000000000000000000000000000000000000000000000000000000000000000N 00000000000NCONT   00    00000000000          00000000000000000000000000000000000000000000 000000000000000A000000000000000000000000000000000000000000000 000000000000000000000000000000000000000     00000000                                                                                                                        000000000000000000
F0010000007815400004000090008711200023658300000000000000000201510280002001PACKAGING SUPPLIERS S.A.                          C000000000413200000000000000000000100010010000000000000000000000F0010000007815400420151028000101 00000000000000000000000000000000000000000000000000000000000000000000000000000000000000000000000000000000000000000N 00000000000NCONT   00    00000000000          00000000000000000000000000000000000000000000 000000000000000A000000000000000000000000000000000000000000000 000000000000000000000000000000000000000     00000000                                                                                                                        000000000000000000
F0010000007815400005000090008711200013552100000000000000000201510280002001PACKAGING SUPPLIERS S.A.                          D000000000413200000000000000000000100010010000000000000000000000F0010000007815400520151028000101 00000000000000000000000000000000000000000000000000000000000000000000000000000000000000000000000000000000000000000N 00000000000NCONT   00    00000000000          00000000000000000000000000000000000000000000 000000000000000A000000000000000000000000000000000000000000000 000000000000000000000000000000000000000     00000000                                                                                                                        000000000000000000
F0010000007815500001000090054716100013050500000000000000000201510280002001IMPORTVAL SAS                                     D000000016500000000000000000000000100010010000000000000000000000F0010000007815500120151028000101 00000000000000000000000000000000000000000000000000000000000000000000000000000000000000000000000000000000000000000N 00000000000NCONT   00    00000000000          00000000000000000000000000000000000000000000 000000000000000A000000000000000000000000000000000000000000000 000000000000000000000000000000000000000     00000000                                                                                                                        000000000000000000
F0010000007815500002000090054716100041450500000000000000000201510280002001IMPORTVAL SAS                                     C000000015000000000000000000000000100010010000000000000000000000F0010000007815500220151028000101 00000000000000000000000000000000000000000000000000000000000000000000000000000000000000000000000000000000000000000N 00000000000NCONT   00    00000000000          00000000000000000000000000000000000000000000 000000000000000A000000000000000000000000000000000000000000000 000000000000000000000000000000000000000     00000000                                                                                                                        000000000000000000
F0010000007815500003000090054716100042505000000000000000000201510280002001IMPORTVAL SAS                                     C000000001500000000000000000000000100010010000000000000000000000F0010000007815500320151028000101 00000000000000000000000000000000000000000000000000000000000000000000000000000000000000000000000000000000000000000N 00000000000NCONT   00    00000000000          00000000000000000000000000000000000000000000 000000000000000A000000000000000000000000000000000000000000000 000000000000000000000000000000000000000     00000000                                                                                                                        000000000000000000
F0010000007815500004000090054716100023658300000000000000000201510280002001IMPORTVAL SAS                                     C000000000120000000000000000000000100010010000000000000000000000F0010000007815500420151028000101 00000000000000000000000000000000000000000000000000000000000000000000000000000000000000000000000000000000000000000N 00000000000NCONT   00    00000000000          00000000000000000000000000000000000000000000 000000000000000A000000000000000000000000000000000000000000000 000000000000000000000000000000000000000     00000000                                                                                                                        000000000000000000
F0010000007815500005000090054716100013552100000000000000000201510280002001IMPORTVAL SAS                                     D000000000120000000000000000000000100010010000000000000000000000F0010000007815500520151028000101 00000000000000000000000000000000000000000000000000000000000000000000000000000000000000000000000000000000000000000N 00000000000NCONT   00    00000000000          00000000000000000000000000000000000000000000 000000000000000A000000000000000000000000000000000000000000000 000000000000000000000000000000000000000     00000000                                                                                                                        000000000000000000
F0010000007815600001000000748239700013050500000000000000000201510280002001RAFAEL NAVARRO URIBE                              D000000055563900000000000000000000100010010000000000000000000000F0010000007815600120151028000101 00000000000000000000000000000000000000000000000000000000000000000000000000000000000000000000000000000000000000000N 00000000000NCONT   00    00000000000          00000000000000000000000000000000000000000000 000000000000000A000000000000000000000000000000000000000000000 000000000000000000000000000000000000000     00000000                                                                                                                        000000000000000000
F0010000007815600002000000748239700041450500000000000000000201510280002001RAFAEL NAVARRO URIBE                              C000000038300000000000000000000000100010010000000000000000000000F0010000007815600220151028000101 00000000000000000000000000000000000000000000000000000000000000000000000000000000000000000000000000000000000000000N 00000000000NCONT   00    00000000000          00000000000000000000000000000000000000000000 000000000000000A000000000000000000000000000000000000000000000 000000000000000000000000000000000000000     00000000                                                                                                                        000000000000000000
F0010000007815600003000000748239700042505000000000000000000201510280002001RAFAEL NAVARRO URIBE                              C000000017263900000000000000000000100010010000000000000000000000F0010000007815600320151028000101 00000000000000000000000000000000000000000000000000000000000000000000000000000000000000000000000000000000000000000N 00000000000NCONT   00    00000000000          00000000000000000000000000000000000000000000 000000000000000A000000000000000000000000000000000000000000000 000000000000000000000000000000000000000     00000000                                                                                                                        000000000000000000
F0010000007815600004000000748239700023658300000000000000000201510280002001RAFAEL NAVARRO URIBE                              C000000000306400000000000000000000100010010000000000000000000000F0010000007815600420151028000101 00000000000000000000000000000000000000000000000000000000000000000000000000000000000000000000000000000000000000000N 00000000000NCONT   00    00000000000          00000000000000000000000000000000000000000000 000000000000000A000000000000000000000000000000000000000000000 000000000000000000000000000000000000000     00000000                                                                                                                        000000000000000000
F0010000007815600005000000748239700013552100000000000000000201510280002001RAFAEL NAVARRO URIBE                              D000000000306400000000000000000000100010010000000000000000000000F0010000007815600520151028000101 00000000000000000000000000000000000000000000000000000000000000000000000000000000000000000000000000000000000000000N 00000000000NCONT   00    00000000000          00000000000000000000000000000000000000000000 000000000000000A000000000000000000000000000000000000000000000 000000000000000000000000000000000000000     00000000                                                                                                                        000000000000000000
F0010000007815700001000080200962900013050500000000000000000201510280002001ACERO & MALLAS S.A.S.                             D000000005340000000000000000000000100010010000000000000000000000F0010000007815700120151028000101 00000000000000000000000000000000000000000000000000000000000000000000000000000000000000000000000000000000000000000N 00000000000NCONT   00    00000000000          00000000000000000000000000000000000000000000 000000000000000A000000000000000000000000000000000000000000000 000000000000000000000000000000000000000     00000000                                                                                                                        000000000000000000
F0010000007815700002000080200962900041450500000000000000000201510280002001ACERO & MALLAS S.A.S.                             C000000004840000000000000000000000100010010000000000000000000000F0010000007815700220151028000101 00000000000000000000000000000000000000000000000000000000000000000000000000000000000000000000000000000000000000000N 00000000000NCONT   00    00000000000          00000000000000000000000000000000000000000000 000000000000000A000000000000000000000000000000000000000000000 000000000000000000000000000000000000000     00000000                                                                                                                        000000000000000000
F0010000007815700003000080200962900042505000000000000000000201510280002001ACERO & MALLAS S.A.S.                             C000000000500000000000000000000000100010010000000000000000000000F0010000007815700320151028000101 00000000000000000000000000000000000000000000000000000000000000000000000000000000000000000000000000000000000000000N 00000000000NCONT   00    00000000000          00000000000000000000000000000000000000000000 000000000000000A000000000000000000000000000000000000000000000 000000000000000000000000000000000000000     00000000                                                                                                                        000000000000000000
F0010000007815700004000080200962900023658300000000000000000201510280002001ACERO & MALLAS S.A.S.                             C000000000038700000000000000000000100010010000000000000000000000F0010000007815700420151028000101 00000000000000000000000000000000000000000000000000000000000000000000000000000000000000000000000000000000000000000N 00000000000NCONT   00    00000000000          00000000000000000000000000000000000000000000 000000000000000A000000000000000000000000000000000000000000000 000000000000000000000000000000000000000     00000000                                                                                                                        000000000000000000
F0010000007815700005000080200962900013552100000000000000000201510280002001ACERO & MALLAS S.A.S.                             D000000000038700000000000000000000100010010000000000000000000000F0010000007815700520151028000101 00000000000000000000000000000000000000000000000000000000000000000000000000000000000000000000000000000000000000000N 00000000000NCONT   00    00000000000          00000000000000000000000000000000000000000000 000000000000000A000000000000000000000000000000000000000000000 000000000000000000000000000000000000000     00000000                                                                                                                        000000000000000000
F0010000007815800001000080202094000013050500000000000000000201510280002001DISTRIB. OMAR ORREGO S.A.                         D000000065862300000000000000000000100010010000000000000000000000F0010000007815800120151028000101 00000000000000000000000000000000000000000000000000000000000000000000000000000000000000000000000000000000000000000N 00000000000NCONT   00    00000000000          00000000000000000000000000000000000000000000 000000000000000A000000000000000000000000000000000000000000000 000000000000000000000000000000000000000     00000000                                                                                                                        000000000000000000
F0010000007815800002000080202094000041450500000000000000000201510280002001DISTRIB. OMAR ORREGO S.A.                         C000000038730000000000000000000000100010010000000000000000000000F0010000007815800220151028000101 00000000000000000000000000000000000000000000000000000000000000000000000000000000000000000000000000000000000000000N 00000000000NCONT   00    00000000000          00000000000000000000000000000000000000000000 000000000000000A000000000000000000000000000000000000000000000 000000000000000000000000000000000000000     00000000                                                                                                                        000000000000000000
F0010000007815800003000080202094000042505000000000000000000201510280002001DISTRIB. OMAR ORREGO S.A.                         C000000027132300000000000000000000100010010000000000000000000000F0010000007815800320151028000101 00000000000000000000000000000000000000000000000000000000000000000000000000000000000000000000000000000000000000000N 00000000000NCONT   00    00000000000          00000000000000000000000000000000000000000000 000000000000000A000000000000000000000000000000000000000000000 000000000000000000000000000000000000000     00000000                                                                                                                        000000000000000000
F0010000007815800004000080202094000023658300000000000000000201510280002001DISTRIB. OMAR ORREGO S.A.                         C000000000309800000000000000000000100010010000000000000000000000F0010000007815800420151028000101 00000000000000000000000000000000000000000000000000000000000000000000000000000000000000000000000000000000000000000N 00000000000NCONT   00    00000000000          00000000000000000000000000000000000000000000 000000000000000A000000000000000000000000000000000000000000000 000000000000000000000000000000000000000     00000000                                                                                                                        000000000000000000
F0010000007815800005000080202094000013552100000000000000000201510280002001DISTRIB. OMAR ORREGO S.A.                         D000000000309800000000000000000000100010010000000000000000000000F0010000007815800520151028000101 00000000000000000000000000000000000000000000000000000000000000000000000000000000000000000000000000000000000000000N 00000000000NCONT   00    00000000000          00000000000000000000000000000000000000000000 000000000000000A000000000000000000000000000000000000000000000 000000000000000000000000000000000000000     00000000                                                                                                                        000000000000000000
F0010000007815900001000080202094000013050500000000000000000201510280002001DISTRIB. OMAR ORREGO S.A.                         D000000037629300000000000000000000100010010000000000000000000000F0010000007815900120151028000101 00000000000000000000000000000000000000000000000000000000000000000000000000000000000000000000000000000000000000000N 00000000000NCONT   00    00000000000          00000000000000000000000000000000000000000000 000000000000000A000000000000000000000000000000000000000000000 000000000000000000000000000000000000000     00000000                                                                                                                        000000000000000000
F0010000007815900002000080202094000041450500000000000000000201510280002001DISTRIB. OMAR ORREGO S.A.                         C000000023990000000000000000000000100010010000000000000000000000F0010000007815900220151028000101 00000000000000000000000000000000000000000000000000000000000000000000000000000000000000000000000000000000000000000N 00000000000NCONT   00    00000000000          00000000000000000000000000000000000000000000 000000000000000A000000000000000000000000000000000000000000000 000000000000000000000000000000000000000     00000000                                                                                                                        000000000000000000
F0010000007815900003000080202094000042505000000000000000000201510280002001DISTRIB. OMAR ORREGO S.A.                         C000000013639300000000000000000000100010010000000000000000000000F0010000007815900320151028000101 00000000000000000000000000000000000000000000000000000000000000000000000000000000000000000000000000000000000000000N 00000000000NCONT   00    00000000000          00000000000000000000000000000000000000000000 000000000000000A000000000000000000000000000000000000000000000 000000000000000000000000000000000000000     00000000                                                                                                                        000000000000000000
F0010000007815900004000080202094000023658300000000000000000201510280002001DISTRIB. OMAR ORREGO S.A.                         C000000000191900000000000000000000100010010000000000000000000000F0010000007815900420151028000101 00000000000000000000000000000000000000000000000000000000000000000000000000000000000000000000000000000000000000000N 00000000000NCONT   00    00000000000          00000000000000000000000000000000000000000000 000000000000000A000000000000000000000000000000000000000000000 000000000000000000000000000000000000000     00000000                                                                                                                        000000000000000000
F0010000007815900005000080202094000013552100000000000000000201510280002001DISTRIB. OMAR ORREGO S.A.                         D000000000191900000000000000000000100010010000000000000000000000F0010000007815900520151028000101 00000000000000000000000000000000000000000000000000000000000000000000000000000000000000000000000000000000000000000N 00000000000NCONT   00    00000000000          00000000000000000000000000000000000000000000 000000000000000A000000000000000000000000000000000000000000000 000000000000000000000000000000000000000     00000000                                                                                                                        000000000000000000
F0010000007816000001000089010260300013050500000000000000000201510280002001FEDERICO OSORIO A. S.A.                           D000000221269000000000000000000000100010010000000000000000000000F0010000007816000120151028000101 00000000000000000000000000000000000000000000000000000000000000000000000000000000000000000000000000000000000000000N 00000000000NCONT   00    00000000000          00000000000000000000000000000000000000000000 000000000000000A000000000000000000000000000000000000000000000 000000000000000000000000000000000000000     00000000                                                                                                                        000000000000000000
F0010000007816000002000089010260300041450500000000000000000201510280002001FEDERICO OSORIO A. S.A.                           C000000208070000000000000000000000100010010000000000000000000000F0010000007816000220151028000101 00000000000000000000000000000000000000000000000000000000000000000000000000000000000000000000000000000000000000000N 00000000000NCONT   00    00000000000          00000000000000000000000000000000000000000000 000000000000000A000000000000000000000000000000000000000000000 000000000000000000000000000000000000000     00000000                                                                                                                        000000000000000000
F0010000007816000003000089010260300042505000000000000000000201510280002001FEDERICO OSORIO A. S.A.                           C000000013199000000000000000000000100010010000000000000000000000F0010000007816000320151028000101 00000000000000000000000000000000000000000000000000000000000000000000000000000000000000000000000000000000000000000N 00000000000NCONT   00    00000000000          00000000000000000000000000000000000000000000 000000000000000A000000000000000000000000000000000000000000000 000000000000000000000000000000000000000     00000000                                                                                                                        000000000000000000
F0010000007816000004000089010260300023658300000000000000000201510280002001FEDERICO OSORIO A. S.A.                           C000000001664600000000000000000000100010010000000000000000000000F0010000007816000420151028000101 00000000000000000000000000000000000000000000000000000000000000000000000000000000000000000000000000000000000000000N 00000000000NCONT   00    00000000000          00000000000000000000000000000000000000000000 000000000000000A000000000000000000000000000000000000000000000 000000000000000000000000000000000000000     00000000                                                                                                                        000000000000000000
F0010000007816000005000089010260300013552100000000000000000201510280002001FEDERICO OSORIO A. S.A.                           D000000001664600000000000000000000100010010000000000000000000000F0010000007816000520151028000101 00000000000000000000000000000000000000000000000000000000000000000000000000000000000000000000000000000000000000000N 00000000000NCONT   00    00000000000          00000000000000000000000000000000000000000000 000000000000000A000000000000000000000000000000000000000000000 000000000000000000000000000000000000000     00000000                                                                                                                        000000000000000000
F0010000007816100001000089010260300013050500000000000000000201510280002001FEDERICO OSORIO A. S.A.                           D000000070448300000000000000000000100010010000000000000000000000F0010000007816100120151028000101 00000000000000000000000000000000000000000000000000000000000000000000000000000000000000000000000000000000000000000N 00000000000NCONT   00    00000000000          00000000000000000000000000000000000000000000 000000000000000A000000000000000000000000000000000000000000000 000000000000000000000000000000000000000     00000000                                                                                                                        000000000000000000
F0010000007816100002000089010260300041450500000000000000000201510280002001FEDERICO OSORIO A. S.A.                           C000000065670000000000000000000000100010010000000000000000000000F0010000007816100220151028000101 00000000000000000000000000000000000000000000000000000000000000000000000000000000000000000000000000000000000000000N 00000000000NCONT   00    00000000000          00000000000000000000000000000000000000000000 000000000000000A000000000000000000000000000000000000000000000 000000000000000000000000000000000000000     00000000                                                                                                                        000000000000000000
F0010000007816100003000089010260300042505000000000000000000201510280002001FEDERICO OSORIO A. S.A.                           C000000004778300000000000000000000100010010000000000000000000000F0010000007816100320151028000101 00000000000000000000000000000000000000000000000000000000000000000000000000000000000000000000000000000000000000000N 00000000000NCONT   00    00000000000          00000000000000000000000000000000000000000000 000000000000000A000000000000000000000000000000000000000000000 000000000000000000000000000000000000000     00000000                                                                                                                        000000000000000000
F0010000007816100004000089010260300023658300000000000000000201510280002001FEDERICO OSORIO A. S.A.                           C000000000525400000000000000000000100010010000000000000000000000F0010000007816100420151028000101 00000000000000000000000000000000000000000000000000000000000000000000000000000000000000000000000000000000000000000N 00000000000NCONT   00    00000000000          00000000000000000000000000000000000000000000 000000000000000A000000000000000000000000000000000000000000000 000000000000000000000000000000000000000     00000000                                                                                                                        000000000000000000
F0010000007816100005000089010260300013552100000000000000000201510280002001FEDERICO OSORIO A. S.A.                           D000000000525400000000000000000000100010010000000000000000000000F0010000007816100520151028000101 00000000000000000000000000000000000000000000000000000000000000000000000000000000000000000000000000000000000000000N 00000000000NCONT   00    00000000000          00000000000000000000000000000000000000000000 000000000000000A000000000000000000000000000000000000000000000 000000000000000000000000000000000000000     00000000                                                                                                                        000000000000000000
F0010000007816200001000004175790100013050500000000000000000201510280002001ROSIRIS FERIA HOYOS  (COSM. SHILLER)              D000000006100000000000000000000000100010010000000000000000000000F0010000007816200120151028000101 00000000000000000000000000000000000000000000000000000000000000000000000000000000000000000000000000000000000000000N 00000000000NCONT   00    00000000000          00000000000000000000000000000000000000000000 000000000000000A000000000000000000000000000000000000000000000 000000000000000000000000000000000000000     00000000                                                                                                                        000000000000000000
F0010000007816200002000004175790100041450500000000000000000201510280002001ROSIRIS FERIA HOYOS  (COSM. SHILLER)              C000000004700000000000000000000000100010010000000000000000000000F0010000007816200220151028000101 00000000000000000000000000000000000000000000000000000000000000000000000000000000000000000000000000000000000000000N 00000000000NCONT   00    00000000000          00000000000000000000000000000000000000000000 000000000000000A000000000000000000000000000000000000000000000 000000000000000000000000000000000000000     00000000                                                                                                                        000000000000000000
F0010000007816200003000004175790100042505000000000000000000201510280002001ROSIRIS FERIA HOYOS  (COSM. SHILLER)              C000000001400000000000000000000000100010010000000000000000000000F0010000007816200320151028000101 00000000000000000000000000000000000000000000000000000000000000000000000000000000000000000000000000000000000000000N 00000000000NCONT   00    00000000000          00000000000000000000000000000000000000000000 000000000000000A000000000000000000000000000000000000000000000 000000000000000000000000000000000000000     00000000                                                                                                                        000000000000000000
F0010000007816200004000004175790100023658300000000000000000201510280002001ROSIRIS FERIA HOYOS  (COSM. SHILLER)              C000000000037600000000000000000000100010010000000000000000000000F0010000007816200420151028000101 00000000000000000000000000000000000000000000000000000000000000000000000000000000000000000000000000000000000000000N 00000000000NCONT   00    00000000000          00000000000000000000000000000000000000000000 000000000000000A000000000000000000000000000000000000000000000 000000000000000000000000000000000000000     00000000                                                                                                                        000000000000000000
F0010000007816200005000004175790100013552100000000000000000201510280002001ROSIRIS FERIA HOYOS  (COSM. SHILLER)              D000000000037600000000000000000000100010010000000000000000000000F0010000007816200520151028000101 00000000000000000000000000000000000000000000000000000000000000000000000000000000000000000000000000000000000000000N 00000000000NCONT   00    00000000000          00000000000000000000000000000000000000000000 000000000000000A000000000000000000000000000000000000000000000 000000000000000000000000000000000000000     00000000                                                                                                                        000000000000000000
F0010000007816300001000007215902600013050500000000000000000201510280002001KRISS LORENA BLANCO  (BANTEX)                     D000000011980000000000000000000000100010010000000000000000000000F0010000007816300120151028000101 00000000000000000000000000000000000000000000000000000000000000000000000000000000000000000000000000000000000000000N 00000000000NCONT   00    00000000000          00000000000000000000000000000000000000000000 000000000000000A000000000000000000000000000000000000000000000 000000000000000000000000000000000000000     00000000                                                                                                                        000000000000000000
F0010000007816300002000007215902600041450500000000000000000201510280002001KRISS LORENA BLANCO  (BANTEX)                     C000000010180000000000000000000000100010010000000000000000000000F0010000007816300220151028000101 00000000000000000000000000000000000000000000000000000000000000000000000000000000000000000000000000000000000000000N 00000000000NCONT   00    00000000000          00000000000000000000000000000000000000000000 000000000000000A000000000000000000000000000000000000000000000 000000000000000000000000000000000000000     00000000                                                                                                                        000000000000000000
F0010000007816300003000007215902600042505000000000000000000201510280002001KRISS LORENA BLANCO  (BANTEX)                     C000000001800000000000000000000000100010010000000000000000000000F0010000007816300320151028000101 00000000000000000000000000000000000000000000000000000000000000000000000000000000000000000000000000000000000000000N 00000000000NCONT   00    00000000000          00000000000000000000000000000000000000000000 000000000000000A000000000000000000000000000000000000000000000 000000000000000000000000000000000000000     00000000                                                                                                                        000000000000000000
F0010000007816300004000007215902600023658300000000000000000201510280002001KRISS LORENA BLANCO  (BANTEX)                     C000000000081400000000000000000000100010010000000000000000000000F0010000007816300420151028000101 00000000000000000000000000000000000000000000000000000000000000000000000000000000000000000000000000000000000000000N 00000000000NCONT   00    00000000000          00000000000000000000000000000000000000000000 000000000000000A000000000000000000000000000000000000000000000 000000000000000000000000000000000000000     00000000                                                                                                                        000000000000000000
F0010000007816300005000007215902600013552100000000000000000201510280002001KRISS LORENA BLANCO  (BANTEX)                     D000000000081400000000000000000000100010010000000000000000000000F0010000007816300520151028000101 00000000000000000000000000000000000000000000000000000000000000000000000000000000000000000000000000000000000000000N 00000000000NCONT   00    00000000000          00000000000000000000000000000000000000000000 000000000000000A000000000000000000000000000000000000000000000 000000000000000000000000000000000000000     00000000                                                                                                                        000000000000000000
F0010000007816400001000089010952800013050500000000000000000201510280002001IND. LITOGRAF. BOSTON S.A.S.                      D000000039000000000000000000000000100010010000000000000000000000F0010000007816400120151028000101 00000000000000000000000000000000000000000000000000000000000000000000000000000000000000000000000000000000000000000N 00000000000NCONT   00    00000000000          00000000000000000000000000000000000000000000 000000000000000A000000000000000000000000000000000000000000000 000000000000000000000000000000000000000     00000000                                                                                                                        000000000000000000
F0010000007816400002000089010952800041450500000000000000000201510280002001IND. LITOGRAF. BOSTON S.A.S.                      C000000032500000000000000000000000100010010000000000000000000000F0010000007816400220151028000101 00000000000000000000000000000000000000000000000000000000000000000000000000000000000000000000000000000000000000000N 00000000000NCONT   00    00000000000          00000000000000000000000000000000000000000000 000000000000000A000000000000000000000000000000000000000000000 000000000000000000000000000000000000000     00000000                                                                                                                        000000000000000000
F0010000007816400003000089010952800042505000000000000000000201510280002001IND. LITOGRAF. BOSTON S.A.S.                      C000000006500000000000000000000000100010010000000000000000000000F0010000007816400320151028000101 00000000000000000000000000000000000000000000000000000000000000000000000000000000000000000000000000000000000000000N 00000000000NCONT   00    00000000000          00000000000000000000000000000000000000000000 000000000000000A000000000000000000000000000000000000000000000 000000000000000000000000000000000000000     00000000                                                                                                                        000000000000000000
F0010000007816400004000089010952800023658300000000000000000201510280002001IND. LITOGRAF. BOSTON S.A.S.                      C000000000260000000000000000000000100010010000000000000000000000F0010000007816400420151028000101 00000000000000000000000000000000000000000000000000000000000000000000000000000000000000000000000000000000000000000N 00000000000NCONT   00    00000000000          00000000000000000000000000000000000000000000 000000000000000A000000000000000000000000000000000000000000000 000000000000000000000000000000000000000     00000000                                                                                                                        000000000000000000
F0010000007816400005000089010952800013552100000000000000000201510280002001IND. LITOGRAF. BOSTON S.A.S.                      D000000000260000000000000000000000100010010000000000000000000000F0010000007816400520151028000101 00000000000000000000000000000000000000000000000000000000000000000000000000000000000000000000000000000000000000000N 00000000000NCONT   00    00000000000          00000000000000000000000000000000000000000000 000000000000000A000000000000000000000000000000000000000000000 000000000000000000000000000000000000000     00000000                                                                                                                        000000000000000000
F0010000007816500001000000827614700013050500000000000000000201510280002001ALVARO  HERNAN  PEREZ ALVAREZ                     D000000011500000000000000000000000100010010000000000000000000000F0010000007816500120151028000101 00000000000000000000000000000000000000000000000000000000000000000000000000000000000000000000000000000000000000000N 00000000000NCONT   00    00000000000          00000000000000000000000000000000000000000000 000000000000000A000000000000000000000000000000000000000000000 000000000000000000000000000000000000000     00000000                                                                                                                        000000000000000000
F0010000007816500002000000827614700041450500000000000000000201510280002001ALVARO  HERNAN  PEREZ ALVAREZ                     C000000010800000000000000000000000100010010000000000000000000000F0010000007816500220151028000101 00000000000000000000000000000000000000000000000000000000000000000000000000000000000000000000000000000000000000000N 00000000000NCONT   00    00000000000          00000000000000000000000000000000000000000000 000000000000000A000000000000000000000000000000000000000000000 000000000000000000000000000000000000000     00000000                                                                                                                        000000000000000000
F0010000007816500003000000827614700042505000000000000000000201510280002001ALVARO  HERNAN  PEREZ ALVAREZ                     C000000000700000000000000000000000100010010000000000000000000000F0010000007816500320151028000101 00000000000000000000000000000000000000000000000000000000000000000000000000000000000000000000000000000000000000000N 00000000000NCONT   00    00000000000          00000000000000000000000000000000000000000000 000000000000000A000000000000000000000000000000000000000000000 000000000000000000000000000000000000000     00000000                                                                                                                        000000000000000000
F0010000007816500004000000827614700023658300000000000000000201510280002001ALVARO  HERNAN  PEREZ ALVAREZ                     C000000000086400000000000000000000100010010000000000000000000000F0010000007816500420151028000101 00000000000000000000000000000000000000000000000000000000000000000000000000000000000000000000000000000000000000000N 00000000000NCONT   00    00000000000          00000000000000000000000000000000000000000000 000000000000000A000000000000000000000000000000000000000000000 000000000000000000000000000000000000000     00000000                                                                                                                        000000000000000000
F0010000007816500005000000827614700013552100000000000000000201510280002001ALVARO  HERNAN  PEREZ ALVAREZ                     D000000000086400000000000000000000100010010000000000000000000000F0010000007816500520151028000101 00000000000000000000000000000000000000000000000000000000000000000000000000000000000000000000000000000000000000000N 00000000000NCONT   00    00000000000          00000000000000000000000000000000000000000000 000000000000000A000000000000000000000000000000000000000000000 000000000000000000000000000000000000000     00000000                                                                                                                        000000000000000000
F0010000007816600001000080000083500013050500000000000000000201510280002001ALIPAR Y CIA LTDA                                 D000000020450000000000000000000000100010010000000000000000000000F0010000007816600120151028000101 00000000000000000000000000000000000000000000000000000000000000000000000000000000000000000000000000000000000000000N 00000000000NCONT   00    00000000000          00000000000000000000000000000000000000000000 000000000000000A000000000000000000000000000000000000000000000 000000000000000000000000000000000000000     00000000                                                                                                                        000000000000000000
F0010000007816600002000080000083500041450500000000000000000201510280002001ALIPAR Y CIA LTDA                                 C000000019100000000000000000000000100010010000000000000000000000F0010000007816600220151028000101 00000000000000000000000000000000000000000000000000000000000000000000000000000000000000000000000000000000000000000N 00000000000NCONT   00    00000000000          00000000000000000000000000000000000000000000 000000000000000A000000000000000000000000000000000000000000000 000000000000000000000000000000000000000     00000000                                                                                                                        000000000000000000
F0010000007816600003000080000083500042505000000000000000000201510280002001ALIPAR Y CIA LTDA                                 C000000001350000000000000000000000100010010000000000000000000000F0010000007816600320151028000101 00000000000000000000000000000000000000000000000000000000000000000000000000000000000000000000000000000000000000000N 00000000000NCONT   00    00000000000          00000000000000000000000000000000000000000000 000000000000000A000000000000000000000000000000000000000000000 000000000000000000000000000000000000000     00000000                                                                                                                        000000000000000000
F0010000007816600004000080000083500023658300000000000000000201510280002001ALIPAR Y CIA LTDA                                 C000000000152800000000000000000000100010010000000000000000000000F0010000007816600420151028000101 00000000000000000000000000000000000000000000000000000000000000000000000000000000000000000000000000000000000000000N 00000000000NCONT   00    00000000000          00000000000000000000000000000000000000000000 000000000000000A000000000000000000000000000000000000000000000 000000000000000000000000000000000000000     00000000                                                                                                                        000000000000000000
F0010000007816600005000080000083500013552100000000000000000201510280002001ALIPAR Y CIA LTDA                                 D000000000152800000000000000000000100010010000000000000000000000F0010000007816600520151028000101 00000000000000000000000000000000000000000000000000000000000000000000000000000000000000000000000000000000000000000N 00000000000NCONT   00    00000000000          00000000000000000000000000000000000000000000 000000000000000A000000000000000000000000000000000000000000000 000000000000000000000000000000000000000     00000000                                                                                                                        000000000000000000
F0010000007816700001000080202132300013050500000000000000000201510280002001SUM Y SERV DE LA COSTA LTDA                       D000000014000000000000000000000000100010010000000000000000000000F0010000007816700120151028000101 00000000000000000000000000000000000000000000000000000000000000000000000000000000000000000000000000000000000000000N 00000000000NCONT   00    00000000000          00000000000000000000000000000000000000000000 000000000000000A000000000000000000000000000000000000000000000 000000000000000000000000000000000000000     00000000                                                                                                                        000000000000000000
F0010000007816700002000080202132300041450500000000000000000201510280002001SUM Y SERV DE LA COSTA LTDA                       C000000013390000000000000000000000100010010000000000000000000000F0010000007816700220151028000101 00000000000000000000000000000000000000000000000000000000000000000000000000000000000000000000000000000000000000000N 00000000000NCONT   00    00000000000          00000000000000000000000000000000000000000000 000000000000000A000000000000000000000000000000000000000000000 000000000000000000000000000000000000000     00000000                                                                                                                        000000000000000000
F0010000007816700003000080202132300042505000000000000000000201510280002001SUM Y SERV DE LA COSTA LTDA                       C000000000610000000000000000000000100010010000000000000000000000F0010000007816700320151028000101 00000000000000000000000000000000000000000000000000000000000000000000000000000000000000000000000000000000000000000N 00000000000NCONT   00    00000000000          00000000000000000000000000000000000000000000 000000000000000A000000000000000000000000000000000000000000000 000000000000000000000000000000000000000     00000000                                                                                                                        000000000000000000
F0010000007816700004000080202132300023658300000000000000000201510280002001SUM Y SERV DE LA COSTA LTDA                       C000000000107100000000000000000000100010010000000000000000000000F0010000007816700420151028000101 00000000000000000000000000000000000000000000000000000000000000000000000000000000000000000000000000000000000000000N 00000000000NCONT   00    00000000000          00000000000000000000000000000000000000000000 000000000000000A000000000000000000000000000000000000000000000 000000000000000000000000000000000000000     00000000                                                                                                                        000000000000000000
F0010000007816700005000080202132300013552100000000000000000201510280002001SUM Y SERV DE LA COSTA LTDA                       D000000000107100000000000000000000100010010000000000000000000000F0010000007816700520151028000101 00000000000000000000000000000000000000000000000000000000000000000000000000000000000000000000000000000000000000000N 00000000000NCONT   00    00000000000          00000000000000000000000000000000000000000000 000000000000000A000000000000000000000000000000000000000000000 000000000000000000000000000000000000000     00000000                                                                                                                        000000000000000000
F0010000007816800001000090036646700013050500000000000000000201510280002001FERREPROYECTOS S.A.S                              D000000005000000000000000000000000100010010000000000000000000000F0010000007816800120151028000101 00000000000000000000000000000000000000000000000000000000000000000000000000000000000000000000000000000000000000000N 00000000000NCONT   00    00000000000          00000000000000000000000000000000000000000000 000000000000000A000000000000000000000000000000000000000000000 000000000000000000000000000000000000000     00000000                                                                                                                        000000000000000000
F0010000007816800002000090036646700041450500000000000000000201510280002001FERREPROYECTOS S.A.S                              C000000004900000000000000000000000100010010000000000000000000000F0010000007816800220151028000101 00000000000000000000000000000000000000000000000000000000000000000000000000000000000000000000000000000000000000000N 00000000000NCONT   00    00000000000          00000000000000000000000000000000000000000000 000000000000000A000000000000000000000000000000000000000000000 000000000000000000000000000000000000000     00000000                                                                                                                        000000000000000000
F0010000007816800003000090036646700042505000000000000000000201510280002001FERREPROYECTOS S.A.S                              C000000000100000000000000000000000100010010000000000000000000000F0010000007816800320151028000101 00000000000000000000000000000000000000000000000000000000000000000000000000000000000000000000000000000000000000000N 00000000000NCONT   00    00000000000          00000000000000000000000000000000000000000000 000000000000000A000000000000000000000000000000000000000000000 000000000000000000000000000000000000000     00000000                                                                                                                        000000000000000000
F0010000007816800004000090036646700023658300000000000000000201510280002001FERREPROYECTOS S.A.S                              C000000000039200000000000000000000100010010000000000000000000000F0010000007816800420151028000101 00000000000000000000000000000000000000000000000000000000000000000000000000000000000000000000000000000000000000000N 00000000000NCONT   00    00000000000          00000000000000000000000000000000000000000000 000000000000000A000000000000000000000000000000000000000000000 000000000000000000000000000000000000000     00000000                                                                                                                        000000000000000000
F0010000007816800005000090036646700013552100000000000000000201510280002001FERREPROYECTOS S.A.S                              D000000000039200000000000000000000100010010000000000000000000000F0010000007816800520151028000101 00000000000000000000000000000000000000000000000000000000000000000000000000000000000000000000000000000000000000000N 00000000000NCONT   00    00000000000          00000000000000000000000000000000000000000000 000000000000000A000000000000000000000000000000000000000000000 000000000000000000000000000000000000000     00000000                                                                                                                        000000000000000000
F0010000007816900001000080201127600013050500000000000000000201510280002001ELECTRICOS DEL RUIZ S.A.S.                        D000000064048100000000000000000000100010010000000000000000000000F0010000007816900120151028000101 00000000000000000000000000000000000000000000000000000000000000000000000000000000000000000000000000000000000000000N 00000000000NCONT   00    00000000000          00000000000000000000000000000000000000000000 000000000000000A000000000000000000000000000000000000000000000 000000000000000000000000000000000000000     00000000                                                                                                                        000000000000000000
F0010000007816900002000080201127600041450500000000000000000201510280002001ELECTRICOS DEL RUIZ S.A.S.                        C000000049710000000000000000000000100010010000000000000000000000F0010000007816900220151028000101 00000000000000000000000000000000000000000000000000000000000000000000000000000000000000000000000000000000000000000N 00000000000NCONT   00    00000000000          00000000000000000000000000000000000000000000 000000000000000A000000000000000000000000000000000000000000000 000000000000000000000000000000000000000     00000000                                                                                                                        000000000000000000
F0010000007816900003000080201127600042505000000000000000000201510280002001ELECTRICOS DEL RUIZ S.A.S.                        C000000014338100000000000000000000100010010000000000000000000000F0010000007816900320151028000101 00000000000000000000000000000000000000000000000000000000000000000000000000000000000000000000000000000000000000000N 00000000000NCONT   00    00000000000          00000000000000000000000000000000000000000000 000000000000000A000000000000000000000000000000000000000000000 000000000000000000000000000000000000000     00000000                                                                                                                        000000000000000000
F0010000007816900004000080201127600023658300000000000000000201510280002001ELECTRICOS DEL RUIZ S.A.S.                        C000000000397700000000000000000000100010010000000000000000000000F0010000007816900420151028000101 00000000000000000000000000000000000000000000000000000000000000000000000000000000000000000000000000000000000000000N 00000000000NCONT   00    00000000000          00000000000000000000000000000000000000000000 000000000000000A000000000000000000000000000000000000000000000 000000000000000000000000000000000000000     00000000                                                                                                                        000000000000000000
F0010000007816900005000080201127600013552100000000000000000201510280002001ELECTRICOS DEL RUIZ S.A.S.                        D000000000397700000000000000000000100010010000000000000000000000F0010000007816900520151028000101 00000000000000000000000000000000000000000000000000000000000000000000000000000000000000000000000000000000000000000N 00000000000NCONT   00    00000000000          00000000000000000000000000000000000000000000 000000000000000A000000000000000000000000000000000000000000000 000000000000000000000000000000000000000     00000000                                                                                                                        000000000000000000
F0010000007817000001000007215896800013050500000000000000000201510280002001EDDIER CIRO                                       D000000043218100000000000000000000100010010000000000000000000000F0010000007817000120151028000101 00000000000000000000000000000000000000000000000000000000000000000000000000000000000000000000000000000000000000000N 00000000000NCONT   00    00000000000          00000000000000000000000000000000000000000000 000000000000000A000000000000000000000000000000000000000000000 000000000000000000000000000000000000000     00000000                                                                                                                        000000000000000000
F0010000007817000002000007215896800041450500000000000000000201510280002001EDDIER CIRO                                       C000000034280000000000000000000000100010010000000000000000000000F0010000007817000220151028000101 00000000000000000000000000000000000000000000000000000000000000000000000000000000000000000000000000000000000000000N 00000000000NCONT   00    00000000000          00000000000000000000000000000000000000000000 000000000000000A000000000000000000000000000000000000000000000 000000000000000000000000000000000000000     00000000                                                                                                                        000000000000000000
F0010000007817000003000007215896800042505000000000000000000201510280002001EDDIER CIRO                                       C000000008938100000000000000000000100010010000000000000000000000F0010000007817000320151028000101 00000000000000000000000000000000000000000000000000000000000000000000000000000000000000000000000000000000000000000N 00000000000NCONT   00    00000000000          00000000000000000000000000000000000000000000 000000000000000A000000000000000000000000000000000000000000000 000000000000000000000000000000000000000     00000000                                                                                                                        000000000000000000
F0010000007817000004000007215896800023658300000000000000000201510280002001EDDIER CIRO                                       C000000000274200000000000000000000100010010000000000000000000000F0010000007817000420151028000101 00000000000000000000000000000000000000000000000000000000000000000000000000000000000000000000000000000000000000000N 00000000000NCONT   00    00000000000          00000000000000000000000000000000000000000000 000000000000000A000000000000000000000000000000000000000000000 000000000000000000000000000000000000000     00000000                                                                                                                        000000000000000000
F0010000007817000005000007215896800013552100000000000000000201510280002001EDDIER CIRO                                       D000000000274200000000000000000000100010010000000000000000000000F0010000007817000520151028000101 00000000000000000000000000000000000000000000000000000000000000000000000000000000000000000000000000000000000000000N 00000000000NCONT   00    00000000000          00000000000000000000000000000000000000000000 000000000000000A000000000000000000000000000000000000000000000 000000000000000000000000000000000000000     00000000                                                                                                                        000000000000000000
F0010000007817100001000000870907300013050500000000000000000201510280002001SURTIDOR FERRETERO                                D000000067532600000000000000000000100010010000000000000000000000F0010000007817100120151028000101 00000000000000000000000000000000000000000000000000000000000000000000000000000000000000000000000000000000000000000N 00000000000NCONT   00    00000000000          00000000000000000000000000000000000000000000 000000000000000A000000000000000000000000000000000000000000000 000000000000000000000000000000000000000     00000000                                                                                                                        000000000000000000
F0010000007817100002000000870907300041450500000000000000000201510280002001SURTIDOR FERRETERO                                C000000047420700000000000000000000100010010000000000000000000000F0010000007817100220151028000101 00000000000000000000000000000000000000000000000000000000000000000000000000000000000000000000000000000000000000000N 00000000000NCONT   00    00000000000          00000000000000000000000000000000000000000000 000000000000000A000000000000000000000000000000000000000000000 000000000000000000000000000000000000000     00000000                                                                                                                        000000000000000000
F0010000007817100003000000870907300041750100000000000000000201510280002001SURTIDOR FERRETERO                                D000000004509100000000000000000000100010010000000000000000000000F0010000007817100320151028000101 00000000000000000000000000000000000000000000000000000000000000000000000000000000000000000000000000000000000000000N 00000000000NCONT   00    00000000000          00000000000000000000000000000000000000000000 000000000000000A000000000000000000000000000000000000000000000 000000000000000000000000000000000000000     00000000                                                                                                                        000000000000000000
F0010000007817100004000000870907300042505000000000000000000201510280002001SURTIDOR FERRETERO                                C000000024621000000000000000000000100010010000000000000000000000F0010000007817100420151028000101 00000000000000000000000000000000000000000000000000000000000000000000000000000000000000000000000000000000000000000N 00000000000NCONT   00    00000000000          00000000000000000000000000000000000000000000 000000000000000A000000000000000000000000000000000000000000000 000000000000000000000000000000000000000     00000000                                                                                                                        000000000000000000
F0010000007817100005000000870907300023658300000000000000000201510280002001SURTIDOR FERRETERO                                C000000000379400000000000000000000100010010000000000000000000000F0010000007817100520151028000101 00000000000000000000000000000000000000000000000000000000000000000000000000000000000000000000000000000000000000000N 00000000000NCONT   00    00000000000          00000000000000000000000000000000000000000000 000000000000000A000000000000000000000000000000000000000000000 000000000000000000000000000000000000000     00000000                                                                                                                        000000000000000000
F0010000007817100006000000870907300013552100000000000000000201510280002001SURTIDOR FERRETERO                                D000000000379400000000000000000000100010010000000000000000000000F0010000007817100620151028000101 00000000000000000000000000000000000000000000000000000000000000000000000000000000000000000000000000000000000000000N 00000000000NCONT   00    00000000000          00000000000000000000000000000000000000000000 000000000000000A000000000000000000000000000000000000000000000 000000000000000000000000000000000000000     00000000                                                                                                                        000000000000000000
F0010000007817200001000089010272700013050500000000000000000201510280002001ALFONSOEME S.A.                                   D000000051025900000000000000000000100010010000000000000000000000F0010000007817200120151028000101 00000000000000000000000000000000000000000000000000000000000000000000000000000000000000000000000000000000000000000N 00000000000NCONT   00    00000000000          00000000000000000000000000000000000000000000 000000000000000A000000000000000000000000000000000000000000000 000000000000000000000000000000000000000     00000000                                                                                                                        000000000000000000
F0010000007817200002000089010272700041450500000000000000000201510280002001ALFONSOEME S.A.                                   C000000051895500000000000000000000100010010000000000000000000000F0010000007817200220151028000101 00000000000000000000000000000000000000000000000000000000000000000000000000000000000000000000000000000000000000000N 00000000000NCONT   00    00000000000          00000000000000000000000000000000000000000000 000000000000000A000000000000000000000000000000000000000000000 000000000000000000000000000000000000000     00000000                                                                                                                        000000000000000000
F0010000007817200003000089010272700041750100000000000000000201510280002001ALFONSOEME S.A.                                   D000000005189600000000000000000000100010010000000000000000000000F0010000007817200320151028000101 00000000000000000000000000000000000000000000000000000000000000000000000000000000000000000000000000000000000000000N 00000000000NCONT   00    00000000000          00000000000000000000000000000000000000000000 000000000000000A000000000000000000000000000000000000000000000 000000000000000000000000000000000000000     00000000                                                                                                                        000000000000000000
F0010000007817200004000089010272700042505000000000000000000201510280002001ALFONSOEME S.A.                                   C000000004320000000000000000000000100010010000000000000000000000F0010000007817200420151028000101 00000000000000000000000000000000000000000000000000000000000000000000000000000000000000000000000000000000000000000N 00000000000NCONT   00    00000000000          00000000000000000000000000000000000000000000 000000000000000A000000000000000000000000000000000000000000000 000000000000000000000000000000000000000     00000000                                                                                                                        000000000000000000
F0010000007817200005000089010272700023658300000000000000000201510280002001ALFONSOEME S.A.                                   C000000000415200000000000000000000100010010000000000000000000000F0010000007817200520151028000101 00000000000000000000000000000000000000000000000000000000000000000000000000000000000000000000000000000000000000000N 00000000000NCONT   00    00000000000          00000000000000000000000000000000000000000000 000000000000000A000000000000000000000000000000000000000000000 000000000000000000000000000000000000000     00000000                                                                                                                        000000000000000000
F0010000007817200006000089010272700013552100000000000000000201510280002001ALFONSOEME S.A.                                   D000000000415200000000000000000000100010010000000000000000000000F0010000007817200620151028000101 00000000000000000000000000000000000000000000000000000000000000000000000000000000000000000000000000000000000000000N 00000000000NCONT   00    00000000000          00000000000000000000000000000000000000000000 000000000000000A000000000000000000000000000000000000000000000 000000000000000000000000000000000000000     00000000                                                                                                                        000000000000000000
F0010000007817300001000089010272700013050500000000000000000201510280002001ALFONSOEME S.A.                                   D000000019309900000000000000000000100010010000000000000000000000F0010000007817300120151028000101 00000000000000000000000000000000000000000000000000000000000000000000000000000000000000000000000000000000000000000N 00000000000NCONT   00    00000000000          00000000000000000000000000000000000000000000 000000000000000A000000000000000000000000000000000000000000000 000000000000000000000000000000000000000     00000000                                                                                                                        000000000000000000
F0010000007817300002000089010272700041450500000000000000000201510280002001ALFONSOEME S.A.                                   C000000019055500000000000000000000100010010000000000000000000000F0010000007817300220151028000101 00000000000000000000000000000000000000000000000000000000000000000000000000000000000000000000000000000000000000000N 00000000000NCONT   00    00000000000          00000000000000000000000000000000000000000000 000000000000000A000000000000000000000000000000000000000000000 000000000000000000000000000000000000000     00000000                                                                                                                        000000000000000000
F0010000007817300003000089010272700041750100000000000000000201510280002001ALFONSOEME S.A.                                   D000000001905600000000000000000000100010010000000000000000000000F0010000007817300320151028000101 00000000000000000000000000000000000000000000000000000000000000000000000000000000000000000000000000000000000000000N 00000000000NCONT   00    00000000000          00000000000000000000000000000000000000000000 000000000000000A000000000000000000000000000000000000000000000 000000000000000000000000000000000000000     00000000                                                                                                                        000000000000000000
F0010000007817300004000089010272700042505000000000000000000201510280002001ALFONSOEME S.A.                                   C000000002160000000000000000000000100010010000000000000000000000F0010000007817300420151028000101 00000000000000000000000000000000000000000000000000000000000000000000000000000000000000000000000000000000000000000N 00000000000NCONT   00    00000000000          00000000000000000000000000000000000000000000 000000000000000A000000000000000000000000000000000000000000000 000000000000000000000000000000000000000     00000000                                                                                                                        000000000000000000
F0010000007817300005000089010272700023658300000000000000000201510280002001ALFONSOEME S.A.                                   C000000000152400000000000000000000100010010000000000000000000000F0010000007817300520151028000101 00000000000000000000000000000000000000000000000000000000000000000000000000000000000000000000000000000000000000000N 00000000000NCONT   00    00000000000          00000000000000000000000000000000000000000000 000000000000000A000000000000000000000000000000000000000000000 000000000000000000000000000000000000000     00000000                                                                                                                        000000000000000000
