F0010000008193000001000007233680300011050500000000000000000201602010002001FERMIN RAMBAL SANCHEZ                             D000000002500000000000000000000000100010010000000000000000000000F0010000008193000120160201000101 00000000000000000000000000000000000000000000000000000000000000000000000000000000000000000000000000000000000000000N 00000000000NCONT   00    00000000000          00000000000000000000000000000000000000000000 000000000000000A000000000000000000000000000000000000000000000 000000000000000000000000000000000000000     00000000                                                                                                                        000000000000000000
F0010000008193000002000007233680300041450500000000000000000201602010002001FERMIN RAMBAL SANCHEZ                             C000000002400000000000000000000000100010010000000000000000000000F0010000008193000220160201000101 00000000000000000000000000000000000000000000000000000000000000000000000000000000000000000000000000000000000000000N 00000000000NCONT   00    00000000000          00000000000000000000000000000000000000000000 000000000000000A000000000000000000000000000000000000000000000 000000000000000000000000000000000000000     00000000                                                                                                                        000000000000000000
F0010000008193000003000007233680300042505000000000000000000201602010002001FERMIN RAMBAL SANCHEZ                             C000000000100000000000000000000000100010010000000000000000000000F0010000008193000320160201000101 00000000000000000000000000000000000000000000000000000000000000000000000000000000000000000000000000000000000000000N 00000000000NCONT   00    00000000000          00000000000000000000000000000000000000000000 000000000000000A000000000000000000000000000000000000000000000 000000000000000000000000000000000000000     00000000                                                                                                                        000000000000000000
F0010000008193000004000007233680300023658300000000000000000201602010002001FERMIN RAMBAL SANCHEZ                             C000000000019200000000000000000000100010010000000000000000000000F0010000008193000420160201000101 00000000000000000000000000000000000000000000000000000000000000000000000000000000000000000000000000000000000000000N 00000000000NCONT   00    00000000000          00000000000000000000000000000000000000000000 000000000000000A000000000000000000000000000000000000000000000 000000000000000000000000000000000000000     00000000                                                                                                                        000000000000000000
F0010000008193000005000007233680300013552100000000000000000201602010002001FERMIN RAMBAL SANCHEZ                             D000000000019200000000000000000000100010010000000000000000000000F0010000008193000520160201000101 00000000000000000000000000000000000000000000000000000000000000000000000000000000000000000000000000000000000000000N 00000000000NCONT   00    00000000000          00000000000000000000000000000000000000000000 000000000000000A000000000000000000000000000000000000000000000 000000000000000000000000000000000000000     00000000                                                                                                                        000000000000000000
F0010000008193100001000090073498600011050500000000000000000201602010002001VALTAC S.A.S                                      D000000001200000000000000000000000100010010000000000000000000000F0010000008193100120160201000101 00000000000000000000000000000000000000000000000000000000000000000000000000000000000000000000000000000000000000000N 00000000000NCONT   00    00000000000          00000000000000000000000000000000000000000000 000000000000000A000000000000000000000000000000000000000000000 000000000000000000000000000000000000000     00000000                                                                                                                        000000000000000000
F0010000008193100002000090073498600041450500000000000000000201602010002001VALTAC S.A.S                                      C000000000900000000000000000000000100010010000000000000000000000F0010000008193100220160201000101 00000000000000000000000000000000000000000000000000000000000000000000000000000000000000000000000000000000000000000N 00000000000NCONT   00    00000000000          00000000000000000000000000000000000000000000 000000000000000A000000000000000000000000000000000000000000000 000000000000000000000000000000000000000     00000000                                                                                                                        000000000000000000
F0010000008193100003000090073498600042505000000000000000000201602010002001VALTAC S.A.S                                      C000000000300000000000000000000000100010010000000000000000000000F0010000008193100320160201000101 00000000000000000000000000000000000000000000000000000000000000000000000000000000000000000000000000000000000000000N 00000000000NCONT   00    00000000000          00000000000000000000000000000000000000000000 000000000000000A000000000000000000000000000000000000000000000 000000000000000000000000000000000000000     00000000                                                                                                                        000000000000000000
F0010000008193100004000090073498600023658300000000000000000201602010002001VALTAC S.A.S                                      C000000000007200000000000000000000100010010000000000000000000000F0010000008193100420160201000101 00000000000000000000000000000000000000000000000000000000000000000000000000000000000000000000000000000000000000000N 00000000000NCONT   00    00000000000          00000000000000000000000000000000000000000000 000000000000000A000000000000000000000000000000000000000000000 000000000000000000000000000000000000000     00000000                                                                                                                        000000000000000000
F0010000008193100005000090073498600013552100000000000000000201602010002001VALTAC S.A.S                                      D000000000007200000000000000000000100010010000000000000000000000F0010000008193100520160201000101 00000000000000000000000000000000000000000000000000000000000000000000000000000000000000000000000000000000000000000N 00000000000NCONT   00    00000000000          00000000000000000000000000000000000000000000 000000000000000A000000000000000000000000000000000000000000000 000000000000000000000000000000000000000     00000000                                                                                                                        000000000000000000
F0010000008193200001000007225219800011050500000000000000000201602010002001MAURICIO ALVAREZ VARELO                           D000000017000000000000000000000000100010010000000000000000000000F0010000008193200120160201000101 00000000000000000000000000000000000000000000000000000000000000000000000000000000000000000000000000000000000000000N 00000000000NCONT   00    00000000000          00000000000000000000000000000000000000000000 000000000000000A000000000000000000000000000000000000000000000 000000000000000000000000000000000000000     00000000                                                                                                                        000000000000000000
F0010000008193200002000007225219800041450500000000000000000201602010002001MAURICIO ALVAREZ VARELO                           C000000013300000000000000000000000100010010000000000000000000000F0010000008193200220160201000101 00000000000000000000000000000000000000000000000000000000000000000000000000000000000000000000000000000000000000000N 00000000000NCONT   00    00000000000          00000000000000000000000000000000000000000000 000000000000000A000000000000000000000000000000000000000000000 000000000000000000000000000000000000000     00000000                                                                                                                        000000000000000000
F0010000008193200003000007225219800042505000000000000000000201602010002001MAURICIO ALVAREZ VARELO                           C000000003700000000000000000000000100010010000000000000000000000F0010000008193200320160201000101 00000000000000000000000000000000000000000000000000000000000000000000000000000000000000000000000000000000000000000N 00000000000NCONT   00    00000000000          00000000000000000000000000000000000000000000 000000000000000A000000000000000000000000000000000000000000000 000000000000000000000000000000000000000     00000000                                                                                                                        000000000000000000
F0010000008193200004000007225219800023658300000000000000000201602010002001MAURICIO ALVAREZ VARELO                           C000000000106400000000000000000000100010010000000000000000000000F0010000008193200420160201000101 00000000000000000000000000000000000000000000000000000000000000000000000000000000000000000000000000000000000000000N 00000000000NCONT   00    00000000000          00000000000000000000000000000000000000000000 000000000000000A000000000000000000000000000000000000000000000 000000000000000000000000000000000000000     00000000                                                                                                                        000000000000000000
F0010000008193200005000007225219800013552100000000000000000201602010002001MAURICIO ALVAREZ VARELO                           D000000000106400000000000000000000100010010000000000000000000000F0010000008193200520160201000101 00000000000000000000000000000000000000000000000000000000000000000000000000000000000000000000000000000000000000000N 00000000000NCONT   00    00000000000          00000000000000000000000000000000000000000000 000000000000000A000000000000000000000000000000000000000000000 000000000000000000000000000000000000000     00000000                                                                                                                        000000000000000000
F0010000008193300001000080202094000013050500000000000000000201602010002001DISTRIB. OMAR ORREGO S.A.                         D000000091288400000000000000000000100010010000000000000000000000F0010000008193300120160201000101 00000000000000000000000000000000000000000000000000000000000000000000000000000000000000000000000000000000000000000N 00000000000NCONT   00    00000000000          00000000000000000000000000000000000000000000 000000000000000A000000000000000000000000000000000000000000000 000000000000000000000000000000000000000     00000000                                                                                                                        000000000000000000
F0010000008193300002000080202094000041450500000000000000000201602010002001DISTRIB. OMAR ORREGO S.A.                         C000000044530000000000000000000000100010010000000000000000000000F0010000008193300220160201000101 00000000000000000000000000000000000000000000000000000000000000000000000000000000000000000000000000000000000000000N 00000000000NCONT   00    00000000000          00000000000000000000000000000000000000000000 000000000000000A000000000000000000000000000000000000000000000 000000000000000000000000000000000000000     00000000                                                                                                                        000000000000000000
F0010000008193300003000080202094000042505000000000000000000201602010002001DISTRIB. OMAR ORREGO S.A.                         C000000046758400000000000000000000100010010000000000000000000000F0010000008193300320160201000101 00000000000000000000000000000000000000000000000000000000000000000000000000000000000000000000000000000000000000000N 00000000000NCONT   00    00000000000          00000000000000000000000000000000000000000000 000000000000000A000000000000000000000000000000000000000000000 000000000000000000000000000000000000000     00000000                                                                                                                        000000000000000000
F0010000008193300004000080202094000023658300000000000000000201602010002001DISTRIB. OMAR ORREGO S.A.                         C000000000356200000000000000000000100010010000000000000000000000F0010000008193300420160201000101 00000000000000000000000000000000000000000000000000000000000000000000000000000000000000000000000000000000000000000N 00000000000NCONT   00    00000000000          00000000000000000000000000000000000000000000 000000000000000A000000000000000000000000000000000000000000000 000000000000000000000000000000000000000     00000000                                                                                                                        000000000000000000
F0010000008193300005000080202094000013552100000000000000000201602010002001DISTRIB. OMAR ORREGO S.A.                         D000000000356200000000000000000000100010010000000000000000000000F0010000008193300520160201000101 00000000000000000000000000000000000000000000000000000000000000000000000000000000000000000000000000000000000000000N 00000000000NCONT   00    00000000000          00000000000000000000000000000000000000000000 000000000000000A000000000000000000000000000000000000000000000 000000000000000000000000000000000000000     00000000                                                                                                                        000000000000000000
F0010000008193400001000080202094000013050500000000000000000201602010002001DISTRIB. OMAR ORREGO S.A.                         D000000062418900000000000000000000100010010000000000000000000000F0010000008193400120160201000101 00000000000000000000000000000000000000000000000000000000000000000000000000000000000000000000000000000000000000000N 00000000000NCONT   00    00000000000          00000000000000000000000000000000000000000000 000000000000000A000000000000000000000000000000000000000000000 000000000000000000000000000000000000000     00000000                                                                                                                        000000000000000000
F0010000008193400002000080202094000041450500000000000000000201602010002001DISTRIB. OMAR ORREGO S.A.                         C000000034170000000000000000000000100010010000000000000000000000F0010000008193400220160201000101 00000000000000000000000000000000000000000000000000000000000000000000000000000000000000000000000000000000000000000N 00000000000NCONT   00    00000000000          00000000000000000000000000000000000000000000 000000000000000A000000000000000000000000000000000000000000000 000000000000000000000000000000000000000     00000000                                                                                                                        000000000000000000
F0010000008193400003000080202094000042505000000000000000000201602010002001DISTRIB. OMAR ORREGO S.A.                         C000000028248900000000000000000000100010010000000000000000000000F0010000008193400320160201000101 00000000000000000000000000000000000000000000000000000000000000000000000000000000000000000000000000000000000000000N 00000000000NCONT   00    00000000000          00000000000000000000000000000000000000000000 000000000000000A000000000000000000000000000000000000000000000 000000000000000000000000000000000000000     00000000                                                                                                                        000000000000000000
F0010000008193400004000080202094000023658300000000000000000201602010002001DISTRIB. OMAR ORREGO S.A.                         C000000000273400000000000000000000100010010000000000000000000000F0010000008193400420160201000101 00000000000000000000000000000000000000000000000000000000000000000000000000000000000000000000000000000000000000000N 00000000000NCONT   00    00000000000          00000000000000000000000000000000000000000000 000000000000000A000000000000000000000000000000000000000000000 000000000000000000000000000000000000000     00000000                                                                                                                        000000000000000000
F0010000008193400005000080202094000013552100000000000000000201602010002001DISTRIB. OMAR ORREGO S.A.                         D000000000273400000000000000000000100010010000000000000000000000F0010000008193400520160201000101 00000000000000000000000000000000000000000000000000000000000000000000000000000000000000000000000000000000000000000N 00000000000NCONT   00    00000000000          00000000000000000000000000000000000000000000 000000000000000A000000000000000000000000000000000000000000000 000000000000000000000000000000000000000     00000000                                                                                                                        000000000000000000
F0010000008193500001000080201112800013050500000000000000000201602010002001CANGURO INTERNATIONAL S.A.                        D000000141031500000000000000000000100010010000000000000000000000F0010000008193500120160201000101 00000000000000000000000000000000000000000000000000000000000000000000000000000000000000000000000000000000000000000N 00000000000NCONT   00    00000000000          00000000000000000000000000000000000000000000 000000000000000A000000000000000000000000000000000000000000000 000000000000000000000000000000000000000     00000000                                                                                                                        000000000000000000
F0010000008193500002000080201112800041450500000000000000000201602010002001CANGURO INTERNATIONAL S.A.                        C000000141031500000000000000000000100010010000000000000000000000F0010000008193500220160201000101 00000000000000000000000000000000000000000000000000000000000000000000000000000000000000000000000000000000000000000N 00000000000NCONT   00    00000000000          00000000000000000000000000000000000000000000 000000000000000A000000000000000000000000000000000000000000000 000000000000000000000000000000000000000     00000000                                                                                                                        000000000000000000
F0010000008193500003000080201112800042505000000000000000000201602010002001CANGURO INTERNATIONAL S.A.                        C000000000000000000000000000000000100010010000000000000000000000F0010000008193500320160201000101 00000000000000000000000000000000000000000000000000000000000000000000000000000000000000000000000000000000000000000N 00000000000NCONT   00    00000000000          00000000000000000000000000000000000000000000 000000000000000A000000000000000000000000000000000000000000000 000000000000000000000000000000000000000     00000000                                                                                                                        000000000000000000
F0010000008193500004000080201112800023658300000000000000000201602010002001CANGURO INTERNATIONAL S.A.                        C000000001128300000000000000000000100010010000000000000000000000F0010000008193500420160201000101 00000000000000000000000000000000000000000000000000000000000000000000000000000000000000000000000000000000000000000N 00000000000NCONT   00    00000000000          00000000000000000000000000000000000000000000 000000000000000A000000000000000000000000000000000000000000000 000000000000000000000000000000000000000     00000000                                                                                                                        000000000000000000
F0010000008193500005000080201112800013552100000000000000000201602010002001CANGURO INTERNATIONAL S.A.                        D000000001128300000000000000000000100010010000000000000000000000F0010000008193500520160201000101 00000000000000000000000000000000000000000000000000000000000000000000000000000000000000000000000000000000000000000N 00000000000NCONT   00    00000000000          00000000000000000000000000000000000000000000 000000000000000A000000000000000000000000000000000000000000000 000000000000000000000000000000000000000     00000000                                                                                                                        000000000000000000
F0010000008193600001000080201112800013050500000000000000000201602010002001CANGURO INTERNATIONAL S.A.                        D000000293956000000000000000000000100010010000000000000000000000F0010000008193600120160201000101 00000000000000000000000000000000000000000000000000000000000000000000000000000000000000000000000000000000000000000N 00000000000NCONT   00    00000000000          00000000000000000000000000000000000000000000 000000000000000A000000000000000000000000000000000000000000000 000000000000000000000000000000000000000     00000000                                                                                                                        000000000000000000
F0010000008193600002000080201112800041450500000000000000000201602010002001CANGURO INTERNATIONAL S.A.                        C000000285630400000000000000000000100010010000000000000000000000F0010000008193600220160201000101 00000000000000000000000000000000000000000000000000000000000000000000000000000000000000000000000000000000000000000N 00000000000NCONT   00    00000000000          00000000000000000000000000000000000000000000 000000000000000A000000000000000000000000000000000000000000000 000000000000000000000000000000000000000     00000000                                                                                                                        000000000000000000
F0010000008193600003000080201112800042505000000000000000000201602010002001CANGURO INTERNATIONAL S.A.                        C000000008325600000000000000000000100010010000000000000000000000F0010000008193600320160201000101 00000000000000000000000000000000000000000000000000000000000000000000000000000000000000000000000000000000000000000N 00000000000NCONT   00    00000000000          00000000000000000000000000000000000000000000 000000000000000A000000000000000000000000000000000000000000000 000000000000000000000000000000000000000     00000000                                                                                                                        000000000000000000
F0010000008193600004000080201112800023658300000000000000000201602010002001CANGURO INTERNATIONAL S.A.                        C000000002285000000000000000000000100010010000000000000000000000F0010000008193600420160201000101 00000000000000000000000000000000000000000000000000000000000000000000000000000000000000000000000000000000000000000N 00000000000NCONT   00    00000000000          00000000000000000000000000000000000000000000 000000000000000A000000000000000000000000000000000000000000000 000000000000000000000000000000000000000     00000000                                                                                                                        000000000000000000
F0010000008193600005000080201112800013552100000000000000000201602010002001CANGURO INTERNATIONAL S.A.                        D000000002285000000000000000000000100010010000000000000000000000F0010000008193600520160201000101 00000000000000000000000000000000000000000000000000000000000000000000000000000000000000000000000000000000000000000N 00000000000NCONT   00    00000000000          00000000000000000000000000000000000000000000 000000000000000A000000000000000000000000000000000000000000000 000000000000000000000000000000000000000     00000000                                                                                                                        000000000000000000
F0010000008193700001000080201112800013050500000000000000000201602010002001CANGURO INTERNATIONAL S.A.                        D000000111674300000000000000000000100010010000000000000000000000F0010000008193700120160201000101 00000000000000000000000000000000000000000000000000000000000000000000000000000000000000000000000000000000000000000N 00000000000NCONT   00    00000000000          00000000000000000000000000000000000000000000 000000000000000A000000000000000000000000000000000000000000000 000000000000000000000000000000000000000     00000000                                                                                                                        000000000000000000
F0010000008193700002000080201112800041450500000000000000000201602010002001CANGURO INTERNATIONAL S.A.                        C000000111674300000000000000000000100010010000000000000000000000F0010000008193700220160201000101 00000000000000000000000000000000000000000000000000000000000000000000000000000000000000000000000000000000000000000N 00000000000NCONT   00    00000000000          00000000000000000000000000000000000000000000 000000000000000A000000000000000000000000000000000000000000000 000000000000000000000000000000000000000     00000000                                                                                                                        000000000000000000
F0010000008193700003000080201112800042505000000000000000000201602010002001CANGURO INTERNATIONAL S.A.                        C000000000000000000000000000000000100010010000000000000000000000F0010000008193700320160201000101 00000000000000000000000000000000000000000000000000000000000000000000000000000000000000000000000000000000000000000N 00000000000NCONT   00    00000000000          00000000000000000000000000000000000000000000 000000000000000A000000000000000000000000000000000000000000000 000000000000000000000000000000000000000     00000000                                                                                                                        000000000000000000
F0010000008193700004000080201112800023658300000000000000000201602010002001CANGURO INTERNATIONAL S.A.                        C000000000893400000000000000000000100010010000000000000000000000F0010000008193700420160201000101 00000000000000000000000000000000000000000000000000000000000000000000000000000000000000000000000000000000000000000N 00000000000NCONT   00    00000000000          00000000000000000000000000000000000000000000 000000000000000A000000000000000000000000000000000000000000000 000000000000000000000000000000000000000     00000000                                                                                                                        000000000000000000
F0010000008193700005000080201112800013552100000000000000000201602010002001CANGURO INTERNATIONAL S.A.                        D000000000893400000000000000000000100010010000000000000000000000F0010000008193700520160201000101 00000000000000000000000000000000000000000000000000000000000000000000000000000000000000000000000000000000000000000N 00000000000NCONT   00    00000000000          00000000000000000000000000000000000000000000 000000000000000A000000000000000000000000000000000000000000000 000000000000000000000000000000000000000     00000000                                                                                                                        000000000000000000
F0010000008193800001000004977415500011050500000000000000000201602010002001NINFA FONSECA ROMERO                              D000000001000000000000000000000000100010010000000000000000000000F0010000008193800120160201000101 00000000000000000000000000000000000000000000000000000000000000000000000000000000000000000000000000000000000000000N 00000000000NCONT   00    00000000000          00000000000000000000000000000000000000000000 000000000000000A000000000000000000000000000000000000000000000 000000000000000000000000000000000000000     00000000                                                                                                                        000000000000000000
F0010000008193800002000004977415500041450500000000000000000201602010002001NINFA FONSECA ROMERO                              C000000000900000000000000000000000100010010000000000000000000000F0010000008193800220160201000101 00000000000000000000000000000000000000000000000000000000000000000000000000000000000000000000000000000000000000000N 00000000000NCONT   00    00000000000          00000000000000000000000000000000000000000000 000000000000000A000000000000000000000000000000000000000000000 000000000000000000000000000000000000000     00000000                                                                                                                        000000000000000000
F0010000008193800003000004977415500042505000000000000000000201602010002001NINFA FONSECA ROMERO                              C000000000100000000000000000000000100010010000000000000000000000F0010000008193800320160201000101 00000000000000000000000000000000000000000000000000000000000000000000000000000000000000000000000000000000000000000N 00000000000NCONT   00    00000000000          00000000000000000000000000000000000000000000 000000000000000A000000000000000000000000000000000000000000000 000000000000000000000000000000000000000     00000000                                                                                                                        000000000000000000
F0010000008193800004000004977415500023658300000000000000000201602010002001NINFA FONSECA ROMERO                              C000000000007200000000000000000000100010010000000000000000000000F0010000008193800420160201000101 00000000000000000000000000000000000000000000000000000000000000000000000000000000000000000000000000000000000000000N 00000000000NCONT   00    00000000000          00000000000000000000000000000000000000000000 000000000000000A000000000000000000000000000000000000000000000 000000000000000000000000000000000000000     00000000                                                                                                                        000000000000000000
F0010000008193800005000004977415500013552100000000000000000201602010002001NINFA FONSECA ROMERO                              D000000000007200000000000000000000100010010000000000000000000000F0010000008193800520160201000101 00000000000000000000000000000000000000000000000000000000000000000000000000000000000000000000000000000000000000000N 00000000000NCONT   00    00000000000          00000000000000000000000000000000000000000000 000000000000000A000000000000000000000000000000000000000000000 000000000000000000000000000000000000000     00000000                                                                                                                        000000000000000000
F0010000008193900001000090015039900011050500000000000000000201602010002001METALMAX DE COLOMBIA S.A.S                        D000000002500000000000000000000000100010010000000000000000000000F0010000008193900120160201000101 00000000000000000000000000000000000000000000000000000000000000000000000000000000000000000000000000000000000000000N 00000000000NCONT   00    00000000000          00000000000000000000000000000000000000000000 000000000000000A000000000000000000000000000000000000000000000 000000000000000000000000000000000000000     00000000                                                                                                                        000000000000000000
F0010000008193900002000090015039900041450500000000000000000201602010002001METALMAX DE COLOMBIA S.A.S                        C000000002400000000000000000000000100010010000000000000000000000F0010000008193900220160201000101 00000000000000000000000000000000000000000000000000000000000000000000000000000000000000000000000000000000000000000N 00000000000NCONT   00    00000000000          00000000000000000000000000000000000000000000 000000000000000A000000000000000000000000000000000000000000000 000000000000000000000000000000000000000     00000000                                                                                                                        000000000000000000
F0010000008193900003000090015039900042505000000000000000000201602010002001METALMAX DE COLOMBIA S.A.S                        C000000000100000000000000000000000100010010000000000000000000000F0010000008193900320160201000101 00000000000000000000000000000000000000000000000000000000000000000000000000000000000000000000000000000000000000000N 00000000000NCONT   00    00000000000          00000000000000000000000000000000000000000000 000000000000000A000000000000000000000000000000000000000000000 000000000000000000000000000000000000000     00000000                                                                                                                        000000000000000000
F0010000008193900004000090015039900023658300000000000000000201602010002001METALMAX DE COLOMBIA S.A.S                        C000000000019200000000000000000000100010010000000000000000000000F0010000008193900420160201000101 00000000000000000000000000000000000000000000000000000000000000000000000000000000000000000000000000000000000000000N 00000000000NCONT   00    00000000000          00000000000000000000000000000000000000000000 000000000000000A000000000000000000000000000000000000000000000 000000000000000000000000000000000000000     00000000                                                                                                                        000000000000000000
F0010000008193900005000090015039900013552100000000000000000201602010002001METALMAX DE COLOMBIA S.A.S                        D000000000019200000000000000000000100010010000000000000000000000F0010000008193900520160201000101 00000000000000000000000000000000000000000000000000000000000000000000000000000000000000000000000000000000000000000N 00000000000NCONT   00    00000000000          00000000000000000000000000000000000000000000 000000000000000A000000000000000000000000000000000000000000000 000000000000000000000000000000000000000     00000000                                                                                                                        000000000000000000
F0010000008194000001000090022477100011050500000000000000000201602010002001PVC DEL CARIBE LTDA                               D000000050000000000000000000000000100010010000000000000000000000F0010000008194000120160201000101 00000000000000000000000000000000000000000000000000000000000000000000000000000000000000000000000000000000000000000N 00000000000NCONT   00    00000000000          00000000000000000000000000000000000000000000 000000000000000A000000000000000000000000000000000000000000000 000000000000000000000000000000000000000     00000000                                                                                                                        000000000000000000
F0010000008194000002000090022477100041450500000000000000000201602010002001PVC DEL CARIBE LTDA                               C000000045000000000000000000000000100010010000000000000000000000F0010000008194000220160201000101 00000000000000000000000000000000000000000000000000000000000000000000000000000000000000000000000000000000000000000N 00000000000NCONT   00    00000000000          00000000000000000000000000000000000000000000 000000000000000A000000000000000000000000000000000000000000000 000000000000000000000000000000000000000     00000000                                                                                                                        000000000000000000
F0010000008194000003000090022477100042505000000000000000000201602010002001PVC DEL CARIBE LTDA                               C000000005000000000000000000000000100010010000000000000000000000F0010000008194000320160201000101 00000000000000000000000000000000000000000000000000000000000000000000000000000000000000000000000000000000000000000N 00000000000NCONT   00    00000000000          00000000000000000000000000000000000000000000 000000000000000A000000000000000000000000000000000000000000000 000000000000000000000000000000000000000     00000000                                                                                                                        000000000000000000
F0010000008194000004000090022477100023658300000000000000000201602010002001PVC DEL CARIBE LTDA                               C000000000360000000000000000000000100010010000000000000000000000F0010000008194000420160201000101 00000000000000000000000000000000000000000000000000000000000000000000000000000000000000000000000000000000000000000N 00000000000NCONT   00    00000000000          00000000000000000000000000000000000000000000 000000000000000A000000000000000000000000000000000000000000000 000000000000000000000000000000000000000     00000000                                                                                                                        000000000000000000
F0010000008194000005000090022477100013552100000000000000000201602010002001PVC DEL CARIBE LTDA                               D000000000360000000000000000000000100010010000000000000000000000F0010000008194000520160201000101 00000000000000000000000000000000000000000000000000000000000000000000000000000000000000000000000000000000000000000N 00000000000NCONT   00    00000000000          00000000000000000000000000000000000000000000 000000000000000A000000000000000000000000000000000000000000000 000000000000000000000000000000000000000     00000000                                                                                                                        000000000000000000
F0010000008194100001000089011193000011050500000000000000000201602010002001DOQUIMICA DE LA COSTA LT DA                       D000000023100000000000000000000000100010010000000000000000000000F0010000008194100120160201000101 00000000000000000000000000000000000000000000000000000000000000000000000000000000000000000000000000000000000000000N 00000000000NCONT   00    00000000000          00000000000000000000000000000000000000000000 000000000000000A000000000000000000000000000000000000000000000 000000000000000000000000000000000000000     00000000                                                                                                                        000000000000000000
F0010000008194100002000089011193000041450500000000000000000201602010002001DOQUIMICA DE LA COSTA LT DA                       C000000023000000000000000000000000100010010000000000000000000000F0010000008194100220160201000101 00000000000000000000000000000000000000000000000000000000000000000000000000000000000000000000000000000000000000000N 00000000000NCONT   00    00000000000          00000000000000000000000000000000000000000000 000000000000000A000000000000000000000000000000000000000000000 000000000000000000000000000000000000000     00000000                                                                                                                        000000000000000000
F0010000008194100003000089011193000042505000000000000000000201602010002001DOQUIMICA DE LA COSTA LT DA                       C000000000100000000000000000000000100010010000000000000000000000F0010000008194100320160201000101 00000000000000000000000000000000000000000000000000000000000000000000000000000000000000000000000000000000000000000N 00000000000NCONT   00    00000000000          00000000000000000000000000000000000000000000 000000000000000A000000000000000000000000000000000000000000000 000000000000000000000000000000000000000     00000000                                                                                                                        000000000000000000
F0010000008194100004000089011193000023658300000000000000000201602010002001DOQUIMICA DE LA COSTA LT DA                       C000000000184000000000000000000000100010010000000000000000000000F0010000008194100420160201000101 00000000000000000000000000000000000000000000000000000000000000000000000000000000000000000000000000000000000000000N 00000000000NCONT   00    00000000000          00000000000000000000000000000000000000000000 000000000000000A000000000000000000000000000000000000000000000 000000000000000000000000000000000000000     00000000                                                                                                                        000000000000000000
F0010000008194100005000089011193000013552100000000000000000201602010002001DOQUIMICA DE LA COSTA LT DA                       D000000000184000000000000000000000100010010000000000000000000000F0010000008194100520160201000101 00000000000000000000000000000000000000000000000000000000000000000000000000000000000000000000000000000000000000000N 00000000000NCONT   00    00000000000          00000000000000000000000000000000000000000000 000000000000000A000000000000000000000000000000000000000000000 000000000000000000000000000000000000000     00000000                                                                                                                        000000000000000000
F0010000008194200001000000872328300011050500000000000000000201602010002001LUIS ALBERTO OTERO --LAO DISTRIBUCIONES BAQ       D000000001500000000000000000000000100010010000000000000000000000F0010000008194200120160201000101 00000000000000000000000000000000000000000000000000000000000000000000000000000000000000000000000000000000000000000N 00000000000NCONT   00    00000000000          00000000000000000000000000000000000000000000 000000000000000A000000000000000000000000000000000000000000000 000000000000000000000000000000000000000     00000000                                                                                                                        000000000000000000
F0010000008194200002000000872328300041450500000000000000000201602010002001LUIS ALBERTO OTERO --LAO DISTRIBUCIONES BAQ       C000000001000000000000000000000000100010010000000000000000000000F0010000008194200220160201000101 00000000000000000000000000000000000000000000000000000000000000000000000000000000000000000000000000000000000000000N 00000000000NCONT   00    00000000000          00000000000000000000000000000000000000000000 000000000000000A000000000000000000000000000000000000000000000 000000000000000000000000000000000000000     00000000                                                                                                                        000000000000000000
F0010000008194200003000000872328300042505000000000000000000201602010002001LUIS ALBERTO OTERO --LAO DISTRIBUCIONES BAQ       C000000000500000000000000000000000100010010000000000000000000000F0010000008194200320160201000101 00000000000000000000000000000000000000000000000000000000000000000000000000000000000000000000000000000000000000000N 00000000000NCONT   00    00000000000          00000000000000000000000000000000000000000000 000000000000000A000000000000000000000000000000000000000000000 000000000000000000000000000000000000000     00000000                                                                                                                        000000000000000000
F0010000008194200004000000872328300023658300000000000000000201602010002001LUIS ALBERTO OTERO --LAO DISTRIBUCIONES BAQ       C000000000008000000000000000000000100010010000000000000000000000F0010000008194200420160201000101 00000000000000000000000000000000000000000000000000000000000000000000000000000000000000000000000000000000000000000N 00000000000NCONT   00    00000000000          00000000000000000000000000000000000000000000 000000000000000A000000000000000000000000000000000000000000000 000000000000000000000000000000000000000     00000000                                                                                                                        000000000000000000
F0010000008194200005000000872328300013552100000000000000000201602010002001LUIS ALBERTO OTERO --LAO DISTRIBUCIONES BAQ       D000000000008000000000000000000000100010010000000000000000000000F0010000008194200520160201000101 00000000000000000000000000000000000000000000000000000000000000000000000000000000000000000000000000000000000000000N 00000000000NCONT   00    00000000000          00000000000000000000000000000000000000000000 000000000000000A000000000000000000000000000000000000000000000 000000000000000000000000000000000000000     00000000                                                                                                                        000000000000000000
F0010000008194300001000000872328300011050500000000000000000201602010002001LUIS ALBERTO OTERO --LAO DISTRIBUCIONES BAQ       D000000004000000000000000000000000100010010000000000000000000000F0010000008194300120160201000101 00000000000000000000000000000000000000000000000000000000000000000000000000000000000000000000000000000000000000000N 00000000000NCONT   00    00000000000          00000000000000000000000000000000000000000000 000000000000000A000000000000000000000000000000000000000000000 000000000000000000000000000000000000000     00000000                                                                                                                        000000000000000000
F0010000008194300002000000872328300041450500000000000000000201602010002001LUIS ALBERTO OTERO --LAO DISTRIBUCIONES BAQ       C000000002000000000000000000000000100010010000000000000000000000F0010000008194300220160201000101 00000000000000000000000000000000000000000000000000000000000000000000000000000000000000000000000000000000000000000N 00000000000NCONT   00    00000000000          00000000000000000000000000000000000000000000 000000000000000A000000000000000000000000000000000000000000000 000000000000000000000000000000000000000     00000000                                                                                                                        000000000000000000
F0010000008194300003000000872328300042505000000000000000000201602010002001LUIS ALBERTO OTERO --LAO DISTRIBUCIONES BAQ       C000000002000000000000000000000000100010010000000000000000000000F0010000008194300320160201000101 00000000000000000000000000000000000000000000000000000000000000000000000000000000000000000000000000000000000000000N 00000000000NCONT   00    00000000000          00000000000000000000000000000000000000000000 000000000000000A000000000000000000000000000000000000000000000 000000000000000000000000000000000000000     00000000                                                                                                                        000000000000000000
F0010000008194300004000000872328300023658300000000000000000201602010002001LUIS ALBERTO OTERO --LAO DISTRIBUCIONES BAQ       C000000000016000000000000000000000100010010000000000000000000000F0010000008194300420160201000101 00000000000000000000000000000000000000000000000000000000000000000000000000000000000000000000000000000000000000000N 00000000000NCONT   00    00000000000          00000000000000000000000000000000000000000000 000000000000000A000000000000000000000000000000000000000000000 000000000000000000000000000000000000000     00000000                                                                                                                        000000000000000000
F0010000008194300005000000872328300013552100000000000000000201602010002001LUIS ALBERTO OTERO --LAO DISTRIBUCIONES BAQ       D000000000016000000000000000000000100010010000000000000000000000F0010000008194300520160201000101 00000000000000000000000000000000000000000000000000000000000000000000000000000000000000000000000000000000000000000N 00000000000NCONT   00    00000000000          00000000000000000000000000000000000000000000 000000000000000A000000000000000000000000000000000000000000000 000000000000000000000000000000000000000     00000000                                                                                                                        000000000000000000
F0010000008194400001000000872328300011050500000000000000000201602010002001LUIS ALBERTO OTERO --LAO DISTRIBUCIONES BAQ       D000000002000000000000000000000000100010010000000000000000000000F0010000008194400120160201000101 00000000000000000000000000000000000000000000000000000000000000000000000000000000000000000000000000000000000000000N 00000000000NCONT   00    00000000000          00000000000000000000000000000000000000000000 000000000000000A000000000000000000000000000000000000000000000 000000000000000000000000000000000000000     00000000                                                                                                                        000000000000000000
F0010000008194400002000000872328300041450500000000000000000201602010002001LUIS ALBERTO OTERO --LAO DISTRIBUCIONES BAQ       C000000001000000000000000000000000100010010000000000000000000000F0010000008194400220160201000101 00000000000000000000000000000000000000000000000000000000000000000000000000000000000000000000000000000000000000000N 00000000000NCONT   00    00000000000          00000000000000000000000000000000000000000000 000000000000000A000000000000000000000000000000000000000000000 000000000000000000000000000000000000000     00000000                                                                                                                        000000000000000000
F0010000008194400003000000872328300042505000000000000000000201602010002001LUIS ALBERTO OTERO --LAO DISTRIBUCIONES BAQ       C000000001000000000000000000000000100010010000000000000000000000F0010000008194400320160201000101 00000000000000000000000000000000000000000000000000000000000000000000000000000000000000000000000000000000000000000N 00000000000NCONT   00    00000000000          00000000000000000000000000000000000000000000 000000000000000A000000000000000000000000000000000000000000000 000000000000000000000000000000000000000     00000000                                                                                                                        000000000000000000
F0010000008194400004000000872328300023658300000000000000000201602010002001LUIS ALBERTO OTERO --LAO DISTRIBUCIONES BAQ       C000000000008000000000000000000000100010010000000000000000000000F0010000008194400420160201000101 00000000000000000000000000000000000000000000000000000000000000000000000000000000000000000000000000000000000000000N 00000000000NCONT   00    00000000000          00000000000000000000000000000000000000000000 000000000000000A000000000000000000000000000000000000000000000 000000000000000000000000000000000000000     00000000                                                                                                                        000000000000000000
F0010000008194400005000000872328300013552100000000000000000201602010002001LUIS ALBERTO OTERO --LAO DISTRIBUCIONES BAQ       D000000000008000000000000000000000100010010000000000000000000000F0010000008194400520160201000101 00000000000000000000000000000000000000000000000000000000000000000000000000000000000000000000000000000000000000000N 00000000000NCONT   00    00000000000          00000000000000000000000000000000000000000000 000000000000000A000000000000000000000000000000000000000000000 000000000000000000000000000000000000000     00000000                                                                                                                        000000000000000000
F0010000008194500001000000869805000011050500000000000000000201602010002001WILMAN RAMBAL LARA                                D000000001000000000000000000000000100010010000000000000000000000F0010000008194500120160201000101 00000000000000000000000000000000000000000000000000000000000000000000000000000000000000000000000000000000000000000N 00000000000NCONT   00    00000000000          00000000000000000000000000000000000000000000 000000000000000A000000000000000000000000000000000000000000000 000000000000000000000000000000000000000     00000000                                                                                                                        000000000000000000
F0010000008194500002000000869805000041450500000000000000000201602010002001WILMAN RAMBAL LARA                                C000000000900000000000000000000000100010010000000000000000000000F0010000008194500220160201000101 00000000000000000000000000000000000000000000000000000000000000000000000000000000000000000000000000000000000000000N 00000000000NCONT   00    00000000000          00000000000000000000000000000000000000000000 000000000000000A000000000000000000000000000000000000000000000 000000000000000000000000000000000000000     00000000                                                                                                                        000000000000000000
F0010000008194500003000000869805000042505000000000000000000201602010002001WILMAN RAMBAL LARA                                C000000000100000000000000000000000100010010000000000000000000000F0010000008194500320160201000101 00000000000000000000000000000000000000000000000000000000000000000000000000000000000000000000000000000000000000000N 00000000000NCONT   00    00000000000          00000000000000000000000000000000000000000000 000000000000000A000000000000000000000000000000000000000000000 000000000000000000000000000000000000000     00000000                                                                                                                        000000000000000000
F0010000008194500004000000869805000023658300000000000000000201602010002001WILMAN RAMBAL LARA                                C000000000007200000000000000000000100010010000000000000000000000F0010000008194500420160201000101 00000000000000000000000000000000000000000000000000000000000000000000000000000000000000000000000000000000000000000N 00000000000NCONT   00    00000000000          00000000000000000000000000000000000000000000 000000000000000A000000000000000000000000000000000000000000000 000000000000000000000000000000000000000     00000000                                                                                                                        000000000000000000
F0010000008194500005000000869805000013552100000000000000000201602010002001WILMAN RAMBAL LARA                                D000000000007200000000000000000000100010010000000000000000000000F0010000008194500520160201000101 00000000000000000000000000000000000000000000000000000000000000000000000000000000000000000000000000000000000000000N 00000000000NCONT   00    00000000000          00000000000000000000000000000000000000000000 000000000000000A000000000000000000000000000000000000000000000 000000000000000000000000000000000000000     00000000                                                                                                                        000000000000000000
F0010000008194600001000000866309000011050500000000000000000201602010002001MARCO MORA PATIO                                D000000002400000000000000000000000100010010000000000000000000000F0010000008194600120160201000101 00000000000000000000000000000000000000000000000000000000000000000000000000000000000000000000000000000000000000000N 00000000000NCONT   00    00000000000          00000000000000000000000000000000000000000000 000000000000000A000000000000000000000000000000000000000000000 000000000000000000000000000000000000000     00000000                                                                                                                        000000000000000000
F0010000008194600002000000866309000041450500000000000000000201602010002001MARCO MORA PATIO                                C000000001500000000000000000000000100010010000000000000000000000F0010000008194600220160201000101 00000000000000000000000000000000000000000000000000000000000000000000000000000000000000000000000000000000000000000N 00000000000NCONT   00    00000000000          00000000000000000000000000000000000000000000 000000000000000A000000000000000000000000000000000000000000000 000000000000000000000000000000000000000     00000000                                                                                                                        000000000000000000
F0010000008194600003000000866309000042505000000000000000000201602010002001MARCO MORA PATIO                                C000000000900000000000000000000000100010010000000000000000000000F0010000008194600320160201000101 00000000000000000000000000000000000000000000000000000000000000000000000000000000000000000000000000000000000000000N 00000000000NCONT   00    00000000000          00000000000000000000000000000000000000000000 000000000000000A000000000000000000000000000000000000000000000 000000000000000000000000000000000000000     00000000                                                                                                                        000000000000000000
F0010000008194600004000000866309000023658300000000000000000201602010002001MARCO MORA PATIO                                C000000000012000000000000000000000100010010000000000000000000000F0010000008194600420160201000101 00000000000000000000000000000000000000000000000000000000000000000000000000000000000000000000000000000000000000000N 00000000000NCONT   00    00000000000          00000000000000000000000000000000000000000000 000000000000000A000000000000000000000000000000000000000000000 000000000000000000000000000000000000000     00000000                                                                                                                        000000000000000000
F0010000008194600005000000866309000013552100000000000000000201602010002001MARCO MORA PATIO                                D000000000012000000000000000000000100010010000000000000000000000F0010000008194600520160201000101 00000000000000000000000000000000000000000000000000000000000000000000000000000000000000000000000000000000000000000N 00000000000NCONT   00    00000000000          00000000000000000000000000000000000000000000 000000000000000A000000000000000000000000000000000000000000000 000000000000000000000000000000000000000     00000000                                                                                                                        000000000000000000
F0010000008194700001000090083450400011050500000000000000000201602010002001SUNNY GROUP SAS                                   D000000002300000000000000000000000100010010000000000000000000000F0010000008194700120160201000101 00000000000000000000000000000000000000000000000000000000000000000000000000000000000000000000000000000000000000000N 00000000000NCONT   00    00000000000          00000000000000000000000000000000000000000000 000000000000000A000000000000000000000000000000000000000000000 000000000000000000000000000000000000000     00000000                                                                                                                        000000000000000000
F0010000008194700002000090083450400041450500000000000000000201602010002001SUNNY GROUP SAS                                   C000000001800000000000000000000000100010010000000000000000000000F0010000008194700220160201000101 00000000000000000000000000000000000000000000000000000000000000000000000000000000000000000000000000000000000000000N 00000000000NCONT   00    00000000000          00000000000000000000000000000000000000000000 000000000000000A000000000000000000000000000000000000000000000 000000000000000000000000000000000000000     00000000                                                                                                                        000000000000000000
F0010000008194700003000090083450400042505000000000000000000201602010002001SUNNY GROUP SAS                                   C000000000500000000000000000000000100010010000000000000000000000F0010000008194700320160201000101 00000000000000000000000000000000000000000000000000000000000000000000000000000000000000000000000000000000000000000N 00000000000NCONT   00    00000000000          00000000000000000000000000000000000000000000 000000000000000A000000000000000000000000000000000000000000000 000000000000000000000000000000000000000     00000000                                                                                                                        000000000000000000
F0010000008194700004000090083450400023658300000000000000000201602010002001SUNNY GROUP SAS                                   C000000000014400000000000000000000100010010000000000000000000000F0010000008194700420160201000101 00000000000000000000000000000000000000000000000000000000000000000000000000000000000000000000000000000000000000000N 00000000000NCONT   00    00000000000          00000000000000000000000000000000000000000000 000000000000000A000000000000000000000000000000000000000000000 000000000000000000000000000000000000000     00000000                                                                                                                        000000000000000000
F0010000008194700005000090083450400013552100000000000000000201602010002001SUNNY GROUP SAS                                   D000000000014400000000000000000000100010010000000000000000000000F0010000008194700520160201000101 00000000000000000000000000000000000000000000000000000000000000000000000000000000000000000000000000000000000000000N 00000000000NCONT   00    00000000000          00000000000000000000000000000000000000000000 000000000000000A000000000000000000000000000000000000000000000 000000000000000000000000000000000000000     00000000                                                                                                                        000000000000000000
F0010000008194800001000007957099900011050500000000000000000201602010002001RUBEN GOMEZ                                       D000000001400000000000000000000000100010010000000000000000000000F0010000008194800120160201000101 00000000000000000000000000000000000000000000000000000000000000000000000000000000000000000000000000000000000000000N 00000000000NCONT   00    00000000000          00000000000000000000000000000000000000000000 000000000000000A000000000000000000000000000000000000000000000 000000000000000000000000000000000000000     00000000                                                                                                                        000000000000000000
F0010000008194800002000007957099900041450500000000000000000201602010002001RUBEN GOMEZ                                       C000000000900000000000000000000000100010010000000000000000000000F0010000008194800220160201000101 00000000000000000000000000000000000000000000000000000000000000000000000000000000000000000000000000000000000000000N 00000000000NCONT   00    00000000000          00000000000000000000000000000000000000000000 000000000000000A000000000000000000000000000000000000000000000 000000000000000000000000000000000000000     00000000                                                                                                                        000000000000000000
F0010000008194800003000007957099900042505000000000000000000201602010002001RUBEN GOMEZ                                       C000000000500000000000000000000000100010010000000000000000000000F0010000008194800320160201000101 00000000000000000000000000000000000000000000000000000000000000000000000000000000000000000000000000000000000000000N 00000000000NCONT   00    00000000000          00000000000000000000000000000000000000000000 000000000000000A000000000000000000000000000000000000000000000 000000000000000000000000000000000000000     00000000                                                                                                                        000000000000000000
F0010000008194800004000007957099900023658300000000000000000201602010002001RUBEN GOMEZ                                       C000000000007200000000000000000000100010010000000000000000000000F0010000008194800420160201000101 00000000000000000000000000000000000000000000000000000000000000000000000000000000000000000000000000000000000000000N 00000000000NCONT   00    00000000000          00000000000000000000000000000000000000000000 000000000000000A000000000000000000000000000000000000000000000 000000000000000000000000000000000000000     00000000                                                                                                                        000000000000000000
F0010000008194800005000007957099900013552100000000000000000201602010002001RUBEN GOMEZ                                       D000000000007200000000000000000000100010010000000000000000000000F0010000008194800520160201000101 00000000000000000000000000000000000000000000000000000000000000000000000000000000000000000000000000000000000000000N 00000000000NCONT   00    00000000000          00000000000000000000000000000000000000000000 000000000000000A000000000000000000000000000000000000000000000 000000000000000000000000000000000000000     00000000                                                                                                                        000000000000000000
F0010000008194900001000089070997800011050500000000000000000201602010002001CENTRAL DE TORNILLOS                              D000000001820000000000000000000000100010010000000000000000000000F0010000008194900120160201000101 00000000000000000000000000000000000000000000000000000000000000000000000000000000000000000000000000000000000000000N 00000000000NCONT   00    00000000000          00000000000000000000000000000000000000000000 000000000000000A000000000000000000000000000000000000000000000 000000000000000000000000000000000000000     00000000                                                                                                                        000000000000000000
F0010000008194900002000089070997800041450500000000000000000201602010002001CENTRAL DE TORNILLOS                              C000000001620000000000000000000000100010010000000000000000000000F0010000008194900220160201000101 00000000000000000000000000000000000000000000000000000000000000000000000000000000000000000000000000000000000000000N 00000000000NCONT   00    00000000000          00000000000000000000000000000000000000000000 000000000000000A000000000000000000000000000000000000000000000 000000000000000000000000000000000000000     00000000                                                                                                                        000000000000000000
F0010000008194900003000089070997800042505000000000000000000201602010002001CENTRAL DE TORNILLOS                              C000000000200000000000000000000000100010010000000000000000000000F0010000008194900320160201000101 00000000000000000000000000000000000000000000000000000000000000000000000000000000000000000000000000000000000000000N 00000000000NCONT   00    00000000000          00000000000000000000000000000000000000000000 000000000000000A000000000000000000000000000000000000000000000 000000000000000000000000000000000000000     00000000                                                                                                                        000000000000000000
F0010000008194900004000089070997800023658300000000000000000201602010002001CENTRAL DE TORNILLOS                              C000000000013000000000000000000000100010010000000000000000000000F0010000008194900420160201000101 00000000000000000000000000000000000000000000000000000000000000000000000000000000000000000000000000000000000000000N 00000000000NCONT   00    00000000000          00000000000000000000000000000000000000000000 000000000000000A000000000000000000000000000000000000000000000 000000000000000000000000000000000000000     00000000                                                                                                                        000000000000000000
F0010000008194900005000089070997800013552100000000000000000201602010002001CENTRAL DE TORNILLOS                              D000000000013000000000000000000000100010010000000000000000000000F0010000008194900520160201000101 00000000000000000000000000000000000000000000000000000000000000000000000000000000000000000000000000000000000000000N 00000000000NCONT   00    00000000000          00000000000000000000000000000000000000000000 000000000000000A000000000000000000000000000000000000000000000 000000000000000000000000000000000000000     00000000                                                                                                                        000000000000000000
F0010000008195000001000089070997800011050500000000000000000201602010002001CENTRAL DE TORNILLOS                              D000000001950000000000000000000000100010010000000000000000000000F0010000008195000120160201000101 00000000000000000000000000000000000000000000000000000000000000000000000000000000000000000000000000000000000000000N 00000000000NCONT   00    00000000000          00000000000000000000000000000000000000000000 000000000000000A000000000000000000000000000000000000000000000 000000000000000000000000000000000000000     00000000                                                                                                                        000000000000000000
F0010000008195000002000089070997800041450500000000000000000201602010002001CENTRAL DE TORNILLOS                              C000000001750000000000000000000000100010010000000000000000000000F0010000008195000220160201000101 00000000000000000000000000000000000000000000000000000000000000000000000000000000000000000000000000000000000000000N 00000000000NCONT   00    00000000000          00000000000000000000000000000000000000000000 000000000000000A000000000000000000000000000000000000000000000 000000000000000000000000000000000000000     00000000                                                                                                                        000000000000000000
F0010000008195000003000089070997800042505000000000000000000201602010002001CENTRAL DE TORNILLOS                              C000000000200000000000000000000000100010010000000000000000000000F0010000008195000320160201000101 00000000000000000000000000000000000000000000000000000000000000000000000000000000000000000000000000000000000000000N 00000000000NCONT   00    00000000000          00000000000000000000000000000000000000000000 000000000000000A000000000000000000000000000000000000000000000 000000000000000000000000000000000000000     00000000                                                                                                                        000000000000000000
F0010000008195000004000089070997800023658300000000000000000201602010002001CENTRAL DE TORNILLOS                              C000000000014000000000000000000000100010010000000000000000000000F0010000008195000420160201000101 00000000000000000000000000000000000000000000000000000000000000000000000000000000000000000000000000000000000000000N 00000000000NCONT   00    00000000000          00000000000000000000000000000000000000000000 000000000000000A000000000000000000000000000000000000000000000 000000000000000000000000000000000000000     00000000                                                                                                                        000000000000000000
F0010000008195000005000089070997800013552100000000000000000201602010002001CENTRAL DE TORNILLOS                              D000000000014000000000000000000000100010010000000000000000000000F0010000008195000520160201000101 00000000000000000000000000000000000000000000000000000000000000000000000000000000000000000000000000000000000000000N 00000000000NCONT   00    00000000000          00000000000000000000000000000000000000000000 000000000000000A000000000000000000000000000000000000000000000 000000000000000000000000000000000000000     00000000                                                                                                                        000000000000000000
F0010000008195100001000089070997800011050500000000000000000201602010002001CENTRAL DE TORNILLOS                              D000000002000000000000000000000000100010010000000000000000000000F0010000008195100120160201000101 00000000000000000000000000000000000000000000000000000000000000000000000000000000000000000000000000000000000000000N 00000000000NCONT   00    00000000000          00000000000000000000000000000000000000000000 000000000000000A000000000000000000000000000000000000000000000 000000000000000000000000000000000000000     00000000                                                                                                                        000000000000000000
F0010000008195100002000089070997800041450500000000000000000201602010002001CENTRAL DE TORNILLOS                              C000000001800000000000000000000000100010010000000000000000000000F0010000008195100220160201000101 00000000000000000000000000000000000000000000000000000000000000000000000000000000000000000000000000000000000000000N 00000000000NCONT   00    00000000000          00000000000000000000000000000000000000000000 000000000000000A000000000000000000000000000000000000000000000 000000000000000000000000000000000000000     00000000                                                                                                                        000000000000000000
F0010000008195100003000089070997800042505000000000000000000201602010002001CENTRAL DE TORNILLOS                              C000000000200000000000000000000000100010010000000000000000000000F0010000008195100320160201000101 00000000000000000000000000000000000000000000000000000000000000000000000000000000000000000000000000000000000000000N 00000000000NCONT   00    00000000000          00000000000000000000000000000000000000000000 000000000000000A000000000000000000000000000000000000000000000 000000000000000000000000000000000000000     00000000                                                                                                                        000000000000000000
F0010000008195100004000089070997800023658300000000000000000201602010002001CENTRAL DE TORNILLOS                              C000000000014400000000000000000000100010010000000000000000000000F0010000008195100420160201000101 00000000000000000000000000000000000000000000000000000000000000000000000000000000000000000000000000000000000000000N 00000000000NCONT   00    00000000000          00000000000000000000000000000000000000000000 000000000000000A000000000000000000000000000000000000000000000 000000000000000000000000000000000000000     00000000                                                                                                                        000000000000000000
F0010000008195100005000089070997800013552100000000000000000201602010002001CENTRAL DE TORNILLOS                              D000000000014400000000000000000000100010010000000000000000000000F0010000008195100520160201000101 00000000000000000000000000000000000000000000000000000000000000000000000000000000000000000000000000000000000000000N 00000000000NCONT   00    00000000000          00000000000000000000000000000000000000000000 000000000000000A000000000000000000000000000000000000000000000 000000000000000000000000000000000000000     00000000                                                                                                                        000000000000000000
F0010000008195200001000089070997800011050500000000000000000201602010002001CENTRAL DE TORNILLOS                              D000000001950000000000000000000000100010010000000000000000000000F0010000008195200120160201000101 00000000000000000000000000000000000000000000000000000000000000000000000000000000000000000000000000000000000000000N 00000000000NCONT   00    00000000000          00000000000000000000000000000000000000000000 000000000000000A000000000000000000000000000000000000000000000 000000000000000000000000000000000000000     00000000                                                                                                                        000000000000000000
F0010000008195200002000089070997800041450500000000000000000201602010002001CENTRAL DE TORNILLOS                              C000000001750000000000000000000000100010010000000000000000000000F0010000008195200220160201000101 00000000000000000000000000000000000000000000000000000000000000000000000000000000000000000000000000000000000000000N 00000000000NCONT   00    00000000000          00000000000000000000000000000000000000000000 000000000000000A000000000000000000000000000000000000000000000 000000000000000000000000000000000000000     00000000                                                                                                                        000000000000000000
F0010000008195200003000089070997800042505000000000000000000201602010002001CENTRAL DE TORNILLOS                              C000000000200000000000000000000000100010010000000000000000000000F0010000008195200320160201000101 00000000000000000000000000000000000000000000000000000000000000000000000000000000000000000000000000000000000000000N 00000000000NCONT   00    00000000000          00000000000000000000000000000000000000000000 000000000000000A000000000000000000000000000000000000000000000 000000000000000000000000000000000000000     00000000                                                                                                                        000000000000000000
F0010000008195200004000089070997800023658300000000000000000201602010002001CENTRAL DE TORNILLOS                              C000000000014000000000000000000000100010010000000000000000000000F0010000008195200420160201000101 00000000000000000000000000000000000000000000000000000000000000000000000000000000000000000000000000000000000000000N 00000000000NCONT   00    00000000000          00000000000000000000000000000000000000000000 000000000000000A000000000000000000000000000000000000000000000 000000000000000000000000000000000000000     00000000                                                                                                                        000000000000000000
F0010000008195200005000089070997800013552100000000000000000201602010002001CENTRAL DE TORNILLOS                              D000000000014000000000000000000000100010010000000000000000000000F0010000008195200520160201000101 00000000000000000000000000000000000000000000000000000000000000000000000000000000000000000000000000000000000000000N 00000000000NCONT   00    00000000000          00000000000000000000000000000000000000000000 000000000000000A000000000000000000000000000000000000000000000 000000000000000000000000000000000000000     00000000                                                                                                                        000000000000000000
F0010000008195300001000089070997800011050500000000000000000201602010002001CENTRAL DE TORNILLOS                              D000000004000000000000000000000000100010010000000000000000000000F0010000008195300120160201000101 00000000000000000000000000000000000000000000000000000000000000000000000000000000000000000000000000000000000000000N 00000000000NCONT   00    00000000000          00000000000000000000000000000000000000000000 000000000000000A000000000000000000000000000000000000000000000 000000000000000000000000000000000000000     00000000                                                                                                                        000000000000000000
F0010000008195300002000089070997800041450500000000000000000201602010002001CENTRAL DE TORNILLOS                              C000000003600000000000000000000000100010010000000000000000000000F0010000008195300220160201000101 00000000000000000000000000000000000000000000000000000000000000000000000000000000000000000000000000000000000000000N 00000000000NCONT   00    00000000000          00000000000000000000000000000000000000000000 000000000000000A000000000000000000000000000000000000000000000 000000000000000000000000000000000000000     00000000                                                                                                                        000000000000000000
F0010000008195300003000089070997800042505000000000000000000201602010002001CENTRAL DE TORNILLOS                              C000000000400000000000000000000000100010010000000000000000000000F0010000008195300320160201000101 00000000000000000000000000000000000000000000000000000000000000000000000000000000000000000000000000000000000000000N 00000000000NCONT   00    00000000000          00000000000000000000000000000000000000000000 000000000000000A000000000000000000000000000000000000000000000 000000000000000000000000000000000000000     00000000                                                                                                                        000000000000000000
F0010000008195300004000089070997800023658300000000000000000201602010002001CENTRAL DE TORNILLOS                              C000000000028800000000000000000000100010010000000000000000000000F0010000008195300420160201000101 00000000000000000000000000000000000000000000000000000000000000000000000000000000000000000000000000000000000000000N 00000000000NCONT   00    00000000000          00000000000000000000000000000000000000000000 000000000000000A000000000000000000000000000000000000000000000 000000000000000000000000000000000000000     00000000                                                                                                                        000000000000000000
F0010000008195300005000089070997800013552100000000000000000201602010002001CENTRAL DE TORNILLOS                              D000000000028800000000000000000000100010010000000000000000000000F0010000008195300520160201000101 00000000000000000000000000000000000000000000000000000000000000000000000000000000000000000000000000000000000000000N 00000000000NCONT   00    00000000000          00000000000000000000000000000000000000000000 000000000000000A000000000000000000000000000000000000000000000 000000000000000000000000000000000000000     00000000                                                                                                                        000000000000000000
F0010000008195400001000080023327700011050500000000000000000201602010002001DISINCO LTDA                                      D000000004000000000000000000000000100010010000000000000000000000F0010000008195400120160201000101 00000000000000000000000000000000000000000000000000000000000000000000000000000000000000000000000000000000000000000N 00000000000NCONT   00    00000000000          00000000000000000000000000000000000000000000 000000000000000A000000000000000000000000000000000000000000000 000000000000000000000000000000000000000     00000000                                                                                                                        000000000000000000
F0010000008195400002000080023327700041450500000000000000000201602010002001DISINCO LTDA                                      C000000003900000000000000000000000100010010000000000000000000000F0010000008195400220160201000101 00000000000000000000000000000000000000000000000000000000000000000000000000000000000000000000000000000000000000000N 00000000000NCONT   00    00000000000          00000000000000000000000000000000000000000000 000000000000000A000000000000000000000000000000000000000000000 000000000000000000000000000000000000000     00000000                                                                                                                        000000000000000000
F0010000008195400003000080023327700042505000000000000000000201602010002001DISINCO LTDA                                      C000000000100000000000000000000000100010010000000000000000000000F0010000008195400320160201000101 00000000000000000000000000000000000000000000000000000000000000000000000000000000000000000000000000000000000000000N 00000000000NCONT   00    00000000000          00000000000000000000000000000000000000000000 000000000000000A000000000000000000000000000000000000000000000 000000000000000000000000000000000000000     00000000                                                                                                                        000000000000000000
F0010000008195400004000080023327700023658300000000000000000201602010002001DISINCO LTDA                                      C000000000031200000000000000000000100010010000000000000000000000F0010000008195400420160201000101 00000000000000000000000000000000000000000000000000000000000000000000000000000000000000000000000000000000000000000N 00000000000NCONT   00    00000000000          00000000000000000000000000000000000000000000 000000000000000A000000000000000000000000000000000000000000000 000000000000000000000000000000000000000     00000000                                                                                                                        000000000000000000
F0010000008195400005000080023327700013552100000000000000000201602010002001DISINCO LTDA                                      D000000000031200000000000000000000100010010000000000000000000000F0010000008195400520160201000101 00000000000000000000000000000000000000000000000000000000000000000000000000000000000000000000000000000000000000000N 00000000000NCONT   00    00000000000          00000000000000000000000000000000000000000000 000000000000000A000000000000000000000000000000000000000000000 000000000000000000000000000000000000000     00000000                                                                                                                        000000000000000000
F0010000008195500001000000870907300011050500000000000000000201602010002001SURTIDOR FERRETERO                                D000000004500000000000000000000000100010010000000000000000000000F0010000008195500120160201000101 00000000000000000000000000000000000000000000000000000000000000000000000000000000000000000000000000000000000000000N 00000000000NCONT   00    00000000000          00000000000000000000000000000000000000000000 000000000000000A000000000000000000000000000000000000000000000 000000000000000000000000000000000000000     00000000                                                                                                                        000000000000000000
F0010000008195500002000000870907300041450500000000000000000201602010002001SURTIDOR FERRETERO                                C000000003200000000000000000000000100010010000000000000000000000F0010000008195500220160201000101 00000000000000000000000000000000000000000000000000000000000000000000000000000000000000000000000000000000000000000N 00000000000NCONT   00    00000000000          00000000000000000000000000000000000000000000 000000000000000A000000000000000000000000000000000000000000000 000000000000000000000000000000000000000     00000000                                                                                                                        000000000000000000
F0010000008195500003000000870907300042505000000000000000000201602010002001SURTIDOR FERRETERO                                C000000001300000000000000000000000100010010000000000000000000000F0010000008195500320160201000101 00000000000000000000000000000000000000000000000000000000000000000000000000000000000000000000000000000000000000000N 00000000000NCONT   00    00000000000          00000000000000000000000000000000000000000000 000000000000000A000000000000000000000000000000000000000000000 000000000000000000000000000000000000000     00000000                                                                                                                        000000000000000000
F0010000008195500004000000870907300023658300000000000000000201602010002001SURTIDOR FERRETERO                                C000000000025600000000000000000000100010010000000000000000000000F0010000008195500420160201000101 00000000000000000000000000000000000000000000000000000000000000000000000000000000000000000000000000000000000000000N 00000000000NCONT   00    00000000000          00000000000000000000000000000000000000000000 000000000000000A000000000000000000000000000000000000000000000 000000000000000000000000000000000000000     00000000                                                                                                                        000000000000000000
F0010000008195500005000000870907300013552100000000000000000201602010002001SURTIDOR FERRETERO                                D000000000025600000000000000000000100010010000000000000000000000F0010000008195500520160201000101 00000000000000000000000000000000000000000000000000000000000000000000000000000000000000000000000000000000000000000N 00000000000NCONT   00    00000000000          00000000000000000000000000000000000000000000 000000000000000A000000000000000000000000000000000000000000000 000000000000000000000000000000000000000     00000000                                                                                                                        000000000000000000
F0010000008195600001000000870907300011050500000000000000000201602010002001SURTIDOR FERRETERO                                D000000001700000000000000000000000100010010000000000000000000000F0010000008195600120160201000101 00000000000000000000000000000000000000000000000000000000000000000000000000000000000000000000000000000000000000000N 00000000000NCONT   00    00000000000          00000000000000000000000000000000000000000000 000000000000000A000000000000000000000000000000000000000000000 000000000000000000000000000000000000000     00000000                                                                                                                        000000000000000000
F0010000008195600002000000870907300041450500000000000000000201602010002001SURTIDOR FERRETERO                                C000000000800000000000000000000000100010010000000000000000000000F0010000008195600220160201000101 00000000000000000000000000000000000000000000000000000000000000000000000000000000000000000000000000000000000000000N 00000000000NCONT   00    00000000000          00000000000000000000000000000000000000000000 000000000000000A000000000000000000000000000000000000000000000 000000000000000000000000000000000000000     00000000                                                                                                                        000000000000000000
F0010000008195600003000000870907300042505000000000000000000201602010002001SURTIDOR FERRETERO                                C000000000900000000000000000000000100010010000000000000000000000F0010000008195600320160201000101 00000000000000000000000000000000000000000000000000000000000000000000000000000000000000000000000000000000000000000N 00000000000NCONT   00    00000000000          00000000000000000000000000000000000000000000 000000000000000A000000000000000000000000000000000000000000000 000000000000000000000000000000000000000     00000000                                                                                                                        000000000000000000
F0010000008195600004000000870907300023658300000000000000000201602010002001SURTIDOR FERRETERO                                C000000000006400000000000000000000100010010000000000000000000000F0010000008195600420160201000101 00000000000000000000000000000000000000000000000000000000000000000000000000000000000000000000000000000000000000000N 00000000000NCONT   00    00000000000          00000000000000000000000000000000000000000000 000000000000000A000000000000000000000000000000000000000000000 000000000000000000000000000000000000000     00000000                                                                                                                        000000000000000000
F0010000008195600005000000870907300013552100000000000000000201602010002001SURTIDOR FERRETERO                                D000000000006400000000000000000000100010010000000000000000000000F0010000008195600520160201000101 00000000000000000000000000000000000000000000000000000000000000000000000000000000000000000000000000000000000000000N 00000000000NCONT   00    00000000000          00000000000000000000000000000000000000000000 000000000000000A000000000000000000000000000000000000000000000 000000000000000000000000000000000000000     00000000                                                                                                                        000000000000000000
F0010000008195700001000090050144800011050500000000000000000201602010002001PLASTICOS JR ASOCIADOS SAS                        D000000003200000000000000000000000100010010000000000000000000000F0010000008195700120160201000101 00000000000000000000000000000000000000000000000000000000000000000000000000000000000000000000000000000000000000000N 00000000000NCONT   00    00000000000          00000000000000000000000000000000000000000000 000000000000000A000000000000000000000000000000000000000000000 000000000000000000000000000000000000000     00000000                                                                                                                        000000000000000000
F0010000008195700002000090050144800041450500000000000000000201602010002001PLASTICOS JR ASOCIADOS SAS                        C000000002700000000000000000000000100010010000000000000000000000F0010000008195700220160201000101 00000000000000000000000000000000000000000000000000000000000000000000000000000000000000000000000000000000000000000N 00000000000NCONT   00    00000000000          00000000000000000000000000000000000000000000 000000000000000A000000000000000000000000000000000000000000000 000000000000000000000000000000000000000     00000000                                                                                                                        000000000000000000
F0010000008195700003000090050144800042505000000000000000000201602010002001PLASTICOS JR ASOCIADOS SAS                        C000000000500000000000000000000000100010010000000000000000000000F0010000008195700320160201000101 00000000000000000000000000000000000000000000000000000000000000000000000000000000000000000000000000000000000000000N 00000000000NCONT   00    00000000000          00000000000000000000000000000000000000000000 000000000000000A000000000000000000000000000000000000000000000 000000000000000000000000000000000000000     00000000                                                                                                                        000000000000000000
F0010000008195700004000090050144800023658300000000000000000201602010002001PLASTICOS JR ASOCIADOS SAS                        C000000000021600000000000000000000100010010000000000000000000000F0010000008195700420160201000101 00000000000000000000000000000000000000000000000000000000000000000000000000000000000000000000000000000000000000000N 00000000000NCONT   00    00000000000          00000000000000000000000000000000000000000000 000000000000000A000000000000000000000000000000000000000000000 000000000000000000000000000000000000000     00000000                                                                                                                        000000000000000000
F0010000008195700005000090050144800013552100000000000000000201602010002001PLASTICOS JR ASOCIADOS SAS                        D000000000021600000000000000000000100010010000000000000000000000F0010000008195700520160201000101 00000000000000000000000000000000000000000000000000000000000000000000000000000000000000000000000000000000000000000N 00000000000NCONT   00    00000000000          00000000000000000000000000000000000000000000 000000000000000A000000000000000000000000000000000000000000000 000000000000000000000000000000000000000     00000000                                                                                                                        000000000000000000
F0010000008195800001000090050144800011050500000000000000000201602010002001PLASTICOS JR ASOCIADOS SAS                        D000000005000000000000000000000000100010010000000000000000000000F0010000008195800120160201000101 00000000000000000000000000000000000000000000000000000000000000000000000000000000000000000000000000000000000000000N 00000000000NCONT   00    00000000000          00000000000000000000000000000000000000000000 000000000000000A000000000000000000000000000000000000000000000 000000000000000000000000000000000000000     00000000                                                                                                                        000000000000000000
F0010000008195800002000090050144800041450500000000000000000201602010002001PLASTICOS JR ASOCIADOS SAS                        C000000004500000000000000000000000100010010000000000000000000000F0010000008195800220160201000101 00000000000000000000000000000000000000000000000000000000000000000000000000000000000000000000000000000000000000000N 00000000000NCONT   00    00000000000          00000000000000000000000000000000000000000000 000000000000000A000000000000000000000000000000000000000000000 000000000000000000000000000000000000000     00000000                                                                                                                        000000000000000000
F0010000008195800003000090050144800042505000000000000000000201602010002001PLASTICOS JR ASOCIADOS SAS                        C000000000500000000000000000000000100010010000000000000000000000F0010000008195800320160201000101 00000000000000000000000000000000000000000000000000000000000000000000000000000000000000000000000000000000000000000N 00000000000NCONT   00    00000000000          00000000000000000000000000000000000000000000 000000000000000A000000000000000000000000000000000000000000000 000000000000000000000000000000000000000     00000000                                                                                                                        000000000000000000
F0010000008195800004000090050144800023658300000000000000000201602010002001PLASTICOS JR ASOCIADOS SAS                        C000000000036000000000000000000000100010010000000000000000000000F0010000008195800420160201000101 00000000000000000000000000000000000000000000000000000000000000000000000000000000000000000000000000000000000000000N 00000000000NCONT   00    00000000000          00000000000000000000000000000000000000000000 000000000000000A000000000000000000000000000000000000000000000 000000000000000000000000000000000000000     00000000                                                                                                                        000000000000000000
F0010000008195800005000090050144800013552100000000000000000201602010002001PLASTICOS JR ASOCIADOS SAS                        D000000000036000000000000000000000100010010000000000000000000000F0010000008195800520160201000101 00000000000000000000000000000000000000000000000000000000000000000000000000000000000000000000000000000000000000000N 00000000000NCONT   00    00000000000          00000000000000000000000000000000000000000000 000000000000000A000000000000000000000000000000000000000000000 000000000000000000000000000000000000000     00000000                                                                                                                        000000000000000000
F0010000008195900001000003314755400011050500000000000000000201602010002001RUMATEX DE COLOMBIA                               D000000002800000000000000000000000100010010000000000000000000000F0010000008195900120160201000101 00000000000000000000000000000000000000000000000000000000000000000000000000000000000000000000000000000000000000000N 00000000000NCONT   00    00000000000          00000000000000000000000000000000000000000000 000000000000000A000000000000000000000000000000000000000000000 000000000000000000000000000000000000000     00000000                                                                                                                        000000000000000000
F0010000008195900002000003314755400041450500000000000000000201602010002001RUMATEX DE COLOMBIA                               C000000001800000000000000000000000100010010000000000000000000000F0010000008195900220160201000101 00000000000000000000000000000000000000000000000000000000000000000000000000000000000000000000000000000000000000000N 00000000000NCONT   00    00000000000          00000000000000000000000000000000000000000000 000000000000000A000000000000000000000000000000000000000000000 000000000000000000000000000000000000000     00000000                                                                                                                        000000000000000000
