F0010000007984900001000090052543100013050500000000000000000201512030002001SECRET COLOR SAS                                  D000000008750000000000000000000000100010010000000000000000000000F0010000007984900120151203000101 00000000000000000000000000000000000000000000000000000000000000000000000000000000000000000000000000000000000000000N 00000000000NCONT   00    00000000000          00000000000000000000000000000000000000000000 000000000000000A000000000000000000000000000000000000000000000 000000000000000000000000000000000000000     00000000                                                                                                                        000000000000000000
F0010000007984900002000090052543100041450500000000000000000201512030002001SECRET COLOR SAS                                  C000000008300000000000000000000000100010010000000000000000000000F0010000007984900220151203000101 00000000000000000000000000000000000000000000000000000000000000000000000000000000000000000000000000000000000000000N 00000000000NCONT   00    00000000000          00000000000000000000000000000000000000000000 000000000000000A000000000000000000000000000000000000000000000 000000000000000000000000000000000000000     00000000                                                                                                                        000000000000000000
F0010000007984900003000090052543100042505000000000000000000201512030002001SECRET COLOR SAS                                  C000000000450000000000000000000000100010010000000000000000000000F0010000007984900320151203000101 00000000000000000000000000000000000000000000000000000000000000000000000000000000000000000000000000000000000000000N 00000000000NCONT   00    00000000000          00000000000000000000000000000000000000000000 000000000000000A000000000000000000000000000000000000000000000 000000000000000000000000000000000000000     00000000                                                                                                                        000000000000000000
F0010000007984900004000090052543100023658300000000000000000201512030002001SECRET COLOR SAS                                  C000000000066400000000000000000000100010010000000000000000000000F0010000007984900420151203000101 00000000000000000000000000000000000000000000000000000000000000000000000000000000000000000000000000000000000000000N 00000000000NCONT   00    00000000000          00000000000000000000000000000000000000000000 000000000000000A000000000000000000000000000000000000000000000 000000000000000000000000000000000000000     00000000                                                                                                                        000000000000000000
F0010000007984900005000090052543100013552100000000000000000201512030002001SECRET COLOR SAS                                  D000000000066400000000000000000000100010010000000000000000000000F0010000007984900520151203000101 00000000000000000000000000000000000000000000000000000000000000000000000000000000000000000000000000000000000000000N 00000000000NCONT   00    00000000000          00000000000000000000000000000000000000000000 000000000000000A000000000000000000000000000000000000000000000 000000000000000000000000000000000000000     00000000                                                                                                                        000000000000000000
F0010000007985000001000081102758700013050500000000000000000201512030002001C.I. ABRACOL S.A EMA                              D000000089538800000000000000000000100010010000000000000000000000F0010000007985000120151203000101 00000000000000000000000000000000000000000000000000000000000000000000000000000000000000000000000000000000000000000N 00000000000NCONT   00    00000000000          00000000000000000000000000000000000000000000 000000000000000A000000000000000000000000000000000000000000000 000000000000000000000000000000000000000     00000000                                                                                                                        000000000000000000
F0010000007985000002000081102758700041450500000000000000000201512030002001C.I. ABRACOL S.A EMA                              C000000057730000000000000000000000100010010000000000000000000000F0010000007985000220151203000101 00000000000000000000000000000000000000000000000000000000000000000000000000000000000000000000000000000000000000000N 00000000000NCONT   00    00000000000          00000000000000000000000000000000000000000000 000000000000000A000000000000000000000000000000000000000000000 000000000000000000000000000000000000000     00000000                                                                                                                        000000000000000000
F0010000007985000003000081102758700041750100000000000000000201512030002001C.I. ABRACOL S.A EMA                              D000000001731900000000000000000000100010010000000000000000000000F0010000007985000320151203000101 00000000000000000000000000000000000000000000000000000000000000000000000000000000000000000000000000000000000000000N 00000000000NCONT   00    00000000000          00000000000000000000000000000000000000000000 000000000000000A000000000000000000000000000000000000000000000 000000000000000000000000000000000000000     00000000                                                                                                                        000000000000000000
F0010000007985000004000081102758700042505000000000000000000201512030002001C.I. ABRACOL S.A EMA                              C000000033540700000000000000000000100010010000000000000000000000F0010000007985000420151203000101 00000000000000000000000000000000000000000000000000000000000000000000000000000000000000000000000000000000000000000N 00000000000NCONT   00    00000000000          00000000000000000000000000000000000000000000 000000000000000A000000000000000000000000000000000000000000000 000000000000000000000000000000000000000     00000000                                                                                                                        000000000000000000
F0010000007985000005000081102758700023658300000000000000000201512030002001C.I. ABRACOL S.A EMA                              C000000000461800000000000000000000100010010000000000000000000000F0010000007985000520151203000101 00000000000000000000000000000000000000000000000000000000000000000000000000000000000000000000000000000000000000000N 00000000000NCONT   00    00000000000          00000000000000000000000000000000000000000000 000000000000000A000000000000000000000000000000000000000000000 000000000000000000000000000000000000000     00000000                                                                                                                        000000000000000000
F0010000007985000006000081102758700013552100000000000000000201512030002001C.I. ABRACOL S.A EMA                              D000000000461800000000000000000000100010010000000000000000000000F0010000007985000620151203000101 00000000000000000000000000000000000000000000000000000000000000000000000000000000000000000000000000000000000000000N 00000000000NCONT   00    00000000000          00000000000000000000000000000000000000000000 000000000000000A000000000000000000000000000000000000000000000 000000000000000000000000000000000000000     00000000                                                                                                                        000000000000000000
F0010000007985100001000081102758700013050500000000000000000201512030002001C.I. ABRACOL S.A EMA                              D000000078346300000000000000000000100010010000000000000000000000F0010000007985100120151203000101 00000000000000000000000000000000000000000000000000000000000000000000000000000000000000000000000000000000000000000N 00000000000NCONT   00    00000000000          00000000000000000000000000000000000000000000 000000000000000A000000000000000000000000000000000000000000000 000000000000000000000000000000000000000     00000000                                                                                                                        000000000000000000
F0010000007985100002000081102758700041450500000000000000000201512030002001C.I. ABRACOL S.A EMA                              C000000057358000000000000000000000100010010000000000000000000000F0010000007985100220151203000101 00000000000000000000000000000000000000000000000000000000000000000000000000000000000000000000000000000000000000000N 00000000000NCONT   00    00000000000          00000000000000000000000000000000000000000000 000000000000000A000000000000000000000000000000000000000000000 000000000000000000000000000000000000000     00000000                                                                                                                        000000000000000000
F0010000007985100003000081102758700041750100000000000000000201512030002001C.I. ABRACOL S.A EMA                              D000000001720700000000000000000000100010010000000000000000000000F0010000007985100320151203000101 00000000000000000000000000000000000000000000000000000000000000000000000000000000000000000000000000000000000000000N 00000000000NCONT   00    00000000000          00000000000000000000000000000000000000000000 000000000000000A000000000000000000000000000000000000000000000 000000000000000000000000000000000000000     00000000                                                                                                                        000000000000000000
F0010000007985100004000081102758700042505000000000000000000201512030002001C.I. ABRACOL S.A EMA                              C000000022709000000000000000000000100010010000000000000000000000F0010000007985100420151203000101 00000000000000000000000000000000000000000000000000000000000000000000000000000000000000000000000000000000000000000N 00000000000NCONT   00    00000000000          00000000000000000000000000000000000000000000 000000000000000A000000000000000000000000000000000000000000000 000000000000000000000000000000000000000     00000000                                                                                                                        000000000000000000
F0010000007985100005000081102758700023658300000000000000000201512030002001C.I. ABRACOL S.A EMA                              C000000000458900000000000000000000100010010000000000000000000000F0010000007985100520151203000101 00000000000000000000000000000000000000000000000000000000000000000000000000000000000000000000000000000000000000000N 00000000000NCONT   00    00000000000          00000000000000000000000000000000000000000000 000000000000000A000000000000000000000000000000000000000000000 000000000000000000000000000000000000000     00000000                                                                                                                        000000000000000000
F0010000007985100006000081102758700013552100000000000000000201512030002001C.I. ABRACOL S.A EMA                              D000000000458900000000000000000000100010010000000000000000000000F0010000007985100620151203000101 00000000000000000000000000000000000000000000000000000000000000000000000000000000000000000000000000000000000000000N 00000000000NCONT   00    00000000000          00000000000000000000000000000000000000000000 000000000000000A000000000000000000000000000000000000000000000 000000000000000000000000000000000000000     00000000                                                                                                                        000000000000000000
F0010000007985200001000080200863700013050500000000000000000201512030002001COPIN S.A.S                                       D000000081699700000000000000000000100010010000000000000000000000F0010000007985200120151203000101 00000000000000000000000000000000000000000000000000000000000000000000000000000000000000000000000000000000000000000N 00000000000NCONT   00    00000000000          00000000000000000000000000000000000000000000 000000000000000A000000000000000000000000000000000000000000000 000000000000000000000000000000000000000     00000000                                                                                                                        000000000000000000
F0010000007985200002000080200863700041450500000000000000000201512030002001COPIN S.A.S                                       C000000071090000000000000000000000100010010000000000000000000000F0010000007985200220151203000101 00000000000000000000000000000000000000000000000000000000000000000000000000000000000000000000000000000000000000000N 00000000000NCONT   00    00000000000          00000000000000000000000000000000000000000000 000000000000000A000000000000000000000000000000000000000000000 000000000000000000000000000000000000000     00000000                                                                                                                        000000000000000000
F0010000007985200003000080200863700042505000000000000000000201512030002001COPIN S.A.S                                       C000000010609700000000000000000000100010010000000000000000000000F0010000007985200320151203000101 00000000000000000000000000000000000000000000000000000000000000000000000000000000000000000000000000000000000000000N 00000000000NCONT   00    00000000000          00000000000000000000000000000000000000000000 000000000000000A000000000000000000000000000000000000000000000 000000000000000000000000000000000000000     00000000                                                                                                                        000000000000000000
F0010000007985200004000080200863700023658300000000000000000201512030002001COPIN S.A.S                                       C000000000568700000000000000000000100010010000000000000000000000F0010000007985200420151203000101 00000000000000000000000000000000000000000000000000000000000000000000000000000000000000000000000000000000000000000N 00000000000NCONT   00    00000000000          00000000000000000000000000000000000000000000 000000000000000A000000000000000000000000000000000000000000000 000000000000000000000000000000000000000     00000000                                                                                                                        000000000000000000
F0010000007985200005000080200863700013552100000000000000000201512030002001COPIN S.A.S                                       D000000000568700000000000000000000100010010000000000000000000000F0010000007985200520151203000101 00000000000000000000000000000000000000000000000000000000000000000000000000000000000000000000000000000000000000000N 00000000000NCONT   00    00000000000          00000000000000000000000000000000000000000000 000000000000000A000000000000000000000000000000000000000000000 000000000000000000000000000000000000000     00000000                                                                                                                        000000000000000000
F0010000007985300001000089011492400013050500000000000000000201512030002001AGE. CAUCHO SOL DE LA COSTA  SAS                  D000000081023900000000000000000000100010010000000000000000000000F0010000007985300120151203000101 00000000000000000000000000000000000000000000000000000000000000000000000000000000000000000000000000000000000000000N 00000000000NCONT   00    00000000000          00000000000000000000000000000000000000000000 000000000000000A000000000000000000000000000000000000000000000 000000000000000000000000000000000000000     00000000                                                                                                                        000000000000000000
F0010000007985300002000089011492400041450500000000000000000201512030002001AGE. CAUCHO SOL DE LA COSTA  SAS                  C000000048940000000000000000000000100010010000000000000000000000F0010000007985300220151203000101 00000000000000000000000000000000000000000000000000000000000000000000000000000000000000000000000000000000000000000N 00000000000NCONT   00    00000000000          00000000000000000000000000000000000000000000 000000000000000A000000000000000000000000000000000000000000000 000000000000000000000000000000000000000     00000000                                                                                                                        000000000000000000
F0010000007985300003000089011492400042505000000000000000000201512030002001AGE. CAUCHO SOL DE LA COSTA  SAS                  C000000032083900000000000000000000100010010000000000000000000000F0010000007985300320151203000101 00000000000000000000000000000000000000000000000000000000000000000000000000000000000000000000000000000000000000000N 00000000000NCONT   00    00000000000          00000000000000000000000000000000000000000000 000000000000000A000000000000000000000000000000000000000000000 000000000000000000000000000000000000000     00000000                                                                                                                        000000000000000000
F0010000007985300004000089011492400023658300000000000000000201512030002001AGE. CAUCHO SOL DE LA COSTA  SAS                  C000000000391500000000000000000000100010010000000000000000000000F0010000007985300420151203000101 00000000000000000000000000000000000000000000000000000000000000000000000000000000000000000000000000000000000000000N 00000000000NCONT   00    00000000000          00000000000000000000000000000000000000000000 000000000000000A000000000000000000000000000000000000000000000 000000000000000000000000000000000000000     00000000                                                                                                                        000000000000000000
F0010000007985300005000089011492400013552100000000000000000201512030002001AGE. CAUCHO SOL DE LA COSTA  SAS                  D000000000391500000000000000000000100010010000000000000000000000F0010000007985300520151203000101 00000000000000000000000000000000000000000000000000000000000000000000000000000000000000000000000000000000000000000N 00000000000NCONT   00    00000000000          00000000000000000000000000000000000000000000 000000000000000A000000000000000000000000000000000000000000000 000000000000000000000000000000000000000     00000000                                                                                                                        000000000000000000
F0010000007985400001000089011492400013050500000000000000000201512030002001AGE. CAUCHO SOL DE LA COSTA  SAS                  D000000172119200000000000000000000100010010000000000000000000000F0010000007985400120151203000101 00000000000000000000000000000000000000000000000000000000000000000000000000000000000000000000000000000000000000000N 00000000000NCONT   00    00000000000          00000000000000000000000000000000000000000000 000000000000000A000000000000000000000000000000000000000000000 000000000000000000000000000000000000000     00000000                                                                                                                        000000000000000000
F0010000007985400002000089011492400041450500000000000000000201512030002001AGE. CAUCHO SOL DE LA COSTA  SAS                  C000000128380000000000000000000000100010010000000000000000000000F0010000007985400220151203000101 00000000000000000000000000000000000000000000000000000000000000000000000000000000000000000000000000000000000000000N 00000000000NCONT   00    00000000000          00000000000000000000000000000000000000000000 000000000000000A000000000000000000000000000000000000000000000 000000000000000000000000000000000000000     00000000                                                                                                                        000000000000000000
F0010000007985400003000089011492400042505000000000000000000201512030002001AGE. CAUCHO SOL DE LA COSTA  SAS                  C000000043739200000000000000000000100010010000000000000000000000F0010000007985400320151203000101 00000000000000000000000000000000000000000000000000000000000000000000000000000000000000000000000000000000000000000N 00000000000NCONT   00    00000000000          00000000000000000000000000000000000000000000 000000000000000A000000000000000000000000000000000000000000000 000000000000000000000000000000000000000     00000000                                                                                                                        000000000000000000
F0010000007985400004000089011492400023658300000000000000000201512030002001AGE. CAUCHO SOL DE LA COSTA  SAS                  C000000001027000000000000000000000100010010000000000000000000000F0010000007985400420151203000101 00000000000000000000000000000000000000000000000000000000000000000000000000000000000000000000000000000000000000000N 00000000000NCONT   00    00000000000          00000000000000000000000000000000000000000000 000000000000000A000000000000000000000000000000000000000000000 000000000000000000000000000000000000000     00000000                                                                                                                        000000000000000000
F0010000007985400005000089011492400013552100000000000000000201512030002001AGE. CAUCHO SOL DE LA COSTA  SAS                  D000000001027000000000000000000000100010010000000000000000000000F0010000007985400520151203000101 00000000000000000000000000000000000000000000000000000000000000000000000000000000000000000000000000000000000000000N 00000000000NCONT   00    00000000000          00000000000000000000000000000000000000000000 000000000000000A000000000000000000000000000000000000000000000 000000000000000000000000000000000000000     00000000                                                                                                                        000000000000000000
F0010000007985500001000089010952800013050500000000000000000201512030002001IND. LITOGRAF. BOSTON S.A.S.                      D000000084520000000000000000000000100010010000000000000000000000F0010000007985500120151203000101 00000000000000000000000000000000000000000000000000000000000000000000000000000000000000000000000000000000000000000N 00000000000NCONT   00    00000000000          00000000000000000000000000000000000000000000 000000000000000A000000000000000000000000000000000000000000000 000000000000000000000000000000000000000     00000000                                                                                                                        000000000000000000
F0010000007985500002000089010952800041450500000000000000000201512030002001IND. LITOGRAF. BOSTON S.A.S.                      C000000078120000000000000000000000100010010000000000000000000000F0010000007985500220151203000101 00000000000000000000000000000000000000000000000000000000000000000000000000000000000000000000000000000000000000000N 00000000000NCONT   00    00000000000          00000000000000000000000000000000000000000000 000000000000000A000000000000000000000000000000000000000000000 000000000000000000000000000000000000000     00000000                                                                                                                        000000000000000000
F0010000007985500003000089010952800042505000000000000000000201512030002001IND. LITOGRAF. BOSTON S.A.S.                      C000000006400000000000000000000000100010010000000000000000000000F0010000007985500320151203000101 00000000000000000000000000000000000000000000000000000000000000000000000000000000000000000000000000000000000000000N 00000000000NCONT   00    00000000000          00000000000000000000000000000000000000000000 000000000000000A000000000000000000000000000000000000000000000 000000000000000000000000000000000000000     00000000                                                                                                                        000000000000000000
F0010000007985500004000089010952800023658300000000000000000201512030002001IND. LITOGRAF. BOSTON S.A.S.                      C000000000625000000000000000000000100010010000000000000000000000F0010000007985500420151203000101 00000000000000000000000000000000000000000000000000000000000000000000000000000000000000000000000000000000000000000N 00000000000NCONT   00    00000000000          00000000000000000000000000000000000000000000 000000000000000A000000000000000000000000000000000000000000000 000000000000000000000000000000000000000     00000000                                                                                                                        000000000000000000
F0010000007985500005000089010952800013552100000000000000000201512030002001IND. LITOGRAF. BOSTON S.A.S.                      D000000000625000000000000000000000100010010000000000000000000000F0010000007985500520151203000101 00000000000000000000000000000000000000000000000000000000000000000000000000000000000000000000000000000000000000000N 00000000000NCONT   00    00000000000          00000000000000000000000000000000000000000000 000000000000000A000000000000000000000000000000000000000000000 000000000000000000000000000000000000000     00000000                                                                                                                        000000000000000000
F0010000007985600001000080022903500013050500000000000000000201512030002001TECNOGLASS S.A                                    D000000060457400000000000000000000100010010000000000000000000000F0010000007985600120151203000101 00000000000000000000000000000000000000000000000000000000000000000000000000000000000000000000000000000000000000000N 00000000000NCONT   00    00000000000          00000000000000000000000000000000000000000000 000000000000000A000000000000000000000000000000000000000000000 000000000000000000000000000000000000000     00000000                                                                                                                        000000000000000000
F0010000007985600002000080022903500041450500000000000000000201512030002001TECNOGLASS S.A                                    C000000052817000000000000000000000100010010000000000000000000000F0010000007985600220151203000101 00000000000000000000000000000000000000000000000000000000000000000000000000000000000000000000000000000000000000000N 00000000000NCONT   00    00000000000          00000000000000000000000000000000000000000000 000000000000000A000000000000000000000000000000000000000000000 000000000000000000000000000000000000000     00000000                                                                                                                        000000000000000000
F0010000007985600003000080022903500042505000000000000000000201512030002001TECNOGLASS S.A                                    C000000007640400000000000000000000100010010000000000000000000000F0010000007985600320151203000101 00000000000000000000000000000000000000000000000000000000000000000000000000000000000000000000000000000000000000000N 00000000000NCONT   00    00000000000          00000000000000000000000000000000000000000000 000000000000000A000000000000000000000000000000000000000000000 000000000000000000000000000000000000000     00000000                                                                                                                        000000000000000000
F0010000007985600004000080022903500023658300000000000000000201512030002001TECNOGLASS S.A                                    C000000000422500000000000000000000100010010000000000000000000000F0010000007985600420151203000101 00000000000000000000000000000000000000000000000000000000000000000000000000000000000000000000000000000000000000000N 00000000000NCONT   00    00000000000          00000000000000000000000000000000000000000000 000000000000000A000000000000000000000000000000000000000000000 000000000000000000000000000000000000000     00000000                                                                                                                        000000000000000000
F0010000007985600005000080022903500013552100000000000000000201512030002001TECNOGLASS S.A                                    D000000000422500000000000000000000100010010000000000000000000000F0010000007985600520151203000101 00000000000000000000000000000000000000000000000000000000000000000000000000000000000000000000000000000000000000000N 00000000000NCONT   00    00000000000          00000000000000000000000000000000000000000000 000000000000000A000000000000000000000000000000000000000000000 000000000000000000000000000000000000000     00000000                                                                                                                        000000000000000000
F0010000007985700001000104241616200011050500000000000000000201512030002001MAICOL OSORIO BERTEL                              D000000005300000000000000000000000100010010000000000000000000000F0010000007985700120151203000101 00000000000000000000000000000000000000000000000000000000000000000000000000000000000000000000000000000000000000000N 00000000000NCONT   00    00000000000          00000000000000000000000000000000000000000000 000000000000000A000000000000000000000000000000000000000000000 000000000000000000000000000000000000000     00000000                                                                                                                        000000000000000000
F0010000007985700002000104241616200041450500000000000000000201512030002001MAICOL OSORIO BERTEL                              C000000004700000000000000000000000100010010000000000000000000000F0010000007985700220151203000101 00000000000000000000000000000000000000000000000000000000000000000000000000000000000000000000000000000000000000000N 00000000000NCONT   00    00000000000          00000000000000000000000000000000000000000000 000000000000000A000000000000000000000000000000000000000000000 000000000000000000000000000000000000000     00000000                                                                                                                        000000000000000000
F0010000007985700003000104241616200042505000000000000000000201512030002001MAICOL OSORIO BERTEL                              C000000000600000000000000000000000100010010000000000000000000000F0010000007985700320151203000101 00000000000000000000000000000000000000000000000000000000000000000000000000000000000000000000000000000000000000000N 00000000000NCONT   00    00000000000          00000000000000000000000000000000000000000000 000000000000000A000000000000000000000000000000000000000000000 000000000000000000000000000000000000000     00000000                                                                                                                        000000000000000000
F0010000007985700004000104241616200023658300000000000000000201512030002001MAICOL OSORIO BERTEL                              C000000000037600000000000000000000100010010000000000000000000000F0010000007985700420151203000101 00000000000000000000000000000000000000000000000000000000000000000000000000000000000000000000000000000000000000000N 00000000000NCONT   00    00000000000          00000000000000000000000000000000000000000000 000000000000000A000000000000000000000000000000000000000000000 000000000000000000000000000000000000000     00000000                                                                                                                        000000000000000000
F0010000007985700005000104241616200013552100000000000000000201512030002001MAICOL OSORIO BERTEL                              D000000000037600000000000000000000100010010000000000000000000000F0010000007985700520151203000101 00000000000000000000000000000000000000000000000000000000000000000000000000000000000000000000000000000000000000000N 00000000000NCONT   00    00000000000          00000000000000000000000000000000000000000000 000000000000000A000000000000000000000000000000000000000000000 000000000000000000000000000000000000000     00000000                                                                                                                        000000000000000000
F0010000007985800001000001535146600011050500000000000000000201512030002001ORLANDO OROZCO NAVARRO                            D000000003500000000000000000000000100010010000000000000000000000F0010000007985800120151203000101 00000000000000000000000000000000000000000000000000000000000000000000000000000000000000000000000000000000000000000N 00000000000NCONT   00    00000000000          00000000000000000000000000000000000000000000 000000000000000A000000000000000000000000000000000000000000000 000000000000000000000000000000000000000     00000000                                                                                                                        000000000000000000
F0010000007985800002000001535146600041450500000000000000000201512030002001ORLANDO OROZCO NAVARRO                            C000000003400000000000000000000000100010010000000000000000000000F0010000007985800220151203000101 00000000000000000000000000000000000000000000000000000000000000000000000000000000000000000000000000000000000000000N 00000000000NCONT   00    00000000000          00000000000000000000000000000000000000000000 000000000000000A000000000000000000000000000000000000000000000 000000000000000000000000000000000000000     00000000                                                                                                                        000000000000000000
F0010000007985800003000001535146600042505000000000000000000201512030002001ORLANDO OROZCO NAVARRO                            C000000000100000000000000000000000100010010000000000000000000000F0010000007985800320151203000101 00000000000000000000000000000000000000000000000000000000000000000000000000000000000000000000000000000000000000000N 00000000000NCONT   00    00000000000          00000000000000000000000000000000000000000000 000000000000000A000000000000000000000000000000000000000000000 000000000000000000000000000000000000000     00000000                                                                                                                        000000000000000000
F0010000007985800004000001535146600023658300000000000000000201512030002001ORLANDO OROZCO NAVARRO                            C000000000027200000000000000000000100010010000000000000000000000F0010000007985800420151203000101 00000000000000000000000000000000000000000000000000000000000000000000000000000000000000000000000000000000000000000N 00000000000NCONT   00    00000000000          00000000000000000000000000000000000000000000 000000000000000A000000000000000000000000000000000000000000000 000000000000000000000000000000000000000     00000000                                                                                                                        000000000000000000
F0010000007985800005000001535146600013552100000000000000000201512030002001ORLANDO OROZCO NAVARRO                            D000000000027200000000000000000000100010010000000000000000000000F0010000007985800520151203000101 00000000000000000000000000000000000000000000000000000000000000000000000000000000000000000000000000000000000000000N 00000000000NCONT   00    00000000000          00000000000000000000000000000000000000000000 000000000000000A000000000000000000000000000000000000000000000 000000000000000000000000000000000000000     00000000                                                                                                                        000000000000000000
F0010000007985900001000007213133300011050500000000000000000201512030002001ALVARO ALBERTO FANDIÑO GOMEZ                     D000000001000000000000000000000000100010010000000000000000000000F0010000007985900120151203000101 00000000000000000000000000000000000000000000000000000000000000000000000000000000000000000000000000000000000000000N 00000000000NCONT   00    00000000000          00000000000000000000000000000000000000000000 000000000000000A000000000000000000000000000000000000000000000 000000000000000000000000000000000000000     00000000                                                                                                                        000000000000000000
F0010000007985900002000007213133300041450500000000000000000201512030002001ALVARO ALBERTO FANDIÑO GOMEZ                     C000000000900000000000000000000000100010010000000000000000000000F0010000007985900220151203000101 00000000000000000000000000000000000000000000000000000000000000000000000000000000000000000000000000000000000000000N 00000000000NCONT   00    00000000000          00000000000000000000000000000000000000000000 000000000000000A000000000000000000000000000000000000000000000 000000000000000000000000000000000000000     00000000                                                                                                                        000000000000000000
F0010000007985900003000007213133300042505000000000000000000201512030002001ALVARO ALBERTO FANDIÑO GOMEZ                     C000000000100000000000000000000000100010010000000000000000000000F0010000007985900320151203000101 00000000000000000000000000000000000000000000000000000000000000000000000000000000000000000000000000000000000000000N 00000000000NCONT   00    00000000000          00000000000000000000000000000000000000000000 000000000000000A000000000000000000000000000000000000000000000 000000000000000000000000000000000000000     00000000                                                                                                                        000000000000000000
F0010000007985900004000007213133300023658300000000000000000201512030002001ALVARO ALBERTO FANDIÑO GOMEZ                     C000000000007200000000000000000000100010010000000000000000000000F0010000007985900420151203000101 00000000000000000000000000000000000000000000000000000000000000000000000000000000000000000000000000000000000000000N 00000000000NCONT   00    00000000000          00000000000000000000000000000000000000000000 000000000000000A000000000000000000000000000000000000000000000 000000000000000000000000000000000000000     00000000                                                                                                                        000000000000000000
F0010000007985900005000007213133300013552100000000000000000201512030002001ALVARO ALBERTO FANDIÑO GOMEZ                     D000000000007200000000000000000000100010010000000000000000000000F0010000007985900520151203000101 00000000000000000000000000000000000000000000000000000000000000000000000000000000000000000000000000000000000000000N 00000000000NCONT   00    00000000000          00000000000000000000000000000000000000000000 000000000000000A000000000000000000000000000000000000000000000 000000000000000000000000000000000000000     00000000                                                                                                                        000000000000000000
F0010000007986000001000086000061500011050500000000000000000201512030002001DISTRIBUIDORA CORDOBA                             D000000011850000000000000000000000100010010000000000000000000000F0010000007986000120151203000101 00000000000000000000000000000000000000000000000000000000000000000000000000000000000000000000000000000000000000000N 00000000000NCONT   00    00000000000          00000000000000000000000000000000000000000000 000000000000000A000000000000000000000000000000000000000000000 000000000000000000000000000000000000000     00000000                                                                                                                        000000000000000000
F0010000007986000002000086000061500041450500000000000000000201512030002001DISTRIBUIDORA CORDOBA                             C000000010200000000000000000000000100010010000000000000000000000F0010000007986000220151203000101 00000000000000000000000000000000000000000000000000000000000000000000000000000000000000000000000000000000000000000N 00000000000NCONT   00    00000000000          00000000000000000000000000000000000000000000 000000000000000A000000000000000000000000000000000000000000000 000000000000000000000000000000000000000     00000000                                                                                                                        000000000000000000
F0010000007986000003000086000061500042505000000000000000000201512030002001DISTRIBUIDORA CORDOBA                             C000000001650000000000000000000000100010010000000000000000000000F0010000007986000320151203000101 00000000000000000000000000000000000000000000000000000000000000000000000000000000000000000000000000000000000000000N 00000000000NCONT   00    00000000000          00000000000000000000000000000000000000000000 000000000000000A000000000000000000000000000000000000000000000 000000000000000000000000000000000000000     00000000                                                                                                                        000000000000000000
F0010000007986000004000086000061500023658300000000000000000201512030002001DISTRIBUIDORA CORDOBA                             C000000000081600000000000000000000100010010000000000000000000000F0010000007986000420151203000101 00000000000000000000000000000000000000000000000000000000000000000000000000000000000000000000000000000000000000000N 00000000000NCONT   00    00000000000          00000000000000000000000000000000000000000000 000000000000000A000000000000000000000000000000000000000000000 000000000000000000000000000000000000000     00000000                                                                                                                        000000000000000000
F0010000007986000005000086000061500013552100000000000000000201512030002001DISTRIBUIDORA CORDOBA                             D000000000081600000000000000000000100010010000000000000000000000F0010000007986000520151203000101 00000000000000000000000000000000000000000000000000000000000000000000000000000000000000000000000000000000000000000N 00000000000NCONT   00    00000000000          00000000000000000000000000000000000000000000 000000000000000A000000000000000000000000000000000000000000000 000000000000000000000000000000000000000     00000000                                                                                                                        000000000000000000
F0010000007986100001000089011069100011050500000000000000000201512030002001LA CASA DE LAS ALFOMBRAS LTDA                     D000000002000000000000000000000000100010010000000000000000000000F0010000007986100120151203000101 00000000000000000000000000000000000000000000000000000000000000000000000000000000000000000000000000000000000000000N 00000000000NCONT   00    00000000000          00000000000000000000000000000000000000000000 000000000000000A000000000000000000000000000000000000000000000 000000000000000000000000000000000000000     00000000                                                                                                                        000000000000000000
F0010000007986100002000089011069100041450500000000000000000201512030002001LA CASA DE LAS ALFOMBRAS LTDA                     C000000001600000000000000000000000100010010000000000000000000000F0010000007986100220151203000101 00000000000000000000000000000000000000000000000000000000000000000000000000000000000000000000000000000000000000000N 00000000000NCONT   00    00000000000          00000000000000000000000000000000000000000000 000000000000000A000000000000000000000000000000000000000000000 000000000000000000000000000000000000000     00000000                                                                                                                        000000000000000000
F0010000007986100003000089011069100042505000000000000000000201512030002001LA CASA DE LAS ALFOMBRAS LTDA                     C000000000400000000000000000000000100010010000000000000000000000F0010000007986100320151203000101 00000000000000000000000000000000000000000000000000000000000000000000000000000000000000000000000000000000000000000N 00000000000NCONT   00    00000000000          00000000000000000000000000000000000000000000 000000000000000A000000000000000000000000000000000000000000000 000000000000000000000000000000000000000     00000000                                                                                                                        000000000000000000
F0010000007986100004000089011069100023658300000000000000000201512030002001LA CASA DE LAS ALFOMBRAS LTDA                     C000000000012800000000000000000000100010010000000000000000000000F0010000007986100420151203000101 00000000000000000000000000000000000000000000000000000000000000000000000000000000000000000000000000000000000000000N 00000000000NCONT   00    00000000000          00000000000000000000000000000000000000000000 000000000000000A000000000000000000000000000000000000000000000 000000000000000000000000000000000000000     00000000                                                                                                                        000000000000000000
F0010000007986100005000089011069100013552100000000000000000201512030002001LA CASA DE LAS ALFOMBRAS LTDA                     D000000000012800000000000000000000100010010000000000000000000000F0010000007986100520151203000101 00000000000000000000000000000000000000000000000000000000000000000000000000000000000000000000000000000000000000000N 00000000000NCONT   00    00000000000          00000000000000000000000000000000000000000000 000000000000000A000000000000000000000000000000000000000000000 000000000000000000000000000000000000000     00000000                                                                                                                        000000000000000000
F0010000007986200001000001719393900011050500000000000000000201512030002001JAIRO BASTIDAS RAMIREZ                            D000000007000000000000000000000000100010010000000000000000000000F0010000007986200120151203000101 00000000000000000000000000000000000000000000000000000000000000000000000000000000000000000000000000000000000000000N 00000000000NCONT   00    00000000000          00000000000000000000000000000000000000000000 000000000000000A000000000000000000000000000000000000000000000 000000000000000000000000000000000000000     00000000                                                                                                                        000000000000000000
F0010000007986200002000001719393900041450500000000000000000201512030002001JAIRO BASTIDAS RAMIREZ                            C000000006000000000000000000000000100010010000000000000000000000F0010000007986200220151203000101 00000000000000000000000000000000000000000000000000000000000000000000000000000000000000000000000000000000000000000N 00000000000NCONT   00    00000000000          00000000000000000000000000000000000000000000 000000000000000A000000000000000000000000000000000000000000000 000000000000000000000000000000000000000     00000000                                                                                                                        000000000000000000
F0010000007986200003000001719393900042505000000000000000000201512030002001JAIRO BASTIDAS RAMIREZ                            C000000001000000000000000000000000100010010000000000000000000000F0010000007986200320151203000101 00000000000000000000000000000000000000000000000000000000000000000000000000000000000000000000000000000000000000000N 00000000000NCONT   00    00000000000          00000000000000000000000000000000000000000000 000000000000000A000000000000000000000000000000000000000000000 000000000000000000000000000000000000000     00000000                                                                                                                        000000000000000000
F0010000007986200004000001719393900023658300000000000000000201512030002001JAIRO BASTIDAS RAMIREZ                            C000000000048000000000000000000000100010010000000000000000000000F0010000007986200420151203000101 00000000000000000000000000000000000000000000000000000000000000000000000000000000000000000000000000000000000000000N 00000000000NCONT   00    00000000000          00000000000000000000000000000000000000000000 000000000000000A000000000000000000000000000000000000000000000 000000000000000000000000000000000000000     00000000                                                                                                                        000000000000000000
F0010000007986200005000001719393900013552100000000000000000201512030002001JAIRO BASTIDAS RAMIREZ                            D000000000048000000000000000000000100010010000000000000000000000F0010000007986200520151203000101 00000000000000000000000000000000000000000000000000000000000000000000000000000000000000000000000000000000000000000N 00000000000NCONT   00    00000000000          00000000000000000000000000000000000000000000 000000000000000A000000000000000000000000000000000000000000000 000000000000000000000000000000000000000     00000000                                                                                                                        000000000000000000
F0010000007986300001000001719393900011050500000000000000000201512030002001JAIRO BASTIDAS RAMIREZ                            D000000010000000000000000000000000100010010000000000000000000000F0010000007986300120151203000101 00000000000000000000000000000000000000000000000000000000000000000000000000000000000000000000000000000000000000000N 00000000000NCONT   00    00000000000          00000000000000000000000000000000000000000000 000000000000000A000000000000000000000000000000000000000000000 000000000000000000000000000000000000000     00000000                                                                                                                        000000000000000000
F0010000007986300002000001719393900041450500000000000000000201512030002001JAIRO BASTIDAS RAMIREZ                            C000000009000000000000000000000000100010010000000000000000000000F0010000007986300220151203000101 00000000000000000000000000000000000000000000000000000000000000000000000000000000000000000000000000000000000000000N 00000000000NCONT   00    00000000000          00000000000000000000000000000000000000000000 000000000000000A000000000000000000000000000000000000000000000 000000000000000000000000000000000000000     00000000                                                                                                                        000000000000000000
F0010000007986300003000001719393900042505000000000000000000201512030002001JAIRO BASTIDAS RAMIREZ                            C000000001000000000000000000000000100010010000000000000000000000F0010000007986300320151203000101 00000000000000000000000000000000000000000000000000000000000000000000000000000000000000000000000000000000000000000N 00000000000NCONT   00    00000000000          00000000000000000000000000000000000000000000 000000000000000A000000000000000000000000000000000000000000000 000000000000000000000000000000000000000     00000000                                                                                                                        000000000000000000
F0010000007986300004000001719393900023658300000000000000000201512030002001JAIRO BASTIDAS RAMIREZ                            C000000000072000000000000000000000100010010000000000000000000000F0010000007986300420151203000101 00000000000000000000000000000000000000000000000000000000000000000000000000000000000000000000000000000000000000000N 00000000000NCONT   00    00000000000          00000000000000000000000000000000000000000000 000000000000000A000000000000000000000000000000000000000000000 000000000000000000000000000000000000000     00000000                                                                                                                        000000000000000000
F0010000007986300005000001719393900013552100000000000000000201512030002001JAIRO BASTIDAS RAMIREZ                            D000000000072000000000000000000000100010010000000000000000000000F0010000007986300520151203000101 00000000000000000000000000000000000000000000000000000000000000000000000000000000000000000000000000000000000000000N 00000000000NCONT   00    00000000000          00000000000000000000000000000000000000000000 000000000000000A000000000000000000000000000000000000000000000 000000000000000000000000000000000000000     00000000                                                                                                                        000000000000000000
F0010000007986400001000007200023300011050500000000000000000201512030002001WILLIAM ORTEGA                                    D000000003000000000000000000000000100010010000000000000000000000F0010000007986400120151203000101 00000000000000000000000000000000000000000000000000000000000000000000000000000000000000000000000000000000000000000N 00000000000NCONT   00    00000000000          00000000000000000000000000000000000000000000 000000000000000A000000000000000000000000000000000000000000000 000000000000000000000000000000000000000     00000000                                                                                                                        000000000000000000
F0010000007986400002000007200023300041450500000000000000000201512030002001WILLIAM ORTEGA                                    C000000002600000000000000000000000100010010000000000000000000000F0010000007986400220151203000101 00000000000000000000000000000000000000000000000000000000000000000000000000000000000000000000000000000000000000000N 00000000000NCONT   00    00000000000          00000000000000000000000000000000000000000000 000000000000000A000000000000000000000000000000000000000000000 000000000000000000000000000000000000000     00000000                                                                                                                        000000000000000000
F0010000007986400003000007200023300042505000000000000000000201512030002001WILLIAM ORTEGA                                    C000000000400000000000000000000000100010010000000000000000000000F0010000007986400320151203000101 00000000000000000000000000000000000000000000000000000000000000000000000000000000000000000000000000000000000000000N 00000000000NCONT   00    00000000000          00000000000000000000000000000000000000000000 000000000000000A000000000000000000000000000000000000000000000 000000000000000000000000000000000000000     00000000                                                                                                                        000000000000000000
F0010000007986400004000007200023300023658300000000000000000201512030002001WILLIAM ORTEGA                                    C000000000020800000000000000000000100010010000000000000000000000F0010000007986400420151203000101 00000000000000000000000000000000000000000000000000000000000000000000000000000000000000000000000000000000000000000N 00000000000NCONT   00    00000000000          00000000000000000000000000000000000000000000 000000000000000A000000000000000000000000000000000000000000000 000000000000000000000000000000000000000     00000000                                                                                                                        000000000000000000
F0010000007986400005000007200023300013552100000000000000000201512030002001WILLIAM ORTEGA                                    D000000000020800000000000000000000100010010000000000000000000000F0010000007986400520151203000101 00000000000000000000000000000000000000000000000000000000000000000000000000000000000000000000000000000000000000000N 00000000000NCONT   00    00000000000          00000000000000000000000000000000000000000000 000000000000000A000000000000000000000000000000000000000000000 000000000000000000000000000000000000000     00000000                                                                                                                        000000000000000000
F0010000007986500001000003310900400011050500000000000000000201512030002001TANIA ARIAS CARBAL                                D000000008500000000000000000000000100010010000000000000000000000F0010000007986500120151203000101 00000000000000000000000000000000000000000000000000000000000000000000000000000000000000000000000000000000000000000N 00000000000NCONT   00    00000000000          00000000000000000000000000000000000000000000 000000000000000A000000000000000000000000000000000000000000000 000000000000000000000000000000000000000     00000000                                                                                                                        000000000000000000
F0010000007986500002000003310900400041450500000000000000000201512030002001TANIA ARIAS CARBAL                                C000000008000000000000000000000000100010010000000000000000000000F0010000007986500220151203000101 00000000000000000000000000000000000000000000000000000000000000000000000000000000000000000000000000000000000000000N 00000000000NCONT   00    00000000000          00000000000000000000000000000000000000000000 000000000000000A000000000000000000000000000000000000000000000 000000000000000000000000000000000000000     00000000                                                                                                                        000000000000000000
F0010000007986500003000003310900400042505000000000000000000201512030002001TANIA ARIAS CARBAL                                C000000000500000000000000000000000100010010000000000000000000000F0010000007986500320151203000101 00000000000000000000000000000000000000000000000000000000000000000000000000000000000000000000000000000000000000000N 00000000000NCONT   00    00000000000          00000000000000000000000000000000000000000000 000000000000000A000000000000000000000000000000000000000000000 000000000000000000000000000000000000000     00000000                                                                                                                        000000000000000000
F0010000007986500004000003310900400023658300000000000000000201512030002001TANIA ARIAS CARBAL                                C000000000064000000000000000000000100010010000000000000000000000F0010000007986500420151203000101 00000000000000000000000000000000000000000000000000000000000000000000000000000000000000000000000000000000000000000N 00000000000NCONT   00    00000000000          00000000000000000000000000000000000000000000 000000000000000A000000000000000000000000000000000000000000000 000000000000000000000000000000000000000     00000000                                                                                                                        000000000000000000
F0010000007986500005000003310900400013552100000000000000000201512030002001TANIA ARIAS CARBAL                                D000000000064000000000000000000000100010010000000000000000000000F0010000007986500520151203000101 00000000000000000000000000000000000000000000000000000000000000000000000000000000000000000000000000000000000000000N 00000000000NCONT   00    00000000000          00000000000000000000000000000000000000000000 000000000000000A000000000000000000000000000000000000000000000 000000000000000000000000000000000000000     00000000                                                                                                                        000000000000000000
F0010000007986600001000090034602400011050500000000000000000201512030002001PRODUCTOS NACIONALES PARAFINICOS LA CUSTODIA S.A.SD000000003900000000000000000000000100010010000000000000000000000F0010000007986600120151203000101 00000000000000000000000000000000000000000000000000000000000000000000000000000000000000000000000000000000000000000N 00000000000NCONT   00    00000000000          00000000000000000000000000000000000000000000 000000000000000A000000000000000000000000000000000000000000000 000000000000000000000000000000000000000     00000000                                                                                                                        000000000000000000
F0010000007986600002000090034602400041450500000000000000000201512030002001PRODUCTOS NACIONALES PARAFINICOS LA CUSTODIA S.A.SC000000003600000000000000000000000100010010000000000000000000000F0010000007986600220151203000101 00000000000000000000000000000000000000000000000000000000000000000000000000000000000000000000000000000000000000000N 00000000000NCONT   00    00000000000          00000000000000000000000000000000000000000000 000000000000000A000000000000000000000000000000000000000000000 000000000000000000000000000000000000000     00000000                                                                                                                        000000000000000000
F0010000007986600003000090034602400042505000000000000000000201512030002001PRODUCTOS NACIONALES PARAFINICOS LA CUSTODIA S.A.SC000000000300000000000000000000000100010010000000000000000000000F0010000007986600320151203000101 00000000000000000000000000000000000000000000000000000000000000000000000000000000000000000000000000000000000000000N 00000000000NCONT   00    00000000000          00000000000000000000000000000000000000000000 000000000000000A000000000000000000000000000000000000000000000 000000000000000000000000000000000000000     00000000                                                                                                                        000000000000000000
F0010000007986600004000090034602400023658300000000000000000201512030002001PRODUCTOS NACIONALES PARAFINICOS LA CUSTODIA S.A.SC000000000028800000000000000000000100010010000000000000000000000F0010000007986600420151203000101 00000000000000000000000000000000000000000000000000000000000000000000000000000000000000000000000000000000000000000N 00000000000NCONT   00    00000000000          00000000000000000000000000000000000000000000 000000000000000A000000000000000000000000000000000000000000000 000000000000000000000000000000000000000     00000000                                                                                                                        000000000000000000
F0010000007986600005000090034602400013552100000000000000000201512030002001PRODUCTOS NACIONALES PARAFINICOS LA CUSTODIA S.A.SD000000000028800000000000000000000100010010000000000000000000000F0010000007986600520151203000101 00000000000000000000000000000000000000000000000000000000000000000000000000000000000000000000000000000000000000000N 00000000000NCONT   00    00000000000          00000000000000000000000000000000000000000000 000000000000000A000000000000000000000000000000000000000000000 000000000000000000000000000000000000000     00000000                                                                                                                        000000000000000000
F0010000007986700001000090050144800011050500000000000000000201512030002001PLASTICOS JR ASOCIADOS SAS                        D000000004200000000000000000000000100010010000000000000000000000F0010000007986700120151203000101 00000000000000000000000000000000000000000000000000000000000000000000000000000000000000000000000000000000000000000N 00000000000NCONT   00    00000000000          00000000000000000000000000000000000000000000 000000000000000A000000000000000000000000000000000000000000000 000000000000000000000000000000000000000     00000000                                                                                                                        000000000000000000
F0010000007986700002000090050144800041450500000000000000000201512030002001PLASTICOS JR ASOCIADOS SAS                        C000000003400000000000000000000000100010010000000000000000000000F0010000007986700220151203000101 00000000000000000000000000000000000000000000000000000000000000000000000000000000000000000000000000000000000000000N 00000000000NCONT   00    00000000000          00000000000000000000000000000000000000000000 000000000000000A000000000000000000000000000000000000000000000 000000000000000000000000000000000000000     00000000                                                                                                                        000000000000000000
F0010000007986700003000090050144800042505000000000000000000201512030002001PLASTICOS JR ASOCIADOS SAS                        C000000000800000000000000000000000100010010000000000000000000000F0010000007986700320151203000101 00000000000000000000000000000000000000000000000000000000000000000000000000000000000000000000000000000000000000000N 00000000000NCONT   00    00000000000          00000000000000000000000000000000000000000000 000000000000000A000000000000000000000000000000000000000000000 000000000000000000000000000000000000000     00000000                                                                                                                        000000000000000000
F0010000007986700004000090050144800023658300000000000000000201512030002001PLASTICOS JR ASOCIADOS SAS                        C000000000027200000000000000000000100010010000000000000000000000F0010000007986700420151203000101 00000000000000000000000000000000000000000000000000000000000000000000000000000000000000000000000000000000000000000N 00000000000NCONT   00    00000000000          00000000000000000000000000000000000000000000 000000000000000A000000000000000000000000000000000000000000000 000000000000000000000000000000000000000     00000000                                                                                                                        000000000000000000
F0010000007986700005000090050144800013552100000000000000000201512030002001PLASTICOS JR ASOCIADOS SAS                        D000000000027200000000000000000000100010010000000000000000000000F0010000007986700520151203000101 00000000000000000000000000000000000000000000000000000000000000000000000000000000000000000000000000000000000000000N 00000000000NCONT   00    00000000000          00000000000000000000000000000000000000000000 000000000000000A000000000000000000000000000000000000000000000 000000000000000000000000000000000000000     00000000                                                                                                                        000000000000000000
F0010000007986800001000080201703900011050500000000000000000201512030002001MUNDIAL CHEMICAL LTDA                             D000000004400000000000000000000000100010010000000000000000000000F0010000007986800120151203000101 00000000000000000000000000000000000000000000000000000000000000000000000000000000000000000000000000000000000000000N 00000000000NCONT   00    00000000000          00000000000000000000000000000000000000000000 000000000000000A000000000000000000000000000000000000000000000 000000000000000000000000000000000000000     00000000                                                                                                                        000000000000000000
F0010000007986800002000080201703900041450500000000000000000201512030002001MUNDIAL CHEMICAL LTDA                             C000000003900000000000000000000000100010010000000000000000000000F0010000007986800220151203000101 00000000000000000000000000000000000000000000000000000000000000000000000000000000000000000000000000000000000000000N 00000000000NCONT   00    00000000000          00000000000000000000000000000000000000000000 000000000000000A000000000000000000000000000000000000000000000 000000000000000000000000000000000000000     00000000                                                                                                                        000000000000000000
F0010000007986800003000080201703900042505000000000000000000201512030002001MUNDIAL CHEMICAL LTDA                             C000000000500000000000000000000000100010010000000000000000000000F0010000007986800320151203000101 00000000000000000000000000000000000000000000000000000000000000000000000000000000000000000000000000000000000000000N 00000000000NCONT   00    00000000000          00000000000000000000000000000000000000000000 000000000000000A000000000000000000000000000000000000000000000 000000000000000000000000000000000000000     00000000                                                                                                                        000000000000000000
F0010000007986800004000080201703900023658300000000000000000201512030002001MUNDIAL CHEMICAL LTDA                             C000000000031200000000000000000000100010010000000000000000000000F0010000007986800420151203000101 00000000000000000000000000000000000000000000000000000000000000000000000000000000000000000000000000000000000000000N 00000000000NCONT   00    00000000000          00000000000000000000000000000000000000000000 000000000000000A000000000000000000000000000000000000000000000 000000000000000000000000000000000000000     00000000                                                                                                                        000000000000000000
F0010000007986800005000080201703900013552100000000000000000201512030002001MUNDIAL CHEMICAL LTDA                             D000000000031200000000000000000000100010010000000000000000000000F0010000007986800520151203000101 00000000000000000000000000000000000000000000000000000000000000000000000000000000000000000000000000000000000000000N 00000000000NCONT   00    00000000000          00000000000000000000000000000000000000000000 000000000000000A000000000000000000000000000000000000000000000 000000000000000000000000000000000000000     00000000                                                                                                                        000000000000000000
F0010000007986900001000080014190300011050500000000000000000201512030002001QUIMINSA LTDA                                     D000000003400000000000000000000000100010010000000000000000000000F0010000007986900120151203000101 00000000000000000000000000000000000000000000000000000000000000000000000000000000000000000000000000000000000000000N 00000000000NCONT   00    00000000000          00000000000000000000000000000000000000000000 000000000000000A000000000000000000000000000000000000000000000 000000000000000000000000000000000000000     00000000                                                                                                                        000000000000000000
F0010000007986900002000080014190300041450500000000000000000201512030002001QUIMINSA LTDA                                     C000000002500000000000000000000000100010010000000000000000000000F0010000007986900220151203000101 00000000000000000000000000000000000000000000000000000000000000000000000000000000000000000000000000000000000000000N 00000000000NCONT   00    00000000000          00000000000000000000000000000000000000000000 000000000000000A000000000000000000000000000000000000000000000 000000000000000000000000000000000000000     00000000                                                                                                                        000000000000000000
F0010000007986900003000080014190300042505000000000000000000201512030002001QUIMINSA LTDA                                     C000000000900000000000000000000000100010010000000000000000000000F0010000007986900320151203000101 00000000000000000000000000000000000000000000000000000000000000000000000000000000000000000000000000000000000000000N 00000000000NCONT   00    00000000000          00000000000000000000000000000000000000000000 000000000000000A000000000000000000000000000000000000000000000 000000000000000000000000000000000000000     00000000                                                                                                                        000000000000000000
F0010000007986900004000080014190300023658300000000000000000201512030002001QUIMINSA LTDA                                     C000000000020000000000000000000000100010010000000000000000000000F0010000007986900420151203000101 00000000000000000000000000000000000000000000000000000000000000000000000000000000000000000000000000000000000000000N 00000000000NCONT   00    00000000000          00000000000000000000000000000000000000000000 000000000000000A000000000000000000000000000000000000000000000 000000000000000000000000000000000000000     00000000                                                                                                                        000000000000000000
F0010000007986900005000080014190300013552100000000000000000201512030002001QUIMINSA LTDA                                     D000000000020000000000000000000000100010010000000000000000000000F0010000007986900520151203000101 00000000000000000000000000000000000000000000000000000000000000000000000000000000000000000000000000000000000000000N 00000000000NCONT   00    00000000000          00000000000000000000000000000000000000000000 000000000000000A000000000000000000000000000000000000000000000 000000000000000000000000000000000000000     00000000                                                                                                                        000000000000000000
F0010000007987000001000080023327700011050500000000000000000201512030002001DISINCO LTDA                                      D000000002800000000000000000000000100010010000000000000000000000F0010000007987000120151203000101 00000000000000000000000000000000000000000000000000000000000000000000000000000000000000000000000000000000000000000N 00000000000NCONT   00    00000000000          00000000000000000000000000000000000000000000 000000000000000A000000000000000000000000000000000000000000000 000000000000000000000000000000000000000     00000000                                                                                                                        000000000000000000
F0010000007987000002000080023327700041450500000000000000000201512030002001DISINCO LTDA                                      C000000002700000000000000000000000100010010000000000000000000000F0010000007987000220151203000101 00000000000000000000000000000000000000000000000000000000000000000000000000000000000000000000000000000000000000000N 00000000000NCONT   00    00000000000          00000000000000000000000000000000000000000000 000000000000000A000000000000000000000000000000000000000000000 000000000000000000000000000000000000000     00000000                                                                                                                        000000000000000000
F0010000007987000003000080023327700042505000000000000000000201512030002001DISINCO LTDA                                      C000000000100000000000000000000000100010010000000000000000000000F0010000007987000320151203000101 00000000000000000000000000000000000000000000000000000000000000000000000000000000000000000000000000000000000000000N 00000000000NCONT   00    00000000000          00000000000000000000000000000000000000000000 000000000000000A000000000000000000000000000000000000000000000 000000000000000000000000000000000000000     00000000                                                                                                                        000000000000000000
F0010000007987000004000080023327700023658300000000000000000201512030002001DISINCO LTDA                                      C000000000021600000000000000000000100010010000000000000000000000F0010000007987000420151203000101 00000000000000000000000000000000000000000000000000000000000000000000000000000000000000000000000000000000000000000N 00000000000NCONT   00    00000000000          00000000000000000000000000000000000000000000 000000000000000A000000000000000000000000000000000000000000000 000000000000000000000000000000000000000     00000000                                                                                                                        000000000000000000
F0010000007987000005000080023327700013552100000000000000000201512030002001DISINCO LTDA                                      D000000000021600000000000000000000100010010000000000000000000000F0010000007987000520151203000101 00000000000000000000000000000000000000000000000000000000000000000000000000000000000000000000000000000000000000000N 00000000000NCONT   00    00000000000          00000000000000000000000000000000000000000000 000000000000000A000000000000000000000000000000000000000000000 000000000000000000000000000000000000000     00000000                                                                                                                        000000000000000000
F0010000007987100001000007957099900011050500000000000000000201512030002001RUBEN GOMEZ                                       D000000002300000000000000000000000100010010000000000000000000000F0010000007987100120151203000101 00000000000000000000000000000000000000000000000000000000000000000000000000000000000000000000000000000000000000000N 00000000000NCONT   00    00000000000          00000000000000000000000000000000000000000000 000000000000000A000000000000000000000000000000000000000000000 000000000000000000000000000000000000000     00000000                                                                                                                        000000000000000000
F0010000007987100002000007957099900041450500000000000000000201512030002001RUBEN GOMEZ                                       C000000001800000000000000000000000100010010000000000000000000000F0010000007987100220151203000101 00000000000000000000000000000000000000000000000000000000000000000000000000000000000000000000000000000000000000000N 00000000000NCONT   00    00000000000          00000000000000000000000000000000000000000000 000000000000000A000000000000000000000000000000000000000000000 000000000000000000000000000000000000000     00000000                                                                                                                        000000000000000000
F0010000007987100003000007957099900042505000000000000000000201512030002001RUBEN GOMEZ                                       C000000000500000000000000000000000100010010000000000000000000000F0010000007987100320151203000101 00000000000000000000000000000000000000000000000000000000000000000000000000000000000000000000000000000000000000000N 00000000000NCONT   00    00000000000          00000000000000000000000000000000000000000000 000000000000000A000000000000000000000000000000000000000000000 000000000000000000000000000000000000000     00000000                                                                                                                        000000000000000000
F0010000007987100004000007957099900023658300000000000000000201512030002001RUBEN GOMEZ                                       C000000000014400000000000000000000100010010000000000000000000000F0010000007987100420151203000101 00000000000000000000000000000000000000000000000000000000000000000000000000000000000000000000000000000000000000000N 00000000000NCONT   00    00000000000          00000000000000000000000000000000000000000000 000000000000000A000000000000000000000000000000000000000000000 000000000000000000000000000000000000000     00000000                                                                                                                        000000000000000000
F0010000007987100005000007957099900013552100000000000000000201512030002001RUBEN GOMEZ                                       D000000000014400000000000000000000100010010000000000000000000000F0010000007987100520151203000101 00000000000000000000000000000000000000000000000000000000000000000000000000000000000000000000000000000000000000000N 00000000000NCONT   00    00000000000          00000000000000000000000000000000000000000000 000000000000000A000000000000000000000000000000000000000000000 000000000000000000000000000000000000000     00000000                                                                                                                        000000000000000000
F0010000007987200001000005204371400011050500000000000000000201512030002001MARITZA IMPORTS                                   D000000009500000000000000000000000100010010000000000000000000000F0010000007987200120151203000101 00000000000000000000000000000000000000000000000000000000000000000000000000000000000000000000000000000000000000000N 00000000000NCONT   00    00000000000          00000000000000000000000000000000000000000000 000000000000000A000000000000000000000000000000000000000000000 000000000000000000000000000000000000000     00000000                                                                                                                        000000000000000000
F0010000007987200002000005204371400041450500000000000000000201512030002001MARITZA IMPORTS                                   C000000008000000000000000000000000100010010000000000000000000000F0010000007987200220151203000101 00000000000000000000000000000000000000000000000000000000000000000000000000000000000000000000000000000000000000000N 00000000000NCONT   00    00000000000          00000000000000000000000000000000000000000000 000000000000000A000000000000000000000000000000000000000000000 000000000000000000000000000000000000000     00000000                                                                                                                        000000000000000000
F0010000007987200003000005204371400042505000000000000000000201512030002001MARITZA IMPORTS                                   C000000001500000000000000000000000100010010000000000000000000000F0010000007987200320151203000101 00000000000000000000000000000000000000000000000000000000000000000000000000000000000000000000000000000000000000000N 00000000000NCONT   00    00000000000          00000000000000000000000000000000000000000000 000000000000000A000000000000000000000000000000000000000000000 000000000000000000000000000000000000000     00000000                                                                                                                        000000000000000000
F0010000007987200004000005204371400023658300000000000000000201512030002001MARITZA IMPORTS                                   C000000000064000000000000000000000100010010000000000000000000000F0010000007987200420151203000101 00000000000000000000000000000000000000000000000000000000000000000000000000000000000000000000000000000000000000000N 00000000000NCONT   00    00000000000          00000000000000000000000000000000000000000000 000000000000000A000000000000000000000000000000000000000000000 000000000000000000000000000000000000000     00000000                                                                                                                        000000000000000000
F0010000007987200005000005204371400013552100000000000000000201512030002001MARITZA IMPORTS                                   D000000000064000000000000000000000100010010000000000000000000000F0010000007987200520151203000101 00000000000000000000000000000000000000000000000000000000000000000000000000000000000000000000000000000000000000000N 00000000000NCONT   00    00000000000          00000000000000000000000000000000000000000000 000000000000000A000000000000000000000000000000000000000000000 000000000000000000000000000000000000000     00000000                                                                                                                        000000000000000000
F0010000007987300001000080202350700011050500000000000000000201512030002001CONNY DE LA COSTA SAS                             D000000003400000000000000000000000100010010000000000000000000000F0010000007987300120151203000101 00000000000000000000000000000000000000000000000000000000000000000000000000000000000000000000000000000000000000000N 00000000000NCONT   00    00000000000          00000000000000000000000000000000000000000000 000000000000000A000000000000000000000000000000000000000000000 000000000000000000000000000000000000000     00000000                                                                                                                        000000000000000000
F0010000007987300002000080202350700041450500000000000000000201512030002001CONNY DE LA COSTA SAS                             C000000002400000000000000000000000100010010000000000000000000000F0010000007987300220151203000101 00000000000000000000000000000000000000000000000000000000000000000000000000000000000000000000000000000000000000000N 00000000000NCONT   00    00000000000          00000000000000000000000000000000000000000000 000000000000000A000000000000000000000000000000000000000000000 000000000000000000000000000000000000000     00000000                                                                                                                        000000000000000000
F0010000007987300003000080202350700042505000000000000000000201512030002001CONNY DE LA COSTA SAS                             C000000001000000000000000000000000100010010000000000000000000000F0010000007987300320151203000101 00000000000000000000000000000000000000000000000000000000000000000000000000000000000000000000000000000000000000000N 00000000000NCONT   00    00000000000          00000000000000000000000000000000000000000000 000000000000000A000000000000000000000000000000000000000000000 000000000000000000000000000000000000000     00000000                                                                                                                        000000000000000000
F0010000007987300004000080202350700023658300000000000000000201512030002001CONNY DE LA COSTA SAS                             C000000000019200000000000000000000100010010000000000000000000000F0010000007987300420151203000101 00000000000000000000000000000000000000000000000000000000000000000000000000000000000000000000000000000000000000000N 00000000000NCONT   00    00000000000          00000000000000000000000000000000000000000000 000000000000000A000000000000000000000000000000000000000000000 000000000000000000000000000000000000000     00000000                                                                                                                        000000000000000000
F0010000007987300005000080202350700013552100000000000000000201512030002001CONNY DE LA COSTA SAS                             D000000000019200000000000000000000100010010000000000000000000000F0010000007987300520151203000101 00000000000000000000000000000000000000000000000000000000000000000000000000000000000000000000000000000000000000000N 00000000000NCONT   00    00000000000          00000000000000000000000000000000000000000000 000000000000000A000000000000000000000000000000000000000000000 000000000000000000000000000000000000000     00000000                                                                                                                        000000000000000000
F0010000007987400001000080202350700011050500000000000000000201512030002001CONNY DE LA COSTA SAS                             D000000001300000000000000000000000100010010000000000000000000000F0010000007987400120151203000101 00000000000000000000000000000000000000000000000000000000000000000000000000000000000000000000000000000000000000000N 00000000000NCONT   00    00000000000          00000000000000000000000000000000000000000000 000000000000000A000000000000000000000000000000000000000000000 000000000000000000000000000000000000000     00000000                                                                                                                        000000000000000000
F0010000007987400002000080202350700041450500000000000000000201512030002001CONNY DE LA COSTA SAS                             C000000001100000000000000000000000100010010000000000000000000000F0010000007987400220151203000101 00000000000000000000000000000000000000000000000000000000000000000000000000000000000000000000000000000000000000000N 00000000000NCONT   00    00000000000          00000000000000000000000000000000000000000000 000000000000000A000000000000000000000000000000000000000000000 000000000000000000000000000000000000000     00000000                                                                                                                        000000000000000000
F0010000007987400003000080202350700042505000000000000000000201512030002001CONNY DE LA COSTA SAS                             C000000000200000000000000000000000100010010000000000000000000000F0010000007987400320151203000101 00000000000000000000000000000000000000000000000000000000000000000000000000000000000000000000000000000000000000000N 00000000000NCONT   00    00000000000          00000000000000000000000000000000000000000000 000000000000000A000000000000000000000000000000000000000000000 000000000000000000000000000000000000000     00000000                                                                                                                        000000000000000000
F0010000007987400004000080202350700023658300000000000000000201512030002001CONNY DE LA COSTA SAS                             C000000000008800000000000000000000100010010000000000000000000000F0010000007987400420151203000101 00000000000000000000000000000000000000000000000000000000000000000000000000000000000000000000000000000000000000000N 00000000000NCONT   00    00000000000          00000000000000000000000000000000000000000000 000000000000000A000000000000000000000000000000000000000000000 000000000000000000000000000000000000000     00000000                                                                                                                        000000000000000000
F0010000007987400005000080202350700013552100000000000000000201512030002001CONNY DE LA COSTA SAS                             D000000000008800000000000000000000100010010000000000000000000000F0010000007987400520151203000101 00000000000000000000000000000000000000000000000000000000000000000000000000000000000000000000000000000000000000000N 00000000000NCONT   00    00000000000          00000000000000000000000000000000000000000000 000000000000000A000000000000000000000000000000000000000000000 000000000000000000000000000000000000000     00000000                                                                                                                        000000000000000000
F0010000007987500001000000866840800011050500000000000000000201512030002001CACHARRERIA MARTIN                                D000000000900000000000000000000000100010010000000000000000000000F0010000007987500120151203000101 00000000000000000000000000000000000000000000000000000000000000000000000000000000000000000000000000000000000000000N 00000000000NCONT   00    00000000000          00000000000000000000000000000000000000000000 000000000000000A000000000000000000000000000000000000000000000 000000000000000000000000000000000000000     00000000                                                                                                                        000000000000000000
F0010000007987500002000000866840800041450500000000000000000201512030002001CACHARRERIA MARTIN                                C000000000800000000000000000000000100010010000000000000000000000F0010000007987500220151203000101 00000000000000000000000000000000000000000000000000000000000000000000000000000000000000000000000000000000000000000N 00000000000NCONT   00    00000000000          00000000000000000000000000000000000000000000 000000000000000A000000000000000000000000000000000000000000000 000000000000000000000000000000000000000     00000000                                                                                                                        000000000000000000
F0010000007987500003000000866840800042505000000000000000000201512030002001CACHARRERIA MARTIN                                C000000000100000000000000000000000100010010000000000000000000000F0010000007987500320151203000101 00000000000000000000000000000000000000000000000000000000000000000000000000000000000000000000000000000000000000000N 00000000000NCONT   00    00000000000          00000000000000000000000000000000000000000000 000000000000000A000000000000000000000000000000000000000000000 000000000000000000000000000000000000000     00000000                                                                                                                        000000000000000000
F0010000007987500004000000866840800023658300000000000000000201512030002001CACHARRERIA MARTIN                                C000000000006400000000000000000000100010010000000000000000000000F0010000007987500420151203000101 00000000000000000000000000000000000000000000000000000000000000000000000000000000000000000000000000000000000000000N 00000000000NCONT   00    00000000000          00000000000000000000000000000000000000000000 000000000000000A000000000000000000000000000000000000000000000 000000000000000000000000000000000000000     00000000                                                                                                                        000000000000000000
F0010000007987500005000000866840800013552100000000000000000201512030002001CACHARRERIA MARTIN                                D000000000006400000000000000000000100010010000000000000000000000F0010000007987500520151203000101 00000000000000000000000000000000000000000000000000000000000000000000000000000000000000000000000000000000000000000N 00000000000NCONT   00    00000000000          00000000000000000000000000000000000000000000 000000000000000A000000000000000000000000000000000000000000000 000000000000000000000000000000000000000     00000000                                                                                                                        000000000000000000
F0010000007987600001000000742399700011050500000000000000000201512030002001CACHARRERIA EL NUEVO CHADID                       D000000004600000000000000000000000100010010000000000000000000000F0010000007987600120151203000101 00000000000000000000000000000000000000000000000000000000000000000000000000000000000000000000000000000000000000000N 00000000000NCONT   00    00000000000          00000000000000000000000000000000000000000000 000000000000000A000000000000000000000000000000000000000000000 000000000000000000000000000000000000000     00000000                                                                                                                        000000000000000000
F0010000007987600002000000742399700041450500000000000000000201512030002001CACHARRERIA EL NUEVO CHADID                       C000000004000000000000000000000000100010010000000000000000000000F0010000007987600220151203000101 00000000000000000000000000000000000000000000000000000000000000000000000000000000000000000000000000000000000000000N 00000000000NCONT   00    00000000000          00000000000000000000000000000000000000000000 000000000000000A000000000000000000000000000000000000000000000 000000000000000000000000000000000000000     00000000                                                                                                                        000000000000000000
F0010000007987600003000000742399700042505000000000000000000201512030002001CACHARRERIA EL NUEVO CHADID                       C000000000600000000000000000000000100010010000000000000000000000F0010000007987600320151203000101 00000000000000000000000000000000000000000000000000000000000000000000000000000000000000000000000000000000000000000N 00000000000NCONT   00    00000000000          00000000000000000000000000000000000000000000 000000000000000A000000000000000000000000000000000000000000000 000000000000000000000000000000000000000     00000000                                                                                                                        000000000000000000
F0010000007987600004000000742399700023658300000000000000000201512030002001CACHARRERIA EL NUEVO CHADID                       C000000000032000000000000000000000100010010000000000000000000000F0010000007987600420151203000101 00000000000000000000000000000000000000000000000000000000000000000000000000000000000000000000000000000000000000000N 00000000000NCONT   00    00000000000          00000000000000000000000000000000000000000000 000000000000000A000000000000000000000000000000000000000000000 000000000000000000000000000000000000000     00000000                                                                                                                        000000000000000000
F0010000007987600005000000742399700013552100000000000000000201512030002001CACHARRERIA EL NUEVO CHADID                       D000000000032000000000000000000000100010010000000000000000000000F0010000007987600520151203000101 00000000000000000000000000000000000000000000000000000000000000000000000000000000000000000000000000000000000000000N 00000000000NCONT   00    00000000000          00000000000000000000000000000000000000000000 000000000000000A000000000000000000000000000000000000000000000 000000000000000000000000000000000000000     00000000                                                                                                                        000000000000000000
F0010000007987700001000000742399700011050500000000000000000201512030002001CACHARRERIA EL NUEVO CHADID                       D000000001300000000000000000000000100010010000000000000000000000F0010000007987700120151203000101 00000000000000000000000000000000000000000000000000000000000000000000000000000000000000000000000000000000000000000N 00000000000NCONT   00    00000000000          00000000000000000000000000000000000000000000 000000000000000A000000000000000000000000000000000000000000000 000000000000000000000000000000000000000     00000000                                                                                                                        000000000000000000
F0010000007987700002000000742399700041450500000000000000000201512030002001CACHARRERIA EL NUEVO CHADID                       C000000001100000000000000000000000100010010000000000000000000000F0010000007987700220151203000101 00000000000000000000000000000000000000000000000000000000000000000000000000000000000000000000000000000000000000000N 00000000000NCONT   00    00000000000          00000000000000000000000000000000000000000000 000000000000000A000000000000000000000000000000000000000000000 000000000000000000000000000000000000000     00000000                                                                                                                        000000000000000000
F0010000007987700003000000742399700042505000000000000000000201512030002001CACHARRERIA EL NUEVO CHADID                       C000000000200000000000000000000000100010010000000000000000000000F0010000007987700320151203000101 00000000000000000000000000000000000000000000000000000000000000000000000000000000000000000000000000000000000000000N 00000000000NCONT   00    00000000000          00000000000000000000000000000000000000000000 000000000000000A000000000000000000000000000000000000000000000 000000000000000000000000000000000000000     00000000                                                                                                                        000000000000000000
F0010000007987700004000000742399700023658300000000000000000201512030002001CACHARRERIA EL NUEVO CHADID                       C000000000008800000000000000000000100010010000000000000000000000F0010000007987700420151203000101 00000000000000000000000000000000000000000000000000000000000000000000000000000000000000000000000000000000000000000N 00000000000NCONT   00    00000000000          00000000000000000000000000000000000000000000 000000000000000A000000000000000000000000000000000000000000000 000000000000000000000000000000000000000     00000000                                                                                                                        000000000000000000
F0010000007987700005000000742399700013552100000000000000000201512030002001CACHARRERIA EL NUEVO CHADID                       D000000000008800000000000000000000100010010000000000000000000000F0010000007987700520151203000101 00000000000000000000000000000000000000000000000000000000000000000000000000000000000000000000000000000000000000000N 00000000000NCONT   00    00000000000          00000000000000000000000000000000000000000000 000000000000000A000000000000000000000000000000000000000000000 000000000000000000000000000000000000000     00000000                                                                                                                        000000000000000000
