F0010000010204000001000086002732600013050500000000000000000201707210002001PINTURAS EVERY                                    D000000027477100000000000000000000100010010000000000000000000000F0010000010204000120170721000101 00000000000000000000000000000000000000000000000000000000000000000000000000000000000000000000000000000000000000000N 00000000000NCONT   00    00000000000          00000000000000000000000000000000000000000000 000000000000000A000000000000000000000000000000000000000000000 000000000000000000000000000000000000000     00000000                                                                                                                        000000000000000000
F0010000010204000002000086002732600041450500000000000000000201707210002001PINTURAS EVERY                                    C000000026000000000000000000000000100010010000000000000000000000F0010000010204000220170721000101 00000000000000000000000000000000000000000000000000000000000000000000000000000000000000000000000000000000000000000N 00000000000NCONT   00    00000000000          00000000000000000000000000000000000000000000 000000000000000A000000000000000000000000000000000000000000000 000000000000000000000000000000000000000     00000000                                                                                                                        000000000000000000
F0010000010204000003000086002732600042505000000000000000000201707210002001PINTURAS EVERY                                    C000000001477100000000000000000000100010010000000000000000000000F0010000010204000320170721000101 00000000000000000000000000000000000000000000000000000000000000000000000000000000000000000000000000000000000000000N 00000000000NCONT   00    00000000000          00000000000000000000000000000000000000000000 000000000000000A000000000000000000000000000000000000000000000 000000000000000000000000000000000000000     00000000                                                                                                                        000000000000000000
F0010000010204000004000086002732600023658300000000000000000201707210002001PINTURAS EVERY                                    C000000000000000000000000000000000100010010000000000000000000000F0010000010204000420170721000101 00000000000000000000000000000000000000000000000000000000000000000000000000000000000000000000000000000000000000000N 00000000000NCONT   00    00000000000          00000000000000000000000000000000000000000000 000000000000000A000000000000000000000000000000000000000000000 000000000000000000000000000000000000000     00000000                                                                                                                        000000000000000000
F0010000010204000005000086002732600013552100000000000000000201707210002001PINTURAS EVERY                                    D000000000000000000000000000000000100010010000000000000000000000F0010000010204000520170721000101 00000000000000000000000000000000000000000000000000000000000000000000000000000000000000000000000000000000000000000N 00000000000NCONT   00    00000000000          00000000000000000000000000000000000000000000 000000000000000A000000000000000000000000000000000000000000000 000000000000000000000000000000000000000     00000000                                                                                                                        000000000000000000
F0010000010204100001000083011391400013050500000000000000000201707210002001INSTITUCIONAL STAR SERVICES LTDA                  D000000005400000000000000000000000100010010000000000000000000000F0010000010204100120170721000101 00000000000000000000000000000000000000000000000000000000000000000000000000000000000000000000000000000000000000000N 00000000000NCONT   00    00000000000          00000000000000000000000000000000000000000000 000000000000000A000000000000000000000000000000000000000000000 000000000000000000000000000000000000000     00000000                                                                                                                        000000000000000000
F0010000010204100002000083011391400041450500000000000000000201707210002001INSTITUCIONAL STAR SERVICES LTDA                  C000000004800000000000000000000000100010010000000000000000000000F0010000010204100220170721000101 00000000000000000000000000000000000000000000000000000000000000000000000000000000000000000000000000000000000000000N 00000000000NCONT   00    00000000000          00000000000000000000000000000000000000000000 000000000000000A000000000000000000000000000000000000000000000 000000000000000000000000000000000000000     00000000                                                                                                                        000000000000000000
F0010000010204100003000083011391400042505000000000000000000201707210002001INSTITUCIONAL STAR SERVICES LTDA                  C000000000600000000000000000000000100010010000000000000000000000F0010000010204100320170721000101 00000000000000000000000000000000000000000000000000000000000000000000000000000000000000000000000000000000000000000N 00000000000NCONT   00    00000000000          00000000000000000000000000000000000000000000 000000000000000A000000000000000000000000000000000000000000000 000000000000000000000000000000000000000     00000000                                                                                                                        000000000000000000
F0010000010204100004000083011391400023658300000000000000000201707210002001INSTITUCIONAL STAR SERVICES LTDA                  C000000000000000000000000000000000100010010000000000000000000000F0010000010204100420170721000101 00000000000000000000000000000000000000000000000000000000000000000000000000000000000000000000000000000000000000000N 00000000000NCONT   00    00000000000          00000000000000000000000000000000000000000000 000000000000000A000000000000000000000000000000000000000000000 000000000000000000000000000000000000000     00000000                                                                                                                        000000000000000000
F0010000010204100005000083011391400013552100000000000000000201707210002001INSTITUCIONAL STAR SERVICES LTDA                  D000000000000000000000000000000000100010010000000000000000000000F0010000010204100520170721000101 00000000000000000000000000000000000000000000000000000000000000000000000000000000000000000000000000000000000000000N 00000000000NCONT   00    00000000000          00000000000000000000000000000000000000000000 000000000000000A000000000000000000000000000000000000000000000 000000000000000000000000000000000000000     00000000                                                                                                                        000000000000000000
F0010000010204200001000090049854300013050500000000000000000201707210002001TRAPOS INDUSTRIALES DE COLOMBIA SAS               D000000059485000000000000000000000100010010000000000000000000000F0010000010204200120170721000101 00000000000000000000000000000000000000000000000000000000000000000000000000000000000000000000000000000000000000000N 00000000000NCONT   00    00000000000          00000000000000000000000000000000000000000000 000000000000000A000000000000000000000000000000000000000000000 000000000000000000000000000000000000000     00000000                                                                                                                        000000000000000000
F0010000010204200002000090049854300041450500000000000000000201707210002001TRAPOS INDUSTRIALES DE COLOMBIA SAS               C000000056000000000000000000000000100010010000000000000000000000F0010000010204200220170721000101 00000000000000000000000000000000000000000000000000000000000000000000000000000000000000000000000000000000000000000N 00000000000NCONT   00    00000000000          00000000000000000000000000000000000000000000 000000000000000A000000000000000000000000000000000000000000000 000000000000000000000000000000000000000     00000000                                                                                                                        000000000000000000
F0010000010204200003000090049854300042505000000000000000000201707210002001TRAPOS INDUSTRIALES DE COLOMBIA SAS               C000000003485000000000000000000000100010010000000000000000000000F0010000010204200320170721000101 00000000000000000000000000000000000000000000000000000000000000000000000000000000000000000000000000000000000000000N 00000000000NCONT   00    00000000000          00000000000000000000000000000000000000000000 000000000000000A000000000000000000000000000000000000000000000 000000000000000000000000000000000000000     00000000                                                                                                                        000000000000000000
F0010000010204200004000090049854300023658300000000000000000201707210002001TRAPOS INDUSTRIALES DE COLOMBIA SAS               C000000000000000000000000000000000100010010000000000000000000000F0010000010204200420170721000101 00000000000000000000000000000000000000000000000000000000000000000000000000000000000000000000000000000000000000000N 00000000000NCONT   00    00000000000          00000000000000000000000000000000000000000000 000000000000000A000000000000000000000000000000000000000000000 000000000000000000000000000000000000000     00000000                                                                                                                        000000000000000000
F0010000010204200005000090049854300013552100000000000000000201707210002001TRAPOS INDUSTRIALES DE COLOMBIA SAS               D000000000000000000000000000000000100010010000000000000000000000F0010000010204200520170721000101 00000000000000000000000000000000000000000000000000000000000000000000000000000000000000000000000000000000000000000N 00000000000NCONT   00    00000000000          00000000000000000000000000000000000000000000 000000000000000A000000000000000000000000000000000000000000000 000000000000000000000000000000000000000     00000000                                                                                                                        000000000000000000
F0010000010204300001000080200863700013050500000000000000000201707210002001COPIN S.A.S                                       D000000083665800000000000000000000100010010000000000000000000000F0010000010204300120170721000101 00000000000000000000000000000000000000000000000000000000000000000000000000000000000000000000000000000000000000000N 00000000000NCONT   00    00000000000          00000000000000000000000000000000000000000000 000000000000000A000000000000000000000000000000000000000000000 000000000000000000000000000000000000000     00000000                                                                                                                        000000000000000000
F0010000010204300002000080200863700041450500000000000000000201707210002001COPIN S.A.S                                       C000000077172600000000000000000000100010010000000000000000000000F0010000010204300220170721000101 00000000000000000000000000000000000000000000000000000000000000000000000000000000000000000000000000000000000000000N 00000000000NCONT   00    00000000000          00000000000000000000000000000000000000000000 000000000000000A000000000000000000000000000000000000000000000 000000000000000000000000000000000000000     00000000                                                                                                                        000000000000000000
F0010000010204300003000080200863700042505000000000000000000201707210002001COPIN S.A.S                                       C000000006493200000000000000000000100010010000000000000000000000F0010000010204300320170721000101 00000000000000000000000000000000000000000000000000000000000000000000000000000000000000000000000000000000000000000N 00000000000NCONT   00    00000000000          00000000000000000000000000000000000000000000 000000000000000A000000000000000000000000000000000000000000000 000000000000000000000000000000000000000     00000000                                                                                                                        000000000000000000
F0010000010204300004000080200863700023658300000000000000000201707210002001COPIN S.A.S                                       C000000000000000000000000000000000100010010000000000000000000000F0010000010204300420170721000101 00000000000000000000000000000000000000000000000000000000000000000000000000000000000000000000000000000000000000000N 00000000000NCONT   00    00000000000          00000000000000000000000000000000000000000000 000000000000000A000000000000000000000000000000000000000000000 000000000000000000000000000000000000000     00000000                                                                                                                        000000000000000000
F0010000010204300005000080200863700013552100000000000000000201707210002001COPIN S.A.S                                       D000000000000000000000000000000000100010010000000000000000000000F0010000010204300520170721000101 00000000000000000000000000000000000000000000000000000000000000000000000000000000000000000000000000000000000000000N 00000000000NCONT   00    00000000000          00000000000000000000000000000000000000000000 000000000000000A000000000000000000000000000000000000000000000 000000000000000000000000000000000000000     00000000                                                                                                                        000000000000000000
F0010000010204400001000090070305900013050500000000000000000201707210002001CONSTRUCCIONES Y ASOCIADOS DE LA COSTA            D000000025100000000000000000000000100010010000000000000000000000F0010000010204400120170721000101 00000000000000000000000000000000000000000000000000000000000000000000000000000000000000000000000000000000000000000N 00000000000NCONT   00    00000000000          00000000000000000000000000000000000000000000 000000000000000A000000000000000000000000000000000000000000000 000000000000000000000000000000000000000     00000000                                                                                                                        000000000000000000
F0010000010204400002000090070305900041450500000000000000000201707210002001CONSTRUCCIONES Y ASOCIADOS DE LA COSTA            C000000024100000000000000000000000100010010000000000000000000000F0010000010204400220170721000101 00000000000000000000000000000000000000000000000000000000000000000000000000000000000000000000000000000000000000000N 00000000000NCONT   00    00000000000          00000000000000000000000000000000000000000000 000000000000000A000000000000000000000000000000000000000000000 000000000000000000000000000000000000000     00000000                                                                                                                        000000000000000000
F0010000010204400003000090070305900042505000000000000000000201707210002001CONSTRUCCIONES Y ASOCIADOS DE LA COSTA            C000000001000000000000000000000000100010010000000000000000000000F0010000010204400320170721000101 00000000000000000000000000000000000000000000000000000000000000000000000000000000000000000000000000000000000000000N 00000000000NCONT   00    00000000000          00000000000000000000000000000000000000000000 000000000000000A000000000000000000000000000000000000000000000 000000000000000000000000000000000000000     00000000                                                                                                                        000000000000000000
F0010000010204400004000090070305900023658300000000000000000201707210002001CONSTRUCCIONES Y ASOCIADOS DE LA COSTA            C000000000000000000000000000000000100010010000000000000000000000F0010000010204400420170721000101 00000000000000000000000000000000000000000000000000000000000000000000000000000000000000000000000000000000000000000N 00000000000NCONT   00    00000000000          00000000000000000000000000000000000000000000 000000000000000A000000000000000000000000000000000000000000000 000000000000000000000000000000000000000     00000000                                                                                                                        000000000000000000
F0010000010204400005000090070305900013552100000000000000000201707210002001CONSTRUCCIONES Y ASOCIADOS DE LA COSTA            D000000000000000000000000000000000100010010000000000000000000000F0010000010204400520170721000101 00000000000000000000000000000000000000000000000000000000000000000000000000000000000000000000000000000000000000000N 00000000000NCONT   00    00000000000          00000000000000000000000000000000000000000000 000000000000000A000000000000000000000000000000000000000000000 000000000000000000000000000000000000000     00000000                                                                                                                        000000000000000000
F0010000010204600001000086000490200013050500000000000000000201707210002001PROV. DE PAPELES ANDINA S.A.                      D000000066653200000000000000000000100010010000000000000000000000F0010000010204600120170721000101 00000000000000000000000000000000000000000000000000000000000000000000000000000000000000000000000000000000000000000N 00000000000NCONT   00    00000000000          00000000000000000000000000000000000000000000 000000000000000A000000000000000000000000000000000000000000000 000000000000000000000000000000000000000     00000000                                                                                                                        000000000000000000
F0010000010204600002000086000490200041450500000000000000000201707210002001PROV. DE PAPELES ANDINA S.A.                      C000000062718200000000000000000000100010010000000000000000000000F0010000010204600220170721000101 00000000000000000000000000000000000000000000000000000000000000000000000000000000000000000000000000000000000000000N 00000000000NCONT   00    00000000000          00000000000000000000000000000000000000000000 000000000000000A000000000000000000000000000000000000000000000 000000000000000000000000000000000000000     00000000                                                                                                                        000000000000000000
F0010000010204600003000086000490200042505000000000000000000201707210002001PROV. DE PAPELES ANDINA S.A.                      C000000003935000000000000000000000100010010000000000000000000000F0010000010204600320170721000101 00000000000000000000000000000000000000000000000000000000000000000000000000000000000000000000000000000000000000000N 00000000000NCONT   00    00000000000          00000000000000000000000000000000000000000000 000000000000000A000000000000000000000000000000000000000000000 000000000000000000000000000000000000000     00000000                                                                                                                        000000000000000000
F0010000010204600004000086000490200023658300000000000000000201707210002001PROV. DE PAPELES ANDINA S.A.                      C000000000000000000000000000000000100010010000000000000000000000F0010000010204600420170721000101 00000000000000000000000000000000000000000000000000000000000000000000000000000000000000000000000000000000000000000N 00000000000NCONT   00    00000000000          00000000000000000000000000000000000000000000 000000000000000A000000000000000000000000000000000000000000000 000000000000000000000000000000000000000     00000000                                                                                                                        000000000000000000
F0010000010204600005000086000490200013552100000000000000000201707210002001PROV. DE PAPELES ANDINA S.A.                      D000000000000000000000000000000000100010010000000000000000000000F0010000010204600520170721000101 00000000000000000000000000000000000000000000000000000000000000000000000000000000000000000000000000000000000000000N 00000000000NCONT   00    00000000000          00000000000000000000000000000000000000000000 000000000000000A000000000000000000000000000000000000000000000 000000000000000000000000000000000000000     00000000                                                                                                                        000000000000000000
F0010000010204700001000089080176300013050500000000000000000201707210002001SEGAR S.A.                                        D000000000000000000000000000000000100010010000000000000000000000F0010000010204700120170721000101 00000000000000000000000000000000000000000000000000000000000000000000000000000000000000000000000000000000000000000N 00000000000NCONT   00    00000000000          00000000000000000000000000000000000000000000 000000000000000A000000000000000000000000000000000000000000000 000000000000000000000000000000000000000     00000000                                                                                                                        000000000000000000
F0010000010204700002000089080176300041450500000000000000000201707210002001SEGAR S.A.                                        C000000000000000000000000000000000100010010000000000000000000000F0010000010204700220170721000101 00000000000000000000000000000000000000000000000000000000000000000000000000000000000000000000000000000000000000000N 00000000000NCONT   00    00000000000          00000000000000000000000000000000000000000000 000000000000000A000000000000000000000000000000000000000000000 000000000000000000000000000000000000000     00000000                                                                                                                        000000000000000000
F0010000010204700003000089080176300042505000000000000000000201707210002001SEGAR S.A.                                        C000000000000000000000000000000000100010010000000000000000000000F0010000010204700320170721000101 00000000000000000000000000000000000000000000000000000000000000000000000000000000000000000000000000000000000000000N 00000000000NCONT   00    00000000000          00000000000000000000000000000000000000000000 000000000000000A000000000000000000000000000000000000000000000 000000000000000000000000000000000000000     00000000                                                                                                                        000000000000000000
F0010000010204700004000089080176300023658300000000000000000201707210002001SEGAR S.A.                                        C000000000000000000000000000000000100010010000000000000000000000F0010000010204700420170721000101 00000000000000000000000000000000000000000000000000000000000000000000000000000000000000000000000000000000000000000N 00000000000NCONT   00    00000000000          00000000000000000000000000000000000000000000 000000000000000A000000000000000000000000000000000000000000000 000000000000000000000000000000000000000     00000000                                                                                                                        000000000000000000
F0010000010204700005000089080176300013552100000000000000000201707210002001SEGAR S.A.                                        D000000000000000000000000000000000100010010000000000000000000000F0010000010204700520170721000101 00000000000000000000000000000000000000000000000000000000000000000000000000000000000000000000000000000000000000000N 00000000000NCONT   00    00000000000          00000000000000000000000000000000000000000000 000000000000000A000000000000000000000000000000000000000000000 000000000000000000000000000000000000000     00000000                                                                                                                        000000000000000000
F0010000010204800001000089080176300013050500000000000000000201707210002001SEGAR S.A.                                        D000000000000000000000000000000000100010010000000000000000000000F0010000010204800120170721000101 00000000000000000000000000000000000000000000000000000000000000000000000000000000000000000000000000000000000000000N 00000000000NCONT   00    00000000000          00000000000000000000000000000000000000000000 000000000000000A000000000000000000000000000000000000000000000 000000000000000000000000000000000000000     00000000                                                                                                                        000000000000000000
F0010000010204800002000089080176300041450500000000000000000201707210002001SEGAR S.A.                                        C000000000000000000000000000000000100010010000000000000000000000F0010000010204800220170721000101 00000000000000000000000000000000000000000000000000000000000000000000000000000000000000000000000000000000000000000N 00000000000NCONT   00    00000000000          00000000000000000000000000000000000000000000 000000000000000A000000000000000000000000000000000000000000000 000000000000000000000000000000000000000     00000000                                                                                                                        000000000000000000
F0010000010204800003000089080176300042505000000000000000000201707210002001SEGAR S.A.                                        C000000000000000000000000000000000100010010000000000000000000000F0010000010204800320170721000101 00000000000000000000000000000000000000000000000000000000000000000000000000000000000000000000000000000000000000000N 00000000000NCONT   00    00000000000          00000000000000000000000000000000000000000000 000000000000000A000000000000000000000000000000000000000000000 000000000000000000000000000000000000000     00000000                                                                                                                        000000000000000000
F0010000010204800004000089080176300023658300000000000000000201707210002001SEGAR S.A.                                        C000000000000000000000000000000000100010010000000000000000000000F0010000010204800420170721000101 00000000000000000000000000000000000000000000000000000000000000000000000000000000000000000000000000000000000000000N 00000000000NCONT   00    00000000000          00000000000000000000000000000000000000000000 000000000000000A000000000000000000000000000000000000000000000 000000000000000000000000000000000000000     00000000                                                                                                                        000000000000000000
F0010000010204800005000089080176300013552100000000000000000201707210002001SEGAR S.A.                                        D000000000000000000000000000000000100010010000000000000000000000F0010000010204800520170721000101 00000000000000000000000000000000000000000000000000000000000000000000000000000000000000000000000000000000000000000N 00000000000NCONT   00    00000000000          00000000000000000000000000000000000000000000 000000000000000A000000000000000000000000000000000000000000000 000000000000000000000000000000000000000     00000000                                                                                                                        000000000000000000
F0010000010204900001000080200962900013050500000000000000000201707210002001ACERO & MALLAS S.A.S.                             D000000008880000000000000000000000100010010000000000000000000000F0010000010204900120170721000101 00000000000000000000000000000000000000000000000000000000000000000000000000000000000000000000000000000000000000000N 00000000000NCONT   00    00000000000          00000000000000000000000000000000000000000000 000000000000000A000000000000000000000000000000000000000000000 000000000000000000000000000000000000000     00000000                                                                                                                        000000000000000000
F0010000010204900002000080200962900041450500000000000000000201707210002001ACERO & MALLAS S.A.S.                             C000000003000000000000000000000000100010010000000000000000000000F0010000010204900220170721000101 00000000000000000000000000000000000000000000000000000000000000000000000000000000000000000000000000000000000000000N 00000000000NCONT   00    00000000000          00000000000000000000000000000000000000000000 000000000000000A000000000000000000000000000000000000000000000 000000000000000000000000000000000000000     00000000                                                                                                                        000000000000000000
F0010000010204900003000080200962900042505000000000000000000201707210002001ACERO & MALLAS S.A.S.                             C000000005880000000000000000000000100010010000000000000000000000F0010000010204900320170721000101 00000000000000000000000000000000000000000000000000000000000000000000000000000000000000000000000000000000000000000N 00000000000NCONT   00    00000000000          00000000000000000000000000000000000000000000 000000000000000A000000000000000000000000000000000000000000000 000000000000000000000000000000000000000     00000000                                                                                                                        000000000000000000
F0010000010204900004000080200962900023658300000000000000000201707210002001ACERO & MALLAS S.A.S.                             C000000000000000000000000000000000100010010000000000000000000000F0010000010204900420170721000101 00000000000000000000000000000000000000000000000000000000000000000000000000000000000000000000000000000000000000000N 00000000000NCONT   00    00000000000          00000000000000000000000000000000000000000000 000000000000000A000000000000000000000000000000000000000000000 000000000000000000000000000000000000000     00000000                                                                                                                        000000000000000000
F0010000010204900005000080200962900013552100000000000000000201707210002001ACERO & MALLAS S.A.S.                             D000000000000000000000000000000000100010010000000000000000000000F0010000010204900520170721000101 00000000000000000000000000000000000000000000000000000000000000000000000000000000000000000000000000000000000000000N 00000000000NCONT   00    00000000000          00000000000000000000000000000000000000000000 000000000000000A000000000000000000000000000000000000000000000 000000000000000000000000000000000000000     00000000                                                                                                                        000000000000000000
F0010000010205000001000000376399500013050500000000000000000201707210002001FORDPLAST                                         D000000005640000000000000000000000100010010000000000000000000000F0010000010205000120170721000101 00000000000000000000000000000000000000000000000000000000000000000000000000000000000000000000000000000000000000000N 00000000000NCONT   00    00000000000          00000000000000000000000000000000000000000000 000000000000000A000000000000000000000000000000000000000000000 000000000000000000000000000000000000000     00000000                                                                                                                        000000000000000000
F0010000010205000002000000376399500041450500000000000000000201707210002001FORDPLAST                                         C000000004690000000000000000000000100010010000000000000000000000F0010000010205000220170721000101 00000000000000000000000000000000000000000000000000000000000000000000000000000000000000000000000000000000000000000N 00000000000NCONT   00    00000000000          00000000000000000000000000000000000000000000 000000000000000A000000000000000000000000000000000000000000000 000000000000000000000000000000000000000     00000000                                                                                                                        000000000000000000
F0010000010205000003000000376399500042505000000000000000000201707210002001FORDPLAST                                         C000000000950000000000000000000000100010010000000000000000000000F0010000010205000320170721000101 00000000000000000000000000000000000000000000000000000000000000000000000000000000000000000000000000000000000000000N 00000000000NCONT   00    00000000000          00000000000000000000000000000000000000000000 000000000000000A000000000000000000000000000000000000000000000 000000000000000000000000000000000000000     00000000                                                                                                                        000000000000000000
F0010000010205000004000000376399500023658300000000000000000201707210002001FORDPLAST                                         C000000000000000000000000000000000100010010000000000000000000000F0010000010205000420170721000101 00000000000000000000000000000000000000000000000000000000000000000000000000000000000000000000000000000000000000000N 00000000000NCONT   00    00000000000          00000000000000000000000000000000000000000000 000000000000000A000000000000000000000000000000000000000000000 000000000000000000000000000000000000000     00000000                                                                                                                        000000000000000000
F0010000010205000005000000376399500013552100000000000000000201707210002001FORDPLAST                                         D000000000000000000000000000000000100010010000000000000000000000F0010000010205000520170721000101 00000000000000000000000000000000000000000000000000000000000000000000000000000000000000000000000000000000000000000N 00000000000NCONT   00    00000000000          00000000000000000000000000000000000000000000 000000000000000A000000000000000000000000000000000000000000000 000000000000000000000000000000000000000     00000000                                                                                                                        000000000000000000
F0010000010205100001000080200069100013050500000000000000000201707210002001PEGANTES Y PINTURAS ATLAS LTDA                    D000000020872600000000000000000000100010010000000000000000000000F0010000010205100120170721000101 00000000000000000000000000000000000000000000000000000000000000000000000000000000000000000000000000000000000000000N 00000000000NCONT   00    00000000000          00000000000000000000000000000000000000000000 000000000000000A000000000000000000000000000000000000000000000 000000000000000000000000000000000000000     00000000                                                                                                                        000000000000000000
F0010000010205100002000080200069100041450500000000000000000201707210002001PEGANTES Y PINTURAS ATLAS LTDA                    C000000018150000000000000000000000100010010000000000000000000000F0010000010205100220170721000101 00000000000000000000000000000000000000000000000000000000000000000000000000000000000000000000000000000000000000000N 00000000000NCONT   00    00000000000          00000000000000000000000000000000000000000000 000000000000000A000000000000000000000000000000000000000000000 000000000000000000000000000000000000000     00000000                                                                                                                        000000000000000000
F0010000010205100003000080200069100042505000000000000000000201707210002001PEGANTES Y PINTURAS ATLAS LTDA                    C000000002722600000000000000000000100010010000000000000000000000F0010000010205100320170721000101 00000000000000000000000000000000000000000000000000000000000000000000000000000000000000000000000000000000000000000N 00000000000NCONT   00    00000000000          00000000000000000000000000000000000000000000 000000000000000A000000000000000000000000000000000000000000000 000000000000000000000000000000000000000     00000000                                                                                                                        000000000000000000
F0010000010205100004000080200069100023658300000000000000000201707210002001PEGANTES Y PINTURAS ATLAS LTDA                    C000000000000000000000000000000000100010010000000000000000000000F0010000010205100420170721000101 00000000000000000000000000000000000000000000000000000000000000000000000000000000000000000000000000000000000000000N 00000000000NCONT   00    00000000000          00000000000000000000000000000000000000000000 000000000000000A000000000000000000000000000000000000000000000 000000000000000000000000000000000000000     00000000                                                                                                                        000000000000000000
F0010000010205100005000080200069100013552100000000000000000201707210002001PEGANTES Y PINTURAS ATLAS LTDA                    D000000000000000000000000000000000100010010000000000000000000000F0010000010205100520170721000101 00000000000000000000000000000000000000000000000000000000000000000000000000000000000000000000000000000000000000000N 00000000000NCONT   00    00000000000          00000000000000000000000000000000000000000000 000000000000000A000000000000000000000000000000000000000000000 000000000000000000000000000000000000000     00000000                                                                                                                        000000000000000000
F0010000010205200001000000091780800013050500000000000000000201707210002001ITALO RENE HERAZO CARCAMO /CENTRAL DE TORNILLOS   D000000004240000000000000000000000100010010000000000000000000000F0010000010205200120170721000101 00000000000000000000000000000000000000000000000000000000000000000000000000000000000000000000000000000000000000000N 00000000000NCONT   00    00000000000          00000000000000000000000000000000000000000000 000000000000000A000000000000000000000000000000000000000000000 000000000000000000000000000000000000000     00000000                                                                                                                        000000000000000000
F0010000010205200002000000091780800041450500000000000000000201707210002001ITALO RENE HERAZO CARCAMO /CENTRAL DE TORNILLOS   C000000003840000000000000000000000100010010000000000000000000000F0010000010205200220170721000101 00000000000000000000000000000000000000000000000000000000000000000000000000000000000000000000000000000000000000000N 00000000000NCONT   00    00000000000          00000000000000000000000000000000000000000000 000000000000000A000000000000000000000000000000000000000000000 000000000000000000000000000000000000000     00000000                                                                                                                        000000000000000000
F0010000010205200003000000091780800042505000000000000000000201707210002001ITALO RENE HERAZO CARCAMO /CENTRAL DE TORNILLOS   C000000000400000000000000000000000100010010000000000000000000000F0010000010205200320170721000101 00000000000000000000000000000000000000000000000000000000000000000000000000000000000000000000000000000000000000000N 00000000000NCONT   00    00000000000          00000000000000000000000000000000000000000000 000000000000000A000000000000000000000000000000000000000000000 000000000000000000000000000000000000000     00000000                                                                                                                        000000000000000000
F0010000010205200004000000091780800023658300000000000000000201707210002001ITALO RENE HERAZO CARCAMO /CENTRAL DE TORNILLOS   C000000000000000000000000000000000100010010000000000000000000000F0010000010205200420170721000101 00000000000000000000000000000000000000000000000000000000000000000000000000000000000000000000000000000000000000000N 00000000000NCONT   00    00000000000          00000000000000000000000000000000000000000000 000000000000000A000000000000000000000000000000000000000000000 000000000000000000000000000000000000000     00000000                                                                                                                        000000000000000000
F0010000010205200005000000091780800013552100000000000000000201707210002001ITALO RENE HERAZO CARCAMO /CENTRAL DE TORNILLOS   D000000000000000000000000000000000100010010000000000000000000000F0010000010205200520170721000101 00000000000000000000000000000000000000000000000000000000000000000000000000000000000000000000000000000000000000000N 00000000000NCONT   00    00000000000          00000000000000000000000000000000000000000000 000000000000000A000000000000000000000000000000000000000000000 000000000000000000000000000000000000000     00000000                                                                                                                        000000000000000000
F0010000010205300001000080019113900013050500000000000000000201707210002001COMERCIAL NOVAPEL LTDA                            D000000027660000000000000000000000100010010000000000000000000000F0010000010205300120170721000101 00000000000000000000000000000000000000000000000000000000000000000000000000000000000000000000000000000000000000000N 00000000000NCONT   00    00000000000          00000000000000000000000000000000000000000000 000000000000000A000000000000000000000000000000000000000000000 000000000000000000000000000000000000000     00000000                                                                                                                        000000000000000000
F0010000010205300002000080019113900041450500000000000000000201707210002001COMERCIAL NOVAPEL LTDA                            C000000025550000000000000000000000100010010000000000000000000000F0010000010205300220170721000101 00000000000000000000000000000000000000000000000000000000000000000000000000000000000000000000000000000000000000000N 00000000000NCONT   00    00000000000          00000000000000000000000000000000000000000000 000000000000000A000000000000000000000000000000000000000000000 000000000000000000000000000000000000000     00000000                                                                                                                        000000000000000000
F0010000010205300003000080019113900042505000000000000000000201707210002001COMERCIAL NOVAPEL LTDA                            C000000002110000000000000000000000100010010000000000000000000000F0010000010205300320170721000101 00000000000000000000000000000000000000000000000000000000000000000000000000000000000000000000000000000000000000000N 00000000000NCONT   00    00000000000          00000000000000000000000000000000000000000000 000000000000000A000000000000000000000000000000000000000000000 000000000000000000000000000000000000000     00000000                                                                                                                        000000000000000000
F0010000010205300004000080019113900023658300000000000000000201707210002001COMERCIAL NOVAPEL LTDA                            C000000000000000000000000000000000100010010000000000000000000000F0010000010205300420170721000101 00000000000000000000000000000000000000000000000000000000000000000000000000000000000000000000000000000000000000000N 00000000000NCONT   00    00000000000          00000000000000000000000000000000000000000000 000000000000000A000000000000000000000000000000000000000000000 000000000000000000000000000000000000000     00000000                                                                                                                        000000000000000000
F0010000010205300005000080019113900013552100000000000000000201707210002001COMERCIAL NOVAPEL LTDA                            D000000000000000000000000000000000100010010000000000000000000000F0010000010205300520170721000101 00000000000000000000000000000000000000000000000000000000000000000000000000000000000000000000000000000000000000000N 00000000000NCONT   00    00000000000          00000000000000000000000000000000000000000000 000000000000000A000000000000000000000000000000000000000000000 000000000000000000000000000000000000000     00000000                                                                                                                        000000000000000000
F0010000010205400001000003273290300013050500000000000000000201707210002001YANETH GOMEZ ROJANO -  COMERCIALIZADORA YG        D000000010028000000000000000000000100010010000000000000000000000F0010000010205400120170721000101 00000000000000000000000000000000000000000000000000000000000000000000000000000000000000000000000000000000000000000N 00000000000NCONT   00    00000000000          00000000000000000000000000000000000000000000 000000000000000A000000000000000000000000000000000000000000000 000000000000000000000000000000000000000     00000000                                                                                                                        000000000000000000
F0010000010205400002000003273290300041450500000000000000000201707210002001YANETH GOMEZ ROJANO -  COMERCIALIZADORA YG        C000000006850000000000000000000000100010010000000000000000000000F0010000010205400220170721000101 00000000000000000000000000000000000000000000000000000000000000000000000000000000000000000000000000000000000000000N 00000000000NCONT   00    00000000000          00000000000000000000000000000000000000000000 000000000000000A000000000000000000000000000000000000000000000 000000000000000000000000000000000000000     00000000                                                                                                                        000000000000000000
F0010000010205400003000003273290300042505000000000000000000201707210002001YANETH GOMEZ ROJANO -  COMERCIALIZADORA YG        C000000003178000000000000000000000100010010000000000000000000000F0010000010205400320170721000101 00000000000000000000000000000000000000000000000000000000000000000000000000000000000000000000000000000000000000000N 00000000000NCONT   00    00000000000          00000000000000000000000000000000000000000000 000000000000000A000000000000000000000000000000000000000000000 000000000000000000000000000000000000000     00000000                                                                                                                        000000000000000000
F0010000010205400004000003273290300023658300000000000000000201707210002001YANETH GOMEZ ROJANO -  COMERCIALIZADORA YG        C000000000000000000000000000000000100010010000000000000000000000F0010000010205400420170721000101 00000000000000000000000000000000000000000000000000000000000000000000000000000000000000000000000000000000000000000N 00000000000NCONT   00    00000000000          00000000000000000000000000000000000000000000 000000000000000A000000000000000000000000000000000000000000000 000000000000000000000000000000000000000     00000000                                                                                                                        000000000000000000
F0010000010205400005000003273290300013552100000000000000000201707210002001YANETH GOMEZ ROJANO -  COMERCIALIZADORA YG        D000000000000000000000000000000000100010010000000000000000000000F0010000010205400520170721000101 00000000000000000000000000000000000000000000000000000000000000000000000000000000000000000000000000000000000000000N 00000000000NCONT   00    00000000000          00000000000000000000000000000000000000000000 000000000000000A000000000000000000000000000000000000000000000 000000000000000000000000000000000000000     00000000                                                                                                                        000000000000000000
F0010000010205500001000090052543100013050500000000000000000201707210002001SECRET COLOR SAS                                  D000000019390000000000000000000000100010010000000000000000000000F0010000010205500120170721000101 00000000000000000000000000000000000000000000000000000000000000000000000000000000000000000000000000000000000000000N 00000000000NCONT   00    00000000000          00000000000000000000000000000000000000000000 000000000000000A000000000000000000000000000000000000000000000 000000000000000000000000000000000000000     00000000                                                                                                                        000000000000000000
F0010000010205500002000090052543100041450500000000000000000201707210002001SECRET COLOR SAS                                  C000000019390000000000000000000000100010010000000000000000000000F0010000010205500220170721000101 00000000000000000000000000000000000000000000000000000000000000000000000000000000000000000000000000000000000000000N 00000000000NCONT   00    00000000000          00000000000000000000000000000000000000000000 000000000000000A000000000000000000000000000000000000000000000 000000000000000000000000000000000000000     00000000                                                                                                                        000000000000000000
F0010000010205500003000090052543100042505000000000000000000201707210002001SECRET COLOR SAS                                  C000000000000000000000000000000000100010010000000000000000000000F0010000010205500320170721000101 00000000000000000000000000000000000000000000000000000000000000000000000000000000000000000000000000000000000000000N 00000000000NCONT   00    00000000000          00000000000000000000000000000000000000000000 000000000000000A000000000000000000000000000000000000000000000 000000000000000000000000000000000000000     00000000                                                                                                                        000000000000000000
F0010000010205500004000090052543100023658300000000000000000201707210002001SECRET COLOR SAS                                  C000000000000000000000000000000000100010010000000000000000000000F0010000010205500420170721000101 00000000000000000000000000000000000000000000000000000000000000000000000000000000000000000000000000000000000000000N 00000000000NCONT   00    00000000000          00000000000000000000000000000000000000000000 000000000000000A000000000000000000000000000000000000000000000 000000000000000000000000000000000000000     00000000                                                                                                                        000000000000000000
F0010000010205500005000090052543100013552100000000000000000201707210002001SECRET COLOR SAS                                  D000000000000000000000000000000000100010010000000000000000000000F0010000010205500520170721000101 00000000000000000000000000000000000000000000000000000000000000000000000000000000000000000000000000000000000000000N 00000000000NCONT   00    00000000000          00000000000000000000000000000000000000000000 000000000000000A000000000000000000000000000000000000000000000 000000000000000000000000000000000000000     00000000                                                                                                                        000000000000000000
F0010000010205600001000090008711200013050500000000000000000201707210002001PACKAGING SUPPLIERS S.A.S                         D000000103235800000000000000000000100010010000000000000000000000F0010000010205600120170721000101 00000000000000000000000000000000000000000000000000000000000000000000000000000000000000000000000000000000000000000N 00000000000NCONT   00    00000000000          00000000000000000000000000000000000000000000 000000000000000A000000000000000000000000000000000000000000000 000000000000000000000000000000000000000     00000000                                                                                                                        000000000000000000
F0010000010205600002000090008711200041450500000000000000000201707210002001PACKAGING SUPPLIERS S.A.S                         C000000096154800000000000000000000100010010000000000000000000000F0010000010205600220170721000101 00000000000000000000000000000000000000000000000000000000000000000000000000000000000000000000000000000000000000000N 00000000000NCONT   00    00000000000          00000000000000000000000000000000000000000000 000000000000000A000000000000000000000000000000000000000000000 000000000000000000000000000000000000000     00000000                                                                                                                        000000000000000000
F0010000010205600003000090008711200042505000000000000000000201707210002001PACKAGING SUPPLIERS S.A.S                         C000000007081000000000000000000000100010010000000000000000000000F0010000010205600320170721000101 00000000000000000000000000000000000000000000000000000000000000000000000000000000000000000000000000000000000000000N 00000000000NCONT   00    00000000000          00000000000000000000000000000000000000000000 000000000000000A000000000000000000000000000000000000000000000 000000000000000000000000000000000000000     00000000                                                                                                                        000000000000000000
F0010000010205600004000090008711200023658300000000000000000201707210002001PACKAGING SUPPLIERS S.A.S                         C000000000000000000000000000000000100010010000000000000000000000F0010000010205600420170721000101 00000000000000000000000000000000000000000000000000000000000000000000000000000000000000000000000000000000000000000N 00000000000NCONT   00    00000000000          00000000000000000000000000000000000000000000 000000000000000A000000000000000000000000000000000000000000000 000000000000000000000000000000000000000     00000000                                                                                                                        000000000000000000
F0010000010205600005000090008711200013552100000000000000000201707210002001PACKAGING SUPPLIERS S.A.S                         D000000000000000000000000000000000100010010000000000000000000000F0010000010205600520170721000101 00000000000000000000000000000000000000000000000000000000000000000000000000000000000000000000000000000000000000000N 00000000000NCONT   00    00000000000          00000000000000000000000000000000000000000000 000000000000000A000000000000000000000000000000000000000000000 000000000000000000000000000000000000000     00000000                                                                                                                        000000000000000000
F0010000010204500001000090022551800013050500000000000000000201707210002001GRUPO DAVANI S.A.S                                D000000151741500000000000000000000200010010000000000000000000000F0010000010204500120170721000101 00000000000000000000000000000000000000000000000000000000000000000000000000000000000000000000000000000000000000000N 00000000000NCONT   00    00000000000          00000000000000000000000000000000000000000000 000000000000000A000000000000000000000000000000000000000000000 000000000000000000000000000000000000000     00000000                                                                                                                        000000000000000000
F0010000010204500002000090022551800041450500000000000000000201707210002001GRUPO DAVANI S.A.S                                C000000113000000000000000000000000200010010000000000000000000000F0010000010204500220170721000101 00000000000000000000000000000000000000000000000000000000000000000000000000000000000000000000000000000000000000000N 00000000000NCONT   00    00000000000          00000000000000000000000000000000000000000000 000000000000000A000000000000000000000000000000000000000000000 000000000000000000000000000000000000000     00000000                                                                                                                        000000000000000000
F0010000010204500003000090022551800042505000000000000000000201707210002001GRUPO DAVANI S.A.S                                C000000038741500000000000000000000200010010000000000000000000000F0010000010204500320170721000101 00000000000000000000000000000000000000000000000000000000000000000000000000000000000000000000000000000000000000000N 00000000000NCONT   00    00000000000          00000000000000000000000000000000000000000000 000000000000000A000000000000000000000000000000000000000000000 000000000000000000000000000000000000000     00000000                                                                                                                        000000000000000000
F0010000010204500004000090022551800023658300000000000000000201707210002001GRUPO DAVANI S.A.S                                C000000000000000000000000000000000200010010000000000000000000000F0010000010204500420170721000101 00000000000000000000000000000000000000000000000000000000000000000000000000000000000000000000000000000000000000000N 00000000000NCONT   00    00000000000          00000000000000000000000000000000000000000000 000000000000000A000000000000000000000000000000000000000000000 000000000000000000000000000000000000000     00000000                                                                                                                        000000000000000000
F0010000010204500005000090022551800013552100000000000000000201707210002001GRUPO DAVANI S.A.S                                D000000000000000000000000000000000200010010000000000000000000000F0010000010204500520170721000101 00000000000000000000000000000000000000000000000000000000000000000000000000000000000000000000000000000000000000000N 00000000000NCONT   00    00000000000          00000000000000000000000000000000000000000000 000000000000000A000000000000000000000000000000000000000000000 000000000000000000000000000000000000000     00000000                                                                                                                        000000000000000000
