F0010000009557900001000080014530200011050500000000000000000201612140002001IMPORTADORA SABYS GARCIA Y CIA LTDA               D000000005000000000000000000000000100010010000000000000000000000F0010000009557900120161214000101 00000000000000000000000000000000000000000000000000000000000000000000000000000000000000000000000000000000000000000N 00000000000NCONT   00    00000000000          00000000000000000000000000000000000000000000 000000000000000A000000000000000000000000000000000000000000000 000000000000000000000000000000000000000     00000000                                                                                                                        000000000000000000
F0010000009557900002000080014530200041450500000000000000000201612140002001IMPORTADORA SABYS GARCIA Y CIA LTDA               C000000004700000000000000000000000100010010000000000000000000000F0010000009557900220161214000101 00000000000000000000000000000000000000000000000000000000000000000000000000000000000000000000000000000000000000000N 00000000000NCONT   00    00000000000          00000000000000000000000000000000000000000000 000000000000000A000000000000000000000000000000000000000000000 000000000000000000000000000000000000000     00000000                                                                                                                        000000000000000000
F0010000009557900003000080014530200042505000000000000000000201612140002001IMPORTADORA SABYS GARCIA Y CIA LTDA               C000000000300000000000000000000000100010010000000000000000000000F0010000009557900320161214000101 00000000000000000000000000000000000000000000000000000000000000000000000000000000000000000000000000000000000000000N 00000000000NCONT   00    00000000000          00000000000000000000000000000000000000000000 000000000000000A000000000000000000000000000000000000000000000 000000000000000000000000000000000000000     00000000                                                                                                                        000000000000000000
F0010000009557900004000080014530200023658300000000000000000201612140002001IMPORTADORA SABYS GARCIA Y CIA LTDA               C000000000037600000000000000000000100010010000000000000000000000F0010000009557900420161214000101 00000000000000000000000000000000000000000000000000000000000000000000000000000000000000000000000000000000000000000N 00000000000NCONT   00    00000000000          00000000000000000000000000000000000000000000 000000000000000A000000000000000000000000000000000000000000000 000000000000000000000000000000000000000     00000000                                                                                                                        000000000000000000
F0010000009557900005000080014530200013552100000000000000000201612140002001IMPORTADORA SABYS GARCIA Y CIA LTDA               D000000000037600000000000000000000100010010000000000000000000000F0010000009557900520161214000101 00000000000000000000000000000000000000000000000000000000000000000000000000000000000000000000000000000000000000000N 00000000000NCONT   00    00000000000          00000000000000000000000000000000000000000000 000000000000000A000000000000000000000000000000000000000000000 000000000000000000000000000000000000000     00000000                                                                                                                        000000000000000000
F0010000009558000001000007200690400011050500000000000000000201612140002001JANNER MANUEL HERAZO MADARIAGA                    D000000003500000000000000000000000100010010000000000000000000000F0010000009558000120161214000101 00000000000000000000000000000000000000000000000000000000000000000000000000000000000000000000000000000000000000000N 00000000000NCONT   00    00000000000          00000000000000000000000000000000000000000000 000000000000000A000000000000000000000000000000000000000000000 000000000000000000000000000000000000000     00000000                                                                                                                        000000000000000000
F0010000009558000002000007200690400041450500000000000000000201612140002001JANNER MANUEL HERAZO MADARIAGA                    C000000003300000000000000000000000100010010000000000000000000000F0010000009558000220161214000101 00000000000000000000000000000000000000000000000000000000000000000000000000000000000000000000000000000000000000000N 00000000000NCONT   00    00000000000          00000000000000000000000000000000000000000000 000000000000000A000000000000000000000000000000000000000000000 000000000000000000000000000000000000000     00000000                                                                                                                        000000000000000000
F0010000009558000003000007200690400042505000000000000000000201612140002001JANNER MANUEL HERAZO MADARIAGA                    C000000000200000000000000000000000100010010000000000000000000000F0010000009558000320161214000101 00000000000000000000000000000000000000000000000000000000000000000000000000000000000000000000000000000000000000000N 00000000000NCONT   00    00000000000          00000000000000000000000000000000000000000000 000000000000000A000000000000000000000000000000000000000000000 000000000000000000000000000000000000000     00000000                                                                                                                        000000000000000000
F0010000009558000004000007200690400023658300000000000000000201612140002001JANNER MANUEL HERAZO MADARIAGA                    C000000000026400000000000000000000100010010000000000000000000000F0010000009558000420161214000101 00000000000000000000000000000000000000000000000000000000000000000000000000000000000000000000000000000000000000000N 00000000000NCONT   00    00000000000          00000000000000000000000000000000000000000000 000000000000000A000000000000000000000000000000000000000000000 000000000000000000000000000000000000000     00000000                                                                                                                        000000000000000000
F0010000009558000005000007200690400013552100000000000000000201612140002001JANNER MANUEL HERAZO MADARIAGA                    D000000000026400000000000000000000100010010000000000000000000000F0010000009558000520161214000101 00000000000000000000000000000000000000000000000000000000000000000000000000000000000000000000000000000000000000000N 00000000000NCONT   00    00000000000          00000000000000000000000000000000000000000000 000000000000000A000000000000000000000000000000000000000000000 000000000000000000000000000000000000000     00000000                                                                                                                        000000000000000000
F0010000009558100001000090067091400011050500000000000000000201612140002001COMERCIALIZADORA ESCOBAR ORTIZ                    D000000005523200000000000000000000100010010000000000000000000000F0010000009558100120161214000101 00000000000000000000000000000000000000000000000000000000000000000000000000000000000000000000000000000000000000000N 00000000000NCONT   00    00000000000          00000000000000000000000000000000000000000000 000000000000000A000000000000000000000000000000000000000000000 000000000000000000000000000000000000000     00000000                                                                                                                        000000000000000000
F0010000009558100002000090067091400041450500000000000000000201612140002001COMERCIALIZADORA ESCOBAR ORTIZ                    C000000004500000000000000000000000100010010000000000000000000000F0010000009558100220161214000101 00000000000000000000000000000000000000000000000000000000000000000000000000000000000000000000000000000000000000000N 00000000000NCONT   00    00000000000          00000000000000000000000000000000000000000000 000000000000000A000000000000000000000000000000000000000000000 000000000000000000000000000000000000000     00000000                                                                                                                        000000000000000000
F0010000009558100003000090067091400042505000000000000000000201612140002001COMERCIALIZADORA ESCOBAR ORTIZ                    C000000001023200000000000000000000100010010000000000000000000000F0010000009558100320161214000101 00000000000000000000000000000000000000000000000000000000000000000000000000000000000000000000000000000000000000000N 00000000000NCONT   00    00000000000          00000000000000000000000000000000000000000000 000000000000000A000000000000000000000000000000000000000000000 000000000000000000000000000000000000000     00000000                                                                                                                        000000000000000000
F0010000009558100004000090067091400023658300000000000000000201612140002001COMERCIALIZADORA ESCOBAR ORTIZ                    C000000000036000000000000000000000100010010000000000000000000000F0010000009558100420161214000101 00000000000000000000000000000000000000000000000000000000000000000000000000000000000000000000000000000000000000000N 00000000000NCONT   00    00000000000          00000000000000000000000000000000000000000000 000000000000000A000000000000000000000000000000000000000000000 000000000000000000000000000000000000000     00000000                                                                                                                        000000000000000000
F0010000009558100005000090067091400013552100000000000000000201612140002001COMERCIALIZADORA ESCOBAR ORTIZ                    D000000000036000000000000000000000100010010000000000000000000000F0010000009558100520161214000101 00000000000000000000000000000000000000000000000000000000000000000000000000000000000000000000000000000000000000000N 00000000000NCONT   00    00000000000          00000000000000000000000000000000000000000000 000000000000000A000000000000000000000000000000000000000000000 000000000000000000000000000000000000000     00000000                                                                                                                        000000000000000000
F0010000009558200001000090067091400011050500000000000000000201612140002001COMERCIALIZADORA ESCOBAR ORTIZ                    D000000004500000000000000000000000100010010000000000000000000000F0010000009558200120161214000101 00000000000000000000000000000000000000000000000000000000000000000000000000000000000000000000000000000000000000000N 00000000000NCONT   00    00000000000          00000000000000000000000000000000000000000000 000000000000000A000000000000000000000000000000000000000000000 000000000000000000000000000000000000000     00000000                                                                                                                        000000000000000000
F0010000009558200002000090067091400041450500000000000000000201612140002001COMERCIALIZADORA ESCOBAR ORTIZ                    C000000003100000000000000000000000100010010000000000000000000000F0010000009558200220161214000101 00000000000000000000000000000000000000000000000000000000000000000000000000000000000000000000000000000000000000000N 00000000000NCONT   00    00000000000          00000000000000000000000000000000000000000000 000000000000000A000000000000000000000000000000000000000000000 000000000000000000000000000000000000000     00000000                                                                                                                        000000000000000000
F0010000009558200003000090067091400042505000000000000000000201612140002001COMERCIALIZADORA ESCOBAR ORTIZ                    C000000001400000000000000000000000100010010000000000000000000000F0010000009558200320161214000101 00000000000000000000000000000000000000000000000000000000000000000000000000000000000000000000000000000000000000000N 00000000000NCONT   00    00000000000          00000000000000000000000000000000000000000000 000000000000000A000000000000000000000000000000000000000000000 000000000000000000000000000000000000000     00000000                                                                                                                        000000000000000000
F0010000009558200004000090067091400023658300000000000000000201612140002001COMERCIALIZADORA ESCOBAR ORTIZ                    C000000000024800000000000000000000100010010000000000000000000000F0010000009558200420161214000101 00000000000000000000000000000000000000000000000000000000000000000000000000000000000000000000000000000000000000000N 00000000000NCONT   00    00000000000          00000000000000000000000000000000000000000000 000000000000000A000000000000000000000000000000000000000000000 000000000000000000000000000000000000000     00000000                                                                                                                        000000000000000000
F0010000009558200005000090067091400013552100000000000000000201612140002001COMERCIALIZADORA ESCOBAR ORTIZ                    D000000000024800000000000000000000100010010000000000000000000000F0010000009558200520161214000101 00000000000000000000000000000000000000000000000000000000000000000000000000000000000000000000000000000000000000000N 00000000000NCONT   00    00000000000          00000000000000000000000000000000000000000000 000000000000000A000000000000000000000000000000000000000000000 000000000000000000000000000000000000000     00000000                                                                                                                        000000000000000000
F0010000009558300001000090024483300011050500000000000000000201612140002001COSMETICOS A-GUZ                                  D000000002500000000000000000000000100010010000000000000000000000F0010000009558300120161214000101 00000000000000000000000000000000000000000000000000000000000000000000000000000000000000000000000000000000000000000N 00000000000NCONT   00    00000000000          00000000000000000000000000000000000000000000 000000000000000A000000000000000000000000000000000000000000000 000000000000000000000000000000000000000     00000000                                                                                                                        000000000000000000
F0010000009558300002000090024483300041450500000000000000000201612140002001COSMETICOS A-GUZ                                  C000000002300000000000000000000000100010010000000000000000000000F0010000009558300220161214000101 00000000000000000000000000000000000000000000000000000000000000000000000000000000000000000000000000000000000000000N 00000000000NCONT   00    00000000000          00000000000000000000000000000000000000000000 000000000000000A000000000000000000000000000000000000000000000 000000000000000000000000000000000000000     00000000                                                                                                                        000000000000000000
F0010000009558300003000090024483300042505000000000000000000201612140002001COSMETICOS A-GUZ                                  C000000000200000000000000000000000100010010000000000000000000000F0010000009558300320161214000101 00000000000000000000000000000000000000000000000000000000000000000000000000000000000000000000000000000000000000000N 00000000000NCONT   00    00000000000          00000000000000000000000000000000000000000000 000000000000000A000000000000000000000000000000000000000000000 000000000000000000000000000000000000000     00000000                                                                                                                        000000000000000000
F0010000009558300004000090024483300023658300000000000000000201612140002001COSMETICOS A-GUZ                                  C000000000018400000000000000000000100010010000000000000000000000F0010000009558300420161214000101 00000000000000000000000000000000000000000000000000000000000000000000000000000000000000000000000000000000000000000N 00000000000NCONT   00    00000000000          00000000000000000000000000000000000000000000 000000000000000A000000000000000000000000000000000000000000000 000000000000000000000000000000000000000     00000000                                                                                                                        000000000000000000
F0010000009558300005000090024483300013552100000000000000000201612140002001COSMETICOS A-GUZ                                  D000000000018400000000000000000000100010010000000000000000000000F0010000009558300520161214000101 00000000000000000000000000000000000000000000000000000000000000000000000000000000000000000000000000000000000000000N 00000000000NCONT   00    00000000000          00000000000000000000000000000000000000000000 000000000000000A000000000000000000000000000000000000000000000 000000000000000000000000000000000000000     00000000                                                                                                                        000000000000000000
F0010000009558400001000007090373900011050500000000000000000201612140002001CACHARRERIA LOS MARINILLOS                        D000000006000000000000000000000000100010010000000000000000000000F0010000009558400120161214000101 00000000000000000000000000000000000000000000000000000000000000000000000000000000000000000000000000000000000000000N 00000000000NCONT   00    00000000000          00000000000000000000000000000000000000000000 000000000000000A000000000000000000000000000000000000000000000 000000000000000000000000000000000000000     00000000                                                                                                                        000000000000000000
F0010000009558400002000007090373900041450500000000000000000201612140002001CACHARRERIA LOS MARINILLOS                        C000000005600000000000000000000000100010010000000000000000000000F0010000009558400220161214000101 00000000000000000000000000000000000000000000000000000000000000000000000000000000000000000000000000000000000000000N 00000000000NCONT   00    00000000000          00000000000000000000000000000000000000000000 000000000000000A000000000000000000000000000000000000000000000 000000000000000000000000000000000000000     00000000                                                                                                                        000000000000000000
F0010000009558400003000007090373900042505000000000000000000201612140002001CACHARRERIA LOS MARINILLOS                        C000000000400000000000000000000000100010010000000000000000000000F0010000009558400320161214000101 00000000000000000000000000000000000000000000000000000000000000000000000000000000000000000000000000000000000000000N 00000000000NCONT   00    00000000000          00000000000000000000000000000000000000000000 000000000000000A000000000000000000000000000000000000000000000 000000000000000000000000000000000000000     00000000                                                                                                                        000000000000000000
F0010000009558400004000007090373900023658300000000000000000201612140002001CACHARRERIA LOS MARINILLOS                        C000000000044800000000000000000000100010010000000000000000000000F0010000009558400420161214000101 00000000000000000000000000000000000000000000000000000000000000000000000000000000000000000000000000000000000000000N 00000000000NCONT   00    00000000000          00000000000000000000000000000000000000000000 000000000000000A000000000000000000000000000000000000000000000 000000000000000000000000000000000000000     00000000                                                                                                                        000000000000000000
F0010000009558400005000007090373900013552100000000000000000201612140002001CACHARRERIA LOS MARINILLOS                        D000000000044800000000000000000000100010010000000000000000000000F0010000009558400520161214000101 00000000000000000000000000000000000000000000000000000000000000000000000000000000000000000000000000000000000000000N 00000000000NCONT   00    00000000000          00000000000000000000000000000000000000000000 000000000000000A000000000000000000000000000000000000000000000 000000000000000000000000000000000000000     00000000                                                                                                                        000000000000000000
F0010000009558500001000003654380100011050500000000000000000201612140002001COMPRA VENTA LA MEJOR                             D000000001600000000000000000000000100010010000000000000000000000F0010000009558500120161214000101 00000000000000000000000000000000000000000000000000000000000000000000000000000000000000000000000000000000000000000N 00000000000NCONT   00    00000000000          00000000000000000000000000000000000000000000 000000000000000A000000000000000000000000000000000000000000000 000000000000000000000000000000000000000     00000000                                                                                                                        000000000000000000
F0010000009558500002000003654380100041450500000000000000000201612140002001COMPRA VENTA LA MEJOR                             C000000001500000000000000000000000100010010000000000000000000000F0010000009558500220161214000101 00000000000000000000000000000000000000000000000000000000000000000000000000000000000000000000000000000000000000000N 00000000000NCONT   00    00000000000          00000000000000000000000000000000000000000000 000000000000000A000000000000000000000000000000000000000000000 000000000000000000000000000000000000000     00000000                                                                                                                        000000000000000000
F0010000009558500003000003654380100042505000000000000000000201612140002001COMPRA VENTA LA MEJOR                             C000000000100000000000000000000000100010010000000000000000000000F0010000009558500320161214000101 00000000000000000000000000000000000000000000000000000000000000000000000000000000000000000000000000000000000000000N 00000000000NCONT   00    00000000000          00000000000000000000000000000000000000000000 000000000000000A000000000000000000000000000000000000000000000 000000000000000000000000000000000000000     00000000                                                                                                                        000000000000000000
F0010000009558500004000003654380100023658300000000000000000201612140002001COMPRA VENTA LA MEJOR                             C000000000012000000000000000000000100010010000000000000000000000F0010000009558500420161214000101 00000000000000000000000000000000000000000000000000000000000000000000000000000000000000000000000000000000000000000N 00000000000NCONT   00    00000000000          00000000000000000000000000000000000000000000 000000000000000A000000000000000000000000000000000000000000000 000000000000000000000000000000000000000     00000000                                                                                                                        000000000000000000
F0010000009558500005000003654380100013552100000000000000000201612140002001COMPRA VENTA LA MEJOR                             D000000000012000000000000000000000100010010000000000000000000000F0010000009558500520161214000101 00000000000000000000000000000000000000000000000000000000000000000000000000000000000000000000000000000000000000000N 00000000000NCONT   00    00000000000          00000000000000000000000000000000000000000000 000000000000000A000000000000000000000000000000000000000000000 000000000000000000000000000000000000000     00000000                                                                                                                        000000000000000000
F0010000009558600001000000868846900011050500000000000000000201612140002001NICOLAS DE LA HOZ SAUCEDO                         D000000001800000000000000000000000100010010000000000000000000000F0010000009558600120161214000101 00000000000000000000000000000000000000000000000000000000000000000000000000000000000000000000000000000000000000000N 00000000000NCONT   00    00000000000          00000000000000000000000000000000000000000000 000000000000000A000000000000000000000000000000000000000000000 000000000000000000000000000000000000000     00000000                                                                                                                        000000000000000000
F0010000009558600002000000868846900041450500000000000000000201612140002001NICOLAS DE LA HOZ SAUCEDO                         C000000001000000000000000000000000100010010000000000000000000000F0010000009558600220161214000101 00000000000000000000000000000000000000000000000000000000000000000000000000000000000000000000000000000000000000000N 00000000000NCONT   00    00000000000          00000000000000000000000000000000000000000000 000000000000000A000000000000000000000000000000000000000000000 000000000000000000000000000000000000000     00000000                                                                                                                        000000000000000000
F0010000009558600003000000868846900042505000000000000000000201612140002001NICOLAS DE LA HOZ SAUCEDO                         C000000000800000000000000000000000100010010000000000000000000000F0010000009558600320161214000101 00000000000000000000000000000000000000000000000000000000000000000000000000000000000000000000000000000000000000000N 00000000000NCONT   00    00000000000          00000000000000000000000000000000000000000000 000000000000000A000000000000000000000000000000000000000000000 000000000000000000000000000000000000000     00000000                                                                                                                        000000000000000000
F0010000009558600004000000868846900023658300000000000000000201612140002001NICOLAS DE LA HOZ SAUCEDO                         C000000000008000000000000000000000100010010000000000000000000000F0010000009558600420161214000101 00000000000000000000000000000000000000000000000000000000000000000000000000000000000000000000000000000000000000000N 00000000000NCONT   00    00000000000          00000000000000000000000000000000000000000000 000000000000000A000000000000000000000000000000000000000000000 000000000000000000000000000000000000000     00000000                                                                                                                        000000000000000000
F0010000009558600005000000868846900013552100000000000000000201612140002001NICOLAS DE LA HOZ SAUCEDO                         D000000000008000000000000000000000100010010000000000000000000000F0010000009558600520161214000101 00000000000000000000000000000000000000000000000000000000000000000000000000000000000000000000000000000000000000000N 00000000000NCONT   00    00000000000          00000000000000000000000000000000000000000000 000000000000000A000000000000000000000000000000000000000000000 000000000000000000000000000000000000000     00000000                                                                                                                        000000000000000000
F0010000009558700001000090051494400011050500000000000000000201612140002001MUNDINOX SAS                                      D000000003000000000000000000000000100010010000000000000000000000F0010000009558700120161214000101 00000000000000000000000000000000000000000000000000000000000000000000000000000000000000000000000000000000000000000N 00000000000NCONT   00    00000000000          00000000000000000000000000000000000000000000 000000000000000A000000000000000000000000000000000000000000000 000000000000000000000000000000000000000     00000000                                                                                                                        000000000000000000
F0010000009558700002000090051494400041450500000000000000000201612140002001MUNDINOX SAS                                      C000000002800000000000000000000000100010010000000000000000000000F0010000009558700220161214000101 00000000000000000000000000000000000000000000000000000000000000000000000000000000000000000000000000000000000000000N 00000000000NCONT   00    00000000000          00000000000000000000000000000000000000000000 000000000000000A000000000000000000000000000000000000000000000 000000000000000000000000000000000000000     00000000                                                                                                                        000000000000000000
F0010000009558700003000090051494400042505000000000000000000201612140002001MUNDINOX SAS                                      C000000000200000000000000000000000100010010000000000000000000000F0010000009558700320161214000101 00000000000000000000000000000000000000000000000000000000000000000000000000000000000000000000000000000000000000000N 00000000000NCONT   00    00000000000          00000000000000000000000000000000000000000000 000000000000000A000000000000000000000000000000000000000000000 000000000000000000000000000000000000000     00000000                                                                                                                        000000000000000000
F0010000009558700004000090051494400023658300000000000000000201612140002001MUNDINOX SAS                                      C000000000022400000000000000000000100010010000000000000000000000F0010000009558700420161214000101 00000000000000000000000000000000000000000000000000000000000000000000000000000000000000000000000000000000000000000N 00000000000NCONT   00    00000000000          00000000000000000000000000000000000000000000 000000000000000A000000000000000000000000000000000000000000000 000000000000000000000000000000000000000     00000000                                                                                                                        000000000000000000
F0010000009558700005000090051494400013552100000000000000000201612140002001MUNDINOX SAS                                      D000000000022400000000000000000000100010010000000000000000000000F0010000009558700520161214000101 00000000000000000000000000000000000000000000000000000000000000000000000000000000000000000000000000000000000000000N 00000000000NCONT   00    00000000000          00000000000000000000000000000000000000000000 000000000000000A000000000000000000000000000000000000000000000 000000000000000000000000000000000000000     00000000                                                                                                                        000000000000000000
F0010000009558800001000080201411900011050500000000000000000201612140002001PLASTISERVICIOS S DE H                            D000000002400000000000000000000000100010010000000000000000000000F0010000009558800120161214000101 00000000000000000000000000000000000000000000000000000000000000000000000000000000000000000000000000000000000000000N 00000000000NCONT   00    00000000000          00000000000000000000000000000000000000000000 000000000000000A000000000000000000000000000000000000000000000 000000000000000000000000000000000000000     00000000                                                                                                                        000000000000000000
F0010000009558800002000080201411900041450500000000000000000201612140002001PLASTISERVICIOS S DE H                            C000000002000000000000000000000000100010010000000000000000000000F0010000009558800220161214000101 00000000000000000000000000000000000000000000000000000000000000000000000000000000000000000000000000000000000000000N 00000000000NCONT   00    00000000000          00000000000000000000000000000000000000000000 000000000000000A000000000000000000000000000000000000000000000 000000000000000000000000000000000000000     00000000                                                                                                                        000000000000000000
F0010000009558800003000080201411900042505000000000000000000201612140002001PLASTISERVICIOS S DE H                            C000000000400000000000000000000000100010010000000000000000000000F0010000009558800320161214000101 00000000000000000000000000000000000000000000000000000000000000000000000000000000000000000000000000000000000000000N 00000000000NCONT   00    00000000000          00000000000000000000000000000000000000000000 000000000000000A000000000000000000000000000000000000000000000 000000000000000000000000000000000000000     00000000                                                                                                                        000000000000000000
F0010000009558800004000080201411900023658300000000000000000201612140002001PLASTISERVICIOS S DE H                            C000000000016000000000000000000000100010010000000000000000000000F0010000009558800420161214000101 00000000000000000000000000000000000000000000000000000000000000000000000000000000000000000000000000000000000000000N 00000000000NCONT   00    00000000000          00000000000000000000000000000000000000000000 000000000000000A000000000000000000000000000000000000000000000 000000000000000000000000000000000000000     00000000                                                                                                                        000000000000000000
F0010000009558800005000080201411900013552100000000000000000201612140002001PLASTISERVICIOS S DE H                            D000000000016000000000000000000000100010010000000000000000000000F0010000009558800520161214000101 00000000000000000000000000000000000000000000000000000000000000000000000000000000000000000000000000000000000000000N 00000000000NCONT   00    00000000000          00000000000000000000000000000000000000000000 000000000000000A000000000000000000000000000000000000000000000 000000000000000000000000000000000000000     00000000                                                                                                                        000000000000000000
F0010000009558900001000004977415500011050500000000000000000201612140002001NINFA FONSECA ROMERO                              D000000001200000000000000000000000100010010000000000000000000000F0010000009558900120161214000101 00000000000000000000000000000000000000000000000000000000000000000000000000000000000000000000000000000000000000000N 00000000000NCONT   00    00000000000          00000000000000000000000000000000000000000000 000000000000000A000000000000000000000000000000000000000000000 000000000000000000000000000000000000000     00000000                                                                                                                        000000000000000000
F0010000009558900002000004977415500041450500000000000000000201612140002001NINFA FONSECA ROMERO                              C000000001000000000000000000000000100010010000000000000000000000F0010000009558900220161214000101 00000000000000000000000000000000000000000000000000000000000000000000000000000000000000000000000000000000000000000N 00000000000NCONT   00    00000000000          00000000000000000000000000000000000000000000 000000000000000A000000000000000000000000000000000000000000000 000000000000000000000000000000000000000     00000000                                                                                                                        000000000000000000
F0010000009558900003000004977415500042505000000000000000000201612140002001NINFA FONSECA ROMERO                              C000000000200000000000000000000000100010010000000000000000000000F0010000009558900320161214000101 00000000000000000000000000000000000000000000000000000000000000000000000000000000000000000000000000000000000000000N 00000000000NCONT   00    00000000000          00000000000000000000000000000000000000000000 000000000000000A000000000000000000000000000000000000000000000 000000000000000000000000000000000000000     00000000                                                                                                                        000000000000000000
F0010000009558900004000004977415500023658300000000000000000201612140002001NINFA FONSECA ROMERO                              C000000000008000000000000000000000100010010000000000000000000000F0010000009558900420161214000101 00000000000000000000000000000000000000000000000000000000000000000000000000000000000000000000000000000000000000000N 00000000000NCONT   00    00000000000          00000000000000000000000000000000000000000000 000000000000000A000000000000000000000000000000000000000000000 000000000000000000000000000000000000000     00000000                                                                                                                        000000000000000000
F0010000009558900005000004977415500013552100000000000000000201612140002001NINFA FONSECA ROMERO                              D000000000008000000000000000000000100010010000000000000000000000F0010000009558900520161214000101 00000000000000000000000000000000000000000000000000000000000000000000000000000000000000000000000000000000000000000N 00000000000NCONT   00    00000000000          00000000000000000000000000000000000000000000 000000000000000A000000000000000000000000000000000000000000000 000000000000000000000000000000000000000     00000000                                                                                                                        000000000000000000
F0010000009559000001000007016511700011050500000000000000000201612140002001YEISON CASTAÑO                                   D000000002300000000000000000000000100010010000000000000000000000F0010000009559000120161214000101 00000000000000000000000000000000000000000000000000000000000000000000000000000000000000000000000000000000000000000N 00000000000NCONT   00    00000000000          00000000000000000000000000000000000000000000 000000000000000A000000000000000000000000000000000000000000000 000000000000000000000000000000000000000     00000000                                                                                                                        000000000000000000
F0010000009559000002000007016511700041450500000000000000000201612140002001YEISON CASTAÑO                                   C000000001300000000000000000000000100010010000000000000000000000F0010000009559000220161214000101 00000000000000000000000000000000000000000000000000000000000000000000000000000000000000000000000000000000000000000N 00000000000NCONT   00    00000000000          00000000000000000000000000000000000000000000 000000000000000A000000000000000000000000000000000000000000000 000000000000000000000000000000000000000     00000000                                                                                                                        000000000000000000
F0010000009559000003000007016511700042505000000000000000000201612140002001YEISON CASTAÑO                                   C000000001000000000000000000000000100010010000000000000000000000F0010000009559000320161214000101 00000000000000000000000000000000000000000000000000000000000000000000000000000000000000000000000000000000000000000N 00000000000NCONT   00    00000000000          00000000000000000000000000000000000000000000 000000000000000A000000000000000000000000000000000000000000000 000000000000000000000000000000000000000     00000000                                                                                                                        000000000000000000
F0010000009559000004000007016511700023658300000000000000000201612140002001YEISON CASTAÑO                                   C000000000010400000000000000000000100010010000000000000000000000F0010000009559000420161214000101 00000000000000000000000000000000000000000000000000000000000000000000000000000000000000000000000000000000000000000N 00000000000NCONT   00    00000000000          00000000000000000000000000000000000000000000 000000000000000A000000000000000000000000000000000000000000000 000000000000000000000000000000000000000     00000000                                                                                                                        000000000000000000
F0010000009559000005000007016511700013552100000000000000000201612140002001YEISON CASTAÑO                                   D000000000010400000000000000000000100010010000000000000000000000F0010000009559000520161214000101 00000000000000000000000000000000000000000000000000000000000000000000000000000000000000000000000000000000000000000N 00000000000NCONT   00    00000000000          00000000000000000000000000000000000000000000 000000000000000A000000000000000000000000000000000000000000000 000000000000000000000000000000000000000     00000000                                                                                                                        000000000000000000
F0010000009559100001000000869402400011050500000000000000000201612140002001ISRAEL MANGA                                      D000000001800000000000000000000000100010010000000000000000000000F0010000009559100120161214000101 00000000000000000000000000000000000000000000000000000000000000000000000000000000000000000000000000000000000000000N 00000000000NCONT   00    00000000000          00000000000000000000000000000000000000000000 000000000000000A000000000000000000000000000000000000000000000 000000000000000000000000000000000000000     00000000                                                                                                                        000000000000000000
F0010000009559100002000000869402400041450500000000000000000201612140002001ISRAEL MANGA                                      C000000001200000000000000000000000100010010000000000000000000000F0010000009559100220161214000101 00000000000000000000000000000000000000000000000000000000000000000000000000000000000000000000000000000000000000000N 00000000000NCONT   00    00000000000          00000000000000000000000000000000000000000000 000000000000000A000000000000000000000000000000000000000000000 000000000000000000000000000000000000000     00000000                                                                                                                        000000000000000000
F0010000009559100003000000869402400042505000000000000000000201612140002001ISRAEL MANGA                                      C000000000600000000000000000000000100010010000000000000000000000F0010000009559100320161214000101 00000000000000000000000000000000000000000000000000000000000000000000000000000000000000000000000000000000000000000N 00000000000NCONT   00    00000000000          00000000000000000000000000000000000000000000 000000000000000A000000000000000000000000000000000000000000000 000000000000000000000000000000000000000     00000000                                                                                                                        000000000000000000
F0010000009559100004000000869402400023658300000000000000000201612140002001ISRAEL MANGA                                      C000000000009600000000000000000000100010010000000000000000000000F0010000009559100420161214000101 00000000000000000000000000000000000000000000000000000000000000000000000000000000000000000000000000000000000000000N 00000000000NCONT   00    00000000000          00000000000000000000000000000000000000000000 000000000000000A000000000000000000000000000000000000000000000 000000000000000000000000000000000000000     00000000                                                                                                                        000000000000000000
F0010000009559100005000000869402400013552100000000000000000201612140002001ISRAEL MANGA                                      D000000000009600000000000000000000100010010000000000000000000000F0010000009559100520161214000101 00000000000000000000000000000000000000000000000000000000000000000000000000000000000000000000000000000000000000000N 00000000000NCONT   00    00000000000          00000000000000000000000000000000000000000000 000000000000000A000000000000000000000000000000000000000000000 000000000000000000000000000000000000000     00000000                                                                                                                        000000000000000000
F0010000009559200001000000869402400011050500000000000000000201612140002001ISRAEL MANGA                                      D000000001600000000000000000000000100010010000000000000000000000F0010000009559200120161214000101 00000000000000000000000000000000000000000000000000000000000000000000000000000000000000000000000000000000000000000N 00000000000NCONT   00    00000000000          00000000000000000000000000000000000000000000 000000000000000A000000000000000000000000000000000000000000000 000000000000000000000000000000000000000     00000000                                                                                                                        000000000000000000
F0010000009559200002000000869402400041450500000000000000000201612140002001ISRAEL MANGA                                      C000000001200000000000000000000000100010010000000000000000000000F0010000009559200220161214000101 00000000000000000000000000000000000000000000000000000000000000000000000000000000000000000000000000000000000000000N 00000000000NCONT   00    00000000000          00000000000000000000000000000000000000000000 000000000000000A000000000000000000000000000000000000000000000 000000000000000000000000000000000000000     00000000                                                                                                                        000000000000000000
F0010000009559200003000000869402400042505000000000000000000201612140002001ISRAEL MANGA                                      C000000000400000000000000000000000100010010000000000000000000000F0010000009559200320161214000101 00000000000000000000000000000000000000000000000000000000000000000000000000000000000000000000000000000000000000000N 00000000000NCONT   00    00000000000          00000000000000000000000000000000000000000000 000000000000000A000000000000000000000000000000000000000000000 000000000000000000000000000000000000000     00000000                                                                                                                        000000000000000000
F0010000009559200004000000869402400023658300000000000000000201612140002001ISRAEL MANGA                                      C000000000009600000000000000000000100010010000000000000000000000F0010000009559200420161214000101 00000000000000000000000000000000000000000000000000000000000000000000000000000000000000000000000000000000000000000N 00000000000NCONT   00    00000000000          00000000000000000000000000000000000000000000 000000000000000A000000000000000000000000000000000000000000000 000000000000000000000000000000000000000     00000000                                                                                                                        000000000000000000
F0010000009559200005000000869402400013552100000000000000000201612140002001ISRAEL MANGA                                      D000000000009600000000000000000000100010010000000000000000000000F0010000009559200520161214000101 00000000000000000000000000000000000000000000000000000000000000000000000000000000000000000000000000000000000000000N 00000000000NCONT   00    00000000000          00000000000000000000000000000000000000000000 000000000000000A000000000000000000000000000000000000000000000 000000000000000000000000000000000000000     00000000                                                                                                                        000000000000000000
F0010000009559300001000007090373900011050500000000000000000201612140002001CACHARRERIA LOS MARINILLOS                        D000000011000000000000000000000000100010010000000000000000000000F0010000009559300120161214000101 00000000000000000000000000000000000000000000000000000000000000000000000000000000000000000000000000000000000000000N 00000000000NCONT   00    00000000000          00000000000000000000000000000000000000000000 000000000000000A000000000000000000000000000000000000000000000 000000000000000000000000000000000000000     00000000                                                                                                                        000000000000000000
F0010000009559300002000007090373900041450500000000000000000201612140002001CACHARRERIA LOS MARINILLOS                        C000000009000000000000000000000000100010010000000000000000000000F0010000009559300220161214000101 00000000000000000000000000000000000000000000000000000000000000000000000000000000000000000000000000000000000000000N 00000000000NCONT   00    00000000000          00000000000000000000000000000000000000000000 000000000000000A000000000000000000000000000000000000000000000 000000000000000000000000000000000000000     00000000                                                                                                                        000000000000000000
F0010000009559300003000007090373900042505000000000000000000201612140002001CACHARRERIA LOS MARINILLOS                        C000000002000000000000000000000000100010010000000000000000000000F0010000009559300320161214000101 00000000000000000000000000000000000000000000000000000000000000000000000000000000000000000000000000000000000000000N 00000000000NCONT   00    00000000000          00000000000000000000000000000000000000000000 000000000000000A000000000000000000000000000000000000000000000 000000000000000000000000000000000000000     00000000                                                                                                                        000000000000000000
F0010000009559300004000007090373900023658300000000000000000201612140002001CACHARRERIA LOS MARINILLOS                        C000000000072000000000000000000000100010010000000000000000000000F0010000009559300420161214000101 00000000000000000000000000000000000000000000000000000000000000000000000000000000000000000000000000000000000000000N 00000000000NCONT   00    00000000000          00000000000000000000000000000000000000000000 000000000000000A000000000000000000000000000000000000000000000 000000000000000000000000000000000000000     00000000                                                                                                                        000000000000000000
F0010000009559300005000007090373900013552100000000000000000201612140002001CACHARRERIA LOS MARINILLOS                        D000000000072000000000000000000000100010010000000000000000000000F0010000009559300520161214000101 00000000000000000000000000000000000000000000000000000000000000000000000000000000000000000000000000000000000000000N 00000000000NCONT   00    00000000000          00000000000000000000000000000000000000000000 000000000000000A000000000000000000000000000000000000000000000 000000000000000000000000000000000000000     00000000                                                                                                                        000000000000000000
F0010000009559400001000003319910700011050500000000000000000201612140002001LUZ DARY JIMENEZ MARTINEZ                         D000000001100000000000000000000000100010010000000000000000000000F0010000009559400120161214000101 00000000000000000000000000000000000000000000000000000000000000000000000000000000000000000000000000000000000000000N 00000000000NCONT   00    00000000000          00000000000000000000000000000000000000000000 000000000000000A000000000000000000000000000000000000000000000 000000000000000000000000000000000000000     00000000                                                                                                                        000000000000000000
F0010000009559400002000003319910700041450500000000000000000201612140002001LUZ DARY JIMENEZ MARTINEZ                         C000000001000000000000000000000000100010010000000000000000000000F0010000009559400220161214000101 00000000000000000000000000000000000000000000000000000000000000000000000000000000000000000000000000000000000000000N 00000000000NCONT   00    00000000000          00000000000000000000000000000000000000000000 000000000000000A000000000000000000000000000000000000000000000 000000000000000000000000000000000000000     00000000                                                                                                                        000000000000000000
F0010000009559400003000003319910700042505000000000000000000201612140002001LUZ DARY JIMENEZ MARTINEZ                         C000000000100000000000000000000000100010010000000000000000000000F0010000009559400320161214000101 00000000000000000000000000000000000000000000000000000000000000000000000000000000000000000000000000000000000000000N 00000000000NCONT   00    00000000000          00000000000000000000000000000000000000000000 000000000000000A000000000000000000000000000000000000000000000 000000000000000000000000000000000000000     00000000                                                                                                                        000000000000000000
F0010000009559400004000003319910700023658300000000000000000201612140002001LUZ DARY JIMENEZ MARTINEZ                         C000000000008000000000000000000000100010010000000000000000000000F0010000009559400420161214000101 00000000000000000000000000000000000000000000000000000000000000000000000000000000000000000000000000000000000000000N 00000000000NCONT   00    00000000000          00000000000000000000000000000000000000000000 000000000000000A000000000000000000000000000000000000000000000 000000000000000000000000000000000000000     00000000                                                                                                                        000000000000000000
F0010000009559400005000003319910700013552100000000000000000201612140002001LUZ DARY JIMENEZ MARTINEZ                         D000000000008000000000000000000000100010010000000000000000000000F0010000009559400520161214000101 00000000000000000000000000000000000000000000000000000000000000000000000000000000000000000000000000000000000000000N 00000000000NCONT   00    00000000000          00000000000000000000000000000000000000000000 000000000000000A000000000000000000000000000000000000000000000 000000000000000000000000000000000000000     00000000                                                                                                                        000000000000000000
F0010000009559500001000090027500500011050500000000000000000201612140002001MULTIALUMINIOS LA 30 SAS                          D000000009200000000000000000000000100010010000000000000000000000F0010000009559500120161214000101 00000000000000000000000000000000000000000000000000000000000000000000000000000000000000000000000000000000000000000N 00000000000NCONT   00    00000000000          00000000000000000000000000000000000000000000 000000000000000A000000000000000000000000000000000000000000000 000000000000000000000000000000000000000     00000000                                                                                                                        000000000000000000
F0010000009559500002000090027500500041450500000000000000000201612140002001MULTIALUMINIOS LA 30 SAS                          C000000007200000000000000000000000100010010000000000000000000000F0010000009559500220161214000101 00000000000000000000000000000000000000000000000000000000000000000000000000000000000000000000000000000000000000000N 00000000000NCONT   00    00000000000          00000000000000000000000000000000000000000000 000000000000000A000000000000000000000000000000000000000000000 000000000000000000000000000000000000000     00000000                                                                                                                        000000000000000000
F0010000009559500003000090027500500042505000000000000000000201612140002001MULTIALUMINIOS LA 30 SAS                          C000000002000000000000000000000000100010010000000000000000000000F0010000009559500320161214000101 00000000000000000000000000000000000000000000000000000000000000000000000000000000000000000000000000000000000000000N 00000000000NCONT   00    00000000000          00000000000000000000000000000000000000000000 000000000000000A000000000000000000000000000000000000000000000 000000000000000000000000000000000000000     00000000                                                                                                                        000000000000000000
F0010000009559500004000090027500500023658300000000000000000201612140002001MULTIALUMINIOS LA 30 SAS                          C000000000057600000000000000000000100010010000000000000000000000F0010000009559500420161214000101 00000000000000000000000000000000000000000000000000000000000000000000000000000000000000000000000000000000000000000N 00000000000NCONT   00    00000000000          00000000000000000000000000000000000000000000 000000000000000A000000000000000000000000000000000000000000000 000000000000000000000000000000000000000     00000000                                                                                                                        000000000000000000
F0010000009559500005000090027500500013552100000000000000000201612140002001MULTIALUMINIOS LA 30 SAS                          D000000000057600000000000000000000100010010000000000000000000000F0010000009559500520161214000101 00000000000000000000000000000000000000000000000000000000000000000000000000000000000000000000000000000000000000000N 00000000000NCONT   00    00000000000          00000000000000000000000000000000000000000000 000000000000000A000000000000000000000000000000000000000000000 000000000000000000000000000000000000000     00000000                                                                                                                        000000000000000000
F0010000009559600001000090034602400011050500000000000000000201612140002001PRODUCTOS NACIONALES PARAFINICOS LA CUSTODIA S.A.SD000000003150000000000000000000000100010010000000000000000000000F0010000009559600120161214000101 00000000000000000000000000000000000000000000000000000000000000000000000000000000000000000000000000000000000000000N 00000000000NCONT   00    00000000000          00000000000000000000000000000000000000000000 000000000000000A000000000000000000000000000000000000000000000 000000000000000000000000000000000000000     00000000                                                                                                                        000000000000000000
F0010000009559600002000090034602400041450500000000000000000201612140002001PRODUCTOS NACIONALES PARAFINICOS LA CUSTODIA S.A.SC000000002850000000000000000000000100010010000000000000000000000F0010000009559600220161214000101 00000000000000000000000000000000000000000000000000000000000000000000000000000000000000000000000000000000000000000N 00000000000NCONT   00    00000000000          00000000000000000000000000000000000000000000 000000000000000A000000000000000000000000000000000000000000000 000000000000000000000000000000000000000     00000000                                                                                                                        000000000000000000
F0010000009559600003000090034602400042505000000000000000000201612140002001PRODUCTOS NACIONALES PARAFINICOS LA CUSTODIA S.A.SC000000000300000000000000000000000100010010000000000000000000000F0010000009559600320161214000101 00000000000000000000000000000000000000000000000000000000000000000000000000000000000000000000000000000000000000000N 00000000000NCONT   00    00000000000          00000000000000000000000000000000000000000000 000000000000000A000000000000000000000000000000000000000000000 000000000000000000000000000000000000000     00000000                                                                                                                        000000000000000000
F0010000009559600004000090034602400023658300000000000000000201612140002001PRODUCTOS NACIONALES PARAFINICOS LA CUSTODIA S.A.SC000000000022800000000000000000000100010010000000000000000000000F0010000009559600420161214000101 00000000000000000000000000000000000000000000000000000000000000000000000000000000000000000000000000000000000000000N 00000000000NCONT   00    00000000000          00000000000000000000000000000000000000000000 000000000000000A000000000000000000000000000000000000000000000 000000000000000000000000000000000000000     00000000                                                                                                                        000000000000000000
F0010000009559600005000090034602400013552100000000000000000201612140002001PRODUCTOS NACIONALES PARAFINICOS LA CUSTODIA S.A.SD000000000022800000000000000000000100010010000000000000000000000F0010000009559600520161214000101 00000000000000000000000000000000000000000000000000000000000000000000000000000000000000000000000000000000000000000N 00000000000NCONT   00    00000000000          00000000000000000000000000000000000000000000 000000000000000A000000000000000000000000000000000000000000000 000000000000000000000000000000000000000     00000000                                                                                                                        000000000000000000
F0010000009559700001000090034602400011050500000000000000000201612140002001PRODUCTOS NACIONALES PARAFINICOS LA CUSTODIA S.A.SD000000002100000000000000000000000100010010000000000000000000000F0010000009559700120161214000101 00000000000000000000000000000000000000000000000000000000000000000000000000000000000000000000000000000000000000000N 00000000000NCONT   00    00000000000          00000000000000000000000000000000000000000000 000000000000000A000000000000000000000000000000000000000000000 000000000000000000000000000000000000000     00000000                                                                                                                        000000000000000000
F0010000009559700002000090034602400041450500000000000000000201612140002001PRODUCTOS NACIONALES PARAFINICOS LA CUSTODIA S.A.SC000000001900000000000000000000000100010010000000000000000000000F0010000009559700220161214000101 00000000000000000000000000000000000000000000000000000000000000000000000000000000000000000000000000000000000000000N 00000000000NCONT   00    00000000000          00000000000000000000000000000000000000000000 000000000000000A000000000000000000000000000000000000000000000 000000000000000000000000000000000000000     00000000                                                                                                                        000000000000000000
F0010000009559700003000090034602400042505000000000000000000201612140002001PRODUCTOS NACIONALES PARAFINICOS LA CUSTODIA S.A.SC000000000200000000000000000000000100010010000000000000000000000F0010000009559700320161214000101 00000000000000000000000000000000000000000000000000000000000000000000000000000000000000000000000000000000000000000N 00000000000NCONT   00    00000000000          00000000000000000000000000000000000000000000 000000000000000A000000000000000000000000000000000000000000000 000000000000000000000000000000000000000     00000000                                                                                                                        000000000000000000
F0010000009559700004000090034602400023658300000000000000000201612140002001PRODUCTOS NACIONALES PARAFINICOS LA CUSTODIA S.A.SC000000000015200000000000000000000100010010000000000000000000000F0010000009559700420161214000101 00000000000000000000000000000000000000000000000000000000000000000000000000000000000000000000000000000000000000000N 00000000000NCONT   00    00000000000          00000000000000000000000000000000000000000000 000000000000000A000000000000000000000000000000000000000000000 000000000000000000000000000000000000000     00000000                                                                                                                        000000000000000000
F0010000009559700005000090034602400013552100000000000000000201612140002001PRODUCTOS NACIONALES PARAFINICOS LA CUSTODIA S.A.SD000000000015200000000000000000000100010010000000000000000000000F0010000009559700520161214000101 00000000000000000000000000000000000000000000000000000000000000000000000000000000000000000000000000000000000000000N 00000000000NCONT   00    00000000000          00000000000000000000000000000000000000000000 000000000000000A000000000000000000000000000000000000000000000 000000000000000000000000000000000000000     00000000                                                                                                                        000000000000000000
F0010000009559800001000083008772100011050500000000000000000201612140002001ILUMEC SAS                                        D000000002475000000000000000000000100010010000000000000000000000F0010000009559800120161214000101 00000000000000000000000000000000000000000000000000000000000000000000000000000000000000000000000000000000000000000N 00000000000NCONT   00    00000000000          00000000000000000000000000000000000000000000 000000000000000A000000000000000000000000000000000000000000000 000000000000000000000000000000000000000     00000000                                                                                                                        000000000000000000
F0010000009559800002000083008772100041450500000000000000000201612140002001ILUMEC SAS                                        C000000002200000000000000000000000100010010000000000000000000000F0010000009559800220161214000101 00000000000000000000000000000000000000000000000000000000000000000000000000000000000000000000000000000000000000000N 00000000000NCONT   00    00000000000          00000000000000000000000000000000000000000000 000000000000000A000000000000000000000000000000000000000000000 000000000000000000000000000000000000000     00000000                                                                                                                        000000000000000000
F0010000009559800003000083008772100042505000000000000000000201612140002001ILUMEC SAS                                        C000000000275000000000000000000000100010010000000000000000000000F0010000009559800320161214000101 00000000000000000000000000000000000000000000000000000000000000000000000000000000000000000000000000000000000000000N 00000000000NCONT   00    00000000000          00000000000000000000000000000000000000000000 000000000000000A000000000000000000000000000000000000000000000 000000000000000000000000000000000000000     00000000                                                                                                                        000000000000000000
F0010000009559800004000083008772100023658300000000000000000201612140002001ILUMEC SAS                                        C000000000017600000000000000000000100010010000000000000000000000F0010000009559800420161214000101 00000000000000000000000000000000000000000000000000000000000000000000000000000000000000000000000000000000000000000N 00000000000NCONT   00    00000000000          00000000000000000000000000000000000000000000 000000000000000A000000000000000000000000000000000000000000000 000000000000000000000000000000000000000     00000000                                                                                                                        000000000000000000
F0010000009559800005000083008772100013552100000000000000000201612140002001ILUMEC SAS                                        D000000000017600000000000000000000100010010000000000000000000000F0010000009559800520161214000101 00000000000000000000000000000000000000000000000000000000000000000000000000000000000000000000000000000000000000000N 00000000000NCONT   00    00000000000          00000000000000000000000000000000000000000000 000000000000000A000000000000000000000000000000000000000000000 000000000000000000000000000000000000000     00000000                                                                                                                        000000000000000000
F0010000009559900001000001719393900011050500000000000000000201612140002001JAIRO BASTIDAS RAMIREZ                            D000000001300000000000000000000000100010010000000000000000000000F0010000009559900120161214000101 00000000000000000000000000000000000000000000000000000000000000000000000000000000000000000000000000000000000000000N 00000000000NCONT   00    00000000000          00000000000000000000000000000000000000000000 000000000000000A000000000000000000000000000000000000000000000 000000000000000000000000000000000000000     00000000                                                                                                                        000000000000000000
F0010000009559900002000001719393900041450500000000000000000201612140002001JAIRO BASTIDAS RAMIREZ                            C000000001200000000000000000000000100010010000000000000000000000F0010000009559900220161214000101 00000000000000000000000000000000000000000000000000000000000000000000000000000000000000000000000000000000000000000N 00000000000NCONT   00    00000000000          00000000000000000000000000000000000000000000 000000000000000A000000000000000000000000000000000000000000000 000000000000000000000000000000000000000     00000000                                                                                                                        000000000000000000
F0010000009559900003000001719393900042505000000000000000000201612140002001JAIRO BASTIDAS RAMIREZ                            C000000000100000000000000000000000100010010000000000000000000000F0010000009559900320161214000101 00000000000000000000000000000000000000000000000000000000000000000000000000000000000000000000000000000000000000000N 00000000000NCONT   00    00000000000          00000000000000000000000000000000000000000000 000000000000000A000000000000000000000000000000000000000000000 000000000000000000000000000000000000000     00000000                                                                                                                        000000000000000000
F0010000009559900004000001719393900023658300000000000000000201612140002001JAIRO BASTIDAS RAMIREZ                            C000000000009600000000000000000000100010010000000000000000000000F0010000009559900420161214000101 00000000000000000000000000000000000000000000000000000000000000000000000000000000000000000000000000000000000000000N 00000000000NCONT   00    00000000000          00000000000000000000000000000000000000000000 000000000000000A000000000000000000000000000000000000000000000 000000000000000000000000000000000000000     00000000                                                                                                                        000000000000000000
F0010000009559900005000001719393900013552100000000000000000201612140002001JAIRO BASTIDAS RAMIREZ                            D000000000009600000000000000000000100010010000000000000000000000F0010000009559900520161214000101 00000000000000000000000000000000000000000000000000000000000000000000000000000000000000000000000000000000000000000N 00000000000NCONT   00    00000000000          00000000000000000000000000000000000000000000 000000000000000A000000000000000000000000000000000000000000000 000000000000000000000000000000000000000     00000000                                                                                                                        000000000000000000
F0010000009560000001000001719393900011050500000000000000000201612140002001JAIRO BASTIDAS RAMIREZ                            D000000004200000000000000000000000100010010000000000000000000000F0010000009560000120161214000101 00000000000000000000000000000000000000000000000000000000000000000000000000000000000000000000000000000000000000000N 00000000000NCONT   00    00000000000          00000000000000000000000000000000000000000000 000000000000000A000000000000000000000000000000000000000000000 000000000000000000000000000000000000000     00000000                                                                                                                        000000000000000000
F0010000009560000002000001719393900041450500000000000000000201612140002001JAIRO BASTIDAS RAMIREZ                            C000000004000000000000000000000000100010010000000000000000000000F0010000009560000220161214000101 00000000000000000000000000000000000000000000000000000000000000000000000000000000000000000000000000000000000000000N 00000000000NCONT   00    00000000000          00000000000000000000000000000000000000000000 000000000000000A000000000000000000000000000000000000000000000 000000000000000000000000000000000000000     00000000                                                                                                                        000000000000000000
F0010000009560000003000001719393900042505000000000000000000201612140002001JAIRO BASTIDAS RAMIREZ                            C000000000200000000000000000000000100010010000000000000000000000F0010000009560000320161214000101 00000000000000000000000000000000000000000000000000000000000000000000000000000000000000000000000000000000000000000N 00000000000NCONT   00    00000000000          00000000000000000000000000000000000000000000 000000000000000A000000000000000000000000000000000000000000000 000000000000000000000000000000000000000     00000000                                                                                                                        000000000000000000
F0010000009560000004000001719393900023658300000000000000000201612140002001JAIRO BASTIDAS RAMIREZ                            C000000000032000000000000000000000100010010000000000000000000000F0010000009560000420161214000101 00000000000000000000000000000000000000000000000000000000000000000000000000000000000000000000000000000000000000000N 00000000000NCONT   00    00000000000          00000000000000000000000000000000000000000000 000000000000000A000000000000000000000000000000000000000000000 000000000000000000000000000000000000000     00000000                                                                                                                        000000000000000000
F0010000009560000005000001719393900013552100000000000000000201612140002001JAIRO BASTIDAS RAMIREZ                            D000000000032000000000000000000000100010010000000000000000000000F0010000009560000520161214000101 00000000000000000000000000000000000000000000000000000000000000000000000000000000000000000000000000000000000000000N 00000000000NCONT   00    00000000000          00000000000000000000000000000000000000000000 000000000000000A000000000000000000000000000000000000000000000 000000000000000000000000000000000000000     00000000                                                                                                                        000000000000000000
F0010000009560100001000001719393900011050500000000000000000201612140002001JAIRO BASTIDAS RAMIREZ                            D000000001800000000000000000000000100010010000000000000000000000F0010000009560100120161214000101 00000000000000000000000000000000000000000000000000000000000000000000000000000000000000000000000000000000000000000N 00000000000NCONT   00    00000000000          00000000000000000000000000000000000000000000 000000000000000A000000000000000000000000000000000000000000000 000000000000000000000000000000000000000     00000000                                                                                                                        000000000000000000
F0010000009560100002000001719393900041450500000000000000000201612140002001JAIRO BASTIDAS RAMIREZ                            C000000001200000000000000000000000100010010000000000000000000000F0010000009560100220161214000101 00000000000000000000000000000000000000000000000000000000000000000000000000000000000000000000000000000000000000000N 00000000000NCONT   00    00000000000          00000000000000000000000000000000000000000000 000000000000000A000000000000000000000000000000000000000000000 000000000000000000000000000000000000000     00000000                                                                                                                        000000000000000000
F0010000009560100003000001719393900042505000000000000000000201612140002001JAIRO BASTIDAS RAMIREZ                            C000000000600000000000000000000000100010010000000000000000000000F0010000009560100320161214000101 00000000000000000000000000000000000000000000000000000000000000000000000000000000000000000000000000000000000000000N 00000000000NCONT   00    00000000000          00000000000000000000000000000000000000000000 000000000000000A000000000000000000000000000000000000000000000 000000000000000000000000000000000000000     00000000                                                                                                                        000000000000000000
F0010000009560100004000001719393900023658300000000000000000201612140002001JAIRO BASTIDAS RAMIREZ                            C000000000009600000000000000000000100010010000000000000000000000F0010000009560100420161214000101 00000000000000000000000000000000000000000000000000000000000000000000000000000000000000000000000000000000000000000N 00000000000NCONT   00    00000000000          00000000000000000000000000000000000000000000 000000000000000A000000000000000000000000000000000000000000000 000000000000000000000000000000000000000     00000000                                                                                                                        000000000000000000
F0010000009560100005000001719393900013552100000000000000000201612140002001JAIRO BASTIDAS RAMIREZ                            D000000000009600000000000000000000100010010000000000000000000000F0010000009560100520161214000101 00000000000000000000000000000000000000000000000000000000000000000000000000000000000000000000000000000000000000000N 00000000000NCONT   00    00000000000          00000000000000000000000000000000000000000000 000000000000000A000000000000000000000000000000000000000000000 000000000000000000000000000000000000000     00000000                                                                                                                        000000000000000000
F0010000009560200001000080202350700011050500000000000000000201612140002001CONNY DE LA COSTA SAS                             D000000012500000000000000000000000100010010000000000000000000000F0010000009560200120161214000101 00000000000000000000000000000000000000000000000000000000000000000000000000000000000000000000000000000000000000000N 00000000000NCONT   00    00000000000          00000000000000000000000000000000000000000000 000000000000000A000000000000000000000000000000000000000000000 000000000000000000000000000000000000000     00000000                                                                                                                        000000000000000000
F0010000009560200002000080202350700041450500000000000000000201612140002001CONNY DE LA COSTA SAS                             C000000012300000000000000000000000100010010000000000000000000000F0010000009560200220161214000101 00000000000000000000000000000000000000000000000000000000000000000000000000000000000000000000000000000000000000000N 00000000000NCONT   00    00000000000          00000000000000000000000000000000000000000000 000000000000000A000000000000000000000000000000000000000000000 000000000000000000000000000000000000000     00000000                                                                                                                        000000000000000000
F0010000009560200003000080202350700042505000000000000000000201612140002001CONNY DE LA COSTA SAS                             C000000000200000000000000000000000100010010000000000000000000000F0010000009560200320161214000101 00000000000000000000000000000000000000000000000000000000000000000000000000000000000000000000000000000000000000000N 00000000000NCONT   00    00000000000          00000000000000000000000000000000000000000000 000000000000000A000000000000000000000000000000000000000000000 000000000000000000000000000000000000000     00000000                                                                                                                        000000000000000000
F0010000009560200004000080202350700023658300000000000000000201612140002001CONNY DE LA COSTA SAS                             C000000000098400000000000000000000100010010000000000000000000000F0010000009560200420161214000101 00000000000000000000000000000000000000000000000000000000000000000000000000000000000000000000000000000000000000000N 00000000000NCONT   00    00000000000          00000000000000000000000000000000000000000000 000000000000000A000000000000000000000000000000000000000000000 000000000000000000000000000000000000000     00000000                                                                                                                        000000000000000000
F0010000009560200005000080202350700013552100000000000000000201612140002001CONNY DE LA COSTA SAS                             D000000000098400000000000000000000100010010000000000000000000000F0010000009560200520161214000101 00000000000000000000000000000000000000000000000000000000000000000000000000000000000000000000000000000000000000000N 00000000000NCONT   00    00000000000          00000000000000000000000000000000000000000000 000000000000000A000000000000000000000000000000000000000000000 000000000000000000000000000000000000000     00000000                                                                                                                        000000000000000000
F0010000009560300001000102390001700011050500000000000000000201612140002001LILIANA HERNANDEZ PINILLA                         D000000008000000000000000000000000100010010000000000000000000000F0010000009560300120161214000101 00000000000000000000000000000000000000000000000000000000000000000000000000000000000000000000000000000000000000000N 00000000000NCONT   00    00000000000          00000000000000000000000000000000000000000000 000000000000000A000000000000000000000000000000000000000000000 000000000000000000000000000000000000000     00000000                                                                                                                        000000000000000000
F0010000009560300002000102390001700041450500000000000000000201612140002001LILIANA HERNANDEZ PINILLA                         C000000006500000000000000000000000100010010000000000000000000000F0010000009560300220161214000101 00000000000000000000000000000000000000000000000000000000000000000000000000000000000000000000000000000000000000000N 00000000000NCONT   00    00000000000          00000000000000000000000000000000000000000000 000000000000000A000000000000000000000000000000000000000000000 000000000000000000000000000000000000000     00000000                                                                                                                        000000000000000000
F0010000009560300003000102390001700042505000000000000000000201612140002001LILIANA HERNANDEZ PINILLA                         C000000001500000000000000000000000100010010000000000000000000000F0010000009560300320161214000101 00000000000000000000000000000000000000000000000000000000000000000000000000000000000000000000000000000000000000000N 00000000000NCONT   00    00000000000          00000000000000000000000000000000000000000000 000000000000000A000000000000000000000000000000000000000000000 000000000000000000000000000000000000000     00000000                                                                                                                        000000000000000000
F0010000009560300004000102390001700023658300000000000000000201612140002001LILIANA HERNANDEZ PINILLA                         C000000000052000000000000000000000100010010000000000000000000000F0010000009560300420161214000101 00000000000000000000000000000000000000000000000000000000000000000000000000000000000000000000000000000000000000000N 00000000000NCONT   00    00000000000          00000000000000000000000000000000000000000000 000000000000000A000000000000000000000000000000000000000000000 000000000000000000000000000000000000000     00000000                                                                                                                        000000000000000000
F0010000009560300005000102390001700013552100000000000000000201612140002001LILIANA HERNANDEZ PINILLA                         D000000000052000000000000000000000100010010000000000000000000000F0010000009560300520161214000101 00000000000000000000000000000000000000000000000000000000000000000000000000000000000000000000000000000000000000000N 00000000000NCONT   00    00000000000          00000000000000000000000000000000000000000000 000000000000000A000000000000000000000000000000000000000000000 000000000000000000000000000000000000000     00000000                                                                                                                        000000000000000000
F0010000009560400001000102390001700011050500000000000000000201612140002001LILIANA HERNANDEZ PINILLA                         D000000011100000000000000000000000100010010000000000000000000000F0010000009560400120161214000101 00000000000000000000000000000000000000000000000000000000000000000000000000000000000000000000000000000000000000000N 00000000000NCONT   00    00000000000          00000000000000000000000000000000000000000000 000000000000000A000000000000000000000000000000000000000000000 000000000000000000000000000000000000000     00000000                                                                                                                        000000000000000000
F0010000009560400002000102390001700041450500000000000000000201612140002001LILIANA HERNANDEZ PINILLA                         C000000009100000000000000000000000100010010000000000000000000000F0010000009560400220161214000101 00000000000000000000000000000000000000000000000000000000000000000000000000000000000000000000000000000000000000000N 00000000000NCONT   00    00000000000          00000000000000000000000000000000000000000000 000000000000000A000000000000000000000000000000000000000000000 000000000000000000000000000000000000000     00000000                                                                                                                        000000000000000000
F0010000009560400003000102390001700042505000000000000000000201612140002001LILIANA HERNANDEZ PINILLA                         C000000002000000000000000000000000100010010000000000000000000000F0010000009560400320161214000101 00000000000000000000000000000000000000000000000000000000000000000000000000000000000000000000000000000000000000000N 00000000000NCONT   00    00000000000          00000000000000000000000000000000000000000000 000000000000000A000000000000000000000000000000000000000000000 000000000000000000000000000000000000000     00000000                                                                                                                        000000000000000000
F0010000009560400004000102390001700023658300000000000000000201612140002001LILIANA HERNANDEZ PINILLA                         C000000000072800000000000000000000100010010000000000000000000000F0010000009560400420161214000101 00000000000000000000000000000000000000000000000000000000000000000000000000000000000000000000000000000000000000000N 00000000000NCONT   00    00000000000          00000000000000000000000000000000000000000000 000000000000000A000000000000000000000000000000000000000000000 000000000000000000000000000000000000000     00000000                                                                                                                        000000000000000000
F0010000009560400005000102390001700013552100000000000000000201612140002001LILIANA HERNANDEZ PINILLA                         D000000000072800000000000000000000100010010000000000000000000000F0010000009560400520161214000101 00000000000000000000000000000000000000000000000000000000000000000000000000000000000000000000000000000000000000000N 00000000000NCONT   00    00000000000          00000000000000000000000000000000000000000000 000000000000000A000000000000000000000000000000000000000000000 000000000000000000000000000000000000000     00000000                                                                                                                        000000000000000000
F0010000009560500001000089011078600011050500000000000000000201612140002001DIST. NUEVO MUNDO S.A.S.                          D000000002865000000000000000000000100010010000000000000000000000F0010000009560500120161214000101 00000000000000000000000000000000000000000000000000000000000000000000000000000000000000000000000000000000000000000N 00000000000NCONT   00    00000000000          00000000000000000000000000000000000000000000 000000000000000A000000000000000000000000000000000000000000000 000000000000000000000000000000000000000     00000000                                                                                                                        000000000000000000
F0010000009560500002000089011078600041450500000000000000000201612140002001DIST. NUEVO MUNDO S.A.S.                          C000000002340000000000000000000000100010010000000000000000000000F0010000009560500220161214000101 00000000000000000000000000000000000000000000000000000000000000000000000000000000000000000000000000000000000000000N 00000000000NCONT   00    00000000000          00000000000000000000000000000000000000000000 000000000000000A000000000000000000000000000000000000000000000 000000000000000000000000000000000000000     00000000                                                                                                                        000000000000000000
F0010000009560500003000089011078600042505000000000000000000201612140002001DIST. NUEVO MUNDO S.A.S.                          C000000000525000000000000000000000100010010000000000000000000000F0010000009560500320161214000101 00000000000000000000000000000000000000000000000000000000000000000000000000000000000000000000000000000000000000000N 00000000000NCONT   00    00000000000          00000000000000000000000000000000000000000000 000000000000000A000000000000000000000000000000000000000000000 000000000000000000000000000000000000000     00000000                                                                                                                        000000000000000000
F0010000009560500004000089011078600023658300000000000000000201612140002001DIST. NUEVO MUNDO S.A.S.                          C000000000018700000000000000000000100010010000000000000000000000F0010000009560500420161214000101 00000000000000000000000000000000000000000000000000000000000000000000000000000000000000000000000000000000000000000N 00000000000NCONT   00    00000000000          00000000000000000000000000000000000000000000 000000000000000A000000000000000000000000000000000000000000000 000000000000000000000000000000000000000     00000000                                                                                                                        000000000000000000
F0010000009560500005000089011078600013552100000000000000000201612140002001DIST. NUEVO MUNDO S.A.S.                          D000000000018700000000000000000000100010010000000000000000000000F0010000009560500520161214000101 00000000000000000000000000000000000000000000000000000000000000000000000000000000000000000000000000000000000000000N 00000000000NCONT   00    00000000000          00000000000000000000000000000000000000000000 000000000000000A000000000000000000000000000000000000000000000 000000000000000000000000000000000000000     00000000                                                                                                                        000000000000000000
F0010000009560600001000007050847600011050500000000000000000201612140002001HECTOR HERNANDO RAMIREZ MONTOYA                   D000000001200000000000000000000000100010010000000000000000000000F0010000009560600120161214000101 00000000000000000000000000000000000000000000000000000000000000000000000000000000000000000000000000000000000000000N 00000000000NCONT   00    00000000000          00000000000000000000000000000000000000000000 000000000000000A000000000000000000000000000000000000000000000 000000000000000000000000000000000000000     00000000                                                                                                                        000000000000000000
F0010000009560600002000007050847600041450500000000000000000201612140002001HECTOR HERNANDO RAMIREZ MONTOYA                   C000000001000000000000000000000000100010010000000000000000000000F0010000009560600220161214000101 00000000000000000000000000000000000000000000000000000000000000000000000000000000000000000000000000000000000000000N 00000000000NCONT   00    00000000000          00000000000000000000000000000000000000000000 000000000000000A000000000000000000000000000000000000000000000 000000000000000000000000000000000000000     00000000                                                                                                                        000000000000000000
F0010000009560600003000007050847600042505000000000000000000201612140002001HECTOR HERNANDO RAMIREZ MONTOYA                   C000000000200000000000000000000000100010010000000000000000000000F0010000009560600320161214000101 00000000000000000000000000000000000000000000000000000000000000000000000000000000000000000000000000000000000000000N 00000000000NCONT   00    00000000000          00000000000000000000000000000000000000000000 000000000000000A000000000000000000000000000000000000000000000 000000000000000000000000000000000000000     00000000                                                                                                                        000000000000000000
F0010000009560600004000007050847600023658300000000000000000201612140002001HECTOR HERNANDO RAMIREZ MONTOYA                   C000000000008000000000000000000000100010010000000000000000000000F0010000009560600420161214000101 00000000000000000000000000000000000000000000000000000000000000000000000000000000000000000000000000000000000000000N 00000000000NCONT   00    00000000000          00000000000000000000000000000000000000000000 000000000000000A000000000000000000000000000000000000000000000 000000000000000000000000000000000000000     00000000                                                                                                                        000000000000000000
F0010000009560600005000007050847600013552100000000000000000201612140002001HECTOR HERNANDO RAMIREZ MONTOYA                   D000000000008000000000000000000000100010010000000000000000000000F0010000009560600520161214000101 00000000000000000000000000000000000000000000000000000000000000000000000000000000000000000000000000000000000000000N 00000000000NCONT   00    00000000000          00000000000000000000000000000000000000000000 000000000000000A000000000000000000000000000000000000000000000 000000000000000000000000000000000000000     00000000                                                                                                                        000000000000000000
F0010000009560700001000004175790100011050500000000000000000201612140002001ROSIRIS FERIA HOYOS  (COSM. SHILLER)              D000000001300000000000000000000000100010010000000000000000000000F0010000009560700120161214000101 00000000000000000000000000000000000000000000000000000000000000000000000000000000000000000000000000000000000000000N 00000000000NCONT   00    00000000000          00000000000000000000000000000000000000000000 000000000000000A000000000000000000000000000000000000000000000 000000000000000000000000000000000000000     00000000                                                                                                                        000000000000000000
F0010000009560700002000004175790100041450500000000000000000201612140002001ROSIRIS FERIA HOYOS  (COSM. SHILLER)              C000000001200000000000000000000000100010010000000000000000000000F0010000009560700220161214000101 00000000000000000000000000000000000000000000000000000000000000000000000000000000000000000000000000000000000000000N 00000000000NCONT   00    00000000000          00000000000000000000000000000000000000000000 000000000000000A000000000000000000000000000000000000000000000 000000000000000000000000000000000000000     00000000                                                                                                                        000000000000000000
F0010000009560700003000004175790100042505000000000000000000201612140002001ROSIRIS FERIA HOYOS  (COSM. SHILLER)              C000000000100000000000000000000000100010010000000000000000000000F0010000009560700320161214000101 00000000000000000000000000000000000000000000000000000000000000000000000000000000000000000000000000000000000000000N 00000000000NCONT   00    00000000000          00000000000000000000000000000000000000000000 000000000000000A000000000000000000000000000000000000000000000 000000000000000000000000000000000000000     00000000                                                                                                                        000000000000000000
F0010000009560700004000004175790100023658300000000000000000201612140002001ROSIRIS FERIA HOYOS  (COSM. SHILLER)              C000000000009600000000000000000000100010010000000000000000000000F0010000009560700420161214000101 00000000000000000000000000000000000000000000000000000000000000000000000000000000000000000000000000000000000000000N 00000000000NCONT   00    00000000000          00000000000000000000000000000000000000000000 000000000000000A000000000000000000000000000000000000000000000 000000000000000000000000000000000000000     00000000                                                                                                                        000000000000000000
F0010000009560700005000004175790100013552100000000000000000201612140002001ROSIRIS FERIA HOYOS  (COSM. SHILLER)              D000000000009600000000000000000000100010010000000000000000000000F0010000009560700520161214000101 00000000000000000000000000000000000000000000000000000000000000000000000000000000000000000000000000000000000000000N 00000000000NCONT   00    00000000000          00000000000000000000000000000000000000000000 000000000000000A000000000000000000000000000000000000000000000 000000000000000000000000000000000000000     00000000                                                                                                                        000000000000000000
F0010000009560800001000004175790100011050500000000000000000201612140002001ROSIRIS FERIA HOYOS  (COSM. SHILLER)              D000000001300000000000000000000000100010010000000000000000000000F0010000009560800120161214000101 00000000000000000000000000000000000000000000000000000000000000000000000000000000000000000000000000000000000000000N 00000000000NCONT   00    00000000000          00000000000000000000000000000000000000000000 000000000000000A000000000000000000000000000000000000000000000 000000000000000000000000000000000000000     00000000                                                                                                                        000000000000000000
F0010000009560800002000004175790100041450500000000000000000201612140002001ROSIRIS FERIA HOYOS  (COSM. SHILLER)              C000000001200000000000000000000000100010010000000000000000000000F0010000009560800220161214000101 00000000000000000000000000000000000000000000000000000000000000000000000000000000000000000000000000000000000000000N 00000000000NCONT   00    00000000000          00000000000000000000000000000000000000000000 000000000000000A000000000000000000000000000000000000000000000 000000000000000000000000000000000000000     00000000                                                                                                                        000000000000000000
