F0010000008633300001000007719033000011050500000000000000000201605210002001ALMACEN EL SALPICON.COM                           D000000001400000000000000000000000100010010000000000000000000000F0010000008633300120160521000101 00000000000000000000000000000000000000000000000000000000000000000000000000000000000000000000000000000000000000000N 00000000000NCONT   00    00000000000          00000000000000000000000000000000000000000000 000000000000000A000000000000000000000000000000000000000000000 000000000000000000000000000000000000000     00000000                                                                                                                        000000000000000000
F0010000008633300002000007719033000041450500000000000000000201605210002001ALMACEN EL SALPICON.COM                           C000000001300000000000000000000000100010010000000000000000000000F0010000008633300220160521000101 00000000000000000000000000000000000000000000000000000000000000000000000000000000000000000000000000000000000000000N 00000000000NCONT   00    00000000000          00000000000000000000000000000000000000000000 000000000000000A000000000000000000000000000000000000000000000 000000000000000000000000000000000000000     00000000                                                                                                                        000000000000000000
F0010000008633300003000007719033000042505000000000000000000201605210002001ALMACEN EL SALPICON.COM                           C000000000100000000000000000000000100010010000000000000000000000F0010000008633300320160521000101 00000000000000000000000000000000000000000000000000000000000000000000000000000000000000000000000000000000000000000N 00000000000NCONT   00    00000000000          00000000000000000000000000000000000000000000 000000000000000A000000000000000000000000000000000000000000000 000000000000000000000000000000000000000     00000000                                                                                                                        000000000000000000
F0010000008633300004000007719033000023658300000000000000000201605210002001ALMACEN EL SALPICON.COM                           C000000000010400000000000000000000100010010000000000000000000000F0010000008633300420160521000101 00000000000000000000000000000000000000000000000000000000000000000000000000000000000000000000000000000000000000000N 00000000000NCONT   00    00000000000          00000000000000000000000000000000000000000000 000000000000000A000000000000000000000000000000000000000000000 000000000000000000000000000000000000000     00000000                                                                                                                        000000000000000000
F0010000008633300005000007719033000013552100000000000000000201605210002001ALMACEN EL SALPICON.COM                           D000000000010400000000000000000000100010010000000000000000000000F0010000008633300520160521000101 00000000000000000000000000000000000000000000000000000000000000000000000000000000000000000000000000000000000000000N 00000000000NCONT   00    00000000000          00000000000000000000000000000000000000000000 000000000000000A000000000000000000000000000000000000000000000 000000000000000000000000000000000000000     00000000                                                                                                                        000000000000000000
F0010000008633400001000007219677600011050500000000000000000201605210002001JUAN DAVID GALEANO GARCIA                         D000000001600000000000000000000000100010010000000000000000000000F0010000008633400120160521000101 00000000000000000000000000000000000000000000000000000000000000000000000000000000000000000000000000000000000000000N 00000000000NCONT   00    00000000000          00000000000000000000000000000000000000000000 000000000000000A000000000000000000000000000000000000000000000 000000000000000000000000000000000000000     00000000                                                                                                                        000000000000000000
F0010000008633400002000007219677600041450500000000000000000201605210002001JUAN DAVID GALEANO GARCIA                         C000000001300000000000000000000000100010010000000000000000000000F0010000008633400220160521000101 00000000000000000000000000000000000000000000000000000000000000000000000000000000000000000000000000000000000000000N 00000000000NCONT   00    00000000000          00000000000000000000000000000000000000000000 000000000000000A000000000000000000000000000000000000000000000 000000000000000000000000000000000000000     00000000                                                                                                                        000000000000000000
F0010000008633400003000007219677600042505000000000000000000201605210002001JUAN DAVID GALEANO GARCIA                         C000000000300000000000000000000000100010010000000000000000000000F0010000008633400320160521000101 00000000000000000000000000000000000000000000000000000000000000000000000000000000000000000000000000000000000000000N 00000000000NCONT   00    00000000000          00000000000000000000000000000000000000000000 000000000000000A000000000000000000000000000000000000000000000 000000000000000000000000000000000000000     00000000                                                                                                                        000000000000000000
F0010000008633400004000007219677600023658300000000000000000201605210002001JUAN DAVID GALEANO GARCIA                         C000000000010400000000000000000000100010010000000000000000000000F0010000008633400420160521000101 00000000000000000000000000000000000000000000000000000000000000000000000000000000000000000000000000000000000000000N 00000000000NCONT   00    00000000000          00000000000000000000000000000000000000000000 000000000000000A000000000000000000000000000000000000000000000 000000000000000000000000000000000000000     00000000                                                                                                                        000000000000000000
F0010000008633400005000007219677600013552100000000000000000201605210002001JUAN DAVID GALEANO GARCIA                         D000000000010400000000000000000000100010010000000000000000000000F0010000008633400520160521000101 00000000000000000000000000000000000000000000000000000000000000000000000000000000000000000000000000000000000000000N 00000000000NCONT   00    00000000000          00000000000000000000000000000000000000000000 000000000000000A000000000000000000000000000000000000000000000 000000000000000000000000000000000000000     00000000                                                                                                                        000000000000000000
F0010000008633500001000090087846000011050500000000000000000201605210002001INTERCOMERCIAL DL SAS                             D000000001400000000000000000000000100010010000000000000000000000F0010000008633500120160521000101 00000000000000000000000000000000000000000000000000000000000000000000000000000000000000000000000000000000000000000N 00000000000NCONT   00    00000000000          00000000000000000000000000000000000000000000 000000000000000A000000000000000000000000000000000000000000000 000000000000000000000000000000000000000     00000000                                                                                                                        000000000000000000
F0010000008633500002000090087846000041450500000000000000000201605210002001INTERCOMERCIAL DL SAS                             C000000001300000000000000000000000100010010000000000000000000000F0010000008633500220160521000101 00000000000000000000000000000000000000000000000000000000000000000000000000000000000000000000000000000000000000000N 00000000000NCONT   00    00000000000          00000000000000000000000000000000000000000000 000000000000000A000000000000000000000000000000000000000000000 000000000000000000000000000000000000000     00000000                                                                                                                        000000000000000000
F0010000008633500003000090087846000042505000000000000000000201605210002001INTERCOMERCIAL DL SAS                             C000000000100000000000000000000000100010010000000000000000000000F0010000008633500320160521000101 00000000000000000000000000000000000000000000000000000000000000000000000000000000000000000000000000000000000000000N 00000000000NCONT   00    00000000000          00000000000000000000000000000000000000000000 000000000000000A000000000000000000000000000000000000000000000 000000000000000000000000000000000000000     00000000                                                                                                                        000000000000000000
F0010000008633500004000090087846000023658300000000000000000201605210002001INTERCOMERCIAL DL SAS                             C000000000010400000000000000000000100010010000000000000000000000F0010000008633500420160521000101 00000000000000000000000000000000000000000000000000000000000000000000000000000000000000000000000000000000000000000N 00000000000NCONT   00    00000000000          00000000000000000000000000000000000000000000 000000000000000A000000000000000000000000000000000000000000000 000000000000000000000000000000000000000     00000000                                                                                                                        000000000000000000
F0010000008633500005000090087846000013552100000000000000000201605210002001INTERCOMERCIAL DL SAS                             D000000000010400000000000000000000100010010000000000000000000000F0010000008633500520160521000101 00000000000000000000000000000000000000000000000000000000000000000000000000000000000000000000000000000000000000000N 00000000000NCONT   00    00000000000          00000000000000000000000000000000000000000000 000000000000000A000000000000000000000000000000000000000000000 000000000000000000000000000000000000000     00000000                                                                                                                        000000000000000000
F0010000008633600001000090087846000011050500000000000000000201605210002001INTERCOMERCIAL DL SAS                             D000000001900000000000000000000000100010010000000000000000000000F0010000008633600120160521000101 00000000000000000000000000000000000000000000000000000000000000000000000000000000000000000000000000000000000000000N 00000000000NCONT   00    00000000000          00000000000000000000000000000000000000000000 000000000000000A000000000000000000000000000000000000000000000 000000000000000000000000000000000000000     00000000                                                                                                                        000000000000000000
F0010000008633600002000090087846000041450500000000000000000201605210002001INTERCOMERCIAL DL SAS                             C000000001800000000000000000000000100010010000000000000000000000F0010000008633600220160521000101 00000000000000000000000000000000000000000000000000000000000000000000000000000000000000000000000000000000000000000N 00000000000NCONT   00    00000000000          00000000000000000000000000000000000000000000 000000000000000A000000000000000000000000000000000000000000000 000000000000000000000000000000000000000     00000000                                                                                                                        000000000000000000
F0010000008633600003000090087846000042505000000000000000000201605210002001INTERCOMERCIAL DL SAS                             C000000000100000000000000000000000100010010000000000000000000000F0010000008633600320160521000101 00000000000000000000000000000000000000000000000000000000000000000000000000000000000000000000000000000000000000000N 00000000000NCONT   00    00000000000          00000000000000000000000000000000000000000000 000000000000000A000000000000000000000000000000000000000000000 000000000000000000000000000000000000000     00000000                                                                                                                        000000000000000000
F0010000008633600004000090087846000023658300000000000000000201605210002001INTERCOMERCIAL DL SAS                             C000000000014400000000000000000000100010010000000000000000000000F0010000008633600420160521000101 00000000000000000000000000000000000000000000000000000000000000000000000000000000000000000000000000000000000000000N 00000000000NCONT   00    00000000000          00000000000000000000000000000000000000000000 000000000000000A000000000000000000000000000000000000000000000 000000000000000000000000000000000000000     00000000                                                                                                                        000000000000000000
F0010000008633600005000090087846000013552100000000000000000201605210002001INTERCOMERCIAL DL SAS                             D000000000014400000000000000000000100010010000000000000000000000F0010000008633600520160521000101 00000000000000000000000000000000000000000000000000000000000000000000000000000000000000000000000000000000000000000N 00000000000NCONT   00    00000000000          00000000000000000000000000000000000000000000 000000000000000A000000000000000000000000000000000000000000000 000000000000000000000000000000000000000     00000000                                                                                                                        000000000000000000
F0010000008633700001000083008772100011050500000000000000000201605210002001ILUMEC SAS                                        D000000002260000000000000000000000100010010000000000000000000000F0010000008633700120160521000101 00000000000000000000000000000000000000000000000000000000000000000000000000000000000000000000000000000000000000000N 00000000000NCONT   00    00000000000          00000000000000000000000000000000000000000000 000000000000000A000000000000000000000000000000000000000000000 000000000000000000000000000000000000000     00000000                                                                                                                        000000000000000000
F0010000008633700002000083008772100041450500000000000000000201605210002001ILUMEC SAS                                        C000000001760000000000000000000000100010010000000000000000000000F0010000008633700220160521000101 00000000000000000000000000000000000000000000000000000000000000000000000000000000000000000000000000000000000000000N 00000000000NCONT   00    00000000000          00000000000000000000000000000000000000000000 000000000000000A000000000000000000000000000000000000000000000 000000000000000000000000000000000000000     00000000                                                                                                                        000000000000000000
F0010000008633700003000083008772100042505000000000000000000201605210002001ILUMEC SAS                                        C000000000500000000000000000000000100010010000000000000000000000F0010000008633700320160521000101 00000000000000000000000000000000000000000000000000000000000000000000000000000000000000000000000000000000000000000N 00000000000NCONT   00    00000000000          00000000000000000000000000000000000000000000 000000000000000A000000000000000000000000000000000000000000000 000000000000000000000000000000000000000     00000000                                                                                                                        000000000000000000
F0010000008633700004000083008772100023658300000000000000000201605210002001ILUMEC SAS                                        C000000000014100000000000000000000100010010000000000000000000000F0010000008633700420160521000101 00000000000000000000000000000000000000000000000000000000000000000000000000000000000000000000000000000000000000000N 00000000000NCONT   00    00000000000          00000000000000000000000000000000000000000000 000000000000000A000000000000000000000000000000000000000000000 000000000000000000000000000000000000000     00000000                                                                                                                        000000000000000000
F0010000008633700005000083008772100013552100000000000000000201605210002001ILUMEC SAS                                        D000000000014100000000000000000000100010010000000000000000000000F0010000008633700520160521000101 00000000000000000000000000000000000000000000000000000000000000000000000000000000000000000000000000000000000000000N 00000000000NCONT   00    00000000000          00000000000000000000000000000000000000000000 000000000000000A000000000000000000000000000000000000000000000 000000000000000000000000000000000000000     00000000                                                                                                                        000000000000000000
F0010000008633800001000000431178400011050500000000000000000201605210002001EFRAIN ALVAREZ                                    D000000001350000000000000000000000100010010000000000000000000000F0010000008633800120160521000101 00000000000000000000000000000000000000000000000000000000000000000000000000000000000000000000000000000000000000000N 00000000000NCONT   00    00000000000          00000000000000000000000000000000000000000000 000000000000000A000000000000000000000000000000000000000000000 000000000000000000000000000000000000000     00000000                                                                                                                        000000000000000000
F0010000008633800002000000431178400041450500000000000000000201605210002001EFRAIN ALVAREZ                                    C000000001270000000000000000000000100010010000000000000000000000F0010000008633800220160521000101 00000000000000000000000000000000000000000000000000000000000000000000000000000000000000000000000000000000000000000N 00000000000NCONT   00    00000000000          00000000000000000000000000000000000000000000 000000000000000A000000000000000000000000000000000000000000000 000000000000000000000000000000000000000     00000000                                                                                                                        000000000000000000
F0010000008633800003000000431178400042505000000000000000000201605210002001EFRAIN ALVAREZ                                    C000000000080000000000000000000000100010010000000000000000000000F0010000008633800320160521000101 00000000000000000000000000000000000000000000000000000000000000000000000000000000000000000000000000000000000000000N 00000000000NCONT   00    00000000000          00000000000000000000000000000000000000000000 000000000000000A000000000000000000000000000000000000000000000 000000000000000000000000000000000000000     00000000                                                                                                                        000000000000000000
F0010000008633800004000000431178400023658300000000000000000201605210002001EFRAIN ALVAREZ                                    C000000000010200000000000000000000100010010000000000000000000000F0010000008633800420160521000101 00000000000000000000000000000000000000000000000000000000000000000000000000000000000000000000000000000000000000000N 00000000000NCONT   00    00000000000          00000000000000000000000000000000000000000000 000000000000000A000000000000000000000000000000000000000000000 000000000000000000000000000000000000000     00000000                                                                                                                        000000000000000000
F0010000008633800005000000431178400013552100000000000000000201605210002001EFRAIN ALVAREZ                                    D000000000010200000000000000000000100010010000000000000000000000F0010000008633800520160521000101 00000000000000000000000000000000000000000000000000000000000000000000000000000000000000000000000000000000000000000N 00000000000NCONT   00    00000000000          00000000000000000000000000000000000000000000 000000000000000A000000000000000000000000000000000000000000000 000000000000000000000000000000000000000     00000000                                                                                                                        000000000000000000
F0010000008633900001000000431178400011050500000000000000000201605210002001EFRAIN ALVAREZ                                    D000000001370000000000000000000000100010010000000000000000000000F0010000008633900120160521000101 00000000000000000000000000000000000000000000000000000000000000000000000000000000000000000000000000000000000000000N 00000000000NCONT   00    00000000000          00000000000000000000000000000000000000000000 000000000000000A000000000000000000000000000000000000000000000 000000000000000000000000000000000000000     00000000                                                                                                                        000000000000000000
F0010000008633900002000000431178400041450500000000000000000201605210002001EFRAIN ALVAREZ                                    C000000001270000000000000000000000100010010000000000000000000000F0010000008633900220160521000101 00000000000000000000000000000000000000000000000000000000000000000000000000000000000000000000000000000000000000000N 00000000000NCONT   00    00000000000          00000000000000000000000000000000000000000000 000000000000000A000000000000000000000000000000000000000000000 000000000000000000000000000000000000000     00000000                                                                                                                        000000000000000000
F0010000008633900003000000431178400042505000000000000000000201605210002001EFRAIN ALVAREZ                                    C000000000100000000000000000000000100010010000000000000000000000F0010000008633900320160521000101 00000000000000000000000000000000000000000000000000000000000000000000000000000000000000000000000000000000000000000N 00000000000NCONT   00    00000000000          00000000000000000000000000000000000000000000 000000000000000A000000000000000000000000000000000000000000000 000000000000000000000000000000000000000     00000000                                                                                                                        000000000000000000
F0010000008633900004000000431178400023658300000000000000000201605210002001EFRAIN ALVAREZ                                    C000000000010200000000000000000000100010010000000000000000000000F0010000008633900420160521000101 00000000000000000000000000000000000000000000000000000000000000000000000000000000000000000000000000000000000000000N 00000000000NCONT   00    00000000000          00000000000000000000000000000000000000000000 000000000000000A000000000000000000000000000000000000000000000 000000000000000000000000000000000000000     00000000                                                                                                                        000000000000000000
F0010000008633900005000000431178400013552100000000000000000201605210002001EFRAIN ALVAREZ                                    D000000000010200000000000000000000100010010000000000000000000000F0010000008633900520160521000101 00000000000000000000000000000000000000000000000000000000000000000000000000000000000000000000000000000000000000000N 00000000000NCONT   00    00000000000          00000000000000000000000000000000000000000000 000000000000000A000000000000000000000000000000000000000000000 000000000000000000000000000000000000000     00000000                                                                                                                        000000000000000000
F0010000008634000001000000431178400011050500000000000000000201605210002001EFRAIN ALVAREZ                                    D000000002730000000000000000000000100010010000000000000000000000F0010000008634000120160521000101 00000000000000000000000000000000000000000000000000000000000000000000000000000000000000000000000000000000000000000N 00000000000NCONT   00    00000000000          00000000000000000000000000000000000000000000 000000000000000A000000000000000000000000000000000000000000000 000000000000000000000000000000000000000     00000000                                                                                                                        000000000000000000
F0010000008634000002000000431178400041450500000000000000000201605210002001EFRAIN ALVAREZ                                    C000000002540000000000000000000000100010010000000000000000000000F0010000008634000220160521000101 00000000000000000000000000000000000000000000000000000000000000000000000000000000000000000000000000000000000000000N 00000000000NCONT   00    00000000000          00000000000000000000000000000000000000000000 000000000000000A000000000000000000000000000000000000000000000 000000000000000000000000000000000000000     00000000                                                                                                                        000000000000000000
F0010000008634000003000000431178400042505000000000000000000201605210002001EFRAIN ALVAREZ                                    C000000000190000000000000000000000100010010000000000000000000000F0010000008634000320160521000101 00000000000000000000000000000000000000000000000000000000000000000000000000000000000000000000000000000000000000000N 00000000000NCONT   00    00000000000          00000000000000000000000000000000000000000000 000000000000000A000000000000000000000000000000000000000000000 000000000000000000000000000000000000000     00000000                                                                                                                        000000000000000000
F0010000008634000004000000431178400023658300000000000000000201605210002001EFRAIN ALVAREZ                                    C000000000020300000000000000000000100010010000000000000000000000F0010000008634000420160521000101 00000000000000000000000000000000000000000000000000000000000000000000000000000000000000000000000000000000000000000N 00000000000NCONT   00    00000000000          00000000000000000000000000000000000000000000 000000000000000A000000000000000000000000000000000000000000000 000000000000000000000000000000000000000     00000000                                                                                                                        000000000000000000
F0010000008634000005000000431178400013552100000000000000000201605210002001EFRAIN ALVAREZ                                    D000000000020300000000000000000000100010010000000000000000000000F0010000008634000520160521000101 00000000000000000000000000000000000000000000000000000000000000000000000000000000000000000000000000000000000000000N 00000000000NCONT   00    00000000000          00000000000000000000000000000000000000000000 000000000000000A000000000000000000000000000000000000000000000 000000000000000000000000000000000000000     00000000                                                                                                                        000000000000000000
F0010000008634100001000000431178400011050500000000000000000201605210002001EFRAIN ALVAREZ                                    D000000005160000000000000000000000100010010000000000000000000000F0010000008634100120160521000101 00000000000000000000000000000000000000000000000000000000000000000000000000000000000000000000000000000000000000000N 00000000000NCONT   00    00000000000          00000000000000000000000000000000000000000000 000000000000000A000000000000000000000000000000000000000000000 000000000000000000000000000000000000000     00000000                                                                                                                        000000000000000000
F0010000008634100002000000431178400041450500000000000000000201605210002001EFRAIN ALVAREZ                                    C000000004860000000000000000000000100010010000000000000000000000F0010000008634100220160521000101 00000000000000000000000000000000000000000000000000000000000000000000000000000000000000000000000000000000000000000N 00000000000NCONT   00    00000000000          00000000000000000000000000000000000000000000 000000000000000A000000000000000000000000000000000000000000000 000000000000000000000000000000000000000     00000000                                                                                                                        000000000000000000
F0010000008634100003000000431178400042505000000000000000000201605210002001EFRAIN ALVAREZ                                    C000000000300000000000000000000000100010010000000000000000000000F0010000008634100320160521000101 00000000000000000000000000000000000000000000000000000000000000000000000000000000000000000000000000000000000000000N 00000000000NCONT   00    00000000000          00000000000000000000000000000000000000000000 000000000000000A000000000000000000000000000000000000000000000 000000000000000000000000000000000000000     00000000                                                                                                                        000000000000000000
F0010000008634100004000000431178400023658300000000000000000201605210002001EFRAIN ALVAREZ                                    C000000000038900000000000000000000100010010000000000000000000000F0010000008634100420160521000101 00000000000000000000000000000000000000000000000000000000000000000000000000000000000000000000000000000000000000000N 00000000000NCONT   00    00000000000          00000000000000000000000000000000000000000000 000000000000000A000000000000000000000000000000000000000000000 000000000000000000000000000000000000000     00000000                                                                                                                        000000000000000000
F0010000008634100005000000431178400013552100000000000000000201605210002001EFRAIN ALVAREZ                                    D000000000038900000000000000000000100010010000000000000000000000F0010000008634100520160521000101 00000000000000000000000000000000000000000000000000000000000000000000000000000000000000000000000000000000000000000N 00000000000NCONT   00    00000000000          00000000000000000000000000000000000000000000 000000000000000A000000000000000000000000000000000000000000000 000000000000000000000000000000000000000     00000000                                                                                                                        000000000000000000
F0010000008634200001000000431178400011050500000000000000000201605210002001EFRAIN ALVAREZ                                    D000000002140000000000000000000000100010010000000000000000000000F0010000008634200120160521000101 00000000000000000000000000000000000000000000000000000000000000000000000000000000000000000000000000000000000000000N 00000000000NCONT   00    00000000000          00000000000000000000000000000000000000000000 000000000000000A000000000000000000000000000000000000000000000 000000000000000000000000000000000000000     00000000                                                                                                                        000000000000000000
F0010000008634200002000000431178400041450500000000000000000201605210002001EFRAIN ALVAREZ                                    C000000001840000000000000000000000100010010000000000000000000000F0010000008634200220160521000101 00000000000000000000000000000000000000000000000000000000000000000000000000000000000000000000000000000000000000000N 00000000000NCONT   00    00000000000          00000000000000000000000000000000000000000000 000000000000000A000000000000000000000000000000000000000000000 000000000000000000000000000000000000000     00000000                                                                                                                        000000000000000000
F0010000008634200003000000431178400042505000000000000000000201605210002001EFRAIN ALVAREZ                                    C000000000300000000000000000000000100010010000000000000000000000F0010000008634200320160521000101 00000000000000000000000000000000000000000000000000000000000000000000000000000000000000000000000000000000000000000N 00000000000NCONT   00    00000000000          00000000000000000000000000000000000000000000 000000000000000A000000000000000000000000000000000000000000000 000000000000000000000000000000000000000     00000000                                                                                                                        000000000000000000
F0010000008634200004000000431178400023658300000000000000000201605210002001EFRAIN ALVAREZ                                    C000000000014700000000000000000000100010010000000000000000000000F0010000008634200420160521000101 00000000000000000000000000000000000000000000000000000000000000000000000000000000000000000000000000000000000000000N 00000000000NCONT   00    00000000000          00000000000000000000000000000000000000000000 000000000000000A000000000000000000000000000000000000000000000 000000000000000000000000000000000000000     00000000                                                                                                                        000000000000000000
F0010000008634200005000000431178400013552100000000000000000201605210002001EFRAIN ALVAREZ                                    D000000000014700000000000000000000100010010000000000000000000000F0010000008634200520160521000101 00000000000000000000000000000000000000000000000000000000000000000000000000000000000000000000000000000000000000000N 00000000000NCONT   00    00000000000          00000000000000000000000000000000000000000000 000000000000000A000000000000000000000000000000000000000000000 000000000000000000000000000000000000000     00000000                                                                                                                        000000000000000000
F0010000008634300001000004175790100011050500000000000000000201605210002001ROSIRIS FERIA HOYOS  (COSM. SHILLER)              D000000001400000000000000000000000100010010000000000000000000000F0010000008634300120160521000101 00000000000000000000000000000000000000000000000000000000000000000000000000000000000000000000000000000000000000000N 00000000000NCONT   00    00000000000          00000000000000000000000000000000000000000000 000000000000000A000000000000000000000000000000000000000000000 000000000000000000000000000000000000000     00000000                                                                                                                        000000000000000000
F0010000008634300002000004175790100041450500000000000000000201605210002001ROSIRIS FERIA HOYOS  (COSM. SHILLER)              C000000001300000000000000000000000100010010000000000000000000000F0010000008634300220160521000101 00000000000000000000000000000000000000000000000000000000000000000000000000000000000000000000000000000000000000000N 00000000000NCONT   00    00000000000          00000000000000000000000000000000000000000000 000000000000000A000000000000000000000000000000000000000000000 000000000000000000000000000000000000000     00000000                                                                                                                        000000000000000000
F0010000008634300003000004175790100042505000000000000000000201605210002001ROSIRIS FERIA HOYOS  (COSM. SHILLER)              C000000000100000000000000000000000100010010000000000000000000000F0010000008634300320160521000101 00000000000000000000000000000000000000000000000000000000000000000000000000000000000000000000000000000000000000000N 00000000000NCONT   00    00000000000          00000000000000000000000000000000000000000000 000000000000000A000000000000000000000000000000000000000000000 000000000000000000000000000000000000000     00000000                                                                                                                        000000000000000000
F0010000008634300004000004175790100023658300000000000000000201605210002001ROSIRIS FERIA HOYOS  (COSM. SHILLER)              C000000000010400000000000000000000100010010000000000000000000000F0010000008634300420160521000101 00000000000000000000000000000000000000000000000000000000000000000000000000000000000000000000000000000000000000000N 00000000000NCONT   00    00000000000          00000000000000000000000000000000000000000000 000000000000000A000000000000000000000000000000000000000000000 000000000000000000000000000000000000000     00000000                                                                                                                        000000000000000000
F0010000008634300005000004175790100013552100000000000000000201605210002001ROSIRIS FERIA HOYOS  (COSM. SHILLER)              D000000000010400000000000000000000100010010000000000000000000000F0010000008634300520160521000101 00000000000000000000000000000000000000000000000000000000000000000000000000000000000000000000000000000000000000000N 00000000000NCONT   00    00000000000          00000000000000000000000000000000000000000000 000000000000000A000000000000000000000000000000000000000000000 000000000000000000000000000000000000000     00000000                                                                                                                        000000000000000000
F0010000008634400001000004175790100011050500000000000000000201605210002001ROSIRIS FERIA HOYOS  (COSM. SHILLER)              D000000001300000000000000000000000100010010000000000000000000000F0010000008634400120160521000101 00000000000000000000000000000000000000000000000000000000000000000000000000000000000000000000000000000000000000000N 00000000000NCONT   00    00000000000          00000000000000000000000000000000000000000000 000000000000000A000000000000000000000000000000000000000000000 000000000000000000000000000000000000000     00000000                                                                                                                        000000000000000000
F0010000008634400002000004175790100041450500000000000000000201605210002001ROSIRIS FERIA HOYOS  (COSM. SHILLER)              C000000001200000000000000000000000100010010000000000000000000000F0010000008634400220160521000101 00000000000000000000000000000000000000000000000000000000000000000000000000000000000000000000000000000000000000000N 00000000000NCONT   00    00000000000          00000000000000000000000000000000000000000000 000000000000000A000000000000000000000000000000000000000000000 000000000000000000000000000000000000000     00000000                                                                                                                        000000000000000000
F0010000008634400003000004175790100042505000000000000000000201605210002001ROSIRIS FERIA HOYOS  (COSM. SHILLER)              C000000000100000000000000000000000100010010000000000000000000000F0010000008634400320160521000101 00000000000000000000000000000000000000000000000000000000000000000000000000000000000000000000000000000000000000000N 00000000000NCONT   00    00000000000          00000000000000000000000000000000000000000000 000000000000000A000000000000000000000000000000000000000000000 000000000000000000000000000000000000000     00000000                                                                                                                        000000000000000000
F0010000008634400004000004175790100023658300000000000000000201605210002001ROSIRIS FERIA HOYOS  (COSM. SHILLER)              C000000000009600000000000000000000100010010000000000000000000000F0010000008634400420160521000101 00000000000000000000000000000000000000000000000000000000000000000000000000000000000000000000000000000000000000000N 00000000000NCONT   00    00000000000          00000000000000000000000000000000000000000000 000000000000000A000000000000000000000000000000000000000000000 000000000000000000000000000000000000000     00000000                                                                                                                        000000000000000000
F0010000008634400005000004175790100013552100000000000000000201605210002001ROSIRIS FERIA HOYOS  (COSM. SHILLER)              D000000000009600000000000000000000100010010000000000000000000000F0010000008634400520160521000101 00000000000000000000000000000000000000000000000000000000000000000000000000000000000000000000000000000000000000000N 00000000000NCONT   00    00000000000          00000000000000000000000000000000000000000000 000000000000000A000000000000000000000000000000000000000000000 000000000000000000000000000000000000000     00000000                                                                                                                        000000000000000000
F0010000008634500001000004175790100011050500000000000000000201605210002001ROSIRIS FERIA HOYOS  (COSM. SHILLER)              D000000001400000000000000000000000100010010000000000000000000000F0010000008634500120160521000101 00000000000000000000000000000000000000000000000000000000000000000000000000000000000000000000000000000000000000000N 00000000000NCONT   00    00000000000          00000000000000000000000000000000000000000000 000000000000000A000000000000000000000000000000000000000000000 000000000000000000000000000000000000000     00000000                                                                                                                        000000000000000000
F0010000008634500002000004175790100041450500000000000000000201605210002001ROSIRIS FERIA HOYOS  (COSM. SHILLER)              C000000001300000000000000000000000100010010000000000000000000000F0010000008634500220160521000101 00000000000000000000000000000000000000000000000000000000000000000000000000000000000000000000000000000000000000000N 00000000000NCONT   00    00000000000          00000000000000000000000000000000000000000000 000000000000000A000000000000000000000000000000000000000000000 000000000000000000000000000000000000000     00000000                                                                                                                        000000000000000000
F0010000008634500003000004175790100042505000000000000000000201605210002001ROSIRIS FERIA HOYOS  (COSM. SHILLER)              C000000000100000000000000000000000100010010000000000000000000000F0010000008634500320160521000101 00000000000000000000000000000000000000000000000000000000000000000000000000000000000000000000000000000000000000000N 00000000000NCONT   00    00000000000          00000000000000000000000000000000000000000000 000000000000000A000000000000000000000000000000000000000000000 000000000000000000000000000000000000000     00000000                                                                                                                        000000000000000000
F0010000008634500004000004175790100023658300000000000000000201605210002001ROSIRIS FERIA HOYOS  (COSM. SHILLER)              C000000000010400000000000000000000100010010000000000000000000000F0010000008634500420160521000101 00000000000000000000000000000000000000000000000000000000000000000000000000000000000000000000000000000000000000000N 00000000000NCONT   00    00000000000          00000000000000000000000000000000000000000000 000000000000000A000000000000000000000000000000000000000000000 000000000000000000000000000000000000000     00000000                                                                                                                        000000000000000000
F0010000008634500005000004175790100013552100000000000000000201605210002001ROSIRIS FERIA HOYOS  (COSM. SHILLER)              D000000000010400000000000000000000100010010000000000000000000000F0010000008634500520160521000101 00000000000000000000000000000000000000000000000000000000000000000000000000000000000000000000000000000000000000000N 00000000000NCONT   00    00000000000          00000000000000000000000000000000000000000000 000000000000000A000000000000000000000000000000000000000000000 000000000000000000000000000000000000000     00000000                                                                                                                        000000000000000000
F0010000008634600001000106563727500011050500000000000000000201605210002001ANA MATILDE GONZALEZ TORRES                       D000000020000000000000000000000000100010010000000000000000000000F0010000008634600120160521000101 00000000000000000000000000000000000000000000000000000000000000000000000000000000000000000000000000000000000000000N 00000000000NCONT   00    00000000000          00000000000000000000000000000000000000000000 000000000000000A000000000000000000000000000000000000000000000 000000000000000000000000000000000000000     00000000                                                                                                                        000000000000000000
F0010000008634600002000106563727500041450500000000000000000201605210002001ANA MATILDE GONZALEZ TORRES                       C000000018500000000000000000000000100010010000000000000000000000F0010000008634600220160521000101 00000000000000000000000000000000000000000000000000000000000000000000000000000000000000000000000000000000000000000N 00000000000NCONT   00    00000000000          00000000000000000000000000000000000000000000 000000000000000A000000000000000000000000000000000000000000000 000000000000000000000000000000000000000     00000000                                                                                                                        000000000000000000
F0010000008634600003000106563727500042505000000000000000000201605210002001ANA MATILDE GONZALEZ TORRES                       C000000001500000000000000000000000100010010000000000000000000000F0010000008634600320160521000101 00000000000000000000000000000000000000000000000000000000000000000000000000000000000000000000000000000000000000000N 00000000000NCONT   00    00000000000          00000000000000000000000000000000000000000000 000000000000000A000000000000000000000000000000000000000000000 000000000000000000000000000000000000000     00000000                                                                                                                        000000000000000000
F0010000008634600004000106563727500023658300000000000000000201605210002001ANA MATILDE GONZALEZ TORRES                       C000000000148000000000000000000000100010010000000000000000000000F0010000008634600420160521000101 00000000000000000000000000000000000000000000000000000000000000000000000000000000000000000000000000000000000000000N 00000000000NCONT   00    00000000000          00000000000000000000000000000000000000000000 000000000000000A000000000000000000000000000000000000000000000 000000000000000000000000000000000000000     00000000                                                                                                                        000000000000000000
F0010000008634600005000106563727500013552100000000000000000201605210002001ANA MATILDE GONZALEZ TORRES                       D000000000148000000000000000000000100010010000000000000000000000F0010000008634600520160521000101 00000000000000000000000000000000000000000000000000000000000000000000000000000000000000000000000000000000000000000N 00000000000NCONT   00    00000000000          00000000000000000000000000000000000000000000 000000000000000A000000000000000000000000000000000000000000000 000000000000000000000000000000000000000     00000000                                                                                                                        000000000000000000
