F0010000005750400001000009126927100011050500000000000000000201404290002001ELIECER GUTIERREZ SANABRIA                        D000000003100000000000000000000000100010010000000000000000000000F0010000005750400120140429000101 00000000000000000000000000000000000000000000000000000000000000000000000000000000000000000000000000000000000000000N 00000000000NCONT   00    00000000000          00000000000000000000000000000000000000000000 000000000000000A000000000000000000000000000000000000000000000 000000000000000000000000000000000000000     00000000                                                                                                                        000000000000000000
F0010000005750400002000009126927100041450500000000000000000201404290002001ELIECER GUTIERREZ SANABRIA                        C000000003000000000000000000000000100010010000000000000000000000F0010000005750400220140429000101 00000000000000000000000000000000000000000000000000000000000000000000000000000000000000000000000000000000000000000N 00000000000NCONT   00    00000000000          00000000000000000000000000000000000000000000 000000000000000A000000000000000000000000000000000000000000000 000000000000000000000000000000000000000     00000000                                                                                                                        000000000000000000
F0010000005750400003000009126927100042505000000000000000000201404290002001ELIECER GUTIERREZ SANABRIA                        C000000000100000000000000000000000100010010000000000000000000000F0010000005750400320140429000101 00000000000000000000000000000000000000000000000000000000000000000000000000000000000000000000000000000000000000000N 00000000000NCONT   00    00000000000          00000000000000000000000000000000000000000000 000000000000000A000000000000000000000000000000000000000000000 000000000000000000000000000000000000000     00000000                                                                                                                        000000000000000000
F0010000005750400004000009126927100023658300000000000000000201404290002001ELIECER GUTIERREZ SANABRIA                        C000000000024000000000000000000000100010010000000000000000000000F0010000005750400420140429000101 00000000000000000000000000000000000000000000000000000000000000000000000000000000000000000000000000000000000000000N 00000000000NCONT   00    00000000000          00000000000000000000000000000000000000000000 000000000000000A000000000000000000000000000000000000000000000 000000000000000000000000000000000000000     00000000                                                                                                                        000000000000000000
F0010000005750400005000009126927100013552100000000000000000201404290002001ELIECER GUTIERREZ SANABRIA                        D000000000024000000000000000000000100010010000000000000000000000F0010000005750400520140429000101 00000000000000000000000000000000000000000000000000000000000000000000000000000000000000000000000000000000000000000N 00000000000NCONT   00    00000000000          00000000000000000000000000000000000000000000 000000000000000A000000000000000000000000000000000000000000000 000000000000000000000000000000000000000     00000000                                                                                                                        000000000000000000
F0010000005750500001000080600450400011050500000000000000000201404290002001OSCAR TORO                                        D000000000800000000000000000000000100010010000000000000000000000F0010000005750500120140429000101 00000000000000000000000000000000000000000000000000000000000000000000000000000000000000000000000000000000000000000N 00000000000NCONT   00    00000000000          00000000000000000000000000000000000000000000 000000000000000A000000000000000000000000000000000000000000000 000000000000000000000000000000000000000     00000000                                                                                                                        000000000000000000
F0010000005750500002000080600450400041450500000000000000000201404290002001OSCAR TORO                                        C000000000700000000000000000000000100010010000000000000000000000F0010000005750500220140429000101 00000000000000000000000000000000000000000000000000000000000000000000000000000000000000000000000000000000000000000N 00000000000NCONT   00    00000000000          00000000000000000000000000000000000000000000 000000000000000A000000000000000000000000000000000000000000000 000000000000000000000000000000000000000     00000000                                                                                                                        000000000000000000
F0010000005750500003000080600450400042505000000000000000000201404290002001OSCAR TORO                                        C000000000100000000000000000000000100010010000000000000000000000F0010000005750500320140429000101 00000000000000000000000000000000000000000000000000000000000000000000000000000000000000000000000000000000000000000N 00000000000NCONT   00    00000000000          00000000000000000000000000000000000000000000 000000000000000A000000000000000000000000000000000000000000000 000000000000000000000000000000000000000     00000000                                                                                                                        000000000000000000
F0010000005750500004000080600450400023658300000000000000000201404290002001OSCAR TORO                                        C000000000005600000000000000000000100010010000000000000000000000F0010000005750500420140429000101 00000000000000000000000000000000000000000000000000000000000000000000000000000000000000000000000000000000000000000N 00000000000NCONT   00    00000000000          00000000000000000000000000000000000000000000 000000000000000A000000000000000000000000000000000000000000000 000000000000000000000000000000000000000     00000000                                                                                                                        000000000000000000
F0010000005750500005000080600450400013552100000000000000000201404290002001OSCAR TORO                                        D000000000005600000000000000000000100010010000000000000000000000F0010000005750500520140429000101 00000000000000000000000000000000000000000000000000000000000000000000000000000000000000000000000000000000000000000N 00000000000NCONT   00    00000000000          00000000000000000000000000000000000000000000 000000000000000A000000000000000000000000000000000000000000000 000000000000000000000000000000000000000     00000000                                                                                                                        000000000000000000
F0010000005750600001000086000089600013050500000000000000000201404290002001SIKA COLOMBIA S.A.                                D000000069775300000000000000000000100010010000000000000000000000F0010000005750600120140429000101 00000000000000000000000000000000000000000000000000000000000000000000000000000000000000000000000000000000000000000N 00000000000NCONT   00    00000000000          00000000000000000000000000000000000000000000 000000000000000A000000000000000000000000000000000000000000000 000000000000000000000000000000000000000     00000000                                                                                                                        000000000000000000
F0010000005750600002000086000089600041450500000000000000000201404290002001SIKA COLOMBIA S.A.                                C000000058000000000000000000000000100010010000000000000000000000F0010000005750600220140429000101 00000000000000000000000000000000000000000000000000000000000000000000000000000000000000000000000000000000000000000N 00000000000NCONT   00    00000000000          00000000000000000000000000000000000000000000 000000000000000A000000000000000000000000000000000000000000000 000000000000000000000000000000000000000     00000000                                                                                                                        000000000000000000
F0010000005750600003000086000089600042505000000000000000000201404290002001SIKA COLOMBIA S.A.                                C000000011775300000000000000000000100010010000000000000000000000F0010000005750600320140429000101 00000000000000000000000000000000000000000000000000000000000000000000000000000000000000000000000000000000000000000N 00000000000NCONT   00    00000000000          00000000000000000000000000000000000000000000 000000000000000A000000000000000000000000000000000000000000000 000000000000000000000000000000000000000     00000000                                                                                                                        000000000000000000
F0010000005750600004000086000089600023658300000000000000000201404290002001SIKA COLOMBIA S.A.                                C000000000464000000000000000000000100010010000000000000000000000F0010000005750600420140429000101 00000000000000000000000000000000000000000000000000000000000000000000000000000000000000000000000000000000000000000N 00000000000NCONT   00    00000000000          00000000000000000000000000000000000000000000 000000000000000A000000000000000000000000000000000000000000000 000000000000000000000000000000000000000     00000000                                                                                                                        000000000000000000
F0010000005750600005000086000089600013552100000000000000000201404290002001SIKA COLOMBIA S.A.                                D000000000464000000000000000000000100010010000000000000000000000F0010000005750600520140429000101 00000000000000000000000000000000000000000000000000000000000000000000000000000000000000000000000000000000000000000N 00000000000NCONT   00    00000000000          00000000000000000000000000000000000000000000 000000000000000A000000000000000000000000000000000000000000000 000000000000000000000000000000000000000     00000000                                                                                                                        000000000000000000
F0010000005750700001000086000089600013050500000000000000000201404290002001SIKA COLOMBIA S.A.                                D000000071406700000000000000000000100010010000000000000000000000F0010000005750700120140429000101 00000000000000000000000000000000000000000000000000000000000000000000000000000000000000000000000000000000000000000N 00000000000NCONT   00    00000000000          00000000000000000000000000000000000000000000 000000000000000A000000000000000000000000000000000000000000000 000000000000000000000000000000000000000     00000000                                                                                                                        000000000000000000
F0010000005750700002000086000089600041450500000000000000000201404290002001SIKA COLOMBIA S.A.                                C000000058000000000000000000000000100010010000000000000000000000F0010000005750700220140429000101 00000000000000000000000000000000000000000000000000000000000000000000000000000000000000000000000000000000000000000N 00000000000NCONT   00    00000000000          00000000000000000000000000000000000000000000 000000000000000A000000000000000000000000000000000000000000000 000000000000000000000000000000000000000     00000000                                                                                                                        000000000000000000
F0010000005750700003000086000089600042505000000000000000000201404290002001SIKA COLOMBIA S.A.                                C000000013406700000000000000000000100010010000000000000000000000F0010000005750700320140429000101 00000000000000000000000000000000000000000000000000000000000000000000000000000000000000000000000000000000000000000N 00000000000NCONT   00    00000000000          00000000000000000000000000000000000000000000 000000000000000A000000000000000000000000000000000000000000000 000000000000000000000000000000000000000     00000000                                                                                                                        000000000000000000
F0010000005750700004000086000089600023658300000000000000000201404290002001SIKA COLOMBIA S.A.                                C000000000464000000000000000000000100010010000000000000000000000F0010000005750700420140429000101 00000000000000000000000000000000000000000000000000000000000000000000000000000000000000000000000000000000000000000N 00000000000NCONT   00    00000000000          00000000000000000000000000000000000000000000 000000000000000A000000000000000000000000000000000000000000000 000000000000000000000000000000000000000     00000000                                                                                                                        000000000000000000
F0010000005750700005000086000089600013552100000000000000000201404290002001SIKA COLOMBIA S.A.                                D000000000464000000000000000000000100010010000000000000000000000F0010000005750700520140429000101 00000000000000000000000000000000000000000000000000000000000000000000000000000000000000000000000000000000000000000N 00000000000NCONT   00    00000000000          00000000000000000000000000000000000000000000 000000000000000A000000000000000000000000000000000000000000000 000000000000000000000000000000000000000     00000000                                                                                                                        000000000000000000
F0010000005750800001000086000089600013050500000000000000000201404290002001SIKA COLOMBIA S.A.                                D000000064945900000000000000000000100010010000000000000000000000F0010000005750800120140429000101 00000000000000000000000000000000000000000000000000000000000000000000000000000000000000000000000000000000000000000N 00000000000NCONT   00    00000000000          00000000000000000000000000000000000000000000 000000000000000A000000000000000000000000000000000000000000000 000000000000000000000000000000000000000     00000000                                                                                                                        000000000000000000
F0010000005750800002000086000089600041450500000000000000000201404290002001SIKA COLOMBIA S.A.                                C000000058000000000000000000000000100010010000000000000000000000F0010000005750800220140429000101 00000000000000000000000000000000000000000000000000000000000000000000000000000000000000000000000000000000000000000N 00000000000NCONT   00    00000000000          00000000000000000000000000000000000000000000 000000000000000A000000000000000000000000000000000000000000000 000000000000000000000000000000000000000     00000000                                                                                                                        000000000000000000
F0010000005750800003000086000089600042505000000000000000000201404290002001SIKA COLOMBIA S.A.                                C000000006945900000000000000000000100010010000000000000000000000F0010000005750800320140429000101 00000000000000000000000000000000000000000000000000000000000000000000000000000000000000000000000000000000000000000N 00000000000NCONT   00    00000000000          00000000000000000000000000000000000000000000 000000000000000A000000000000000000000000000000000000000000000 000000000000000000000000000000000000000     00000000                                                                                                                        000000000000000000
F0010000005750800004000086000089600023658300000000000000000201404290002001SIKA COLOMBIA S.A.                                C000000000464000000000000000000000100010010000000000000000000000F0010000005750800420140429000101 00000000000000000000000000000000000000000000000000000000000000000000000000000000000000000000000000000000000000000N 00000000000NCONT   00    00000000000          00000000000000000000000000000000000000000000 000000000000000A000000000000000000000000000000000000000000000 000000000000000000000000000000000000000     00000000                                                                                                                        000000000000000000
F0010000005750800005000086000089600013552100000000000000000201404290002001SIKA COLOMBIA S.A.                                D000000000464000000000000000000000100010010000000000000000000000F0010000005750800520140429000101 00000000000000000000000000000000000000000000000000000000000000000000000000000000000000000000000000000000000000000N 00000000000NCONT   00    00000000000          00000000000000000000000000000000000000000000 000000000000000A000000000000000000000000000000000000000000000 000000000000000000000000000000000000000     00000000                                                                                                                        000000000000000000
F0010000005750900001000086000089600013050500000000000000000201404290002001SIKA COLOMBIA S.A.                                D000000008136100000000000000000000100010010000000000000000000000F0010000005750900120140429000101 00000000000000000000000000000000000000000000000000000000000000000000000000000000000000000000000000000000000000000N 00000000000NCONT   00    00000000000          00000000000000000000000000000000000000000000 000000000000000A000000000000000000000000000000000000000000000 000000000000000000000000000000000000000     00000000                                                                                                                        000000000000000000
F0010000005750900002000086000089600041450500000000000000000201404290002001SIKA COLOMBIA S.A.                                C000000008000000000000000000000000100010010000000000000000000000F0010000005750900220140429000101 00000000000000000000000000000000000000000000000000000000000000000000000000000000000000000000000000000000000000000N 00000000000NCONT   00    00000000000          00000000000000000000000000000000000000000000 000000000000000A000000000000000000000000000000000000000000000 000000000000000000000000000000000000000     00000000                                                                                                                        000000000000000000
F0010000005750900003000086000089600042505000000000000000000201404290002001SIKA COLOMBIA S.A.                                C000000000136100000000000000000000100010010000000000000000000000F0010000005750900320140429000101 00000000000000000000000000000000000000000000000000000000000000000000000000000000000000000000000000000000000000000N 00000000000NCONT   00    00000000000          00000000000000000000000000000000000000000000 000000000000000A000000000000000000000000000000000000000000000 000000000000000000000000000000000000000     00000000                                                                                                                        000000000000000000
F0010000005750900004000086000089600023658300000000000000000201404290002001SIKA COLOMBIA S.A.                                C000000000064000000000000000000000100010010000000000000000000000F0010000005750900420140429000101 00000000000000000000000000000000000000000000000000000000000000000000000000000000000000000000000000000000000000000N 00000000000NCONT   00    00000000000          00000000000000000000000000000000000000000000 000000000000000A000000000000000000000000000000000000000000000 000000000000000000000000000000000000000     00000000                                                                                                                        000000000000000000
F0010000005750900005000086000089600013552100000000000000000201404290002001SIKA COLOMBIA S.A.                                D000000000064000000000000000000000100010010000000000000000000000F0010000005750900520140429000101 00000000000000000000000000000000000000000000000000000000000000000000000000000000000000000000000000000000000000000N 00000000000NCONT   00    00000000000          00000000000000000000000000000000000000000000 000000000000000A000000000000000000000000000000000000000000000 000000000000000000000000000000000000000     00000000                                                                                                                        000000000000000000
F0010000005751000001000083050133900011050500000000000000000201404290002001VALTAC DEL CARIBE LTDA                            D000000002500000000000000000000000100010010000000000000000000000F0010000005751000120140429000101 00000000000000000000000000000000000000000000000000000000000000000000000000000000000000000000000000000000000000000N 00000000000NCONT   00    00000000000          00000000000000000000000000000000000000000000 000000000000000A000000000000000000000000000000000000000000000 000000000000000000000000000000000000000     00000000                                                                                                                        000000000000000000
F0010000005751000002000083050133900041450500000000000000000201404290002001VALTAC DEL CARIBE LTDA                            C000000002400000000000000000000000100010010000000000000000000000F0010000005751000220140429000101 00000000000000000000000000000000000000000000000000000000000000000000000000000000000000000000000000000000000000000N 00000000000NCONT   00    00000000000          00000000000000000000000000000000000000000000 000000000000000A000000000000000000000000000000000000000000000 000000000000000000000000000000000000000     00000000                                                                                                                        000000000000000000
F0010000005751000003000083050133900042505000000000000000000201404290002001VALTAC DEL CARIBE LTDA                            C000000000100000000000000000000000100010010000000000000000000000F0010000005751000320140429000101 00000000000000000000000000000000000000000000000000000000000000000000000000000000000000000000000000000000000000000N 00000000000NCONT   00    00000000000          00000000000000000000000000000000000000000000 000000000000000A000000000000000000000000000000000000000000000 000000000000000000000000000000000000000     00000000                                                                                                                        000000000000000000
F0010000005751000004000083050133900023658300000000000000000201404290002001VALTAC DEL CARIBE LTDA                            C000000000019200000000000000000000100010010000000000000000000000F0010000005751000420140429000101 00000000000000000000000000000000000000000000000000000000000000000000000000000000000000000000000000000000000000000N 00000000000NCONT   00    00000000000          00000000000000000000000000000000000000000000 000000000000000A000000000000000000000000000000000000000000000 000000000000000000000000000000000000000     00000000                                                                                                                        000000000000000000
F0010000005751000005000083050133900013552100000000000000000201404290002001VALTAC DEL CARIBE LTDA                            D000000000019200000000000000000000100010010000000000000000000000F0010000005751000520140429000101 00000000000000000000000000000000000000000000000000000000000000000000000000000000000000000000000000000000000000000N 00000000000NCONT   00    00000000000          00000000000000000000000000000000000000000000 000000000000000A000000000000000000000000000000000000000000000 000000000000000000000000000000000000000     00000000                                                                                                                        000000000000000000
F0010000005751100001000090037350200011050500000000000000000201404290002001JIMAR C Y J LTDA                                  D000000005500000000000000000000000100010010000000000000000000000F0010000005751100120140429000101 00000000000000000000000000000000000000000000000000000000000000000000000000000000000000000000000000000000000000000N 00000000000NCONT   00    00000000000          00000000000000000000000000000000000000000000 000000000000000A000000000000000000000000000000000000000000000 000000000000000000000000000000000000000     00000000                                                                                                                        000000000000000000
F0010000005751100002000090037350200041450500000000000000000201404290002001JIMAR C Y J LTDA                                  C000000005400000000000000000000000100010010000000000000000000000F0010000005751100220140429000101 00000000000000000000000000000000000000000000000000000000000000000000000000000000000000000000000000000000000000000N 00000000000NCONT   00    00000000000          00000000000000000000000000000000000000000000 000000000000000A000000000000000000000000000000000000000000000 000000000000000000000000000000000000000     00000000                                                                                                                        000000000000000000
F0010000005751100003000090037350200042505000000000000000000201404290002001JIMAR C Y J LTDA                                  C000000000100000000000000000000000100010010000000000000000000000F0010000005751100320140429000101 00000000000000000000000000000000000000000000000000000000000000000000000000000000000000000000000000000000000000000N 00000000000NCONT   00    00000000000          00000000000000000000000000000000000000000000 000000000000000A000000000000000000000000000000000000000000000 000000000000000000000000000000000000000     00000000                                                                                                                        000000000000000000
F0010000005751100004000090037350200023658300000000000000000201404290002001JIMAR C Y J LTDA                                  C000000000043200000000000000000000100010010000000000000000000000F0010000005751100420140429000101 00000000000000000000000000000000000000000000000000000000000000000000000000000000000000000000000000000000000000000N 00000000000NCONT   00    00000000000          00000000000000000000000000000000000000000000 000000000000000A000000000000000000000000000000000000000000000 000000000000000000000000000000000000000     00000000                                                                                                                        000000000000000000
F0010000005751100005000090037350200013552100000000000000000201404290002001JIMAR C Y J LTDA                                  D000000000043200000000000000000000100010010000000000000000000000F0010000005751100520140429000101 00000000000000000000000000000000000000000000000000000000000000000000000000000000000000000000000000000000000000000N 00000000000NCONT   00    00000000000          00000000000000000000000000000000000000000000 000000000000000A000000000000000000000000000000000000000000000 000000000000000000000000000000000000000     00000000                                                                                                                        000000000000000000
F0010000005751200001000001494127100011050500000000000000000201404290002001GENTIL RAMIREZ                                    D000000001000000000000000000000000100010010000000000000000000000F0010000005751200120140429000101 00000000000000000000000000000000000000000000000000000000000000000000000000000000000000000000000000000000000000000N 00000000000NCONT   00    00000000000          00000000000000000000000000000000000000000000 000000000000000A000000000000000000000000000000000000000000000 000000000000000000000000000000000000000     00000000                                                                                                                        000000000000000000
F0010000005751200002000001494127100041450500000000000000000201404290002001GENTIL RAMIREZ                                    C000000000900000000000000000000000100010010000000000000000000000F0010000005751200220140429000101 00000000000000000000000000000000000000000000000000000000000000000000000000000000000000000000000000000000000000000N 00000000000NCONT   00    00000000000          00000000000000000000000000000000000000000000 000000000000000A000000000000000000000000000000000000000000000 000000000000000000000000000000000000000     00000000                                                                                                                        000000000000000000
F0010000005751200003000001494127100042505000000000000000000201404290002001GENTIL RAMIREZ                                    C000000000100000000000000000000000100010010000000000000000000000F0010000005751200320140429000101 00000000000000000000000000000000000000000000000000000000000000000000000000000000000000000000000000000000000000000N 00000000000NCONT   00    00000000000          00000000000000000000000000000000000000000000 000000000000000A000000000000000000000000000000000000000000000 000000000000000000000000000000000000000     00000000                                                                                                                        000000000000000000
F0010000005751200004000001494127100023658300000000000000000201404290002001GENTIL RAMIREZ                                    C000000000007200000000000000000000100010010000000000000000000000F0010000005751200420140429000101 00000000000000000000000000000000000000000000000000000000000000000000000000000000000000000000000000000000000000000N 00000000000NCONT   00    00000000000          00000000000000000000000000000000000000000000 000000000000000A000000000000000000000000000000000000000000000 000000000000000000000000000000000000000     00000000                                                                                                                        000000000000000000
F0010000005751200005000001494127100013552100000000000000000201404290002001GENTIL RAMIREZ                                    D000000000007200000000000000000000100010010000000000000000000000F0010000005751200520140429000101 00000000000000000000000000000000000000000000000000000000000000000000000000000000000000000000000000000000000000000N 00000000000NCONT   00    00000000000          00000000000000000000000000000000000000000000 000000000000000A000000000000000000000000000000000000000000000 000000000000000000000000000000000000000     00000000                                                                                                                        000000000000000000
F0010000005751300001000000084247000011050500000000000000000201404290002001LABORATORIO MEDIFAR LTDA                          D000000007700000000000000000000000100010010000000000000000000000F0010000005751300120140429000101 00000000000000000000000000000000000000000000000000000000000000000000000000000000000000000000000000000000000000000N 00000000000NCONT   00    00000000000          00000000000000000000000000000000000000000000 000000000000000A000000000000000000000000000000000000000000000 000000000000000000000000000000000000000     00000000                                                                                                                        000000000000000000
F0010000005751300002000000084247000041450500000000000000000201404290002001LABORATORIO MEDIFAR LTDA                          C000000007200000000000000000000000100010010000000000000000000000F0010000005751300220140429000101 00000000000000000000000000000000000000000000000000000000000000000000000000000000000000000000000000000000000000000N 00000000000NCONT   00    00000000000          00000000000000000000000000000000000000000000 000000000000000A000000000000000000000000000000000000000000000 000000000000000000000000000000000000000     00000000                                                                                                                        000000000000000000
F0010000005751300003000000084247000042505000000000000000000201404290002001LABORATORIO MEDIFAR LTDA                          C000000000500000000000000000000000100010010000000000000000000000F0010000005751300320140429000101 00000000000000000000000000000000000000000000000000000000000000000000000000000000000000000000000000000000000000000N 00000000000NCONT   00    00000000000          00000000000000000000000000000000000000000000 000000000000000A000000000000000000000000000000000000000000000 000000000000000000000000000000000000000     00000000                                                                                                                        000000000000000000
F0010000005751300004000000084247000023658300000000000000000201404290002001LABORATORIO MEDIFAR LTDA                          C000000000057600000000000000000000100010010000000000000000000000F0010000005751300420140429000101 00000000000000000000000000000000000000000000000000000000000000000000000000000000000000000000000000000000000000000N 00000000000NCONT   00    00000000000          00000000000000000000000000000000000000000000 000000000000000A000000000000000000000000000000000000000000000 000000000000000000000000000000000000000     00000000                                                                                                                        000000000000000000
F0010000005751300005000000084247000013552100000000000000000201404290002001LABORATORIO MEDIFAR LTDA                          D000000000057600000000000000000000100010010000000000000000000000F0010000005751300520140429000101 00000000000000000000000000000000000000000000000000000000000000000000000000000000000000000000000000000000000000000N 00000000000NCONT   00    00000000000          00000000000000000000000000000000000000000000 000000000000000A000000000000000000000000000000000000000000000 000000000000000000000000000000000000000     00000000                                                                                                                        000000000000000000
F0010000005751400001000089010404900011050500000000000000000201404290002001CALCAREOS SA                                      D000000003700000000000000000000000100010010000000000000000000000F0010000005751400120140429000101 00000000000000000000000000000000000000000000000000000000000000000000000000000000000000000000000000000000000000000N 00000000000NCONT   00    00000000000          00000000000000000000000000000000000000000000 000000000000000A000000000000000000000000000000000000000000000 000000000000000000000000000000000000000     00000000                                                                                                                        000000000000000000
F0010000005751400002000089010404900041450500000000000000000201404290002001CALCAREOS SA                                      C000000003600000000000000000000000100010010000000000000000000000F0010000005751400220140429000101 00000000000000000000000000000000000000000000000000000000000000000000000000000000000000000000000000000000000000000N 00000000000NCONT   00    00000000000          00000000000000000000000000000000000000000000 000000000000000A000000000000000000000000000000000000000000000 000000000000000000000000000000000000000     00000000                                                                                                                        000000000000000000
F0010000005751400003000089010404900042505000000000000000000201404290002001CALCAREOS SA                                      C000000000100000000000000000000000100010010000000000000000000000F0010000005751400320140429000101 00000000000000000000000000000000000000000000000000000000000000000000000000000000000000000000000000000000000000000N 00000000000NCONT   00    00000000000          00000000000000000000000000000000000000000000 000000000000000A000000000000000000000000000000000000000000000 000000000000000000000000000000000000000     00000000                                                                                                                        000000000000000000
F0010000005751400004000089010404900023658300000000000000000201404290002001CALCAREOS SA                                      C000000000028800000000000000000000100010010000000000000000000000F0010000005751400420140429000101 00000000000000000000000000000000000000000000000000000000000000000000000000000000000000000000000000000000000000000N 00000000000NCONT   00    00000000000          00000000000000000000000000000000000000000000 000000000000000A000000000000000000000000000000000000000000000 000000000000000000000000000000000000000     00000000                                                                                                                        000000000000000000
F0010000005751400005000089010404900013552100000000000000000201404290002001CALCAREOS SA                                      D000000000028800000000000000000000100010010000000000000000000000F0010000005751400520140429000101 00000000000000000000000000000000000000000000000000000000000000000000000000000000000000000000000000000000000000000N 00000000000NCONT   00    00000000000          00000000000000000000000000000000000000000000 000000000000000A000000000000000000000000000000000000000000000 000000000000000000000000000000000000000     00000000                                                                                                                        000000000000000000
F0010000005751500001000007233680300011050500000000000000000201404290002001DISTRIBUIDORA CUÑOS Y EVAS RAMBAL                D000000012000000000000000000000000100010010000000000000000000000F0010000005751500120140429000101 00000000000000000000000000000000000000000000000000000000000000000000000000000000000000000000000000000000000000000N 00000000000NCONT   00    00000000000          00000000000000000000000000000000000000000000 000000000000000A000000000000000000000000000000000000000000000 000000000000000000000000000000000000000     00000000                                                                                                                        000000000000000000
F0010000005751500002000007233680300041450500000000000000000201404290002001DISTRIBUIDORA CUÑOS Y EVAS RAMBAL                C000000010000000000000000000000000100010010000000000000000000000F0010000005751500220140429000101 00000000000000000000000000000000000000000000000000000000000000000000000000000000000000000000000000000000000000000N 00000000000NCONT   00    00000000000          00000000000000000000000000000000000000000000 000000000000000A000000000000000000000000000000000000000000000 000000000000000000000000000000000000000     00000000                                                                                                                        000000000000000000
F0010000005751500003000007233680300042505000000000000000000201404290002001DISTRIBUIDORA CUÑOS Y EVAS RAMBAL                C000000002000000000000000000000000100010010000000000000000000000F0010000005751500320140429000101 00000000000000000000000000000000000000000000000000000000000000000000000000000000000000000000000000000000000000000N 00000000000NCONT   00    00000000000          00000000000000000000000000000000000000000000 000000000000000A000000000000000000000000000000000000000000000 000000000000000000000000000000000000000     00000000                                                                                                                        000000000000000000
F0010000005751500004000007233680300023658300000000000000000201404290002001DISTRIBUIDORA CUÑOS Y EVAS RAMBAL                C000000000080000000000000000000000100010010000000000000000000000F0010000005751500420140429000101 00000000000000000000000000000000000000000000000000000000000000000000000000000000000000000000000000000000000000000N 00000000000NCONT   00    00000000000          00000000000000000000000000000000000000000000 000000000000000A000000000000000000000000000000000000000000000 000000000000000000000000000000000000000     00000000                                                                                                                        000000000000000000
F0010000005751500005000007233680300013552100000000000000000201404290002001DISTRIBUIDORA CUÑOS Y EVAS RAMBAL                D000000000080000000000000000000000100010010000000000000000000000F0010000005751500520140429000101 00000000000000000000000000000000000000000000000000000000000000000000000000000000000000000000000000000000000000000N 00000000000NCONT   00    00000000000          00000000000000000000000000000000000000000000 000000000000000A000000000000000000000000000000000000000000000 000000000000000000000000000000000000000     00000000                                                                                                                        000000000000000000
F0010000005751600001000090049713000011050500000000000000000201404290002001ALUMELENDEZ DE LA COSTA S.A.S                     D000000007000000000000000000000000100010010000000000000000000000F0010000005751600120140429000101 00000000000000000000000000000000000000000000000000000000000000000000000000000000000000000000000000000000000000000N 00000000000NCONT   00    00000000000          00000000000000000000000000000000000000000000 000000000000000A000000000000000000000000000000000000000000000 000000000000000000000000000000000000000     00000000                                                                                                                        000000000000000000
F0010000005751600002000090049713000041450500000000000000000201404290002001ALUMELENDEZ DE LA COSTA S.A.S                     C000000006220000000000000000000000100010010000000000000000000000F0010000005751600220140429000101 00000000000000000000000000000000000000000000000000000000000000000000000000000000000000000000000000000000000000000N 00000000000NCONT   00    00000000000          00000000000000000000000000000000000000000000 000000000000000A000000000000000000000000000000000000000000000 000000000000000000000000000000000000000     00000000                                                                                                                        000000000000000000
F0010000005751600003000090049713000042505000000000000000000201404290002001ALUMELENDEZ DE LA COSTA S.A.S                     C000000000780000000000000000000000100010010000000000000000000000F0010000005751600320140429000101 00000000000000000000000000000000000000000000000000000000000000000000000000000000000000000000000000000000000000000N 00000000000NCONT   00    00000000000          00000000000000000000000000000000000000000000 000000000000000A000000000000000000000000000000000000000000000 000000000000000000000000000000000000000     00000000                                                                                                                        000000000000000000
F0010000005751600004000090049713000023658300000000000000000201404290002001ALUMELENDEZ DE LA COSTA S.A.S                     C000000000049800000000000000000000100010010000000000000000000000F0010000005751600420140429000101 00000000000000000000000000000000000000000000000000000000000000000000000000000000000000000000000000000000000000000N 00000000000NCONT   00    00000000000          00000000000000000000000000000000000000000000 000000000000000A000000000000000000000000000000000000000000000 000000000000000000000000000000000000000     00000000                                                                                                                        000000000000000000
F0010000005751600005000090049713000013552100000000000000000201404290002001ALUMELENDEZ DE LA COSTA S.A.S                     D000000000049800000000000000000000100010010000000000000000000000F0010000005751600520140429000101 00000000000000000000000000000000000000000000000000000000000000000000000000000000000000000000000000000000000000000N 00000000000NCONT   00    00000000000          00000000000000000000000000000000000000000000 000000000000000A000000000000000000000000000000000000000000000 000000000000000000000000000000000000000     00000000                                                                                                                        000000000000000000
F0010000005751700001000000866840800011050500000000000000000201404290002001CACHARRERIA MARTIN                                D000000002400000000000000000000000100010010000000000000000000000F0010000005751700120140429000101 00000000000000000000000000000000000000000000000000000000000000000000000000000000000000000000000000000000000000000N 00000000000NCONT   00    00000000000          00000000000000000000000000000000000000000000 000000000000000A000000000000000000000000000000000000000000000 000000000000000000000000000000000000000     00000000                                                                                                                        000000000000000000
F0010000005751700002000000866840800041450500000000000000000201404290002001CACHARRERIA MARTIN                                C000000001600000000000000000000000100010010000000000000000000000F0010000005751700220140429000101 00000000000000000000000000000000000000000000000000000000000000000000000000000000000000000000000000000000000000000N 00000000000NCONT   00    00000000000          00000000000000000000000000000000000000000000 000000000000000A000000000000000000000000000000000000000000000 000000000000000000000000000000000000000     00000000                                                                                                                        000000000000000000
F0010000005751700003000000866840800042505000000000000000000201404290002001CACHARRERIA MARTIN                                C000000000800000000000000000000000100010010000000000000000000000F0010000005751700320140429000101 00000000000000000000000000000000000000000000000000000000000000000000000000000000000000000000000000000000000000000N 00000000000NCONT   00    00000000000          00000000000000000000000000000000000000000000 000000000000000A000000000000000000000000000000000000000000000 000000000000000000000000000000000000000     00000000                                                                                                                        000000000000000000
F0010000005751700004000000866840800023658300000000000000000201404290002001CACHARRERIA MARTIN                                C000000000012800000000000000000000100010010000000000000000000000F0010000005751700420140429000101 00000000000000000000000000000000000000000000000000000000000000000000000000000000000000000000000000000000000000000N 00000000000NCONT   00    00000000000          00000000000000000000000000000000000000000000 000000000000000A000000000000000000000000000000000000000000000 000000000000000000000000000000000000000     00000000                                                                                                                        000000000000000000
F0010000005751700005000000866840800013552100000000000000000201404290002001CACHARRERIA MARTIN                                D000000000012800000000000000000000100010010000000000000000000000F0010000005751700520140429000101 00000000000000000000000000000000000000000000000000000000000000000000000000000000000000000000000000000000000000000N 00000000000NCONT   00    00000000000          00000000000000000000000000000000000000000000 000000000000000A000000000000000000000000000000000000000000000 000000000000000000000000000000000000000     00000000                                                                                                                        000000000000000000
F0010000005751800001000080201490100011050500000000000000000201404290002001COMERCIALIZADORA PAITILLA                         D000000002700000000000000000000000100010010000000000000000000000F0010000005751800120140429000101 00000000000000000000000000000000000000000000000000000000000000000000000000000000000000000000000000000000000000000N 00000000000NCONT   00    00000000000          00000000000000000000000000000000000000000000 000000000000000A000000000000000000000000000000000000000000000 000000000000000000000000000000000000000     00000000                                                                                                                        000000000000000000
F0010000005751800002000080201490100041450500000000000000000201404290002001COMERCIALIZADORA PAITILLA                         C000000002400000000000000000000000100010010000000000000000000000F0010000005751800220140429000101 00000000000000000000000000000000000000000000000000000000000000000000000000000000000000000000000000000000000000000N 00000000000NCONT   00    00000000000          00000000000000000000000000000000000000000000 000000000000000A000000000000000000000000000000000000000000000 000000000000000000000000000000000000000     00000000                                                                                                                        000000000000000000
F0010000005751800003000080201490100042505000000000000000000201404290002001COMERCIALIZADORA PAITILLA                         C000000000300000000000000000000000100010010000000000000000000000F0010000005751800320140429000101 00000000000000000000000000000000000000000000000000000000000000000000000000000000000000000000000000000000000000000N 00000000000NCONT   00    00000000000          00000000000000000000000000000000000000000000 000000000000000A000000000000000000000000000000000000000000000 000000000000000000000000000000000000000     00000000                                                                                                                        000000000000000000
F0010000005751800004000080201490100023658300000000000000000201404290002001COMERCIALIZADORA PAITILLA                         C000000000019200000000000000000000100010010000000000000000000000F0010000005751800420140429000101 00000000000000000000000000000000000000000000000000000000000000000000000000000000000000000000000000000000000000000N 00000000000NCONT   00    00000000000          00000000000000000000000000000000000000000000 000000000000000A000000000000000000000000000000000000000000000 000000000000000000000000000000000000000     00000000                                                                                                                        000000000000000000
F0010000005751800005000080201490100013552100000000000000000201404290002001COMERCIALIZADORA PAITILLA                         D000000000019200000000000000000000100010010000000000000000000000F0010000005751800520140429000101 00000000000000000000000000000000000000000000000000000000000000000000000000000000000000000000000000000000000000000N 00000000000NCONT   00    00000000000          00000000000000000000000000000000000000000000 000000000000000A000000000000000000000000000000000000000000000 000000000000000000000000000000000000000     00000000                                                                                                                        000000000000000000
F0010000005751900001000080202350700011050500000000000000000201404290002001CONNY DE LA COSTA SAS                             D000000001500000000000000000000000100010010000000000000000000000F0010000005751900120140429000101 00000000000000000000000000000000000000000000000000000000000000000000000000000000000000000000000000000000000000000N 00000000000NCONT   00    00000000000          00000000000000000000000000000000000000000000 000000000000000A000000000000000000000000000000000000000000000 000000000000000000000000000000000000000     00000000                                                                                                                        000000000000000000
F0010000005751900002000080202350700041450500000000000000000201404290002001CONNY DE LA COSTA SAS                             C000000001100000000000000000000000100010010000000000000000000000F0010000005751900220140429000101 00000000000000000000000000000000000000000000000000000000000000000000000000000000000000000000000000000000000000000N 00000000000NCONT   00    00000000000          00000000000000000000000000000000000000000000 000000000000000A000000000000000000000000000000000000000000000 000000000000000000000000000000000000000     00000000                                                                                                                        000000000000000000
F0010000005751900003000080202350700042505000000000000000000201404290002001CONNY DE LA COSTA SAS                             C000000000400000000000000000000000100010010000000000000000000000F0010000005751900320140429000101 00000000000000000000000000000000000000000000000000000000000000000000000000000000000000000000000000000000000000000N 00000000000NCONT   00    00000000000          00000000000000000000000000000000000000000000 000000000000000A000000000000000000000000000000000000000000000 000000000000000000000000000000000000000     00000000                                                                                                                        000000000000000000
F0010000005751900004000080202350700023658300000000000000000201404290002001CONNY DE LA COSTA SAS                             C000000000008800000000000000000000100010010000000000000000000000F0010000005751900420140429000101 00000000000000000000000000000000000000000000000000000000000000000000000000000000000000000000000000000000000000000N 00000000000NCONT   00    00000000000          00000000000000000000000000000000000000000000 000000000000000A000000000000000000000000000000000000000000000 000000000000000000000000000000000000000     00000000                                                                                                                        000000000000000000
F0010000005751900005000080202350700013552100000000000000000201404290002001CONNY DE LA COSTA SAS                             D000000000008800000000000000000000100010010000000000000000000000F0010000005751900520140429000101 00000000000000000000000000000000000000000000000000000000000000000000000000000000000000000000000000000000000000000N 00000000000NCONT   00    00000000000          00000000000000000000000000000000000000000000 000000000000000A000000000000000000000000000000000000000000000 000000000000000000000000000000000000000     00000000                                                                                                                        000000000000000000
F0010000005752000001000080202350700011050500000000000000000201404290002001CONNY DE LA COSTA SAS                             D000000001000000000000000000000000100010010000000000000000000000F0010000005752000120140429000101 00000000000000000000000000000000000000000000000000000000000000000000000000000000000000000000000000000000000000000N 00000000000NCONT   00    00000000000          00000000000000000000000000000000000000000000 000000000000000A000000000000000000000000000000000000000000000 000000000000000000000000000000000000000     00000000                                                                                                                        000000000000000000
F0010000005752000002000080202350700041450500000000000000000201404290002001CONNY DE LA COSTA SAS                             C000000000800000000000000000000000100010010000000000000000000000F0010000005752000220140429000101 00000000000000000000000000000000000000000000000000000000000000000000000000000000000000000000000000000000000000000N 00000000000NCONT   00    00000000000          00000000000000000000000000000000000000000000 000000000000000A000000000000000000000000000000000000000000000 000000000000000000000000000000000000000     00000000                                                                                                                        000000000000000000
F0010000005752000003000080202350700042505000000000000000000201404290002001CONNY DE LA COSTA SAS                             C000000000200000000000000000000000100010010000000000000000000000F0010000005752000320140429000101 00000000000000000000000000000000000000000000000000000000000000000000000000000000000000000000000000000000000000000N 00000000000NCONT   00    00000000000          00000000000000000000000000000000000000000000 000000000000000A000000000000000000000000000000000000000000000 000000000000000000000000000000000000000     00000000                                                                                                                        000000000000000000
F0010000005752000004000080202350700023658300000000000000000201404290002001CONNY DE LA COSTA SAS                             C000000000006400000000000000000000100010010000000000000000000000F0010000005752000420140429000101 00000000000000000000000000000000000000000000000000000000000000000000000000000000000000000000000000000000000000000N 00000000000NCONT   00    00000000000          00000000000000000000000000000000000000000000 000000000000000A000000000000000000000000000000000000000000000 000000000000000000000000000000000000000     00000000                                                                                                                        000000000000000000
F0010000005752000005000080202350700013552100000000000000000201404290002001CONNY DE LA COSTA SAS                             D000000000006400000000000000000000100010010000000000000000000000F0010000005752000520140429000101 00000000000000000000000000000000000000000000000000000000000000000000000000000000000000000000000000000000000000000N 00000000000NCONT   00    00000000000          00000000000000000000000000000000000000000000 000000000000000A000000000000000000000000000000000000000000000 000000000000000000000000000000000000000     00000000                                                                                                                        000000000000000000
F0010000005752100001000080202350700011050500000000000000000201404290002001CONNY DE LA COSTA SAS                             D000000004100000000000000000000000100010010000000000000000000000F0010000005752100120140429000101 00000000000000000000000000000000000000000000000000000000000000000000000000000000000000000000000000000000000000000N 00000000000NCONT   00    00000000000          00000000000000000000000000000000000000000000 000000000000000A000000000000000000000000000000000000000000000 000000000000000000000000000000000000000     00000000                                                                                                                        000000000000000000
F0010000005752100002000080202350700041450500000000000000000201404290002001CONNY DE LA COSTA SAS                             C000000003300000000000000000000000100010010000000000000000000000F0010000005752100220140429000101 00000000000000000000000000000000000000000000000000000000000000000000000000000000000000000000000000000000000000000N 00000000000NCONT   00    00000000000          00000000000000000000000000000000000000000000 000000000000000A000000000000000000000000000000000000000000000 000000000000000000000000000000000000000     00000000                                                                                                                        000000000000000000
F0010000005752100003000080202350700042505000000000000000000201404290002001CONNY DE LA COSTA SAS                             C000000000800000000000000000000000100010010000000000000000000000F0010000005752100320140429000101 00000000000000000000000000000000000000000000000000000000000000000000000000000000000000000000000000000000000000000N 00000000000NCONT   00    00000000000          00000000000000000000000000000000000000000000 000000000000000A000000000000000000000000000000000000000000000 000000000000000000000000000000000000000     00000000                                                                                                                        000000000000000000
F0010000005752100004000080202350700023658300000000000000000201404290002001CONNY DE LA COSTA SAS                             C000000000026400000000000000000000100010010000000000000000000000F0010000005752100420140429000101 00000000000000000000000000000000000000000000000000000000000000000000000000000000000000000000000000000000000000000N 00000000000NCONT   00    00000000000          00000000000000000000000000000000000000000000 000000000000000A000000000000000000000000000000000000000000000 000000000000000000000000000000000000000     00000000                                                                                                                        000000000000000000
F0010000005752100005000080202350700013552100000000000000000201404290002001CONNY DE LA COSTA SAS                             D000000000026400000000000000000000100010010000000000000000000000F0010000005752100520140429000101 00000000000000000000000000000000000000000000000000000000000000000000000000000000000000000000000000000000000000000N 00000000000NCONT   00    00000000000          00000000000000000000000000000000000000000000 000000000000000A000000000000000000000000000000000000000000000 000000000000000000000000000000000000000     00000000                                                                                                                        000000000000000000
F0010000005752200001000080202350700011050500000000000000000201404290002001CONNY DE LA COSTA SAS                             D000000001100000000000000000000000100010010000000000000000000000F0010000005752200120140429000101 00000000000000000000000000000000000000000000000000000000000000000000000000000000000000000000000000000000000000000N 00000000000NCONT   00    00000000000          00000000000000000000000000000000000000000000 000000000000000A000000000000000000000000000000000000000000000 000000000000000000000000000000000000000     00000000                                                                                                                        000000000000000000
F0010000005752200002000080202350700041450500000000000000000201404290002001CONNY DE LA COSTA SAS                             C000000000800000000000000000000000100010010000000000000000000000F0010000005752200220140429000101 00000000000000000000000000000000000000000000000000000000000000000000000000000000000000000000000000000000000000000N 00000000000NCONT   00    00000000000          00000000000000000000000000000000000000000000 000000000000000A000000000000000000000000000000000000000000000 000000000000000000000000000000000000000     00000000                                                                                                                        000000000000000000
F0010000005752200003000080202350700042505000000000000000000201404290002001CONNY DE LA COSTA SAS                             C000000000300000000000000000000000100010010000000000000000000000F0010000005752200320140429000101 00000000000000000000000000000000000000000000000000000000000000000000000000000000000000000000000000000000000000000N 00000000000NCONT   00    00000000000          00000000000000000000000000000000000000000000 000000000000000A000000000000000000000000000000000000000000000 000000000000000000000000000000000000000     00000000                                                                                                                        000000000000000000
F0010000005752200004000080202350700023658300000000000000000201404290002001CONNY DE LA COSTA SAS                             C000000000006400000000000000000000100010010000000000000000000000F0010000005752200420140429000101 00000000000000000000000000000000000000000000000000000000000000000000000000000000000000000000000000000000000000000N 00000000000NCONT   00    00000000000          00000000000000000000000000000000000000000000 000000000000000A000000000000000000000000000000000000000000000 000000000000000000000000000000000000000     00000000                                                                                                                        000000000000000000
F0010000005752200005000080202350700013552100000000000000000201404290002001CONNY DE LA COSTA SAS                             D000000000006400000000000000000000100010010000000000000000000000F0010000005752200520140429000101 00000000000000000000000000000000000000000000000000000000000000000000000000000000000000000000000000000000000000000N 00000000000NCONT   00    00000000000          00000000000000000000000000000000000000000000 000000000000000A000000000000000000000000000000000000000000000 000000000000000000000000000000000000000     00000000                                                                                                                        000000000000000000
F0010000005752300001000000870907300011050500000000000000000201404290002001SURTIDOR FERRETERO                                D000000001710000000000000000000000100010010000000000000000000000F0010000005752300120140429000101 00000000000000000000000000000000000000000000000000000000000000000000000000000000000000000000000000000000000000000N 00000000000NCONT   00    00000000000          00000000000000000000000000000000000000000000 000000000000000A000000000000000000000000000000000000000000000 000000000000000000000000000000000000000     00000000                                                                                                                        000000000000000000
F0010000005752300002000000870907300041450500000000000000000201404290002001SURTIDOR FERRETERO                                C000000001510000000000000000000000100010010000000000000000000000F0010000005752300220140429000101 00000000000000000000000000000000000000000000000000000000000000000000000000000000000000000000000000000000000000000N 00000000000NCONT   00    00000000000          00000000000000000000000000000000000000000000 000000000000000A000000000000000000000000000000000000000000000 000000000000000000000000000000000000000     00000000                                                                                                                        000000000000000000
F0010000005752300003000000870907300042505000000000000000000201404290002001SURTIDOR FERRETERO                                C000000000200000000000000000000000100010010000000000000000000000F0010000005752300320140429000101 00000000000000000000000000000000000000000000000000000000000000000000000000000000000000000000000000000000000000000N 00000000000NCONT   00    00000000000          00000000000000000000000000000000000000000000 000000000000000A000000000000000000000000000000000000000000000 000000000000000000000000000000000000000     00000000                                                                                                                        000000000000000000
F0010000005752300004000000870907300023658300000000000000000201404290002001SURTIDOR FERRETERO                                C000000000012100000000000000000000100010010000000000000000000000F0010000005752300420140429000101 00000000000000000000000000000000000000000000000000000000000000000000000000000000000000000000000000000000000000000N 00000000000NCONT   00    00000000000          00000000000000000000000000000000000000000000 000000000000000A000000000000000000000000000000000000000000000 000000000000000000000000000000000000000     00000000                                                                                                                        000000000000000000
F0010000005752300005000000870907300013552100000000000000000201404290002001SURTIDOR FERRETERO                                D000000000012100000000000000000000100010010000000000000000000000F0010000005752300520140429000101 00000000000000000000000000000000000000000000000000000000000000000000000000000000000000000000000000000000000000000N 00000000000NCONT   00    00000000000          00000000000000000000000000000000000000000000 000000000000000A000000000000000000000000000000000000000000000 000000000000000000000000000000000000000     00000000                                                                                                                        000000000000000000
F0010000005752400001000000870907300011050500000000000000000201404290002001SURTIDOR FERRETERO                                D000000002700000000000000000000000100010010000000000000000000000F0010000005752400120140429000101 00000000000000000000000000000000000000000000000000000000000000000000000000000000000000000000000000000000000000000N 00000000000NCONT   00    00000000000          00000000000000000000000000000000000000000000 000000000000000A000000000000000000000000000000000000000000000 000000000000000000000000000000000000000     00000000                                                                                                                        000000000000000000
F0010000005752400002000000870907300041450500000000000000000201404290002001SURTIDOR FERRETERO                                C000000002100000000000000000000000100010010000000000000000000000F0010000005752400220140429000101 00000000000000000000000000000000000000000000000000000000000000000000000000000000000000000000000000000000000000000N 00000000000NCONT   00    00000000000          00000000000000000000000000000000000000000000 000000000000000A000000000000000000000000000000000000000000000 000000000000000000000000000000000000000     00000000                                                                                                                        000000000000000000
F0010000005752400003000000870907300042505000000000000000000201404290002001SURTIDOR FERRETERO                                C000000000600000000000000000000000100010010000000000000000000000F0010000005752400320140429000101 00000000000000000000000000000000000000000000000000000000000000000000000000000000000000000000000000000000000000000N 00000000000NCONT   00    00000000000          00000000000000000000000000000000000000000000 000000000000000A000000000000000000000000000000000000000000000 000000000000000000000000000000000000000     00000000                                                                                                                        000000000000000000
F0010000005752400004000000870907300023658300000000000000000201404290002001SURTIDOR FERRETERO                                C000000000016800000000000000000000100010010000000000000000000000F0010000005752400420140429000101 00000000000000000000000000000000000000000000000000000000000000000000000000000000000000000000000000000000000000000N 00000000000NCONT   00    00000000000          00000000000000000000000000000000000000000000 000000000000000A000000000000000000000000000000000000000000000 000000000000000000000000000000000000000     00000000                                                                                                                        000000000000000000
F0010000005752400005000000870907300013552100000000000000000201404290002001SURTIDOR FERRETERO                                D000000000016800000000000000000000100010010000000000000000000000F0010000005752400520140429000101 00000000000000000000000000000000000000000000000000000000000000000000000000000000000000000000000000000000000000000N 00000000000NCONT   00    00000000000          00000000000000000000000000000000000000000000 000000000000000A000000000000000000000000000000000000000000000 000000000000000000000000000000000000000     00000000                                                                                                                        000000000000000000
F0010000005752500001000004175790100011050500000000000000000201404290002001ROSIRIS FERIA HOYOS  (COSM. SHILLER)              D000000001300000000000000000000000100010010000000000000000000000F0010000005752500120140429000101 00000000000000000000000000000000000000000000000000000000000000000000000000000000000000000000000000000000000000000N 00000000000NCONT   00    00000000000          00000000000000000000000000000000000000000000 000000000000000A000000000000000000000000000000000000000000000 000000000000000000000000000000000000000     00000000                                                                                                                        000000000000000000
F0010000005752500002000004175790100041450500000000000000000201404290002001ROSIRIS FERIA HOYOS  (COSM. SHILLER)              C000000001200000000000000000000000100010010000000000000000000000F0010000005752500220140429000101 00000000000000000000000000000000000000000000000000000000000000000000000000000000000000000000000000000000000000000N 00000000000NCONT   00    00000000000          00000000000000000000000000000000000000000000 000000000000000A000000000000000000000000000000000000000000000 000000000000000000000000000000000000000     00000000                                                                                                                        000000000000000000
F0010000005752500003000004175790100042505000000000000000000201404290002001ROSIRIS FERIA HOYOS  (COSM. SHILLER)              C000000000100000000000000000000000100010010000000000000000000000F0010000005752500320140429000101 00000000000000000000000000000000000000000000000000000000000000000000000000000000000000000000000000000000000000000N 00000000000NCONT   00    00000000000          00000000000000000000000000000000000000000000 000000000000000A000000000000000000000000000000000000000000000 000000000000000000000000000000000000000     00000000                                                                                                                        000000000000000000
F0010000005752500004000004175790100023658300000000000000000201404290002001ROSIRIS FERIA HOYOS  (COSM. SHILLER)              C000000000009600000000000000000000100010010000000000000000000000F0010000005752500420140429000101 00000000000000000000000000000000000000000000000000000000000000000000000000000000000000000000000000000000000000000N 00000000000NCONT   00    00000000000          00000000000000000000000000000000000000000000 000000000000000A000000000000000000000000000000000000000000000 000000000000000000000000000000000000000     00000000                                                                                                                        000000000000000000
F0010000005752500005000004175790100013552100000000000000000201404290002001ROSIRIS FERIA HOYOS  (COSM. SHILLER)              D000000000009600000000000000000000100010010000000000000000000000F0010000005752500520140429000101 00000000000000000000000000000000000000000000000000000000000000000000000000000000000000000000000000000000000000000N 00000000000NCONT   00    00000000000          00000000000000000000000000000000000000000000 000000000000000A000000000000000000000000000000000000000000000 000000000000000000000000000000000000000     00000000                                                                                                                        000000000000000000
F0010000005752600001000007200023300011050500000000000000000201404290002001WILLIAM ORTEGA                                    D000000002700000000000000000000000100010010000000000000000000000F0010000005752600120140429000101 00000000000000000000000000000000000000000000000000000000000000000000000000000000000000000000000000000000000000000N 00000000000NCONT   00    00000000000          00000000000000000000000000000000000000000000 000000000000000A000000000000000000000000000000000000000000000 000000000000000000000000000000000000000     00000000                                                                                                                        000000000000000000
F0010000005752600002000007200023300041450500000000000000000201404290002001WILLIAM ORTEGA                                    C000000002400000000000000000000000100010010000000000000000000000F0010000005752600220140429000101 00000000000000000000000000000000000000000000000000000000000000000000000000000000000000000000000000000000000000000N 00000000000NCONT   00    00000000000          00000000000000000000000000000000000000000000 000000000000000A000000000000000000000000000000000000000000000 000000000000000000000000000000000000000     00000000                                                                                                                        000000000000000000
F0010000005752600003000007200023300042505000000000000000000201404290002001WILLIAM ORTEGA                                    C000000000300000000000000000000000100010010000000000000000000000F0010000005752600320140429000101 00000000000000000000000000000000000000000000000000000000000000000000000000000000000000000000000000000000000000000N 00000000000NCONT   00    00000000000          00000000000000000000000000000000000000000000 000000000000000A000000000000000000000000000000000000000000000 000000000000000000000000000000000000000     00000000                                                                                                                        000000000000000000
F0010000005752600004000007200023300023658300000000000000000201404290002001WILLIAM ORTEGA                                    C000000000019200000000000000000000100010010000000000000000000000F0010000005752600420140429000101 00000000000000000000000000000000000000000000000000000000000000000000000000000000000000000000000000000000000000000N 00000000000NCONT   00    00000000000          00000000000000000000000000000000000000000000 000000000000000A000000000000000000000000000000000000000000000 000000000000000000000000000000000000000     00000000                                                                                                                        000000000000000000
F0010000005752600005000007200023300013552100000000000000000201404290002001WILLIAM ORTEGA                                    D000000000019200000000000000000000100010010000000000000000000000F0010000005752600520140429000101 00000000000000000000000000000000000000000000000000000000000000000000000000000000000000000000000000000000000000000N 00000000000NCONT   00    00000000000          00000000000000000000000000000000000000000000 000000000000000A000000000000000000000000000000000000000000000 000000000000000000000000000000000000000     00000000                                                                                                                        000000000000000000
F0010000005752700001000090034602400011050500000000000000000201404290002001LA CUSTODIA                                       D000000002000000000000000000000000100010010000000000000000000000F0010000005752700120140429000101 00000000000000000000000000000000000000000000000000000000000000000000000000000000000000000000000000000000000000000N 00000000000NCONT   00    00000000000          00000000000000000000000000000000000000000000 000000000000000A000000000000000000000000000000000000000000000 000000000000000000000000000000000000000     00000000                                                                                                                        000000000000000000
F0010000005752700002000090034602400041450500000000000000000201404290002001LA CUSTODIA                                       C000000001800000000000000000000000100010010000000000000000000000F0010000005752700220140429000101 00000000000000000000000000000000000000000000000000000000000000000000000000000000000000000000000000000000000000000N 00000000000NCONT   00    00000000000          00000000000000000000000000000000000000000000 000000000000000A000000000000000000000000000000000000000000000 000000000000000000000000000000000000000     00000000                                                                                                                        000000000000000000
F0010000005752700003000090034602400042505000000000000000000201404290002001LA CUSTODIA                                       C000000000200000000000000000000000100010010000000000000000000000F0010000005752700320140429000101 00000000000000000000000000000000000000000000000000000000000000000000000000000000000000000000000000000000000000000N 00000000000NCONT   00    00000000000          00000000000000000000000000000000000000000000 000000000000000A000000000000000000000000000000000000000000000 000000000000000000000000000000000000000     00000000                                                                                                                        000000000000000000
F0010000005752700004000090034602400023658300000000000000000201404290002001LA CUSTODIA                                       C000000000014400000000000000000000100010010000000000000000000000F0010000005752700420140429000101 00000000000000000000000000000000000000000000000000000000000000000000000000000000000000000000000000000000000000000N 00000000000NCONT   00    00000000000          00000000000000000000000000000000000000000000 000000000000000A000000000000000000000000000000000000000000000 000000000000000000000000000000000000000     00000000                                                                                                                        000000000000000000
F0010000005752700005000090034602400013552100000000000000000201404290002001LA CUSTODIA                                       D000000000014400000000000000000000100010010000000000000000000000F0010000005752700520140429000101 00000000000000000000000000000000000000000000000000000000000000000000000000000000000000000000000000000000000000000N 00000000000NCONT   00    00000000000          00000000000000000000000000000000000000000000 000000000000000A000000000000000000000000000000000000000000000 000000000000000000000000000000000000000     00000000                                                                                                                        000000000000000000
F0010000005752800001000004175790100011050500000000000000000201404290002001ROSIRIS FERIA HOYOS  (COSM. SHILLER)              D000000001200000000000000000000000100010010000000000000000000000F0010000005752800120140429000101 00000000000000000000000000000000000000000000000000000000000000000000000000000000000000000000000000000000000000000N 00000000000NCONT   00    00000000000          00000000000000000000000000000000000000000000 000000000000000A000000000000000000000000000000000000000000000 000000000000000000000000000000000000000     00000000                                                                                                                        000000000000000000
F0010000005752800002000004175790100041450500000000000000000201404290002001ROSIRIS FERIA HOYOS  (COSM. SHILLER)              C000000001100000000000000000000000100010010000000000000000000000F0010000005752800220140429000101 00000000000000000000000000000000000000000000000000000000000000000000000000000000000000000000000000000000000000000N 00000000000NCONT   00    00000000000          00000000000000000000000000000000000000000000 000000000000000A000000000000000000000000000000000000000000000 000000000000000000000000000000000000000     00000000                                                                                                                        000000000000000000
F0010000005752800003000004175790100042505000000000000000000201404290002001ROSIRIS FERIA HOYOS  (COSM. SHILLER)              C000000000100000000000000000000000100010010000000000000000000000F0010000005752800320140429000101 00000000000000000000000000000000000000000000000000000000000000000000000000000000000000000000000000000000000000000N 00000000000NCONT   00    00000000000          00000000000000000000000000000000000000000000 000000000000000A000000000000000000000000000000000000000000000 000000000000000000000000000000000000000     00000000                                                                                                                        000000000000000000
F0010000005752800004000004175790100023658300000000000000000201404290002001ROSIRIS FERIA HOYOS  (COSM. SHILLER)              C000000000008800000000000000000000100010010000000000000000000000F0010000005752800420140429000101 00000000000000000000000000000000000000000000000000000000000000000000000000000000000000000000000000000000000000000N 00000000000NCONT   00    00000000000          00000000000000000000000000000000000000000000 000000000000000A000000000000000000000000000000000000000000000 000000000000000000000000000000000000000     00000000                                                                                                                        000000000000000000
F0010000005752800005000004175790100013552100000000000000000201404290002001ROSIRIS FERIA HOYOS  (COSM. SHILLER)              D000000000008800000000000000000000100010010000000000000000000000F0010000005752800520140429000101 00000000000000000000000000000000000000000000000000000000000000000000000000000000000000000000000000000000000000000N 00000000000NCONT   00    00000000000          00000000000000000000000000000000000000000000 000000000000000A000000000000000000000000000000000000000000000 000000000000000000000000000000000000000     00000000                                                                                                                        000000000000000000
F0010000005752900001000004175790100011050500000000000000000201404290002001ROSIRIS FERIA HOYOS  (COSM. SHILLER)              D000000001300000000000000000000000100010010000000000000000000000F0010000005752900120140429000101 00000000000000000000000000000000000000000000000000000000000000000000000000000000000000000000000000000000000000000N 00000000000NCONT   00    00000000000          00000000000000000000000000000000000000000000 000000000000000A000000000000000000000000000000000000000000000 000000000000000000000000000000000000000     00000000                                                                                                                        000000000000000000
F0010000005752900002000004175790100041450500000000000000000201404290002001ROSIRIS FERIA HOYOS  (COSM. SHILLER)              C000000001200000000000000000000000100010010000000000000000000000F0010000005752900220140429000101 00000000000000000000000000000000000000000000000000000000000000000000000000000000000000000000000000000000000000000N 00000000000NCONT   00    00000000000          00000000000000000000000000000000000000000000 000000000000000A000000000000000000000000000000000000000000000 000000000000000000000000000000000000000     00000000                                                                                                                        000000000000000000
F0010000005752900003000004175790100042505000000000000000000201404290002001ROSIRIS FERIA HOYOS  (COSM. SHILLER)              C000000000100000000000000000000000100010010000000000000000000000F0010000005752900320140429000101 00000000000000000000000000000000000000000000000000000000000000000000000000000000000000000000000000000000000000000N 00000000000NCONT   00    00000000000          00000000000000000000000000000000000000000000 000000000000000A000000000000000000000000000000000000000000000 000000000000000000000000000000000000000     00000000                                                                                                                        000000000000000000
F0010000005752900004000004175790100023658300000000000000000201404290002001ROSIRIS FERIA HOYOS  (COSM. SHILLER)              C000000000009600000000000000000000100010010000000000000000000000F0010000005752900420140429000101 00000000000000000000000000000000000000000000000000000000000000000000000000000000000000000000000000000000000000000N 00000000000NCONT   00    00000000000          00000000000000000000000000000000000000000000 000000000000000A000000000000000000000000000000000000000000000 000000000000000000000000000000000000000     00000000                                                                                                                        000000000000000000
F0010000005752900005000004175790100013552100000000000000000201404290002001ROSIRIS FERIA HOYOS  (COSM. SHILLER)              D000000000009600000000000000000000100010010000000000000000000000F0010000005752900520140429000101 00000000000000000000000000000000000000000000000000000000000000000000000000000000000000000000000000000000000000000N 00000000000NCONT   00    00000000000          00000000000000000000000000000000000000000000 000000000000000A000000000000000000000000000000000000000000000 000000000000000000000000000000000000000     00000000                                                                                                                        000000000000000000
F0010000005753000001000004175790100011050500000000000000000201404290002001ROSIRIS FERIA HOYOS  (COSM. SHILLER)              D000000001200000000000000000000000100010010000000000000000000000F0010000005753000120140429000101 00000000000000000000000000000000000000000000000000000000000000000000000000000000000000000000000000000000000000000N 00000000000NCONT   00    00000000000          00000000000000000000000000000000000000000000 000000000000000A000000000000000000000000000000000000000000000 000000000000000000000000000000000000000     00000000                                                                                                                        000000000000000000
F0010000005753000002000004175790100041450500000000000000000201404290002001ROSIRIS FERIA HOYOS  (COSM. SHILLER)              C000000001100000000000000000000000100010010000000000000000000000F0010000005753000220140429000101 00000000000000000000000000000000000000000000000000000000000000000000000000000000000000000000000000000000000000000N 00000000000NCONT   00    00000000000          00000000000000000000000000000000000000000000 000000000000000A000000000000000000000000000000000000000000000 000000000000000000000000000000000000000     00000000                                                                                                                        000000000000000000
F0010000005753000003000004175790100042505000000000000000000201404290002001ROSIRIS FERIA HOYOS  (COSM. SHILLER)              C000000000100000000000000000000000100010010000000000000000000000F0010000005753000320140429000101 00000000000000000000000000000000000000000000000000000000000000000000000000000000000000000000000000000000000000000N 00000000000NCONT   00    00000000000          00000000000000000000000000000000000000000000 000000000000000A000000000000000000000000000000000000000000000 000000000000000000000000000000000000000     00000000                                                                                                                        000000000000000000
F0010000005753000004000004175790100023658300000000000000000201404290002001ROSIRIS FERIA HOYOS  (COSM. SHILLER)              C000000000008800000000000000000000100010010000000000000000000000F0010000005753000420140429000101 00000000000000000000000000000000000000000000000000000000000000000000000000000000000000000000000000000000000000000N 00000000000NCONT   00    00000000000          00000000000000000000000000000000000000000000 000000000000000A000000000000000000000000000000000000000000000 000000000000000000000000000000000000000     00000000                                                                                                                        000000000000000000
F0010000005753000005000004175790100013552100000000000000000201404290002001ROSIRIS FERIA HOYOS  (COSM. SHILLER)              D000000000008800000000000000000000100010010000000000000000000000F0010000005753000520140429000101 00000000000000000000000000000000000000000000000000000000000000000000000000000000000000000000000000000000000000000N 00000000000NCONT   00    00000000000          00000000000000000000000000000000000000000000 000000000000000A000000000000000000000000000000000000000000000 000000000000000000000000000000000000000     00000000                                                                                                                        000000000000000000
F0010000005753100001000004175790100011050500000000000000000201404290002001ROSIRIS FERIA HOYOS  (COSM. SHILLER)              D000000000800000000000000000000000100010010000000000000000000000F0010000005753100120140429000101 00000000000000000000000000000000000000000000000000000000000000000000000000000000000000000000000000000000000000000N 00000000000NCONT   00    00000000000          00000000000000000000000000000000000000000000 000000000000000A000000000000000000000000000000000000000000000 000000000000000000000000000000000000000     00000000                                                                                                                        000000000000000000
F0010000005753100002000004175790100041450500000000000000000201404290002001ROSIRIS FERIA HOYOS  (COSM. SHILLER)              C000000000700000000000000000000000100010010000000000000000000000F0010000005753100220140429000101 00000000000000000000000000000000000000000000000000000000000000000000000000000000000000000000000000000000000000000N 00000000000NCONT   00    00000000000          00000000000000000000000000000000000000000000 000000000000000A000000000000000000000000000000000000000000000 000000000000000000000000000000000000000     00000000                                                                                                                        000000000000000000
F0010000005753100003000004175790100042505000000000000000000201404290002001ROSIRIS FERIA HOYOS  (COSM. SHILLER)              C000000000100000000000000000000000100010010000000000000000000000F0010000005753100320140429000101 00000000000000000000000000000000000000000000000000000000000000000000000000000000000000000000000000000000000000000N 00000000000NCONT   00    00000000000          00000000000000000000000000000000000000000000 000000000000000A000000000000000000000000000000000000000000000 000000000000000000000000000000000000000     00000000                                                                                                                        000000000000000000
F0010000005753100004000004175790100023658300000000000000000201404290002001ROSIRIS FERIA HOYOS  (COSM. SHILLER)              C000000000005600000000000000000000100010010000000000000000000000F0010000005753100420140429000101 00000000000000000000000000000000000000000000000000000000000000000000000000000000000000000000000000000000000000000N 00000000000NCONT   00    00000000000          00000000000000000000000000000000000000000000 000000000000000A000000000000000000000000000000000000000000000 000000000000000000000000000000000000000     00000000                                                                                                                        000000000000000000
F0010000005753100005000004175790100013552100000000000000000201404290002001ROSIRIS FERIA HOYOS  (COSM. SHILLER)              D000000000005600000000000000000000100010010000000000000000000000F0010000005753100520140429000101 00000000000000000000000000000000000000000000000000000000000000000000000000000000000000000000000000000000000000000N 00000000000NCONT   00    00000000000          00000000000000000000000000000000000000000000 000000000000000A000000000000000000000000000000000000000000000 000000000000000000000000000000000000000     00000000                                                                                                                        000000000000000000
F0010000005753200001000004175790100011050500000000000000000201404290002001ROSIRIS FERIA HOYOS  (COSM. SHILLER)              D000000001300000000000000000000000100010010000000000000000000000F0010000005753200120140429000101 00000000000000000000000000000000000000000000000000000000000000000000000000000000000000000000000000000000000000000N 00000000000NCONT   00    00000000000          00000000000000000000000000000000000000000000 000000000000000A000000000000000000000000000000000000000000000 000000000000000000000000000000000000000     00000000                                                                                                                        000000000000000000
F0010000005753200002000004175790100041450500000000000000000201404290002001ROSIRIS FERIA HOYOS  (COSM. SHILLER)              C000000001200000000000000000000000100010010000000000000000000000F0010000005753200220140429000101 00000000000000000000000000000000000000000000000000000000000000000000000000000000000000000000000000000000000000000N 00000000000NCONT   00    00000000000          00000000000000000000000000000000000000000000 000000000000000A000000000000000000000000000000000000000000000 000000000000000000000000000000000000000     00000000                                                                                                                        000000000000000000
F0010000005753200003000004175790100042505000000000000000000201404290002001ROSIRIS FERIA HOYOS  (COSM. SHILLER)              C000000000100000000000000000000000100010010000000000000000000000F0010000005753200320140429000101 00000000000000000000000000000000000000000000000000000000000000000000000000000000000000000000000000000000000000000N 00000000000NCONT   00    00000000000          00000000000000000000000000000000000000000000 000000000000000A000000000000000000000000000000000000000000000 000000000000000000000000000000000000000     00000000                                                                                                                        000000000000000000
F0010000005753200004000004175790100023658300000000000000000201404290002001ROSIRIS FERIA HOYOS  (COSM. SHILLER)              C000000000009600000000000000000000100010010000000000000000000000F0010000005753200420140429000101 00000000000000000000000000000000000000000000000000000000000000000000000000000000000000000000000000000000000000000N 00000000000NCONT   00    00000000000          00000000000000000000000000000000000000000000 000000000000000A000000000000000000000000000000000000000000000 000000000000000000000000000000000000000     00000000                                                                                                                        000000000000000000
F0010000005753200005000004175790100013552100000000000000000201404290002001ROSIRIS FERIA HOYOS  (COSM. SHILLER)              D000000000009600000000000000000000100010010000000000000000000000F0010000005753200520140429000101 00000000000000000000000000000000000000000000000000000000000000000000000000000000000000000000000000000000000000000N 00000000000NCONT   00    00000000000          00000000000000000000000000000000000000000000 000000000000000A000000000000000000000000000000000000000000000 000000000000000000000000000000000000000     00000000                                                                                                                        000000000000000000
F0010000005753300001000000431178400011050500000000000000000201404290002001EFRAIN ALVAREZ                                    D000000000350000000000000000000000100010010000000000000000000000F0010000005753300120140429000101 00000000000000000000000000000000000000000000000000000000000000000000000000000000000000000000000000000000000000000N 00000000000NCONT   00    00000000000          00000000000000000000000000000000000000000000 000000000000000A000000000000000000000000000000000000000000000 000000000000000000000000000000000000000     00000000                                                                                                                        000000000000000000
F0010000005753300002000000431178400041450500000000000000000201404290002001EFRAIN ALVAREZ                                    C000000000300000000000000000000000100010010000000000000000000000F0010000005753300220140429000101 00000000000000000000000000000000000000000000000000000000000000000000000000000000000000000000000000000000000000000N 00000000000NCONT   00    00000000000          00000000000000000000000000000000000000000000 000000000000000A000000000000000000000000000000000000000000000 000000000000000000000000000000000000000     00000000                                                                                                                        000000000000000000
