F0010000007022500001000004544401900011050500000000000000000201504150002001FISIOTER                                          D000000002300000000000000000000000100010010000000000000000000000F0010000007022500120150415000101 00000000000000000000000000000000000000000000000000000000000000000000000000000000000000000000000000000000000000000N 00000000000NCONT   00    00000000000          00000000000000000000000000000000000000000000 000000000000000A000000000000000000000000000000000000000000000 000000000000000000000000000000000000000     00000000                                                                                                                        000000000000000000
F0010000007022500002000004544401900041450500000000000000000201504150002001FISIOTER                                          C000000001700000000000000000000000100010010000000000000000000000F0010000007022500220150415000101 00000000000000000000000000000000000000000000000000000000000000000000000000000000000000000000000000000000000000000N 00000000000NCONT   00    00000000000          00000000000000000000000000000000000000000000 000000000000000A000000000000000000000000000000000000000000000 000000000000000000000000000000000000000     00000000                                                                                                                        000000000000000000
F0010000007022500003000004544401900042505000000000000000000201504150002001FISIOTER                                          C000000000600000000000000000000000100010010000000000000000000000F0010000007022500320150415000101 00000000000000000000000000000000000000000000000000000000000000000000000000000000000000000000000000000000000000000N 00000000000NCONT   00    00000000000          00000000000000000000000000000000000000000000 000000000000000A000000000000000000000000000000000000000000000 000000000000000000000000000000000000000     00000000                                                                                                                        000000000000000000
F0010000007022500004000004544401900023658300000000000000000201504150002001FISIOTER                                          C000000000013600000000000000000000100010010000000000000000000000F0010000007022500420150415000101 00000000000000000000000000000000000000000000000000000000000000000000000000000000000000000000000000000000000000000N 00000000000NCONT   00    00000000000          00000000000000000000000000000000000000000000 000000000000000A000000000000000000000000000000000000000000000 000000000000000000000000000000000000000     00000000                                                                                                                        000000000000000000
F0010000007022500005000004544401900013552100000000000000000201504150002001FISIOTER                                          D000000000013600000000000000000000100010010000000000000000000000F0010000007022500520150415000101 00000000000000000000000000000000000000000000000000000000000000000000000000000000000000000000000000000000000000000N 00000000000NCONT   00    00000000000          00000000000000000000000000000000000000000000 000000000000000A000000000000000000000000000000000000000000000 000000000000000000000000000000000000000     00000000                                                                                                                        000000000000000000
F0010000007022600001000090035510100013050500000000000000000201504150002001GRAINGER COLOMBIA S.A.S.                          D000000067071800000000000000000000100010010000000000000000000000F0010000007022600120150415000101 00000000000000000000000000000000000000000000000000000000000000000000000000000000000000000000000000000000000000000N 00000000000NCONT   00    00000000000          00000000000000000000000000000000000000000000 000000000000000A000000000000000000000000000000000000000000000 000000000000000000000000000000000000000     00000000                                                                                                                        000000000000000000
F0010000007022600002000090035510100041450500000000000000000201504150002001GRAINGER COLOMBIA S.A.S.                          C000000045808000000000000000000000100010010000000000000000000000F0010000007022600220150415000101 00000000000000000000000000000000000000000000000000000000000000000000000000000000000000000000000000000000000000000N 00000000000NCONT   00    00000000000          00000000000000000000000000000000000000000000 000000000000000A000000000000000000000000000000000000000000000 000000000000000000000000000000000000000     00000000                                                                                                                        000000000000000000
F0010000007022600003000090035510100042505000000000000000000201504150002001GRAINGER COLOMBIA S.A.S.                          C000000021263800000000000000000000100010010000000000000000000000F0010000007022600320150415000101 00000000000000000000000000000000000000000000000000000000000000000000000000000000000000000000000000000000000000000N 00000000000NCONT   00    00000000000          00000000000000000000000000000000000000000000 000000000000000A000000000000000000000000000000000000000000000 000000000000000000000000000000000000000     00000000                                                                                                                        000000000000000000
F0010000007022600004000090035510100023658300000000000000000201504150002001GRAINGER COLOMBIA S.A.S.                          C000000000366500000000000000000000100010010000000000000000000000F0010000007022600420150415000101 00000000000000000000000000000000000000000000000000000000000000000000000000000000000000000000000000000000000000000N 00000000000NCONT   00    00000000000          00000000000000000000000000000000000000000000 000000000000000A000000000000000000000000000000000000000000000 000000000000000000000000000000000000000     00000000                                                                                                                        000000000000000000
F0010000007022600005000090035510100013552100000000000000000201504150002001GRAINGER COLOMBIA S.A.S.                          D000000000366500000000000000000000100010010000000000000000000000F0010000007022600520150415000101 00000000000000000000000000000000000000000000000000000000000000000000000000000000000000000000000000000000000000000N 00000000000NCONT   00    00000000000          00000000000000000000000000000000000000000000 000000000000000A000000000000000000000000000000000000000000000 000000000000000000000000000000000000000     00000000                                                                                                                        000000000000000000
F0010000007022700001000090020547900011050500000000000000000201504150002001DAC DEL CARIBE S.A.S.                             D000000003300000000000000000000000100010010000000000000000000000F0010000007022700120150415000101 00000000000000000000000000000000000000000000000000000000000000000000000000000000000000000000000000000000000000000N 00000000000NCONT   00    00000000000          00000000000000000000000000000000000000000000 000000000000000A000000000000000000000000000000000000000000000 000000000000000000000000000000000000000     00000000                                                                                                                        000000000000000000
F0010000007022700002000090020547900041450500000000000000000201504150002001DAC DEL CARIBE S.A.S.                             C000000002450000000000000000000000100010010000000000000000000000F0010000007022700220150415000101 00000000000000000000000000000000000000000000000000000000000000000000000000000000000000000000000000000000000000000N 00000000000NCONT   00    00000000000          00000000000000000000000000000000000000000000 000000000000000A000000000000000000000000000000000000000000000 000000000000000000000000000000000000000     00000000                                                                                                                        000000000000000000
F0010000007022700003000090020547900042505000000000000000000201504150002001DAC DEL CARIBE S.A.S.                             C000000000850000000000000000000000100010010000000000000000000000F0010000007022700320150415000101 00000000000000000000000000000000000000000000000000000000000000000000000000000000000000000000000000000000000000000N 00000000000NCONT   00    00000000000          00000000000000000000000000000000000000000000 000000000000000A000000000000000000000000000000000000000000000 000000000000000000000000000000000000000     00000000                                                                                                                        000000000000000000
F0010000007022700004000090020547900023658300000000000000000201504150002001DAC DEL CARIBE S.A.S.                             C000000000019600000000000000000000100010010000000000000000000000F0010000007022700420150415000101 00000000000000000000000000000000000000000000000000000000000000000000000000000000000000000000000000000000000000000N 00000000000NCONT   00    00000000000          00000000000000000000000000000000000000000000 000000000000000A000000000000000000000000000000000000000000000 000000000000000000000000000000000000000     00000000                                                                                                                        000000000000000000
F0010000007022700005000090020547900013552100000000000000000201504150002001DAC DEL CARIBE S.A.S.                             D000000000019600000000000000000000100010010000000000000000000000F0010000007022700520150415000101 00000000000000000000000000000000000000000000000000000000000000000000000000000000000000000000000000000000000000000N 00000000000NCONT   00    00000000000          00000000000000000000000000000000000000000000 000000000000000A000000000000000000000000000000000000000000000 000000000000000000000000000000000000000     00000000                                                                                                                        000000000000000000
F0010000007022800001000090020547900011050500000000000000000201504150002001DAC DEL CARIBE S.A.S.                             D000000004800000000000000000000000100010010000000000000000000000F0010000007022800120150415000101 00000000000000000000000000000000000000000000000000000000000000000000000000000000000000000000000000000000000000000N 00000000000NCONT   00    00000000000          00000000000000000000000000000000000000000000 000000000000000A000000000000000000000000000000000000000000000 000000000000000000000000000000000000000     00000000                                                                                                                        000000000000000000
F0010000007022800002000090020547900041450500000000000000000201504150002001DAC DEL CARIBE S.A.S.                             C000000003600000000000000000000000100010010000000000000000000000F0010000007022800220150415000101 00000000000000000000000000000000000000000000000000000000000000000000000000000000000000000000000000000000000000000N 00000000000NCONT   00    00000000000          00000000000000000000000000000000000000000000 000000000000000A000000000000000000000000000000000000000000000 000000000000000000000000000000000000000     00000000                                                                                                                        000000000000000000
F0010000007022800003000090020547900042505000000000000000000201504150002001DAC DEL CARIBE S.A.S.                             C000000001200000000000000000000000100010010000000000000000000000F0010000007022800320150415000101 00000000000000000000000000000000000000000000000000000000000000000000000000000000000000000000000000000000000000000N 00000000000NCONT   00    00000000000          00000000000000000000000000000000000000000000 000000000000000A000000000000000000000000000000000000000000000 000000000000000000000000000000000000000     00000000                                                                                                                        000000000000000000
F0010000007022800004000090020547900023658300000000000000000201504150002001DAC DEL CARIBE S.A.S.                             C000000000028800000000000000000000100010010000000000000000000000F0010000007022800420150415000101 00000000000000000000000000000000000000000000000000000000000000000000000000000000000000000000000000000000000000000N 00000000000NCONT   00    00000000000          00000000000000000000000000000000000000000000 000000000000000A000000000000000000000000000000000000000000000 000000000000000000000000000000000000000     00000000                                                                                                                        000000000000000000
F0010000007022800005000090020547900013552100000000000000000201504150002001DAC DEL CARIBE S.A.S.                             D000000000028800000000000000000000100010010000000000000000000000F0010000007022800520150415000101 00000000000000000000000000000000000000000000000000000000000000000000000000000000000000000000000000000000000000000N 00000000000NCONT   00    00000000000          00000000000000000000000000000000000000000000 000000000000000A000000000000000000000000000000000000000000000 000000000000000000000000000000000000000     00000000                                                                                                                        000000000000000000
F0010000007022900001000080202486100011050500000000000000000201504150002001DISTRIBUIDORA RAMBAL LTDA                         D000000002700000000000000000000000100010010000000000000000000000F0010000007022900120150415000101 00000000000000000000000000000000000000000000000000000000000000000000000000000000000000000000000000000000000000000N 00000000000NCONT   00    00000000000          00000000000000000000000000000000000000000000 000000000000000A000000000000000000000000000000000000000000000 000000000000000000000000000000000000000     00000000                                                                                                                        000000000000000000
F0010000007022900002000080202486100041450500000000000000000201504150002001DISTRIBUIDORA RAMBAL LTDA                         C000000002600000000000000000000000100010010000000000000000000000F0010000007022900220150415000101 00000000000000000000000000000000000000000000000000000000000000000000000000000000000000000000000000000000000000000N 00000000000NCONT   00    00000000000          00000000000000000000000000000000000000000000 000000000000000A000000000000000000000000000000000000000000000 000000000000000000000000000000000000000     00000000                                                                                                                        000000000000000000
F0010000007022900003000080202486100042505000000000000000000201504150002001DISTRIBUIDORA RAMBAL LTDA                         C000000000100000000000000000000000100010010000000000000000000000F0010000007022900320150415000101 00000000000000000000000000000000000000000000000000000000000000000000000000000000000000000000000000000000000000000N 00000000000NCONT   00    00000000000          00000000000000000000000000000000000000000000 000000000000000A000000000000000000000000000000000000000000000 000000000000000000000000000000000000000     00000000                                                                                                                        000000000000000000
F0010000007022900004000080202486100023658300000000000000000201504150002001DISTRIBUIDORA RAMBAL LTDA                         C000000000020800000000000000000000100010010000000000000000000000F0010000007022900420150415000101 00000000000000000000000000000000000000000000000000000000000000000000000000000000000000000000000000000000000000000N 00000000000NCONT   00    00000000000          00000000000000000000000000000000000000000000 000000000000000A000000000000000000000000000000000000000000000 000000000000000000000000000000000000000     00000000                                                                                                                        000000000000000000
F0010000007022900005000080202486100013552100000000000000000201504150002001DISTRIBUIDORA RAMBAL LTDA                         D000000000020800000000000000000000100010010000000000000000000000F0010000007022900520150415000101 00000000000000000000000000000000000000000000000000000000000000000000000000000000000000000000000000000000000000000N 00000000000NCONT   00    00000000000          00000000000000000000000000000000000000000000 000000000000000A000000000000000000000000000000000000000000000 000000000000000000000000000000000000000     00000000                                                                                                                        000000000000000000
F0010000007023000001000090027500500011050500000000000000000201504150002001MULTIALUMINIOS LA 30 S.A.S                        D000000030000000000000000000000000100010010000000000000000000000F0010000007023000120150415000101 00000000000000000000000000000000000000000000000000000000000000000000000000000000000000000000000000000000000000000N 00000000000NCONT   00    00000000000          00000000000000000000000000000000000000000000 000000000000000A000000000000000000000000000000000000000000000 000000000000000000000000000000000000000     00000000                                                                                                                        000000000000000000
F0010000007023000002000090027500500041450500000000000000000201504150002001MULTIALUMINIOS LA 30 S.A.S                        C000000022400000000000000000000000100010010000000000000000000000F0010000007023000220150415000101 00000000000000000000000000000000000000000000000000000000000000000000000000000000000000000000000000000000000000000N 00000000000NCONT   00    00000000000          00000000000000000000000000000000000000000000 000000000000000A000000000000000000000000000000000000000000000 000000000000000000000000000000000000000     00000000                                                                                                                        000000000000000000
F0010000007023000003000090027500500042505000000000000000000201504150002001MULTIALUMINIOS LA 30 S.A.S                        C000000007600000000000000000000000100010010000000000000000000000F0010000007023000320150415000101 00000000000000000000000000000000000000000000000000000000000000000000000000000000000000000000000000000000000000000N 00000000000NCONT   00    00000000000          00000000000000000000000000000000000000000000 000000000000000A000000000000000000000000000000000000000000000 000000000000000000000000000000000000000     00000000                                                                                                                        000000000000000000
F0010000007023000004000090027500500023658300000000000000000201504150002001MULTIALUMINIOS LA 30 S.A.S                        C000000000179200000000000000000000100010010000000000000000000000F0010000007023000420150415000101 00000000000000000000000000000000000000000000000000000000000000000000000000000000000000000000000000000000000000000N 00000000000NCONT   00    00000000000          00000000000000000000000000000000000000000000 000000000000000A000000000000000000000000000000000000000000000 000000000000000000000000000000000000000     00000000                                                                                                                        000000000000000000
F0010000007023000005000090027500500013552100000000000000000201504150002001MULTIALUMINIOS LA 30 S.A.S                        D000000000179200000000000000000000100010010000000000000000000000F0010000007023000520150415000101 00000000000000000000000000000000000000000000000000000000000000000000000000000000000000000000000000000000000000000N 00000000000NCONT   00    00000000000          00000000000000000000000000000000000000000000 000000000000000A000000000000000000000000000000000000000000000 000000000000000000000000000000000000000     00000000                                                                                                                        000000000000000000
F0010000007023100001000004544401900011050500000000000000000201504150002001FISIOTER                                          D000000003500000000000000000000000100010010000000000000000000000F0010000007023100120150415000101 00000000000000000000000000000000000000000000000000000000000000000000000000000000000000000000000000000000000000000N 00000000000NCONT   00    00000000000          00000000000000000000000000000000000000000000 000000000000000A000000000000000000000000000000000000000000000 000000000000000000000000000000000000000     00000000                                                                                                                        000000000000000000
F0010000007023100002000004544401900041450500000000000000000201504150002001FISIOTER                                          C000000003200000000000000000000000100010010000000000000000000000F0010000007023100220150415000101 00000000000000000000000000000000000000000000000000000000000000000000000000000000000000000000000000000000000000000N 00000000000NCONT   00    00000000000          00000000000000000000000000000000000000000000 000000000000000A000000000000000000000000000000000000000000000 000000000000000000000000000000000000000     00000000                                                                                                                        000000000000000000
F0010000007023100003000004544401900042505000000000000000000201504150002001FISIOTER                                          C000000000300000000000000000000000100010010000000000000000000000F0010000007023100320150415000101 00000000000000000000000000000000000000000000000000000000000000000000000000000000000000000000000000000000000000000N 00000000000NCONT   00    00000000000          00000000000000000000000000000000000000000000 000000000000000A000000000000000000000000000000000000000000000 000000000000000000000000000000000000000     00000000                                                                                                                        000000000000000000
F0010000007023100004000004544401900023658300000000000000000201504150002001FISIOTER                                          C000000000025600000000000000000000100010010000000000000000000000F0010000007023100420150415000101 00000000000000000000000000000000000000000000000000000000000000000000000000000000000000000000000000000000000000000N 00000000000NCONT   00    00000000000          00000000000000000000000000000000000000000000 000000000000000A000000000000000000000000000000000000000000000 000000000000000000000000000000000000000     00000000                                                                                                                        000000000000000000
F0010000007023100005000004544401900013552100000000000000000201504150002001FISIOTER                                          D000000000025600000000000000000000100010010000000000000000000000F0010000007023100520150415000101 00000000000000000000000000000000000000000000000000000000000000000000000000000000000000000000000000000000000000000N 00000000000NCONT   00    00000000000          00000000000000000000000000000000000000000000 000000000000000A000000000000000000000000000000000000000000000 000000000000000000000000000000000000000     00000000                                                                                                                        000000000000000000
F0010000007023200001000000870907300011050500000000000000000201504150002001SURTIDOR FERRETERO                                D000000014300000000000000000000000100010010000000000000000000000F0010000007023200120150415000101 00000000000000000000000000000000000000000000000000000000000000000000000000000000000000000000000000000000000000000N 00000000000NCONT   00    00000000000          00000000000000000000000000000000000000000000 000000000000000A000000000000000000000000000000000000000000000 000000000000000000000000000000000000000     00000000                                                                                                                        000000000000000000
F0010000007023200002000000870907300041450500000000000000000201504150002001SURTIDOR FERRETERO                                C000000008800000000000000000000000100010010000000000000000000000F0010000007023200220150415000101 00000000000000000000000000000000000000000000000000000000000000000000000000000000000000000000000000000000000000000N 00000000000NCONT   00    00000000000          00000000000000000000000000000000000000000000 000000000000000A000000000000000000000000000000000000000000000 000000000000000000000000000000000000000     00000000                                                                                                                        000000000000000000
F0010000007023200003000000870907300042505000000000000000000201504150002001SURTIDOR FERRETERO                                C000000005500000000000000000000000100010010000000000000000000000F0010000007023200320150415000101 00000000000000000000000000000000000000000000000000000000000000000000000000000000000000000000000000000000000000000N 00000000000NCONT   00    00000000000          00000000000000000000000000000000000000000000 000000000000000A000000000000000000000000000000000000000000000 000000000000000000000000000000000000000     00000000                                                                                                                        000000000000000000
F0010000007023200004000000870907300023658300000000000000000201504150002001SURTIDOR FERRETERO                                C000000000070400000000000000000000100010010000000000000000000000F0010000007023200420150415000101 00000000000000000000000000000000000000000000000000000000000000000000000000000000000000000000000000000000000000000N 00000000000NCONT   00    00000000000          00000000000000000000000000000000000000000000 000000000000000A000000000000000000000000000000000000000000000 000000000000000000000000000000000000000     00000000                                                                                                                        000000000000000000
F0010000007023200005000000870907300013552100000000000000000201504150002001SURTIDOR FERRETERO                                D000000000070400000000000000000000100010010000000000000000000000F0010000007023200520150415000101 00000000000000000000000000000000000000000000000000000000000000000000000000000000000000000000000000000000000000000N 00000000000NCONT   00    00000000000          00000000000000000000000000000000000000000000 000000000000000A000000000000000000000000000000000000000000000 000000000000000000000000000000000000000     00000000                                                                                                                        000000000000000000
F0010000007023300001000003319910700011050500000000000000000201504150002001LUZ DARY JIMENEZ MARTINEZ                         D000000001100000000000000000000000100010010000000000000000000000F0010000007023300120150415000101 00000000000000000000000000000000000000000000000000000000000000000000000000000000000000000000000000000000000000000N 00000000000NCONT   00    00000000000          00000000000000000000000000000000000000000000 000000000000000A000000000000000000000000000000000000000000000 000000000000000000000000000000000000000     00000000                                                                                                                        000000000000000000
F0010000007023300002000003319910700041450500000000000000000201504150002001LUZ DARY JIMENEZ MARTINEZ                         C000000001000000000000000000000000100010010000000000000000000000F0010000007023300220150415000101 00000000000000000000000000000000000000000000000000000000000000000000000000000000000000000000000000000000000000000N 00000000000NCONT   00    00000000000          00000000000000000000000000000000000000000000 000000000000000A000000000000000000000000000000000000000000000 000000000000000000000000000000000000000     00000000                                                                                                                        000000000000000000
F0010000007023300003000003319910700042505000000000000000000201504150002001LUZ DARY JIMENEZ MARTINEZ                         C000000000100000000000000000000000100010010000000000000000000000F0010000007023300320150415000101 00000000000000000000000000000000000000000000000000000000000000000000000000000000000000000000000000000000000000000N 00000000000NCONT   00    00000000000          00000000000000000000000000000000000000000000 000000000000000A000000000000000000000000000000000000000000000 000000000000000000000000000000000000000     00000000                                                                                                                        000000000000000000
F0010000007023300004000003319910700023658300000000000000000201504150002001LUZ DARY JIMENEZ MARTINEZ                         C000000000008000000000000000000000100010010000000000000000000000F0010000007023300420150415000101 00000000000000000000000000000000000000000000000000000000000000000000000000000000000000000000000000000000000000000N 00000000000NCONT   00    00000000000          00000000000000000000000000000000000000000000 000000000000000A000000000000000000000000000000000000000000000 000000000000000000000000000000000000000     00000000                                                                                                                        000000000000000000
F0010000007023300005000003319910700013552100000000000000000201504150002001LUZ DARY JIMENEZ MARTINEZ                         D000000000008000000000000000000000100010010000000000000000000000F0010000007023300520150415000101 00000000000000000000000000000000000000000000000000000000000000000000000000000000000000000000000000000000000000000N 00000000000NCONT   00    00000000000          00000000000000000000000000000000000000000000 000000000000000A000000000000000000000000000000000000000000000 000000000000000000000000000000000000000     00000000                                                                                                                        000000000000000000
F0010000007023400001000000870907300011050500000000000000000201504150002001SURTIDOR FERRETERO                                D000000002400000000000000000000000100010010000000000000000000000F0010000007023400120150415000101 00000000000000000000000000000000000000000000000000000000000000000000000000000000000000000000000000000000000000000N 00000000000NCONT   00    00000000000          00000000000000000000000000000000000000000000 000000000000000A000000000000000000000000000000000000000000000 000000000000000000000000000000000000000     00000000                                                                                                                        000000000000000000
F0010000007023400002000000870907300041450500000000000000000201504150002001SURTIDOR FERRETERO                                C000000001600000000000000000000000100010010000000000000000000000F0010000007023400220150415000101 00000000000000000000000000000000000000000000000000000000000000000000000000000000000000000000000000000000000000000N 00000000000NCONT   00    00000000000          00000000000000000000000000000000000000000000 000000000000000A000000000000000000000000000000000000000000000 000000000000000000000000000000000000000     00000000                                                                                                                        000000000000000000
F0010000007023400003000000870907300042505000000000000000000201504150002001SURTIDOR FERRETERO                                C000000000800000000000000000000000100010010000000000000000000000F0010000007023400320150415000101 00000000000000000000000000000000000000000000000000000000000000000000000000000000000000000000000000000000000000000N 00000000000NCONT   00    00000000000          00000000000000000000000000000000000000000000 000000000000000A000000000000000000000000000000000000000000000 000000000000000000000000000000000000000     00000000                                                                                                                        000000000000000000
F0010000007023400004000000870907300023658300000000000000000201504150002001SURTIDOR FERRETERO                                C000000000012800000000000000000000100010010000000000000000000000F0010000007023400420150415000101 00000000000000000000000000000000000000000000000000000000000000000000000000000000000000000000000000000000000000000N 00000000000NCONT   00    00000000000          00000000000000000000000000000000000000000000 000000000000000A000000000000000000000000000000000000000000000 000000000000000000000000000000000000000     00000000                                                                                                                        000000000000000000
F0010000007023400005000000870907300013552100000000000000000201504150002001SURTIDOR FERRETERO                                D000000000012800000000000000000000100010010000000000000000000000F0010000007023400520150415000101 00000000000000000000000000000000000000000000000000000000000000000000000000000000000000000000000000000000000000000N 00000000000NCONT   00    00000000000          00000000000000000000000000000000000000000000 000000000000000A000000000000000000000000000000000000000000000 000000000000000000000000000000000000000     00000000                                                                                                                        000000000000000000
F0010000007023500001000089011069100011050500000000000000000201504150002001LA CASA DE LAS ALFOMBRAS LTDA                     D000000001200000000000000000000000100010010000000000000000000000F0010000007023500120150415000101 00000000000000000000000000000000000000000000000000000000000000000000000000000000000000000000000000000000000000000N 00000000000NCONT   00    00000000000          00000000000000000000000000000000000000000000 000000000000000A000000000000000000000000000000000000000000000 000000000000000000000000000000000000000     00000000                                                                                                                        000000000000000000
F0010000007023500002000089011069100041450500000000000000000201504150002001LA CASA DE LAS ALFOMBRAS LTDA                     C000000001000000000000000000000000100010010000000000000000000000F0010000007023500220150415000101 00000000000000000000000000000000000000000000000000000000000000000000000000000000000000000000000000000000000000000N 00000000000NCONT   00    00000000000          00000000000000000000000000000000000000000000 000000000000000A000000000000000000000000000000000000000000000 000000000000000000000000000000000000000     00000000                                                                                                                        000000000000000000
F0010000007023500003000089011069100042505000000000000000000201504150002001LA CASA DE LAS ALFOMBRAS LTDA                     C000000000200000000000000000000000100010010000000000000000000000F0010000007023500320150415000101 00000000000000000000000000000000000000000000000000000000000000000000000000000000000000000000000000000000000000000N 00000000000NCONT   00    00000000000          00000000000000000000000000000000000000000000 000000000000000A000000000000000000000000000000000000000000000 000000000000000000000000000000000000000     00000000                                                                                                                        000000000000000000
F0010000007023500004000089011069100023658300000000000000000201504150002001LA CASA DE LAS ALFOMBRAS LTDA                     C000000000008000000000000000000000100010010000000000000000000000F0010000007023500420150415000101 00000000000000000000000000000000000000000000000000000000000000000000000000000000000000000000000000000000000000000N 00000000000NCONT   00    00000000000          00000000000000000000000000000000000000000000 000000000000000A000000000000000000000000000000000000000000000 000000000000000000000000000000000000000     00000000                                                                                                                        000000000000000000
F0010000007023500005000089011069100013552100000000000000000201504150002001LA CASA DE LAS ALFOMBRAS LTDA                     D000000000008000000000000000000000100010010000000000000000000000F0010000007023500520150415000101 00000000000000000000000000000000000000000000000000000000000000000000000000000000000000000000000000000000000000000N 00000000000NCONT   00    00000000000          00000000000000000000000000000000000000000000 000000000000000A000000000000000000000000000000000000000000000 000000000000000000000000000000000000000     00000000                                                                                                                        000000000000000000
F0010000007023600001000001022529300011050500000000000000000201504150002001ALBERTO ALVAREZ ISAZA                             D000000000550000000000000000000000100010010000000000000000000000F0010000007023600120150415000101 00000000000000000000000000000000000000000000000000000000000000000000000000000000000000000000000000000000000000000N 00000000000NCONT   00    00000000000          00000000000000000000000000000000000000000000 000000000000000A000000000000000000000000000000000000000000000 000000000000000000000000000000000000000     00000000                                                                                                                        000000000000000000
F0010000007023600002000001022529300041450500000000000000000201504150002001ALBERTO ALVAREZ ISAZA                             C000000000500000000000000000000000100010010000000000000000000000F0010000007023600220150415000101 00000000000000000000000000000000000000000000000000000000000000000000000000000000000000000000000000000000000000000N 00000000000NCONT   00    00000000000          00000000000000000000000000000000000000000000 000000000000000A000000000000000000000000000000000000000000000 000000000000000000000000000000000000000     00000000                                                                                                                        000000000000000000
F0010000007023600003000001022529300042505000000000000000000201504150002001ALBERTO ALVAREZ ISAZA                             C000000000050000000000000000000000100010010000000000000000000000F0010000007023600320150415000101 00000000000000000000000000000000000000000000000000000000000000000000000000000000000000000000000000000000000000000N 00000000000NCONT   00    00000000000          00000000000000000000000000000000000000000000 000000000000000A000000000000000000000000000000000000000000000 000000000000000000000000000000000000000     00000000                                                                                                                        000000000000000000
F0010000007023600004000001022529300023658300000000000000000201504150002001ALBERTO ALVAREZ ISAZA                             C000000000004000000000000000000000100010010000000000000000000000F0010000007023600420150415000101 00000000000000000000000000000000000000000000000000000000000000000000000000000000000000000000000000000000000000000N 00000000000NCONT   00    00000000000          00000000000000000000000000000000000000000000 000000000000000A000000000000000000000000000000000000000000000 000000000000000000000000000000000000000     00000000                                                                                                                        000000000000000000
F0010000007023600005000001022529300013552100000000000000000201504150002001ALBERTO ALVAREZ ISAZA                             D000000000004000000000000000000000100010010000000000000000000000F0010000007023600520150415000101 00000000000000000000000000000000000000000000000000000000000000000000000000000000000000000000000000000000000000000N 00000000000NCONT   00    00000000000          00000000000000000000000000000000000000000000 000000000000000A000000000000000000000000000000000000000000000 000000000000000000000000000000000000000     00000000                                                                                                                        000000000000000000
F0010000007023700001000001022529300011050500000000000000000201504150002001ALBERTO ALVAREZ ISAZA                             D000000003780000000000000000000000100010010000000000000000000000F0010000007023700120150415000101 00000000000000000000000000000000000000000000000000000000000000000000000000000000000000000000000000000000000000000N 00000000000NCONT   00    00000000000          00000000000000000000000000000000000000000000 000000000000000A000000000000000000000000000000000000000000000 000000000000000000000000000000000000000     00000000                                                                                                                        000000000000000000
F0010000007023700002000001022529300041450500000000000000000201504150002001ALBERTO ALVAREZ ISAZA                             C000000003680000000000000000000000100010010000000000000000000000F0010000007023700220150415000101 00000000000000000000000000000000000000000000000000000000000000000000000000000000000000000000000000000000000000000N 00000000000NCONT   00    00000000000          00000000000000000000000000000000000000000000 000000000000000A000000000000000000000000000000000000000000000 000000000000000000000000000000000000000     00000000                                                                                                                        000000000000000000
F0010000007023700003000001022529300042505000000000000000000201504150002001ALBERTO ALVAREZ ISAZA                             C000000000100000000000000000000000100010010000000000000000000000F0010000007023700320150415000101 00000000000000000000000000000000000000000000000000000000000000000000000000000000000000000000000000000000000000000N 00000000000NCONT   00    00000000000          00000000000000000000000000000000000000000000 000000000000000A000000000000000000000000000000000000000000000 000000000000000000000000000000000000000     00000000                                                                                                                        000000000000000000
F0010000007023700004000001022529300023658300000000000000000201504150002001ALBERTO ALVAREZ ISAZA                             C000000000029400000000000000000000100010010000000000000000000000F0010000007023700420150415000101 00000000000000000000000000000000000000000000000000000000000000000000000000000000000000000000000000000000000000000N 00000000000NCONT   00    00000000000          00000000000000000000000000000000000000000000 000000000000000A000000000000000000000000000000000000000000000 000000000000000000000000000000000000000     00000000                                                                                                                        000000000000000000
F0010000007023700005000001022529300013552100000000000000000201504150002001ALBERTO ALVAREZ ISAZA                             D000000000029400000000000000000000100010010000000000000000000000F0010000007023700520150415000101 00000000000000000000000000000000000000000000000000000000000000000000000000000000000000000000000000000000000000000N 00000000000NCONT   00    00000000000          00000000000000000000000000000000000000000000 000000000000000A000000000000000000000000000000000000000000000 000000000000000000000000000000000000000     00000000                                                                                                                        000000000000000000
F0010000007023800001000001022529300011050500000000000000000201504150002001ALBERTO ALVAREZ ISAZA                             D000000003720000000000000000000000100010010000000000000000000000F0010000007023800120150415000101 00000000000000000000000000000000000000000000000000000000000000000000000000000000000000000000000000000000000000000N 00000000000NCONT   00    00000000000          00000000000000000000000000000000000000000000 000000000000000A000000000000000000000000000000000000000000000 000000000000000000000000000000000000000     00000000                                                                                                                        000000000000000000
F0010000007023800002000001022529300041450500000000000000000201504150002001ALBERTO ALVAREZ ISAZA                             C000000003570000000000000000000000100010010000000000000000000000F0010000007023800220150415000101 00000000000000000000000000000000000000000000000000000000000000000000000000000000000000000000000000000000000000000N 00000000000NCONT   00    00000000000          00000000000000000000000000000000000000000000 000000000000000A000000000000000000000000000000000000000000000 000000000000000000000000000000000000000     00000000                                                                                                                        000000000000000000
F0010000007023800003000001022529300042505000000000000000000201504150002001ALBERTO ALVAREZ ISAZA                             C000000000150000000000000000000000100010010000000000000000000000F0010000007023800320150415000101 00000000000000000000000000000000000000000000000000000000000000000000000000000000000000000000000000000000000000000N 00000000000NCONT   00    00000000000          00000000000000000000000000000000000000000000 000000000000000A000000000000000000000000000000000000000000000 000000000000000000000000000000000000000     00000000                                                                                                                        000000000000000000
F0010000007023800004000001022529300023658300000000000000000201504150002001ALBERTO ALVAREZ ISAZA                             C000000000028600000000000000000000100010010000000000000000000000F0010000007023800420150415000101 00000000000000000000000000000000000000000000000000000000000000000000000000000000000000000000000000000000000000000N 00000000000NCONT   00    00000000000          00000000000000000000000000000000000000000000 000000000000000A000000000000000000000000000000000000000000000 000000000000000000000000000000000000000     00000000                                                                                                                        000000000000000000
F0010000007023800005000001022529300013552100000000000000000201504150002001ALBERTO ALVAREZ ISAZA                             D000000000028600000000000000000000100010010000000000000000000000F0010000007023800520150415000101 00000000000000000000000000000000000000000000000000000000000000000000000000000000000000000000000000000000000000000N 00000000000NCONT   00    00000000000          00000000000000000000000000000000000000000000 000000000000000A000000000000000000000000000000000000000000000 000000000000000000000000000000000000000     00000000                                                                                                                        000000000000000000
F0010000007023900001000001022529300011050500000000000000000201504150002001ALBERTO ALVAREZ ISAZA                             D000000001390000000000000000000000100010010000000000000000000000F0010000007023900120150415000101 00000000000000000000000000000000000000000000000000000000000000000000000000000000000000000000000000000000000000000N 00000000000NCONT   00    00000000000          00000000000000000000000000000000000000000000 000000000000000A000000000000000000000000000000000000000000000 000000000000000000000000000000000000000     00000000                                                                                                                        000000000000000000
F0010000007023900002000001022529300041450500000000000000000201504150002001ALBERTO ALVAREZ ISAZA                             C000000001190000000000000000000000100010010000000000000000000000F0010000007023900220150415000101 00000000000000000000000000000000000000000000000000000000000000000000000000000000000000000000000000000000000000000N 00000000000NCONT   00    00000000000          00000000000000000000000000000000000000000000 000000000000000A000000000000000000000000000000000000000000000 000000000000000000000000000000000000000     00000000                                                                                                                        000000000000000000
F0010000007023900003000001022529300042505000000000000000000201504150002001ALBERTO ALVAREZ ISAZA                             C000000000200000000000000000000000100010010000000000000000000000F0010000007023900320150415000101 00000000000000000000000000000000000000000000000000000000000000000000000000000000000000000000000000000000000000000N 00000000000NCONT   00    00000000000          00000000000000000000000000000000000000000000 000000000000000A000000000000000000000000000000000000000000000 000000000000000000000000000000000000000     00000000                                                                                                                        000000000000000000
F0010000007023900004000001022529300023658300000000000000000201504150002001ALBERTO ALVAREZ ISAZA                             C000000000009500000000000000000000100010010000000000000000000000F0010000007023900420150415000101 00000000000000000000000000000000000000000000000000000000000000000000000000000000000000000000000000000000000000000N 00000000000NCONT   00    00000000000          00000000000000000000000000000000000000000000 000000000000000A000000000000000000000000000000000000000000000 000000000000000000000000000000000000000     00000000                                                                                                                        000000000000000000
F0010000007023900005000001022529300013552100000000000000000201504150002001ALBERTO ALVAREZ ISAZA                             D000000000009500000000000000000000100010010000000000000000000000F0010000007023900520150415000101 00000000000000000000000000000000000000000000000000000000000000000000000000000000000000000000000000000000000000000N 00000000000NCONT   00    00000000000          00000000000000000000000000000000000000000000 000000000000000A000000000000000000000000000000000000000000000 000000000000000000000000000000000000000     00000000                                                                                                                        000000000000000000
F0010000007024000001000001022529300011050500000000000000000201504150002001ALBERTO ALVAREZ ISAZA                             D000000001290000000000000000000000100010010000000000000000000000F0010000007024000120150415000101 00000000000000000000000000000000000000000000000000000000000000000000000000000000000000000000000000000000000000000N 00000000000NCONT   00    00000000000          00000000000000000000000000000000000000000000 000000000000000A000000000000000000000000000000000000000000000 000000000000000000000000000000000000000     00000000                                                                                                                        000000000000000000
F0010000007024000002000001022529300041450500000000000000000201504150002001ALBERTO ALVAREZ ISAZA                             C000000001190000000000000000000000100010010000000000000000000000F0010000007024000220150415000101 00000000000000000000000000000000000000000000000000000000000000000000000000000000000000000000000000000000000000000N 00000000000NCONT   00    00000000000          00000000000000000000000000000000000000000000 000000000000000A000000000000000000000000000000000000000000000 000000000000000000000000000000000000000     00000000                                                                                                                        000000000000000000
F0010000007024000003000001022529300042505000000000000000000201504150002001ALBERTO ALVAREZ ISAZA                             C000000000100000000000000000000000100010010000000000000000000000F0010000007024000320150415000101 00000000000000000000000000000000000000000000000000000000000000000000000000000000000000000000000000000000000000000N 00000000000NCONT   00    00000000000          00000000000000000000000000000000000000000000 000000000000000A000000000000000000000000000000000000000000000 000000000000000000000000000000000000000     00000000                                                                                                                        000000000000000000
F0010000007024000004000001022529300023658300000000000000000201504150002001ALBERTO ALVAREZ ISAZA                             C000000000009500000000000000000000100010010000000000000000000000F0010000007024000420150415000101 00000000000000000000000000000000000000000000000000000000000000000000000000000000000000000000000000000000000000000N 00000000000NCONT   00    00000000000          00000000000000000000000000000000000000000000 000000000000000A000000000000000000000000000000000000000000000 000000000000000000000000000000000000000     00000000                                                                                                                        000000000000000000
F0010000007024000005000001022529300013552100000000000000000201504150002001ALBERTO ALVAREZ ISAZA                             D000000000009500000000000000000000100010010000000000000000000000F0010000007024000520150415000101 00000000000000000000000000000000000000000000000000000000000000000000000000000000000000000000000000000000000000000N 00000000000NCONT   00    00000000000          00000000000000000000000000000000000000000000 000000000000000A000000000000000000000000000000000000000000000 000000000000000000000000000000000000000     00000000                                                                                                                        000000000000000000
F0010000007024100001000001022529300011050500000000000000000201504150002001ALBERTO ALVAREZ ISAZA                             D000000002480000000000000000000000100010010000000000000000000000F0010000007024100120150415000101 00000000000000000000000000000000000000000000000000000000000000000000000000000000000000000000000000000000000000000N 00000000000NCONT   00    00000000000          00000000000000000000000000000000000000000000 000000000000000A000000000000000000000000000000000000000000000 000000000000000000000000000000000000000     00000000                                                                                                                        000000000000000000
F0010000007024100002000001022529300041450500000000000000000201504150002001ALBERTO ALVAREZ ISAZA                             C000000002380000000000000000000000100010010000000000000000000000F0010000007024100220150415000101 00000000000000000000000000000000000000000000000000000000000000000000000000000000000000000000000000000000000000000N 00000000000NCONT   00    00000000000          00000000000000000000000000000000000000000000 000000000000000A000000000000000000000000000000000000000000000 000000000000000000000000000000000000000     00000000                                                                                                                        000000000000000000
F0010000007024100003000001022529300042505000000000000000000201504150002001ALBERTO ALVAREZ ISAZA                             C000000000100000000000000000000000100010010000000000000000000000F0010000007024100320150415000101 00000000000000000000000000000000000000000000000000000000000000000000000000000000000000000000000000000000000000000N 00000000000NCONT   00    00000000000          00000000000000000000000000000000000000000000 000000000000000A000000000000000000000000000000000000000000000 000000000000000000000000000000000000000     00000000                                                                                                                        000000000000000000
F0010000007024100004000001022529300023658300000000000000000201504150002001ALBERTO ALVAREZ ISAZA                             C000000000019000000000000000000000100010010000000000000000000000F0010000007024100420150415000101 00000000000000000000000000000000000000000000000000000000000000000000000000000000000000000000000000000000000000000N 00000000000NCONT   00    00000000000          00000000000000000000000000000000000000000000 000000000000000A000000000000000000000000000000000000000000000 000000000000000000000000000000000000000     00000000                                                                                                                        000000000000000000
F0010000007024100005000001022529300013552100000000000000000201504150002001ALBERTO ALVAREZ ISAZA                             D000000000019000000000000000000000100010010000000000000000000000F0010000007024100520150415000101 00000000000000000000000000000000000000000000000000000000000000000000000000000000000000000000000000000000000000000N 00000000000NCONT   00    00000000000          00000000000000000000000000000000000000000000 000000000000000A000000000000000000000000000000000000000000000 000000000000000000000000000000000000000     00000000                                                                                                                        000000000000000000
F0010000007024200001000001022529300011050500000000000000000201504150002001ALBERTO ALVAREZ ISAZA                             D000000001300000000000000000000000100010010000000000000000000000F0010000007024200120150415000101 00000000000000000000000000000000000000000000000000000000000000000000000000000000000000000000000000000000000000000N 00000000000NCONT   00    00000000000          00000000000000000000000000000000000000000000 000000000000000A000000000000000000000000000000000000000000000 000000000000000000000000000000000000000     00000000                                                                                                                        000000000000000000
F0010000007024200002000001022529300041450500000000000000000201504150002001ALBERTO ALVAREZ ISAZA                             C000000001200000000000000000000000100010010000000000000000000000F0010000007024200220150415000101 00000000000000000000000000000000000000000000000000000000000000000000000000000000000000000000000000000000000000000N 00000000000NCONT   00    00000000000          00000000000000000000000000000000000000000000 000000000000000A000000000000000000000000000000000000000000000 000000000000000000000000000000000000000     00000000                                                                                                                        000000000000000000
F0010000007024200003000001022529300042505000000000000000000201504150002001ALBERTO ALVAREZ ISAZA                             C000000000100000000000000000000000100010010000000000000000000000F0010000007024200320150415000101 00000000000000000000000000000000000000000000000000000000000000000000000000000000000000000000000000000000000000000N 00000000000NCONT   00    00000000000          00000000000000000000000000000000000000000000 000000000000000A000000000000000000000000000000000000000000000 000000000000000000000000000000000000000     00000000                                                                                                                        000000000000000000
F0010000007024200004000001022529300023658300000000000000000201504150002001ALBERTO ALVAREZ ISAZA                             C000000000009600000000000000000000100010010000000000000000000000F0010000007024200420150415000101 00000000000000000000000000000000000000000000000000000000000000000000000000000000000000000000000000000000000000000N 00000000000NCONT   00    00000000000          00000000000000000000000000000000000000000000 000000000000000A000000000000000000000000000000000000000000000 000000000000000000000000000000000000000     00000000                                                                                                                        000000000000000000
F0010000007024200005000001022529300013552100000000000000000201504150002001ALBERTO ALVAREZ ISAZA                             D000000000009600000000000000000000100010010000000000000000000000F0010000007024200520150415000101 00000000000000000000000000000000000000000000000000000000000000000000000000000000000000000000000000000000000000000N 00000000000NCONT   00    00000000000          00000000000000000000000000000000000000000000 000000000000000A000000000000000000000000000000000000000000000 000000000000000000000000000000000000000     00000000                                                                                                                        000000000000000000
F0010000007024300001000001022529300011050500000000000000000201504150002001ALBERTO ALVAREZ ISAZA                             D000000003795000000000000000000000100010010000000000000000000000F0010000007024300120150415000101 00000000000000000000000000000000000000000000000000000000000000000000000000000000000000000000000000000000000000000N 00000000000NCONT   00    00000000000          00000000000000000000000000000000000000000000 000000000000000A000000000000000000000000000000000000000000000 000000000000000000000000000000000000000     00000000                                                                                                                        000000000000000000
F0010000007024300002000001022529300041450500000000000000000201504150002001ALBERTO ALVAREZ ISAZA                             C000000003570000000000000000000000100010010000000000000000000000F0010000007024300220150415000101 00000000000000000000000000000000000000000000000000000000000000000000000000000000000000000000000000000000000000000N 00000000000NCONT   00    00000000000          00000000000000000000000000000000000000000000 000000000000000A000000000000000000000000000000000000000000000 000000000000000000000000000000000000000     00000000                                                                                                                        000000000000000000
F0010000007024300003000001022529300042505000000000000000000201504150002001ALBERTO ALVAREZ ISAZA                             C000000000225000000000000000000000100010010000000000000000000000F0010000007024300320150415000101 00000000000000000000000000000000000000000000000000000000000000000000000000000000000000000000000000000000000000000N 00000000000NCONT   00    00000000000          00000000000000000000000000000000000000000000 000000000000000A000000000000000000000000000000000000000000000 000000000000000000000000000000000000000     00000000                                                                                                                        000000000000000000
F0010000007024300004000001022529300023658300000000000000000201504150002001ALBERTO ALVAREZ ISAZA                             C000000000028600000000000000000000100010010000000000000000000000F0010000007024300420150415000101 00000000000000000000000000000000000000000000000000000000000000000000000000000000000000000000000000000000000000000N 00000000000NCONT   00    00000000000          00000000000000000000000000000000000000000000 000000000000000A000000000000000000000000000000000000000000000 000000000000000000000000000000000000000     00000000                                                                                                                        000000000000000000
F0010000007024300005000001022529300013552100000000000000000201504150002001ALBERTO ALVAREZ ISAZA                             D000000000028600000000000000000000100010010000000000000000000000F0010000007024300520150415000101 00000000000000000000000000000000000000000000000000000000000000000000000000000000000000000000000000000000000000000N 00000000000NCONT   00    00000000000          00000000000000000000000000000000000000000000 000000000000000A000000000000000000000000000000000000000000000 000000000000000000000000000000000000000     00000000                                                                                                                        000000000000000000
F0010000007024400001000001022529300011050500000000000000000201504150002001ALBERTO ALVAREZ ISAZA                             D000000002250000000000000000000000100010010000000000000000000000F0010000007024400120150415000101 00000000000000000000000000000000000000000000000000000000000000000000000000000000000000000000000000000000000000000N 00000000000NCONT   00    00000000000          00000000000000000000000000000000000000000000 000000000000000A000000000000000000000000000000000000000000000 000000000000000000000000000000000000000     00000000                                                                                                                        000000000000000000
F0010000007024400002000001022529300041450500000000000000000201504150002001ALBERTO ALVAREZ ISAZA                             C000000002200000000000000000000000100010010000000000000000000000F0010000007024400220150415000101 00000000000000000000000000000000000000000000000000000000000000000000000000000000000000000000000000000000000000000N 00000000000NCONT   00    00000000000          00000000000000000000000000000000000000000000 000000000000000A000000000000000000000000000000000000000000000 000000000000000000000000000000000000000     00000000                                                                                                                        000000000000000000
F0010000007024400003000001022529300042505000000000000000000201504150002001ALBERTO ALVAREZ ISAZA                             C000000000050000000000000000000000100010010000000000000000000000F0010000007024400320150415000101 00000000000000000000000000000000000000000000000000000000000000000000000000000000000000000000000000000000000000000N 00000000000NCONT   00    00000000000          00000000000000000000000000000000000000000000 000000000000000A000000000000000000000000000000000000000000000 000000000000000000000000000000000000000     00000000                                                                                                                        000000000000000000
F0010000007024400004000001022529300023658300000000000000000201504150002001ALBERTO ALVAREZ ISAZA                             C000000000017600000000000000000000100010010000000000000000000000F0010000007024400420150415000101 00000000000000000000000000000000000000000000000000000000000000000000000000000000000000000000000000000000000000000N 00000000000NCONT   00    00000000000          00000000000000000000000000000000000000000000 000000000000000A000000000000000000000000000000000000000000000 000000000000000000000000000000000000000     00000000                                                                                                                        000000000000000000
F0010000007024400005000001022529300013552100000000000000000201504150002001ALBERTO ALVAREZ ISAZA                             D000000000017600000000000000000000100010010000000000000000000000F0010000007024400520150415000101 00000000000000000000000000000000000000000000000000000000000000000000000000000000000000000000000000000000000000000N 00000000000NCONT   00    00000000000          00000000000000000000000000000000000000000000 000000000000000A000000000000000000000000000000000000000000000 000000000000000000000000000000000000000     00000000                                                                                                                        000000000000000000
F0010000007024500001000001022529300011050500000000000000000201504150002001ALBERTO ALVAREZ ISAZA                             D000000003720000000000000000000000100010010000000000000000000000F0010000007024500120150415000101 00000000000000000000000000000000000000000000000000000000000000000000000000000000000000000000000000000000000000000N 00000000000NCONT   00    00000000000          00000000000000000000000000000000000000000000 000000000000000A000000000000000000000000000000000000000000000 000000000000000000000000000000000000000     00000000                                                                                                                        000000000000000000
F0010000007024500002000001022529300041450500000000000000000201504150002001ALBERTO ALVAREZ ISAZA                             C000000003570000000000000000000000100010010000000000000000000000F0010000007024500220150415000101 00000000000000000000000000000000000000000000000000000000000000000000000000000000000000000000000000000000000000000N 00000000000NCONT   00    00000000000          00000000000000000000000000000000000000000000 000000000000000A000000000000000000000000000000000000000000000 000000000000000000000000000000000000000     00000000                                                                                                                        000000000000000000
F0010000007024500003000001022529300042505000000000000000000201504150002001ALBERTO ALVAREZ ISAZA                             C000000000150000000000000000000000100010010000000000000000000000F0010000007024500320150415000101 00000000000000000000000000000000000000000000000000000000000000000000000000000000000000000000000000000000000000000N 00000000000NCONT   00    00000000000          00000000000000000000000000000000000000000000 000000000000000A000000000000000000000000000000000000000000000 000000000000000000000000000000000000000     00000000                                                                                                                        000000000000000000
F0010000007024500004000001022529300023658300000000000000000201504150002001ALBERTO ALVAREZ ISAZA                             C000000000028600000000000000000000100010010000000000000000000000F0010000007024500420150415000101 00000000000000000000000000000000000000000000000000000000000000000000000000000000000000000000000000000000000000000N 00000000000NCONT   00    00000000000          00000000000000000000000000000000000000000000 000000000000000A000000000000000000000000000000000000000000000 000000000000000000000000000000000000000     00000000                                                                                                                        000000000000000000
F0010000007024500005000001022529300013552100000000000000000201504150002001ALBERTO ALVAREZ ISAZA                             D000000000028600000000000000000000100010010000000000000000000000F0010000007024500520150415000101 00000000000000000000000000000000000000000000000000000000000000000000000000000000000000000000000000000000000000000N 00000000000NCONT   00    00000000000          00000000000000000000000000000000000000000000 000000000000000A000000000000000000000000000000000000000000000 000000000000000000000000000000000000000     00000000                                                                                                                        000000000000000000
F0010000007024600001000000431178400011050500000000000000000201504150002001EFRAIN ALVAREZ                                    D000000000810000000000000000000000100010010000000000000000000000F0010000007024600120150415000101 00000000000000000000000000000000000000000000000000000000000000000000000000000000000000000000000000000000000000000N 00000000000NCONT   00    00000000000          00000000000000000000000000000000000000000000 000000000000000A000000000000000000000000000000000000000000000 000000000000000000000000000000000000000     00000000                                                                                                                        000000000000000000
F0010000007024600002000000431178400041450500000000000000000201504150002001EFRAIN ALVAREZ                                    C000000000760000000000000000000000100010010000000000000000000000F0010000007024600220150415000101 00000000000000000000000000000000000000000000000000000000000000000000000000000000000000000000000000000000000000000N 00000000000NCONT   00    00000000000          00000000000000000000000000000000000000000000 000000000000000A000000000000000000000000000000000000000000000 000000000000000000000000000000000000000     00000000                                                                                                                        000000000000000000
F0010000007024600003000000431178400042505000000000000000000201504150002001EFRAIN ALVAREZ                                    C000000000050000000000000000000000100010010000000000000000000000F0010000007024600320150415000101 00000000000000000000000000000000000000000000000000000000000000000000000000000000000000000000000000000000000000000N 00000000000NCONT   00    00000000000          00000000000000000000000000000000000000000000 000000000000000A000000000000000000000000000000000000000000000 000000000000000000000000000000000000000     00000000                                                                                                                        000000000000000000
F0010000007024600004000000431178400023658300000000000000000201504150002001EFRAIN ALVAREZ                                    C000000000006100000000000000000000100010010000000000000000000000F0010000007024600420150415000101 00000000000000000000000000000000000000000000000000000000000000000000000000000000000000000000000000000000000000000N 00000000000NCONT   00    00000000000          00000000000000000000000000000000000000000000 000000000000000A000000000000000000000000000000000000000000000 000000000000000000000000000000000000000     00000000                                                                                                                        000000000000000000
F0010000007024600005000000431178400013552100000000000000000201504150002001EFRAIN ALVAREZ                                    D000000000006100000000000000000000100010010000000000000000000000F0010000007024600520150415000101 00000000000000000000000000000000000000000000000000000000000000000000000000000000000000000000000000000000000000000N 00000000000NCONT   00    00000000000          00000000000000000000000000000000000000000000 000000000000000A000000000000000000000000000000000000000000000 000000000000000000000000000000000000000     00000000                                                                                                                        000000000000000000
F0010000007024700001000000431178400011050500000000000000000201504150002001EFRAIN ALVAREZ                                    D000000000910000000000000000000000100010010000000000000000000000F0010000007024700120150415000101 00000000000000000000000000000000000000000000000000000000000000000000000000000000000000000000000000000000000000000N 00000000000NCONT   00    00000000000          00000000000000000000000000000000000000000000 000000000000000A000000000000000000000000000000000000000000000 000000000000000000000000000000000000000     00000000                                                                                                                        000000000000000000
F0010000007024700002000000431178400041450500000000000000000201504150002001EFRAIN ALVAREZ                                    C000000000860000000000000000000000100010010000000000000000000000F0010000007024700220150415000101 00000000000000000000000000000000000000000000000000000000000000000000000000000000000000000000000000000000000000000N 00000000000NCONT   00    00000000000          00000000000000000000000000000000000000000000 000000000000000A000000000000000000000000000000000000000000000 000000000000000000000000000000000000000     00000000                                                                                                                        000000000000000000
F0010000007024700003000000431178400042505000000000000000000201504150002001EFRAIN ALVAREZ                                    C000000000050000000000000000000000100010010000000000000000000000F0010000007024700320150415000101 00000000000000000000000000000000000000000000000000000000000000000000000000000000000000000000000000000000000000000N 00000000000NCONT   00    00000000000          00000000000000000000000000000000000000000000 000000000000000A000000000000000000000000000000000000000000000 000000000000000000000000000000000000000     00000000                                                                                                                        000000000000000000
F0010000007024700004000000431178400023658300000000000000000201504150002001EFRAIN ALVAREZ                                    C000000000006900000000000000000000100010010000000000000000000000F0010000007024700420150415000101 00000000000000000000000000000000000000000000000000000000000000000000000000000000000000000000000000000000000000000N 00000000000NCONT   00    00000000000          00000000000000000000000000000000000000000000 000000000000000A000000000000000000000000000000000000000000000 000000000000000000000000000000000000000     00000000                                                                                                                        000000000000000000
F0010000007024700005000000431178400013552100000000000000000201504150002001EFRAIN ALVAREZ                                    D000000000006900000000000000000000100010010000000000000000000000F0010000007024700520150415000101 00000000000000000000000000000000000000000000000000000000000000000000000000000000000000000000000000000000000000000N 00000000000NCONT   00    00000000000          00000000000000000000000000000000000000000000 000000000000000A000000000000000000000000000000000000000000000 000000000000000000000000000000000000000     00000000                                                                                                                        000000000000000000
F0010000007024800001000000431178400011050500000000000000000201504150002001EFRAIN ALVAREZ                                    D000000004975000000000000000000000100010010000000000000000000000F0010000007024800120150415000101 00000000000000000000000000000000000000000000000000000000000000000000000000000000000000000000000000000000000000000N 00000000000NCONT   00    00000000000          00000000000000000000000000000000000000000000 000000000000000A000000000000000000000000000000000000000000000 000000000000000000000000000000000000000     00000000                                                                                                                        000000000000000000
F0010000007024800002000000431178400041450500000000000000000201504150002001EFRAIN ALVAREZ                                    C000000004800000000000000000000000100010010000000000000000000000F0010000007024800220150415000101 00000000000000000000000000000000000000000000000000000000000000000000000000000000000000000000000000000000000000000N 00000000000NCONT   00    00000000000          00000000000000000000000000000000000000000000 000000000000000A000000000000000000000000000000000000000000000 000000000000000000000000000000000000000     00000000                                                                                                                        000000000000000000
F0010000007024800003000000431178400042505000000000000000000201504150002001EFRAIN ALVAREZ                                    C000000000175000000000000000000000100010010000000000000000000000F0010000007024800320150415000101 00000000000000000000000000000000000000000000000000000000000000000000000000000000000000000000000000000000000000000N 00000000000NCONT   00    00000000000          00000000000000000000000000000000000000000000 000000000000000A000000000000000000000000000000000000000000000 000000000000000000000000000000000000000     00000000                                                                                                                        000000000000000000
F0010000007024800004000000431178400023658300000000000000000201504150002001EFRAIN ALVAREZ                                    C000000000038400000000000000000000100010010000000000000000000000F0010000007024800420150415000101 00000000000000000000000000000000000000000000000000000000000000000000000000000000000000000000000000000000000000000N 00000000000NCONT   00    00000000000          00000000000000000000000000000000000000000000 000000000000000A000000000000000000000000000000000000000000000 000000000000000000000000000000000000000     00000000                                                                                                                        000000000000000000
F0010000007024800005000000431178400013552100000000000000000201504150002001EFRAIN ALVAREZ                                    D000000000038400000000000000000000100010010000000000000000000000F0010000007024800520150415000101 00000000000000000000000000000000000000000000000000000000000000000000000000000000000000000000000000000000000000000N 00000000000NCONT   00    00000000000          00000000000000000000000000000000000000000000 000000000000000A000000000000000000000000000000000000000000000 000000000000000000000000000000000000000     00000000                                                                                                                        000000000000000000
F0010000007024900001000000431178400011050500000000000000000201504150002001EFRAIN ALVAREZ                                    D000000009500000000000000000000000100010010000000000000000000000F0010000007024900120150415000101 00000000000000000000000000000000000000000000000000000000000000000000000000000000000000000000000000000000000000000N 00000000000NCONT   00    00000000000          00000000000000000000000000000000000000000000 000000000000000A000000000000000000000000000000000000000000000 000000000000000000000000000000000000000     00000000                                                                                                                        000000000000000000
F0010000007024900002000000431178400041450500000000000000000201504150002001EFRAIN ALVAREZ                                    C000000009200000000000000000000000100010010000000000000000000000F0010000007024900220150415000101 00000000000000000000000000000000000000000000000000000000000000000000000000000000000000000000000000000000000000000N 00000000000NCONT   00    00000000000          00000000000000000000000000000000000000000000 000000000000000A000000000000000000000000000000000000000000000 000000000000000000000000000000000000000     00000000                                                                                                                        000000000000000000
F0010000007024900003000000431178400042505000000000000000000201504150002001EFRAIN ALVAREZ                                    C000000000300000000000000000000000100010010000000000000000000000F0010000007024900320150415000101 00000000000000000000000000000000000000000000000000000000000000000000000000000000000000000000000000000000000000000N 00000000000NCONT   00    00000000000          00000000000000000000000000000000000000000000 000000000000000A000000000000000000000000000000000000000000000 000000000000000000000000000000000000000     00000000                                                                                                                        000000000000000000
F0010000007024900004000000431178400023658300000000000000000201504150002001EFRAIN ALVAREZ                                    C000000000073600000000000000000000100010010000000000000000000000F0010000007024900420150415000101 00000000000000000000000000000000000000000000000000000000000000000000000000000000000000000000000000000000000000000N 00000000000NCONT   00    00000000000          00000000000000000000000000000000000000000000 000000000000000A000000000000000000000000000000000000000000000 000000000000000000000000000000000000000     00000000                                                                                                                        000000000000000000
F0010000007024900005000000431178400013552100000000000000000201504150002001EFRAIN ALVAREZ                                    D000000000073600000000000000000000100010010000000000000000000000F0010000007024900520150415000101 00000000000000000000000000000000000000000000000000000000000000000000000000000000000000000000000000000000000000000N 00000000000NCONT   00    00000000000          00000000000000000000000000000000000000000000 000000000000000A000000000000000000000000000000000000000000000 000000000000000000000000000000000000000     00000000                                                                                                                        000000000000000000
F0010000007025000001000000431178400011050500000000000000000201504150002001EFRAIN ALVAREZ                                    D000000002000000000000000000000000100010010000000000000000000000F0010000007025000120150415000101 00000000000000000000000000000000000000000000000000000000000000000000000000000000000000000000000000000000000000000N 00000000000NCONT   00    00000000000          00000000000000000000000000000000000000000000 000000000000000A000000000000000000000000000000000000000000000 000000000000000000000000000000000000000     00000000                                                                                                                        000000000000000000
F0010000007025000002000000431178400041450500000000000000000201504150002001EFRAIN ALVAREZ                                    C000000001800000000000000000000000100010010000000000000000000000F0010000007025000220150415000101 00000000000000000000000000000000000000000000000000000000000000000000000000000000000000000000000000000000000000000N 00000000000NCONT   00    00000000000          00000000000000000000000000000000000000000000 000000000000000A000000000000000000000000000000000000000000000 000000000000000000000000000000000000000     00000000                                                                                                                        000000000000000000
F0010000007025000003000000431178400042505000000000000000000201504150002001EFRAIN ALVAREZ                                    C000000000200000000000000000000000100010010000000000000000000000F0010000007025000320150415000101 00000000000000000000000000000000000000000000000000000000000000000000000000000000000000000000000000000000000000000N 00000000000NCONT   00    00000000000          00000000000000000000000000000000000000000000 000000000000000A000000000000000000000000000000000000000000000 000000000000000000000000000000000000000     00000000                                                                                                                        000000000000000000
F0010000007025000004000000431178400023658300000000000000000201504150002001EFRAIN ALVAREZ                                    C000000000014400000000000000000000100010010000000000000000000000F0010000007025000420150415000101 00000000000000000000000000000000000000000000000000000000000000000000000000000000000000000000000000000000000000000N 00000000000NCONT   00    00000000000          00000000000000000000000000000000000000000000 000000000000000A000000000000000000000000000000000000000000000 000000000000000000000000000000000000000     00000000                                                                                                                        000000000000000000
F0010000007025000005000000431178400013552100000000000000000201504150002001EFRAIN ALVAREZ                                    D000000000014400000000000000000000100010010000000000000000000000F0010000007025000520150415000101 00000000000000000000000000000000000000000000000000000000000000000000000000000000000000000000000000000000000000000N 00000000000NCONT   00    00000000000          00000000000000000000000000000000000000000000 000000000000000A000000000000000000000000000000000000000000000 000000000000000000000000000000000000000     00000000                                                                                                                        000000000000000000
F0010000007025100001000000431178400011050500000000000000000201504150002001EFRAIN ALVAREZ                                    D000000003415000000000000000000000100010010000000000000000000000F0010000007025100120150415000101 00000000000000000000000000000000000000000000000000000000000000000000000000000000000000000000000000000000000000000N 00000000000NCONT   00    00000000000          00000000000000000000000000000000000000000000 000000000000000A000000000000000000000000000000000000000000000 000000000000000000000000000000000000000     00000000                                                                                                                        000000000000000000
F0010000007025100002000000431178400041450500000000000000000201504150002001EFRAIN ALVAREZ                                    C000000003240000000000000000000000100010010000000000000000000000F0010000007025100220150415000101 00000000000000000000000000000000000000000000000000000000000000000000000000000000000000000000000000000000000000000N 00000000000NCONT   00    00000000000          00000000000000000000000000000000000000000000 000000000000000A000000000000000000000000000000000000000000000 000000000000000000000000000000000000000     00000000                                                                                                                        000000000000000000
F0010000007025100003000000431178400042505000000000000000000201504150002001EFRAIN ALVAREZ                                    C000000000175000000000000000000000100010010000000000000000000000F0010000007025100320150415000101 00000000000000000000000000000000000000000000000000000000000000000000000000000000000000000000000000000000000000000N 00000000000NCONT   00    00000000000          00000000000000000000000000000000000000000000 000000000000000A000000000000000000000000000000000000000000000 000000000000000000000000000000000000000     00000000                                                                                                                        000000000000000000
F0010000007025100004000000431178400023658300000000000000000201504150002001EFRAIN ALVAREZ                                    C000000000025900000000000000000000100010010000000000000000000000F0010000007025100420150415000101 00000000000000000000000000000000000000000000000000000000000000000000000000000000000000000000000000000000000000000N 00000000000NCONT   00    00000000000          00000000000000000000000000000000000000000000 000000000000000A000000000000000000000000000000000000000000000 000000000000000000000000000000000000000     00000000                                                                                                                        000000000000000000
F0010000007025100005000000431178400013552100000000000000000201504150002001EFRAIN ALVAREZ                                    D000000000025900000000000000000000100010010000000000000000000000F0010000007025100520150415000101 00000000000000000000000000000000000000000000000000000000000000000000000000000000000000000000000000000000000000000N 00000000000NCONT   00    00000000000          00000000000000000000000000000000000000000000 000000000000000A000000000000000000000000000000000000000000000 000000000000000000000000000000000000000     00000000                                                                                                                        000000000000000000
F0010000007025200001000000431178400011050500000000000000000201504150002001EFRAIN ALVAREZ                                    D000000001795000000000000000000000100010010000000000000000000000F0010000007025200120150415000101 00000000000000000000000000000000000000000000000000000000000000000000000000000000000000000000000000000000000000000N 00000000000NCONT   00    00000000000          00000000000000000000000000000000000000000000 000000000000000A000000000000000000000000000000000000000000000 000000000000000000000000000000000000000     00000000                                                                                                                        000000000000000000
F0010000007025200002000000431178400041450500000000000000000201504150002001EFRAIN ALVAREZ                                    C000000001720000000000000000000000100010010000000000000000000000F0010000007025200220150415000101 00000000000000000000000000000000000000000000000000000000000000000000000000000000000000000000000000000000000000000N 00000000000NCONT   00    00000000000          00000000000000000000000000000000000000000000 000000000000000A000000000000000000000000000000000000000000000 000000000000000000000000000000000000000     00000000                                                                                                                        000000000000000000
F0010000007025200003000000431178400042505000000000000000000201504150002001EFRAIN ALVAREZ                                    C000000000075000000000000000000000100010010000000000000000000000F0010000007025200320150415000101 00000000000000000000000000000000000000000000000000000000000000000000000000000000000000000000000000000000000000000N 00000000000NCONT   00    00000000000          00000000000000000000000000000000000000000000 000000000000000A000000000000000000000000000000000000000000000 000000000000000000000000000000000000000     00000000                                                                                                                        000000000000000000
F0010000007025200004000000431178400023658300000000000000000201504150002001EFRAIN ALVAREZ                                    C000000000013800000000000000000000100010010000000000000000000000F0010000007025200420150415000101 00000000000000000000000000000000000000000000000000000000000000000000000000000000000000000000000000000000000000000N 00000000000NCONT   00    00000000000          00000000000000000000000000000000000000000000 000000000000000A000000000000000000000000000000000000000000000 000000000000000000000000000000000000000     00000000                                                                                                                        000000000000000000
F0010000007025200005000000431178400013552100000000000000000201504150002001EFRAIN ALVAREZ                                    D000000000013800000000000000000000100010010000000000000000000000F0010000007025200520150415000101 00000000000000000000000000000000000000000000000000000000000000000000000000000000000000000000000000000000000000000N 00000000000NCONT   00    00000000000          00000000000000000000000000000000000000000000 000000000000000A000000000000000000000000000000000000000000000 000000000000000000000000000000000000000     00000000                                                                                                                        000000000000000000
F0010000007025300001000000431178400011050500000000000000000201504150002001EFRAIN ALVAREZ                                    D000000002530100000000000000000000100010010000000000000000000000F0010000007025300120150415000101 00000000000000000000000000000000000000000000000000000000000000000000000000000000000000000000000000000000000000000N 00000000000NCONT   00    00000000000          00000000000000000000000000000000000000000000 000000000000000A000000000000000000000000000000000000000000000 000000000000000000000000000000000000000     00000000                                                                                                                        000000000000000000
F0010000007025300002000000431178400041450500000000000000000201504150002001EFRAIN ALVAREZ                                    C000000002380000000000000000000000100010010000000000000000000000F0010000007025300220150415000101 00000000000000000000000000000000000000000000000000000000000000000000000000000000000000000000000000000000000000000N 00000000000NCONT   00    00000000000          00000000000000000000000000000000000000000000 000000000000000A000000000000000000000000000000000000000000000 000000000000000000000000000000000000000     00000000                                                                                                                        000000000000000000
F0010000007025300003000000431178400042505000000000000000000201504150002001EFRAIN ALVAREZ                                    C000000000150100000000000000000000100010010000000000000000000000F0010000007025300320150415000101 00000000000000000000000000000000000000000000000000000000000000000000000000000000000000000000000000000000000000000N 00000000000NCONT   00    00000000000          00000000000000000000000000000000000000000000 000000000000000A000000000000000000000000000000000000000000000 000000000000000000000000000000000000000     00000000                                                                                                                        000000000000000000
F0010000007025300004000000431178400023658300000000000000000201504150002001EFRAIN ALVAREZ                                    C000000000019000000000000000000000100010010000000000000000000000F0010000007025300420150415000101 00000000000000000000000000000000000000000000000000000000000000000000000000000000000000000000000000000000000000000N 00000000000NCONT   00    00000000000          00000000000000000000000000000000000000000000 000000000000000A000000000000000000000000000000000000000000000 000000000000000000000000000000000000000     00000000                                                                                                                        000000000000000000
F0010000007025300005000000431178400013552100000000000000000201504150002001EFRAIN ALVAREZ                                    D000000000019000000000000000000000100010010000000000000000000000F0010000007025300520150415000101 00000000000000000000000000000000000000000000000000000000000000000000000000000000000000000000000000000000000000000N 00000000000NCONT   00    00000000000          00000000000000000000000000000000000000000000 000000000000000A000000000000000000000000000000000000000000000 000000000000000000000000000000000000000     00000000                                                                                                                        000000000000000000
F0010000007025400001000000431178400011050500000000000000000201504150002001EFRAIN ALVAREZ                                    D000000001850000000000000000000000100010010000000000000000000000F0010000007025400120150415000101 00000000000000000000000000000000000000000000000000000000000000000000000000000000000000000000000000000000000000000N 00000000000NCONT   00    00000000000          00000000000000000000000000000000000000000000 000000000000000A000000000000000000000000000000000000000000000 000000000000000000000000000000000000000     00000000                                                                                                                        000000000000000000
F0010000007025400002000000431178400041450500000000000000000201504150002001EFRAIN ALVAREZ                                    C000000001800000000000000000000000100010010000000000000000000000F0010000007025400220150415000101 00000000000000000000000000000000000000000000000000000000000000000000000000000000000000000000000000000000000000000N 00000000000NCONT   00    00000000000          00000000000000000000000000000000000000000000 000000000000000A000000000000000000000000000000000000000000000 000000000000000000000000000000000000000     00000000                                                                                                                        000000000000000000
