F0010000005827200001000086053108300011050500000000000000000201405170002001EL PALACIO DEL ALUMINIO  LTDA                     D000000002000000000000000000000000100010010000000000000000000000F0010000005827200120140517000101 00000000000000000000000000000000000000000000000000000000000000000000000000000000000000000000000000000000000000000N 00000000000NCONT   00    00000000000          00000000000000000000000000000000000000000000 000000000000000A000000000000000000000000000000000000000000000 000000000000000000000000000000000000000     00000000                                                                                                                        000000000000000000
F0010000005827200002000086053108300041450500000000000000000201405170002001EL PALACIO DEL ALUMINIO  LTDA                     C000000001850000000000000000000000100010010000000000000000000000F0010000005827200220140517000101 00000000000000000000000000000000000000000000000000000000000000000000000000000000000000000000000000000000000000000N 00000000000NCONT   00    00000000000          00000000000000000000000000000000000000000000 000000000000000A000000000000000000000000000000000000000000000 000000000000000000000000000000000000000     00000000                                                                                                                        000000000000000000
F0010000005827200003000086053108300042505000000000000000000201405170002001EL PALACIO DEL ALUMINIO  LTDA                     C000000000150000000000000000000000100010010000000000000000000000F0010000005827200320140517000101 00000000000000000000000000000000000000000000000000000000000000000000000000000000000000000000000000000000000000000N 00000000000NCONT   00    00000000000          00000000000000000000000000000000000000000000 000000000000000A000000000000000000000000000000000000000000000 000000000000000000000000000000000000000     00000000                                                                                                                        000000000000000000
F0010000005827200004000086053108300023658300000000000000000201405170002001EL PALACIO DEL ALUMINIO  LTDA                     C000000000014800000000000000000000100010010000000000000000000000F0010000005827200420140517000101 00000000000000000000000000000000000000000000000000000000000000000000000000000000000000000000000000000000000000000N 00000000000NCONT   00    00000000000          00000000000000000000000000000000000000000000 000000000000000A000000000000000000000000000000000000000000000 000000000000000000000000000000000000000     00000000                                                                                                                        000000000000000000
F0010000005827200005000086053108300013552100000000000000000201405170002001EL PALACIO DEL ALUMINIO  LTDA                     D000000000014800000000000000000000100010010000000000000000000000F0010000005827200520140517000101 00000000000000000000000000000000000000000000000000000000000000000000000000000000000000000000000000000000000000000N 00000000000NCONT   00    00000000000          00000000000000000000000000000000000000000000 000000000000000A000000000000000000000000000000000000000000000 000000000000000000000000000000000000000     00000000                                                                                                                        000000000000000000
F0010000005827300001000002595613500011050500000000000000000201405170002001DELYS OSORIO CANTERO --MANUEL A PADILLA           D000000010000000000000000000000000100010010000000000000000000000F0010000005827300120140517000101 00000000000000000000000000000000000000000000000000000000000000000000000000000000000000000000000000000000000000000N 00000000000NCONT   00    00000000000          00000000000000000000000000000000000000000000 000000000000000A000000000000000000000000000000000000000000000 000000000000000000000000000000000000000     00000000                                                                                                                        000000000000000000
F0010000005827300002000002595613500041450500000000000000000201405170002001DELYS OSORIO CANTERO --MANUEL A PADILLA           C000000009500000000000000000000000100010010000000000000000000000F0010000005827300220140517000101 00000000000000000000000000000000000000000000000000000000000000000000000000000000000000000000000000000000000000000N 00000000000NCONT   00    00000000000          00000000000000000000000000000000000000000000 000000000000000A000000000000000000000000000000000000000000000 000000000000000000000000000000000000000     00000000                                                                                                                        000000000000000000
F0010000005827300003000002595613500042505000000000000000000201405170002001DELYS OSORIO CANTERO --MANUEL A PADILLA           C000000000500000000000000000000000100010010000000000000000000000F0010000005827300320140517000101 00000000000000000000000000000000000000000000000000000000000000000000000000000000000000000000000000000000000000000N 00000000000NCONT   00    00000000000          00000000000000000000000000000000000000000000 000000000000000A000000000000000000000000000000000000000000000 000000000000000000000000000000000000000     00000000                                                                                                                        000000000000000000
F0010000005827300004000002595613500023658300000000000000000201405170002001DELYS OSORIO CANTERO --MANUEL A PADILLA           C000000000076000000000000000000000100010010000000000000000000000F0010000005827300420140517000101 00000000000000000000000000000000000000000000000000000000000000000000000000000000000000000000000000000000000000000N 00000000000NCONT   00    00000000000          00000000000000000000000000000000000000000000 000000000000000A000000000000000000000000000000000000000000000 000000000000000000000000000000000000000     00000000                                                                                                                        000000000000000000
F0010000005827300005000002595613500013552100000000000000000201405170002001DELYS OSORIO CANTERO --MANUEL A PADILLA           D000000000076000000000000000000000100010010000000000000000000000F0010000005827300520140517000101 00000000000000000000000000000000000000000000000000000000000000000000000000000000000000000000000000000000000000000N 00000000000NCONT   00    00000000000          00000000000000000000000000000000000000000000 000000000000000A000000000000000000000000000000000000000000000 000000000000000000000000000000000000000     00000000                                                                                                                        000000000000000000
F0010000005827400001000002245670100011050500000000000000000201405170002001YOLANDA  TOBON                                    D000000001430000000000000000000000100010010000000000000000000000F0010000005827400120140517000101 00000000000000000000000000000000000000000000000000000000000000000000000000000000000000000000000000000000000000000N 00000000000NCONT   00    00000000000          00000000000000000000000000000000000000000000 000000000000000A000000000000000000000000000000000000000000000 000000000000000000000000000000000000000     00000000                                                                                                                        000000000000000000
F0010000005827400002000002245670100041450500000000000000000201405170002001YOLANDA  TOBON                                    C000000001260000000000000000000000100010010000000000000000000000F0010000005827400220140517000101 00000000000000000000000000000000000000000000000000000000000000000000000000000000000000000000000000000000000000000N 00000000000NCONT   00    00000000000          00000000000000000000000000000000000000000000 000000000000000A000000000000000000000000000000000000000000000 000000000000000000000000000000000000000     00000000                                                                                                                        000000000000000000
F0010000005827400003000002245670100042505000000000000000000201405170002001YOLANDA  TOBON                                    C000000000170000000000000000000000100010010000000000000000000000F0010000005827400320140517000101 00000000000000000000000000000000000000000000000000000000000000000000000000000000000000000000000000000000000000000N 00000000000NCONT   00    00000000000          00000000000000000000000000000000000000000000 000000000000000A000000000000000000000000000000000000000000000 000000000000000000000000000000000000000     00000000                                                                                                                        000000000000000000
F0010000005827400004000002245670100023658300000000000000000201405170002001YOLANDA  TOBON                                    C000000000010100000000000000000000100010010000000000000000000000F0010000005827400420140517000101 00000000000000000000000000000000000000000000000000000000000000000000000000000000000000000000000000000000000000000N 00000000000NCONT   00    00000000000          00000000000000000000000000000000000000000000 000000000000000A000000000000000000000000000000000000000000000 000000000000000000000000000000000000000     00000000                                                                                                                        000000000000000000
F0010000005827400005000002245670100013552100000000000000000201405170002001YOLANDA  TOBON                                    D000000000010100000000000000000000100010010000000000000000000000F0010000005827400520140517000101 00000000000000000000000000000000000000000000000000000000000000000000000000000000000000000000000000000000000000000N 00000000000NCONT   00    00000000000          00000000000000000000000000000000000000000000 000000000000000A000000000000000000000000000000000000000000000 000000000000000000000000000000000000000     00000000                                                                                                                        000000000000000000
F0010000005827500001000002245670100011050500000000000000000201405170002001YOLANDA  TOBON                                    D000000012300000000000000000000000100010010000000000000000000000F0010000005827500120140517000101 00000000000000000000000000000000000000000000000000000000000000000000000000000000000000000000000000000000000000000N 00000000000NCONT   00    00000000000          00000000000000000000000000000000000000000000 000000000000000A000000000000000000000000000000000000000000000 000000000000000000000000000000000000000     00000000                                                                                                                        000000000000000000
F0010000005827500002000002245670100041450500000000000000000201405170002001YOLANDA  TOBON                                    C000000011000000000000000000000000100010010000000000000000000000F0010000005827500220140517000101 00000000000000000000000000000000000000000000000000000000000000000000000000000000000000000000000000000000000000000N 00000000000NCONT   00    00000000000          00000000000000000000000000000000000000000000 000000000000000A000000000000000000000000000000000000000000000 000000000000000000000000000000000000000     00000000                                                                                                                        000000000000000000
F0010000005827500003000002245670100042505000000000000000000201405170002001YOLANDA  TOBON                                    C000000001300000000000000000000000100010010000000000000000000000F0010000005827500320140517000101 00000000000000000000000000000000000000000000000000000000000000000000000000000000000000000000000000000000000000000N 00000000000NCONT   00    00000000000          00000000000000000000000000000000000000000000 000000000000000A000000000000000000000000000000000000000000000 000000000000000000000000000000000000000     00000000                                                                                                                        000000000000000000
F0010000005827500004000002245670100023658300000000000000000201405170002001YOLANDA  TOBON                                    C000000000088000000000000000000000100010010000000000000000000000F0010000005827500420140517000101 00000000000000000000000000000000000000000000000000000000000000000000000000000000000000000000000000000000000000000N 00000000000NCONT   00    00000000000          00000000000000000000000000000000000000000000 000000000000000A000000000000000000000000000000000000000000000 000000000000000000000000000000000000000     00000000                                                                                                                        000000000000000000
F0010000005827500005000002245670100013552100000000000000000201405170002001YOLANDA  TOBON                                    D000000000088000000000000000000000100010010000000000000000000000F0010000005827500520140517000101 00000000000000000000000000000000000000000000000000000000000000000000000000000000000000000000000000000000000000000N 00000000000NCONT   00    00000000000          00000000000000000000000000000000000000000000 000000000000000A000000000000000000000000000000000000000000000 000000000000000000000000000000000000000     00000000                                                                                                                        000000000000000000
F0010000005827600001000002245670100011050500000000000000000201405170002001YOLANDA  TOBON                                    D000000012500000000000000000000000100010010000000000000000000000F0010000005827600120140517000101 00000000000000000000000000000000000000000000000000000000000000000000000000000000000000000000000000000000000000000N 00000000000NCONT   00    00000000000          00000000000000000000000000000000000000000000 000000000000000A000000000000000000000000000000000000000000000 000000000000000000000000000000000000000     00000000                                                                                                                        000000000000000000
F0010000005827600002000002245670100041450500000000000000000201405170002001YOLANDA  TOBON                                    C000000010500000000000000000000000100010010000000000000000000000F0010000005827600220140517000101 00000000000000000000000000000000000000000000000000000000000000000000000000000000000000000000000000000000000000000N 00000000000NCONT   00    00000000000          00000000000000000000000000000000000000000000 000000000000000A000000000000000000000000000000000000000000000 000000000000000000000000000000000000000     00000000                                                                                                                        000000000000000000
F0010000005827600003000002245670100042505000000000000000000201405170002001YOLANDA  TOBON                                    C000000002000000000000000000000000100010010000000000000000000000F0010000005827600320140517000101 00000000000000000000000000000000000000000000000000000000000000000000000000000000000000000000000000000000000000000N 00000000000NCONT   00    00000000000          00000000000000000000000000000000000000000000 000000000000000A000000000000000000000000000000000000000000000 000000000000000000000000000000000000000     00000000                                                                                                                        000000000000000000
F0010000005827600004000002245670100023658300000000000000000201405170002001YOLANDA  TOBON                                    C000000000084000000000000000000000100010010000000000000000000000F0010000005827600420140517000101 00000000000000000000000000000000000000000000000000000000000000000000000000000000000000000000000000000000000000000N 00000000000NCONT   00    00000000000          00000000000000000000000000000000000000000000 000000000000000A000000000000000000000000000000000000000000000 000000000000000000000000000000000000000     00000000                                                                                                                        000000000000000000
F0010000005827600005000002245670100013552100000000000000000201405170002001YOLANDA  TOBON                                    D000000000084000000000000000000000100010010000000000000000000000F0010000005827600520140517000101 00000000000000000000000000000000000000000000000000000000000000000000000000000000000000000000000000000000000000000N 00000000000NCONT   00    00000000000          00000000000000000000000000000000000000000000 000000000000000A000000000000000000000000000000000000000000000 000000000000000000000000000000000000000     00000000                                                                                                                        000000000000000000
F0010000005827700001000090047878200011050500000000000000000201405170002001GRUMAD SAS                                        D000000003800000000000000000000000100010010000000000000000000000F0010000005827700120140517000101 00000000000000000000000000000000000000000000000000000000000000000000000000000000000000000000000000000000000000000N 00000000000NCONT   00    00000000000          00000000000000000000000000000000000000000000 000000000000000A000000000000000000000000000000000000000000000 000000000000000000000000000000000000000     00000000                                                                                                                        000000000000000000
F0010000005827700002000090047878200041450500000000000000000201405170002001GRUMAD SAS                                        C000000003000000000000000000000000100010010000000000000000000000F0010000005827700220140517000101 00000000000000000000000000000000000000000000000000000000000000000000000000000000000000000000000000000000000000000N 00000000000NCONT   00    00000000000          00000000000000000000000000000000000000000000 000000000000000A000000000000000000000000000000000000000000000 000000000000000000000000000000000000000     00000000                                                                                                                        000000000000000000
F0010000005827700003000090047878200042505000000000000000000201405170002001GRUMAD SAS                                        C000000000800000000000000000000000100010010000000000000000000000F0010000005827700320140517000101 00000000000000000000000000000000000000000000000000000000000000000000000000000000000000000000000000000000000000000N 00000000000NCONT   00    00000000000          00000000000000000000000000000000000000000000 000000000000000A000000000000000000000000000000000000000000000 000000000000000000000000000000000000000     00000000                                                                                                                        000000000000000000
F0010000005827700004000090047878200023658300000000000000000201405170002001GRUMAD SAS                                        C000000000024000000000000000000000100010010000000000000000000000F0010000005827700420140517000101 00000000000000000000000000000000000000000000000000000000000000000000000000000000000000000000000000000000000000000N 00000000000NCONT   00    00000000000          00000000000000000000000000000000000000000000 000000000000000A000000000000000000000000000000000000000000000 000000000000000000000000000000000000000     00000000                                                                                                                        000000000000000000
F0010000005827700005000090047878200013552100000000000000000201405170002001GRUMAD SAS                                        D000000000024000000000000000000000100010010000000000000000000000F0010000005827700520140517000101 00000000000000000000000000000000000000000000000000000000000000000000000000000000000000000000000000000000000000000N 00000000000NCONT   00    00000000000          00000000000000000000000000000000000000000000 000000000000000A000000000000000000000000000000000000000000000 000000000000000000000000000000000000000     00000000                                                                                                                        000000000000000000
F0010000005827800001000090047878200011050500000000000000000201405170002001GRUMAD SAS                                        D000000001900000000000000000000000100010010000000000000000000000F0010000005827800120140517000101 00000000000000000000000000000000000000000000000000000000000000000000000000000000000000000000000000000000000000000N 00000000000NCONT   00    00000000000          00000000000000000000000000000000000000000000 000000000000000A000000000000000000000000000000000000000000000 000000000000000000000000000000000000000     00000000                                                                                                                        000000000000000000
F0010000005827800002000090047878200041450500000000000000000201405170002001GRUMAD SAS                                        C000000001800000000000000000000000100010010000000000000000000000F0010000005827800220140517000101 00000000000000000000000000000000000000000000000000000000000000000000000000000000000000000000000000000000000000000N 00000000000NCONT   00    00000000000          00000000000000000000000000000000000000000000 000000000000000A000000000000000000000000000000000000000000000 000000000000000000000000000000000000000     00000000                                                                                                                        000000000000000000
F0010000005827800003000090047878200042505000000000000000000201405170002001GRUMAD SAS                                        C000000000100000000000000000000000100010010000000000000000000000F0010000005827800320140517000101 00000000000000000000000000000000000000000000000000000000000000000000000000000000000000000000000000000000000000000N 00000000000NCONT   00    00000000000          00000000000000000000000000000000000000000000 000000000000000A000000000000000000000000000000000000000000000 000000000000000000000000000000000000000     00000000                                                                                                                        000000000000000000
F0010000005827800004000090047878200023658300000000000000000201405170002001GRUMAD SAS                                        C000000000014400000000000000000000100010010000000000000000000000F0010000005827800420140517000101 00000000000000000000000000000000000000000000000000000000000000000000000000000000000000000000000000000000000000000N 00000000000NCONT   00    00000000000          00000000000000000000000000000000000000000000 000000000000000A000000000000000000000000000000000000000000000 000000000000000000000000000000000000000     00000000                                                                                                                        000000000000000000
F0010000005827800005000090047878200013552100000000000000000201405170002001GRUMAD SAS                                        D000000000014400000000000000000000100010010000000000000000000000F0010000005827800520140517000101 00000000000000000000000000000000000000000000000000000000000000000000000000000000000000000000000000000000000000000N 00000000000NCONT   00    00000000000          00000000000000000000000000000000000000000000 000000000000000A000000000000000000000000000000000000000000000 000000000000000000000000000000000000000     00000000                                                                                                                        000000000000000000
F0010000005827900001000090020547900011050500000000000000000201405170002001DAC DEL CARIBE S.A.S.                             D000000003000000000000000000000000100010010000000000000000000000F0010000005827900120140517000101 00000000000000000000000000000000000000000000000000000000000000000000000000000000000000000000000000000000000000000N 00000000000NCONT   00    00000000000          00000000000000000000000000000000000000000000 000000000000000A000000000000000000000000000000000000000000000 000000000000000000000000000000000000000     00000000                                                                                                                        000000000000000000
F0010000005827900002000090020547900041450500000000000000000201405170002001DAC DEL CARIBE S.A.S.                             C000000002600000000000000000000000100010010000000000000000000000F0010000005827900220140517000101 00000000000000000000000000000000000000000000000000000000000000000000000000000000000000000000000000000000000000000N 00000000000NCONT   00    00000000000          00000000000000000000000000000000000000000000 000000000000000A000000000000000000000000000000000000000000000 000000000000000000000000000000000000000     00000000                                                                                                                        000000000000000000
F0010000005827900003000090020547900042505000000000000000000201405170002001DAC DEL CARIBE S.A.S.                             C000000000400000000000000000000000100010010000000000000000000000F0010000005827900320140517000101 00000000000000000000000000000000000000000000000000000000000000000000000000000000000000000000000000000000000000000N 00000000000NCONT   00    00000000000          00000000000000000000000000000000000000000000 000000000000000A000000000000000000000000000000000000000000000 000000000000000000000000000000000000000     00000000                                                                                                                        000000000000000000
F0010000005827900004000090020547900023658300000000000000000201405170002001DAC DEL CARIBE S.A.S.                             C000000000020800000000000000000000100010010000000000000000000000F0010000005827900420140517000101 00000000000000000000000000000000000000000000000000000000000000000000000000000000000000000000000000000000000000000N 00000000000NCONT   00    00000000000          00000000000000000000000000000000000000000000 000000000000000A000000000000000000000000000000000000000000000 000000000000000000000000000000000000000     00000000                                                                                                                        000000000000000000
F0010000005827900005000090020547900013552100000000000000000201405170002001DAC DEL CARIBE S.A.S.                             D000000000020800000000000000000000100010010000000000000000000000F0010000005827900520140517000101 00000000000000000000000000000000000000000000000000000000000000000000000000000000000000000000000000000000000000000N 00000000000NCONT   00    00000000000          00000000000000000000000000000000000000000000 000000000000000A000000000000000000000000000000000000000000000 000000000000000000000000000000000000000     00000000                                                                                                                        000000000000000000
F0010000005828000001000090020547900011050500000000000000000201405170002001DAC DEL CARIBE S.A.S.                             D000000003300000000000000000000000100010010000000000000000000000F0010000005828000120140517000101 00000000000000000000000000000000000000000000000000000000000000000000000000000000000000000000000000000000000000000N 00000000000NCONT   00    00000000000          00000000000000000000000000000000000000000000 000000000000000A000000000000000000000000000000000000000000000 000000000000000000000000000000000000000     00000000                                                                                                                        000000000000000000
F0010000005828000002000090020547900041450500000000000000000201405170002001DAC DEL CARIBE S.A.S.                             C000000002600000000000000000000000100010010000000000000000000000F0010000005828000220140517000101 00000000000000000000000000000000000000000000000000000000000000000000000000000000000000000000000000000000000000000N 00000000000NCONT   00    00000000000          00000000000000000000000000000000000000000000 000000000000000A000000000000000000000000000000000000000000000 000000000000000000000000000000000000000     00000000                                                                                                                        000000000000000000
F0010000005828000003000090020547900042505000000000000000000201405170002001DAC DEL CARIBE S.A.S.                             C000000000700000000000000000000000100010010000000000000000000000F0010000005828000320140517000101 00000000000000000000000000000000000000000000000000000000000000000000000000000000000000000000000000000000000000000N 00000000000NCONT   00    00000000000          00000000000000000000000000000000000000000000 000000000000000A000000000000000000000000000000000000000000000 000000000000000000000000000000000000000     00000000                                                                                                                        000000000000000000
F0010000005828000004000090020547900023658300000000000000000201405170002001DAC DEL CARIBE S.A.S.                             C000000000020800000000000000000000100010010000000000000000000000F0010000005828000420140517000101 00000000000000000000000000000000000000000000000000000000000000000000000000000000000000000000000000000000000000000N 00000000000NCONT   00    00000000000          00000000000000000000000000000000000000000000 000000000000000A000000000000000000000000000000000000000000000 000000000000000000000000000000000000000     00000000                                                                                                                        000000000000000000
F0010000005828000005000090020547900013552100000000000000000201405170002001DAC DEL CARIBE S.A.S.                             D000000000020800000000000000000000100010010000000000000000000000F0010000005828000520140517000101 00000000000000000000000000000000000000000000000000000000000000000000000000000000000000000000000000000000000000000N 00000000000NCONT   00    00000000000          00000000000000000000000000000000000000000000 000000000000000A000000000000000000000000000000000000000000000 000000000000000000000000000000000000000     00000000                                                                                                                        000000000000000000
F0010000005828100001000090020547900011050500000000000000000201405170002001DAC DEL CARIBE S.A.S.                             D000000004900000000000000000000000100010010000000000000000000000F0010000005828100120140517000101 00000000000000000000000000000000000000000000000000000000000000000000000000000000000000000000000000000000000000000N 00000000000NCONT   00    00000000000          00000000000000000000000000000000000000000000 000000000000000A000000000000000000000000000000000000000000000 000000000000000000000000000000000000000     00000000                                                                                                                        000000000000000000
F0010000005828100002000090020547900041450500000000000000000201405170002001DAC DEL CARIBE S.A.S.                             C000000003900000000000000000000000100010010000000000000000000000F0010000005828100220140517000101 00000000000000000000000000000000000000000000000000000000000000000000000000000000000000000000000000000000000000000N 00000000000NCONT   00    00000000000          00000000000000000000000000000000000000000000 000000000000000A000000000000000000000000000000000000000000000 000000000000000000000000000000000000000     00000000                                                                                                                        000000000000000000
F0010000005828100003000090020547900042505000000000000000000201405170002001DAC DEL CARIBE S.A.S.                             C000000001000000000000000000000000100010010000000000000000000000F0010000005828100320140517000101 00000000000000000000000000000000000000000000000000000000000000000000000000000000000000000000000000000000000000000N 00000000000NCONT   00    00000000000          00000000000000000000000000000000000000000000 000000000000000A000000000000000000000000000000000000000000000 000000000000000000000000000000000000000     00000000                                                                                                                        000000000000000000
F0010000005828100004000090020547900023658300000000000000000201405170002001DAC DEL CARIBE S.A.S.                             C000000000031200000000000000000000100010010000000000000000000000F0010000005828100420140517000101 00000000000000000000000000000000000000000000000000000000000000000000000000000000000000000000000000000000000000000N 00000000000NCONT   00    00000000000          00000000000000000000000000000000000000000000 000000000000000A000000000000000000000000000000000000000000000 000000000000000000000000000000000000000     00000000                                                                                                                        000000000000000000
F0010000005828100005000090020547900013552100000000000000000201405170002001DAC DEL CARIBE S.A.S.                             D000000000031200000000000000000000100010010000000000000000000000F0010000005828100520140517000101 00000000000000000000000000000000000000000000000000000000000000000000000000000000000000000000000000000000000000000N 00000000000NCONT   00    00000000000          00000000000000000000000000000000000000000000 000000000000000A000000000000000000000000000000000000000000000 000000000000000000000000000000000000000     00000000                                                                                                                        000000000000000000
F0010000005828200001000090020547900011050500000000000000000201405170002001DAC DEL CARIBE S.A.S.                             D000000001700000000000000000000000100010010000000000000000000000F0010000005828200120140517000101 00000000000000000000000000000000000000000000000000000000000000000000000000000000000000000000000000000000000000000N 00000000000NCONT   00    00000000000          00000000000000000000000000000000000000000000 000000000000000A000000000000000000000000000000000000000000000 000000000000000000000000000000000000000     00000000                                                                                                                        000000000000000000
F0010000005828200002000090020547900041450500000000000000000201405170002001DAC DEL CARIBE S.A.S.                             C000000001300000000000000000000000100010010000000000000000000000F0010000005828200220140517000101 00000000000000000000000000000000000000000000000000000000000000000000000000000000000000000000000000000000000000000N 00000000000NCONT   00    00000000000          00000000000000000000000000000000000000000000 000000000000000A000000000000000000000000000000000000000000000 000000000000000000000000000000000000000     00000000                                                                                                                        000000000000000000
F0010000005828200003000090020547900042505000000000000000000201405170002001DAC DEL CARIBE S.A.S.                             C000000000400000000000000000000000100010010000000000000000000000F0010000005828200320140517000101 00000000000000000000000000000000000000000000000000000000000000000000000000000000000000000000000000000000000000000N 00000000000NCONT   00    00000000000          00000000000000000000000000000000000000000000 000000000000000A000000000000000000000000000000000000000000000 000000000000000000000000000000000000000     00000000                                                                                                                        000000000000000000
F0010000005828200004000090020547900023658300000000000000000201405170002001DAC DEL CARIBE S.A.S.                             C000000000010400000000000000000000100010010000000000000000000000F0010000005828200420140517000101 00000000000000000000000000000000000000000000000000000000000000000000000000000000000000000000000000000000000000000N 00000000000NCONT   00    00000000000          00000000000000000000000000000000000000000000 000000000000000A000000000000000000000000000000000000000000000 000000000000000000000000000000000000000     00000000                                                                                                                        000000000000000000
F0010000005828200005000090020547900013552100000000000000000201405170002001DAC DEL CARIBE S.A.S.                             D000000000010400000000000000000000100010010000000000000000000000F0010000005828200520140517000101 00000000000000000000000000000000000000000000000000000000000000000000000000000000000000000000000000000000000000000N 00000000000NCONT   00    00000000000          00000000000000000000000000000000000000000000 000000000000000A000000000000000000000000000000000000000000000 000000000000000000000000000000000000000     00000000                                                                                                                        000000000000000000
F0010000005828300001000090066556300011050500000000000000000201405170002001DISTRIMAFFER DE LA COSTA                          D000000007000000000000000000000000100010010000000000000000000000F0010000005828300120140517000101 00000000000000000000000000000000000000000000000000000000000000000000000000000000000000000000000000000000000000000N 00000000000NCONT   00    00000000000          00000000000000000000000000000000000000000000 000000000000000A000000000000000000000000000000000000000000000 000000000000000000000000000000000000000     00000000                                                                                                                        000000000000000000
F0010000005828300002000090066556300041450500000000000000000201405170002001DISTRIMAFFER DE LA COSTA                          C000000006000000000000000000000000100010010000000000000000000000F0010000005828300220140517000101 00000000000000000000000000000000000000000000000000000000000000000000000000000000000000000000000000000000000000000N 00000000000NCONT   00    00000000000          00000000000000000000000000000000000000000000 000000000000000A000000000000000000000000000000000000000000000 000000000000000000000000000000000000000     00000000                                                                                                                        000000000000000000
F0010000005828300003000090066556300042505000000000000000000201405170002001DISTRIMAFFER DE LA COSTA                          C000000001000000000000000000000000100010010000000000000000000000F0010000005828300320140517000101 00000000000000000000000000000000000000000000000000000000000000000000000000000000000000000000000000000000000000000N 00000000000NCONT   00    00000000000          00000000000000000000000000000000000000000000 000000000000000A000000000000000000000000000000000000000000000 000000000000000000000000000000000000000     00000000                                                                                                                        000000000000000000
F0010000005828300004000090066556300023658300000000000000000201405170002001DISTRIMAFFER DE LA COSTA                          C000000000048000000000000000000000100010010000000000000000000000F0010000005828300420140517000101 00000000000000000000000000000000000000000000000000000000000000000000000000000000000000000000000000000000000000000N 00000000000NCONT   00    00000000000          00000000000000000000000000000000000000000000 000000000000000A000000000000000000000000000000000000000000000 000000000000000000000000000000000000000     00000000                                                                                                                        000000000000000000
F0010000005828300005000090066556300013552100000000000000000201405170002001DISTRIMAFFER DE LA COSTA                          D000000000048000000000000000000000100010010000000000000000000000F0010000005828300520140517000101 00000000000000000000000000000000000000000000000000000000000000000000000000000000000000000000000000000000000000000N 00000000000NCONT   00    00000000000          00000000000000000000000000000000000000000000 000000000000000A000000000000000000000000000000000000000000000 000000000000000000000000000000000000000     00000000                                                                                                                        000000000000000000
F0010000005828400001000107225647100011050500000000000000000201405170002001JHON BYRON DUQUE DONADO (BODEGA JHONIFER)         D000000001000000000000000000000000100010010000000000000000000000F0010000005828400120140517000101 00000000000000000000000000000000000000000000000000000000000000000000000000000000000000000000000000000000000000000N 00000000000NCONT   00    00000000000          00000000000000000000000000000000000000000000 000000000000000A000000000000000000000000000000000000000000000 000000000000000000000000000000000000000     00000000                                                                                                                        000000000000000000
F0010000005828400002000107225647100041450500000000000000000201405170002001JHON BYRON DUQUE DONADO (BODEGA JHONIFER)         C000000000900000000000000000000000100010010000000000000000000000F0010000005828400220140517000101 00000000000000000000000000000000000000000000000000000000000000000000000000000000000000000000000000000000000000000N 00000000000NCONT   00    00000000000          00000000000000000000000000000000000000000000 000000000000000A000000000000000000000000000000000000000000000 000000000000000000000000000000000000000     00000000                                                                                                                        000000000000000000
F0010000005828400003000107225647100042505000000000000000000201405170002001JHON BYRON DUQUE DONADO (BODEGA JHONIFER)         C000000000100000000000000000000000100010010000000000000000000000F0010000005828400320140517000101 00000000000000000000000000000000000000000000000000000000000000000000000000000000000000000000000000000000000000000N 00000000000NCONT   00    00000000000          00000000000000000000000000000000000000000000 000000000000000A000000000000000000000000000000000000000000000 000000000000000000000000000000000000000     00000000                                                                                                                        000000000000000000
F0010000005828400004000107225647100023658300000000000000000201405170002001JHON BYRON DUQUE DONADO (BODEGA JHONIFER)         C000000000007200000000000000000000100010010000000000000000000000F0010000005828400420140517000101 00000000000000000000000000000000000000000000000000000000000000000000000000000000000000000000000000000000000000000N 00000000000NCONT   00    00000000000          00000000000000000000000000000000000000000000 000000000000000A000000000000000000000000000000000000000000000 000000000000000000000000000000000000000     00000000                                                                                                                        000000000000000000
F0010000005828400005000107225647100013552100000000000000000201405170002001JHON BYRON DUQUE DONADO (BODEGA JHONIFER)         D000000000007200000000000000000000100010010000000000000000000000F0010000005828400520140517000101 00000000000000000000000000000000000000000000000000000000000000000000000000000000000000000000000000000000000000000N 00000000000NCONT   00    00000000000          00000000000000000000000000000000000000000000 000000000000000A000000000000000000000000000000000000000000000 000000000000000000000000000000000000000     00000000                                                                                                                        000000000000000000
F0010000005828500001000007200023300011050500000000000000000201405170002001WILLIAM ORTEGA                                    D000000004300000000000000000000000100010010000000000000000000000F0010000005828500120140517000101 00000000000000000000000000000000000000000000000000000000000000000000000000000000000000000000000000000000000000000N 00000000000NCONT   00    00000000000          00000000000000000000000000000000000000000000 000000000000000A000000000000000000000000000000000000000000000 000000000000000000000000000000000000000     00000000                                                                                                                        000000000000000000
F0010000005828500002000007200023300041450500000000000000000201405170002001WILLIAM ORTEGA                                    C000000004000000000000000000000000100010010000000000000000000000F0010000005828500220140517000101 00000000000000000000000000000000000000000000000000000000000000000000000000000000000000000000000000000000000000000N 00000000000NCONT   00    00000000000          00000000000000000000000000000000000000000000 000000000000000A000000000000000000000000000000000000000000000 000000000000000000000000000000000000000     00000000                                                                                                                        000000000000000000
F0010000005828500003000007200023300042505000000000000000000201405170002001WILLIAM ORTEGA                                    C000000000300000000000000000000000100010010000000000000000000000F0010000005828500320140517000101 00000000000000000000000000000000000000000000000000000000000000000000000000000000000000000000000000000000000000000N 00000000000NCONT   00    00000000000          00000000000000000000000000000000000000000000 000000000000000A000000000000000000000000000000000000000000000 000000000000000000000000000000000000000     00000000                                                                                                                        000000000000000000
F0010000005828500004000007200023300023658300000000000000000201405170002001WILLIAM ORTEGA                                    C000000000032000000000000000000000100010010000000000000000000000F0010000005828500420140517000101 00000000000000000000000000000000000000000000000000000000000000000000000000000000000000000000000000000000000000000N 00000000000NCONT   00    00000000000          00000000000000000000000000000000000000000000 000000000000000A000000000000000000000000000000000000000000000 000000000000000000000000000000000000000     00000000                                                                                                                        000000000000000000
F0010000005828500005000007200023300013552100000000000000000201405170002001WILLIAM ORTEGA                                    D000000000032000000000000000000000100010010000000000000000000000F0010000005828500520140517000101 00000000000000000000000000000000000000000000000000000000000000000000000000000000000000000000000000000000000000000N 00000000000NCONT   00    00000000000          00000000000000000000000000000000000000000000 000000000000000A000000000000000000000000000000000000000000000 000000000000000000000000000000000000000     00000000                                                                                                                        000000000000000000
F0010000005828600001000004175790100011050500000000000000000201405170002001ROSIRIS FERIA HOYOS  (COSM. SHILLER)              D000000001100000000000000000000000100010010000000000000000000000F0010000005828600120140517000101 00000000000000000000000000000000000000000000000000000000000000000000000000000000000000000000000000000000000000000N 00000000000NCONT   00    00000000000          00000000000000000000000000000000000000000000 000000000000000A000000000000000000000000000000000000000000000 000000000000000000000000000000000000000     00000000                                                                                                                        000000000000000000
F0010000005828600002000004175790100041450500000000000000000201405170002001ROSIRIS FERIA HOYOS  (COSM. SHILLER)              C000000001000000000000000000000000100010010000000000000000000000F0010000005828600220140517000101 00000000000000000000000000000000000000000000000000000000000000000000000000000000000000000000000000000000000000000N 00000000000NCONT   00    00000000000          00000000000000000000000000000000000000000000 000000000000000A000000000000000000000000000000000000000000000 000000000000000000000000000000000000000     00000000                                                                                                                        000000000000000000
F0010000005828600003000004175790100042505000000000000000000201405170002001ROSIRIS FERIA HOYOS  (COSM. SHILLER)              C000000000100000000000000000000000100010010000000000000000000000F0010000005828600320140517000101 00000000000000000000000000000000000000000000000000000000000000000000000000000000000000000000000000000000000000000N 00000000000NCONT   00    00000000000          00000000000000000000000000000000000000000000 000000000000000A000000000000000000000000000000000000000000000 000000000000000000000000000000000000000     00000000                                                                                                                        000000000000000000
F0010000005828600004000004175790100023658300000000000000000201405170002001ROSIRIS FERIA HOYOS  (COSM. SHILLER)              C000000000008000000000000000000000100010010000000000000000000000F0010000005828600420140517000101 00000000000000000000000000000000000000000000000000000000000000000000000000000000000000000000000000000000000000000N 00000000000NCONT   00    00000000000          00000000000000000000000000000000000000000000 000000000000000A000000000000000000000000000000000000000000000 000000000000000000000000000000000000000     00000000                                                                                                                        000000000000000000
F0010000005828600005000004175790100013552100000000000000000201405170002001ROSIRIS FERIA HOYOS  (COSM. SHILLER)              D000000000008000000000000000000000100010010000000000000000000000F0010000005828600520140517000101 00000000000000000000000000000000000000000000000000000000000000000000000000000000000000000000000000000000000000000N 00000000000NCONT   00    00000000000          00000000000000000000000000000000000000000000 000000000000000A000000000000000000000000000000000000000000000 000000000000000000000000000000000000000     00000000                                                                                                                        000000000000000000
F0010000005828700001000090061074300011050500000000000000000201405170002001TECNIACERO H.R.                                   D000000005000000000000000000000000100010010000000000000000000000F0010000005828700120140517000101 00000000000000000000000000000000000000000000000000000000000000000000000000000000000000000000000000000000000000000N 00000000000NCONT   00    00000000000          00000000000000000000000000000000000000000000 000000000000000A000000000000000000000000000000000000000000000 000000000000000000000000000000000000000     00000000                                                                                                                        000000000000000000
F0010000005828700002000090061074300041450500000000000000000201405170002001TECNIACERO H.R.                                   C000000004800000000000000000000000100010010000000000000000000000F0010000005828700220140517000101 00000000000000000000000000000000000000000000000000000000000000000000000000000000000000000000000000000000000000000N 00000000000NCONT   00    00000000000          00000000000000000000000000000000000000000000 000000000000000A000000000000000000000000000000000000000000000 000000000000000000000000000000000000000     00000000                                                                                                                        000000000000000000
F0010000005828700003000090061074300042505000000000000000000201405170002001TECNIACERO H.R.                                   C000000000200000000000000000000000100010010000000000000000000000F0010000005828700320140517000101 00000000000000000000000000000000000000000000000000000000000000000000000000000000000000000000000000000000000000000N 00000000000NCONT   00    00000000000          00000000000000000000000000000000000000000000 000000000000000A000000000000000000000000000000000000000000000 000000000000000000000000000000000000000     00000000                                                                                                                        000000000000000000
F0010000005828700004000090061074300023658300000000000000000201405170002001TECNIACERO H.R.                                   C000000000038400000000000000000000100010010000000000000000000000F0010000005828700420140517000101 00000000000000000000000000000000000000000000000000000000000000000000000000000000000000000000000000000000000000000N 00000000000NCONT   00    00000000000          00000000000000000000000000000000000000000000 000000000000000A000000000000000000000000000000000000000000000 000000000000000000000000000000000000000     00000000                                                                                                                        000000000000000000
F0010000005828700005000090061074300013552100000000000000000201405170002001TECNIACERO H.R.                                   D000000000038400000000000000000000100010010000000000000000000000F0010000005828700520140517000101 00000000000000000000000000000000000000000000000000000000000000000000000000000000000000000000000000000000000000000N 00000000000NCONT   00    00000000000          00000000000000000000000000000000000000000000 000000000000000A000000000000000000000000000000000000000000000 000000000000000000000000000000000000000     00000000                                                                                                                        000000000000000000
F0010000005828800001000090001458500011050500000000000000000201405170002001MATERIALES OLAYA                                  D000000003200000000000000000000000100010010000000000000000000000F0010000005828800120140517000101 00000000000000000000000000000000000000000000000000000000000000000000000000000000000000000000000000000000000000000N 00000000000NCONT   00    00000000000          00000000000000000000000000000000000000000000 000000000000000A000000000000000000000000000000000000000000000 000000000000000000000000000000000000000     00000000                                                                                                                        000000000000000000
F0010000005828800002000090001458500041450500000000000000000201405170002001MATERIALES OLAYA                                  C000000003000000000000000000000000100010010000000000000000000000F0010000005828800220140517000101 00000000000000000000000000000000000000000000000000000000000000000000000000000000000000000000000000000000000000000N 00000000000NCONT   00    00000000000          00000000000000000000000000000000000000000000 000000000000000A000000000000000000000000000000000000000000000 000000000000000000000000000000000000000     00000000                                                                                                                        000000000000000000
F0010000005828800003000090001458500042505000000000000000000201405170002001MATERIALES OLAYA                                  C000000000200000000000000000000000100010010000000000000000000000F0010000005828800320140517000101 00000000000000000000000000000000000000000000000000000000000000000000000000000000000000000000000000000000000000000N 00000000000NCONT   00    00000000000          00000000000000000000000000000000000000000000 000000000000000A000000000000000000000000000000000000000000000 000000000000000000000000000000000000000     00000000                                                                                                                        000000000000000000
F0010000005828800004000090001458500023658300000000000000000201405170002001MATERIALES OLAYA                                  C000000000024000000000000000000000100010010000000000000000000000F0010000005828800420140517000101 00000000000000000000000000000000000000000000000000000000000000000000000000000000000000000000000000000000000000000N 00000000000NCONT   00    00000000000          00000000000000000000000000000000000000000000 000000000000000A000000000000000000000000000000000000000000000 000000000000000000000000000000000000000     00000000                                                                                                                        000000000000000000
F0010000005828800005000090001458500013552100000000000000000201405170002001MATERIALES OLAYA                                  D000000000024000000000000000000000100010010000000000000000000000F0010000005828800520140517000101 00000000000000000000000000000000000000000000000000000000000000000000000000000000000000000000000000000000000000000N 00000000000NCONT   00    00000000000          00000000000000000000000000000000000000000000 000000000000000A000000000000000000000000000000000000000000000 000000000000000000000000000000000000000     00000000                                                                                                                        000000000000000000
F0010000005828900001000003319910700011050500000000000000000201405170002001LUZ DARY JIMENEZ MARTINEZ                         D000000001100000000000000000000000100010010000000000000000000000F0010000005828900120140517000101 00000000000000000000000000000000000000000000000000000000000000000000000000000000000000000000000000000000000000000N 00000000000NCONT   00    00000000000          00000000000000000000000000000000000000000000 000000000000000A000000000000000000000000000000000000000000000 000000000000000000000000000000000000000     00000000                                                                                                                        000000000000000000
F0010000005828900002000003319910700041450500000000000000000201405170002001LUZ DARY JIMENEZ MARTINEZ                         C000000001000000000000000000000000100010010000000000000000000000F0010000005828900220140517000101 00000000000000000000000000000000000000000000000000000000000000000000000000000000000000000000000000000000000000000N 00000000000NCONT   00    00000000000          00000000000000000000000000000000000000000000 000000000000000A000000000000000000000000000000000000000000000 000000000000000000000000000000000000000     00000000                                                                                                                        000000000000000000
F0010000005828900003000003319910700042505000000000000000000201405170002001LUZ DARY JIMENEZ MARTINEZ                         C000000000100000000000000000000000100010010000000000000000000000F0010000005828900320140517000101 00000000000000000000000000000000000000000000000000000000000000000000000000000000000000000000000000000000000000000N 00000000000NCONT   00    00000000000          00000000000000000000000000000000000000000000 000000000000000A000000000000000000000000000000000000000000000 000000000000000000000000000000000000000     00000000                                                                                                                        000000000000000000
F0010000005828900004000003319910700023658300000000000000000201405170002001LUZ DARY JIMENEZ MARTINEZ                         C000000000008000000000000000000000100010010000000000000000000000F0010000005828900420140517000101 00000000000000000000000000000000000000000000000000000000000000000000000000000000000000000000000000000000000000000N 00000000000NCONT   00    00000000000          00000000000000000000000000000000000000000000 000000000000000A000000000000000000000000000000000000000000000 000000000000000000000000000000000000000     00000000                                                                                                                        000000000000000000
F0010000005828900005000003319910700013552100000000000000000201405170002001LUZ DARY JIMENEZ MARTINEZ                         D000000000008000000000000000000000100010010000000000000000000000F0010000005828900520140517000101 00000000000000000000000000000000000000000000000000000000000000000000000000000000000000000000000000000000000000000N 00000000000NCONT   00    00000000000          00000000000000000000000000000000000000000000 000000000000000A000000000000000000000000000000000000000000000 000000000000000000000000000000000000000     00000000                                                                                                                        000000000000000000
