F0010000010379400001000007215487700011050500000000000000000201709210002001AGRODISTRIBUCIONES M Y M                          D000000001200000000000000000000000100010010000000000000000000000F0010000010379400120170921000101 00000000000000000000000000000000000000000000000000000000000000000000000000000000000000000000000000000000000000000N 00000000000NCONT   00    00000000000          00000000000000000000000000000000000000000000 000000000000000A000000000000000000000000000000000000000000000 000000000000000000000000000000000000000     00000000                                                                                                                        000000000000000000
F0010000010379400002000007215487700041450500000000000000000201709210002001AGRODISTRIBUCIONES M Y M                          C000000001100000000000000000000000100010010000000000000000000000F0010000010379400220170921000101 00000000000000000000000000000000000000000000000000000000000000000000000000000000000000000000000000000000000000000N 00000000000NCONT   00    00000000000          00000000000000000000000000000000000000000000 000000000000000A000000000000000000000000000000000000000000000 000000000000000000000000000000000000000     00000000                                                                                                                        000000000000000000
F0010000010379400003000007215487700042505000000000000000000201709210002001AGRODISTRIBUCIONES M Y M                          C000000000100000000000000000000000100010010000000000000000000000F0010000010379400320170921000101 00000000000000000000000000000000000000000000000000000000000000000000000000000000000000000000000000000000000000000N 00000000000NCONT   00    00000000000          00000000000000000000000000000000000000000000 000000000000000A000000000000000000000000000000000000000000000 000000000000000000000000000000000000000     00000000                                                                                                                        000000000000000000
F0010000010379400004000007215487700023658300000000000000000201709210002001AGRODISTRIBUCIONES M Y M                          C000000000000000000000000000000000100010010000000000000000000000F0010000010379400420170921000101 00000000000000000000000000000000000000000000000000000000000000000000000000000000000000000000000000000000000000000N 00000000000NCONT   00    00000000000          00000000000000000000000000000000000000000000 000000000000000A000000000000000000000000000000000000000000000 000000000000000000000000000000000000000     00000000                                                                                                                        000000000000000000
F0010000010379400005000007215487700013552100000000000000000201709210002001AGRODISTRIBUCIONES M Y M                          D000000000000000000000000000000000100010010000000000000000000000F0010000010379400520170921000101 00000000000000000000000000000000000000000000000000000000000000000000000000000000000000000000000000000000000000000N 00000000000NCONT   00    00000000000          00000000000000000000000000000000000000000000 000000000000000A000000000000000000000000000000000000000000000 000000000000000000000000000000000000000     00000000                                                                                                                        000000000000000000
F0010000010379500001000089011492400013050500000000000000000201709210002001AGE. CAUCHOSOL DE LA COSTA  SAS                   D000000059884300000000000000000000100010010000000000000000000000F0010000010379500120170921000101 00000000000000000000000000000000000000000000000000000000000000000000000000000000000000000000000000000000000000000N 00000000000NCONT   00    00000000000          00000000000000000000000000000000000000000000 000000000000000A000000000000000000000000000000000000000000000 000000000000000000000000000000000000000     00000000                                                                                                                        000000000000000000
F0010000010379500002000089011492400041450500000000000000000201709210002001AGE. CAUCHOSOL DE LA COSTA  SAS                   C000000037860000000000000000000000100010010000000000000000000000F0010000010379500220170921000101 00000000000000000000000000000000000000000000000000000000000000000000000000000000000000000000000000000000000000000N 00000000000NCONT   00    00000000000          00000000000000000000000000000000000000000000 000000000000000A000000000000000000000000000000000000000000000 000000000000000000000000000000000000000     00000000                                                                                                                        000000000000000000
F0010000010379500003000089011492400042505000000000000000000201709210002001AGE. CAUCHOSOL DE LA COSTA  SAS                   C000000022024300000000000000000000100010010000000000000000000000F0010000010379500320170921000101 00000000000000000000000000000000000000000000000000000000000000000000000000000000000000000000000000000000000000000N 00000000000NCONT   00    00000000000          00000000000000000000000000000000000000000000 000000000000000A000000000000000000000000000000000000000000000 000000000000000000000000000000000000000     00000000                                                                                                                        000000000000000000
F0010000010379500004000089011492400023658300000000000000000201709210002001AGE. CAUCHOSOL DE LA COSTA  SAS                   C000000000000000000000000000000000100010010000000000000000000000F0010000010379500420170921000101 00000000000000000000000000000000000000000000000000000000000000000000000000000000000000000000000000000000000000000N 00000000000NCONT   00    00000000000          00000000000000000000000000000000000000000000 000000000000000A000000000000000000000000000000000000000000000 000000000000000000000000000000000000000     00000000                                                                                                                        000000000000000000
F0010000010379500005000089011492400013552100000000000000000201709210002001AGE. CAUCHOSOL DE LA COSTA  SAS                   D000000000000000000000000000000000100010010000000000000000000000F0010000010379500520170921000101 00000000000000000000000000000000000000000000000000000000000000000000000000000000000000000000000000000000000000000N 00000000000NCONT   00    00000000000          00000000000000000000000000000000000000000000 000000000000000A000000000000000000000000000000000000000000000 000000000000000000000000000000000000000     00000000                                                                                                                        000000000000000000
F0010000010379600001000090027500500011050500000000000000000201709210002001MULTIALUMINIO LA 30 S.A.S.                        D000000003000000000000000000000000100010010000000000000000000000F0010000010379600120170921000101 00000000000000000000000000000000000000000000000000000000000000000000000000000000000000000000000000000000000000000N 00000000000NCONT   00    00000000000          00000000000000000000000000000000000000000000 000000000000000A000000000000000000000000000000000000000000000 000000000000000000000000000000000000000     00000000                                                                                                                        000000000000000000
F0010000010379600002000090027500500041450500000000000000000201709210002001MULTIALUMINIO LA 30 S.A.S.                        C000000002500000000000000000000000100010010000000000000000000000F0010000010379600220170921000101 00000000000000000000000000000000000000000000000000000000000000000000000000000000000000000000000000000000000000000N 00000000000NCONT   00    00000000000          00000000000000000000000000000000000000000000 000000000000000A000000000000000000000000000000000000000000000 000000000000000000000000000000000000000     00000000                                                                                                                        000000000000000000
F0010000010379600003000090027500500042505000000000000000000201709210002001MULTIALUMINIO LA 30 S.A.S.                        C000000000500000000000000000000000100010010000000000000000000000F0010000010379600320170921000101 00000000000000000000000000000000000000000000000000000000000000000000000000000000000000000000000000000000000000000N 00000000000NCONT   00    00000000000          00000000000000000000000000000000000000000000 000000000000000A000000000000000000000000000000000000000000000 000000000000000000000000000000000000000     00000000                                                                                                                        000000000000000000
F0010000010379600004000090027500500023658300000000000000000201709210002001MULTIALUMINIO LA 30 S.A.S.                        C000000000000000000000000000000000100010010000000000000000000000F0010000010379600420170921000101 00000000000000000000000000000000000000000000000000000000000000000000000000000000000000000000000000000000000000000N 00000000000NCONT   00    00000000000          00000000000000000000000000000000000000000000 000000000000000A000000000000000000000000000000000000000000000 000000000000000000000000000000000000000     00000000                                                                                                                        000000000000000000
F0010000010379600005000090027500500013552100000000000000000201709210002001MULTIALUMINIO LA 30 S.A.S.                        D000000000000000000000000000000000100010010000000000000000000000F0010000010379600520170921000101 00000000000000000000000000000000000000000000000000000000000000000000000000000000000000000000000000000000000000000N 00000000000NCONT   00    00000000000          00000000000000000000000000000000000000000000 000000000000000A000000000000000000000000000000000000000000000 000000000000000000000000000000000000000     00000000                                                                                                                        000000000000000000
F0010000010379700001000090090986500011050500000000000000000201709210002001IMPERACABADOS DEL CARIBE                          D000000003000000000000000000000000100010010000000000000000000000F0010000010379700120170921000101 00000000000000000000000000000000000000000000000000000000000000000000000000000000000000000000000000000000000000000N 00000000000NCONT   00    00000000000          00000000000000000000000000000000000000000000 000000000000000A000000000000000000000000000000000000000000000 000000000000000000000000000000000000000     00000000                                                                                                                        000000000000000000
F0010000010379700002000090090986500041450500000000000000000201709210002001IMPERACABADOS DEL CARIBE                          C000000002600000000000000000000000100010010000000000000000000000F0010000010379700220170921000101 00000000000000000000000000000000000000000000000000000000000000000000000000000000000000000000000000000000000000000N 00000000000NCONT   00    00000000000          00000000000000000000000000000000000000000000 000000000000000A000000000000000000000000000000000000000000000 000000000000000000000000000000000000000     00000000                                                                                                                        000000000000000000
F0010000010379700003000090090986500042505000000000000000000201709210002001IMPERACABADOS DEL CARIBE                          C000000000400000000000000000000000100010010000000000000000000000F0010000010379700320170921000101 00000000000000000000000000000000000000000000000000000000000000000000000000000000000000000000000000000000000000000N 00000000000NCONT   00    00000000000          00000000000000000000000000000000000000000000 000000000000000A000000000000000000000000000000000000000000000 000000000000000000000000000000000000000     00000000                                                                                                                        000000000000000000
F0010000010379700004000090090986500023658300000000000000000201709210002001IMPERACABADOS DEL CARIBE                          C000000000000000000000000000000000100010010000000000000000000000F0010000010379700420170921000101 00000000000000000000000000000000000000000000000000000000000000000000000000000000000000000000000000000000000000000N 00000000000NCONT   00    00000000000          00000000000000000000000000000000000000000000 000000000000000A000000000000000000000000000000000000000000000 000000000000000000000000000000000000000     00000000                                                                                                                        000000000000000000
F0010000010379700005000090090986500013552100000000000000000201709210002001IMPERACABADOS DEL CARIBE                          D000000000000000000000000000000000100010010000000000000000000000F0010000010379700520170921000101 00000000000000000000000000000000000000000000000000000000000000000000000000000000000000000000000000000000000000000N 00000000000NCONT   00    00000000000          00000000000000000000000000000000000000000000 000000000000000A000000000000000000000000000000000000000000000 000000000000000000000000000000000000000     00000000                                                                                                                        000000000000000000
F0010000010379800001000000869402400011050500000000000000000201709210002001ISRAEL MANGA                                      D000000001700000000000000000000000100010010000000000000000000000F0010000010379800120170921000101 00000000000000000000000000000000000000000000000000000000000000000000000000000000000000000000000000000000000000000N 00000000000NCONT   00    00000000000          00000000000000000000000000000000000000000000 000000000000000A000000000000000000000000000000000000000000000 000000000000000000000000000000000000000     00000000                                                                                                                        000000000000000000
F0010000010379800002000000869402400041450500000000000000000201709210002001ISRAEL MANGA                                      C000000001250000000000000000000000100010010000000000000000000000F0010000010379800220170921000101 00000000000000000000000000000000000000000000000000000000000000000000000000000000000000000000000000000000000000000N 00000000000NCONT   00    00000000000          00000000000000000000000000000000000000000000 000000000000000A000000000000000000000000000000000000000000000 000000000000000000000000000000000000000     00000000                                                                                                                        000000000000000000
F0010000010379800003000000869402400042505000000000000000000201709210002001ISRAEL MANGA                                      C000000000450000000000000000000000100010010000000000000000000000F0010000010379800320170921000101 00000000000000000000000000000000000000000000000000000000000000000000000000000000000000000000000000000000000000000N 00000000000NCONT   00    00000000000          00000000000000000000000000000000000000000000 000000000000000A000000000000000000000000000000000000000000000 000000000000000000000000000000000000000     00000000                                                                                                                        000000000000000000
F0010000010379800004000000869402400023658300000000000000000201709210002001ISRAEL MANGA                                      C000000000000000000000000000000000100010010000000000000000000000F0010000010379800420170921000101 00000000000000000000000000000000000000000000000000000000000000000000000000000000000000000000000000000000000000000N 00000000000NCONT   00    00000000000          00000000000000000000000000000000000000000000 000000000000000A000000000000000000000000000000000000000000000 000000000000000000000000000000000000000     00000000                                                                                                                        000000000000000000
F0010000010379800005000000869402400013552100000000000000000201709210002001ISRAEL MANGA                                      D000000000000000000000000000000000100010010000000000000000000000F0010000010379800520170921000101 00000000000000000000000000000000000000000000000000000000000000000000000000000000000000000000000000000000000000000N 00000000000NCONT   00    00000000000          00000000000000000000000000000000000000000000 000000000000000A000000000000000000000000000000000000000000000 000000000000000000000000000000000000000     00000000                                                                                                                        000000000000000000
F0010000010379900001000090051494400011050500000000000000000201709210002001MUNDINOX SAS                                      D000000006400000000000000000000000100010010000000000000000000000F0010000010379900120170921000101 00000000000000000000000000000000000000000000000000000000000000000000000000000000000000000000000000000000000000000N 00000000000NCONT   00    00000000000          00000000000000000000000000000000000000000000 000000000000000A000000000000000000000000000000000000000000000 000000000000000000000000000000000000000     00000000                                                                                                                        000000000000000000
F0010000010379900002000090051494400041450500000000000000000201709210002001MUNDINOX SAS                                      C000000005400000000000000000000000100010010000000000000000000000F0010000010379900220170921000101 00000000000000000000000000000000000000000000000000000000000000000000000000000000000000000000000000000000000000000N 00000000000NCONT   00    00000000000          00000000000000000000000000000000000000000000 000000000000000A000000000000000000000000000000000000000000000 000000000000000000000000000000000000000     00000000                                                                                                                        000000000000000000
F0010000010379900003000090051494400042505000000000000000000201709210002001MUNDINOX SAS                                      C000000001000000000000000000000000100010010000000000000000000000F0010000010379900320170921000101 00000000000000000000000000000000000000000000000000000000000000000000000000000000000000000000000000000000000000000N 00000000000NCONT   00    00000000000          00000000000000000000000000000000000000000000 000000000000000A000000000000000000000000000000000000000000000 000000000000000000000000000000000000000     00000000                                                                                                                        000000000000000000
F0010000010379900004000090051494400023658300000000000000000201709210002001MUNDINOX SAS                                      C000000000000000000000000000000000100010010000000000000000000000F0010000010379900420170921000101 00000000000000000000000000000000000000000000000000000000000000000000000000000000000000000000000000000000000000000N 00000000000NCONT   00    00000000000          00000000000000000000000000000000000000000000 000000000000000A000000000000000000000000000000000000000000000 000000000000000000000000000000000000000     00000000                                                                                                                        000000000000000000
F0010000010379900005000090051494400013552100000000000000000201709210002001MUNDINOX SAS                                      D000000000000000000000000000000000100010010000000000000000000000F0010000010379900520170921000101 00000000000000000000000000000000000000000000000000000000000000000000000000000000000000000000000000000000000000000N 00000000000NCONT   00    00000000000          00000000000000000000000000000000000000000000 000000000000000A000000000000000000000000000000000000000000000 000000000000000000000000000000000000000     00000000                                                                                                                        000000000000000000
F0010000010380000001000080202019800011050500000000000000000201709210002001COLOMBIAN HOSPITAL S. EN C.                       D000000005000000000000000000000000100010010000000000000000000000F0010000010380000120170921000101 00000000000000000000000000000000000000000000000000000000000000000000000000000000000000000000000000000000000000000N 00000000000NCONT   00    00000000000          00000000000000000000000000000000000000000000 000000000000000A000000000000000000000000000000000000000000000 000000000000000000000000000000000000000     00000000                                                                                                                        000000000000000000
F0010000010380000002000080202019800041450500000000000000000201709210002001COLOMBIAN HOSPITAL S. EN C.                       C000000004500000000000000000000000100010010000000000000000000000F0010000010380000220170921000101 00000000000000000000000000000000000000000000000000000000000000000000000000000000000000000000000000000000000000000N 00000000000NCONT   00    00000000000          00000000000000000000000000000000000000000000 000000000000000A000000000000000000000000000000000000000000000 000000000000000000000000000000000000000     00000000                                                                                                                        000000000000000000
F0010000010380000003000080202019800042505000000000000000000201709210002001COLOMBIAN HOSPITAL S. EN C.                       C000000000500000000000000000000000100010010000000000000000000000F0010000010380000320170921000101 00000000000000000000000000000000000000000000000000000000000000000000000000000000000000000000000000000000000000000N 00000000000NCONT   00    00000000000          00000000000000000000000000000000000000000000 000000000000000A000000000000000000000000000000000000000000000 000000000000000000000000000000000000000     00000000                                                                                                                        000000000000000000
F0010000010380000004000080202019800023658300000000000000000201709210002001COLOMBIAN HOSPITAL S. EN C.                       C000000000000000000000000000000000100010010000000000000000000000F0010000010380000420170921000101 00000000000000000000000000000000000000000000000000000000000000000000000000000000000000000000000000000000000000000N 00000000000NCONT   00    00000000000          00000000000000000000000000000000000000000000 000000000000000A000000000000000000000000000000000000000000000 000000000000000000000000000000000000000     00000000                                                                                                                        000000000000000000
F0010000010380000005000080202019800013552100000000000000000201709210002001COLOMBIAN HOSPITAL S. EN C.                       D000000000000000000000000000000000100010010000000000000000000000F0010000010380000520170921000101 00000000000000000000000000000000000000000000000000000000000000000000000000000000000000000000000000000000000000000N 00000000000NCONT   00    00000000000          00000000000000000000000000000000000000000000 000000000000000A000000000000000000000000000000000000000000000 000000000000000000000000000000000000000     00000000                                                                                                                        000000000000000000
F0010000010380100001000090051494400011050500000000000000000201709210002001MUNDINOX SAS                                      D000000015300000000000000000000000100010010000000000000000000000F0010000010380100120170921000101 00000000000000000000000000000000000000000000000000000000000000000000000000000000000000000000000000000000000000000N 00000000000NCONT   00    00000000000          00000000000000000000000000000000000000000000 000000000000000A000000000000000000000000000000000000000000000 000000000000000000000000000000000000000     00000000                                                                                                                        000000000000000000
F0010000010380100002000090051494400041450500000000000000000201709210002001MUNDINOX SAS                                      C000000014400000000000000000000000100010010000000000000000000000F0010000010380100220170921000101 00000000000000000000000000000000000000000000000000000000000000000000000000000000000000000000000000000000000000000N 00000000000NCONT   00    00000000000          00000000000000000000000000000000000000000000 000000000000000A000000000000000000000000000000000000000000000 000000000000000000000000000000000000000     00000000                                                                                                                        000000000000000000
F0010000010380100003000090051494400042505000000000000000000201709210002001MUNDINOX SAS                                      C000000000900000000000000000000000100010010000000000000000000000F0010000010380100320170921000101 00000000000000000000000000000000000000000000000000000000000000000000000000000000000000000000000000000000000000000N 00000000000NCONT   00    00000000000          00000000000000000000000000000000000000000000 000000000000000A000000000000000000000000000000000000000000000 000000000000000000000000000000000000000     00000000                                                                                                                        000000000000000000
F0010000010380100004000090051494400023658300000000000000000201709210002001MUNDINOX SAS                                      C000000000000000000000000000000000100010010000000000000000000000F0010000010380100420170921000101 00000000000000000000000000000000000000000000000000000000000000000000000000000000000000000000000000000000000000000N 00000000000NCONT   00    00000000000          00000000000000000000000000000000000000000000 000000000000000A000000000000000000000000000000000000000000000 000000000000000000000000000000000000000     00000000                                                                                                                        000000000000000000
F0010000010380100005000090051494400013552100000000000000000201709210002001MUNDINOX SAS                                      D000000000000000000000000000000000100010010000000000000000000000F0010000010380100520170921000101 00000000000000000000000000000000000000000000000000000000000000000000000000000000000000000000000000000000000000000N 00000000000NCONT   00    00000000000          00000000000000000000000000000000000000000000 000000000000000A000000000000000000000000000000000000000000000 000000000000000000000000000000000000000     00000000                                                                                                                        000000000000000000
F0010000010380200001000080202019800011050500000000000000000201709210002001COLOMBIAN HOSPITAL S. EN C.                       D000000018000000000000000000000000100010010000000000000000000000F0010000010380200120170921000101 00000000000000000000000000000000000000000000000000000000000000000000000000000000000000000000000000000000000000000N 00000000000NCONT   00    00000000000          00000000000000000000000000000000000000000000 000000000000000A000000000000000000000000000000000000000000000 000000000000000000000000000000000000000     00000000                                                                                                                        000000000000000000
F0010000010380200002000080202019800041450500000000000000000201709210002001COLOMBIAN HOSPITAL S. EN C.                       C000000016800000000000000000000000100010010000000000000000000000F0010000010380200220170921000101 00000000000000000000000000000000000000000000000000000000000000000000000000000000000000000000000000000000000000000N 00000000000NCONT   00    00000000000          00000000000000000000000000000000000000000000 000000000000000A000000000000000000000000000000000000000000000 000000000000000000000000000000000000000     00000000                                                                                                                        000000000000000000
F0010000010380200003000080202019800042505000000000000000000201709210002001COLOMBIAN HOSPITAL S. EN C.                       C000000001200000000000000000000000100010010000000000000000000000F0010000010380200320170921000101 00000000000000000000000000000000000000000000000000000000000000000000000000000000000000000000000000000000000000000N 00000000000NCONT   00    00000000000          00000000000000000000000000000000000000000000 000000000000000A000000000000000000000000000000000000000000000 000000000000000000000000000000000000000     00000000                                                                                                                        000000000000000000
F0010000010380200004000080202019800023658300000000000000000201709210002001COLOMBIAN HOSPITAL S. EN C.                       C000000000000000000000000000000000100010010000000000000000000000F0010000010380200420170921000101 00000000000000000000000000000000000000000000000000000000000000000000000000000000000000000000000000000000000000000N 00000000000NCONT   00    00000000000          00000000000000000000000000000000000000000000 000000000000000A000000000000000000000000000000000000000000000 000000000000000000000000000000000000000     00000000                                                                                                                        000000000000000000
F0010000010380200005000080202019800013552100000000000000000201709210002001COLOMBIAN HOSPITAL S. EN C.                       D000000000000000000000000000000000100010010000000000000000000000F0010000010380200520170921000101 00000000000000000000000000000000000000000000000000000000000000000000000000000000000000000000000000000000000000000N 00000000000NCONT   00    00000000000          00000000000000000000000000000000000000000000 000000000000000A000000000000000000000000000000000000000000000 000000000000000000000000000000000000000     00000000                                                                                                                        000000000000000000
F0010000010380300001000080202019800011050500000000000000000201709210002001COLOMBIAN HOSPITAL S. EN C.                       D000000010000000000000000000000000100010010000000000000000000000F0010000010380300120170921000101 00000000000000000000000000000000000000000000000000000000000000000000000000000000000000000000000000000000000000000N 00000000000NCONT   00    00000000000          00000000000000000000000000000000000000000000 000000000000000A000000000000000000000000000000000000000000000 000000000000000000000000000000000000000     00000000                                                                                                                        000000000000000000
F0010000010380300002000080202019800041450500000000000000000201709210002001COLOMBIAN HOSPITAL S. EN C.                       C000000009500000000000000000000000100010010000000000000000000000F0010000010380300220170921000101 00000000000000000000000000000000000000000000000000000000000000000000000000000000000000000000000000000000000000000N 00000000000NCONT   00    00000000000          00000000000000000000000000000000000000000000 000000000000000A000000000000000000000000000000000000000000000 000000000000000000000000000000000000000     00000000                                                                                                                        000000000000000000
F0010000010380300003000080202019800042505000000000000000000201709210002001COLOMBIAN HOSPITAL S. EN C.                       C000000000500000000000000000000000100010010000000000000000000000F0010000010380300320170921000101 00000000000000000000000000000000000000000000000000000000000000000000000000000000000000000000000000000000000000000N 00000000000NCONT   00    00000000000          00000000000000000000000000000000000000000000 000000000000000A000000000000000000000000000000000000000000000 000000000000000000000000000000000000000     00000000                                                                                                                        000000000000000000
F0010000010380300004000080202019800023658300000000000000000201709210002001COLOMBIAN HOSPITAL S. EN C.                       C000000000000000000000000000000000100010010000000000000000000000F0010000010380300420170921000101 00000000000000000000000000000000000000000000000000000000000000000000000000000000000000000000000000000000000000000N 00000000000NCONT   00    00000000000          00000000000000000000000000000000000000000000 000000000000000A000000000000000000000000000000000000000000000 000000000000000000000000000000000000000     00000000                                                                                                                        000000000000000000
F0010000010380300005000080202019800013552100000000000000000201709210002001COLOMBIAN HOSPITAL S. EN C.                       D000000000000000000000000000000000100010010000000000000000000000F0010000010380300520170921000101 00000000000000000000000000000000000000000000000000000000000000000000000000000000000000000000000000000000000000000N 00000000000NCONT   00    00000000000          00000000000000000000000000000000000000000000 000000000000000A000000000000000000000000000000000000000000000 000000000000000000000000000000000000000     00000000                                                                                                                        000000000000000000
F0010000010380400001000002245670100011050500000000000000000201709210002001YOLANDA  TOBON                                    D000000003583900000000000000000000100010010000000000000000000000F0010000010380400120170921000101 00000000000000000000000000000000000000000000000000000000000000000000000000000000000000000000000000000000000000000N 00000000000NCONT   00    00000000000          00000000000000000000000000000000000000000000 000000000000000A000000000000000000000000000000000000000000000 000000000000000000000000000000000000000     00000000                                                                                                                        000000000000000000
F0010000010380400002000002245670100041450500000000000000000201709210002001YOLANDA  TOBON                                    C000000002310000000000000000000000100010010000000000000000000000F0010000010380400220170921000101 00000000000000000000000000000000000000000000000000000000000000000000000000000000000000000000000000000000000000000N 00000000000NCONT   00    00000000000          00000000000000000000000000000000000000000000 000000000000000A000000000000000000000000000000000000000000000 000000000000000000000000000000000000000     00000000                                                                                                                        000000000000000000
F0010000010380400003000002245670100042505000000000000000000201709210002001YOLANDA  TOBON                                    C000000001273900000000000000000000100010010000000000000000000000F0010000010380400320170921000101 00000000000000000000000000000000000000000000000000000000000000000000000000000000000000000000000000000000000000000N 00000000000NCONT   00    00000000000          00000000000000000000000000000000000000000000 000000000000000A000000000000000000000000000000000000000000000 000000000000000000000000000000000000000     00000000                                                                                                                        000000000000000000
F0010000010380400004000002245670100023658300000000000000000201709210002001YOLANDA  TOBON                                    C000000000000000000000000000000000100010010000000000000000000000F0010000010380400420170921000101 00000000000000000000000000000000000000000000000000000000000000000000000000000000000000000000000000000000000000000N 00000000000NCONT   00    00000000000          00000000000000000000000000000000000000000000 000000000000000A000000000000000000000000000000000000000000000 000000000000000000000000000000000000000     00000000                                                                                                                        000000000000000000
F0010000010380400005000002245670100013552100000000000000000201709210002001YOLANDA  TOBON                                    D000000000000000000000000000000000100010010000000000000000000000F0010000010380400520170921000101 00000000000000000000000000000000000000000000000000000000000000000000000000000000000000000000000000000000000000000N 00000000000NCONT   00    00000000000          00000000000000000000000000000000000000000000 000000000000000A000000000000000000000000000000000000000000000 000000000000000000000000000000000000000     00000000                                                                                                                        000000000000000000
F0010000010380500001000090040615800011050500000000000000000201709210002001EMPAQUES INDUSTRIALES DE COLOMBIA                 D000000034000000000000000000000000100010010000000000000000000000F0010000010380500120170921000101 00000000000000000000000000000000000000000000000000000000000000000000000000000000000000000000000000000000000000000N 00000000000NCONT   00    00000000000          00000000000000000000000000000000000000000000 000000000000000A000000000000000000000000000000000000000000000 000000000000000000000000000000000000000     00000000                                                                                                                        000000000000000000
F0010000010380500002000090040615800041450500000000000000000201709210002001EMPAQUES INDUSTRIALES DE COLOMBIA                 C000000030000000000000000000000000100010010000000000000000000000F0010000010380500220170921000101 00000000000000000000000000000000000000000000000000000000000000000000000000000000000000000000000000000000000000000N 00000000000NCONT   00    00000000000          00000000000000000000000000000000000000000000 000000000000000A000000000000000000000000000000000000000000000 000000000000000000000000000000000000000     00000000                                                                                                                        000000000000000000
F0010000010380500003000090040615800042505000000000000000000201709210002001EMPAQUES INDUSTRIALES DE COLOMBIA                 C000000004000000000000000000000000100010010000000000000000000000F0010000010380500320170921000101 00000000000000000000000000000000000000000000000000000000000000000000000000000000000000000000000000000000000000000N 00000000000NCONT   00    00000000000          00000000000000000000000000000000000000000000 000000000000000A000000000000000000000000000000000000000000000 000000000000000000000000000000000000000     00000000                                                                                                                        000000000000000000
F0010000010380500004000090040615800023658300000000000000000201709210002001EMPAQUES INDUSTRIALES DE COLOMBIA                 C000000000000000000000000000000000100010010000000000000000000000F0010000010380500420170921000101 00000000000000000000000000000000000000000000000000000000000000000000000000000000000000000000000000000000000000000N 00000000000NCONT   00    00000000000          00000000000000000000000000000000000000000000 000000000000000A000000000000000000000000000000000000000000000 000000000000000000000000000000000000000     00000000                                                                                                                        000000000000000000
F0010000010380500005000090040615800013552100000000000000000201709210002001EMPAQUES INDUSTRIALES DE COLOMBIA                 D000000000000000000000000000000000100010010000000000000000000000F0010000010380500520170921000101 00000000000000000000000000000000000000000000000000000000000000000000000000000000000000000000000000000000000000000N 00000000000NCONT   00    00000000000          00000000000000000000000000000000000000000000 000000000000000A000000000000000000000000000000000000000000000 000000000000000000000000000000000000000     00000000                                                                                                                        000000000000000000
F0010000010380600001000090020147400011050500000000000000000201709210002001PROCOQUIM S.A.S                                   D000000027400000000000000000000000100010010000000000000000000000F0010000010380600120170921000101 00000000000000000000000000000000000000000000000000000000000000000000000000000000000000000000000000000000000000000N 00000000000NCONT   00    00000000000          00000000000000000000000000000000000000000000 000000000000000A000000000000000000000000000000000000000000000 000000000000000000000000000000000000000     00000000                                                                                                                        000000000000000000
F0010000010380600002000090020147400041450500000000000000000201709210002001PROCOQUIM S.A.S                                   C000000026000000000000000000000000100010010000000000000000000000F0010000010380600220170921000101 00000000000000000000000000000000000000000000000000000000000000000000000000000000000000000000000000000000000000000N 00000000000NCONT   00    00000000000          00000000000000000000000000000000000000000000 000000000000000A000000000000000000000000000000000000000000000 000000000000000000000000000000000000000     00000000                                                                                                                        000000000000000000
F0010000010380600003000090020147400042505000000000000000000201709210002001PROCOQUIM S.A.S                                   C000000001400000000000000000000000100010010000000000000000000000F0010000010380600320170921000101 00000000000000000000000000000000000000000000000000000000000000000000000000000000000000000000000000000000000000000N 00000000000NCONT   00    00000000000          00000000000000000000000000000000000000000000 000000000000000A000000000000000000000000000000000000000000000 000000000000000000000000000000000000000     00000000                                                                                                                        000000000000000000
F0010000010380600004000090020147400023658300000000000000000201709210002001PROCOQUIM S.A.S                                   C000000000000000000000000000000000100010010000000000000000000000F0010000010380600420170921000101 00000000000000000000000000000000000000000000000000000000000000000000000000000000000000000000000000000000000000000N 00000000000NCONT   00    00000000000          00000000000000000000000000000000000000000000 000000000000000A000000000000000000000000000000000000000000000 000000000000000000000000000000000000000     00000000                                                                                                                        000000000000000000
F0010000010380600005000090020147400013552100000000000000000201709210002001PROCOQUIM S.A.S                                   D000000000000000000000000000000000100010010000000000000000000000F0010000010380600520170921000101 00000000000000000000000000000000000000000000000000000000000000000000000000000000000000000000000000000000000000000N 00000000000NCONT   00    00000000000          00000000000000000000000000000000000000000000 000000000000000A000000000000000000000000000000000000000000000 000000000000000000000000000000000000000     00000000                                                                                                                        000000000000000000
F0010000010380700001000007221137900011050500000000000000000201709210002001CARLOS POLO                                       D000000002900000000000000000000000100010010000000000000000000000F0010000010380700120170921000101 00000000000000000000000000000000000000000000000000000000000000000000000000000000000000000000000000000000000000000N 00000000000NCONT   00    00000000000          00000000000000000000000000000000000000000000 000000000000000A000000000000000000000000000000000000000000000 000000000000000000000000000000000000000     00000000                                                                                                                        000000000000000000
F0010000010380700002000007221137900041450500000000000000000201709210002001CARLOS POLO                                       C000000002200000000000000000000000100010010000000000000000000000F0010000010380700220170921000101 00000000000000000000000000000000000000000000000000000000000000000000000000000000000000000000000000000000000000000N 00000000000NCONT   00    00000000000          00000000000000000000000000000000000000000000 000000000000000A000000000000000000000000000000000000000000000 000000000000000000000000000000000000000     00000000                                                                                                                        000000000000000000
F0010000010380700003000007221137900042505000000000000000000201709210002001CARLOS POLO                                       C000000000700000000000000000000000100010010000000000000000000000F0010000010380700320170921000101 00000000000000000000000000000000000000000000000000000000000000000000000000000000000000000000000000000000000000000N 00000000000NCONT   00    00000000000          00000000000000000000000000000000000000000000 000000000000000A000000000000000000000000000000000000000000000 000000000000000000000000000000000000000     00000000                                                                                                                        000000000000000000
F0010000010380700004000007221137900023658300000000000000000201709210002001CARLOS POLO                                       C000000000000000000000000000000000100010010000000000000000000000F0010000010380700420170921000101 00000000000000000000000000000000000000000000000000000000000000000000000000000000000000000000000000000000000000000N 00000000000NCONT   00    00000000000          00000000000000000000000000000000000000000000 000000000000000A000000000000000000000000000000000000000000000 000000000000000000000000000000000000000     00000000                                                                                                                        000000000000000000
F0010000010380700005000007221137900013552100000000000000000201709210002001CARLOS POLO                                       D000000000000000000000000000000000100010010000000000000000000000F0010000010380700520170921000101 00000000000000000000000000000000000000000000000000000000000000000000000000000000000000000000000000000000000000000N 00000000000NCONT   00    00000000000          00000000000000000000000000000000000000000000 000000000000000A000000000000000000000000000000000000000000000 000000000000000000000000000000000000000     00000000                                                                                                                        000000000000000000
F0010000010380800001000090050144800011050500000000000000000201709210002001PLASTICOS JR ASOCIADOS SAS                        D000000006200000000000000000000000100010010000000000000000000000F0010000010380800120170921000101 00000000000000000000000000000000000000000000000000000000000000000000000000000000000000000000000000000000000000000N 00000000000NCONT   00    00000000000          00000000000000000000000000000000000000000000 000000000000000A000000000000000000000000000000000000000000000 000000000000000000000000000000000000000     00000000                                                                                                                        000000000000000000
F0010000010380800002000090050144800041450500000000000000000201709210002001PLASTICOS JR ASOCIADOS SAS                        C000000005200000000000000000000000100010010000000000000000000000F0010000010380800220170921000101 00000000000000000000000000000000000000000000000000000000000000000000000000000000000000000000000000000000000000000N 00000000000NCONT   00    00000000000          00000000000000000000000000000000000000000000 000000000000000A000000000000000000000000000000000000000000000 000000000000000000000000000000000000000     00000000                                                                                                                        000000000000000000
F0010000010380800003000090050144800042505000000000000000000201709210002001PLASTICOS JR ASOCIADOS SAS                        C000000001000000000000000000000000100010010000000000000000000000F0010000010380800320170921000101 00000000000000000000000000000000000000000000000000000000000000000000000000000000000000000000000000000000000000000N 00000000000NCONT   00    00000000000          00000000000000000000000000000000000000000000 000000000000000A000000000000000000000000000000000000000000000 000000000000000000000000000000000000000     00000000                                                                                                                        000000000000000000
F0010000010380800004000090050144800023658300000000000000000201709210002001PLASTICOS JR ASOCIADOS SAS                        C000000000000000000000000000000000100010010000000000000000000000F0010000010380800420170921000101 00000000000000000000000000000000000000000000000000000000000000000000000000000000000000000000000000000000000000000N 00000000000NCONT   00    00000000000          00000000000000000000000000000000000000000000 000000000000000A000000000000000000000000000000000000000000000 000000000000000000000000000000000000000     00000000                                                                                                                        000000000000000000
F0010000010380800005000090050144800013552100000000000000000201709210002001PLASTICOS JR ASOCIADOS SAS                        D000000000000000000000000000000000100010010000000000000000000000F0010000010380800520170921000101 00000000000000000000000000000000000000000000000000000000000000000000000000000000000000000000000000000000000000000N 00000000000NCONT   00    00000000000          00000000000000000000000000000000000000000000 000000000000000A000000000000000000000000000000000000000000000 000000000000000000000000000000000000000     00000000                                                                                                                        000000000000000000
F0010000010380900001000000431178400011050500000000000000000201709210002001EFRAIN ALVAREZ                                    D000000001070000000000000000000000100010010000000000000000000000F0010000010380900120170921000101 00000000000000000000000000000000000000000000000000000000000000000000000000000000000000000000000000000000000000000N 00000000000NCONT   00    00000000000          00000000000000000000000000000000000000000000 000000000000000A000000000000000000000000000000000000000000000 000000000000000000000000000000000000000     00000000                                                                                                                        000000000000000000
F0010000010380900002000000431178400041450500000000000000000201709210002001EFRAIN ALVAREZ                                    C000000000970000000000000000000000100010010000000000000000000000F0010000010380900220170921000101 00000000000000000000000000000000000000000000000000000000000000000000000000000000000000000000000000000000000000000N 00000000000NCONT   00    00000000000          00000000000000000000000000000000000000000000 000000000000000A000000000000000000000000000000000000000000000 000000000000000000000000000000000000000     00000000                                                                                                                        000000000000000000
F0010000010380900003000000431178400042505000000000000000000201709210002001EFRAIN ALVAREZ                                    C000000000100000000000000000000000100010010000000000000000000000F0010000010380900320170921000101 00000000000000000000000000000000000000000000000000000000000000000000000000000000000000000000000000000000000000000N 00000000000NCONT   00    00000000000          00000000000000000000000000000000000000000000 000000000000000A000000000000000000000000000000000000000000000 000000000000000000000000000000000000000     00000000                                                                                                                        000000000000000000
F0010000010380900004000000431178400023658300000000000000000201709210002001EFRAIN ALVAREZ                                    C000000000000000000000000000000000100010010000000000000000000000F0010000010380900420170921000101 00000000000000000000000000000000000000000000000000000000000000000000000000000000000000000000000000000000000000000N 00000000000NCONT   00    00000000000          00000000000000000000000000000000000000000000 000000000000000A000000000000000000000000000000000000000000000 000000000000000000000000000000000000000     00000000                                                                                                                        000000000000000000
F0010000010380900005000000431178400013552100000000000000000201709210002001EFRAIN ALVAREZ                                    D000000000000000000000000000000000100010010000000000000000000000F0010000010380900520170921000101 00000000000000000000000000000000000000000000000000000000000000000000000000000000000000000000000000000000000000000N 00000000000NCONT   00    00000000000          00000000000000000000000000000000000000000000 000000000000000A000000000000000000000000000000000000000000000 000000000000000000000000000000000000000     00000000                                                                                                                        000000000000000000
F0010000010381000001000000431178400011050500000000000000000201709210002001EFRAIN ALVAREZ                                    D000000002910000000000000000000000100010010000000000000000000000F0010000010381000120170921000101 00000000000000000000000000000000000000000000000000000000000000000000000000000000000000000000000000000000000000000N 00000000000NCONT   00    00000000000          00000000000000000000000000000000000000000000 000000000000000A000000000000000000000000000000000000000000000 000000000000000000000000000000000000000     00000000                                                                                                                        000000000000000000
F0010000010381000002000000431178400041450500000000000000000201709210002001EFRAIN ALVAREZ                                    C000000002660000000000000000000000100010010000000000000000000000F0010000010381000220170921000101 00000000000000000000000000000000000000000000000000000000000000000000000000000000000000000000000000000000000000000N 00000000000NCONT   00    00000000000          00000000000000000000000000000000000000000000 000000000000000A000000000000000000000000000000000000000000000 000000000000000000000000000000000000000     00000000                                                                                                                        000000000000000000
F0010000010381000003000000431178400042505000000000000000000201709210002001EFRAIN ALVAREZ                                    C000000000250000000000000000000000100010010000000000000000000000F0010000010381000320170921000101 00000000000000000000000000000000000000000000000000000000000000000000000000000000000000000000000000000000000000000N 00000000000NCONT   00    00000000000          00000000000000000000000000000000000000000000 000000000000000A000000000000000000000000000000000000000000000 000000000000000000000000000000000000000     00000000                                                                                                                        000000000000000000
F0010000010381000004000000431178400023658300000000000000000201709210002001EFRAIN ALVAREZ                                    C000000000000000000000000000000000100010010000000000000000000000F0010000010381000420170921000101 00000000000000000000000000000000000000000000000000000000000000000000000000000000000000000000000000000000000000000N 00000000000NCONT   00    00000000000          00000000000000000000000000000000000000000000 000000000000000A000000000000000000000000000000000000000000000 000000000000000000000000000000000000000     00000000                                                                                                                        000000000000000000
F0010000010381000005000000431178400013552100000000000000000201709210002001EFRAIN ALVAREZ                                    D000000000000000000000000000000000100010010000000000000000000000F0010000010381000520170921000101 00000000000000000000000000000000000000000000000000000000000000000000000000000000000000000000000000000000000000000N 00000000000NCONT   00    00000000000          00000000000000000000000000000000000000000000 000000000000000A000000000000000000000000000000000000000000000 000000000000000000000000000000000000000     00000000                                                                                                                        000000000000000000
F0010000010381100001000000431178400011050500000000000000000201709210002001EFRAIN ALVAREZ                                    D000000004390000000000000000000000100010010000000000000000000000F0010000010381100120170921000101 00000000000000000000000000000000000000000000000000000000000000000000000000000000000000000000000000000000000000000N 00000000000NCONT   00    00000000000          00000000000000000000000000000000000000000000 000000000000000A000000000000000000000000000000000000000000000 000000000000000000000000000000000000000     00000000                                                                                                                        000000000000000000
F0010000010381100002000000431178400041450500000000000000000201709210002001EFRAIN ALVAREZ                                    C000000004140000000000000000000000100010010000000000000000000000F0010000010381100220170921000101 00000000000000000000000000000000000000000000000000000000000000000000000000000000000000000000000000000000000000000N 00000000000NCONT   00    00000000000          00000000000000000000000000000000000000000000 000000000000000A000000000000000000000000000000000000000000000 000000000000000000000000000000000000000     00000000                                                                                                                        000000000000000000
F0010000010381100003000000431178400042505000000000000000000201709210002001EFRAIN ALVAREZ                                    C000000000250000000000000000000000100010010000000000000000000000F0010000010381100320170921000101 00000000000000000000000000000000000000000000000000000000000000000000000000000000000000000000000000000000000000000N 00000000000NCONT   00    00000000000          00000000000000000000000000000000000000000000 000000000000000A000000000000000000000000000000000000000000000 000000000000000000000000000000000000000     00000000                                                                                                                        000000000000000000
F0010000010381100004000000431178400023658300000000000000000201709210002001EFRAIN ALVAREZ                                    C000000000000000000000000000000000100010010000000000000000000000F0010000010381100420170921000101 00000000000000000000000000000000000000000000000000000000000000000000000000000000000000000000000000000000000000000N 00000000000NCONT   00    00000000000          00000000000000000000000000000000000000000000 000000000000000A000000000000000000000000000000000000000000000 000000000000000000000000000000000000000     00000000                                                                                                                        000000000000000000
F0010000010381100005000000431178400013552100000000000000000201709210002001EFRAIN ALVAREZ                                    D000000000000000000000000000000000100010010000000000000000000000F0010000010381100520170921000101 00000000000000000000000000000000000000000000000000000000000000000000000000000000000000000000000000000000000000000N 00000000000NCONT   00    00000000000          00000000000000000000000000000000000000000000 000000000000000A000000000000000000000000000000000000000000000 000000000000000000000000000000000000000     00000000                                                                                                                        000000000000000000
F0010000010381200001000000431178400011050500000000000000000201709210002001EFRAIN ALVAREZ                                    D000000002120000000000000000000000100010010000000000000000000000F0010000010381200120170921000101 00000000000000000000000000000000000000000000000000000000000000000000000000000000000000000000000000000000000000000N 00000000000NCONT   00    00000000000          00000000000000000000000000000000000000000000 000000000000000A000000000000000000000000000000000000000000000 000000000000000000000000000000000000000     00000000                                                                                                                        000000000000000000
F0010000010381200002000000431178400041450500000000000000000201709210002001EFRAIN ALVAREZ                                    C000000002070000000000000000000000100010010000000000000000000000F0010000010381200220170921000101 00000000000000000000000000000000000000000000000000000000000000000000000000000000000000000000000000000000000000000N 00000000000NCONT   00    00000000000          00000000000000000000000000000000000000000000 000000000000000A000000000000000000000000000000000000000000000 000000000000000000000000000000000000000     00000000                                                                                                                        000000000000000000
F0010000010381200003000000431178400042505000000000000000000201709210002001EFRAIN ALVAREZ                                    C000000000050000000000000000000000100010010000000000000000000000F0010000010381200320170921000101 00000000000000000000000000000000000000000000000000000000000000000000000000000000000000000000000000000000000000000N 00000000000NCONT   00    00000000000          00000000000000000000000000000000000000000000 000000000000000A000000000000000000000000000000000000000000000 000000000000000000000000000000000000000     00000000                                                                                                                        000000000000000000
F0010000010381200004000000431178400023658300000000000000000201709210002001EFRAIN ALVAREZ                                    C000000000000000000000000000000000100010010000000000000000000000F0010000010381200420170921000101 00000000000000000000000000000000000000000000000000000000000000000000000000000000000000000000000000000000000000000N 00000000000NCONT   00    00000000000          00000000000000000000000000000000000000000000 000000000000000A000000000000000000000000000000000000000000000 000000000000000000000000000000000000000     00000000                                                                                                                        000000000000000000
F0010000010381200005000000431178400013552100000000000000000201709210002001EFRAIN ALVAREZ                                    D000000000000000000000000000000000100010010000000000000000000000F0010000010381200520170921000101 00000000000000000000000000000000000000000000000000000000000000000000000000000000000000000000000000000000000000000N 00000000000NCONT   00    00000000000          00000000000000000000000000000000000000000000 000000000000000A000000000000000000000000000000000000000000000 000000000000000000000000000000000000000     00000000                                                                                                                        000000000000000000
F0010000010381300001000000431178400011050500000000000000000201709210002001EFRAIN ALVAREZ                                    D000000001630000000000000000000000100010010000000000000000000000F0010000010381300120170921000101 00000000000000000000000000000000000000000000000000000000000000000000000000000000000000000000000000000000000000000N 00000000000NCONT   00    00000000000          00000000000000000000000000000000000000000000 000000000000000A000000000000000000000000000000000000000000000 000000000000000000000000000000000000000     00000000                                                                                                                        000000000000000000
F0010000010381300002000000431178400041450500000000000000000201709210002001EFRAIN ALVAREZ                                    C000000001580000000000000000000000100010010000000000000000000000F0010000010381300220170921000101 00000000000000000000000000000000000000000000000000000000000000000000000000000000000000000000000000000000000000000N 00000000000NCONT   00    00000000000          00000000000000000000000000000000000000000000 000000000000000A000000000000000000000000000000000000000000000 000000000000000000000000000000000000000     00000000                                                                                                                        000000000000000000
F0010000010381300003000000431178400042505000000000000000000201709210002001EFRAIN ALVAREZ                                    C000000000050000000000000000000000100010010000000000000000000000F0010000010381300320170921000101 00000000000000000000000000000000000000000000000000000000000000000000000000000000000000000000000000000000000000000N 00000000000NCONT   00    00000000000          00000000000000000000000000000000000000000000 000000000000000A000000000000000000000000000000000000000000000 000000000000000000000000000000000000000     00000000                                                                                                                        000000000000000000
F0010000010381300004000000431178400023658300000000000000000201709210002001EFRAIN ALVAREZ                                    C000000000000000000000000000000000100010010000000000000000000000F0010000010381300420170921000101 00000000000000000000000000000000000000000000000000000000000000000000000000000000000000000000000000000000000000000N 00000000000NCONT   00    00000000000          00000000000000000000000000000000000000000000 000000000000000A000000000000000000000000000000000000000000000 000000000000000000000000000000000000000     00000000                                                                                                                        000000000000000000
F0010000010381300005000000431178400013552100000000000000000201709210002001EFRAIN ALVAREZ                                    D000000000000000000000000000000000100010010000000000000000000000F0010000010381300520170921000101 00000000000000000000000000000000000000000000000000000000000000000000000000000000000000000000000000000000000000000N 00000000000NCONT   00    00000000000          00000000000000000000000000000000000000000000 000000000000000A000000000000000000000000000000000000000000000 000000000000000000000000000000000000000     00000000                                                                                                                        000000000000000000
F0010000010381400001000001022529300011050500000000000000000201709210002001ALBERTO ALVAREZ ISAZA                             D000000000350000000000000000000000100010010000000000000000000000F0010000010381400120170921000101 00000000000000000000000000000000000000000000000000000000000000000000000000000000000000000000000000000000000000000N 00000000000NCONT   00    00000000000          00000000000000000000000000000000000000000000 000000000000000A000000000000000000000000000000000000000000000 000000000000000000000000000000000000000     00000000                                                                                                                        000000000000000000
F0010000010381400002000001022529300041450500000000000000000201709210002001ALBERTO ALVAREZ ISAZA                             C000000000350000000000000000000000100010010000000000000000000000F0010000010381400220170921000101 00000000000000000000000000000000000000000000000000000000000000000000000000000000000000000000000000000000000000000N 00000000000NCONT   00    00000000000          00000000000000000000000000000000000000000000 000000000000000A000000000000000000000000000000000000000000000 000000000000000000000000000000000000000     00000000                                                                                                                        000000000000000000
F0010000010381400003000001022529300042505000000000000000000201709210002001ALBERTO ALVAREZ ISAZA                             C000000000000000000000000000000000100010010000000000000000000000F0010000010381400320170921000101 00000000000000000000000000000000000000000000000000000000000000000000000000000000000000000000000000000000000000000N 00000000000NCONT   00    00000000000          00000000000000000000000000000000000000000000 000000000000000A000000000000000000000000000000000000000000000 000000000000000000000000000000000000000     00000000                                                                                                                        000000000000000000
F0010000010381400004000001022529300023658300000000000000000201709210002001ALBERTO ALVAREZ ISAZA                             C000000000000000000000000000000000100010010000000000000000000000F0010000010381400420170921000101 00000000000000000000000000000000000000000000000000000000000000000000000000000000000000000000000000000000000000000N 00000000000NCONT   00    00000000000          00000000000000000000000000000000000000000000 000000000000000A000000000000000000000000000000000000000000000 000000000000000000000000000000000000000     00000000                                                                                                                        000000000000000000
F0010000010381400005000001022529300013552100000000000000000201709210002001ALBERTO ALVAREZ ISAZA                             D000000000000000000000000000000000100010010000000000000000000000F0010000010381400520170921000101 00000000000000000000000000000000000000000000000000000000000000000000000000000000000000000000000000000000000000000N 00000000000NCONT   00    00000000000          00000000000000000000000000000000000000000000 000000000000000A000000000000000000000000000000000000000000000 000000000000000000000000000000000000000     00000000                                                                                                                        000000000000000000
F0010000010381500001000001022529300011050500000000000000000201709210002001ALBERTO ALVAREZ ISAZA                             D000000000700000000000000000000000100010010000000000000000000000F0010000010381500120170921000101 00000000000000000000000000000000000000000000000000000000000000000000000000000000000000000000000000000000000000000N 00000000000NCONT   00    00000000000          00000000000000000000000000000000000000000000 000000000000000A000000000000000000000000000000000000000000000 000000000000000000000000000000000000000     00000000                                                                                                                        000000000000000000
F0010000010381500002000001022529300041450500000000000000000201709210002001ALBERTO ALVAREZ ISAZA                             C000000000700000000000000000000000100010010000000000000000000000F0010000010381500220170921000101 00000000000000000000000000000000000000000000000000000000000000000000000000000000000000000000000000000000000000000N 00000000000NCONT   00    00000000000          00000000000000000000000000000000000000000000 000000000000000A000000000000000000000000000000000000000000000 000000000000000000000000000000000000000     00000000                                                                                                                        000000000000000000
F0010000010381500003000001022529300042505000000000000000000201709210002001ALBERTO ALVAREZ ISAZA                             C000000000000000000000000000000000100010010000000000000000000000F0010000010381500320170921000101 00000000000000000000000000000000000000000000000000000000000000000000000000000000000000000000000000000000000000000N 00000000000NCONT   00    00000000000          00000000000000000000000000000000000000000000 000000000000000A000000000000000000000000000000000000000000000 000000000000000000000000000000000000000     00000000                                                                                                                        000000000000000000
F0010000010381500004000001022529300023658300000000000000000201709210002001ALBERTO ALVAREZ ISAZA                             C000000000000000000000000000000000100010010000000000000000000000F0010000010381500420170921000101 00000000000000000000000000000000000000000000000000000000000000000000000000000000000000000000000000000000000000000N 00000000000NCONT   00    00000000000          00000000000000000000000000000000000000000000 000000000000000A000000000000000000000000000000000000000000000 000000000000000000000000000000000000000     00000000                                                                                                                        000000000000000000
F0010000010381500005000001022529300013552100000000000000000201709210002001ALBERTO ALVAREZ ISAZA                             D000000000000000000000000000000000100010010000000000000000000000F0010000010381500520170921000101 00000000000000000000000000000000000000000000000000000000000000000000000000000000000000000000000000000000000000000N 00000000000NCONT   00    00000000000          00000000000000000000000000000000000000000000 000000000000000A000000000000000000000000000000000000000000000 000000000000000000000000000000000000000     00000000                                                                                                                        000000000000000000
F0010000010381600001000001022529300011050500000000000000000201709210002001ALBERTO ALVAREZ ISAZA                             D000000001050000000000000000000000100010010000000000000000000000F0010000010381600120170921000101 00000000000000000000000000000000000000000000000000000000000000000000000000000000000000000000000000000000000000000N 00000000000NCONT   00    00000000000          00000000000000000000000000000000000000000000 000000000000000A000000000000000000000000000000000000000000000 000000000000000000000000000000000000000     00000000                                                                                                                        000000000000000000
F0010000010381600002000001022529300041450500000000000000000201709210002001ALBERTO ALVAREZ ISAZA                             C000000001050000000000000000000000100010010000000000000000000000F0010000010381600220170921000101 00000000000000000000000000000000000000000000000000000000000000000000000000000000000000000000000000000000000000000N 00000000000NCONT   00    00000000000          00000000000000000000000000000000000000000000 000000000000000A000000000000000000000000000000000000000000000 000000000000000000000000000000000000000     00000000                                                                                                                        000000000000000000
F0010000010381600003000001022529300042505000000000000000000201709210002001ALBERTO ALVAREZ ISAZA                             C000000000000000000000000000000000100010010000000000000000000000F0010000010381600320170921000101 00000000000000000000000000000000000000000000000000000000000000000000000000000000000000000000000000000000000000000N 00000000000NCONT   00    00000000000          00000000000000000000000000000000000000000000 000000000000000A000000000000000000000000000000000000000000000 000000000000000000000000000000000000000     00000000                                                                                                                        000000000000000000
F0010000010381600004000001022529300023658300000000000000000201709210002001ALBERTO ALVAREZ ISAZA                             C000000000000000000000000000000000100010010000000000000000000000F0010000010381600420170921000101 00000000000000000000000000000000000000000000000000000000000000000000000000000000000000000000000000000000000000000N 00000000000NCONT   00    00000000000          00000000000000000000000000000000000000000000 000000000000000A000000000000000000000000000000000000000000000 000000000000000000000000000000000000000     00000000                                                                                                                        000000000000000000
F0010000010381600005000001022529300013552100000000000000000201709210002001ALBERTO ALVAREZ ISAZA                             D000000000000000000000000000000000100010010000000000000000000000F0010000010381600520170921000101 00000000000000000000000000000000000000000000000000000000000000000000000000000000000000000000000000000000000000000N 00000000000NCONT   00    00000000000          00000000000000000000000000000000000000000000 000000000000000A000000000000000000000000000000000000000000000 000000000000000000000000000000000000000     00000000                                                                                                                        000000000000000000
F0010000010381700001000001022529300011050500000000000000000201709210002001ALBERTO ALVAREZ ISAZA                             D000000001750000000000000000000000100010010000000000000000000000F0010000010381700120170921000101 00000000000000000000000000000000000000000000000000000000000000000000000000000000000000000000000000000000000000000N 00000000000NCONT   00    00000000000          00000000000000000000000000000000000000000000 000000000000000A000000000000000000000000000000000000000000000 000000000000000000000000000000000000000     00000000                                                                                                                        000000000000000000
F0010000010381700002000001022529300041450500000000000000000201709210002001ALBERTO ALVAREZ ISAZA                             C000000001750000000000000000000000100010010000000000000000000000F0010000010381700220170921000101 00000000000000000000000000000000000000000000000000000000000000000000000000000000000000000000000000000000000000000N 00000000000NCONT   00    00000000000          00000000000000000000000000000000000000000000 000000000000000A000000000000000000000000000000000000000000000 000000000000000000000000000000000000000     00000000                                                                                                                        000000000000000000
F0010000010381700003000001022529300042505000000000000000000201709210002001ALBERTO ALVAREZ ISAZA                             C000000000000000000000000000000000100010010000000000000000000000F0010000010381700320170921000101 00000000000000000000000000000000000000000000000000000000000000000000000000000000000000000000000000000000000000000N 00000000000NCONT   00    00000000000          00000000000000000000000000000000000000000000 000000000000000A000000000000000000000000000000000000000000000 000000000000000000000000000000000000000     00000000                                                                                                                        000000000000000000
F0010000010381700004000001022529300023658300000000000000000201709210002001ALBERTO ALVAREZ ISAZA                             C000000000000000000000000000000000100010010000000000000000000000F0010000010381700420170921000101 00000000000000000000000000000000000000000000000000000000000000000000000000000000000000000000000000000000000000000N 00000000000NCONT   00    00000000000          00000000000000000000000000000000000000000000 000000000000000A000000000000000000000000000000000000000000000 000000000000000000000000000000000000000     00000000                                                                                                                        000000000000000000
F0010000010381700005000001022529300013552100000000000000000201709210002001ALBERTO ALVAREZ ISAZA                             D000000000000000000000000000000000100010010000000000000000000000F0010000010381700520170921000101 00000000000000000000000000000000000000000000000000000000000000000000000000000000000000000000000000000000000000000N 00000000000NCONT   00    00000000000          00000000000000000000000000000000000000000000 000000000000000A000000000000000000000000000000000000000000000 000000000000000000000000000000000000000     00000000                                                                                                                        000000000000000000
F0010000010381800001000001022529300011050500000000000000000201709210002001ALBERTO ALVAREZ ISAZA                             D000000000350000000000000000000000100010010000000000000000000000F0010000010381800120170921000101 00000000000000000000000000000000000000000000000000000000000000000000000000000000000000000000000000000000000000000N 00000000000NCONT   00    00000000000          00000000000000000000000000000000000000000000 000000000000000A000000000000000000000000000000000000000000000 000000000000000000000000000000000000000     00000000                                                                                                                        000000000000000000
F0010000010381800002000001022529300041450500000000000000000201709210002001ALBERTO ALVAREZ ISAZA                             C000000000350000000000000000000000100010010000000000000000000000F0010000010381800220170921000101 00000000000000000000000000000000000000000000000000000000000000000000000000000000000000000000000000000000000000000N 00000000000NCONT   00    00000000000          00000000000000000000000000000000000000000000 000000000000000A000000000000000000000000000000000000000000000 000000000000000000000000000000000000000     00000000                                                                                                                        000000000000000000
F0010000010381800003000001022529300042505000000000000000000201709210002001ALBERTO ALVAREZ ISAZA                             C000000000000000000000000000000000100010010000000000000000000000F0010000010381800320170921000101 00000000000000000000000000000000000000000000000000000000000000000000000000000000000000000000000000000000000000000N 00000000000NCONT   00    00000000000          00000000000000000000000000000000000000000000 000000000000000A000000000000000000000000000000000000000000000 000000000000000000000000000000000000000     00000000                                                                                                                        000000000000000000
F0010000010381800004000001022529300023658300000000000000000201709210002001ALBERTO ALVAREZ ISAZA                             C000000000000000000000000000000000100010010000000000000000000000F0010000010381800420170921000101 00000000000000000000000000000000000000000000000000000000000000000000000000000000000000000000000000000000000000000N 00000000000NCONT   00    00000000000          00000000000000000000000000000000000000000000 000000000000000A000000000000000000000000000000000000000000000 000000000000000000000000000000000000000     00000000                                                                                                                        000000000000000000
F0010000010381800005000001022529300013552100000000000000000201709210002001ALBERTO ALVAREZ ISAZA                             D000000000000000000000000000000000100010010000000000000000000000F0010000010381800520170921000101 00000000000000000000000000000000000000000000000000000000000000000000000000000000000000000000000000000000000000000N 00000000000NCONT   00    00000000000          00000000000000000000000000000000000000000000 000000000000000A000000000000000000000000000000000000000000000 000000000000000000000000000000000000000     00000000                                                                                                                        000000000000000000
F0010000010381900001000080201393400011050500000000000000000201709210002001DOMEDICOS DEL NORTE                               D000000002500000000000000000000000100010010000000000000000000000F0010000010381900120170921000101 00000000000000000000000000000000000000000000000000000000000000000000000000000000000000000000000000000000000000000N 00000000000NCONT   00    00000000000          00000000000000000000000000000000000000000000 000000000000000A000000000000000000000000000000000000000000000 000000000000000000000000000000000000000     00000000                                                                                                                        000000000000000000
F0010000010381900002000080201393400041450500000000000000000201709210002001DOMEDICOS DEL NORTE                               C000000002200000000000000000000000100010010000000000000000000000F0010000010381900220170921000101 00000000000000000000000000000000000000000000000000000000000000000000000000000000000000000000000000000000000000000N 00000000000NCONT   00    00000000000          00000000000000000000000000000000000000000000 000000000000000A000000000000000000000000000000000000000000000 000000000000000000000000000000000000000     00000000                                                                                                                        000000000000000000
F0010000010381900003000080201393400042505000000000000000000201709210002001DOMEDICOS DEL NORTE                               C000000000300000000000000000000000100010010000000000000000000000F0010000010381900320170921000101 00000000000000000000000000000000000000000000000000000000000000000000000000000000000000000000000000000000000000000N 00000000000NCONT   00    00000000000          00000000000000000000000000000000000000000000 000000000000000A000000000000000000000000000000000000000000000 000000000000000000000000000000000000000     00000000                                                                                                                        000000000000000000
F0010000010381900004000080201393400023658300000000000000000201709210002001DOMEDICOS DEL NORTE                               C000000000000000000000000000000000100010010000000000000000000000F0010000010381900420170921000101 00000000000000000000000000000000000000000000000000000000000000000000000000000000000000000000000000000000000000000N 00000000000NCONT   00    00000000000          00000000000000000000000000000000000000000000 000000000000000A000000000000000000000000000000000000000000000 000000000000000000000000000000000000000     00000000                                                                                                                        000000000000000000
F0010000010381900005000080201393400013552100000000000000000201709210002001DOMEDICOS DEL NORTE                               D000000000000000000000000000000000100010010000000000000000000000F0010000010381900520170921000101 00000000000000000000000000000000000000000000000000000000000000000000000000000000000000000000000000000000000000000N 00000000000NCONT   00    00000000000          00000000000000000000000000000000000000000000 000000000000000A000000000000000000000000000000000000000000000 000000000000000000000000000000000000000     00000000                                                                                                                        000000000000000000
F0010000010382000001000000744915200011050500000000000000000201709210002001SAUL CRESPO                                       D000000006100000000000000000000000100010010000000000000000000000F0010000010382000120170921000101 00000000000000000000000000000000000000000000000000000000000000000000000000000000000000000000000000000000000000000N 00000000000NCONT   00    00000000000          00000000000000000000000000000000000000000000 000000000000000A000000000000000000000000000000000000000000000 000000000000000000000000000000000000000     00000000                                                                                                                        000000000000000000
F0010000010382000002000000744915200041450500000000000000000201709210002001SAUL CRESPO                                       C000000006000000000000000000000000100010010000000000000000000000F0010000010382000220170921000101 00000000000000000000000000000000000000000000000000000000000000000000000000000000000000000000000000000000000000000N 00000000000NCONT   00    00000000000          00000000000000000000000000000000000000000000 000000000000000A000000000000000000000000000000000000000000000 000000000000000000000000000000000000000     00000000                                                                                                                        000000000000000000
F0010000010382000003000000744915200042505000000000000000000201709210002001SAUL CRESPO                                       C000000000100000000000000000000000100010010000000000000000000000F0010000010382000320170921000101 00000000000000000000000000000000000000000000000000000000000000000000000000000000000000000000000000000000000000000N 00000000000NCONT   00    00000000000          00000000000000000000000000000000000000000000 000000000000000A000000000000000000000000000000000000000000000 000000000000000000000000000000000000000     00000000                                                                                                                        000000000000000000
F0010000010382000004000000744915200023658300000000000000000201709210002001SAUL CRESPO                                       C000000000000000000000000000000000100010010000000000000000000000F0010000010382000420170921000101 00000000000000000000000000000000000000000000000000000000000000000000000000000000000000000000000000000000000000000N 00000000000NCONT   00    00000000000          00000000000000000000000000000000000000000000 000000000000000A000000000000000000000000000000000000000000000 000000000000000000000000000000000000000     00000000                                                                                                                        000000000000000000
F0010000010382000005000000744915200013552100000000000000000201709210002001SAUL CRESPO                                       D000000000000000000000000000000000100010010000000000000000000000F0010000010382000520170921000101 00000000000000000000000000000000000000000000000000000000000000000000000000000000000000000000000000000000000000000N 00000000000NCONT   00    00000000000          00000000000000000000000000000000000000000000 000000000000000A000000000000000000000000000000000000000000000 000000000000000000000000000000000000000     00000000                                                                                                                        000000000000000000
F0010000010382100001000000744915200011050500000000000000000201709210002001SAUL CRESPO                                       D000000001300000000000000000000000100010010000000000000000000000F0010000010382100120170921000101 00000000000000000000000000000000000000000000000000000000000000000000000000000000000000000000000000000000000000000N 00000000000NCONT   00    00000000000          00000000000000000000000000000000000000000000 000000000000000A000000000000000000000000000000000000000000000 000000000000000000000000000000000000000     00000000                                                                                                                        000000000000000000
F0010000010382100002000000744915200041450500000000000000000201709210002001SAUL CRESPO                                       C000000001200000000000000000000000100010010000000000000000000000F0010000010382100220170921000101 00000000000000000000000000000000000000000000000000000000000000000000000000000000000000000000000000000000000000000N 00000000000NCONT   00    00000000000          00000000000000000000000000000000000000000000 000000000000000A000000000000000000000000000000000000000000000 000000000000000000000000000000000000000     00000000                                                                                                                        000000000000000000
F0010000010382100003000000744915200042505000000000000000000201709210002001SAUL CRESPO                                       C000000000100000000000000000000000100010010000000000000000000000F0010000010382100320170921000101 00000000000000000000000000000000000000000000000000000000000000000000000000000000000000000000000000000000000000000N 00000000000NCONT   00    00000000000          00000000000000000000000000000000000000000000 000000000000000A000000000000000000000000000000000000000000000 000000000000000000000000000000000000000     00000000                                                                                                                        000000000000000000
F0010000010382100004000000744915200023658300000000000000000201709210002001SAUL CRESPO                                       C000000000000000000000000000000000100010010000000000000000000000F0010000010382100420170921000101 00000000000000000000000000000000000000000000000000000000000000000000000000000000000000000000000000000000000000000N 00000000000NCONT   00    00000000000          00000000000000000000000000000000000000000000 000000000000000A000000000000000000000000000000000000000000000 000000000000000000000000000000000000000     00000000                                                                                                                        000000000000000000
F0010000010382100005000000744915200013552100000000000000000201709210002001SAUL CRESPO                                       D000000000000000000000000000000000100010010000000000000000000000F0010000010382100520170921000101 00000000000000000000000000000000000000000000000000000000000000000000000000000000000000000000000000000000000000000N 00000000000NCONT   00    00000000000          00000000000000000000000000000000000000000000 000000000000000A000000000000000000000000000000000000000000000 000000000000000000000000000000000000000     00000000                                                                                                                        000000000000000000
F0010000010382200001000000856527900011050500000000000000000201709210002001CESAR AUGUSTO MIER BUELVAS                        D000000001200000000000000000000000100010010000000000000000000000F0010000010382200120170921000101 00000000000000000000000000000000000000000000000000000000000000000000000000000000000000000000000000000000000000000N 00000000000NCONT   00    00000000000          00000000000000000000000000000000000000000000 000000000000000A000000000000000000000000000000000000000000000 000000000000000000000000000000000000000     00000000                                                                                                                        000000000000000000
F0010000010382200002000000856527900041450500000000000000000201709210002001CESAR AUGUSTO MIER BUELVAS                        C000000001100000000000000000000000100010010000000000000000000000F0010000010382200220170921000101 00000000000000000000000000000000000000000000000000000000000000000000000000000000000000000000000000000000000000000N 00000000000NCONT   00    00000000000          00000000000000000000000000000000000000000000 000000000000000A000000000000000000000000000000000000000000000 000000000000000000000000000000000000000     00000000                                                                                                                        000000000000000000
F0010000010382200003000000856527900042505000000000000000000201709210002001CESAR AUGUSTO MIER BUELVAS                        C000000000100000000000000000000000100010010000000000000000000000F0010000010382200320170921000101 00000000000000000000000000000000000000000000000000000000000000000000000000000000000000000000000000000000000000000N 00000000000NCONT   00    00000000000          00000000000000000000000000000000000000000000 000000000000000A000000000000000000000000000000000000000000000 000000000000000000000000000000000000000     00000000                                                                                                                        000000000000000000
F0010000010382200004000000856527900023658300000000000000000201709210002001CESAR AUGUSTO MIER BUELVAS                        C000000000000000000000000000000000100010010000000000000000000000F0010000010382200420170921000101 00000000000000000000000000000000000000000000000000000000000000000000000000000000000000000000000000000000000000000N 00000000000NCONT   00    00000000000          00000000000000000000000000000000000000000000 000000000000000A000000000000000000000000000000000000000000000 000000000000000000000000000000000000000     00000000                                                                                                                        000000000000000000
F0010000010382200005000000856527900013552100000000000000000201709210002001CESAR AUGUSTO MIER BUELVAS                        D000000000000000000000000000000000100010010000000000000000000000F0010000010382200520170921000101 00000000000000000000000000000000000000000000000000000000000000000000000000000000000000000000000000000000000000000N 00000000000NCONT   00    00000000000          00000000000000000000000000000000000000000000 000000000000000A000000000000000000000000000000000000000000000 000000000000000000000000000000000000000     00000000                                                                                                                        000000000000000000
F0010000010382300001000001535146600011050500000000000000000201709210002001ORLANDO OROZCO NAVARRO                            D000000001500000000000000000000000100010010000000000000000000000F0010000010382300120170921000101 00000000000000000000000000000000000000000000000000000000000000000000000000000000000000000000000000000000000000000N 00000000000NCONT   00    00000000000          00000000000000000000000000000000000000000000 000000000000000A000000000000000000000000000000000000000000000 000000000000000000000000000000000000000     00000000                                                                                                                        000000000000000000
F0010000010382300002000001535146600041450500000000000000000201709210002001ORLANDO OROZCO NAVARRO                            C000000001400000000000000000000000100010010000000000000000000000F0010000010382300220170921000101 00000000000000000000000000000000000000000000000000000000000000000000000000000000000000000000000000000000000000000N 00000000000NCONT   00    00000000000          00000000000000000000000000000000000000000000 000000000000000A000000000000000000000000000000000000000000000 000000000000000000000000000000000000000     00000000                                                                                                                        000000000000000000
