F0010000010402800001000090060531100013050500000000000000000201709260002001RECUBRIMIENTOS ESENCIALES SAS                     D000000040999000000000000000000000100010010000000000000000000000F0010000010402800120170926000101 00000000000000000000000000000000000000000000000000000000000000000000000000000000000000000000000000000000000000000N 00000000000NCONT   00    00000000000          00000000000000000000000000000000000000000000 000000000000000A000000000000000000000000000000000000000000000 000000000000000000000000000000000000000     00000000                                                                                                                        000000000000000000
F0010000010402800002000090060531100041450500000000000000000201709260002001RECUBRIMIENTOS ESENCIALES SAS                     C000000037399000000000000000000000100010010000000000000000000000F0010000010402800220170926000101 00000000000000000000000000000000000000000000000000000000000000000000000000000000000000000000000000000000000000000N 00000000000NCONT   00    00000000000          00000000000000000000000000000000000000000000 000000000000000A000000000000000000000000000000000000000000000 000000000000000000000000000000000000000     00000000                                                                                                                        000000000000000000
F0010000010402800003000090060531100042505000000000000000000201709260002001RECUBRIMIENTOS ESENCIALES SAS                     C000000003600000000000000000000000100010010000000000000000000000F0010000010402800320170926000101 00000000000000000000000000000000000000000000000000000000000000000000000000000000000000000000000000000000000000000N 00000000000NCONT   00    00000000000          00000000000000000000000000000000000000000000 000000000000000A000000000000000000000000000000000000000000000 000000000000000000000000000000000000000     00000000                                                                                                                        000000000000000000
F0010000010402800004000090060531100023658300000000000000000201709260002001RECUBRIMIENTOS ESENCIALES SAS                     C000000000000000000000000000000000100010010000000000000000000000F0010000010402800420170926000101 00000000000000000000000000000000000000000000000000000000000000000000000000000000000000000000000000000000000000000N 00000000000NCONT   00    00000000000          00000000000000000000000000000000000000000000 000000000000000A000000000000000000000000000000000000000000000 000000000000000000000000000000000000000     00000000                                                                                                                        000000000000000000
F0010000010402800005000090060531100013552100000000000000000201709260002001RECUBRIMIENTOS ESENCIALES SAS                     D000000000000000000000000000000000100010010000000000000000000000F0010000010402800520170926000101 00000000000000000000000000000000000000000000000000000000000000000000000000000000000000000000000000000000000000000N 00000000000NCONT   00    00000000000          00000000000000000000000000000000000000000000 000000000000000A000000000000000000000000000000000000000000000 000000000000000000000000000000000000000     00000000                                                                                                                        000000000000000000
F0010000010402900001000114087813600013050500000000000000000201709260002001SERGIO ANDRES QUIJANO                             D000000006400000000000000000000000100010010000000000000000000000F0010000010402900120170926000101 00000000000000000000000000000000000000000000000000000000000000000000000000000000000000000000000000000000000000000N 00000000000NCONT   00    00000000000          00000000000000000000000000000000000000000000 000000000000000A000000000000000000000000000000000000000000000 000000000000000000000000000000000000000     00000000                                                                                                                        000000000000000000
F0010000010402900002000114087813600041450500000000000000000201709260002001SERGIO ANDRES QUIJANO                             C000000005600000000000000000000000100010010000000000000000000000F0010000010402900220170926000101 00000000000000000000000000000000000000000000000000000000000000000000000000000000000000000000000000000000000000000N 00000000000NCONT   00    00000000000          00000000000000000000000000000000000000000000 000000000000000A000000000000000000000000000000000000000000000 000000000000000000000000000000000000000     00000000                                                                                                                        000000000000000000
F0010000010402900003000114087813600042505000000000000000000201709260002001SERGIO ANDRES QUIJANO                             C000000000800000000000000000000000100010010000000000000000000000F0010000010402900320170926000101 00000000000000000000000000000000000000000000000000000000000000000000000000000000000000000000000000000000000000000N 00000000000NCONT   00    00000000000          00000000000000000000000000000000000000000000 000000000000000A000000000000000000000000000000000000000000000 000000000000000000000000000000000000000     00000000                                                                                                                        000000000000000000
F0010000010402900004000114087813600023658300000000000000000201709260002001SERGIO ANDRES QUIJANO                             C000000000000000000000000000000000100010010000000000000000000000F0010000010402900420170926000101 00000000000000000000000000000000000000000000000000000000000000000000000000000000000000000000000000000000000000000N 00000000000NCONT   00    00000000000          00000000000000000000000000000000000000000000 000000000000000A000000000000000000000000000000000000000000000 000000000000000000000000000000000000000     00000000                                                                                                                        000000000000000000
F0010000010402900005000114087813600013552100000000000000000201709260002001SERGIO ANDRES QUIJANO                             D000000000000000000000000000000000100010010000000000000000000000F0010000010402900520170926000101 00000000000000000000000000000000000000000000000000000000000000000000000000000000000000000000000000000000000000000N 00000000000NCONT   00    00000000000          00000000000000000000000000000000000000000000 000000000000000A000000000000000000000000000000000000000000000 000000000000000000000000000000000000000     00000000                                                                                                                        000000000000000000
F0010000010403000001000089031248700013050500000000000000000201709260002001DISTRIBUIDORA CALIPLASTICOS LTDA                  D000000080914100000000000000000000100010010000000000000000000000F0010000010403000120170926000101 00000000000000000000000000000000000000000000000000000000000000000000000000000000000000000000000000000000000000000N 00000000000NCONT   00    00000000000          00000000000000000000000000000000000000000000 000000000000000A000000000000000000000000000000000000000000000 000000000000000000000000000000000000000     00000000                                                                                                                        000000000000000000
F0010000010403000002000089031248700041450500000000000000000201709260002001DISTRIBUIDORA CALIPLASTICOS LTDA                  C000000079314100000000000000000000100010010000000000000000000000F0010000010403000220170926000101 00000000000000000000000000000000000000000000000000000000000000000000000000000000000000000000000000000000000000000N 00000000000NCONT   00    00000000000          00000000000000000000000000000000000000000000 000000000000000A000000000000000000000000000000000000000000000 000000000000000000000000000000000000000     00000000                                                                                                                        000000000000000000
F0010000010403000003000089031248700042505000000000000000000201709260002001DISTRIBUIDORA CALIPLASTICOS LTDA                  C000000001600000000000000000000000100010010000000000000000000000F0010000010403000320170926000101 00000000000000000000000000000000000000000000000000000000000000000000000000000000000000000000000000000000000000000N 00000000000NCONT   00    00000000000          00000000000000000000000000000000000000000000 000000000000000A000000000000000000000000000000000000000000000 000000000000000000000000000000000000000     00000000                                                                                                                        000000000000000000
F0010000010403000004000089031248700023658300000000000000000201709260002001DISTRIBUIDORA CALIPLASTICOS LTDA                  C000000000000000000000000000000000100010010000000000000000000000F0010000010403000420170926000101 00000000000000000000000000000000000000000000000000000000000000000000000000000000000000000000000000000000000000000N 00000000000NCONT   00    00000000000          00000000000000000000000000000000000000000000 000000000000000A000000000000000000000000000000000000000000000 000000000000000000000000000000000000000     00000000                                                                                                                        000000000000000000
F0010000010403000005000089031248700013552100000000000000000201709260002001DISTRIBUIDORA CALIPLASTICOS LTDA                  D000000000000000000000000000000000100010010000000000000000000000F0010000010403000520170926000101 00000000000000000000000000000000000000000000000000000000000000000000000000000000000000000000000000000000000000000N 00000000000NCONT   00    00000000000          00000000000000000000000000000000000000000000 000000000000000A000000000000000000000000000000000000000000000 000000000000000000000000000000000000000     00000000                                                                                                                        000000000000000000
F0010000010403100001000002245670100013050500000000000000000201709260002001YOLANDA  TOBON                                    D000000057191400000000000000000000100010010000000000000000000000F0010000010403100120170926000101 00000000000000000000000000000000000000000000000000000000000000000000000000000000000000000000000000000000000000000N 00000000000NCONT   00    00000000000          00000000000000000000000000000000000000000000 000000000000000A000000000000000000000000000000000000000000000 000000000000000000000000000000000000000     00000000                                                                                                                        000000000000000000
F0010000010403100002000002245670100041450500000000000000000201709260002001YOLANDA  TOBON                                    C000000044260000000000000000000000100010010000000000000000000000F0010000010403100220170926000101 00000000000000000000000000000000000000000000000000000000000000000000000000000000000000000000000000000000000000000N 00000000000NCONT   00    00000000000          00000000000000000000000000000000000000000000 000000000000000A000000000000000000000000000000000000000000000 000000000000000000000000000000000000000     00000000                                                                                                                        000000000000000000
F0010000010403100003000002245670100042505000000000000000000201709260002001YOLANDA  TOBON                                    C000000012931400000000000000000000100010010000000000000000000000F0010000010403100320170926000101 00000000000000000000000000000000000000000000000000000000000000000000000000000000000000000000000000000000000000000N 00000000000NCONT   00    00000000000          00000000000000000000000000000000000000000000 000000000000000A000000000000000000000000000000000000000000000 000000000000000000000000000000000000000     00000000                                                                                                                        000000000000000000
F0010000010403100004000002245670100023658300000000000000000201709260002001YOLANDA  TOBON                                    C000000000000000000000000000000000100010010000000000000000000000F0010000010403100420170926000101 00000000000000000000000000000000000000000000000000000000000000000000000000000000000000000000000000000000000000000N 00000000000NCONT   00    00000000000          00000000000000000000000000000000000000000000 000000000000000A000000000000000000000000000000000000000000000 000000000000000000000000000000000000000     00000000                                                                                                                        000000000000000000
F0010000010403100005000002245670100013552100000000000000000201709260002001YOLANDA  TOBON                                    D000000000000000000000000000000000100010010000000000000000000000F0010000010403100520170926000101 00000000000000000000000000000000000000000000000000000000000000000000000000000000000000000000000000000000000000000N 00000000000NCONT   00    00000000000          00000000000000000000000000000000000000000000 000000000000000A000000000000000000000000000000000000000000000 000000000000000000000000000000000000000     00000000                                                                                                                        000000000000000000
F0010000010403200001000080200069100013050500000000000000000201709260002001PEGANTES Y PINTURAS ATLAS LTDA                    D000000025032000000000000000000000100010010000000000000000000000F0010000010403200120170926000101 00000000000000000000000000000000000000000000000000000000000000000000000000000000000000000000000000000000000000000N 00000000000NCONT   00    00000000000          00000000000000000000000000000000000000000000 000000000000000A000000000000000000000000000000000000000000000 000000000000000000000000000000000000000     00000000                                                                                                                        000000000000000000
F0010000010403200002000080200069100041450500000000000000000201709260002001PEGANTES Y PINTURAS ATLAS LTDA                    C000000021780000000000000000000000100010010000000000000000000000F0010000010403200220170926000101 00000000000000000000000000000000000000000000000000000000000000000000000000000000000000000000000000000000000000000N 00000000000NCONT   00    00000000000          00000000000000000000000000000000000000000000 000000000000000A000000000000000000000000000000000000000000000 000000000000000000000000000000000000000     00000000                                                                                                                        000000000000000000
F0010000010403200003000080200069100042505000000000000000000201709260002001PEGANTES Y PINTURAS ATLAS LTDA                    C000000003252000000000000000000000100010010000000000000000000000F0010000010403200320170926000101 00000000000000000000000000000000000000000000000000000000000000000000000000000000000000000000000000000000000000000N 00000000000NCONT   00    00000000000          00000000000000000000000000000000000000000000 000000000000000A000000000000000000000000000000000000000000000 000000000000000000000000000000000000000     00000000                                                                                                                        000000000000000000
F0010000010403200004000080200069100023658300000000000000000201709260002001PEGANTES Y PINTURAS ATLAS LTDA                    C000000000000000000000000000000000100010010000000000000000000000F0010000010403200420170926000101 00000000000000000000000000000000000000000000000000000000000000000000000000000000000000000000000000000000000000000N 00000000000NCONT   00    00000000000          00000000000000000000000000000000000000000000 000000000000000A000000000000000000000000000000000000000000000 000000000000000000000000000000000000000     00000000                                                                                                                        000000000000000000
F0010000010403200005000080200069100013552100000000000000000201709260002001PEGANTES Y PINTURAS ATLAS LTDA                    D000000000000000000000000000000000100010010000000000000000000000F0010000010403200520170926000101 00000000000000000000000000000000000000000000000000000000000000000000000000000000000000000000000000000000000000000N 00000000000NCONT   00    00000000000          00000000000000000000000000000000000000000000 000000000000000A000000000000000000000000000000000000000000000 000000000000000000000000000000000000000     00000000                                                                                                                        000000000000000000
F0010000010403300001000080016665600013050500000000000000000201709260002001SUMICAL DE ANTIOQUIA S.A.S                        D000000008966900000000000000000000100010010000000000000000000000F0010000010403300120170926000101 00000000000000000000000000000000000000000000000000000000000000000000000000000000000000000000000000000000000000000N 00000000000NCONT   00    00000000000          00000000000000000000000000000000000000000000 000000000000000A000000000000000000000000000000000000000000000 000000000000000000000000000000000000000     00000000                                                                                                                        000000000000000000
F0010000010403300002000080016665600041450500000000000000000201709260002001SUMICAL DE ANTIOQUIA S.A.S                        C000000007580000000000000000000000100010010000000000000000000000F0010000010403300220170926000101 00000000000000000000000000000000000000000000000000000000000000000000000000000000000000000000000000000000000000000N 00000000000NCONT   00    00000000000          00000000000000000000000000000000000000000000 000000000000000A000000000000000000000000000000000000000000000 000000000000000000000000000000000000000     00000000                                                                                                                        000000000000000000
F0010000010403300003000080016665600042505000000000000000000201709260002001SUMICAL DE ANTIOQUIA S.A.S                        C000000001386900000000000000000000100010010000000000000000000000F0010000010403300320170926000101 00000000000000000000000000000000000000000000000000000000000000000000000000000000000000000000000000000000000000000N 00000000000NCONT   00    00000000000          00000000000000000000000000000000000000000000 000000000000000A000000000000000000000000000000000000000000000 000000000000000000000000000000000000000     00000000                                                                                                                        000000000000000000
F0010000010403300004000080016665600023658300000000000000000201709260002001SUMICAL DE ANTIOQUIA S.A.S                        C000000000000000000000000000000000100010010000000000000000000000F0010000010403300420170926000101 00000000000000000000000000000000000000000000000000000000000000000000000000000000000000000000000000000000000000000N 00000000000NCONT   00    00000000000          00000000000000000000000000000000000000000000 000000000000000A000000000000000000000000000000000000000000000 000000000000000000000000000000000000000     00000000                                                                                                                        000000000000000000
F0010000010403300005000080016665600013552100000000000000000201709260002001SUMICAL DE ANTIOQUIA S.A.S                        D000000000000000000000000000000000100010010000000000000000000000F0010000010403300520170926000101 00000000000000000000000000000000000000000000000000000000000000000000000000000000000000000000000000000000000000000N 00000000000NCONT   00    00000000000          00000000000000000000000000000000000000000000 000000000000000A000000000000000000000000000000000000000000000 000000000000000000000000000000000000000     00000000                                                                                                                        000000000000000000
F0010000010403400001000083007900600013050500000000000000000201709260002001EXPRESO ANDINO DE CARGA SA                        D000000123800000000000000000000000100010010000000000000000000000F0010000010403400120170926000101 00000000000000000000000000000000000000000000000000000000000000000000000000000000000000000000000000000000000000000N 00000000000NCONT   00    00000000000          00000000000000000000000000000000000000000000 000000000000000A000000000000000000000000000000000000000000000 000000000000000000000000000000000000000     00000000                                                                                                                        000000000000000000
F0010000010403400002000083007900600041450500000000000000000201709260002001EXPRESO ANDINO DE CARGA SA                        C000000122500000000000000000000000100010010000000000000000000000F0010000010403400220170926000101 00000000000000000000000000000000000000000000000000000000000000000000000000000000000000000000000000000000000000000N 00000000000NCONT   00    00000000000          00000000000000000000000000000000000000000000 000000000000000A000000000000000000000000000000000000000000000 000000000000000000000000000000000000000     00000000                                                                                                                        000000000000000000
F0010000010403400003000083007900600042505000000000000000000201709260002001EXPRESO ANDINO DE CARGA SA                        C000000001300000000000000000000000100010010000000000000000000000F0010000010403400320170926000101 00000000000000000000000000000000000000000000000000000000000000000000000000000000000000000000000000000000000000000N 00000000000NCONT   00    00000000000          00000000000000000000000000000000000000000000 000000000000000A000000000000000000000000000000000000000000000 000000000000000000000000000000000000000     00000000                                                                                                                        000000000000000000
F0010000010403400004000083007900600023658300000000000000000201709260002001EXPRESO ANDINO DE CARGA SA                        C000000000000000000000000000000000100010010000000000000000000000F0010000010403400420170926000101 00000000000000000000000000000000000000000000000000000000000000000000000000000000000000000000000000000000000000000N 00000000000NCONT   00    00000000000          00000000000000000000000000000000000000000000 000000000000000A000000000000000000000000000000000000000000000 000000000000000000000000000000000000000     00000000                                                                                                                        000000000000000000
F0010000010403400005000083007900600013552100000000000000000201709260002001EXPRESO ANDINO DE CARGA SA                        D000000000000000000000000000000000100010010000000000000000000000F0010000010403400520170926000101 00000000000000000000000000000000000000000000000000000000000000000000000000000000000000000000000000000000000000000N 00000000000NCONT   00    00000000000          00000000000000000000000000000000000000000000 000000000000000A000000000000000000000000000000000000000000000 000000000000000000000000000000000000000     00000000                                                                                                                        000000000000000000
F0010000010403500001000090049854300013050500000000000000000201709260002001TRAPOS INDUSTRIALES DE COLOMBIA SAS               D000000015560000000000000000000000100010010000000000000000000000F0010000010403500120170926000101 00000000000000000000000000000000000000000000000000000000000000000000000000000000000000000000000000000000000000000N 00000000000NCONT   00    00000000000          00000000000000000000000000000000000000000000 000000000000000A000000000000000000000000000000000000000000000 000000000000000000000000000000000000000     00000000                                                                                                                        000000000000000000
F0010000010403500002000090049854300041450500000000000000000201709260002001TRAPOS INDUSTRIALES DE COLOMBIA SAS               C000000014000000000000000000000000100010010000000000000000000000F0010000010403500220170926000101 00000000000000000000000000000000000000000000000000000000000000000000000000000000000000000000000000000000000000000N 00000000000NCONT   00    00000000000          00000000000000000000000000000000000000000000 000000000000000A000000000000000000000000000000000000000000000 000000000000000000000000000000000000000     00000000                                                                                                                        000000000000000000
F0010000010403500003000090049854300042505000000000000000000201709260002001TRAPOS INDUSTRIALES DE COLOMBIA SAS               C000000001560000000000000000000000100010010000000000000000000000F0010000010403500320170926000101 00000000000000000000000000000000000000000000000000000000000000000000000000000000000000000000000000000000000000000N 00000000000NCONT   00    00000000000          00000000000000000000000000000000000000000000 000000000000000A000000000000000000000000000000000000000000000 000000000000000000000000000000000000000     00000000                                                                                                                        000000000000000000
F0010000010403500004000090049854300023658300000000000000000201709260002001TRAPOS INDUSTRIALES DE COLOMBIA SAS               C000000000000000000000000000000000100010010000000000000000000000F0010000010403500420170926000101 00000000000000000000000000000000000000000000000000000000000000000000000000000000000000000000000000000000000000000N 00000000000NCONT   00    00000000000          00000000000000000000000000000000000000000000 000000000000000A000000000000000000000000000000000000000000000 000000000000000000000000000000000000000     00000000                                                                                                                        000000000000000000
F0010000010403500005000090049854300013552100000000000000000201709260002001TRAPOS INDUSTRIALES DE COLOMBIA SAS               D000000000000000000000000000000000100010010000000000000000000000F0010000010403500520170926000101 00000000000000000000000000000000000000000000000000000000000000000000000000000000000000000000000000000000000000000N 00000000000NCONT   00    00000000000          00000000000000000000000000000000000000000000 000000000000000A000000000000000000000000000000000000000000000 000000000000000000000000000000000000000     00000000                                                                                                                        000000000000000000
F0010000010403600001000090052543100013050500000000000000000201709260002001SECRET COLOR SAS                                  D000000004920000000000000000000000100010010000000000000000000000F0010000010403600120170926000101 00000000000000000000000000000000000000000000000000000000000000000000000000000000000000000000000000000000000000000N 00000000000NCONT   00    00000000000          00000000000000000000000000000000000000000000 000000000000000A000000000000000000000000000000000000000000000 000000000000000000000000000000000000000     00000000                                                                                                                        000000000000000000
F0010000010403600002000090052543100041450500000000000000000201709260002001SECRET COLOR SAS                                  C000000004920000000000000000000000100010010000000000000000000000F0010000010403600220170926000101 00000000000000000000000000000000000000000000000000000000000000000000000000000000000000000000000000000000000000000N 00000000000NCONT   00    00000000000          00000000000000000000000000000000000000000000 000000000000000A000000000000000000000000000000000000000000000 000000000000000000000000000000000000000     00000000                                                                                                                        000000000000000000
F0010000010403600003000090052543100042505000000000000000000201709260002001SECRET COLOR SAS                                  C000000000000000000000000000000000100010010000000000000000000000F0010000010403600320170926000101 00000000000000000000000000000000000000000000000000000000000000000000000000000000000000000000000000000000000000000N 00000000000NCONT   00    00000000000          00000000000000000000000000000000000000000000 000000000000000A000000000000000000000000000000000000000000000 000000000000000000000000000000000000000     00000000                                                                                                                        000000000000000000
F0010000010403600004000090052543100023658300000000000000000201709260002001SECRET COLOR SAS                                  C000000000000000000000000000000000100010010000000000000000000000F0010000010403600420170926000101 00000000000000000000000000000000000000000000000000000000000000000000000000000000000000000000000000000000000000000N 00000000000NCONT   00    00000000000          00000000000000000000000000000000000000000000 000000000000000A000000000000000000000000000000000000000000000 000000000000000000000000000000000000000     00000000                                                                                                                        000000000000000000
F0010000010403600005000090052543100013552100000000000000000201709260002001SECRET COLOR SAS                                  D000000000000000000000000000000000100010010000000000000000000000F0010000010403600520170926000101 00000000000000000000000000000000000000000000000000000000000000000000000000000000000000000000000000000000000000000N 00000000000NCONT   00    00000000000          00000000000000000000000000000000000000000000 000000000000000A000000000000000000000000000000000000000000000 000000000000000000000000000000000000000     00000000                                                                                                                        000000000000000000
F0010000010403700001000080002300200013050500000000000000000201709260002001DISREL S.A.                                       D000000055000000000000000000000000100010010000000000000000000000F0010000010403700120170926000101 00000000000000000000000000000000000000000000000000000000000000000000000000000000000000000000000000000000000000000N 00000000000NCONT   00    00000000000          00000000000000000000000000000000000000000000 000000000000000A000000000000000000000000000000000000000000000 000000000000000000000000000000000000000     00000000                                                                                                                        000000000000000000
F0010000010403700002000080002300200041450500000000000000000201709260002001DISREL S.A.                                       C000000046440000000000000000000000100010010000000000000000000000F0010000010403700220170926000101 00000000000000000000000000000000000000000000000000000000000000000000000000000000000000000000000000000000000000000N 00000000000NCONT   00    00000000000          00000000000000000000000000000000000000000000 000000000000000A000000000000000000000000000000000000000000000 000000000000000000000000000000000000000     00000000                                                                                                                        000000000000000000
F0010000010403700003000080002300200042505000000000000000000201709260002001DISREL S.A.                                       C000000008560000000000000000000000100010010000000000000000000000F0010000010403700320170926000101 00000000000000000000000000000000000000000000000000000000000000000000000000000000000000000000000000000000000000000N 00000000000NCONT   00    00000000000          00000000000000000000000000000000000000000000 000000000000000A000000000000000000000000000000000000000000000 000000000000000000000000000000000000000     00000000                                                                                                                        000000000000000000
F0010000010403700004000080002300200023658300000000000000000201709260002001DISREL S.A.                                       C000000000000000000000000000000000100010010000000000000000000000F0010000010403700420170926000101 00000000000000000000000000000000000000000000000000000000000000000000000000000000000000000000000000000000000000000N 00000000000NCONT   00    00000000000          00000000000000000000000000000000000000000000 000000000000000A000000000000000000000000000000000000000000000 000000000000000000000000000000000000000     00000000                                                                                                                        000000000000000000
F0010000010403700005000080002300200013552100000000000000000201709260002001DISREL S.A.                                       D000000000000000000000000000000000100010010000000000000000000000F0010000010403700520170926000101 00000000000000000000000000000000000000000000000000000000000000000000000000000000000000000000000000000000000000000N 00000000000NCONT   00    00000000000          00000000000000000000000000000000000000000000 000000000000000A000000000000000000000000000000000000000000000 000000000000000000000000000000000000000     00000000                                                                                                                        000000000000000000
F0010000010403800001000003273290300013050500000000000000000201709260002001YANETH GOMEZ ROJANO -  COMERCIALIZADORA YG        D000000010830500000000000000000000100010010000000000000000000000F0010000010403800120170926000101 00000000000000000000000000000000000000000000000000000000000000000000000000000000000000000000000000000000000000000N 00000000000NCONT   00    00000000000          00000000000000000000000000000000000000000000 000000000000000A000000000000000000000000000000000000000000000 000000000000000000000000000000000000000     00000000                                                                                                                        000000000000000000
F0010000010403800002000003273290300041450500000000000000000201709260002001YANETH GOMEZ ROJANO -  COMERCIALIZADORA YG        C000000008150000000000000000000000100010010000000000000000000000F0010000010403800220170926000101 00000000000000000000000000000000000000000000000000000000000000000000000000000000000000000000000000000000000000000N 00000000000NCONT   00    00000000000          00000000000000000000000000000000000000000000 000000000000000A000000000000000000000000000000000000000000000 000000000000000000000000000000000000000     00000000                                                                                                                        000000000000000000
F0010000010403800003000003273290300042505000000000000000000201709260002001YANETH GOMEZ ROJANO -  COMERCIALIZADORA YG        C000000002680500000000000000000000100010010000000000000000000000F0010000010403800320170926000101 00000000000000000000000000000000000000000000000000000000000000000000000000000000000000000000000000000000000000000N 00000000000NCONT   00    00000000000          00000000000000000000000000000000000000000000 000000000000000A000000000000000000000000000000000000000000000 000000000000000000000000000000000000000     00000000                                                                                                                        000000000000000000
F0010000010403800004000003273290300023658300000000000000000201709260002001YANETH GOMEZ ROJANO -  COMERCIALIZADORA YG        C000000000000000000000000000000000100010010000000000000000000000F0010000010403800420170926000101 00000000000000000000000000000000000000000000000000000000000000000000000000000000000000000000000000000000000000000N 00000000000NCONT   00    00000000000          00000000000000000000000000000000000000000000 000000000000000A000000000000000000000000000000000000000000000 000000000000000000000000000000000000000     00000000                                                                                                                        000000000000000000
F0010000010403800005000003273290300013552100000000000000000201709260002001YANETH GOMEZ ROJANO -  COMERCIALIZADORA YG        D000000000000000000000000000000000100010010000000000000000000000F0010000010403800520170926000101 00000000000000000000000000000000000000000000000000000000000000000000000000000000000000000000000000000000000000000N 00000000000NCONT   00    00000000000          00000000000000000000000000000000000000000000 000000000000000A000000000000000000000000000000000000000000000 000000000000000000000000000000000000000     00000000                                                                                                                        000000000000000000
F0010000010403900001000089010260300013050500000000000000000201709260002001FEDERICO OSORIO A. S.A.                           D000000198958500000000000000000000100010010000000000000000000000F0010000010403900120170926000101 00000000000000000000000000000000000000000000000000000000000000000000000000000000000000000000000000000000000000000N 00000000000NCONT   00    00000000000          00000000000000000000000000000000000000000000 000000000000000A000000000000000000000000000000000000000000000 000000000000000000000000000000000000000     00000000                                                                                                                        000000000000000000
F0010000010403900002000089010260300041450500000000000000000201709260002001FEDERICO OSORIO A. S.A.                           C000000187340000000000000000000000100010010000000000000000000000F0010000010403900220170926000101 00000000000000000000000000000000000000000000000000000000000000000000000000000000000000000000000000000000000000000N 00000000000NCONT   00    00000000000          00000000000000000000000000000000000000000000 000000000000000A000000000000000000000000000000000000000000000 000000000000000000000000000000000000000     00000000                                                                                                                        000000000000000000
F0010000010403900003000089010260300042505000000000000000000201709260002001FEDERICO OSORIO A. S.A.                           C000000011618500000000000000000000100010010000000000000000000000F0010000010403900320170926000101 00000000000000000000000000000000000000000000000000000000000000000000000000000000000000000000000000000000000000000N 00000000000NCONT   00    00000000000          00000000000000000000000000000000000000000000 000000000000000A000000000000000000000000000000000000000000000 000000000000000000000000000000000000000     00000000                                                                                                                        000000000000000000
F0010000010403900004000089010260300023658300000000000000000201709260002001FEDERICO OSORIO A. S.A.                           C000000000000000000000000000000000100010010000000000000000000000F0010000010403900420170926000101 00000000000000000000000000000000000000000000000000000000000000000000000000000000000000000000000000000000000000000N 00000000000NCONT   00    00000000000          00000000000000000000000000000000000000000000 000000000000000A000000000000000000000000000000000000000000000 000000000000000000000000000000000000000     00000000                                                                                                                        000000000000000000
F0010000010403900005000089010260300013552100000000000000000201709260002001FEDERICO OSORIO A. S.A.                           D000000000000000000000000000000000100010010000000000000000000000F0010000010403900520170926000101 00000000000000000000000000000000000000000000000000000000000000000000000000000000000000000000000000000000000000000N 00000000000NCONT   00    00000000000          00000000000000000000000000000000000000000000 000000000000000A000000000000000000000000000000000000000000000 000000000000000000000000000000000000000     00000000                                                                                                                        000000000000000000
F0010000010404000001000089010260300013050500000000000000000201709260002001FEDERICO OSORIO A. S.A.                           D000000005733300000000000000000000100010010000000000000000000000F0010000010404000120170926000101 00000000000000000000000000000000000000000000000000000000000000000000000000000000000000000000000000000000000000000N 00000000000NCONT   00    00000000000          00000000000000000000000000000000000000000000 000000000000000A000000000000000000000000000000000000000000000 000000000000000000000000000000000000000     00000000                                                                                                                        000000000000000000
F0010000010404000002000089010260300041450500000000000000000201709260002001FEDERICO OSORIO A. S.A.                           C000000004900000000000000000000000100010010000000000000000000000F0010000010404000220170926000101 00000000000000000000000000000000000000000000000000000000000000000000000000000000000000000000000000000000000000000N 00000000000NCONT   00    00000000000          00000000000000000000000000000000000000000000 000000000000000A000000000000000000000000000000000000000000000 000000000000000000000000000000000000000     00000000                                                                                                                        000000000000000000
F0010000010404000003000089010260300042505000000000000000000201709260002001FEDERICO OSORIO A. S.A.                           C000000000833300000000000000000000100010010000000000000000000000F0010000010404000320170926000101 00000000000000000000000000000000000000000000000000000000000000000000000000000000000000000000000000000000000000000N 00000000000NCONT   00    00000000000          00000000000000000000000000000000000000000000 000000000000000A000000000000000000000000000000000000000000000 000000000000000000000000000000000000000     00000000                                                                                                                        000000000000000000
F0010000010404000004000089010260300023658300000000000000000201709260002001FEDERICO OSORIO A. S.A.                           C000000000000000000000000000000000100010010000000000000000000000F0010000010404000420170926000101 00000000000000000000000000000000000000000000000000000000000000000000000000000000000000000000000000000000000000000N 00000000000NCONT   00    00000000000          00000000000000000000000000000000000000000000 000000000000000A000000000000000000000000000000000000000000000 000000000000000000000000000000000000000     00000000                                                                                                                        000000000000000000
F0010000010404000005000089010260300013552100000000000000000201709260002001FEDERICO OSORIO A. S.A.                           D000000000000000000000000000000000100010010000000000000000000000F0010000010404000520170926000101 00000000000000000000000000000000000000000000000000000000000000000000000000000000000000000000000000000000000000000N 00000000000NCONT   00    00000000000          00000000000000000000000000000000000000000000 000000000000000A000000000000000000000000000000000000000000000 000000000000000000000000000000000000000     00000000                                                                                                                        000000000000000000
F0010000010404100001000080202094000013050500000000000000000201709260002001DISTRIB. OMAR ORREGO S.A.                         D000000088337300000000000000000000100010010000000000000000000000F0010000010404100120170926000101 00000000000000000000000000000000000000000000000000000000000000000000000000000000000000000000000000000000000000000N 00000000000NCONT   00    00000000000          00000000000000000000000000000000000000000000 000000000000000A000000000000000000000000000000000000000000000 000000000000000000000000000000000000000     00000000                                                                                                                        000000000000000000
F0010000010404100002000080202094000041450500000000000000000201709260002001DISTRIB. OMAR ORREGO S.A.                         C000000058450000000000000000000000100010010000000000000000000000F0010000010404100220170926000101 00000000000000000000000000000000000000000000000000000000000000000000000000000000000000000000000000000000000000000N 00000000000NCONT   00    00000000000          00000000000000000000000000000000000000000000 000000000000000A000000000000000000000000000000000000000000000 000000000000000000000000000000000000000     00000000                                                                                                                        000000000000000000
F0010000010404100003000080202094000042505000000000000000000201709260002001DISTRIB. OMAR ORREGO S.A.                         C000000029887300000000000000000000100010010000000000000000000000F0010000010404100320170926000101 00000000000000000000000000000000000000000000000000000000000000000000000000000000000000000000000000000000000000000N 00000000000NCONT   00    00000000000          00000000000000000000000000000000000000000000 000000000000000A000000000000000000000000000000000000000000000 000000000000000000000000000000000000000     00000000                                                                                                                        000000000000000000
F0010000010404100004000080202094000023658300000000000000000201709260002001DISTRIB. OMAR ORREGO S.A.                         C000000000000000000000000000000000100010010000000000000000000000F0010000010404100420170926000101 00000000000000000000000000000000000000000000000000000000000000000000000000000000000000000000000000000000000000000N 00000000000NCONT   00    00000000000          00000000000000000000000000000000000000000000 000000000000000A000000000000000000000000000000000000000000000 000000000000000000000000000000000000000     00000000                                                                                                                        000000000000000000
F0010000010404100005000080202094000013552100000000000000000201709260002001DISTRIB. OMAR ORREGO S.A.                         D000000000000000000000000000000000100010010000000000000000000000F0010000010404100520170926000101 00000000000000000000000000000000000000000000000000000000000000000000000000000000000000000000000000000000000000000N 00000000000NCONT   00    00000000000          00000000000000000000000000000000000000000000 000000000000000A000000000000000000000000000000000000000000000 000000000000000000000000000000000000000     00000000                                                                                                                        000000000000000000
F0010000010404200001000090008711200013050500000000000000000201709260002001PACKAGING SUPPLIERS S.A.S                         D000000044010300000000000000000000100010010000000000000000000000F0010000010404200120170926000101 00000000000000000000000000000000000000000000000000000000000000000000000000000000000000000000000000000000000000000N 00000000000NCONT   00    00000000000          00000000000000000000000000000000000000000000 000000000000000A000000000000000000000000000000000000000000000 000000000000000000000000000000000000000     00000000                                                                                                                        000000000000000000
F0010000010404200002000090008711200041450500000000000000000201709260002001PACKAGING SUPPLIERS S.A.S                         C000000040279400000000000000000000100010010000000000000000000000F0010000010404200220170926000101 00000000000000000000000000000000000000000000000000000000000000000000000000000000000000000000000000000000000000000N 00000000000NCONT   00    00000000000          00000000000000000000000000000000000000000000 000000000000000A000000000000000000000000000000000000000000000 000000000000000000000000000000000000000     00000000                                                                                                                        000000000000000000
F0010000010404200003000090008711200042505000000000000000000201709260002001PACKAGING SUPPLIERS S.A.S                         C000000003730900000000000000000000100010010000000000000000000000F0010000010404200320170926000101 00000000000000000000000000000000000000000000000000000000000000000000000000000000000000000000000000000000000000000N 00000000000NCONT   00    00000000000          00000000000000000000000000000000000000000000 000000000000000A000000000000000000000000000000000000000000000 000000000000000000000000000000000000000     00000000                                                                                                                        000000000000000000
F0010000010404200004000090008711200023658300000000000000000201709260002001PACKAGING SUPPLIERS S.A.S                         C000000000000000000000000000000000100010010000000000000000000000F0010000010404200420170926000101 00000000000000000000000000000000000000000000000000000000000000000000000000000000000000000000000000000000000000000N 00000000000NCONT   00    00000000000          00000000000000000000000000000000000000000000 000000000000000A000000000000000000000000000000000000000000000 000000000000000000000000000000000000000     00000000                                                                                                                        000000000000000000
F0010000010404200005000090008711200013552100000000000000000201709260002001PACKAGING SUPPLIERS S.A.S                         D000000000000000000000000000000000100010010000000000000000000000F0010000010404200520170926000101 00000000000000000000000000000000000000000000000000000000000000000000000000000000000000000000000000000000000000000N 00000000000NCONT   00    00000000000          00000000000000000000000000000000000000000000 000000000000000A000000000000000000000000000000000000000000000 000000000000000000000000000000000000000     00000000                                                                                                                        000000000000000000
F0010000010404300001000080200250700013050500000000000000000201709260002001ETICOL SAS                                        D000000018850000000000000000000000100010010000000000000000000000F0010000010404300120170926000101 00000000000000000000000000000000000000000000000000000000000000000000000000000000000000000000000000000000000000000N 00000000000NCONT   00    00000000000          00000000000000000000000000000000000000000000 000000000000000A000000000000000000000000000000000000000000000 000000000000000000000000000000000000000     00000000                                                                                                                        000000000000000000
F0010000010404300002000080200250700041450500000000000000000201709260002001ETICOL SAS                                        C000000017850000000000000000000000100010010000000000000000000000F0010000010404300220170926000101 00000000000000000000000000000000000000000000000000000000000000000000000000000000000000000000000000000000000000000N 00000000000NCONT   00    00000000000          00000000000000000000000000000000000000000000 000000000000000A000000000000000000000000000000000000000000000 000000000000000000000000000000000000000     00000000                                                                                                                        000000000000000000
F0010000010404300003000080200250700042505000000000000000000201709260002001ETICOL SAS                                        C000000001000000000000000000000000100010010000000000000000000000F0010000010404300320170926000101 00000000000000000000000000000000000000000000000000000000000000000000000000000000000000000000000000000000000000000N 00000000000NCONT   00    00000000000          00000000000000000000000000000000000000000000 000000000000000A000000000000000000000000000000000000000000000 000000000000000000000000000000000000000     00000000                                                                                                                        000000000000000000
F0010000010404300004000080200250700023658300000000000000000201709260002001ETICOL SAS                                        C000000000000000000000000000000000100010010000000000000000000000F0010000010404300420170926000101 00000000000000000000000000000000000000000000000000000000000000000000000000000000000000000000000000000000000000000N 00000000000NCONT   00    00000000000          00000000000000000000000000000000000000000000 000000000000000A000000000000000000000000000000000000000000000 000000000000000000000000000000000000000     00000000                                                                                                                        000000000000000000
F0010000010404300005000080200250700013552100000000000000000201709260002001ETICOL SAS                                        D000000000000000000000000000000000100010010000000000000000000000F0010000010404300520170926000101 00000000000000000000000000000000000000000000000000000000000000000000000000000000000000000000000000000000000000000N 00000000000NCONT   00    00000000000          00000000000000000000000000000000000000000000 000000000000000A000000000000000000000000000000000000000000000 000000000000000000000000000000000000000     00000000                                                                                                                        000000000000000000
F0010000010404400001000090000859400013050500000000000000000201709260002001COMERCIAL JOTACE LTDA                             D000000009019700000000000000000000100010010000000000000000000000F0010000010404400120170926000101 00000000000000000000000000000000000000000000000000000000000000000000000000000000000000000000000000000000000000000N 00000000000NCONT   00    00000000000          00000000000000000000000000000000000000000000 000000000000000A000000000000000000000000000000000000000000000 000000000000000000000000000000000000000     00000000                                                                                                                        000000000000000000
F0010000010404400002000090000859400041450500000000000000000201709260002001COMERCIAL JOTACE LTDA                             C000000008380000000000000000000000100010010000000000000000000000F0010000010404400220170926000101 00000000000000000000000000000000000000000000000000000000000000000000000000000000000000000000000000000000000000000N 00000000000NCONT   00    00000000000          00000000000000000000000000000000000000000000 000000000000000A000000000000000000000000000000000000000000000 000000000000000000000000000000000000000     00000000                                                                                                                        000000000000000000
F0010000010404400003000090000859400042505000000000000000000201709260002001COMERCIAL JOTACE LTDA                             C000000000639700000000000000000000100010010000000000000000000000F0010000010404400320170926000101 00000000000000000000000000000000000000000000000000000000000000000000000000000000000000000000000000000000000000000N 00000000000NCONT   00    00000000000          00000000000000000000000000000000000000000000 000000000000000A000000000000000000000000000000000000000000000 000000000000000000000000000000000000000     00000000                                                                                                                        000000000000000000
F0010000010404400004000090000859400023658300000000000000000201709260002001COMERCIAL JOTACE LTDA                             C000000000000000000000000000000000100010010000000000000000000000F0010000010404400420170926000101 00000000000000000000000000000000000000000000000000000000000000000000000000000000000000000000000000000000000000000N 00000000000NCONT   00    00000000000          00000000000000000000000000000000000000000000 000000000000000A000000000000000000000000000000000000000000000 000000000000000000000000000000000000000     00000000                                                                                                                        000000000000000000
F0010000010404400005000090000859400013552100000000000000000201709260002001COMERCIAL JOTACE LTDA                             D000000000000000000000000000000000100010010000000000000000000000F0010000010404400520170926000101 00000000000000000000000000000000000000000000000000000000000000000000000000000000000000000000000000000000000000000N 00000000000NCONT   00    00000000000          00000000000000000000000000000000000000000000 000000000000000A000000000000000000000000000000000000000000000 000000000000000000000000000000000000000     00000000                                                                                                                        000000000000000000
F0010000010404500001000000431178400013050500000000000000000201709260002001EFRAIN ALVAREZ                                    D000000010050000000000000000000000100010010000000000000000000000F0010000010404500120170926000101 00000000000000000000000000000000000000000000000000000000000000000000000000000000000000000000000000000000000000000N 00000000000NCONT   00    00000000000          00000000000000000000000000000000000000000000 000000000000000A000000000000000000000000000000000000000000000 000000000000000000000000000000000000000     00000000                                                                                                                        000000000000000000
F0010000010404500002000000431178400041450500000000000000000201709260002001EFRAIN ALVAREZ                                    C000000009150000000000000000000000100010010000000000000000000000F0010000010404500220170926000101 00000000000000000000000000000000000000000000000000000000000000000000000000000000000000000000000000000000000000000N 00000000000NCONT   00    00000000000          00000000000000000000000000000000000000000000 000000000000000A000000000000000000000000000000000000000000000 000000000000000000000000000000000000000     00000000                                                                                                                        000000000000000000
F0010000010404500003000000431178400042505000000000000000000201709260002001EFRAIN ALVAREZ                                    C000000000900000000000000000000000100010010000000000000000000000F0010000010404500320170926000101 00000000000000000000000000000000000000000000000000000000000000000000000000000000000000000000000000000000000000000N 00000000000NCONT   00    00000000000          00000000000000000000000000000000000000000000 000000000000000A000000000000000000000000000000000000000000000 000000000000000000000000000000000000000     00000000                                                                                                                        000000000000000000
F0010000010404500004000000431178400023658300000000000000000201709260002001EFRAIN ALVAREZ                                    C000000000000000000000000000000000100010010000000000000000000000F0010000010404500420170926000101 00000000000000000000000000000000000000000000000000000000000000000000000000000000000000000000000000000000000000000N 00000000000NCONT   00    00000000000          00000000000000000000000000000000000000000000 000000000000000A000000000000000000000000000000000000000000000 000000000000000000000000000000000000000     00000000                                                                                                                        000000000000000000
F0010000010404500005000000431178400013552100000000000000000201709260002001EFRAIN ALVAREZ                                    D000000000000000000000000000000000100010010000000000000000000000F0010000010404500520170926000101 00000000000000000000000000000000000000000000000000000000000000000000000000000000000000000000000000000000000000000N 00000000000NCONT   00    00000000000          00000000000000000000000000000000000000000000 000000000000000A000000000000000000000000000000000000000000000 000000000000000000000000000000000000000     00000000                                                                                                                        000000000000000000
F0010000010404600001000090106344000013050500000000000000000201709260002001REPRESENTACIONES FERRELECTRICAS SAS (EDDIE CIRO)  D000000061020200000000000000000000100010010000000000000000000000F0010000010404600120170926000101 00000000000000000000000000000000000000000000000000000000000000000000000000000000000000000000000000000000000000000N 00000000000NCONT   00    00000000000          00000000000000000000000000000000000000000000 000000000000000A000000000000000000000000000000000000000000000 000000000000000000000000000000000000000     00000000                                                                                                                        000000000000000000
F0010000010404600002000090106344000041450500000000000000000201709260002001REPRESENTACIONES FERRELECTRICAS SAS (EDDIE CIRO)  C000000050200000000000000000000000100010010000000000000000000000F0010000010404600220170926000101 00000000000000000000000000000000000000000000000000000000000000000000000000000000000000000000000000000000000000000N 00000000000NCONT   00    00000000000          00000000000000000000000000000000000000000000 000000000000000A000000000000000000000000000000000000000000000 000000000000000000000000000000000000000     00000000                                                                                                                        000000000000000000
F0010000010404600003000090106344000042505000000000000000000201709260002001REPRESENTACIONES FERRELECTRICAS SAS (EDDIE CIRO)  C000000010820200000000000000000000100010010000000000000000000000F0010000010404600320170926000101 00000000000000000000000000000000000000000000000000000000000000000000000000000000000000000000000000000000000000000N 00000000000NCONT   00    00000000000          00000000000000000000000000000000000000000000 000000000000000A000000000000000000000000000000000000000000000 000000000000000000000000000000000000000     00000000                                                                                                                        000000000000000000
F0010000010404600004000090106344000023658300000000000000000201709260002001REPRESENTACIONES FERRELECTRICAS SAS (EDDIE CIRO)  C000000000000000000000000000000000100010010000000000000000000000F0010000010404600420170926000101 00000000000000000000000000000000000000000000000000000000000000000000000000000000000000000000000000000000000000000N 00000000000NCONT   00    00000000000          00000000000000000000000000000000000000000000 000000000000000A000000000000000000000000000000000000000000000 000000000000000000000000000000000000000     00000000                                                                                                                        000000000000000000
F0010000010404600005000090106344000013552100000000000000000201709260002001REPRESENTACIONES FERRELECTRICAS SAS (EDDIE CIRO)  D000000000000000000000000000000000100010010000000000000000000000F0010000010404600520170926000101 00000000000000000000000000000000000000000000000000000000000000000000000000000000000000000000000000000000000000000N 00000000000NCONT   00    00000000000          00000000000000000000000000000000000000000000 000000000000000A000000000000000000000000000000000000000000000 000000000000000000000000000000000000000     00000000                                                                                                                        000000000000000000
F0010000010404700001000000870907300013050500000000000000000201709260002001SURTIDOR FERRETERO                                D000000021317000000000000000000000100010010000000000000000000000F0010000010404700120170926000101 00000000000000000000000000000000000000000000000000000000000000000000000000000000000000000000000000000000000000000N 00000000000NCONT   00    00000000000          00000000000000000000000000000000000000000000 000000000000000A000000000000000000000000000000000000000000000 000000000000000000000000000000000000000     00000000                                                                                                                        000000000000000000
F0010000010404700002000000870907300041450500000000000000000201709260002001SURTIDOR FERRETERO                                C000000016810000000000000000000000100010010000000000000000000000F0010000010404700220170926000101 00000000000000000000000000000000000000000000000000000000000000000000000000000000000000000000000000000000000000000N 00000000000NCONT   00    00000000000          00000000000000000000000000000000000000000000 000000000000000A000000000000000000000000000000000000000000000 000000000000000000000000000000000000000     00000000                                                                                                                        000000000000000000
F0010000010404700003000000870907300041750100000000000000000201709260002001SURTIDOR FERRETERO                                D000000001681000000000000000000000100010010000000000000000000000F0010000010404700320170926000101 00000000000000000000000000000000000000000000000000000000000000000000000000000000000000000000000000000000000000000N 00000000000NCONT   00    00000000000          00000000000000000000000000000000000000000000 000000000000000A000000000000000000000000000000000000000000000 000000000000000000000000000000000000000     00000000                                                                                                                        000000000000000000
F0010000010404700004000000870907300042505000000000000000000201709260002001SURTIDOR FERRETERO                                C000000006188000000000000000000000100010010000000000000000000000F0010000010404700420170926000101 00000000000000000000000000000000000000000000000000000000000000000000000000000000000000000000000000000000000000000N 00000000000NCONT   00    00000000000          00000000000000000000000000000000000000000000 000000000000000A000000000000000000000000000000000000000000000 000000000000000000000000000000000000000     00000000                                                                                                                        000000000000000000
F0010000010404700005000000870907300023658300000000000000000201709260002001SURTIDOR FERRETERO                                C000000000000000000000000000000000100010010000000000000000000000F0010000010404700520170926000101 00000000000000000000000000000000000000000000000000000000000000000000000000000000000000000000000000000000000000000N 00000000000NCONT   00    00000000000          00000000000000000000000000000000000000000000 000000000000000A000000000000000000000000000000000000000000000 000000000000000000000000000000000000000     00000000                                                                                                                        000000000000000000
F0010000010404700006000000870907300013552100000000000000000201709260002001SURTIDOR FERRETERO                                D000000000000000000000000000000000100010010000000000000000000000F0010000010404700620170926000101 00000000000000000000000000000000000000000000000000000000000000000000000000000000000000000000000000000000000000000N 00000000000NCONT   00    00000000000          00000000000000000000000000000000000000000000 000000000000000A000000000000000000000000000000000000000000000 000000000000000000000000000000000000000     00000000                                                                                                                        000000000000000000
F0010000010404800001000090044920600013050500000000000000000201709260002001QUATRO CARIBE SAS                                 D000000042790000000000000000000000100010010000000000000000000000F0010000010404800120170926000101 00000000000000000000000000000000000000000000000000000000000000000000000000000000000000000000000000000000000000000N 00000000000NCONT   00    00000000000          00000000000000000000000000000000000000000000 000000000000000A000000000000000000000000000000000000000000000 000000000000000000000000000000000000000     00000000                                                                                                                        000000000000000000
F0010000010404800002000090044920600041450500000000000000000201709260002001QUATRO CARIBE SAS                                 C000000035140000000000000000000000100010010000000000000000000000F0010000010404800220170926000101 00000000000000000000000000000000000000000000000000000000000000000000000000000000000000000000000000000000000000000N 00000000000NCONT   00    00000000000          00000000000000000000000000000000000000000000 000000000000000A000000000000000000000000000000000000000000000 000000000000000000000000000000000000000     00000000                                                                                                                        000000000000000000
F0010000010404800003000090044920600042505000000000000000000201709260002001QUATRO CARIBE SAS                                 C000000007650000000000000000000000100010010000000000000000000000F0010000010404800320170926000101 00000000000000000000000000000000000000000000000000000000000000000000000000000000000000000000000000000000000000000N 00000000000NCONT   00    00000000000          00000000000000000000000000000000000000000000 000000000000000A000000000000000000000000000000000000000000000 000000000000000000000000000000000000000     00000000                                                                                                                        000000000000000000
F0010000010404800004000090044920600023658300000000000000000201709260002001QUATRO CARIBE SAS                                 C000000000000000000000000000000000100010010000000000000000000000F0010000010404800420170926000101 00000000000000000000000000000000000000000000000000000000000000000000000000000000000000000000000000000000000000000N 00000000000NCONT   00    00000000000          00000000000000000000000000000000000000000000 000000000000000A000000000000000000000000000000000000000000000 000000000000000000000000000000000000000     00000000                                                                                                                        000000000000000000
F0010000010404800005000090044920600013552100000000000000000201709260002001QUATRO CARIBE SAS                                 D000000000000000000000000000000000100010010000000000000000000000F0010000010404800520170926000101 00000000000000000000000000000000000000000000000000000000000000000000000000000000000000000000000000000000000000000N 00000000000NCONT   00    00000000000          00000000000000000000000000000000000000000000 000000000000000A000000000000000000000000000000000000000000000 000000000000000000000000000000000000000     00000000                                                                                                                        000000000000000000
F0010000010404900001000090044920600013050500000000000000000201709260002001QUATRO CARIBE SAS                                 D000000003355000000000000000000000100010010000000000000000000000F0010000010404900120170926000101 00000000000000000000000000000000000000000000000000000000000000000000000000000000000000000000000000000000000000000N 00000000000NCONT   00    00000000000          00000000000000000000000000000000000000000000 000000000000000A000000000000000000000000000000000000000000000 000000000000000000000000000000000000000     00000000                                                                                                                        000000000000000000
F0010000010404900002000090044920600041450500000000000000000201709260002001QUATRO CARIBE SAS                                 C000000003030000000000000000000000100010010000000000000000000000F0010000010404900220170926000101 00000000000000000000000000000000000000000000000000000000000000000000000000000000000000000000000000000000000000000N 00000000000NCONT   00    00000000000          00000000000000000000000000000000000000000000 000000000000000A000000000000000000000000000000000000000000000 000000000000000000000000000000000000000     00000000                                                                                                                        000000000000000000
F0010000010404900003000090044920600042505000000000000000000201709260002001QUATRO CARIBE SAS                                 C000000000325000000000000000000000100010010000000000000000000000F0010000010404900320170926000101 00000000000000000000000000000000000000000000000000000000000000000000000000000000000000000000000000000000000000000N 00000000000NCONT   00    00000000000          00000000000000000000000000000000000000000000 000000000000000A000000000000000000000000000000000000000000000 000000000000000000000000000000000000000     00000000                                                                                                                        000000000000000000
F0010000010404900004000090044920600023658300000000000000000201709260002001QUATRO CARIBE SAS                                 C000000000000000000000000000000000100010010000000000000000000000F0010000010404900420170926000101 00000000000000000000000000000000000000000000000000000000000000000000000000000000000000000000000000000000000000000N 00000000000NCONT   00    00000000000          00000000000000000000000000000000000000000000 000000000000000A000000000000000000000000000000000000000000000 000000000000000000000000000000000000000     00000000                                                                                                                        000000000000000000
F0010000010404900005000090044920600013552100000000000000000201709260002001QUATRO CARIBE SAS                                 D000000000000000000000000000000000100010010000000000000000000000F0010000010404900520170926000101 00000000000000000000000000000000000000000000000000000000000000000000000000000000000000000000000000000000000000000N 00000000000NCONT   00    00000000000          00000000000000000000000000000000000000000000 000000000000000A000000000000000000000000000000000000000000000 000000000000000000000000000000000000000     00000000                                                                                                                        000000000000000000
F0010000010405000001000089010952800013050500000000000000000201709260002001IND. LITOGRAF. BOSTON S.A.S.                      D000000024010000000000000000000000100010010000000000000000000000F0010000010405000120170926000101 00000000000000000000000000000000000000000000000000000000000000000000000000000000000000000000000000000000000000000N 00000000000NCONT   00    00000000000          00000000000000000000000000000000000000000000 000000000000000A000000000000000000000000000000000000000000000 000000000000000000000000000000000000000     00000000                                                                                                                        000000000000000000
F0010000010405000002000089010952800041450500000000000000000201709260002001IND. LITOGRAF. BOSTON S.A.S.                      C000000021060000000000000000000000100010010000000000000000000000F0010000010405000220170926000101 00000000000000000000000000000000000000000000000000000000000000000000000000000000000000000000000000000000000000000N 00000000000NCONT   00    00000000000          00000000000000000000000000000000000000000000 000000000000000A000000000000000000000000000000000000000000000 000000000000000000000000000000000000000     00000000                                                                                                                        000000000000000000
F0010000010405000003000089010952800042505000000000000000000201709260002001IND. LITOGRAF. BOSTON S.A.S.                      C000000002950000000000000000000000100010010000000000000000000000F0010000010405000320170926000101 00000000000000000000000000000000000000000000000000000000000000000000000000000000000000000000000000000000000000000N 00000000000NCONT   00    00000000000          00000000000000000000000000000000000000000000 000000000000000A000000000000000000000000000000000000000000000 000000000000000000000000000000000000000     00000000                                                                                                                        000000000000000000
F0010000010405000004000089010952800023658300000000000000000201709260002001IND. LITOGRAF. BOSTON S.A.S.                      C000000000000000000000000000000000100010010000000000000000000000F0010000010405000420170926000101 00000000000000000000000000000000000000000000000000000000000000000000000000000000000000000000000000000000000000000N 00000000000NCONT   00    00000000000          00000000000000000000000000000000000000000000 000000000000000A000000000000000000000000000000000000000000000 000000000000000000000000000000000000000     00000000                                                                                                                        000000000000000000
F0010000010405000005000089010952800013552100000000000000000201709260002001IND. LITOGRAF. BOSTON S.A.S.                      D000000000000000000000000000000000100010010000000000000000000000F0010000010405000520170926000101 00000000000000000000000000000000000000000000000000000000000000000000000000000000000000000000000000000000000000000N 00000000000NCONT   00    00000000000          00000000000000000000000000000000000000000000 000000000000000A000000000000000000000000000000000000000000000 000000000000000000000000000000000000000     00000000                                                                                                                        000000000000000000
F0010000010405100001000090067091400013050500000000000000000201709260002001COMERCIALIZADORA ESCOBAR ORTIZ                    D000000002045000000000000000000000100010010000000000000000000000F0010000010405100120170926000101 00000000000000000000000000000000000000000000000000000000000000000000000000000000000000000000000000000000000000000N 00000000000NCONT   00    00000000000          00000000000000000000000000000000000000000000 000000000000000A000000000000000000000000000000000000000000000 000000000000000000000000000000000000000     00000000                                                                                                                        000000000000000000
F0010000010405100002000090067091400041450500000000000000000201709260002001COMERCIALIZADORA ESCOBAR ORTIZ                    C000000001600000000000000000000000100010010000000000000000000000F0010000010405100220170926000101 00000000000000000000000000000000000000000000000000000000000000000000000000000000000000000000000000000000000000000N 00000000000NCONT   00    00000000000          00000000000000000000000000000000000000000000 000000000000000A000000000000000000000000000000000000000000000 000000000000000000000000000000000000000     00000000                                                                                                                        000000000000000000
F0010000010405100003000090067091400042505000000000000000000201709260002001COMERCIALIZADORA ESCOBAR ORTIZ                    C000000000445000000000000000000000100010010000000000000000000000F0010000010405100320170926000101 00000000000000000000000000000000000000000000000000000000000000000000000000000000000000000000000000000000000000000N 00000000000NCONT   00    00000000000          00000000000000000000000000000000000000000000 000000000000000A000000000000000000000000000000000000000000000 000000000000000000000000000000000000000     00000000                                                                                                                        000000000000000000
F0010000010405100004000090067091400023658300000000000000000201709260002001COMERCIALIZADORA ESCOBAR ORTIZ                    C000000000000000000000000000000000100010010000000000000000000000F0010000010405100420170926000101 00000000000000000000000000000000000000000000000000000000000000000000000000000000000000000000000000000000000000000N 00000000000NCONT   00    00000000000          00000000000000000000000000000000000000000000 000000000000000A000000000000000000000000000000000000000000000 000000000000000000000000000000000000000     00000000                                                                                                                        000000000000000000
F0010000010405100005000090067091400013552100000000000000000201709260002001COMERCIALIZADORA ESCOBAR ORTIZ                    D000000000000000000000000000000000100010010000000000000000000000F0010000010405100520170926000101 00000000000000000000000000000000000000000000000000000000000000000000000000000000000000000000000000000000000000000N 00000000000NCONT   00    00000000000          00000000000000000000000000000000000000000000 000000000000000A000000000000000000000000000000000000000000000 000000000000000000000000000000000000000     00000000                                                                                                                        000000000000000000
F0010000010405200001000090040631000013050500000000000000000201709260002001BEINEX SAS                                        D000000008428800000000000000000000100010010000000000000000000000F0010000010405200120170926000101 00000000000000000000000000000000000000000000000000000000000000000000000000000000000000000000000000000000000000000N 00000000000NCONT   00    00000000000          00000000000000000000000000000000000000000000 000000000000000A000000000000000000000000000000000000000000000 000000000000000000000000000000000000000     00000000                                                                                                                        000000000000000000
F0010000010405200002000090040631000041450500000000000000000201709260002001BEINEX SAS                                        C000000008780000000000000000000000100010010000000000000000000000F0010000010405200220170926000101 00000000000000000000000000000000000000000000000000000000000000000000000000000000000000000000000000000000000000000N 00000000000NCONT   00    00000000000          00000000000000000000000000000000000000000000 000000000000000A000000000000000000000000000000000000000000000 000000000000000000000000000000000000000     00000000                                                                                                                        000000000000000000
F0010000010405200003000090040631000041750100000000000000000201709260002001BEINEX SAS                                        D000000000351200000000000000000000100010010000000000000000000000F0010000010405200320170926000101 00000000000000000000000000000000000000000000000000000000000000000000000000000000000000000000000000000000000000000N 00000000000NCONT   00    00000000000          00000000000000000000000000000000000000000000 000000000000000A000000000000000000000000000000000000000000000 000000000000000000000000000000000000000     00000000                                                                                                                        000000000000000000
F0010000010405200004000090040631000042505000000000000000000201709260002001BEINEX SAS                                        C000000000000000000000000000000000100010010000000000000000000000F0010000010405200420170926000101 00000000000000000000000000000000000000000000000000000000000000000000000000000000000000000000000000000000000000000N 00000000000NCONT   00    00000000000          00000000000000000000000000000000000000000000 000000000000000A000000000000000000000000000000000000000000000 000000000000000000000000000000000000000     00000000                                                                                                                        000000000000000000
F0010000010405200005000090040631000023658300000000000000000201709260002001BEINEX SAS                                        C000000000000000000000000000000000100010010000000000000000000000F0010000010405200520170926000101 00000000000000000000000000000000000000000000000000000000000000000000000000000000000000000000000000000000000000000N 00000000000NCONT   00    00000000000          00000000000000000000000000000000000000000000 000000000000000A000000000000000000000000000000000000000000000 000000000000000000000000000000000000000     00000000                                                                                                                        000000000000000000
F0010000010405200006000090040631000013552100000000000000000201709260002001BEINEX SAS                                        D000000000000000000000000000000000100010010000000000000000000000F0010000010405200620170926000101 00000000000000000000000000000000000000000000000000000000000000000000000000000000000000000000000000000000000000000N 00000000000NCONT   00    00000000000          00000000000000000000000000000000000000000000 000000000000000A000000000000000000000000000000000000000000000 000000000000000000000000000000000000000     00000000                                                                                                                        000000000000000000
F0010000010405300001000004175790100013050500000000000000000201709260002001ROSIRIS FERIA HOYOS  (COSM. SHILLER)              D000000009300000000000000000000000100010010000000000000000000000F0010000010405300120170926000101 00000000000000000000000000000000000000000000000000000000000000000000000000000000000000000000000000000000000000000N 00000000000NCONT   00    00000000000          00000000000000000000000000000000000000000000 000000000000000A000000000000000000000000000000000000000000000 000000000000000000000000000000000000000     00000000                                                                                                                        000000000000000000
F0010000010405300002000004175790100041450500000000000000000201709260002001ROSIRIS FERIA HOYOS  (COSM. SHILLER)              C000000006600000000000000000000000100010010000000000000000000000F0010000010405300220170926000101 00000000000000000000000000000000000000000000000000000000000000000000000000000000000000000000000000000000000000000N 00000000000NCONT   00    00000000000          00000000000000000000000000000000000000000000 000000000000000A000000000000000000000000000000000000000000000 000000000000000000000000000000000000000     00000000                                                                                                                        000000000000000000
F0010000010405300003000004175790100042505000000000000000000201709260002001ROSIRIS FERIA HOYOS  (COSM. SHILLER)              C000000002700000000000000000000000100010010000000000000000000000F0010000010405300320170926000101 00000000000000000000000000000000000000000000000000000000000000000000000000000000000000000000000000000000000000000N 00000000000NCONT   00    00000000000          00000000000000000000000000000000000000000000 000000000000000A000000000000000000000000000000000000000000000 000000000000000000000000000000000000000     00000000                                                                                                                        000000000000000000
F0010000010405300004000004175790100023658300000000000000000201709260002001ROSIRIS FERIA HOYOS  (COSM. SHILLER)              C000000000000000000000000000000000100010010000000000000000000000F0010000010405300420170926000101 00000000000000000000000000000000000000000000000000000000000000000000000000000000000000000000000000000000000000000N 00000000000NCONT   00    00000000000          00000000000000000000000000000000000000000000 000000000000000A000000000000000000000000000000000000000000000 000000000000000000000000000000000000000     00000000                                                                                                                        000000000000000000
F0010000010405300005000004175790100013552100000000000000000201709260002001ROSIRIS FERIA HOYOS  (COSM. SHILLER)              D000000000000000000000000000000000100010010000000000000000000000F0010000010405300520170926000101 00000000000000000000000000000000000000000000000000000000000000000000000000000000000000000000000000000000000000000N 00000000000NCONT   00    00000000000          00000000000000000000000000000000000000000000 000000000000000A000000000000000000000000000000000000000000000 000000000000000000000000000000000000000     00000000                                                                                                                        000000000000000000
F0010000010405400001000086053108300013050500000000000000000201709260002001EL PALACIO DEL ALUMINIO  LTDA                     D000000007088200000000000000000000100010010000000000000000000000F0010000010405400120170926000101 00000000000000000000000000000000000000000000000000000000000000000000000000000000000000000000000000000000000000000N 00000000000NCONT   00    00000000000          00000000000000000000000000000000000000000000 000000000000000A000000000000000000000000000000000000000000000 000000000000000000000000000000000000000     00000000                                                                                                                        000000000000000000
F0010000010405400002000086053108300041450500000000000000000201709260002001EL PALACIO DEL ALUMINIO  LTDA                     C000000005150000000000000000000000100010010000000000000000000000F0010000010405400220170926000101 00000000000000000000000000000000000000000000000000000000000000000000000000000000000000000000000000000000000000000N 00000000000NCONT   00    00000000000          00000000000000000000000000000000000000000000 000000000000000A000000000000000000000000000000000000000000000 000000000000000000000000000000000000000     00000000                                                                                                                        000000000000000000
F0010000010405400003000086053108300042505000000000000000000201709260002001EL PALACIO DEL ALUMINIO  LTDA                     C000000001938200000000000000000000100010010000000000000000000000F0010000010405400320170926000101 00000000000000000000000000000000000000000000000000000000000000000000000000000000000000000000000000000000000000000N 00000000000NCONT   00    00000000000          00000000000000000000000000000000000000000000 000000000000000A000000000000000000000000000000000000000000000 000000000000000000000000000000000000000     00000000                                                                                                                        000000000000000000
F0010000010405400004000086053108300023658300000000000000000201709260002001EL PALACIO DEL ALUMINIO  LTDA                     C000000000000000000000000000000000100010010000000000000000000000F0010000010405400420170926000101 00000000000000000000000000000000000000000000000000000000000000000000000000000000000000000000000000000000000000000N 00000000000NCONT   00    00000000000          00000000000000000000000000000000000000000000 000000000000000A000000000000000000000000000000000000000000000 000000000000000000000000000000000000000     00000000                                                                                                                        000000000000000000
F0010000010405400005000086053108300013552100000000000000000201709260002001EL PALACIO DEL ALUMINIO  LTDA                     D000000000000000000000000000000000100010010000000000000000000000F0010000010405400520170926000101 00000000000000000000000000000000000000000000000000000000000000000000000000000000000000000000000000000000000000000N 00000000000NCONT   00    00000000000          00000000000000000000000000000000000000000000 000000000000000A000000000000000000000000000000000000000000000 000000000000000000000000000000000000000     00000000                                                                                                                        000000000000000000
F0010000010405500001000090019362000013050500000000000000000201709260002001GENERAL SUPPLIES CIA LTDA                         D000000026110000000000000000000000100010010000000000000000000000F0010000010405500120170926000101 00000000000000000000000000000000000000000000000000000000000000000000000000000000000000000000000000000000000000000N 00000000000NCONT   00    00000000000          00000000000000000000000000000000000000000000 000000000000000A000000000000000000000000000000000000000000000 000000000000000000000000000000000000000     00000000                                                                                                                        000000000000000000
F0010000010405500002000090019362000041450500000000000000000201709260002001GENERAL SUPPLIES CIA LTDA                         C000000023782000000000000000000000100010010000000000000000000000F0010000010405500220170926000101 00000000000000000000000000000000000000000000000000000000000000000000000000000000000000000000000000000000000000000N 00000000000NCONT   00    00000000000          00000000000000000000000000000000000000000000 000000000000000A000000000000000000000000000000000000000000000 000000000000000000000000000000000000000     00000000                                                                                                                        000000000000000000
F0010000010405500003000090019362000042505000000000000000000201709260002001GENERAL SUPPLIES CIA LTDA                         C000000002328000000000000000000000100010010000000000000000000000F0010000010405500320170926000101 00000000000000000000000000000000000000000000000000000000000000000000000000000000000000000000000000000000000000000N 00000000000NCONT   00    00000000000          00000000000000000000000000000000000000000000 000000000000000A000000000000000000000000000000000000000000000 000000000000000000000000000000000000000     00000000                                                                                                                        000000000000000000
F0010000010405500004000090019362000023658300000000000000000201709260002001GENERAL SUPPLIES CIA LTDA                         C000000000000000000000000000000000100010010000000000000000000000F0010000010405500420170926000101 00000000000000000000000000000000000000000000000000000000000000000000000000000000000000000000000000000000000000000N 00000000000NCONT   00    00000000000          00000000000000000000000000000000000000000000 000000000000000A000000000000000000000000000000000000000000000 000000000000000000000000000000000000000     00000000                                                                                                                        000000000000000000
F0010000010405500005000090019362000013552100000000000000000201709260002001GENERAL SUPPLIES CIA LTDA                         D000000000000000000000000000000000100010010000000000000000000000F0010000010405500520170926000101 00000000000000000000000000000000000000000000000000000000000000000000000000000000000000000000000000000000000000000N 00000000000NCONT   00    00000000000          00000000000000000000000000000000000000000000 000000000000000A000000000000000000000000000000000000000000000 000000000000000000000000000000000000000     00000000                                                                                                                        000000000000000000
F0010000010405600001000090014415700013050500000000000000000201709260002001CORDELES Y EXTRUIDOS DE COLOMBIA S.A.S.           D000000006031300000000000000000000100010010000000000000000000000F0010000010405600120170926000101 00000000000000000000000000000000000000000000000000000000000000000000000000000000000000000000000000000000000000000N 00000000000NCONT   00    00000000000          00000000000000000000000000000000000000000000 000000000000000A000000000000000000000000000000000000000000000 000000000000000000000000000000000000000     00000000                                                                                                                        000000000000000000
F0010000010405600002000090014415700041450500000000000000000201709260002001CORDELES Y EXTRUIDOS DE COLOMBIA S.A.S.           C000000005530000000000000000000000100010010000000000000000000000F0010000010405600220170926000101 00000000000000000000000000000000000000000000000000000000000000000000000000000000000000000000000000000000000000000N 00000000000NCONT   00    00000000000          00000000000000000000000000000000000000000000 000000000000000A000000000000000000000000000000000000000000000 000000000000000000000000000000000000000     00000000                                                                                                                        000000000000000000
F0010000010405600003000090014415700042505000000000000000000201709260002001CORDELES Y EXTRUIDOS DE COLOMBIA S.A.S.           C000000000501300000000000000000000100010010000000000000000000000F0010000010405600320170926000101 00000000000000000000000000000000000000000000000000000000000000000000000000000000000000000000000000000000000000000N 00000000000NCONT   00    00000000000          00000000000000000000000000000000000000000000 000000000000000A000000000000000000000000000000000000000000000 000000000000000000000000000000000000000     00000000                                                                                                                        000000000000000000
F0010000010405600004000090014415700023658300000000000000000201709260002001CORDELES Y EXTRUIDOS DE COLOMBIA S.A.S.           C000000000000000000000000000000000100010010000000000000000000000F0010000010405600420170926000101 00000000000000000000000000000000000000000000000000000000000000000000000000000000000000000000000000000000000000000N 00000000000NCONT   00    00000000000          00000000000000000000000000000000000000000000 000000000000000A000000000000000000000000000000000000000000000 000000000000000000000000000000000000000     00000000                                                                                                                        000000000000000000
F0010000010405600005000090014415700013552100000000000000000201709260002001CORDELES Y EXTRUIDOS DE COLOMBIA S.A.S.           D000000000000000000000000000000000100010010000000000000000000000F0010000010405600520170926000101 00000000000000000000000000000000000000000000000000000000000000000000000000000000000000000000000000000000000000000N 00000000000NCONT   00    00000000000          00000000000000000000000000000000000000000000 000000000000000A000000000000000000000000000000000000000000000 000000000000000000000000000000000000000     00000000                                                                                                                        000000000000000000
