F0010000008391800001000090085194100011050500000000000000000201603170002001LA 70 CONSTRUCCIONES SAS                          D000000006000000000000000000000000100010010000000000000000000000F0010000008391800120160317000101 00000000000000000000000000000000000000000000000000000000000000000000000000000000000000000000000000000000000000000N 00000000000NCONT   00    00000000000          00000000000000000000000000000000000000000000 000000000000000A000000000000000000000000000000000000000000000 000000000000000000000000000000000000000     00000000                                                                                                                        000000000000000000
F0010000008391800002000090085194100041450500000000000000000201603170002001LA 70 CONSTRUCCIONES SAS                          C000000005900000000000000000000000100010010000000000000000000000F0010000008391800220160317000101 00000000000000000000000000000000000000000000000000000000000000000000000000000000000000000000000000000000000000000N 00000000000NCONT   00    00000000000          00000000000000000000000000000000000000000000 000000000000000A000000000000000000000000000000000000000000000 000000000000000000000000000000000000000     00000000                                                                                                                        000000000000000000
F0010000008391800003000090085194100042505000000000000000000201603170002001LA 70 CONSTRUCCIONES SAS                          C000000000100000000000000000000000100010010000000000000000000000F0010000008391800320160317000101 00000000000000000000000000000000000000000000000000000000000000000000000000000000000000000000000000000000000000000N 00000000000NCONT   00    00000000000          00000000000000000000000000000000000000000000 000000000000000A000000000000000000000000000000000000000000000 000000000000000000000000000000000000000     00000000                                                                                                                        000000000000000000
F0010000008391800004000090085194100023658300000000000000000201603170002001LA 70 CONSTRUCCIONES SAS                          C000000000047200000000000000000000100010010000000000000000000000F0010000008391800420160317000101 00000000000000000000000000000000000000000000000000000000000000000000000000000000000000000000000000000000000000000N 00000000000NCONT   00    00000000000          00000000000000000000000000000000000000000000 000000000000000A000000000000000000000000000000000000000000000 000000000000000000000000000000000000000     00000000                                                                                                                        000000000000000000
F0010000008391800005000090085194100013552100000000000000000201603170002001LA 70 CONSTRUCCIONES SAS                          D000000000047200000000000000000000100010010000000000000000000000F0010000008391800520160317000101 00000000000000000000000000000000000000000000000000000000000000000000000000000000000000000000000000000000000000000N 00000000000NCONT   00    00000000000          00000000000000000000000000000000000000000000 000000000000000A000000000000000000000000000000000000000000000 000000000000000000000000000000000000000     00000000                                                                                                                        000000000000000000
F0010000008391900001000090007142100013050500000000000000000201603170002001TODO BELLEZA Y MAX S.A.S                          D000000015335000000000000000000000100010010000000000000000000000F0010000008391900120160317000101 00000000000000000000000000000000000000000000000000000000000000000000000000000000000000000000000000000000000000000N 00000000000NCONT   00    00000000000          00000000000000000000000000000000000000000000 000000000000000A000000000000000000000000000000000000000000000 000000000000000000000000000000000000000     00000000                                                                                                                        000000000000000000
F0010000008391900002000090007142100041450500000000000000000201603170002001TODO BELLEZA Y MAX S.A.S                          C000000014260000000000000000000000100010010000000000000000000000F0010000008391900220160317000101 00000000000000000000000000000000000000000000000000000000000000000000000000000000000000000000000000000000000000000N 00000000000NCONT   00    00000000000          00000000000000000000000000000000000000000000 000000000000000A000000000000000000000000000000000000000000000 000000000000000000000000000000000000000     00000000                                                                                                                        000000000000000000
F0010000008391900003000090007142100042505000000000000000000201603170002001TODO BELLEZA Y MAX S.A.S                          C000000001075000000000000000000000100010010000000000000000000000F0010000008391900320160317000101 00000000000000000000000000000000000000000000000000000000000000000000000000000000000000000000000000000000000000000N 00000000000NCONT   00    00000000000          00000000000000000000000000000000000000000000 000000000000000A000000000000000000000000000000000000000000000 000000000000000000000000000000000000000     00000000                                                                                                                        000000000000000000
F0010000008391900004000090007142100023658300000000000000000201603170002001TODO BELLEZA Y MAX S.A.S                          C000000000114100000000000000000000100010010000000000000000000000F0010000008391900420160317000101 00000000000000000000000000000000000000000000000000000000000000000000000000000000000000000000000000000000000000000N 00000000000NCONT   00    00000000000          00000000000000000000000000000000000000000000 000000000000000A000000000000000000000000000000000000000000000 000000000000000000000000000000000000000     00000000                                                                                                                        000000000000000000
F0010000008391900005000090007142100013552100000000000000000201603170002001TODO BELLEZA Y MAX S.A.S                          D000000000114100000000000000000000100010010000000000000000000000F0010000008391900520160317000101 00000000000000000000000000000000000000000000000000000000000000000000000000000000000000000000000000000000000000000N 00000000000NCONT   00    00000000000          00000000000000000000000000000000000000000000 000000000000000A000000000000000000000000000000000000000000000 000000000000000000000000000000000000000     00000000                                                                                                                        000000000000000000
F0010000008392000001000004175790100013050500000000000000000201603170002001ROSIRIS FERIA HOYOS  (COSM. SHILLER)              D000000008400000000000000000000000100010010000000000000000000000F0010000008392000120160317000101 00000000000000000000000000000000000000000000000000000000000000000000000000000000000000000000000000000000000000000N 00000000000NCONT   00    00000000000          00000000000000000000000000000000000000000000 000000000000000A000000000000000000000000000000000000000000000 000000000000000000000000000000000000000     00000000                                                                                                                        000000000000000000
F0010000008392000002000004175790100041450500000000000000000201603170002001ROSIRIS FERIA HOYOS  (COSM. SHILLER)              C000000007200000000000000000000000100010010000000000000000000000F0010000008392000220160317000101 00000000000000000000000000000000000000000000000000000000000000000000000000000000000000000000000000000000000000000N 00000000000NCONT   00    00000000000          00000000000000000000000000000000000000000000 000000000000000A000000000000000000000000000000000000000000000 000000000000000000000000000000000000000     00000000                                                                                                                        000000000000000000
F0010000008392000003000004175790100042505000000000000000000201603170002001ROSIRIS FERIA HOYOS  (COSM. SHILLER)              C000000001200000000000000000000000100010010000000000000000000000F0010000008392000320160317000101 00000000000000000000000000000000000000000000000000000000000000000000000000000000000000000000000000000000000000000N 00000000000NCONT   00    00000000000          00000000000000000000000000000000000000000000 000000000000000A000000000000000000000000000000000000000000000 000000000000000000000000000000000000000     00000000                                                                                                                        000000000000000000
F0010000008392000004000004175790100023658300000000000000000201603170002001ROSIRIS FERIA HOYOS  (COSM. SHILLER)              C000000000057600000000000000000000100010010000000000000000000000F0010000008392000420160317000101 00000000000000000000000000000000000000000000000000000000000000000000000000000000000000000000000000000000000000000N 00000000000NCONT   00    00000000000          00000000000000000000000000000000000000000000 000000000000000A000000000000000000000000000000000000000000000 000000000000000000000000000000000000000     00000000                                                                                                                        000000000000000000
F0010000008392000005000004175790100013552100000000000000000201603170002001ROSIRIS FERIA HOYOS  (COSM. SHILLER)              D000000000057600000000000000000000100010010000000000000000000000F0010000008392000520160317000101 00000000000000000000000000000000000000000000000000000000000000000000000000000000000000000000000000000000000000000N 00000000000NCONT   00    00000000000          00000000000000000000000000000000000000000000 000000000000000A000000000000000000000000000000000000000000000 000000000000000000000000000000000000000     00000000                                                                                                                        000000000000000000
F0010000008392100001000089011078600013050500000000000000000201603170002001DIST. NUEVO MUNDO S.A.S.                          D000000006784800000000000000000000100010010000000000000000000000F0010000008392100120160317000101 00000000000000000000000000000000000000000000000000000000000000000000000000000000000000000000000000000000000000000N 00000000000NCONT   00    00000000000          00000000000000000000000000000000000000000000 000000000000000A000000000000000000000000000000000000000000000 000000000000000000000000000000000000000     00000000                                                                                                                        000000000000000000
F0010000008392100002000089011078600041450500000000000000000201603170002001DIST. NUEVO MUNDO S.A.S.                          C000000005940000000000000000000000100010010000000000000000000000F0010000008392100220160317000101 00000000000000000000000000000000000000000000000000000000000000000000000000000000000000000000000000000000000000000N 00000000000NCONT   00    00000000000          00000000000000000000000000000000000000000000 000000000000000A000000000000000000000000000000000000000000000 000000000000000000000000000000000000000     00000000                                                                                                                        000000000000000000
F0010000008392100003000089011078600042505000000000000000000201603170002001DIST. NUEVO MUNDO S.A.S.                          C000000000844800000000000000000000100010010000000000000000000000F0010000008392100320160317000101 00000000000000000000000000000000000000000000000000000000000000000000000000000000000000000000000000000000000000000N 00000000000NCONT   00    00000000000          00000000000000000000000000000000000000000000 000000000000000A000000000000000000000000000000000000000000000 000000000000000000000000000000000000000     00000000                                                                                                                        000000000000000000
F0010000008392100004000089011078600023658300000000000000000201603170002001DIST. NUEVO MUNDO S.A.S.                          C000000000047500000000000000000000100010010000000000000000000000F0010000008392100420160317000101 00000000000000000000000000000000000000000000000000000000000000000000000000000000000000000000000000000000000000000N 00000000000NCONT   00    00000000000          00000000000000000000000000000000000000000000 000000000000000A000000000000000000000000000000000000000000000 000000000000000000000000000000000000000     00000000                                                                                                                        000000000000000000
F0010000008392100005000089011078600013552100000000000000000201603170002001DIST. NUEVO MUNDO S.A.S.                          D000000000047500000000000000000000100010010000000000000000000000F0010000008392100520160317000101 00000000000000000000000000000000000000000000000000000000000000000000000000000000000000000000000000000000000000000N 00000000000NCONT   00    00000000000          00000000000000000000000000000000000000000000 000000000000000A000000000000000000000000000000000000000000000 000000000000000000000000000000000000000     00000000                                                                                                                        000000000000000000
F0010000008392200001000090080946500013050500000000000000000201603170002001INVERSIONES AFAP SAS                              D000000009240000000000000000000000100010010000000000000000000000F0010000008392200120160317000101 00000000000000000000000000000000000000000000000000000000000000000000000000000000000000000000000000000000000000000N 00000000000NCONT   00    00000000000          00000000000000000000000000000000000000000000 000000000000000A000000000000000000000000000000000000000000000 000000000000000000000000000000000000000     00000000                                                                                                                        000000000000000000
F0010000008392200002000090080946500041450500000000000000000201603170002001INVERSIONES AFAP SAS                              C000000006040000000000000000000000100010010000000000000000000000F0010000008392200220160317000101 00000000000000000000000000000000000000000000000000000000000000000000000000000000000000000000000000000000000000000N 00000000000NCONT   00    00000000000          00000000000000000000000000000000000000000000 000000000000000A000000000000000000000000000000000000000000000 000000000000000000000000000000000000000     00000000                                                                                                                        000000000000000000
F0010000008392200003000090080946500042505000000000000000000201603170002001INVERSIONES AFAP SAS                              C000000003200000000000000000000000100010010000000000000000000000F0010000008392200320160317000101 00000000000000000000000000000000000000000000000000000000000000000000000000000000000000000000000000000000000000000N 00000000000NCONT   00    00000000000          00000000000000000000000000000000000000000000 000000000000000A000000000000000000000000000000000000000000000 000000000000000000000000000000000000000     00000000                                                                                                                        000000000000000000
F0010000008392200004000090080946500023658300000000000000000201603170002001INVERSIONES AFAP SAS                              C000000000048300000000000000000000100010010000000000000000000000F0010000008392200420160317000101 00000000000000000000000000000000000000000000000000000000000000000000000000000000000000000000000000000000000000000N 00000000000NCONT   00    00000000000          00000000000000000000000000000000000000000000 000000000000000A000000000000000000000000000000000000000000000 000000000000000000000000000000000000000     00000000                                                                                                                        000000000000000000
F0010000008392200005000090080946500013552100000000000000000201603170002001INVERSIONES AFAP SAS                              D000000000048300000000000000000000100010010000000000000000000000F0010000008392200520160317000101 00000000000000000000000000000000000000000000000000000000000000000000000000000000000000000000000000000000000000000N 00000000000NCONT   00    00000000000          00000000000000000000000000000000000000000000 000000000000000A000000000000000000000000000000000000000000000 000000000000000000000000000000000000000     00000000                                                                                                                        000000000000000000
F0010000008392300001000089010952800013050500000000000000000201603170002001IND. LITOGRAF. BOSTON S.A.S.                      D000000056470000000000000000000000100010010000000000000000000000F0010000008392300120160317000101 00000000000000000000000000000000000000000000000000000000000000000000000000000000000000000000000000000000000000000N 00000000000NCONT   00    00000000000          00000000000000000000000000000000000000000000 000000000000000A000000000000000000000000000000000000000000000 000000000000000000000000000000000000000     00000000                                                                                                                        000000000000000000
F0010000008392300002000089010952800041450500000000000000000201603170002001IND. LITOGRAF. BOSTON S.A.S.                      C000000050320000000000000000000000100010010000000000000000000000F0010000008392300220160317000101 00000000000000000000000000000000000000000000000000000000000000000000000000000000000000000000000000000000000000000N 00000000000NCONT   00    00000000000          00000000000000000000000000000000000000000000 000000000000000A000000000000000000000000000000000000000000000 000000000000000000000000000000000000000     00000000                                                                                                                        000000000000000000
F0010000008392300003000089010952800042505000000000000000000201603170002001IND. LITOGRAF. BOSTON S.A.S.                      C000000006150000000000000000000000100010010000000000000000000000F0010000008392300320160317000101 00000000000000000000000000000000000000000000000000000000000000000000000000000000000000000000000000000000000000000N 00000000000NCONT   00    00000000000          00000000000000000000000000000000000000000000 000000000000000A000000000000000000000000000000000000000000000 000000000000000000000000000000000000000     00000000                                                                                                                        000000000000000000
F0010000008392300004000089010952800023658300000000000000000201603170002001IND. LITOGRAF. BOSTON S.A.S.                      C000000000402600000000000000000000100010010000000000000000000000F0010000008392300420160317000101 00000000000000000000000000000000000000000000000000000000000000000000000000000000000000000000000000000000000000000N 00000000000NCONT   00    00000000000          00000000000000000000000000000000000000000000 000000000000000A000000000000000000000000000000000000000000000 000000000000000000000000000000000000000     00000000                                                                                                                        000000000000000000
F0010000008392300005000089010952800013552100000000000000000201603170002001IND. LITOGRAF. BOSTON S.A.S.                      D000000000402600000000000000000000100010010000000000000000000000F0010000008392300520160317000101 00000000000000000000000000000000000000000000000000000000000000000000000000000000000000000000000000000000000000000N 00000000000NCONT   00    00000000000          00000000000000000000000000000000000000000000 000000000000000A000000000000000000000000000000000000000000000 000000000000000000000000000000000000000     00000000                                                                                                                        000000000000000000
F0010000008392400001000000431178400013050500000000000000000201603170002001EFRAIN ALVAREZ                                    D000000024175000000000000000000000100010010000000000000000000000F0010000008392400120160317000101 00000000000000000000000000000000000000000000000000000000000000000000000000000000000000000000000000000000000000000N 00000000000NCONT   00    00000000000          00000000000000000000000000000000000000000000 000000000000000A000000000000000000000000000000000000000000000 000000000000000000000000000000000000000     00000000                                                                                                                        000000000000000000
F0010000008392400002000000431178400041450500000000000000000201603170002001EFRAIN ALVAREZ                                    C000000022150000000000000000000000100010010000000000000000000000F0010000008392400220160317000101 00000000000000000000000000000000000000000000000000000000000000000000000000000000000000000000000000000000000000000N 00000000000NCONT   00    00000000000          00000000000000000000000000000000000000000000 000000000000000A000000000000000000000000000000000000000000000 000000000000000000000000000000000000000     00000000                                                                                                                        000000000000000000
F0010000008392400003000000431178400042505000000000000000000201603170002001EFRAIN ALVAREZ                                    C000000002025000000000000000000000100010010000000000000000000000F0010000008392400320160317000101 00000000000000000000000000000000000000000000000000000000000000000000000000000000000000000000000000000000000000000N 00000000000NCONT   00    00000000000          00000000000000000000000000000000000000000000 000000000000000A000000000000000000000000000000000000000000000 000000000000000000000000000000000000000     00000000                                                                                                                        000000000000000000
F0010000008392400004000000431178400023658300000000000000000201603170002001EFRAIN ALVAREZ                                    C000000000177200000000000000000000100010010000000000000000000000F0010000008392400420160317000101 00000000000000000000000000000000000000000000000000000000000000000000000000000000000000000000000000000000000000000N 00000000000NCONT   00    00000000000          00000000000000000000000000000000000000000000 000000000000000A000000000000000000000000000000000000000000000 000000000000000000000000000000000000000     00000000                                                                                                                        000000000000000000
F0010000008392400005000000431178400013552100000000000000000201603170002001EFRAIN ALVAREZ                                    D000000000177200000000000000000000100010010000000000000000000000F0010000008392400520160317000101 00000000000000000000000000000000000000000000000000000000000000000000000000000000000000000000000000000000000000000N 00000000000NCONT   00    00000000000          00000000000000000000000000000000000000000000 000000000000000A000000000000000000000000000000000000000000000 000000000000000000000000000000000000000     00000000                                                                                                                        000000000000000000
F0010000008392500001000001022529300013050500000000000000000201603170002001ALBERTO ALVAREZ ISAZA                             D000000003620000000000000000000000100010010000000000000000000000F0010000008392500120160317000101 00000000000000000000000000000000000000000000000000000000000000000000000000000000000000000000000000000000000000000N 00000000000NCONT   00    00000000000          00000000000000000000000000000000000000000000 000000000000000A000000000000000000000000000000000000000000000 000000000000000000000000000000000000000     00000000                                                                                                                        000000000000000000
F0010000008392500002000001022529300041450500000000000000000201603170002001ALBERTO ALVAREZ ISAZA                             C000000003620000000000000000000000100010010000000000000000000000F0010000008392500220160317000101 00000000000000000000000000000000000000000000000000000000000000000000000000000000000000000000000000000000000000000N 00000000000NCONT   00    00000000000          00000000000000000000000000000000000000000000 000000000000000A000000000000000000000000000000000000000000000 000000000000000000000000000000000000000     00000000                                                                                                                        000000000000000000
F0010000008392500003000001022529300042505000000000000000000201603170002001ALBERTO ALVAREZ ISAZA                             C000000000000000000000000000000000100010010000000000000000000000F0010000008392500320160317000101 00000000000000000000000000000000000000000000000000000000000000000000000000000000000000000000000000000000000000000N 00000000000NCONT   00    00000000000          00000000000000000000000000000000000000000000 000000000000000A000000000000000000000000000000000000000000000 000000000000000000000000000000000000000     00000000                                                                                                                        000000000000000000
F0010000008392500004000001022529300023658300000000000000000201603170002001ALBERTO ALVAREZ ISAZA                             C000000000029000000000000000000000100010010000000000000000000000F0010000008392500420160317000101 00000000000000000000000000000000000000000000000000000000000000000000000000000000000000000000000000000000000000000N 00000000000NCONT   00    00000000000          00000000000000000000000000000000000000000000 000000000000000A000000000000000000000000000000000000000000000 000000000000000000000000000000000000000     00000000                                                                                                                        000000000000000000
F0010000008392500005000001022529300013552100000000000000000201603170002001ALBERTO ALVAREZ ISAZA                             D000000000029000000000000000000000100010010000000000000000000000F0010000008392500520160317000101 00000000000000000000000000000000000000000000000000000000000000000000000000000000000000000000000000000000000000000N 00000000000NCONT   00    00000000000          00000000000000000000000000000000000000000000 000000000000000A000000000000000000000000000000000000000000000 000000000000000000000000000000000000000     00000000                                                                                                                        000000000000000000
F0010000008392600001000000744822500013050500000000000000000201603170002001LABORATORIO Y PERFUMERIA BORGE                    D000000018254000000000000000000000100010010000000000000000000000F0010000008392600120160317000101 00000000000000000000000000000000000000000000000000000000000000000000000000000000000000000000000000000000000000000N 00000000000NCONT   00    00000000000          00000000000000000000000000000000000000000000 000000000000000A000000000000000000000000000000000000000000000 000000000000000000000000000000000000000     00000000                                                                                                                        000000000000000000
F0010000008392600002000000744822500041450500000000000000000201603170002001LABORATORIO Y PERFUMERIA BORGE                    C000000012815000000000000000000000100010010000000000000000000000F0010000008392600220160317000101 00000000000000000000000000000000000000000000000000000000000000000000000000000000000000000000000000000000000000000N 00000000000NCONT   00    00000000000          00000000000000000000000000000000000000000000 000000000000000A000000000000000000000000000000000000000000000 000000000000000000000000000000000000000     00000000                                                                                                                        000000000000000000
F0010000008392600003000000744822500042505000000000000000000201603170002001LABORATORIO Y PERFUMERIA BORGE                    C000000005439000000000000000000000100010010000000000000000000000F0010000008392600320160317000101 00000000000000000000000000000000000000000000000000000000000000000000000000000000000000000000000000000000000000000N 00000000000NCONT   00    00000000000          00000000000000000000000000000000000000000000 000000000000000A000000000000000000000000000000000000000000000 000000000000000000000000000000000000000     00000000                                                                                                                        000000000000000000
F0010000008392600004000000744822500023658300000000000000000201603170002001LABORATORIO Y PERFUMERIA BORGE                    C000000000102500000000000000000000100010010000000000000000000000F0010000008392600420160317000101 00000000000000000000000000000000000000000000000000000000000000000000000000000000000000000000000000000000000000000N 00000000000NCONT   00    00000000000          00000000000000000000000000000000000000000000 000000000000000A000000000000000000000000000000000000000000000 000000000000000000000000000000000000000     00000000                                                                                                                        000000000000000000
F0010000008392600005000000744822500013552100000000000000000201603170002001LABORATORIO Y PERFUMERIA BORGE                    D000000000102500000000000000000000100010010000000000000000000000F0010000008392600520160317000101 00000000000000000000000000000000000000000000000000000000000000000000000000000000000000000000000000000000000000000N 00000000000NCONT   00    00000000000          00000000000000000000000000000000000000000000 000000000000000A000000000000000000000000000000000000000000000 000000000000000000000000000000000000000     00000000                                                                                                                        000000000000000000
F0010000008392700001000000870907300013050500000000000000000201603170002001SURTIDOR FERRETERO                                D000000057930000000000000000000000100010010000000000000000000000F0010000008392700120160317000101 00000000000000000000000000000000000000000000000000000000000000000000000000000000000000000000000000000000000000000N 00000000000NCONT   00    00000000000          00000000000000000000000000000000000000000000 000000000000000A000000000000000000000000000000000000000000000 000000000000000000000000000000000000000     00000000                                                                                                                        000000000000000000
F0010000008392700002000000870907300041450500000000000000000201603170002001SURTIDOR FERRETERO                                C000000040630000000000000000000000100010010000000000000000000000F0010000008392700220160317000101 00000000000000000000000000000000000000000000000000000000000000000000000000000000000000000000000000000000000000000N 00000000000NCONT   00    00000000000          00000000000000000000000000000000000000000000 000000000000000A000000000000000000000000000000000000000000000 000000000000000000000000000000000000000     00000000                                                                                                                        000000000000000000
F0010000008392700003000000870907300041750100000000000000000201603170002001SURTIDOR FERRETERO                                D000000004063000000000000000000000100010010000000000000000000000F0010000008392700320160317000101 00000000000000000000000000000000000000000000000000000000000000000000000000000000000000000000000000000000000000000N 00000000000NCONT   00    00000000000          00000000000000000000000000000000000000000000 000000000000000A000000000000000000000000000000000000000000000 000000000000000000000000000000000000000     00000000                                                                                                                        000000000000000000
F0010000008392700004000000870907300042505000000000000000000201603170002001SURTIDOR FERRETERO                                C000000021363000000000000000000000100010010000000000000000000000F0010000008392700420160317000101 00000000000000000000000000000000000000000000000000000000000000000000000000000000000000000000000000000000000000000N 00000000000NCONT   00    00000000000          00000000000000000000000000000000000000000000 000000000000000A000000000000000000000000000000000000000000000 000000000000000000000000000000000000000     00000000                                                                                                                        000000000000000000
F0010000008392700005000000870907300023658300000000000000000201603170002001SURTIDOR FERRETERO                                C000000000325000000000000000000000100010010000000000000000000000F0010000008392700520160317000101 00000000000000000000000000000000000000000000000000000000000000000000000000000000000000000000000000000000000000000N 00000000000NCONT   00    00000000000          00000000000000000000000000000000000000000000 000000000000000A000000000000000000000000000000000000000000000 000000000000000000000000000000000000000     00000000                                                                                                                        000000000000000000
F0010000008392700006000000870907300013552100000000000000000201603170002001SURTIDOR FERRETERO                                D000000000325000000000000000000000100010010000000000000000000000F0010000008392700620160317000101 00000000000000000000000000000000000000000000000000000000000000000000000000000000000000000000000000000000000000000N 00000000000NCONT   00    00000000000          00000000000000000000000000000000000000000000 000000000000000A000000000000000000000000000000000000000000000 000000000000000000000000000000000000000     00000000                                                                                                                        000000000000000000
F0010000008392800001000089010272700013050500000000000000000201603170002001ALFONSOEME S.A.                                   D000000030688500000000000000000000100010010000000000000000000000F0010000008392800120160317000101 00000000000000000000000000000000000000000000000000000000000000000000000000000000000000000000000000000000000000000N 00000000000NCONT   00    00000000000          00000000000000000000000000000000000000000000 000000000000000A000000000000000000000000000000000000000000000 000000000000000000000000000000000000000     00000000                                                                                                                        000000000000000000
F0010000008392800002000089010272700041450500000000000000000201603170002001ALFONSOEME S.A.                                   C000000030809500000000000000000000100010010000000000000000000000F0010000008392800220160317000101 00000000000000000000000000000000000000000000000000000000000000000000000000000000000000000000000000000000000000000N 00000000000NCONT   00    00000000000          00000000000000000000000000000000000000000000 000000000000000A000000000000000000000000000000000000000000000 000000000000000000000000000000000000000     00000000                                                                                                                        000000000000000000
F0010000008392800003000089010272700041750100000000000000000201603170002001ALFONSOEME S.A.                                   D000000003081000000000000000000000100010010000000000000000000000F0010000008392800320160317000101 00000000000000000000000000000000000000000000000000000000000000000000000000000000000000000000000000000000000000000N 00000000000NCONT   00    00000000000          00000000000000000000000000000000000000000000 000000000000000A000000000000000000000000000000000000000000000 000000000000000000000000000000000000000     00000000                                                                                                                        000000000000000000
F0010000008392800004000089010272700042505000000000000000000201603170002001ALFONSOEME S.A.                                   C000000002960000000000000000000000100010010000000000000000000000F0010000008392800420160317000101 00000000000000000000000000000000000000000000000000000000000000000000000000000000000000000000000000000000000000000N 00000000000NCONT   00    00000000000          00000000000000000000000000000000000000000000 000000000000000A000000000000000000000000000000000000000000000 000000000000000000000000000000000000000     00000000                                                                                                                        000000000000000000
F0010000008392800005000089010272700023658300000000000000000201603170002001ALFONSOEME S.A.                                   C000000000246500000000000000000000100010010000000000000000000000F0010000008392800520160317000101 00000000000000000000000000000000000000000000000000000000000000000000000000000000000000000000000000000000000000000N 00000000000NCONT   00    00000000000          00000000000000000000000000000000000000000000 000000000000000A000000000000000000000000000000000000000000000 000000000000000000000000000000000000000     00000000                                                                                                                        000000000000000000
F0010000008392800006000089010272700013552100000000000000000201603170002001ALFONSOEME S.A.                                   D000000000246500000000000000000000100010010000000000000000000000F0010000008392800620160317000101 00000000000000000000000000000000000000000000000000000000000000000000000000000000000000000000000000000000000000000N 00000000000NCONT   00    00000000000          00000000000000000000000000000000000000000000 000000000000000A000000000000000000000000000000000000000000000 000000000000000000000000000000000000000     00000000                                                                                                                        000000000000000000
F0010000008392900001000089010272700013050500000000000000000201603170002001ALFONSOEME S.A.                                   D000000027257300000000000000000000100010010000000000000000000000F0010000008392900120160317000101 00000000000000000000000000000000000000000000000000000000000000000000000000000000000000000000000000000000000000000N 00000000000NCONT   00    00000000000          00000000000000000000000000000000000000000000 000000000000000A000000000000000000000000000000000000000000000 000000000000000000000000000000000000000     00000000                                                                                                                        000000000000000000
F0010000008392900002000089010272700041450500000000000000000201603170002001ALFONSOEME S.A.                                   C000000026997000000000000000000000100010010000000000000000000000F0010000008392900220160317000101 00000000000000000000000000000000000000000000000000000000000000000000000000000000000000000000000000000000000000000N 00000000000NCONT   00    00000000000          00000000000000000000000000000000000000000000 000000000000000A000000000000000000000000000000000000000000000 000000000000000000000000000000000000000     00000000                                                                                                                        000000000000000000
F0010000008392900003000089010272700041750100000000000000000201603170002001ALFONSOEME S.A.                                   D000000002699700000000000000000000100010010000000000000000000000F0010000008392900320160317000101 00000000000000000000000000000000000000000000000000000000000000000000000000000000000000000000000000000000000000000N 00000000000NCONT   00    00000000000          00000000000000000000000000000000000000000000 000000000000000A000000000000000000000000000000000000000000000 000000000000000000000000000000000000000     00000000                                                                                                                        000000000000000000
F0010000008392900004000089010272700042505000000000000000000201603170002001ALFONSOEME S.A.                                   C000000002960000000000000000000000100010010000000000000000000000F0010000008392900420160317000101 00000000000000000000000000000000000000000000000000000000000000000000000000000000000000000000000000000000000000000N 00000000000NCONT   00    00000000000          00000000000000000000000000000000000000000000 000000000000000A000000000000000000000000000000000000000000000 000000000000000000000000000000000000000     00000000                                                                                                                        000000000000000000
F0010000008392900005000089010272700023658300000000000000000201603170002001ALFONSOEME S.A.                                   C000000000216000000000000000000000100010010000000000000000000000F0010000008392900520160317000101 00000000000000000000000000000000000000000000000000000000000000000000000000000000000000000000000000000000000000000N 00000000000NCONT   00    00000000000          00000000000000000000000000000000000000000000 000000000000000A000000000000000000000000000000000000000000000 000000000000000000000000000000000000000     00000000                                                                                                                        000000000000000000
F0010000008392900006000089010272700013552100000000000000000201603170002001ALFONSOEME S.A.                                   D000000000216000000000000000000000100010010000000000000000000000F0010000008392900620160317000101 00000000000000000000000000000000000000000000000000000000000000000000000000000000000000000000000000000000000000000N 00000000000NCONT   00    00000000000          00000000000000000000000000000000000000000000 000000000000000A000000000000000000000000000000000000000000000 000000000000000000000000000000000000000     00000000                                                                                                                        000000000000000000
F0010000008393000001000089010272700013050500000000000000000201603170002001ALFONSOEME S.A.                                   D000000013596000000000000000000000100010010000000000000000000000F0010000008393000120160317000101 00000000000000000000000000000000000000000000000000000000000000000000000000000000000000000000000000000000000000000N 00000000000NCONT   00    00000000000          00000000000000000000000000000000000000000000 000000000000000A000000000000000000000000000000000000000000000 000000000000000000000000000000000000000     00000000                                                                                                                        000000000000000000
F0010000008393000002000089010272700041450500000000000000000201603170002001ALFONSOEME S.A.                                   C000000014040000000000000000000000100010010000000000000000000000F0010000008393000220160317000101 00000000000000000000000000000000000000000000000000000000000000000000000000000000000000000000000000000000000000000N 00000000000NCONT   00    00000000000          00000000000000000000000000000000000000000000 000000000000000A000000000000000000000000000000000000000000000 000000000000000000000000000000000000000     00000000                                                                                                                        000000000000000000
F0010000008393000003000089010272700041750100000000000000000201603170002001ALFONSOEME S.A.                                   D000000001404000000000000000000000100010010000000000000000000000F0010000008393000320160317000101 00000000000000000000000000000000000000000000000000000000000000000000000000000000000000000000000000000000000000000N 00000000000NCONT   00    00000000000          00000000000000000000000000000000000000000000 000000000000000A000000000000000000000000000000000000000000000 000000000000000000000000000000000000000     00000000                                                                                                                        000000000000000000
F0010000008393000004000089010272700042505000000000000000000201603170002001ALFONSOEME S.A.                                   C000000000960000000000000000000000100010010000000000000000000000F0010000008393000420160317000101 00000000000000000000000000000000000000000000000000000000000000000000000000000000000000000000000000000000000000000N 00000000000NCONT   00    00000000000          00000000000000000000000000000000000000000000 000000000000000A000000000000000000000000000000000000000000000 000000000000000000000000000000000000000     00000000                                                                                                                        000000000000000000
F0010000008393000005000089010272700023658300000000000000000201603170002001ALFONSOEME S.A.                                   C000000000112300000000000000000000100010010000000000000000000000F0010000008393000520160317000101 00000000000000000000000000000000000000000000000000000000000000000000000000000000000000000000000000000000000000000N 00000000000NCONT   00    00000000000          00000000000000000000000000000000000000000000 000000000000000A000000000000000000000000000000000000000000000 000000000000000000000000000000000000000     00000000                                                                                                                        000000000000000000
F0010000008393000006000089010272700013552100000000000000000201603170002001ALFONSOEME S.A.                                   D000000000112300000000000000000000100010010000000000000000000000F0010000008393000620160317000101 00000000000000000000000000000000000000000000000000000000000000000000000000000000000000000000000000000000000000000N 00000000000NCONT   00    00000000000          00000000000000000000000000000000000000000000 000000000000000A000000000000000000000000000000000000000000000 000000000000000000000000000000000000000     00000000                                                                                                                        000000000000000000
F0010000008393100001000081102758700013050500000000000000000201603170002001C.I. ABRACOL S.A EMA                              D000000092477800000000000000000000100010010000000000000000000000F0010000008393100120160317000101 00000000000000000000000000000000000000000000000000000000000000000000000000000000000000000000000000000000000000000N 00000000000NCONT   00    00000000000          00000000000000000000000000000000000000000000 000000000000000A000000000000000000000000000000000000000000000 000000000000000000000000000000000000000     00000000                                                                                                                        000000000000000000
F0010000008393100002000081102758700041450500000000000000000201603170002001C.I. ABRACOL S.A EMA                              C000000060560000000000000000000000100010010000000000000000000000F0010000008393100220160317000101 00000000000000000000000000000000000000000000000000000000000000000000000000000000000000000000000000000000000000000N 00000000000NCONT   00    00000000000          00000000000000000000000000000000000000000000 000000000000000A000000000000000000000000000000000000000000000 000000000000000000000000000000000000000     00000000                                                                                                                        000000000000000000
F0010000008393100003000081102758700041750100000000000000000201603170002001C.I. ABRACOL S.A EMA                              D000000001816800000000000000000000100010010000000000000000000000F0010000008393100320160317000101 00000000000000000000000000000000000000000000000000000000000000000000000000000000000000000000000000000000000000000N 00000000000NCONT   00    00000000000          00000000000000000000000000000000000000000000 000000000000000A000000000000000000000000000000000000000000000 000000000000000000000000000000000000000     00000000                                                                                                                        000000000000000000
F0010000008393100004000081102758700042505000000000000000000201603170002001C.I. ABRACOL S.A EMA                              C000000033734600000000000000000000100010010000000000000000000000F0010000008393100420160317000101 00000000000000000000000000000000000000000000000000000000000000000000000000000000000000000000000000000000000000000N 00000000000NCONT   00    00000000000          00000000000000000000000000000000000000000000 000000000000000A000000000000000000000000000000000000000000000 000000000000000000000000000000000000000     00000000                                                                                                                        000000000000000000
F0010000008393100005000081102758700023658300000000000000000201603170002001C.I. ABRACOL S.A EMA                              C000000000484500000000000000000000100010010000000000000000000000F0010000008393100520160317000101 00000000000000000000000000000000000000000000000000000000000000000000000000000000000000000000000000000000000000000N 00000000000NCONT   00    00000000000          00000000000000000000000000000000000000000000 000000000000000A000000000000000000000000000000000000000000000 000000000000000000000000000000000000000     00000000                                                                                                                        000000000000000000
F0010000008393100006000081102758700013552100000000000000000201603170002001C.I. ABRACOL S.A EMA                              D000000000484500000000000000000000100010010000000000000000000000F0010000008393100620160317000101 00000000000000000000000000000000000000000000000000000000000000000000000000000000000000000000000000000000000000000N 00000000000NCONT   00    00000000000          00000000000000000000000000000000000000000000 000000000000000A000000000000000000000000000000000000000000000 000000000000000000000000000000000000000     00000000                                                                                                                        000000000000000000
F0010000008393200001000081102758700013050500000000000000000201603170002001C.I. ABRACOL S.A EMA                              D000000073151500000000000000000000100010010000000000000000000000F0010000008393200120160317000101 00000000000000000000000000000000000000000000000000000000000000000000000000000000000000000000000000000000000000000N 00000000000NCONT   00    00000000000          00000000000000000000000000000000000000000000 000000000000000A000000000000000000000000000000000000000000000 000000000000000000000000000000000000000     00000000                                                                                                                        000000000000000000
F0010000008393200002000081102758700041450500000000000000000201603170002001C.I. ABRACOL S.A EMA                              C000000048470000000000000000000000100010010000000000000000000000F0010000008393200220160317000101 00000000000000000000000000000000000000000000000000000000000000000000000000000000000000000000000000000000000000000N 00000000000NCONT   00    00000000000          00000000000000000000000000000000000000000000 000000000000000A000000000000000000000000000000000000000000000 000000000000000000000000000000000000000     00000000                                                                                                                        000000000000000000
F0010000008393200003000081102758700041750100000000000000000201603170002001C.I. ABRACOL S.A EMA                              D000000001454100000000000000000000100010010000000000000000000000F0010000008393200320160317000101 00000000000000000000000000000000000000000000000000000000000000000000000000000000000000000000000000000000000000000N 00000000000NCONT   00    00000000000          00000000000000000000000000000000000000000000 000000000000000A000000000000000000000000000000000000000000000 000000000000000000000000000000000000000     00000000                                                                                                                        000000000000000000
F0010000008393200004000081102758700042505000000000000000000201603170002001C.I. ABRACOL S.A EMA                              C000000026135600000000000000000000100010010000000000000000000000F0010000008393200420160317000101 00000000000000000000000000000000000000000000000000000000000000000000000000000000000000000000000000000000000000000N 00000000000NCONT   00    00000000000          00000000000000000000000000000000000000000000 000000000000000A000000000000000000000000000000000000000000000 000000000000000000000000000000000000000     00000000                                                                                                                        000000000000000000
F0010000008393200005000081102758700023658300000000000000000201603170002001C.I. ABRACOL S.A EMA                              C000000000387800000000000000000000100010010000000000000000000000F0010000008393200520160317000101 00000000000000000000000000000000000000000000000000000000000000000000000000000000000000000000000000000000000000000N 00000000000NCONT   00    00000000000          00000000000000000000000000000000000000000000 000000000000000A000000000000000000000000000000000000000000000 000000000000000000000000000000000000000     00000000                                                                                                                        000000000000000000
F0010000008393200006000081102758700013552100000000000000000201603170002001C.I. ABRACOL S.A EMA                              D000000000387800000000000000000000100010010000000000000000000000F0010000008393200620160317000101 00000000000000000000000000000000000000000000000000000000000000000000000000000000000000000000000000000000000000000N 00000000000NCONT   00    00000000000          00000000000000000000000000000000000000000000 000000000000000A000000000000000000000000000000000000000000000 000000000000000000000000000000000000000     00000000                                                                                                                        000000000000000000
F0010000008393300001000081102758700013050500000000000000000201603170002001C.I. ABRACOL S.A EMA                              D000000086190800000000000000000000100010010000000000000000000000F0010000008393300120160317000101 00000000000000000000000000000000000000000000000000000000000000000000000000000000000000000000000000000000000000000N 00000000000NCONT   00    00000000000          00000000000000000000000000000000000000000000 000000000000000A000000000000000000000000000000000000000000000 000000000000000000000000000000000000000     00000000                                                                                                                        000000000000000000
F0010000008393300002000081102758700041450500000000000000000201603170002001C.I. ABRACOL S.A EMA                              C000000052380000000000000000000000100010010000000000000000000000F0010000008393300220160317000101 00000000000000000000000000000000000000000000000000000000000000000000000000000000000000000000000000000000000000000N 00000000000NCONT   00    00000000000          00000000000000000000000000000000000000000000 000000000000000A000000000000000000000000000000000000000000000 000000000000000000000000000000000000000     00000000                                                                                                                        000000000000000000
F0010000008393300003000081102758700041750100000000000000000201603170002001C.I. ABRACOL S.A EMA                              D000000001571400000000000000000000100010010000000000000000000000F0010000008393300320160317000101 00000000000000000000000000000000000000000000000000000000000000000000000000000000000000000000000000000000000000000N 00000000000NCONT   00    00000000000          00000000000000000000000000000000000000000000 000000000000000A000000000000000000000000000000000000000000000 000000000000000000000000000000000000000     00000000                                                                                                                        000000000000000000
F0010000008393300004000081102758700042505000000000000000000201603170002001C.I. ABRACOL S.A EMA                              C000000035382200000000000000000000100010010000000000000000000000F0010000008393300420160317000101 00000000000000000000000000000000000000000000000000000000000000000000000000000000000000000000000000000000000000000N 00000000000NCONT   00    00000000000          00000000000000000000000000000000000000000000 000000000000000A000000000000000000000000000000000000000000000 000000000000000000000000000000000000000     00000000                                                                                                                        000000000000000000
F0010000008393300005000081102758700023658300000000000000000201603170002001C.I. ABRACOL S.A EMA                              C000000000419000000000000000000000100010010000000000000000000000F0010000008393300520160317000101 00000000000000000000000000000000000000000000000000000000000000000000000000000000000000000000000000000000000000000N 00000000000NCONT   00    00000000000          00000000000000000000000000000000000000000000 000000000000000A000000000000000000000000000000000000000000000 000000000000000000000000000000000000000     00000000                                                                                                                        000000000000000000
F0010000008393300006000081102758700013552100000000000000000201603170002001C.I. ABRACOL S.A EMA                              D000000000419000000000000000000000100010010000000000000000000000F0010000008393300620160317000101 00000000000000000000000000000000000000000000000000000000000000000000000000000000000000000000000000000000000000000N 00000000000NCONT   00    00000000000          00000000000000000000000000000000000000000000 000000000000000A000000000000000000000000000000000000000000000 000000000000000000000000000000000000000     00000000                                                                                                                        000000000000000000
F0010000008393400001000081102758700013050500000000000000000201603170002001C.I. ABRACOL S.A EMA                              D000000139823100000000000000000000100010010000000000000000000000F0010000008393400120160317000101 00000000000000000000000000000000000000000000000000000000000000000000000000000000000000000000000000000000000000000N 00000000000NCONT   00    00000000000          00000000000000000000000000000000000000000000 000000000000000A000000000000000000000000000000000000000000000 000000000000000000000000000000000000000     00000000                                                                                                                        000000000000000000
F0010000008393400002000081102758700041450500000000000000000201603170002001C.I. ABRACOL S.A EMA                              C000000081745000000000000000000000100010010000000000000000000000F0010000008393400220160317000101 00000000000000000000000000000000000000000000000000000000000000000000000000000000000000000000000000000000000000000N 00000000000NCONT   00    00000000000          00000000000000000000000000000000000000000000 000000000000000A000000000000000000000000000000000000000000000 000000000000000000000000000000000000000     00000000                                                                                                                        000000000000000000
F0010000008393400003000081102758700041750100000000000000000201603170002001C.I. ABRACOL S.A EMA                              D000000002452400000000000000000000100010010000000000000000000000F0010000008393400320160317000101 00000000000000000000000000000000000000000000000000000000000000000000000000000000000000000000000000000000000000000N 00000000000NCONT   00    00000000000          00000000000000000000000000000000000000000000 000000000000000A000000000000000000000000000000000000000000000 000000000000000000000000000000000000000     00000000                                                                                                                        000000000000000000
F0010000008393400004000081102758700042505000000000000000000201603170002001C.I. ABRACOL S.A EMA                              C000000060530500000000000000000000100010010000000000000000000000F0010000008393400420160317000101 00000000000000000000000000000000000000000000000000000000000000000000000000000000000000000000000000000000000000000N 00000000000NCONT   00    00000000000          00000000000000000000000000000000000000000000 000000000000000A000000000000000000000000000000000000000000000 000000000000000000000000000000000000000     00000000                                                                                                                        000000000000000000
F0010000008393400005000081102758700023658300000000000000000201603170002001C.I. ABRACOL S.A EMA                              C000000000654000000000000000000000100010010000000000000000000000F0010000008393400520160317000101 00000000000000000000000000000000000000000000000000000000000000000000000000000000000000000000000000000000000000000N 00000000000NCONT   00    00000000000          00000000000000000000000000000000000000000000 000000000000000A000000000000000000000000000000000000000000000 000000000000000000000000000000000000000     00000000                                                                                                                        000000000000000000
F0010000008393400006000081102758700013552100000000000000000201603170002001C.I. ABRACOL S.A EMA                              D000000000654000000000000000000000100010010000000000000000000000F0010000008393400620160317000101 00000000000000000000000000000000000000000000000000000000000000000000000000000000000000000000000000000000000000000N 00000000000NCONT   00    00000000000          00000000000000000000000000000000000000000000 000000000000000A000000000000000000000000000000000000000000000 000000000000000000000000000000000000000     00000000                                                                                                                        000000000000000000
F0010000008393500001000090049854300013050500000000000000000201603170002001TRAPOS INDUSTRIALES DE COLOMBIA SAS               D000000010950000000000000000000000100010010000000000000000000000F0010000008393500120160317000101 00000000000000000000000000000000000000000000000000000000000000000000000000000000000000000000000000000000000000000N 00000000000NCONT   00    00000000000          00000000000000000000000000000000000000000000 000000000000000A000000000000000000000000000000000000000000000 000000000000000000000000000000000000000     00000000                                                                                                                        000000000000000000
F0010000008393500002000090049854300041450500000000000000000201603170002001TRAPOS INDUSTRIALES DE COLOMBIA SAS               C000000010000000000000000000000000100010010000000000000000000000F0010000008393500220160317000101 00000000000000000000000000000000000000000000000000000000000000000000000000000000000000000000000000000000000000000N 00000000000NCONT   00    00000000000          00000000000000000000000000000000000000000000 000000000000000A000000000000000000000000000000000000000000000 000000000000000000000000000000000000000     00000000                                                                                                                        000000000000000000
F0010000008393500003000090049854300042505000000000000000000201603170002001TRAPOS INDUSTRIALES DE COLOMBIA SAS               C000000000950000000000000000000000100010010000000000000000000000F0010000008393500320160317000101 00000000000000000000000000000000000000000000000000000000000000000000000000000000000000000000000000000000000000000N 00000000000NCONT   00    00000000000          00000000000000000000000000000000000000000000 000000000000000A000000000000000000000000000000000000000000000 000000000000000000000000000000000000000     00000000                                                                                                                        000000000000000000
F0010000008393500004000090049854300023658300000000000000000201603170002001TRAPOS INDUSTRIALES DE COLOMBIA SAS               C000000000080000000000000000000000100010010000000000000000000000F0010000008393500420160317000101 00000000000000000000000000000000000000000000000000000000000000000000000000000000000000000000000000000000000000000N 00000000000NCONT   00    00000000000          00000000000000000000000000000000000000000000 000000000000000A000000000000000000000000000000000000000000000 000000000000000000000000000000000000000     00000000                                                                                                                        000000000000000000
F0010000008393500005000090049854300013552100000000000000000201603170002001TRAPOS INDUSTRIALES DE COLOMBIA SAS               D000000000080000000000000000000000100010010000000000000000000000F0010000008393500520160317000101 00000000000000000000000000000000000000000000000000000000000000000000000000000000000000000000000000000000000000000N 00000000000NCONT   00    00000000000          00000000000000000000000000000000000000000000 000000000000000A000000000000000000000000000000000000000000000 000000000000000000000000000000000000000     00000000                                                                                                                        000000000000000000
F0010000008393600001000002245670100013050500000000000000000201603170002001YOLANDA  TOBON                                    D000000034923700000000000000000000100010010000000000000000000000F0010000008393600120160317000101 00000000000000000000000000000000000000000000000000000000000000000000000000000000000000000000000000000000000000000N 00000000000NCONT   00    00000000000          00000000000000000000000000000000000000000000 000000000000000A000000000000000000000000000000000000000000000 000000000000000000000000000000000000000     00000000                                                                                                                        000000000000000000
F0010000008393600002000002245670100041450500000000000000000201603170002001YOLANDA  TOBON                                    C000000025240000000000000000000000100010010000000000000000000000F0010000008393600220160317000101 00000000000000000000000000000000000000000000000000000000000000000000000000000000000000000000000000000000000000000N 00000000000NCONT   00    00000000000          00000000000000000000000000000000000000000000 000000000000000A000000000000000000000000000000000000000000000 000000000000000000000000000000000000000     00000000                                                                                                                        000000000000000000
F0010000008393600003000002245670100042505000000000000000000201603170002001YOLANDA  TOBON                                    C000000009683700000000000000000000100010010000000000000000000000F0010000008393600320160317000101 00000000000000000000000000000000000000000000000000000000000000000000000000000000000000000000000000000000000000000N 00000000000NCONT   00    00000000000          00000000000000000000000000000000000000000000 000000000000000A000000000000000000000000000000000000000000000 000000000000000000000000000000000000000     00000000                                                                                                                        000000000000000000
F0010000008393600004000002245670100023658300000000000000000201603170002001YOLANDA  TOBON                                    C000000000201900000000000000000000100010010000000000000000000000F0010000008393600420160317000101 00000000000000000000000000000000000000000000000000000000000000000000000000000000000000000000000000000000000000000N 00000000000NCONT   00    00000000000          00000000000000000000000000000000000000000000 000000000000000A000000000000000000000000000000000000000000000 000000000000000000000000000000000000000     00000000                                                                                                                        000000000000000000
F0010000008393600005000002245670100013552100000000000000000201603170002001YOLANDA  TOBON                                    D000000000201900000000000000000000100010010000000000000000000000F0010000008393600520160317000101 00000000000000000000000000000000000000000000000000000000000000000000000000000000000000000000000000000000000000000N 00000000000NCONT   00    00000000000          00000000000000000000000000000000000000000000 000000000000000A000000000000000000000000000000000000000000000 000000000000000000000000000000000000000     00000000                                                                                                                        000000000000000000
F0010000008393700001000083007900600013050500000000000000000201603170002001EXPRESO ANDINO DE CARGA SA                        D000000009100000000000000000000000100010010000000000000000000000F0010000008393700120160317000101 00000000000000000000000000000000000000000000000000000000000000000000000000000000000000000000000000000000000000000N 00000000000NCONT   00    00000000000          00000000000000000000000000000000000000000000 000000000000000A000000000000000000000000000000000000000000000 000000000000000000000000000000000000000     00000000                                                                                                                        000000000000000000
F0010000008393700002000083007900600041450500000000000000000201603170002001EXPRESO ANDINO DE CARGA SA                        C000000009000000000000000000000000100010010000000000000000000000F0010000008393700220160317000101 00000000000000000000000000000000000000000000000000000000000000000000000000000000000000000000000000000000000000000N 00000000000NCONT   00    00000000000          00000000000000000000000000000000000000000000 000000000000000A000000000000000000000000000000000000000000000 000000000000000000000000000000000000000     00000000                                                                                                                        000000000000000000
F0010000008393700003000083007900600042505000000000000000000201603170002001EXPRESO ANDINO DE CARGA SA                        C000000000100000000000000000000000100010010000000000000000000000F0010000008393700320160317000101 00000000000000000000000000000000000000000000000000000000000000000000000000000000000000000000000000000000000000000N 00000000000NCONT   00    00000000000          00000000000000000000000000000000000000000000 000000000000000A000000000000000000000000000000000000000000000 000000000000000000000000000000000000000     00000000                                                                                                                        000000000000000000
F0010000008393700004000083007900600023658300000000000000000201603170002001EXPRESO ANDINO DE CARGA SA                        C000000000072000000000000000000000100010010000000000000000000000F0010000008393700420160317000101 00000000000000000000000000000000000000000000000000000000000000000000000000000000000000000000000000000000000000000N 00000000000NCONT   00    00000000000          00000000000000000000000000000000000000000000 000000000000000A000000000000000000000000000000000000000000000 000000000000000000000000000000000000000     00000000                                                                                                                        000000000000000000
F0010000008393700005000083007900600013552100000000000000000201603170002001EXPRESO ANDINO DE CARGA SA                        D000000000072000000000000000000000100010010000000000000000000000F0010000008393700520160317000101 00000000000000000000000000000000000000000000000000000000000000000000000000000000000000000000000000000000000000000N 00000000000NCONT   00    00000000000          00000000000000000000000000000000000000000000 000000000000000A000000000000000000000000000000000000000000000 000000000000000000000000000000000000000     00000000                                                                                                                        000000000000000000
F0010000008393800001000090047168800011050500000000000000000201603170002001QUIMINAG COLOMBIA S.A.S.                          D000000012000000000000000000000000100010010000000000000000000000F0010000008393800120160317000101 00000000000000000000000000000000000000000000000000000000000000000000000000000000000000000000000000000000000000000N 00000000000NCONT   00    00000000000          00000000000000000000000000000000000000000000 000000000000000A000000000000000000000000000000000000000000000 000000000000000000000000000000000000000     00000000                                                                                                                        000000000000000000
F0010000008393800002000090047168800041450500000000000000000201603170002001QUIMINAG COLOMBIA S.A.S.                          C000000011200000000000000000000000100010010000000000000000000000F0010000008393800220160317000101 00000000000000000000000000000000000000000000000000000000000000000000000000000000000000000000000000000000000000000N 00000000000NCONT   00    00000000000          00000000000000000000000000000000000000000000 000000000000000A000000000000000000000000000000000000000000000 000000000000000000000000000000000000000     00000000                                                                                                                        000000000000000000
F0010000008393800003000090047168800042505000000000000000000201603170002001QUIMINAG COLOMBIA S.A.S.                          C000000000800000000000000000000000100010010000000000000000000000F0010000008393800320160317000101 00000000000000000000000000000000000000000000000000000000000000000000000000000000000000000000000000000000000000000N 00000000000NCONT   00    00000000000          00000000000000000000000000000000000000000000 000000000000000A000000000000000000000000000000000000000000000 000000000000000000000000000000000000000     00000000                                                                                                                        000000000000000000
F0010000008393800004000090047168800023658300000000000000000201603170002001QUIMINAG COLOMBIA S.A.S.                          C000000000089600000000000000000000100010010000000000000000000000F0010000008393800420160317000101 00000000000000000000000000000000000000000000000000000000000000000000000000000000000000000000000000000000000000000N 00000000000NCONT   00    00000000000          00000000000000000000000000000000000000000000 000000000000000A000000000000000000000000000000000000000000000 000000000000000000000000000000000000000     00000000                                                                                                                        000000000000000000
F0010000008393800005000090047168800013552100000000000000000201603170002001QUIMINAG COLOMBIA S.A.S.                          D000000000089600000000000000000000100010010000000000000000000000F0010000008393800520160317000101 00000000000000000000000000000000000000000000000000000000000000000000000000000000000000000000000000000000000000000N 00000000000NCONT   00    00000000000          00000000000000000000000000000000000000000000 000000000000000A000000000000000000000000000000000000000000000 000000000000000000000000000000000000000     00000000                                                                                                                        000000000000000000
F0010000008393900001000080200516200011050500000000000000000201603170002001SANTOUR SAS                                       D000000013000000000000000000000000100010010000000000000000000000F0010000008393900120160317000101 00000000000000000000000000000000000000000000000000000000000000000000000000000000000000000000000000000000000000000N 00000000000NCONT   00    00000000000          00000000000000000000000000000000000000000000 000000000000000A000000000000000000000000000000000000000000000 000000000000000000000000000000000000000     00000000                                                                                                                        000000000000000000
F0010000008393900002000080200516200041450500000000000000000201603170002001SANTOUR SAS                                       C000000010900000000000000000000000100010010000000000000000000000F0010000008393900220160317000101 00000000000000000000000000000000000000000000000000000000000000000000000000000000000000000000000000000000000000000N 00000000000NCONT   00    00000000000          00000000000000000000000000000000000000000000 000000000000000A000000000000000000000000000000000000000000000 000000000000000000000000000000000000000     00000000                                                                                                                        000000000000000000
F0010000008393900003000080200516200042505000000000000000000201603170002001SANTOUR SAS                                       C000000002100000000000000000000000100010010000000000000000000000F0010000008393900320160317000101 00000000000000000000000000000000000000000000000000000000000000000000000000000000000000000000000000000000000000000N 00000000000NCONT   00    00000000000          00000000000000000000000000000000000000000000 000000000000000A000000000000000000000000000000000000000000000 000000000000000000000000000000000000000     00000000                                                                                                                        000000000000000000
F0010000008393900004000080200516200023658300000000000000000201603170002001SANTOUR SAS                                       C000000000087200000000000000000000100010010000000000000000000000F0010000008393900420160317000101 00000000000000000000000000000000000000000000000000000000000000000000000000000000000000000000000000000000000000000N 00000000000NCONT   00    00000000000          00000000000000000000000000000000000000000000 000000000000000A000000000000000000000000000000000000000000000 000000000000000000000000000000000000000     00000000                                                                                                                        000000000000000000
F0010000008393900005000080200516200013552100000000000000000201603170002001SANTOUR SAS                                       D000000000087200000000000000000000100010010000000000000000000000F0010000008393900520160317000101 00000000000000000000000000000000000000000000000000000000000000000000000000000000000000000000000000000000000000000N 00000000000NCONT   00    00000000000          00000000000000000000000000000000000000000000 000000000000000A000000000000000000000000000000000000000000000 000000000000000000000000000000000000000     00000000                                                                                                                        000000000000000000
F0010000008394000001000090047878200011050500000000000000000201603170002001GRUMAD SAS                                        D000000014000000000000000000000000100010010000000000000000000000F0010000008394000120160317000101 00000000000000000000000000000000000000000000000000000000000000000000000000000000000000000000000000000000000000000N 00000000000NCONT   00    00000000000          00000000000000000000000000000000000000000000 000000000000000A000000000000000000000000000000000000000000000 000000000000000000000000000000000000000     00000000                                                                                                                        000000000000000000
F0010000008394000002000090047878200041450500000000000000000201603170002001GRUMAD SAS                                        C000000012500000000000000000000000100010010000000000000000000000F0010000008394000220160317000101 00000000000000000000000000000000000000000000000000000000000000000000000000000000000000000000000000000000000000000N 00000000000NCONT   00    00000000000          00000000000000000000000000000000000000000000 000000000000000A000000000000000000000000000000000000000000000 000000000000000000000000000000000000000     00000000                                                                                                                        000000000000000000
F0010000008394000003000090047878200042505000000000000000000201603170002001GRUMAD SAS                                        C000000001500000000000000000000000100010010000000000000000000000F0010000008394000320160317000101 00000000000000000000000000000000000000000000000000000000000000000000000000000000000000000000000000000000000000000N 00000000000NCONT   00    00000000000          00000000000000000000000000000000000000000000 000000000000000A000000000000000000000000000000000000000000000 000000000000000000000000000000000000000     00000000                                                                                                                        000000000000000000
F0010000008394000004000090047878200023658300000000000000000201603170002001GRUMAD SAS                                        C000000000100000000000000000000000100010010000000000000000000000F0010000008394000420160317000101 00000000000000000000000000000000000000000000000000000000000000000000000000000000000000000000000000000000000000000N 00000000000NCONT   00    00000000000          00000000000000000000000000000000000000000000 000000000000000A000000000000000000000000000000000000000000000 000000000000000000000000000000000000000     00000000                                                                                                                        000000000000000000
F0010000008394000005000090047878200013552100000000000000000201603170002001GRUMAD SAS                                        D000000000100000000000000000000000100010010000000000000000000000F0010000008394000520160317000101 00000000000000000000000000000000000000000000000000000000000000000000000000000000000000000000000000000000000000000N 00000000000NCONT   00    00000000000          00000000000000000000000000000000000000000000 000000000000000A000000000000000000000000000000000000000000000 000000000000000000000000000000000000000     00000000                                                                                                                        000000000000000000
F0010000008394100001000003207718300011050500000000000000000201603170002001MARIA GILMA  RAMIREZ GARCIA                       D000000003300000000000000000000000100010010000000000000000000000F0010000008394100120160317000101 00000000000000000000000000000000000000000000000000000000000000000000000000000000000000000000000000000000000000000N 00000000000NCONT   00    00000000000          00000000000000000000000000000000000000000000 000000000000000A000000000000000000000000000000000000000000000 000000000000000000000000000000000000000     00000000                                                                                                                        000000000000000000
F0010000008394100002000003207718300041450500000000000000000201603170002001MARIA GILMA  RAMIREZ GARCIA                       C000000002400000000000000000000000100010010000000000000000000000F0010000008394100220160317000101 00000000000000000000000000000000000000000000000000000000000000000000000000000000000000000000000000000000000000000N 00000000000NCONT   00    00000000000          00000000000000000000000000000000000000000000 000000000000000A000000000000000000000000000000000000000000000 000000000000000000000000000000000000000     00000000                                                                                                                        000000000000000000
F0010000008394100003000003207718300042505000000000000000000201603170002001MARIA GILMA  RAMIREZ GARCIA                       C000000000900000000000000000000000100010010000000000000000000000F0010000008394100320160317000101 00000000000000000000000000000000000000000000000000000000000000000000000000000000000000000000000000000000000000000N 00000000000NCONT   00    00000000000          00000000000000000000000000000000000000000000 000000000000000A000000000000000000000000000000000000000000000 000000000000000000000000000000000000000     00000000                                                                                                                        000000000000000000
F0010000008394100004000003207718300023658300000000000000000201603170002001MARIA GILMA  RAMIREZ GARCIA                       C000000000019200000000000000000000100010010000000000000000000000F0010000008394100420160317000101 00000000000000000000000000000000000000000000000000000000000000000000000000000000000000000000000000000000000000000N 00000000000NCONT   00    00000000000          00000000000000000000000000000000000000000000 000000000000000A000000000000000000000000000000000000000000000 000000000000000000000000000000000000000     00000000                                                                                                                        000000000000000000
F0010000008394100005000003207718300013552100000000000000000201603170002001MARIA GILMA  RAMIREZ GARCIA                       D000000000019200000000000000000000100010010000000000000000000000F0010000008394100520160317000101 00000000000000000000000000000000000000000000000000000000000000000000000000000000000000000000000000000000000000000N 00000000000NCONT   00    00000000000          00000000000000000000000000000000000000000000 000000000000000A000000000000000000000000000000000000000000000 000000000000000000000000000000000000000     00000000                                                                                                                        000000000000000000
F0010000008394200001000003207718300011050500000000000000000201603170002001MARIA GILMA RAMIREZ GARCIA                        D000000004600000000000000000000000100010010000000000000000000000F0010000008394200120160317000101 00000000000000000000000000000000000000000000000000000000000000000000000000000000000000000000000000000000000000000N 00000000000NCONT   00    00000000000          00000000000000000000000000000000000000000000 000000000000000A000000000000000000000000000000000000000000000 000000000000000000000000000000000000000     00000000                                                                                                                        000000000000000000
F0010000008394200002000003207718300041450500000000000000000201603170002001MARIA GILMA RAMIREZ GARCIA                        C000000004220000000000000000000000100010010000000000000000000000F0010000008394200220160317000101 00000000000000000000000000000000000000000000000000000000000000000000000000000000000000000000000000000000000000000N 00000000000NCONT   00    00000000000          00000000000000000000000000000000000000000000 000000000000000A000000000000000000000000000000000000000000000 000000000000000000000000000000000000000     00000000                                                                                                                        000000000000000000
F0010000008394200003000003207718300042505000000000000000000201603170002001MARIA GILMA RAMIREZ GARCIA                        C000000000380000000000000000000000100010010000000000000000000000F0010000008394200320160317000101 00000000000000000000000000000000000000000000000000000000000000000000000000000000000000000000000000000000000000000N 00000000000NCONT   00    00000000000          00000000000000000000000000000000000000000000 000000000000000A000000000000000000000000000000000000000000000 000000000000000000000000000000000000000     00000000                                                                                                                        000000000000000000
F0010000008394200004000003207718300023658300000000000000000201603170002001MARIA GILMA RAMIREZ GARCIA                        C000000000033800000000000000000000100010010000000000000000000000F0010000008394200420160317000101 00000000000000000000000000000000000000000000000000000000000000000000000000000000000000000000000000000000000000000N 00000000000NCONT   00    00000000000          00000000000000000000000000000000000000000000 000000000000000A000000000000000000000000000000000000000000000 000000000000000000000000000000000000000     00000000                                                                                                                        000000000000000000
F0010000008394200005000003207718300013552100000000000000000201603170002001MARIA GILMA RAMIREZ GARCIA                        D000000000033800000000000000000000100010010000000000000000000000F0010000008394200520160317000101 00000000000000000000000000000000000000000000000000000000000000000000000000000000000000000000000000000000000000000N 00000000000NCONT   00    00000000000          00000000000000000000000000000000000000000000 000000000000000A000000000000000000000000000000000000000000000 000000000000000000000000000000000000000     00000000                                                                                                                        000000000000000000
F0010000008394300001000007213653800011050500000000000000000201603170002001VICTOR ECHAVEZ                                    D000000003600000000000000000000000100010010000000000000000000000F0010000008394300120160317000101 00000000000000000000000000000000000000000000000000000000000000000000000000000000000000000000000000000000000000000N 00000000000NCONT   00    00000000000          00000000000000000000000000000000000000000000 000000000000000A000000000000000000000000000000000000000000000 000000000000000000000000000000000000000     00000000                                                                                                                        000000000000000000
F0010000008394300002000007213653800041450500000000000000000201603170002001VICTOR ECHAVEZ                                    C000000002700000000000000000000000100010010000000000000000000000F0010000008394300220160317000101 00000000000000000000000000000000000000000000000000000000000000000000000000000000000000000000000000000000000000000N 00000000000NCONT   00    00000000000          00000000000000000000000000000000000000000000 000000000000000A000000000000000000000000000000000000000000000 000000000000000000000000000000000000000     00000000                                                                                                                        000000000000000000
F0010000008394300003000007213653800042505000000000000000000201603170002001VICTOR ECHAVEZ                                    C000000000900000000000000000000000100010010000000000000000000000F0010000008394300320160317000101 00000000000000000000000000000000000000000000000000000000000000000000000000000000000000000000000000000000000000000N 00000000000NCONT   00    00000000000          00000000000000000000000000000000000000000000 000000000000000A000000000000000000000000000000000000000000000 000000000000000000000000000000000000000     00000000                                                                                                                        000000000000000000
F0010000008394300004000007213653800023658300000000000000000201603170002001VICTOR ECHAVEZ                                    C000000000021600000000000000000000100010010000000000000000000000F0010000008394300420160317000101 00000000000000000000000000000000000000000000000000000000000000000000000000000000000000000000000000000000000000000N 00000000000NCONT   00    00000000000          00000000000000000000000000000000000000000000 000000000000000A000000000000000000000000000000000000000000000 000000000000000000000000000000000000000     00000000                                                                                                                        000000000000000000
F0010000008394300005000007213653800013552100000000000000000201603170002001VICTOR ECHAVEZ                                    D000000000021600000000000000000000100010010000000000000000000000F0010000008394300520160317000101 00000000000000000000000000000000000000000000000000000000000000000000000000000000000000000000000000000000000000000N 00000000000NCONT   00    00000000000          00000000000000000000000000000000000000000000 000000000000000A000000000000000000000000000000000000000000000 000000000000000000000000000000000000000     00000000                                                                                                                        000000000000000000
F0010000008394400001000003319910700011050500000000000000000201603170002001LUZ DARY JIMENEZ MARTINEZ                         D000000001100000000000000000000000100010010000000000000000000000F0010000008394400120160317000101 00000000000000000000000000000000000000000000000000000000000000000000000000000000000000000000000000000000000000000N 00000000000NCONT   00    00000000000          00000000000000000000000000000000000000000000 000000000000000A000000000000000000000000000000000000000000000 000000000000000000000000000000000000000     00000000                                                                                                                        000000000000000000
F0010000008394400002000003319910700041450500000000000000000201603170002001LUZ DARY JIMENEZ MARTINEZ                         C000000001000000000000000000000000100010010000000000000000000000F0010000008394400220160317000101 00000000000000000000000000000000000000000000000000000000000000000000000000000000000000000000000000000000000000000N 00000000000NCONT   00    00000000000          00000000000000000000000000000000000000000000 000000000000000A000000000000000000000000000000000000000000000 000000000000000000000000000000000000000     00000000                                                                                                                        000000000000000000
F0010000008394400003000003319910700042505000000000000000000201603170002001LUZ DARY JIMENEZ MARTINEZ                         C000000000100000000000000000000000100010010000000000000000000000F0010000008394400320160317000101 00000000000000000000000000000000000000000000000000000000000000000000000000000000000000000000000000000000000000000N 00000000000NCONT   00    00000000000          00000000000000000000000000000000000000000000 000000000000000A000000000000000000000000000000000000000000000 000000000000000000000000000000000000000     00000000                                                                                                                        000000000000000000
F0010000008394400004000003319910700023658300000000000000000201603170002001LUZ DARY JIMENEZ MARTINEZ                         C000000000008000000000000000000000100010010000000000000000000000F0010000008394400420160317000101 00000000000000000000000000000000000000000000000000000000000000000000000000000000000000000000000000000000000000000N 00000000000NCONT   00    00000000000          00000000000000000000000000000000000000000000 000000000000000A000000000000000000000000000000000000000000000 000000000000000000000000000000000000000     00000000                                                                                                                        000000000000000000
F0010000008394400005000003319910700013552100000000000000000201603170002001LUZ DARY JIMENEZ MARTINEZ                         D000000000008000000000000000000000100010010000000000000000000000F0010000008394400520160317000101 00000000000000000000000000000000000000000000000000000000000000000000000000000000000000000000000000000000000000000N 00000000000NCONT   00    00000000000          00000000000000000000000000000000000000000000 000000000000000A000000000000000000000000000000000000000000000 000000000000000000000000000000000000000     00000000                                                                                                                        000000000000000000
F0010000008394500001000007957099900011050500000000000000000201603170002001RUBEN GOMEZ                                       D000000001400000000000000000000000100010010000000000000000000000F0010000008394500120160317000101 00000000000000000000000000000000000000000000000000000000000000000000000000000000000000000000000000000000000000000N 00000000000NCONT   00    00000000000          00000000000000000000000000000000000000000000 000000000000000A000000000000000000000000000000000000000000000 000000000000000000000000000000000000000     00000000                                                                                                                        000000000000000000
F0010000008394500002000007957099900041450500000000000000000201603170002001RUBEN GOMEZ                                       C000000000900000000000000000000000100010010000000000000000000000F0010000008394500220160317000101 00000000000000000000000000000000000000000000000000000000000000000000000000000000000000000000000000000000000000000N 00000000000NCONT   00    00000000000          00000000000000000000000000000000000000000000 000000000000000A000000000000000000000000000000000000000000000 000000000000000000000000000000000000000     00000000                                                                                                                        000000000000000000
F0010000008394500003000007957099900042505000000000000000000201603170002001RUBEN GOMEZ                                       C000000000500000000000000000000000100010010000000000000000000000F0010000008394500320160317000101 00000000000000000000000000000000000000000000000000000000000000000000000000000000000000000000000000000000000000000N 00000000000NCONT   00    00000000000          00000000000000000000000000000000000000000000 000000000000000A000000000000000000000000000000000000000000000 000000000000000000000000000000000000000     00000000                                                                                                                        000000000000000000
F0010000008394500004000007957099900023658300000000000000000201603170002001RUBEN GOMEZ                                       C000000000007200000000000000000000100010010000000000000000000000F0010000008394500420160317000101 00000000000000000000000000000000000000000000000000000000000000000000000000000000000000000000000000000000000000000N 00000000000NCONT   00    00000000000          00000000000000000000000000000000000000000000 000000000000000A000000000000000000000000000000000000000000000 000000000000000000000000000000000000000     00000000                                                                                                                        000000000000000000
