F0010000007769400001000089031248700011050500000000000000000201510180002001DISTRIBUIDORA CALIPLASTICOS LTDA                  D000000000800000000000000000000000100010010000000000000000000000F0010000007769400120151018000101 00000000000000000000000000000000000000000000000000000000000000000000000000000000000000000000000000000000000000000N 00000000000NCONT   00    00000000000          00000000000000000000000000000000000000000000 000000000000000A000000000000000000000000000000000000000000000 000000000000000000000000000000000000000     00000000                                                                                                                        000000000000000000
F0010000007769400002000089031248700041450500000000000000000201510180002001DISTRIBUIDORA CALIPLASTICOS LTDA                  C000000000700000000000000000000000100010010000000000000000000000F0010000007769400220151018000101 00000000000000000000000000000000000000000000000000000000000000000000000000000000000000000000000000000000000000000N 00000000000NCONT   00    00000000000          00000000000000000000000000000000000000000000 000000000000000A000000000000000000000000000000000000000000000 000000000000000000000000000000000000000     00000000                                                                                                                        000000000000000000
F0010000007769400003000089031248700042505000000000000000000201510180002001DISTRIBUIDORA CALIPLASTICOS LTDA                  C000000000100000000000000000000000100010010000000000000000000000F0010000007769400320151018000101 00000000000000000000000000000000000000000000000000000000000000000000000000000000000000000000000000000000000000000N 00000000000NCONT   00    00000000000          00000000000000000000000000000000000000000000 000000000000000A000000000000000000000000000000000000000000000 000000000000000000000000000000000000000     00000000                                                                                                                        000000000000000000
F0010000007769400004000089031248700023658300000000000000000201510180002001DISTRIBUIDORA CALIPLASTICOS LTDA                  C000000000005600000000000000000000100010010000000000000000000000F0010000007769400420151018000101 00000000000000000000000000000000000000000000000000000000000000000000000000000000000000000000000000000000000000000N 00000000000NCONT   00    00000000000          00000000000000000000000000000000000000000000 000000000000000A000000000000000000000000000000000000000000000 000000000000000000000000000000000000000     00000000                                                                                                                        000000000000000000
F0010000007769400005000089031248700013552100000000000000000201510180002001DISTRIBUIDORA CALIPLASTICOS LTDA                  D000000000005600000000000000000000100010010000000000000000000000F0010000007769400520151018000101 00000000000000000000000000000000000000000000000000000000000000000000000000000000000000000000000000000000000000000N 00000000000NCONT   00    00000000000          00000000000000000000000000000000000000000000 000000000000000A000000000000000000000000000000000000000000000 000000000000000000000000000000000000000     00000000                                                                                                                        000000000000000000
F0010000007769500001000090034602400011050500000000000000000201510180002001PRODUCTOS NACIONALES PARAFINICOS LA CUSTODIA S.A.SD000000005298000000000000000000000100010010000000000000000000000F0010000007769500120151018000101 00000000000000000000000000000000000000000000000000000000000000000000000000000000000000000000000000000000000000000N 00000000000NCONT   00    00000000000          00000000000000000000000000000000000000000000 000000000000000A000000000000000000000000000000000000000000000 000000000000000000000000000000000000000     00000000                                                                                                                        000000000000000000
F0010000007769500002000090034602400041450500000000000000000201510180002001PRODUCTOS NACIONALES PARAFINICOS LA CUSTODIA S.A.SC000000004998000000000000000000000100010010000000000000000000000F0010000007769500220151018000101 00000000000000000000000000000000000000000000000000000000000000000000000000000000000000000000000000000000000000000N 00000000000NCONT   00    00000000000          00000000000000000000000000000000000000000000 000000000000000A000000000000000000000000000000000000000000000 000000000000000000000000000000000000000     00000000                                                                                                                        000000000000000000
F0010000007769500003000090034602400042505000000000000000000201510180002001PRODUCTOS NACIONALES PARAFINICOS LA CUSTODIA S.A.SC000000000300000000000000000000000100010010000000000000000000000F0010000007769500320151018000101 00000000000000000000000000000000000000000000000000000000000000000000000000000000000000000000000000000000000000000N 00000000000NCONT   00    00000000000          00000000000000000000000000000000000000000000 000000000000000A000000000000000000000000000000000000000000000 000000000000000000000000000000000000000     00000000                                                                                                                        000000000000000000
F0010000007769500004000090034602400023658300000000000000000201510180002001PRODUCTOS NACIONALES PARAFINICOS LA CUSTODIA S.A.SC000000000040000000000000000000000100010010000000000000000000000F0010000007769500420151018000101 00000000000000000000000000000000000000000000000000000000000000000000000000000000000000000000000000000000000000000N 00000000000NCONT   00    00000000000          00000000000000000000000000000000000000000000 000000000000000A000000000000000000000000000000000000000000000 000000000000000000000000000000000000000     00000000                                                                                                                        000000000000000000
F0010000007769500005000090034602400013552100000000000000000201510180002001PRODUCTOS NACIONALES PARAFINICOS LA CUSTODIA S.A.SD000000000040000000000000000000000100010010000000000000000000000F0010000007769500520151018000101 00000000000000000000000000000000000000000000000000000000000000000000000000000000000000000000000000000000000000000N 00000000000NCONT   00    00000000000          00000000000000000000000000000000000000000000 000000000000000A000000000000000000000000000000000000000000000 000000000000000000000000000000000000000     00000000                                                                                                                        000000000000000000
F0010000007769600001000090034602400011050500000000000000000201510180002001PRODUCTOS NACIONALES PARAFINICOS LA CUSTODIA S.A.SD000000010602000000000000000000000100010010000000000000000000000F0010000007769600120151018000101 00000000000000000000000000000000000000000000000000000000000000000000000000000000000000000000000000000000000000000N 00000000000NCONT   00    00000000000          00000000000000000000000000000000000000000000 000000000000000A000000000000000000000000000000000000000000000 000000000000000000000000000000000000000     00000000                                                                                                                        000000000000000000
F0010000007769600002000090034602400041450500000000000000000201510180002001PRODUCTOS NACIONALES PARAFINICOS LA CUSTODIA S.A.SC000000010002000000000000000000000100010010000000000000000000000F0010000007769600220151018000101 00000000000000000000000000000000000000000000000000000000000000000000000000000000000000000000000000000000000000000N 00000000000NCONT   00    00000000000          00000000000000000000000000000000000000000000 000000000000000A000000000000000000000000000000000000000000000 000000000000000000000000000000000000000     00000000                                                                                                                        000000000000000000
F0010000007769600003000090034602400042505000000000000000000201510180002001PRODUCTOS NACIONALES PARAFINICOS LA CUSTODIA S.A.SC000000000600000000000000000000000100010010000000000000000000000F0010000007769600320151018000101 00000000000000000000000000000000000000000000000000000000000000000000000000000000000000000000000000000000000000000N 00000000000NCONT   00    00000000000          00000000000000000000000000000000000000000000 000000000000000A000000000000000000000000000000000000000000000 000000000000000000000000000000000000000     00000000                                                                                                                        000000000000000000
F0010000007769600004000090034602400023658300000000000000000201510180002001PRODUCTOS NACIONALES PARAFINICOS LA CUSTODIA S.A.SC000000000080000000000000000000000100010010000000000000000000000F0010000007769600420151018000101 00000000000000000000000000000000000000000000000000000000000000000000000000000000000000000000000000000000000000000N 00000000000NCONT   00    00000000000          00000000000000000000000000000000000000000000 000000000000000A000000000000000000000000000000000000000000000 000000000000000000000000000000000000000     00000000                                                                                                                        000000000000000000
F0010000007769600005000090034602400013552100000000000000000201510180002001PRODUCTOS NACIONALES PARAFINICOS LA CUSTODIA S.A.SD000000000080000000000000000000000100010010000000000000000000000F0010000007769600520151018000101 00000000000000000000000000000000000000000000000000000000000000000000000000000000000000000000000000000000000000000N 00000000000NCONT   00    00000000000          00000000000000000000000000000000000000000000 000000000000000A000000000000000000000000000000000000000000000 000000000000000000000000000000000000000     00000000                                                                                                                        000000000000000000
F0010000007769700001000090034602400011050500000000000000000201510180002001PRODUCTOS NACIONALES PARAFINICOS LA CUSTODIA S.A.SD000000006600000000000000000000000100010010000000000000000000000F0010000007769700120151018000101 00000000000000000000000000000000000000000000000000000000000000000000000000000000000000000000000000000000000000000N 00000000000NCONT   00    00000000000          00000000000000000000000000000000000000000000 000000000000000A000000000000000000000000000000000000000000000 000000000000000000000000000000000000000     00000000                                                                                                                        000000000000000000
F0010000007769700002000090034602400041450500000000000000000201510180002001PRODUCTOS NACIONALES PARAFINICOS LA CUSTODIA S.A.SC000000006000000000000000000000000100010010000000000000000000000F0010000007769700220151018000101 00000000000000000000000000000000000000000000000000000000000000000000000000000000000000000000000000000000000000000N 00000000000NCONT   00    00000000000          00000000000000000000000000000000000000000000 000000000000000A000000000000000000000000000000000000000000000 000000000000000000000000000000000000000     00000000                                                                                                                        000000000000000000
F0010000007769700003000090034602400042505000000000000000000201510180002001PRODUCTOS NACIONALES PARAFINICOS LA CUSTODIA S.A.SC000000000600000000000000000000000100010010000000000000000000000F0010000007769700320151018000101 00000000000000000000000000000000000000000000000000000000000000000000000000000000000000000000000000000000000000000N 00000000000NCONT   00    00000000000          00000000000000000000000000000000000000000000 000000000000000A000000000000000000000000000000000000000000000 000000000000000000000000000000000000000     00000000                                                                                                                        000000000000000000
F0010000007769700004000090034602400023658300000000000000000201510180002001PRODUCTOS NACIONALES PARAFINICOS LA CUSTODIA S.A.SC000000000048000000000000000000000100010010000000000000000000000F0010000007769700420151018000101 00000000000000000000000000000000000000000000000000000000000000000000000000000000000000000000000000000000000000000N 00000000000NCONT   00    00000000000          00000000000000000000000000000000000000000000 000000000000000A000000000000000000000000000000000000000000000 000000000000000000000000000000000000000     00000000                                                                                                                        000000000000000000
F0010000007769700005000090034602400013552100000000000000000201510180002001PRODUCTOS NACIONALES PARAFINICOS LA CUSTODIA S.A.SD000000000048000000000000000000000100010010000000000000000000000F0010000007769700520151018000101 00000000000000000000000000000000000000000000000000000000000000000000000000000000000000000000000000000000000000000N 00000000000NCONT   00    00000000000          00000000000000000000000000000000000000000000 000000000000000A000000000000000000000000000000000000000000000 000000000000000000000000000000000000000     00000000                                                                                                                        000000000000000000
