F0010000006227900001000089031248700013050500000000000000000201409040002001DISTRIBUIDORA CALIPLASTICOS LTDA                  D000000069996200000000000000000000100010010000000000000000000000F0010000006227900120140904000101 00000000000000000000000000000000000000000000000000000000000000000000000000000000000000000000000000000000000000000N 00000000000NCONT   00    00000000000          00000000000000000000000000000000000000000000 000000000000000A000000000000000000000000000000000000000000000 000000000000000000000000000000000000000     00000000                                                                                                                        000000000000000000
F0010000006227900002000089031248700041450500000000000000000201409040002001DISTRIBUIDORA CALIPLASTICOS LTDA                  C000000066621200000000000000000000100010010000000000000000000000F0010000006227900220140904000101 00000000000000000000000000000000000000000000000000000000000000000000000000000000000000000000000000000000000000000N 00000000000NCONT   00    00000000000          00000000000000000000000000000000000000000000 000000000000000A000000000000000000000000000000000000000000000 000000000000000000000000000000000000000     00000000                                                                                                                        000000000000000000
F0010000006227900003000089031248700042505000000000000000000201409040002001DISTRIBUIDORA CALIPLASTICOS LTDA                  C000000003375000000000000000000000100010010000000000000000000000F0010000006227900320140904000101 00000000000000000000000000000000000000000000000000000000000000000000000000000000000000000000000000000000000000000N 00000000000NCONT   00    00000000000          00000000000000000000000000000000000000000000 000000000000000A000000000000000000000000000000000000000000000 000000000000000000000000000000000000000     00000000                                                                                                                        000000000000000000
F0010000006227900004000089031248700023658300000000000000000201409040002001DISTRIBUIDORA CALIPLASTICOS LTDA                  C000000000533000000000000000000000100010010000000000000000000000F0010000006227900420140904000101 00000000000000000000000000000000000000000000000000000000000000000000000000000000000000000000000000000000000000000N 00000000000NCONT   00    00000000000          00000000000000000000000000000000000000000000 000000000000000A000000000000000000000000000000000000000000000 000000000000000000000000000000000000000     00000000                                                                                                                        000000000000000000
F0010000006227900005000089031248700013552100000000000000000201409040002001DISTRIBUIDORA CALIPLASTICOS LTDA                  D000000000533000000000000000000000100010010000000000000000000000F0010000006227900520140904000101 00000000000000000000000000000000000000000000000000000000000000000000000000000000000000000000000000000000000000000N 00000000000NCONT   00    00000000000          00000000000000000000000000000000000000000000 000000000000000A000000000000000000000000000000000000000000000 000000000000000000000000000000000000000     00000000                                                                                                                        000000000000000000
F0010000006228000001000086000089600013050500000000000000000201409040002001SIKA COLOMBIA S.A.                                D000000025995700000000000000000000100010010000000000000000000000F0010000006228000120140904000101 00000000000000000000000000000000000000000000000000000000000000000000000000000000000000000000000000000000000000000N 00000000000NCONT   00    00000000000          00000000000000000000000000000000000000000000 000000000000000A000000000000000000000000000000000000000000000 000000000000000000000000000000000000000     00000000                                                                                                                        000000000000000000
F0010000006228000002000086000089600041450500000000000000000201409040002001SIKA COLOMBIA S.A.                                C000000023984400000000000000000000100010010000000000000000000000F0010000006228000220140904000101 00000000000000000000000000000000000000000000000000000000000000000000000000000000000000000000000000000000000000000N 00000000000NCONT   00    00000000000          00000000000000000000000000000000000000000000 000000000000000A000000000000000000000000000000000000000000000 000000000000000000000000000000000000000     00000000                                                                                                                        000000000000000000
F0010000006228000003000086000089600042505000000000000000000201409040002001SIKA COLOMBIA S.A.                                C000000002011300000000000000000000100010010000000000000000000000F0010000006228000320140904000101 00000000000000000000000000000000000000000000000000000000000000000000000000000000000000000000000000000000000000000N 00000000000NCONT   00    00000000000          00000000000000000000000000000000000000000000 000000000000000A000000000000000000000000000000000000000000000 000000000000000000000000000000000000000     00000000                                                                                                                        000000000000000000
F0010000006228000004000086000089600023658300000000000000000201409040002001SIKA COLOMBIA S.A.                                C000000000191900000000000000000000100010010000000000000000000000F0010000006228000420140904000101 00000000000000000000000000000000000000000000000000000000000000000000000000000000000000000000000000000000000000000N 00000000000NCONT   00    00000000000          00000000000000000000000000000000000000000000 000000000000000A000000000000000000000000000000000000000000000 000000000000000000000000000000000000000     00000000                                                                                                                        000000000000000000
F0010000006228000005000086000089600013552100000000000000000201409040002001SIKA COLOMBIA S.A.                                D000000000191900000000000000000000100010010000000000000000000000F0010000006228000520140904000101 00000000000000000000000000000000000000000000000000000000000000000000000000000000000000000000000000000000000000000N 00000000000NCONT   00    00000000000          00000000000000000000000000000000000000000000 000000000000000A000000000000000000000000000000000000000000000 000000000000000000000000000000000000000     00000000                                                                                                                        000000000000000000
F0010000006228100001000112957894900011050500000000000000000201409040002001MANUEL LOPEZ AMELL                                D000000002000000000000000000000000100010010000000000000000000000F0010000006228100120140904000101 00000000000000000000000000000000000000000000000000000000000000000000000000000000000000000000000000000000000000000N 00000000000NCONT   00    00000000000          00000000000000000000000000000000000000000000 000000000000000A000000000000000000000000000000000000000000000 000000000000000000000000000000000000000     00000000                                                                                                                        000000000000000000
F0010000006228100002000112957894900041450500000000000000000201409040002001MANUEL LOPEZ AMELL                                C000000001000000000000000000000000100010010000000000000000000000F0010000006228100220140904000101 00000000000000000000000000000000000000000000000000000000000000000000000000000000000000000000000000000000000000000N 00000000000NCONT   00    00000000000          00000000000000000000000000000000000000000000 000000000000000A000000000000000000000000000000000000000000000 000000000000000000000000000000000000000     00000000                                                                                                                        000000000000000000
F0010000006228100003000112957894900042505000000000000000000201409040002001MANUEL LOPEZ AMELL                                C000000001000000000000000000000000100010010000000000000000000000F0010000006228100320140904000101 00000000000000000000000000000000000000000000000000000000000000000000000000000000000000000000000000000000000000000N 00000000000NCONT   00    00000000000          00000000000000000000000000000000000000000000 000000000000000A000000000000000000000000000000000000000000000 000000000000000000000000000000000000000     00000000                                                                                                                        000000000000000000
F0010000006228100004000112957894900023658300000000000000000201409040002001MANUEL LOPEZ AMELL                                C000000000008000000000000000000000100010010000000000000000000000F0010000006228100420140904000101 00000000000000000000000000000000000000000000000000000000000000000000000000000000000000000000000000000000000000000N 00000000000NCONT   00    00000000000          00000000000000000000000000000000000000000000 000000000000000A000000000000000000000000000000000000000000000 000000000000000000000000000000000000000     00000000                                                                                                                        000000000000000000
F0010000006228100005000112957894900013552100000000000000000201409040002001MANUEL LOPEZ AMELL                                D000000000008000000000000000000000100010010000000000000000000000F0010000006228100520140904000101 00000000000000000000000000000000000000000000000000000000000000000000000000000000000000000000000000000000000000000N 00000000000NCONT   00    00000000000          00000000000000000000000000000000000000000000 000000000000000A000000000000000000000000000000000000000000000 000000000000000000000000000000000000000     00000000                                                                                                                        000000000000000000
F0010000006228200001000000849819400011050500000000000000000201409040002001MARCOS POLO SILVERA                               D000000001150000000000000000000000100010010000000000000000000000F0010000006228200120140904000101 00000000000000000000000000000000000000000000000000000000000000000000000000000000000000000000000000000000000000000N 00000000000NCONT   00    00000000000          00000000000000000000000000000000000000000000 000000000000000A000000000000000000000000000000000000000000000 000000000000000000000000000000000000000     00000000                                                                                                                        000000000000000000
F0010000006228200002000000849819400041450500000000000000000201409040002001MARCOS POLO SILVERA                               C000000001000000000000000000000000100010010000000000000000000000F0010000006228200220140904000101 00000000000000000000000000000000000000000000000000000000000000000000000000000000000000000000000000000000000000000N 00000000000NCONT   00    00000000000          00000000000000000000000000000000000000000000 000000000000000A000000000000000000000000000000000000000000000 000000000000000000000000000000000000000     00000000                                                                                                                        000000000000000000
F0010000006228200003000000849819400042505000000000000000000201409040002001MARCOS POLO SILVERA                               C000000000150000000000000000000000100010010000000000000000000000F0010000006228200320140904000101 00000000000000000000000000000000000000000000000000000000000000000000000000000000000000000000000000000000000000000N 00000000000NCONT   00    00000000000          00000000000000000000000000000000000000000000 000000000000000A000000000000000000000000000000000000000000000 000000000000000000000000000000000000000     00000000                                                                                                                        000000000000000000
F0010000006228200004000000849819400023658300000000000000000201409040002001MARCOS POLO SILVERA                               C000000000008000000000000000000000100010010000000000000000000000F0010000006228200420140904000101 00000000000000000000000000000000000000000000000000000000000000000000000000000000000000000000000000000000000000000N 00000000000NCONT   00    00000000000          00000000000000000000000000000000000000000000 000000000000000A000000000000000000000000000000000000000000000 000000000000000000000000000000000000000     00000000                                                                                                                        000000000000000000
F0010000006228200005000000849819400013552100000000000000000201409040002001MARCOS POLO SILVERA                               D000000000008000000000000000000000100010010000000000000000000000F0010000006228200520140904000101 00000000000000000000000000000000000000000000000000000000000000000000000000000000000000000000000000000000000000000N 00000000000NCONT   00    00000000000          00000000000000000000000000000000000000000000 000000000000000A000000000000000000000000000000000000000000000 000000000000000000000000000000000000000     00000000                                                                                                                        000000000000000000
F0010000006228300001000086006706200011050500000000000000000201409040002001FERROALUMINIOS S.A.S.                             D000000016000000000000000000000000100010010000000000000000000000F0010000006228300120140904000101 00000000000000000000000000000000000000000000000000000000000000000000000000000000000000000000000000000000000000000N 00000000000NCONT   00    00000000000          00000000000000000000000000000000000000000000 000000000000000A000000000000000000000000000000000000000000000 000000000000000000000000000000000000000     00000000                                                                                                                        000000000000000000
F0010000006228300002000086006706200041450500000000000000000201409040002001FERROALUMINIOS S.A.S.                             C000000015000000000000000000000000100010010000000000000000000000F0010000006228300220140904000101 00000000000000000000000000000000000000000000000000000000000000000000000000000000000000000000000000000000000000000N 00000000000NCONT   00    00000000000          00000000000000000000000000000000000000000000 000000000000000A000000000000000000000000000000000000000000000 000000000000000000000000000000000000000     00000000                                                                                                                        000000000000000000
F0010000006228300003000086006706200042505000000000000000000201409040002001FERROALUMINIOS S.A.S.                             C000000001000000000000000000000000100010010000000000000000000000F0010000006228300320140904000101 00000000000000000000000000000000000000000000000000000000000000000000000000000000000000000000000000000000000000000N 00000000000NCONT   00    00000000000          00000000000000000000000000000000000000000000 000000000000000A000000000000000000000000000000000000000000000 000000000000000000000000000000000000000     00000000                                                                                                                        000000000000000000
F0010000006228300004000086006706200023658300000000000000000201409040002001FERROALUMINIOS S.A.S.                             C000000000120000000000000000000000100010010000000000000000000000F0010000006228300420140904000101 00000000000000000000000000000000000000000000000000000000000000000000000000000000000000000000000000000000000000000N 00000000000NCONT   00    00000000000          00000000000000000000000000000000000000000000 000000000000000A000000000000000000000000000000000000000000000 000000000000000000000000000000000000000     00000000                                                                                                                        000000000000000000
F0010000006228300005000086006706200013552100000000000000000201409040002001FERROALUMINIOS S.A.S.                             D000000000120000000000000000000000100010010000000000000000000000F0010000006228300520140904000101 00000000000000000000000000000000000000000000000000000000000000000000000000000000000000000000000000000000000000000N 00000000000NCONT   00    00000000000          00000000000000000000000000000000000000000000 000000000000000A000000000000000000000000000000000000000000000 000000000000000000000000000000000000000     00000000                                                                                                                        000000000000000000
F0010000006228400001000083050133900011050500000000000000000201409040002001VALTAC DEL CARIBE LTDA                            D000000015000000000000000000000000100010010000000000000000000000F0010000006228400120140904000101 00000000000000000000000000000000000000000000000000000000000000000000000000000000000000000000000000000000000000000N 00000000000NCONT   00    00000000000          00000000000000000000000000000000000000000000 000000000000000A000000000000000000000000000000000000000000000 000000000000000000000000000000000000000     00000000                                                                                                                        000000000000000000
F0010000006228400002000083050133900041450500000000000000000201409040002001VALTAC DEL CARIBE LTDA                            C000000014500000000000000000000000100010010000000000000000000000F0010000006228400220140904000101 00000000000000000000000000000000000000000000000000000000000000000000000000000000000000000000000000000000000000000N 00000000000NCONT   00    00000000000          00000000000000000000000000000000000000000000 000000000000000A000000000000000000000000000000000000000000000 000000000000000000000000000000000000000     00000000                                                                                                                        000000000000000000
F0010000006228400003000083050133900042505000000000000000000201409040002001VALTAC DEL CARIBE LTDA                            C000000000500000000000000000000000100010010000000000000000000000F0010000006228400320140904000101 00000000000000000000000000000000000000000000000000000000000000000000000000000000000000000000000000000000000000000N 00000000000NCONT   00    00000000000          00000000000000000000000000000000000000000000 000000000000000A000000000000000000000000000000000000000000000 000000000000000000000000000000000000000     00000000                                                                                                                        000000000000000000
F0010000006228400004000083050133900023658300000000000000000201409040002001VALTAC DEL CARIBE LTDA                            C000000000116000000000000000000000100010010000000000000000000000F0010000006228400420140904000101 00000000000000000000000000000000000000000000000000000000000000000000000000000000000000000000000000000000000000000N 00000000000NCONT   00    00000000000          00000000000000000000000000000000000000000000 000000000000000A000000000000000000000000000000000000000000000 000000000000000000000000000000000000000     00000000                                                                                                                        000000000000000000
F0010000006228400005000083050133900013552100000000000000000201409040002001VALTAC DEL CARIBE LTDA                            D000000000116000000000000000000000100010010000000000000000000000F0010000006228400520140904000101 00000000000000000000000000000000000000000000000000000000000000000000000000000000000000000000000000000000000000000N 00000000000NCONT   00    00000000000          00000000000000000000000000000000000000000000 000000000000000A000000000000000000000000000000000000000000000 000000000000000000000000000000000000000     00000000                                                                                                                        000000000000000000
F0010000006228500001000000808409100011050500000000000000000201409040002001JOSE LUIS TRILLOS BAYONA                          D000000001900000000000000000000000100010010000000000000000000000F0010000006228500120140904000101 00000000000000000000000000000000000000000000000000000000000000000000000000000000000000000000000000000000000000000N 00000000000NCONT   00    00000000000          00000000000000000000000000000000000000000000 000000000000000A000000000000000000000000000000000000000000000 000000000000000000000000000000000000000     00000000                                                                                                                        000000000000000000
F0010000006228500002000000808409100041450500000000000000000201409040002001JOSE LUIS TRILLOS BAYONA                          C000000001800000000000000000000000100010010000000000000000000000F0010000006228500220140904000101 00000000000000000000000000000000000000000000000000000000000000000000000000000000000000000000000000000000000000000N 00000000000NCONT   00    00000000000          00000000000000000000000000000000000000000000 000000000000000A000000000000000000000000000000000000000000000 000000000000000000000000000000000000000     00000000                                                                                                                        000000000000000000
F0010000006228500003000000808409100042505000000000000000000201409040002001JOSE LUIS TRILLOS BAYONA                          C000000000100000000000000000000000100010010000000000000000000000F0010000006228500320140904000101 00000000000000000000000000000000000000000000000000000000000000000000000000000000000000000000000000000000000000000N 00000000000NCONT   00    00000000000          00000000000000000000000000000000000000000000 000000000000000A000000000000000000000000000000000000000000000 000000000000000000000000000000000000000     00000000                                                                                                                        000000000000000000
F0010000006228500004000000808409100023658300000000000000000201409040002001JOSE LUIS TRILLOS BAYONA                          C000000000014400000000000000000000100010010000000000000000000000F0010000006228500420140904000101 00000000000000000000000000000000000000000000000000000000000000000000000000000000000000000000000000000000000000000N 00000000000NCONT   00    00000000000          00000000000000000000000000000000000000000000 000000000000000A000000000000000000000000000000000000000000000 000000000000000000000000000000000000000     00000000                                                                                                                        000000000000000000
F0010000006228500005000000808409100013552100000000000000000201409040002001JOSE LUIS TRILLOS BAYONA                          D000000000014400000000000000000000100010010000000000000000000000F0010000006228500520140904000101 00000000000000000000000000000000000000000000000000000000000000000000000000000000000000000000000000000000000000000N 00000000000NCONT   00    00000000000          00000000000000000000000000000000000000000000 000000000000000A000000000000000000000000000000000000000000000 000000000000000000000000000000000000000     00000000                                                                                                                        000000000000000000
F0010000006228600001000080012418800011050500000000000000000201409040002001DISTRITEC S.A.S                                   D000000000920000000000000000000000100010010000000000000000000000F0010000006228600120140904000101 00000000000000000000000000000000000000000000000000000000000000000000000000000000000000000000000000000000000000000N 00000000000NCONT   00    00000000000          00000000000000000000000000000000000000000000 000000000000000A000000000000000000000000000000000000000000000 000000000000000000000000000000000000000     00000000                                                                                                                        000000000000000000
F0010000006228600002000080012418800041450500000000000000000201409040002001DISTRITEC S.A.S                                   C000000000850000000000000000000000100010010000000000000000000000F0010000006228600220140904000101 00000000000000000000000000000000000000000000000000000000000000000000000000000000000000000000000000000000000000000N 00000000000NCONT   00    00000000000          00000000000000000000000000000000000000000000 000000000000000A000000000000000000000000000000000000000000000 000000000000000000000000000000000000000     00000000                                                                                                                        000000000000000000
F0010000006228600003000080012418800042505000000000000000000201409040002001DISTRITEC S.A.S                                   C000000000070000000000000000000000100010010000000000000000000000F0010000006228600320140904000101 00000000000000000000000000000000000000000000000000000000000000000000000000000000000000000000000000000000000000000N 00000000000NCONT   00    00000000000          00000000000000000000000000000000000000000000 000000000000000A000000000000000000000000000000000000000000000 000000000000000000000000000000000000000     00000000                                                                                                                        000000000000000000
F0010000006228600004000080012418800023658300000000000000000201409040002001DISTRITEC S.A.S                                   C000000000006800000000000000000000100010010000000000000000000000F0010000006228600420140904000101 00000000000000000000000000000000000000000000000000000000000000000000000000000000000000000000000000000000000000000N 00000000000NCONT   00    00000000000          00000000000000000000000000000000000000000000 000000000000000A000000000000000000000000000000000000000000000 000000000000000000000000000000000000000     00000000                                                                                                                        000000000000000000
F0010000006228600005000080012418800013552100000000000000000201409040002001DISTRITEC S.A.S                                   D000000000006800000000000000000000100010010000000000000000000000F0010000006228600520140904000101 00000000000000000000000000000000000000000000000000000000000000000000000000000000000000000000000000000000000000000N 00000000000NCONT   00    00000000000          00000000000000000000000000000000000000000000 000000000000000A000000000000000000000000000000000000000000000 000000000000000000000000000000000000000     00000000                                                                                                                        000000000000000000
F0010000006228700001000000860054200011050500000000000000000201409040002001HENRY DE LA HOZ                                   D000000002800000000000000000000000100010010000000000000000000000F0010000006228700120140904000101 00000000000000000000000000000000000000000000000000000000000000000000000000000000000000000000000000000000000000000N 00000000000NCONT   00    00000000000          00000000000000000000000000000000000000000000 000000000000000A000000000000000000000000000000000000000000000 000000000000000000000000000000000000000     00000000                                                                                                                        000000000000000000
F0010000006228700002000000860054200041450500000000000000000201409040002001HENRY DE LA HOZ                                   C000000002400000000000000000000000100010010000000000000000000000F0010000006228700220140904000101 00000000000000000000000000000000000000000000000000000000000000000000000000000000000000000000000000000000000000000N 00000000000NCONT   00    00000000000          00000000000000000000000000000000000000000000 000000000000000A000000000000000000000000000000000000000000000 000000000000000000000000000000000000000     00000000                                                                                                                        000000000000000000
F0010000006228700003000000860054200042505000000000000000000201409040002001HENRY DE LA HOZ                                   C000000000400000000000000000000000100010010000000000000000000000F0010000006228700320140904000101 00000000000000000000000000000000000000000000000000000000000000000000000000000000000000000000000000000000000000000N 00000000000NCONT   00    00000000000          00000000000000000000000000000000000000000000 000000000000000A000000000000000000000000000000000000000000000 000000000000000000000000000000000000000     00000000                                                                                                                        000000000000000000
F0010000006228700004000000860054200023658300000000000000000201409040002001HENRY DE LA HOZ                                   C000000000019200000000000000000000100010010000000000000000000000F0010000006228700420140904000101 00000000000000000000000000000000000000000000000000000000000000000000000000000000000000000000000000000000000000000N 00000000000NCONT   00    00000000000          00000000000000000000000000000000000000000000 000000000000000A000000000000000000000000000000000000000000000 000000000000000000000000000000000000000     00000000                                                                                                                        000000000000000000
F0010000006228700005000000860054200013552100000000000000000201409040002001HENRY DE LA HOZ                                   D000000000019200000000000000000000100010010000000000000000000000F0010000006228700520140904000101 00000000000000000000000000000000000000000000000000000000000000000000000000000000000000000000000000000000000000000N 00000000000NCONT   00    00000000000          00000000000000000000000000000000000000000000 000000000000000A000000000000000000000000000000000000000000000 000000000000000000000000000000000000000     00000000                                                                                                                        000000000000000000
F0010000006228800001000000860054200011050500000000000000000201409040002001HENRY DE LA HOZ                                   D000000002500000000000000000000000100010010000000000000000000000F0010000006228800120140904000101 00000000000000000000000000000000000000000000000000000000000000000000000000000000000000000000000000000000000000000N 00000000000NCONT   00    00000000000          00000000000000000000000000000000000000000000 000000000000000A000000000000000000000000000000000000000000000 000000000000000000000000000000000000000     00000000                                                                                                                        000000000000000000
F0010000006228800002000000860054200041450500000000000000000201409040002001HENRY DE LA HOZ                                   C000000002300000000000000000000000100010010000000000000000000000F0010000006228800220140904000101 00000000000000000000000000000000000000000000000000000000000000000000000000000000000000000000000000000000000000000N 00000000000NCONT   00    00000000000          00000000000000000000000000000000000000000000 000000000000000A000000000000000000000000000000000000000000000 000000000000000000000000000000000000000     00000000                                                                                                                        000000000000000000
F0010000006228800003000000860054200042505000000000000000000201409040002001HENRY DE LA HOZ                                   C000000000200000000000000000000000100010010000000000000000000000F0010000006228800320140904000101 00000000000000000000000000000000000000000000000000000000000000000000000000000000000000000000000000000000000000000N 00000000000NCONT   00    00000000000          00000000000000000000000000000000000000000000 000000000000000A000000000000000000000000000000000000000000000 000000000000000000000000000000000000000     00000000                                                                                                                        000000000000000000
F0010000006228800004000000860054200023658300000000000000000201409040002001HENRY DE LA HOZ                                   C000000000018400000000000000000000100010010000000000000000000000F0010000006228800420140904000101 00000000000000000000000000000000000000000000000000000000000000000000000000000000000000000000000000000000000000000N 00000000000NCONT   00    00000000000          00000000000000000000000000000000000000000000 000000000000000A000000000000000000000000000000000000000000000 000000000000000000000000000000000000000     00000000                                                                                                                        000000000000000000
F0010000006228800005000000860054200013552100000000000000000201409040002001HENRY DE LA HOZ                                   D000000000018400000000000000000000100010010000000000000000000000F0010000006228800520140904000101 00000000000000000000000000000000000000000000000000000000000000000000000000000000000000000000000000000000000000000N 00000000000NCONT   00    00000000000          00000000000000000000000000000000000000000000 000000000000000A000000000000000000000000000000000000000000000 000000000000000000000000000000000000000     00000000                                                                                                                        000000000000000000
F0010000006228900001000007904689600011050500000000000000000201409040002001VICTOR MANUEL BOCANEGRA RAMIREZ                   D000000002000000000000000000000000100010010000000000000000000000F0010000006228900120140904000101 00000000000000000000000000000000000000000000000000000000000000000000000000000000000000000000000000000000000000000N 00000000000NCONT   00    00000000000          00000000000000000000000000000000000000000000 000000000000000A000000000000000000000000000000000000000000000 000000000000000000000000000000000000000     00000000                                                                                                                        000000000000000000
F0010000006228900002000007904689600041450500000000000000000201409040002001VICTOR MANUEL BOCANEGRA RAMIREZ                   C000000001800000000000000000000000100010010000000000000000000000F0010000006228900220140904000101 00000000000000000000000000000000000000000000000000000000000000000000000000000000000000000000000000000000000000000N 00000000000NCONT   00    00000000000          00000000000000000000000000000000000000000000 000000000000000A000000000000000000000000000000000000000000000 000000000000000000000000000000000000000     00000000                                                                                                                        000000000000000000
F0010000006228900003000007904689600042505000000000000000000201409040002001VICTOR MANUEL BOCANEGRA RAMIREZ                   C000000000200000000000000000000000100010010000000000000000000000F0010000006228900320140904000101 00000000000000000000000000000000000000000000000000000000000000000000000000000000000000000000000000000000000000000N 00000000000NCONT   00    00000000000          00000000000000000000000000000000000000000000 000000000000000A000000000000000000000000000000000000000000000 000000000000000000000000000000000000000     00000000                                                                                                                        000000000000000000
F0010000006228900004000007904689600023658300000000000000000201409040002001VICTOR MANUEL BOCANEGRA RAMIREZ                   C000000000014400000000000000000000100010010000000000000000000000F0010000006228900420140904000101 00000000000000000000000000000000000000000000000000000000000000000000000000000000000000000000000000000000000000000N 00000000000NCONT   00    00000000000          00000000000000000000000000000000000000000000 000000000000000A000000000000000000000000000000000000000000000 000000000000000000000000000000000000000     00000000                                                                                                                        000000000000000000
F0010000006228900005000007904689600013552100000000000000000201409040002001VICTOR MANUEL BOCANEGRA RAMIREZ                   D000000000014400000000000000000000100010010000000000000000000000F0010000006228900520140904000101 00000000000000000000000000000000000000000000000000000000000000000000000000000000000000000000000000000000000000000N 00000000000NCONT   00    00000000000          00000000000000000000000000000000000000000000 000000000000000A000000000000000000000000000000000000000000000 000000000000000000000000000000000000000     00000000                                                                                                                        000000000000000000
F0010000006229000001000007904689600011050500000000000000000201409040002001VICTOR MANUEL BOCANEGRA RAMIREZ                   D000000002600000000000000000000000100010010000000000000000000000F0010000006229000120140904000101 00000000000000000000000000000000000000000000000000000000000000000000000000000000000000000000000000000000000000000N 00000000000NCONT   00    00000000000          00000000000000000000000000000000000000000000 000000000000000A000000000000000000000000000000000000000000000 000000000000000000000000000000000000000     00000000                                                                                                                        000000000000000000
F0010000006229000002000007904689600041450500000000000000000201409040002001VICTOR MANUEL BOCANEGRA RAMIREZ                   C000000002400000000000000000000000100010010000000000000000000000F0010000006229000220140904000101 00000000000000000000000000000000000000000000000000000000000000000000000000000000000000000000000000000000000000000N 00000000000NCONT   00    00000000000          00000000000000000000000000000000000000000000 000000000000000A000000000000000000000000000000000000000000000 000000000000000000000000000000000000000     00000000                                                                                                                        000000000000000000
F0010000006229000003000007904689600042505000000000000000000201409040002001VICTOR MANUEL BOCANEGRA RAMIREZ                   C000000000200000000000000000000000100010010000000000000000000000F0010000006229000320140904000101 00000000000000000000000000000000000000000000000000000000000000000000000000000000000000000000000000000000000000000N 00000000000NCONT   00    00000000000          00000000000000000000000000000000000000000000 000000000000000A000000000000000000000000000000000000000000000 000000000000000000000000000000000000000     00000000                                                                                                                        000000000000000000
F0010000006229000004000007904689600023658300000000000000000201409040002001VICTOR MANUEL BOCANEGRA RAMIREZ                   C000000000019200000000000000000000100010010000000000000000000000F0010000006229000420140904000101 00000000000000000000000000000000000000000000000000000000000000000000000000000000000000000000000000000000000000000N 00000000000NCONT   00    00000000000          00000000000000000000000000000000000000000000 000000000000000A000000000000000000000000000000000000000000000 000000000000000000000000000000000000000     00000000                                                                                                                        000000000000000000
F0010000006229000005000007904689600013552100000000000000000201409040002001VICTOR MANUEL BOCANEGRA RAMIREZ                   D000000000019200000000000000000000100010010000000000000000000000F0010000006229000520140904000101 00000000000000000000000000000000000000000000000000000000000000000000000000000000000000000000000000000000000000000N 00000000000NCONT   00    00000000000          00000000000000000000000000000000000000000000 000000000000000A000000000000000000000000000000000000000000000 000000000000000000000000000000000000000     00000000                                                                                                                        000000000000000000
F0010000006229100001000007904689600011050500000000000000000201409040002001VICTOR MANUEL BOCANEGRA RAMIREZ                   D000000001000000000000000000000000100010010000000000000000000000F0010000006229100120140904000101 00000000000000000000000000000000000000000000000000000000000000000000000000000000000000000000000000000000000000000N 00000000000NCONT   00    00000000000          00000000000000000000000000000000000000000000 000000000000000A000000000000000000000000000000000000000000000 000000000000000000000000000000000000000     00000000                                                                                                                        000000000000000000
F0010000006229100002000007904689600041450500000000000000000201409040002001VICTOR MANUEL BOCANEGRA RAMIREZ                   C000000000900000000000000000000000100010010000000000000000000000F0010000006229100220140904000101 00000000000000000000000000000000000000000000000000000000000000000000000000000000000000000000000000000000000000000N 00000000000NCONT   00    00000000000          00000000000000000000000000000000000000000000 000000000000000A000000000000000000000000000000000000000000000 000000000000000000000000000000000000000     00000000                                                                                                                        000000000000000000
F0010000006229100003000007904689600042505000000000000000000201409040002001VICTOR MANUEL BOCANEGRA RAMIREZ                   C000000000100000000000000000000000100010010000000000000000000000F0010000006229100320140904000101 00000000000000000000000000000000000000000000000000000000000000000000000000000000000000000000000000000000000000000N 00000000000NCONT   00    00000000000          00000000000000000000000000000000000000000000 000000000000000A000000000000000000000000000000000000000000000 000000000000000000000000000000000000000     00000000                                                                                                                        000000000000000000
F0010000006229100004000007904689600023658300000000000000000201409040002001VICTOR MANUEL BOCANEGRA RAMIREZ                   C000000000007200000000000000000000100010010000000000000000000000F0010000006229100420140904000101 00000000000000000000000000000000000000000000000000000000000000000000000000000000000000000000000000000000000000000N 00000000000NCONT   00    00000000000          00000000000000000000000000000000000000000000 000000000000000A000000000000000000000000000000000000000000000 000000000000000000000000000000000000000     00000000                                                                                                                        000000000000000000
F0010000006229100005000007904689600013552100000000000000000201409040002001VICTOR MANUEL BOCANEGRA RAMIREZ                   D000000000007200000000000000000000100010010000000000000000000000F0010000006229100520140904000101 00000000000000000000000000000000000000000000000000000000000000000000000000000000000000000000000000000000000000000N 00000000000NCONT   00    00000000000          00000000000000000000000000000000000000000000 000000000000000A000000000000000000000000000000000000000000000 000000000000000000000000000000000000000     00000000                                                                                                                        000000000000000000
F0010000006229200001000007904689600011050500000000000000000201409040002001VICTOR MANUEL BOCANEGRA RAMIREZ                   D000000001000000000000000000000000100010010000000000000000000000F0010000006229200120140904000101 00000000000000000000000000000000000000000000000000000000000000000000000000000000000000000000000000000000000000000N 00000000000NCONT   00    00000000000          00000000000000000000000000000000000000000000 000000000000000A000000000000000000000000000000000000000000000 000000000000000000000000000000000000000     00000000                                                                                                                        000000000000000000
F0010000006229200002000007904689600041450500000000000000000201409040002001VICTOR MANUEL BOCANEGRA RAMIREZ                   C000000000900000000000000000000000100010010000000000000000000000F0010000006229200220140904000101 00000000000000000000000000000000000000000000000000000000000000000000000000000000000000000000000000000000000000000N 00000000000NCONT   00    00000000000          00000000000000000000000000000000000000000000 000000000000000A000000000000000000000000000000000000000000000 000000000000000000000000000000000000000     00000000                                                                                                                        000000000000000000
F0010000006229200003000007904689600042505000000000000000000201409040002001VICTOR MANUEL BOCANEGRA RAMIREZ                   C000000000100000000000000000000000100010010000000000000000000000F0010000006229200320140904000101 00000000000000000000000000000000000000000000000000000000000000000000000000000000000000000000000000000000000000000N 00000000000NCONT   00    00000000000          00000000000000000000000000000000000000000000 000000000000000A000000000000000000000000000000000000000000000 000000000000000000000000000000000000000     00000000                                                                                                                        000000000000000000
F0010000006229200004000007904689600023658300000000000000000201409040002001VICTOR MANUEL BOCANEGRA RAMIREZ                   C000000000007200000000000000000000100010010000000000000000000000F0010000006229200420140904000101 00000000000000000000000000000000000000000000000000000000000000000000000000000000000000000000000000000000000000000N 00000000000NCONT   00    00000000000          00000000000000000000000000000000000000000000 000000000000000A000000000000000000000000000000000000000000000 000000000000000000000000000000000000000     00000000                                                                                                                        000000000000000000
F0010000006229200005000007904689600013552100000000000000000201409040002001VICTOR MANUEL BOCANEGRA RAMIREZ                   D000000000007200000000000000000000100010010000000000000000000000F0010000006229200520140904000101 00000000000000000000000000000000000000000000000000000000000000000000000000000000000000000000000000000000000000000N 00000000000NCONT   00    00000000000          00000000000000000000000000000000000000000000 000000000000000A000000000000000000000000000000000000000000000 000000000000000000000000000000000000000     00000000                                                                                                                        000000000000000000
F0010000006229300001000090050144800011050500000000000000000201409040002001PLASTICOS JR ASOCIADOS SAS                        D000000002900000000000000000000000100010010000000000000000000000F0010000006229300120140904000101 00000000000000000000000000000000000000000000000000000000000000000000000000000000000000000000000000000000000000000N 00000000000NCONT   00    00000000000          00000000000000000000000000000000000000000000 000000000000000A000000000000000000000000000000000000000000000 000000000000000000000000000000000000000     00000000                                                                                                                        000000000000000000
F0010000006229300002000090050144800041450500000000000000000201409040002001PLASTICOS JR ASOCIADOS SAS                        C000000002600000000000000000000000100010010000000000000000000000F0010000006229300220140904000101 00000000000000000000000000000000000000000000000000000000000000000000000000000000000000000000000000000000000000000N 00000000000NCONT   00    00000000000          00000000000000000000000000000000000000000000 000000000000000A000000000000000000000000000000000000000000000 000000000000000000000000000000000000000     00000000                                                                                                                        000000000000000000
F0010000006229300003000090050144800042505000000000000000000201409040002001PLASTICOS JR ASOCIADOS SAS                        C000000000300000000000000000000000100010010000000000000000000000F0010000006229300320140904000101 00000000000000000000000000000000000000000000000000000000000000000000000000000000000000000000000000000000000000000N 00000000000NCONT   00    00000000000          00000000000000000000000000000000000000000000 000000000000000A000000000000000000000000000000000000000000000 000000000000000000000000000000000000000     00000000                                                                                                                        000000000000000000
F0010000006229300004000090050144800023658300000000000000000201409040002001PLASTICOS JR ASOCIADOS SAS                        C000000000020800000000000000000000100010010000000000000000000000F0010000006229300420140904000101 00000000000000000000000000000000000000000000000000000000000000000000000000000000000000000000000000000000000000000N 00000000000NCONT   00    00000000000          00000000000000000000000000000000000000000000 000000000000000A000000000000000000000000000000000000000000000 000000000000000000000000000000000000000     00000000                                                                                                                        000000000000000000
F0010000006229300005000090050144800013552100000000000000000201409040002001PLASTICOS JR ASOCIADOS SAS                        D000000000020800000000000000000000100010010000000000000000000000F0010000006229300520140904000101 00000000000000000000000000000000000000000000000000000000000000000000000000000000000000000000000000000000000000000N 00000000000NCONT   00    00000000000          00000000000000000000000000000000000000000000 000000000000000A000000000000000000000000000000000000000000000 000000000000000000000000000000000000000     00000000                                                                                                                        000000000000000000
F0010000006229400001000090034602400011050500000000000000000201409040002001LA CUSTODIA                                       D000000001000000000000000000000000100010010000000000000000000000F0010000006229400120140904000101 00000000000000000000000000000000000000000000000000000000000000000000000000000000000000000000000000000000000000000N 00000000000NCONT   00    00000000000          00000000000000000000000000000000000000000000 000000000000000A000000000000000000000000000000000000000000000 000000000000000000000000000000000000000     00000000                                                                                                                        000000000000000000
F0010000006229400002000090034602400041450500000000000000000201409040002001LA CUSTODIA                                       C000000000900000000000000000000000100010010000000000000000000000F0010000006229400220140904000101 00000000000000000000000000000000000000000000000000000000000000000000000000000000000000000000000000000000000000000N 00000000000NCONT   00    00000000000          00000000000000000000000000000000000000000000 000000000000000A000000000000000000000000000000000000000000000 000000000000000000000000000000000000000     00000000                                                                                                                        000000000000000000
F0010000006229400003000090034602400042505000000000000000000201409040002001LA CUSTODIA                                       C000000000100000000000000000000000100010010000000000000000000000F0010000006229400320140904000101 00000000000000000000000000000000000000000000000000000000000000000000000000000000000000000000000000000000000000000N 00000000000NCONT   00    00000000000          00000000000000000000000000000000000000000000 000000000000000A000000000000000000000000000000000000000000000 000000000000000000000000000000000000000     00000000                                                                                                                        000000000000000000
F0010000006229400004000090034602400023658300000000000000000201409040002001LA CUSTODIA                                       C000000000007200000000000000000000100010010000000000000000000000F0010000006229400420140904000101 00000000000000000000000000000000000000000000000000000000000000000000000000000000000000000000000000000000000000000N 00000000000NCONT   00    00000000000          00000000000000000000000000000000000000000000 000000000000000A000000000000000000000000000000000000000000000 000000000000000000000000000000000000000     00000000                                                                                                                        000000000000000000
F0010000006229400005000090034602400013552100000000000000000201409040002001LA CUSTODIA                                       D000000000007200000000000000000000100010010000000000000000000000F0010000006229400520140904000101 00000000000000000000000000000000000000000000000000000000000000000000000000000000000000000000000000000000000000000N 00000000000NCONT   00    00000000000          00000000000000000000000000000000000000000000 000000000000000A000000000000000000000000000000000000000000000 000000000000000000000000000000000000000     00000000                                                                                                                        000000000000000000
F0010000006229500001000005525050200011050500000000000000000201409040002001PLASTICOS  DE LA COSTA                            D000000003050000000000000000000000100010010000000000000000000000F0010000006229500120140904000101 00000000000000000000000000000000000000000000000000000000000000000000000000000000000000000000000000000000000000000N 00000000000NCONT   00    00000000000          00000000000000000000000000000000000000000000 000000000000000A000000000000000000000000000000000000000000000 000000000000000000000000000000000000000     00000000                                                                                                                        000000000000000000
F0010000006229500002000005525050200041450500000000000000000201409040002001PLASTICOS  DE LA COSTA                            C000000002950000000000000000000000100010010000000000000000000000F0010000006229500220140904000101 00000000000000000000000000000000000000000000000000000000000000000000000000000000000000000000000000000000000000000N 00000000000NCONT   00    00000000000          00000000000000000000000000000000000000000000 000000000000000A000000000000000000000000000000000000000000000 000000000000000000000000000000000000000     00000000                                                                                                                        000000000000000000
F0010000006229500003000005525050200042505000000000000000000201409040002001PLASTICOS  DE LA COSTA                            C000000000100000000000000000000000100010010000000000000000000000F0010000006229500320140904000101 00000000000000000000000000000000000000000000000000000000000000000000000000000000000000000000000000000000000000000N 00000000000NCONT   00    00000000000          00000000000000000000000000000000000000000000 000000000000000A000000000000000000000000000000000000000000000 000000000000000000000000000000000000000     00000000                                                                                                                        000000000000000000
F0010000006229500004000005525050200023658300000000000000000201409040002001PLASTICOS  DE LA COSTA                            C000000000023600000000000000000000100010010000000000000000000000F0010000006229500420140904000101 00000000000000000000000000000000000000000000000000000000000000000000000000000000000000000000000000000000000000000N 00000000000NCONT   00    00000000000          00000000000000000000000000000000000000000000 000000000000000A000000000000000000000000000000000000000000000 000000000000000000000000000000000000000     00000000                                                                                                                        000000000000000000
F0010000006229500005000005525050200013552100000000000000000201409040002001PLASTICOS  DE LA COSTA                            D000000000023600000000000000000000100010010000000000000000000000F0010000006229500520140904000101 00000000000000000000000000000000000000000000000000000000000000000000000000000000000000000000000000000000000000000N 00000000000NCONT   00    00000000000          00000000000000000000000000000000000000000000 000000000000000A000000000000000000000000000000000000000000000 000000000000000000000000000000000000000     00000000                                                                                                                        000000000000000000
F0010000006229600001000007215763400011050500000000000000000201409040002001MANGUERAS E IRRIGACIONES AGRICOLAS G.F            D000000018000000000000000000000000100010010000000000000000000000F0010000006229600120140904000101 00000000000000000000000000000000000000000000000000000000000000000000000000000000000000000000000000000000000000000N 00000000000NCONT   00    00000000000          00000000000000000000000000000000000000000000 000000000000000A000000000000000000000000000000000000000000000 000000000000000000000000000000000000000     00000000                                                                                                                        000000000000000000
F0010000006229600002000007215763400041450500000000000000000201409040002001MANGUERAS E IRRIGACIONES AGRICOLAS G.F            C000000017200000000000000000000000100010010000000000000000000000F0010000006229600220140904000101 00000000000000000000000000000000000000000000000000000000000000000000000000000000000000000000000000000000000000000N 00000000000NCONT   00    00000000000          00000000000000000000000000000000000000000000 000000000000000A000000000000000000000000000000000000000000000 000000000000000000000000000000000000000     00000000                                                                                                                        000000000000000000
F0010000006229600003000007215763400042505000000000000000000201409040002001MANGUERAS E IRRIGACIONES AGRICOLAS G.F            C000000000800000000000000000000000100010010000000000000000000000F0010000006229600320140904000101 00000000000000000000000000000000000000000000000000000000000000000000000000000000000000000000000000000000000000000N 00000000000NCONT   00    00000000000          00000000000000000000000000000000000000000000 000000000000000A000000000000000000000000000000000000000000000 000000000000000000000000000000000000000     00000000                                                                                                                        000000000000000000
F0010000006229600004000007215763400023658300000000000000000201409040002001MANGUERAS E IRRIGACIONES AGRICOLAS G.F            C000000000137600000000000000000000100010010000000000000000000000F0010000006229600420140904000101 00000000000000000000000000000000000000000000000000000000000000000000000000000000000000000000000000000000000000000N 00000000000NCONT   00    00000000000          00000000000000000000000000000000000000000000 000000000000000A000000000000000000000000000000000000000000000 000000000000000000000000000000000000000     00000000                                                                                                                        000000000000000000
F0010000006229600005000007215763400013552100000000000000000201409040002001MANGUERAS E IRRIGACIONES AGRICOLAS G.F            D000000000137600000000000000000000100010010000000000000000000000F0010000006229600520140904000101 00000000000000000000000000000000000000000000000000000000000000000000000000000000000000000000000000000000000000000N 00000000000NCONT   00    00000000000          00000000000000000000000000000000000000000000 000000000000000A000000000000000000000000000000000000000000000 000000000000000000000000000000000000000     00000000                                                                                                                        000000000000000000
F0010000006229700001000090048173700011050500000000000000000201409040002001ESPECIALIDADES QUIMICAS DEL NORTE SAS             D000000000630000000000000000000000100010010000000000000000000000F0010000006229700120140904000101 00000000000000000000000000000000000000000000000000000000000000000000000000000000000000000000000000000000000000000N 00000000000NCONT   00    00000000000          00000000000000000000000000000000000000000000 000000000000000A000000000000000000000000000000000000000000000 000000000000000000000000000000000000000     00000000                                                                                                                        000000000000000000
F0010000006229700002000090048173700041450500000000000000000201409040002001ESPECIALIDADES QUIMICAS DEL NORTE SAS             C000000000330000000000000000000000100010010000000000000000000000F0010000006229700220140904000101 00000000000000000000000000000000000000000000000000000000000000000000000000000000000000000000000000000000000000000N 00000000000NCONT   00    00000000000          00000000000000000000000000000000000000000000 000000000000000A000000000000000000000000000000000000000000000 000000000000000000000000000000000000000     00000000                                                                                                                        000000000000000000
F0010000006229700003000090048173700042505000000000000000000201409040002001ESPECIALIDADES QUIMICAS DEL NORTE SAS             C000000000300000000000000000000000100010010000000000000000000000F0010000006229700320140904000101 00000000000000000000000000000000000000000000000000000000000000000000000000000000000000000000000000000000000000000N 00000000000NCONT   00    00000000000          00000000000000000000000000000000000000000000 000000000000000A000000000000000000000000000000000000000000000 000000000000000000000000000000000000000     00000000                                                                                                                        000000000000000000
F0010000006229700004000090048173700023658300000000000000000201409040002001ESPECIALIDADES QUIMICAS DEL NORTE SAS             C000000000002600000000000000000000100010010000000000000000000000F0010000006229700420140904000101 00000000000000000000000000000000000000000000000000000000000000000000000000000000000000000000000000000000000000000N 00000000000NCONT   00    00000000000          00000000000000000000000000000000000000000000 000000000000000A000000000000000000000000000000000000000000000 000000000000000000000000000000000000000     00000000                                                                                                                        000000000000000000
F0010000006229700005000090048173700013552100000000000000000201409040002001ESPECIALIDADES QUIMICAS DEL NORTE SAS             D000000000002600000000000000000000100010010000000000000000000000F0010000006229700520140904000101 00000000000000000000000000000000000000000000000000000000000000000000000000000000000000000000000000000000000000000N 00000000000NCONT   00    00000000000          00000000000000000000000000000000000000000000 000000000000000A000000000000000000000000000000000000000000000 000000000000000000000000000000000000000     00000000                                                                                                                        000000000000000000
F0010000006229800001000080200246900011050500000000000000000201409040002001BISCHOFF BETTENCOURT ARQUITECTOS                  D000000015000000000000000000000000100010010000000000000000000000F0010000006229800120140904000101 00000000000000000000000000000000000000000000000000000000000000000000000000000000000000000000000000000000000000000N 00000000000NCONT   00    00000000000          00000000000000000000000000000000000000000000 000000000000000A000000000000000000000000000000000000000000000 000000000000000000000000000000000000000     00000000                                                                                                                        000000000000000000
F0010000006229800002000080200246900041450500000000000000000201409040002001BISCHOFF BETTENCOURT ARQUITECTOS                  C000000014000000000000000000000000100010010000000000000000000000F0010000006229800220140904000101 00000000000000000000000000000000000000000000000000000000000000000000000000000000000000000000000000000000000000000N 00000000000NCONT   00    00000000000          00000000000000000000000000000000000000000000 000000000000000A000000000000000000000000000000000000000000000 000000000000000000000000000000000000000     00000000                                                                                                                        000000000000000000
F0010000006229800003000080200246900042505000000000000000000201409040002001BISCHOFF BETTENCOURT ARQUITECTOS                  C000000001000000000000000000000000100010010000000000000000000000F0010000006229800320140904000101 00000000000000000000000000000000000000000000000000000000000000000000000000000000000000000000000000000000000000000N 00000000000NCONT   00    00000000000          00000000000000000000000000000000000000000000 000000000000000A000000000000000000000000000000000000000000000 000000000000000000000000000000000000000     00000000                                                                                                                        000000000000000000
F0010000006229800004000080200246900023658300000000000000000201409040002001BISCHOFF BETTENCOURT ARQUITECTOS                  C000000000112000000000000000000000100010010000000000000000000000F0010000006229800420140904000101 00000000000000000000000000000000000000000000000000000000000000000000000000000000000000000000000000000000000000000N 00000000000NCONT   00    00000000000          00000000000000000000000000000000000000000000 000000000000000A000000000000000000000000000000000000000000000 000000000000000000000000000000000000000     00000000                                                                                                                        000000000000000000
F0010000006229800005000080200246900013552100000000000000000201409040002001BISCHOFF BETTENCOURT ARQUITECTOS                  D000000000112000000000000000000000100010010000000000000000000000F0010000006229800520140904000101 00000000000000000000000000000000000000000000000000000000000000000000000000000000000000000000000000000000000000000N 00000000000NCONT   00    00000000000          00000000000000000000000000000000000000000000 000000000000000A000000000000000000000000000000000000000000000 000000000000000000000000000000000000000     00000000                                                                                                                        000000000000000000
F0010000006229900001000090038132400011050500000000000000000201409040002001SOC.DE.COMERC.INTERN.DE PROD.IMP. Y NLS SAS       D000000025000000000000000000000000100010010000000000000000000000F0010000006229900120140904000101 00000000000000000000000000000000000000000000000000000000000000000000000000000000000000000000000000000000000000000N 00000000000NCONT   00    00000000000          00000000000000000000000000000000000000000000 000000000000000A000000000000000000000000000000000000000000000 000000000000000000000000000000000000000     00000000                                                                                                                        000000000000000000
F0010000006229900002000090038132400041450500000000000000000201409040002001SOC.DE.COMERC.INTERN.DE PROD.IMP. Y NLS SAS       C000000024200000000000000000000000100010010000000000000000000000F0010000006229900220140904000101 00000000000000000000000000000000000000000000000000000000000000000000000000000000000000000000000000000000000000000N 00000000000NCONT   00    00000000000          00000000000000000000000000000000000000000000 000000000000000A000000000000000000000000000000000000000000000 000000000000000000000000000000000000000     00000000                                                                                                                        000000000000000000
F0010000006229900003000090038132400042505000000000000000000201409040002001SOC.DE.COMERC.INTERN.DE PROD.IMP. Y NLS SAS       C000000000800000000000000000000000100010010000000000000000000000F0010000006229900320140904000101 00000000000000000000000000000000000000000000000000000000000000000000000000000000000000000000000000000000000000000N 00000000000NCONT   00    00000000000          00000000000000000000000000000000000000000000 000000000000000A000000000000000000000000000000000000000000000 000000000000000000000000000000000000000     00000000                                                                                                                        000000000000000000
F0010000006229900004000090038132400023658300000000000000000201409040002001SOC.DE.COMERC.INTERN.DE PROD.IMP. Y NLS SAS       C000000000193600000000000000000000100010010000000000000000000000F0010000006229900420140904000101 00000000000000000000000000000000000000000000000000000000000000000000000000000000000000000000000000000000000000000N 00000000000NCONT   00    00000000000          00000000000000000000000000000000000000000000 000000000000000A000000000000000000000000000000000000000000000 000000000000000000000000000000000000000     00000000                                                                                                                        000000000000000000
F0010000006229900005000090038132400013552100000000000000000201409040002001SOC.DE.COMERC.INTERN.DE PROD.IMP. Y NLS SAS       D000000000193600000000000000000000100010010000000000000000000000F0010000006229900520140904000101 00000000000000000000000000000000000000000000000000000000000000000000000000000000000000000000000000000000000000000N 00000000000NCONT   00    00000000000          00000000000000000000000000000000000000000000 000000000000000A000000000000000000000000000000000000000000000 000000000000000000000000000000000000000     00000000                                                                                                                        000000000000000000
F0010000006230000001000004249706000011050500000000000000000201409040002001ANA MERCEDES GOMEZ ALCALA                         D000000001300000000000000000000000100010010000000000000000000000F0010000006230000120140904000101 00000000000000000000000000000000000000000000000000000000000000000000000000000000000000000000000000000000000000000N 00000000000NCONT   00    00000000000          00000000000000000000000000000000000000000000 000000000000000A000000000000000000000000000000000000000000000 000000000000000000000000000000000000000     00000000                                                                                                                        000000000000000000
F0010000006230000002000004249706000041450500000000000000000201409040002001ANA MERCEDES GOMEZ ALCALA                         C000000001200000000000000000000000100010010000000000000000000000F0010000006230000220140904000101 00000000000000000000000000000000000000000000000000000000000000000000000000000000000000000000000000000000000000000N 00000000000NCONT   00    00000000000          00000000000000000000000000000000000000000000 000000000000000A000000000000000000000000000000000000000000000 000000000000000000000000000000000000000     00000000                                                                                                                        000000000000000000
F0010000006230000003000004249706000042505000000000000000000201409040002001ANA MERCEDES GOMEZ ALCALA                         C000000000100000000000000000000000100010010000000000000000000000F0010000006230000320140904000101 00000000000000000000000000000000000000000000000000000000000000000000000000000000000000000000000000000000000000000N 00000000000NCONT   00    00000000000          00000000000000000000000000000000000000000000 000000000000000A000000000000000000000000000000000000000000000 000000000000000000000000000000000000000     00000000                                                                                                                        000000000000000000
F0010000006230000004000004249706000023658300000000000000000201409040002001ANA MERCEDES GOMEZ ALCALA                         C000000000009600000000000000000000100010010000000000000000000000F0010000006230000420140904000101 00000000000000000000000000000000000000000000000000000000000000000000000000000000000000000000000000000000000000000N 00000000000NCONT   00    00000000000          00000000000000000000000000000000000000000000 000000000000000A000000000000000000000000000000000000000000000 000000000000000000000000000000000000000     00000000                                                                                                                        000000000000000000
F0010000006230000005000004249706000013552100000000000000000201409040002001ANA MERCEDES GOMEZ ALCALA                         D000000000009600000000000000000000100010010000000000000000000000F0010000006230000520140904000101 00000000000000000000000000000000000000000000000000000000000000000000000000000000000000000000000000000000000000000N 00000000000NCONT   00    00000000000          00000000000000000000000000000000000000000000 000000000000000A000000000000000000000000000000000000000000000 000000000000000000000000000000000000000     00000000                                                                                                                        000000000000000000
F0010000006230100001000090038132400011050500000000000000000201409040002001SOC.DE.COMERC.INTERN.DE PROD.IMP. Y NLS SAS       D000000004600000000000000000000000100010010000000000000000000000F0010000006230100120140904000101 00000000000000000000000000000000000000000000000000000000000000000000000000000000000000000000000000000000000000000N 00000000000NCONT   00    00000000000          00000000000000000000000000000000000000000000 000000000000000A000000000000000000000000000000000000000000000 000000000000000000000000000000000000000     00000000                                                                                                                        000000000000000000
F0010000006230100002000090038132400041450500000000000000000201409040002001SOC.DE.COMERC.INTERN.DE PROD.IMP. Y NLS SAS       C000000003600000000000000000000000100010010000000000000000000000F0010000006230100220140904000101 00000000000000000000000000000000000000000000000000000000000000000000000000000000000000000000000000000000000000000N 00000000000NCONT   00    00000000000          00000000000000000000000000000000000000000000 000000000000000A000000000000000000000000000000000000000000000 000000000000000000000000000000000000000     00000000                                                                                                                        000000000000000000
F0010000006230100003000090038132400042505000000000000000000201409040002001SOC.DE.COMERC.INTERN.DE PROD.IMP. Y NLS SAS       C000000001000000000000000000000000100010010000000000000000000000F0010000006230100320140904000101 00000000000000000000000000000000000000000000000000000000000000000000000000000000000000000000000000000000000000000N 00000000000NCONT   00    00000000000          00000000000000000000000000000000000000000000 000000000000000A000000000000000000000000000000000000000000000 000000000000000000000000000000000000000     00000000                                                                                                                        000000000000000000
F0010000006230100004000090038132400023658300000000000000000201409040002001SOC.DE.COMERC.INTERN.DE PROD.IMP. Y NLS SAS       C000000000028800000000000000000000100010010000000000000000000000F0010000006230100420140904000101 00000000000000000000000000000000000000000000000000000000000000000000000000000000000000000000000000000000000000000N 00000000000NCONT   00    00000000000          00000000000000000000000000000000000000000000 000000000000000A000000000000000000000000000000000000000000000 000000000000000000000000000000000000000     00000000                                                                                                                        000000000000000000
F0010000006230100005000090038132400013552100000000000000000201409040002001SOC.DE.COMERC.INTERN.DE PROD.IMP. Y NLS SAS       D000000000028800000000000000000000100010010000000000000000000000F0010000006230100520140904000101 00000000000000000000000000000000000000000000000000000000000000000000000000000000000000000000000000000000000000000N 00000000000NCONT   00    00000000000          00000000000000000000000000000000000000000000 000000000000000A000000000000000000000000000000000000000000000 000000000000000000000000000000000000000     00000000                                                                                                                        000000000000000000
F0010000006230200001000007200023300011050500000000000000000201409040002001COMERCIALIZADORA ORTEGA                           D000000004500000000000000000000000100010010000000000000000000000F0010000006230200120140904000101 00000000000000000000000000000000000000000000000000000000000000000000000000000000000000000000000000000000000000000N 00000000000NCONT   00    00000000000          00000000000000000000000000000000000000000000 000000000000000A000000000000000000000000000000000000000000000 000000000000000000000000000000000000000     00000000                                                                                                                        000000000000000000
F0010000006230200002000007200023300041450500000000000000000201409040002001COMERCIALIZADORA ORTEGA                           C000000003900000000000000000000000100010010000000000000000000000F0010000006230200220140904000101 00000000000000000000000000000000000000000000000000000000000000000000000000000000000000000000000000000000000000000N 00000000000NCONT   00    00000000000          00000000000000000000000000000000000000000000 000000000000000A000000000000000000000000000000000000000000000 000000000000000000000000000000000000000     00000000                                                                                                                        000000000000000000
F0010000006230200003000007200023300042505000000000000000000201409040002001COMERCIALIZADORA ORTEGA                           C000000000600000000000000000000000100010010000000000000000000000F0010000006230200320140904000101 00000000000000000000000000000000000000000000000000000000000000000000000000000000000000000000000000000000000000000N 00000000000NCONT   00    00000000000          00000000000000000000000000000000000000000000 000000000000000A000000000000000000000000000000000000000000000 000000000000000000000000000000000000000     00000000                                                                                                                        000000000000000000
F0010000006230200004000007200023300023658300000000000000000201409040002001COMERCIALIZADORA ORTEGA                           C000000000031200000000000000000000100010010000000000000000000000F0010000006230200420140904000101 00000000000000000000000000000000000000000000000000000000000000000000000000000000000000000000000000000000000000000N 00000000000NCONT   00    00000000000          00000000000000000000000000000000000000000000 000000000000000A000000000000000000000000000000000000000000000 000000000000000000000000000000000000000     00000000                                                                                                                        000000000000000000
F0010000006230200005000007200023300013552100000000000000000201409040002001COMERCIALIZADORA ORTEGA                           D000000000031200000000000000000000100010010000000000000000000000F0010000006230200520140904000101 00000000000000000000000000000000000000000000000000000000000000000000000000000000000000000000000000000000000000000N 00000000000NCONT   00    00000000000          00000000000000000000000000000000000000000000 000000000000000A000000000000000000000000000000000000000000000 000000000000000000000000000000000000000     00000000                                                                                                                        000000000000000000
F0010000006230300001000007200023300011050500000000000000000201409040002001COMERCIALIZADORA ORTEGA                           D000000003000000000000000000000000100010010000000000000000000000F0010000006230300120140904000101 00000000000000000000000000000000000000000000000000000000000000000000000000000000000000000000000000000000000000000N 00000000000NCONT   00    00000000000          00000000000000000000000000000000000000000000 000000000000000A000000000000000000000000000000000000000000000 000000000000000000000000000000000000000     00000000                                                                                                                        000000000000000000
F0010000006230300002000007200023300041450500000000000000000201409040002001COMERCIALIZADORA ORTEGA                           C000000002700000000000000000000000100010010000000000000000000000F0010000006230300220140904000101 00000000000000000000000000000000000000000000000000000000000000000000000000000000000000000000000000000000000000000N 00000000000NCONT   00    00000000000          00000000000000000000000000000000000000000000 000000000000000A000000000000000000000000000000000000000000000 000000000000000000000000000000000000000     00000000                                                                                                                        000000000000000000
F0010000006230300003000007200023300042505000000000000000000201409040002001COMERCIALIZADORA ORTEGA                           C000000000300000000000000000000000100010010000000000000000000000F0010000006230300320140904000101 00000000000000000000000000000000000000000000000000000000000000000000000000000000000000000000000000000000000000000N 00000000000NCONT   00    00000000000          00000000000000000000000000000000000000000000 000000000000000A000000000000000000000000000000000000000000000 000000000000000000000000000000000000000     00000000                                                                                                                        000000000000000000
F0010000006230300004000007200023300023658300000000000000000201409040002001COMERCIALIZADORA ORTEGA                           C000000000021600000000000000000000100010010000000000000000000000F0010000006230300420140904000101 00000000000000000000000000000000000000000000000000000000000000000000000000000000000000000000000000000000000000000N 00000000000NCONT   00    00000000000          00000000000000000000000000000000000000000000 000000000000000A000000000000000000000000000000000000000000000 000000000000000000000000000000000000000     00000000                                                                                                                        000000000000000000
F0010000006230300005000007200023300013552100000000000000000201409040002001COMERCIALIZADORA ORTEGA                           D000000000021600000000000000000000100010010000000000000000000000F0010000006230300520140904000101 00000000000000000000000000000000000000000000000000000000000000000000000000000000000000000000000000000000000000000N 00000000000NCONT   00    00000000000          00000000000000000000000000000000000000000000 000000000000000A000000000000000000000000000000000000000000000 000000000000000000000000000000000000000     00000000                                                                                                                        000000000000000000
F0010000006230400001000090060531100011050500000000000000000201409040002001RECUBRIMIENTO ESENCIALES SAS                      D000000000790000000000000000000000100010010000000000000000000000F0010000006230400120140904000101 00000000000000000000000000000000000000000000000000000000000000000000000000000000000000000000000000000000000000000N 00000000000NCONT   00    00000000000          00000000000000000000000000000000000000000000 000000000000000A000000000000000000000000000000000000000000000 000000000000000000000000000000000000000     00000000                                                                                                                        000000000000000000
F0010000006230400002000090060531100041450500000000000000000201409040002001RECUBRIMIENTO ESENCIALES SAS                      C000000000690000000000000000000000100010010000000000000000000000F0010000006230400220140904000101 00000000000000000000000000000000000000000000000000000000000000000000000000000000000000000000000000000000000000000N 00000000000NCONT   00    00000000000          00000000000000000000000000000000000000000000 000000000000000A000000000000000000000000000000000000000000000 000000000000000000000000000000000000000     00000000                                                                                                                        000000000000000000
F0010000006230400003000090060531100042505000000000000000000201409040002001RECUBRIMIENTO ESENCIALES SAS                      C000000000100000000000000000000000100010010000000000000000000000F0010000006230400320140904000101 00000000000000000000000000000000000000000000000000000000000000000000000000000000000000000000000000000000000000000N 00000000000NCONT   00    00000000000          00000000000000000000000000000000000000000000 000000000000000A000000000000000000000000000000000000000000000 000000000000000000000000000000000000000     00000000                                                                                                                        000000000000000000
F0010000006230400004000090060531100023658300000000000000000201409040002001RECUBRIMIENTO ESENCIALES SAS                      C000000000005500000000000000000000100010010000000000000000000000F0010000006230400420140904000101 00000000000000000000000000000000000000000000000000000000000000000000000000000000000000000000000000000000000000000N 00000000000NCONT   00    00000000000          00000000000000000000000000000000000000000000 000000000000000A000000000000000000000000000000000000000000000 000000000000000000000000000000000000000     00000000                                                                                                                        000000000000000000
F0010000006230400005000090060531100013552100000000000000000201409040002001RECUBRIMIENTO ESENCIALES SAS                      D000000000005500000000000000000000100010010000000000000000000000F0010000006230400520140904000101 00000000000000000000000000000000000000000000000000000000000000000000000000000000000000000000000000000000000000000N 00000000000NCONT   00    00000000000          00000000000000000000000000000000000000000000 000000000000000A000000000000000000000000000000000000000000000 000000000000000000000000000000000000000     00000000                                                                                                                        000000000000000000
F0010000006230500001000090048173700011050500000000000000000201409040002001ESPECIALIDADES QUIMICAS DEL NORTE SAS             D000000000790000000000000000000000100010010000000000000000000000F0010000006230500120140904000101 00000000000000000000000000000000000000000000000000000000000000000000000000000000000000000000000000000000000000000N 00000000000NCONT   00    00000000000          00000000000000000000000000000000000000000000 000000000000000A000000000000000000000000000000000000000000000 000000000000000000000000000000000000000     00000000                                                                                                                        000000000000000000
F0010000006230500002000090048173700041450500000000000000000201409040002001ESPECIALIDADES QUIMICAS DEL NORTE SAS             C000000000690000000000000000000000100010010000000000000000000000F0010000006230500220140904000101 00000000000000000000000000000000000000000000000000000000000000000000000000000000000000000000000000000000000000000N 00000000000NCONT   00    00000000000          00000000000000000000000000000000000000000000 000000000000000A000000000000000000000000000000000000000000000 000000000000000000000000000000000000000     00000000                                                                                                                        000000000000000000
F0010000006230500003000090048173700042505000000000000000000201409040002001ESPECIALIDADES QUIMICAS DEL NORTE SAS             C000000000100000000000000000000000100010010000000000000000000000F0010000006230500320140904000101 00000000000000000000000000000000000000000000000000000000000000000000000000000000000000000000000000000000000000000N 00000000000NCONT   00    00000000000          00000000000000000000000000000000000000000000 000000000000000A000000000000000000000000000000000000000000000 000000000000000000000000000000000000000     00000000                                                                                                                        000000000000000000
F0010000006230500004000090048173700023658300000000000000000201409040002001ESPECIALIDADES QUIMICAS DEL NORTE SAS             C000000000005500000000000000000000100010010000000000000000000000F0010000006230500420140904000101 00000000000000000000000000000000000000000000000000000000000000000000000000000000000000000000000000000000000000000N 00000000000NCONT   00    00000000000          00000000000000000000000000000000000000000000 000000000000000A000000000000000000000000000000000000000000000 000000000000000000000000000000000000000     00000000                                                                                                                        000000000000000000
F0010000006230500005000090048173700013552100000000000000000201409040002001ESPECIALIDADES QUIMICAS DEL NORTE SAS             D000000000005500000000000000000000100010010000000000000000000000F0010000006230500520140904000101 00000000000000000000000000000000000000000000000000000000000000000000000000000000000000000000000000000000000000000N 00000000000NCONT   00    00000000000          00000000000000000000000000000000000000000000 000000000000000A000000000000000000000000000000000000000000000 000000000000000000000000000000000000000     00000000                                                                                                                        000000000000000000
F0010000006230600001000000431178400011050500000000000000000201409040002001EFRAIN ALVAREZ                                    D000000003290000000000000000000000100010010000000000000000000000F0010000006230600120140904000101 00000000000000000000000000000000000000000000000000000000000000000000000000000000000000000000000000000000000000000N 00000000000NCONT   00    00000000000          00000000000000000000000000000000000000000000 000000000000000A000000000000000000000000000000000000000000000 000000000000000000000000000000000000000     00000000                                                                                                                        000000000000000000
F0010000006230600002000000431178400041450500000000000000000201409040002001EFRAIN ALVAREZ                                    C000000003240000000000000000000000100010010000000000000000000000F0010000006230600220140904000101 00000000000000000000000000000000000000000000000000000000000000000000000000000000000000000000000000000000000000000N 00000000000NCONT   00    00000000000          00000000000000000000000000000000000000000000 000000000000000A000000000000000000000000000000000000000000000 000000000000000000000000000000000000000     00000000                                                                                                                        000000000000000000
F0010000006230600003000000431178400042505000000000000000000201409040002001EFRAIN ALVAREZ                                    C000000000050000000000000000000000100010010000000000000000000000F0010000006230600320140904000101 00000000000000000000000000000000000000000000000000000000000000000000000000000000000000000000000000000000000000000N 00000000000NCONT   00    00000000000          00000000000000000000000000000000000000000000 000000000000000A000000000000000000000000000000000000000000000 000000000000000000000000000000000000000     00000000                                                                                                                        000000000000000000
F0010000006230600004000000431178400023658300000000000000000201409040002001EFRAIN ALVAREZ                                    C000000000025900000000000000000000100010010000000000000000000000F0010000006230600420140904000101 00000000000000000000000000000000000000000000000000000000000000000000000000000000000000000000000000000000000000000N 00000000000NCONT   00    00000000000          00000000000000000000000000000000000000000000 000000000000000A000000000000000000000000000000000000000000000 000000000000000000000000000000000000000     00000000                                                                                                                        000000000000000000
F0010000006230600005000000431178400013552100000000000000000201409040002001EFRAIN ALVAREZ                                    D000000000025900000000000000000000100010010000000000000000000000F0010000006230600520140904000101 00000000000000000000000000000000000000000000000000000000000000000000000000000000000000000000000000000000000000000N 00000000000NCONT   00    00000000000          00000000000000000000000000000000000000000000 000000000000000A000000000000000000000000000000000000000000000 000000000000000000000000000000000000000     00000000                                                                                                                        000000000000000000
F0010000006230700001000000431178400011050500000000000000000201409040002001EFRAIN ALVAREZ                                    D000000001940000000000000000000000100010010000000000000000000000F0010000006230700120140904000101 00000000000000000000000000000000000000000000000000000000000000000000000000000000000000000000000000000000000000000N 00000000000NCONT   00    00000000000          00000000000000000000000000000000000000000000 000000000000000A000000000000000000000000000000000000000000000 000000000000000000000000000000000000000     00000000                                                                                                                        000000000000000000
F0010000006230700002000000431178400041450500000000000000000201409040002001EFRAIN ALVAREZ                                    C000000001840000000000000000000000100010010000000000000000000000F0010000006230700220140904000101 00000000000000000000000000000000000000000000000000000000000000000000000000000000000000000000000000000000000000000N 00000000000NCONT   00    00000000000          00000000000000000000000000000000000000000000 000000000000000A000000000000000000000000000000000000000000000 000000000000000000000000000000000000000     00000000                                                                                                                        000000000000000000
F0010000006230700003000000431178400042505000000000000000000201409040002001EFRAIN ALVAREZ                                    C000000000100000000000000000000000100010010000000000000000000000F0010000006230700320140904000101 00000000000000000000000000000000000000000000000000000000000000000000000000000000000000000000000000000000000000000N 00000000000NCONT   00    00000000000          00000000000000000000000000000000000000000000 000000000000000A000000000000000000000000000000000000000000000 000000000000000000000000000000000000000     00000000                                                                                                                        000000000000000000
F0010000006230700004000000431178400023658300000000000000000201409040002001EFRAIN ALVAREZ                                    C000000000014700000000000000000000100010010000000000000000000000F0010000006230700420140904000101 00000000000000000000000000000000000000000000000000000000000000000000000000000000000000000000000000000000000000000N 00000000000NCONT   00    00000000000          00000000000000000000000000000000000000000000 000000000000000A000000000000000000000000000000000000000000000 000000000000000000000000000000000000000     00000000                                                                                                                        000000000000000000
F0010000006230700005000000431178400013552100000000000000000201409040002001EFRAIN ALVAREZ                                    D000000000014700000000000000000000100010010000000000000000000000F0010000006230700520140904000101 00000000000000000000000000000000000000000000000000000000000000000000000000000000000000000000000000000000000000000N 00000000000NCONT   00    00000000000          00000000000000000000000000000000000000000000 000000000000000A000000000000000000000000000000000000000000000 000000000000000000000000000000000000000     00000000                                                                                                                        000000000000000000
F0010000006230800001000000431178400011050500000000000000000201409040002001EFRAIN ALVAREZ                                    D000000001890000000000000000000000100010010000000000000000000000F0010000006230800120140904000101 00000000000000000000000000000000000000000000000000000000000000000000000000000000000000000000000000000000000000000N 00000000000NCONT   00    00000000000          00000000000000000000000000000000000000000000 000000000000000A000000000000000000000000000000000000000000000 000000000000000000000000000000000000000     00000000                                                                                                                        000000000000000000
F0010000006230800002000000431178400041450500000000000000000201409040002001EFRAIN ALVAREZ                                    C000000001840000000000000000000000100010010000000000000000000000F0010000006230800220140904000101 00000000000000000000000000000000000000000000000000000000000000000000000000000000000000000000000000000000000000000N 00000000000NCONT   00    00000000000          00000000000000000000000000000000000000000000 000000000000000A000000000000000000000000000000000000000000000 000000000000000000000000000000000000000     00000000                                                                                                                        000000000000000000
