F0010000006513700001000007225583900011050500000000000000000201411170002001JORGE LUIS NIÑO BLANCO                           D000000006000000000000000000000000100010010000000000000000000000F0010000006513700120141117000101 00000000000000000000000000000000000000000000000000000000000000000000000000000000000000000000000000000000000000000N 00000000000NCONT   00    00000000000          00000000000000000000000000000000000000000000 000000000000000A000000000000000000000000000000000000000000000 000000000000000000000000000000000000000     00000000                                                                                                                        000000000000000000
F0010000006513700002000007225583900041450500000000000000000201411170002001JORGE LUIS NIÑO BLANCO                           C000000004500000000000000000000000100010010000000000000000000000F0010000006513700220141117000101 00000000000000000000000000000000000000000000000000000000000000000000000000000000000000000000000000000000000000000N 00000000000NCONT   00    00000000000          00000000000000000000000000000000000000000000 000000000000000A000000000000000000000000000000000000000000000 000000000000000000000000000000000000000     00000000                                                                                                                        000000000000000000
F0010000006513700003000007225583900042505000000000000000000201411170002001JORGE LUIS NIÑO BLANCO                           C000000001500000000000000000000000100010010000000000000000000000F0010000006513700320141117000101 00000000000000000000000000000000000000000000000000000000000000000000000000000000000000000000000000000000000000000N 00000000000NCONT   00    00000000000          00000000000000000000000000000000000000000000 000000000000000A000000000000000000000000000000000000000000000 000000000000000000000000000000000000000     00000000                                                                                                                        000000000000000000
F0010000006513700004000007225583900023658300000000000000000201411170002001JORGE LUIS NIÑO BLANCO                           C000000000036000000000000000000000100010010000000000000000000000F0010000006513700420141117000101 00000000000000000000000000000000000000000000000000000000000000000000000000000000000000000000000000000000000000000N 00000000000NCONT   00    00000000000          00000000000000000000000000000000000000000000 000000000000000A000000000000000000000000000000000000000000000 000000000000000000000000000000000000000     00000000                                                                                                                        000000000000000000
F0010000006513700005000007225583900013552100000000000000000201411170002001JORGE LUIS NIÑO BLANCO                           D000000000036000000000000000000000100010010000000000000000000000F0010000006513700520141117000101 00000000000000000000000000000000000000000000000000000000000000000000000000000000000000000000000000000000000000000N 00000000000NCONT   00    00000000000          00000000000000000000000000000000000000000000 000000000000000A000000000000000000000000000000000000000000000 000000000000000000000000000000000000000     00000000                                                                                                                        000000000000000000
F0010000006513800001000007225583900011050500000000000000000201411170002001JORGE LUIS NIÑO BLANCO                           D000000009500000000000000000000000100010010000000000000000000000F0010000006513800120141117000101 00000000000000000000000000000000000000000000000000000000000000000000000000000000000000000000000000000000000000000N 00000000000NCONT   00    00000000000          00000000000000000000000000000000000000000000 000000000000000A000000000000000000000000000000000000000000000 000000000000000000000000000000000000000     00000000                                                                                                                        000000000000000000
F0010000006513800002000007225583900041450500000000000000000201411170002001JORGE LUIS NIÑO BLANCO                           C000000007500000000000000000000000100010010000000000000000000000F0010000006513800220141117000101 00000000000000000000000000000000000000000000000000000000000000000000000000000000000000000000000000000000000000000N 00000000000NCONT   00    00000000000          00000000000000000000000000000000000000000000 000000000000000A000000000000000000000000000000000000000000000 000000000000000000000000000000000000000     00000000                                                                                                                        000000000000000000
F0010000006513800003000007225583900042505000000000000000000201411170002001JORGE LUIS NIÑO BLANCO                           C000000002000000000000000000000000100010010000000000000000000000F0010000006513800320141117000101 00000000000000000000000000000000000000000000000000000000000000000000000000000000000000000000000000000000000000000N 00000000000NCONT   00    00000000000          00000000000000000000000000000000000000000000 000000000000000A000000000000000000000000000000000000000000000 000000000000000000000000000000000000000     00000000                                                                                                                        000000000000000000
F0010000006513800004000007225583900023658300000000000000000201411170002001JORGE LUIS NIÑO BLANCO                           C000000000060000000000000000000000100010010000000000000000000000F0010000006513800420141117000101 00000000000000000000000000000000000000000000000000000000000000000000000000000000000000000000000000000000000000000N 00000000000NCONT   00    00000000000          00000000000000000000000000000000000000000000 000000000000000A000000000000000000000000000000000000000000000 000000000000000000000000000000000000000     00000000                                                                                                                        000000000000000000
F0010000006513800005000007225583900013552100000000000000000201411170002001JORGE LUIS NIÑO BLANCO                           D000000000060000000000000000000000100010010000000000000000000000F0010000006513800520141117000101 00000000000000000000000000000000000000000000000000000000000000000000000000000000000000000000000000000000000000000N 00000000000NCONT   00    00000000000          00000000000000000000000000000000000000000000 000000000000000A000000000000000000000000000000000000000000000 000000000000000000000000000000000000000     00000000                                                                                                                        000000000000000000
F0010000006513900001000007225583900011050500000000000000000201411170002001JORGE LUIS NIÑO BLANCO                           D000000013500000000000000000000000100010010000000000000000000000F0010000006513900120141117000101 00000000000000000000000000000000000000000000000000000000000000000000000000000000000000000000000000000000000000000N 00000000000NCONT   00    00000000000          00000000000000000000000000000000000000000000 000000000000000A000000000000000000000000000000000000000000000 000000000000000000000000000000000000000     00000000                                                                                                                        000000000000000000
F0010000006513900002000007225583900041450500000000000000000201411170002001JORGE LUIS NIÑO BLANCO                           C000000010500000000000000000000000100010010000000000000000000000F0010000006513900220141117000101 00000000000000000000000000000000000000000000000000000000000000000000000000000000000000000000000000000000000000000N 00000000000NCONT   00    00000000000          00000000000000000000000000000000000000000000 000000000000000A000000000000000000000000000000000000000000000 000000000000000000000000000000000000000     00000000                                                                                                                        000000000000000000
F0010000006513900003000007225583900042505000000000000000000201411170002001JORGE LUIS NIÑO BLANCO                           C000000003000000000000000000000000100010010000000000000000000000F0010000006513900320141117000101 00000000000000000000000000000000000000000000000000000000000000000000000000000000000000000000000000000000000000000N 00000000000NCONT   00    00000000000          00000000000000000000000000000000000000000000 000000000000000A000000000000000000000000000000000000000000000 000000000000000000000000000000000000000     00000000                                                                                                                        000000000000000000
F0010000006513900004000007225583900023658300000000000000000201411170002001JORGE LUIS NIÑO BLANCO                           C000000000084000000000000000000000100010010000000000000000000000F0010000006513900420141117000101 00000000000000000000000000000000000000000000000000000000000000000000000000000000000000000000000000000000000000000N 00000000000NCONT   00    00000000000          00000000000000000000000000000000000000000000 000000000000000A000000000000000000000000000000000000000000000 000000000000000000000000000000000000000     00000000                                                                                                                        000000000000000000
F0010000006513900005000007225583900013552100000000000000000201411170002001JORGE LUIS NIÑO BLANCO                           D000000000084000000000000000000000100010010000000000000000000000F0010000006513900520141117000101 00000000000000000000000000000000000000000000000000000000000000000000000000000000000000000000000000000000000000000N 00000000000NCONT   00    00000000000          00000000000000000000000000000000000000000000 000000000000000A000000000000000000000000000000000000000000000 000000000000000000000000000000000000000     00000000                                                                                                                        000000000000000000
F0010000006514000001000007225583900011050500000000000000000201411170002001JORGE LUIS NIÑO BLANCO                           D000000013500000000000000000000000100010010000000000000000000000F0010000006514000120141117000101 00000000000000000000000000000000000000000000000000000000000000000000000000000000000000000000000000000000000000000N 00000000000NCONT   00    00000000000          00000000000000000000000000000000000000000000 000000000000000A000000000000000000000000000000000000000000000 000000000000000000000000000000000000000     00000000                                                                                                                        000000000000000000
F0010000006514000002000007225583900041450500000000000000000201411170002001JORGE LUIS NIÑO BLANCO                           C000000010500000000000000000000000100010010000000000000000000000F0010000006514000220141117000101 00000000000000000000000000000000000000000000000000000000000000000000000000000000000000000000000000000000000000000N 00000000000NCONT   00    00000000000          00000000000000000000000000000000000000000000 000000000000000A000000000000000000000000000000000000000000000 000000000000000000000000000000000000000     00000000                                                                                                                        000000000000000000
F0010000006514000003000007225583900042505000000000000000000201411170002001JORGE LUIS NIÑO BLANCO                           C000000003000000000000000000000000100010010000000000000000000000F0010000006514000320141117000101 00000000000000000000000000000000000000000000000000000000000000000000000000000000000000000000000000000000000000000N 00000000000NCONT   00    00000000000          00000000000000000000000000000000000000000000 000000000000000A000000000000000000000000000000000000000000000 000000000000000000000000000000000000000     00000000                                                                                                                        000000000000000000
F0010000006514000004000007225583900023658300000000000000000201411170002001JORGE LUIS NIÑO BLANCO                           C000000000084000000000000000000000100010010000000000000000000000F0010000006514000420141117000101 00000000000000000000000000000000000000000000000000000000000000000000000000000000000000000000000000000000000000000N 00000000000NCONT   00    00000000000          00000000000000000000000000000000000000000000 000000000000000A000000000000000000000000000000000000000000000 000000000000000000000000000000000000000     00000000                                                                                                                        000000000000000000
F0010000006514000005000007225583900013552100000000000000000201411170002001JORGE LUIS NIÑO BLANCO                           D000000000084000000000000000000000100010010000000000000000000000F0010000006514000520141117000101 00000000000000000000000000000000000000000000000000000000000000000000000000000000000000000000000000000000000000000N 00000000000NCONT   00    00000000000          00000000000000000000000000000000000000000000 000000000000000A000000000000000000000000000000000000000000000 000000000000000000000000000000000000000     00000000                                                                                                                        000000000000000000
F0010000006514100001000007225583900011050500000000000000000201411170002001JORGE LUIS NIÑO BLANCO                           D000000005700000000000000000000000100010010000000000000000000000F0010000006514100120141117000101 00000000000000000000000000000000000000000000000000000000000000000000000000000000000000000000000000000000000000000N 00000000000NCONT   00    00000000000          00000000000000000000000000000000000000000000 000000000000000A000000000000000000000000000000000000000000000 000000000000000000000000000000000000000     00000000                                                                                                                        000000000000000000
F0010000006514100002000007225583900041450500000000000000000201411170002001JORGE LUIS NIÑO BLANCO                           C000000004500000000000000000000000100010010000000000000000000000F0010000006514100220141117000101 00000000000000000000000000000000000000000000000000000000000000000000000000000000000000000000000000000000000000000N 00000000000NCONT   00    00000000000          00000000000000000000000000000000000000000000 000000000000000A000000000000000000000000000000000000000000000 000000000000000000000000000000000000000     00000000                                                                                                                        000000000000000000
F0010000006514100003000007225583900042505000000000000000000201411170002001JORGE LUIS NIÑO BLANCO                           C000000001200000000000000000000000100010010000000000000000000000F0010000006514100320141117000101 00000000000000000000000000000000000000000000000000000000000000000000000000000000000000000000000000000000000000000N 00000000000NCONT   00    00000000000          00000000000000000000000000000000000000000000 000000000000000A000000000000000000000000000000000000000000000 000000000000000000000000000000000000000     00000000                                                                                                                        000000000000000000
F0010000006514100004000007225583900023658300000000000000000201411170002001JORGE LUIS NIÑO BLANCO                           C000000000036000000000000000000000100010010000000000000000000000F0010000006514100420141117000101 00000000000000000000000000000000000000000000000000000000000000000000000000000000000000000000000000000000000000000N 00000000000NCONT   00    00000000000          00000000000000000000000000000000000000000000 000000000000000A000000000000000000000000000000000000000000000 000000000000000000000000000000000000000     00000000                                                                                                                        000000000000000000
F0010000006514100005000007225583900013552100000000000000000201411170002001JORGE LUIS NIÑO BLANCO                           D000000000036000000000000000000000100010010000000000000000000000F0010000006514100520141117000101 00000000000000000000000000000000000000000000000000000000000000000000000000000000000000000000000000000000000000000N 00000000000NCONT   00    00000000000          00000000000000000000000000000000000000000000 000000000000000A000000000000000000000000000000000000000000000 000000000000000000000000000000000000000     00000000                                                                                                                        000000000000000000
F0010000006514200001000007225583900011050500000000000000000201411170002001JORGE LUIS NIÑO BLANCO                           D000000010500000000000000000000000100010010000000000000000000000F0010000006514200120141117000101 00000000000000000000000000000000000000000000000000000000000000000000000000000000000000000000000000000000000000000N 00000000000NCONT   00    00000000000          00000000000000000000000000000000000000000000 000000000000000A000000000000000000000000000000000000000000000 000000000000000000000000000000000000000     00000000                                                                                                                        000000000000000000
F0010000006514200002000007225583900041450500000000000000000201411170002001JORGE LUIS NIÑO BLANCO                           C000000008000000000000000000000000100010010000000000000000000000F0010000006514200220141117000101 00000000000000000000000000000000000000000000000000000000000000000000000000000000000000000000000000000000000000000N 00000000000NCONT   00    00000000000          00000000000000000000000000000000000000000000 000000000000000A000000000000000000000000000000000000000000000 000000000000000000000000000000000000000     00000000                                                                                                                        000000000000000000
F0010000006514200003000007225583900042505000000000000000000201411170002001JORGE LUIS NIÑO BLANCO                           C000000002500000000000000000000000100010010000000000000000000000F0010000006514200320141117000101 00000000000000000000000000000000000000000000000000000000000000000000000000000000000000000000000000000000000000000N 00000000000NCONT   00    00000000000          00000000000000000000000000000000000000000000 000000000000000A000000000000000000000000000000000000000000000 000000000000000000000000000000000000000     00000000                                                                                                                        000000000000000000
F0010000006514200004000007225583900023658300000000000000000201411170002001JORGE LUIS NIÑO BLANCO                           C000000000064000000000000000000000100010010000000000000000000000F0010000006514200420141117000101 00000000000000000000000000000000000000000000000000000000000000000000000000000000000000000000000000000000000000000N 00000000000NCONT   00    00000000000          00000000000000000000000000000000000000000000 000000000000000A000000000000000000000000000000000000000000000 000000000000000000000000000000000000000     00000000                                                                                                                        000000000000000000
F0010000006514200005000007225583900013552100000000000000000201411170002001JORGE LUIS NIÑO BLANCO                           D000000000064000000000000000000000100010010000000000000000000000F0010000006514200520141117000101 00000000000000000000000000000000000000000000000000000000000000000000000000000000000000000000000000000000000000000N 00000000000NCONT   00    00000000000          00000000000000000000000000000000000000000000 000000000000000A000000000000000000000000000000000000000000000 000000000000000000000000000000000000000     00000000                                                                                                                        000000000000000000
F0010000006514300001000090037881900011050500000000000000000201411170002001COMERCIALIZADORA RACOPI S.A.S                     D000000001100000000000000000000000100010010000000000000000000000F0010000006514300120141117000101 00000000000000000000000000000000000000000000000000000000000000000000000000000000000000000000000000000000000000000N 00000000000NCONT   00    00000000000          00000000000000000000000000000000000000000000 000000000000000A000000000000000000000000000000000000000000000 000000000000000000000000000000000000000     00000000                                                                                                                        000000000000000000
F0010000006514300002000090037881900041450500000000000000000201411170002001COMERCIALIZADORA RACOPI S.A.S                     C000000000900000000000000000000000100010010000000000000000000000F0010000006514300220141117000101 00000000000000000000000000000000000000000000000000000000000000000000000000000000000000000000000000000000000000000N 00000000000NCONT   00    00000000000          00000000000000000000000000000000000000000000 000000000000000A000000000000000000000000000000000000000000000 000000000000000000000000000000000000000     00000000                                                                                                                        000000000000000000
F0010000006514300003000090037881900042505000000000000000000201411170002001COMERCIALIZADORA RACOPI S.A.S                     C000000000200000000000000000000000100010010000000000000000000000F0010000006514300320141117000101 00000000000000000000000000000000000000000000000000000000000000000000000000000000000000000000000000000000000000000N 00000000000NCONT   00    00000000000          00000000000000000000000000000000000000000000 000000000000000A000000000000000000000000000000000000000000000 000000000000000000000000000000000000000     00000000                                                                                                                        000000000000000000
F0010000006514300004000090037881900023658300000000000000000201411170002001COMERCIALIZADORA RACOPI S.A.S                     C000000000007200000000000000000000100010010000000000000000000000F0010000006514300420141117000101 00000000000000000000000000000000000000000000000000000000000000000000000000000000000000000000000000000000000000000N 00000000000NCONT   00    00000000000          00000000000000000000000000000000000000000000 000000000000000A000000000000000000000000000000000000000000000 000000000000000000000000000000000000000     00000000                                                                                                                        000000000000000000
F0010000006514300005000090037881900013552100000000000000000201411170002001COMERCIALIZADORA RACOPI S.A.S                     D000000000007200000000000000000000100010010000000000000000000000F0010000006514300520141117000101 00000000000000000000000000000000000000000000000000000000000000000000000000000000000000000000000000000000000000000N 00000000000NCONT   00    00000000000          00000000000000000000000000000000000000000000 000000000000000A000000000000000000000000000000000000000000000 000000000000000000000000000000000000000     00000000                                                                                                                        000000000000000000
