F0010000006951500001000090034602400011050500000000000000000201503230002001LA CUSTODIA                                       D000000004800000000000000000000000100010010000000000000000000000F0010000006951500120150323000101 00000000000000000000000000000000000000000000000000000000000000000000000000000000000000000000000000000000000000000N 00000000000NCONT   00    00000000000          00000000000000000000000000000000000000000000 000000000000000A000000000000000000000000000000000000000000000 000000000000000000000000000000000000000     00000000                                                                                                                        000000000000000000
F0010000006951500002000090034602400041450500000000000000000201503230002001LA CUSTODIA                                       C000000004500000000000000000000000100010010000000000000000000000F0010000006951500220150323000101 00000000000000000000000000000000000000000000000000000000000000000000000000000000000000000000000000000000000000000N 00000000000NCONT   00    00000000000          00000000000000000000000000000000000000000000 000000000000000A000000000000000000000000000000000000000000000 000000000000000000000000000000000000000     00000000                                                                                                                        000000000000000000
F0010000006951500003000090034602400042505000000000000000000201503230002001LA CUSTODIA                                       C000000000300000000000000000000000100010010000000000000000000000F0010000006951500320150323000101 00000000000000000000000000000000000000000000000000000000000000000000000000000000000000000000000000000000000000000N 00000000000NCONT   00    00000000000          00000000000000000000000000000000000000000000 000000000000000A000000000000000000000000000000000000000000000 000000000000000000000000000000000000000     00000000                                                                                                                        000000000000000000
F0010000006951500004000090034602400023658300000000000000000201503230002001LA CUSTODIA                                       C000000000036000000000000000000000100010010000000000000000000000F0010000006951500420150323000101 00000000000000000000000000000000000000000000000000000000000000000000000000000000000000000000000000000000000000000N 00000000000NCONT   00    00000000000          00000000000000000000000000000000000000000000 000000000000000A000000000000000000000000000000000000000000000 000000000000000000000000000000000000000     00000000                                                                                                                        000000000000000000
F0010000006951500005000090034602400013552100000000000000000201503230002001LA CUSTODIA                                       D000000000036000000000000000000000100010010000000000000000000000F0010000006951500520150323000101 00000000000000000000000000000000000000000000000000000000000000000000000000000000000000000000000000000000000000000N 00000000000NCONT   00    00000000000          00000000000000000000000000000000000000000000 000000000000000A000000000000000000000000000000000000000000000 000000000000000000000000000000000000000     00000000                                                                                                                        000000000000000000
F0010000006951600001000090034602400011050500000000000000000201503230002001LA CUSTODIA                                       D000000003600000000000000000000000100010010000000000000000000000F0010000006951600120150323000101 00000000000000000000000000000000000000000000000000000000000000000000000000000000000000000000000000000000000000000N 00000000000NCONT   00    00000000000          00000000000000000000000000000000000000000000 000000000000000A000000000000000000000000000000000000000000000 000000000000000000000000000000000000000     00000000                                                                                                                        000000000000000000
F0010000006951600002000090034602400041450500000000000000000201503230002001LA CUSTODIA                                       C000000003300000000000000000000000100010010000000000000000000000F0010000006951600220150323000101 00000000000000000000000000000000000000000000000000000000000000000000000000000000000000000000000000000000000000000N 00000000000NCONT   00    00000000000          00000000000000000000000000000000000000000000 000000000000000A000000000000000000000000000000000000000000000 000000000000000000000000000000000000000     00000000                                                                                                                        000000000000000000
F0010000006951600003000090034602400042505000000000000000000201503230002001LA CUSTODIA                                       C000000000300000000000000000000000100010010000000000000000000000F0010000006951600320150323000101 00000000000000000000000000000000000000000000000000000000000000000000000000000000000000000000000000000000000000000N 00000000000NCONT   00    00000000000          00000000000000000000000000000000000000000000 000000000000000A000000000000000000000000000000000000000000000 000000000000000000000000000000000000000     00000000                                                                                                                        000000000000000000
F0010000006951600004000090034602400023658300000000000000000201503230002001LA CUSTODIA                                       C000000000026400000000000000000000100010010000000000000000000000F0010000006951600420150323000101 00000000000000000000000000000000000000000000000000000000000000000000000000000000000000000000000000000000000000000N 00000000000NCONT   00    00000000000          00000000000000000000000000000000000000000000 000000000000000A000000000000000000000000000000000000000000000 000000000000000000000000000000000000000     00000000                                                                                                                        000000000000000000
F0010000006951600005000090034602400013552100000000000000000201503230002001LA CUSTODIA                                       D000000000026400000000000000000000100010010000000000000000000000F0010000006951600520150323000101 00000000000000000000000000000000000000000000000000000000000000000000000000000000000000000000000000000000000000000N 00000000000NCONT   00    00000000000          00000000000000000000000000000000000000000000 000000000000000A000000000000000000000000000000000000000000000 000000000000000000000000000000000000000     00000000                                                                                                                        000000000000000000
F0010000006951700001000000871745700011050500000000000000000201503230002001CONFECCIONES ORO SPORT 33                         D000000002000000000000000000000000100010010000000000000000000000F0010000006951700120150323000101 00000000000000000000000000000000000000000000000000000000000000000000000000000000000000000000000000000000000000000N 00000000000NCONT   00    00000000000          00000000000000000000000000000000000000000000 000000000000000A000000000000000000000000000000000000000000000 000000000000000000000000000000000000000     00000000                                                                                                                        000000000000000000
F0010000006951700002000000871745700041450500000000000000000201503230002001CONFECCIONES ORO SPORT 33                         C000000001000000000000000000000000100010010000000000000000000000F0010000006951700220150323000101 00000000000000000000000000000000000000000000000000000000000000000000000000000000000000000000000000000000000000000N 00000000000NCONT   00    00000000000          00000000000000000000000000000000000000000000 000000000000000A000000000000000000000000000000000000000000000 000000000000000000000000000000000000000     00000000                                                                                                                        000000000000000000
F0010000006951700003000000871745700042505000000000000000000201503230002001CONFECCIONES ORO SPORT 33                         C000000001000000000000000000000000100010010000000000000000000000F0010000006951700320150323000101 00000000000000000000000000000000000000000000000000000000000000000000000000000000000000000000000000000000000000000N 00000000000NCONT   00    00000000000          00000000000000000000000000000000000000000000 000000000000000A000000000000000000000000000000000000000000000 000000000000000000000000000000000000000     00000000                                                                                                                        000000000000000000
F0010000006951700004000000871745700023658300000000000000000201503230002001CONFECCIONES ORO SPORT 33                         C000000000008000000000000000000000100010010000000000000000000000F0010000006951700420150323000101 00000000000000000000000000000000000000000000000000000000000000000000000000000000000000000000000000000000000000000N 00000000000NCONT   00    00000000000          00000000000000000000000000000000000000000000 000000000000000A000000000000000000000000000000000000000000000 000000000000000000000000000000000000000     00000000                                                                                                                        000000000000000000
F0010000006951700005000000871745700013552100000000000000000201503230002001CONFECCIONES ORO SPORT 33                         D000000000008000000000000000000000100010010000000000000000000000F0010000006951700520150323000101 00000000000000000000000000000000000000000000000000000000000000000000000000000000000000000000000000000000000000000N 00000000000NCONT   00    00000000000          00000000000000000000000000000000000000000000 000000000000000A000000000000000000000000000000000000000000000 000000000000000000000000000000000000000     00000000                                                                                                                        000000000000000000
F0010000006951800001000000746524800011050500000000000000000201503230002001GUILLERMO BURGOS                                  D000000002730000000000000000000000100010010000000000000000000000F0010000006951800120150323000101 00000000000000000000000000000000000000000000000000000000000000000000000000000000000000000000000000000000000000000N 00000000000NCONT   00    00000000000          00000000000000000000000000000000000000000000 000000000000000A000000000000000000000000000000000000000000000 000000000000000000000000000000000000000     00000000                                                                                                                        000000000000000000
F0010000006951800002000000746524800041450500000000000000000201503230002001GUILLERMO BURGOS                                  C000000002700000000000000000000000100010010000000000000000000000F0010000006951800220150323000101 00000000000000000000000000000000000000000000000000000000000000000000000000000000000000000000000000000000000000000N 00000000000NCONT   00    00000000000          00000000000000000000000000000000000000000000 000000000000000A000000000000000000000000000000000000000000000 000000000000000000000000000000000000000     00000000                                                                                                                        000000000000000000
F0010000006951800003000000746524800042505000000000000000000201503230002001GUILLERMO BURGOS                                  C000000000030000000000000000000000100010010000000000000000000000F0010000006951800320150323000101 00000000000000000000000000000000000000000000000000000000000000000000000000000000000000000000000000000000000000000N 00000000000NCONT   00    00000000000          00000000000000000000000000000000000000000000 000000000000000A000000000000000000000000000000000000000000000 000000000000000000000000000000000000000     00000000                                                                                                                        000000000000000000
F0010000006951800004000000746524800023658300000000000000000201503230002001GUILLERMO BURGOS                                  C000000000021600000000000000000000100010010000000000000000000000F0010000006951800420150323000101 00000000000000000000000000000000000000000000000000000000000000000000000000000000000000000000000000000000000000000N 00000000000NCONT   00    00000000000          00000000000000000000000000000000000000000000 000000000000000A000000000000000000000000000000000000000000000 000000000000000000000000000000000000000     00000000                                                                                                                        000000000000000000
F0010000006951800005000000746524800013552100000000000000000201503230002001GUILLERMO BURGOS                                  D000000000021600000000000000000000100010010000000000000000000000F0010000006951800520150323000101 00000000000000000000000000000000000000000000000000000000000000000000000000000000000000000000000000000000000000000N 00000000000NCONT   00    00000000000          00000000000000000000000000000000000000000000 000000000000000A000000000000000000000000000000000000000000000 000000000000000000000000000000000000000     00000000                                                                                                                        000000000000000000
F0010000006951900001000007229328500011050500000000000000000201503230002001PV ELECTRIC   DEL CARIBE                          D000000017600000000000000000000000100010010000000000000000000000F0010000006951900120150323000101 00000000000000000000000000000000000000000000000000000000000000000000000000000000000000000000000000000000000000000N 00000000000NCONT   00    00000000000          00000000000000000000000000000000000000000000 000000000000000A000000000000000000000000000000000000000000000 000000000000000000000000000000000000000     00000000                                                                                                                        000000000000000000
F0010000006951900002000007229328500041450500000000000000000201503230002001PV ELECTRIC   DEL CARIBE                          C000000015000000000000000000000000100010010000000000000000000000F0010000006951900220150323000101 00000000000000000000000000000000000000000000000000000000000000000000000000000000000000000000000000000000000000000N 00000000000NCONT   00    00000000000          00000000000000000000000000000000000000000000 000000000000000A000000000000000000000000000000000000000000000 000000000000000000000000000000000000000     00000000                                                                                                                        000000000000000000
F0010000006951900003000007229328500042505000000000000000000201503230002001PV ELECTRIC   DEL CARIBE                          C000000002600000000000000000000000100010010000000000000000000000F0010000006951900320150323000101 00000000000000000000000000000000000000000000000000000000000000000000000000000000000000000000000000000000000000000N 00000000000NCONT   00    00000000000          00000000000000000000000000000000000000000000 000000000000000A000000000000000000000000000000000000000000000 000000000000000000000000000000000000000     00000000                                                                                                                        000000000000000000
F0010000006951900004000007229328500023658300000000000000000201503230002001PV ELECTRIC   DEL CARIBE                          C000000000120000000000000000000000100010010000000000000000000000F0010000006951900420150323000101 00000000000000000000000000000000000000000000000000000000000000000000000000000000000000000000000000000000000000000N 00000000000NCONT   00    00000000000          00000000000000000000000000000000000000000000 000000000000000A000000000000000000000000000000000000000000000 000000000000000000000000000000000000000     00000000                                                                                                                        000000000000000000
F0010000006951900005000007229328500013552100000000000000000201503230002001PV ELECTRIC   DEL CARIBE                          D000000000120000000000000000000000100010010000000000000000000000F0010000006951900520150323000101 00000000000000000000000000000000000000000000000000000000000000000000000000000000000000000000000000000000000000000N 00000000000NCONT   00    00000000000          00000000000000000000000000000000000000000000 000000000000000A000000000000000000000000000000000000000000000 000000000000000000000000000000000000000     00000000                                                                                                                        000000000000000000
F0010000006952000001000080023327700011050500000000000000000201503230002001DISINCO LTDA                                      D000000001850000000000000000000000100010010000000000000000000000F0010000006952000120150323000101 00000000000000000000000000000000000000000000000000000000000000000000000000000000000000000000000000000000000000000N 00000000000NCONT   00    00000000000          00000000000000000000000000000000000000000000 000000000000000A000000000000000000000000000000000000000000000 000000000000000000000000000000000000000     00000000                                                                                                                        000000000000000000
F0010000006952000002000080023327700041450500000000000000000201503230002001DISINCO LTDA                                      C000000001800000000000000000000000100010010000000000000000000000F0010000006952000220150323000101 00000000000000000000000000000000000000000000000000000000000000000000000000000000000000000000000000000000000000000N 00000000000NCONT   00    00000000000          00000000000000000000000000000000000000000000 000000000000000A000000000000000000000000000000000000000000000 000000000000000000000000000000000000000     00000000                                                                                                                        000000000000000000
F0010000006952000003000080023327700042505000000000000000000201503230002001DISINCO LTDA                                      C000000000050000000000000000000000100010010000000000000000000000F0010000006952000320150323000101 00000000000000000000000000000000000000000000000000000000000000000000000000000000000000000000000000000000000000000N 00000000000NCONT   00    00000000000          00000000000000000000000000000000000000000000 000000000000000A000000000000000000000000000000000000000000000 000000000000000000000000000000000000000     00000000                                                                                                                        000000000000000000
F0010000006952000004000080023327700023658300000000000000000201503230002001DISINCO LTDA                                      C000000000014400000000000000000000100010010000000000000000000000F0010000006952000420150323000101 00000000000000000000000000000000000000000000000000000000000000000000000000000000000000000000000000000000000000000N 00000000000NCONT   00    00000000000          00000000000000000000000000000000000000000000 000000000000000A000000000000000000000000000000000000000000000 000000000000000000000000000000000000000     00000000                                                                                                                        000000000000000000
F0010000006952000005000080023327700013552100000000000000000201503230002001DISINCO LTDA                                      D000000000014400000000000000000000100010010000000000000000000000F0010000006952000520150323000101 00000000000000000000000000000000000000000000000000000000000000000000000000000000000000000000000000000000000000000N 00000000000NCONT   00    00000000000          00000000000000000000000000000000000000000000 000000000000000A000000000000000000000000000000000000000000000 000000000000000000000000000000000000000     00000000                                                                                                                        000000000000000000
F0010000006952100001000090034602400011050500000000000000000201503230002001LA CUSTODIA                                       D000000001000000000000000000000000100010010000000000000000000000F0010000006952100120150323000101 00000000000000000000000000000000000000000000000000000000000000000000000000000000000000000000000000000000000000000N 00000000000NCONT   00    00000000000          00000000000000000000000000000000000000000000 000000000000000A000000000000000000000000000000000000000000000 000000000000000000000000000000000000000     00000000                                                                                                                        000000000000000000
F0010000006952100002000090034602400041450500000000000000000201503230002001LA CUSTODIA                                       C000000000900000000000000000000000100010010000000000000000000000F0010000006952100220150323000101 00000000000000000000000000000000000000000000000000000000000000000000000000000000000000000000000000000000000000000N 00000000000NCONT   00    00000000000          00000000000000000000000000000000000000000000 000000000000000A000000000000000000000000000000000000000000000 000000000000000000000000000000000000000     00000000                                                                                                                        000000000000000000
F0010000006952100003000090034602400042505000000000000000000201503230002001LA CUSTODIA                                       C000000000100000000000000000000000100010010000000000000000000000F0010000006952100320150323000101 00000000000000000000000000000000000000000000000000000000000000000000000000000000000000000000000000000000000000000N 00000000000NCONT   00    00000000000          00000000000000000000000000000000000000000000 000000000000000A000000000000000000000000000000000000000000000 000000000000000000000000000000000000000     00000000                                                                                                                        000000000000000000
F0010000006952100004000090034602400023658300000000000000000201503230002001LA CUSTODIA                                       C000000000007200000000000000000000100010010000000000000000000000F0010000006952100420150323000101 00000000000000000000000000000000000000000000000000000000000000000000000000000000000000000000000000000000000000000N 00000000000NCONT   00    00000000000          00000000000000000000000000000000000000000000 000000000000000A000000000000000000000000000000000000000000000 000000000000000000000000000000000000000     00000000                                                                                                                        000000000000000000
F0010000006952100005000090034602400013552100000000000000000201503230002001LA CUSTODIA                                       D000000000007200000000000000000000100010010000000000000000000000F0010000006952100520150323000101 00000000000000000000000000000000000000000000000000000000000000000000000000000000000000000000000000000000000000000N 00000000000NCONT   00    00000000000          00000000000000000000000000000000000000000000 000000000000000A000000000000000000000000000000000000000000000 000000000000000000000000000000000000000     00000000                                                                                                                        000000000000000000
