F0010000009461800001000009149922500011050500000000000000000201611240002001CARLOS DAVID HERNANDEZ A                          D000000001400000000000000000000000100010010000000000000000000000F0019461800120161124000101 00000000000000000000000000000000000000000000000000000000000000000000000000000000000000000000000000000000000000000N 00000000000NCONT   00    00000000000          00000000000000000000000000000000000000000000 000000000000000A000000000000000000000000000000000000000000000 000000000000000000000000000000000000000     00000000                                                                                                                        000000000000000000
F0010000009461800002000009149922500041450500000000000000000201611240002001CARLOS DAVID HERNANDEZ A                          C000000001200000000000000000000000100010010000000000000000000000F0019461800220161124000101 00000000000000000000000000000000000000000000000000000000000000000000000000000000000000000000000000000000000000000N 00000000000NCONT   00    00000000000          00000000000000000000000000000000000000000000 000000000000000A000000000000000000000000000000000000000000000 000000000000000000000000000000000000000     00000000                                                                                                                        000000000000000000
F0010000009461800003000009149922500042505000000000000000000201611240002001CARLOS DAVID HERNANDEZ A                          C000000000200000000000000000000000100010010000000000000000000000F0019461800320161124000101 00000000000000000000000000000000000000000000000000000000000000000000000000000000000000000000000000000000000000000N 00000000000NCONT   00    00000000000          00000000000000000000000000000000000000000000 000000000000000A000000000000000000000000000000000000000000000 000000000000000000000000000000000000000     00000000                                                                                                                        000000000000000000
F0010000009461800004000009149922500023658300000000000000000201611240002001CARLOS DAVID HERNANDEZ A                          C000000000009600000000000000000000100010010000000000000000000000F0019461800420161124000101 00000000000000000000000000000000000000000000000000000000000000000000000000000000000000000000000000000000000000000N 00000000000NCONT   00    00000000000          00000000000000000000000000000000000000000000 000000000000000A000000000000000000000000000000000000000000000 000000000000000000000000000000000000000     00000000                                                                                                                        000000000000000000
F0010000009461800005000009149922500013552100000000000000000201611240002001CARLOS DAVID HERNANDEZ A                          D000000000009600000000000000000000100010010000000000000000000000F0019461800520161124000101 00000000000000000000000000000000000000000000000000000000000000000000000000000000000000000000000000000000000000000N 00000000000NCONT   00    00000000000          00000000000000000000000000000000000000000000 000000000000000A000000000000000000000000000000000000000000000 000000000000000000000000000000000000000     00000000                                                                                                                        000000000000000000
F0010000009461900001000000870907300011050500000000000000000201611240002001SURTIDOR FERRETERO                                D000000004000000000000000000000000100010010000000000000000000000F0019461900120161124000101 00000000000000000000000000000000000000000000000000000000000000000000000000000000000000000000000000000000000000000N 00000000000NCONT   00    00000000000          00000000000000000000000000000000000000000000 000000000000000A000000000000000000000000000000000000000000000 000000000000000000000000000000000000000     00000000                                                                                                                        000000000000000000
F0010000009461900002000000870907300041450500000000000000000201611240002001SURTIDOR FERRETERO                                C000000003100000000000000000000000100010010000000000000000000000F0019461900220161124000101 00000000000000000000000000000000000000000000000000000000000000000000000000000000000000000000000000000000000000000N 00000000000NCONT   00    00000000000          00000000000000000000000000000000000000000000 000000000000000A000000000000000000000000000000000000000000000 000000000000000000000000000000000000000     00000000                                                                                                                        000000000000000000
F0010000009461900003000000870907300042505000000000000000000201611240002001SURTIDOR FERRETERO                                C000000000900000000000000000000000100010010000000000000000000000F0019461900320161124000101 00000000000000000000000000000000000000000000000000000000000000000000000000000000000000000000000000000000000000000N 00000000000NCONT   00    00000000000          00000000000000000000000000000000000000000000 000000000000000A000000000000000000000000000000000000000000000 000000000000000000000000000000000000000     00000000                                                                                                                        000000000000000000
F0010000009461900004000000870907300023658300000000000000000201611240002001SURTIDOR FERRETERO                                C000000000024800000000000000000000100010010000000000000000000000F0019461900420161124000101 00000000000000000000000000000000000000000000000000000000000000000000000000000000000000000000000000000000000000000N 00000000000NCONT   00    00000000000          00000000000000000000000000000000000000000000 000000000000000A000000000000000000000000000000000000000000000 000000000000000000000000000000000000000     00000000                                                                                                                        000000000000000000
F0010000009461900005000000870907300013552100000000000000000201611240002001SURTIDOR FERRETERO                                D000000000024800000000000000000000100010010000000000000000000000F0019461900520161124000101 00000000000000000000000000000000000000000000000000000000000000000000000000000000000000000000000000000000000000000N 00000000000NCONT   00    00000000000          00000000000000000000000000000000000000000000 000000000000000A000000000000000000000000000000000000000000000 000000000000000000000000000000000000000     00000000                                                                                                                        000000000000000000
