F0010000008140700001000002675958500011050500000000000000000201601200002001MAGOLA ESTHER STAND REBOLLO                       D000000006000000000000000000000000100010010000000000000000000000F0010000008140700120160120000101 00000000000000000000000000000000000000000000000000000000000000000000000000000000000000000000000000000000000000000N 00000000000NCONT   00    00000000000          00000000000000000000000000000000000000000000 000000000000000A000000000000000000000000000000000000000000000 000000000000000000000000000000000000000     00000000                                                                                                                        000000000000000000
F0010000008140700002000002675958500041450500000000000000000201601200002001MAGOLA ESTHER STAND REBOLLO                       C000000005900000000000000000000000100010010000000000000000000000F0010000008140700220160120000101 00000000000000000000000000000000000000000000000000000000000000000000000000000000000000000000000000000000000000000N 00000000000NCONT   00    00000000000          00000000000000000000000000000000000000000000 000000000000000A000000000000000000000000000000000000000000000 000000000000000000000000000000000000000     00000000                                                                                                                        000000000000000000
F0010000008140700003000002675958500042505000000000000000000201601200002001MAGOLA ESTHER STAND REBOLLO                       C000000000100000000000000000000000100010010000000000000000000000F0010000008140700320160120000101 00000000000000000000000000000000000000000000000000000000000000000000000000000000000000000000000000000000000000000N 00000000000NCONT   00    00000000000          00000000000000000000000000000000000000000000 000000000000000A000000000000000000000000000000000000000000000 000000000000000000000000000000000000000     00000000                                                                                                                        000000000000000000
F0010000008140700004000002675958500023658300000000000000000201601200002001MAGOLA ESTHER STAND REBOLLO                       C000000000047200000000000000000000100010010000000000000000000000F0010000008140700420160120000101 00000000000000000000000000000000000000000000000000000000000000000000000000000000000000000000000000000000000000000N 00000000000NCONT   00    00000000000          00000000000000000000000000000000000000000000 000000000000000A000000000000000000000000000000000000000000000 000000000000000000000000000000000000000     00000000                                                                                                                        000000000000000000
F0010000008140700005000002675958500013552100000000000000000201601200002001MAGOLA ESTHER STAND REBOLLO                       D000000000047200000000000000000000100010010000000000000000000000F0010000008140700520160120000101 00000000000000000000000000000000000000000000000000000000000000000000000000000000000000000000000000000000000000000N 00000000000NCONT   00    00000000000          00000000000000000000000000000000000000000000 000000000000000A000000000000000000000000000000000000000000000 000000000000000000000000000000000000000     00000000                                                                                                                        000000000000000000
F0010000008140800001000007016511700011050500000000000000000201601200002001YEISON CASTAÑO                                   D000000001600000000000000000000000100010010000000000000000000000F0010000008140800120160120000101 00000000000000000000000000000000000000000000000000000000000000000000000000000000000000000000000000000000000000000N 00000000000NCONT   00    00000000000          00000000000000000000000000000000000000000000 000000000000000A000000000000000000000000000000000000000000000 000000000000000000000000000000000000000     00000000                                                                                                                        000000000000000000
F0010000008140800002000007016511700041450500000000000000000201601200002001YEISON CASTAÑO                                   C000000001500000000000000000000000100010010000000000000000000000F0010000008140800220160120000101 00000000000000000000000000000000000000000000000000000000000000000000000000000000000000000000000000000000000000000N 00000000000NCONT   00    00000000000          00000000000000000000000000000000000000000000 000000000000000A000000000000000000000000000000000000000000000 000000000000000000000000000000000000000     00000000                                                                                                                        000000000000000000
F0010000008140800003000007016511700042505000000000000000000201601200002001YEISON CASTAÑO                                   C000000000100000000000000000000000100010010000000000000000000000F0010000008140800320160120000101 00000000000000000000000000000000000000000000000000000000000000000000000000000000000000000000000000000000000000000N 00000000000NCONT   00    00000000000          00000000000000000000000000000000000000000000 000000000000000A000000000000000000000000000000000000000000000 000000000000000000000000000000000000000     00000000                                                                                                                        000000000000000000
F0010000008140800004000007016511700023658300000000000000000201601200002001YEISON CASTAÑO                                   C000000000012000000000000000000000100010010000000000000000000000F0010000008140800420160120000101 00000000000000000000000000000000000000000000000000000000000000000000000000000000000000000000000000000000000000000N 00000000000NCONT   00    00000000000          00000000000000000000000000000000000000000000 000000000000000A000000000000000000000000000000000000000000000 000000000000000000000000000000000000000     00000000                                                                                                                        000000000000000000
F0010000008140800005000007016511700013552100000000000000000201601200002001YEISON CASTAÑO                                   D000000000012000000000000000000000100010010000000000000000000000F0010000008140800520160120000101 00000000000000000000000000000000000000000000000000000000000000000000000000000000000000000000000000000000000000000N 00000000000NCONT   00    00000000000          00000000000000000000000000000000000000000000 000000000000000A000000000000000000000000000000000000000000000 000000000000000000000000000000000000000     00000000                                                                                                                        000000000000000000
F0010000008140900001000080200069100013050500000000000000000201601200002001PEGANTES Y PINTURAS ATLAS LTDA                    D000000008103400000000000000000000100010010000000000000000000000F0010000008140900120160120000101 00000000000000000000000000000000000000000000000000000000000000000000000000000000000000000000000000000000000000000N 00000000000NCONT   00    00000000000          00000000000000000000000000000000000000000000 000000000000000A000000000000000000000000000000000000000000000 000000000000000000000000000000000000000     00000000                                                                                                                        000000000000000000
F0010000008140900002000080200069100041450500000000000000000201601200002001PEGANTES Y PINTURAS ATLAS LTDA                    C000000007000000000000000000000000100010010000000000000000000000F0010000008140900220160120000101 00000000000000000000000000000000000000000000000000000000000000000000000000000000000000000000000000000000000000000N 00000000000NCONT   00    00000000000          00000000000000000000000000000000000000000000 000000000000000A000000000000000000000000000000000000000000000 000000000000000000000000000000000000000     00000000                                                                                                                        000000000000000000
F0010000008140900003000080200069100042505000000000000000000201601200002001PEGANTES Y PINTURAS ATLAS LTDA                    C000000001103400000000000000000000100010010000000000000000000000F0010000008140900320160120000101 00000000000000000000000000000000000000000000000000000000000000000000000000000000000000000000000000000000000000000N 00000000000NCONT   00    00000000000          00000000000000000000000000000000000000000000 000000000000000A000000000000000000000000000000000000000000000 000000000000000000000000000000000000000     00000000                                                                                                                        000000000000000000
F0010000008140900004000080200069100023658300000000000000000201601200002001PEGANTES Y PINTURAS ATLAS LTDA                    C000000000056000000000000000000000100010010000000000000000000000F0010000008140900420160120000101 00000000000000000000000000000000000000000000000000000000000000000000000000000000000000000000000000000000000000000N 00000000000NCONT   00    00000000000          00000000000000000000000000000000000000000000 000000000000000A000000000000000000000000000000000000000000000 000000000000000000000000000000000000000     00000000                                                                                                                        000000000000000000
F0010000008140900005000080200069100013552100000000000000000201601200002001PEGANTES Y PINTURAS ATLAS LTDA                    D000000000056000000000000000000000100010010000000000000000000000F0010000008140900520160120000101 00000000000000000000000000000000000000000000000000000000000000000000000000000000000000000000000000000000000000000N 00000000000NCONT   00    00000000000          00000000000000000000000000000000000000000000 000000000000000A000000000000000000000000000000000000000000000 000000000000000000000000000000000000000     00000000                                                                                                                        000000000000000000
F0010000008141000001000090085938800013050500000000000000000201601200002001COALUM COSTA ATLANTICA SAS                        D000000035370000000000000000000000100010010000000000000000000000F0010000008141000120160120000101 00000000000000000000000000000000000000000000000000000000000000000000000000000000000000000000000000000000000000000N 00000000000NCONT   00    00000000000          00000000000000000000000000000000000000000000 000000000000000A000000000000000000000000000000000000000000000 000000000000000000000000000000000000000     00000000                                                                                                                        000000000000000000
F0010000008141000002000090085938800041450500000000000000000201601200002001COALUM COSTA ATLANTICA SAS                        C000000035070000000000000000000000100010010000000000000000000000F0010000008141000220160120000101 00000000000000000000000000000000000000000000000000000000000000000000000000000000000000000000000000000000000000000N 00000000000NCONT   00    00000000000          00000000000000000000000000000000000000000000 000000000000000A000000000000000000000000000000000000000000000 000000000000000000000000000000000000000     00000000                                                                                                                        000000000000000000
F0010000008141000003000090085938800042505000000000000000000201601200002001COALUM COSTA ATLANTICA SAS                        C000000000300000000000000000000000100010010000000000000000000000F0010000008141000320160120000101 00000000000000000000000000000000000000000000000000000000000000000000000000000000000000000000000000000000000000000N 00000000000NCONT   00    00000000000          00000000000000000000000000000000000000000000 000000000000000A000000000000000000000000000000000000000000000 000000000000000000000000000000000000000     00000000                                                                                                                        000000000000000000
F0010000008141000004000090085938800023658300000000000000000201601200002001COALUM COSTA ATLANTICA SAS                        C000000000280600000000000000000000100010010000000000000000000000F0010000008141000420160120000101 00000000000000000000000000000000000000000000000000000000000000000000000000000000000000000000000000000000000000000N 00000000000NCONT   00    00000000000          00000000000000000000000000000000000000000000 000000000000000A000000000000000000000000000000000000000000000 000000000000000000000000000000000000000     00000000                                                                                                                        000000000000000000
F0010000008141000005000090085938800013552100000000000000000201601200002001COALUM COSTA ATLANTICA SAS                        D000000000280600000000000000000000100010010000000000000000000000F0010000008141000520160120000101 00000000000000000000000000000000000000000000000000000000000000000000000000000000000000000000000000000000000000000N 00000000000NCONT   00    00000000000          00000000000000000000000000000000000000000000 000000000000000A000000000000000000000000000000000000000000000 000000000000000000000000000000000000000     00000000                                                                                                                        000000000000000000
F0010000008141100001000090049854300013050500000000000000000201601200002001TRAPOS INDUSTRIALES DE COLOMBIA SAS               D000000047636100000000000000000000100010010000000000000000000000F0010000008141100120160120000101 00000000000000000000000000000000000000000000000000000000000000000000000000000000000000000000000000000000000000000N 00000000000NCONT   00    00000000000          00000000000000000000000000000000000000000000 000000000000000A000000000000000000000000000000000000000000000 000000000000000000000000000000000000000     00000000                                                                                                                        000000000000000000
F0010000008141100002000090049854300041450500000000000000000201601200002001TRAPOS INDUSTRIALES DE COLOMBIA SAS               C000000045000000000000000000000000100010010000000000000000000000F0010000008141100220160120000101 00000000000000000000000000000000000000000000000000000000000000000000000000000000000000000000000000000000000000000N 00000000000NCONT   00    00000000000          00000000000000000000000000000000000000000000 000000000000000A000000000000000000000000000000000000000000000 000000000000000000000000000000000000000     00000000                                                                                                                        000000000000000000
F0010000008141100003000090049854300042505000000000000000000201601200002001TRAPOS INDUSTRIALES DE COLOMBIA SAS               C000000002636100000000000000000000100010010000000000000000000000F0010000008141100320160120000101 00000000000000000000000000000000000000000000000000000000000000000000000000000000000000000000000000000000000000000N 00000000000NCONT   00    00000000000          00000000000000000000000000000000000000000000 000000000000000A000000000000000000000000000000000000000000000 000000000000000000000000000000000000000     00000000                                                                                                                        000000000000000000
F0010000008141100004000090049854300023658300000000000000000201601200002001TRAPOS INDUSTRIALES DE COLOMBIA SAS               C000000000360000000000000000000000100010010000000000000000000000F0010000008141100420160120000101 00000000000000000000000000000000000000000000000000000000000000000000000000000000000000000000000000000000000000000N 00000000000NCONT   00    00000000000          00000000000000000000000000000000000000000000 000000000000000A000000000000000000000000000000000000000000000 000000000000000000000000000000000000000     00000000                                                                                                                        000000000000000000
F0010000008141100005000090049854300013552100000000000000000201601200002001TRAPOS INDUSTRIALES DE COLOMBIA SAS               D000000000360000000000000000000000100010010000000000000000000000F0010000008141100520160120000101 00000000000000000000000000000000000000000000000000000000000000000000000000000000000000000000000000000000000000000N 00000000000NCONT   00    00000000000          00000000000000000000000000000000000000000000 000000000000000A000000000000000000000000000000000000000000000 000000000000000000000000000000000000000     00000000                                                                                                                        000000000000000000
F0010000008141300001000002245670100013050500000000000000000201601200002001YOLANDA  TOBON                                    D000000010351600000000000000000000100010010000000000000000000000F0010000008141300120160120000101 00000000000000000000000000000000000000000000000000000000000000000000000000000000000000000000000000000000000000000N 00000000000NCONT   00    00000000000          00000000000000000000000000000000000000000000 000000000000000A000000000000000000000000000000000000000000000 000000000000000000000000000000000000000     00000000                                                                                                                        000000000000000000
F0010000008141300002000002245670100041450500000000000000000201601200002001YOLANDA  TOBON                                    C000000008200000000000000000000000100010010000000000000000000000F0010000008141300220160120000101 00000000000000000000000000000000000000000000000000000000000000000000000000000000000000000000000000000000000000000N 00000000000NCONT   00    00000000000          00000000000000000000000000000000000000000000 000000000000000A000000000000000000000000000000000000000000000 000000000000000000000000000000000000000     00000000                                                                                                                        000000000000000000
F0010000008141300003000002245670100042505000000000000000000201601200002001YOLANDA  TOBON                                    C000000002151600000000000000000000100010010000000000000000000000F0010000008141300320160120000101 00000000000000000000000000000000000000000000000000000000000000000000000000000000000000000000000000000000000000000N 00000000000NCONT   00    00000000000          00000000000000000000000000000000000000000000 000000000000000A000000000000000000000000000000000000000000000 000000000000000000000000000000000000000     00000000                                                                                                                        000000000000000000
F0010000008141300004000002245670100023658300000000000000000201601200002001YOLANDA  TOBON                                    C000000000065600000000000000000000100010010000000000000000000000F0010000008141300420160120000101 00000000000000000000000000000000000000000000000000000000000000000000000000000000000000000000000000000000000000000N 00000000000NCONT   00    00000000000          00000000000000000000000000000000000000000000 000000000000000A000000000000000000000000000000000000000000000 000000000000000000000000000000000000000     00000000                                                                                                                        000000000000000000
F0010000008141300005000002245670100013552100000000000000000201601200002001YOLANDA  TOBON                                    D000000000065600000000000000000000100010010000000000000000000000F0010000008141300520160120000101 00000000000000000000000000000000000000000000000000000000000000000000000000000000000000000000000000000000000000000N 00000000000NCONT   00    00000000000          00000000000000000000000000000000000000000000 000000000000000A000000000000000000000000000000000000000000000 000000000000000000000000000000000000000     00000000                                                                                                                        000000000000000000
F0010000008141400001000090009800500013050500000000000000000201601200002001GLORIANT CHEMICAL DE COLOMBIA LTDA                D000000040561000000000000000000000100010010000000000000000000000F0010000008141400120160120000101 00000000000000000000000000000000000000000000000000000000000000000000000000000000000000000000000000000000000000000N 00000000000NCONT   00    00000000000          00000000000000000000000000000000000000000000 000000000000000A000000000000000000000000000000000000000000000 000000000000000000000000000000000000000     00000000                                                                                                                        000000000000000000
F0010000008141400002000090009800500041450500000000000000000201601200002001GLORIANT CHEMICAL DE COLOMBIA LTDA                C000000031320000000000000000000000100010010000000000000000000000F0010000008141400220160120000101 00000000000000000000000000000000000000000000000000000000000000000000000000000000000000000000000000000000000000000N 00000000000NCONT   00    00000000000          00000000000000000000000000000000000000000000 000000000000000A000000000000000000000000000000000000000000000 000000000000000000000000000000000000000     00000000                                                                                                                        000000000000000000
F0010000008141400003000090009800500042505000000000000000000201601200002001GLORIANT CHEMICAL DE COLOMBIA LTDA                C000000009241000000000000000000000100010010000000000000000000000F0010000008141400320160120000101 00000000000000000000000000000000000000000000000000000000000000000000000000000000000000000000000000000000000000000N 00000000000NCONT   00    00000000000          00000000000000000000000000000000000000000000 000000000000000A000000000000000000000000000000000000000000000 000000000000000000000000000000000000000     00000000                                                                                                                        000000000000000000
F0010000008141400004000090009800500023658300000000000000000201601200002001GLORIANT CHEMICAL DE COLOMBIA LTDA                C000000000250600000000000000000000100010010000000000000000000000F0010000008141400420160120000101 00000000000000000000000000000000000000000000000000000000000000000000000000000000000000000000000000000000000000000N 00000000000NCONT   00    00000000000          00000000000000000000000000000000000000000000 000000000000000A000000000000000000000000000000000000000000000 000000000000000000000000000000000000000     00000000                                                                                                                        000000000000000000
F0010000008141400005000090009800500013552100000000000000000201601200002001GLORIANT CHEMICAL DE COLOMBIA LTDA                D000000000250600000000000000000000100010010000000000000000000000F0010000008141400520160120000101 00000000000000000000000000000000000000000000000000000000000000000000000000000000000000000000000000000000000000000N 00000000000NCONT   00    00000000000          00000000000000000000000000000000000000000000 000000000000000A000000000000000000000000000000000000000000000 000000000000000000000000000000000000000     00000000                                                                                                                        000000000000000000
F0010000008141500001000000820323500011050500000000000000000201601200002001EFRAIN OROZCO PINEDA                              D000000012000000000000000000000000100010010000000000000000000000F0010000008141500120160120000101 00000000000000000000000000000000000000000000000000000000000000000000000000000000000000000000000000000000000000000N 00000000000NCONT   00    00000000000          00000000000000000000000000000000000000000000 000000000000000A000000000000000000000000000000000000000000000 000000000000000000000000000000000000000     00000000                                                                                                                        000000000000000000
F0010000008141500002000000820323500041450500000000000000000201601200002001EFRAIN OROZCO PINEDA                              C000000011300000000000000000000000100010010000000000000000000000F0010000008141500220160120000101 00000000000000000000000000000000000000000000000000000000000000000000000000000000000000000000000000000000000000000N 00000000000NCONT   00    00000000000          00000000000000000000000000000000000000000000 000000000000000A000000000000000000000000000000000000000000000 000000000000000000000000000000000000000     00000000                                                                                                                        000000000000000000
F0010000008141500003000000820323500042505000000000000000000201601200002001EFRAIN OROZCO PINEDA                              C000000000700000000000000000000000100010010000000000000000000000F0010000008141500320160120000101 00000000000000000000000000000000000000000000000000000000000000000000000000000000000000000000000000000000000000000N 00000000000NCONT   00    00000000000          00000000000000000000000000000000000000000000 000000000000000A000000000000000000000000000000000000000000000 000000000000000000000000000000000000000     00000000                                                                                                                        000000000000000000
F0010000008141500004000000820323500023658300000000000000000201601200002001EFRAIN OROZCO PINEDA                              C000000000090400000000000000000000100010010000000000000000000000F0010000008141500420160120000101 00000000000000000000000000000000000000000000000000000000000000000000000000000000000000000000000000000000000000000N 00000000000NCONT   00    00000000000          00000000000000000000000000000000000000000000 000000000000000A000000000000000000000000000000000000000000000 000000000000000000000000000000000000000     00000000                                                                                                                        000000000000000000
F0010000008141500005000000820323500013552100000000000000000201601200002001EFRAIN OROZCO PINEDA                              D000000000090400000000000000000000100010010000000000000000000000F0010000008141500520160120000101 00000000000000000000000000000000000000000000000000000000000000000000000000000000000000000000000000000000000000000N 00000000000NCONT   00    00000000000          00000000000000000000000000000000000000000000 000000000000000A000000000000000000000000000000000000000000000 000000000000000000000000000000000000000     00000000                                                                                                                        000000000000000000
F0010000008141600001000080200863700013050500000000000000000201601200002001COPIN S.A.S                                       D000000090841500000000000000000000100010010000000000000000000000F0010000008141600120160120000101 00000000000000000000000000000000000000000000000000000000000000000000000000000000000000000000000000000000000000000N 00000000000NCONT   00    00000000000          00000000000000000000000000000000000000000000 000000000000000A000000000000000000000000000000000000000000000 000000000000000000000000000000000000000     00000000                                                                                                                        000000000000000000
F0010000008141600002000080200863700041450500000000000000000201601200002001COPIN S.A.S                                       C000000081330000000000000000000000100010010000000000000000000000F0010000008141600220160120000101 00000000000000000000000000000000000000000000000000000000000000000000000000000000000000000000000000000000000000000N 00000000000NCONT   00    00000000000          00000000000000000000000000000000000000000000 000000000000000A000000000000000000000000000000000000000000000 000000000000000000000000000000000000000     00000000                                                                                                                        000000000000000000
F0010000008141600003000080200863700042505000000000000000000201601200002001COPIN S.A.S                                       C000000009511500000000000000000000100010010000000000000000000000F0010000008141600320160120000101 00000000000000000000000000000000000000000000000000000000000000000000000000000000000000000000000000000000000000000N 00000000000NCONT   00    00000000000          00000000000000000000000000000000000000000000 000000000000000A000000000000000000000000000000000000000000000 000000000000000000000000000000000000000     00000000                                                                                                                        000000000000000000
F0010000008141600004000080200863700023658300000000000000000201601200002001COPIN S.A.S                                       C000000000650600000000000000000000100010010000000000000000000000F0010000008141600420160120000101 00000000000000000000000000000000000000000000000000000000000000000000000000000000000000000000000000000000000000000N 00000000000NCONT   00    00000000000          00000000000000000000000000000000000000000000 000000000000000A000000000000000000000000000000000000000000000 000000000000000000000000000000000000000     00000000                                                                                                                        000000000000000000
F0010000008141600005000080200863700013552100000000000000000201601200002001COPIN S.A.S                                       D000000000650600000000000000000000100010010000000000000000000000F0010000008141600520160120000101 00000000000000000000000000000000000000000000000000000000000000000000000000000000000000000000000000000000000000000N 00000000000NCONT   00    00000000000          00000000000000000000000000000000000000000000 000000000000000A000000000000000000000000000000000000000000000 000000000000000000000000000000000000000     00000000                                                                                                                        000000000000000000
F0010000008141700001000089011069100013050500000000000000000201601200002001LA CASA DE LAS ALFOMBRAS LTDA                     D000000021000000000000000000000000100010010000000000000000000000F0010000008141700120160120000101 00000000000000000000000000000000000000000000000000000000000000000000000000000000000000000000000000000000000000000N 00000000000NCONT   00    00000000000          00000000000000000000000000000000000000000000 000000000000000A000000000000000000000000000000000000000000000 000000000000000000000000000000000000000     00000000                                                                                                                        000000000000000000
F0010000008141700002000089011069100041450500000000000000000201601200002001LA CASA DE LAS ALFOMBRAS LTDA                     C000000018000000000000000000000000100010010000000000000000000000F0010000008141700220160120000101 00000000000000000000000000000000000000000000000000000000000000000000000000000000000000000000000000000000000000000N 00000000000NCONT   00    00000000000          00000000000000000000000000000000000000000000 000000000000000A000000000000000000000000000000000000000000000 000000000000000000000000000000000000000     00000000                                                                                                                        000000000000000000
F0010000008141700003000089011069100042505000000000000000000201601200002001LA CASA DE LAS ALFOMBRAS LTDA                     C000000003000000000000000000000000100010010000000000000000000000F0010000008141700320160120000101 00000000000000000000000000000000000000000000000000000000000000000000000000000000000000000000000000000000000000000N 00000000000NCONT   00    00000000000          00000000000000000000000000000000000000000000 000000000000000A000000000000000000000000000000000000000000000 000000000000000000000000000000000000000     00000000                                                                                                                        000000000000000000
F0010000008141700004000089011069100023658300000000000000000201601200002001LA CASA DE LAS ALFOMBRAS LTDA                     C000000000144000000000000000000000100010010000000000000000000000F0010000008141700420160120000101 00000000000000000000000000000000000000000000000000000000000000000000000000000000000000000000000000000000000000000N 00000000000NCONT   00    00000000000          00000000000000000000000000000000000000000000 000000000000000A000000000000000000000000000000000000000000000 000000000000000000000000000000000000000     00000000                                                                                                                        000000000000000000
F0010000008141700005000089011069100013552100000000000000000201601200002001LA CASA DE LAS ALFOMBRAS LTDA                     D000000000144000000000000000000000100010010000000000000000000000F0010000008141700520160120000101 00000000000000000000000000000000000000000000000000000000000000000000000000000000000000000000000000000000000000000N 00000000000NCONT   00    00000000000          00000000000000000000000000000000000000000000 000000000000000A000000000000000000000000000000000000000000000 000000000000000000000000000000000000000     00000000                                                                                                                        000000000000000000
F0010000008141800001000000870053600011050500000000000000000201601200002001FARID ARRIETA                                     D000000001100000000000000000000000100010010000000000000000000000F0010000008141800120160120000101 00000000000000000000000000000000000000000000000000000000000000000000000000000000000000000000000000000000000000000N 00000000000NCONT   00    00000000000          00000000000000000000000000000000000000000000 000000000000000A000000000000000000000000000000000000000000000 000000000000000000000000000000000000000     00000000                                                                                                                        000000000000000000
F0010000008141800002000000870053600041450500000000000000000201601200002001FARID ARRIETA                                     C000000001000000000000000000000000100010010000000000000000000000F0010000008141800220160120000101 00000000000000000000000000000000000000000000000000000000000000000000000000000000000000000000000000000000000000000N 00000000000NCONT   00    00000000000          00000000000000000000000000000000000000000000 000000000000000A000000000000000000000000000000000000000000000 000000000000000000000000000000000000000     00000000                                                                                                                        000000000000000000
F0010000008141800003000000870053600042505000000000000000000201601200002001FARID ARRIETA                                     C000000000100000000000000000000000100010010000000000000000000000F0010000008141800320160120000101 00000000000000000000000000000000000000000000000000000000000000000000000000000000000000000000000000000000000000000N 00000000000NCONT   00    00000000000          00000000000000000000000000000000000000000000 000000000000000A000000000000000000000000000000000000000000000 000000000000000000000000000000000000000     00000000                                                                                                                        000000000000000000
F0010000008141800004000000870053600023658300000000000000000201601200002001FARID ARRIETA                                     C000000000008000000000000000000000100010010000000000000000000000F0010000008141800420160120000101 00000000000000000000000000000000000000000000000000000000000000000000000000000000000000000000000000000000000000000N 00000000000NCONT   00    00000000000          00000000000000000000000000000000000000000000 000000000000000A000000000000000000000000000000000000000000000 000000000000000000000000000000000000000     00000000                                                                                                                        000000000000000000
F0010000008141800005000000870053600013552100000000000000000201601200002001FARID ARRIETA                                     D000000000008000000000000000000000100010010000000000000000000000F0010000008141800520160120000101 00000000000000000000000000000000000000000000000000000000000000000000000000000000000000000000000000000000000000000N 00000000000NCONT   00    00000000000          00000000000000000000000000000000000000000000 000000000000000A000000000000000000000000000000000000000000000 000000000000000000000000000000000000000     00000000                                                                                                                        000000000000000000
F0010000008141900001000081102758700013050500000000000000000201601200002001C.I. ABRACOL S.A EMA                              D000000084807000000000000000000000100010010000000000000000000000F0010000008141900120160120000101 00000000000000000000000000000000000000000000000000000000000000000000000000000000000000000000000000000000000000000N 00000000000NCONT   00    00000000000          00000000000000000000000000000000000000000000 000000000000000A000000000000000000000000000000000000000000000 000000000000000000000000000000000000000     00000000                                                                                                                        000000000000000000
F0010000008141900002000081102758700041450500000000000000000201601200002001C.I. ABRACOL S.A EMA                              C000000052110000000000000000000000100010010000000000000000000000F0010000008141900220160120000101 00000000000000000000000000000000000000000000000000000000000000000000000000000000000000000000000000000000000000000N 00000000000NCONT   00    00000000000          00000000000000000000000000000000000000000000 000000000000000A000000000000000000000000000000000000000000000 000000000000000000000000000000000000000     00000000                                                                                                                        000000000000000000
F0010000008141900003000081102758700041750100000000000000000201601200002001C.I. ABRACOL S.A EMA                              D000000001563300000000000000000000100010010000000000000000000000F0010000008141900320160120000101 00000000000000000000000000000000000000000000000000000000000000000000000000000000000000000000000000000000000000000N 00000000000NCONT   00    00000000000          00000000000000000000000000000000000000000000 000000000000000A000000000000000000000000000000000000000000000 000000000000000000000000000000000000000     00000000                                                                                                                        000000000000000000
F0010000008141900004000081102758700042505000000000000000000201601200002001C.I. ABRACOL S.A EMA                              C000000034260300000000000000000000100010010000000000000000000000F0010000008141900420160120000101 00000000000000000000000000000000000000000000000000000000000000000000000000000000000000000000000000000000000000000N 00000000000NCONT   00    00000000000          00000000000000000000000000000000000000000000 000000000000000A000000000000000000000000000000000000000000000 000000000000000000000000000000000000000     00000000                                                                                                                        000000000000000000
F0010000008141900005000081102758700023658300000000000000000201601200002001C.I. ABRACOL S.A EMA                              C000000000416900000000000000000000100010010000000000000000000000F0010000008141900520160120000101 00000000000000000000000000000000000000000000000000000000000000000000000000000000000000000000000000000000000000000N 00000000000NCONT   00    00000000000          00000000000000000000000000000000000000000000 000000000000000A000000000000000000000000000000000000000000000 000000000000000000000000000000000000000     00000000                                                                                                                        000000000000000000
F0010000008141900006000081102758700013552100000000000000000201601200002001C.I. ABRACOL S.A EMA                              D000000000416900000000000000000000100010010000000000000000000000F0010000008141900620160120000101 00000000000000000000000000000000000000000000000000000000000000000000000000000000000000000000000000000000000000000N 00000000000NCONT   00    00000000000          00000000000000000000000000000000000000000000 000000000000000A000000000000000000000000000000000000000000000 000000000000000000000000000000000000000     00000000                                                                                                                        000000000000000000
F0010000008142000001000090073498600011050500000000000000000201601200002001VALTAC S.A.S                                      D000000005000000000000000000000000100010010000000000000000000000F0010000008142000120160120000101 00000000000000000000000000000000000000000000000000000000000000000000000000000000000000000000000000000000000000000N 00000000000NCONT   00    00000000000          00000000000000000000000000000000000000000000 000000000000000A000000000000000000000000000000000000000000000 000000000000000000000000000000000000000     00000000                                                                                                                        000000000000000000
F0010000008142000002000090073498600041450500000000000000000201601200002001VALTAC S.A.S                                      C000000004700000000000000000000000100010010000000000000000000000F0010000008142000220160120000101 00000000000000000000000000000000000000000000000000000000000000000000000000000000000000000000000000000000000000000N 00000000000NCONT   00    00000000000          00000000000000000000000000000000000000000000 000000000000000A000000000000000000000000000000000000000000000 000000000000000000000000000000000000000     00000000                                                                                                                        000000000000000000
F0010000008142000003000090073498600042505000000000000000000201601200002001VALTAC S.A.S                                      C000000000300000000000000000000000100010010000000000000000000000F0010000008142000320160120000101 00000000000000000000000000000000000000000000000000000000000000000000000000000000000000000000000000000000000000000N 00000000000NCONT   00    00000000000          00000000000000000000000000000000000000000000 000000000000000A000000000000000000000000000000000000000000000 000000000000000000000000000000000000000     00000000                                                                                                                        000000000000000000
F0010000008142000004000090073498600023658300000000000000000201601200002001VALTAC S.A.S                                      C000000000037600000000000000000000100010010000000000000000000000F0010000008142000420160120000101 00000000000000000000000000000000000000000000000000000000000000000000000000000000000000000000000000000000000000000N 00000000000NCONT   00    00000000000          00000000000000000000000000000000000000000000 000000000000000A000000000000000000000000000000000000000000000 000000000000000000000000000000000000000     00000000                                                                                                                        000000000000000000
F0010000008142000005000090073498600013552100000000000000000201601200002001VALTAC S.A.S                                      D000000000037600000000000000000000100010010000000000000000000000F0010000008142000520160120000101 00000000000000000000000000000000000000000000000000000000000000000000000000000000000000000000000000000000000000000N 00000000000NCONT   00    00000000000          00000000000000000000000000000000000000000000 000000000000000A000000000000000000000000000000000000000000000 000000000000000000000000000000000000000     00000000                                                                                                                        000000000000000000
F0010000008142100001000089070997800013050500000000000000000201601200002001CENTRAL DE TORNILLOS                              D000000014220000000000000000000000100010010000000000000000000000F0010000008142100120160120000101 00000000000000000000000000000000000000000000000000000000000000000000000000000000000000000000000000000000000000000N 00000000000NCONT   00    00000000000          00000000000000000000000000000000000000000000 000000000000000A000000000000000000000000000000000000000000000 000000000000000000000000000000000000000     00000000                                                                                                                        000000000000000000
F0010000008142100002000089070997800041450500000000000000000201601200002001CENTRAL DE TORNILLOS                              C000000012870000000000000000000000100010010000000000000000000000F0010000008142100220160120000101 00000000000000000000000000000000000000000000000000000000000000000000000000000000000000000000000000000000000000000N 00000000000NCONT   00    00000000000          00000000000000000000000000000000000000000000 000000000000000A000000000000000000000000000000000000000000000 000000000000000000000000000000000000000     00000000                                                                                                                        000000000000000000
F0010000008142100003000089070997800042505000000000000000000201601200002001CENTRAL DE TORNILLOS                              C000000001350000000000000000000000100010010000000000000000000000F0010000008142100320160120000101 00000000000000000000000000000000000000000000000000000000000000000000000000000000000000000000000000000000000000000N 00000000000NCONT   00    00000000000          00000000000000000000000000000000000000000000 000000000000000A000000000000000000000000000000000000000000000 000000000000000000000000000000000000000     00000000                                                                                                                        000000000000000000
F0010000008142100004000089070997800023658300000000000000000201601200002001CENTRAL DE TORNILLOS                              C000000000103000000000000000000000100010010000000000000000000000F0010000008142100420160120000101 00000000000000000000000000000000000000000000000000000000000000000000000000000000000000000000000000000000000000000N 00000000000NCONT   00    00000000000          00000000000000000000000000000000000000000000 000000000000000A000000000000000000000000000000000000000000000 000000000000000000000000000000000000000     00000000                                                                                                                        000000000000000000
F0010000008142100005000089070997800013552100000000000000000201601200002001CENTRAL DE TORNILLOS                              D000000000103000000000000000000000100010010000000000000000000000F0010000008142100520160120000101 00000000000000000000000000000000000000000000000000000000000000000000000000000000000000000000000000000000000000000N 00000000000NCONT   00    00000000000          00000000000000000000000000000000000000000000 000000000000000A000000000000000000000000000000000000000000000 000000000000000000000000000000000000000     00000000                                                                                                                        000000000000000000
F0010000008142200001000083001155300013050500000000000000000201601200002001COMERCIALIZADORA RUBEN S LTDA                     D000000012882500000000000000000000100010010000000000000000000000F0010000008142200120160120000101 00000000000000000000000000000000000000000000000000000000000000000000000000000000000000000000000000000000000000000N 00000000000NCONT   00    00000000000          00000000000000000000000000000000000000000000 000000000000000A000000000000000000000000000000000000000000000 000000000000000000000000000000000000000     00000000                                                                                                                        000000000000000000
F0010000008142200002000083001155300041450500000000000000000201601200002001COMERCIALIZADORA RUBEN S LTDA                     C000000011286000000000000000000000100010010000000000000000000000F0010000008142200220160120000101 00000000000000000000000000000000000000000000000000000000000000000000000000000000000000000000000000000000000000000N 00000000000NCONT   00    00000000000          00000000000000000000000000000000000000000000 000000000000000A000000000000000000000000000000000000000000000 000000000000000000000000000000000000000     00000000                                                                                                                        000000000000000000
F0010000008142200003000083001155300042505000000000000000000201601200002001COMERCIALIZADORA RUBEN S LTDA                     C000000001596500000000000000000000100010010000000000000000000000F0010000008142200320160120000101 00000000000000000000000000000000000000000000000000000000000000000000000000000000000000000000000000000000000000000N 00000000000NCONT   00    00000000000          00000000000000000000000000000000000000000000 000000000000000A000000000000000000000000000000000000000000000 000000000000000000000000000000000000000     00000000                                                                                                                        000000000000000000
F0010000008142200004000083001155300023658300000000000000000201601200002001COMERCIALIZADORA RUBEN S LTDA                     C000000000090300000000000000000000100010010000000000000000000000F0010000008142200420160120000101 00000000000000000000000000000000000000000000000000000000000000000000000000000000000000000000000000000000000000000N 00000000000NCONT   00    00000000000          00000000000000000000000000000000000000000000 000000000000000A000000000000000000000000000000000000000000000 000000000000000000000000000000000000000     00000000                                                                                                                        000000000000000000
F0010000008142200005000083001155300013552100000000000000000201601200002001COMERCIALIZADORA RUBEN S LTDA                     D000000000090300000000000000000000100010010000000000000000000000F0010000008142200520160120000101 00000000000000000000000000000000000000000000000000000000000000000000000000000000000000000000000000000000000000000N 00000000000NCONT   00    00000000000          00000000000000000000000000000000000000000000 000000000000000A000000000000000000000000000000000000000000000 000000000000000000000000000000000000000     00000000                                                                                                                        000000000000000000
F0010000008142300001000080200250700013050500000000000000000201601200002001ETICOL SAS                                        D000000010500000000000000000000000100010010000000000000000000000F0010000008142300120160120000101 00000000000000000000000000000000000000000000000000000000000000000000000000000000000000000000000000000000000000000N 00000000000NCONT   00    00000000000          00000000000000000000000000000000000000000000 000000000000000A000000000000000000000000000000000000000000000 000000000000000000000000000000000000000     00000000                                                                                                                        000000000000000000
F0010000008142300002000080200250700041450500000000000000000201601200002001ETICOL SAS                                        C000000010000000000000000000000000100010010000000000000000000000F0010000008142300220160120000101 00000000000000000000000000000000000000000000000000000000000000000000000000000000000000000000000000000000000000000N 00000000000NCONT   00    00000000000          00000000000000000000000000000000000000000000 000000000000000A000000000000000000000000000000000000000000000 000000000000000000000000000000000000000     00000000                                                                                                                        000000000000000000
F0010000008142300003000080200250700042505000000000000000000201601200002001ETICOL SAS                                        C000000000500000000000000000000000100010010000000000000000000000F0010000008142300320160120000101 00000000000000000000000000000000000000000000000000000000000000000000000000000000000000000000000000000000000000000N 00000000000NCONT   00    00000000000          00000000000000000000000000000000000000000000 000000000000000A000000000000000000000000000000000000000000000 000000000000000000000000000000000000000     00000000                                                                                                                        000000000000000000
F0010000008142300004000080200250700023658300000000000000000201601200002001ETICOL SAS                                        C000000000080000000000000000000000100010010000000000000000000000F0010000008142300420160120000101 00000000000000000000000000000000000000000000000000000000000000000000000000000000000000000000000000000000000000000N 00000000000NCONT   00    00000000000          00000000000000000000000000000000000000000000 000000000000000A000000000000000000000000000000000000000000000 000000000000000000000000000000000000000     00000000                                                                                                                        000000000000000000
F0010000008142300005000080200250700013552100000000000000000201601200002001ETICOL SAS                                        D000000000080000000000000000000000100010010000000000000000000000F0010000008142300520160120000101 00000000000000000000000000000000000000000000000000000000000000000000000000000000000000000000000000000000000000000N 00000000000NCONT   00    00000000000          00000000000000000000000000000000000000000000 000000000000000A000000000000000000000000000000000000000000000 000000000000000000000000000000000000000     00000000                                                                                                                        000000000000000000
F0010000008142400001000080004943800013050500000000000000000201601200002001PAPELERIA EL CID S.A.                             D000000017582500000000000000000000100010010000000000000000000000F0010000008142400120160120000101 00000000000000000000000000000000000000000000000000000000000000000000000000000000000000000000000000000000000000000N 00000000000NCONT   00    00000000000          00000000000000000000000000000000000000000000 000000000000000A000000000000000000000000000000000000000000000 000000000000000000000000000000000000000     00000000                                                                                                                        000000000000000000
F0010000008142400002000080004943800041450500000000000000000201601200002001PAPELERIA EL CID S.A.                             C000000011700000000000000000000000100010010000000000000000000000F0010000008142400220160120000101 00000000000000000000000000000000000000000000000000000000000000000000000000000000000000000000000000000000000000000N 00000000000NCONT   00    00000000000          00000000000000000000000000000000000000000000 000000000000000A000000000000000000000000000000000000000000000 000000000000000000000000000000000000000     00000000                                                                                                                        000000000000000000
F0010000008142400003000080004943800042505000000000000000000201601200002001PAPELERIA EL CID S.A.                             C000000005882500000000000000000000100010010000000000000000000000F0010000008142400320160120000101 00000000000000000000000000000000000000000000000000000000000000000000000000000000000000000000000000000000000000000N 00000000000NCONT   00    00000000000          00000000000000000000000000000000000000000000 000000000000000A000000000000000000000000000000000000000000000 000000000000000000000000000000000000000     00000000                                                                                                                        000000000000000000
F0010000008142400004000080004943800023658300000000000000000201601200002001PAPELERIA EL CID S.A.                             C000000000093600000000000000000000100010010000000000000000000000F0010000008142400420160120000101 00000000000000000000000000000000000000000000000000000000000000000000000000000000000000000000000000000000000000000N 00000000000NCONT   00    00000000000          00000000000000000000000000000000000000000000 000000000000000A000000000000000000000000000000000000000000000 000000000000000000000000000000000000000     00000000                                                                                                                        000000000000000000
F0010000008142400005000080004943800013552100000000000000000201601200002001PAPELERIA EL CID S.A.                             D000000000093600000000000000000000100010010000000000000000000000F0010000008142400520160120000101 00000000000000000000000000000000000000000000000000000000000000000000000000000000000000000000000000000000000000000N 00000000000NCONT   00    00000000000          00000000000000000000000000000000000000000000 000000000000000A000000000000000000000000000000000000000000000 000000000000000000000000000000000000000     00000000                                                                                                                        000000000000000000
F0010000008142500001000080023327700013050500000000000000000201601200002001DISINCO LTDA                                      D000000045700000000000000000000000100010010000000000000000000000F0010000008142500120160120000101 00000000000000000000000000000000000000000000000000000000000000000000000000000000000000000000000000000000000000000N 00000000000NCONT   00    00000000000          00000000000000000000000000000000000000000000 000000000000000A000000000000000000000000000000000000000000000 000000000000000000000000000000000000000     00000000                                                                                                                        000000000000000000
F0010000008142500002000080023327700041450500000000000000000201601200002001DISINCO LTDA                                      C000000044000000000000000000000000100010010000000000000000000000F0010000008142500220160120000101 00000000000000000000000000000000000000000000000000000000000000000000000000000000000000000000000000000000000000000N 00000000000NCONT   00    00000000000          00000000000000000000000000000000000000000000 000000000000000A000000000000000000000000000000000000000000000 000000000000000000000000000000000000000     00000000                                                                                                                        000000000000000000
F0010000008142500003000080023327700042505000000000000000000201601200002001DISINCO LTDA                                      C000000001700000000000000000000000100010010000000000000000000000F0010000008142500320160120000101 00000000000000000000000000000000000000000000000000000000000000000000000000000000000000000000000000000000000000000N 00000000000NCONT   00    00000000000          00000000000000000000000000000000000000000000 000000000000000A000000000000000000000000000000000000000000000 000000000000000000000000000000000000000     00000000                                                                                                                        000000000000000000
F0010000008142500004000080023327700023658300000000000000000201601200002001DISINCO LTDA                                      C000000000352000000000000000000000100010010000000000000000000000F0010000008142500420160120000101 00000000000000000000000000000000000000000000000000000000000000000000000000000000000000000000000000000000000000000N 00000000000NCONT   00    00000000000          00000000000000000000000000000000000000000000 000000000000000A000000000000000000000000000000000000000000000 000000000000000000000000000000000000000     00000000                                                                                                                        000000000000000000
F0010000008142500005000080023327700013552100000000000000000201601200002001DISINCO LTDA                                      D000000000352000000000000000000000100010010000000000000000000000F0010000008142500520160120000101 00000000000000000000000000000000000000000000000000000000000000000000000000000000000000000000000000000000000000000N 00000000000NCONT   00    00000000000          00000000000000000000000000000000000000000000 000000000000000A000000000000000000000000000000000000000000000 000000000000000000000000000000000000000     00000000                                                                                                                        000000000000000000
F0010000008142600001000002246751200011050500000000000000000201601200002001DISTRICALZADO DEL CARIBE                          D000000001500000000000000000000000100010010000000000000000000000F0010000008142600120160120000101 00000000000000000000000000000000000000000000000000000000000000000000000000000000000000000000000000000000000000000N 00000000000NCONT   00    00000000000          00000000000000000000000000000000000000000000 000000000000000A000000000000000000000000000000000000000000000 000000000000000000000000000000000000000     00000000                                                                                                                        000000000000000000
F0010000008142600002000002246751200041450500000000000000000201601200002001DISTRICALZADO DEL CARIBE                          C000000001200000000000000000000000100010010000000000000000000000F0010000008142600220160120000101 00000000000000000000000000000000000000000000000000000000000000000000000000000000000000000000000000000000000000000N 00000000000NCONT   00    00000000000          00000000000000000000000000000000000000000000 000000000000000A000000000000000000000000000000000000000000000 000000000000000000000000000000000000000     00000000                                                                                                                        000000000000000000
F0010000008142600003000002246751200042505000000000000000000201601200002001DISTRICALZADO DEL CARIBE                          C000000000300000000000000000000000100010010000000000000000000000F0010000008142600320160120000101 00000000000000000000000000000000000000000000000000000000000000000000000000000000000000000000000000000000000000000N 00000000000NCONT   00    00000000000          00000000000000000000000000000000000000000000 000000000000000A000000000000000000000000000000000000000000000 000000000000000000000000000000000000000     00000000                                                                                                                        000000000000000000
F0010000008142600004000002246751200023658300000000000000000201601200002001DISTRICALZADO DEL CARIBE                          C000000000009600000000000000000000100010010000000000000000000000F0010000008142600420160120000101 00000000000000000000000000000000000000000000000000000000000000000000000000000000000000000000000000000000000000000N 00000000000NCONT   00    00000000000          00000000000000000000000000000000000000000000 000000000000000A000000000000000000000000000000000000000000000 000000000000000000000000000000000000000     00000000                                                                                                                        000000000000000000
F0010000008142600005000002246751200013552100000000000000000201601200002001DISTRICALZADO DEL CARIBE                          D000000000009600000000000000000000100010010000000000000000000000F0010000008142600520160120000101 00000000000000000000000000000000000000000000000000000000000000000000000000000000000000000000000000000000000000000N 00000000000NCONT   00    00000000000          00000000000000000000000000000000000000000000 000000000000000A000000000000000000000000000000000000000000000 000000000000000000000000000000000000000     00000000                                                                                                                        000000000000000000
F0010000008142700001000090008711200013050500000000000000000201601200002001PACKAGING SUPPLIERS S.A.                          D000000085650800000000000000000000100010010000000000000000000000F0010000008142700120160120000101 00000000000000000000000000000000000000000000000000000000000000000000000000000000000000000000000000000000000000000N 00000000000NCONT   00    00000000000          00000000000000000000000000000000000000000000 000000000000000A000000000000000000000000000000000000000000000 000000000000000000000000000000000000000     00000000                                                                                                                        000000000000000000
F0010000008142700002000090008711200041450500000000000000000201601200002001PACKAGING SUPPLIERS S.A.                          C000000077550800000000000000000000100010010000000000000000000000F0010000008142700220160120000101 00000000000000000000000000000000000000000000000000000000000000000000000000000000000000000000000000000000000000000N 00000000000NCONT   00    00000000000          00000000000000000000000000000000000000000000 000000000000000A000000000000000000000000000000000000000000000 000000000000000000000000000000000000000     00000000                                                                                                                        000000000000000000
F0010000008142700003000090008711200042505000000000000000000201601200002001PACKAGING SUPPLIERS S.A.                          C000000008100000000000000000000000100010010000000000000000000000F0010000008142700320160120000101 00000000000000000000000000000000000000000000000000000000000000000000000000000000000000000000000000000000000000000N 00000000000NCONT   00    00000000000          00000000000000000000000000000000000000000000 000000000000000A000000000000000000000000000000000000000000000 000000000000000000000000000000000000000     00000000                                                                                                                        000000000000000000
F0010000008142700004000090008711200023658300000000000000000201601200002001PACKAGING SUPPLIERS S.A.                          C000000000620400000000000000000000100010010000000000000000000000F0010000008142700420160120000101 00000000000000000000000000000000000000000000000000000000000000000000000000000000000000000000000000000000000000000N 00000000000NCONT   00    00000000000          00000000000000000000000000000000000000000000 000000000000000A000000000000000000000000000000000000000000000 000000000000000000000000000000000000000     00000000                                                                                                                        000000000000000000
F0010000008142700005000090008711200013552100000000000000000201601200002001PACKAGING SUPPLIERS S.A.                          D000000000620400000000000000000000100010010000000000000000000000F0010000008142700520160120000101 00000000000000000000000000000000000000000000000000000000000000000000000000000000000000000000000000000000000000000N 00000000000NCONT   00    00000000000          00000000000000000000000000000000000000000000 000000000000000A000000000000000000000000000000000000000000000 000000000000000000000000000000000000000     00000000                                                                                                                        000000000000000000
F0010000008142800001000090015305700011050500000000000000000201601200002001PLASTICOS Y SERVICIOS BARRANQUILLA EU             D000000008300000000000000000000000100010010000000000000000000000F0010000008142800120160120000101 00000000000000000000000000000000000000000000000000000000000000000000000000000000000000000000000000000000000000000N 00000000000NCONT   00    00000000000          00000000000000000000000000000000000000000000 000000000000000A000000000000000000000000000000000000000000000 000000000000000000000000000000000000000     00000000                                                                                                                        000000000000000000
F0010000008142800002000090015305700041450500000000000000000201601200002001PLASTICOS Y SERVICIOS BARRANQUILLA EU             C000000006500000000000000000000000100010010000000000000000000000F0010000008142800220160120000101 00000000000000000000000000000000000000000000000000000000000000000000000000000000000000000000000000000000000000000N 00000000000NCONT   00    00000000000          00000000000000000000000000000000000000000000 000000000000000A000000000000000000000000000000000000000000000 000000000000000000000000000000000000000     00000000                                                                                                                        000000000000000000
F0010000008142800003000090015305700042505000000000000000000201601200002001PLASTICOS Y SERVICIOS BARRANQUILLA EU             C000000001800000000000000000000000100010010000000000000000000000F0010000008142800320160120000101 00000000000000000000000000000000000000000000000000000000000000000000000000000000000000000000000000000000000000000N 00000000000NCONT   00    00000000000          00000000000000000000000000000000000000000000 000000000000000A000000000000000000000000000000000000000000000 000000000000000000000000000000000000000     00000000                                                                                                                        000000000000000000
F0010000008142800004000090015305700023658300000000000000000201601200002001PLASTICOS Y SERVICIOS BARRANQUILLA EU             C000000000052000000000000000000000100010010000000000000000000000F0010000008142800420160120000101 00000000000000000000000000000000000000000000000000000000000000000000000000000000000000000000000000000000000000000N 00000000000NCONT   00    00000000000          00000000000000000000000000000000000000000000 000000000000000A000000000000000000000000000000000000000000000 000000000000000000000000000000000000000     00000000                                                                                                                        000000000000000000
F0010000008142800005000090015305700013552100000000000000000201601200002001PLASTICOS Y SERVICIOS BARRANQUILLA EU             D000000000052000000000000000000000100010010000000000000000000000F0010000008142800520160120000101 00000000000000000000000000000000000000000000000000000000000000000000000000000000000000000000000000000000000000000N 00000000000NCONT   00    00000000000          00000000000000000000000000000000000000000000 000000000000000A000000000000000000000000000000000000000000000 000000000000000000000000000000000000000     00000000                                                                                                                        000000000000000000
F0010000008142900001000090008711200013050500000000000000000201601200002001PACKAGING SUPPLIERS S.A.                          D000000014250000000000000000000000100010010000000000000000000000F0010000008142900120160120000101 00000000000000000000000000000000000000000000000000000000000000000000000000000000000000000000000000000000000000000N 00000000000NCONT   00    00000000000          00000000000000000000000000000000000000000000 000000000000000A000000000000000000000000000000000000000000000 000000000000000000000000000000000000000     00000000                                                                                                                        000000000000000000
F0010000008142900002000090008711200041450500000000000000000201601200002001PACKAGING SUPPLIERS S.A.                          C000000012250000000000000000000000100010010000000000000000000000F0010000008142900220160120000101 00000000000000000000000000000000000000000000000000000000000000000000000000000000000000000000000000000000000000000N 00000000000NCONT   00    00000000000          00000000000000000000000000000000000000000000 000000000000000A000000000000000000000000000000000000000000000 000000000000000000000000000000000000000     00000000                                                                                                                        000000000000000000
F0010000008142900003000090008711200042505000000000000000000201601200002001PACKAGING SUPPLIERS S.A.                          C000000002000000000000000000000000100010010000000000000000000000F0010000008142900320160120000101 00000000000000000000000000000000000000000000000000000000000000000000000000000000000000000000000000000000000000000N 00000000000NCONT   00    00000000000          00000000000000000000000000000000000000000000 000000000000000A000000000000000000000000000000000000000000000 000000000000000000000000000000000000000     00000000                                                                                                                        000000000000000000
F0010000008142900004000090008711200023658300000000000000000201601200002001PACKAGING SUPPLIERS S.A.                          C000000000098000000000000000000000100010010000000000000000000000F0010000008142900420160120000101 00000000000000000000000000000000000000000000000000000000000000000000000000000000000000000000000000000000000000000N 00000000000NCONT   00    00000000000          00000000000000000000000000000000000000000000 000000000000000A000000000000000000000000000000000000000000000 000000000000000000000000000000000000000     00000000                                                                                                                        000000000000000000
F0010000008142900005000090008711200013552100000000000000000201601200002001PACKAGING SUPPLIERS S.A.                          D000000000098000000000000000000000100010010000000000000000000000F0010000008142900520160120000101 00000000000000000000000000000000000000000000000000000000000000000000000000000000000000000000000000000000000000000N 00000000000NCONT   00    00000000000          00000000000000000000000000000000000000000000 000000000000000A000000000000000000000000000000000000000000000 000000000000000000000000000000000000000     00000000                                                                                                                        000000000000000000
F0010000008143000001000080202094000013050500000000000000000201601200002001DISTRIB. OMAR ORREGO S.A.                         D000000120609100000000000000000000100010010000000000000000000000F0010000008143000120160120000101 00000000000000000000000000000000000000000000000000000000000000000000000000000000000000000000000000000000000000000N 00000000000NCONT   00    00000000000          00000000000000000000000000000000000000000000 000000000000000A000000000000000000000000000000000000000000000 000000000000000000000000000000000000000     00000000                                                                                                                        000000000000000000
F0010000008143000002000080202094000041450500000000000000000201601200002001DISTRIB. OMAR ORREGO S.A.                         C000000048430000000000000000000000100010010000000000000000000000F0010000008143000220160120000101 00000000000000000000000000000000000000000000000000000000000000000000000000000000000000000000000000000000000000000N 00000000000NCONT   00    00000000000          00000000000000000000000000000000000000000000 000000000000000A000000000000000000000000000000000000000000000 000000000000000000000000000000000000000     00000000                                                                                                                        000000000000000000
F0010000008143000003000080202094000042505000000000000000000201601200002001DISTRIB. OMAR ORREGO S.A.                         C000000072179100000000000000000000100010010000000000000000000000F0010000008143000320160120000101 00000000000000000000000000000000000000000000000000000000000000000000000000000000000000000000000000000000000000000N 00000000000NCONT   00    00000000000          00000000000000000000000000000000000000000000 000000000000000A000000000000000000000000000000000000000000000 000000000000000000000000000000000000000     00000000                                                                                                                        000000000000000000
F0010000008143000004000080202094000023658300000000000000000201601200002001DISTRIB. OMAR ORREGO S.A.                         C000000000387400000000000000000000100010010000000000000000000000F0010000008143000420160120000101 00000000000000000000000000000000000000000000000000000000000000000000000000000000000000000000000000000000000000000N 00000000000NCONT   00    00000000000          00000000000000000000000000000000000000000000 000000000000000A000000000000000000000000000000000000000000000 000000000000000000000000000000000000000     00000000                                                                                                                        000000000000000000
F0010000008143000005000080202094000013552100000000000000000201601200002001DISTRIB. OMAR ORREGO S.A.                         D000000000387400000000000000000000100010010000000000000000000000F0010000008143000520160120000101 00000000000000000000000000000000000000000000000000000000000000000000000000000000000000000000000000000000000000000N 00000000000NCONT   00    00000000000          00000000000000000000000000000000000000000000 000000000000000A000000000000000000000000000000000000000000000 000000000000000000000000000000000000000     00000000                                                                                                                        000000000000000000
F0010000008143100001000080202094000013050500000000000000000201601200002001DISTRIB. OMAR ORREGO S.A.                         D000000121133400000000000000000000100010010000000000000000000000F0010000008143100120160120000101 00000000000000000000000000000000000000000000000000000000000000000000000000000000000000000000000000000000000000000N 00000000000NCONT   00    00000000000          00000000000000000000000000000000000000000000 000000000000000A000000000000000000000000000000000000000000000 000000000000000000000000000000000000000     00000000                                                                                                                        000000000000000000
F0010000008143100002000080202094000041450500000000000000000201601200002001DISTRIB. OMAR ORREGO S.A.                         C000000062020000000000000000000000100010010000000000000000000000F0010000008143100220160120000101 00000000000000000000000000000000000000000000000000000000000000000000000000000000000000000000000000000000000000000N 00000000000NCONT   00    00000000000          00000000000000000000000000000000000000000000 000000000000000A000000000000000000000000000000000000000000000 000000000000000000000000000000000000000     00000000                                                                                                                        000000000000000000
F0010000008143100003000080202094000042505000000000000000000201601200002001DISTRIB. OMAR ORREGO S.A.                         C000000059113400000000000000000000100010010000000000000000000000F0010000008143100320160120000101 00000000000000000000000000000000000000000000000000000000000000000000000000000000000000000000000000000000000000000N 00000000000NCONT   00    00000000000          00000000000000000000000000000000000000000000 000000000000000A000000000000000000000000000000000000000000000 000000000000000000000000000000000000000     00000000                                                                                                                        000000000000000000
F0010000008143100004000080202094000023658300000000000000000201601200002001DISTRIB. OMAR ORREGO S.A.                         C000000000496200000000000000000000100010010000000000000000000000F0010000008143100420160120000101 00000000000000000000000000000000000000000000000000000000000000000000000000000000000000000000000000000000000000000N 00000000000NCONT   00    00000000000          00000000000000000000000000000000000000000000 000000000000000A000000000000000000000000000000000000000000000 000000000000000000000000000000000000000     00000000                                                                                                                        000000000000000000
F0010000008143100005000080202094000013552100000000000000000201601200002001DISTRIB. OMAR ORREGO S.A.                         D000000000496200000000000000000000100010010000000000000000000000F0010000008143100520160120000101 00000000000000000000000000000000000000000000000000000000000000000000000000000000000000000000000000000000000000000N 00000000000NCONT   00    00000000000          00000000000000000000000000000000000000000000 000000000000000A000000000000000000000000000000000000000000000 000000000000000000000000000000000000000     00000000                                                                                                                        000000000000000000
F0010000008143200001000080202094000013050500000000000000000201601200002001DISTRIB. OMAR ORREGO S.A.                         D000000118032800000000000000000000100010010000000000000000000000F0010000008143200120160120000101 00000000000000000000000000000000000000000000000000000000000000000000000000000000000000000000000000000000000000000N 00000000000NCONT   00    00000000000          00000000000000000000000000000000000000000000 000000000000000A000000000000000000000000000000000000000000000 000000000000000000000000000000000000000     00000000                                                                                                                        000000000000000000
F0010000008143200002000080202094000041450500000000000000000201601200002001DISTRIB. OMAR ORREGO S.A.                         C000000047190000000000000000000000100010010000000000000000000000F0010000008143200220160120000101 00000000000000000000000000000000000000000000000000000000000000000000000000000000000000000000000000000000000000000N 00000000000NCONT   00    00000000000          00000000000000000000000000000000000000000000 000000000000000A000000000000000000000000000000000000000000000 000000000000000000000000000000000000000     00000000                                                                                                                        000000000000000000
F0010000008143200003000080202094000042505000000000000000000201601200002001DISTRIB. OMAR ORREGO S.A.                         C000000070842800000000000000000000100010010000000000000000000000F0010000008143200320160120000101 00000000000000000000000000000000000000000000000000000000000000000000000000000000000000000000000000000000000000000N 00000000000NCONT   00    00000000000          00000000000000000000000000000000000000000000 000000000000000A000000000000000000000000000000000000000000000 000000000000000000000000000000000000000     00000000                                                                                                                        000000000000000000
F0010000008143200004000080202094000023658300000000000000000201601200002001DISTRIB. OMAR ORREGO S.A.                         C000000000377500000000000000000000100010010000000000000000000000F0010000008143200420160120000101 00000000000000000000000000000000000000000000000000000000000000000000000000000000000000000000000000000000000000000N 00000000000NCONT   00    00000000000          00000000000000000000000000000000000000000000 000000000000000A000000000000000000000000000000000000000000000 000000000000000000000000000000000000000     00000000                                                                                                                        000000000000000000
F0010000008143200005000080202094000013552100000000000000000201601200002001DISTRIB. OMAR ORREGO S.A.                         D000000000377500000000000000000000100010010000000000000000000000F0010000008143200520160120000101 00000000000000000000000000000000000000000000000000000000000000000000000000000000000000000000000000000000000000000N 00000000000NCONT   00    00000000000          00000000000000000000000000000000000000000000 000000000000000A000000000000000000000000000000000000000000000 000000000000000000000000000000000000000     00000000                                                                                                                        000000000000000000
F0010000008143300001000080202094000013050500000000000000000201601200002001DISTRIB. OMAR ORREGO S.A.                         D000000016424900000000000000000000100010010000000000000000000000F0010000008143300120160120000101 00000000000000000000000000000000000000000000000000000000000000000000000000000000000000000000000000000000000000000N 00000000000NCONT   00    00000000000          00000000000000000000000000000000000000000000 000000000000000A000000000000000000000000000000000000000000000 000000000000000000000000000000000000000     00000000                                                                                                                        000000000000000000
F0010000008143300002000080202094000041450500000000000000000201601200002001DISTRIB. OMAR ORREGO S.A.                         C000000007350000000000000000000000100010010000000000000000000000F0010000008143300220160120000101 00000000000000000000000000000000000000000000000000000000000000000000000000000000000000000000000000000000000000000N 00000000000NCONT   00    00000000000          00000000000000000000000000000000000000000000 000000000000000A000000000000000000000000000000000000000000000 000000000000000000000000000000000000000     00000000                                                                                                                        000000000000000000
F0010000008143300003000080202094000042505000000000000000000201601200002001DISTRIB. OMAR ORREGO S.A.                         C000000009074900000000000000000000100010010000000000000000000000F0010000008143300320160120000101 00000000000000000000000000000000000000000000000000000000000000000000000000000000000000000000000000000000000000000N 00000000000NCONT   00    00000000000          00000000000000000000000000000000000000000000 000000000000000A000000000000000000000000000000000000000000000 000000000000000000000000000000000000000     00000000                                                                                                                        000000000000000000
F0010000008143300004000080202094000023658300000000000000000201601200002001DISTRIB. OMAR ORREGO S.A.                         C000000000058800000000000000000000100010010000000000000000000000F0010000008143300420160120000101 00000000000000000000000000000000000000000000000000000000000000000000000000000000000000000000000000000000000000000N 00000000000NCONT   00    00000000000          00000000000000000000000000000000000000000000 000000000000000A000000000000000000000000000000000000000000000 000000000000000000000000000000000000000     00000000                                                                                                                        000000000000000000
F0010000008143300005000080202094000013552100000000000000000201601200002001DISTRIB. OMAR ORREGO S.A.                         D000000000058800000000000000000000100010010000000000000000000000F0010000008143300520160120000101 00000000000000000000000000000000000000000000000000000000000000000000000000000000000000000000000000000000000000000N 00000000000NCONT   00    00000000000          00000000000000000000000000000000000000000000 000000000000000A000000000000000000000000000000000000000000000 000000000000000000000000000000000000000     00000000                                                                                                                        000000000000000000
F0010000008143400001000080001063400013050500000000000000000201601200002001PRODUCTOS JULIAO SAS                              D000000069547700000000000000000000100010010000000000000000000000F0010000008143400120160120000101 00000000000000000000000000000000000000000000000000000000000000000000000000000000000000000000000000000000000000000N 00000000000NCONT   00    00000000000          00000000000000000000000000000000000000000000 000000000000000A000000000000000000000000000000000000000000000 000000000000000000000000000000000000000     00000000                                                                                                                        000000000000000000
F0010000008143400002000080001063400041450500000000000000000201601200002001PRODUCTOS JULIAO SAS                              C000000065800000000000000000000000100010010000000000000000000000F0010000008143400220160120000101 00000000000000000000000000000000000000000000000000000000000000000000000000000000000000000000000000000000000000000N 00000000000NCONT   00    00000000000          00000000000000000000000000000000000000000000 000000000000000A000000000000000000000000000000000000000000000 000000000000000000000000000000000000000     00000000                                                                                                                        000000000000000000
F0010000008143400003000080001063400042505000000000000000000201601200002001PRODUCTOS JULIAO SAS                              C000000003747700000000000000000000100010010000000000000000000000F0010000008143400320160120000101 00000000000000000000000000000000000000000000000000000000000000000000000000000000000000000000000000000000000000000N 00000000000NCONT   00    00000000000          00000000000000000000000000000000000000000000 000000000000000A000000000000000000000000000000000000000000000 000000000000000000000000000000000000000     00000000                                                                                                                        000000000000000000
F0010000008143400004000080001063400023658300000000000000000201601200002001PRODUCTOS JULIAO SAS                              C000000000526400000000000000000000100010010000000000000000000000F0010000008143400420160120000101 00000000000000000000000000000000000000000000000000000000000000000000000000000000000000000000000000000000000000000N 00000000000NCONT   00    00000000000          00000000000000000000000000000000000000000000 000000000000000A000000000000000000000000000000000000000000000 000000000000000000000000000000000000000     00000000                                                                                                                        000000000000000000
F0010000008143400005000080001063400013552100000000000000000201601200002001PRODUCTOS JULIAO SAS                              D000000000526400000000000000000000100010010000000000000000000000F0010000008143400520160120000101 00000000000000000000000000000000000000000000000000000000000000000000000000000000000000000000000000000000000000000N 00000000000NCONT   00    00000000000          00000000000000000000000000000000000000000000 000000000000000A000000000000000000000000000000000000000000000 000000000000000000000000000000000000000     00000000                                                                                                                        000000000000000000
F0010000008143500001000089011078600013050500000000000000000201601200002001DIST. NUEVO MUNDO S.A.S.                          D000000025864900000000000000000000100010010000000000000000000000F0010000008143500120160120000101 00000000000000000000000000000000000000000000000000000000000000000000000000000000000000000000000000000000000000000N 00000000000NCONT   00    00000000000          00000000000000000000000000000000000000000000 000000000000000A000000000000000000000000000000000000000000000 000000000000000000000000000000000000000     00000000                                                                                                                        000000000000000000
F0010000008143500002000089011078600041450500000000000000000201601200002001DIST. NUEVO MUNDO S.A.S.                          C000000024120000000000000000000000100010010000000000000000000000F0010000008143500220160120000101 00000000000000000000000000000000000000000000000000000000000000000000000000000000000000000000000000000000000000000N 00000000000NCONT   00    00000000000          00000000000000000000000000000000000000000000 000000000000000A000000000000000000000000000000000000000000000 000000000000000000000000000000000000000     00000000                                                                                                                        000000000000000000
F0010000008143500003000089011078600042505000000000000000000201601200002001DIST. NUEVO MUNDO S.A.S.                          C000000001744900000000000000000000100010010000000000000000000000F0010000008143500320160120000101 00000000000000000000000000000000000000000000000000000000000000000000000000000000000000000000000000000000000000000N 00000000000NCONT   00    00000000000          00000000000000000000000000000000000000000000 000000000000000A000000000000000000000000000000000000000000000 000000000000000000000000000000000000000     00000000                                                                                                                        000000000000000000
F0010000008143500004000089011078600023658300000000000000000201601200002001DIST. NUEVO MUNDO S.A.S.                          C000000000193000000000000000000000100010010000000000000000000000F0010000008143500420160120000101 00000000000000000000000000000000000000000000000000000000000000000000000000000000000000000000000000000000000000000N 00000000000NCONT   00    00000000000          00000000000000000000000000000000000000000000 000000000000000A000000000000000000000000000000000000000000000 000000000000000000000000000000000000000     00000000                                                                                                                        000000000000000000
F0010000008143500005000089011078600013552100000000000000000201601200002001DIST. NUEVO MUNDO S.A.S.                          D000000000193000000000000000000000100010010000000000000000000000F0010000008143500520160120000101 00000000000000000000000000000000000000000000000000000000000000000000000000000000000000000000000000000000000000000N 00000000000NCONT   00    00000000000          00000000000000000000000000000000000000000000 000000000000000A000000000000000000000000000000000000000000000 000000000000000000000000000000000000000     00000000                                                                                                                        000000000000000000
F0010000008143600001000000870907300013050500000000000000000201601200002001SURTIDOR FERRETERO                                D000000066510300000000000000000000100010010000000000000000000000F0010000008143600120160120000101 00000000000000000000000000000000000000000000000000000000000000000000000000000000000000000000000000000000000000000N 00000000000NCONT   00    00000000000          00000000000000000000000000000000000000000000 000000000000000A000000000000000000000000000000000000000000000 000000000000000000000000000000000000000     00000000                                                                                                                        000000000000000000
F0010000008143600002000000870907300041450500000000000000000201601200002001SURTIDOR FERRETERO                                C000000027566700000000000000000000100010010000000000000000000000F0010000008143600220160120000101 00000000000000000000000000000000000000000000000000000000000000000000000000000000000000000000000000000000000000000N 00000000000NCONT   00    00000000000          00000000000000000000000000000000000000000000 000000000000000A000000000000000000000000000000000000000000000 000000000000000000000000000000000000000     00000000                                                                                                                        000000000000000000
F0010000008143600003000000870907300041750100000000000000000201601200002001SURTIDOR FERRETERO                                D000000002756700000000000000000000100010010000000000000000000000F0010000008143600320160120000101 00000000000000000000000000000000000000000000000000000000000000000000000000000000000000000000000000000000000000000N 00000000000NCONT   00    00000000000          00000000000000000000000000000000000000000000 000000000000000A000000000000000000000000000000000000000000000 000000000000000000000000000000000000000     00000000                                                                                                                        000000000000000000
F0010000008143600004000000870907300042505000000000000000000201601200002001SURTIDOR FERRETERO                                C000000041700300000000000000000000100010010000000000000000000000F0010000008143600420160120000101 00000000000000000000000000000000000000000000000000000000000000000000000000000000000000000000000000000000000000000N 00000000000NCONT   00    00000000000          00000000000000000000000000000000000000000000 000000000000000A000000000000000000000000000000000000000000000 000000000000000000000000000000000000000     00000000                                                                                                                        000000000000000000
F0010000008143600005000000870907300023658300000000000000000201601200002001SURTIDOR FERRETERO                                C000000000220500000000000000000000100010010000000000000000000000F0010000008143600520160120000101 00000000000000000000000000000000000000000000000000000000000000000000000000000000000000000000000000000000000000000N 00000000000NCONT   00    00000000000          00000000000000000000000000000000000000000000 000000000000000A000000000000000000000000000000000000000000000 000000000000000000000000000000000000000     00000000                                                                                                                        000000000000000000
F0010000008143600006000000870907300013552100000000000000000201601200002001SURTIDOR FERRETERO                                D000000000220500000000000000000000100010010000000000000000000000F0010000008143600620160120000101 00000000000000000000000000000000000000000000000000000000000000000000000000000000000000000000000000000000000000000N 00000000000NCONT   00    00000000000          00000000000000000000000000000000000000000000 000000000000000A000000000000000000000000000000000000000000000 000000000000000000000000000000000000000     00000000                                                                                                                        000000000000000000
