F0010000006083100001000007213653800011050500000000000000000201407270002001VICTOR ECHAVEZ                                    D000000002650000000000000000000000100010010000000000000000000000F0010000006083100120140727000101 00000000000000000000000000000000000000000000000000000000000000000000000000000000000000000000000000000000000000000N 00000000000NCONT   00    00000000000          00000000000000000000000000000000000000000000 000000000000000A000000000000000000000000000000000000000000000 000000000000000000000000000000000000000     00000000                                                                                                                        000000000000000000
F0010000006083100002000007213653800041450500000000000000000201407270002001VICTOR ECHAVEZ                                    C000000001800000000000000000000000100010010000000000000000000000F0010000006083100220140727000101 00000000000000000000000000000000000000000000000000000000000000000000000000000000000000000000000000000000000000000N 00000000000NCONT   00    00000000000          00000000000000000000000000000000000000000000 000000000000000A000000000000000000000000000000000000000000000 000000000000000000000000000000000000000     00000000                                                                                                                        000000000000000000
F0010000006083100003000007213653800042505000000000000000000201407270002001VICTOR ECHAVEZ                                    C000000000850000000000000000000000100010010000000000000000000000F0010000006083100320140727000101 00000000000000000000000000000000000000000000000000000000000000000000000000000000000000000000000000000000000000000N 00000000000NCONT   00    00000000000          00000000000000000000000000000000000000000000 000000000000000A000000000000000000000000000000000000000000000 000000000000000000000000000000000000000     00000000                                                                                                                        000000000000000000
F0010000006083100004000007213653800023658300000000000000000201407270002001VICTOR ECHAVEZ                                    C000000000014400000000000000000000100010010000000000000000000000F0010000006083100420140727000101 00000000000000000000000000000000000000000000000000000000000000000000000000000000000000000000000000000000000000000N 00000000000NCONT   00    00000000000          00000000000000000000000000000000000000000000 000000000000000A000000000000000000000000000000000000000000000 000000000000000000000000000000000000000     00000000                                                                                                                        000000000000000000
F0010000006083100005000007213653800013552100000000000000000201407270002001VICTOR ECHAVEZ                                    D000000000014400000000000000000000100010010000000000000000000000F0010000006083100520140727000101 00000000000000000000000000000000000000000000000000000000000000000000000000000000000000000000000000000000000000000N 00000000000NCONT   00    00000000000          00000000000000000000000000000000000000000000 000000000000000A000000000000000000000000000000000000000000000 000000000000000000000000000000000000000     00000000                                                                                                                        000000000000000000
F0010000006083200001000007213653800011050500000000000000000201407270002001VICTOR ECHAVEZ                                    D000000002400000000000000000000000100010010000000000000000000000F0010000006083200120140727000101 00000000000000000000000000000000000000000000000000000000000000000000000000000000000000000000000000000000000000000N 00000000000NCONT   00    00000000000          00000000000000000000000000000000000000000000 000000000000000A000000000000000000000000000000000000000000000 000000000000000000000000000000000000000     00000000                                                                                                                        000000000000000000
F0010000006083200002000007213653800041450500000000000000000201407270002001VICTOR ECHAVEZ                                    C000000001800000000000000000000000100010010000000000000000000000F0010000006083200220140727000101 00000000000000000000000000000000000000000000000000000000000000000000000000000000000000000000000000000000000000000N 00000000000NCONT   00    00000000000          00000000000000000000000000000000000000000000 000000000000000A000000000000000000000000000000000000000000000 000000000000000000000000000000000000000     00000000                                                                                                                        000000000000000000
F0010000006083200003000007213653800042505000000000000000000201407270002001VICTOR ECHAVEZ                                    C000000000600000000000000000000000100010010000000000000000000000F0010000006083200320140727000101 00000000000000000000000000000000000000000000000000000000000000000000000000000000000000000000000000000000000000000N 00000000000NCONT   00    00000000000          00000000000000000000000000000000000000000000 000000000000000A000000000000000000000000000000000000000000000 000000000000000000000000000000000000000     00000000                                                                                                                        000000000000000000
F0010000006083200004000007213653800023658300000000000000000201407270002001VICTOR ECHAVEZ                                    C000000000014400000000000000000000100010010000000000000000000000F0010000006083200420140727000101 00000000000000000000000000000000000000000000000000000000000000000000000000000000000000000000000000000000000000000N 00000000000NCONT   00    00000000000          00000000000000000000000000000000000000000000 000000000000000A000000000000000000000000000000000000000000000 000000000000000000000000000000000000000     00000000                                                                                                                        000000000000000000
F0010000006083200005000007213653800013552100000000000000000201407270002001VICTOR ECHAVEZ                                    D000000000014400000000000000000000100010010000000000000000000000F0010000006083200520140727000101 00000000000000000000000000000000000000000000000000000000000000000000000000000000000000000000000000000000000000000N 00000000000NCONT   00    00000000000          00000000000000000000000000000000000000000000 000000000000000A000000000000000000000000000000000000000000000 000000000000000000000000000000000000000     00000000                                                                                                                        000000000000000000
F0010000006083300001000007213653800011050500000000000000000201407270002001VICTOR ECHAVEZ                                    D000000002300000000000000000000000100010010000000000000000000000F0010000006083300120140727000101 00000000000000000000000000000000000000000000000000000000000000000000000000000000000000000000000000000000000000000N 00000000000NCONT   00    00000000000          00000000000000000000000000000000000000000000 000000000000000A000000000000000000000000000000000000000000000 000000000000000000000000000000000000000     00000000                                                                                                                        000000000000000000
F0010000006083300002000007213653800041450500000000000000000201407270002001VICTOR ECHAVEZ                                    C000000001800000000000000000000000100010010000000000000000000000F0010000006083300220140727000101 00000000000000000000000000000000000000000000000000000000000000000000000000000000000000000000000000000000000000000N 00000000000NCONT   00    00000000000          00000000000000000000000000000000000000000000 000000000000000A000000000000000000000000000000000000000000000 000000000000000000000000000000000000000     00000000                                                                                                                        000000000000000000
F0010000006083300003000007213653800042505000000000000000000201407270002001VICTOR ECHAVEZ                                    C000000000500000000000000000000000100010010000000000000000000000F0010000006083300320140727000101 00000000000000000000000000000000000000000000000000000000000000000000000000000000000000000000000000000000000000000N 00000000000NCONT   00    00000000000          00000000000000000000000000000000000000000000 000000000000000A000000000000000000000000000000000000000000000 000000000000000000000000000000000000000     00000000                                                                                                                        000000000000000000
F0010000006083300004000007213653800023658300000000000000000201407270002001VICTOR ECHAVEZ                                    C000000000014400000000000000000000100010010000000000000000000000F0010000006083300420140727000101 00000000000000000000000000000000000000000000000000000000000000000000000000000000000000000000000000000000000000000N 00000000000NCONT   00    00000000000          00000000000000000000000000000000000000000000 000000000000000A000000000000000000000000000000000000000000000 000000000000000000000000000000000000000     00000000                                                                                                                        000000000000000000
F0010000006083300005000007213653800013552100000000000000000201407270002001VICTOR ECHAVEZ                                    D000000000014400000000000000000000100010010000000000000000000000F0010000006083300520140727000101 00000000000000000000000000000000000000000000000000000000000000000000000000000000000000000000000000000000000000000N 00000000000NCONT   00    00000000000          00000000000000000000000000000000000000000000 000000000000000A000000000000000000000000000000000000000000000 000000000000000000000000000000000000000     00000000                                                                                                                        000000000000000000
F0010000006083400001000003288114500011050500000000000000000201407270002001MARIBEL CARBONO                                   D000000004120000000000000000000000100010010000000000000000000000F0010000006083400120140727000101 00000000000000000000000000000000000000000000000000000000000000000000000000000000000000000000000000000000000000000N 00000000000NCONT   00    00000000000          00000000000000000000000000000000000000000000 000000000000000A000000000000000000000000000000000000000000000 000000000000000000000000000000000000000     00000000                                                                                                                        000000000000000000
F0010000006083400002000003288114500041450500000000000000000201407270002001MARIBEL CARBONO                                   C000000004000000000000000000000000100010010000000000000000000000F0010000006083400220140727000101 00000000000000000000000000000000000000000000000000000000000000000000000000000000000000000000000000000000000000000N 00000000000NCONT   00    00000000000          00000000000000000000000000000000000000000000 000000000000000A000000000000000000000000000000000000000000000 000000000000000000000000000000000000000     00000000                                                                                                                        000000000000000000
F0010000006083400003000003288114500042505000000000000000000201407270002001MARIBEL CARBONO                                   C000000000120000000000000000000000100010010000000000000000000000F0010000006083400320140727000101 00000000000000000000000000000000000000000000000000000000000000000000000000000000000000000000000000000000000000000N 00000000000NCONT   00    00000000000          00000000000000000000000000000000000000000000 000000000000000A000000000000000000000000000000000000000000000 000000000000000000000000000000000000000     00000000                                                                                                                        000000000000000000
F0010000006083400004000003288114500023658300000000000000000201407270002001MARIBEL CARBONO                                   C000000000032000000000000000000000100010010000000000000000000000F0010000006083400420140727000101 00000000000000000000000000000000000000000000000000000000000000000000000000000000000000000000000000000000000000000N 00000000000NCONT   00    00000000000          00000000000000000000000000000000000000000000 000000000000000A000000000000000000000000000000000000000000000 000000000000000000000000000000000000000     00000000                                                                                                                        000000000000000000
F0010000006083400005000003288114500013552100000000000000000201407270002001MARIBEL CARBONO                                   D000000000032000000000000000000000100010010000000000000000000000F0010000006083400520140727000101 00000000000000000000000000000000000000000000000000000000000000000000000000000000000000000000000000000000000000000N 00000000000NCONT   00    00000000000          00000000000000000000000000000000000000000000 000000000000000A000000000000000000000000000000000000000000000 000000000000000000000000000000000000000     00000000                                                                                                                        000000000000000000
F0010000006083500001000007213653800011050500000000000000000201407270002001VICTOR ECHAVEZ                                    D000000002300000000000000000000000100010010000000000000000000000F0010000006083500120140727000101 00000000000000000000000000000000000000000000000000000000000000000000000000000000000000000000000000000000000000000N 00000000000NCONT   00    00000000000          00000000000000000000000000000000000000000000 000000000000000A000000000000000000000000000000000000000000000 000000000000000000000000000000000000000     00000000                                                                                                                        000000000000000000
F0010000006083500002000007213653800041450500000000000000000201407270002001VICTOR ECHAVEZ                                    C000000001800000000000000000000000100010010000000000000000000000F0010000006083500220140727000101 00000000000000000000000000000000000000000000000000000000000000000000000000000000000000000000000000000000000000000N 00000000000NCONT   00    00000000000          00000000000000000000000000000000000000000000 000000000000000A000000000000000000000000000000000000000000000 000000000000000000000000000000000000000     00000000                                                                                                                        000000000000000000
F0010000006083500003000007213653800042505000000000000000000201407270002001VICTOR ECHAVEZ                                    C000000000500000000000000000000000100010010000000000000000000000F0010000006083500320140727000101 00000000000000000000000000000000000000000000000000000000000000000000000000000000000000000000000000000000000000000N 00000000000NCONT   00    00000000000          00000000000000000000000000000000000000000000 000000000000000A000000000000000000000000000000000000000000000 000000000000000000000000000000000000000     00000000                                                                                                                        000000000000000000
F0010000006083500004000007213653800023658300000000000000000201407270002001VICTOR ECHAVEZ                                    C000000000014400000000000000000000100010010000000000000000000000F0010000006083500420140727000101 00000000000000000000000000000000000000000000000000000000000000000000000000000000000000000000000000000000000000000N 00000000000NCONT   00    00000000000          00000000000000000000000000000000000000000000 000000000000000A000000000000000000000000000000000000000000000 000000000000000000000000000000000000000     00000000                                                                                                                        000000000000000000
F0010000006083500005000007213653800013552100000000000000000201407270002001VICTOR ECHAVEZ                                    D000000000014400000000000000000000100010010000000000000000000000F0010000006083500520140727000101 00000000000000000000000000000000000000000000000000000000000000000000000000000000000000000000000000000000000000000N 00000000000NCONT   00    00000000000          00000000000000000000000000000000000000000000 000000000000000A000000000000000000000000000000000000000000000 000000000000000000000000000000000000000     00000000                                                                                                                        000000000000000000
F0010000006083600001000000870053600011050500000000000000000201407270002001FARID ARRIETA                                     D000000001100000000000000000000000100010010000000000000000000000F0010000006083600120140727000101 00000000000000000000000000000000000000000000000000000000000000000000000000000000000000000000000000000000000000000N 00000000000NCONT   00    00000000000          00000000000000000000000000000000000000000000 000000000000000A000000000000000000000000000000000000000000000 000000000000000000000000000000000000000     00000000                                                                                                                        000000000000000000
F0010000006083600002000000870053600041450500000000000000000201407270002001FARID ARRIETA                                     C000000001000000000000000000000000100010010000000000000000000000F0010000006083600220140727000101 00000000000000000000000000000000000000000000000000000000000000000000000000000000000000000000000000000000000000000N 00000000000NCONT   00    00000000000          00000000000000000000000000000000000000000000 000000000000000A000000000000000000000000000000000000000000000 000000000000000000000000000000000000000     00000000                                                                                                                        000000000000000000
F0010000006083600003000000870053600042505000000000000000000201407270002001FARID ARRIETA                                     C000000000100000000000000000000000100010010000000000000000000000F0010000006083600320140727000101 00000000000000000000000000000000000000000000000000000000000000000000000000000000000000000000000000000000000000000N 00000000000NCONT   00    00000000000          00000000000000000000000000000000000000000000 000000000000000A000000000000000000000000000000000000000000000 000000000000000000000000000000000000000     00000000                                                                                                                        000000000000000000
F0010000006083600004000000870053600023658300000000000000000201407270002001FARID ARRIETA                                     C000000000008000000000000000000000100010010000000000000000000000F0010000006083600420140727000101 00000000000000000000000000000000000000000000000000000000000000000000000000000000000000000000000000000000000000000N 00000000000NCONT   00    00000000000          00000000000000000000000000000000000000000000 000000000000000A000000000000000000000000000000000000000000000 000000000000000000000000000000000000000     00000000                                                                                                                        000000000000000000
F0010000006083600005000000870053600013552100000000000000000201407270002001FARID ARRIETA                                     D000000000008000000000000000000000100010010000000000000000000000F0010000006083600520140727000101 00000000000000000000000000000000000000000000000000000000000000000000000000000000000000000000000000000000000000000N 00000000000NCONT   00    00000000000          00000000000000000000000000000000000000000000 000000000000000A000000000000000000000000000000000000000000000 000000000000000000000000000000000000000     00000000                                                                                                                        000000000000000000
F0010000006083700001000007213653800011050500000000000000000201407270002001VICTOR ECHAVEZ                                    D000000001400000000000000000000000100010010000000000000000000000F0010000006083700120140727000101 00000000000000000000000000000000000000000000000000000000000000000000000000000000000000000000000000000000000000000N 00000000000NCONT   00    00000000000          00000000000000000000000000000000000000000000 000000000000000A000000000000000000000000000000000000000000000 000000000000000000000000000000000000000     00000000                                                                                                                        000000000000000000
F0010000006083700002000007213653800041450500000000000000000201407270002001VICTOR ECHAVEZ                                    C000000001200000000000000000000000100010010000000000000000000000F0010000006083700220140727000101 00000000000000000000000000000000000000000000000000000000000000000000000000000000000000000000000000000000000000000N 00000000000NCONT   00    00000000000          00000000000000000000000000000000000000000000 000000000000000A000000000000000000000000000000000000000000000 000000000000000000000000000000000000000     00000000                                                                                                                        000000000000000000
F0010000006083700003000007213653800042505000000000000000000201407270002001VICTOR ECHAVEZ                                    C000000000200000000000000000000000100010010000000000000000000000F0010000006083700320140727000101 00000000000000000000000000000000000000000000000000000000000000000000000000000000000000000000000000000000000000000N 00000000000NCONT   00    00000000000          00000000000000000000000000000000000000000000 000000000000000A000000000000000000000000000000000000000000000 000000000000000000000000000000000000000     00000000                                                                                                                        000000000000000000
F0010000006083700004000007213653800023658300000000000000000201407270002001VICTOR ECHAVEZ                                    C000000000009600000000000000000000100010010000000000000000000000F0010000006083700420140727000101 00000000000000000000000000000000000000000000000000000000000000000000000000000000000000000000000000000000000000000N 00000000000NCONT   00    00000000000          00000000000000000000000000000000000000000000 000000000000000A000000000000000000000000000000000000000000000 000000000000000000000000000000000000000     00000000                                                                                                                        000000000000000000
F0010000006083700005000007213653800013552100000000000000000201407270002001VICTOR ECHAVEZ                                    D000000000009600000000000000000000100010010000000000000000000000F0010000006083700520140727000101 00000000000000000000000000000000000000000000000000000000000000000000000000000000000000000000000000000000000000000N 00000000000NCONT   00    00000000000          00000000000000000000000000000000000000000000 000000000000000A000000000000000000000000000000000000000000000 000000000000000000000000000000000000000     00000000                                                                                                                        000000000000000000
