F0010000008587400001000080201112800013050500000000000000000201605110002001CANGURO INTERNATIONAL S.A.                        D000000184909100000000000000000000100010010000000000000000000000F0010000008587400120160511000101 00000000000000000000000000000000000000000000000000000000000000000000000000000000000000000000000000000000000000000N 00000000000NCONT   00    00000000000          00000000000000000000000000000000000000000000 000000000000000A000000000000000000000000000000000000000000000 000000000000000000000000000000000000000     00000000                                                                                                                        000000000000000000
F0010000008587400002000080201112800041450500000000000000000201605110002001CANGURO INTERNATIONAL S.A.                        C000000184909100000000000000000000100010010000000000000000000000F0010000008587400220160511000101 00000000000000000000000000000000000000000000000000000000000000000000000000000000000000000000000000000000000000000N 00000000000NCONT   00    00000000000          00000000000000000000000000000000000000000000 000000000000000A000000000000000000000000000000000000000000000 000000000000000000000000000000000000000     00000000                                                                                                                        000000000000000000
F0010000008587400003000080201112800042505000000000000000000201605110002001CANGURO INTERNATIONAL S.A.                        C000000000000000000000000000000000100010010000000000000000000000F0010000008587400320160511000101 00000000000000000000000000000000000000000000000000000000000000000000000000000000000000000000000000000000000000000N 00000000000NCONT   00    00000000000          00000000000000000000000000000000000000000000 000000000000000A000000000000000000000000000000000000000000000 000000000000000000000000000000000000000     00000000                                                                                                                        000000000000000000
F0010000008587400004000080201112800023658300000000000000000201605110002001CANGURO INTERNATIONAL S.A.                        C000000001479300000000000000000000100010010000000000000000000000F0010000008587400420160511000101 00000000000000000000000000000000000000000000000000000000000000000000000000000000000000000000000000000000000000000N 00000000000NCONT   00    00000000000          00000000000000000000000000000000000000000000 000000000000000A000000000000000000000000000000000000000000000 000000000000000000000000000000000000000     00000000                                                                                                                        000000000000000000
F0010000008587400005000080201112800013552100000000000000000201605110002001CANGURO INTERNATIONAL S.A.                        D000000001479300000000000000000000100010010000000000000000000000F0010000008587400520160511000101 00000000000000000000000000000000000000000000000000000000000000000000000000000000000000000000000000000000000000000N 00000000000NCONT   00    00000000000          00000000000000000000000000000000000000000000 000000000000000A000000000000000000000000000000000000000000000 000000000000000000000000000000000000000     00000000                                                                                                                        000000000000000000
F0010000008587500001000080201112800013050500000000000000000201605110002001CANGURO INTERNATIONAL S.A.                        D000000149261900000000000000000000100010010000000000000000000000F0010000008587500120160511000101 00000000000000000000000000000000000000000000000000000000000000000000000000000000000000000000000000000000000000000N 00000000000NCONT   00    00000000000          00000000000000000000000000000000000000000000 000000000000000A000000000000000000000000000000000000000000000 000000000000000000000000000000000000000     00000000                                                                                                                        000000000000000000
F0010000008587500002000080201112800041450500000000000000000201605110002001CANGURO INTERNATIONAL S.A.                        C000000149261900000000000000000000100010010000000000000000000000F0010000008587500220160511000101 00000000000000000000000000000000000000000000000000000000000000000000000000000000000000000000000000000000000000000N 00000000000NCONT   00    00000000000          00000000000000000000000000000000000000000000 000000000000000A000000000000000000000000000000000000000000000 000000000000000000000000000000000000000     00000000                                                                                                                        000000000000000000
F0010000008587500003000080201112800042505000000000000000000201605110002001CANGURO INTERNATIONAL S.A.                        C000000000000000000000000000000000100010010000000000000000000000F0010000008587500320160511000101 00000000000000000000000000000000000000000000000000000000000000000000000000000000000000000000000000000000000000000N 00000000000NCONT   00    00000000000          00000000000000000000000000000000000000000000 000000000000000A000000000000000000000000000000000000000000000 000000000000000000000000000000000000000     00000000                                                                                                                        000000000000000000
F0010000008587500004000080201112800023658300000000000000000201605110002001CANGURO INTERNATIONAL S.A.                        C000000001194100000000000000000000100010010000000000000000000000F0010000008587500420160511000101 00000000000000000000000000000000000000000000000000000000000000000000000000000000000000000000000000000000000000000N 00000000000NCONT   00    00000000000          00000000000000000000000000000000000000000000 000000000000000A000000000000000000000000000000000000000000000 000000000000000000000000000000000000000     00000000                                                                                                                        000000000000000000
F0010000008587500005000080201112800013552100000000000000000201605110002001CANGURO INTERNATIONAL S.A.                        D000000001194100000000000000000000100010010000000000000000000000F0010000008587500520160511000101 00000000000000000000000000000000000000000000000000000000000000000000000000000000000000000000000000000000000000000N 00000000000NCONT   00    00000000000          00000000000000000000000000000000000000000000 000000000000000A000000000000000000000000000000000000000000000 000000000000000000000000000000000000000     00000000                                                                                                                        000000000000000000
F0010000008587600001000090080946500013050500000000000000000201605110002001INVERSIONES AFAP SAS                              D000000004954000000000000000000000100010010000000000000000000000F0010000008587600120160511000101 00000000000000000000000000000000000000000000000000000000000000000000000000000000000000000000000000000000000000000N 00000000000NCONT   00    00000000000          00000000000000000000000000000000000000000000 000000000000000A000000000000000000000000000000000000000000000 000000000000000000000000000000000000000     00000000                                                                                                                        000000000000000000
F0010000008587600002000090080946500041450500000000000000000201605110002001INVERSIONES AFAP SAS                              C000000004090000000000000000000000100010010000000000000000000000F0010000008587600220160511000101 00000000000000000000000000000000000000000000000000000000000000000000000000000000000000000000000000000000000000000N 00000000000NCONT   00    00000000000          00000000000000000000000000000000000000000000 000000000000000A000000000000000000000000000000000000000000000 000000000000000000000000000000000000000     00000000                                                                                                                        000000000000000000
F0010000008587600003000090080946500042505000000000000000000201605110002001INVERSIONES AFAP SAS                              C000000000864000000000000000000000100010010000000000000000000000F0010000008587600320160511000101 00000000000000000000000000000000000000000000000000000000000000000000000000000000000000000000000000000000000000000N 00000000000NCONT   00    00000000000          00000000000000000000000000000000000000000000 000000000000000A000000000000000000000000000000000000000000000 000000000000000000000000000000000000000     00000000                                                                                                                        000000000000000000
F0010000008587600004000090080946500023658300000000000000000201605110002001INVERSIONES AFAP SAS                              C000000000032700000000000000000000100010010000000000000000000000F0010000008587600420160511000101 00000000000000000000000000000000000000000000000000000000000000000000000000000000000000000000000000000000000000000N 00000000000NCONT   00    00000000000          00000000000000000000000000000000000000000000 000000000000000A000000000000000000000000000000000000000000000 000000000000000000000000000000000000000     00000000                                                                                                                        000000000000000000
F0010000008587600005000090080946500013552100000000000000000201605110002001INVERSIONES AFAP SAS                              D000000000032700000000000000000000100010010000000000000000000000F0010000008587600520160511000101 00000000000000000000000000000000000000000000000000000000000000000000000000000000000000000000000000000000000000000N 00000000000NCONT   00    00000000000          00000000000000000000000000000000000000000000 000000000000000A000000000000000000000000000000000000000000000 000000000000000000000000000000000000000     00000000                                                                                                                        000000000000000000
F0010000008587700001000003264509600013050500000000000000000201605110002001ROSA E. AGAMEZ                                    D000000006800000000000000000000000100010010000000000000000000000F0010000008587700120160511000101 00000000000000000000000000000000000000000000000000000000000000000000000000000000000000000000000000000000000000000N 00000000000NCONT   00    00000000000          00000000000000000000000000000000000000000000 000000000000000A000000000000000000000000000000000000000000000 000000000000000000000000000000000000000     00000000                                                                                                                        000000000000000000
F0010000008587700002000003264509600041450500000000000000000201605110002001ROSA E. AGAMEZ                                    C000000004720000000000000000000000100010010000000000000000000000F0010000008587700220160511000101 00000000000000000000000000000000000000000000000000000000000000000000000000000000000000000000000000000000000000000N 00000000000NCONT   00    00000000000          00000000000000000000000000000000000000000000 000000000000000A000000000000000000000000000000000000000000000 000000000000000000000000000000000000000     00000000                                                                                                                        000000000000000000
F0010000008587700003000003264509600042505000000000000000000201605110002001ROSA E. AGAMEZ                                    C000000002080000000000000000000000100010010000000000000000000000F0010000008587700320160511000101 00000000000000000000000000000000000000000000000000000000000000000000000000000000000000000000000000000000000000000N 00000000000NCONT   00    00000000000          00000000000000000000000000000000000000000000 000000000000000A000000000000000000000000000000000000000000000 000000000000000000000000000000000000000     00000000                                                                                                                        000000000000000000
F0010000008587700004000003264509600023658300000000000000000201605110002001ROSA E. AGAMEZ                                    C000000000037800000000000000000000100010010000000000000000000000F0010000008587700420160511000101 00000000000000000000000000000000000000000000000000000000000000000000000000000000000000000000000000000000000000000N 00000000000NCONT   00    00000000000          00000000000000000000000000000000000000000000 000000000000000A000000000000000000000000000000000000000000000 000000000000000000000000000000000000000     00000000                                                                                                                        000000000000000000
F0010000008587700005000003264509600013552100000000000000000201605110002001ROSA E. AGAMEZ                                    D000000000037800000000000000000000100010010000000000000000000000F0010000008587700520160511000101 00000000000000000000000000000000000000000000000000000000000000000000000000000000000000000000000000000000000000000N 00000000000NCONT   00    00000000000          00000000000000000000000000000000000000000000 000000000000000A000000000000000000000000000000000000000000000 000000000000000000000000000000000000000     00000000                                                                                                                        000000000000000000
F0010000008587800001000090040631000013050500000000000000000201605110002001BEINEX SAS                                        D000000011616000000000000000000000100010010000000000000000000000F0010000008587800120160511000101 00000000000000000000000000000000000000000000000000000000000000000000000000000000000000000000000000000000000000000N 00000000000NCONT   00    00000000000          00000000000000000000000000000000000000000000 000000000000000A000000000000000000000000000000000000000000000 000000000000000000000000000000000000000     00000000                                                                                                                        000000000000000000
F0010000008587800002000090040631000041450500000000000000000201605110002001BEINEX SAS                                        C000000012100000000000000000000000100010010000000000000000000000F0010000008587800220160511000101 00000000000000000000000000000000000000000000000000000000000000000000000000000000000000000000000000000000000000000N 00000000000NCONT   00    00000000000          00000000000000000000000000000000000000000000 000000000000000A000000000000000000000000000000000000000000000 000000000000000000000000000000000000000     00000000                                                                                                                        000000000000000000
F0010000008587800003000090040631000041750100000000000000000201605110002001BEINEX SAS                                        D000000000484000000000000000000000100010010000000000000000000000F0010000008587800320160511000101 00000000000000000000000000000000000000000000000000000000000000000000000000000000000000000000000000000000000000000N 00000000000NCONT   00    00000000000          00000000000000000000000000000000000000000000 000000000000000A000000000000000000000000000000000000000000000 000000000000000000000000000000000000000     00000000                                                                                                                        000000000000000000
F0010000008587800004000090040631000042505000000000000000000201605110002001BEINEX SAS                                        C000000000000000000000000000000000100010010000000000000000000000F0010000008587800420160511000101 00000000000000000000000000000000000000000000000000000000000000000000000000000000000000000000000000000000000000000N 00000000000NCONT   00    00000000000          00000000000000000000000000000000000000000000 000000000000000A000000000000000000000000000000000000000000000 000000000000000000000000000000000000000     00000000                                                                                                                        000000000000000000
F0010000008587800005000090040631000023658300000000000000000201605110002001BEINEX SAS                                        C000000000096800000000000000000000100010010000000000000000000000F0010000008587800520160511000101 00000000000000000000000000000000000000000000000000000000000000000000000000000000000000000000000000000000000000000N 00000000000NCONT   00    00000000000          00000000000000000000000000000000000000000000 000000000000000A000000000000000000000000000000000000000000000 000000000000000000000000000000000000000     00000000                                                                                                                        000000000000000000
F0010000008587800006000090040631000013552100000000000000000201605110002001BEINEX SAS                                        D000000000096800000000000000000000100010010000000000000000000000F0010000008587800620160511000101 00000000000000000000000000000000000000000000000000000000000000000000000000000000000000000000000000000000000000000N 00000000000NCONT   00    00000000000          00000000000000000000000000000000000000000000 000000000000000A000000000000000000000000000000000000000000000 000000000000000000000000000000000000000     00000000                                                                                                                        000000000000000000
F0010000008587900001000080010983700013050500000000000000000201605110002001OHM LTDA                                          D000000012280000000000000000000000100010010000000000000000000000F0010000008587900120160511000101 00000000000000000000000000000000000000000000000000000000000000000000000000000000000000000000000000000000000000000N 00000000000NCONT   00    00000000000          00000000000000000000000000000000000000000000 000000000000000A000000000000000000000000000000000000000000000 000000000000000000000000000000000000000     00000000                                                                                                                        000000000000000000
F0010000008587900002000080010983700041450500000000000000000201605110002001OHM LTDA                                          C000000012130000000000000000000000100010010000000000000000000000F0010000008587900220160511000101 00000000000000000000000000000000000000000000000000000000000000000000000000000000000000000000000000000000000000000N 00000000000NCONT   00    00000000000          00000000000000000000000000000000000000000000 000000000000000A000000000000000000000000000000000000000000000 000000000000000000000000000000000000000     00000000                                                                                                                        000000000000000000
F0010000008587900003000080010983700042505000000000000000000201605110002001OHM LTDA                                          C000000000150000000000000000000000100010010000000000000000000000F0010000008587900320160511000101 00000000000000000000000000000000000000000000000000000000000000000000000000000000000000000000000000000000000000000N 00000000000NCONT   00    00000000000          00000000000000000000000000000000000000000000 000000000000000A000000000000000000000000000000000000000000000 000000000000000000000000000000000000000     00000000                                                                                                                        000000000000000000
F0010000008587900004000080010983700023658300000000000000000201605110002001OHM LTDA                                          C000000000097000000000000000000000100010010000000000000000000000F0010000008587900420160511000101 00000000000000000000000000000000000000000000000000000000000000000000000000000000000000000000000000000000000000000N 00000000000NCONT   00    00000000000          00000000000000000000000000000000000000000000 000000000000000A000000000000000000000000000000000000000000000 000000000000000000000000000000000000000     00000000                                                                                                                        000000000000000000
F0010000008587900005000080010983700013552100000000000000000201605110002001OHM LTDA                                          D000000000097000000000000000000000100010010000000000000000000000F0010000008587900520160511000101 00000000000000000000000000000000000000000000000000000000000000000000000000000000000000000000000000000000000000000N 00000000000NCONT   00    00000000000          00000000000000000000000000000000000000000000 000000000000000A000000000000000000000000000000000000000000000 000000000000000000000000000000000000000     00000000                                                                                                                        000000000000000000
F0010000008588000001000086003979400013050500000000000000000201605110002001CALYPSO BARRANQUILLA LTDA                         D000000018266900000000000000000000100010010000000000000000000000F0010000008588000120160511000101 00000000000000000000000000000000000000000000000000000000000000000000000000000000000000000000000000000000000000000N 00000000000NCONT   00    00000000000          00000000000000000000000000000000000000000000 000000000000000A000000000000000000000000000000000000000000000 000000000000000000000000000000000000000     00000000                                                                                                                        000000000000000000
F0010000008588000002000086003979400041450500000000000000000201605110002001CALYPSO BARRANQUILLA LTDA                         C000000016080000000000000000000000100010010000000000000000000000F0010000008588000220160511000101 00000000000000000000000000000000000000000000000000000000000000000000000000000000000000000000000000000000000000000N 00000000000NCONT   00    00000000000          00000000000000000000000000000000000000000000 000000000000000A000000000000000000000000000000000000000000000 000000000000000000000000000000000000000     00000000                                                                                                                        000000000000000000
F0010000008588000003000086003979400042505000000000000000000201605110002001CALYPSO BARRANQUILLA LTDA                         C000000002186900000000000000000000100010010000000000000000000000F0010000008588000320160511000101 00000000000000000000000000000000000000000000000000000000000000000000000000000000000000000000000000000000000000000N 00000000000NCONT   00    00000000000          00000000000000000000000000000000000000000000 000000000000000A000000000000000000000000000000000000000000000 000000000000000000000000000000000000000     00000000                                                                                                                        000000000000000000
F0010000008588000004000086003979400023658300000000000000000201605110002001CALYPSO BARRANQUILLA LTDA                         C000000000128600000000000000000000100010010000000000000000000000F0010000008588000420160511000101 00000000000000000000000000000000000000000000000000000000000000000000000000000000000000000000000000000000000000000N 00000000000NCONT   00    00000000000          00000000000000000000000000000000000000000000 000000000000000A000000000000000000000000000000000000000000000 000000000000000000000000000000000000000     00000000                                                                                                                        000000000000000000
F0010000008588000005000086003979400013552100000000000000000201605110002001CALYPSO BARRANQUILLA LTDA                         D000000000128600000000000000000000100010010000000000000000000000F0010000008588000520160511000101 00000000000000000000000000000000000000000000000000000000000000000000000000000000000000000000000000000000000000000N 00000000000NCONT   00    00000000000          00000000000000000000000000000000000000000000 000000000000000A000000000000000000000000000000000000000000000 000000000000000000000000000000000000000     00000000                                                                                                                        000000000000000000
F0010000008588100001000080000083500013050500000000000000000201605110002001ALIPAR Y CIA LTDA                                 D000000029646900000000000000000000100010010000000000000000000000F0010000008588100120160511000101 00000000000000000000000000000000000000000000000000000000000000000000000000000000000000000000000000000000000000000N 00000000000NCONT   00    00000000000          00000000000000000000000000000000000000000000 000000000000000A000000000000000000000000000000000000000000000 000000000000000000000000000000000000000     00000000                                                                                                                        000000000000000000
F0010000008588100002000080000083500041450500000000000000000201605110002001ALIPAR Y CIA LTDA                                 C000000027046900000000000000000000100010010000000000000000000000F0010000008588100220160511000101 00000000000000000000000000000000000000000000000000000000000000000000000000000000000000000000000000000000000000000N 00000000000NCONT   00    00000000000          00000000000000000000000000000000000000000000 000000000000000A000000000000000000000000000000000000000000000 000000000000000000000000000000000000000     00000000                                                                                                                        000000000000000000
F0010000008588100003000080000083500042505000000000000000000201605110002001ALIPAR Y CIA LTDA                                 C000000002600000000000000000000000100010010000000000000000000000F0010000008588100320160511000101 00000000000000000000000000000000000000000000000000000000000000000000000000000000000000000000000000000000000000000N 00000000000NCONT   00    00000000000          00000000000000000000000000000000000000000000 000000000000000A000000000000000000000000000000000000000000000 000000000000000000000000000000000000000     00000000                                                                                                                        000000000000000000
F0010000008588100004000080000083500023658300000000000000000201605110002001ALIPAR Y CIA LTDA                                 C000000000216400000000000000000000100010010000000000000000000000F0010000008588100420160511000101 00000000000000000000000000000000000000000000000000000000000000000000000000000000000000000000000000000000000000000N 00000000000NCONT   00    00000000000          00000000000000000000000000000000000000000000 000000000000000A000000000000000000000000000000000000000000000 000000000000000000000000000000000000000     00000000                                                                                                                        000000000000000000
F0010000008588100005000080000083500013552100000000000000000201605110002001ALIPAR Y CIA LTDA                                 D000000000216400000000000000000000100010010000000000000000000000F0010000008588100520160511000101 00000000000000000000000000000000000000000000000000000000000000000000000000000000000000000000000000000000000000000N 00000000000NCONT   00    00000000000          00000000000000000000000000000000000000000000 000000000000000A000000000000000000000000000000000000000000000 000000000000000000000000000000000000000     00000000                                                                                                                        000000000000000000
F0010000008588200001000080202132300013050500000000000000000201605110002001SUM Y SERV DE LA COSTA LTDA                       D000000019000000000000000000000000100010010000000000000000000000F0010000008588200120160511000101 00000000000000000000000000000000000000000000000000000000000000000000000000000000000000000000000000000000000000000N 00000000000NCONT   00    00000000000          00000000000000000000000000000000000000000000 000000000000000A000000000000000000000000000000000000000000000 000000000000000000000000000000000000000     00000000                                                                                                                        000000000000000000
F0010000008588200002000080202132300041450500000000000000000201605110002001SUM Y SERV DE LA COSTA LTDA                       C000000017800000000000000000000000100010010000000000000000000000F0010000008588200220160511000101 00000000000000000000000000000000000000000000000000000000000000000000000000000000000000000000000000000000000000000N 00000000000NCONT   00    00000000000          00000000000000000000000000000000000000000000 000000000000000A000000000000000000000000000000000000000000000 000000000000000000000000000000000000000     00000000                                                                                                                        000000000000000000
F0010000008588200003000080202132300042505000000000000000000201605110002001SUM Y SERV DE LA COSTA LTDA                       C000000001200000000000000000000000100010010000000000000000000000F0010000008588200320160511000101 00000000000000000000000000000000000000000000000000000000000000000000000000000000000000000000000000000000000000000N 00000000000NCONT   00    00000000000          00000000000000000000000000000000000000000000 000000000000000A000000000000000000000000000000000000000000000 000000000000000000000000000000000000000     00000000                                                                                                                        000000000000000000
F0010000008588200004000080202132300023658300000000000000000201605110002001SUM Y SERV DE LA COSTA LTDA                       C000000000142400000000000000000000100010010000000000000000000000F0010000008588200420160511000101 00000000000000000000000000000000000000000000000000000000000000000000000000000000000000000000000000000000000000000N 00000000000NCONT   00    00000000000          00000000000000000000000000000000000000000000 000000000000000A000000000000000000000000000000000000000000000 000000000000000000000000000000000000000     00000000                                                                                                                        000000000000000000
F0010000008588200005000080202132300013552100000000000000000201605110002001SUM Y SERV DE LA COSTA LTDA                       D000000000142400000000000000000000100010010000000000000000000000F0010000008588200520160511000101 00000000000000000000000000000000000000000000000000000000000000000000000000000000000000000000000000000000000000000N 00000000000NCONT   00    00000000000          00000000000000000000000000000000000000000000 000000000000000A000000000000000000000000000000000000000000000 000000000000000000000000000000000000000     00000000                                                                                                                        000000000000000000
F0010000008588300001000090019362000013050500000000000000000201605110002001GENERAL SUPPLIES CIA LTDA                         D000000011010000000000000000000000100010010000000000000000000000F0010000008588300120160511000101 00000000000000000000000000000000000000000000000000000000000000000000000000000000000000000000000000000000000000000N 00000000000NCONT   00    00000000000          00000000000000000000000000000000000000000000 000000000000000A000000000000000000000000000000000000000000000 000000000000000000000000000000000000000     00000000                                                                                                                        000000000000000000
F0010000008588300002000090019362000041450500000000000000000201605110002001GENERAL SUPPLIES CIA LTDA                         C000000009400000000000000000000000100010010000000000000000000000F0010000008588300220160511000101 00000000000000000000000000000000000000000000000000000000000000000000000000000000000000000000000000000000000000000N 00000000000NCONT   00    00000000000          00000000000000000000000000000000000000000000 000000000000000A000000000000000000000000000000000000000000000 000000000000000000000000000000000000000     00000000                                                                                                                        000000000000000000
F0010000008588300003000090019362000042505000000000000000000201605110002001GENERAL SUPPLIES CIA LTDA                         C000000001610000000000000000000000100010010000000000000000000000F0010000008588300320160511000101 00000000000000000000000000000000000000000000000000000000000000000000000000000000000000000000000000000000000000000N 00000000000NCONT   00    00000000000          00000000000000000000000000000000000000000000 000000000000000A000000000000000000000000000000000000000000000 000000000000000000000000000000000000000     00000000                                                                                                                        000000000000000000
F0010000008588300004000090019362000023658300000000000000000201605110002001GENERAL SUPPLIES CIA LTDA                         C000000000075200000000000000000000100010010000000000000000000000F0010000008588300420160511000101 00000000000000000000000000000000000000000000000000000000000000000000000000000000000000000000000000000000000000000N 00000000000NCONT   00    00000000000          00000000000000000000000000000000000000000000 000000000000000A000000000000000000000000000000000000000000000 000000000000000000000000000000000000000     00000000                                                                                                                        000000000000000000
F0010000008588300005000090019362000013552100000000000000000201605110002001GENERAL SUPPLIES CIA LTDA                         D000000000075200000000000000000000100010010000000000000000000000F0010000008588300520160511000101 00000000000000000000000000000000000000000000000000000000000000000000000000000000000000000000000000000000000000000N 00000000000NCONT   00    00000000000          00000000000000000000000000000000000000000000 000000000000000A000000000000000000000000000000000000000000000 000000000000000000000000000000000000000     00000000                                                                                                                        000000000000000000
F0010000008588400001000090007142100013050500000000000000000201605110002001TODO BELLEZA Y MAX S.A.S                          D000000021875000000000000000000000100010010000000000000000000000F0010000008588400120160511000101 00000000000000000000000000000000000000000000000000000000000000000000000000000000000000000000000000000000000000000N 00000000000NCONT   00    00000000000          00000000000000000000000000000000000000000000 000000000000000A000000000000000000000000000000000000000000000 000000000000000000000000000000000000000     00000000                                                                                                                        000000000000000000
F0010000008588400002000090007142100041450500000000000000000201605110002001TODO BELLEZA Y MAX S.A.S                          C000000021000000000000000000000000100010010000000000000000000000F0010000008588400220160511000101 00000000000000000000000000000000000000000000000000000000000000000000000000000000000000000000000000000000000000000N 00000000000NCONT   00    00000000000          00000000000000000000000000000000000000000000 000000000000000A000000000000000000000000000000000000000000000 000000000000000000000000000000000000000     00000000                                                                                                                        000000000000000000
F0010000008588400003000090007142100042505000000000000000000201605110002001TODO BELLEZA Y MAX S.A.S                          C000000000875000000000000000000000100010010000000000000000000000F0010000008588400320160511000101 00000000000000000000000000000000000000000000000000000000000000000000000000000000000000000000000000000000000000000N 00000000000NCONT   00    00000000000          00000000000000000000000000000000000000000000 000000000000000A000000000000000000000000000000000000000000000 000000000000000000000000000000000000000     00000000                                                                                                                        000000000000000000
F0010000008588400004000090007142100023658300000000000000000201605110002001TODO BELLEZA Y MAX S.A.S                          C000000000168000000000000000000000100010010000000000000000000000F0010000008588400420160511000101 00000000000000000000000000000000000000000000000000000000000000000000000000000000000000000000000000000000000000000N 00000000000NCONT   00    00000000000          00000000000000000000000000000000000000000000 000000000000000A000000000000000000000000000000000000000000000 000000000000000000000000000000000000000     00000000                                                                                                                        000000000000000000
F0010000008588400005000090007142100013552100000000000000000201605110002001TODO BELLEZA Y MAX S.A.S                          D000000000168000000000000000000000100010010000000000000000000000F0010000008588400520160511000101 00000000000000000000000000000000000000000000000000000000000000000000000000000000000000000000000000000000000000000N 00000000000NCONT   00    00000000000          00000000000000000000000000000000000000000000 000000000000000A000000000000000000000000000000000000000000000 000000000000000000000000000000000000000     00000000                                                                                                                        000000000000000000
F0010000008588500001000000744822500013050500000000000000000201605110002001LABORATORIO Y PERFUMERIA BORGE                    D000000012452000000000000000000000100010010000000000000000000000F0010000008588500120160511000101 00000000000000000000000000000000000000000000000000000000000000000000000000000000000000000000000000000000000000000N 00000000000NCONT   00    00000000000          00000000000000000000000000000000000000000000 000000000000000A000000000000000000000000000000000000000000000 000000000000000000000000000000000000000     00000000                                                                                                                        000000000000000000
F0010000008588500002000000744822500041450500000000000000000201605110002001LABORATORIO Y PERFUMERIA BORGE                    C000000007862000000000000000000000100010010000000000000000000000F0010000008588500220160511000101 00000000000000000000000000000000000000000000000000000000000000000000000000000000000000000000000000000000000000000N 00000000000NCONT   00    00000000000          00000000000000000000000000000000000000000000 000000000000000A000000000000000000000000000000000000000000000 000000000000000000000000000000000000000     00000000                                                                                                                        000000000000000000
F0010000008588500003000000744822500042505000000000000000000201605110002001LABORATORIO Y PERFUMERIA BORGE                    C000000004590000000000000000000000100010010000000000000000000000F0010000008588500320160511000101 00000000000000000000000000000000000000000000000000000000000000000000000000000000000000000000000000000000000000000N 00000000000NCONT   00    00000000000          00000000000000000000000000000000000000000000 000000000000000A000000000000000000000000000000000000000000000 000000000000000000000000000000000000000     00000000                                                                                                                        000000000000000000
F0010000008588500004000000744822500023658300000000000000000201605110002001LABORATORIO Y PERFUMERIA BORGE                    C000000000062900000000000000000000100010010000000000000000000000F0010000008588500420160511000101 00000000000000000000000000000000000000000000000000000000000000000000000000000000000000000000000000000000000000000N 00000000000NCONT   00    00000000000          00000000000000000000000000000000000000000000 000000000000000A000000000000000000000000000000000000000000000 000000000000000000000000000000000000000     00000000                                                                                                                        000000000000000000
F0010000008588500005000000744822500013552100000000000000000201605110002001LABORATORIO Y PERFUMERIA BORGE                    D000000000062900000000000000000000100010010000000000000000000000F0010000008588500520160511000101 00000000000000000000000000000000000000000000000000000000000000000000000000000000000000000000000000000000000000000N 00000000000NCONT   00    00000000000          00000000000000000000000000000000000000000000 000000000000000A000000000000000000000000000000000000000000000 000000000000000000000000000000000000000     00000000                                                                                                                        000000000000000000
F0010000008588600001000004175790100013050500000000000000000201605110002001ROSIRIS FERIA HOYOS  (COSM. SHILLER)              D000000010900000000000000000000000100010010000000000000000000000F0010000008588600120160511000101 00000000000000000000000000000000000000000000000000000000000000000000000000000000000000000000000000000000000000000N 00000000000NCONT   00    00000000000          00000000000000000000000000000000000000000000 000000000000000A000000000000000000000000000000000000000000000 000000000000000000000000000000000000000     00000000                                                                                                                        000000000000000000
F0010000008588600002000004175790100041450500000000000000000201605110002001ROSIRIS FERIA HOYOS  (COSM. SHILLER)              C000000009600000000000000000000000100010010000000000000000000000F0010000008588600220160511000101 00000000000000000000000000000000000000000000000000000000000000000000000000000000000000000000000000000000000000000N 00000000000NCONT   00    00000000000          00000000000000000000000000000000000000000000 000000000000000A000000000000000000000000000000000000000000000 000000000000000000000000000000000000000     00000000                                                                                                                        000000000000000000
F0010000008588600003000004175790100042505000000000000000000201605110002001ROSIRIS FERIA HOYOS  (COSM. SHILLER)              C000000001300000000000000000000000100010010000000000000000000000F0010000008588600320160511000101 00000000000000000000000000000000000000000000000000000000000000000000000000000000000000000000000000000000000000000N 00000000000NCONT   00    00000000000          00000000000000000000000000000000000000000000 000000000000000A000000000000000000000000000000000000000000000 000000000000000000000000000000000000000     00000000                                                                                                                        000000000000000000
F0010000008588600004000004175790100023658300000000000000000201605110002001ROSIRIS FERIA HOYOS  (COSM. SHILLER)              C000000000076800000000000000000000100010010000000000000000000000F0010000008588600420160511000101 00000000000000000000000000000000000000000000000000000000000000000000000000000000000000000000000000000000000000000N 00000000000NCONT   00    00000000000          00000000000000000000000000000000000000000000 000000000000000A000000000000000000000000000000000000000000000 000000000000000000000000000000000000000     00000000                                                                                                                        000000000000000000
F0010000008588600005000004175790100013552100000000000000000201605110002001ROSIRIS FERIA HOYOS  (COSM. SHILLER)              D000000000076800000000000000000000100010010000000000000000000000F0010000008588600520160511000101 00000000000000000000000000000000000000000000000000000000000000000000000000000000000000000000000000000000000000000N 00000000000NCONT   00    00000000000          00000000000000000000000000000000000000000000 000000000000000A000000000000000000000000000000000000000000000 000000000000000000000000000000000000000     00000000                                                                                                                        000000000000000000
F0010000008588700001000080200250700013050500000000000000000201605110002001ETICOL SAS                                        D000000007111000000000000000000000100010010000000000000000000000F0010000008588700120160511000101 00000000000000000000000000000000000000000000000000000000000000000000000000000000000000000000000000000000000000000N 00000000000NCONT   00    00000000000          00000000000000000000000000000000000000000000 000000000000000A000000000000000000000000000000000000000000000 000000000000000000000000000000000000000     00000000                                                                                                                        000000000000000000
F0010000008588700002000080200250700041450500000000000000000201605110002001ETICOL SAS                                        C000000006511000000000000000000000100010010000000000000000000000F0010000008588700220160511000101 00000000000000000000000000000000000000000000000000000000000000000000000000000000000000000000000000000000000000000N 00000000000NCONT   00    00000000000          00000000000000000000000000000000000000000000 000000000000000A000000000000000000000000000000000000000000000 000000000000000000000000000000000000000     00000000                                                                                                                        000000000000000000
F0010000008588700003000080200250700042505000000000000000000201605110002001ETICOL SAS                                        C000000000600000000000000000000000100010010000000000000000000000F0010000008588700320160511000101 00000000000000000000000000000000000000000000000000000000000000000000000000000000000000000000000000000000000000000N 00000000000NCONT   00    00000000000          00000000000000000000000000000000000000000000 000000000000000A000000000000000000000000000000000000000000000 000000000000000000000000000000000000000     00000000                                                                                                                        000000000000000000
F0010000008588700004000080200250700023658300000000000000000201605110002001ETICOL SAS                                        C000000000052100000000000000000000100010010000000000000000000000F0010000008588700420160511000101 00000000000000000000000000000000000000000000000000000000000000000000000000000000000000000000000000000000000000000N 00000000000NCONT   00    00000000000          00000000000000000000000000000000000000000000 000000000000000A000000000000000000000000000000000000000000000 000000000000000000000000000000000000000     00000000                                                                                                                        000000000000000000
F0010000008588700005000080200250700013552100000000000000000201605110002001ETICOL SAS                                        D000000000052100000000000000000000100010010000000000000000000000F0010000008588700520160511000101 00000000000000000000000000000000000000000000000000000000000000000000000000000000000000000000000000000000000000000N 00000000000NCONT   00    00000000000          00000000000000000000000000000000000000000000 000000000000000A000000000000000000000000000000000000000000000 000000000000000000000000000000000000000     00000000                                                                                                                        000000000000000000
F0010000008588800001000090001736600013050500000000000000000201605110002001AF SUMINISTROS E.U.                               D000000036500000000000000000000000100010010000000000000000000000F0010000008588800120160511000101 00000000000000000000000000000000000000000000000000000000000000000000000000000000000000000000000000000000000000000N 00000000000NCONT   00    00000000000          00000000000000000000000000000000000000000000 000000000000000A000000000000000000000000000000000000000000000 000000000000000000000000000000000000000     00000000                                                                                                                        000000000000000000
F0010000008588800002000090001736600041450500000000000000000201605110002001AF SUMINISTROS E.U.                               C000000032500000000000000000000000100010010000000000000000000000F0010000008588800220160511000101 00000000000000000000000000000000000000000000000000000000000000000000000000000000000000000000000000000000000000000N 00000000000NCONT   00    00000000000          00000000000000000000000000000000000000000000 000000000000000A000000000000000000000000000000000000000000000 000000000000000000000000000000000000000     00000000                                                                                                                        000000000000000000
F0010000008588800003000090001736600042505000000000000000000201605110002001AF SUMINISTROS E.U.                               C000000004000000000000000000000000100010010000000000000000000000F0010000008588800320160511000101 00000000000000000000000000000000000000000000000000000000000000000000000000000000000000000000000000000000000000000N 00000000000NCONT   00    00000000000          00000000000000000000000000000000000000000000 000000000000000A000000000000000000000000000000000000000000000 000000000000000000000000000000000000000     00000000                                                                                                                        000000000000000000
F0010000008588800004000090001736600023658300000000000000000201605110002001AF SUMINISTROS E.U.                               C000000000260000000000000000000000100010010000000000000000000000F0010000008588800420160511000101 00000000000000000000000000000000000000000000000000000000000000000000000000000000000000000000000000000000000000000N 00000000000NCONT   00    00000000000          00000000000000000000000000000000000000000000 000000000000000A000000000000000000000000000000000000000000000 000000000000000000000000000000000000000     00000000                                                                                                                        000000000000000000
F0010000008588800005000090001736600013552100000000000000000201605110002001AF SUMINISTROS E.U.                               D000000000260000000000000000000000100010010000000000000000000000F0010000008588800520160511000101 00000000000000000000000000000000000000000000000000000000000000000000000000000000000000000000000000000000000000000N 00000000000NCONT   00    00000000000          00000000000000000000000000000000000000000000 000000000000000A000000000000000000000000000000000000000000000 000000000000000000000000000000000000000     00000000                                                                                                                        000000000000000000
F0010000008588900001000086053108300013050500000000000000000201605110002001EL PALACIO DEL ALUMINIO                           D000000037428400000000000000000000100010010000000000000000000000F0010000008588900120160511000101 00000000000000000000000000000000000000000000000000000000000000000000000000000000000000000000000000000000000000000N 00000000000NCONT   00    00000000000          00000000000000000000000000000000000000000000 000000000000000A000000000000000000000000000000000000000000000 000000000000000000000000000000000000000     00000000                                                                                                                        000000000000000000
F0010000008588900002000086053108300041450500000000000000000201605110002001EL PALACIO DEL ALUMINIO                           C000000029880000000000000000000000100010010000000000000000000000F0010000008588900220160511000101 00000000000000000000000000000000000000000000000000000000000000000000000000000000000000000000000000000000000000000N 00000000000NCONT   00    00000000000          00000000000000000000000000000000000000000000 000000000000000A000000000000000000000000000000000000000000000 000000000000000000000000000000000000000     00000000                                                                                                                        000000000000000000
F0010000008588900003000086053108300042505000000000000000000201605110002001EL PALACIO DEL ALUMINIO                           C000000007548400000000000000000000100010010000000000000000000000F0010000008588900320160511000101 00000000000000000000000000000000000000000000000000000000000000000000000000000000000000000000000000000000000000000N 00000000000NCONT   00    00000000000          00000000000000000000000000000000000000000000 000000000000000A000000000000000000000000000000000000000000000 000000000000000000000000000000000000000     00000000                                                                                                                        000000000000000000
F0010000008588900004000086053108300023658300000000000000000201605110002001EL PALACIO DEL ALUMINIO                           C000000000239000000000000000000000100010010000000000000000000000F0010000008588900420160511000101 00000000000000000000000000000000000000000000000000000000000000000000000000000000000000000000000000000000000000000N 00000000000NCONT   00    00000000000          00000000000000000000000000000000000000000000 000000000000000A000000000000000000000000000000000000000000000 000000000000000000000000000000000000000     00000000                                                                                                                        000000000000000000
F0010000008588900005000086053108300013552100000000000000000201605110002001EL PALACIO DEL ALUMINIO                           D000000000239000000000000000000000100010010000000000000000000000F0010000008588900520160511000101 00000000000000000000000000000000000000000000000000000000000000000000000000000000000000000000000000000000000000000N 00000000000NCONT   00    00000000000          00000000000000000000000000000000000000000000 000000000000000A000000000000000000000000000000000000000000000 000000000000000000000000000000000000000     00000000                                                                                                                        000000000000000000
F0010000008589000001000089030195100013050500000000000000000201605110002001LIBRERIA NACIONAL S.A.                            D000000018750000000000000000000000100010010000000000000000000000F0010000008589000120160511000101 00000000000000000000000000000000000000000000000000000000000000000000000000000000000000000000000000000000000000000N 00000000000NCONT   00    00000000000          00000000000000000000000000000000000000000000 000000000000000A000000000000000000000000000000000000000000000 000000000000000000000000000000000000000     00000000                                                                                                                        000000000000000000
F0010000008589000002000089030195100041450500000000000000000201605110002001LIBRERIA NACIONAL S.A.                            C000000015450000000000000000000000100010010000000000000000000000F0010000008589000220160511000101 00000000000000000000000000000000000000000000000000000000000000000000000000000000000000000000000000000000000000000N 00000000000NCONT   00    00000000000          00000000000000000000000000000000000000000000 000000000000000A000000000000000000000000000000000000000000000 000000000000000000000000000000000000000     00000000                                                                                                                        000000000000000000
F0010000008589000003000089030195100042505000000000000000000201605110002001LIBRERIA NACIONAL S.A.                            C000000003300000000000000000000000100010010000000000000000000000F0010000008589000320160511000101 00000000000000000000000000000000000000000000000000000000000000000000000000000000000000000000000000000000000000000N 00000000000NCONT   00    00000000000          00000000000000000000000000000000000000000000 000000000000000A000000000000000000000000000000000000000000000 000000000000000000000000000000000000000     00000000                                                                                                                        000000000000000000
F0010000008589000004000089030195100023658300000000000000000201605110002001LIBRERIA NACIONAL S.A.                            C000000000123600000000000000000000100010010000000000000000000000F0010000008589000420160511000101 00000000000000000000000000000000000000000000000000000000000000000000000000000000000000000000000000000000000000000N 00000000000NCONT   00    00000000000          00000000000000000000000000000000000000000000 000000000000000A000000000000000000000000000000000000000000000 000000000000000000000000000000000000000     00000000                                                                                                                        000000000000000000
F0010000008589000005000089030195100013552100000000000000000201605110002001LIBRERIA NACIONAL S.A.                            D000000000123600000000000000000000100010010000000000000000000000F0010000008589000520160511000101 00000000000000000000000000000000000000000000000000000000000000000000000000000000000000000000000000000000000000000N 00000000000NCONT   00    00000000000          00000000000000000000000000000000000000000000 000000000000000A000000000000000000000000000000000000000000000 000000000000000000000000000000000000000     00000000                                                                                                                        000000000000000000
F0010000008589100001000090044920600013050500000000000000000201605110002001QUATRO CARIBE SAS                                 D000000023795000000000000000000000100010010000000000000000000000F0010000008589100120160511000101 00000000000000000000000000000000000000000000000000000000000000000000000000000000000000000000000000000000000000000N 00000000000NCONT   00    00000000000          00000000000000000000000000000000000000000000 000000000000000A000000000000000000000000000000000000000000000 000000000000000000000000000000000000000     00000000                                                                                                                        000000000000000000
F0010000008589100002000090044920600041450500000000000000000201605110002001QUATRO CARIBE SAS                                 C000000018320000000000000000000000100010010000000000000000000000F0010000008589100220160511000101 00000000000000000000000000000000000000000000000000000000000000000000000000000000000000000000000000000000000000000N 00000000000NCONT   00    00000000000          00000000000000000000000000000000000000000000 000000000000000A000000000000000000000000000000000000000000000 000000000000000000000000000000000000000     00000000                                                                                                                        000000000000000000
F0010000008589100003000090044920600042505000000000000000000201605110002001QUATRO CARIBE SAS                                 C000000005475000000000000000000000100010010000000000000000000000F0010000008589100320160511000101 00000000000000000000000000000000000000000000000000000000000000000000000000000000000000000000000000000000000000000N 00000000000NCONT   00    00000000000          00000000000000000000000000000000000000000000 000000000000000A000000000000000000000000000000000000000000000 000000000000000000000000000000000000000     00000000                                                                                                                        000000000000000000
F0010000008589100004000090044920600023658300000000000000000201605110002001QUATRO CARIBE SAS                                 C000000000146600000000000000000000100010010000000000000000000000F0010000008589100420160511000101 00000000000000000000000000000000000000000000000000000000000000000000000000000000000000000000000000000000000000000N 00000000000NCONT   00    00000000000          00000000000000000000000000000000000000000000 000000000000000A000000000000000000000000000000000000000000000 000000000000000000000000000000000000000     00000000                                                                                                                        000000000000000000
F0010000008589100005000090044920600013552100000000000000000201605110002001QUATRO CARIBE SAS                                 D000000000146600000000000000000000100010010000000000000000000000F0010000008589100520160511000101 00000000000000000000000000000000000000000000000000000000000000000000000000000000000000000000000000000000000000000N 00000000000NCONT   00    00000000000          00000000000000000000000000000000000000000000 000000000000000A000000000000000000000000000000000000000000000 000000000000000000000000000000000000000     00000000                                                                                                                        000000000000000000
F0010000008589200001000001022529300013050500000000000000000201605110002001ALBERTO ALVAREZ ISAZA                             D000000018205400000000000000000000100010010000000000000000000000F0010000008589200120160511000101 00000000000000000000000000000000000000000000000000000000000000000000000000000000000000000000000000000000000000000N 00000000000NCONT   00    00000000000          00000000000000000000000000000000000000000000 000000000000000A000000000000000000000000000000000000000000000 000000000000000000000000000000000000000     00000000                                                                                                                        000000000000000000
F0010000008589200002000001022529300041450500000000000000000201605110002001ALBERTO ALVAREZ ISAZA                             C000000017470000000000000000000000100010010000000000000000000000F0010000008589200220160511000101 00000000000000000000000000000000000000000000000000000000000000000000000000000000000000000000000000000000000000000N 00000000000NCONT   00    00000000000          00000000000000000000000000000000000000000000 000000000000000A000000000000000000000000000000000000000000000 000000000000000000000000000000000000000     00000000                                                                                                                        000000000000000000
F0010000008589200003000001022529300042505000000000000000000201605110002001ALBERTO ALVAREZ ISAZA                             C000000000735400000000000000000000100010010000000000000000000000F0010000008589200320160511000101 00000000000000000000000000000000000000000000000000000000000000000000000000000000000000000000000000000000000000000N 00000000000NCONT   00    00000000000          00000000000000000000000000000000000000000000 000000000000000A000000000000000000000000000000000000000000000 000000000000000000000000000000000000000     00000000                                                                                                                        000000000000000000
F0010000008589200004000001022529300023658300000000000000000201605110002001ALBERTO ALVAREZ ISAZA                             C000000000139800000000000000000000100010010000000000000000000000F0010000008589200420160511000101 00000000000000000000000000000000000000000000000000000000000000000000000000000000000000000000000000000000000000000N 00000000000NCONT   00    00000000000          00000000000000000000000000000000000000000000 000000000000000A000000000000000000000000000000000000000000000 000000000000000000000000000000000000000     00000000                                                                                                                        000000000000000000
F0010000008589200005000001022529300013552100000000000000000201605110002001ALBERTO ALVAREZ ISAZA                             D000000000139800000000000000000000100010010000000000000000000000F0010000008589200520160511000101 00000000000000000000000000000000000000000000000000000000000000000000000000000000000000000000000000000000000000000N 00000000000NCONT   00    00000000000          00000000000000000000000000000000000000000000 000000000000000A000000000000000000000000000000000000000000000 000000000000000000000000000000000000000     00000000                                                                                                                        000000000000000000
F0010000008589300001000000431178400013050500000000000000000201605110002001EFRAIN ALVAREZ                                    D000000012185000000000000000000000100010010000000000000000000000F0010000008589300120160511000101 00000000000000000000000000000000000000000000000000000000000000000000000000000000000000000000000000000000000000000N 00000000000NCONT   00    00000000000          00000000000000000000000000000000000000000000 000000000000000A000000000000000000000000000000000000000000000 000000000000000000000000000000000000000     00000000                                                                                                                        000000000000000000
F0010000008589300002000000431178400041450500000000000000000201605110002001EFRAIN ALVAREZ                                    C000000011260000000000000000000000100010010000000000000000000000F0010000008589300220160511000101 00000000000000000000000000000000000000000000000000000000000000000000000000000000000000000000000000000000000000000N 00000000000NCONT   00    00000000000          00000000000000000000000000000000000000000000 000000000000000A000000000000000000000000000000000000000000000 000000000000000000000000000000000000000     00000000                                                                                                                        000000000000000000
F0010000008589300003000000431178400042505000000000000000000201605110002001EFRAIN ALVAREZ                                    C000000000925000000000000000000000100010010000000000000000000000F0010000008589300320160511000101 00000000000000000000000000000000000000000000000000000000000000000000000000000000000000000000000000000000000000000N 00000000000NCONT   00    00000000000          00000000000000000000000000000000000000000000 000000000000000A000000000000000000000000000000000000000000000 000000000000000000000000000000000000000     00000000                                                                                                                        000000000000000000
F0010000008589300004000000431178400023658300000000000000000201605110002001EFRAIN ALVAREZ                                    C000000000090100000000000000000000100010010000000000000000000000F0010000008589300420160511000101 00000000000000000000000000000000000000000000000000000000000000000000000000000000000000000000000000000000000000000N 00000000000NCONT   00    00000000000          00000000000000000000000000000000000000000000 000000000000000A000000000000000000000000000000000000000000000 000000000000000000000000000000000000000     00000000                                                                                                                        000000000000000000
F0010000008589300005000000431178400013552100000000000000000201605110002001EFRAIN ALVAREZ                                    D000000000090100000000000000000000100010010000000000000000000000F0010000008589300520160511000101 00000000000000000000000000000000000000000000000000000000000000000000000000000000000000000000000000000000000000000N 00000000000NCONT   00    00000000000          00000000000000000000000000000000000000000000 000000000000000A000000000000000000000000000000000000000000000 000000000000000000000000000000000000000     00000000                                                                                                                        000000000000000000
F0010000008589400001000083008772100013050500000000000000000201605110002001ILUMEC SAS                                        D000000030320000000000000000000000100010010000000000000000000000F0010000008589400120160511000101 00000000000000000000000000000000000000000000000000000000000000000000000000000000000000000000000000000000000000000N 00000000000NCONT   00    00000000000          00000000000000000000000000000000000000000000 000000000000000A000000000000000000000000000000000000000000000 000000000000000000000000000000000000000     00000000                                                                                                                        000000000000000000
F0010000008589400002000083008772100041450500000000000000000201605110002001ILUMEC SAS                                        C000000020120000000000000000000000100010010000000000000000000000F0010000008589400220160511000101 00000000000000000000000000000000000000000000000000000000000000000000000000000000000000000000000000000000000000000N 00000000000NCONT   00    00000000000          00000000000000000000000000000000000000000000 000000000000000A000000000000000000000000000000000000000000000 000000000000000000000000000000000000000     00000000                                                                                                                        000000000000000000
F0010000008589400003000083008772100042505000000000000000000201605110002001ILUMEC SAS                                        C000000010200000000000000000000000100010010000000000000000000000F0010000008589400320160511000101 00000000000000000000000000000000000000000000000000000000000000000000000000000000000000000000000000000000000000000N 00000000000NCONT   00    00000000000          00000000000000000000000000000000000000000000 000000000000000A000000000000000000000000000000000000000000000 000000000000000000000000000000000000000     00000000                                                                                                                        000000000000000000
F0010000008589400004000083008772100023658300000000000000000201605110002001ILUMEC SAS                                        C000000000161000000000000000000000100010010000000000000000000000F0010000008589400420160511000101 00000000000000000000000000000000000000000000000000000000000000000000000000000000000000000000000000000000000000000N 00000000000NCONT   00    00000000000          00000000000000000000000000000000000000000000 000000000000000A000000000000000000000000000000000000000000000 000000000000000000000000000000000000000     00000000                                                                                                                        000000000000000000
F0010000008589400005000083008772100013552100000000000000000201605110002001ILUMEC SAS                                        D000000000161000000000000000000000100010010000000000000000000000F0010000008589400520160511000101 00000000000000000000000000000000000000000000000000000000000000000000000000000000000000000000000000000000000000000N 00000000000NCONT   00    00000000000          00000000000000000000000000000000000000000000 000000000000000A000000000000000000000000000000000000000000000 000000000000000000000000000000000000000     00000000                                                                                                                        000000000000000000
F0010000008589500001000089031248700013050500000000000000000201605110002001DISTRIBUIDORA CALIPLASTICOS LTDA                  D000000030268500000000000000000000100010010000000000000000000000F0010000008589500120160511000101 00000000000000000000000000000000000000000000000000000000000000000000000000000000000000000000000000000000000000000N 00000000000NCONT   00    00000000000          00000000000000000000000000000000000000000000 000000000000000A000000000000000000000000000000000000000000000 000000000000000000000000000000000000000     00000000                                                                                                                        000000000000000000
F0010000008589500002000089031248700041450500000000000000000201605110002001DISTRIBUIDORA CALIPLASTICOS LTDA                  C000000028543500000000000000000000100010010000000000000000000000F0010000008589500220160511000101 00000000000000000000000000000000000000000000000000000000000000000000000000000000000000000000000000000000000000000N 00000000000NCONT   00    00000000000          00000000000000000000000000000000000000000000 000000000000000A000000000000000000000000000000000000000000000 000000000000000000000000000000000000000     00000000                                                                                                                        000000000000000000
F0010000008589500003000089031248700042505000000000000000000201605110002001DISTRIBUIDORA CALIPLASTICOS LTDA                  C000000001725000000000000000000000100010010000000000000000000000F0010000008589500320160511000101 00000000000000000000000000000000000000000000000000000000000000000000000000000000000000000000000000000000000000000N 00000000000NCONT   00    00000000000          00000000000000000000000000000000000000000000 000000000000000A000000000000000000000000000000000000000000000 000000000000000000000000000000000000000     00000000                                                                                                                        000000000000000000
F0010000008589500004000089031248700023658300000000000000000201605110002001DISTRIBUIDORA CALIPLASTICOS LTDA                  C000000000228300000000000000000000100010010000000000000000000000F0010000008589500420160511000101 00000000000000000000000000000000000000000000000000000000000000000000000000000000000000000000000000000000000000000N 00000000000NCONT   00    00000000000          00000000000000000000000000000000000000000000 000000000000000A000000000000000000000000000000000000000000000 000000000000000000000000000000000000000     00000000                                                                                                                        000000000000000000
F0010000008589500005000089031248700013552100000000000000000201605110002001DISTRIBUIDORA CALIPLASTICOS LTDA                  D000000000228300000000000000000000100010010000000000000000000000F0010000008589500520160511000101 00000000000000000000000000000000000000000000000000000000000000000000000000000000000000000000000000000000000000000N 00000000000NCONT   00    00000000000          00000000000000000000000000000000000000000000 000000000000000A000000000000000000000000000000000000000000000 000000000000000000000000000000000000000     00000000                                                                                                                        000000000000000000
F0010000008589600001000007215896800013050500000000000000000201605110002001EDDIER CIRO                                       D000000025558900000000000000000000100010010000000000000000000000F0010000008589600120160511000101 00000000000000000000000000000000000000000000000000000000000000000000000000000000000000000000000000000000000000000N 00000000000NCONT   00    00000000000          00000000000000000000000000000000000000000000 000000000000000A000000000000000000000000000000000000000000000 000000000000000000000000000000000000000     00000000                                                                                                                        000000000000000000
F0010000008589600002000007215896800041450500000000000000000201605110002001EDDIER CIRO                                       C000000016530000000000000000000000100010010000000000000000000000F0010000008589600220160511000101 00000000000000000000000000000000000000000000000000000000000000000000000000000000000000000000000000000000000000000N 00000000000NCONT   00    00000000000          00000000000000000000000000000000000000000000 000000000000000A000000000000000000000000000000000000000000000 000000000000000000000000000000000000000     00000000                                                                                                                        000000000000000000
F0010000008589600003000007215896800042505000000000000000000201605110002001EDDIER CIRO                                       C000000009028900000000000000000000100010010000000000000000000000F0010000008589600320160511000101 00000000000000000000000000000000000000000000000000000000000000000000000000000000000000000000000000000000000000000N 00000000000NCONT   00    00000000000          00000000000000000000000000000000000000000000 000000000000000A000000000000000000000000000000000000000000000 000000000000000000000000000000000000000     00000000                                                                                                                        000000000000000000
F0010000008589600004000007215896800023658300000000000000000201605110002001EDDIER CIRO                                       C000000000132200000000000000000000100010010000000000000000000000F0010000008589600420160511000101 00000000000000000000000000000000000000000000000000000000000000000000000000000000000000000000000000000000000000000N 00000000000NCONT   00    00000000000          00000000000000000000000000000000000000000000 000000000000000A000000000000000000000000000000000000000000000 000000000000000000000000000000000000000     00000000                                                                                                                        000000000000000000
F0010000008589600005000007215896800013552100000000000000000201605110002001EDDIER CIRO                                       D000000000132200000000000000000000100010010000000000000000000000F0010000008589600520160511000101 00000000000000000000000000000000000000000000000000000000000000000000000000000000000000000000000000000000000000000N 00000000000NCONT   00    00000000000          00000000000000000000000000000000000000000000 000000000000000A000000000000000000000000000000000000000000000 000000000000000000000000000000000000000     00000000                                                                                                                        000000000000000000
F0010000008589700001000089010272700013050500000000000000000201605110002001ALFONSOEME S.A.                                   D000000023892400000000000000000000100010010000000000000000000000F0010000008589700120160511000101 00000000000000000000000000000000000000000000000000000000000000000000000000000000000000000000000000000000000000000N 00000000000NCONT   00    00000000000          00000000000000000000000000000000000000000000 000000000000000A000000000000000000000000000000000000000000000 000000000000000000000000000000000000000     00000000                                                                                                                        000000000000000000
F0010000008589700002000089010272700041450500000000000000000201605110002001ALFONSOEME S.A.                                   C000000023436000000000000000000000100010010000000000000000000000F0010000008589700220160511000101 00000000000000000000000000000000000000000000000000000000000000000000000000000000000000000000000000000000000000000N 00000000000NCONT   00    00000000000          00000000000000000000000000000000000000000000 000000000000000A000000000000000000000000000000000000000000000 000000000000000000000000000000000000000     00000000                                                                                                                        000000000000000000
F0010000008589700003000089010272700041750100000000000000000201605110002001ALFONSOEME S.A.                                   D000000002343600000000000000000000100010010000000000000000000000F0010000008589700320160511000101 00000000000000000000000000000000000000000000000000000000000000000000000000000000000000000000000000000000000000000N 00000000000NCONT   00    00000000000          00000000000000000000000000000000000000000000 000000000000000A000000000000000000000000000000000000000000000 000000000000000000000000000000000000000     00000000                                                                                                                        000000000000000000
F0010000008589700004000089010272700042505000000000000000000201605110002001ALFONSOEME S.A.                                   C000000002800000000000000000000000100010010000000000000000000000F0010000008589700420160511000101 00000000000000000000000000000000000000000000000000000000000000000000000000000000000000000000000000000000000000000N 00000000000NCONT   00    00000000000          00000000000000000000000000000000000000000000 000000000000000A000000000000000000000000000000000000000000000 000000000000000000000000000000000000000     00000000                                                                                                                        000000000000000000
F0010000008589700005000089010272700023658300000000000000000201605110002001ALFONSOEME S.A.                                   C000000000187500000000000000000000100010010000000000000000000000F0010000008589700520160511000101 00000000000000000000000000000000000000000000000000000000000000000000000000000000000000000000000000000000000000000N 00000000000NCONT   00    00000000000          00000000000000000000000000000000000000000000 000000000000000A000000000000000000000000000000000000000000000 000000000000000000000000000000000000000     00000000                                                                                                                        000000000000000000
F0010000008589700006000089010272700013552100000000000000000201605110002001ALFONSOEME S.A.                                   D000000000187500000000000000000000100010010000000000000000000000F0010000008589700620160511000101 00000000000000000000000000000000000000000000000000000000000000000000000000000000000000000000000000000000000000000N 00000000000NCONT   00    00000000000          00000000000000000000000000000000000000000000 000000000000000A000000000000000000000000000000000000000000000 000000000000000000000000000000000000000     00000000                                                                                                                        000000000000000000
F0010000008589800001000089010272700013050500000000000000000201605110002001ALFONSOEME S.A.                                   D000000007633500000000000000000000100010010000000000000000000000F0010000008589800120160511000101 00000000000000000000000000000000000000000000000000000000000000000000000000000000000000000000000000000000000000000N 00000000000NCONT   00    00000000000          00000000000000000000000000000000000000000000 000000000000000A000000000000000000000000000000000000000000000 000000000000000000000000000000000000000     00000000                                                                                                                        000000000000000000
F0010000008589800002000089010272700041450500000000000000000201605110002001ALFONSOEME S.A.                                   C000000007415000000000000000000000100010010000000000000000000000F0010000008589800220160511000101 00000000000000000000000000000000000000000000000000000000000000000000000000000000000000000000000000000000000000000N 00000000000NCONT   00    00000000000          00000000000000000000000000000000000000000000 000000000000000A000000000000000000000000000000000000000000000 000000000000000000000000000000000000000     00000000                                                                                                                        000000000000000000
F0010000008589800003000089010272700041750100000000000000000201605110002001ALFONSOEME S.A.                                   D000000000741500000000000000000000100010010000000000000000000000F0010000008589800320160511000101 00000000000000000000000000000000000000000000000000000000000000000000000000000000000000000000000000000000000000000N 00000000000NCONT   00    00000000000          00000000000000000000000000000000000000000000 000000000000000A000000000000000000000000000000000000000000000 000000000000000000000000000000000000000     00000000                                                                                                                        000000000000000000
F0010000008589800004000089010272700042505000000000000000000201605110002001ALFONSOEME S.A.                                   C000000000960000000000000000000000100010010000000000000000000000F0010000008589800420160511000101 00000000000000000000000000000000000000000000000000000000000000000000000000000000000000000000000000000000000000000N 00000000000NCONT   00    00000000000          00000000000000000000000000000000000000000000 000000000000000A000000000000000000000000000000000000000000000 000000000000000000000000000000000000000     00000000                                                                                                                        000000000000000000
F0010000008589800005000089010272700023658300000000000000000201605110002001ALFONSOEME S.A.                                   C000000000059300000000000000000000100010010000000000000000000000F0010000008589800520160511000101 00000000000000000000000000000000000000000000000000000000000000000000000000000000000000000000000000000000000000000N 00000000000NCONT   00    00000000000          00000000000000000000000000000000000000000000 000000000000000A000000000000000000000000000000000000000000000 000000000000000000000000000000000000000     00000000                                                                                                                        000000000000000000
F0010000008589800006000089010272700013552100000000000000000201605110002001ALFONSOEME S.A.                                   D000000000059300000000000000000000100010010000000000000000000000F0010000008589800620160511000101 00000000000000000000000000000000000000000000000000000000000000000000000000000000000000000000000000000000000000000N 00000000000NCONT   00    00000000000          00000000000000000000000000000000000000000000 000000000000000A000000000000000000000000000000000000000000000 000000000000000000000000000000000000000     00000000                                                                                                                        000000000000000000
F0010000008589900001000081102758700013050500000000000000000201605110002001C.I. ABRACOL S.A EMA                              D000000096992800000000000000000000100010010000000000000000000000F0010000008589900120160511000101 00000000000000000000000000000000000000000000000000000000000000000000000000000000000000000000000000000000000000000N 00000000000NCONT   00    00000000000          00000000000000000000000000000000000000000000 000000000000000A000000000000000000000000000000000000000000000 000000000000000000000000000000000000000     00000000                                                                                                                        000000000000000000
F0010000008589900002000081102758700041450500000000000000000201605110002001C.I. ABRACOL S.A EMA                              C000000065560000000000000000000000100010010000000000000000000000F0010000008589900220160511000101 00000000000000000000000000000000000000000000000000000000000000000000000000000000000000000000000000000000000000000N 00000000000NCONT   00    00000000000          00000000000000000000000000000000000000000000 000000000000000A000000000000000000000000000000000000000000000 000000000000000000000000000000000000000     00000000                                                                                                                        000000000000000000
F0010000008589900003000081102758700041750100000000000000000201605110002001C.I. ABRACOL S.A EMA                              D000000001966800000000000000000000100010010000000000000000000000F0010000008589900320160511000101 00000000000000000000000000000000000000000000000000000000000000000000000000000000000000000000000000000000000000000N 00000000000NCONT   00    00000000000          00000000000000000000000000000000000000000000 000000000000000A000000000000000000000000000000000000000000000 000000000000000000000000000000000000000     00000000                                                                                                                        000000000000000000
F0010000008589900004000081102758700042505000000000000000000201605110002001C.I. ABRACOL S.A EMA                              C000000033399600000000000000000000100010010000000000000000000000F0010000008589900420160511000101 00000000000000000000000000000000000000000000000000000000000000000000000000000000000000000000000000000000000000000N 00000000000NCONT   00    00000000000          00000000000000000000000000000000000000000000 000000000000000A000000000000000000000000000000000000000000000 000000000000000000000000000000000000000     00000000                                                                                                                        000000000000000000
F0010000008589900005000081102758700023658300000000000000000201605110002001C.I. ABRACOL S.A EMA                              C000000000524500000000000000000000100010010000000000000000000000F0010000008589900520160511000101 00000000000000000000000000000000000000000000000000000000000000000000000000000000000000000000000000000000000000000N 00000000000NCONT   00    00000000000          00000000000000000000000000000000000000000000 000000000000000A000000000000000000000000000000000000000000000 000000000000000000000000000000000000000     00000000                                                                                                                        000000000000000000
F0010000008589900006000081102758700013552100000000000000000201605110002001C.I. ABRACOL S.A EMA                              D000000000524500000000000000000000100010010000000000000000000000F0010000008589900620160511000101 00000000000000000000000000000000000000000000000000000000000000000000000000000000000000000000000000000000000000000N 00000000000NCONT   00    00000000000          00000000000000000000000000000000000000000000 000000000000000A000000000000000000000000000000000000000000000 000000000000000000000000000000000000000     00000000                                                                                                                        000000000000000000
F0010000008590000001000081102758700013050500000000000000000201605110002001C.I. ABRACOL S.A EMA                              D000000006954600000000000000000000100010010000000000000000000000F0010000008590000120160511000101 00000000000000000000000000000000000000000000000000000000000000000000000000000000000000000000000000000000000000000N 00000000000NCONT   00    00000000000          00000000000000000000000000000000000000000000 000000000000000A000000000000000000000000000000000000000000000 000000000000000000000000000000000000000     00000000                                                                                                                        000000000000000000
F0010000008590000002000081102758700041450500000000000000000201605110002001C.I. ABRACOL S.A EMA                              C000000003590000000000000000000000100010010000000000000000000000F0010000008590000220160511000101 00000000000000000000000000000000000000000000000000000000000000000000000000000000000000000000000000000000000000000N 00000000000NCONT   00    00000000000          00000000000000000000000000000000000000000000 000000000000000A000000000000000000000000000000000000000000000 000000000000000000000000000000000000000     00000000                                                                                                                        000000000000000000
F0010000008590000003000081102758700041750100000000000000000201605110002001C.I. ABRACOL S.A EMA                              D000000000107700000000000000000000100010010000000000000000000000F0010000008590000320160511000101 00000000000000000000000000000000000000000000000000000000000000000000000000000000000000000000000000000000000000000N 00000000000NCONT   00    00000000000          00000000000000000000000000000000000000000000 000000000000000A000000000000000000000000000000000000000000000 000000000000000000000000000000000000000     00000000                                                                                                                        000000000000000000
F0010000008590000004000081102758700042505000000000000000000201605110002001C.I. ABRACOL S.A EMA                              C000000003472300000000000000000000100010010000000000000000000000F0010000008590000420160511000101 00000000000000000000000000000000000000000000000000000000000000000000000000000000000000000000000000000000000000000N 00000000000NCONT   00    00000000000          00000000000000000000000000000000000000000000 000000000000000A000000000000000000000000000000000000000000000 000000000000000000000000000000000000000     00000000                                                                                                                        000000000000000000
F0010000008590000005000081102758700023658300000000000000000201605110002001C.I. ABRACOL S.A EMA                              C000000000028700000000000000000000100010010000000000000000000000F0010000008590000520160511000101 00000000000000000000000000000000000000000000000000000000000000000000000000000000000000000000000000000000000000000N 00000000000NCONT   00    00000000000          00000000000000000000000000000000000000000000 000000000000000A000000000000000000000000000000000000000000000 000000000000000000000000000000000000000     00000000                                                                                                                        000000000000000000
F0010000008590000006000081102758700013552100000000000000000201605110002001C.I. ABRACOL S.A EMA                              D000000000028700000000000000000000100010010000000000000000000000F0010000008590000620160511000101 00000000000000000000000000000000000000000000000000000000000000000000000000000000000000000000000000000000000000000N 00000000000NCONT   00    00000000000          00000000000000000000000000000000000000000000 000000000000000A000000000000000000000000000000000000000000000 000000000000000000000000000000000000000     00000000                                                                                                                        000000000000000000
F0010000008590100001000003207718300011050500000000000000000201605110002001MARIA GILMA RAMIREZ GARCIA                        D000000005000000000000000000000000100010010000000000000000000000F0010000008590100120160511000101 00000000000000000000000000000000000000000000000000000000000000000000000000000000000000000000000000000000000000000N 00000000000NCONT   00    00000000000          00000000000000000000000000000000000000000000 000000000000000A000000000000000000000000000000000000000000000 000000000000000000000000000000000000000     00000000                                                                                                                        000000000000000000
F0010000008590100002000003207718300041450500000000000000000201605110002001MARIA GILMA RAMIREZ GARCIA                        C000000004200000000000000000000000100010010000000000000000000000F0010000008590100220160511000101 00000000000000000000000000000000000000000000000000000000000000000000000000000000000000000000000000000000000000000N 00000000000NCONT   00    00000000000          00000000000000000000000000000000000000000000 000000000000000A000000000000000000000000000000000000000000000 000000000000000000000000000000000000000     00000000                                                                                                                        000000000000000000
F0010000008590100003000003207718300042505000000000000000000201605110002001MARIA GILMA RAMIREZ GARCIA                        C000000000800000000000000000000000100010010000000000000000000000F0010000008590100320160511000101 00000000000000000000000000000000000000000000000000000000000000000000000000000000000000000000000000000000000000000N 00000000000NCONT   00    00000000000          00000000000000000000000000000000000000000000 000000000000000A000000000000000000000000000000000000000000000 000000000000000000000000000000000000000     00000000                                                                                                                        000000000000000000
F0010000008590100004000003207718300023658300000000000000000201605110002001MARIA GILMA RAMIREZ GARCIA                        C000000000033600000000000000000000100010010000000000000000000000F0010000008590100420160511000101 00000000000000000000000000000000000000000000000000000000000000000000000000000000000000000000000000000000000000000N 00000000000NCONT   00    00000000000          00000000000000000000000000000000000000000000 000000000000000A000000000000000000000000000000000000000000000 000000000000000000000000000000000000000     00000000                                                                                                                        000000000000000000
F0010000008590100005000003207718300013552100000000000000000201605110002001MARIA GILMA RAMIREZ GARCIA                        D000000000033600000000000000000000100010010000000000000000000000F0010000008590100520160511000101 00000000000000000000000000000000000000000000000000000000000000000000000000000000000000000000000000000000000000000N 00000000000NCONT   00    00000000000          00000000000000000000000000000000000000000000 000000000000000A000000000000000000000000000000000000000000000 000000000000000000000000000000000000000     00000000                                                                                                                        000000000000000000
F0010000008590200001000090000859400011050500000000000000000201605110002001COMERCIAL JOTACE LTDA                             D000000002300000000000000000000000100010010000000000000000000000F0010000008590200120160511000101 00000000000000000000000000000000000000000000000000000000000000000000000000000000000000000000000000000000000000000N 00000000000NCONT   00    00000000000          00000000000000000000000000000000000000000000 000000000000000A000000000000000000000000000000000000000000000 000000000000000000000000000000000000000     00000000                                                                                                                        000000000000000000
F0010000008590200002000090000859400041450500000000000000000201605110002001COMERCIAL JOTACE LTDA                             C000000002200000000000000000000000100010010000000000000000000000F0010000008590200220160511000101 00000000000000000000000000000000000000000000000000000000000000000000000000000000000000000000000000000000000000000N 00000000000NCONT   00    00000000000          00000000000000000000000000000000000000000000 000000000000000A000000000000000000000000000000000000000000000 000000000000000000000000000000000000000     00000000                                                                                                                        000000000000000000
