F0010000008297600001000003314755400011050500000000000000000201602250002001RUMATEX DE COLOMBIA                               D000000001200000000000000000000000100010010000000000000000000000F0010000008297600120160225000101 00000000000000000000000000000000000000000000000000000000000000000000000000000000000000000000000000000000000000000N 00000000000NCONT   00    00000000000          00000000000000000000000000000000000000000000 000000000000000A000000000000000000000000000000000000000000000 000000000000000000000000000000000000000     00000000                                                                                                                        000000000000000000
F0010000008297600002000003314755400041450500000000000000000201602250002001RUMATEX DE COLOMBIA                               C000000001000000000000000000000000100010010000000000000000000000F0010000008297600220160225000101 00000000000000000000000000000000000000000000000000000000000000000000000000000000000000000000000000000000000000000N 00000000000NCONT   00    00000000000          00000000000000000000000000000000000000000000 000000000000000A000000000000000000000000000000000000000000000 000000000000000000000000000000000000000     00000000                                                                                                                        000000000000000000
F0010000008297600003000003314755400042505000000000000000000201602250002001RUMATEX DE COLOMBIA                               C000000000200000000000000000000000100010010000000000000000000000F0010000008297600320160225000101 00000000000000000000000000000000000000000000000000000000000000000000000000000000000000000000000000000000000000000N 00000000000NCONT   00    00000000000          00000000000000000000000000000000000000000000 000000000000000A000000000000000000000000000000000000000000000 000000000000000000000000000000000000000     00000000                                                                                                                        000000000000000000
F0010000008297600004000003314755400023658300000000000000000201602250002001RUMATEX DE COLOMBIA                               C000000000008000000000000000000000100010010000000000000000000000F0010000008297600420160225000101 00000000000000000000000000000000000000000000000000000000000000000000000000000000000000000000000000000000000000000N 00000000000NCONT   00    00000000000          00000000000000000000000000000000000000000000 000000000000000A000000000000000000000000000000000000000000000 000000000000000000000000000000000000000     00000000                                                                                                                        000000000000000000
F0010000008297600005000003314755400013552100000000000000000201602250002001RUMATEX DE COLOMBIA                               D000000000008000000000000000000000100010010000000000000000000000F0010000008297600520160225000101 00000000000000000000000000000000000000000000000000000000000000000000000000000000000000000000000000000000000000000N 00000000000NCONT   00    00000000000          00000000000000000000000000000000000000000000 000000000000000A000000000000000000000000000000000000000000000 000000000000000000000000000000000000000     00000000                                                                                                                        000000000000000000
F0010000008297700001000002269298000011050500000000000000000201602250002001MARIA PALACIO RODRIGUEZ                           D000000001100000000000000000000000100010010000000000000000000000F0010000008297700120160225000101 00000000000000000000000000000000000000000000000000000000000000000000000000000000000000000000000000000000000000000N 00000000000NCONT   00    00000000000          00000000000000000000000000000000000000000000 000000000000000A000000000000000000000000000000000000000000000 000000000000000000000000000000000000000     00000000                                                                                                                        000000000000000000
F0010000008297700002000002269298000041450500000000000000000201602250002001MARIA PALACIO RODRIGUEZ                           C000000001000000000000000000000000100010010000000000000000000000F0010000008297700220160225000101 00000000000000000000000000000000000000000000000000000000000000000000000000000000000000000000000000000000000000000N 00000000000NCONT   00    00000000000          00000000000000000000000000000000000000000000 000000000000000A000000000000000000000000000000000000000000000 000000000000000000000000000000000000000     00000000                                                                                                                        000000000000000000
F0010000008297700003000002269298000042505000000000000000000201602250002001MARIA PALACIO RODRIGUEZ                           C000000000100000000000000000000000100010010000000000000000000000F0010000008297700320160225000101 00000000000000000000000000000000000000000000000000000000000000000000000000000000000000000000000000000000000000000N 00000000000NCONT   00    00000000000          00000000000000000000000000000000000000000000 000000000000000A000000000000000000000000000000000000000000000 000000000000000000000000000000000000000     00000000                                                                                                                        000000000000000000
F0010000008297700004000002269298000023658300000000000000000201602250002001MARIA PALACIO RODRIGUEZ                           C000000000008000000000000000000000100010010000000000000000000000F0010000008297700420160225000101 00000000000000000000000000000000000000000000000000000000000000000000000000000000000000000000000000000000000000000N 00000000000NCONT   00    00000000000          00000000000000000000000000000000000000000000 000000000000000A000000000000000000000000000000000000000000000 000000000000000000000000000000000000000     00000000                                                                                                                        000000000000000000
F0010000008297700005000002269298000013552100000000000000000201602250002001MARIA PALACIO RODRIGUEZ                           D000000000008000000000000000000000100010010000000000000000000000F0010000008297700520160225000101 00000000000000000000000000000000000000000000000000000000000000000000000000000000000000000000000000000000000000000N 00000000000NCONT   00    00000000000          00000000000000000000000000000000000000000000 000000000000000A000000000000000000000000000000000000000000000 000000000000000000000000000000000000000     00000000                                                                                                                        000000000000000000
F0010000008297800001000090037940600011050500000000000000000201602250002001DISTRIBUIDORA DE COSMETICOS ROSA SARON LTDA       D000000000825000000000000000000000100010010000000000000000000000F0010000008297800120160225000101 00000000000000000000000000000000000000000000000000000000000000000000000000000000000000000000000000000000000000000N 00000000000NCONT   00    00000000000          00000000000000000000000000000000000000000000 000000000000000A000000000000000000000000000000000000000000000 000000000000000000000000000000000000000     00000000                                                                                                                        000000000000000000
F0010000008297800002000090037940600041450500000000000000000201602250002001DISTRIBUIDORA DE COSMETICOS ROSA SARON LTDA       C000000000750000000000000000000000100010010000000000000000000000F0010000008297800220160225000101 00000000000000000000000000000000000000000000000000000000000000000000000000000000000000000000000000000000000000000N 00000000000NCONT   00    00000000000          00000000000000000000000000000000000000000000 000000000000000A000000000000000000000000000000000000000000000 000000000000000000000000000000000000000     00000000                                                                                                                        000000000000000000
F0010000008297800003000090037940600042505000000000000000000201602250002001DISTRIBUIDORA DE COSMETICOS ROSA SARON LTDA       C000000000075000000000000000000000100010010000000000000000000000F0010000008297800320160225000101 00000000000000000000000000000000000000000000000000000000000000000000000000000000000000000000000000000000000000000N 00000000000NCONT   00    00000000000          00000000000000000000000000000000000000000000 000000000000000A000000000000000000000000000000000000000000000 000000000000000000000000000000000000000     00000000                                                                                                                        000000000000000000
F0010000008297800004000090037940600023658300000000000000000201602250002001DISTRIBUIDORA DE COSMETICOS ROSA SARON LTDA       C000000000006000000000000000000000100010010000000000000000000000F0010000008297800420160225000101 00000000000000000000000000000000000000000000000000000000000000000000000000000000000000000000000000000000000000000N 00000000000NCONT   00    00000000000          00000000000000000000000000000000000000000000 000000000000000A000000000000000000000000000000000000000000000 000000000000000000000000000000000000000     00000000                                                                                                                        000000000000000000
F0010000008297800005000090037940600013552100000000000000000201602250002001DISTRIBUIDORA DE COSMETICOS ROSA SARON LTDA       D000000000006000000000000000000000100010010000000000000000000000F0010000008297800520160225000101 00000000000000000000000000000000000000000000000000000000000000000000000000000000000000000000000000000000000000000N 00000000000NCONT   00    00000000000          00000000000000000000000000000000000000000000 000000000000000A000000000000000000000000000000000000000000000 000000000000000000000000000000000000000     00000000                                                                                                                        000000000000000000
F0010000008297900001000007200023300011050500000000000000000201602250002001WILLIAM ORTEGA                                    D000000002300000000000000000000000100010010000000000000000000000F0010000008297900120160225000101 00000000000000000000000000000000000000000000000000000000000000000000000000000000000000000000000000000000000000000N 00000000000NCONT   00    00000000000          00000000000000000000000000000000000000000000 000000000000000A000000000000000000000000000000000000000000000 000000000000000000000000000000000000000     00000000                                                                                                                        000000000000000000
F0010000008297900002000007200023300041450500000000000000000201602250002001WILLIAM ORTEGA                                    C000000002000000000000000000000000100010010000000000000000000000F0010000008297900220160225000101 00000000000000000000000000000000000000000000000000000000000000000000000000000000000000000000000000000000000000000N 00000000000NCONT   00    00000000000          00000000000000000000000000000000000000000000 000000000000000A000000000000000000000000000000000000000000000 000000000000000000000000000000000000000     00000000                                                                                                                        000000000000000000
F0010000008297900003000007200023300042505000000000000000000201602250002001WILLIAM ORTEGA                                    C000000000300000000000000000000000100010010000000000000000000000F0010000008297900320160225000101 00000000000000000000000000000000000000000000000000000000000000000000000000000000000000000000000000000000000000000N 00000000000NCONT   00    00000000000          00000000000000000000000000000000000000000000 000000000000000A000000000000000000000000000000000000000000000 000000000000000000000000000000000000000     00000000                                                                                                                        000000000000000000
F0010000008297900004000007200023300023658300000000000000000201602250002001WILLIAM ORTEGA                                    C000000000016000000000000000000000100010010000000000000000000000F0010000008297900420160225000101 00000000000000000000000000000000000000000000000000000000000000000000000000000000000000000000000000000000000000000N 00000000000NCONT   00    00000000000          00000000000000000000000000000000000000000000 000000000000000A000000000000000000000000000000000000000000000 000000000000000000000000000000000000000     00000000                                                                                                                        000000000000000000
F0010000008297900005000007200023300013552100000000000000000201602250002001WILLIAM ORTEGA                                    D000000000016000000000000000000000100010010000000000000000000000F0010000008297900520160225000101 00000000000000000000000000000000000000000000000000000000000000000000000000000000000000000000000000000000000000000N 00000000000NCONT   00    00000000000          00000000000000000000000000000000000000000000 000000000000000A000000000000000000000000000000000000000000000 000000000000000000000000000000000000000     00000000                                                                                                                        000000000000000000
F0010000008298000001000089011033000011050500000000000000000201602250002001INDUSTRIAS CRUZ & CAÑON LTDA                     D000000003500000000000000000000000100010010000000000000000000000F0010000008298000120160225000101 00000000000000000000000000000000000000000000000000000000000000000000000000000000000000000000000000000000000000000N 00000000000NCONT   00    00000000000          00000000000000000000000000000000000000000000 000000000000000A000000000000000000000000000000000000000000000 000000000000000000000000000000000000000     00000000                                                                                                                        000000000000000000
F0010000008298000002000089011033000041450500000000000000000201602250002001INDUSTRIAS CRUZ & CAÑON LTDA                     C000000003000000000000000000000000100010010000000000000000000000F0010000008298000220160225000101 00000000000000000000000000000000000000000000000000000000000000000000000000000000000000000000000000000000000000000N 00000000000NCONT   00    00000000000          00000000000000000000000000000000000000000000 000000000000000A000000000000000000000000000000000000000000000 000000000000000000000000000000000000000     00000000                                                                                                                        000000000000000000
F0010000008298000003000089011033000042505000000000000000000201602250002001INDUSTRIAS CRUZ & CAÑON LTDA                     C000000000500000000000000000000000100010010000000000000000000000F0010000008298000320160225000101 00000000000000000000000000000000000000000000000000000000000000000000000000000000000000000000000000000000000000000N 00000000000NCONT   00    00000000000          00000000000000000000000000000000000000000000 000000000000000A000000000000000000000000000000000000000000000 000000000000000000000000000000000000000     00000000                                                                                                                        000000000000000000
F0010000008298000004000089011033000023658300000000000000000201602250002001INDUSTRIAS CRUZ & CAÑON LTDA                     C000000000024000000000000000000000100010010000000000000000000000F0010000008298000420160225000101 00000000000000000000000000000000000000000000000000000000000000000000000000000000000000000000000000000000000000000N 00000000000NCONT   00    00000000000          00000000000000000000000000000000000000000000 000000000000000A000000000000000000000000000000000000000000000 000000000000000000000000000000000000000     00000000                                                                                                                        000000000000000000
F0010000008298000005000089011033000013552100000000000000000201602250002001INDUSTRIAS CRUZ & CAÑON LTDA                     D000000000024000000000000000000000100010010000000000000000000000F0010000008298000520160225000101 00000000000000000000000000000000000000000000000000000000000000000000000000000000000000000000000000000000000000000N 00000000000NCONT   00    00000000000          00000000000000000000000000000000000000000000 000000000000000A000000000000000000000000000000000000000000000 000000000000000000000000000000000000000     00000000                                                                                                                        000000000000000000
F0010000008298100001000003319910700011050500000000000000000201602250002001LUZ DARY JIMENEZ MARTINEZ                         D000000001100000000000000000000000100010010000000000000000000000F0010000008298100120160225000101 00000000000000000000000000000000000000000000000000000000000000000000000000000000000000000000000000000000000000000N 00000000000NCONT   00    00000000000          00000000000000000000000000000000000000000000 000000000000000A000000000000000000000000000000000000000000000 000000000000000000000000000000000000000     00000000                                                                                                                        000000000000000000
F0010000008298100002000003319910700041450500000000000000000201602250002001LUZ DARY JIMENEZ MARTINEZ                         C000000001000000000000000000000000100010010000000000000000000000F0010000008298100220160225000101 00000000000000000000000000000000000000000000000000000000000000000000000000000000000000000000000000000000000000000N 00000000000NCONT   00    00000000000          00000000000000000000000000000000000000000000 000000000000000A000000000000000000000000000000000000000000000 000000000000000000000000000000000000000     00000000                                                                                                                        000000000000000000
F0010000008298100003000003319910700042505000000000000000000201602250002001LUZ DARY JIMENEZ MARTINEZ                         C000000000100000000000000000000000100010010000000000000000000000F0010000008298100320160225000101 00000000000000000000000000000000000000000000000000000000000000000000000000000000000000000000000000000000000000000N 00000000000NCONT   00    00000000000          00000000000000000000000000000000000000000000 000000000000000A000000000000000000000000000000000000000000000 000000000000000000000000000000000000000     00000000                                                                                                                        000000000000000000
F0010000008298100004000003319910700023658300000000000000000201602250002001LUZ DARY JIMENEZ MARTINEZ                         C000000000008000000000000000000000100010010000000000000000000000F0010000008298100420160225000101 00000000000000000000000000000000000000000000000000000000000000000000000000000000000000000000000000000000000000000N 00000000000NCONT   00    00000000000          00000000000000000000000000000000000000000000 000000000000000A000000000000000000000000000000000000000000000 000000000000000000000000000000000000000     00000000                                                                                                                        000000000000000000
F0010000008298100005000003319910700013552100000000000000000201602250002001LUZ DARY JIMENEZ MARTINEZ                         D000000000008000000000000000000000100010010000000000000000000000F0010000008298100520160225000101 00000000000000000000000000000000000000000000000000000000000000000000000000000000000000000000000000000000000000000N 00000000000NCONT   00    00000000000          00000000000000000000000000000000000000000000 000000000000000A000000000000000000000000000000000000000000000 000000000000000000000000000000000000000     00000000                                                                                                                        000000000000000000
F0010000008298200001000000431178400011050500000000000000000201602250002001EFRAIN ALVAREZ                                    D000000002740000000000000000000000100010010000000000000000000000F0010000008298200120160225000101 00000000000000000000000000000000000000000000000000000000000000000000000000000000000000000000000000000000000000000N 00000000000NCONT   00    00000000000          00000000000000000000000000000000000000000000 000000000000000A000000000000000000000000000000000000000000000 000000000000000000000000000000000000000     00000000                                                                                                                        000000000000000000
F0010000008298200002000000431178400041450500000000000000000201602250002001EFRAIN ALVAREZ                                    C000000002540000000000000000000000100010010000000000000000000000F0010000008298200220160225000101 00000000000000000000000000000000000000000000000000000000000000000000000000000000000000000000000000000000000000000N 00000000000NCONT   00    00000000000          00000000000000000000000000000000000000000000 000000000000000A000000000000000000000000000000000000000000000 000000000000000000000000000000000000000     00000000                                                                                                                        000000000000000000
F0010000008298200003000000431178400042505000000000000000000201602250002001EFRAIN ALVAREZ                                    C000000000200000000000000000000000100010010000000000000000000000F0010000008298200320160225000101 00000000000000000000000000000000000000000000000000000000000000000000000000000000000000000000000000000000000000000N 00000000000NCONT   00    00000000000          00000000000000000000000000000000000000000000 000000000000000A000000000000000000000000000000000000000000000 000000000000000000000000000000000000000     00000000                                                                                                                        000000000000000000
F0010000008298200004000000431178400023658300000000000000000201602250002001EFRAIN ALVAREZ                                    C000000000020300000000000000000000100010010000000000000000000000F0010000008298200420160225000101 00000000000000000000000000000000000000000000000000000000000000000000000000000000000000000000000000000000000000000N 00000000000NCONT   00    00000000000          00000000000000000000000000000000000000000000 000000000000000A000000000000000000000000000000000000000000000 000000000000000000000000000000000000000     00000000                                                                                                                        000000000000000000
F0010000008298200005000000431178400013552100000000000000000201602250002001EFRAIN ALVAREZ                                    D000000000020300000000000000000000100010010000000000000000000000F0010000008298200520160225000101 00000000000000000000000000000000000000000000000000000000000000000000000000000000000000000000000000000000000000000N 00000000000NCONT   00    00000000000          00000000000000000000000000000000000000000000 000000000000000A000000000000000000000000000000000000000000000 000000000000000000000000000000000000000     00000000                                                                                                                        000000000000000000
F0010000008298300001000090041529500011050500000000000000000201602250002001EME IMPORTACIONES ELECTRICA                       D000000003100000000000000000000000100010010000000000000000000000F0010000008298300120160225000101 00000000000000000000000000000000000000000000000000000000000000000000000000000000000000000000000000000000000000000N 00000000000NCONT   00    00000000000          00000000000000000000000000000000000000000000 000000000000000A000000000000000000000000000000000000000000000 000000000000000000000000000000000000000     00000000                                                                                                                        000000000000000000
F0010000008298300002000090041529500041450500000000000000000201602250002001EME IMPORTACIONES ELECTRICA                       C000000002600000000000000000000000100010010000000000000000000000F0010000008298300220160225000101 00000000000000000000000000000000000000000000000000000000000000000000000000000000000000000000000000000000000000000N 00000000000NCONT   00    00000000000          00000000000000000000000000000000000000000000 000000000000000A000000000000000000000000000000000000000000000 000000000000000000000000000000000000000     00000000                                                                                                                        000000000000000000
F0010000008298300003000090041529500042505000000000000000000201602250002001EME IMPORTACIONES ELECTRICA                       C000000000500000000000000000000000100010010000000000000000000000F0010000008298300320160225000101 00000000000000000000000000000000000000000000000000000000000000000000000000000000000000000000000000000000000000000N 00000000000NCONT   00    00000000000          00000000000000000000000000000000000000000000 000000000000000A000000000000000000000000000000000000000000000 000000000000000000000000000000000000000     00000000                                                                                                                        000000000000000000
F0010000008298300004000090041529500023658300000000000000000201602250002001EME IMPORTACIONES ELECTRICA                       C000000000020800000000000000000000100010010000000000000000000000F0010000008298300420160225000101 00000000000000000000000000000000000000000000000000000000000000000000000000000000000000000000000000000000000000000N 00000000000NCONT   00    00000000000          00000000000000000000000000000000000000000000 000000000000000A000000000000000000000000000000000000000000000 000000000000000000000000000000000000000     00000000                                                                                                                        000000000000000000
F0010000008298300005000090041529500013552100000000000000000201602250002001EME IMPORTACIONES ELECTRICA                       D000000000020800000000000000000000100010010000000000000000000000F0010000008298300520160225000101 00000000000000000000000000000000000000000000000000000000000000000000000000000000000000000000000000000000000000000N 00000000000NCONT   00    00000000000          00000000000000000000000000000000000000000000 000000000000000A000000000000000000000000000000000000000000000 000000000000000000000000000000000000000     00000000                                                                                                                        000000000000000000
F0010000008298400001000090041529500011050500000000000000000201602250002001EME IMPORTACIONES ELECTRICA                       D000000003100000000000000000000000100010010000000000000000000000F0010000008298400120160225000101 00000000000000000000000000000000000000000000000000000000000000000000000000000000000000000000000000000000000000000N 00000000000NCONT   00    00000000000          00000000000000000000000000000000000000000000 000000000000000A000000000000000000000000000000000000000000000 000000000000000000000000000000000000000     00000000                                                                                                                        000000000000000000
F0010000008298400002000090041529500041450500000000000000000201602250002001EME IMPORTACIONES ELECTRICA                       C000000002600000000000000000000000100010010000000000000000000000F0010000008298400220160225000101 00000000000000000000000000000000000000000000000000000000000000000000000000000000000000000000000000000000000000000N 00000000000NCONT   00    00000000000          00000000000000000000000000000000000000000000 000000000000000A000000000000000000000000000000000000000000000 000000000000000000000000000000000000000     00000000                                                                                                                        000000000000000000
F0010000008298400003000090041529500042505000000000000000000201602250002001EME IMPORTACIONES ELECTRICA                       C000000000500000000000000000000000100010010000000000000000000000F0010000008298400320160225000101 00000000000000000000000000000000000000000000000000000000000000000000000000000000000000000000000000000000000000000N 00000000000NCONT   00    00000000000          00000000000000000000000000000000000000000000 000000000000000A000000000000000000000000000000000000000000000 000000000000000000000000000000000000000     00000000                                                                                                                        000000000000000000
F0010000008298400004000090041529500023658300000000000000000201602250002001EME IMPORTACIONES ELECTRICA                       C000000000020800000000000000000000100010010000000000000000000000F0010000008298400420160225000101 00000000000000000000000000000000000000000000000000000000000000000000000000000000000000000000000000000000000000000N 00000000000NCONT   00    00000000000          00000000000000000000000000000000000000000000 000000000000000A000000000000000000000000000000000000000000000 000000000000000000000000000000000000000     00000000                                                                                                                        000000000000000000
F0010000008298400005000090041529500013552100000000000000000201602250002001EME IMPORTACIONES ELECTRICA                       D000000000020800000000000000000000100010010000000000000000000000F0010000008298400520160225000101 00000000000000000000000000000000000000000000000000000000000000000000000000000000000000000000000000000000000000000N 00000000000NCONT   00    00000000000          00000000000000000000000000000000000000000000 000000000000000A000000000000000000000000000000000000000000000 000000000000000000000000000000000000000     00000000                                                                                                                        000000000000000000
F0010000008298500001000083011391400013050500000000000000000201602250002001INSTITUCIONAL STAR SERVICES LTDA                  D000000013560000000000000000000000100010010000000000000000000000F0010000008298500120160225000101 00000000000000000000000000000000000000000000000000000000000000000000000000000000000000000000000000000000000000000N 00000000000NCONT   00    00000000000          00000000000000000000000000000000000000000000 000000000000000A000000000000000000000000000000000000000000000 000000000000000000000000000000000000000     00000000                                                                                                                        000000000000000000
F0010000008298500002000083011391400041450500000000000000000201602250002001INSTITUCIONAL STAR SERVICES LTDA                  C000000012160000000000000000000000100010010000000000000000000000F0010000008298500220160225000101 00000000000000000000000000000000000000000000000000000000000000000000000000000000000000000000000000000000000000000N 00000000000NCONT   00    00000000000          00000000000000000000000000000000000000000000 000000000000000A000000000000000000000000000000000000000000000 000000000000000000000000000000000000000     00000000                                                                                                                        000000000000000000
F0010000008298500003000083011391400042505000000000000000000201602250002001INSTITUCIONAL STAR SERVICES LTDA                  C000000001400000000000000000000000100010010000000000000000000000F0010000008298500320160225000101 00000000000000000000000000000000000000000000000000000000000000000000000000000000000000000000000000000000000000000N 00000000000NCONT   00    00000000000          00000000000000000000000000000000000000000000 000000000000000A000000000000000000000000000000000000000000000 000000000000000000000000000000000000000     00000000                                                                                                                        000000000000000000
F0010000008298500004000083011391400023658300000000000000000201602250002001INSTITUCIONAL STAR SERVICES LTDA                  C000000000097300000000000000000000100010010000000000000000000000F0010000008298500420160225000101 00000000000000000000000000000000000000000000000000000000000000000000000000000000000000000000000000000000000000000N 00000000000NCONT   00    00000000000          00000000000000000000000000000000000000000000 000000000000000A000000000000000000000000000000000000000000000 000000000000000000000000000000000000000     00000000                                                                                                                        000000000000000000
F0010000008298500005000083011391400013552100000000000000000201602250002001INSTITUCIONAL STAR SERVICES LTDA                  D000000000097300000000000000000000100010010000000000000000000000F0010000008298500520160225000101 00000000000000000000000000000000000000000000000000000000000000000000000000000000000000000000000000000000000000000N 00000000000NCONT   00    00000000000          00000000000000000000000000000000000000000000 000000000000000A000000000000000000000000000000000000000000000 000000000000000000000000000000000000000     00000000                                                                                                                        000000000000000000
F0010000008298600001000007200023300011050500000000000000000201602250002001WILLIAM ORTEGA                                    D000000002900000000000000000000000100010010000000000000000000000F0010000008298600120160225000101 00000000000000000000000000000000000000000000000000000000000000000000000000000000000000000000000000000000000000000N 00000000000NCONT   00    00000000000          00000000000000000000000000000000000000000000 000000000000000A000000000000000000000000000000000000000000000 000000000000000000000000000000000000000     00000000                                                                                                                        000000000000000000
F0010000008298600002000007200023300041450500000000000000000201602250002001WILLIAM ORTEGA                                    C000000002600000000000000000000000100010010000000000000000000000F0010000008298600220160225000101 00000000000000000000000000000000000000000000000000000000000000000000000000000000000000000000000000000000000000000N 00000000000NCONT   00    00000000000          00000000000000000000000000000000000000000000 000000000000000A000000000000000000000000000000000000000000000 000000000000000000000000000000000000000     00000000                                                                                                                        000000000000000000
F0010000008298600003000007200023300042505000000000000000000201602250002001WILLIAM ORTEGA                                    C000000000300000000000000000000000100010010000000000000000000000F0010000008298600320160225000101 00000000000000000000000000000000000000000000000000000000000000000000000000000000000000000000000000000000000000000N 00000000000NCONT   00    00000000000          00000000000000000000000000000000000000000000 000000000000000A000000000000000000000000000000000000000000000 000000000000000000000000000000000000000     00000000                                                                                                                        000000000000000000
F0010000008298600004000007200023300023658300000000000000000201602250002001WILLIAM ORTEGA                                    C000000000020800000000000000000000100010010000000000000000000000F0010000008298600420160225000101 00000000000000000000000000000000000000000000000000000000000000000000000000000000000000000000000000000000000000000N 00000000000NCONT   00    00000000000          00000000000000000000000000000000000000000000 000000000000000A000000000000000000000000000000000000000000000 000000000000000000000000000000000000000     00000000                                                                                                                        000000000000000000
F0010000008298600005000007200023300013552100000000000000000201602250002001WILLIAM ORTEGA                                    D000000000020800000000000000000000100010010000000000000000000000F0010000008298600520160225000101 00000000000000000000000000000000000000000000000000000000000000000000000000000000000000000000000000000000000000000N 00000000000NCONT   00    00000000000          00000000000000000000000000000000000000000000 000000000000000A000000000000000000000000000000000000000000000 000000000000000000000000000000000000000     00000000                                                                                                                        000000000000000000
F0010000008298700001000007200023300011050500000000000000000201602250002001WILLIAM ORTEGA                                    D000000001700000000000000000000000100010010000000000000000000000F0010000008298700120160225000101 00000000000000000000000000000000000000000000000000000000000000000000000000000000000000000000000000000000000000000N 00000000000NCONT   00    00000000000          00000000000000000000000000000000000000000000 000000000000000A000000000000000000000000000000000000000000000 000000000000000000000000000000000000000     00000000                                                                                                                        000000000000000000
F0010000008298700002000007200023300041450500000000000000000201602250002001WILLIAM ORTEGA                                    C000000001300000000000000000000000100010010000000000000000000000F0010000008298700220160225000101 00000000000000000000000000000000000000000000000000000000000000000000000000000000000000000000000000000000000000000N 00000000000NCONT   00    00000000000          00000000000000000000000000000000000000000000 000000000000000A000000000000000000000000000000000000000000000 000000000000000000000000000000000000000     00000000                                                                                                                        000000000000000000
F0010000008298700003000007200023300042505000000000000000000201602250002001WILLIAM ORTEGA                                    C000000000400000000000000000000000100010010000000000000000000000F0010000008298700320160225000101 00000000000000000000000000000000000000000000000000000000000000000000000000000000000000000000000000000000000000000N 00000000000NCONT   00    00000000000          00000000000000000000000000000000000000000000 000000000000000A000000000000000000000000000000000000000000000 000000000000000000000000000000000000000     00000000                                                                                                                        000000000000000000
F0010000008298700004000007200023300023658300000000000000000201602250002001WILLIAM ORTEGA                                    C000000000010400000000000000000000100010010000000000000000000000F0010000008298700420160225000101 00000000000000000000000000000000000000000000000000000000000000000000000000000000000000000000000000000000000000000N 00000000000NCONT   00    00000000000          00000000000000000000000000000000000000000000 000000000000000A000000000000000000000000000000000000000000000 000000000000000000000000000000000000000     00000000                                                                                                                        000000000000000000
F0010000008298700005000007200023300013552100000000000000000201602250002001WILLIAM ORTEGA                                    D000000000010400000000000000000000100010010000000000000000000000F0010000008298700520160225000101 00000000000000000000000000000000000000000000000000000000000000000000000000000000000000000000000000000000000000000N 00000000000NCONT   00    00000000000          00000000000000000000000000000000000000000000 000000000000000A000000000000000000000000000000000000000000000 000000000000000000000000000000000000000     00000000                                                                                                                        000000000000000000
F0010000008298800001000080019113900011050500000000000000000201602250002001COMERCIAL NOVAPEL LTDA                            D000000004400000000000000000000000100010010000000000000000000000F0010000008298800120160225000101 00000000000000000000000000000000000000000000000000000000000000000000000000000000000000000000000000000000000000000N 00000000000NCONT   00    00000000000          00000000000000000000000000000000000000000000 000000000000000A000000000000000000000000000000000000000000000 000000000000000000000000000000000000000     00000000                                                                                                                        000000000000000000
F0010000008298800002000080019113900041450500000000000000000201602250002001COMERCIAL NOVAPEL LTDA                            C000000004200000000000000000000000100010010000000000000000000000F0010000008298800220160225000101 00000000000000000000000000000000000000000000000000000000000000000000000000000000000000000000000000000000000000000N 00000000000NCONT   00    00000000000          00000000000000000000000000000000000000000000 000000000000000A000000000000000000000000000000000000000000000 000000000000000000000000000000000000000     00000000                                                                                                                        000000000000000000
F0010000008298800003000080019113900042505000000000000000000201602250002001COMERCIAL NOVAPEL LTDA                            C000000000200000000000000000000000100010010000000000000000000000F0010000008298800320160225000101 00000000000000000000000000000000000000000000000000000000000000000000000000000000000000000000000000000000000000000N 00000000000NCONT   00    00000000000          00000000000000000000000000000000000000000000 000000000000000A000000000000000000000000000000000000000000000 000000000000000000000000000000000000000     00000000                                                                                                                        000000000000000000
F0010000008298800004000080019113900023658300000000000000000201602250002001COMERCIAL NOVAPEL LTDA                            C000000000033600000000000000000000100010010000000000000000000000F0010000008298800420160225000101 00000000000000000000000000000000000000000000000000000000000000000000000000000000000000000000000000000000000000000N 00000000000NCONT   00    00000000000          00000000000000000000000000000000000000000000 000000000000000A000000000000000000000000000000000000000000000 000000000000000000000000000000000000000     00000000                                                                                                                        000000000000000000
F0010000008298800005000080019113900013552100000000000000000201602250002001COMERCIAL NOVAPEL LTDA                            D000000000033600000000000000000000100010010000000000000000000000F0010000008298800520160225000101 00000000000000000000000000000000000000000000000000000000000000000000000000000000000000000000000000000000000000000N 00000000000NCONT   00    00000000000          00000000000000000000000000000000000000000000 000000000000000A000000000000000000000000000000000000000000000 000000000000000000000000000000000000000     00000000                                                                                                                        000000000000000000
F0010000008298900001000090007568000011050500000000000000000201602250002001DISTRIBUIDORA LA 70 S.A.                          D000000039000000000000000000000000100010010000000000000000000000F0010000008298900120160225000101 00000000000000000000000000000000000000000000000000000000000000000000000000000000000000000000000000000000000000000N 00000000000NCONT   00    00000000000          00000000000000000000000000000000000000000000 000000000000000A000000000000000000000000000000000000000000000 000000000000000000000000000000000000000     00000000                                                                                                                        000000000000000000
F0010000008298900002000090007568000041450500000000000000000201602250002001DISTRIBUIDORA LA 70 S.A.                          C000000036000000000000000000000000100010010000000000000000000000F0010000008298900220160225000101 00000000000000000000000000000000000000000000000000000000000000000000000000000000000000000000000000000000000000000N 00000000000NCONT   00    00000000000          00000000000000000000000000000000000000000000 000000000000000A000000000000000000000000000000000000000000000 000000000000000000000000000000000000000     00000000                                                                                                                        000000000000000000
F0010000008298900003000090007568000042505000000000000000000201602250002001DISTRIBUIDORA LA 70 S.A.                          C000000003000000000000000000000000100010010000000000000000000000F0010000008298900320160225000101 00000000000000000000000000000000000000000000000000000000000000000000000000000000000000000000000000000000000000000N 00000000000NCONT   00    00000000000          00000000000000000000000000000000000000000000 000000000000000A000000000000000000000000000000000000000000000 000000000000000000000000000000000000000     00000000                                                                                                                        000000000000000000
F0010000008298900004000090007568000023658300000000000000000201602250002001DISTRIBUIDORA LA 70 S.A.                          C000000000288000000000000000000000100010010000000000000000000000F0010000008298900420160225000101 00000000000000000000000000000000000000000000000000000000000000000000000000000000000000000000000000000000000000000N 00000000000NCONT   00    00000000000          00000000000000000000000000000000000000000000 000000000000000A000000000000000000000000000000000000000000000 000000000000000000000000000000000000000     00000000                                                                                                                        000000000000000000
F0010000008298900005000090007568000013552100000000000000000201602250002001DISTRIBUIDORA LA 70 S.A.                          D000000000288000000000000000000000100010010000000000000000000000F0010000008298900520160225000101 00000000000000000000000000000000000000000000000000000000000000000000000000000000000000000000000000000000000000000N 00000000000NCONT   00    00000000000          00000000000000000000000000000000000000000000 000000000000000A000000000000000000000000000000000000000000000 000000000000000000000000000000000000000     00000000                                                                                                                        000000000000000000
F0010000008299000001000090073498600011050500000000000000000201602250002001VALTAC DEL CARIBE LTDA                            D000000004500000000000000000000000100010010000000000000000000000F0010000008299000120160225000101 00000000000000000000000000000000000000000000000000000000000000000000000000000000000000000000000000000000000000000N 00000000000NCONT   00    00000000000          00000000000000000000000000000000000000000000 000000000000000A000000000000000000000000000000000000000000000 000000000000000000000000000000000000000     00000000                                                                                                                        000000000000000000
F0010000008299000002000090073498600041450500000000000000000201602250002001VALTAC DEL CARIBE LTDA                            C000000004000000000000000000000000100010010000000000000000000000F0010000008299000220160225000101 00000000000000000000000000000000000000000000000000000000000000000000000000000000000000000000000000000000000000000N 00000000000NCONT   00    00000000000          00000000000000000000000000000000000000000000 000000000000000A000000000000000000000000000000000000000000000 000000000000000000000000000000000000000     00000000                                                                                                                        000000000000000000
F0010000008299000003000090073498600042505000000000000000000201602250002001VALTAC DEL CARIBE LTDA                            C000000000500000000000000000000000100010010000000000000000000000F0010000008299000320160225000101 00000000000000000000000000000000000000000000000000000000000000000000000000000000000000000000000000000000000000000N 00000000000NCONT   00    00000000000          00000000000000000000000000000000000000000000 000000000000000A000000000000000000000000000000000000000000000 000000000000000000000000000000000000000     00000000                                                                                                                        000000000000000000
F0010000008299000004000090073498600023658300000000000000000201602250002001VALTAC DEL CARIBE LTDA                            C000000000032000000000000000000000100010010000000000000000000000F0010000008299000420160225000101 00000000000000000000000000000000000000000000000000000000000000000000000000000000000000000000000000000000000000000N 00000000000NCONT   00    00000000000          00000000000000000000000000000000000000000000 000000000000000A000000000000000000000000000000000000000000000 000000000000000000000000000000000000000     00000000                                                                                                                        000000000000000000
F0010000008299000005000090073498600013552100000000000000000201602250002001VALTAC DEL CARIBE LTDA                            D000000000032000000000000000000000100010010000000000000000000000F0010000008299000520160225000101 00000000000000000000000000000000000000000000000000000000000000000000000000000000000000000000000000000000000000000N 00000000000NCONT   00    00000000000          00000000000000000000000000000000000000000000 000000000000000A000000000000000000000000000000000000000000000 000000000000000000000000000000000000000     00000000                                                                                                                        000000000000000000
F0010000008299100001000080024994500011050500000000000000000201602250002001HILOS VENUS                                       D000000001100000000000000000000000100010010000000000000000000000F0010000008299100120160225000101 00000000000000000000000000000000000000000000000000000000000000000000000000000000000000000000000000000000000000000N 00000000000NCONT   00    00000000000          00000000000000000000000000000000000000000000 000000000000000A000000000000000000000000000000000000000000000 000000000000000000000000000000000000000     00000000                                                                                                                        000000000000000000
F0010000008299100002000080024994500041450500000000000000000201602250002001HILOS VENUS                                       C000000000900000000000000000000000100010010000000000000000000000F0010000008299100220160225000101 00000000000000000000000000000000000000000000000000000000000000000000000000000000000000000000000000000000000000000N 00000000000NCONT   00    00000000000          00000000000000000000000000000000000000000000 000000000000000A000000000000000000000000000000000000000000000 000000000000000000000000000000000000000     00000000                                                                                                                        000000000000000000
F0010000008299100003000080024994500042505000000000000000000201602250002001HILOS VENUS                                       C000000000200000000000000000000000100010010000000000000000000000F0010000008299100320160225000101 00000000000000000000000000000000000000000000000000000000000000000000000000000000000000000000000000000000000000000N 00000000000NCONT   00    00000000000          00000000000000000000000000000000000000000000 000000000000000A000000000000000000000000000000000000000000000 000000000000000000000000000000000000000     00000000                                                                                                                        000000000000000000
F0010000008299100004000080024994500023658300000000000000000201602250002001HILOS VENUS                                       C000000000007200000000000000000000100010010000000000000000000000F0010000008299100420160225000101 00000000000000000000000000000000000000000000000000000000000000000000000000000000000000000000000000000000000000000N 00000000000NCONT   00    00000000000          00000000000000000000000000000000000000000000 000000000000000A000000000000000000000000000000000000000000000 000000000000000000000000000000000000000     00000000                                                                                                                        000000000000000000
F0010000008299100005000080024994500013552100000000000000000201602250002001HILOS VENUS                                       D000000000007200000000000000000000100010010000000000000000000000F0010000008299100520160225000101 00000000000000000000000000000000000000000000000000000000000000000000000000000000000000000000000000000000000000000N 00000000000NCONT   00    00000000000          00000000000000000000000000000000000000000000 000000000000000A000000000000000000000000000000000000000000000 000000000000000000000000000000000000000     00000000                                                                                                                        000000000000000000
F0010000008299200001000080201112800011050500000000000000000201602250002001PELETERIA GENESIS                                 D000000009200000000000000000000000100010010000000000000000000000F0010000008299200120160225000101 00000000000000000000000000000000000000000000000000000000000000000000000000000000000000000000000000000000000000000N 00000000000NCONT   00    00000000000          00000000000000000000000000000000000000000000 000000000000000A000000000000000000000000000000000000000000000 000000000000000000000000000000000000000     00000000                                                                                                                        000000000000000000
F0010000008299200002000080201112800041450500000000000000000201602250002001PELETERIA GENESIS                                 C000000007300000000000000000000000100010010000000000000000000000F0010000008299200220160225000101 00000000000000000000000000000000000000000000000000000000000000000000000000000000000000000000000000000000000000000N 00000000000NCONT   00    00000000000          00000000000000000000000000000000000000000000 000000000000000A000000000000000000000000000000000000000000000 000000000000000000000000000000000000000     00000000                                                                                                                        000000000000000000
F0010000008299200003000080201112800042505000000000000000000201602250002001PELETERIA GENESIS                                 C000000001900000000000000000000000100010010000000000000000000000F0010000008299200320160225000101 00000000000000000000000000000000000000000000000000000000000000000000000000000000000000000000000000000000000000000N 00000000000NCONT   00    00000000000          00000000000000000000000000000000000000000000 000000000000000A000000000000000000000000000000000000000000000 000000000000000000000000000000000000000     00000000                                                                                                                        000000000000000000
F0010000008299200004000080201112800023658300000000000000000201602250002001PELETERIA GENESIS                                 C000000000058400000000000000000000100010010000000000000000000000F0010000008299200420160225000101 00000000000000000000000000000000000000000000000000000000000000000000000000000000000000000000000000000000000000000N 00000000000NCONT   00    00000000000          00000000000000000000000000000000000000000000 000000000000000A000000000000000000000000000000000000000000000 000000000000000000000000000000000000000     00000000                                                                                                                        000000000000000000
F0010000008299200005000080201112800013552100000000000000000201602250002001PELETERIA GENESIS                                 D000000000058400000000000000000000100010010000000000000000000000F0010000008299200520160225000101 00000000000000000000000000000000000000000000000000000000000000000000000000000000000000000000000000000000000000000N 00000000000NCONT   00    00000000000          00000000000000000000000000000000000000000000 000000000000000A000000000000000000000000000000000000000000000 000000000000000000000000000000000000000     00000000                                                                                                                        000000000000000000
F0010000008299300001000086003979400011050500000000000000000201602250002001CALYPSO BARRANQUILLA LTDA                         D000000000833600000000000000000000100010010000000000000000000000F0010000008299300120160225000101 00000000000000000000000000000000000000000000000000000000000000000000000000000000000000000000000000000000000000000N 00000000000NCONT   00    00000000000          00000000000000000000000000000000000000000000 000000000000000A000000000000000000000000000000000000000000000 000000000000000000000000000000000000000     00000000                                                                                                                        000000000000000000
F0010000008299300002000086003979400041450500000000000000000201602250002001CALYPSO BARRANQUILLA LTDA                         C000000000660000000000000000000000100010010000000000000000000000F0010000008299300220160225000101 00000000000000000000000000000000000000000000000000000000000000000000000000000000000000000000000000000000000000000N 00000000000NCONT   00    00000000000          00000000000000000000000000000000000000000000 000000000000000A000000000000000000000000000000000000000000000 000000000000000000000000000000000000000     00000000                                                                                                                        000000000000000000
F0010000008299300003000086003979400042505000000000000000000201602250002001CALYPSO BARRANQUILLA LTDA                         C000000000173600000000000000000000100010010000000000000000000000F0010000008299300320160225000101 00000000000000000000000000000000000000000000000000000000000000000000000000000000000000000000000000000000000000000N 00000000000NCONT   00    00000000000          00000000000000000000000000000000000000000000 000000000000000A000000000000000000000000000000000000000000000 000000000000000000000000000000000000000     00000000                                                                                                                        000000000000000000
F0010000008299300004000086003979400023658300000000000000000201602250002001CALYPSO BARRANQUILLA LTDA                         C000000000005300000000000000000000100010010000000000000000000000F0010000008299300420160225000101 00000000000000000000000000000000000000000000000000000000000000000000000000000000000000000000000000000000000000000N 00000000000NCONT   00    00000000000          00000000000000000000000000000000000000000000 000000000000000A000000000000000000000000000000000000000000000 000000000000000000000000000000000000000     00000000                                                                                                                        000000000000000000
F0010000008299300005000086003979400013552100000000000000000201602250002001CALYPSO BARRANQUILLA LTDA                         D000000000005300000000000000000000100010010000000000000000000000F0010000008299300520160225000101 00000000000000000000000000000000000000000000000000000000000000000000000000000000000000000000000000000000000000000N 00000000000NCONT   00    00000000000          00000000000000000000000000000000000000000000 000000000000000A000000000000000000000000000000000000000000000 000000000000000000000000000000000000000     00000000                                                                                                                        000000000000000000
F0010000008299400001000089070997800011050500000000000000000201602250002001CENTRAL DE TORNILLOS                              D000000002130000000000000000000000100010010000000000000000000000F0010000008299400120160225000101 00000000000000000000000000000000000000000000000000000000000000000000000000000000000000000000000000000000000000000N 00000000000NCONT   00    00000000000          00000000000000000000000000000000000000000000 000000000000000A000000000000000000000000000000000000000000000 000000000000000000000000000000000000000     00000000                                                                                                                        000000000000000000
F0010000008299400002000089070997800041450500000000000000000201602250002001CENTRAL DE TORNILLOS                              C000000001930000000000000000000000100010010000000000000000000000F0010000008299400220160225000101 00000000000000000000000000000000000000000000000000000000000000000000000000000000000000000000000000000000000000000N 00000000000NCONT   00    00000000000          00000000000000000000000000000000000000000000 000000000000000A000000000000000000000000000000000000000000000 000000000000000000000000000000000000000     00000000                                                                                                                        000000000000000000
F0010000008299400003000089070997800042505000000000000000000201602250002001CENTRAL DE TORNILLOS                              C000000000200000000000000000000000100010010000000000000000000000F0010000008299400320160225000101 00000000000000000000000000000000000000000000000000000000000000000000000000000000000000000000000000000000000000000N 00000000000NCONT   00    00000000000          00000000000000000000000000000000000000000000 000000000000000A000000000000000000000000000000000000000000000 000000000000000000000000000000000000000     00000000                                                                                                                        000000000000000000
F0010000008299400004000089070997800023658300000000000000000201602250002001CENTRAL DE TORNILLOS                              C000000000015400000000000000000000100010010000000000000000000000F0010000008299400420160225000101 00000000000000000000000000000000000000000000000000000000000000000000000000000000000000000000000000000000000000000N 00000000000NCONT   00    00000000000          00000000000000000000000000000000000000000000 000000000000000A000000000000000000000000000000000000000000000 000000000000000000000000000000000000000     00000000                                                                                                                        000000000000000000
F0010000008299400005000089070997800013552100000000000000000201602250002001CENTRAL DE TORNILLOS                              D000000000015400000000000000000000100010010000000000000000000000F0010000008299400520160225000101 00000000000000000000000000000000000000000000000000000000000000000000000000000000000000000000000000000000000000000N 00000000000NCONT   00    00000000000          00000000000000000000000000000000000000000000 000000000000000A000000000000000000000000000000000000000000000 000000000000000000000000000000000000000     00000000                                                                                                                        000000000000000000
F0010000008299500001000089070997800011050500000000000000000201602250002001CENTRAL DE TORNILLOS                              D000000002130000000000000000000000100010010000000000000000000000F0010000008299500120160225000101 00000000000000000000000000000000000000000000000000000000000000000000000000000000000000000000000000000000000000000N 00000000000NCONT   00    00000000000          00000000000000000000000000000000000000000000 000000000000000A000000000000000000000000000000000000000000000 000000000000000000000000000000000000000     00000000                                                                                                                        000000000000000000
F0010000008299500002000089070997800041450500000000000000000201602250002001CENTRAL DE TORNILLOS                              C000000001930000000000000000000000100010010000000000000000000000F0010000008299500220160225000101 00000000000000000000000000000000000000000000000000000000000000000000000000000000000000000000000000000000000000000N 00000000000NCONT   00    00000000000          00000000000000000000000000000000000000000000 000000000000000A000000000000000000000000000000000000000000000 000000000000000000000000000000000000000     00000000                                                                                                                        000000000000000000
F0010000008299500003000089070997800042505000000000000000000201602250002001CENTRAL DE TORNILLOS                              C000000000200000000000000000000000100010010000000000000000000000F0010000008299500320160225000101 00000000000000000000000000000000000000000000000000000000000000000000000000000000000000000000000000000000000000000N 00000000000NCONT   00    00000000000          00000000000000000000000000000000000000000000 000000000000000A000000000000000000000000000000000000000000000 000000000000000000000000000000000000000     00000000                                                                                                                        000000000000000000
F0010000008299500004000089070997800023658300000000000000000201602250002001CENTRAL DE TORNILLOS                              C000000000015400000000000000000000100010010000000000000000000000F0010000008299500420160225000101 00000000000000000000000000000000000000000000000000000000000000000000000000000000000000000000000000000000000000000N 00000000000NCONT   00    00000000000          00000000000000000000000000000000000000000000 000000000000000A000000000000000000000000000000000000000000000 000000000000000000000000000000000000000     00000000                                                                                                                        000000000000000000
F0010000008299500005000089070997800013552100000000000000000201602250002001CENTRAL DE TORNILLOS                              D000000000015400000000000000000000100010010000000000000000000000F0010000008299500520160225000101 00000000000000000000000000000000000000000000000000000000000000000000000000000000000000000000000000000000000000000N 00000000000NCONT   00    00000000000          00000000000000000000000000000000000000000000 000000000000000A000000000000000000000000000000000000000000000 000000000000000000000000000000000000000     00000000                                                                                                                        000000000000000000
F0010000008299600001000089070997800011050500000000000000000201602250002001CENTRAL DE TORNILLOS                              D000000003040000000000000000000000100010010000000000000000000000F0010000008299600120160225000101 00000000000000000000000000000000000000000000000000000000000000000000000000000000000000000000000000000000000000000N 00000000000NCONT   00    00000000000          00000000000000000000000000000000000000000000 000000000000000A000000000000000000000000000000000000000000000 000000000000000000000000000000000000000     00000000                                                                                                                        000000000000000000
F0010000008299600002000089070997800041450500000000000000000201602250002001CENTRAL DE TORNILLOS                              C000000003000000000000000000000000100010010000000000000000000000F0010000008299600220160225000101 00000000000000000000000000000000000000000000000000000000000000000000000000000000000000000000000000000000000000000N 00000000000NCONT   00    00000000000          00000000000000000000000000000000000000000000 000000000000000A000000000000000000000000000000000000000000000 000000000000000000000000000000000000000     00000000                                                                                                                        000000000000000000
F0010000008299600003000089070997800042505000000000000000000201602250002001CENTRAL DE TORNILLOS                              C000000000040000000000000000000000100010010000000000000000000000F0010000008299600320160225000101 00000000000000000000000000000000000000000000000000000000000000000000000000000000000000000000000000000000000000000N 00000000000NCONT   00    00000000000          00000000000000000000000000000000000000000000 000000000000000A000000000000000000000000000000000000000000000 000000000000000000000000000000000000000     00000000                                                                                                                        000000000000000000
F0010000008299600004000089070997800023658300000000000000000201602250002001CENTRAL DE TORNILLOS                              C000000000024000000000000000000000100010010000000000000000000000F0010000008299600420160225000101 00000000000000000000000000000000000000000000000000000000000000000000000000000000000000000000000000000000000000000N 00000000000NCONT   00    00000000000          00000000000000000000000000000000000000000000 000000000000000A000000000000000000000000000000000000000000000 000000000000000000000000000000000000000     00000000                                                                                                                        000000000000000000
F0010000008299600005000089070997800013552100000000000000000201602250002001CENTRAL DE TORNILLOS                              D000000000024000000000000000000000100010010000000000000000000000F0010000008299600520160225000101 00000000000000000000000000000000000000000000000000000000000000000000000000000000000000000000000000000000000000000N 00000000000NCONT   00    00000000000          00000000000000000000000000000000000000000000 000000000000000A000000000000000000000000000000000000000000000 000000000000000000000000000000000000000     00000000                                                                                                                        000000000000000000
F0010000008299700001000089070997800011050500000000000000000201602250002001CENTRAL DE TORNILLOS                              D000000001700000000000000000000000100010010000000000000000000000F0010000008299700120160225000101 00000000000000000000000000000000000000000000000000000000000000000000000000000000000000000000000000000000000000000N 00000000000NCONT   00    00000000000          00000000000000000000000000000000000000000000 000000000000000A000000000000000000000000000000000000000000000 000000000000000000000000000000000000000     00000000                                                                                                                        000000000000000000
F0010000008299700002000089070997800041450500000000000000000201602250002001CENTRAL DE TORNILLOS                              C000000001500000000000000000000000100010010000000000000000000000F0010000008299700220160225000101 00000000000000000000000000000000000000000000000000000000000000000000000000000000000000000000000000000000000000000N 00000000000NCONT   00    00000000000          00000000000000000000000000000000000000000000 000000000000000A000000000000000000000000000000000000000000000 000000000000000000000000000000000000000     00000000                                                                                                                        000000000000000000
F0010000008299700003000089070997800042505000000000000000000201602250002001CENTRAL DE TORNILLOS                              C000000000200000000000000000000000100010010000000000000000000000F0010000008299700320160225000101 00000000000000000000000000000000000000000000000000000000000000000000000000000000000000000000000000000000000000000N 00000000000NCONT   00    00000000000          00000000000000000000000000000000000000000000 000000000000000A000000000000000000000000000000000000000000000 000000000000000000000000000000000000000     00000000                                                                                                                        000000000000000000
F0010000008299700004000089070997800023658300000000000000000201602250002001CENTRAL DE TORNILLOS                              C000000000012000000000000000000000100010010000000000000000000000F0010000008299700420160225000101 00000000000000000000000000000000000000000000000000000000000000000000000000000000000000000000000000000000000000000N 00000000000NCONT   00    00000000000          00000000000000000000000000000000000000000000 000000000000000A000000000000000000000000000000000000000000000 000000000000000000000000000000000000000     00000000                                                                                                                        000000000000000000
F0010000008299700005000089070997800013552100000000000000000201602250002001CENTRAL DE TORNILLOS                              D000000000012000000000000000000000100010010000000000000000000000F0010000008299700520160225000101 00000000000000000000000000000000000000000000000000000000000000000000000000000000000000000000000000000000000000000N 00000000000NCONT   00    00000000000          00000000000000000000000000000000000000000000 000000000000000A000000000000000000000000000000000000000000000 000000000000000000000000000000000000000     00000000                                                                                                                        000000000000000000
F0010000008299800001000089070997800011050500000000000000000201602250002001CENTRAL DE TORNILLOS                              D000000004260000000000000000000000100010010000000000000000000000F0010000008299800120160225000101 00000000000000000000000000000000000000000000000000000000000000000000000000000000000000000000000000000000000000000N 00000000000NCONT   00    00000000000          00000000000000000000000000000000000000000000 000000000000000A000000000000000000000000000000000000000000000 000000000000000000000000000000000000000     00000000                                                                                                                        000000000000000000
F0010000008299800002000089070997800041450500000000000000000201602250002001CENTRAL DE TORNILLOS                              C000000003860000000000000000000000100010010000000000000000000000F0010000008299800220160225000101 00000000000000000000000000000000000000000000000000000000000000000000000000000000000000000000000000000000000000000N 00000000000NCONT   00    00000000000          00000000000000000000000000000000000000000000 000000000000000A000000000000000000000000000000000000000000000 000000000000000000000000000000000000000     00000000                                                                                                                        000000000000000000
F0010000008299800003000089070997800042505000000000000000000201602250002001CENTRAL DE TORNILLOS                              C000000000400000000000000000000000100010010000000000000000000000F0010000008299800320160225000101 00000000000000000000000000000000000000000000000000000000000000000000000000000000000000000000000000000000000000000N 00000000000NCONT   00    00000000000          00000000000000000000000000000000000000000000 000000000000000A000000000000000000000000000000000000000000000 000000000000000000000000000000000000000     00000000                                                                                                                        000000000000000000
F0010000008299800004000089070997800023658300000000000000000201602250002001CENTRAL DE TORNILLOS                              C000000000030900000000000000000000100010010000000000000000000000F0010000008299800420160225000101 00000000000000000000000000000000000000000000000000000000000000000000000000000000000000000000000000000000000000000N 00000000000NCONT   00    00000000000          00000000000000000000000000000000000000000000 000000000000000A000000000000000000000000000000000000000000000 000000000000000000000000000000000000000     00000000                                                                                                                        000000000000000000
F0010000008299800005000089070997800013552100000000000000000201602250002001CENTRAL DE TORNILLOS                              D000000000030900000000000000000000100010010000000000000000000000F0010000008299800520160225000101 00000000000000000000000000000000000000000000000000000000000000000000000000000000000000000000000000000000000000000N 00000000000NCONT   00    00000000000          00000000000000000000000000000000000000000000 000000000000000A000000000000000000000000000000000000000000000 000000000000000000000000000000000000000     00000000                                                                                                                        000000000000000000
F0010000008299900001000089070997800011050500000000000000000201602250002001CENTRAL DE TORNILLOS                              D000000005100000000000000000000000100010010000000000000000000000F0010000008299900120160225000101 00000000000000000000000000000000000000000000000000000000000000000000000000000000000000000000000000000000000000000N 00000000000NCONT   00    00000000000          00000000000000000000000000000000000000000000 000000000000000A000000000000000000000000000000000000000000000 000000000000000000000000000000000000000     00000000                                                                                                                        000000000000000000
F0010000008299900002000089070997800041450500000000000000000201602250002001CENTRAL DE TORNILLOS                              C000000004500000000000000000000000100010010000000000000000000000F0010000008299900220160225000101 00000000000000000000000000000000000000000000000000000000000000000000000000000000000000000000000000000000000000000N 00000000000NCONT   00    00000000000          00000000000000000000000000000000000000000000 000000000000000A000000000000000000000000000000000000000000000 000000000000000000000000000000000000000     00000000                                                                                                                        000000000000000000
F0010000008299900003000089070997800042505000000000000000000201602250002001CENTRAL DE TORNILLOS                              C000000000600000000000000000000000100010010000000000000000000000F0010000008299900320160225000101 00000000000000000000000000000000000000000000000000000000000000000000000000000000000000000000000000000000000000000N 00000000000NCONT   00    00000000000          00000000000000000000000000000000000000000000 000000000000000A000000000000000000000000000000000000000000000 000000000000000000000000000000000000000     00000000                                                                                                                        000000000000000000
F0010000008299900004000089070997800023658300000000000000000201602250002001CENTRAL DE TORNILLOS                              C000000000036000000000000000000000100010010000000000000000000000F0010000008299900420160225000101 00000000000000000000000000000000000000000000000000000000000000000000000000000000000000000000000000000000000000000N 00000000000NCONT   00    00000000000          00000000000000000000000000000000000000000000 000000000000000A000000000000000000000000000000000000000000000 000000000000000000000000000000000000000     00000000                                                                                                                        000000000000000000
F0010000008299900005000089070997800013552100000000000000000201602250002001CENTRAL DE TORNILLOS                              D000000000036000000000000000000000100010010000000000000000000000F0010000008299900520160225000101 00000000000000000000000000000000000000000000000000000000000000000000000000000000000000000000000000000000000000000N 00000000000NCONT   00    00000000000          00000000000000000000000000000000000000000000 000000000000000A000000000000000000000000000000000000000000000 000000000000000000000000000000000000000     00000000                                                                                                                        000000000000000000
F0010000008300000001000089070997800011050500000000000000000201602250002001CENTRAL DE TORNILLOS                              D000000002130000000000000000000000100010010000000000000000000000F0010000008300000120160225000101 00000000000000000000000000000000000000000000000000000000000000000000000000000000000000000000000000000000000000000N 00000000000NCONT   00    00000000000          00000000000000000000000000000000000000000000 000000000000000A000000000000000000000000000000000000000000000 000000000000000000000000000000000000000     00000000                                                                                                                        000000000000000000
F0010000008300000002000089070997800041450500000000000000000201602250002001CENTRAL DE TORNILLOS                              C000000001930000000000000000000000100010010000000000000000000000F0010000008300000220160225000101 00000000000000000000000000000000000000000000000000000000000000000000000000000000000000000000000000000000000000000N 00000000000NCONT   00    00000000000          00000000000000000000000000000000000000000000 000000000000000A000000000000000000000000000000000000000000000 000000000000000000000000000000000000000     00000000                                                                                                                        000000000000000000
F0010000008300000003000089070997800042505000000000000000000201602250002001CENTRAL DE TORNILLOS                              C000000000200000000000000000000000100010010000000000000000000000F0010000008300000320160225000101 00000000000000000000000000000000000000000000000000000000000000000000000000000000000000000000000000000000000000000N 00000000000NCONT   00    00000000000          00000000000000000000000000000000000000000000 000000000000000A000000000000000000000000000000000000000000000 000000000000000000000000000000000000000     00000000                                                                                                                        000000000000000000
F0010000008300000004000089070997800023658300000000000000000201602250002001CENTRAL DE TORNILLOS                              C000000000015400000000000000000000100010010000000000000000000000F0010000008300000420160225000101 00000000000000000000000000000000000000000000000000000000000000000000000000000000000000000000000000000000000000000N 00000000000NCONT   00    00000000000          00000000000000000000000000000000000000000000 000000000000000A000000000000000000000000000000000000000000000 000000000000000000000000000000000000000     00000000                                                                                                                        000000000000000000
F0010000008300000005000089070997800013552100000000000000000201602250002001CENTRAL DE TORNILLOS                              D000000000015400000000000000000000100010010000000000000000000000F0010000008300000520160225000101 00000000000000000000000000000000000000000000000000000000000000000000000000000000000000000000000000000000000000000N 00000000000NCONT   00    00000000000          00000000000000000000000000000000000000000000 000000000000000A000000000000000000000000000000000000000000000 000000000000000000000000000000000000000     00000000                                                                                                                        000000000000000000
F0010000008300100001000089070997800011050500000000000000000201602250002001CENTRAL DE TORNILLOS                              D000000003960000000000000000000000100010010000000000000000000000F0010000008300100120160225000101 00000000000000000000000000000000000000000000000000000000000000000000000000000000000000000000000000000000000000000N 00000000000NCONT   00    00000000000          00000000000000000000000000000000000000000000 000000000000000A000000000000000000000000000000000000000000000 000000000000000000000000000000000000000     00000000                                                                                                                        000000000000000000
F0010000008300100002000089070997800041450500000000000000000201602250002001CENTRAL DE TORNILLOS                              C000000003560000000000000000000000100010010000000000000000000000F0010000008300100220160225000101 00000000000000000000000000000000000000000000000000000000000000000000000000000000000000000000000000000000000000000N 00000000000NCONT   00    00000000000          00000000000000000000000000000000000000000000 000000000000000A000000000000000000000000000000000000000000000 000000000000000000000000000000000000000     00000000                                                                                                                        000000000000000000
F0010000008300100003000089070997800042505000000000000000000201602250002001CENTRAL DE TORNILLOS                              C000000000400000000000000000000000100010010000000000000000000000F0010000008300100320160225000101 00000000000000000000000000000000000000000000000000000000000000000000000000000000000000000000000000000000000000000N 00000000000NCONT   00    00000000000          00000000000000000000000000000000000000000000 000000000000000A000000000000000000000000000000000000000000000 000000000000000000000000000000000000000     00000000                                                                                                                        000000000000000000
F0010000008300100004000089070997800023658300000000000000000201602250002001CENTRAL DE TORNILLOS                              C000000000028500000000000000000000100010010000000000000000000000F0010000008300100420160225000101 00000000000000000000000000000000000000000000000000000000000000000000000000000000000000000000000000000000000000000N 00000000000NCONT   00    00000000000          00000000000000000000000000000000000000000000 000000000000000A000000000000000000000000000000000000000000000 000000000000000000000000000000000000000     00000000                                                                                                                        000000000000000000
F0010000008300100005000089070997800013552100000000000000000201602250002001CENTRAL DE TORNILLOS                              D000000000028500000000000000000000100010010000000000000000000000F0010000008300100520160225000101 00000000000000000000000000000000000000000000000000000000000000000000000000000000000000000000000000000000000000000N 00000000000NCONT   00    00000000000          00000000000000000000000000000000000000000000 000000000000000A000000000000000000000000000000000000000000000 000000000000000000000000000000000000000     00000000                                                                                                                        000000000000000000
F0010000008300200001000000257193600011050500000000000000000201602250002001DISTRIBUCIONES YALY                               D000000006600000000000000000000000100010010000000000000000000000F0010000008300200120160225000101 00000000000000000000000000000000000000000000000000000000000000000000000000000000000000000000000000000000000000000N 00000000000NCONT   00    00000000000          00000000000000000000000000000000000000000000 000000000000000A000000000000000000000000000000000000000000000 000000000000000000000000000000000000000     00000000                                                                                                                        000000000000000000
F0010000008300200002000000257193600041450500000000000000000201602250002001DISTRIBUCIONES YALY                               C000000006000000000000000000000000100010010000000000000000000000F0010000008300200220160225000101 00000000000000000000000000000000000000000000000000000000000000000000000000000000000000000000000000000000000000000N 00000000000NCONT   00    00000000000          00000000000000000000000000000000000000000000 000000000000000A000000000000000000000000000000000000000000000 000000000000000000000000000000000000000     00000000                                                                                                                        000000000000000000
F0010000008300200003000000257193600042505000000000000000000201602250002001DISTRIBUCIONES YALY                               C000000000600000000000000000000000100010010000000000000000000000F0010000008300200320160225000101 00000000000000000000000000000000000000000000000000000000000000000000000000000000000000000000000000000000000000000N 00000000000NCONT   00    00000000000          00000000000000000000000000000000000000000000 000000000000000A000000000000000000000000000000000000000000000 000000000000000000000000000000000000000     00000000                                                                                                                        000000000000000000
F0010000008300200004000000257193600023658300000000000000000201602250002001DISTRIBUCIONES YALY                               C000000000048000000000000000000000100010010000000000000000000000F0010000008300200420160225000101 00000000000000000000000000000000000000000000000000000000000000000000000000000000000000000000000000000000000000000N 00000000000NCONT   00    00000000000          00000000000000000000000000000000000000000000 000000000000000A000000000000000000000000000000000000000000000 000000000000000000000000000000000000000     00000000                                                                                                                        000000000000000000
F0010000008300200005000000257193600013552100000000000000000201602250002001DISTRIBUCIONES YALY                               D000000000048000000000000000000000100010010000000000000000000000F0010000008300200520160225000101 00000000000000000000000000000000000000000000000000000000000000000000000000000000000000000000000000000000000000000N 00000000000NCONT   00    00000000000          00000000000000000000000000000000000000000000 000000000000000A000000000000000000000000000000000000000000000 000000000000000000000000000000000000000     00000000                                                                                                                        000000000000000000
F0010000008300300001000009120302700011050500000000000000000201602250002001CALZADO REY ESTEBAN                               D000000002000000000000000000000000100010010000000000000000000000F0010000008300300120160225000101 00000000000000000000000000000000000000000000000000000000000000000000000000000000000000000000000000000000000000000N 00000000000NCONT   00    00000000000          00000000000000000000000000000000000000000000 000000000000000A000000000000000000000000000000000000000000000 000000000000000000000000000000000000000     00000000                                                                                                                        000000000000000000
F0010000008300300002000009120302700041450500000000000000000201602250002001CALZADO REY ESTEBAN                               C000000001200000000000000000000000100010010000000000000000000000F0010000008300300220160225000101 00000000000000000000000000000000000000000000000000000000000000000000000000000000000000000000000000000000000000000N 00000000000NCONT   00    00000000000          00000000000000000000000000000000000000000000 000000000000000A000000000000000000000000000000000000000000000 000000000000000000000000000000000000000     00000000                                                                                                                        000000000000000000
F0010000008300300003000009120302700042505000000000000000000201602250002001CALZADO REY ESTEBAN                               C000000000800000000000000000000000100010010000000000000000000000F0010000008300300320160225000101 00000000000000000000000000000000000000000000000000000000000000000000000000000000000000000000000000000000000000000N 00000000000NCONT   00    00000000000          00000000000000000000000000000000000000000000 000000000000000A000000000000000000000000000000000000000000000 000000000000000000000000000000000000000     00000000                                                                                                                        000000000000000000
F0010000008300300004000009120302700023658300000000000000000201602250002001CALZADO REY ESTEBAN                               C000000000009600000000000000000000100010010000000000000000000000F0010000008300300420160225000101 00000000000000000000000000000000000000000000000000000000000000000000000000000000000000000000000000000000000000000N 00000000000NCONT   00    00000000000          00000000000000000000000000000000000000000000 000000000000000A000000000000000000000000000000000000000000000 000000000000000000000000000000000000000     00000000                                                                                                                        000000000000000000
F0010000008300300005000009120302700013552100000000000000000201602250002001CALZADO REY ESTEBAN                               D000000000009600000000000000000000100010010000000000000000000000F0010000008300300520160225000101 00000000000000000000000000000000000000000000000000000000000000000000000000000000000000000000000000000000000000000N 00000000000NCONT   00    00000000000          00000000000000000000000000000000000000000000 000000000000000A000000000000000000000000000000000000000000000 000000000000000000000000000000000000000     00000000                                                                                                                        000000000000000000
F0010000008300400001000001022529300011050500000000000000000201602250002001ALBERTO ALVAREZ ISAZA                             D000000001760000000000000000000000100010010000000000000000000000F0010000008300400120160225000101 00000000000000000000000000000000000000000000000000000000000000000000000000000000000000000000000000000000000000000N 00000000000NCONT   00    00000000000          00000000000000000000000000000000000000000000 000000000000000A000000000000000000000000000000000000000000000 000000000000000000000000000000000000000     00000000                                                                                                                        000000000000000000
F0010000008300400002000001022529300041450500000000000000000201602250002001ALBERTO ALVAREZ ISAZA                             C000000001760000000000000000000000100010010000000000000000000000F0010000008300400220160225000101 00000000000000000000000000000000000000000000000000000000000000000000000000000000000000000000000000000000000000000N 00000000000NCONT   00    00000000000          00000000000000000000000000000000000000000000 000000000000000A000000000000000000000000000000000000000000000 000000000000000000000000000000000000000     00000000                                                                                                                        000000000000000000
F0010000008300400003000001022529300042505000000000000000000201602250002001ALBERTO ALVAREZ ISAZA                             C000000000000000000000000000000000100010010000000000000000000000F0010000008300400320160225000101 00000000000000000000000000000000000000000000000000000000000000000000000000000000000000000000000000000000000000000N 00000000000NCONT   00    00000000000          00000000000000000000000000000000000000000000 000000000000000A000000000000000000000000000000000000000000000 000000000000000000000000000000000000000     00000000                                                                                                                        000000000000000000
F0010000008300400004000001022529300023658300000000000000000201602250002001ALBERTO ALVAREZ ISAZA                             C000000000014100000000000000000000100010010000000000000000000000F0010000008300400420160225000101 00000000000000000000000000000000000000000000000000000000000000000000000000000000000000000000000000000000000000000N 00000000000NCONT   00    00000000000          00000000000000000000000000000000000000000000 000000000000000A000000000000000000000000000000000000000000000 000000000000000000000000000000000000000     00000000                                                                                                                        000000000000000000
F0010000008300400005000001022529300013552100000000000000000201602250002001ALBERTO ALVAREZ ISAZA                             D000000000014100000000000000000000100010010000000000000000000000F0010000008300400520160225000101 00000000000000000000000000000000000000000000000000000000000000000000000000000000000000000000000000000000000000000N 00000000000NCONT   00    00000000000          00000000000000000000000000000000000000000000 000000000000000A000000000000000000000000000000000000000000000 000000000000000000000000000000000000000     00000000                                                                                                                        000000000000000000
F0010000008300500001000007200023300011050500000000000000000201602250002001WILLIAM ORTEGA                                    D000000003100000000000000000000000100010010000000000000000000000F0010000008300500120160225000101 00000000000000000000000000000000000000000000000000000000000000000000000000000000000000000000000000000000000000000N 00000000000NCONT   00    00000000000          00000000000000000000000000000000000000000000 000000000000000A000000000000000000000000000000000000000000000 000000000000000000000000000000000000000     00000000                                                                                                                        000000000000000000
F0010000008300500002000007200023300041450500000000000000000201602250002001WILLIAM ORTEGA                                    C000000002600000000000000000000000100010010000000000000000000000F0010000008300500220160225000101 00000000000000000000000000000000000000000000000000000000000000000000000000000000000000000000000000000000000000000N 00000000000NCONT   00    00000000000          00000000000000000000000000000000000000000000 000000000000000A000000000000000000000000000000000000000000000 000000000000000000000000000000000000000     00000000                                                                                                                        000000000000000000
