F0010000008893300001000080201733000011050500000000000000000201607250002001DISTRIBUIDORA LORA MEZA Y CIA LIMITADA            D000000003500000000000000000000000100010010000000000000000000000F0010000008893300120160725000101 00000000000000000000000000000000000000000000000000000000000000000000000000000000000000000000000000000000000000000N 00000000000NCONT   00    00000000000          00000000000000000000000000000000000000000000 000000000000000A000000000000000000000000000000000000000000000 000000000000000000000000000000000000000     00000000                                                                                                                        000000000000000000
F0010000008893300002000080201733000041450500000000000000000201607250002001DISTRIBUIDORA LORA MEZA Y CIA LIMITADA            C000000002700000000000000000000000100010010000000000000000000000F0010000008893300220160725000101 00000000000000000000000000000000000000000000000000000000000000000000000000000000000000000000000000000000000000000N 00000000000NCONT   00    00000000000          00000000000000000000000000000000000000000000 000000000000000A000000000000000000000000000000000000000000000 000000000000000000000000000000000000000     00000000                                                                                                                        000000000000000000
F0010000008893300003000080201733000042505000000000000000000201607250002001DISTRIBUIDORA LORA MEZA Y CIA LIMITADA            C000000000800000000000000000000000100010010000000000000000000000F0010000008893300320160725000101 00000000000000000000000000000000000000000000000000000000000000000000000000000000000000000000000000000000000000000N 00000000000NCONT   00    00000000000          00000000000000000000000000000000000000000000 000000000000000A000000000000000000000000000000000000000000000 000000000000000000000000000000000000000     00000000                                                                                                                        000000000000000000
F0010000008893300004000080201733000023658300000000000000000201607250002001DISTRIBUIDORA LORA MEZA Y CIA LIMITADA            C000000000021600000000000000000000100010010000000000000000000000F0010000008893300420160725000101 00000000000000000000000000000000000000000000000000000000000000000000000000000000000000000000000000000000000000000N 00000000000NCONT   00    00000000000          00000000000000000000000000000000000000000000 000000000000000A000000000000000000000000000000000000000000000 000000000000000000000000000000000000000     00000000                                                                                                                        000000000000000000
F0010000008893300005000080201733000013552100000000000000000201607250002001DISTRIBUIDORA LORA MEZA Y CIA LIMITADA            D000000000021600000000000000000000100010010000000000000000000000F0010000008893300520160725000101 00000000000000000000000000000000000000000000000000000000000000000000000000000000000000000000000000000000000000000N 00000000000NCONT   00    00000000000          00000000000000000000000000000000000000000000 000000000000000A000000000000000000000000000000000000000000000 000000000000000000000000000000000000000     00000000                                                                                                                        000000000000000000
F0010000008893400001000000871453300011050500000000000000000201607250002001WILSON ROJANO OSPINO                              D000000001500000000000000000000000100010010000000000000000000000F0010000008893400120160725000101 00000000000000000000000000000000000000000000000000000000000000000000000000000000000000000000000000000000000000000N 00000000000NCONT   00    00000000000          00000000000000000000000000000000000000000000 000000000000000A000000000000000000000000000000000000000000000 000000000000000000000000000000000000000     00000000                                                                                                                        000000000000000000
F0010000008893400002000000871453300041450500000000000000000201607250002001WILSON ROJANO OSPINO                              C000000001300000000000000000000000100010010000000000000000000000F0010000008893400220160725000101 00000000000000000000000000000000000000000000000000000000000000000000000000000000000000000000000000000000000000000N 00000000000NCONT   00    00000000000          00000000000000000000000000000000000000000000 000000000000000A000000000000000000000000000000000000000000000 000000000000000000000000000000000000000     00000000                                                                                                                        000000000000000000
F0010000008893400003000000871453300042505000000000000000000201607250002001WILSON ROJANO OSPINO                              C000000000200000000000000000000000100010010000000000000000000000F0010000008893400320160725000101 00000000000000000000000000000000000000000000000000000000000000000000000000000000000000000000000000000000000000000N 00000000000NCONT   00    00000000000          00000000000000000000000000000000000000000000 000000000000000A000000000000000000000000000000000000000000000 000000000000000000000000000000000000000     00000000                                                                                                                        000000000000000000
F0010000008893400004000000871453300023658300000000000000000201607250002001WILSON ROJANO OSPINO                              C000000000010400000000000000000000100010010000000000000000000000F0010000008893400420160725000101 00000000000000000000000000000000000000000000000000000000000000000000000000000000000000000000000000000000000000000N 00000000000NCONT   00    00000000000          00000000000000000000000000000000000000000000 000000000000000A000000000000000000000000000000000000000000000 000000000000000000000000000000000000000     00000000                                                                                                                        000000000000000000
F0010000008893400005000000871453300013552100000000000000000201607250002001WILSON ROJANO OSPINO                              D000000000010400000000000000000000100010010000000000000000000000F0010000008893400520160725000101 00000000000000000000000000000000000000000000000000000000000000000000000000000000000000000000000000000000000000000N 00000000000NCONT   00    00000000000          00000000000000000000000000000000000000000000 000000000000000A000000000000000000000000000000000000000000000 000000000000000000000000000000000000000     00000000                                                                                                                        000000000000000000
F0010000008893500001000080201127600013050500000000000000000201607250002001ELECTRICOS DEL RUIZ S.A.S.                        D000000036308000000000000000000000100010010000000000000000000000F0010000008893500120160725000101 00000000000000000000000000000000000000000000000000000000000000000000000000000000000000000000000000000000000000000N 00000000000NCONT   00    00000000000          00000000000000000000000000000000000000000000 000000000000000A000000000000000000000000000000000000000000000 000000000000000000000000000000000000000     00000000                                                                                                                        000000000000000000
F0010000008893500002000080201127600041450500000000000000000201607250002001ELECTRICOS DEL RUIZ S.A.S.                        C000000030770000000000000000000000100010010000000000000000000000F0010000008893500220160725000101 00000000000000000000000000000000000000000000000000000000000000000000000000000000000000000000000000000000000000000N 00000000000NCONT   00    00000000000          00000000000000000000000000000000000000000000 000000000000000A000000000000000000000000000000000000000000000 000000000000000000000000000000000000000     00000000                                                                                                                        000000000000000000
F0010000008893500003000080201127600042505000000000000000000201607250002001ELECTRICOS DEL RUIZ S.A.S.                        C000000005538000000000000000000000100010010000000000000000000000F0010000008893500320160725000101 00000000000000000000000000000000000000000000000000000000000000000000000000000000000000000000000000000000000000000N 00000000000NCONT   00    00000000000          00000000000000000000000000000000000000000000 000000000000000A000000000000000000000000000000000000000000000 000000000000000000000000000000000000000     00000000                                                                                                                        000000000000000000
F0010000008893500004000080201127600023658300000000000000000201607250002001ELECTRICOS DEL RUIZ S.A.S.                        C000000000246200000000000000000000100010010000000000000000000000F0010000008893500420160725000101 00000000000000000000000000000000000000000000000000000000000000000000000000000000000000000000000000000000000000000N 00000000000NCONT   00    00000000000          00000000000000000000000000000000000000000000 000000000000000A000000000000000000000000000000000000000000000 000000000000000000000000000000000000000     00000000                                                                                                                        000000000000000000
F0010000008893500005000080201127600013552100000000000000000201607250002001ELECTRICOS DEL RUIZ S.A.S.                        D000000000246200000000000000000000100010010000000000000000000000F0010000008893500520160725000101 00000000000000000000000000000000000000000000000000000000000000000000000000000000000000000000000000000000000000000N 00000000000NCONT   00    00000000000          00000000000000000000000000000000000000000000 000000000000000A000000000000000000000000000000000000000000000 000000000000000000000000000000000000000     00000000                                                                                                                        000000000000000000
F0010000008893600001000080200250700013050500000000000000000201607250002001ETICOL SAS                                        D000000014300000000000000000000000100010010000000000000000000000F0010000008893600120160725000101 00000000000000000000000000000000000000000000000000000000000000000000000000000000000000000000000000000000000000000N 00000000000NCONT   00    00000000000          00000000000000000000000000000000000000000000 000000000000000A000000000000000000000000000000000000000000000 000000000000000000000000000000000000000     00000000                                                                                                                        000000000000000000
F0010000008893600002000080200250700041450500000000000000000201607250002001ETICOL SAS                                        C000000013600000000000000000000000100010010000000000000000000000F0010000008893600220160725000101 00000000000000000000000000000000000000000000000000000000000000000000000000000000000000000000000000000000000000000N 00000000000NCONT   00    00000000000          00000000000000000000000000000000000000000000 000000000000000A000000000000000000000000000000000000000000000 000000000000000000000000000000000000000     00000000                                                                                                                        000000000000000000
F0010000008893600003000080200250700042505000000000000000000201607250002001ETICOL SAS                                        C000000000700000000000000000000000100010010000000000000000000000F0010000008893600320160725000101 00000000000000000000000000000000000000000000000000000000000000000000000000000000000000000000000000000000000000000N 00000000000NCONT   00    00000000000          00000000000000000000000000000000000000000000 000000000000000A000000000000000000000000000000000000000000000 000000000000000000000000000000000000000     00000000                                                                                                                        000000000000000000
F0010000008893600004000080200250700023658300000000000000000201607250002001ETICOL SAS                                        C000000000108800000000000000000000100010010000000000000000000000F0010000008893600420160725000101 00000000000000000000000000000000000000000000000000000000000000000000000000000000000000000000000000000000000000000N 00000000000NCONT   00    00000000000          00000000000000000000000000000000000000000000 000000000000000A000000000000000000000000000000000000000000000 000000000000000000000000000000000000000     00000000                                                                                                                        000000000000000000
F0010000008893600005000080200250700013552100000000000000000201607250002001ETICOL SAS                                        D000000000108800000000000000000000100010010000000000000000000000F0010000008893600520160725000101 00000000000000000000000000000000000000000000000000000000000000000000000000000000000000000000000000000000000000000N 00000000000NCONT   00    00000000000          00000000000000000000000000000000000000000000 000000000000000A000000000000000000000000000000000000000000000 000000000000000000000000000000000000000     00000000                                                                                                                        000000000000000000
F0010000008893700001000080016664500013050500000000000000000201607250002001TELAPLAS PANCER SAS                               D000000020526000000000000000000000100010010000000000000000000000F0010000008893700120160725000101 00000000000000000000000000000000000000000000000000000000000000000000000000000000000000000000000000000000000000000N 00000000000NCONT   00    00000000000          00000000000000000000000000000000000000000000 000000000000000A000000000000000000000000000000000000000000000 000000000000000000000000000000000000000     00000000                                                                                                                        000000000000000000
F0010000008893700002000080016664500041450500000000000000000201607250002001TELAPLAS PANCER SAS                               C000000015300000000000000000000000100010010000000000000000000000F0010000008893700220160725000101 00000000000000000000000000000000000000000000000000000000000000000000000000000000000000000000000000000000000000000N 00000000000NCONT   00    00000000000          00000000000000000000000000000000000000000000 000000000000000A000000000000000000000000000000000000000000000 000000000000000000000000000000000000000     00000000                                                                                                                        000000000000000000
F0010000008893700003000080016664500042505000000000000000000201607250002001TELAPLAS PANCER SAS                               C000000005226000000000000000000000100010010000000000000000000000F0010000008893700320160725000101 00000000000000000000000000000000000000000000000000000000000000000000000000000000000000000000000000000000000000000N 00000000000NCONT   00    00000000000          00000000000000000000000000000000000000000000 000000000000000A000000000000000000000000000000000000000000000 000000000000000000000000000000000000000     00000000                                                                                                                        000000000000000000
F0010000008893700004000080016664500023658300000000000000000201607250002001TELAPLAS PANCER SAS                               C000000000122400000000000000000000100010010000000000000000000000F0010000008893700420160725000101 00000000000000000000000000000000000000000000000000000000000000000000000000000000000000000000000000000000000000000N 00000000000NCONT   00    00000000000          00000000000000000000000000000000000000000000 000000000000000A000000000000000000000000000000000000000000000 000000000000000000000000000000000000000     00000000                                                                                                                        000000000000000000
F0010000008893700005000080016664500013552100000000000000000201607250002001TELAPLAS PANCER SAS                               D000000000122400000000000000000000100010010000000000000000000000F0010000008893700520160725000101 00000000000000000000000000000000000000000000000000000000000000000000000000000000000000000000000000000000000000000N 00000000000NCONT   00    00000000000          00000000000000000000000000000000000000000000 000000000000000A000000000000000000000000000000000000000000000 000000000000000000000000000000000000000     00000000                                                                                                                        000000000000000000
F0010000008893800001000002245670100013050500000000000000000201607250002001YOLANDA  TOBON                                    D000000010573900000000000000000000100010010000000000000000000000F0010000008893800120160725000101 00000000000000000000000000000000000000000000000000000000000000000000000000000000000000000000000000000000000000000N 00000000000NCONT   00    00000000000          00000000000000000000000000000000000000000000 000000000000000A000000000000000000000000000000000000000000000 000000000000000000000000000000000000000     00000000                                                                                                                        000000000000000000
F0010000008893800002000002245670100041450500000000000000000201607250002001YOLANDA  TOBON                                    C000000008950000000000000000000000100010010000000000000000000000F0010000008893800220160725000101 00000000000000000000000000000000000000000000000000000000000000000000000000000000000000000000000000000000000000000N 00000000000NCONT   00    00000000000          00000000000000000000000000000000000000000000 000000000000000A000000000000000000000000000000000000000000000 000000000000000000000000000000000000000     00000000                                                                                                                        000000000000000000
F0010000008893800003000002245670100042505000000000000000000201607250002001YOLANDA  TOBON                                    C000000001623900000000000000000000100010010000000000000000000000F0010000008893800320160725000101 00000000000000000000000000000000000000000000000000000000000000000000000000000000000000000000000000000000000000000N 00000000000NCONT   00    00000000000          00000000000000000000000000000000000000000000 000000000000000A000000000000000000000000000000000000000000000 000000000000000000000000000000000000000     00000000                                                                                                                        000000000000000000
F0010000008893800004000002245670100023658300000000000000000201607250002001YOLANDA  TOBON                                    C000000000071600000000000000000000100010010000000000000000000000F0010000008893800420160725000101 00000000000000000000000000000000000000000000000000000000000000000000000000000000000000000000000000000000000000000N 00000000000NCONT   00    00000000000          00000000000000000000000000000000000000000000 000000000000000A000000000000000000000000000000000000000000000 000000000000000000000000000000000000000     00000000                                                                                                                        000000000000000000
F0010000008893800005000002245670100013552100000000000000000201607250002001YOLANDA  TOBON                                    D000000000071600000000000000000000100010010000000000000000000000F0010000008893800520160725000101 00000000000000000000000000000000000000000000000000000000000000000000000000000000000000000000000000000000000000000N 00000000000NCONT   00    00000000000          00000000000000000000000000000000000000000000 000000000000000A000000000000000000000000000000000000000000000 000000000000000000000000000000000000000     00000000                                                                                                                        000000000000000000
F0010000008893900001000090064982900013050500000000000000000201607250002001DISDIES S.A.S                                     D000000037976100000000000000000000100010010000000000000000000000F0010000008893900120160725000101 00000000000000000000000000000000000000000000000000000000000000000000000000000000000000000000000000000000000000000N 00000000000NCONT   00    00000000000          00000000000000000000000000000000000000000000 000000000000000A000000000000000000000000000000000000000000000 000000000000000000000000000000000000000     00000000                                                                                                                        000000000000000000
F0010000008893900002000090064982900041450500000000000000000201607250002001DISDIES S.A.S                                     C000000030836100000000000000000000100010010000000000000000000000F0010000008893900220160725000101 00000000000000000000000000000000000000000000000000000000000000000000000000000000000000000000000000000000000000000N 00000000000NCONT   00    00000000000          00000000000000000000000000000000000000000000 000000000000000A000000000000000000000000000000000000000000000 000000000000000000000000000000000000000     00000000                                                                                                                        000000000000000000
F0010000008893900003000090064982900042505000000000000000000201607250002001DISDIES S.A.S                                     C000000007140000000000000000000000100010010000000000000000000000F0010000008893900320160725000101 00000000000000000000000000000000000000000000000000000000000000000000000000000000000000000000000000000000000000000N 00000000000NCONT   00    00000000000          00000000000000000000000000000000000000000000 000000000000000A000000000000000000000000000000000000000000000 000000000000000000000000000000000000000     00000000                                                                                                                        000000000000000000
F0010000008893900004000090064982900023658300000000000000000201607250002001DISDIES S.A.S                                     C000000000246700000000000000000000100010010000000000000000000000F0010000008893900420160725000101 00000000000000000000000000000000000000000000000000000000000000000000000000000000000000000000000000000000000000000N 00000000000NCONT   00    00000000000          00000000000000000000000000000000000000000000 000000000000000A000000000000000000000000000000000000000000000 000000000000000000000000000000000000000     00000000                                                                                                                        000000000000000000
F0010000008893900005000090064982900013552100000000000000000201607250002001DISDIES S.A.S                                     D000000000246700000000000000000000100010010000000000000000000000F0010000008893900520160725000101 00000000000000000000000000000000000000000000000000000000000000000000000000000000000000000000000000000000000000000N 00000000000NCONT   00    00000000000          00000000000000000000000000000000000000000000 000000000000000A000000000000000000000000000000000000000000000 000000000000000000000000000000000000000     00000000                                                                                                                        000000000000000000
F0010000008894000001000090069145000013050500000000000000000201607250002001TGV DE COLOMBIA SAS                               D000000034500000000000000000000000100010010000000000000000000000F0010000008894000120160725000101 00000000000000000000000000000000000000000000000000000000000000000000000000000000000000000000000000000000000000000N 00000000000NCONT   00    00000000000          00000000000000000000000000000000000000000000 000000000000000A000000000000000000000000000000000000000000000 000000000000000000000000000000000000000     00000000                                                                                                                        000000000000000000
F0010000008894000002000090069145000041450500000000000000000201607250002001TGV DE COLOMBIA SAS                               C000000033000000000000000000000000100010010000000000000000000000F0010000008894000220160725000101 00000000000000000000000000000000000000000000000000000000000000000000000000000000000000000000000000000000000000000N 00000000000NCONT   00    00000000000          00000000000000000000000000000000000000000000 000000000000000A000000000000000000000000000000000000000000000 000000000000000000000000000000000000000     00000000                                                                                                                        000000000000000000
F0010000008894000003000090069145000042505000000000000000000201607250002001TGV DE COLOMBIA SAS                               C000000001500000000000000000000000100010010000000000000000000000F0010000008894000320160725000101 00000000000000000000000000000000000000000000000000000000000000000000000000000000000000000000000000000000000000000N 00000000000NCONT   00    00000000000          00000000000000000000000000000000000000000000 000000000000000A000000000000000000000000000000000000000000000 000000000000000000000000000000000000000     00000000                                                                                                                        000000000000000000
F0010000008894000004000090069145000023658300000000000000000201607250002001TGV DE COLOMBIA SAS                               C000000000264000000000000000000000100010010000000000000000000000F0010000008894000420160725000101 00000000000000000000000000000000000000000000000000000000000000000000000000000000000000000000000000000000000000000N 00000000000NCONT   00    00000000000          00000000000000000000000000000000000000000000 000000000000000A000000000000000000000000000000000000000000000 000000000000000000000000000000000000000     00000000                                                                                                                        000000000000000000
F0010000008894000005000090069145000013552100000000000000000201607250002001TGV DE COLOMBIA SAS                               D000000000264000000000000000000000100010010000000000000000000000F0010000008894000520160725000101 00000000000000000000000000000000000000000000000000000000000000000000000000000000000000000000000000000000000000000N 00000000000NCONT   00    00000000000          00000000000000000000000000000000000000000000 000000000000000A000000000000000000000000000000000000000000000 000000000000000000000000000000000000000     00000000                                                                                                                        000000000000000000
F0010000008894100001000083007900600013050500000000000000000201607250002001EXPRESO ANDINO DE CARGA SA                        D000000016000000000000000000000000100010010000000000000000000000F0010000008894100120160725000101 00000000000000000000000000000000000000000000000000000000000000000000000000000000000000000000000000000000000000000N 00000000000NCONT   00    00000000000          00000000000000000000000000000000000000000000 000000000000000A000000000000000000000000000000000000000000000 000000000000000000000000000000000000000     00000000                                                                                                                        000000000000000000
F0010000008894100002000083007900600041450500000000000000000201607250002001EXPRESO ANDINO DE CARGA SA                        C000000015600000000000000000000000100010010000000000000000000000F0010000008894100220160725000101 00000000000000000000000000000000000000000000000000000000000000000000000000000000000000000000000000000000000000000N 00000000000NCONT   00    00000000000          00000000000000000000000000000000000000000000 000000000000000A000000000000000000000000000000000000000000000 000000000000000000000000000000000000000     00000000                                                                                                                        000000000000000000
F0010000008894100003000083007900600042505000000000000000000201607250002001EXPRESO ANDINO DE CARGA SA                        C000000000400000000000000000000000100010010000000000000000000000F0010000008894100320160725000101 00000000000000000000000000000000000000000000000000000000000000000000000000000000000000000000000000000000000000000N 00000000000NCONT   00    00000000000          00000000000000000000000000000000000000000000 000000000000000A000000000000000000000000000000000000000000000 000000000000000000000000000000000000000     00000000                                                                                                                        000000000000000000
F0010000008894100004000083007900600023658300000000000000000201607250002001EXPRESO ANDINO DE CARGA SA                        C000000000124800000000000000000000100010010000000000000000000000F0010000008894100420160725000101 00000000000000000000000000000000000000000000000000000000000000000000000000000000000000000000000000000000000000000N 00000000000NCONT   00    00000000000          00000000000000000000000000000000000000000000 000000000000000A000000000000000000000000000000000000000000000 000000000000000000000000000000000000000     00000000                                                                                                                        000000000000000000
F0010000008894100005000083007900600013552100000000000000000201607250002001EXPRESO ANDINO DE CARGA SA                        D000000000124800000000000000000000100010010000000000000000000000F0010000008894100520160725000101 00000000000000000000000000000000000000000000000000000000000000000000000000000000000000000000000000000000000000000N 00000000000NCONT   00    00000000000          00000000000000000000000000000000000000000000 000000000000000A000000000000000000000000000000000000000000000 000000000000000000000000000000000000000     00000000                                                                                                                        000000000000000000
F0010000008894200001000080200069100013050500000000000000000201607250002001PEGANTES Y PINTURAS ATLAS LTDA                    D000000015407000000000000000000000100010010000000000000000000000F0010000008894200120160725000101 00000000000000000000000000000000000000000000000000000000000000000000000000000000000000000000000000000000000000000N 00000000000NCONT   00    00000000000          00000000000000000000000000000000000000000000 000000000000000A000000000000000000000000000000000000000000000 000000000000000000000000000000000000000     00000000                                                                                                                        000000000000000000
F0010000008894200002000080200069100041450500000000000000000201607250002001PEGANTES Y PINTURAS ATLAS LTDA                    C000000013200000000000000000000000100010010000000000000000000000F0010000008894200220160725000101 00000000000000000000000000000000000000000000000000000000000000000000000000000000000000000000000000000000000000000N 00000000000NCONT   00    00000000000          00000000000000000000000000000000000000000000 000000000000000A000000000000000000000000000000000000000000000 000000000000000000000000000000000000000     00000000                                                                                                                        000000000000000000
F0010000008894200003000080200069100042505000000000000000000201607250002001PEGANTES Y PINTURAS ATLAS LTDA                    C000000002207000000000000000000000100010010000000000000000000000F0010000008894200320160725000101 00000000000000000000000000000000000000000000000000000000000000000000000000000000000000000000000000000000000000000N 00000000000NCONT   00    00000000000          00000000000000000000000000000000000000000000 000000000000000A000000000000000000000000000000000000000000000 000000000000000000000000000000000000000     00000000                                                                                                                        000000000000000000
F0010000008894200004000080200069100023658300000000000000000201607250002001PEGANTES Y PINTURAS ATLAS LTDA                    C000000000105600000000000000000000100010010000000000000000000000F0010000008894200420160725000101 00000000000000000000000000000000000000000000000000000000000000000000000000000000000000000000000000000000000000000N 00000000000NCONT   00    00000000000          00000000000000000000000000000000000000000000 000000000000000A000000000000000000000000000000000000000000000 000000000000000000000000000000000000000     00000000                                                                                                                        000000000000000000
F0010000008894200005000080200069100013552100000000000000000201607250002001PEGANTES Y PINTURAS ATLAS LTDA                    D000000000105600000000000000000000100010010000000000000000000000F0010000008894200520160725000101 00000000000000000000000000000000000000000000000000000000000000000000000000000000000000000000000000000000000000000N 00000000000NCONT   00    00000000000          00000000000000000000000000000000000000000000 000000000000000A000000000000000000000000000000000000000000000 000000000000000000000000000000000000000     00000000                                                                                                                        000000000000000000
F0010000008894300001000080200962900013050500000000000000000201607250002001ACERO & MALLAS S.A.S.                             D000000009935000000000000000000000100010010000000000000000000000F0010000008894300120160725000101 00000000000000000000000000000000000000000000000000000000000000000000000000000000000000000000000000000000000000000N 00000000000NCONT   00    00000000000          00000000000000000000000000000000000000000000 000000000000000A000000000000000000000000000000000000000000000 000000000000000000000000000000000000000     00000000                                                                                                                        000000000000000000
F0010000008894300002000080200962900041450500000000000000000201607250002001ACERO & MALLAS S.A.S.                             C000000009310000000000000000000000100010010000000000000000000000F0010000008894300220160725000101 00000000000000000000000000000000000000000000000000000000000000000000000000000000000000000000000000000000000000000N 00000000000NCONT   00    00000000000          00000000000000000000000000000000000000000000 000000000000000A000000000000000000000000000000000000000000000 000000000000000000000000000000000000000     00000000                                                                                                                        000000000000000000
F0010000008894300003000080200962900042505000000000000000000201607250002001ACERO & MALLAS S.A.S.                             C000000000625000000000000000000000100010010000000000000000000000F0010000008894300320160725000101 00000000000000000000000000000000000000000000000000000000000000000000000000000000000000000000000000000000000000000N 00000000000NCONT   00    00000000000          00000000000000000000000000000000000000000000 000000000000000A000000000000000000000000000000000000000000000 000000000000000000000000000000000000000     00000000                                                                                                                        000000000000000000
F0010000008894300004000080200962900023658300000000000000000201607250002001ACERO & MALLAS S.A.S.                             C000000000074500000000000000000000100010010000000000000000000000F0010000008894300420160725000101 00000000000000000000000000000000000000000000000000000000000000000000000000000000000000000000000000000000000000000N 00000000000NCONT   00    00000000000          00000000000000000000000000000000000000000000 000000000000000A000000000000000000000000000000000000000000000 000000000000000000000000000000000000000     00000000                                                                                                                        000000000000000000
F0010000008894300005000080200962900013552100000000000000000201607250002001ACERO & MALLAS S.A.S.                             D000000000074500000000000000000000100010010000000000000000000000F0010000008894300520160725000101 00000000000000000000000000000000000000000000000000000000000000000000000000000000000000000000000000000000000000000N 00000000000NCONT   00    00000000000          00000000000000000000000000000000000000000000 000000000000000A000000000000000000000000000000000000000000000 000000000000000000000000000000000000000     00000000                                                                                                                        000000000000000000
F0010000008894400001000000871714900013050500000000000000000201607250002001ROLNAN DE LA ROSA  INSIGNARES                     D000000017534000000000000000000000100010010000000000000000000000F0010000008894400120160725000101 00000000000000000000000000000000000000000000000000000000000000000000000000000000000000000000000000000000000000000N 00000000000NCONT   00    00000000000          00000000000000000000000000000000000000000000 000000000000000A000000000000000000000000000000000000000000000 000000000000000000000000000000000000000     00000000                                                                                                                        000000000000000000
F0010000008894400002000000871714900041450500000000000000000201607250002001ROLNAN DE LA ROSA  INSIGNARES                     C000000014732400000000000000000000100010010000000000000000000000F0010000008894400220160725000101 00000000000000000000000000000000000000000000000000000000000000000000000000000000000000000000000000000000000000000N 00000000000NCONT   00    00000000000          00000000000000000000000000000000000000000000 000000000000000A000000000000000000000000000000000000000000000 000000000000000000000000000000000000000     00000000                                                                                                                        000000000000000000
F0010000008894400003000000871714900042505000000000000000000201607250002001ROLNAN DE LA ROSA  INSIGNARES                     C000000002801600000000000000000000100010010000000000000000000000F0010000008894400320160725000101 00000000000000000000000000000000000000000000000000000000000000000000000000000000000000000000000000000000000000000N 00000000000NCONT   00    00000000000          00000000000000000000000000000000000000000000 000000000000000A000000000000000000000000000000000000000000000 000000000000000000000000000000000000000     00000000                                                                                                                        000000000000000000
F0010000008894400004000000871714900023658300000000000000000201607250002001ROLNAN DE LA ROSA  INSIGNARES                     C000000000117900000000000000000000100010010000000000000000000000F0010000008894400420160725000101 00000000000000000000000000000000000000000000000000000000000000000000000000000000000000000000000000000000000000000N 00000000000NCONT   00    00000000000          00000000000000000000000000000000000000000000 000000000000000A000000000000000000000000000000000000000000000 000000000000000000000000000000000000000     00000000                                                                                                                        000000000000000000
F0010000008894400005000000871714900013552100000000000000000201607250002001ROLNAN DE LA ROSA  INSIGNARES                     D000000000117900000000000000000000100010010000000000000000000000F0010000008894400520160725000101 00000000000000000000000000000000000000000000000000000000000000000000000000000000000000000000000000000000000000000N 00000000000NCONT   00    00000000000          00000000000000000000000000000000000000000000 000000000000000A000000000000000000000000000000000000000000000 000000000000000000000000000000000000000     00000000                                                                                                                        000000000000000000
F0010000008894500001000080002300200013050500000000000000000201607250002001DISREL S.A.                                       D000000033650000000000000000000000100010010000000000000000000000F0010000008894500120160725000101 00000000000000000000000000000000000000000000000000000000000000000000000000000000000000000000000000000000000000000N 00000000000NCONT   00    00000000000          00000000000000000000000000000000000000000000 000000000000000A000000000000000000000000000000000000000000000 000000000000000000000000000000000000000     00000000                                                                                                                        000000000000000000
F0010000008894500002000080002300200041450500000000000000000201607250002001DISREL S.A.                                       C000000027600000000000000000000000100010010000000000000000000000F0010000008894500220160725000101 00000000000000000000000000000000000000000000000000000000000000000000000000000000000000000000000000000000000000000N 00000000000NCONT   00    00000000000          00000000000000000000000000000000000000000000 000000000000000A000000000000000000000000000000000000000000000 000000000000000000000000000000000000000     00000000                                                                                                                        000000000000000000
F0010000008894500003000080002300200042505000000000000000000201607250002001DISREL S.A.                                       C000000006050000000000000000000000100010010000000000000000000000F0010000008894500320160725000101 00000000000000000000000000000000000000000000000000000000000000000000000000000000000000000000000000000000000000000N 00000000000NCONT   00    00000000000          00000000000000000000000000000000000000000000 000000000000000A000000000000000000000000000000000000000000000 000000000000000000000000000000000000000     00000000                                                                                                                        000000000000000000
F0010000008894500004000080002300200023658300000000000000000201607250002001DISREL S.A.                                       C000000000220800000000000000000000100010010000000000000000000000F0010000008894500420160725000101 00000000000000000000000000000000000000000000000000000000000000000000000000000000000000000000000000000000000000000N 00000000000NCONT   00    00000000000          00000000000000000000000000000000000000000000 000000000000000A000000000000000000000000000000000000000000000 000000000000000000000000000000000000000     00000000                                                                                                                        000000000000000000
F0010000008894500005000080002300200013552100000000000000000201607250002001DISREL S.A.                                       D000000000220800000000000000000000100010010000000000000000000000F0010000008894500520160725000101 00000000000000000000000000000000000000000000000000000000000000000000000000000000000000000000000000000000000000000N 00000000000NCONT   00    00000000000          00000000000000000000000000000000000000000000 000000000000000A000000000000000000000000000000000000000000000 000000000000000000000000000000000000000     00000000                                                                                                                        000000000000000000
F0010000008894600001000090009800500013050500000000000000000201607250002001GLORIANT CHEMICAL DE COLOMBIA LTDA                D000000008751000000000000000000000100010010000000000000000000000F0010000008894600120160725000101 00000000000000000000000000000000000000000000000000000000000000000000000000000000000000000000000000000000000000000N 00000000000NCONT   00    00000000000          00000000000000000000000000000000000000000000 000000000000000A000000000000000000000000000000000000000000000 000000000000000000000000000000000000000     00000000                                                                                                                        000000000000000000
F0010000008894600002000090009800500041450500000000000000000201607250002001GLORIANT CHEMICAL DE COLOMBIA LTDA                C000000007140000000000000000000000100010010000000000000000000000F0010000008894600220160725000101 00000000000000000000000000000000000000000000000000000000000000000000000000000000000000000000000000000000000000000N 00000000000NCONT   00    00000000000          00000000000000000000000000000000000000000000 000000000000000A000000000000000000000000000000000000000000000 000000000000000000000000000000000000000     00000000                                                                                                                        000000000000000000
F0010000008894600003000090009800500042505000000000000000000201607250002001GLORIANT CHEMICAL DE COLOMBIA LTDA                C000000001611000000000000000000000100010010000000000000000000000F0010000008894600320160725000101 00000000000000000000000000000000000000000000000000000000000000000000000000000000000000000000000000000000000000000N 00000000000NCONT   00    00000000000          00000000000000000000000000000000000000000000 000000000000000A000000000000000000000000000000000000000000000 000000000000000000000000000000000000000     00000000                                                                                                                        000000000000000000
F0010000008894600004000090009800500023658300000000000000000201607250002001GLORIANT CHEMICAL DE COLOMBIA LTDA                C000000000057100000000000000000000100010010000000000000000000000F0010000008894600420160725000101 00000000000000000000000000000000000000000000000000000000000000000000000000000000000000000000000000000000000000000N 00000000000NCONT   00    00000000000          00000000000000000000000000000000000000000000 000000000000000A000000000000000000000000000000000000000000000 000000000000000000000000000000000000000     00000000                                                                                                                        000000000000000000
F0010000008894600005000090009800500013552100000000000000000201607250002001GLORIANT CHEMICAL DE COLOMBIA LTDA                D000000000057100000000000000000000100010010000000000000000000000F0010000008894600520160725000101 00000000000000000000000000000000000000000000000000000000000000000000000000000000000000000000000000000000000000000N 00000000000NCONT   00    00000000000          00000000000000000000000000000000000000000000 000000000000000A000000000000000000000000000000000000000000000 000000000000000000000000000000000000000     00000000                                                                                                                        000000000000000000
F0010000008894700001000089010526900013050500000000000000000201607250002001DISTRIBUCIONES CANAL Y CIA S.A.S                  D000000005824900000000000000000000100010010000000000000000000000F0010000008894700120160725000101 00000000000000000000000000000000000000000000000000000000000000000000000000000000000000000000000000000000000000000N 00000000000NCONT   00    00000000000          00000000000000000000000000000000000000000000 000000000000000A000000000000000000000000000000000000000000000 000000000000000000000000000000000000000     00000000                                                                                                                        000000000000000000
F0010000008894700002000089010526900041450500000000000000000201607250002001DISTRIBUCIONES CANAL Y CIA S.A.S                  C000000004280000000000000000000000100010010000000000000000000000F0010000008894700220160725000101 00000000000000000000000000000000000000000000000000000000000000000000000000000000000000000000000000000000000000000N 00000000000NCONT   00    00000000000          00000000000000000000000000000000000000000000 000000000000000A000000000000000000000000000000000000000000000 000000000000000000000000000000000000000     00000000                                                                                                                        000000000000000000
F0010000008894700003000089010526900042505000000000000000000201607250002001DISTRIBUCIONES CANAL Y CIA S.A.S                  C000000001544900000000000000000000100010010000000000000000000000F0010000008894700320160725000101 00000000000000000000000000000000000000000000000000000000000000000000000000000000000000000000000000000000000000000N 00000000000NCONT   00    00000000000          00000000000000000000000000000000000000000000 000000000000000A000000000000000000000000000000000000000000000 000000000000000000000000000000000000000     00000000                                                                                                                        000000000000000000
F0010000008894700004000089010526900023658300000000000000000201607250002001DISTRIBUCIONES CANAL Y CIA S.A.S                  C000000000034200000000000000000000100010010000000000000000000000F0010000008894700420160725000101 00000000000000000000000000000000000000000000000000000000000000000000000000000000000000000000000000000000000000000N 00000000000NCONT   00    00000000000          00000000000000000000000000000000000000000000 000000000000000A000000000000000000000000000000000000000000000 000000000000000000000000000000000000000     00000000                                                                                                                        000000000000000000
F0010000008894700005000089010526900013552100000000000000000201607250002001DISTRIBUCIONES CANAL Y CIA S.A.S                  D000000000034200000000000000000000100010010000000000000000000000F0010000008894700520160725000101 00000000000000000000000000000000000000000000000000000000000000000000000000000000000000000000000000000000000000000N 00000000000NCONT   00    00000000000          00000000000000000000000000000000000000000000 000000000000000A000000000000000000000000000000000000000000000 000000000000000000000000000000000000000     00000000                                                                                                                        000000000000000000
F0010000008894800001000090060531100013050500000000000000000201607250002001RECUBRIMIENTOS ESENCIALES SAS                     D000000043812000000000000000000000100010010000000000000000000000F0010000008894800120160725000101 00000000000000000000000000000000000000000000000000000000000000000000000000000000000000000000000000000000000000000N 00000000000NCONT   00    00000000000          00000000000000000000000000000000000000000000 000000000000000A000000000000000000000000000000000000000000000 000000000000000000000000000000000000000     00000000                                                                                                                        000000000000000000
F0010000008894800002000090060531100041450500000000000000000201607250002001RECUBRIMIENTOS ESENCIALES SAS                     C000000039312000000000000000000000100010010000000000000000000000F0010000008894800220160725000101 00000000000000000000000000000000000000000000000000000000000000000000000000000000000000000000000000000000000000000N 00000000000NCONT   00    00000000000          00000000000000000000000000000000000000000000 000000000000000A000000000000000000000000000000000000000000000 000000000000000000000000000000000000000     00000000                                                                                                                        000000000000000000
F0010000008894800003000090060531100042505000000000000000000201607250002001RECUBRIMIENTOS ESENCIALES SAS                     C000000004500000000000000000000000100010010000000000000000000000F0010000008894800320160725000101 00000000000000000000000000000000000000000000000000000000000000000000000000000000000000000000000000000000000000000N 00000000000NCONT   00    00000000000          00000000000000000000000000000000000000000000 000000000000000A000000000000000000000000000000000000000000000 000000000000000000000000000000000000000     00000000                                                                                                                        000000000000000000
F0010000008894800004000090060531100023658300000000000000000201607250002001RECUBRIMIENTOS ESENCIALES SAS                     C000000000314500000000000000000000100010010000000000000000000000F0010000008894800420160725000101 00000000000000000000000000000000000000000000000000000000000000000000000000000000000000000000000000000000000000000N 00000000000NCONT   00    00000000000          00000000000000000000000000000000000000000000 000000000000000A000000000000000000000000000000000000000000000 000000000000000000000000000000000000000     00000000                                                                                                                        000000000000000000
F0010000008894800005000090060531100013552100000000000000000201607250002001RECUBRIMIENTOS ESENCIALES SAS                     D000000000314500000000000000000000100010010000000000000000000000F0010000008894800520160725000101 00000000000000000000000000000000000000000000000000000000000000000000000000000000000000000000000000000000000000000N 00000000000NCONT   00    00000000000          00000000000000000000000000000000000000000000 000000000000000A000000000000000000000000000000000000000000000 000000000000000000000000000000000000000     00000000                                                                                                                        000000000000000000
F0010000008895000001000089011492400013050500000000000000000201607250002001AGE. CAUCHO SOL DE LA COSTA  SAS                  D000000061284300000000000000000000100010010000000000000000000000F0010000008895000120160725000101 00000000000000000000000000000000000000000000000000000000000000000000000000000000000000000000000000000000000000000N 00000000000NCONT   00    00000000000          00000000000000000000000000000000000000000000 000000000000000A000000000000000000000000000000000000000000000 000000000000000000000000000000000000000     00000000                                                                                                                        000000000000000000
F0010000008895000002000089011492400041450500000000000000000201607250002001AGE. CAUCHO SOL DE LA COSTA  SAS                  C000000028920000000000000000000000100010010000000000000000000000F0010000008895000220160725000101 00000000000000000000000000000000000000000000000000000000000000000000000000000000000000000000000000000000000000000N 00000000000NCONT   00    00000000000          00000000000000000000000000000000000000000000 000000000000000A000000000000000000000000000000000000000000000 000000000000000000000000000000000000000     00000000                                                                                                                        000000000000000000
F0010000008895000003000089011492400042505000000000000000000201607250002001AGE. CAUCHO SOL DE LA COSTA  SAS                  C000000032364300000000000000000000100010010000000000000000000000F0010000008895000320160725000101 00000000000000000000000000000000000000000000000000000000000000000000000000000000000000000000000000000000000000000N 00000000000NCONT   00    00000000000          00000000000000000000000000000000000000000000 000000000000000A000000000000000000000000000000000000000000000 000000000000000000000000000000000000000     00000000                                                                                                                        000000000000000000
F0010000008895000004000089011492400023658300000000000000000201607250002001AGE. CAUCHO SOL DE LA COSTA  SAS                  C000000000231400000000000000000000100010010000000000000000000000F0010000008895000420160725000101 00000000000000000000000000000000000000000000000000000000000000000000000000000000000000000000000000000000000000000N 00000000000NCONT   00    00000000000          00000000000000000000000000000000000000000000 000000000000000A000000000000000000000000000000000000000000000 000000000000000000000000000000000000000     00000000                                                                                                                        000000000000000000
F0010000008895000005000089011492400013552100000000000000000201607250002001AGE. CAUCHO SOL DE LA COSTA  SAS                  D000000000231400000000000000000000100010010000000000000000000000F0010000008895000520160725000101 00000000000000000000000000000000000000000000000000000000000000000000000000000000000000000000000000000000000000000N 00000000000NCONT   00    00000000000          00000000000000000000000000000000000000000000 000000000000000A000000000000000000000000000000000000000000000 000000000000000000000000000000000000000     00000000                                                                                                                        000000000000000000
F0010000008895100001000080200863700013050500000000000000000201607250002001COPIN S.A.S                                       D000000082291500000000000000000000100010010000000000000000000000F0010000008895100120160725000101 00000000000000000000000000000000000000000000000000000000000000000000000000000000000000000000000000000000000000000N 00000000000NCONT   00    00000000000          00000000000000000000000000000000000000000000 000000000000000A000000000000000000000000000000000000000000000 000000000000000000000000000000000000000     00000000                                                                                                                        000000000000000000
F0010000008895100002000080200863700041450500000000000000000201607250002001COPIN S.A.S                                       C000000073996000000000000000000000100010010000000000000000000000F0010000008895100220160725000101 00000000000000000000000000000000000000000000000000000000000000000000000000000000000000000000000000000000000000000N 00000000000NCONT   00    00000000000          00000000000000000000000000000000000000000000 000000000000000A000000000000000000000000000000000000000000000 000000000000000000000000000000000000000     00000000                                                                                                                        000000000000000000
F0010000008895100003000080200863700042505000000000000000000201607250002001COPIN S.A.S                                       C000000008295500000000000000000000100010010000000000000000000000F0010000008895100320160725000101 00000000000000000000000000000000000000000000000000000000000000000000000000000000000000000000000000000000000000000N 00000000000NCONT   00    00000000000          00000000000000000000000000000000000000000000 000000000000000A000000000000000000000000000000000000000000000 000000000000000000000000000000000000000     00000000                                                                                                                        000000000000000000
F0010000008895100004000080200863700023658300000000000000000201607250002001COPIN S.A.S                                       C000000000592000000000000000000000100010010000000000000000000000F0010000008895100420160725000101 00000000000000000000000000000000000000000000000000000000000000000000000000000000000000000000000000000000000000000N 00000000000NCONT   00    00000000000          00000000000000000000000000000000000000000000 000000000000000A000000000000000000000000000000000000000000000 000000000000000000000000000000000000000     00000000                                                                                                                        000000000000000000
F0010000008895100005000080200863700013552100000000000000000201607250002001COPIN S.A.S                                       D000000000592000000000000000000000100010010000000000000000000000F0010000008895100520160725000101 00000000000000000000000000000000000000000000000000000000000000000000000000000000000000000000000000000000000000000N 00000000000NCONT   00    00000000000          00000000000000000000000000000000000000000000 000000000000000A000000000000000000000000000000000000000000000 000000000000000000000000000000000000000     00000000                                                                                                                        000000000000000000
F0010000008895200001000090008711200013050500000000000000000201607250002001PACKAGING SUPPLIERS S.A.                          D000000056916000000000000000000000100010010000000000000000000000F0010000008895200120160725000101 00000000000000000000000000000000000000000000000000000000000000000000000000000000000000000000000000000000000000000N 00000000000NCONT   00    00000000000          00000000000000000000000000000000000000000000 000000000000000A000000000000000000000000000000000000000000000 000000000000000000000000000000000000000     00000000                                                                                                                        000000000000000000
F0010000008895200002000090008711200041450500000000000000000201607250002001PACKAGING SUPPLIERS S.A.                          C000000051375000000000000000000000100010010000000000000000000000F0010000008895200220160725000101 00000000000000000000000000000000000000000000000000000000000000000000000000000000000000000000000000000000000000000N 00000000000NCONT   00    00000000000          00000000000000000000000000000000000000000000 000000000000000A000000000000000000000000000000000000000000000 000000000000000000000000000000000000000     00000000                                                                                                                        000000000000000000
F0010000008895200003000090008711200042505000000000000000000201607250002001PACKAGING SUPPLIERS S.A.                          C000000005541000000000000000000000100010010000000000000000000000F0010000008895200320160725000101 00000000000000000000000000000000000000000000000000000000000000000000000000000000000000000000000000000000000000000N 00000000000NCONT   00    00000000000          00000000000000000000000000000000000000000000 000000000000000A000000000000000000000000000000000000000000000 000000000000000000000000000000000000000     00000000                                                                                                                        000000000000000000
F0010000008895200004000090008711200023658300000000000000000201607250002001PACKAGING SUPPLIERS S.A.                          C000000000411000000000000000000000100010010000000000000000000000F0010000008895200420160725000101 00000000000000000000000000000000000000000000000000000000000000000000000000000000000000000000000000000000000000000N 00000000000NCONT   00    00000000000          00000000000000000000000000000000000000000000 000000000000000A000000000000000000000000000000000000000000000 000000000000000000000000000000000000000     00000000                                                                                                                        000000000000000000
F0010000008895200005000090008711200013552100000000000000000201607250002001PACKAGING SUPPLIERS S.A.                          D000000000411000000000000000000000100010010000000000000000000000F0010000008895200520160725000101 00000000000000000000000000000000000000000000000000000000000000000000000000000000000000000000000000000000000000000N 00000000000NCONT   00    00000000000          00000000000000000000000000000000000000000000 000000000000000A000000000000000000000000000000000000000000000 000000000000000000000000000000000000000     00000000                                                                                                                        000000000000000000
F0010000008895300001000083008772100011050500000000000000000201607250002001ILUMEC SAS                                        D000000001010000000000000000000000100010010000000000000000000000F0010000008895300120160725000101 00000000000000000000000000000000000000000000000000000000000000000000000000000000000000000000000000000000000000000N 00000000000NCONT   00    00000000000          00000000000000000000000000000000000000000000 000000000000000A000000000000000000000000000000000000000000000 000000000000000000000000000000000000000     00000000                                                                                                                        000000000000000000
F0010000008895300002000083008772100041450500000000000000000201607250002001ILUMEC SAS                                        C000000000810000000000000000000000100010010000000000000000000000F0010000008895300220160725000101 00000000000000000000000000000000000000000000000000000000000000000000000000000000000000000000000000000000000000000N 00000000000NCONT   00    00000000000          00000000000000000000000000000000000000000000 000000000000000A000000000000000000000000000000000000000000000 000000000000000000000000000000000000000     00000000                                                                                                                        000000000000000000
F0010000008895300003000083008772100042505000000000000000000201607250002001ILUMEC SAS                                        C000000000200000000000000000000000100010010000000000000000000000F0010000008895300320160725000101 00000000000000000000000000000000000000000000000000000000000000000000000000000000000000000000000000000000000000000N 00000000000NCONT   00    00000000000          00000000000000000000000000000000000000000000 000000000000000A000000000000000000000000000000000000000000000 000000000000000000000000000000000000000     00000000                                                                                                                        000000000000000000
F0010000008895300004000083008772100023658300000000000000000201607250002001ILUMEC SAS                                        C000000000006500000000000000000000100010010000000000000000000000F0010000008895300420160725000101 00000000000000000000000000000000000000000000000000000000000000000000000000000000000000000000000000000000000000000N 00000000000NCONT   00    00000000000          00000000000000000000000000000000000000000000 000000000000000A000000000000000000000000000000000000000000000 000000000000000000000000000000000000000     00000000                                                                                                                        000000000000000000
F0010000008895300005000083008772100013552100000000000000000201607250002001ILUMEC SAS                                        D000000000006500000000000000000000100010010000000000000000000000F0010000008895300520160725000101 00000000000000000000000000000000000000000000000000000000000000000000000000000000000000000000000000000000000000000N 00000000000NCONT   00    00000000000          00000000000000000000000000000000000000000000 000000000000000A000000000000000000000000000000000000000000000 000000000000000000000000000000000000000     00000000                                                                                                                        000000000000000000
F0010000008895400001000090050144800011050500000000000000000201607250002001PLASTICOS JR ASOCIADOS SAS                        D000000001100000000000000000000000100010010000000000000000000000F0010000008895400120160725000101 00000000000000000000000000000000000000000000000000000000000000000000000000000000000000000000000000000000000000000N 00000000000NCONT   00    00000000000          00000000000000000000000000000000000000000000 000000000000000A000000000000000000000000000000000000000000000 000000000000000000000000000000000000000     00000000                                                                                                                        000000000000000000
F0010000008895400002000090050144800041450500000000000000000201607250002001PLASTICOS JR ASOCIADOS SAS                        C000000001000000000000000000000000100010010000000000000000000000F0010000008895400220160725000101 00000000000000000000000000000000000000000000000000000000000000000000000000000000000000000000000000000000000000000N 00000000000NCONT   00    00000000000          00000000000000000000000000000000000000000000 000000000000000A000000000000000000000000000000000000000000000 000000000000000000000000000000000000000     00000000                                                                                                                        000000000000000000
F0010000008895400003000090050144800042505000000000000000000201607250002001PLASTICOS JR ASOCIADOS SAS                        C000000000100000000000000000000000100010010000000000000000000000F0010000008895400320160725000101 00000000000000000000000000000000000000000000000000000000000000000000000000000000000000000000000000000000000000000N 00000000000NCONT   00    00000000000          00000000000000000000000000000000000000000000 000000000000000A000000000000000000000000000000000000000000000 000000000000000000000000000000000000000     00000000                                                                                                                        000000000000000000
F0010000008895400004000090050144800023658300000000000000000201607250002001PLASTICOS JR ASOCIADOS SAS                        C000000000008000000000000000000000100010010000000000000000000000F0010000008895400420160725000101 00000000000000000000000000000000000000000000000000000000000000000000000000000000000000000000000000000000000000000N 00000000000NCONT   00    00000000000          00000000000000000000000000000000000000000000 000000000000000A000000000000000000000000000000000000000000000 000000000000000000000000000000000000000     00000000                                                                                                                        000000000000000000
F0010000008895400005000090050144800013552100000000000000000201607250002001PLASTICOS JR ASOCIADOS SAS                        D000000000008000000000000000000000100010010000000000000000000000F0010000008895400520160725000101 00000000000000000000000000000000000000000000000000000000000000000000000000000000000000000000000000000000000000000N 00000000000NCONT   00    00000000000          00000000000000000000000000000000000000000000 000000000000000A000000000000000000000000000000000000000000000 000000000000000000000000000000000000000     00000000                                                                                                                        000000000000000000
F0010000008895500001000080023327700011050500000000000000000201607250002001DISINCO LTDA                                      D000000003972000000000000000000000100010010000000000000000000000F0010000008895500120160725000101 00000000000000000000000000000000000000000000000000000000000000000000000000000000000000000000000000000000000000000N 00000000000NCONT   00    00000000000          00000000000000000000000000000000000000000000 000000000000000A000000000000000000000000000000000000000000000 000000000000000000000000000000000000000     00000000                                                                                                                        000000000000000000
F0010000008895500002000080023327700041450500000000000000000201607250002001DISINCO LTDA                                      C000000003872000000000000000000000100010010000000000000000000000F0010000008895500220160725000101 00000000000000000000000000000000000000000000000000000000000000000000000000000000000000000000000000000000000000000N 00000000000NCONT   00    00000000000          00000000000000000000000000000000000000000000 000000000000000A000000000000000000000000000000000000000000000 000000000000000000000000000000000000000     00000000                                                                                                                        000000000000000000
F0010000008895500003000080023327700042505000000000000000000201607250002001DISINCO LTDA                                      C000000000100000000000000000000000100010010000000000000000000000F0010000008895500320160725000101 00000000000000000000000000000000000000000000000000000000000000000000000000000000000000000000000000000000000000000N 00000000000NCONT   00    00000000000          00000000000000000000000000000000000000000000 000000000000000A000000000000000000000000000000000000000000000 000000000000000000000000000000000000000     00000000                                                                                                                        000000000000000000
F0010000008895500004000080023327700023658300000000000000000201607250002001DISINCO LTDA                                      C000000000031000000000000000000000100010010000000000000000000000F0010000008895500420160725000101 00000000000000000000000000000000000000000000000000000000000000000000000000000000000000000000000000000000000000000N 00000000000NCONT   00    00000000000          00000000000000000000000000000000000000000000 000000000000000A000000000000000000000000000000000000000000000 000000000000000000000000000000000000000     00000000                                                                                                                        000000000000000000
F0010000008895500005000080023327700013552100000000000000000201607250002001DISINCO LTDA                                      D000000000031000000000000000000000100010010000000000000000000000F0010000008895500520160725000101 00000000000000000000000000000000000000000000000000000000000000000000000000000000000000000000000000000000000000000N 00000000000NCONT   00    00000000000          00000000000000000000000000000000000000000000 000000000000000A000000000000000000000000000000000000000000000 000000000000000000000000000000000000000     00000000                                                                                                                        000000000000000000
F0010000008895600001000007229328500011050500000000000000000201607250002001PV ELECTRIC   DEL CARIBE                          D000000018900000000000000000000000100010010000000000000000000000F0010000008895600120160725000101 00000000000000000000000000000000000000000000000000000000000000000000000000000000000000000000000000000000000000000N 00000000000NCONT   00    00000000000          00000000000000000000000000000000000000000000 000000000000000A000000000000000000000000000000000000000000000 000000000000000000000000000000000000000     00000000                                                                                                                        000000000000000000
F0010000008895600002000007229328500041450500000000000000000201607250002001PV ELECTRIC   DEL CARIBE                          C000000017100000000000000000000000100010010000000000000000000000F0010000008895600220160725000101 00000000000000000000000000000000000000000000000000000000000000000000000000000000000000000000000000000000000000000N 00000000000NCONT   00    00000000000          00000000000000000000000000000000000000000000 000000000000000A000000000000000000000000000000000000000000000 000000000000000000000000000000000000000     00000000                                                                                                                        000000000000000000
F0010000008895600003000007229328500042505000000000000000000201607250002001PV ELECTRIC   DEL CARIBE                          C000000001800000000000000000000000100010010000000000000000000000F0010000008895600320160725000101 00000000000000000000000000000000000000000000000000000000000000000000000000000000000000000000000000000000000000000N 00000000000NCONT   00    00000000000          00000000000000000000000000000000000000000000 000000000000000A000000000000000000000000000000000000000000000 000000000000000000000000000000000000000     00000000                                                                                                                        000000000000000000
F0010000008895600004000007229328500023658300000000000000000201607250002001PV ELECTRIC   DEL CARIBE                          C000000000136800000000000000000000100010010000000000000000000000F0010000008895600420160725000101 00000000000000000000000000000000000000000000000000000000000000000000000000000000000000000000000000000000000000000N 00000000000NCONT   00    00000000000          00000000000000000000000000000000000000000000 000000000000000A000000000000000000000000000000000000000000000 000000000000000000000000000000000000000     00000000                                                                                                                        000000000000000000
F0010000008895600005000007229328500013552100000000000000000201607250002001PV ELECTRIC   DEL CARIBE                          D000000000136800000000000000000000100010010000000000000000000000F0010000008895600520160725000101 00000000000000000000000000000000000000000000000000000000000000000000000000000000000000000000000000000000000000000N 00000000000NCONT   00    00000000000          00000000000000000000000000000000000000000000 000000000000000A000000000000000000000000000000000000000000000 000000000000000000000000000000000000000     00000000                                                                                                                        000000000000000000
F0010000008895700001000007229328500011050500000000000000000201607250002001PV ELECTRIC   DEL CARIBE                          D000000011100000000000000000000000100010010000000000000000000000F0010000008895700120160725000101 00000000000000000000000000000000000000000000000000000000000000000000000000000000000000000000000000000000000000000N 00000000000NCONT   00    00000000000          00000000000000000000000000000000000000000000 000000000000000A000000000000000000000000000000000000000000000 000000000000000000000000000000000000000     00000000                                                                                                                        000000000000000000
F0010000008895700002000007229328500041450500000000000000000201607250002001PV ELECTRIC   DEL CARIBE                          C000000009900000000000000000000000100010010000000000000000000000F0010000008895700220160725000101 00000000000000000000000000000000000000000000000000000000000000000000000000000000000000000000000000000000000000000N 00000000000NCONT   00    00000000000          00000000000000000000000000000000000000000000 000000000000000A000000000000000000000000000000000000000000000 000000000000000000000000000000000000000     00000000                                                                                                                        000000000000000000
F0010000008895700003000007229328500042505000000000000000000201607250002001PV ELECTRIC   DEL CARIBE                          C000000001200000000000000000000000100010010000000000000000000000F0010000008895700320160725000101 00000000000000000000000000000000000000000000000000000000000000000000000000000000000000000000000000000000000000000N 00000000000NCONT   00    00000000000          00000000000000000000000000000000000000000000 000000000000000A000000000000000000000000000000000000000000000 000000000000000000000000000000000000000     00000000                                                                                                                        000000000000000000
F0010000008895700004000007229328500023658300000000000000000201607250002001PV ELECTRIC   DEL CARIBE                          C000000000079200000000000000000000100010010000000000000000000000F0010000008895700420160725000101 00000000000000000000000000000000000000000000000000000000000000000000000000000000000000000000000000000000000000000N 00000000000NCONT   00    00000000000          00000000000000000000000000000000000000000000 000000000000000A000000000000000000000000000000000000000000000 000000000000000000000000000000000000000     00000000                                                                                                                        000000000000000000
F0010000008895700005000007229328500013552100000000000000000201607250002001PV ELECTRIC   DEL CARIBE                          D000000000079200000000000000000000100010010000000000000000000000F0010000008895700520160725000101 00000000000000000000000000000000000000000000000000000000000000000000000000000000000000000000000000000000000000000N 00000000000NCONT   00    00000000000          00000000000000000000000000000000000000000000 000000000000000A000000000000000000000000000000000000000000000 000000000000000000000000000000000000000     00000000                                                                                                                        000000000000000000
F0010000008895800001000007229328500011050500000000000000000201607250002001PV ELECTRIC   DEL CARIBE                          D000000003000000000000000000000000100010010000000000000000000000F0010000008895800120160725000101 00000000000000000000000000000000000000000000000000000000000000000000000000000000000000000000000000000000000000000N 00000000000NCONT   00    00000000000          00000000000000000000000000000000000000000000 000000000000000A000000000000000000000000000000000000000000000 000000000000000000000000000000000000000     00000000                                                                                                                        000000000000000000
F0010000008895800002000007229328500041450500000000000000000201607250002001PV ELECTRIC   DEL CARIBE                          C000000002700000000000000000000000100010010000000000000000000000F0010000008895800220160725000101 00000000000000000000000000000000000000000000000000000000000000000000000000000000000000000000000000000000000000000N 00000000000NCONT   00    00000000000          00000000000000000000000000000000000000000000 000000000000000A000000000000000000000000000000000000000000000 000000000000000000000000000000000000000     00000000                                                                                                                        000000000000000000
F0010000008895800003000007229328500042505000000000000000000201607250002001PV ELECTRIC   DEL CARIBE                          C000000000300000000000000000000000100010010000000000000000000000F0010000008895800320160725000101 00000000000000000000000000000000000000000000000000000000000000000000000000000000000000000000000000000000000000000N 00000000000NCONT   00    00000000000          00000000000000000000000000000000000000000000 000000000000000A000000000000000000000000000000000000000000000 000000000000000000000000000000000000000     00000000                                                                                                                        000000000000000000
F0010000008895800004000007229328500023658300000000000000000201607250002001PV ELECTRIC   DEL CARIBE                          C000000000021600000000000000000000100010010000000000000000000000F0010000008895800420160725000101 00000000000000000000000000000000000000000000000000000000000000000000000000000000000000000000000000000000000000000N 00000000000NCONT   00    00000000000          00000000000000000000000000000000000000000000 000000000000000A000000000000000000000000000000000000000000000 000000000000000000000000000000000000000     00000000                                                                                                                        000000000000000000
F0010000008895800005000007229328500013552100000000000000000201607250002001PV ELECTRIC   DEL CARIBE                          D000000000021600000000000000000000100010010000000000000000000000F0010000008895800520160725000101 00000000000000000000000000000000000000000000000000000000000000000000000000000000000000000000000000000000000000000N 00000000000NCONT   00    00000000000          00000000000000000000000000000000000000000000 000000000000000A000000000000000000000000000000000000000000000 000000000000000000000000000000000000000     00000000                                                                                                                        000000000000000000
F0010000008895900001000007229328500011050500000000000000000201607250002001PV ELECTRIC   DEL CARIBE                          D000000004100000000000000000000000100010010000000000000000000000F0010000008895900120160725000101 00000000000000000000000000000000000000000000000000000000000000000000000000000000000000000000000000000000000000000N 00000000000NCONT   00    00000000000          00000000000000000000000000000000000000000000 000000000000000A000000000000000000000000000000000000000000000 000000000000000000000000000000000000000     00000000                                                                                                                        000000000000000000
F0010000008895900002000007229328500041450500000000000000000201607250002001PV ELECTRIC   DEL CARIBE                          C000000003600000000000000000000000100010010000000000000000000000F0010000008895900220160725000101 00000000000000000000000000000000000000000000000000000000000000000000000000000000000000000000000000000000000000000N 00000000000NCONT   00    00000000000          00000000000000000000000000000000000000000000 000000000000000A000000000000000000000000000000000000000000000 000000000000000000000000000000000000000     00000000                                                                                                                        000000000000000000
F0010000008895900003000007229328500042505000000000000000000201607250002001PV ELECTRIC   DEL CARIBE                          C000000000500000000000000000000000100010010000000000000000000000F0010000008895900320160725000101 00000000000000000000000000000000000000000000000000000000000000000000000000000000000000000000000000000000000000000N 00000000000NCONT   00    00000000000          00000000000000000000000000000000000000000000 000000000000000A000000000000000000000000000000000000000000000 000000000000000000000000000000000000000     00000000                                                                                                                        000000000000000000
F0010000008895900004000007229328500023658300000000000000000201607250002001PV ELECTRIC   DEL CARIBE                          C000000000028800000000000000000000100010010000000000000000000000F0010000008895900420160725000101 00000000000000000000000000000000000000000000000000000000000000000000000000000000000000000000000000000000000000000N 00000000000NCONT   00    00000000000          00000000000000000000000000000000000000000000 000000000000000A000000000000000000000000000000000000000000000 000000000000000000000000000000000000000     00000000                                                                                                                        000000000000000000
F0010000008895900005000007229328500013552100000000000000000201607250002001PV ELECTRIC   DEL CARIBE                          D000000000028800000000000000000000100010010000000000000000000000F0010000008895900520160725000101 00000000000000000000000000000000000000000000000000000000000000000000000000000000000000000000000000000000000000000N 00000000000NCONT   00    00000000000          00000000000000000000000000000000000000000000 000000000000000A000000000000000000000000000000000000000000000 000000000000000000000000000000000000000     00000000                                                                                                                        000000000000000000
F0010000008896000001000003918375500011050500000000000000000201607250002001GLORIA PEREZ R.                                   D000000003000000000000000000000000100010010000000000000000000000F0010000008896000120160725000101 00000000000000000000000000000000000000000000000000000000000000000000000000000000000000000000000000000000000000000N 00000000000NCONT   00    00000000000          00000000000000000000000000000000000000000000 000000000000000A000000000000000000000000000000000000000000000 000000000000000000000000000000000000000     00000000                                                                                                                        000000000000000000
F0010000008896000002000003918375500041450500000000000000000201607250002001GLORIA PEREZ R.                                   C000000001000000000000000000000000100010010000000000000000000000F0010000008896000220160725000101 00000000000000000000000000000000000000000000000000000000000000000000000000000000000000000000000000000000000000000N 00000000000NCONT   00    00000000000          00000000000000000000000000000000000000000000 000000000000000A000000000000000000000000000000000000000000000 000000000000000000000000000000000000000     00000000                                                                                                                        000000000000000000
F0010000008896000003000003918375500042505000000000000000000201607250002001GLORIA PEREZ R.                                   C000000002000000000000000000000000100010010000000000000000000000F0010000008896000320160725000101 00000000000000000000000000000000000000000000000000000000000000000000000000000000000000000000000000000000000000000N 00000000000NCONT   00    00000000000          00000000000000000000000000000000000000000000 000000000000000A000000000000000000000000000000000000000000000 000000000000000000000000000000000000000     00000000                                                                                                                        000000000000000000
F0010000008896000004000003918375500023658300000000000000000201607250002001GLORIA PEREZ R.                                   C000000000008000000000000000000000100010010000000000000000000000F0010000008896000420160725000101 00000000000000000000000000000000000000000000000000000000000000000000000000000000000000000000000000000000000000000N 00000000000NCONT   00    00000000000          00000000000000000000000000000000000000000000 000000000000000A000000000000000000000000000000000000000000000 000000000000000000000000000000000000000     00000000                                                                                                                        000000000000000000
F0010000008896000005000003918375500013552100000000000000000201607250002001GLORIA PEREZ R.                                   D000000000008000000000000000000000100010010000000000000000000000F0010000008896000520160725000101 00000000000000000000000000000000000000000000000000000000000000000000000000000000000000000000000000000000000000000N 00000000000NCONT   00    00000000000          00000000000000000000000000000000000000000000 000000000000000A000000000000000000000000000000000000000000000 000000000000000000000000000000000000000     00000000                                                                                                                        000000000000000000
F0010000008896100001000003918375500011050500000000000000000201607250002001GLORIA PEREZ R.                                   D000000001500000000000000000000000100010010000000000000000000000F0010000008896100120160725000101 00000000000000000000000000000000000000000000000000000000000000000000000000000000000000000000000000000000000000000N 00000000000NCONT   00    00000000000          00000000000000000000000000000000000000000000 000000000000000A000000000000000000000000000000000000000000000 000000000000000000000000000000000000000     00000000                                                                                                                        000000000000000000
F0010000008896100002000003918375500041450500000000000000000201607250002001GLORIA PEREZ R.                                   C000000001000000000000000000000000100010010000000000000000000000F0010000008896100220160725000101 00000000000000000000000000000000000000000000000000000000000000000000000000000000000000000000000000000000000000000N 00000000000NCONT   00    00000000000          00000000000000000000000000000000000000000000 000000000000000A000000000000000000000000000000000000000000000 000000000000000000000000000000000000000     00000000                                                                                                                        000000000000000000
F0010000008896100003000003918375500042505000000000000000000201607250002001GLORIA PEREZ R.                                   C000000000500000000000000000000000100010010000000000000000000000F0010000008896100320160725000101 00000000000000000000000000000000000000000000000000000000000000000000000000000000000000000000000000000000000000000N 00000000000NCONT   00    00000000000          00000000000000000000000000000000000000000000 000000000000000A000000000000000000000000000000000000000000000 000000000000000000000000000000000000000     00000000                                                                                                                        000000000000000000
F0010000008896100004000003918375500023658300000000000000000201607250002001GLORIA PEREZ R.                                   C000000000008000000000000000000000100010010000000000000000000000F0010000008896100420160725000101 00000000000000000000000000000000000000000000000000000000000000000000000000000000000000000000000000000000000000000N 00000000000NCONT   00    00000000000          00000000000000000000000000000000000000000000 000000000000000A000000000000000000000000000000000000000000000 000000000000000000000000000000000000000     00000000                                                                                                                        000000000000000000
F0010000008896100005000003918375500013552100000000000000000201607250002001GLORIA PEREZ R.                                   D000000000008000000000000000000000100010010000000000000000000000F0010000008896100520160725000101 00000000000000000000000000000000000000000000000000000000000000000000000000000000000000000000000000000000000000000N 00000000000NCONT   00    00000000000          00000000000000000000000000000000000000000000 000000000000000A000000000000000000000000000000000000000000000 000000000000000000000000000000000000000     00000000                                                                                                                        000000000000000000
F0010000008896200001000003918375500011050500000000000000000201607250002001GLORIA PEREZ R.                                   D000000001700000000000000000000000100010010000000000000000000000F0010000008896200120160725000101 00000000000000000000000000000000000000000000000000000000000000000000000000000000000000000000000000000000000000000N 00000000000NCONT   00    00000000000          00000000000000000000000000000000000000000000 000000000000000A000000000000000000000000000000000000000000000 000000000000000000000000000000000000000     00000000                                                                                                                        000000000000000000
F0010000008896200002000003918375500041450500000000000000000201607250002001GLORIA PEREZ R.                                   C000000001000000000000000000000000100010010000000000000000000000F0010000008896200220160725000101 00000000000000000000000000000000000000000000000000000000000000000000000000000000000000000000000000000000000000000N 00000000000NCONT   00    00000000000          00000000000000000000000000000000000000000000 000000000000000A000000000000000000000000000000000000000000000 000000000000000000000000000000000000000     00000000                                                                                                                        000000000000000000
F0010000008896200003000003918375500042505000000000000000000201607250002001GLORIA PEREZ R.                                   C000000000700000000000000000000000100010010000000000000000000000F0010000008896200320160725000101 00000000000000000000000000000000000000000000000000000000000000000000000000000000000000000000000000000000000000000N 00000000000NCONT   00    00000000000          00000000000000000000000000000000000000000000 000000000000000A000000000000000000000000000000000000000000000 000000000000000000000000000000000000000     00000000                                                                                                                        000000000000000000
F0010000008896200004000003918375500023658300000000000000000201607250002001GLORIA PEREZ R.                                   C000000000008000000000000000000000100010010000000000000000000000F0010000008896200420160725000101 00000000000000000000000000000000000000000000000000000000000000000000000000000000000000000000000000000000000000000N 00000000000NCONT   00    00000000000          00000000000000000000000000000000000000000000 000000000000000A000000000000000000000000000000000000000000000 000000000000000000000000000000000000000     00000000                                                                                                                        000000000000000000
F0010000008896200005000003918375500013552100000000000000000201607250002001GLORIA PEREZ R.                                   D000000000008000000000000000000000100010010000000000000000000000F0010000008896200520160725000101 00000000000000000000000000000000000000000000000000000000000000000000000000000000000000000000000000000000000000000N 00000000000NCONT   00    00000000000          00000000000000000000000000000000000000000000 000000000000000A000000000000000000000000000000000000000000000 000000000000000000000000000000000000000     00000000                                                                                                                        000000000000000000
F0010000008896300001000000084247000011050500000000000000000201607250002001LABORATORIO MEDIFAR LTDA                          D000000001500000000000000000000000100010010000000000000000000000F0010000008896300120160725000101 00000000000000000000000000000000000000000000000000000000000000000000000000000000000000000000000000000000000000000N 00000000000NCONT   00    00000000000          00000000000000000000000000000000000000000000 000000000000000A000000000000000000000000000000000000000000000 000000000000000000000000000000000000000     00000000                                                                                                                        000000000000000000
F0010000008896300002000000084247000041450500000000000000000201607250002001LABORATORIO MEDIFAR LTDA                          C000000001300000000000000000000000100010010000000000000000000000F0010000008896300220160725000101 00000000000000000000000000000000000000000000000000000000000000000000000000000000000000000000000000000000000000000N 00000000000NCONT   00    00000000000          00000000000000000000000000000000000000000000 000000000000000A000000000000000000000000000000000000000000000 000000000000000000000000000000000000000     00000000                                                                                                                        000000000000000000
