F0010000009346200001000000872328300011050500000000000000000201610310002001DISTRIBUCIONES LAO                                D000000003000000000000000000000000100010010000000000000000000000F0010000009346200120161031000101 00000000000000000000000000000000000000000000000000000000000000000000000000000000000000000000000000000000000000000N 00000000000NCONT   00    00000000000          00000000000000000000000000000000000000000000 000000000000000A000000000000000000000000000000000000000000000 000000000000000000000000000000000000000     00000000                                                                                                                        000000000000000000
F0010000009346200002000000872328300041450500000000000000000201610310002001DISTRIBUCIONES LAO                                C000000002000000000000000000000000100010010000000000000000000000F0010000009346200220161031000101 00000000000000000000000000000000000000000000000000000000000000000000000000000000000000000000000000000000000000000N 00000000000NCONT   00    00000000000          00000000000000000000000000000000000000000000 000000000000000A000000000000000000000000000000000000000000000 000000000000000000000000000000000000000     00000000                                                                                                                        000000000000000000
F0010000009346200003000000872328300042505000000000000000000201610310002001DISTRIBUCIONES LAO                                C000000001000000000000000000000000100010010000000000000000000000F0010000009346200320161031000101 00000000000000000000000000000000000000000000000000000000000000000000000000000000000000000000000000000000000000000N 00000000000NCONT   00    00000000000          00000000000000000000000000000000000000000000 000000000000000A000000000000000000000000000000000000000000000 000000000000000000000000000000000000000     00000000                                                                                                                        000000000000000000
F0010000009346200004000000872328300023658300000000000000000201610310002001DISTRIBUCIONES LAO                                C000000000016000000000000000000000100010010000000000000000000000F0010000009346200420161031000101 00000000000000000000000000000000000000000000000000000000000000000000000000000000000000000000000000000000000000000N 00000000000NCONT   00    00000000000          00000000000000000000000000000000000000000000 000000000000000A000000000000000000000000000000000000000000000 000000000000000000000000000000000000000     00000000                                                                                                                        000000000000000000
F0010000009346200005000000872328300013552100000000000000000201610310002001DISTRIBUCIONES LAO                                D000000000016000000000000000000000100010010000000000000000000000F0010000009346200520161031000101 00000000000000000000000000000000000000000000000000000000000000000000000000000000000000000000000000000000000000000N 00000000000NCONT   00    00000000000          00000000000000000000000000000000000000000000 000000000000000A000000000000000000000000000000000000000000000 000000000000000000000000000000000000000     00000000                                                                                                                        000000000000000000
