F0010000007747800001000002252363900011050500000000000000000201510140002001GLADYS DONADO RODRIGUEZ                           D000000001000000000000000000000000100010010000000000000000000000F0010000007747800120151014000101 00000000000000000000000000000000000000000000000000000000000000000000000000000000000000000000000000000000000000000N 00000000000NCONT   00    00000000000          00000000000000000000000000000000000000000000 000000000000000A000000000000000000000000000000000000000000000 000000000000000000000000000000000000000     00000000                                                                                                                        000000000000000000
F0010000007747800002000002252363900041450500000000000000000201510140002001GLADYS DONADO RODRIGUEZ                           C000000000900000000000000000000000100010010000000000000000000000F0010000007747800220151014000101 00000000000000000000000000000000000000000000000000000000000000000000000000000000000000000000000000000000000000000N 00000000000NCONT   00    00000000000          00000000000000000000000000000000000000000000 000000000000000A000000000000000000000000000000000000000000000 000000000000000000000000000000000000000     00000000                                                                                                                        000000000000000000
F0010000007747800003000002252363900042505000000000000000000201510140002001GLADYS DONADO RODRIGUEZ                           C000000000100000000000000000000000100010010000000000000000000000F0010000007747800320151014000101 00000000000000000000000000000000000000000000000000000000000000000000000000000000000000000000000000000000000000000N 00000000000NCONT   00    00000000000          00000000000000000000000000000000000000000000 000000000000000A000000000000000000000000000000000000000000000 000000000000000000000000000000000000000     00000000                                                                                                                        000000000000000000
F0010000007747800004000002252363900023658300000000000000000201510140002001GLADYS DONADO RODRIGUEZ                           C000000000007200000000000000000000100010010000000000000000000000F0010000007747800420151014000101 00000000000000000000000000000000000000000000000000000000000000000000000000000000000000000000000000000000000000000N 00000000000NCONT   00    00000000000          00000000000000000000000000000000000000000000 000000000000000A000000000000000000000000000000000000000000000 000000000000000000000000000000000000000     00000000                                                                                                                        000000000000000000
F0010000007747800005000002252363900013552100000000000000000201510140002001GLADYS DONADO RODRIGUEZ                           D000000000007200000000000000000000100010010000000000000000000000F0010000007747800520151014000101 00000000000000000000000000000000000000000000000000000000000000000000000000000000000000000000000000000000000000000N 00000000000NCONT   00    00000000000          00000000000000000000000000000000000000000000 000000000000000A000000000000000000000000000000000000000000000 000000000000000000000000000000000000000     00000000                                                                                                                        000000000000000000
F0010000007747900001000007225583900011050500000000000000000201510140002001JORGE LUIS NIÑO BLANCO                           D000000001800000000000000000000000100010010000000000000000000000F0010000007747900120151014000101 00000000000000000000000000000000000000000000000000000000000000000000000000000000000000000000000000000000000000000N 00000000000NCONT   00    00000000000          00000000000000000000000000000000000000000000 000000000000000A000000000000000000000000000000000000000000000 000000000000000000000000000000000000000     00000000                                                                                                                        000000000000000000
F0010000007747900002000007225583900041450500000000000000000201510140002001JORGE LUIS NIÑO BLANCO                           C000000001600000000000000000000000100010010000000000000000000000F0010000007747900220151014000101 00000000000000000000000000000000000000000000000000000000000000000000000000000000000000000000000000000000000000000N 00000000000NCONT   00    00000000000          00000000000000000000000000000000000000000000 000000000000000A000000000000000000000000000000000000000000000 000000000000000000000000000000000000000     00000000                                                                                                                        000000000000000000
F0010000007747900003000007225583900042505000000000000000000201510140002001JORGE LUIS NIÑO BLANCO                           C000000000200000000000000000000000100010010000000000000000000000F0010000007747900320151014000101 00000000000000000000000000000000000000000000000000000000000000000000000000000000000000000000000000000000000000000N 00000000000NCONT   00    00000000000          00000000000000000000000000000000000000000000 000000000000000A000000000000000000000000000000000000000000000 000000000000000000000000000000000000000     00000000                                                                                                                        000000000000000000
F0010000007747900004000007225583900023658300000000000000000201510140002001JORGE LUIS NIÑO BLANCO                           C000000000012800000000000000000000100010010000000000000000000000F0010000007747900420151014000101 00000000000000000000000000000000000000000000000000000000000000000000000000000000000000000000000000000000000000000N 00000000000NCONT   00    00000000000          00000000000000000000000000000000000000000000 000000000000000A000000000000000000000000000000000000000000000 000000000000000000000000000000000000000     00000000                                                                                                                        000000000000000000
F0010000007747900005000007225583900013552100000000000000000201510140002001JORGE LUIS NIÑO BLANCO                           D000000000012800000000000000000000100010010000000000000000000000F0010000007747900520151014000101 00000000000000000000000000000000000000000000000000000000000000000000000000000000000000000000000000000000000000000N 00000000000NCONT   00    00000000000          00000000000000000000000000000000000000000000 000000000000000A000000000000000000000000000000000000000000000 000000000000000000000000000000000000000     00000000                                                                                                                        000000000000000000
F0010000007748000001000090020547900011050500000000000000000201510140002001COMERCIALIZADORA DAC DEL CARIBE S.A.S.            D000000001000000000000000000000000100010010000000000000000000000F0010000007748000120151014000101 00000000000000000000000000000000000000000000000000000000000000000000000000000000000000000000000000000000000000000N 00000000000NCONT   00    00000000000          00000000000000000000000000000000000000000000 000000000000000A000000000000000000000000000000000000000000000 000000000000000000000000000000000000000     00000000                                                                                                                        000000000000000000
F0010000007748000002000090020547900041450500000000000000000201510140002001COMERCIALIZADORA DAC DEL CARIBE S.A.S.            C000000000800000000000000000000000100010010000000000000000000000F0010000007748000220151014000101 00000000000000000000000000000000000000000000000000000000000000000000000000000000000000000000000000000000000000000N 00000000000NCONT   00    00000000000          00000000000000000000000000000000000000000000 000000000000000A000000000000000000000000000000000000000000000 000000000000000000000000000000000000000     00000000                                                                                                                        000000000000000000
F0010000007748000003000090020547900042505000000000000000000201510140002001COMERCIALIZADORA DAC DEL CARIBE S.A.S.            C000000000200000000000000000000000100010010000000000000000000000F0010000007748000320151014000101 00000000000000000000000000000000000000000000000000000000000000000000000000000000000000000000000000000000000000000N 00000000000NCONT   00    00000000000          00000000000000000000000000000000000000000000 000000000000000A000000000000000000000000000000000000000000000 000000000000000000000000000000000000000     00000000                                                                                                                        000000000000000000
F0010000007748000004000090020547900023658300000000000000000201510140002001COMERCIALIZADORA DAC DEL CARIBE S.A.S.            C000000000006400000000000000000000100010010000000000000000000000F0010000007748000420151014000101 00000000000000000000000000000000000000000000000000000000000000000000000000000000000000000000000000000000000000000N 00000000000NCONT   00    00000000000          00000000000000000000000000000000000000000000 000000000000000A000000000000000000000000000000000000000000000 000000000000000000000000000000000000000     00000000                                                                                                                        000000000000000000
F0010000007748000005000090020547900013552100000000000000000201510140002001COMERCIALIZADORA DAC DEL CARIBE S.A.S.            D000000000006400000000000000000000100010010000000000000000000000F0010000007748000520151014000101 00000000000000000000000000000000000000000000000000000000000000000000000000000000000000000000000000000000000000000N 00000000000NCONT   00    00000000000          00000000000000000000000000000000000000000000 000000000000000A000000000000000000000000000000000000000000000 000000000000000000000000000000000000000     00000000                                                                                                                        000000000000000000
F0010000007748100001000090020547900011050500000000000000000201510140002001COMERCIALIZADORA DAC DEL CARIBE S.A.S.            D000000001670000000000000000000000100010010000000000000000000000F0010000007748100120151014000101 00000000000000000000000000000000000000000000000000000000000000000000000000000000000000000000000000000000000000000N 00000000000NCONT   00    00000000000          00000000000000000000000000000000000000000000 000000000000000A000000000000000000000000000000000000000000000 000000000000000000000000000000000000000     00000000                                                                                                                        000000000000000000
F0010000007748100002000090020547900041450500000000000000000201510140002001COMERCIALIZADORA DAC DEL CARIBE S.A.S.            C000000000800000000000000000000000100010010000000000000000000000F0010000007748100220151014000101 00000000000000000000000000000000000000000000000000000000000000000000000000000000000000000000000000000000000000000N 00000000000NCONT   00    00000000000          00000000000000000000000000000000000000000000 000000000000000A000000000000000000000000000000000000000000000 000000000000000000000000000000000000000     00000000                                                                                                                        000000000000000000
F0010000007748100003000090020547900042505000000000000000000201510140002001COMERCIALIZADORA DAC DEL CARIBE S.A.S.            C000000000870000000000000000000000100010010000000000000000000000F0010000007748100320151014000101 00000000000000000000000000000000000000000000000000000000000000000000000000000000000000000000000000000000000000000N 00000000000NCONT   00    00000000000          00000000000000000000000000000000000000000000 000000000000000A000000000000000000000000000000000000000000000 000000000000000000000000000000000000000     00000000                                                                                                                        000000000000000000
F0010000007748100004000090020547900023658300000000000000000201510140002001COMERCIALIZADORA DAC DEL CARIBE S.A.S.            C000000000006400000000000000000000100010010000000000000000000000F0010000007748100420151014000101 00000000000000000000000000000000000000000000000000000000000000000000000000000000000000000000000000000000000000000N 00000000000NCONT   00    00000000000          00000000000000000000000000000000000000000000 000000000000000A000000000000000000000000000000000000000000000 000000000000000000000000000000000000000     00000000                                                                                                                        000000000000000000
F0010000007748100005000090020547900013552100000000000000000201510140002001COMERCIALIZADORA DAC DEL CARIBE S.A.S.            D000000000006400000000000000000000100010010000000000000000000000F0010000007748100520151014000101 00000000000000000000000000000000000000000000000000000000000000000000000000000000000000000000000000000000000000000N 00000000000NCONT   00    00000000000          00000000000000000000000000000000000000000000 000000000000000A000000000000000000000000000000000000000000000 000000000000000000000000000000000000000     00000000                                                                                                                        000000000000000000
F0010000007748200001000090020547900011050500000000000000000201510140002001COMERCIALIZADORA DAC DEL CARIBE S.A.S.            D000000005100000000000000000000000100010010000000000000000000000F0010000007748200120151014000101 00000000000000000000000000000000000000000000000000000000000000000000000000000000000000000000000000000000000000000N 00000000000NCONT   00    00000000000          00000000000000000000000000000000000000000000 000000000000000A000000000000000000000000000000000000000000000 000000000000000000000000000000000000000     00000000                                                                                                                        000000000000000000
F0010000007748200002000090020547900041450500000000000000000201510140002001COMERCIALIZADORA DAC DEL CARIBE S.A.S.            C000000004050000000000000000000000100010010000000000000000000000F0010000007748200220151014000101 00000000000000000000000000000000000000000000000000000000000000000000000000000000000000000000000000000000000000000N 00000000000NCONT   00    00000000000          00000000000000000000000000000000000000000000 000000000000000A000000000000000000000000000000000000000000000 000000000000000000000000000000000000000     00000000                                                                                                                        000000000000000000
F0010000007748200003000090020547900042505000000000000000000201510140002001COMERCIALIZADORA DAC DEL CARIBE S.A.S.            C000000001050000000000000000000000100010010000000000000000000000F0010000007748200320151014000101 00000000000000000000000000000000000000000000000000000000000000000000000000000000000000000000000000000000000000000N 00000000000NCONT   00    00000000000          00000000000000000000000000000000000000000000 000000000000000A000000000000000000000000000000000000000000000 000000000000000000000000000000000000000     00000000                                                                                                                        000000000000000000
F0010000007748200004000090020547900023658300000000000000000201510140002001COMERCIALIZADORA DAC DEL CARIBE S.A.S.            C000000000032400000000000000000000100010010000000000000000000000F0010000007748200420151014000101 00000000000000000000000000000000000000000000000000000000000000000000000000000000000000000000000000000000000000000N 00000000000NCONT   00    00000000000          00000000000000000000000000000000000000000000 000000000000000A000000000000000000000000000000000000000000000 000000000000000000000000000000000000000     00000000                                                                                                                        000000000000000000
F0010000007748200005000090020547900013552100000000000000000201510140002001COMERCIALIZADORA DAC DEL CARIBE S.A.S.            D000000000032400000000000000000000100010010000000000000000000000F0010000007748200520151014000101 00000000000000000000000000000000000000000000000000000000000000000000000000000000000000000000000000000000000000000N 00000000000NCONT   00    00000000000          00000000000000000000000000000000000000000000 000000000000000A000000000000000000000000000000000000000000000 000000000000000000000000000000000000000     00000000                                                                                                                        000000000000000000
F0010000007748300001000090020547900011050500000000000000000201510140002001COMERCIALIZADORA DAC DEL CARIBE S.A.S.            D000000004900000000000000000000000100010010000000000000000000000F0010000007748300120151014000101 00000000000000000000000000000000000000000000000000000000000000000000000000000000000000000000000000000000000000000N 00000000000NCONT   00    00000000000          00000000000000000000000000000000000000000000 000000000000000A000000000000000000000000000000000000000000000 000000000000000000000000000000000000000     00000000                                                                                                                        000000000000000000
F0010000007748300002000090020547900041450500000000000000000201510140002001COMERCIALIZADORA DAC DEL CARIBE S.A.S.            C000000004050000000000000000000000100010010000000000000000000000F0010000007748300220151014000101 00000000000000000000000000000000000000000000000000000000000000000000000000000000000000000000000000000000000000000N 00000000000NCONT   00    00000000000          00000000000000000000000000000000000000000000 000000000000000A000000000000000000000000000000000000000000000 000000000000000000000000000000000000000     00000000                                                                                                                        000000000000000000
F0010000007748300003000090020547900042505000000000000000000201510140002001COMERCIALIZADORA DAC DEL CARIBE S.A.S.            C000000000850000000000000000000000100010010000000000000000000000F0010000007748300320151014000101 00000000000000000000000000000000000000000000000000000000000000000000000000000000000000000000000000000000000000000N 00000000000NCONT   00    00000000000          00000000000000000000000000000000000000000000 000000000000000A000000000000000000000000000000000000000000000 000000000000000000000000000000000000000     00000000                                                                                                                        000000000000000000
F0010000007748300004000090020547900023658300000000000000000201510140002001COMERCIALIZADORA DAC DEL CARIBE S.A.S.            C000000000032400000000000000000000100010010000000000000000000000F0010000007748300420151014000101 00000000000000000000000000000000000000000000000000000000000000000000000000000000000000000000000000000000000000000N 00000000000NCONT   00    00000000000          00000000000000000000000000000000000000000000 000000000000000A000000000000000000000000000000000000000000000 000000000000000000000000000000000000000     00000000                                                                                                                        000000000000000000
F0010000007748300005000090020547900013552100000000000000000201510140002001COMERCIALIZADORA DAC DEL CARIBE S.A.S.            D000000000032400000000000000000000100010010000000000000000000000F0010000007748300520151014000101 00000000000000000000000000000000000000000000000000000000000000000000000000000000000000000000000000000000000000000N 00000000000NCONT   00    00000000000          00000000000000000000000000000000000000000000 000000000000000A000000000000000000000000000000000000000000000 000000000000000000000000000000000000000     00000000                                                                                                                        000000000000000000
F0010000007748400001000083008772100011050500000000000000000201510140002001ILUMEC SAS                                        D000000004000000000000000000000000100010010000000000000000000000F0010000007748400120151014000101 00000000000000000000000000000000000000000000000000000000000000000000000000000000000000000000000000000000000000000N 00000000000NCONT   00    00000000000          00000000000000000000000000000000000000000000 000000000000000A000000000000000000000000000000000000000000000 000000000000000000000000000000000000000     00000000                                                                                                                        000000000000000000
F0010000007748400002000083008772100041450500000000000000000201510140002001ILUMEC SAS                                        C000000003500000000000000000000000100010010000000000000000000000F0010000007748400220151014000101 00000000000000000000000000000000000000000000000000000000000000000000000000000000000000000000000000000000000000000N 00000000000NCONT   00    00000000000          00000000000000000000000000000000000000000000 000000000000000A000000000000000000000000000000000000000000000 000000000000000000000000000000000000000     00000000                                                                                                                        000000000000000000
F0010000007748400003000083008772100042505000000000000000000201510140002001ILUMEC SAS                                        C000000000500000000000000000000000100010010000000000000000000000F0010000007748400320151014000101 00000000000000000000000000000000000000000000000000000000000000000000000000000000000000000000000000000000000000000N 00000000000NCONT   00    00000000000          00000000000000000000000000000000000000000000 000000000000000A000000000000000000000000000000000000000000000 000000000000000000000000000000000000000     00000000                                                                                                                        000000000000000000
F0010000007748400004000083008772100023658300000000000000000201510140002001ILUMEC SAS                                        C000000000028000000000000000000000100010010000000000000000000000F0010000007748400420151014000101 00000000000000000000000000000000000000000000000000000000000000000000000000000000000000000000000000000000000000000N 00000000000NCONT   00    00000000000          00000000000000000000000000000000000000000000 000000000000000A000000000000000000000000000000000000000000000 000000000000000000000000000000000000000     00000000                                                                                                                        000000000000000000
F0010000007748400005000083008772100013552100000000000000000201510140002001ILUMEC SAS                                        D000000000028000000000000000000000100010010000000000000000000000F0010000007748400520151014000101 00000000000000000000000000000000000000000000000000000000000000000000000000000000000000000000000000000000000000000N 00000000000NCONT   00    00000000000          00000000000000000000000000000000000000000000 000000000000000A000000000000000000000000000000000000000000000 000000000000000000000000000000000000000     00000000                                                                                                                        000000000000000000
F0010000007748500001000080201112800013050500000000000000000201510140002001CANGURO INTERNATIONAL S.A.                        D000000345447800000000000000000000100010010000000000000000000000F0010000007748500120151014000101 00000000000000000000000000000000000000000000000000000000000000000000000000000000000000000000000000000000000000000N 00000000000NCONT   00    00000000000          00000000000000000000000000000000000000000000 000000000000000A000000000000000000000000000000000000000000000 000000000000000000000000000000000000000     00000000                                                                                                                        000000000000000000
F0010000007748500002000080201112800041450500000000000000000201510140002001CANGURO INTERNATIONAL S.A.                        C000000345447800000000000000000000100010010000000000000000000000F0010000007748500220151014000101 00000000000000000000000000000000000000000000000000000000000000000000000000000000000000000000000000000000000000000N 00000000000NCONT   00    00000000000          00000000000000000000000000000000000000000000 000000000000000A000000000000000000000000000000000000000000000 000000000000000000000000000000000000000     00000000                                                                                                                        000000000000000000
F0010000007748500003000080201112800042505000000000000000000201510140002001CANGURO INTERNATIONAL S.A.                        C000000000000000000000000000000000100010010000000000000000000000F0010000007748500320151014000101 00000000000000000000000000000000000000000000000000000000000000000000000000000000000000000000000000000000000000000N 00000000000NCONT   00    00000000000          00000000000000000000000000000000000000000000 000000000000000A000000000000000000000000000000000000000000000 000000000000000000000000000000000000000     00000000                                                                                                                        000000000000000000
F0010000007748500004000080201112800023658300000000000000000201510140002001CANGURO INTERNATIONAL S.A.                        C000000002763600000000000000000000100010010000000000000000000000F0010000007748500420151014000101 00000000000000000000000000000000000000000000000000000000000000000000000000000000000000000000000000000000000000000N 00000000000NCONT   00    00000000000          00000000000000000000000000000000000000000000 000000000000000A000000000000000000000000000000000000000000000 000000000000000000000000000000000000000     00000000                                                                                                                        000000000000000000
F0010000007748500005000080201112800013552100000000000000000201510140002001CANGURO INTERNATIONAL S.A.                        D000000002763600000000000000000000100010010000000000000000000000F0010000007748500520151014000101 00000000000000000000000000000000000000000000000000000000000000000000000000000000000000000000000000000000000000000N 00000000000NCONT   00    00000000000          00000000000000000000000000000000000000000000 000000000000000A000000000000000000000000000000000000000000000 000000000000000000000000000000000000000     00000000                                                                                                                        000000000000000000
F0010000007748600001000080201112800013050500000000000000000201510140002001CANGURO INTERNATIONAL S.A.                        D000000103381600000000000000000000100010010000000000000000000000F0010000007748600120151014000101 00000000000000000000000000000000000000000000000000000000000000000000000000000000000000000000000000000000000000000N 00000000000NCONT   00    00000000000          00000000000000000000000000000000000000000000 000000000000000A000000000000000000000000000000000000000000000 000000000000000000000000000000000000000     00000000                                                                                                                        000000000000000000
F0010000007748600002000080201112800041450500000000000000000201510140002001CANGURO INTERNATIONAL S.A.                        C000000103381600000000000000000000100010010000000000000000000000F0010000007748600220151014000101 00000000000000000000000000000000000000000000000000000000000000000000000000000000000000000000000000000000000000000N 00000000000NCONT   00    00000000000          00000000000000000000000000000000000000000000 000000000000000A000000000000000000000000000000000000000000000 000000000000000000000000000000000000000     00000000                                                                                                                        000000000000000000
F0010000007748600003000080201112800042505000000000000000000201510140002001CANGURO INTERNATIONAL S.A.                        C000000000000000000000000000000000100010010000000000000000000000F0010000007748600320151014000101 00000000000000000000000000000000000000000000000000000000000000000000000000000000000000000000000000000000000000000N 00000000000NCONT   00    00000000000          00000000000000000000000000000000000000000000 000000000000000A000000000000000000000000000000000000000000000 000000000000000000000000000000000000000     00000000                                                                                                                        000000000000000000
F0010000007748600004000080201112800023658300000000000000000201510140002001CANGURO INTERNATIONAL S.A.                        C000000000827100000000000000000000100010010000000000000000000000F0010000007748600420151014000101 00000000000000000000000000000000000000000000000000000000000000000000000000000000000000000000000000000000000000000N 00000000000NCONT   00    00000000000          00000000000000000000000000000000000000000000 000000000000000A000000000000000000000000000000000000000000000 000000000000000000000000000000000000000     00000000                                                                                                                        000000000000000000
F0010000007748600005000080201112800013552100000000000000000201510140002001CANGURO INTERNATIONAL S.A.                        D000000000827100000000000000000000100010010000000000000000000000F0010000007748600520151014000101 00000000000000000000000000000000000000000000000000000000000000000000000000000000000000000000000000000000000000000N 00000000000NCONT   00    00000000000          00000000000000000000000000000000000000000000 000000000000000A000000000000000000000000000000000000000000000 000000000000000000000000000000000000000     00000000                                                                                                                        000000000000000000
F0010000007748700001000000869402400011050500000000000000000201510140002001ISRAEL MANGA                                      D000000006000000000000000000000000100010010000000000000000000000F0010000007748700120151014000101 00000000000000000000000000000000000000000000000000000000000000000000000000000000000000000000000000000000000000000N 00000000000NCONT   00    00000000000          00000000000000000000000000000000000000000000 000000000000000A000000000000000000000000000000000000000000000 000000000000000000000000000000000000000     00000000                                                                                                                        000000000000000000
F0010000007748700002000000869402400041450500000000000000000201510140002001ISRAEL MANGA                                      C000000005200000000000000000000000100010010000000000000000000000F0010000007748700220151014000101 00000000000000000000000000000000000000000000000000000000000000000000000000000000000000000000000000000000000000000N 00000000000NCONT   00    00000000000          00000000000000000000000000000000000000000000 000000000000000A000000000000000000000000000000000000000000000 000000000000000000000000000000000000000     00000000                                                                                                                        000000000000000000
F0010000007748700003000000869402400042505000000000000000000201510140002001ISRAEL MANGA                                      C000000000800000000000000000000000100010010000000000000000000000F0010000007748700320151014000101 00000000000000000000000000000000000000000000000000000000000000000000000000000000000000000000000000000000000000000N 00000000000NCONT   00    00000000000          00000000000000000000000000000000000000000000 000000000000000A000000000000000000000000000000000000000000000 000000000000000000000000000000000000000     00000000                                                                                                                        000000000000000000
F0010000007748700004000000869402400023658300000000000000000201510140002001ISRAEL MANGA                                      C000000000041600000000000000000000100010010000000000000000000000F0010000007748700420151014000101 00000000000000000000000000000000000000000000000000000000000000000000000000000000000000000000000000000000000000000N 00000000000NCONT   00    00000000000          00000000000000000000000000000000000000000000 000000000000000A000000000000000000000000000000000000000000000 000000000000000000000000000000000000000     00000000                                                                                                                        000000000000000000
F0010000007748700005000000869402400013552100000000000000000201510140002001ISRAEL MANGA                                      D000000000041600000000000000000000100010010000000000000000000000F0010000007748700520151014000101 00000000000000000000000000000000000000000000000000000000000000000000000000000000000000000000000000000000000000000N 00000000000NCONT   00    00000000000          00000000000000000000000000000000000000000000 000000000000000A000000000000000000000000000000000000000000000 000000000000000000000000000000000000000     00000000                                                                                                                        000000000000000000
F0010000007748800001000000869402400011050500000000000000000201510140002001ISRAEL MANGA                                      D000000002100000000000000000000000100010010000000000000000000000F0010000007748800120151014000101 00000000000000000000000000000000000000000000000000000000000000000000000000000000000000000000000000000000000000000N 00000000000NCONT   00    00000000000          00000000000000000000000000000000000000000000 000000000000000A000000000000000000000000000000000000000000000 000000000000000000000000000000000000000     00000000                                                                                                                        000000000000000000
F0010000007748800002000000869402400041450500000000000000000201510140002001ISRAEL MANGA                                      C000000001800000000000000000000000100010010000000000000000000000F0010000007748800220151014000101 00000000000000000000000000000000000000000000000000000000000000000000000000000000000000000000000000000000000000000N 00000000000NCONT   00    00000000000          00000000000000000000000000000000000000000000 000000000000000A000000000000000000000000000000000000000000000 000000000000000000000000000000000000000     00000000                                                                                                                        000000000000000000
F0010000007748800003000000869402400042505000000000000000000201510140002001ISRAEL MANGA                                      C000000000300000000000000000000000100010010000000000000000000000F0010000007748800320151014000101 00000000000000000000000000000000000000000000000000000000000000000000000000000000000000000000000000000000000000000N 00000000000NCONT   00    00000000000          00000000000000000000000000000000000000000000 000000000000000A000000000000000000000000000000000000000000000 000000000000000000000000000000000000000     00000000                                                                                                                        000000000000000000
F0010000007748800004000000869402400023658300000000000000000201510140002001ISRAEL MANGA                                      C000000000014400000000000000000000100010010000000000000000000000F0010000007748800420151014000101 00000000000000000000000000000000000000000000000000000000000000000000000000000000000000000000000000000000000000000N 00000000000NCONT   00    00000000000          00000000000000000000000000000000000000000000 000000000000000A000000000000000000000000000000000000000000000 000000000000000000000000000000000000000     00000000                                                                                                                        000000000000000000
F0010000007748800005000000869402400013552100000000000000000201510140002001ISRAEL MANGA                                      D000000000014400000000000000000000100010010000000000000000000000F0010000007748800520151014000101 00000000000000000000000000000000000000000000000000000000000000000000000000000000000000000000000000000000000000000N 00000000000NCONT   00    00000000000          00000000000000000000000000000000000000000000 000000000000000A000000000000000000000000000000000000000000000 000000000000000000000000000000000000000     00000000                                                                                                                        000000000000000000
F0010000007748900001000000869402400011050500000000000000000201510140002001ISRAEL MANGA                                      D000000004000000000000000000000000100010010000000000000000000000F0010000007748900120151014000101 00000000000000000000000000000000000000000000000000000000000000000000000000000000000000000000000000000000000000000N 00000000000NCONT   00    00000000000          00000000000000000000000000000000000000000000 000000000000000A000000000000000000000000000000000000000000000 000000000000000000000000000000000000000     00000000                                                                                                                        000000000000000000
F0010000007748900002000000869402400041450500000000000000000201510140002001ISRAEL MANGA                                      C000000003500000000000000000000000100010010000000000000000000000F0010000007748900220151014000101 00000000000000000000000000000000000000000000000000000000000000000000000000000000000000000000000000000000000000000N 00000000000NCONT   00    00000000000          00000000000000000000000000000000000000000000 000000000000000A000000000000000000000000000000000000000000000 000000000000000000000000000000000000000     00000000                                                                                                                        000000000000000000
F0010000007748900003000000869402400042505000000000000000000201510140002001ISRAEL MANGA                                      C000000000500000000000000000000000100010010000000000000000000000F0010000007748900320151014000101 00000000000000000000000000000000000000000000000000000000000000000000000000000000000000000000000000000000000000000N 00000000000NCONT   00    00000000000          00000000000000000000000000000000000000000000 000000000000000A000000000000000000000000000000000000000000000 000000000000000000000000000000000000000     00000000                                                                                                                        000000000000000000
F0010000007748900004000000869402400023658300000000000000000201510140002001ISRAEL MANGA                                      C000000000028000000000000000000000100010010000000000000000000000F0010000007748900420151014000101 00000000000000000000000000000000000000000000000000000000000000000000000000000000000000000000000000000000000000000N 00000000000NCONT   00    00000000000          00000000000000000000000000000000000000000000 000000000000000A000000000000000000000000000000000000000000000 000000000000000000000000000000000000000     00000000                                                                                                                        000000000000000000
F0010000007748900005000000869402400013552100000000000000000201510140002001ISRAEL MANGA                                      D000000000028000000000000000000000100010010000000000000000000000F0010000007748900520151014000101 00000000000000000000000000000000000000000000000000000000000000000000000000000000000000000000000000000000000000000N 00000000000NCONT   00    00000000000          00000000000000000000000000000000000000000000 000000000000000A000000000000000000000000000000000000000000000 000000000000000000000000000000000000000     00000000                                                                                                                        000000000000000000
F0010000007749000001000090035510100013050500000000000000000201510140002001GRAINGER COLOMBIA S.A.S.                          D000000044794600000000000000000000100010010000000000000000000000F0010000007749000120151014000101 00000000000000000000000000000000000000000000000000000000000000000000000000000000000000000000000000000000000000000N 00000000000NCONT   00    00000000000          00000000000000000000000000000000000000000000 000000000000000A000000000000000000000000000000000000000000000 000000000000000000000000000000000000000     00000000                                                                                                                        000000000000000000
F0010000007749000002000090035510100041450500000000000000000201510140002001GRAINGER COLOMBIA S.A.S.                          C000000025678000000000000000000000100010010000000000000000000000F0010000007749000220151014000101 00000000000000000000000000000000000000000000000000000000000000000000000000000000000000000000000000000000000000000N 00000000000NCONT   00    00000000000          00000000000000000000000000000000000000000000 000000000000000A000000000000000000000000000000000000000000000 000000000000000000000000000000000000000     00000000                                                                                                                        000000000000000000
F0010000007749000003000090035510100042505000000000000000000201510140002001GRAINGER COLOMBIA S.A.S.                          C000000019116600000000000000000000100010010000000000000000000000F0010000007749000320151014000101 00000000000000000000000000000000000000000000000000000000000000000000000000000000000000000000000000000000000000000N 00000000000NCONT   00    00000000000          00000000000000000000000000000000000000000000 000000000000000A000000000000000000000000000000000000000000000 000000000000000000000000000000000000000     00000000                                                                                                                        000000000000000000
F0010000007749000004000090035510100023658300000000000000000201510140002001GRAINGER COLOMBIA S.A.S.                          C000000000205400000000000000000000100010010000000000000000000000F0010000007749000420151014000101 00000000000000000000000000000000000000000000000000000000000000000000000000000000000000000000000000000000000000000N 00000000000NCONT   00    00000000000          00000000000000000000000000000000000000000000 000000000000000A000000000000000000000000000000000000000000000 000000000000000000000000000000000000000     00000000                                                                                                                        000000000000000000
F0010000007749000005000090035510100013552100000000000000000201510140002001GRAINGER COLOMBIA S.A.S.                          D000000000205400000000000000000000100010010000000000000000000000F0010000007749000520151014000101 00000000000000000000000000000000000000000000000000000000000000000000000000000000000000000000000000000000000000000N 00000000000NCONT   00    00000000000          00000000000000000000000000000000000000000000 000000000000000A000000000000000000000000000000000000000000000 000000000000000000000000000000000000000     00000000                                                                                                                        000000000000000000
F0010000007749100001000089070997800013050500000000000000000201510140002001CENTRAL DE TORNILLOS                              D000000055370000000000000000000000100010010000000000000000000000F0010000007749100120151014000101 00000000000000000000000000000000000000000000000000000000000000000000000000000000000000000000000000000000000000000N 00000000000NCONT   00    00000000000          00000000000000000000000000000000000000000000 000000000000000A000000000000000000000000000000000000000000000 000000000000000000000000000000000000000     00000000                                                                                                                        000000000000000000
F0010000007749100002000089070997800041450500000000000000000201510140002001CENTRAL DE TORNILLOS                              C000000052420000000000000000000000100010010000000000000000000000F0010000007749100220151014000101 00000000000000000000000000000000000000000000000000000000000000000000000000000000000000000000000000000000000000000N 00000000000NCONT   00    00000000000          00000000000000000000000000000000000000000000 000000000000000A000000000000000000000000000000000000000000000 000000000000000000000000000000000000000     00000000                                                                                                                        000000000000000000
F0010000007749100003000089070997800042505000000000000000000201510140002001CENTRAL DE TORNILLOS                              C000000002950000000000000000000000100010010000000000000000000000F0010000007749100320151014000101 00000000000000000000000000000000000000000000000000000000000000000000000000000000000000000000000000000000000000000N 00000000000NCONT   00    00000000000          00000000000000000000000000000000000000000000 000000000000000A000000000000000000000000000000000000000000000 000000000000000000000000000000000000000     00000000                                                                                                                        000000000000000000
F0010000007749100004000089070997800023658300000000000000000201510140002001CENTRAL DE TORNILLOS                              C000000000419400000000000000000000100010010000000000000000000000F0010000007749100420151014000101 00000000000000000000000000000000000000000000000000000000000000000000000000000000000000000000000000000000000000000N 00000000000NCONT   00    00000000000          00000000000000000000000000000000000000000000 000000000000000A000000000000000000000000000000000000000000000 000000000000000000000000000000000000000     00000000                                                                                                                        000000000000000000
F0010000007749100005000089070997800013552100000000000000000201510140002001CENTRAL DE TORNILLOS                              D000000000419400000000000000000000100010010000000000000000000000F0010000007749100520151014000101 00000000000000000000000000000000000000000000000000000000000000000000000000000000000000000000000000000000000000000N 00000000000NCONT   00    00000000000          00000000000000000000000000000000000000000000 000000000000000A000000000000000000000000000000000000000000000 000000000000000000000000000000000000000     00000000                                                                                                                        000000000000000000
F0010000007749200001000081102758700013050500000000000000000201510140002001C.I. ABRACOL S.A EMA                              D000000064708000000000000000000000100010010000000000000000000000F0010000007749200120151014000101 00000000000000000000000000000000000000000000000000000000000000000000000000000000000000000000000000000000000000000N 00000000000NCONT   00    00000000000          00000000000000000000000000000000000000000000 000000000000000A000000000000000000000000000000000000000000000 000000000000000000000000000000000000000     00000000                                                                                                                        000000000000000000
F0010000007749200002000081102758700041450500000000000000000201510140002001C.I. ABRACOL S.A EMA                              C000000045670000000000000000000000100010010000000000000000000000F0010000007749200220151014000101 00000000000000000000000000000000000000000000000000000000000000000000000000000000000000000000000000000000000000000N 00000000000NCONT   00    00000000000          00000000000000000000000000000000000000000000 000000000000000A000000000000000000000000000000000000000000000 000000000000000000000000000000000000000     00000000                                                                                                                        000000000000000000
F0010000007749200003000081102758700041750100000000000000000201510140002001C.I. ABRACOL S.A EMA                              D000000001370100000000000000000000100010010000000000000000000000F0010000007749200320151014000101 00000000000000000000000000000000000000000000000000000000000000000000000000000000000000000000000000000000000000000N 00000000000NCONT   00    00000000000          00000000000000000000000000000000000000000000 000000000000000A000000000000000000000000000000000000000000000 000000000000000000000000000000000000000     00000000                                                                                                                        000000000000000000
F0010000007749200004000081102758700042505000000000000000000201510140002001C.I. ABRACOL S.A EMA                              C000000020408100000000000000000000100010010000000000000000000000F0010000007749200420151014000101 00000000000000000000000000000000000000000000000000000000000000000000000000000000000000000000000000000000000000000N 00000000000NCONT   00    00000000000          00000000000000000000000000000000000000000000 000000000000000A000000000000000000000000000000000000000000000 000000000000000000000000000000000000000     00000000                                                                                                                        000000000000000000
F0010000007749200005000081102758700023658300000000000000000201510140002001C.I. ABRACOL S.A EMA                              C000000000365400000000000000000000100010010000000000000000000000F0010000007749200520151014000101 00000000000000000000000000000000000000000000000000000000000000000000000000000000000000000000000000000000000000000N 00000000000NCONT   00    00000000000          00000000000000000000000000000000000000000000 000000000000000A000000000000000000000000000000000000000000000 000000000000000000000000000000000000000     00000000                                                                                                                        000000000000000000
F0010000007749200006000081102758700013552100000000000000000201510140002001C.I. ABRACOL S.A EMA                              D000000000365400000000000000000000100010010000000000000000000000F0010000007749200620151014000101 00000000000000000000000000000000000000000000000000000000000000000000000000000000000000000000000000000000000000000N 00000000000NCONT   00    00000000000          00000000000000000000000000000000000000000000 000000000000000A000000000000000000000000000000000000000000000 000000000000000000000000000000000000000     00000000                                                                                                                        000000000000000000
F0010000007749300001000002261657700011050500000000000000000201510140002001LILIANA SANCHEZ SOLANO                            D000000015000000000000000000000000100010010000000000000000000000F0010000007749300120151014000101 00000000000000000000000000000000000000000000000000000000000000000000000000000000000000000000000000000000000000000N 00000000000NCONT   00    00000000000          00000000000000000000000000000000000000000000 000000000000000A000000000000000000000000000000000000000000000 000000000000000000000000000000000000000     00000000                                                                                                                        000000000000000000
F0010000007749300002000002261657700041450500000000000000000201510140002001LILIANA SANCHEZ SOLANO                            C000000012000000000000000000000000100010010000000000000000000000F0010000007749300220151014000101 00000000000000000000000000000000000000000000000000000000000000000000000000000000000000000000000000000000000000000N 00000000000NCONT   00    00000000000          00000000000000000000000000000000000000000000 000000000000000A000000000000000000000000000000000000000000000 000000000000000000000000000000000000000     00000000                                                                                                                        000000000000000000
F0010000007749300003000002261657700042505000000000000000000201510140002001LILIANA SANCHEZ SOLANO                            C000000003000000000000000000000000100010010000000000000000000000F0010000007749300320151014000101 00000000000000000000000000000000000000000000000000000000000000000000000000000000000000000000000000000000000000000N 00000000000NCONT   00    00000000000          00000000000000000000000000000000000000000000 000000000000000A000000000000000000000000000000000000000000000 000000000000000000000000000000000000000     00000000                                                                                                                        000000000000000000
F0010000007749300004000002261657700023658300000000000000000201510140002001LILIANA SANCHEZ SOLANO                            C000000000096000000000000000000000100010010000000000000000000000F0010000007749300420151014000101 00000000000000000000000000000000000000000000000000000000000000000000000000000000000000000000000000000000000000000N 00000000000NCONT   00    00000000000          00000000000000000000000000000000000000000000 000000000000000A000000000000000000000000000000000000000000000 000000000000000000000000000000000000000     00000000                                                                                                                        000000000000000000
F0010000007749300005000002261657700013552100000000000000000201510140002001LILIANA SANCHEZ SOLANO                            D000000000096000000000000000000000100010010000000000000000000000F0010000007749300520151014000101 00000000000000000000000000000000000000000000000000000000000000000000000000000000000000000000000000000000000000000N 00000000000NCONT   00    00000000000          00000000000000000000000000000000000000000000 000000000000000A000000000000000000000000000000000000000000000 000000000000000000000000000000000000000     00000000                                                                                                                        000000000000000000
F0010000007749400001000081102758700013050500000000000000000201510140002001C.I. ABRACOL S.A EMA                              D000000058489100000000000000000000100010010000000000000000000000F0010000007749400120151014000101 00000000000000000000000000000000000000000000000000000000000000000000000000000000000000000000000000000000000000000N 00000000000NCONT   00    00000000000          00000000000000000000000000000000000000000000 000000000000000A000000000000000000000000000000000000000000000 000000000000000000000000000000000000000     00000000                                                                                                                        000000000000000000
F0010000007749400002000081102758700041450500000000000000000201510140002001C.I. ABRACOL S.A EMA                              C000000038140000000000000000000000100010010000000000000000000000F0010000007749400220151014000101 00000000000000000000000000000000000000000000000000000000000000000000000000000000000000000000000000000000000000000N 00000000000NCONT   00    00000000000          00000000000000000000000000000000000000000000 000000000000000A000000000000000000000000000000000000000000000 000000000000000000000000000000000000000     00000000                                                                                                                        000000000000000000
F0010000007749400003000081102758700041750100000000000000000201510140002001C.I. ABRACOL S.A EMA                              D000000001144200000000000000000000100010010000000000000000000000F0010000007749400320151014000101 00000000000000000000000000000000000000000000000000000000000000000000000000000000000000000000000000000000000000000N 00000000000NCONT   00    00000000000          00000000000000000000000000000000000000000000 000000000000000A000000000000000000000000000000000000000000000 000000000000000000000000000000000000000     00000000                                                                                                                        000000000000000000
F0010000007749400004000081102758700042505000000000000000000201510140002001C.I. ABRACOL S.A EMA                              C000000021493300000000000000000000100010010000000000000000000000F0010000007749400420151014000101 00000000000000000000000000000000000000000000000000000000000000000000000000000000000000000000000000000000000000000N 00000000000NCONT   00    00000000000          00000000000000000000000000000000000000000000 000000000000000A000000000000000000000000000000000000000000000 000000000000000000000000000000000000000     00000000                                                                                                                        000000000000000000
F0010000007749400005000081102758700023658300000000000000000201510140002001C.I. ABRACOL S.A EMA                              C000000000305100000000000000000000100010010000000000000000000000F0010000007749400520151014000101 00000000000000000000000000000000000000000000000000000000000000000000000000000000000000000000000000000000000000000N 00000000000NCONT   00    00000000000          00000000000000000000000000000000000000000000 000000000000000A000000000000000000000000000000000000000000000 000000000000000000000000000000000000000     00000000                                                                                                                        000000000000000000
F0010000007749400006000081102758700013552100000000000000000201510140002001C.I. ABRACOL S.A EMA                              D000000000305100000000000000000000100010010000000000000000000000F0010000007749400620151014000101 00000000000000000000000000000000000000000000000000000000000000000000000000000000000000000000000000000000000000000N 00000000000NCONT   00    00000000000          00000000000000000000000000000000000000000000 000000000000000A000000000000000000000000000000000000000000000 000000000000000000000000000000000000000     00000000                                                                                                                        000000000000000000
F0010000007749500001000081102758700013050500000000000000000201510140002001C.I. ABRACOL S.A EMA                              D000000179293600000000000000000000100010010000000000000000000000F0010000007749500120151014000101 00000000000000000000000000000000000000000000000000000000000000000000000000000000000000000000000000000000000000000N 00000000000NCONT   00    00000000000          00000000000000000000000000000000000000000000 000000000000000A000000000000000000000000000000000000000000000 000000000000000000000000000000000000000     00000000                                                                                                                        000000000000000000
F0010000007749500002000081102758700041450500000000000000000201510140002001C.I. ABRACOL S.A EMA                              C000000114700200000000000000000000100010010000000000000000000000F0010000007749500220151014000101 00000000000000000000000000000000000000000000000000000000000000000000000000000000000000000000000000000000000000000N 00000000000NCONT   00    00000000000          00000000000000000000000000000000000000000000 000000000000000A000000000000000000000000000000000000000000000 000000000000000000000000000000000000000     00000000                                                                                                                        000000000000000000
F0010000007749500003000081102758700041750100000000000000000201510140002001C.I. ABRACOL S.A EMA                              D000000003441000000000000000000000100010010000000000000000000000F0010000007749500320151014000101 00000000000000000000000000000000000000000000000000000000000000000000000000000000000000000000000000000000000000000N 00000000000NCONT   00    00000000000          00000000000000000000000000000000000000000000 000000000000000A000000000000000000000000000000000000000000000 000000000000000000000000000000000000000     00000000                                                                                                                        000000000000000000
F0010000007749500004000081102758700042505000000000000000000201510140002001C.I. ABRACOL S.A EMA                              C000000068034400000000000000000000100010010000000000000000000000F0010000007749500420151014000101 00000000000000000000000000000000000000000000000000000000000000000000000000000000000000000000000000000000000000000N 00000000000NCONT   00    00000000000          00000000000000000000000000000000000000000000 000000000000000A000000000000000000000000000000000000000000000 000000000000000000000000000000000000000     00000000                                                                                                                        000000000000000000
F0010000007749500005000081102758700023658300000000000000000201510140002001C.I. ABRACOL S.A EMA                              C000000000917600000000000000000000100010010000000000000000000000F0010000007749500520151014000101 00000000000000000000000000000000000000000000000000000000000000000000000000000000000000000000000000000000000000000N 00000000000NCONT   00    00000000000          00000000000000000000000000000000000000000000 000000000000000A000000000000000000000000000000000000000000000 000000000000000000000000000000000000000     00000000                                                                                                                        000000000000000000
F0010000007749500006000081102758700013552100000000000000000201510140002001C.I. ABRACOL S.A EMA                              D000000000917600000000000000000000100010010000000000000000000000F0010000007749500620151014000101 00000000000000000000000000000000000000000000000000000000000000000000000000000000000000000000000000000000000000000N 00000000000NCONT   00    00000000000          00000000000000000000000000000000000000000000 000000000000000A000000000000000000000000000000000000000000000 000000000000000000000000000000000000000     00000000                                                                                                                        000000000000000000
F0010000007749600001000002257933700013050500000000000000000201510140002001ROSA MARGARITA  PUCCINI SU HERRAMIENTAS Y ELECTRICD000000004458200000000000000000000100010010000000000000000000000F0010000007749600120151014000101 00000000000000000000000000000000000000000000000000000000000000000000000000000000000000000000000000000000000000000N 00000000000NCONT   00    00000000000          00000000000000000000000000000000000000000000 000000000000000A000000000000000000000000000000000000000000000 000000000000000000000000000000000000000     00000000                                                                                                                        000000000000000000
F0010000007749600002000002257933700041450500000000000000000201510140002001ROSA MARGARITA  PUCCINI SU HERRAMIENTAS Y ELECTRICC000000003420000000000000000000000100010010000000000000000000000F0010000007749600220151014000101 00000000000000000000000000000000000000000000000000000000000000000000000000000000000000000000000000000000000000000N 00000000000NCONT   00    00000000000          00000000000000000000000000000000000000000000 000000000000000A000000000000000000000000000000000000000000000 000000000000000000000000000000000000000     00000000                                                                                                                        000000000000000000
F0010000007749600003000002257933700042505000000000000000000201510140002001ROSA MARGARITA  PUCCINI SU HERRAMIENTAS Y ELECTRICC000000001038200000000000000000000100010010000000000000000000000F0010000007749600320151014000101 00000000000000000000000000000000000000000000000000000000000000000000000000000000000000000000000000000000000000000N 00000000000NCONT   00    00000000000          00000000000000000000000000000000000000000000 000000000000000A000000000000000000000000000000000000000000000 000000000000000000000000000000000000000     00000000                                                                                                                        000000000000000000
F0010000007749600004000002257933700023658300000000000000000201510140002001ROSA MARGARITA  PUCCINI SU HERRAMIENTAS Y ELECTRICC000000000027400000000000000000000100010010000000000000000000000F0010000007749600420151014000101 00000000000000000000000000000000000000000000000000000000000000000000000000000000000000000000000000000000000000000N 00000000000NCONT   00    00000000000          00000000000000000000000000000000000000000000 000000000000000A000000000000000000000000000000000000000000000 000000000000000000000000000000000000000     00000000                                                                                                                        000000000000000000
F0010000007749600005000002257933700013552100000000000000000201510140002001ROSA MARGARITA  PUCCINI SU HERRAMIENTAS Y ELECTRICD000000000027400000000000000000000100010010000000000000000000000F0010000007749600520151014000101 00000000000000000000000000000000000000000000000000000000000000000000000000000000000000000000000000000000000000000N 00000000000NCONT   00    00000000000          00000000000000000000000000000000000000000000 000000000000000A000000000000000000000000000000000000000000000 000000000000000000000000000000000000000     00000000                                                                                                                        000000000000000000
F0010000007749700001000080022903500013050500000000000000000201510140002001TECNOGLASS S.A                                    D000000065000000000000000000000000100010010000000000000000000000F0010000007749700120151014000101 00000000000000000000000000000000000000000000000000000000000000000000000000000000000000000000000000000000000000000N 00000000000NCONT   00    00000000000          00000000000000000000000000000000000000000000 000000000000000A000000000000000000000000000000000000000000000 000000000000000000000000000000000000000     00000000                                                                                                                        000000000000000000
F0010000007749700002000080022903500041450500000000000000000201510140002001TECNOGLASS S.A                                    C000000060000000000000000000000000100010010000000000000000000000F0010000007749700220151014000101 00000000000000000000000000000000000000000000000000000000000000000000000000000000000000000000000000000000000000000N 00000000000NCONT   00    00000000000          00000000000000000000000000000000000000000000 000000000000000A000000000000000000000000000000000000000000000 000000000000000000000000000000000000000     00000000                                                                                                                        000000000000000000
F0010000007749700003000080022903500042505000000000000000000201510140002001TECNOGLASS S.A                                    C000000005000000000000000000000000100010010000000000000000000000F0010000007749700320151014000101 00000000000000000000000000000000000000000000000000000000000000000000000000000000000000000000000000000000000000000N 00000000000NCONT   00    00000000000          00000000000000000000000000000000000000000000 000000000000000A000000000000000000000000000000000000000000000 000000000000000000000000000000000000000     00000000                                                                                                                        000000000000000000
F0010000007749700004000080022903500023658300000000000000000201510140002001TECNOGLASS S.A                                    C000000000480000000000000000000000100010010000000000000000000000F0010000007749700420151014000101 00000000000000000000000000000000000000000000000000000000000000000000000000000000000000000000000000000000000000000N 00000000000NCONT   00    00000000000          00000000000000000000000000000000000000000000 000000000000000A000000000000000000000000000000000000000000000 000000000000000000000000000000000000000     00000000                                                                                                                        000000000000000000
F0010000007749700005000080022903500013552100000000000000000201510140002001TECNOGLASS S.A                                    D000000000480000000000000000000000100010010000000000000000000000F0010000007749700520151014000101 00000000000000000000000000000000000000000000000000000000000000000000000000000000000000000000000000000000000000000N 00000000000NCONT   00    00000000000          00000000000000000000000000000000000000000000 000000000000000A000000000000000000000000000000000000000000000 000000000000000000000000000000000000000     00000000                                                                                                                        000000000000000000
F0010000007749800001000002244786500011050500000000000000000201510140002001ROSA ELVIRA DE LEON JIMENEZ                       D000000002600000000000000000000000100010010000000000000000000000F0010000007749800120151014000101 00000000000000000000000000000000000000000000000000000000000000000000000000000000000000000000000000000000000000000N 00000000000NCONT   00    00000000000          00000000000000000000000000000000000000000000 000000000000000A000000000000000000000000000000000000000000000 000000000000000000000000000000000000000     00000000                                                                                                                        000000000000000000
F0010000007749800002000002244786500041450500000000000000000201510140002001ROSA ELVIRA DE LEON JIMENEZ                       C000000002400000000000000000000000100010010000000000000000000000F0010000007749800220151014000101 00000000000000000000000000000000000000000000000000000000000000000000000000000000000000000000000000000000000000000N 00000000000NCONT   00    00000000000          00000000000000000000000000000000000000000000 000000000000000A000000000000000000000000000000000000000000000 000000000000000000000000000000000000000     00000000                                                                                                                        000000000000000000
F0010000007749800003000002244786500042505000000000000000000201510140002001ROSA ELVIRA DE LEON JIMENEZ                       C000000000200000000000000000000000100010010000000000000000000000F0010000007749800320151014000101 00000000000000000000000000000000000000000000000000000000000000000000000000000000000000000000000000000000000000000N 00000000000NCONT   00    00000000000          00000000000000000000000000000000000000000000 000000000000000A000000000000000000000000000000000000000000000 000000000000000000000000000000000000000     00000000                                                                                                                        000000000000000000
F0010000007749800004000002244786500023658300000000000000000201510140002001ROSA ELVIRA DE LEON JIMENEZ                       C000000000019200000000000000000000100010010000000000000000000000F0010000007749800420151014000101 00000000000000000000000000000000000000000000000000000000000000000000000000000000000000000000000000000000000000000N 00000000000NCONT   00    00000000000          00000000000000000000000000000000000000000000 000000000000000A000000000000000000000000000000000000000000000 000000000000000000000000000000000000000     00000000                                                                                                                        000000000000000000
F0010000007749800005000002244786500013552100000000000000000201510140002001ROSA ELVIRA DE LEON JIMENEZ                       D000000000019200000000000000000000100010010000000000000000000000F0010000007749800520151014000101 00000000000000000000000000000000000000000000000000000000000000000000000000000000000000000000000000000000000000000N 00000000000NCONT   00    00000000000          00000000000000000000000000000000000000000000 000000000000000A000000000000000000000000000000000000000000000 000000000000000000000000000000000000000     00000000                                                                                                                        000000000000000000
F0010000007749900001000083007900600011050500000000000000000201510140002001EXPRESO ANDINO DE CARGA SA                        D000000001600000000000000000000000100010010000000000000000000000F0010000007749900120151014000101 00000000000000000000000000000000000000000000000000000000000000000000000000000000000000000000000000000000000000000N 00000000000NCONT   00    00000000000          00000000000000000000000000000000000000000000 000000000000000A000000000000000000000000000000000000000000000 000000000000000000000000000000000000000     00000000                                                                                                                        000000000000000000
F0010000007749900002000083007900600041450500000000000000000201510140002001EXPRESO ANDINO DE CARGA SA                        C000000001500000000000000000000000100010010000000000000000000000F0010000007749900220151014000101 00000000000000000000000000000000000000000000000000000000000000000000000000000000000000000000000000000000000000000N 00000000000NCONT   00    00000000000          00000000000000000000000000000000000000000000 000000000000000A000000000000000000000000000000000000000000000 000000000000000000000000000000000000000     00000000                                                                                                                        000000000000000000
F0010000007749900003000083007900600042505000000000000000000201510140002001EXPRESO ANDINO DE CARGA SA                        C000000000100000000000000000000000100010010000000000000000000000F0010000007749900320151014000101 00000000000000000000000000000000000000000000000000000000000000000000000000000000000000000000000000000000000000000N 00000000000NCONT   00    00000000000          00000000000000000000000000000000000000000000 000000000000000A000000000000000000000000000000000000000000000 000000000000000000000000000000000000000     00000000                                                                                                                        000000000000000000
F0010000007749900004000083007900600023658300000000000000000201510140002001EXPRESO ANDINO DE CARGA SA                        C000000000012000000000000000000000100010010000000000000000000000F0010000007749900420151014000101 00000000000000000000000000000000000000000000000000000000000000000000000000000000000000000000000000000000000000000N 00000000000NCONT   00    00000000000          00000000000000000000000000000000000000000000 000000000000000A000000000000000000000000000000000000000000000 000000000000000000000000000000000000000     00000000                                                                                                                        000000000000000000
F0010000007749900005000083007900600013552100000000000000000201510140002001EXPRESO ANDINO DE CARGA SA                        D000000000012000000000000000000000100010010000000000000000000000F0010000007749900520151014000101 00000000000000000000000000000000000000000000000000000000000000000000000000000000000000000000000000000000000000000N 00000000000NCONT   00    00000000000          00000000000000000000000000000000000000000000 000000000000000A000000000000000000000000000000000000000000000 000000000000000000000000000000000000000     00000000                                                                                                                        000000000000000000
F0010000007750000001000083007900600011050500000000000000000201510140002001EXPRESO ANDINO DE CARGA SA                        D000000006100000000000000000000000100010010000000000000000000000F0010000007750000120151014000101 00000000000000000000000000000000000000000000000000000000000000000000000000000000000000000000000000000000000000000N 00000000000NCONT   00    00000000000          00000000000000000000000000000000000000000000 000000000000000A000000000000000000000000000000000000000000000 000000000000000000000000000000000000000     00000000                                                                                                                        000000000000000000
F0010000007750000002000083007900600041450500000000000000000201510140002001EXPRESO ANDINO DE CARGA SA                        C000000006000000000000000000000000100010010000000000000000000000F0010000007750000220151014000101 00000000000000000000000000000000000000000000000000000000000000000000000000000000000000000000000000000000000000000N 00000000000NCONT   00    00000000000          00000000000000000000000000000000000000000000 000000000000000A000000000000000000000000000000000000000000000 000000000000000000000000000000000000000     00000000                                                                                                                        000000000000000000
F0010000007750000003000083007900600042505000000000000000000201510140002001EXPRESO ANDINO DE CARGA SA                        C000000000100000000000000000000000100010010000000000000000000000F0010000007750000320151014000101 00000000000000000000000000000000000000000000000000000000000000000000000000000000000000000000000000000000000000000N 00000000000NCONT   00    00000000000          00000000000000000000000000000000000000000000 000000000000000A000000000000000000000000000000000000000000000 000000000000000000000000000000000000000     00000000                                                                                                                        000000000000000000
F0010000007750000004000083007900600023658300000000000000000201510140002001EXPRESO ANDINO DE CARGA SA                        C000000000048000000000000000000000100010010000000000000000000000F0010000007750000420151014000101 00000000000000000000000000000000000000000000000000000000000000000000000000000000000000000000000000000000000000000N 00000000000NCONT   00    00000000000          00000000000000000000000000000000000000000000 000000000000000A000000000000000000000000000000000000000000000 000000000000000000000000000000000000000     00000000                                                                                                                        000000000000000000
F0010000007750000005000083007900600013552100000000000000000201510140002001EXPRESO ANDINO DE CARGA SA                        D000000000048000000000000000000000100010010000000000000000000000F0010000007750000520151014000101 00000000000000000000000000000000000000000000000000000000000000000000000000000000000000000000000000000000000000000N 00000000000NCONT   00    00000000000          00000000000000000000000000000000000000000000 000000000000000A000000000000000000000000000000000000000000000 000000000000000000000000000000000000000     00000000                                                                                                                        000000000000000000
F0010000007750100001000090013859100011050500000000000000000201510140002001ALUMARKET BARRANQUILLA S.A.S.                     D000000010000000000000000000000000100010010000000000000000000000F0010000007750100120151014000101 00000000000000000000000000000000000000000000000000000000000000000000000000000000000000000000000000000000000000000N 00000000000NCONT   00    00000000000          00000000000000000000000000000000000000000000 000000000000000A000000000000000000000000000000000000000000000 000000000000000000000000000000000000000     00000000                                                                                                                        000000000000000000
F0010000007750100002000090013859100041450500000000000000000201510140002001ALUMARKET BARRANQUILLA S.A.S.                     C000000008500000000000000000000000100010010000000000000000000000F0010000007750100220151014000101 00000000000000000000000000000000000000000000000000000000000000000000000000000000000000000000000000000000000000000N 00000000000NCONT   00    00000000000          00000000000000000000000000000000000000000000 000000000000000A000000000000000000000000000000000000000000000 000000000000000000000000000000000000000     00000000                                                                                                                        000000000000000000
F0010000007750100003000090013859100042505000000000000000000201510140002001ALUMARKET BARRANQUILLA S.A.S.                     C000000001500000000000000000000000100010010000000000000000000000F0010000007750100320151014000101 00000000000000000000000000000000000000000000000000000000000000000000000000000000000000000000000000000000000000000N 00000000000NCONT   00    00000000000          00000000000000000000000000000000000000000000 000000000000000A000000000000000000000000000000000000000000000 000000000000000000000000000000000000000     00000000                                                                                                                        000000000000000000
F0010000007750100004000090013859100023658300000000000000000201510140002001ALUMARKET BARRANQUILLA S.A.S.                     C000000000068000000000000000000000100010010000000000000000000000F0010000007750100420151014000101 00000000000000000000000000000000000000000000000000000000000000000000000000000000000000000000000000000000000000000N 00000000000NCONT   00    00000000000          00000000000000000000000000000000000000000000 000000000000000A000000000000000000000000000000000000000000000 000000000000000000000000000000000000000     00000000                                                                                                                        000000000000000000
F0010000007750100005000090013859100013552100000000000000000201510140002001ALUMARKET BARRANQUILLA S.A.S.                     D000000000068000000000000000000000100010010000000000000000000000F0010000007750100520151014000101 00000000000000000000000000000000000000000000000000000000000000000000000000000000000000000000000000000000000000000N 00000000000NCONT   00    00000000000          00000000000000000000000000000000000000000000 000000000000000A000000000000000000000000000000000000000000000 000000000000000000000000000000000000000     00000000                                                                                                                        000000000000000000
F0010000007750200001000090057362800011050500000000000000000201510140002001COMERCIALIZADORA SUMINISTROS EFICIENTES           D000000006600000000000000000000000100010010000000000000000000000F0010000007750200120151014000101 00000000000000000000000000000000000000000000000000000000000000000000000000000000000000000000000000000000000000000N 00000000000NCONT   00    00000000000          00000000000000000000000000000000000000000000 000000000000000A000000000000000000000000000000000000000000000 000000000000000000000000000000000000000     00000000                                                                                                                        000000000000000000
F0010000007750200002000090057362800041450500000000000000000201510140002001COMERCIALIZADORA SUMINISTROS EFICIENTES           C000000006000000000000000000000000100010010000000000000000000000F0010000007750200220151014000101 00000000000000000000000000000000000000000000000000000000000000000000000000000000000000000000000000000000000000000N 00000000000NCONT   00    00000000000          00000000000000000000000000000000000000000000 000000000000000A000000000000000000000000000000000000000000000 000000000000000000000000000000000000000     00000000                                                                                                                        000000000000000000
F0010000007750200003000090057362800042505000000000000000000201510140002001COMERCIALIZADORA SUMINISTROS EFICIENTES           C000000000600000000000000000000000100010010000000000000000000000F0010000007750200320151014000101 00000000000000000000000000000000000000000000000000000000000000000000000000000000000000000000000000000000000000000N 00000000000NCONT   00    00000000000          00000000000000000000000000000000000000000000 000000000000000A000000000000000000000000000000000000000000000 000000000000000000000000000000000000000     00000000                                                                                                                        000000000000000000
F0010000007750200004000090057362800023658300000000000000000201510140002001COMERCIALIZADORA SUMINISTROS EFICIENTES           C000000000048000000000000000000000100010010000000000000000000000F0010000007750200420151014000101 00000000000000000000000000000000000000000000000000000000000000000000000000000000000000000000000000000000000000000N 00000000000NCONT   00    00000000000          00000000000000000000000000000000000000000000 000000000000000A000000000000000000000000000000000000000000000 000000000000000000000000000000000000000     00000000                                                                                                                        000000000000000000
F0010000007750200005000090057362800013552100000000000000000201510140002001COMERCIALIZADORA SUMINISTROS EFICIENTES           D000000000048000000000000000000000100010010000000000000000000000F0010000007750200520151014000101 00000000000000000000000000000000000000000000000000000000000000000000000000000000000000000000000000000000000000000N 00000000000NCONT   00    00000000000          00000000000000000000000000000000000000000000 000000000000000A000000000000000000000000000000000000000000000 000000000000000000000000000000000000000     00000000                                                                                                                        000000000000000000
F0010000007750300001000080013087700011050500000000000000000201510140002001MUNDIAL DE METALES LTDA                           D000000020000000000000000000000000100010010000000000000000000000F0010000007750300120151014000101 00000000000000000000000000000000000000000000000000000000000000000000000000000000000000000000000000000000000000000N 00000000000NCONT   00    00000000000          00000000000000000000000000000000000000000000 000000000000000A000000000000000000000000000000000000000000000 000000000000000000000000000000000000000     00000000                                                                                                                        000000000000000000
F0010000007750300002000080013087700041450500000000000000000201510140002001MUNDIAL DE METALES LTDA                           C000000015400000000000000000000000100010010000000000000000000000F0010000007750300220151014000101 00000000000000000000000000000000000000000000000000000000000000000000000000000000000000000000000000000000000000000N 00000000000NCONT   00    00000000000          00000000000000000000000000000000000000000000 000000000000000A000000000000000000000000000000000000000000000 000000000000000000000000000000000000000     00000000                                                                                                                        000000000000000000
F0010000007750300003000080013087700042505000000000000000000201510140002001MUNDIAL DE METALES LTDA                           C000000004600000000000000000000000100010010000000000000000000000F0010000007750300320151014000101 00000000000000000000000000000000000000000000000000000000000000000000000000000000000000000000000000000000000000000N 00000000000NCONT   00    00000000000          00000000000000000000000000000000000000000000 000000000000000A000000000000000000000000000000000000000000000 000000000000000000000000000000000000000     00000000                                                                                                                        000000000000000000
F0010000007750300004000080013087700023658300000000000000000201510140002001MUNDIAL DE METALES LTDA                           C000000000123200000000000000000000100010010000000000000000000000F0010000007750300420151014000101 00000000000000000000000000000000000000000000000000000000000000000000000000000000000000000000000000000000000000000N 00000000000NCONT   00    00000000000          00000000000000000000000000000000000000000000 000000000000000A000000000000000000000000000000000000000000000 000000000000000000000000000000000000000     00000000                                                                                                                        000000000000000000
F0010000007750300005000080013087700013552100000000000000000201510140002001MUNDIAL DE METALES LTDA                           D000000000123200000000000000000000100010010000000000000000000000F0010000007750300520151014000101 00000000000000000000000000000000000000000000000000000000000000000000000000000000000000000000000000000000000000000N 00000000000NCONT   00    00000000000          00000000000000000000000000000000000000000000 000000000000000A000000000000000000000000000000000000000000000 000000000000000000000000000000000000000     00000000                                                                                                                        000000000000000000
F0010000007750400001000090052543100011050500000000000000000201510140002001SECRET COLOR SAS                                  D000000000350000000000000000000000100010010000000000000000000000F0010000007750400120151014000101 00000000000000000000000000000000000000000000000000000000000000000000000000000000000000000000000000000000000000000N 00000000000NCONT   00    00000000000          00000000000000000000000000000000000000000000 000000000000000A000000000000000000000000000000000000000000000 000000000000000000000000000000000000000     00000000                                                                                                                        000000000000000000
F0010000007750400002000090052543100041450500000000000000000201510140002001SECRET COLOR SAS                                  C000000000300000000000000000000000100010010000000000000000000000F0010000007750400220151014000101 00000000000000000000000000000000000000000000000000000000000000000000000000000000000000000000000000000000000000000N 00000000000NCONT   00    00000000000          00000000000000000000000000000000000000000000 000000000000000A000000000000000000000000000000000000000000000 000000000000000000000000000000000000000     00000000                                                                                                                        000000000000000000
F0010000007750400003000090052543100042505000000000000000000201510140002001SECRET COLOR SAS                                  C000000000050000000000000000000000100010010000000000000000000000F0010000007750400320151014000101 00000000000000000000000000000000000000000000000000000000000000000000000000000000000000000000000000000000000000000N 00000000000NCONT   00    00000000000          00000000000000000000000000000000000000000000 000000000000000A000000000000000000000000000000000000000000000 000000000000000000000000000000000000000     00000000                                                                                                                        000000000000000000
F0010000007750400004000090052543100023658300000000000000000201510140002001SECRET COLOR SAS                                  C000000000002400000000000000000000100010010000000000000000000000F0010000007750400420151014000101 00000000000000000000000000000000000000000000000000000000000000000000000000000000000000000000000000000000000000000N 00000000000NCONT   00    00000000000          00000000000000000000000000000000000000000000 000000000000000A000000000000000000000000000000000000000000000 000000000000000000000000000000000000000     00000000                                                                                                                        000000000000000000
F0010000007750400005000090052543100013552100000000000000000201510140002001SECRET COLOR SAS                                  D000000000002400000000000000000000100010010000000000000000000000F0010000007750400520151014000101 00000000000000000000000000000000000000000000000000000000000000000000000000000000000000000000000000000000000000000N 00000000000NCONT   00    00000000000          00000000000000000000000000000000000000000000 000000000000000A000000000000000000000000000000000000000000000 000000000000000000000000000000000000000     00000000                                                                                                                        000000000000000000
F0010000007750500001000090052543100011050500000000000000000201510140002001SECRET COLOR SAS                                  D000000000850000000000000000000000100010010000000000000000000000F0010000007750500120151014000101 00000000000000000000000000000000000000000000000000000000000000000000000000000000000000000000000000000000000000000N 00000000000NCONT   00    00000000000          00000000000000000000000000000000000000000000 000000000000000A000000000000000000000000000000000000000000000 000000000000000000000000000000000000000     00000000                                                                                                                        000000000000000000
F0010000007750500002000090052543100041450500000000000000000201510140002001SECRET COLOR SAS                                  C000000000800000000000000000000000100010010000000000000000000000F0010000007750500220151014000101 00000000000000000000000000000000000000000000000000000000000000000000000000000000000000000000000000000000000000000N 00000000000NCONT   00    00000000000          00000000000000000000000000000000000000000000 000000000000000A000000000000000000000000000000000000000000000 000000000000000000000000000000000000000     00000000                                                                                                                        000000000000000000
F0010000007750500003000090052543100042505000000000000000000201510140002001SECRET COLOR SAS                                  C000000000050000000000000000000000100010010000000000000000000000F0010000007750500320151014000101 00000000000000000000000000000000000000000000000000000000000000000000000000000000000000000000000000000000000000000N 00000000000NCONT   00    00000000000          00000000000000000000000000000000000000000000 000000000000000A000000000000000000000000000000000000000000000 000000000000000000000000000000000000000     00000000                                                                                                                        000000000000000000
F0010000007750500004000090052543100023658300000000000000000201510140002001SECRET COLOR SAS                                  C000000000006400000000000000000000100010010000000000000000000000F0010000007750500420151014000101 00000000000000000000000000000000000000000000000000000000000000000000000000000000000000000000000000000000000000000N 00000000000NCONT   00    00000000000          00000000000000000000000000000000000000000000 000000000000000A000000000000000000000000000000000000000000000 000000000000000000000000000000000000000     00000000                                                                                                                        000000000000000000
F0010000007750500005000090052543100013552100000000000000000201510140002001SECRET COLOR SAS                                  D000000000006400000000000000000000100010010000000000000000000000F0010000007750500520151014000101 00000000000000000000000000000000000000000000000000000000000000000000000000000000000000000000000000000000000000000N 00000000000NCONT   00    00000000000          00000000000000000000000000000000000000000000 000000000000000A000000000000000000000000000000000000000000000 000000000000000000000000000000000000000     00000000                                                                                                                        000000000000000000
F0010000007750600001000090052543100011050500000000000000000201510140002001SECRET COLOR SAS                                  D000000000850000000000000000000000100010010000000000000000000000F0010000007750600120151014000101 00000000000000000000000000000000000000000000000000000000000000000000000000000000000000000000000000000000000000000N 00000000000NCONT   00    00000000000          00000000000000000000000000000000000000000000 000000000000000A000000000000000000000000000000000000000000000 000000000000000000000000000000000000000     00000000                                                                                                                        000000000000000000
F0010000007750600002000090052543100041450500000000000000000201510140002001SECRET COLOR SAS                                  C000000000800000000000000000000000100010010000000000000000000000F0010000007750600220151014000101 00000000000000000000000000000000000000000000000000000000000000000000000000000000000000000000000000000000000000000N 00000000000NCONT   00    00000000000          00000000000000000000000000000000000000000000 000000000000000A000000000000000000000000000000000000000000000 000000000000000000000000000000000000000     00000000                                                                                                                        000000000000000000
F0010000007750600003000090052543100042505000000000000000000201510140002001SECRET COLOR SAS                                  C000000000050000000000000000000000100010010000000000000000000000F0010000007750600320151014000101 00000000000000000000000000000000000000000000000000000000000000000000000000000000000000000000000000000000000000000N 00000000000NCONT   00    00000000000          00000000000000000000000000000000000000000000 000000000000000A000000000000000000000000000000000000000000000 000000000000000000000000000000000000000     00000000                                                                                                                        000000000000000000
F0010000007750600004000090052543100023658300000000000000000201510140002001SECRET COLOR SAS                                  C000000000006400000000000000000000100010010000000000000000000000F0010000007750600420151014000101 00000000000000000000000000000000000000000000000000000000000000000000000000000000000000000000000000000000000000000N 00000000000NCONT   00    00000000000          00000000000000000000000000000000000000000000 000000000000000A000000000000000000000000000000000000000000000 000000000000000000000000000000000000000     00000000                                                                                                                        000000000000000000
