F0010000008441600001000005160544500011050500000000000000000201604020002001METAL MUEBLES DE LA COSTA                         D000000001550000000000000000000000100010010000000000000000000000F0010000008441600120160402000101 00000000000000000000000000000000000000000000000000000000000000000000000000000000000000000000000000000000000000000N 00000000000NCONT   00    00000000000          00000000000000000000000000000000000000000000 000000000000000A000000000000000000000000000000000000000000000 000000000000000000000000000000000000000     00000000                                                                                                                        000000000000000000
F0010000008441600002000005160544500041450500000000000000000201604020002001METAL MUEBLES DE LA COSTA                         C000000001400000000000000000000000100010010000000000000000000000F0010000008441600220160402000101 00000000000000000000000000000000000000000000000000000000000000000000000000000000000000000000000000000000000000000N 00000000000NCONT   00    00000000000          00000000000000000000000000000000000000000000 000000000000000A000000000000000000000000000000000000000000000 000000000000000000000000000000000000000     00000000                                                                                                                        000000000000000000
F0010000008441600003000005160544500042505000000000000000000201604020002001METAL MUEBLES DE LA COSTA                         C000000000150000000000000000000000100010010000000000000000000000F0010000008441600320160402000101 00000000000000000000000000000000000000000000000000000000000000000000000000000000000000000000000000000000000000000N 00000000000NCONT   00    00000000000          00000000000000000000000000000000000000000000 000000000000000A000000000000000000000000000000000000000000000 000000000000000000000000000000000000000     00000000                                                                                                                        000000000000000000
F0010000008441600004000005160544500023658300000000000000000201604020002001METAL MUEBLES DE LA COSTA                         C000000000011200000000000000000000100010010000000000000000000000F0010000008441600420160402000101 00000000000000000000000000000000000000000000000000000000000000000000000000000000000000000000000000000000000000000N 00000000000NCONT   00    00000000000          00000000000000000000000000000000000000000000 000000000000000A000000000000000000000000000000000000000000000 000000000000000000000000000000000000000     00000000                                                                                                                        000000000000000000
F0010000008441600005000005160544500013552100000000000000000201604020002001METAL MUEBLES DE LA COSTA                         D000000000011200000000000000000000100010010000000000000000000000F0010000008441600520160402000101 00000000000000000000000000000000000000000000000000000000000000000000000000000000000000000000000000000000000000000N 00000000000NCONT   00    00000000000          00000000000000000000000000000000000000000000 000000000000000A000000000000000000000000000000000000000000000 000000000000000000000000000000000000000     00000000                                                                                                                        000000000000000000
F0010000008441700001000000866839700011050500000000000000000201604020002001GUSTAVO BERMEJO ..                                D000000011000000000000000000000000100010010000000000000000000000F0010000008441700120160402000101 00000000000000000000000000000000000000000000000000000000000000000000000000000000000000000000000000000000000000000N 00000000000NCONT   00    00000000000          00000000000000000000000000000000000000000000 000000000000000A000000000000000000000000000000000000000000000 000000000000000000000000000000000000000     00000000                                                                                                                        000000000000000000
F0010000008441700002000000866839700041450500000000000000000201604020002001GUSTAVO BERMEJO ..                                C000000010000000000000000000000000100010010000000000000000000000F0010000008441700220160402000101 00000000000000000000000000000000000000000000000000000000000000000000000000000000000000000000000000000000000000000N 00000000000NCONT   00    00000000000          00000000000000000000000000000000000000000000 000000000000000A000000000000000000000000000000000000000000000 000000000000000000000000000000000000000     00000000                                                                                                                        000000000000000000
F0010000008441700003000000866839700042505000000000000000000201604020002001GUSTAVO BERMEJO ..                                C000000001000000000000000000000000100010010000000000000000000000F0010000008441700320160402000101 00000000000000000000000000000000000000000000000000000000000000000000000000000000000000000000000000000000000000000N 00000000000NCONT   00    00000000000          00000000000000000000000000000000000000000000 000000000000000A000000000000000000000000000000000000000000000 000000000000000000000000000000000000000     00000000                                                                                                                        000000000000000000
F0010000008441700004000000866839700023658300000000000000000201604020002001GUSTAVO BERMEJO ..                                C000000000080000000000000000000000100010010000000000000000000000F0010000008441700420160402000101 00000000000000000000000000000000000000000000000000000000000000000000000000000000000000000000000000000000000000000N 00000000000NCONT   00    00000000000          00000000000000000000000000000000000000000000 000000000000000A000000000000000000000000000000000000000000000 000000000000000000000000000000000000000     00000000                                                                                                                        000000000000000000
F0010000008441700005000000866839700013552100000000000000000201604020002001GUSTAVO BERMEJO ..                                D000000000080000000000000000000000100010010000000000000000000000F0010000008441700520160402000101 00000000000000000000000000000000000000000000000000000000000000000000000000000000000000000000000000000000000000000N 00000000000NCONT   00    00000000000          00000000000000000000000000000000000000000000 000000000000000A000000000000000000000000000000000000000000000 000000000000000000000000000000000000000     00000000                                                                                                                        000000000000000000
F0010000008441800001000003265780700011050500000000000000000201604020002001ZUNILDA GUERRERO                                  D000000002000000000000000000000000100010010000000000000000000000F0010000008441800120160402000101 00000000000000000000000000000000000000000000000000000000000000000000000000000000000000000000000000000000000000000N 00000000000NCONT   00    00000000000          00000000000000000000000000000000000000000000 000000000000000A000000000000000000000000000000000000000000000 000000000000000000000000000000000000000     00000000                                                                                                                        000000000000000000
F0010000008441800002000003265780700041450500000000000000000201604020002001ZUNILDA GUERRERO                                  C000000001500000000000000000000000100010010000000000000000000000F0010000008441800220160402000101 00000000000000000000000000000000000000000000000000000000000000000000000000000000000000000000000000000000000000000N 00000000000NCONT   00    00000000000          00000000000000000000000000000000000000000000 000000000000000A000000000000000000000000000000000000000000000 000000000000000000000000000000000000000     00000000                                                                                                                        000000000000000000
F0010000008441800003000003265780700042505000000000000000000201604020002001ZUNILDA GUERRERO                                  C000000000500000000000000000000000100010010000000000000000000000F0010000008441800320160402000101 00000000000000000000000000000000000000000000000000000000000000000000000000000000000000000000000000000000000000000N 00000000000NCONT   00    00000000000          00000000000000000000000000000000000000000000 000000000000000A000000000000000000000000000000000000000000000 000000000000000000000000000000000000000     00000000                                                                                                                        000000000000000000
F0010000008441800004000003265780700023658300000000000000000201604020002001ZUNILDA GUERRERO                                  C000000000012000000000000000000000100010010000000000000000000000F0010000008441800420160402000101 00000000000000000000000000000000000000000000000000000000000000000000000000000000000000000000000000000000000000000N 00000000000NCONT   00    00000000000          00000000000000000000000000000000000000000000 000000000000000A000000000000000000000000000000000000000000000 000000000000000000000000000000000000000     00000000                                                                                                                        000000000000000000
F0010000008441800005000003265780700013552100000000000000000201604020002001ZUNILDA GUERRERO                                  D000000000012000000000000000000000100010010000000000000000000000F0010000008441800520160402000101 00000000000000000000000000000000000000000000000000000000000000000000000000000000000000000000000000000000000000000N 00000000000NCONT   00    00000000000          00000000000000000000000000000000000000000000 000000000000000A000000000000000000000000000000000000000000000 000000000000000000000000000000000000000     00000000                                                                                                                        000000000000000000
