F0010000008315900001000000688399000013050500000000000000000201603010002001FERNANDO BEDOYA MANCHEGO                          D000000035000000000000000000000000100010010000000000000000000000F0010000008315900120160301000101 00000000000000000000000000000000000000000000000000000000000000000000000000000000000000000000000000000000000000000N 00000000000NCONT   00    00000000000          00000000000000000000000000000000000000000000 000000000000000A000000000000000000000000000000000000000000000 000000000000000000000000000000000000000     00000000                                                                                                                        000000000000000000
F0010000008315900002000000688399000041450500000000000000000201603010002001FERNANDO BEDOYA MANCHEGO                          C000000034000000000000000000000000100010010000000000000000000000F0010000008315900220160301000101 00000000000000000000000000000000000000000000000000000000000000000000000000000000000000000000000000000000000000000N 00000000000NCONT   00    00000000000          00000000000000000000000000000000000000000000 000000000000000A000000000000000000000000000000000000000000000 000000000000000000000000000000000000000     00000000                                                                                                                        000000000000000000
F0010000008315900003000000688399000042505000000000000000000201603010002001FERNANDO BEDOYA MANCHEGO                          C000000001000000000000000000000000100010010000000000000000000000F0010000008315900320160301000101 00000000000000000000000000000000000000000000000000000000000000000000000000000000000000000000000000000000000000000N 00000000000NCONT   00    00000000000          00000000000000000000000000000000000000000000 000000000000000A000000000000000000000000000000000000000000000 000000000000000000000000000000000000000     00000000                                                                                                                        000000000000000000
F0010000008315900004000000688399000023658300000000000000000201603010002001FERNANDO BEDOYA MANCHEGO                          C000000000272000000000000000000000100010010000000000000000000000F0010000008315900420160301000101 00000000000000000000000000000000000000000000000000000000000000000000000000000000000000000000000000000000000000000N 00000000000NCONT   00    00000000000          00000000000000000000000000000000000000000000 000000000000000A000000000000000000000000000000000000000000000 000000000000000000000000000000000000000     00000000                                                                                                                        000000000000000000
F0010000008315900005000000688399000013552100000000000000000201603010002001FERNANDO BEDOYA MANCHEGO                          D000000000272000000000000000000000100010010000000000000000000000F0010000008315900520160301000101 00000000000000000000000000000000000000000000000000000000000000000000000000000000000000000000000000000000000000000N 00000000000NCONT   00    00000000000          00000000000000000000000000000000000000000000 000000000000000A000000000000000000000000000000000000000000000 000000000000000000000000000000000000000     00000000                                                                                                                        000000000000000000
F0010000008316000001000090013324200013050500000000000000000201603010002001PLASTICOHEN E.U                                   D000000061700700000000000000000000100010010000000000000000000000F0010000008316000120160301000101 00000000000000000000000000000000000000000000000000000000000000000000000000000000000000000000000000000000000000000N 00000000000NCONT   00    00000000000          00000000000000000000000000000000000000000000 000000000000000A000000000000000000000000000000000000000000000 000000000000000000000000000000000000000     00000000                                                                                                                        000000000000000000
F0010000008316000002000090013324200041450500000000000000000201603010002001PLASTICOHEN E.U                                   C000000057700700000000000000000000100010010000000000000000000000F0010000008316000220160301000101 00000000000000000000000000000000000000000000000000000000000000000000000000000000000000000000000000000000000000000N 00000000000NCONT   00    00000000000          00000000000000000000000000000000000000000000 000000000000000A000000000000000000000000000000000000000000000 000000000000000000000000000000000000000     00000000                                                                                                                        000000000000000000
F0010000008316000003000090013324200042505000000000000000000201603010002001PLASTICOHEN E.U                                   C000000004000000000000000000000000100010010000000000000000000000F0010000008316000320160301000101 00000000000000000000000000000000000000000000000000000000000000000000000000000000000000000000000000000000000000000N 00000000000NCONT   00    00000000000          00000000000000000000000000000000000000000000 000000000000000A000000000000000000000000000000000000000000000 000000000000000000000000000000000000000     00000000                                                                                                                        000000000000000000
F0010000008316000004000090013324200023658300000000000000000201603010002001PLASTICOHEN E.U                                   C000000000461600000000000000000000100010010000000000000000000000F0010000008316000420160301000101 00000000000000000000000000000000000000000000000000000000000000000000000000000000000000000000000000000000000000000N 00000000000NCONT   00    00000000000          00000000000000000000000000000000000000000000 000000000000000A000000000000000000000000000000000000000000000 000000000000000000000000000000000000000     00000000                                                                                                                        000000000000000000
F0010000008316000005000090013324200013552100000000000000000201603010002001PLASTICOHEN E.U                                   D000000000461600000000000000000000100010010000000000000000000000F0010000008316000520160301000101 00000000000000000000000000000000000000000000000000000000000000000000000000000000000000000000000000000000000000000N 00000000000NCONT   00    00000000000          00000000000000000000000000000000000000000000 000000000000000A000000000000000000000000000000000000000000000 000000000000000000000000000000000000000     00000000                                                                                                                        000000000000000000
F0010000008316100001000090049854300013050500000000000000000201603010002001TRAPOS INDUSTRIALES DE COLOMBIA SAS               D000000190506700000000000000000000100010010000000000000000000000F0010000008316100120160301000101 00000000000000000000000000000000000000000000000000000000000000000000000000000000000000000000000000000000000000000N 00000000000NCONT   00    00000000000          00000000000000000000000000000000000000000000 000000000000000A000000000000000000000000000000000000000000000 000000000000000000000000000000000000000     00000000                                                                                                                        000000000000000000
F0010000008316100002000090049854300041450500000000000000000201603010002001TRAPOS INDUSTRIALES DE COLOMBIA SAS               C000000175920000000000000000000000100010010000000000000000000000F0010000008316100220160301000101 00000000000000000000000000000000000000000000000000000000000000000000000000000000000000000000000000000000000000000N 00000000000NCONT   00    00000000000          00000000000000000000000000000000000000000000 000000000000000A000000000000000000000000000000000000000000000 000000000000000000000000000000000000000     00000000                                                                                                                        000000000000000000
F0010000008316100003000090049854300042505000000000000000000201603010002001TRAPOS INDUSTRIALES DE COLOMBIA SAS               C000000014586700000000000000000000100010010000000000000000000000F0010000008316100320160301000101 00000000000000000000000000000000000000000000000000000000000000000000000000000000000000000000000000000000000000000N 00000000000NCONT   00    00000000000          00000000000000000000000000000000000000000000 000000000000000A000000000000000000000000000000000000000000000 000000000000000000000000000000000000000     00000000                                                                                                                        000000000000000000
F0010000008316100004000090049854300023658300000000000000000201603010002001TRAPOS INDUSTRIALES DE COLOMBIA SAS               C000000001407400000000000000000000100010010000000000000000000000F0010000008316100420160301000101 00000000000000000000000000000000000000000000000000000000000000000000000000000000000000000000000000000000000000000N 00000000000NCONT   00    00000000000          00000000000000000000000000000000000000000000 000000000000000A000000000000000000000000000000000000000000000 000000000000000000000000000000000000000     00000000                                                                                                                        000000000000000000
F0010000008316100005000090049854300013552100000000000000000201603010002001TRAPOS INDUSTRIALES DE COLOMBIA SAS               D000000001407400000000000000000000100010010000000000000000000000F0010000008316100520160301000101 00000000000000000000000000000000000000000000000000000000000000000000000000000000000000000000000000000000000000000N 00000000000NCONT   00    00000000000          00000000000000000000000000000000000000000000 000000000000000A000000000000000000000000000000000000000000000 000000000000000000000000000000000000000     00000000                                                                                                                        000000000000000000
F0010000008316200001000000866048200011050500000000000000000201603010002001REGINALDO TURIZO                                  D000000003000000000000000000000000100010010000000000000000000000F0010000008316200120160301000101 00000000000000000000000000000000000000000000000000000000000000000000000000000000000000000000000000000000000000000N 00000000000NCONT   00    00000000000          00000000000000000000000000000000000000000000 000000000000000A000000000000000000000000000000000000000000000 000000000000000000000000000000000000000     00000000                                                                                                                        000000000000000000
F0010000008316200002000000866048200041450500000000000000000201603010002001REGINALDO TURIZO                                  C000000002000000000000000000000000100010010000000000000000000000F0010000008316200220160301000101 00000000000000000000000000000000000000000000000000000000000000000000000000000000000000000000000000000000000000000N 00000000000NCONT   00    00000000000          00000000000000000000000000000000000000000000 000000000000000A000000000000000000000000000000000000000000000 000000000000000000000000000000000000000     00000000                                                                                                                        000000000000000000
F0010000008316200003000000866048200042505000000000000000000201603010002001REGINALDO TURIZO                                  C000000001000000000000000000000000100010010000000000000000000000F0010000008316200320160301000101 00000000000000000000000000000000000000000000000000000000000000000000000000000000000000000000000000000000000000000N 00000000000NCONT   00    00000000000          00000000000000000000000000000000000000000000 000000000000000A000000000000000000000000000000000000000000000 000000000000000000000000000000000000000     00000000                                                                                                                        000000000000000000
F0010000008316200004000000866048200023658300000000000000000201603010002001REGINALDO TURIZO                                  C000000000016000000000000000000000100010010000000000000000000000F0010000008316200420160301000101 00000000000000000000000000000000000000000000000000000000000000000000000000000000000000000000000000000000000000000N 00000000000NCONT   00    00000000000          00000000000000000000000000000000000000000000 000000000000000A000000000000000000000000000000000000000000000 000000000000000000000000000000000000000     00000000                                                                                                                        000000000000000000
F0010000008316200005000000866048200013552100000000000000000201603010002001REGINALDO TURIZO                                  D000000000016000000000000000000000100010010000000000000000000000F0010000008316200520160301000101 00000000000000000000000000000000000000000000000000000000000000000000000000000000000000000000000000000000000000000N 00000000000NCONT   00    00000000000          00000000000000000000000000000000000000000000 000000000000000A000000000000000000000000000000000000000000000 000000000000000000000000000000000000000     00000000                                                                                                                        000000000000000000
F0010000008316300001000083007900600013050500000000000000000201603010002001EXPRESO ANDINO DE CARGA SA                        D000000024200000000000000000000000100010010000000000000000000000F0010000008316300120160301000101 00000000000000000000000000000000000000000000000000000000000000000000000000000000000000000000000000000000000000000N 00000000000NCONT   00    00000000000          00000000000000000000000000000000000000000000 000000000000000A000000000000000000000000000000000000000000000 000000000000000000000000000000000000000     00000000                                                                                                                        000000000000000000
F0010000008316300002000083007900600041450500000000000000000201603010002001EXPRESO ANDINO DE CARGA SA                        C000000024000000000000000000000000100010010000000000000000000000F0010000008316300220160301000101 00000000000000000000000000000000000000000000000000000000000000000000000000000000000000000000000000000000000000000N 00000000000NCONT   00    00000000000          00000000000000000000000000000000000000000000 000000000000000A000000000000000000000000000000000000000000000 000000000000000000000000000000000000000     00000000                                                                                                                        000000000000000000
F0010000008316300003000083007900600042505000000000000000000201603010002001EXPRESO ANDINO DE CARGA SA                        C000000000200000000000000000000000100010010000000000000000000000F0010000008316300320160301000101 00000000000000000000000000000000000000000000000000000000000000000000000000000000000000000000000000000000000000000N 00000000000NCONT   00    00000000000          00000000000000000000000000000000000000000000 000000000000000A000000000000000000000000000000000000000000000 000000000000000000000000000000000000000     00000000                                                                                                                        000000000000000000
F0010000008316300004000083007900600023658300000000000000000201603010002001EXPRESO ANDINO DE CARGA SA                        C000000000192000000000000000000000100010010000000000000000000000F0010000008316300420160301000101 00000000000000000000000000000000000000000000000000000000000000000000000000000000000000000000000000000000000000000N 00000000000NCONT   00    00000000000          00000000000000000000000000000000000000000000 000000000000000A000000000000000000000000000000000000000000000 000000000000000000000000000000000000000     00000000                                                                                                                        000000000000000000
F0010000008316300005000083007900600013552100000000000000000201603010002001EXPRESO ANDINO DE CARGA SA                        D000000000192000000000000000000000100010010000000000000000000000F0010000008316300520160301000101 00000000000000000000000000000000000000000000000000000000000000000000000000000000000000000000000000000000000000000N 00000000000NCONT   00    00000000000          00000000000000000000000000000000000000000000 000000000000000A000000000000000000000000000000000000000000000 000000000000000000000000000000000000000     00000000                                                                                                                        000000000000000000
F0010000008316400001000090059316900013050500000000000000000201603010002001DISTRIBUCIONES Y REPRESENTACIONES MANA            D000000008220000000000000000000000100010010000000000000000000000F0010000008316400120160301000101 00000000000000000000000000000000000000000000000000000000000000000000000000000000000000000000000000000000000000000N 00000000000NCONT   00    00000000000          00000000000000000000000000000000000000000000 000000000000000A000000000000000000000000000000000000000000000 000000000000000000000000000000000000000     00000000                                                                                                                        000000000000000000
F0010000008316400002000090059316900041450500000000000000000201603010002001DISTRIBUCIONES Y REPRESENTACIONES MANA            C000000007140000000000000000000000100010010000000000000000000000F0010000008316400220160301000101 00000000000000000000000000000000000000000000000000000000000000000000000000000000000000000000000000000000000000000N 00000000000NCONT   00    00000000000          00000000000000000000000000000000000000000000 000000000000000A000000000000000000000000000000000000000000000 000000000000000000000000000000000000000     00000000                                                                                                                        000000000000000000
F0010000008316400003000090059316900042505000000000000000000201603010002001DISTRIBUCIONES Y REPRESENTACIONES MANA            C000000001080000000000000000000000100010010000000000000000000000F0010000008316400320160301000101 00000000000000000000000000000000000000000000000000000000000000000000000000000000000000000000000000000000000000000N 00000000000NCONT   00    00000000000          00000000000000000000000000000000000000000000 000000000000000A000000000000000000000000000000000000000000000 000000000000000000000000000000000000000     00000000                                                                                                                        000000000000000000
F0010000008316400004000090059316900023658300000000000000000201603010002001DISTRIBUCIONES Y REPRESENTACIONES MANA            C000000000057100000000000000000000100010010000000000000000000000F0010000008316400420160301000101 00000000000000000000000000000000000000000000000000000000000000000000000000000000000000000000000000000000000000000N 00000000000NCONT   00    00000000000          00000000000000000000000000000000000000000000 000000000000000A000000000000000000000000000000000000000000000 000000000000000000000000000000000000000     00000000                                                                                                                        000000000000000000
F0010000008316400005000090059316900013552100000000000000000201603010002001DISTRIBUCIONES Y REPRESENTACIONES MANA            D000000000057100000000000000000000100010010000000000000000000000F0010000008316400520160301000101 00000000000000000000000000000000000000000000000000000000000000000000000000000000000000000000000000000000000000000N 00000000000NCONT   00    00000000000          00000000000000000000000000000000000000000000 000000000000000A000000000000000000000000000000000000000000000 000000000000000000000000000000000000000     00000000                                                                                                                        000000000000000000
F0010000008316500001000090002525100013050500000000000000000201603010002001VINILOS Y PEGANTES                                D000000004245900000000000000000000100010010000000000000000000000F0010000008316500120160301000101 00000000000000000000000000000000000000000000000000000000000000000000000000000000000000000000000000000000000000000N 00000000000NCONT   00    00000000000          00000000000000000000000000000000000000000000 000000000000000A000000000000000000000000000000000000000000000 000000000000000000000000000000000000000     00000000                                                                                                                        000000000000000000
F0010000008316500002000090002525100041450500000000000000000201603010002001VINILOS Y PEGANTES                                C000000003960000000000000000000000100010010000000000000000000000F0010000008316500220160301000101 00000000000000000000000000000000000000000000000000000000000000000000000000000000000000000000000000000000000000000N 00000000000NCONT   00    00000000000          00000000000000000000000000000000000000000000 000000000000000A000000000000000000000000000000000000000000000 000000000000000000000000000000000000000     00000000                                                                                                                        000000000000000000
F0010000008316500003000090002525100042505000000000000000000201603010002001VINILOS Y PEGANTES                                C000000000285900000000000000000000100010010000000000000000000000F0010000008316500320160301000101 00000000000000000000000000000000000000000000000000000000000000000000000000000000000000000000000000000000000000000N 00000000000NCONT   00    00000000000          00000000000000000000000000000000000000000000 000000000000000A000000000000000000000000000000000000000000000 000000000000000000000000000000000000000     00000000                                                                                                                        000000000000000000
F0010000008316500004000090002525100023658300000000000000000201603010002001VINILOS Y PEGANTES                                C000000000031700000000000000000000100010010000000000000000000000F0010000008316500420160301000101 00000000000000000000000000000000000000000000000000000000000000000000000000000000000000000000000000000000000000000N 00000000000NCONT   00    00000000000          00000000000000000000000000000000000000000000 000000000000000A000000000000000000000000000000000000000000000 000000000000000000000000000000000000000     00000000                                                                                                                        000000000000000000
F0010000008316500005000090002525100013552100000000000000000201603010002001VINILOS Y PEGANTES                                D000000000031700000000000000000000100010010000000000000000000000F0010000008316500520160301000101 00000000000000000000000000000000000000000000000000000000000000000000000000000000000000000000000000000000000000000N 00000000000NCONT   00    00000000000          00000000000000000000000000000000000000000000 000000000000000A000000000000000000000000000000000000000000000 000000000000000000000000000000000000000     00000000                                                                                                                        000000000000000000
F0010000008316600001000000376399500013050500000000000000000201603010002001FORDPLAST                                         D000000004950000000000000000000000100010010000000000000000000000F0010000008316600120160301000101 00000000000000000000000000000000000000000000000000000000000000000000000000000000000000000000000000000000000000000N 00000000000NCONT   00    00000000000          00000000000000000000000000000000000000000000 000000000000000A000000000000000000000000000000000000000000000 000000000000000000000000000000000000000     00000000                                                                                                                        000000000000000000
F0010000008316600002000000376399500041450500000000000000000201603010002001FORDPLAST                                         C000000004020000000000000000000000100010010000000000000000000000F0010000008316600220160301000101 00000000000000000000000000000000000000000000000000000000000000000000000000000000000000000000000000000000000000000N 00000000000NCONT   00    00000000000          00000000000000000000000000000000000000000000 000000000000000A000000000000000000000000000000000000000000000 000000000000000000000000000000000000000     00000000                                                                                                                        000000000000000000
F0010000008316600003000000376399500042505000000000000000000201603010002001FORDPLAST                                         C000000000930000000000000000000000100010010000000000000000000000F0010000008316600320160301000101 00000000000000000000000000000000000000000000000000000000000000000000000000000000000000000000000000000000000000000N 00000000000NCONT   00    00000000000          00000000000000000000000000000000000000000000 000000000000000A000000000000000000000000000000000000000000000 000000000000000000000000000000000000000     00000000                                                                                                                        000000000000000000
F0010000008316600004000000376399500023658300000000000000000201603010002001FORDPLAST                                         C000000000032200000000000000000000100010010000000000000000000000F0010000008316600420160301000101 00000000000000000000000000000000000000000000000000000000000000000000000000000000000000000000000000000000000000000N 00000000000NCONT   00    00000000000          00000000000000000000000000000000000000000000 000000000000000A000000000000000000000000000000000000000000000 000000000000000000000000000000000000000     00000000                                                                                                                        000000000000000000
F0010000008316600005000000376399500013552100000000000000000201603010002001FORDPLAST                                         D000000000032200000000000000000000100010010000000000000000000000F0010000008316600520160301000101 00000000000000000000000000000000000000000000000000000000000000000000000000000000000000000000000000000000000000000N 00000000000NCONT   00    00000000000          00000000000000000000000000000000000000000000 000000000000000A000000000000000000000000000000000000000000000 000000000000000000000000000000000000000     00000000                                                                                                                        000000000000000000
F0010000008316700001000080200962900013050500000000000000000201603010002001ACERO & MALLAS S.A.S.                             D000000009540000000000000000000000100010010000000000000000000000F0010000008316700120160301000101 00000000000000000000000000000000000000000000000000000000000000000000000000000000000000000000000000000000000000000N 00000000000NCONT   00    00000000000          00000000000000000000000000000000000000000000 000000000000000A000000000000000000000000000000000000000000000 000000000000000000000000000000000000000     00000000                                                                                                                        000000000000000000
F0010000008316700002000080200962900041450500000000000000000201603010002001ACERO & MALLAS S.A.S.                             C000000007996000000000000000000000100010010000000000000000000000F0010000008316700220160301000101 00000000000000000000000000000000000000000000000000000000000000000000000000000000000000000000000000000000000000000N 00000000000NCONT   00    00000000000          00000000000000000000000000000000000000000000 000000000000000A000000000000000000000000000000000000000000000 000000000000000000000000000000000000000     00000000                                                                                                                        000000000000000000
F0010000008316700003000080200962900042505000000000000000000201603010002001ACERO & MALLAS S.A.S.                             C000000001544000000000000000000000100010010000000000000000000000F0010000008316700320160301000101 00000000000000000000000000000000000000000000000000000000000000000000000000000000000000000000000000000000000000000N 00000000000NCONT   00    00000000000          00000000000000000000000000000000000000000000 000000000000000A000000000000000000000000000000000000000000000 000000000000000000000000000000000000000     00000000                                                                                                                        000000000000000000
F0010000008316700004000080200962900023658300000000000000000201603010002001ACERO & MALLAS S.A.S.                             C000000000064000000000000000000000100010010000000000000000000000F0010000008316700420160301000101 00000000000000000000000000000000000000000000000000000000000000000000000000000000000000000000000000000000000000000N 00000000000NCONT   00    00000000000          00000000000000000000000000000000000000000000 000000000000000A000000000000000000000000000000000000000000000 000000000000000000000000000000000000000     00000000                                                                                                                        000000000000000000
F0010000008316700005000080200962900013552100000000000000000201603010002001ACERO & MALLAS S.A.S.                             D000000000064000000000000000000000100010010000000000000000000000F0010000008316700520160301000101 00000000000000000000000000000000000000000000000000000000000000000000000000000000000000000000000000000000000000000N 00000000000NCONT   00    00000000000          00000000000000000000000000000000000000000000 000000000000000A000000000000000000000000000000000000000000000 000000000000000000000000000000000000000     00000000                                                                                                                        000000000000000000
F0010000008316800001000002257933700013050500000000000000000201603010002001ROSA MARGARITA  PUCCINI SU HERRAMIENTAS Y ELECTRICD000000002683100000000000000000000100010010000000000000000000000F0010000008316800120160301000101 00000000000000000000000000000000000000000000000000000000000000000000000000000000000000000000000000000000000000000N 00000000000NCONT   00    00000000000          00000000000000000000000000000000000000000000 000000000000000A000000000000000000000000000000000000000000000 000000000000000000000000000000000000000     00000000                                                                                                                        000000000000000000
F0010000008316800002000002257933700041450500000000000000000201603010002001ROSA MARGARITA  PUCCINI SU HERRAMIENTAS Y ELECTRICC000000002280000000000000000000000100010010000000000000000000000F0010000008316800220160301000101 00000000000000000000000000000000000000000000000000000000000000000000000000000000000000000000000000000000000000000N 00000000000NCONT   00    00000000000          00000000000000000000000000000000000000000000 000000000000000A000000000000000000000000000000000000000000000 000000000000000000000000000000000000000     00000000                                                                                                                        000000000000000000
F0010000008316800003000002257933700042505000000000000000000201603010002001ROSA MARGARITA  PUCCINI SU HERRAMIENTAS Y ELECTRICC000000000403100000000000000000000100010010000000000000000000000F0010000008316800320160301000101 00000000000000000000000000000000000000000000000000000000000000000000000000000000000000000000000000000000000000000N 00000000000NCONT   00    00000000000          00000000000000000000000000000000000000000000 000000000000000A000000000000000000000000000000000000000000000 000000000000000000000000000000000000000     00000000                                                                                                                        000000000000000000
F0010000008316800004000002257933700023658300000000000000000201603010002001ROSA MARGARITA  PUCCINI SU HERRAMIENTAS Y ELECTRICC000000000018200000000000000000000100010010000000000000000000000F0010000008316800420160301000101 00000000000000000000000000000000000000000000000000000000000000000000000000000000000000000000000000000000000000000N 00000000000NCONT   00    00000000000          00000000000000000000000000000000000000000000 000000000000000A000000000000000000000000000000000000000000000 000000000000000000000000000000000000000     00000000                                                                                                                        000000000000000000
F0010000008316800005000002257933700013552100000000000000000201603010002001ROSA MARGARITA  PUCCINI SU HERRAMIENTAS Y ELECTRICD000000000018200000000000000000000100010010000000000000000000000F0010000008316800520160301000101 00000000000000000000000000000000000000000000000000000000000000000000000000000000000000000000000000000000000000000N 00000000000NCONT   00    00000000000          00000000000000000000000000000000000000000000 000000000000000A000000000000000000000000000000000000000000000 000000000000000000000000000000000000000     00000000                                                                                                                        000000000000000000
F0010000008316900001000089070997800013050500000000000000000201603010002001CENTRAL DE TORNILLOS                              D000000022020000000000000000000000100010010000000000000000000000F0010000008316900120160301000101 00000000000000000000000000000000000000000000000000000000000000000000000000000000000000000000000000000000000000000N 00000000000NCONT   00    00000000000          00000000000000000000000000000000000000000000 000000000000000A000000000000000000000000000000000000000000000 000000000000000000000000000000000000000     00000000                                                                                                                        000000000000000000
F0010000008316900002000089070997800041450500000000000000000201603010002001CENTRAL DE TORNILLOS                              C000000020320000000000000000000000100010010000000000000000000000F0010000008316900220160301000101 00000000000000000000000000000000000000000000000000000000000000000000000000000000000000000000000000000000000000000N 00000000000NCONT   00    00000000000          00000000000000000000000000000000000000000000 000000000000000A000000000000000000000000000000000000000000000 000000000000000000000000000000000000000     00000000                                                                                                                        000000000000000000
F0010000008316900003000089070997800042505000000000000000000201603010002001CENTRAL DE TORNILLOS                              C000000001700000000000000000000000100010010000000000000000000000F0010000008316900320160301000101 00000000000000000000000000000000000000000000000000000000000000000000000000000000000000000000000000000000000000000N 00000000000NCONT   00    00000000000          00000000000000000000000000000000000000000000 000000000000000A000000000000000000000000000000000000000000000 000000000000000000000000000000000000000     00000000                                                                                                                        000000000000000000
F0010000008316900004000089070997800023658300000000000000000201603010002001CENTRAL DE TORNILLOS                              C000000000162600000000000000000000100010010000000000000000000000F0010000008316900420160301000101 00000000000000000000000000000000000000000000000000000000000000000000000000000000000000000000000000000000000000000N 00000000000NCONT   00    00000000000          00000000000000000000000000000000000000000000 000000000000000A000000000000000000000000000000000000000000000 000000000000000000000000000000000000000     00000000                                                                                                                        000000000000000000
F0010000008316900005000089070997800013552100000000000000000201603010002001CENTRAL DE TORNILLOS                              D000000000162600000000000000000000100010010000000000000000000000F0010000008316900520160301000101 00000000000000000000000000000000000000000000000000000000000000000000000000000000000000000000000000000000000000000N 00000000000NCONT   00    00000000000          00000000000000000000000000000000000000000000 000000000000000A000000000000000000000000000000000000000000000 000000000000000000000000000000000000000     00000000                                                                                                                        000000000000000000
F0010000008317000001000080201703900013050500000000000000000201603010002001MUNDIAL CHEMICAL LTDA                             D000000002480000000000000000000000100010010000000000000000000000F0010000008317000120160301000101 00000000000000000000000000000000000000000000000000000000000000000000000000000000000000000000000000000000000000000N 00000000000NCONT   00    00000000000          00000000000000000000000000000000000000000000 000000000000000A000000000000000000000000000000000000000000000 000000000000000000000000000000000000000     00000000                                                                                                                        000000000000000000
F0010000008317000002000080201703900041450500000000000000000201603010002001MUNDIAL CHEMICAL LTDA                             C000000001820000000000000000000000100010010000000000000000000000F0010000008317000220160301000101 00000000000000000000000000000000000000000000000000000000000000000000000000000000000000000000000000000000000000000N 00000000000NCONT   00    00000000000          00000000000000000000000000000000000000000000 000000000000000A000000000000000000000000000000000000000000000 000000000000000000000000000000000000000     00000000                                                                                                                        000000000000000000
F0010000008317000003000080201703900042505000000000000000000201603010002001MUNDIAL CHEMICAL LTDA                             C000000000660000000000000000000000100010010000000000000000000000F0010000008317000320160301000101 00000000000000000000000000000000000000000000000000000000000000000000000000000000000000000000000000000000000000000N 00000000000NCONT   00    00000000000          00000000000000000000000000000000000000000000 000000000000000A000000000000000000000000000000000000000000000 000000000000000000000000000000000000000     00000000                                                                                                                        000000000000000000
F0010000008317000004000080201703900023658300000000000000000201603010002001MUNDIAL CHEMICAL LTDA                             C000000000014600000000000000000000100010010000000000000000000000F0010000008317000420160301000101 00000000000000000000000000000000000000000000000000000000000000000000000000000000000000000000000000000000000000000N 00000000000NCONT   00    00000000000          00000000000000000000000000000000000000000000 000000000000000A000000000000000000000000000000000000000000000 000000000000000000000000000000000000000     00000000                                                                                                                        000000000000000000
F0010000008317000005000080201703900013552100000000000000000201603010002001MUNDIAL CHEMICAL LTDA                             D000000000014600000000000000000000100010010000000000000000000000F0010000008317000520160301000101 00000000000000000000000000000000000000000000000000000000000000000000000000000000000000000000000000000000000000000N 00000000000NCONT   00    00000000000          00000000000000000000000000000000000000000000 000000000000000A000000000000000000000000000000000000000000000 000000000000000000000000000000000000000     00000000                                                                                                                        000000000000000000
F0010000008317100001000080016664500013050500000000000000000201603010002001TELAPLAS PANCER SAS                               D000000008227000000000000000000000100010010000000000000000000000F0010000008317100120160301000101 00000000000000000000000000000000000000000000000000000000000000000000000000000000000000000000000000000000000000000N 00000000000NCONT   00    00000000000          00000000000000000000000000000000000000000000 000000000000000A000000000000000000000000000000000000000000000 000000000000000000000000000000000000000     00000000                                                                                                                        000000000000000000
F0010000008317100002000080016664500041450500000000000000000201603010002001TELAPLAS PANCER SAS                               C000000006540000000000000000000000100010010000000000000000000000F0010000008317100220160301000101 00000000000000000000000000000000000000000000000000000000000000000000000000000000000000000000000000000000000000000N 00000000000NCONT   00    00000000000          00000000000000000000000000000000000000000000 000000000000000A000000000000000000000000000000000000000000000 000000000000000000000000000000000000000     00000000                                                                                                                        000000000000000000
F0010000008317100003000080016664500042505000000000000000000201603010002001TELAPLAS PANCER SAS                               C000000001687000000000000000000000100010010000000000000000000000F0010000008317100320160301000101 00000000000000000000000000000000000000000000000000000000000000000000000000000000000000000000000000000000000000000N 00000000000NCONT   00    00000000000          00000000000000000000000000000000000000000000 000000000000000A000000000000000000000000000000000000000000000 000000000000000000000000000000000000000     00000000                                                                                                                        000000000000000000
F0010000008317100004000080016664500023658300000000000000000201603010002001TELAPLAS PANCER SAS                               C000000000052300000000000000000000100010010000000000000000000000F0010000008317100420160301000101 00000000000000000000000000000000000000000000000000000000000000000000000000000000000000000000000000000000000000000N 00000000000NCONT   00    00000000000          00000000000000000000000000000000000000000000 000000000000000A000000000000000000000000000000000000000000000 000000000000000000000000000000000000000     00000000                                                                                                                        000000000000000000
F0010000008317100005000080016664500013552100000000000000000201603010002001TELAPLAS PANCER SAS                               D000000000052300000000000000000000100010010000000000000000000000F0010000008317100520160301000101 00000000000000000000000000000000000000000000000000000000000000000000000000000000000000000000000000000000000000000N 00000000000NCONT   00    00000000000          00000000000000000000000000000000000000000000 000000000000000A000000000000000000000000000000000000000000000 000000000000000000000000000000000000000     00000000                                                                                                                        000000000000000000
F0010000008317200001000000871714900013050500000000000000000201603010002001ROLNAN DE LA ROSA  INSIGNARES                     D000000019823000000000000000000000100010010000000000000000000000F0010000008317200120160301000101 00000000000000000000000000000000000000000000000000000000000000000000000000000000000000000000000000000000000000000N 00000000000NCONT   00    00000000000          00000000000000000000000000000000000000000000 000000000000000A000000000000000000000000000000000000000000000 000000000000000000000000000000000000000     00000000                                                                                                                        000000000000000000
F0010000008317200002000000871714900041450500000000000000000201603010002001ROLNAN DE LA ROSA  INSIGNARES                     C000000016192000000000000000000000100010010000000000000000000000F0010000008317200220160301000101 00000000000000000000000000000000000000000000000000000000000000000000000000000000000000000000000000000000000000000N 00000000000NCONT   00    00000000000          00000000000000000000000000000000000000000000 000000000000000A000000000000000000000000000000000000000000000 000000000000000000000000000000000000000     00000000                                                                                                                        000000000000000000
F0010000008317200003000000871714900042505000000000000000000201603010002001ROLNAN DE LA ROSA  INSIGNARES                     C000000003631000000000000000000000100010010000000000000000000000F0010000008317200320160301000101 00000000000000000000000000000000000000000000000000000000000000000000000000000000000000000000000000000000000000000N 00000000000NCONT   00    00000000000          00000000000000000000000000000000000000000000 000000000000000A000000000000000000000000000000000000000000000 000000000000000000000000000000000000000     00000000                                                                                                                        000000000000000000
F0010000008317200004000000871714900023658300000000000000000201603010002001ROLNAN DE LA ROSA  INSIGNARES                     C000000000129500000000000000000000100010010000000000000000000000F0010000008317200420160301000101 00000000000000000000000000000000000000000000000000000000000000000000000000000000000000000000000000000000000000000N 00000000000NCONT   00    00000000000          00000000000000000000000000000000000000000000 000000000000000A000000000000000000000000000000000000000000000 000000000000000000000000000000000000000     00000000                                                                                                                        000000000000000000
F0010000008317200005000000871714900013552100000000000000000201603010002001ROLNAN DE LA ROSA  INSIGNARES                     D000000000129500000000000000000000100010010000000000000000000000F0010000008317200520160301000101 00000000000000000000000000000000000000000000000000000000000000000000000000000000000000000000000000000000000000000N 00000000000NCONT   00    00000000000          00000000000000000000000000000000000000000000 000000000000000A000000000000000000000000000000000000000000000 000000000000000000000000000000000000000     00000000                                                                                                                        000000000000000000
F0010000008317300001000089010526900013050500000000000000000201603010002001DISTRIBUCIONES CANAL Y CIA S.A.S                  D000000021962900000000000000000000100010010000000000000000000000F0010000008317300120160301000101 00000000000000000000000000000000000000000000000000000000000000000000000000000000000000000000000000000000000000000N 00000000000NCONT   00    00000000000          00000000000000000000000000000000000000000000 000000000000000A000000000000000000000000000000000000000000000 000000000000000000000000000000000000000     00000000                                                                                                                        000000000000000000
F0010000008317300002000089010526900041450500000000000000000201603010002001DISTRIBUCIONES CANAL Y CIA S.A.S                  C000000013650000000000000000000000100010010000000000000000000000F0010000008317300220160301000101 00000000000000000000000000000000000000000000000000000000000000000000000000000000000000000000000000000000000000000N 00000000000NCONT   00    00000000000          00000000000000000000000000000000000000000000 000000000000000A000000000000000000000000000000000000000000000 000000000000000000000000000000000000000     00000000                                                                                                                        000000000000000000
F0010000008317300003000089010526900042505000000000000000000201603010002001DISTRIBUCIONES CANAL Y CIA S.A.S                  C000000008312900000000000000000000100010010000000000000000000000F0010000008317300320160301000101 00000000000000000000000000000000000000000000000000000000000000000000000000000000000000000000000000000000000000000N 00000000000NCONT   00    00000000000          00000000000000000000000000000000000000000000 000000000000000A000000000000000000000000000000000000000000000 000000000000000000000000000000000000000     00000000                                                                                                                        000000000000000000
F0010000008317300004000089010526900023658300000000000000000201603010002001DISTRIBUCIONES CANAL Y CIA S.A.S                  C000000000109200000000000000000000100010010000000000000000000000F0010000008317300420160301000101 00000000000000000000000000000000000000000000000000000000000000000000000000000000000000000000000000000000000000000N 00000000000NCONT   00    00000000000          00000000000000000000000000000000000000000000 000000000000000A000000000000000000000000000000000000000000000 000000000000000000000000000000000000000     00000000                                                                                                                        000000000000000000
F0010000008317300005000089010526900013552100000000000000000201603010002001DISTRIBUCIONES CANAL Y CIA S.A.S                  D000000000109200000000000000000000100010010000000000000000000000F0010000008317300520160301000101 00000000000000000000000000000000000000000000000000000000000000000000000000000000000000000000000000000000000000000N 00000000000NCONT   00    00000000000          00000000000000000000000000000000000000000000 000000000000000A000000000000000000000000000000000000000000000 000000000000000000000000000000000000000     00000000                                                                                                                        000000000000000000
F0010000008317400001000080200250700013050500000000000000000201603010002001ETICOL SAS                                        D000000003940500000000000000000000100010010000000000000000000000F0010000008317400120160301000101 00000000000000000000000000000000000000000000000000000000000000000000000000000000000000000000000000000000000000000N 00000000000NCONT   00    00000000000          00000000000000000000000000000000000000000000 000000000000000A000000000000000000000000000000000000000000000 000000000000000000000000000000000000000     00000000                                                                                                                        000000000000000000
F0010000008317400002000080200250700041450500000000000000000201603010002001ETICOL SAS                                        C000000003540500000000000000000000100010010000000000000000000000F0010000008317400220160301000101 00000000000000000000000000000000000000000000000000000000000000000000000000000000000000000000000000000000000000000N 00000000000NCONT   00    00000000000          00000000000000000000000000000000000000000000 000000000000000A000000000000000000000000000000000000000000000 000000000000000000000000000000000000000     00000000                                                                                                                        000000000000000000
F0010000008317400003000080200250700042505000000000000000000201603010002001ETICOL SAS                                        C000000000400000000000000000000000100010010000000000000000000000F0010000008317400320160301000101 00000000000000000000000000000000000000000000000000000000000000000000000000000000000000000000000000000000000000000N 00000000000NCONT   00    00000000000          00000000000000000000000000000000000000000000 000000000000000A000000000000000000000000000000000000000000000 000000000000000000000000000000000000000     00000000                                                                                                                        000000000000000000
F0010000008317400004000080200250700023658300000000000000000201603010002001ETICOL SAS                                        C000000000028300000000000000000000100010010000000000000000000000F0010000008317400420160301000101 00000000000000000000000000000000000000000000000000000000000000000000000000000000000000000000000000000000000000000N 00000000000NCONT   00    00000000000          00000000000000000000000000000000000000000000 000000000000000A000000000000000000000000000000000000000000000 000000000000000000000000000000000000000     00000000                                                                                                                        000000000000000000
F0010000008317400005000080200250700013552100000000000000000201603010002001ETICOL SAS                                        D000000000028300000000000000000000100010010000000000000000000000F0010000008317400520160301000101 00000000000000000000000000000000000000000000000000000000000000000000000000000000000000000000000000000000000000000N 00000000000NCONT   00    00000000000          00000000000000000000000000000000000000000000 000000000000000A000000000000000000000000000000000000000000000 000000000000000000000000000000000000000     00000000                                                                                                                        000000000000000000
F0010000008317500001000086000490200013050500000000000000000201603010002001PROV. DE PAPELES ANDINA S.A.                      D000000110191300000000000000000000100010010000000000000000000000F0010000008317500120160301000101 00000000000000000000000000000000000000000000000000000000000000000000000000000000000000000000000000000000000000000N 00000000000NCONT   00    00000000000          00000000000000000000000000000000000000000000 000000000000000A000000000000000000000000000000000000000000000 000000000000000000000000000000000000000     00000000                                                                                                                        000000000000000000
F0010000008317500002000086000490200041450500000000000000000201603010002001PROV. DE PAPELES ANDINA S.A.                      C000000100122700000000000000000000100010010000000000000000000000F0010000008317500220160301000101 00000000000000000000000000000000000000000000000000000000000000000000000000000000000000000000000000000000000000000N 00000000000NCONT   00    00000000000          00000000000000000000000000000000000000000000 000000000000000A000000000000000000000000000000000000000000000 000000000000000000000000000000000000000     00000000                                                                                                                        000000000000000000
F0010000008317500003000086000490200042505000000000000000000201603010002001PROV. DE PAPELES ANDINA S.A.                      C000000010068600000000000000000000100010010000000000000000000000F0010000008317500320160301000101 00000000000000000000000000000000000000000000000000000000000000000000000000000000000000000000000000000000000000000N 00000000000NCONT   00    00000000000          00000000000000000000000000000000000000000000 000000000000000A000000000000000000000000000000000000000000000 000000000000000000000000000000000000000     00000000                                                                                                                        000000000000000000
F0010000008317500004000086000490200023658300000000000000000201603010002001PROV. DE PAPELES ANDINA S.A.                      C000000000801000000000000000000000100010010000000000000000000000F0010000008317500420160301000101 00000000000000000000000000000000000000000000000000000000000000000000000000000000000000000000000000000000000000000N 00000000000NCONT   00    00000000000          00000000000000000000000000000000000000000000 000000000000000A000000000000000000000000000000000000000000000 000000000000000000000000000000000000000     00000000                                                                                                                        000000000000000000
F0010000008317500005000086000490200013552100000000000000000201603010002001PROV. DE PAPELES ANDINA S.A.                      D000000000801000000000000000000000100010010000000000000000000000F0010000008317500520160301000101 00000000000000000000000000000000000000000000000000000000000000000000000000000000000000000000000000000000000000000N 00000000000NCONT   00    00000000000          00000000000000000000000000000000000000000000 000000000000000A000000000000000000000000000000000000000000000 000000000000000000000000000000000000000     00000000                                                                                                                        000000000000000000
F0010000008317600001000083001155300013050500000000000000000201603010002001COMERCIALIZADORA RUBEN S LTDA                     D000000014997100000000000000000000100010010000000000000000000000F0010000008317600120160301000101 00000000000000000000000000000000000000000000000000000000000000000000000000000000000000000000000000000000000000000N 00000000000NCONT   00    00000000000          00000000000000000000000000000000000000000000 000000000000000A000000000000000000000000000000000000000000000 000000000000000000000000000000000000000     00000000                                                                                                                        000000000000000000
F0010000008317600002000083001155300041450500000000000000000201603010002001COMERCIALIZADORA RUBEN S LTDA                     C000000013113400000000000000000000100010010000000000000000000000F0010000008317600220160301000101 00000000000000000000000000000000000000000000000000000000000000000000000000000000000000000000000000000000000000000N 00000000000NCONT   00    00000000000          00000000000000000000000000000000000000000000 000000000000000A000000000000000000000000000000000000000000000 000000000000000000000000000000000000000     00000000                                                                                                                        000000000000000000
F0010000008317600003000083001155300042505000000000000000000201603010002001COMERCIALIZADORA RUBEN S LTDA                     C000000001883700000000000000000000100010010000000000000000000000F0010000008317600320160301000101 00000000000000000000000000000000000000000000000000000000000000000000000000000000000000000000000000000000000000000N 00000000000NCONT   00    00000000000          00000000000000000000000000000000000000000000 000000000000000A000000000000000000000000000000000000000000000 000000000000000000000000000000000000000     00000000                                                                                                                        000000000000000000
F0010000008317600004000083001155300023658300000000000000000201603010002001COMERCIALIZADORA RUBEN S LTDA                     C000000000104900000000000000000000100010010000000000000000000000F0010000008317600420160301000101 00000000000000000000000000000000000000000000000000000000000000000000000000000000000000000000000000000000000000000N 00000000000NCONT   00    00000000000          00000000000000000000000000000000000000000000 000000000000000A000000000000000000000000000000000000000000000 000000000000000000000000000000000000000     00000000                                                                                                                        000000000000000000
F0010000008317600005000083001155300013552100000000000000000201603010002001COMERCIALIZADORA RUBEN S LTDA                     D000000000104900000000000000000000100010010000000000000000000000F0010000008317600520160301000101 00000000000000000000000000000000000000000000000000000000000000000000000000000000000000000000000000000000000000000N 00000000000NCONT   00    00000000000          00000000000000000000000000000000000000000000 000000000000000A000000000000000000000000000000000000000000000 000000000000000000000000000000000000000     00000000                                                                                                                        000000000000000000
F0010000008317700001000090009800500013050500000000000000000201603010002001GLORIANT CHEMICAL DE COLOMBIA LTDA                D000000141407000000000000000000000100010010000000000000000000000F0010000008317700120160301000101 00000000000000000000000000000000000000000000000000000000000000000000000000000000000000000000000000000000000000000N 00000000000NCONT   00    00000000000          00000000000000000000000000000000000000000000 000000000000000A000000000000000000000000000000000000000000000 000000000000000000000000000000000000000     00000000                                                                                                                        000000000000000000
F0010000008317700002000090009800500041450500000000000000000201603010002001GLORIANT CHEMICAL DE COLOMBIA LTDA                C000000121210000000000000000000000100010010000000000000000000000F0010000008317700220160301000101 00000000000000000000000000000000000000000000000000000000000000000000000000000000000000000000000000000000000000000N 00000000000NCONT   00    00000000000          00000000000000000000000000000000000000000000 000000000000000A000000000000000000000000000000000000000000000 000000000000000000000000000000000000000     00000000                                                                                                                        000000000000000000
F0010000008317700003000090009800500042505000000000000000000201603010002001GLORIANT CHEMICAL DE COLOMBIA LTDA                C000000020197000000000000000000000100010010000000000000000000000F0010000008317700320160301000101 00000000000000000000000000000000000000000000000000000000000000000000000000000000000000000000000000000000000000000N 00000000000NCONT   00    00000000000          00000000000000000000000000000000000000000000 000000000000000A000000000000000000000000000000000000000000000 000000000000000000000000000000000000000     00000000                                                                                                                        000000000000000000
F0010000008317700004000090009800500023658300000000000000000201603010002001GLORIANT CHEMICAL DE COLOMBIA LTDA                C000000000969700000000000000000000100010010000000000000000000000F0010000008317700420160301000101 00000000000000000000000000000000000000000000000000000000000000000000000000000000000000000000000000000000000000000N 00000000000NCONT   00    00000000000          00000000000000000000000000000000000000000000 000000000000000A000000000000000000000000000000000000000000000 000000000000000000000000000000000000000     00000000                                                                                                                        000000000000000000
F0010000008317700005000090009800500013552100000000000000000201603010002001GLORIANT CHEMICAL DE COLOMBIA LTDA                D000000000969700000000000000000000100010010000000000000000000000F0010000008317700520160301000101 00000000000000000000000000000000000000000000000000000000000000000000000000000000000000000000000000000000000000000N 00000000000NCONT   00    00000000000          00000000000000000000000000000000000000000000 000000000000000A000000000000000000000000000000000000000000000 000000000000000000000000000000000000000     00000000                                                                                                                        000000000000000000
F0010000008317800001000089080078800013050500000000000000000201603010002001SUMATEC SA                                        D000000044704000000000000000000000100010010000000000000000000000F0010000008317800120160301000101 00000000000000000000000000000000000000000000000000000000000000000000000000000000000000000000000000000000000000000N 00000000000NCONT   00    00000000000          00000000000000000000000000000000000000000000 000000000000000A000000000000000000000000000000000000000000000 000000000000000000000000000000000000000     00000000                                                                                                                        000000000000000000
F0010000008317800002000089080078800041450500000000000000000201603010002001SUMATEC SA                                        C000000040000000000000000000000000100010010000000000000000000000F0010000008317800220160301000101 00000000000000000000000000000000000000000000000000000000000000000000000000000000000000000000000000000000000000000N 00000000000NCONT   00    00000000000          00000000000000000000000000000000000000000000 000000000000000A000000000000000000000000000000000000000000000 000000000000000000000000000000000000000     00000000                                                                                                                        000000000000000000
F0010000008317800003000089080078800042505000000000000000000201603010002001SUMATEC SA                                        C000000004704000000000000000000000100010010000000000000000000000F0010000008317800320160301000101 00000000000000000000000000000000000000000000000000000000000000000000000000000000000000000000000000000000000000000N 00000000000NCONT   00    00000000000          00000000000000000000000000000000000000000000 000000000000000A000000000000000000000000000000000000000000000 000000000000000000000000000000000000000     00000000                                                                                                                        000000000000000000
F0010000008317800004000089080078800023658300000000000000000201603010002001SUMATEC SA                                        C000000000320000000000000000000000100010010000000000000000000000F0010000008317800420160301000101 00000000000000000000000000000000000000000000000000000000000000000000000000000000000000000000000000000000000000000N 00000000000NCONT   00    00000000000          00000000000000000000000000000000000000000000 000000000000000A000000000000000000000000000000000000000000000 000000000000000000000000000000000000000     00000000                                                                                                                        000000000000000000
F0010000008317800005000089080078800013552100000000000000000201603010002001SUMATEC SA                                        D000000000320000000000000000000000100010010000000000000000000000F0010000008317800520160301000101 00000000000000000000000000000000000000000000000000000000000000000000000000000000000000000000000000000000000000000N 00000000000NCONT   00    00000000000          00000000000000000000000000000000000000000000 000000000000000A000000000000000000000000000000000000000000000 000000000000000000000000000000000000000     00000000                                                                                                                        000000000000000000
F0010000008317900001000089080078800013050500000000000000000201603010002001SUMATEC S.A.                                      D000000009309400000000000000000000100010010000000000000000000000F0010000008317900120160301000101 00000000000000000000000000000000000000000000000000000000000000000000000000000000000000000000000000000000000000000N 00000000000NCONT   00    00000000000          00000000000000000000000000000000000000000000 000000000000000A000000000000000000000000000000000000000000000 000000000000000000000000000000000000000     00000000                                                                                                                        000000000000000000
F0010000008317900002000089080078800041450500000000000000000201603010002001SUMATEC S.A.                                      C000000006790000000000000000000000100010010000000000000000000000F0010000008317900220160301000101 00000000000000000000000000000000000000000000000000000000000000000000000000000000000000000000000000000000000000000N 00000000000NCONT   00    00000000000          00000000000000000000000000000000000000000000 000000000000000A000000000000000000000000000000000000000000000 000000000000000000000000000000000000000     00000000                                                                                                                        000000000000000000
F0010000008317900003000089080078800042505000000000000000000201603010002001SUMATEC S.A.                                      C000000002519400000000000000000000100010010000000000000000000000F0010000008317900320160301000101 00000000000000000000000000000000000000000000000000000000000000000000000000000000000000000000000000000000000000000N 00000000000NCONT   00    00000000000          00000000000000000000000000000000000000000000 000000000000000A000000000000000000000000000000000000000000000 000000000000000000000000000000000000000     00000000                                                                                                                        000000000000000000
F0010000008317900004000089080078800023658300000000000000000201603010002001SUMATEC S.A.                                      C000000000054300000000000000000000100010010000000000000000000000F0010000008317900420160301000101 00000000000000000000000000000000000000000000000000000000000000000000000000000000000000000000000000000000000000000N 00000000000NCONT   00    00000000000          00000000000000000000000000000000000000000000 000000000000000A000000000000000000000000000000000000000000000 000000000000000000000000000000000000000     00000000                                                                                                                        000000000000000000
F0010000008317900005000089080078800013552100000000000000000201603010002001SUMATEC S.A.                                      D000000000054300000000000000000000100010010000000000000000000000F0010000008317900520160301000101 00000000000000000000000000000000000000000000000000000000000000000000000000000000000000000000000000000000000000000N 00000000000NCONT   00    00000000000          00000000000000000000000000000000000000000000 000000000000000A000000000000000000000000000000000000000000000 000000000000000000000000000000000000000     00000000                                                                                                                        000000000000000000
F0010000008318000001000080201411900011050500000000000000000201603010002001PLASTISERVICIOS S DE H                            D000000002700000000000000000000000100010010000000000000000000000F0010000008318000120160301000101 00000000000000000000000000000000000000000000000000000000000000000000000000000000000000000000000000000000000000000N 00000000000NCONT   00    00000000000          00000000000000000000000000000000000000000000 000000000000000A000000000000000000000000000000000000000000000 000000000000000000000000000000000000000     00000000                                                                                                                        000000000000000000
F0010000008318000002000080201411900041450500000000000000000201603010002001PLASTISERVICIOS S DE H                            C000000002000000000000000000000000100010010000000000000000000000F0010000008318000220160301000101 00000000000000000000000000000000000000000000000000000000000000000000000000000000000000000000000000000000000000000N 00000000000NCONT   00    00000000000          00000000000000000000000000000000000000000000 000000000000000A000000000000000000000000000000000000000000000 000000000000000000000000000000000000000     00000000                                                                                                                        000000000000000000
F0010000008318000003000080201411900042505000000000000000000201603010002001PLASTISERVICIOS S DE H                            C000000000700000000000000000000000100010010000000000000000000000F0010000008318000320160301000101 00000000000000000000000000000000000000000000000000000000000000000000000000000000000000000000000000000000000000000N 00000000000NCONT   00    00000000000          00000000000000000000000000000000000000000000 000000000000000A000000000000000000000000000000000000000000000 000000000000000000000000000000000000000     00000000                                                                                                                        000000000000000000
F0010000008318000004000080201411900023658300000000000000000201603010002001PLASTISERVICIOS S DE H                            C000000000016000000000000000000000100010010000000000000000000000F0010000008318000420160301000101 00000000000000000000000000000000000000000000000000000000000000000000000000000000000000000000000000000000000000000N 00000000000NCONT   00    00000000000          00000000000000000000000000000000000000000000 000000000000000A000000000000000000000000000000000000000000000 000000000000000000000000000000000000000     00000000                                                                                                                        000000000000000000
F0010000008318000005000080201411900013552100000000000000000201603010002001PLASTISERVICIOS S DE H                            D000000000016000000000000000000000100010010000000000000000000000F0010000008318000520160301000101 00000000000000000000000000000000000000000000000000000000000000000000000000000000000000000000000000000000000000000N 00000000000NCONT   00    00000000000          00000000000000000000000000000000000000000000 000000000000000A000000000000000000000000000000000000000000000 000000000000000000000000000000000000000     00000000                                                                                                                        000000000000000000
F0010000008318100001000090035510100013050500000000000000000201603010002001GRAINGER COLOMBIA S.A.S.                          D000000165165300000000000000000000100010010000000000000000000000F0010000008318100120160301000101 00000000000000000000000000000000000000000000000000000000000000000000000000000000000000000000000000000000000000000N 00000000000NCONT   00    00000000000          00000000000000000000000000000000000000000000 000000000000000A000000000000000000000000000000000000000000000 000000000000000000000000000000000000000     00000000                                                                                                                        000000000000000000
F0010000008318100002000090035510100041450500000000000000000201603010002001GRAINGER COLOMBIA S.A.S.                          C000000098963000000000000000000000100010010000000000000000000000F0010000008318100220160301000101 00000000000000000000000000000000000000000000000000000000000000000000000000000000000000000000000000000000000000000N 00000000000NCONT   00    00000000000          00000000000000000000000000000000000000000000 000000000000000A000000000000000000000000000000000000000000000 000000000000000000000000000000000000000     00000000                                                                                                                        000000000000000000
F0010000008318100003000090035510100042505000000000000000000201603010002001GRAINGER COLOMBIA S.A.S.                          C000000066202300000000000000000000100010010000000000000000000000F0010000008318100320160301000101 00000000000000000000000000000000000000000000000000000000000000000000000000000000000000000000000000000000000000000N 00000000000NCONT   00    00000000000          00000000000000000000000000000000000000000000 000000000000000A000000000000000000000000000000000000000000000 000000000000000000000000000000000000000     00000000                                                                                                                        000000000000000000
F0010000008318100004000090035510100023658300000000000000000201603010002001GRAINGER COLOMBIA S.A.S.                          C000000000791700000000000000000000100010010000000000000000000000F0010000008318100420160301000101 00000000000000000000000000000000000000000000000000000000000000000000000000000000000000000000000000000000000000000N 00000000000NCONT   00    00000000000          00000000000000000000000000000000000000000000 000000000000000A000000000000000000000000000000000000000000000 000000000000000000000000000000000000000     00000000                                                                                                                        000000000000000000
F0010000008318100005000090035510100013552100000000000000000201603010002001GRAINGER COLOMBIA S.A.S.                          D000000000791700000000000000000000100010010000000000000000000000F0010000008318100520160301000101 00000000000000000000000000000000000000000000000000000000000000000000000000000000000000000000000000000000000000000N 00000000000NCONT   00    00000000000          00000000000000000000000000000000000000000000 000000000000000A000000000000000000000000000000000000000000000 000000000000000000000000000000000000000     00000000                                                                                                                        000000000000000000
F0010000008318200001000002245670100013050500000000000000000201603010002001YOLANDA  TOBON                                    D000000018683000000000000000000000100010010000000000000000000000F0010000008318200120160301000101 00000000000000000000000000000000000000000000000000000000000000000000000000000000000000000000000000000000000000000N 00000000000NCONT   00    00000000000          00000000000000000000000000000000000000000000 000000000000000A000000000000000000000000000000000000000000000 000000000000000000000000000000000000000     00000000                                                                                                                        000000000000000000
F0010000008318200002000002245670100041450500000000000000000201603010002001YOLANDA  TOBON                                    C000000014960000000000000000000000100010010000000000000000000000F0010000008318200220160301000101 00000000000000000000000000000000000000000000000000000000000000000000000000000000000000000000000000000000000000000N 00000000000NCONT   00    00000000000          00000000000000000000000000000000000000000000 000000000000000A000000000000000000000000000000000000000000000 000000000000000000000000000000000000000     00000000                                                                                                                        000000000000000000
F0010000008318200003000002245670100042505000000000000000000201603010002001YOLANDA  TOBON                                    C000000003723000000000000000000000100010010000000000000000000000F0010000008318200320160301000101 00000000000000000000000000000000000000000000000000000000000000000000000000000000000000000000000000000000000000000N 00000000000NCONT   00    00000000000          00000000000000000000000000000000000000000000 000000000000000A000000000000000000000000000000000000000000000 000000000000000000000000000000000000000     00000000                                                                                                                        000000000000000000
F0010000008318200004000002245670100023658300000000000000000201603010002001YOLANDA  TOBON                                    C000000000119700000000000000000000100010010000000000000000000000F0010000008318200420160301000101 00000000000000000000000000000000000000000000000000000000000000000000000000000000000000000000000000000000000000000N 00000000000NCONT   00    00000000000          00000000000000000000000000000000000000000000 000000000000000A000000000000000000000000000000000000000000000 000000000000000000000000000000000000000     00000000                                                                                                                        000000000000000000
F0010000008318200005000002245670100013552100000000000000000201603010002001YOLANDA  TOBON                                    D000000000119700000000000000000000100010010000000000000000000000F0010000008318200520160301000101 00000000000000000000000000000000000000000000000000000000000000000000000000000000000000000000000000000000000000000N 00000000000NCONT   00    00000000000          00000000000000000000000000000000000000000000 000000000000000A000000000000000000000000000000000000000000000 000000000000000000000000000000000000000     00000000                                                                                                                        000000000000000000
F0010000008318300001000007213653800011050500000000000000000201603010002001VICTOR ECHAVEZ                                    D000000001200000000000000000000000100010010000000000000000000000F0010000008318300120160301000101 00000000000000000000000000000000000000000000000000000000000000000000000000000000000000000000000000000000000000000N 00000000000NCONT   00    00000000000          00000000000000000000000000000000000000000000 000000000000000A000000000000000000000000000000000000000000000 000000000000000000000000000000000000000     00000000                                                                                                                        000000000000000000
F0010000008318300002000007213653800041450500000000000000000201603010002001VICTOR ECHAVEZ                                    C000000000950000000000000000000000100010010000000000000000000000F0010000008318300220160301000101 00000000000000000000000000000000000000000000000000000000000000000000000000000000000000000000000000000000000000000N 00000000000NCONT   00    00000000000          00000000000000000000000000000000000000000000 000000000000000A000000000000000000000000000000000000000000000 000000000000000000000000000000000000000     00000000                                                                                                                        000000000000000000
F0010000008318300003000007213653800042505000000000000000000201603010002001VICTOR ECHAVEZ                                    C000000000250000000000000000000000100010010000000000000000000000F0010000008318300320160301000101 00000000000000000000000000000000000000000000000000000000000000000000000000000000000000000000000000000000000000000N 00000000000NCONT   00    00000000000          00000000000000000000000000000000000000000000 000000000000000A000000000000000000000000000000000000000000000 000000000000000000000000000000000000000     00000000                                                                                                                        000000000000000000
F0010000008318300004000007213653800023658300000000000000000201603010002001VICTOR ECHAVEZ                                    C000000000007600000000000000000000100010010000000000000000000000F0010000008318300420160301000101 00000000000000000000000000000000000000000000000000000000000000000000000000000000000000000000000000000000000000000N 00000000000NCONT   00    00000000000          00000000000000000000000000000000000000000000 000000000000000A000000000000000000000000000000000000000000000 000000000000000000000000000000000000000     00000000                                                                                                                        000000000000000000
F0010000008318300005000007213653800013552100000000000000000201603010002001VICTOR ECHAVEZ                                    D000000000007600000000000000000000100010010000000000000000000000F0010000008318300520160301000101 00000000000000000000000000000000000000000000000000000000000000000000000000000000000000000000000000000000000000000N 00000000000NCONT   00    00000000000          00000000000000000000000000000000000000000000 000000000000000A000000000000000000000000000000000000000000000 000000000000000000000000000000000000000     00000000                                                                                                                        000000000000000000
F0010000008318400001000000748239700013050500000000000000000201603010002001RAFAEL NAVARRO URIBE                              D000000029470400000000000000000000100010010000000000000000000000F0010000008318400120160301000101 00000000000000000000000000000000000000000000000000000000000000000000000000000000000000000000000000000000000000000N 00000000000NCONT   00    00000000000          00000000000000000000000000000000000000000000 000000000000000A000000000000000000000000000000000000000000000 000000000000000000000000000000000000000     00000000                                                                                                                        000000000000000000
F0010000008318400002000000748239700041450500000000000000000201603010002001RAFAEL NAVARRO URIBE                              C000000016320000000000000000000000100010010000000000000000000000F0010000008318400220160301000101 00000000000000000000000000000000000000000000000000000000000000000000000000000000000000000000000000000000000000000N 00000000000NCONT   00    00000000000          00000000000000000000000000000000000000000000 000000000000000A000000000000000000000000000000000000000000000 000000000000000000000000000000000000000     00000000                                                                                                                        000000000000000000
F0010000008318400003000000748239700042505000000000000000000201603010002001RAFAEL NAVARRO URIBE                              C000000013150400000000000000000000100010010000000000000000000000F0010000008318400320160301000101 00000000000000000000000000000000000000000000000000000000000000000000000000000000000000000000000000000000000000000N 00000000000NCONT   00    00000000000          00000000000000000000000000000000000000000000 000000000000000A000000000000000000000000000000000000000000000 000000000000000000000000000000000000000     00000000                                                                                                                        000000000000000000
F0010000008318400004000000748239700023658300000000000000000201603010002001RAFAEL NAVARRO URIBE                              C000000000130600000000000000000000100010010000000000000000000000F0010000008318400420160301000101 00000000000000000000000000000000000000000000000000000000000000000000000000000000000000000000000000000000000000000N 00000000000NCONT   00    00000000000          00000000000000000000000000000000000000000000 000000000000000A000000000000000000000000000000000000000000000 000000000000000000000000000000000000000     00000000                                                                                                                        000000000000000000
F0010000008318400005000000748239700013552100000000000000000201603010002001RAFAEL NAVARRO URIBE                              D000000000130600000000000000000000100010010000000000000000000000F0010000008318400520160301000101 00000000000000000000000000000000000000000000000000000000000000000000000000000000000000000000000000000000000000000N 00000000000NCONT   00    00000000000          00000000000000000000000000000000000000000000 000000000000000A000000000000000000000000000000000000000000000 000000000000000000000000000000000000000     00000000                                                                                                                        000000000000000000
F0010000008318500001000080019113900013050500000000000000000201603010002001COMERCIAL NOVAPEL LTDA                            D000000097280000000000000000000000100010010000000000000000000000F0010000008318500120160301000101 00000000000000000000000000000000000000000000000000000000000000000000000000000000000000000000000000000000000000000N 00000000000NCONT   00    00000000000          00000000000000000000000000000000000000000000 000000000000000A000000000000000000000000000000000000000000000 000000000000000000000000000000000000000     00000000                                                                                                                        000000000000000000
F0010000008318500002000080019113900041450500000000000000000201603010002001COMERCIAL NOVAPEL LTDA                            C000000088000000000000000000000000100010010000000000000000000000F0010000008318500220160301000101 00000000000000000000000000000000000000000000000000000000000000000000000000000000000000000000000000000000000000000N 00000000000NCONT   00    00000000000          00000000000000000000000000000000000000000000 000000000000000A000000000000000000000000000000000000000000000 000000000000000000000000000000000000000     00000000                                                                                                                        000000000000000000
F0010000008318500003000080019113900042505000000000000000000201603010002001COMERCIAL NOVAPEL LTDA                            C000000009280000000000000000000000100010010000000000000000000000F0010000008318500320160301000101 00000000000000000000000000000000000000000000000000000000000000000000000000000000000000000000000000000000000000000N 00000000000NCONT   00    00000000000          00000000000000000000000000000000000000000000 000000000000000A000000000000000000000000000000000000000000000 000000000000000000000000000000000000000     00000000                                                                                                                        000000000000000000
F0010000008318500004000080019113900023658300000000000000000201603010002001COMERCIAL NOVAPEL LTDA                            C000000000704000000000000000000000100010010000000000000000000000F0010000008318500420160301000101 00000000000000000000000000000000000000000000000000000000000000000000000000000000000000000000000000000000000000000N 00000000000NCONT   00    00000000000          00000000000000000000000000000000000000000000 000000000000000A000000000000000000000000000000000000000000000 000000000000000000000000000000000000000     00000000                                                                                                                        000000000000000000
F0010000008318500005000080019113900013552100000000000000000201603010002001COMERCIAL NOVAPEL LTDA                            D000000000704000000000000000000000100010010000000000000000000000F0010000008318500520160301000101 00000000000000000000000000000000000000000000000000000000000000000000000000000000000000000000000000000000000000000N 00000000000NCONT   00    00000000000          00000000000000000000000000000000000000000000 000000000000000A000000000000000000000000000000000000000000000 000000000000000000000000000000000000000     00000000                                                                                                                        000000000000000000
F0010000008318600001000080016665600013050500000000000000000201603010002001SUMICAL DE ANTIOQUIA S.A.S                        D000000035118200000000000000000000100010010000000000000000000000F0010000008318600120160301000101 00000000000000000000000000000000000000000000000000000000000000000000000000000000000000000000000000000000000000000N 00000000000NCONT   00    00000000000          00000000000000000000000000000000000000000000 000000000000000A000000000000000000000000000000000000000000000 000000000000000000000000000000000000000     00000000                                                                                                                        000000000000000000
F0010000008318600002000080016665600041450500000000000000000201603010002001SUMICAL DE ANTIOQUIA S.A.S                        C000000029520000000000000000000000100010010000000000000000000000F0010000008318600220160301000101 00000000000000000000000000000000000000000000000000000000000000000000000000000000000000000000000000000000000000000N 00000000000NCONT   00    00000000000          00000000000000000000000000000000000000000000 000000000000000A000000000000000000000000000000000000000000000 000000000000000000000000000000000000000     00000000                                                                                                                        000000000000000000
F0010000008318600003000080016665600042505000000000000000000201603010002001SUMICAL DE ANTIOQUIA S.A.S                        C000000005598200000000000000000000100010010000000000000000000000F0010000008318600320160301000101 00000000000000000000000000000000000000000000000000000000000000000000000000000000000000000000000000000000000000000N 00000000000NCONT   00    00000000000          00000000000000000000000000000000000000000000 000000000000000A000000000000000000000000000000000000000000000 000000000000000000000000000000000000000     00000000                                                                                                                        000000000000000000
F0010000008318600004000080016665600023658300000000000000000201603010002001SUMICAL DE ANTIOQUIA S.A.S                        C000000000236200000000000000000000100010010000000000000000000000F0010000008318600420160301000101 00000000000000000000000000000000000000000000000000000000000000000000000000000000000000000000000000000000000000000N 00000000000NCONT   00    00000000000          00000000000000000000000000000000000000000000 000000000000000A000000000000000000000000000000000000000000000 000000000000000000000000000000000000000     00000000                                                                                                                        000000000000000000
F0010000008318600005000080016665600013552100000000000000000201603010002001SUMICAL DE ANTIOQUIA S.A.S                        D000000000236200000000000000000000100010010000000000000000000000F0010000008318600520160301000101 00000000000000000000000000000000000000000000000000000000000000000000000000000000000000000000000000000000000000000N 00000000000NCONT   00    00000000000          00000000000000000000000000000000000000000000 000000000000000A000000000000000000000000000000000000000000000 000000000000000000000000000000000000000     00000000                                                                                                                        000000000000000000
F0010000008318700001000090064982900013050500000000000000000201603010002001DISDIES S.A.S                                     D000000077459700000000000000000000100010010000000000000000000000F0010000008318700120160301000101 00000000000000000000000000000000000000000000000000000000000000000000000000000000000000000000000000000000000000000N 00000000000NCONT   00    00000000000          00000000000000000000000000000000000000000000 000000000000000A000000000000000000000000000000000000000000000 000000000000000000000000000000000000000     00000000                                                                                                                        000000000000000000
F0010000008318700002000090064982900041450500000000000000000201603010002001DISDIES S.A.S                                     C000000067621100000000000000000000100010010000000000000000000000F0010000008318700220160301000101 00000000000000000000000000000000000000000000000000000000000000000000000000000000000000000000000000000000000000000N 00000000000NCONT   00    00000000000          00000000000000000000000000000000000000000000 000000000000000A000000000000000000000000000000000000000000000 000000000000000000000000000000000000000     00000000                                                                                                                        000000000000000000
F0010000008318700003000090064982900042505000000000000000000201603010002001DISDIES S.A.S                                     C000000009838600000000000000000000100010010000000000000000000000F0010000008318700320160301000101 00000000000000000000000000000000000000000000000000000000000000000000000000000000000000000000000000000000000000000N 00000000000NCONT   00    00000000000          00000000000000000000000000000000000000000000 000000000000000A000000000000000000000000000000000000000000000 000000000000000000000000000000000000000     00000000                                                                                                                        000000000000000000
F0010000008318700004000090064982900023658300000000000000000201603010002001DISDIES S.A.S                                     C000000000541000000000000000000000100010010000000000000000000000F0010000008318700420160301000101 00000000000000000000000000000000000000000000000000000000000000000000000000000000000000000000000000000000000000000N 00000000000NCONT   00    00000000000          00000000000000000000000000000000000000000000 000000000000000A000000000000000000000000000000000000000000000 000000000000000000000000000000000000000     00000000                                                                                                                        000000000000000000
F0010000008318700005000090064982900013552100000000000000000201603010002001DISDIES S.A.S                                     D000000000541000000000000000000000100010010000000000000000000000F0010000008318700520160301000101 00000000000000000000000000000000000000000000000000000000000000000000000000000000000000000000000000000000000000000N 00000000000NCONT   00    00000000000          00000000000000000000000000000000000000000000 000000000000000A000000000000000000000000000000000000000000000 000000000000000000000000000000000000000     00000000                                                                                                                        000000000000000000
F0010000008318800001000089010260300013050500000000000000000201603010002001FEDERICO OSORIO A. S.A.                           D000000095291300000000000000000000100010010000000000000000000000F0010000008318800120160301000101 00000000000000000000000000000000000000000000000000000000000000000000000000000000000000000000000000000000000000000N 00000000000NCONT   00    00000000000          00000000000000000000000000000000000000000000 000000000000000A000000000000000000000000000000000000000000000 000000000000000000000000000000000000000     00000000                                                                                                                        000000000000000000
F0010000008318800002000089010260300041450500000000000000000201603010002001FEDERICO OSORIO A. S.A.                           C000000087220000000000000000000000100010010000000000000000000000F0010000008318800220160301000101 00000000000000000000000000000000000000000000000000000000000000000000000000000000000000000000000000000000000000000N 00000000000NCONT   00    00000000000          00000000000000000000000000000000000000000000 000000000000000A000000000000000000000000000000000000000000000 000000000000000000000000000000000000000     00000000                                                                                                                        000000000000000000
