F0010000009888800001000083007900600013050500000000000000000201703170002001EXPRESO ANDINO DE CARGA S.A                       D000000038300000000000000000000000100010010000000000000000000000F0010000009888800120170317000101 00000000000000000000000000000000000000000000000000000000000000000000000000000000000000000000000000000000000000000N 00000000000NCONT   00    00000000000          00000000000000000000000000000000000000000000 000000000000000A000000000000000000000000000000000000000000000 000000000000000000000000000000000000000     00000000                                                                                                                        000000000000000000
F0010000009888800002000083007900600041450500000000000000000201703170002001EXPRESO ANDINO DE CARGA S.A                       C000000038100000000000000000000000100010010000000000000000000000F0010000009888800220170317000101 00000000000000000000000000000000000000000000000000000000000000000000000000000000000000000000000000000000000000000N 00000000000NCONT   00    00000000000          00000000000000000000000000000000000000000000 000000000000000A000000000000000000000000000000000000000000000 000000000000000000000000000000000000000     00000000                                                                                                                        000000000000000000
F0010000009888800003000083007900600042505000000000000000000201703170002001EXPRESO ANDINO DE CARGA S.A                       C000000000200000000000000000000000100010010000000000000000000000F0010000009888800320170317000101 00000000000000000000000000000000000000000000000000000000000000000000000000000000000000000000000000000000000000000N 00000000000NCONT   00    00000000000          00000000000000000000000000000000000000000000 000000000000000A000000000000000000000000000000000000000000000 000000000000000000000000000000000000000     00000000                                                                                                                        000000000000000000
F0010000009888800004000083007900600023658300000000000000000201703170002001EXPRESO ANDINO DE CARGA S.A                       C000000000304800000000000000000000100010010000000000000000000000F0010000009888800420170317000101 00000000000000000000000000000000000000000000000000000000000000000000000000000000000000000000000000000000000000000N 00000000000NCONT   00    00000000000          00000000000000000000000000000000000000000000 000000000000000A000000000000000000000000000000000000000000000 000000000000000000000000000000000000000     00000000                                                                                                                        000000000000000000
F0010000009888800005000083007900600013552100000000000000000201703170002001EXPRESO ANDINO DE CARGA S.A                       D000000000304800000000000000000000100010010000000000000000000000F0010000009888800520170317000101 00000000000000000000000000000000000000000000000000000000000000000000000000000000000000000000000000000000000000000N 00000000000NCONT   00    00000000000          00000000000000000000000000000000000000000000 000000000000000A000000000000000000000000000000000000000000000 000000000000000000000000000000000000000     00000000                                                                                                                        000000000000000000
F0010000009929300001000090049854300013050500000000000000000201703170002001TRAPOS INDUSTRIALES DE COLOMBIA SAS               D000000069232000000000000000000000100010010000000000000000000000F0010000009929300120170317000101 00000000000000000000000000000000000000000000000000000000000000000000000000000000000000000000000000000000000000000N 00000000000NCONT   00    00000000000          00000000000000000000000000000000000000000000 000000000000000A000000000000000000000000000000000000000000000 000000000000000000000000000000000000000     00000000                                                                                                                        000000000000000000
F0010000009929300002000090049854300041450500000000000000000201703170002001TRAPOS INDUSTRIALES DE COLOMBIA SAS               C000000065000000000000000000000000100010010000000000000000000000F0010000009929300220170317000101 00000000000000000000000000000000000000000000000000000000000000000000000000000000000000000000000000000000000000000N 00000000000NCONT   00    00000000000          00000000000000000000000000000000000000000000 000000000000000A000000000000000000000000000000000000000000000 000000000000000000000000000000000000000     00000000                                                                                                                        000000000000000000
F0010000009929300003000090049854300042505000000000000000000201703170002001TRAPOS INDUSTRIALES DE COLOMBIA SAS               C000000004232000000000000000000000100010010000000000000000000000F0010000009929300320170317000101 00000000000000000000000000000000000000000000000000000000000000000000000000000000000000000000000000000000000000000N 00000000000NCONT   00    00000000000          00000000000000000000000000000000000000000000 000000000000000A000000000000000000000000000000000000000000000 000000000000000000000000000000000000000     00000000                                                                                                                        000000000000000000
F0010000009929300004000090049854300023658300000000000000000201703170002001TRAPOS INDUSTRIALES DE COLOMBIA SAS               C000000000520000000000000000000000100010010000000000000000000000F0010000009929300420170317000101 00000000000000000000000000000000000000000000000000000000000000000000000000000000000000000000000000000000000000000N 00000000000NCONT   00    00000000000          00000000000000000000000000000000000000000000 000000000000000A000000000000000000000000000000000000000000000 000000000000000000000000000000000000000     00000000                                                                                                                        000000000000000000
F0010000009929300005000090049854300013552100000000000000000201703170002001TRAPOS INDUSTRIALES DE COLOMBIA SAS               D000000000520000000000000000000000100010010000000000000000000000F0010000009929300520170317000101 00000000000000000000000000000000000000000000000000000000000000000000000000000000000000000000000000000000000000000N 00000000000NCONT   00    00000000000          00000000000000000000000000000000000000000000 000000000000000A000000000000000000000000000000000000000000000 000000000000000000000000000000000000000     00000000                                                                                                                        000000000000000000
F0010000009929400001000000909149600011050500000000000000000201703170002001HUMBERTO CASTELAR SALAS                           D000000008000000000000000000000000100010010000000000000000000000F0010000009929400120170317000101 00000000000000000000000000000000000000000000000000000000000000000000000000000000000000000000000000000000000000000N 00000000000NCONT   00    00000000000          00000000000000000000000000000000000000000000 000000000000000A000000000000000000000000000000000000000000000 000000000000000000000000000000000000000     00000000                                                                                                                        000000000000000000
F0010000009929400002000000909149600041450500000000000000000201703170002001HUMBERTO CASTELAR SALAS                           C000000007500000000000000000000000100010010000000000000000000000F0010000009929400220170317000101 00000000000000000000000000000000000000000000000000000000000000000000000000000000000000000000000000000000000000000N 00000000000NCONT   00    00000000000          00000000000000000000000000000000000000000000 000000000000000A000000000000000000000000000000000000000000000 000000000000000000000000000000000000000     00000000                                                                                                                        000000000000000000
F0010000009929400003000000909149600042505000000000000000000201703170002001HUMBERTO CASTELAR SALAS                           C000000000500000000000000000000000100010010000000000000000000000F0010000009929400320170317000101 00000000000000000000000000000000000000000000000000000000000000000000000000000000000000000000000000000000000000000N 00000000000NCONT   00    00000000000          00000000000000000000000000000000000000000000 000000000000000A000000000000000000000000000000000000000000000 000000000000000000000000000000000000000     00000000                                                                                                                        000000000000000000
F0010000009929400004000000909149600023658300000000000000000201703170002001HUMBERTO CASTELAR SALAS                           C000000000060000000000000000000000100010010000000000000000000000F0010000009929400420170317000101 00000000000000000000000000000000000000000000000000000000000000000000000000000000000000000000000000000000000000000N 00000000000NCONT   00    00000000000          00000000000000000000000000000000000000000000 000000000000000A000000000000000000000000000000000000000000000 000000000000000000000000000000000000000     00000000                                                                                                                        000000000000000000
F0010000009929400005000000909149600013552100000000000000000201703170002001HUMBERTO CASTELAR SALAS                           D000000000060000000000000000000000100010010000000000000000000000F0010000009929400520170317000101 00000000000000000000000000000000000000000000000000000000000000000000000000000000000000000000000000000000000000000N 00000000000NCONT   00    00000000000          00000000000000000000000000000000000000000000 000000000000000A000000000000000000000000000000000000000000000 000000000000000000000000000000000000000     00000000                                                                                                                        000000000000000000
F0010000009929500001000009120302700011050500000000000000000201703170002001CALZADO REY ESTEBAN                               D000000001500000000000000000000000100010010000000000000000000000F0010000009929500120170317000101 00000000000000000000000000000000000000000000000000000000000000000000000000000000000000000000000000000000000000000N 00000000000NCONT   00    00000000000          00000000000000000000000000000000000000000000 000000000000000A000000000000000000000000000000000000000000000 000000000000000000000000000000000000000     00000000                                                                                                                        000000000000000000
F0010000009929500002000009120302700041450500000000000000000201703170002001CALZADO REY ESTEBAN                               C000000001000000000000000000000000100010010000000000000000000000F0010000009929500220170317000101 00000000000000000000000000000000000000000000000000000000000000000000000000000000000000000000000000000000000000000N 00000000000NCONT   00    00000000000          00000000000000000000000000000000000000000000 000000000000000A000000000000000000000000000000000000000000000 000000000000000000000000000000000000000     00000000                                                                                                                        000000000000000000
F0010000009929500003000009120302700042505000000000000000000201703170002001CALZADO REY ESTEBAN                               C000000000500000000000000000000000100010010000000000000000000000F0010000009929500320170317000101 00000000000000000000000000000000000000000000000000000000000000000000000000000000000000000000000000000000000000000N 00000000000NCONT   00    00000000000          00000000000000000000000000000000000000000000 000000000000000A000000000000000000000000000000000000000000000 000000000000000000000000000000000000000     00000000                                                                                                                        000000000000000000
F0010000009929500004000009120302700023658300000000000000000201703170002001CALZADO REY ESTEBAN                               C000000000008000000000000000000000100010010000000000000000000000F0010000009929500420170317000101 00000000000000000000000000000000000000000000000000000000000000000000000000000000000000000000000000000000000000000N 00000000000NCONT   00    00000000000          00000000000000000000000000000000000000000000 000000000000000A000000000000000000000000000000000000000000000 000000000000000000000000000000000000000     00000000                                                                                                                        000000000000000000
F0010000009929500005000009120302700013552100000000000000000201703170002001CALZADO REY ESTEBAN                               D000000000008000000000000000000000100010010000000000000000000000F0010000009929500520170317000101 00000000000000000000000000000000000000000000000000000000000000000000000000000000000000000000000000000000000000000N 00000000000NCONT   00    00000000000          00000000000000000000000000000000000000000000 000000000000000A000000000000000000000000000000000000000000000 000000000000000000000000000000000000000     00000000                                                                                                                        000000000000000000
F0010000009929600001000090037940600011050500000000000000000201703170002001DISTRIBUIDORA DE COSMETICOS ROSA SARON LTDA       D000000001300000000000000000000000100010010000000000000000000000F0010000009929600120170317000101 00000000000000000000000000000000000000000000000000000000000000000000000000000000000000000000000000000000000000000N 00000000000NCONT   00    00000000000          00000000000000000000000000000000000000000000 000000000000000A000000000000000000000000000000000000000000000 000000000000000000000000000000000000000     00000000                                                                                                                        000000000000000000
F0010000009929600002000090037940600041450500000000000000000201703170002001DISTRIBUIDORA DE COSMETICOS ROSA SARON LTDA       C000000001000000000000000000000000100010010000000000000000000000F0010000009929600220170317000101 00000000000000000000000000000000000000000000000000000000000000000000000000000000000000000000000000000000000000000N 00000000000NCONT   00    00000000000          00000000000000000000000000000000000000000000 000000000000000A000000000000000000000000000000000000000000000 000000000000000000000000000000000000000     00000000                                                                                                                        000000000000000000
F0010000009929600003000090037940600042505000000000000000000201703170002001DISTRIBUIDORA DE COSMETICOS ROSA SARON LTDA       C000000000300000000000000000000000100010010000000000000000000000F0010000009929600320170317000101 00000000000000000000000000000000000000000000000000000000000000000000000000000000000000000000000000000000000000000N 00000000000NCONT   00    00000000000          00000000000000000000000000000000000000000000 000000000000000A000000000000000000000000000000000000000000000 000000000000000000000000000000000000000     00000000                                                                                                                        000000000000000000
F0010000009929600004000090037940600023658300000000000000000201703170002001DISTRIBUIDORA DE COSMETICOS ROSA SARON LTDA       C000000000008000000000000000000000100010010000000000000000000000F0010000009929600420170317000101 00000000000000000000000000000000000000000000000000000000000000000000000000000000000000000000000000000000000000000N 00000000000NCONT   00    00000000000          00000000000000000000000000000000000000000000 000000000000000A000000000000000000000000000000000000000000000 000000000000000000000000000000000000000     00000000                                                                                                                        000000000000000000
F0010000009929600005000090037940600013552100000000000000000201703170002001DISTRIBUIDORA DE COSMETICOS ROSA SARON LTDA       D000000000008000000000000000000000100010010000000000000000000000F0010000009929600520170317000101 00000000000000000000000000000000000000000000000000000000000000000000000000000000000000000000000000000000000000000N 00000000000NCONT   00    00000000000          00000000000000000000000000000000000000000000 000000000000000A000000000000000000000000000000000000000000000 000000000000000000000000000000000000000     00000000                                                                                                                        000000000000000000
F0010000009929700001000009863166600011050500000000000000000201703170002001CESAR JULIAN SIERRA                               D000000020000000000000000000000000100010010000000000000000000000F0010000009929700120170317000101 00000000000000000000000000000000000000000000000000000000000000000000000000000000000000000000000000000000000000000N 00000000000NCONT   00    00000000000          00000000000000000000000000000000000000000000 000000000000000A000000000000000000000000000000000000000000000 000000000000000000000000000000000000000     00000000                                                                                                                        000000000000000000
F0010000009929700002000009863166600041450500000000000000000201703170002001CESAR JULIAN SIERRA                               C000000019000000000000000000000000100010010000000000000000000000F0010000009929700220170317000101 00000000000000000000000000000000000000000000000000000000000000000000000000000000000000000000000000000000000000000N 00000000000NCONT   00    00000000000          00000000000000000000000000000000000000000000 000000000000000A000000000000000000000000000000000000000000000 000000000000000000000000000000000000000     00000000                                                                                                                        000000000000000000
F0010000009929700003000009863166600042505000000000000000000201703170002001CESAR JULIAN SIERRA                               C000000001000000000000000000000000100010010000000000000000000000F0010000009929700320170317000101 00000000000000000000000000000000000000000000000000000000000000000000000000000000000000000000000000000000000000000N 00000000000NCONT   00    00000000000          00000000000000000000000000000000000000000000 000000000000000A000000000000000000000000000000000000000000000 000000000000000000000000000000000000000     00000000                                                                                                                        000000000000000000
F0010000009929700004000009863166600023658300000000000000000201703170002001CESAR JULIAN SIERRA                               C000000000152000000000000000000000100010010000000000000000000000F0010000009929700420170317000101 00000000000000000000000000000000000000000000000000000000000000000000000000000000000000000000000000000000000000000N 00000000000NCONT   00    00000000000          00000000000000000000000000000000000000000000 000000000000000A000000000000000000000000000000000000000000000 000000000000000000000000000000000000000     00000000                                                                                                                        000000000000000000
F0010000009929700005000009863166600013552100000000000000000201703170002001CESAR JULIAN SIERRA                               D000000000152000000000000000000000100010010000000000000000000000F0010000009929700520170317000101 00000000000000000000000000000000000000000000000000000000000000000000000000000000000000000000000000000000000000000N 00000000000NCONT   00    00000000000          00000000000000000000000000000000000000000000 000000000000000A000000000000000000000000000000000000000000000 000000000000000000000000000000000000000     00000000                                                                                                                        000000000000000000
F0010000009929800001000007213133300011050500000000000000000201703170002001ALVARO ALBERTO FANDIÑO GOMEZ                     D000000001100000000000000000000000100010010000000000000000000000F0010000009929800120170317000101 00000000000000000000000000000000000000000000000000000000000000000000000000000000000000000000000000000000000000000N 00000000000NCONT   00    00000000000          00000000000000000000000000000000000000000000 000000000000000A000000000000000000000000000000000000000000000 000000000000000000000000000000000000000     00000000                                                                                                                        000000000000000000
F0010000009929800002000007213133300041450500000000000000000201703170002001ALVARO ALBERTO FANDIÑO GOMEZ                     C000000001000000000000000000000000100010010000000000000000000000F0010000009929800220170317000101 00000000000000000000000000000000000000000000000000000000000000000000000000000000000000000000000000000000000000000N 00000000000NCONT   00    00000000000          00000000000000000000000000000000000000000000 000000000000000A000000000000000000000000000000000000000000000 000000000000000000000000000000000000000     00000000                                                                                                                        000000000000000000
F0010000009929800003000007213133300042505000000000000000000201703170002001ALVARO ALBERTO FANDIÑO GOMEZ                     C000000000100000000000000000000000100010010000000000000000000000F0010000009929800320170317000101 00000000000000000000000000000000000000000000000000000000000000000000000000000000000000000000000000000000000000000N 00000000000NCONT   00    00000000000          00000000000000000000000000000000000000000000 000000000000000A000000000000000000000000000000000000000000000 000000000000000000000000000000000000000     00000000                                                                                                                        000000000000000000
F0010000009929800004000007213133300023658300000000000000000201703170002001ALVARO ALBERTO FANDIÑO GOMEZ                     C000000000008000000000000000000000100010010000000000000000000000F0010000009929800420170317000101 00000000000000000000000000000000000000000000000000000000000000000000000000000000000000000000000000000000000000000N 00000000000NCONT   00    00000000000          00000000000000000000000000000000000000000000 000000000000000A000000000000000000000000000000000000000000000 000000000000000000000000000000000000000     00000000                                                                                                                        000000000000000000
F0010000009929800005000007213133300013552100000000000000000201703170002001ALVARO ALBERTO FANDIÑO GOMEZ                     D000000000008000000000000000000000100010010000000000000000000000F0010000009929800520170317000101 00000000000000000000000000000000000000000000000000000000000000000000000000000000000000000000000000000000000000000N 00000000000NCONT   00    00000000000          00000000000000000000000000000000000000000000 000000000000000A000000000000000000000000000000000000000000000 000000000000000000000000000000000000000     00000000                                                                                                                        000000000000000000
F0010000009929900001000080201703900011050500000000000000000201703170002001MUNDIAL CHEMICAL LTDA                             D000000002823800000000000000000000100010010000000000000000000000F0010000009929900120170317000101 00000000000000000000000000000000000000000000000000000000000000000000000000000000000000000000000000000000000000000N 00000000000NCONT   00    00000000000          00000000000000000000000000000000000000000000 000000000000000A000000000000000000000000000000000000000000000 000000000000000000000000000000000000000     00000000                                                                                                                        000000000000000000
F0010000009929900002000080201703900041450500000000000000000201703170002001MUNDIAL CHEMICAL LTDA                             C000000002730000000000000000000000100010010000000000000000000000F0010000009929900220170317000101 00000000000000000000000000000000000000000000000000000000000000000000000000000000000000000000000000000000000000000N 00000000000NCONT   00    00000000000          00000000000000000000000000000000000000000000 000000000000000A000000000000000000000000000000000000000000000 000000000000000000000000000000000000000     00000000                                                                                                                        000000000000000000
F0010000009929900003000080201703900042505000000000000000000201703170002001MUNDIAL CHEMICAL LTDA                             C000000000093800000000000000000000100010010000000000000000000000F0010000009929900320170317000101 00000000000000000000000000000000000000000000000000000000000000000000000000000000000000000000000000000000000000000N 00000000000NCONT   00    00000000000          00000000000000000000000000000000000000000000 000000000000000A000000000000000000000000000000000000000000000 000000000000000000000000000000000000000     00000000                                                                                                                        000000000000000000
F0010000009929900004000080201703900023658300000000000000000201703170002001MUNDIAL CHEMICAL LTDA                             C000000000021800000000000000000000100010010000000000000000000000F0010000009929900420170317000101 00000000000000000000000000000000000000000000000000000000000000000000000000000000000000000000000000000000000000000N 00000000000NCONT   00    00000000000          00000000000000000000000000000000000000000000 000000000000000A000000000000000000000000000000000000000000000 000000000000000000000000000000000000000     00000000                                                                                                                        000000000000000000
F0010000009929900005000080201703900013552100000000000000000201703170002001MUNDIAL CHEMICAL LTDA                             D000000000021800000000000000000000100010010000000000000000000000F0010000009929900520170317000101 00000000000000000000000000000000000000000000000000000000000000000000000000000000000000000000000000000000000000000N 00000000000NCONT   00    00000000000          00000000000000000000000000000000000000000000 000000000000000A000000000000000000000000000000000000000000000 000000000000000000000000000000000000000     00000000                                                                                                                        000000000000000000
F0010000009930000001000080201703900011050500000000000000000201703170002001MUNDIAL CHEMICAL LTDA                             D000000002200000000000000000000000100010010000000000000000000000F0010000009930000120170317000101 00000000000000000000000000000000000000000000000000000000000000000000000000000000000000000000000000000000000000000N 00000000000NCONT   00    00000000000          00000000000000000000000000000000000000000000 000000000000000A000000000000000000000000000000000000000000000 000000000000000000000000000000000000000     00000000                                                                                                                        000000000000000000
F0010000009930000002000080201703900041450500000000000000000201703170002001MUNDIAL CHEMICAL LTDA                             C000000001820000000000000000000000100010010000000000000000000000F0010000009930000220170317000101 00000000000000000000000000000000000000000000000000000000000000000000000000000000000000000000000000000000000000000N 00000000000NCONT   00    00000000000          00000000000000000000000000000000000000000000 000000000000000A000000000000000000000000000000000000000000000 000000000000000000000000000000000000000     00000000                                                                                                                        000000000000000000
F0010000009930000003000080201703900042505000000000000000000201703170002001MUNDIAL CHEMICAL LTDA                             C000000000380000000000000000000000100010010000000000000000000000F0010000009930000320170317000101 00000000000000000000000000000000000000000000000000000000000000000000000000000000000000000000000000000000000000000N 00000000000NCONT   00    00000000000          00000000000000000000000000000000000000000000 000000000000000A000000000000000000000000000000000000000000000 000000000000000000000000000000000000000     00000000                                                                                                                        000000000000000000
F0010000009930000004000080201703900023658300000000000000000201703170002001MUNDIAL CHEMICAL LTDA                             C000000000014600000000000000000000100010010000000000000000000000F0010000009930000420170317000101 00000000000000000000000000000000000000000000000000000000000000000000000000000000000000000000000000000000000000000N 00000000000NCONT   00    00000000000          00000000000000000000000000000000000000000000 000000000000000A000000000000000000000000000000000000000000000 000000000000000000000000000000000000000     00000000                                                                                                                        000000000000000000
F0010000009930000005000080201703900013552100000000000000000201703170002001MUNDIAL CHEMICAL LTDA                             D000000000014600000000000000000000100010010000000000000000000000F0010000009930000520170317000101 00000000000000000000000000000000000000000000000000000000000000000000000000000000000000000000000000000000000000000N 00000000000NCONT   00    00000000000          00000000000000000000000000000000000000000000 000000000000000A000000000000000000000000000000000000000000000 000000000000000000000000000000000000000     00000000                                                                                                                        000000000000000000
F0010000009930100001000090050144800011050500000000000000000201703170002001PLASTICOS JR ASOCIADOS SAS                        D000000003500000000000000000000000100010010000000000000000000000F0010000009930100120170317000101 00000000000000000000000000000000000000000000000000000000000000000000000000000000000000000000000000000000000000000N 00000000000NCONT   00    00000000000          00000000000000000000000000000000000000000000 000000000000000A000000000000000000000000000000000000000000000 000000000000000000000000000000000000000     00000000                                                                                                                        000000000000000000
F0010000009930100002000090050144800041450500000000000000000201703170002001PLASTICOS JR ASOCIADOS SAS                        C000000003000000000000000000000000100010010000000000000000000000F0010000009930100220170317000101 00000000000000000000000000000000000000000000000000000000000000000000000000000000000000000000000000000000000000000N 00000000000NCONT   00    00000000000          00000000000000000000000000000000000000000000 000000000000000A000000000000000000000000000000000000000000000 000000000000000000000000000000000000000     00000000                                                                                                                        000000000000000000
F0010000009930100003000090050144800042505000000000000000000201703170002001PLASTICOS JR ASOCIADOS SAS                        C000000000500000000000000000000000100010010000000000000000000000F0010000009930100320170317000101 00000000000000000000000000000000000000000000000000000000000000000000000000000000000000000000000000000000000000000N 00000000000NCONT   00    00000000000          00000000000000000000000000000000000000000000 000000000000000A000000000000000000000000000000000000000000000 000000000000000000000000000000000000000     00000000                                                                                                                        000000000000000000
F0010000009930100004000090050144800023658300000000000000000201703170002001PLASTICOS JR ASOCIADOS SAS                        C000000000024000000000000000000000100010010000000000000000000000F0010000009930100420170317000101 00000000000000000000000000000000000000000000000000000000000000000000000000000000000000000000000000000000000000000N 00000000000NCONT   00    00000000000          00000000000000000000000000000000000000000000 000000000000000A000000000000000000000000000000000000000000000 000000000000000000000000000000000000000     00000000                                                                                                                        000000000000000000
F0010000009930100005000090050144800013552100000000000000000201703170002001PLASTICOS JR ASOCIADOS SAS                        D000000000024000000000000000000000100010010000000000000000000000F0010000009930100520170317000101 00000000000000000000000000000000000000000000000000000000000000000000000000000000000000000000000000000000000000000N 00000000000NCONT   00    00000000000          00000000000000000000000000000000000000000000 000000000000000A000000000000000000000000000000000000000000000 000000000000000000000000000000000000000     00000000                                                                                                                        000000000000000000
F0010000009930200001000090050144800011050500000000000000000201703170002001PLASTICOS JR ASOCIADOS SAS                        D000000003500000000000000000000000100010010000000000000000000000F0010000009930200120170317000101 00000000000000000000000000000000000000000000000000000000000000000000000000000000000000000000000000000000000000000N 00000000000NCONT   00    00000000000          00000000000000000000000000000000000000000000 000000000000000A000000000000000000000000000000000000000000000 000000000000000000000000000000000000000     00000000                                                                                                                        000000000000000000
F0010000009930200002000090050144800041450500000000000000000201703170002001PLASTICOS JR ASOCIADOS SAS                        C000000003000000000000000000000000100010010000000000000000000000F0010000009930200220170317000101 00000000000000000000000000000000000000000000000000000000000000000000000000000000000000000000000000000000000000000N 00000000000NCONT   00    00000000000          00000000000000000000000000000000000000000000 000000000000000A000000000000000000000000000000000000000000000 000000000000000000000000000000000000000     00000000                                                                                                                        000000000000000000
F0010000009930200003000090050144800042505000000000000000000201703170002001PLASTICOS JR ASOCIADOS SAS                        C000000000500000000000000000000000100010010000000000000000000000F0010000009930200320170317000101 00000000000000000000000000000000000000000000000000000000000000000000000000000000000000000000000000000000000000000N 00000000000NCONT   00    00000000000          00000000000000000000000000000000000000000000 000000000000000A000000000000000000000000000000000000000000000 000000000000000000000000000000000000000     00000000                                                                                                                        000000000000000000
F0010000009930200004000090050144800023658300000000000000000201703170002001PLASTICOS JR ASOCIADOS SAS                        C000000000024000000000000000000000100010010000000000000000000000F0010000009930200420170317000101 00000000000000000000000000000000000000000000000000000000000000000000000000000000000000000000000000000000000000000N 00000000000NCONT   00    00000000000          00000000000000000000000000000000000000000000 000000000000000A000000000000000000000000000000000000000000000 000000000000000000000000000000000000000     00000000                                                                                                                        000000000000000000
F0010000009930200005000090050144800013552100000000000000000201703170002001PLASTICOS JR ASOCIADOS SAS                        D000000000024000000000000000000000100010010000000000000000000000F0010000009930200520170317000101 00000000000000000000000000000000000000000000000000000000000000000000000000000000000000000000000000000000000000000N 00000000000NCONT   00    00000000000          00000000000000000000000000000000000000000000 000000000000000A000000000000000000000000000000000000000000000 000000000000000000000000000000000000000     00000000                                                                                                                        000000000000000000
F0010000009930300001000007225511500011050500000000000000000201703170002001FERRETERIA DON ABRAHAN                            D000000001100000000000000000000000100010010000000000000000000000F0010000009930300120170317000101 00000000000000000000000000000000000000000000000000000000000000000000000000000000000000000000000000000000000000000N 00000000000NCONT   00    00000000000          00000000000000000000000000000000000000000000 000000000000000A000000000000000000000000000000000000000000000 000000000000000000000000000000000000000     00000000                                                                                                                        000000000000000000
F0010000009930300002000007225511500041450500000000000000000201703170002001FERRETERIA DON ABRAHAN                            C000000000900000000000000000000000100010010000000000000000000000F0010000009930300220170317000101 00000000000000000000000000000000000000000000000000000000000000000000000000000000000000000000000000000000000000000N 00000000000NCONT   00    00000000000          00000000000000000000000000000000000000000000 000000000000000A000000000000000000000000000000000000000000000 000000000000000000000000000000000000000     00000000                                                                                                                        000000000000000000
F0010000009930300003000007225511500042505000000000000000000201703170002001FERRETERIA DON ABRAHAN                            C000000000200000000000000000000000100010010000000000000000000000F0010000009930300320170317000101 00000000000000000000000000000000000000000000000000000000000000000000000000000000000000000000000000000000000000000N 00000000000NCONT   00    00000000000          00000000000000000000000000000000000000000000 000000000000000A000000000000000000000000000000000000000000000 000000000000000000000000000000000000000     00000000                                                                                                                        000000000000000000
F0010000009930300004000007225511500023658300000000000000000201703170002001FERRETERIA DON ABRAHAN                            C000000000007200000000000000000000100010010000000000000000000000F0010000009930300420170317000101 00000000000000000000000000000000000000000000000000000000000000000000000000000000000000000000000000000000000000000N 00000000000NCONT   00    00000000000          00000000000000000000000000000000000000000000 000000000000000A000000000000000000000000000000000000000000000 000000000000000000000000000000000000000     00000000                                                                                                                        000000000000000000
F0010000009930300005000007225511500013552100000000000000000201703170002001FERRETERIA DON ABRAHAN                            D000000000007200000000000000000000100010010000000000000000000000F0010000009930300520170317000101 00000000000000000000000000000000000000000000000000000000000000000000000000000000000000000000000000000000000000000N 00000000000NCONT   00    00000000000          00000000000000000000000000000000000000000000 000000000000000A000000000000000000000000000000000000000000000 000000000000000000000000000000000000000     00000000                                                                                                                        000000000000000000
F0010000009930400001000000760391200011050500000000000000000201703170002001RICARDO BOHORQUEZ GONGORA                         D000000002300000000000000000000000100010010000000000000000000000F0010000009930400120170317000101 00000000000000000000000000000000000000000000000000000000000000000000000000000000000000000000000000000000000000000N 00000000000NCONT   00    00000000000          00000000000000000000000000000000000000000000 000000000000000A000000000000000000000000000000000000000000000 000000000000000000000000000000000000000     00000000                                                                                                                        000000000000000000
F0010000009930400002000000760391200041450500000000000000000201703170002001RICARDO BOHORQUEZ GONGORA                         C000000002200000000000000000000000100010010000000000000000000000F0010000009930400220170317000101 00000000000000000000000000000000000000000000000000000000000000000000000000000000000000000000000000000000000000000N 00000000000NCONT   00    00000000000          00000000000000000000000000000000000000000000 000000000000000A000000000000000000000000000000000000000000000 000000000000000000000000000000000000000     00000000                                                                                                                        000000000000000000
F0010000009930400003000000760391200042505000000000000000000201703170002001RICARDO BOHORQUEZ GONGORA                         C000000000100000000000000000000000100010010000000000000000000000F0010000009930400320170317000101 00000000000000000000000000000000000000000000000000000000000000000000000000000000000000000000000000000000000000000N 00000000000NCONT   00    00000000000          00000000000000000000000000000000000000000000 000000000000000A000000000000000000000000000000000000000000000 000000000000000000000000000000000000000     00000000                                                                                                                        000000000000000000
F0010000009930400004000000760391200023658300000000000000000201703170002001RICARDO BOHORQUEZ GONGORA                         C000000000017600000000000000000000100010010000000000000000000000F0010000009930400420170317000101 00000000000000000000000000000000000000000000000000000000000000000000000000000000000000000000000000000000000000000N 00000000000NCONT   00    00000000000          00000000000000000000000000000000000000000000 000000000000000A000000000000000000000000000000000000000000000 000000000000000000000000000000000000000     00000000                                                                                                                        000000000000000000
F0010000009930400005000000760391200013552100000000000000000201703170002001RICARDO BOHORQUEZ GONGORA                         D000000000017600000000000000000000100010010000000000000000000000F0010000009930400520170317000101 00000000000000000000000000000000000000000000000000000000000000000000000000000000000000000000000000000000000000000N 00000000000NCONT   00    00000000000          00000000000000000000000000000000000000000000 000000000000000A000000000000000000000000000000000000000000000 000000000000000000000000000000000000000     00000000                                                                                                                        000000000000000000
F0010000009930500001000007213653800011050500000000000000000201703170002001VICTOR ECHAVEZ                                    D000000001700000000000000000000000100010010000000000000000000000F0010000009930500120170317000101 00000000000000000000000000000000000000000000000000000000000000000000000000000000000000000000000000000000000000000N 00000000000NCONT   00    00000000000          00000000000000000000000000000000000000000000 000000000000000A000000000000000000000000000000000000000000000 000000000000000000000000000000000000000     00000000                                                                                                                        000000000000000000
F0010000009930500002000007213653800041450500000000000000000201703170002001VICTOR ECHAVEZ                                    C000000001300000000000000000000000100010010000000000000000000000F0010000009930500220170317000101 00000000000000000000000000000000000000000000000000000000000000000000000000000000000000000000000000000000000000000N 00000000000NCONT   00    00000000000          00000000000000000000000000000000000000000000 000000000000000A000000000000000000000000000000000000000000000 000000000000000000000000000000000000000     00000000                                                                                                                        000000000000000000
F0010000009930500003000007213653800042505000000000000000000201703170002001VICTOR ECHAVEZ                                    C000000000400000000000000000000000100010010000000000000000000000F0010000009930500320170317000101 00000000000000000000000000000000000000000000000000000000000000000000000000000000000000000000000000000000000000000N 00000000000NCONT   00    00000000000          00000000000000000000000000000000000000000000 000000000000000A000000000000000000000000000000000000000000000 000000000000000000000000000000000000000     00000000                                                                                                                        000000000000000000
F0010000009930500004000007213653800023658300000000000000000201703170002001VICTOR ECHAVEZ                                    C000000000010400000000000000000000100010010000000000000000000000F0010000009930500420170317000101 00000000000000000000000000000000000000000000000000000000000000000000000000000000000000000000000000000000000000000N 00000000000NCONT   00    00000000000          00000000000000000000000000000000000000000000 000000000000000A000000000000000000000000000000000000000000000 000000000000000000000000000000000000000     00000000                                                                                                                        000000000000000000
F0010000009930500005000007213653800013552100000000000000000201703170002001VICTOR ECHAVEZ                                    D000000000010400000000000000000000100010010000000000000000000000F0010000009930500520170317000101 00000000000000000000000000000000000000000000000000000000000000000000000000000000000000000000000000000000000000000N 00000000000NCONT   00    00000000000          00000000000000000000000000000000000000000000 000000000000000A000000000000000000000000000000000000000000000 000000000000000000000000000000000000000     00000000                                                                                                                        000000000000000000
F0010000009930600001000007213847800011050500000000000000000201703170002001ALEJANDRO MEZA ALVAREZ                            D000000001700000000000000000000000100010010000000000000000000000F0010000009930600120170317000101 00000000000000000000000000000000000000000000000000000000000000000000000000000000000000000000000000000000000000000N 00000000000NCONT   00    00000000000          00000000000000000000000000000000000000000000 000000000000000A000000000000000000000000000000000000000000000 000000000000000000000000000000000000000     00000000                                                                                                                        000000000000000000
F0010000009930600002000007213847800041450500000000000000000201703170002001ALEJANDRO MEZA ALVAREZ                            C000000001200000000000000000000000100010010000000000000000000000F0010000009930600220170317000101 00000000000000000000000000000000000000000000000000000000000000000000000000000000000000000000000000000000000000000N 00000000000NCONT   00    00000000000          00000000000000000000000000000000000000000000 000000000000000A000000000000000000000000000000000000000000000 000000000000000000000000000000000000000     00000000                                                                                                                        000000000000000000
F0010000009930600003000007213847800042505000000000000000000201703170002001ALEJANDRO MEZA ALVAREZ                            C000000000500000000000000000000000100010010000000000000000000000F0010000009930600320170317000101 00000000000000000000000000000000000000000000000000000000000000000000000000000000000000000000000000000000000000000N 00000000000NCONT   00    00000000000          00000000000000000000000000000000000000000000 000000000000000A000000000000000000000000000000000000000000000 000000000000000000000000000000000000000     00000000                                                                                                                        000000000000000000
F0010000009930600004000007213847800023658300000000000000000201703170002001ALEJANDRO MEZA ALVAREZ                            C000000000009600000000000000000000100010010000000000000000000000F0010000009930600420170317000101 00000000000000000000000000000000000000000000000000000000000000000000000000000000000000000000000000000000000000000N 00000000000NCONT   00    00000000000          00000000000000000000000000000000000000000000 000000000000000A000000000000000000000000000000000000000000000 000000000000000000000000000000000000000     00000000                                                                                                                        000000000000000000
F0010000009930600005000007213847800013552100000000000000000201703170002001ALEJANDRO MEZA ALVAREZ                            D000000000009600000000000000000000100010010000000000000000000000F0010000009930600520170317000101 00000000000000000000000000000000000000000000000000000000000000000000000000000000000000000000000000000000000000000N 00000000000NCONT   00    00000000000          00000000000000000000000000000000000000000000 000000000000000A000000000000000000000000000000000000000000000 000000000000000000000000000000000000000     00000000                                                                                                                        000000000000000000
F0010000009930700001000007213653800011050500000000000000000201703170002001VICTOR ECHAVEZ                                    D000000003600000000000000000000000100010010000000000000000000000F0010000009930700120170317000101 00000000000000000000000000000000000000000000000000000000000000000000000000000000000000000000000000000000000000000N 00000000000NCONT   00    00000000000          00000000000000000000000000000000000000000000 000000000000000A000000000000000000000000000000000000000000000 000000000000000000000000000000000000000     00000000                                                                                                                        000000000000000000
F0010000009930700002000007213653800041450500000000000000000201703170002001VICTOR ECHAVEZ                                    C000000002600000000000000000000000100010010000000000000000000000F0010000009930700220170317000101 00000000000000000000000000000000000000000000000000000000000000000000000000000000000000000000000000000000000000000N 00000000000NCONT   00    00000000000          00000000000000000000000000000000000000000000 000000000000000A000000000000000000000000000000000000000000000 000000000000000000000000000000000000000     00000000                                                                                                                        000000000000000000
F0010000009930700003000007213653800042505000000000000000000201703170002001VICTOR ECHAVEZ                                    C000000001000000000000000000000000100010010000000000000000000000F0010000009930700320170317000101 00000000000000000000000000000000000000000000000000000000000000000000000000000000000000000000000000000000000000000N 00000000000NCONT   00    00000000000          00000000000000000000000000000000000000000000 000000000000000A000000000000000000000000000000000000000000000 000000000000000000000000000000000000000     00000000                                                                                                                        000000000000000000
F0010000009930700004000007213653800023658300000000000000000201703170002001VICTOR ECHAVEZ                                    C000000000020800000000000000000000100010010000000000000000000000F0010000009930700420170317000101 00000000000000000000000000000000000000000000000000000000000000000000000000000000000000000000000000000000000000000N 00000000000NCONT   00    00000000000          00000000000000000000000000000000000000000000 000000000000000A000000000000000000000000000000000000000000000 000000000000000000000000000000000000000     00000000                                                                                                                        000000000000000000
F0010000009930700005000007213653800013552100000000000000000201703170002001VICTOR ECHAVEZ                                    D000000000020800000000000000000000100010010000000000000000000000F0010000009930700520170317000101 00000000000000000000000000000000000000000000000000000000000000000000000000000000000000000000000000000000000000000N 00000000000NCONT   00    00000000000          00000000000000000000000000000000000000000000 000000000000000A000000000000000000000000000000000000000000000 000000000000000000000000000000000000000     00000000                                                                                                                        000000000000000000
F0010000009930800001000007213653800011050500000000000000000201703170002001VICTOR ECHAVEZ                                    D000000009800000000000000000000000100010010000000000000000000000F0010000009930800120170317000101 00000000000000000000000000000000000000000000000000000000000000000000000000000000000000000000000000000000000000000N 00000000000NCONT   00    00000000000          00000000000000000000000000000000000000000000 000000000000000A000000000000000000000000000000000000000000000 000000000000000000000000000000000000000     00000000                                                                                                                        000000000000000000
F0010000009930800002000007213653800041450500000000000000000201703170002001VICTOR ECHAVEZ                                    C000000007800000000000000000000000100010010000000000000000000000F0010000009930800220170317000101 00000000000000000000000000000000000000000000000000000000000000000000000000000000000000000000000000000000000000000N 00000000000NCONT   00    00000000000          00000000000000000000000000000000000000000000 000000000000000A000000000000000000000000000000000000000000000 000000000000000000000000000000000000000     00000000                                                                                                                        000000000000000000
F0010000009930800003000007213653800042505000000000000000000201703170002001VICTOR ECHAVEZ                                    C000000002000000000000000000000000100010010000000000000000000000F0010000009930800320170317000101 00000000000000000000000000000000000000000000000000000000000000000000000000000000000000000000000000000000000000000N 00000000000NCONT   00    00000000000          00000000000000000000000000000000000000000000 000000000000000A000000000000000000000000000000000000000000000 000000000000000000000000000000000000000     00000000                                                                                                                        000000000000000000
F0010000009930800004000007213653800023658300000000000000000201703170002001VICTOR ECHAVEZ                                    C000000000062400000000000000000000100010010000000000000000000000F0010000009930800420170317000101 00000000000000000000000000000000000000000000000000000000000000000000000000000000000000000000000000000000000000000N 00000000000NCONT   00    00000000000          00000000000000000000000000000000000000000000 000000000000000A000000000000000000000000000000000000000000000 000000000000000000000000000000000000000     00000000                                                                                                                        000000000000000000
F0010000009930800005000007213653800013552100000000000000000201703170002001VICTOR ECHAVEZ                                    D000000000062400000000000000000000100010010000000000000000000000F0010000009930800520170317000101 00000000000000000000000000000000000000000000000000000000000000000000000000000000000000000000000000000000000000000N 00000000000NCONT   00    00000000000          00000000000000000000000000000000000000000000 000000000000000A000000000000000000000000000000000000000000000 000000000000000000000000000000000000000     00000000                                                                                                                        000000000000000000
F0010000009930900001000007213653800011050500000000000000000201703170002001VICTOR ECHAVEZ                                    D000000001700000000000000000000000100010010000000000000000000000F0010000009930900120170317000101 00000000000000000000000000000000000000000000000000000000000000000000000000000000000000000000000000000000000000000N 00000000000NCONT   00    00000000000          00000000000000000000000000000000000000000000 000000000000000A000000000000000000000000000000000000000000000 000000000000000000000000000000000000000     00000000                                                                                                                        000000000000000000
F0010000009930900002000007213653800041450500000000000000000201703170002001VICTOR ECHAVEZ                                    C000000001000000000000000000000000100010010000000000000000000000F0010000009930900220170317000101 00000000000000000000000000000000000000000000000000000000000000000000000000000000000000000000000000000000000000000N 00000000000NCONT   00    00000000000          00000000000000000000000000000000000000000000 000000000000000A000000000000000000000000000000000000000000000 000000000000000000000000000000000000000     00000000                                                                                                                        000000000000000000
F0010000009930900003000007213653800042505000000000000000000201703170002001VICTOR ECHAVEZ                                    C000000000700000000000000000000000100010010000000000000000000000F0010000009930900320170317000101 00000000000000000000000000000000000000000000000000000000000000000000000000000000000000000000000000000000000000000N 00000000000NCONT   00    00000000000          00000000000000000000000000000000000000000000 000000000000000A000000000000000000000000000000000000000000000 000000000000000000000000000000000000000     00000000                                                                                                                        000000000000000000
F0010000009930900004000007213653800023658300000000000000000201703170002001VICTOR ECHAVEZ                                    C000000000008000000000000000000000100010010000000000000000000000F0010000009930900420170317000101 00000000000000000000000000000000000000000000000000000000000000000000000000000000000000000000000000000000000000000N 00000000000NCONT   00    00000000000          00000000000000000000000000000000000000000000 000000000000000A000000000000000000000000000000000000000000000 000000000000000000000000000000000000000     00000000                                                                                                                        000000000000000000
F0010000009930900005000007213653800013552100000000000000000201703170002001VICTOR ECHAVEZ                                    D000000000008000000000000000000000100010010000000000000000000000F0010000009930900520170317000101 00000000000000000000000000000000000000000000000000000000000000000000000000000000000000000000000000000000000000000N 00000000000NCONT   00    00000000000          00000000000000000000000000000000000000000000 000000000000000A000000000000000000000000000000000000000000000 000000000000000000000000000000000000000     00000000                                                                                                                        000000000000000000
F0010000009931000001000090060180600011050500000000000000000201703170002001INTERSOLES SAS                                    D000000001400000000000000000000000100010010000000000000000000000F0010000009931000120170317000101 00000000000000000000000000000000000000000000000000000000000000000000000000000000000000000000000000000000000000000N 00000000000NCONT   00    00000000000          00000000000000000000000000000000000000000000 000000000000000A000000000000000000000000000000000000000000000 000000000000000000000000000000000000000     00000000                                                                                                                        000000000000000000
F0010000009931000002000090060180600041450500000000000000000201703170002001INTERSOLES SAS                                    C000000001200000000000000000000000100010010000000000000000000000F0010000009931000220170317000101 00000000000000000000000000000000000000000000000000000000000000000000000000000000000000000000000000000000000000000N 00000000000NCONT   00    00000000000          00000000000000000000000000000000000000000000 000000000000000A000000000000000000000000000000000000000000000 000000000000000000000000000000000000000     00000000                                                                                                                        000000000000000000
F0010000009931000003000090060180600042505000000000000000000201703170002001INTERSOLES SAS                                    C000000000200000000000000000000000100010010000000000000000000000F0010000009931000320170317000101 00000000000000000000000000000000000000000000000000000000000000000000000000000000000000000000000000000000000000000N 00000000000NCONT   00    00000000000          00000000000000000000000000000000000000000000 000000000000000A000000000000000000000000000000000000000000000 000000000000000000000000000000000000000     00000000                                                                                                                        000000000000000000
F0010000009931000004000090060180600023658300000000000000000201703170002001INTERSOLES SAS                                    C000000000009600000000000000000000100010010000000000000000000000F0010000009931000420170317000101 00000000000000000000000000000000000000000000000000000000000000000000000000000000000000000000000000000000000000000N 00000000000NCONT   00    00000000000          00000000000000000000000000000000000000000000 000000000000000A000000000000000000000000000000000000000000000 000000000000000000000000000000000000000     00000000                                                                                                                        000000000000000000
F0010000009931000005000090060180600013552100000000000000000201703170002001INTERSOLES SAS                                    D000000000009600000000000000000000100010010000000000000000000000F0010000009931000520170317000101 00000000000000000000000000000000000000000000000000000000000000000000000000000000000000000000000000000000000000000N 00000000000NCONT   00    00000000000          00000000000000000000000000000000000000000000 000000000000000A000000000000000000000000000000000000000000000 000000000000000000000000000000000000000     00000000                                                                                                                        000000000000000000
F0010000009931100001000005525050200011050500000000000000000201703170002001PLASTICOS  DE LA COSTA                            D000000003444000000000000000000000100010010000000000000000000000F0010000009931100120170317000101 00000000000000000000000000000000000000000000000000000000000000000000000000000000000000000000000000000000000000000N 00000000000NCONT   00    00000000000          00000000000000000000000000000000000000000000 000000000000000A000000000000000000000000000000000000000000000 000000000000000000000000000000000000000     00000000                                                                                                                        000000000000000000
F0010000009931100002000005525050200041450500000000000000000201703170002001PLASTICOS  DE LA COSTA                            C000000003344000000000000000000000100010010000000000000000000000F0010000009931100220170317000101 00000000000000000000000000000000000000000000000000000000000000000000000000000000000000000000000000000000000000000N 00000000000NCONT   00    00000000000          00000000000000000000000000000000000000000000 000000000000000A000000000000000000000000000000000000000000000 000000000000000000000000000000000000000     00000000                                                                                                                        000000000000000000
F0010000009931100003000005525050200042505000000000000000000201703170002001PLASTICOS  DE LA COSTA                            C000000000100000000000000000000000100010010000000000000000000000F0010000009931100320170317000101 00000000000000000000000000000000000000000000000000000000000000000000000000000000000000000000000000000000000000000N 00000000000NCONT   00    00000000000          00000000000000000000000000000000000000000000 000000000000000A000000000000000000000000000000000000000000000 000000000000000000000000000000000000000     00000000                                                                                                                        000000000000000000
F0010000009931100004000005525050200023658300000000000000000201703170002001PLASTICOS  DE LA COSTA                            C000000000026800000000000000000000100010010000000000000000000000F0010000009931100420170317000101 00000000000000000000000000000000000000000000000000000000000000000000000000000000000000000000000000000000000000000N 00000000000NCONT   00    00000000000          00000000000000000000000000000000000000000000 000000000000000A000000000000000000000000000000000000000000000 000000000000000000000000000000000000000     00000000                                                                                                                        000000000000000000
F0010000009931100005000005525050200013552100000000000000000201703170002001PLASTICOS  DE LA COSTA                            D000000000026800000000000000000000100010010000000000000000000000F0010000009931100520170317000101 00000000000000000000000000000000000000000000000000000000000000000000000000000000000000000000000000000000000000000N 00000000000NCONT   00    00000000000          00000000000000000000000000000000000000000000 000000000000000A000000000000000000000000000000000000000000000 000000000000000000000000000000000000000     00000000                                                                                                                        000000000000000000
F0010000009931200001000114086853600011050500000000000000000201703170002001ISMAEL FERNANDO MEZA CASTRO                       D000000004200000000000000000000000100010010000000000000000000000F0010000009931200120170317000101 00000000000000000000000000000000000000000000000000000000000000000000000000000000000000000000000000000000000000000N 00000000000NCONT   00    00000000000          00000000000000000000000000000000000000000000 000000000000000A000000000000000000000000000000000000000000000 000000000000000000000000000000000000000     00000000                                                                                                                        000000000000000000
F0010000009931200002000114086853600041450500000000000000000201703170002001ISMAEL FERNANDO MEZA CASTRO                       C000000004000000000000000000000000100010010000000000000000000000F0010000009931200220170317000101 00000000000000000000000000000000000000000000000000000000000000000000000000000000000000000000000000000000000000000N 00000000000NCONT   00    00000000000          00000000000000000000000000000000000000000000 000000000000000A000000000000000000000000000000000000000000000 000000000000000000000000000000000000000     00000000                                                                                                                        000000000000000000
F0010000009931200003000114086853600042505000000000000000000201703170002001ISMAEL FERNANDO MEZA CASTRO                       C000000000200000000000000000000000100010010000000000000000000000F0010000009931200320170317000101 00000000000000000000000000000000000000000000000000000000000000000000000000000000000000000000000000000000000000000N 00000000000NCONT   00    00000000000          00000000000000000000000000000000000000000000 000000000000000A000000000000000000000000000000000000000000000 000000000000000000000000000000000000000     00000000                                                                                                                        000000000000000000
F0010000009931200004000114086853600023658300000000000000000201703170002001ISMAEL FERNANDO MEZA CASTRO                       C000000000032000000000000000000000100010010000000000000000000000F0010000009931200420170317000101 00000000000000000000000000000000000000000000000000000000000000000000000000000000000000000000000000000000000000000N 00000000000NCONT   00    00000000000          00000000000000000000000000000000000000000000 000000000000000A000000000000000000000000000000000000000000000 000000000000000000000000000000000000000     00000000                                                                                                                        000000000000000000
F0010000009931200005000114086853600013552100000000000000000201703170002001ISMAEL FERNANDO MEZA CASTRO                       D000000000032000000000000000000000100010010000000000000000000000F0010000009931200520170317000101 00000000000000000000000000000000000000000000000000000000000000000000000000000000000000000000000000000000000000000N 00000000000NCONT   00    00000000000          00000000000000000000000000000000000000000000 000000000000000A000000000000000000000000000000000000000000000 000000000000000000000000000000000000000     00000000                                                                                                                        000000000000000000
F0010000009931300001000090067091400011050500000000000000000201703170002001COMERCIALIZADORA ESCOBAR ORTIZ                    D000000000900000000000000000000000100010010000000000000000000000F0010000009931300120170317000101 00000000000000000000000000000000000000000000000000000000000000000000000000000000000000000000000000000000000000000N 00000000000NCONT   00    00000000000          00000000000000000000000000000000000000000000 000000000000000A000000000000000000000000000000000000000000000 000000000000000000000000000000000000000     00000000                                                                                                                        000000000000000000
F0010000009931300002000090067091400041450500000000000000000201703170002001COMERCIALIZADORA ESCOBAR ORTIZ                    C000000000350000000000000000000000100010010000000000000000000000F0010000009931300220170317000101 00000000000000000000000000000000000000000000000000000000000000000000000000000000000000000000000000000000000000000N 00000000000NCONT   00    00000000000          00000000000000000000000000000000000000000000 000000000000000A000000000000000000000000000000000000000000000 000000000000000000000000000000000000000     00000000                                                                                                                        000000000000000000
F0010000009931300003000090067091400042505000000000000000000201703170002001COMERCIALIZADORA ESCOBAR ORTIZ                    C000000000550000000000000000000000100010010000000000000000000000F0010000009931300320170317000101 00000000000000000000000000000000000000000000000000000000000000000000000000000000000000000000000000000000000000000N 00000000000NCONT   00    00000000000          00000000000000000000000000000000000000000000 000000000000000A000000000000000000000000000000000000000000000 000000000000000000000000000000000000000     00000000                                                                                                                        000000000000000000
F0010000009931300004000090067091400023658300000000000000000201703170002001COMERCIALIZADORA ESCOBAR ORTIZ                    C000000000002800000000000000000000100010010000000000000000000000F0010000009931300420170317000101 00000000000000000000000000000000000000000000000000000000000000000000000000000000000000000000000000000000000000000N 00000000000NCONT   00    00000000000          00000000000000000000000000000000000000000000 000000000000000A000000000000000000000000000000000000000000000 000000000000000000000000000000000000000     00000000                                                                                                                        000000000000000000
F0010000009931300005000090067091400013552100000000000000000201703170002001COMERCIALIZADORA ESCOBAR ORTIZ                    D000000000002800000000000000000000100010010000000000000000000000F0010000009931300520170317000101 00000000000000000000000000000000000000000000000000000000000000000000000000000000000000000000000000000000000000000N 00000000000NCONT   00    00000000000          00000000000000000000000000000000000000000000 000000000000000A000000000000000000000000000000000000000000000 000000000000000000000000000000000000000     00000000                                                                                                                        000000000000000000
F0010000009931400001000090067091400011050500000000000000000201703170002001COMERCIALIZADORA ESCOBAR ORTIZ                    D000000003650000000000000000000000100010010000000000000000000000F0010000009931400120170317000101 00000000000000000000000000000000000000000000000000000000000000000000000000000000000000000000000000000000000000000N 00000000000NCONT   00    00000000000          00000000000000000000000000000000000000000000 000000000000000A000000000000000000000000000000000000000000000 000000000000000000000000000000000000000     00000000                                                                                                                        000000000000000000
F0010000009931400002000090067091400041450500000000000000000201703170002001COMERCIALIZADORA ESCOBAR ORTIZ                    C000000001750000000000000000000000100010010000000000000000000000F0010000009931400220170317000101 00000000000000000000000000000000000000000000000000000000000000000000000000000000000000000000000000000000000000000N 00000000000NCONT   00    00000000000          00000000000000000000000000000000000000000000 000000000000000A000000000000000000000000000000000000000000000 000000000000000000000000000000000000000     00000000                                                                                                                        000000000000000000
F0010000009931400003000090067091400042505000000000000000000201703170002001COMERCIALIZADORA ESCOBAR ORTIZ                    C000000001900000000000000000000000100010010000000000000000000000F0010000009931400320170317000101 00000000000000000000000000000000000000000000000000000000000000000000000000000000000000000000000000000000000000000N 00000000000NCONT   00    00000000000          00000000000000000000000000000000000000000000 000000000000000A000000000000000000000000000000000000000000000 000000000000000000000000000000000000000     00000000                                                                                                                        000000000000000000
F0010000009931400004000090067091400023658300000000000000000201703170002001COMERCIALIZADORA ESCOBAR ORTIZ                    C000000000014000000000000000000000100010010000000000000000000000F0010000009931400420170317000101 00000000000000000000000000000000000000000000000000000000000000000000000000000000000000000000000000000000000000000N 00000000000NCONT   00    00000000000          00000000000000000000000000000000000000000000 000000000000000A000000000000000000000000000000000000000000000 000000000000000000000000000000000000000     00000000                                                                                                                        000000000000000000
F0010000009931400005000090067091400013552100000000000000000201703170002001COMERCIALIZADORA ESCOBAR ORTIZ                    D000000000014000000000000000000000100010010000000000000000000000F0010000009931400520170317000101 00000000000000000000000000000000000000000000000000000000000000000000000000000000000000000000000000000000000000000N 00000000000NCONT   00    00000000000          00000000000000000000000000000000000000000000 000000000000000A000000000000000000000000000000000000000000000 000000000000000000000000000000000000000     00000000                                                                                                                        000000000000000000
F0010000009931500001000090067091400011050500000000000000000201703170002001COMERCIALIZADORA ESCOBAR ORTIZ                    D000000001400000000000000000000000100010010000000000000000000000F0010000009931500120170317000101 00000000000000000000000000000000000000000000000000000000000000000000000000000000000000000000000000000000000000000N 00000000000NCONT   00    00000000000          00000000000000000000000000000000000000000000 000000000000000A000000000000000000000000000000000000000000000 000000000000000000000000000000000000000     00000000                                                                                                                        000000000000000000
F0010000009931500002000090067091400041450500000000000000000201703170002001COMERCIALIZADORA ESCOBAR ORTIZ                    C000000000700000000000000000000000100010010000000000000000000000F0010000009931500220170317000101 00000000000000000000000000000000000000000000000000000000000000000000000000000000000000000000000000000000000000000N 00000000000NCONT   00    00000000000          00000000000000000000000000000000000000000000 000000000000000A000000000000000000000000000000000000000000000 000000000000000000000000000000000000000     00000000                                                                                                                        000000000000000000
F0010000009931500003000090067091400042505000000000000000000201703170002001COMERCIALIZADORA ESCOBAR ORTIZ                    C000000000700000000000000000000000100010010000000000000000000000F0010000009931500320170317000101 00000000000000000000000000000000000000000000000000000000000000000000000000000000000000000000000000000000000000000N 00000000000NCONT   00    00000000000          00000000000000000000000000000000000000000000 000000000000000A000000000000000000000000000000000000000000000 000000000000000000000000000000000000000     00000000                                                                                                                        000000000000000000
F0010000009931500004000090067091400023658300000000000000000201703170002001COMERCIALIZADORA ESCOBAR ORTIZ                    C000000000005600000000000000000000100010010000000000000000000000F0010000009931500420170317000101 00000000000000000000000000000000000000000000000000000000000000000000000000000000000000000000000000000000000000000N 00000000000NCONT   00    00000000000          00000000000000000000000000000000000000000000 000000000000000A000000000000000000000000000000000000000000000 000000000000000000000000000000000000000     00000000                                                                                                                        000000000000000000
F0010000009931500005000090067091400013552100000000000000000201703170002001COMERCIALIZADORA ESCOBAR ORTIZ                    D000000000005600000000000000000000100010010000000000000000000000F0010000009931500520170317000101 00000000000000000000000000000000000000000000000000000000000000000000000000000000000000000000000000000000000000000N 00000000000NCONT   00    00000000000          00000000000000000000000000000000000000000000 000000000000000A000000000000000000000000000000000000000000000 000000000000000000000000000000000000000     00000000                                                                                                                        000000000000000000
F0010000009931600001000090067091400011050500000000000000000201703170002001COMERCIALIZADORA ESCOBAR ORTIZ                    D000000001800000000000000000000000100010010000000000000000000000F0010000009931600120170317000101 00000000000000000000000000000000000000000000000000000000000000000000000000000000000000000000000000000000000000000N 00000000000NCONT   00    00000000000          00000000000000000000000000000000000000000000 000000000000000A000000000000000000000000000000000000000000000 000000000000000000000000000000000000000     00000000                                                                                                                        000000000000000000
F0010000009931600002000090067091400041450500000000000000000201703170002001COMERCIALIZADORA ESCOBAR ORTIZ                    C000000001000000000000000000000000100010010000000000000000000000F0010000009931600220170317000101 00000000000000000000000000000000000000000000000000000000000000000000000000000000000000000000000000000000000000000N 00000000000NCONT   00    00000000000          00000000000000000000000000000000000000000000 000000000000000A000000000000000000000000000000000000000000000 000000000000000000000000000000000000000     00000000                                                                                                                        000000000000000000
F0010000009931600003000090067091400042505000000000000000000201703170002001COMERCIALIZADORA ESCOBAR ORTIZ                    C000000000800000000000000000000000100010010000000000000000000000F0010000009931600320170317000101 00000000000000000000000000000000000000000000000000000000000000000000000000000000000000000000000000000000000000000N 00000000000NCONT   00    00000000000          00000000000000000000000000000000000000000000 000000000000000A000000000000000000000000000000000000000000000 000000000000000000000000000000000000000     00000000                                                                                                                        000000000000000000
F0010000009931600004000090067091400023658300000000000000000201703170002001COMERCIALIZADORA ESCOBAR ORTIZ                    C000000000008000000000000000000000100010010000000000000000000000F0010000009931600420170317000101 00000000000000000000000000000000000000000000000000000000000000000000000000000000000000000000000000000000000000000N 00000000000NCONT   00    00000000000          00000000000000000000000000000000000000000000 000000000000000A000000000000000000000000000000000000000000000 000000000000000000000000000000000000000     00000000                                                                                                                        000000000000000000
F0010000009931600005000090067091400013552100000000000000000201703170002001COMERCIALIZADORA ESCOBAR ORTIZ                    D000000000008000000000000000000000100010010000000000000000000000F0010000009931600520170317000101 00000000000000000000000000000000000000000000000000000000000000000000000000000000000000000000000000000000000000000N 00000000000NCONT   00    00000000000          00000000000000000000000000000000000000000000 000000000000000A000000000000000000000000000000000000000000000 000000000000000000000000000000000000000     00000000                                                                                                                        000000000000000000
F0010000009931700001000090067091400011050500000000000000000201703170002001COMERCIALIZADORA ESCOBAR ORTIZ                    D000000002800000000000000000000000100010010000000000000000000000F0010000009931700120170317000101 00000000000000000000000000000000000000000000000000000000000000000000000000000000000000000000000000000000000000000N 00000000000NCONT   00    00000000000          00000000000000000000000000000000000000000000 000000000000000A000000000000000000000000000000000000000000000 000000000000000000000000000000000000000     00000000                                                                                                                        000000000000000000
F0010000009931700002000090067091400041450500000000000000000201703170002001COMERCIALIZADORA ESCOBAR ORTIZ                    C000000002000000000000000000000000100010010000000000000000000000F0010000009931700220170317000101 00000000000000000000000000000000000000000000000000000000000000000000000000000000000000000000000000000000000000000N 00000000000NCONT   00    00000000000          00000000000000000000000000000000000000000000 000000000000000A000000000000000000000000000000000000000000000 000000000000000000000000000000000000000     00000000                                                                                                                        000000000000000000
F0010000009931700003000090067091400042505000000000000000000201703170002001COMERCIALIZADORA ESCOBAR ORTIZ                    C000000000800000000000000000000000100010010000000000000000000000F0010000009931700320170317000101 00000000000000000000000000000000000000000000000000000000000000000000000000000000000000000000000000000000000000000N 00000000000NCONT   00    00000000000          00000000000000000000000000000000000000000000 000000000000000A000000000000000000000000000000000000000000000 000000000000000000000000000000000000000     00000000                                                                                                                        000000000000000000
F0010000009931700004000090067091400023658300000000000000000201703170002001COMERCIALIZADORA ESCOBAR ORTIZ                    C000000000016000000000000000000000100010010000000000000000000000F0010000009931700420170317000101 00000000000000000000000000000000000000000000000000000000000000000000000000000000000000000000000000000000000000000N 00000000000NCONT   00    00000000000          00000000000000000000000000000000000000000000 000000000000000A000000000000000000000000000000000000000000000 000000000000000000000000000000000000000     00000000                                                                                                                        000000000000000000
F0010000009931700005000090067091400013552100000000000000000201703170002001COMERCIALIZADORA ESCOBAR ORTIZ                    D000000000016000000000000000000000100010010000000000000000000000F0010000009931700520170317000101 00000000000000000000000000000000000000000000000000000000000000000000000000000000000000000000000000000000000000000N 00000000000NCONT   00    00000000000          00000000000000000000000000000000000000000000 000000000000000A000000000000000000000000000000000000000000000 000000000000000000000000000000000000000     00000000                                                                                                                        000000000000000000
F0010000009931800001000090067091400011050500000000000000000201703170002001COMERCIALIZADORA ESCOBAR ORTIZ                    D000000003000000000000000000000000100010010000000000000000000000F0010000009931800120170317000101 00000000000000000000000000000000000000000000000000000000000000000000000000000000000000000000000000000000000000000N 00000000000NCONT   00    00000000000          00000000000000000000000000000000000000000000 000000000000000A000000000000000000000000000000000000000000000 000000000000000000000000000000000000000     00000000                                                                                                                        000000000000000000
F0010000009931800002000090067091400041450500000000000000000201703170002001COMERCIALIZADORA ESCOBAR ORTIZ                    C000000002000000000000000000000000100010010000000000000000000000F0010000009931800220170317000101 00000000000000000000000000000000000000000000000000000000000000000000000000000000000000000000000000000000000000000N 00000000000NCONT   00    00000000000          00000000000000000000000000000000000000000000 000000000000000A000000000000000000000000000000000000000000000 000000000000000000000000000000000000000     00000000                                                                                                                        000000000000000000
F0010000009931800003000090067091400042505000000000000000000201703170002001COMERCIALIZADORA ESCOBAR ORTIZ                    C000000001000000000000000000000000100010010000000000000000000000F0010000009931800320170317000101 00000000000000000000000000000000000000000000000000000000000000000000000000000000000000000000000000000000000000000N 00000000000NCONT   00    00000000000          00000000000000000000000000000000000000000000 000000000000000A000000000000000000000000000000000000000000000 000000000000000000000000000000000000000     00000000                                                                                                                        000000000000000000
F0010000009931800004000090067091400023658300000000000000000201703170002001COMERCIALIZADORA ESCOBAR ORTIZ                    C000000000016000000000000000000000100010010000000000000000000000F0010000009931800420170317000101 00000000000000000000000000000000000000000000000000000000000000000000000000000000000000000000000000000000000000000N 00000000000NCONT   00    00000000000          00000000000000000000000000000000000000000000 000000000000000A000000000000000000000000000000000000000000000 000000000000000000000000000000000000000     00000000                                                                                                                        000000000000000000
F0010000009931800005000090067091400013552100000000000000000201703170002001COMERCIALIZADORA ESCOBAR ORTIZ                    D000000000016000000000000000000000100010010000000000000000000000F0010000009931800520170317000101 00000000000000000000000000000000000000000000000000000000000000000000000000000000000000000000000000000000000000000N 00000000000NCONT   00    00000000000          00000000000000000000000000000000000000000000 000000000000000A000000000000000000000000000000000000000000000 000000000000000000000000000000000000000     00000000                                                                                                                        000000000000000000
F0010000009931900001000090067091400011050500000000000000000201703170002001COMERCIALIZADORA ESCOBAR ORTIZ                    D000000007800000000000000000000000100010010000000000000000000000F0010000009931900120170317000101 00000000000000000000000000000000000000000000000000000000000000000000000000000000000000000000000000000000000000000N 00000000000NCONT   00    00000000000          00000000000000000000000000000000000000000000 000000000000000A000000000000000000000000000000000000000000000 000000000000000000000000000000000000000     00000000                                                                                                                        000000000000000000
F0010000009931900002000090067091400041450500000000000000000201703170002001COMERCIALIZADORA ESCOBAR ORTIZ                    C000000005000000000000000000000000100010010000000000000000000000F0010000009931900220170317000101 00000000000000000000000000000000000000000000000000000000000000000000000000000000000000000000000000000000000000000N 00000000000NCONT   00    00000000000          00000000000000000000000000000000000000000000 000000000000000A000000000000000000000000000000000000000000000 000000000000000000000000000000000000000     00000000                                                                                                                        000000000000000000
F0010000009931900003000090067091400042505000000000000000000201703170002001COMERCIALIZADORA ESCOBAR ORTIZ                    C000000002800000000000000000000000100010010000000000000000000000F0010000009931900320170317000101 00000000000000000000000000000000000000000000000000000000000000000000000000000000000000000000000000000000000000000N 00000000000NCONT   00    00000000000          00000000000000000000000000000000000000000000 000000000000000A000000000000000000000000000000000000000000000 000000000000000000000000000000000000000     00000000                                                                                                                        000000000000000000
F0010000009931900004000090067091400023658300000000000000000201703170002001COMERCIALIZADORA ESCOBAR ORTIZ                    C000000000040000000000000000000000100010010000000000000000000000F0010000009931900420170317000101 00000000000000000000000000000000000000000000000000000000000000000000000000000000000000000000000000000000000000000N 00000000000NCONT   00    00000000000          00000000000000000000000000000000000000000000 000000000000000A000000000000000000000000000000000000000000000 000000000000000000000000000000000000000     00000000                                                                                                                        000000000000000000
F0010000009931900005000090067091400013552100000000000000000201703170002001COMERCIALIZADORA ESCOBAR ORTIZ                    D000000000040000000000000000000000100010010000000000000000000000F0010000009931900520170317000101 00000000000000000000000000000000000000000000000000000000000000000000000000000000000000000000000000000000000000000N 00000000000NCONT   00    00000000000          00000000000000000000000000000000000000000000 000000000000000A000000000000000000000000000000000000000000000 000000000000000000000000000000000000000     00000000                                                                                                                        000000000000000000
F0010000009932000001000090067091400011050500000000000000000201703170002001COMERCIALIZADORA ESCOBAR ORTIZ                    D000000003600000000000000000000000100010010000000000000000000000F0010000009932000120170317000101 00000000000000000000000000000000000000000000000000000000000000000000000000000000000000000000000000000000000000000N 00000000000NCONT   00    00000000000          00000000000000000000000000000000000000000000 000000000000000A000000000000000000000000000000000000000000000 000000000000000000000000000000000000000     00000000                                                                                                                        000000000000000000
F0010000009932000002000090067091400041450500000000000000000201703170002001COMERCIALIZADORA ESCOBAR ORTIZ                    C000000002000000000000000000000000100010010000000000000000000000F0010000009932000220170317000101 00000000000000000000000000000000000000000000000000000000000000000000000000000000000000000000000000000000000000000N 00000000000NCONT   00    00000000000          00000000000000000000000000000000000000000000 000000000000000A000000000000000000000000000000000000000000000 000000000000000000000000000000000000000     00000000                                                                                                                        000000000000000000
F0010000009932000003000090067091400042505000000000000000000201703170002001COMERCIALIZADORA ESCOBAR ORTIZ                    C000000001600000000000000000000000100010010000000000000000000000F0010000009932000320170317000101 00000000000000000000000000000000000000000000000000000000000000000000000000000000000000000000000000000000000000000N 00000000000NCONT   00    00000000000          00000000000000000000000000000000000000000000 000000000000000A000000000000000000000000000000000000000000000 000000000000000000000000000000000000000     00000000                                                                                                                        000000000000000000
F0010000009932000004000090067091400023658300000000000000000201703170002001COMERCIALIZADORA ESCOBAR ORTIZ                    C000000000016000000000000000000000100010010000000000000000000000F0010000009932000420170317000101 00000000000000000000000000000000000000000000000000000000000000000000000000000000000000000000000000000000000000000N 00000000000NCONT   00    00000000000          00000000000000000000000000000000000000000000 000000000000000A000000000000000000000000000000000000000000000 000000000000000000000000000000000000000     00000000                                                                                                                        000000000000000000
F0010000009932000005000090067091400013552100000000000000000201703170002001COMERCIALIZADORA ESCOBAR ORTIZ                    D000000000016000000000000000000000100010010000000000000000000000F0010000009932000520170317000101 00000000000000000000000000000000000000000000000000000000000000000000000000000000000000000000000000000000000000000N 00000000000NCONT   00    00000000000          00000000000000000000000000000000000000000000 000000000000000A000000000000000000000000000000000000000000000 000000000000000000000000000000000000000     00000000                                                                                                                        000000000000000000
F0010000009932100001000090067091400011050500000000000000000201703170002001COMERCIALIZADORA ESCOBAR ORTIZ                    D000000001400000000000000000000000100010010000000000000000000000F0010000009932100120170317000101 00000000000000000000000000000000000000000000000000000000000000000000000000000000000000000000000000000000000000000N 00000000000NCONT   00    00000000000          00000000000000000000000000000000000000000000 000000000000000A000000000000000000000000000000000000000000000 000000000000000000000000000000000000000     00000000                                                                                                                        000000000000000000
F0010000009932100002000090067091400041450500000000000000000201703170002001COMERCIALIZADORA ESCOBAR ORTIZ                    C000000001000000000000000000000000100010010000000000000000000000F0010000009932100220170317000101 00000000000000000000000000000000000000000000000000000000000000000000000000000000000000000000000000000000000000000N 00000000000NCONT   00    00000000000          00000000000000000000000000000000000000000000 000000000000000A000000000000000000000000000000000000000000000 000000000000000000000000000000000000000     00000000                                                                                                                        000000000000000000
