F0010000008751300001000089011492400013050500000000000000000201606220002001AGE. CAUCHO SOL DE LA COSTA  SAS                  D000000102194300000000000000000000100010010000000000000000000000F0010000008751300120160622000101 00000000000000000000000000000000000000000000000000000000000000000000000000000000000000000000000000000000000000000N 00000000000NCONT   00    00000000000          00000000000000000000000000000000000000000000 000000000000000A000000000000000000000000000000000000000000000 000000000000000000000000000000000000000     00000000                                                                                                                        000000000000000000
F0010000008751300002000089011492400041450500000000000000000201606220002001AGE. CAUCHO SOL DE LA COSTA  SAS                  C000000050300000000000000000000000100010010000000000000000000000F0010000008751300220160622000101 00000000000000000000000000000000000000000000000000000000000000000000000000000000000000000000000000000000000000000N 00000000000NCONT   00    00000000000          00000000000000000000000000000000000000000000 000000000000000A000000000000000000000000000000000000000000000 000000000000000000000000000000000000000     00000000                                                                                                                        000000000000000000
F0010000008751300003000089011492400042505000000000000000000201606220002001AGE. CAUCHO SOL DE LA COSTA  SAS                  C000000051894300000000000000000000100010010000000000000000000000F0010000008751300320160622000101 00000000000000000000000000000000000000000000000000000000000000000000000000000000000000000000000000000000000000000N 00000000000NCONT   00    00000000000          00000000000000000000000000000000000000000000 000000000000000A000000000000000000000000000000000000000000000 000000000000000000000000000000000000000     00000000                                                                                                                        000000000000000000
F0010000008751300004000089011492400023658300000000000000000201606220002001AGE. CAUCHO SOL DE LA COSTA  SAS                  C000000000402400000000000000000000100010010000000000000000000000F0010000008751300420160622000101 00000000000000000000000000000000000000000000000000000000000000000000000000000000000000000000000000000000000000000N 00000000000NCONT   00    00000000000          00000000000000000000000000000000000000000000 000000000000000A000000000000000000000000000000000000000000000 000000000000000000000000000000000000000     00000000                                                                                                                        000000000000000000
F0010000008751300005000089011492400013552100000000000000000201606220002001AGE. CAUCHO SOL DE LA COSTA  SAS                  D000000000402400000000000000000000100010010000000000000000000000F0010000008751300520160622000101 00000000000000000000000000000000000000000000000000000000000000000000000000000000000000000000000000000000000000000N 00000000000NCONT   00    00000000000          00000000000000000000000000000000000000000000 000000000000000A000000000000000000000000000000000000000000000 000000000000000000000000000000000000000     00000000                                                                                                                        000000000000000000
F0010000008751400001000089011492400013050500000000000000000201606220002001AGE. CAUCHO SOL DE LA COSTA  SAS                  D000000150408900000000000000000000100010010000000000000000000000F0010000008751400120160622000101 00000000000000000000000000000000000000000000000000000000000000000000000000000000000000000000000000000000000000000N 00000000000NCONT   00    00000000000          00000000000000000000000000000000000000000000 000000000000000A000000000000000000000000000000000000000000000 000000000000000000000000000000000000000     00000000                                                                                                                        000000000000000000
F0010000008751400002000089011492400041450500000000000000000201606220002001AGE. CAUCHO SOL DE LA COSTA  SAS                  C000000103910000000000000000000000100010010000000000000000000000F0010000008751400220160622000101 00000000000000000000000000000000000000000000000000000000000000000000000000000000000000000000000000000000000000000N 00000000000NCONT   00    00000000000          00000000000000000000000000000000000000000000 000000000000000A000000000000000000000000000000000000000000000 000000000000000000000000000000000000000     00000000                                                                                                                        000000000000000000
F0010000008751400003000089011492400042505000000000000000000201606220002001AGE. CAUCHO SOL DE LA COSTA  SAS                  C000000046498900000000000000000000100010010000000000000000000000F0010000008751400320160622000101 00000000000000000000000000000000000000000000000000000000000000000000000000000000000000000000000000000000000000000N 00000000000NCONT   00    00000000000          00000000000000000000000000000000000000000000 000000000000000A000000000000000000000000000000000000000000000 000000000000000000000000000000000000000     00000000                                                                                                                        000000000000000000
F0010000008751400004000089011492400023658300000000000000000201606220002001AGE. CAUCHO SOL DE LA COSTA  SAS                  C000000000831300000000000000000000100010010000000000000000000000F0010000008751400420160622000101 00000000000000000000000000000000000000000000000000000000000000000000000000000000000000000000000000000000000000000N 00000000000NCONT   00    00000000000          00000000000000000000000000000000000000000000 000000000000000A000000000000000000000000000000000000000000000 000000000000000000000000000000000000000     00000000                                                                                                                        000000000000000000
F0010000008751400005000089011492400013552100000000000000000201606220002001AGE. CAUCHO SOL DE LA COSTA  SAS                  D000000000831300000000000000000000100010010000000000000000000000F0010000008751400520160622000101 00000000000000000000000000000000000000000000000000000000000000000000000000000000000000000000000000000000000000000N 00000000000NCONT   00    00000000000          00000000000000000000000000000000000000000000 000000000000000A000000000000000000000000000000000000000000000 000000000000000000000000000000000000000     00000000                                                                                                                        000000000000000000
F0010000008751500001000080004943800013050500000000000000000201606220002001PAPELERIA EL CID S.A.                             D000000075681700000000000000000000100010010000000000000000000000F0010000008751500120160622000101 00000000000000000000000000000000000000000000000000000000000000000000000000000000000000000000000000000000000000000N 00000000000NCONT   00    00000000000          00000000000000000000000000000000000000000000 000000000000000A000000000000000000000000000000000000000000000 000000000000000000000000000000000000000     00000000                                                                                                                        000000000000000000
F0010000008751500002000080004943800041450500000000000000000201606220002001PAPELERIA EL CID S.A.                             C000000064900000000000000000000000100010010000000000000000000000F0010000008751500220160622000101 00000000000000000000000000000000000000000000000000000000000000000000000000000000000000000000000000000000000000000N 00000000000NCONT   00    00000000000          00000000000000000000000000000000000000000000 000000000000000A000000000000000000000000000000000000000000000 000000000000000000000000000000000000000     00000000                                                                                                                        000000000000000000
F0010000008751500003000080004943800042505000000000000000000201606220002001PAPELERIA EL CID S.A.                             C000000010781700000000000000000000100010010000000000000000000000F0010000008751500320160622000101 00000000000000000000000000000000000000000000000000000000000000000000000000000000000000000000000000000000000000000N 00000000000NCONT   00    00000000000          00000000000000000000000000000000000000000000 000000000000000A000000000000000000000000000000000000000000000 000000000000000000000000000000000000000     00000000                                                                                                                        000000000000000000
F0010000008751500004000080004943800023658300000000000000000201606220002001PAPELERIA EL CID S.A.                             C000000000519200000000000000000000100010010000000000000000000000F0010000008751500420160622000101 00000000000000000000000000000000000000000000000000000000000000000000000000000000000000000000000000000000000000000N 00000000000NCONT   00    00000000000          00000000000000000000000000000000000000000000 000000000000000A000000000000000000000000000000000000000000000 000000000000000000000000000000000000000     00000000                                                                                                                        000000000000000000
F0010000008751500005000080004943800013552100000000000000000201606220002001PAPELERIA EL CID S.A.                             D000000000519200000000000000000000100010010000000000000000000000F0010000008751500520160622000101 00000000000000000000000000000000000000000000000000000000000000000000000000000000000000000000000000000000000000000N 00000000000NCONT   00    00000000000          00000000000000000000000000000000000000000000 000000000000000A000000000000000000000000000000000000000000000 000000000000000000000000000000000000000     00000000                                                                                                                        000000000000000000
F0010000008751600001000080004943800013050500000000000000000201606220002001PAPELERIA EL CID S.A.                             D000000017427500000000000000000000100010010000000000000000000000F0010000008751600120160622000101 00000000000000000000000000000000000000000000000000000000000000000000000000000000000000000000000000000000000000000N 00000000000NCONT   00    00000000000          00000000000000000000000000000000000000000000 000000000000000A000000000000000000000000000000000000000000000 000000000000000000000000000000000000000     00000000                                                                                                                        000000000000000000
F0010000008751600002000080004943800041450500000000000000000201606220002001PAPELERIA EL CID S.A.                             C000000014110000000000000000000000100010010000000000000000000000F0010000008751600220160622000101 00000000000000000000000000000000000000000000000000000000000000000000000000000000000000000000000000000000000000000N 00000000000NCONT   00    00000000000          00000000000000000000000000000000000000000000 000000000000000A000000000000000000000000000000000000000000000 000000000000000000000000000000000000000     00000000                                                                                                                        000000000000000000
F0010000008751600003000080004943800042505000000000000000000201606220002001PAPELERIA EL CID S.A.                             C000000003317500000000000000000000100010010000000000000000000000F0010000008751600320160622000101 00000000000000000000000000000000000000000000000000000000000000000000000000000000000000000000000000000000000000000N 00000000000NCONT   00    00000000000          00000000000000000000000000000000000000000000 000000000000000A000000000000000000000000000000000000000000000 000000000000000000000000000000000000000     00000000                                                                                                                        000000000000000000
F0010000008751600004000080004943800023658300000000000000000201606220002001PAPELERIA EL CID S.A.                             C000000000112900000000000000000000100010010000000000000000000000F0010000008751600420160622000101 00000000000000000000000000000000000000000000000000000000000000000000000000000000000000000000000000000000000000000N 00000000000NCONT   00    00000000000          00000000000000000000000000000000000000000000 000000000000000A000000000000000000000000000000000000000000000 000000000000000000000000000000000000000     00000000                                                                                                                        000000000000000000
F0010000008751600005000080004943800013552100000000000000000201606220002001PAPELERIA EL CID S.A.                             D000000000112900000000000000000000100010010000000000000000000000F0010000008751600520160622000101 00000000000000000000000000000000000000000000000000000000000000000000000000000000000000000000000000000000000000000N 00000000000NCONT   00    00000000000          00000000000000000000000000000000000000000000 000000000000000A000000000000000000000000000000000000000000000 000000000000000000000000000000000000000     00000000                                                                                                                        000000000000000000
F0010000008751700001000080202094000013050500000000000000000201606220002001DISTRIB. OMAR ORREGO S.A.                         D000000093579700000000000000000000100010010000000000000000000000F0010000008751700120160622000101 00000000000000000000000000000000000000000000000000000000000000000000000000000000000000000000000000000000000000000N 00000000000NCONT   00    00000000000          00000000000000000000000000000000000000000000 000000000000000A000000000000000000000000000000000000000000000 000000000000000000000000000000000000000     00000000                                                                                                                        000000000000000000
F0010000008751700002000080202094000041450500000000000000000201606220002001DISTRIB. OMAR ORREGO S.A.                         C000000063080000000000000000000000100010010000000000000000000000F0010000008751700220160622000101 00000000000000000000000000000000000000000000000000000000000000000000000000000000000000000000000000000000000000000N 00000000000NCONT   00    00000000000          00000000000000000000000000000000000000000000 000000000000000A000000000000000000000000000000000000000000000 000000000000000000000000000000000000000     00000000                                                                                                                        000000000000000000
F0010000008751700003000080202094000042505000000000000000000201606220002001DISTRIB. OMAR ORREGO S.A.                         C000000030499700000000000000000000100010010000000000000000000000F0010000008751700320160622000101 00000000000000000000000000000000000000000000000000000000000000000000000000000000000000000000000000000000000000000N 00000000000NCONT   00    00000000000          00000000000000000000000000000000000000000000 000000000000000A000000000000000000000000000000000000000000000 000000000000000000000000000000000000000     00000000                                                                                                                        000000000000000000
F0010000008751700004000080202094000023658300000000000000000201606220002001DISTRIB. OMAR ORREGO S.A.                         C000000000504600000000000000000000100010010000000000000000000000F0010000008751700420160622000101 00000000000000000000000000000000000000000000000000000000000000000000000000000000000000000000000000000000000000000N 00000000000NCONT   00    00000000000          00000000000000000000000000000000000000000000 000000000000000A000000000000000000000000000000000000000000000 000000000000000000000000000000000000000     00000000                                                                                                                        000000000000000000
F0010000008751700005000080202094000013552100000000000000000201606220002001DISTRIB. OMAR ORREGO S.A.                         D000000000504600000000000000000000100010010000000000000000000000F0010000008751700520160622000101 00000000000000000000000000000000000000000000000000000000000000000000000000000000000000000000000000000000000000000N 00000000000NCONT   00    00000000000          00000000000000000000000000000000000000000000 000000000000000A000000000000000000000000000000000000000000000 000000000000000000000000000000000000000     00000000                                                                                                                        000000000000000000
F0010000008751800001000080202094000013050500000000000000000201606220002001DISTRIB. OMAR ORREGO S.A.                         D000000041305900000000000000000000100010010000000000000000000000F0010000008751800120160622000101 00000000000000000000000000000000000000000000000000000000000000000000000000000000000000000000000000000000000000000N 00000000000NCONT   00    00000000000          00000000000000000000000000000000000000000000 000000000000000A000000000000000000000000000000000000000000000 000000000000000000000000000000000000000     00000000                                                                                                                        000000000000000000
F0010000008751800002000080202094000041450500000000000000000201606220002001DISTRIB. OMAR ORREGO S.A.                         C000000024850000000000000000000000100010010000000000000000000000F0010000008751800220160622000101 00000000000000000000000000000000000000000000000000000000000000000000000000000000000000000000000000000000000000000N 00000000000NCONT   00    00000000000          00000000000000000000000000000000000000000000 000000000000000A000000000000000000000000000000000000000000000 000000000000000000000000000000000000000     00000000                                                                                                                        000000000000000000
F0010000008751800003000080202094000042505000000000000000000201606220002001DISTRIB. OMAR ORREGO S.A.                         C000000016455900000000000000000000100010010000000000000000000000F0010000008751800320160622000101 00000000000000000000000000000000000000000000000000000000000000000000000000000000000000000000000000000000000000000N 00000000000NCONT   00    00000000000          00000000000000000000000000000000000000000000 000000000000000A000000000000000000000000000000000000000000000 000000000000000000000000000000000000000     00000000                                                                                                                        000000000000000000
F0010000008751800004000080202094000023658300000000000000000201606220002001DISTRIB. OMAR ORREGO S.A.                         C000000000198800000000000000000000100010010000000000000000000000F0010000008751800420160622000101 00000000000000000000000000000000000000000000000000000000000000000000000000000000000000000000000000000000000000000N 00000000000NCONT   00    00000000000          00000000000000000000000000000000000000000000 000000000000000A000000000000000000000000000000000000000000000 000000000000000000000000000000000000000     00000000                                                                                                                        000000000000000000
F0010000008751800005000080202094000013552100000000000000000201606220002001DISTRIB. OMAR ORREGO S.A.                         D000000000198800000000000000000000100010010000000000000000000000F0010000008751800520160622000101 00000000000000000000000000000000000000000000000000000000000000000000000000000000000000000000000000000000000000000N 00000000000NCONT   00    00000000000          00000000000000000000000000000000000000000000 000000000000000A000000000000000000000000000000000000000000000 000000000000000000000000000000000000000     00000000                                                                                                                        000000000000000000
F0010000008751900001000089010260300013050500000000000000000201606220002001FEDERICO OSORIO A. S.A.                           D000000157382500000000000000000000100010010000000000000000000000F0010000008751900120160622000101 00000000000000000000000000000000000000000000000000000000000000000000000000000000000000000000000000000000000000000N 00000000000NCONT   00    00000000000          00000000000000000000000000000000000000000000 000000000000000A000000000000000000000000000000000000000000000 000000000000000000000000000000000000000     00000000                                                                                                                        000000000000000000
F0010000008751900002000089010260300041450500000000000000000201606220002001FEDERICO OSORIO A. S.A.                           C000000150800000000000000000000000100010010000000000000000000000F0010000008751900220160622000101 00000000000000000000000000000000000000000000000000000000000000000000000000000000000000000000000000000000000000000N 00000000000NCONT   00    00000000000          00000000000000000000000000000000000000000000 000000000000000A000000000000000000000000000000000000000000000 000000000000000000000000000000000000000     00000000                                                                                                                        000000000000000000
F0010000008751900003000089010260300042505000000000000000000201606220002001FEDERICO OSORIO A. S.A.                           C000000006582500000000000000000000100010010000000000000000000000F0010000008751900320160622000101 00000000000000000000000000000000000000000000000000000000000000000000000000000000000000000000000000000000000000000N 00000000000NCONT   00    00000000000          00000000000000000000000000000000000000000000 000000000000000A000000000000000000000000000000000000000000000 000000000000000000000000000000000000000     00000000                                                                                                                        000000000000000000
F0010000008751900004000089010260300023658300000000000000000201606220002001FEDERICO OSORIO A. S.A.                           C000000001206400000000000000000000100010010000000000000000000000F0010000008751900420160622000101 00000000000000000000000000000000000000000000000000000000000000000000000000000000000000000000000000000000000000000N 00000000000NCONT   00    00000000000          00000000000000000000000000000000000000000000 000000000000000A000000000000000000000000000000000000000000000 000000000000000000000000000000000000000     00000000                                                                                                                        000000000000000000
F0010000008751900005000089010260300013552100000000000000000201606220002001FEDERICO OSORIO A. S.A.                           D000000001206400000000000000000000100010010000000000000000000000F0010000008751900520160622000101 00000000000000000000000000000000000000000000000000000000000000000000000000000000000000000000000000000000000000000N 00000000000NCONT   00    00000000000          00000000000000000000000000000000000000000000 000000000000000A000000000000000000000000000000000000000000000 000000000000000000000000000000000000000     00000000                                                                                                                        000000000000000000
F0010000008752000001000089010260300013050500000000000000000201606220002001FEDERICO OSORIO A. S.A.                           D000000269112500000000000000000000100010010000000000000000000000F0010000008752000120160622000101 00000000000000000000000000000000000000000000000000000000000000000000000000000000000000000000000000000000000000000N 00000000000NCONT   00    00000000000          00000000000000000000000000000000000000000000 000000000000000A000000000000000000000000000000000000000000000 000000000000000000000000000000000000000     00000000                                                                                                                        000000000000000000
F0010000008752000002000089010260300041450500000000000000000201606220002001FEDERICO OSORIO A. S.A.                           C000000257880000000000000000000000100010010000000000000000000000F0010000008752000220160622000101 00000000000000000000000000000000000000000000000000000000000000000000000000000000000000000000000000000000000000000N 00000000000NCONT   00    00000000000          00000000000000000000000000000000000000000000 000000000000000A000000000000000000000000000000000000000000000 000000000000000000000000000000000000000     00000000                                                                                                                        000000000000000000
F0010000008752000003000089010260300042505000000000000000000201606220002001FEDERICO OSORIO A. S.A.                           C000000011232500000000000000000000100010010000000000000000000000F0010000008752000320160622000101 00000000000000000000000000000000000000000000000000000000000000000000000000000000000000000000000000000000000000000N 00000000000NCONT   00    00000000000          00000000000000000000000000000000000000000000 000000000000000A000000000000000000000000000000000000000000000 000000000000000000000000000000000000000     00000000                                                                                                                        000000000000000000
F0010000008752000004000089010260300023658300000000000000000201606220002001FEDERICO OSORIO A. S.A.                           C000000002063000000000000000000000100010010000000000000000000000F0010000008752000420160622000101 00000000000000000000000000000000000000000000000000000000000000000000000000000000000000000000000000000000000000000N 00000000000NCONT   00    00000000000          00000000000000000000000000000000000000000000 000000000000000A000000000000000000000000000000000000000000000 000000000000000000000000000000000000000     00000000                                                                                                                        000000000000000000
F0010000008752000005000089010260300013552100000000000000000201606220002001FEDERICO OSORIO A. S.A.                           D000000002063000000000000000000000100010010000000000000000000000F0010000008752000520160622000101 00000000000000000000000000000000000000000000000000000000000000000000000000000000000000000000000000000000000000000N 00000000000NCONT   00    00000000000          00000000000000000000000000000000000000000000 000000000000000A000000000000000000000000000000000000000000000 000000000000000000000000000000000000000     00000000                                                                                                                        000000000000000000
F0010000008752100001000089010260300013050500000000000000000201606220002001FEDERICO OSORIO A. S.A.                           D000000073882700000000000000000000100010010000000000000000000000F0010000008752100120160622000101 00000000000000000000000000000000000000000000000000000000000000000000000000000000000000000000000000000000000000000N 00000000000NCONT   00    00000000000          00000000000000000000000000000000000000000000 000000000000000A000000000000000000000000000000000000000000000 000000000000000000000000000000000000000     00000000                                                                                                                        000000000000000000
F0010000008752100002000089010260300041450500000000000000000201606220002001FEDERICO OSORIO A. S.A.                           C000000068450000000000000000000000100010010000000000000000000000F0010000008752100220160622000101 00000000000000000000000000000000000000000000000000000000000000000000000000000000000000000000000000000000000000000N 00000000000NCONT   00    00000000000          00000000000000000000000000000000000000000000 000000000000000A000000000000000000000000000000000000000000000 000000000000000000000000000000000000000     00000000                                                                                                                        000000000000000000
F0010000008752100003000089010260300042505000000000000000000201606220002001FEDERICO OSORIO A. S.A.                           C000000005432700000000000000000000100010010000000000000000000000F0010000008752100320160622000101 00000000000000000000000000000000000000000000000000000000000000000000000000000000000000000000000000000000000000000N 00000000000NCONT   00    00000000000          00000000000000000000000000000000000000000000 000000000000000A000000000000000000000000000000000000000000000 000000000000000000000000000000000000000     00000000                                                                                                                        000000000000000000
F0010000008752100004000089010260300023658300000000000000000201606220002001FEDERICO OSORIO A. S.A.                           C000000000547600000000000000000000100010010000000000000000000000F0010000008752100420160622000101 00000000000000000000000000000000000000000000000000000000000000000000000000000000000000000000000000000000000000000N 00000000000NCONT   00    00000000000          00000000000000000000000000000000000000000000 000000000000000A000000000000000000000000000000000000000000000 000000000000000000000000000000000000000     00000000                                                                                                                        000000000000000000
F0010000008752100005000089010260300013552100000000000000000201606220002001FEDERICO OSORIO A. S.A.                           D000000000547600000000000000000000100010010000000000000000000000F0010000008752100520160622000101 00000000000000000000000000000000000000000000000000000000000000000000000000000000000000000000000000000000000000000N 00000000000NCONT   00    00000000000          00000000000000000000000000000000000000000000 000000000000000A000000000000000000000000000000000000000000000 000000000000000000000000000000000000000     00000000                                                                                                                        000000000000000000
F0010000008752200001000080019113900013050500000000000000000201606220002001COMERCIAL NOVAPEL LTDA                            D000000014770000000000000000000000100010010000000000000000000000F0010000008752200120160622000101 00000000000000000000000000000000000000000000000000000000000000000000000000000000000000000000000000000000000000000N 00000000000NCONT   00    00000000000          00000000000000000000000000000000000000000000 000000000000000A000000000000000000000000000000000000000000000 000000000000000000000000000000000000000     00000000                                                                                                                        000000000000000000
F0010000008752200002000080019113900041450500000000000000000201606220002001COMERCIAL NOVAPEL LTDA                            C000000013320000000000000000000000100010010000000000000000000000F0010000008752200220160622000101 00000000000000000000000000000000000000000000000000000000000000000000000000000000000000000000000000000000000000000N 00000000000NCONT   00    00000000000          00000000000000000000000000000000000000000000 000000000000000A000000000000000000000000000000000000000000000 000000000000000000000000000000000000000     00000000                                                                                                                        000000000000000000
F0010000008752200003000080019113900042505000000000000000000201606220002001COMERCIAL NOVAPEL LTDA                            C000000001450000000000000000000000100010010000000000000000000000F0010000008752200320160622000101 00000000000000000000000000000000000000000000000000000000000000000000000000000000000000000000000000000000000000000N 00000000000NCONT   00    00000000000          00000000000000000000000000000000000000000000 000000000000000A000000000000000000000000000000000000000000000 000000000000000000000000000000000000000     00000000                                                                                                                        000000000000000000
F0010000008752200004000080019113900023658300000000000000000201606220002001COMERCIAL NOVAPEL LTDA                            C000000000106600000000000000000000100010010000000000000000000000F0010000008752200420160622000101 00000000000000000000000000000000000000000000000000000000000000000000000000000000000000000000000000000000000000000N 00000000000NCONT   00    00000000000          00000000000000000000000000000000000000000000 000000000000000A000000000000000000000000000000000000000000000 000000000000000000000000000000000000000     00000000                                                                                                                        000000000000000000
F0010000008752200005000080019113900013552100000000000000000201606220002001COMERCIAL NOVAPEL LTDA                            D000000000106600000000000000000000100010010000000000000000000000F0010000008752200520160622000101 00000000000000000000000000000000000000000000000000000000000000000000000000000000000000000000000000000000000000000N 00000000000NCONT   00    00000000000          00000000000000000000000000000000000000000000 000000000000000A000000000000000000000000000000000000000000000 000000000000000000000000000000000000000     00000000                                                                                                                        000000000000000000
F0010000008752300001000080201112800013050500000000000000000201606220002001CANGURO INTERNATIONAL S.A.                        D000000160142800000000000000000000100010010000000000000000000000F0010000008752300120160622000101 00000000000000000000000000000000000000000000000000000000000000000000000000000000000000000000000000000000000000000N 00000000000NCONT   00    00000000000          00000000000000000000000000000000000000000000 000000000000000A000000000000000000000000000000000000000000000 000000000000000000000000000000000000000     00000000                                                                                                                        000000000000000000
F0010000008752300002000080201112800041450500000000000000000201606220002001CANGURO INTERNATIONAL S.A.                        C000000157042800000000000000000000100010010000000000000000000000F0010000008752300220160622000101 00000000000000000000000000000000000000000000000000000000000000000000000000000000000000000000000000000000000000000N 00000000000NCONT   00    00000000000          00000000000000000000000000000000000000000000 000000000000000A000000000000000000000000000000000000000000000 000000000000000000000000000000000000000     00000000                                                                                                                        000000000000000000
F0010000008752300003000080201112800042505000000000000000000201606220002001CANGURO INTERNATIONAL S.A.                        C000000003100000000000000000000000100010010000000000000000000000F0010000008752300320160622000101 00000000000000000000000000000000000000000000000000000000000000000000000000000000000000000000000000000000000000000N 00000000000NCONT   00    00000000000          00000000000000000000000000000000000000000000 000000000000000A000000000000000000000000000000000000000000000 000000000000000000000000000000000000000     00000000                                                                                                                        000000000000000000
F0010000008752300004000080201112800023658300000000000000000201606220002001CANGURO INTERNATIONAL S.A.                        C000000001256300000000000000000000100010010000000000000000000000F0010000008752300420160622000101 00000000000000000000000000000000000000000000000000000000000000000000000000000000000000000000000000000000000000000N 00000000000NCONT   00    00000000000          00000000000000000000000000000000000000000000 000000000000000A000000000000000000000000000000000000000000000 000000000000000000000000000000000000000     00000000                                                                                                                        000000000000000000
F0010000008752300005000080201112800013552100000000000000000201606220002001CANGURO INTERNATIONAL S.A.                        D000000001256300000000000000000000100010010000000000000000000000F0010000008752300520160622000101 00000000000000000000000000000000000000000000000000000000000000000000000000000000000000000000000000000000000000000N 00000000000NCONT   00    00000000000          00000000000000000000000000000000000000000000 000000000000000A000000000000000000000000000000000000000000000 000000000000000000000000000000000000000     00000000                                                                                                                        000000000000000000
F0010000008752400001000080201112800013050500000000000000000201606220002001CANGURO INTERNATIONAL S.A.                        D000000229752900000000000000000000100010010000000000000000000000F0010000008752400120160622000101 00000000000000000000000000000000000000000000000000000000000000000000000000000000000000000000000000000000000000000N 00000000000NCONT   00    00000000000          00000000000000000000000000000000000000000000 000000000000000A000000000000000000000000000000000000000000000 000000000000000000000000000000000000000     00000000                                                                                                                        000000000000000000
F0010000008752400002000080201112800041450500000000000000000201606220002001CANGURO INTERNATIONAL S.A.                        C000000214782100000000000000000000100010010000000000000000000000F0010000008752400220160622000101 00000000000000000000000000000000000000000000000000000000000000000000000000000000000000000000000000000000000000000N 00000000000NCONT   00    00000000000          00000000000000000000000000000000000000000000 000000000000000A000000000000000000000000000000000000000000000 000000000000000000000000000000000000000     00000000                                                                                                                        000000000000000000
F0010000008752400003000080201112800042505000000000000000000201606220002001CANGURO INTERNATIONAL S.A.                        C000000014970800000000000000000000100010010000000000000000000000F0010000008752400320160622000101 00000000000000000000000000000000000000000000000000000000000000000000000000000000000000000000000000000000000000000N 00000000000NCONT   00    00000000000          00000000000000000000000000000000000000000000 000000000000000A000000000000000000000000000000000000000000000 000000000000000000000000000000000000000     00000000                                                                                                                        000000000000000000
F0010000008752400004000080201112800023658300000000000000000201606220002001CANGURO INTERNATIONAL S.A.                        C000000001718300000000000000000000100010010000000000000000000000F0010000008752400420160622000101 00000000000000000000000000000000000000000000000000000000000000000000000000000000000000000000000000000000000000000N 00000000000NCONT   00    00000000000          00000000000000000000000000000000000000000000 000000000000000A000000000000000000000000000000000000000000000 000000000000000000000000000000000000000     00000000                                                                                                                        000000000000000000
F0010000008752400005000080201112800013552100000000000000000201606220002001CANGURO INTERNATIONAL S.A.                        D000000001718300000000000000000000100010010000000000000000000000F0010000008752400520160622000101 00000000000000000000000000000000000000000000000000000000000000000000000000000000000000000000000000000000000000000N 00000000000NCONT   00    00000000000          00000000000000000000000000000000000000000000 000000000000000A000000000000000000000000000000000000000000000 000000000000000000000000000000000000000     00000000                                                                                                                        000000000000000000
F0010000008752500001000080201112800013050500000000000000000201606220002001CANGURO INTERNATIONAL S.A.                        D000000150647700000000000000000000100010010000000000000000000000F0010000008752500120160622000101 00000000000000000000000000000000000000000000000000000000000000000000000000000000000000000000000000000000000000000N 00000000000NCONT   00    00000000000          00000000000000000000000000000000000000000000 000000000000000A000000000000000000000000000000000000000000000 000000000000000000000000000000000000000     00000000                                                                                                                        000000000000000000
F0010000008752500002000080201112800041450500000000000000000201606220002001CANGURO INTERNATIONAL S.A.                        C000000140541000000000000000000000100010010000000000000000000000F0010000008752500220160622000101 00000000000000000000000000000000000000000000000000000000000000000000000000000000000000000000000000000000000000000N 00000000000NCONT   00    00000000000          00000000000000000000000000000000000000000000 000000000000000A000000000000000000000000000000000000000000000 000000000000000000000000000000000000000     00000000                                                                                                                        000000000000000000
F0010000008752500003000080201112800042505000000000000000000201606220002001CANGURO INTERNATIONAL S.A.                        C000000010106700000000000000000000100010010000000000000000000000F0010000008752500320160622000101 00000000000000000000000000000000000000000000000000000000000000000000000000000000000000000000000000000000000000000N 00000000000NCONT   00    00000000000          00000000000000000000000000000000000000000000 000000000000000A000000000000000000000000000000000000000000000 000000000000000000000000000000000000000     00000000                                                                                                                        000000000000000000
F0010000008752500004000080201112800023658300000000000000000201606220002001CANGURO INTERNATIONAL S.A.                        C000000001124300000000000000000000100010010000000000000000000000F0010000008752500420160622000101 00000000000000000000000000000000000000000000000000000000000000000000000000000000000000000000000000000000000000000N 00000000000NCONT   00    00000000000          00000000000000000000000000000000000000000000 000000000000000A000000000000000000000000000000000000000000000 000000000000000000000000000000000000000     00000000                                                                                                                        000000000000000000
F0010000008752500005000080201112800013552100000000000000000201606220002001CANGURO INTERNATIONAL S.A.                        D000000001124300000000000000000000100010010000000000000000000000F0010000008752500520160622000101 00000000000000000000000000000000000000000000000000000000000000000000000000000000000000000000000000000000000000000N 00000000000NCONT   00    00000000000          00000000000000000000000000000000000000000000 000000000000000A000000000000000000000000000000000000000000000 000000000000000000000000000000000000000     00000000                                                                                                                        000000000000000000
F0010000008752600001000007213653800011050500000000000000000201606220002001VICTOR ECHAVEZ GUTIERREZ                          D000000001050000000000000000000000100010010000000000000000000000F0010000008752600120160622000101 00000000000000000000000000000000000000000000000000000000000000000000000000000000000000000000000000000000000000000N 00000000000NCONT   00    00000000000          00000000000000000000000000000000000000000000 000000000000000A000000000000000000000000000000000000000000000 000000000000000000000000000000000000000     00000000                                                                                                                        000000000000000000
F0010000008752600002000007213653800041450500000000000000000201606220002001VICTOR ECHAVEZ GUTIERREZ                          C000000000950000000000000000000000100010010000000000000000000000F0010000008752600220160622000101 00000000000000000000000000000000000000000000000000000000000000000000000000000000000000000000000000000000000000000N 00000000000NCONT   00    00000000000          00000000000000000000000000000000000000000000 000000000000000A000000000000000000000000000000000000000000000 000000000000000000000000000000000000000     00000000                                                                                                                        000000000000000000
F0010000008752600003000007213653800042505000000000000000000201606220002001VICTOR ECHAVEZ GUTIERREZ                          C000000000100000000000000000000000100010010000000000000000000000F0010000008752600320160622000101 00000000000000000000000000000000000000000000000000000000000000000000000000000000000000000000000000000000000000000N 00000000000NCONT   00    00000000000          00000000000000000000000000000000000000000000 000000000000000A000000000000000000000000000000000000000000000 000000000000000000000000000000000000000     00000000                                                                                                                        000000000000000000
F0010000008752600004000007213653800023658300000000000000000201606220002001VICTOR ECHAVEZ GUTIERREZ                          C000000000007600000000000000000000100010010000000000000000000000F0010000008752600420160622000101 00000000000000000000000000000000000000000000000000000000000000000000000000000000000000000000000000000000000000000N 00000000000NCONT   00    00000000000          00000000000000000000000000000000000000000000 000000000000000A000000000000000000000000000000000000000000000 000000000000000000000000000000000000000     00000000                                                                                                                        000000000000000000
F0010000008752600005000007213653800013552100000000000000000201606220002001VICTOR ECHAVEZ GUTIERREZ                          D000000000007600000000000000000000100010010000000000000000000000F0010000008752600520160622000101 00000000000000000000000000000000000000000000000000000000000000000000000000000000000000000000000000000000000000000N 00000000000NCONT   00    00000000000          00000000000000000000000000000000000000000000 000000000000000A000000000000000000000000000000000000000000000 000000000000000000000000000000000000000     00000000                                                                                                                        000000000000000000
F0010000008752700001000009313581500011050500000000000000000201606220002001JUAN ARCE NUÑEZ                                  D000000015000000000000000000000000100010010000000000000000000000F0010000008752700120160622000101 00000000000000000000000000000000000000000000000000000000000000000000000000000000000000000000000000000000000000000N 00000000000NCONT   00    00000000000          00000000000000000000000000000000000000000000 000000000000000A000000000000000000000000000000000000000000000 000000000000000000000000000000000000000     00000000                                                                                                                        000000000000000000
F0010000008752700002000009313581500041450500000000000000000201606220002001JUAN ARCE NUÑEZ                                  C000000012000000000000000000000000100010010000000000000000000000F0010000008752700220160622000101 00000000000000000000000000000000000000000000000000000000000000000000000000000000000000000000000000000000000000000N 00000000000NCONT   00    00000000000          00000000000000000000000000000000000000000000 000000000000000A000000000000000000000000000000000000000000000 000000000000000000000000000000000000000     00000000                                                                                                                        000000000000000000
F0010000008752700003000009313581500042505000000000000000000201606220002001JUAN ARCE NUÑEZ                                  C000000003000000000000000000000000100010010000000000000000000000F0010000008752700320160622000101 00000000000000000000000000000000000000000000000000000000000000000000000000000000000000000000000000000000000000000N 00000000000NCONT   00    00000000000          00000000000000000000000000000000000000000000 000000000000000A000000000000000000000000000000000000000000000 000000000000000000000000000000000000000     00000000                                                                                                                        000000000000000000
F0010000008752700004000009313581500023658300000000000000000201606220002001JUAN ARCE NUÑEZ                                  C000000000096000000000000000000000100010010000000000000000000000F0010000008752700420160622000101 00000000000000000000000000000000000000000000000000000000000000000000000000000000000000000000000000000000000000000N 00000000000NCONT   00    00000000000          00000000000000000000000000000000000000000000 000000000000000A000000000000000000000000000000000000000000000 000000000000000000000000000000000000000     00000000                                                                                                                        000000000000000000
F0010000008752700005000009313581500013552100000000000000000201606220002001JUAN ARCE NUÑEZ                                  D000000000096000000000000000000000100010010000000000000000000000F0010000008752700520160622000101 00000000000000000000000000000000000000000000000000000000000000000000000000000000000000000000000000000000000000000N 00000000000NCONT   00    00000000000          00000000000000000000000000000000000000000000 000000000000000A000000000000000000000000000000000000000000000 000000000000000000000000000000000000000     00000000                                                                                                                        000000000000000000
F0010000008752800001000080201411900011050500000000000000000201606220002001PLASTISERVICIOS S DE H                            D000000001070000000000000000000000100010010000000000000000000000F0010000008752800120160622000101 00000000000000000000000000000000000000000000000000000000000000000000000000000000000000000000000000000000000000000N 00000000000NCONT   00    00000000000          00000000000000000000000000000000000000000000 000000000000000A000000000000000000000000000000000000000000000 000000000000000000000000000000000000000     00000000                                                                                                                        000000000000000000
F0010000008752800002000080201411900041450500000000000000000201606220002001PLASTISERVICIOS S DE H                            C000000000950000000000000000000000100010010000000000000000000000F0010000008752800220160622000101 00000000000000000000000000000000000000000000000000000000000000000000000000000000000000000000000000000000000000000N 00000000000NCONT   00    00000000000          00000000000000000000000000000000000000000000 000000000000000A000000000000000000000000000000000000000000000 000000000000000000000000000000000000000     00000000                                                                                                                        000000000000000000
F0010000008752800003000080201411900042505000000000000000000201606220002001PLASTISERVICIOS S DE H                            C000000000120000000000000000000000100010010000000000000000000000F0010000008752800320160622000101 00000000000000000000000000000000000000000000000000000000000000000000000000000000000000000000000000000000000000000N 00000000000NCONT   00    00000000000          00000000000000000000000000000000000000000000 000000000000000A000000000000000000000000000000000000000000000 000000000000000000000000000000000000000     00000000                                                                                                                        000000000000000000
F0010000008752800004000080201411900023658300000000000000000201606220002001PLASTISERVICIOS S DE H                            C000000000007600000000000000000000100010010000000000000000000000F0010000008752800420160622000101 00000000000000000000000000000000000000000000000000000000000000000000000000000000000000000000000000000000000000000N 00000000000NCONT   00    00000000000          00000000000000000000000000000000000000000000 000000000000000A000000000000000000000000000000000000000000000 000000000000000000000000000000000000000     00000000                                                                                                                        000000000000000000
F0010000008752800005000080201411900013552100000000000000000201606220002001PLASTISERVICIOS S DE H                            D000000000007600000000000000000000100010010000000000000000000000F0010000008752800520160622000101 00000000000000000000000000000000000000000000000000000000000000000000000000000000000000000000000000000000000000000N 00000000000NCONT   00    00000000000          00000000000000000000000000000000000000000000 000000000000000A000000000000000000000000000000000000000000000 000000000000000000000000000000000000000     00000000                                                                                                                        000000000000000000
F0010000008752900001000002245670100011050500000000000000000201606220002001YOLANDA  TOBON                                    D000000000800000000000000000000000100010010000000000000000000000F0010000008752900120160622000101 00000000000000000000000000000000000000000000000000000000000000000000000000000000000000000000000000000000000000000N 00000000000NCONT   00    00000000000          00000000000000000000000000000000000000000000 000000000000000A000000000000000000000000000000000000000000000 000000000000000000000000000000000000000     00000000                                                                                                                        000000000000000000
F0010000008752900002000002245670100041450500000000000000000201606220002001YOLANDA  TOBON                                    C000000000600000000000000000000000100010010000000000000000000000F0010000008752900220160622000101 00000000000000000000000000000000000000000000000000000000000000000000000000000000000000000000000000000000000000000N 00000000000NCONT   00    00000000000          00000000000000000000000000000000000000000000 000000000000000A000000000000000000000000000000000000000000000 000000000000000000000000000000000000000     00000000                                                                                                                        000000000000000000
F0010000008752900003000002245670100042505000000000000000000201606220002001YOLANDA  TOBON                                    C000000000200000000000000000000000100010010000000000000000000000F0010000008752900320160622000101 00000000000000000000000000000000000000000000000000000000000000000000000000000000000000000000000000000000000000000N 00000000000NCONT   00    00000000000          00000000000000000000000000000000000000000000 000000000000000A000000000000000000000000000000000000000000000 000000000000000000000000000000000000000     00000000                                                                                                                        000000000000000000
F0010000008752900004000002245670100023658300000000000000000201606220002001YOLANDA  TOBON                                    C000000000004800000000000000000000100010010000000000000000000000F0010000008752900420160622000101 00000000000000000000000000000000000000000000000000000000000000000000000000000000000000000000000000000000000000000N 00000000000NCONT   00    00000000000          00000000000000000000000000000000000000000000 000000000000000A000000000000000000000000000000000000000000000 000000000000000000000000000000000000000     00000000                                                                                                                        000000000000000000
F0010000008752900005000002245670100013552100000000000000000201606220002001YOLANDA  TOBON                                    D000000000004800000000000000000000100010010000000000000000000000F0010000008752900520160622000101 00000000000000000000000000000000000000000000000000000000000000000000000000000000000000000000000000000000000000000N 00000000000NCONT   00    00000000000          00000000000000000000000000000000000000000000 000000000000000A000000000000000000000000000000000000000000000 000000000000000000000000000000000000000     00000000                                                                                                                        000000000000000000
F0010000008753000001000002245670100011050500000000000000000201606220002001YOLANDA  TOBON                                    D000000007000000000000000000000000100010010000000000000000000000F0010000008753000120160622000101 00000000000000000000000000000000000000000000000000000000000000000000000000000000000000000000000000000000000000000N 00000000000NCONT   00    00000000000          00000000000000000000000000000000000000000000 000000000000000A000000000000000000000000000000000000000000000 000000000000000000000000000000000000000     00000000                                                                                                                        000000000000000000
F0010000008753000002000002245670100041450500000000000000000201606220002001YOLANDA  TOBON                                    C000000005600000000000000000000000100010010000000000000000000000F0010000008753000220160622000101 00000000000000000000000000000000000000000000000000000000000000000000000000000000000000000000000000000000000000000N 00000000000NCONT   00    00000000000          00000000000000000000000000000000000000000000 000000000000000A000000000000000000000000000000000000000000000 000000000000000000000000000000000000000     00000000                                                                                                                        000000000000000000
F0010000008753000003000002245670100042505000000000000000000201606220002001YOLANDA  TOBON                                    C000000001400000000000000000000000100010010000000000000000000000F0010000008753000320160622000101 00000000000000000000000000000000000000000000000000000000000000000000000000000000000000000000000000000000000000000N 00000000000NCONT   00    00000000000          00000000000000000000000000000000000000000000 000000000000000A000000000000000000000000000000000000000000000 000000000000000000000000000000000000000     00000000                                                                                                                        000000000000000000
F0010000008753000004000002245670100023658300000000000000000201606220002001YOLANDA  TOBON                                    C000000000044800000000000000000000100010010000000000000000000000F0010000008753000420160622000101 00000000000000000000000000000000000000000000000000000000000000000000000000000000000000000000000000000000000000000N 00000000000NCONT   00    00000000000          00000000000000000000000000000000000000000000 000000000000000A000000000000000000000000000000000000000000000 000000000000000000000000000000000000000     00000000                                                                                                                        000000000000000000
F0010000008753000005000002245670100013552100000000000000000201606220002001YOLANDA  TOBON                                    D000000000044800000000000000000000100010010000000000000000000000F0010000008753000520160622000101 00000000000000000000000000000000000000000000000000000000000000000000000000000000000000000000000000000000000000000N 00000000000NCONT   00    00000000000          00000000000000000000000000000000000000000000 000000000000000A000000000000000000000000000000000000000000000 000000000000000000000000000000000000000     00000000                                                                                                                        000000000000000000
F0010000008753100001000080012418800011050500000000000000000201606220002001DISTRITEC S.A.S                                   D000000001500000000000000000000000100010010000000000000000000000F0010000008753100120160622000101 00000000000000000000000000000000000000000000000000000000000000000000000000000000000000000000000000000000000000000N 00000000000NCONT   00    00000000000          00000000000000000000000000000000000000000000 000000000000000A000000000000000000000000000000000000000000000 000000000000000000000000000000000000000     00000000                                                                                                                        000000000000000000
F0010000008753100002000080012418800041450500000000000000000201606220002001DISTRITEC S.A.S                                   C000000001400000000000000000000000100010010000000000000000000000F0010000008753100220160622000101 00000000000000000000000000000000000000000000000000000000000000000000000000000000000000000000000000000000000000000N 00000000000NCONT   00    00000000000          00000000000000000000000000000000000000000000 000000000000000A000000000000000000000000000000000000000000000 000000000000000000000000000000000000000     00000000                                                                                                                        000000000000000000
F0010000008753100003000080012418800042505000000000000000000201606220002001DISTRITEC S.A.S                                   C000000000100000000000000000000000100010010000000000000000000000F0010000008753100320160622000101 00000000000000000000000000000000000000000000000000000000000000000000000000000000000000000000000000000000000000000N 00000000000NCONT   00    00000000000          00000000000000000000000000000000000000000000 000000000000000A000000000000000000000000000000000000000000000 000000000000000000000000000000000000000     00000000                                                                                                                        000000000000000000
F0010000008753100004000080012418800023658300000000000000000201606220002001DISTRITEC S.A.S                                   C000000000011200000000000000000000100010010000000000000000000000F0010000008753100420160622000101 00000000000000000000000000000000000000000000000000000000000000000000000000000000000000000000000000000000000000000N 00000000000NCONT   00    00000000000          00000000000000000000000000000000000000000000 000000000000000A000000000000000000000000000000000000000000000 000000000000000000000000000000000000000     00000000                                                                                                                        000000000000000000
F0010000008753100005000080012418800013552100000000000000000201606220002001DISTRITEC S.A.S                                   D000000000011200000000000000000000100010010000000000000000000000F0010000008753100520160622000101 00000000000000000000000000000000000000000000000000000000000000000000000000000000000000000000000000000000000000000N 00000000000NCONT   00    00000000000          00000000000000000000000000000000000000000000 000000000000000A000000000000000000000000000000000000000000000 000000000000000000000000000000000000000     00000000                                                                                                                        000000000000000000
F0010000008753200001000080012418800011050500000000000000000201606220002001DISTRITEC S.A.S                                   D000000004050000000000000000000000100010010000000000000000000000F0010000008753200120160622000101 00000000000000000000000000000000000000000000000000000000000000000000000000000000000000000000000000000000000000000N 00000000000NCONT   00    00000000000          00000000000000000000000000000000000000000000 000000000000000A000000000000000000000000000000000000000000000 000000000000000000000000000000000000000     00000000                                                                                                                        000000000000000000
F0010000008753200002000080012418800041450500000000000000000201606220002001DISTRITEC S.A.S                                   C000000003900000000000000000000000100010010000000000000000000000F0010000008753200220160622000101 00000000000000000000000000000000000000000000000000000000000000000000000000000000000000000000000000000000000000000N 00000000000NCONT   00    00000000000          00000000000000000000000000000000000000000000 000000000000000A000000000000000000000000000000000000000000000 000000000000000000000000000000000000000     00000000                                                                                                                        000000000000000000
F0010000008753200003000080012418800042505000000000000000000201606220002001DISTRITEC S.A.S                                   C000000000150000000000000000000000100010010000000000000000000000F0010000008753200320160622000101 00000000000000000000000000000000000000000000000000000000000000000000000000000000000000000000000000000000000000000N 00000000000NCONT   00    00000000000          00000000000000000000000000000000000000000000 000000000000000A000000000000000000000000000000000000000000000 000000000000000000000000000000000000000     00000000                                                                                                                        000000000000000000
F0010000008753200004000080012418800023658300000000000000000201606220002001DISTRITEC S.A.S                                   C000000000031200000000000000000000100010010000000000000000000000F0010000008753200420160622000101 00000000000000000000000000000000000000000000000000000000000000000000000000000000000000000000000000000000000000000N 00000000000NCONT   00    00000000000          00000000000000000000000000000000000000000000 000000000000000A000000000000000000000000000000000000000000000 000000000000000000000000000000000000000     00000000                                                                                                                        000000000000000000
F0010000008753200005000080012418800013552100000000000000000201606220002001DISTRITEC S.A.S                                   D000000000031200000000000000000000100010010000000000000000000000F0010000008753200520160622000101 00000000000000000000000000000000000000000000000000000000000000000000000000000000000000000000000000000000000000000N 00000000000NCONT   00    00000000000          00000000000000000000000000000000000000000000 000000000000000A000000000000000000000000000000000000000000000 000000000000000000000000000000000000000     00000000                                                                                                                        000000000000000000
F0010000008753300001000001719393900011050500000000000000000201606220002001JAIRO BASTIDAS RAMIREZ                            D000000001600000000000000000000000100010010000000000000000000000F0010000008753300120160622000101 00000000000000000000000000000000000000000000000000000000000000000000000000000000000000000000000000000000000000000N 00000000000NCONT   00    00000000000          00000000000000000000000000000000000000000000 000000000000000A000000000000000000000000000000000000000000000 000000000000000000000000000000000000000     00000000                                                                                                                        000000000000000000
F0010000008753300002000001719393900041450500000000000000000201606220002001JAIRO BASTIDAS RAMIREZ                            C000000001300000000000000000000000100010010000000000000000000000F0010000008753300220160622000101 00000000000000000000000000000000000000000000000000000000000000000000000000000000000000000000000000000000000000000N 00000000000NCONT   00    00000000000          00000000000000000000000000000000000000000000 000000000000000A000000000000000000000000000000000000000000000 000000000000000000000000000000000000000     00000000                                                                                                                        000000000000000000
F0010000008753300003000001719393900042505000000000000000000201606220002001JAIRO BASTIDAS RAMIREZ                            C000000000300000000000000000000000100010010000000000000000000000F0010000008753300320160622000101 00000000000000000000000000000000000000000000000000000000000000000000000000000000000000000000000000000000000000000N 00000000000NCONT   00    00000000000          00000000000000000000000000000000000000000000 000000000000000A000000000000000000000000000000000000000000000 000000000000000000000000000000000000000     00000000                                                                                                                        000000000000000000
F0010000008753300004000001719393900023658300000000000000000201606220002001JAIRO BASTIDAS RAMIREZ                            C000000000010400000000000000000000100010010000000000000000000000F0010000008753300420160622000101 00000000000000000000000000000000000000000000000000000000000000000000000000000000000000000000000000000000000000000N 00000000000NCONT   00    00000000000          00000000000000000000000000000000000000000000 000000000000000A000000000000000000000000000000000000000000000 000000000000000000000000000000000000000     00000000                                                                                                                        000000000000000000
F0010000008753300005000001719393900013552100000000000000000201606220002001JAIRO BASTIDAS RAMIREZ                            D000000000010400000000000000000000100010010000000000000000000000F0010000008753300520160622000101 00000000000000000000000000000000000000000000000000000000000000000000000000000000000000000000000000000000000000000N 00000000000NCONT   00    00000000000          00000000000000000000000000000000000000000000 000000000000000A000000000000000000000000000000000000000000000 000000000000000000000000000000000000000     00000000                                                                                                                        000000000000000000
F0010000008753400001000001719393900011050500000000000000000201606220002001JAIRO BASTIDAS RAMIREZ                            D000000003000000000000000000000000100010010000000000000000000000F0010000008753400120160622000101 00000000000000000000000000000000000000000000000000000000000000000000000000000000000000000000000000000000000000000N 00000000000NCONT   00    00000000000          00000000000000000000000000000000000000000000 000000000000000A000000000000000000000000000000000000000000000 000000000000000000000000000000000000000     00000000                                                                                                                        000000000000000000
F0010000008753400002000001719393900041450500000000000000000201606220002001JAIRO BASTIDAS RAMIREZ                            C000000002700000000000000000000000100010010000000000000000000000F0010000008753400220160622000101 00000000000000000000000000000000000000000000000000000000000000000000000000000000000000000000000000000000000000000N 00000000000NCONT   00    00000000000          00000000000000000000000000000000000000000000 000000000000000A000000000000000000000000000000000000000000000 000000000000000000000000000000000000000     00000000                                                                                                                        000000000000000000
F0010000008753400003000001719393900042505000000000000000000201606220002001JAIRO BASTIDAS RAMIREZ                            C000000000300000000000000000000000100010010000000000000000000000F0010000008753400320160622000101 00000000000000000000000000000000000000000000000000000000000000000000000000000000000000000000000000000000000000000N 00000000000NCONT   00    00000000000          00000000000000000000000000000000000000000000 000000000000000A000000000000000000000000000000000000000000000 000000000000000000000000000000000000000     00000000                                                                                                                        000000000000000000
F0010000008753400004000001719393900023658300000000000000000201606220002001JAIRO BASTIDAS RAMIREZ                            C000000000021600000000000000000000100010010000000000000000000000F0010000008753400420160622000101 00000000000000000000000000000000000000000000000000000000000000000000000000000000000000000000000000000000000000000N 00000000000NCONT   00    00000000000          00000000000000000000000000000000000000000000 000000000000000A000000000000000000000000000000000000000000000 000000000000000000000000000000000000000     00000000                                                                                                                        000000000000000000
F0010000008753400005000001719393900013552100000000000000000201606220002001JAIRO BASTIDAS RAMIREZ                            D000000000021600000000000000000000100010010000000000000000000000F0010000008753400520160622000101 00000000000000000000000000000000000000000000000000000000000000000000000000000000000000000000000000000000000000000N 00000000000NCONT   00    00000000000          00000000000000000000000000000000000000000000 000000000000000A000000000000000000000000000000000000000000000 000000000000000000000000000000000000000     00000000                                                                                                                        000000000000000000
F0010000008753500001000001719393900011050500000000000000000201606220002001JAIRO BASTIDAS RAMIREZ                            D000000001800000000000000000000000100010010000000000000000000000F0010000008753500120160622000101 00000000000000000000000000000000000000000000000000000000000000000000000000000000000000000000000000000000000000000N 00000000000NCONT   00    00000000000          00000000000000000000000000000000000000000000 000000000000000A000000000000000000000000000000000000000000000 000000000000000000000000000000000000000     00000000                                                                                                                        000000000000000000
F0010000008753500002000001719393900041450500000000000000000201606220002001JAIRO BASTIDAS RAMIREZ                            C000000001500000000000000000000000100010010000000000000000000000F0010000008753500220160622000101 00000000000000000000000000000000000000000000000000000000000000000000000000000000000000000000000000000000000000000N 00000000000NCONT   00    00000000000          00000000000000000000000000000000000000000000 000000000000000A000000000000000000000000000000000000000000000 000000000000000000000000000000000000000     00000000                                                                                                                        000000000000000000
F0010000008753500003000001719393900042505000000000000000000201606220002001JAIRO BASTIDAS RAMIREZ                            C000000000300000000000000000000000100010010000000000000000000000F0010000008753500320160622000101 00000000000000000000000000000000000000000000000000000000000000000000000000000000000000000000000000000000000000000N 00000000000NCONT   00    00000000000          00000000000000000000000000000000000000000000 000000000000000A000000000000000000000000000000000000000000000 000000000000000000000000000000000000000     00000000                                                                                                                        000000000000000000
F0010000008753500004000001719393900023658300000000000000000201606220002001JAIRO BASTIDAS RAMIREZ                            C000000000012000000000000000000000100010010000000000000000000000F0010000008753500420160622000101 00000000000000000000000000000000000000000000000000000000000000000000000000000000000000000000000000000000000000000N 00000000000NCONT   00    00000000000          00000000000000000000000000000000000000000000 000000000000000A000000000000000000000000000000000000000000000 000000000000000000000000000000000000000     00000000                                                                                                                        000000000000000000
F0010000008753500005000001719393900013552100000000000000000201606220002001JAIRO BASTIDAS RAMIREZ                            D000000000012000000000000000000000100010010000000000000000000000F0010000008753500520160622000101 00000000000000000000000000000000000000000000000000000000000000000000000000000000000000000000000000000000000000000N 00000000000NCONT   00    00000000000          00000000000000000000000000000000000000000000 000000000000000A000000000000000000000000000000000000000000000 000000000000000000000000000000000000000     00000000                                                                                                                        000000000000000000
F0010000008753600001000001719393900011050500000000000000000201606220002001JAIRO BASTIDAS RAMIREZ                            D000000007800000000000000000000000100010010000000000000000000000F0010000008753600120160622000101 00000000000000000000000000000000000000000000000000000000000000000000000000000000000000000000000000000000000000000N 00000000000NCONT   00    00000000000          00000000000000000000000000000000000000000000 000000000000000A000000000000000000000000000000000000000000000 000000000000000000000000000000000000000     00000000                                                                                                                        000000000000000000
F0010000008753600002000001719393900041450500000000000000000201606220002001JAIRO BASTIDAS RAMIREZ                            C000000006500000000000000000000000100010010000000000000000000000F0010000008753600220160622000101 00000000000000000000000000000000000000000000000000000000000000000000000000000000000000000000000000000000000000000N 00000000000NCONT   00    00000000000          00000000000000000000000000000000000000000000 000000000000000A000000000000000000000000000000000000000000000 000000000000000000000000000000000000000     00000000                                                                                                                        000000000000000000
F0010000008753600003000001719393900042505000000000000000000201606220002001JAIRO BASTIDAS RAMIREZ                            C000000001300000000000000000000000100010010000000000000000000000F0010000008753600320160622000101 00000000000000000000000000000000000000000000000000000000000000000000000000000000000000000000000000000000000000000N 00000000000NCONT   00    00000000000          00000000000000000000000000000000000000000000 000000000000000A000000000000000000000000000000000000000000000 000000000000000000000000000000000000000     00000000                                                                                                                        000000000000000000
F0010000008753600004000001719393900023658300000000000000000201606220002001JAIRO BASTIDAS RAMIREZ                            C000000000052000000000000000000000100010010000000000000000000000F0010000008753600420160622000101 00000000000000000000000000000000000000000000000000000000000000000000000000000000000000000000000000000000000000000N 00000000000NCONT   00    00000000000          00000000000000000000000000000000000000000000 000000000000000A000000000000000000000000000000000000000000000 000000000000000000000000000000000000000     00000000                                                                                                                        000000000000000000
F0010000008753600005000001719393900013552100000000000000000201606220002001JAIRO BASTIDAS RAMIREZ                            D000000000052000000000000000000000100010010000000000000000000000F0010000008753600520160622000101 00000000000000000000000000000000000000000000000000000000000000000000000000000000000000000000000000000000000000000N 00000000000NCONT   00    00000000000          00000000000000000000000000000000000000000000 000000000000000A000000000000000000000000000000000000000000000 000000000000000000000000000000000000000     00000000                                                                                                                        000000000000000000
F0010000008753700001000090050144800011050500000000000000000201606220002001PLASTICOS JR ASOCIADOS SAS                        D000000003300000000000000000000000100010010000000000000000000000F0010000008753700120160622000101 00000000000000000000000000000000000000000000000000000000000000000000000000000000000000000000000000000000000000000N 00000000000NCONT   00    00000000000          00000000000000000000000000000000000000000000 000000000000000A000000000000000000000000000000000000000000000 000000000000000000000000000000000000000     00000000                                                                                                                        000000000000000000
F0010000008753700002000090050144800041450500000000000000000201606220002001PLASTICOS JR ASOCIADOS SAS                        C000000002850000000000000000000000100010010000000000000000000000F0010000008753700220160622000101 00000000000000000000000000000000000000000000000000000000000000000000000000000000000000000000000000000000000000000N 00000000000NCONT   00    00000000000          00000000000000000000000000000000000000000000 000000000000000A000000000000000000000000000000000000000000000 000000000000000000000000000000000000000     00000000                                                                                                                        000000000000000000
F0010000008753700003000090050144800042505000000000000000000201606220002001PLASTICOS JR ASOCIADOS SAS                        C000000000450000000000000000000000100010010000000000000000000000F0010000008753700320160622000101 00000000000000000000000000000000000000000000000000000000000000000000000000000000000000000000000000000000000000000N 00000000000NCONT   00    00000000000          00000000000000000000000000000000000000000000 000000000000000A000000000000000000000000000000000000000000000 000000000000000000000000000000000000000     00000000                                                                                                                        000000000000000000
F0010000008753700004000090050144800023658300000000000000000201606220002001PLASTICOS JR ASOCIADOS SAS                        C000000000022800000000000000000000100010010000000000000000000000F0010000008753700420160622000101 00000000000000000000000000000000000000000000000000000000000000000000000000000000000000000000000000000000000000000N 00000000000NCONT   00    00000000000          00000000000000000000000000000000000000000000 000000000000000A000000000000000000000000000000000000000000000 000000000000000000000000000000000000000     00000000                                                                                                                        000000000000000000
F0010000008753700005000090050144800013552100000000000000000201606220002001PLASTICOS JR ASOCIADOS SAS                        D000000000022800000000000000000000100010010000000000000000000000F0010000008753700520160622000101 00000000000000000000000000000000000000000000000000000000000000000000000000000000000000000000000000000000000000000N 00000000000NCONT   00    00000000000          00000000000000000000000000000000000000000000 000000000000000A000000000000000000000000000000000000000000000 000000000000000000000000000000000000000     00000000                                                                                                                        000000000000000000
F0010000008753800001000090050144800011050500000000000000000201606220002001PLASTICOS JR ASOCIADOS SAS                        D000000008200000000000000000000000100010010000000000000000000000F0010000008753800120160622000101 00000000000000000000000000000000000000000000000000000000000000000000000000000000000000000000000000000000000000000N 00000000000NCONT   00    00000000000          00000000000000000000000000000000000000000000 000000000000000A000000000000000000000000000000000000000000000 000000000000000000000000000000000000000     00000000                                                                                                                        000000000000000000
F0010000008753800002000090050144800041450500000000000000000201606220002001PLASTICOS JR ASOCIADOS SAS                        C000000007600000000000000000000000100010010000000000000000000000F0010000008753800220160622000101 00000000000000000000000000000000000000000000000000000000000000000000000000000000000000000000000000000000000000000N 00000000000NCONT   00    00000000000          00000000000000000000000000000000000000000000 000000000000000A000000000000000000000000000000000000000000000 000000000000000000000000000000000000000     00000000                                                                                                                        000000000000000000
F0010000008753800003000090050144800042505000000000000000000201606220002001PLASTICOS JR ASOCIADOS SAS                        C000000000600000000000000000000000100010010000000000000000000000F0010000008753800320160622000101 00000000000000000000000000000000000000000000000000000000000000000000000000000000000000000000000000000000000000000N 00000000000NCONT   00    00000000000          00000000000000000000000000000000000000000000 000000000000000A000000000000000000000000000000000000000000000 000000000000000000000000000000000000000     00000000                                                                                                                        000000000000000000
F0010000008753800004000090050144800023658300000000000000000201606220002001PLASTICOS JR ASOCIADOS SAS                        C000000000060800000000000000000000100010010000000000000000000000F0010000008753800420160622000101 00000000000000000000000000000000000000000000000000000000000000000000000000000000000000000000000000000000000000000N 00000000000NCONT   00    00000000000          00000000000000000000000000000000000000000000 000000000000000A000000000000000000000000000000000000000000000 000000000000000000000000000000000000000     00000000                                                                                                                        000000000000000000
F0010000008753800005000090050144800013552100000000000000000201606220002001PLASTICOS JR ASOCIADOS SAS                        D000000000060800000000000000000000100010010000000000000000000000F0010000008753800520160622000101 00000000000000000000000000000000000000000000000000000000000000000000000000000000000000000000000000000000000000000N 00000000000NCONT   00    00000000000          00000000000000000000000000000000000000000000 000000000000000A000000000000000000000000000000000000000000000 000000000000000000000000000000000000000     00000000                                                                                                                        000000000000000000
F0010000008753900001000090050144800011050500000000000000000201606220002001PLASTICOS JR ASOCIADOS SAS                        D000000006000000000000000000000000100010010000000000000000000000F0010000008753900120160622000101 00000000000000000000000000000000000000000000000000000000000000000000000000000000000000000000000000000000000000000N 00000000000NCONT   00    00000000000          00000000000000000000000000000000000000000000 000000000000000A000000000000000000000000000000000000000000000 000000000000000000000000000000000000000     00000000                                                                                                                        000000000000000000
F0010000008753900002000090050144800041450500000000000000000201606220002001PLASTICOS JR ASOCIADOS SAS                        C000000004300000000000000000000000100010010000000000000000000000F0010000008753900220160622000101 00000000000000000000000000000000000000000000000000000000000000000000000000000000000000000000000000000000000000000N 00000000000NCONT   00    00000000000          00000000000000000000000000000000000000000000 000000000000000A000000000000000000000000000000000000000000000 000000000000000000000000000000000000000     00000000                                                                                                                        000000000000000000
F0010000008753900003000090050144800042505000000000000000000201606220002001PLASTICOS JR ASOCIADOS SAS                        C000000001700000000000000000000000100010010000000000000000000000F0010000008753900320160622000101 00000000000000000000000000000000000000000000000000000000000000000000000000000000000000000000000000000000000000000N 00000000000NCONT   00    00000000000          00000000000000000000000000000000000000000000 000000000000000A000000000000000000000000000000000000000000000 000000000000000000000000000000000000000     00000000                                                                                                                        000000000000000000
F0010000008753900004000090050144800023658300000000000000000201606220002001PLASTICOS JR ASOCIADOS SAS                        C000000000034400000000000000000000100010010000000000000000000000F0010000008753900420160622000101 00000000000000000000000000000000000000000000000000000000000000000000000000000000000000000000000000000000000000000N 00000000000NCONT   00    00000000000          00000000000000000000000000000000000000000000 000000000000000A000000000000000000000000000000000000000000000 000000000000000000000000000000000000000     00000000                                                                                                                        000000000000000000
F0010000008753900005000090050144800013552100000000000000000201606220002001PLASTICOS JR ASOCIADOS SAS                        D000000000034400000000000000000000100010010000000000000000000000F0010000008753900520160622000101 00000000000000000000000000000000000000000000000000000000000000000000000000000000000000000000000000000000000000000N 00000000000NCONT   00    00000000000          00000000000000000000000000000000000000000000 000000000000000A000000000000000000000000000000000000000000000 000000000000000000000000000000000000000     00000000                                                                                                                        000000000000000000
F0010000008754000001000000870907300011050500000000000000000201606220002001SURTIDOR FERRETERO                                D000000001020000000000000000000000100010010000000000000000000000F0010000008754000120160622000101 00000000000000000000000000000000000000000000000000000000000000000000000000000000000000000000000000000000000000000N 00000000000NCONT   00    00000000000          00000000000000000000000000000000000000000000 000000000000000A000000000000000000000000000000000000000000000 000000000000000000000000000000000000000     00000000                                                                                                                        000000000000000000
F0010000008754000002000000870907300041450500000000000000000201606220002001SURTIDOR FERRETERO                                C000000000840000000000000000000000100010010000000000000000000000F0010000008754000220160622000101 00000000000000000000000000000000000000000000000000000000000000000000000000000000000000000000000000000000000000000N 00000000000NCONT   00    00000000000          00000000000000000000000000000000000000000000 000000000000000A000000000000000000000000000000000000000000000 000000000000000000000000000000000000000     00000000                                                                                                                        000000000000000000
F0010000008754000003000000870907300042505000000000000000000201606220002001SURTIDOR FERRETERO                                C000000000180000000000000000000000100010010000000000000000000000F0010000008754000320160622000101 00000000000000000000000000000000000000000000000000000000000000000000000000000000000000000000000000000000000000000N 00000000000NCONT   00    00000000000          00000000000000000000000000000000000000000000 000000000000000A000000000000000000000000000000000000000000000 000000000000000000000000000000000000000     00000000                                                                                                                        000000000000000000
F0010000008754000004000000870907300023658300000000000000000201606220002001SURTIDOR FERRETERO                                C000000000006700000000000000000000100010010000000000000000000000F0010000008754000420160622000101 00000000000000000000000000000000000000000000000000000000000000000000000000000000000000000000000000000000000000000N 00000000000NCONT   00    00000000000          00000000000000000000000000000000000000000000 000000000000000A000000000000000000000000000000000000000000000 000000000000000000000000000000000000000     00000000                                                                                                                        000000000000000000
F0010000008754000005000000870907300013552100000000000000000201606220002001SURTIDOR FERRETERO                                D000000000006700000000000000000000100010010000000000000000000000F0010000008754000520160622000101 00000000000000000000000000000000000000000000000000000000000000000000000000000000000000000000000000000000000000000N 00000000000NCONT   00    00000000000          00000000000000000000000000000000000000000000 000000000000000A000000000000000000000000000000000000000000000 000000000000000000000000000000000000000     00000000                                                                                                                        000000000000000000
F0010000008754100001000083008772100011050500000000000000000201606220002001ILUMEC SAS                                        D000000001350000000000000000000000100010010000000000000000000000F0010000008754100120160622000101 00000000000000000000000000000000000000000000000000000000000000000000000000000000000000000000000000000000000000000N 00000000000NCONT   00    00000000000          00000000000000000000000000000000000000000000 000000000000000A000000000000000000000000000000000000000000000 000000000000000000000000000000000000000     00000000                                                                                                                        000000000000000000
F0010000008754100002000083008772100041450500000000000000000201606220002001ILUMEC SAS                                        C000000001100000000000000000000000100010010000000000000000000000F0010000008754100220160622000101 00000000000000000000000000000000000000000000000000000000000000000000000000000000000000000000000000000000000000000N 00000000000NCONT   00    00000000000          00000000000000000000000000000000000000000000 000000000000000A000000000000000000000000000000000000000000000 000000000000000000000000000000000000000     00000000                                                                                                                        000000000000000000
F0010000008754100003000083008772100042505000000000000000000201606220002001ILUMEC SAS                                        C000000000250000000000000000000000100010010000000000000000000000F0010000008754100320160622000101 00000000000000000000000000000000000000000000000000000000000000000000000000000000000000000000000000000000000000000N 00000000000NCONT   00    00000000000          00000000000000000000000000000000000000000000 000000000000000A000000000000000000000000000000000000000000000 000000000000000000000000000000000000000     00000000                                                                                                                        000000000000000000
F0010000008754100004000083008772100023658300000000000000000201606220002001ILUMEC SAS                                        C000000000008800000000000000000000100010010000000000000000000000F0010000008754100420160622000101 00000000000000000000000000000000000000000000000000000000000000000000000000000000000000000000000000000000000000000N 00000000000NCONT   00    00000000000          00000000000000000000000000000000000000000000 000000000000000A000000000000000000000000000000000000000000000 000000000000000000000000000000000000000     00000000                                                                                                                        000000000000000000
F0010000008754100005000083008772100013552100000000000000000201606220002001ILUMEC SAS                                        D000000000008800000000000000000000100010010000000000000000000000F0010000008754100520160622000101 00000000000000000000000000000000000000000000000000000000000000000000000000000000000000000000000000000000000000000N 00000000000NCONT   00    00000000000          00000000000000000000000000000000000000000000 000000000000000A000000000000000000000000000000000000000000000 000000000000000000000000000000000000000     00000000                                                                                                                        000000000000000000
F0010000008754200001000000431178400011050500000000000000000201606220002001EFRAIN ALVAREZ                                    D000000003200000000000000000000000100010010000000000000000000000F0010000008754200120160622000101 00000000000000000000000000000000000000000000000000000000000000000000000000000000000000000000000000000000000000000N 00000000000NCONT   00    00000000000          00000000000000000000000000000000000000000000 000000000000000A000000000000000000000000000000000000000000000 000000000000000000000000000000000000000     00000000                                                                                                                        000000000000000000
F0010000008754200002000000431178400041450500000000000000000201606220002001EFRAIN ALVAREZ                                    C000000003000000000000000000000000100010010000000000000000000000F0010000008754200220160622000101 00000000000000000000000000000000000000000000000000000000000000000000000000000000000000000000000000000000000000000N 00000000000NCONT   00    00000000000          00000000000000000000000000000000000000000000 000000000000000A000000000000000000000000000000000000000000000 000000000000000000000000000000000000000     00000000                                                                                                                        000000000000000000
