F0010000009494000001000114085589500011050500000000000000000201611300002001LUIS FERNANDO  PORTILLO TATIS                     D000000003000000000000000000000000100010010000000000000000000000F0010000009494000120161130000101 00000000000000000000000000000000000000000000000000000000000000000000000000000000000000000000000000000000000000000N 00000000000NCONT   00    00000000000          00000000000000000000000000000000000000000000 000000000000000A000000000000000000000000000000000000000000000 000000000000000000000000000000000000000     00000000                                                                                                                        000000000000000000
F0010000009494000002000114085589500041450500000000000000000201611300002001LUIS FERNANDO  PORTILLO TATIS                     C000000002900000000000000000000000100010010000000000000000000000F0010000009494000220161130000101 00000000000000000000000000000000000000000000000000000000000000000000000000000000000000000000000000000000000000000N 00000000000NCONT   00    00000000000          00000000000000000000000000000000000000000000 000000000000000A000000000000000000000000000000000000000000000 000000000000000000000000000000000000000     00000000                                                                                                                        000000000000000000
F0010000009494000003000114085589500042505000000000000000000201611300002001LUIS FERNANDO  PORTILLO TATIS                     C000000000100000000000000000000000100010010000000000000000000000F0010000009494000320161130000101 00000000000000000000000000000000000000000000000000000000000000000000000000000000000000000000000000000000000000000N 00000000000NCONT   00    00000000000          00000000000000000000000000000000000000000000 000000000000000A000000000000000000000000000000000000000000000 000000000000000000000000000000000000000     00000000                                                                                                                        000000000000000000
F0010000009494000004000114085589500023658300000000000000000201611300002001LUIS FERNANDO  PORTILLO TATIS                     C000000000023200000000000000000000100010010000000000000000000000F0010000009494000420161130000101 00000000000000000000000000000000000000000000000000000000000000000000000000000000000000000000000000000000000000000N 00000000000NCONT   00    00000000000          00000000000000000000000000000000000000000000 000000000000000A000000000000000000000000000000000000000000000 000000000000000000000000000000000000000     00000000                                                                                                                        000000000000000000
F0010000009494000005000114085589500013552100000000000000000201611300002001LUIS FERNANDO  PORTILLO TATIS                     D000000000023200000000000000000000100010010000000000000000000000F0010000009494000520161130000101 00000000000000000000000000000000000000000000000000000000000000000000000000000000000000000000000000000000000000000N 00000000000NCONT   00    00000000000          00000000000000000000000000000000000000000000 000000000000000A000000000000000000000000000000000000000000000 000000000000000000000000000000000000000     00000000                                                                                                                        000000000000000000
F0010000009494100001000090024483300011050500000000000000000201611300002001COSMETICOS A-GUZ                                  D000000009000000000000000000000000100010010000000000000000000000F0010000009494100120161130000101 00000000000000000000000000000000000000000000000000000000000000000000000000000000000000000000000000000000000000000N 00000000000NCONT   00    00000000000          00000000000000000000000000000000000000000000 000000000000000A000000000000000000000000000000000000000000000 000000000000000000000000000000000000000     00000000                                                                                                                        000000000000000000
F0010000009494100002000090024483300041450500000000000000000201611300002001COSMETICOS A-GUZ                                  C000000008000000000000000000000000100010010000000000000000000000F0010000009494100220161130000101 00000000000000000000000000000000000000000000000000000000000000000000000000000000000000000000000000000000000000000N 00000000000NCONT   00    00000000000          00000000000000000000000000000000000000000000 000000000000000A000000000000000000000000000000000000000000000 000000000000000000000000000000000000000     00000000                                                                                                                        000000000000000000
F0010000009494100003000090024483300042505000000000000000000201611300002001COSMETICOS A-GUZ                                  C000000001000000000000000000000000100010010000000000000000000000F0010000009494100320161130000101 00000000000000000000000000000000000000000000000000000000000000000000000000000000000000000000000000000000000000000N 00000000000NCONT   00    00000000000          00000000000000000000000000000000000000000000 000000000000000A000000000000000000000000000000000000000000000 000000000000000000000000000000000000000     00000000                                                                                                                        000000000000000000
F0010000009494100004000090024483300023658300000000000000000201611300002001COSMETICOS A-GUZ                                  C000000000064000000000000000000000100010010000000000000000000000F0010000009494100420161130000101 00000000000000000000000000000000000000000000000000000000000000000000000000000000000000000000000000000000000000000N 00000000000NCONT   00    00000000000          00000000000000000000000000000000000000000000 000000000000000A000000000000000000000000000000000000000000000 000000000000000000000000000000000000000     00000000                                                                                                                        000000000000000000
F0010000009494100005000090024483300013552100000000000000000201611300002001COSMETICOS A-GUZ                                  D000000000064000000000000000000000100010010000000000000000000000F0010000009494100520161130000101 00000000000000000000000000000000000000000000000000000000000000000000000000000000000000000000000000000000000000000N 00000000000NCONT   00    00000000000          00000000000000000000000000000000000000000000 000000000000000A000000000000000000000000000000000000000000000 000000000000000000000000000000000000000     00000000                                                                                                                        000000000000000000
F0010000009494200001000089080078800013050500000000000000000201611300002001SUMATEC S.A.                                      D000000012176900000000000000000000100010010000000000000000000000F0010000009494200120161130000101 00000000000000000000000000000000000000000000000000000000000000000000000000000000000000000000000000000000000000000N 00000000000NCONT   00    00000000000          00000000000000000000000000000000000000000000 000000000000000A000000000000000000000000000000000000000000000 000000000000000000000000000000000000000     00000000                                                                                                                        000000000000000000
F0010000009494200002000089080078800041450500000000000000000201611300002001SUMATEC S.A.                                      C000000009930000000000000000000000100010010000000000000000000000F0010000009494200220161130000101 00000000000000000000000000000000000000000000000000000000000000000000000000000000000000000000000000000000000000000N 00000000000NCONT   00    00000000000          00000000000000000000000000000000000000000000 000000000000000A000000000000000000000000000000000000000000000 000000000000000000000000000000000000000     00000000                                                                                                                        000000000000000000
F0010000009494200003000089080078800042505000000000000000000201611300002001SUMATEC S.A.                                      C000000002246900000000000000000000100010010000000000000000000000F0010000009494200320161130000101 00000000000000000000000000000000000000000000000000000000000000000000000000000000000000000000000000000000000000000N 00000000000NCONT   00    00000000000          00000000000000000000000000000000000000000000 000000000000000A000000000000000000000000000000000000000000000 000000000000000000000000000000000000000     00000000                                                                                                                        000000000000000000
F0010000009494200004000089080078800023658300000000000000000201611300002001SUMATEC S.A.                                      C000000000079400000000000000000000100010010000000000000000000000F0010000009494200420161130000101 00000000000000000000000000000000000000000000000000000000000000000000000000000000000000000000000000000000000000000N 00000000000NCONT   00    00000000000          00000000000000000000000000000000000000000000 000000000000000A000000000000000000000000000000000000000000000 000000000000000000000000000000000000000     00000000                                                                                                                        000000000000000000
F0010000009494200005000089080078800013552100000000000000000201611300002001SUMATEC S.A.                                      D000000000079400000000000000000000100010010000000000000000000000F0010000009494200520161130000101 00000000000000000000000000000000000000000000000000000000000000000000000000000000000000000000000000000000000000000N 00000000000NCONT   00    00000000000          00000000000000000000000000000000000000000000 000000000000000A000000000000000000000000000000000000000000000 000000000000000000000000000000000000000     00000000                                                                                                                        000000000000000000
F0010000009494300001000001503921200011050500000000000000000201611300002001ALBERTO ROJANO                                    D000000001100000000000000000000000100010010000000000000000000000F0010000009494300120161130000101 00000000000000000000000000000000000000000000000000000000000000000000000000000000000000000000000000000000000000000N 00000000000NCONT   00    00000000000          00000000000000000000000000000000000000000000 000000000000000A000000000000000000000000000000000000000000000 000000000000000000000000000000000000000     00000000                                                                                                                        000000000000000000
F0010000009494300002000001503921200041450500000000000000000201611300002001ALBERTO ROJANO                                    C000000000900000000000000000000000100010010000000000000000000000F0010000009494300220161130000101 00000000000000000000000000000000000000000000000000000000000000000000000000000000000000000000000000000000000000000N 00000000000NCONT   00    00000000000          00000000000000000000000000000000000000000000 000000000000000A000000000000000000000000000000000000000000000 000000000000000000000000000000000000000     00000000                                                                                                                        000000000000000000
F0010000009494300003000001503921200042505000000000000000000201611300002001ALBERTO ROJANO                                    C000000000200000000000000000000000100010010000000000000000000000F0010000009494300320161130000101 00000000000000000000000000000000000000000000000000000000000000000000000000000000000000000000000000000000000000000N 00000000000NCONT   00    00000000000          00000000000000000000000000000000000000000000 000000000000000A000000000000000000000000000000000000000000000 000000000000000000000000000000000000000     00000000                                                                                                                        000000000000000000
F0010000009494300004000001503921200023658300000000000000000201611300002001ALBERTO ROJANO                                    C000000000007200000000000000000000100010010000000000000000000000F0010000009494300420161130000101 00000000000000000000000000000000000000000000000000000000000000000000000000000000000000000000000000000000000000000N 00000000000NCONT   00    00000000000          00000000000000000000000000000000000000000000 000000000000000A000000000000000000000000000000000000000000000 000000000000000000000000000000000000000     00000000                                                                                                                        000000000000000000
F0010000009494300005000001503921200013552100000000000000000201611300002001ALBERTO ROJANO                                    D000000000007200000000000000000000100010010000000000000000000000F0010000009494300520161130000101 00000000000000000000000000000000000000000000000000000000000000000000000000000000000000000000000000000000000000000N 00000000000NCONT   00    00000000000          00000000000000000000000000000000000000000000 000000000000000A000000000000000000000000000000000000000000000 000000000000000000000000000000000000000     00000000                                                                                                                        000000000000000000
F0010000009494400001000090063628300011050500000000000000000201611300002001INVERSIONES RADELCA S.A.S.                        D000000006900000000000000000000000100010010000000000000000000000F0010000009494400120161130000101 00000000000000000000000000000000000000000000000000000000000000000000000000000000000000000000000000000000000000000N 00000000000NCONT   00    00000000000          00000000000000000000000000000000000000000000 000000000000000A000000000000000000000000000000000000000000000 000000000000000000000000000000000000000     00000000                                                                                                                        000000000000000000
F0010000009494400002000090063628300041450500000000000000000201611300002001INVERSIONES RADELCA S.A.S.                        C000000005200000000000000000000000100010010000000000000000000000F0010000009494400220161130000101 00000000000000000000000000000000000000000000000000000000000000000000000000000000000000000000000000000000000000000N 00000000000NCONT   00    00000000000          00000000000000000000000000000000000000000000 000000000000000A000000000000000000000000000000000000000000000 000000000000000000000000000000000000000     00000000                                                                                                                        000000000000000000
F0010000009494400003000090063628300042505000000000000000000201611300002001INVERSIONES RADELCA S.A.S.                        C000000001700000000000000000000000100010010000000000000000000000F0010000009494400320161130000101 00000000000000000000000000000000000000000000000000000000000000000000000000000000000000000000000000000000000000000N 00000000000NCONT   00    00000000000          00000000000000000000000000000000000000000000 000000000000000A000000000000000000000000000000000000000000000 000000000000000000000000000000000000000     00000000                                                                                                                        000000000000000000
F0010000009494400004000090063628300023658300000000000000000201611300002001INVERSIONES RADELCA S.A.S.                        C000000000041600000000000000000000100010010000000000000000000000F0010000009494400420161130000101 00000000000000000000000000000000000000000000000000000000000000000000000000000000000000000000000000000000000000000N 00000000000NCONT   00    00000000000          00000000000000000000000000000000000000000000 000000000000000A000000000000000000000000000000000000000000000 000000000000000000000000000000000000000     00000000                                                                                                                        000000000000000000
F0010000009494400005000090063628300013552100000000000000000201611300002001INVERSIONES RADELCA S.A.S.                        D000000000041600000000000000000000100010010000000000000000000000F0010000009494400520161130000101 00000000000000000000000000000000000000000000000000000000000000000000000000000000000000000000000000000000000000000N 00000000000NCONT   00    00000000000          00000000000000000000000000000000000000000000 000000000000000A000000000000000000000000000000000000000000000 000000000000000000000000000000000000000     00000000                                                                                                                        000000000000000000
F0010000009494500001000000905990500011050500000000000000000201611300002001DISTRIBUIDORA EURO DE COLOMBIA                    D000000003000000000000000000000000100010010000000000000000000000F0010000009494500120161130000101 00000000000000000000000000000000000000000000000000000000000000000000000000000000000000000000000000000000000000000N 00000000000NCONT   00    00000000000          00000000000000000000000000000000000000000000 000000000000000A000000000000000000000000000000000000000000000 000000000000000000000000000000000000000     00000000                                                                                                                        000000000000000000
F0010000009494500002000000905990500041450500000000000000000201611300002001DISTRIBUIDORA EURO DE COLOMBIA                    C000000002000000000000000000000000100010010000000000000000000000F0010000009494500220161130000101 00000000000000000000000000000000000000000000000000000000000000000000000000000000000000000000000000000000000000000N 00000000000NCONT   00    00000000000          00000000000000000000000000000000000000000000 000000000000000A000000000000000000000000000000000000000000000 000000000000000000000000000000000000000     00000000                                                                                                                        000000000000000000
F0010000009494500003000000905990500042505000000000000000000201611300002001DISTRIBUIDORA EURO DE COLOMBIA                    C000000001000000000000000000000000100010010000000000000000000000F0010000009494500320161130000101 00000000000000000000000000000000000000000000000000000000000000000000000000000000000000000000000000000000000000000N 00000000000NCONT   00    00000000000          00000000000000000000000000000000000000000000 000000000000000A000000000000000000000000000000000000000000000 000000000000000000000000000000000000000     00000000                                                                                                                        000000000000000000
F0010000009494500004000000905990500023658300000000000000000201611300002001DISTRIBUIDORA EURO DE COLOMBIA                    C000000000016000000000000000000000100010010000000000000000000000F0010000009494500420161130000101 00000000000000000000000000000000000000000000000000000000000000000000000000000000000000000000000000000000000000000N 00000000000NCONT   00    00000000000          00000000000000000000000000000000000000000000 000000000000000A000000000000000000000000000000000000000000000 000000000000000000000000000000000000000     00000000                                                                                                                        000000000000000000
F0010000009494500005000000905990500013552100000000000000000201611300002001DISTRIBUIDORA EURO DE COLOMBIA                    D000000000016000000000000000000000100010010000000000000000000000F0010000009494500520161130000101 00000000000000000000000000000000000000000000000000000000000000000000000000000000000000000000000000000000000000000N 00000000000NCONT   00    00000000000          00000000000000000000000000000000000000000000 000000000000000A000000000000000000000000000000000000000000000 000000000000000000000000000000000000000     00000000                                                                                                                        000000000000000000
F0010000009494600001000000905990500011050500000000000000000201611300002001DISTRIBUIDORA EURO DE COLOMBIA                    D000000003000000000000000000000000100010010000000000000000000000F0010000009494600120161130000101 00000000000000000000000000000000000000000000000000000000000000000000000000000000000000000000000000000000000000000N 00000000000NCONT   00    00000000000          00000000000000000000000000000000000000000000 000000000000000A000000000000000000000000000000000000000000000 000000000000000000000000000000000000000     00000000                                                                                                                        000000000000000000
F0010000009494600002000000905990500041450500000000000000000201611300002001DISTRIBUIDORA EURO DE COLOMBIA                    C000000002000000000000000000000000100010010000000000000000000000F0010000009494600220161130000101 00000000000000000000000000000000000000000000000000000000000000000000000000000000000000000000000000000000000000000N 00000000000NCONT   00    00000000000          00000000000000000000000000000000000000000000 000000000000000A000000000000000000000000000000000000000000000 000000000000000000000000000000000000000     00000000                                                                                                                        000000000000000000
F0010000009494600003000000905990500042505000000000000000000201611300002001DISTRIBUIDORA EURO DE COLOMBIA                    C000000001000000000000000000000000100010010000000000000000000000F0010000009494600320161130000101 00000000000000000000000000000000000000000000000000000000000000000000000000000000000000000000000000000000000000000N 00000000000NCONT   00    00000000000          00000000000000000000000000000000000000000000 000000000000000A000000000000000000000000000000000000000000000 000000000000000000000000000000000000000     00000000                                                                                                                        000000000000000000
F0010000009494600004000000905990500023658300000000000000000201611300002001DISTRIBUIDORA EURO DE COLOMBIA                    C000000000016000000000000000000000100010010000000000000000000000F0010000009494600420161130000101 00000000000000000000000000000000000000000000000000000000000000000000000000000000000000000000000000000000000000000N 00000000000NCONT   00    00000000000          00000000000000000000000000000000000000000000 000000000000000A000000000000000000000000000000000000000000000 000000000000000000000000000000000000000     00000000                                                                                                                        000000000000000000
F0010000009494600005000000905990500013552100000000000000000201611300002001DISTRIBUIDORA EURO DE COLOMBIA                    D000000000016000000000000000000000100010010000000000000000000000F0010000009494600520161130000101 00000000000000000000000000000000000000000000000000000000000000000000000000000000000000000000000000000000000000000N 00000000000NCONT   00    00000000000          00000000000000000000000000000000000000000000 000000000000000A000000000000000000000000000000000000000000000 000000000000000000000000000000000000000     00000000                                                                                                                        000000000000000000
F0010000009494700001000102390001700011050500000000000000000201611300002001LILIANA HERNANDEZ PINILLA                         D000000001800000000000000000000000100010010000000000000000000000F0010000009494700120161130000101 00000000000000000000000000000000000000000000000000000000000000000000000000000000000000000000000000000000000000000N 00000000000NCONT   00    00000000000          00000000000000000000000000000000000000000000 000000000000000A000000000000000000000000000000000000000000000 000000000000000000000000000000000000000     00000000                                                                                                                        000000000000000000
F0010000009494700002000102390001700041450500000000000000000201611300002001LILIANA HERNANDEZ PINILLA                         C000000001300000000000000000000000100010010000000000000000000000F0010000009494700220161130000101 00000000000000000000000000000000000000000000000000000000000000000000000000000000000000000000000000000000000000000N 00000000000NCONT   00    00000000000          00000000000000000000000000000000000000000000 000000000000000A000000000000000000000000000000000000000000000 000000000000000000000000000000000000000     00000000                                                                                                                        000000000000000000
F0010000009494700003000102390001700042505000000000000000000201611300002001LILIANA HERNANDEZ PINILLA                         C000000000500000000000000000000000100010010000000000000000000000F0010000009494700320161130000101 00000000000000000000000000000000000000000000000000000000000000000000000000000000000000000000000000000000000000000N 00000000000NCONT   00    00000000000          00000000000000000000000000000000000000000000 000000000000000A000000000000000000000000000000000000000000000 000000000000000000000000000000000000000     00000000                                                                                                                        000000000000000000
F0010000009494700004000102390001700023658300000000000000000201611300002001LILIANA HERNANDEZ PINILLA                         C000000000010400000000000000000000100010010000000000000000000000F0010000009494700420161130000101 00000000000000000000000000000000000000000000000000000000000000000000000000000000000000000000000000000000000000000N 00000000000NCONT   00    00000000000          00000000000000000000000000000000000000000000 000000000000000A000000000000000000000000000000000000000000000 000000000000000000000000000000000000000     00000000                                                                                                                        000000000000000000
F0010000009494700005000102390001700013552100000000000000000201611300002001LILIANA HERNANDEZ PINILLA                         D000000000010400000000000000000000100010010000000000000000000000F0010000009494700520161130000101 00000000000000000000000000000000000000000000000000000000000000000000000000000000000000000000000000000000000000000N 00000000000NCONT   00    00000000000          00000000000000000000000000000000000000000000 000000000000000A000000000000000000000000000000000000000000000 000000000000000000000000000000000000000     00000000                                                                                                                        000000000000000000
F0010000009494800001000102390001700011050500000000000000000201611300002001LILIANA HERNANDEZ PINILLA                         D000000010800000000000000000000000100010010000000000000000000000F0010000009494800120161130000101 00000000000000000000000000000000000000000000000000000000000000000000000000000000000000000000000000000000000000000N 00000000000NCONT   00    00000000000          00000000000000000000000000000000000000000000 000000000000000A000000000000000000000000000000000000000000000 000000000000000000000000000000000000000     00000000                                                                                                                        000000000000000000
F0010000009494800002000102390001700041450500000000000000000201611300002001LILIANA HERNANDEZ PINILLA                         C000000007800000000000000000000000100010010000000000000000000000F0010000009494800220161130000101 00000000000000000000000000000000000000000000000000000000000000000000000000000000000000000000000000000000000000000N 00000000000NCONT   00    00000000000          00000000000000000000000000000000000000000000 000000000000000A000000000000000000000000000000000000000000000 000000000000000000000000000000000000000     00000000                                                                                                                        000000000000000000
F0010000009494800003000102390001700042505000000000000000000201611300002001LILIANA HERNANDEZ PINILLA                         C000000003000000000000000000000000100010010000000000000000000000F0010000009494800320161130000101 00000000000000000000000000000000000000000000000000000000000000000000000000000000000000000000000000000000000000000N 00000000000NCONT   00    00000000000          00000000000000000000000000000000000000000000 000000000000000A000000000000000000000000000000000000000000000 000000000000000000000000000000000000000     00000000                                                                                                                        000000000000000000
F0010000009494800004000102390001700023658300000000000000000201611300002001LILIANA HERNANDEZ PINILLA                         C000000000062400000000000000000000100010010000000000000000000000F0010000009494800420161130000101 00000000000000000000000000000000000000000000000000000000000000000000000000000000000000000000000000000000000000000N 00000000000NCONT   00    00000000000          00000000000000000000000000000000000000000000 000000000000000A000000000000000000000000000000000000000000000 000000000000000000000000000000000000000     00000000                                                                                                                        000000000000000000
F0010000009494800005000102390001700013552100000000000000000201611300002001LILIANA HERNANDEZ PINILLA                         D000000000062400000000000000000000100010010000000000000000000000F0010000009494800520161130000101 00000000000000000000000000000000000000000000000000000000000000000000000000000000000000000000000000000000000000000N 00000000000NCONT   00    00000000000          00000000000000000000000000000000000000000000 000000000000000A000000000000000000000000000000000000000000000 000000000000000000000000000000000000000     00000000                                                                                                                        000000000000000000
F0010000009494900001000003279708800011050500000000000000000201611300002001BLANCA CASTRO                                     D000000001200000000000000000000000100010010000000000000000000000F0010000009494900120161130000101 00000000000000000000000000000000000000000000000000000000000000000000000000000000000000000000000000000000000000000N 00000000000NCONT   00    00000000000          00000000000000000000000000000000000000000000 000000000000000A000000000000000000000000000000000000000000000 000000000000000000000000000000000000000     00000000                                                                                                                        000000000000000000
F0010000009494900002000003279708800041450500000000000000000201611300002001BLANCA CASTRO                                     C000000000950000000000000000000000100010010000000000000000000000F0010000009494900220161130000101 00000000000000000000000000000000000000000000000000000000000000000000000000000000000000000000000000000000000000000N 00000000000NCONT   00    00000000000          00000000000000000000000000000000000000000000 000000000000000A000000000000000000000000000000000000000000000 000000000000000000000000000000000000000     00000000                                                                                                                        000000000000000000
F0010000009494900003000003279708800042505000000000000000000201611300002001BLANCA CASTRO                                     C000000000250000000000000000000000100010010000000000000000000000F0010000009494900320161130000101 00000000000000000000000000000000000000000000000000000000000000000000000000000000000000000000000000000000000000000N 00000000000NCONT   00    00000000000          00000000000000000000000000000000000000000000 000000000000000A000000000000000000000000000000000000000000000 000000000000000000000000000000000000000     00000000                                                                                                                        000000000000000000
F0010000009494900004000003279708800023658300000000000000000201611300002001BLANCA CASTRO                                     C000000000007600000000000000000000100010010000000000000000000000F0010000009494900420161130000101 00000000000000000000000000000000000000000000000000000000000000000000000000000000000000000000000000000000000000000N 00000000000NCONT   00    00000000000          00000000000000000000000000000000000000000000 000000000000000A000000000000000000000000000000000000000000000 000000000000000000000000000000000000000     00000000                                                                                                                        000000000000000000
F0010000009494900005000003279708800013552100000000000000000201611300002001BLANCA CASTRO                                     D000000000007600000000000000000000100010010000000000000000000000F0010000009494900520161130000101 00000000000000000000000000000000000000000000000000000000000000000000000000000000000000000000000000000000000000000N 00000000000NCONT   00    00000000000          00000000000000000000000000000000000000000000 000000000000000A000000000000000000000000000000000000000000000 000000000000000000000000000000000000000     00000000                                                                                                                        000000000000000000
F0010000009495000001000000866840800011050500000000000000000201611300002001CACHARRERIA MARTIN                                D000000006400000000000000000000000100010010000000000000000000000F0010000009495000120161130000101 00000000000000000000000000000000000000000000000000000000000000000000000000000000000000000000000000000000000000000N 00000000000NCONT   00    00000000000          00000000000000000000000000000000000000000000 000000000000000A000000000000000000000000000000000000000000000 000000000000000000000000000000000000000     00000000                                                                                                                        000000000000000000
F0010000009495000002000000866840800041450500000000000000000201611300002001CACHARRERIA MARTIN                                C000000003900000000000000000000000100010010000000000000000000000F0010000009495000220161130000101 00000000000000000000000000000000000000000000000000000000000000000000000000000000000000000000000000000000000000000N 00000000000NCONT   00    00000000000          00000000000000000000000000000000000000000000 000000000000000A000000000000000000000000000000000000000000000 000000000000000000000000000000000000000     00000000                                                                                                                        000000000000000000
F0010000009495000003000000866840800042505000000000000000000201611300002001CACHARRERIA MARTIN                                C000000002500000000000000000000000100010010000000000000000000000F0010000009495000320161130000101 00000000000000000000000000000000000000000000000000000000000000000000000000000000000000000000000000000000000000000N 00000000000NCONT   00    00000000000          00000000000000000000000000000000000000000000 000000000000000A000000000000000000000000000000000000000000000 000000000000000000000000000000000000000     00000000                                                                                                                        000000000000000000
F0010000009495000004000000866840800023658300000000000000000201611300002001CACHARRERIA MARTIN                                C000000000031200000000000000000000100010010000000000000000000000F0010000009495000420161130000101 00000000000000000000000000000000000000000000000000000000000000000000000000000000000000000000000000000000000000000N 00000000000NCONT   00    00000000000          00000000000000000000000000000000000000000000 000000000000000A000000000000000000000000000000000000000000000 000000000000000000000000000000000000000     00000000                                                                                                                        000000000000000000
F0010000009495000005000000866840800013552100000000000000000201611300002001CACHARRERIA MARTIN                                D000000000031200000000000000000000100010010000000000000000000000F0010000009495000520161130000101 00000000000000000000000000000000000000000000000000000000000000000000000000000000000000000000000000000000000000000N 00000000000NCONT   00    00000000000          00000000000000000000000000000000000000000000 000000000000000A000000000000000000000000000000000000000000000 000000000000000000000000000000000000000     00000000                                                                                                                        000000000000000000
F0010000009495100001000000866840800011050500000000000000000201611300002001CACHARRERIA MARTIN                                D000000002000000000000000000000000100010010000000000000000000000F0010000009495100120161130000101 00000000000000000000000000000000000000000000000000000000000000000000000000000000000000000000000000000000000000000N 00000000000NCONT   00    00000000000          00000000000000000000000000000000000000000000 000000000000000A000000000000000000000000000000000000000000000 000000000000000000000000000000000000000     00000000                                                                                                                        000000000000000000
F0010000009495100002000000866840800041450500000000000000000201611300002001CACHARRERIA MARTIN                                C000000001300000000000000000000000100010010000000000000000000000F0010000009495100220161130000101 00000000000000000000000000000000000000000000000000000000000000000000000000000000000000000000000000000000000000000N 00000000000NCONT   00    00000000000          00000000000000000000000000000000000000000000 000000000000000A000000000000000000000000000000000000000000000 000000000000000000000000000000000000000     00000000                                                                                                                        000000000000000000
F0010000009495100003000000866840800042505000000000000000000201611300002001CACHARRERIA MARTIN                                C000000000700000000000000000000000100010010000000000000000000000F0010000009495100320161130000101 00000000000000000000000000000000000000000000000000000000000000000000000000000000000000000000000000000000000000000N 00000000000NCONT   00    00000000000          00000000000000000000000000000000000000000000 000000000000000A000000000000000000000000000000000000000000000 000000000000000000000000000000000000000     00000000                                                                                                                        000000000000000000
F0010000009495100004000000866840800023658300000000000000000201611300002001CACHARRERIA MARTIN                                C000000000010400000000000000000000100010010000000000000000000000F0010000009495100420161130000101 00000000000000000000000000000000000000000000000000000000000000000000000000000000000000000000000000000000000000000N 00000000000NCONT   00    00000000000          00000000000000000000000000000000000000000000 000000000000000A000000000000000000000000000000000000000000000 000000000000000000000000000000000000000     00000000                                                                                                                        000000000000000000
F0010000009495100005000000866840800013552100000000000000000201611300002001CACHARRERIA MARTIN                                D000000000010400000000000000000000100010010000000000000000000000F0010000009495100520161130000101 00000000000000000000000000000000000000000000000000000000000000000000000000000000000000000000000000000000000000000N 00000000000NCONT   00    00000000000          00000000000000000000000000000000000000000000 000000000000000A000000000000000000000000000000000000000000000 000000000000000000000000000000000000000     00000000                                                                                                                        000000000000000000
F0010000009495200001000080202350700011050500000000000000000201611300002001CONNY DE LA COSTA SAS                             D000000000900000000000000000000000100010010000000000000000000000F0010000009495200120161130000101 00000000000000000000000000000000000000000000000000000000000000000000000000000000000000000000000000000000000000000N 00000000000NCONT   00    00000000000          00000000000000000000000000000000000000000000 000000000000000A000000000000000000000000000000000000000000000 000000000000000000000000000000000000000     00000000                                                                                                                        000000000000000000
F0010000009495200002000080202350700041450500000000000000000201611300002001CONNY DE LA COSTA SAS                             C000000000850000000000000000000000100010010000000000000000000000F0010000009495200220161130000101 00000000000000000000000000000000000000000000000000000000000000000000000000000000000000000000000000000000000000000N 00000000000NCONT   00    00000000000          00000000000000000000000000000000000000000000 000000000000000A000000000000000000000000000000000000000000000 000000000000000000000000000000000000000     00000000                                                                                                                        000000000000000000
F0010000009495200003000080202350700042505000000000000000000201611300002001CONNY DE LA COSTA SAS                             C000000000050000000000000000000000100010010000000000000000000000F0010000009495200320161130000101 00000000000000000000000000000000000000000000000000000000000000000000000000000000000000000000000000000000000000000N 00000000000NCONT   00    00000000000          00000000000000000000000000000000000000000000 000000000000000A000000000000000000000000000000000000000000000 000000000000000000000000000000000000000     00000000                                                                                                                        000000000000000000
F0010000009495200004000080202350700023658300000000000000000201611300002001CONNY DE LA COSTA SAS                             C000000000006800000000000000000000100010010000000000000000000000F0010000009495200420161130000101 00000000000000000000000000000000000000000000000000000000000000000000000000000000000000000000000000000000000000000N 00000000000NCONT   00    00000000000          00000000000000000000000000000000000000000000 000000000000000A000000000000000000000000000000000000000000000 000000000000000000000000000000000000000     00000000                                                                                                                        000000000000000000
F0010000009495200005000080202350700013552100000000000000000201611300002001CONNY DE LA COSTA SAS                             D000000000006800000000000000000000100010010000000000000000000000F0010000009495200520161130000101 00000000000000000000000000000000000000000000000000000000000000000000000000000000000000000000000000000000000000000N 00000000000NCONT   00    00000000000          00000000000000000000000000000000000000000000 000000000000000A000000000000000000000000000000000000000000000 000000000000000000000000000000000000000     00000000                                                                                                                        000000000000000000
F0010000009495300001000007229328500011050500000000000000000201611300002001PV ELECTRIC   DEL CARIBE                          D000000002100000000000000000000000100010010000000000000000000000F0010000009495300120161130000101 00000000000000000000000000000000000000000000000000000000000000000000000000000000000000000000000000000000000000000N 00000000000NCONT   00    00000000000          00000000000000000000000000000000000000000000 000000000000000A000000000000000000000000000000000000000000000 000000000000000000000000000000000000000     00000000                                                                                                                        000000000000000000
F0010000009495300002000007229328500041450500000000000000000201611300002001PV ELECTRIC   DEL CARIBE                          C000000001800000000000000000000000100010010000000000000000000000F0010000009495300220161130000101 00000000000000000000000000000000000000000000000000000000000000000000000000000000000000000000000000000000000000000N 00000000000NCONT   00    00000000000          00000000000000000000000000000000000000000000 000000000000000A000000000000000000000000000000000000000000000 000000000000000000000000000000000000000     00000000                                                                                                                        000000000000000000
F0010000009495300003000007229328500042505000000000000000000201611300002001PV ELECTRIC   DEL CARIBE                          C000000000300000000000000000000000100010010000000000000000000000F0010000009495300320161130000101 00000000000000000000000000000000000000000000000000000000000000000000000000000000000000000000000000000000000000000N 00000000000NCONT   00    00000000000          00000000000000000000000000000000000000000000 000000000000000A000000000000000000000000000000000000000000000 000000000000000000000000000000000000000     00000000                                                                                                                        000000000000000000
F0010000009495300004000007229328500023658300000000000000000201611300002001PV ELECTRIC   DEL CARIBE                          C000000000014400000000000000000000100010010000000000000000000000F0010000009495300420161130000101 00000000000000000000000000000000000000000000000000000000000000000000000000000000000000000000000000000000000000000N 00000000000NCONT   00    00000000000          00000000000000000000000000000000000000000000 000000000000000A000000000000000000000000000000000000000000000 000000000000000000000000000000000000000     00000000                                                                                                                        000000000000000000
F0010000009495300005000007229328500013552100000000000000000201611300002001PV ELECTRIC   DEL CARIBE                          D000000000014400000000000000000000100010010000000000000000000000F0010000009495300520161130000101 00000000000000000000000000000000000000000000000000000000000000000000000000000000000000000000000000000000000000000N 00000000000NCONT   00    00000000000          00000000000000000000000000000000000000000000 000000000000000A000000000000000000000000000000000000000000000 000000000000000000000000000000000000000     00000000                                                                                                                        000000000000000000
F0010000009495400001000007229328500011050500000000000000000201611300002001PV ELECTRIC   DEL CARIBE                          D000000013600000000000000000000000100010010000000000000000000000F0010000009495400120161130000101 00000000000000000000000000000000000000000000000000000000000000000000000000000000000000000000000000000000000000000N 00000000000NCONT   00    00000000000          00000000000000000000000000000000000000000000 000000000000000A000000000000000000000000000000000000000000000 000000000000000000000000000000000000000     00000000                                                                                                                        000000000000000000
F0010000009495400002000007229328500041450500000000000000000201611300002001PV ELECTRIC   DEL CARIBE                          C000000012600000000000000000000000100010010000000000000000000000F0010000009495400220161130000101 00000000000000000000000000000000000000000000000000000000000000000000000000000000000000000000000000000000000000000N 00000000000NCONT   00    00000000000          00000000000000000000000000000000000000000000 000000000000000A000000000000000000000000000000000000000000000 000000000000000000000000000000000000000     00000000                                                                                                                        000000000000000000
F0010000009495400003000007229328500042505000000000000000000201611300002001PV ELECTRIC   DEL CARIBE                          C000000001000000000000000000000000100010010000000000000000000000F0010000009495400320161130000101 00000000000000000000000000000000000000000000000000000000000000000000000000000000000000000000000000000000000000000N 00000000000NCONT   00    00000000000          00000000000000000000000000000000000000000000 000000000000000A000000000000000000000000000000000000000000000 000000000000000000000000000000000000000     00000000                                                                                                                        000000000000000000
F0010000009495400004000007229328500023658300000000000000000201611300002001PV ELECTRIC   DEL CARIBE                          C000000000100800000000000000000000100010010000000000000000000000F0010000009495400420161130000101 00000000000000000000000000000000000000000000000000000000000000000000000000000000000000000000000000000000000000000N 00000000000NCONT   00    00000000000          00000000000000000000000000000000000000000000 000000000000000A000000000000000000000000000000000000000000000 000000000000000000000000000000000000000     00000000                                                                                                                        000000000000000000
F0010000009495400005000007229328500013552100000000000000000201611300002001PV ELECTRIC   DEL CARIBE                          D000000000100800000000000000000000100010010000000000000000000000F0010000009495400520161130000101 00000000000000000000000000000000000000000000000000000000000000000000000000000000000000000000000000000000000000000N 00000000000NCONT   00    00000000000          00000000000000000000000000000000000000000000 000000000000000A000000000000000000000000000000000000000000000 000000000000000000000000000000000000000     00000000                                                                                                                        000000000000000000
F0010000009495500001000000871573200011050500000000000000000201611300002001ACCESORIAS ARQUITECTONI KJ                        D000000001800000000000000000000000100010010000000000000000000000F0010000009495500120161130000101 00000000000000000000000000000000000000000000000000000000000000000000000000000000000000000000000000000000000000000N 00000000000NCONT   00    00000000000          00000000000000000000000000000000000000000000 000000000000000A000000000000000000000000000000000000000000000 000000000000000000000000000000000000000     00000000                                                                                                                        000000000000000000
F0010000009495500002000000871573200041450500000000000000000201611300002001ACCESORIAS ARQUITECTONI KJ                        C000000001300000000000000000000000100010010000000000000000000000F0010000009495500220161130000101 00000000000000000000000000000000000000000000000000000000000000000000000000000000000000000000000000000000000000000N 00000000000NCONT   00    00000000000          00000000000000000000000000000000000000000000 000000000000000A000000000000000000000000000000000000000000000 000000000000000000000000000000000000000     00000000                                                                                                                        000000000000000000
F0010000009495500003000000871573200042505000000000000000000201611300002001ACCESORIAS ARQUITECTONI KJ                        C000000000500000000000000000000000100010010000000000000000000000F0010000009495500320161130000101 00000000000000000000000000000000000000000000000000000000000000000000000000000000000000000000000000000000000000000N 00000000000NCONT   00    00000000000          00000000000000000000000000000000000000000000 000000000000000A000000000000000000000000000000000000000000000 000000000000000000000000000000000000000     00000000                                                                                                                        000000000000000000
F0010000009495500004000000871573200023658300000000000000000201611300002001ACCESORIAS ARQUITECTONI KJ                        C000000000010400000000000000000000100010010000000000000000000000F0010000009495500420161130000101 00000000000000000000000000000000000000000000000000000000000000000000000000000000000000000000000000000000000000000N 00000000000NCONT   00    00000000000          00000000000000000000000000000000000000000000 000000000000000A000000000000000000000000000000000000000000000 000000000000000000000000000000000000000     00000000                                                                                                                        000000000000000000
F0010000009495500005000000871573200013552100000000000000000201611300002001ACCESORIAS ARQUITECTONI KJ                        D000000000010400000000000000000000100010010000000000000000000000F0010000009495500520161130000101 00000000000000000000000000000000000000000000000000000000000000000000000000000000000000000000000000000000000000000N 00000000000NCONT   00    00000000000          00000000000000000000000000000000000000000000 000000000000000A000000000000000000000000000000000000000000000 000000000000000000000000000000000000000     00000000                                                                                                                        000000000000000000
F0010000009495600001000090067091400011050500000000000000000201611300002001COMERCIALIZADORA ESCOBAR ORTIZ                    D000000007579000000000000000000000100010010000000000000000000000F0010000009495600120161130000101 00000000000000000000000000000000000000000000000000000000000000000000000000000000000000000000000000000000000000000N 00000000000NCONT   00    00000000000          00000000000000000000000000000000000000000000 000000000000000A000000000000000000000000000000000000000000000 000000000000000000000000000000000000000     00000000                                                                                                                        000000000000000000
F0010000009495600002000090067091400041450500000000000000000201611300002001COMERCIALIZADORA ESCOBAR ORTIZ                    C000000005200000000000000000000000100010010000000000000000000000F0010000009495600220161130000101 00000000000000000000000000000000000000000000000000000000000000000000000000000000000000000000000000000000000000000N 00000000000NCONT   00    00000000000          00000000000000000000000000000000000000000000 000000000000000A000000000000000000000000000000000000000000000 000000000000000000000000000000000000000     00000000                                                                                                                        000000000000000000
F0010000009495600003000090067091400042505000000000000000000201611300002001COMERCIALIZADORA ESCOBAR ORTIZ                    C000000002379000000000000000000000100010010000000000000000000000F0010000009495600320161130000101 00000000000000000000000000000000000000000000000000000000000000000000000000000000000000000000000000000000000000000N 00000000000NCONT   00    00000000000          00000000000000000000000000000000000000000000 000000000000000A000000000000000000000000000000000000000000000 000000000000000000000000000000000000000     00000000                                                                                                                        000000000000000000
F0010000009495600004000090067091400023658300000000000000000201611300002001COMERCIALIZADORA ESCOBAR ORTIZ                    C000000000041600000000000000000000100010010000000000000000000000F0010000009495600420161130000101 00000000000000000000000000000000000000000000000000000000000000000000000000000000000000000000000000000000000000000N 00000000000NCONT   00    00000000000          00000000000000000000000000000000000000000000 000000000000000A000000000000000000000000000000000000000000000 000000000000000000000000000000000000000     00000000                                                                                                                        000000000000000000
F0010000009495600005000090067091400013552100000000000000000201611300002001COMERCIALIZADORA ESCOBAR ORTIZ                    D000000000041600000000000000000000100010010000000000000000000000F0010000009495600520161130000101 00000000000000000000000000000000000000000000000000000000000000000000000000000000000000000000000000000000000000000N 00000000000NCONT   00    00000000000          00000000000000000000000000000000000000000000 000000000000000A000000000000000000000000000000000000000000000 000000000000000000000000000000000000000     00000000                                                                                                                        000000000000000000
F0010000009495700001000090067091400011050500000000000000000201611300002001COMERCIALIZADORA ESCOBAR ORTIZ                    D000000003369000000000000000000000100010010000000000000000000000F0010000009495700120161130000101 00000000000000000000000000000000000000000000000000000000000000000000000000000000000000000000000000000000000000000N 00000000000NCONT   00    00000000000          00000000000000000000000000000000000000000000 000000000000000A000000000000000000000000000000000000000000000 000000000000000000000000000000000000000     00000000                                                                                                                        000000000000000000
F0010000009495700002000090067091400041450500000000000000000201611300002001COMERCIALIZADORA ESCOBAR ORTIZ                    C000000002600000000000000000000000100010010000000000000000000000F0010000009495700220161130000101 00000000000000000000000000000000000000000000000000000000000000000000000000000000000000000000000000000000000000000N 00000000000NCONT   00    00000000000          00000000000000000000000000000000000000000000 000000000000000A000000000000000000000000000000000000000000000 000000000000000000000000000000000000000     00000000                                                                                                                        000000000000000000
F0010000009495700003000090067091400042505000000000000000000201611300002001COMERCIALIZADORA ESCOBAR ORTIZ                    C000000000769000000000000000000000100010010000000000000000000000F0010000009495700320161130000101 00000000000000000000000000000000000000000000000000000000000000000000000000000000000000000000000000000000000000000N 00000000000NCONT   00    00000000000          00000000000000000000000000000000000000000000 000000000000000A000000000000000000000000000000000000000000000 000000000000000000000000000000000000000     00000000                                                                                                                        000000000000000000
F0010000009495700004000090067091400023658300000000000000000201611300002001COMERCIALIZADORA ESCOBAR ORTIZ                    C000000000020800000000000000000000100010010000000000000000000000F0010000009495700420161130000101 00000000000000000000000000000000000000000000000000000000000000000000000000000000000000000000000000000000000000000N 00000000000NCONT   00    00000000000          00000000000000000000000000000000000000000000 000000000000000A000000000000000000000000000000000000000000000 000000000000000000000000000000000000000     00000000                                                                                                                        000000000000000000
F0010000009495700005000090067091400013552100000000000000000201611300002001COMERCIALIZADORA ESCOBAR ORTIZ                    D000000000020800000000000000000000100010010000000000000000000000F0010000009495700520161130000101 00000000000000000000000000000000000000000000000000000000000000000000000000000000000000000000000000000000000000000N 00000000000NCONT   00    00000000000          00000000000000000000000000000000000000000000 000000000000000A000000000000000000000000000000000000000000000 000000000000000000000000000000000000000     00000000                                                                                                                        000000000000000000
F0010000009495800001000000871573200011050500000000000000000201611300002001ACCESORIAS ARQUITECTONI KJ                        D000000003600000000000000000000000100010010000000000000000000000F0010000009495800120161130000101 00000000000000000000000000000000000000000000000000000000000000000000000000000000000000000000000000000000000000000N 00000000000NCONT   00    00000000000          00000000000000000000000000000000000000000000 000000000000000A000000000000000000000000000000000000000000000 000000000000000000000000000000000000000     00000000                                                                                                                        000000000000000000
F0010000009495800002000000871573200041450500000000000000000201611300002001ACCESORIAS ARQUITECTONI KJ                        C000000002600000000000000000000000100010010000000000000000000000F0010000009495800220161130000101 00000000000000000000000000000000000000000000000000000000000000000000000000000000000000000000000000000000000000000N 00000000000NCONT   00    00000000000          00000000000000000000000000000000000000000000 000000000000000A000000000000000000000000000000000000000000000 000000000000000000000000000000000000000     00000000                                                                                                                        000000000000000000
F0010000009495800003000000871573200042505000000000000000000201611300002001ACCESORIAS ARQUITECTONI KJ                        C000000001000000000000000000000000100010010000000000000000000000F0010000009495800320161130000101 00000000000000000000000000000000000000000000000000000000000000000000000000000000000000000000000000000000000000000N 00000000000NCONT   00    00000000000          00000000000000000000000000000000000000000000 000000000000000A000000000000000000000000000000000000000000000 000000000000000000000000000000000000000     00000000                                                                                                                        000000000000000000
F0010000009495800004000000871573200023658300000000000000000201611300002001ACCESORIAS ARQUITECTONI KJ                        C000000000020800000000000000000000100010010000000000000000000000F0010000009495800420161130000101 00000000000000000000000000000000000000000000000000000000000000000000000000000000000000000000000000000000000000000N 00000000000NCONT   00    00000000000          00000000000000000000000000000000000000000000 000000000000000A000000000000000000000000000000000000000000000 000000000000000000000000000000000000000     00000000                                                                                                                        000000000000000000
F0010000009495800005000000871573200013552100000000000000000201611300002001ACCESORIAS ARQUITECTONI KJ                        D000000000020800000000000000000000100010010000000000000000000000F0010000009495800520161130000101 00000000000000000000000000000000000000000000000000000000000000000000000000000000000000000000000000000000000000000N 00000000000NCONT   00    00000000000          00000000000000000000000000000000000000000000 000000000000000A000000000000000000000000000000000000000000000 000000000000000000000000000000000000000     00000000                                                                                                                        000000000000000000
F0010000009495900001000003319910700011050500000000000000000201611300002001LUZ DARY JIMENEZ MARTINEZ                         D000000001100000000000000000000000100010010000000000000000000000F0010000009495900120161130000101 00000000000000000000000000000000000000000000000000000000000000000000000000000000000000000000000000000000000000000N 00000000000NCONT   00    00000000000          00000000000000000000000000000000000000000000 000000000000000A000000000000000000000000000000000000000000000 000000000000000000000000000000000000000     00000000                                                                                                                        000000000000000000
F0010000009495900002000003319910700041450500000000000000000201611300002001LUZ DARY JIMENEZ MARTINEZ                         C000000001000000000000000000000000100010010000000000000000000000F0010000009495900220161130000101 00000000000000000000000000000000000000000000000000000000000000000000000000000000000000000000000000000000000000000N 00000000000NCONT   00    00000000000          00000000000000000000000000000000000000000000 000000000000000A000000000000000000000000000000000000000000000 000000000000000000000000000000000000000     00000000                                                                                                                        000000000000000000
F0010000009495900003000003319910700042505000000000000000000201611300002001LUZ DARY JIMENEZ MARTINEZ                         C000000000100000000000000000000000100010010000000000000000000000F0010000009495900320161130000101 00000000000000000000000000000000000000000000000000000000000000000000000000000000000000000000000000000000000000000N 00000000000NCONT   00    00000000000          00000000000000000000000000000000000000000000 000000000000000A000000000000000000000000000000000000000000000 000000000000000000000000000000000000000     00000000                                                                                                                        000000000000000000
F0010000009495900004000003319910700023658300000000000000000201611300002001LUZ DARY JIMENEZ MARTINEZ                         C000000000008000000000000000000000100010010000000000000000000000F0010000009495900420161130000101 00000000000000000000000000000000000000000000000000000000000000000000000000000000000000000000000000000000000000000N 00000000000NCONT   00    00000000000          00000000000000000000000000000000000000000000 000000000000000A000000000000000000000000000000000000000000000 000000000000000000000000000000000000000     00000000                                                                                                                        000000000000000000
F0010000009495900005000003319910700013552100000000000000000201611300002001LUZ DARY JIMENEZ MARTINEZ                         D000000000008000000000000000000000100010010000000000000000000000F0010000009495900520161130000101 00000000000000000000000000000000000000000000000000000000000000000000000000000000000000000000000000000000000000000N 00000000000NCONT   00    00000000000          00000000000000000000000000000000000000000000 000000000000000A000000000000000000000000000000000000000000000 000000000000000000000000000000000000000     00000000                                                                                                                        000000000000000000
F0010000009496000001000089010038800011050500000000000000000201611300002001CRISTALERIA SELMAN SAS                            D000000005200000000000000000000000100010010000000000000000000000F0010000009496000120161130000101 00000000000000000000000000000000000000000000000000000000000000000000000000000000000000000000000000000000000000000N 00000000000NCONT   00    00000000000          00000000000000000000000000000000000000000000 000000000000000A000000000000000000000000000000000000000000000 000000000000000000000000000000000000000     00000000                                                                                                                        000000000000000000
F0010000009496000002000089010038800041450500000000000000000201611300002001CRISTALERIA SELMAN SAS                            C000000004000000000000000000000000100010010000000000000000000000F0010000009496000220161130000101 00000000000000000000000000000000000000000000000000000000000000000000000000000000000000000000000000000000000000000N 00000000000NCONT   00    00000000000          00000000000000000000000000000000000000000000 000000000000000A000000000000000000000000000000000000000000000 000000000000000000000000000000000000000     00000000                                                                                                                        000000000000000000
F0010000009496000003000089010038800042505000000000000000000201611300002001CRISTALERIA SELMAN SAS                            C000000001200000000000000000000000100010010000000000000000000000F0010000009496000320161130000101 00000000000000000000000000000000000000000000000000000000000000000000000000000000000000000000000000000000000000000N 00000000000NCONT   00    00000000000          00000000000000000000000000000000000000000000 000000000000000A000000000000000000000000000000000000000000000 000000000000000000000000000000000000000     00000000                                                                                                                        000000000000000000
F0010000009496000004000089010038800023658300000000000000000201611300002001CRISTALERIA SELMAN SAS                            C000000000032000000000000000000000100010010000000000000000000000F0010000009496000420161130000101 00000000000000000000000000000000000000000000000000000000000000000000000000000000000000000000000000000000000000000N 00000000000NCONT   00    00000000000          00000000000000000000000000000000000000000000 000000000000000A000000000000000000000000000000000000000000000 000000000000000000000000000000000000000     00000000                                                                                                                        000000000000000000
F0010000009496000005000089010038800013552100000000000000000201611300002001CRISTALERIA SELMAN SAS                            D000000000032000000000000000000000100010010000000000000000000000F0010000009496000520161130000101 00000000000000000000000000000000000000000000000000000000000000000000000000000000000000000000000000000000000000000N 00000000000NCONT   00    00000000000          00000000000000000000000000000000000000000000 000000000000000A000000000000000000000000000000000000000000000 000000000000000000000000000000000000000     00000000                                                                                                                        000000000000000000
F0010000009496100001000001022529300011050500000000000000000201611300002001ALBERTO ALVAREZ ISAZA                             D000000000700000000000000000000000100010010000000000000000000000F0010000009496100120161130000101 00000000000000000000000000000000000000000000000000000000000000000000000000000000000000000000000000000000000000000N 00000000000NCONT   00    00000000000          00000000000000000000000000000000000000000000 000000000000000A000000000000000000000000000000000000000000000 000000000000000000000000000000000000000     00000000                                                                                                                        000000000000000000
F0010000009496100002000001022529300041450500000000000000000201611300002001ALBERTO ALVAREZ ISAZA                             C000000000700000000000000000000000100010010000000000000000000000F0010000009496100220161130000101 00000000000000000000000000000000000000000000000000000000000000000000000000000000000000000000000000000000000000000N 00000000000NCONT   00    00000000000          00000000000000000000000000000000000000000000 000000000000000A000000000000000000000000000000000000000000000 000000000000000000000000000000000000000     00000000                                                                                                                        000000000000000000
F0010000009496100003000001022529300042505000000000000000000201611300002001ALBERTO ALVAREZ ISAZA                             C000000000000000000000000000000000100010010000000000000000000000F0010000009496100320161130000101 00000000000000000000000000000000000000000000000000000000000000000000000000000000000000000000000000000000000000000N 00000000000NCONT   00    00000000000          00000000000000000000000000000000000000000000 000000000000000A000000000000000000000000000000000000000000000 000000000000000000000000000000000000000     00000000                                                                                                                        000000000000000000
F0010000009496100004000001022529300023658300000000000000000201611300002001ALBERTO ALVAREZ ISAZA                             C000000000005600000000000000000000100010010000000000000000000000F0010000009496100420161130000101 00000000000000000000000000000000000000000000000000000000000000000000000000000000000000000000000000000000000000000N 00000000000NCONT   00    00000000000          00000000000000000000000000000000000000000000 000000000000000A000000000000000000000000000000000000000000000 000000000000000000000000000000000000000     00000000                                                                                                                        000000000000000000
F0010000009496100005000001022529300013552100000000000000000201611300002001ALBERTO ALVAREZ ISAZA                             D000000000005600000000000000000000100010010000000000000000000000F0010000009496100520161130000101 00000000000000000000000000000000000000000000000000000000000000000000000000000000000000000000000000000000000000000N 00000000000NCONT   00    00000000000          00000000000000000000000000000000000000000000 000000000000000A000000000000000000000000000000000000000000000 000000000000000000000000000000000000000     00000000                                                                                                                        000000000000000000
F0010000009496200001000001022529300011050500000000000000000201611300002001ALBERTO ALVAREZ ISAZA                             D000000000700000000000000000000000100010010000000000000000000000F0010000009496200120161130000101 00000000000000000000000000000000000000000000000000000000000000000000000000000000000000000000000000000000000000000N 00000000000NCONT   00    00000000000          00000000000000000000000000000000000000000000 000000000000000A000000000000000000000000000000000000000000000 000000000000000000000000000000000000000     00000000                                                                                                                        000000000000000000
F0010000009496200002000001022529300041450500000000000000000201611300002001ALBERTO ALVAREZ ISAZA                             C000000000700000000000000000000000100010010000000000000000000000F0010000009496200220161130000101 00000000000000000000000000000000000000000000000000000000000000000000000000000000000000000000000000000000000000000N 00000000000NCONT   00    00000000000          00000000000000000000000000000000000000000000 000000000000000A000000000000000000000000000000000000000000000 000000000000000000000000000000000000000     00000000                                                                                                                        000000000000000000
F0010000009496200003000001022529300042505000000000000000000201611300002001ALBERTO ALVAREZ ISAZA                             C000000000000000000000000000000000100010010000000000000000000000F0010000009496200320161130000101 00000000000000000000000000000000000000000000000000000000000000000000000000000000000000000000000000000000000000000N 00000000000NCONT   00    00000000000          00000000000000000000000000000000000000000000 000000000000000A000000000000000000000000000000000000000000000 000000000000000000000000000000000000000     00000000                                                                                                                        000000000000000000
F0010000009496200004000001022529300023658300000000000000000201611300002001ALBERTO ALVAREZ ISAZA                             C000000000005600000000000000000000100010010000000000000000000000F0010000009496200420161130000101 00000000000000000000000000000000000000000000000000000000000000000000000000000000000000000000000000000000000000000N 00000000000NCONT   00    00000000000          00000000000000000000000000000000000000000000 000000000000000A000000000000000000000000000000000000000000000 000000000000000000000000000000000000000     00000000                                                                                                                        000000000000000000
F0010000009496200005000001022529300013552100000000000000000201611300002001ALBERTO ALVAREZ ISAZA                             D000000000005600000000000000000000100010010000000000000000000000F0010000009496200520161130000101 00000000000000000000000000000000000000000000000000000000000000000000000000000000000000000000000000000000000000000N 00000000000NCONT   00    00000000000          00000000000000000000000000000000000000000000 000000000000000A000000000000000000000000000000000000000000000 000000000000000000000000000000000000000     00000000                                                                                                                        000000000000000000
F0010000009496300001000001022529300011050500000000000000000201611300002001ALBERTO ALVAREZ ISAZA                             D000000000700000000000000000000000100010010000000000000000000000F0010000009496300120161130000101 00000000000000000000000000000000000000000000000000000000000000000000000000000000000000000000000000000000000000000N 00000000000NCONT   00    00000000000          00000000000000000000000000000000000000000000 000000000000000A000000000000000000000000000000000000000000000 000000000000000000000000000000000000000     00000000                                                                                                                        000000000000000000
F0010000009496300002000001022529300041450500000000000000000201611300002001ALBERTO ALVAREZ ISAZA                             C000000000700000000000000000000000100010010000000000000000000000F0010000009496300220161130000101 00000000000000000000000000000000000000000000000000000000000000000000000000000000000000000000000000000000000000000N 00000000000NCONT   00    00000000000          00000000000000000000000000000000000000000000 000000000000000A000000000000000000000000000000000000000000000 000000000000000000000000000000000000000     00000000                                                                                                                        000000000000000000
F0010000009496300003000001022529300042505000000000000000000201611300002001ALBERTO ALVAREZ ISAZA                             C000000000000000000000000000000000100010010000000000000000000000F0010000009496300320161130000101 00000000000000000000000000000000000000000000000000000000000000000000000000000000000000000000000000000000000000000N 00000000000NCONT   00    00000000000          00000000000000000000000000000000000000000000 000000000000000A000000000000000000000000000000000000000000000 000000000000000000000000000000000000000     00000000                                                                                                                        000000000000000000
F0010000009496300004000001022529300023658300000000000000000201611300002001ALBERTO ALVAREZ ISAZA                             C000000000005600000000000000000000100010010000000000000000000000F0010000009496300420161130000101 00000000000000000000000000000000000000000000000000000000000000000000000000000000000000000000000000000000000000000N 00000000000NCONT   00    00000000000          00000000000000000000000000000000000000000000 000000000000000A000000000000000000000000000000000000000000000 000000000000000000000000000000000000000     00000000                                                                                                                        000000000000000000
F0010000009496300005000001022529300013552100000000000000000201611300002001ALBERTO ALVAREZ ISAZA                             D000000000005600000000000000000000100010010000000000000000000000F0010000009496300520161130000101 00000000000000000000000000000000000000000000000000000000000000000000000000000000000000000000000000000000000000000N 00000000000NCONT   00    00000000000          00000000000000000000000000000000000000000000 000000000000000A000000000000000000000000000000000000000000000 000000000000000000000000000000000000000     00000000                                                                                                                        000000000000000000
F0010000009496400001000001022529300011050500000000000000000201611300002001ALBERTO ALVAREZ ISAZA                             D000000000350000000000000000000000100010010000000000000000000000F0010000009496400120161130000101 00000000000000000000000000000000000000000000000000000000000000000000000000000000000000000000000000000000000000000N 00000000000NCONT   00    00000000000          00000000000000000000000000000000000000000000 000000000000000A000000000000000000000000000000000000000000000 000000000000000000000000000000000000000     00000000                                                                                                                        000000000000000000
F0010000009496400002000001022529300041450500000000000000000201611300002001ALBERTO ALVAREZ ISAZA                             C000000000350000000000000000000000100010010000000000000000000000F0010000009496400220161130000101 00000000000000000000000000000000000000000000000000000000000000000000000000000000000000000000000000000000000000000N 00000000000NCONT   00    00000000000          00000000000000000000000000000000000000000000 000000000000000A000000000000000000000000000000000000000000000 000000000000000000000000000000000000000     00000000                                                                                                                        000000000000000000
F0010000009496400003000001022529300042505000000000000000000201611300002001ALBERTO ALVAREZ ISAZA                             C000000000000000000000000000000000100010010000000000000000000000F0010000009496400320161130000101 00000000000000000000000000000000000000000000000000000000000000000000000000000000000000000000000000000000000000000N 00000000000NCONT   00    00000000000          00000000000000000000000000000000000000000000 000000000000000A000000000000000000000000000000000000000000000 000000000000000000000000000000000000000     00000000                                                                                                                        000000000000000000
F0010000009496400004000001022529300023658300000000000000000201611300002001ALBERTO ALVAREZ ISAZA                             C000000000002800000000000000000000100010010000000000000000000000F0010000009496400420161130000101 00000000000000000000000000000000000000000000000000000000000000000000000000000000000000000000000000000000000000000N 00000000000NCONT   00    00000000000          00000000000000000000000000000000000000000000 000000000000000A000000000000000000000000000000000000000000000 000000000000000000000000000000000000000     00000000                                                                                                                        000000000000000000
F0010000009496400005000001022529300013552100000000000000000201611300002001ALBERTO ALVAREZ ISAZA                             D000000000002800000000000000000000100010010000000000000000000000F0010000009496400520161130000101 00000000000000000000000000000000000000000000000000000000000000000000000000000000000000000000000000000000000000000N 00000000000NCONT   00    00000000000          00000000000000000000000000000000000000000000 000000000000000A000000000000000000000000000000000000000000000 000000000000000000000000000000000000000     00000000                                                                                                                        000000000000000000
F0010000009496500001000000431178400011050500000000000000000201611300002001EFRAIN ALVAREZ                                    D000000004950000000000000000000000100010010000000000000000000000F0010000009496500120161130000101 00000000000000000000000000000000000000000000000000000000000000000000000000000000000000000000000000000000000000000N 00000000000NCONT   00    00000000000          00000000000000000000000000000000000000000000 000000000000000A000000000000000000000000000000000000000000000 000000000000000000000000000000000000000     00000000                                                                                                                        000000000000000000
F0010000009496500002000000431178400041450500000000000000000201611300002001EFRAIN ALVAREZ                                    C000000004600000000000000000000000100010010000000000000000000000F0010000009496500220161130000101 00000000000000000000000000000000000000000000000000000000000000000000000000000000000000000000000000000000000000000N 00000000000NCONT   00    00000000000          00000000000000000000000000000000000000000000 000000000000000A000000000000000000000000000000000000000000000 000000000000000000000000000000000000000     00000000                                                                                                                        000000000000000000
F0010000009496500003000000431178400042505000000000000000000201611300002001EFRAIN ALVAREZ                                    C000000000350000000000000000000000100010010000000000000000000000F0010000009496500320161130000101 00000000000000000000000000000000000000000000000000000000000000000000000000000000000000000000000000000000000000000N 00000000000NCONT   00    00000000000          00000000000000000000000000000000000000000000 000000000000000A000000000000000000000000000000000000000000000 000000000000000000000000000000000000000     00000000                                                                                                                        000000000000000000
F0010000009496500004000000431178400023658300000000000000000201611300002001EFRAIN ALVAREZ                                    C000000000036800000000000000000000100010010000000000000000000000F0010000009496500420161130000101 00000000000000000000000000000000000000000000000000000000000000000000000000000000000000000000000000000000000000000N 00000000000NCONT   00    00000000000          00000000000000000000000000000000000000000000 000000000000000A000000000000000000000000000000000000000000000 000000000000000000000000000000000000000     00000000                                                                                                                        000000000000000000
F0010000009496500005000000431178400013552100000000000000000201611300002001EFRAIN ALVAREZ                                    D000000000036800000000000000000000100010010000000000000000000000F0010000009496500520161130000101 00000000000000000000000000000000000000000000000000000000000000000000000000000000000000000000000000000000000000000N 00000000000NCONT   00    00000000000          00000000000000000000000000000000000000000000 000000000000000A000000000000000000000000000000000000000000000 000000000000000000000000000000000000000     00000000                                                                                                                        000000000000000000
F0010000009496600001000000431178400011050500000000000000000201611300002001EFRAIN ALVAREZ                                    D000000002790000000000000000000000100010010000000000000000000000F0010000009496600120161130000101 00000000000000000000000000000000000000000000000000000000000000000000000000000000000000000000000000000000000000000N 00000000000NCONT   00    00000000000          00000000000000000000000000000000000000000000 000000000000000A000000000000000000000000000000000000000000000 000000000000000000000000000000000000000     00000000                                                                                                                        000000000000000000
F0010000009496600002000000431178400041450500000000000000000201611300002001EFRAIN ALVAREZ                                    C000000002540000000000000000000000100010010000000000000000000000F0010000009496600220161130000101 00000000000000000000000000000000000000000000000000000000000000000000000000000000000000000000000000000000000000000N 00000000000NCONT   00    00000000000          00000000000000000000000000000000000000000000 000000000000000A000000000000000000000000000000000000000000000 000000000000000000000000000000000000000     00000000                                                                                                                        000000000000000000
F0010000009496600003000000431178400042505000000000000000000201611300002001EFRAIN ALVAREZ                                    C000000000250000000000000000000000100010010000000000000000000000F0010000009496600320161130000101 00000000000000000000000000000000000000000000000000000000000000000000000000000000000000000000000000000000000000000N 00000000000NCONT   00    00000000000          00000000000000000000000000000000000000000000 000000000000000A000000000000000000000000000000000000000000000 000000000000000000000000000000000000000     00000000                                                                                                                        000000000000000000
F0010000009496600004000000431178400023658300000000000000000201611300002001EFRAIN ALVAREZ                                    C000000000020300000000000000000000100010010000000000000000000000F0010000009496600420161130000101 00000000000000000000000000000000000000000000000000000000000000000000000000000000000000000000000000000000000000000N 00000000000NCONT   00    00000000000          00000000000000000000000000000000000000000000 000000000000000A000000000000000000000000000000000000000000000 000000000000000000000000000000000000000     00000000                                                                                                                        000000000000000000
F0010000009496600005000000431178400013552100000000000000000201611300002001EFRAIN ALVAREZ                                    D000000000020300000000000000000000100010010000000000000000000000F0010000009496600520161130000101 00000000000000000000000000000000000000000000000000000000000000000000000000000000000000000000000000000000000000000N 00000000000NCONT   00    00000000000          00000000000000000000000000000000000000000000 000000000000000A000000000000000000000000000000000000000000000 000000000000000000000000000000000000000     00000000                                                                                                                        000000000000000000
F0010000009496700001000000431178400011050500000000000000000201611300002001EFRAIN ALVAREZ                                    D000000008530000000000000000000000100010010000000000000000000000F0010000009496700120161130000101 00000000000000000000000000000000000000000000000000000000000000000000000000000000000000000000000000000000000000000N 00000000000NCONT   00    00000000000          00000000000000000000000000000000000000000000 000000000000000A000000000000000000000000000000000000000000000 000000000000000000000000000000000000000     00000000                                                                                                                        000000000000000000
F0010000009496700002000000431178400041450500000000000000000201611300002001EFRAIN ALVAREZ                                    C000000008280000000000000000000000100010010000000000000000000000F0010000009496700220161130000101 00000000000000000000000000000000000000000000000000000000000000000000000000000000000000000000000000000000000000000N 00000000000NCONT   00    00000000000          00000000000000000000000000000000000000000000 000000000000000A000000000000000000000000000000000000000000000 000000000000000000000000000000000000000     00000000                                                                                                                        000000000000000000
F0010000009496700003000000431178400042505000000000000000000201611300002001EFRAIN ALVAREZ                                    C000000000250000000000000000000000100010010000000000000000000000F0010000009496700320161130000101 00000000000000000000000000000000000000000000000000000000000000000000000000000000000000000000000000000000000000000N 00000000000NCONT   00    00000000000          00000000000000000000000000000000000000000000 000000000000000A000000000000000000000000000000000000000000000 000000000000000000000000000000000000000     00000000                                                                                                                        000000000000000000
F0010000009496700004000000431178400023658300000000000000000201611300002001EFRAIN ALVAREZ                                    C000000000066200000000000000000000100010010000000000000000000000F0010000009496700420161130000101 00000000000000000000000000000000000000000000000000000000000000000000000000000000000000000000000000000000000000000N 00000000000NCONT   00    00000000000          00000000000000000000000000000000000000000000 000000000000000A000000000000000000000000000000000000000000000 000000000000000000000000000000000000000     00000000                                                                                                                        000000000000000000
F0010000009496700005000000431178400013552100000000000000000201611300002001EFRAIN ALVAREZ                                    D000000000066200000000000000000000100010010000000000000000000000F0010000009496700520161130000101 00000000000000000000000000000000000000000000000000000000000000000000000000000000000000000000000000000000000000000N 00000000000NCONT   00    00000000000          00000000000000000000000000000000000000000000 000000000000000A000000000000000000000000000000000000000000000 000000000000000000000000000000000000000     00000000                                                                                                                        000000000000000000
F0010000009496800001000000431178400011050500000000000000000201611300002001EFRAIN ALVAREZ                                    D000000001370000000000000000000000100010010000000000000000000000F0010000009496800120161130000101 00000000000000000000000000000000000000000000000000000000000000000000000000000000000000000000000000000000000000000N 00000000000NCONT   00    00000000000          00000000000000000000000000000000000000000000 000000000000000A000000000000000000000000000000000000000000000 000000000000000000000000000000000000000     00000000                                                                                                                        000000000000000000
F0010000009496800002000000431178400041450500000000000000000201611300002001EFRAIN ALVAREZ                                    C000000001270000000000000000000000100010010000000000000000000000F0010000009496800220161130000101 00000000000000000000000000000000000000000000000000000000000000000000000000000000000000000000000000000000000000000N 00000000000NCONT   00    00000000000          00000000000000000000000000000000000000000000 000000000000000A000000000000000000000000000000000000000000000 000000000000000000000000000000000000000     00000000                                                                                                                        000000000000000000
F0010000009496800003000000431178400042505000000000000000000201611300002001EFRAIN ALVAREZ                                    C000000000100000000000000000000000100010010000000000000000000000F0010000009496800320161130000101 00000000000000000000000000000000000000000000000000000000000000000000000000000000000000000000000000000000000000000N 00000000000NCONT   00    00000000000          00000000000000000000000000000000000000000000 000000000000000A000000000000000000000000000000000000000000000 000000000000000000000000000000000000000     00000000                                                                                                                        000000000000000000
F0010000009496800004000000431178400023658300000000000000000201611300002001EFRAIN ALVAREZ                                    C000000000010200000000000000000000100010010000000000000000000000F0010000009496800420161130000101 00000000000000000000000000000000000000000000000000000000000000000000000000000000000000000000000000000000000000000N 00000000000NCONT   00    00000000000          00000000000000000000000000000000000000000000 000000000000000A000000000000000000000000000000000000000000000 000000000000000000000000000000000000000     00000000                                                                                                                        000000000000000000
F0010000009496800005000000431178400013552100000000000000000201611300002001EFRAIN ALVAREZ                                    D000000000010200000000000000000000100010010000000000000000000000F0010000009496800520161130000101 00000000000000000000000000000000000000000000000000000000000000000000000000000000000000000000000000000000000000000N 00000000000NCONT   00    00000000000          00000000000000000000000000000000000000000000 000000000000000A000000000000000000000000000000000000000000000 000000000000000000000000000000000000000     00000000                                                                                                                        000000000000000000
F0010000009496900001000090050144800011050500000000000000000201611300002001PLASTICOS JR ASOCIADOS SAS                        D000000002300000000000000000000000100010010000000000000000000000F0010000009496900120161130000101 00000000000000000000000000000000000000000000000000000000000000000000000000000000000000000000000000000000000000000N 00000000000NCONT   00    00000000000          00000000000000000000000000000000000000000000 000000000000000A000000000000000000000000000000000000000000000 000000000000000000000000000000000000000     00000000                                                                                                                        000000000000000000
F0010000009496900002000090050144800041450500000000000000000201611300002001PLASTICOS JR ASOCIADOS SAS                        C000000002000000000000000000000000100010010000000000000000000000F0010000009496900220161130000101 00000000000000000000000000000000000000000000000000000000000000000000000000000000000000000000000000000000000000000N 00000000000NCONT   00    00000000000          00000000000000000000000000000000000000000000 000000000000000A000000000000000000000000000000000000000000000 000000000000000000000000000000000000000     00000000                                                                                                                        000000000000000000
