F0010000006755000001000081103890600011050500000000000000000201501290002001TERSA COSMETICOS                                  D000000004300000000000000000000000100010010000000000000000000000F0010000006755000120150129000101 00000000000000000000000000000000000000000000000000000000000000000000000000000000000000000000000000000000000000000N 00000000000NCONT   00    00000000000          00000000000000000000000000000000000000000000 000000000000000A000000000000000000000000000000000000000000000 000000000000000000000000000000000000000     00000000                                                                                                                        000000000000000000
F0010000006755000002000081103890600041450500000000000000000201501290002001TERSA COSMETICOS                                  C000000003600000000000000000000000100010010000000000000000000000F0010000006755000220150129000101 00000000000000000000000000000000000000000000000000000000000000000000000000000000000000000000000000000000000000000N 00000000000NCONT   00    00000000000          00000000000000000000000000000000000000000000 000000000000000A000000000000000000000000000000000000000000000 000000000000000000000000000000000000000     00000000                                                                                                                        000000000000000000
F0010000006755000003000081103890600042505000000000000000000201501290002001TERSA COSMETICOS                                  C000000000700000000000000000000000100010010000000000000000000000F0010000006755000320150129000101 00000000000000000000000000000000000000000000000000000000000000000000000000000000000000000000000000000000000000000N 00000000000NCONT   00    00000000000          00000000000000000000000000000000000000000000 000000000000000A000000000000000000000000000000000000000000000 000000000000000000000000000000000000000     00000000                                                                                                                        000000000000000000
F0010000006755000004000081103890600023658300000000000000000201501290002001TERSA COSMETICOS                                  C000000000028800000000000000000000100010010000000000000000000000F0010000006755000420150129000101 00000000000000000000000000000000000000000000000000000000000000000000000000000000000000000000000000000000000000000N 00000000000NCONT   00    00000000000          00000000000000000000000000000000000000000000 000000000000000A000000000000000000000000000000000000000000000 000000000000000000000000000000000000000     00000000                                                                                                                        000000000000000000
F0010000006755000005000081103890600013552100000000000000000201501290002001TERSA COSMETICOS                                  D000000000028800000000000000000000100010010000000000000000000000F0010000006755000520150129000101 00000000000000000000000000000000000000000000000000000000000000000000000000000000000000000000000000000000000000000N 00000000000NCONT   00    00000000000          00000000000000000000000000000000000000000000 000000000000000A000000000000000000000000000000000000000000000 000000000000000000000000000000000000000     00000000                                                                                                                        000000000000000000
F0010000006755100001000007225583900011050500000000000000000201501290002001JORGE LUIS NIÑO BLANCO                           D000000003000000000000000000000000100010010000000000000000000000F0010000006755100120150129000101 00000000000000000000000000000000000000000000000000000000000000000000000000000000000000000000000000000000000000000N 00000000000NCONT   00    00000000000          00000000000000000000000000000000000000000000 000000000000000A000000000000000000000000000000000000000000000 000000000000000000000000000000000000000     00000000                                                                                                                        000000000000000000
F0010000006755100002000007225583900041450500000000000000000201501290002001JORGE LUIS NIÑO BLANCO                           C000000002900000000000000000000000100010010000000000000000000000F0010000006755100220150129000101 00000000000000000000000000000000000000000000000000000000000000000000000000000000000000000000000000000000000000000N 00000000000NCONT   00    00000000000          00000000000000000000000000000000000000000000 000000000000000A000000000000000000000000000000000000000000000 000000000000000000000000000000000000000     00000000                                                                                                                        000000000000000000
F0010000006755100003000007225583900042505000000000000000000201501290002001JORGE LUIS NIÑO BLANCO                           C000000000100000000000000000000000100010010000000000000000000000F0010000006755100320150129000101 00000000000000000000000000000000000000000000000000000000000000000000000000000000000000000000000000000000000000000N 00000000000NCONT   00    00000000000          00000000000000000000000000000000000000000000 000000000000000A000000000000000000000000000000000000000000000 000000000000000000000000000000000000000     00000000                                                                                                                        000000000000000000
F0010000006755100004000007225583900023658300000000000000000201501290002001JORGE LUIS NIÑO BLANCO                           C000000000023200000000000000000000100010010000000000000000000000F0010000006755100420150129000101 00000000000000000000000000000000000000000000000000000000000000000000000000000000000000000000000000000000000000000N 00000000000NCONT   00    00000000000          00000000000000000000000000000000000000000000 000000000000000A000000000000000000000000000000000000000000000 000000000000000000000000000000000000000     00000000                                                                                                                        000000000000000000
F0010000006755100005000007225583900013552100000000000000000201501290002001JORGE LUIS NIÑO BLANCO                           D000000000023200000000000000000000100010010000000000000000000000F0010000006755100520150129000101 00000000000000000000000000000000000000000000000000000000000000000000000000000000000000000000000000000000000000000N 00000000000NCONT   00    00000000000          00000000000000000000000000000000000000000000 000000000000000A000000000000000000000000000000000000000000000 000000000000000000000000000000000000000     00000000                                                                                                                        000000000000000000
F0010000006755200001000000745492100011050500000000000000000201501290002001DARIO CABARCAS ..                                 D000000002200000000000000000000000100010010000000000000000000000F0010000006755200120150129000101 00000000000000000000000000000000000000000000000000000000000000000000000000000000000000000000000000000000000000000N 00000000000NCONT   00    00000000000          00000000000000000000000000000000000000000000 000000000000000A000000000000000000000000000000000000000000000 000000000000000000000000000000000000000     00000000                                                                                                                        000000000000000000
F0010000006755200002000000745492100041450500000000000000000201501290002001DARIO CABARCAS ..                                 C000000002000000000000000000000000100010010000000000000000000000F0010000006755200220150129000101 00000000000000000000000000000000000000000000000000000000000000000000000000000000000000000000000000000000000000000N 00000000000NCONT   00    00000000000          00000000000000000000000000000000000000000000 000000000000000A000000000000000000000000000000000000000000000 000000000000000000000000000000000000000     00000000                                                                                                                        000000000000000000
F0010000006755200003000000745492100042505000000000000000000201501290002001DARIO CABARCAS ..                                 C000000000200000000000000000000000100010010000000000000000000000F0010000006755200320150129000101 00000000000000000000000000000000000000000000000000000000000000000000000000000000000000000000000000000000000000000N 00000000000NCONT   00    00000000000          00000000000000000000000000000000000000000000 000000000000000A000000000000000000000000000000000000000000000 000000000000000000000000000000000000000     00000000                                                                                                                        000000000000000000
F0010000006755200004000000745492100023658300000000000000000201501290002001DARIO CABARCAS ..                                 C000000000016000000000000000000000100010010000000000000000000000F0010000006755200420150129000101 00000000000000000000000000000000000000000000000000000000000000000000000000000000000000000000000000000000000000000N 00000000000NCONT   00    00000000000          00000000000000000000000000000000000000000000 000000000000000A000000000000000000000000000000000000000000000 000000000000000000000000000000000000000     00000000                                                                                                                        000000000000000000
F0010000006755200005000000745492100013552100000000000000000201501290002001DARIO CABARCAS ..                                 D000000000016000000000000000000000100010010000000000000000000000F0010000006755200520150129000101 00000000000000000000000000000000000000000000000000000000000000000000000000000000000000000000000000000000000000000N 00000000000NCONT   00    00000000000          00000000000000000000000000000000000000000000 000000000000000A000000000000000000000000000000000000000000000 000000000000000000000000000000000000000     00000000                                                                                                                        000000000000000000
F0010000006755300001000090027500500011050500000000000000000201501290002001MULTIALUMINIOS LA 30 SAS                          D000000018091500000000000000000000100010010000000000000000000000F0010000006755300120150129000101 00000000000000000000000000000000000000000000000000000000000000000000000000000000000000000000000000000000000000000N 00000000000NCONT   00    00000000000          00000000000000000000000000000000000000000000 000000000000000A000000000000000000000000000000000000000000000 000000000000000000000000000000000000000     00000000                                                                                                                        000000000000000000
F0010000006755300002000090027500500041450500000000000000000201501290002001MULTIALUMINIOS LA 30 SAS                          C000000015250000000000000000000000100010010000000000000000000000F0010000006755300220150129000101 00000000000000000000000000000000000000000000000000000000000000000000000000000000000000000000000000000000000000000N 00000000000NCONT   00    00000000000          00000000000000000000000000000000000000000000 000000000000000A000000000000000000000000000000000000000000000 000000000000000000000000000000000000000     00000000                                                                                                                        000000000000000000
F0010000006755300003000090027500500042505000000000000000000201501290002001MULTIALUMINIOS LA 30 SAS                          C000000002841500000000000000000000100010010000000000000000000000F0010000006755300320150129000101 00000000000000000000000000000000000000000000000000000000000000000000000000000000000000000000000000000000000000000N 00000000000NCONT   00    00000000000          00000000000000000000000000000000000000000000 000000000000000A000000000000000000000000000000000000000000000 000000000000000000000000000000000000000     00000000                                                                                                                        000000000000000000
F0010000006755300004000090027500500023658300000000000000000201501290002001MULTIALUMINIOS LA 30 SAS                          C000000000122000000000000000000000100010010000000000000000000000F0010000006755300420150129000101 00000000000000000000000000000000000000000000000000000000000000000000000000000000000000000000000000000000000000000N 00000000000NCONT   00    00000000000          00000000000000000000000000000000000000000000 000000000000000A000000000000000000000000000000000000000000000 000000000000000000000000000000000000000     00000000                                                                                                                        000000000000000000
F0010000006755300005000090027500500013552100000000000000000201501290002001MULTIALUMINIOS LA 30 SAS                          D000000000122000000000000000000000100010010000000000000000000000F0010000006755300520150129000101 00000000000000000000000000000000000000000000000000000000000000000000000000000000000000000000000000000000000000000N 00000000000NCONT   00    00000000000          00000000000000000000000000000000000000000000 000000000000000A000000000000000000000000000000000000000000000 000000000000000000000000000000000000000     00000000                                                                                                                        000000000000000000
F0010000006755400001000000871745700011050500000000000000000201501290002001JOEL MARIN R                                      D000000004500000000000000000000000100010010000000000000000000000F0010000006755400120150129000101 00000000000000000000000000000000000000000000000000000000000000000000000000000000000000000000000000000000000000000N 00000000000NCONT   00    00000000000          00000000000000000000000000000000000000000000 000000000000000A000000000000000000000000000000000000000000000 000000000000000000000000000000000000000     00000000                                                                                                                        000000000000000000
F0010000006755400002000000871745700041450500000000000000000201501290002001JOEL MARIN R                                      C000000003000000000000000000000000100010010000000000000000000000F0010000006755400220150129000101 00000000000000000000000000000000000000000000000000000000000000000000000000000000000000000000000000000000000000000N 00000000000NCONT   00    00000000000          00000000000000000000000000000000000000000000 000000000000000A000000000000000000000000000000000000000000000 000000000000000000000000000000000000000     00000000                                                                                                                        000000000000000000
F0010000006755400003000000871745700042505000000000000000000201501290002001JOEL MARIN R                                      C000000001500000000000000000000000100010010000000000000000000000F0010000006755400320150129000101 00000000000000000000000000000000000000000000000000000000000000000000000000000000000000000000000000000000000000000N 00000000000NCONT   00    00000000000          00000000000000000000000000000000000000000000 000000000000000A000000000000000000000000000000000000000000000 000000000000000000000000000000000000000     00000000                                                                                                                        000000000000000000
F0010000006755400004000000871745700023658300000000000000000201501290002001JOEL MARIN R                                      C000000000024000000000000000000000100010010000000000000000000000F0010000006755400420150129000101 00000000000000000000000000000000000000000000000000000000000000000000000000000000000000000000000000000000000000000N 00000000000NCONT   00    00000000000          00000000000000000000000000000000000000000000 000000000000000A000000000000000000000000000000000000000000000 000000000000000000000000000000000000000     00000000                                                                                                                        000000000000000000
F0010000006755400005000000871745700013552100000000000000000201501290002001JOEL MARIN R                                      D000000000024000000000000000000000100010010000000000000000000000F0010000006755400520150129000101 00000000000000000000000000000000000000000000000000000000000000000000000000000000000000000000000000000000000000000N 00000000000NCONT   00    00000000000          00000000000000000000000000000000000000000000 000000000000000A000000000000000000000000000000000000000000000 000000000000000000000000000000000000000     00000000                                                                                                                        000000000000000000
F0010000006755500001000090080946500011050500000000000000000201501290002001INVERSINES AFAP SAS                               D000000002900000000000000000000000100010010000000000000000000000F0010000006755500120150129000101 00000000000000000000000000000000000000000000000000000000000000000000000000000000000000000000000000000000000000000N 00000000000NCONT   00    00000000000          00000000000000000000000000000000000000000000 000000000000000A000000000000000000000000000000000000000000000 000000000000000000000000000000000000000     00000000                                                                                                                        000000000000000000
F0010000006755500002000090080946500041450500000000000000000201501290002001INVERSINES AFAP SAS                               C000000002600000000000000000000000100010010000000000000000000000F0010000006755500220150129000101 00000000000000000000000000000000000000000000000000000000000000000000000000000000000000000000000000000000000000000N 00000000000NCONT   00    00000000000          00000000000000000000000000000000000000000000 000000000000000A000000000000000000000000000000000000000000000 000000000000000000000000000000000000000     00000000                                                                                                                        000000000000000000
F0010000006755500003000090080946500042505000000000000000000201501290002001INVERSINES AFAP SAS                               C000000000300000000000000000000000100010010000000000000000000000F0010000006755500320150129000101 00000000000000000000000000000000000000000000000000000000000000000000000000000000000000000000000000000000000000000N 00000000000NCONT   00    00000000000          00000000000000000000000000000000000000000000 000000000000000A000000000000000000000000000000000000000000000 000000000000000000000000000000000000000     00000000                                                                                                                        000000000000000000
F0010000006755500004000090080946500023658300000000000000000201501290002001INVERSINES AFAP SAS                               C000000000020800000000000000000000100010010000000000000000000000F0010000006755500420150129000101 00000000000000000000000000000000000000000000000000000000000000000000000000000000000000000000000000000000000000000N 00000000000NCONT   00    00000000000          00000000000000000000000000000000000000000000 000000000000000A000000000000000000000000000000000000000000000 000000000000000000000000000000000000000     00000000                                                                                                                        000000000000000000
F0010000006755500005000090080946500013552100000000000000000201501290002001INVERSINES AFAP SAS                               D000000000020800000000000000000000100010010000000000000000000000F0010000006755500520150129000101 00000000000000000000000000000000000000000000000000000000000000000000000000000000000000000000000000000000000000000N 00000000000NCONT   00    00000000000          00000000000000000000000000000000000000000000 000000000000000A000000000000000000000000000000000000000000000 000000000000000000000000000000000000000     00000000                                                                                                                        000000000000000000
F0010000006755600001000090080946500011050500000000000000000201501290002001INVERSINES AFAP SAS                               D000000004200000000000000000000000100010010000000000000000000000F0010000006755600120150129000101 00000000000000000000000000000000000000000000000000000000000000000000000000000000000000000000000000000000000000000N 00000000000NCONT   00    00000000000          00000000000000000000000000000000000000000000 000000000000000A000000000000000000000000000000000000000000000 000000000000000000000000000000000000000     00000000                                                                                                                        000000000000000000
F0010000006755600002000090080946500041450500000000000000000201501290002001INVERSINES AFAP SAS                               C000000003450000000000000000000000100010010000000000000000000000F0010000006755600220150129000101 00000000000000000000000000000000000000000000000000000000000000000000000000000000000000000000000000000000000000000N 00000000000NCONT   00    00000000000          00000000000000000000000000000000000000000000 000000000000000A000000000000000000000000000000000000000000000 000000000000000000000000000000000000000     00000000                                                                                                                        000000000000000000
F0010000006755600003000090080946500042505000000000000000000201501290002001INVERSINES AFAP SAS                               C000000000750000000000000000000000100010010000000000000000000000F0010000006755600320150129000101 00000000000000000000000000000000000000000000000000000000000000000000000000000000000000000000000000000000000000000N 00000000000NCONT   00    00000000000          00000000000000000000000000000000000000000000 000000000000000A000000000000000000000000000000000000000000000 000000000000000000000000000000000000000     00000000                                                                                                                        000000000000000000
F0010000006755600004000090080946500023658300000000000000000201501290002001INVERSINES AFAP SAS                               C000000000027600000000000000000000100010010000000000000000000000F0010000006755600420150129000101 00000000000000000000000000000000000000000000000000000000000000000000000000000000000000000000000000000000000000000N 00000000000NCONT   00    00000000000          00000000000000000000000000000000000000000000 000000000000000A000000000000000000000000000000000000000000000 000000000000000000000000000000000000000     00000000                                                                                                                        000000000000000000
F0010000006755600005000090080946500013552100000000000000000201501290002001INVERSINES AFAP SAS                               D000000000027600000000000000000000100010010000000000000000000000F0010000006755600520150129000101 00000000000000000000000000000000000000000000000000000000000000000000000000000000000000000000000000000000000000000N 00000000000NCONT   00    00000000000          00000000000000000000000000000000000000000000 000000000000000A000000000000000000000000000000000000000000000 000000000000000000000000000000000000000     00000000                                                                                                                        000000000000000000
F0010000006755700001000090080946500011050500000000000000000201501290002001INVERSINES AFAP SAS                               D000000003500000000000000000000000100010010000000000000000000000F0010000006755700120150129000101 00000000000000000000000000000000000000000000000000000000000000000000000000000000000000000000000000000000000000000N 00000000000NCONT   00    00000000000          00000000000000000000000000000000000000000000 000000000000000A000000000000000000000000000000000000000000000 000000000000000000000000000000000000000     00000000                                                                                                                        000000000000000000
F0010000006755700002000090080946500041450500000000000000000201501290002001INVERSINES AFAP SAS                               C000000003250000000000000000000000100010010000000000000000000000F0010000006755700220150129000101 00000000000000000000000000000000000000000000000000000000000000000000000000000000000000000000000000000000000000000N 00000000000NCONT   00    00000000000          00000000000000000000000000000000000000000000 000000000000000A000000000000000000000000000000000000000000000 000000000000000000000000000000000000000     00000000                                                                                                                        000000000000000000
F0010000006755700003000090080946500042505000000000000000000201501290002001INVERSINES AFAP SAS                               C000000000250000000000000000000000100010010000000000000000000000F0010000006755700320150129000101 00000000000000000000000000000000000000000000000000000000000000000000000000000000000000000000000000000000000000000N 00000000000NCONT   00    00000000000          00000000000000000000000000000000000000000000 000000000000000A000000000000000000000000000000000000000000000 000000000000000000000000000000000000000     00000000                                                                                                                        000000000000000000
F0010000006755700004000090080946500023658300000000000000000201501290002001INVERSINES AFAP SAS                               C000000000026000000000000000000000100010010000000000000000000000F0010000006755700420150129000101 00000000000000000000000000000000000000000000000000000000000000000000000000000000000000000000000000000000000000000N 00000000000NCONT   00    00000000000          00000000000000000000000000000000000000000000 000000000000000A000000000000000000000000000000000000000000000 000000000000000000000000000000000000000     00000000                                                                                                                        000000000000000000
F0010000006755700005000090080946500013552100000000000000000201501290002001INVERSINES AFAP SAS                               D000000000026000000000000000000000100010010000000000000000000000F0010000006755700520150129000101 00000000000000000000000000000000000000000000000000000000000000000000000000000000000000000000000000000000000000000N 00000000000NCONT   00    00000000000          00000000000000000000000000000000000000000000 000000000000000A000000000000000000000000000000000000000000000 000000000000000000000000000000000000000     00000000                                                                                                                        000000000000000000
F0010000006755800001000005525050200011050500000000000000000201501290002001PLASTICOS  DE LA COSTA                            D000000002960000000000000000000000100010010000000000000000000000F0010000006755800120150129000101 00000000000000000000000000000000000000000000000000000000000000000000000000000000000000000000000000000000000000000N 00000000000NCONT   00    00000000000          00000000000000000000000000000000000000000000 000000000000000A000000000000000000000000000000000000000000000 000000000000000000000000000000000000000     00000000                                                                                                                        000000000000000000
F0010000006755800002000005525050200041450500000000000000000201501290002001PLASTICOS  DE LA COSTA                            C000000002860000000000000000000000100010010000000000000000000000F0010000006755800220150129000101 00000000000000000000000000000000000000000000000000000000000000000000000000000000000000000000000000000000000000000N 00000000000NCONT   00    00000000000          00000000000000000000000000000000000000000000 000000000000000A000000000000000000000000000000000000000000000 000000000000000000000000000000000000000     00000000                                                                                                                        000000000000000000
F0010000006755800003000005525050200042505000000000000000000201501290002001PLASTICOS  DE LA COSTA                            C000000000100000000000000000000000100010010000000000000000000000F0010000006755800320150129000101 00000000000000000000000000000000000000000000000000000000000000000000000000000000000000000000000000000000000000000N 00000000000NCONT   00    00000000000          00000000000000000000000000000000000000000000 000000000000000A000000000000000000000000000000000000000000000 000000000000000000000000000000000000000     00000000                                                                                                                        000000000000000000
F0010000006755800004000005525050200023658300000000000000000201501290002001PLASTICOS  DE LA COSTA                            C000000000022900000000000000000000100010010000000000000000000000F0010000006755800420150129000101 00000000000000000000000000000000000000000000000000000000000000000000000000000000000000000000000000000000000000000N 00000000000NCONT   00    00000000000          00000000000000000000000000000000000000000000 000000000000000A000000000000000000000000000000000000000000000 000000000000000000000000000000000000000     00000000                                                                                                                        000000000000000000
F0010000006755800005000005525050200013552100000000000000000201501290002001PLASTICOS  DE LA COSTA                            D000000000022900000000000000000000100010010000000000000000000000F0010000006755800520150129000101 00000000000000000000000000000000000000000000000000000000000000000000000000000000000000000000000000000000000000000N 00000000000NCONT   00    00000000000          00000000000000000000000000000000000000000000 000000000000000A000000000000000000000000000000000000000000000 000000000000000000000000000000000000000     00000000                                                                                                                        000000000000000000
F0010000006755900001000001535146600011050500000000000000000201501290002001ORLANDO OROZCO NAVARRO                            D000000006500000000000000000000000100010010000000000000000000000F0010000006755900120150129000101 00000000000000000000000000000000000000000000000000000000000000000000000000000000000000000000000000000000000000000N 00000000000NCONT   00    00000000000          00000000000000000000000000000000000000000000 000000000000000A000000000000000000000000000000000000000000000 000000000000000000000000000000000000000     00000000                                                                                                                        000000000000000000
F0010000006755900002000001535146600041450500000000000000000201501290002001ORLANDO OROZCO NAVARRO                            C000000006400000000000000000000000100010010000000000000000000000F0010000006755900220150129000101 00000000000000000000000000000000000000000000000000000000000000000000000000000000000000000000000000000000000000000N 00000000000NCONT   00    00000000000          00000000000000000000000000000000000000000000 000000000000000A000000000000000000000000000000000000000000000 000000000000000000000000000000000000000     00000000                                                                                                                        000000000000000000
F0010000006755900003000001535146600042505000000000000000000201501290002001ORLANDO OROZCO NAVARRO                            C000000000100000000000000000000000100010010000000000000000000000F0010000006755900320150129000101 00000000000000000000000000000000000000000000000000000000000000000000000000000000000000000000000000000000000000000N 00000000000NCONT   00    00000000000          00000000000000000000000000000000000000000000 000000000000000A000000000000000000000000000000000000000000000 000000000000000000000000000000000000000     00000000                                                                                                                        000000000000000000
F0010000006755900004000001535146600023658300000000000000000201501290002001ORLANDO OROZCO NAVARRO                            C000000000051200000000000000000000100010010000000000000000000000F0010000006755900420150129000101 00000000000000000000000000000000000000000000000000000000000000000000000000000000000000000000000000000000000000000N 00000000000NCONT   00    00000000000          00000000000000000000000000000000000000000000 000000000000000A000000000000000000000000000000000000000000000 000000000000000000000000000000000000000     00000000                                                                                                                        000000000000000000
F0010000006755900005000001535146600013552100000000000000000201501290002001ORLANDO OROZCO NAVARRO                            D000000000051200000000000000000000100010010000000000000000000000F0010000006755900520150129000101 00000000000000000000000000000000000000000000000000000000000000000000000000000000000000000000000000000000000000000N 00000000000NCONT   00    00000000000          00000000000000000000000000000000000000000000 000000000000000A000000000000000000000000000000000000000000000 000000000000000000000000000000000000000     00000000                                                                                                                        000000000000000000
F0010000006756000001000003319910700011050500000000000000000201501290002001LUZ DARY JIMENEZ MARTINEZ                         D000000001100000000000000000000000100010010000000000000000000000F0010000006756000120150129000101 00000000000000000000000000000000000000000000000000000000000000000000000000000000000000000000000000000000000000000N 00000000000NCONT   00    00000000000          00000000000000000000000000000000000000000000 000000000000000A000000000000000000000000000000000000000000000 000000000000000000000000000000000000000     00000000                                                                                                                        000000000000000000
F0010000006756000002000003319910700041450500000000000000000201501290002001LUZ DARY JIMENEZ MARTINEZ                         C000000001000000000000000000000000100010010000000000000000000000F0010000006756000220150129000101 00000000000000000000000000000000000000000000000000000000000000000000000000000000000000000000000000000000000000000N 00000000000NCONT   00    00000000000          00000000000000000000000000000000000000000000 000000000000000A000000000000000000000000000000000000000000000 000000000000000000000000000000000000000     00000000                                                                                                                        000000000000000000
F0010000006756000003000003319910700042505000000000000000000201501290002001LUZ DARY JIMENEZ MARTINEZ                         C000000000100000000000000000000000100010010000000000000000000000F0010000006756000320150129000101 00000000000000000000000000000000000000000000000000000000000000000000000000000000000000000000000000000000000000000N 00000000000NCONT   00    00000000000          00000000000000000000000000000000000000000000 000000000000000A000000000000000000000000000000000000000000000 000000000000000000000000000000000000000     00000000                                                                                                                        000000000000000000
F0010000006756000004000003319910700023658300000000000000000201501290002001LUZ DARY JIMENEZ MARTINEZ                         C000000000008000000000000000000000100010010000000000000000000000F0010000006756000420150129000101 00000000000000000000000000000000000000000000000000000000000000000000000000000000000000000000000000000000000000000N 00000000000NCONT   00    00000000000          00000000000000000000000000000000000000000000 000000000000000A000000000000000000000000000000000000000000000 000000000000000000000000000000000000000     00000000                                                                                                                        000000000000000000
F0010000006756000005000003319910700013552100000000000000000201501290002001LUZ DARY JIMENEZ MARTINEZ                         D000000000008000000000000000000000100010010000000000000000000000F0010000006756000520150129000101 00000000000000000000000000000000000000000000000000000000000000000000000000000000000000000000000000000000000000000N 00000000000NCONT   00    00000000000          00000000000000000000000000000000000000000000 000000000000000A000000000000000000000000000000000000000000000 000000000000000000000000000000000000000     00000000                                                                                                                        000000000000000000
F0010000006756100001000002245670100011050500000000000000000201501290002001YOLANDA  TOBON                                    D000000001570000000000000000000000100010010000000000000000000000F0010000006756100120150129000101 00000000000000000000000000000000000000000000000000000000000000000000000000000000000000000000000000000000000000000N 00000000000NCONT   00    00000000000          00000000000000000000000000000000000000000000 000000000000000A000000000000000000000000000000000000000000000 000000000000000000000000000000000000000     00000000                                                                                                                        000000000000000000
F0010000006756100002000002245670100041450500000000000000000201501290002001YOLANDA  TOBON                                    C000000001300000000000000000000000100010010000000000000000000000F0010000006756100220150129000101 00000000000000000000000000000000000000000000000000000000000000000000000000000000000000000000000000000000000000000N 00000000000NCONT   00    00000000000          00000000000000000000000000000000000000000000 000000000000000A000000000000000000000000000000000000000000000 000000000000000000000000000000000000000     00000000                                                                                                                        000000000000000000
F0010000006756100003000002245670100042505000000000000000000201501290002001YOLANDA  TOBON                                    C000000000270000000000000000000000100010010000000000000000000000F0010000006756100320150129000101 00000000000000000000000000000000000000000000000000000000000000000000000000000000000000000000000000000000000000000N 00000000000NCONT   00    00000000000          00000000000000000000000000000000000000000000 000000000000000A000000000000000000000000000000000000000000000 000000000000000000000000000000000000000     00000000                                                                                                                        000000000000000000
F0010000006756100004000002245670100023658300000000000000000201501290002001YOLANDA  TOBON                                    C000000000010400000000000000000000100010010000000000000000000000F0010000006756100420150129000101 00000000000000000000000000000000000000000000000000000000000000000000000000000000000000000000000000000000000000000N 00000000000NCONT   00    00000000000          00000000000000000000000000000000000000000000 000000000000000A000000000000000000000000000000000000000000000 000000000000000000000000000000000000000     00000000                                                                                                                        000000000000000000
F0010000006756100005000002245670100013552100000000000000000201501290002001YOLANDA  TOBON                                    D000000000010400000000000000000000100010010000000000000000000000F0010000006756100520150129000101 00000000000000000000000000000000000000000000000000000000000000000000000000000000000000000000000000000000000000000N 00000000000NCONT   00    00000000000          00000000000000000000000000000000000000000000 000000000000000A000000000000000000000000000000000000000000000 000000000000000000000000000000000000000     00000000                                                                                                                        000000000000000000
F0010000006756200001000090050144800011050500000000000000000201501290002001PLASTICOS JR ASOCIADOS SAS                        D000000001000000000000000000000000100010010000000000000000000000F0010000006756200120150129000101 00000000000000000000000000000000000000000000000000000000000000000000000000000000000000000000000000000000000000000N 00000000000NCONT   00    00000000000          00000000000000000000000000000000000000000000 000000000000000A000000000000000000000000000000000000000000000 000000000000000000000000000000000000000     00000000                                                                                                                        000000000000000000
F0010000006756200002000090050144800041450500000000000000000201501290002001PLASTICOS JR ASOCIADOS SAS                        C000000000850000000000000000000000100010010000000000000000000000F0010000006756200220150129000101 00000000000000000000000000000000000000000000000000000000000000000000000000000000000000000000000000000000000000000N 00000000000NCONT   00    00000000000          00000000000000000000000000000000000000000000 000000000000000A000000000000000000000000000000000000000000000 000000000000000000000000000000000000000     00000000                                                                                                                        000000000000000000
F0010000006756200003000090050144800042505000000000000000000201501290002001PLASTICOS JR ASOCIADOS SAS                        C000000000150000000000000000000000100010010000000000000000000000F0010000006756200320150129000101 00000000000000000000000000000000000000000000000000000000000000000000000000000000000000000000000000000000000000000N 00000000000NCONT   00    00000000000          00000000000000000000000000000000000000000000 000000000000000A000000000000000000000000000000000000000000000 000000000000000000000000000000000000000     00000000                                                                                                                        000000000000000000
F0010000006756200004000090050144800023658300000000000000000201501290002001PLASTICOS JR ASOCIADOS SAS                        C000000000006800000000000000000000100010010000000000000000000000F0010000006756200420150129000101 00000000000000000000000000000000000000000000000000000000000000000000000000000000000000000000000000000000000000000N 00000000000NCONT   00    00000000000          00000000000000000000000000000000000000000000 000000000000000A000000000000000000000000000000000000000000000 000000000000000000000000000000000000000     00000000                                                                                                                        000000000000000000
F0010000006756200005000090050144800013552100000000000000000201501290002001PLASTICOS JR ASOCIADOS SAS                        D000000000006800000000000000000000100010010000000000000000000000F0010000006756200520150129000101 00000000000000000000000000000000000000000000000000000000000000000000000000000000000000000000000000000000000000000N 00000000000NCONT   00    00000000000          00000000000000000000000000000000000000000000 000000000000000A000000000000000000000000000000000000000000000 000000000000000000000000000000000000000     00000000                                                                                                                        000000000000000000
F0010000006756300001000000000000000011050500000000000000000201501290002001COMPRA Y VENTA ESTEBAN                            D000000003000000000000000000000000100010010000000000000000000000F0010000006756300120150129000101 00000000000000000000000000000000000000000000000000000000000000000000000000000000000000000000000000000000000000000N 00000000000NCONT   00    00000000000          00000000000000000000000000000000000000000000 000000000000000A000000000000000000000000000000000000000000000 000000000000000000000000000000000000000     00000000                                                                                                                        000000000000000000
F0010000006756300002000000000000000041450500000000000000000201501290002001COMPRA Y VENTA ESTEBAN                            C000000002900000000000000000000000100010010000000000000000000000F0010000006756300220150129000101 00000000000000000000000000000000000000000000000000000000000000000000000000000000000000000000000000000000000000000N 00000000000NCONT   00    00000000000          00000000000000000000000000000000000000000000 000000000000000A000000000000000000000000000000000000000000000 000000000000000000000000000000000000000     00000000                                                                                                                        000000000000000000
F0010000006756300003000000000000000042505000000000000000000201501290002001COMPRA Y VENTA ESTEBAN                            C000000000100000000000000000000000100010010000000000000000000000F0010000006756300320150129000101 00000000000000000000000000000000000000000000000000000000000000000000000000000000000000000000000000000000000000000N 00000000000NCONT   00    00000000000          00000000000000000000000000000000000000000000 000000000000000A000000000000000000000000000000000000000000000 000000000000000000000000000000000000000     00000000                                                                                                                        000000000000000000
F0010000006756300004000000000000000023658300000000000000000201501290002001COMPRA Y VENTA ESTEBAN                            C000000000023200000000000000000000100010010000000000000000000000F0010000006756300420150129000101 00000000000000000000000000000000000000000000000000000000000000000000000000000000000000000000000000000000000000000N 00000000000NCONT   00    00000000000          00000000000000000000000000000000000000000000 000000000000000A000000000000000000000000000000000000000000000 000000000000000000000000000000000000000     00000000                                                                                                                        000000000000000000
F0010000006756300005000000000000000013552100000000000000000201501290002001COMPRA Y VENTA ESTEBAN                            D000000000023200000000000000000000100010010000000000000000000000F0010000006756300520150129000101 00000000000000000000000000000000000000000000000000000000000000000000000000000000000000000000000000000000000000000N 00000000000NCONT   00    00000000000          00000000000000000000000000000000000000000000 000000000000000A000000000000000000000000000000000000000000000 000000000000000000000000000000000000000     00000000                                                                                                                        000000000000000000
F0010000006756400001000090013859100011050500000000000000000201501290002001ALUMARKET BARRANQUILLA S.A.S.                     D000000003650000000000000000000000100010010000000000000000000000F0010000006756400120150129000101 00000000000000000000000000000000000000000000000000000000000000000000000000000000000000000000000000000000000000000N 00000000000NCONT   00    00000000000          00000000000000000000000000000000000000000000 000000000000000A000000000000000000000000000000000000000000000 000000000000000000000000000000000000000     00000000                                                                                                                        000000000000000000
F0010000006756400002000090013859100041450500000000000000000201501290002001ALUMARKET BARRANQUILLA S.A.S.                     C000000003300000000000000000000000100010010000000000000000000000F0010000006756400220150129000101 00000000000000000000000000000000000000000000000000000000000000000000000000000000000000000000000000000000000000000N 00000000000NCONT   00    00000000000          00000000000000000000000000000000000000000000 000000000000000A000000000000000000000000000000000000000000000 000000000000000000000000000000000000000     00000000                                                                                                                        000000000000000000
F0010000006756400003000090013859100042505000000000000000000201501290002001ALUMARKET BARRANQUILLA S.A.S.                     C000000000350000000000000000000000100010010000000000000000000000F0010000006756400320150129000101 00000000000000000000000000000000000000000000000000000000000000000000000000000000000000000000000000000000000000000N 00000000000NCONT   00    00000000000          00000000000000000000000000000000000000000000 000000000000000A000000000000000000000000000000000000000000000 000000000000000000000000000000000000000     00000000                                                                                                                        000000000000000000
F0010000006756400004000090013859100023658300000000000000000201501290002001ALUMARKET BARRANQUILLA S.A.S.                     C000000000026400000000000000000000100010010000000000000000000000F0010000006756400420150129000101 00000000000000000000000000000000000000000000000000000000000000000000000000000000000000000000000000000000000000000N 00000000000NCONT   00    00000000000          00000000000000000000000000000000000000000000 000000000000000A000000000000000000000000000000000000000000000 000000000000000000000000000000000000000     00000000                                                                                                                        000000000000000000
F0010000006756400005000090013859100013552100000000000000000201501290002001ALUMARKET BARRANQUILLA S.A.S.                     D000000000026400000000000000000000100010010000000000000000000000F0010000006756400520150129000101 00000000000000000000000000000000000000000000000000000000000000000000000000000000000000000000000000000000000000000N 00000000000NCONT   00    00000000000          00000000000000000000000000000000000000000000 000000000000000A000000000000000000000000000000000000000000000 000000000000000000000000000000000000000     00000000                                                                                                                        000000000000000000
F0010000006756500001000090034602400011050500000000000000000201501290002001LA CUSTODIA                                       D000000003000000000000000000000000100010010000000000000000000000F0010000006756500120150129000101 00000000000000000000000000000000000000000000000000000000000000000000000000000000000000000000000000000000000000000N 00000000000NCONT   00    00000000000          00000000000000000000000000000000000000000000 000000000000000A000000000000000000000000000000000000000000000 000000000000000000000000000000000000000     00000000                                                                                                                        000000000000000000
F0010000006756500002000090034602400041450500000000000000000201501290002001LA CUSTODIA                                       C000000002700000000000000000000000100010010000000000000000000000F0010000006756500220150129000101 00000000000000000000000000000000000000000000000000000000000000000000000000000000000000000000000000000000000000000N 00000000000NCONT   00    00000000000          00000000000000000000000000000000000000000000 000000000000000A000000000000000000000000000000000000000000000 000000000000000000000000000000000000000     00000000                                                                                                                        000000000000000000
F0010000006756500003000090034602400042505000000000000000000201501290002001LA CUSTODIA                                       C000000000300000000000000000000000100010010000000000000000000000F0010000006756500320150129000101 00000000000000000000000000000000000000000000000000000000000000000000000000000000000000000000000000000000000000000N 00000000000NCONT   00    00000000000          00000000000000000000000000000000000000000000 000000000000000A000000000000000000000000000000000000000000000 000000000000000000000000000000000000000     00000000                                                                                                                        000000000000000000
F0010000006756500004000090034602400023658300000000000000000201501290002001LA CUSTODIA                                       C000000000021600000000000000000000100010010000000000000000000000F0010000006756500420150129000101 00000000000000000000000000000000000000000000000000000000000000000000000000000000000000000000000000000000000000000N 00000000000NCONT   00    00000000000          00000000000000000000000000000000000000000000 000000000000000A000000000000000000000000000000000000000000000 000000000000000000000000000000000000000     00000000                                                                                                                        000000000000000000
F0010000006756500005000090034602400013552100000000000000000201501290002001LA CUSTODIA                                       D000000000021600000000000000000000100010010000000000000000000000F0010000006756500520150129000101 00000000000000000000000000000000000000000000000000000000000000000000000000000000000000000000000000000000000000000N 00000000000NCONT   00    00000000000          00000000000000000000000000000000000000000000 000000000000000A000000000000000000000000000000000000000000000 000000000000000000000000000000000000000     00000000                                                                                                                        000000000000000000
F0010000006756600001000080201703900011050500000000000000000201501290002001MUNDIAL CHEMICAL LTDA                             D000000018100000000000000000000000100010010000000000000000000000F0010000006756600120150129000101 00000000000000000000000000000000000000000000000000000000000000000000000000000000000000000000000000000000000000000N 00000000000NCONT   00    00000000000          00000000000000000000000000000000000000000000 000000000000000A000000000000000000000000000000000000000000000 000000000000000000000000000000000000000     00000000                                                                                                                        000000000000000000
F0010000006756600002000080201703900041450500000000000000000201501290002001MUNDIAL CHEMICAL LTDA                             C000000016900000000000000000000000100010010000000000000000000000F0010000006756600220150129000101 00000000000000000000000000000000000000000000000000000000000000000000000000000000000000000000000000000000000000000N 00000000000NCONT   00    00000000000          00000000000000000000000000000000000000000000 000000000000000A000000000000000000000000000000000000000000000 000000000000000000000000000000000000000     00000000                                                                                                                        000000000000000000
F0010000006756600003000080201703900042505000000000000000000201501290002001MUNDIAL CHEMICAL LTDA                             C000000001200000000000000000000000100010010000000000000000000000F0010000006756600320150129000101 00000000000000000000000000000000000000000000000000000000000000000000000000000000000000000000000000000000000000000N 00000000000NCONT   00    00000000000          00000000000000000000000000000000000000000000 000000000000000A000000000000000000000000000000000000000000000 000000000000000000000000000000000000000     00000000                                                                                                                        000000000000000000
F0010000006756600004000080201703900023658300000000000000000201501290002001MUNDIAL CHEMICAL LTDA                             C000000000135200000000000000000000100010010000000000000000000000F0010000006756600420150129000101 00000000000000000000000000000000000000000000000000000000000000000000000000000000000000000000000000000000000000000N 00000000000NCONT   00    00000000000          00000000000000000000000000000000000000000000 000000000000000A000000000000000000000000000000000000000000000 000000000000000000000000000000000000000     00000000                                                                                                                        000000000000000000
F0010000006756600005000080201703900013552100000000000000000201501290002001MUNDIAL CHEMICAL LTDA                             D000000000135200000000000000000000100010010000000000000000000000F0010000006756600520150129000101 00000000000000000000000000000000000000000000000000000000000000000000000000000000000000000000000000000000000000000N 00000000000NCONT   00    00000000000          00000000000000000000000000000000000000000000 000000000000000A000000000000000000000000000000000000000000000 000000000000000000000000000000000000000     00000000                                                                                                                        000000000000000000
F0010000006756700001000080201703900011050500000000000000000201501290002001MUNDIAL CHEMICAL LTDA                             D000000001030000000000000000000000100010010000000000000000000000F0010000006756700120150129000101 00000000000000000000000000000000000000000000000000000000000000000000000000000000000000000000000000000000000000000N 00000000000NCONT   00    00000000000          00000000000000000000000000000000000000000000 000000000000000A000000000000000000000000000000000000000000000 000000000000000000000000000000000000000     00000000                                                                                                                        000000000000000000
F0010000006756700002000080201703900041450500000000000000000201501290002001MUNDIAL CHEMICAL LTDA                             C000000000830000000000000000000000100010010000000000000000000000F0010000006756700220150129000101 00000000000000000000000000000000000000000000000000000000000000000000000000000000000000000000000000000000000000000N 00000000000NCONT   00    00000000000          00000000000000000000000000000000000000000000 000000000000000A000000000000000000000000000000000000000000000 000000000000000000000000000000000000000     00000000                                                                                                                        000000000000000000
F0010000006756700003000080201703900042505000000000000000000201501290002001MUNDIAL CHEMICAL LTDA                             C000000000200000000000000000000000100010010000000000000000000000F0010000006756700320150129000101 00000000000000000000000000000000000000000000000000000000000000000000000000000000000000000000000000000000000000000N 00000000000NCONT   00    00000000000          00000000000000000000000000000000000000000000 000000000000000A000000000000000000000000000000000000000000000 000000000000000000000000000000000000000     00000000                                                                                                                        000000000000000000
F0010000006756700004000080201703900023658300000000000000000201501290002001MUNDIAL CHEMICAL LTDA                             C000000000006600000000000000000000100010010000000000000000000000F0010000006756700420150129000101 00000000000000000000000000000000000000000000000000000000000000000000000000000000000000000000000000000000000000000N 00000000000NCONT   00    00000000000          00000000000000000000000000000000000000000000 000000000000000A000000000000000000000000000000000000000000000 000000000000000000000000000000000000000     00000000                                                                                                                        000000000000000000
F0010000006756700005000080201703900013552100000000000000000201501290002001MUNDIAL CHEMICAL LTDA                             D000000000006600000000000000000000100010010000000000000000000000F0010000006756700520150129000101 00000000000000000000000000000000000000000000000000000000000000000000000000000000000000000000000000000000000000000N 00000000000NCONT   00    00000000000          00000000000000000000000000000000000000000000 000000000000000A000000000000000000000000000000000000000000000 000000000000000000000000000000000000000     00000000                                                                                                                        000000000000000000
F0010000006756800001000080201703900011050500000000000000000201501290002001MUNDIAL CHEMICAL LTDA                             D000000001050000000000000000000000100010010000000000000000000000F0010000006756800120150129000101 00000000000000000000000000000000000000000000000000000000000000000000000000000000000000000000000000000000000000000N 00000000000NCONT   00    00000000000          00000000000000000000000000000000000000000000 000000000000000A000000000000000000000000000000000000000000000 000000000000000000000000000000000000000     00000000                                                                                                                        000000000000000000
F0010000006756800002000080201703900041450500000000000000000201501290002001MUNDIAL CHEMICAL LTDA                             C000000000830000000000000000000000100010010000000000000000000000F0010000006756800220150129000101 00000000000000000000000000000000000000000000000000000000000000000000000000000000000000000000000000000000000000000N 00000000000NCONT   00    00000000000          00000000000000000000000000000000000000000000 000000000000000A000000000000000000000000000000000000000000000 000000000000000000000000000000000000000     00000000                                                                                                                        000000000000000000
F0010000006756800003000080201703900042505000000000000000000201501290002001MUNDIAL CHEMICAL LTDA                             C000000000220000000000000000000000100010010000000000000000000000F0010000006756800320150129000101 00000000000000000000000000000000000000000000000000000000000000000000000000000000000000000000000000000000000000000N 00000000000NCONT   00    00000000000          00000000000000000000000000000000000000000000 000000000000000A000000000000000000000000000000000000000000000 000000000000000000000000000000000000000     00000000                                                                                                                        000000000000000000
F0010000006756800004000080201703900023658300000000000000000201501290002001MUNDIAL CHEMICAL LTDA                             C000000000006600000000000000000000100010010000000000000000000000F0010000006756800420150129000101 00000000000000000000000000000000000000000000000000000000000000000000000000000000000000000000000000000000000000000N 00000000000NCONT   00    00000000000          00000000000000000000000000000000000000000000 000000000000000A000000000000000000000000000000000000000000000 000000000000000000000000000000000000000     00000000                                                                                                                        000000000000000000
F0010000006756800005000080201703900013552100000000000000000201501290002001MUNDIAL CHEMICAL LTDA                             D000000000006600000000000000000000100010010000000000000000000000F0010000006756800520150129000101 00000000000000000000000000000000000000000000000000000000000000000000000000000000000000000000000000000000000000000N 00000000000NCONT   00    00000000000          00000000000000000000000000000000000000000000 000000000000000A000000000000000000000000000000000000000000000 000000000000000000000000000000000000000     00000000                                                                                                                        000000000000000000
F0010000006756900001000000746524800011050500000000000000000201501290002001GUILLERMO BURGOS                                  D000000007800000000000000000000000100010010000000000000000000000F0010000006756900120150129000101 00000000000000000000000000000000000000000000000000000000000000000000000000000000000000000000000000000000000000000N 00000000000NCONT   00    00000000000          00000000000000000000000000000000000000000000 000000000000000A000000000000000000000000000000000000000000000 000000000000000000000000000000000000000     00000000                                                                                                                        000000000000000000
F0010000006756900002000000746524800041450500000000000000000201501290002001GUILLERMO BURGOS                                  C000000007200000000000000000000000100010010000000000000000000000F0010000006756900220150129000101 00000000000000000000000000000000000000000000000000000000000000000000000000000000000000000000000000000000000000000N 00000000000NCONT   00    00000000000          00000000000000000000000000000000000000000000 000000000000000A000000000000000000000000000000000000000000000 000000000000000000000000000000000000000     00000000                                                                                                                        000000000000000000
F0010000006756900003000000746524800042505000000000000000000201501290002001GUILLERMO BURGOS                                  C000000000600000000000000000000000100010010000000000000000000000F0010000006756900320150129000101 00000000000000000000000000000000000000000000000000000000000000000000000000000000000000000000000000000000000000000N 00000000000NCONT   00    00000000000          00000000000000000000000000000000000000000000 000000000000000A000000000000000000000000000000000000000000000 000000000000000000000000000000000000000     00000000                                                                                                                        000000000000000000
F0010000006756900004000000746524800023658300000000000000000201501290002001GUILLERMO BURGOS                                  C000000000057600000000000000000000100010010000000000000000000000F0010000006756900420150129000101 00000000000000000000000000000000000000000000000000000000000000000000000000000000000000000000000000000000000000000N 00000000000NCONT   00    00000000000          00000000000000000000000000000000000000000000 000000000000000A000000000000000000000000000000000000000000000 000000000000000000000000000000000000000     00000000                                                                                                                        000000000000000000
F0010000006756900005000000746524800013552100000000000000000201501290002001GUILLERMO BURGOS                                  D000000000057600000000000000000000100010010000000000000000000000F0010000006756900520150129000101 00000000000000000000000000000000000000000000000000000000000000000000000000000000000000000000000000000000000000000N 00000000000NCONT   00    00000000000          00000000000000000000000000000000000000000000 000000000000000A000000000000000000000000000000000000000000000 000000000000000000000000000000000000000     00000000                                                                                                                        000000000000000000
F0010000006757000001000090007142100011050500000000000000000201501290002001TODO BELLEZA Y MAX S.A.S                          D000000002675000000000000000000000100010010000000000000000000000F0010000006757000120150129000101 00000000000000000000000000000000000000000000000000000000000000000000000000000000000000000000000000000000000000000N 00000000000NCONT   00    00000000000          00000000000000000000000000000000000000000000 000000000000000A000000000000000000000000000000000000000000000 000000000000000000000000000000000000000     00000000                                                                                                                        000000000000000000
F0010000006757000002000090007142100041450500000000000000000201501290002001TODO BELLEZA Y MAX S.A.S                          C000000002600000000000000000000000100010010000000000000000000000F0010000006757000220150129000101 00000000000000000000000000000000000000000000000000000000000000000000000000000000000000000000000000000000000000000N 00000000000NCONT   00    00000000000          00000000000000000000000000000000000000000000 000000000000000A000000000000000000000000000000000000000000000 000000000000000000000000000000000000000     00000000                                                                                                                        000000000000000000
F0010000006757000003000090007142100042505000000000000000000201501290002001TODO BELLEZA Y MAX S.A.S                          C000000000075000000000000000000000100010010000000000000000000000F0010000006757000320150129000101 00000000000000000000000000000000000000000000000000000000000000000000000000000000000000000000000000000000000000000N 00000000000NCONT   00    00000000000          00000000000000000000000000000000000000000000 000000000000000A000000000000000000000000000000000000000000000 000000000000000000000000000000000000000     00000000                                                                                                                        000000000000000000
F0010000006757000004000090007142100023658300000000000000000201501290002001TODO BELLEZA Y MAX S.A.S                          C000000000020800000000000000000000100010010000000000000000000000F0010000006757000420150129000101 00000000000000000000000000000000000000000000000000000000000000000000000000000000000000000000000000000000000000000N 00000000000NCONT   00    00000000000          00000000000000000000000000000000000000000000 000000000000000A000000000000000000000000000000000000000000000 000000000000000000000000000000000000000     00000000                                                                                                                        000000000000000000
F0010000006757000005000090007142100013552100000000000000000201501290002001TODO BELLEZA Y MAX S.A.S                          D000000000020800000000000000000000100010010000000000000000000000F0010000006757000520150129000101 00000000000000000000000000000000000000000000000000000000000000000000000000000000000000000000000000000000000000000N 00000000000NCONT   00    00000000000          00000000000000000000000000000000000000000000 000000000000000A000000000000000000000000000000000000000000000 000000000000000000000000000000000000000     00000000                                                                                                                        000000000000000000
F0010000006757100001000090007142100011050500000000000000000201501290002001TODO BELLEZA Y MAX S.A.S                          D000000005350000000000000000000000100010010000000000000000000000F0010000006757100120150129000101 00000000000000000000000000000000000000000000000000000000000000000000000000000000000000000000000000000000000000000N 00000000000NCONT   00    00000000000          00000000000000000000000000000000000000000000 000000000000000A000000000000000000000000000000000000000000000 000000000000000000000000000000000000000     00000000                                                                                                                        000000000000000000
F0010000006757100002000090007142100041450500000000000000000201501290002001TODO BELLEZA Y MAX S.A.S                          C000000005200000000000000000000000100010010000000000000000000000F0010000006757100220150129000101 00000000000000000000000000000000000000000000000000000000000000000000000000000000000000000000000000000000000000000N 00000000000NCONT   00    00000000000          00000000000000000000000000000000000000000000 000000000000000A000000000000000000000000000000000000000000000 000000000000000000000000000000000000000     00000000                                                                                                                        000000000000000000
F0010000006757100003000090007142100042505000000000000000000201501290002001TODO BELLEZA Y MAX S.A.S                          C000000000150000000000000000000000100010010000000000000000000000F0010000006757100320150129000101 00000000000000000000000000000000000000000000000000000000000000000000000000000000000000000000000000000000000000000N 00000000000NCONT   00    00000000000          00000000000000000000000000000000000000000000 000000000000000A000000000000000000000000000000000000000000000 000000000000000000000000000000000000000     00000000                                                                                                                        000000000000000000
F0010000006757100004000090007142100023658300000000000000000201501290002001TODO BELLEZA Y MAX S.A.S                          C000000000041600000000000000000000100010010000000000000000000000F0010000006757100420150129000101 00000000000000000000000000000000000000000000000000000000000000000000000000000000000000000000000000000000000000000N 00000000000NCONT   00    00000000000          00000000000000000000000000000000000000000000 000000000000000A000000000000000000000000000000000000000000000 000000000000000000000000000000000000000     00000000                                                                                                                        000000000000000000
F0010000006757100005000090007142100013552100000000000000000201501290002001TODO BELLEZA Y MAX S.A.S                          D000000000041600000000000000000000100010010000000000000000000000F0010000006757100520150129000101 00000000000000000000000000000000000000000000000000000000000000000000000000000000000000000000000000000000000000000N 00000000000NCONT   00    00000000000          00000000000000000000000000000000000000000000 000000000000000A000000000000000000000000000000000000000000000 000000000000000000000000000000000000000     00000000                                                                                                                        000000000000000000
F0010000006757200001000090007142100011050500000000000000000201501290002001TODO BELLEZA Y MAX S.A.S                          D000000001250000000000000000000000100010010000000000000000000000F0010000006757200120150129000101 00000000000000000000000000000000000000000000000000000000000000000000000000000000000000000000000000000000000000000N 00000000000NCONT   00    00000000000          00000000000000000000000000000000000000000000 000000000000000A000000000000000000000000000000000000000000000 000000000000000000000000000000000000000     00000000                                                                                                                        000000000000000000
F0010000006757200002000090007142100041450500000000000000000201501290002001TODO BELLEZA Y MAX S.A.S                          C000000001200000000000000000000000100010010000000000000000000000F0010000006757200220150129000101 00000000000000000000000000000000000000000000000000000000000000000000000000000000000000000000000000000000000000000N 00000000000NCONT   00    00000000000          00000000000000000000000000000000000000000000 000000000000000A000000000000000000000000000000000000000000000 000000000000000000000000000000000000000     00000000                                                                                                                        000000000000000000
F0010000006757200003000090007142100042505000000000000000000201501290002001TODO BELLEZA Y MAX S.A.S                          C000000000050000000000000000000000100010010000000000000000000000F0010000006757200320150129000101 00000000000000000000000000000000000000000000000000000000000000000000000000000000000000000000000000000000000000000N 00000000000NCONT   00    00000000000          00000000000000000000000000000000000000000000 000000000000000A000000000000000000000000000000000000000000000 000000000000000000000000000000000000000     00000000                                                                                                                        000000000000000000
F0010000006757200004000090007142100023658300000000000000000201501290002001TODO BELLEZA Y MAX S.A.S                          C000000000009600000000000000000000100010010000000000000000000000F0010000006757200420150129000101 00000000000000000000000000000000000000000000000000000000000000000000000000000000000000000000000000000000000000000N 00000000000NCONT   00    00000000000          00000000000000000000000000000000000000000000 000000000000000A000000000000000000000000000000000000000000000 000000000000000000000000000000000000000     00000000                                                                                                                        000000000000000000
F0010000006757200005000090007142100013552100000000000000000201501290002001TODO BELLEZA Y MAX S.A.S                          D000000000009600000000000000000000100010010000000000000000000000F0010000006757200520150129000101 00000000000000000000000000000000000000000000000000000000000000000000000000000000000000000000000000000000000000000N 00000000000NCONT   00    00000000000          00000000000000000000000000000000000000000000 000000000000000A000000000000000000000000000000000000000000000 000000000000000000000000000000000000000     00000000                                                                                                                        000000000000000000
F0010000006757300001000080002353300011050500000000000000000201501290002001RUMATEX DE COLOMBIA                               D000000001800000000000000000000000100010010000000000000000000000F0010000006757300120150129000101 00000000000000000000000000000000000000000000000000000000000000000000000000000000000000000000000000000000000000000N 00000000000NCONT   00    00000000000          00000000000000000000000000000000000000000000 000000000000000A000000000000000000000000000000000000000000000 000000000000000000000000000000000000000     00000000                                                                                                                        000000000000000000
F0010000006757300002000080002353300041450500000000000000000201501290002001RUMATEX DE COLOMBIA                               C000000001600000000000000000000000100010010000000000000000000000F0010000006757300220150129000101 00000000000000000000000000000000000000000000000000000000000000000000000000000000000000000000000000000000000000000N 00000000000NCONT   00    00000000000          00000000000000000000000000000000000000000000 000000000000000A000000000000000000000000000000000000000000000 000000000000000000000000000000000000000     00000000                                                                                                                        000000000000000000
F0010000006757300003000080002353300042505000000000000000000201501290002001RUMATEX DE COLOMBIA                               C000000000200000000000000000000000100010010000000000000000000000F0010000006757300320150129000101 00000000000000000000000000000000000000000000000000000000000000000000000000000000000000000000000000000000000000000N 00000000000NCONT   00    00000000000          00000000000000000000000000000000000000000000 000000000000000A000000000000000000000000000000000000000000000 000000000000000000000000000000000000000     00000000                                                                                                                        000000000000000000
F0010000006757300004000080002353300023658300000000000000000201501290002001RUMATEX DE COLOMBIA                               C000000000012800000000000000000000100010010000000000000000000000F0010000006757300420150129000101 00000000000000000000000000000000000000000000000000000000000000000000000000000000000000000000000000000000000000000N 00000000000NCONT   00    00000000000          00000000000000000000000000000000000000000000 000000000000000A000000000000000000000000000000000000000000000 000000000000000000000000000000000000000     00000000                                                                                                                        000000000000000000
F0010000006757300005000080002353300013552100000000000000000201501290002001RUMATEX DE COLOMBIA                               D000000000012800000000000000000000100010010000000000000000000000F0010000006757300520150129000101 00000000000000000000000000000000000000000000000000000000000000000000000000000000000000000000000000000000000000000N 00000000000NCONT   00    00000000000          00000000000000000000000000000000000000000000 000000000000000A000000000000000000000000000000000000000000000 000000000000000000000000000000000000000     00000000                                                                                                                        000000000000000000
F0010000006757400001000080002353300011050500000000000000000201501290002001RUMATEX DE COLOMBIA                               D000000001300000000000000000000000100010010000000000000000000000F0010000006757400120150129000101 00000000000000000000000000000000000000000000000000000000000000000000000000000000000000000000000000000000000000000N 00000000000NCONT   00    00000000000          00000000000000000000000000000000000000000000 000000000000000A000000000000000000000000000000000000000000000 000000000000000000000000000000000000000     00000000                                                                                                                        000000000000000000
F0010000006757400002000080002353300041450500000000000000000201501290002001RUMATEX DE COLOMBIA                               C000000000900000000000000000000000100010010000000000000000000000F0010000006757400220150129000101 00000000000000000000000000000000000000000000000000000000000000000000000000000000000000000000000000000000000000000N 00000000000NCONT   00    00000000000          00000000000000000000000000000000000000000000 000000000000000A000000000000000000000000000000000000000000000 000000000000000000000000000000000000000     00000000                                                                                                                        000000000000000000
F0010000006757400003000080002353300042505000000000000000000201501290002001RUMATEX DE COLOMBIA                               C000000000400000000000000000000000100010010000000000000000000000F0010000006757400320150129000101 00000000000000000000000000000000000000000000000000000000000000000000000000000000000000000000000000000000000000000N 00000000000NCONT   00    00000000000          00000000000000000000000000000000000000000000 000000000000000A000000000000000000000000000000000000000000000 000000000000000000000000000000000000000     00000000                                                                                                                        000000000000000000
F0010000006757400004000080002353300023658300000000000000000201501290002001RUMATEX DE COLOMBIA                               C000000000007200000000000000000000100010010000000000000000000000F0010000006757400420150129000101 00000000000000000000000000000000000000000000000000000000000000000000000000000000000000000000000000000000000000000N 00000000000NCONT   00    00000000000          00000000000000000000000000000000000000000000 000000000000000A000000000000000000000000000000000000000000000 000000000000000000000000000000000000000     00000000                                                                                                                        000000000000000000
F0010000006757400005000080002353300013552100000000000000000201501290002001RUMATEX DE COLOMBIA                               D000000000007200000000000000000000100010010000000000000000000000F0010000006757400520150129000101 00000000000000000000000000000000000000000000000000000000000000000000000000000000000000000000000000000000000000000N 00000000000NCONT   00    00000000000          00000000000000000000000000000000000000000000 000000000000000A000000000000000000000000000000000000000000000 000000000000000000000000000000000000000     00000000                                                                                                                        000000000000000000
F0010000006757500001000000869805000011050500000000000000000201501290002001WILMAN RAMBAL LARA                                D000000002950000000000000000000000100010010000000000000000000000F0010000006757500120150129000101 00000000000000000000000000000000000000000000000000000000000000000000000000000000000000000000000000000000000000000N 00000000000NCONT   00    00000000000          00000000000000000000000000000000000000000000 000000000000000A000000000000000000000000000000000000000000000 000000000000000000000000000000000000000     00000000                                                                                                                        000000000000000000
F0010000006757500002000000869805000041450500000000000000000201501290002001WILMAN RAMBAL LARA                                C000000002700000000000000000000000100010010000000000000000000000F0010000006757500220150129000101 00000000000000000000000000000000000000000000000000000000000000000000000000000000000000000000000000000000000000000N 00000000000NCONT   00    00000000000          00000000000000000000000000000000000000000000 000000000000000A000000000000000000000000000000000000000000000 000000000000000000000000000000000000000     00000000                                                                                                                        000000000000000000
F0010000006757500003000000869805000042505000000000000000000201501290002001WILMAN RAMBAL LARA                                C000000000250000000000000000000000100010010000000000000000000000F0010000006757500320150129000101 00000000000000000000000000000000000000000000000000000000000000000000000000000000000000000000000000000000000000000N 00000000000NCONT   00    00000000000          00000000000000000000000000000000000000000000 000000000000000A000000000000000000000000000000000000000000000 000000000000000000000000000000000000000     00000000                                                                                                                        000000000000000000
F0010000006757500004000000869805000023658300000000000000000201501290002001WILMAN RAMBAL LARA                                C000000000021600000000000000000000100010010000000000000000000000F0010000006757500420150129000101 00000000000000000000000000000000000000000000000000000000000000000000000000000000000000000000000000000000000000000N 00000000000NCONT   00    00000000000          00000000000000000000000000000000000000000000 000000000000000A000000000000000000000000000000000000000000000 000000000000000000000000000000000000000     00000000                                                                                                                        000000000000000000
F0010000006757500005000000869805000013552100000000000000000201501290002001WILMAN RAMBAL LARA                                D000000000021600000000000000000000100010010000000000000000000000F0010000006757500520150129000101 00000000000000000000000000000000000000000000000000000000000000000000000000000000000000000000000000000000000000000N 00000000000NCONT   00    00000000000          00000000000000000000000000000000000000000000 000000000000000A000000000000000000000000000000000000000000000 000000000000000000000000000000000000000     00000000                                                                                                                        000000000000000000
F0010000006757600001000000431178400011050500000000000000000201501290002001EFRAIN ALVAREZ                                    D000000002850000000000000000000000100010010000000000000000000000F0010000006757600120150129000101 00000000000000000000000000000000000000000000000000000000000000000000000000000000000000000000000000000000000000000N 00000000000NCONT   00    00000000000          00000000000000000000000000000000000000000000 000000000000000A000000000000000000000000000000000000000000000 000000000000000000000000000000000000000     00000000                                                                                                                        000000000000000000
F0010000006757600002000000431178400041450500000000000000000201501290002001EFRAIN ALVAREZ                                    C000000002800000000000000000000000100010010000000000000000000000F0010000006757600220150129000101 00000000000000000000000000000000000000000000000000000000000000000000000000000000000000000000000000000000000000000N 00000000000NCONT   00    00000000000          00000000000000000000000000000000000000000000 000000000000000A000000000000000000000000000000000000000000000 000000000000000000000000000000000000000     00000000                                                                                                                        000000000000000000
F0010000006757600003000000431178400042505000000000000000000201501290002001EFRAIN ALVAREZ                                    C000000000050000000000000000000000100010010000000000000000000000F0010000006757600320150129000101 00000000000000000000000000000000000000000000000000000000000000000000000000000000000000000000000000000000000000000N 00000000000NCONT   00    00000000000          00000000000000000000000000000000000000000000 000000000000000A000000000000000000000000000000000000000000000 000000000000000000000000000000000000000     00000000                                                                                                                        000000000000000000
F0010000006757600004000000431178400023658300000000000000000201501290002001EFRAIN ALVAREZ                                    C000000000022400000000000000000000100010010000000000000000000000F0010000006757600420150129000101 00000000000000000000000000000000000000000000000000000000000000000000000000000000000000000000000000000000000000000N 00000000000NCONT   00    00000000000          00000000000000000000000000000000000000000000 000000000000000A000000000000000000000000000000000000000000000 000000000000000000000000000000000000000     00000000                                                                                                                        000000000000000000
F0010000006757600005000000431178400013552100000000000000000201501290002001EFRAIN ALVAREZ                                    D000000000022400000000000000000000100010010000000000000000000000F0010000006757600520150129000101 00000000000000000000000000000000000000000000000000000000000000000000000000000000000000000000000000000000000000000N 00000000000NCONT   00    00000000000          00000000000000000000000000000000000000000000 000000000000000A000000000000000000000000000000000000000000000 000000000000000000000000000000000000000     00000000                                                                                                                        000000000000000000
F0010000006757700001000000431178400011050500000000000000000201501290002001EFRAIN ALVAREZ                                    D000000002850000000000000000000000100010010000000000000000000000F0010000006757700120150129000101 00000000000000000000000000000000000000000000000000000000000000000000000000000000000000000000000000000000000000000N 00000000000NCONT   00    00000000000          00000000000000000000000000000000000000000000 000000000000000A000000000000000000000000000000000000000000000 000000000000000000000000000000000000000     00000000                                                                                                                        000000000000000000
F0010000006757700002000000431178400041450500000000000000000201501290002001EFRAIN ALVAREZ                                    C000000002800000000000000000000000100010010000000000000000000000F0010000006757700220150129000101 00000000000000000000000000000000000000000000000000000000000000000000000000000000000000000000000000000000000000000N 00000000000NCONT   00    00000000000          00000000000000000000000000000000000000000000 000000000000000A000000000000000000000000000000000000000000000 000000000000000000000000000000000000000     00000000                                                                                                                        000000000000000000
F0010000006757700003000000431178400042505000000000000000000201501290002001EFRAIN ALVAREZ                                    C000000000050000000000000000000000100010010000000000000000000000F0010000006757700320150129000101 00000000000000000000000000000000000000000000000000000000000000000000000000000000000000000000000000000000000000000N 00000000000NCONT   00    00000000000          00000000000000000000000000000000000000000000 000000000000000A000000000000000000000000000000000000000000000 000000000000000000000000000000000000000     00000000                                                                                                                        000000000000000000
F0010000006757700004000000431178400023658300000000000000000201501290002001EFRAIN ALVAREZ                                    C000000000022400000000000000000000100010010000000000000000000000F0010000006757700420150129000101 00000000000000000000000000000000000000000000000000000000000000000000000000000000000000000000000000000000000000000N 00000000000NCONT   00    00000000000          00000000000000000000000000000000000000000000 000000000000000A000000000000000000000000000000000000000000000 000000000000000000000000000000000000000     00000000                                                                                                                        000000000000000000
F0010000006757700005000000431178400013552100000000000000000201501290002001EFRAIN ALVAREZ                                    D000000000022400000000000000000000100010010000000000000000000000F0010000006757700520150129000101 00000000000000000000000000000000000000000000000000000000000000000000000000000000000000000000000000000000000000000N 00000000000NCONT   00    00000000000          00000000000000000000000000000000000000000000 000000000000000A000000000000000000000000000000000000000000000 000000000000000000000000000000000000000     00000000                                                                                                                        000000000000000000
F0010000006757800001000000431178400011050500000000000000000201501290002001EFRAIN ALVAREZ                                    D000000001600000000000000000000000100010010000000000000000000000F0010000006757800120150129000101 00000000000000000000000000000000000000000000000000000000000000000000000000000000000000000000000000000000000000000N 00000000000NCONT   00    00000000000          00000000000000000000000000000000000000000000 000000000000000A000000000000000000000000000000000000000000000 000000000000000000000000000000000000000     00000000                                                                                                                        000000000000000000
F0010000006757800002000000431178400041450500000000000000000201501290002001EFRAIN ALVAREZ                                    C000000001500000000000000000000000100010010000000000000000000000F0010000006757800220150129000101 00000000000000000000000000000000000000000000000000000000000000000000000000000000000000000000000000000000000000000N 00000000000NCONT   00    00000000000          00000000000000000000000000000000000000000000 000000000000000A000000000000000000000000000000000000000000000 000000000000000000000000000000000000000     00000000                                                                                                                        000000000000000000
F0010000006757800003000000431178400042505000000000000000000201501290002001EFRAIN ALVAREZ                                    C000000000100000000000000000000000100010010000000000000000000000F0010000006757800320150129000101 00000000000000000000000000000000000000000000000000000000000000000000000000000000000000000000000000000000000000000N 00000000000NCONT   00    00000000000          00000000000000000000000000000000000000000000 000000000000000A000000000000000000000000000000000000000000000 000000000000000000000000000000000000000     00000000                                                                                                                        000000000000000000
F0010000006757800004000000431178400023658300000000000000000201501290002001EFRAIN ALVAREZ                                    C000000000012000000000000000000000100010010000000000000000000000F0010000006757800420150129000101 00000000000000000000000000000000000000000000000000000000000000000000000000000000000000000000000000000000000000000N 00000000000NCONT   00    00000000000          00000000000000000000000000000000000000000000 000000000000000A000000000000000000000000000000000000000000000 000000000000000000000000000000000000000     00000000                                                                                                                        000000000000000000
F0010000006757800005000000431178400013552100000000000000000201501290002001EFRAIN ALVAREZ                                    D000000000012000000000000000000000100010010000000000000000000000F0010000006757800520150129000101 00000000000000000000000000000000000000000000000000000000000000000000000000000000000000000000000000000000000000000N 00000000000NCONT   00    00000000000          00000000000000000000000000000000000000000000 000000000000000A000000000000000000000000000000000000000000000 000000000000000000000000000000000000000     00000000                                                                                                                        000000000000000000
F0010000006757900001000000431178400011050500000000000000000201501290002001EFRAIN ALVAREZ                                    D000000002950000000000000000000000100010010000000000000000000000F0010000006757900120150129000101 00000000000000000000000000000000000000000000000000000000000000000000000000000000000000000000000000000000000000000N 00000000000NCONT   00    00000000000          00000000000000000000000000000000000000000000 000000000000000A000000000000000000000000000000000000000000000 000000000000000000000000000000000000000     00000000                                                                                                                        000000000000000000
F0010000006757900002000000431178400041450500000000000000000201501290002001EFRAIN ALVAREZ                                    C000000002800000000000000000000000100010010000000000000000000000F0010000006757900220150129000101 00000000000000000000000000000000000000000000000000000000000000000000000000000000000000000000000000000000000000000N 00000000000NCONT   00    00000000000          00000000000000000000000000000000000000000000 000000000000000A000000000000000000000000000000000000000000000 000000000000000000000000000000000000000     00000000                                                                                                                        000000000000000000
