F0010000008525300001000080007019600011050500000000000000000201604240002001TRANSPORTES R.G. SAS                              D000000013000000000000000000000000100010010000000000000000000000F0010000008525300120160424000101 00000000000000000000000000000000000000000000000000000000000000000000000000000000000000000000000000000000000000000N 00000000000NCONT   00    00000000000          00000000000000000000000000000000000000000000 000000000000000A000000000000000000000000000000000000000000000 000000000000000000000000000000000000000     00000000                                                                                                                        000000000000000000
F0010000008525300002000080007019600041450500000000000000000201604240002001TRANSPORTES R.G. SAS                              C000000010000000000000000000000000100010010000000000000000000000F0010000008525300220160424000101 00000000000000000000000000000000000000000000000000000000000000000000000000000000000000000000000000000000000000000N 00000000000NCONT   00    00000000000          00000000000000000000000000000000000000000000 000000000000000A000000000000000000000000000000000000000000000 000000000000000000000000000000000000000     00000000                                                                                                                        000000000000000000
F0010000008525300003000080007019600042505000000000000000000201604240002001TRANSPORTES R.G. SAS                              C000000003000000000000000000000000100010010000000000000000000000F0010000008525300320160424000101 00000000000000000000000000000000000000000000000000000000000000000000000000000000000000000000000000000000000000000N 00000000000NCONT   00    00000000000          00000000000000000000000000000000000000000000 000000000000000A000000000000000000000000000000000000000000000 000000000000000000000000000000000000000     00000000                                                                                                                        000000000000000000
F0010000008525300004000080007019600023658300000000000000000201604240002001TRANSPORTES R.G. SAS                              C000000000080000000000000000000000100010010000000000000000000000F0010000008525300420160424000101 00000000000000000000000000000000000000000000000000000000000000000000000000000000000000000000000000000000000000000N 00000000000NCONT   00    00000000000          00000000000000000000000000000000000000000000 000000000000000A000000000000000000000000000000000000000000000 000000000000000000000000000000000000000     00000000                                                                                                                        000000000000000000
F0010000008525300005000080007019600013552100000000000000000201604240002001TRANSPORTES R.G. SAS                              D000000000080000000000000000000000100010010000000000000000000000F0010000008525300520160424000101 00000000000000000000000000000000000000000000000000000000000000000000000000000000000000000000000000000000000000000N 00000000000NCONT   00    00000000000          00000000000000000000000000000000000000000000 000000000000000A000000000000000000000000000000000000000000000 000000000000000000000000000000000000000     00000000                                                                                                                        000000000000000000
F0010000008525400001000080007019600011050500000000000000000201604240002001TRANSPORTES R.G. SAS                              D000000005000000000000000000000000100010010000000000000000000000F0010000008525400120160424000101 00000000000000000000000000000000000000000000000000000000000000000000000000000000000000000000000000000000000000000N 00000000000NCONT   00    00000000000          00000000000000000000000000000000000000000000 000000000000000A000000000000000000000000000000000000000000000 000000000000000000000000000000000000000     00000000                                                                                                                        000000000000000000
F0010000008525400002000080007019600041450500000000000000000201604240002001TRANSPORTES R.G. SAS                              C000000004000000000000000000000000100010010000000000000000000000F0010000008525400220160424000101 00000000000000000000000000000000000000000000000000000000000000000000000000000000000000000000000000000000000000000N 00000000000NCONT   00    00000000000          00000000000000000000000000000000000000000000 000000000000000A000000000000000000000000000000000000000000000 000000000000000000000000000000000000000     00000000                                                                                                                        000000000000000000
F0010000008525400003000080007019600042505000000000000000000201604240002001TRANSPORTES R.G. SAS                              C000000001000000000000000000000000100010010000000000000000000000F0010000008525400320160424000101 00000000000000000000000000000000000000000000000000000000000000000000000000000000000000000000000000000000000000000N 00000000000NCONT   00    00000000000          00000000000000000000000000000000000000000000 000000000000000A000000000000000000000000000000000000000000000 000000000000000000000000000000000000000     00000000                                                                                                                        000000000000000000
F0010000008525400004000080007019600023658300000000000000000201604240002001TRANSPORTES R.G. SAS                              C000000000032000000000000000000000100010010000000000000000000000F0010000008525400420160424000101 00000000000000000000000000000000000000000000000000000000000000000000000000000000000000000000000000000000000000000N 00000000000NCONT   00    00000000000          00000000000000000000000000000000000000000000 000000000000000A000000000000000000000000000000000000000000000 000000000000000000000000000000000000000     00000000                                                                                                                        000000000000000000
F0010000008525400005000080007019600013552100000000000000000201604240002001TRANSPORTES R.G. SAS                              D000000000032000000000000000000000100010010000000000000000000000F0010000008525400520160424000101 00000000000000000000000000000000000000000000000000000000000000000000000000000000000000000000000000000000000000000N 00000000000NCONT   00    00000000000          00000000000000000000000000000000000000000000 000000000000000A000000000000000000000000000000000000000000000 000000000000000000000000000000000000000     00000000                                                                                                                        000000000000000000
