F0010000009563500001000004544401900011050500000000000000000201612150002001FISIOTER                                          D000000001000000000000000000000000100010010000000000000000000000F0010000009563500120161215000101 00000000000000000000000000000000000000000000000000000000000000000000000000000000000000000000000000000000000000000N 00000000000NCONT   00    00000000000          00000000000000000000000000000000000000000000 000000000000000A000000000000000000000000000000000000000000000 000000000000000000000000000000000000000     00000000                                                                                                                        000000000000000000
F0010000009563500002000004544401900041450500000000000000000201612150002001FISIOTER                                          C000000000900000000000000000000000100010010000000000000000000000F0010000009563500220161215000101 00000000000000000000000000000000000000000000000000000000000000000000000000000000000000000000000000000000000000000N 00000000000NCONT   00    00000000000          00000000000000000000000000000000000000000000 000000000000000A000000000000000000000000000000000000000000000 000000000000000000000000000000000000000     00000000                                                                                                                        000000000000000000
F0010000009563500003000004544401900042505000000000000000000201612150002001FISIOTER                                          C000000000100000000000000000000000100010010000000000000000000000F0010000009563500320161215000101 00000000000000000000000000000000000000000000000000000000000000000000000000000000000000000000000000000000000000000N 00000000000NCONT   00    00000000000          00000000000000000000000000000000000000000000 000000000000000A000000000000000000000000000000000000000000000 000000000000000000000000000000000000000     00000000                                                                                                                        000000000000000000
F0010000009563500004000004544401900023658300000000000000000201612150002001FISIOTER                                          C000000000007200000000000000000000100010010000000000000000000000F0010000009563500420161215000101 00000000000000000000000000000000000000000000000000000000000000000000000000000000000000000000000000000000000000000N 00000000000NCONT   00    00000000000          00000000000000000000000000000000000000000000 000000000000000A000000000000000000000000000000000000000000000 000000000000000000000000000000000000000     00000000                                                                                                                        000000000000000000
F0010000009563500005000004544401900013552100000000000000000201612150002001FISIOTER                                          D000000000007200000000000000000000100010010000000000000000000000F0010000009563500520161215000101 00000000000000000000000000000000000000000000000000000000000000000000000000000000000000000000000000000000000000000N 00000000000NCONT   00    00000000000          00000000000000000000000000000000000000000000 000000000000000A000000000000000000000000000000000000000000000 000000000000000000000000000000000000000     00000000                                                                                                                        000000000000000000
F0010000009563600001000000856527900011050500000000000000000201612150002001CESAR AUGUSTO MIER BUELVAS                        D000000002000000000000000000000000100010010000000000000000000000F0010000009563600120161215000101 00000000000000000000000000000000000000000000000000000000000000000000000000000000000000000000000000000000000000000N 00000000000NCONT   00    00000000000          00000000000000000000000000000000000000000000 000000000000000A000000000000000000000000000000000000000000000 000000000000000000000000000000000000000     00000000                                                                                                                        000000000000000000
F0010000009563600002000000856527900041450500000000000000000201612150002001CESAR AUGUSTO MIER BUELVAS                        C000000001900000000000000000000000100010010000000000000000000000F0010000009563600220161215000101 00000000000000000000000000000000000000000000000000000000000000000000000000000000000000000000000000000000000000000N 00000000000NCONT   00    00000000000          00000000000000000000000000000000000000000000 000000000000000A000000000000000000000000000000000000000000000 000000000000000000000000000000000000000     00000000                                                                                                                        000000000000000000
F0010000009563600003000000856527900042505000000000000000000201612150002001CESAR AUGUSTO MIER BUELVAS                        C000000000100000000000000000000000100010010000000000000000000000F0010000009563600320161215000101 00000000000000000000000000000000000000000000000000000000000000000000000000000000000000000000000000000000000000000N 00000000000NCONT   00    00000000000          00000000000000000000000000000000000000000000 000000000000000A000000000000000000000000000000000000000000000 000000000000000000000000000000000000000     00000000                                                                                                                        000000000000000000
F0010000009563600004000000856527900023658300000000000000000201612150002001CESAR AUGUSTO MIER BUELVAS                        C000000000015200000000000000000000100010010000000000000000000000F0010000009563600420161215000101 00000000000000000000000000000000000000000000000000000000000000000000000000000000000000000000000000000000000000000N 00000000000NCONT   00    00000000000          00000000000000000000000000000000000000000000 000000000000000A000000000000000000000000000000000000000000000 000000000000000000000000000000000000000     00000000                                                                                                                        000000000000000000
F0010000009563600005000000856527900013552100000000000000000201612150002001CESAR AUGUSTO MIER BUELVAS                        D000000000015200000000000000000000100010010000000000000000000000F0010000009563600520161215000101 00000000000000000000000000000000000000000000000000000000000000000000000000000000000000000000000000000000000000000N 00000000000NCONT   00    00000000000          00000000000000000000000000000000000000000000 000000000000000A000000000000000000000000000000000000000000000 000000000000000000000000000000000000000     00000000                                                                                                                        000000000000000000
F0010000009563700001000090090690400011050500000000000000000201612150002001MX MOTORSPORTS                                    D000000005000000000000000000000000100010010000000000000000000000F0010000009563700120161215000101 00000000000000000000000000000000000000000000000000000000000000000000000000000000000000000000000000000000000000000N 00000000000NCONT   00    00000000000          00000000000000000000000000000000000000000000 000000000000000A000000000000000000000000000000000000000000000 000000000000000000000000000000000000000     00000000                                                                                                                        000000000000000000
F0010000009563700002000090090690400041450500000000000000000201612150002001MX MOTORSPORTS                                    C000000003800000000000000000000000100010010000000000000000000000F0010000009563700220161215000101 00000000000000000000000000000000000000000000000000000000000000000000000000000000000000000000000000000000000000000N 00000000000NCONT   00    00000000000          00000000000000000000000000000000000000000000 000000000000000A000000000000000000000000000000000000000000000 000000000000000000000000000000000000000     00000000                                                                                                                        000000000000000000
F0010000009563700003000090090690400042505000000000000000000201612150002001MX MOTORSPORTS                                    C000000001200000000000000000000000100010010000000000000000000000F0010000009563700320161215000101 00000000000000000000000000000000000000000000000000000000000000000000000000000000000000000000000000000000000000000N 00000000000NCONT   00    00000000000          00000000000000000000000000000000000000000000 000000000000000A000000000000000000000000000000000000000000000 000000000000000000000000000000000000000     00000000                                                                                                                        000000000000000000
F0010000009563700004000090090690400023658300000000000000000201612150002001MX MOTORSPORTS                                    C000000000030400000000000000000000100010010000000000000000000000F0010000009563700420161215000101 00000000000000000000000000000000000000000000000000000000000000000000000000000000000000000000000000000000000000000N 00000000000NCONT   00    00000000000          00000000000000000000000000000000000000000000 000000000000000A000000000000000000000000000000000000000000000 000000000000000000000000000000000000000     00000000                                                                                                                        000000000000000000
F0010000009563700005000090090690400013552100000000000000000201612150002001MX MOTORSPORTS                                    D000000000030400000000000000000000100010010000000000000000000000F0010000009563700520161215000101 00000000000000000000000000000000000000000000000000000000000000000000000000000000000000000000000000000000000000000N 00000000000NCONT   00    00000000000          00000000000000000000000000000000000000000000 000000000000000A000000000000000000000000000000000000000000000 000000000000000000000000000000000000000     00000000                                                                                                                        000000000000000000
F0010000009563800001000090041415100011050500000000000000000201612150002001N.T. SUMINISTROS DEL CARIBE                       D000000023100000000000000000000000100010010000000000000000000000F0010000009563800120161215000101 00000000000000000000000000000000000000000000000000000000000000000000000000000000000000000000000000000000000000000N 00000000000NCONT   00    00000000000          00000000000000000000000000000000000000000000 000000000000000A000000000000000000000000000000000000000000000 000000000000000000000000000000000000000     00000000                                                                                                                        000000000000000000
F0010000009563800002000090041415100041450500000000000000000201612150002001N.T. SUMINISTROS DEL CARIBE                       C000000022100000000000000000000000100010010000000000000000000000F0010000009563800220161215000101 00000000000000000000000000000000000000000000000000000000000000000000000000000000000000000000000000000000000000000N 00000000000NCONT   00    00000000000          00000000000000000000000000000000000000000000 000000000000000A000000000000000000000000000000000000000000000 000000000000000000000000000000000000000     00000000                                                                                                                        000000000000000000
F0010000009563800003000090041415100042505000000000000000000201612150002001N.T. SUMINISTROS DEL CARIBE                       C000000001000000000000000000000000100010010000000000000000000000F0010000009563800320161215000101 00000000000000000000000000000000000000000000000000000000000000000000000000000000000000000000000000000000000000000N 00000000000NCONT   00    00000000000          00000000000000000000000000000000000000000000 000000000000000A000000000000000000000000000000000000000000000 000000000000000000000000000000000000000     00000000                                                                                                                        000000000000000000
F0010000009563800004000090041415100023658300000000000000000201612150002001N.T. SUMINISTROS DEL CARIBE                       C000000000176800000000000000000000100010010000000000000000000000F0010000009563800420161215000101 00000000000000000000000000000000000000000000000000000000000000000000000000000000000000000000000000000000000000000N 00000000000NCONT   00    00000000000          00000000000000000000000000000000000000000000 000000000000000A000000000000000000000000000000000000000000000 000000000000000000000000000000000000000     00000000                                                                                                                        000000000000000000
F0010000009563800005000090041415100013552100000000000000000201612150002001N.T. SUMINISTROS DEL CARIBE                       D000000000176800000000000000000000100010010000000000000000000000F0010000009563800520161215000101 00000000000000000000000000000000000000000000000000000000000000000000000000000000000000000000000000000000000000000N 00000000000NCONT   00    00000000000          00000000000000000000000000000000000000000000 000000000000000A000000000000000000000000000000000000000000000 000000000000000000000000000000000000000     00000000                                                                                                                        000000000000000000
F0010000009563900001000090009800500013050500000000000000000201612150002001GLORIANT CHEMICHALS DE COLOMBIA LTDA              D000000042843000000000000000000000100010010000000000000000000000F0010000009563900120161215000101 00000000000000000000000000000000000000000000000000000000000000000000000000000000000000000000000000000000000000000N 00000000000NCONT   00    00000000000          00000000000000000000000000000000000000000000 000000000000000A000000000000000000000000000000000000000000000 000000000000000000000000000000000000000     00000000                                                                                                                        000000000000000000
F0010000009563900002000090009800500041450500000000000000000201612150002001GLORIANT CHEMICHALS DE COLOMBIA LTDA              C000000035400000000000000000000000100010010000000000000000000000F0010000009563900220161215000101 00000000000000000000000000000000000000000000000000000000000000000000000000000000000000000000000000000000000000000N 00000000000NCONT   00    00000000000          00000000000000000000000000000000000000000000 000000000000000A000000000000000000000000000000000000000000000 000000000000000000000000000000000000000     00000000                                                                                                                        000000000000000000
F0010000009563900003000090009800500042505000000000000000000201612150002001GLORIANT CHEMICHALS DE COLOMBIA LTDA              C000000007443000000000000000000000100010010000000000000000000000F0010000009563900320161215000101 00000000000000000000000000000000000000000000000000000000000000000000000000000000000000000000000000000000000000000N 00000000000NCONT   00    00000000000          00000000000000000000000000000000000000000000 000000000000000A000000000000000000000000000000000000000000000 000000000000000000000000000000000000000     00000000                                                                                                                        000000000000000000
F0010000009563900004000090009800500023658300000000000000000201612150002001GLORIANT CHEMICHALS DE COLOMBIA LTDA              C000000000283200000000000000000000100010010000000000000000000000F0010000009563900420161215000101 00000000000000000000000000000000000000000000000000000000000000000000000000000000000000000000000000000000000000000N 00000000000NCONT   00    00000000000          00000000000000000000000000000000000000000000 000000000000000A000000000000000000000000000000000000000000000 000000000000000000000000000000000000000     00000000                                                                                                                        000000000000000000
F0010000009563900005000090009800500013552100000000000000000201612150002001GLORIANT CHEMICHALS DE COLOMBIA LTDA              D000000000283200000000000000000000100010010000000000000000000000F0010000009563900520161215000101 00000000000000000000000000000000000000000000000000000000000000000000000000000000000000000000000000000000000000000N 00000000000NCONT   00    00000000000          00000000000000000000000000000000000000000000 000000000000000A000000000000000000000000000000000000000000000 000000000000000000000000000000000000000     00000000                                                                                                                        000000000000000000
F0010000009564000001000000871714900013050500000000000000000201612150002001ROLNAN DE LA ROSA  INSIGNARES                     D000000027218000000000000000000000100010010000000000000000000000F0010000009564000120161215000101 00000000000000000000000000000000000000000000000000000000000000000000000000000000000000000000000000000000000000000N 00000000000NCONT   00    00000000000          00000000000000000000000000000000000000000000 000000000000000A000000000000000000000000000000000000000000000 000000000000000000000000000000000000000     00000000                                                                                                                        000000000000000000
F0010000009564000002000000871714900041450500000000000000000201612150002001ROLNAN DE LA ROSA  INSIGNARES                     C000000022528000000000000000000000100010010000000000000000000000F0010000009564000220161215000101 00000000000000000000000000000000000000000000000000000000000000000000000000000000000000000000000000000000000000000N 00000000000NCONT   00    00000000000          00000000000000000000000000000000000000000000 000000000000000A000000000000000000000000000000000000000000000 000000000000000000000000000000000000000     00000000                                                                                                                        000000000000000000
F0010000009564000003000000871714900042505000000000000000000201612150002001ROLNAN DE LA ROSA  INSIGNARES                     C000000004690000000000000000000000100010010000000000000000000000F0010000009564000320161215000101 00000000000000000000000000000000000000000000000000000000000000000000000000000000000000000000000000000000000000000N 00000000000NCONT   00    00000000000          00000000000000000000000000000000000000000000 000000000000000A000000000000000000000000000000000000000000000 000000000000000000000000000000000000000     00000000                                                                                                                        000000000000000000
F0010000009564000004000000871714900023658300000000000000000201612150002001ROLNAN DE LA ROSA  INSIGNARES                     C000000000180200000000000000000000100010010000000000000000000000F0010000009564000420161215000101 00000000000000000000000000000000000000000000000000000000000000000000000000000000000000000000000000000000000000000N 00000000000NCONT   00    00000000000          00000000000000000000000000000000000000000000 000000000000000A000000000000000000000000000000000000000000000 000000000000000000000000000000000000000     00000000                                                                                                                        000000000000000000
F0010000009564000005000000871714900013552100000000000000000201612150002001ROLNAN DE LA ROSA  INSIGNARES                     D000000000180200000000000000000000100010010000000000000000000000F0010000009564000520161215000101 00000000000000000000000000000000000000000000000000000000000000000000000000000000000000000000000000000000000000000N 00000000000NCONT   00    00000000000          00000000000000000000000000000000000000000000 000000000000000A000000000000000000000000000000000000000000000 000000000000000000000000000000000000000     00000000                                                                                                                        000000000000000000
F0010000009564100001000086000490200013050500000000000000000201612150002001PROV. DE PAPELES ANDINA S.A.                      D000000000000000000000000000000000100010010000000000000000000000F0010000009564100120161215000101 00000000000000000000000000000000000000000000000000000000000000000000000000000000000000000000000000000000000000000N 00000000000NCONT   00    00000000000          00000000000000000000000000000000000000000000 000000000000000A000000000000000000000000000000000000000000000 000000000000000000000000000000000000000     00000000                                                                                                                        000000000000000000
F0010000009564100002000086000490200041450500000000000000000201612150002001PROV. DE PAPELES ANDINA S.A.                      C000000000000000000000000000000000100010010000000000000000000000F0010000009564100220161215000101 00000000000000000000000000000000000000000000000000000000000000000000000000000000000000000000000000000000000000000N 00000000000NCONT   00    00000000000          00000000000000000000000000000000000000000000 000000000000000A000000000000000000000000000000000000000000000 000000000000000000000000000000000000000     00000000                                                                                                                        000000000000000000
F0010000009564100003000086000490200042505000000000000000000201612150002001PROV. DE PAPELES ANDINA S.A.                      C000000000000000000000000000000000100010010000000000000000000000F0010000009564100320161215000101 00000000000000000000000000000000000000000000000000000000000000000000000000000000000000000000000000000000000000000N 00000000000NCONT   00    00000000000          00000000000000000000000000000000000000000000 000000000000000A000000000000000000000000000000000000000000000 000000000000000000000000000000000000000     00000000                                                                                                                        000000000000000000
F0010000009564100004000086000490200023658300000000000000000201612150002001PROV. DE PAPELES ANDINA S.A.                      C000000000000000000000000000000000100010010000000000000000000000F0010000009564100420161215000101 00000000000000000000000000000000000000000000000000000000000000000000000000000000000000000000000000000000000000000N 00000000000NCONT   00    00000000000          00000000000000000000000000000000000000000000 000000000000000A000000000000000000000000000000000000000000000 000000000000000000000000000000000000000     00000000                                                                                                                        000000000000000000
F0010000009564100005000086000490200013552100000000000000000201612150002001PROV. DE PAPELES ANDINA S.A.                      D000000000000000000000000000000000100010010000000000000000000000F0010000009564100520161215000101 00000000000000000000000000000000000000000000000000000000000000000000000000000000000000000000000000000000000000000N 00000000000NCONT   00    00000000000          00000000000000000000000000000000000000000000 000000000000000A000000000000000000000000000000000000000000000 000000000000000000000000000000000000000     00000000                                                                                                                        000000000000000000
F0010000009564200001000080022903500013050500000000000000000201612150002001TECNOGLASS S.A                                    D000000033173700000000000000000000100010010000000000000000000000F0010000009564200120161215000101 00000000000000000000000000000000000000000000000000000000000000000000000000000000000000000000000000000000000000000N 00000000000NCONT   00    00000000000          00000000000000000000000000000000000000000000 000000000000000A000000000000000000000000000000000000000000000 000000000000000000000000000000000000000     00000000                                                                                                                        000000000000000000
F0010000009564200002000080022903500041450500000000000000000201612150002001TECNOGLASS S.A                                    C000000029300000000000000000000000100010010000000000000000000000F0010000009564200220161215000101 00000000000000000000000000000000000000000000000000000000000000000000000000000000000000000000000000000000000000000N 00000000000NCONT   00    00000000000          00000000000000000000000000000000000000000000 000000000000000A000000000000000000000000000000000000000000000 000000000000000000000000000000000000000     00000000                                                                                                                        000000000000000000
F0010000009564200003000080022903500042505000000000000000000201612150002001TECNOGLASS S.A                                    C000000003873700000000000000000000100010010000000000000000000000F0010000009564200320161215000101 00000000000000000000000000000000000000000000000000000000000000000000000000000000000000000000000000000000000000000N 00000000000NCONT   00    00000000000          00000000000000000000000000000000000000000000 000000000000000A000000000000000000000000000000000000000000000 000000000000000000000000000000000000000     00000000                                                                                                                        000000000000000000
F0010000009564200004000080022903500023658300000000000000000201612150002001TECNOGLASS S.A                                    C000000000234400000000000000000000100010010000000000000000000000F0010000009564200420161215000101 00000000000000000000000000000000000000000000000000000000000000000000000000000000000000000000000000000000000000000N 00000000000NCONT   00    00000000000          00000000000000000000000000000000000000000000 000000000000000A000000000000000000000000000000000000000000000 000000000000000000000000000000000000000     00000000                                                                                                                        000000000000000000
F0010000009564200005000080022903500013552100000000000000000201612150002001TECNOGLASS S.A                                    D000000000234400000000000000000000100010010000000000000000000000F0010000009564200520161215000101 00000000000000000000000000000000000000000000000000000000000000000000000000000000000000000000000000000000000000000N 00000000000NCONT   00    00000000000          00000000000000000000000000000000000000000000 000000000000000A000000000000000000000000000000000000000000000 000000000000000000000000000000000000000     00000000                                                                                                                        000000000000000000
F0010000009564300001000080200863700013050500000000000000000201612150002001COPIN S.A.S                                       D000000049567600000000000000000000100010010000000000000000000000F0010000009564300120161215000101 00000000000000000000000000000000000000000000000000000000000000000000000000000000000000000000000000000000000000000N 00000000000NCONT   00    00000000000          00000000000000000000000000000000000000000000 000000000000000A000000000000000000000000000000000000000000000 000000000000000000000000000000000000000     00000000                                                                                                                        000000000000000000
F0010000009564300002000080200863700041450500000000000000000201612150002001COPIN S.A.S                                       C000000045288000000000000000000000100010010000000000000000000000F0010000009564300220161215000101 00000000000000000000000000000000000000000000000000000000000000000000000000000000000000000000000000000000000000000N 00000000000NCONT   00    00000000000          00000000000000000000000000000000000000000000 000000000000000A000000000000000000000000000000000000000000000 000000000000000000000000000000000000000     00000000                                                                                                                        000000000000000000
F0010000009564300003000080200863700042505000000000000000000201612150002001COPIN S.A.S                                       C000000004279600000000000000000000100010010000000000000000000000F0010000009564300320161215000101 00000000000000000000000000000000000000000000000000000000000000000000000000000000000000000000000000000000000000000N 00000000000NCONT   00    00000000000          00000000000000000000000000000000000000000000 000000000000000A000000000000000000000000000000000000000000000 000000000000000000000000000000000000000     00000000                                                                                                                        000000000000000000
F0010000009564300004000080200863700023658300000000000000000201612150002001COPIN S.A.S                                       C000000000362300000000000000000000100010010000000000000000000000F0010000009564300420161215000101 00000000000000000000000000000000000000000000000000000000000000000000000000000000000000000000000000000000000000000N 00000000000NCONT   00    00000000000          00000000000000000000000000000000000000000000 000000000000000A000000000000000000000000000000000000000000000 000000000000000000000000000000000000000     00000000                                                                                                                        000000000000000000
F0010000009564300005000080200863700013552100000000000000000201612150002001COPIN S.A.S                                       D000000000362300000000000000000000100010010000000000000000000000F0010000009564300520161215000101 00000000000000000000000000000000000000000000000000000000000000000000000000000000000000000000000000000000000000000N 00000000000NCONT   00    00000000000          00000000000000000000000000000000000000000000 000000000000000A000000000000000000000000000000000000000000000 000000000000000000000000000000000000000     00000000                                                                                                                        000000000000000000
F0010000009564400001000090035510100013050500000000000000000201612150002001GRAINGER COLOMBIA S.A.S.                          D000000029176800000000000000000000100010010000000000000000000000F0010000009564400120161215000101 00000000000000000000000000000000000000000000000000000000000000000000000000000000000000000000000000000000000000000N 00000000000NCONT   00    00000000000          00000000000000000000000000000000000000000000 000000000000000A000000000000000000000000000000000000000000000 000000000000000000000000000000000000000     00000000                                                                                                                        000000000000000000
F0010000009564400002000090035510100041450500000000000000000201612150002001GRAINGER COLOMBIA S.A.S.                          C000000018042700000000000000000000100010010000000000000000000000F0010000009564400220161215000101 00000000000000000000000000000000000000000000000000000000000000000000000000000000000000000000000000000000000000000N 00000000000NCONT   00    00000000000          00000000000000000000000000000000000000000000 000000000000000A000000000000000000000000000000000000000000000 000000000000000000000000000000000000000     00000000                                                                                                                        000000000000000000
F0010000009564400003000090035510100042505000000000000000000201612150002001GRAINGER COLOMBIA S.A.S.                          C000000011134100000000000000000000100010010000000000000000000000F0010000009564400320161215000101 00000000000000000000000000000000000000000000000000000000000000000000000000000000000000000000000000000000000000000N 00000000000NCONT   00    00000000000          00000000000000000000000000000000000000000000 000000000000000A000000000000000000000000000000000000000000000 000000000000000000000000000000000000000     00000000                                                                                                                        000000000000000000
F0010000009564400004000090035510100023658300000000000000000201612150002001GRAINGER COLOMBIA S.A.S.                          C000000000144300000000000000000000100010010000000000000000000000F0010000009564400420161215000101 00000000000000000000000000000000000000000000000000000000000000000000000000000000000000000000000000000000000000000N 00000000000NCONT   00    00000000000          00000000000000000000000000000000000000000000 000000000000000A000000000000000000000000000000000000000000000 000000000000000000000000000000000000000     00000000                                                                                                                        000000000000000000
F0010000009564400005000090035510100013552100000000000000000201612150002001GRAINGER COLOMBIA S.A.S.                          D000000000144300000000000000000000100010010000000000000000000000F0010000009564400520161215000101 00000000000000000000000000000000000000000000000000000000000000000000000000000000000000000000000000000000000000000N 00000000000NCONT   00    00000000000          00000000000000000000000000000000000000000000 000000000000000A000000000000000000000000000000000000000000000 000000000000000000000000000000000000000     00000000                                                                                                                        000000000000000000
F0010000009564500001000090049854300013050500000000000000000201612150002001TRAPOS INDUSTRIALES DE COLOMBIA SAS               D000000010995000000000000000000000100010010000000000000000000000F0010000009564500120161215000101 00000000000000000000000000000000000000000000000000000000000000000000000000000000000000000000000000000000000000000N 00000000000NCONT   00    00000000000          00000000000000000000000000000000000000000000 000000000000000A000000000000000000000000000000000000000000000 000000000000000000000000000000000000000     00000000                                                                                                                        000000000000000000
F0010000009564500002000090049854300041450500000000000000000201612150002001TRAPOS INDUSTRIALES DE COLOMBIA SAS               C000000010000000000000000000000000100010010000000000000000000000F0010000009564500220161215000101 00000000000000000000000000000000000000000000000000000000000000000000000000000000000000000000000000000000000000000N 00000000000NCONT   00    00000000000          00000000000000000000000000000000000000000000 000000000000000A000000000000000000000000000000000000000000000 000000000000000000000000000000000000000     00000000                                                                                                                        000000000000000000
F0010000009564500003000090049854300042505000000000000000000201612150002001TRAPOS INDUSTRIALES DE COLOMBIA SAS               C000000000995000000000000000000000100010010000000000000000000000F0010000009564500320161215000101 00000000000000000000000000000000000000000000000000000000000000000000000000000000000000000000000000000000000000000N 00000000000NCONT   00    00000000000          00000000000000000000000000000000000000000000 000000000000000A000000000000000000000000000000000000000000000 000000000000000000000000000000000000000     00000000                                                                                                                        000000000000000000
F0010000009564500004000090049854300023658300000000000000000201612150002001TRAPOS INDUSTRIALES DE COLOMBIA SAS               C000000000080000000000000000000000100010010000000000000000000000F0010000009564500420161215000101 00000000000000000000000000000000000000000000000000000000000000000000000000000000000000000000000000000000000000000N 00000000000NCONT   00    00000000000          00000000000000000000000000000000000000000000 000000000000000A000000000000000000000000000000000000000000000 000000000000000000000000000000000000000     00000000                                                                                                                        000000000000000000
F0010000009564500005000090049854300013552100000000000000000201612150002001TRAPOS INDUSTRIALES DE COLOMBIA SAS               D000000000080000000000000000000000100010010000000000000000000000F0010000009564500520161215000101 00000000000000000000000000000000000000000000000000000000000000000000000000000000000000000000000000000000000000000N 00000000000NCONT   00    00000000000          00000000000000000000000000000000000000000000 000000000000000A000000000000000000000000000000000000000000000 000000000000000000000000000000000000000     00000000                                                                                                                        000000000000000000
F0010000009564600001000007225583900011050500000000000000000201612150002001JORGE LUIS NIÑO BLANCO                           D000000001500000000000000000000000100010010000000000000000000000F0010000009564600120161215000101 00000000000000000000000000000000000000000000000000000000000000000000000000000000000000000000000000000000000000000N 00000000000NCONT   00    00000000000          00000000000000000000000000000000000000000000 000000000000000A000000000000000000000000000000000000000000000 000000000000000000000000000000000000000     00000000                                                                                                                        000000000000000000
F0010000009564600002000007225583900041450500000000000000000201612150002001JORGE LUIS NIÑO BLANCO                           C000000001200000000000000000000000100010010000000000000000000000F0010000009564600220161215000101 00000000000000000000000000000000000000000000000000000000000000000000000000000000000000000000000000000000000000000N 00000000000NCONT   00    00000000000          00000000000000000000000000000000000000000000 000000000000000A000000000000000000000000000000000000000000000 000000000000000000000000000000000000000     00000000                                                                                                                        000000000000000000
F0010000009564600003000007225583900042505000000000000000000201612150002001JORGE LUIS NIÑO BLANCO                           C000000000300000000000000000000000100010010000000000000000000000F0010000009564600320161215000101 00000000000000000000000000000000000000000000000000000000000000000000000000000000000000000000000000000000000000000N 00000000000NCONT   00    00000000000          00000000000000000000000000000000000000000000 000000000000000A000000000000000000000000000000000000000000000 000000000000000000000000000000000000000     00000000                                                                                                                        000000000000000000
F0010000009564600004000007225583900023658300000000000000000201612150002001JORGE LUIS NIÑO BLANCO                           C000000000009600000000000000000000100010010000000000000000000000F0010000009564600420161215000101 00000000000000000000000000000000000000000000000000000000000000000000000000000000000000000000000000000000000000000N 00000000000NCONT   00    00000000000          00000000000000000000000000000000000000000000 000000000000000A000000000000000000000000000000000000000000000 000000000000000000000000000000000000000     00000000                                                                                                                        000000000000000000
F0010000009564600005000007225583900013552100000000000000000201612150002001JORGE LUIS NIÑO BLANCO                           D000000000009600000000000000000000100010010000000000000000000000F0010000009564600520161215000101 00000000000000000000000000000000000000000000000000000000000000000000000000000000000000000000000000000000000000000N 00000000000NCONT   00    00000000000          00000000000000000000000000000000000000000000 000000000000000A000000000000000000000000000000000000000000000 000000000000000000000000000000000000000     00000000                                                                                                                        000000000000000000
F0010000009564700001000007225583900011050500000000000000000201612150002001JORGE LUIS NIÑO BLANCO                           D000000001800000000000000000000000100010010000000000000000000000F0010000009564700120161215000101 00000000000000000000000000000000000000000000000000000000000000000000000000000000000000000000000000000000000000000N 00000000000NCONT   00    00000000000          00000000000000000000000000000000000000000000 000000000000000A000000000000000000000000000000000000000000000 000000000000000000000000000000000000000     00000000                                                                                                                        000000000000000000
F0010000009564700002000007225583900041450500000000000000000201612150002001JORGE LUIS NIÑO BLANCO                           C000000001500000000000000000000000100010010000000000000000000000F0010000009564700220161215000101 00000000000000000000000000000000000000000000000000000000000000000000000000000000000000000000000000000000000000000N 00000000000NCONT   00    00000000000          00000000000000000000000000000000000000000000 000000000000000A000000000000000000000000000000000000000000000 000000000000000000000000000000000000000     00000000                                                                                                                        000000000000000000
F0010000009564700003000007225583900042505000000000000000000201612150002001JORGE LUIS NIÑO BLANCO                           C000000000300000000000000000000000100010010000000000000000000000F0010000009564700320161215000101 00000000000000000000000000000000000000000000000000000000000000000000000000000000000000000000000000000000000000000N 00000000000NCONT   00    00000000000          00000000000000000000000000000000000000000000 000000000000000A000000000000000000000000000000000000000000000 000000000000000000000000000000000000000     00000000                                                                                                                        000000000000000000
F0010000009564700004000007225583900023658300000000000000000201612150002001JORGE LUIS NIÑO BLANCO                           C000000000012000000000000000000000100010010000000000000000000000F0010000009564700420161215000101 00000000000000000000000000000000000000000000000000000000000000000000000000000000000000000000000000000000000000000N 00000000000NCONT   00    00000000000          00000000000000000000000000000000000000000000 000000000000000A000000000000000000000000000000000000000000000 000000000000000000000000000000000000000     00000000                                                                                                                        000000000000000000
F0010000009564700005000007225583900013552100000000000000000201612150002001JORGE LUIS NIÑO BLANCO                           D000000000012000000000000000000000100010010000000000000000000000F0010000009564700520161215000101 00000000000000000000000000000000000000000000000000000000000000000000000000000000000000000000000000000000000000000N 00000000000NCONT   00    00000000000          00000000000000000000000000000000000000000000 000000000000000A000000000000000000000000000000000000000000000 000000000000000000000000000000000000000     00000000                                                                                                                        000000000000000000
F0010000009564800001000007225583900011050500000000000000000201612150002001JORGE LUIS NIÑO BLANCO                           D000000001600000000000000000000000100010010000000000000000000000F0010000009564800120161215000101 00000000000000000000000000000000000000000000000000000000000000000000000000000000000000000000000000000000000000000N 00000000000NCONT   00    00000000000          00000000000000000000000000000000000000000000 000000000000000A000000000000000000000000000000000000000000000 000000000000000000000000000000000000000     00000000                                                                                                                        000000000000000000
F0010000009564800002000007225583900041450500000000000000000201612150002001JORGE LUIS NIÑO BLANCO                           C000000001300000000000000000000000100010010000000000000000000000F0010000009564800220161215000101 00000000000000000000000000000000000000000000000000000000000000000000000000000000000000000000000000000000000000000N 00000000000NCONT   00    00000000000          00000000000000000000000000000000000000000000 000000000000000A000000000000000000000000000000000000000000000 000000000000000000000000000000000000000     00000000                                                                                                                        000000000000000000
F0010000009564800003000007225583900042505000000000000000000201612150002001JORGE LUIS NIÑO BLANCO                           C000000000300000000000000000000000100010010000000000000000000000F0010000009564800320161215000101 00000000000000000000000000000000000000000000000000000000000000000000000000000000000000000000000000000000000000000N 00000000000NCONT   00    00000000000          00000000000000000000000000000000000000000000 000000000000000A000000000000000000000000000000000000000000000 000000000000000000000000000000000000000     00000000                                                                                                                        000000000000000000
F0010000009564800004000007225583900023658300000000000000000201612150002001JORGE LUIS NIÑO BLANCO                           C000000000010400000000000000000000100010010000000000000000000000F0010000009564800420161215000101 00000000000000000000000000000000000000000000000000000000000000000000000000000000000000000000000000000000000000000N 00000000000NCONT   00    00000000000          00000000000000000000000000000000000000000000 000000000000000A000000000000000000000000000000000000000000000 000000000000000000000000000000000000000     00000000                                                                                                                        000000000000000000
F0010000009564800005000007225583900013552100000000000000000201612150002001JORGE LUIS NIÑO BLANCO                           D000000000010400000000000000000000100010010000000000000000000000F0010000009564800520161215000101 00000000000000000000000000000000000000000000000000000000000000000000000000000000000000000000000000000000000000000N 00000000000NCONT   00    00000000000          00000000000000000000000000000000000000000000 000000000000000A000000000000000000000000000000000000000000000 000000000000000000000000000000000000000     00000000                                                                                                                        000000000000000000
F0010000009564900001000007225583900011050500000000000000000201612150002001JORGE LUIS NIÑO BLANCO                           D000000001500000000000000000000000100010010000000000000000000000F0010000009564900120161215000101 00000000000000000000000000000000000000000000000000000000000000000000000000000000000000000000000000000000000000000N 00000000000NCONT   00    00000000000          00000000000000000000000000000000000000000000 000000000000000A000000000000000000000000000000000000000000000 000000000000000000000000000000000000000     00000000                                                                                                                        000000000000000000
F0010000009564900002000007225583900041450500000000000000000201612150002001JORGE LUIS NIÑO BLANCO                           C000000001200000000000000000000000100010010000000000000000000000F0010000009564900220161215000101 00000000000000000000000000000000000000000000000000000000000000000000000000000000000000000000000000000000000000000N 00000000000NCONT   00    00000000000          00000000000000000000000000000000000000000000 000000000000000A000000000000000000000000000000000000000000000 000000000000000000000000000000000000000     00000000                                                                                                                        000000000000000000
F0010000009564900003000007225583900042505000000000000000000201612150002001JORGE LUIS NIÑO BLANCO                           C000000000300000000000000000000000100010010000000000000000000000F0010000009564900320161215000101 00000000000000000000000000000000000000000000000000000000000000000000000000000000000000000000000000000000000000000N 00000000000NCONT   00    00000000000          00000000000000000000000000000000000000000000 000000000000000A000000000000000000000000000000000000000000000 000000000000000000000000000000000000000     00000000                                                                                                                        000000000000000000
F0010000009564900004000007225583900023658300000000000000000201612150002001JORGE LUIS NIÑO BLANCO                           C000000000009600000000000000000000100010010000000000000000000000F0010000009564900420161215000101 00000000000000000000000000000000000000000000000000000000000000000000000000000000000000000000000000000000000000000N 00000000000NCONT   00    00000000000          00000000000000000000000000000000000000000000 000000000000000A000000000000000000000000000000000000000000000 000000000000000000000000000000000000000     00000000                                                                                                                        000000000000000000
F0010000009564900005000007225583900013552100000000000000000201612150002001JORGE LUIS NIÑO BLANCO                           D000000000009600000000000000000000100010010000000000000000000000F0010000009564900520161215000101 00000000000000000000000000000000000000000000000000000000000000000000000000000000000000000000000000000000000000000N 00000000000NCONT   00    00000000000          00000000000000000000000000000000000000000000 000000000000000A000000000000000000000000000000000000000000000 000000000000000000000000000000000000000     00000000                                                                                                                        000000000000000000
F0010000009565000001000083007900600013050500000000000000000201612150002001EXPRESO ANDINO DE CARGA SA                        D000000033400000000000000000000000100010010000000000000000000000F0010000009565000120161215000101 00000000000000000000000000000000000000000000000000000000000000000000000000000000000000000000000000000000000000000N 00000000000NCONT   00    00000000000          00000000000000000000000000000000000000000000 000000000000000A000000000000000000000000000000000000000000000 000000000000000000000000000000000000000     00000000                                                                                                                        000000000000000000
F0010000009565000002000083007900600041450500000000000000000201612150002001EXPRESO ANDINO DE CARGA SA                        C000000033000000000000000000000000100010010000000000000000000000F0010000009565000220161215000101 00000000000000000000000000000000000000000000000000000000000000000000000000000000000000000000000000000000000000000N 00000000000NCONT   00    00000000000          00000000000000000000000000000000000000000000 000000000000000A000000000000000000000000000000000000000000000 000000000000000000000000000000000000000     00000000                                                                                                                        000000000000000000
F0010000009565000003000083007900600042505000000000000000000201612150002001EXPRESO ANDINO DE CARGA SA                        C000000000400000000000000000000000100010010000000000000000000000F0010000009565000320161215000101 00000000000000000000000000000000000000000000000000000000000000000000000000000000000000000000000000000000000000000N 00000000000NCONT   00    00000000000          00000000000000000000000000000000000000000000 000000000000000A000000000000000000000000000000000000000000000 000000000000000000000000000000000000000     00000000                                                                                                                        000000000000000000
F0010000009565000004000083007900600023658300000000000000000201612150002001EXPRESO ANDINO DE CARGA SA                        C000000000264000000000000000000000100010010000000000000000000000F0010000009565000420161215000101 00000000000000000000000000000000000000000000000000000000000000000000000000000000000000000000000000000000000000000N 00000000000NCONT   00    00000000000          00000000000000000000000000000000000000000000 000000000000000A000000000000000000000000000000000000000000000 000000000000000000000000000000000000000     00000000                                                                                                                        000000000000000000
F0010000009565000005000083007900600013552100000000000000000201612150002001EXPRESO ANDINO DE CARGA SA                        D000000000264000000000000000000000100010010000000000000000000000F0010000009565000520161215000101 00000000000000000000000000000000000000000000000000000000000000000000000000000000000000000000000000000000000000000N 00000000000NCONT   00    00000000000          00000000000000000000000000000000000000000000 000000000000000A000000000000000000000000000000000000000000000 000000000000000000000000000000000000000     00000000                                                                                                                        000000000000000000
F0010000009565100001000083007900600013050500000000000000000201612150002001EXPRESO ANDINO DE CARGA SA                        D000000187540000000000000000000000100010010000000000000000000000F0010000009565100120161215000101 00000000000000000000000000000000000000000000000000000000000000000000000000000000000000000000000000000000000000000N 00000000000NCONT   00    00000000000          00000000000000000000000000000000000000000000 000000000000000A000000000000000000000000000000000000000000000 000000000000000000000000000000000000000     00000000                                                                                                                        000000000000000000
F0010000009565100002000083007900600041450500000000000000000201612150002001EXPRESO ANDINO DE CARGA SA                        C000000186840000000000000000000000100010010000000000000000000000F0010000009565100220161215000101 00000000000000000000000000000000000000000000000000000000000000000000000000000000000000000000000000000000000000000N 00000000000NCONT   00    00000000000          00000000000000000000000000000000000000000000 000000000000000A000000000000000000000000000000000000000000000 000000000000000000000000000000000000000     00000000                                                                                                                        000000000000000000
F0010000009565100003000083007900600042505000000000000000000201612150002001EXPRESO ANDINO DE CARGA SA                        C000000000700000000000000000000000100010010000000000000000000000F0010000009565100320161215000101 00000000000000000000000000000000000000000000000000000000000000000000000000000000000000000000000000000000000000000N 00000000000NCONT   00    00000000000          00000000000000000000000000000000000000000000 000000000000000A000000000000000000000000000000000000000000000 000000000000000000000000000000000000000     00000000                                                                                                                        000000000000000000
F0010000009565100004000083007900600023658300000000000000000201612150002001EXPRESO ANDINO DE CARGA SA                        C000000001494700000000000000000000100010010000000000000000000000F0010000009565100420161215000101 00000000000000000000000000000000000000000000000000000000000000000000000000000000000000000000000000000000000000000N 00000000000NCONT   00    00000000000          00000000000000000000000000000000000000000000 000000000000000A000000000000000000000000000000000000000000000 000000000000000000000000000000000000000     00000000                                                                                                                        000000000000000000
F0010000009565100005000083007900600013552100000000000000000201612150002001EXPRESO ANDINO DE CARGA SA                        D000000001494700000000000000000000100010010000000000000000000000F0010000009565100520161215000101 00000000000000000000000000000000000000000000000000000000000000000000000000000000000000000000000000000000000000000N 00000000000NCONT   00    00000000000          00000000000000000000000000000000000000000000 000000000000000A000000000000000000000000000000000000000000000 000000000000000000000000000000000000000     00000000                                                                                                                        000000000000000000
F0010000009565200001000090051955900011050500000000000000000201612150002001SURTIGLOBAL D Y R S.A.S.                          D000000003200000000000000000000000100010010000000000000000000000F0010000009565200120161215000101 00000000000000000000000000000000000000000000000000000000000000000000000000000000000000000000000000000000000000000N 00000000000NCONT   00    00000000000          00000000000000000000000000000000000000000000 000000000000000A000000000000000000000000000000000000000000000 000000000000000000000000000000000000000     00000000                                                                                                                        000000000000000000
F0010000009565200002000090051955900041450500000000000000000201612150002001SURTIGLOBAL D Y R S.A.S.                          C000000003000000000000000000000000100010010000000000000000000000F0010000009565200220161215000101 00000000000000000000000000000000000000000000000000000000000000000000000000000000000000000000000000000000000000000N 00000000000NCONT   00    00000000000          00000000000000000000000000000000000000000000 000000000000000A000000000000000000000000000000000000000000000 000000000000000000000000000000000000000     00000000                                                                                                                        000000000000000000
F0010000009565200003000090051955900042505000000000000000000201612150002001SURTIGLOBAL D Y R S.A.S.                          C000000000200000000000000000000000100010010000000000000000000000F0010000009565200320161215000101 00000000000000000000000000000000000000000000000000000000000000000000000000000000000000000000000000000000000000000N 00000000000NCONT   00    00000000000          00000000000000000000000000000000000000000000 000000000000000A000000000000000000000000000000000000000000000 000000000000000000000000000000000000000     00000000                                                                                                                        000000000000000000
F0010000009565200004000090051955900023658300000000000000000201612150002001SURTIGLOBAL D Y R S.A.S.                          C000000000024000000000000000000000100010010000000000000000000000F0010000009565200420161215000101 00000000000000000000000000000000000000000000000000000000000000000000000000000000000000000000000000000000000000000N 00000000000NCONT   00    00000000000          00000000000000000000000000000000000000000000 000000000000000A000000000000000000000000000000000000000000000 000000000000000000000000000000000000000     00000000                                                                                                                        000000000000000000
F0010000009565200005000090051955900013552100000000000000000201612150002001SURTIGLOBAL D Y R S.A.S.                          D000000000024000000000000000000000100010010000000000000000000000F0010000009565200520161215000101 00000000000000000000000000000000000000000000000000000000000000000000000000000000000000000000000000000000000000000N 00000000000NCONT   00    00000000000          00000000000000000000000000000000000000000000 000000000000000A000000000000000000000000000000000000000000000 000000000000000000000000000000000000000     00000000                                                                                                                        000000000000000000
F0010000009565300001000007225583900011050500000000000000000201612150002001JORGE LUIS NIÑO BLANCO                           D000000001500000000000000000000000100010010000000000000000000000F0010000009565300120161215000101 00000000000000000000000000000000000000000000000000000000000000000000000000000000000000000000000000000000000000000N 00000000000NCONT   00    00000000000          00000000000000000000000000000000000000000000 000000000000000A000000000000000000000000000000000000000000000 000000000000000000000000000000000000000     00000000                                                                                                                        000000000000000000
F0010000009565300002000007225583900041450500000000000000000201612150002001JORGE LUIS NIÑO BLANCO                           C000000001200000000000000000000000100010010000000000000000000000F0010000009565300220161215000101 00000000000000000000000000000000000000000000000000000000000000000000000000000000000000000000000000000000000000000N 00000000000NCONT   00    00000000000          00000000000000000000000000000000000000000000 000000000000000A000000000000000000000000000000000000000000000 000000000000000000000000000000000000000     00000000                                                                                                                        000000000000000000
F0010000009565300003000007225583900042505000000000000000000201612150002001JORGE LUIS NIÑO BLANCO                           C000000000300000000000000000000000100010010000000000000000000000F0010000009565300320161215000101 00000000000000000000000000000000000000000000000000000000000000000000000000000000000000000000000000000000000000000N 00000000000NCONT   00    00000000000          00000000000000000000000000000000000000000000 000000000000000A000000000000000000000000000000000000000000000 000000000000000000000000000000000000000     00000000                                                                                                                        000000000000000000
F0010000009565300004000007225583900023658300000000000000000201612150002001JORGE LUIS NIÑO BLANCO                           C000000000009600000000000000000000100010010000000000000000000000F0010000009565300420161215000101 00000000000000000000000000000000000000000000000000000000000000000000000000000000000000000000000000000000000000000N 00000000000NCONT   00    00000000000          00000000000000000000000000000000000000000000 000000000000000A000000000000000000000000000000000000000000000 000000000000000000000000000000000000000     00000000                                                                                                                        000000000000000000
F0010000009565300005000007225583900013552100000000000000000201612150002001JORGE LUIS NIÑO BLANCO                           D000000000009600000000000000000000100010010000000000000000000000F0010000009565300520161215000101 00000000000000000000000000000000000000000000000000000000000000000000000000000000000000000000000000000000000000000N 00000000000NCONT   00    00000000000          00000000000000000000000000000000000000000000 000000000000000A000000000000000000000000000000000000000000000 000000000000000000000000000000000000000     00000000                                                                                                                        000000000000000000
F0010000009565400001000080201112800013050500000000000000000201612150002001CANGURO INTERNATIONAL S.A.                        D000000217762800000000000000000000100010010000000000000000000000F0010000009565400120161215000101 00000000000000000000000000000000000000000000000000000000000000000000000000000000000000000000000000000000000000000N 00000000000NCONT   00    00000000000          00000000000000000000000000000000000000000000 000000000000000A000000000000000000000000000000000000000000000 000000000000000000000000000000000000000     00000000                                                                                                                        000000000000000000
F0010000009565400002000080201112800041450500000000000000000201612150002001CANGURO INTERNATIONAL S.A.                        C000000217762800000000000000000000100010010000000000000000000000F0010000009565400220161215000101 00000000000000000000000000000000000000000000000000000000000000000000000000000000000000000000000000000000000000000N 00000000000NCONT   00    00000000000          00000000000000000000000000000000000000000000 000000000000000A000000000000000000000000000000000000000000000 000000000000000000000000000000000000000     00000000                                                                                                                        000000000000000000
F0010000009565400003000080201112800042505000000000000000000201612150002001CANGURO INTERNATIONAL S.A.                        C000000000000000000000000000000000100010010000000000000000000000F0010000009565400320161215000101 00000000000000000000000000000000000000000000000000000000000000000000000000000000000000000000000000000000000000000N 00000000000NCONT   00    00000000000          00000000000000000000000000000000000000000000 000000000000000A000000000000000000000000000000000000000000000 000000000000000000000000000000000000000     00000000                                                                                                                        000000000000000000
F0010000009565400004000080201112800023658300000000000000000201612150002001CANGURO INTERNATIONAL S.A.                        C000000001742100000000000000000000100010010000000000000000000000F0010000009565400420161215000101 00000000000000000000000000000000000000000000000000000000000000000000000000000000000000000000000000000000000000000N 00000000000NCONT   00    00000000000          00000000000000000000000000000000000000000000 000000000000000A000000000000000000000000000000000000000000000 000000000000000000000000000000000000000     00000000                                                                                                                        000000000000000000
F0010000009565400005000080201112800013552100000000000000000201612150002001CANGURO INTERNATIONAL S.A.                        D000000001742100000000000000000000100010010000000000000000000000F0010000009565400520161215000101 00000000000000000000000000000000000000000000000000000000000000000000000000000000000000000000000000000000000000000N 00000000000NCONT   00    00000000000          00000000000000000000000000000000000000000000 000000000000000A000000000000000000000000000000000000000000000 000000000000000000000000000000000000000     00000000                                                                                                                        000000000000000000
F0010000009565500001000089030195100013050500000000000000000201612150002001LIBRERIA NACIONAL S.A.                            D000000029050000000000000000000000100010010000000000000000000000F0010000009565500120161215000101 00000000000000000000000000000000000000000000000000000000000000000000000000000000000000000000000000000000000000000N 00000000000NCONT   00    00000000000          00000000000000000000000000000000000000000000 000000000000000A000000000000000000000000000000000000000000000 000000000000000000000000000000000000000     00000000                                                                                                                        000000000000000000
F0010000009565500002000089030195100041450500000000000000000201612150002001LIBRERIA NACIONAL S.A.                            C000000023850000000000000000000000100010010000000000000000000000F0010000009565500220161215000101 00000000000000000000000000000000000000000000000000000000000000000000000000000000000000000000000000000000000000000N 00000000000NCONT   00    00000000000          00000000000000000000000000000000000000000000 000000000000000A000000000000000000000000000000000000000000000 000000000000000000000000000000000000000     00000000                                                                                                                        000000000000000000
F0010000009565500003000089030195100042505000000000000000000201612150002001LIBRERIA NACIONAL S.A.                            C000000005200000000000000000000000100010010000000000000000000000F0010000009565500320161215000101 00000000000000000000000000000000000000000000000000000000000000000000000000000000000000000000000000000000000000000N 00000000000NCONT   00    00000000000          00000000000000000000000000000000000000000000 000000000000000A000000000000000000000000000000000000000000000 000000000000000000000000000000000000000     00000000                                                                                                                        000000000000000000
F0010000009565500004000089030195100023658300000000000000000201612150002001LIBRERIA NACIONAL S.A.                            C000000000190800000000000000000000100010010000000000000000000000F0010000009565500420161215000101 00000000000000000000000000000000000000000000000000000000000000000000000000000000000000000000000000000000000000000N 00000000000NCONT   00    00000000000          00000000000000000000000000000000000000000000 000000000000000A000000000000000000000000000000000000000000000 000000000000000000000000000000000000000     00000000                                                                                                                        000000000000000000
F0010000009565500005000089030195100013552100000000000000000201612150002001LIBRERIA NACIONAL S.A.                            D000000000190800000000000000000000100010010000000000000000000000F0010000009565500520161215000101 00000000000000000000000000000000000000000000000000000000000000000000000000000000000000000000000000000000000000000N 00000000000NCONT   00    00000000000          00000000000000000000000000000000000000000000 000000000000000A000000000000000000000000000000000000000000000 000000000000000000000000000000000000000     00000000                                                                                                                        000000000000000000
F0010000009565600001000000744822500013050500000000000000000201612150002001LABORATORIO Y PERFUMERIA BORGE                    D000000011126000000000000000000000100010010000000000000000000000F0010000009565600120161215000101 00000000000000000000000000000000000000000000000000000000000000000000000000000000000000000000000000000000000000000N 00000000000NCONT   00    00000000000          00000000000000000000000000000000000000000000 000000000000000A000000000000000000000000000000000000000000000 000000000000000000000000000000000000000     00000000                                                                                                                        000000000000000000
F0010000009565600002000000744822500041450500000000000000000201612150002001LABORATORIO Y PERFUMERIA BORGE                    C000000004903000000000000000000000100010010000000000000000000000F0010000009565600220161215000101 00000000000000000000000000000000000000000000000000000000000000000000000000000000000000000000000000000000000000000N 00000000000NCONT   00    00000000000          00000000000000000000000000000000000000000000 000000000000000A000000000000000000000000000000000000000000000 000000000000000000000000000000000000000     00000000                                                                                                                        000000000000000000
F0010000009565600003000000744822500042505000000000000000000201612150002001LABORATORIO Y PERFUMERIA BORGE                    C000000006223000000000000000000000100010010000000000000000000000F0010000009565600320161215000101 00000000000000000000000000000000000000000000000000000000000000000000000000000000000000000000000000000000000000000N 00000000000NCONT   00    00000000000          00000000000000000000000000000000000000000000 000000000000000A000000000000000000000000000000000000000000000 000000000000000000000000000000000000000     00000000                                                                                                                        000000000000000000
F0010000009565600004000000744822500023658300000000000000000201612150002001LABORATORIO Y PERFUMERIA BORGE                    C000000000039200000000000000000000100010010000000000000000000000F0010000009565600420161215000101 00000000000000000000000000000000000000000000000000000000000000000000000000000000000000000000000000000000000000000N 00000000000NCONT   00    00000000000          00000000000000000000000000000000000000000000 000000000000000A000000000000000000000000000000000000000000000 000000000000000000000000000000000000000     00000000                                                                                                                        000000000000000000
F0010000009565600005000000744822500013552100000000000000000201612150002001LABORATORIO Y PERFUMERIA BORGE                    D000000000039200000000000000000000100010010000000000000000000000F0010000009565600520161215000101 00000000000000000000000000000000000000000000000000000000000000000000000000000000000000000000000000000000000000000N 00000000000NCONT   00    00000000000          00000000000000000000000000000000000000000000 000000000000000A000000000000000000000000000000000000000000000 000000000000000000000000000000000000000     00000000                                                                                                                        000000000000000000
F0010000009565700001000080202132300013050500000000000000000201612150002001SUM Y SERV DE LA COSTA LTDA                       D000000016230000000000000000000000100010010000000000000000000000F0010000009565700120161215000101 00000000000000000000000000000000000000000000000000000000000000000000000000000000000000000000000000000000000000000N 00000000000NCONT   00    00000000000          00000000000000000000000000000000000000000000 000000000000000A000000000000000000000000000000000000000000000 000000000000000000000000000000000000000     00000000                                                                                                                        000000000000000000
F0010000009565700002000080202132300041450500000000000000000201612150002001SUM Y SERV DE LA COSTA LTDA                       C000000014960000000000000000000000100010010000000000000000000000F0010000009565700220161215000101 00000000000000000000000000000000000000000000000000000000000000000000000000000000000000000000000000000000000000000N 00000000000NCONT   00    00000000000          00000000000000000000000000000000000000000000 000000000000000A000000000000000000000000000000000000000000000 000000000000000000000000000000000000000     00000000                                                                                                                        000000000000000000
F0010000009565700003000080202132300042505000000000000000000201612150002001SUM Y SERV DE LA COSTA LTDA                       C000000001270000000000000000000000100010010000000000000000000000F0010000009565700320161215000101 00000000000000000000000000000000000000000000000000000000000000000000000000000000000000000000000000000000000000000N 00000000000NCONT   00    00000000000          00000000000000000000000000000000000000000000 000000000000000A000000000000000000000000000000000000000000000 000000000000000000000000000000000000000     00000000                                                                                                                        000000000000000000
F0010000009565700004000080202132300023658300000000000000000201612150002001SUM Y SERV DE LA COSTA LTDA                       C000000000119700000000000000000000100010010000000000000000000000F0010000009565700420161215000101 00000000000000000000000000000000000000000000000000000000000000000000000000000000000000000000000000000000000000000N 00000000000NCONT   00    00000000000          00000000000000000000000000000000000000000000 000000000000000A000000000000000000000000000000000000000000000 000000000000000000000000000000000000000     00000000                                                                                                                        000000000000000000
F0010000009565700005000080202132300013552100000000000000000201612150002001SUM Y SERV DE LA COSTA LTDA                       D000000000119700000000000000000000100010010000000000000000000000F0010000009565700520161215000101 00000000000000000000000000000000000000000000000000000000000000000000000000000000000000000000000000000000000000000N 00000000000NCONT   00    00000000000          00000000000000000000000000000000000000000000 000000000000000A000000000000000000000000000000000000000000000 000000000000000000000000000000000000000     00000000                                                                                                                        000000000000000000
F0010000009565800001000080010983700013050500000000000000000201612150002001OHM LTDA                                          D000000055035000000000000000000000100010010000000000000000000000F0010000009565800120161215000101 00000000000000000000000000000000000000000000000000000000000000000000000000000000000000000000000000000000000000000N 00000000000NCONT   00    00000000000          00000000000000000000000000000000000000000000 000000000000000A000000000000000000000000000000000000000000000 000000000000000000000000000000000000000     00000000                                                                                                                        000000000000000000
F0010000009565800002000080010983700041450500000000000000000201612150002001OHM LTDA                                          C000000054510000000000000000000000100010010000000000000000000000F0010000009565800220161215000101 00000000000000000000000000000000000000000000000000000000000000000000000000000000000000000000000000000000000000000N 00000000000NCONT   00    00000000000          00000000000000000000000000000000000000000000 000000000000000A000000000000000000000000000000000000000000000 000000000000000000000000000000000000000     00000000                                                                                                                        000000000000000000
F0010000009565800003000080010983700042505000000000000000000201612150002001OHM LTDA                                          C000000000525000000000000000000000100010010000000000000000000000F0010000009565800320161215000101 00000000000000000000000000000000000000000000000000000000000000000000000000000000000000000000000000000000000000000N 00000000000NCONT   00    00000000000          00000000000000000000000000000000000000000000 000000000000000A000000000000000000000000000000000000000000000 000000000000000000000000000000000000000     00000000                                                                                                                        000000000000000000
F0010000009565800004000080010983700023658300000000000000000201612150002001OHM LTDA                                          C000000000436100000000000000000000100010010000000000000000000000F0010000009565800420161215000101 00000000000000000000000000000000000000000000000000000000000000000000000000000000000000000000000000000000000000000N 00000000000NCONT   00    00000000000          00000000000000000000000000000000000000000000 000000000000000A000000000000000000000000000000000000000000000 000000000000000000000000000000000000000     00000000                                                                                                                        000000000000000000
F0010000009565800005000080010983700013552100000000000000000201612150002001OHM LTDA                                          D000000000436100000000000000000000100010010000000000000000000000F0010000009565800520161215000101 00000000000000000000000000000000000000000000000000000000000000000000000000000000000000000000000000000000000000000N 00000000000NCONT   00    00000000000          00000000000000000000000000000000000000000000 000000000000000A000000000000000000000000000000000000000000000 000000000000000000000000000000000000000     00000000                                                                                                                        000000000000000000
F0010000009565900001000080012418800013050500000000000000000201612150002001DISTRITEC S.A.S                                   D000000005574000000000000000000000100010010000000000000000000000F0010000009565900120161215000101 00000000000000000000000000000000000000000000000000000000000000000000000000000000000000000000000000000000000000000N 00000000000NCONT   00    00000000000          00000000000000000000000000000000000000000000 000000000000000A000000000000000000000000000000000000000000000 000000000000000000000000000000000000000     00000000                                                                                                                        000000000000000000
F0010000009565900002000080012418800041450500000000000000000201612150002001DISTRITEC S.A.S                                   C000000005350000000000000000000000100010010000000000000000000000F0010000009565900220161215000101 00000000000000000000000000000000000000000000000000000000000000000000000000000000000000000000000000000000000000000N 00000000000NCONT   00    00000000000          00000000000000000000000000000000000000000000 000000000000000A000000000000000000000000000000000000000000000 000000000000000000000000000000000000000     00000000                                                                                                                        000000000000000000
F0010000009565900003000080012418800042505000000000000000000201612150002001DISTRITEC S.A.S                                   C000000000224000000000000000000000100010010000000000000000000000F0010000009565900320161215000101 00000000000000000000000000000000000000000000000000000000000000000000000000000000000000000000000000000000000000000N 00000000000NCONT   00    00000000000          00000000000000000000000000000000000000000000 000000000000000A000000000000000000000000000000000000000000000 000000000000000000000000000000000000000     00000000                                                                                                                        000000000000000000
F0010000009565900004000080012418800023658300000000000000000201612150002001DISTRITEC S.A.S                                   C000000000042800000000000000000000100010010000000000000000000000F0010000009565900420161215000101 00000000000000000000000000000000000000000000000000000000000000000000000000000000000000000000000000000000000000000N 00000000000NCONT   00    00000000000          00000000000000000000000000000000000000000000 000000000000000A000000000000000000000000000000000000000000000 000000000000000000000000000000000000000     00000000                                                                                                                        000000000000000000
F0010000009565900005000080012418800013552100000000000000000201612150002001DISTRITEC S.A.S                                   D000000000042800000000000000000000100010010000000000000000000000F0010000009565900520161215000101 00000000000000000000000000000000000000000000000000000000000000000000000000000000000000000000000000000000000000000N 00000000000NCONT   00    00000000000          00000000000000000000000000000000000000000000 000000000000000A000000000000000000000000000000000000000000000 000000000000000000000000000000000000000     00000000                                                                                                                        000000000000000000
F0010000009566000001000001022529300013050500000000000000000201612150002001ALBERTO ALVAREZ ISAZA                             D000000006960000000000000000000000100010010000000000000000000000F0010000009566000120161215000101 00000000000000000000000000000000000000000000000000000000000000000000000000000000000000000000000000000000000000000N 00000000000NCONT   00    00000000000          00000000000000000000000000000000000000000000 000000000000000A000000000000000000000000000000000000000000000 000000000000000000000000000000000000000     00000000                                                                                                                        000000000000000000
F0010000009566000002000001022529300041450500000000000000000201612150002001ALBERTO ALVAREZ ISAZA                             C000000006860000000000000000000000100010010000000000000000000000F0010000009566000220161215000101 00000000000000000000000000000000000000000000000000000000000000000000000000000000000000000000000000000000000000000N 00000000000NCONT   00    00000000000          00000000000000000000000000000000000000000000 000000000000000A000000000000000000000000000000000000000000000 000000000000000000000000000000000000000     00000000                                                                                                                        000000000000000000
F0010000009566000003000001022529300042505000000000000000000201612150002001ALBERTO ALVAREZ ISAZA                             C000000000100000000000000000000000100010010000000000000000000000F0010000009566000320161215000101 00000000000000000000000000000000000000000000000000000000000000000000000000000000000000000000000000000000000000000N 00000000000NCONT   00    00000000000          00000000000000000000000000000000000000000000 000000000000000A000000000000000000000000000000000000000000000 000000000000000000000000000000000000000     00000000                                                                                                                        000000000000000000
F0010000009566000004000001022529300023658300000000000000000201612150002001ALBERTO ALVAREZ ISAZA                             C000000000054900000000000000000000100010010000000000000000000000F0010000009566000420161215000101 00000000000000000000000000000000000000000000000000000000000000000000000000000000000000000000000000000000000000000N 00000000000NCONT   00    00000000000          00000000000000000000000000000000000000000000 000000000000000A000000000000000000000000000000000000000000000 000000000000000000000000000000000000000     00000000                                                                                                                        000000000000000000
F0010000009566000005000001022529300013552100000000000000000201612150002001ALBERTO ALVAREZ ISAZA                             D000000000054900000000000000000000100010010000000000000000000000F0010000009566000520161215000101 00000000000000000000000000000000000000000000000000000000000000000000000000000000000000000000000000000000000000000N 00000000000NCONT   00    00000000000          00000000000000000000000000000000000000000000 000000000000000A000000000000000000000000000000000000000000000 000000000000000000000000000000000000000     00000000                                                                                                                        000000000000000000
F0010000009566100001000007090373900011050500000000000000000201612150002001CACHARRERIA LOS MARINILLOS                        D000000070000000000000000000000000100010010000000000000000000000F0010000009566100120161215000101 00000000000000000000000000000000000000000000000000000000000000000000000000000000000000000000000000000000000000000N 00000000000NCONT   00    00000000000          00000000000000000000000000000000000000000000 000000000000000A000000000000000000000000000000000000000000000 000000000000000000000000000000000000000     00000000                                                                                                                        000000000000000000
F0010000009566100002000007090373900041450500000000000000000201612150002001CACHARRERIA LOS MARINILLOS                        C000000062000000000000000000000000100010010000000000000000000000F0010000009566100220161215000101 00000000000000000000000000000000000000000000000000000000000000000000000000000000000000000000000000000000000000000N 00000000000NCONT   00    00000000000          00000000000000000000000000000000000000000000 000000000000000A000000000000000000000000000000000000000000000 000000000000000000000000000000000000000     00000000                                                                                                                        000000000000000000
F0010000009566100003000007090373900042505000000000000000000201612150002001CACHARRERIA LOS MARINILLOS                        C000000008000000000000000000000000100010010000000000000000000000F0010000009566100320161215000101 00000000000000000000000000000000000000000000000000000000000000000000000000000000000000000000000000000000000000000N 00000000000NCONT   00    00000000000          00000000000000000000000000000000000000000000 000000000000000A000000000000000000000000000000000000000000000 000000000000000000000000000000000000000     00000000                                                                                                                        000000000000000000
F0010000009566100004000007090373900023658300000000000000000201612150002001CACHARRERIA LOS MARINILLOS                        C000000000496000000000000000000000100010010000000000000000000000F0010000009566100420161215000101 00000000000000000000000000000000000000000000000000000000000000000000000000000000000000000000000000000000000000000N 00000000000NCONT   00    00000000000          00000000000000000000000000000000000000000000 000000000000000A000000000000000000000000000000000000000000000 000000000000000000000000000000000000000     00000000                                                                                                                        000000000000000000
F0010000009566100005000007090373900013552100000000000000000201612150002001CACHARRERIA LOS MARINILLOS                        D000000000496000000000000000000000100010010000000000000000000000F0010000009566100520161215000101 00000000000000000000000000000000000000000000000000000000000000000000000000000000000000000000000000000000000000000N 00000000000NCONT   00    00000000000          00000000000000000000000000000000000000000000 000000000000000A000000000000000000000000000000000000000000000 000000000000000000000000000000000000000     00000000                                                                                                                        000000000000000000
F0010000009566200001000089010952800013050500000000000000000201612150002001IND. LITOGRAF. BOSTON S.A.S.                      D000000035160000000000000000000000100010010000000000000000000000F0010000009566200120161215000101 00000000000000000000000000000000000000000000000000000000000000000000000000000000000000000000000000000000000000000N 00000000000NCONT   00    00000000000          00000000000000000000000000000000000000000000 000000000000000A000000000000000000000000000000000000000000000 000000000000000000000000000000000000000     00000000                                                                                                                        000000000000000000
F0010000009566200002000089010952800041450500000000000000000201612150002001IND. LITOGRAF. BOSTON S.A.S.                      C000000032710000000000000000000000100010010000000000000000000000F0010000009566200220161215000101 00000000000000000000000000000000000000000000000000000000000000000000000000000000000000000000000000000000000000000N 00000000000NCONT   00    00000000000          00000000000000000000000000000000000000000000 000000000000000A000000000000000000000000000000000000000000000 000000000000000000000000000000000000000     00000000                                                                                                                        000000000000000000
F0010000009566200003000089010952800042505000000000000000000201612150002001IND. LITOGRAF. BOSTON S.A.S.                      C000000002450000000000000000000000100010010000000000000000000000F0010000009566200320161215000101 00000000000000000000000000000000000000000000000000000000000000000000000000000000000000000000000000000000000000000N 00000000000NCONT   00    00000000000          00000000000000000000000000000000000000000000 000000000000000A000000000000000000000000000000000000000000000 000000000000000000000000000000000000000     00000000                                                                                                                        000000000000000000
F0010000009566200004000089010952800023658300000000000000000201612150002001IND. LITOGRAF. BOSTON S.A.S.                      C000000000261700000000000000000000100010010000000000000000000000F0010000009566200420161215000101 00000000000000000000000000000000000000000000000000000000000000000000000000000000000000000000000000000000000000000N 00000000000NCONT   00    00000000000          00000000000000000000000000000000000000000000 000000000000000A000000000000000000000000000000000000000000000 000000000000000000000000000000000000000     00000000                                                                                                                        000000000000000000
F0010000009566200005000089010952800013552100000000000000000201612150002001IND. LITOGRAF. BOSTON S.A.S.                      D000000000261700000000000000000000100010010000000000000000000000F0010000009566200520161215000101 00000000000000000000000000000000000000000000000000000000000000000000000000000000000000000000000000000000000000000N 00000000000NCONT   00    00000000000          00000000000000000000000000000000000000000000 000000000000000A000000000000000000000000000000000000000000000 000000000000000000000000000000000000000     00000000                                                                                                                        000000000000000000
F0010000009566300001000000431178400013050500000000000000000201612150002001EFRAIN ALVAREZ                                    D000000015095000000000000000000000100010010000000000000000000000F0010000009566300120161215000101 00000000000000000000000000000000000000000000000000000000000000000000000000000000000000000000000000000000000000000N 00000000000NCONT   00    00000000000          00000000000000000000000000000000000000000000 000000000000000A000000000000000000000000000000000000000000000 000000000000000000000000000000000000000     00000000                                                                                                                        000000000000000000
F0010000009566300002000000431178400041450500000000000000000201612150002001EFRAIN ALVAREZ                                    C000000013520000000000000000000000100010010000000000000000000000F0010000009566300220161215000101 00000000000000000000000000000000000000000000000000000000000000000000000000000000000000000000000000000000000000000N 00000000000NCONT   00    00000000000          00000000000000000000000000000000000000000000 000000000000000A000000000000000000000000000000000000000000000 000000000000000000000000000000000000000     00000000                                                                                                                        000000000000000000
F0010000009566300003000000431178400042505000000000000000000201612150002001EFRAIN ALVAREZ                                    C000000001575000000000000000000000100010010000000000000000000000F0010000009566300320161215000101 00000000000000000000000000000000000000000000000000000000000000000000000000000000000000000000000000000000000000000N 00000000000NCONT   00    00000000000          00000000000000000000000000000000000000000000 000000000000000A000000000000000000000000000000000000000000000 000000000000000000000000000000000000000     00000000                                                                                                                        000000000000000000
F0010000009566300004000000431178400023658300000000000000000201612150002001EFRAIN ALVAREZ                                    C000000000108200000000000000000000100010010000000000000000000000F0010000009566300420161215000101 00000000000000000000000000000000000000000000000000000000000000000000000000000000000000000000000000000000000000000N 00000000000NCONT   00    00000000000          00000000000000000000000000000000000000000000 000000000000000A000000000000000000000000000000000000000000000 000000000000000000000000000000000000000     00000000                                                                                                                        000000000000000000
F0010000009566300005000000431178400013552100000000000000000201612150002001EFRAIN ALVAREZ                                    D000000000108200000000000000000000100010010000000000000000000000F0010000009566300520161215000101 00000000000000000000000000000000000000000000000000000000000000000000000000000000000000000000000000000000000000000N 00000000000NCONT   00    00000000000          00000000000000000000000000000000000000000000 000000000000000A000000000000000000000000000000000000000000000 000000000000000000000000000000000000000     00000000                                                                                                                        000000000000000000
F0010000009566400001000081102758700013050500000000000000000201612150002001C.I. ABRACOL S.A EMA                              D000000030662400000000000000000000100010010000000000000000000000F0010000009566400120161215000101 00000000000000000000000000000000000000000000000000000000000000000000000000000000000000000000000000000000000000000N 00000000000NCONT   00    00000000000          00000000000000000000000000000000000000000000 000000000000000A000000000000000000000000000000000000000000000 000000000000000000000000000000000000000     00000000                                                                                                                        000000000000000000
F0010000009566400002000081102758700041450500000000000000000201612150002001C.I. ABRACOL S.A EMA                              C000000021360000000000000000000000100010010000000000000000000000F0010000009566400220161215000101 00000000000000000000000000000000000000000000000000000000000000000000000000000000000000000000000000000000000000000N 00000000000NCONT   00    00000000000          00000000000000000000000000000000000000000000 000000000000000A000000000000000000000000000000000000000000000 000000000000000000000000000000000000000     00000000                                                                                                                        000000000000000000
