F0010000007095100001000090064982900013050500000000000000000201505050002001DISDIES S.A.S                                     D000000030477600000000000000000000100010010000000000000000000000F0010000007095100120150505000101 00000000000000000000000000000000000000000000000000000000000000000000000000000000000000000000000000000000000000000N 00000000000NCONT   00    00000000000          00000000000000000000000000000000000000000000 000000000000000A000000000000000000000000000000000000000000000 000000000000000000000000000000000000000     00000000                                                                                                                        000000000000000000
F0010000007095100002000090064982900041450500000000000000000201505050002001DISDIES S.A.S                                     C000000024947600000000000000000000100010010000000000000000000000F0010000007095100220150505000101 00000000000000000000000000000000000000000000000000000000000000000000000000000000000000000000000000000000000000000N 00000000000NCONT   00    00000000000          00000000000000000000000000000000000000000000 000000000000000A000000000000000000000000000000000000000000000 000000000000000000000000000000000000000     00000000                                                                                                                        000000000000000000
F0010000007095100003000090064982900042505000000000000000000201505050002001DISDIES S.A.S                                     C000000005530000000000000000000000100010010000000000000000000000F0010000007095100320150505000101 00000000000000000000000000000000000000000000000000000000000000000000000000000000000000000000000000000000000000000N 00000000000NCONT   00    00000000000          00000000000000000000000000000000000000000000 000000000000000A000000000000000000000000000000000000000000000 000000000000000000000000000000000000000     00000000                                                                                                                        000000000000000000
F0010000007095100004000090064982900023658300000000000000000201505050002001DISDIES S.A.S                                     C000000000199600000000000000000000100010010000000000000000000000F0010000007095100420150505000101 00000000000000000000000000000000000000000000000000000000000000000000000000000000000000000000000000000000000000000N 00000000000NCONT   00    00000000000          00000000000000000000000000000000000000000000 000000000000000A000000000000000000000000000000000000000000000 000000000000000000000000000000000000000     00000000                                                                                                                        000000000000000000
F0010000007095100005000090064982900013552100000000000000000201505050002001DISDIES S.A.S                                     D000000000199600000000000000000000100010010000000000000000000000F0010000007095100520150505000101 00000000000000000000000000000000000000000000000000000000000000000000000000000000000000000000000000000000000000000N 00000000000NCONT   00    00000000000          00000000000000000000000000000000000000000000 000000000000000A000000000000000000000000000000000000000000000 000000000000000000000000000000000000000     00000000                                                                                                                        000000000000000000
F0010000007095200001000080002300200013050500000000000000000201505050002001DISREL S.A.                                       D000000011400000000000000000000000100010010000000000000000000000F0010000007095200120150505000101 00000000000000000000000000000000000000000000000000000000000000000000000000000000000000000000000000000000000000000N 00000000000NCONT   00    00000000000          00000000000000000000000000000000000000000000 000000000000000A000000000000000000000000000000000000000000000 000000000000000000000000000000000000000     00000000                                                                                                                        000000000000000000
F0010000007095200002000080002300200041450500000000000000000201505050002001DISREL S.A.                                       C000000009120000000000000000000000100010010000000000000000000000F0010000007095200220150505000101 00000000000000000000000000000000000000000000000000000000000000000000000000000000000000000000000000000000000000000N 00000000000NCONT   00    00000000000          00000000000000000000000000000000000000000000 000000000000000A000000000000000000000000000000000000000000000 000000000000000000000000000000000000000     00000000                                                                                                                        000000000000000000
F0010000007095200003000080002300200042505000000000000000000201505050002001DISREL S.A.                                       C000000002280000000000000000000000100010010000000000000000000000F0010000007095200320150505000101 00000000000000000000000000000000000000000000000000000000000000000000000000000000000000000000000000000000000000000N 00000000000NCONT   00    00000000000          00000000000000000000000000000000000000000000 000000000000000A000000000000000000000000000000000000000000000 000000000000000000000000000000000000000     00000000                                                                                                                        000000000000000000
F0010000007095200004000080002300200023658300000000000000000201505050002001DISREL S.A.                                       C000000000073000000000000000000000100010010000000000000000000000F0010000007095200420150505000101 00000000000000000000000000000000000000000000000000000000000000000000000000000000000000000000000000000000000000000N 00000000000NCONT   00    00000000000          00000000000000000000000000000000000000000000 000000000000000A000000000000000000000000000000000000000000000 000000000000000000000000000000000000000     00000000                                                                                                                        000000000000000000
F0010000007095200005000080002300200013552100000000000000000201505050002001DISREL S.A.                                       D000000000073000000000000000000000100010010000000000000000000000F0010000007095200520150505000101 00000000000000000000000000000000000000000000000000000000000000000000000000000000000000000000000000000000000000000N 00000000000NCONT   00    00000000000          00000000000000000000000000000000000000000000 000000000000000A000000000000000000000000000000000000000000000 000000000000000000000000000000000000000     00000000                                                                                                                        000000000000000000
F0010000007095300001000089010526900013050500000000000000000201505050002001DISTRIBUCIONES CANAL Y CIA S.A.S                  D000000019053100000000000000000000100010010000000000000000000000F0010000007095300120150505000101 00000000000000000000000000000000000000000000000000000000000000000000000000000000000000000000000000000000000000000N 00000000000NCONT   00    00000000000          00000000000000000000000000000000000000000000 000000000000000A000000000000000000000000000000000000000000000 000000000000000000000000000000000000000     00000000                                                                                                                        000000000000000000
F0010000007095300002000089010526900041450500000000000000000201505050002001DISTRIBUCIONES CANAL Y CIA S.A.S                  C000000013440000000000000000000000100010010000000000000000000000F0010000007095300220150505000101 00000000000000000000000000000000000000000000000000000000000000000000000000000000000000000000000000000000000000000N 00000000000NCONT   00    00000000000          00000000000000000000000000000000000000000000 000000000000000A000000000000000000000000000000000000000000000 000000000000000000000000000000000000000     00000000                                                                                                                        000000000000000000
F0010000007095300003000089010526900042505000000000000000000201505050002001DISTRIBUCIONES CANAL Y CIA S.A.S                  C000000005613100000000000000000000100010010000000000000000000000F0010000007095300320150505000101 00000000000000000000000000000000000000000000000000000000000000000000000000000000000000000000000000000000000000000N 00000000000NCONT   00    00000000000          00000000000000000000000000000000000000000000 000000000000000A000000000000000000000000000000000000000000000 000000000000000000000000000000000000000     00000000                                                                                                                        000000000000000000
F0010000007095300004000089010526900023658300000000000000000201505050002001DISTRIBUCIONES CANAL Y CIA S.A.S                  C000000000107500000000000000000000100010010000000000000000000000F0010000007095300420150505000101 00000000000000000000000000000000000000000000000000000000000000000000000000000000000000000000000000000000000000000N 00000000000NCONT   00    00000000000          00000000000000000000000000000000000000000000 000000000000000A000000000000000000000000000000000000000000000 000000000000000000000000000000000000000     00000000                                                                                                                        000000000000000000
F0010000007095300005000089010526900013552100000000000000000201505050002001DISTRIBUCIONES CANAL Y CIA S.A.S                  D000000000107500000000000000000000100010010000000000000000000000F0010000007095300520150505000101 00000000000000000000000000000000000000000000000000000000000000000000000000000000000000000000000000000000000000000N 00000000000NCONT   00    00000000000          00000000000000000000000000000000000000000000 000000000000000A000000000000000000000000000000000000000000000 000000000000000000000000000000000000000     00000000                                                                                                                        000000000000000000
F0010000007095400001000002257933700013050500000000000000000201505050002001ROSA MARGARITA  PUCCINI SU HERRAMIENTAS Y ELECTRICD000000008397600000000000000000000100010010000000000000000000000F0010000007095400120150505000101 00000000000000000000000000000000000000000000000000000000000000000000000000000000000000000000000000000000000000000N 00000000000NCONT   00    00000000000          00000000000000000000000000000000000000000000 000000000000000A000000000000000000000000000000000000000000000 000000000000000000000000000000000000000     00000000                                                                                                                        000000000000000000
F0010000007095400002000002257933700041450500000000000000000201505050002001ROSA MARGARITA  PUCCINI SU HERRAMIENTAS Y ELECTRICC000000006710000000000000000000000100010010000000000000000000000F0010000007095400220150505000101 00000000000000000000000000000000000000000000000000000000000000000000000000000000000000000000000000000000000000000N 00000000000NCONT   00    00000000000          00000000000000000000000000000000000000000000 000000000000000A000000000000000000000000000000000000000000000 000000000000000000000000000000000000000     00000000                                                                                                                        000000000000000000
F0010000007095400003000002257933700042505000000000000000000201505050002001ROSA MARGARITA  PUCCINI SU HERRAMIENTAS Y ELECTRICC000000001687600000000000000000000100010010000000000000000000000F0010000007095400320150505000101 00000000000000000000000000000000000000000000000000000000000000000000000000000000000000000000000000000000000000000N 00000000000NCONT   00    00000000000          00000000000000000000000000000000000000000000 000000000000000A000000000000000000000000000000000000000000000 000000000000000000000000000000000000000     00000000                                                                                                                        000000000000000000
F0010000007095400004000002257933700023658300000000000000000201505050002001ROSA MARGARITA  PUCCINI SU HERRAMIENTAS Y ELECTRICC000000000053700000000000000000000100010010000000000000000000000F0010000007095400420150505000101 00000000000000000000000000000000000000000000000000000000000000000000000000000000000000000000000000000000000000000N 00000000000NCONT   00    00000000000          00000000000000000000000000000000000000000000 000000000000000A000000000000000000000000000000000000000000000 000000000000000000000000000000000000000     00000000                                                                                                                        000000000000000000
F0010000007095400005000002257933700013552100000000000000000201505050002001ROSA MARGARITA  PUCCINI SU HERRAMIENTAS Y ELECTRICD000000000053700000000000000000000100010010000000000000000000000F0010000007095400520150505000101 00000000000000000000000000000000000000000000000000000000000000000000000000000000000000000000000000000000000000000N 00000000000NCONT   00    00000000000          00000000000000000000000000000000000000000000 000000000000000A000000000000000000000000000000000000000000000 000000000000000000000000000000000000000     00000000                                                                                                                        000000000000000000
F0010000007095500001000000376399500013050500000000000000000201505050002001FORDPLAST                                         D000000005820000000000000000000000100010010000000000000000000000F0010000007095500120150505000101 00000000000000000000000000000000000000000000000000000000000000000000000000000000000000000000000000000000000000000N 00000000000NCONT   00    00000000000          00000000000000000000000000000000000000000000 000000000000000A000000000000000000000000000000000000000000000 000000000000000000000000000000000000000     00000000                                                                                                                        000000000000000000
F0010000007095500002000000376399500041450500000000000000000201505050002001FORDPLAST                                         C000000004870000000000000000000000100010010000000000000000000000F0010000007095500220150505000101 00000000000000000000000000000000000000000000000000000000000000000000000000000000000000000000000000000000000000000N 00000000000NCONT   00    00000000000          00000000000000000000000000000000000000000000 000000000000000A000000000000000000000000000000000000000000000 000000000000000000000000000000000000000     00000000                                                                                                                        000000000000000000
F0010000007095500003000000376399500042505000000000000000000201505050002001FORDPLAST                                         C000000000950000000000000000000000100010010000000000000000000000F0010000007095500320150505000101 00000000000000000000000000000000000000000000000000000000000000000000000000000000000000000000000000000000000000000N 00000000000NCONT   00    00000000000          00000000000000000000000000000000000000000000 000000000000000A000000000000000000000000000000000000000000000 000000000000000000000000000000000000000     00000000                                                                                                                        000000000000000000
F0010000007095500004000000376399500023658300000000000000000201505050002001FORDPLAST                                         C000000000039000000000000000000000100010010000000000000000000000F0010000007095500420150505000101 00000000000000000000000000000000000000000000000000000000000000000000000000000000000000000000000000000000000000000N 00000000000NCONT   00    00000000000          00000000000000000000000000000000000000000000 000000000000000A000000000000000000000000000000000000000000000 000000000000000000000000000000000000000     00000000                                                                                                                        000000000000000000
F0010000007095500005000000376399500013552100000000000000000201505050002001FORDPLAST                                         D000000000039000000000000000000000100010010000000000000000000000F0010000007095500520150505000101 00000000000000000000000000000000000000000000000000000000000000000000000000000000000000000000000000000000000000000N 00000000000NCONT   00    00000000000          00000000000000000000000000000000000000000000 000000000000000A000000000000000000000000000000000000000000000 000000000000000000000000000000000000000     00000000                                                                                                                        000000000000000000
F0010000007095600001000080019113900013050500000000000000000201505050002001COMERCIAL NOVAPEL LTDA                            D000000051595000000000000000000000100010010000000000000000000000F0010000007095600120150505000101 00000000000000000000000000000000000000000000000000000000000000000000000000000000000000000000000000000000000000000N 00000000000NCONT   00    00000000000          00000000000000000000000000000000000000000000 000000000000000A000000000000000000000000000000000000000000000 000000000000000000000000000000000000000     00000000                                                                                                                        000000000000000000
F0010000007095600002000080019113900041450500000000000000000201505050002001COMERCIAL NOVAPEL LTDA                            C000000045800000000000000000000000100010010000000000000000000000F0010000007095600220150505000101 00000000000000000000000000000000000000000000000000000000000000000000000000000000000000000000000000000000000000000N 00000000000NCONT   00    00000000000          00000000000000000000000000000000000000000000 000000000000000A000000000000000000000000000000000000000000000 000000000000000000000000000000000000000     00000000                                                                                                                        000000000000000000
F0010000007095600003000080019113900042505000000000000000000201505050002001COMERCIAL NOVAPEL LTDA                            C000000005795000000000000000000000100010010000000000000000000000F0010000007095600320150505000101 00000000000000000000000000000000000000000000000000000000000000000000000000000000000000000000000000000000000000000N 00000000000NCONT   00    00000000000          00000000000000000000000000000000000000000000 000000000000000A000000000000000000000000000000000000000000000 000000000000000000000000000000000000000     00000000                                                                                                                        000000000000000000
F0010000007095600004000080019113900023658300000000000000000201505050002001COMERCIAL NOVAPEL LTDA                            C000000000366400000000000000000000100010010000000000000000000000F0010000007095600420150505000101 00000000000000000000000000000000000000000000000000000000000000000000000000000000000000000000000000000000000000000N 00000000000NCONT   00    00000000000          00000000000000000000000000000000000000000000 000000000000000A000000000000000000000000000000000000000000000 000000000000000000000000000000000000000     00000000                                                                                                                        000000000000000000
F0010000007095600005000080019113900013552100000000000000000201505050002001COMERCIAL NOVAPEL LTDA                            D000000000366400000000000000000000100010010000000000000000000000F0010000007095600520150505000101 00000000000000000000000000000000000000000000000000000000000000000000000000000000000000000000000000000000000000000N 00000000000NCONT   00    00000000000          00000000000000000000000000000000000000000000 000000000000000A000000000000000000000000000000000000000000000 000000000000000000000000000000000000000     00000000                                                                                                                        000000000000000000
F0010000007095700001000080022903500013050500000000000000000201505050002001TECNOGLASS S.A                                    D000000055710700000000000000000000100010010000000000000000000000F0010000007095700120150505000101 00000000000000000000000000000000000000000000000000000000000000000000000000000000000000000000000000000000000000000N 00000000000NCONT   00    00000000000          00000000000000000000000000000000000000000000 000000000000000A000000000000000000000000000000000000000000000 000000000000000000000000000000000000000     00000000                                                                                                                        000000000000000000
F0010000007095700002000080022903500041450500000000000000000201505050002001TECNOGLASS S.A                                    C000000050928200000000000000000000100010010000000000000000000000F0010000007095700220150505000101 00000000000000000000000000000000000000000000000000000000000000000000000000000000000000000000000000000000000000000N 00000000000NCONT   00    00000000000          00000000000000000000000000000000000000000000 000000000000000A000000000000000000000000000000000000000000000 000000000000000000000000000000000000000     00000000                                                                                                                        000000000000000000
F0010000007095700003000080022903500042505000000000000000000201505050002001TECNOGLASS S.A                                    C000000004782500000000000000000000100010010000000000000000000000F0010000007095700320150505000101 00000000000000000000000000000000000000000000000000000000000000000000000000000000000000000000000000000000000000000N 00000000000NCONT   00    00000000000          00000000000000000000000000000000000000000000 000000000000000A000000000000000000000000000000000000000000000 000000000000000000000000000000000000000     00000000                                                                                                                        000000000000000000
F0010000007095700004000080022903500023658300000000000000000201505050002001TECNOGLASS S.A                                    C000000000407400000000000000000000100010010000000000000000000000F0010000007095700420150505000101 00000000000000000000000000000000000000000000000000000000000000000000000000000000000000000000000000000000000000000N 00000000000NCONT   00    00000000000          00000000000000000000000000000000000000000000 000000000000000A000000000000000000000000000000000000000000000 000000000000000000000000000000000000000     00000000                                                                                                                        000000000000000000
F0010000007095700005000080022903500013552100000000000000000201505050002001TECNOGLASS S.A                                    D000000000407400000000000000000000100010010000000000000000000000F0010000007095700520150505000101 00000000000000000000000000000000000000000000000000000000000000000000000000000000000000000000000000000000000000000N 00000000000NCONT   00    00000000000          00000000000000000000000000000000000000000000 000000000000000A000000000000000000000000000000000000000000000 000000000000000000000000000000000000000     00000000                                                                                                                        000000000000000000
F0010000007095800001000002245670100013050500000000000000000201505050002001YOLANDA  TOBON                                    D000000021959200000000000000000000100010010000000000000000000000F0010000007095800120150505000101 00000000000000000000000000000000000000000000000000000000000000000000000000000000000000000000000000000000000000000N 00000000000NCONT   00    00000000000          00000000000000000000000000000000000000000000 000000000000000A000000000000000000000000000000000000000000000 000000000000000000000000000000000000000     00000000                                                                                                                        000000000000000000
F0010000007095800002000002245670100041450500000000000000000201505050002001YOLANDA  TOBON                                    C000000016900000000000000000000000100010010000000000000000000000F0010000007095800220150505000101 00000000000000000000000000000000000000000000000000000000000000000000000000000000000000000000000000000000000000000N 00000000000NCONT   00    00000000000          00000000000000000000000000000000000000000000 000000000000000A000000000000000000000000000000000000000000000 000000000000000000000000000000000000000     00000000                                                                                                                        000000000000000000
F0010000007095800003000002245670100042505000000000000000000201505050002001YOLANDA  TOBON                                    C000000005059200000000000000000000100010010000000000000000000000F0010000007095800320150505000101 00000000000000000000000000000000000000000000000000000000000000000000000000000000000000000000000000000000000000000N 00000000000NCONT   00    00000000000          00000000000000000000000000000000000000000000 000000000000000A000000000000000000000000000000000000000000000 000000000000000000000000000000000000000     00000000                                                                                                                        000000000000000000
F0010000007095800004000002245670100023658300000000000000000201505050002001YOLANDA  TOBON                                    C000000000135200000000000000000000100010010000000000000000000000F0010000007095800420150505000101 00000000000000000000000000000000000000000000000000000000000000000000000000000000000000000000000000000000000000000N 00000000000NCONT   00    00000000000          00000000000000000000000000000000000000000000 000000000000000A000000000000000000000000000000000000000000000 000000000000000000000000000000000000000     00000000                                                                                                                        000000000000000000
F0010000007095800005000002245670100013552100000000000000000201505050002001YOLANDA  TOBON                                    D000000000135200000000000000000000100010010000000000000000000000F0010000007095800520150505000101 00000000000000000000000000000000000000000000000000000000000000000000000000000000000000000000000000000000000000000N 00000000000NCONT   00    00000000000          00000000000000000000000000000000000000000000 000000000000000A000000000000000000000000000000000000000000000 000000000000000000000000000000000000000     00000000                                                                                                                        000000000000000000
F0010000007095900001000080016665600013050500000000000000000201505050002001SUMICAL DE ANTIOQUIA S.A.S                        D000000027773500000000000000000000100010010000000000000000000000F0010000007095900120150505000101 00000000000000000000000000000000000000000000000000000000000000000000000000000000000000000000000000000000000000000N 00000000000NCONT   00    00000000000          00000000000000000000000000000000000000000000 000000000000000A000000000000000000000000000000000000000000000 000000000000000000000000000000000000000     00000000                                                                                                                        000000000000000000
F0010000007095900002000080016665600041450500000000000000000201505050002001SUMICAL DE ANTIOQUIA S.A.S                        C000000024100000000000000000000000100010010000000000000000000000F0010000007095900220150505000101 00000000000000000000000000000000000000000000000000000000000000000000000000000000000000000000000000000000000000000N 00000000000NCONT   00    00000000000          00000000000000000000000000000000000000000000 000000000000000A000000000000000000000000000000000000000000000 000000000000000000000000000000000000000     00000000                                                                                                                        000000000000000000
F0010000007095900003000080016665600042505000000000000000000201505050002001SUMICAL DE ANTIOQUIA S.A.S                        C000000003673500000000000000000000100010010000000000000000000000F0010000007095900320150505000101 00000000000000000000000000000000000000000000000000000000000000000000000000000000000000000000000000000000000000000N 00000000000NCONT   00    00000000000          00000000000000000000000000000000000000000000 000000000000000A000000000000000000000000000000000000000000000 000000000000000000000000000000000000000     00000000                                                                                                                        000000000000000000
F0010000007095900004000080016665600023658300000000000000000201505050002001SUMICAL DE ANTIOQUIA S.A.S                        C000000000192800000000000000000000100010010000000000000000000000F0010000007095900420150505000101 00000000000000000000000000000000000000000000000000000000000000000000000000000000000000000000000000000000000000000N 00000000000NCONT   00    00000000000          00000000000000000000000000000000000000000000 000000000000000A000000000000000000000000000000000000000000000 000000000000000000000000000000000000000     00000000                                                                                                                        000000000000000000
F0010000007095900005000080016665600013552100000000000000000201505050002001SUMICAL DE ANTIOQUIA S.A.S                        D000000000192800000000000000000000100010010000000000000000000000F0010000007095900520150505000101 00000000000000000000000000000000000000000000000000000000000000000000000000000000000000000000000000000000000000000N 00000000000NCONT   00    00000000000          00000000000000000000000000000000000000000000 000000000000000A000000000000000000000000000000000000000000000 000000000000000000000000000000000000000     00000000                                                                                                                        000000000000000000
F0010000007096000001000080004943800013050500000000000000000201505050002001PAPELERIA EL CID S.A.                             D000000021520000000000000000000000100010010000000000000000000000F0010000007096000120150505000101 00000000000000000000000000000000000000000000000000000000000000000000000000000000000000000000000000000000000000000N 00000000000NCONT   00    00000000000          00000000000000000000000000000000000000000000 000000000000000A000000000000000000000000000000000000000000000 000000000000000000000000000000000000000     00000000                                                                                                                        000000000000000000
F0010000007096000002000080004943800041450500000000000000000201505050002001PAPELERIA EL CID S.A.                             C000000019440000000000000000000000100010010000000000000000000000F0010000007096000220150505000101 00000000000000000000000000000000000000000000000000000000000000000000000000000000000000000000000000000000000000000N 00000000000NCONT   00    00000000000          00000000000000000000000000000000000000000000 000000000000000A000000000000000000000000000000000000000000000 000000000000000000000000000000000000000     00000000                                                                                                                        000000000000000000
F0010000007096000003000080004943800042505000000000000000000201505050002001PAPELERIA EL CID S.A.                             C000000002080000000000000000000000100010010000000000000000000000F0010000007096000320150505000101 00000000000000000000000000000000000000000000000000000000000000000000000000000000000000000000000000000000000000000N 00000000000NCONT   00    00000000000          00000000000000000000000000000000000000000000 000000000000000A000000000000000000000000000000000000000000000 000000000000000000000000000000000000000     00000000                                                                                                                        000000000000000000
F0010000007096000004000080004943800023658300000000000000000201505050002001PAPELERIA EL CID S.A.                             C000000000155500000000000000000000100010010000000000000000000000F0010000007096000420150505000101 00000000000000000000000000000000000000000000000000000000000000000000000000000000000000000000000000000000000000000N 00000000000NCONT   00    00000000000          00000000000000000000000000000000000000000000 000000000000000A000000000000000000000000000000000000000000000 000000000000000000000000000000000000000     00000000                                                                                                                        000000000000000000
F0010000007096000005000080004943800013552100000000000000000201505050002001PAPELERIA EL CID S.A.                             D000000000155500000000000000000000100010010000000000000000000000F0010000007096000520150505000101 00000000000000000000000000000000000000000000000000000000000000000000000000000000000000000000000000000000000000000N 00000000000NCONT   00    00000000000          00000000000000000000000000000000000000000000 000000000000000A000000000000000000000000000000000000000000000 000000000000000000000000000000000000000     00000000                                                                                                                        000000000000000000
F0010000007096100001000080016664500013050500000000000000000201505050002001TELAPLAS PANCER SAS                               D000000075363000000000000000000000100010010000000000000000000000F0010000007096100120150505000101 00000000000000000000000000000000000000000000000000000000000000000000000000000000000000000000000000000000000000000N 00000000000NCONT   00    00000000000          00000000000000000000000000000000000000000000 000000000000000A000000000000000000000000000000000000000000000 000000000000000000000000000000000000000     00000000                                                                                                                        000000000000000000
F0010000007096100002000080016664500041450500000000000000000201505050002001TELAPLAS PANCER SAS                               C000000064120000000000000000000000100010010000000000000000000000F0010000007096100220150505000101 00000000000000000000000000000000000000000000000000000000000000000000000000000000000000000000000000000000000000000N 00000000000NCONT   00    00000000000          00000000000000000000000000000000000000000000 000000000000000A000000000000000000000000000000000000000000000 000000000000000000000000000000000000000     00000000                                                                                                                        000000000000000000
F0010000007096100003000080016664500042505000000000000000000201505050002001TELAPLAS PANCER SAS                               C000000011243000000000000000000000100010010000000000000000000000F0010000007096100320150505000101 00000000000000000000000000000000000000000000000000000000000000000000000000000000000000000000000000000000000000000N 00000000000NCONT   00    00000000000          00000000000000000000000000000000000000000000 000000000000000A000000000000000000000000000000000000000000000 000000000000000000000000000000000000000     00000000                                                                                                                        000000000000000000
F0010000007096100004000080016664500023658300000000000000000201505050002001TELAPLAS PANCER SAS                               C000000000513000000000000000000000100010010000000000000000000000F0010000007096100420150505000101 00000000000000000000000000000000000000000000000000000000000000000000000000000000000000000000000000000000000000000N 00000000000NCONT   00    00000000000          00000000000000000000000000000000000000000000 000000000000000A000000000000000000000000000000000000000000000 000000000000000000000000000000000000000     00000000                                                                                                                        000000000000000000
F0010000007096100005000080016664500013552100000000000000000201505050002001TELAPLAS PANCER SAS                               D000000000513000000000000000000000100010010000000000000000000000F0010000007096100520150505000101 00000000000000000000000000000000000000000000000000000000000000000000000000000000000000000000000000000000000000000N 00000000000NCONT   00    00000000000          00000000000000000000000000000000000000000000 000000000000000A000000000000000000000000000000000000000000000 000000000000000000000000000000000000000     00000000                                                                                                                        000000000000000000
F0010000007096200001000090008711200013050500000000000000000201505050002001PACKAGING SUPPLIERS S.A.                          D000000037695400000000000000000000100010010000000000000000000000F0010000007096200120150505000101 00000000000000000000000000000000000000000000000000000000000000000000000000000000000000000000000000000000000000000N 00000000000NCONT   00    00000000000          00000000000000000000000000000000000000000000 000000000000000A000000000000000000000000000000000000000000000 000000000000000000000000000000000000000     00000000                                                                                                                        000000000000000000
F0010000007096200002000090008711200041450500000000000000000201505050002001PACKAGING SUPPLIERS S.A.                          C000000033982500000000000000000000100010010000000000000000000000F0010000007096200220150505000101 00000000000000000000000000000000000000000000000000000000000000000000000000000000000000000000000000000000000000000N 00000000000NCONT   00    00000000000          00000000000000000000000000000000000000000000 000000000000000A000000000000000000000000000000000000000000000 000000000000000000000000000000000000000     00000000                                                                                                                        000000000000000000
F0010000007096200003000090008711200042505000000000000000000201505050002001PACKAGING SUPPLIERS S.A.                          C000000003712900000000000000000000100010010000000000000000000000F0010000007096200320150505000101 00000000000000000000000000000000000000000000000000000000000000000000000000000000000000000000000000000000000000000N 00000000000NCONT   00    00000000000          00000000000000000000000000000000000000000000 000000000000000A000000000000000000000000000000000000000000000 000000000000000000000000000000000000000     00000000                                                                                                                        000000000000000000
F0010000007096200004000090008711200023658300000000000000000201505050002001PACKAGING SUPPLIERS S.A.                          C000000000271900000000000000000000100010010000000000000000000000F0010000007096200420150505000101 00000000000000000000000000000000000000000000000000000000000000000000000000000000000000000000000000000000000000000N 00000000000NCONT   00    00000000000          00000000000000000000000000000000000000000000 000000000000000A000000000000000000000000000000000000000000000 000000000000000000000000000000000000000     00000000                                                                                                                        000000000000000000
F0010000007096200005000090008711200013552100000000000000000201505050002001PACKAGING SUPPLIERS S.A.                          D000000000271900000000000000000000100010010000000000000000000000F0010000007096200520150505000101 00000000000000000000000000000000000000000000000000000000000000000000000000000000000000000000000000000000000000000N 00000000000NCONT   00    00000000000          00000000000000000000000000000000000000000000 000000000000000A000000000000000000000000000000000000000000000 000000000000000000000000000000000000000     00000000                                                                                                                        000000000000000000
F0010000007096300001000000748239700013050500000000000000000201505050002001RAFAEL NAVARRO URIBE                              D000000062789500000000000000000000100010010000000000000000000000F0010000007096300120150505000101 00000000000000000000000000000000000000000000000000000000000000000000000000000000000000000000000000000000000000000N 00000000000NCONT   00    00000000000          00000000000000000000000000000000000000000000 000000000000000A000000000000000000000000000000000000000000000 000000000000000000000000000000000000000     00000000                                                                                                                        000000000000000000
F0010000007096300002000000748239700041450500000000000000000201505050002001RAFAEL NAVARRO URIBE                              C000000043180000000000000000000000100010010000000000000000000000F0010000007096300220150505000101 00000000000000000000000000000000000000000000000000000000000000000000000000000000000000000000000000000000000000000N 00000000000NCONT   00    00000000000          00000000000000000000000000000000000000000000 000000000000000A000000000000000000000000000000000000000000000 000000000000000000000000000000000000000     00000000                                                                                                                        000000000000000000
F0010000007096300003000000748239700042505000000000000000000201505050002001RAFAEL NAVARRO URIBE                              C000000019609500000000000000000000100010010000000000000000000000F0010000007096300320150505000101 00000000000000000000000000000000000000000000000000000000000000000000000000000000000000000000000000000000000000000N 00000000000NCONT   00    00000000000          00000000000000000000000000000000000000000000 000000000000000A000000000000000000000000000000000000000000000 000000000000000000000000000000000000000     00000000                                                                                                                        000000000000000000
F0010000007096300004000000748239700023658300000000000000000201505050002001RAFAEL NAVARRO URIBE                              C000000000345400000000000000000000100010010000000000000000000000F0010000007096300420150505000101 00000000000000000000000000000000000000000000000000000000000000000000000000000000000000000000000000000000000000000N 00000000000NCONT   00    00000000000          00000000000000000000000000000000000000000000 000000000000000A000000000000000000000000000000000000000000000 000000000000000000000000000000000000000     00000000                                                                                                                        000000000000000000
F0010000007096300005000000748239700013552100000000000000000201505050002001RAFAEL NAVARRO URIBE                              D000000000345400000000000000000000100010010000000000000000000000F0010000007096300520150505000101 00000000000000000000000000000000000000000000000000000000000000000000000000000000000000000000000000000000000000000N 00000000000NCONT   00    00000000000          00000000000000000000000000000000000000000000 000000000000000A000000000000000000000000000000000000000000000 000000000000000000000000000000000000000     00000000                                                                                                                        000000000000000000
F0010000007096400001000089010260300013050500000000000000000201505050002001FEDERICO OSORIO A. S.A.                           D000000145478900000000000000000000100010010000000000000000000000F0010000007096400120150505000101 00000000000000000000000000000000000000000000000000000000000000000000000000000000000000000000000000000000000000000N 00000000000NCONT   00    00000000000          00000000000000000000000000000000000000000000 000000000000000A000000000000000000000000000000000000000000000 000000000000000000000000000000000000000     00000000                                                                                                                        000000000000000000
F0010000007096400002000089010260300041450500000000000000000201505050002001FEDERICO OSORIO A. S.A.                           C000000139140000000000000000000000100010010000000000000000000000F0010000007096400220150505000101 00000000000000000000000000000000000000000000000000000000000000000000000000000000000000000000000000000000000000000N 00000000000NCONT   00    00000000000          00000000000000000000000000000000000000000000 000000000000000A000000000000000000000000000000000000000000000 000000000000000000000000000000000000000     00000000                                                                                                                        000000000000000000
F0010000007096400003000089010260300042505000000000000000000201505050002001FEDERICO OSORIO A. S.A.                           C000000006338900000000000000000000100010010000000000000000000000F0010000007096400320150505000101 00000000000000000000000000000000000000000000000000000000000000000000000000000000000000000000000000000000000000000N 00000000000NCONT   00    00000000000          00000000000000000000000000000000000000000000 000000000000000A000000000000000000000000000000000000000000000 000000000000000000000000000000000000000     00000000                                                                                                                        000000000000000000
F0010000007096400004000089010260300023658300000000000000000201505050002001FEDERICO OSORIO A. S.A.                           C000000001113100000000000000000000100010010000000000000000000000F0010000007096400420150505000101 00000000000000000000000000000000000000000000000000000000000000000000000000000000000000000000000000000000000000000N 00000000000NCONT   00    00000000000          00000000000000000000000000000000000000000000 000000000000000A000000000000000000000000000000000000000000000 000000000000000000000000000000000000000     00000000                                                                                                                        000000000000000000
F0010000007096400005000089010260300013552100000000000000000201505050002001FEDERICO OSORIO A. S.A.                           D000000001113100000000000000000000100010010000000000000000000000F0010000007096400520150505000101 00000000000000000000000000000000000000000000000000000000000000000000000000000000000000000000000000000000000000000N 00000000000NCONT   00    00000000000          00000000000000000000000000000000000000000000 000000000000000A000000000000000000000000000000000000000000000 000000000000000000000000000000000000000     00000000                                                                                                                        000000000000000000
F0010000007096500001000080202094000013050500000000000000000201505050002001DISTRIB. OMAR ORREGO S.A.                         D000000067871300000000000000000000100010010000000000000000000000F0010000007096500120150505000101 00000000000000000000000000000000000000000000000000000000000000000000000000000000000000000000000000000000000000000N 00000000000NCONT   00    00000000000          00000000000000000000000000000000000000000000 000000000000000A000000000000000000000000000000000000000000000 000000000000000000000000000000000000000     00000000                                                                                                                        000000000000000000
F0010000007096500002000080202094000041450500000000000000000201505050002001DISTRIB. OMAR ORREGO S.A.                         C000000047320000000000000000000000100010010000000000000000000000F0010000007096500220150505000101 00000000000000000000000000000000000000000000000000000000000000000000000000000000000000000000000000000000000000000N 00000000000NCONT   00    00000000000          00000000000000000000000000000000000000000000 000000000000000A000000000000000000000000000000000000000000000 000000000000000000000000000000000000000     00000000                                                                                                                        000000000000000000
F0010000007096500003000080202094000042505000000000000000000201505050002001DISTRIB. OMAR ORREGO S.A.                         C000000020551300000000000000000000100010010000000000000000000000F0010000007096500320150505000101 00000000000000000000000000000000000000000000000000000000000000000000000000000000000000000000000000000000000000000N 00000000000NCONT   00    00000000000          00000000000000000000000000000000000000000000 000000000000000A000000000000000000000000000000000000000000000 000000000000000000000000000000000000000     00000000                                                                                                                        000000000000000000
F0010000007096500004000080202094000023658300000000000000000201505050002001DISTRIB. OMAR ORREGO S.A.                         C000000000378600000000000000000000100010010000000000000000000000F0010000007096500420150505000101 00000000000000000000000000000000000000000000000000000000000000000000000000000000000000000000000000000000000000000N 00000000000NCONT   00    00000000000          00000000000000000000000000000000000000000000 000000000000000A000000000000000000000000000000000000000000000 000000000000000000000000000000000000000     00000000                                                                                                                        000000000000000000
F0010000007096500005000080202094000013552100000000000000000201505050002001DISTRIB. OMAR ORREGO S.A.                         D000000000378600000000000000000000100010010000000000000000000000F0010000007096500520150505000101 00000000000000000000000000000000000000000000000000000000000000000000000000000000000000000000000000000000000000000N 00000000000NCONT   00    00000000000          00000000000000000000000000000000000000000000 000000000000000A000000000000000000000000000000000000000000000 000000000000000000000000000000000000000     00000000                                                                                                                        000000000000000000
F0010000007096600001000080202094000013050500000000000000000201505050002001DISTRIB. OMAR ORREGO S.A.                         D000000025493300000000000000000000100010010000000000000000000000F0010000007096600120150505000101 00000000000000000000000000000000000000000000000000000000000000000000000000000000000000000000000000000000000000000N 00000000000NCONT   00    00000000000          00000000000000000000000000000000000000000000 000000000000000A000000000000000000000000000000000000000000000 000000000000000000000000000000000000000     00000000                                                                                                                        000000000000000000
F0010000007096600002000080202094000041450500000000000000000201505050002001DISTRIB. OMAR ORREGO S.A.                         C000000016930000000000000000000000100010010000000000000000000000F0010000007096600220150505000101 00000000000000000000000000000000000000000000000000000000000000000000000000000000000000000000000000000000000000000N 00000000000NCONT   00    00000000000          00000000000000000000000000000000000000000000 000000000000000A000000000000000000000000000000000000000000000 000000000000000000000000000000000000000     00000000                                                                                                                        000000000000000000
F0010000007096600003000080202094000042505000000000000000000201505050002001DISTRIB. OMAR ORREGO S.A.                         C000000008563300000000000000000000100010010000000000000000000000F0010000007096600320150505000101 00000000000000000000000000000000000000000000000000000000000000000000000000000000000000000000000000000000000000000N 00000000000NCONT   00    00000000000          00000000000000000000000000000000000000000000 000000000000000A000000000000000000000000000000000000000000000 000000000000000000000000000000000000000     00000000                                                                                                                        000000000000000000
F0010000007096600004000080202094000023658300000000000000000201505050002001DISTRIB. OMAR ORREGO S.A.                         C000000000135400000000000000000000100010010000000000000000000000F0010000007096600420150505000101 00000000000000000000000000000000000000000000000000000000000000000000000000000000000000000000000000000000000000000N 00000000000NCONT   00    00000000000          00000000000000000000000000000000000000000000 000000000000000A000000000000000000000000000000000000000000000 000000000000000000000000000000000000000     00000000                                                                                                                        000000000000000000
F0010000007096600005000080202094000013552100000000000000000201505050002001DISTRIB. OMAR ORREGO S.A.                         D000000000135400000000000000000000100010010000000000000000000000F0010000007096600520150505000101 00000000000000000000000000000000000000000000000000000000000000000000000000000000000000000000000000000000000000000N 00000000000NCONT   00    00000000000          00000000000000000000000000000000000000000000 000000000000000A000000000000000000000000000000000000000000000 000000000000000000000000000000000000000     00000000                                                                                                                        000000000000000000
F0010000007096700001000090040928000013050500000000000000000201505050002001DISTRIBUCIONES FERRETERAS OTERO & AGUDELO SAS     D000000072103000000000000000000000100010010000000000000000000000F0010000007096700120150505000101 00000000000000000000000000000000000000000000000000000000000000000000000000000000000000000000000000000000000000000N 00000000000NCONT   00    00000000000          00000000000000000000000000000000000000000000 000000000000000A000000000000000000000000000000000000000000000 000000000000000000000000000000000000000     00000000                                                                                                                        000000000000000000
F0010000007096700002000090040928000041450500000000000000000201505050002001DISTRIBUCIONES FERRETERAS OTERO & AGUDELO SAS     C000000072103000000000000000000000100010010000000000000000000000F0010000007096700220150505000101 00000000000000000000000000000000000000000000000000000000000000000000000000000000000000000000000000000000000000000N 00000000000NCONT   00    00000000000          00000000000000000000000000000000000000000000 000000000000000A000000000000000000000000000000000000000000000 000000000000000000000000000000000000000     00000000                                                                                                                        000000000000000000
F0010000007096700003000090040928000042505000000000000000000201505050002001DISTRIBUCIONES FERRETERAS OTERO & AGUDELO SAS     C000000000000000000000000000000000100010010000000000000000000000F0010000007096700320150505000101 00000000000000000000000000000000000000000000000000000000000000000000000000000000000000000000000000000000000000000N 00000000000NCONT   00    00000000000          00000000000000000000000000000000000000000000 000000000000000A000000000000000000000000000000000000000000000 000000000000000000000000000000000000000     00000000                                                                                                                        000000000000000000
F0010000007096700004000090040928000023658300000000000000000201505050002001DISTRIBUCIONES FERRETERAS OTERO & AGUDELO SAS     C000000000576800000000000000000000100010010000000000000000000000F0010000007096700420150505000101 00000000000000000000000000000000000000000000000000000000000000000000000000000000000000000000000000000000000000000N 00000000000NCONT   00    00000000000          00000000000000000000000000000000000000000000 000000000000000A000000000000000000000000000000000000000000000 000000000000000000000000000000000000000     00000000                                                                                                                        000000000000000000
F0010000007096700005000090040928000013552100000000000000000201505050002001DISTRIBUCIONES FERRETERAS OTERO & AGUDELO SAS     D000000000576800000000000000000000100010010000000000000000000000F0010000007096700520150505000101 00000000000000000000000000000000000000000000000000000000000000000000000000000000000000000000000000000000000000000N 00000000000NCONT   00    00000000000          00000000000000000000000000000000000000000000 000000000000000A000000000000000000000000000000000000000000000 000000000000000000000000000000000000000     00000000                                                                                                                        000000000000000000
F0010000007096800001000081102758700013050500000000000000000201505050002001C.I. ABRACOL S.A EMA                              D000000038008800000000000000000000100010010000000000000000000000F0010000007096800120150505000101 00000000000000000000000000000000000000000000000000000000000000000000000000000000000000000000000000000000000000000N 00000000000NCONT   00    00000000000          00000000000000000000000000000000000000000000 000000000000000A000000000000000000000000000000000000000000000 000000000000000000000000000000000000000     00000000                                                                                                                        000000000000000000
F0010000007096800002000081102758700041450500000000000000000201505050002001C.I. ABRACOL S.A EMA                              C000000022416300000000000000000000100010010000000000000000000000F0010000007096800220150505000101 00000000000000000000000000000000000000000000000000000000000000000000000000000000000000000000000000000000000000000N 00000000000NCONT   00    00000000000          00000000000000000000000000000000000000000000 000000000000000A000000000000000000000000000000000000000000000 000000000000000000000000000000000000000     00000000                                                                                                                        000000000000000000
F0010000007096800003000081102758700041750100000000000000000201505050002001C.I. ABRACOL S.A EMA                              D000000000672500000000000000000000100010010000000000000000000000F0010000007096800320150505000101 00000000000000000000000000000000000000000000000000000000000000000000000000000000000000000000000000000000000000000N 00000000000NCONT   00    00000000000          00000000000000000000000000000000000000000000 000000000000000A000000000000000000000000000000000000000000000 000000000000000000000000000000000000000     00000000                                                                                                                        000000000000000000
F0010000007096800004000081102758700042505000000000000000000201505050002001C.I. ABRACOL S.A EMA                              C000000016265000000000000000000000100010010000000000000000000000F0010000007096800420150505000101 00000000000000000000000000000000000000000000000000000000000000000000000000000000000000000000000000000000000000000N 00000000000NCONT   00    00000000000          00000000000000000000000000000000000000000000 000000000000000A000000000000000000000000000000000000000000000 000000000000000000000000000000000000000     00000000                                                                                                                        000000000000000000
F0010000007096800005000081102758700023658300000000000000000201505050002001C.I. ABRACOL S.A EMA                              C000000000179300000000000000000000100010010000000000000000000000F0010000007096800520150505000101 00000000000000000000000000000000000000000000000000000000000000000000000000000000000000000000000000000000000000000N 00000000000NCONT   00    00000000000          00000000000000000000000000000000000000000000 000000000000000A000000000000000000000000000000000000000000000 000000000000000000000000000000000000000     00000000                                                                                                                        000000000000000000
F0010000007096800006000081102758700013552100000000000000000201505050002001C.I. ABRACOL S.A EMA                              D000000000179300000000000000000000100010010000000000000000000000F0010000007096800620150505000101 00000000000000000000000000000000000000000000000000000000000000000000000000000000000000000000000000000000000000000N 00000000000NCONT   00    00000000000          00000000000000000000000000000000000000000000 000000000000000A000000000000000000000000000000000000000000000 000000000000000000000000000000000000000     00000000                                                                                                                        000000000000000000
F0010000007096900001000090020547900013050500000000000000000201505050002001COMERCIALIZADORA DAC DEL CARIBE S.A.S.            D000000003953600000000000000000000100010010000000000000000000000F0010000007096900120150505000101 00000000000000000000000000000000000000000000000000000000000000000000000000000000000000000000000000000000000000000N 00000000000NCONT   00    00000000000          00000000000000000000000000000000000000000000 000000000000000A000000000000000000000000000000000000000000000 000000000000000000000000000000000000000     00000000                                                                                                                        000000000000000000
F0010000007096900002000090020547900041450500000000000000000201505050002001COMERCIALIZADORA DAC DEL CARIBE S.A.S.            C000000002700000000000000000000000100010010000000000000000000000F0010000007096900220150505000101 00000000000000000000000000000000000000000000000000000000000000000000000000000000000000000000000000000000000000000N 00000000000NCONT   00    00000000000          00000000000000000000000000000000000000000000 000000000000000A000000000000000000000000000000000000000000000 000000000000000000000000000000000000000     00000000                                                                                                                        000000000000000000
F0010000007096900003000090020547900042505000000000000000000201505050002001COMERCIALIZADORA DAC DEL CARIBE S.A.S.            C000000001253600000000000000000000100010010000000000000000000000F0010000007096900320150505000101 00000000000000000000000000000000000000000000000000000000000000000000000000000000000000000000000000000000000000000N 00000000000NCONT   00    00000000000          00000000000000000000000000000000000000000000 000000000000000A000000000000000000000000000000000000000000000 000000000000000000000000000000000000000     00000000                                                                                                                        000000000000000000
F0010000007096900004000090020547900023658300000000000000000201505050002001COMERCIALIZADORA DAC DEL CARIBE S.A.S.            C000000000021600000000000000000000100010010000000000000000000000F0010000007096900420150505000101 00000000000000000000000000000000000000000000000000000000000000000000000000000000000000000000000000000000000000000N 00000000000NCONT   00    00000000000          00000000000000000000000000000000000000000000 000000000000000A000000000000000000000000000000000000000000000 000000000000000000000000000000000000000     00000000                                                                                                                        000000000000000000
F0010000007096900005000090020547900013552100000000000000000201505050002001COMERCIALIZADORA DAC DEL CARIBE S.A.S.            D000000000021600000000000000000000100010010000000000000000000000F0010000007096900520150505000101 00000000000000000000000000000000000000000000000000000000000000000000000000000000000000000000000000000000000000000N 00000000000NCONT   00    00000000000          00000000000000000000000000000000000000000000 000000000000000A000000000000000000000000000000000000000000000 000000000000000000000000000000000000000     00000000                                                                                                                        000000000000000000
F0010000007097000001000090050863700013050500000000000000000201505050002001COMERCIALIZADORA PERFECT SAS                      D000000007814600000000000000000000100010010000000000000000000000F0010000007097000120150505000101 00000000000000000000000000000000000000000000000000000000000000000000000000000000000000000000000000000000000000000N 00000000000NCONT   00    00000000000          00000000000000000000000000000000000000000000 000000000000000A000000000000000000000000000000000000000000000 000000000000000000000000000000000000000     00000000                                                                                                                        000000000000000000
F0010000007097000002000090050863700041450500000000000000000201505050002001COMERCIALIZADORA PERFECT SAS                      C000000005264600000000000000000000100010010000000000000000000000F0010000007097000220150505000101 00000000000000000000000000000000000000000000000000000000000000000000000000000000000000000000000000000000000000000N 00000000000NCONT   00    00000000000          00000000000000000000000000000000000000000000 000000000000000A000000000000000000000000000000000000000000000 000000000000000000000000000000000000000     00000000                                                                                                                        000000000000000000
F0010000007097000003000090050863700042505000000000000000000201505050002001COMERCIALIZADORA PERFECT SAS                      C000000002550000000000000000000000100010010000000000000000000000F0010000007097000320150505000101 00000000000000000000000000000000000000000000000000000000000000000000000000000000000000000000000000000000000000000N 00000000000NCONT   00    00000000000          00000000000000000000000000000000000000000000 000000000000000A000000000000000000000000000000000000000000000 000000000000000000000000000000000000000     00000000                                                                                                                        000000000000000000
F0010000007097000004000090050863700023658300000000000000000201505050002001COMERCIALIZADORA PERFECT SAS                      C000000000042100000000000000000000100010010000000000000000000000F0010000007097000420150505000101 00000000000000000000000000000000000000000000000000000000000000000000000000000000000000000000000000000000000000000N 00000000000NCONT   00    00000000000          00000000000000000000000000000000000000000000 000000000000000A000000000000000000000000000000000000000000000 000000000000000000000000000000000000000     00000000                                                                                                                        000000000000000000
F0010000007097000005000090050863700013552100000000000000000201505050002001COMERCIALIZADORA PERFECT SAS                      D000000000042100000000000000000000100010010000000000000000000000F0010000007097000520150505000101 00000000000000000000000000000000000000000000000000000000000000000000000000000000000000000000000000000000000000000N 00000000000NCONT   00    00000000000          00000000000000000000000000000000000000000000 000000000000000A000000000000000000000000000000000000000000000 000000000000000000000000000000000000000     00000000                                                                                                                        000000000000000000
F0010000007097100001000004175790100013050500000000000000000201505050002001ROSIRIS FERIA HOYOS  (COSM. SHILLER)              D000000002000000000000000000000000100010010000000000000000000000F0010000007097100120150505000101 00000000000000000000000000000000000000000000000000000000000000000000000000000000000000000000000000000000000000000N 00000000000NCONT   00    00000000000          00000000000000000000000000000000000000000000 000000000000000A000000000000000000000000000000000000000000000 000000000000000000000000000000000000000     00000000                                                                                                                        000000000000000000
F0010000007097100002000004175790100041450500000000000000000201505050002001ROSIRIS FERIA HOYOS  (COSM. SHILLER)              C000000001500000000000000000000000100010010000000000000000000000F0010000007097100220150505000101 00000000000000000000000000000000000000000000000000000000000000000000000000000000000000000000000000000000000000000N 00000000000NCONT   00    00000000000          00000000000000000000000000000000000000000000 000000000000000A000000000000000000000000000000000000000000000 000000000000000000000000000000000000000     00000000                                                                                                                        000000000000000000
F0010000007097100003000004175790100042505000000000000000000201505050002001ROSIRIS FERIA HOYOS  (COSM. SHILLER)              C000000000500000000000000000000000100010010000000000000000000000F0010000007097100320150505000101 00000000000000000000000000000000000000000000000000000000000000000000000000000000000000000000000000000000000000000N 00000000000NCONT   00    00000000000          00000000000000000000000000000000000000000000 000000000000000A000000000000000000000000000000000000000000000 000000000000000000000000000000000000000     00000000                                                                                                                        000000000000000000
F0010000007097100004000004175790100023658300000000000000000201505050002001ROSIRIS FERIA HOYOS  (COSM. SHILLER)              C000000000012000000000000000000000100010010000000000000000000000F0010000007097100420150505000101 00000000000000000000000000000000000000000000000000000000000000000000000000000000000000000000000000000000000000000N 00000000000NCONT   00    00000000000          00000000000000000000000000000000000000000000 000000000000000A000000000000000000000000000000000000000000000 000000000000000000000000000000000000000     00000000                                                                                                                        000000000000000000
F0010000007097100005000004175790100013552100000000000000000201505050002001ROSIRIS FERIA HOYOS  (COSM. SHILLER)              D000000000012000000000000000000000100010010000000000000000000000F0010000007097100520150505000101 00000000000000000000000000000000000000000000000000000000000000000000000000000000000000000000000000000000000000000N 00000000000NCONT   00    00000000000          00000000000000000000000000000000000000000000 000000000000000A000000000000000000000000000000000000000000000 000000000000000000000000000000000000000     00000000                                                                                                                        000000000000000000
F0010000007097200001000107252647100013050500000000000000000201505050002001JHON BYRON DUQUE DONADO (BODEGA JHONIFER)         D000000003100000000000000000000000100010010000000000000000000000F0010000007097200120150505000101 00000000000000000000000000000000000000000000000000000000000000000000000000000000000000000000000000000000000000000N 00000000000NCONT   00    00000000000          00000000000000000000000000000000000000000000 000000000000000A000000000000000000000000000000000000000000000 000000000000000000000000000000000000000     00000000                                                                                                                        000000000000000000
F0010000007097200002000107252647100041450500000000000000000201505050002001JHON BYRON DUQUE DONADO (BODEGA JHONIFER)         C000000002500000000000000000000000100010010000000000000000000000F0010000007097200220150505000101 00000000000000000000000000000000000000000000000000000000000000000000000000000000000000000000000000000000000000000N 00000000000NCONT   00    00000000000          00000000000000000000000000000000000000000000 000000000000000A000000000000000000000000000000000000000000000 000000000000000000000000000000000000000     00000000                                                                                                                        000000000000000000
F0010000007097200003000107252647100042505000000000000000000201505050002001JHON BYRON DUQUE DONADO (BODEGA JHONIFER)         C000000000600000000000000000000000100010010000000000000000000000F0010000007097200320150505000101 00000000000000000000000000000000000000000000000000000000000000000000000000000000000000000000000000000000000000000N 00000000000NCONT   00    00000000000          00000000000000000000000000000000000000000000 000000000000000A000000000000000000000000000000000000000000000 000000000000000000000000000000000000000     00000000                                                                                                                        000000000000000000
F0010000007097200004000107252647100023658300000000000000000201505050002001JHON BYRON DUQUE DONADO (BODEGA JHONIFER)         C000000000020000000000000000000000100010010000000000000000000000F0010000007097200420150505000101 00000000000000000000000000000000000000000000000000000000000000000000000000000000000000000000000000000000000000000N 00000000000NCONT   00    00000000000          00000000000000000000000000000000000000000000 000000000000000A000000000000000000000000000000000000000000000 000000000000000000000000000000000000000     00000000                                                                                                                        000000000000000000
F0010000007097200005000107252647100013552100000000000000000201505050002001JHON BYRON DUQUE DONADO (BODEGA JHONIFER)         D000000000020000000000000000000000100010010000000000000000000000F0010000007097200520150505000101 00000000000000000000000000000000000000000000000000000000000000000000000000000000000000000000000000000000000000000N 00000000000NCONT   00    00000000000          00000000000000000000000000000000000000000000 000000000000000A000000000000000000000000000000000000000000000 000000000000000000000000000000000000000     00000000                                                                                                                        000000000000000000
F0010000007097300001000007215896800013050500000000000000000201505050002001EDDIER CIRO                                       D000000034079000000000000000000000100010010000000000000000000000F0010000007097300120150505000101 00000000000000000000000000000000000000000000000000000000000000000000000000000000000000000000000000000000000000000N 00000000000NCONT   00    00000000000          00000000000000000000000000000000000000000000 000000000000000A000000000000000000000000000000000000000000000 000000000000000000000000000000000000000     00000000                                                                                                                        000000000000000000
F0010000007097300002000007215896800041450500000000000000000201505050002001EDDIER CIRO                                       C000000027860000000000000000000000100010010000000000000000000000F0010000007097300220150505000101 00000000000000000000000000000000000000000000000000000000000000000000000000000000000000000000000000000000000000000N 00000000000NCONT   00    00000000000          00000000000000000000000000000000000000000000 000000000000000A000000000000000000000000000000000000000000000 000000000000000000000000000000000000000     00000000                                                                                                                        000000000000000000
F0010000007097300003000007215896800042505000000000000000000201505050002001EDDIER CIRO                                       C000000006219000000000000000000000100010010000000000000000000000F0010000007097300320150505000101 00000000000000000000000000000000000000000000000000000000000000000000000000000000000000000000000000000000000000000N 00000000000NCONT   00    00000000000          00000000000000000000000000000000000000000000 000000000000000A000000000000000000000000000000000000000000000 000000000000000000000000000000000000000     00000000                                                                                                                        000000000000000000
F0010000007097300004000007215896800023658300000000000000000201505050002001EDDIER CIRO                                       C000000000222900000000000000000000100010010000000000000000000000F0010000007097300420150505000101 00000000000000000000000000000000000000000000000000000000000000000000000000000000000000000000000000000000000000000N 00000000000NCONT   00    00000000000          00000000000000000000000000000000000000000000 000000000000000A000000000000000000000000000000000000000000000 000000000000000000000000000000000000000     00000000                                                                                                                        000000000000000000
F0010000007097300005000007215896800013552100000000000000000201505050002001EDDIER CIRO                                       D000000000222900000000000000000000100010010000000000000000000000F0010000007097300520150505000101 00000000000000000000000000000000000000000000000000000000000000000000000000000000000000000000000000000000000000000N 00000000000NCONT   00    00000000000          00000000000000000000000000000000000000000000 000000000000000A000000000000000000000000000000000000000000000 000000000000000000000000000000000000000     00000000                                                                                                                        000000000000000000
F0010000007097400001000089010272700013050500000000000000000201505050002001ALFONSOEME S.A.                                   D000000064696800000000000000000000100010010000000000000000000000F0010000007097400120150505000101 00000000000000000000000000000000000000000000000000000000000000000000000000000000000000000000000000000000000000000N 00000000000NCONT   00    00000000000          00000000000000000000000000000000000000000000 000000000000000A000000000000000000000000000000000000000000000 000000000000000000000000000000000000000     00000000                                                                                                                        000000000000000000
F0010000007097400002000089010272700041450500000000000000000201505050002001ALFONSOEME S.A.                                   C000000066818700000000000000000000100010010000000000000000000000F0010000007097400220150505000101 00000000000000000000000000000000000000000000000000000000000000000000000000000000000000000000000000000000000000000N 00000000000NCONT   00    00000000000          00000000000000000000000000000000000000000000 000000000000000A000000000000000000000000000000000000000000000 000000000000000000000000000000000000000     00000000                                                                                                                        000000000000000000
F0010000007097400003000089010272700041750100000000000000000201505050002001ALFONSOEME S.A.                                   D000000006681900000000000000000000100010010000000000000000000000F0010000007097400320150505000101 00000000000000000000000000000000000000000000000000000000000000000000000000000000000000000000000000000000000000000N 00000000000NCONT   00    00000000000          00000000000000000000000000000000000000000000 000000000000000A000000000000000000000000000000000000000000000 000000000000000000000000000000000000000     00000000                                                                                                                        000000000000000000
F0010000007097400004000089010272700042505000000000000000000201505050002001ALFONSOEME S.A.                                   C000000004560000000000000000000000100010010000000000000000000000F0010000007097400420150505000101 00000000000000000000000000000000000000000000000000000000000000000000000000000000000000000000000000000000000000000N 00000000000NCONT   00    00000000000          00000000000000000000000000000000000000000000 000000000000000A000000000000000000000000000000000000000000000 000000000000000000000000000000000000000     00000000                                                                                                                        000000000000000000
F0010000007097400005000089010272700023658300000000000000000201505050002001ALFONSOEME S.A.                                   C000000000534500000000000000000000100010010000000000000000000000F0010000007097400520150505000101 00000000000000000000000000000000000000000000000000000000000000000000000000000000000000000000000000000000000000000N 00000000000NCONT   00    00000000000          00000000000000000000000000000000000000000000 000000000000000A000000000000000000000000000000000000000000000 000000000000000000000000000000000000000     00000000                                                                                                                        000000000000000000
F0010000007097400006000089010272700013552100000000000000000201505050002001ALFONSOEME S.A.                                   D000000000534500000000000000000000100010010000000000000000000000F0010000007097400620150505000101 00000000000000000000000000000000000000000000000000000000000000000000000000000000000000000000000000000000000000000N 00000000000NCONT   00    00000000000          00000000000000000000000000000000000000000000 000000000000000A000000000000000000000000000000000000000000000 000000000000000000000000000000000000000     00000000                                                                                                                        000000000000000000
F0010000007097500001000090036646700013050500000000000000000201505050002001FERREPROYECTOS S.A.S                              D000000004200000000000000000000000100010010000000000000000000000F0010000007097500120150505000101 00000000000000000000000000000000000000000000000000000000000000000000000000000000000000000000000000000000000000000N 00000000000NCONT   00    00000000000          00000000000000000000000000000000000000000000 000000000000000A000000000000000000000000000000000000000000000 000000000000000000000000000000000000000     00000000                                                                                                                        000000000000000000
F0010000007097500002000090036646700041450500000000000000000201505050002001FERREPROYECTOS S.A.S                              C000000004100000000000000000000000100010010000000000000000000000F0010000007097500220150505000101 00000000000000000000000000000000000000000000000000000000000000000000000000000000000000000000000000000000000000000N 00000000000NCONT   00    00000000000          00000000000000000000000000000000000000000000 000000000000000A000000000000000000000000000000000000000000000 000000000000000000000000000000000000000     00000000                                                                                                                        000000000000000000
F0010000007097500003000090036646700042505000000000000000000201505050002001FERREPROYECTOS S.A.S                              C000000000100000000000000000000000100010010000000000000000000000F0010000007097500320150505000101 00000000000000000000000000000000000000000000000000000000000000000000000000000000000000000000000000000000000000000N 00000000000NCONT   00    00000000000          00000000000000000000000000000000000000000000 000000000000000A000000000000000000000000000000000000000000000 000000000000000000000000000000000000000     00000000                                                                                                                        000000000000000000
F0010000007097500004000090036646700023658300000000000000000201505050002001FERREPROYECTOS S.A.S                              C000000000032800000000000000000000100010010000000000000000000000F0010000007097500420150505000101 00000000000000000000000000000000000000000000000000000000000000000000000000000000000000000000000000000000000000000N 00000000000NCONT   00    00000000000          00000000000000000000000000000000000000000000 000000000000000A000000000000000000000000000000000000000000000 000000000000000000000000000000000000000     00000000                                                                                                                        000000000000000000
F0010000007097500005000090036646700013552100000000000000000201505050002001FERREPROYECTOS S.A.S                              D000000000032800000000000000000000100010010000000000000000000000F0010000007097500520150505000101 00000000000000000000000000000000000000000000000000000000000000000000000000000000000000000000000000000000000000000N 00000000000NCONT   00    00000000000          00000000000000000000000000000000000000000000 000000000000000A000000000000000000000000000000000000000000000 000000000000000000000000000000000000000     00000000                                                                                                                        000000000000000000
F0010000007097600001000000827614700013050500000000000000000201505050002001ALVARO  HERNAN  PEREZ ALVAREZ                     D000000005100000000000000000000000100010010000000000000000000000F0010000007097600120150505000101 00000000000000000000000000000000000000000000000000000000000000000000000000000000000000000000000000000000000000000N 00000000000NCONT   00    00000000000          00000000000000000000000000000000000000000000 000000000000000A000000000000000000000000000000000000000000000 000000000000000000000000000000000000000     00000000                                                                                                                        000000000000000000
F0010000007097600002000000827614700041450500000000000000000201505050002001ALVARO  HERNAN  PEREZ ALVAREZ                     C000000004800000000000000000000000100010010000000000000000000000F0010000007097600220150505000101 00000000000000000000000000000000000000000000000000000000000000000000000000000000000000000000000000000000000000000N 00000000000NCONT   00    00000000000          00000000000000000000000000000000000000000000 000000000000000A000000000000000000000000000000000000000000000 000000000000000000000000000000000000000     00000000                                                                                                                        000000000000000000
F0010000007097600003000000827614700042505000000000000000000201505050002001ALVARO  HERNAN  PEREZ ALVAREZ                     C000000000300000000000000000000000100010010000000000000000000000F0010000007097600320150505000101 00000000000000000000000000000000000000000000000000000000000000000000000000000000000000000000000000000000000000000N 00000000000NCONT   00    00000000000          00000000000000000000000000000000000000000000 000000000000000A000000000000000000000000000000000000000000000 000000000000000000000000000000000000000     00000000                                                                                                                        000000000000000000
F0010000007097600004000000827614700023658300000000000000000201505050002001ALVARO  HERNAN  PEREZ ALVAREZ                     C000000000038400000000000000000000100010010000000000000000000000F0010000007097600420150505000101 00000000000000000000000000000000000000000000000000000000000000000000000000000000000000000000000000000000000000000N 00000000000NCONT   00    00000000000          00000000000000000000000000000000000000000000 000000000000000A000000000000000000000000000000000000000000000 000000000000000000000000000000000000000     00000000                                                                                                                        000000000000000000
F0010000007097600005000000827614700013552100000000000000000201505050002001ALVARO  HERNAN  PEREZ ALVAREZ                     D000000000038400000000000000000000100010010000000000000000000000F0010000007097600520150505000101 00000000000000000000000000000000000000000000000000000000000000000000000000000000000000000000000000000000000000000N 00000000000NCONT   00    00000000000          00000000000000000000000000000000000000000000 000000000000000A000000000000000000000000000000000000000000000 000000000000000000000000000000000000000     00000000                                                                                                                        000000000000000000
F0010000007097700001000086003979400013050500000000000000000201505050002001CALYPSO BARRANQUILLA LTDA                         D000000022468000000000000000000000100010010000000000000000000000F0010000007097700120150505000101 00000000000000000000000000000000000000000000000000000000000000000000000000000000000000000000000000000000000000000N 00000000000NCONT   00    00000000000          00000000000000000000000000000000000000000000 000000000000000A000000000000000000000000000000000000000000000 000000000000000000000000000000000000000     00000000                                                                                                                        000000000000000000
F0010000007097700002000086003979400041450500000000000000000201505050002001CALYPSO BARRANQUILLA LTDA                         C000000019800000000000000000000000100010010000000000000000000000F0010000007097700220150505000101 00000000000000000000000000000000000000000000000000000000000000000000000000000000000000000000000000000000000000000N 00000000000NCONT   00    00000000000          00000000000000000000000000000000000000000000 000000000000000A000000000000000000000000000000000000000000000 000000000000000000000000000000000000000     00000000                                                                                                                        000000000000000000
F0010000007097700003000086003979400042505000000000000000000201505050002001CALYPSO BARRANQUILLA LTDA                         C000000002668000000000000000000000100010010000000000000000000000F0010000007097700320150505000101 00000000000000000000000000000000000000000000000000000000000000000000000000000000000000000000000000000000000000000N 00000000000NCONT   00    00000000000          00000000000000000000000000000000000000000000 000000000000000A000000000000000000000000000000000000000000000 000000000000000000000000000000000000000     00000000                                                                                                                        000000000000000000
F0010000007097700004000086003979400023658300000000000000000201505050002001CALYPSO BARRANQUILLA LTDA                         C000000000158400000000000000000000100010010000000000000000000000F0010000007097700420150505000101 00000000000000000000000000000000000000000000000000000000000000000000000000000000000000000000000000000000000000000N 00000000000NCONT   00    00000000000          00000000000000000000000000000000000000000000 000000000000000A000000000000000000000000000000000000000000000 000000000000000000000000000000000000000     00000000                                                                                                                        000000000000000000
F0010000007097700005000086003979400013552100000000000000000201505050002001CALYPSO BARRANQUILLA LTDA                         D000000000158400000000000000000000100010010000000000000000000000F0010000007097700520150505000101 00000000000000000000000000000000000000000000000000000000000000000000000000000000000000000000000000000000000000000N 00000000000NCONT   00    00000000000          00000000000000000000000000000000000000000000 000000000000000A000000000000000000000000000000000000000000000 000000000000000000000000000000000000000     00000000                                                                                                                        000000000000000000
F0010000007097800001000000870907300013050500000000000000000201505050002001SURTIDOR FERRETERO                                D000000047343000000000000000000000100010010000000000000000000000F0010000007097800120150505000101 00000000000000000000000000000000000000000000000000000000000000000000000000000000000000000000000000000000000000000N 00000000000NCONT   00    00000000000          00000000000000000000000000000000000000000000 000000000000000A000000000000000000000000000000000000000000000 000000000000000000000000000000000000000     00000000                                                                                                                        000000000000000000
F0010000007097800002000000870907300041450500000000000000000201505050002001SURTIDOR FERRETERO                                C000000031650000000000000000000000100010010000000000000000000000F0010000007097800220150505000101 00000000000000000000000000000000000000000000000000000000000000000000000000000000000000000000000000000000000000000N 00000000000NCONT   00    00000000000          00000000000000000000000000000000000000000000 000000000000000A000000000000000000000000000000000000000000000 000000000000000000000000000000000000000     00000000                                                                                                                        000000000000000000
F0010000007097800003000000870907300041750100000000000000000201505050002001SURTIDOR FERRETERO                                D000000003165000000000000000000000100010010000000000000000000000F0010000007097800320150505000101 00000000000000000000000000000000000000000000000000000000000000000000000000000000000000000000000000000000000000000N 00000000000NCONT   00    00000000000          00000000000000000000000000000000000000000000 000000000000000A000000000000000000000000000000000000000000000 000000000000000000000000000000000000000     00000000                                                                                                                        000000000000000000
F0010000007097800004000000870907300042505000000000000000000201505050002001SURTIDOR FERRETERO                                C000000018858000000000000000000000100010010000000000000000000000F0010000007097800420150505000101 00000000000000000000000000000000000000000000000000000000000000000000000000000000000000000000000000000000000000000N 00000000000NCONT   00    00000000000          00000000000000000000000000000000000000000000 000000000000000A000000000000000000000000000000000000000000000 000000000000000000000000000000000000000     00000000                                                                                                                        000000000000000000
F0010000007097800005000000870907300023658300000000000000000201505050002001SURTIDOR FERRETERO                                C000000000253200000000000000000000100010010000000000000000000000F0010000007097800520150505000101 00000000000000000000000000000000000000000000000000000000000000000000000000000000000000000000000000000000000000000N 00000000000NCONT   00    00000000000          00000000000000000000000000000000000000000000 000000000000000A000000000000000000000000000000000000000000000 000000000000000000000000000000000000000     00000000                                                                                                                        000000000000000000
F0010000007097800006000000870907300013552100000000000000000201505050002001SURTIDOR FERRETERO                                D000000000253200000000000000000000100010010000000000000000000000F0010000007097800620150505000101 00000000000000000000000000000000000000000000000000000000000000000000000000000000000000000000000000000000000000000N 00000000000NCONT   00    00000000000          00000000000000000000000000000000000000000000 000000000000000A000000000000000000000000000000000000000000000 000000000000000000000000000000000000000     00000000                                                                                                                        000000000000000000
F0010000007097900001000089031248700013050500000000000000000201505050002001DISTRIBUIDORA CALIPLASTICOS LTDA                  D000000066713800000000000000000000100010010000000000000000000000F0010000007097900120150505000101 00000000000000000000000000000000000000000000000000000000000000000000000000000000000000000000000000000000000000000N 00000000000NCONT   00    00000000000          00000000000000000000000000000000000000000000 000000000000000A000000000000000000000000000000000000000000000 000000000000000000000000000000000000000     00000000                                                                                                                        000000000000000000
F0010000007097900002000089031248700041450500000000000000000201505050002001DISTRIBUIDORA CALIPLASTICOS LTDA                  C000000063464800000000000000000000100010010000000000000000000000F0010000007097900220150505000101 00000000000000000000000000000000000000000000000000000000000000000000000000000000000000000000000000000000000000000N 00000000000NCONT   00    00000000000          00000000000000000000000000000000000000000000 000000000000000A000000000000000000000000000000000000000000000 000000000000000000000000000000000000000     00000000                                                                                                                        000000000000000000
F0010000007097900003000089031248700042505000000000000000000201505050002001DISTRIBUIDORA CALIPLASTICOS LTDA                  C000000003249000000000000000000000100010010000000000000000000000F0010000007097900320150505000101 00000000000000000000000000000000000000000000000000000000000000000000000000000000000000000000000000000000000000000N 00000000000NCONT   00    00000000000          00000000000000000000000000000000000000000000 000000000000000A000000000000000000000000000000000000000000000 000000000000000000000000000000000000000     00000000                                                                                                                        000000000000000000
F0010000007097900004000089031248700023658300000000000000000201505050002001DISTRIBUIDORA CALIPLASTICOS LTDA                  C000000000507700000000000000000000100010010000000000000000000000F0010000007097900420150505000101 00000000000000000000000000000000000000000000000000000000000000000000000000000000000000000000000000000000000000000N 00000000000NCONT   00    00000000000          00000000000000000000000000000000000000000000 000000000000000A000000000000000000000000000000000000000000000 000000000000000000000000000000000000000     00000000                                                                                                                        000000000000000000
