F0010000008099100001000090019362000013050500000000000000000201601060002001GENERAL SUPPLIES CIA LTDA                         D000000025420000000000000000000000100010010000000000000000000000F0010000008099100120160106000101 00000000000000000000000000000000000000000000000000000000000000000000000000000000000000000000000000000000000000000N 00000000000NCONT   00    00000000000          00000000000000000000000000000000000000000000 000000000000000A000000000000000000000000000000000000000000000 000000000000000000000000000000000000000     00000000                                                                                                                        000000000000000000
F0010000008099100002000090019362000041450500000000000000000201601060002001GENERAL SUPPLIES CIA LTDA                         C000000022487500000000000000000000100010010000000000000000000000F0010000008099100220160106000101 00000000000000000000000000000000000000000000000000000000000000000000000000000000000000000000000000000000000000000N 00000000000NCONT   00    00000000000          00000000000000000000000000000000000000000000 000000000000000A000000000000000000000000000000000000000000000 000000000000000000000000000000000000000     00000000                                                                                                                        000000000000000000
F0010000008099100003000090019362000042505000000000000000000201601060002001GENERAL SUPPLIES CIA LTDA                         C000000002932500000000000000000000100010010000000000000000000000F0010000008099100320160106000101 00000000000000000000000000000000000000000000000000000000000000000000000000000000000000000000000000000000000000000N 00000000000NCONT   00    00000000000          00000000000000000000000000000000000000000000 000000000000000A000000000000000000000000000000000000000000000 000000000000000000000000000000000000000     00000000                                                                                                                        000000000000000000
F0010000008099100004000090019362000023658300000000000000000201601060002001GENERAL SUPPLIES CIA LTDA                         C000000000179900000000000000000000100010010000000000000000000000F0010000008099100420160106000101 00000000000000000000000000000000000000000000000000000000000000000000000000000000000000000000000000000000000000000N 00000000000NCONT   00    00000000000          00000000000000000000000000000000000000000000 000000000000000A000000000000000000000000000000000000000000000 000000000000000000000000000000000000000     00000000                                                                                                                        000000000000000000
F0010000008099100005000090019362000013552100000000000000000201601060002001GENERAL SUPPLIES CIA LTDA                         D000000000179900000000000000000000100010010000000000000000000000F0010000008099100520160106000101 00000000000000000000000000000000000000000000000000000000000000000000000000000000000000000000000000000000000000000N 00000000000NCONT   00    00000000000          00000000000000000000000000000000000000000000 000000000000000A000000000000000000000000000000000000000000000 000000000000000000000000000000000000000     00000000                                                                                                                        000000000000000000
F0010000008099200001000090007142100013050500000000000000000201601060002001TODO BELLEZA Y MAX S.A.S                          D000000056310000000000000000000000100010010000000000000000000000F0010000008099200120160106000101 00000000000000000000000000000000000000000000000000000000000000000000000000000000000000000000000000000000000000000N 00000000000NCONT   00    00000000000          00000000000000000000000000000000000000000000 000000000000000A000000000000000000000000000000000000000000000 000000000000000000000000000000000000000     00000000                                                                                                                        000000000000000000
F0010000008099200002000090007142100041450500000000000000000201601060002001TODO BELLEZA Y MAX S.A.S                          C000000053020000000000000000000000100010010000000000000000000000F0010000008099200220160106000101 00000000000000000000000000000000000000000000000000000000000000000000000000000000000000000000000000000000000000000N 00000000000NCONT   00    00000000000          00000000000000000000000000000000000000000000 000000000000000A000000000000000000000000000000000000000000000 000000000000000000000000000000000000000     00000000                                                                                                                        000000000000000000
F0010000008099200003000090007142100042505000000000000000000201601060002001TODO BELLEZA Y MAX S.A.S                          C000000003290000000000000000000000100010010000000000000000000000F0010000008099200320160106000101 00000000000000000000000000000000000000000000000000000000000000000000000000000000000000000000000000000000000000000N 00000000000NCONT   00    00000000000          00000000000000000000000000000000000000000000 000000000000000A000000000000000000000000000000000000000000000 000000000000000000000000000000000000000     00000000                                                                                                                        000000000000000000
F0010000008099200004000090007142100023658300000000000000000201601060002001TODO BELLEZA Y MAX S.A.S                          C000000000424200000000000000000000100010010000000000000000000000F0010000008099200420160106000101 00000000000000000000000000000000000000000000000000000000000000000000000000000000000000000000000000000000000000000N 00000000000NCONT   00    00000000000          00000000000000000000000000000000000000000000 000000000000000A000000000000000000000000000000000000000000000 000000000000000000000000000000000000000     00000000                                                                                                                        000000000000000000
F0010000008099200005000090007142100013552100000000000000000201601060002001TODO BELLEZA Y MAX S.A.S                          D000000000424200000000000000000000100010010000000000000000000000F0010000008099200520160106000101 00000000000000000000000000000000000000000000000000000000000000000000000000000000000000000000000000000000000000000N 00000000000NCONT   00    00000000000          00000000000000000000000000000000000000000000 000000000000000A000000000000000000000000000000000000000000000 000000000000000000000000000000000000000     00000000                                                                                                                        000000000000000000
F0010000008099300001000090014415700013050500000000000000000201601060002001CORDELES Y EXTRUIDOS DE COLOMBIA S.A.S.           D000000030671100000000000000000000100010010000000000000000000000F0010000008099300120160106000101 00000000000000000000000000000000000000000000000000000000000000000000000000000000000000000000000000000000000000000N 00000000000NCONT   00    00000000000          00000000000000000000000000000000000000000000 000000000000000A000000000000000000000000000000000000000000000 000000000000000000000000000000000000000     00000000                                                                                                                        000000000000000000
F0010000008099300002000090014415700041450500000000000000000201601060002001CORDELES Y EXTRUIDOS DE COLOMBIA S.A.S.           C000000028379500000000000000000000100010010000000000000000000000F0010000008099300220160106000101 00000000000000000000000000000000000000000000000000000000000000000000000000000000000000000000000000000000000000000N 00000000000NCONT   00    00000000000          00000000000000000000000000000000000000000000 000000000000000A000000000000000000000000000000000000000000000 000000000000000000000000000000000000000     00000000                                                                                                                        000000000000000000
F0010000008099300003000090014415700042505000000000000000000201601060002001CORDELES Y EXTRUIDOS DE COLOMBIA S.A.S.           C000000002291600000000000000000000100010010000000000000000000000F0010000008099300320160106000101 00000000000000000000000000000000000000000000000000000000000000000000000000000000000000000000000000000000000000000N 00000000000NCONT   00    00000000000          00000000000000000000000000000000000000000000 000000000000000A000000000000000000000000000000000000000000000 000000000000000000000000000000000000000     00000000                                                                                                                        000000000000000000
F0010000008099300004000090014415700023658300000000000000000201601060002001CORDELES Y EXTRUIDOS DE COLOMBIA S.A.S.           C000000000227000000000000000000000100010010000000000000000000000F0010000008099300420160106000101 00000000000000000000000000000000000000000000000000000000000000000000000000000000000000000000000000000000000000000N 00000000000NCONT   00    00000000000          00000000000000000000000000000000000000000000 000000000000000A000000000000000000000000000000000000000000000 000000000000000000000000000000000000000     00000000                                                                                                                        000000000000000000
F0010000008099300005000090014415700013552100000000000000000201601060002001CORDELES Y EXTRUIDOS DE COLOMBIA S.A.S.           D000000000227000000000000000000000100010010000000000000000000000F0010000008099300520160106000101 00000000000000000000000000000000000000000000000000000000000000000000000000000000000000000000000000000000000000000N 00000000000NCONT   00    00000000000          00000000000000000000000000000000000000000000 000000000000000A000000000000000000000000000000000000000000000 000000000000000000000000000000000000000     00000000                                                                                                                        000000000000000000
F0010000008099400001000090064337300013050500000000000000000201601060002001DISCOMERCIAL TEXTIL DEL CARIBE SAS                D000000011000000000000000000000000100010010000000000000000000000F0010000008099400120160106000101 00000000000000000000000000000000000000000000000000000000000000000000000000000000000000000000000000000000000000000N 00000000000NCONT   00    00000000000          00000000000000000000000000000000000000000000 000000000000000A000000000000000000000000000000000000000000000 000000000000000000000000000000000000000     00000000                                                                                                                        000000000000000000
F0010000008099400002000090064337300041450500000000000000000201601060002001DISCOMERCIAL TEXTIL DEL CARIBE SAS                C000000009270000000000000000000000100010010000000000000000000000F0010000008099400220160106000101 00000000000000000000000000000000000000000000000000000000000000000000000000000000000000000000000000000000000000000N 00000000000NCONT   00    00000000000          00000000000000000000000000000000000000000000 000000000000000A000000000000000000000000000000000000000000000 000000000000000000000000000000000000000     00000000                                                                                                                        000000000000000000
F0010000008099400003000090064337300042505000000000000000000201601060002001DISCOMERCIAL TEXTIL DEL CARIBE SAS                C000000001730000000000000000000000100010010000000000000000000000F0010000008099400320160106000101 00000000000000000000000000000000000000000000000000000000000000000000000000000000000000000000000000000000000000000N 00000000000NCONT   00    00000000000          00000000000000000000000000000000000000000000 000000000000000A000000000000000000000000000000000000000000000 000000000000000000000000000000000000000     00000000                                                                                                                        000000000000000000
F0010000008099400004000090064337300023658300000000000000000201601060002001DISCOMERCIAL TEXTIL DEL CARIBE SAS                C000000000074200000000000000000000100010010000000000000000000000F0010000008099400420160106000101 00000000000000000000000000000000000000000000000000000000000000000000000000000000000000000000000000000000000000000N 00000000000NCONT   00    00000000000          00000000000000000000000000000000000000000000 000000000000000A000000000000000000000000000000000000000000000 000000000000000000000000000000000000000     00000000                                                                                                                        000000000000000000
F0010000008099400005000090064337300013552100000000000000000201601060002001DISCOMERCIAL TEXTIL DEL CARIBE SAS                D000000000074200000000000000000000100010010000000000000000000000F0010000008099400520160106000101 00000000000000000000000000000000000000000000000000000000000000000000000000000000000000000000000000000000000000000N 00000000000NCONT   00    00000000000          00000000000000000000000000000000000000000000 000000000000000A000000000000000000000000000000000000000000000 000000000000000000000000000000000000000     00000000                                                                                                                        000000000000000000
F0010000008099500001000080019113900013050500000000000000000201601060002001COMERCIAL NOVAPEL LTDA                            D000000005360000000000000000000000100010010000000000000000000000F0010000008099500120160106000101 00000000000000000000000000000000000000000000000000000000000000000000000000000000000000000000000000000000000000000N 00000000000NCONT   00    00000000000          00000000000000000000000000000000000000000000 000000000000000A000000000000000000000000000000000000000000000 000000000000000000000000000000000000000     00000000                                                                                                                        000000000000000000
F0010000008099500002000080019113900041450500000000000000000201601060002001COMERCIAL NOVAPEL LTDA                            C000000004800000000000000000000000100010010000000000000000000000F0010000008099500220160106000101 00000000000000000000000000000000000000000000000000000000000000000000000000000000000000000000000000000000000000000N 00000000000NCONT   00    00000000000          00000000000000000000000000000000000000000000 000000000000000A000000000000000000000000000000000000000000000 000000000000000000000000000000000000000     00000000                                                                                                                        000000000000000000
F0010000008099500003000080019113900042505000000000000000000201601060002001COMERCIAL NOVAPEL LTDA                            C000000000560000000000000000000000100010010000000000000000000000F0010000008099500320160106000101 00000000000000000000000000000000000000000000000000000000000000000000000000000000000000000000000000000000000000000N 00000000000NCONT   00    00000000000          00000000000000000000000000000000000000000000 000000000000000A000000000000000000000000000000000000000000000 000000000000000000000000000000000000000     00000000                                                                                                                        000000000000000000
F0010000008099500004000080019113900023658300000000000000000201601060002001COMERCIAL NOVAPEL LTDA                            C000000000038400000000000000000000100010010000000000000000000000F0010000008099500420160106000101 00000000000000000000000000000000000000000000000000000000000000000000000000000000000000000000000000000000000000000N 00000000000NCONT   00    00000000000          00000000000000000000000000000000000000000000 000000000000000A000000000000000000000000000000000000000000000 000000000000000000000000000000000000000     00000000                                                                                                                        000000000000000000
F0010000008099500005000080019113900013552100000000000000000201601060002001COMERCIAL NOVAPEL LTDA                            D000000000038400000000000000000000100010010000000000000000000000F0010000008099500520160106000101 00000000000000000000000000000000000000000000000000000000000000000000000000000000000000000000000000000000000000000N 00000000000NCONT   00    00000000000          00000000000000000000000000000000000000000000 000000000000000A000000000000000000000000000000000000000000000 000000000000000000000000000000000000000     00000000                                                                                                                        000000000000000000
F0010000008099600001000090001973700013050500000000000000000201601060002001DISTRIBUIDORA Y PAPELERIA VENEPLAS LTDA           D000000010250000000000000000000000100010010000000000000000000000F0010000008099600120160106000101 00000000000000000000000000000000000000000000000000000000000000000000000000000000000000000000000000000000000000000N 00000000000NCONT   00    00000000000          00000000000000000000000000000000000000000000 000000000000000A000000000000000000000000000000000000000000000 000000000000000000000000000000000000000     00000000                                                                                                                        000000000000000000
F0010000008099600002000090001973700041450500000000000000000201601060002001DISTRIBUIDORA Y PAPELERIA VENEPLAS LTDA           C000000009900000000000000000000000100010010000000000000000000000F0010000008099600220160106000101 00000000000000000000000000000000000000000000000000000000000000000000000000000000000000000000000000000000000000000N 00000000000NCONT   00    00000000000          00000000000000000000000000000000000000000000 000000000000000A000000000000000000000000000000000000000000000 000000000000000000000000000000000000000     00000000                                                                                                                        000000000000000000
F0010000008099600003000090001973700042505000000000000000000201601060002001DISTRIBUIDORA Y PAPELERIA VENEPLAS LTDA           C000000000350000000000000000000000100010010000000000000000000000F0010000008099600320160106000101 00000000000000000000000000000000000000000000000000000000000000000000000000000000000000000000000000000000000000000N 00000000000NCONT   00    00000000000          00000000000000000000000000000000000000000000 000000000000000A000000000000000000000000000000000000000000000 000000000000000000000000000000000000000     00000000                                                                                                                        000000000000000000
F0010000008099600004000090001973700023658300000000000000000201601060002001DISTRIBUIDORA Y PAPELERIA VENEPLAS LTDA           C000000000079200000000000000000000100010010000000000000000000000F0010000008099600420160106000101 00000000000000000000000000000000000000000000000000000000000000000000000000000000000000000000000000000000000000000N 00000000000NCONT   00    00000000000          00000000000000000000000000000000000000000000 000000000000000A000000000000000000000000000000000000000000000 000000000000000000000000000000000000000     00000000                                                                                                                        000000000000000000
F0010000008099600005000090001973700013552100000000000000000201601060002001DISTRIBUIDORA Y PAPELERIA VENEPLAS LTDA           D000000000079200000000000000000000100010010000000000000000000000F0010000008099600520160106000101 00000000000000000000000000000000000000000000000000000000000000000000000000000000000000000000000000000000000000000N 00000000000NCONT   00    00000000000          00000000000000000000000000000000000000000000 000000000000000A000000000000000000000000000000000000000000000 000000000000000000000000000000000000000     00000000                                                                                                                        000000000000000000
F0010000008099700001000090010880700013050500000000000000000201601060002001PROELECTRICAS DE BARRANQUILLA LTDA                D000000005045000000000000000000000100010010000000000000000000000F0010000008099700120160106000101 00000000000000000000000000000000000000000000000000000000000000000000000000000000000000000000000000000000000000000N 00000000000NCONT   00    00000000000          00000000000000000000000000000000000000000000 000000000000000A000000000000000000000000000000000000000000000 000000000000000000000000000000000000000     00000000                                                                                                                        000000000000000000
F0010000008099700002000090010880700041450500000000000000000201601060002001PROELECTRICAS DE BARRANQUILLA LTDA                C000000004620000000000000000000000100010010000000000000000000000F0010000008099700220160106000101 00000000000000000000000000000000000000000000000000000000000000000000000000000000000000000000000000000000000000000N 00000000000NCONT   00    00000000000          00000000000000000000000000000000000000000000 000000000000000A000000000000000000000000000000000000000000000 000000000000000000000000000000000000000     00000000                                                                                                                        000000000000000000
F0010000008099700003000090010880700042505000000000000000000201601060002001PROELECTRICAS DE BARRANQUILLA LTDA                C000000000425000000000000000000000100010010000000000000000000000F0010000008099700320160106000101 00000000000000000000000000000000000000000000000000000000000000000000000000000000000000000000000000000000000000000N 00000000000NCONT   00    00000000000          00000000000000000000000000000000000000000000 000000000000000A000000000000000000000000000000000000000000000 000000000000000000000000000000000000000     00000000                                                                                                                        000000000000000000
F0010000008099700004000090010880700023658300000000000000000201601060002001PROELECTRICAS DE BARRANQUILLA LTDA                C000000000037000000000000000000000100010010000000000000000000000F0010000008099700420160106000101 00000000000000000000000000000000000000000000000000000000000000000000000000000000000000000000000000000000000000000N 00000000000NCONT   00    00000000000          00000000000000000000000000000000000000000000 000000000000000A000000000000000000000000000000000000000000000 000000000000000000000000000000000000000     00000000                                                                                                                        000000000000000000
F0010000008099700005000090010880700013552100000000000000000201601060002001PROELECTRICAS DE BARRANQUILLA LTDA                D000000000037000000000000000000000100010010000000000000000000000F0010000008099700520160106000101 00000000000000000000000000000000000000000000000000000000000000000000000000000000000000000000000000000000000000000N 00000000000NCONT   00    00000000000          00000000000000000000000000000000000000000000 000000000000000A000000000000000000000000000000000000000000000 000000000000000000000000000000000000000     00000000                                                                                                                        000000000000000000
F0010000008099800001000080000083500013050500000000000000000201601060002001ALIPAR Y CIA LTDA                                 D000000003130000000000000000000000100010010000000000000000000000F0010000008099800120160106000101 00000000000000000000000000000000000000000000000000000000000000000000000000000000000000000000000000000000000000000N 00000000000NCONT   00    00000000000          00000000000000000000000000000000000000000000 000000000000000A000000000000000000000000000000000000000000000 000000000000000000000000000000000000000     00000000                                                                                                                        000000000000000000
F0010000008099800002000080000083500041450500000000000000000201601060002001ALIPAR Y CIA LTDA                                 C000000002800000000000000000000000100010010000000000000000000000F0010000008099800220160106000101 00000000000000000000000000000000000000000000000000000000000000000000000000000000000000000000000000000000000000000N 00000000000NCONT   00    00000000000          00000000000000000000000000000000000000000000 000000000000000A000000000000000000000000000000000000000000000 000000000000000000000000000000000000000     00000000                                                                                                                        000000000000000000
F0010000008099800003000080000083500042505000000000000000000201601060002001ALIPAR Y CIA LTDA                                 C000000000330000000000000000000000100010010000000000000000000000F0010000008099800320160106000101 00000000000000000000000000000000000000000000000000000000000000000000000000000000000000000000000000000000000000000N 00000000000NCONT   00    00000000000          00000000000000000000000000000000000000000000 000000000000000A000000000000000000000000000000000000000000000 000000000000000000000000000000000000000     00000000                                                                                                                        000000000000000000
F0010000008099800004000080000083500023658300000000000000000201601060002001ALIPAR Y CIA LTDA                                 C000000000022400000000000000000000100010010000000000000000000000F0010000008099800420160106000101 00000000000000000000000000000000000000000000000000000000000000000000000000000000000000000000000000000000000000000N 00000000000NCONT   00    00000000000          00000000000000000000000000000000000000000000 000000000000000A000000000000000000000000000000000000000000000 000000000000000000000000000000000000000     00000000                                                                                                                        000000000000000000
F0010000008099800005000080000083500013552100000000000000000201601060002001ALIPAR Y CIA LTDA                                 D000000000022400000000000000000000100010010000000000000000000000F0010000008099800520160106000101 00000000000000000000000000000000000000000000000000000000000000000000000000000000000000000000000000000000000000000N 00000000000NCONT   00    00000000000          00000000000000000000000000000000000000000000 000000000000000A000000000000000000000000000000000000000000000 000000000000000000000000000000000000000     00000000                                                                                                                        000000000000000000
F0010000008099900001000000827614700013050500000000000000000201601060002001ALVARO  HERNAN  PEREZ ALVAREZ                     D000000016900000000000000000000000100010010000000000000000000000F0010000008099900120160106000101 00000000000000000000000000000000000000000000000000000000000000000000000000000000000000000000000000000000000000000N 00000000000NCONT   00    00000000000          00000000000000000000000000000000000000000000 000000000000000A000000000000000000000000000000000000000000000 000000000000000000000000000000000000000     00000000                                                                                                                        000000000000000000
F0010000008099900002000000827614700041450500000000000000000201601060002001ALVARO  HERNAN  PEREZ ALVAREZ                     C000000015600000000000000000000000100010010000000000000000000000F0010000008099900220160106000101 00000000000000000000000000000000000000000000000000000000000000000000000000000000000000000000000000000000000000000N 00000000000NCONT   00    00000000000          00000000000000000000000000000000000000000000 000000000000000A000000000000000000000000000000000000000000000 000000000000000000000000000000000000000     00000000                                                                                                                        000000000000000000
F0010000008099900003000000827614700042505000000000000000000201601060002001ALVARO  HERNAN  PEREZ ALVAREZ                     C000000001300000000000000000000000100010010000000000000000000000F0010000008099900320160106000101 00000000000000000000000000000000000000000000000000000000000000000000000000000000000000000000000000000000000000000N 00000000000NCONT   00    00000000000          00000000000000000000000000000000000000000000 000000000000000A000000000000000000000000000000000000000000000 000000000000000000000000000000000000000     00000000                                                                                                                        000000000000000000
F0010000008099900004000000827614700023658300000000000000000201601060002001ALVARO  HERNAN  PEREZ ALVAREZ                     C000000000124800000000000000000000100010010000000000000000000000F0010000008099900420160106000101 00000000000000000000000000000000000000000000000000000000000000000000000000000000000000000000000000000000000000000N 00000000000NCONT   00    00000000000          00000000000000000000000000000000000000000000 000000000000000A000000000000000000000000000000000000000000000 000000000000000000000000000000000000000     00000000                                                                                                                        000000000000000000
F0010000008099900005000000827614700013552100000000000000000201601060002001ALVARO  HERNAN  PEREZ ALVAREZ                     D000000000124800000000000000000000100010010000000000000000000000F0010000008099900520160106000101 00000000000000000000000000000000000000000000000000000000000000000000000000000000000000000000000000000000000000000N 00000000000NCONT   00    00000000000          00000000000000000000000000000000000000000000 000000000000000A000000000000000000000000000000000000000000000 000000000000000000000000000000000000000     00000000                                                                                                                        000000000000000000
F0010000008100000001000080201127600013050500000000000000000201601060002001ELECTRICOS DEL RUIZ S.A.S.                        D000000059346000000000000000000000100010010000000000000000000000F0010000008100000120160106000101 00000000000000000000000000000000000000000000000000000000000000000000000000000000000000000000000000000000000000000N 00000000000NCONT   00    00000000000          00000000000000000000000000000000000000000000 000000000000000A000000000000000000000000000000000000000000000 000000000000000000000000000000000000000     00000000                                                                                                                        000000000000000000
F0010000008100000002000080201127600041450500000000000000000201601060002001ELECTRICOS DEL RUIZ S.A.S.                        C000000043870000000000000000000000100010010000000000000000000000F0010000008100000220160106000101 00000000000000000000000000000000000000000000000000000000000000000000000000000000000000000000000000000000000000000N 00000000000NCONT   00    00000000000          00000000000000000000000000000000000000000000 000000000000000A000000000000000000000000000000000000000000000 000000000000000000000000000000000000000     00000000                                                                                                                        000000000000000000
F0010000008100000003000080201127600042505000000000000000000201601060002001ELECTRICOS DEL RUIZ S.A.S.                        C000000015476000000000000000000000100010010000000000000000000000F0010000008100000320160106000101 00000000000000000000000000000000000000000000000000000000000000000000000000000000000000000000000000000000000000000N 00000000000NCONT   00    00000000000          00000000000000000000000000000000000000000000 000000000000000A000000000000000000000000000000000000000000000 000000000000000000000000000000000000000     00000000                                                                                                                        000000000000000000
F0010000008100000004000080201127600023658300000000000000000201601060002001ELECTRICOS DEL RUIZ S.A.S.                        C000000000351000000000000000000000100010010000000000000000000000F0010000008100000420160106000101 00000000000000000000000000000000000000000000000000000000000000000000000000000000000000000000000000000000000000000N 00000000000NCONT   00    00000000000          00000000000000000000000000000000000000000000 000000000000000A000000000000000000000000000000000000000000000 000000000000000000000000000000000000000     00000000                                                                                                                        000000000000000000
F0010000008100000005000080201127600013552100000000000000000201601060002001ELECTRICOS DEL RUIZ S.A.S.                        D000000000351000000000000000000000100010010000000000000000000000F0010000008100000520160106000101 00000000000000000000000000000000000000000000000000000000000000000000000000000000000000000000000000000000000000000N 00000000000NCONT   00    00000000000          00000000000000000000000000000000000000000000 000000000000000A000000000000000000000000000000000000000000000 000000000000000000000000000000000000000     00000000                                                                                                                        000000000000000000
F0010000008100100001000000868487100013050500000000000000000201601060002001JAIME PIÑEROS                                    D000000005050000000000000000000000100010010000000000000000000000F0010000008100100120160106000101 00000000000000000000000000000000000000000000000000000000000000000000000000000000000000000000000000000000000000000N 00000000000NCONT   00    00000000000          00000000000000000000000000000000000000000000 000000000000000A000000000000000000000000000000000000000000000 000000000000000000000000000000000000000     00000000                                                                                                                        000000000000000000
F0010000008100100002000000868487100041450500000000000000000201601060002001JAIME PIÑEROS                                    C000000003400000000000000000000000100010010000000000000000000000F0010000008100100220160106000101 00000000000000000000000000000000000000000000000000000000000000000000000000000000000000000000000000000000000000000N 00000000000NCONT   00    00000000000          00000000000000000000000000000000000000000000 000000000000000A000000000000000000000000000000000000000000000 000000000000000000000000000000000000000     00000000                                                                                                                        000000000000000000
F0010000008100100003000000868487100042505000000000000000000201601060002001JAIME PIÑEROS                                    C000000001650000000000000000000000100010010000000000000000000000F0010000008100100320160106000101 00000000000000000000000000000000000000000000000000000000000000000000000000000000000000000000000000000000000000000N 00000000000NCONT   00    00000000000          00000000000000000000000000000000000000000000 000000000000000A000000000000000000000000000000000000000000000 000000000000000000000000000000000000000     00000000                                                                                                                        000000000000000000
F0010000008100100004000000868487100023658300000000000000000201601060002001JAIME PIÑEROS                                    C000000000027200000000000000000000100010010000000000000000000000F0010000008100100420160106000101 00000000000000000000000000000000000000000000000000000000000000000000000000000000000000000000000000000000000000000N 00000000000NCONT   00    00000000000          00000000000000000000000000000000000000000000 000000000000000A000000000000000000000000000000000000000000000 000000000000000000000000000000000000000     00000000                                                                                                                        000000000000000000
F0010000008100100005000000868487100013552100000000000000000201601060002001JAIME PIÑEROS                                    D000000000027200000000000000000000100010010000000000000000000000F0010000008100100520160106000101 00000000000000000000000000000000000000000000000000000000000000000000000000000000000000000000000000000000000000000N 00000000000NCONT   00    00000000000          00000000000000000000000000000000000000000000 000000000000000A000000000000000000000000000000000000000000000 000000000000000000000000000000000000000     00000000                                                                                                                        000000000000000000
F0010000008100200001000086003979400013050500000000000000000201601060002001CALYPSO BARRANQUILLA LTDA                         D000000057283200000000000000000000100010010000000000000000000000F0010000008100200120160106000101 00000000000000000000000000000000000000000000000000000000000000000000000000000000000000000000000000000000000000000N 00000000000NCONT   00    00000000000          00000000000000000000000000000000000000000000 000000000000000A000000000000000000000000000000000000000000000 000000000000000000000000000000000000000     00000000                                                                                                                        000000000000000000
F0010000008100200002000086003979400041450500000000000000000201601060002001CALYPSO BARRANQUILLA LTDA                         C000000052520000000000000000000000100010010000000000000000000000F0010000008100200220160106000101 00000000000000000000000000000000000000000000000000000000000000000000000000000000000000000000000000000000000000000N 00000000000NCONT   00    00000000000          00000000000000000000000000000000000000000000 000000000000000A000000000000000000000000000000000000000000000 000000000000000000000000000000000000000     00000000                                                                                                                        000000000000000000
F0010000008100200003000086003979400042505000000000000000000201601060002001CALYPSO BARRANQUILLA LTDA                         C000000004763200000000000000000000100010010000000000000000000000F0010000008100200320160106000101 00000000000000000000000000000000000000000000000000000000000000000000000000000000000000000000000000000000000000000N 00000000000NCONT   00    00000000000          00000000000000000000000000000000000000000000 000000000000000A000000000000000000000000000000000000000000000 000000000000000000000000000000000000000     00000000                                                                                                                        000000000000000000
F0010000008100200004000086003979400023658300000000000000000201601060002001CALYPSO BARRANQUILLA LTDA                         C000000000420200000000000000000000100010010000000000000000000000F0010000008100200420160106000101 00000000000000000000000000000000000000000000000000000000000000000000000000000000000000000000000000000000000000000N 00000000000NCONT   00    00000000000          00000000000000000000000000000000000000000000 000000000000000A000000000000000000000000000000000000000000000 000000000000000000000000000000000000000     00000000                                                                                                                        000000000000000000
F0010000008100200005000086003979400013552100000000000000000201601060002001CALYPSO BARRANQUILLA LTDA                         D000000000420200000000000000000000100010010000000000000000000000F0010000008100200520160106000101 00000000000000000000000000000000000000000000000000000000000000000000000000000000000000000000000000000000000000000N 00000000000NCONT   00    00000000000          00000000000000000000000000000000000000000000 000000000000000A000000000000000000000000000000000000000000000 000000000000000000000000000000000000000     00000000                                                                                                                        000000000000000000
F0010000008100300001000089030195100013050500000000000000000201601060002001LIBRERIA NACIONAL S.A.                            D000000053110000000000000000000000100010010000000000000000000000F0010000008100300120160106000101 00000000000000000000000000000000000000000000000000000000000000000000000000000000000000000000000000000000000000000N 00000000000NCONT   00    00000000000          00000000000000000000000000000000000000000000 000000000000000A000000000000000000000000000000000000000000000 000000000000000000000000000000000000000     00000000                                                                                                                        000000000000000000
F0010000008100300002000089030195100041450500000000000000000201601060002001LIBRERIA NACIONAL S.A.                            C000000042510000000000000000000000100010010000000000000000000000F0010000008100300220160106000101 00000000000000000000000000000000000000000000000000000000000000000000000000000000000000000000000000000000000000000N 00000000000NCONT   00    00000000000          00000000000000000000000000000000000000000000 000000000000000A000000000000000000000000000000000000000000000 000000000000000000000000000000000000000     00000000                                                                                                                        000000000000000000
F0010000008100300003000089030195100042505000000000000000000201601060002001LIBRERIA NACIONAL S.A.                            C000000010600000000000000000000000100010010000000000000000000000F0010000008100300320160106000101 00000000000000000000000000000000000000000000000000000000000000000000000000000000000000000000000000000000000000000N 00000000000NCONT   00    00000000000          00000000000000000000000000000000000000000000 000000000000000A000000000000000000000000000000000000000000000 000000000000000000000000000000000000000     00000000                                                                                                                        000000000000000000
F0010000008100300004000089030195100023658300000000000000000201601060002001LIBRERIA NACIONAL S.A.                            C000000000340100000000000000000000100010010000000000000000000000F0010000008100300420160106000101 00000000000000000000000000000000000000000000000000000000000000000000000000000000000000000000000000000000000000000N 00000000000NCONT   00    00000000000          00000000000000000000000000000000000000000000 000000000000000A000000000000000000000000000000000000000000000 000000000000000000000000000000000000000     00000000                                                                                                                        000000000000000000
F0010000008100300005000089030195100013552100000000000000000201601060002001LIBRERIA NACIONAL S.A.                            D000000000340100000000000000000000100010010000000000000000000000F0010000008100300520160106000101 00000000000000000000000000000000000000000000000000000000000000000000000000000000000000000000000000000000000000000N 00000000000NCONT   00    00000000000          00000000000000000000000000000000000000000000 000000000000000A000000000000000000000000000000000000000000000 000000000000000000000000000000000000000     00000000                                                                                                                        000000000000000000
F0010000008100400001000080202132300013050500000000000000000201601060002001SUM Y SERV DE LA COSTA LTDA                       D000000044460000000000000000000000100010010000000000000000000000F0010000008100400120160106000101 00000000000000000000000000000000000000000000000000000000000000000000000000000000000000000000000000000000000000000N 00000000000NCONT   00    00000000000          00000000000000000000000000000000000000000000 000000000000000A000000000000000000000000000000000000000000000 000000000000000000000000000000000000000     00000000                                                                                                                        000000000000000000
F0010000008100400002000080202132300041450500000000000000000201601060002001SUM Y SERV DE LA COSTA LTDA                       C000000042380000000000000000000000100010010000000000000000000000F0010000008100400220160106000101 00000000000000000000000000000000000000000000000000000000000000000000000000000000000000000000000000000000000000000N 00000000000NCONT   00    00000000000          00000000000000000000000000000000000000000000 000000000000000A000000000000000000000000000000000000000000000 000000000000000000000000000000000000000     00000000                                                                                                                        000000000000000000
F0010000008100400003000080202132300042505000000000000000000201601060002001SUM Y SERV DE LA COSTA LTDA                       C000000002080000000000000000000000100010010000000000000000000000F0010000008100400320160106000101 00000000000000000000000000000000000000000000000000000000000000000000000000000000000000000000000000000000000000000N 00000000000NCONT   00    00000000000          00000000000000000000000000000000000000000000 000000000000000A000000000000000000000000000000000000000000000 000000000000000000000000000000000000000     00000000                                                                                                                        000000000000000000
F0010000008100400004000080202132300023658300000000000000000201601060002001SUM Y SERV DE LA COSTA LTDA                       C000000000339000000000000000000000100010010000000000000000000000F0010000008100400420160106000101 00000000000000000000000000000000000000000000000000000000000000000000000000000000000000000000000000000000000000000N 00000000000NCONT   00    00000000000          00000000000000000000000000000000000000000000 000000000000000A000000000000000000000000000000000000000000000 000000000000000000000000000000000000000     00000000                                                                                                                        000000000000000000
F0010000008100400005000080202132300013552100000000000000000201601060002001SUM Y SERV DE LA COSTA LTDA                       D000000000339000000000000000000000100010010000000000000000000000F0010000008100400520160106000101 00000000000000000000000000000000000000000000000000000000000000000000000000000000000000000000000000000000000000000N 00000000000NCONT   00    00000000000          00000000000000000000000000000000000000000000 000000000000000A000000000000000000000000000000000000000000000 000000000000000000000000000000000000000     00000000                                                                                                                        000000000000000000
F0010000008100500001000090044920600013050500000000000000000201601060002001QUATRO CARIBE SAS                                 D000000081921800000000000000000000100010010000000000000000000000F0010000008100500120160106000101 00000000000000000000000000000000000000000000000000000000000000000000000000000000000000000000000000000000000000000N 00000000000NCONT   00    00000000000          00000000000000000000000000000000000000000000 000000000000000A000000000000000000000000000000000000000000000 000000000000000000000000000000000000000     00000000                                                                                                                        000000000000000000
F0010000008100500002000090044920600041450500000000000000000201601060002001QUATRO CARIBE SAS                                 C000000074246800000000000000000000100010010000000000000000000000F0010000008100500220160106000101 00000000000000000000000000000000000000000000000000000000000000000000000000000000000000000000000000000000000000000N 00000000000NCONT   00    00000000000          00000000000000000000000000000000000000000000 000000000000000A000000000000000000000000000000000000000000000 000000000000000000000000000000000000000     00000000                                                                                                                        000000000000000000
F0010000008100500003000090044920600042505000000000000000000201601060002001QUATRO CARIBE SAS                                 C000000007675000000000000000000000100010010000000000000000000000F0010000008100500320160106000101 00000000000000000000000000000000000000000000000000000000000000000000000000000000000000000000000000000000000000000N 00000000000NCONT   00    00000000000          00000000000000000000000000000000000000000000 000000000000000A000000000000000000000000000000000000000000000 000000000000000000000000000000000000000     00000000                                                                                                                        000000000000000000
F0010000008100500004000090044920600023658300000000000000000201601060002001QUATRO CARIBE SAS                                 C000000000594000000000000000000000100010010000000000000000000000F0010000008100500420160106000101 00000000000000000000000000000000000000000000000000000000000000000000000000000000000000000000000000000000000000000N 00000000000NCONT   00    00000000000          00000000000000000000000000000000000000000000 000000000000000A000000000000000000000000000000000000000000000 000000000000000000000000000000000000000     00000000                                                                                                                        000000000000000000
F0010000008100500005000090044920600013552100000000000000000201601060002001QUATRO CARIBE SAS                                 D000000000594000000000000000000000100010010000000000000000000000F0010000008100500520160106000101 00000000000000000000000000000000000000000000000000000000000000000000000000000000000000000000000000000000000000000N 00000000000NCONT   00    00000000000          00000000000000000000000000000000000000000000 000000000000000A000000000000000000000000000000000000000000000 000000000000000000000000000000000000000     00000000                                                                                                                        000000000000000000
F0010000008100600001000089031248700013050500000000000000000201601060002001DISTRIBUIDORA CALIPLASTICOS LTDA                  D000000098741600000000000000000000100010010000000000000000000000F0010000008100600120160106000101 00000000000000000000000000000000000000000000000000000000000000000000000000000000000000000000000000000000000000000N 00000000000NCONT   00    00000000000          00000000000000000000000000000000000000000000 000000000000000A000000000000000000000000000000000000000000000 000000000000000000000000000000000000000     00000000                                                                                                                        000000000000000000
F0010000008100600002000089031248700041450500000000000000000201601060002001DISTRIBUIDORA CALIPLASTICOS LTDA                  C000000095588600000000000000000000100010010000000000000000000000F0010000008100600220160106000101 00000000000000000000000000000000000000000000000000000000000000000000000000000000000000000000000000000000000000000N 00000000000NCONT   00    00000000000          00000000000000000000000000000000000000000000 000000000000000A000000000000000000000000000000000000000000000 000000000000000000000000000000000000000     00000000                                                                                                                        000000000000000000
F0010000008100600003000089031248700042505000000000000000000201601060002001DISTRIBUIDORA CALIPLASTICOS LTDA                  C000000003153000000000000000000000100010010000000000000000000000F0010000008100600320160106000101 00000000000000000000000000000000000000000000000000000000000000000000000000000000000000000000000000000000000000000N 00000000000NCONT   00    00000000000          00000000000000000000000000000000000000000000 000000000000000A000000000000000000000000000000000000000000000 000000000000000000000000000000000000000     00000000                                                                                                                        000000000000000000
F0010000008100600004000089031248700023658300000000000000000201601060002001DISTRIBUIDORA CALIPLASTICOS LTDA                  C000000000764700000000000000000000100010010000000000000000000000F0010000008100600420160106000101 00000000000000000000000000000000000000000000000000000000000000000000000000000000000000000000000000000000000000000N 00000000000NCONT   00    00000000000          00000000000000000000000000000000000000000000 000000000000000A000000000000000000000000000000000000000000000 000000000000000000000000000000000000000     00000000                                                                                                                        000000000000000000
F0010000008100600005000089031248700013552100000000000000000201601060002001DISTRIBUIDORA CALIPLASTICOS LTDA                  D000000000764700000000000000000000100010010000000000000000000000F0010000008100600520160106000101 00000000000000000000000000000000000000000000000000000000000000000000000000000000000000000000000000000000000000000N 00000000000NCONT   00    00000000000          00000000000000000000000000000000000000000000 000000000000000A000000000000000000000000000000000000000000000 000000000000000000000000000000000000000     00000000                                                                                                                        000000000000000000
F0010000008100700001000090020547900013050500000000000000000201601060002001COMERCIALIZADORA DAC DEL CARIBE S.A.S.            D000000006669200000000000000000000100010010000000000000000000000F0010000008100700120160106000101 00000000000000000000000000000000000000000000000000000000000000000000000000000000000000000000000000000000000000000N 00000000000NCONT   00    00000000000          00000000000000000000000000000000000000000000 000000000000000A000000000000000000000000000000000000000000000 000000000000000000000000000000000000000     00000000                                                                                                                        000000000000000000
F0010000008100700002000090020547900041450500000000000000000201601060002001COMERCIALIZADORA DAC DEL CARIBE S.A.S.            C000000004600000000000000000000000100010010000000000000000000000F0010000008100700220160106000101 00000000000000000000000000000000000000000000000000000000000000000000000000000000000000000000000000000000000000000N 00000000000NCONT   00    00000000000          00000000000000000000000000000000000000000000 000000000000000A000000000000000000000000000000000000000000000 000000000000000000000000000000000000000     00000000                                                                                                                        000000000000000000
F0010000008100700003000090020547900042505000000000000000000201601060002001COMERCIALIZADORA DAC DEL CARIBE S.A.S.            C000000002069200000000000000000000100010010000000000000000000000F0010000008100700320160106000101 00000000000000000000000000000000000000000000000000000000000000000000000000000000000000000000000000000000000000000N 00000000000NCONT   00    00000000000          00000000000000000000000000000000000000000000 000000000000000A000000000000000000000000000000000000000000000 000000000000000000000000000000000000000     00000000                                                                                                                        000000000000000000
F0010000008100700004000090020547900023658300000000000000000201601060002001COMERCIALIZADORA DAC DEL CARIBE S.A.S.            C000000000036800000000000000000000100010010000000000000000000000F0010000008100700420160106000101 00000000000000000000000000000000000000000000000000000000000000000000000000000000000000000000000000000000000000000N 00000000000NCONT   00    00000000000          00000000000000000000000000000000000000000000 000000000000000A000000000000000000000000000000000000000000000 000000000000000000000000000000000000000     00000000                                                                                                                        000000000000000000
F0010000008100700005000090020547900013552100000000000000000201601060002001COMERCIALIZADORA DAC DEL CARIBE S.A.S.            D000000000036800000000000000000000100010010000000000000000000000F0010000008100700520160106000101 00000000000000000000000000000000000000000000000000000000000000000000000000000000000000000000000000000000000000000N 00000000000NCONT   00    00000000000          00000000000000000000000000000000000000000000 000000000000000A000000000000000000000000000000000000000000000 000000000000000000000000000000000000000     00000000                                                                                                                        000000000000000000
F0010000008100800001000080201112800013050500000000000000000201601060002001CANGURO INTERNATIONAL S.A.                        D000000056780000000000000000000000100010010000000000000000000000F0010000008100800120160106000101 00000000000000000000000000000000000000000000000000000000000000000000000000000000000000000000000000000000000000000N 00000000000NCONT   00    00000000000          00000000000000000000000000000000000000000000 000000000000000A000000000000000000000000000000000000000000000 000000000000000000000000000000000000000     00000000                                                                                                                        000000000000000000
F0010000008100800002000080201112800041450500000000000000000201601060002001CANGURO INTERNATIONAL S.A.                        C000000043940000000000000000000000100010010000000000000000000000F0010000008100800220160106000101 00000000000000000000000000000000000000000000000000000000000000000000000000000000000000000000000000000000000000000N 00000000000NCONT   00    00000000000          00000000000000000000000000000000000000000000 000000000000000A000000000000000000000000000000000000000000000 000000000000000000000000000000000000000     00000000                                                                                                                        000000000000000000
F0010000008100800003000080201112800042505000000000000000000201601060002001CANGURO INTERNATIONAL S.A.                        C000000012840000000000000000000000100010010000000000000000000000F0010000008100800320160106000101 00000000000000000000000000000000000000000000000000000000000000000000000000000000000000000000000000000000000000000N 00000000000NCONT   00    00000000000          00000000000000000000000000000000000000000000 000000000000000A000000000000000000000000000000000000000000000 000000000000000000000000000000000000000     00000000                                                                                                                        000000000000000000
F0010000008100800004000080201112800023658300000000000000000201601060002001CANGURO INTERNATIONAL S.A.                        C000000000351500000000000000000000100010010000000000000000000000F0010000008100800420160106000101 00000000000000000000000000000000000000000000000000000000000000000000000000000000000000000000000000000000000000000N 00000000000NCONT   00    00000000000          00000000000000000000000000000000000000000000 000000000000000A000000000000000000000000000000000000000000000 000000000000000000000000000000000000000     00000000                                                                                                                        000000000000000000
F0010000008100800005000080201112800013552100000000000000000201601060002001CANGURO INTERNATIONAL S.A.                        D000000000351500000000000000000000100010010000000000000000000000F0010000008100800520160106000101 00000000000000000000000000000000000000000000000000000000000000000000000000000000000000000000000000000000000000000N 00000000000NCONT   00    00000000000          00000000000000000000000000000000000000000000 000000000000000A000000000000000000000000000000000000000000000 000000000000000000000000000000000000000     00000000                                                                                                                        000000000000000000
F0010000008100900001000006491555400011050500000000000000000201601060002001SAIDE PEREZ SALGADO                               D000000006000000000000000000000000100010010000000000000000000000F0010000008100900120160106000101 00000000000000000000000000000000000000000000000000000000000000000000000000000000000000000000000000000000000000000N 00000000000NCONT   00    00000000000          00000000000000000000000000000000000000000000 000000000000000A000000000000000000000000000000000000000000000 000000000000000000000000000000000000000     00000000                                                                                                                        000000000000000000
F0010000008100900002000006491555400041450500000000000000000201601060002001SAIDE PEREZ SALGADO                               C000000005800000000000000000000000100010010000000000000000000000F0010000008100900220160106000101 00000000000000000000000000000000000000000000000000000000000000000000000000000000000000000000000000000000000000000N 00000000000NCONT   00    00000000000          00000000000000000000000000000000000000000000 000000000000000A000000000000000000000000000000000000000000000 000000000000000000000000000000000000000     00000000                                                                                                                        000000000000000000
F0010000008100900003000006491555400042505000000000000000000201601060002001SAIDE PEREZ SALGADO                               C000000000200000000000000000000000100010010000000000000000000000F0010000008100900320160106000101 00000000000000000000000000000000000000000000000000000000000000000000000000000000000000000000000000000000000000000N 00000000000NCONT   00    00000000000          00000000000000000000000000000000000000000000 000000000000000A000000000000000000000000000000000000000000000 000000000000000000000000000000000000000     00000000                                                                                                                        000000000000000000
F0010000008100900004000006491555400023658300000000000000000201601060002001SAIDE PEREZ SALGADO                               C000000000046400000000000000000000100010010000000000000000000000F0010000008100900420160106000101 00000000000000000000000000000000000000000000000000000000000000000000000000000000000000000000000000000000000000000N 00000000000NCONT   00    00000000000          00000000000000000000000000000000000000000000 000000000000000A000000000000000000000000000000000000000000000 000000000000000000000000000000000000000     00000000                                                                                                                        000000000000000000
F0010000008100900005000006491555400013552100000000000000000201601060002001SAIDE PEREZ SALGADO                               D000000000046400000000000000000000100010010000000000000000000000F0010000008100900520160106000101 00000000000000000000000000000000000000000000000000000000000000000000000000000000000000000000000000000000000000000N 00000000000NCONT   00    00000000000          00000000000000000000000000000000000000000000 000000000000000A000000000000000000000000000000000000000000000 000000000000000000000000000000000000000     00000000                                                                                                                        000000000000000000
F0010000008101000001000114085854800011050500000000000000000201601060002001DAVID ANTONIO BARROS ARRIETA                      D000000006000000000000000000000000100010010000000000000000000000F0010000008101000120160106000101 00000000000000000000000000000000000000000000000000000000000000000000000000000000000000000000000000000000000000000N 00000000000NCONT   00    00000000000          00000000000000000000000000000000000000000000 000000000000000A000000000000000000000000000000000000000000000 000000000000000000000000000000000000000     00000000                                                                                                                        000000000000000000
F0010000008101000002000114085854800041450500000000000000000201601060002001DAVID ANTONIO BARROS ARRIETA                      C000000005000000000000000000000000100010010000000000000000000000F0010000008101000220160106000101 00000000000000000000000000000000000000000000000000000000000000000000000000000000000000000000000000000000000000000N 00000000000NCONT   00    00000000000          00000000000000000000000000000000000000000000 000000000000000A000000000000000000000000000000000000000000000 000000000000000000000000000000000000000     00000000                                                                                                                        000000000000000000
F0010000008101000003000114085854800042505000000000000000000201601060002001DAVID ANTONIO BARROS ARRIETA                      C000000001000000000000000000000000100010010000000000000000000000F0010000008101000320160106000101 00000000000000000000000000000000000000000000000000000000000000000000000000000000000000000000000000000000000000000N 00000000000NCONT   00    00000000000          00000000000000000000000000000000000000000000 000000000000000A000000000000000000000000000000000000000000000 000000000000000000000000000000000000000     00000000                                                                                                                        000000000000000000
F0010000008101000004000114085854800023658300000000000000000201601060002001DAVID ANTONIO BARROS ARRIETA                      C000000000040000000000000000000000100010010000000000000000000000F0010000008101000420160106000101 00000000000000000000000000000000000000000000000000000000000000000000000000000000000000000000000000000000000000000N 00000000000NCONT   00    00000000000          00000000000000000000000000000000000000000000 000000000000000A000000000000000000000000000000000000000000000 000000000000000000000000000000000000000     00000000                                                                                                                        000000000000000000
F0010000008101000005000114085854800013552100000000000000000201601060002001DAVID ANTONIO BARROS ARRIETA                      D000000000040000000000000000000000100010010000000000000000000000F0010000008101000520160106000101 00000000000000000000000000000000000000000000000000000000000000000000000000000000000000000000000000000000000000000N 00000000000NCONT   00    00000000000          00000000000000000000000000000000000000000000 000000000000000A000000000000000000000000000000000000000000000 000000000000000000000000000000000000000     00000000                                                                                                                        000000000000000000
F0010000008101100001000080202350700011050500000000000000000201601060002001CONNY DE LA COSTA SAS                             D000000001100000000000000000000000100010010000000000000000000000F0010000008101100120160106000101 00000000000000000000000000000000000000000000000000000000000000000000000000000000000000000000000000000000000000000N 00000000000NCONT   00    00000000000          00000000000000000000000000000000000000000000 000000000000000A000000000000000000000000000000000000000000000 000000000000000000000000000000000000000     00000000                                                                                                                        000000000000000000
F0010000008101100002000080202350700041450500000000000000000201601060002001CONNY DE LA COSTA SAS                             C000000000800000000000000000000000100010010000000000000000000000F0010000008101100220160106000101 00000000000000000000000000000000000000000000000000000000000000000000000000000000000000000000000000000000000000000N 00000000000NCONT   00    00000000000          00000000000000000000000000000000000000000000 000000000000000A000000000000000000000000000000000000000000000 000000000000000000000000000000000000000     00000000                                                                                                                        000000000000000000
F0010000008101100003000080202350700042505000000000000000000201601060002001CONNY DE LA COSTA SAS                             C000000000300000000000000000000000100010010000000000000000000000F0010000008101100320160106000101 00000000000000000000000000000000000000000000000000000000000000000000000000000000000000000000000000000000000000000N 00000000000NCONT   00    00000000000          00000000000000000000000000000000000000000000 000000000000000A000000000000000000000000000000000000000000000 000000000000000000000000000000000000000     00000000                                                                                                                        000000000000000000
F0010000008101100004000080202350700023658300000000000000000201601060002001CONNY DE LA COSTA SAS                             C000000000006400000000000000000000100010010000000000000000000000F0010000008101100420160106000101 00000000000000000000000000000000000000000000000000000000000000000000000000000000000000000000000000000000000000000N 00000000000NCONT   00    00000000000          00000000000000000000000000000000000000000000 000000000000000A000000000000000000000000000000000000000000000 000000000000000000000000000000000000000     00000000                                                                                                                        000000000000000000
F0010000008101100005000080202350700013552100000000000000000201601060002001CONNY DE LA COSTA SAS                             D000000000006400000000000000000000100010010000000000000000000000F0010000008101100520160106000101 00000000000000000000000000000000000000000000000000000000000000000000000000000000000000000000000000000000000000000N 00000000000NCONT   00    00000000000          00000000000000000000000000000000000000000000 000000000000000A000000000000000000000000000000000000000000000 000000000000000000000000000000000000000     00000000                                                                                                                        000000000000000000
F0010000008101200001000080202350700011050500000000000000000201601060002001CONNY DE LA COSTA SAS                             D000000004200000000000000000000000100010010000000000000000000000F0010000008101200120160106000101 00000000000000000000000000000000000000000000000000000000000000000000000000000000000000000000000000000000000000000N 00000000000NCONT   00    00000000000          00000000000000000000000000000000000000000000 000000000000000A000000000000000000000000000000000000000000000 000000000000000000000000000000000000000     00000000                                                                                                                        000000000000000000
F0010000008101200002000080202350700041450500000000000000000201601060002001CONNY DE LA COSTA SAS                             C000000003200000000000000000000000100010010000000000000000000000F0010000008101200220160106000101 00000000000000000000000000000000000000000000000000000000000000000000000000000000000000000000000000000000000000000N 00000000000NCONT   00    00000000000          00000000000000000000000000000000000000000000 000000000000000A000000000000000000000000000000000000000000000 000000000000000000000000000000000000000     00000000                                                                                                                        000000000000000000
F0010000008101200003000080202350700042505000000000000000000201601060002001CONNY DE LA COSTA SAS                             C000000001000000000000000000000000100010010000000000000000000000F0010000008101200320160106000101 00000000000000000000000000000000000000000000000000000000000000000000000000000000000000000000000000000000000000000N 00000000000NCONT   00    00000000000          00000000000000000000000000000000000000000000 000000000000000A000000000000000000000000000000000000000000000 000000000000000000000000000000000000000     00000000                                                                                                                        000000000000000000
F0010000008101200004000080202350700023658300000000000000000201601060002001CONNY DE LA COSTA SAS                             C000000000025600000000000000000000100010010000000000000000000000F0010000008101200420160106000101 00000000000000000000000000000000000000000000000000000000000000000000000000000000000000000000000000000000000000000N 00000000000NCONT   00    00000000000          00000000000000000000000000000000000000000000 000000000000000A000000000000000000000000000000000000000000000 000000000000000000000000000000000000000     00000000                                                                                                                        000000000000000000
F0010000008101200005000080202350700013552100000000000000000201601060002001CONNY DE LA COSTA SAS                             D000000000025600000000000000000000100010010000000000000000000000F0010000008101200520160106000101 00000000000000000000000000000000000000000000000000000000000000000000000000000000000000000000000000000000000000000N 00000000000NCONT   00    00000000000          00000000000000000000000000000000000000000000 000000000000000A000000000000000000000000000000000000000000000 000000000000000000000000000000000000000     00000000                                                                                                                        000000000000000000
F0010000008101300001000000742399700011050500000000000000000201601060002001CACHARRERIA EL NUEVO CHADID                       D000000003000000000000000000000000100010010000000000000000000000F0010000008101300120160106000101 00000000000000000000000000000000000000000000000000000000000000000000000000000000000000000000000000000000000000000N 00000000000NCONT   00    00000000000          00000000000000000000000000000000000000000000 000000000000000A000000000000000000000000000000000000000000000 000000000000000000000000000000000000000     00000000                                                                                                                        000000000000000000
F0010000008101300002000000742399700041450500000000000000000201601060002001CACHARRERIA EL NUEVO CHADID                       C000000002500000000000000000000000100010010000000000000000000000F0010000008101300220160106000101 00000000000000000000000000000000000000000000000000000000000000000000000000000000000000000000000000000000000000000N 00000000000NCONT   00    00000000000          00000000000000000000000000000000000000000000 000000000000000A000000000000000000000000000000000000000000000 000000000000000000000000000000000000000     00000000                                                                                                                        000000000000000000
F0010000008101300003000000742399700042505000000000000000000201601060002001CACHARRERIA EL NUEVO CHADID                       C000000000500000000000000000000000100010010000000000000000000000F0010000008101300320160106000101 00000000000000000000000000000000000000000000000000000000000000000000000000000000000000000000000000000000000000000N 00000000000NCONT   00    00000000000          00000000000000000000000000000000000000000000 000000000000000A000000000000000000000000000000000000000000000 000000000000000000000000000000000000000     00000000                                                                                                                        000000000000000000
F0010000008101300004000000742399700023658300000000000000000201601060002001CACHARRERIA EL NUEVO CHADID                       C000000000020000000000000000000000100010010000000000000000000000F0010000008101300420160106000101 00000000000000000000000000000000000000000000000000000000000000000000000000000000000000000000000000000000000000000N 00000000000NCONT   00    00000000000          00000000000000000000000000000000000000000000 000000000000000A000000000000000000000000000000000000000000000 000000000000000000000000000000000000000     00000000                                                                                                                        000000000000000000
F0010000008101300005000000742399700013552100000000000000000201601060002001CACHARRERIA EL NUEVO CHADID                       D000000000020000000000000000000000100010010000000000000000000000F0010000008101300520160106000101 00000000000000000000000000000000000000000000000000000000000000000000000000000000000000000000000000000000000000000N 00000000000NCONT   00    00000000000          00000000000000000000000000000000000000000000 000000000000000A000000000000000000000000000000000000000000000 000000000000000000000000000000000000000     00000000                                                                                                                        000000000000000000
F0010000008101400001000080202083100011050500000000000000000201601060002001RINOCERONTE                                       D000000001400000000000000000000000100010010000000000000000000000F0010000008101400120160106000101 00000000000000000000000000000000000000000000000000000000000000000000000000000000000000000000000000000000000000000N 00000000000NCONT   00    00000000000          00000000000000000000000000000000000000000000 000000000000000A000000000000000000000000000000000000000000000 000000000000000000000000000000000000000     00000000                                                                                                                        000000000000000000
F0010000008101400002000080202083100041450500000000000000000201601060002001RINOCERONTE                                       C000000000900000000000000000000000100010010000000000000000000000F0010000008101400220160106000101 00000000000000000000000000000000000000000000000000000000000000000000000000000000000000000000000000000000000000000N 00000000000NCONT   00    00000000000          00000000000000000000000000000000000000000000 000000000000000A000000000000000000000000000000000000000000000 000000000000000000000000000000000000000     00000000                                                                                                                        000000000000000000
F0010000008101400003000080202083100042505000000000000000000201601060002001RINOCERONTE                                       C000000000500000000000000000000000100010010000000000000000000000F0010000008101400320160106000101 00000000000000000000000000000000000000000000000000000000000000000000000000000000000000000000000000000000000000000N 00000000000NCONT   00    00000000000          00000000000000000000000000000000000000000000 000000000000000A000000000000000000000000000000000000000000000 000000000000000000000000000000000000000     00000000                                                                                                                        000000000000000000
F0010000008101400004000080202083100023658300000000000000000201601060002001RINOCERONTE                                       C000000000007200000000000000000000100010010000000000000000000000F0010000008101400420160106000101 00000000000000000000000000000000000000000000000000000000000000000000000000000000000000000000000000000000000000000N 00000000000NCONT   00    00000000000          00000000000000000000000000000000000000000000 000000000000000A000000000000000000000000000000000000000000000 000000000000000000000000000000000000000     00000000                                                                                                                        000000000000000000
F0010000008101400005000080202083100013552100000000000000000201601060002001RINOCERONTE                                       D000000000007200000000000000000000100010010000000000000000000000F0010000008101400520160106000101 00000000000000000000000000000000000000000000000000000000000000000000000000000000000000000000000000000000000000000N 00000000000NCONT   00    00000000000          00000000000000000000000000000000000000000000 000000000000000A000000000000000000000000000000000000000000000 000000000000000000000000000000000000000     00000000                                                                                                                        000000000000000000
F0010000008101500001000083001155300011050500000000000000000201601060002001COMERCIALIZADORA RUBEN S LTDA                     D000000002000000000000000000000000100010010000000000000000000000F0010000008101500120160106000101 00000000000000000000000000000000000000000000000000000000000000000000000000000000000000000000000000000000000000000N 00000000000NCONT   00    00000000000          00000000000000000000000000000000000000000000 000000000000000A000000000000000000000000000000000000000000000 000000000000000000000000000000000000000     00000000                                                                                                                        000000000000000000
F0010000008101500002000083001155300041450500000000000000000201601060002001COMERCIALIZADORA RUBEN S LTDA                     C000000001800000000000000000000000100010010000000000000000000000F0010000008101500220160106000101 00000000000000000000000000000000000000000000000000000000000000000000000000000000000000000000000000000000000000000N 00000000000NCONT   00    00000000000          00000000000000000000000000000000000000000000 000000000000000A000000000000000000000000000000000000000000000 000000000000000000000000000000000000000     00000000                                                                                                                        000000000000000000
F0010000008101500003000083001155300042505000000000000000000201601060002001COMERCIALIZADORA RUBEN S LTDA                     C000000000200000000000000000000000100010010000000000000000000000F0010000008101500320160106000101 00000000000000000000000000000000000000000000000000000000000000000000000000000000000000000000000000000000000000000N 00000000000NCONT   00    00000000000          00000000000000000000000000000000000000000000 000000000000000A000000000000000000000000000000000000000000000 000000000000000000000000000000000000000     00000000                                                                                                                        000000000000000000
F0010000008101500004000083001155300023658300000000000000000201601060002001COMERCIALIZADORA RUBEN S LTDA                     C000000000014400000000000000000000100010010000000000000000000000F0010000008101500420160106000101 00000000000000000000000000000000000000000000000000000000000000000000000000000000000000000000000000000000000000000N 00000000000NCONT   00    00000000000          00000000000000000000000000000000000000000000 000000000000000A000000000000000000000000000000000000000000000 000000000000000000000000000000000000000     00000000                                                                                                                        000000000000000000
F0010000008101500005000083001155300013552100000000000000000201601060002001COMERCIALIZADORA RUBEN S LTDA                     D000000000014400000000000000000000100010010000000000000000000000F0010000008101500520160106000101 00000000000000000000000000000000000000000000000000000000000000000000000000000000000000000000000000000000000000000N 00000000000NCONT   00    00000000000          00000000000000000000000000000000000000000000 000000000000000A000000000000000000000000000000000000000000000 000000000000000000000000000000000000000     00000000                                                                                                                        000000000000000000
F0010000008101600001000090034602400011050500000000000000000201601060002001PRODUCTOS NACIONALES PARAFINICOS LA CUSTODIA S.A.SD000000001000000000000000000000000100010010000000000000000000000F0010000008101600120160106000101 00000000000000000000000000000000000000000000000000000000000000000000000000000000000000000000000000000000000000000N 00000000000NCONT   00    00000000000          00000000000000000000000000000000000000000000 000000000000000A000000000000000000000000000000000000000000000 000000000000000000000000000000000000000     00000000                                                                                                                        000000000000000000
F0010000008101600002000090034602400041450500000000000000000201601060002001PRODUCTOS NACIONALES PARAFINICOS LA CUSTODIA S.A.SC000000000900000000000000000000000100010010000000000000000000000F0010000008101600220160106000101 00000000000000000000000000000000000000000000000000000000000000000000000000000000000000000000000000000000000000000N 00000000000NCONT   00    00000000000          00000000000000000000000000000000000000000000 000000000000000A000000000000000000000000000000000000000000000 000000000000000000000000000000000000000     00000000                                                                                                                        000000000000000000
F0010000008101600003000090034602400042505000000000000000000201601060002001PRODUCTOS NACIONALES PARAFINICOS LA CUSTODIA S.A.SC000000000100000000000000000000000100010010000000000000000000000F0010000008101600320160106000101 00000000000000000000000000000000000000000000000000000000000000000000000000000000000000000000000000000000000000000N 00000000000NCONT   00    00000000000          00000000000000000000000000000000000000000000 000000000000000A000000000000000000000000000000000000000000000 000000000000000000000000000000000000000     00000000                                                                                                                        000000000000000000
F0010000008101600004000090034602400023658300000000000000000201601060002001PRODUCTOS NACIONALES PARAFINICOS LA CUSTODIA S.A.SC000000000007200000000000000000000100010010000000000000000000000F0010000008101600420160106000101 00000000000000000000000000000000000000000000000000000000000000000000000000000000000000000000000000000000000000000N 00000000000NCONT   00    00000000000          00000000000000000000000000000000000000000000 000000000000000A000000000000000000000000000000000000000000000 000000000000000000000000000000000000000     00000000                                                                                                                        000000000000000000
F0010000008101600005000090034602400013552100000000000000000201601060002001PRODUCTOS NACIONALES PARAFINICOS LA CUSTODIA S.A.SD000000000007200000000000000000000100010010000000000000000000000F0010000008101600520160106000101 00000000000000000000000000000000000000000000000000000000000000000000000000000000000000000000000000000000000000000N 00000000000NCONT   00    00000000000          00000000000000000000000000000000000000000000 000000000000000A000000000000000000000000000000000000000000000 000000000000000000000000000000000000000     00000000                                                                                                                        000000000000000000
F0010000008101700001000090034602400011050500000000000000000201601060002001PRODUCTOS NACIONALES PARAFINICOS LA CUSTODIA S.A.SD000000002000000000000000000000000100010010000000000000000000000F0010000008101700120160106000101 00000000000000000000000000000000000000000000000000000000000000000000000000000000000000000000000000000000000000000N 00000000000NCONT   00    00000000000          00000000000000000000000000000000000000000000 000000000000000A000000000000000000000000000000000000000000000 000000000000000000000000000000000000000     00000000                                                                                                                        000000000000000000
F0010000008101700002000090034602400041450500000000000000000201601060002001PRODUCTOS NACIONALES PARAFINICOS LA CUSTODIA S.A.SC000000001800000000000000000000000100010010000000000000000000000F0010000008101700220160106000101 00000000000000000000000000000000000000000000000000000000000000000000000000000000000000000000000000000000000000000N 00000000000NCONT   00    00000000000          00000000000000000000000000000000000000000000 000000000000000A000000000000000000000000000000000000000000000 000000000000000000000000000000000000000     00000000                                                                                                                        000000000000000000
F0010000008101700003000090034602400042505000000000000000000201601060002001PRODUCTOS NACIONALES PARAFINICOS LA CUSTODIA S.A.SC000000000200000000000000000000000100010010000000000000000000000F0010000008101700320160106000101 00000000000000000000000000000000000000000000000000000000000000000000000000000000000000000000000000000000000000000N 00000000000NCONT   00    00000000000          00000000000000000000000000000000000000000000 000000000000000A000000000000000000000000000000000000000000000 000000000000000000000000000000000000000     00000000                                                                                                                        000000000000000000
F0010000008101700004000090034602400023658300000000000000000201601060002001PRODUCTOS NACIONALES PARAFINICOS LA CUSTODIA S.A.SC000000000014400000000000000000000100010010000000000000000000000F0010000008101700420160106000101 00000000000000000000000000000000000000000000000000000000000000000000000000000000000000000000000000000000000000000N 00000000000NCONT   00    00000000000          00000000000000000000000000000000000000000000 000000000000000A000000000000000000000000000000000000000000000 000000000000000000000000000000000000000     00000000                                                                                                                        000000000000000000
F0010000008101700005000090034602400013552100000000000000000201601060002001PRODUCTOS NACIONALES PARAFINICOS LA CUSTODIA S.A.SD000000000014400000000000000000000100010010000000000000000000000F0010000008101700520160106000101 00000000000000000000000000000000000000000000000000000000000000000000000000000000000000000000000000000000000000000N 00000000000NCONT   00    00000000000          00000000000000000000000000000000000000000000 000000000000000A000000000000000000000000000000000000000000000 000000000000000000000000000000000000000     00000000                                                                                                                        000000000000000000
F0010000008101800001000090034602400011050500000000000000000201601060002001PRODUCTOS NACIONALES PARAFINICOS LA CUSTODIA S.A.SD000000001000000000000000000000000100010010000000000000000000000F0010000008101800120160106000101 00000000000000000000000000000000000000000000000000000000000000000000000000000000000000000000000000000000000000000N 00000000000NCONT   00    00000000000          00000000000000000000000000000000000000000000 000000000000000A000000000000000000000000000000000000000000000 000000000000000000000000000000000000000     00000000                                                                                                                        000000000000000000
F0010000008101800002000090034602400041450500000000000000000201601060002001PRODUCTOS NACIONALES PARAFINICOS LA CUSTODIA S.A.SC000000000900000000000000000000000100010010000000000000000000000F0010000008101800220160106000101 00000000000000000000000000000000000000000000000000000000000000000000000000000000000000000000000000000000000000000N 00000000000NCONT   00    00000000000          00000000000000000000000000000000000000000000 000000000000000A000000000000000000000000000000000000000000000 000000000000000000000000000000000000000     00000000                                                                                                                        000000000000000000
F0010000008101800003000090034602400042505000000000000000000201601060002001PRODUCTOS NACIONALES PARAFINICOS LA CUSTODIA S.A.SC000000000100000000000000000000000100010010000000000000000000000F0010000008101800320160106000101 00000000000000000000000000000000000000000000000000000000000000000000000000000000000000000000000000000000000000000N 00000000000NCONT   00    00000000000          00000000000000000000000000000000000000000000 000000000000000A000000000000000000000000000000000000000000000 000000000000000000000000000000000000000     00000000                                                                                                                        000000000000000000
F0010000008101800004000090034602400023658300000000000000000201601060002001PRODUCTOS NACIONALES PARAFINICOS LA CUSTODIA S.A.SC000000000007200000000000000000000100010010000000000000000000000F0010000008101800420160106000101 00000000000000000000000000000000000000000000000000000000000000000000000000000000000000000000000000000000000000000N 00000000000NCONT   00    00000000000          00000000000000000000000000000000000000000000 000000000000000A000000000000000000000000000000000000000000000 000000000000000000000000000000000000000     00000000                                                                                                                        000000000000000000
F0010000008101800005000090034602400013552100000000000000000201601060002001PRODUCTOS NACIONALES PARAFINICOS LA CUSTODIA S.A.SD000000000007200000000000000000000100010010000000000000000000000F0010000008101800520160106000101 00000000000000000000000000000000000000000000000000000000000000000000000000000000000000000000000000000000000000000N 00000000000NCONT   00    00000000000          00000000000000000000000000000000000000000000 000000000000000A000000000000000000000000000000000000000000000 000000000000000000000000000000000000000     00000000                                                                                                                        000000000000000000
F0010000008101900001000090034602400011050500000000000000000201601060002001PRODUCTOS NACIONALES PARAFINICOS LA CUSTODIA S.A.SD000000002000000000000000000000000100010010000000000000000000000F0010000008101900120160106000101 00000000000000000000000000000000000000000000000000000000000000000000000000000000000000000000000000000000000000000N 00000000000NCONT   00    00000000000          00000000000000000000000000000000000000000000 000000000000000A000000000000000000000000000000000000000000000 000000000000000000000000000000000000000     00000000                                                                                                                        000000000000000000
F0010000008101900002000090034602400041450500000000000000000201601060002001PRODUCTOS NACIONALES PARAFINICOS LA CUSTODIA S.A.SC000000001800000000000000000000000100010010000000000000000000000F0010000008101900220160106000101 00000000000000000000000000000000000000000000000000000000000000000000000000000000000000000000000000000000000000000N 00000000000NCONT   00    00000000000          00000000000000000000000000000000000000000000 000000000000000A000000000000000000000000000000000000000000000 000000000000000000000000000000000000000     00000000                                                                                                                        000000000000000000
F0010000008101900003000090034602400042505000000000000000000201601060002001PRODUCTOS NACIONALES PARAFINICOS LA CUSTODIA S.A.SC000000000200000000000000000000000100010010000000000000000000000F0010000008101900320160106000101 00000000000000000000000000000000000000000000000000000000000000000000000000000000000000000000000000000000000000000N 00000000000NCONT   00    00000000000          00000000000000000000000000000000000000000000 000000000000000A000000000000000000000000000000000000000000000 000000000000000000000000000000000000000     00000000                                                                                                                        000000000000000000
F0010000008101900004000090034602400023658300000000000000000201601060002001PRODUCTOS NACIONALES PARAFINICOS LA CUSTODIA S.A.SC000000000014400000000000000000000100010010000000000000000000000F0010000008101900420160106000101 00000000000000000000000000000000000000000000000000000000000000000000000000000000000000000000000000000000000000000N 00000000000NCONT   00    00000000000          00000000000000000000000000000000000000000000 000000000000000A000000000000000000000000000000000000000000000 000000000000000000000000000000000000000     00000000                                                                                                                        000000000000000000
F0010000008101900005000090034602400013552100000000000000000201601060002001PRODUCTOS NACIONALES PARAFINICOS LA CUSTODIA S.A.SD000000000014400000000000000000000100010010000000000000000000000F0010000008101900520160106000101 00000000000000000000000000000000000000000000000000000000000000000000000000000000000000000000000000000000000000000N 00000000000NCONT   00    00000000000          00000000000000000000000000000000000000000000 000000000000000A000000000000000000000000000000000000000000000 000000000000000000000000000000000000000     00000000                                                                                                                        000000000000000000
F0010000008102000001000003287501100011050500000000000000000201601060002001ENVASES PLASTICOS JULISSA                         D000000002100000000000000000000000100010010000000000000000000000F0010000008102000120160106000101 00000000000000000000000000000000000000000000000000000000000000000000000000000000000000000000000000000000000000000N 00000000000NCONT   00    00000000000          00000000000000000000000000000000000000000000 000000000000000A000000000000000000000000000000000000000000000 000000000000000000000000000000000000000     00000000                                                                                                                        000000000000000000
F0010000008102000002000003287501100041450500000000000000000201601060002001ENVASES PLASTICOS JULISSA                         C000000001800000000000000000000000100010010000000000000000000000F0010000008102000220160106000101 00000000000000000000000000000000000000000000000000000000000000000000000000000000000000000000000000000000000000000N 00000000000NCONT   00    00000000000          00000000000000000000000000000000000000000000 000000000000000A000000000000000000000000000000000000000000000 000000000000000000000000000000000000000     00000000                                                                                                                        000000000000000000
