F0010000009811400001000003288324600011050500000000000000000201702160002001DISTRIBUCION CONTINENTES                          D000000005300000000000000000000000100010010000000000000000000000F0010000009811400120170216000101 00000000000000000000000000000000000000000000000000000000000000000000000000000000000000000000000000000000000000000N 00000000000NCONT   00    00000000000          00000000000000000000000000000000000000000000 000000000000000A000000000000000000000000000000000000000000000 000000000000000000000000000000000000000     00000000                                                                                                                        000000000000000000
F0010000009811400002000003288324600041450500000000000000000201702160002001DISTRIBUCION CONTINENTES                          C000000005200000000000000000000000100010010000000000000000000000F0010000009811400220170216000101 00000000000000000000000000000000000000000000000000000000000000000000000000000000000000000000000000000000000000000N 00000000000NCONT   00    00000000000          00000000000000000000000000000000000000000000 000000000000000A000000000000000000000000000000000000000000000 000000000000000000000000000000000000000     00000000                                                                                                                        000000000000000000
F0010000009811400003000003288324600042505000000000000000000201702160002001DISTRIBUCION CONTINENTES                          C000000000100000000000000000000000100010010000000000000000000000F0010000009811400320170216000101 00000000000000000000000000000000000000000000000000000000000000000000000000000000000000000000000000000000000000000N 00000000000NCONT   00    00000000000          00000000000000000000000000000000000000000000 000000000000000A000000000000000000000000000000000000000000000 000000000000000000000000000000000000000     00000000                                                                                                                        000000000000000000
F0010000009811400004000003288324600023658300000000000000000201702160002001DISTRIBUCION CONTINENTES                          C000000000041600000000000000000000100010010000000000000000000000F0010000009811400420170216000101 00000000000000000000000000000000000000000000000000000000000000000000000000000000000000000000000000000000000000000N 00000000000NCONT   00    00000000000          00000000000000000000000000000000000000000000 000000000000000A000000000000000000000000000000000000000000000 000000000000000000000000000000000000000     00000000                                                                                                                        000000000000000000
F0010000009811400005000003288324600013552100000000000000000201702160002001DISTRIBUCION CONTINENTES                          D000000000041600000000000000000000100010010000000000000000000000F0010000009811400520170216000101 00000000000000000000000000000000000000000000000000000000000000000000000000000000000000000000000000000000000000000N 00000000000NCONT   00    00000000000          00000000000000000000000000000000000000000000 000000000000000A000000000000000000000000000000000000000000000 000000000000000000000000000000000000000     00000000                                                                                                                        000000000000000000
F0010000009811500001000080022903500013050500000000000000000201702160002001TECNOGLASS S.A                                    D000000064259700000000000000000000100010010000000000000000000000F0010000009811500120170216000101 00000000000000000000000000000000000000000000000000000000000000000000000000000000000000000000000000000000000000000N 00000000000NCONT   00    00000000000          00000000000000000000000000000000000000000000 000000000000000A000000000000000000000000000000000000000000000 000000000000000000000000000000000000000     00000000                                                                                                                        000000000000000000
F0010000009811500002000080022903500041450500000000000000000201702160002001TECNOGLASS S.A                                    C000000055900000000000000000000000100010010000000000000000000000F0010000009811500220170216000101 00000000000000000000000000000000000000000000000000000000000000000000000000000000000000000000000000000000000000000N 00000000000NCONT   00    00000000000          00000000000000000000000000000000000000000000 000000000000000A000000000000000000000000000000000000000000000 000000000000000000000000000000000000000     00000000                                                                                                                        000000000000000000
F0010000009811500003000080022903500042505000000000000000000201702160002001TECNOGLASS S.A                                    C000000008359700000000000000000000100010010000000000000000000000F0010000009811500320170216000101 00000000000000000000000000000000000000000000000000000000000000000000000000000000000000000000000000000000000000000N 00000000000NCONT   00    00000000000          00000000000000000000000000000000000000000000 000000000000000A000000000000000000000000000000000000000000000 000000000000000000000000000000000000000     00000000                                                                                                                        000000000000000000
F0010000009811500004000080022903500023658300000000000000000201702160002001TECNOGLASS S.A                                    C000000000447200000000000000000000100010010000000000000000000000F0010000009811500420170216000101 00000000000000000000000000000000000000000000000000000000000000000000000000000000000000000000000000000000000000000N 00000000000NCONT   00    00000000000          00000000000000000000000000000000000000000000 000000000000000A000000000000000000000000000000000000000000000 000000000000000000000000000000000000000     00000000                                                                                                                        000000000000000000
F0010000009811500005000080022903500013552100000000000000000201702160002001TECNOGLASS S.A                                    D000000000447200000000000000000000100010010000000000000000000000F0010000009811500520170216000101 00000000000000000000000000000000000000000000000000000000000000000000000000000000000000000000000000000000000000000N 00000000000NCONT   00    00000000000          00000000000000000000000000000000000000000000 000000000000000A000000000000000000000000000000000000000000000 000000000000000000000000000000000000000     00000000                                                                                                                        000000000000000000
F0010000009811600001000083007900600013050500000000000000000201702160002001EXPRESO ANDINO DE CARGA SA                        D000000042900000000000000000000000100010010000000000000000000000F0010000009811600120170216000101 00000000000000000000000000000000000000000000000000000000000000000000000000000000000000000000000000000000000000000N 00000000000NCONT   00    00000000000          00000000000000000000000000000000000000000000 000000000000000A000000000000000000000000000000000000000000000 000000000000000000000000000000000000000     00000000                                                                                                                        000000000000000000
F0010000009811600002000083007900600041450500000000000000000201702160002001EXPRESO ANDINO DE CARGA SA                        C000000042000000000000000000000000100010010000000000000000000000F0010000009811600220170216000101 00000000000000000000000000000000000000000000000000000000000000000000000000000000000000000000000000000000000000000N 00000000000NCONT   00    00000000000          00000000000000000000000000000000000000000000 000000000000000A000000000000000000000000000000000000000000000 000000000000000000000000000000000000000     00000000                                                                                                                        000000000000000000
F0010000009811600003000083007900600042505000000000000000000201702160002001EXPRESO ANDINO DE CARGA SA                        C000000000900000000000000000000000100010010000000000000000000000F0010000009811600320170216000101 00000000000000000000000000000000000000000000000000000000000000000000000000000000000000000000000000000000000000000N 00000000000NCONT   00    00000000000          00000000000000000000000000000000000000000000 000000000000000A000000000000000000000000000000000000000000000 000000000000000000000000000000000000000     00000000                                                                                                                        000000000000000000
F0010000009811600004000083007900600023658300000000000000000201702160002001EXPRESO ANDINO DE CARGA SA                        C000000000336000000000000000000000100010010000000000000000000000F0010000009811600420170216000101 00000000000000000000000000000000000000000000000000000000000000000000000000000000000000000000000000000000000000000N 00000000000NCONT   00    00000000000          00000000000000000000000000000000000000000000 000000000000000A000000000000000000000000000000000000000000000 000000000000000000000000000000000000000     00000000                                                                                                                        000000000000000000
F0010000009811600005000083007900600013552100000000000000000201702160002001EXPRESO ANDINO DE CARGA SA                        D000000000336000000000000000000000100010010000000000000000000000F0010000009811600520170216000101 00000000000000000000000000000000000000000000000000000000000000000000000000000000000000000000000000000000000000000N 00000000000NCONT   00    00000000000          00000000000000000000000000000000000000000000 000000000000000A000000000000000000000000000000000000000000000 000000000000000000000000000000000000000     00000000                                                                                                                        000000000000000000
F0010000009811700001000083007900600013050500000000000000000201702160002001EXPRESO ANDINO DE CARGA S.A                       D000000065760000000000000000000000100010010000000000000000000000F0010000009811700120170216000101 00000000000000000000000000000000000000000000000000000000000000000000000000000000000000000000000000000000000000000N 00000000000NCONT   00    00000000000          00000000000000000000000000000000000000000000 000000000000000A000000000000000000000000000000000000000000000 000000000000000000000000000000000000000     00000000                                                                                                                        000000000000000000
F0010000009811700002000083007900600041450500000000000000000201702160002001EXPRESO ANDINO DE CARGA S.A                       C000000065160000000000000000000000100010010000000000000000000000F0010000009811700220170216000101 00000000000000000000000000000000000000000000000000000000000000000000000000000000000000000000000000000000000000000N 00000000000NCONT   00    00000000000          00000000000000000000000000000000000000000000 000000000000000A000000000000000000000000000000000000000000000 000000000000000000000000000000000000000     00000000                                                                                                                        000000000000000000
F0010000009811700003000083007900600042505000000000000000000201702160002001EXPRESO ANDINO DE CARGA S.A                       C000000000600000000000000000000000100010010000000000000000000000F0010000009811700320170216000101 00000000000000000000000000000000000000000000000000000000000000000000000000000000000000000000000000000000000000000N 00000000000NCONT   00    00000000000          00000000000000000000000000000000000000000000 000000000000000A000000000000000000000000000000000000000000000 000000000000000000000000000000000000000     00000000                                                                                                                        000000000000000000
F0010000009811700004000083007900600023658300000000000000000201702160002001EXPRESO ANDINO DE CARGA S.A                       C000000000521300000000000000000000100010010000000000000000000000F0010000009811700420170216000101 00000000000000000000000000000000000000000000000000000000000000000000000000000000000000000000000000000000000000000N 00000000000NCONT   00    00000000000          00000000000000000000000000000000000000000000 000000000000000A000000000000000000000000000000000000000000000 000000000000000000000000000000000000000     00000000                                                                                                                        000000000000000000
F0010000009811700005000083007900600013552100000000000000000201702160002001EXPRESO ANDINO DE CARGA S.A                       D000000000521300000000000000000000100010010000000000000000000000F0010000009811700520170216000101 00000000000000000000000000000000000000000000000000000000000000000000000000000000000000000000000000000000000000000N 00000000000NCONT   00    00000000000          00000000000000000000000000000000000000000000 000000000000000A000000000000000000000000000000000000000000000 000000000000000000000000000000000000000     00000000                                                                                                                        000000000000000000
F0010000009811800001000080002300200013050500000000000000000201702160002001DISREL S.A.                                       D000000046260000000000000000000000100010010000000000000000000000F0010000009811800120170216000101 00000000000000000000000000000000000000000000000000000000000000000000000000000000000000000000000000000000000000000N 00000000000NCONT   00    00000000000          00000000000000000000000000000000000000000000 000000000000000A000000000000000000000000000000000000000000000 000000000000000000000000000000000000000     00000000                                                                                                                        000000000000000000
F0010000009811800002000080002300200041450500000000000000000201702160002001DISREL S.A.                                       C000000036920000000000000000000000100010010000000000000000000000F0010000009811800220170216000101 00000000000000000000000000000000000000000000000000000000000000000000000000000000000000000000000000000000000000000N 00000000000NCONT   00    00000000000          00000000000000000000000000000000000000000000 000000000000000A000000000000000000000000000000000000000000000 000000000000000000000000000000000000000     00000000                                                                                                                        000000000000000000
F0010000009811800003000080002300200042505000000000000000000201702160002001DISREL S.A.                                       C000000009340000000000000000000000100010010000000000000000000000F0010000009811800320170216000101 00000000000000000000000000000000000000000000000000000000000000000000000000000000000000000000000000000000000000000N 00000000000NCONT   00    00000000000          00000000000000000000000000000000000000000000 000000000000000A000000000000000000000000000000000000000000000 000000000000000000000000000000000000000     00000000                                                                                                                        000000000000000000
F0010000009811800004000080002300200023658300000000000000000201702160002001DISREL S.A.                                       C000000000295400000000000000000000100010010000000000000000000000F0010000009811800420170216000101 00000000000000000000000000000000000000000000000000000000000000000000000000000000000000000000000000000000000000000N 00000000000NCONT   00    00000000000          00000000000000000000000000000000000000000000 000000000000000A000000000000000000000000000000000000000000000 000000000000000000000000000000000000000     00000000                                                                                                                        000000000000000000
F0010000009811800005000080002300200013552100000000000000000201702160002001DISREL S.A.                                       D000000000295400000000000000000000100010010000000000000000000000F0010000009811800520170216000101 00000000000000000000000000000000000000000000000000000000000000000000000000000000000000000000000000000000000000000N 00000000000NCONT   00    00000000000          00000000000000000000000000000000000000000000 000000000000000A000000000000000000000000000000000000000000000 000000000000000000000000000000000000000     00000000                                                                                                                        000000000000000000
F0010000009811900001000003207718300011050500000000000000000201702160002001MARIA GILMA RAMIREZ GARCIA                        D000000005500000000000000000000000100010010000000000000000000000F0010000009811900120170216000101 00000000000000000000000000000000000000000000000000000000000000000000000000000000000000000000000000000000000000000N 00000000000NCONT   00    00000000000          00000000000000000000000000000000000000000000 000000000000000A000000000000000000000000000000000000000000000 000000000000000000000000000000000000000     00000000                                                                                                                        000000000000000000
F0010000009811900002000003207718300041450500000000000000000201702160002001MARIA GILMA RAMIREZ GARCIA                        C000000004900000000000000000000000100010010000000000000000000000F0010000009811900220170216000101 00000000000000000000000000000000000000000000000000000000000000000000000000000000000000000000000000000000000000000N 00000000000NCONT   00    00000000000          00000000000000000000000000000000000000000000 000000000000000A000000000000000000000000000000000000000000000 000000000000000000000000000000000000000     00000000                                                                                                                        000000000000000000
F0010000009811900003000003207718300042505000000000000000000201702160002001MARIA GILMA RAMIREZ GARCIA                        C000000000600000000000000000000000100010010000000000000000000000F0010000009811900320170216000101 00000000000000000000000000000000000000000000000000000000000000000000000000000000000000000000000000000000000000000N 00000000000NCONT   00    00000000000          00000000000000000000000000000000000000000000 000000000000000A000000000000000000000000000000000000000000000 000000000000000000000000000000000000000     00000000                                                                                                                        000000000000000000
F0010000009811900004000003207718300023658300000000000000000201702160002001MARIA GILMA RAMIREZ GARCIA                        C000000000039200000000000000000000100010010000000000000000000000F0010000009811900420170216000101 00000000000000000000000000000000000000000000000000000000000000000000000000000000000000000000000000000000000000000N 00000000000NCONT   00    00000000000          00000000000000000000000000000000000000000000 000000000000000A000000000000000000000000000000000000000000000 000000000000000000000000000000000000000     00000000                                                                                                                        000000000000000000
F0010000009811900005000003207718300013552100000000000000000201702160002001MARIA GILMA RAMIREZ GARCIA                        D000000000039200000000000000000000100010010000000000000000000000F0010000009811900520170216000101 00000000000000000000000000000000000000000000000000000000000000000000000000000000000000000000000000000000000000000N 00000000000NCONT   00    00000000000          00000000000000000000000000000000000000000000 000000000000000A000000000000000000000000000000000000000000000 000000000000000000000000000000000000000     00000000                                                                                                                        000000000000000000
F0010000009812000001000003207718300011050500000000000000000201702160002001MARIA GILMA RAMIREZ GARCIA                        D000000007000000000000000000000000100010010000000000000000000000F0010000009812000120170216000101 00000000000000000000000000000000000000000000000000000000000000000000000000000000000000000000000000000000000000000N 00000000000NCONT   00    00000000000          00000000000000000000000000000000000000000000 000000000000000A000000000000000000000000000000000000000000000 000000000000000000000000000000000000000     00000000                                                                                                                        000000000000000000
F0010000009812000002000003207718300041450500000000000000000201702160002001MARIA GILMA RAMIREZ GARCIA                        C000000006400000000000000000000000100010010000000000000000000000F0010000009812000220170216000101 00000000000000000000000000000000000000000000000000000000000000000000000000000000000000000000000000000000000000000N 00000000000NCONT   00    00000000000          00000000000000000000000000000000000000000000 000000000000000A000000000000000000000000000000000000000000000 000000000000000000000000000000000000000     00000000                                                                                                                        000000000000000000
F0010000009812000003000003207718300042505000000000000000000201702160002001MARIA GILMA RAMIREZ GARCIA                        C000000000600000000000000000000000100010010000000000000000000000F0010000009812000320170216000101 00000000000000000000000000000000000000000000000000000000000000000000000000000000000000000000000000000000000000000N 00000000000NCONT   00    00000000000          00000000000000000000000000000000000000000000 000000000000000A000000000000000000000000000000000000000000000 000000000000000000000000000000000000000     00000000                                                                                                                        000000000000000000
F0010000009812000004000003207718300023658300000000000000000201702160002001MARIA GILMA RAMIREZ GARCIA                        C000000000051200000000000000000000100010010000000000000000000000F0010000009812000420170216000101 00000000000000000000000000000000000000000000000000000000000000000000000000000000000000000000000000000000000000000N 00000000000NCONT   00    00000000000          00000000000000000000000000000000000000000000 000000000000000A000000000000000000000000000000000000000000000 000000000000000000000000000000000000000     00000000                                                                                                                        000000000000000000
F0010000009812000005000003207718300013552100000000000000000201702160002001MARIA GILMA RAMIREZ GARCIA                        D000000000051200000000000000000000100010010000000000000000000000F0010000009812000520170216000101 00000000000000000000000000000000000000000000000000000000000000000000000000000000000000000000000000000000000000000N 00000000000NCONT   00    00000000000          00000000000000000000000000000000000000000000 000000000000000A000000000000000000000000000000000000000000000 000000000000000000000000000000000000000     00000000                                                                                                                        000000000000000000
F0010000009812100001000089080176300013050500000000000000000201702160002001SEGAR S.A.                                        D000000084631200000000000000000000100010010000000000000000000000F0010000009812100120170216000101 00000000000000000000000000000000000000000000000000000000000000000000000000000000000000000000000000000000000000000N 00000000000NCONT   00    00000000000          00000000000000000000000000000000000000000000 000000000000000A000000000000000000000000000000000000000000000 000000000000000000000000000000000000000     00000000                                                                                                                        000000000000000000
F0010000009812100002000089080176300041450500000000000000000201702160002001SEGAR S.A.                                        C000000071586000000000000000000000100010010000000000000000000000F0010000009812100220170216000101 00000000000000000000000000000000000000000000000000000000000000000000000000000000000000000000000000000000000000000N 00000000000NCONT   00    00000000000          00000000000000000000000000000000000000000000 000000000000000A000000000000000000000000000000000000000000000 000000000000000000000000000000000000000     00000000                                                                                                                        000000000000000000
F0010000009812100003000089080176300042505000000000000000000201702160002001SEGAR S.A.                                        C000000013045200000000000000000000100010010000000000000000000000F0010000009812100320170216000101 00000000000000000000000000000000000000000000000000000000000000000000000000000000000000000000000000000000000000000N 00000000000NCONT   00    00000000000          00000000000000000000000000000000000000000000 000000000000000A000000000000000000000000000000000000000000000 000000000000000000000000000000000000000     00000000                                                                                                                        000000000000000000
F0010000009812100004000089080176300023658300000000000000000201702160002001SEGAR S.A.                                        C000000000572700000000000000000000100010010000000000000000000000F0010000009812100420170216000101 00000000000000000000000000000000000000000000000000000000000000000000000000000000000000000000000000000000000000000N 00000000000NCONT   00    00000000000          00000000000000000000000000000000000000000000 000000000000000A000000000000000000000000000000000000000000000 000000000000000000000000000000000000000     00000000                                                                                                                        000000000000000000
F0010000009812100005000089080176300013552100000000000000000201702160002001SEGAR S.A.                                        D000000000572700000000000000000000100010010000000000000000000000F0010000009812100520170216000101 00000000000000000000000000000000000000000000000000000000000000000000000000000000000000000000000000000000000000000N 00000000000NCONT   00    00000000000          00000000000000000000000000000000000000000000 000000000000000A000000000000000000000000000000000000000000000 000000000000000000000000000000000000000     00000000                                                                                                                        000000000000000000
F0010000009812200001000080200863700013050500000000000000000201702160002001COPIN S.A.S                                       D000000099089800000000000000000000100010010000000000000000000000F0010000009812200120170216000101 00000000000000000000000000000000000000000000000000000000000000000000000000000000000000000000000000000000000000000N 00000000000NCONT   00    00000000000          00000000000000000000000000000000000000000000 000000000000000A000000000000000000000000000000000000000000000 000000000000000000000000000000000000000     00000000                                                                                                                        000000000000000000
F0010000009812200002000080200863700041450500000000000000000201702160002001COPIN S.A.S                                       C000000090596800000000000000000000100010010000000000000000000000F0010000009812200220170216000101 00000000000000000000000000000000000000000000000000000000000000000000000000000000000000000000000000000000000000000N 00000000000NCONT   00    00000000000          00000000000000000000000000000000000000000000 000000000000000A000000000000000000000000000000000000000000000 000000000000000000000000000000000000000     00000000                                                                                                                        000000000000000000
F0010000009812200003000080200863700042505000000000000000000201702160002001COPIN S.A.S                                       C000000008493000000000000000000000100010010000000000000000000000F0010000009812200320170216000101 00000000000000000000000000000000000000000000000000000000000000000000000000000000000000000000000000000000000000000N 00000000000NCONT   00    00000000000          00000000000000000000000000000000000000000000 000000000000000A000000000000000000000000000000000000000000000 000000000000000000000000000000000000000     00000000                                                                                                                        000000000000000000
F0010000009812200004000080200863700023658300000000000000000201702160002001COPIN S.A.S                                       C000000000724800000000000000000000100010010000000000000000000000F0010000009812200420170216000101 00000000000000000000000000000000000000000000000000000000000000000000000000000000000000000000000000000000000000000N 00000000000NCONT   00    00000000000          00000000000000000000000000000000000000000000 000000000000000A000000000000000000000000000000000000000000000 000000000000000000000000000000000000000     00000000                                                                                                                        000000000000000000
F0010000009812200005000080200863700013552100000000000000000201702160002001COPIN S.A.S                                       D000000000724800000000000000000000100010010000000000000000000000F0010000009812200520170216000101 00000000000000000000000000000000000000000000000000000000000000000000000000000000000000000000000000000000000000000N 00000000000NCONT   00    00000000000          00000000000000000000000000000000000000000000 000000000000000A000000000000000000000000000000000000000000000 000000000000000000000000000000000000000     00000000                                                                                                                        000000000000000000
F0010000009812300001000089070997800013050500000000000000000201702160002001CENTRAL DE TORNILLOS                              D000000041172500000000000000000000100010010000000000000000000000F0010000009812300120170216000101 00000000000000000000000000000000000000000000000000000000000000000000000000000000000000000000000000000000000000000N 00000000000NCONT   00    00000000000          00000000000000000000000000000000000000000000 000000000000000A000000000000000000000000000000000000000000000 000000000000000000000000000000000000000     00000000                                                                                                                        000000000000000000
F0010000009812300002000089070997800041450500000000000000000201702160002001CENTRAL DE TORNILLOS                              C000000036570000000000000000000000100010010000000000000000000000F0010000009812300220170216000101 00000000000000000000000000000000000000000000000000000000000000000000000000000000000000000000000000000000000000000N 00000000000NCONT   00    00000000000          00000000000000000000000000000000000000000000 000000000000000A000000000000000000000000000000000000000000000 000000000000000000000000000000000000000     00000000                                                                                                                        000000000000000000
F0010000009812300003000089070997800042505000000000000000000201702160002001CENTRAL DE TORNILLOS                              C000000004602500000000000000000000100010010000000000000000000000F0010000009812300320170216000101 00000000000000000000000000000000000000000000000000000000000000000000000000000000000000000000000000000000000000000N 00000000000NCONT   00    00000000000          00000000000000000000000000000000000000000000 000000000000000A000000000000000000000000000000000000000000000 000000000000000000000000000000000000000     00000000                                                                                                                        000000000000000000
F0010000009812300004000089070997800023658300000000000000000201702160002001CENTRAL DE TORNILLOS                              C000000000292600000000000000000000100010010000000000000000000000F0010000009812300420170216000101 00000000000000000000000000000000000000000000000000000000000000000000000000000000000000000000000000000000000000000N 00000000000NCONT   00    00000000000          00000000000000000000000000000000000000000000 000000000000000A000000000000000000000000000000000000000000000 000000000000000000000000000000000000000     00000000                                                                                                                        000000000000000000
F0010000009812300005000089070997800013552100000000000000000201702160002001CENTRAL DE TORNILLOS                              D000000000292600000000000000000000100010010000000000000000000000F0010000009812300520170216000101 00000000000000000000000000000000000000000000000000000000000000000000000000000000000000000000000000000000000000000N 00000000000NCONT   00    00000000000          00000000000000000000000000000000000000000000 000000000000000A000000000000000000000000000000000000000000000 000000000000000000000000000000000000000     00000000                                                                                                                        000000000000000000
F0010000009812400001000090064982900013050500000000000000000201702160002001DISDIES S.A.S                                     D000000117637100000000000000000000100010010000000000000000000000F0010000009812400120170216000101 00000000000000000000000000000000000000000000000000000000000000000000000000000000000000000000000000000000000000000N 00000000000NCONT   00    00000000000          00000000000000000000000000000000000000000000 000000000000000A000000000000000000000000000000000000000000000 000000000000000000000000000000000000000     00000000                                                                                                                        000000000000000000
F0010000009812400002000090064982900041450500000000000000000201702160002001DISDIES S.A.S                                     C000000103306700000000000000000000100010010000000000000000000000F0010000009812400220170216000101 00000000000000000000000000000000000000000000000000000000000000000000000000000000000000000000000000000000000000000N 00000000000NCONT   00    00000000000          00000000000000000000000000000000000000000000 000000000000000A000000000000000000000000000000000000000000000 000000000000000000000000000000000000000     00000000                                                                                                                        000000000000000000
F0010000009812400003000090064982900042505000000000000000000201702160002001DISDIES S.A.S                                     C000000014330400000000000000000000100010010000000000000000000000F0010000009812400320170216000101 00000000000000000000000000000000000000000000000000000000000000000000000000000000000000000000000000000000000000000N 00000000000NCONT   00    00000000000          00000000000000000000000000000000000000000000 000000000000000A000000000000000000000000000000000000000000000 000000000000000000000000000000000000000     00000000                                                                                                                        000000000000000000
F0010000009812400004000090064982900023658300000000000000000201702160002001DISDIES S.A.S                                     C000000000826500000000000000000000100010010000000000000000000000F0010000009812400420170216000101 00000000000000000000000000000000000000000000000000000000000000000000000000000000000000000000000000000000000000000N 00000000000NCONT   00    00000000000          00000000000000000000000000000000000000000000 000000000000000A000000000000000000000000000000000000000000000 000000000000000000000000000000000000000     00000000                                                                                                                        000000000000000000
F0010000009812400005000090064982900013552100000000000000000201702160002001DISDIES S.A.S                                     D000000000826500000000000000000000100010010000000000000000000000F0010000009812400520170216000101 00000000000000000000000000000000000000000000000000000000000000000000000000000000000000000000000000000000000000000N 00000000000NCONT   00    00000000000          00000000000000000000000000000000000000000000 000000000000000A000000000000000000000000000000000000000000000 000000000000000000000000000000000000000     00000000                                                                                                                        000000000000000000
F0010000009812500001000090064982900013050500000000000000000201702160002001DISDIES S.A.S                                     D000000129522000000000000000000000100010010000000000000000000000F0010000009812500120170216000101 00000000000000000000000000000000000000000000000000000000000000000000000000000000000000000000000000000000000000000N 00000000000NCONT   00    00000000000          00000000000000000000000000000000000000000000 000000000000000A000000000000000000000000000000000000000000000 000000000000000000000000000000000000000     00000000                                                                                                                        000000000000000000
F0010000009812500002000090064982900041450500000000000000000201702160002001DISDIES S.A.S                                     C000000109820800000000000000000000100010010000000000000000000000F0010000009812500220170216000101 00000000000000000000000000000000000000000000000000000000000000000000000000000000000000000000000000000000000000000N 00000000000NCONT   00    00000000000          00000000000000000000000000000000000000000000 000000000000000A000000000000000000000000000000000000000000000 000000000000000000000000000000000000000     00000000                                                                                                                        000000000000000000
F0010000009812500003000090064982900042505000000000000000000201702160002001DISDIES S.A.S                                     C000000019701200000000000000000000100010010000000000000000000000F0010000009812500320170216000101 00000000000000000000000000000000000000000000000000000000000000000000000000000000000000000000000000000000000000000N 00000000000NCONT   00    00000000000          00000000000000000000000000000000000000000000 000000000000000A000000000000000000000000000000000000000000000 000000000000000000000000000000000000000     00000000                                                                                                                        000000000000000000
F0010000009812500004000090064982900023658300000000000000000201702160002001DISDIES S.A.S                                     C000000000878600000000000000000000100010010000000000000000000000F0010000009812500420170216000101 00000000000000000000000000000000000000000000000000000000000000000000000000000000000000000000000000000000000000000N 00000000000NCONT   00    00000000000          00000000000000000000000000000000000000000000 000000000000000A000000000000000000000000000000000000000000000 000000000000000000000000000000000000000     00000000                                                                                                                        000000000000000000
F0010000009812500005000090064982900013552100000000000000000201702160002001DISDIES S.A.S                                     D000000000878600000000000000000000100010010000000000000000000000F0010000009812500520170216000101 00000000000000000000000000000000000000000000000000000000000000000000000000000000000000000000000000000000000000000N 00000000000NCONT   00    00000000000          00000000000000000000000000000000000000000000 000000000000000A000000000000000000000000000000000000000000000 000000000000000000000000000000000000000     00000000                                                                                                                        000000000000000000
F0010000009812600001000089010260300013050500000000000000000201702160002001FEDERICO OSORIO A. S.A.                           D000000091000800000000000000000000100010010000000000000000000000F0010000009812600120170216000101 00000000000000000000000000000000000000000000000000000000000000000000000000000000000000000000000000000000000000000N 00000000000NCONT   00    00000000000          00000000000000000000000000000000000000000000 000000000000000A000000000000000000000000000000000000000000000 000000000000000000000000000000000000000     00000000                                                                                                                        000000000000000000
F0010000009812600002000089010260300041450500000000000000000201702160002001FEDERICO OSORIO A. S.A.                           C000000082460000000000000000000000100010010000000000000000000000F0010000009812600220170216000101 00000000000000000000000000000000000000000000000000000000000000000000000000000000000000000000000000000000000000000N 00000000000NCONT   00    00000000000          00000000000000000000000000000000000000000000 000000000000000A000000000000000000000000000000000000000000000 000000000000000000000000000000000000000     00000000                                                                                                                        000000000000000000
F0010000009812600003000089010260300042505000000000000000000201702160002001FEDERICO OSORIO A. S.A.                           C000000008540800000000000000000000100010010000000000000000000000F0010000009812600320170216000101 00000000000000000000000000000000000000000000000000000000000000000000000000000000000000000000000000000000000000000N 00000000000NCONT   00    00000000000          00000000000000000000000000000000000000000000 000000000000000A000000000000000000000000000000000000000000000 000000000000000000000000000000000000000     00000000                                                                                                                        000000000000000000
F0010000009812600004000089010260300023658300000000000000000201702160002001FEDERICO OSORIO A. S.A.                           C000000000659700000000000000000000100010010000000000000000000000F0010000009812600420170216000101 00000000000000000000000000000000000000000000000000000000000000000000000000000000000000000000000000000000000000000N 00000000000NCONT   00    00000000000          00000000000000000000000000000000000000000000 000000000000000A000000000000000000000000000000000000000000000 000000000000000000000000000000000000000     00000000                                                                                                                        000000000000000000
F0010000009812600005000089010260300013552100000000000000000201702160002001FEDERICO OSORIO A. S.A.                           D000000000659700000000000000000000100010010000000000000000000000F0010000009812600520170216000101 00000000000000000000000000000000000000000000000000000000000000000000000000000000000000000000000000000000000000000N 00000000000NCONT   00    00000000000          00000000000000000000000000000000000000000000 000000000000000A000000000000000000000000000000000000000000000 000000000000000000000000000000000000000     00000000                                                                                                                        000000000000000000
F0010000009812700001000089010260300013050500000000000000000201702160002001FEDERICO OSORIO A. S.A.                           D000000073740500000000000000000000100010010000000000000000000000F0010000009812700120170216000101 00000000000000000000000000000000000000000000000000000000000000000000000000000000000000000000000000000000000000000N 00000000000NCONT   00    00000000000          00000000000000000000000000000000000000000000 000000000000000A000000000000000000000000000000000000000000000 000000000000000000000000000000000000000     00000000                                                                                                                        000000000000000000
F0010000009812700002000089010260300041450500000000000000000201702160002001FEDERICO OSORIO A. S.A.                           C000000064480000000000000000000000100010010000000000000000000000F0010000009812700220170216000101 00000000000000000000000000000000000000000000000000000000000000000000000000000000000000000000000000000000000000000N 00000000000NCONT   00    00000000000          00000000000000000000000000000000000000000000 000000000000000A000000000000000000000000000000000000000000000 000000000000000000000000000000000000000     00000000                                                                                                                        000000000000000000
F0010000009812700003000089010260300042505000000000000000000201702160002001FEDERICO OSORIO A. S.A.                           C000000009260500000000000000000000100010010000000000000000000000F0010000009812700320170216000101 00000000000000000000000000000000000000000000000000000000000000000000000000000000000000000000000000000000000000000N 00000000000NCONT   00    00000000000          00000000000000000000000000000000000000000000 000000000000000A000000000000000000000000000000000000000000000 000000000000000000000000000000000000000     00000000                                                                                                                        000000000000000000
F0010000009812700004000089010260300023658300000000000000000201702160002001FEDERICO OSORIO A. S.A.                           C000000000515800000000000000000000100010010000000000000000000000F0010000009812700420170216000101 00000000000000000000000000000000000000000000000000000000000000000000000000000000000000000000000000000000000000000N 00000000000NCONT   00    00000000000          00000000000000000000000000000000000000000000 000000000000000A000000000000000000000000000000000000000000000 000000000000000000000000000000000000000     00000000                                                                                                                        000000000000000000
F0010000009812700005000089010260300013552100000000000000000201702160002001FEDERICO OSORIO A. S.A.                           D000000000515800000000000000000000100010010000000000000000000000F0010000009812700520170216000101 00000000000000000000000000000000000000000000000000000000000000000000000000000000000000000000000000000000000000000N 00000000000NCONT   00    00000000000          00000000000000000000000000000000000000000000 000000000000000A000000000000000000000000000000000000000000000 000000000000000000000000000000000000000     00000000                                                                                                                        000000000000000000
F0010000009812800001000089010260300013050500000000000000000201702160002001FEDERICO OSORIO A. S.A.                           D000000047718400000000000000000000100010010000000000000000000000F0010000009812800120170216000101 00000000000000000000000000000000000000000000000000000000000000000000000000000000000000000000000000000000000000000N 00000000000NCONT   00    00000000000          00000000000000000000000000000000000000000000 000000000000000A000000000000000000000000000000000000000000000 000000000000000000000000000000000000000     00000000                                                                                                                        000000000000000000
F0010000009812800002000089010260300041450500000000000000000201702160002001FEDERICO OSORIO A. S.A.                           C000000044160000000000000000000000100010010000000000000000000000F0010000009812800220170216000101 00000000000000000000000000000000000000000000000000000000000000000000000000000000000000000000000000000000000000000N 00000000000NCONT   00    00000000000          00000000000000000000000000000000000000000000 000000000000000A000000000000000000000000000000000000000000000 000000000000000000000000000000000000000     00000000                                                                                                                        000000000000000000
F0010000009812800003000089010260300042505000000000000000000201702160002001FEDERICO OSORIO A. S.A.                           C000000003558400000000000000000000100010010000000000000000000000F0010000009812800320170216000101 00000000000000000000000000000000000000000000000000000000000000000000000000000000000000000000000000000000000000000N 00000000000NCONT   00    00000000000          00000000000000000000000000000000000000000000 000000000000000A000000000000000000000000000000000000000000000 000000000000000000000000000000000000000     00000000                                                                                                                        000000000000000000
F0010000009812800004000089010260300023658300000000000000000201702160002001FEDERICO OSORIO A. S.A.                           C000000000353300000000000000000000100010010000000000000000000000F0010000009812800420170216000101 00000000000000000000000000000000000000000000000000000000000000000000000000000000000000000000000000000000000000000N 00000000000NCONT   00    00000000000          00000000000000000000000000000000000000000000 000000000000000A000000000000000000000000000000000000000000000 000000000000000000000000000000000000000     00000000                                                                                                                        000000000000000000
F0010000009812800005000089010260300013552100000000000000000201702160002001FEDERICO OSORIO A. S.A.                           D000000000353300000000000000000000100010010000000000000000000000F0010000009812800520170216000101 00000000000000000000000000000000000000000000000000000000000000000000000000000000000000000000000000000000000000000N 00000000000NCONT   00    00000000000          00000000000000000000000000000000000000000000 000000000000000A000000000000000000000000000000000000000000000 000000000000000000000000000000000000000     00000000                                                                                                                        000000000000000000
F0010000009812900001000090008711200013050500000000000000000201702160002001PACKAGING SUPPLIERS S.A.                          D000000074208700000000000000000000100010010000000000000000000000F0010000009812900120170216000101 00000000000000000000000000000000000000000000000000000000000000000000000000000000000000000000000000000000000000000N 00000000000NCONT   00    00000000000          00000000000000000000000000000000000000000000 000000000000000A000000000000000000000000000000000000000000000 000000000000000000000000000000000000000     00000000                                                                                                                        000000000000000000
F0010000009812900002000090008711200041450500000000000000000201702160002001PACKAGING SUPPLIERS S.A.                          C000000064997700000000000000000000100010010000000000000000000000F0010000009812900220170216000101 00000000000000000000000000000000000000000000000000000000000000000000000000000000000000000000000000000000000000000N 00000000000NCONT   00    00000000000          00000000000000000000000000000000000000000000 000000000000000A000000000000000000000000000000000000000000000 000000000000000000000000000000000000000     00000000                                                                                                                        000000000000000000
F0010000009812900003000090008711200042505000000000000000000201702160002001PACKAGING SUPPLIERS S.A.                          C000000009211000000000000000000000100010010000000000000000000000F0010000009812900320170216000101 00000000000000000000000000000000000000000000000000000000000000000000000000000000000000000000000000000000000000000N 00000000000NCONT   00    00000000000          00000000000000000000000000000000000000000000 000000000000000A000000000000000000000000000000000000000000000 000000000000000000000000000000000000000     00000000                                                                                                                        000000000000000000
F0010000009812900004000090008711200023658300000000000000000201702160002001PACKAGING SUPPLIERS S.A.                          C000000000520000000000000000000000100010010000000000000000000000F0010000009812900420170216000101 00000000000000000000000000000000000000000000000000000000000000000000000000000000000000000000000000000000000000000N 00000000000NCONT   00    00000000000          00000000000000000000000000000000000000000000 000000000000000A000000000000000000000000000000000000000000000 000000000000000000000000000000000000000     00000000                                                                                                                        000000000000000000
F0010000009812900005000090008711200013552100000000000000000201702160002001PACKAGING SUPPLIERS S.A.                          D000000000520000000000000000000000100010010000000000000000000000F0010000009812900520170216000101 00000000000000000000000000000000000000000000000000000000000000000000000000000000000000000000000000000000000000000N 00000000000NCONT   00    00000000000          00000000000000000000000000000000000000000000 000000000000000A000000000000000000000000000000000000000000000 000000000000000000000000000000000000000     00000000                                                                                                                        000000000000000000
F0010000009813000001000090008711200013050500000000000000000201702160002001PACKAGING SUPPLIERS S.A.                          D000000015745000000000000000000000100010010000000000000000000000F0010000009813000120170216000101 00000000000000000000000000000000000000000000000000000000000000000000000000000000000000000000000000000000000000000N 00000000000NCONT   00    00000000000          00000000000000000000000000000000000000000000 000000000000000A000000000000000000000000000000000000000000000 000000000000000000000000000000000000000     00000000                                                                                                                        000000000000000000
F0010000009813000002000090008711200041450500000000000000000201702160002001PACKAGING SUPPLIERS S.A.                          C000000013110000000000000000000000100010010000000000000000000000F0010000009813000220170216000101 00000000000000000000000000000000000000000000000000000000000000000000000000000000000000000000000000000000000000000N 00000000000NCONT   00    00000000000          00000000000000000000000000000000000000000000 000000000000000A000000000000000000000000000000000000000000000 000000000000000000000000000000000000000     00000000                                                                                                                        000000000000000000
F0010000009813000003000090008711200042505000000000000000000201702160002001PACKAGING SUPPLIERS S.A.                          C000000002635000000000000000000000100010010000000000000000000000F0010000009813000320170216000101 00000000000000000000000000000000000000000000000000000000000000000000000000000000000000000000000000000000000000000N 00000000000NCONT   00    00000000000          00000000000000000000000000000000000000000000 000000000000000A000000000000000000000000000000000000000000000 000000000000000000000000000000000000000     00000000                                                                                                                        000000000000000000
F0010000009813000004000090008711200023658300000000000000000201702160002001PACKAGING SUPPLIERS S.A.                          C000000000104900000000000000000000100010010000000000000000000000F0010000009813000420170216000101 00000000000000000000000000000000000000000000000000000000000000000000000000000000000000000000000000000000000000000N 00000000000NCONT   00    00000000000          00000000000000000000000000000000000000000000 000000000000000A000000000000000000000000000000000000000000000 000000000000000000000000000000000000000     00000000                                                                                                                        000000000000000000
F0010000009813000005000090008711200013552100000000000000000201702160002001PACKAGING SUPPLIERS S.A.                          D000000000104900000000000000000000100010010000000000000000000000F0010000009813000520170216000101 00000000000000000000000000000000000000000000000000000000000000000000000000000000000000000000000000000000000000000N 00000000000NCONT   00    00000000000          00000000000000000000000000000000000000000000 000000000000000A000000000000000000000000000000000000000000000 000000000000000000000000000000000000000     00000000                                                                                                                        000000000000000000
F0010000009813300001000080202094000013050500000000000000000201702160002001DISTRIB. OMAR ORREGO S.A.                         D000000058729700000000000000000000100010010000000000000000000000F0010000009813300120170216000101 00000000000000000000000000000000000000000000000000000000000000000000000000000000000000000000000000000000000000000N 00000000000NCONT   00    00000000000          00000000000000000000000000000000000000000000 000000000000000A000000000000000000000000000000000000000000000 000000000000000000000000000000000000000     00000000                                                                                                                        000000000000000000
F0010000009813300002000080202094000041450500000000000000000201702160002001DISTRIB. OMAR ORREGO S.A.                         C000000033830000000000000000000000100010010000000000000000000000F0010000009813300220170216000101 00000000000000000000000000000000000000000000000000000000000000000000000000000000000000000000000000000000000000000N 00000000000NCONT   00    00000000000          00000000000000000000000000000000000000000000 000000000000000A000000000000000000000000000000000000000000000 000000000000000000000000000000000000000     00000000                                                                                                                        000000000000000000
F0010000009813300003000080202094000042505000000000000000000201702160002001DISTRIB. OMAR ORREGO S.A.                         C000000024899700000000000000000000100010010000000000000000000000F0010000009813300320170216000101 00000000000000000000000000000000000000000000000000000000000000000000000000000000000000000000000000000000000000000N 00000000000NCONT   00    00000000000          00000000000000000000000000000000000000000000 000000000000000A000000000000000000000000000000000000000000000 000000000000000000000000000000000000000     00000000                                                                                                                        000000000000000000
F0010000009813300004000080202094000023658300000000000000000201702160002001DISTRIB. OMAR ORREGO S.A.                         C000000000270600000000000000000000100010010000000000000000000000F0010000009813300420170216000101 00000000000000000000000000000000000000000000000000000000000000000000000000000000000000000000000000000000000000000N 00000000000NCONT   00    00000000000          00000000000000000000000000000000000000000000 000000000000000A000000000000000000000000000000000000000000000 000000000000000000000000000000000000000     00000000                                                                                                                        000000000000000000
F0010000009813300005000080202094000013552100000000000000000201702160002001DISTRIB. OMAR ORREGO S.A.                         D000000000270600000000000000000000100010010000000000000000000000F0010000009813300520170216000101 00000000000000000000000000000000000000000000000000000000000000000000000000000000000000000000000000000000000000000N 00000000000NCONT   00    00000000000          00000000000000000000000000000000000000000000 000000000000000A000000000000000000000000000000000000000000000 000000000000000000000000000000000000000     00000000                                                                                                                        000000000000000000
F0010000009813400001000080202094000013050500000000000000000201702160002001DISTRIB. OMAR ORREGO S.A.                         D000000058268400000000000000000000100010010000000000000000000000F0010000009813400120170216000101 00000000000000000000000000000000000000000000000000000000000000000000000000000000000000000000000000000000000000000N 00000000000NCONT   00    00000000000          00000000000000000000000000000000000000000000 000000000000000A000000000000000000000000000000000000000000000 000000000000000000000000000000000000000     00000000                                                                                                                        000000000000000000
F0010000009813400002000080202094000041450500000000000000000201702160002001DISTRIB. OMAR ORREGO S.A.                         C000000037802700000000000000000000100010010000000000000000000000F0010000009813400220170216000101 00000000000000000000000000000000000000000000000000000000000000000000000000000000000000000000000000000000000000000N 00000000000NCONT   00    00000000000          00000000000000000000000000000000000000000000 000000000000000A000000000000000000000000000000000000000000000 000000000000000000000000000000000000000     00000000                                                                                                                        000000000000000000
F0010000009813400003000080202094000042505000000000000000000201702160002001DISTRIB. OMAR ORREGO S.A.                         C000000020465700000000000000000000100010010000000000000000000000F0010000009813400320170216000101 00000000000000000000000000000000000000000000000000000000000000000000000000000000000000000000000000000000000000000N 00000000000NCONT   00    00000000000          00000000000000000000000000000000000000000000 000000000000000A000000000000000000000000000000000000000000000 000000000000000000000000000000000000000     00000000                                                                                                                        000000000000000000
F0010000009813400004000080202094000023658300000000000000000201702160002001DISTRIB. OMAR ORREGO S.A.                         C000000000302400000000000000000000100010010000000000000000000000F0010000009813400420170216000101 00000000000000000000000000000000000000000000000000000000000000000000000000000000000000000000000000000000000000000N 00000000000NCONT   00    00000000000          00000000000000000000000000000000000000000000 000000000000000A000000000000000000000000000000000000000000000 000000000000000000000000000000000000000     00000000                                                                                                                        000000000000000000
F0010000009813400005000080202094000013552100000000000000000201702160002001DISTRIB. OMAR ORREGO S.A.                         D000000000302400000000000000000000100010010000000000000000000000F0010000009813400520170216000101 00000000000000000000000000000000000000000000000000000000000000000000000000000000000000000000000000000000000000000N 00000000000NCONT   00    00000000000          00000000000000000000000000000000000000000000 000000000000000A000000000000000000000000000000000000000000000 000000000000000000000000000000000000000     00000000                                                                                                                        000000000000000000
F0010000009813500001000080202094000013050500000000000000000201702160002001DISTRIB. OMAR ORREGO S.A.                         D000000066042600000000000000000000100010010000000000000000000000F0010000009813500120170216000101 00000000000000000000000000000000000000000000000000000000000000000000000000000000000000000000000000000000000000000N 00000000000NCONT   00    00000000000          00000000000000000000000000000000000000000000 000000000000000A000000000000000000000000000000000000000000000 000000000000000000000000000000000000000     00000000                                                                                                                        000000000000000000
F0010000009813500002000080202094000041450500000000000000000201702160002001DISTRIB. OMAR ORREGO S.A.                         C000000041320000000000000000000000100010010000000000000000000000F0010000009813500220170216000101 00000000000000000000000000000000000000000000000000000000000000000000000000000000000000000000000000000000000000000N 00000000000NCONT   00    00000000000          00000000000000000000000000000000000000000000 000000000000000A000000000000000000000000000000000000000000000 000000000000000000000000000000000000000     00000000                                                                                                                        000000000000000000
F0010000009813500003000080202094000042505000000000000000000201702160002001DISTRIB. OMAR ORREGO S.A.                         C000000024722600000000000000000000100010010000000000000000000000F0010000009813500320170216000101 00000000000000000000000000000000000000000000000000000000000000000000000000000000000000000000000000000000000000000N 00000000000NCONT   00    00000000000          00000000000000000000000000000000000000000000 000000000000000A000000000000000000000000000000000000000000000 000000000000000000000000000000000000000     00000000                                                                                                                        000000000000000000
F0010000009813500004000080202094000023658300000000000000000201702160002001DISTRIB. OMAR ORREGO S.A.                         C000000000330600000000000000000000100010010000000000000000000000F0010000009813500420170216000101 00000000000000000000000000000000000000000000000000000000000000000000000000000000000000000000000000000000000000000N 00000000000NCONT   00    00000000000          00000000000000000000000000000000000000000000 000000000000000A000000000000000000000000000000000000000000000 000000000000000000000000000000000000000     00000000                                                                                                                        000000000000000000
F0010000009813500005000080202094000013552100000000000000000201702160002001DISTRIB. OMAR ORREGO S.A.                         D000000000330600000000000000000000100010010000000000000000000000F0010000009813500520170216000101 00000000000000000000000000000000000000000000000000000000000000000000000000000000000000000000000000000000000000000N 00000000000NCONT   00    00000000000          00000000000000000000000000000000000000000000 000000000000000A000000000000000000000000000000000000000000000 000000000000000000000000000000000000000     00000000                                                                                                                        000000000000000000
F0010000009813600001000080202094000013050500000000000000000201702160002001DISTRIB. OMAR ORREGO S.A.                         D000000004960200000000000000000000100010010000000000000000000000F0010000009813600120170216000101 00000000000000000000000000000000000000000000000000000000000000000000000000000000000000000000000000000000000000000N 00000000000NCONT   00    00000000000          00000000000000000000000000000000000000000000 000000000000000A000000000000000000000000000000000000000000000 000000000000000000000000000000000000000     00000000                                                                                                                        000000000000000000
F0010000009813600002000080202094000041450500000000000000000201702160002001DISTRIB. OMAR ORREGO S.A.                         C000000002110000000000000000000000100010010000000000000000000000F0010000009813600220170216000101 00000000000000000000000000000000000000000000000000000000000000000000000000000000000000000000000000000000000000000N 00000000000NCONT   00    00000000000          00000000000000000000000000000000000000000000 000000000000000A000000000000000000000000000000000000000000000 000000000000000000000000000000000000000     00000000                                                                                                                        000000000000000000
F0010000009813600003000080202094000042505000000000000000000201702160002001DISTRIB. OMAR ORREGO S.A.                         C000000002850200000000000000000000100010010000000000000000000000F0010000009813600320170216000101 00000000000000000000000000000000000000000000000000000000000000000000000000000000000000000000000000000000000000000N 00000000000NCONT   00    00000000000          00000000000000000000000000000000000000000000 000000000000000A000000000000000000000000000000000000000000000 000000000000000000000000000000000000000     00000000                                                                                                                        000000000000000000
F0010000009813600004000080202094000023658300000000000000000201702160002001DISTRIB. OMAR ORREGO S.A.                         C000000000016900000000000000000000100010010000000000000000000000F0010000009813600420170216000101 00000000000000000000000000000000000000000000000000000000000000000000000000000000000000000000000000000000000000000N 00000000000NCONT   00    00000000000          00000000000000000000000000000000000000000000 000000000000000A000000000000000000000000000000000000000000000 000000000000000000000000000000000000000     00000000                                                                                                                        000000000000000000
F0010000009813600005000080202094000013552100000000000000000201702160002001DISTRIB. OMAR ORREGO S.A.                         D000000000016900000000000000000000100010010000000000000000000000F0010000009813600520170216000101 00000000000000000000000000000000000000000000000000000000000000000000000000000000000000000000000000000000000000000N 00000000000NCONT   00    00000000000          00000000000000000000000000000000000000000000 000000000000000A000000000000000000000000000000000000000000000 000000000000000000000000000000000000000     00000000                                                                                                                        000000000000000000
F0010000009813700001000002251163600011050500000000000000000201702160002001ADRIANA SIERRA RADA                               D000000001000000000000000000000000100010010000000000000000000000F0010000009813700120170216000101 00000000000000000000000000000000000000000000000000000000000000000000000000000000000000000000000000000000000000000N 00000000000NCONT   00    00000000000          00000000000000000000000000000000000000000000 000000000000000A000000000000000000000000000000000000000000000 000000000000000000000000000000000000000     00000000                                                                                                                        000000000000000000
F0010000009813700002000002251163600041450500000000000000000201702160002001ADRIANA SIERRA RADA                               C000000000900000000000000000000000100010010000000000000000000000F0010000009813700220170216000101 00000000000000000000000000000000000000000000000000000000000000000000000000000000000000000000000000000000000000000N 00000000000NCONT   00    00000000000          00000000000000000000000000000000000000000000 000000000000000A000000000000000000000000000000000000000000000 000000000000000000000000000000000000000     00000000                                                                                                                        000000000000000000
F0010000009813700003000002251163600042505000000000000000000201702160002001ADRIANA SIERRA RADA                               C000000000100000000000000000000000100010010000000000000000000000F0010000009813700320170216000101 00000000000000000000000000000000000000000000000000000000000000000000000000000000000000000000000000000000000000000N 00000000000NCONT   00    00000000000          00000000000000000000000000000000000000000000 000000000000000A000000000000000000000000000000000000000000000 000000000000000000000000000000000000000     00000000                                                                                                                        000000000000000000
F0010000009813700004000002251163600023658300000000000000000201702160002001ADRIANA SIERRA RADA                               C000000000007200000000000000000000100010010000000000000000000000F0010000009813700420170216000101 00000000000000000000000000000000000000000000000000000000000000000000000000000000000000000000000000000000000000000N 00000000000NCONT   00    00000000000          00000000000000000000000000000000000000000000 000000000000000A000000000000000000000000000000000000000000000 000000000000000000000000000000000000000     00000000                                                                                                                        000000000000000000
F0010000009813700005000002251163600013552100000000000000000201702160002001ADRIANA SIERRA RADA                               D000000000007200000000000000000000100010010000000000000000000000F0010000009813700520170216000101 00000000000000000000000000000000000000000000000000000000000000000000000000000000000000000000000000000000000000000N 00000000000NCONT   00    00000000000          00000000000000000000000000000000000000000000 000000000000000A000000000000000000000000000000000000000000000 000000000000000000000000000000000000000     00000000                                                                                                                        000000000000000000
F0010000009813800001000080201112800013050500000000000000000201702160002001CANGURO INTERNATIONAL S.A.                        D000000299727600000000000000000000100010010000000000000000000000F0010000009813800120170216000101 00000000000000000000000000000000000000000000000000000000000000000000000000000000000000000000000000000000000000000N 00000000000NCONT   00    00000000000          00000000000000000000000000000000000000000000 000000000000000A000000000000000000000000000000000000000000000 000000000000000000000000000000000000000     00000000                                                                                                                        000000000000000000
F0010000009813800002000080201112800041450500000000000000000201702160002001CANGURO INTERNATIONAL S.A.                        C000000298063100000000000000000000100010010000000000000000000000F0010000009813800220170216000101 00000000000000000000000000000000000000000000000000000000000000000000000000000000000000000000000000000000000000000N 00000000000NCONT   00    00000000000          00000000000000000000000000000000000000000000 000000000000000A000000000000000000000000000000000000000000000 000000000000000000000000000000000000000     00000000                                                                                                                        000000000000000000
F0010000009813800003000080201112800042505000000000000000000201702160002001CANGURO INTERNATIONAL S.A.                        C000000001664500000000000000000000100010010000000000000000000000F0010000009813800320170216000101 00000000000000000000000000000000000000000000000000000000000000000000000000000000000000000000000000000000000000000N 00000000000NCONT   00    00000000000          00000000000000000000000000000000000000000000 000000000000000A000000000000000000000000000000000000000000000 000000000000000000000000000000000000000     00000000                                                                                                                        000000000000000000
F0010000009813800004000080201112800023658300000000000000000201702160002001CANGURO INTERNATIONAL S.A.                        C000000002384500000000000000000000100010010000000000000000000000F0010000009813800420170216000101 00000000000000000000000000000000000000000000000000000000000000000000000000000000000000000000000000000000000000000N 00000000000NCONT   00    00000000000          00000000000000000000000000000000000000000000 000000000000000A000000000000000000000000000000000000000000000 000000000000000000000000000000000000000     00000000                                                                                                                        000000000000000000
F0010000009813800005000080201112800013552100000000000000000201702160002001CANGURO INTERNATIONAL S.A.                        D000000002384500000000000000000000100010010000000000000000000000F0010000009813800520170216000101 00000000000000000000000000000000000000000000000000000000000000000000000000000000000000000000000000000000000000000N 00000000000NCONT   00    00000000000          00000000000000000000000000000000000000000000 000000000000000A000000000000000000000000000000000000000000000 000000000000000000000000000000000000000     00000000                                                                                                                        000000000000000000
F0010000009813900001000080201112800013050500000000000000000201702160002001CANGURO INTERNATIONAL S.A.                        D000000220081500000000000000000000100010010000000000000000000000F0010000009813900120170216000101 00000000000000000000000000000000000000000000000000000000000000000000000000000000000000000000000000000000000000000N 00000000000NCONT   00    00000000000          00000000000000000000000000000000000000000000 000000000000000A000000000000000000000000000000000000000000000 000000000000000000000000000000000000000     00000000                                                                                                                        000000000000000000
F0010000009813900002000080201112800041450500000000000000000201702160002001CANGURO INTERNATIONAL S.A.                        C000000204467800000000000000000000100010010000000000000000000000F0010000009813900220170216000101 00000000000000000000000000000000000000000000000000000000000000000000000000000000000000000000000000000000000000000N 00000000000NCONT   00    00000000000          00000000000000000000000000000000000000000000 000000000000000A000000000000000000000000000000000000000000000 000000000000000000000000000000000000000     00000000                                                                                                                        000000000000000000
F0010000009813900003000080201112800042505000000000000000000201702160002001CANGURO INTERNATIONAL S.A.                        C000000015613700000000000000000000100010010000000000000000000000F0010000009813900320170216000101 00000000000000000000000000000000000000000000000000000000000000000000000000000000000000000000000000000000000000000N 00000000000NCONT   00    00000000000          00000000000000000000000000000000000000000000 000000000000000A000000000000000000000000000000000000000000000 000000000000000000000000000000000000000     00000000                                                                                                                        000000000000000000
F0010000009813900004000080201112800023658300000000000000000201702160002001CANGURO INTERNATIONAL S.A.                        C000000001635700000000000000000000100010010000000000000000000000F0010000009813900420170216000101 00000000000000000000000000000000000000000000000000000000000000000000000000000000000000000000000000000000000000000N 00000000000NCONT   00    00000000000          00000000000000000000000000000000000000000000 000000000000000A000000000000000000000000000000000000000000000 000000000000000000000000000000000000000     00000000                                                                                                                        000000000000000000
F0010000009813900005000080201112800013552100000000000000000201702160002001CANGURO INTERNATIONAL S.A.                        D000000001635700000000000000000000100010010000000000000000000000F0010000009813900520170216000101 00000000000000000000000000000000000000000000000000000000000000000000000000000000000000000000000000000000000000000N 00000000000NCONT   00    00000000000          00000000000000000000000000000000000000000000 000000000000000A000000000000000000000000000000000000000000000 000000000000000000000000000000000000000     00000000                                                                                                                        000000000000000000
F0010000009814000001000080201112800013050500000000000000000201702160002001CANGURO INTERNATIONAL S.A.                        D000000117603600000000000000000000100010010000000000000000000000F0010000009814000120170216000101 00000000000000000000000000000000000000000000000000000000000000000000000000000000000000000000000000000000000000000N 00000000000NCONT   00    00000000000          00000000000000000000000000000000000000000000 000000000000000A000000000000000000000000000000000000000000000 000000000000000000000000000000000000000     00000000                                                                                                                        000000000000000000
F0010000009814000002000080201112800041450500000000000000000201702160002001CANGURO INTERNATIONAL S.A.                        C000000113935700000000000000000000100010010000000000000000000000F0010000009814000220170216000101 00000000000000000000000000000000000000000000000000000000000000000000000000000000000000000000000000000000000000000N 00000000000NCONT   00    00000000000          00000000000000000000000000000000000000000000 000000000000000A000000000000000000000000000000000000000000000 000000000000000000000000000000000000000     00000000                                                                                                                        000000000000000000
F0010000009814000003000080201112800042505000000000000000000201702160002001CANGURO INTERNATIONAL S.A.                        C000000003667900000000000000000000100010010000000000000000000000F0010000009814000320170216000101 00000000000000000000000000000000000000000000000000000000000000000000000000000000000000000000000000000000000000000N 00000000000NCONT   00    00000000000          00000000000000000000000000000000000000000000 000000000000000A000000000000000000000000000000000000000000000 000000000000000000000000000000000000000     00000000                                                                                                                        000000000000000000
F0010000009814000004000080201112800023658300000000000000000201702160002001CANGURO INTERNATIONAL S.A.                        C000000000911500000000000000000000100010010000000000000000000000F0010000009814000420170216000101 00000000000000000000000000000000000000000000000000000000000000000000000000000000000000000000000000000000000000000N 00000000000NCONT   00    00000000000          00000000000000000000000000000000000000000000 000000000000000A000000000000000000000000000000000000000000000 000000000000000000000000000000000000000     00000000                                                                                                                        000000000000000000
F0010000009814000005000080201112800013552100000000000000000201702160002001CANGURO INTERNATIONAL S.A.                        D000000000911500000000000000000000100010010000000000000000000000F0010000009814000520170216000101 00000000000000000000000000000000000000000000000000000000000000000000000000000000000000000000000000000000000000000N 00000000000NCONT   00    00000000000          00000000000000000000000000000000000000000000 000000000000000A000000000000000000000000000000000000000000000 000000000000000000000000000000000000000     00000000                                                                                                                        000000000000000000
F0010000009814100001000080201112800013050500000000000000000201702160002001CANGURO INTERNATIONAL S.A.                        D000000213355800000000000000000000100010010000000000000000000000F0010000009814100120170216000101 00000000000000000000000000000000000000000000000000000000000000000000000000000000000000000000000000000000000000000N 00000000000NCONT   00    00000000000          00000000000000000000000000000000000000000000 000000000000000A000000000000000000000000000000000000000000000 000000000000000000000000000000000000000     00000000                                                                                                                        000000000000000000
F0010000009814100002000080201112800041450500000000000000000201702160002001CANGURO INTERNATIONAL S.A.                        C000000204794400000000000000000000100010010000000000000000000000F0010000009814100220170216000101 00000000000000000000000000000000000000000000000000000000000000000000000000000000000000000000000000000000000000000N 00000000000NCONT   00    00000000000          00000000000000000000000000000000000000000000 000000000000000A000000000000000000000000000000000000000000000 000000000000000000000000000000000000000     00000000                                                                                                                        000000000000000000
F0010000009814100003000080201112800042505000000000000000000201702160002001CANGURO INTERNATIONAL S.A.                        C000000008561400000000000000000000100010010000000000000000000000F0010000009814100320170216000101 00000000000000000000000000000000000000000000000000000000000000000000000000000000000000000000000000000000000000000N 00000000000NCONT   00    00000000000          00000000000000000000000000000000000000000000 000000000000000A000000000000000000000000000000000000000000000 000000000000000000000000000000000000000     00000000                                                                                                                        000000000000000000
F0010000009814100004000080201112800023658300000000000000000201702160002001CANGURO INTERNATIONAL S.A.                        C000000001638400000000000000000000100010010000000000000000000000F0010000009814100420170216000101 00000000000000000000000000000000000000000000000000000000000000000000000000000000000000000000000000000000000000000N 00000000000NCONT   00    00000000000          00000000000000000000000000000000000000000000 000000000000000A000000000000000000000000000000000000000000000 000000000000000000000000000000000000000     00000000                                                                                                                        000000000000000000
F0010000009814100005000080201112800013552100000000000000000201702160002001CANGURO INTERNATIONAL S.A.                        D000000001638400000000000000000000100010010000000000000000000000F0010000009814100520170216000101 00000000000000000000000000000000000000000000000000000000000000000000000000000000000000000000000000000000000000000N 00000000000NCONT   00    00000000000          00000000000000000000000000000000000000000000 000000000000000A000000000000000000000000000000000000000000000 000000000000000000000000000000000000000     00000000                                                                                                                        000000000000000000
F0010000009814200001000080201112800013050500000000000000000201702160002001CANGURO INTERNATIONAL S.A.                        D000000109211100000000000000000000100010010000000000000000000000F0010000009814200120170216000101 00000000000000000000000000000000000000000000000000000000000000000000000000000000000000000000000000000000000000000N 00000000000NCONT   00    00000000000          00000000000000000000000000000000000000000000 000000000000000A000000000000000000000000000000000000000000000 000000000000000000000000000000000000000     00000000                                                                                                                        000000000000000000
F0010000009814200002000080201112800041450500000000000000000201702160002001CANGURO INTERNATIONAL S.A.                        C000000108030100000000000000000000100010010000000000000000000000F0010000009814200220170216000101 00000000000000000000000000000000000000000000000000000000000000000000000000000000000000000000000000000000000000000N 00000000000NCONT   00    00000000000          00000000000000000000000000000000000000000000 000000000000000A000000000000000000000000000000000000000000000 000000000000000000000000000000000000000     00000000                                                                                                                        000000000000000000
F0010000009814200003000080201112800042505000000000000000000201702160002001CANGURO INTERNATIONAL S.A.                        C000000001181000000000000000000000100010010000000000000000000000F0010000009814200320170216000101 00000000000000000000000000000000000000000000000000000000000000000000000000000000000000000000000000000000000000000N 00000000000NCONT   00    00000000000          00000000000000000000000000000000000000000000 000000000000000A000000000000000000000000000000000000000000000 000000000000000000000000000000000000000     00000000                                                                                                                        000000000000000000
F0010000009814200004000080201112800023658300000000000000000201702160002001CANGURO INTERNATIONAL S.A.                        C000000000864200000000000000000000100010010000000000000000000000F0010000009814200420170216000101 00000000000000000000000000000000000000000000000000000000000000000000000000000000000000000000000000000000000000000N 00000000000NCONT   00    00000000000          00000000000000000000000000000000000000000000 000000000000000A000000000000000000000000000000000000000000000 000000000000000000000000000000000000000     00000000                                                                                                                        000000000000000000
F0010000009814200005000080201112800013552100000000000000000201702160002001CANGURO INTERNATIONAL S.A.                        D000000000864200000000000000000000100010010000000000000000000000F0010000009814200520170216000101 00000000000000000000000000000000000000000000000000000000000000000000000000000000000000000000000000000000000000000N 00000000000NCONT   00    00000000000          00000000000000000000000000000000000000000000 000000000000000A000000000000000000000000000000000000000000000 000000000000000000000000000000000000000     00000000                                                                                                                        000000000000000000
F0010000009814300001000090037881900013050500000000000000000201702160002001COMERCIALIZADORA RACOPI S.A.S                     D000000009400000000000000000000000100010010000000000000000000000F0010000009814300120170216000101 00000000000000000000000000000000000000000000000000000000000000000000000000000000000000000000000000000000000000000N 00000000000NCONT   00    00000000000          00000000000000000000000000000000000000000000 000000000000000A000000000000000000000000000000000000000000000 000000000000000000000000000000000000000     00000000                                                                                                                        000000000000000000
F0010000009814300002000090037881900041450500000000000000000201702160002001COMERCIALIZADORA RACOPI S.A.S                     C000000007900000000000000000000000100010010000000000000000000000F0010000009814300220170216000101 00000000000000000000000000000000000000000000000000000000000000000000000000000000000000000000000000000000000000000N 00000000000NCONT   00    00000000000          00000000000000000000000000000000000000000000 000000000000000A000000000000000000000000000000000000000000000 000000000000000000000000000000000000000     00000000                                                                                                                        000000000000000000
F0010000009814300003000090037881900042505000000000000000000201702160002001COMERCIALIZADORA RACOPI S.A.S                     C000000001500000000000000000000000100010010000000000000000000000F0010000009814300320170216000101 00000000000000000000000000000000000000000000000000000000000000000000000000000000000000000000000000000000000000000N 00000000000NCONT   00    00000000000          00000000000000000000000000000000000000000000 000000000000000A000000000000000000000000000000000000000000000 000000000000000000000000000000000000000     00000000                                                                                                                        000000000000000000
F0010000009814300004000090037881900023658300000000000000000201702160002001COMERCIALIZADORA RACOPI S.A.S                     C000000000063200000000000000000000100010010000000000000000000000F0010000009814300420170216000101 00000000000000000000000000000000000000000000000000000000000000000000000000000000000000000000000000000000000000000N 00000000000NCONT   00    00000000000          00000000000000000000000000000000000000000000 000000000000000A000000000000000000000000000000000000000000000 000000000000000000000000000000000000000     00000000                                                                                                                        000000000000000000
F0010000009814300005000090037881900013552100000000000000000201702160002001COMERCIALIZADORA RACOPI S.A.S                     D000000000063200000000000000000000100010010000000000000000000000F0010000009814300520170216000101 00000000000000000000000000000000000000000000000000000000000000000000000000000000000000000000000000000000000000000N 00000000000NCONT   00    00000000000          00000000000000000000000000000000000000000000 000000000000000A000000000000000000000000000000000000000000000 000000000000000000000000000000000000000     00000000                                                                                                                        000000000000000000
F0010000009814400001000000868487100013050500000000000000000201702160002001JAIME PIEROS                                    D000000001140000000000000000000000100010010000000000000000000000F0010000009814400120170216000101 00000000000000000000000000000000000000000000000000000000000000000000000000000000000000000000000000000000000000000N 00000000000NCONT   00    00000000000          00000000000000000000000000000000000000000000 000000000000000A000000000000000000000000000000000000000000000 000000000000000000000000000000000000000     00000000                                                                                                                        000000000000000000
F0010000009814400002000000868487100041450500000000000000000201702160002001JAIME PIEROS                                    C000000000940000000000000000000000100010010000000000000000000000F0010000009814400220170216000101 00000000000000000000000000000000000000000000000000000000000000000000000000000000000000000000000000000000000000000N 00000000000NCONT   00    00000000000          00000000000000000000000000000000000000000000 000000000000000A000000000000000000000000000000000000000000000 000000000000000000000000000000000000000     00000000                                                                                                                        000000000000000000
F0010000009814400003000000868487100042505000000000000000000201702160002001JAIME PIEROS                                    C000000000200000000000000000000000100010010000000000000000000000F0010000009814400320170216000101 00000000000000000000000000000000000000000000000000000000000000000000000000000000000000000000000000000000000000000N 00000000000NCONT   00    00000000000          00000000000000000000000000000000000000000000 000000000000000A000000000000000000000000000000000000000000000 000000000000000000000000000000000000000     00000000                                                                                                                        000000000000000000
F0010000009814400004000000868487100023658300000000000000000201702160002001JAIME PIEROS                                    C000000000007500000000000000000000100010010000000000000000000000F0010000009814400420170216000101 00000000000000000000000000000000000000000000000000000000000000000000000000000000000000000000000000000000000000000N 00000000000NCONT   00    00000000000          00000000000000000000000000000000000000000000 000000000000000A000000000000000000000000000000000000000000000 000000000000000000000000000000000000000     00000000                                                                                                                        000000000000000000
F0010000009814400005000000868487100013552100000000000000000201702160002001JAIME PIEROS                                    D000000000007500000000000000000000100010010000000000000000000000F0010000009814400520170216000101 00000000000000000000000000000000000000000000000000000000000000000000000000000000000000000000000000000000000000000N 00000000000NCONT   00    00000000000          00000000000000000000000000000000000000000000 000000000000000A000000000000000000000000000000000000000000000 000000000000000000000000000000000000000     00000000                                                                                                                        000000000000000000
F0010000009814500001000007904689600013050500000000000000000201702160002001VICTOR MANUEL BOCANEGRA RAMIREZ                   D000000003100000000000000000000000100010010000000000000000000000F0010000009814500120170216000101 00000000000000000000000000000000000000000000000000000000000000000000000000000000000000000000000000000000000000000N 00000000000NCONT   00    00000000000          00000000000000000000000000000000000000000000 000000000000000A000000000000000000000000000000000000000000000 000000000000000000000000000000000000000     00000000                                                                                                                        000000000000000000
F0010000009814500002000007904689600041450500000000000000000201702160002001VICTOR MANUEL BOCANEGRA RAMIREZ                   C000000003000000000000000000000000100010010000000000000000000000F0010000009814500220170216000101 00000000000000000000000000000000000000000000000000000000000000000000000000000000000000000000000000000000000000000N 00000000000NCONT   00    00000000000          00000000000000000000000000000000000000000000 000000000000000A000000000000000000000000000000000000000000000 000000000000000000000000000000000000000     00000000                                                                                                                        000000000000000000
