F0010000009514700001000007229328500011050500000000000000000201612040002001PV ELECTRIC   DEL CARIBE                          D000000016242800000000000000000000100010010000000000000000000000F0010000009514700120161204000101 00000000000000000000000000000000000000000000000000000000000000000000000000000000000000000000000000000000000000000N 00000000000NCONT   00    00000000000          00000000000000000000000000000000000000000000 000000000000000A000000000000000000000000000000000000000000000 000000000000000000000000000000000000000     00000000                                                                                                                        000000000000000000
F0010000009514700002000007229328500041450500000000000000000201612040002001PV ELECTRIC   DEL CARIBE                          C000000015960000000000000000000000100010010000000000000000000000F0010000009514700220161204000101 00000000000000000000000000000000000000000000000000000000000000000000000000000000000000000000000000000000000000000N 00000000000NCONT   00    00000000000          00000000000000000000000000000000000000000000 000000000000000A000000000000000000000000000000000000000000000 000000000000000000000000000000000000000     00000000                                                                                                                        000000000000000000
F0010000009514700003000007229328500042505000000000000000000201612040002001PV ELECTRIC   DEL CARIBE                          C000000000282800000000000000000000100010010000000000000000000000F0010000009514700320161204000101 00000000000000000000000000000000000000000000000000000000000000000000000000000000000000000000000000000000000000000N 00000000000NCONT   00    00000000000          00000000000000000000000000000000000000000000 000000000000000A000000000000000000000000000000000000000000000 000000000000000000000000000000000000000     00000000                                                                                                                        000000000000000000
F0010000009514700004000007229328500023658300000000000000000201612040002001PV ELECTRIC   DEL CARIBE                          C000000000127700000000000000000000100010010000000000000000000000F0010000009514700420161204000101 00000000000000000000000000000000000000000000000000000000000000000000000000000000000000000000000000000000000000000N 00000000000NCONT   00    00000000000          00000000000000000000000000000000000000000000 000000000000000A000000000000000000000000000000000000000000000 000000000000000000000000000000000000000     00000000                                                                                                                        000000000000000000
F0010000009514700005000007229328500013552100000000000000000201612040002001PV ELECTRIC   DEL CARIBE                          D000000000127700000000000000000000100010010000000000000000000000F0010000009514700520161204000101 00000000000000000000000000000000000000000000000000000000000000000000000000000000000000000000000000000000000000000N 00000000000NCONT   00    00000000000          00000000000000000000000000000000000000000000 000000000000000A000000000000000000000000000000000000000000000 000000000000000000000000000000000000000     00000000                                                                                                                        000000000000000000
F0010000009514800001000003287795000011050500000000000000000201612040002001COMERCIALIZADORA KUZMAR                           D000000001300000000000000000000000100010010000000000000000000000F0010000009514800120161204000101 00000000000000000000000000000000000000000000000000000000000000000000000000000000000000000000000000000000000000000N 00000000000NCONT   00    00000000000          00000000000000000000000000000000000000000000 000000000000000A000000000000000000000000000000000000000000000 000000000000000000000000000000000000000     00000000                                                                                                                        000000000000000000
F0010000009514800002000003287795000041450500000000000000000201612040002001COMERCIALIZADORA KUZMAR                           C000000001000000000000000000000000100010010000000000000000000000F0010000009514800220161204000101 00000000000000000000000000000000000000000000000000000000000000000000000000000000000000000000000000000000000000000N 00000000000NCONT   00    00000000000          00000000000000000000000000000000000000000000 000000000000000A000000000000000000000000000000000000000000000 000000000000000000000000000000000000000     00000000                                                                                                                        000000000000000000
F0010000009514800003000003287795000042505000000000000000000201612040002001COMERCIALIZADORA KUZMAR                           C000000000300000000000000000000000100010010000000000000000000000F0010000009514800320161204000101 00000000000000000000000000000000000000000000000000000000000000000000000000000000000000000000000000000000000000000N 00000000000NCONT   00    00000000000          00000000000000000000000000000000000000000000 000000000000000A000000000000000000000000000000000000000000000 000000000000000000000000000000000000000     00000000                                                                                                                        000000000000000000
F0010000009514800004000003287795000023658300000000000000000201612040002001COMERCIALIZADORA KUZMAR                           C000000000008000000000000000000000100010010000000000000000000000F0010000009514800420161204000101 00000000000000000000000000000000000000000000000000000000000000000000000000000000000000000000000000000000000000000N 00000000000NCONT   00    00000000000          00000000000000000000000000000000000000000000 000000000000000A000000000000000000000000000000000000000000000 000000000000000000000000000000000000000     00000000                                                                                                                        000000000000000000
F0010000009514800005000003287795000013552100000000000000000201612040002001COMERCIALIZADORA KUZMAR                           D000000000008000000000000000000000100010010000000000000000000000F0010000009514800520161204000101 00000000000000000000000000000000000000000000000000000000000000000000000000000000000000000000000000000000000000000N 00000000000NCONT   00    00000000000          00000000000000000000000000000000000000000000 000000000000000A000000000000000000000000000000000000000000000 000000000000000000000000000000000000000     00000000                                                                                                                        000000000000000000
