F0010000008442300001000005160544500011050500000000000000000201604040002001METAL MUEBLES DE LA COSTA                         D000000003000000000000000000000000100010010000000000000000000000F0010000008442300120160404000101 00000000000000000000000000000000000000000000000000000000000000000000000000000000000000000000000000000000000000000N 00000000000NCONT   00    00000000000          00000000000000000000000000000000000000000000 000000000000000A000000000000000000000000000000000000000000000 000000000000000000000000000000000000000     00000000                                                                                                                        000000000000000000
F0010000008442300002000005160544500041450500000000000000000201604040002001METAL MUEBLES DE LA COSTA                         C000000002400000000000000000000000100010010000000000000000000000F0010000008442300220160404000101 00000000000000000000000000000000000000000000000000000000000000000000000000000000000000000000000000000000000000000N 00000000000NCONT   00    00000000000          00000000000000000000000000000000000000000000 000000000000000A000000000000000000000000000000000000000000000 000000000000000000000000000000000000000     00000000                                                                                                                        000000000000000000
F0010000008442300003000005160544500042505000000000000000000201604040002001METAL MUEBLES DE LA COSTA                         C000000000600000000000000000000000100010010000000000000000000000F0010000008442300320160404000101 00000000000000000000000000000000000000000000000000000000000000000000000000000000000000000000000000000000000000000N 00000000000NCONT   00    00000000000          00000000000000000000000000000000000000000000 000000000000000A000000000000000000000000000000000000000000000 000000000000000000000000000000000000000     00000000                                                                                                                        000000000000000000
F0010000008442300004000005160544500023658300000000000000000201604040002001METAL MUEBLES DE LA COSTA                         C000000000019200000000000000000000100010010000000000000000000000F0010000008442300420160404000101 00000000000000000000000000000000000000000000000000000000000000000000000000000000000000000000000000000000000000000N 00000000000NCONT   00    00000000000          00000000000000000000000000000000000000000000 000000000000000A000000000000000000000000000000000000000000000 000000000000000000000000000000000000000     00000000                                                                                                                        000000000000000000
F0010000008442300005000005160544500013552100000000000000000201604040002001METAL MUEBLES DE LA COSTA                         D000000000019200000000000000000000100010010000000000000000000000F0010000008442300520160404000101 00000000000000000000000000000000000000000000000000000000000000000000000000000000000000000000000000000000000000000N 00000000000NCONT   00    00000000000          00000000000000000000000000000000000000000000 000000000000000A000000000000000000000000000000000000000000000 000000000000000000000000000000000000000     00000000                                                                                                                        000000000000000000
F0010000008442400001000000257193600011050500000000000000000201604040002001DISTRIBUCIONES YALY                               D000000003300000000000000000000000100010010000000000000000000000F0010000008442400120160404000101 00000000000000000000000000000000000000000000000000000000000000000000000000000000000000000000000000000000000000000N 00000000000NCONT   00    00000000000          00000000000000000000000000000000000000000000 000000000000000A000000000000000000000000000000000000000000000 000000000000000000000000000000000000000     00000000                                                                                                                        000000000000000000
F0010000008442400002000000257193600041450500000000000000000201604040002001DISTRIBUCIONES YALY                               C000000002600000000000000000000000100010010000000000000000000000F0010000008442400220160404000101 00000000000000000000000000000000000000000000000000000000000000000000000000000000000000000000000000000000000000000N 00000000000NCONT   00    00000000000          00000000000000000000000000000000000000000000 000000000000000A000000000000000000000000000000000000000000000 000000000000000000000000000000000000000     00000000                                                                                                                        000000000000000000
F0010000008442400003000000257193600042505000000000000000000201604040002001DISTRIBUCIONES YALY                               C000000000700000000000000000000000100010010000000000000000000000F0010000008442400320160404000101 00000000000000000000000000000000000000000000000000000000000000000000000000000000000000000000000000000000000000000N 00000000000NCONT   00    00000000000          00000000000000000000000000000000000000000000 000000000000000A000000000000000000000000000000000000000000000 000000000000000000000000000000000000000     00000000                                                                                                                        000000000000000000
F0010000008442400004000000257193600023658300000000000000000201604040002001DISTRIBUCIONES YALY                               C000000000020800000000000000000000100010010000000000000000000000F0010000008442400420160404000101 00000000000000000000000000000000000000000000000000000000000000000000000000000000000000000000000000000000000000000N 00000000000NCONT   00    00000000000          00000000000000000000000000000000000000000000 000000000000000A000000000000000000000000000000000000000000000 000000000000000000000000000000000000000     00000000                                                                                                                        000000000000000000
F0010000008442400005000000257193600013552100000000000000000201604040002001DISTRIBUCIONES YALY                               D000000000020800000000000000000000100010010000000000000000000000F0010000008442400520160404000101 00000000000000000000000000000000000000000000000000000000000000000000000000000000000000000000000000000000000000000N 00000000000NCONT   00    00000000000          00000000000000000000000000000000000000000000 000000000000000A000000000000000000000000000000000000000000000 000000000000000000000000000000000000000     00000000                                                                                                                        000000000000000000
F0010000008442500001000080014190300013050500000000000000000201604040002001QUIMINSA LTDA                                     D000000007322000000000000000000000100010010000000000000000000000F0010000008442500120160404000101 00000000000000000000000000000000000000000000000000000000000000000000000000000000000000000000000000000000000000000N 00000000000NCONT   00    00000000000          00000000000000000000000000000000000000000000 000000000000000A000000000000000000000000000000000000000000000 000000000000000000000000000000000000000     00000000                                                                                                                        000000000000000000
F0010000008442500002000080014190300041450500000000000000000201604040002001QUIMINSA LTDA                                     C000000006800000000000000000000000100010010000000000000000000000F0010000008442500220160404000101 00000000000000000000000000000000000000000000000000000000000000000000000000000000000000000000000000000000000000000N 00000000000NCONT   00    00000000000          00000000000000000000000000000000000000000000 000000000000000A000000000000000000000000000000000000000000000 000000000000000000000000000000000000000     00000000                                                                                                                        000000000000000000
F0010000008442500003000080014190300042505000000000000000000201604040002001QUIMINSA LTDA                                     C000000000522000000000000000000000100010010000000000000000000000F0010000008442500320160404000101 00000000000000000000000000000000000000000000000000000000000000000000000000000000000000000000000000000000000000000N 00000000000NCONT   00    00000000000          00000000000000000000000000000000000000000000 000000000000000A000000000000000000000000000000000000000000000 000000000000000000000000000000000000000     00000000                                                                                                                        000000000000000000
F0010000008442500004000080014190300023658300000000000000000201604040002001QUIMINSA LTDA                                     C000000000054400000000000000000000100010010000000000000000000000F0010000008442500420160404000101 00000000000000000000000000000000000000000000000000000000000000000000000000000000000000000000000000000000000000000N 00000000000NCONT   00    00000000000          00000000000000000000000000000000000000000000 000000000000000A000000000000000000000000000000000000000000000 000000000000000000000000000000000000000     00000000                                                                                                                        000000000000000000
F0010000008442500005000080014190300013552100000000000000000201604040002001QUIMINSA LTDA                                     D000000000054400000000000000000000100010010000000000000000000000F0010000008442500520160404000101 00000000000000000000000000000000000000000000000000000000000000000000000000000000000000000000000000000000000000000N 00000000000NCONT   00    00000000000          00000000000000000000000000000000000000000000 000000000000000A000000000000000000000000000000000000000000000 000000000000000000000000000000000000000     00000000                                                                                                                        000000000000000000
F0010000008442600001000089070997800013050500000000000000000201604040002001CENTRAL DE TORNILLOS                              D000000010400000000000000000000000100010010000000000000000000000F0010000008442600120160404000101 00000000000000000000000000000000000000000000000000000000000000000000000000000000000000000000000000000000000000000N 00000000000NCONT   00    00000000000          00000000000000000000000000000000000000000000 000000000000000A000000000000000000000000000000000000000000000 000000000000000000000000000000000000000     00000000                                                                                                                        000000000000000000
F0010000008442600002000089070997800041450500000000000000000201604040002001CENTRAL DE TORNILLOS                              C000000009600000000000000000000000100010010000000000000000000000F0010000008442600220160404000101 00000000000000000000000000000000000000000000000000000000000000000000000000000000000000000000000000000000000000000N 00000000000NCONT   00    00000000000          00000000000000000000000000000000000000000000 000000000000000A000000000000000000000000000000000000000000000 000000000000000000000000000000000000000     00000000                                                                                                                        000000000000000000
F0010000008442600003000089070997800042505000000000000000000201604040002001CENTRAL DE TORNILLOS                              C000000000800000000000000000000000100010010000000000000000000000F0010000008442600320160404000101 00000000000000000000000000000000000000000000000000000000000000000000000000000000000000000000000000000000000000000N 00000000000NCONT   00    00000000000          00000000000000000000000000000000000000000000 000000000000000A000000000000000000000000000000000000000000000 000000000000000000000000000000000000000     00000000                                                                                                                        000000000000000000
F0010000008442600004000089070997800023658300000000000000000201604040002001CENTRAL DE TORNILLOS                              C000000000076800000000000000000000100010010000000000000000000000F0010000008442600420160404000101 00000000000000000000000000000000000000000000000000000000000000000000000000000000000000000000000000000000000000000N 00000000000NCONT   00    00000000000          00000000000000000000000000000000000000000000 000000000000000A000000000000000000000000000000000000000000000 000000000000000000000000000000000000000     00000000                                                                                                                        000000000000000000
F0010000008442600005000089070997800013552100000000000000000201604040002001CENTRAL DE TORNILLOS                              D000000000076800000000000000000000100010010000000000000000000000F0010000008442600520160404000101 00000000000000000000000000000000000000000000000000000000000000000000000000000000000000000000000000000000000000000N 00000000000NCONT   00    00000000000          00000000000000000000000000000000000000000000 000000000000000A000000000000000000000000000000000000000000000 000000000000000000000000000000000000000     00000000                                                                                                                        000000000000000000
F0010000008442700001000080016665600013050500000000000000000201604040002001SUMICAL DE ANTIOQUIA S.A.S                        D000000031105300000000000000000000100010010000000000000000000000F0010000008442700120160404000101 00000000000000000000000000000000000000000000000000000000000000000000000000000000000000000000000000000000000000000N 00000000000NCONT   00    00000000000          00000000000000000000000000000000000000000000 000000000000000A000000000000000000000000000000000000000000000 000000000000000000000000000000000000000     00000000                                                                                                                        000000000000000000
F0010000008442700002000080016665600041450500000000000000000201604040002001SUMICAL DE ANTIOQUIA S.A.S                        C000000027550000000000000000000000100010010000000000000000000000F0010000008442700220160404000101 00000000000000000000000000000000000000000000000000000000000000000000000000000000000000000000000000000000000000000N 00000000000NCONT   00    00000000000          00000000000000000000000000000000000000000000 000000000000000A000000000000000000000000000000000000000000000 000000000000000000000000000000000000000     00000000                                                                                                                        000000000000000000
F0010000008442700003000080016665600042505000000000000000000201604040002001SUMICAL DE ANTIOQUIA S.A.S                        C000000003555300000000000000000000100010010000000000000000000000F0010000008442700320160404000101 00000000000000000000000000000000000000000000000000000000000000000000000000000000000000000000000000000000000000000N 00000000000NCONT   00    00000000000          00000000000000000000000000000000000000000000 000000000000000A000000000000000000000000000000000000000000000 000000000000000000000000000000000000000     00000000                                                                                                                        000000000000000000
F0010000008442700004000080016665600023658300000000000000000201604040002001SUMICAL DE ANTIOQUIA S.A.S                        C000000000220400000000000000000000100010010000000000000000000000F0010000008442700420160404000101 00000000000000000000000000000000000000000000000000000000000000000000000000000000000000000000000000000000000000000N 00000000000NCONT   00    00000000000          00000000000000000000000000000000000000000000 000000000000000A000000000000000000000000000000000000000000000 000000000000000000000000000000000000000     00000000                                                                                                                        000000000000000000
F0010000008442700005000080016665600013552100000000000000000201604040002001SUMICAL DE ANTIOQUIA S.A.S                        D000000000220400000000000000000000100010010000000000000000000000F0010000008442700520160404000101 00000000000000000000000000000000000000000000000000000000000000000000000000000000000000000000000000000000000000000N 00000000000NCONT   00    00000000000          00000000000000000000000000000000000000000000 000000000000000A000000000000000000000000000000000000000000000 000000000000000000000000000000000000000     00000000                                                                                                                        000000000000000000
F0010000008442800001000090048173700013050500000000000000000201604040002001ESPECIALIDADES QUIMICAS DEL NORTE SAS             D000000010610000000000000000000000100010010000000000000000000000F0010000008442800120160404000101 00000000000000000000000000000000000000000000000000000000000000000000000000000000000000000000000000000000000000000N 00000000000NCONT   00    00000000000          00000000000000000000000000000000000000000000 000000000000000A000000000000000000000000000000000000000000000 000000000000000000000000000000000000000     00000000                                                                                                                        000000000000000000
F0010000008442800002000090048173700041450500000000000000000201604040002001ESPECIALIDADES QUIMICAS DEL NORTE SAS             C000000010060000000000000000000000100010010000000000000000000000F0010000008442800220160404000101 00000000000000000000000000000000000000000000000000000000000000000000000000000000000000000000000000000000000000000N 00000000000NCONT   00    00000000000          00000000000000000000000000000000000000000000 000000000000000A000000000000000000000000000000000000000000000 000000000000000000000000000000000000000     00000000                                                                                                                        000000000000000000
F0010000008442800003000090048173700042505000000000000000000201604040002001ESPECIALIDADES QUIMICAS DEL NORTE SAS             C000000000550000000000000000000000100010010000000000000000000000F0010000008442800320160404000101 00000000000000000000000000000000000000000000000000000000000000000000000000000000000000000000000000000000000000000N 00000000000NCONT   00    00000000000          00000000000000000000000000000000000000000000 000000000000000A000000000000000000000000000000000000000000000 000000000000000000000000000000000000000     00000000                                                                                                                        000000000000000000
F0010000008442800004000090048173700023658300000000000000000201604040002001ESPECIALIDADES QUIMICAS DEL NORTE SAS             C000000000080500000000000000000000100010010000000000000000000000F0010000008442800420160404000101 00000000000000000000000000000000000000000000000000000000000000000000000000000000000000000000000000000000000000000N 00000000000NCONT   00    00000000000          00000000000000000000000000000000000000000000 000000000000000A000000000000000000000000000000000000000000000 000000000000000000000000000000000000000     00000000                                                                                                                        000000000000000000
F0010000008442800005000090048173700013552100000000000000000201604040002001ESPECIALIDADES QUIMICAS DEL NORTE SAS             D000000000080500000000000000000000100010010000000000000000000000F0010000008442800520160404000101 00000000000000000000000000000000000000000000000000000000000000000000000000000000000000000000000000000000000000000N 00000000000NCONT   00    00000000000          00000000000000000000000000000000000000000000 000000000000000A000000000000000000000000000000000000000000000 000000000000000000000000000000000000000     00000000                                                                                                                        000000000000000000
F0010000008442900001000090009800500013050500000000000000000201604040002001GLORIANT CHEMICAL DE COLOMBIA LTDA                D000000026557000000000000000000000100010010000000000000000000000F0010000008442900120160404000101 00000000000000000000000000000000000000000000000000000000000000000000000000000000000000000000000000000000000000000N 00000000000NCONT   00    00000000000          00000000000000000000000000000000000000000000 000000000000000A000000000000000000000000000000000000000000000 000000000000000000000000000000000000000     00000000                                                                                                                        000000000000000000
F0010000008442900002000090009800500041450500000000000000000201604040002001GLORIANT CHEMICAL DE COLOMBIA LTDA                C000000021710000000000000000000000100010010000000000000000000000F0010000008442900220160404000101 00000000000000000000000000000000000000000000000000000000000000000000000000000000000000000000000000000000000000000N 00000000000NCONT   00    00000000000          00000000000000000000000000000000000000000000 000000000000000A000000000000000000000000000000000000000000000 000000000000000000000000000000000000000     00000000                                                                                                                        000000000000000000
F0010000008442900003000090009800500042505000000000000000000201604040002001GLORIANT CHEMICAL DE COLOMBIA LTDA                C000000004847000000000000000000000100010010000000000000000000000F0010000008442900320160404000101 00000000000000000000000000000000000000000000000000000000000000000000000000000000000000000000000000000000000000000N 00000000000NCONT   00    00000000000          00000000000000000000000000000000000000000000 000000000000000A000000000000000000000000000000000000000000000 000000000000000000000000000000000000000     00000000                                                                                                                        000000000000000000
F0010000008442900004000090009800500023658300000000000000000201604040002001GLORIANT CHEMICAL DE COLOMBIA LTDA                C000000000173700000000000000000000100010010000000000000000000000F0010000008442900420160404000101 00000000000000000000000000000000000000000000000000000000000000000000000000000000000000000000000000000000000000000N 00000000000NCONT   00    00000000000          00000000000000000000000000000000000000000000 000000000000000A000000000000000000000000000000000000000000000 000000000000000000000000000000000000000     00000000                                                                                                                        000000000000000000
F0010000008442900005000090009800500013552100000000000000000201604040002001GLORIANT CHEMICAL DE COLOMBIA LTDA                D000000000173700000000000000000000100010010000000000000000000000F0010000008442900520160404000101 00000000000000000000000000000000000000000000000000000000000000000000000000000000000000000000000000000000000000000N 00000000000NCONT   00    00000000000          00000000000000000000000000000000000000000000 000000000000000A000000000000000000000000000000000000000000000 000000000000000000000000000000000000000     00000000                                                                                                                        000000000000000000
F0010000008443000001000090073498600011050500000000000000000201604040002001VALTAC S.A.S                                      D000000002800000000000000000000000100010010000000000000000000000F0010000008443000120160404000101 00000000000000000000000000000000000000000000000000000000000000000000000000000000000000000000000000000000000000000N 00000000000NCONT   00    00000000000          00000000000000000000000000000000000000000000 000000000000000A000000000000000000000000000000000000000000000 000000000000000000000000000000000000000     00000000                                                                                                                        000000000000000000
F0010000008443000002000090073498600041450500000000000000000201604040002001VALTAC S.A.S                                      C000000002600000000000000000000000100010010000000000000000000000F0010000008443000220160404000101 00000000000000000000000000000000000000000000000000000000000000000000000000000000000000000000000000000000000000000N 00000000000NCONT   00    00000000000          00000000000000000000000000000000000000000000 000000000000000A000000000000000000000000000000000000000000000 000000000000000000000000000000000000000     00000000                                                                                                                        000000000000000000
F0010000008443000003000090073498600042505000000000000000000201604040002001VALTAC S.A.S                                      C000000000200000000000000000000000100010010000000000000000000000F0010000008443000320160404000101 00000000000000000000000000000000000000000000000000000000000000000000000000000000000000000000000000000000000000000N 00000000000NCONT   00    00000000000          00000000000000000000000000000000000000000000 000000000000000A000000000000000000000000000000000000000000000 000000000000000000000000000000000000000     00000000                                                                                                                        000000000000000000
F0010000008443000004000090073498600023658300000000000000000201604040002001VALTAC S.A.S                                      C000000000020800000000000000000000100010010000000000000000000000F0010000008443000420160404000101 00000000000000000000000000000000000000000000000000000000000000000000000000000000000000000000000000000000000000000N 00000000000NCONT   00    00000000000          00000000000000000000000000000000000000000000 000000000000000A000000000000000000000000000000000000000000000 000000000000000000000000000000000000000     00000000                                                                                                                        000000000000000000
F0010000008443000005000090073498600013552100000000000000000201604040002001VALTAC S.A.S                                      D000000000020800000000000000000000100010010000000000000000000000F0010000008443000520160404000101 00000000000000000000000000000000000000000000000000000000000000000000000000000000000000000000000000000000000000000N 00000000000NCONT   00    00000000000          00000000000000000000000000000000000000000000 000000000000000A000000000000000000000000000000000000000000000 000000000000000000000000000000000000000     00000000                                                                                                                        000000000000000000
F0010000008443100001000080002300200013050500000000000000000201604040002001DISREL S.A.                                       D000000014750000000000000000000000100010010000000000000000000000F0010000008443100120160404000101 00000000000000000000000000000000000000000000000000000000000000000000000000000000000000000000000000000000000000000N 00000000000NCONT   00    00000000000          00000000000000000000000000000000000000000000 000000000000000A000000000000000000000000000000000000000000000 000000000000000000000000000000000000000     00000000                                                                                                                        000000000000000000
F0010000008443100002000080002300200041450500000000000000000201604040002001DISREL S.A.                                       C000000011970000000000000000000000100010010000000000000000000000F0010000008443100220160404000101 00000000000000000000000000000000000000000000000000000000000000000000000000000000000000000000000000000000000000000N 00000000000NCONT   00    00000000000          00000000000000000000000000000000000000000000 000000000000000A000000000000000000000000000000000000000000000 000000000000000000000000000000000000000     00000000                                                                                                                        000000000000000000
F0010000008443100003000080002300200042505000000000000000000201604040002001DISREL S.A.                                       C000000002780000000000000000000000100010010000000000000000000000F0010000008443100320160404000101 00000000000000000000000000000000000000000000000000000000000000000000000000000000000000000000000000000000000000000N 00000000000NCONT   00    00000000000          00000000000000000000000000000000000000000000 000000000000000A000000000000000000000000000000000000000000000 000000000000000000000000000000000000000     00000000                                                                                                                        000000000000000000
F0010000008443100004000080002300200023658300000000000000000201604040002001DISREL S.A.                                       C000000000095800000000000000000000100010010000000000000000000000F0010000008443100420160404000101 00000000000000000000000000000000000000000000000000000000000000000000000000000000000000000000000000000000000000000N 00000000000NCONT   00    00000000000          00000000000000000000000000000000000000000000 000000000000000A000000000000000000000000000000000000000000000 000000000000000000000000000000000000000     00000000                                                                                                                        000000000000000000
F0010000008443100005000080002300200013552100000000000000000201604040002001DISREL S.A.                                       D000000000095800000000000000000000100010010000000000000000000000F0010000008443100520160404000101 00000000000000000000000000000000000000000000000000000000000000000000000000000000000000000000000000000000000000000N 00000000000NCONT   00    00000000000          00000000000000000000000000000000000000000000 000000000000000A000000000000000000000000000000000000000000000 000000000000000000000000000000000000000     00000000                                                                                                                        000000000000000000
F0010000008443200001000090064982900013050500000000000000000201604040002001DISDIES S.A.S                                     D000000045949700000000000000000000100010010000000000000000000000F0010000008443200120160404000101 00000000000000000000000000000000000000000000000000000000000000000000000000000000000000000000000000000000000000000N 00000000000NCONT   00    00000000000          00000000000000000000000000000000000000000000 000000000000000A000000000000000000000000000000000000000000000 000000000000000000000000000000000000000     00000000                                                                                                                        000000000000000000
F0010000008443200002000090064982900041450500000000000000000201604040002001DISDIES S.A.S                                     C000000042220300000000000000000000100010010000000000000000000000F0010000008443200220160404000101 00000000000000000000000000000000000000000000000000000000000000000000000000000000000000000000000000000000000000000N 00000000000NCONT   00    00000000000          00000000000000000000000000000000000000000000 000000000000000A000000000000000000000000000000000000000000000 000000000000000000000000000000000000000     00000000                                                                                                                        000000000000000000
F0010000008443200003000090064982900042505000000000000000000201604040002001DISDIES S.A.S                                     C000000003729400000000000000000000100010010000000000000000000000F0010000008443200320160404000101 00000000000000000000000000000000000000000000000000000000000000000000000000000000000000000000000000000000000000000N 00000000000NCONT   00    00000000000          00000000000000000000000000000000000000000000 000000000000000A000000000000000000000000000000000000000000000 000000000000000000000000000000000000000     00000000                                                                                                                        000000000000000000
F0010000008443200004000090064982900023658300000000000000000201604040002001DISDIES S.A.S                                     C000000000337800000000000000000000100010010000000000000000000000F0010000008443200420160404000101 00000000000000000000000000000000000000000000000000000000000000000000000000000000000000000000000000000000000000000N 00000000000NCONT   00    00000000000          00000000000000000000000000000000000000000000 000000000000000A000000000000000000000000000000000000000000000 000000000000000000000000000000000000000     00000000                                                                                                                        000000000000000000
F0010000008443200005000090064982900013552100000000000000000201604040002001DISDIES S.A.S                                     D000000000337800000000000000000000100010010000000000000000000000F0010000008443200520160404000101 00000000000000000000000000000000000000000000000000000000000000000000000000000000000000000000000000000000000000000N 00000000000NCONT   00    00000000000          00000000000000000000000000000000000000000000 000000000000000A000000000000000000000000000000000000000000000 000000000000000000000000000000000000000     00000000                                                                                                                        000000000000000000
F0010000008443300001000090008711200013050500000000000000000201604040002001PACKAGING SUPPLIERS S.A.                          D000000032419800000000000000000000100010010000000000000000000000F0010000008443300120160404000101 00000000000000000000000000000000000000000000000000000000000000000000000000000000000000000000000000000000000000000N 00000000000NCONT   00    00000000000          00000000000000000000000000000000000000000000 000000000000000A000000000000000000000000000000000000000000000 000000000000000000000000000000000000000     00000000                                                                                                                        000000000000000000
F0010000008443300002000090008711200041450500000000000000000201604040002001PACKAGING SUPPLIERS S.A.                          C000000029676800000000000000000000100010010000000000000000000000F0010000008443300220160404000101 00000000000000000000000000000000000000000000000000000000000000000000000000000000000000000000000000000000000000000N 00000000000NCONT   00    00000000000          00000000000000000000000000000000000000000000 000000000000000A000000000000000000000000000000000000000000000 000000000000000000000000000000000000000     00000000                                                                                                                        000000000000000000
F0010000008443300003000090008711200042505000000000000000000201604040002001PACKAGING SUPPLIERS S.A.                          C000000002743000000000000000000000100010010000000000000000000000F0010000008443300320160404000101 00000000000000000000000000000000000000000000000000000000000000000000000000000000000000000000000000000000000000000N 00000000000NCONT   00    00000000000          00000000000000000000000000000000000000000000 000000000000000A000000000000000000000000000000000000000000000 000000000000000000000000000000000000000     00000000                                                                                                                        000000000000000000
F0010000008443300004000090008711200023658300000000000000000201604040002001PACKAGING SUPPLIERS S.A.                          C000000000237400000000000000000000100010010000000000000000000000F0010000008443300420160404000101 00000000000000000000000000000000000000000000000000000000000000000000000000000000000000000000000000000000000000000N 00000000000NCONT   00    00000000000          00000000000000000000000000000000000000000000 000000000000000A000000000000000000000000000000000000000000000 000000000000000000000000000000000000000     00000000                                                                                                                        000000000000000000
F0010000008443300005000090008711200013552100000000000000000201604040002001PACKAGING SUPPLIERS S.A.                          D000000000237400000000000000000000100010010000000000000000000000F0010000008443300520160404000101 00000000000000000000000000000000000000000000000000000000000000000000000000000000000000000000000000000000000000000N 00000000000NCONT   00    00000000000          00000000000000000000000000000000000000000000 000000000000000A000000000000000000000000000000000000000000000 000000000000000000000000000000000000000     00000000                                                                                                                        000000000000000000
F0010000008443400001000090050863700013050500000000000000000201604040002001COMERCIALIZADORA PERFECT SAS                      D000000015072500000000000000000000100010010000000000000000000000F0010000008443400120160404000101 00000000000000000000000000000000000000000000000000000000000000000000000000000000000000000000000000000000000000000N 00000000000NCONT   00    00000000000          00000000000000000000000000000000000000000000 000000000000000A000000000000000000000000000000000000000000000 000000000000000000000000000000000000000     00000000                                                                                                                        000000000000000000
F0010000008443400002000090050863700041450500000000000000000201604040002001COMERCIALIZADORA PERFECT SAS                      C000000011522500000000000000000000100010010000000000000000000000F0010000008443400220160404000101 00000000000000000000000000000000000000000000000000000000000000000000000000000000000000000000000000000000000000000N 00000000000NCONT   00    00000000000          00000000000000000000000000000000000000000000 000000000000000A000000000000000000000000000000000000000000000 000000000000000000000000000000000000000     00000000                                                                                                                        000000000000000000
F0010000008443400003000090050863700042505000000000000000000201604040002001COMERCIALIZADORA PERFECT SAS                      C000000003550000000000000000000000100010010000000000000000000000F0010000008443400320160404000101 00000000000000000000000000000000000000000000000000000000000000000000000000000000000000000000000000000000000000000N 00000000000NCONT   00    00000000000          00000000000000000000000000000000000000000000 000000000000000A000000000000000000000000000000000000000000000 000000000000000000000000000000000000000     00000000                                                                                                                        000000000000000000
F0010000008443400004000090050863700023658300000000000000000201604040002001COMERCIALIZADORA PERFECT SAS                      C000000000092200000000000000000000100010010000000000000000000000F0010000008443400420160404000101 00000000000000000000000000000000000000000000000000000000000000000000000000000000000000000000000000000000000000000N 00000000000NCONT   00    00000000000          00000000000000000000000000000000000000000000 000000000000000A000000000000000000000000000000000000000000000 000000000000000000000000000000000000000     00000000                                                                                                                        000000000000000000
F0010000008443400005000090050863700013552100000000000000000201604040002001COMERCIALIZADORA PERFECT SAS                      D000000000092200000000000000000000100010010000000000000000000000F0010000008443400520160404000101 00000000000000000000000000000000000000000000000000000000000000000000000000000000000000000000000000000000000000000N 00000000000NCONT   00    00000000000          00000000000000000000000000000000000000000000 000000000000000A000000000000000000000000000000000000000000000 000000000000000000000000000000000000000     00000000                                                                                                                        000000000000000000
F0010000008443500001000080016664500013050500000000000000000201604040002001TELAPLAS PANCER SAS                               D000000040015000000000000000000000100010010000000000000000000000F0010000008443500120160404000101 00000000000000000000000000000000000000000000000000000000000000000000000000000000000000000000000000000000000000000N 00000000000NCONT   00    00000000000          00000000000000000000000000000000000000000000 000000000000000A000000000000000000000000000000000000000000000 000000000000000000000000000000000000000     00000000                                                                                                                        000000000000000000
F0010000008443500002000080016664500041450500000000000000000201604040002001TELAPLAS PANCER SAS                               C000000032290000000000000000000000100010010000000000000000000000F0010000008443500220160404000101 00000000000000000000000000000000000000000000000000000000000000000000000000000000000000000000000000000000000000000N 00000000000NCONT   00    00000000000          00000000000000000000000000000000000000000000 000000000000000A000000000000000000000000000000000000000000000 000000000000000000000000000000000000000     00000000                                                                                                                        000000000000000000
F0010000008443500003000080016664500042505000000000000000000201604040002001TELAPLAS PANCER SAS                               C000000007725000000000000000000000100010010000000000000000000000F0010000008443500320160404000101 00000000000000000000000000000000000000000000000000000000000000000000000000000000000000000000000000000000000000000N 00000000000NCONT   00    00000000000          00000000000000000000000000000000000000000000 000000000000000A000000000000000000000000000000000000000000000 000000000000000000000000000000000000000     00000000                                                                                                                        000000000000000000
F0010000008443500004000080016664500023658300000000000000000201604040002001TELAPLAS PANCER SAS                               C000000000258300000000000000000000100010010000000000000000000000F0010000008443500420160404000101 00000000000000000000000000000000000000000000000000000000000000000000000000000000000000000000000000000000000000000N 00000000000NCONT   00    00000000000          00000000000000000000000000000000000000000000 000000000000000A000000000000000000000000000000000000000000000 000000000000000000000000000000000000000     00000000                                                                                                                        000000000000000000
F0010000008443500005000080016664500013552100000000000000000201604040002001TELAPLAS PANCER SAS                               D000000000258300000000000000000000100010010000000000000000000000F0010000008443500520160404000101 00000000000000000000000000000000000000000000000000000000000000000000000000000000000000000000000000000000000000000N 00000000000NCONT   00    00000000000          00000000000000000000000000000000000000000000 000000000000000A000000000000000000000000000000000000000000000 000000000000000000000000000000000000000     00000000                                                                                                                        000000000000000000
F0010000008443600001000080019113900013050500000000000000000201604040002001COMERCIAL NOVAPEL LTDA                            D000000020440000000000000000000000100010010000000000000000000000F0010000008443600120160404000101 00000000000000000000000000000000000000000000000000000000000000000000000000000000000000000000000000000000000000000N 00000000000NCONT   00    00000000000          00000000000000000000000000000000000000000000 000000000000000A000000000000000000000000000000000000000000000 000000000000000000000000000000000000000     00000000                                                                                                                        000000000000000000
F0010000008443600002000080019113900041450500000000000000000201604040002001COMERCIAL NOVAPEL LTDA                            C000000016800000000000000000000000100010010000000000000000000000F0010000008443600220160404000101 00000000000000000000000000000000000000000000000000000000000000000000000000000000000000000000000000000000000000000N 00000000000NCONT   00    00000000000          00000000000000000000000000000000000000000000 000000000000000A000000000000000000000000000000000000000000000 000000000000000000000000000000000000000     00000000                                                                                                                        000000000000000000
F0010000008443600003000080019113900042505000000000000000000201604040002001COMERCIAL NOVAPEL LTDA                            C000000003640000000000000000000000100010010000000000000000000000F0010000008443600320160404000101 00000000000000000000000000000000000000000000000000000000000000000000000000000000000000000000000000000000000000000N 00000000000NCONT   00    00000000000          00000000000000000000000000000000000000000000 000000000000000A000000000000000000000000000000000000000000000 000000000000000000000000000000000000000     00000000                                                                                                                        000000000000000000
F0010000008443600004000080019113900023658300000000000000000201604040002001COMERCIAL NOVAPEL LTDA                            C000000000134400000000000000000000100010010000000000000000000000F0010000008443600420160404000101 00000000000000000000000000000000000000000000000000000000000000000000000000000000000000000000000000000000000000000N 00000000000NCONT   00    00000000000          00000000000000000000000000000000000000000000 000000000000000A000000000000000000000000000000000000000000000 000000000000000000000000000000000000000     00000000                                                                                                                        000000000000000000
F0010000008443600005000080019113900013552100000000000000000201604040002001COMERCIAL NOVAPEL LTDA                            D000000000134400000000000000000000100010010000000000000000000000F0010000008443600520160404000101 00000000000000000000000000000000000000000000000000000000000000000000000000000000000000000000000000000000000000000N 00000000000NCONT   00    00000000000          00000000000000000000000000000000000000000000 000000000000000A000000000000000000000000000000000000000000000 000000000000000000000000000000000000000     00000000                                                                                                                        000000000000000000
F0010000008443800001000089010526900013050500000000000000000201604040002001DISTRIBUCIONES CANAL Y CIA S.A.S                  D000000021755000000000000000000000100010010000000000000000000000F0010000008443800120160404000101 00000000000000000000000000000000000000000000000000000000000000000000000000000000000000000000000000000000000000000N 00000000000NCONT   00    00000000000          00000000000000000000000000000000000000000000 000000000000000A000000000000000000000000000000000000000000000 000000000000000000000000000000000000000     00000000                                                                                                                        000000000000000000
F0010000008443800002000089010526900041450500000000000000000201604040002001DISTRIBUCIONES CANAL Y CIA S.A.S                  C000000015000000000000000000000000100010010000000000000000000000F0010000008443800220160404000101 00000000000000000000000000000000000000000000000000000000000000000000000000000000000000000000000000000000000000000N 00000000000NCONT   00    00000000000          00000000000000000000000000000000000000000000 000000000000000A000000000000000000000000000000000000000000000 000000000000000000000000000000000000000     00000000                                                                                                                        000000000000000000
F0010000008443800003000089010526900042505000000000000000000201604040002001DISTRIBUCIONES CANAL Y CIA S.A.S                  C000000006755000000000000000000000100010010000000000000000000000F0010000008443800320160404000101 00000000000000000000000000000000000000000000000000000000000000000000000000000000000000000000000000000000000000000N 00000000000NCONT   00    00000000000          00000000000000000000000000000000000000000000 000000000000000A000000000000000000000000000000000000000000000 000000000000000000000000000000000000000     00000000                                                                                                                        000000000000000000
F0010000008443800004000089010526900023658300000000000000000201604040002001DISTRIBUCIONES CANAL Y CIA S.A.S                  C000000000120000000000000000000000100010010000000000000000000000F0010000008443800420160404000101 00000000000000000000000000000000000000000000000000000000000000000000000000000000000000000000000000000000000000000N 00000000000NCONT   00    00000000000          00000000000000000000000000000000000000000000 000000000000000A000000000000000000000000000000000000000000000 000000000000000000000000000000000000000     00000000                                                                                                                        000000000000000000
F0010000008443800005000089010526900013552100000000000000000201604040002001DISTRIBUCIONES CANAL Y CIA S.A.S                  D000000000120000000000000000000000100010010000000000000000000000F0010000008443800520160404000101 00000000000000000000000000000000000000000000000000000000000000000000000000000000000000000000000000000000000000000N 00000000000NCONT   00    00000000000          00000000000000000000000000000000000000000000 000000000000000A000000000000000000000000000000000000000000000 000000000000000000000000000000000000000     00000000                                                                                                                        000000000000000000
F0010000008443900001000089010260300013050500000000000000000201604040002001FEDERICO OSORIO A. S.A.                           D000000059218400000000000000000000100010010000000000000000000000F0010000008443900120160404000101 00000000000000000000000000000000000000000000000000000000000000000000000000000000000000000000000000000000000000000N 00000000000NCONT   00    00000000000          00000000000000000000000000000000000000000000 000000000000000A000000000000000000000000000000000000000000000 000000000000000000000000000000000000000     00000000                                                                                                                        000000000000000000
F0010000008443900002000089010260300041450500000000000000000201604040002001FEDERICO OSORIO A. S.A.                           C000000054010000000000000000000000100010010000000000000000000000F0010000008443900220160404000101 00000000000000000000000000000000000000000000000000000000000000000000000000000000000000000000000000000000000000000N 00000000000NCONT   00    00000000000          00000000000000000000000000000000000000000000 000000000000000A000000000000000000000000000000000000000000000 000000000000000000000000000000000000000     00000000                                                                                                                        000000000000000000
F0010000008443900003000089010260300042505000000000000000000201604040002001FEDERICO OSORIO A. S.A.                           C000000005208400000000000000000000100010010000000000000000000000F0010000008443900320160404000101 00000000000000000000000000000000000000000000000000000000000000000000000000000000000000000000000000000000000000000N 00000000000NCONT   00    00000000000          00000000000000000000000000000000000000000000 000000000000000A000000000000000000000000000000000000000000000 000000000000000000000000000000000000000     00000000                                                                                                                        000000000000000000
F0010000008443900004000089010260300023658300000000000000000201604040002001FEDERICO OSORIO A. S.A.                           C000000000432100000000000000000000100010010000000000000000000000F0010000008443900420160404000101 00000000000000000000000000000000000000000000000000000000000000000000000000000000000000000000000000000000000000000N 00000000000NCONT   00    00000000000          00000000000000000000000000000000000000000000 000000000000000A000000000000000000000000000000000000000000000 000000000000000000000000000000000000000     00000000                                                                                                                        000000000000000000
F0010000008443900005000089010260300013552100000000000000000201604040002001FEDERICO OSORIO A. S.A.                           D000000000432100000000000000000000100010010000000000000000000000F0010000008443900520160404000101 00000000000000000000000000000000000000000000000000000000000000000000000000000000000000000000000000000000000000000N 00000000000NCONT   00    00000000000          00000000000000000000000000000000000000000000 000000000000000A000000000000000000000000000000000000000000000 000000000000000000000000000000000000000     00000000                                                                                                                        000000000000000000
F0010000008444000001000090015305700011050500000000000000000201604040002001PLASTICOS Y SERVICIOS BARRANQUILLA EU             D000000005500000000000000000000000100010010000000000000000000000F0010000008444000120160404000101 00000000000000000000000000000000000000000000000000000000000000000000000000000000000000000000000000000000000000000N 00000000000NCONT   00    00000000000          00000000000000000000000000000000000000000000 000000000000000A000000000000000000000000000000000000000000000 000000000000000000000000000000000000000     00000000                                                                                                                        000000000000000000
F0010000008444000002000090015305700041450500000000000000000201604040002001PLASTICOS Y SERVICIOS BARRANQUILLA EU             C000000003800000000000000000000000100010010000000000000000000000F0010000008444000220160404000101 00000000000000000000000000000000000000000000000000000000000000000000000000000000000000000000000000000000000000000N 00000000000NCONT   00    00000000000          00000000000000000000000000000000000000000000 000000000000000A000000000000000000000000000000000000000000000 000000000000000000000000000000000000000     00000000                                                                                                                        000000000000000000
F0010000008444000003000090015305700042505000000000000000000201604040002001PLASTICOS Y SERVICIOS BARRANQUILLA EU             C000000001700000000000000000000000100010010000000000000000000000F0010000008444000320160404000101 00000000000000000000000000000000000000000000000000000000000000000000000000000000000000000000000000000000000000000N 00000000000NCONT   00    00000000000          00000000000000000000000000000000000000000000 000000000000000A000000000000000000000000000000000000000000000 000000000000000000000000000000000000000     00000000                                                                                                                        000000000000000000
F0010000008444000004000090015305700023658300000000000000000201604040002001PLASTICOS Y SERVICIOS BARRANQUILLA EU             C000000000030400000000000000000000100010010000000000000000000000F0010000008444000420160404000101 00000000000000000000000000000000000000000000000000000000000000000000000000000000000000000000000000000000000000000N 00000000000NCONT   00    00000000000          00000000000000000000000000000000000000000000 000000000000000A000000000000000000000000000000000000000000000 000000000000000000000000000000000000000     00000000                                                                                                                        000000000000000000
F0010000008444000005000090015305700013552100000000000000000201604040002001PLASTICOS Y SERVICIOS BARRANQUILLA EU             D000000000030400000000000000000000100010010000000000000000000000F0010000008444000520160404000101 00000000000000000000000000000000000000000000000000000000000000000000000000000000000000000000000000000000000000000N 00000000000NCONT   00    00000000000          00000000000000000000000000000000000000000000 000000000000000A000000000000000000000000000000000000000000000 000000000000000000000000000000000000000     00000000                                                                                                                        000000000000000000
F0010000008444100001000000869805000011050500000000000000000201604040002001WILMAN RAMBAL LARA                                D000000001600000000000000000000000100010010000000000000000000000F0010000008444100120160404000101 00000000000000000000000000000000000000000000000000000000000000000000000000000000000000000000000000000000000000000N 00000000000NCONT   00    00000000000          00000000000000000000000000000000000000000000 000000000000000A000000000000000000000000000000000000000000000 000000000000000000000000000000000000000     00000000                                                                                                                        000000000000000000
F0010000008444100002000000869805000041450500000000000000000201604040002001WILMAN RAMBAL LARA                                C000000001200000000000000000000000100010010000000000000000000000F0010000008444100220160404000101 00000000000000000000000000000000000000000000000000000000000000000000000000000000000000000000000000000000000000000N 00000000000NCONT   00    00000000000          00000000000000000000000000000000000000000000 000000000000000A000000000000000000000000000000000000000000000 000000000000000000000000000000000000000     00000000                                                                                                                        000000000000000000
F0010000008444100003000000869805000042505000000000000000000201604040002001WILMAN RAMBAL LARA                                C000000000400000000000000000000000100010010000000000000000000000F0010000008444100320160404000101 00000000000000000000000000000000000000000000000000000000000000000000000000000000000000000000000000000000000000000N 00000000000NCONT   00    00000000000          00000000000000000000000000000000000000000000 000000000000000A000000000000000000000000000000000000000000000 000000000000000000000000000000000000000     00000000                                                                                                                        000000000000000000
F0010000008444100004000000869805000023658300000000000000000201604040002001WILMAN RAMBAL LARA                                C000000000009600000000000000000000100010010000000000000000000000F0010000008444100420160404000101 00000000000000000000000000000000000000000000000000000000000000000000000000000000000000000000000000000000000000000N 00000000000NCONT   00    00000000000          00000000000000000000000000000000000000000000 000000000000000A000000000000000000000000000000000000000000000 000000000000000000000000000000000000000     00000000                                                                                                                        000000000000000000
F0010000008444100005000000869805000013552100000000000000000201604040002001WILMAN RAMBAL LARA                                D000000000009600000000000000000000100010010000000000000000000000F0010000008444100520160404000101 00000000000000000000000000000000000000000000000000000000000000000000000000000000000000000000000000000000000000000N 00000000000NCONT   00    00000000000          00000000000000000000000000000000000000000000 000000000000000A000000000000000000000000000000000000000000000 000000000000000000000000000000000000000     00000000                                                                                                                        000000000000000000
F0010000008444200001000000870907300011050500000000000000000201604040002001SURTIDOR FERRETERO                                D000000002440000000000000000000000100010010000000000000000000000F0010000008444200120160404000101 00000000000000000000000000000000000000000000000000000000000000000000000000000000000000000000000000000000000000000N 00000000000NCONT   00    00000000000          00000000000000000000000000000000000000000000 000000000000000A000000000000000000000000000000000000000000000 000000000000000000000000000000000000000     00000000                                                                                                                        000000000000000000
F0010000008444200002000000870907300041450500000000000000000201604040002001SURTIDOR FERRETERO                                C000000000840000000000000000000000100010010000000000000000000000F0010000008444200220160404000101 00000000000000000000000000000000000000000000000000000000000000000000000000000000000000000000000000000000000000000N 00000000000NCONT   00    00000000000          00000000000000000000000000000000000000000000 000000000000000A000000000000000000000000000000000000000000000 000000000000000000000000000000000000000     00000000                                                                                                                        000000000000000000
F0010000008444200003000000870907300042505000000000000000000201604040002001SURTIDOR FERRETERO                                C000000001600000000000000000000000100010010000000000000000000000F0010000008444200320160404000101 00000000000000000000000000000000000000000000000000000000000000000000000000000000000000000000000000000000000000000N 00000000000NCONT   00    00000000000          00000000000000000000000000000000000000000000 000000000000000A000000000000000000000000000000000000000000000 000000000000000000000000000000000000000     00000000                                                                                                                        000000000000000000
F0010000008444200004000000870907300023658300000000000000000201604040002001SURTIDOR FERRETERO                                C000000000006700000000000000000000100010010000000000000000000000F0010000008444200420160404000101 00000000000000000000000000000000000000000000000000000000000000000000000000000000000000000000000000000000000000000N 00000000000NCONT   00    00000000000          00000000000000000000000000000000000000000000 000000000000000A000000000000000000000000000000000000000000000 000000000000000000000000000000000000000     00000000                                                                                                                        000000000000000000
F0010000008444200005000000870907300013552100000000000000000201604040002001SURTIDOR FERRETERO                                D000000000006700000000000000000000100010010000000000000000000000F0010000008444200520160404000101 00000000000000000000000000000000000000000000000000000000000000000000000000000000000000000000000000000000000000000N 00000000000NCONT   00    00000000000          00000000000000000000000000000000000000000000 000000000000000A000000000000000000000000000000000000000000000 000000000000000000000000000000000000000     00000000                                                                                                                        000000000000000000
F0010000008444300001000001022529300011050500000000000000000201604040002001ALBERTO ALVAREZ ISAZA                             D000000000370000000000000000000000100010010000000000000000000000F0010000008444300120160404000101 00000000000000000000000000000000000000000000000000000000000000000000000000000000000000000000000000000000000000000N 00000000000NCONT   00    00000000000          00000000000000000000000000000000000000000000 000000000000000A000000000000000000000000000000000000000000000 000000000000000000000000000000000000000     00000000                                                                                                                        000000000000000000
F0010000008444300002000001022529300041450500000000000000000201604040002001ALBERTO ALVAREZ ISAZA                             C000000000370000000000000000000000100010010000000000000000000000F0010000008444300220160404000101 00000000000000000000000000000000000000000000000000000000000000000000000000000000000000000000000000000000000000000N 00000000000NCONT   00    00000000000          00000000000000000000000000000000000000000000 000000000000000A000000000000000000000000000000000000000000000 000000000000000000000000000000000000000     00000000                                                                                                                        000000000000000000
F0010000008444300003000001022529300042505000000000000000000201604040002001ALBERTO ALVAREZ ISAZA                             C000000000000000000000000000000000100010010000000000000000000000F0010000008444300320160404000101 00000000000000000000000000000000000000000000000000000000000000000000000000000000000000000000000000000000000000000N 00000000000NCONT   00    00000000000          00000000000000000000000000000000000000000000 000000000000000A000000000000000000000000000000000000000000000 000000000000000000000000000000000000000     00000000                                                                                                                        000000000000000000
F0010000008444300004000001022529300023658300000000000000000201604040002001ALBERTO ALVAREZ ISAZA                             C000000000003000000000000000000000100010010000000000000000000000F0010000008444300420160404000101 00000000000000000000000000000000000000000000000000000000000000000000000000000000000000000000000000000000000000000N 00000000000NCONT   00    00000000000          00000000000000000000000000000000000000000000 000000000000000A000000000000000000000000000000000000000000000 000000000000000000000000000000000000000     00000000                                                                                                                        000000000000000000
F0010000008444300005000001022529300013552100000000000000000201604040002001ALBERTO ALVAREZ ISAZA                             D000000000003000000000000000000000100010010000000000000000000000F0010000008444300520160404000101 00000000000000000000000000000000000000000000000000000000000000000000000000000000000000000000000000000000000000000N 00000000000NCONT   00    00000000000          00000000000000000000000000000000000000000000 000000000000000A000000000000000000000000000000000000000000000 000000000000000000000000000000000000000     00000000                                                                                                                        000000000000000000
F0010000008444400001000007200023300011050500000000000000000201604040002001WILLIAM ORTEGA                                    D000000003200000000000000000000000100010010000000000000000000000F0010000008444400120160404000101 00000000000000000000000000000000000000000000000000000000000000000000000000000000000000000000000000000000000000000N 00000000000NCONT   00    00000000000          00000000000000000000000000000000000000000000 000000000000000A000000000000000000000000000000000000000000000 000000000000000000000000000000000000000     00000000                                                                                                                        000000000000000000
F0010000008444400002000007200023300041450500000000000000000201604040002001WILLIAM ORTEGA                                    C000000002600000000000000000000000100010010000000000000000000000F0010000008444400220160404000101 00000000000000000000000000000000000000000000000000000000000000000000000000000000000000000000000000000000000000000N 00000000000NCONT   00    00000000000          00000000000000000000000000000000000000000000 000000000000000A000000000000000000000000000000000000000000000 000000000000000000000000000000000000000     00000000                                                                                                                        000000000000000000
F0010000008444400003000007200023300042505000000000000000000201604040002001WILLIAM ORTEGA                                    C000000000600000000000000000000000100010010000000000000000000000F0010000008444400320160404000101 00000000000000000000000000000000000000000000000000000000000000000000000000000000000000000000000000000000000000000N 00000000000NCONT   00    00000000000          00000000000000000000000000000000000000000000 000000000000000A000000000000000000000000000000000000000000000 000000000000000000000000000000000000000     00000000                                                                                                                        000000000000000000
F0010000008444400004000007200023300023658300000000000000000201604040002001WILLIAM ORTEGA                                    C000000000020800000000000000000000100010010000000000000000000000F0010000008444400420160404000101 00000000000000000000000000000000000000000000000000000000000000000000000000000000000000000000000000000000000000000N 00000000000NCONT   00    00000000000          00000000000000000000000000000000000000000000 000000000000000A000000000000000000000000000000000000000000000 000000000000000000000000000000000000000     00000000                                                                                                                        000000000000000000
F0010000008444400005000007200023300013552100000000000000000201604040002001WILLIAM ORTEGA                                    D000000000020800000000000000000000100010010000000000000000000000F0010000008444400520160404000101 00000000000000000000000000000000000000000000000000000000000000000000000000000000000000000000000000000000000000000N 00000000000NCONT   00    00000000000          00000000000000000000000000000000000000000000 000000000000000A000000000000000000000000000000000000000000000 000000000000000000000000000000000000000     00000000                                                                                                                        000000000000000000
F0010000008444500001000004175790100011050500000000000000000201604040002001ROSIRIS FERIA HOYOS  (COSM. SHILLER)              D000000001200000000000000000000000100010010000000000000000000000F0010000008444500120160404000101 00000000000000000000000000000000000000000000000000000000000000000000000000000000000000000000000000000000000000000N 00000000000NCONT   00    00000000000          00000000000000000000000000000000000000000000 000000000000000A000000000000000000000000000000000000000000000 000000000000000000000000000000000000000     00000000                                                                                                                        000000000000000000
F0010000008444500002000004175790100041450500000000000000000201604040002001ROSIRIS FERIA HOYOS  (COSM. SHILLER)              C000000001100000000000000000000000100010010000000000000000000000F0010000008444500220160404000101 00000000000000000000000000000000000000000000000000000000000000000000000000000000000000000000000000000000000000000N 00000000000NCONT   00    00000000000          00000000000000000000000000000000000000000000 000000000000000A000000000000000000000000000000000000000000000 000000000000000000000000000000000000000     00000000                                                                                                                        000000000000000000
F0010000008444500003000004175790100042505000000000000000000201604040002001ROSIRIS FERIA HOYOS  (COSM. SHILLER)              C000000000100000000000000000000000100010010000000000000000000000F0010000008444500320160404000101 00000000000000000000000000000000000000000000000000000000000000000000000000000000000000000000000000000000000000000N 00000000000NCONT   00    00000000000          00000000000000000000000000000000000000000000 000000000000000A000000000000000000000000000000000000000000000 000000000000000000000000000000000000000     00000000                                                                                                                        000000000000000000
F0010000008444500004000004175790100023658300000000000000000201604040002001ROSIRIS FERIA HOYOS  (COSM. SHILLER)              C000000000008800000000000000000000100010010000000000000000000000F0010000008444500420160404000101 00000000000000000000000000000000000000000000000000000000000000000000000000000000000000000000000000000000000000000N 00000000000NCONT   00    00000000000          00000000000000000000000000000000000000000000 000000000000000A000000000000000000000000000000000000000000000 000000000000000000000000000000000000000     00000000                                                                                                                        000000000000000000
F0010000008444500005000004175790100013552100000000000000000201604040002001ROSIRIS FERIA HOYOS  (COSM. SHILLER)              D000000000008800000000000000000000100010010000000000000000000000F0010000008444500520160404000101 00000000000000000000000000000000000000000000000000000000000000000000000000000000000000000000000000000000000000000N 00000000000NCONT   00    00000000000          00000000000000000000000000000000000000000000 000000000000000A000000000000000000000000000000000000000000000 000000000000000000000000000000000000000     00000000                                                                                                                        000000000000000000
F0010000008444600001000004175790100011050500000000000000000201604040002001ROSIRIS FERIA HOYOS  (COSM. SHILLER)              D000000000900000000000000000000000100010010000000000000000000000F0010000008444600120160404000101 00000000000000000000000000000000000000000000000000000000000000000000000000000000000000000000000000000000000000000N 00000000000NCONT   00    00000000000          00000000000000000000000000000000000000000000 000000000000000A000000000000000000000000000000000000000000000 000000000000000000000000000000000000000     00000000                                                                                                                        000000000000000000
F0010000008444600002000004175790100041450500000000000000000201604040002001ROSIRIS FERIA HOYOS  (COSM. SHILLER)              C000000000800000000000000000000000100010010000000000000000000000F0010000008444600220160404000101 00000000000000000000000000000000000000000000000000000000000000000000000000000000000000000000000000000000000000000N 00000000000NCONT   00    00000000000          00000000000000000000000000000000000000000000 000000000000000A000000000000000000000000000000000000000000000 000000000000000000000000000000000000000     00000000                                                                                                                        000000000000000000
F0010000008444600003000004175790100042505000000000000000000201604040002001ROSIRIS FERIA HOYOS  (COSM. SHILLER)              C000000000100000000000000000000000100010010000000000000000000000F0010000008444600320160404000101 00000000000000000000000000000000000000000000000000000000000000000000000000000000000000000000000000000000000000000N 00000000000NCONT   00    00000000000          00000000000000000000000000000000000000000000 000000000000000A000000000000000000000000000000000000000000000 000000000000000000000000000000000000000     00000000                                                                                                                        000000000000000000
F0010000008444600004000004175790100023658300000000000000000201604040002001ROSIRIS FERIA HOYOS  (COSM. SHILLER)              C000000000006400000000000000000000100010010000000000000000000000F0010000008444600420160404000101 00000000000000000000000000000000000000000000000000000000000000000000000000000000000000000000000000000000000000000N 00000000000NCONT   00    00000000000          00000000000000000000000000000000000000000000 000000000000000A000000000000000000000000000000000000000000000 000000000000000000000000000000000000000     00000000                                                                                                                        000000000000000000
F0010000008444600005000004175790100013552100000000000000000201604040002001ROSIRIS FERIA HOYOS  (COSM. SHILLER)              D000000000006400000000000000000000100010010000000000000000000000F0010000008444600520160404000101 00000000000000000000000000000000000000000000000000000000000000000000000000000000000000000000000000000000000000000N 00000000000NCONT   00    00000000000          00000000000000000000000000000000000000000000 000000000000000A000000000000000000000000000000000000000000000 000000000000000000000000000000000000000     00000000                                                                                                                        000000000000000000
F0010000008444700001000007957099900011050500000000000000000201604040002001RUBEN GOMEZ                                       D000000001500000000000000000000000100010010000000000000000000000F0010000008444700120160404000101 00000000000000000000000000000000000000000000000000000000000000000000000000000000000000000000000000000000000000000N 00000000000NCONT   00    00000000000          00000000000000000000000000000000000000000000 000000000000000A000000000000000000000000000000000000000000000 000000000000000000000000000000000000000     00000000                                                                                                                        000000000000000000
F0010000008444700002000007957099900041450500000000000000000201604040002001RUBEN GOMEZ                                       C000000001300000000000000000000000100010010000000000000000000000F0010000008444700220160404000101 00000000000000000000000000000000000000000000000000000000000000000000000000000000000000000000000000000000000000000N 00000000000NCONT   00    00000000000          00000000000000000000000000000000000000000000 000000000000000A000000000000000000000000000000000000000000000 000000000000000000000000000000000000000     00000000                                                                                                                        000000000000000000
F0010000008444700003000007957099900042505000000000000000000201604040002001RUBEN GOMEZ                                       C000000000200000000000000000000000100010010000000000000000000000F0010000008444700320160404000101 00000000000000000000000000000000000000000000000000000000000000000000000000000000000000000000000000000000000000000N 00000000000NCONT   00    00000000000          00000000000000000000000000000000000000000000 000000000000000A000000000000000000000000000000000000000000000 000000000000000000000000000000000000000     00000000                                                                                                                        000000000000000000
F0010000008444700004000007957099900023658300000000000000000201604040002001RUBEN GOMEZ                                       C000000000010400000000000000000000100010010000000000000000000000F0010000008444700420160404000101 00000000000000000000000000000000000000000000000000000000000000000000000000000000000000000000000000000000000000000N 00000000000NCONT   00    00000000000          00000000000000000000000000000000000000000000 000000000000000A000000000000000000000000000000000000000000000 000000000000000000000000000000000000000     00000000                                                                                                                        000000000000000000
F0010000008444700005000007957099900013552100000000000000000201604040002001RUBEN GOMEZ                                       D000000000010400000000000000000000100010010000000000000000000000F0010000008444700520160404000101 00000000000000000000000000000000000000000000000000000000000000000000000000000000000000000000000000000000000000000N 00000000000NCONT   00    00000000000          00000000000000000000000000000000000000000000 000000000000000A000000000000000000000000000000000000000000000 000000000000000000000000000000000000000     00000000                                                                                                                        000000000000000000
F0010000008444800001000012390001700011050500000000000000000201604040002001LILIANA HERNANDEZ                                 D000000001700000000000000000000000100010010000000000000000000000F0010000008444800120160404000101 00000000000000000000000000000000000000000000000000000000000000000000000000000000000000000000000000000000000000000N 00000000000NCONT   00    00000000000          00000000000000000000000000000000000000000000 000000000000000A000000000000000000000000000000000000000000000 000000000000000000000000000000000000000     00000000                                                                                                                        000000000000000000
F0010000008444800002000012390001700041450500000000000000000201604040002001LILIANA HERNANDEZ                                 C000000001200000000000000000000000100010010000000000000000000000F0010000008444800220160404000101 00000000000000000000000000000000000000000000000000000000000000000000000000000000000000000000000000000000000000000N 00000000000NCONT   00    00000000000          00000000000000000000000000000000000000000000 000000000000000A000000000000000000000000000000000000000000000 000000000000000000000000000000000000000     00000000                                                                                                                        000000000000000000
F0010000008444800003000012390001700042505000000000000000000201604040002001LILIANA HERNANDEZ                                 C000000000500000000000000000000000100010010000000000000000000000F0010000008444800320160404000101 00000000000000000000000000000000000000000000000000000000000000000000000000000000000000000000000000000000000000000N 00000000000NCONT   00    00000000000          00000000000000000000000000000000000000000000 000000000000000A000000000000000000000000000000000000000000000 000000000000000000000000000000000000000     00000000                                                                                                                        000000000000000000
F0010000008444800004000012390001700023658300000000000000000201604040002001LILIANA HERNANDEZ                                 C000000000009600000000000000000000100010010000000000000000000000F0010000008444800420160404000101 00000000000000000000000000000000000000000000000000000000000000000000000000000000000000000000000000000000000000000N 00000000000NCONT   00    00000000000          00000000000000000000000000000000000000000000 000000000000000A000000000000000000000000000000000000000000000 000000000000000000000000000000000000000     00000000                                                                                                                        000000000000000000
F0010000008444800005000012390001700013552100000000000000000201604040002001LILIANA HERNANDEZ                                 D000000000009600000000000000000000100010010000000000000000000000F0010000008444800520160404000101 00000000000000000000000000000000000000000000000000000000000000000000000000000000000000000000000000000000000000000N 00000000000NCONT   00    00000000000          00000000000000000000000000000000000000000000 000000000000000A000000000000000000000000000000000000000000000 000000000000000000000000000000000000000     00000000                                                                                                                        000000000000000000
F0010000008444900001000012390001700011050500000000000000000201604040002001LILIANA HERNANDEZ                                 D000000001900000000000000000000000100010010000000000000000000000F0010000008444900120160404000101 00000000000000000000000000000000000000000000000000000000000000000000000000000000000000000000000000000000000000000N 00000000000NCONT   00    00000000000          00000000000000000000000000000000000000000000 000000000000000A000000000000000000000000000000000000000000000 000000000000000000000000000000000000000     00000000                                                                                                                        000000000000000000
F0010000008444900002000012390001700041450500000000000000000201604040002001LILIANA HERNANDEZ                                 C000000001400000000000000000000000100010010000000000000000000000F0010000008444900220160404000101 00000000000000000000000000000000000000000000000000000000000000000000000000000000000000000000000000000000000000000N 00000000000NCONT   00    00000000000          00000000000000000000000000000000000000000000 000000000000000A000000000000000000000000000000000000000000000 000000000000000000000000000000000000000     00000000                                                                                                                        000000000000000000
F0010000008444900003000012390001700042505000000000000000000201604040002001LILIANA HERNANDEZ                                 C000000000500000000000000000000000100010010000000000000000000000F0010000008444900320160404000101 00000000000000000000000000000000000000000000000000000000000000000000000000000000000000000000000000000000000000000N 00000000000NCONT   00    00000000000          00000000000000000000000000000000000000000000 000000000000000A000000000000000000000000000000000000000000000 000000000000000000000000000000000000000     00000000                                                                                                                        000000000000000000
F0010000008444900004000012390001700023658300000000000000000201604040002001LILIANA HERNANDEZ                                 C000000000011200000000000000000000100010010000000000000000000000F0010000008444900420160404000101 00000000000000000000000000000000000000000000000000000000000000000000000000000000000000000000000000000000000000000N 00000000000NCONT   00    00000000000          00000000000000000000000000000000000000000000 000000000000000A000000000000000000000000000000000000000000000 000000000000000000000000000000000000000     00000000                                                                                                                        000000000000000000
F0010000008444900005000012390001700013552100000000000000000201604040002001LILIANA HERNANDEZ                                 D000000000011200000000000000000000100010010000000000000000000000F0010000008444900520160404000101 00000000000000000000000000000000000000000000000000000000000000000000000000000000000000000000000000000000000000000N 00000000000NCONT   00    00000000000          00000000000000000000000000000000000000000000 000000000000000A000000000000000000000000000000000000000000000 000000000000000000000000000000000000000     00000000                                                                                                                        000000000000000000
F0010000008445000001000012390001700011050500000000000000000201604040002001LILIANA HERNANDEZ                                 D000000003600000000000000000000000100010010000000000000000000000F0010000008445000120160404000101 00000000000000000000000000000000000000000000000000000000000000000000000000000000000000000000000000000000000000000N 00000000000NCONT   00    00000000000          00000000000000000000000000000000000000000000 000000000000000A000000000000000000000000000000000000000000000 000000000000000000000000000000000000000     00000000                                                                                                                        000000000000000000
F0010000008445000002000012390001700041450500000000000000000201604040002001LILIANA HERNANDEZ                                 C000000002800000000000000000000000100010010000000000000000000000F0010000008445000220160404000101 00000000000000000000000000000000000000000000000000000000000000000000000000000000000000000000000000000000000000000N 00000000000NCONT   00    00000000000          00000000000000000000000000000000000000000000 000000000000000A000000000000000000000000000000000000000000000 000000000000000000000000000000000000000     00000000                                                                                                                        000000000000000000
F0010000008445000003000012390001700042505000000000000000000201604040002001LILIANA HERNANDEZ                                 C000000000800000000000000000000000100010010000000000000000000000F0010000008445000320160404000101 00000000000000000000000000000000000000000000000000000000000000000000000000000000000000000000000000000000000000000N 00000000000NCONT   00    00000000000          00000000000000000000000000000000000000000000 000000000000000A000000000000000000000000000000000000000000000 000000000000000000000000000000000000000     00000000                                                                                                                        000000000000000000
F0010000008445000004000012390001700023658300000000000000000201604040002001LILIANA HERNANDEZ                                 C000000000022400000000000000000000100010010000000000000000000000F0010000008445000420160404000101 00000000000000000000000000000000000000000000000000000000000000000000000000000000000000000000000000000000000000000N 00000000000NCONT   00    00000000000          00000000000000000000000000000000000000000000 000000000000000A000000000000000000000000000000000000000000000 000000000000000000000000000000000000000     00000000                                                                                                                        000000000000000000
F0010000008445000005000012390001700013552100000000000000000201604040002001LILIANA HERNANDEZ                                 D000000000022400000000000000000000100010010000000000000000000000F0010000008445000520160404000101 00000000000000000000000000000000000000000000000000000000000000000000000000000000000000000000000000000000000000000N 00000000000NCONT   00    00000000000          00000000000000000000000000000000000000000000 000000000000000A000000000000000000000000000000000000000000000 000000000000000000000000000000000000000     00000000                                                                                                                        000000000000000000
F0010000008445100001000080012418800011050500000000000000000201604040002001DISTRITEC S.A.S                                   D000000001100000000000000000000000100010010000000000000000000000F0010000008445100120160404000101 00000000000000000000000000000000000000000000000000000000000000000000000000000000000000000000000000000000000000000N 00000000000NCONT   00    00000000000          00000000000000000000000000000000000000000000 000000000000000A000000000000000000000000000000000000000000000 000000000000000000000000000000000000000     00000000                                                                                                                        000000000000000000
F0010000008445100002000080012418800041450500000000000000000201604040002001DISTRITEC S.A.S                                   C000000001000000000000000000000000100010010000000000000000000000F0010000008445100220160404000101 00000000000000000000000000000000000000000000000000000000000000000000000000000000000000000000000000000000000000000N 00000000000NCONT   00    00000000000          00000000000000000000000000000000000000000000 000000000000000A000000000000000000000000000000000000000000000 000000000000000000000000000000000000000     00000000                                                                                                                        000000000000000000
F0010000008445100003000080012418800042505000000000000000000201604040002001DISTRITEC S.A.S                                   C000000000100000000000000000000000100010010000000000000000000000F0010000008445100320160404000101 00000000000000000000000000000000000000000000000000000000000000000000000000000000000000000000000000000000000000000N 00000000000NCONT   00    00000000000          00000000000000000000000000000000000000000000 000000000000000A000000000000000000000000000000000000000000000 000000000000000000000000000000000000000     00000000                                                                                                                        000000000000000000
F0010000008445100004000080012418800023658300000000000000000201604040002001DISTRITEC S.A.S                                   C000000000008000000000000000000000100010010000000000000000000000F0010000008445100420160404000101 00000000000000000000000000000000000000000000000000000000000000000000000000000000000000000000000000000000000000000N 00000000000NCONT   00    00000000000          00000000000000000000000000000000000000000000 000000000000000A000000000000000000000000000000000000000000000 000000000000000000000000000000000000000     00000000                                                                                                                        000000000000000000
F0010000008445100005000080012418800013552100000000000000000201604040002001DISTRITEC S.A.S                                   D000000000008000000000000000000000100010010000000000000000000000F0010000008445100520160404000101 00000000000000000000000000000000000000000000000000000000000000000000000000000000000000000000000000000000000000000N 00000000000NCONT   00    00000000000          00000000000000000000000000000000000000000000 000000000000000A000000000000000000000000000000000000000000000 000000000000000000000000000000000000000     00000000                                                                                                                        000000000000000000
F0010000008445200001000007225511500011050500000000000000000201604040002001MAIGEL CHADID                                     D000000001000000000000000000000000100010010000000000000000000000F0010000008445200120160404000101 00000000000000000000000000000000000000000000000000000000000000000000000000000000000000000000000000000000000000000N 00000000000NCONT   00    00000000000          00000000000000000000000000000000000000000000 000000000000000A000000000000000000000000000000000000000000000 000000000000000000000000000000000000000     00000000                                                                                                                        000000000000000000
F0010000008445200002000007225511500041450500000000000000000201604040002001MAIGEL CHADID                                     C000000000800000000000000000000000100010010000000000000000000000F0010000008445200220160404000101 00000000000000000000000000000000000000000000000000000000000000000000000000000000000000000000000000000000000000000N 00000000000NCONT   00    00000000000          00000000000000000000000000000000000000000000 000000000000000A000000000000000000000000000000000000000000000 000000000000000000000000000000000000000     00000000                                                                                                                        000000000000000000
F0010000008445200003000007225511500042505000000000000000000201604040002001MAIGEL CHADID                                     C000000000200000000000000000000000100010010000000000000000000000F0010000008445200320160404000101 00000000000000000000000000000000000000000000000000000000000000000000000000000000000000000000000000000000000000000N 00000000000NCONT   00    00000000000          00000000000000000000000000000000000000000000 000000000000000A000000000000000000000000000000000000000000000 000000000000000000000000000000000000000     00000000                                                                                                                        000000000000000000
F0010000008445200004000007225511500023658300000000000000000201604040002001MAIGEL CHADID                                     C000000000006400000000000000000000100010010000000000000000000000F0010000008445200420160404000101 00000000000000000000000000000000000000000000000000000000000000000000000000000000000000000000000000000000000000000N 00000000000NCONT   00    00000000000          00000000000000000000000000000000000000000000 000000000000000A000000000000000000000000000000000000000000000 000000000000000000000000000000000000000     00000000                                                                                                                        000000000000000000
F0010000008445200005000007225511500013552100000000000000000201604040002001MAIGEL CHADID                                     D000000000006400000000000000000000100010010000000000000000000000F0010000008445200520160404000101 00000000000000000000000000000000000000000000000000000000000000000000000000000000000000000000000000000000000000000N 00000000000NCONT   00    00000000000          00000000000000000000000000000000000000000000 000000000000000A000000000000000000000000000000000000000000000 000000000000000000000000000000000000000     00000000                                                                                                                        000000000000000000
F0010000008445300001000000742399700011050500000000000000000201604040002001CACHARRERIA EL NUEVO CHADID                       D000000005600000000000000000000000100010010000000000000000000000F0010000008445300120160404000101 00000000000000000000000000000000000000000000000000000000000000000000000000000000000000000000000000000000000000000N 00000000000NCONT   00    00000000000          00000000000000000000000000000000000000000000 000000000000000A000000000000000000000000000000000000000000000 000000000000000000000000000000000000000     00000000                                                                                                                        000000000000000000
F0010000008445300002000000742399700041450500000000000000000201604040002001CACHARRERIA EL NUEVO CHADID                       C000000004500000000000000000000000100010010000000000000000000000F0010000008445300220160404000101 00000000000000000000000000000000000000000000000000000000000000000000000000000000000000000000000000000000000000000N 00000000000NCONT   00    00000000000          00000000000000000000000000000000000000000000 000000000000000A000000000000000000000000000000000000000000000 000000000000000000000000000000000000000     00000000                                                                                                                        000000000000000000
