F0010000010888900001000080200863700013050500000000000000000201712270002001COPIN S.A.S                                       D000000030080900000000000000000000100010010000000000000000000000F0010000010888900120171227000101 00000000000000000000000000000000000000000000000000000000000000000000000000000000000000000000000000000000000000000N 00000000000NCONT   00    00000000000          00000000000000000000000000000000000000000000 000000000000000A000000000000000000000000000000000000000000000 000000000000000000000000000000000000000     00000000                                                                                                                        000000000000000000
F0010000010888900002000080200863700041450500000000000000000201712270002001COPIN S.A.S                                       C000000028100000000000000000000000100010010000000000000000000000F0010000010888900220171227000101 00000000000000000000000000000000000000000000000000000000000000000000000000000000000000000000000000000000000000000N 00000000000NCONT   00    00000000000          00000000000000000000000000000000000000000000 000000000000000A000000000000000000000000000000000000000000000 000000000000000000000000000000000000000     00000000                                                                                                                        000000000000000000
F0010000010888900003000080200863700042505000000000000000000201712270002001COPIN S.A.S                                       C000000001980900000000000000000000100010010000000000000000000000F0010000010888900320171227000101 00000000000000000000000000000000000000000000000000000000000000000000000000000000000000000000000000000000000000000N 00000000000NCONT   00    00000000000          00000000000000000000000000000000000000000000 000000000000000A000000000000000000000000000000000000000000000 000000000000000000000000000000000000000     00000000                                                                                                                        000000000000000000
F0010000010888900004000080200863700023658300000000000000000201712270002001COPIN S.A.S                                       C000000000000000000000000000000000100010010000000000000000000000F0010000010888900420171227000101 00000000000000000000000000000000000000000000000000000000000000000000000000000000000000000000000000000000000000000N 00000000000NCONT   00    00000000000          00000000000000000000000000000000000000000000 000000000000000A000000000000000000000000000000000000000000000 000000000000000000000000000000000000000     00000000                                                                                                                        000000000000000000
F0010000010888900005000080200863700013552100000000000000000201712270002001COPIN S.A.S                                       D000000000000000000000000000000000100010010000000000000000000000F0010000010888900520171227000101 00000000000000000000000000000000000000000000000000000000000000000000000000000000000000000000000000000000000000000N 00000000000NCONT   00    00000000000          00000000000000000000000000000000000000000000 000000000000000A000000000000000000000000000000000000000000000 000000000000000000000000000000000000000     00000000                                                                                                                        000000000000000000
F0010000010889000001000080201411900011050500000000000000000201712270002001PLASTISERVICIOS S DE H                            D000000001100000000000000000000000100010010000000000000000000000F0010000010889000120171227000101 00000000000000000000000000000000000000000000000000000000000000000000000000000000000000000000000000000000000000000N 00000000000NCONT   00    00000000000          00000000000000000000000000000000000000000000 000000000000000A000000000000000000000000000000000000000000000 000000000000000000000000000000000000000     00000000                                                                                                                        000000000000000000
F0010000010889000002000080201411900041450500000000000000000201712270002001PLASTISERVICIOS S DE H                            C000000001050000000000000000000000100010010000000000000000000000F0010000010889000220171227000101 00000000000000000000000000000000000000000000000000000000000000000000000000000000000000000000000000000000000000000N 00000000000NCONT   00    00000000000          00000000000000000000000000000000000000000000 000000000000000A000000000000000000000000000000000000000000000 000000000000000000000000000000000000000     00000000                                                                                                                        000000000000000000
F0010000010889000003000080201411900042505000000000000000000201712270002001PLASTISERVICIOS S DE H                            C000000000050000000000000000000000100010010000000000000000000000F0010000010889000320171227000101 00000000000000000000000000000000000000000000000000000000000000000000000000000000000000000000000000000000000000000N 00000000000NCONT   00    00000000000          00000000000000000000000000000000000000000000 000000000000000A000000000000000000000000000000000000000000000 000000000000000000000000000000000000000     00000000                                                                                                                        000000000000000000
F0010000010889000004000080201411900023658300000000000000000201712270002001PLASTISERVICIOS S DE H                            C000000000000000000000000000000000100010010000000000000000000000F0010000010889000420171227000101 00000000000000000000000000000000000000000000000000000000000000000000000000000000000000000000000000000000000000000N 00000000000NCONT   00    00000000000          00000000000000000000000000000000000000000000 000000000000000A000000000000000000000000000000000000000000000 000000000000000000000000000000000000000     00000000                                                                                                                        000000000000000000
F0010000010889000005000080201411900013552100000000000000000201712270002001PLASTISERVICIOS S DE H                            D000000000000000000000000000000000100010010000000000000000000000F0010000010889000520171227000101 00000000000000000000000000000000000000000000000000000000000000000000000000000000000000000000000000000000000000000N 00000000000NCONT   00    00000000000          00000000000000000000000000000000000000000000 000000000000000A000000000000000000000000000000000000000000000 000000000000000000000000000000000000000     00000000                                                                                                                        000000000000000000
F0010000010889100001000000748239700013050500000000000000000201712270002001RAFAEL NAVARRO URIBE                              D000000027679500000000000000000000100010010000000000000000000000F0010000010889100120171227000101 00000000000000000000000000000000000000000000000000000000000000000000000000000000000000000000000000000000000000000N 00000000000NCONT   00    00000000000          00000000000000000000000000000000000000000000 000000000000000A000000000000000000000000000000000000000000000 000000000000000000000000000000000000000     00000000                                                                                                                        000000000000000000
F0010000010889100002000000748239700041450500000000000000000201712270002001RAFAEL NAVARRO URIBE                              C000000022100000000000000000000000100010010000000000000000000000F0010000010889100220171227000101 00000000000000000000000000000000000000000000000000000000000000000000000000000000000000000000000000000000000000000N 00000000000NCONT   00    00000000000          00000000000000000000000000000000000000000000 000000000000000A000000000000000000000000000000000000000000000 000000000000000000000000000000000000000     00000000                                                                                                                        000000000000000000
F0010000010889100003000000748239700042505000000000000000000201712270002001RAFAEL NAVARRO URIBE                              C000000005579500000000000000000000100010010000000000000000000000F0010000010889100320171227000101 00000000000000000000000000000000000000000000000000000000000000000000000000000000000000000000000000000000000000000N 00000000000NCONT   00    00000000000          00000000000000000000000000000000000000000000 000000000000000A000000000000000000000000000000000000000000000 000000000000000000000000000000000000000     00000000                                                                                                                        000000000000000000
F0010000010889100004000000748239700023658300000000000000000201712270002001RAFAEL NAVARRO URIBE                              C000000000000000000000000000000000100010010000000000000000000000F0010000010889100420171227000101 00000000000000000000000000000000000000000000000000000000000000000000000000000000000000000000000000000000000000000N 00000000000NCONT   00    00000000000          00000000000000000000000000000000000000000000 000000000000000A000000000000000000000000000000000000000000000 000000000000000000000000000000000000000     00000000                                                                                                                        000000000000000000
F0010000010889100005000000748239700013552100000000000000000201712270002001RAFAEL NAVARRO URIBE                              D000000000000000000000000000000000100010010000000000000000000000F0010000010889100520171227000101 00000000000000000000000000000000000000000000000000000000000000000000000000000000000000000000000000000000000000000N 00000000000NCONT   00    00000000000          00000000000000000000000000000000000000000000 000000000000000A000000000000000000000000000000000000000000000 000000000000000000000000000000000000000     00000000                                                                                                                        000000000000000000
F0010000010889200001000080201411900011050500000000000000000201712270002001PLASTISERVICIOS S DE H                            D000000012000000000000000000000000100010010000000000000000000000F0010000010889200120171227000101 00000000000000000000000000000000000000000000000000000000000000000000000000000000000000000000000000000000000000000N 00000000000NCONT   00    00000000000          00000000000000000000000000000000000000000000 000000000000000A000000000000000000000000000000000000000000000 000000000000000000000000000000000000000     00000000                                                                                                                        000000000000000000
F0010000010889200002000080201411900041450500000000000000000201712270002001PLASTISERVICIOS S DE H                            C000000009900000000000000000000000100010010000000000000000000000F0010000010889200220171227000101 00000000000000000000000000000000000000000000000000000000000000000000000000000000000000000000000000000000000000000N 00000000000NCONT   00    00000000000          00000000000000000000000000000000000000000000 000000000000000A000000000000000000000000000000000000000000000 000000000000000000000000000000000000000     00000000                                                                                                                        000000000000000000
F0010000010889200003000080201411900042505000000000000000000201712270002001PLASTISERVICIOS S DE H                            C000000002100000000000000000000000100010010000000000000000000000F0010000010889200320171227000101 00000000000000000000000000000000000000000000000000000000000000000000000000000000000000000000000000000000000000000N 00000000000NCONT   00    00000000000          00000000000000000000000000000000000000000000 000000000000000A000000000000000000000000000000000000000000000 000000000000000000000000000000000000000     00000000                                                                                                                        000000000000000000
F0010000010889200004000080201411900023658300000000000000000201712270002001PLASTISERVICIOS S DE H                            C000000000000000000000000000000000100010010000000000000000000000F0010000010889200420171227000101 00000000000000000000000000000000000000000000000000000000000000000000000000000000000000000000000000000000000000000N 00000000000NCONT   00    00000000000          00000000000000000000000000000000000000000000 000000000000000A000000000000000000000000000000000000000000000 000000000000000000000000000000000000000     00000000                                                                                                                        000000000000000000
F0010000010889200005000080201411900013552100000000000000000201712270002001PLASTISERVICIOS S DE H                            D000000000000000000000000000000000100010010000000000000000000000F0010000010889200520171227000101 00000000000000000000000000000000000000000000000000000000000000000000000000000000000000000000000000000000000000000N 00000000000NCONT   00    00000000000          00000000000000000000000000000000000000000000 000000000000000A000000000000000000000000000000000000000000000 000000000000000000000000000000000000000     00000000                                                                                                                        000000000000000000
F0010000010889300001000090008711200013050500000000000000000201712270002001PACKAGING SUPPLIERS S.A.S                         D000000021244400000000000000000000100010010000000000000000000000F0010000010889300120171227000101 00000000000000000000000000000000000000000000000000000000000000000000000000000000000000000000000000000000000000000N 00000000000NCONT   00    00000000000          00000000000000000000000000000000000000000000 000000000000000A000000000000000000000000000000000000000000000 000000000000000000000000000000000000000     00000000                                                                                                                        000000000000000000
F0010000010889300002000090008711200041450500000000000000000201712270002001PACKAGING SUPPLIERS S.A.S                         C000000019909400000000000000000000100010010000000000000000000000F0010000010889300220171227000101 00000000000000000000000000000000000000000000000000000000000000000000000000000000000000000000000000000000000000000N 00000000000NCONT   00    00000000000          00000000000000000000000000000000000000000000 000000000000000A000000000000000000000000000000000000000000000 000000000000000000000000000000000000000     00000000                                                                                                                        000000000000000000
F0010000010889300003000090008711200042505000000000000000000201712270002001PACKAGING SUPPLIERS S.A.S                         C000000001335000000000000000000000100010010000000000000000000000F0010000010889300320171227000101 00000000000000000000000000000000000000000000000000000000000000000000000000000000000000000000000000000000000000000N 00000000000NCONT   00    00000000000          00000000000000000000000000000000000000000000 000000000000000A000000000000000000000000000000000000000000000 000000000000000000000000000000000000000     00000000                                                                                                                        000000000000000000
F0010000010889300004000090008711200023658300000000000000000201712270002001PACKAGING SUPPLIERS S.A.S                         C000000000000000000000000000000000100010010000000000000000000000F0010000010889300420171227000101 00000000000000000000000000000000000000000000000000000000000000000000000000000000000000000000000000000000000000000N 00000000000NCONT   00    00000000000          00000000000000000000000000000000000000000000 000000000000000A000000000000000000000000000000000000000000000 000000000000000000000000000000000000000     00000000                                                                                                                        000000000000000000
F0010000010889300005000090008711200013552100000000000000000201712270002001PACKAGING SUPPLIERS S.A.S                         D000000000000000000000000000000000100010010000000000000000000000F0010000010889300520171227000101 00000000000000000000000000000000000000000000000000000000000000000000000000000000000000000000000000000000000000000N 00000000000NCONT   00    00000000000          00000000000000000000000000000000000000000000 000000000000000A000000000000000000000000000000000000000000000 000000000000000000000000000000000000000     00000000                                                                                                                        000000000000000000
F0010000010889400001000003273290300013050500000000000000000201712270002001YANETH GOMEZ ROJANO -  COMERCIALIZADORA YG        D000000010892300000000000000000000100010010000000000000000000000F0010000010889400120171227000101 00000000000000000000000000000000000000000000000000000000000000000000000000000000000000000000000000000000000000000N 00000000000NCONT   00    00000000000          00000000000000000000000000000000000000000000 000000000000000A000000000000000000000000000000000000000000000 000000000000000000000000000000000000000     00000000                                                                                                                        000000000000000000
F0010000010889400002000003273290300041450500000000000000000201712270002001YANETH GOMEZ ROJANO -  COMERCIALIZADORA YG        C000000007600000000000000000000000100010010000000000000000000000F0010000010889400220171227000101 00000000000000000000000000000000000000000000000000000000000000000000000000000000000000000000000000000000000000000N 00000000000NCONT   00    00000000000          00000000000000000000000000000000000000000000 000000000000000A000000000000000000000000000000000000000000000 000000000000000000000000000000000000000     00000000                                                                                                                        000000000000000000
F0010000010889400003000003273290300042505000000000000000000201712270002001YANETH GOMEZ ROJANO -  COMERCIALIZADORA YG        C000000003292300000000000000000000100010010000000000000000000000F0010000010889400320171227000101 00000000000000000000000000000000000000000000000000000000000000000000000000000000000000000000000000000000000000000N 00000000000NCONT   00    00000000000          00000000000000000000000000000000000000000000 000000000000000A000000000000000000000000000000000000000000000 000000000000000000000000000000000000000     00000000                                                                                                                        000000000000000000
F0010000010889400004000003273290300023658300000000000000000201712270002001YANETH GOMEZ ROJANO -  COMERCIALIZADORA YG        C000000000000000000000000000000000100010010000000000000000000000F0010000010889400420171227000101 00000000000000000000000000000000000000000000000000000000000000000000000000000000000000000000000000000000000000000N 00000000000NCONT   00    00000000000          00000000000000000000000000000000000000000000 000000000000000A000000000000000000000000000000000000000000000 000000000000000000000000000000000000000     00000000                                                                                                                        000000000000000000
F0010000010889400005000003273290300013552100000000000000000201712270002001YANETH GOMEZ ROJANO -  COMERCIALIZADORA YG        D000000000000000000000000000000000100010010000000000000000000000F0010000010889400520171227000101 00000000000000000000000000000000000000000000000000000000000000000000000000000000000000000000000000000000000000000N 00000000000NCONT   00    00000000000          00000000000000000000000000000000000000000000 000000000000000A000000000000000000000000000000000000000000000 000000000000000000000000000000000000000     00000000                                                                                                                        000000000000000000
F0010000010889500001000080201411900011050500000000000000000201712270002001PLASTISERVICIOS S DE H                            D000000001000000000000000000000000100010010000000000000000000000F0010000010889500120171227000101 00000000000000000000000000000000000000000000000000000000000000000000000000000000000000000000000000000000000000000N 00000000000NCONT   00    00000000000          00000000000000000000000000000000000000000000 000000000000000A000000000000000000000000000000000000000000000 000000000000000000000000000000000000000     00000000                                                                                                                        000000000000000000
F0010000010889500002000080201411900041450500000000000000000201712270002001PLASTISERVICIOS S DE H                            C000000000950000000000000000000000100010010000000000000000000000F0010000010889500220171227000101 00000000000000000000000000000000000000000000000000000000000000000000000000000000000000000000000000000000000000000N 00000000000NCONT   00    00000000000          00000000000000000000000000000000000000000000 000000000000000A000000000000000000000000000000000000000000000 000000000000000000000000000000000000000     00000000                                                                                                                        000000000000000000
F0010000010889500003000080201411900042505000000000000000000201712270002001PLASTISERVICIOS S DE H                            C000000000050000000000000000000000100010010000000000000000000000F0010000010889500320171227000101 00000000000000000000000000000000000000000000000000000000000000000000000000000000000000000000000000000000000000000N 00000000000NCONT   00    00000000000          00000000000000000000000000000000000000000000 000000000000000A000000000000000000000000000000000000000000000 000000000000000000000000000000000000000     00000000                                                                                                                        000000000000000000
F0010000010889500004000080201411900023658300000000000000000201712270002001PLASTISERVICIOS S DE H                            C000000000000000000000000000000000100010010000000000000000000000F0010000010889500420171227000101 00000000000000000000000000000000000000000000000000000000000000000000000000000000000000000000000000000000000000000N 00000000000NCONT   00    00000000000          00000000000000000000000000000000000000000000 000000000000000A000000000000000000000000000000000000000000000 000000000000000000000000000000000000000     00000000                                                                                                                        000000000000000000
F0010000010889500005000080201411900013552100000000000000000201712270002001PLASTISERVICIOS S DE H                            D000000000000000000000000000000000100010010000000000000000000000F0010000010889500520171227000101 00000000000000000000000000000000000000000000000000000000000000000000000000000000000000000000000000000000000000000N 00000000000NCONT   00    00000000000          00000000000000000000000000000000000000000000 000000000000000A000000000000000000000000000000000000000000000 000000000000000000000000000000000000000     00000000                                                                                                                        000000000000000000
F0010000010889700001000089010260300013050500000000000000000201712270002001FEDERICO OSORIO A. S.A.                           D000000061861600000000000000000000100010010000000000000000000000F0010000010889700120171227000101 00000000000000000000000000000000000000000000000000000000000000000000000000000000000000000000000000000000000000000N 00000000000NCONT   00    00000000000          00000000000000000000000000000000000000000000 000000000000000A000000000000000000000000000000000000000000000 000000000000000000000000000000000000000     00000000                                                                                                                        000000000000000000
F0010000010889700002000089010260300041450500000000000000000201712270002001FEDERICO OSORIO A. S.A.                           C000000056680000000000000000000000100010010000000000000000000000F0010000010889700220171227000101 00000000000000000000000000000000000000000000000000000000000000000000000000000000000000000000000000000000000000000N 00000000000NCONT   00    00000000000          00000000000000000000000000000000000000000000 000000000000000A000000000000000000000000000000000000000000000 000000000000000000000000000000000000000     00000000                                                                                                                        000000000000000000
F0010000010889700003000089010260300042505000000000000000000201712270002001FEDERICO OSORIO A. S.A.                           C000000005181600000000000000000000100010010000000000000000000000F0010000010889700320171227000101 00000000000000000000000000000000000000000000000000000000000000000000000000000000000000000000000000000000000000000N 00000000000NCONT   00    00000000000          00000000000000000000000000000000000000000000 000000000000000A000000000000000000000000000000000000000000000 000000000000000000000000000000000000000     00000000                                                                                                                        000000000000000000
F0010000010889700004000089010260300023658300000000000000000201712270002001FEDERICO OSORIO A. S.A.                           C000000000000000000000000000000000100010010000000000000000000000F0010000010889700420171227000101 00000000000000000000000000000000000000000000000000000000000000000000000000000000000000000000000000000000000000000N 00000000000NCONT   00    00000000000          00000000000000000000000000000000000000000000 000000000000000A000000000000000000000000000000000000000000000 000000000000000000000000000000000000000     00000000                                                                                                                        000000000000000000
F0010000010889700005000089010260300013552100000000000000000201712270002001FEDERICO OSORIO A. S.A.                           D000000000000000000000000000000000100010010000000000000000000000F0010000010889700520171227000101 00000000000000000000000000000000000000000000000000000000000000000000000000000000000000000000000000000000000000000N 00000000000NCONT   00    00000000000          00000000000000000000000000000000000000000000 000000000000000A000000000000000000000000000000000000000000000 000000000000000000000000000000000000000     00000000                                                                                                                        000000000000000000
F0010000010889800001000090060531100013050500000000000000000201712270002001RECUBRIMIENTOS ESENCIALES SAS                     D000000112036600000000000000000000100010010000000000000000000000F0010000010889800120171227000101 00000000000000000000000000000000000000000000000000000000000000000000000000000000000000000000000000000000000000000N 00000000000NCONT   00    00000000000          00000000000000000000000000000000000000000000 000000000000000A000000000000000000000000000000000000000000000 000000000000000000000000000000000000000     00000000                                                                                                                        000000000000000000
F0010000010889800002000090060531100041450500000000000000000201712270002001RECUBRIMIENTOS ESENCIALES SAS                     C000000109020000000000000000000000100010010000000000000000000000F0010000010889800220171227000101 00000000000000000000000000000000000000000000000000000000000000000000000000000000000000000000000000000000000000000N 00000000000NCONT   00    00000000000          00000000000000000000000000000000000000000000 000000000000000A000000000000000000000000000000000000000000000 000000000000000000000000000000000000000     00000000                                                                                                                        000000000000000000
F0010000010889800003000090060531100042505000000000000000000201712270002001RECUBRIMIENTOS ESENCIALES SAS                     C000000003016600000000000000000000100010010000000000000000000000F0010000010889800320171227000101 00000000000000000000000000000000000000000000000000000000000000000000000000000000000000000000000000000000000000000N 00000000000NCONT   00    00000000000          00000000000000000000000000000000000000000000 000000000000000A000000000000000000000000000000000000000000000 000000000000000000000000000000000000000     00000000                                                                                                                        000000000000000000
F0010000010889800004000090060531100023658300000000000000000201712270002001RECUBRIMIENTOS ESENCIALES SAS                     C000000000000000000000000000000000100010010000000000000000000000F0010000010889800420171227000101 00000000000000000000000000000000000000000000000000000000000000000000000000000000000000000000000000000000000000000N 00000000000NCONT   00    00000000000          00000000000000000000000000000000000000000000 000000000000000A000000000000000000000000000000000000000000000 000000000000000000000000000000000000000     00000000                                                                                                                        000000000000000000
F0010000010889800005000090060531100013552100000000000000000201712270002001RECUBRIMIENTOS ESENCIALES SAS                     D000000000000000000000000000000000100010010000000000000000000000F0010000010889800520171227000101 00000000000000000000000000000000000000000000000000000000000000000000000000000000000000000000000000000000000000000N 00000000000NCONT   00    00000000000          00000000000000000000000000000000000000000000 000000000000000A000000000000000000000000000000000000000000000 000000000000000000000000000000000000000     00000000                                                                                                                        000000000000000000
F0010000010889900001000090040527000013050500000000000000000201712270002001MIL TORNILLOS SAS                                 D000000012050000000000000000000000100010010000000000000000000000F0010000010889900120171227000101 00000000000000000000000000000000000000000000000000000000000000000000000000000000000000000000000000000000000000000N 00000000000NCONT   00    00000000000          00000000000000000000000000000000000000000000 000000000000000A000000000000000000000000000000000000000000000 000000000000000000000000000000000000000     00000000                                                                                                                        000000000000000000
F0010000010889900002000090040527000041450500000000000000000201712270002001MIL TORNILLOS SAS                                 C000000011900000000000000000000000100010010000000000000000000000F0010000010889900220171227000101 00000000000000000000000000000000000000000000000000000000000000000000000000000000000000000000000000000000000000000N 00000000000NCONT   00    00000000000          00000000000000000000000000000000000000000000 000000000000000A000000000000000000000000000000000000000000000 000000000000000000000000000000000000000     00000000                                                                                                                        000000000000000000
F0010000010889900003000090040527000042505000000000000000000201712270002001MIL TORNILLOS SAS                                 C000000000150000000000000000000000100010010000000000000000000000F0010000010889900320171227000101 00000000000000000000000000000000000000000000000000000000000000000000000000000000000000000000000000000000000000000N 00000000000NCONT   00    00000000000          00000000000000000000000000000000000000000000 000000000000000A000000000000000000000000000000000000000000000 000000000000000000000000000000000000000     00000000                                                                                                                        000000000000000000
F0010000010889900004000090040527000023658300000000000000000201712270002001MIL TORNILLOS SAS                                 C000000000000000000000000000000000100010010000000000000000000000F0010000010889900420171227000101 00000000000000000000000000000000000000000000000000000000000000000000000000000000000000000000000000000000000000000N 00000000000NCONT   00    00000000000          00000000000000000000000000000000000000000000 000000000000000A000000000000000000000000000000000000000000000 000000000000000000000000000000000000000     00000000                                                                                                                        000000000000000000
F0010000010889900005000090040527000013552100000000000000000201712270002001MIL TORNILLOS SAS                                 D000000000000000000000000000000000100010010000000000000000000000F0010000010889900520171227000101 00000000000000000000000000000000000000000000000000000000000000000000000000000000000000000000000000000000000000000N 00000000000NCONT   00    00000000000          00000000000000000000000000000000000000000000 000000000000000A000000000000000000000000000000000000000000000 000000000000000000000000000000000000000     00000000                                                                                                                        000000000000000000
F0010000010890000001000090009800500013050500000000000000000201712270002001GLORIANT CHEMICHALS DE COLOMBIA LTDA              D000000022760000000000000000000000100010010000000000000000000000F0010000010890000120171227000101 00000000000000000000000000000000000000000000000000000000000000000000000000000000000000000000000000000000000000000N 00000000000NCONT   00    00000000000          00000000000000000000000000000000000000000000 000000000000000A000000000000000000000000000000000000000000000 000000000000000000000000000000000000000     00000000                                                                                                                        000000000000000000
F0010000010890000002000090009800500041450500000000000000000201712270002001GLORIANT CHEMICHALS DE COLOMBIA LTDA              C000000021120000000000000000000000100010010000000000000000000000F0010000010890000220171227000101 00000000000000000000000000000000000000000000000000000000000000000000000000000000000000000000000000000000000000000N 00000000000NCONT   00    00000000000          00000000000000000000000000000000000000000000 000000000000000A000000000000000000000000000000000000000000000 000000000000000000000000000000000000000     00000000                                                                                                                        000000000000000000
F0010000010890000003000090009800500042505000000000000000000201712270002001GLORIANT CHEMICHALS DE COLOMBIA LTDA              C000000001640000000000000000000000100010010000000000000000000000F0010000010890000320171227000101 00000000000000000000000000000000000000000000000000000000000000000000000000000000000000000000000000000000000000000N 00000000000NCONT   00    00000000000          00000000000000000000000000000000000000000000 000000000000000A000000000000000000000000000000000000000000000 000000000000000000000000000000000000000     00000000                                                                                                                        000000000000000000
F0010000010890000004000090009800500023658300000000000000000201712270002001GLORIANT CHEMICHALS DE COLOMBIA LTDA              C000000000000000000000000000000000100010010000000000000000000000F0010000010890000420171227000101 00000000000000000000000000000000000000000000000000000000000000000000000000000000000000000000000000000000000000000N 00000000000NCONT   00    00000000000          00000000000000000000000000000000000000000000 000000000000000A000000000000000000000000000000000000000000000 000000000000000000000000000000000000000     00000000                                                                                                                        000000000000000000
F0010000010890000005000090009800500013552100000000000000000201712270002001GLORIANT CHEMICHALS DE COLOMBIA LTDA              D000000000000000000000000000000000100010010000000000000000000000F0010000010890000520171227000101 00000000000000000000000000000000000000000000000000000000000000000000000000000000000000000000000000000000000000000N 00000000000NCONT   00    00000000000          00000000000000000000000000000000000000000000 000000000000000A000000000000000000000000000000000000000000000 000000000000000000000000000000000000000     00000000                                                                                                                        000000000000000000
F0010000010890100001000080202094000013050500000000000000000201712270002001DISTRIB. OMAR ORREGO S.A.                         D000000080812600000000000000000000100010010000000000000000000000F0010000010890100120171227000101 00000000000000000000000000000000000000000000000000000000000000000000000000000000000000000000000000000000000000000N 00000000000NCONT   00    00000000000          00000000000000000000000000000000000000000000 000000000000000A000000000000000000000000000000000000000000000 000000000000000000000000000000000000000     00000000                                                                                                                        000000000000000000
F0010000010890100002000080202094000041450500000000000000000201712270002001DISTRIB. OMAR ORREGO S.A.                         C000000050010000000000000000000000100010010000000000000000000000F0010000010890100220171227000101 00000000000000000000000000000000000000000000000000000000000000000000000000000000000000000000000000000000000000000N 00000000000NCONT   00    00000000000          00000000000000000000000000000000000000000000 000000000000000A000000000000000000000000000000000000000000000 000000000000000000000000000000000000000     00000000                                                                                                                        000000000000000000
F0010000010890100003000080202094000042505000000000000000000201712270002001DISTRIB. OMAR ORREGO S.A.                         C000000030802600000000000000000000100010010000000000000000000000F0010000010890100320171227000101 00000000000000000000000000000000000000000000000000000000000000000000000000000000000000000000000000000000000000000N 00000000000NCONT   00    00000000000          00000000000000000000000000000000000000000000 000000000000000A000000000000000000000000000000000000000000000 000000000000000000000000000000000000000     00000000                                                                                                                        000000000000000000
F0010000010890100004000080202094000023658300000000000000000201712270002001DISTRIB. OMAR ORREGO S.A.                         C000000000000000000000000000000000100010010000000000000000000000F0010000010890100420171227000101 00000000000000000000000000000000000000000000000000000000000000000000000000000000000000000000000000000000000000000N 00000000000NCONT   00    00000000000          00000000000000000000000000000000000000000000 000000000000000A000000000000000000000000000000000000000000000 000000000000000000000000000000000000000     00000000                                                                                                                        000000000000000000
F0010000010890100005000080202094000013552100000000000000000201712270002001DISTRIB. OMAR ORREGO S.A.                         D000000000000000000000000000000000100010010000000000000000000000F0010000010890100520171227000101 00000000000000000000000000000000000000000000000000000000000000000000000000000000000000000000000000000000000000000N 00000000000NCONT   00    00000000000          00000000000000000000000000000000000000000000 000000000000000A000000000000000000000000000000000000000000000 000000000000000000000000000000000000000     00000000                                                                                                                        000000000000000000
F0010000010890200001000080202094000013050500000000000000000201712270002001DISTRIB. OMAR ORREGO S.A.                         D000000012339200000000000000000000100010010000000000000000000000F0010000010890200120171227000101 00000000000000000000000000000000000000000000000000000000000000000000000000000000000000000000000000000000000000000N 00000000000NCONT   00    00000000000          00000000000000000000000000000000000000000000 000000000000000A000000000000000000000000000000000000000000000 000000000000000000000000000000000000000     00000000                                                                                                                        000000000000000000
F0010000010890200002000080202094000041450500000000000000000201712270002001DISTRIB. OMAR ORREGO S.A.                         C000000008440000000000000000000000100010010000000000000000000000F0010000010890200220171227000101 00000000000000000000000000000000000000000000000000000000000000000000000000000000000000000000000000000000000000000N 00000000000NCONT   00    00000000000          00000000000000000000000000000000000000000000 000000000000000A000000000000000000000000000000000000000000000 000000000000000000000000000000000000000     00000000                                                                                                                        000000000000000000
F0010000010890200003000080202094000042505000000000000000000201712270002001DISTRIB. OMAR ORREGO S.A.                         C000000003899200000000000000000000100010010000000000000000000000F0010000010890200320171227000101 00000000000000000000000000000000000000000000000000000000000000000000000000000000000000000000000000000000000000000N 00000000000NCONT   00    00000000000          00000000000000000000000000000000000000000000 000000000000000A000000000000000000000000000000000000000000000 000000000000000000000000000000000000000     00000000                                                                                                                        000000000000000000
F0010000010890200004000080202094000023658300000000000000000201712270002001DISTRIB. OMAR ORREGO S.A.                         C000000000000000000000000000000000100010010000000000000000000000F0010000010890200420171227000101 00000000000000000000000000000000000000000000000000000000000000000000000000000000000000000000000000000000000000000N 00000000000NCONT   00    00000000000          00000000000000000000000000000000000000000000 000000000000000A000000000000000000000000000000000000000000000 000000000000000000000000000000000000000     00000000                                                                                                                        000000000000000000
F0010000010890200005000080202094000013552100000000000000000201712270002001DISTRIB. OMAR ORREGO S.A.                         D000000000000000000000000000000000100010010000000000000000000000F0010000010890200520171227000101 00000000000000000000000000000000000000000000000000000000000000000000000000000000000000000000000000000000000000000N 00000000000NCONT   00    00000000000          00000000000000000000000000000000000000000000 000000000000000A000000000000000000000000000000000000000000000 000000000000000000000000000000000000000     00000000                                                                                                                        000000000000000000
F0010000010890300001000080201112800013050500000000000000000201712270002001CANGURO INTERNATIONAL S.A.                        D000000131868400000000000000000000100010010000000000000000000000F0010000010890300120171227000101 00000000000000000000000000000000000000000000000000000000000000000000000000000000000000000000000000000000000000000N 00000000000NCONT   00    00000000000          00000000000000000000000000000000000000000000 000000000000000A000000000000000000000000000000000000000000000 000000000000000000000000000000000000000     00000000                                                                                                                        000000000000000000
F0010000010890300002000080201112800041450500000000000000000201712270002001CANGURO INTERNATIONAL S.A.                        C000000130406300000000000000000000100010010000000000000000000000F0010000010890300220171227000101 00000000000000000000000000000000000000000000000000000000000000000000000000000000000000000000000000000000000000000N 00000000000NCONT   00    00000000000          00000000000000000000000000000000000000000000 000000000000000A000000000000000000000000000000000000000000000 000000000000000000000000000000000000000     00000000                                                                                                                        000000000000000000
F0010000010890300003000080201112800042505000000000000000000201712270002001CANGURO INTERNATIONAL S.A.                        C000000001462100000000000000000000100010010000000000000000000000F0010000010890300320171227000101 00000000000000000000000000000000000000000000000000000000000000000000000000000000000000000000000000000000000000000N 00000000000NCONT   00    00000000000          00000000000000000000000000000000000000000000 000000000000000A000000000000000000000000000000000000000000000 000000000000000000000000000000000000000     00000000                                                                                                                        000000000000000000
F0010000010890300004000080201112800023658300000000000000000201712270002001CANGURO INTERNATIONAL S.A.                        C000000000000000000000000000000000100010010000000000000000000000F0010000010890300420171227000101 00000000000000000000000000000000000000000000000000000000000000000000000000000000000000000000000000000000000000000N 00000000000NCONT   00    00000000000          00000000000000000000000000000000000000000000 000000000000000A000000000000000000000000000000000000000000000 000000000000000000000000000000000000000     00000000                                                                                                                        000000000000000000
F0010000010890300005000080201112800013552100000000000000000201712270002001CANGURO INTERNATIONAL S.A.                        D000000000000000000000000000000000100010010000000000000000000000F0010000010890300520171227000101 00000000000000000000000000000000000000000000000000000000000000000000000000000000000000000000000000000000000000000N 00000000000NCONT   00    00000000000          00000000000000000000000000000000000000000000 000000000000000A000000000000000000000000000000000000000000000 000000000000000000000000000000000000000     00000000                                                                                                                        000000000000000000
F0010000010890400001000080201112800013050500000000000000000201712270002001CANGURO INTERNATIONAL S.A.                        D000000224965000000000000000000000100010010000000000000000000000F0010000010890400120171227000101 00000000000000000000000000000000000000000000000000000000000000000000000000000000000000000000000000000000000000000N 00000000000NCONT   00    00000000000          00000000000000000000000000000000000000000000 000000000000000A000000000000000000000000000000000000000000000 000000000000000000000000000000000000000     00000000                                                                                                                        000000000000000000
F0010000010890400002000080201112800041450500000000000000000201712270002001CANGURO INTERNATIONAL S.A.                        C000000220849200000000000000000000100010010000000000000000000000F0010000010890400220171227000101 00000000000000000000000000000000000000000000000000000000000000000000000000000000000000000000000000000000000000000N 00000000000NCONT   00    00000000000          00000000000000000000000000000000000000000000 000000000000000A000000000000000000000000000000000000000000000 000000000000000000000000000000000000000     00000000                                                                                                                        000000000000000000
F0010000010890400003000080201112800042505000000000000000000201712270002001CANGURO INTERNATIONAL S.A.                        C000000004115800000000000000000000100010010000000000000000000000F0010000010890400320171227000101 00000000000000000000000000000000000000000000000000000000000000000000000000000000000000000000000000000000000000000N 00000000000NCONT   00    00000000000          00000000000000000000000000000000000000000000 000000000000000A000000000000000000000000000000000000000000000 000000000000000000000000000000000000000     00000000                                                                                                                        000000000000000000
F0010000010890400004000080201112800023658300000000000000000201712270002001CANGURO INTERNATIONAL S.A.                        C000000000000000000000000000000000100010010000000000000000000000F0010000010890400420171227000101 00000000000000000000000000000000000000000000000000000000000000000000000000000000000000000000000000000000000000000N 00000000000NCONT   00    00000000000          00000000000000000000000000000000000000000000 000000000000000A000000000000000000000000000000000000000000000 000000000000000000000000000000000000000     00000000                                                                                                                        000000000000000000
F0010000010890400005000080201112800013552100000000000000000201712270002001CANGURO INTERNATIONAL S.A.                        D000000000000000000000000000000000100010010000000000000000000000F0010000010890400520171227000101 00000000000000000000000000000000000000000000000000000000000000000000000000000000000000000000000000000000000000000N 00000000000NCONT   00    00000000000          00000000000000000000000000000000000000000000 000000000000000A000000000000000000000000000000000000000000000 000000000000000000000000000000000000000     00000000                                                                                                                        000000000000000000
F0010000010890500001000080201112800013050500000000000000000201712270002001CANGURO INTERNATIONAL S.A.                        D000000046260000000000000000000000100010010000000000000000000000F0010000010890500120171227000101 00000000000000000000000000000000000000000000000000000000000000000000000000000000000000000000000000000000000000000N 00000000000NCONT   00    00000000000          00000000000000000000000000000000000000000000 000000000000000A000000000000000000000000000000000000000000000 000000000000000000000000000000000000000     00000000                                                                                                                        000000000000000000
F0010000010890500002000080201112800041450500000000000000000201712270002001CANGURO INTERNATIONAL S.A.                        C000000046260000000000000000000000100010010000000000000000000000F0010000010890500220171227000101 00000000000000000000000000000000000000000000000000000000000000000000000000000000000000000000000000000000000000000N 00000000000NCONT   00    00000000000          00000000000000000000000000000000000000000000 000000000000000A000000000000000000000000000000000000000000000 000000000000000000000000000000000000000     00000000                                                                                                                        000000000000000000
F0010000010890500003000080201112800042505000000000000000000201712270002001CANGURO INTERNATIONAL S.A.                        C000000000000000000000000000000000100010010000000000000000000000F0010000010890500320171227000101 00000000000000000000000000000000000000000000000000000000000000000000000000000000000000000000000000000000000000000N 00000000000NCONT   00    00000000000          00000000000000000000000000000000000000000000 000000000000000A000000000000000000000000000000000000000000000 000000000000000000000000000000000000000     00000000                                                                                                                        000000000000000000
F0010000010890500004000080201112800023658300000000000000000201712270002001CANGURO INTERNATIONAL S.A.                        C000000000000000000000000000000000100010010000000000000000000000F0010000010890500420171227000101 00000000000000000000000000000000000000000000000000000000000000000000000000000000000000000000000000000000000000000N 00000000000NCONT   00    00000000000          00000000000000000000000000000000000000000000 000000000000000A000000000000000000000000000000000000000000000 000000000000000000000000000000000000000     00000000                                                                                                                        000000000000000000
F0010000010890500005000080201112800013552100000000000000000201712270002001CANGURO INTERNATIONAL S.A.                        D000000000000000000000000000000000100010010000000000000000000000F0010000010890500520171227000101 00000000000000000000000000000000000000000000000000000000000000000000000000000000000000000000000000000000000000000N 00000000000NCONT   00    00000000000          00000000000000000000000000000000000000000000 000000000000000A000000000000000000000000000000000000000000000 000000000000000000000000000000000000000     00000000                                                                                                                        000000000000000000
F0010000010890600001000090037350200011050500000000000000000201712270002001JIMAR C Y J LTDA                                  D000000002800000000000000000000000100010010000000000000000000000F0010000010890600120171227000101 00000000000000000000000000000000000000000000000000000000000000000000000000000000000000000000000000000000000000000N 00000000000NCONT   00    00000000000          00000000000000000000000000000000000000000000 000000000000000A000000000000000000000000000000000000000000000 000000000000000000000000000000000000000     00000000                                                                                                                        000000000000000000
F0010000010890600002000090037350200041450500000000000000000201712270002001JIMAR C Y J LTDA                                  C000000002400000000000000000000000100010010000000000000000000000F0010000010890600220171227000101 00000000000000000000000000000000000000000000000000000000000000000000000000000000000000000000000000000000000000000N 00000000000NCONT   00    00000000000          00000000000000000000000000000000000000000000 000000000000000A000000000000000000000000000000000000000000000 000000000000000000000000000000000000000     00000000                                                                                                                        000000000000000000
F0010000010890600003000090037350200042505000000000000000000201712270002001JIMAR C Y J LTDA                                  C000000000400000000000000000000000100010010000000000000000000000F0010000010890600320171227000101 00000000000000000000000000000000000000000000000000000000000000000000000000000000000000000000000000000000000000000N 00000000000NCONT   00    00000000000          00000000000000000000000000000000000000000000 000000000000000A000000000000000000000000000000000000000000000 000000000000000000000000000000000000000     00000000                                                                                                                        000000000000000000
F0010000010890600004000090037350200023658300000000000000000201712270002001JIMAR C Y J LTDA                                  C000000000000000000000000000000000100010010000000000000000000000F0010000010890600420171227000101 00000000000000000000000000000000000000000000000000000000000000000000000000000000000000000000000000000000000000000N 00000000000NCONT   00    00000000000          00000000000000000000000000000000000000000000 000000000000000A000000000000000000000000000000000000000000000 000000000000000000000000000000000000000     00000000                                                                                                                        000000000000000000
F0010000010890600005000090037350200013552100000000000000000201712270002001JIMAR C Y J LTDA                                  D000000000000000000000000000000000100010010000000000000000000000F0010000010890600520171227000101 00000000000000000000000000000000000000000000000000000000000000000000000000000000000000000000000000000000000000000N 00000000000NCONT   00    00000000000          00000000000000000000000000000000000000000000 000000000000000A000000000000000000000000000000000000000000000 000000000000000000000000000000000000000     00000000                                                                                                                        000000000000000000
F0010000010890700001000000744496800011050500000000000000000201712270002001TOMAS SANCHEZ                                     D000000001200000000000000000000000100010010000000000000000000000F0010000010890700120171227000101 00000000000000000000000000000000000000000000000000000000000000000000000000000000000000000000000000000000000000000N 00000000000NCONT   00    00000000000          00000000000000000000000000000000000000000000 000000000000000A000000000000000000000000000000000000000000000 000000000000000000000000000000000000000     00000000                                                                                                                        000000000000000000
F0010000010890700002000000744496800041450500000000000000000201712270002001TOMAS SANCHEZ                                     C000000001100000000000000000000000100010010000000000000000000000F0010000010890700220171227000101 00000000000000000000000000000000000000000000000000000000000000000000000000000000000000000000000000000000000000000N 00000000000NCONT   00    00000000000          00000000000000000000000000000000000000000000 000000000000000A000000000000000000000000000000000000000000000 000000000000000000000000000000000000000     00000000                                                                                                                        000000000000000000
F0010000010890700003000000744496800042505000000000000000000201712270002001TOMAS SANCHEZ                                     C000000000100000000000000000000000100010010000000000000000000000F0010000010890700320171227000101 00000000000000000000000000000000000000000000000000000000000000000000000000000000000000000000000000000000000000000N 00000000000NCONT   00    00000000000          00000000000000000000000000000000000000000000 000000000000000A000000000000000000000000000000000000000000000 000000000000000000000000000000000000000     00000000                                                                                                                        000000000000000000
F0010000010890700004000000744496800023658300000000000000000201712270002001TOMAS SANCHEZ                                     C000000000000000000000000000000000100010010000000000000000000000F0010000010890700420171227000101 00000000000000000000000000000000000000000000000000000000000000000000000000000000000000000000000000000000000000000N 00000000000NCONT   00    00000000000          00000000000000000000000000000000000000000000 000000000000000A000000000000000000000000000000000000000000000 000000000000000000000000000000000000000     00000000                                                                                                                        000000000000000000
F0010000010890700005000000744496800013552100000000000000000201712270002001TOMAS SANCHEZ                                     D000000000000000000000000000000000100010010000000000000000000000F0010000010890700520171227000101 00000000000000000000000000000000000000000000000000000000000000000000000000000000000000000000000000000000000000000N 00000000000NCONT   00    00000000000          00000000000000000000000000000000000000000000 000000000000000A000000000000000000000000000000000000000000000 000000000000000000000000000000000000000     00000000                                                                                                                        000000000000000000
F0010000010890800001000000744496800011050500000000000000000201712270002001TOMAS SANCHEZ                                     D000000002300000000000000000000000100010010000000000000000000000F0010000010890800120171227000101 00000000000000000000000000000000000000000000000000000000000000000000000000000000000000000000000000000000000000000N 00000000000NCONT   00    00000000000          00000000000000000000000000000000000000000000 000000000000000A000000000000000000000000000000000000000000000 000000000000000000000000000000000000000     00000000                                                                                                                        000000000000000000
F0010000010890800002000000744496800041450500000000000000000201712270002001TOMAS SANCHEZ                                     C000000002200000000000000000000000100010010000000000000000000000F0010000010890800220171227000101 00000000000000000000000000000000000000000000000000000000000000000000000000000000000000000000000000000000000000000N 00000000000NCONT   00    00000000000          00000000000000000000000000000000000000000000 000000000000000A000000000000000000000000000000000000000000000 000000000000000000000000000000000000000     00000000                                                                                                                        000000000000000000
F0010000010890800003000000744496800042505000000000000000000201712270002001TOMAS SANCHEZ                                     C000000000100000000000000000000000100010010000000000000000000000F0010000010890800320171227000101 00000000000000000000000000000000000000000000000000000000000000000000000000000000000000000000000000000000000000000N 00000000000NCONT   00    00000000000          00000000000000000000000000000000000000000000 000000000000000A000000000000000000000000000000000000000000000 000000000000000000000000000000000000000     00000000                                                                                                                        000000000000000000
F0010000010890800004000000744496800023658300000000000000000201712270002001TOMAS SANCHEZ                                     C000000000000000000000000000000000100010010000000000000000000000F0010000010890800420171227000101 00000000000000000000000000000000000000000000000000000000000000000000000000000000000000000000000000000000000000000N 00000000000NCONT   00    00000000000          00000000000000000000000000000000000000000000 000000000000000A000000000000000000000000000000000000000000000 000000000000000000000000000000000000000     00000000                                                                                                                        000000000000000000
F0010000010890800005000000744496800013552100000000000000000201712270002001TOMAS SANCHEZ                                     D000000000000000000000000000000000100010010000000000000000000000F0010000010890800520171227000101 00000000000000000000000000000000000000000000000000000000000000000000000000000000000000000000000000000000000000000N 00000000000NCONT   00    00000000000          00000000000000000000000000000000000000000000 000000000000000A000000000000000000000000000000000000000000000 000000000000000000000000000000000000000     00000000                                                                                                                        000000000000000000
F0010000010890900001000000744496800011050500000000000000000201712270002001TOMAS SANCHEZ                                     D000000001200000000000000000000000100010010000000000000000000000F0010000010890900120171227000101 00000000000000000000000000000000000000000000000000000000000000000000000000000000000000000000000000000000000000000N 00000000000NCONT   00    00000000000          00000000000000000000000000000000000000000000 000000000000000A000000000000000000000000000000000000000000000 000000000000000000000000000000000000000     00000000                                                                                                                        000000000000000000
F0010000010890900002000000744496800041450500000000000000000201712270002001TOMAS SANCHEZ                                     C000000001100000000000000000000000100010010000000000000000000000F0010000010890900220171227000101 00000000000000000000000000000000000000000000000000000000000000000000000000000000000000000000000000000000000000000N 00000000000NCONT   00    00000000000          00000000000000000000000000000000000000000000 000000000000000A000000000000000000000000000000000000000000000 000000000000000000000000000000000000000     00000000                                                                                                                        000000000000000000
F0010000010890900003000000744496800042505000000000000000000201712270002001TOMAS SANCHEZ                                     C000000000100000000000000000000000100010010000000000000000000000F0010000010890900320171227000101 00000000000000000000000000000000000000000000000000000000000000000000000000000000000000000000000000000000000000000N 00000000000NCONT   00    00000000000          00000000000000000000000000000000000000000000 000000000000000A000000000000000000000000000000000000000000000 000000000000000000000000000000000000000     00000000                                                                                                                        000000000000000000
F0010000010890900004000000744496800023658300000000000000000201712270002001TOMAS SANCHEZ                                     C000000000000000000000000000000000100010010000000000000000000000F0010000010890900420171227000101 00000000000000000000000000000000000000000000000000000000000000000000000000000000000000000000000000000000000000000N 00000000000NCONT   00    00000000000          00000000000000000000000000000000000000000000 000000000000000A000000000000000000000000000000000000000000000 000000000000000000000000000000000000000     00000000                                                                                                                        000000000000000000
F0010000010890900005000000744496800013552100000000000000000201712270002001TOMAS SANCHEZ                                     D000000000000000000000000000000000100010010000000000000000000000F0010000010890900520171227000101 00000000000000000000000000000000000000000000000000000000000000000000000000000000000000000000000000000000000000000N 00000000000NCONT   00    00000000000          00000000000000000000000000000000000000000000 000000000000000A000000000000000000000000000000000000000000000 000000000000000000000000000000000000000     00000000                                                                                                                        000000000000000000
F0010000010891000001000090098897000011050500000000000000000201712270002001IMPORTACIONES Y DISTRIBUCIONES JE SAS             D000000002590000000000000000000000100010010000000000000000000000F0010000010891000120171227000101 00000000000000000000000000000000000000000000000000000000000000000000000000000000000000000000000000000000000000000N 00000000000NCONT   00    00000000000          00000000000000000000000000000000000000000000 000000000000000A000000000000000000000000000000000000000000000 000000000000000000000000000000000000000     00000000                                                                                                                        000000000000000000
F0010000010891000002000090098897000041450500000000000000000201712270002001IMPORTACIONES Y DISTRIBUCIONES JE SAS             C000000001440000000000000000000000100010010000000000000000000000F0010000010891000220171227000101 00000000000000000000000000000000000000000000000000000000000000000000000000000000000000000000000000000000000000000N 00000000000NCONT   00    00000000000          00000000000000000000000000000000000000000000 000000000000000A000000000000000000000000000000000000000000000 000000000000000000000000000000000000000     00000000                                                                                                                        000000000000000000
F0010000010891000003000090098897000042505000000000000000000201712270002001IMPORTACIONES Y DISTRIBUCIONES JE SAS             C000000001150000000000000000000000100010010000000000000000000000F0010000010891000320171227000101 00000000000000000000000000000000000000000000000000000000000000000000000000000000000000000000000000000000000000000N 00000000000NCONT   00    00000000000          00000000000000000000000000000000000000000000 000000000000000A000000000000000000000000000000000000000000000 000000000000000000000000000000000000000     00000000                                                                                                                        000000000000000000
F0010000010891000004000090098897000023658300000000000000000201712270002001IMPORTACIONES Y DISTRIBUCIONES JE SAS             C000000000000000000000000000000000100010010000000000000000000000F0010000010891000420171227000101 00000000000000000000000000000000000000000000000000000000000000000000000000000000000000000000000000000000000000000N 00000000000NCONT   00    00000000000          00000000000000000000000000000000000000000000 000000000000000A000000000000000000000000000000000000000000000 000000000000000000000000000000000000000     00000000                                                                                                                        000000000000000000
F0010000010891000005000090098897000013552100000000000000000201712270002001IMPORTACIONES Y DISTRIBUCIONES JE SAS             D000000000000000000000000000000000100010010000000000000000000000F0010000010891000520171227000101 00000000000000000000000000000000000000000000000000000000000000000000000000000000000000000000000000000000000000000N 00000000000NCONT   00    00000000000          00000000000000000000000000000000000000000000 000000000000000A000000000000000000000000000000000000000000000 000000000000000000000000000000000000000     00000000                                                                                                                        000000000000000000
F0010000010891100001000090098897000011050500000000000000000201712270002001IMPORTACIONES Y DISTRIBUCIONES JE SAS             D000000000630000000000000000000000100010010000000000000000000000F0010000010891100120171227000101 00000000000000000000000000000000000000000000000000000000000000000000000000000000000000000000000000000000000000000N 00000000000NCONT   00    00000000000          00000000000000000000000000000000000000000000 000000000000000A000000000000000000000000000000000000000000000 000000000000000000000000000000000000000     00000000                                                                                                                        000000000000000000
F0010000010891100002000090098897000041450500000000000000000201712270002001IMPORTACIONES Y DISTRIBUCIONES JE SAS             C000000000400000000000000000000000100010010000000000000000000000F0010000010891100220171227000101 00000000000000000000000000000000000000000000000000000000000000000000000000000000000000000000000000000000000000000N 00000000000NCONT   00    00000000000          00000000000000000000000000000000000000000000 000000000000000A000000000000000000000000000000000000000000000 000000000000000000000000000000000000000     00000000                                                                                                                        000000000000000000
F0010000010891100003000090098897000042505000000000000000000201712270002001IMPORTACIONES Y DISTRIBUCIONES JE SAS             C000000000230000000000000000000000100010010000000000000000000000F0010000010891100320171227000101 00000000000000000000000000000000000000000000000000000000000000000000000000000000000000000000000000000000000000000N 00000000000NCONT   00    00000000000          00000000000000000000000000000000000000000000 000000000000000A000000000000000000000000000000000000000000000 000000000000000000000000000000000000000     00000000                                                                                                                        000000000000000000
F0010000010891100004000090098897000023658300000000000000000201712270002001IMPORTACIONES Y DISTRIBUCIONES JE SAS             C000000000000000000000000000000000100010010000000000000000000000F0010000010891100420171227000101 00000000000000000000000000000000000000000000000000000000000000000000000000000000000000000000000000000000000000000N 00000000000NCONT   00    00000000000          00000000000000000000000000000000000000000000 000000000000000A000000000000000000000000000000000000000000000 000000000000000000000000000000000000000     00000000                                                                                                                        000000000000000000
F0010000010891100005000090098897000013552100000000000000000201712270002001IMPORTACIONES Y DISTRIBUCIONES JE SAS             D000000000000000000000000000000000100010010000000000000000000000F0010000010891100520171227000101 00000000000000000000000000000000000000000000000000000000000000000000000000000000000000000000000000000000000000000N 00000000000NCONT   00    00000000000          00000000000000000000000000000000000000000000 000000000000000A000000000000000000000000000000000000000000000 000000000000000000000000000000000000000     00000000                                                                                                                        000000000000000000
F0010000010891200001000090098897000011050500000000000000000201712270002001IMPORTACIONES Y DISTRIBUCIONES JE SAS             D000000005740000000000000000000000100010010000000000000000000000F0010000010891200120171227000101 00000000000000000000000000000000000000000000000000000000000000000000000000000000000000000000000000000000000000000N 00000000000NCONT   00    00000000000          00000000000000000000000000000000000000000000 000000000000000A000000000000000000000000000000000000000000000 000000000000000000000000000000000000000     00000000                                                                                                                        000000000000000000
F0010000010891200002000090098897000041450500000000000000000201712270002001IMPORTACIONES Y DISTRIBUCIONES JE SAS             C000000004040000000000000000000000100010010000000000000000000000F0010000010891200220171227000101 00000000000000000000000000000000000000000000000000000000000000000000000000000000000000000000000000000000000000000N 00000000000NCONT   00    00000000000          00000000000000000000000000000000000000000000 000000000000000A000000000000000000000000000000000000000000000 000000000000000000000000000000000000000     00000000                                                                                                                        000000000000000000
F0010000010891200003000090098897000042505000000000000000000201712270002001IMPORTACIONES Y DISTRIBUCIONES JE SAS             C000000001700000000000000000000000100010010000000000000000000000F0010000010891200320171227000101 00000000000000000000000000000000000000000000000000000000000000000000000000000000000000000000000000000000000000000N 00000000000NCONT   00    00000000000          00000000000000000000000000000000000000000000 000000000000000A000000000000000000000000000000000000000000000 000000000000000000000000000000000000000     00000000                                                                                                                        000000000000000000
F0010000010891200004000090098897000023658300000000000000000201712270002001IMPORTACIONES Y DISTRIBUCIONES JE SAS             C000000000000000000000000000000000100010010000000000000000000000F0010000010891200420171227000101 00000000000000000000000000000000000000000000000000000000000000000000000000000000000000000000000000000000000000000N 00000000000NCONT   00    00000000000          00000000000000000000000000000000000000000000 000000000000000A000000000000000000000000000000000000000000000 000000000000000000000000000000000000000     00000000                                                                                                                        000000000000000000
F0010000010891200005000090098897000013552100000000000000000201712270002001IMPORTACIONES Y DISTRIBUCIONES JE SAS             D000000000000000000000000000000000100010010000000000000000000000F0010000010891200520171227000101 00000000000000000000000000000000000000000000000000000000000000000000000000000000000000000000000000000000000000000N 00000000000NCONT   00    00000000000          00000000000000000000000000000000000000000000 000000000000000A000000000000000000000000000000000000000000000 000000000000000000000000000000000000000     00000000                                                                                                                        000000000000000000
F0010000010891300001000090061985600011050500000000000000000201712270002001COMERCIALIZADORA PATRY SAS                        D000000005400000000000000000000000100010010000000000000000000000F0010000010891300120171227000101 00000000000000000000000000000000000000000000000000000000000000000000000000000000000000000000000000000000000000000N 00000000000NCONT   00    00000000000          00000000000000000000000000000000000000000000 000000000000000A000000000000000000000000000000000000000000000 000000000000000000000000000000000000000     00000000                                                                                                                        000000000000000000
F0010000010891300002000090061985600041450500000000000000000201712270002001COMERCIALIZADORA PATRY SAS                        C000000004400000000000000000000000100010010000000000000000000000F0010000010891300220171227000101 00000000000000000000000000000000000000000000000000000000000000000000000000000000000000000000000000000000000000000N 00000000000NCONT   00    00000000000          00000000000000000000000000000000000000000000 000000000000000A000000000000000000000000000000000000000000000 000000000000000000000000000000000000000     00000000                                                                                                                        000000000000000000
F0010000010891300003000090061985600042505000000000000000000201712270002001COMERCIALIZADORA PATRY SAS                        C000000001000000000000000000000000100010010000000000000000000000F0010000010891300320171227000101 00000000000000000000000000000000000000000000000000000000000000000000000000000000000000000000000000000000000000000N 00000000000NCONT   00    00000000000          00000000000000000000000000000000000000000000 000000000000000A000000000000000000000000000000000000000000000 000000000000000000000000000000000000000     00000000                                                                                                                        000000000000000000
F0010000010891300004000090061985600023658300000000000000000201712270002001COMERCIALIZADORA PATRY SAS                        C000000000000000000000000000000000100010010000000000000000000000F0010000010891300420171227000101 00000000000000000000000000000000000000000000000000000000000000000000000000000000000000000000000000000000000000000N 00000000000NCONT   00    00000000000          00000000000000000000000000000000000000000000 000000000000000A000000000000000000000000000000000000000000000 000000000000000000000000000000000000000     00000000                                                                                                                        000000000000000000
F0010000010891300005000090061985600013552100000000000000000201712270002001COMERCIALIZADORA PATRY SAS                        D000000000000000000000000000000000100010010000000000000000000000F0010000010891300520171227000101 00000000000000000000000000000000000000000000000000000000000000000000000000000000000000000000000000000000000000000N 00000000000NCONT   00    00000000000          00000000000000000000000000000000000000000000 000000000000000A000000000000000000000000000000000000000000000 000000000000000000000000000000000000000     00000000                                                                                                                        000000000000000000
F0010000010891400001000003146988400011050500000000000000000201712270002001ANGELA PATRICIA BRAVO                             D000000002900000000000000000000000100010010000000000000000000000F0010000010891400120171227000101 00000000000000000000000000000000000000000000000000000000000000000000000000000000000000000000000000000000000000000N 00000000000NCONT   00    00000000000          00000000000000000000000000000000000000000000 000000000000000A000000000000000000000000000000000000000000000 000000000000000000000000000000000000000     00000000                                                                                                                        000000000000000000
F0010000010891400002000003146988400041450500000000000000000201712270002001ANGELA PATRICIA BRAVO                             C000000002400000000000000000000000100010010000000000000000000000F0010000010891400220171227000101 00000000000000000000000000000000000000000000000000000000000000000000000000000000000000000000000000000000000000000N 00000000000NCONT   00    00000000000          00000000000000000000000000000000000000000000 000000000000000A000000000000000000000000000000000000000000000 000000000000000000000000000000000000000     00000000                                                                                                                        000000000000000000
F0010000010891400003000003146988400042505000000000000000000201712270002001ANGELA PATRICIA BRAVO                             C000000000500000000000000000000000100010010000000000000000000000F0010000010891400320171227000101 00000000000000000000000000000000000000000000000000000000000000000000000000000000000000000000000000000000000000000N 00000000000NCONT   00    00000000000          00000000000000000000000000000000000000000000 000000000000000A000000000000000000000000000000000000000000000 000000000000000000000000000000000000000     00000000                                                                                                                        000000000000000000
F0010000010891400004000003146988400023658300000000000000000201712270002001ANGELA PATRICIA BRAVO                             C000000000000000000000000000000000100010010000000000000000000000F0010000010891400420171227000101 00000000000000000000000000000000000000000000000000000000000000000000000000000000000000000000000000000000000000000N 00000000000NCONT   00    00000000000          00000000000000000000000000000000000000000000 000000000000000A000000000000000000000000000000000000000000000 000000000000000000000000000000000000000     00000000                                                                                                                        000000000000000000
F0010000010891400005000003146988400013552100000000000000000201712270002001ANGELA PATRICIA BRAVO                             D000000000000000000000000000000000100010010000000000000000000000F0010000010891400520171227000101 00000000000000000000000000000000000000000000000000000000000000000000000000000000000000000000000000000000000000000N 00000000000NCONT   00    00000000000          00000000000000000000000000000000000000000000 000000000000000A000000000000000000000000000000000000000000000 000000000000000000000000000000000000000     00000000                                                                                                                        000000000000000000
F0010000010891500001000000856527900011050500000000000000000201712270002001CESAR AUGUSTO MIER BUELVAS                        D000000001200000000000000000000000100010010000000000000000000000F0010000010891500120171227000101 00000000000000000000000000000000000000000000000000000000000000000000000000000000000000000000000000000000000000000N 00000000000NCONT   00    00000000000          00000000000000000000000000000000000000000000 000000000000000A000000000000000000000000000000000000000000000 000000000000000000000000000000000000000     00000000                                                                                                                        000000000000000000
F0010000010891500002000000856527900041450500000000000000000201712270002001CESAR AUGUSTO MIER BUELVAS                        C000000001100000000000000000000000100010010000000000000000000000F0010000010891500220171227000101 00000000000000000000000000000000000000000000000000000000000000000000000000000000000000000000000000000000000000000N 00000000000NCONT   00    00000000000          00000000000000000000000000000000000000000000 000000000000000A000000000000000000000000000000000000000000000 000000000000000000000000000000000000000     00000000                                                                                                                        000000000000000000
F0010000010891500003000000856527900042505000000000000000000201712270002001CESAR AUGUSTO MIER BUELVAS                        C000000000100000000000000000000000100010010000000000000000000000F0010000010891500320171227000101 00000000000000000000000000000000000000000000000000000000000000000000000000000000000000000000000000000000000000000N 00000000000NCONT   00    00000000000          00000000000000000000000000000000000000000000 000000000000000A000000000000000000000000000000000000000000000 000000000000000000000000000000000000000     00000000                                                                                                                        000000000000000000
F0010000010891500004000000856527900023658300000000000000000201712270002001CESAR AUGUSTO MIER BUELVAS                        C000000000000000000000000000000000100010010000000000000000000000F0010000010891500420171227000101 00000000000000000000000000000000000000000000000000000000000000000000000000000000000000000000000000000000000000000N 00000000000NCONT   00    00000000000          00000000000000000000000000000000000000000000 000000000000000A000000000000000000000000000000000000000000000 000000000000000000000000000000000000000     00000000                                                                                                                        000000000000000000
F0010000010891500005000000856527900013552100000000000000000201712270002001CESAR AUGUSTO MIER BUELVAS                        D000000000000000000000000000000000100010010000000000000000000000F0010000010891500520171227000101 00000000000000000000000000000000000000000000000000000000000000000000000000000000000000000000000000000000000000000N 00000000000NCONT   00    00000000000          00000000000000000000000000000000000000000000 000000000000000A000000000000000000000000000000000000000000000 000000000000000000000000000000000000000     00000000                                                                                                                        000000000000000000
F0010000010891600001000007223972300011050500000000000000000201712270002001LUIS VALENCIA                                     D000000001250000000000000000000000100010010000000000000000000000F0010000010891600120171227000101 00000000000000000000000000000000000000000000000000000000000000000000000000000000000000000000000000000000000000000N 00000000000NCONT   00    00000000000          00000000000000000000000000000000000000000000 000000000000000A000000000000000000000000000000000000000000000 000000000000000000000000000000000000000     00000000                                                                                                                        000000000000000000
F0010000010891600002000007223972300041450500000000000000000201712270002001LUIS VALENCIA                                     C000000001100000000000000000000000100010010000000000000000000000F0010000010891600220171227000101 00000000000000000000000000000000000000000000000000000000000000000000000000000000000000000000000000000000000000000N 00000000000NCONT   00    00000000000          00000000000000000000000000000000000000000000 000000000000000A000000000000000000000000000000000000000000000 000000000000000000000000000000000000000     00000000                                                                                                                        000000000000000000
F0010000010891600003000007223972300042505000000000000000000201712270002001LUIS VALENCIA                                     C000000000150000000000000000000000100010010000000000000000000000F0010000010891600320171227000101 00000000000000000000000000000000000000000000000000000000000000000000000000000000000000000000000000000000000000000N 00000000000NCONT   00    00000000000          00000000000000000000000000000000000000000000 000000000000000A000000000000000000000000000000000000000000000 000000000000000000000000000000000000000     00000000                                                                                                                        000000000000000000
F0010000010891600004000007223972300023658300000000000000000201712270002001LUIS VALENCIA                                     C000000000000000000000000000000000100010010000000000000000000000F0010000010891600420171227000101 00000000000000000000000000000000000000000000000000000000000000000000000000000000000000000000000000000000000000000N 00000000000NCONT   00    00000000000          00000000000000000000000000000000000000000000 000000000000000A000000000000000000000000000000000000000000000 000000000000000000000000000000000000000     00000000                                                                                                                        000000000000000000
F0010000010891600005000007223972300013552100000000000000000201712270002001LUIS VALENCIA                                     D000000000000000000000000000000000100010010000000000000000000000F0010000010891600520171227000101 00000000000000000000000000000000000000000000000000000000000000000000000000000000000000000000000000000000000000000N 00000000000NCONT   00    00000000000          00000000000000000000000000000000000000000000 000000000000000A000000000000000000000000000000000000000000000 000000000000000000000000000000000000000     00000000                                                                                                                        000000000000000000
F0010000010891700001000003287795000011050500000000000000000201712270002001LINDA KHALILIA DE KUZMAR                          D000000004626600000000000000000000100010010000000000000000000000F0010000010891700120171227000101 00000000000000000000000000000000000000000000000000000000000000000000000000000000000000000000000000000000000000000N 00000000000NCONT   00    00000000000          00000000000000000000000000000000000000000000 000000000000000A000000000000000000000000000000000000000000000 000000000000000000000000000000000000000     00000000                                                                                                                        000000000000000000
F0010000010891700002000003287795000041450500000000000000000201712270002001LINDA KHALILIA DE KUZMAR                          C000000003300000000000000000000000100010010000000000000000000000F0010000010891700220171227000101 00000000000000000000000000000000000000000000000000000000000000000000000000000000000000000000000000000000000000000N 00000000000NCONT   00    00000000000          00000000000000000000000000000000000000000000 000000000000000A000000000000000000000000000000000000000000000 000000000000000000000000000000000000000     00000000                                                                                                                        000000000000000000
F0010000010891700003000003287795000042505000000000000000000201712270002001LINDA KHALILIA DE KUZMAR                          C000000001326600000000000000000000100010010000000000000000000000F0010000010891700320171227000101 00000000000000000000000000000000000000000000000000000000000000000000000000000000000000000000000000000000000000000N 00000000000NCONT   00    00000000000          00000000000000000000000000000000000000000000 000000000000000A000000000000000000000000000000000000000000000 000000000000000000000000000000000000000     00000000                                                                                                                        000000000000000000
F0010000010891700004000003287795000023658300000000000000000201712270002001LINDA KHALILIA DE KUZMAR                          C000000000000000000000000000000000100010010000000000000000000000F0010000010891700420171227000101 00000000000000000000000000000000000000000000000000000000000000000000000000000000000000000000000000000000000000000N 00000000000NCONT   00    00000000000          00000000000000000000000000000000000000000000 000000000000000A000000000000000000000000000000000000000000000 000000000000000000000000000000000000000     00000000                                                                                                                        000000000000000000
F0010000010891700005000003287795000013552100000000000000000201712270002001LINDA KHALILIA DE KUZMAR                          D000000000000000000000000000000000100010010000000000000000000000F0010000010891700520171227000101 00000000000000000000000000000000000000000000000000000000000000000000000000000000000000000000000000000000000000000N 00000000000NCONT   00    00000000000          00000000000000000000000000000000000000000000 000000000000000A000000000000000000000000000000000000000000000 000000000000000000000000000000000000000     00000000                                                                                                                        000000000000000000
F0010000010891800001000000871573200011050500000000000000000201712270002001ACCESORIAS ARQUITECTONI KJ                        D000000001980000000000000000000000100010010000000000000000000000F0010000010891800120171227000101 00000000000000000000000000000000000000000000000000000000000000000000000000000000000000000000000000000000000000000N 00000000000NCONT   00    00000000000          00000000000000000000000000000000000000000000 000000000000000A000000000000000000000000000000000000000000000 000000000000000000000000000000000000000     00000000                                                                                                                        000000000000000000
F0010000010891800002000000871573200041450500000000000000000201712270002001ACCESORIAS ARQUITECTONI KJ                        C000000001100000000000000000000000100010010000000000000000000000F0010000010891800220171227000101 00000000000000000000000000000000000000000000000000000000000000000000000000000000000000000000000000000000000000000N 00000000000NCONT   00    00000000000          00000000000000000000000000000000000000000000 000000000000000A000000000000000000000000000000000000000000000 000000000000000000000000000000000000000     00000000                                                                                                                        000000000000000000
F0010000010891800003000000871573200042505000000000000000000201712270002001ACCESORIAS ARQUITECTONI KJ                        C000000000880000000000000000000000100010010000000000000000000000F0010000010891800320171227000101 00000000000000000000000000000000000000000000000000000000000000000000000000000000000000000000000000000000000000000N 00000000000NCONT   00    00000000000          00000000000000000000000000000000000000000000 000000000000000A000000000000000000000000000000000000000000000 000000000000000000000000000000000000000     00000000                                                                                                                        000000000000000000
F0010000010891800004000000871573200023658300000000000000000201712270002001ACCESORIAS ARQUITECTONI KJ                        C000000000000000000000000000000000100010010000000000000000000000F0010000010891800420171227000101 00000000000000000000000000000000000000000000000000000000000000000000000000000000000000000000000000000000000000000N 00000000000NCONT   00    00000000000          00000000000000000000000000000000000000000000 000000000000000A000000000000000000000000000000000000000000000 000000000000000000000000000000000000000     00000000                                                                                                                        000000000000000000
F0010000010891800005000000871573200013552100000000000000000201712270002001ACCESORIAS ARQUITECTONI KJ                        D000000000000000000000000000000000100010010000000000000000000000F0010000010891800520171227000101 00000000000000000000000000000000000000000000000000000000000000000000000000000000000000000000000000000000000000000N 00000000000NCONT   00    00000000000          00000000000000000000000000000000000000000000 000000000000000A000000000000000000000000000000000000000000000 000000000000000000000000000000000000000     00000000                                                                                                                        000000000000000000
F0010000010891900001000000871573200011050500000000000000000201712270002001ACCESORIAS ARQUITECTONI KJ                        D000000004870000000000000000000000100010010000000000000000000000F0010000010891900120171227000101 00000000000000000000000000000000000000000000000000000000000000000000000000000000000000000000000000000000000000000N 00000000000NCONT   00    00000000000          00000000000000000000000000000000000000000000 000000000000000A000000000000000000000000000000000000000000000 000000000000000000000000000000000000000     00000000                                                                                                                        000000000000000000
F0010000010891900002000000871573200041450500000000000000000201712270002001ACCESORIAS ARQUITECTONI KJ                        C000000003900000000000000000000000100010010000000000000000000000F0010000010891900220171227000101 00000000000000000000000000000000000000000000000000000000000000000000000000000000000000000000000000000000000000000N 00000000000NCONT   00    00000000000          00000000000000000000000000000000000000000000 000000000000000A000000000000000000000000000000000000000000000 000000000000000000000000000000000000000     00000000                                                                                                                        000000000000000000
