F0010000006128900001000000747559300011050500000000000000000201408080002001RAFAEL SERRANO                                    D000000001300000000000000000000000100010010000000000000000000000F0010000006128900120140808000101 00000000000000000000000000000000000000000000000000000000000000000000000000000000000000000000000000000000000000000N 00000000000NCONT   00    00000000000          00000000000000000000000000000000000000000000 000000000000000A000000000000000000000000000000000000000000000 000000000000000000000000000000000000000     00000000                                                                                                                        000000000000000000
F0010000006128900002000000747559300041450500000000000000000201408080002001RAFAEL SERRANO                                    C000000001000000000000000000000000100010010000000000000000000000F0010000006128900220140808000101 00000000000000000000000000000000000000000000000000000000000000000000000000000000000000000000000000000000000000000N 00000000000NCONT   00    00000000000          00000000000000000000000000000000000000000000 000000000000000A000000000000000000000000000000000000000000000 000000000000000000000000000000000000000     00000000                                                                                                                        000000000000000000
F0010000006128900003000000747559300042505000000000000000000201408080002001RAFAEL SERRANO                                    C000000000300000000000000000000000100010010000000000000000000000F0010000006128900320140808000101 00000000000000000000000000000000000000000000000000000000000000000000000000000000000000000000000000000000000000000N 00000000000NCONT   00    00000000000          00000000000000000000000000000000000000000000 000000000000000A000000000000000000000000000000000000000000000 000000000000000000000000000000000000000     00000000                                                                                                                        000000000000000000
F0010000006128900004000000747559300023658300000000000000000201408080002001RAFAEL SERRANO                                    C000000000008000000000000000000000100010010000000000000000000000F0010000006128900420140808000101 00000000000000000000000000000000000000000000000000000000000000000000000000000000000000000000000000000000000000000N 00000000000NCONT   00    00000000000          00000000000000000000000000000000000000000000 000000000000000A000000000000000000000000000000000000000000000 000000000000000000000000000000000000000     00000000                                                                                                                        000000000000000000
F0010000006128900005000000747559300013552100000000000000000201408080002001RAFAEL SERRANO                                    D000000000008000000000000000000000100010010000000000000000000000F0010000006128900520140808000101 00000000000000000000000000000000000000000000000000000000000000000000000000000000000000000000000000000000000000000N 00000000000NCONT   00    00000000000          00000000000000000000000000000000000000000000 000000000000000A000000000000000000000000000000000000000000000 000000000000000000000000000000000000000     00000000                                                                                                                        000000000000000000
F0010000006129000001000000747559300011050500000000000000000201408080002001RAFAEL SERRANO                                    D000000001300000000000000000000000100010010000000000000000000000F0010000006129000120140808000101 00000000000000000000000000000000000000000000000000000000000000000000000000000000000000000000000000000000000000000N 00000000000NCONT   00    00000000000          00000000000000000000000000000000000000000000 000000000000000A000000000000000000000000000000000000000000000 000000000000000000000000000000000000000     00000000                                                                                                                        000000000000000000
F0010000006129000002000000747559300041450500000000000000000201408080002001RAFAEL SERRANO                                    C000000001000000000000000000000000100010010000000000000000000000F0010000006129000220140808000101 00000000000000000000000000000000000000000000000000000000000000000000000000000000000000000000000000000000000000000N 00000000000NCONT   00    00000000000          00000000000000000000000000000000000000000000 000000000000000A000000000000000000000000000000000000000000000 000000000000000000000000000000000000000     00000000                                                                                                                        000000000000000000
F0010000006129000003000000747559300042505000000000000000000201408080002001RAFAEL SERRANO                                    C000000000300000000000000000000000100010010000000000000000000000F0010000006129000320140808000101 00000000000000000000000000000000000000000000000000000000000000000000000000000000000000000000000000000000000000000N 00000000000NCONT   00    00000000000          00000000000000000000000000000000000000000000 000000000000000A000000000000000000000000000000000000000000000 000000000000000000000000000000000000000     00000000                                                                                                                        000000000000000000
F0010000006129000004000000747559300023658300000000000000000201408080002001RAFAEL SERRANO                                    C000000000008000000000000000000000100010010000000000000000000000F0010000006129000420140808000101 00000000000000000000000000000000000000000000000000000000000000000000000000000000000000000000000000000000000000000N 00000000000NCONT   00    00000000000          00000000000000000000000000000000000000000000 000000000000000A000000000000000000000000000000000000000000000 000000000000000000000000000000000000000     00000000                                                                                                                        000000000000000000
F0010000006129000005000000747559300013552100000000000000000201408080002001RAFAEL SERRANO                                    D000000000008000000000000000000000100010010000000000000000000000F0010000006129000520140808000101 00000000000000000000000000000000000000000000000000000000000000000000000000000000000000000000000000000000000000000N 00000000000NCONT   00    00000000000          00000000000000000000000000000000000000000000 000000000000000A000000000000000000000000000000000000000000000 000000000000000000000000000000000000000     00000000                                                                                                                        000000000000000000
F0010000006129100001000080200049600011050500000000000000000201408080002001FAMAPAN DEL CARIBE                                D000000003500000000000000000000000100010010000000000000000000000F0010000006129100120140808000101 00000000000000000000000000000000000000000000000000000000000000000000000000000000000000000000000000000000000000000N 00000000000NCONT   00    00000000000          00000000000000000000000000000000000000000000 000000000000000A000000000000000000000000000000000000000000000 000000000000000000000000000000000000000     00000000                                                                                                                        000000000000000000
F0010000006129100002000080200049600041450500000000000000000201408080002001FAMAPAN DEL CARIBE                                C000000003200000000000000000000000100010010000000000000000000000F0010000006129100220140808000101 00000000000000000000000000000000000000000000000000000000000000000000000000000000000000000000000000000000000000000N 00000000000NCONT   00    00000000000          00000000000000000000000000000000000000000000 000000000000000A000000000000000000000000000000000000000000000 000000000000000000000000000000000000000     00000000                                                                                                                        000000000000000000
F0010000006129100003000080200049600042505000000000000000000201408080002001FAMAPAN DEL CARIBE                                C000000000300000000000000000000000100010010000000000000000000000F0010000006129100320140808000101 00000000000000000000000000000000000000000000000000000000000000000000000000000000000000000000000000000000000000000N 00000000000NCONT   00    00000000000          00000000000000000000000000000000000000000000 000000000000000A000000000000000000000000000000000000000000000 000000000000000000000000000000000000000     00000000                                                                                                                        000000000000000000
F0010000006129100004000080200049600023658300000000000000000201408080002001FAMAPAN DEL CARIBE                                C000000000025600000000000000000000100010010000000000000000000000F0010000006129100420140808000101 00000000000000000000000000000000000000000000000000000000000000000000000000000000000000000000000000000000000000000N 00000000000NCONT   00    00000000000          00000000000000000000000000000000000000000000 000000000000000A000000000000000000000000000000000000000000000 000000000000000000000000000000000000000     00000000                                                                                                                        000000000000000000
F0010000006129100005000080200049600013552100000000000000000201408080002001FAMAPAN DEL CARIBE                                D000000000025600000000000000000000100010010000000000000000000000F0010000006129100520140808000101 00000000000000000000000000000000000000000000000000000000000000000000000000000000000000000000000000000000000000000N 00000000000NCONT   00    00000000000          00000000000000000000000000000000000000000000 000000000000000A000000000000000000000000000000000000000000000 000000000000000000000000000000000000000     00000000                                                                                                                        000000000000000000
F0010000006129200001000007016511700011050500000000000000000201408080002001YEISON CASTAÑO                                   D000000001100000000000000000000000100010010000000000000000000000F0010000006129200120140808000101 00000000000000000000000000000000000000000000000000000000000000000000000000000000000000000000000000000000000000000N 00000000000NCONT   00    00000000000          00000000000000000000000000000000000000000000 000000000000000A000000000000000000000000000000000000000000000 000000000000000000000000000000000000000     00000000                                                                                                                        000000000000000000
F0010000006129200002000007016511700041450500000000000000000201408080002001YEISON CASTAÑO                                   C000000001000000000000000000000000100010010000000000000000000000F0010000006129200220140808000101 00000000000000000000000000000000000000000000000000000000000000000000000000000000000000000000000000000000000000000N 00000000000NCONT   00    00000000000          00000000000000000000000000000000000000000000 000000000000000A000000000000000000000000000000000000000000000 000000000000000000000000000000000000000     00000000                                                                                                                        000000000000000000
F0010000006129200003000007016511700042505000000000000000000201408080002001YEISON CASTAÑO                                   C000000000100000000000000000000000100010010000000000000000000000F0010000006129200320140808000101 00000000000000000000000000000000000000000000000000000000000000000000000000000000000000000000000000000000000000000N 00000000000NCONT   00    00000000000          00000000000000000000000000000000000000000000 000000000000000A000000000000000000000000000000000000000000000 000000000000000000000000000000000000000     00000000                                                                                                                        000000000000000000
F0010000006129200004000007016511700023658300000000000000000201408080002001YEISON CASTAÑO                                   C000000000008000000000000000000000100010010000000000000000000000F0010000006129200420140808000101 00000000000000000000000000000000000000000000000000000000000000000000000000000000000000000000000000000000000000000N 00000000000NCONT   00    00000000000          00000000000000000000000000000000000000000000 000000000000000A000000000000000000000000000000000000000000000 000000000000000000000000000000000000000     00000000                                                                                                                        000000000000000000
F0010000006129200005000007016511700013552100000000000000000201408080002001YEISON CASTAÑO                                   D000000000008000000000000000000000100010010000000000000000000000F0010000006129200520140808000101 00000000000000000000000000000000000000000000000000000000000000000000000000000000000000000000000000000000000000000N 00000000000NCONT   00    00000000000          00000000000000000000000000000000000000000000 000000000000000A000000000000000000000000000000000000000000000 000000000000000000000000000000000000000     00000000                                                                                                                        000000000000000000
F0010000006129300001000003319910700011050500000000000000000201408080002001LUZ DARY JIMENEZ MARTINEZ                         D000000001100000000000000000000000100010010000000000000000000000F0010000006129300120140808000101 00000000000000000000000000000000000000000000000000000000000000000000000000000000000000000000000000000000000000000N 00000000000NCONT   00    00000000000          00000000000000000000000000000000000000000000 000000000000000A000000000000000000000000000000000000000000000 000000000000000000000000000000000000000     00000000                                                                                                                        000000000000000000
F0010000006129300002000003319910700041450500000000000000000201408080002001LUZ DARY JIMENEZ MARTINEZ                         C000000001000000000000000000000000100010010000000000000000000000F0010000006129300220140808000101 00000000000000000000000000000000000000000000000000000000000000000000000000000000000000000000000000000000000000000N 00000000000NCONT   00    00000000000          00000000000000000000000000000000000000000000 000000000000000A000000000000000000000000000000000000000000000 000000000000000000000000000000000000000     00000000                                                                                                                        000000000000000000
F0010000006129300003000003319910700042505000000000000000000201408080002001LUZ DARY JIMENEZ MARTINEZ                         C000000000100000000000000000000000100010010000000000000000000000F0010000006129300320140808000101 00000000000000000000000000000000000000000000000000000000000000000000000000000000000000000000000000000000000000000N 00000000000NCONT   00    00000000000          00000000000000000000000000000000000000000000 000000000000000A000000000000000000000000000000000000000000000 000000000000000000000000000000000000000     00000000                                                                                                                        000000000000000000
F0010000006129300004000003319910700023658300000000000000000201408080002001LUZ DARY JIMENEZ MARTINEZ                         C000000000008000000000000000000000100010010000000000000000000000F0010000006129300420140808000101 00000000000000000000000000000000000000000000000000000000000000000000000000000000000000000000000000000000000000000N 00000000000NCONT   00    00000000000          00000000000000000000000000000000000000000000 000000000000000A000000000000000000000000000000000000000000000 000000000000000000000000000000000000000     00000000                                                                                                                        000000000000000000
F0010000006129300005000003319910700013552100000000000000000201408080002001LUZ DARY JIMENEZ MARTINEZ                         D000000000008000000000000000000000100010010000000000000000000000F0010000006129300520140808000101 00000000000000000000000000000000000000000000000000000000000000000000000000000000000000000000000000000000000000000N 00000000000NCONT   00    00000000000          00000000000000000000000000000000000000000000 000000000000000A000000000000000000000000000000000000000000000 000000000000000000000000000000000000000     00000000                                                                                                                        000000000000000000
F0010000006129400001000090034602400011050500000000000000000201408080002001LA CUSTODIA                                       D000000001100000000000000000000000100010010000000000000000000000F0010000006129400120140808000101 00000000000000000000000000000000000000000000000000000000000000000000000000000000000000000000000000000000000000000N 00000000000NCONT   00    00000000000          00000000000000000000000000000000000000000000 000000000000000A000000000000000000000000000000000000000000000 000000000000000000000000000000000000000     00000000                                                                                                                        000000000000000000
F0010000006129400002000090034602400041450500000000000000000201408080002001LA CUSTODIA                                       C000000001000000000000000000000000100010010000000000000000000000F0010000006129400220140808000101 00000000000000000000000000000000000000000000000000000000000000000000000000000000000000000000000000000000000000000N 00000000000NCONT   00    00000000000          00000000000000000000000000000000000000000000 000000000000000A000000000000000000000000000000000000000000000 000000000000000000000000000000000000000     00000000                                                                                                                        000000000000000000
F0010000006129400003000090034602400042505000000000000000000201408080002001LA CUSTODIA                                       C000000000100000000000000000000000100010010000000000000000000000F0010000006129400320140808000101 00000000000000000000000000000000000000000000000000000000000000000000000000000000000000000000000000000000000000000N 00000000000NCONT   00    00000000000          00000000000000000000000000000000000000000000 000000000000000A000000000000000000000000000000000000000000000 000000000000000000000000000000000000000     00000000                                                                                                                        000000000000000000
F0010000006129400004000090034602400023658300000000000000000201408080002001LA CUSTODIA                                       C000000000008000000000000000000000100010010000000000000000000000F0010000006129400420140808000101 00000000000000000000000000000000000000000000000000000000000000000000000000000000000000000000000000000000000000000N 00000000000NCONT   00    00000000000          00000000000000000000000000000000000000000000 000000000000000A000000000000000000000000000000000000000000000 000000000000000000000000000000000000000     00000000                                                                                                                        000000000000000000
F0010000006129400005000090034602400013552100000000000000000201408080002001LA CUSTODIA                                       D000000000008000000000000000000000100010010000000000000000000000F0010000006129400520140808000101 00000000000000000000000000000000000000000000000000000000000000000000000000000000000000000000000000000000000000000N 00000000000NCONT   00    00000000000          00000000000000000000000000000000000000000000 000000000000000A000000000000000000000000000000000000000000000 000000000000000000000000000000000000000     00000000                                                                                                                        000000000000000000
F0010000006129500001000003900336900011050500000000000000000201408080002001LUISA FERNANDA BOLAñOS                           D000000011000000000000000000000000100010010000000000000000000000F0010000006129500120140808000101 00000000000000000000000000000000000000000000000000000000000000000000000000000000000000000000000000000000000000000N 00000000000NCONT   00    00000000000          00000000000000000000000000000000000000000000 000000000000000A000000000000000000000000000000000000000000000 000000000000000000000000000000000000000     00000000                                                                                                                        000000000000000000
F0010000006129500002000003900336900041450500000000000000000201408080002001LUISA FERNANDA BOLAñOS                           C000000010900000000000000000000000100010010000000000000000000000F0010000006129500220140808000101 00000000000000000000000000000000000000000000000000000000000000000000000000000000000000000000000000000000000000000N 00000000000NCONT   00    00000000000          00000000000000000000000000000000000000000000 000000000000000A000000000000000000000000000000000000000000000 000000000000000000000000000000000000000     00000000                                                                                                                        000000000000000000
F0010000006129500003000003900336900042505000000000000000000201408080002001LUISA FERNANDA BOLAñOS                           C000000000100000000000000000000000100010010000000000000000000000F0010000006129500320140808000101 00000000000000000000000000000000000000000000000000000000000000000000000000000000000000000000000000000000000000000N 00000000000NCONT   00    00000000000          00000000000000000000000000000000000000000000 000000000000000A000000000000000000000000000000000000000000000 000000000000000000000000000000000000000     00000000                                                                                                                        000000000000000000
F0010000006129500004000003900336900023658300000000000000000201408080002001LUISA FERNANDA BOLAñOS                           C000000000087200000000000000000000100010010000000000000000000000F0010000006129500420140808000101 00000000000000000000000000000000000000000000000000000000000000000000000000000000000000000000000000000000000000000N 00000000000NCONT   00    00000000000          00000000000000000000000000000000000000000000 000000000000000A000000000000000000000000000000000000000000000 000000000000000000000000000000000000000     00000000                                                                                                                        000000000000000000
F0010000006129500005000003900336900013552100000000000000000201408080002001LUISA FERNANDA BOLAñOS                           D000000000087200000000000000000000100010010000000000000000000000F0010000006129500520140808000101 00000000000000000000000000000000000000000000000000000000000000000000000000000000000000000000000000000000000000000N 00000000000NCONT   00    00000000000          00000000000000000000000000000000000000000000 000000000000000A000000000000000000000000000000000000000000000 000000000000000000000000000000000000000     00000000                                                                                                                        000000000000000000
F0010000006129600001000001502923600011050500000000000000000201408080002001ALCIDES MARTINEZ                                  D000000001000000000000000000000000100010010000000000000000000000F0010000006129600120140808000101 00000000000000000000000000000000000000000000000000000000000000000000000000000000000000000000000000000000000000000N 00000000000NCONT   00    00000000000          00000000000000000000000000000000000000000000 000000000000000A000000000000000000000000000000000000000000000 000000000000000000000000000000000000000     00000000                                                                                                                        000000000000000000
F0010000006129600002000001502923600041450500000000000000000201408080002001ALCIDES MARTINEZ                                  C000000000900000000000000000000000100010010000000000000000000000F0010000006129600220140808000101 00000000000000000000000000000000000000000000000000000000000000000000000000000000000000000000000000000000000000000N 00000000000NCONT   00    00000000000          00000000000000000000000000000000000000000000 000000000000000A000000000000000000000000000000000000000000000 000000000000000000000000000000000000000     00000000                                                                                                                        000000000000000000
F0010000006129600003000001502923600042505000000000000000000201408080002001ALCIDES MARTINEZ                                  C000000000100000000000000000000000100010010000000000000000000000F0010000006129600320140808000101 00000000000000000000000000000000000000000000000000000000000000000000000000000000000000000000000000000000000000000N 00000000000NCONT   00    00000000000          00000000000000000000000000000000000000000000 000000000000000A000000000000000000000000000000000000000000000 000000000000000000000000000000000000000     00000000                                                                                                                        000000000000000000
F0010000006129600004000001502923600023658300000000000000000201408080002001ALCIDES MARTINEZ                                  C000000000007200000000000000000000100010010000000000000000000000F0010000006129600420140808000101 00000000000000000000000000000000000000000000000000000000000000000000000000000000000000000000000000000000000000000N 00000000000NCONT   00    00000000000          00000000000000000000000000000000000000000000 000000000000000A000000000000000000000000000000000000000000000 000000000000000000000000000000000000000     00000000                                                                                                                        000000000000000000
F0010000006129600005000001502923600013552100000000000000000201408080002001ALCIDES MARTINEZ                                  D000000000007200000000000000000000100010010000000000000000000000F0010000006129600520140808000101 00000000000000000000000000000000000000000000000000000000000000000000000000000000000000000000000000000000000000000N 00000000000NCONT   00    00000000000          00000000000000000000000000000000000000000000 000000000000000A000000000000000000000000000000000000000000000 000000000000000000000000000000000000000     00000000                                                                                                                        000000000000000000
F0010000006129700001000001022529300011050500000000000000000201408080002001ALBERTO ALVAREZ ISAZA                             D000000002300000000000000000000000100010010000000000000000000000F0010000006129700120140808000101 00000000000000000000000000000000000000000000000000000000000000000000000000000000000000000000000000000000000000000N 00000000000NCONT   00    00000000000          00000000000000000000000000000000000000000000 000000000000000A000000000000000000000000000000000000000000000 000000000000000000000000000000000000000     00000000                                                                                                                        000000000000000000
F0010000006129700002000001022529300041450500000000000000000201408080002001ALBERTO ALVAREZ ISAZA                             C000000002200000000000000000000000100010010000000000000000000000F0010000006129700220140808000101 00000000000000000000000000000000000000000000000000000000000000000000000000000000000000000000000000000000000000000N 00000000000NCONT   00    00000000000          00000000000000000000000000000000000000000000 000000000000000A000000000000000000000000000000000000000000000 000000000000000000000000000000000000000     00000000                                                                                                                        000000000000000000
F0010000006129700003000001022529300042505000000000000000000201408080002001ALBERTO ALVAREZ ISAZA                             C000000000100000000000000000000000100010010000000000000000000000F0010000006129700320140808000101 00000000000000000000000000000000000000000000000000000000000000000000000000000000000000000000000000000000000000000N 00000000000NCONT   00    00000000000          00000000000000000000000000000000000000000000 000000000000000A000000000000000000000000000000000000000000000 000000000000000000000000000000000000000     00000000                                                                                                                        000000000000000000
F0010000006129700004000001022529300023658300000000000000000201408080002001ALBERTO ALVAREZ ISAZA                             C000000000017600000000000000000000100010010000000000000000000000F0010000006129700420140808000101 00000000000000000000000000000000000000000000000000000000000000000000000000000000000000000000000000000000000000000N 00000000000NCONT   00    00000000000          00000000000000000000000000000000000000000000 000000000000000A000000000000000000000000000000000000000000000 000000000000000000000000000000000000000     00000000                                                                                                                        000000000000000000
F0010000006129700005000001022529300013552100000000000000000201408080002001ALBERTO ALVAREZ ISAZA                             D000000000017600000000000000000000100010010000000000000000000000F0010000006129700520140808000101 00000000000000000000000000000000000000000000000000000000000000000000000000000000000000000000000000000000000000000N 00000000000NCONT   00    00000000000          00000000000000000000000000000000000000000000 000000000000000A000000000000000000000000000000000000000000000 000000000000000000000000000000000000000     00000000                                                                                                                        000000000000000000
F0010000006129800001000004175790100011050500000000000000000201408080002001ROSIRIS FERIA HOYOS  (COSM. SHILLER)              D000000006600000000000000000000000100010010000000000000000000000F0010000006129800120140808000101 00000000000000000000000000000000000000000000000000000000000000000000000000000000000000000000000000000000000000000N 00000000000NCONT   00    00000000000          00000000000000000000000000000000000000000000 000000000000000A000000000000000000000000000000000000000000000 000000000000000000000000000000000000000     00000000                                                                                                                        000000000000000000
F0010000006129800002000004175790100041450500000000000000000201408080002001ROSIRIS FERIA HOYOS  (COSM. SHILLER)              C000000006000000000000000000000000100010010000000000000000000000F0010000006129800220140808000101 00000000000000000000000000000000000000000000000000000000000000000000000000000000000000000000000000000000000000000N 00000000000NCONT   00    00000000000          00000000000000000000000000000000000000000000 000000000000000A000000000000000000000000000000000000000000000 000000000000000000000000000000000000000     00000000                                                                                                                        000000000000000000
F0010000006129800003000004175790100042505000000000000000000201408080002001ROSIRIS FERIA HOYOS  (COSM. SHILLER)              C000000000600000000000000000000000100010010000000000000000000000F0010000006129800320140808000101 00000000000000000000000000000000000000000000000000000000000000000000000000000000000000000000000000000000000000000N 00000000000NCONT   00    00000000000          00000000000000000000000000000000000000000000 000000000000000A000000000000000000000000000000000000000000000 000000000000000000000000000000000000000     00000000                                                                                                                        000000000000000000
F0010000006129800004000004175790100023658300000000000000000201408080002001ROSIRIS FERIA HOYOS  (COSM. SHILLER)              C000000000048000000000000000000000100010010000000000000000000000F0010000006129800420140808000101 00000000000000000000000000000000000000000000000000000000000000000000000000000000000000000000000000000000000000000N 00000000000NCONT   00    00000000000          00000000000000000000000000000000000000000000 000000000000000A000000000000000000000000000000000000000000000 000000000000000000000000000000000000000     00000000                                                                                                                        000000000000000000
F0010000006129800005000004175790100013552100000000000000000201408080002001ROSIRIS FERIA HOYOS  (COSM. SHILLER)              D000000000048000000000000000000000100010010000000000000000000000F0010000006129800520140808000101 00000000000000000000000000000000000000000000000000000000000000000000000000000000000000000000000000000000000000000N 00000000000NCONT   00    00000000000          00000000000000000000000000000000000000000000 000000000000000A000000000000000000000000000000000000000000000 000000000000000000000000000000000000000     00000000                                                                                                                        000000000000000000
F0010000006129900001000004175790100011050500000000000000000201408080002001ROSIRIS FERIA HOYOS  (COSM. SHILLER)              D000000002000000000000000000000000100010010000000000000000000000F0010000006129900120140808000101 00000000000000000000000000000000000000000000000000000000000000000000000000000000000000000000000000000000000000000N 00000000000NCONT   00    00000000000          00000000000000000000000000000000000000000000 000000000000000A000000000000000000000000000000000000000000000 000000000000000000000000000000000000000     00000000                                                                                                                        000000000000000000
F0010000006129900002000004175790100041450500000000000000000201408080002001ROSIRIS FERIA HOYOS  (COSM. SHILLER)              C000000001900000000000000000000000100010010000000000000000000000F0010000006129900220140808000101 00000000000000000000000000000000000000000000000000000000000000000000000000000000000000000000000000000000000000000N 00000000000NCONT   00    00000000000          00000000000000000000000000000000000000000000 000000000000000A000000000000000000000000000000000000000000000 000000000000000000000000000000000000000     00000000                                                                                                                        000000000000000000
F0010000006129900003000004175790100042505000000000000000000201408080002001ROSIRIS FERIA HOYOS  (COSM. SHILLER)              C000000000100000000000000000000000100010010000000000000000000000F0010000006129900320140808000101 00000000000000000000000000000000000000000000000000000000000000000000000000000000000000000000000000000000000000000N 00000000000NCONT   00    00000000000          00000000000000000000000000000000000000000000 000000000000000A000000000000000000000000000000000000000000000 000000000000000000000000000000000000000     00000000                                                                                                                        000000000000000000
F0010000006129900004000004175790100023658300000000000000000201408080002001ROSIRIS FERIA HOYOS  (COSM. SHILLER)              C000000000015200000000000000000000100010010000000000000000000000F0010000006129900420140808000101 00000000000000000000000000000000000000000000000000000000000000000000000000000000000000000000000000000000000000000N 00000000000NCONT   00    00000000000          00000000000000000000000000000000000000000000 000000000000000A000000000000000000000000000000000000000000000 000000000000000000000000000000000000000     00000000                                                                                                                        000000000000000000
F0010000006129900005000004175790100013552100000000000000000201408080002001ROSIRIS FERIA HOYOS  (COSM. SHILLER)              D000000000015200000000000000000000100010010000000000000000000000F0010000006129900520140808000101 00000000000000000000000000000000000000000000000000000000000000000000000000000000000000000000000000000000000000000N 00000000000NCONT   00    00000000000          00000000000000000000000000000000000000000000 000000000000000A000000000000000000000000000000000000000000000 000000000000000000000000000000000000000     00000000                                                                                                                        000000000000000000
F0010000006130000001000090050144800011050500000000000000000201408080002001PLASTICOS JR ASOCIADOS SAS                        D000000003000000000000000000000000100010010000000000000000000000F0010000006130000120140808000101 00000000000000000000000000000000000000000000000000000000000000000000000000000000000000000000000000000000000000000N 00000000000NCONT   00    00000000000          00000000000000000000000000000000000000000000 000000000000000A000000000000000000000000000000000000000000000 000000000000000000000000000000000000000     00000000                                                                                                                        000000000000000000
F0010000006130000002000090050144800041450500000000000000000201408080002001PLASTICOS JR ASOCIADOS SAS                        C000000002600000000000000000000000100010010000000000000000000000F0010000006130000220140808000101 00000000000000000000000000000000000000000000000000000000000000000000000000000000000000000000000000000000000000000N 00000000000NCONT   00    00000000000          00000000000000000000000000000000000000000000 000000000000000A000000000000000000000000000000000000000000000 000000000000000000000000000000000000000     00000000                                                                                                                        000000000000000000
F0010000006130000003000090050144800042505000000000000000000201408080002001PLASTICOS JR ASOCIADOS SAS                        C000000000400000000000000000000000100010010000000000000000000000F0010000006130000320140808000101 00000000000000000000000000000000000000000000000000000000000000000000000000000000000000000000000000000000000000000N 00000000000NCONT   00    00000000000          00000000000000000000000000000000000000000000 000000000000000A000000000000000000000000000000000000000000000 000000000000000000000000000000000000000     00000000                                                                                                                        000000000000000000
F0010000006130000004000090050144800023658300000000000000000201408080002001PLASTICOS JR ASOCIADOS SAS                        C000000000020800000000000000000000100010010000000000000000000000F0010000006130000420140808000101 00000000000000000000000000000000000000000000000000000000000000000000000000000000000000000000000000000000000000000N 00000000000NCONT   00    00000000000          00000000000000000000000000000000000000000000 000000000000000A000000000000000000000000000000000000000000000 000000000000000000000000000000000000000     00000000                                                                                                                        000000000000000000
F0010000006130000005000090050144800013552100000000000000000201408080002001PLASTICOS JR ASOCIADOS SAS                        D000000000020800000000000000000000100010010000000000000000000000F0010000006130000520140808000101 00000000000000000000000000000000000000000000000000000000000000000000000000000000000000000000000000000000000000000N 00000000000NCONT   00    00000000000          00000000000000000000000000000000000000000000 000000000000000A000000000000000000000000000000000000000000000 000000000000000000000000000000000000000     00000000                                                                                                                        000000000000000000
F0010000006130100001000003314755400011050500000000000000000201408080002001RUMATEX DE COLOMBIA                               D000000001400000000000000000000000100010010000000000000000000000F0010000006130100120140808000101 00000000000000000000000000000000000000000000000000000000000000000000000000000000000000000000000000000000000000000N 00000000000NCONT   00    00000000000          00000000000000000000000000000000000000000000 000000000000000A000000000000000000000000000000000000000000000 000000000000000000000000000000000000000     00000000                                                                                                                        000000000000000000
F0010000006130100002000003314755400041450500000000000000000201408080002001RUMATEX DE COLOMBIA                               C000000000900000000000000000000000100010010000000000000000000000F0010000006130100220140808000101 00000000000000000000000000000000000000000000000000000000000000000000000000000000000000000000000000000000000000000N 00000000000NCONT   00    00000000000          00000000000000000000000000000000000000000000 000000000000000A000000000000000000000000000000000000000000000 000000000000000000000000000000000000000     00000000                                                                                                                        000000000000000000
F0010000006130100003000003314755400042505000000000000000000201408080002001RUMATEX DE COLOMBIA                               C000000000500000000000000000000000100010010000000000000000000000F0010000006130100320140808000101 00000000000000000000000000000000000000000000000000000000000000000000000000000000000000000000000000000000000000000N 00000000000NCONT   00    00000000000          00000000000000000000000000000000000000000000 000000000000000A000000000000000000000000000000000000000000000 000000000000000000000000000000000000000     00000000                                                                                                                        000000000000000000
F0010000006130100004000003314755400023658300000000000000000201408080002001RUMATEX DE COLOMBIA                               C000000000007200000000000000000000100010010000000000000000000000F0010000006130100420140808000101 00000000000000000000000000000000000000000000000000000000000000000000000000000000000000000000000000000000000000000N 00000000000NCONT   00    00000000000          00000000000000000000000000000000000000000000 000000000000000A000000000000000000000000000000000000000000000 000000000000000000000000000000000000000     00000000                                                                                                                        000000000000000000
F0010000006130100005000003314755400013552100000000000000000201408080002001RUMATEX DE COLOMBIA                               D000000000007200000000000000000000100010010000000000000000000000F0010000006130100520140808000101 00000000000000000000000000000000000000000000000000000000000000000000000000000000000000000000000000000000000000000N 00000000000NCONT   00    00000000000          00000000000000000000000000000000000000000000 000000000000000A000000000000000000000000000000000000000000000 000000000000000000000000000000000000000     00000000                                                                                                                        000000000000000000
F0010000006130200001000003314755400011050500000000000000000201408080002001DISTRIBUCIONES RUMA                               D000000001400000000000000000000000100010010000000000000000000000F0010000006130200120140808000101 00000000000000000000000000000000000000000000000000000000000000000000000000000000000000000000000000000000000000000N 00000000000NCONT   00    00000000000          00000000000000000000000000000000000000000000 000000000000000A000000000000000000000000000000000000000000000 000000000000000000000000000000000000000     00000000                                                                                                                        000000000000000000
F0010000006130200002000003314755400041450500000000000000000201408080002001DISTRIBUCIONES RUMA                               C000000001200000000000000000000000100010010000000000000000000000F0010000006130200220140808000101 00000000000000000000000000000000000000000000000000000000000000000000000000000000000000000000000000000000000000000N 00000000000NCONT   00    00000000000          00000000000000000000000000000000000000000000 000000000000000A000000000000000000000000000000000000000000000 000000000000000000000000000000000000000     00000000                                                                                                                        000000000000000000
F0010000006130200003000003314755400042505000000000000000000201408080002001DISTRIBUCIONES RUMA                               C000000000200000000000000000000000100010010000000000000000000000F0010000006130200320140808000101 00000000000000000000000000000000000000000000000000000000000000000000000000000000000000000000000000000000000000000N 00000000000NCONT   00    00000000000          00000000000000000000000000000000000000000000 000000000000000A000000000000000000000000000000000000000000000 000000000000000000000000000000000000000     00000000                                                                                                                        000000000000000000
F0010000006130200004000003314755400023658300000000000000000201408080002001DISTRIBUCIONES RUMA                               C000000000009600000000000000000000100010010000000000000000000000F0010000006130200420140808000101 00000000000000000000000000000000000000000000000000000000000000000000000000000000000000000000000000000000000000000N 00000000000NCONT   00    00000000000          00000000000000000000000000000000000000000000 000000000000000A000000000000000000000000000000000000000000000 000000000000000000000000000000000000000     00000000                                                                                                                        000000000000000000
F0010000006130200005000003314755400013552100000000000000000201408080002001DISTRIBUCIONES RUMA                               D000000000009600000000000000000000100010010000000000000000000000F0010000006130200520140808000101 00000000000000000000000000000000000000000000000000000000000000000000000000000000000000000000000000000000000000000N 00000000000NCONT   00    00000000000          00000000000000000000000000000000000000000000 000000000000000A000000000000000000000000000000000000000000000 000000000000000000000000000000000000000     00000000                                                                                                                        000000000000000000
F0010000006130300001000000871573200011050500000000000000000201408080002001ACCESORIAS ARQUITECTONI KJ                        D000000002100000000000000000000000100010010000000000000000000000F0010000006130300120140808000101 00000000000000000000000000000000000000000000000000000000000000000000000000000000000000000000000000000000000000000N 00000000000NCONT   00    00000000000          00000000000000000000000000000000000000000000 000000000000000A000000000000000000000000000000000000000000000 000000000000000000000000000000000000000     00000000                                                                                                                        000000000000000000
F0010000006130300002000000871573200041450500000000000000000201408080002001ACCESORIAS ARQUITECTONI KJ                        C000000001200000000000000000000000100010010000000000000000000000F0010000006130300220140808000101 00000000000000000000000000000000000000000000000000000000000000000000000000000000000000000000000000000000000000000N 00000000000NCONT   00    00000000000          00000000000000000000000000000000000000000000 000000000000000A000000000000000000000000000000000000000000000 000000000000000000000000000000000000000     00000000                                                                                                                        000000000000000000
F0010000006130300003000000871573200042505000000000000000000201408080002001ACCESORIAS ARQUITECTONI KJ                        C000000000900000000000000000000000100010010000000000000000000000F0010000006130300320140808000101 00000000000000000000000000000000000000000000000000000000000000000000000000000000000000000000000000000000000000000N 00000000000NCONT   00    00000000000          00000000000000000000000000000000000000000000 000000000000000A000000000000000000000000000000000000000000000 000000000000000000000000000000000000000     00000000                                                                                                                        000000000000000000
F0010000006130300004000000871573200023658300000000000000000201408080002001ACCESORIAS ARQUITECTONI KJ                        C000000000009600000000000000000000100010010000000000000000000000F0010000006130300420140808000101 00000000000000000000000000000000000000000000000000000000000000000000000000000000000000000000000000000000000000000N 00000000000NCONT   00    00000000000          00000000000000000000000000000000000000000000 000000000000000A000000000000000000000000000000000000000000000 000000000000000000000000000000000000000     00000000                                                                                                                        000000000000000000
F0010000006130300005000000871573200013552100000000000000000201408080002001ACCESORIAS ARQUITECTONI KJ                        D000000000009600000000000000000000100010010000000000000000000000F0010000006130300520140808000101 00000000000000000000000000000000000000000000000000000000000000000000000000000000000000000000000000000000000000000N 00000000000NCONT   00    00000000000          00000000000000000000000000000000000000000000 000000000000000A000000000000000000000000000000000000000000000 000000000000000000000000000000000000000     00000000                                                                                                                        000000000000000000
F0010000006130400001000000871573200011050500000000000000000201408080002001ACCESORIAS ARQUITECTONI KJ                        D000000005000000000000000000000000100010010000000000000000000000F0010000006130400120140808000101 00000000000000000000000000000000000000000000000000000000000000000000000000000000000000000000000000000000000000000N 00000000000NCONT   00    00000000000          00000000000000000000000000000000000000000000 000000000000000A000000000000000000000000000000000000000000000 000000000000000000000000000000000000000     00000000                                                                                                                        000000000000000000
F0010000006130400002000000871573200041450500000000000000000201408080002001ACCESORIAS ARQUITECTONI KJ                        C000000002500000000000000000000000100010010000000000000000000000F0010000006130400220140808000101 00000000000000000000000000000000000000000000000000000000000000000000000000000000000000000000000000000000000000000N 00000000000NCONT   00    00000000000          00000000000000000000000000000000000000000000 000000000000000A000000000000000000000000000000000000000000000 000000000000000000000000000000000000000     00000000                                                                                                                        000000000000000000
F0010000006130400003000000871573200042505000000000000000000201408080002001ACCESORIAS ARQUITECTONI KJ                        C000000002500000000000000000000000100010010000000000000000000000F0010000006130400320140808000101 00000000000000000000000000000000000000000000000000000000000000000000000000000000000000000000000000000000000000000N 00000000000NCONT   00    00000000000          00000000000000000000000000000000000000000000 000000000000000A000000000000000000000000000000000000000000000 000000000000000000000000000000000000000     00000000                                                                                                                        000000000000000000
F0010000006130400004000000871573200023658300000000000000000201408080002001ACCESORIAS ARQUITECTONI KJ                        C000000000020000000000000000000000100010010000000000000000000000F0010000006130400420140808000101 00000000000000000000000000000000000000000000000000000000000000000000000000000000000000000000000000000000000000000N 00000000000NCONT   00    00000000000          00000000000000000000000000000000000000000000 000000000000000A000000000000000000000000000000000000000000000 000000000000000000000000000000000000000     00000000                                                                                                                        000000000000000000
F0010000006130400005000000871573200013552100000000000000000201408080002001ACCESORIAS ARQUITECTONI KJ                        D000000000020000000000000000000000100010010000000000000000000000F0010000006130400520140808000101 00000000000000000000000000000000000000000000000000000000000000000000000000000000000000000000000000000000000000000N 00000000000NCONT   00    00000000000          00000000000000000000000000000000000000000000 000000000000000A000000000000000000000000000000000000000000000 000000000000000000000000000000000000000     00000000                                                                                                                        000000000000000000
F0010000006130500001000000871573200011050500000000000000000201408080002001ACCESORIAS ARQUITECTONI KJ                        D000000003000000000000000000000000100010010000000000000000000000F0010000006130500120140808000101 00000000000000000000000000000000000000000000000000000000000000000000000000000000000000000000000000000000000000000N 00000000000NCONT   00    00000000000          00000000000000000000000000000000000000000000 000000000000000A000000000000000000000000000000000000000000000 000000000000000000000000000000000000000     00000000                                                                                                                        000000000000000000
F0010000006130500002000000871573200041450500000000000000000201408080002001ACCESORIAS ARQUITECTONI KJ                        C000000002400000000000000000000000100010010000000000000000000000F0010000006130500220140808000101 00000000000000000000000000000000000000000000000000000000000000000000000000000000000000000000000000000000000000000N 00000000000NCONT   00    00000000000          00000000000000000000000000000000000000000000 000000000000000A000000000000000000000000000000000000000000000 000000000000000000000000000000000000000     00000000                                                                                                                        000000000000000000
F0010000006130500003000000871573200042505000000000000000000201408080002001ACCESORIAS ARQUITECTONI KJ                        C000000000600000000000000000000000100010010000000000000000000000F0010000006130500320140808000101 00000000000000000000000000000000000000000000000000000000000000000000000000000000000000000000000000000000000000000N 00000000000NCONT   00    00000000000          00000000000000000000000000000000000000000000 000000000000000A000000000000000000000000000000000000000000000 000000000000000000000000000000000000000     00000000                                                                                                                        000000000000000000
F0010000006130500004000000871573200023658300000000000000000201408080002001ACCESORIAS ARQUITECTONI KJ                        C000000000019200000000000000000000100010010000000000000000000000F0010000006130500420140808000101 00000000000000000000000000000000000000000000000000000000000000000000000000000000000000000000000000000000000000000N 00000000000NCONT   00    00000000000          00000000000000000000000000000000000000000000 000000000000000A000000000000000000000000000000000000000000000 000000000000000000000000000000000000000     00000000                                                                                                                        000000000000000000
F0010000006130500005000000871573200013552100000000000000000201408080002001ACCESORIAS ARQUITECTONI KJ                        D000000000019200000000000000000000100010010000000000000000000000F0010000006130500520140808000101 00000000000000000000000000000000000000000000000000000000000000000000000000000000000000000000000000000000000000000N 00000000000NCONT   00    00000000000          00000000000000000000000000000000000000000000 000000000000000A000000000000000000000000000000000000000000000 000000000000000000000000000000000000000     00000000                                                                                                                        000000000000000000
F0010000006130600001000007223972300011050500000000000000000201408080002001LUIS VALENCIA                                     D000000001900000000000000000000000100010010000000000000000000000F0010000006130600120140808000101 00000000000000000000000000000000000000000000000000000000000000000000000000000000000000000000000000000000000000000N 00000000000NCONT   00    00000000000          00000000000000000000000000000000000000000000 000000000000000A000000000000000000000000000000000000000000000 000000000000000000000000000000000000000     00000000                                                                                                                        000000000000000000
F0010000006130600002000007223972300041450500000000000000000201408080002001LUIS VALENCIA                                     C000000001800000000000000000000000100010010000000000000000000000F0010000006130600220140808000101 00000000000000000000000000000000000000000000000000000000000000000000000000000000000000000000000000000000000000000N 00000000000NCONT   00    00000000000          00000000000000000000000000000000000000000000 000000000000000A000000000000000000000000000000000000000000000 000000000000000000000000000000000000000     00000000                                                                                                                        000000000000000000
F0010000006130600003000007223972300042505000000000000000000201408080002001LUIS VALENCIA                                     C000000000100000000000000000000000100010010000000000000000000000F0010000006130600320140808000101 00000000000000000000000000000000000000000000000000000000000000000000000000000000000000000000000000000000000000000N 00000000000NCONT   00    00000000000          00000000000000000000000000000000000000000000 000000000000000A000000000000000000000000000000000000000000000 000000000000000000000000000000000000000     00000000                                                                                                                        000000000000000000
F0010000006130600004000007223972300023658300000000000000000201408080002001LUIS VALENCIA                                     C000000000014400000000000000000000100010010000000000000000000000F0010000006130600420140808000101 00000000000000000000000000000000000000000000000000000000000000000000000000000000000000000000000000000000000000000N 00000000000NCONT   00    00000000000          00000000000000000000000000000000000000000000 000000000000000A000000000000000000000000000000000000000000000 000000000000000000000000000000000000000     00000000                                                                                                                        000000000000000000
F0010000006130600005000007223972300013552100000000000000000201408080002001LUIS VALENCIA                                     D000000000014400000000000000000000100010010000000000000000000000F0010000006130600520140808000101 00000000000000000000000000000000000000000000000000000000000000000000000000000000000000000000000000000000000000000N 00000000000NCONT   00    00000000000          00000000000000000000000000000000000000000000 000000000000000A000000000000000000000000000000000000000000000 000000000000000000000000000000000000000     00000000                                                                                                                        000000000000000000
F0010000006130700001000007223972300011050500000000000000000201408080002001LUIS VALENCIA                                     D000000001000000000000000000000000100010010000000000000000000000F0010000006130700120140808000101 00000000000000000000000000000000000000000000000000000000000000000000000000000000000000000000000000000000000000000N 00000000000NCONT   00    00000000000          00000000000000000000000000000000000000000000 000000000000000A000000000000000000000000000000000000000000000 000000000000000000000000000000000000000     00000000                                                                                                                        000000000000000000
F0010000006130700002000007223972300041450500000000000000000201408080002001LUIS VALENCIA                                     C000000000900000000000000000000000100010010000000000000000000000F0010000006130700220140808000101 00000000000000000000000000000000000000000000000000000000000000000000000000000000000000000000000000000000000000000N 00000000000NCONT   00    00000000000          00000000000000000000000000000000000000000000 000000000000000A000000000000000000000000000000000000000000000 000000000000000000000000000000000000000     00000000                                                                                                                        000000000000000000
F0010000006130700003000007223972300042505000000000000000000201408080002001LUIS VALENCIA                                     C000000000100000000000000000000000100010010000000000000000000000F0010000006130700320140808000101 00000000000000000000000000000000000000000000000000000000000000000000000000000000000000000000000000000000000000000N 00000000000NCONT   00    00000000000          00000000000000000000000000000000000000000000 000000000000000A000000000000000000000000000000000000000000000 000000000000000000000000000000000000000     00000000                                                                                                                        000000000000000000
F0010000006130700004000007223972300023658300000000000000000201408080002001LUIS VALENCIA                                     C000000000007200000000000000000000100010010000000000000000000000F0010000006130700420140808000101 00000000000000000000000000000000000000000000000000000000000000000000000000000000000000000000000000000000000000000N 00000000000NCONT   00    00000000000          00000000000000000000000000000000000000000000 000000000000000A000000000000000000000000000000000000000000000 000000000000000000000000000000000000000     00000000                                                                                                                        000000000000000000
F0010000006130700005000007223972300013552100000000000000000201408080002001LUIS VALENCIA                                     D000000000007200000000000000000000100010010000000000000000000000F0010000006130700520140808000101 00000000000000000000000000000000000000000000000000000000000000000000000000000000000000000000000000000000000000000N 00000000000NCONT   00    00000000000          00000000000000000000000000000000000000000000 000000000000000A000000000000000000000000000000000000000000000 000000000000000000000000000000000000000     00000000                                                                                                                        000000000000000000
F0010000006130800001000080201703900011050500000000000000000201408080002001MUNDIAL CHEMICAL LTDA                             D000000001800000000000000000000000100010010000000000000000000000F0010000006130800120140808000101 00000000000000000000000000000000000000000000000000000000000000000000000000000000000000000000000000000000000000000N 00000000000NCONT   00    00000000000          00000000000000000000000000000000000000000000 000000000000000A000000000000000000000000000000000000000000000 000000000000000000000000000000000000000     00000000                                                                                                                        000000000000000000
F0010000006130800002000080201703900041450500000000000000000201408080002001MUNDIAL CHEMICAL LTDA                             C000000001660000000000000000000000100010010000000000000000000000F0010000006130800220140808000101 00000000000000000000000000000000000000000000000000000000000000000000000000000000000000000000000000000000000000000N 00000000000NCONT   00    00000000000          00000000000000000000000000000000000000000000 000000000000000A000000000000000000000000000000000000000000000 000000000000000000000000000000000000000     00000000                                                                                                                        000000000000000000
F0010000006130800003000080201703900042505000000000000000000201408080002001MUNDIAL CHEMICAL LTDA                             C000000000140000000000000000000000100010010000000000000000000000F0010000006130800320140808000101 00000000000000000000000000000000000000000000000000000000000000000000000000000000000000000000000000000000000000000N 00000000000NCONT   00    00000000000          00000000000000000000000000000000000000000000 000000000000000A000000000000000000000000000000000000000000000 000000000000000000000000000000000000000     00000000                                                                                                                        000000000000000000
F0010000006130800004000080201703900023658300000000000000000201408080002001MUNDIAL CHEMICAL LTDA                             C000000000013300000000000000000000100010010000000000000000000000F0010000006130800420140808000101 00000000000000000000000000000000000000000000000000000000000000000000000000000000000000000000000000000000000000000N 00000000000NCONT   00    00000000000          00000000000000000000000000000000000000000000 000000000000000A000000000000000000000000000000000000000000000 000000000000000000000000000000000000000     00000000                                                                                                                        000000000000000000
F0010000006130800005000080201703900013552100000000000000000201408080002001MUNDIAL CHEMICAL LTDA                             D000000000013300000000000000000000100010010000000000000000000000F0010000006130800520140808000101 00000000000000000000000000000000000000000000000000000000000000000000000000000000000000000000000000000000000000000N 00000000000NCONT   00    00000000000          00000000000000000000000000000000000000000000 000000000000000A000000000000000000000000000000000000000000000 000000000000000000000000000000000000000     00000000                                                                                                                        000000000000000000
F0010000006130900001000003262315300011050500000000000000000201408080002001CACHARRERIA LA PROPIA JICHA                       D000000002000000000000000000000000100010010000000000000000000000F0010000006130900120140808000101 00000000000000000000000000000000000000000000000000000000000000000000000000000000000000000000000000000000000000000N 00000000000NCONT   00    00000000000          00000000000000000000000000000000000000000000 000000000000000A000000000000000000000000000000000000000000000 000000000000000000000000000000000000000     00000000                                                                                                                        000000000000000000
F0010000006130900002000003262315300041450500000000000000000201408080002001CACHARRERIA LA PROPIA JICHA                       C000000001800000000000000000000000100010010000000000000000000000F0010000006130900220140808000101 00000000000000000000000000000000000000000000000000000000000000000000000000000000000000000000000000000000000000000N 00000000000NCONT   00    00000000000          00000000000000000000000000000000000000000000 000000000000000A000000000000000000000000000000000000000000000 000000000000000000000000000000000000000     00000000                                                                                                                        000000000000000000
F0010000006130900003000003262315300042505000000000000000000201408080002001CACHARRERIA LA PROPIA JICHA                       C000000000200000000000000000000000100010010000000000000000000000F0010000006130900320140808000101 00000000000000000000000000000000000000000000000000000000000000000000000000000000000000000000000000000000000000000N 00000000000NCONT   00    00000000000          00000000000000000000000000000000000000000000 000000000000000A000000000000000000000000000000000000000000000 000000000000000000000000000000000000000     00000000                                                                                                                        000000000000000000
F0010000006130900004000003262315300023658300000000000000000201408080002001CACHARRERIA LA PROPIA JICHA                       C000000000014400000000000000000000100010010000000000000000000000F0010000006130900420140808000101 00000000000000000000000000000000000000000000000000000000000000000000000000000000000000000000000000000000000000000N 00000000000NCONT   00    00000000000          00000000000000000000000000000000000000000000 000000000000000A000000000000000000000000000000000000000000000 000000000000000000000000000000000000000     00000000                                                                                                                        000000000000000000
F0010000006130900005000003262315300013552100000000000000000201408080002001CACHARRERIA LA PROPIA JICHA                       D000000000014400000000000000000000100010010000000000000000000000F0010000006130900520140808000101 00000000000000000000000000000000000000000000000000000000000000000000000000000000000000000000000000000000000000000N 00000000000NCONT   00    00000000000          00000000000000000000000000000000000000000000 000000000000000A000000000000000000000000000000000000000000000 000000000000000000000000000000000000000     00000000                                                                                                                        000000000000000000
F0010000006131000001000080202350700011050500000000000000000201408080002001CONNY DE LA COSTA SAS                             D000000001000000000000000000000000100010010000000000000000000000F0010000006131000120140808000101 00000000000000000000000000000000000000000000000000000000000000000000000000000000000000000000000000000000000000000N 00000000000NCONT   00    00000000000          00000000000000000000000000000000000000000000 000000000000000A000000000000000000000000000000000000000000000 000000000000000000000000000000000000000     00000000                                                                                                                        000000000000000000
F0010000006131000002000080202350700041450500000000000000000201408080002001CONNY DE LA COSTA SAS                             C000000000800000000000000000000000100010010000000000000000000000F0010000006131000220140808000101 00000000000000000000000000000000000000000000000000000000000000000000000000000000000000000000000000000000000000000N 00000000000NCONT   00    00000000000          00000000000000000000000000000000000000000000 000000000000000A000000000000000000000000000000000000000000000 000000000000000000000000000000000000000     00000000                                                                                                                        000000000000000000
F0010000006131000003000080202350700042505000000000000000000201408080002001CONNY DE LA COSTA SAS                             C000000000200000000000000000000000100010010000000000000000000000F0010000006131000320140808000101 00000000000000000000000000000000000000000000000000000000000000000000000000000000000000000000000000000000000000000N 00000000000NCONT   00    00000000000          00000000000000000000000000000000000000000000 000000000000000A000000000000000000000000000000000000000000000 000000000000000000000000000000000000000     00000000                                                                                                                        000000000000000000
F0010000006131000004000080202350700023658300000000000000000201408080002001CONNY DE LA COSTA SAS                             C000000000006400000000000000000000100010010000000000000000000000F0010000006131000420140808000101 00000000000000000000000000000000000000000000000000000000000000000000000000000000000000000000000000000000000000000N 00000000000NCONT   00    00000000000          00000000000000000000000000000000000000000000 000000000000000A000000000000000000000000000000000000000000000 000000000000000000000000000000000000000     00000000                                                                                                                        000000000000000000
F0010000006131000005000080202350700013552100000000000000000201408080002001CONNY DE LA COSTA SAS                             D000000000006400000000000000000000100010010000000000000000000000F0010000006131000520140808000101 00000000000000000000000000000000000000000000000000000000000000000000000000000000000000000000000000000000000000000N 00000000000NCONT   00    00000000000          00000000000000000000000000000000000000000000 000000000000000A000000000000000000000000000000000000000000000 000000000000000000000000000000000000000     00000000                                                                                                                        000000000000000000
F0010000006131100001000080202435000011050500000000000000000201408080002001DISTRIBUIDORA MACEA SAS                           D000000007780000000000000000000000100010010000000000000000000000F0010000006131100120140808000101 00000000000000000000000000000000000000000000000000000000000000000000000000000000000000000000000000000000000000000N 00000000000NCONT   00    00000000000          00000000000000000000000000000000000000000000 000000000000000A000000000000000000000000000000000000000000000 000000000000000000000000000000000000000     00000000                                                                                                                        000000000000000000
F0010000006131100002000080202435000041450500000000000000000201408080002001DISTRIBUIDORA MACEA SAS                           C000000004500000000000000000000000100010010000000000000000000000F0010000006131100220140808000101 00000000000000000000000000000000000000000000000000000000000000000000000000000000000000000000000000000000000000000N 00000000000NCONT   00    00000000000          00000000000000000000000000000000000000000000 000000000000000A000000000000000000000000000000000000000000000 000000000000000000000000000000000000000     00000000                                                                                                                        000000000000000000
F0010000006131100003000080202435000042505000000000000000000201408080002001DISTRIBUIDORA MACEA SAS                           C000000003280000000000000000000000100010010000000000000000000000F0010000006131100320140808000101 00000000000000000000000000000000000000000000000000000000000000000000000000000000000000000000000000000000000000000N 00000000000NCONT   00    00000000000          00000000000000000000000000000000000000000000 000000000000000A000000000000000000000000000000000000000000000 000000000000000000000000000000000000000     00000000                                                                                                                        000000000000000000
F0010000006131100004000080202435000023658300000000000000000201408080002001DISTRIBUIDORA MACEA SAS                           C000000000036000000000000000000000100010010000000000000000000000F0010000006131100420140808000101 00000000000000000000000000000000000000000000000000000000000000000000000000000000000000000000000000000000000000000N 00000000000NCONT   00    00000000000          00000000000000000000000000000000000000000000 000000000000000A000000000000000000000000000000000000000000000 000000000000000000000000000000000000000     00000000                                                                                                                        000000000000000000
F0010000006131100005000080202435000013552100000000000000000201408080002001DISTRIBUIDORA MACEA SAS                           D000000000036000000000000000000000100010010000000000000000000000F0010000006131100520140808000101 00000000000000000000000000000000000000000000000000000000000000000000000000000000000000000000000000000000000000000N 00000000000NCONT   00    00000000000          00000000000000000000000000000000000000000000 000000000000000A000000000000000000000000000000000000000000000 000000000000000000000000000000000000000     00000000                                                                                                                        000000000000000000
F0010000006131200001000080202350700011050500000000000000000201408080002001CONNY DE LA COSTA SAS                             D000000003900000000000000000000000100010010000000000000000000000F0010000006131200120140808000101 00000000000000000000000000000000000000000000000000000000000000000000000000000000000000000000000000000000000000000N 00000000000NCONT   00    00000000000          00000000000000000000000000000000000000000000 000000000000000A000000000000000000000000000000000000000000000 000000000000000000000000000000000000000     00000000                                                                                                                        000000000000000000
F0010000006131200002000080202350700041450500000000000000000201408080002001CONNY DE LA COSTA SAS                             C000000002400000000000000000000000100010010000000000000000000000F0010000006131200220140808000101 00000000000000000000000000000000000000000000000000000000000000000000000000000000000000000000000000000000000000000N 00000000000NCONT   00    00000000000          00000000000000000000000000000000000000000000 000000000000000A000000000000000000000000000000000000000000000 000000000000000000000000000000000000000     00000000                                                                                                                        000000000000000000
F0010000006131200003000080202350700042505000000000000000000201408080002001CONNY DE LA COSTA SAS                             C000000001500000000000000000000000100010010000000000000000000000F0010000006131200320140808000101 00000000000000000000000000000000000000000000000000000000000000000000000000000000000000000000000000000000000000000N 00000000000NCONT   00    00000000000          00000000000000000000000000000000000000000000 000000000000000A000000000000000000000000000000000000000000000 000000000000000000000000000000000000000     00000000                                                                                                                        000000000000000000
F0010000006131200004000080202350700023658300000000000000000201408080002001CONNY DE LA COSTA SAS                             C000000000019200000000000000000000100010010000000000000000000000F0010000006131200420140808000101 00000000000000000000000000000000000000000000000000000000000000000000000000000000000000000000000000000000000000000N 00000000000NCONT   00    00000000000          00000000000000000000000000000000000000000000 000000000000000A000000000000000000000000000000000000000000000 000000000000000000000000000000000000000     00000000                                                                                                                        000000000000000000
F0010000006131200005000080202350700013552100000000000000000201408080002001CONNY DE LA COSTA SAS                             D000000000019200000000000000000000100010010000000000000000000000F0010000006131200520140808000101 00000000000000000000000000000000000000000000000000000000000000000000000000000000000000000000000000000000000000000N 00000000000NCONT   00    00000000000          00000000000000000000000000000000000000000000 000000000000000A000000000000000000000000000000000000000000000 000000000000000000000000000000000000000     00000000                                                                                                                        000000000000000000
F0010000006131300001000001719393900011050500000000000000000201408080002001JAIRO BASTIDAS RAMIREZ                            D000000002400000000000000000000000100010010000000000000000000000F0010000006131300120140808000101 00000000000000000000000000000000000000000000000000000000000000000000000000000000000000000000000000000000000000000N 00000000000NCONT   00    00000000000          00000000000000000000000000000000000000000000 000000000000000A000000000000000000000000000000000000000000000 000000000000000000000000000000000000000     00000000                                                                                                                        000000000000000000
F0010000006131300002000001719393900041450500000000000000000201408080002001JAIRO BASTIDAS RAMIREZ                            C000000001800000000000000000000000100010010000000000000000000000F0010000006131300220140808000101 00000000000000000000000000000000000000000000000000000000000000000000000000000000000000000000000000000000000000000N 00000000000NCONT   00    00000000000          00000000000000000000000000000000000000000000 000000000000000A000000000000000000000000000000000000000000000 000000000000000000000000000000000000000     00000000                                                                                                                        000000000000000000
F0010000006131300003000001719393900042505000000000000000000201408080002001JAIRO BASTIDAS RAMIREZ                            C000000000600000000000000000000000100010010000000000000000000000F0010000006131300320140808000101 00000000000000000000000000000000000000000000000000000000000000000000000000000000000000000000000000000000000000000N 00000000000NCONT   00    00000000000          00000000000000000000000000000000000000000000 000000000000000A000000000000000000000000000000000000000000000 000000000000000000000000000000000000000     00000000                                                                                                                        000000000000000000
F0010000006131300004000001719393900023658300000000000000000201408080002001JAIRO BASTIDAS RAMIREZ                            C000000000014400000000000000000000100010010000000000000000000000F0010000006131300420140808000101 00000000000000000000000000000000000000000000000000000000000000000000000000000000000000000000000000000000000000000N 00000000000NCONT   00    00000000000          00000000000000000000000000000000000000000000 000000000000000A000000000000000000000000000000000000000000000 000000000000000000000000000000000000000     00000000                                                                                                                        000000000000000000
F0010000006131300005000001719393900013552100000000000000000201408080002001JAIRO BASTIDAS RAMIREZ                            D000000000014400000000000000000000100010010000000000000000000000F0010000006131300520140808000101 00000000000000000000000000000000000000000000000000000000000000000000000000000000000000000000000000000000000000000N 00000000000NCONT   00    00000000000          00000000000000000000000000000000000000000000 000000000000000A000000000000000000000000000000000000000000000 000000000000000000000000000000000000000     00000000                                                                                                                        000000000000000000
F0010000006131400001000001719393900011050500000000000000000201408080002001JAIRO BASTIDAS RAMIREZ                            D000000001500000000000000000000000100010010000000000000000000000F0010000006131400120140808000101 00000000000000000000000000000000000000000000000000000000000000000000000000000000000000000000000000000000000000000N 00000000000NCONT   00    00000000000          00000000000000000000000000000000000000000000 000000000000000A000000000000000000000000000000000000000000000 000000000000000000000000000000000000000     00000000                                                                                                                        000000000000000000
F0010000006131400002000001719393900041450500000000000000000201408080002001JAIRO BASTIDAS RAMIREZ                            C000000001200000000000000000000000100010010000000000000000000000F0010000006131400220140808000101 00000000000000000000000000000000000000000000000000000000000000000000000000000000000000000000000000000000000000000N 00000000000NCONT   00    00000000000          00000000000000000000000000000000000000000000 000000000000000A000000000000000000000000000000000000000000000 000000000000000000000000000000000000000     00000000                                                                                                                        000000000000000000
F0010000006131400003000001719393900042505000000000000000000201408080002001JAIRO BASTIDAS RAMIREZ                            C000000000300000000000000000000000100010010000000000000000000000F0010000006131400320140808000101 00000000000000000000000000000000000000000000000000000000000000000000000000000000000000000000000000000000000000000N 00000000000NCONT   00    00000000000          00000000000000000000000000000000000000000000 000000000000000A000000000000000000000000000000000000000000000 000000000000000000000000000000000000000     00000000                                                                                                                        000000000000000000
F0010000006131400004000001719393900023658300000000000000000201408080002001JAIRO BASTIDAS RAMIREZ                            C000000000009600000000000000000000100010010000000000000000000000F0010000006131400420140808000101 00000000000000000000000000000000000000000000000000000000000000000000000000000000000000000000000000000000000000000N 00000000000NCONT   00    00000000000          00000000000000000000000000000000000000000000 000000000000000A000000000000000000000000000000000000000000000 000000000000000000000000000000000000000     00000000                                                                                                                        000000000000000000
F0010000006131400005000001719393900013552100000000000000000201408080002001JAIRO BASTIDAS RAMIREZ                            D000000000009600000000000000000000100010010000000000000000000000F0010000006131400520140808000101 00000000000000000000000000000000000000000000000000000000000000000000000000000000000000000000000000000000000000000N 00000000000NCONT   00    00000000000          00000000000000000000000000000000000000000000 000000000000000A000000000000000000000000000000000000000000000 000000000000000000000000000000000000000     00000000                                                                                                                        000000000000000000
F0010000006131500001000001022529300011050500000000000000000201408080002001ALBERTO ALVAREZ ISAZA                             D000000002750000000000000000000000100010010000000000000000000000F0010000006131500120140808000101 00000000000000000000000000000000000000000000000000000000000000000000000000000000000000000000000000000000000000000N 00000000000NCONT   00    00000000000          00000000000000000000000000000000000000000000 000000000000000A000000000000000000000000000000000000000000000 000000000000000000000000000000000000000     00000000                                                                                                                        000000000000000000
F0010000006131500002000001022529300041450500000000000000000201408080002001ALBERTO ALVAREZ ISAZA                             C000000002600000000000000000000000100010010000000000000000000000F0010000006131500220140808000101 00000000000000000000000000000000000000000000000000000000000000000000000000000000000000000000000000000000000000000N 00000000000NCONT   00    00000000000          00000000000000000000000000000000000000000000 000000000000000A000000000000000000000000000000000000000000000 000000000000000000000000000000000000000     00000000                                                                                                                        000000000000000000
F0010000006131500003000001022529300042505000000000000000000201408080002001ALBERTO ALVAREZ ISAZA                             C000000000150000000000000000000000100010010000000000000000000000F0010000006131500320140808000101 00000000000000000000000000000000000000000000000000000000000000000000000000000000000000000000000000000000000000000N 00000000000NCONT   00    00000000000          00000000000000000000000000000000000000000000 000000000000000A000000000000000000000000000000000000000000000 000000000000000000000000000000000000000     00000000                                                                                                                        000000000000000000
F0010000006131500004000001022529300023658300000000000000000201408080002001ALBERTO ALVAREZ ISAZA                             C000000000020800000000000000000000100010010000000000000000000000F0010000006131500420140808000101 00000000000000000000000000000000000000000000000000000000000000000000000000000000000000000000000000000000000000000N 00000000000NCONT   00    00000000000          00000000000000000000000000000000000000000000 000000000000000A000000000000000000000000000000000000000000000 000000000000000000000000000000000000000     00000000                                                                                                                        000000000000000000
F0010000006131500005000001022529300013552100000000000000000201408080002001ALBERTO ALVAREZ ISAZA                             D000000000020800000000000000000000100010010000000000000000000000F0010000006131500520140808000101 00000000000000000000000000000000000000000000000000000000000000000000000000000000000000000000000000000000000000000N 00000000000NCONT   00    00000000000          00000000000000000000000000000000000000000000 000000000000000A000000000000000000000000000000000000000000000 000000000000000000000000000000000000000     00000000                                                                                                                        000000000000000000
F0010000006131600001000000431178400011050500000000000000000201408080002001EFRAIN ALVAREZ                                    D000000001300000000000000000000000100010010000000000000000000000F0010000006131600120140808000101 00000000000000000000000000000000000000000000000000000000000000000000000000000000000000000000000000000000000000000N 00000000000NCONT   00    00000000000          00000000000000000000000000000000000000000000 000000000000000A000000000000000000000000000000000000000000000 000000000000000000000000000000000000000     00000000                                                                                                                        000000000000000000
F0010000006131600002000000431178400041450500000000000000000201408080002001EFRAIN ALVAREZ                                    C000000001150000000000000000000000100010010000000000000000000000F0010000006131600220140808000101 00000000000000000000000000000000000000000000000000000000000000000000000000000000000000000000000000000000000000000N 00000000000NCONT   00    00000000000          00000000000000000000000000000000000000000000 000000000000000A000000000000000000000000000000000000000000000 000000000000000000000000000000000000000     00000000                                                                                                                        000000000000000000
F0010000006131600003000000431178400042505000000000000000000201408080002001EFRAIN ALVAREZ                                    C000000000150000000000000000000000100010010000000000000000000000F0010000006131600320140808000101 00000000000000000000000000000000000000000000000000000000000000000000000000000000000000000000000000000000000000000N 00000000000NCONT   00    00000000000          00000000000000000000000000000000000000000000 000000000000000A000000000000000000000000000000000000000000000 000000000000000000000000000000000000000     00000000                                                                                                                        000000000000000000
F0010000006131600004000000431178400023658300000000000000000201408080002001EFRAIN ALVAREZ                                    C000000000009200000000000000000000100010010000000000000000000000F0010000006131600420140808000101 00000000000000000000000000000000000000000000000000000000000000000000000000000000000000000000000000000000000000000N 00000000000NCONT   00    00000000000          00000000000000000000000000000000000000000000 000000000000000A000000000000000000000000000000000000000000000 000000000000000000000000000000000000000     00000000                                                                                                                        000000000000000000
F0010000006131600005000000431178400013552100000000000000000201408080002001EFRAIN ALVAREZ                                    D000000000009200000000000000000000100010010000000000000000000000F0010000006131600520140808000101 00000000000000000000000000000000000000000000000000000000000000000000000000000000000000000000000000000000000000000N 00000000000NCONT   00    00000000000          00000000000000000000000000000000000000000000 000000000000000A000000000000000000000000000000000000000000000 000000000000000000000000000000000000000     00000000                                                                                                                        000000000000000000
F0010000006131700001000000431178400011050500000000000000000201408080002001EFRAIN ALVAREZ                                    D000000000900000000000000000000000100010010000000000000000000000F0010000006131700120140808000101 00000000000000000000000000000000000000000000000000000000000000000000000000000000000000000000000000000000000000000N 00000000000NCONT   00    00000000000          00000000000000000000000000000000000000000000 000000000000000A000000000000000000000000000000000000000000000 000000000000000000000000000000000000000     00000000                                                                                                                        000000000000000000
F0010000006131700002000000431178400041450500000000000000000201408080002001EFRAIN ALVAREZ                                    C000000000850000000000000000000000100010010000000000000000000000F0010000006131700220140808000101 00000000000000000000000000000000000000000000000000000000000000000000000000000000000000000000000000000000000000000N 00000000000NCONT   00    00000000000          00000000000000000000000000000000000000000000 000000000000000A000000000000000000000000000000000000000000000 000000000000000000000000000000000000000     00000000                                                                                                                        000000000000000000
F0010000006131700003000000431178400042505000000000000000000201408080002001EFRAIN ALVAREZ                                    C000000000050000000000000000000000100010010000000000000000000000F0010000006131700320140808000101 00000000000000000000000000000000000000000000000000000000000000000000000000000000000000000000000000000000000000000N 00000000000NCONT   00    00000000000          00000000000000000000000000000000000000000000 000000000000000A000000000000000000000000000000000000000000000 000000000000000000000000000000000000000     00000000                                                                                                                        000000000000000000
F0010000006131700004000000431178400023658300000000000000000201408080002001EFRAIN ALVAREZ                                    C000000000006800000000000000000000100010010000000000000000000000F0010000006131700420140808000101 00000000000000000000000000000000000000000000000000000000000000000000000000000000000000000000000000000000000000000N 00000000000NCONT   00    00000000000          00000000000000000000000000000000000000000000 000000000000000A000000000000000000000000000000000000000000000 000000000000000000000000000000000000000     00000000                                                                                                                        000000000000000000
F0010000006131700005000000431178400013552100000000000000000201408080002001EFRAIN ALVAREZ                                    D000000000006800000000000000000000100010010000000000000000000000F0010000006131700520140808000101 00000000000000000000000000000000000000000000000000000000000000000000000000000000000000000000000000000000000000000N 00000000000NCONT   00    00000000000          00000000000000000000000000000000000000000000 000000000000000A000000000000000000000000000000000000000000000 000000000000000000000000000000000000000     00000000                                                                                                                        000000000000000000
F0010000006131800001000000431178400011050500000000000000000201408080002001EFRAIN ALVAREZ                                    D000000002400000000000000000000000100010010000000000000000000000F0010000006131800120140808000101 00000000000000000000000000000000000000000000000000000000000000000000000000000000000000000000000000000000000000000N 00000000000NCONT   00    00000000000          00000000000000000000000000000000000000000000 000000000000000A000000000000000000000000000000000000000000000 000000000000000000000000000000000000000     00000000                                                                                                                        000000000000000000
F0010000006131800002000000431178400041450500000000000000000201408080002001EFRAIN ALVAREZ                                    C000000002300000000000000000000000100010010000000000000000000000F0010000006131800220140808000101 00000000000000000000000000000000000000000000000000000000000000000000000000000000000000000000000000000000000000000N 00000000000NCONT   00    00000000000          00000000000000000000000000000000000000000000 000000000000000A000000000000000000000000000000000000000000000 000000000000000000000000000000000000000     00000000                                                                                                                        000000000000000000
