F0010000009113400001000000908086400011050500000000000000000201609110002001JOSE DEL CRISTO SANES FERNANDEZ                   D000000007642000000000000000000000100010010000000000000000000000F0010000009113400120160911000101 00000000000000000000000000000000000000000000000000000000000000000000000000000000000000000000000000000000000000000N 00000000000NCONT   00    00000000000          00000000000000000000000000000000000000000000 000000000000000A000000000000000000000000000000000000000000000 000000000000000000000000000000000000000     00000000                                                                                                                        000000000000000000
F0010000009113400002000000908086400041450500000000000000000201609110002001JOSE DEL CRISTO SANES FERNANDEZ                   C000000006600000000000000000000000100010010000000000000000000000F0010000009113400220160911000101 00000000000000000000000000000000000000000000000000000000000000000000000000000000000000000000000000000000000000000N 00000000000NCONT   00    00000000000          00000000000000000000000000000000000000000000 000000000000000A000000000000000000000000000000000000000000000 000000000000000000000000000000000000000     00000000                                                                                                                        000000000000000000
F0010000009113400003000000908086400042505000000000000000000201609110002001JOSE DEL CRISTO SANES FERNANDEZ                   C000000001042000000000000000000000100010010000000000000000000000F0010000009113400320160911000101 00000000000000000000000000000000000000000000000000000000000000000000000000000000000000000000000000000000000000000N 00000000000NCONT   00    00000000000          00000000000000000000000000000000000000000000 000000000000000A000000000000000000000000000000000000000000000 000000000000000000000000000000000000000     00000000                                                                                                                        000000000000000000
F0010000009113400004000000908086400023658300000000000000000201609110002001JOSE DEL CRISTO SANES FERNANDEZ                   C000000000052800000000000000000000100010010000000000000000000000F0010000009113400420160911000101 00000000000000000000000000000000000000000000000000000000000000000000000000000000000000000000000000000000000000000N 00000000000NCONT   00    00000000000          00000000000000000000000000000000000000000000 000000000000000A000000000000000000000000000000000000000000000 000000000000000000000000000000000000000     00000000                                                                                                                        000000000000000000
F0010000009113400005000000908086400013552100000000000000000201609110002001JOSE DEL CRISTO SANES FERNANDEZ                   D000000000052800000000000000000000100010010000000000000000000000F0010000009113400520160911000101 00000000000000000000000000000000000000000000000000000000000000000000000000000000000000000000000000000000000000000N 00000000000NCONT   00    00000000000          00000000000000000000000000000000000000000000 000000000000000A000000000000000000000000000000000000000000000 000000000000000000000000000000000000000     00000000                                                                                                                        000000000000000000
F0010000009113500001000000908086400011050500000000000000000201609110002001JOSE DEL CRISTO SANES FERNANDEZ                   D000000005417200000000000000000000100010010000000000000000000000F0010000009113500120160911000101 00000000000000000000000000000000000000000000000000000000000000000000000000000000000000000000000000000000000000000N 00000000000NCONT   00    00000000000          00000000000000000000000000000000000000000000 000000000000000A000000000000000000000000000000000000000000000 000000000000000000000000000000000000000     00000000                                                                                                                        000000000000000000
F0010000009113500002000000908086400041450500000000000000000201609110002001JOSE DEL CRISTO SANES FERNANDEZ                   C000000004400000000000000000000000100010010000000000000000000000F0010000009113500220160911000101 00000000000000000000000000000000000000000000000000000000000000000000000000000000000000000000000000000000000000000N 00000000000NCONT   00    00000000000          00000000000000000000000000000000000000000000 000000000000000A000000000000000000000000000000000000000000000 000000000000000000000000000000000000000     00000000                                                                                                                        000000000000000000
F0010000009113500003000000908086400042505000000000000000000201609110002001JOSE DEL CRISTO SANES FERNANDEZ                   C000000001017200000000000000000000100010010000000000000000000000F0010000009113500320160911000101 00000000000000000000000000000000000000000000000000000000000000000000000000000000000000000000000000000000000000000N 00000000000NCONT   00    00000000000          00000000000000000000000000000000000000000000 000000000000000A000000000000000000000000000000000000000000000 000000000000000000000000000000000000000     00000000                                                                                                                        000000000000000000
F0010000009113500004000000908086400023658300000000000000000201609110002001JOSE DEL CRISTO SANES FERNANDEZ                   C000000000035200000000000000000000100010010000000000000000000000F0010000009113500420160911000101 00000000000000000000000000000000000000000000000000000000000000000000000000000000000000000000000000000000000000000N 00000000000NCONT   00    00000000000          00000000000000000000000000000000000000000000 000000000000000A000000000000000000000000000000000000000000000 000000000000000000000000000000000000000     00000000                                                                                                                        000000000000000000
F0010000009113500005000000908086400013552100000000000000000201609110002001JOSE DEL CRISTO SANES FERNANDEZ                   D000000000035200000000000000000000100010010000000000000000000000F0010000009113500520160911000101 00000000000000000000000000000000000000000000000000000000000000000000000000000000000000000000000000000000000000000N 00000000000NCONT   00    00000000000          00000000000000000000000000000000000000000000 000000000000000A000000000000000000000000000000000000000000000 000000000000000000000000000000000000000     00000000                                                                                                                        000000000000000000
F0010000009113600001000000000000000011050500000000000000000201609110002001ALBERTO GARCIA                                    D000000001100000000000000000000000100010010000000000000000000000F0010000009113600120160911000101 00000000000000000000000000000000000000000000000000000000000000000000000000000000000000000000000000000000000000000N 00000000000NCONT   00    00000000000          00000000000000000000000000000000000000000000 000000000000000A000000000000000000000000000000000000000000000 000000000000000000000000000000000000000     00000000                                                                                                                        000000000000000000
F0010000009113600002000000000000000041450500000000000000000201609110002001ALBERTO GARCIA                                    C000000001000000000000000000000000100010010000000000000000000000F0010000009113600220160911000101 00000000000000000000000000000000000000000000000000000000000000000000000000000000000000000000000000000000000000000N 00000000000NCONT   00    00000000000          00000000000000000000000000000000000000000000 000000000000000A000000000000000000000000000000000000000000000 000000000000000000000000000000000000000     00000000                                                                                                                        000000000000000000
F0010000009113600003000000000000000042505000000000000000000201609110002001ALBERTO GARCIA                                    C000000000100000000000000000000000100010010000000000000000000000F0010000009113600320160911000101 00000000000000000000000000000000000000000000000000000000000000000000000000000000000000000000000000000000000000000N 00000000000NCONT   00    00000000000          00000000000000000000000000000000000000000000 000000000000000A000000000000000000000000000000000000000000000 000000000000000000000000000000000000000     00000000                                                                                                                        000000000000000000
F0010000009113600004000000000000000023658300000000000000000201609110002001ALBERTO GARCIA                                    C000000000008000000000000000000000100010010000000000000000000000F0010000009113600420160911000101 00000000000000000000000000000000000000000000000000000000000000000000000000000000000000000000000000000000000000000N 00000000000NCONT   00    00000000000          00000000000000000000000000000000000000000000 000000000000000A000000000000000000000000000000000000000000000 000000000000000000000000000000000000000     00000000                                                                                                                        000000000000000000
F0010000009113600005000000000000000013552100000000000000000201609110002001ALBERTO GARCIA                                    D000000000008000000000000000000000100010010000000000000000000000F0010000009113600520160911000101 00000000000000000000000000000000000000000000000000000000000000000000000000000000000000000000000000000000000000000N 00000000000NCONT   00    00000000000          00000000000000000000000000000000000000000000 000000000000000A000000000000000000000000000000000000000000000 000000000000000000000000000000000000000     00000000                                                                                                                        000000000000000000
