F0010000006981900001000003265903000011050500000000000000000201503310002001CIELO OSPINO                                      D000000002500000000000000000000000100010010000000000000000000000F0010000006981900120150331000101 00000000000000000000000000000000000000000000000000000000000000000000000000000000000000000000000000000000000000000N 00000000000NCONT   00    00000000000          00000000000000000000000000000000000000000000 000000000000000A000000000000000000000000000000000000000000000 000000000000000000000000000000000000000     00000000                                                                                                                        000000000000000000
F0010000006981900002000003265903000041450500000000000000000201503310002001CIELO OSPINO                                      C000000001800000000000000000000000100010010000000000000000000000F0010000006981900220150331000101 00000000000000000000000000000000000000000000000000000000000000000000000000000000000000000000000000000000000000000N 00000000000NCONT   00    00000000000          00000000000000000000000000000000000000000000 000000000000000A000000000000000000000000000000000000000000000 000000000000000000000000000000000000000     00000000                                                                                                                        000000000000000000
F0010000006981900003000003265903000042505000000000000000000201503310002001CIELO OSPINO                                      C000000000700000000000000000000000100010010000000000000000000000F0010000006981900320150331000101 00000000000000000000000000000000000000000000000000000000000000000000000000000000000000000000000000000000000000000N 00000000000NCONT   00    00000000000          00000000000000000000000000000000000000000000 000000000000000A000000000000000000000000000000000000000000000 000000000000000000000000000000000000000     00000000                                                                                                                        000000000000000000
F0010000006981900004000003265903000023658300000000000000000201503310002001CIELO OSPINO                                      C000000000014400000000000000000000100010010000000000000000000000F0010000006981900420150331000101 00000000000000000000000000000000000000000000000000000000000000000000000000000000000000000000000000000000000000000N 00000000000NCONT   00    00000000000          00000000000000000000000000000000000000000000 000000000000000A000000000000000000000000000000000000000000000 000000000000000000000000000000000000000     00000000                                                                                                                        000000000000000000
F0010000006981900005000003265903000013552100000000000000000201503310002001CIELO OSPINO                                      D000000000014400000000000000000000100010010000000000000000000000F0010000006981900520150331000101 00000000000000000000000000000000000000000000000000000000000000000000000000000000000000000000000000000000000000000N 00000000000NCONT   00    00000000000          00000000000000000000000000000000000000000000 000000000000000A000000000000000000000000000000000000000000000 000000000000000000000000000000000000000     00000000                                                                                                                        000000000000000000
F0010000006982000001000001022529300011050500000000000000000201503310002001ALBERTO ALVAREZ ISAZA                             D000000000350000000000000000000000100010010000000000000000000000F0010000006982000120150331000101 00000000000000000000000000000000000000000000000000000000000000000000000000000000000000000000000000000000000000000N 00000000000NCONT   00    00000000000          00000000000000000000000000000000000000000000 000000000000000A000000000000000000000000000000000000000000000 000000000000000000000000000000000000000     00000000                                                                                                                        000000000000000000
F0010000006982000002000001022529300041450500000000000000000201503310002001ALBERTO ALVAREZ ISAZA                             C000000000300000000000000000000000100010010000000000000000000000F0010000006982000220150331000101 00000000000000000000000000000000000000000000000000000000000000000000000000000000000000000000000000000000000000000N 00000000000NCONT   00    00000000000          00000000000000000000000000000000000000000000 000000000000000A000000000000000000000000000000000000000000000 000000000000000000000000000000000000000     00000000                                                                                                                        000000000000000000
F0010000006982000003000001022529300042505000000000000000000201503310002001ALBERTO ALVAREZ ISAZA                             C000000000050000000000000000000000100010010000000000000000000000F0010000006982000320150331000101 00000000000000000000000000000000000000000000000000000000000000000000000000000000000000000000000000000000000000000N 00000000000NCONT   00    00000000000          00000000000000000000000000000000000000000000 000000000000000A000000000000000000000000000000000000000000000 000000000000000000000000000000000000000     00000000                                                                                                                        000000000000000000
F0010000006982000004000001022529300023658300000000000000000201503310002001ALBERTO ALVAREZ ISAZA                             C000000000002400000000000000000000100010010000000000000000000000F0010000006982000420150331000101 00000000000000000000000000000000000000000000000000000000000000000000000000000000000000000000000000000000000000000N 00000000000NCONT   00    00000000000          00000000000000000000000000000000000000000000 000000000000000A000000000000000000000000000000000000000000000 000000000000000000000000000000000000000     00000000                                                                                                                        000000000000000000
F0010000006982000005000001022529300013552100000000000000000201503310002001ALBERTO ALVAREZ ISAZA                             D000000000002400000000000000000000100010010000000000000000000000F0010000006982000520150331000101 00000000000000000000000000000000000000000000000000000000000000000000000000000000000000000000000000000000000000000N 00000000000NCONT   00    00000000000          00000000000000000000000000000000000000000000 000000000000000A000000000000000000000000000000000000000000000 000000000000000000000000000000000000000     00000000                                                                                                                        000000000000000000
F0010000006982100001000000868846900011050500000000000000000201503310002001NICOLAS DE LA HOZ SAUCEDO                         D000000001300000000000000000000000100010010000000000000000000000F0010000006982100120150331000101 00000000000000000000000000000000000000000000000000000000000000000000000000000000000000000000000000000000000000000N 00000000000NCONT   00    00000000000          00000000000000000000000000000000000000000000 000000000000000A000000000000000000000000000000000000000000000 000000000000000000000000000000000000000     00000000                                                                                                                        000000000000000000
F0010000006982100002000000868846900041450500000000000000000201503310002001NICOLAS DE LA HOZ SAUCEDO                         C000000001000000000000000000000000100010010000000000000000000000F0010000006982100220150331000101 00000000000000000000000000000000000000000000000000000000000000000000000000000000000000000000000000000000000000000N 00000000000NCONT   00    00000000000          00000000000000000000000000000000000000000000 000000000000000A000000000000000000000000000000000000000000000 000000000000000000000000000000000000000     00000000                                                                                                                        000000000000000000
F0010000006982100003000000868846900042505000000000000000000201503310002001NICOLAS DE LA HOZ SAUCEDO                         C000000000300000000000000000000000100010010000000000000000000000F0010000006982100320150331000101 00000000000000000000000000000000000000000000000000000000000000000000000000000000000000000000000000000000000000000N 00000000000NCONT   00    00000000000          00000000000000000000000000000000000000000000 000000000000000A000000000000000000000000000000000000000000000 000000000000000000000000000000000000000     00000000                                                                                                                        000000000000000000
F0010000006982100004000000868846900023658300000000000000000201503310002001NICOLAS DE LA HOZ SAUCEDO                         C000000000008000000000000000000000100010010000000000000000000000F0010000006982100420150331000101 00000000000000000000000000000000000000000000000000000000000000000000000000000000000000000000000000000000000000000N 00000000000NCONT   00    00000000000          00000000000000000000000000000000000000000000 000000000000000A000000000000000000000000000000000000000000000 000000000000000000000000000000000000000     00000000                                                                                                                        000000000000000000
F0010000006982100005000000868846900013552100000000000000000201503310002001NICOLAS DE LA HOZ SAUCEDO                         D000000000008000000000000000000000100010010000000000000000000000F0010000006982100520150331000101 00000000000000000000000000000000000000000000000000000000000000000000000000000000000000000000000000000000000000000N 00000000000NCONT   00    00000000000          00000000000000000000000000000000000000000000 000000000000000A000000000000000000000000000000000000000000000 000000000000000000000000000000000000000     00000000                                                                                                                        000000000000000000
F0010000006982200001000000747559300011050500000000000000000201503310002001RAFAEL SERRANO                                    D000000001700000000000000000000000100010010000000000000000000000F0010000006982200120150331000101 00000000000000000000000000000000000000000000000000000000000000000000000000000000000000000000000000000000000000000N 00000000000NCONT   00    00000000000          00000000000000000000000000000000000000000000 000000000000000A000000000000000000000000000000000000000000000 000000000000000000000000000000000000000     00000000                                                                                                                        000000000000000000
F0010000006982200002000000747559300041450500000000000000000201503310002001RAFAEL SERRANO                                    C000000001000000000000000000000000100010010000000000000000000000F0010000006982200220150331000101 00000000000000000000000000000000000000000000000000000000000000000000000000000000000000000000000000000000000000000N 00000000000NCONT   00    00000000000          00000000000000000000000000000000000000000000 000000000000000A000000000000000000000000000000000000000000000 000000000000000000000000000000000000000     00000000                                                                                                                        000000000000000000
F0010000006982200003000000747559300042505000000000000000000201503310002001RAFAEL SERRANO                                    C000000000700000000000000000000000100010010000000000000000000000F0010000006982200320150331000101 00000000000000000000000000000000000000000000000000000000000000000000000000000000000000000000000000000000000000000N 00000000000NCONT   00    00000000000          00000000000000000000000000000000000000000000 000000000000000A000000000000000000000000000000000000000000000 000000000000000000000000000000000000000     00000000                                                                                                                        000000000000000000
F0010000006982200004000000747559300023658300000000000000000201503310002001RAFAEL SERRANO                                    C000000000008000000000000000000000100010010000000000000000000000F0010000006982200420150331000101 00000000000000000000000000000000000000000000000000000000000000000000000000000000000000000000000000000000000000000N 00000000000NCONT   00    00000000000          00000000000000000000000000000000000000000000 000000000000000A000000000000000000000000000000000000000000000 000000000000000000000000000000000000000     00000000                                                                                                                        000000000000000000
F0010000006982200005000000747559300013552100000000000000000201503310002001RAFAEL SERRANO                                    D000000000008000000000000000000000100010010000000000000000000000F0010000006982200520150331000101 00000000000000000000000000000000000000000000000000000000000000000000000000000000000000000000000000000000000000000N 00000000000NCONT   00    00000000000          00000000000000000000000000000000000000000000 000000000000000A000000000000000000000000000000000000000000000 000000000000000000000000000000000000000     00000000                                                                                                                        000000000000000000
F0010000006982300001000000742033200011050500000000000000000201503310002001EUSEBIO DE SALES                                  D000000008300000000000000000000000100010010000000000000000000000F0010000006982300120150331000101 00000000000000000000000000000000000000000000000000000000000000000000000000000000000000000000000000000000000000000N 00000000000NCONT   00    00000000000          00000000000000000000000000000000000000000000 000000000000000A000000000000000000000000000000000000000000000 000000000000000000000000000000000000000     00000000                                                                                                                        000000000000000000
F0010000006982300002000000742033200041450500000000000000000201503310002001EUSEBIO DE SALES                                  C000000007500000000000000000000000100010010000000000000000000000F0010000006982300220150331000101 00000000000000000000000000000000000000000000000000000000000000000000000000000000000000000000000000000000000000000N 00000000000NCONT   00    00000000000          00000000000000000000000000000000000000000000 000000000000000A000000000000000000000000000000000000000000000 000000000000000000000000000000000000000     00000000                                                                                                                        000000000000000000
F0010000006982300003000000742033200042505000000000000000000201503310002001EUSEBIO DE SALES                                  C000000000800000000000000000000000100010010000000000000000000000F0010000006982300320150331000101 00000000000000000000000000000000000000000000000000000000000000000000000000000000000000000000000000000000000000000N 00000000000NCONT   00    00000000000          00000000000000000000000000000000000000000000 000000000000000A000000000000000000000000000000000000000000000 000000000000000000000000000000000000000     00000000                                                                                                                        000000000000000000
F0010000006982300004000000742033200023658300000000000000000201503310002001EUSEBIO DE SALES                                  C000000000060000000000000000000000100010010000000000000000000000F0010000006982300420150331000101 00000000000000000000000000000000000000000000000000000000000000000000000000000000000000000000000000000000000000000N 00000000000NCONT   00    00000000000          00000000000000000000000000000000000000000000 000000000000000A000000000000000000000000000000000000000000000 000000000000000000000000000000000000000     00000000                                                                                                                        000000000000000000
F0010000006982300005000000742033200013552100000000000000000201503310002001EUSEBIO DE SALES                                  D000000000060000000000000000000000100010010000000000000000000000F0010000006982300520150331000101 00000000000000000000000000000000000000000000000000000000000000000000000000000000000000000000000000000000000000000N 00000000000NCONT   00    00000000000          00000000000000000000000000000000000000000000 000000000000000A000000000000000000000000000000000000000000000 000000000000000000000000000000000000000     00000000                                                                                                                        000000000000000000
F0010000006982400001000007226027400011050500000000000000000201503310002001DISTRIBUIDORA NEPTUNO                             D000000005000000000000000000000000100010010000000000000000000000F0010000006982400120150331000101 00000000000000000000000000000000000000000000000000000000000000000000000000000000000000000000000000000000000000000N 00000000000NCONT   00    00000000000          00000000000000000000000000000000000000000000 000000000000000A000000000000000000000000000000000000000000000 000000000000000000000000000000000000000     00000000                                                                                                                        000000000000000000
F0010000006982400002000007226027400041450500000000000000000201503310002001DISTRIBUIDORA NEPTUNO                             C000000004600000000000000000000000100010010000000000000000000000F0010000006982400220150331000101 00000000000000000000000000000000000000000000000000000000000000000000000000000000000000000000000000000000000000000N 00000000000NCONT   00    00000000000          00000000000000000000000000000000000000000000 000000000000000A000000000000000000000000000000000000000000000 000000000000000000000000000000000000000     00000000                                                                                                                        000000000000000000
F0010000006982400003000007226027400042505000000000000000000201503310002001DISTRIBUIDORA NEPTUNO                             C000000000400000000000000000000000100010010000000000000000000000F0010000006982400320150331000101 00000000000000000000000000000000000000000000000000000000000000000000000000000000000000000000000000000000000000000N 00000000000NCONT   00    00000000000          00000000000000000000000000000000000000000000 000000000000000A000000000000000000000000000000000000000000000 000000000000000000000000000000000000000     00000000                                                                                                                        000000000000000000
F0010000006982400004000007226027400023658300000000000000000201503310002001DISTRIBUIDORA NEPTUNO                             C000000000036800000000000000000000100010010000000000000000000000F0010000006982400420150331000101 00000000000000000000000000000000000000000000000000000000000000000000000000000000000000000000000000000000000000000N 00000000000NCONT   00    00000000000          00000000000000000000000000000000000000000000 000000000000000A000000000000000000000000000000000000000000000 000000000000000000000000000000000000000     00000000                                                                                                                        000000000000000000
F0010000006982400005000007226027400013552100000000000000000201503310002001DISTRIBUIDORA NEPTUNO                             D000000000036800000000000000000000100010010000000000000000000000F0010000006982400520150331000101 00000000000000000000000000000000000000000000000000000000000000000000000000000000000000000000000000000000000000000N 00000000000NCONT   00    00000000000          00000000000000000000000000000000000000000000 000000000000000A000000000000000000000000000000000000000000000 000000000000000000000000000000000000000     00000000                                                                                                                        000000000000000000
F0010000006982500001000007226027400011050500000000000000000201503310002001DISTRIBUIDORA NEPTUNO                             D000000002000000000000000000000000100010010000000000000000000000F0010000006982500120150331000101 00000000000000000000000000000000000000000000000000000000000000000000000000000000000000000000000000000000000000000N 00000000000NCONT   00    00000000000          00000000000000000000000000000000000000000000 000000000000000A000000000000000000000000000000000000000000000 000000000000000000000000000000000000000     00000000                                                                                                                        000000000000000000
F0010000006982500002000007226027400041450500000000000000000201503310002001DISTRIBUIDORA NEPTUNO                             C000000001800000000000000000000000100010010000000000000000000000F0010000006982500220150331000101 00000000000000000000000000000000000000000000000000000000000000000000000000000000000000000000000000000000000000000N 00000000000NCONT   00    00000000000          00000000000000000000000000000000000000000000 000000000000000A000000000000000000000000000000000000000000000 000000000000000000000000000000000000000     00000000                                                                                                                        000000000000000000
F0010000006982500003000007226027400042505000000000000000000201503310002001DISTRIBUIDORA NEPTUNO                             C000000000200000000000000000000000100010010000000000000000000000F0010000006982500320150331000101 00000000000000000000000000000000000000000000000000000000000000000000000000000000000000000000000000000000000000000N 00000000000NCONT   00    00000000000          00000000000000000000000000000000000000000000 000000000000000A000000000000000000000000000000000000000000000 000000000000000000000000000000000000000     00000000                                                                                                                        000000000000000000
F0010000006982500004000007226027400023658300000000000000000201503310002001DISTRIBUIDORA NEPTUNO                             C000000000014400000000000000000000100010010000000000000000000000F0010000006982500420150331000101 00000000000000000000000000000000000000000000000000000000000000000000000000000000000000000000000000000000000000000N 00000000000NCONT   00    00000000000          00000000000000000000000000000000000000000000 000000000000000A000000000000000000000000000000000000000000000 000000000000000000000000000000000000000     00000000                                                                                                                        000000000000000000
F0010000006982500005000007226027400013552100000000000000000201503310002001DISTRIBUIDORA NEPTUNO                             D000000000014400000000000000000000100010010000000000000000000000F0010000006982500520150331000101 00000000000000000000000000000000000000000000000000000000000000000000000000000000000000000000000000000000000000000N 00000000000NCONT   00    00000000000          00000000000000000000000000000000000000000000 000000000000000A000000000000000000000000000000000000000000000 000000000000000000000000000000000000000     00000000                                                                                                                        000000000000000000
F0010000006982600001000007226027400011050500000000000000000201503310002001DISTRIBUIDORA NEPTUNO                             D000000001000000000000000000000000100010010000000000000000000000F0010000006982600120150331000101 00000000000000000000000000000000000000000000000000000000000000000000000000000000000000000000000000000000000000000N 00000000000NCONT   00    00000000000          00000000000000000000000000000000000000000000 000000000000000A000000000000000000000000000000000000000000000 000000000000000000000000000000000000000     00000000                                                                                                                        000000000000000000
F0010000006982600002000007226027400041450500000000000000000201503310002001DISTRIBUIDORA NEPTUNO                             C000000000900000000000000000000000100010010000000000000000000000F0010000006982600220150331000101 00000000000000000000000000000000000000000000000000000000000000000000000000000000000000000000000000000000000000000N 00000000000NCONT   00    00000000000          00000000000000000000000000000000000000000000 000000000000000A000000000000000000000000000000000000000000000 000000000000000000000000000000000000000     00000000                                                                                                                        000000000000000000
F0010000006982600003000007226027400042505000000000000000000201503310002001DISTRIBUIDORA NEPTUNO                             C000000000100000000000000000000000100010010000000000000000000000F0010000006982600320150331000101 00000000000000000000000000000000000000000000000000000000000000000000000000000000000000000000000000000000000000000N 00000000000NCONT   00    00000000000          00000000000000000000000000000000000000000000 000000000000000A000000000000000000000000000000000000000000000 000000000000000000000000000000000000000     00000000                                                                                                                        000000000000000000
F0010000006982600004000007226027400023658300000000000000000201503310002001DISTRIBUIDORA NEPTUNO                             C000000000007200000000000000000000100010010000000000000000000000F0010000006982600420150331000101 00000000000000000000000000000000000000000000000000000000000000000000000000000000000000000000000000000000000000000N 00000000000NCONT   00    00000000000          00000000000000000000000000000000000000000000 000000000000000A000000000000000000000000000000000000000000000 000000000000000000000000000000000000000     00000000                                                                                                                        000000000000000000
F0010000006982600005000007226027400013552100000000000000000201503310002001DISTRIBUIDORA NEPTUNO                             D000000000007200000000000000000000100010010000000000000000000000F0010000006982600520150331000101 00000000000000000000000000000000000000000000000000000000000000000000000000000000000000000000000000000000000000000N 00000000000NCONT   00    00000000000          00000000000000000000000000000000000000000000 000000000000000A000000000000000000000000000000000000000000000 000000000000000000000000000000000000000     00000000                                                                                                                        000000000000000000
F0010000006982700001000000873998600011050500000000000000000201503310002001GARY JULIO CATAÑO CHAMORRO - GARY PAPELERIA      D000000001000000000000000000000000100010010000000000000000000000F0010000006982700120150331000101 00000000000000000000000000000000000000000000000000000000000000000000000000000000000000000000000000000000000000000N 00000000000NCONT   00    00000000000          00000000000000000000000000000000000000000000 000000000000000A000000000000000000000000000000000000000000000 000000000000000000000000000000000000000     00000000                                                                                                                        000000000000000000
F0010000006982700002000000873998600041450500000000000000000201503310002001GARY JULIO CATAÑO CHAMORRO - GARY PAPELERIA      C000000000850000000000000000000000100010010000000000000000000000F0010000006982700220150331000101 00000000000000000000000000000000000000000000000000000000000000000000000000000000000000000000000000000000000000000N 00000000000NCONT   00    00000000000          00000000000000000000000000000000000000000000 000000000000000A000000000000000000000000000000000000000000000 000000000000000000000000000000000000000     00000000                                                                                                                        000000000000000000
F0010000006982700003000000873998600042505000000000000000000201503310002001GARY JULIO CATAÑO CHAMORRO - GARY PAPELERIA      C000000000150000000000000000000000100010010000000000000000000000F0010000006982700320150331000101 00000000000000000000000000000000000000000000000000000000000000000000000000000000000000000000000000000000000000000N 00000000000NCONT   00    00000000000          00000000000000000000000000000000000000000000 000000000000000A000000000000000000000000000000000000000000000 000000000000000000000000000000000000000     00000000                                                                                                                        000000000000000000
F0010000006982700004000000873998600023658300000000000000000201503310002001GARY JULIO CATAÑO CHAMORRO - GARY PAPELERIA      C000000000006800000000000000000000100010010000000000000000000000F0010000006982700420150331000101 00000000000000000000000000000000000000000000000000000000000000000000000000000000000000000000000000000000000000000N 00000000000NCONT   00    00000000000          00000000000000000000000000000000000000000000 000000000000000A000000000000000000000000000000000000000000000 000000000000000000000000000000000000000     00000000                                                                                                                        000000000000000000
F0010000006982700005000000873998600013552100000000000000000201503310002001GARY JULIO CATAÑO CHAMORRO - GARY PAPELERIA      D000000000006800000000000000000000100010010000000000000000000000F0010000006982700520150331000101 00000000000000000000000000000000000000000000000000000000000000000000000000000000000000000000000000000000000000000N 00000000000NCONT   00    00000000000          00000000000000000000000000000000000000000000 000000000000000A000000000000000000000000000000000000000000000 000000000000000000000000000000000000000     00000000                                                                                                                        000000000000000000
F0010000006982800001000086000061500011050500000000000000000201503310002001DISTRIBUIDORA CORDOBA                             D000000006680000000000000000000000100010010000000000000000000000F0010000006982800120150331000101 00000000000000000000000000000000000000000000000000000000000000000000000000000000000000000000000000000000000000000N 00000000000NCONT   00    00000000000          00000000000000000000000000000000000000000000 000000000000000A000000000000000000000000000000000000000000000 000000000000000000000000000000000000000     00000000                                                                                                                        000000000000000000
F0010000006982800002000086000061500041450500000000000000000201503310002001DISTRIBUIDORA CORDOBA                             C000000005950000000000000000000000100010010000000000000000000000F0010000006982800220150331000101 00000000000000000000000000000000000000000000000000000000000000000000000000000000000000000000000000000000000000000N 00000000000NCONT   00    00000000000          00000000000000000000000000000000000000000000 000000000000000A000000000000000000000000000000000000000000000 000000000000000000000000000000000000000     00000000                                                                                                                        000000000000000000
F0010000006982800003000086000061500042505000000000000000000201503310002001DISTRIBUIDORA CORDOBA                             C000000000730000000000000000000000100010010000000000000000000000F0010000006982800320150331000101 00000000000000000000000000000000000000000000000000000000000000000000000000000000000000000000000000000000000000000N 00000000000NCONT   00    00000000000          00000000000000000000000000000000000000000000 000000000000000A000000000000000000000000000000000000000000000 000000000000000000000000000000000000000     00000000                                                                                                                        000000000000000000
F0010000006982800004000086000061500023658300000000000000000201503310002001DISTRIBUIDORA CORDOBA                             C000000000047600000000000000000000100010010000000000000000000000F0010000006982800420150331000101 00000000000000000000000000000000000000000000000000000000000000000000000000000000000000000000000000000000000000000N 00000000000NCONT   00    00000000000          00000000000000000000000000000000000000000000 000000000000000A000000000000000000000000000000000000000000000 000000000000000000000000000000000000000     00000000                                                                                                                        000000000000000000
F0010000006982800005000086000061500013552100000000000000000201503310002001DISTRIBUIDORA CORDOBA                             D000000000047600000000000000000000100010010000000000000000000000F0010000006982800520150331000101 00000000000000000000000000000000000000000000000000000000000000000000000000000000000000000000000000000000000000000N 00000000000NCONT   00    00000000000          00000000000000000000000000000000000000000000 000000000000000A000000000000000000000000000000000000000000000 000000000000000000000000000000000000000     00000000                                                                                                                        000000000000000000
F0010000006982900001000090050144800011050500000000000000000201503310002001PLASTICOS JR ASOCIADOS SAS                        D000000004080000000000000000000000100010010000000000000000000000F0010000006982900120150331000101 00000000000000000000000000000000000000000000000000000000000000000000000000000000000000000000000000000000000000000N 00000000000NCONT   00    00000000000          00000000000000000000000000000000000000000000 000000000000000A000000000000000000000000000000000000000000000 000000000000000000000000000000000000000     00000000                                                                                                                        000000000000000000
F0010000006982900002000090050144800041450500000000000000000201503310002001PLASTICOS JR ASOCIADOS SAS                        C000000003400000000000000000000000100010010000000000000000000000F0010000006982900220150331000101 00000000000000000000000000000000000000000000000000000000000000000000000000000000000000000000000000000000000000000N 00000000000NCONT   00    00000000000          00000000000000000000000000000000000000000000 000000000000000A000000000000000000000000000000000000000000000 000000000000000000000000000000000000000     00000000                                                                                                                        000000000000000000
F0010000006982900003000090050144800042505000000000000000000201503310002001PLASTICOS JR ASOCIADOS SAS                        C000000000680000000000000000000000100010010000000000000000000000F0010000006982900320150331000101 00000000000000000000000000000000000000000000000000000000000000000000000000000000000000000000000000000000000000000N 00000000000NCONT   00    00000000000          00000000000000000000000000000000000000000000 000000000000000A000000000000000000000000000000000000000000000 000000000000000000000000000000000000000     00000000                                                                                                                        000000000000000000
F0010000006982900004000090050144800023658300000000000000000201503310002001PLASTICOS JR ASOCIADOS SAS                        C000000000027200000000000000000000100010010000000000000000000000F0010000006982900420150331000101 00000000000000000000000000000000000000000000000000000000000000000000000000000000000000000000000000000000000000000N 00000000000NCONT   00    00000000000          00000000000000000000000000000000000000000000 000000000000000A000000000000000000000000000000000000000000000 000000000000000000000000000000000000000     00000000                                                                                                                        000000000000000000
F0010000006982900005000090050144800013552100000000000000000201503310002001PLASTICOS JR ASOCIADOS SAS                        D000000000027200000000000000000000100010010000000000000000000000F0010000006982900520150331000101 00000000000000000000000000000000000000000000000000000000000000000000000000000000000000000000000000000000000000000N 00000000000NCONT   00    00000000000          00000000000000000000000000000000000000000000 000000000000000A000000000000000000000000000000000000000000000 000000000000000000000000000000000000000     00000000                                                                                                                        000000000000000000
F0010000006983000001000090050144800011050500000000000000000201503310002001PLASTICOS JR ASOCIADOS SAS                        D000000008400000000000000000000000100010010000000000000000000000F0010000006983000120150331000101 00000000000000000000000000000000000000000000000000000000000000000000000000000000000000000000000000000000000000000N 00000000000NCONT   00    00000000000          00000000000000000000000000000000000000000000 000000000000000A000000000000000000000000000000000000000000000 000000000000000000000000000000000000000     00000000                                                                                                                        000000000000000000
F0010000006983000002000090050144800041450500000000000000000201503310002001PLASTICOS JR ASOCIADOS SAS                        C000000006800000000000000000000000100010010000000000000000000000F0010000006983000220150331000101 00000000000000000000000000000000000000000000000000000000000000000000000000000000000000000000000000000000000000000N 00000000000NCONT   00    00000000000          00000000000000000000000000000000000000000000 000000000000000A000000000000000000000000000000000000000000000 000000000000000000000000000000000000000     00000000                                                                                                                        000000000000000000
F0010000006983000003000090050144800042505000000000000000000201503310002001PLASTICOS JR ASOCIADOS SAS                        C000000001600000000000000000000000100010010000000000000000000000F0010000006983000320150331000101 00000000000000000000000000000000000000000000000000000000000000000000000000000000000000000000000000000000000000000N 00000000000NCONT   00    00000000000          00000000000000000000000000000000000000000000 000000000000000A000000000000000000000000000000000000000000000 000000000000000000000000000000000000000     00000000                                                                                                                        000000000000000000
F0010000006983000004000090050144800023658300000000000000000201503310002001PLASTICOS JR ASOCIADOS SAS                        C000000000054400000000000000000000100010010000000000000000000000F0010000006983000420150331000101 00000000000000000000000000000000000000000000000000000000000000000000000000000000000000000000000000000000000000000N 00000000000NCONT   00    00000000000          00000000000000000000000000000000000000000000 000000000000000A000000000000000000000000000000000000000000000 000000000000000000000000000000000000000     00000000                                                                                                                        000000000000000000
F0010000006983000005000090050144800013552100000000000000000201503310002001PLASTICOS JR ASOCIADOS SAS                        D000000000054400000000000000000000100010010000000000000000000000F0010000006983000520150331000101 00000000000000000000000000000000000000000000000000000000000000000000000000000000000000000000000000000000000000000N 00000000000NCONT   00    00000000000          00000000000000000000000000000000000000000000 000000000000000A000000000000000000000000000000000000000000000 000000000000000000000000000000000000000     00000000                                                                                                                        000000000000000000
F0010000006983100001000090020547900011050500000000000000000201503310002001DAC DEL CARIBE S.A.S.                             D000000002950000000000000000000000100010010000000000000000000000F0010000006983100120150331000101 00000000000000000000000000000000000000000000000000000000000000000000000000000000000000000000000000000000000000000N 00000000000NCONT   00    00000000000          00000000000000000000000000000000000000000000 000000000000000A000000000000000000000000000000000000000000000 000000000000000000000000000000000000000     00000000                                                                                                                        000000000000000000
F0010000006983100002000090020547900041450500000000000000000201503310002001DAC DEL CARIBE S.A.S.                             C000000002600000000000000000000000100010010000000000000000000000F0010000006983100220150331000101 00000000000000000000000000000000000000000000000000000000000000000000000000000000000000000000000000000000000000000N 00000000000NCONT   00    00000000000          00000000000000000000000000000000000000000000 000000000000000A000000000000000000000000000000000000000000000 000000000000000000000000000000000000000     00000000                                                                                                                        000000000000000000
F0010000006983100003000090020547900042505000000000000000000201503310002001DAC DEL CARIBE S.A.S.                             C000000000350000000000000000000000100010010000000000000000000000F0010000006983100320150331000101 00000000000000000000000000000000000000000000000000000000000000000000000000000000000000000000000000000000000000000N 00000000000NCONT   00    00000000000          00000000000000000000000000000000000000000000 000000000000000A000000000000000000000000000000000000000000000 000000000000000000000000000000000000000     00000000                                                                                                                        000000000000000000
F0010000006983100004000090020547900023658300000000000000000201503310002001DAC DEL CARIBE S.A.S.                             C000000000020800000000000000000000100010010000000000000000000000F0010000006983100420150331000101 00000000000000000000000000000000000000000000000000000000000000000000000000000000000000000000000000000000000000000N 00000000000NCONT   00    00000000000          00000000000000000000000000000000000000000000 000000000000000A000000000000000000000000000000000000000000000 000000000000000000000000000000000000000     00000000                                                                                                                        000000000000000000
F0010000006983100005000090020547900013552100000000000000000201503310002001DAC DEL CARIBE S.A.S.                             D000000000020800000000000000000000100010010000000000000000000000F0010000006983100520150331000101 00000000000000000000000000000000000000000000000000000000000000000000000000000000000000000000000000000000000000000N 00000000000NCONT   00    00000000000          00000000000000000000000000000000000000000000 000000000000000A000000000000000000000000000000000000000000000 000000000000000000000000000000000000000     00000000                                                                                                                        000000000000000000
F0010000006983200001000090020547900011050500000000000000000201503310002001DAC DEL CARIBE S.A.S.                             D000000001700000000000000000000000100010010000000000000000000000F0010000006983200120150331000101 00000000000000000000000000000000000000000000000000000000000000000000000000000000000000000000000000000000000000000N 00000000000NCONT   00    00000000000          00000000000000000000000000000000000000000000 000000000000000A000000000000000000000000000000000000000000000 000000000000000000000000000000000000000     00000000                                                                                                                        000000000000000000
F0010000006983200002000090020547900041450500000000000000000201503310002001DAC DEL CARIBE S.A.S.                             C000000001300000000000000000000000100010010000000000000000000000F0010000006983200220150331000101 00000000000000000000000000000000000000000000000000000000000000000000000000000000000000000000000000000000000000000N 00000000000NCONT   00    00000000000          00000000000000000000000000000000000000000000 000000000000000A000000000000000000000000000000000000000000000 000000000000000000000000000000000000000     00000000                                                                                                                        000000000000000000
F0010000006983200003000090020547900042505000000000000000000201503310002001DAC DEL CARIBE S.A.S.                             C000000000400000000000000000000000100010010000000000000000000000F0010000006983200320150331000101 00000000000000000000000000000000000000000000000000000000000000000000000000000000000000000000000000000000000000000N 00000000000NCONT   00    00000000000          00000000000000000000000000000000000000000000 000000000000000A000000000000000000000000000000000000000000000 000000000000000000000000000000000000000     00000000                                                                                                                        000000000000000000
F0010000006983200004000090020547900023658300000000000000000201503310002001DAC DEL CARIBE S.A.S.                             C000000000010400000000000000000000100010010000000000000000000000F0010000006983200420150331000101 00000000000000000000000000000000000000000000000000000000000000000000000000000000000000000000000000000000000000000N 00000000000NCONT   00    00000000000          00000000000000000000000000000000000000000000 000000000000000A000000000000000000000000000000000000000000000 000000000000000000000000000000000000000     00000000                                                                                                                        000000000000000000
F0010000006983200005000090020547900013552100000000000000000201503310002001DAC DEL CARIBE S.A.S.                             D000000000010400000000000000000000100010010000000000000000000000F0010000006983200520150331000101 00000000000000000000000000000000000000000000000000000000000000000000000000000000000000000000000000000000000000000N 00000000000NCONT   00    00000000000          00000000000000000000000000000000000000000000 000000000000000A000000000000000000000000000000000000000000000 000000000000000000000000000000000000000     00000000                                                                                                                        000000000000000000
F0010000006983300001000090020547900011050500000000000000000201503310002001DAC DEL CARIBE S.A.S.                             D000000003200000000000000000000000100010010000000000000000000000F0010000006983300120150331000101 00000000000000000000000000000000000000000000000000000000000000000000000000000000000000000000000000000000000000000N 00000000000NCONT   00    00000000000          00000000000000000000000000000000000000000000 000000000000000A000000000000000000000000000000000000000000000 000000000000000000000000000000000000000     00000000                                                                                                                        000000000000000000
F0010000006983300002000090020547900041450500000000000000000201503310002001DAC DEL CARIBE S.A.S.                             C000000002600000000000000000000000100010010000000000000000000000F0010000006983300220150331000101 00000000000000000000000000000000000000000000000000000000000000000000000000000000000000000000000000000000000000000N 00000000000NCONT   00    00000000000          00000000000000000000000000000000000000000000 000000000000000A000000000000000000000000000000000000000000000 000000000000000000000000000000000000000     00000000                                                                                                                        000000000000000000
F0010000006983300003000090020547900042505000000000000000000201503310002001DAC DEL CARIBE S.A.S.                             C000000000600000000000000000000000100010010000000000000000000000F0010000006983300320150331000101 00000000000000000000000000000000000000000000000000000000000000000000000000000000000000000000000000000000000000000N 00000000000NCONT   00    00000000000          00000000000000000000000000000000000000000000 000000000000000A000000000000000000000000000000000000000000000 000000000000000000000000000000000000000     00000000                                                                                                                        000000000000000000
F0010000006983300004000090020547900023658300000000000000000201503310002001DAC DEL CARIBE S.A.S.                             C000000000020800000000000000000000100010010000000000000000000000F0010000006983300420150331000101 00000000000000000000000000000000000000000000000000000000000000000000000000000000000000000000000000000000000000000N 00000000000NCONT   00    00000000000          00000000000000000000000000000000000000000000 000000000000000A000000000000000000000000000000000000000000000 000000000000000000000000000000000000000     00000000                                                                                                                        000000000000000000
F0010000006983300005000090020547900013552100000000000000000201503310002001DAC DEL CARIBE S.A.S.                             D000000000020800000000000000000000100010010000000000000000000000F0010000006983300520150331000101 00000000000000000000000000000000000000000000000000000000000000000000000000000000000000000000000000000000000000000N 00000000000NCONT   00    00000000000          00000000000000000000000000000000000000000000 000000000000000A000000000000000000000000000000000000000000000 000000000000000000000000000000000000000     00000000                                                                                                                        000000000000000000
F0010000006983400001000090020547900011050500000000000000000201503310002001DAC DEL CARIBE S.A.S.                             D000000001900000000000000000000000100010010000000000000000000000F0010000006983400120150331000101 00000000000000000000000000000000000000000000000000000000000000000000000000000000000000000000000000000000000000000N 00000000000NCONT   00    00000000000          00000000000000000000000000000000000000000000 000000000000000A000000000000000000000000000000000000000000000 000000000000000000000000000000000000000     00000000                                                                                                                        000000000000000000
F0010000006983400002000090020547900041450500000000000000000201503310002001DAC DEL CARIBE S.A.S.                             C000000001300000000000000000000000100010010000000000000000000000F0010000006983400220150331000101 00000000000000000000000000000000000000000000000000000000000000000000000000000000000000000000000000000000000000000N 00000000000NCONT   00    00000000000          00000000000000000000000000000000000000000000 000000000000000A000000000000000000000000000000000000000000000 000000000000000000000000000000000000000     00000000                                                                                                                        000000000000000000
F0010000006983400003000090020547900042505000000000000000000201503310002001DAC DEL CARIBE S.A.S.                             C000000000600000000000000000000000100010010000000000000000000000F0010000006983400320150331000101 00000000000000000000000000000000000000000000000000000000000000000000000000000000000000000000000000000000000000000N 00000000000NCONT   00    00000000000          00000000000000000000000000000000000000000000 000000000000000A000000000000000000000000000000000000000000000 000000000000000000000000000000000000000     00000000                                                                                                                        000000000000000000
F0010000006983400004000090020547900023658300000000000000000201503310002001DAC DEL CARIBE S.A.S.                             C000000000010400000000000000000000100010010000000000000000000000F0010000006983400420150331000101 00000000000000000000000000000000000000000000000000000000000000000000000000000000000000000000000000000000000000000N 00000000000NCONT   00    00000000000          00000000000000000000000000000000000000000000 000000000000000A000000000000000000000000000000000000000000000 000000000000000000000000000000000000000     00000000                                                                                                                        000000000000000000
F0010000006983400005000090020547900013552100000000000000000201503310002001DAC DEL CARIBE S.A.S.                             D000000000010400000000000000000000100010010000000000000000000000F0010000006983400520150331000101 00000000000000000000000000000000000000000000000000000000000000000000000000000000000000000000000000000000000000000N 00000000000NCONT   00    00000000000          00000000000000000000000000000000000000000000 000000000000000A000000000000000000000000000000000000000000000 000000000000000000000000000000000000000     00000000                                                                                                                        000000000000000000
F0010000006983500001000090020547900011050500000000000000000201503310002001DAC DEL CARIBE S.A.S.                             D000000003400000000000000000000000100010010000000000000000000000F0010000006983500120150331000101 00000000000000000000000000000000000000000000000000000000000000000000000000000000000000000000000000000000000000000N 00000000000NCONT   00    00000000000          00000000000000000000000000000000000000000000 000000000000000A000000000000000000000000000000000000000000000 000000000000000000000000000000000000000     00000000                                                                                                                        000000000000000000
F0010000006983500002000090020547900041450500000000000000000201503310002001DAC DEL CARIBE S.A.S.                             C000000002600000000000000000000000100010010000000000000000000000F0010000006983500220150331000101 00000000000000000000000000000000000000000000000000000000000000000000000000000000000000000000000000000000000000000N 00000000000NCONT   00    00000000000          00000000000000000000000000000000000000000000 000000000000000A000000000000000000000000000000000000000000000 000000000000000000000000000000000000000     00000000                                                                                                                        000000000000000000
F0010000006983500003000090020547900042505000000000000000000201503310002001DAC DEL CARIBE S.A.S.                             C000000000800000000000000000000000100010010000000000000000000000F0010000006983500320150331000101 00000000000000000000000000000000000000000000000000000000000000000000000000000000000000000000000000000000000000000N 00000000000NCONT   00    00000000000          00000000000000000000000000000000000000000000 000000000000000A000000000000000000000000000000000000000000000 000000000000000000000000000000000000000     00000000                                                                                                                        000000000000000000
F0010000006983500004000090020547900023658300000000000000000201503310002001DAC DEL CARIBE S.A.S.                             C000000000020800000000000000000000100010010000000000000000000000F0010000006983500420150331000101 00000000000000000000000000000000000000000000000000000000000000000000000000000000000000000000000000000000000000000N 00000000000NCONT   00    00000000000          00000000000000000000000000000000000000000000 000000000000000A000000000000000000000000000000000000000000000 000000000000000000000000000000000000000     00000000                                                                                                                        000000000000000000
F0010000006983500005000090020547900013552100000000000000000201503310002001DAC DEL CARIBE S.A.S.                             D000000000020800000000000000000000100010010000000000000000000000F0010000006983500520150331000101 00000000000000000000000000000000000000000000000000000000000000000000000000000000000000000000000000000000000000000N 00000000000NCONT   00    00000000000          00000000000000000000000000000000000000000000 000000000000000A000000000000000000000000000000000000000000000 000000000000000000000000000000000000000     00000000                                                                                                                        000000000000000000
F0010000006983600001000007200023300011050500000000000000000201503310002001WILLIAM ORTEGA                                    D000000003100000000000000000000000100010010000000000000000000000F0010000006983600120150331000101 00000000000000000000000000000000000000000000000000000000000000000000000000000000000000000000000000000000000000000N 00000000000NCONT   00    00000000000          00000000000000000000000000000000000000000000 000000000000000A000000000000000000000000000000000000000000000 000000000000000000000000000000000000000     00000000                                                                                                                        000000000000000000
F0010000006983600002000007200023300041450500000000000000000201503310002001WILLIAM ORTEGA                                    C000000002600000000000000000000000100010010000000000000000000000F0010000006983600220150331000101 00000000000000000000000000000000000000000000000000000000000000000000000000000000000000000000000000000000000000000N 00000000000NCONT   00    00000000000          00000000000000000000000000000000000000000000 000000000000000A000000000000000000000000000000000000000000000 000000000000000000000000000000000000000     00000000                                                                                                                        000000000000000000
F0010000006983600003000007200023300042505000000000000000000201503310002001WILLIAM ORTEGA                                    C000000000500000000000000000000000100010010000000000000000000000F0010000006983600320150331000101 00000000000000000000000000000000000000000000000000000000000000000000000000000000000000000000000000000000000000000N 00000000000NCONT   00    00000000000          00000000000000000000000000000000000000000000 000000000000000A000000000000000000000000000000000000000000000 000000000000000000000000000000000000000     00000000                                                                                                                        000000000000000000
F0010000006983600004000007200023300023658300000000000000000201503310002001WILLIAM ORTEGA                                    C000000000020800000000000000000000100010010000000000000000000000F0010000006983600420150331000101 00000000000000000000000000000000000000000000000000000000000000000000000000000000000000000000000000000000000000000N 00000000000NCONT   00    00000000000          00000000000000000000000000000000000000000000 000000000000000A000000000000000000000000000000000000000000000 000000000000000000000000000000000000000     00000000                                                                                                                        000000000000000000
F0010000006983600005000007200023300013552100000000000000000201503310002001WILLIAM ORTEGA                                    D000000000020800000000000000000000100010010000000000000000000000F0010000006983600520150331000101 00000000000000000000000000000000000000000000000000000000000000000000000000000000000000000000000000000000000000000N 00000000000NCONT   00    00000000000          00000000000000000000000000000000000000000000 000000000000000A000000000000000000000000000000000000000000000 000000000000000000000000000000000000000     00000000                                                                                                                        000000000000000000
F0010000006983700001000003274768400011050500000000000000000201503310002001MARELBIS RAMOS                                    D000000004000000000000000000000000100010010000000000000000000000F0010000006983700120150331000101 00000000000000000000000000000000000000000000000000000000000000000000000000000000000000000000000000000000000000000N 00000000000NCONT   00    00000000000          00000000000000000000000000000000000000000000 000000000000000A000000000000000000000000000000000000000000000 000000000000000000000000000000000000000     00000000                                                                                                                        000000000000000000
F0010000006983700002000003274768400041450500000000000000000201503310002001MARELBIS RAMOS                                    C000000003900000000000000000000000100010010000000000000000000000F0010000006983700220150331000101 00000000000000000000000000000000000000000000000000000000000000000000000000000000000000000000000000000000000000000N 00000000000NCONT   00    00000000000          00000000000000000000000000000000000000000000 000000000000000A000000000000000000000000000000000000000000000 000000000000000000000000000000000000000     00000000                                                                                                                        000000000000000000
F0010000006983700003000003274768400042505000000000000000000201503310002001MARELBIS RAMOS                                    C000000000100000000000000000000000100010010000000000000000000000F0010000006983700320150331000101 00000000000000000000000000000000000000000000000000000000000000000000000000000000000000000000000000000000000000000N 00000000000NCONT   00    00000000000          00000000000000000000000000000000000000000000 000000000000000A000000000000000000000000000000000000000000000 000000000000000000000000000000000000000     00000000                                                                                                                        000000000000000000
F0010000006983700004000003274768400023658300000000000000000201503310002001MARELBIS RAMOS                                    C000000000031200000000000000000000100010010000000000000000000000F0010000006983700420150331000101 00000000000000000000000000000000000000000000000000000000000000000000000000000000000000000000000000000000000000000N 00000000000NCONT   00    00000000000          00000000000000000000000000000000000000000000 000000000000000A000000000000000000000000000000000000000000000 000000000000000000000000000000000000000     00000000                                                                                                                        000000000000000000
F0010000006983700005000003274768400013552100000000000000000201503310002001MARELBIS RAMOS                                    D000000000031200000000000000000000100010010000000000000000000000F0010000006983700520150331000101 00000000000000000000000000000000000000000000000000000000000000000000000000000000000000000000000000000000000000000N 00000000000NCONT   00    00000000000          00000000000000000000000000000000000000000000 000000000000000A000000000000000000000000000000000000000000000 000000000000000000000000000000000000000     00000000                                                                                                                        000000000000000000
F0010000006983800001000007213653800011050500000000000000000201503310002001VICTOR ECHAVEZ                                    D000000002300000000000000000000000100010010000000000000000000000F0010000006983800120150331000101 00000000000000000000000000000000000000000000000000000000000000000000000000000000000000000000000000000000000000000N 00000000000NCONT   00    00000000000          00000000000000000000000000000000000000000000 000000000000000A000000000000000000000000000000000000000000000 000000000000000000000000000000000000000     00000000                                                                                                                        000000000000000000
F0010000006983800002000007213653800041450500000000000000000201503310002001VICTOR ECHAVEZ                                    C000000001800000000000000000000000100010010000000000000000000000F0010000006983800220150331000101 00000000000000000000000000000000000000000000000000000000000000000000000000000000000000000000000000000000000000000N 00000000000NCONT   00    00000000000          00000000000000000000000000000000000000000000 000000000000000A000000000000000000000000000000000000000000000 000000000000000000000000000000000000000     00000000                                                                                                                        000000000000000000
F0010000006983800003000007213653800042505000000000000000000201503310002001VICTOR ECHAVEZ                                    C000000000500000000000000000000000100010010000000000000000000000F0010000006983800320150331000101 00000000000000000000000000000000000000000000000000000000000000000000000000000000000000000000000000000000000000000N 00000000000NCONT   00    00000000000          00000000000000000000000000000000000000000000 000000000000000A000000000000000000000000000000000000000000000 000000000000000000000000000000000000000     00000000                                                                                                                        000000000000000000
F0010000006983800004000007213653800023658300000000000000000201503310002001VICTOR ECHAVEZ                                    C000000000014400000000000000000000100010010000000000000000000000F0010000006983800420150331000101 00000000000000000000000000000000000000000000000000000000000000000000000000000000000000000000000000000000000000000N 00000000000NCONT   00    00000000000          00000000000000000000000000000000000000000000 000000000000000A000000000000000000000000000000000000000000000 000000000000000000000000000000000000000     00000000                                                                                                                        000000000000000000
F0010000006983800005000007213653800013552100000000000000000201503310002001VICTOR ECHAVEZ                                    D000000000014400000000000000000000100010010000000000000000000000F0010000006983800520150331000101 00000000000000000000000000000000000000000000000000000000000000000000000000000000000000000000000000000000000000000N 00000000000NCONT   00    00000000000          00000000000000000000000000000000000000000000 000000000000000A000000000000000000000000000000000000000000000 000000000000000000000000000000000000000     00000000                                                                                                                        000000000000000000
F0010000006983900001000080201703900011050500000000000000000201503310002001MUNDIAL CHEMICAL LTDA                             D000000002700000000000000000000000100010010000000000000000000000F0010000006983900120150331000101 00000000000000000000000000000000000000000000000000000000000000000000000000000000000000000000000000000000000000000N 00000000000NCONT   00    00000000000          00000000000000000000000000000000000000000000 000000000000000A000000000000000000000000000000000000000000000 000000000000000000000000000000000000000     00000000                                                                                                                        000000000000000000
F0010000006983900002000080201703900041450500000000000000000201503310002001MUNDIAL CHEMICAL LTDA                             C000000002500000000000000000000000100010010000000000000000000000F0010000006983900220150331000101 00000000000000000000000000000000000000000000000000000000000000000000000000000000000000000000000000000000000000000N 00000000000NCONT   00    00000000000          00000000000000000000000000000000000000000000 000000000000000A000000000000000000000000000000000000000000000 000000000000000000000000000000000000000     00000000                                                                                                                        000000000000000000
F0010000006983900003000080201703900042505000000000000000000201503310002001MUNDIAL CHEMICAL LTDA                             C000000000200000000000000000000000100010010000000000000000000000F0010000006983900320150331000101 00000000000000000000000000000000000000000000000000000000000000000000000000000000000000000000000000000000000000000N 00000000000NCONT   00    00000000000          00000000000000000000000000000000000000000000 000000000000000A000000000000000000000000000000000000000000000 000000000000000000000000000000000000000     00000000                                                                                                                        000000000000000000
F0010000006983900004000080201703900023658300000000000000000201503310002001MUNDIAL CHEMICAL LTDA                             C000000000020000000000000000000000100010010000000000000000000000F0010000006983900420150331000101 00000000000000000000000000000000000000000000000000000000000000000000000000000000000000000000000000000000000000000N 00000000000NCONT   00    00000000000          00000000000000000000000000000000000000000000 000000000000000A000000000000000000000000000000000000000000000 000000000000000000000000000000000000000     00000000                                                                                                                        000000000000000000
F0010000006983900005000080201703900013552100000000000000000201503310002001MUNDIAL CHEMICAL LTDA                             D000000000020000000000000000000000100010010000000000000000000000F0010000006983900520150331000101 00000000000000000000000000000000000000000000000000000000000000000000000000000000000000000000000000000000000000000N 00000000000NCONT   00    00000000000          00000000000000000000000000000000000000000000 000000000000000A000000000000000000000000000000000000000000000 000000000000000000000000000000000000000     00000000                                                                                                                        000000000000000000
F0010000006984000001000090034602400011050500000000000000000201503310002001LA CUSTODIA                                       D000000002000000000000000000000000100010010000000000000000000000F0010000006984000120150331000101 00000000000000000000000000000000000000000000000000000000000000000000000000000000000000000000000000000000000000000N 00000000000NCONT   00    00000000000          00000000000000000000000000000000000000000000 000000000000000A000000000000000000000000000000000000000000000 000000000000000000000000000000000000000     00000000                                                                                                                        000000000000000000
F0010000006984000002000090034602400041450500000000000000000201503310002001LA CUSTODIA                                       C000000001800000000000000000000000100010010000000000000000000000F0010000006984000220150331000101 00000000000000000000000000000000000000000000000000000000000000000000000000000000000000000000000000000000000000000N 00000000000NCONT   00    00000000000          00000000000000000000000000000000000000000000 000000000000000A000000000000000000000000000000000000000000000 000000000000000000000000000000000000000     00000000                                                                                                                        000000000000000000
F0010000006984000003000090034602400042505000000000000000000201503310002001LA CUSTODIA                                       C000000000200000000000000000000000100010010000000000000000000000F0010000006984000320150331000101 00000000000000000000000000000000000000000000000000000000000000000000000000000000000000000000000000000000000000000N 00000000000NCONT   00    00000000000          00000000000000000000000000000000000000000000 000000000000000A000000000000000000000000000000000000000000000 000000000000000000000000000000000000000     00000000                                                                                                                        000000000000000000
F0010000006984000004000090034602400023658300000000000000000201503310002001LA CUSTODIA                                       C000000000014400000000000000000000100010010000000000000000000000F0010000006984000420150331000101 00000000000000000000000000000000000000000000000000000000000000000000000000000000000000000000000000000000000000000N 00000000000NCONT   00    00000000000          00000000000000000000000000000000000000000000 000000000000000A000000000000000000000000000000000000000000000 000000000000000000000000000000000000000     00000000                                                                                                                        000000000000000000
F0010000006984000005000090034602400013552100000000000000000201503310002001LA CUSTODIA                                       D000000000014400000000000000000000100010010000000000000000000000F0010000006984000520150331000101 00000000000000000000000000000000000000000000000000000000000000000000000000000000000000000000000000000000000000000N 00000000000NCONT   00    00000000000          00000000000000000000000000000000000000000000 000000000000000A000000000000000000000000000000000000000000000 000000000000000000000000000000000000000     00000000                                                                                                                        000000000000000000
F0010000006984100001000090015305700011050500000000000000000201503310002001PLASTICOS Y SERVICIOS BARRANQUILLA EU             D000000003700000000000000000000000100010010000000000000000000000F0010000006984100120150331000101 00000000000000000000000000000000000000000000000000000000000000000000000000000000000000000000000000000000000000000N 00000000000NCONT   00    00000000000          00000000000000000000000000000000000000000000 000000000000000A000000000000000000000000000000000000000000000 000000000000000000000000000000000000000     00000000                                                                                                                        000000000000000000
F0010000006984100002000090015305700041450500000000000000000201503310002001PLASTICOS Y SERVICIOS BARRANQUILLA EU             C000000002900000000000000000000000100010010000000000000000000000F0010000006984100220150331000101 00000000000000000000000000000000000000000000000000000000000000000000000000000000000000000000000000000000000000000N 00000000000NCONT   00    00000000000          00000000000000000000000000000000000000000000 000000000000000A000000000000000000000000000000000000000000000 000000000000000000000000000000000000000     00000000                                                                                                                        000000000000000000
F0010000006984100003000090015305700042505000000000000000000201503310002001PLASTICOS Y SERVICIOS BARRANQUILLA EU             C000000000800000000000000000000000100010010000000000000000000000F0010000006984100320150331000101 00000000000000000000000000000000000000000000000000000000000000000000000000000000000000000000000000000000000000000N 00000000000NCONT   00    00000000000          00000000000000000000000000000000000000000000 000000000000000A000000000000000000000000000000000000000000000 000000000000000000000000000000000000000     00000000                                                                                                                        000000000000000000
F0010000006984100004000090015305700023658300000000000000000201503310002001PLASTICOS Y SERVICIOS BARRANQUILLA EU             C000000000023200000000000000000000100010010000000000000000000000F0010000006984100420150331000101 00000000000000000000000000000000000000000000000000000000000000000000000000000000000000000000000000000000000000000N 00000000000NCONT   00    00000000000          00000000000000000000000000000000000000000000 000000000000000A000000000000000000000000000000000000000000000 000000000000000000000000000000000000000     00000000                                                                                                                        000000000000000000
F0010000006984100005000090015305700013552100000000000000000201503310002001PLASTICOS Y SERVICIOS BARRANQUILLA EU             D000000000023200000000000000000000100010010000000000000000000000F0010000006984100520150331000101 00000000000000000000000000000000000000000000000000000000000000000000000000000000000000000000000000000000000000000N 00000000000NCONT   00    00000000000          00000000000000000000000000000000000000000000 000000000000000A000000000000000000000000000000000000000000000 000000000000000000000000000000000000000     00000000                                                                                                                        000000000000000000
F0010000006984200001000080200075000011050500000000000000000201503310002001DISPROGOL LTDA                                    D000000001400000000000000000000000100010010000000000000000000000F0010000006984200120150331000101 00000000000000000000000000000000000000000000000000000000000000000000000000000000000000000000000000000000000000000N 00000000000NCONT   00    00000000000          00000000000000000000000000000000000000000000 000000000000000A000000000000000000000000000000000000000000000 000000000000000000000000000000000000000     00000000                                                                                                                        000000000000000000
F0010000006984200002000080200075000041450500000000000000000201503310002001DISPROGOL LTDA                                    C000000001300000000000000000000000100010010000000000000000000000F0010000006984200220150331000101 00000000000000000000000000000000000000000000000000000000000000000000000000000000000000000000000000000000000000000N 00000000000NCONT   00    00000000000          00000000000000000000000000000000000000000000 000000000000000A000000000000000000000000000000000000000000000 000000000000000000000000000000000000000     00000000                                                                                                                        000000000000000000
F0010000006984200003000080200075000042505000000000000000000201503310002001DISPROGOL LTDA                                    C000000000100000000000000000000000100010010000000000000000000000F0010000006984200320150331000101 00000000000000000000000000000000000000000000000000000000000000000000000000000000000000000000000000000000000000000N 00000000000NCONT   00    00000000000          00000000000000000000000000000000000000000000 000000000000000A000000000000000000000000000000000000000000000 000000000000000000000000000000000000000     00000000                                                                                                                        000000000000000000
F0010000006984200004000080200075000023658300000000000000000201503310002001DISPROGOL LTDA                                    C000000000010400000000000000000000100010010000000000000000000000F0010000006984200420150331000101 00000000000000000000000000000000000000000000000000000000000000000000000000000000000000000000000000000000000000000N 00000000000NCONT   00    00000000000          00000000000000000000000000000000000000000000 000000000000000A000000000000000000000000000000000000000000000 000000000000000000000000000000000000000     00000000                                                                                                                        000000000000000000
F0010000006984200005000080200075000013552100000000000000000201503310002001DISPROGOL LTDA                                    D000000000010400000000000000000000100010010000000000000000000000F0010000006984200520150331000101 00000000000000000000000000000000000000000000000000000000000000000000000000000000000000000000000000000000000000000N 00000000000NCONT   00    00000000000          00000000000000000000000000000000000000000000 000000000000000A000000000000000000000000000000000000000000000 000000000000000000000000000000000000000     00000000                                                                                                                        000000000000000000
F0010000006984300001000000431178400011050500000000000000000201503310002001EFRAIN ALVAREZ                                    D000000001895000000000000000000000100010010000000000000000000000F0010000006984300120150331000101 00000000000000000000000000000000000000000000000000000000000000000000000000000000000000000000000000000000000000000N 00000000000NCONT   00    00000000000          00000000000000000000000000000000000000000000 000000000000000A000000000000000000000000000000000000000000000 000000000000000000000000000000000000000     00000000                                                                                                                        000000000000000000
F0010000006984300002000000431178400041450500000000000000000201503310002001EFRAIN ALVAREZ                                    C000000001720000000000000000000000100010010000000000000000000000F0010000006984300220150331000101 00000000000000000000000000000000000000000000000000000000000000000000000000000000000000000000000000000000000000000N 00000000000NCONT   00    00000000000          00000000000000000000000000000000000000000000 000000000000000A000000000000000000000000000000000000000000000 000000000000000000000000000000000000000     00000000                                                                                                                        000000000000000000
F0010000006984300003000000431178400042505000000000000000000201503310002001EFRAIN ALVAREZ                                    C000000000175000000000000000000000100010010000000000000000000000F0010000006984300320150331000101 00000000000000000000000000000000000000000000000000000000000000000000000000000000000000000000000000000000000000000N 00000000000NCONT   00    00000000000          00000000000000000000000000000000000000000000 000000000000000A000000000000000000000000000000000000000000000 000000000000000000000000000000000000000     00000000                                                                                                                        000000000000000000
F0010000006984300004000000431178400023658300000000000000000201503310002001EFRAIN ALVAREZ                                    C000000000013800000000000000000000100010010000000000000000000000F0010000006984300420150331000101 00000000000000000000000000000000000000000000000000000000000000000000000000000000000000000000000000000000000000000N 00000000000NCONT   00    00000000000          00000000000000000000000000000000000000000000 000000000000000A000000000000000000000000000000000000000000000 000000000000000000000000000000000000000     00000000                                                                                                                        000000000000000000
F0010000006984300005000000431178400013552100000000000000000201503310002001EFRAIN ALVAREZ                                    D000000000013800000000000000000000100010010000000000000000000000F0010000006984300520150331000101 00000000000000000000000000000000000000000000000000000000000000000000000000000000000000000000000000000000000000000N 00000000000NCONT   00    00000000000          00000000000000000000000000000000000000000000 000000000000000A000000000000000000000000000000000000000000000 000000000000000000000000000000000000000     00000000                                                                                                                        000000000000000000
F0010000006984400001000000431178400011050500000000000000000201503310002001EFRAIN ALVAREZ                                    D000000000935000000000000000000000100010010000000000000000000000F0010000006984400120150331000101 00000000000000000000000000000000000000000000000000000000000000000000000000000000000000000000000000000000000000000N 00000000000NCONT   00    00000000000          00000000000000000000000000000000000000000000 000000000000000A000000000000000000000000000000000000000000000 000000000000000000000000000000000000000     00000000                                                                                                                        000000000000000000
F0010000006984400002000000431178400041450500000000000000000201503310002001EFRAIN ALVAREZ                                    C000000000860000000000000000000000100010010000000000000000000000F0010000006984400220150331000101 00000000000000000000000000000000000000000000000000000000000000000000000000000000000000000000000000000000000000000N 00000000000NCONT   00    00000000000          00000000000000000000000000000000000000000000 000000000000000A000000000000000000000000000000000000000000000 000000000000000000000000000000000000000     00000000                                                                                                                        000000000000000000
F0010000006984400003000000431178400042505000000000000000000201503310002001EFRAIN ALVAREZ                                    C000000000075000000000000000000000100010010000000000000000000000F0010000006984400320150331000101 00000000000000000000000000000000000000000000000000000000000000000000000000000000000000000000000000000000000000000N 00000000000NCONT   00    00000000000          00000000000000000000000000000000000000000000 000000000000000A000000000000000000000000000000000000000000000 000000000000000000000000000000000000000     00000000                                                                                                                        000000000000000000
F0010000006984400004000000431178400023658300000000000000000201503310002001EFRAIN ALVAREZ                                    C000000000006900000000000000000000100010010000000000000000000000F0010000006984400420150331000101 00000000000000000000000000000000000000000000000000000000000000000000000000000000000000000000000000000000000000000N 00000000000NCONT   00    00000000000          00000000000000000000000000000000000000000000 000000000000000A000000000000000000000000000000000000000000000 000000000000000000000000000000000000000     00000000                                                                                                                        000000000000000000
F0010000006984400005000000431178400013552100000000000000000201503310002001EFRAIN ALVAREZ                                    D000000000006900000000000000000000100010010000000000000000000000F0010000006984400520150331000101 00000000000000000000000000000000000000000000000000000000000000000000000000000000000000000000000000000000000000000N 00000000000NCONT   00    00000000000          00000000000000000000000000000000000000000000 000000000000000A000000000000000000000000000000000000000000000 000000000000000000000000000000000000000     00000000                                                                                                                        000000000000000000
F0010000006984500001000000431178400011050500000000000000000201503310002001EFRAIN ALVAREZ                                    D000000000910000000000000000000000100010010000000000000000000000F0010000006984500120150331000101 00000000000000000000000000000000000000000000000000000000000000000000000000000000000000000000000000000000000000000N 00000000000NCONT   00    00000000000          00000000000000000000000000000000000000000000 000000000000000A000000000000000000000000000000000000000000000 000000000000000000000000000000000000000     00000000                                                                                                                        000000000000000000
F0010000006984500002000000431178400041450500000000000000000201503310002001EFRAIN ALVAREZ                                    C000000000860000000000000000000000100010010000000000000000000000F0010000006984500220150331000101 00000000000000000000000000000000000000000000000000000000000000000000000000000000000000000000000000000000000000000N 00000000000NCONT   00    00000000000          00000000000000000000000000000000000000000000 000000000000000A000000000000000000000000000000000000000000000 000000000000000000000000000000000000000     00000000                                                                                                                        000000000000000000
F0010000006984500003000000431178400042505000000000000000000201503310002001EFRAIN ALVAREZ                                    C000000000050000000000000000000000100010010000000000000000000000F0010000006984500320150331000101 00000000000000000000000000000000000000000000000000000000000000000000000000000000000000000000000000000000000000000N 00000000000NCONT   00    00000000000          00000000000000000000000000000000000000000000 000000000000000A000000000000000000000000000000000000000000000 000000000000000000000000000000000000000     00000000                                                                                                                        000000000000000000
F0010000006984500004000000431178400023658300000000000000000201503310002001EFRAIN ALVAREZ                                    C000000000006900000000000000000000100010010000000000000000000000F0010000006984500420150331000101 00000000000000000000000000000000000000000000000000000000000000000000000000000000000000000000000000000000000000000N 00000000000NCONT   00    00000000000          00000000000000000000000000000000000000000000 000000000000000A000000000000000000000000000000000000000000000 000000000000000000000000000000000000000     00000000                                                                                                                        000000000000000000
F0010000006984500005000000431178400013552100000000000000000201503310002001EFRAIN ALVAREZ                                    D000000000006900000000000000000000100010010000000000000000000000F0010000006984500520150331000101 00000000000000000000000000000000000000000000000000000000000000000000000000000000000000000000000000000000000000000N 00000000000NCONT   00    00000000000          00000000000000000000000000000000000000000000 000000000000000A000000000000000000000000000000000000000000000 000000000000000000000000000000000000000     00000000                                                                                                                        000000000000000000
F0010000006984600001000000431178400011050500000000000000000201503310002001EFRAIN ALVAREZ                                    D000000000985000000000000000000000100010010000000000000000000000F0010000006984600120150331000101 00000000000000000000000000000000000000000000000000000000000000000000000000000000000000000000000000000000000000000N 00000000000NCONT   00    00000000000          00000000000000000000000000000000000000000000 000000000000000A000000000000000000000000000000000000000000000 000000000000000000000000000000000000000     00000000                                                                                                                        000000000000000000
F0010000006984600002000000431178400041450500000000000000000201503310002001EFRAIN ALVAREZ                                    C000000000860000000000000000000000100010010000000000000000000000F0010000006984600220150331000101 00000000000000000000000000000000000000000000000000000000000000000000000000000000000000000000000000000000000000000N 00000000000NCONT   00    00000000000          00000000000000000000000000000000000000000000 000000000000000A000000000000000000000000000000000000000000000 000000000000000000000000000000000000000     00000000                                                                                                                        000000000000000000
F0010000006984600003000000431178400042505000000000000000000201503310002001EFRAIN ALVAREZ                                    C000000000125000000000000000000000100010010000000000000000000000F0010000006984600320150331000101 00000000000000000000000000000000000000000000000000000000000000000000000000000000000000000000000000000000000000000N 00000000000NCONT   00    00000000000          00000000000000000000000000000000000000000000 000000000000000A000000000000000000000000000000000000000000000 000000000000000000000000000000000000000     00000000                                                                                                                        000000000000000000
F0010000006984600004000000431178400023658300000000000000000201503310002001EFRAIN ALVAREZ                                    C000000000006900000000000000000000100010010000000000000000000000F0010000006984600420150331000101 00000000000000000000000000000000000000000000000000000000000000000000000000000000000000000000000000000000000000000N 00000000000NCONT   00    00000000000          00000000000000000000000000000000000000000000 000000000000000A000000000000000000000000000000000000000000000 000000000000000000000000000000000000000     00000000                                                                                                                        000000000000000000
F0010000006984600005000000431178400013552100000000000000000201503310002001EFRAIN ALVAREZ                                    D000000000006900000000000000000000100010010000000000000000000000F0010000006984600520150331000101 00000000000000000000000000000000000000000000000000000000000000000000000000000000000000000000000000000000000000000N 00000000000NCONT   00    00000000000          00000000000000000000000000000000000000000000 000000000000000A000000000000000000000000000000000000000000000 000000000000000000000000000000000000000     00000000                                                                                                                        000000000000000000
F0010000006984700001000000431178400011050500000000000000000201503310002001EFRAIN ALVAREZ                                    D000000001010000000000000000000000100010010000000000000000000000F0010000006984700120150331000101 00000000000000000000000000000000000000000000000000000000000000000000000000000000000000000000000000000000000000000N 00000000000NCONT   00    00000000000          00000000000000000000000000000000000000000000 000000000000000A000000000000000000000000000000000000000000000 000000000000000000000000000000000000000     00000000                                                                                                                        000000000000000000
F0010000006984700002000000431178400041450500000000000000000201503310002001EFRAIN ALVAREZ                                    C000000000860000000000000000000000100010010000000000000000000000F0010000006984700220150331000101 00000000000000000000000000000000000000000000000000000000000000000000000000000000000000000000000000000000000000000N 00000000000NCONT   00    00000000000          00000000000000000000000000000000000000000000 000000000000000A000000000000000000000000000000000000000000000 000000000000000000000000000000000000000     00000000                                                                                                                        000000000000000000
F0010000006984700003000000431178400042505000000000000000000201503310002001EFRAIN ALVAREZ                                    C000000000150000000000000000000000100010010000000000000000000000F0010000006984700320150331000101 00000000000000000000000000000000000000000000000000000000000000000000000000000000000000000000000000000000000000000N 00000000000NCONT   00    00000000000          00000000000000000000000000000000000000000000 000000000000000A000000000000000000000000000000000000000000000 000000000000000000000000000000000000000     00000000                                                                                                                        000000000000000000
F0010000006984700004000000431178400023658300000000000000000201503310002001EFRAIN ALVAREZ                                    C000000000006900000000000000000000100010010000000000000000000000F0010000006984700420150331000101 00000000000000000000000000000000000000000000000000000000000000000000000000000000000000000000000000000000000000000N 00000000000NCONT   00    00000000000          00000000000000000000000000000000000000000000 000000000000000A000000000000000000000000000000000000000000000 000000000000000000000000000000000000000     00000000                                                                                                                        000000000000000000
F0010000006984700005000000431178400013552100000000000000000201503310002001EFRAIN ALVAREZ                                    D000000000006900000000000000000000100010010000000000000000000000F0010000006984700520150331000101 00000000000000000000000000000000000000000000000000000000000000000000000000000000000000000000000000000000000000000N 00000000000NCONT   00    00000000000          00000000000000000000000000000000000000000000 000000000000000A000000000000000000000000000000000000000000000 000000000000000000000000000000000000000     00000000                                                                                                                        000000000000000000
F0010000006984800001000001022529300011050500000000000000000201503310002001ALBERTO ALVAREZ ISAZA                             D000000000430000000000000000000000100010010000000000000000000000F0010000006984800120150331000101 00000000000000000000000000000000000000000000000000000000000000000000000000000000000000000000000000000000000000000N 00000000000NCONT   00    00000000000          00000000000000000000000000000000000000000000 000000000000000A000000000000000000000000000000000000000000000 000000000000000000000000000000000000000     00000000                                                                                                                        000000000000000000
F0010000006984800002000001022529300041450500000000000000000201503310002001ALBERTO ALVAREZ ISAZA                             C000000000380000000000000000000000100010010000000000000000000000F0010000006984800220150331000101 00000000000000000000000000000000000000000000000000000000000000000000000000000000000000000000000000000000000000000N 00000000000NCONT   00    00000000000          00000000000000000000000000000000000000000000 000000000000000A000000000000000000000000000000000000000000000 000000000000000000000000000000000000000     00000000                                                                                                                        000000000000000000
