F0010000008284800001000083008772100013050500000000000000000201602220002001ILUMEC SAS                                        D000000046542500000000000000000000100010010000000000000000000000F0010000008284800120160222000101 00000000000000000000000000000000000000000000000000000000000000000000000000000000000000000000000000000000000000000N 00000000000NCONT   00    00000000000          00000000000000000000000000000000000000000000 000000000000000A000000000000000000000000000000000000000000000 000000000000000000000000000000000000000     00000000                                                                                                                        000000000000000000
F0010000008284800002000083008772100041450500000000000000000201602220002001ILUMEC SAS                                        C000000029942500000000000000000000100010010000000000000000000000F0010000008284800220160222000101 00000000000000000000000000000000000000000000000000000000000000000000000000000000000000000000000000000000000000000N 00000000000NCONT   00    00000000000          00000000000000000000000000000000000000000000 000000000000000A000000000000000000000000000000000000000000000 000000000000000000000000000000000000000     00000000                                                                                                                        000000000000000000
F0010000008284800003000083008772100042505000000000000000000201602220002001ILUMEC SAS                                        C000000016600000000000000000000000100010010000000000000000000000F0010000008284800320160222000101 00000000000000000000000000000000000000000000000000000000000000000000000000000000000000000000000000000000000000000N 00000000000NCONT   00    00000000000          00000000000000000000000000000000000000000000 000000000000000A000000000000000000000000000000000000000000000 000000000000000000000000000000000000000     00000000                                                                                                                        000000000000000000
F0010000008284800004000083008772100023658300000000000000000201602220002001ILUMEC SAS                                        C000000000239500000000000000000000100010010000000000000000000000F0010000008284800420160222000101 00000000000000000000000000000000000000000000000000000000000000000000000000000000000000000000000000000000000000000N 00000000000NCONT   00    00000000000          00000000000000000000000000000000000000000000 000000000000000A000000000000000000000000000000000000000000000 000000000000000000000000000000000000000     00000000                                                                                                                        000000000000000000
F0010000008284800005000083008772100013552100000000000000000201602220002001ILUMEC SAS                                        D000000000239500000000000000000000100010010000000000000000000000F0010000008284800520160222000101 00000000000000000000000000000000000000000000000000000000000000000000000000000000000000000000000000000000000000000N 00000000000NCONT   00    00000000000          00000000000000000000000000000000000000000000 000000000000000A000000000000000000000000000000000000000000000 000000000000000000000000000000000000000     00000000                                                                                                                        000000000000000000
F0010000008284900001000080002300200013050500000000000000000201602220002001DISREL S.A.                                       D000000016400000000000000000000000100010010000000000000000000000F0010000008284900120160222000101 00000000000000000000000000000000000000000000000000000000000000000000000000000000000000000000000000000000000000000N 00000000000NCONT   00    00000000000          00000000000000000000000000000000000000000000 000000000000000A000000000000000000000000000000000000000000000 000000000000000000000000000000000000000     00000000                                                                                                                        000000000000000000
F0010000008284900002000080002300200041450500000000000000000201602220002001DISREL S.A.                                       C000000013620000000000000000000000100010010000000000000000000000F0010000008284900220160222000101 00000000000000000000000000000000000000000000000000000000000000000000000000000000000000000000000000000000000000000N 00000000000NCONT   00    00000000000          00000000000000000000000000000000000000000000 000000000000000A000000000000000000000000000000000000000000000 000000000000000000000000000000000000000     00000000                                                                                                                        000000000000000000
F0010000008284900003000080002300200042505000000000000000000201602220002001DISREL S.A.                                       C000000002780000000000000000000000100010010000000000000000000000F0010000008284900320160222000101 00000000000000000000000000000000000000000000000000000000000000000000000000000000000000000000000000000000000000000N 00000000000NCONT   00    00000000000          00000000000000000000000000000000000000000000 000000000000000A000000000000000000000000000000000000000000000 000000000000000000000000000000000000000     00000000                                                                                                                        000000000000000000
F0010000008284900004000080002300200023658300000000000000000201602220002001DISREL S.A.                                       C000000000109000000000000000000000100010010000000000000000000000F0010000008284900420160222000101 00000000000000000000000000000000000000000000000000000000000000000000000000000000000000000000000000000000000000000N 00000000000NCONT   00    00000000000          00000000000000000000000000000000000000000000 000000000000000A000000000000000000000000000000000000000000000 000000000000000000000000000000000000000     00000000                                                                                                                        000000000000000000
F0010000008284900005000080002300200013552100000000000000000201602220002001DISREL S.A.                                       D000000000109000000000000000000000100010010000000000000000000000F0010000008284900520160222000101 00000000000000000000000000000000000000000000000000000000000000000000000000000000000000000000000000000000000000000N 00000000000NCONT   00    00000000000          00000000000000000000000000000000000000000000 000000000000000A000000000000000000000000000000000000000000000 000000000000000000000000000000000000000     00000000                                                                                                                        000000000000000000
F0010000008285000001000000748239700013050500000000000000000201602220002001RAFAEL NAVARRO URIBE                              D000000123804300000000000000000000100010010000000000000000000000F0010000008285000120160222000101 00000000000000000000000000000000000000000000000000000000000000000000000000000000000000000000000000000000000000000N 00000000000NCONT   00    00000000000          00000000000000000000000000000000000000000000 000000000000000A000000000000000000000000000000000000000000000 000000000000000000000000000000000000000     00000000                                                                                                                        000000000000000000
F0010000008285000002000000748239700041450500000000000000000201602220002001RAFAEL NAVARRO URIBE                              C000000085350000000000000000000000100010010000000000000000000000F0010000008285000220160222000101 00000000000000000000000000000000000000000000000000000000000000000000000000000000000000000000000000000000000000000N 00000000000NCONT   00    00000000000          00000000000000000000000000000000000000000000 000000000000000A000000000000000000000000000000000000000000000 000000000000000000000000000000000000000     00000000                                                                                                                        000000000000000000
F0010000008285000003000000748239700042505000000000000000000201602220002001RAFAEL NAVARRO URIBE                              C000000038454300000000000000000000100010010000000000000000000000F0010000008285000320160222000101 00000000000000000000000000000000000000000000000000000000000000000000000000000000000000000000000000000000000000000N 00000000000NCONT   00    00000000000          00000000000000000000000000000000000000000000 000000000000000A000000000000000000000000000000000000000000000 000000000000000000000000000000000000000     00000000                                                                                                                        000000000000000000
F0010000008285000004000000748239700023658300000000000000000201602220002001RAFAEL NAVARRO URIBE                              C000000000682800000000000000000000100010010000000000000000000000F0010000008285000420160222000101 00000000000000000000000000000000000000000000000000000000000000000000000000000000000000000000000000000000000000000N 00000000000NCONT   00    00000000000          00000000000000000000000000000000000000000000 000000000000000A000000000000000000000000000000000000000000000 000000000000000000000000000000000000000     00000000                                                                                                                        000000000000000000
F0010000008285000005000000748239700013552100000000000000000201602220002001RAFAEL NAVARRO URIBE                              D000000000682800000000000000000000100010010000000000000000000000F0010000008285000520160222000101 00000000000000000000000000000000000000000000000000000000000000000000000000000000000000000000000000000000000000000N 00000000000NCONT   00    00000000000          00000000000000000000000000000000000000000000 000000000000000A000000000000000000000000000000000000000000000 000000000000000000000000000000000000000     00000000                                                                                                                        000000000000000000
F0010000008285100001000089070997800013050500000000000000000201602220002001CENTRAL DE TORNILLOS                              D000000016380000000000000000000000100010010000000000000000000000F0010000008285100120160222000101 00000000000000000000000000000000000000000000000000000000000000000000000000000000000000000000000000000000000000000N 00000000000NCONT   00    00000000000          00000000000000000000000000000000000000000000 000000000000000A000000000000000000000000000000000000000000000 000000000000000000000000000000000000000     00000000                                                                                                                        000000000000000000
F0010000008285100002000089070997800041450500000000000000000201602220002001CENTRAL DE TORNILLOS                              C000000014580000000000000000000000100010010000000000000000000000F0010000008285100220160222000101 00000000000000000000000000000000000000000000000000000000000000000000000000000000000000000000000000000000000000000N 00000000000NCONT   00    00000000000          00000000000000000000000000000000000000000000 000000000000000A000000000000000000000000000000000000000000000 000000000000000000000000000000000000000     00000000                                                                                                                        000000000000000000
F0010000008285100003000089070997800042505000000000000000000201602220002001CENTRAL DE TORNILLOS                              C000000001800000000000000000000000100010010000000000000000000000F0010000008285100320160222000101 00000000000000000000000000000000000000000000000000000000000000000000000000000000000000000000000000000000000000000N 00000000000NCONT   00    00000000000          00000000000000000000000000000000000000000000 000000000000000A000000000000000000000000000000000000000000000 000000000000000000000000000000000000000     00000000                                                                                                                        000000000000000000
F0010000008285100004000089070997800023658300000000000000000201602220002001CENTRAL DE TORNILLOS                              C000000000116600000000000000000000100010010000000000000000000000F0010000008285100420160222000101 00000000000000000000000000000000000000000000000000000000000000000000000000000000000000000000000000000000000000000N 00000000000NCONT   00    00000000000          00000000000000000000000000000000000000000000 000000000000000A000000000000000000000000000000000000000000000 000000000000000000000000000000000000000     00000000                                                                                                                        000000000000000000
F0010000008285100005000089070997800013552100000000000000000201602220002001CENTRAL DE TORNILLOS                              D000000000116600000000000000000000100010010000000000000000000000F0010000008285100520160222000101 00000000000000000000000000000000000000000000000000000000000000000000000000000000000000000000000000000000000000000N 00000000000NCONT   00    00000000000          00000000000000000000000000000000000000000000 000000000000000A000000000000000000000000000000000000000000000 000000000000000000000000000000000000000     00000000                                                                                                                        000000000000000000
F0010000008285200001000080200069100013050500000000000000000201602220002001PEGANTES Y PINTURAS ATLAS LTDA                    D000000008137900000000000000000000100010010000000000000000000000F0010000008285200120160222000101 00000000000000000000000000000000000000000000000000000000000000000000000000000000000000000000000000000000000000000N 00000000000NCONT   00    00000000000          00000000000000000000000000000000000000000000 000000000000000A000000000000000000000000000000000000000000000 000000000000000000000000000000000000000     00000000                                                                                                                        000000000000000000
F0010000008285200002000080200069100041450500000000000000000201602220002001PEGANTES Y PINTURAS ATLAS LTDA                    C000000007000000000000000000000000100010010000000000000000000000F0010000008285200220160222000101 00000000000000000000000000000000000000000000000000000000000000000000000000000000000000000000000000000000000000000N 00000000000NCONT   00    00000000000          00000000000000000000000000000000000000000000 000000000000000A000000000000000000000000000000000000000000000 000000000000000000000000000000000000000     00000000                                                                                                                        000000000000000000
F0010000008285200003000080200069100042505000000000000000000201602220002001PEGANTES Y PINTURAS ATLAS LTDA                    C000000001137900000000000000000000100010010000000000000000000000F0010000008285200320160222000101 00000000000000000000000000000000000000000000000000000000000000000000000000000000000000000000000000000000000000000N 00000000000NCONT   00    00000000000          00000000000000000000000000000000000000000000 000000000000000A000000000000000000000000000000000000000000000 000000000000000000000000000000000000000     00000000                                                                                                                        000000000000000000
F0010000008285200004000080200069100023658300000000000000000201602220002001PEGANTES Y PINTURAS ATLAS LTDA                    C000000000056000000000000000000000100010010000000000000000000000F0010000008285200420160222000101 00000000000000000000000000000000000000000000000000000000000000000000000000000000000000000000000000000000000000000N 00000000000NCONT   00    00000000000          00000000000000000000000000000000000000000000 000000000000000A000000000000000000000000000000000000000000000 000000000000000000000000000000000000000     00000000                                                                                                                        000000000000000000
F0010000008285200005000080200069100013552100000000000000000201602220002001PEGANTES Y PINTURAS ATLAS LTDA                    D000000000056000000000000000000000100010010000000000000000000000F0010000008285200520160222000101 00000000000000000000000000000000000000000000000000000000000000000000000000000000000000000000000000000000000000000N 00000000000NCONT   00    00000000000          00000000000000000000000000000000000000000000 000000000000000A000000000000000000000000000000000000000000000 000000000000000000000000000000000000000     00000000                                                                                                                        000000000000000000
F0010000008285300001000090060531100013050500000000000000000201602220002001RECUBRIMIENTOS ESENCIALES SAS                     D000000023140000000000000000000000100010010000000000000000000000F0010000008285300120160222000101 00000000000000000000000000000000000000000000000000000000000000000000000000000000000000000000000000000000000000000N 00000000000NCONT   00    00000000000          00000000000000000000000000000000000000000000 000000000000000A000000000000000000000000000000000000000000000 000000000000000000000000000000000000000     00000000                                                                                                                        000000000000000000
F0010000008285300002000090060531100041450500000000000000000201602220002001RECUBRIMIENTOS ESENCIALES SAS                     C000000021840000000000000000000000100010010000000000000000000000F0010000008285300220160222000101 00000000000000000000000000000000000000000000000000000000000000000000000000000000000000000000000000000000000000000N 00000000000NCONT   00    00000000000          00000000000000000000000000000000000000000000 000000000000000A000000000000000000000000000000000000000000000 000000000000000000000000000000000000000     00000000                                                                                                                        000000000000000000
F0010000008285300003000090060531100042505000000000000000000201602220002001RECUBRIMIENTOS ESENCIALES SAS                     C000000001300000000000000000000000100010010000000000000000000000F0010000008285300320160222000101 00000000000000000000000000000000000000000000000000000000000000000000000000000000000000000000000000000000000000000N 00000000000NCONT   00    00000000000          00000000000000000000000000000000000000000000 000000000000000A000000000000000000000000000000000000000000000 000000000000000000000000000000000000000     00000000                                                                                                                        000000000000000000
F0010000008285300004000090060531100023658300000000000000000201602220002001RECUBRIMIENTOS ESENCIALES SAS                     C000000000174700000000000000000000100010010000000000000000000000F0010000008285300420160222000101 00000000000000000000000000000000000000000000000000000000000000000000000000000000000000000000000000000000000000000N 00000000000NCONT   00    00000000000          00000000000000000000000000000000000000000000 000000000000000A000000000000000000000000000000000000000000000 000000000000000000000000000000000000000     00000000                                                                                                                        000000000000000000
F0010000008285300005000090060531100013552100000000000000000201602220002001RECUBRIMIENTOS ESENCIALES SAS                     D000000000174700000000000000000000100010010000000000000000000000F0010000008285300520160222000101 00000000000000000000000000000000000000000000000000000000000000000000000000000000000000000000000000000000000000000N 00000000000NCONT   00    00000000000          00000000000000000000000000000000000000000000 000000000000000A000000000000000000000000000000000000000000000 000000000000000000000000000000000000000     00000000                                                                                                                        000000000000000000
F0010000008285400001000090013859100013050500000000000000000201602220002001ALUMARKET BARRANQUILLA S.A.S.                     D000000009119200000000000000000000100010010000000000000000000000F0010000008285400120160222000101 00000000000000000000000000000000000000000000000000000000000000000000000000000000000000000000000000000000000000000N 00000000000NCONT   00    00000000000          00000000000000000000000000000000000000000000 000000000000000A000000000000000000000000000000000000000000000 000000000000000000000000000000000000000     00000000                                                                                                                        000000000000000000
F0010000008285400002000090013859100041450500000000000000000201602220002001ALUMARKET BARRANQUILLA S.A.S.                     C000000008100000000000000000000000100010010000000000000000000000F0010000008285400220160222000101 00000000000000000000000000000000000000000000000000000000000000000000000000000000000000000000000000000000000000000N 00000000000NCONT   00    00000000000          00000000000000000000000000000000000000000000 000000000000000A000000000000000000000000000000000000000000000 000000000000000000000000000000000000000     00000000                                                                                                                        000000000000000000
F0010000008285400003000090013859100042505000000000000000000201602220002001ALUMARKET BARRANQUILLA S.A.S.                     C000000001019200000000000000000000100010010000000000000000000000F0010000008285400320160222000101 00000000000000000000000000000000000000000000000000000000000000000000000000000000000000000000000000000000000000000N 00000000000NCONT   00    00000000000          00000000000000000000000000000000000000000000 000000000000000A000000000000000000000000000000000000000000000 000000000000000000000000000000000000000     00000000                                                                                                                        000000000000000000
F0010000008285400004000090013859100023658300000000000000000201602220002001ALUMARKET BARRANQUILLA S.A.S.                     C000000000064800000000000000000000100010010000000000000000000000F0010000008285400420160222000101 00000000000000000000000000000000000000000000000000000000000000000000000000000000000000000000000000000000000000000N 00000000000NCONT   00    00000000000          00000000000000000000000000000000000000000000 000000000000000A000000000000000000000000000000000000000000000 000000000000000000000000000000000000000     00000000                                                                                                                        000000000000000000
F0010000008285400005000090013859100013552100000000000000000201602220002001ALUMARKET BARRANQUILLA S.A.S.                     D000000000064800000000000000000000100010010000000000000000000000F0010000008285400520160222000101 00000000000000000000000000000000000000000000000000000000000000000000000000000000000000000000000000000000000000000N 00000000000NCONT   00    00000000000          00000000000000000000000000000000000000000000 000000000000000A000000000000000000000000000000000000000000000 000000000000000000000000000000000000000     00000000                                                                                                                        000000000000000000
F0010000008285500001000080016664500013050500000000000000000201602220002001TELAPLAS PANCER SAS                               D000000053557000000000000000000000100010010000000000000000000000F0010000008285500120160222000101 00000000000000000000000000000000000000000000000000000000000000000000000000000000000000000000000000000000000000000N 00000000000NCONT   00    00000000000          00000000000000000000000000000000000000000000 000000000000000A000000000000000000000000000000000000000000000 000000000000000000000000000000000000000     00000000                                                                                                                        000000000000000000
F0010000008285500002000080016664500041450500000000000000000201602220002001TELAPLAS PANCER SAS                               C000000045090000000000000000000000100010010000000000000000000000F0010000008285500220160222000101 00000000000000000000000000000000000000000000000000000000000000000000000000000000000000000000000000000000000000000N 00000000000NCONT   00    00000000000          00000000000000000000000000000000000000000000 000000000000000A000000000000000000000000000000000000000000000 000000000000000000000000000000000000000     00000000                                                                                                                        000000000000000000
F0010000008285500003000080016664500042505000000000000000000201602220002001TELAPLAS PANCER SAS                               C000000008467000000000000000000000100010010000000000000000000000F0010000008285500320160222000101 00000000000000000000000000000000000000000000000000000000000000000000000000000000000000000000000000000000000000000N 00000000000NCONT   00    00000000000          00000000000000000000000000000000000000000000 000000000000000A000000000000000000000000000000000000000000000 000000000000000000000000000000000000000     00000000                                                                                                                        000000000000000000
F0010000008285500004000080016664500023658300000000000000000201602220002001TELAPLAS PANCER SAS                               C000000000360700000000000000000000100010010000000000000000000000F0010000008285500420160222000101 00000000000000000000000000000000000000000000000000000000000000000000000000000000000000000000000000000000000000000N 00000000000NCONT   00    00000000000          00000000000000000000000000000000000000000000 000000000000000A000000000000000000000000000000000000000000000 000000000000000000000000000000000000000     00000000                                                                                                                        000000000000000000
F0010000008285500005000080016664500013552100000000000000000201602220002001TELAPLAS PANCER SAS                               D000000000360700000000000000000000100010010000000000000000000000F0010000008285500520160222000101 00000000000000000000000000000000000000000000000000000000000000000000000000000000000000000000000000000000000000000N 00000000000NCONT   00    00000000000          00000000000000000000000000000000000000000000 000000000000000A000000000000000000000000000000000000000000000 000000000000000000000000000000000000000     00000000                                                                                                                        000000000000000000
F0010000008285600001000002258669400013050500000000000000000201602220002001YURY PAOLA  SANTAMARIA ..                         D000000011875000000000000000000000100010010000000000000000000000F0010000008285600120160222000101 00000000000000000000000000000000000000000000000000000000000000000000000000000000000000000000000000000000000000000N 00000000000NCONT   00    00000000000          00000000000000000000000000000000000000000000 000000000000000A000000000000000000000000000000000000000000000 000000000000000000000000000000000000000     00000000                                                                                                                        000000000000000000
F0010000008285600002000002258669400041450500000000000000000201602220002001YURY PAOLA  SANTAMARIA ..                         C000000010090000000000000000000000100010010000000000000000000000F0010000008285600220160222000101 00000000000000000000000000000000000000000000000000000000000000000000000000000000000000000000000000000000000000000N 00000000000NCONT   00    00000000000          00000000000000000000000000000000000000000000 000000000000000A000000000000000000000000000000000000000000000 000000000000000000000000000000000000000     00000000                                                                                                                        000000000000000000
F0010000008285600003000002258669400042505000000000000000000201602220002001YURY PAOLA  SANTAMARIA ..                         C000000001785000000000000000000000100010010000000000000000000000F0010000008285600320160222000101 00000000000000000000000000000000000000000000000000000000000000000000000000000000000000000000000000000000000000000N 00000000000NCONT   00    00000000000          00000000000000000000000000000000000000000000 000000000000000A000000000000000000000000000000000000000000000 000000000000000000000000000000000000000     00000000                                                                                                                        000000000000000000
F0010000008285600004000002258669400023658300000000000000000201602220002001YURY PAOLA  SANTAMARIA ..                         C000000000080700000000000000000000100010010000000000000000000000F0010000008285600420160222000101 00000000000000000000000000000000000000000000000000000000000000000000000000000000000000000000000000000000000000000N 00000000000NCONT   00    00000000000          00000000000000000000000000000000000000000000 000000000000000A000000000000000000000000000000000000000000000 000000000000000000000000000000000000000     00000000                                                                                                                        000000000000000000
F0010000008285600005000002258669400013552100000000000000000201602220002001YURY PAOLA  SANTAMARIA ..                         D000000000080700000000000000000000100010010000000000000000000000F0010000008285600520160222000101 00000000000000000000000000000000000000000000000000000000000000000000000000000000000000000000000000000000000000000N 00000000000NCONT   00    00000000000          00000000000000000000000000000000000000000000 000000000000000A000000000000000000000000000000000000000000000 000000000000000000000000000000000000000     00000000                                                                                                                        000000000000000000
F0010000008285700001000083011391400013050500000000000000000201602220002001INSTITUCIONAL STAR SERVICES LTDA                  D000000002860000000000000000000000100010010000000000000000000000F0010000008285700120160222000101 00000000000000000000000000000000000000000000000000000000000000000000000000000000000000000000000000000000000000000N 00000000000NCONT   00    00000000000          00000000000000000000000000000000000000000000 000000000000000A000000000000000000000000000000000000000000000 000000000000000000000000000000000000000     00000000                                                                                                                        000000000000000000
F0010000008285700002000083011391400041450500000000000000000201602220002001INSTITUCIONAL STAR SERVICES LTDA                  C000000002560000000000000000000000100010010000000000000000000000F0010000008285700220160222000101 00000000000000000000000000000000000000000000000000000000000000000000000000000000000000000000000000000000000000000N 00000000000NCONT   00    00000000000          00000000000000000000000000000000000000000000 000000000000000A000000000000000000000000000000000000000000000 000000000000000000000000000000000000000     00000000                                                                                                                        000000000000000000
F0010000008285700003000083011391400042505000000000000000000201602220002001INSTITUCIONAL STAR SERVICES LTDA                  C000000000300000000000000000000000100010010000000000000000000000F0010000008285700320160222000101 00000000000000000000000000000000000000000000000000000000000000000000000000000000000000000000000000000000000000000N 00000000000NCONT   00    00000000000          00000000000000000000000000000000000000000000 000000000000000A000000000000000000000000000000000000000000000 000000000000000000000000000000000000000     00000000                                                                                                                        000000000000000000
F0010000008285700004000083011391400023658300000000000000000201602220002001INSTITUCIONAL STAR SERVICES LTDA                  C000000000020500000000000000000000100010010000000000000000000000F0010000008285700420160222000101 00000000000000000000000000000000000000000000000000000000000000000000000000000000000000000000000000000000000000000N 00000000000NCONT   00    00000000000          00000000000000000000000000000000000000000000 000000000000000A000000000000000000000000000000000000000000000 000000000000000000000000000000000000000     00000000                                                                                                                        000000000000000000
F0010000008285700005000083011391400013552100000000000000000201602220002001INSTITUCIONAL STAR SERVICES LTDA                  D000000000020500000000000000000000100010010000000000000000000000F0010000008285700520160222000101 00000000000000000000000000000000000000000000000000000000000000000000000000000000000000000000000000000000000000000N 00000000000NCONT   00    00000000000          00000000000000000000000000000000000000000000 000000000000000A000000000000000000000000000000000000000000000 000000000000000000000000000000000000000     00000000                                                                                                                        000000000000000000
F0010000008285800001000080016665600013050500000000000000000201602220002001SUMICAL DE ANTIOQUIA S.A.S                        D000000034829300000000000000000000100010010000000000000000000000F0010000008285800120160222000101 00000000000000000000000000000000000000000000000000000000000000000000000000000000000000000000000000000000000000000N 00000000000NCONT   00    00000000000          00000000000000000000000000000000000000000000 000000000000000A000000000000000000000000000000000000000000000 000000000000000000000000000000000000000     00000000                                                                                                                        000000000000000000
F0010000008285800002000080016665600041450500000000000000000201602220002001SUMICAL DE ANTIOQUIA S.A.S                        C000000029080000000000000000000000100010010000000000000000000000F0010000008285800220160222000101 00000000000000000000000000000000000000000000000000000000000000000000000000000000000000000000000000000000000000000N 00000000000NCONT   00    00000000000          00000000000000000000000000000000000000000000 000000000000000A000000000000000000000000000000000000000000000 000000000000000000000000000000000000000     00000000                                                                                                                        000000000000000000
F0010000008285800003000080016665600042505000000000000000000201602220002001SUMICAL DE ANTIOQUIA S.A.S                        C000000005749300000000000000000000100010010000000000000000000000F0010000008285800320160222000101 00000000000000000000000000000000000000000000000000000000000000000000000000000000000000000000000000000000000000000N 00000000000NCONT   00    00000000000          00000000000000000000000000000000000000000000 000000000000000A000000000000000000000000000000000000000000000 000000000000000000000000000000000000000     00000000                                                                                                                        000000000000000000
F0010000008285800004000080016665600023658300000000000000000201602220002001SUMICAL DE ANTIOQUIA S.A.S                        C000000000232600000000000000000000100010010000000000000000000000F0010000008285800420160222000101 00000000000000000000000000000000000000000000000000000000000000000000000000000000000000000000000000000000000000000N 00000000000NCONT   00    00000000000          00000000000000000000000000000000000000000000 000000000000000A000000000000000000000000000000000000000000000 000000000000000000000000000000000000000     00000000                                                                                                                        000000000000000000
F0010000008285800005000080016665600013552100000000000000000201602220002001SUMICAL DE ANTIOQUIA S.A.S                        D000000000232600000000000000000000100010010000000000000000000000F0010000008285800520160222000101 00000000000000000000000000000000000000000000000000000000000000000000000000000000000000000000000000000000000000000N 00000000000NCONT   00    00000000000          00000000000000000000000000000000000000000000 000000000000000A000000000000000000000000000000000000000000000 000000000000000000000000000000000000000     00000000                                                                                                                        000000000000000000
F0010000008285900001000090009800500013050500000000000000000201602220002001GLORIANT CHEMICAL DE COLOMBIA LTDA                D000000031258900000000000000000000100010010000000000000000000000F0010000008285900120160222000101 00000000000000000000000000000000000000000000000000000000000000000000000000000000000000000000000000000000000000000N 00000000000NCONT   00    00000000000          00000000000000000000000000000000000000000000 000000000000000A000000000000000000000000000000000000000000000 000000000000000000000000000000000000000     00000000                                                                                                                        000000000000000000
F0010000008285900002000090009800500041450500000000000000000201602220002001GLORIANT CHEMICAL DE COLOMBIA LTDA                C000000027050000000000000000000000100010010000000000000000000000F0010000008285900220160222000101 00000000000000000000000000000000000000000000000000000000000000000000000000000000000000000000000000000000000000000N 00000000000NCONT   00    00000000000          00000000000000000000000000000000000000000000 000000000000000A000000000000000000000000000000000000000000000 000000000000000000000000000000000000000     00000000                                                                                                                        000000000000000000
F0010000008285900003000090009800500042505000000000000000000201602220002001GLORIANT CHEMICAL DE COLOMBIA LTDA                C000000004208900000000000000000000100010010000000000000000000000F0010000008285900320160222000101 00000000000000000000000000000000000000000000000000000000000000000000000000000000000000000000000000000000000000000N 00000000000NCONT   00    00000000000          00000000000000000000000000000000000000000000 000000000000000A000000000000000000000000000000000000000000000 000000000000000000000000000000000000000     00000000                                                                                                                        000000000000000000
F0010000008285900004000090009800500023658300000000000000000201602220002001GLORIANT CHEMICAL DE COLOMBIA LTDA                C000000000216400000000000000000000100010010000000000000000000000F0010000008285900420160222000101 00000000000000000000000000000000000000000000000000000000000000000000000000000000000000000000000000000000000000000N 00000000000NCONT   00    00000000000          00000000000000000000000000000000000000000000 000000000000000A000000000000000000000000000000000000000000000 000000000000000000000000000000000000000     00000000                                                                                                                        000000000000000000
F0010000008285900005000090009800500013552100000000000000000201602220002001GLORIANT CHEMICAL DE COLOMBIA LTDA                D000000000216400000000000000000000100010010000000000000000000000F0010000008285900520160222000101 00000000000000000000000000000000000000000000000000000000000000000000000000000000000000000000000000000000000000000N 00000000000NCONT   00    00000000000          00000000000000000000000000000000000000000000 000000000000000A000000000000000000000000000000000000000000000 000000000000000000000000000000000000000     00000000                                                                                                                        000000000000000000
F0010000008286000001000090008711200013050500000000000000000201602220002001PACKAGING SUPPLIERS S.A.                          D000000090781400000000000000000000100010010000000000000000000000F0010000008286000120160222000101 00000000000000000000000000000000000000000000000000000000000000000000000000000000000000000000000000000000000000000N 00000000000NCONT   00    00000000000          00000000000000000000000000000000000000000000 000000000000000A000000000000000000000000000000000000000000000 000000000000000000000000000000000000000     00000000                                                                                                                        000000000000000000
F0010000008286000002000090008711200041450500000000000000000201602220002001PACKAGING SUPPLIERS S.A.                          C000000083231400000000000000000000100010010000000000000000000000F0010000008286000220160222000101 00000000000000000000000000000000000000000000000000000000000000000000000000000000000000000000000000000000000000000N 00000000000NCONT   00    00000000000          00000000000000000000000000000000000000000000 000000000000000A000000000000000000000000000000000000000000000 000000000000000000000000000000000000000     00000000                                                                                                                        000000000000000000
F0010000008286000003000090008711200042505000000000000000000201602220002001PACKAGING SUPPLIERS S.A.                          C000000007550000000000000000000000100010010000000000000000000000F0010000008286000320160222000101 00000000000000000000000000000000000000000000000000000000000000000000000000000000000000000000000000000000000000000N 00000000000NCONT   00    00000000000          00000000000000000000000000000000000000000000 000000000000000A000000000000000000000000000000000000000000000 000000000000000000000000000000000000000     00000000                                                                                                                        000000000000000000
F0010000008286000004000090008711200023658300000000000000000201602220002001PACKAGING SUPPLIERS S.A.                          C000000000665900000000000000000000100010010000000000000000000000F0010000008286000420160222000101 00000000000000000000000000000000000000000000000000000000000000000000000000000000000000000000000000000000000000000N 00000000000NCONT   00    00000000000          00000000000000000000000000000000000000000000 000000000000000A000000000000000000000000000000000000000000000 000000000000000000000000000000000000000     00000000                                                                                                                        000000000000000000
F0010000008286000005000090008711200013552100000000000000000201602220002001PACKAGING SUPPLIERS S.A.                          D000000000665900000000000000000000100010010000000000000000000000F0010000008286000520160222000101 00000000000000000000000000000000000000000000000000000000000000000000000000000000000000000000000000000000000000000N 00000000000NCONT   00    00000000000          00000000000000000000000000000000000000000000 000000000000000A000000000000000000000000000000000000000000000 000000000000000000000000000000000000000     00000000                                                                                                                        000000000000000000
F0010000008286100001000089010526900013050500000000000000000201602220002001DISTRIBUCIONES CANAL Y CIA S.A.S                  D000000016713500000000000000000000100010010000000000000000000000F0010000008286100120160222000101 00000000000000000000000000000000000000000000000000000000000000000000000000000000000000000000000000000000000000000N 00000000000NCONT   00    00000000000          00000000000000000000000000000000000000000000 000000000000000A000000000000000000000000000000000000000000000 000000000000000000000000000000000000000     00000000                                                                                                                        000000000000000000
F0010000008286100002000089010526900041450500000000000000000201602220002001DISTRIBUCIONES CANAL Y CIA S.A.S                  C000000011350000000000000000000000100010010000000000000000000000F0010000008286100220160222000101 00000000000000000000000000000000000000000000000000000000000000000000000000000000000000000000000000000000000000000N 00000000000NCONT   00    00000000000          00000000000000000000000000000000000000000000 000000000000000A000000000000000000000000000000000000000000000 000000000000000000000000000000000000000     00000000                                                                                                                        000000000000000000
F0010000008286100003000089010526900042505000000000000000000201602220002001DISTRIBUCIONES CANAL Y CIA S.A.S                  C000000005363500000000000000000000100010010000000000000000000000F0010000008286100320160222000101 00000000000000000000000000000000000000000000000000000000000000000000000000000000000000000000000000000000000000000N 00000000000NCONT   00    00000000000          00000000000000000000000000000000000000000000 000000000000000A000000000000000000000000000000000000000000000 000000000000000000000000000000000000000     00000000                                                                                                                        000000000000000000
F0010000008286100004000089010526900023658300000000000000000201602220002001DISTRIBUCIONES CANAL Y CIA S.A.S                  C000000000090800000000000000000000100010010000000000000000000000F0010000008286100420160222000101 00000000000000000000000000000000000000000000000000000000000000000000000000000000000000000000000000000000000000000N 00000000000NCONT   00    00000000000          00000000000000000000000000000000000000000000 000000000000000A000000000000000000000000000000000000000000000 000000000000000000000000000000000000000     00000000                                                                                                                        000000000000000000
F0010000008286100005000089010526900013552100000000000000000201602220002001DISTRIBUCIONES CANAL Y CIA S.A.S                  D000000000090800000000000000000000100010010000000000000000000000F0010000008286100520160222000101 00000000000000000000000000000000000000000000000000000000000000000000000000000000000000000000000000000000000000000N 00000000000NCONT   00    00000000000          00000000000000000000000000000000000000000000 000000000000000A000000000000000000000000000000000000000000000 000000000000000000000000000000000000000     00000000                                                                                                                        000000000000000000
F0010000008286200001000089011033000011050500000000000000000201602220002001INDUSTRIAS CRUZ & CAﾃ前N LTDA                     D000000026000000000000000000000000100010010000000000000000000000F0010000008286200120160222000101 00000000000000000000000000000000000000000000000000000000000000000000000000000000000000000000000000000000000000000N 00000000000NCONT   00    00000000000          00000000000000000000000000000000000000000000 000000000000000A000000000000000000000000000000000000000000000 000000000000000000000000000000000000000     00000000                                                                                                                        000000000000000000
F0010000008286200002000089011033000041450500000000000000000201602220002001INDUSTRIAS CRUZ & CAﾃ前N LTDA                     C000000024000000000000000000000000100010010000000000000000000000F0010000008286200220160222000101 00000000000000000000000000000000000000000000000000000000000000000000000000000000000000000000000000000000000000000N 00000000000NCONT   00    00000000000          00000000000000000000000000000000000000000000 000000000000000A000000000000000000000000000000000000000000000 000000000000000000000000000000000000000     00000000                                                                                                                        000000000000000000
F0010000008286200003000089011033000042505000000000000000000201602220002001INDUSTRIAS CRUZ & CAﾃ前N LTDA                     C000000002000000000000000000000000100010010000000000000000000000F0010000008286200320160222000101 00000000000000000000000000000000000000000000000000000000000000000000000000000000000000000000000000000000000000000N 00000000000NCONT   00    00000000000          00000000000000000000000000000000000000000000 000000000000000A000000000000000000000000000000000000000000000 000000000000000000000000000000000000000     00000000                                                                                                                        000000000000000000
F0010000008286200004000089011033000023658300000000000000000201602220002001INDUSTRIAS CRUZ & CAﾃ前N LTDA                     C000000000192000000000000000000000100010010000000000000000000000F0010000008286200420160222000101 00000000000000000000000000000000000000000000000000000000000000000000000000000000000000000000000000000000000000000N 00000000000NCONT   00    00000000000          00000000000000000000000000000000000000000000 000000000000000A000000000000000000000000000000000000000000000 000000000000000000000000000000000000000     00000000                                                                                                                        000000000000000000
F0010000008286200005000089011033000013552100000000000000000201602220002001INDUSTRIAS CRUZ & CAﾃ前N LTDA                     D000000000192000000000000000000000100010010000000000000000000000F0010000008286200520160222000101 00000000000000000000000000000000000000000000000000000000000000000000000000000000000000000000000000000000000000000N 00000000000NCONT   00    00000000000          00000000000000000000000000000000000000000000 000000000000000A000000000000000000000000000000000000000000000 000000000000000000000000000000000000000     00000000                                                                                                                        000000000000000000
F0010000008286300001000090064982900013050500000000000000000201602220002001DISDIES S.A.S                                     D000000060418800000000000000000000100010010000000000000000000000F0010000008286300120160222000101 00000000000000000000000000000000000000000000000000000000000000000000000000000000000000000000000000000000000000000N 00000000000NCONT   00    00000000000          00000000000000000000000000000000000000000000 000000000000000A000000000000000000000000000000000000000000000 000000000000000000000000000000000000000     00000000                                                                                                                        000000000000000000
F0010000008286300002000090064982900041450500000000000000000201602220002001DISDIES S.A.S                                     C000000053468800000000000000000000100010010000000000000000000000F0010000008286300220160222000101 00000000000000000000000000000000000000000000000000000000000000000000000000000000000000000000000000000000000000000N 00000000000NCONT   00    00000000000          00000000000000000000000000000000000000000000 000000000000000A000000000000000000000000000000000000000000000 000000000000000000000000000000000000000     00000000                                                                                                                        000000000000000000
F0010000008286300003000090064982900042505000000000000000000201602220002001DISDIES S.A.S                                     C000000006950000000000000000000000100010010000000000000000000000F0010000008286300320160222000101 00000000000000000000000000000000000000000000000000000000000000000000000000000000000000000000000000000000000000000N 00000000000NCONT   00    00000000000          00000000000000000000000000000000000000000000 000000000000000A000000000000000000000000000000000000000000000 000000000000000000000000000000000000000     00000000                                                                                                                        000000000000000000
F0010000008286300004000090064982900023658300000000000000000201602220002001DISDIES S.A.S                                     C000000000427800000000000000000000100010010000000000000000000000F0010000008286300420160222000101 00000000000000000000000000000000000000000000000000000000000000000000000000000000000000000000000000000000000000000N 00000000000NCONT   00    00000000000          00000000000000000000000000000000000000000000 000000000000000A000000000000000000000000000000000000000000000 000000000000000000000000000000000000000     00000000                                                                                                                        000000000000000000
F0010000008286300005000090064982900013552100000000000000000201602220002001DISDIES S.A.S                                     D000000000427800000000000000000000100010010000000000000000000000F0010000008286300520160222000101 00000000000000000000000000000000000000000000000000000000000000000000000000000000000000000000000000000000000000000N 00000000000NCONT   00    00000000000          00000000000000000000000000000000000000000000 000000000000000A000000000000000000000000000000000000000000000 000000000000000000000000000000000000000     00000000                                                                                                                        000000000000000000
F0010000008286400001000089011033000011050500000000000000000201602220002001INDUSTRIAS CRUZ & CAﾃ前N LTDA                     D000000012600000000000000000000000100010010000000000000000000000F0010000008286400120160222000101 00000000000000000000000000000000000000000000000000000000000000000000000000000000000000000000000000000000000000000N 00000000000NCONT   00    00000000000          00000000000000000000000000000000000000000000 000000000000000A000000000000000000000000000000000000000000000 000000000000000000000000000000000000000     00000000                                                                                                                        000000000000000000
F0010000008286400002000089011033000041450500000000000000000201602220002001INDUSTRIAS CRUZ & CAﾃ前N LTDA                     C000000012000000000000000000000000100010010000000000000000000000F0010000008286400220160222000101 00000000000000000000000000000000000000000000000000000000000000000000000000000000000000000000000000000000000000000N 00000000000NCONT   00    00000000000          00000000000000000000000000000000000000000000 000000000000000A000000000000000000000000000000000000000000000 000000000000000000000000000000000000000     00000000                                                                                                                        000000000000000000
F0010000008286400003000089011033000042505000000000000000000201602220002001INDUSTRIAS CRUZ & CAﾃ前N LTDA                     C000000000600000000000000000000000100010010000000000000000000000F0010000008286400320160222000101 00000000000000000000000000000000000000000000000000000000000000000000000000000000000000000000000000000000000000000N 00000000000NCONT   00    00000000000          00000000000000000000000000000000000000000000 000000000000000A000000000000000000000000000000000000000000000 000000000000000000000000000000000000000     00000000                                                                                                                        000000000000000000
F0010000008286400004000089011033000023658300000000000000000201602220002001INDUSTRIAS CRUZ & CAﾃ前N LTDA                     C000000000096000000000000000000000100010010000000000000000000000F0010000008286400420160222000101 00000000000000000000000000000000000000000000000000000000000000000000000000000000000000000000000000000000000000000N 00000000000NCONT   00    00000000000          00000000000000000000000000000000000000000000 000000000000000A000000000000000000000000000000000000000000000 000000000000000000000000000000000000000     00000000                                                                                                                        000000000000000000
F0010000008286400005000089011033000013552100000000000000000201602220002001INDUSTRIAS CRUZ & CAﾃ前N LTDA                     D000000000096000000000000000000000100010010000000000000000000000F0010000008286400520160222000101 00000000000000000000000000000000000000000000000000000000000000000000000000000000000000000000000000000000000000000N 00000000000NCONT   00    00000000000          00000000000000000000000000000000000000000000 000000000000000A000000000000000000000000000000000000000000000 000000000000000000000000000000000000000     00000000                                                                                                                        000000000000000000
F0010000008286500001000080201112800013050500000000000000000201602220002001CANGURO INTERNATIONAL S.A.                        D000000171159400000000000000000000100010010000000000000000000000F0010000008286500120160222000101 00000000000000000000000000000000000000000000000000000000000000000000000000000000000000000000000000000000000000000N 00000000000NCONT   00    00000000000          00000000000000000000000000000000000000000000 000000000000000A000000000000000000000000000000000000000000000 000000000000000000000000000000000000000     00000000                                                                                                                        000000000000000000
F0010000008286500002000080201112800041450500000000000000000201602220002001CANGURO INTERNATIONAL S.A.                        C000000169279400000000000000000000100010010000000000000000000000F0010000008286500220160222000101 00000000000000000000000000000000000000000000000000000000000000000000000000000000000000000000000000000000000000000N 00000000000NCONT   00    00000000000          00000000000000000000000000000000000000000000 000000000000000A000000000000000000000000000000000000000000000 000000000000000000000000000000000000000     00000000                                                                                                                        000000000000000000
F0010000008286500003000080201112800042505000000000000000000201602220002001CANGURO INTERNATIONAL S.A.                        C000000001880000000000000000000000100010010000000000000000000000F0010000008286500320160222000101 00000000000000000000000000000000000000000000000000000000000000000000000000000000000000000000000000000000000000000N 00000000000NCONT   00    00000000000          00000000000000000000000000000000000000000000 000000000000000A000000000000000000000000000000000000000000000 000000000000000000000000000000000000000     00000000                                                                                                                        000000000000000000
F0010000008286500004000080201112800023658300000000000000000201602220002001CANGURO INTERNATIONAL S.A.                        C000000001354200000000000000000000100010010000000000000000000000F0010000008286500420160222000101 00000000000000000000000000000000000000000000000000000000000000000000000000000000000000000000000000000000000000000N 00000000000NCONT   00    00000000000          00000000000000000000000000000000000000000000 000000000000000A000000000000000000000000000000000000000000000 000000000000000000000000000000000000000     00000000                                                                                                                        000000000000000000
F0010000008286500005000080201112800013552100000000000000000201602220002001CANGURO INTERNATIONAL S.A.                        D000000001354200000000000000000000100010010000000000000000000000F0010000008286500520160222000101 00000000000000000000000000000000000000000000000000000000000000000000000000000000000000000000000000000000000000000N 00000000000NCONT   00    00000000000          00000000000000000000000000000000000000000000 000000000000000A000000000000000000000000000000000000000000000 000000000000000000000000000000000000000     00000000                                                                                                                        000000000000000000
F0010000008286600001000080201112800013050500000000000000000201602220002001CANGURO INTERNATIONAL S.A.                        D000000012359400000000000000000000100010010000000000000000000000F0010000008286600120160222000101 00000000000000000000000000000000000000000000000000000000000000000000000000000000000000000000000000000000000000000N 00000000000NCONT   00    00000000000          00000000000000000000000000000000000000000000 000000000000000A000000000000000000000000000000000000000000000 000000000000000000000000000000000000000     00000000                                                                                                                        000000000000000000
F0010000008286600002000080201112800041450500000000000000000201602220002001CANGURO INTERNATIONAL S.A.                        C000000012359400000000000000000000100010010000000000000000000000F0010000008286600220160222000101 00000000000000000000000000000000000000000000000000000000000000000000000000000000000000000000000000000000000000000N 00000000000NCONT   00    00000000000          00000000000000000000000000000000000000000000 000000000000000A000000000000000000000000000000000000000000000 000000000000000000000000000000000000000     00000000                                                                                                                        000000000000000000
F0010000008286600003000080201112800042505000000000000000000201602220002001CANGURO INTERNATIONAL S.A.                        C000000000000000000000000000000000100010010000000000000000000000F0010000008286600320160222000101 00000000000000000000000000000000000000000000000000000000000000000000000000000000000000000000000000000000000000000N 00000000000NCONT   00    00000000000          00000000000000000000000000000000000000000000 000000000000000A000000000000000000000000000000000000000000000 000000000000000000000000000000000000000     00000000                                                                                                                        000000000000000000
F0010000008286600004000080201112800023658300000000000000000201602220002001CANGURO INTERNATIONAL S.A.                        C000000000098900000000000000000000100010010000000000000000000000F0010000008286600420160222000101 00000000000000000000000000000000000000000000000000000000000000000000000000000000000000000000000000000000000000000N 00000000000NCONT   00    00000000000          00000000000000000000000000000000000000000000 000000000000000A000000000000000000000000000000000000000000000 000000000000000000000000000000000000000     00000000                                                                                                                        000000000000000000
F0010000008286600005000080201112800013552100000000000000000201602220002001CANGURO INTERNATIONAL S.A.                        D000000000098900000000000000000000100010010000000000000000000000F0010000008286600520160222000101 00000000000000000000000000000000000000000000000000000000000000000000000000000000000000000000000000000000000000000N 00000000000NCONT   00    00000000000          00000000000000000000000000000000000000000000 000000000000000A000000000000000000000000000000000000000000000 000000000000000000000000000000000000000     00000000                                                                                                                        000000000000000000
F0010000008286700001000090040631000013050500000000000000000201602220002001BEINEX SAS                                        D000000013400000000000000000000000100010010000000000000000000000F0010000008286700120160222000101 00000000000000000000000000000000000000000000000000000000000000000000000000000000000000000000000000000000000000000N 00000000000NCONT   00    00000000000          00000000000000000000000000000000000000000000 000000000000000A000000000000000000000000000000000000000000000 000000000000000000000000000000000000000     00000000                                                                                                                        000000000000000000
F0010000008286700002000090040631000041450500000000000000000201602220002001BEINEX SAS                                        C000000013400000000000000000000000100010010000000000000000000000F0010000008286700220160222000101 00000000000000000000000000000000000000000000000000000000000000000000000000000000000000000000000000000000000000000N 00000000000NCONT   00    00000000000          00000000000000000000000000000000000000000000 000000000000000A000000000000000000000000000000000000000000000 000000000000000000000000000000000000000     00000000                                                                                                                        000000000000000000
F0010000008286700003000090040631000042505000000000000000000201602220002001BEINEX SAS                                        C000000000000000000000000000000000100010010000000000000000000000F0010000008286700320160222000101 00000000000000000000000000000000000000000000000000000000000000000000000000000000000000000000000000000000000000000N 00000000000NCONT   00    00000000000          00000000000000000000000000000000000000000000 000000000000000A000000000000000000000000000000000000000000000 000000000000000000000000000000000000000     00000000                                                                                                                        000000000000000000
F0010000008286700004000090040631000023658300000000000000000201602220002001BEINEX SAS                                        C000000000107200000000000000000000100010010000000000000000000000F0010000008286700420160222000101 00000000000000000000000000000000000000000000000000000000000000000000000000000000000000000000000000000000000000000N 00000000000NCONT   00    00000000000          00000000000000000000000000000000000000000000 000000000000000A000000000000000000000000000000000000000000000 000000000000000000000000000000000000000     00000000                                                                                                                        000000000000000000
F0010000008286700005000090040631000013552100000000000000000201602220002001BEINEX SAS                                        D000000000107200000000000000000000100010010000000000000000000000F0010000008286700520160222000101 00000000000000000000000000000000000000000000000000000000000000000000000000000000000000000000000000000000000000000N 00000000000NCONT   00    00000000000          00000000000000000000000000000000000000000000 000000000000000A000000000000000000000000000000000000000000000 000000000000000000000000000000000000000     00000000                                                                                                                        000000000000000000
F0010000008286800001000090044920600013050500000000000000000201602220002001QUATRO CARIBE SAS                                 D000000042530000000000000000000000100010010000000000000000000000F0010000008286800120160222000101 00000000000000000000000000000000000000000000000000000000000000000000000000000000000000000000000000000000000000000N 00000000000NCONT   00    00000000000          00000000000000000000000000000000000000000000 000000000000000A000000000000000000000000000000000000000000000 000000000000000000000000000000000000000     00000000                                                                                                                        000000000000000000
F0010000008286800002000090044920600041450500000000000000000201602220002001QUATRO CARIBE SAS                                 C000000035680000000000000000000000100010010000000000000000000000F0010000008286800220160222000101 00000000000000000000000000000000000000000000000000000000000000000000000000000000000000000000000000000000000000000N 00000000000NCONT   00    00000000000          00000000000000000000000000000000000000000000 000000000000000A000000000000000000000000000000000000000000000 000000000000000000000000000000000000000     00000000                                                                                                                        000000000000000000
F0010000008286800003000090044920600042505000000000000000000201602220002001QUATRO CARIBE SAS                                 C000000006850000000000000000000000100010010000000000000000000000F0010000008286800320160222000101 00000000000000000000000000000000000000000000000000000000000000000000000000000000000000000000000000000000000000000N 00000000000NCONT   00    00000000000          00000000000000000000000000000000000000000000 000000000000000A000000000000000000000000000000000000000000000 000000000000000000000000000000000000000     00000000                                                                                                                        000000000000000000
F0010000008286800004000090044920600023658300000000000000000201602220002001QUATRO CARIBE SAS                                 C000000000285400000000000000000000100010010000000000000000000000F0010000008286800420160222000101 00000000000000000000000000000000000000000000000000000000000000000000000000000000000000000000000000000000000000000N 00000000000NCONT   00    00000000000          00000000000000000000000000000000000000000000 000000000000000A000000000000000000000000000000000000000000000 000000000000000000000000000000000000000     00000000                                                                                                                        000000000000000000
F0010000008286800005000090044920600013552100000000000000000201602220002001QUATRO CARIBE SAS                                 D000000000285400000000000000000000100010010000000000000000000000F0010000008286800520160222000101 00000000000000000000000000000000000000000000000000000000000000000000000000000000000000000000000000000000000000000N 00000000000NCONT   00    00000000000          00000000000000000000000000000000000000000000 000000000000000A000000000000000000000000000000000000000000000 000000000000000000000000000000000000000     00000000                                                                                                                        000000000000000000
F0010000008286900001000090019362000013050500000000000000000201602220002001GENERAL SUPPLIES CIA LTDA                         D000000034374500000000000000000000100010010000000000000000000000F0010000008286900120160222000101 00000000000000000000000000000000000000000000000000000000000000000000000000000000000000000000000000000000000000000N 00000000000NCONT   00    00000000000          00000000000000000000000000000000000000000000 000000000000000A000000000000000000000000000000000000000000000 000000000000000000000000000000000000000     00000000                                                                                                                        000000000000000000
F0010000008286900002000090019362000041450500000000000000000201602220002001GENERAL SUPPLIES CIA LTDA                         C000000030201500000000000000000000100010010000000000000000000000F0010000008286900220160222000101 00000000000000000000000000000000000000000000000000000000000000000000000000000000000000000000000000000000000000000N 00000000000NCONT   00    00000000000          00000000000000000000000000000000000000000000 000000000000000A000000000000000000000000000000000000000000000 000000000000000000000000000000000000000     00000000                                                                                                                        000000000000000000
F0010000008286900003000090019362000042505000000000000000000201602220002001GENERAL SUPPLIES CIA LTDA                         C000000004173000000000000000000000100010010000000000000000000000F0010000008286900320160222000101 00000000000000000000000000000000000000000000000000000000000000000000000000000000000000000000000000000000000000000N 00000000000NCONT   00    00000000000          00000000000000000000000000000000000000000000 000000000000000A000000000000000000000000000000000000000000000 000000000000000000000000000000000000000     00000000                                                                                                                        000000000000000000
F0010000008286900004000090019362000023658300000000000000000201602220002001GENERAL SUPPLIES CIA LTDA                         C000000000241600000000000000000000100010010000000000000000000000F0010000008286900420160222000101 00000000000000000000000000000000000000000000000000000000000000000000000000000000000000000000000000000000000000000N 00000000000NCONT   00    00000000000          00000000000000000000000000000000000000000000 000000000000000A000000000000000000000000000000000000000000000 000000000000000000000000000000000000000     00000000                                                                                                                        000000000000000000
F0010000008286900005000090019362000013552100000000000000000201602220002001GENERAL SUPPLIES CIA LTDA                         D000000000241600000000000000000000100010010000000000000000000000F0010000008286900520160222000101 00000000000000000000000000000000000000000000000000000000000000000000000000000000000000000000000000000000000000000N 00000000000NCONT   00    00000000000          00000000000000000000000000000000000000000000 000000000000000A000000000000000000000000000000000000000000000 000000000000000000000000000000000000000     00000000                                                                                                                        000000000000000000
F0010000008287000001000090007142100013050500000000000000000201602220002001TODO BELLEZA Y MAX S.A.S                          D000000014480000000000000000000000100010010000000000000000000000F0010000008287000120160222000101 00000000000000000000000000000000000000000000000000000000000000000000000000000000000000000000000000000000000000000N 00000000000NCONT   00    00000000000          00000000000000000000000000000000000000000000 000000000000000A000000000000000000000000000000000000000000000 000000000000000000000000000000000000000     00000000                                                                                                                        000000000000000000
F0010000008287000002000090007142100041450500000000000000000201602220002001TODO BELLEZA Y MAX S.A.S                          C000000013580000000000000000000000100010010000000000000000000000F0010000008287000220160222000101 00000000000000000000000000000000000000000000000000000000000000000000000000000000000000000000000000000000000000000N 00000000000NCONT   00    00000000000          00000000000000000000000000000000000000000000 000000000000000A000000000000000000000000000000000000000000000 000000000000000000000000000000000000000     00000000                                                                                                                        000000000000000000
F0010000008287000003000090007142100042505000000000000000000201602220002001TODO BELLEZA Y MAX S.A.S                          C000000000900000000000000000000000100010010000000000000000000000F0010000008287000320160222000101 00000000000000000000000000000000000000000000000000000000000000000000000000000000000000000000000000000000000000000N 00000000000NCONT   00    00000000000          00000000000000000000000000000000000000000000 000000000000000A000000000000000000000000000000000000000000000 000000000000000000000000000000000000000     00000000                                                                                                                        000000000000000000
F0010000008287000004000090007142100023658300000000000000000201602220002001TODO BELLEZA Y MAX S.A.S                          C000000000108600000000000000000000100010010000000000000000000000F0010000008287000420160222000101 00000000000000000000000000000000000000000000000000000000000000000000000000000000000000000000000000000000000000000N 00000000000NCONT   00    00000000000          00000000000000000000000000000000000000000000 000000000000000A000000000000000000000000000000000000000000000 000000000000000000000000000000000000000     00000000                                                                                                                        000000000000000000
F0010000008287000005000090007142100013552100000000000000000201602220002001TODO BELLEZA Y MAX S.A.S                          D000000000108600000000000000000000100010010000000000000000000000F0010000008287000520160222000101 00000000000000000000000000000000000000000000000000000000000000000000000000000000000000000000000000000000000000000N 00000000000NCONT   00    00000000000          00000000000000000000000000000000000000000000 000000000000000A000000000000000000000000000000000000000000000 000000000000000000000000000000000000000     00000000                                                                                                                        000000000000000000
F0010000008287100001000080001063400013050500000000000000000201602220002001PRODUCTOS JULIAO SAS                              D000000024475300000000000000000000100010010000000000000000000000F0010000008287100120160222000101 00000000000000000000000000000000000000000000000000000000000000000000000000000000000000000000000000000000000000000N 00000000000NCONT   00    00000000000          00000000000000000000000000000000000000000000 000000000000000A000000000000000000000000000000000000000000000 000000000000000000000000000000000000000     00000000                                                                                                                        000000000000000000
F0010000008287100002000080001063400041450500000000000000000201602220002001PRODUCTOS JULIAO SAS                              C000000023100000000000000000000000100010010000000000000000000000F0010000008287100220160222000101 00000000000000000000000000000000000000000000000000000000000000000000000000000000000000000000000000000000000000000N 00000000000NCONT   00    00000000000          00000000000000000000000000000000000000000000 000000000000000A000000000000000000000000000000000000000000000 000000000000000000000000000000000000000     00000000                                                                                                                        000000000000000000
F0010000008287100003000080001063400042505000000000000000000201602220002001PRODUCTOS JULIAO SAS                              C000000001375300000000000000000000100010010000000000000000000000F0010000008287100320160222000101 00000000000000000000000000000000000000000000000000000000000000000000000000000000000000000000000000000000000000000N 00000000000NCONT   00    00000000000          00000000000000000000000000000000000000000000 000000000000000A000000000000000000000000000000000000000000000 000000000000000000000000000000000000000     00000000                                                                                                                        000000000000000000
F0010000008287100004000080001063400023658300000000000000000201602220002001PRODUCTOS JULIAO SAS                              C000000000184800000000000000000000100010010000000000000000000000F0010000008287100420160222000101 00000000000000000000000000000000000000000000000000000000000000000000000000000000000000000000000000000000000000000N 00000000000NCONT   00    00000000000          00000000000000000000000000000000000000000000 000000000000000A000000000000000000000000000000000000000000000 000000000000000000000000000000000000000     00000000                                                                                                                        000000000000000000
F0010000008287100005000080001063400013552100000000000000000201602220002001PRODUCTOS JULIAO SAS                              D000000000184800000000000000000000100010010000000000000000000000F0010000008287100520160222000101 00000000000000000000000000000000000000000000000000000000000000000000000000000000000000000000000000000000000000000N 00000000000NCONT   00    00000000000          00000000000000000000000000000000000000000000 000000000000000A000000000000000000000000000000000000000000000 000000000000000000000000000000000000000     00000000                                                                                                                        000000000000000000
F0010000008287200001000004977415500011050500000000000000000201602220002001NINFA FONSECA ROMERO                              D000000001100000000000000000000000100010010000000000000000000000F0010000008287200120160222000101 00000000000000000000000000000000000000000000000000000000000000000000000000000000000000000000000000000000000000000N 00000000000NCONT   00    00000000000          00000000000000000000000000000000000000000000 000000000000000A000000000000000000000000000000000000000000000 000000000000000000000000000000000000000     00000000                                                                                                                        000000000000000000
F0010000008287200002000004977415500041450500000000000000000201602220002001NINFA FONSECA ROMERO                              C000000000950000000000000000000000100010010000000000000000000000F0010000008287200220160222000101 00000000000000000000000000000000000000000000000000000000000000000000000000000000000000000000000000000000000000000N 00000000000NCONT   00    00000000000          00000000000000000000000000000000000000000000 000000000000000A000000000000000000000000000000000000000000000 000000000000000000000000000000000000000     00000000                                                                                                                        000000000000000000
F0010000008287200003000004977415500042505000000000000000000201602220002001NINFA FONSECA ROMERO                              C000000000150000000000000000000000100010010000000000000000000000F0010000008287200320160222000101 00000000000000000000000000000000000000000000000000000000000000000000000000000000000000000000000000000000000000000N 00000000000NCONT   00    00000000000          00000000000000000000000000000000000000000000 000000000000000A000000000000000000000000000000000000000000000 000000000000000000000000000000000000000     00000000                                                                                                                        000000000000000000
F0010000008287200004000004977415500023658300000000000000000201602220002001NINFA FONSECA ROMERO                              C000000000007600000000000000000000100010010000000000000000000000F0010000008287200420160222000101 00000000000000000000000000000000000000000000000000000000000000000000000000000000000000000000000000000000000000000N 00000000000NCONT   00    00000000000          00000000000000000000000000000000000000000000 000000000000000A000000000000000000000000000000000000000000000 000000000000000000000000000000000000000     00000000                                                                                                                        000000000000000000
F0010000008287200005000004977415500013552100000000000000000201602220002001NINFA FONSECA ROMERO                              D000000000007600000000000000000000100010010000000000000000000000F0010000008287200520160222000101 00000000000000000000000000000000000000000000000000000000000000000000000000000000000000000000000000000000000000000N 00000000000NCONT   00    00000000000          00000000000000000000000000000000000000000000 000000000000000A000000000000000000000000000000000000000000000 000000000000000000000000000000000000000     00000000                                                                                                                        000000000000000000
F0010000008287300001000090038852800013050500000000000000000201602220002001EL COMERCIO ELECTRICO DE LA CO                    D000000019970000000000000000000000100010010000000000000000000000F0010000008287300120160222000101 00000000000000000000000000000000000000000000000000000000000000000000000000000000000000000000000000000000000000000N 00000000000NCONT   00    00000000000          00000000000000000000000000000000000000000000 000000000000000A000000000000000000000000000000000000000000000 000000000000000000000000000000000000000     00000000                                                                                                                        000000000000000000
F0010000008287300002000090038852800041450500000000000000000201602220002001EL COMERCIO ELECTRICO DE LA CO                    C000000016020000000000000000000000100010010000000000000000000000F0010000008287300220160222000101 00000000000000000000000000000000000000000000000000000000000000000000000000000000000000000000000000000000000000000N 00000000000NCONT   00    00000000000          00000000000000000000000000000000000000000000 000000000000000A000000000000000000000000000000000000000000000 000000000000000000000000000000000000000     00000000                                                                                                                        000000000000000000
F0010000008287300003000090038852800042505000000000000000000201602220002001EL COMERCIO ELECTRICO DE LA CO                    C000000003950000000000000000000000100010010000000000000000000000F0010000008287300320160222000101 00000000000000000000000000000000000000000000000000000000000000000000000000000000000000000000000000000000000000000N 00000000000NCONT   00    00000000000          00000000000000000000000000000000000000000000 000000000000000A000000000000000000000000000000000000000000000 000000000000000000000000000000000000000     00000000                                                                                                                        000000000000000000
F0010000008287300004000090038852800023658300000000000000000201602220002001EL COMERCIO ELECTRICO DE LA CO                    C000000000128200000000000000000000100010010000000000000000000000F0010000008287300420160222000101 00000000000000000000000000000000000000000000000000000000000000000000000000000000000000000000000000000000000000000N 00000000000NCONT   00    00000000000          00000000000000000000000000000000000000000000 000000000000000A000000000000000000000000000000000000000000000 000000000000000000000000000000000000000     00000000                                                                                                                        000000000000000000
F0010000008287300005000090038852800013552100000000000000000201602220002001EL COMERCIO ELECTRICO DE LA CO                    D000000000128200000000000000000000100010010000000000000000000000F0010000008287300520160222000101 00000000000000000000000000000000000000000000000000000000000000000000000000000000000000000000000000000000000000000N 00000000000NCONT   00    00000000000          00000000000000000000000000000000000000000000 000000000000000A000000000000000000000000000000000000000000000 000000000000000000000000000000000000000     00000000                                                                                                                        000000000000000000
F0010000008287400001000090080946500013050500000000000000000201602220002001INVERSIONES AFAP SAS                              D000000008788400000000000000000000100010010000000000000000000000F0010000008287400120160222000101 00000000000000000000000000000000000000000000000000000000000000000000000000000000000000000000000000000000000000000N 00000000000NCONT   00    00000000000          00000000000000000000000000000000000000000000 000000000000000A000000000000000000000000000000000000000000000 000000000000000000000000000000000000000     00000000                                                                                                                        000000000000000000
F0010000008287400002000090080946500041450500000000000000000201602220002001INVERSIONES AFAP SAS                              C000000007338400000000000000000000100010010000000000000000000000F0010000008287400220160222000101 00000000000000000000000000000000000000000000000000000000000000000000000000000000000000000000000000000000000000000N 00000000000NCONT   00    00000000000          00000000000000000000000000000000000000000000 000000000000000A000000000000000000000000000000000000000000000 000000000000000000000000000000000000000     00000000                                                                                                                        000000000000000000
F0010000008287400003000090080946500042505000000000000000000201602220002001INVERSIONES AFAP SAS                              C000000001450000000000000000000000100010010000000000000000000000F0010000008287400320160222000101 00000000000000000000000000000000000000000000000000000000000000000000000000000000000000000000000000000000000000000N 00000000000NCONT   00    00000000000          00000000000000000000000000000000000000000000 000000000000000A000000000000000000000000000000000000000000000 000000000000000000000000000000000000000     00000000                                                                                                                        000000000000000000
F0010000008287400004000090080946500023658300000000000000000201602220002001INVERSIONES AFAP SAS                              C000000000058700000000000000000000100010010000000000000000000000F0010000008287400420160222000101 00000000000000000000000000000000000000000000000000000000000000000000000000000000000000000000000000000000000000000N 00000000000NCONT   00    00000000000          00000000000000000000000000000000000000000000 000000000000000A000000000000000000000000000000000000000000000 000000000000000000000000000000000000000     00000000                                                                                                                        000000000000000000
F0010000008287400005000090080946500013552100000000000000000201602220002001INVERSIONES AFAP SAS                              D000000000058700000000000000000000100010010000000000000000000000F0010000008287400520160222000101 00000000000000000000000000000000000000000000000000000000000000000000000000000000000000000000000000000000000000000N 00000000000NCONT   00    00000000000          00000000000000000000000000000000000000000000 000000000000000A000000000000000000000000000000000000000000000 000000000000000000000000000000000000000     00000000                                                                                                                        000000000000000000
F0010000008287500001000080201127600013050500000000000000000201602220002001ELECTRICOS DEL RUIZ S.A.S.                        D000000042638300000000000000000000100010010000000000000000000000F0010000008287500120160222000101 00000000000000000000000000000000000000000000000000000000000000000000000000000000000000000000000000000000000000000N 00000000000NCONT   00    00000000000          00000000000000000000000000000000000000000000 000000000000000A000000000000000000000000000000000000000000000 000000000000000000000000000000000000000     00000000                                                                                                                        000000000000000000
F0010000008287500002000080201127600041450500000000000000000201602220002001ELECTRICOS DEL RUIZ S.A.S.                        C000000033720000000000000000000000100010010000000000000000000000F0010000008287500220160222000101 00000000000000000000000000000000000000000000000000000000000000000000000000000000000000000000000000000000000000000N 00000000000NCONT   00    00000000000          00000000000000000000000000000000000000000000 000000000000000A000000000000000000000000000000000000000000000 000000000000000000000000000000000000000     00000000                                                                                                                        000000000000000000
F0010000008287500003000080201127600042505000000000000000000201602220002001ELECTRICOS DEL RUIZ S.A.S.                        C000000008918300000000000000000000100010010000000000000000000000F0010000008287500320160222000101 00000000000000000000000000000000000000000000000000000000000000000000000000000000000000000000000000000000000000000N 00000000000NCONT   00    00000000000          00000000000000000000000000000000000000000000 000000000000000A000000000000000000000000000000000000000000000 000000000000000000000000000000000000000     00000000                                                                                                                        000000000000000000
F0010000008287500004000080201127600023658300000000000000000201602220002001ELECTRICOS DEL RUIZ S.A.S.                        C000000000269800000000000000000000100010010000000000000000000000F0010000008287500420160222000101 00000000000000000000000000000000000000000000000000000000000000000000000000000000000000000000000000000000000000000N 00000000000NCONT   00    00000000000          00000000000000000000000000000000000000000000 000000000000000A000000000000000000000000000000000000000000000 000000000000000000000000000000000000000     00000000                                                                                                                        000000000000000000
F0010000008287500005000080201127600013552100000000000000000201602220002001ELECTRICOS DEL RUIZ S.A.S.                        D000000000269800000000000000000000100010010000000000000000000000F0010000008287500520160222000101 00000000000000000000000000000000000000000000000000000000000000000000000000000000000000000000000000000000000000000N 00000000000NCONT   00    00000000000          00000000000000000000000000000000000000000000 000000000000000A000000000000000000000000000000000000000000000 000000000000000000000000000000000000000     00000000                                                                                                                        000000000000000000
F0010000008287600001000080202132300013050500000000000000000201602220002001SUM Y SERV DE LA COSTA LTDA                       D000000053420000000000000000000000100010010000000000000000000000F0010000008287600120160222000101 00000000000000000000000000000000000000000000000000000000000000000000000000000000000000000000000000000000000000000N 00000000000NCONT   00    00000000000          00000000000000000000000000000000000000000000 000000000000000A000000000000000000000000000000000000000000000 000000000000000000000000000000000000000     00000000                                                                                                                        000000000000000000
F0010000008287600002000080202132300041450500000000000000000201602220002001SUM Y SERV DE LA COSTA LTDA                       C000000050850000000000000000000000100010010000000000000000000000F0010000008287600220160222000101 00000000000000000000000000000000000000000000000000000000000000000000000000000000000000000000000000000000000000000N 00000000000NCONT   00    00000000000          00000000000000000000000000000000000000000000 000000000000000A000000000000000000000000000000000000000000000 000000000000000000000000000000000000000     00000000                                                                                                                        000000000000000000
F0010000008287600003000080202132300042505000000000000000000201602220002001SUM Y SERV DE LA COSTA LTDA                       C000000002570000000000000000000000100010010000000000000000000000F0010000008287600320160222000101 00000000000000000000000000000000000000000000000000000000000000000000000000000000000000000000000000000000000000000N 00000000000NCONT   00    00000000000          00000000000000000000000000000000000000000000 000000000000000A000000000000000000000000000000000000000000000 000000000000000000000000000000000000000     00000000                                                                                                                        000000000000000000
F0010000008287600004000080202132300023658300000000000000000201602220002001SUM Y SERV DE LA COSTA LTDA                       C000000000406800000000000000000000100010010000000000000000000000F0010000008287600420160222000101 00000000000000000000000000000000000000000000000000000000000000000000000000000000000000000000000000000000000000000N 00000000000NCONT   00    00000000000          00000000000000000000000000000000000000000000 000000000000000A000000000000000000000000000000000000000000000 000000000000000000000000000000000000000     00000000                                                                                                                        000000000000000000
F0010000008287600005000080202132300013552100000000000000000201602220002001SUM Y SERV DE LA COSTA LTDA                       D000000000406800000000000000000000100010010000000000000000000000F0010000008287600520160222000101 00000000000000000000000000000000000000000000000000000000000000000000000000000000000000000000000000000000000000000N 00000000000NCONT   00    00000000000          00000000000000000000000000000000000000000000 000000000000000A000000000000000000000000000000000000000000000 000000000000000000000000000000000000000     00000000                                                                                                                        000000000000000000
F0010000008287700001000000744822500013050500000000000000000201602220002001LABORATORIO Y PERFUMERIA BORGE                    D000000018583000000000000000000000100010010000000000000000000000F0010000008287700120160222000101 00000000000000000000000000000000000000000000000000000000000000000000000000000000000000000000000000000000000000000N 00000000000NCONT   00    00000000000          00000000000000000000000000000000000000000000 000000000000000A000000000000000000000000000000000000000000000 000000000000000000000000000000000000000     00000000                                                                                                                        000000000000000000
F0010000008287700002000000744822500041450500000000000000000201602220002001LABORATORIO Y PERFUMERIA BORGE                    C000000014604000000000000000000000100010010000000000000000000000F0010000008287700220160222000101 00000000000000000000000000000000000000000000000000000000000000000000000000000000000000000000000000000000000000000N 00000000000NCONT   00    00000000000          00000000000000000000000000000000000000000000 000000000000000A000000000000000000000000000000000000000000000 000000000000000000000000000000000000000     00000000                                                                                                                        000000000000000000
