F0010000008441900001000080202350700011050500000000000000000201604030002001CONNY DE LA COSTA SAS                             D000000001250000000000000000000000100010010000000000000000000000F0010000008441900120160403000101 00000000000000000000000000000000000000000000000000000000000000000000000000000000000000000000000000000000000000000N 00000000000NCONT   00    00000000000          00000000000000000000000000000000000000000000 000000000000000A000000000000000000000000000000000000000000000 000000000000000000000000000000000000000     00000000                                                                                                                        000000000000000000
F0010000008441900002000080202350700041450500000000000000000201604030002001CONNY DE LA COSTA SAS                             C000000001200000000000000000000000100010010000000000000000000000F0010000008441900220160403000101 00000000000000000000000000000000000000000000000000000000000000000000000000000000000000000000000000000000000000000N 00000000000NCONT   00    00000000000          00000000000000000000000000000000000000000000 000000000000000A000000000000000000000000000000000000000000000 000000000000000000000000000000000000000     00000000                                                                                                                        000000000000000000
F0010000008441900003000080202350700042505000000000000000000201604030002001CONNY DE LA COSTA SAS                             C000000000050000000000000000000000100010010000000000000000000000F0010000008441900320160403000101 00000000000000000000000000000000000000000000000000000000000000000000000000000000000000000000000000000000000000000N 00000000000NCONT   00    00000000000          00000000000000000000000000000000000000000000 000000000000000A000000000000000000000000000000000000000000000 000000000000000000000000000000000000000     00000000                                                                                                                        000000000000000000
F0010000008441900004000080202350700023658300000000000000000201604030002001CONNY DE LA COSTA SAS                             C000000000009600000000000000000000100010010000000000000000000000F0010000008441900420160403000101 00000000000000000000000000000000000000000000000000000000000000000000000000000000000000000000000000000000000000000N 00000000000NCONT   00    00000000000          00000000000000000000000000000000000000000000 000000000000000A000000000000000000000000000000000000000000000 000000000000000000000000000000000000000     00000000                                                                                                                        000000000000000000
F0010000008441900005000080202350700013552100000000000000000201604030002001CONNY DE LA COSTA SAS                             D000000000009600000000000000000000100010010000000000000000000000F0010000008441900520160403000101 00000000000000000000000000000000000000000000000000000000000000000000000000000000000000000000000000000000000000000N 00000000000NCONT   00    00000000000          00000000000000000000000000000000000000000000 000000000000000A000000000000000000000000000000000000000000000 000000000000000000000000000000000000000     00000000                                                                                                                        000000000000000000
F0010000008442000001000003269375300011050500000000000000000201604030002001ROSALY SANCHEZ DUQUE                              D000000001300000000000000000000000100010010000000000000000000000F0010000008442000120160403000101 00000000000000000000000000000000000000000000000000000000000000000000000000000000000000000000000000000000000000000N 00000000000NCONT   00    00000000000          00000000000000000000000000000000000000000000 000000000000000A000000000000000000000000000000000000000000000 000000000000000000000000000000000000000     00000000                                                                                                                        000000000000000000
F0010000008442000002000003269375300041450500000000000000000201604030002001ROSALY SANCHEZ DUQUE                              C000000001200000000000000000000000100010010000000000000000000000F0010000008442000220160403000101 00000000000000000000000000000000000000000000000000000000000000000000000000000000000000000000000000000000000000000N 00000000000NCONT   00    00000000000          00000000000000000000000000000000000000000000 000000000000000A000000000000000000000000000000000000000000000 000000000000000000000000000000000000000     00000000                                                                                                                        000000000000000000
F0010000008442000003000003269375300042505000000000000000000201604030002001ROSALY SANCHEZ DUQUE                              C000000000100000000000000000000000100010010000000000000000000000F0010000008442000320160403000101 00000000000000000000000000000000000000000000000000000000000000000000000000000000000000000000000000000000000000000N 00000000000NCONT   00    00000000000          00000000000000000000000000000000000000000000 000000000000000A000000000000000000000000000000000000000000000 000000000000000000000000000000000000000     00000000                                                                                                                        000000000000000000
F0010000008442000004000003269375300023658300000000000000000201604030002001ROSALY SANCHEZ DUQUE                              C000000000009600000000000000000000100010010000000000000000000000F0010000008442000420160403000101 00000000000000000000000000000000000000000000000000000000000000000000000000000000000000000000000000000000000000000N 00000000000NCONT   00    00000000000          00000000000000000000000000000000000000000000 000000000000000A000000000000000000000000000000000000000000000 000000000000000000000000000000000000000     00000000                                                                                                                        000000000000000000
F0010000008442000005000003269375300013552100000000000000000201604030002001ROSALY SANCHEZ DUQUE                              D000000000009600000000000000000000100010010000000000000000000000F0010000008442000520160403000101 00000000000000000000000000000000000000000000000000000000000000000000000000000000000000000000000000000000000000000N 00000000000NCONT   00    00000000000          00000000000000000000000000000000000000000000 000000000000000A000000000000000000000000000000000000000000000 000000000000000000000000000000000000000     00000000                                                                                                                        000000000000000000
F0010000008442100001000090007142100011050500000000000000000201604030002001TODO BELLEZA Y MAX S.A.S                          D000000010110000000000000000000000100010010000000000000000000000F0010000008442100120160403000101 00000000000000000000000000000000000000000000000000000000000000000000000000000000000000000000000000000000000000000N 00000000000NCONT   00    00000000000          00000000000000000000000000000000000000000000 000000000000000A000000000000000000000000000000000000000000000 000000000000000000000000000000000000000     00000000                                                                                                                        000000000000000000
F0010000008442100002000090007142100041450500000000000000000201604030002001TODO BELLEZA Y MAX S.A.S                          C000000009960000000000000000000000100010010000000000000000000000F0010000008442100220160403000101 00000000000000000000000000000000000000000000000000000000000000000000000000000000000000000000000000000000000000000N 00000000000NCONT   00    00000000000          00000000000000000000000000000000000000000000 000000000000000A000000000000000000000000000000000000000000000 000000000000000000000000000000000000000     00000000                                                                                                                        000000000000000000
F0010000008442100003000090007142100042505000000000000000000201604030002001TODO BELLEZA Y MAX S.A.S                          C000000000150000000000000000000000100010010000000000000000000000F0010000008442100320160403000101 00000000000000000000000000000000000000000000000000000000000000000000000000000000000000000000000000000000000000000N 00000000000NCONT   00    00000000000          00000000000000000000000000000000000000000000 000000000000000A000000000000000000000000000000000000000000000 000000000000000000000000000000000000000     00000000                                                                                                                        000000000000000000
F0010000008442100004000090007142100023658300000000000000000201604030002001TODO BELLEZA Y MAX S.A.S                          C000000000079700000000000000000000100010010000000000000000000000F0010000008442100420160403000101 00000000000000000000000000000000000000000000000000000000000000000000000000000000000000000000000000000000000000000N 00000000000NCONT   00    00000000000          00000000000000000000000000000000000000000000 000000000000000A000000000000000000000000000000000000000000000 000000000000000000000000000000000000000     00000000                                                                                                                        000000000000000000
F0010000008442100005000090007142100013552100000000000000000201604030002001TODO BELLEZA Y MAX S.A.S                          D000000000079700000000000000000000100010010000000000000000000000F0010000008442100520160403000101 00000000000000000000000000000000000000000000000000000000000000000000000000000000000000000000000000000000000000000N 00000000000NCONT   00    00000000000          00000000000000000000000000000000000000000000 000000000000000A000000000000000000000000000000000000000000000 000000000000000000000000000000000000000     00000000                                                                                                                        000000000000000000
F0010000008442200001000090007142100011050500000000000000000201604030002001TODO BELLEZA Y MAX S.A.S                          D000000001710000000000000000000000100010010000000000000000000000F0010000008442200120160403000101 00000000000000000000000000000000000000000000000000000000000000000000000000000000000000000000000000000000000000000N 00000000000NCONT   00    00000000000          00000000000000000000000000000000000000000000 000000000000000A000000000000000000000000000000000000000000000 000000000000000000000000000000000000000     00000000                                                                                                                        000000000000000000
F0010000008442200002000090007142100041450500000000000000000201604030002001TODO BELLEZA Y MAX S.A.S                          C000000001660000000000000000000000100010010000000000000000000000F0010000008442200220160403000101 00000000000000000000000000000000000000000000000000000000000000000000000000000000000000000000000000000000000000000N 00000000000NCONT   00    00000000000          00000000000000000000000000000000000000000000 000000000000000A000000000000000000000000000000000000000000000 000000000000000000000000000000000000000     00000000                                                                                                                        000000000000000000
F0010000008442200003000090007142100042505000000000000000000201604030002001TODO BELLEZA Y MAX S.A.S                          C000000000050000000000000000000000100010010000000000000000000000F0010000008442200320160403000101 00000000000000000000000000000000000000000000000000000000000000000000000000000000000000000000000000000000000000000N 00000000000NCONT   00    00000000000          00000000000000000000000000000000000000000000 000000000000000A000000000000000000000000000000000000000000000 000000000000000000000000000000000000000     00000000                                                                                                                        000000000000000000
F0010000008442200004000090007142100023658300000000000000000201604030002001TODO BELLEZA Y MAX S.A.S                          C000000000013300000000000000000000100010010000000000000000000000F0010000008442200420160403000101 00000000000000000000000000000000000000000000000000000000000000000000000000000000000000000000000000000000000000000N 00000000000NCONT   00    00000000000          00000000000000000000000000000000000000000000 000000000000000A000000000000000000000000000000000000000000000 000000000000000000000000000000000000000     00000000                                                                                                                        000000000000000000
F0010000008442200005000090007142100013552100000000000000000201604030002001TODO BELLEZA Y MAX S.A.S                          D000000000013300000000000000000000100010010000000000000000000000F0010000008442200520160403000101 00000000000000000000000000000000000000000000000000000000000000000000000000000000000000000000000000000000000000000N 00000000000NCONT   00    00000000000          00000000000000000000000000000000000000000000 000000000000000A000000000000000000000000000000000000000000000 000000000000000000000000000000000000000     00000000                                                                                                                        000000000000000000
