F0010000010504300001000000000000000011050500000000000000000201710150002001RUBY MERCERDES RONDANO VILLALOBOS                 D000000000000000000000000000000000100010010000000000000000000000F0010000010504300120171015000101 00000000000000000000000000000000000000000000000000000000000000000000000000000000000000000000000000000000000000000N 00000000000NCONT   00    00000000000          00000000000000000000000000000000000000000000 000000000000000A000000000000000000000000000000000000000000000 000000000000000000000000000000000000000     00000000                                                                                                                        000000000000000000
F0010000010504300002000000000000000041450500000000000000000201710150002001RUBY MERCERDES RONDANO VILLALOBOS                 C000000000000000000000000000000000100010010000000000000000000000F0010000010504300220171015000101 00000000000000000000000000000000000000000000000000000000000000000000000000000000000000000000000000000000000000000N 00000000000NCONT   00    00000000000          00000000000000000000000000000000000000000000 000000000000000A000000000000000000000000000000000000000000000 000000000000000000000000000000000000000     00000000                                                                                                                        000000000000000000
F0010000010504300003000000000000000042505000000000000000000201710150002001RUBY MERCERDES RONDANO VILLALOBOS                 C000000000000000000000000000000000100010010000000000000000000000F0010000010504300320171015000101 00000000000000000000000000000000000000000000000000000000000000000000000000000000000000000000000000000000000000000N 00000000000NCONT   00    00000000000          00000000000000000000000000000000000000000000 000000000000000A000000000000000000000000000000000000000000000 000000000000000000000000000000000000000     00000000                                                                                                                        000000000000000000
F0010000010504300004000000000000000023658300000000000000000201710150002001RUBY MERCERDES RONDANO VILLALOBOS                 C000000000000000000000000000000000100010010000000000000000000000F0010000010504300420171015000101 00000000000000000000000000000000000000000000000000000000000000000000000000000000000000000000000000000000000000000N 00000000000NCONT   00    00000000000          00000000000000000000000000000000000000000000 000000000000000A000000000000000000000000000000000000000000000 000000000000000000000000000000000000000     00000000                                                                                                                        000000000000000000
F0010000010504300005000000000000000013552100000000000000000201710150002001RUBY MERCERDES RONDANO VILLALOBOS                 D000000000000000000000000000000000100010010000000000000000000000F0010000010504300520171015000101 00000000000000000000000000000000000000000000000000000000000000000000000000000000000000000000000000000000000000000N 00000000000NCONT   00    00000000000          00000000000000000000000000000000000000000000 000000000000000A000000000000000000000000000000000000000000000 000000000000000000000000000000000000000     00000000                                                                                                                        000000000000000000
F0010000010504400001000007221137900011050500000000000000000201710150002001CARLOS POLO                                       D000000002100000000000000000000000100010010000000000000000000000F0010000010504400120171015000101 00000000000000000000000000000000000000000000000000000000000000000000000000000000000000000000000000000000000000000N 00000000000NCONT   00    00000000000          00000000000000000000000000000000000000000000 000000000000000A000000000000000000000000000000000000000000000 000000000000000000000000000000000000000     00000000                                                                                                                        000000000000000000
F0010000010504400002000007221137900041450500000000000000000201710150002001CARLOS POLO                                       C000000001300000000000000000000000100010010000000000000000000000F0010000010504400220171015000101 00000000000000000000000000000000000000000000000000000000000000000000000000000000000000000000000000000000000000000N 00000000000NCONT   00    00000000000          00000000000000000000000000000000000000000000 000000000000000A000000000000000000000000000000000000000000000 000000000000000000000000000000000000000     00000000                                                                                                                        000000000000000000
F0010000010504400003000007221137900042505000000000000000000201710150002001CARLOS POLO                                       C000000000800000000000000000000000100010010000000000000000000000F0010000010504400320171015000101 00000000000000000000000000000000000000000000000000000000000000000000000000000000000000000000000000000000000000000N 00000000000NCONT   00    00000000000          00000000000000000000000000000000000000000000 000000000000000A000000000000000000000000000000000000000000000 000000000000000000000000000000000000000     00000000                                                                                                                        000000000000000000
F0010000010504400004000007221137900023658300000000000000000201710150002001CARLOS POLO                                       C000000000000000000000000000000000100010010000000000000000000000F0010000010504400420171015000101 00000000000000000000000000000000000000000000000000000000000000000000000000000000000000000000000000000000000000000N 00000000000NCONT   00    00000000000          00000000000000000000000000000000000000000000 000000000000000A000000000000000000000000000000000000000000000 000000000000000000000000000000000000000     00000000                                                                                                                        000000000000000000
F0010000010504400005000007221137900013552100000000000000000201710150002001CARLOS POLO                                       D000000000000000000000000000000000100010010000000000000000000000F0010000010504400520171015000101 00000000000000000000000000000000000000000000000000000000000000000000000000000000000000000000000000000000000000000N 00000000000NCONT   00    00000000000          00000000000000000000000000000000000000000000 000000000000000A000000000000000000000000000000000000000000000 000000000000000000000000000000000000000     00000000                                                                                                                        000000000000000000
