F0010000008772700001000090070882400011050500000000000000000201606270002001FERRESOLDAR DEL CARIBE S.A.S                      D000000002900000000000000000000000100010010000000000000000000000F0010000008772700120160627000101 00000000000000000000000000000000000000000000000000000000000000000000000000000000000000000000000000000000000000000N 00000000000NCONT   00    00000000000          00000000000000000000000000000000000000000000 000000000000000A000000000000000000000000000000000000000000000 000000000000000000000000000000000000000     00000000                                                                                                                        000000000000000000
F0010000008772700002000090070882400041450500000000000000000201606270002001FERRESOLDAR DEL CARIBE S.A.S                      C000000002200000000000000000000000100010010000000000000000000000F0010000008772700220160627000101 00000000000000000000000000000000000000000000000000000000000000000000000000000000000000000000000000000000000000000N 00000000000NCONT   00    00000000000          00000000000000000000000000000000000000000000 000000000000000A000000000000000000000000000000000000000000000 000000000000000000000000000000000000000     00000000                                                                                                                        000000000000000000
F0010000008772700003000090070882400042505000000000000000000201606270002001FERRESOLDAR DEL CARIBE S.A.S                      C000000000700000000000000000000000100010010000000000000000000000F0010000008772700320160627000101 00000000000000000000000000000000000000000000000000000000000000000000000000000000000000000000000000000000000000000N 00000000000NCONT   00    00000000000          00000000000000000000000000000000000000000000 000000000000000A000000000000000000000000000000000000000000000 000000000000000000000000000000000000000     00000000                                                                                                                        000000000000000000
F0010000008772700004000090070882400023658300000000000000000201606270002001FERRESOLDAR DEL CARIBE S.A.S                      C000000000017600000000000000000000100010010000000000000000000000F0010000008772700420160627000101 00000000000000000000000000000000000000000000000000000000000000000000000000000000000000000000000000000000000000000N 00000000000NCONT   00    00000000000          00000000000000000000000000000000000000000000 000000000000000A000000000000000000000000000000000000000000000 000000000000000000000000000000000000000     00000000                                                                                                                        000000000000000000
F0010000008772700005000090070882400013552100000000000000000201606270002001FERRESOLDAR DEL CARIBE S.A.S                      D000000000017600000000000000000000100010010000000000000000000000F0010000008772700520160627000101 00000000000000000000000000000000000000000000000000000000000000000000000000000000000000000000000000000000000000000N 00000000000NCONT   00    00000000000          00000000000000000000000000000000000000000000 000000000000000A000000000000000000000000000000000000000000000 000000000000000000000000000000000000000     00000000                                                                                                                        000000000000000000
F0010000008772800001000090070882400011050500000000000000000201606270002001FERRESOLDAR DEL CARIBE S.A.S                      D000000002900000000000000000000000100010010000000000000000000000F0010000008772800120160627000101 00000000000000000000000000000000000000000000000000000000000000000000000000000000000000000000000000000000000000000N 00000000000NCONT   00    00000000000          00000000000000000000000000000000000000000000 000000000000000A000000000000000000000000000000000000000000000 000000000000000000000000000000000000000     00000000                                                                                                                        000000000000000000
F0010000008772800002000090070882400041450500000000000000000201606270002001FERRESOLDAR DEL CARIBE S.A.S                      C000000002200000000000000000000000100010010000000000000000000000F0010000008772800220160627000101 00000000000000000000000000000000000000000000000000000000000000000000000000000000000000000000000000000000000000000N 00000000000NCONT   00    00000000000          00000000000000000000000000000000000000000000 000000000000000A000000000000000000000000000000000000000000000 000000000000000000000000000000000000000     00000000                                                                                                                        000000000000000000
F0010000008772800003000090070882400042505000000000000000000201606270002001FERRESOLDAR DEL CARIBE S.A.S                      C000000000700000000000000000000000100010010000000000000000000000F0010000008772800320160627000101 00000000000000000000000000000000000000000000000000000000000000000000000000000000000000000000000000000000000000000N 00000000000NCONT   00    00000000000          00000000000000000000000000000000000000000000 000000000000000A000000000000000000000000000000000000000000000 000000000000000000000000000000000000000     00000000                                                                                                                        000000000000000000
F0010000008772800004000090070882400023658300000000000000000201606270002001FERRESOLDAR DEL CARIBE S.A.S                      C000000000017600000000000000000000100010010000000000000000000000F0010000008772800420160627000101 00000000000000000000000000000000000000000000000000000000000000000000000000000000000000000000000000000000000000000N 00000000000NCONT   00    00000000000          00000000000000000000000000000000000000000000 000000000000000A000000000000000000000000000000000000000000000 000000000000000000000000000000000000000     00000000                                                                                                                        000000000000000000
F0010000008772800005000090070882400013552100000000000000000201606270002001FERRESOLDAR DEL CARIBE S.A.S                      D000000000017600000000000000000000100010010000000000000000000000F0010000008772800520160627000101 00000000000000000000000000000000000000000000000000000000000000000000000000000000000000000000000000000000000000000N 00000000000NCONT   00    00000000000          00000000000000000000000000000000000000000000 000000000000000A000000000000000000000000000000000000000000000 000000000000000000000000000000000000000     00000000                                                                                                                        000000000000000000
F0010000008772900001000090070882400011050500000000000000000201606270002001FERRESOLDAR DEL CARIBE S.A.S                      D000000001600000000000000000000000100010010000000000000000000000F0010000008772900120160627000101 00000000000000000000000000000000000000000000000000000000000000000000000000000000000000000000000000000000000000000N 00000000000NCONT   00    00000000000          00000000000000000000000000000000000000000000 000000000000000A000000000000000000000000000000000000000000000 000000000000000000000000000000000000000     00000000                                                                                                                        000000000000000000
F0010000008772900002000090070882400041450500000000000000000201606270002001FERRESOLDAR DEL CARIBE S.A.S                      C000000001200000000000000000000000100010010000000000000000000000F0010000008772900220160627000101 00000000000000000000000000000000000000000000000000000000000000000000000000000000000000000000000000000000000000000N 00000000000NCONT   00    00000000000          00000000000000000000000000000000000000000000 000000000000000A000000000000000000000000000000000000000000000 000000000000000000000000000000000000000     00000000                                                                                                                        000000000000000000
F0010000008772900003000090070882400042505000000000000000000201606270002001FERRESOLDAR DEL CARIBE S.A.S                      C000000000400000000000000000000000100010010000000000000000000000F0010000008772900320160627000101 00000000000000000000000000000000000000000000000000000000000000000000000000000000000000000000000000000000000000000N 00000000000NCONT   00    00000000000          00000000000000000000000000000000000000000000 000000000000000A000000000000000000000000000000000000000000000 000000000000000000000000000000000000000     00000000                                                                                                                        000000000000000000
F0010000008772900004000090070882400023658300000000000000000201606270002001FERRESOLDAR DEL CARIBE S.A.S                      C000000000009600000000000000000000100010010000000000000000000000F0010000008772900420160627000101 00000000000000000000000000000000000000000000000000000000000000000000000000000000000000000000000000000000000000000N 00000000000NCONT   00    00000000000          00000000000000000000000000000000000000000000 000000000000000A000000000000000000000000000000000000000000000 000000000000000000000000000000000000000     00000000                                                                                                                        000000000000000000
F0010000008772900005000090070882400013552100000000000000000201606270002001FERRESOLDAR DEL CARIBE S.A.S                      D000000000009600000000000000000000100010010000000000000000000000F0010000008772900520160627000101 00000000000000000000000000000000000000000000000000000000000000000000000000000000000000000000000000000000000000000N 00000000000NCONT   00    00000000000          00000000000000000000000000000000000000000000 000000000000000A000000000000000000000000000000000000000000000 000000000000000000000000000000000000000     00000000                                                                                                                        000000000000000000
F0010000008773000001000090070882400011050500000000000000000201606270002001FERRESOLDAR DEL CARIBE S.A.S                      D000000002700000000000000000000000100010010000000000000000000000F0010000008773000120160627000101 00000000000000000000000000000000000000000000000000000000000000000000000000000000000000000000000000000000000000000N 00000000000NCONT   00    00000000000          00000000000000000000000000000000000000000000 000000000000000A000000000000000000000000000000000000000000000 000000000000000000000000000000000000000     00000000                                                                                                                        000000000000000000
F0010000008773000002000090070882400041450500000000000000000201606270002001FERRESOLDAR DEL CARIBE S.A.S                      C000000002200000000000000000000000100010010000000000000000000000F0010000008773000220160627000101 00000000000000000000000000000000000000000000000000000000000000000000000000000000000000000000000000000000000000000N 00000000000NCONT   00    00000000000          00000000000000000000000000000000000000000000 000000000000000A000000000000000000000000000000000000000000000 000000000000000000000000000000000000000     00000000                                                                                                                        000000000000000000
F0010000008773000003000090070882400042505000000000000000000201606270002001FERRESOLDAR DEL CARIBE S.A.S                      C000000000500000000000000000000000100010010000000000000000000000F0010000008773000320160627000101 00000000000000000000000000000000000000000000000000000000000000000000000000000000000000000000000000000000000000000N 00000000000NCONT   00    00000000000          00000000000000000000000000000000000000000000 000000000000000A000000000000000000000000000000000000000000000 000000000000000000000000000000000000000     00000000                                                                                                                        000000000000000000
F0010000008773000004000090070882400023658300000000000000000201606270002001FERRESOLDAR DEL CARIBE S.A.S                      C000000000017600000000000000000000100010010000000000000000000000F0010000008773000420160627000101 00000000000000000000000000000000000000000000000000000000000000000000000000000000000000000000000000000000000000000N 00000000000NCONT   00    00000000000          00000000000000000000000000000000000000000000 000000000000000A000000000000000000000000000000000000000000000 000000000000000000000000000000000000000     00000000                                                                                                                        000000000000000000
F0010000008773000005000090070882400013552100000000000000000201606270002001FERRESOLDAR DEL CARIBE S.A.S                      D000000000017600000000000000000000100010010000000000000000000000F0010000008773000520160627000101 00000000000000000000000000000000000000000000000000000000000000000000000000000000000000000000000000000000000000000N 00000000000NCONT   00    00000000000          00000000000000000000000000000000000000000000 000000000000000A000000000000000000000000000000000000000000000 000000000000000000000000000000000000000     00000000                                                                                                                        000000000000000000
F0010000008773100001000090015039900011050500000000000000000201606270002001METALMAX DE COLOMBIA S.A.S                        D000000002500000000000000000000000100010010000000000000000000000F0010000008773100120160627000101 00000000000000000000000000000000000000000000000000000000000000000000000000000000000000000000000000000000000000000N 00000000000NCONT   00    00000000000          00000000000000000000000000000000000000000000 000000000000000A000000000000000000000000000000000000000000000 000000000000000000000000000000000000000     00000000                                                                                                                        000000000000000000
F0010000008773100002000090015039900041450500000000000000000201606270002001METALMAX DE COLOMBIA S.A.S                        C000000002400000000000000000000000100010010000000000000000000000F0010000008773100220160627000101 00000000000000000000000000000000000000000000000000000000000000000000000000000000000000000000000000000000000000000N 00000000000NCONT   00    00000000000          00000000000000000000000000000000000000000000 000000000000000A000000000000000000000000000000000000000000000 000000000000000000000000000000000000000     00000000                                                                                                                        000000000000000000
F0010000008773100003000090015039900042505000000000000000000201606270002001METALMAX DE COLOMBIA S.A.S                        C000000000100000000000000000000000100010010000000000000000000000F0010000008773100320160627000101 00000000000000000000000000000000000000000000000000000000000000000000000000000000000000000000000000000000000000000N 00000000000NCONT   00    00000000000          00000000000000000000000000000000000000000000 000000000000000A000000000000000000000000000000000000000000000 000000000000000000000000000000000000000     00000000                                                                                                                        000000000000000000
F0010000008773100004000090015039900023658300000000000000000201606270002001METALMAX DE COLOMBIA S.A.S                        C000000000019200000000000000000000100010010000000000000000000000F0010000008773100420160627000101 00000000000000000000000000000000000000000000000000000000000000000000000000000000000000000000000000000000000000000N 00000000000NCONT   00    00000000000          00000000000000000000000000000000000000000000 000000000000000A000000000000000000000000000000000000000000000 000000000000000000000000000000000000000     00000000                                                                                                                        000000000000000000
F0010000008773100005000090015039900013552100000000000000000201606270002001METALMAX DE COLOMBIA S.A.S                        D000000000019200000000000000000000100010010000000000000000000000F0010000008773100520160627000101 00000000000000000000000000000000000000000000000000000000000000000000000000000000000000000000000000000000000000000N 00000000000NCONT   00    00000000000          00000000000000000000000000000000000000000000 000000000000000A000000000000000000000000000000000000000000000 000000000000000000000000000000000000000     00000000                                                                                                                        000000000000000000
F0010000008773200001000090049854300013050500000000000000000201606270002001TRAPOS INDUSTRIALES DE COLOMBIA SAS               D000000004496000000000000000000000100010010000000000000000000000F0010000008773200120160627000101 00000000000000000000000000000000000000000000000000000000000000000000000000000000000000000000000000000000000000000N 00000000000NCONT   00    00000000000          00000000000000000000000000000000000000000000 000000000000000A000000000000000000000000000000000000000000000 000000000000000000000000000000000000000     00000000                                                                                                                        000000000000000000
F0010000008773200002000090049854300041450500000000000000000201606270002001TRAPOS INDUSTRIALES DE COLOMBIA SAS               C000000004000000000000000000000000100010010000000000000000000000F0010000008773200220160627000101 00000000000000000000000000000000000000000000000000000000000000000000000000000000000000000000000000000000000000000N 00000000000NCONT   00    00000000000          00000000000000000000000000000000000000000000 000000000000000A000000000000000000000000000000000000000000000 000000000000000000000000000000000000000     00000000                                                                                                                        000000000000000000
F0010000008773200003000090049854300042505000000000000000000201606270002001TRAPOS INDUSTRIALES DE COLOMBIA SAS               C000000000496000000000000000000000100010010000000000000000000000F0010000008773200320160627000101 00000000000000000000000000000000000000000000000000000000000000000000000000000000000000000000000000000000000000000N 00000000000NCONT   00    00000000000          00000000000000000000000000000000000000000000 000000000000000A000000000000000000000000000000000000000000000 000000000000000000000000000000000000000     00000000                                                                                                                        000000000000000000
F0010000008773200004000090049854300023658300000000000000000201606270002001TRAPOS INDUSTRIALES DE COLOMBIA SAS               C000000000032000000000000000000000100010010000000000000000000000F0010000008773200420160627000101 00000000000000000000000000000000000000000000000000000000000000000000000000000000000000000000000000000000000000000N 00000000000NCONT   00    00000000000          00000000000000000000000000000000000000000000 000000000000000A000000000000000000000000000000000000000000000 000000000000000000000000000000000000000     00000000                                                                                                                        000000000000000000
F0010000008773200005000090049854300013552100000000000000000201606270002001TRAPOS INDUSTRIALES DE COLOMBIA SAS               D000000000032000000000000000000000100010010000000000000000000000F0010000008773200520160627000101 00000000000000000000000000000000000000000000000000000000000000000000000000000000000000000000000000000000000000000N 00000000000NCONT   00    00000000000          00000000000000000000000000000000000000000000 000000000000000A000000000000000000000000000000000000000000000 000000000000000000000000000000000000000     00000000                                                                                                                        000000000000000000
F0010000008773300001000089010260300013050500000000000000000201606270002001FEDERICO OSORIO A. S.A.                           D000000059167900000000000000000000100010010000000000000000000000F0010000008773300120160627000101 00000000000000000000000000000000000000000000000000000000000000000000000000000000000000000000000000000000000000000N 00000000000NCONT   00    00000000000          00000000000000000000000000000000000000000000 000000000000000A000000000000000000000000000000000000000000000 000000000000000000000000000000000000000     00000000                                                                                                                        000000000000000000
F0010000008773300002000089010260300041450500000000000000000201606270002001FEDERICO OSORIO A. S.A.                           C000000053650000000000000000000000100010010000000000000000000000F0010000008773300220160627000101 00000000000000000000000000000000000000000000000000000000000000000000000000000000000000000000000000000000000000000N 00000000000NCONT   00    00000000000          00000000000000000000000000000000000000000000 000000000000000A000000000000000000000000000000000000000000000 000000000000000000000000000000000000000     00000000                                                                                                                        000000000000000000
F0010000008773300003000089010260300042505000000000000000000201606270002001FEDERICO OSORIO A. S.A.                           C000000005517900000000000000000000100010010000000000000000000000F0010000008773300320160627000101 00000000000000000000000000000000000000000000000000000000000000000000000000000000000000000000000000000000000000000N 00000000000NCONT   00    00000000000          00000000000000000000000000000000000000000000 000000000000000A000000000000000000000000000000000000000000000 000000000000000000000000000000000000000     00000000                                                                                                                        000000000000000000
F0010000008773300004000089010260300023658300000000000000000201606270002001FEDERICO OSORIO A. S.A.                           C000000000429200000000000000000000100010010000000000000000000000F0010000008773300420160627000101 00000000000000000000000000000000000000000000000000000000000000000000000000000000000000000000000000000000000000000N 00000000000NCONT   00    00000000000          00000000000000000000000000000000000000000000 000000000000000A000000000000000000000000000000000000000000000 000000000000000000000000000000000000000     00000000                                                                                                                        000000000000000000
F0010000008773300005000089010260300013552100000000000000000201606270002001FEDERICO OSORIO A. S.A.                           D000000000429200000000000000000000100010010000000000000000000000F0010000008773300520160627000101 00000000000000000000000000000000000000000000000000000000000000000000000000000000000000000000000000000000000000000N 00000000000NCONT   00    00000000000          00000000000000000000000000000000000000000000 000000000000000A000000000000000000000000000000000000000000000 000000000000000000000000000000000000000     00000000                                                                                                                        000000000000000000
F0010000008773400001000000870053600011050500000000000000000201606270002001FARID ARRIETA                                     D000000001200000000000000000000000100010010000000000000000000000F0010000008773400120160627000101 00000000000000000000000000000000000000000000000000000000000000000000000000000000000000000000000000000000000000000N 00000000000NCONT   00    00000000000          00000000000000000000000000000000000000000000 000000000000000A000000000000000000000000000000000000000000000 000000000000000000000000000000000000000     00000000                                                                                                                        000000000000000000
F0010000008773400002000000870053600041450500000000000000000201606270002001FARID ARRIETA                                     C000000001000000000000000000000000100010010000000000000000000000F0010000008773400220160627000101 00000000000000000000000000000000000000000000000000000000000000000000000000000000000000000000000000000000000000000N 00000000000NCONT   00    00000000000          00000000000000000000000000000000000000000000 000000000000000A000000000000000000000000000000000000000000000 000000000000000000000000000000000000000     00000000                                                                                                                        000000000000000000
F0010000008773400003000000870053600042505000000000000000000201606270002001FARID ARRIETA                                     C000000000200000000000000000000000100010010000000000000000000000F0010000008773400320160627000101 00000000000000000000000000000000000000000000000000000000000000000000000000000000000000000000000000000000000000000N 00000000000NCONT   00    00000000000          00000000000000000000000000000000000000000000 000000000000000A000000000000000000000000000000000000000000000 000000000000000000000000000000000000000     00000000                                                                                                                        000000000000000000
F0010000008773400004000000870053600023658300000000000000000201606270002001FARID ARRIETA                                     C000000000008000000000000000000000100010010000000000000000000000F0010000008773400420160627000101 00000000000000000000000000000000000000000000000000000000000000000000000000000000000000000000000000000000000000000N 00000000000NCONT   00    00000000000          00000000000000000000000000000000000000000000 000000000000000A000000000000000000000000000000000000000000000 000000000000000000000000000000000000000     00000000                                                                                                                        000000000000000000
F0010000008773400005000000870053600013552100000000000000000201606270002001FARID ARRIETA                                     D000000000008000000000000000000000100010010000000000000000000000F0010000008773400520160627000101 00000000000000000000000000000000000000000000000000000000000000000000000000000000000000000000000000000000000000000N 00000000000NCONT   00    00000000000          00000000000000000000000000000000000000000000 000000000000000A000000000000000000000000000000000000000000000 000000000000000000000000000000000000000     00000000                                                                                                                        000000000000000000
F0010000008773500001000080018877200011050500000000000000000201606270002001DROGUERIA INDUSTRIAL JEMAR LTDA                   D000000001300000000000000000000000100010010000000000000000000000F0010000008773500120160627000101 00000000000000000000000000000000000000000000000000000000000000000000000000000000000000000000000000000000000000000N 00000000000NCONT   00    00000000000          00000000000000000000000000000000000000000000 000000000000000A000000000000000000000000000000000000000000000 000000000000000000000000000000000000000     00000000                                                                                                                        000000000000000000
F0010000008773500002000080018877200041450500000000000000000201606270002001DROGUERIA INDUSTRIAL JEMAR LTDA                   C000000001100000000000000000000000100010010000000000000000000000F0010000008773500220160627000101 00000000000000000000000000000000000000000000000000000000000000000000000000000000000000000000000000000000000000000N 00000000000NCONT   00    00000000000          00000000000000000000000000000000000000000000 000000000000000A000000000000000000000000000000000000000000000 000000000000000000000000000000000000000     00000000                                                                                                                        000000000000000000
F0010000008773500003000080018877200042505000000000000000000201606270002001DROGUERIA INDUSTRIAL JEMAR LTDA                   C000000000200000000000000000000000100010010000000000000000000000F0010000008773500320160627000101 00000000000000000000000000000000000000000000000000000000000000000000000000000000000000000000000000000000000000000N 00000000000NCONT   00    00000000000          00000000000000000000000000000000000000000000 000000000000000A000000000000000000000000000000000000000000000 000000000000000000000000000000000000000     00000000                                                                                                                        000000000000000000
F0010000008773500004000080018877200023658300000000000000000201606270002001DROGUERIA INDUSTRIAL JEMAR LTDA                   C000000000008800000000000000000000100010010000000000000000000000F0010000008773500420160627000101 00000000000000000000000000000000000000000000000000000000000000000000000000000000000000000000000000000000000000000N 00000000000NCONT   00    00000000000          00000000000000000000000000000000000000000000 000000000000000A000000000000000000000000000000000000000000000 000000000000000000000000000000000000000     00000000                                                                                                                        000000000000000000
F0010000008773500005000080018877200013552100000000000000000201606270002001DROGUERIA INDUSTRIAL JEMAR LTDA                   D000000000008800000000000000000000100010010000000000000000000000F0010000008773500520160627000101 00000000000000000000000000000000000000000000000000000000000000000000000000000000000000000000000000000000000000000N 00000000000NCONT   00    00000000000          00000000000000000000000000000000000000000000 000000000000000A000000000000000000000000000000000000000000000 000000000000000000000000000000000000000     00000000                                                                                                                        000000000000000000
F0010000008773600001000080201411900011050500000000000000000201606270002001PLASTISERVICIOS S DE H                            D000000003600000000000000000000000100010010000000000000000000000F0010000008773600120160627000101 00000000000000000000000000000000000000000000000000000000000000000000000000000000000000000000000000000000000000000N 00000000000NCONT   00    00000000000          00000000000000000000000000000000000000000000 000000000000000A000000000000000000000000000000000000000000000 000000000000000000000000000000000000000     00000000                                                                                                                        000000000000000000
F0010000008773600002000080201411900041450500000000000000000201606270002001PLASTISERVICIOS S DE H                            C000000002870000000000000000000000100010010000000000000000000000F0010000008773600220160627000101 00000000000000000000000000000000000000000000000000000000000000000000000000000000000000000000000000000000000000000N 00000000000NCONT   00    00000000000          00000000000000000000000000000000000000000000 000000000000000A000000000000000000000000000000000000000000000 000000000000000000000000000000000000000     00000000                                                                                                                        000000000000000000
F0010000008773600003000080201411900042505000000000000000000201606270002001PLASTISERVICIOS S DE H                            C000000000730000000000000000000000100010010000000000000000000000F0010000008773600320160627000101 00000000000000000000000000000000000000000000000000000000000000000000000000000000000000000000000000000000000000000N 00000000000NCONT   00    00000000000          00000000000000000000000000000000000000000000 000000000000000A000000000000000000000000000000000000000000000 000000000000000000000000000000000000000     00000000                                                                                                                        000000000000000000
F0010000008773600004000080201411900023658300000000000000000201606270002001PLASTISERVICIOS S DE H                            C000000000023000000000000000000000100010010000000000000000000000F0010000008773600420160627000101 00000000000000000000000000000000000000000000000000000000000000000000000000000000000000000000000000000000000000000N 00000000000NCONT   00    00000000000          00000000000000000000000000000000000000000000 000000000000000A000000000000000000000000000000000000000000000 000000000000000000000000000000000000000     00000000                                                                                                                        000000000000000000
F0010000008773600005000080201411900013552100000000000000000201606270002001PLASTISERVICIOS S DE H                            D000000000023000000000000000000000100010010000000000000000000000F0010000008773600520160627000101 00000000000000000000000000000000000000000000000000000000000000000000000000000000000000000000000000000000000000000N 00000000000NCONT   00    00000000000          00000000000000000000000000000000000000000000 000000000000000A000000000000000000000000000000000000000000000 000000000000000000000000000000000000000     00000000                                                                                                                        000000000000000000
F0010000008773700001000090051494400011050500000000000000000201606270002001MUNDINOX SAS                                      D000000004000000000000000000000000100010010000000000000000000000F0010000008773700120160627000101 00000000000000000000000000000000000000000000000000000000000000000000000000000000000000000000000000000000000000000N 00000000000NCONT   00    00000000000          00000000000000000000000000000000000000000000 000000000000000A000000000000000000000000000000000000000000000 000000000000000000000000000000000000000     00000000                                                                                                                        000000000000000000
F0010000008773700002000090051494400041450500000000000000000201606270002001MUNDINOX SAS                                      C000000003500000000000000000000000100010010000000000000000000000F0010000008773700220160627000101 00000000000000000000000000000000000000000000000000000000000000000000000000000000000000000000000000000000000000000N 00000000000NCONT   00    00000000000          00000000000000000000000000000000000000000000 000000000000000A000000000000000000000000000000000000000000000 000000000000000000000000000000000000000     00000000                                                                                                                        000000000000000000
F0010000008773700003000090051494400042505000000000000000000201606270002001MUNDINOX SAS                                      C000000000500000000000000000000000100010010000000000000000000000F0010000008773700320160627000101 00000000000000000000000000000000000000000000000000000000000000000000000000000000000000000000000000000000000000000N 00000000000NCONT   00    00000000000          00000000000000000000000000000000000000000000 000000000000000A000000000000000000000000000000000000000000000 000000000000000000000000000000000000000     00000000                                                                                                                        000000000000000000
F0010000008773700004000090051494400023658300000000000000000201606270002001MUNDINOX SAS                                      C000000000028000000000000000000000100010010000000000000000000000F0010000008773700420160627000101 00000000000000000000000000000000000000000000000000000000000000000000000000000000000000000000000000000000000000000N 00000000000NCONT   00    00000000000          00000000000000000000000000000000000000000000 000000000000000A000000000000000000000000000000000000000000000 000000000000000000000000000000000000000     00000000                                                                                                                        000000000000000000
F0010000008773700005000090051494400013552100000000000000000201606270002001MUNDINOX SAS                                      D000000000028000000000000000000000100010010000000000000000000000F0010000008773700520160627000101 00000000000000000000000000000000000000000000000000000000000000000000000000000000000000000000000000000000000000000N 00000000000NCONT   00    00000000000          00000000000000000000000000000000000000000000 000000000000000A000000000000000000000000000000000000000000000 000000000000000000000000000000000000000     00000000                                                                                                                        000000000000000000
F0010000008773800001000090051494400011050500000000000000000201606270002001MUNDINOX SAS                                      D000000024000000000000000000000000100010010000000000000000000000F0010000008773800120160627000101 00000000000000000000000000000000000000000000000000000000000000000000000000000000000000000000000000000000000000000N 00000000000NCONT   00    00000000000          00000000000000000000000000000000000000000000 000000000000000A000000000000000000000000000000000000000000000 000000000000000000000000000000000000000     00000000                                                                                                                        000000000000000000
F0010000008773800002000090051494400041450500000000000000000201606270002001MUNDINOX SAS                                      C000000022000000000000000000000000100010010000000000000000000000F0010000008773800220160627000101 00000000000000000000000000000000000000000000000000000000000000000000000000000000000000000000000000000000000000000N 00000000000NCONT   00    00000000000          00000000000000000000000000000000000000000000 000000000000000A000000000000000000000000000000000000000000000 000000000000000000000000000000000000000     00000000                                                                                                                        000000000000000000
F0010000008773800003000090051494400042505000000000000000000201606270002001MUNDINOX SAS                                      C000000002000000000000000000000000100010010000000000000000000000F0010000008773800320160627000101 00000000000000000000000000000000000000000000000000000000000000000000000000000000000000000000000000000000000000000N 00000000000NCONT   00    00000000000          00000000000000000000000000000000000000000000 000000000000000A000000000000000000000000000000000000000000000 000000000000000000000000000000000000000     00000000                                                                                                                        000000000000000000
F0010000008773800004000090051494400023658300000000000000000201606270002001MUNDINOX SAS                                      C000000000176000000000000000000000100010010000000000000000000000F0010000008773800420160627000101 00000000000000000000000000000000000000000000000000000000000000000000000000000000000000000000000000000000000000000N 00000000000NCONT   00    00000000000          00000000000000000000000000000000000000000000 000000000000000A000000000000000000000000000000000000000000000 000000000000000000000000000000000000000     00000000                                                                                                                        000000000000000000
F0010000008773800005000090051494400013552100000000000000000201606270002001MUNDINOX SAS                                      D000000000176000000000000000000000100010010000000000000000000000F0010000008773800520160627000101 00000000000000000000000000000000000000000000000000000000000000000000000000000000000000000000000000000000000000000N 00000000000NCONT   00    00000000000          00000000000000000000000000000000000000000000 000000000000000A000000000000000000000000000000000000000000000 000000000000000000000000000000000000000     00000000                                                                                                                        000000000000000000
F0010000008773900001000090055180500011050500000000000000000201606270002001LAMINAS Y SUELAS DE COLOMBIA S.A.S                D000000001300000000000000000000000100010010000000000000000000000F0010000008773900120160627000101 00000000000000000000000000000000000000000000000000000000000000000000000000000000000000000000000000000000000000000N 00000000000NCONT   00    00000000000          00000000000000000000000000000000000000000000 000000000000000A000000000000000000000000000000000000000000000 000000000000000000000000000000000000000     00000000                                                                                                                        000000000000000000
F0010000008773900002000090055180500041450500000000000000000201606270002001LAMINAS Y SUELAS DE COLOMBIA S.A.S                C000000001000000000000000000000000100010010000000000000000000000F0010000008773900220160627000101 00000000000000000000000000000000000000000000000000000000000000000000000000000000000000000000000000000000000000000N 00000000000NCONT   00    00000000000          00000000000000000000000000000000000000000000 000000000000000A000000000000000000000000000000000000000000000 000000000000000000000000000000000000000     00000000                                                                                                                        000000000000000000
F0010000008773900003000090055180500042505000000000000000000201606270002001LAMINAS Y SUELAS DE COLOMBIA S.A.S                C000000000300000000000000000000000100010010000000000000000000000F0010000008773900320160627000101 00000000000000000000000000000000000000000000000000000000000000000000000000000000000000000000000000000000000000000N 00000000000NCONT   00    00000000000          00000000000000000000000000000000000000000000 000000000000000A000000000000000000000000000000000000000000000 000000000000000000000000000000000000000     00000000                                                                                                                        000000000000000000
F0010000008773900004000090055180500023658300000000000000000201606270002001LAMINAS Y SUELAS DE COLOMBIA S.A.S                C000000000008000000000000000000000100010010000000000000000000000F0010000008773900420160627000101 00000000000000000000000000000000000000000000000000000000000000000000000000000000000000000000000000000000000000000N 00000000000NCONT   00    00000000000          00000000000000000000000000000000000000000000 000000000000000A000000000000000000000000000000000000000000000 000000000000000000000000000000000000000     00000000                                                                                                                        000000000000000000
F0010000008773900005000090055180500013552100000000000000000201606270002001LAMINAS Y SUELAS DE COLOMBIA S.A.S                D000000000008000000000000000000000100010010000000000000000000000F0010000008773900520160627000101 00000000000000000000000000000000000000000000000000000000000000000000000000000000000000000000000000000000000000000N 00000000000NCONT   00    00000000000          00000000000000000000000000000000000000000000 000000000000000A000000000000000000000000000000000000000000000 000000000000000000000000000000000000000     00000000                                                                                                                        000000000000000000
F0010000008774000001000080023327700011050500000000000000000201606270002001DISINCO LTDA                                      D000000003972000000000000000000000100010010000000000000000000000F0010000008774000120160627000101 00000000000000000000000000000000000000000000000000000000000000000000000000000000000000000000000000000000000000000N 00000000000NCONT   00    00000000000          00000000000000000000000000000000000000000000 000000000000000A000000000000000000000000000000000000000000000 000000000000000000000000000000000000000     00000000                                                                                                                        000000000000000000
F0010000008774000002000080023327700041450500000000000000000201606270002001DISINCO LTDA                                      C000000003872000000000000000000000100010010000000000000000000000F0010000008774000220160627000101 00000000000000000000000000000000000000000000000000000000000000000000000000000000000000000000000000000000000000000N 00000000000NCONT   00    00000000000          00000000000000000000000000000000000000000000 000000000000000A000000000000000000000000000000000000000000000 000000000000000000000000000000000000000     00000000                                                                                                                        000000000000000000
F0010000008774000003000080023327700042505000000000000000000201606270002001DISINCO LTDA                                      C000000000100000000000000000000000100010010000000000000000000000F0010000008774000320160627000101 00000000000000000000000000000000000000000000000000000000000000000000000000000000000000000000000000000000000000000N 00000000000NCONT   00    00000000000          00000000000000000000000000000000000000000000 000000000000000A000000000000000000000000000000000000000000000 000000000000000000000000000000000000000     00000000                                                                                                                        000000000000000000
F0010000008774000004000080023327700023658300000000000000000201606270002001DISINCO LTDA                                      C000000000031000000000000000000000100010010000000000000000000000F0010000008774000420160627000101 00000000000000000000000000000000000000000000000000000000000000000000000000000000000000000000000000000000000000000N 00000000000NCONT   00    00000000000          00000000000000000000000000000000000000000000 000000000000000A000000000000000000000000000000000000000000000 000000000000000000000000000000000000000     00000000                                                                                                                        000000000000000000
F0010000008774000005000080023327700013552100000000000000000201606270002001DISINCO LTDA                                      D000000000031000000000000000000000100010010000000000000000000000F0010000008774000520160627000101 00000000000000000000000000000000000000000000000000000000000000000000000000000000000000000000000000000000000000000N 00000000000NCONT   00    00000000000          00000000000000000000000000000000000000000000 000000000000000A000000000000000000000000000000000000000000000 000000000000000000000000000000000000000     00000000                                                                                                                        000000000000000000
F0010000008774100001000007229328500011050500000000000000000201606270002001PV ELECTRIC   DEL CARIBE                          D000000003100000000000000000000000100010010000000000000000000000F0010000008774100120160627000101 00000000000000000000000000000000000000000000000000000000000000000000000000000000000000000000000000000000000000000N 00000000000NCONT   00    00000000000          00000000000000000000000000000000000000000000 000000000000000A000000000000000000000000000000000000000000000 000000000000000000000000000000000000000     00000000                                                                                                                        000000000000000000
F0010000008774100002000007229328500041450500000000000000000201606270002001PV ELECTRIC   DEL CARIBE                          C000000002700000000000000000000000100010010000000000000000000000F0010000008774100220160627000101 00000000000000000000000000000000000000000000000000000000000000000000000000000000000000000000000000000000000000000N 00000000000NCONT   00    00000000000          00000000000000000000000000000000000000000000 000000000000000A000000000000000000000000000000000000000000000 000000000000000000000000000000000000000     00000000                                                                                                                        000000000000000000
F0010000008774100003000007229328500042505000000000000000000201606270002001PV ELECTRIC   DEL CARIBE                          C000000000400000000000000000000000100010010000000000000000000000F0010000008774100320160627000101 00000000000000000000000000000000000000000000000000000000000000000000000000000000000000000000000000000000000000000N 00000000000NCONT   00    00000000000          00000000000000000000000000000000000000000000 000000000000000A000000000000000000000000000000000000000000000 000000000000000000000000000000000000000     00000000                                                                                                                        000000000000000000
F0010000008774100004000007229328500023658300000000000000000201606270002001PV ELECTRIC   DEL CARIBE                          C000000000021600000000000000000000100010010000000000000000000000F0010000008774100420160627000101 00000000000000000000000000000000000000000000000000000000000000000000000000000000000000000000000000000000000000000N 00000000000NCONT   00    00000000000          00000000000000000000000000000000000000000000 000000000000000A000000000000000000000000000000000000000000000 000000000000000000000000000000000000000     00000000                                                                                                                        000000000000000000
F0010000008774100005000007229328500013552100000000000000000201606270002001PV ELECTRIC   DEL CARIBE                          D000000000021600000000000000000000100010010000000000000000000000F0010000008774100520160627000101 00000000000000000000000000000000000000000000000000000000000000000000000000000000000000000000000000000000000000000N 00000000000NCONT   00    00000000000          00000000000000000000000000000000000000000000 000000000000000A000000000000000000000000000000000000000000000 000000000000000000000000000000000000000     00000000                                                                                                                        000000000000000000
F0010000008774200001000089011078600011050500000000000000000201606270002001DIST. NUEVO MUNDO S.A.S.                          D000000001757500000000000000000000100010010000000000000000000000F0010000008774200120160627000101 00000000000000000000000000000000000000000000000000000000000000000000000000000000000000000000000000000000000000000N 00000000000NCONT   00    00000000000          00000000000000000000000000000000000000000000 000000000000000A000000000000000000000000000000000000000000000 000000000000000000000000000000000000000     00000000                                                                                                                        000000000000000000
F0010000008774200002000089011078600041450500000000000000000201606270002001DIST. NUEVO MUNDO S.A.S.                          C000000001470000000000000000000000100010010000000000000000000000F0010000008774200220160627000101 00000000000000000000000000000000000000000000000000000000000000000000000000000000000000000000000000000000000000000N 00000000000NCONT   00    00000000000          00000000000000000000000000000000000000000000 000000000000000A000000000000000000000000000000000000000000000 000000000000000000000000000000000000000     00000000                                                                                                                        000000000000000000
F0010000008774200003000089011078600042505000000000000000000201606270002001DIST. NUEVO MUNDO S.A.S.                          C000000000287500000000000000000000100010010000000000000000000000F0010000008774200320160627000101 00000000000000000000000000000000000000000000000000000000000000000000000000000000000000000000000000000000000000000N 00000000000NCONT   00    00000000000          00000000000000000000000000000000000000000000 000000000000000A000000000000000000000000000000000000000000000 000000000000000000000000000000000000000     00000000                                                                                                                        000000000000000000
F0010000008774200004000089011078600023658300000000000000000201606270002001DIST. NUEVO MUNDO S.A.S.                          C000000000011800000000000000000000100010010000000000000000000000F0010000008774200420160627000101 00000000000000000000000000000000000000000000000000000000000000000000000000000000000000000000000000000000000000000N 00000000000NCONT   00    00000000000          00000000000000000000000000000000000000000000 000000000000000A000000000000000000000000000000000000000000000 000000000000000000000000000000000000000     00000000                                                                                                                        000000000000000000
F0010000008774200005000089011078600013552100000000000000000201606270002001DIST. NUEVO MUNDO S.A.S.                          D000000000011800000000000000000000100010010000000000000000000000F0010000008774200520160627000101 00000000000000000000000000000000000000000000000000000000000000000000000000000000000000000000000000000000000000000N 00000000000NCONT   00    00000000000          00000000000000000000000000000000000000000000 000000000000000A000000000000000000000000000000000000000000000 000000000000000000000000000000000000000     00000000                                                                                                                        000000000000000000
F0010000008774300001000102390001700011050500000000000000000201606270002001LILIANA HERNANDEZ PINILLA                         D000000003400000000000000000000000100010010000000000000000000000F0010000008774300120160627000101 00000000000000000000000000000000000000000000000000000000000000000000000000000000000000000000000000000000000000000N 00000000000NCONT   00    00000000000          00000000000000000000000000000000000000000000 000000000000000A000000000000000000000000000000000000000000000 000000000000000000000000000000000000000     00000000                                                                                                                        000000000000000000
F0010000008774300002000102390001700041450500000000000000000201606270002001LILIANA HERNANDEZ PINILLA                         C000000002400000000000000000000000100010010000000000000000000000F0010000008774300220160627000101 00000000000000000000000000000000000000000000000000000000000000000000000000000000000000000000000000000000000000000N 00000000000NCONT   00    00000000000          00000000000000000000000000000000000000000000 000000000000000A000000000000000000000000000000000000000000000 000000000000000000000000000000000000000     00000000                                                                                                                        000000000000000000
F0010000008774300003000102390001700042505000000000000000000201606270002001LILIANA HERNANDEZ PINILLA                         C000000001000000000000000000000000100010010000000000000000000000F0010000008774300320160627000101 00000000000000000000000000000000000000000000000000000000000000000000000000000000000000000000000000000000000000000N 00000000000NCONT   00    00000000000          00000000000000000000000000000000000000000000 000000000000000A000000000000000000000000000000000000000000000 000000000000000000000000000000000000000     00000000                                                                                                                        000000000000000000
F0010000008774300004000102390001700023658300000000000000000201606270002001LILIANA HERNANDEZ PINILLA                         C000000000019200000000000000000000100010010000000000000000000000F0010000008774300420160627000101 00000000000000000000000000000000000000000000000000000000000000000000000000000000000000000000000000000000000000000N 00000000000NCONT   00    00000000000          00000000000000000000000000000000000000000000 000000000000000A000000000000000000000000000000000000000000000 000000000000000000000000000000000000000     00000000                                                                                                                        000000000000000000
F0010000008774300005000102390001700013552100000000000000000201606270002001LILIANA HERNANDEZ PINILLA                         D000000000019200000000000000000000100010010000000000000000000000F0010000008774300520160627000101 00000000000000000000000000000000000000000000000000000000000000000000000000000000000000000000000000000000000000000N 00000000000NCONT   00    00000000000          00000000000000000000000000000000000000000000 000000000000000A000000000000000000000000000000000000000000000 000000000000000000000000000000000000000     00000000                                                                                                                        000000000000000000
F0010000008774400001000000742399700011050500000000000000000201606270002001CACHARRERIA EL NUEVO CHADID                       D000000001000000000000000000000000100010010000000000000000000000F0010000008774400120160627000101 00000000000000000000000000000000000000000000000000000000000000000000000000000000000000000000000000000000000000000N 00000000000NCONT   00    00000000000          00000000000000000000000000000000000000000000 000000000000000A000000000000000000000000000000000000000000000 000000000000000000000000000000000000000     00000000                                                                                                                        000000000000000000
F0010000008774400002000000742399700041450500000000000000000201606270002001CACHARRERIA EL NUEVO CHADID                       C000000000850000000000000000000000100010010000000000000000000000F0010000008774400220160627000101 00000000000000000000000000000000000000000000000000000000000000000000000000000000000000000000000000000000000000000N 00000000000NCONT   00    00000000000          00000000000000000000000000000000000000000000 000000000000000A000000000000000000000000000000000000000000000 000000000000000000000000000000000000000     00000000                                                                                                                        000000000000000000
F0010000008774400003000000742399700042505000000000000000000201606270002001CACHARRERIA EL NUEVO CHADID                       C000000000150000000000000000000000100010010000000000000000000000F0010000008774400320160627000101 00000000000000000000000000000000000000000000000000000000000000000000000000000000000000000000000000000000000000000N 00000000000NCONT   00    00000000000          00000000000000000000000000000000000000000000 000000000000000A000000000000000000000000000000000000000000000 000000000000000000000000000000000000000     00000000                                                                                                                        000000000000000000
F0010000008774400004000000742399700023658300000000000000000201606270002001CACHARRERIA EL NUEVO CHADID                       C000000000006800000000000000000000100010010000000000000000000000F0010000008774400420160627000101 00000000000000000000000000000000000000000000000000000000000000000000000000000000000000000000000000000000000000000N 00000000000NCONT   00    00000000000          00000000000000000000000000000000000000000000 000000000000000A000000000000000000000000000000000000000000000 000000000000000000000000000000000000000     00000000                                                                                                                        000000000000000000
F0010000008774400005000000742399700013552100000000000000000201606270002001CACHARRERIA EL NUEVO CHADID                       D000000000006800000000000000000000100010010000000000000000000000F0010000008774400520160627000101 00000000000000000000000000000000000000000000000000000000000000000000000000000000000000000000000000000000000000000N 00000000000NCONT   00    00000000000          00000000000000000000000000000000000000000000 000000000000000A000000000000000000000000000000000000000000000 000000000000000000000000000000000000000     00000000                                                                                                                        000000000000000000
F0010000008774500001000003273290300011050500000000000000000201606270002001YANETH GOMEZ ROJANO -  COMERCIALIZADORA YG        D000000000450000000000000000000000100010010000000000000000000000F0010000008774500120160627000101 00000000000000000000000000000000000000000000000000000000000000000000000000000000000000000000000000000000000000000N 00000000000NCONT   00    00000000000          00000000000000000000000000000000000000000000 000000000000000A000000000000000000000000000000000000000000000 000000000000000000000000000000000000000     00000000                                                                                                                        000000000000000000
F0010000008774500002000003273290300041450500000000000000000201606270002001YANETH GOMEZ ROJANO -  COMERCIALIZADORA YG        C000000000300000000000000000000000100010010000000000000000000000F0010000008774500220160627000101 00000000000000000000000000000000000000000000000000000000000000000000000000000000000000000000000000000000000000000N 00000000000NCONT   00    00000000000          00000000000000000000000000000000000000000000 000000000000000A000000000000000000000000000000000000000000000 000000000000000000000000000000000000000     00000000                                                                                                                        000000000000000000
F0010000008774500003000003273290300042505000000000000000000201606270002001YANETH GOMEZ ROJANO -  COMERCIALIZADORA YG        C000000000150000000000000000000000100010010000000000000000000000F0010000008774500320160627000101 00000000000000000000000000000000000000000000000000000000000000000000000000000000000000000000000000000000000000000N 00000000000NCONT   00    00000000000          00000000000000000000000000000000000000000000 000000000000000A000000000000000000000000000000000000000000000 000000000000000000000000000000000000000     00000000                                                                                                                        000000000000000000
F0010000008774500004000003273290300023658300000000000000000201606270002001YANETH GOMEZ ROJANO -  COMERCIALIZADORA YG        C000000000002400000000000000000000100010010000000000000000000000F0010000008774500420160627000101 00000000000000000000000000000000000000000000000000000000000000000000000000000000000000000000000000000000000000000N 00000000000NCONT   00    00000000000          00000000000000000000000000000000000000000000 000000000000000A000000000000000000000000000000000000000000000 000000000000000000000000000000000000000     00000000                                                                                                                        000000000000000000
F0010000008774500005000003273290300013552100000000000000000201606270002001YANETH GOMEZ ROJANO -  COMERCIALIZADORA YG        D000000000002400000000000000000000100010010000000000000000000000F0010000008774500520160627000101 00000000000000000000000000000000000000000000000000000000000000000000000000000000000000000000000000000000000000000N 00000000000NCONT   00    00000000000          00000000000000000000000000000000000000000000 000000000000000A000000000000000000000000000000000000000000000 000000000000000000000000000000000000000     00000000                                                                                                                        000000000000000000
F0010000008774600001000003273290300011050500000000000000000201606270002001YANETH GOMEZ ROJANO -  COMERCIALIZADORA YG        D000000001000000000000000000000000100010010000000000000000000000F0010000008774600120160627000101 00000000000000000000000000000000000000000000000000000000000000000000000000000000000000000000000000000000000000000N 00000000000NCONT   00    00000000000          00000000000000000000000000000000000000000000 000000000000000A000000000000000000000000000000000000000000000 000000000000000000000000000000000000000     00000000                                                                                                                        000000000000000000
F0010000008774600002000003273290300041450500000000000000000201606270002001YANETH GOMEZ ROJANO -  COMERCIALIZADORA YG        C000000000850000000000000000000000100010010000000000000000000000F0010000008774600220160627000101 00000000000000000000000000000000000000000000000000000000000000000000000000000000000000000000000000000000000000000N 00000000000NCONT   00    00000000000          00000000000000000000000000000000000000000000 000000000000000A000000000000000000000000000000000000000000000 000000000000000000000000000000000000000     00000000                                                                                                                        000000000000000000
F0010000008774600003000003273290300042505000000000000000000201606270002001YANETH GOMEZ ROJANO -  COMERCIALIZADORA YG        C000000000150000000000000000000000100010010000000000000000000000F0010000008774600320160627000101 00000000000000000000000000000000000000000000000000000000000000000000000000000000000000000000000000000000000000000N 00000000000NCONT   00    00000000000          00000000000000000000000000000000000000000000 000000000000000A000000000000000000000000000000000000000000000 000000000000000000000000000000000000000     00000000                                                                                                                        000000000000000000
F0010000008774600004000003273290300023658300000000000000000201606270002001YANETH GOMEZ ROJANO -  COMERCIALIZADORA YG        C000000000006800000000000000000000100010010000000000000000000000F0010000008774600420160627000101 00000000000000000000000000000000000000000000000000000000000000000000000000000000000000000000000000000000000000000N 00000000000NCONT   00    00000000000          00000000000000000000000000000000000000000000 000000000000000A000000000000000000000000000000000000000000000 000000000000000000000000000000000000000     00000000                                                                                                                        000000000000000000
F0010000008774600005000003273290300013552100000000000000000201606270002001YANETH GOMEZ ROJANO -  COMERCIALIZADORA YG        D000000000006800000000000000000000100010010000000000000000000000F0010000008774600520160627000101 00000000000000000000000000000000000000000000000000000000000000000000000000000000000000000000000000000000000000000N 00000000000NCONT   00    00000000000          00000000000000000000000000000000000000000000 000000000000000A000000000000000000000000000000000000000000000 000000000000000000000000000000000000000     00000000                                                                                                                        000000000000000000
F0010000008774700001000003273290300011050500000000000000000201606270002001YANETH GOMEZ ROJANO -  COMERCIALIZADORA YG        D000000000450000000000000000000000100010010000000000000000000000F0010000008774700120160627000101 00000000000000000000000000000000000000000000000000000000000000000000000000000000000000000000000000000000000000000N 00000000000NCONT   00    00000000000          00000000000000000000000000000000000000000000 000000000000000A000000000000000000000000000000000000000000000 000000000000000000000000000000000000000     00000000                                                                                                                        000000000000000000
F0010000008774700002000003273290300041450500000000000000000201606270002001YANETH GOMEZ ROJANO -  COMERCIALIZADORA YG        C000000000300000000000000000000000100010010000000000000000000000F0010000008774700220160627000101 00000000000000000000000000000000000000000000000000000000000000000000000000000000000000000000000000000000000000000N 00000000000NCONT   00    00000000000          00000000000000000000000000000000000000000000 000000000000000A000000000000000000000000000000000000000000000 000000000000000000000000000000000000000     00000000                                                                                                                        000000000000000000
F0010000008774700003000003273290300042505000000000000000000201606270002001YANETH GOMEZ ROJANO -  COMERCIALIZADORA YG        C000000000150000000000000000000000100010010000000000000000000000F0010000008774700320160627000101 00000000000000000000000000000000000000000000000000000000000000000000000000000000000000000000000000000000000000000N 00000000000NCONT   00    00000000000          00000000000000000000000000000000000000000000 000000000000000A000000000000000000000000000000000000000000000 000000000000000000000000000000000000000     00000000                                                                                                                        000000000000000000
F0010000008774700004000003273290300023658300000000000000000201606270002001YANETH GOMEZ ROJANO -  COMERCIALIZADORA YG        C000000000002400000000000000000000100010010000000000000000000000F0010000008774700420160627000101 00000000000000000000000000000000000000000000000000000000000000000000000000000000000000000000000000000000000000000N 00000000000NCONT   00    00000000000          00000000000000000000000000000000000000000000 000000000000000A000000000000000000000000000000000000000000000 000000000000000000000000000000000000000     00000000                                                                                                                        000000000000000000
F0010000008774700005000003273290300013552100000000000000000201606270002001YANETH GOMEZ ROJANO -  COMERCIALIZADORA YG        D000000000002400000000000000000000100010010000000000000000000000F0010000008774700520160627000101 00000000000000000000000000000000000000000000000000000000000000000000000000000000000000000000000000000000000000000N 00000000000NCONT   00    00000000000          00000000000000000000000000000000000000000000 000000000000000A000000000000000000000000000000000000000000000 000000000000000000000000000000000000000     00000000                                                                                                                        000000000000000000
F0010000008774800001000003273290300011050500000000000000000201606270002001YANETH GOMEZ ROJANO -  COMERCIALIZADORA YG        D000000001000000000000000000000000100010010000000000000000000000F0010000008774800120160627000101 00000000000000000000000000000000000000000000000000000000000000000000000000000000000000000000000000000000000000000N 00000000000NCONT   00    00000000000          00000000000000000000000000000000000000000000 000000000000000A000000000000000000000000000000000000000000000 000000000000000000000000000000000000000     00000000                                                                                                                        000000000000000000
F0010000008774800002000003273290300041450500000000000000000201606270002001YANETH GOMEZ ROJANO -  COMERCIALIZADORA YG        C000000000850000000000000000000000100010010000000000000000000000F0010000008774800220160627000101 00000000000000000000000000000000000000000000000000000000000000000000000000000000000000000000000000000000000000000N 00000000000NCONT   00    00000000000          00000000000000000000000000000000000000000000 000000000000000A000000000000000000000000000000000000000000000 000000000000000000000000000000000000000     00000000                                                                                                                        000000000000000000
F0010000008774800003000003273290300042505000000000000000000201606270002001YANETH GOMEZ ROJANO -  COMERCIALIZADORA YG        C000000000150000000000000000000000100010010000000000000000000000F0010000008774800320160627000101 00000000000000000000000000000000000000000000000000000000000000000000000000000000000000000000000000000000000000000N 00000000000NCONT   00    00000000000          00000000000000000000000000000000000000000000 000000000000000A000000000000000000000000000000000000000000000 000000000000000000000000000000000000000     00000000                                                                                                                        000000000000000000
F0010000008774800004000003273290300023658300000000000000000201606270002001YANETH GOMEZ ROJANO -  COMERCIALIZADORA YG        C000000000006800000000000000000000100010010000000000000000000000F0010000008774800420160627000101 00000000000000000000000000000000000000000000000000000000000000000000000000000000000000000000000000000000000000000N 00000000000NCONT   00    00000000000          00000000000000000000000000000000000000000000 000000000000000A000000000000000000000000000000000000000000000 000000000000000000000000000000000000000     00000000                                                                                                                        000000000000000000
F0010000008774800005000003273290300013552100000000000000000201606270002001YANETH GOMEZ ROJANO -  COMERCIALIZADORA YG        D000000000006800000000000000000000100010010000000000000000000000F0010000008774800520160627000101 00000000000000000000000000000000000000000000000000000000000000000000000000000000000000000000000000000000000000000N 00000000000NCONT   00    00000000000          00000000000000000000000000000000000000000000 000000000000000A000000000000000000000000000000000000000000000 000000000000000000000000000000000000000     00000000                                                                                                                        000000000000000000
F0010000008774900001000086003979400011050500000000000000000201606270002001CALYPSO BARRANQUILLA LTDA                         D000000001670000000000000000000000100010010000000000000000000000F0010000008774900120160627000101 00000000000000000000000000000000000000000000000000000000000000000000000000000000000000000000000000000000000000000N 00000000000NCONT   00    00000000000          00000000000000000000000000000000000000000000 000000000000000A000000000000000000000000000000000000000000000 000000000000000000000000000000000000000     00000000                                                                                                                        000000000000000000
F0010000008774900002000086003979400041450500000000000000000201606270002001CALYPSO BARRANQUILLA LTDA                         C000000001320000000000000000000000100010010000000000000000000000F0010000008774900220160627000101 00000000000000000000000000000000000000000000000000000000000000000000000000000000000000000000000000000000000000000N 00000000000NCONT   00    00000000000          00000000000000000000000000000000000000000000 000000000000000A000000000000000000000000000000000000000000000 000000000000000000000000000000000000000     00000000                                                                                                                        000000000000000000
F0010000008774900003000086003979400042505000000000000000000201606270002001CALYPSO BARRANQUILLA LTDA                         C000000000350000000000000000000000100010010000000000000000000000F0010000008774900320160627000101 00000000000000000000000000000000000000000000000000000000000000000000000000000000000000000000000000000000000000000N 00000000000NCONT   00    00000000000          00000000000000000000000000000000000000000000 000000000000000A000000000000000000000000000000000000000000000 000000000000000000000000000000000000000     00000000                                                                                                                        000000000000000000
F0010000008774900004000086003979400023658300000000000000000201606270002001CALYPSO BARRANQUILLA LTDA                         C000000000010600000000000000000000100010010000000000000000000000F0010000008774900420160627000101 00000000000000000000000000000000000000000000000000000000000000000000000000000000000000000000000000000000000000000N 00000000000NCONT   00    00000000000          00000000000000000000000000000000000000000000 000000000000000A000000000000000000000000000000000000000000000 000000000000000000000000000000000000000     00000000                                                                                                                        000000000000000000
F0010000008774900005000086003979400013552100000000000000000201606270002001CALYPSO BARRANQUILLA LTDA                         D000000000010600000000000000000000100010010000000000000000000000F0010000008774900520160627000101 00000000000000000000000000000000000000000000000000000000000000000000000000000000000000000000000000000000000000000N 00000000000NCONT   00    00000000000          00000000000000000000000000000000000000000000 000000000000000A000000000000000000000000000000000000000000000 000000000000000000000000000000000000000     00000000                                                                                                                        000000000000000000
F0010000008775000001000080201112800011050500000000000000000201606270002001CANGURO INTERNATIONAL S.A.                        D000000002880000000000000000000000100010010000000000000000000000F0010000008775000120160627000101 00000000000000000000000000000000000000000000000000000000000000000000000000000000000000000000000000000000000000000N 00000000000NCONT   00    00000000000          00000000000000000000000000000000000000000000 000000000000000A000000000000000000000000000000000000000000000 000000000000000000000000000000000000000     00000000                                                                                                                        000000000000000000
F0010000008775000002000080201112800041450500000000000000000201606270002001CANGURO INTERNATIONAL S.A.                        C000000002880000000000000000000000100010010000000000000000000000F0010000008775000220160627000101 00000000000000000000000000000000000000000000000000000000000000000000000000000000000000000000000000000000000000000N 00000000000NCONT   00    00000000000          00000000000000000000000000000000000000000000 000000000000000A000000000000000000000000000000000000000000000 000000000000000000000000000000000000000     00000000                                                                                                                        000000000000000000
F0010000008775000003000080201112800042505000000000000000000201606270002001CANGURO INTERNATIONAL S.A.                        C000000000000000000000000000000000100010010000000000000000000000F0010000008775000320160627000101 00000000000000000000000000000000000000000000000000000000000000000000000000000000000000000000000000000000000000000N 00000000000NCONT   00    00000000000          00000000000000000000000000000000000000000000 000000000000000A000000000000000000000000000000000000000000000 000000000000000000000000000000000000000     00000000                                                                                                                        000000000000000000
F0010000008775000004000080201112800023658300000000000000000201606270002001CANGURO INTERNATIONAL S.A.                        C000000000023000000000000000000000100010010000000000000000000000F0010000008775000420160627000101 00000000000000000000000000000000000000000000000000000000000000000000000000000000000000000000000000000000000000000N 00000000000NCONT   00    00000000000          00000000000000000000000000000000000000000000 000000000000000A000000000000000000000000000000000000000000000 000000000000000000000000000000000000000     00000000                                                                                                                        000000000000000000
F0010000008775000005000080201112800013552100000000000000000201606270002001CANGURO INTERNATIONAL S.A.                        D000000000023000000000000000000000100010010000000000000000000000F0010000008775000520160627000101 00000000000000000000000000000000000000000000000000000000000000000000000000000000000000000000000000000000000000000N 00000000000NCONT   00    00000000000          00000000000000000000000000000000000000000000 000000000000000A000000000000000000000000000000000000000000000 000000000000000000000000000000000000000     00000000                                                                                                                        000000000000000000
F0010000008775100001000007200289400011050500000000000000000201606270002001MIGUEL CORTINA                                    D000000002200000000000000000000000100010010000000000000000000000F0010000008775100120160627000101 00000000000000000000000000000000000000000000000000000000000000000000000000000000000000000000000000000000000000000N 00000000000NCONT   00    00000000000          00000000000000000000000000000000000000000000 000000000000000A000000000000000000000000000000000000000000000 000000000000000000000000000000000000000     00000000                                                                                                                        000000000000000000
F0010000008775100002000007200289400041450500000000000000000201606270002001MIGUEL CORTINA                                    C000000002000000000000000000000000100010010000000000000000000000F0010000008775100220160627000101 00000000000000000000000000000000000000000000000000000000000000000000000000000000000000000000000000000000000000000N 00000000000NCONT   00    00000000000          00000000000000000000000000000000000000000000 000000000000000A000000000000000000000000000000000000000000000 000000000000000000000000000000000000000     00000000                                                                                                                        000000000000000000
F0010000008775100003000007200289400042505000000000000000000201606270002001MIGUEL CORTINA                                    C000000000200000000000000000000000100010010000000000000000000000F0010000008775100320160627000101 00000000000000000000000000000000000000000000000000000000000000000000000000000000000000000000000000000000000000000N 00000000000NCONT   00    00000000000          00000000000000000000000000000000000000000000 000000000000000A000000000000000000000000000000000000000000000 000000000000000000000000000000000000000     00000000                                                                                                                        000000000000000000
F0010000008775100004000007200289400023658300000000000000000201606270002001MIGUEL CORTINA                                    C000000000016000000000000000000000100010010000000000000000000000F0010000008775100420160627000101 00000000000000000000000000000000000000000000000000000000000000000000000000000000000000000000000000000000000000000N 00000000000NCONT   00    00000000000          00000000000000000000000000000000000000000000 000000000000000A000000000000000000000000000000000000000000000 000000000000000000000000000000000000000     00000000                                                                                                                        000000000000000000
F0010000008775100005000007200289400013552100000000000000000201606270002001MIGUEL CORTINA                                    D000000000016000000000000000000000100010010000000000000000000000F0010000008775100520160627000101 00000000000000000000000000000000000000000000000000000000000000000000000000000000000000000000000000000000000000000N 00000000000NCONT   00    00000000000          00000000000000000000000000000000000000000000 000000000000000A000000000000000000000000000000000000000000000 000000000000000000000000000000000000000     00000000                                                                                                                        000000000000000000
F0010000008775200001000090038852800011050500000000000000000201606270002001EL COMERCIO ELECTRICO DE LA CO                    D000000001070000000000000000000000100010010000000000000000000000F0010000008775200120160627000101 00000000000000000000000000000000000000000000000000000000000000000000000000000000000000000000000000000000000000000N 00000000000NCONT   00    00000000000          00000000000000000000000000000000000000000000 000000000000000A000000000000000000000000000000000000000000000 000000000000000000000000000000000000000     00000000                                                                                                                        000000000000000000
F0010000008775200002000090038852800041450500000000000000000201606270002001EL COMERCIO ELECTRICO DE LA CO                    C000000000970000000000000000000000100010010000000000000000000000F0010000008775200220160627000101 00000000000000000000000000000000000000000000000000000000000000000000000000000000000000000000000000000000000000000N 00000000000NCONT   00    00000000000          00000000000000000000000000000000000000000000 000000000000000A000000000000000000000000000000000000000000000 000000000000000000000000000000000000000     00000000                                                                                                                        000000000000000000
F0010000008775200003000090038852800042505000000000000000000201606270002001EL COMERCIO ELECTRICO DE LA CO                    C000000000100000000000000000000000100010010000000000000000000000F0010000008775200320160627000101 00000000000000000000000000000000000000000000000000000000000000000000000000000000000000000000000000000000000000000N 00000000000NCONT   00    00000000000          00000000000000000000000000000000000000000000 000000000000000A000000000000000000000000000000000000000000000 000000000000000000000000000000000000000     00000000                                                                                                                        000000000000000000
F0010000008775200004000090038852800023658300000000000000000201606270002001EL COMERCIO ELECTRICO DE LA CO                    C000000000007800000000000000000000100010010000000000000000000000F0010000008775200420160627000101 00000000000000000000000000000000000000000000000000000000000000000000000000000000000000000000000000000000000000000N 00000000000NCONT   00    00000000000          00000000000000000000000000000000000000000000 000000000000000A000000000000000000000000000000000000000000000 000000000000000000000000000000000000000     00000000                                                                                                                        000000000000000000
F0010000008775200005000090038852800013552100000000000000000201606270002001EL COMERCIO ELECTRICO DE LA CO                    D000000000007800000000000000000000100010010000000000000000000000F0010000008775200520160627000101 00000000000000000000000000000000000000000000000000000000000000000000000000000000000000000000000000000000000000000N 00000000000NCONT   00    00000000000          00000000000000000000000000000000000000000000 000000000000000A000000000000000000000000000000000000000000000 000000000000000000000000000000000000000     00000000                                                                                                                        000000000000000000
F0010000008775300001000000870907300011050500000000000000000201606270002001SURTIDOR FERRETERO                                D000000001298000000000000000000000100010010000000000000000000000F0010000008775300120160627000101 00000000000000000000000000000000000000000000000000000000000000000000000000000000000000000000000000000000000000000N 00000000000NCONT   00    00000000000          00000000000000000000000000000000000000000000 000000000000000A000000000000000000000000000000000000000000000 000000000000000000000000000000000000000     00000000                                                                                                                        000000000000000000
F0010000008775300002000000870907300041450500000000000000000201606270002001SURTIDOR FERRETERO                                C000000000840000000000000000000000100010010000000000000000000000F0010000008775300220160627000101 00000000000000000000000000000000000000000000000000000000000000000000000000000000000000000000000000000000000000000N 00000000000NCONT   00    00000000000          00000000000000000000000000000000000000000000 000000000000000A000000000000000000000000000000000000000000000 000000000000000000000000000000000000000     00000000                                                                                                                        000000000000000000
F0010000008775300003000000870907300042505000000000000000000201606270002001SURTIDOR FERRETERO                                C000000000458000000000000000000000100010010000000000000000000000F0010000008775300320160627000101 00000000000000000000000000000000000000000000000000000000000000000000000000000000000000000000000000000000000000000N 00000000000NCONT   00    00000000000          00000000000000000000000000000000000000000000 000000000000000A000000000000000000000000000000000000000000000 000000000000000000000000000000000000000     00000000                                                                                                                        000000000000000000
F0010000008775300004000000870907300023658300000000000000000201606270002001SURTIDOR FERRETERO                                C000000000006700000000000000000000100010010000000000000000000000F0010000008775300420160627000101 00000000000000000000000000000000000000000000000000000000000000000000000000000000000000000000000000000000000000000N 00000000000NCONT   00    00000000000          00000000000000000000000000000000000000000000 000000000000000A000000000000000000000000000000000000000000000 000000000000000000000000000000000000000     00000000                                                                                                                        000000000000000000
F0010000008775300005000000870907300013552100000000000000000201606270002001SURTIDOR FERRETERO                                D000000000006700000000000000000000100010010000000000000000000000F0010000008775300520160627000101 00000000000000000000000000000000000000000000000000000000000000000000000000000000000000000000000000000000000000000N 00000000000NCONT   00    00000000000          00000000000000000000000000000000000000000000 000000000000000A000000000000000000000000000000000000000000000 000000000000000000000000000000000000000     00000000                                                                                                                        000000000000000000
F0010000008775400001000000870907300011050500000000000000000201606270002001SURTIDOR FERRETERO                                D000000007922000000000000000000000100010010000000000000000000000F0010000008775400120160627000101 00000000000000000000000000000000000000000000000000000000000000000000000000000000000000000000000000000000000000000N 00000000000NCONT   00    00000000000          00000000000000000000000000000000000000000000 000000000000000A000000000000000000000000000000000000000000000 000000000000000000000000000000000000000     00000000                                                                                                                        000000000000000000
F0010000008775400002000000870907300041450500000000000000000201606270002001SURTIDOR FERRETERO                                C000000005040000000000000000000000100010010000000000000000000000F0010000008775400220160627000101 00000000000000000000000000000000000000000000000000000000000000000000000000000000000000000000000000000000000000000N 00000000000NCONT   00    00000000000          00000000000000000000000000000000000000000000 000000000000000A000000000000000000000000000000000000000000000 000000000000000000000000000000000000000     00000000                                                                                                                        000000000000000000
F0010000008775400003000000870907300042505000000000000000000201606270002001SURTIDOR FERRETERO                                C000000002882000000000000000000000100010010000000000000000000000F0010000008775400320160627000101 00000000000000000000000000000000000000000000000000000000000000000000000000000000000000000000000000000000000000000N 00000000000NCONT   00    00000000000          00000000000000000000000000000000000000000000 000000000000000A000000000000000000000000000000000000000000000 000000000000000000000000000000000000000     00000000                                                                                                                        000000000000000000
F0010000008775400004000000870907300023658300000000000000000201606270002001SURTIDOR FERRETERO                                C000000000040300000000000000000000100010010000000000000000000000F0010000008775400420160627000101 00000000000000000000000000000000000000000000000000000000000000000000000000000000000000000000000000000000000000000N 00000000000NCONT   00    00000000000          00000000000000000000000000000000000000000000 000000000000000A000000000000000000000000000000000000000000000 000000000000000000000000000000000000000     00000000                                                                                                                        000000000000000000
F0010000008775400005000000870907300013552100000000000000000201606270002001SURTIDOR FERRETERO                                D000000000040300000000000000000000100010010000000000000000000000F0010000008775400520160627000101 00000000000000000000000000000000000000000000000000000000000000000000000000000000000000000000000000000000000000000N 00000000000NCONT   00    00000000000          00000000000000000000000000000000000000000000 000000000000000A000000000000000000000000000000000000000000000 000000000000000000000000000000000000000     00000000                                                                                                                        000000000000000000
F0010000008775500001000000870907300011050500000000000000000201606270002001SURTIDOR FERRETERO                                D000000003422000000000000000000000100010010000000000000000000000F0010000008775500120160627000101 00000000000000000000000000000000000000000000000000000000000000000000000000000000000000000000000000000000000000000N 00000000000NCONT   00    00000000000          00000000000000000000000000000000000000000000 000000000000000A000000000000000000000000000000000000000000000 000000000000000000000000000000000000000     00000000                                                                                                                        000000000000000000
F0010000008775500002000000870907300041450500000000000000000201606270002001SURTIDOR FERRETERO                                C000000002520000000000000000000000100010010000000000000000000000F0010000008775500220160627000101 00000000000000000000000000000000000000000000000000000000000000000000000000000000000000000000000000000000000000000N 00000000000NCONT   00    00000000000          00000000000000000000000000000000000000000000 000000000000000A000000000000000000000000000000000000000000000 000000000000000000000000000000000000000     00000000                                                                                                                        000000000000000000
F0010000008775500003000000870907300042505000000000000000000201606270002001SURTIDOR FERRETERO                                C000000000902000000000000000000000100010010000000000000000000000F0010000008775500320160627000101 00000000000000000000000000000000000000000000000000000000000000000000000000000000000000000000000000000000000000000N 00000000000NCONT   00    00000000000          00000000000000000000000000000000000000000000 000000000000000A000000000000000000000000000000000000000000000 000000000000000000000000000000000000000     00000000                                                                                                                        000000000000000000
F0010000008775500004000000870907300023658300000000000000000201606270002001SURTIDOR FERRETERO                                C000000000020200000000000000000000100010010000000000000000000000F0010000008775500420160627000101 00000000000000000000000000000000000000000000000000000000000000000000000000000000000000000000000000000000000000000N 00000000000NCONT   00    00000000000          00000000000000000000000000000000000000000000 000000000000000A000000000000000000000000000000000000000000000 000000000000000000000000000000000000000     00000000                                                                                                                        000000000000000000
F0010000008775500005000000870907300013552100000000000000000201606270002001SURTIDOR FERRETERO                                D000000000020200000000000000000000100010010000000000000000000000F0010000008775500520160627000101 00000000000000000000000000000000000000000000000000000000000000000000000000000000000000000000000000000000000000000N 00000000000NCONT   00    00000000000          00000000000000000000000000000000000000000000 000000000000000A000000000000000000000000000000000000000000000 000000000000000000000000000000000000000     00000000                                                                                                                        000000000000000000
F0010000008775600001000090050144800011050500000000000000000201606270002001PLASTICOS JR ASOCIADOS SAS                        D000000002100000000000000000000000100010010000000000000000000000F0010000008775600120160627000101 00000000000000000000000000000000000000000000000000000000000000000000000000000000000000000000000000000000000000000N 00000000000NCONT   00    00000000000          00000000000000000000000000000000000000000000 000000000000000A000000000000000000000000000000000000000000000 000000000000000000000000000000000000000     00000000                                                                                                                        000000000000000000
F0010000008775600002000090050144800041450500000000000000000201606270002001PLASTICOS JR ASOCIADOS SAS                        C000000001900000000000000000000000100010010000000000000000000000F0010000008775600220160627000101 00000000000000000000000000000000000000000000000000000000000000000000000000000000000000000000000000000000000000000N 00000000000NCONT   00    00000000000          00000000000000000000000000000000000000000000 000000000000000A000000000000000000000000000000000000000000000 000000000000000000000000000000000000000     00000000                                                                                                                        000000000000000000
