F0010000010227100001000000748239700013050500000000000000000201708100002001RAFAEL NAVARRO URIBE                              D000000049933700000000000000000000100010010000000000000000000000F0010000010227100120170810000101 00000000000000000000000000000000000000000000000000000000000000000000000000000000000000000000000000000000000000000N 00000000000NCONT   00    00000000000          00000000000000000000000000000000000000000000 000000000000000A000000000000000000000000000000000000000000000 000000000000000000000000000000000000000     00000000                                                                                                                        000000000000000000
F0010000010227100002000000748239700041450500000000000000000201708100002001RAFAEL NAVARRO URIBE                              C000000034500000000000000000000000100010010000000000000000000000F0010000010227100220170810000101 00000000000000000000000000000000000000000000000000000000000000000000000000000000000000000000000000000000000000000N 00000000000NCONT   00    00000000000          00000000000000000000000000000000000000000000 000000000000000A000000000000000000000000000000000000000000000 000000000000000000000000000000000000000     00000000                                                                                                                        000000000000000000
F0010000010227100003000000748239700042505000000000000000000201708100002001RAFAEL NAVARRO URIBE                              C000000015433700000000000000000000100010010000000000000000000000F0010000010227100320170810000101 00000000000000000000000000000000000000000000000000000000000000000000000000000000000000000000000000000000000000000N 00000000000NCONT   00    00000000000          00000000000000000000000000000000000000000000 000000000000000A000000000000000000000000000000000000000000000 000000000000000000000000000000000000000     00000000                                                                                                                        000000000000000000
F0010000010227100004000000748239700023658300000000000000000201708100002001RAFAEL NAVARRO URIBE                              C000000000000000000000000000000000100010010000000000000000000000F0010000010227100420170810000101 00000000000000000000000000000000000000000000000000000000000000000000000000000000000000000000000000000000000000000N 00000000000NCONT   00    00000000000          00000000000000000000000000000000000000000000 000000000000000A000000000000000000000000000000000000000000000 000000000000000000000000000000000000000     00000000                                                                                                                        000000000000000000
F0010000010227100005000000748239700013552100000000000000000201708100002001RAFAEL NAVARRO URIBE                              D000000000000000000000000000000000100010010000000000000000000000F0010000010227100520170810000101 00000000000000000000000000000000000000000000000000000000000000000000000000000000000000000000000000000000000000000N 00000000000NCONT   00    00000000000          00000000000000000000000000000000000000000000 000000000000000A000000000000000000000000000000000000000000000 000000000000000000000000000000000000000     00000000                                                                                                                        000000000000000000
F0010000010227200001000086000490200013050500000000000000000201708100002001PROV. DE PAPELES ANDINA S.A.                      D000000019262400000000000000000000100010010000000000000000000000F0010000010227200120170810000101 00000000000000000000000000000000000000000000000000000000000000000000000000000000000000000000000000000000000000000N 00000000000NCONT   00    00000000000          00000000000000000000000000000000000000000000 000000000000000A000000000000000000000000000000000000000000000 000000000000000000000000000000000000000     00000000                                                                                                                        000000000000000000
F0010000010227200002000086000490200041450500000000000000000201708100002001PROV. DE PAPELES ANDINA S.A.                      C000000018297400000000000000000000100010010000000000000000000000F0010000010227200220170810000101 00000000000000000000000000000000000000000000000000000000000000000000000000000000000000000000000000000000000000000N 00000000000NCONT   00    00000000000          00000000000000000000000000000000000000000000 000000000000000A000000000000000000000000000000000000000000000 000000000000000000000000000000000000000     00000000                                                                                                                        000000000000000000
F0010000010227200003000086000490200042505000000000000000000201708100002001PROV. DE PAPELES ANDINA S.A.                      C000000000965000000000000000000000100010010000000000000000000000F0010000010227200320170810000101 00000000000000000000000000000000000000000000000000000000000000000000000000000000000000000000000000000000000000000N 00000000000NCONT   00    00000000000          00000000000000000000000000000000000000000000 000000000000000A000000000000000000000000000000000000000000000 000000000000000000000000000000000000000     00000000                                                                                                                        000000000000000000
F0010000010227200004000086000490200023658300000000000000000201708100002001PROV. DE PAPELES ANDINA S.A.                      C000000000000000000000000000000000100010010000000000000000000000F0010000010227200420170810000101 00000000000000000000000000000000000000000000000000000000000000000000000000000000000000000000000000000000000000000N 00000000000NCONT   00    00000000000          00000000000000000000000000000000000000000000 000000000000000A000000000000000000000000000000000000000000000 000000000000000000000000000000000000000     00000000                                                                                                                        000000000000000000
F0010000010227200005000086000490200013552100000000000000000201708100002001PROV. DE PAPELES ANDINA S.A.                      D000000000000000000000000000000000100010010000000000000000000000F0010000010227200520170810000101 00000000000000000000000000000000000000000000000000000000000000000000000000000000000000000000000000000000000000000N 00000000000NCONT   00    00000000000          00000000000000000000000000000000000000000000 000000000000000A000000000000000000000000000000000000000000000 000000000000000000000000000000000000000     00000000                                                                                                                        000000000000000000
F0010000010227300001000081102758700013050500000000000000000201708100002001C.I. ABRACOL S.A EMA                              D000000118565500000000000000000000100010010000000000000000000000F0010000010227300120170810000101 00000000000000000000000000000000000000000000000000000000000000000000000000000000000000000000000000000000000000000N 00000000000NCONT   00    00000000000          00000000000000000000000000000000000000000000 000000000000000A000000000000000000000000000000000000000000000 000000000000000000000000000000000000000     00000000                                                                                                                        000000000000000000
F0010000010227300002000081102758700041450500000000000000000201708100002001C.I. ABRACOL S.A EMA                              C000000090206700000000000000000000100010010000000000000000000000F0010000010227300220170810000101 00000000000000000000000000000000000000000000000000000000000000000000000000000000000000000000000000000000000000000N 00000000000NCONT   00    00000000000          00000000000000000000000000000000000000000000 000000000000000A000000000000000000000000000000000000000000000 000000000000000000000000000000000000000     00000000                                                                                                                        000000000000000000
F0010000010227300003000081102758700041750100000000000000000201708100002001C.I. ABRACOL S.A EMA                              D000000002706200000000000000000000100010010000000000000000000000F0010000010227300320170810000101 00000000000000000000000000000000000000000000000000000000000000000000000000000000000000000000000000000000000000000N 00000000000NCONT   00    00000000000          00000000000000000000000000000000000000000000 000000000000000A000000000000000000000000000000000000000000000 000000000000000000000000000000000000000     00000000                                                                                                                        000000000000000000
F0010000010227300004000081102758700042505000000000000000000201708100002001C.I. ABRACOL S.A EMA                              C000000031065000000000000000000000100010010000000000000000000000F0010000010227300420170810000101 00000000000000000000000000000000000000000000000000000000000000000000000000000000000000000000000000000000000000000N 00000000000NCONT   00    00000000000          00000000000000000000000000000000000000000000 000000000000000A000000000000000000000000000000000000000000000 000000000000000000000000000000000000000     00000000                                                                                                                        000000000000000000
F0010000010227300005000081102758700023658300000000000000000201708100002001C.I. ABRACOL S.A EMA                              C000000000000000000000000000000000100010010000000000000000000000F0010000010227300520170810000101 00000000000000000000000000000000000000000000000000000000000000000000000000000000000000000000000000000000000000000N 00000000000NCONT   00    00000000000          00000000000000000000000000000000000000000000 000000000000000A000000000000000000000000000000000000000000000 000000000000000000000000000000000000000     00000000                                                                                                                        000000000000000000
F0010000010227300006000081102758700013552100000000000000000201708100002001C.I. ABRACOL S.A EMA                              D000000000000000000000000000000000100010010000000000000000000000F0010000010227300620170810000101 00000000000000000000000000000000000000000000000000000000000000000000000000000000000000000000000000000000000000000N 00000000000NCONT   00    00000000000          00000000000000000000000000000000000000000000 000000000000000A000000000000000000000000000000000000000000000 000000000000000000000000000000000000000     00000000                                                                                                                        000000000000000000
F0010000010227400001000089011492400013050500000000000000000201708100002001AGE. CAUCHOSOL DE LA COSTA  SAS                   D000000116735600000000000000000000100010010000000000000000000000F0010000010227400120170810000101 00000000000000000000000000000000000000000000000000000000000000000000000000000000000000000000000000000000000000000N 00000000000NCONT   00    00000000000          00000000000000000000000000000000000000000000 000000000000000A000000000000000000000000000000000000000000000 000000000000000000000000000000000000000     00000000                                                                                                                        000000000000000000
F0010000010227400002000089011492400041450500000000000000000201708100002001AGE. CAUCHOSOL DE LA COSTA  SAS                   C000000072440000000000000000000000100010010000000000000000000000F0010000010227400220170810000101 00000000000000000000000000000000000000000000000000000000000000000000000000000000000000000000000000000000000000000N 00000000000NCONT   00    00000000000          00000000000000000000000000000000000000000000 000000000000000A000000000000000000000000000000000000000000000 000000000000000000000000000000000000000     00000000                                                                                                                        000000000000000000
F0010000010227400003000089011492400042505000000000000000000201708100002001AGE. CAUCHOSOL DE LA COSTA  SAS                   C000000044295600000000000000000000100010010000000000000000000000F0010000010227400320170810000101 00000000000000000000000000000000000000000000000000000000000000000000000000000000000000000000000000000000000000000N 00000000000NCONT   00    00000000000          00000000000000000000000000000000000000000000 000000000000000A000000000000000000000000000000000000000000000 000000000000000000000000000000000000000     00000000                                                                                                                        000000000000000000
F0010000010227400004000089011492400023658300000000000000000201708100002001AGE. CAUCHOSOL DE LA COSTA  SAS                   C000000000000000000000000000000000100010010000000000000000000000F0010000010227400420170810000101 00000000000000000000000000000000000000000000000000000000000000000000000000000000000000000000000000000000000000000N 00000000000NCONT   00    00000000000          00000000000000000000000000000000000000000000 000000000000000A000000000000000000000000000000000000000000000 000000000000000000000000000000000000000     00000000                                                                                                                        000000000000000000
F0010000010227400005000089011492400013552100000000000000000201708100002001AGE. CAUCHOSOL DE LA COSTA  SAS                   D000000000000000000000000000000000100010010000000000000000000000F0010000010227400520170810000101 00000000000000000000000000000000000000000000000000000000000000000000000000000000000000000000000000000000000000000N 00000000000NCONT   00    00000000000          00000000000000000000000000000000000000000000 000000000000000A000000000000000000000000000000000000000000000 000000000000000000000000000000000000000     00000000                                                                                                                        000000000000000000
F0010000010227500001000089011492400013050500000000000000000201708100002001AGE. CAUCHOSOL DE LA COSTA  SAS                   D000000008127300000000000000000000100010010000000000000000000000F0010000010227500120170810000101 00000000000000000000000000000000000000000000000000000000000000000000000000000000000000000000000000000000000000000N 00000000000NCONT   00    00000000000          00000000000000000000000000000000000000000000 000000000000000A000000000000000000000000000000000000000000000 000000000000000000000000000000000000000     00000000                                                                                                                        000000000000000000
F0010000010227500002000089011492400041450500000000000000000201708100002001AGE. CAUCHOSOL DE LA COSTA  SAS                   C000000004820000000000000000000000100010010000000000000000000000F0010000010227500220170810000101 00000000000000000000000000000000000000000000000000000000000000000000000000000000000000000000000000000000000000000N 00000000000NCONT   00    00000000000          00000000000000000000000000000000000000000000 000000000000000A000000000000000000000000000000000000000000000 000000000000000000000000000000000000000     00000000                                                                                                                        000000000000000000
F0010000010227500003000089011492400042505000000000000000000201708100002001AGE. CAUCHOSOL DE LA COSTA  SAS                   C000000003307300000000000000000000100010010000000000000000000000F0010000010227500320170810000101 00000000000000000000000000000000000000000000000000000000000000000000000000000000000000000000000000000000000000000N 00000000000NCONT   00    00000000000          00000000000000000000000000000000000000000000 000000000000000A000000000000000000000000000000000000000000000 000000000000000000000000000000000000000     00000000                                                                                                                        000000000000000000
F0010000010227500004000089011492400023658300000000000000000201708100002001AGE. CAUCHOSOL DE LA COSTA  SAS                   C000000000000000000000000000000000100010010000000000000000000000F0010000010227500420170810000101 00000000000000000000000000000000000000000000000000000000000000000000000000000000000000000000000000000000000000000N 00000000000NCONT   00    00000000000          00000000000000000000000000000000000000000000 000000000000000A000000000000000000000000000000000000000000000 000000000000000000000000000000000000000     00000000                                                                                                                        000000000000000000
F0010000010227500005000089011492400013552100000000000000000201708100002001AGE. CAUCHOSOL DE LA COSTA  SAS                   D000000000000000000000000000000000100010010000000000000000000000F0010000010227500520170810000101 00000000000000000000000000000000000000000000000000000000000000000000000000000000000000000000000000000000000000000N 00000000000NCONT   00    00000000000          00000000000000000000000000000000000000000000 000000000000000A000000000000000000000000000000000000000000000 000000000000000000000000000000000000000     00000000                                                                                                                        000000000000000000
F0010000010227600001000089080176300013050500000000000000000201708100002001SEGAR S.A.                                        D000000100905100000000000000000000100010010000000000000000000000F0010000010227600120170810000101 00000000000000000000000000000000000000000000000000000000000000000000000000000000000000000000000000000000000000000N 00000000000NCONT   00    00000000000          00000000000000000000000000000000000000000000 000000000000000A000000000000000000000000000000000000000000000 000000000000000000000000000000000000000     00000000                                                                                                                        000000000000000000
F0010000010227600002000089080176300041450500000000000000000201708100002001SEGAR S.A.                                        C000000085757200000000000000000000100010010000000000000000000000F0010000010227600220170810000101 00000000000000000000000000000000000000000000000000000000000000000000000000000000000000000000000000000000000000000N 00000000000NCONT   00    00000000000          00000000000000000000000000000000000000000000 000000000000000A000000000000000000000000000000000000000000000 000000000000000000000000000000000000000     00000000                                                                                                                        000000000000000000
F0010000010227600003000089080176300042505000000000000000000201708100002001SEGAR S.A.                                        C000000015147900000000000000000000100010010000000000000000000000F0010000010227600320170810000101 00000000000000000000000000000000000000000000000000000000000000000000000000000000000000000000000000000000000000000N 00000000000NCONT   00    00000000000          00000000000000000000000000000000000000000000 000000000000000A000000000000000000000000000000000000000000000 000000000000000000000000000000000000000     00000000                                                                                                                        000000000000000000
F0010000010227600004000089080176300023658300000000000000000201708100002001SEGAR S.A.                                        C000000000000000000000000000000000100010010000000000000000000000F0010000010227600420170810000101 00000000000000000000000000000000000000000000000000000000000000000000000000000000000000000000000000000000000000000N 00000000000NCONT   00    00000000000          00000000000000000000000000000000000000000000 000000000000000A000000000000000000000000000000000000000000000 000000000000000000000000000000000000000     00000000                                                                                                                        000000000000000000
F0010000010227600005000089080176300013552100000000000000000201708100002001SEGAR S.A.                                        D000000000000000000000000000000000100010010000000000000000000000F0010000010227600520170810000101 00000000000000000000000000000000000000000000000000000000000000000000000000000000000000000000000000000000000000000N 00000000000NCONT   00    00000000000          00000000000000000000000000000000000000000000 000000000000000A000000000000000000000000000000000000000000000 000000000000000000000000000000000000000     00000000                                                                                                                        000000000000000000
F0010000010227700001000089080176300013050500000000000000000201708100002001SEGAR S.A.                                        D000000062678100000000000000000000100010010000000000000000000000F0010000010227700120170810000101 00000000000000000000000000000000000000000000000000000000000000000000000000000000000000000000000000000000000000000N 00000000000NCONT   00    00000000000          00000000000000000000000000000000000000000000 000000000000000A000000000000000000000000000000000000000000000 000000000000000000000000000000000000000     00000000                                                                                                                        000000000000000000
F0010000010227700002000089080176300041450500000000000000000201708100002001SEGAR S.A.                                        C000000052220000000000000000000000100010010000000000000000000000F0010000010227700220170810000101 00000000000000000000000000000000000000000000000000000000000000000000000000000000000000000000000000000000000000000N 00000000000NCONT   00    00000000000          00000000000000000000000000000000000000000000 000000000000000A000000000000000000000000000000000000000000000 000000000000000000000000000000000000000     00000000                                                                                                                        000000000000000000
F0010000010227700003000089080176300042505000000000000000000201708100002001SEGAR S.A.                                        C000000010458100000000000000000000100010010000000000000000000000F0010000010227700320170810000101 00000000000000000000000000000000000000000000000000000000000000000000000000000000000000000000000000000000000000000N 00000000000NCONT   00    00000000000          00000000000000000000000000000000000000000000 000000000000000A000000000000000000000000000000000000000000000 000000000000000000000000000000000000000     00000000                                                                                                                        000000000000000000
F0010000010227700004000089080176300023658300000000000000000201708100002001SEGAR S.A.                                        C000000000000000000000000000000000100010010000000000000000000000F0010000010227700420170810000101 00000000000000000000000000000000000000000000000000000000000000000000000000000000000000000000000000000000000000000N 00000000000NCONT   00    00000000000          00000000000000000000000000000000000000000000 000000000000000A000000000000000000000000000000000000000000000 000000000000000000000000000000000000000     00000000                                                                                                                        000000000000000000
F0010000010227700005000089080176300013552100000000000000000201708100002001SEGAR S.A.                                        D000000000000000000000000000000000100010010000000000000000000000F0010000010227700520170810000101 00000000000000000000000000000000000000000000000000000000000000000000000000000000000000000000000000000000000000000N 00000000000NCONT   00    00000000000          00000000000000000000000000000000000000000000 000000000000000A000000000000000000000000000000000000000000000 000000000000000000000000000000000000000     00000000                                                                                                                        000000000000000000
F0010000010227000001000090022551800013050500000000000000000201708100002001GRUPO DAVANI S.A.S                                D000000034038200000000000000000000200010010000000000000000000000F0010000010227000120170810000101 00000000000000000000000000000000000000000000000000000000000000000000000000000000000000000000000000000000000000000N 00000000000NCONT   00    00000000000          00000000000000000000000000000000000000000000 000000000000000A000000000000000000000000000000000000000000000 000000000000000000000000000000000000000     00000000                                                                                                                        000000000000000000
F0010000010227000002000090022551800041450500000000000000000201708100002001GRUPO DAVANI S.A.S                                C000000026500000000000000000000000200010010000000000000000000000F0010000010227000220170810000101 00000000000000000000000000000000000000000000000000000000000000000000000000000000000000000000000000000000000000000N 00000000000NCONT   00    00000000000          00000000000000000000000000000000000000000000 000000000000000A000000000000000000000000000000000000000000000 000000000000000000000000000000000000000     00000000                                                                                                                        000000000000000000
F0010000010227000003000090022551800042505000000000000000000201708100002001GRUPO DAVANI S.A.S                                C000000007538200000000000000000000200010010000000000000000000000F0010000010227000320170810000101 00000000000000000000000000000000000000000000000000000000000000000000000000000000000000000000000000000000000000000N 00000000000NCONT   00    00000000000          00000000000000000000000000000000000000000000 000000000000000A000000000000000000000000000000000000000000000 000000000000000000000000000000000000000     00000000                                                                                                                        000000000000000000
F0010000010227000004000090022551800023658300000000000000000201708100002001GRUPO DAVANI S.A.S                                C000000000000000000000000000000000200010010000000000000000000000F0010000010227000420170810000101 00000000000000000000000000000000000000000000000000000000000000000000000000000000000000000000000000000000000000000N 00000000000NCONT   00    00000000000          00000000000000000000000000000000000000000000 000000000000000A000000000000000000000000000000000000000000000 000000000000000000000000000000000000000     00000000                                                                                                                        000000000000000000
F0010000010227000005000090022551800013552100000000000000000201708100002001GRUPO DAVANI S.A.S                                D000000000000000000000000000000000200010010000000000000000000000F0010000010227000520170810000101 00000000000000000000000000000000000000000000000000000000000000000000000000000000000000000000000000000000000000000N 00000000000NCONT   00    00000000000          00000000000000000000000000000000000000000000 000000000000000A000000000000000000000000000000000000000000000 000000000000000000000000000000000000000     00000000                                                                                                                        000000000000000000
