F0010000009959700001000081102758700013050500000000000000000201703250002001C.I. ABRACOL S.A EMA                              D000000077919000000000000000000000100010010000000000000000000000F0010000009959700120170325000101 00000000000000000000000000000000000000000000000000000000000000000000000000000000000000000000000000000000000000000N 00000000000NCONT   00    00000000000          00000000000000000000000000000000000000000000 000000000000000A000000000000000000000000000000000000000000000 000000000000000000000000000000000000000     00000000                                                                                                                        000000000000000000
F0010000009959700002000081102758700041450500000000000000000201703250002001C.I. ABRACOL S.A EMA                              C000000077800000000000000000000000100010010000000000000000000000F0010000009959700220170325000101 00000000000000000000000000000000000000000000000000000000000000000000000000000000000000000000000000000000000000000N 00000000000NCONT   00    00000000000          00000000000000000000000000000000000000000000 000000000000000A000000000000000000000000000000000000000000000 000000000000000000000000000000000000000     00000000                                                                                                                        000000000000000000
F0010000009959700003000081102758700041750100000000000000000201703250002001C.I. ABRACOL S.A EMA                              D000000002334000000000000000000000100010010000000000000000000000F0010000009959700320170325000101 00000000000000000000000000000000000000000000000000000000000000000000000000000000000000000000000000000000000000000N 00000000000NCONT   00    00000000000          00000000000000000000000000000000000000000000 000000000000000A000000000000000000000000000000000000000000000 000000000000000000000000000000000000000     00000000                                                                                                                        000000000000000000
F0010000009959700004000081102758700042505000000000000000000201703250002001C.I. ABRACOL S.A EMA                              C000000002453000000000000000000000100010010000000000000000000000F0010000009959700420170325000101 00000000000000000000000000000000000000000000000000000000000000000000000000000000000000000000000000000000000000000N 00000000000NCONT   00    00000000000          00000000000000000000000000000000000000000000 000000000000000A000000000000000000000000000000000000000000000 000000000000000000000000000000000000000     00000000                                                                                                                        000000000000000000
F0010000009959700005000081102758700023658300000000000000000201703250002001C.I. ABRACOL S.A EMA                              C000000000622400000000000000000000100010010000000000000000000000F0010000009959700520170325000101 00000000000000000000000000000000000000000000000000000000000000000000000000000000000000000000000000000000000000000N 00000000000NCONT   00    00000000000          00000000000000000000000000000000000000000000 000000000000000A000000000000000000000000000000000000000000000 000000000000000000000000000000000000000     00000000                                                                                                                        000000000000000000
F0010000009959700006000081102758700013552100000000000000000201703250002001C.I. ABRACOL S.A EMA                              D000000000622400000000000000000000100010010000000000000000000000F0010000009959700620170325000101 00000000000000000000000000000000000000000000000000000000000000000000000000000000000000000000000000000000000000000N 00000000000NCONT   00    00000000000          00000000000000000000000000000000000000000000 000000000000000A000000000000000000000000000000000000000000000 000000000000000000000000000000000000000     00000000                                                                                                                        000000000000000000
F0010000009959800001000007217505800011050500000000000000000201703250002001JOHNY HUMBERTO GUZMAN                             D000000001500000000000000000000000100010010000000000000000000000F0010000009959800120170325000101 00000000000000000000000000000000000000000000000000000000000000000000000000000000000000000000000000000000000000000N 00000000000NCONT   00    00000000000          00000000000000000000000000000000000000000000 000000000000000A000000000000000000000000000000000000000000000 000000000000000000000000000000000000000     00000000                                                                                                                        000000000000000000
F0010000009959800002000007217505800041450500000000000000000201703250002001JOHNY HUMBERTO GUZMAN                             C000000001400000000000000000000000100010010000000000000000000000F0010000009959800220170325000101 00000000000000000000000000000000000000000000000000000000000000000000000000000000000000000000000000000000000000000N 00000000000NCONT   00    00000000000          00000000000000000000000000000000000000000000 000000000000000A000000000000000000000000000000000000000000000 000000000000000000000000000000000000000     00000000                                                                                                                        000000000000000000
F0010000009959800003000007217505800042505000000000000000000201703250002001JOHNY HUMBERTO GUZMAN                             C000000000100000000000000000000000100010010000000000000000000000F0010000009959800320170325000101 00000000000000000000000000000000000000000000000000000000000000000000000000000000000000000000000000000000000000000N 00000000000NCONT   00    00000000000          00000000000000000000000000000000000000000000 000000000000000A000000000000000000000000000000000000000000000 000000000000000000000000000000000000000     00000000                                                                                                                        000000000000000000
F0010000009959800004000007217505800023658300000000000000000201703250002001JOHNY HUMBERTO GUZMAN                             C000000000011200000000000000000000100010010000000000000000000000F0010000009959800420170325000101 00000000000000000000000000000000000000000000000000000000000000000000000000000000000000000000000000000000000000000N 00000000000NCONT   00    00000000000          00000000000000000000000000000000000000000000 000000000000000A000000000000000000000000000000000000000000000 000000000000000000000000000000000000000     00000000                                                                                                                        000000000000000000
F0010000009959800005000007217505800013552100000000000000000201703250002001JOHNY HUMBERTO GUZMAN                             D000000000011200000000000000000000100010010000000000000000000000F0010000009959800520170325000101 00000000000000000000000000000000000000000000000000000000000000000000000000000000000000000000000000000000000000000N 00000000000NCONT   00    00000000000          00000000000000000000000000000000000000000000 000000000000000A000000000000000000000000000000000000000000000 000000000000000000000000000000000000000     00000000                                                                                                                        000000000000000000
F0010000009959900001000001795409800011050500000000000000000201703250002001DANIEL ORTEGA RODRIGUEZ                           D000000030000000000000000000000000100010010000000000000000000000F0010000009959900120170325000101 00000000000000000000000000000000000000000000000000000000000000000000000000000000000000000000000000000000000000000N 00000000000NCONT   00    00000000000          00000000000000000000000000000000000000000000 000000000000000A000000000000000000000000000000000000000000000 000000000000000000000000000000000000000     00000000                                                                                                                        000000000000000000
F0010000009959900002000001795409800041450500000000000000000201703250002001DANIEL ORTEGA RODRIGUEZ                           C000000029000000000000000000000000100010010000000000000000000000F0010000009959900220170325000101 00000000000000000000000000000000000000000000000000000000000000000000000000000000000000000000000000000000000000000N 00000000000NCONT   00    00000000000          00000000000000000000000000000000000000000000 000000000000000A000000000000000000000000000000000000000000000 000000000000000000000000000000000000000     00000000                                                                                                                        000000000000000000
F0010000009959900003000001795409800042505000000000000000000201703250002001DANIEL ORTEGA RODRIGUEZ                           C000000001000000000000000000000000100010010000000000000000000000F0010000009959900320170325000101 00000000000000000000000000000000000000000000000000000000000000000000000000000000000000000000000000000000000000000N 00000000000NCONT   00    00000000000          00000000000000000000000000000000000000000000 000000000000000A000000000000000000000000000000000000000000000 000000000000000000000000000000000000000     00000000                                                                                                                        000000000000000000
F0010000009959900004000001795409800023658300000000000000000201703250002001DANIEL ORTEGA RODRIGUEZ                           C000000000232000000000000000000000100010010000000000000000000000F0010000009959900420170325000101 00000000000000000000000000000000000000000000000000000000000000000000000000000000000000000000000000000000000000000N 00000000000NCONT   00    00000000000          00000000000000000000000000000000000000000000 000000000000000A000000000000000000000000000000000000000000000 000000000000000000000000000000000000000     00000000                                                                                                                        000000000000000000
F0010000009959900005000001795409800013552100000000000000000201703250002001DANIEL ORTEGA RODRIGUEZ                           D000000000232000000000000000000000100010010000000000000000000000F0010000009959900520170325000101 00000000000000000000000000000000000000000000000000000000000000000000000000000000000000000000000000000000000000000N 00000000000NCONT   00    00000000000          00000000000000000000000000000000000000000000 000000000000000A000000000000000000000000000000000000000000000 000000000000000000000000000000000000000     00000000                                                                                                                        000000000000000000
F0010000009960000001000090027500500011050500000000000000000201703250002001MULTIALUMINIO LA 30 S.A.S.                        D000000001760000000000000000000000100010010000000000000000000000F0010000009960000120170325000101 00000000000000000000000000000000000000000000000000000000000000000000000000000000000000000000000000000000000000000N 00000000000NCONT   00    00000000000          00000000000000000000000000000000000000000000 000000000000000A000000000000000000000000000000000000000000000 000000000000000000000000000000000000000     00000000                                                                                                                        000000000000000000
F0010000009960000002000090027500500041450500000000000000000201703250002001MULTIALUMINIO LA 30 S.A.S.                        C000000001750000000000000000000000100010010000000000000000000000F0010000009960000220170325000101 00000000000000000000000000000000000000000000000000000000000000000000000000000000000000000000000000000000000000000N 00000000000NCONT   00    00000000000          00000000000000000000000000000000000000000000 000000000000000A000000000000000000000000000000000000000000000 000000000000000000000000000000000000000     00000000                                                                                                                        000000000000000000
F0010000009960000003000090027500500042505000000000000000000201703250002001MULTIALUMINIO LA 30 S.A.S.                        C000000000010000000000000000000000100010010000000000000000000000F0010000009960000320170325000101 00000000000000000000000000000000000000000000000000000000000000000000000000000000000000000000000000000000000000000N 00000000000NCONT   00    00000000000          00000000000000000000000000000000000000000000 000000000000000A000000000000000000000000000000000000000000000 000000000000000000000000000000000000000     00000000                                                                                                                        000000000000000000
F0010000009960000004000090027500500023658300000000000000000201703250002001MULTIALUMINIO LA 30 S.A.S.                        C000000000014000000000000000000000100010010000000000000000000000F0010000009960000420170325000101 00000000000000000000000000000000000000000000000000000000000000000000000000000000000000000000000000000000000000000N 00000000000NCONT   00    00000000000          00000000000000000000000000000000000000000000 000000000000000A000000000000000000000000000000000000000000000 000000000000000000000000000000000000000     00000000                                                                                                                        000000000000000000
F0010000009960000005000090027500500013552100000000000000000201703250002001MULTIALUMINIO LA 30 S.A.S.                        D000000000014000000000000000000000100010010000000000000000000000F0010000009960000520170325000101 00000000000000000000000000000000000000000000000000000000000000000000000000000000000000000000000000000000000000000N 00000000000NCONT   00    00000000000          00000000000000000000000000000000000000000000 000000000000000A000000000000000000000000000000000000000000000 000000000000000000000000000000000000000     00000000                                                                                                                        000000000000000000
F0010000009960100001000080012418800011050500000000000000000201703250002001DISTRITEC S.A.S                                   D000000002700000000000000000000000100010010000000000000000000000F0010000009960100120170325000101 00000000000000000000000000000000000000000000000000000000000000000000000000000000000000000000000000000000000000000N 00000000000NCONT   00    00000000000          00000000000000000000000000000000000000000000 000000000000000A000000000000000000000000000000000000000000000 000000000000000000000000000000000000000     00000000                                                                                                                        000000000000000000
F0010000009960100002000080012418800041450500000000000000000201703250002001DISTRITEC S.A.S                                   C000000002600000000000000000000000100010010000000000000000000000F0010000009960100220170325000101 00000000000000000000000000000000000000000000000000000000000000000000000000000000000000000000000000000000000000000N 00000000000NCONT   00    00000000000          00000000000000000000000000000000000000000000 000000000000000A000000000000000000000000000000000000000000000 000000000000000000000000000000000000000     00000000                                                                                                                        000000000000000000
F0010000009960100003000080012418800042505000000000000000000201703250002001DISTRITEC S.A.S                                   C000000000100000000000000000000000100010010000000000000000000000F0010000009960100320170325000101 00000000000000000000000000000000000000000000000000000000000000000000000000000000000000000000000000000000000000000N 00000000000NCONT   00    00000000000          00000000000000000000000000000000000000000000 000000000000000A000000000000000000000000000000000000000000000 000000000000000000000000000000000000000     00000000                                                                                                                        000000000000000000
F0010000009960100004000080012418800023658300000000000000000201703250002001DISTRITEC S.A.S                                   C000000000020800000000000000000000100010010000000000000000000000F0010000009960100420170325000101 00000000000000000000000000000000000000000000000000000000000000000000000000000000000000000000000000000000000000000N 00000000000NCONT   00    00000000000          00000000000000000000000000000000000000000000 000000000000000A000000000000000000000000000000000000000000000 000000000000000000000000000000000000000     00000000                                                                                                                        000000000000000000
F0010000009960100005000080012418800013552100000000000000000201703250002001DISTRITEC S.A.S                                   D000000000020800000000000000000000100010010000000000000000000000F0010000009960100520170325000101 00000000000000000000000000000000000000000000000000000000000000000000000000000000000000000000000000000000000000000N 00000000000NCONT   00    00000000000          00000000000000000000000000000000000000000000 000000000000000A000000000000000000000000000000000000000000000 000000000000000000000000000000000000000     00000000                                                                                                                        000000000000000000
F0010000009960200001000007217505800011050500000000000000000201703250002001JOHNY HUMBERTO GUZMAN                             D000000001210000000000000000000000100010010000000000000000000000F0010000009960200120170325000101 00000000000000000000000000000000000000000000000000000000000000000000000000000000000000000000000000000000000000000N 00000000000NCONT   00    00000000000          00000000000000000000000000000000000000000000 000000000000000A000000000000000000000000000000000000000000000 000000000000000000000000000000000000000     00000000                                                                                                                        000000000000000000
F0010000009960200002000007217505800041450500000000000000000201703250002001JOHNY HUMBERTO GUZMAN                             C000000001200000000000000000000000100010010000000000000000000000F0010000009960200220170325000101 00000000000000000000000000000000000000000000000000000000000000000000000000000000000000000000000000000000000000000N 00000000000NCONT   00    00000000000          00000000000000000000000000000000000000000000 000000000000000A000000000000000000000000000000000000000000000 000000000000000000000000000000000000000     00000000                                                                                                                        000000000000000000
F0010000009960200003000007217505800042505000000000000000000201703250002001JOHNY HUMBERTO GUZMAN                             C000000000010000000000000000000000100010010000000000000000000000F0010000009960200320170325000101 00000000000000000000000000000000000000000000000000000000000000000000000000000000000000000000000000000000000000000N 00000000000NCONT   00    00000000000          00000000000000000000000000000000000000000000 000000000000000A000000000000000000000000000000000000000000000 000000000000000000000000000000000000000     00000000                                                                                                                        000000000000000000
F0010000009960200004000007217505800023658300000000000000000201703250002001JOHNY HUMBERTO GUZMAN                             C000000000009600000000000000000000100010010000000000000000000000F0010000009960200420170325000101 00000000000000000000000000000000000000000000000000000000000000000000000000000000000000000000000000000000000000000N 00000000000NCONT   00    00000000000          00000000000000000000000000000000000000000000 000000000000000A000000000000000000000000000000000000000000000 000000000000000000000000000000000000000     00000000                                                                                                                        000000000000000000
F0010000009960200005000007217505800013552100000000000000000201703250002001JOHNY HUMBERTO GUZMAN                             D000000000009600000000000000000000100010010000000000000000000000F0010000009960200520170325000101 00000000000000000000000000000000000000000000000000000000000000000000000000000000000000000000000000000000000000000N 00000000000NCONT   00    00000000000          00000000000000000000000000000000000000000000 000000000000000A000000000000000000000000000000000000000000000 000000000000000000000000000000000000000     00000000                                                                                                                        000000000000000000
F0010000009960300001000002245670100011050500000000000000000201703250002001YOLANDA  TOBON                                    D000000002374500000000000000000000100010010000000000000000000000F0010000009960300120170325000101 00000000000000000000000000000000000000000000000000000000000000000000000000000000000000000000000000000000000000000N 00000000000NCONT   00    00000000000          00000000000000000000000000000000000000000000 000000000000000A000000000000000000000000000000000000000000000 000000000000000000000000000000000000000     00000000                                                                                                                        000000000000000000
F0010000009960300002000002245670100041450500000000000000000201703250002001YOLANDA  TOBON                                    C000000001960000000000000000000000100010010000000000000000000000F0010000009960300220170325000101 00000000000000000000000000000000000000000000000000000000000000000000000000000000000000000000000000000000000000000N 00000000000NCONT   00    00000000000          00000000000000000000000000000000000000000000 000000000000000A000000000000000000000000000000000000000000000 000000000000000000000000000000000000000     00000000                                                                                                                        000000000000000000
F0010000009960300003000002245670100042505000000000000000000201703250002001YOLANDA  TOBON                                    C000000000414500000000000000000000100010010000000000000000000000F0010000009960300320170325000101 00000000000000000000000000000000000000000000000000000000000000000000000000000000000000000000000000000000000000000N 00000000000NCONT   00    00000000000          00000000000000000000000000000000000000000000 000000000000000A000000000000000000000000000000000000000000000 000000000000000000000000000000000000000     00000000                                                                                                                        000000000000000000
F0010000009960300004000002245670100023658300000000000000000201703250002001YOLANDA  TOBON                                    C000000000015700000000000000000000100010010000000000000000000000F0010000009960300420170325000101 00000000000000000000000000000000000000000000000000000000000000000000000000000000000000000000000000000000000000000N 00000000000NCONT   00    00000000000          00000000000000000000000000000000000000000000 000000000000000A000000000000000000000000000000000000000000000 000000000000000000000000000000000000000     00000000                                                                                                                        000000000000000000
F0010000009960300005000002245670100013552100000000000000000201703250002001YOLANDA  TOBON                                    D000000000015700000000000000000000100010010000000000000000000000F0010000009960300520170325000101 00000000000000000000000000000000000000000000000000000000000000000000000000000000000000000000000000000000000000000N 00000000000NCONT   00    00000000000          00000000000000000000000000000000000000000000 000000000000000A000000000000000000000000000000000000000000000 000000000000000000000000000000000000000     00000000                                                                                                                        000000000000000000
F0010000009960400001000080019113900011050500000000000000000201703250002001COMERCIAL NOVAPEL LTDA                            D000000000700000000000000000000000100010010000000000000000000000F0010000009960400120170325000101 00000000000000000000000000000000000000000000000000000000000000000000000000000000000000000000000000000000000000000N 00000000000NCONT   00    00000000000          00000000000000000000000000000000000000000000 000000000000000A000000000000000000000000000000000000000000000 000000000000000000000000000000000000000     00000000                                                                                                                        000000000000000000
F0010000009960400002000080019113900041450500000000000000000201703250002001COMERCIAL NOVAPEL LTDA                            C000000000600000000000000000000000100010010000000000000000000000F0010000009960400220170325000101 00000000000000000000000000000000000000000000000000000000000000000000000000000000000000000000000000000000000000000N 00000000000NCONT   00    00000000000          00000000000000000000000000000000000000000000 000000000000000A000000000000000000000000000000000000000000000 000000000000000000000000000000000000000     00000000                                                                                                                        000000000000000000
F0010000009960400003000080019113900042505000000000000000000201703250002001COMERCIAL NOVAPEL LTDA                            C000000000100000000000000000000000100010010000000000000000000000F0010000009960400320170325000101 00000000000000000000000000000000000000000000000000000000000000000000000000000000000000000000000000000000000000000N 00000000000NCONT   00    00000000000          00000000000000000000000000000000000000000000 000000000000000A000000000000000000000000000000000000000000000 000000000000000000000000000000000000000     00000000                                                                                                                        000000000000000000
F0010000009960400004000080019113900023658300000000000000000201703250002001COMERCIAL NOVAPEL LTDA                            C000000000004800000000000000000000100010010000000000000000000000F0010000009960400420170325000101 00000000000000000000000000000000000000000000000000000000000000000000000000000000000000000000000000000000000000000N 00000000000NCONT   00    00000000000          00000000000000000000000000000000000000000000 000000000000000A000000000000000000000000000000000000000000000 000000000000000000000000000000000000000     00000000                                                                                                                        000000000000000000
F0010000009960400005000080019113900013552100000000000000000201703250002001COMERCIAL NOVAPEL LTDA                            D000000000004800000000000000000000100010010000000000000000000000F0010000009960400520170325000101 00000000000000000000000000000000000000000000000000000000000000000000000000000000000000000000000000000000000000000N 00000000000NCONT   00    00000000000          00000000000000000000000000000000000000000000 000000000000000A000000000000000000000000000000000000000000000 000000000000000000000000000000000000000     00000000                                                                                                                        000000000000000000
F0010000009960500001000007200205100011050500000000000000000201703250002001LUIS MOLINA                                       D000000002100000000000000000000000100010010000000000000000000000F0010000009960500120170325000101 00000000000000000000000000000000000000000000000000000000000000000000000000000000000000000000000000000000000000000N 00000000000NCONT   00    00000000000          00000000000000000000000000000000000000000000 000000000000000A000000000000000000000000000000000000000000000 000000000000000000000000000000000000000     00000000                                                                                                                        000000000000000000
F0010000009960500002000007200205100041450500000000000000000201703250002001LUIS MOLINA                                       C000000002000000000000000000000000100010010000000000000000000000F0010000009960500220170325000101 00000000000000000000000000000000000000000000000000000000000000000000000000000000000000000000000000000000000000000N 00000000000NCONT   00    00000000000          00000000000000000000000000000000000000000000 000000000000000A000000000000000000000000000000000000000000000 000000000000000000000000000000000000000     00000000                                                                                                                        000000000000000000
F0010000009960500003000007200205100042505000000000000000000201703250002001LUIS MOLINA                                       C000000000100000000000000000000000100010010000000000000000000000F0010000009960500320170325000101 00000000000000000000000000000000000000000000000000000000000000000000000000000000000000000000000000000000000000000N 00000000000NCONT   00    00000000000          00000000000000000000000000000000000000000000 000000000000000A000000000000000000000000000000000000000000000 000000000000000000000000000000000000000     00000000                                                                                                                        000000000000000000
F0010000009960500004000007200205100023658300000000000000000201703250002001LUIS MOLINA                                       C000000000016000000000000000000000100010010000000000000000000000F0010000009960500420170325000101 00000000000000000000000000000000000000000000000000000000000000000000000000000000000000000000000000000000000000000N 00000000000NCONT   00    00000000000          00000000000000000000000000000000000000000000 000000000000000A000000000000000000000000000000000000000000000 000000000000000000000000000000000000000     00000000                                                                                                                        000000000000000000
F0010000009960500005000007200205100013552100000000000000000201703250002001LUIS MOLINA                                       D000000000016000000000000000000000100010010000000000000000000000F0010000009960500520170325000101 00000000000000000000000000000000000000000000000000000000000000000000000000000000000000000000000000000000000000000N 00000000000NCONT   00    00000000000          00000000000000000000000000000000000000000000 000000000000000A000000000000000000000000000000000000000000000 000000000000000000000000000000000000000     00000000                                                                                                                        000000000000000000
F0010000009960600001000007214782600011050500000000000000000201703250002001OSCAR JOSE LIAN ROCHA                             D000000001480000000000000000000000100010010000000000000000000000F0010000009960600120170325000101 00000000000000000000000000000000000000000000000000000000000000000000000000000000000000000000000000000000000000000N 00000000000NCONT   00    00000000000          00000000000000000000000000000000000000000000 000000000000000A000000000000000000000000000000000000000000000 000000000000000000000000000000000000000     00000000                                                                                                                        000000000000000000
F0010000009960600002000007214782600041450500000000000000000201703250002001OSCAR JOSE LIAN ROCHA                             C000000001300000000000000000000000100010010000000000000000000000F0010000009960600220170325000101 00000000000000000000000000000000000000000000000000000000000000000000000000000000000000000000000000000000000000000N 00000000000NCONT   00    00000000000          00000000000000000000000000000000000000000000 000000000000000A000000000000000000000000000000000000000000000 000000000000000000000000000000000000000     00000000                                                                                                                        000000000000000000
F0010000009960600003000007214782600042505000000000000000000201703250002001OSCAR JOSE LIAN ROCHA                             C000000000180000000000000000000000100010010000000000000000000000F0010000009960600320170325000101 00000000000000000000000000000000000000000000000000000000000000000000000000000000000000000000000000000000000000000N 00000000000NCONT   00    00000000000          00000000000000000000000000000000000000000000 000000000000000A000000000000000000000000000000000000000000000 000000000000000000000000000000000000000     00000000                                                                                                                        000000000000000000
F0010000009960600004000007214782600023658300000000000000000201703250002001OSCAR JOSE LIAN ROCHA                             C000000000010400000000000000000000100010010000000000000000000000F0010000009960600420170325000101 00000000000000000000000000000000000000000000000000000000000000000000000000000000000000000000000000000000000000000N 00000000000NCONT   00    00000000000          00000000000000000000000000000000000000000000 000000000000000A000000000000000000000000000000000000000000000 000000000000000000000000000000000000000     00000000                                                                                                                        000000000000000000
F0010000009960600005000007214782600013552100000000000000000201703250002001OSCAR JOSE LIAN ROCHA                             D000000000010400000000000000000000100010010000000000000000000000F0010000009960600520170325000101 00000000000000000000000000000000000000000000000000000000000000000000000000000000000000000000000000000000000000000N 00000000000NCONT   00    00000000000          00000000000000000000000000000000000000000000 000000000000000A000000000000000000000000000000000000000000000 000000000000000000000000000000000000000     00000000                                                                                                                        000000000000000000
F0010000009960700001000001022529300011050500000000000000000201703250002001ALBERTO ALVAREZ ISAZA                             D000000001050000000000000000000000100010010000000000000000000000F0010000009960700120170325000101 00000000000000000000000000000000000000000000000000000000000000000000000000000000000000000000000000000000000000000N 00000000000NCONT   00    00000000000          00000000000000000000000000000000000000000000 000000000000000A000000000000000000000000000000000000000000000 000000000000000000000000000000000000000     00000000                                                                                                                        000000000000000000
F0010000009960700002000001022529300041450500000000000000000201703250002001ALBERTO ALVAREZ ISAZA                             C000000001050000000000000000000000100010010000000000000000000000F0010000009960700220170325000101 00000000000000000000000000000000000000000000000000000000000000000000000000000000000000000000000000000000000000000N 00000000000NCONT   00    00000000000          00000000000000000000000000000000000000000000 000000000000000A000000000000000000000000000000000000000000000 000000000000000000000000000000000000000     00000000                                                                                                                        000000000000000000
F0010000009960700003000001022529300042505000000000000000000201703250002001ALBERTO ALVAREZ ISAZA                             C000000000000000000000000000000000100010010000000000000000000000F0010000009960700320170325000101 00000000000000000000000000000000000000000000000000000000000000000000000000000000000000000000000000000000000000000N 00000000000NCONT   00    00000000000          00000000000000000000000000000000000000000000 000000000000000A000000000000000000000000000000000000000000000 000000000000000000000000000000000000000     00000000                                                                                                                        000000000000000000
F0010000009960700004000001022529300023658300000000000000000201703250002001ALBERTO ALVAREZ ISAZA                             C000000000008400000000000000000000100010010000000000000000000000F0010000009960700420170325000101 00000000000000000000000000000000000000000000000000000000000000000000000000000000000000000000000000000000000000000N 00000000000NCONT   00    00000000000          00000000000000000000000000000000000000000000 000000000000000A000000000000000000000000000000000000000000000 000000000000000000000000000000000000000     00000000                                                                                                                        000000000000000000
F0010000009960700005000001022529300013552100000000000000000201703250002001ALBERTO ALVAREZ ISAZA                             D000000000008400000000000000000000100010010000000000000000000000F0010000009960700520170325000101 00000000000000000000000000000000000000000000000000000000000000000000000000000000000000000000000000000000000000000N 00000000000NCONT   00    00000000000          00000000000000000000000000000000000000000000 000000000000000A000000000000000000000000000000000000000000000 000000000000000000000000000000000000000     00000000                                                                                                                        000000000000000000
F0010000009960800001000000431178400011050500000000000000000201703250002001EFRAIN ALVAREZ                                    D000000001020000000000000000000000100010010000000000000000000000F0010000009960800120170325000101 00000000000000000000000000000000000000000000000000000000000000000000000000000000000000000000000000000000000000000N 00000000000NCONT   00    00000000000          00000000000000000000000000000000000000000000 000000000000000A000000000000000000000000000000000000000000000 000000000000000000000000000000000000000     00000000                                                                                                                        000000000000000000
F0010000009960800002000000431178400041450500000000000000000201703250002001EFRAIN ALVAREZ                                    C000000000920000000000000000000000100010010000000000000000000000F0010000009960800220170325000101 00000000000000000000000000000000000000000000000000000000000000000000000000000000000000000000000000000000000000000N 00000000000NCONT   00    00000000000          00000000000000000000000000000000000000000000 000000000000000A000000000000000000000000000000000000000000000 000000000000000000000000000000000000000     00000000                                                                                                                        000000000000000000
F0010000009960800003000000431178400042505000000000000000000201703250002001EFRAIN ALVAREZ                                    C000000000100000000000000000000000100010010000000000000000000000F0010000009960800320170325000101 00000000000000000000000000000000000000000000000000000000000000000000000000000000000000000000000000000000000000000N 00000000000NCONT   00    00000000000          00000000000000000000000000000000000000000000 000000000000000A000000000000000000000000000000000000000000000 000000000000000000000000000000000000000     00000000                                                                                                                        000000000000000000
F0010000009960800004000000431178400023658300000000000000000201703250002001EFRAIN ALVAREZ                                    C000000000007400000000000000000000100010010000000000000000000000F0010000009960800420170325000101 00000000000000000000000000000000000000000000000000000000000000000000000000000000000000000000000000000000000000000N 00000000000NCONT   00    00000000000          00000000000000000000000000000000000000000000 000000000000000A000000000000000000000000000000000000000000000 000000000000000000000000000000000000000     00000000                                                                                                                        000000000000000000
F0010000009960800005000000431178400013552100000000000000000201703250002001EFRAIN ALVAREZ                                    D000000000007400000000000000000000100010010000000000000000000000F0010000009960800520170325000101 00000000000000000000000000000000000000000000000000000000000000000000000000000000000000000000000000000000000000000N 00000000000NCONT   00    00000000000          00000000000000000000000000000000000000000000 000000000000000A000000000000000000000000000000000000000000000 000000000000000000000000000000000000000     00000000                                                                                                                        000000000000000000
F0010000009960900001000000431178400011050500000000000000000201703250002001EFRAIN ALVAREZ                                    D000000001695000000000000000000000100010010000000000000000000000F0010000009960900120170325000101 00000000000000000000000000000000000000000000000000000000000000000000000000000000000000000000000000000000000000000N 00000000000NCONT   00    00000000000          00000000000000000000000000000000000000000000 000000000000000A000000000000000000000000000000000000000000000 000000000000000000000000000000000000000     00000000                                                                                                                        000000000000000000
F0010000009960900002000000431178400041450500000000000000000201703250002001EFRAIN ALVAREZ                                    C000000001620000000000000000000000100010010000000000000000000000F0010000009960900220170325000101 00000000000000000000000000000000000000000000000000000000000000000000000000000000000000000000000000000000000000000N 00000000000NCONT   00    00000000000          00000000000000000000000000000000000000000000 000000000000000A000000000000000000000000000000000000000000000 000000000000000000000000000000000000000     00000000                                                                                                                        000000000000000000
F0010000009960900003000000431178400042505000000000000000000201703250002001EFRAIN ALVAREZ                                    C000000000075000000000000000000000100010010000000000000000000000F0010000009960900320170325000101 00000000000000000000000000000000000000000000000000000000000000000000000000000000000000000000000000000000000000000N 00000000000NCONT   00    00000000000          00000000000000000000000000000000000000000000 000000000000000A000000000000000000000000000000000000000000000 000000000000000000000000000000000000000     00000000                                                                                                                        000000000000000000
F0010000009960900004000000431178400023658300000000000000000201703250002001EFRAIN ALVAREZ                                    C000000000013000000000000000000000100010010000000000000000000000F0010000009960900420170325000101 00000000000000000000000000000000000000000000000000000000000000000000000000000000000000000000000000000000000000000N 00000000000NCONT   00    00000000000          00000000000000000000000000000000000000000000 000000000000000A000000000000000000000000000000000000000000000 000000000000000000000000000000000000000     00000000                                                                                                                        000000000000000000
F0010000009960900005000000431178400013552100000000000000000201703250002001EFRAIN ALVAREZ                                    D000000000013000000000000000000000100010010000000000000000000000F0010000009960900520170325000101 00000000000000000000000000000000000000000000000000000000000000000000000000000000000000000000000000000000000000000N 00000000000NCONT   00    00000000000          00000000000000000000000000000000000000000000 000000000000000A000000000000000000000000000000000000000000000 000000000000000000000000000000000000000     00000000                                                                                                                        000000000000000000
F0010000009961000001000000431178400011050500000000000000000201703250002001EFRAIN ALVAREZ                                    D000000001745000000000000000000000100010010000000000000000000000F0010000009961000120170325000101 00000000000000000000000000000000000000000000000000000000000000000000000000000000000000000000000000000000000000000N 00000000000NCONT   00    00000000000          00000000000000000000000000000000000000000000 000000000000000A000000000000000000000000000000000000000000000 000000000000000000000000000000000000000     00000000                                                                                                                        000000000000000000
F0010000009961000002000000431178400041450500000000000000000201703250002001EFRAIN ALVAREZ                                    C000000001620000000000000000000000100010010000000000000000000000F0010000009961000220170325000101 00000000000000000000000000000000000000000000000000000000000000000000000000000000000000000000000000000000000000000N 00000000000NCONT   00    00000000000          00000000000000000000000000000000000000000000 000000000000000A000000000000000000000000000000000000000000000 000000000000000000000000000000000000000     00000000                                                                                                                        000000000000000000
F0010000009961000003000000431178400042505000000000000000000201703250002001EFRAIN ALVAREZ                                    C000000000125000000000000000000000100010010000000000000000000000F0010000009961000320170325000101 00000000000000000000000000000000000000000000000000000000000000000000000000000000000000000000000000000000000000000N 00000000000NCONT   00    00000000000          00000000000000000000000000000000000000000000 000000000000000A000000000000000000000000000000000000000000000 000000000000000000000000000000000000000     00000000                                                                                                                        000000000000000000
F0010000009961000004000000431178400023658300000000000000000201703250002001EFRAIN ALVAREZ                                    C000000000013000000000000000000000100010010000000000000000000000F0010000009961000420170325000101 00000000000000000000000000000000000000000000000000000000000000000000000000000000000000000000000000000000000000000N 00000000000NCONT   00    00000000000          00000000000000000000000000000000000000000000 000000000000000A000000000000000000000000000000000000000000000 000000000000000000000000000000000000000     00000000                                                                                                                        000000000000000000
F0010000009961000005000000431178400013552100000000000000000201703250002001EFRAIN ALVAREZ                                    D000000000013000000000000000000000100010010000000000000000000000F0010000009961000520170325000101 00000000000000000000000000000000000000000000000000000000000000000000000000000000000000000000000000000000000000000N 00000000000NCONT   00    00000000000          00000000000000000000000000000000000000000000 000000000000000A000000000000000000000000000000000000000000000 000000000000000000000000000000000000000     00000000                                                                                                                        000000000000000000
F0010000009961100001000000431178400011050500000000000000000201703250002001EFRAIN ALVAREZ                                    D000000002015000000000000000000000100010010000000000000000000000F0010000009961100120170325000101 00000000000000000000000000000000000000000000000000000000000000000000000000000000000000000000000000000000000000000N 00000000000NCONT   00    00000000000          00000000000000000000000000000000000000000000 000000000000000A000000000000000000000000000000000000000000000 000000000000000000000000000000000000000     00000000                                                                                                                        000000000000000000
F0010000009961100002000000431178400041450500000000000000000201703250002001EFRAIN ALVAREZ                                    C000000001840000000000000000000000100010010000000000000000000000F0010000009961100220170325000101 00000000000000000000000000000000000000000000000000000000000000000000000000000000000000000000000000000000000000000N 00000000000NCONT   00    00000000000          00000000000000000000000000000000000000000000 000000000000000A000000000000000000000000000000000000000000000 000000000000000000000000000000000000000     00000000                                                                                                                        000000000000000000
F0010000009961100003000000431178400042505000000000000000000201703250002001EFRAIN ALVAREZ                                    C000000000175000000000000000000000100010010000000000000000000000F0010000009961100320170325000101 00000000000000000000000000000000000000000000000000000000000000000000000000000000000000000000000000000000000000000N 00000000000NCONT   00    00000000000          00000000000000000000000000000000000000000000 000000000000000A000000000000000000000000000000000000000000000 000000000000000000000000000000000000000     00000000                                                                                                                        000000000000000000
F0010000009961100004000000431178400023658300000000000000000201703250002001EFRAIN ALVAREZ                                    C000000000014700000000000000000000100010010000000000000000000000F0010000009961100420170325000101 00000000000000000000000000000000000000000000000000000000000000000000000000000000000000000000000000000000000000000N 00000000000NCONT   00    00000000000          00000000000000000000000000000000000000000000 000000000000000A000000000000000000000000000000000000000000000 000000000000000000000000000000000000000     00000000                                                                                                                        000000000000000000
F0010000009961100005000000431178400013552100000000000000000201703250002001EFRAIN ALVAREZ                                    D000000000014700000000000000000000100010010000000000000000000000F0010000009961100520170325000101 00000000000000000000000000000000000000000000000000000000000000000000000000000000000000000000000000000000000000000N 00000000000NCONT   00    00000000000          00000000000000000000000000000000000000000000 000000000000000A000000000000000000000000000000000000000000000 000000000000000000000000000000000000000     00000000                                                                                                                        000000000000000000
F0010000009961200001000007200023300011050500000000000000000201703250002001WILLIAM ORTEGA                                    D000000001500000000000000000000000100010010000000000000000000000F0010000009961200120170325000101 00000000000000000000000000000000000000000000000000000000000000000000000000000000000000000000000000000000000000000N 00000000000NCONT   00    00000000000          00000000000000000000000000000000000000000000 000000000000000A000000000000000000000000000000000000000000000 000000000000000000000000000000000000000     00000000                                                                                                                        000000000000000000
F0010000009961200002000007200023300041450500000000000000000201703250002001WILLIAM ORTEGA                                    C000000001300000000000000000000000100010010000000000000000000000F0010000009961200220170325000101 00000000000000000000000000000000000000000000000000000000000000000000000000000000000000000000000000000000000000000N 00000000000NCONT   00    00000000000          00000000000000000000000000000000000000000000 000000000000000A000000000000000000000000000000000000000000000 000000000000000000000000000000000000000     00000000                                                                                                                        000000000000000000
F0010000009961200003000007200023300042505000000000000000000201703250002001WILLIAM ORTEGA                                    C000000000200000000000000000000000100010010000000000000000000000F0010000009961200320170325000101 00000000000000000000000000000000000000000000000000000000000000000000000000000000000000000000000000000000000000000N 00000000000NCONT   00    00000000000          00000000000000000000000000000000000000000000 000000000000000A000000000000000000000000000000000000000000000 000000000000000000000000000000000000000     00000000                                                                                                                        000000000000000000
F0010000009961200004000007200023300023658300000000000000000201703250002001WILLIAM ORTEGA                                    C000000000010400000000000000000000100010010000000000000000000000F0010000009961200420170325000101 00000000000000000000000000000000000000000000000000000000000000000000000000000000000000000000000000000000000000000N 00000000000NCONT   00    00000000000          00000000000000000000000000000000000000000000 000000000000000A000000000000000000000000000000000000000000000 000000000000000000000000000000000000000     00000000                                                                                                                        000000000000000000
F0010000009961200005000007200023300013552100000000000000000201703250002001WILLIAM ORTEGA                                    D000000000010400000000000000000000100010010000000000000000000000F0010000009961200520170325000101 00000000000000000000000000000000000000000000000000000000000000000000000000000000000000000000000000000000000000000N 00000000000NCONT   00    00000000000          00000000000000000000000000000000000000000000 000000000000000A000000000000000000000000000000000000000000000 000000000000000000000000000000000000000     00000000                                                                                                                        000000000000000000
F0010000009961300001000090087846000011050500000000000000000201703250002001INTERCOMERCIAL SAS                                D000000006100000000000000000000000100010010000000000000000000000F0010000009961300120170325000101 00000000000000000000000000000000000000000000000000000000000000000000000000000000000000000000000000000000000000000N 00000000000NCONT   00    00000000000          00000000000000000000000000000000000000000000 000000000000000A000000000000000000000000000000000000000000000 000000000000000000000000000000000000000     00000000                                                                                                                        000000000000000000
F0010000009961300002000090087846000041450500000000000000000201703250002001INTERCOMERCIAL SAS                                C000000006000000000000000000000000100010010000000000000000000000F0010000009961300220170325000101 00000000000000000000000000000000000000000000000000000000000000000000000000000000000000000000000000000000000000000N 00000000000NCONT   00    00000000000          00000000000000000000000000000000000000000000 000000000000000A000000000000000000000000000000000000000000000 000000000000000000000000000000000000000     00000000                                                                                                                        000000000000000000
F0010000009961300003000090087846000042505000000000000000000201703250002001INTERCOMERCIAL SAS                                C000000000100000000000000000000000100010010000000000000000000000F0010000009961300320170325000101 00000000000000000000000000000000000000000000000000000000000000000000000000000000000000000000000000000000000000000N 00000000000NCONT   00    00000000000          00000000000000000000000000000000000000000000 000000000000000A000000000000000000000000000000000000000000000 000000000000000000000000000000000000000     00000000                                                                                                                        000000000000000000
F0010000009961300004000090087846000023658300000000000000000201703250002001INTERCOMERCIAL SAS                                C000000000048000000000000000000000100010010000000000000000000000F0010000009961300420170325000101 00000000000000000000000000000000000000000000000000000000000000000000000000000000000000000000000000000000000000000N 00000000000NCONT   00    00000000000          00000000000000000000000000000000000000000000 000000000000000A000000000000000000000000000000000000000000000 000000000000000000000000000000000000000     00000000                                                                                                                        000000000000000000
F0010000009961300005000090087846000013552100000000000000000201703250002001INTERCOMERCIAL SAS                                D000000000048000000000000000000000100010010000000000000000000000F0010000009961300520170325000101 00000000000000000000000000000000000000000000000000000000000000000000000000000000000000000000000000000000000000000N 00000000000NCONT   00    00000000000          00000000000000000000000000000000000000000000 000000000000000A000000000000000000000000000000000000000000000 000000000000000000000000000000000000000     00000000                                                                                                                        000000000000000000
F0010000009961400001000007213653800011050500000000000000000201703250002001VICTOR ECHAVEZ                                    D000000001500000000000000000000000100010010000000000000000000000F0010000009961400120170325000101 00000000000000000000000000000000000000000000000000000000000000000000000000000000000000000000000000000000000000000N 00000000000NCONT   00    00000000000          00000000000000000000000000000000000000000000 000000000000000A000000000000000000000000000000000000000000000 000000000000000000000000000000000000000     00000000                                                                                                                        000000000000000000
F0010000009961400002000007213653800041450500000000000000000201703250002001VICTOR ECHAVEZ                                    C000000001000000000000000000000000100010010000000000000000000000F0010000009961400220170325000101 00000000000000000000000000000000000000000000000000000000000000000000000000000000000000000000000000000000000000000N 00000000000NCONT   00    00000000000          00000000000000000000000000000000000000000000 000000000000000A000000000000000000000000000000000000000000000 000000000000000000000000000000000000000     00000000                                                                                                                        000000000000000000
F0010000009961400003000007213653800042505000000000000000000201703250002001VICTOR ECHAVEZ                                    C000000000500000000000000000000000100010010000000000000000000000F0010000009961400320170325000101 00000000000000000000000000000000000000000000000000000000000000000000000000000000000000000000000000000000000000000N 00000000000NCONT   00    00000000000          00000000000000000000000000000000000000000000 000000000000000A000000000000000000000000000000000000000000000 000000000000000000000000000000000000000     00000000                                                                                                                        000000000000000000
F0010000009961400004000007213653800023658300000000000000000201703250002001VICTOR ECHAVEZ                                    C000000000008000000000000000000000100010010000000000000000000000F0010000009961400420170325000101 00000000000000000000000000000000000000000000000000000000000000000000000000000000000000000000000000000000000000000N 00000000000NCONT   00    00000000000          00000000000000000000000000000000000000000000 000000000000000A000000000000000000000000000000000000000000000 000000000000000000000000000000000000000     00000000                                                                                                                        000000000000000000
F0010000009961400005000007213653800013552100000000000000000201703250002001VICTOR ECHAVEZ                                    D000000000008000000000000000000000100010010000000000000000000000F0010000009961400520170325000101 00000000000000000000000000000000000000000000000000000000000000000000000000000000000000000000000000000000000000000N 00000000000NCONT   00    00000000000          00000000000000000000000000000000000000000000 000000000000000A000000000000000000000000000000000000000000000 000000000000000000000000000000000000000     00000000                                                                                                                        000000000000000000
F0010000009961500001000007213653800011050500000000000000000201703250002001VICTOR ECHAVEZ                                    D000000001100000000000000000000000100010010000000000000000000000F0010000009961500120170325000101 00000000000000000000000000000000000000000000000000000000000000000000000000000000000000000000000000000000000000000N 00000000000NCONT   00    00000000000          00000000000000000000000000000000000000000000 000000000000000A000000000000000000000000000000000000000000000 000000000000000000000000000000000000000     00000000                                                                                                                        000000000000000000
F0010000009961500002000007213653800041450500000000000000000201703250002001VICTOR ECHAVEZ                                    C000000001000000000000000000000000100010010000000000000000000000F0010000009961500220170325000101 00000000000000000000000000000000000000000000000000000000000000000000000000000000000000000000000000000000000000000N 00000000000NCONT   00    00000000000          00000000000000000000000000000000000000000000 000000000000000A000000000000000000000000000000000000000000000 000000000000000000000000000000000000000     00000000                                                                                                                        000000000000000000
F0010000009961500003000007213653800042505000000000000000000201703250002001VICTOR ECHAVEZ                                    C000000000100000000000000000000000100010010000000000000000000000F0010000009961500320170325000101 00000000000000000000000000000000000000000000000000000000000000000000000000000000000000000000000000000000000000000N 00000000000NCONT   00    00000000000          00000000000000000000000000000000000000000000 000000000000000A000000000000000000000000000000000000000000000 000000000000000000000000000000000000000     00000000                                                                                                                        000000000000000000
F0010000009961500004000007213653800023658300000000000000000201703250002001VICTOR ECHAVEZ                                    C000000000008000000000000000000000100010010000000000000000000000F0010000009961500420170325000101 00000000000000000000000000000000000000000000000000000000000000000000000000000000000000000000000000000000000000000N 00000000000NCONT   00    00000000000          00000000000000000000000000000000000000000000 000000000000000A000000000000000000000000000000000000000000000 000000000000000000000000000000000000000     00000000                                                                                                                        000000000000000000
F0010000009961500005000007213653800013552100000000000000000201703250002001VICTOR ECHAVEZ                                    D000000000008000000000000000000000100010010000000000000000000000F0010000009961500520170325000101 00000000000000000000000000000000000000000000000000000000000000000000000000000000000000000000000000000000000000000N 00000000000NCONT   00    00000000000          00000000000000000000000000000000000000000000 000000000000000A000000000000000000000000000000000000000000000 000000000000000000000000000000000000000     00000000                                                                                                                        000000000000000000
F0010000009961600001000007213653800011050500000000000000000201703250002001VICTOR ECHAVEZ                                    D000000001300000000000000000000000100010010000000000000000000000F0010000009961600120170325000101 00000000000000000000000000000000000000000000000000000000000000000000000000000000000000000000000000000000000000000N 00000000000NCONT   00    00000000000          00000000000000000000000000000000000000000000 000000000000000A000000000000000000000000000000000000000000000 000000000000000000000000000000000000000     00000000                                                                                                                        000000000000000000
F0010000009961600002000007213653800041450500000000000000000201703250002001VICTOR ECHAVEZ                                    C000000001000000000000000000000000100010010000000000000000000000F0010000009961600220170325000101 00000000000000000000000000000000000000000000000000000000000000000000000000000000000000000000000000000000000000000N 00000000000NCONT   00    00000000000          00000000000000000000000000000000000000000000 000000000000000A000000000000000000000000000000000000000000000 000000000000000000000000000000000000000     00000000                                                                                                                        000000000000000000
F0010000009961600003000007213653800042505000000000000000000201703250002001VICTOR ECHAVEZ                                    C000000000300000000000000000000000100010010000000000000000000000F0010000009961600320170325000101 00000000000000000000000000000000000000000000000000000000000000000000000000000000000000000000000000000000000000000N 00000000000NCONT   00    00000000000          00000000000000000000000000000000000000000000 000000000000000A000000000000000000000000000000000000000000000 000000000000000000000000000000000000000     00000000                                                                                                                        000000000000000000
F0010000009961600004000007213653800023658300000000000000000201703250002001VICTOR ECHAVEZ                                    C000000000008000000000000000000000100010010000000000000000000000F0010000009961600420170325000101 00000000000000000000000000000000000000000000000000000000000000000000000000000000000000000000000000000000000000000N 00000000000NCONT   00    00000000000          00000000000000000000000000000000000000000000 000000000000000A000000000000000000000000000000000000000000000 000000000000000000000000000000000000000     00000000                                                                                                                        000000000000000000
F0010000009961600005000007213653800013552100000000000000000201703250002001VICTOR ECHAVEZ                                    D000000000008000000000000000000000100010010000000000000000000000F0010000009961600520170325000101 00000000000000000000000000000000000000000000000000000000000000000000000000000000000000000000000000000000000000000N 00000000000NCONT   00    00000000000          00000000000000000000000000000000000000000000 000000000000000A000000000000000000000000000000000000000000000 000000000000000000000000000000000000000     00000000                                                                                                                        000000000000000000
F0010000009961700001000007213653800011050500000000000000000201703250002001VICTOR ECHAVEZ                                    D000000001600000000000000000000000100010010000000000000000000000F0010000009961700120170325000101 00000000000000000000000000000000000000000000000000000000000000000000000000000000000000000000000000000000000000000N 00000000000NCONT   00    00000000000          00000000000000000000000000000000000000000000 000000000000000A000000000000000000000000000000000000000000000 000000000000000000000000000000000000000     00000000                                                                                                                        000000000000000000
F0010000009961700002000007213653800041450500000000000000000201703250002001VICTOR ECHAVEZ                                    C000000001300000000000000000000000100010010000000000000000000000F0010000009961700220170325000101 00000000000000000000000000000000000000000000000000000000000000000000000000000000000000000000000000000000000000000N 00000000000NCONT   00    00000000000          00000000000000000000000000000000000000000000 000000000000000A000000000000000000000000000000000000000000000 000000000000000000000000000000000000000     00000000                                                                                                                        000000000000000000
F0010000009961700003000007213653800042505000000000000000000201703250002001VICTOR ECHAVEZ                                    C000000000300000000000000000000000100010010000000000000000000000F0010000009961700320170325000101 00000000000000000000000000000000000000000000000000000000000000000000000000000000000000000000000000000000000000000N 00000000000NCONT   00    00000000000          00000000000000000000000000000000000000000000 000000000000000A000000000000000000000000000000000000000000000 000000000000000000000000000000000000000     00000000                                                                                                                        000000000000000000
F0010000009961700004000007213653800023658300000000000000000201703250002001VICTOR ECHAVEZ                                    C000000000010400000000000000000000100010010000000000000000000000F0010000009961700420170325000101 00000000000000000000000000000000000000000000000000000000000000000000000000000000000000000000000000000000000000000N 00000000000NCONT   00    00000000000          00000000000000000000000000000000000000000000 000000000000000A000000000000000000000000000000000000000000000 000000000000000000000000000000000000000     00000000                                                                                                                        000000000000000000
F0010000009961700005000007213653800013552100000000000000000201703250002001VICTOR ECHAVEZ                                    D000000000010400000000000000000000100010010000000000000000000000F0010000009961700520170325000101 00000000000000000000000000000000000000000000000000000000000000000000000000000000000000000000000000000000000000000N 00000000000NCONT   00    00000000000          00000000000000000000000000000000000000000000 000000000000000A000000000000000000000000000000000000000000000 000000000000000000000000000000000000000     00000000                                                                                                                        000000000000000000
F0010000009961800001000007213653800011050500000000000000000201703250002001VICTOR ECHAVEZ                                    D000000001600000000000000000000000100010010000000000000000000000F0010000009961800120170325000101 00000000000000000000000000000000000000000000000000000000000000000000000000000000000000000000000000000000000000000N 00000000000NCONT   00    00000000000          00000000000000000000000000000000000000000000 000000000000000A000000000000000000000000000000000000000000000 000000000000000000000000000000000000000     00000000                                                                                                                        000000000000000000
F0010000009961800002000007213653800041450500000000000000000201703250002001VICTOR ECHAVEZ                                    C000000001300000000000000000000000100010010000000000000000000000F0010000009961800220170325000101 00000000000000000000000000000000000000000000000000000000000000000000000000000000000000000000000000000000000000000N 00000000000NCONT   00    00000000000          00000000000000000000000000000000000000000000 000000000000000A000000000000000000000000000000000000000000000 000000000000000000000000000000000000000     00000000                                                                                                                        000000000000000000
F0010000009961800003000007213653800042505000000000000000000201703250002001VICTOR ECHAVEZ                                    C000000000300000000000000000000000100010010000000000000000000000F0010000009961800320170325000101 00000000000000000000000000000000000000000000000000000000000000000000000000000000000000000000000000000000000000000N 00000000000NCONT   00    00000000000          00000000000000000000000000000000000000000000 000000000000000A000000000000000000000000000000000000000000000 000000000000000000000000000000000000000     00000000                                                                                                                        000000000000000000
F0010000009961800004000007213653800023658300000000000000000201703250002001VICTOR ECHAVEZ                                    C000000000010400000000000000000000100010010000000000000000000000F0010000009961800420170325000101 00000000000000000000000000000000000000000000000000000000000000000000000000000000000000000000000000000000000000000N 00000000000NCONT   00    00000000000          00000000000000000000000000000000000000000000 000000000000000A000000000000000000000000000000000000000000000 000000000000000000000000000000000000000     00000000                                                                                                                        000000000000000000
F0010000009961800005000007213653800013552100000000000000000201703250002001VICTOR ECHAVEZ                                    D000000000010400000000000000000000100010010000000000000000000000F0010000009961800520170325000101 00000000000000000000000000000000000000000000000000000000000000000000000000000000000000000000000000000000000000000N 00000000000NCONT   00    00000000000          00000000000000000000000000000000000000000000 000000000000000A000000000000000000000000000000000000000000000 000000000000000000000000000000000000000     00000000                                                                                                                        000000000000000000
F0010000009961900001000007213653800011050500000000000000000201703250002001VICTOR ECHAVEZ                                    D000000003500000000000000000000000100010010000000000000000000000F0010000009961900120170325000101 00000000000000000000000000000000000000000000000000000000000000000000000000000000000000000000000000000000000000000N 00000000000NCONT   00    00000000000          00000000000000000000000000000000000000000000 000000000000000A000000000000000000000000000000000000000000000 000000000000000000000000000000000000000     00000000                                                                                                                        000000000000000000
F0010000009961900002000007213653800041450500000000000000000201703250002001VICTOR ECHAVEZ                                    C000000002600000000000000000000000100010010000000000000000000000F0010000009961900220170325000101 00000000000000000000000000000000000000000000000000000000000000000000000000000000000000000000000000000000000000000N 00000000000NCONT   00    00000000000          00000000000000000000000000000000000000000000 000000000000000A000000000000000000000000000000000000000000000 000000000000000000000000000000000000000     00000000                                                                                                                        000000000000000000
F0010000009961900003000007213653800042505000000000000000000201703250002001VICTOR ECHAVEZ                                    C000000000900000000000000000000000100010010000000000000000000000F0010000009961900320170325000101 00000000000000000000000000000000000000000000000000000000000000000000000000000000000000000000000000000000000000000N 00000000000NCONT   00    00000000000          00000000000000000000000000000000000000000000 000000000000000A000000000000000000000000000000000000000000000 000000000000000000000000000000000000000     00000000                                                                                                                        000000000000000000
F0010000009961900004000007213653800023658300000000000000000201703250002001VICTOR ECHAVEZ                                    C000000000020800000000000000000000100010010000000000000000000000F0010000009961900420170325000101 00000000000000000000000000000000000000000000000000000000000000000000000000000000000000000000000000000000000000000N 00000000000NCONT   00    00000000000          00000000000000000000000000000000000000000000 000000000000000A000000000000000000000000000000000000000000000 000000000000000000000000000000000000000     00000000                                                                                                                        000000000000000000
F0010000009961900005000007213653800013552100000000000000000201703250002001VICTOR ECHAVEZ                                    D000000000020800000000000000000000100010010000000000000000000000F0010000009961900520170325000101 00000000000000000000000000000000000000000000000000000000000000000000000000000000000000000000000000000000000000000N 00000000000NCONT   00    00000000000          00000000000000000000000000000000000000000000 000000000000000A000000000000000000000000000000000000000000000 000000000000000000000000000000000000000     00000000                                                                                                                        000000000000000000
F0010000009962000001000090067091400011050500000000000000000201703250002001COMERCIALIZADORA ESCOBAR ORTIZ                    D000000000848000000000000000000000100010010000000000000000000000F0010000009962000120170325000101 00000000000000000000000000000000000000000000000000000000000000000000000000000000000000000000000000000000000000000N 00000000000NCONT   00    00000000000          00000000000000000000000000000000000000000000 000000000000000A000000000000000000000000000000000000000000000 000000000000000000000000000000000000000     00000000                                                                                                                        000000000000000000
F0010000009962000002000090067091400041450500000000000000000201703250002001COMERCIALIZADORA ESCOBAR ORTIZ                    C000000000350000000000000000000000100010010000000000000000000000F0010000009962000220170325000101 00000000000000000000000000000000000000000000000000000000000000000000000000000000000000000000000000000000000000000N 00000000000NCONT   00    00000000000          00000000000000000000000000000000000000000000 000000000000000A000000000000000000000000000000000000000000000 000000000000000000000000000000000000000     00000000                                                                                                                        000000000000000000
F0010000009962000003000090067091400042505000000000000000000201703250002001COMERCIALIZADORA ESCOBAR ORTIZ                    C000000000498000000000000000000000100010010000000000000000000000F0010000009962000320170325000101 00000000000000000000000000000000000000000000000000000000000000000000000000000000000000000000000000000000000000000N 00000000000NCONT   00    00000000000          00000000000000000000000000000000000000000000 000000000000000A000000000000000000000000000000000000000000000 000000000000000000000000000000000000000     00000000                                                                                                                        000000000000000000
F0010000009962000004000090067091400023658300000000000000000201703250002001COMERCIALIZADORA ESCOBAR ORTIZ                    C000000000002800000000000000000000100010010000000000000000000000F0010000009962000420170325000101 00000000000000000000000000000000000000000000000000000000000000000000000000000000000000000000000000000000000000000N 00000000000NCONT   00    00000000000          00000000000000000000000000000000000000000000 000000000000000A000000000000000000000000000000000000000000000 000000000000000000000000000000000000000     00000000                                                                                                                        000000000000000000
F0010000009962000005000090067091400013552100000000000000000201703250002001COMERCIALIZADORA ESCOBAR ORTIZ                    D000000000002800000000000000000000100010010000000000000000000000F0010000009962000520170325000101 00000000000000000000000000000000000000000000000000000000000000000000000000000000000000000000000000000000000000000N 00000000000NCONT   00    00000000000          00000000000000000000000000000000000000000000 000000000000000A000000000000000000000000000000000000000000000 000000000000000000000000000000000000000     00000000                                                                                                                        000000000000000000
F0010000009962100001000090067091400011050500000000000000000201703250002001COMERCIALIZADORA ESCOBAR ORTIZ                    D000000001054100000000000000000000100010010000000000000000000000F0010000009962100120170325000101 00000000000000000000000000000000000000000000000000000000000000000000000000000000000000000000000000000000000000000N 00000000000NCONT   00    00000000000          00000000000000000000000000000000000000000000 000000000000000A000000000000000000000000000000000000000000000 000000000000000000000000000000000000000     00000000                                                                                                                        000000000000000000
F0010000009962100002000090067091400041450500000000000000000201703250002001COMERCIALIZADORA ESCOBAR ORTIZ                    C000000001000000000000000000000000100010010000000000000000000000F0010000009962100220170325000101 00000000000000000000000000000000000000000000000000000000000000000000000000000000000000000000000000000000000000000N 00000000000NCONT   00    00000000000          00000000000000000000000000000000000000000000 000000000000000A000000000000000000000000000000000000000000000 000000000000000000000000000000000000000     00000000                                                                                                                        000000000000000000
F0010000009962100003000090067091400042505000000000000000000201703250002001COMERCIALIZADORA ESCOBAR ORTIZ                    C000000000054100000000000000000000100010010000000000000000000000F0010000009962100320170325000101 00000000000000000000000000000000000000000000000000000000000000000000000000000000000000000000000000000000000000000N 00000000000NCONT   00    00000000000          00000000000000000000000000000000000000000000 000000000000000A000000000000000000000000000000000000000000000 000000000000000000000000000000000000000     00000000                                                                                                                        000000000000000000
F0010000009962100004000090067091400023658300000000000000000201703250002001COMERCIALIZADORA ESCOBAR ORTIZ                    C000000000008000000000000000000000100010010000000000000000000000F0010000009962100420170325000101 00000000000000000000000000000000000000000000000000000000000000000000000000000000000000000000000000000000000000000N 00000000000NCONT   00    00000000000          00000000000000000000000000000000000000000000 000000000000000A000000000000000000000000000000000000000000000 000000000000000000000000000000000000000     00000000                                                                                                                        000000000000000000
F0010000009962100005000090067091400013552100000000000000000201703250002001COMERCIALIZADORA ESCOBAR ORTIZ                    D000000000008000000000000000000000100010010000000000000000000000F0010000009962100520170325000101 00000000000000000000000000000000000000000000000000000000000000000000000000000000000000000000000000000000000000000N 00000000000NCONT   00    00000000000          00000000000000000000000000000000000000000000 000000000000000A000000000000000000000000000000000000000000000 000000000000000000000000000000000000000     00000000                                                                                                                        000000000000000000
F0010000009962200001000090067091400011050500000000000000000201703250002001COMERCIALIZADORA ESCOBAR ORTIZ                    D000000002006000000000000000000000100010010000000000000000000000F0010000009962200120170325000101 00000000000000000000000000000000000000000000000000000000000000000000000000000000000000000000000000000000000000000N 00000000000NCONT   00    00000000000          00000000000000000000000000000000000000000000 000000000000000A000000000000000000000000000000000000000000000 000000000000000000000000000000000000000     00000000                                                                                                                        000000000000000000
F0010000009962200002000090067091400041450500000000000000000201703250002001COMERCIALIZADORA ESCOBAR ORTIZ                    C000000001000000000000000000000000100010010000000000000000000000F0010000009962200220170325000101 00000000000000000000000000000000000000000000000000000000000000000000000000000000000000000000000000000000000000000N 00000000000NCONT   00    00000000000          00000000000000000000000000000000000000000000 000000000000000A000000000000000000000000000000000000000000000 000000000000000000000000000000000000000     00000000                                                                                                                        000000000000000000
F0010000009962200003000090067091400042505000000000000000000201703250002001COMERCIALIZADORA ESCOBAR ORTIZ                    C000000001006000000000000000000000100010010000000000000000000000F0010000009962200320170325000101 00000000000000000000000000000000000000000000000000000000000000000000000000000000000000000000000000000000000000000N 00000000000NCONT   00    00000000000          00000000000000000000000000000000000000000000 000000000000000A000000000000000000000000000000000000000000000 000000000000000000000000000000000000000     00000000                                                                                                                        000000000000000000
F0010000009962200004000090067091400023658300000000000000000201703250002001COMERCIALIZADORA ESCOBAR ORTIZ                    C000000000008000000000000000000000100010010000000000000000000000F0010000009962200420170325000101 00000000000000000000000000000000000000000000000000000000000000000000000000000000000000000000000000000000000000000N 00000000000NCONT   00    00000000000          00000000000000000000000000000000000000000000 000000000000000A000000000000000000000000000000000000000000000 000000000000000000000000000000000000000     00000000                                                                                                                        000000000000000000
F0010000009962200005000090067091400013552100000000000000000201703250002001COMERCIALIZADORA ESCOBAR ORTIZ                    D000000000008000000000000000000000100010010000000000000000000000F0010000009962200520170325000101 00000000000000000000000000000000000000000000000000000000000000000000000000000000000000000000000000000000000000000N 00000000000NCONT   00    00000000000          00000000000000000000000000000000000000000000 000000000000000A000000000000000000000000000000000000000000000 000000000000000000000000000000000000000     00000000                                                                                                                        000000000000000000
F0010000009962300001000005608596000011050500000000000000000201703250002001ROSA ALEJANDRINA RUIZ GOMEZ                       D000000002900000000000000000000000100010010000000000000000000000F0010000009962300120170325000101 00000000000000000000000000000000000000000000000000000000000000000000000000000000000000000000000000000000000000000N 00000000000NCONT   00    00000000000          00000000000000000000000000000000000000000000 000000000000000A000000000000000000000000000000000000000000000 000000000000000000000000000000000000000     00000000                                                                                                                        000000000000000000
F0010000009962300002000005608596000041450500000000000000000201703250002001ROSA ALEJANDRINA RUIZ GOMEZ                       C000000002600000000000000000000000100010010000000000000000000000F0010000009962300220170325000101 00000000000000000000000000000000000000000000000000000000000000000000000000000000000000000000000000000000000000000N 00000000000NCONT   00    00000000000          00000000000000000000000000000000000000000000 000000000000000A000000000000000000000000000000000000000000000 000000000000000000000000000000000000000     00000000                                                                                                                        000000000000000000
F0010000009962300003000005608596000042505000000000000000000201703250002001ROSA ALEJANDRINA RUIZ GOMEZ                       C000000000300000000000000000000000100010010000000000000000000000F0010000009962300320170325000101 00000000000000000000000000000000000000000000000000000000000000000000000000000000000000000000000000000000000000000N 00000000000NCONT   00    00000000000          00000000000000000000000000000000000000000000 000000000000000A000000000000000000000000000000000000000000000 000000000000000000000000000000000000000     00000000                                                                                                                        000000000000000000
F0010000009962300004000005608596000023658300000000000000000201703250002001ROSA ALEJANDRINA RUIZ GOMEZ                       C000000000020800000000000000000000100010010000000000000000000000F0010000009962300420170325000101 00000000000000000000000000000000000000000000000000000000000000000000000000000000000000000000000000000000000000000N 00000000000NCONT   00    00000000000          00000000000000000000000000000000000000000000 000000000000000A000000000000000000000000000000000000000000000 000000000000000000000000000000000000000     00000000                                                                                                                        000000000000000000
F0010000009962300005000005608596000013552100000000000000000201703250002001ROSA ALEJANDRINA RUIZ GOMEZ                       D000000000020800000000000000000000100010010000000000000000000000F0010000009962300520170325000101 00000000000000000000000000000000000000000000000000000000000000000000000000000000000000000000000000000000000000000N 00000000000NCONT   00    00000000000          00000000000000000000000000000000000000000000 000000000000000A000000000000000000000000000000000000000000000 000000000000000000000000000000000000000     00000000                                                                                                                        000000000000000000
F0010000009962400001000090000859400011050500000000000000000201703250002001COMERCIAL JOTACE LTDA                             D000000002707500000000000000000000100010010000000000000000000000F0010000009962400120170325000101 00000000000000000000000000000000000000000000000000000000000000000000000000000000000000000000000000000000000000000N 00000000000NCONT   00    00000000000          00000000000000000000000000000000000000000000 000000000000000A000000000000000000000000000000000000000000000 000000000000000000000000000000000000000     00000000                                                                                                                        000000000000000000
F0010000009962400002000090000859400041450500000000000000000201703250002001COMERCIAL JOTACE LTDA                             C000000002500000000000000000000000100010010000000000000000000000F0010000009962400220170325000101 00000000000000000000000000000000000000000000000000000000000000000000000000000000000000000000000000000000000000000N 00000000000NCONT   00    00000000000          00000000000000000000000000000000000000000000 000000000000000A000000000000000000000000000000000000000000000 000000000000000000000000000000000000000     00000000                                                                                                                        000000000000000000
F0010000009962400003000090000859400042505000000000000000000201703250002001COMERCIAL JOTACE LTDA                             C000000000207500000000000000000000100010010000000000000000000000F0010000009962400320170325000101 00000000000000000000000000000000000000000000000000000000000000000000000000000000000000000000000000000000000000000N 00000000000NCONT   00    00000000000          00000000000000000000000000000000000000000000 000000000000000A000000000000000000000000000000000000000000000 000000000000000000000000000000000000000     00000000                                                                                                                        000000000000000000
F0010000009962400004000090000859400023658300000000000000000201703250002001COMERCIAL JOTACE LTDA                             C000000000020000000000000000000000100010010000000000000000000000F0010000009962400420170325000101 00000000000000000000000000000000000000000000000000000000000000000000000000000000000000000000000000000000000000000N 00000000000NCONT   00    00000000000          00000000000000000000000000000000000000000000 000000000000000A000000000000000000000000000000000000000000000 000000000000000000000000000000000000000     00000000                                                                                                                        000000000000000000
F0010000009962400005000090000859400013552100000000000000000201703250002001COMERCIAL JOTACE LTDA                             D000000000020000000000000000000000100010010000000000000000000000F0010000009962400520170325000101 00000000000000000000000000000000000000000000000000000000000000000000000000000000000000000000000000000000000000000N 00000000000NCONT   00    00000000000          00000000000000000000000000000000000000000000 000000000000000A000000000000000000000000000000000000000000000 000000000000000000000000000000000000000     00000000                                                                                                                        000000000000000000
F0010000009962500001000090067091400011050500000000000000000201703250002001COMERCIALIZADORA ESCOBAR ORTIZ                    D000000004381000000000000000000000100010010000000000000000000000F0010000009962500120170325000101 00000000000000000000000000000000000000000000000000000000000000000000000000000000000000000000000000000000000000000N 00000000000NCONT   00    00000000000          00000000000000000000000000000000000000000000 000000000000000A000000000000000000000000000000000000000000000 000000000000000000000000000000000000000     00000000                                                                                                                        000000000000000000
F0010000009962500002000090067091400041450500000000000000000201703250002001COMERCIALIZADORA ESCOBAR ORTIZ                    C000000003000000000000000000000000100010010000000000000000000000F0010000009962500220170325000101 00000000000000000000000000000000000000000000000000000000000000000000000000000000000000000000000000000000000000000N 00000000000NCONT   00    00000000000          00000000000000000000000000000000000000000000 000000000000000A000000000000000000000000000000000000000000000 000000000000000000000000000000000000000     00000000                                                                                                                        000000000000000000
F0010000009962500003000090067091400042505000000000000000000201703250002001COMERCIALIZADORA ESCOBAR ORTIZ                    C000000001381000000000000000000000100010010000000000000000000000F0010000009962500320170325000101 00000000000000000000000000000000000000000000000000000000000000000000000000000000000000000000000000000000000000000N 00000000000NCONT   00    00000000000          00000000000000000000000000000000000000000000 000000000000000A000000000000000000000000000000000000000000000 000000000000000000000000000000000000000     00000000                                                                                                                        000000000000000000
F0010000009962500004000090067091400023658300000000000000000201703250002001COMERCIALIZADORA ESCOBAR ORTIZ                    C000000000024000000000000000000000100010010000000000000000000000F0010000009962500420170325000101 00000000000000000000000000000000000000000000000000000000000000000000000000000000000000000000000000000000000000000N 00000000000NCONT   00    00000000000          00000000000000000000000000000000000000000000 000000000000000A000000000000000000000000000000000000000000000 000000000000000000000000000000000000000     00000000                                                                                                                        000000000000000000
F0010000009962500005000090067091400013552100000000000000000201703250002001COMERCIALIZADORA ESCOBAR ORTIZ                    D000000000024000000000000000000000100010010000000000000000000000F0010000009962500520170325000101 00000000000000000000000000000000000000000000000000000000000000000000000000000000000000000000000000000000000000000N 00000000000NCONT   00    00000000000          00000000000000000000000000000000000000000000 000000000000000A000000000000000000000000000000000000000000000 000000000000000000000000000000000000000     00000000                                                                                                                        000000000000000000
F0010000009962600001000090067091400011050500000000000000000201703250002001COMERCIALIZADORA ESCOBAR ORTIZ                    D000000004132000000000000000000000100010010000000000000000000000F0010000009962600120170325000101 00000000000000000000000000000000000000000000000000000000000000000000000000000000000000000000000000000000000000000N 00000000000NCONT   00    00000000000          00000000000000000000000000000000000000000000 000000000000000A000000000000000000000000000000000000000000000 000000000000000000000000000000000000000     00000000                                                                                                                        000000000000000000
