F0010000008603600001000080019113900011050500000000000000000201605150002001COMERCIAL NOVAPEL LTDA                            D000000001600000000000000000000000100010010000000000000000000000F0010000008603600120160515000101 00000000000000000000000000000000000000000000000000000000000000000000000000000000000000000000000000000000000000000N 00000000000NCONT   00    00000000000          00000000000000000000000000000000000000000000 000000000000000A000000000000000000000000000000000000000000000 000000000000000000000000000000000000000     00000000                                                                                                                        000000000000000000
F0010000008603600002000080019113900041450500000000000000000201605150002001COMERCIAL NOVAPEL LTDA                            C000000001200000000000000000000000100010010000000000000000000000F0010000008603600220160515000101 00000000000000000000000000000000000000000000000000000000000000000000000000000000000000000000000000000000000000000N 00000000000NCONT   00    00000000000          00000000000000000000000000000000000000000000 000000000000000A000000000000000000000000000000000000000000000 000000000000000000000000000000000000000     00000000                                                                                                                        000000000000000000
F0010000008603600003000080019113900042505000000000000000000201605150002001COMERCIAL NOVAPEL LTDA                            C000000000400000000000000000000000100010010000000000000000000000F0010000008603600320160515000101 00000000000000000000000000000000000000000000000000000000000000000000000000000000000000000000000000000000000000000N 00000000000NCONT   00    00000000000          00000000000000000000000000000000000000000000 000000000000000A000000000000000000000000000000000000000000000 000000000000000000000000000000000000000     00000000                                                                                                                        000000000000000000
F0010000008603600004000080019113900023658300000000000000000201605150002001COMERCIAL NOVAPEL LTDA                            C000000000009600000000000000000000100010010000000000000000000000F0010000008603600420160515000101 00000000000000000000000000000000000000000000000000000000000000000000000000000000000000000000000000000000000000000N 00000000000NCONT   00    00000000000          00000000000000000000000000000000000000000000 000000000000000A000000000000000000000000000000000000000000000 000000000000000000000000000000000000000     00000000                                                                                                                        000000000000000000
F0010000008603600005000080019113900013552100000000000000000201605150002001COMERCIAL NOVAPEL LTDA                            D000000000009600000000000000000000100010010000000000000000000000F0010000008603600520160515000101 00000000000000000000000000000000000000000000000000000000000000000000000000000000000000000000000000000000000000000N 00000000000NCONT   00    00000000000          00000000000000000000000000000000000000000000 000000000000000A000000000000000000000000000000000000000000000 000000000000000000000000000000000000000     00000000                                                                                                                        000000000000000000
F0010000008603700001000102390001700011050500000000000000000201605150002001LILIANA HERNANDEZ PINILLA                         D000000005500000000000000000000000100010010000000000000000000000F0010000008603700120160515000101 00000000000000000000000000000000000000000000000000000000000000000000000000000000000000000000000000000000000000000N 00000000000NCONT   00    00000000000          00000000000000000000000000000000000000000000 000000000000000A000000000000000000000000000000000000000000000 000000000000000000000000000000000000000     00000000                                                                                                                        000000000000000000
F0010000008603700002000102390001700041450500000000000000000201605150002001LILIANA HERNANDEZ PINILLA                         C000000004500000000000000000000000100010010000000000000000000000F0010000008603700220160515000101 00000000000000000000000000000000000000000000000000000000000000000000000000000000000000000000000000000000000000000N 00000000000NCONT   00    00000000000          00000000000000000000000000000000000000000000 000000000000000A000000000000000000000000000000000000000000000 000000000000000000000000000000000000000     00000000                                                                                                                        000000000000000000
F0010000008603700003000102390001700042505000000000000000000201605150002001LILIANA HERNANDEZ PINILLA                         C000000001000000000000000000000000100010010000000000000000000000F0010000008603700320160515000101 00000000000000000000000000000000000000000000000000000000000000000000000000000000000000000000000000000000000000000N 00000000000NCONT   00    00000000000          00000000000000000000000000000000000000000000 000000000000000A000000000000000000000000000000000000000000000 000000000000000000000000000000000000000     00000000                                                                                                                        000000000000000000
F0010000008603700004000102390001700023658300000000000000000201605150002001LILIANA HERNANDEZ PINILLA                         C000000000036000000000000000000000100010010000000000000000000000F0010000008603700420160515000101 00000000000000000000000000000000000000000000000000000000000000000000000000000000000000000000000000000000000000000N 00000000000NCONT   00    00000000000          00000000000000000000000000000000000000000000 000000000000000A000000000000000000000000000000000000000000000 000000000000000000000000000000000000000     00000000                                                                                                                        000000000000000000
F0010000008603700005000102390001700013552100000000000000000201605150002001LILIANA HERNANDEZ PINILLA                         D000000000036000000000000000000000100010010000000000000000000000F0010000008603700520160515000101 00000000000000000000000000000000000000000000000000000000000000000000000000000000000000000000000000000000000000000N 00000000000NCONT   00    00000000000          00000000000000000000000000000000000000000000 000000000000000A000000000000000000000000000000000000000000000 000000000000000000000000000000000000000     00000000                                                                                                                        000000000000000000
F0010000008603800001000102390001700011050500000000000000000201605150002001LILIANA HERNANDEZ PINILLA                         D000000008000000000000000000000000100010010000000000000000000000F0010000008603800120160515000101 00000000000000000000000000000000000000000000000000000000000000000000000000000000000000000000000000000000000000000N 00000000000NCONT   00    00000000000          00000000000000000000000000000000000000000000 000000000000000A000000000000000000000000000000000000000000000 000000000000000000000000000000000000000     00000000                                                                                                                        000000000000000000
F0010000008603800002000102390001700041450500000000000000000201605150002001LILIANA HERNANDEZ PINILLA                         C000000006000000000000000000000000100010010000000000000000000000F0010000008603800220160515000101 00000000000000000000000000000000000000000000000000000000000000000000000000000000000000000000000000000000000000000N 00000000000NCONT   00    00000000000          00000000000000000000000000000000000000000000 000000000000000A000000000000000000000000000000000000000000000 000000000000000000000000000000000000000     00000000                                                                                                                        000000000000000000
F0010000008603800003000102390001700042505000000000000000000201605150002001LILIANA HERNANDEZ PINILLA                         C000000002000000000000000000000000100010010000000000000000000000F0010000008603800320160515000101 00000000000000000000000000000000000000000000000000000000000000000000000000000000000000000000000000000000000000000N 00000000000NCONT   00    00000000000          00000000000000000000000000000000000000000000 000000000000000A000000000000000000000000000000000000000000000 000000000000000000000000000000000000000     00000000                                                                                                                        000000000000000000
F0010000008603800004000102390001700023658300000000000000000201605150002001LILIANA HERNANDEZ PINILLA                         C000000000048000000000000000000000100010010000000000000000000000F0010000008603800420160515000101 00000000000000000000000000000000000000000000000000000000000000000000000000000000000000000000000000000000000000000N 00000000000NCONT   00    00000000000          00000000000000000000000000000000000000000000 000000000000000A000000000000000000000000000000000000000000000 000000000000000000000000000000000000000     00000000                                                                                                                        000000000000000000
F0010000008603800005000102390001700013552100000000000000000201605150002001LILIANA HERNANDEZ PINILLA                         D000000000048000000000000000000000100010010000000000000000000000F0010000008603800520160515000101 00000000000000000000000000000000000000000000000000000000000000000000000000000000000000000000000000000000000000000N 00000000000NCONT   00    00000000000          00000000000000000000000000000000000000000000 000000000000000A000000000000000000000000000000000000000000000 000000000000000000000000000000000000000     00000000                                                                                                                        000000000000000000
F0010000008603900001000102390001700011050500000000000000000201605150002001LILIANA HERNANDEZ PINILLA                         D000000004000000000000000000000000100010010000000000000000000000F0010000008603900120160515000101 00000000000000000000000000000000000000000000000000000000000000000000000000000000000000000000000000000000000000000N 00000000000NCONT   00    00000000000          00000000000000000000000000000000000000000000 000000000000000A000000000000000000000000000000000000000000000 000000000000000000000000000000000000000     00000000                                                                                                                        000000000000000000
F0010000008603900002000102390001700041450500000000000000000201605150002001LILIANA HERNANDEZ PINILLA                         C000000003000000000000000000000000100010010000000000000000000000F0010000008603900220160515000101 00000000000000000000000000000000000000000000000000000000000000000000000000000000000000000000000000000000000000000N 00000000000NCONT   00    00000000000          00000000000000000000000000000000000000000000 000000000000000A000000000000000000000000000000000000000000000 000000000000000000000000000000000000000     00000000                                                                                                                        000000000000000000
F0010000008603900003000102390001700042505000000000000000000201605150002001LILIANA HERNANDEZ PINILLA                         C000000001000000000000000000000000100010010000000000000000000000F0010000008603900320160515000101 00000000000000000000000000000000000000000000000000000000000000000000000000000000000000000000000000000000000000000N 00000000000NCONT   00    00000000000          00000000000000000000000000000000000000000000 000000000000000A000000000000000000000000000000000000000000000 000000000000000000000000000000000000000     00000000                                                                                                                        000000000000000000
F0010000008603900004000102390001700023658300000000000000000201605150002001LILIANA HERNANDEZ PINILLA                         C000000000024000000000000000000000100010010000000000000000000000F0010000008603900420160515000101 00000000000000000000000000000000000000000000000000000000000000000000000000000000000000000000000000000000000000000N 00000000000NCONT   00    00000000000          00000000000000000000000000000000000000000000 000000000000000A000000000000000000000000000000000000000000000 000000000000000000000000000000000000000     00000000                                                                                                                        000000000000000000
F0010000008603900005000102390001700013552100000000000000000201605150002001LILIANA HERNANDEZ PINILLA                         D000000000024000000000000000000000100010010000000000000000000000F0010000008603900520160515000101 00000000000000000000000000000000000000000000000000000000000000000000000000000000000000000000000000000000000000000N 00000000000NCONT   00    00000000000          00000000000000000000000000000000000000000000 000000000000000A000000000000000000000000000000000000000000000 000000000000000000000000000000000000000     00000000                                                                                                                        000000000000000000
F0010000008604000001000080200594400011050500000000000000000201605150002001NOVEDADES JOTA JOTA                               D000000007500000000000000000000000100010010000000000000000000000F0010000008604000120160515000101 00000000000000000000000000000000000000000000000000000000000000000000000000000000000000000000000000000000000000000N 00000000000NCONT   00    00000000000          00000000000000000000000000000000000000000000 000000000000000A000000000000000000000000000000000000000000000 000000000000000000000000000000000000000     00000000                                                                                                                        000000000000000000
F0010000008604000002000080200594400041450500000000000000000201605150002001NOVEDADES JOTA JOTA                               C000000005100000000000000000000000100010010000000000000000000000F0010000008604000220160515000101 00000000000000000000000000000000000000000000000000000000000000000000000000000000000000000000000000000000000000000N 00000000000NCONT   00    00000000000          00000000000000000000000000000000000000000000 000000000000000A000000000000000000000000000000000000000000000 000000000000000000000000000000000000000     00000000                                                                                                                        000000000000000000
F0010000008604000003000080200594400042505000000000000000000201605150002001NOVEDADES JOTA JOTA                               C000000002400000000000000000000000100010010000000000000000000000F0010000008604000320160515000101 00000000000000000000000000000000000000000000000000000000000000000000000000000000000000000000000000000000000000000N 00000000000NCONT   00    00000000000          00000000000000000000000000000000000000000000 000000000000000A000000000000000000000000000000000000000000000 000000000000000000000000000000000000000     00000000                                                                                                                        000000000000000000
F0010000008604000004000080200594400023658300000000000000000201605150002001NOVEDADES JOTA JOTA                               C000000000040800000000000000000000100010010000000000000000000000F0010000008604000420160515000101 00000000000000000000000000000000000000000000000000000000000000000000000000000000000000000000000000000000000000000N 00000000000NCONT   00    00000000000          00000000000000000000000000000000000000000000 000000000000000A000000000000000000000000000000000000000000000 000000000000000000000000000000000000000     00000000                                                                                                                        000000000000000000
F0010000008604000005000080200594400013552100000000000000000201605150002001NOVEDADES JOTA JOTA                               D000000000040800000000000000000000100010010000000000000000000000F0010000008604000520160515000101 00000000000000000000000000000000000000000000000000000000000000000000000000000000000000000000000000000000000000000N 00000000000NCONT   00    00000000000          00000000000000000000000000000000000000000000 000000000000000A000000000000000000000000000000000000000000000 000000000000000000000000000000000000000     00000000                                                                                                                        000000000000000000
F0010000008604100001000086003979400011050500000000000000000201605150002001CALYPSO BARRANQUILLA LTDA                         D000000000831000000000000000000000100010010000000000000000000000F0010000008604100120160515000101 00000000000000000000000000000000000000000000000000000000000000000000000000000000000000000000000000000000000000000N 00000000000NCONT   00    00000000000          00000000000000000000000000000000000000000000 000000000000000A000000000000000000000000000000000000000000000 000000000000000000000000000000000000000     00000000                                                                                                                        000000000000000000
F0010000008604100002000086003979400041450500000000000000000201605150002001CALYPSO BARRANQUILLA LTDA                         C000000000660000000000000000000000100010010000000000000000000000F0010000008604100220160515000101 00000000000000000000000000000000000000000000000000000000000000000000000000000000000000000000000000000000000000000N 00000000000NCONT   00    00000000000          00000000000000000000000000000000000000000000 000000000000000A000000000000000000000000000000000000000000000 000000000000000000000000000000000000000     00000000                                                                                                                        000000000000000000
F0010000008604100003000086003979400042505000000000000000000201605150002001CALYPSO BARRANQUILLA LTDA                         C000000000171000000000000000000000100010010000000000000000000000F0010000008604100320160515000101 00000000000000000000000000000000000000000000000000000000000000000000000000000000000000000000000000000000000000000N 00000000000NCONT   00    00000000000          00000000000000000000000000000000000000000000 000000000000000A000000000000000000000000000000000000000000000 000000000000000000000000000000000000000     00000000                                                                                                                        000000000000000000
F0010000008604100004000086003979400023658300000000000000000201605150002001CALYPSO BARRANQUILLA LTDA                         C000000000005300000000000000000000100010010000000000000000000000F0010000008604100420160515000101 00000000000000000000000000000000000000000000000000000000000000000000000000000000000000000000000000000000000000000N 00000000000NCONT   00    00000000000          00000000000000000000000000000000000000000000 000000000000000A000000000000000000000000000000000000000000000 000000000000000000000000000000000000000     00000000                                                                                                                        000000000000000000
F0010000008604100005000086003979400013552100000000000000000201605150002001CALYPSO BARRANQUILLA LTDA                         D000000000005300000000000000000000100010010000000000000000000000F0010000008604100520160515000101 00000000000000000000000000000000000000000000000000000000000000000000000000000000000000000000000000000000000000000N 00000000000NCONT   00    00000000000          00000000000000000000000000000000000000000000 000000000000000A000000000000000000000000000000000000000000000 000000000000000000000000000000000000000     00000000                                                                                                                        000000000000000000
F0010000008604200001000001022529300011050500000000000000000201605150002001ALBERTO ALVAREZ ISAZA                             D000000000350000000000000000000000100010010000000000000000000000F0010000008604200120160515000101 00000000000000000000000000000000000000000000000000000000000000000000000000000000000000000000000000000000000000000N 00000000000NCONT   00    00000000000          00000000000000000000000000000000000000000000 000000000000000A000000000000000000000000000000000000000000000 000000000000000000000000000000000000000     00000000                                                                                                                        000000000000000000
F0010000008604200002000001022529300041450500000000000000000201605150002001ALBERTO ALVAREZ ISAZA                             C000000000350000000000000000000000100010010000000000000000000000F0010000008604200220160515000101 00000000000000000000000000000000000000000000000000000000000000000000000000000000000000000000000000000000000000000N 00000000000NCONT   00    00000000000          00000000000000000000000000000000000000000000 000000000000000A000000000000000000000000000000000000000000000 000000000000000000000000000000000000000     00000000                                                                                                                        000000000000000000
F0010000008604200003000001022529300042505000000000000000000201605150002001ALBERTO ALVAREZ ISAZA                             C000000000000000000000000000000000100010010000000000000000000000F0010000008604200320160515000101 00000000000000000000000000000000000000000000000000000000000000000000000000000000000000000000000000000000000000000N 00000000000NCONT   00    00000000000          00000000000000000000000000000000000000000000 000000000000000A000000000000000000000000000000000000000000000 000000000000000000000000000000000000000     00000000                                                                                                                        000000000000000000
F0010000008604200004000001022529300023658300000000000000000201605150002001ALBERTO ALVAREZ ISAZA                             C000000000002800000000000000000000100010010000000000000000000000F0010000008604200420160515000101 00000000000000000000000000000000000000000000000000000000000000000000000000000000000000000000000000000000000000000N 00000000000NCONT   00    00000000000          00000000000000000000000000000000000000000000 000000000000000A000000000000000000000000000000000000000000000 000000000000000000000000000000000000000     00000000                                                                                                                        000000000000000000
F0010000008604200005000001022529300013552100000000000000000201605150002001ALBERTO ALVAREZ ISAZA                             D000000000002800000000000000000000100010010000000000000000000000F0010000008604200520160515000101 00000000000000000000000000000000000000000000000000000000000000000000000000000000000000000000000000000000000000000N 00000000000NCONT   00    00000000000          00000000000000000000000000000000000000000000 000000000000000A000000000000000000000000000000000000000000000 000000000000000000000000000000000000000     00000000                                                                                                                        000000000000000000
F0010000008604300001000003207718300011050500000000000000000201605150002001MARIA GILMA RAMIREZ GARCIA                        D000000001700000000000000000000000100010010000000000000000000000F0010000008604300120160515000101 00000000000000000000000000000000000000000000000000000000000000000000000000000000000000000000000000000000000000000N 00000000000NCONT   00    00000000000          00000000000000000000000000000000000000000000 000000000000000A000000000000000000000000000000000000000000000 000000000000000000000000000000000000000     00000000                                                                                                                        000000000000000000
F0010000008604300002000003207718300041450500000000000000000201605150002001MARIA GILMA RAMIREZ GARCIA                        C000000001200000000000000000000000100010010000000000000000000000F0010000008604300220160515000101 00000000000000000000000000000000000000000000000000000000000000000000000000000000000000000000000000000000000000000N 00000000000NCONT   00    00000000000          00000000000000000000000000000000000000000000 000000000000000A000000000000000000000000000000000000000000000 000000000000000000000000000000000000000     00000000                                                                                                                        000000000000000000
F0010000008604300003000003207718300042505000000000000000000201605150002001MARIA GILMA RAMIREZ GARCIA                        C000000000500000000000000000000000100010010000000000000000000000F0010000008604300320160515000101 00000000000000000000000000000000000000000000000000000000000000000000000000000000000000000000000000000000000000000N 00000000000NCONT   00    00000000000          00000000000000000000000000000000000000000000 000000000000000A000000000000000000000000000000000000000000000 000000000000000000000000000000000000000     00000000                                                                                                                        000000000000000000
F0010000008604300004000003207718300023658300000000000000000201605150002001MARIA GILMA RAMIREZ GARCIA                        C000000000009600000000000000000000100010010000000000000000000000F0010000008604300420160515000101 00000000000000000000000000000000000000000000000000000000000000000000000000000000000000000000000000000000000000000N 00000000000NCONT   00    00000000000          00000000000000000000000000000000000000000000 000000000000000A000000000000000000000000000000000000000000000 000000000000000000000000000000000000000     00000000                                                                                                                        000000000000000000
F0010000008604300005000003207718300013552100000000000000000201605150002001MARIA GILMA RAMIREZ GARCIA                        D000000000009600000000000000000000100010010000000000000000000000F0010000008604300520160515000101 00000000000000000000000000000000000000000000000000000000000000000000000000000000000000000000000000000000000000000N 00000000000NCONT   00    00000000000          00000000000000000000000000000000000000000000 000000000000000A000000000000000000000000000000000000000000000 000000000000000000000000000000000000000     00000000                                                                                                                        000000000000000000
F0010000008604400001000007904689600011050500000000000000000201605150002001VICTOR MANUEL BOCANEGRA RAMIREZ                   D000000001100000000000000000000000100010010000000000000000000000F0010000008604400120160515000101 00000000000000000000000000000000000000000000000000000000000000000000000000000000000000000000000000000000000000000N 00000000000NCONT   00    00000000000          00000000000000000000000000000000000000000000 000000000000000A000000000000000000000000000000000000000000000 000000000000000000000000000000000000000     00000000                                                                                                                        000000000000000000
F0010000008604400002000007904689600041450500000000000000000201605150002001VICTOR MANUEL BOCANEGRA RAMIREZ                   C000000001000000000000000000000000100010010000000000000000000000F0010000008604400220160515000101 00000000000000000000000000000000000000000000000000000000000000000000000000000000000000000000000000000000000000000N 00000000000NCONT   00    00000000000          00000000000000000000000000000000000000000000 000000000000000A000000000000000000000000000000000000000000000 000000000000000000000000000000000000000     00000000                                                                                                                        000000000000000000
F0010000008604400003000007904689600042505000000000000000000201605150002001VICTOR MANUEL BOCANEGRA RAMIREZ                   C000000000100000000000000000000000100010010000000000000000000000F0010000008604400320160515000101 00000000000000000000000000000000000000000000000000000000000000000000000000000000000000000000000000000000000000000N 00000000000NCONT   00    00000000000          00000000000000000000000000000000000000000000 000000000000000A000000000000000000000000000000000000000000000 000000000000000000000000000000000000000     00000000                                                                                                                        000000000000000000
F0010000008604400004000007904689600023658300000000000000000201605150002001VICTOR MANUEL BOCANEGRA RAMIREZ                   C000000000008000000000000000000000100010010000000000000000000000F0010000008604400420160515000101 00000000000000000000000000000000000000000000000000000000000000000000000000000000000000000000000000000000000000000N 00000000000NCONT   00    00000000000          00000000000000000000000000000000000000000000 000000000000000A000000000000000000000000000000000000000000000 000000000000000000000000000000000000000     00000000                                                                                                                        000000000000000000
F0010000008604400005000007904689600013552100000000000000000201605150002001VICTOR MANUEL BOCANEGRA RAMIREZ                   D000000000008000000000000000000000100010010000000000000000000000F0010000008604400520160515000101 00000000000000000000000000000000000000000000000000000000000000000000000000000000000000000000000000000000000000000N 00000000000NCONT   00    00000000000          00000000000000000000000000000000000000000000 000000000000000A000000000000000000000000000000000000000000000 000000000000000000000000000000000000000     00000000                                                                                                                        000000000000000000
F0010000008604500001000007904689600011050500000000000000000201605150002001VICTOR MANUEL BOCANEGRA RAMIREZ                   D000000001100000000000000000000000100010010000000000000000000000F0010000008604500120160515000101 00000000000000000000000000000000000000000000000000000000000000000000000000000000000000000000000000000000000000000N 00000000000NCONT   00    00000000000          00000000000000000000000000000000000000000000 000000000000000A000000000000000000000000000000000000000000000 000000000000000000000000000000000000000     00000000                                                                                                                        000000000000000000
F0010000008604500002000007904689600041450500000000000000000201605150002001VICTOR MANUEL BOCANEGRA RAMIREZ                   C000000001000000000000000000000000100010010000000000000000000000F0010000008604500220160515000101 00000000000000000000000000000000000000000000000000000000000000000000000000000000000000000000000000000000000000000N 00000000000NCONT   00    00000000000          00000000000000000000000000000000000000000000 000000000000000A000000000000000000000000000000000000000000000 000000000000000000000000000000000000000     00000000                                                                                                                        000000000000000000
F0010000008604500003000007904689600042505000000000000000000201605150002001VICTOR MANUEL BOCANEGRA RAMIREZ                   C000000000100000000000000000000000100010010000000000000000000000F0010000008604500320160515000101 00000000000000000000000000000000000000000000000000000000000000000000000000000000000000000000000000000000000000000N 00000000000NCONT   00    00000000000          00000000000000000000000000000000000000000000 000000000000000A000000000000000000000000000000000000000000000 000000000000000000000000000000000000000     00000000                                                                                                                        000000000000000000
F0010000008604500004000007904689600023658300000000000000000201605150002001VICTOR MANUEL BOCANEGRA RAMIREZ                   C000000000008000000000000000000000100010010000000000000000000000F0010000008604500420160515000101 00000000000000000000000000000000000000000000000000000000000000000000000000000000000000000000000000000000000000000N 00000000000NCONT   00    00000000000          00000000000000000000000000000000000000000000 000000000000000A000000000000000000000000000000000000000000000 000000000000000000000000000000000000000     00000000                                                                                                                        000000000000000000
F0010000008604500005000007904689600013552100000000000000000201605150002001VICTOR MANUEL BOCANEGRA RAMIREZ                   D000000000008000000000000000000000100010010000000000000000000000F0010000008604500520160515000101 00000000000000000000000000000000000000000000000000000000000000000000000000000000000000000000000000000000000000000N 00000000000NCONT   00    00000000000          00000000000000000000000000000000000000000000 000000000000000A000000000000000000000000000000000000000000000 000000000000000000000000000000000000000     00000000                                                                                                                        000000000000000000
F0010000008604600001000002245670100011050500000000000000000201605150002001YOLANDA  TOBON                                    D000000001550000000000000000000000100010010000000000000000000000F0010000008604600120160515000101 00000000000000000000000000000000000000000000000000000000000000000000000000000000000000000000000000000000000000000N 00000000000NCONT   00    00000000000          00000000000000000000000000000000000000000000 000000000000000A000000000000000000000000000000000000000000000 000000000000000000000000000000000000000     00000000                                                                                                                        000000000000000000
F0010000008604600002000002245670100041450500000000000000000201605150002001YOLANDA  TOBON                                    C000000001300000000000000000000000100010010000000000000000000000F0010000008604600220160515000101 00000000000000000000000000000000000000000000000000000000000000000000000000000000000000000000000000000000000000000N 00000000000NCONT   00    00000000000          00000000000000000000000000000000000000000000 000000000000000A000000000000000000000000000000000000000000000 000000000000000000000000000000000000000     00000000                                                                                                                        000000000000000000
F0010000008604600003000002245670100042505000000000000000000201605150002001YOLANDA  TOBON                                    C000000000250000000000000000000000100010010000000000000000000000F0010000008604600320160515000101 00000000000000000000000000000000000000000000000000000000000000000000000000000000000000000000000000000000000000000N 00000000000NCONT   00    00000000000          00000000000000000000000000000000000000000000 000000000000000A000000000000000000000000000000000000000000000 000000000000000000000000000000000000000     00000000                                                                                                                        000000000000000000
F0010000008604600004000002245670100023658300000000000000000201605150002001YOLANDA  TOBON                                    C000000000010400000000000000000000100010010000000000000000000000F0010000008604600420160515000101 00000000000000000000000000000000000000000000000000000000000000000000000000000000000000000000000000000000000000000N 00000000000NCONT   00    00000000000          00000000000000000000000000000000000000000000 000000000000000A000000000000000000000000000000000000000000000 000000000000000000000000000000000000000     00000000                                                                                                                        000000000000000000
F0010000008604600005000002245670100013552100000000000000000201605150002001YOLANDA  TOBON                                    D000000000010400000000000000000000100010010000000000000000000000F0010000008604600520160515000101 00000000000000000000000000000000000000000000000000000000000000000000000000000000000000000000000000000000000000000N 00000000000NCONT   00    00000000000          00000000000000000000000000000000000000000000 000000000000000A000000000000000000000000000000000000000000000 000000000000000000000000000000000000000     00000000                                                                                                                        000000000000000000
F0010000008604700001000007229328500011050500000000000000000201605150002001PV ELECTRIC   DEL CARIBE                          D000000002300000000000000000000000100010010000000000000000000000F0010000008604700120160515000101 00000000000000000000000000000000000000000000000000000000000000000000000000000000000000000000000000000000000000000N 00000000000NCONT   00    00000000000          00000000000000000000000000000000000000000000 000000000000000A000000000000000000000000000000000000000000000 000000000000000000000000000000000000000     00000000                                                                                                                        000000000000000000
F0010000008604700002000007229328500041450500000000000000000201605150002001PV ELECTRIC   DEL CARIBE                          C000000002000000000000000000000000100010010000000000000000000000F0010000008604700220160515000101 00000000000000000000000000000000000000000000000000000000000000000000000000000000000000000000000000000000000000000N 00000000000NCONT   00    00000000000          00000000000000000000000000000000000000000000 000000000000000A000000000000000000000000000000000000000000000 000000000000000000000000000000000000000     00000000                                                                                                                        000000000000000000
F0010000008604700003000007229328500042505000000000000000000201605150002001PV ELECTRIC   DEL CARIBE                          C000000000300000000000000000000000100010010000000000000000000000F0010000008604700320160515000101 00000000000000000000000000000000000000000000000000000000000000000000000000000000000000000000000000000000000000000N 00000000000NCONT   00    00000000000          00000000000000000000000000000000000000000000 000000000000000A000000000000000000000000000000000000000000000 000000000000000000000000000000000000000     00000000                                                                                                                        000000000000000000
F0010000008604700004000007229328500023658300000000000000000201605150002001PV ELECTRIC   DEL CARIBE                          C000000000016000000000000000000000100010010000000000000000000000F0010000008604700420160515000101 00000000000000000000000000000000000000000000000000000000000000000000000000000000000000000000000000000000000000000N 00000000000NCONT   00    00000000000          00000000000000000000000000000000000000000000 000000000000000A000000000000000000000000000000000000000000000 000000000000000000000000000000000000000     00000000                                                                                                                        000000000000000000
F0010000008604700005000007229328500013552100000000000000000201605150002001PV ELECTRIC   DEL CARIBE                          D000000000016000000000000000000000100010010000000000000000000000F0010000008604700520160515000101 00000000000000000000000000000000000000000000000000000000000000000000000000000000000000000000000000000000000000000N 00000000000NCONT   00    00000000000          00000000000000000000000000000000000000000000 000000000000000A000000000000000000000000000000000000000000000 000000000000000000000000000000000000000     00000000                                                                                                                        000000000000000000
F0010000008604800001000001022529300011050500000000000000000201605150002001ALBERTO ALVAREZ ISAZA                             D000000005142500000000000000000000100010010000000000000000000000F0010000008604800120160515000101 00000000000000000000000000000000000000000000000000000000000000000000000000000000000000000000000000000000000000000N 00000000000NCONT   00    00000000000          00000000000000000000000000000000000000000000 000000000000000A000000000000000000000000000000000000000000000 000000000000000000000000000000000000000     00000000                                                                                                                        000000000000000000
F0010000008604800002000001022529300041450500000000000000000201605150002001ALBERTO ALVAREZ ISAZA                             C000000004500000000000000000000000100010010000000000000000000000F0010000008604800220160515000101 00000000000000000000000000000000000000000000000000000000000000000000000000000000000000000000000000000000000000000N 00000000000NCONT   00    00000000000          00000000000000000000000000000000000000000000 000000000000000A000000000000000000000000000000000000000000000 000000000000000000000000000000000000000     00000000                                                                                                                        000000000000000000
F0010000008604800003000001022529300042505000000000000000000201605150002001ALBERTO ALVAREZ ISAZA                             C000000000642500000000000000000000100010010000000000000000000000F0010000008604800320160515000101 00000000000000000000000000000000000000000000000000000000000000000000000000000000000000000000000000000000000000000N 00000000000NCONT   00    00000000000          00000000000000000000000000000000000000000000 000000000000000A000000000000000000000000000000000000000000000 000000000000000000000000000000000000000     00000000                                                                                                                        000000000000000000
F0010000008604800004000001022529300023658300000000000000000201605150002001ALBERTO ALVAREZ ISAZA                             C000000000036000000000000000000000100010010000000000000000000000F0010000008604800420160515000101 00000000000000000000000000000000000000000000000000000000000000000000000000000000000000000000000000000000000000000N 00000000000NCONT   00    00000000000          00000000000000000000000000000000000000000000 000000000000000A000000000000000000000000000000000000000000000 000000000000000000000000000000000000000     00000000                                                                                                                        000000000000000000
F0010000008604800005000001022529300013552100000000000000000201605150002001ALBERTO ALVAREZ ISAZA                             D000000000036000000000000000000000100010010000000000000000000000F0010000008604800520160515000101 00000000000000000000000000000000000000000000000000000000000000000000000000000000000000000000000000000000000000000N 00000000000NCONT   00    00000000000          00000000000000000000000000000000000000000000 000000000000000A000000000000000000000000000000000000000000000 000000000000000000000000000000000000000     00000000                                                                                                                        000000000000000000
F0010000008604900001000090087846000011050500000000000000000201605150002001INTERCOMERCIAL DL SAS                             D000000002700000000000000000000000100010010000000000000000000000F0010000008604900120160515000101 00000000000000000000000000000000000000000000000000000000000000000000000000000000000000000000000000000000000000000N 00000000000NCONT   00    00000000000          00000000000000000000000000000000000000000000 000000000000000A000000000000000000000000000000000000000000000 000000000000000000000000000000000000000     00000000                                                                                                                        000000000000000000
F0010000008604900002000090087846000041450500000000000000000201605150002001INTERCOMERCIAL DL SAS                             C000000002600000000000000000000000100010010000000000000000000000F0010000008604900220160515000101 00000000000000000000000000000000000000000000000000000000000000000000000000000000000000000000000000000000000000000N 00000000000NCONT   00    00000000000          00000000000000000000000000000000000000000000 000000000000000A000000000000000000000000000000000000000000000 000000000000000000000000000000000000000     00000000                                                                                                                        000000000000000000
F0010000008604900003000090087846000042505000000000000000000201605150002001INTERCOMERCIAL DL SAS                             C000000000100000000000000000000000100010010000000000000000000000F0010000008604900320160515000101 00000000000000000000000000000000000000000000000000000000000000000000000000000000000000000000000000000000000000000N 00000000000NCONT   00    00000000000          00000000000000000000000000000000000000000000 000000000000000A000000000000000000000000000000000000000000000 000000000000000000000000000000000000000     00000000                                                                                                                        000000000000000000
F0010000008604900004000090087846000023658300000000000000000201605150002001INTERCOMERCIAL DL SAS                             C000000000020800000000000000000000100010010000000000000000000000F0010000008604900420160515000101 00000000000000000000000000000000000000000000000000000000000000000000000000000000000000000000000000000000000000000N 00000000000NCONT   00    00000000000          00000000000000000000000000000000000000000000 000000000000000A000000000000000000000000000000000000000000000 000000000000000000000000000000000000000     00000000                                                                                                                        000000000000000000
F0010000008604900005000090087846000013552100000000000000000201605150002001INTERCOMERCIAL DL SAS                             D000000000020800000000000000000000100010010000000000000000000000F0010000008604900520160515000101 00000000000000000000000000000000000000000000000000000000000000000000000000000000000000000000000000000000000000000N 00000000000NCONT   00    00000000000          00000000000000000000000000000000000000000000 000000000000000A000000000000000000000000000000000000000000000 000000000000000000000000000000000000000     00000000                                                                                                                        000000000000000000
F0010000008605000001000090007142100011050500000000000000000201605150002001TODO BELLEZA Y MAX S.A.S                          D000000007850000000000000000000000100010010000000000000000000000F0010000008605000120160515000101 00000000000000000000000000000000000000000000000000000000000000000000000000000000000000000000000000000000000000000N 00000000000NCONT   00    00000000000          00000000000000000000000000000000000000000000 000000000000000A000000000000000000000000000000000000000000000 000000000000000000000000000000000000000     00000000                                                                                                                        000000000000000000
F0010000008605000002000090007142100041450500000000000000000201605150002001TODO BELLEZA Y MAX S.A.S                          C000000007700000000000000000000000100010010000000000000000000000F0010000008605000220160515000101 00000000000000000000000000000000000000000000000000000000000000000000000000000000000000000000000000000000000000000N 00000000000NCONT   00    00000000000          00000000000000000000000000000000000000000000 000000000000000A000000000000000000000000000000000000000000000 000000000000000000000000000000000000000     00000000                                                                                                                        000000000000000000
F0010000008605000003000090007142100042505000000000000000000201605150002001TODO BELLEZA Y MAX S.A.S                          C000000000150000000000000000000000100010010000000000000000000000F0010000008605000320160515000101 00000000000000000000000000000000000000000000000000000000000000000000000000000000000000000000000000000000000000000N 00000000000NCONT   00    00000000000          00000000000000000000000000000000000000000000 000000000000000A000000000000000000000000000000000000000000000 000000000000000000000000000000000000000     00000000                                                                                                                        000000000000000000
F0010000008605000004000090007142100023658300000000000000000201605150002001TODO BELLEZA Y MAX S.A.S                          C000000000061600000000000000000000100010010000000000000000000000F0010000008605000420160515000101 00000000000000000000000000000000000000000000000000000000000000000000000000000000000000000000000000000000000000000N 00000000000NCONT   00    00000000000          00000000000000000000000000000000000000000000 000000000000000A000000000000000000000000000000000000000000000 000000000000000000000000000000000000000     00000000                                                                                                                        000000000000000000
F0010000008605000005000090007142100013552100000000000000000201605150002001TODO BELLEZA Y MAX S.A.S                          D000000000061600000000000000000000100010010000000000000000000000F0010000008605000520160515000101 00000000000000000000000000000000000000000000000000000000000000000000000000000000000000000000000000000000000000000N 00000000000NCONT   00    00000000000          00000000000000000000000000000000000000000000 000000000000000A000000000000000000000000000000000000000000000 000000000000000000000000000000000000000     00000000                                                                                                                        000000000000000000
F0010000008605100001000090007142100011050500000000000000000201605150002001TODO BELLEZA Y MAX S.A.S                          D000000002250000000000000000000000100010010000000000000000000000F0010000008605100120160515000101 00000000000000000000000000000000000000000000000000000000000000000000000000000000000000000000000000000000000000000N 00000000000NCONT   00    00000000000          00000000000000000000000000000000000000000000 000000000000000A000000000000000000000000000000000000000000000 000000000000000000000000000000000000000     00000000                                                                                                                        000000000000000000
F0010000008605100002000090007142100041450500000000000000000201605150002001TODO BELLEZA Y MAX S.A.S                          C000000002200000000000000000000000100010010000000000000000000000F0010000008605100220160515000101 00000000000000000000000000000000000000000000000000000000000000000000000000000000000000000000000000000000000000000N 00000000000NCONT   00    00000000000          00000000000000000000000000000000000000000000 000000000000000A000000000000000000000000000000000000000000000 000000000000000000000000000000000000000     00000000                                                                                                                        000000000000000000
F0010000008605100003000090007142100042505000000000000000000201605150002001TODO BELLEZA Y MAX S.A.S                          C000000000050000000000000000000000100010010000000000000000000000F0010000008605100320160515000101 00000000000000000000000000000000000000000000000000000000000000000000000000000000000000000000000000000000000000000N 00000000000NCONT   00    00000000000          00000000000000000000000000000000000000000000 000000000000000A000000000000000000000000000000000000000000000 000000000000000000000000000000000000000     00000000                                                                                                                        000000000000000000
F0010000008605100004000090007142100023658300000000000000000201605150002001TODO BELLEZA Y MAX S.A.S                          C000000000017600000000000000000000100010010000000000000000000000F0010000008605100420160515000101 00000000000000000000000000000000000000000000000000000000000000000000000000000000000000000000000000000000000000000N 00000000000NCONT   00    00000000000          00000000000000000000000000000000000000000000 000000000000000A000000000000000000000000000000000000000000000 000000000000000000000000000000000000000     00000000                                                                                                                        000000000000000000
F0010000008605100005000090007142100013552100000000000000000201605150002001TODO BELLEZA Y MAX S.A.S                          D000000000017600000000000000000000100010010000000000000000000000F0010000008605100520160515000101 00000000000000000000000000000000000000000000000000000000000000000000000000000000000000000000000000000000000000000N 00000000000NCONT   00    00000000000          00000000000000000000000000000000000000000000 000000000000000A000000000000000000000000000000000000000000000 000000000000000000000000000000000000000     00000000                                                                                                                        000000000000000000
