F0010000008956400001000007218448100011050500000000000000000201608080002001MARIANO SARABIA                                   D000000001920000000000000000000000100010010000000000000000000000F0010000008956400120160808000101 00000000000000000000000000000000000000000000000000000000000000000000000000000000000000000000000000000000000000000N 00000000000NCONT   00    00000000000          00000000000000000000000000000000000000000000 000000000000000A000000000000000000000000000000000000000000000 000000000000000000000000000000000000000     00000000                                                                                                                        000000000000000000
F0010000008956400002000007218448100041450500000000000000000201608080002001MARIANO SARABIA                                   C000000001200000000000000000000000100010010000000000000000000000F0010000008956400220160808000101 00000000000000000000000000000000000000000000000000000000000000000000000000000000000000000000000000000000000000000N 00000000000NCONT   00    00000000000          00000000000000000000000000000000000000000000 000000000000000A000000000000000000000000000000000000000000000 000000000000000000000000000000000000000     00000000                                                                                                                        000000000000000000
F0010000008956400003000007218448100042505000000000000000000201608080002001MARIANO SARABIA                                   C000000000720000000000000000000000100010010000000000000000000000F0010000008956400320160808000101 00000000000000000000000000000000000000000000000000000000000000000000000000000000000000000000000000000000000000000N 00000000000NCONT   00    00000000000          00000000000000000000000000000000000000000000 000000000000000A000000000000000000000000000000000000000000000 000000000000000000000000000000000000000     00000000                                                                                                                        000000000000000000
F0010000008956400004000007218448100023658300000000000000000201608080002001MARIANO SARABIA                                   C000000000009600000000000000000000100010010000000000000000000000F0010000008956400420160808000101 00000000000000000000000000000000000000000000000000000000000000000000000000000000000000000000000000000000000000000N 00000000000NCONT   00    00000000000          00000000000000000000000000000000000000000000 000000000000000A000000000000000000000000000000000000000000000 000000000000000000000000000000000000000     00000000                                                                                                                        000000000000000000
F0010000008956400005000007218448100013552100000000000000000201608080002001MARIANO SARABIA                                   D000000000009600000000000000000000100010010000000000000000000000F0010000008956400520160808000101 00000000000000000000000000000000000000000000000000000000000000000000000000000000000000000000000000000000000000000N 00000000000NCONT   00    00000000000          00000000000000000000000000000000000000000000 000000000000000A000000000000000000000000000000000000000000000 000000000000000000000000000000000000000     00000000                                                                                                                        000000000000000000
F0010000008956500001000007218448100011050500000000000000000201608080002001MARIANO SARABIA                                   D000000002280000000000000000000000100010010000000000000000000000F0010000008956500120160808000101 00000000000000000000000000000000000000000000000000000000000000000000000000000000000000000000000000000000000000000N 00000000000NCONT   00    00000000000          00000000000000000000000000000000000000000000 000000000000000A000000000000000000000000000000000000000000000 000000000000000000000000000000000000000     00000000                                                                                                                        000000000000000000
F0010000008956500002000007218448100041450500000000000000000201608080002001MARIANO SARABIA                                   C000000001200000000000000000000000100010010000000000000000000000F0010000008956500220160808000101 00000000000000000000000000000000000000000000000000000000000000000000000000000000000000000000000000000000000000000N 00000000000NCONT   00    00000000000          00000000000000000000000000000000000000000000 000000000000000A000000000000000000000000000000000000000000000 000000000000000000000000000000000000000     00000000                                                                                                                        000000000000000000
F0010000008956500003000007218448100042505000000000000000000201608080002001MARIANO SARABIA                                   C000000001080000000000000000000000100010010000000000000000000000F0010000008956500320160808000101 00000000000000000000000000000000000000000000000000000000000000000000000000000000000000000000000000000000000000000N 00000000000NCONT   00    00000000000          00000000000000000000000000000000000000000000 000000000000000A000000000000000000000000000000000000000000000 000000000000000000000000000000000000000     00000000                                                                                                                        000000000000000000
F0010000008956500004000007218448100023658300000000000000000201608080002001MARIANO SARABIA                                   C000000000009600000000000000000000100010010000000000000000000000F0010000008956500420160808000101 00000000000000000000000000000000000000000000000000000000000000000000000000000000000000000000000000000000000000000N 00000000000NCONT   00    00000000000          00000000000000000000000000000000000000000000 000000000000000A000000000000000000000000000000000000000000000 000000000000000000000000000000000000000     00000000                                                                                                                        000000000000000000
F0010000008956500005000007218448100013552100000000000000000201608080002001MARIANO SARABIA                                   D000000000009600000000000000000000100010010000000000000000000000F0010000008956500520160808000101 00000000000000000000000000000000000000000000000000000000000000000000000000000000000000000000000000000000000000000N 00000000000NCONT   00    00000000000          00000000000000000000000000000000000000000000 000000000000000A000000000000000000000000000000000000000000000 000000000000000000000000000000000000000     00000000                                                                                                                        000000000000000000
F0010000008956600001000090091197500011050500000000000000000201608080002001SOFTTEX FEMSA S.A.S.                              D000000002000000000000000000000000100010010000000000000000000000F0010000008956600120160808000101 00000000000000000000000000000000000000000000000000000000000000000000000000000000000000000000000000000000000000000N 00000000000NCONT   00    00000000000          00000000000000000000000000000000000000000000 000000000000000A000000000000000000000000000000000000000000000 000000000000000000000000000000000000000     00000000                                                                                                                        000000000000000000
F0010000008956600002000090091197500041450500000000000000000201608080002001SOFTTEX FEMSA S.A.S.                              C000000001880000000000000000000000100010010000000000000000000000F0010000008956600220160808000101 00000000000000000000000000000000000000000000000000000000000000000000000000000000000000000000000000000000000000000N 00000000000NCONT   00    00000000000          00000000000000000000000000000000000000000000 000000000000000A000000000000000000000000000000000000000000000 000000000000000000000000000000000000000     00000000                                                                                                                        000000000000000000
F0010000008956600003000090091197500042505000000000000000000201608080002001SOFTTEX FEMSA S.A.S.                              C000000000120000000000000000000000100010010000000000000000000000F0010000008956600320160808000101 00000000000000000000000000000000000000000000000000000000000000000000000000000000000000000000000000000000000000000N 00000000000NCONT   00    00000000000          00000000000000000000000000000000000000000000 000000000000000A000000000000000000000000000000000000000000000 000000000000000000000000000000000000000     00000000                                                                                                                        000000000000000000
F0010000008956600004000090091197500023658300000000000000000201608080002001SOFTTEX FEMSA S.A.S.                              C000000000015000000000000000000000100010010000000000000000000000F0010000008956600420160808000101 00000000000000000000000000000000000000000000000000000000000000000000000000000000000000000000000000000000000000000N 00000000000NCONT   00    00000000000          00000000000000000000000000000000000000000000 000000000000000A000000000000000000000000000000000000000000000 000000000000000000000000000000000000000     00000000                                                                                                                        000000000000000000
F0010000008956600005000090091197500013552100000000000000000201608080002001SOFTTEX FEMSA S.A.S.                              D000000000015000000000000000000000100010010000000000000000000000F0010000008956600520160808000101 00000000000000000000000000000000000000000000000000000000000000000000000000000000000000000000000000000000000000000N 00000000000NCONT   00    00000000000          00000000000000000000000000000000000000000000 000000000000000A000000000000000000000000000000000000000000000 000000000000000000000000000000000000000     00000000                                                                                                                        000000000000000000
F0010000008956700001000003207718300011050500000000000000000201608080002001MARIA GILMA RAMIREZ GARCIA                        D000000007000000000000000000000000100010010000000000000000000000F0010000008956700120160808000101 00000000000000000000000000000000000000000000000000000000000000000000000000000000000000000000000000000000000000000N 00000000000NCONT   00    00000000000          00000000000000000000000000000000000000000000 000000000000000A000000000000000000000000000000000000000000000 000000000000000000000000000000000000000     00000000                                                                                                                        000000000000000000
F0010000008956700002000003207718300041450500000000000000000201608080002001MARIA GILMA RAMIREZ GARCIA                        C000000006100000000000000000000000100010010000000000000000000000F0010000008956700220160808000101 00000000000000000000000000000000000000000000000000000000000000000000000000000000000000000000000000000000000000000N 00000000000NCONT   00    00000000000          00000000000000000000000000000000000000000000 000000000000000A000000000000000000000000000000000000000000000 000000000000000000000000000000000000000     00000000                                                                                                                        000000000000000000
F0010000008956700003000003207718300042505000000000000000000201608080002001MARIA GILMA RAMIREZ GARCIA                        C000000000900000000000000000000000100010010000000000000000000000F0010000008956700320160808000101 00000000000000000000000000000000000000000000000000000000000000000000000000000000000000000000000000000000000000000N 00000000000NCONT   00    00000000000          00000000000000000000000000000000000000000000 000000000000000A000000000000000000000000000000000000000000000 000000000000000000000000000000000000000     00000000                                                                                                                        000000000000000000
F0010000008956700004000003207718300023658300000000000000000201608080002001MARIA GILMA RAMIREZ GARCIA                        C000000000048800000000000000000000100010010000000000000000000000F0010000008956700420160808000101 00000000000000000000000000000000000000000000000000000000000000000000000000000000000000000000000000000000000000000N 00000000000NCONT   00    00000000000          00000000000000000000000000000000000000000000 000000000000000A000000000000000000000000000000000000000000000 000000000000000000000000000000000000000     00000000                                                                                                                        000000000000000000
F0010000008956700005000003207718300013552100000000000000000201608080002001MARIA GILMA RAMIREZ GARCIA                        D000000000048800000000000000000000100010010000000000000000000000F0010000008956700520160808000101 00000000000000000000000000000000000000000000000000000000000000000000000000000000000000000000000000000000000000000N 00000000000NCONT   00    00000000000          00000000000000000000000000000000000000000000 000000000000000A000000000000000000000000000000000000000000000 000000000000000000000000000000000000000     00000000                                                                                                                        000000000000000000
F0010000008956800001000003207718300011050500000000000000000201608080002001MARIA GILMA RAMIREZ GARCIA                        D000000003000000000000000000000000100010010000000000000000000000F0010000008956800120160808000101 00000000000000000000000000000000000000000000000000000000000000000000000000000000000000000000000000000000000000000N 00000000000NCONT   00    00000000000          00000000000000000000000000000000000000000000 000000000000000A000000000000000000000000000000000000000000000 000000000000000000000000000000000000000     00000000                                                                                                                        000000000000000000
F0010000008956800002000003207718300041450500000000000000000201608080002001MARIA GILMA RAMIREZ GARCIA                        C000000002200000000000000000000000100010010000000000000000000000F0010000008956800220160808000101 00000000000000000000000000000000000000000000000000000000000000000000000000000000000000000000000000000000000000000N 00000000000NCONT   00    00000000000          00000000000000000000000000000000000000000000 000000000000000A000000000000000000000000000000000000000000000 000000000000000000000000000000000000000     00000000                                                                                                                        000000000000000000
F0010000008956800003000003207718300042505000000000000000000201608080002001MARIA GILMA RAMIREZ GARCIA                        C000000000800000000000000000000000100010010000000000000000000000F0010000008956800320160808000101 00000000000000000000000000000000000000000000000000000000000000000000000000000000000000000000000000000000000000000N 00000000000NCONT   00    00000000000          00000000000000000000000000000000000000000000 000000000000000A000000000000000000000000000000000000000000000 000000000000000000000000000000000000000     00000000                                                                                                                        000000000000000000
F0010000008956800004000003207718300023658300000000000000000201608080002001MARIA GILMA RAMIREZ GARCIA                        C000000000017600000000000000000000100010010000000000000000000000F0010000008956800420160808000101 00000000000000000000000000000000000000000000000000000000000000000000000000000000000000000000000000000000000000000N 00000000000NCONT   00    00000000000          00000000000000000000000000000000000000000000 000000000000000A000000000000000000000000000000000000000000000 000000000000000000000000000000000000000     00000000                                                                                                                        000000000000000000
F0010000008956800005000003207718300013552100000000000000000201608080002001MARIA GILMA RAMIREZ GARCIA                        D000000000017600000000000000000000100010010000000000000000000000F0010000008956800520160808000101 00000000000000000000000000000000000000000000000000000000000000000000000000000000000000000000000000000000000000000N 00000000000NCONT   00    00000000000          00000000000000000000000000000000000000000000 000000000000000A000000000000000000000000000000000000000000000 000000000000000000000000000000000000000     00000000                                                                                                                        000000000000000000
F0010000008956900001000090029584600011050500000000000000000201608080002001TQM DISTRIBUCIONES SAS                            D000000002100000000000000000000000100010010000000000000000000000F0010000008956900120160808000101 00000000000000000000000000000000000000000000000000000000000000000000000000000000000000000000000000000000000000000N 00000000000NCONT   00    00000000000          00000000000000000000000000000000000000000000 000000000000000A000000000000000000000000000000000000000000000 000000000000000000000000000000000000000     00000000                                                                                                                        000000000000000000
F0010000008956900002000090029584600041450500000000000000000201608080002001TQM DISTRIBUCIONES SAS                            C000000001500000000000000000000000100010010000000000000000000000F0010000008956900220160808000101 00000000000000000000000000000000000000000000000000000000000000000000000000000000000000000000000000000000000000000N 00000000000NCONT   00    00000000000          00000000000000000000000000000000000000000000 000000000000000A000000000000000000000000000000000000000000000 000000000000000000000000000000000000000     00000000                                                                                                                        000000000000000000
F0010000008956900003000090029584600042505000000000000000000201608080002001TQM DISTRIBUCIONES SAS                            C000000000600000000000000000000000100010010000000000000000000000F0010000008956900320160808000101 00000000000000000000000000000000000000000000000000000000000000000000000000000000000000000000000000000000000000000N 00000000000NCONT   00    00000000000          00000000000000000000000000000000000000000000 000000000000000A000000000000000000000000000000000000000000000 000000000000000000000000000000000000000     00000000                                                                                                                        000000000000000000
F0010000008956900004000090029584600023658300000000000000000201608080002001TQM DISTRIBUCIONES SAS                            C000000000012000000000000000000000100010010000000000000000000000F0010000008956900420160808000101 00000000000000000000000000000000000000000000000000000000000000000000000000000000000000000000000000000000000000000N 00000000000NCONT   00    00000000000          00000000000000000000000000000000000000000000 000000000000000A000000000000000000000000000000000000000000000 000000000000000000000000000000000000000     00000000                                                                                                                        000000000000000000
F0010000008956900005000090029584600013552100000000000000000201608080002001TQM DISTRIBUCIONES SAS                            D000000000012000000000000000000000100010010000000000000000000000F0010000008956900520160808000101 00000000000000000000000000000000000000000000000000000000000000000000000000000000000000000000000000000000000000000N 00000000000NCONT   00    00000000000          00000000000000000000000000000000000000000000 000000000000000A000000000000000000000000000000000000000000000 000000000000000000000000000000000000000     00000000                                                                                                                        000000000000000000
F0010000008957000001000090035510100013050500000000000000000201608080002001GRAINGER COLOMBIA S.A.S.                          D000000058590800000000000000000000100010010000000000000000000000F0010000008957000120160808000101 00000000000000000000000000000000000000000000000000000000000000000000000000000000000000000000000000000000000000000N 00000000000NCONT   00    00000000000          00000000000000000000000000000000000000000000 000000000000000A000000000000000000000000000000000000000000000 000000000000000000000000000000000000000     00000000                                                                                                                        000000000000000000
F0010000008957000002000090035510100041450500000000000000000201608080002001GRAINGER COLOMBIA S.A.S.                          C000000035917000000000000000000000100010010000000000000000000000F0010000008957000220160808000101 00000000000000000000000000000000000000000000000000000000000000000000000000000000000000000000000000000000000000000N 00000000000NCONT   00    00000000000          00000000000000000000000000000000000000000000 000000000000000A000000000000000000000000000000000000000000000 000000000000000000000000000000000000000     00000000                                                                                                                        000000000000000000
F0010000008957000003000090035510100042505000000000000000000201608080002001GRAINGER COLOMBIA S.A.S.                          C000000022673800000000000000000000100010010000000000000000000000F0010000008957000320160808000101 00000000000000000000000000000000000000000000000000000000000000000000000000000000000000000000000000000000000000000N 00000000000NCONT   00    00000000000          00000000000000000000000000000000000000000000 000000000000000A000000000000000000000000000000000000000000000 000000000000000000000000000000000000000     00000000                                                                                                                        000000000000000000
F0010000008957000004000090035510100023658300000000000000000201608080002001GRAINGER COLOMBIA S.A.S.                          C000000000287300000000000000000000100010010000000000000000000000F0010000008957000420160808000101 00000000000000000000000000000000000000000000000000000000000000000000000000000000000000000000000000000000000000000N 00000000000NCONT   00    00000000000          00000000000000000000000000000000000000000000 000000000000000A000000000000000000000000000000000000000000000 000000000000000000000000000000000000000     00000000                                                                                                                        000000000000000000
F0010000008957000005000090035510100013552100000000000000000201608080002001GRAINGER COLOMBIA S.A.S.                          D000000000287300000000000000000000100010010000000000000000000000F0010000008957000520160808000101 00000000000000000000000000000000000000000000000000000000000000000000000000000000000000000000000000000000000000000N 00000000000NCONT   00    00000000000          00000000000000000000000000000000000000000000 000000000000000A000000000000000000000000000000000000000000000 000000000000000000000000000000000000000     00000000                                                                                                                        000000000000000000
F0010000008957100001000080016665600013050500000000000000000201608080002001SUMICAL DE ANTIOQUIA S.A.S                        D000000035135100000000000000000000100010010000000000000000000000F0010000008957100120160808000101 00000000000000000000000000000000000000000000000000000000000000000000000000000000000000000000000000000000000000000N 00000000000NCONT   00    00000000000          00000000000000000000000000000000000000000000 000000000000000A000000000000000000000000000000000000000000000 000000000000000000000000000000000000000     00000000                                                                                                                        000000000000000000
F0010000008957100002000080016665600041450500000000000000000201608080002001SUMICAL DE ANTIOQUIA S.A.S                        C000000029630000000000000000000000100010010000000000000000000000F0010000008957100220160808000101 00000000000000000000000000000000000000000000000000000000000000000000000000000000000000000000000000000000000000000N 00000000000NCONT   00    00000000000          00000000000000000000000000000000000000000000 000000000000000A000000000000000000000000000000000000000000000 000000000000000000000000000000000000000     00000000                                                                                                                        000000000000000000
F0010000008957100003000080016665600042505000000000000000000201608080002001SUMICAL DE ANTIOQUIA S.A.S                        C000000005505100000000000000000000100010010000000000000000000000F0010000008957100320160808000101 00000000000000000000000000000000000000000000000000000000000000000000000000000000000000000000000000000000000000000N 00000000000NCONT   00    00000000000          00000000000000000000000000000000000000000000 000000000000000A000000000000000000000000000000000000000000000 000000000000000000000000000000000000000     00000000                                                                                                                        000000000000000000
F0010000008957100004000080016665600023658300000000000000000201608080002001SUMICAL DE ANTIOQUIA S.A.S                        C000000000237000000000000000000000100010010000000000000000000000F0010000008957100420160808000101 00000000000000000000000000000000000000000000000000000000000000000000000000000000000000000000000000000000000000000N 00000000000NCONT   00    00000000000          00000000000000000000000000000000000000000000 000000000000000A000000000000000000000000000000000000000000000 000000000000000000000000000000000000000     00000000                                                                                                                        000000000000000000
F0010000008957100005000080016665600013552100000000000000000201608080002001SUMICAL DE ANTIOQUIA S.A.S                        D000000000237000000000000000000000100010010000000000000000000000F0010000008957100520160808000101 00000000000000000000000000000000000000000000000000000000000000000000000000000000000000000000000000000000000000000N 00000000000NCONT   00    00000000000          00000000000000000000000000000000000000000000 000000000000000A000000000000000000000000000000000000000000000 000000000000000000000000000000000000000     00000000                                                                                                                        000000000000000000
F0010000008957200001000000376399500013050500000000000000000201608080002001FORDPLAST                                         D000000002950000000000000000000000100010010000000000000000000000F0010000008957200120160808000101 00000000000000000000000000000000000000000000000000000000000000000000000000000000000000000000000000000000000000000N 00000000000NCONT   00    00000000000          00000000000000000000000000000000000000000000 000000000000000A000000000000000000000000000000000000000000000 000000000000000000000000000000000000000     00000000                                                                                                                        000000000000000000
F0010000008957200002000000376399500041450500000000000000000201608080002001FORDPLAST                                         C000000002250000000000000000000000100010010000000000000000000000F0010000008957200220160808000101 00000000000000000000000000000000000000000000000000000000000000000000000000000000000000000000000000000000000000000N 00000000000NCONT   00    00000000000          00000000000000000000000000000000000000000000 000000000000000A000000000000000000000000000000000000000000000 000000000000000000000000000000000000000     00000000                                                                                                                        000000000000000000
F0010000008957200003000000376399500042505000000000000000000201608080002001FORDPLAST                                         C000000000700000000000000000000000100010010000000000000000000000F0010000008957200320160808000101 00000000000000000000000000000000000000000000000000000000000000000000000000000000000000000000000000000000000000000N 00000000000NCONT   00    00000000000          00000000000000000000000000000000000000000000 000000000000000A000000000000000000000000000000000000000000000 000000000000000000000000000000000000000     00000000                                                                                                                        000000000000000000
F0010000008957200004000000376399500023658300000000000000000201608080002001FORDPLAST                                         C000000000018000000000000000000000100010010000000000000000000000F0010000008957200420160808000101 00000000000000000000000000000000000000000000000000000000000000000000000000000000000000000000000000000000000000000N 00000000000NCONT   00    00000000000          00000000000000000000000000000000000000000000 000000000000000A000000000000000000000000000000000000000000000 000000000000000000000000000000000000000     00000000                                                                                                                        000000000000000000
F0010000008957200005000000376399500013552100000000000000000201608080002001FORDPLAST                                         D000000000018000000000000000000000100010010000000000000000000000F0010000008957200520160808000101 00000000000000000000000000000000000000000000000000000000000000000000000000000000000000000000000000000000000000000N 00000000000NCONT   00    00000000000          00000000000000000000000000000000000000000000 000000000000000A000000000000000000000000000000000000000000000 000000000000000000000000000000000000000     00000000                                                                                                                        000000000000000000
F0010000008957300001000080200962900013050500000000000000000201608080002001ACERO & MALLAS S.A.S.                             D000000014740200000000000000000000100010010000000000000000000000F0010000008957300120160808000101 00000000000000000000000000000000000000000000000000000000000000000000000000000000000000000000000000000000000000000N 00000000000NCONT   00    00000000000          00000000000000000000000000000000000000000000 000000000000000A000000000000000000000000000000000000000000000 000000000000000000000000000000000000000     00000000                                                                                                                        000000000000000000
F0010000008957300002000080200962900041450500000000000000000201608080002001ACERO & MALLAS S.A.S.                             C000000010640000000000000000000000100010010000000000000000000000F0010000008957300220160808000101 00000000000000000000000000000000000000000000000000000000000000000000000000000000000000000000000000000000000000000N 00000000000NCONT   00    00000000000          00000000000000000000000000000000000000000000 000000000000000A000000000000000000000000000000000000000000000 000000000000000000000000000000000000000     00000000                                                                                                                        000000000000000000
F0010000008957300003000080200962900042505000000000000000000201608080002001ACERO & MALLAS S.A.S.                             C000000004100200000000000000000000100010010000000000000000000000F0010000008957300320160808000101 00000000000000000000000000000000000000000000000000000000000000000000000000000000000000000000000000000000000000000N 00000000000NCONT   00    00000000000          00000000000000000000000000000000000000000000 000000000000000A000000000000000000000000000000000000000000000 000000000000000000000000000000000000000     00000000                                                                                                                        000000000000000000
F0010000008957300004000080200962900023658300000000000000000201608080002001ACERO & MALLAS S.A.S.                             C000000000085100000000000000000000100010010000000000000000000000F0010000008957300420160808000101 00000000000000000000000000000000000000000000000000000000000000000000000000000000000000000000000000000000000000000N 00000000000NCONT   00    00000000000          00000000000000000000000000000000000000000000 000000000000000A000000000000000000000000000000000000000000000 000000000000000000000000000000000000000     00000000                                                                                                                        000000000000000000
F0010000008957300005000080200962900013552100000000000000000201608080002001ACERO & MALLAS S.A.S.                             D000000000085100000000000000000000100010010000000000000000000000F0010000008957300520160808000101 00000000000000000000000000000000000000000000000000000000000000000000000000000000000000000000000000000000000000000N 00000000000NCONT   00    00000000000          00000000000000000000000000000000000000000000 000000000000000A000000000000000000000000000000000000000000000 000000000000000000000000000000000000000     00000000                                                                                                                        000000000000000000
F0010000008957400001000090009800500013050500000000000000000201608080002001GLORIANT CHEMICHALS DE COLOMBIA LTDA              D000000009179000000000000000000000100010010000000000000000000000F0010000008957400120160808000101 00000000000000000000000000000000000000000000000000000000000000000000000000000000000000000000000000000000000000000N 00000000000NCONT   00    00000000000          00000000000000000000000000000000000000000000 000000000000000A000000000000000000000000000000000000000000000 000000000000000000000000000000000000000     00000000                                                                                                                        000000000000000000
F0010000008957400002000090009800500041450500000000000000000201608080002001GLORIANT CHEMICHALS DE COLOMBIA LTDA              C000000007060000000000000000000000100010010000000000000000000000F0010000008957400220160808000101 00000000000000000000000000000000000000000000000000000000000000000000000000000000000000000000000000000000000000000N 00000000000NCONT   00    00000000000          00000000000000000000000000000000000000000000 000000000000000A000000000000000000000000000000000000000000000 000000000000000000000000000000000000000     00000000                                                                                                                        000000000000000000
F0010000008957400003000090009800500042505000000000000000000201608080002001GLORIANT CHEMICHALS DE COLOMBIA LTDA              C000000002119000000000000000000000100010010000000000000000000000F0010000008957400320160808000101 00000000000000000000000000000000000000000000000000000000000000000000000000000000000000000000000000000000000000000N 00000000000NCONT   00    00000000000          00000000000000000000000000000000000000000000 000000000000000A000000000000000000000000000000000000000000000 000000000000000000000000000000000000000     00000000                                                                                                                        000000000000000000
F0010000008957400004000090009800500023658300000000000000000201608080002001GLORIANT CHEMICHALS DE COLOMBIA LTDA              C000000000056500000000000000000000100010010000000000000000000000F0010000008957400420160808000101 00000000000000000000000000000000000000000000000000000000000000000000000000000000000000000000000000000000000000000N 00000000000NCONT   00    00000000000          00000000000000000000000000000000000000000000 000000000000000A000000000000000000000000000000000000000000000 000000000000000000000000000000000000000     00000000                                                                                                                        000000000000000000
F0010000008957400005000090009800500013552100000000000000000201608080002001GLORIANT CHEMICHALS DE COLOMBIA LTDA              D000000000056500000000000000000000100010010000000000000000000000F0010000008957400520160808000101 00000000000000000000000000000000000000000000000000000000000000000000000000000000000000000000000000000000000000000N 00000000000NCONT   00    00000000000          00000000000000000000000000000000000000000000 000000000000000A000000000000000000000000000000000000000000000 000000000000000000000000000000000000000     00000000                                                                                                                        000000000000000000
F0010000008957500001000090064337300013050500000000000000000201608080002001DISCOMERCIAL TEXTIL DEL CARIBE SAS                D000000005090000000000000000000000100010010000000000000000000000F0010000008957500120160808000101 00000000000000000000000000000000000000000000000000000000000000000000000000000000000000000000000000000000000000000N 00000000000NCONT   00    00000000000          00000000000000000000000000000000000000000000 000000000000000A000000000000000000000000000000000000000000000 000000000000000000000000000000000000000     00000000                                                                                                                        000000000000000000
F0010000008957500002000090064337300041450500000000000000000201608080002001DISCOMERCIAL TEXTIL DEL CARIBE SAS                C000000004500000000000000000000000100010010000000000000000000000F0010000008957500220160808000101 00000000000000000000000000000000000000000000000000000000000000000000000000000000000000000000000000000000000000000N 00000000000NCONT   00    00000000000          00000000000000000000000000000000000000000000 000000000000000A000000000000000000000000000000000000000000000 000000000000000000000000000000000000000     00000000                                                                                                                        000000000000000000
F0010000008957500003000090064337300042505000000000000000000201608080002001DISCOMERCIAL TEXTIL DEL CARIBE SAS                C000000000590000000000000000000000100010010000000000000000000000F0010000008957500320160808000101 00000000000000000000000000000000000000000000000000000000000000000000000000000000000000000000000000000000000000000N 00000000000NCONT   00    00000000000          00000000000000000000000000000000000000000000 000000000000000A000000000000000000000000000000000000000000000 000000000000000000000000000000000000000     00000000                                                                                                                        000000000000000000
F0010000008957500004000090064337300023658300000000000000000201608080002001DISCOMERCIAL TEXTIL DEL CARIBE SAS                C000000000036000000000000000000000100010010000000000000000000000F0010000008957500420160808000101 00000000000000000000000000000000000000000000000000000000000000000000000000000000000000000000000000000000000000000N 00000000000NCONT   00    00000000000          00000000000000000000000000000000000000000000 000000000000000A000000000000000000000000000000000000000000000 000000000000000000000000000000000000000     00000000                                                                                                                        000000000000000000
F0010000008957500005000090064337300013552100000000000000000201608080002001DISCOMERCIAL TEXTIL DEL CARIBE SAS                D000000000036000000000000000000000100010010000000000000000000000F0010000008957500520160808000101 00000000000000000000000000000000000000000000000000000000000000000000000000000000000000000000000000000000000000000N 00000000000NCONT   00    00000000000          00000000000000000000000000000000000000000000 000000000000000A000000000000000000000000000000000000000000000 000000000000000000000000000000000000000     00000000                                                                                                                        000000000000000000
F0010000008957600001000090048173700013050500000000000000000201608080002001ESPECIALIDADES QUIMICAS DEL NORTE SAS             D000000013850000000000000000000000100010010000000000000000000000F0010000008957600120160808000101 00000000000000000000000000000000000000000000000000000000000000000000000000000000000000000000000000000000000000000N 00000000000NCONT   00    00000000000          00000000000000000000000000000000000000000000 000000000000000A000000000000000000000000000000000000000000000 000000000000000000000000000000000000000     00000000                                                                                                                        000000000000000000
F0010000008957600002000090048173700041450500000000000000000201608080002001ESPECIALIDADES QUIMICAS DEL NORTE SAS             C000000013000000000000000000000000100010010000000000000000000000F0010000008957600220160808000101 00000000000000000000000000000000000000000000000000000000000000000000000000000000000000000000000000000000000000000N 00000000000NCONT   00    00000000000          00000000000000000000000000000000000000000000 000000000000000A000000000000000000000000000000000000000000000 000000000000000000000000000000000000000     00000000                                                                                                                        000000000000000000
F0010000008957600003000090048173700042505000000000000000000201608080002001ESPECIALIDADES QUIMICAS DEL NORTE SAS             C000000000850000000000000000000000100010010000000000000000000000F0010000008957600320160808000101 00000000000000000000000000000000000000000000000000000000000000000000000000000000000000000000000000000000000000000N 00000000000NCONT   00    00000000000          00000000000000000000000000000000000000000000 000000000000000A000000000000000000000000000000000000000000000 000000000000000000000000000000000000000     00000000                                                                                                                        000000000000000000
F0010000008957600004000090048173700023658300000000000000000201608080002001ESPECIALIDADES QUIMICAS DEL NORTE SAS             C000000000104000000000000000000000100010010000000000000000000000F0010000008957600420160808000101 00000000000000000000000000000000000000000000000000000000000000000000000000000000000000000000000000000000000000000N 00000000000NCONT   00    00000000000          00000000000000000000000000000000000000000000 000000000000000A000000000000000000000000000000000000000000000 000000000000000000000000000000000000000     00000000                                                                                                                        000000000000000000
F0010000008957600005000090048173700013552100000000000000000201608080002001ESPECIALIDADES QUIMICAS DEL NORTE SAS             D000000000104000000000000000000000100010010000000000000000000000F0010000008957600520160808000101 00000000000000000000000000000000000000000000000000000000000000000000000000000000000000000000000000000000000000000N 00000000000NCONT   00    00000000000          00000000000000000000000000000000000000000000 000000000000000A000000000000000000000000000000000000000000000 000000000000000000000000000000000000000     00000000                                                                                                                        000000000000000000
F0010000008957700001000090060531100013050500000000000000000201608080002001RECUBRIMIENTOS ESENCIALES SAS                     D000000027310000000000000000000000100010010000000000000000000000F0010000008957700120160808000101 00000000000000000000000000000000000000000000000000000000000000000000000000000000000000000000000000000000000000000N 00000000000NCONT   00    00000000000          00000000000000000000000000000000000000000000 000000000000000A000000000000000000000000000000000000000000000 000000000000000000000000000000000000000     00000000                                                                                                                        000000000000000000
F0010000008957700002000090060531100041450500000000000000000201608080002001RECUBRIMIENTOS ESENCIALES SAS                     C000000024310000000000000000000000100010010000000000000000000000F0010000008957700220160808000101 00000000000000000000000000000000000000000000000000000000000000000000000000000000000000000000000000000000000000000N 00000000000NCONT   00    00000000000          00000000000000000000000000000000000000000000 000000000000000A000000000000000000000000000000000000000000000 000000000000000000000000000000000000000     00000000                                                                                                                        000000000000000000
F0010000008957700003000090060531100042505000000000000000000201608080002001RECUBRIMIENTOS ESENCIALES SAS                     C000000003000000000000000000000000100010010000000000000000000000F0010000008957700320160808000101 00000000000000000000000000000000000000000000000000000000000000000000000000000000000000000000000000000000000000000N 00000000000NCONT   00    00000000000          00000000000000000000000000000000000000000000 000000000000000A000000000000000000000000000000000000000000000 000000000000000000000000000000000000000     00000000                                                                                                                        000000000000000000
F0010000008957700004000090060531100023658300000000000000000201608080002001RECUBRIMIENTOS ESENCIALES SAS                     C000000000194500000000000000000000100010010000000000000000000000F0010000008957700420160808000101 00000000000000000000000000000000000000000000000000000000000000000000000000000000000000000000000000000000000000000N 00000000000NCONT   00    00000000000          00000000000000000000000000000000000000000000 000000000000000A000000000000000000000000000000000000000000000 000000000000000000000000000000000000000     00000000                                                                                                                        000000000000000000
F0010000008957700005000090060531100013552100000000000000000201608080002001RECUBRIMIENTOS ESENCIALES SAS                     D000000000194500000000000000000000100010010000000000000000000000F0010000008957700520160808000101 00000000000000000000000000000000000000000000000000000000000000000000000000000000000000000000000000000000000000000N 00000000000NCONT   00    00000000000          00000000000000000000000000000000000000000000 000000000000000A000000000000000000000000000000000000000000000 000000000000000000000000000000000000000     00000000                                                                                                                        000000000000000000
F0010000008957800001000080200608400013050500000000000000000201608080002001HIT DISTRIBUCIONES SAS                            D000000071500000000000000000000000100010010000000000000000000000F0010000008957800120160808000101 00000000000000000000000000000000000000000000000000000000000000000000000000000000000000000000000000000000000000000N 00000000000NCONT   00    00000000000          00000000000000000000000000000000000000000000 000000000000000A000000000000000000000000000000000000000000000 000000000000000000000000000000000000000     00000000                                                                                                                        000000000000000000
F0010000008957800002000080200608400041450500000000000000000201608080002001HIT DISTRIBUCIONES SAS                            C000000064800000000000000000000000100010010000000000000000000000F0010000008957800220160808000101 00000000000000000000000000000000000000000000000000000000000000000000000000000000000000000000000000000000000000000N 00000000000NCONT   00    00000000000          00000000000000000000000000000000000000000000 000000000000000A000000000000000000000000000000000000000000000 000000000000000000000000000000000000000     00000000                                                                                                                        000000000000000000
F0010000008957800003000080200608400042505000000000000000000201608080002001HIT DISTRIBUCIONES SAS                            C000000006700000000000000000000000100010010000000000000000000000F0010000008957800320160808000101 00000000000000000000000000000000000000000000000000000000000000000000000000000000000000000000000000000000000000000N 00000000000NCONT   00    00000000000          00000000000000000000000000000000000000000000 000000000000000A000000000000000000000000000000000000000000000 000000000000000000000000000000000000000     00000000                                                                                                                        000000000000000000
F0010000008957800004000080200608400023658300000000000000000201608080002001HIT DISTRIBUCIONES SAS                            C000000000518400000000000000000000100010010000000000000000000000F0010000008957800420160808000101 00000000000000000000000000000000000000000000000000000000000000000000000000000000000000000000000000000000000000000N 00000000000NCONT   00    00000000000          00000000000000000000000000000000000000000000 000000000000000A000000000000000000000000000000000000000000000 000000000000000000000000000000000000000     00000000                                                                                                                        000000000000000000
F0010000008957800005000080200608400013552100000000000000000201608080002001HIT DISTRIBUCIONES SAS                            D000000000518400000000000000000000100010010000000000000000000000F0010000008957800520160808000101 00000000000000000000000000000000000000000000000000000000000000000000000000000000000000000000000000000000000000000N 00000000000NCONT   00    00000000000          00000000000000000000000000000000000000000000 000000000000000A000000000000000000000000000000000000000000000 000000000000000000000000000000000000000     00000000                                                                                                                        000000000000000000
F0010000008957900001000080201127600013050500000000000000000201608080002001ELECTRICOS DEL RUIZ S.A.S.                        D000000024141000000000000000000000100010010000000000000000000000F0010000008957900120160808000101 00000000000000000000000000000000000000000000000000000000000000000000000000000000000000000000000000000000000000000N 00000000000NCONT   00    00000000000          00000000000000000000000000000000000000000000 000000000000000A000000000000000000000000000000000000000000000 000000000000000000000000000000000000000     00000000                                                                                                                        000000000000000000
F0010000008957900002000080201127600041450500000000000000000201608080002001ELECTRICOS DEL RUIZ S.A.S.                        C000000017680000000000000000000000100010010000000000000000000000F0010000008957900220160808000101 00000000000000000000000000000000000000000000000000000000000000000000000000000000000000000000000000000000000000000N 00000000000NCONT   00    00000000000          00000000000000000000000000000000000000000000 000000000000000A000000000000000000000000000000000000000000000 000000000000000000000000000000000000000     00000000                                                                                                                        000000000000000000
F0010000008957900003000080201127600042505000000000000000000201608080002001ELECTRICOS DEL RUIZ S.A.S.                        C000000006461000000000000000000000100010010000000000000000000000F0010000008957900320160808000101 00000000000000000000000000000000000000000000000000000000000000000000000000000000000000000000000000000000000000000N 00000000000NCONT   00    00000000000          00000000000000000000000000000000000000000000 000000000000000A000000000000000000000000000000000000000000000 000000000000000000000000000000000000000     00000000                                                                                                                        000000000000000000
F0010000008957900004000080201127600023658300000000000000000201608080002001ELECTRICOS DEL RUIZ S.A.S.                        C000000000141400000000000000000000100010010000000000000000000000F0010000008957900420160808000101 00000000000000000000000000000000000000000000000000000000000000000000000000000000000000000000000000000000000000000N 00000000000NCONT   00    00000000000          00000000000000000000000000000000000000000000 000000000000000A000000000000000000000000000000000000000000000 000000000000000000000000000000000000000     00000000                                                                                                                        000000000000000000
F0010000008957900005000080201127600013552100000000000000000201608080002001ELECTRICOS DEL RUIZ S.A.S.                        D000000000141400000000000000000000100010010000000000000000000000F0010000008957900520160808000101 00000000000000000000000000000000000000000000000000000000000000000000000000000000000000000000000000000000000000000N 00000000000NCONT   00    00000000000          00000000000000000000000000000000000000000000 000000000000000A000000000000000000000000000000000000000000000 000000000000000000000000000000000000000     00000000                                                                                                                        000000000000000000
F0010000008958000001000090044443800013050500000000000000000201608080002001DISTRIBUCIONES UFRE S.A.S.                        D000000011506700000000000000000000100010010000000000000000000000F0010000008958000120160808000101 00000000000000000000000000000000000000000000000000000000000000000000000000000000000000000000000000000000000000000N 00000000000NCONT   00    00000000000          00000000000000000000000000000000000000000000 000000000000000A000000000000000000000000000000000000000000000 000000000000000000000000000000000000000     00000000                                                                                                                        000000000000000000
F0010000008958000002000090044443800041450500000000000000000201608080002001DISTRIBUCIONES UFRE S.A.S.                        C000000008896700000000000000000000100010010000000000000000000000F0010000008958000220160808000101 00000000000000000000000000000000000000000000000000000000000000000000000000000000000000000000000000000000000000000N 00000000000NCONT   00    00000000000          00000000000000000000000000000000000000000000 000000000000000A000000000000000000000000000000000000000000000 000000000000000000000000000000000000000     00000000                                                                                                                        000000000000000000
F0010000008958000003000090044443800042505000000000000000000201608080002001DISTRIBUCIONES UFRE S.A.S.                        C000000002610000000000000000000000100010010000000000000000000000F0010000008958000320160808000101 00000000000000000000000000000000000000000000000000000000000000000000000000000000000000000000000000000000000000000N 00000000000NCONT   00    00000000000          00000000000000000000000000000000000000000000 000000000000000A000000000000000000000000000000000000000000000 000000000000000000000000000000000000000     00000000                                                                                                                        000000000000000000
F0010000008958000004000090044443800023658300000000000000000201608080002001DISTRIBUCIONES UFRE S.A.S.                        C000000000071200000000000000000000100010010000000000000000000000F0010000008958000420160808000101 00000000000000000000000000000000000000000000000000000000000000000000000000000000000000000000000000000000000000000N 00000000000NCONT   00    00000000000          00000000000000000000000000000000000000000000 000000000000000A000000000000000000000000000000000000000000000 000000000000000000000000000000000000000     00000000                                                                                                                        000000000000000000
F0010000008958000005000090044443800013552100000000000000000201608080002001DISTRIBUCIONES UFRE S.A.S.                        D000000000071200000000000000000000100010010000000000000000000000F0010000008958000520160808000101 00000000000000000000000000000000000000000000000000000000000000000000000000000000000000000000000000000000000000000N 00000000000NCONT   00    00000000000          00000000000000000000000000000000000000000000 000000000000000A000000000000000000000000000000000000000000000 000000000000000000000000000000000000000     00000000                                                                                                                        000000000000000000
F0010000008958100001000000871714900013050500000000000000000201608080002001ROLNAN DE LA ROSA  INSIGNARES                     D000000020585000000000000000000000100010010000000000000000000000F0010000008958100120160808000101 00000000000000000000000000000000000000000000000000000000000000000000000000000000000000000000000000000000000000000N 00000000000NCONT   00    00000000000          00000000000000000000000000000000000000000000 000000000000000A000000000000000000000000000000000000000000000 000000000000000000000000000000000000000     00000000                                                                                                                        000000000000000000
F0010000008958100002000000871714900041450500000000000000000201608080002001ROLNAN DE LA ROSA  INSIGNARES                     C000000017997000000000000000000000100010010000000000000000000000F0010000008958100220160808000101 00000000000000000000000000000000000000000000000000000000000000000000000000000000000000000000000000000000000000000N 00000000000NCONT   00    00000000000          00000000000000000000000000000000000000000000 000000000000000A000000000000000000000000000000000000000000000 000000000000000000000000000000000000000     00000000                                                                                                                        000000000000000000
F0010000008958100003000000871714900042505000000000000000000201608080002001ROLNAN DE LA ROSA  INSIGNARES                     C000000002588000000000000000000000100010010000000000000000000000F0010000008958100320160808000101 00000000000000000000000000000000000000000000000000000000000000000000000000000000000000000000000000000000000000000N 00000000000NCONT   00    00000000000          00000000000000000000000000000000000000000000 000000000000000A000000000000000000000000000000000000000000000 000000000000000000000000000000000000000     00000000                                                                                                                        000000000000000000
F0010000008958100004000000871714900023658300000000000000000201608080002001ROLNAN DE LA ROSA  INSIGNARES                     C000000000144000000000000000000000100010010000000000000000000000F0010000008958100420160808000101 00000000000000000000000000000000000000000000000000000000000000000000000000000000000000000000000000000000000000000N 00000000000NCONT   00    00000000000          00000000000000000000000000000000000000000000 000000000000000A000000000000000000000000000000000000000000000 000000000000000000000000000000000000000     00000000                                                                                                                        000000000000000000
F0010000008958100005000000871714900013552100000000000000000201608080002001ROLNAN DE LA ROSA  INSIGNARES                     D000000000144000000000000000000000100010010000000000000000000000F0010000008958100520160808000101 00000000000000000000000000000000000000000000000000000000000000000000000000000000000000000000000000000000000000000N 00000000000NCONT   00    00000000000          00000000000000000000000000000000000000000000 000000000000000A000000000000000000000000000000000000000000000 000000000000000000000000000000000000000     00000000                                                                                                                        000000000000000000
F0010000008958200001000089070997800013050500000000000000000201608080002001CENTRAL DE TORNILLOS                              D000000007240000000000000000000000100010010000000000000000000000F0010000008958200120160808000101 00000000000000000000000000000000000000000000000000000000000000000000000000000000000000000000000000000000000000000N 00000000000NCONT   00    00000000000          00000000000000000000000000000000000000000000 000000000000000A000000000000000000000000000000000000000000000 000000000000000000000000000000000000000     00000000                                                                                                                        000000000000000000
F0010000008958200002000089070997800041450500000000000000000201608080002001CENTRAL DE TORNILLOS                              C000000006440000000000000000000000100010010000000000000000000000F0010000008958200220160808000101 00000000000000000000000000000000000000000000000000000000000000000000000000000000000000000000000000000000000000000N 00000000000NCONT   00    00000000000          00000000000000000000000000000000000000000000 000000000000000A000000000000000000000000000000000000000000000 000000000000000000000000000000000000000     00000000                                                                                                                        000000000000000000
F0010000008958200003000089070997800042505000000000000000000201608080002001CENTRAL DE TORNILLOS                              C000000000800000000000000000000000100010010000000000000000000000F0010000008958200320160808000101 00000000000000000000000000000000000000000000000000000000000000000000000000000000000000000000000000000000000000000N 00000000000NCONT   00    00000000000          00000000000000000000000000000000000000000000 000000000000000A000000000000000000000000000000000000000000000 000000000000000000000000000000000000000     00000000                                                                                                                        000000000000000000
F0010000008958200004000089070997800023658300000000000000000201608080002001CENTRAL DE TORNILLOS                              C000000000051500000000000000000000100010010000000000000000000000F0010000008958200420160808000101 00000000000000000000000000000000000000000000000000000000000000000000000000000000000000000000000000000000000000000N 00000000000NCONT   00    00000000000          00000000000000000000000000000000000000000000 000000000000000A000000000000000000000000000000000000000000000 000000000000000000000000000000000000000     00000000                                                                                                                        000000000000000000
F0010000008958200005000089070997800013552100000000000000000201608080002001CENTRAL DE TORNILLOS                              D000000000051500000000000000000000100010010000000000000000000000F0010000008958200520160808000101 00000000000000000000000000000000000000000000000000000000000000000000000000000000000000000000000000000000000000000N 00000000000NCONT   00    00000000000          00000000000000000000000000000000000000000000 000000000000000A000000000000000000000000000000000000000000000 000000000000000000000000000000000000000     00000000                                                                                                                        000000000000000000
F0010000008958300001000000879998000013050500000000000000000201608080002001MUNDO SUMINISTROS JL                              D000000008000000000000000000000000100010010000000000000000000000F0010000008958300120160808000101 00000000000000000000000000000000000000000000000000000000000000000000000000000000000000000000000000000000000000000N 00000000000NCONT   00    00000000000          00000000000000000000000000000000000000000000 000000000000000A000000000000000000000000000000000000000000000 000000000000000000000000000000000000000     00000000                                                                                                                        000000000000000000
F0010000008958300002000000879998000041450500000000000000000201608080002001MUNDO SUMINISTROS JL                              C000000007000000000000000000000000100010010000000000000000000000F0010000008958300220160808000101 00000000000000000000000000000000000000000000000000000000000000000000000000000000000000000000000000000000000000000N 00000000000NCONT   00    00000000000          00000000000000000000000000000000000000000000 000000000000000A000000000000000000000000000000000000000000000 000000000000000000000000000000000000000     00000000                                                                                                                        000000000000000000
F0010000008958300003000000879998000042505000000000000000000201608080002001MUNDO SUMINISTROS JL                              C000000001000000000000000000000000100010010000000000000000000000F0010000008958300320160808000101 00000000000000000000000000000000000000000000000000000000000000000000000000000000000000000000000000000000000000000N 00000000000NCONT   00    00000000000          00000000000000000000000000000000000000000000 000000000000000A000000000000000000000000000000000000000000000 000000000000000000000000000000000000000     00000000                                                                                                                        000000000000000000
F0010000008958300004000000879998000023658300000000000000000201608080002001MUNDO SUMINISTROS JL                              C000000000056000000000000000000000100010010000000000000000000000F0010000008958300420160808000101 00000000000000000000000000000000000000000000000000000000000000000000000000000000000000000000000000000000000000000N 00000000000NCONT   00    00000000000          00000000000000000000000000000000000000000000 000000000000000A000000000000000000000000000000000000000000000 000000000000000000000000000000000000000     00000000                                                                                                                        000000000000000000
F0010000008958300005000000879998000013552100000000000000000201608080002001MUNDO SUMINISTROS JL                              D000000000056000000000000000000000100010010000000000000000000000F0010000008958300520160808000101 00000000000000000000000000000000000000000000000000000000000000000000000000000000000000000000000000000000000000000N 00000000000NCONT   00    00000000000          00000000000000000000000000000000000000000000 000000000000000A000000000000000000000000000000000000000000000 000000000000000000000000000000000000000     00000000                                                                                                                        000000000000000000
F0010000008958400001000080018525700013050500000000000000000201608080002001SUMINISTROS Y ACABADOS LTDA                       D000000004363300000000000000000000100010010000000000000000000000F0010000008958400120160808000101 00000000000000000000000000000000000000000000000000000000000000000000000000000000000000000000000000000000000000000N 00000000000NCONT   00    00000000000          00000000000000000000000000000000000000000000 000000000000000A000000000000000000000000000000000000000000000 000000000000000000000000000000000000000     00000000                                                                                                                        000000000000000000
F0010000008958400002000080018525700041450500000000000000000201608080002001SUMINISTROS Y ACABADOS LTDA                       C000000003078200000000000000000000100010010000000000000000000000F0010000008958400220160808000101 00000000000000000000000000000000000000000000000000000000000000000000000000000000000000000000000000000000000000000N 00000000000NCONT   00    00000000000          00000000000000000000000000000000000000000000 000000000000000A000000000000000000000000000000000000000000000 000000000000000000000000000000000000000     00000000                                                                                                                        000000000000000000
F0010000008958400003000080018525700042505000000000000000000201608080002001SUMINISTROS Y ACABADOS LTDA                       C000000001285100000000000000000000100010010000000000000000000000F0010000008958400320160808000101 00000000000000000000000000000000000000000000000000000000000000000000000000000000000000000000000000000000000000000N 00000000000NCONT   00    00000000000          00000000000000000000000000000000000000000000 000000000000000A000000000000000000000000000000000000000000000 000000000000000000000000000000000000000     00000000                                                                                                                        000000000000000000
F0010000008958400004000080018525700023658300000000000000000201608080002001SUMINISTROS Y ACABADOS LTDA                       C000000000024600000000000000000000100010010000000000000000000000F0010000008958400420160808000101 00000000000000000000000000000000000000000000000000000000000000000000000000000000000000000000000000000000000000000N 00000000000NCONT   00    00000000000          00000000000000000000000000000000000000000000 000000000000000A000000000000000000000000000000000000000000000 000000000000000000000000000000000000000     00000000                                                                                                                        000000000000000000
F0010000008958400005000080018525700013552100000000000000000201608080002001SUMINISTROS Y ACABADOS LTDA                       D000000000024600000000000000000000100010010000000000000000000000F0010000008958400520160808000101 00000000000000000000000000000000000000000000000000000000000000000000000000000000000000000000000000000000000000000N 00000000000NCONT   00    00000000000          00000000000000000000000000000000000000000000 000000000000000A000000000000000000000000000000000000000000000 000000000000000000000000000000000000000     00000000                                                                                                                        000000000000000000
F0010000008958500001000080000083500013050500000000000000000201608080002001ALIPAR Y CIA LTDA                                 D000000036370000000000000000000000100010010000000000000000000000F0010000008958500120160808000101 00000000000000000000000000000000000000000000000000000000000000000000000000000000000000000000000000000000000000000N 00000000000NCONT   00    00000000000          00000000000000000000000000000000000000000000 000000000000000A000000000000000000000000000000000000000000000 000000000000000000000000000000000000000     00000000                                                                                                                        000000000000000000
F0010000008958500002000080000083500041450500000000000000000201608080002001ALIPAR Y CIA LTDA                                 C000000031320000000000000000000000100010010000000000000000000000F0010000008958500220160808000101 00000000000000000000000000000000000000000000000000000000000000000000000000000000000000000000000000000000000000000N 00000000000NCONT   00    00000000000          00000000000000000000000000000000000000000000 000000000000000A000000000000000000000000000000000000000000000 000000000000000000000000000000000000000     00000000                                                                                                                        000000000000000000
F0010000008958500003000080000083500042505000000000000000000201608080002001ALIPAR Y CIA LTDA                                 C000000005050000000000000000000000100010010000000000000000000000F0010000008958500320160808000101 00000000000000000000000000000000000000000000000000000000000000000000000000000000000000000000000000000000000000000N 00000000000NCONT   00    00000000000          00000000000000000000000000000000000000000000 000000000000000A000000000000000000000000000000000000000000000 000000000000000000000000000000000000000     00000000                                                                                                                        000000000000000000
F0010000008958500004000080000083500023658300000000000000000201608080002001ALIPAR Y CIA LTDA                                 C000000000250600000000000000000000100010010000000000000000000000F0010000008958500420160808000101 00000000000000000000000000000000000000000000000000000000000000000000000000000000000000000000000000000000000000000N 00000000000NCONT   00    00000000000          00000000000000000000000000000000000000000000 000000000000000A000000000000000000000000000000000000000000000 000000000000000000000000000000000000000     00000000                                                                                                                        000000000000000000
F0010000008958500005000080000083500013552100000000000000000201608080002001ALIPAR Y CIA LTDA                                 D000000000250600000000000000000000100010010000000000000000000000F0010000008958500520160808000101 00000000000000000000000000000000000000000000000000000000000000000000000000000000000000000000000000000000000000000N 00000000000NCONT   00    00000000000          00000000000000000000000000000000000000000000 000000000000000A000000000000000000000000000000000000000000000 000000000000000000000000000000000000000     00000000                                                                                                                        000000000000000000
F0010000008958600001000080022903500013050500000000000000000201608080002001TECNOGLASS S.A                                    D000000092554700000000000000000000100010010000000000000000000000F0010000008958600120160808000101 00000000000000000000000000000000000000000000000000000000000000000000000000000000000000000000000000000000000000000N 00000000000NCONT   00    00000000000          00000000000000000000000000000000000000000000 000000000000000A000000000000000000000000000000000000000000000 000000000000000000000000000000000000000     00000000                                                                                                                        000000000000000000
F0010000008958600002000080022903500041450500000000000000000201608080002001TECNOGLASS S.A                                    C000000081400000000000000000000000100010010000000000000000000000F0010000008958600220160808000101 00000000000000000000000000000000000000000000000000000000000000000000000000000000000000000000000000000000000000000N 00000000000NCONT   00    00000000000          00000000000000000000000000000000000000000000 000000000000000A000000000000000000000000000000000000000000000 000000000000000000000000000000000000000     00000000                                                                                                                        000000000000000000
F0010000008958600003000080022903500042505000000000000000000201608080002001TECNOGLASS S.A                                    C000000011154700000000000000000000100010010000000000000000000000F0010000008958600320160808000101 00000000000000000000000000000000000000000000000000000000000000000000000000000000000000000000000000000000000000000N 00000000000NCONT   00    00000000000          00000000000000000000000000000000000000000000 000000000000000A000000000000000000000000000000000000000000000 000000000000000000000000000000000000000     00000000                                                                                                                        000000000000000000
F0010000008958600004000080022903500023658300000000000000000201608080002001TECNOGLASS S.A                                    C000000000651200000000000000000000100010010000000000000000000000F0010000008958600420160808000101 00000000000000000000000000000000000000000000000000000000000000000000000000000000000000000000000000000000000000000N 00000000000NCONT   00    00000000000          00000000000000000000000000000000000000000000 000000000000000A000000000000000000000000000000000000000000000 000000000000000000000000000000000000000     00000000                                                                                                                        000000000000000000
F0010000008958600005000080022903500013552100000000000000000201608080002001TECNOGLASS S.A                                    D000000000651200000000000000000000100010010000000000000000000000F0010000008958600520160808000101 00000000000000000000000000000000000000000000000000000000000000000000000000000000000000000000000000000000000000000N 00000000000NCONT   00    00000000000          00000000000000000000000000000000000000000000 000000000000000A000000000000000000000000000000000000000000000 000000000000000000000000000000000000000     00000000                                                                                                                        000000000000000000
F0010000008958700001000080200069100013050500000000000000000201608080002001PEGANTES Y PINTURAS ATLAS LTDA                    D000000017675900000000000000000000100010010000000000000000000000F0010000008958700120160808000101 00000000000000000000000000000000000000000000000000000000000000000000000000000000000000000000000000000000000000000N 00000000000NCONT   00    00000000000          00000000000000000000000000000000000000000000 000000000000000A000000000000000000000000000000000000000000000 000000000000000000000000000000000000000     00000000                                                                                                                        000000000000000000
F0010000008958700002000080200069100041450500000000000000000201608080002001PEGANTES Y PINTURAS ATLAS LTDA                    C000000015400000000000000000000000100010010000000000000000000000F0010000008958700220160808000101 00000000000000000000000000000000000000000000000000000000000000000000000000000000000000000000000000000000000000000N 00000000000NCONT   00    00000000000          00000000000000000000000000000000000000000000 000000000000000A000000000000000000000000000000000000000000000 000000000000000000000000000000000000000     00000000                                                                                                                        000000000000000000
F0010000008958700003000080200069100042505000000000000000000201608080002001PEGANTES Y PINTURAS ATLAS LTDA                    C000000002275900000000000000000000100010010000000000000000000000F0010000008958700320160808000101 00000000000000000000000000000000000000000000000000000000000000000000000000000000000000000000000000000000000000000N 00000000000NCONT   00    00000000000          00000000000000000000000000000000000000000000 000000000000000A000000000000000000000000000000000000000000000 000000000000000000000000000000000000000     00000000                                                                                                                        000000000000000000
F0010000008958700004000080200069100023658300000000000000000201608080002001PEGANTES Y PINTURAS ATLAS LTDA                    C000000000123200000000000000000000100010010000000000000000000000F0010000008958700420160808000101 00000000000000000000000000000000000000000000000000000000000000000000000000000000000000000000000000000000000000000N 00000000000NCONT   00    00000000000          00000000000000000000000000000000000000000000 000000000000000A000000000000000000000000000000000000000000000 000000000000000000000000000000000000000     00000000                                                                                                                        000000000000000000
F0010000008958700005000080200069100013552100000000000000000201608080002001PEGANTES Y PINTURAS ATLAS LTDA                    D000000000123200000000000000000000100010010000000000000000000000F0010000008958700520160808000101 00000000000000000000000000000000000000000000000000000000000000000000000000000000000000000000000000000000000000000N 00000000000NCONT   00    00000000000          00000000000000000000000000000000000000000000 000000000000000A000000000000000000000000000000000000000000000 000000000000000000000000000000000000000     00000000                                                                                                                        000000000000000000
F0010000008958800001000002245670100013050500000000000000000201608080002001YOLANDA  TOBON                                    D000000020766600000000000000000000100010010000000000000000000000F0010000008958800120160808000101 00000000000000000000000000000000000000000000000000000000000000000000000000000000000000000000000000000000000000000N 00000000000NCONT   00    00000000000          00000000000000000000000000000000000000000000 000000000000000A000000000000000000000000000000000000000000000 000000000000000000000000000000000000000     00000000                                                                                                                        000000000000000000
F0010000008958800002000002245670100041450500000000000000000201608080002001YOLANDA  TOBON                                    C000000014160000000000000000000000100010010000000000000000000000F0010000008958800220160808000101 00000000000000000000000000000000000000000000000000000000000000000000000000000000000000000000000000000000000000000N 00000000000NCONT   00    00000000000          00000000000000000000000000000000000000000000 000000000000000A000000000000000000000000000000000000000000000 000000000000000000000000000000000000000     00000000                                                                                                                        000000000000000000
F0010000008958800003000002245670100042505000000000000000000201608080002001YOLANDA  TOBON                                    C000000006606600000000000000000000100010010000000000000000000000F0010000008958800320160808000101 00000000000000000000000000000000000000000000000000000000000000000000000000000000000000000000000000000000000000000N 00000000000NCONT   00    00000000000          00000000000000000000000000000000000000000000 000000000000000A000000000000000000000000000000000000000000000 000000000000000000000000000000000000000     00000000                                                                                                                        000000000000000000
F0010000008958800004000002245670100023658300000000000000000201608080002001YOLANDA  TOBON                                    C000000000113300000000000000000000100010010000000000000000000000F0010000008958800420160808000101 00000000000000000000000000000000000000000000000000000000000000000000000000000000000000000000000000000000000000000N 00000000000NCONT   00    00000000000          00000000000000000000000000000000000000000000 000000000000000A000000000000000000000000000000000000000000000 000000000000000000000000000000000000000     00000000                                                                                                                        000000000000000000
F0010000008958800005000002245670100013552100000000000000000201608080002001YOLANDA  TOBON                                    D000000000113300000000000000000000100010010000000000000000000000F0010000008958800520160808000101 00000000000000000000000000000000000000000000000000000000000000000000000000000000000000000000000000000000000000000N 00000000000NCONT   00    00000000000          00000000000000000000000000000000000000000000 000000000000000A000000000000000000000000000000000000000000000 000000000000000000000000000000000000000     00000000                                                                                                                        000000000000000000
F0010000008958900001000080016664500013050500000000000000000201608080002001TELAPLAS PANCER SAS                               D000000086900000000000000000000000100010010000000000000000000000F0010000008958900120160808000101 00000000000000000000000000000000000000000000000000000000000000000000000000000000000000000000000000000000000000000N 00000000000NCONT   00    00000000000          00000000000000000000000000000000000000000000 000000000000000A000000000000000000000000000000000000000000000 000000000000000000000000000000000000000     00000000                                                                                                                        000000000000000000
F0010000008958900002000080016664500041450500000000000000000201608080002001TELAPLAS PANCER SAS                               C000000066980000000000000000000000100010010000000000000000000000F0010000008958900220160808000101 00000000000000000000000000000000000000000000000000000000000000000000000000000000000000000000000000000000000000000N 00000000000NCONT   00    00000000000          00000000000000000000000000000000000000000000 000000000000000A000000000000000000000000000000000000000000000 000000000000000000000000000000000000000     00000000                                                                                                                        000000000000000000
F0010000008958900003000080016664500042505000000000000000000201608080002001TELAPLAS PANCER SAS                               C000000019920000000000000000000000100010010000000000000000000000F0010000008958900320160808000101 00000000000000000000000000000000000000000000000000000000000000000000000000000000000000000000000000000000000000000N 00000000000NCONT   00    00000000000          00000000000000000000000000000000000000000000 000000000000000A000000000000000000000000000000000000000000000 000000000000000000000000000000000000000     00000000                                                                                                                        000000000000000000
F0010000008958900004000080016664500023658300000000000000000201608080002001TELAPLAS PANCER SAS                               C000000000535800000000000000000000100010010000000000000000000000F0010000008958900420160808000101 00000000000000000000000000000000000000000000000000000000000000000000000000000000000000000000000000000000000000000N 00000000000NCONT   00    00000000000          00000000000000000000000000000000000000000000 000000000000000A000000000000000000000000000000000000000000000 000000000000000000000000000000000000000     00000000                                                                                                                        000000000000000000
F0010000008958900005000080016664500013552100000000000000000201608080002001TELAPLAS PANCER SAS                               D000000000535800000000000000000000100010010000000000000000000000F0010000008958900520160808000101 00000000000000000000000000000000000000000000000000000000000000000000000000000000000000000000000000000000000000000N 00000000000NCONT   00    00000000000          00000000000000000000000000000000000000000000 000000000000000A000000000000000000000000000000000000000000000 000000000000000000000000000000000000000     00000000                                                                                                                        000000000000000000
F0010000008959000001000083007900600013050500000000000000000201608080002001EXPRESO ANDINO DE CARGA SA                        D000000043420000000000000000000000100010010000000000000000000000F0010000008959000120160808000101 00000000000000000000000000000000000000000000000000000000000000000000000000000000000000000000000000000000000000000N 00000000000NCONT   00    00000000000          00000000000000000000000000000000000000000000 000000000000000A000000000000000000000000000000000000000000000 000000000000000000000000000000000000000     00000000                                                                                                                        000000000000000000
F0010000008959000002000083007900600041450500000000000000000201608080002001EXPRESO ANDINO DE CARGA SA                        C000000042820000000000000000000000100010010000000000000000000000F0010000008959000220160808000101 00000000000000000000000000000000000000000000000000000000000000000000000000000000000000000000000000000000000000000N 00000000000NCONT   00    00000000000          00000000000000000000000000000000000000000000 000000000000000A000000000000000000000000000000000000000000000 000000000000000000000000000000000000000     00000000                                                                                                                        000000000000000000
F0010000008959000003000083007900600042505000000000000000000201608080002001EXPRESO ANDINO DE CARGA SA                        C000000000600000000000000000000000100010010000000000000000000000F0010000008959000320160808000101 00000000000000000000000000000000000000000000000000000000000000000000000000000000000000000000000000000000000000000N 00000000000NCONT   00    00000000000          00000000000000000000000000000000000000000000 000000000000000A000000000000000000000000000000000000000000000 000000000000000000000000000000000000000     00000000                                                                                                                        000000000000000000
F0010000008959000004000083007900600023658300000000000000000201608080002001EXPRESO ANDINO DE CARGA SA                        C000000000342600000000000000000000100010010000000000000000000000F0010000008959000420160808000101 00000000000000000000000000000000000000000000000000000000000000000000000000000000000000000000000000000000000000000N 00000000000NCONT   00    00000000000          00000000000000000000000000000000000000000000 000000000000000A000000000000000000000000000000000000000000000 000000000000000000000000000000000000000     00000000                                                                                                                        000000000000000000
F0010000008959000005000083007900600013552100000000000000000201608080002001EXPRESO ANDINO DE CARGA SA                        D000000000342600000000000000000000100010010000000000000000000000F0010000008959000520160808000101 00000000000000000000000000000000000000000000000000000000000000000000000000000000000000000000000000000000000000000N 00000000000NCONT   00    00000000000          00000000000000000000000000000000000000000000 000000000000000A000000000000000000000000000000000000000000000 000000000000000000000000000000000000000     00000000                                                                                                                        000000000000000000
F0010000008959100001000080019113900013050500000000000000000201608080002001COMERCIAL NOVAPEL LTDA                            D000000090011000000000000000000000100010010000000000000000000000F0010000008959100120160808000101 00000000000000000000000000000000000000000000000000000000000000000000000000000000000000000000000000000000000000000N 00000000000NCONT   00    00000000000          00000000000000000000000000000000000000000000 000000000000000A000000000000000000000000000000000000000000000 000000000000000000000000000000000000000     00000000                                                                                                                        000000000000000000
F0010000008959100002000080019113900041450500000000000000000201608080002001COMERCIAL NOVAPEL LTDA                            C000000082576000000000000000000000100010010000000000000000000000F0010000008959100220160808000101 00000000000000000000000000000000000000000000000000000000000000000000000000000000000000000000000000000000000000000N 00000000000NCONT   00    00000000000          00000000000000000000000000000000000000000000 000000000000000A000000000000000000000000000000000000000000000 000000000000000000000000000000000000000     00000000                                                                                                                        000000000000000000
F0010000008959100003000080019113900042505000000000000000000201608080002001COMERCIAL NOVAPEL LTDA                            C000000007435000000000000000000000100010010000000000000000000000F0010000008959100320160808000101 00000000000000000000000000000000000000000000000000000000000000000000000000000000000000000000000000000000000000000N 00000000000NCONT   00    00000000000          00000000000000000000000000000000000000000000 000000000000000A000000000000000000000000000000000000000000000 000000000000000000000000000000000000000     00000000                                                                                                                        000000000000000000
F0010000008959100004000080019113900023658300000000000000000201608080002001COMERCIAL NOVAPEL LTDA                            C000000000660600000000000000000000100010010000000000000000000000F0010000008959100420160808000101 00000000000000000000000000000000000000000000000000000000000000000000000000000000000000000000000000000000000000000N 00000000000NCONT   00    00000000000          00000000000000000000000000000000000000000000 000000000000000A000000000000000000000000000000000000000000000 000000000000000000000000000000000000000     00000000                                                                                                                        000000000000000000
F0010000008959100005000080019113900013552100000000000000000201608080002001COMERCIAL NOVAPEL LTDA                            D000000000660600000000000000000000100010010000000000000000000000F0010000008959100520160808000101 00000000000000000000000000000000000000000000000000000000000000000000000000000000000000000000000000000000000000000N 00000000000NCONT   00    00000000000          00000000000000000000000000000000000000000000 000000000000000A000000000000000000000000000000000000000000000 000000000000000000000000000000000000000     00000000                                                                                                                        000000000000000000
F0010000008959200001000080200863700013050500000000000000000201608080002001COPIN S.A.S                                       D000000077540100000000000000000000100010010000000000000000000000F0010000008959200120160808000101 00000000000000000000000000000000000000000000000000000000000000000000000000000000000000000000000000000000000000000N 00000000000NCONT   00    00000000000          00000000000000000000000000000000000000000000 000000000000000A000000000000000000000000000000000000000000000 000000000000000000000000000000000000000     00000000                                                                                                                        000000000000000000
F0010000008959200002000080200863700041450500000000000000000201608080002001COPIN S.A.S                                       C000000070593200000000000000000000100010010000000000000000000000F0010000008959200220160808000101 00000000000000000000000000000000000000000000000000000000000000000000000000000000000000000000000000000000000000000N 00000000000NCONT   00    00000000000          00000000000000000000000000000000000000000000 000000000000000A000000000000000000000000000000000000000000000 000000000000000000000000000000000000000     00000000                                                                                                                        000000000000000000
F0010000008959200003000080200863700042505000000000000000000201608080002001COPIN S.A.S                                       C000000006946900000000000000000000100010010000000000000000000000F0010000008959200320160808000101 00000000000000000000000000000000000000000000000000000000000000000000000000000000000000000000000000000000000000000N 00000000000NCONT   00    00000000000          00000000000000000000000000000000000000000000 000000000000000A000000000000000000000000000000000000000000000 000000000000000000000000000000000000000     00000000                                                                                                                        000000000000000000
F0010000008959200004000080200863700023658300000000000000000201608080002001COPIN S.A.S                                       C000000000564700000000000000000000100010010000000000000000000000F0010000008959200420160808000101 00000000000000000000000000000000000000000000000000000000000000000000000000000000000000000000000000000000000000000N 00000000000NCONT   00    00000000000          00000000000000000000000000000000000000000000 000000000000000A000000000000000000000000000000000000000000000 000000000000000000000000000000000000000     00000000                                                                                                                        000000000000000000
F0010000008959200005000080200863700013552100000000000000000201608080002001COPIN S.A.S                                       D000000000564700000000000000000000100010010000000000000000000000F0010000008959200520160808000101 00000000000000000000000000000000000000000000000000000000000000000000000000000000000000000000000000000000000000000N 00000000000NCONT   00    00000000000          00000000000000000000000000000000000000000000 000000000000000A000000000000000000000000000000000000000000000 000000000000000000000000000000000000000     00000000                                                                                                                        000000000000000000
F0010000008959300001000089070997800011050500000000000000000201608080002001CENTRAL DE TORNILLOS                              D000000013260000000000000000000000100010010000000000000000000000F0010000008959300120160808000101 00000000000000000000000000000000000000000000000000000000000000000000000000000000000000000000000000000000000000000N 00000000000NCONT   00    00000000000          00000000000000000000000000000000000000000000 000000000000000A000000000000000000000000000000000000000000000 000000000000000000000000000000000000000     00000000                                                                                                                        000000000000000000
F0010000008959300002000089070997800041450500000000000000000201608080002001CENTRAL DE TORNILLOS                              C000000012460000000000000000000000100010010000000000000000000000F0010000008959300220160808000101 00000000000000000000000000000000000000000000000000000000000000000000000000000000000000000000000000000000000000000N 00000000000NCONT   00    00000000000          00000000000000000000000000000000000000000000 000000000000000A000000000000000000000000000000000000000000000 000000000000000000000000000000000000000     00000000                                                                                                                        000000000000000000
