F0010000006812100001000090021022400011050500000000000000000201502120002001ELECTRO HERRAJES                                  D000000015000000000000000000000000100010010000000000000000000000F0010000006812100120150212000101 00000000000000000000000000000000000000000000000000000000000000000000000000000000000000000000000000000000000000000N 00000000000NCONT   00    00000000000          00000000000000000000000000000000000000000000 000000000000000A000000000000000000000000000000000000000000000 000000000000000000000000000000000000000     00000000                                                                                                                        000000000000000000
F0010000006812100002000090021022400041450500000000000000000201502120002001ELECTRO HERRAJES                                  C000000014000000000000000000000000100010010000000000000000000000F0010000006812100220150212000101 00000000000000000000000000000000000000000000000000000000000000000000000000000000000000000000000000000000000000000N 00000000000NCONT   00    00000000000          00000000000000000000000000000000000000000000 000000000000000A000000000000000000000000000000000000000000000 000000000000000000000000000000000000000     00000000                                                                                                                        000000000000000000
F0010000006812100003000090021022400042505000000000000000000201502120002001ELECTRO HERRAJES                                  C000000001000000000000000000000000100010010000000000000000000000F0010000006812100320150212000101 00000000000000000000000000000000000000000000000000000000000000000000000000000000000000000000000000000000000000000N 00000000000NCONT   00    00000000000          00000000000000000000000000000000000000000000 000000000000000A000000000000000000000000000000000000000000000 000000000000000000000000000000000000000     00000000                                                                                                                        000000000000000000
F0010000006812100004000090021022400023658300000000000000000201502120002001ELECTRO HERRAJES                                  C000000000112000000000000000000000100010010000000000000000000000F0010000006812100420150212000101 00000000000000000000000000000000000000000000000000000000000000000000000000000000000000000000000000000000000000000N 00000000000NCONT   00    00000000000          00000000000000000000000000000000000000000000 000000000000000A000000000000000000000000000000000000000000000 000000000000000000000000000000000000000     00000000                                                                                                                        000000000000000000
F0010000006812100005000090021022400013552100000000000000000201502120002001ELECTRO HERRAJES                                  D000000000112000000000000000000000100010010000000000000000000000F0010000006812100520150212000101 00000000000000000000000000000000000000000000000000000000000000000000000000000000000000000000000000000000000000000N 00000000000NCONT   00    00000000000          00000000000000000000000000000000000000000000 000000000000000A000000000000000000000000000000000000000000000 000000000000000000000000000000000000000     00000000                                                                                                                        000000000000000000
F0010000006812200001000003207718300011050500000000000000000201502120002001MARIA GILMA RAMIREZ GARCIA                        D000000005000000000000000000000000100010010000000000000000000000F0010000006812200120150212000101 00000000000000000000000000000000000000000000000000000000000000000000000000000000000000000000000000000000000000000N 00000000000NCONT   00    00000000000          00000000000000000000000000000000000000000000 000000000000000A000000000000000000000000000000000000000000000 000000000000000000000000000000000000000     00000000                                                                                                                        000000000000000000
F0010000006812200002000003207718300041450500000000000000000201502120002001MARIA GILMA RAMIREZ GARCIA                        C000000004400000000000000000000000100010010000000000000000000000F0010000006812200220150212000101 00000000000000000000000000000000000000000000000000000000000000000000000000000000000000000000000000000000000000000N 00000000000NCONT   00    00000000000          00000000000000000000000000000000000000000000 000000000000000A000000000000000000000000000000000000000000000 000000000000000000000000000000000000000     00000000                                                                                                                        000000000000000000
F0010000006812200003000003207718300042505000000000000000000201502120002001MARIA GILMA RAMIREZ GARCIA                        C000000000600000000000000000000000100010010000000000000000000000F0010000006812200320150212000101 00000000000000000000000000000000000000000000000000000000000000000000000000000000000000000000000000000000000000000N 00000000000NCONT   00    00000000000          00000000000000000000000000000000000000000000 000000000000000A000000000000000000000000000000000000000000000 000000000000000000000000000000000000000     00000000                                                                                                                        000000000000000000
F0010000006812200004000003207718300023658300000000000000000201502120002001MARIA GILMA RAMIREZ GARCIA                        C000000000035200000000000000000000100010010000000000000000000000F0010000006812200420150212000101 00000000000000000000000000000000000000000000000000000000000000000000000000000000000000000000000000000000000000000N 00000000000NCONT   00    00000000000          00000000000000000000000000000000000000000000 000000000000000A000000000000000000000000000000000000000000000 000000000000000000000000000000000000000     00000000                                                                                                                        000000000000000000
F0010000006812200005000003207718300013552100000000000000000201502120002001MARIA GILMA RAMIREZ GARCIA                        D000000000035200000000000000000000100010010000000000000000000000F0010000006812200520150212000101 00000000000000000000000000000000000000000000000000000000000000000000000000000000000000000000000000000000000000000N 00000000000NCONT   00    00000000000          00000000000000000000000000000000000000000000 000000000000000A000000000000000000000000000000000000000000000 000000000000000000000000000000000000000     00000000                                                                                                                        000000000000000000
F0010000006812300001000003207718300011050500000000000000000201502120002001MARIA GILMA  RAMIREZ GARCIA                       D000000004400000000000000000000000100010010000000000000000000000F0010000006812300120150212000101 00000000000000000000000000000000000000000000000000000000000000000000000000000000000000000000000000000000000000000N 00000000000NCONT   00    00000000000          00000000000000000000000000000000000000000000 000000000000000A000000000000000000000000000000000000000000000 000000000000000000000000000000000000000     00000000                                                                                                                        000000000000000000
F0010000006812300002000003207718300041450500000000000000000201502120002001MARIA GILMA  RAMIREZ GARCIA                       C000000002400000000000000000000000100010010000000000000000000000F0010000006812300220150212000101 00000000000000000000000000000000000000000000000000000000000000000000000000000000000000000000000000000000000000000N 00000000000NCONT   00    00000000000          00000000000000000000000000000000000000000000 000000000000000A000000000000000000000000000000000000000000000 000000000000000000000000000000000000000     00000000                                                                                                                        000000000000000000
F0010000006812300003000003207718300042505000000000000000000201502120002001MARIA GILMA  RAMIREZ GARCIA                       C000000002000000000000000000000000100010010000000000000000000000F0010000006812300320150212000101 00000000000000000000000000000000000000000000000000000000000000000000000000000000000000000000000000000000000000000N 00000000000NCONT   00    00000000000          00000000000000000000000000000000000000000000 000000000000000A000000000000000000000000000000000000000000000 000000000000000000000000000000000000000     00000000                                                                                                                        000000000000000000
F0010000006812300004000003207718300023658300000000000000000201502120002001MARIA GILMA  RAMIREZ GARCIA                       C000000000019200000000000000000000100010010000000000000000000000F0010000006812300420150212000101 00000000000000000000000000000000000000000000000000000000000000000000000000000000000000000000000000000000000000000N 00000000000NCONT   00    00000000000          00000000000000000000000000000000000000000000 000000000000000A000000000000000000000000000000000000000000000 000000000000000000000000000000000000000     00000000                                                                                                                        000000000000000000
F0010000006812300005000003207718300013552100000000000000000201502120002001MARIA GILMA  RAMIREZ GARCIA                       D000000000019200000000000000000000100010010000000000000000000000F0010000006812300520150212000101 00000000000000000000000000000000000000000000000000000000000000000000000000000000000000000000000000000000000000000N 00000000000NCONT   00    00000000000          00000000000000000000000000000000000000000000 000000000000000A000000000000000000000000000000000000000000000 000000000000000000000000000000000000000     00000000                                                                                                                        000000000000000000
F0010000006812400001000003207718300011050500000000000000000201502120002001MARIA GILMA  RAMIREZ GARCIA                       D000000005000000000000000000000000100010010000000000000000000000F0010000006812400120150212000101 00000000000000000000000000000000000000000000000000000000000000000000000000000000000000000000000000000000000000000N 00000000000NCONT   00    00000000000          00000000000000000000000000000000000000000000 000000000000000A000000000000000000000000000000000000000000000 000000000000000000000000000000000000000     00000000                                                                                                                        000000000000000000
F0010000006812400002000003207718300041450500000000000000000201502120002001MARIA GILMA  RAMIREZ GARCIA                       C000000004400000000000000000000000100010010000000000000000000000F0010000006812400220150212000101 00000000000000000000000000000000000000000000000000000000000000000000000000000000000000000000000000000000000000000N 00000000000NCONT   00    00000000000          00000000000000000000000000000000000000000000 000000000000000A000000000000000000000000000000000000000000000 000000000000000000000000000000000000000     00000000                                                                                                                        000000000000000000
F0010000006812400003000003207718300042505000000000000000000201502120002001MARIA GILMA  RAMIREZ GARCIA                       C000000000600000000000000000000000100010010000000000000000000000F0010000006812400320150212000101 00000000000000000000000000000000000000000000000000000000000000000000000000000000000000000000000000000000000000000N 00000000000NCONT   00    00000000000          00000000000000000000000000000000000000000000 000000000000000A000000000000000000000000000000000000000000000 000000000000000000000000000000000000000     00000000                                                                                                                        000000000000000000
F0010000006812400004000003207718300023658300000000000000000201502120002001MARIA GILMA  RAMIREZ GARCIA                       C000000000035200000000000000000000100010010000000000000000000000F0010000006812400420150212000101 00000000000000000000000000000000000000000000000000000000000000000000000000000000000000000000000000000000000000000N 00000000000NCONT   00    00000000000          00000000000000000000000000000000000000000000 000000000000000A000000000000000000000000000000000000000000000 000000000000000000000000000000000000000     00000000                                                                                                                        000000000000000000
F0010000006812400005000003207718300013552100000000000000000201502120002001MARIA GILMA  RAMIREZ GARCIA                       D000000000035200000000000000000000100010010000000000000000000000F0010000006812400520150212000101 00000000000000000000000000000000000000000000000000000000000000000000000000000000000000000000000000000000000000000N 00000000000NCONT   00    00000000000          00000000000000000000000000000000000000000000 000000000000000A000000000000000000000000000000000000000000000 000000000000000000000000000000000000000     00000000                                                                                                                        000000000000000000
F0010000006812500001000007225219800011050500000000000000000201502120002001MAURICIO ALVAREZ VARELO                           D000000014400000000000000000000000100010010000000000000000000000F0010000006812500120150212000101 00000000000000000000000000000000000000000000000000000000000000000000000000000000000000000000000000000000000000000N 00000000000NCONT   00    00000000000          00000000000000000000000000000000000000000000 000000000000000A000000000000000000000000000000000000000000000 000000000000000000000000000000000000000     00000000                                                                                                                        000000000000000000
F0010000006812500002000007225219800041450500000000000000000201502120002001MAURICIO ALVAREZ VARELO                           C000000010800000000000000000000000100010010000000000000000000000F0010000006812500220150212000101 00000000000000000000000000000000000000000000000000000000000000000000000000000000000000000000000000000000000000000N 00000000000NCONT   00    00000000000          00000000000000000000000000000000000000000000 000000000000000A000000000000000000000000000000000000000000000 000000000000000000000000000000000000000     00000000                                                                                                                        000000000000000000
F0010000006812500003000007225219800042505000000000000000000201502120002001MAURICIO ALVAREZ VARELO                           C000000003600000000000000000000000100010010000000000000000000000F0010000006812500320150212000101 00000000000000000000000000000000000000000000000000000000000000000000000000000000000000000000000000000000000000000N 00000000000NCONT   00    00000000000          00000000000000000000000000000000000000000000 000000000000000A000000000000000000000000000000000000000000000 000000000000000000000000000000000000000     00000000                                                                                                                        000000000000000000
F0010000006812500004000007225219800023658300000000000000000201502120002001MAURICIO ALVAREZ VARELO                           C000000000086400000000000000000000100010010000000000000000000000F0010000006812500420150212000101 00000000000000000000000000000000000000000000000000000000000000000000000000000000000000000000000000000000000000000N 00000000000NCONT   00    00000000000          00000000000000000000000000000000000000000000 000000000000000A000000000000000000000000000000000000000000000 000000000000000000000000000000000000000     00000000                                                                                                                        000000000000000000
F0010000006812500005000007225219800013552100000000000000000201502120002001MAURICIO ALVAREZ VARELO                           D000000000086400000000000000000000100010010000000000000000000000F0010000006812500520150212000101 00000000000000000000000000000000000000000000000000000000000000000000000000000000000000000000000000000000000000000N 00000000000NCONT   00    00000000000          00000000000000000000000000000000000000000000 000000000000000A000000000000000000000000000000000000000000000 000000000000000000000000000000000000000     00000000                                                                                                                        000000000000000000
F0010000006812600001000007225219800011050500000000000000000201502120002001MAURICIO ALVAREZ VARELO                           D000000000960000000000000000000000100010010000000000000000000000F0010000006812600120150212000101 00000000000000000000000000000000000000000000000000000000000000000000000000000000000000000000000000000000000000000N 00000000000NCONT   00    00000000000          00000000000000000000000000000000000000000000 000000000000000A000000000000000000000000000000000000000000000 000000000000000000000000000000000000000     00000000                                                                                                                        000000000000000000
F0010000006812600002000007225219800041450500000000000000000201502120002001MAURICIO ALVAREZ VARELO                           C000000000900000000000000000000000100010010000000000000000000000F0010000006812600220150212000101 00000000000000000000000000000000000000000000000000000000000000000000000000000000000000000000000000000000000000000N 00000000000NCONT   00    00000000000          00000000000000000000000000000000000000000000 000000000000000A000000000000000000000000000000000000000000000 000000000000000000000000000000000000000     00000000                                                                                                                        000000000000000000
F0010000006812600003000007225219800042505000000000000000000201502120002001MAURICIO ALVAREZ VARELO                           C000000000060000000000000000000000100010010000000000000000000000F0010000006812600320150212000101 00000000000000000000000000000000000000000000000000000000000000000000000000000000000000000000000000000000000000000N 00000000000NCONT   00    00000000000          00000000000000000000000000000000000000000000 000000000000000A000000000000000000000000000000000000000000000 000000000000000000000000000000000000000     00000000                                                                                                                        000000000000000000
F0010000006812600004000007225219800023658300000000000000000201502120002001MAURICIO ALVAREZ VARELO                           C000000000007200000000000000000000100010010000000000000000000000F0010000006812600420150212000101 00000000000000000000000000000000000000000000000000000000000000000000000000000000000000000000000000000000000000000N 00000000000NCONT   00    00000000000          00000000000000000000000000000000000000000000 000000000000000A000000000000000000000000000000000000000000000 000000000000000000000000000000000000000     00000000                                                                                                                        000000000000000000
F0010000006812600005000007225219800013552100000000000000000201502120002001MAURICIO ALVAREZ VARELO                           D000000000007200000000000000000000100010010000000000000000000000F0010000006812600520150212000101 00000000000000000000000000000000000000000000000000000000000000000000000000000000000000000000000000000000000000000N 00000000000NCONT   00    00000000000          00000000000000000000000000000000000000000000 000000000000000A000000000000000000000000000000000000000000000 000000000000000000000000000000000000000     00000000                                                                                                                        000000000000000000
F0010000006812700001000080201069800011050500000000000000000201502120002001DISTRIBUCIONES GERSAN                             D000000005000000000000000000000000100010010000000000000000000000F0010000006812700120150212000101 00000000000000000000000000000000000000000000000000000000000000000000000000000000000000000000000000000000000000000N 00000000000NCONT   00    00000000000          00000000000000000000000000000000000000000000 000000000000000A000000000000000000000000000000000000000000000 000000000000000000000000000000000000000     00000000                                                                                                                        000000000000000000
F0010000006812700002000080201069800041450500000000000000000201502120002001DISTRIBUCIONES GERSAN                             C000000004500000000000000000000000100010010000000000000000000000F0010000006812700220150212000101 00000000000000000000000000000000000000000000000000000000000000000000000000000000000000000000000000000000000000000N 00000000000NCONT   00    00000000000          00000000000000000000000000000000000000000000 000000000000000A000000000000000000000000000000000000000000000 000000000000000000000000000000000000000     00000000                                                                                                                        000000000000000000
F0010000006812700003000080201069800042505000000000000000000201502120002001DISTRIBUCIONES GERSAN                             C000000000500000000000000000000000100010010000000000000000000000F0010000006812700320150212000101 00000000000000000000000000000000000000000000000000000000000000000000000000000000000000000000000000000000000000000N 00000000000NCONT   00    00000000000          00000000000000000000000000000000000000000000 000000000000000A000000000000000000000000000000000000000000000 000000000000000000000000000000000000000     00000000                                                                                                                        000000000000000000
F0010000006812700004000080201069800023658300000000000000000201502120002001DISTRIBUCIONES GERSAN                             C000000000036000000000000000000000100010010000000000000000000000F0010000006812700420150212000101 00000000000000000000000000000000000000000000000000000000000000000000000000000000000000000000000000000000000000000N 00000000000NCONT   00    00000000000          00000000000000000000000000000000000000000000 000000000000000A000000000000000000000000000000000000000000000 000000000000000000000000000000000000000     00000000                                                                                                                        000000000000000000
F0010000006812700005000080201069800013552100000000000000000201502120002001DISTRIBUCIONES GERSAN                             D000000000036000000000000000000000100010010000000000000000000000F0010000006812700520150212000101 00000000000000000000000000000000000000000000000000000000000000000000000000000000000000000000000000000000000000000N 00000000000NCONT   00    00000000000          00000000000000000000000000000000000000000000 000000000000000A000000000000000000000000000000000000000000000 000000000000000000000000000000000000000     00000000                                                                                                                        000000000000000000
F0010000006812800001000090073498600011050500000000000000000201502120002001VALTAC DEL CARIBE LTDA                            D000000003000000000000000000000000100010010000000000000000000000F0010000006812800120150212000101 00000000000000000000000000000000000000000000000000000000000000000000000000000000000000000000000000000000000000000N 00000000000NCONT   00    00000000000          00000000000000000000000000000000000000000000 000000000000000A000000000000000000000000000000000000000000000 000000000000000000000000000000000000000     00000000                                                                                                                        000000000000000000
F0010000006812800002000090073498600041450500000000000000000201502120002001VALTAC DEL CARIBE LTDA                            C000000002700000000000000000000000100010010000000000000000000000F0010000006812800220150212000101 00000000000000000000000000000000000000000000000000000000000000000000000000000000000000000000000000000000000000000N 00000000000NCONT   00    00000000000          00000000000000000000000000000000000000000000 000000000000000A000000000000000000000000000000000000000000000 000000000000000000000000000000000000000     00000000                                                                                                                        000000000000000000
F0010000006812800003000090073498600042505000000000000000000201502120002001VALTAC DEL CARIBE LTDA                            C000000000300000000000000000000000100010010000000000000000000000F0010000006812800320150212000101 00000000000000000000000000000000000000000000000000000000000000000000000000000000000000000000000000000000000000000N 00000000000NCONT   00    00000000000          00000000000000000000000000000000000000000000 000000000000000A000000000000000000000000000000000000000000000 000000000000000000000000000000000000000     00000000                                                                                                                        000000000000000000
F0010000006812800004000090073498600023658300000000000000000201502120002001VALTAC DEL CARIBE LTDA                            C000000000021600000000000000000000100010010000000000000000000000F0010000006812800420150212000101 00000000000000000000000000000000000000000000000000000000000000000000000000000000000000000000000000000000000000000N 00000000000NCONT   00    00000000000          00000000000000000000000000000000000000000000 000000000000000A000000000000000000000000000000000000000000000 000000000000000000000000000000000000000     00000000                                                                                                                        000000000000000000
F0010000006812800005000090073498600013552100000000000000000201502120002001VALTAC DEL CARIBE LTDA                            D000000000021600000000000000000000100010010000000000000000000000F0010000006812800520150212000101 00000000000000000000000000000000000000000000000000000000000000000000000000000000000000000000000000000000000000000N 00000000000NCONT   00    00000000000          00000000000000000000000000000000000000000000 000000000000000A000000000000000000000000000000000000000000000 000000000000000000000000000000000000000     00000000                                                                                                                        000000000000000000
F0010000006812900001000090013859100011050500000000000000000201502120002001ALUMARKET BARRANQUILLA S.A.S.                     D000000005100000000000000000000000100010010000000000000000000000F0010000006812900120150212000101 00000000000000000000000000000000000000000000000000000000000000000000000000000000000000000000000000000000000000000N 00000000000NCONT   00    00000000000          00000000000000000000000000000000000000000000 000000000000000A000000000000000000000000000000000000000000000 000000000000000000000000000000000000000     00000000                                                                                                                        000000000000000000
F0010000006812900002000090013859100041450500000000000000000201502120002001ALUMARKET BARRANQUILLA S.A.S.                     C000000004550000000000000000000000100010010000000000000000000000F0010000006812900220150212000101 00000000000000000000000000000000000000000000000000000000000000000000000000000000000000000000000000000000000000000N 00000000000NCONT   00    00000000000          00000000000000000000000000000000000000000000 000000000000000A000000000000000000000000000000000000000000000 000000000000000000000000000000000000000     00000000                                                                                                                        000000000000000000
F0010000006812900003000090013859100042505000000000000000000201502120002001ALUMARKET BARRANQUILLA S.A.S.                     C000000000550000000000000000000000100010010000000000000000000000F0010000006812900320150212000101 00000000000000000000000000000000000000000000000000000000000000000000000000000000000000000000000000000000000000000N 00000000000NCONT   00    00000000000          00000000000000000000000000000000000000000000 000000000000000A000000000000000000000000000000000000000000000 000000000000000000000000000000000000000     00000000                                                                                                                        000000000000000000
F0010000006812900004000090013859100023658300000000000000000201502120002001ALUMARKET BARRANQUILLA S.A.S.                     C000000000036400000000000000000000100010010000000000000000000000F0010000006812900420150212000101 00000000000000000000000000000000000000000000000000000000000000000000000000000000000000000000000000000000000000000N 00000000000NCONT   00    00000000000          00000000000000000000000000000000000000000000 000000000000000A000000000000000000000000000000000000000000000 000000000000000000000000000000000000000     00000000                                                                                                                        000000000000000000
F0010000006812900005000090013859100013552100000000000000000201502120002001ALUMARKET BARRANQUILLA S.A.S.                     D000000000036400000000000000000000100010010000000000000000000000F0010000006812900520150212000101 00000000000000000000000000000000000000000000000000000000000000000000000000000000000000000000000000000000000000000N 00000000000NCONT   00    00000000000          00000000000000000000000000000000000000000000 000000000000000A000000000000000000000000000000000000000000000 000000000000000000000000000000000000000     00000000                                                                                                                        000000000000000000
F0010000006813000001000000869805000011050500000000000000000201502120002001WILLMAN RAMBAL                                    D000000013000000000000000000000000100010010000000000000000000000F0010000006813000120150212000101 00000000000000000000000000000000000000000000000000000000000000000000000000000000000000000000000000000000000000000N 00000000000NCONT   00    00000000000          00000000000000000000000000000000000000000000 000000000000000A000000000000000000000000000000000000000000000 000000000000000000000000000000000000000     00000000                                                                                                                        000000000000000000
F0010000006813000002000000869805000041450500000000000000000201502120002001WILLMAN RAMBAL                                    C000000011500000000000000000000000100010010000000000000000000000F0010000006813000220150212000101 00000000000000000000000000000000000000000000000000000000000000000000000000000000000000000000000000000000000000000N 00000000000NCONT   00    00000000000          00000000000000000000000000000000000000000000 000000000000000A000000000000000000000000000000000000000000000 000000000000000000000000000000000000000     00000000                                                                                                                        000000000000000000
F0010000006813000003000000869805000042505000000000000000000201502120002001WILLMAN RAMBAL                                    C000000001500000000000000000000000100010010000000000000000000000F0010000006813000320150212000101 00000000000000000000000000000000000000000000000000000000000000000000000000000000000000000000000000000000000000000N 00000000000NCONT   00    00000000000          00000000000000000000000000000000000000000000 000000000000000A000000000000000000000000000000000000000000000 000000000000000000000000000000000000000     00000000                                                                                                                        000000000000000000
F0010000006813000004000000869805000023658300000000000000000201502120002001WILLMAN RAMBAL                                    C000000000092000000000000000000000100010010000000000000000000000F0010000006813000420150212000101 00000000000000000000000000000000000000000000000000000000000000000000000000000000000000000000000000000000000000000N 00000000000NCONT   00    00000000000          00000000000000000000000000000000000000000000 000000000000000A000000000000000000000000000000000000000000000 000000000000000000000000000000000000000     00000000                                                                                                                        000000000000000000
F0010000006813000005000000869805000013552100000000000000000201502120002001WILLMAN RAMBAL                                    D000000000092000000000000000000000100010010000000000000000000000F0010000006813000520150212000101 00000000000000000000000000000000000000000000000000000000000000000000000000000000000000000000000000000000000000000N 00000000000NCONT   00    00000000000          00000000000000000000000000000000000000000000 000000000000000A000000000000000000000000000000000000000000000 000000000000000000000000000000000000000     00000000                                                                                                                        000000000000000000
F0010000006813100001000080201411900011050500000000000000000201502120002001PLASTISERVICIOS S DE H                            D000000015400000000000000000000000100010010000000000000000000000F0010000006813100120150212000101 00000000000000000000000000000000000000000000000000000000000000000000000000000000000000000000000000000000000000000N 00000000000NCONT   00    00000000000          00000000000000000000000000000000000000000000 000000000000000A000000000000000000000000000000000000000000000 000000000000000000000000000000000000000     00000000                                                                                                                        000000000000000000
F0010000006813100002000080201411900041450500000000000000000201502120002001PLASTISERVICIOS S DE H                            C000000012600000000000000000000000100010010000000000000000000000F0010000006813100220150212000101 00000000000000000000000000000000000000000000000000000000000000000000000000000000000000000000000000000000000000000N 00000000000NCONT   00    00000000000          00000000000000000000000000000000000000000000 000000000000000A000000000000000000000000000000000000000000000 000000000000000000000000000000000000000     00000000                                                                                                                        000000000000000000
F0010000006813100003000080201411900042505000000000000000000201502120002001PLASTISERVICIOS S DE H                            C000000002800000000000000000000000100010010000000000000000000000F0010000006813100320150212000101 00000000000000000000000000000000000000000000000000000000000000000000000000000000000000000000000000000000000000000N 00000000000NCONT   00    00000000000          00000000000000000000000000000000000000000000 000000000000000A000000000000000000000000000000000000000000000 000000000000000000000000000000000000000     00000000                                                                                                                        000000000000000000
F0010000006813100004000080201411900023658300000000000000000201502120002001PLASTISERVICIOS S DE H                            C000000000100800000000000000000000100010010000000000000000000000F0010000006813100420150212000101 00000000000000000000000000000000000000000000000000000000000000000000000000000000000000000000000000000000000000000N 00000000000NCONT   00    00000000000          00000000000000000000000000000000000000000000 000000000000000A000000000000000000000000000000000000000000000 000000000000000000000000000000000000000     00000000                                                                                                                        000000000000000000
F0010000006813100005000080201411900013552100000000000000000201502120002001PLASTISERVICIOS S DE H                            D000000000100800000000000000000000100010010000000000000000000000F0010000006813100520150212000101 00000000000000000000000000000000000000000000000000000000000000000000000000000000000000000000000000000000000000000N 00000000000NCONT   00    00000000000          00000000000000000000000000000000000000000000 000000000000000A000000000000000000000000000000000000000000000 000000000000000000000000000000000000000     00000000                                                                                                                        000000000000000000
F0010000006813200001000000431178400011050500000000000000000201502120002001EFRAIN ALVAREZ                                    D000000003650000000000000000000000100010010000000000000000000000F0010000006813200120150212000101 00000000000000000000000000000000000000000000000000000000000000000000000000000000000000000000000000000000000000000N 00000000000NCONT   00    00000000000          00000000000000000000000000000000000000000000 000000000000000A000000000000000000000000000000000000000000000 000000000000000000000000000000000000000     00000000                                                                                                                        000000000000000000
F0010000006813200002000000431178400041450500000000000000000201502120002001EFRAIN ALVAREZ                                    C000000003600000000000000000000000100010010000000000000000000000F0010000006813200220150212000101 00000000000000000000000000000000000000000000000000000000000000000000000000000000000000000000000000000000000000000N 00000000000NCONT   00    00000000000          00000000000000000000000000000000000000000000 000000000000000A000000000000000000000000000000000000000000000 000000000000000000000000000000000000000     00000000                                                                                                                        000000000000000000
F0010000006813200003000000431178400042505000000000000000000201502120002001EFRAIN ALVAREZ                                    C000000000050000000000000000000000100010010000000000000000000000F0010000006813200320150212000101 00000000000000000000000000000000000000000000000000000000000000000000000000000000000000000000000000000000000000000N 00000000000NCONT   00    00000000000          00000000000000000000000000000000000000000000 000000000000000A000000000000000000000000000000000000000000000 000000000000000000000000000000000000000     00000000                                                                                                                        000000000000000000
F0010000006813200004000000431178400023658300000000000000000201502120002001EFRAIN ALVAREZ                                    C000000000028800000000000000000000100010010000000000000000000000F0010000006813200420150212000101 00000000000000000000000000000000000000000000000000000000000000000000000000000000000000000000000000000000000000000N 00000000000NCONT   00    00000000000          00000000000000000000000000000000000000000000 000000000000000A000000000000000000000000000000000000000000000 000000000000000000000000000000000000000     00000000                                                                                                                        000000000000000000
F0010000006813200005000000431178400013552100000000000000000201502120002001EFRAIN ALVAREZ                                    D000000000028800000000000000000000100010010000000000000000000000F0010000006813200520150212000101 00000000000000000000000000000000000000000000000000000000000000000000000000000000000000000000000000000000000000000N 00000000000NCONT   00    00000000000          00000000000000000000000000000000000000000000 000000000000000A000000000000000000000000000000000000000000000 000000000000000000000000000000000000000     00000000                                                                                                                        000000000000000000
F0010000006813300001000005525050200011050500000000000000000201502120002001PLASTICOS  DE LA COSTA                            D000000003246000000000000000000000100010010000000000000000000000F0010000006813300120150212000101 00000000000000000000000000000000000000000000000000000000000000000000000000000000000000000000000000000000000000000N 00000000000NCONT   00    00000000000          00000000000000000000000000000000000000000000 000000000000000A000000000000000000000000000000000000000000000 000000000000000000000000000000000000000     00000000                                                                                                                        000000000000000000
F0010000006813300002000005525050200041450500000000000000000201502120002001PLASTICOS  DE LA COSTA                            C000000003146000000000000000000000100010010000000000000000000000F0010000006813300220150212000101 00000000000000000000000000000000000000000000000000000000000000000000000000000000000000000000000000000000000000000N 00000000000NCONT   00    00000000000          00000000000000000000000000000000000000000000 000000000000000A000000000000000000000000000000000000000000000 000000000000000000000000000000000000000     00000000                                                                                                                        000000000000000000
F0010000006813300003000005525050200042505000000000000000000201502120002001PLASTICOS  DE LA COSTA                            C000000000100000000000000000000000100010010000000000000000000000F0010000006813300320150212000101 00000000000000000000000000000000000000000000000000000000000000000000000000000000000000000000000000000000000000000N 00000000000NCONT   00    00000000000          00000000000000000000000000000000000000000000 000000000000000A000000000000000000000000000000000000000000000 000000000000000000000000000000000000000     00000000                                                                                                                        000000000000000000
F0010000006813300004000005525050200023658300000000000000000201502120002001PLASTICOS  DE LA COSTA                            C000000000025200000000000000000000100010010000000000000000000000F0010000006813300420150212000101 00000000000000000000000000000000000000000000000000000000000000000000000000000000000000000000000000000000000000000N 00000000000NCONT   00    00000000000          00000000000000000000000000000000000000000000 000000000000000A000000000000000000000000000000000000000000000 000000000000000000000000000000000000000     00000000                                                                                                                        000000000000000000
F0010000006813300005000005525050200013552100000000000000000201502120002001PLASTICOS  DE LA COSTA                            D000000000025200000000000000000000100010010000000000000000000000F0010000006813300520150212000101 00000000000000000000000000000000000000000000000000000000000000000000000000000000000000000000000000000000000000000N 00000000000NCONT   00    00000000000          00000000000000000000000000000000000000000000 000000000000000A000000000000000000000000000000000000000000000 000000000000000000000000000000000000000     00000000                                                                                                                        000000000000000000
F0010000006813400001000003918375500011050500000000000000000201502120002001GLORIA STELLA PEREZ                               D000000001300000000000000000000000100010010000000000000000000000F0010000006813400120150212000101 00000000000000000000000000000000000000000000000000000000000000000000000000000000000000000000000000000000000000000N 00000000000NCONT   00    00000000000          00000000000000000000000000000000000000000000 000000000000000A000000000000000000000000000000000000000000000 000000000000000000000000000000000000000     00000000                                                                                                                        000000000000000000
F0010000006813400002000003918375500041450500000000000000000201502120002001GLORIA STELLA PEREZ                               C000000001000000000000000000000000100010010000000000000000000000F0010000006813400220150212000101 00000000000000000000000000000000000000000000000000000000000000000000000000000000000000000000000000000000000000000N 00000000000NCONT   00    00000000000          00000000000000000000000000000000000000000000 000000000000000A000000000000000000000000000000000000000000000 000000000000000000000000000000000000000     00000000                                                                                                                        000000000000000000
F0010000006813400003000003918375500042505000000000000000000201502120002001GLORIA STELLA PEREZ                               C000000000300000000000000000000000100010010000000000000000000000F0010000006813400320150212000101 00000000000000000000000000000000000000000000000000000000000000000000000000000000000000000000000000000000000000000N 00000000000NCONT   00    00000000000          00000000000000000000000000000000000000000000 000000000000000A000000000000000000000000000000000000000000000 000000000000000000000000000000000000000     00000000                                                                                                                        000000000000000000
F0010000006813400004000003918375500023658300000000000000000201502120002001GLORIA STELLA PEREZ                               C000000000008000000000000000000000100010010000000000000000000000F0010000006813400420150212000101 00000000000000000000000000000000000000000000000000000000000000000000000000000000000000000000000000000000000000000N 00000000000NCONT   00    00000000000          00000000000000000000000000000000000000000000 000000000000000A000000000000000000000000000000000000000000000 000000000000000000000000000000000000000     00000000                                                                                                                        000000000000000000
F0010000006813400005000003918375500013552100000000000000000201502120002001GLORIA STELLA PEREZ                               D000000000008000000000000000000000100010010000000000000000000000F0010000006813400520150212000101 00000000000000000000000000000000000000000000000000000000000000000000000000000000000000000000000000000000000000000N 00000000000NCONT   00    00000000000          00000000000000000000000000000000000000000000 000000000000000A000000000000000000000000000000000000000000000 000000000000000000000000000000000000000     00000000                                                                                                                        000000000000000000
F0010000006813500001000003918375500011050500000000000000000201502120002001GLORIA STELLA PEREZ                               D000000001100000000000000000000000100010010000000000000000000000F0010000006813500120150212000101 00000000000000000000000000000000000000000000000000000000000000000000000000000000000000000000000000000000000000000N 00000000000NCONT   00    00000000000          00000000000000000000000000000000000000000000 000000000000000A000000000000000000000000000000000000000000000 000000000000000000000000000000000000000     00000000                                                                                                                        000000000000000000
F0010000006813500002000003918375500041450500000000000000000201502120002001GLORIA STELLA PEREZ                               C000000000400000000000000000000000100010010000000000000000000000F0010000006813500220150212000101 00000000000000000000000000000000000000000000000000000000000000000000000000000000000000000000000000000000000000000N 00000000000NCONT   00    00000000000          00000000000000000000000000000000000000000000 000000000000000A000000000000000000000000000000000000000000000 000000000000000000000000000000000000000     00000000                                                                                                                        000000000000000000
F0010000006813500003000003918375500042505000000000000000000201502120002001GLORIA STELLA PEREZ                               C000000000700000000000000000000000100010010000000000000000000000F0010000006813500320150212000101 00000000000000000000000000000000000000000000000000000000000000000000000000000000000000000000000000000000000000000N 00000000000NCONT   00    00000000000          00000000000000000000000000000000000000000000 000000000000000A000000000000000000000000000000000000000000000 000000000000000000000000000000000000000     00000000                                                                                                                        000000000000000000
F0010000006813500004000003918375500023658300000000000000000201502120002001GLORIA STELLA PEREZ                               C000000000003200000000000000000000100010010000000000000000000000F0010000006813500420150212000101 00000000000000000000000000000000000000000000000000000000000000000000000000000000000000000000000000000000000000000N 00000000000NCONT   00    00000000000          00000000000000000000000000000000000000000000 000000000000000A000000000000000000000000000000000000000000000 000000000000000000000000000000000000000     00000000                                                                                                                        000000000000000000
F0010000006813500005000003918375500013552100000000000000000201502120002001GLORIA STELLA PEREZ                               D000000000003200000000000000000000100010010000000000000000000000F0010000006813500520150212000101 00000000000000000000000000000000000000000000000000000000000000000000000000000000000000000000000000000000000000000N 00000000000NCONT   00    00000000000          00000000000000000000000000000000000000000000 000000000000000A000000000000000000000000000000000000000000000 000000000000000000000000000000000000000     00000000                                                                                                                        000000000000000000
F0010000006813600001000003918375500011050500000000000000000201502120002001GLORIA STELLA PEREZ                               D000000002300000000000000000000000100010010000000000000000000000F0010000006813600120150212000101 00000000000000000000000000000000000000000000000000000000000000000000000000000000000000000000000000000000000000000N 00000000000NCONT   00    00000000000          00000000000000000000000000000000000000000000 000000000000000A000000000000000000000000000000000000000000000 000000000000000000000000000000000000000     00000000                                                                                                                        000000000000000000
F0010000006813600002000003918375500041450500000000000000000201502120002001GLORIA STELLA PEREZ                               C000000001800000000000000000000000100010010000000000000000000000F0010000006813600220150212000101 00000000000000000000000000000000000000000000000000000000000000000000000000000000000000000000000000000000000000000N 00000000000NCONT   00    00000000000          00000000000000000000000000000000000000000000 000000000000000A000000000000000000000000000000000000000000000 000000000000000000000000000000000000000     00000000                                                                                                                        000000000000000000
F0010000006813600003000003918375500042505000000000000000000201502120002001GLORIA STELLA PEREZ                               C000000000500000000000000000000000100010010000000000000000000000F0010000006813600320150212000101 00000000000000000000000000000000000000000000000000000000000000000000000000000000000000000000000000000000000000000N 00000000000NCONT   00    00000000000          00000000000000000000000000000000000000000000 000000000000000A000000000000000000000000000000000000000000000 000000000000000000000000000000000000000     00000000                                                                                                                        000000000000000000
F0010000006813600004000003918375500023658300000000000000000201502120002001GLORIA STELLA PEREZ                               C000000000014400000000000000000000100010010000000000000000000000F0010000006813600420150212000101 00000000000000000000000000000000000000000000000000000000000000000000000000000000000000000000000000000000000000000N 00000000000NCONT   00    00000000000          00000000000000000000000000000000000000000000 000000000000000A000000000000000000000000000000000000000000000 000000000000000000000000000000000000000     00000000                                                                                                                        000000000000000000
F0010000006813600005000003918375500013552100000000000000000201502120002001GLORIA STELLA PEREZ                               D000000000014400000000000000000000100010010000000000000000000000F0010000006813600520150212000101 00000000000000000000000000000000000000000000000000000000000000000000000000000000000000000000000000000000000000000N 00000000000NCONT   00    00000000000          00000000000000000000000000000000000000000000 000000000000000A000000000000000000000000000000000000000000000 000000000000000000000000000000000000000     00000000                                                                                                                        000000000000000000
F0010000006813700001000003918375500011050500000000000000000201502120002001GLORIA STELLA PEREZ                               D000000005000000000000000000000000100010010000000000000000000000F0010000006813700120150212000101 00000000000000000000000000000000000000000000000000000000000000000000000000000000000000000000000000000000000000000N 00000000000NCONT   00    00000000000          00000000000000000000000000000000000000000000 000000000000000A000000000000000000000000000000000000000000000 000000000000000000000000000000000000000     00000000                                                                                                                        000000000000000000
F0010000006813700002000003918375500041450500000000000000000201502120002001GLORIA STELLA PEREZ                               C000000003000000000000000000000000100010010000000000000000000000F0010000006813700220150212000101 00000000000000000000000000000000000000000000000000000000000000000000000000000000000000000000000000000000000000000N 00000000000NCONT   00    00000000000          00000000000000000000000000000000000000000000 000000000000000A000000000000000000000000000000000000000000000 000000000000000000000000000000000000000     00000000                                                                                                                        000000000000000000
F0010000006813700003000003918375500042505000000000000000000201502120002001GLORIA STELLA PEREZ                               C000000002000000000000000000000000100010010000000000000000000000F0010000006813700320150212000101 00000000000000000000000000000000000000000000000000000000000000000000000000000000000000000000000000000000000000000N 00000000000NCONT   00    00000000000          00000000000000000000000000000000000000000000 000000000000000A000000000000000000000000000000000000000000000 000000000000000000000000000000000000000     00000000                                                                                                                        000000000000000000
F0010000006813700004000003918375500023658300000000000000000201502120002001GLORIA STELLA PEREZ                               C000000000024000000000000000000000100010010000000000000000000000F0010000006813700420150212000101 00000000000000000000000000000000000000000000000000000000000000000000000000000000000000000000000000000000000000000N 00000000000NCONT   00    00000000000          00000000000000000000000000000000000000000000 000000000000000A000000000000000000000000000000000000000000000 000000000000000000000000000000000000000     00000000                                                                                                                        000000000000000000
F0010000006813700005000003918375500013552100000000000000000201502120002001GLORIA STELLA PEREZ                               D000000000024000000000000000000000100010010000000000000000000000F0010000006813700520150212000101 00000000000000000000000000000000000000000000000000000000000000000000000000000000000000000000000000000000000000000N 00000000000NCONT   00    00000000000          00000000000000000000000000000000000000000000 000000000000000A000000000000000000000000000000000000000000000 000000000000000000000000000000000000000     00000000                                                                                                                        000000000000000000
F0010000006813800001000000431178400011050500000000000000000201502120002001EFRAIN ALVAREZ                                    D000000003720000000000000000000000100010010000000000000000000000F0010000006813800120150212000101 00000000000000000000000000000000000000000000000000000000000000000000000000000000000000000000000000000000000000000N 00000000000NCONT   00    00000000000          00000000000000000000000000000000000000000000 000000000000000A000000000000000000000000000000000000000000000 000000000000000000000000000000000000000     00000000                                                                                                                        000000000000000000
F0010000006813800002000000431178400041450500000000000000000201502120002001EFRAIN ALVAREZ                                    C000000003570000000000000000000000100010010000000000000000000000F0010000006813800220150212000101 00000000000000000000000000000000000000000000000000000000000000000000000000000000000000000000000000000000000000000N 00000000000NCONT   00    00000000000          00000000000000000000000000000000000000000000 000000000000000A000000000000000000000000000000000000000000000 000000000000000000000000000000000000000     00000000                                                                                                                        000000000000000000
F0010000006813800003000000431178400042505000000000000000000201502120002001EFRAIN ALVAREZ                                    C000000000150000000000000000000000100010010000000000000000000000F0010000006813800320150212000101 00000000000000000000000000000000000000000000000000000000000000000000000000000000000000000000000000000000000000000N 00000000000NCONT   00    00000000000          00000000000000000000000000000000000000000000 000000000000000A000000000000000000000000000000000000000000000 000000000000000000000000000000000000000     00000000                                                                                                                        000000000000000000
F0010000006813800004000000431178400023658300000000000000000201502120002001EFRAIN ALVAREZ                                    C000000000028600000000000000000000100010010000000000000000000000F0010000006813800420150212000101 00000000000000000000000000000000000000000000000000000000000000000000000000000000000000000000000000000000000000000N 00000000000NCONT   00    00000000000          00000000000000000000000000000000000000000000 000000000000000A000000000000000000000000000000000000000000000 000000000000000000000000000000000000000     00000000                                                                                                                        000000000000000000
F0010000006813800005000000431178400013552100000000000000000201502120002001EFRAIN ALVAREZ                                    D000000000028600000000000000000000100010010000000000000000000000F0010000006813800520150212000101 00000000000000000000000000000000000000000000000000000000000000000000000000000000000000000000000000000000000000000N 00000000000NCONT   00    00000000000          00000000000000000000000000000000000000000000 000000000000000A000000000000000000000000000000000000000000000 000000000000000000000000000000000000000     00000000                                                                                                                        000000000000000000
F0010000006813900001000000431178400011050500000000000000000201502120002001EFRAIN ALVAREZ                                    D000000002530000000000000000000000100010010000000000000000000000F0010000006813900120150212000101 00000000000000000000000000000000000000000000000000000000000000000000000000000000000000000000000000000000000000000N 00000000000NCONT   00    00000000000          00000000000000000000000000000000000000000000 000000000000000A000000000000000000000000000000000000000000000 000000000000000000000000000000000000000     00000000                                                                                                                        000000000000000000
F0010000006813900002000000431178400041450500000000000000000201502120002001EFRAIN ALVAREZ                                    C000000002380000000000000000000000100010010000000000000000000000F0010000006813900220150212000101 00000000000000000000000000000000000000000000000000000000000000000000000000000000000000000000000000000000000000000N 00000000000NCONT   00    00000000000          00000000000000000000000000000000000000000000 000000000000000A000000000000000000000000000000000000000000000 000000000000000000000000000000000000000     00000000                                                                                                                        000000000000000000
F0010000006813900003000000431178400042505000000000000000000201502120002001EFRAIN ALVAREZ                                    C000000000150000000000000000000000100010010000000000000000000000F0010000006813900320150212000101 00000000000000000000000000000000000000000000000000000000000000000000000000000000000000000000000000000000000000000N 00000000000NCONT   00    00000000000          00000000000000000000000000000000000000000000 000000000000000A000000000000000000000000000000000000000000000 000000000000000000000000000000000000000     00000000                                                                                                                        000000000000000000
F0010000006813900004000000431178400023658300000000000000000201502120002001EFRAIN ALVAREZ                                    C000000000019000000000000000000000100010010000000000000000000000F0010000006813900420150212000101 00000000000000000000000000000000000000000000000000000000000000000000000000000000000000000000000000000000000000000N 00000000000NCONT   00    00000000000          00000000000000000000000000000000000000000000 000000000000000A000000000000000000000000000000000000000000000 000000000000000000000000000000000000000     00000000                                                                                                                        000000000000000000
F0010000006813900005000000431178400013552100000000000000000201502120002001EFRAIN ALVAREZ                                    D000000000019000000000000000000000100010010000000000000000000000F0010000006813900520150212000101 00000000000000000000000000000000000000000000000000000000000000000000000000000000000000000000000000000000000000000N 00000000000NCONT   00    00000000000          00000000000000000000000000000000000000000000 000000000000000A000000000000000000000000000000000000000000000 000000000000000000000000000000000000000     00000000                                                                                                                        000000000000000000
F0010000006814000001000000431178400011050500000000000000000201502120002001EFRAIN ALVAREZ                                    D000000003820000000000000000000000100010010000000000000000000000F0010000006814000120150212000101 00000000000000000000000000000000000000000000000000000000000000000000000000000000000000000000000000000000000000000N 00000000000NCONT   00    00000000000          00000000000000000000000000000000000000000000 000000000000000A000000000000000000000000000000000000000000000 000000000000000000000000000000000000000     00000000                                                                                                                        000000000000000000
F0010000006814000002000000431178400041450500000000000000000201502120002001EFRAIN ALVAREZ                                    C000000003570000000000000000000000100010010000000000000000000000F0010000006814000220150212000101 00000000000000000000000000000000000000000000000000000000000000000000000000000000000000000000000000000000000000000N 00000000000NCONT   00    00000000000          00000000000000000000000000000000000000000000 000000000000000A000000000000000000000000000000000000000000000 000000000000000000000000000000000000000     00000000                                                                                                                        000000000000000000
F0010000006814000003000000431178400042505000000000000000000201502120002001EFRAIN ALVAREZ                                    C000000000250000000000000000000000100010010000000000000000000000F0010000006814000320150212000101 00000000000000000000000000000000000000000000000000000000000000000000000000000000000000000000000000000000000000000N 00000000000NCONT   00    00000000000          00000000000000000000000000000000000000000000 000000000000000A000000000000000000000000000000000000000000000 000000000000000000000000000000000000000     00000000                                                                                                                        000000000000000000
F0010000006814000004000000431178400023658300000000000000000201502120002001EFRAIN ALVAREZ                                    C000000000028600000000000000000000100010010000000000000000000000F0010000006814000420150212000101 00000000000000000000000000000000000000000000000000000000000000000000000000000000000000000000000000000000000000000N 00000000000NCONT   00    00000000000          00000000000000000000000000000000000000000000 000000000000000A000000000000000000000000000000000000000000000 000000000000000000000000000000000000000     00000000                                                                                                                        000000000000000000
F0010000006814000005000000431178400013552100000000000000000201502120002001EFRAIN ALVAREZ                                    D000000000028600000000000000000000100010010000000000000000000000F0010000006814000520150212000101 00000000000000000000000000000000000000000000000000000000000000000000000000000000000000000000000000000000000000000N 00000000000NCONT   00    00000000000          00000000000000000000000000000000000000000000 000000000000000A000000000000000000000000000000000000000000000 000000000000000000000000000000000000000     00000000                                                                                                                        000000000000000000
F0010000006814100001000001022529300011050500000000000000000201502120002001ALBERTO ALVAREZ ISAZA                             D000000000430000000000000000000000100010010000000000000000000000F0010000006814100120150212000101 00000000000000000000000000000000000000000000000000000000000000000000000000000000000000000000000000000000000000000N 00000000000NCONT   00    00000000000          00000000000000000000000000000000000000000000 000000000000000A000000000000000000000000000000000000000000000 000000000000000000000000000000000000000     00000000                                                                                                                        000000000000000000
F0010000006814100002000001022529300041450500000000000000000201502120002001ALBERTO ALVAREZ ISAZA                             C000000000380000000000000000000000100010010000000000000000000000F0010000006814100220150212000101 00000000000000000000000000000000000000000000000000000000000000000000000000000000000000000000000000000000000000000N 00000000000NCONT   00    00000000000          00000000000000000000000000000000000000000000 000000000000000A000000000000000000000000000000000000000000000 000000000000000000000000000000000000000     00000000                                                                                                                        000000000000000000
F0010000006814100003000001022529300042505000000000000000000201502120002001ALBERTO ALVAREZ ISAZA                             C000000000050000000000000000000000100010010000000000000000000000F0010000006814100320150212000101 00000000000000000000000000000000000000000000000000000000000000000000000000000000000000000000000000000000000000000N 00000000000NCONT   00    00000000000          00000000000000000000000000000000000000000000 000000000000000A000000000000000000000000000000000000000000000 000000000000000000000000000000000000000     00000000                                                                                                                        000000000000000000
F0010000006814100004000001022529300023658300000000000000000201502120002001ALBERTO ALVAREZ ISAZA                             C000000000003000000000000000000000100010010000000000000000000000F0010000006814100420150212000101 00000000000000000000000000000000000000000000000000000000000000000000000000000000000000000000000000000000000000000N 00000000000NCONT   00    00000000000          00000000000000000000000000000000000000000000 000000000000000A000000000000000000000000000000000000000000000 000000000000000000000000000000000000000     00000000                                                                                                                        000000000000000000
F0010000006814100005000001022529300013552100000000000000000201502120002001ALBERTO ALVAREZ ISAZA                             D000000000003000000000000000000000100010010000000000000000000000F0010000006814100520150212000101 00000000000000000000000000000000000000000000000000000000000000000000000000000000000000000000000000000000000000000N 00000000000NCONT   00    00000000000          00000000000000000000000000000000000000000000 000000000000000A000000000000000000000000000000000000000000000 000000000000000000000000000000000000000     00000000                                                                                                                        000000000000000000
F0010000006814200001000089011069100011050500000000000000000201502120002001LA CASA DE LAS ALFOMBRAS LTDA                     D000000003000000000000000000000000100010010000000000000000000000F0010000006814200120150212000101 00000000000000000000000000000000000000000000000000000000000000000000000000000000000000000000000000000000000000000N 00000000000NCONT   00    00000000000          00000000000000000000000000000000000000000000 000000000000000A000000000000000000000000000000000000000000000 000000000000000000000000000000000000000     00000000                                                                                                                        000000000000000000
F0010000006814200002000089011069100041450500000000000000000201502120002001LA CASA DE LAS ALFOMBRAS LTDA                     C000000001800000000000000000000000100010010000000000000000000000F0010000006814200220150212000101 00000000000000000000000000000000000000000000000000000000000000000000000000000000000000000000000000000000000000000N 00000000000NCONT   00    00000000000          00000000000000000000000000000000000000000000 000000000000000A000000000000000000000000000000000000000000000 000000000000000000000000000000000000000     00000000                                                                                                                        000000000000000000
F0010000006814200003000089011069100042505000000000000000000201502120002001LA CASA DE LAS ALFOMBRAS LTDA                     C000000001200000000000000000000000100010010000000000000000000000F0010000006814200320150212000101 00000000000000000000000000000000000000000000000000000000000000000000000000000000000000000000000000000000000000000N 00000000000NCONT   00    00000000000          00000000000000000000000000000000000000000000 000000000000000A000000000000000000000000000000000000000000000 000000000000000000000000000000000000000     00000000                                                                                                                        000000000000000000
F0010000006814200004000089011069100023658300000000000000000201502120002001LA CASA DE LAS ALFOMBRAS LTDA                     C000000000014400000000000000000000100010010000000000000000000000F0010000006814200420150212000101 00000000000000000000000000000000000000000000000000000000000000000000000000000000000000000000000000000000000000000N 00000000000NCONT   00    00000000000          00000000000000000000000000000000000000000000 000000000000000A000000000000000000000000000000000000000000000 000000000000000000000000000000000000000     00000000                                                                                                                        000000000000000000
F0010000006814200005000089011069100013552100000000000000000201502120002001LA CASA DE LAS ALFOMBRAS LTDA                     D000000000014400000000000000000000100010010000000000000000000000F0010000006814200520150212000101 00000000000000000000000000000000000000000000000000000000000000000000000000000000000000000000000000000000000000000N 00000000000NCONT   00    00000000000          00000000000000000000000000000000000000000000 000000000000000A000000000000000000000000000000000000000000000 000000000000000000000000000000000000000     00000000                                                                                                                        000000000000000000
F0010000006814300001000089011069100011050500000000000000000201502120002001LA CASA DE LAS ALFOMBRAS LTDA                     D000000002200000000000000000000000100010010000000000000000000000F0010000006814300120150212000101 00000000000000000000000000000000000000000000000000000000000000000000000000000000000000000000000000000000000000000N 00000000000NCONT   00    00000000000          00000000000000000000000000000000000000000000 000000000000000A000000000000000000000000000000000000000000000 000000000000000000000000000000000000000     00000000                                                                                                                        000000000000000000
F0010000006814300002000089011069100041450500000000000000000201502120002001LA CASA DE LAS ALFOMBRAS LTDA                     C000000001800000000000000000000000100010010000000000000000000000F0010000006814300220150212000101 00000000000000000000000000000000000000000000000000000000000000000000000000000000000000000000000000000000000000000N 00000000000NCONT   00    00000000000          00000000000000000000000000000000000000000000 000000000000000A000000000000000000000000000000000000000000000 000000000000000000000000000000000000000     00000000                                                                                                                        000000000000000000
F0010000006814300003000089011069100042505000000000000000000201502120002001LA CASA DE LAS ALFOMBRAS LTDA                     C000000000400000000000000000000000100010010000000000000000000000F0010000006814300320150212000101 00000000000000000000000000000000000000000000000000000000000000000000000000000000000000000000000000000000000000000N 00000000000NCONT   00    00000000000          00000000000000000000000000000000000000000000 000000000000000A000000000000000000000000000000000000000000000 000000000000000000000000000000000000000     00000000                                                                                                                        000000000000000000
F0010000006814300004000089011069100023658300000000000000000201502120002001LA CASA DE LAS ALFOMBRAS LTDA                     C000000000014400000000000000000000100010010000000000000000000000F0010000006814300420150212000101 00000000000000000000000000000000000000000000000000000000000000000000000000000000000000000000000000000000000000000N 00000000000NCONT   00    00000000000          00000000000000000000000000000000000000000000 000000000000000A000000000000000000000000000000000000000000000 000000000000000000000000000000000000000     00000000                                                                                                                        000000000000000000
F0010000006814300005000089011069100013552100000000000000000201502120002001LA CASA DE LAS ALFOMBRAS LTDA                     D000000000014400000000000000000000100010010000000000000000000000F0010000006814300520150212000101 00000000000000000000000000000000000000000000000000000000000000000000000000000000000000000000000000000000000000000N 00000000000NCONT   00    00000000000          00000000000000000000000000000000000000000000 000000000000000A000000000000000000000000000000000000000000000 000000000000000000000000000000000000000     00000000                                                                                                                        000000000000000000
F0010000006814400001000090050144800011050500000000000000000201502120002001PLASTICOS JR ASOCIADOS SAS                        D000000004800000000000000000000000100010010000000000000000000000F0010000006814400120150212000101 00000000000000000000000000000000000000000000000000000000000000000000000000000000000000000000000000000000000000000N 00000000000NCONT   00    00000000000          00000000000000000000000000000000000000000000 000000000000000A000000000000000000000000000000000000000000000 000000000000000000000000000000000000000     00000000                                                                                                                        000000000000000000
F0010000006814400002000090050144800041450500000000000000000201502120002001PLASTICOS JR ASOCIADOS SAS                        C000000004300000000000000000000000100010010000000000000000000000F0010000006814400220150212000101 00000000000000000000000000000000000000000000000000000000000000000000000000000000000000000000000000000000000000000N 00000000000NCONT   00    00000000000          00000000000000000000000000000000000000000000 000000000000000A000000000000000000000000000000000000000000000 000000000000000000000000000000000000000     00000000                                                                                                                        000000000000000000
F0010000006814400003000090050144800042505000000000000000000201502120002001PLASTICOS JR ASOCIADOS SAS                        C000000000500000000000000000000000100010010000000000000000000000F0010000006814400320150212000101 00000000000000000000000000000000000000000000000000000000000000000000000000000000000000000000000000000000000000000N 00000000000NCONT   00    00000000000          00000000000000000000000000000000000000000000 000000000000000A000000000000000000000000000000000000000000000 000000000000000000000000000000000000000     00000000                                                                                                                        000000000000000000
F0010000006814400004000090050144800023658300000000000000000201502120002001PLASTICOS JR ASOCIADOS SAS                        C000000000034400000000000000000000100010010000000000000000000000F0010000006814400420150212000101 00000000000000000000000000000000000000000000000000000000000000000000000000000000000000000000000000000000000000000N 00000000000NCONT   00    00000000000          00000000000000000000000000000000000000000000 000000000000000A000000000000000000000000000000000000000000000 000000000000000000000000000000000000000     00000000                                                                                                                        000000000000000000
F0010000006814400005000090050144800013552100000000000000000201502120002001PLASTICOS JR ASOCIADOS SAS                        D000000000034400000000000000000000100010010000000000000000000000F0010000006814400520150212000101 00000000000000000000000000000000000000000000000000000000000000000000000000000000000000000000000000000000000000000N 00000000000NCONT   00    00000000000          00000000000000000000000000000000000000000000 000000000000000A000000000000000000000000000000000000000000000 000000000000000000000000000000000000000     00000000                                                                                                                        000000000000000000
F0010000006814500001000002245670100011050500000000000000000201502120002001YOLANDA  TOBON                                    D000000001370000000000000000000000100010010000000000000000000000F0010000006814500120150212000101 00000000000000000000000000000000000000000000000000000000000000000000000000000000000000000000000000000000000000000N 00000000000NCONT   00    00000000000          00000000000000000000000000000000000000000000 000000000000000A000000000000000000000000000000000000000000000 000000000000000000000000000000000000000     00000000                                                                                                                        000000000000000000
F0010000006814500002000002245670100041450500000000000000000201502120002001YOLANDA  TOBON                                    C000000001000000000000000000000000100010010000000000000000000000F0010000006814500220150212000101 00000000000000000000000000000000000000000000000000000000000000000000000000000000000000000000000000000000000000000N 00000000000NCONT   00    00000000000          00000000000000000000000000000000000000000000 000000000000000A000000000000000000000000000000000000000000000 000000000000000000000000000000000000000     00000000                                                                                                                        000000000000000000
F0010000006814500003000002245670100042505000000000000000000201502120002001YOLANDA  TOBON                                    C000000000370000000000000000000000100010010000000000000000000000F0010000006814500320150212000101 00000000000000000000000000000000000000000000000000000000000000000000000000000000000000000000000000000000000000000N 00000000000NCONT   00    00000000000          00000000000000000000000000000000000000000000 000000000000000A000000000000000000000000000000000000000000000 000000000000000000000000000000000000000     00000000                                                                                                                        000000000000000000
F0010000006814500004000002245670100023658300000000000000000201502120002001YOLANDA  TOBON                                    C000000000008000000000000000000000100010010000000000000000000000F0010000006814500420150212000101 00000000000000000000000000000000000000000000000000000000000000000000000000000000000000000000000000000000000000000N 00000000000NCONT   00    00000000000          00000000000000000000000000000000000000000000 000000000000000A000000000000000000000000000000000000000000000 000000000000000000000000000000000000000     00000000                                                                                                                        000000000000000000
F0010000006814500005000002245670100013552100000000000000000201502120002001YOLANDA  TOBON                                    D000000000008000000000000000000000100010010000000000000000000000F0010000006814500520150212000101 00000000000000000000000000000000000000000000000000000000000000000000000000000000000000000000000000000000000000000N 00000000000NCONT   00    00000000000          00000000000000000000000000000000000000000000 000000000000000A000000000000000000000000000000000000000000000 000000000000000000000000000000000000000     00000000                                                                                                                        000000000000000000
F0010000006814600001000002245670100011050500000000000000000201502120002001YOLANDA  TOBON                                    D000000002840000000000000000000000100010010000000000000000000000F0010000006814600120150212000101 00000000000000000000000000000000000000000000000000000000000000000000000000000000000000000000000000000000000000000N 00000000000NCONT   00    00000000000          00000000000000000000000000000000000000000000 000000000000000A000000000000000000000000000000000000000000000 000000000000000000000000000000000000000     00000000                                                                                                                        000000000000000000
F0010000006814600002000002245670100041450500000000000000000201502120002001YOLANDA  TOBON                                    C000000002500000000000000000000000100010010000000000000000000000F0010000006814600220150212000101 00000000000000000000000000000000000000000000000000000000000000000000000000000000000000000000000000000000000000000N 00000000000NCONT   00    00000000000          00000000000000000000000000000000000000000000 000000000000000A000000000000000000000000000000000000000000000 000000000000000000000000000000000000000     00000000                                                                                                                        000000000000000000
F0010000006814600003000002245670100042505000000000000000000201502120002001YOLANDA  TOBON                                    C000000000340000000000000000000000100010010000000000000000000000F0010000006814600320150212000101 00000000000000000000000000000000000000000000000000000000000000000000000000000000000000000000000000000000000000000N 00000000000NCONT   00    00000000000          00000000000000000000000000000000000000000000 000000000000000A000000000000000000000000000000000000000000000 000000000000000000000000000000000000000     00000000                                                                                                                        000000000000000000
F0010000006814600004000002245670100023658300000000000000000201502120002001YOLANDA  TOBON                                    C000000000020000000000000000000000100010010000000000000000000000F0010000006814600420150212000101 00000000000000000000000000000000000000000000000000000000000000000000000000000000000000000000000000000000000000000N 00000000000NCONT   00    00000000000          00000000000000000000000000000000000000000000 000000000000000A000000000000000000000000000000000000000000000 000000000000000000000000000000000000000     00000000                                                                                                                        000000000000000000
F0010000006814600005000002245670100013552100000000000000000201502120002001YOLANDA  TOBON                                    D000000000020000000000000000000000100010010000000000000000000000F0010000006814600520150212000101 00000000000000000000000000000000000000000000000000000000000000000000000000000000000000000000000000000000000000000N 00000000000NCONT   00    00000000000          00000000000000000000000000000000000000000000 000000000000000A000000000000000000000000000000000000000000000 000000000000000000000000000000000000000     00000000                                                                                                                        000000000000000000
F0010000006814700001000000742399700011050500000000000000000201502120002001CACHARRERIA EL NUEVO CHADID                       D000000004000000000000000000000000100010010000000000000000000000F0010000006814700120150212000101 00000000000000000000000000000000000000000000000000000000000000000000000000000000000000000000000000000000000000000N 00000000000NCONT   00    00000000000          00000000000000000000000000000000000000000000 000000000000000A000000000000000000000000000000000000000000000 000000000000000000000000000000000000000     00000000                                                                                                                        000000000000000000
F0010000006814700002000000742399700041450500000000000000000201502120002001CACHARRERIA EL NUEVO CHADID                       C000000003000000000000000000000000100010010000000000000000000000F0010000006814700220150212000101 00000000000000000000000000000000000000000000000000000000000000000000000000000000000000000000000000000000000000000N 00000000000NCONT   00    00000000000          00000000000000000000000000000000000000000000 000000000000000A000000000000000000000000000000000000000000000 000000000000000000000000000000000000000     00000000                                                                                                                        000000000000000000
F0010000006814700003000000742399700042505000000000000000000201502120002001CACHARRERIA EL NUEVO CHADID                       C000000001000000000000000000000000100010010000000000000000000000F0010000006814700320150212000101 00000000000000000000000000000000000000000000000000000000000000000000000000000000000000000000000000000000000000000N 00000000000NCONT   00    00000000000          00000000000000000000000000000000000000000000 000000000000000A000000000000000000000000000000000000000000000 000000000000000000000000000000000000000     00000000                                                                                                                        000000000000000000
F0010000006814700004000000742399700023658300000000000000000201502120002001CACHARRERIA EL NUEVO CHADID                       C000000000024000000000000000000000100010010000000000000000000000F0010000006814700420150212000101 00000000000000000000000000000000000000000000000000000000000000000000000000000000000000000000000000000000000000000N 00000000000NCONT   00    00000000000          00000000000000000000000000000000000000000000 000000000000000A000000000000000000000000000000000000000000000 000000000000000000000000000000000000000     00000000                                                                                                                        000000000000000000
F0010000006814700005000000742399700013552100000000000000000201502120002001CACHARRERIA EL NUEVO CHADID                       D000000000024000000000000000000000100010010000000000000000000000F0010000006814700520150212000101 00000000000000000000000000000000000000000000000000000000000000000000000000000000000000000000000000000000000000000N 00000000000NCONT   00    00000000000          00000000000000000000000000000000000000000000 000000000000000A000000000000000000000000000000000000000000000 000000000000000000000000000000000000000     00000000                                                                                                                        000000000000000000
F0010000006814800001000002245670100011050500000000000000000201502120002001YOLANDA  TOBON                                    D000000012200000000000000000000000100010010000000000000000000000F0010000006814800120150212000101 00000000000000000000000000000000000000000000000000000000000000000000000000000000000000000000000000000000000000000N 00000000000NCONT   00    00000000000          00000000000000000000000000000000000000000000 000000000000000A000000000000000000000000000000000000000000000 000000000000000000000000000000000000000     00000000                                                                                                                        000000000000000000
F0010000006814800002000002245670100041450500000000000000000201502120002001YOLANDA  TOBON                                    C000000010000000000000000000000000100010010000000000000000000000F0010000006814800220150212000101 00000000000000000000000000000000000000000000000000000000000000000000000000000000000000000000000000000000000000000N 00000000000NCONT   00    00000000000          00000000000000000000000000000000000000000000 000000000000000A000000000000000000000000000000000000000000000 000000000000000000000000000000000000000     00000000                                                                                                                        000000000000000000
F0010000006814800003000002245670100042505000000000000000000201502120002001YOLANDA  TOBON                                    C000000002200000000000000000000000100010010000000000000000000000F0010000006814800320150212000101 00000000000000000000000000000000000000000000000000000000000000000000000000000000000000000000000000000000000000000N 00000000000NCONT   00    00000000000          00000000000000000000000000000000000000000000 000000000000000A000000000000000000000000000000000000000000000 000000000000000000000000000000000000000     00000000                                                                                                                        000000000000000000
F0010000006814800004000002245670100023658300000000000000000201502120002001YOLANDA  TOBON                                    C000000000080000000000000000000000100010010000000000000000000000F0010000006814800420150212000101 00000000000000000000000000000000000000000000000000000000000000000000000000000000000000000000000000000000000000000N 00000000000NCONT   00    00000000000          00000000000000000000000000000000000000000000 000000000000000A000000000000000000000000000000000000000000000 000000000000000000000000000000000000000     00000000                                                                                                                        000000000000000000
F0010000006814800005000002245670100013552100000000000000000201502120002001YOLANDA  TOBON                                    D000000000080000000000000000000000100010010000000000000000000000F0010000006814800520150212000101 00000000000000000000000000000000000000000000000000000000000000000000000000000000000000000000000000000000000000000N 00000000000NCONT   00    00000000000          00000000000000000000000000000000000000000000 000000000000000A000000000000000000000000000000000000000000000 000000000000000000000000000000000000000     00000000                                                                                                                        000000000000000000
F0010000006814900001000007200023300011050500000000000000000201502120002001WILLIAM ORTEGA                                    D000000004300000000000000000000000100010010000000000000000000000F0010000006814900120150212000101 00000000000000000000000000000000000000000000000000000000000000000000000000000000000000000000000000000000000000000N 00000000000NCONT   00    00000000000          00000000000000000000000000000000000000000000 000000000000000A000000000000000000000000000000000000000000000 000000000000000000000000000000000000000     00000000                                                                                                                        000000000000000000
F0010000006814900002000007200023300041450500000000000000000201502120002001WILLIAM ORTEGA                                    C000000004000000000000000000000000100010010000000000000000000000F0010000006814900220150212000101 00000000000000000000000000000000000000000000000000000000000000000000000000000000000000000000000000000000000000000N 00000000000NCONT   00    00000000000          00000000000000000000000000000000000000000000 000000000000000A000000000000000000000000000000000000000000000 000000000000000000000000000000000000000     00000000                                                                                                                        000000000000000000
F0010000006814900003000007200023300042505000000000000000000201502120002001WILLIAM ORTEGA                                    C000000000300000000000000000000000100010010000000000000000000000F0010000006814900320150212000101 00000000000000000000000000000000000000000000000000000000000000000000000000000000000000000000000000000000000000000N 00000000000NCONT   00    00000000000          00000000000000000000000000000000000000000000 000000000000000A000000000000000000000000000000000000000000000 000000000000000000000000000000000000000     00000000                                                                                                                        000000000000000000
F0010000006814900004000007200023300023658300000000000000000201502120002001WILLIAM ORTEGA                                    C000000000032000000000000000000000100010010000000000000000000000F0010000006814900420150212000101 00000000000000000000000000000000000000000000000000000000000000000000000000000000000000000000000000000000000000000N 00000000000NCONT   00    00000000000          00000000000000000000000000000000000000000000 000000000000000A000000000000000000000000000000000000000000000 000000000000000000000000000000000000000     00000000                                                                                                                        000000000000000000
F0010000006814900005000007200023300013552100000000000000000201502120002001WILLIAM ORTEGA                                    D000000000032000000000000000000000100010010000000000000000000000F0010000006814900520150212000101 00000000000000000000000000000000000000000000000000000000000000000000000000000000000000000000000000000000000000000N 00000000000NCONT   00    00000000000          00000000000000000000000000000000000000000000 000000000000000A000000000000000000000000000000000000000000000 000000000000000000000000000000000000000     00000000                                                                                                                        000000000000000000
F0010000006815000001000007200023300011050500000000000000000201502120002001WILLIAM ORTEGA                                    D000000004300000000000000000000000100010010000000000000000000000F0010000006815000120150212000101 00000000000000000000000000000000000000000000000000000000000000000000000000000000000000000000000000000000000000000N 00000000000NCONT   00    00000000000          00000000000000000000000000000000000000000000 000000000000000A000000000000000000000000000000000000000000000 000000000000000000000000000000000000000     00000000                                                                                                                        000000000000000000
F0010000006815000002000007200023300041450500000000000000000201502120002001WILLIAM ORTEGA                                    C000000004000000000000000000000000100010010000000000000000000000F0010000006815000220150212000101 00000000000000000000000000000000000000000000000000000000000000000000000000000000000000000000000000000000000000000N 00000000000NCONT   00    00000000000          00000000000000000000000000000000000000000000 000000000000000A000000000000000000000000000000000000000000000 000000000000000000000000000000000000000     00000000                                                                                                                        000000000000000000
