F0010000008663100001000090033936200011050500000000000000000201605310002001SOUDAL COLOMBIA S.A.S                             D000000005000000000000000000000000100010010000000000000000000000F0010000008663100120160531000101 00000000000000000000000000000000000000000000000000000000000000000000000000000000000000000000000000000000000000000N 00000000000NCONT   00    00000000000          00000000000000000000000000000000000000000000 000000000000000A000000000000000000000000000000000000000000000 000000000000000000000000000000000000000     00000000                                                                                                                        000000000000000000
F0010000008663100002000090033936200041450500000000000000000201605310002001SOUDAL COLOMBIA S.A.S                             C000000004800000000000000000000000100010010000000000000000000000F0010000008663100220160531000101 00000000000000000000000000000000000000000000000000000000000000000000000000000000000000000000000000000000000000000N 00000000000NCONT   00    00000000000          00000000000000000000000000000000000000000000 000000000000000A000000000000000000000000000000000000000000000 000000000000000000000000000000000000000     00000000                                                                                                                        000000000000000000
F0010000008663100003000090033936200042505000000000000000000201605310002001SOUDAL COLOMBIA S.A.S                             C000000000200000000000000000000000100010010000000000000000000000F0010000008663100320160531000101 00000000000000000000000000000000000000000000000000000000000000000000000000000000000000000000000000000000000000000N 00000000000NCONT   00    00000000000          00000000000000000000000000000000000000000000 000000000000000A000000000000000000000000000000000000000000000 000000000000000000000000000000000000000     00000000                                                                                                                        000000000000000000
F0010000008663100004000090033936200023658300000000000000000201605310002001SOUDAL COLOMBIA S.A.S                             C000000000038400000000000000000000100010010000000000000000000000F0010000008663100420160531000101 00000000000000000000000000000000000000000000000000000000000000000000000000000000000000000000000000000000000000000N 00000000000NCONT   00    00000000000          00000000000000000000000000000000000000000000 000000000000000A000000000000000000000000000000000000000000000 000000000000000000000000000000000000000     00000000                                                                                                                        000000000000000000
F0010000008663100005000090033936200013552100000000000000000201605310002001SOUDAL COLOMBIA S.A.S                             D000000000038400000000000000000000100010010000000000000000000000F0010000008663100520160531000101 00000000000000000000000000000000000000000000000000000000000000000000000000000000000000000000000000000000000000000N 00000000000NCONT   00    00000000000          00000000000000000000000000000000000000000000 000000000000000A000000000000000000000000000000000000000000000 000000000000000000000000000000000000000     00000000                                                                                                                        000000000000000000
F0010000008663200001000007719033000011050500000000000000000201605310002001ALMACEN EL SALPICON.COM                           D000000001300000000000000000000000100010010000000000000000000000F0010000008663200120160531000101 00000000000000000000000000000000000000000000000000000000000000000000000000000000000000000000000000000000000000000N 00000000000NCONT   00    00000000000          00000000000000000000000000000000000000000000 000000000000000A000000000000000000000000000000000000000000000 000000000000000000000000000000000000000     00000000                                                                                                                        000000000000000000
F0010000008663200002000007719033000041450500000000000000000201605310002001ALMACEN EL SALPICON.COM                           C000000001200000000000000000000000100010010000000000000000000000F0010000008663200220160531000101 00000000000000000000000000000000000000000000000000000000000000000000000000000000000000000000000000000000000000000N 00000000000NCONT   00    00000000000          00000000000000000000000000000000000000000000 000000000000000A000000000000000000000000000000000000000000000 000000000000000000000000000000000000000     00000000                                                                                                                        000000000000000000
F0010000008663200003000007719033000042505000000000000000000201605310002001ALMACEN EL SALPICON.COM                           C000000000100000000000000000000000100010010000000000000000000000F0010000008663200320160531000101 00000000000000000000000000000000000000000000000000000000000000000000000000000000000000000000000000000000000000000N 00000000000NCONT   00    00000000000          00000000000000000000000000000000000000000000 000000000000000A000000000000000000000000000000000000000000000 000000000000000000000000000000000000000     00000000                                                                                                                        000000000000000000
F0010000008663200004000007719033000023658300000000000000000201605310002001ALMACEN EL SALPICON.COM                           C000000000009600000000000000000000100010010000000000000000000000F0010000008663200420160531000101 00000000000000000000000000000000000000000000000000000000000000000000000000000000000000000000000000000000000000000N 00000000000NCONT   00    00000000000          00000000000000000000000000000000000000000000 000000000000000A000000000000000000000000000000000000000000000 000000000000000000000000000000000000000     00000000                                                                                                                        000000000000000000
F0010000008663200005000007719033000013552100000000000000000201605310002001ALMACEN EL SALPICON.COM                           D000000000009600000000000000000000100010010000000000000000000000F0010000008663200520160531000101 00000000000000000000000000000000000000000000000000000000000000000000000000000000000000000000000000000000000000000N 00000000000NCONT   00    00000000000          00000000000000000000000000000000000000000000 000000000000000A000000000000000000000000000000000000000000000 000000000000000000000000000000000000000     00000000                                                                                                                        000000000000000000
F0010000008663300001000003207718300011050500000000000000000201605310002001MARIA GILMA RAMIREZ GARCIA                        D000000007000000000000000000000000100010010000000000000000000000F0010000008663300120160531000101 00000000000000000000000000000000000000000000000000000000000000000000000000000000000000000000000000000000000000000N 00000000000NCONT   00    00000000000          00000000000000000000000000000000000000000000 000000000000000A000000000000000000000000000000000000000000000 000000000000000000000000000000000000000     00000000                                                                                                                        000000000000000000
F0010000008663300002000003207718300041450500000000000000000201605310002001MARIA GILMA RAMIREZ GARCIA                        C000000006300000000000000000000000100010010000000000000000000000F0010000008663300220160531000101 00000000000000000000000000000000000000000000000000000000000000000000000000000000000000000000000000000000000000000N 00000000000NCONT   00    00000000000          00000000000000000000000000000000000000000000 000000000000000A000000000000000000000000000000000000000000000 000000000000000000000000000000000000000     00000000                                                                                                                        000000000000000000
F0010000008663300003000003207718300042505000000000000000000201605310002001MARIA GILMA RAMIREZ GARCIA                        C000000000700000000000000000000000100010010000000000000000000000F0010000008663300320160531000101 00000000000000000000000000000000000000000000000000000000000000000000000000000000000000000000000000000000000000000N 00000000000NCONT   00    00000000000          00000000000000000000000000000000000000000000 000000000000000A000000000000000000000000000000000000000000000 000000000000000000000000000000000000000     00000000                                                                                                                        000000000000000000
F0010000008663300004000003207718300023658300000000000000000201605310002001MARIA GILMA RAMIREZ GARCIA                        C000000000050400000000000000000000100010010000000000000000000000F0010000008663300420160531000101 00000000000000000000000000000000000000000000000000000000000000000000000000000000000000000000000000000000000000000N 00000000000NCONT   00    00000000000          00000000000000000000000000000000000000000000 000000000000000A000000000000000000000000000000000000000000000 000000000000000000000000000000000000000     00000000                                                                                                                        000000000000000000
F0010000008663300005000003207718300013552100000000000000000201605310002001MARIA GILMA RAMIREZ GARCIA                        D000000000050400000000000000000000100010010000000000000000000000F0010000008663300520160531000101 00000000000000000000000000000000000000000000000000000000000000000000000000000000000000000000000000000000000000000N 00000000000NCONT   00    00000000000          00000000000000000000000000000000000000000000 000000000000000A000000000000000000000000000000000000000000000 000000000000000000000000000000000000000     00000000                                                                                                                        000000000000000000
F0010000008663400001000080202330500011050500000000000000000201605310002001FERRETERIA NUEVO MILENIO S.A.S                    D000000030100000000000000000000000100010010000000000000000000000F0010000008663400120160531000101 00000000000000000000000000000000000000000000000000000000000000000000000000000000000000000000000000000000000000000N 00000000000NCONT   00    00000000000          00000000000000000000000000000000000000000000 000000000000000A000000000000000000000000000000000000000000000 000000000000000000000000000000000000000     00000000                                                                                                                        000000000000000000
F0010000008663400002000080202330500041450500000000000000000201605310002001FERRETERIA NUEVO MILENIO S.A.S                    C000000027600000000000000000000000100010010000000000000000000000F0010000008663400220160531000101 00000000000000000000000000000000000000000000000000000000000000000000000000000000000000000000000000000000000000000N 00000000000NCONT   00    00000000000          00000000000000000000000000000000000000000000 000000000000000A000000000000000000000000000000000000000000000 000000000000000000000000000000000000000     00000000                                                                                                                        000000000000000000
F0010000008663400003000080202330500042505000000000000000000201605310002001FERRETERIA NUEVO MILENIO S.A.S                    C000000002500000000000000000000000100010010000000000000000000000F0010000008663400320160531000101 00000000000000000000000000000000000000000000000000000000000000000000000000000000000000000000000000000000000000000N 00000000000NCONT   00    00000000000          00000000000000000000000000000000000000000000 000000000000000A000000000000000000000000000000000000000000000 000000000000000000000000000000000000000     00000000                                                                                                                        000000000000000000
F0010000008663400004000080202330500023658300000000000000000201605310002001FERRETERIA NUEVO MILENIO S.A.S                    C000000000220800000000000000000000100010010000000000000000000000F0010000008663400420160531000101 00000000000000000000000000000000000000000000000000000000000000000000000000000000000000000000000000000000000000000N 00000000000NCONT   00    00000000000          00000000000000000000000000000000000000000000 000000000000000A000000000000000000000000000000000000000000000 000000000000000000000000000000000000000     00000000                                                                                                                        000000000000000000
F0010000008663400005000080202330500013552100000000000000000201605310002001FERRETERIA NUEVO MILENIO S.A.S                    D000000000220800000000000000000000100010010000000000000000000000F0010000008663400520160531000101 00000000000000000000000000000000000000000000000000000000000000000000000000000000000000000000000000000000000000000N 00000000000NCONT   00    00000000000          00000000000000000000000000000000000000000000 000000000000000A000000000000000000000000000000000000000000000 000000000000000000000000000000000000000     00000000                                                                                                                        000000000000000000
F0010000008663500001000009125678500011050500000000000000000201605310002001SALOMON DIAZ MONSALVE                             D000000018500000000000000000000000100010010000000000000000000000F0010000008663500120160531000101 00000000000000000000000000000000000000000000000000000000000000000000000000000000000000000000000000000000000000000N 00000000000NCONT   00    00000000000          00000000000000000000000000000000000000000000 000000000000000A000000000000000000000000000000000000000000000 000000000000000000000000000000000000000     00000000                                                                                                                        000000000000000000
F0010000008663500002000009125678500041450500000000000000000201605310002001SALOMON DIAZ MONSALVE                             C000000017500000000000000000000000100010010000000000000000000000F0010000008663500220160531000101 00000000000000000000000000000000000000000000000000000000000000000000000000000000000000000000000000000000000000000N 00000000000NCONT   00    00000000000          00000000000000000000000000000000000000000000 000000000000000A000000000000000000000000000000000000000000000 000000000000000000000000000000000000000     00000000                                                                                                                        000000000000000000
F0010000008663500003000009125678500042505000000000000000000201605310002001SALOMON DIAZ MONSALVE                             C000000001000000000000000000000000100010010000000000000000000000F0010000008663500320160531000101 00000000000000000000000000000000000000000000000000000000000000000000000000000000000000000000000000000000000000000N 00000000000NCONT   00    00000000000          00000000000000000000000000000000000000000000 000000000000000A000000000000000000000000000000000000000000000 000000000000000000000000000000000000000     00000000                                                                                                                        000000000000000000
F0010000008663500004000009125678500023658300000000000000000201605310002001SALOMON DIAZ MONSALVE                             C000000000140000000000000000000000100010010000000000000000000000F0010000008663500420160531000101 00000000000000000000000000000000000000000000000000000000000000000000000000000000000000000000000000000000000000000N 00000000000NCONT   00    00000000000          00000000000000000000000000000000000000000000 000000000000000A000000000000000000000000000000000000000000000 000000000000000000000000000000000000000     00000000                                                                                                                        000000000000000000
F0010000008663500005000009125678500013552100000000000000000201605310002001SALOMON DIAZ MONSALVE                             D000000000140000000000000000000000100010010000000000000000000000F0010000008663500520160531000101 00000000000000000000000000000000000000000000000000000000000000000000000000000000000000000000000000000000000000000N 00000000000NCONT   00    00000000000          00000000000000000000000000000000000000000000 000000000000000A000000000000000000000000000000000000000000000 000000000000000000000000000000000000000     00000000                                                                                                                        000000000000000000
F0010000008663600001000009125678500011050500000000000000000201605310002001SALOMON DIAZ MONSALVE                             D000000003500000000000000000000000100010010000000000000000000000F0010000008663600120160531000101 00000000000000000000000000000000000000000000000000000000000000000000000000000000000000000000000000000000000000000N 00000000000NCONT   00    00000000000          00000000000000000000000000000000000000000000 000000000000000A000000000000000000000000000000000000000000000 000000000000000000000000000000000000000     00000000                                                                                                                        000000000000000000
F0010000008663600002000009125678500041450500000000000000000201605310002001SALOMON DIAZ MONSALVE                             C000000003000000000000000000000000100010010000000000000000000000F0010000008663600220160531000101 00000000000000000000000000000000000000000000000000000000000000000000000000000000000000000000000000000000000000000N 00000000000NCONT   00    00000000000          00000000000000000000000000000000000000000000 000000000000000A000000000000000000000000000000000000000000000 000000000000000000000000000000000000000     00000000                                                                                                                        000000000000000000
F0010000008663600003000009125678500042505000000000000000000201605310002001SALOMON DIAZ MONSALVE                             C000000000500000000000000000000000100010010000000000000000000000F0010000008663600320160531000101 00000000000000000000000000000000000000000000000000000000000000000000000000000000000000000000000000000000000000000N 00000000000NCONT   00    00000000000          00000000000000000000000000000000000000000000 000000000000000A000000000000000000000000000000000000000000000 000000000000000000000000000000000000000     00000000                                                                                                                        000000000000000000
F0010000008663600004000009125678500023658300000000000000000201605310002001SALOMON DIAZ MONSALVE                             C000000000024000000000000000000000100010010000000000000000000000F0010000008663600420160531000101 00000000000000000000000000000000000000000000000000000000000000000000000000000000000000000000000000000000000000000N 00000000000NCONT   00    00000000000          00000000000000000000000000000000000000000000 000000000000000A000000000000000000000000000000000000000000000 000000000000000000000000000000000000000     00000000                                                                                                                        000000000000000000
F0010000008663600005000009125678500013552100000000000000000201605310002001SALOMON DIAZ MONSALVE                             D000000000024000000000000000000000100010010000000000000000000000F0010000008663600520160531000101 00000000000000000000000000000000000000000000000000000000000000000000000000000000000000000000000000000000000000000N 00000000000NCONT   00    00000000000          00000000000000000000000000000000000000000000 000000000000000A000000000000000000000000000000000000000000000 000000000000000000000000000000000000000     00000000                                                                                                                        000000000000000000
F0010000008663700001000090015039900011050500000000000000000201605310002001METALMAX DE COLOMBIA S.A.S                        D000000011000000000000000000000000100010010000000000000000000000F0010000008663700120160531000101 00000000000000000000000000000000000000000000000000000000000000000000000000000000000000000000000000000000000000000N 00000000000NCONT   00    00000000000          00000000000000000000000000000000000000000000 000000000000000A000000000000000000000000000000000000000000000 000000000000000000000000000000000000000     00000000                                                                                                                        000000000000000000
F0010000008663700002000090015039900041450500000000000000000201605310002001METALMAX DE COLOMBIA S.A.S                        C000000010000000000000000000000000100010010000000000000000000000F0010000008663700220160531000101 00000000000000000000000000000000000000000000000000000000000000000000000000000000000000000000000000000000000000000N 00000000000NCONT   00    00000000000          00000000000000000000000000000000000000000000 000000000000000A000000000000000000000000000000000000000000000 000000000000000000000000000000000000000     00000000                                                                                                                        000000000000000000
F0010000008663700003000090015039900042505000000000000000000201605310002001METALMAX DE COLOMBIA S.A.S                        C000000001000000000000000000000000100010010000000000000000000000F0010000008663700320160531000101 00000000000000000000000000000000000000000000000000000000000000000000000000000000000000000000000000000000000000000N 00000000000NCONT   00    00000000000          00000000000000000000000000000000000000000000 000000000000000A000000000000000000000000000000000000000000000 000000000000000000000000000000000000000     00000000                                                                                                                        000000000000000000
F0010000008663700004000090015039900023658300000000000000000201605310002001METALMAX DE COLOMBIA S.A.S                        C000000000080000000000000000000000100010010000000000000000000000F0010000008663700420160531000101 00000000000000000000000000000000000000000000000000000000000000000000000000000000000000000000000000000000000000000N 00000000000NCONT   00    00000000000          00000000000000000000000000000000000000000000 000000000000000A000000000000000000000000000000000000000000000 000000000000000000000000000000000000000     00000000                                                                                                                        000000000000000000
F0010000008663700005000090015039900013552100000000000000000201605310002001METALMAX DE COLOMBIA S.A.S                        D000000000080000000000000000000000100010010000000000000000000000F0010000008663700520160531000101 00000000000000000000000000000000000000000000000000000000000000000000000000000000000000000000000000000000000000000N 00000000000NCONT   00    00000000000          00000000000000000000000000000000000000000000 000000000000000A000000000000000000000000000000000000000000000 000000000000000000000000000000000000000     00000000                                                                                                                        000000000000000000
F0010000008663800001000086003979400011050500000000000000000201605310002001CALYPSO BARRANQUILLA LTDA                         D000000001700000000000000000000000100010010000000000000000000000F0010000008663800120160531000101 00000000000000000000000000000000000000000000000000000000000000000000000000000000000000000000000000000000000000000N 00000000000NCONT   00    00000000000          00000000000000000000000000000000000000000000 000000000000000A000000000000000000000000000000000000000000000 000000000000000000000000000000000000000     00000000                                                                                                                        000000000000000000
F0010000008663800002000086003979400041450500000000000000000201605310002001CALYPSO BARRANQUILLA LTDA                         C000000001320000000000000000000000100010010000000000000000000000F0010000008663800220160531000101 00000000000000000000000000000000000000000000000000000000000000000000000000000000000000000000000000000000000000000N 00000000000NCONT   00    00000000000          00000000000000000000000000000000000000000000 000000000000000A000000000000000000000000000000000000000000000 000000000000000000000000000000000000000     00000000                                                                                                                        000000000000000000
F0010000008663800003000086003979400042505000000000000000000201605310002001CALYPSO BARRANQUILLA LTDA                         C000000000380000000000000000000000100010010000000000000000000000F0010000008663800320160531000101 00000000000000000000000000000000000000000000000000000000000000000000000000000000000000000000000000000000000000000N 00000000000NCONT   00    00000000000          00000000000000000000000000000000000000000000 000000000000000A000000000000000000000000000000000000000000000 000000000000000000000000000000000000000     00000000                                                                                                                        000000000000000000
F0010000008663800004000086003979400023658300000000000000000201605310002001CALYPSO BARRANQUILLA LTDA                         C000000000010600000000000000000000100010010000000000000000000000F0010000008663800420160531000101 00000000000000000000000000000000000000000000000000000000000000000000000000000000000000000000000000000000000000000N 00000000000NCONT   00    00000000000          00000000000000000000000000000000000000000000 000000000000000A000000000000000000000000000000000000000000000 000000000000000000000000000000000000000     00000000                                                                                                                        000000000000000000
F0010000008663800005000086003979400013552100000000000000000201605310002001CALYPSO BARRANQUILLA LTDA                         D000000000010600000000000000000000100010010000000000000000000000F0010000008663800520160531000101 00000000000000000000000000000000000000000000000000000000000000000000000000000000000000000000000000000000000000000N 00000000000NCONT   00    00000000000          00000000000000000000000000000000000000000000 000000000000000A000000000000000000000000000000000000000000000 000000000000000000000000000000000000000     00000000                                                                                                                        000000000000000000
F0010000008663900001000000742399700011050500000000000000000201605310002001CACHARRERIA EL NUEVO CHADID                       D000000002700000000000000000000000100010010000000000000000000000F0010000008663900120160531000101 00000000000000000000000000000000000000000000000000000000000000000000000000000000000000000000000000000000000000000N 00000000000NCONT   00    00000000000          00000000000000000000000000000000000000000000 000000000000000A000000000000000000000000000000000000000000000 000000000000000000000000000000000000000     00000000                                                                                                                        000000000000000000
F0010000008663900002000000742399700041450500000000000000000201605310002001CACHARRERIA EL NUEVO CHADID                       C000000002200000000000000000000000100010010000000000000000000000F0010000008663900220160531000101 00000000000000000000000000000000000000000000000000000000000000000000000000000000000000000000000000000000000000000N 00000000000NCONT   00    00000000000          00000000000000000000000000000000000000000000 000000000000000A000000000000000000000000000000000000000000000 000000000000000000000000000000000000000     00000000                                                                                                                        000000000000000000
F0010000008663900003000000742399700042505000000000000000000201605310002001CACHARRERIA EL NUEVO CHADID                       C000000000500000000000000000000000100010010000000000000000000000F0010000008663900320160531000101 00000000000000000000000000000000000000000000000000000000000000000000000000000000000000000000000000000000000000000N 00000000000NCONT   00    00000000000          00000000000000000000000000000000000000000000 000000000000000A000000000000000000000000000000000000000000000 000000000000000000000000000000000000000     00000000                                                                                                                        000000000000000000
F0010000008663900004000000742399700023658300000000000000000201605310002001CACHARRERIA EL NUEVO CHADID                       C000000000017600000000000000000000100010010000000000000000000000F0010000008663900420160531000101 00000000000000000000000000000000000000000000000000000000000000000000000000000000000000000000000000000000000000000N 00000000000NCONT   00    00000000000          00000000000000000000000000000000000000000000 000000000000000A000000000000000000000000000000000000000000000 000000000000000000000000000000000000000     00000000                                                                                                                        000000000000000000
F0010000008663900005000000742399700013552100000000000000000201605310002001CACHARRERIA EL NUEVO CHADID                       D000000000017600000000000000000000100010010000000000000000000000F0010000008663900520160531000101 00000000000000000000000000000000000000000000000000000000000000000000000000000000000000000000000000000000000000000N 00000000000NCONT   00    00000000000          00000000000000000000000000000000000000000000 000000000000000A000000000000000000000000000000000000000000000 000000000000000000000000000000000000000     00000000                                                                                                                        000000000000000000
F0010000008664000001000002245670100011050500000000000000000201605310002001YOLANDA  TOBON                                    D000000010800000000000000000000000100010010000000000000000000000F0010000008664000120160531000101 00000000000000000000000000000000000000000000000000000000000000000000000000000000000000000000000000000000000000000N 00000000000NCONT   00    00000000000          00000000000000000000000000000000000000000000 000000000000000A000000000000000000000000000000000000000000000 000000000000000000000000000000000000000     00000000                                                                                                                        000000000000000000
F0010000008664000002000002245670100041450500000000000000000201605310002001YOLANDA  TOBON                                    C000000008200000000000000000000000100010010000000000000000000000F0010000008664000220160531000101 00000000000000000000000000000000000000000000000000000000000000000000000000000000000000000000000000000000000000000N 00000000000NCONT   00    00000000000          00000000000000000000000000000000000000000000 000000000000000A000000000000000000000000000000000000000000000 000000000000000000000000000000000000000     00000000                                                                                                                        000000000000000000
F0010000008664000003000002245670100042505000000000000000000201605310002001YOLANDA  TOBON                                    C000000002600000000000000000000000100010010000000000000000000000F0010000008664000320160531000101 00000000000000000000000000000000000000000000000000000000000000000000000000000000000000000000000000000000000000000N 00000000000NCONT   00    00000000000          00000000000000000000000000000000000000000000 000000000000000A000000000000000000000000000000000000000000000 000000000000000000000000000000000000000     00000000                                                                                                                        000000000000000000
F0010000008664000004000002245670100023658300000000000000000201605310002001YOLANDA  TOBON                                    C000000000065600000000000000000000100010010000000000000000000000F0010000008664000420160531000101 00000000000000000000000000000000000000000000000000000000000000000000000000000000000000000000000000000000000000000N 00000000000NCONT   00    00000000000          00000000000000000000000000000000000000000000 000000000000000A000000000000000000000000000000000000000000000 000000000000000000000000000000000000000     00000000                                                                                                                        000000000000000000
F0010000008664000005000002245670100013552100000000000000000201605310002001YOLANDA  TOBON                                    D000000000065600000000000000000000100010010000000000000000000000F0010000008664000520160531000101 00000000000000000000000000000000000000000000000000000000000000000000000000000000000000000000000000000000000000000N 00000000000NCONT   00    00000000000          00000000000000000000000000000000000000000000 000000000000000A000000000000000000000000000000000000000000000 000000000000000000000000000000000000000     00000000                                                                                                                        000000000000000000
F0010000008664100001000003129177700011050500000000000000000201605310002001MULTISUELAS                                       D000000002640000000000000000000000100010010000000000000000000000F0010000008664100120160531000101 00000000000000000000000000000000000000000000000000000000000000000000000000000000000000000000000000000000000000000N 00000000000NCONT   00    00000000000          00000000000000000000000000000000000000000000 000000000000000A000000000000000000000000000000000000000000000 000000000000000000000000000000000000000     00000000                                                                                                                        000000000000000000
F0010000008664100002000003129177700041450500000000000000000201605310002001MULTISUELAS                                       C000000002140000000000000000000000100010010000000000000000000000F0010000008664100220160531000101 00000000000000000000000000000000000000000000000000000000000000000000000000000000000000000000000000000000000000000N 00000000000NCONT   00    00000000000          00000000000000000000000000000000000000000000 000000000000000A000000000000000000000000000000000000000000000 000000000000000000000000000000000000000     00000000                                                                                                                        000000000000000000
F0010000008664100003000003129177700042505000000000000000000201605310002001MULTISUELAS                                       C000000000500000000000000000000000100010010000000000000000000000F0010000008664100320160531000101 00000000000000000000000000000000000000000000000000000000000000000000000000000000000000000000000000000000000000000N 00000000000NCONT   00    00000000000          00000000000000000000000000000000000000000000 000000000000000A000000000000000000000000000000000000000000000 000000000000000000000000000000000000000     00000000                                                                                                                        000000000000000000
F0010000008664100004000003129177700023658300000000000000000201605310002001MULTISUELAS                                       C000000000017100000000000000000000100010010000000000000000000000F0010000008664100420160531000101 00000000000000000000000000000000000000000000000000000000000000000000000000000000000000000000000000000000000000000N 00000000000NCONT   00    00000000000          00000000000000000000000000000000000000000000 000000000000000A000000000000000000000000000000000000000000000 000000000000000000000000000000000000000     00000000                                                                                                                        000000000000000000
F0010000008664100005000003129177700013552100000000000000000201605310002001MULTISUELAS                                       D000000000017100000000000000000000100010010000000000000000000000F0010000008664100520160531000101 00000000000000000000000000000000000000000000000000000000000000000000000000000000000000000000000000000000000000000N 00000000000NCONT   00    00000000000          00000000000000000000000000000000000000000000 000000000000000A000000000000000000000000000000000000000000000 000000000000000000000000000000000000000     00000000                                                                                                                        000000000000000000
F0010000008664200001000003319910700011050500000000000000000201605310002001LUZ DARY JIMENEZ MARTINEZ                         D000000001100000000000000000000000100010010000000000000000000000F0010000008664200120160531000101 00000000000000000000000000000000000000000000000000000000000000000000000000000000000000000000000000000000000000000N 00000000000NCONT   00    00000000000          00000000000000000000000000000000000000000000 000000000000000A000000000000000000000000000000000000000000000 000000000000000000000000000000000000000     00000000                                                                                                                        000000000000000000
F0010000008664200002000003319910700041450500000000000000000201605310002001LUZ DARY JIMENEZ MARTINEZ                         C000000001000000000000000000000000100010010000000000000000000000F0010000008664200220160531000101 00000000000000000000000000000000000000000000000000000000000000000000000000000000000000000000000000000000000000000N 00000000000NCONT   00    00000000000          00000000000000000000000000000000000000000000 000000000000000A000000000000000000000000000000000000000000000 000000000000000000000000000000000000000     00000000                                                                                                                        000000000000000000
F0010000008664200003000003319910700042505000000000000000000201605310002001LUZ DARY JIMENEZ MARTINEZ                         C000000000100000000000000000000000100010010000000000000000000000F0010000008664200320160531000101 00000000000000000000000000000000000000000000000000000000000000000000000000000000000000000000000000000000000000000N 00000000000NCONT   00    00000000000          00000000000000000000000000000000000000000000 000000000000000A000000000000000000000000000000000000000000000 000000000000000000000000000000000000000     00000000                                                                                                                        000000000000000000
F0010000008664200004000003319910700023658300000000000000000201605310002001LUZ DARY JIMENEZ MARTINEZ                         C000000000008000000000000000000000100010010000000000000000000000F0010000008664200420160531000101 00000000000000000000000000000000000000000000000000000000000000000000000000000000000000000000000000000000000000000N 00000000000NCONT   00    00000000000          00000000000000000000000000000000000000000000 000000000000000A000000000000000000000000000000000000000000000 000000000000000000000000000000000000000     00000000                                                                                                                        000000000000000000
F0010000008664200005000003319910700013552100000000000000000201605310002001LUZ DARY JIMENEZ MARTINEZ                         D000000000008000000000000000000000100010010000000000000000000000F0010000008664200520160531000101 00000000000000000000000000000000000000000000000000000000000000000000000000000000000000000000000000000000000000000N 00000000000NCONT   00    00000000000          00000000000000000000000000000000000000000000 000000000000000A000000000000000000000000000000000000000000000 000000000000000000000000000000000000000     00000000                                                                                                                        000000000000000000
F0010000008664300001000003319910700011050500000000000000000201605310002001LUZ DARY JIMENEZ MARTINEZ                         D000000001100000000000000000000000100010010000000000000000000000F0010000008664300120160531000101 00000000000000000000000000000000000000000000000000000000000000000000000000000000000000000000000000000000000000000N 00000000000NCONT   00    00000000000          00000000000000000000000000000000000000000000 000000000000000A000000000000000000000000000000000000000000000 000000000000000000000000000000000000000     00000000                                                                                                                        000000000000000000
F0010000008664300002000003319910700041450500000000000000000201605310002001LUZ DARY JIMENEZ MARTINEZ                         C000000001000000000000000000000000100010010000000000000000000000F0010000008664300220160531000101 00000000000000000000000000000000000000000000000000000000000000000000000000000000000000000000000000000000000000000N 00000000000NCONT   00    00000000000          00000000000000000000000000000000000000000000 000000000000000A000000000000000000000000000000000000000000000 000000000000000000000000000000000000000     00000000                                                                                                                        000000000000000000
F0010000008664300003000003319910700042505000000000000000000201605310002001LUZ DARY JIMENEZ MARTINEZ                         C000000000100000000000000000000000100010010000000000000000000000F0010000008664300320160531000101 00000000000000000000000000000000000000000000000000000000000000000000000000000000000000000000000000000000000000000N 00000000000NCONT   00    00000000000          00000000000000000000000000000000000000000000 000000000000000A000000000000000000000000000000000000000000000 000000000000000000000000000000000000000     00000000                                                                                                                        000000000000000000
F0010000008664300004000003319910700023658300000000000000000201605310002001LUZ DARY JIMENEZ MARTINEZ                         C000000000008000000000000000000000100010010000000000000000000000F0010000008664300420160531000101 00000000000000000000000000000000000000000000000000000000000000000000000000000000000000000000000000000000000000000N 00000000000NCONT   00    00000000000          00000000000000000000000000000000000000000000 000000000000000A000000000000000000000000000000000000000000000 000000000000000000000000000000000000000     00000000                                                                                                                        000000000000000000
F0010000008664300005000003319910700013552100000000000000000201605310002001LUZ DARY JIMENEZ MARTINEZ                         D000000000008000000000000000000000100010010000000000000000000000F0010000008664300520160531000101 00000000000000000000000000000000000000000000000000000000000000000000000000000000000000000000000000000000000000000N 00000000000NCONT   00    00000000000          00000000000000000000000000000000000000000000 000000000000000A000000000000000000000000000000000000000000000 000000000000000000000000000000000000000     00000000                                                                                                                        000000000000000000
F0010000008664400001000090061985600011050500000000000000000201605310002001COMERCIALIZADORA PATRY SAS                        D000000001100000000000000000000000100010010000000000000000000000F0010000008664400120160531000101 00000000000000000000000000000000000000000000000000000000000000000000000000000000000000000000000000000000000000000N 00000000000NCONT   00    00000000000          00000000000000000000000000000000000000000000 000000000000000A000000000000000000000000000000000000000000000 000000000000000000000000000000000000000     00000000                                                                                                                        000000000000000000
F0010000008664400002000090061985600041450500000000000000000201605310002001COMERCIALIZADORA PATRY SAS                        C000000000850000000000000000000000100010010000000000000000000000F0010000008664400220160531000101 00000000000000000000000000000000000000000000000000000000000000000000000000000000000000000000000000000000000000000N 00000000000NCONT   00    00000000000          00000000000000000000000000000000000000000000 000000000000000A000000000000000000000000000000000000000000000 000000000000000000000000000000000000000     00000000                                                                                                                        000000000000000000
F0010000008664400003000090061985600042505000000000000000000201605310002001COMERCIALIZADORA PATRY SAS                        C000000000250000000000000000000000100010010000000000000000000000F0010000008664400320160531000101 00000000000000000000000000000000000000000000000000000000000000000000000000000000000000000000000000000000000000000N 00000000000NCONT   00    00000000000          00000000000000000000000000000000000000000000 000000000000000A000000000000000000000000000000000000000000000 000000000000000000000000000000000000000     00000000                                                                                                                        000000000000000000
F0010000008664400004000090061985600023658300000000000000000201605310002001COMERCIALIZADORA PATRY SAS                        C000000000006800000000000000000000100010010000000000000000000000F0010000008664400420160531000101 00000000000000000000000000000000000000000000000000000000000000000000000000000000000000000000000000000000000000000N 00000000000NCONT   00    00000000000          00000000000000000000000000000000000000000000 000000000000000A000000000000000000000000000000000000000000000 000000000000000000000000000000000000000     00000000                                                                                                                        000000000000000000
F0010000008664400005000090061985600013552100000000000000000201605310002001COMERCIALIZADORA PATRY SAS                        D000000000006800000000000000000000100010010000000000000000000000F0010000008664400520160531000101 00000000000000000000000000000000000000000000000000000000000000000000000000000000000000000000000000000000000000000N 00000000000NCONT   00    00000000000          00000000000000000000000000000000000000000000 000000000000000A000000000000000000000000000000000000000000000 000000000000000000000000000000000000000     00000000                                                                                                                        000000000000000000
F0010000008664500001000000742399700011050500000000000000000201605310002001CACHARRERIA EL NUEVO CHADID                       D000000001000000000000000000000000100010010000000000000000000000F0010000008664500120160531000101 00000000000000000000000000000000000000000000000000000000000000000000000000000000000000000000000000000000000000000N 00000000000NCONT   00    00000000000          00000000000000000000000000000000000000000000 000000000000000A000000000000000000000000000000000000000000000 000000000000000000000000000000000000000     00000000                                                                                                                        000000000000000000
F0010000008664500002000000742399700041450500000000000000000201605310002001CACHARRERIA EL NUEVO CHADID                       C000000000850000000000000000000000100010010000000000000000000000F0010000008664500220160531000101 00000000000000000000000000000000000000000000000000000000000000000000000000000000000000000000000000000000000000000N 00000000000NCONT   00    00000000000          00000000000000000000000000000000000000000000 000000000000000A000000000000000000000000000000000000000000000 000000000000000000000000000000000000000     00000000                                                                                                                        000000000000000000
F0010000008664500003000000742399700042505000000000000000000201605310002001CACHARRERIA EL NUEVO CHADID                       C000000000150000000000000000000000100010010000000000000000000000F0010000008664500320160531000101 00000000000000000000000000000000000000000000000000000000000000000000000000000000000000000000000000000000000000000N 00000000000NCONT   00    00000000000          00000000000000000000000000000000000000000000 000000000000000A000000000000000000000000000000000000000000000 000000000000000000000000000000000000000     00000000                                                                                                                        000000000000000000
F0010000008664500004000000742399700023658300000000000000000201605310002001CACHARRERIA EL NUEVO CHADID                       C000000000006800000000000000000000100010010000000000000000000000F0010000008664500420160531000101 00000000000000000000000000000000000000000000000000000000000000000000000000000000000000000000000000000000000000000N 00000000000NCONT   00    00000000000          00000000000000000000000000000000000000000000 000000000000000A000000000000000000000000000000000000000000000 000000000000000000000000000000000000000     00000000                                                                                                                        000000000000000000
F0010000008664500005000000742399700013552100000000000000000201605310002001CACHARRERIA EL NUEVO CHADID                       D000000000006800000000000000000000100010010000000000000000000000F0010000008664500520160531000101 00000000000000000000000000000000000000000000000000000000000000000000000000000000000000000000000000000000000000000N 00000000000NCONT   00    00000000000          00000000000000000000000000000000000000000000 000000000000000A000000000000000000000000000000000000000000000 000000000000000000000000000000000000000     00000000                                                                                                                        000000000000000000
F0010000008664600001000083008772100011050500000000000000000201605310002001ILUMEC SAS                                        D000000001030000000000000000000000100010010000000000000000000000F0010000008664600120160531000101 00000000000000000000000000000000000000000000000000000000000000000000000000000000000000000000000000000000000000000N 00000000000NCONT   00    00000000000          00000000000000000000000000000000000000000000 000000000000000A000000000000000000000000000000000000000000000 000000000000000000000000000000000000000     00000000                                                                                                                        000000000000000000
F0010000008664600002000083008772100041450500000000000000000201605310002001ILUMEC SAS                                        C000000000880000000000000000000000100010010000000000000000000000F0010000008664600220160531000101 00000000000000000000000000000000000000000000000000000000000000000000000000000000000000000000000000000000000000000N 00000000000NCONT   00    00000000000          00000000000000000000000000000000000000000000 000000000000000A000000000000000000000000000000000000000000000 000000000000000000000000000000000000000     00000000                                                                                                                        000000000000000000
F0010000008664600003000083008772100042505000000000000000000201605310002001ILUMEC SAS                                        C000000000150000000000000000000000100010010000000000000000000000F0010000008664600320160531000101 00000000000000000000000000000000000000000000000000000000000000000000000000000000000000000000000000000000000000000N 00000000000NCONT   00    00000000000          00000000000000000000000000000000000000000000 000000000000000A000000000000000000000000000000000000000000000 000000000000000000000000000000000000000     00000000                                                                                                                        000000000000000000
F0010000008664600004000083008772100023658300000000000000000201605310002001ILUMEC SAS                                        C000000000007000000000000000000000100010010000000000000000000000F0010000008664600420160531000101 00000000000000000000000000000000000000000000000000000000000000000000000000000000000000000000000000000000000000000N 00000000000NCONT   00    00000000000          00000000000000000000000000000000000000000000 000000000000000A000000000000000000000000000000000000000000000 000000000000000000000000000000000000000     00000000                                                                                                                        000000000000000000
F0010000008664600005000083008772100013552100000000000000000201605310002001ILUMEC SAS                                        D000000000007000000000000000000000100010010000000000000000000000F0010000008664600520160531000101 00000000000000000000000000000000000000000000000000000000000000000000000000000000000000000000000000000000000000000N 00000000000NCONT   00    00000000000          00000000000000000000000000000000000000000000 000000000000000A000000000000000000000000000000000000000000000 000000000000000000000000000000000000000     00000000                                                                                                                        000000000000000000
F0010000008664700001000001022529300011050500000000000000000201605310002001ALBERTO ALVAREZ ISAZA                             D000000000350000000000000000000000100010010000000000000000000000F0010000008664700120160531000101 00000000000000000000000000000000000000000000000000000000000000000000000000000000000000000000000000000000000000000N 00000000000NCONT   00    00000000000          00000000000000000000000000000000000000000000 000000000000000A000000000000000000000000000000000000000000000 000000000000000000000000000000000000000     00000000                                                                                                                        000000000000000000
F0010000008664700002000001022529300041450500000000000000000201605310002001ALBERTO ALVAREZ ISAZA                             C000000000350000000000000000000000100010010000000000000000000000F0010000008664700220160531000101 00000000000000000000000000000000000000000000000000000000000000000000000000000000000000000000000000000000000000000N 00000000000NCONT   00    00000000000          00000000000000000000000000000000000000000000 000000000000000A000000000000000000000000000000000000000000000 000000000000000000000000000000000000000     00000000                                                                                                                        000000000000000000
F0010000008664700003000001022529300042505000000000000000000201605310002001ALBERTO ALVAREZ ISAZA                             C000000000000000000000000000000000100010010000000000000000000000F0010000008664700320160531000101 00000000000000000000000000000000000000000000000000000000000000000000000000000000000000000000000000000000000000000N 00000000000NCONT   00    00000000000          00000000000000000000000000000000000000000000 000000000000000A000000000000000000000000000000000000000000000 000000000000000000000000000000000000000     00000000                                                                                                                        000000000000000000
F0010000008664700004000001022529300023658300000000000000000201605310002001ALBERTO ALVAREZ ISAZA                             C000000000002800000000000000000000100010010000000000000000000000F0010000008664700420160531000101 00000000000000000000000000000000000000000000000000000000000000000000000000000000000000000000000000000000000000000N 00000000000NCONT   00    00000000000          00000000000000000000000000000000000000000000 000000000000000A000000000000000000000000000000000000000000000 000000000000000000000000000000000000000     00000000                                                                                                                        000000000000000000
F0010000008664700005000001022529300013552100000000000000000201605310002001ALBERTO ALVAREZ ISAZA                             D000000000002800000000000000000000100010010000000000000000000000F0010000008664700520160531000101 00000000000000000000000000000000000000000000000000000000000000000000000000000000000000000000000000000000000000000N 00000000000NCONT   00    00000000000          00000000000000000000000000000000000000000000 000000000000000A000000000000000000000000000000000000000000000 000000000000000000000000000000000000000     00000000                                                                                                                        000000000000000000
F0010000008664800001000000431178400011050500000000000000000201605310002001EFRAIN ALVAREZ                                    D000000000460000000000000000000000100010010000000000000000000000F0010000008664800120160531000101 00000000000000000000000000000000000000000000000000000000000000000000000000000000000000000000000000000000000000000N 00000000000NCONT   00    00000000000          00000000000000000000000000000000000000000000 000000000000000A000000000000000000000000000000000000000000000 000000000000000000000000000000000000000     00000000                                                                                                                        000000000000000000
F0010000008664800002000000431178400041450500000000000000000201605310002001EFRAIN ALVAREZ                                    C000000000410000000000000000000000100010010000000000000000000000F0010000008664800220160531000101 00000000000000000000000000000000000000000000000000000000000000000000000000000000000000000000000000000000000000000N 00000000000NCONT   00    00000000000          00000000000000000000000000000000000000000000 000000000000000A000000000000000000000000000000000000000000000 000000000000000000000000000000000000000     00000000                                                                                                                        000000000000000000
F0010000008664800003000000431178400042505000000000000000000201605310002001EFRAIN ALVAREZ                                    C000000000050000000000000000000000100010010000000000000000000000F0010000008664800320160531000101 00000000000000000000000000000000000000000000000000000000000000000000000000000000000000000000000000000000000000000N 00000000000NCONT   00    00000000000          00000000000000000000000000000000000000000000 000000000000000A000000000000000000000000000000000000000000000 000000000000000000000000000000000000000     00000000                                                                                                                        000000000000000000
F0010000008664800004000000431178400023658300000000000000000201605310002001EFRAIN ALVAREZ                                    C000000000003300000000000000000000100010010000000000000000000000F0010000008664800420160531000101 00000000000000000000000000000000000000000000000000000000000000000000000000000000000000000000000000000000000000000N 00000000000NCONT   00    00000000000          00000000000000000000000000000000000000000000 000000000000000A000000000000000000000000000000000000000000000 000000000000000000000000000000000000000     00000000                                                                                                                        000000000000000000
F0010000008664800005000000431178400013552100000000000000000201605310002001EFRAIN ALVAREZ                                    D000000000003300000000000000000000100010010000000000000000000000F0010000008664800520160531000101 00000000000000000000000000000000000000000000000000000000000000000000000000000000000000000000000000000000000000000N 00000000000NCONT   00    00000000000          00000000000000000000000000000000000000000000 000000000000000A000000000000000000000000000000000000000000000 000000000000000000000000000000000000000     00000000                                                                                                                        000000000000000000
F0010000008664900001000000431178400011050500000000000000000201605310002001EFRAIN ALVAREZ                                    D000000000970000000000000000000000100010010000000000000000000000F0010000008664900120160531000101 00000000000000000000000000000000000000000000000000000000000000000000000000000000000000000000000000000000000000000N 00000000000NCONT   00    00000000000          00000000000000000000000000000000000000000000 000000000000000A000000000000000000000000000000000000000000000 000000000000000000000000000000000000000     00000000                                                                                                                        000000000000000000
F0010000008664900002000000431178400041450500000000000000000201605310002001EFRAIN ALVAREZ                                    C000000000920000000000000000000000100010010000000000000000000000F0010000008664900220160531000101 00000000000000000000000000000000000000000000000000000000000000000000000000000000000000000000000000000000000000000N 00000000000NCONT   00    00000000000          00000000000000000000000000000000000000000000 000000000000000A000000000000000000000000000000000000000000000 000000000000000000000000000000000000000     00000000                                                                                                                        000000000000000000
F0010000008664900003000000431178400042505000000000000000000201605310002001EFRAIN ALVAREZ                                    C000000000050000000000000000000000100010010000000000000000000000F0010000008664900320160531000101 00000000000000000000000000000000000000000000000000000000000000000000000000000000000000000000000000000000000000000N 00000000000NCONT   00    00000000000          00000000000000000000000000000000000000000000 000000000000000A000000000000000000000000000000000000000000000 000000000000000000000000000000000000000     00000000                                                                                                                        000000000000000000
F0010000008664900004000000431178400023658300000000000000000201605310002001EFRAIN ALVAREZ                                    C000000000007400000000000000000000100010010000000000000000000000F0010000008664900420160531000101 00000000000000000000000000000000000000000000000000000000000000000000000000000000000000000000000000000000000000000N 00000000000NCONT   00    00000000000          00000000000000000000000000000000000000000000 000000000000000A000000000000000000000000000000000000000000000 000000000000000000000000000000000000000     00000000                                                                                                                        000000000000000000
F0010000008664900005000000431178400013552100000000000000000201605310002001EFRAIN ALVAREZ                                    D000000000007400000000000000000000100010010000000000000000000000F0010000008664900520160531000101 00000000000000000000000000000000000000000000000000000000000000000000000000000000000000000000000000000000000000000N 00000000000NCONT   00    00000000000          00000000000000000000000000000000000000000000 000000000000000A000000000000000000000000000000000000000000000 000000000000000000000000000000000000000     00000000                                                                                                                        000000000000000000
F0010000008665000001000106498226600011050500000000000000000201605310002001EVA PAULINA GARCIA SANCHEZ                        D000000001200000000000000000000000100010010000000000000000000000F0010000008665000120160531000101 00000000000000000000000000000000000000000000000000000000000000000000000000000000000000000000000000000000000000000N 00000000000NCONT   00    00000000000          00000000000000000000000000000000000000000000 000000000000000A000000000000000000000000000000000000000000000 000000000000000000000000000000000000000     00000000                                                                                                                        000000000000000000
F0010000008665000002000106498226600041450500000000000000000201605310002001EVA PAULINA GARCIA SANCHEZ                        C000000001000000000000000000000000100010010000000000000000000000F0010000008665000220160531000101 00000000000000000000000000000000000000000000000000000000000000000000000000000000000000000000000000000000000000000N 00000000000NCONT   00    00000000000          00000000000000000000000000000000000000000000 000000000000000A000000000000000000000000000000000000000000000 000000000000000000000000000000000000000     00000000                                                                                                                        000000000000000000
F0010000008665000003000106498226600042505000000000000000000201605310002001EVA PAULINA GARCIA SANCHEZ                        C000000000200000000000000000000000100010010000000000000000000000F0010000008665000320160531000101 00000000000000000000000000000000000000000000000000000000000000000000000000000000000000000000000000000000000000000N 00000000000NCONT   00    00000000000          00000000000000000000000000000000000000000000 000000000000000A000000000000000000000000000000000000000000000 000000000000000000000000000000000000000     00000000                                                                                                                        000000000000000000
F0010000008665000004000106498226600023658300000000000000000201605310002001EVA PAULINA GARCIA SANCHEZ                        C000000000008000000000000000000000100010010000000000000000000000F0010000008665000420160531000101 00000000000000000000000000000000000000000000000000000000000000000000000000000000000000000000000000000000000000000N 00000000000NCONT   00    00000000000          00000000000000000000000000000000000000000000 000000000000000A000000000000000000000000000000000000000000000 000000000000000000000000000000000000000     00000000                                                                                                                        000000000000000000
F0010000008665000005000106498226600013552100000000000000000201605310002001EVA PAULINA GARCIA SANCHEZ                        D000000000008000000000000000000000100010010000000000000000000000F0010000008665000520160531000101 00000000000000000000000000000000000000000000000000000000000000000000000000000000000000000000000000000000000000000N 00000000000NCONT   00    00000000000          00000000000000000000000000000000000000000000 000000000000000A000000000000000000000000000000000000000000000 000000000000000000000000000000000000000     00000000                                                                                                                        000000000000000000
F0010000008665100001000007200023300011050500000000000000000201605310002001WILLIAM ORTEGA                                    D000000001200000000000000000000000100010010000000000000000000000F0010000008665100120160531000101 00000000000000000000000000000000000000000000000000000000000000000000000000000000000000000000000000000000000000000N 00000000000NCONT   00    00000000000          00000000000000000000000000000000000000000000 000000000000000A000000000000000000000000000000000000000000000 000000000000000000000000000000000000000     00000000                                                                                                                        000000000000000000
F0010000008665100002000007200023300041450500000000000000000201605310002001WILLIAM ORTEGA                                    C000000001000000000000000000000000100010010000000000000000000000F0010000008665100220160531000101 00000000000000000000000000000000000000000000000000000000000000000000000000000000000000000000000000000000000000000N 00000000000NCONT   00    00000000000          00000000000000000000000000000000000000000000 000000000000000A000000000000000000000000000000000000000000000 000000000000000000000000000000000000000     00000000                                                                                                                        000000000000000000
F0010000008665100003000007200023300042505000000000000000000201605310002001WILLIAM ORTEGA                                    C000000000200000000000000000000000100010010000000000000000000000F0010000008665100320160531000101 00000000000000000000000000000000000000000000000000000000000000000000000000000000000000000000000000000000000000000N 00000000000NCONT   00    00000000000          00000000000000000000000000000000000000000000 000000000000000A000000000000000000000000000000000000000000000 000000000000000000000000000000000000000     00000000                                                                                                                        000000000000000000
F0010000008665100004000007200023300023658300000000000000000201605310002001WILLIAM ORTEGA                                    C000000000008000000000000000000000100010010000000000000000000000F0010000008665100420160531000101 00000000000000000000000000000000000000000000000000000000000000000000000000000000000000000000000000000000000000000N 00000000000NCONT   00    00000000000          00000000000000000000000000000000000000000000 000000000000000A000000000000000000000000000000000000000000000 000000000000000000000000000000000000000     00000000                                                                                                                        000000000000000000
F0010000008665100005000007200023300013552100000000000000000201605310002001WILLIAM ORTEGA                                    D000000000008000000000000000000000100010010000000000000000000000F0010000008665100520160531000101 00000000000000000000000000000000000000000000000000000000000000000000000000000000000000000000000000000000000000000N 00000000000NCONT   00    00000000000          00000000000000000000000000000000000000000000 000000000000000A000000000000000000000000000000000000000000000 000000000000000000000000000000000000000     00000000                                                                                                                        000000000000000000
F0010000008665200001000006455821900011050500000000000000000201605310002001YOLIMA PEREZ REINOSO                              D000000001100000000000000000000000100010010000000000000000000000F0010000008665200120160531000101 00000000000000000000000000000000000000000000000000000000000000000000000000000000000000000000000000000000000000000N 00000000000NCONT   00    00000000000          00000000000000000000000000000000000000000000 000000000000000A000000000000000000000000000000000000000000000 000000000000000000000000000000000000000     00000000                                                                                                                        000000000000000000
F0010000008665200002000006455821900041450500000000000000000201605310002001YOLIMA PEREZ REINOSO                              C000000001000000000000000000000000100010010000000000000000000000F0010000008665200220160531000101 00000000000000000000000000000000000000000000000000000000000000000000000000000000000000000000000000000000000000000N 00000000000NCONT   00    00000000000          00000000000000000000000000000000000000000000 000000000000000A000000000000000000000000000000000000000000000 000000000000000000000000000000000000000     00000000                                                                                                                        000000000000000000
F0010000008665200003000006455821900042505000000000000000000201605310002001YOLIMA PEREZ REINOSO                              C000000000100000000000000000000000100010010000000000000000000000F0010000008665200320160531000101 00000000000000000000000000000000000000000000000000000000000000000000000000000000000000000000000000000000000000000N 00000000000NCONT   00    00000000000          00000000000000000000000000000000000000000000 000000000000000A000000000000000000000000000000000000000000000 000000000000000000000000000000000000000     00000000                                                                                                                        000000000000000000
F0010000008665200004000006455821900023658300000000000000000201605310002001YOLIMA PEREZ REINOSO                              C000000000008000000000000000000000100010010000000000000000000000F0010000008665200420160531000101 00000000000000000000000000000000000000000000000000000000000000000000000000000000000000000000000000000000000000000N 00000000000NCONT   00    00000000000          00000000000000000000000000000000000000000000 000000000000000A000000000000000000000000000000000000000000000 000000000000000000000000000000000000000     00000000                                                                                                                        000000000000000000
F0010000008665200005000006455821900013552100000000000000000201605310002001YOLIMA PEREZ REINOSO                              D000000000008000000000000000000000100010010000000000000000000000F0010000008665200520160531000101 00000000000000000000000000000000000000000000000000000000000000000000000000000000000000000000000000000000000000000N 00000000000NCONT   00    00000000000          00000000000000000000000000000000000000000000 000000000000000A000000000000000000000000000000000000000000000 000000000000000000000000000000000000000     00000000                                                                                                                        000000000000000000
F0010000008665300001000004175790100011050500000000000000000201605310002001ROSIRIS FERIA HOYOS  (COSM. SHILLER)              D000000000900000000000000000000000100010010000000000000000000000F0010000008665300120160531000101 00000000000000000000000000000000000000000000000000000000000000000000000000000000000000000000000000000000000000000N 00000000000NCONT   00    00000000000          00000000000000000000000000000000000000000000 000000000000000A000000000000000000000000000000000000000000000 000000000000000000000000000000000000000     00000000                                                                                                                        000000000000000000
F0010000008665300002000004175790100041450500000000000000000201605310002001ROSIRIS FERIA HOYOS  (COSM. SHILLER)              C000000000800000000000000000000000100010010000000000000000000000F0010000008665300220160531000101 00000000000000000000000000000000000000000000000000000000000000000000000000000000000000000000000000000000000000000N 00000000000NCONT   00    00000000000          00000000000000000000000000000000000000000000 000000000000000A000000000000000000000000000000000000000000000 000000000000000000000000000000000000000     00000000                                                                                                                        000000000000000000
F0010000008665300003000004175790100042505000000000000000000201605310002001ROSIRIS FERIA HOYOS  (COSM. SHILLER)              C000000000100000000000000000000000100010010000000000000000000000F0010000008665300320160531000101 00000000000000000000000000000000000000000000000000000000000000000000000000000000000000000000000000000000000000000N 00000000000NCONT   00    00000000000          00000000000000000000000000000000000000000000 000000000000000A000000000000000000000000000000000000000000000 000000000000000000000000000000000000000     00000000                                                                                                                        000000000000000000
F0010000008665300004000004175790100023658300000000000000000201605310002001ROSIRIS FERIA HOYOS  (COSM. SHILLER)              C000000000006400000000000000000000100010010000000000000000000000F0010000008665300420160531000101 00000000000000000000000000000000000000000000000000000000000000000000000000000000000000000000000000000000000000000N 00000000000NCONT   00    00000000000          00000000000000000000000000000000000000000000 000000000000000A000000000000000000000000000000000000000000000 000000000000000000000000000000000000000     00000000                                                                                                                        000000000000000000
F0010000008665300005000004175790100013552100000000000000000201605310002001ROSIRIS FERIA HOYOS  (COSM. SHILLER)              D000000000006400000000000000000000100010010000000000000000000000F0010000008665300520160531000101 00000000000000000000000000000000000000000000000000000000000000000000000000000000000000000000000000000000000000000N 00000000000NCONT   00    00000000000          00000000000000000000000000000000000000000000 000000000000000A000000000000000000000000000000000000000000000 000000000000000000000000000000000000000     00000000                                                                                                                        000000000000000000
F0010000008665400001000004175790100011050500000000000000000201605310002001ROSIRIS FERIA HOYOS  (COSM. SHILLER)              D000000002300000000000000000000000100010010000000000000000000000F0010000008665400120160531000101 00000000000000000000000000000000000000000000000000000000000000000000000000000000000000000000000000000000000000000N 00000000000NCONT   00    00000000000          00000000000000000000000000000000000000000000 000000000000000A000000000000000000000000000000000000000000000 000000000000000000000000000000000000000     00000000                                                                                                                        000000000000000000
F0010000008665400002000004175790100041450500000000000000000201605310002001ROSIRIS FERIA HOYOS  (COSM. SHILLER)              C000000002200000000000000000000000100010010000000000000000000000F0010000008665400220160531000101 00000000000000000000000000000000000000000000000000000000000000000000000000000000000000000000000000000000000000000N 00000000000NCONT   00    00000000000          00000000000000000000000000000000000000000000 000000000000000A000000000000000000000000000000000000000000000 000000000000000000000000000000000000000     00000000                                                                                                                        000000000000000000
F0010000008665400003000004175790100042505000000000000000000201605310002001ROSIRIS FERIA HOYOS  (COSM. SHILLER)              C000000000100000000000000000000000100010010000000000000000000000F0010000008665400320160531000101 00000000000000000000000000000000000000000000000000000000000000000000000000000000000000000000000000000000000000000N 00000000000NCONT   00    00000000000          00000000000000000000000000000000000000000000 000000000000000A000000000000000000000000000000000000000000000 000000000000000000000000000000000000000     00000000                                                                                                                        000000000000000000
F0010000008665400004000004175790100023658300000000000000000201605310002001ROSIRIS FERIA HOYOS  (COSM. SHILLER)              C000000000017600000000000000000000100010010000000000000000000000F0010000008665400420160531000101 00000000000000000000000000000000000000000000000000000000000000000000000000000000000000000000000000000000000000000N 00000000000NCONT   00    00000000000          00000000000000000000000000000000000000000000 000000000000000A000000000000000000000000000000000000000000000 000000000000000000000000000000000000000     00000000                                                                                                                        000000000000000000
F0010000008665400005000004175790100013552100000000000000000201605310002001ROSIRIS FERIA HOYOS  (COSM. SHILLER)              D000000000017600000000000000000000100010010000000000000000000000F0010000008665400520160531000101 00000000000000000000000000000000000000000000000000000000000000000000000000000000000000000000000000000000000000000N 00000000000NCONT   00    00000000000          00000000000000000000000000000000000000000000 000000000000000A000000000000000000000000000000000000000000000 000000000000000000000000000000000000000     00000000                                                                                                                        000000000000000000
F0010000008665500001000003314755400011050500000000000000000201605310002001RUMATEX DE COLOMBIA                               D000000001400000000000000000000000100010010000000000000000000000F0010000008665500120160531000101 00000000000000000000000000000000000000000000000000000000000000000000000000000000000000000000000000000000000000000N 00000000000NCONT   00    00000000000          00000000000000000000000000000000000000000000 000000000000000A000000000000000000000000000000000000000000000 000000000000000000000000000000000000000     00000000                                                                                                                        000000000000000000
F0010000008665500002000003314755400041450500000000000000000201605310002001RUMATEX DE COLOMBIA                               C000000000950000000000000000000000100010010000000000000000000000F0010000008665500220160531000101 00000000000000000000000000000000000000000000000000000000000000000000000000000000000000000000000000000000000000000N 00000000000NCONT   00    00000000000          00000000000000000000000000000000000000000000 000000000000000A000000000000000000000000000000000000000000000 000000000000000000000000000000000000000     00000000                                                                                                                        000000000000000000
F0010000008665500003000003314755400042505000000000000000000201605310002001RUMATEX DE COLOMBIA                               C000000000450000000000000000000000100010010000000000000000000000F0010000008665500320160531000101 00000000000000000000000000000000000000000000000000000000000000000000000000000000000000000000000000000000000000000N 00000000000NCONT   00    00000000000          00000000000000000000000000000000000000000000 000000000000000A000000000000000000000000000000000000000000000 000000000000000000000000000000000000000     00000000                                                                                                                        000000000000000000
F0010000008665500004000003314755400023658300000000000000000201605310002001RUMATEX DE COLOMBIA                               C000000000007600000000000000000000100010010000000000000000000000F0010000008665500420160531000101 00000000000000000000000000000000000000000000000000000000000000000000000000000000000000000000000000000000000000000N 00000000000NCONT   00    00000000000          00000000000000000000000000000000000000000000 000000000000000A000000000000000000000000000000000000000000000 000000000000000000000000000000000000000     00000000                                                                                                                        000000000000000000
F0010000008665500005000003314755400013552100000000000000000201605310002001RUMATEX DE COLOMBIA                               D000000000007600000000000000000000100010010000000000000000000000F0010000008665500520160531000101 00000000000000000000000000000000000000000000000000000000000000000000000000000000000000000000000000000000000000000N 00000000000NCONT   00    00000000000          00000000000000000000000000000000000000000000 000000000000000A000000000000000000000000000000000000000000000 000000000000000000000000000000000000000     00000000                                                                                                                        000000000000000000
F0010000008665600001000007314673400011050500000000000000000201605310002001ALONSO LOPEZ                                      D000000005800000000000000000000000100010010000000000000000000000F0010000008665600120160531000101 00000000000000000000000000000000000000000000000000000000000000000000000000000000000000000000000000000000000000000N 00000000000NCONT   00    00000000000          00000000000000000000000000000000000000000000 000000000000000A000000000000000000000000000000000000000000000 000000000000000000000000000000000000000     00000000                                                                                                                        000000000000000000
F0010000008665600002000007314673400041450500000000000000000201605310002001ALONSO LOPEZ                                      C000000005000000000000000000000000100010010000000000000000000000F0010000008665600220160531000101 00000000000000000000000000000000000000000000000000000000000000000000000000000000000000000000000000000000000000000N 00000000000NCONT   00    00000000000          00000000000000000000000000000000000000000000 000000000000000A000000000000000000000000000000000000000000000 000000000000000000000000000000000000000     00000000                                                                                                                        000000000000000000
F0010000008665600003000007314673400042505000000000000000000201605310002001ALONSO LOPEZ                                      C000000000800000000000000000000000100010010000000000000000000000F0010000008665600320160531000101 00000000000000000000000000000000000000000000000000000000000000000000000000000000000000000000000000000000000000000N 00000000000NCONT   00    00000000000          00000000000000000000000000000000000000000000 000000000000000A000000000000000000000000000000000000000000000 000000000000000000000000000000000000000     00000000                                                                                                                        000000000000000000
F0010000008665600004000007314673400023658300000000000000000201605310002001ALONSO LOPEZ                                      C000000000040000000000000000000000100010010000000000000000000000F0010000008665600420160531000101 00000000000000000000000000000000000000000000000000000000000000000000000000000000000000000000000000000000000000000N 00000000000NCONT   00    00000000000          00000000000000000000000000000000000000000000 000000000000000A000000000000000000000000000000000000000000000 000000000000000000000000000000000000000     00000000                                                                                                                        000000000000000000
F0010000008665600005000007314673400013552100000000000000000201605310002001ALONSO LOPEZ                                      D000000000040000000000000000000000100010010000000000000000000000F0010000008665600520160531000101 00000000000000000000000000000000000000000000000000000000000000000000000000000000000000000000000000000000000000000N 00000000000NCONT   00    00000000000          00000000000000000000000000000000000000000000 000000000000000A000000000000000000000000000000000000000000000 000000000000000000000000000000000000000     00000000                                                                                                                        000000000000000000
F0010000008665700001000090050144800011050500000000000000000201605310002001PLASTICOS JR ASOCIADOS SAS                        D000000002100000000000000000000000100010010000000000000000000000F0010000008665700120160531000101 00000000000000000000000000000000000000000000000000000000000000000000000000000000000000000000000000000000000000000N 00000000000NCONT   00    00000000000          00000000000000000000000000000000000000000000 000000000000000A000000000000000000000000000000000000000000000 000000000000000000000000000000000000000     00000000                                                                                                                        000000000000000000
F0010000008665700002000090050144800041450500000000000000000201605310002001PLASTICOS JR ASOCIADOS SAS                        C000000001900000000000000000000000100010010000000000000000000000F0010000008665700220160531000101 00000000000000000000000000000000000000000000000000000000000000000000000000000000000000000000000000000000000000000N 00000000000NCONT   00    00000000000          00000000000000000000000000000000000000000000 000000000000000A000000000000000000000000000000000000000000000 000000000000000000000000000000000000000     00000000                                                                                                                        000000000000000000
F0010000008665700003000090050144800042505000000000000000000201605310002001PLASTICOS JR ASOCIADOS SAS                        C000000000200000000000000000000000100010010000000000000000000000F0010000008665700320160531000101 00000000000000000000000000000000000000000000000000000000000000000000000000000000000000000000000000000000000000000N 00000000000NCONT   00    00000000000          00000000000000000000000000000000000000000000 000000000000000A000000000000000000000000000000000000000000000 000000000000000000000000000000000000000     00000000                                                                                                                        000000000000000000
F0010000008665700004000090050144800023658300000000000000000201605310002001PLASTICOS JR ASOCIADOS SAS                        C000000000015200000000000000000000100010010000000000000000000000F0010000008665700420160531000101 00000000000000000000000000000000000000000000000000000000000000000000000000000000000000000000000000000000000000000N 00000000000NCONT   00    00000000000          00000000000000000000000000000000000000000000 000000000000000A000000000000000000000000000000000000000000000 000000000000000000000000000000000000000     00000000                                                                                                                        000000000000000000
F0010000008665700005000090050144800013552100000000000000000201605310002001PLASTICOS JR ASOCIADOS SAS                        D000000000015200000000000000000000100010010000000000000000000000F0010000008665700520160531000101 00000000000000000000000000000000000000000000000000000000000000000000000000000000000000000000000000000000000000000N 00000000000NCONT   00    00000000000          00000000000000000000000000000000000000000000 000000000000000A000000000000000000000000000000000000000000000 000000000000000000000000000000000000000     00000000                                                                                                                        000000000000000000
F0010000008665800001000114085854800011050500000000000000000201605310002001DAVID ANTONIO BARROS ARRIETA                      D000000003600000000000000000000000100010010000000000000000000000F0010000008665800120160531000101 00000000000000000000000000000000000000000000000000000000000000000000000000000000000000000000000000000000000000000N 00000000000NCONT   00    00000000000          00000000000000000000000000000000000000000000 000000000000000A000000000000000000000000000000000000000000000 000000000000000000000000000000000000000     00000000                                                                                                                        000000000000000000
F0010000008665800002000114085854800041450500000000000000000201605310002001DAVID ANTONIO BARROS ARRIETA                      C000000003000000000000000000000000100010010000000000000000000000F0010000008665800220160531000101 00000000000000000000000000000000000000000000000000000000000000000000000000000000000000000000000000000000000000000N 00000000000NCONT   00    00000000000          00000000000000000000000000000000000000000000 000000000000000A000000000000000000000000000000000000000000000 000000000000000000000000000000000000000     00000000                                                                                                                        000000000000000000
F0010000008665800003000114085854800042505000000000000000000201605310002001DAVID ANTONIO BARROS ARRIETA                      C000000000600000000000000000000000100010010000000000000000000000F0010000008665800320160531000101 00000000000000000000000000000000000000000000000000000000000000000000000000000000000000000000000000000000000000000N 00000000000NCONT   00    00000000000          00000000000000000000000000000000000000000000 000000000000000A000000000000000000000000000000000000000000000 000000000000000000000000000000000000000     00000000                                                                                                                        000000000000000000
F0010000008665800004000114085854800023658300000000000000000201605310002001DAVID ANTONIO BARROS ARRIETA                      C000000000024000000000000000000000100010010000000000000000000000F0010000008665800420160531000101 00000000000000000000000000000000000000000000000000000000000000000000000000000000000000000000000000000000000000000N 00000000000NCONT   00    00000000000          00000000000000000000000000000000000000000000 000000000000000A000000000000000000000000000000000000000000000 000000000000000000000000000000000000000     00000000                                                                                                                        000000000000000000
F0010000008665800005000114085854800013552100000000000000000201605310002001DAVID ANTONIO BARROS ARRIETA                      D000000000024000000000000000000000100010010000000000000000000000F0010000008665800520160531000101 00000000000000000000000000000000000000000000000000000000000000000000000000000000000000000000000000000000000000000N 00000000000NCONT   00    00000000000          00000000000000000000000000000000000000000000 000000000000000A000000000000000000000000000000000000000000000 000000000000000000000000000000000000000     00000000                                                                                                                        000000000000000000
F0010000008665900001000106498226600011050500000000000000000201605310002001EVA PAULINA GARCIA SANCHEZ                        D000000003200000000000000000000000100010010000000000000000000000F0010000008665900120160531000101 00000000000000000000000000000000000000000000000000000000000000000000000000000000000000000000000000000000000000000N 00000000000NCONT   00    00000000000          00000000000000000000000000000000000000000000 000000000000000A000000000000000000000000000000000000000000000 000000000000000000000000000000000000000     00000000                                                                                                                        000000000000000000
F0010000008665900002000106498226600041450500000000000000000201605310002001EVA PAULINA GARCIA SANCHEZ                        C000000002600000000000000000000000100010010000000000000000000000F0010000008665900220160531000101 00000000000000000000000000000000000000000000000000000000000000000000000000000000000000000000000000000000000000000N 00000000000NCONT   00    00000000000          00000000000000000000000000000000000000000000 000000000000000A000000000000000000000000000000000000000000000 000000000000000000000000000000000000000     00000000                                                                                                                        000000000000000000
F0010000008665900003000106498226600042505000000000000000000201605310002001EVA PAULINA GARCIA SANCHEZ                        C000000000600000000000000000000000100010010000000000000000000000F0010000008665900320160531000101 00000000000000000000000000000000000000000000000000000000000000000000000000000000000000000000000000000000000000000N 00000000000NCONT   00    00000000000          00000000000000000000000000000000000000000000 000000000000000A000000000000000000000000000000000000000000000 000000000000000000000000000000000000000     00000000                                                                                                                        000000000000000000
F0010000008665900004000106498226600023658300000000000000000201605310002001EVA PAULINA GARCIA SANCHEZ                        C000000000020800000000000000000000100010010000000000000000000000F0010000008665900420160531000101 00000000000000000000000000000000000000000000000000000000000000000000000000000000000000000000000000000000000000000N 00000000000NCONT   00    00000000000          00000000000000000000000000000000000000000000 000000000000000A000000000000000000000000000000000000000000000 000000000000000000000000000000000000000     00000000                                                                                                                        000000000000000000
F0010000008665900005000106498226600013552100000000000000000201605310002001EVA PAULINA GARCIA SANCHEZ                        D000000000020800000000000000000000100010010000000000000000000000F0010000008665900520160531000101 00000000000000000000000000000000000000000000000000000000000000000000000000000000000000000000000000000000000000000N 00000000000NCONT   00    00000000000          00000000000000000000000000000000000000000000 000000000000000A000000000000000000000000000000000000000000000 000000000000000000000000000000000000000     00000000                                                                                                                        000000000000000000
F0010000008666000001000007200023300011050500000000000000000201605310002001WILLIAM ORTEGA                                    D000000003000000000000000000000000100010010000000000000000000000F0010000008666000120160531000101 00000000000000000000000000000000000000000000000000000000000000000000000000000000000000000000000000000000000000000N 00000000000NCONT   00    00000000000          00000000000000000000000000000000000000000000 000000000000000A000000000000000000000000000000000000000000000 000000000000000000000000000000000000000     00000000                                                                                                                        000000000000000000
F0010000008666000002000007200023300041450500000000000000000201605310002001WILLIAM ORTEGA                                    C000000002600000000000000000000000100010010000000000000000000000F0010000008666000220160531000101 00000000000000000000000000000000000000000000000000000000000000000000000000000000000000000000000000000000000000000N 00000000000NCONT   00    00000000000          00000000000000000000000000000000000000000000 000000000000000A000000000000000000000000000000000000000000000 000000000000000000000000000000000000000     00000000                                                                                                                        000000000000000000
