F0010000010534100001000003207718300011050500000000000000000201710220002001MARIA GILMA RAMIREZ GARCIA                        D000000039260000000000000000000000100010010000000000000000000000F0010000010534100120171022000101 00000000000000000000000000000000000000000000000000000000000000000000000000000000000000000000000000000000000000000N 00000000000NCONT   00    00000000000          00000000000000000000000000000000000000000000 000000000000000A000000000000000000000000000000000000000000000 000000000000000000000000000000000000000     00000000                                                                                                                        000000000000000000
F0010000010534100002000003207718300041450500000000000000000201710220002001MARIA GILMA RAMIREZ GARCIA                        C000000032260000000000000000000000100010010000000000000000000000F0010000010534100220171022000101 00000000000000000000000000000000000000000000000000000000000000000000000000000000000000000000000000000000000000000N 00000000000NCONT   00    00000000000          00000000000000000000000000000000000000000000 000000000000000A000000000000000000000000000000000000000000000 000000000000000000000000000000000000000     00000000                                                                                                                        000000000000000000
F0010000010534100003000003207718300042505000000000000000000201710220002001MARIA GILMA RAMIREZ GARCIA                        C000000007000000000000000000000000100010010000000000000000000000F0010000010534100320171022000101 00000000000000000000000000000000000000000000000000000000000000000000000000000000000000000000000000000000000000000N 00000000000NCONT   00    00000000000          00000000000000000000000000000000000000000000 000000000000000A000000000000000000000000000000000000000000000 000000000000000000000000000000000000000     00000000                                                                                                                        000000000000000000
F0010000010534100004000003207718300023658300000000000000000201710220002001MARIA GILMA RAMIREZ GARCIA                        C000000000000000000000000000000000100010010000000000000000000000F0010000010534100420171022000101 00000000000000000000000000000000000000000000000000000000000000000000000000000000000000000000000000000000000000000N 00000000000NCONT   00    00000000000          00000000000000000000000000000000000000000000 000000000000000A000000000000000000000000000000000000000000000 000000000000000000000000000000000000000     00000000                                                                                                                        000000000000000000
F0010000010534100005000003207718300013552100000000000000000201710220002001MARIA GILMA RAMIREZ GARCIA                        D000000000000000000000000000000000100010010000000000000000000000F0010000010534100520171022000101 00000000000000000000000000000000000000000000000000000000000000000000000000000000000000000000000000000000000000000N 00000000000NCONT   00    00000000000          00000000000000000000000000000000000000000000 000000000000000A000000000000000000000000000000000000000000000 000000000000000000000000000000000000000     00000000                                                                                                                        000000000000000000
F0010000010534200001000007314673400011050500000000000000000201710220002001EL KILAZO                                         D000000004100000000000000000000000100010010000000000000000000000F0010000010534200120171022000101 00000000000000000000000000000000000000000000000000000000000000000000000000000000000000000000000000000000000000000N 00000000000NCONT   00    00000000000          00000000000000000000000000000000000000000000 000000000000000A000000000000000000000000000000000000000000000 000000000000000000000000000000000000000     00000000                                                                                                                        000000000000000000
F0010000010534200002000007314673400041450500000000000000000201710220002001EL KILAZO                                         C000000003300000000000000000000000100010010000000000000000000000F0010000010534200220171022000101 00000000000000000000000000000000000000000000000000000000000000000000000000000000000000000000000000000000000000000N 00000000000NCONT   00    00000000000          00000000000000000000000000000000000000000000 000000000000000A000000000000000000000000000000000000000000000 000000000000000000000000000000000000000     00000000                                                                                                                        000000000000000000
F0010000010534200003000007314673400042505000000000000000000201710220002001EL KILAZO                                         C000000000800000000000000000000000100010010000000000000000000000F0010000010534200320171022000101 00000000000000000000000000000000000000000000000000000000000000000000000000000000000000000000000000000000000000000N 00000000000NCONT   00    00000000000          00000000000000000000000000000000000000000000 000000000000000A000000000000000000000000000000000000000000000 000000000000000000000000000000000000000     00000000                                                                                                                        000000000000000000
F0010000010534200004000007314673400023658300000000000000000201710220002001EL KILAZO                                         C000000000000000000000000000000000100010010000000000000000000000F0010000010534200420171022000101 00000000000000000000000000000000000000000000000000000000000000000000000000000000000000000000000000000000000000000N 00000000000NCONT   00    00000000000          00000000000000000000000000000000000000000000 000000000000000A000000000000000000000000000000000000000000000 000000000000000000000000000000000000000     00000000                                                                                                                        000000000000000000
F0010000010534200005000007314673400013552100000000000000000201710220002001EL KILAZO                                         D000000000000000000000000000000000100010010000000000000000000000F0010000010534200520171022000101 00000000000000000000000000000000000000000000000000000000000000000000000000000000000000000000000000000000000000000N 00000000000NCONT   00    00000000000          00000000000000000000000000000000000000000000 000000000000000A000000000000000000000000000000000000000000000 000000000000000000000000000000000000000     00000000                                                                                                                        000000000000000000
F0010000010534300001000009120302700011050500000000000000000201710220002001CALZADO SHAMA                                     D000000001900000000000000000000000100010010000000000000000000000F0010000010534300120171022000101 00000000000000000000000000000000000000000000000000000000000000000000000000000000000000000000000000000000000000000N 00000000000NCONT   00    00000000000          00000000000000000000000000000000000000000000 000000000000000A000000000000000000000000000000000000000000000 000000000000000000000000000000000000000     00000000                                                                                                                        000000000000000000
F0010000010534300002000009120302700041450500000000000000000201710220002001CALZADO SHAMA                                     C000000001100000000000000000000000100010010000000000000000000000F0010000010534300220171022000101 00000000000000000000000000000000000000000000000000000000000000000000000000000000000000000000000000000000000000000N 00000000000NCONT   00    00000000000          00000000000000000000000000000000000000000000 000000000000000A000000000000000000000000000000000000000000000 000000000000000000000000000000000000000     00000000                                                                                                                        000000000000000000
F0010000010534300003000009120302700042505000000000000000000201710220002001CALZADO SHAMA                                     C000000000800000000000000000000000100010010000000000000000000000F0010000010534300320171022000101 00000000000000000000000000000000000000000000000000000000000000000000000000000000000000000000000000000000000000000N 00000000000NCONT   00    00000000000          00000000000000000000000000000000000000000000 000000000000000A000000000000000000000000000000000000000000000 000000000000000000000000000000000000000     00000000                                                                                                                        000000000000000000
F0010000010534300004000009120302700023658300000000000000000201710220002001CALZADO SHAMA                                     C000000000000000000000000000000000100010010000000000000000000000F0010000010534300420171022000101 00000000000000000000000000000000000000000000000000000000000000000000000000000000000000000000000000000000000000000N 00000000000NCONT   00    00000000000          00000000000000000000000000000000000000000000 000000000000000A000000000000000000000000000000000000000000000 000000000000000000000000000000000000000     00000000                                                                                                                        000000000000000000
F0010000010534300005000009120302700013552100000000000000000201710220002001CALZADO SHAMA                                     D000000000000000000000000000000000100010010000000000000000000000F0010000010534300520171022000101 00000000000000000000000000000000000000000000000000000000000000000000000000000000000000000000000000000000000000000N 00000000000NCONT   00    00000000000          00000000000000000000000000000000000000000000 000000000000000A000000000000000000000000000000000000000000000 000000000000000000000000000000000000000     00000000                                                                                                                        000000000000000000
F0010000010534400001000090034602400011050500000000000000000201710220002001PRODUCTOS NACIONALES PARAFINICOS LA CUSTODIA S.A.SD000000001600000000000000000000000100010010000000000000000000000F0010000010534400120171022000101 00000000000000000000000000000000000000000000000000000000000000000000000000000000000000000000000000000000000000000N 00000000000NCONT   00    00000000000          00000000000000000000000000000000000000000000 000000000000000A000000000000000000000000000000000000000000000 000000000000000000000000000000000000000     00000000                                                                                                                        000000000000000000
F0010000010534400002000090034602400041450500000000000000000201710220002001PRODUCTOS NACIONALES PARAFINICOS LA CUSTODIA S.A.SC000000001500000000000000000000000100010010000000000000000000000F0010000010534400220171022000101 00000000000000000000000000000000000000000000000000000000000000000000000000000000000000000000000000000000000000000N 00000000000NCONT   00    00000000000          00000000000000000000000000000000000000000000 000000000000000A000000000000000000000000000000000000000000000 000000000000000000000000000000000000000     00000000                                                                                                                        000000000000000000
F0010000010534400003000090034602400042505000000000000000000201710220002001PRODUCTOS NACIONALES PARAFINICOS LA CUSTODIA S.A.SC000000000100000000000000000000000100010010000000000000000000000F0010000010534400320171022000101 00000000000000000000000000000000000000000000000000000000000000000000000000000000000000000000000000000000000000000N 00000000000NCONT   00    00000000000          00000000000000000000000000000000000000000000 000000000000000A000000000000000000000000000000000000000000000 000000000000000000000000000000000000000     00000000                                                                                                                        000000000000000000
F0010000010534400004000090034602400023658300000000000000000201710220002001PRODUCTOS NACIONALES PARAFINICOS LA CUSTODIA S.A.SC000000000000000000000000000000000100010010000000000000000000000F0010000010534400420171022000101 00000000000000000000000000000000000000000000000000000000000000000000000000000000000000000000000000000000000000000N 00000000000NCONT   00    00000000000          00000000000000000000000000000000000000000000 000000000000000A000000000000000000000000000000000000000000000 000000000000000000000000000000000000000     00000000                                                                                                                        000000000000000000
F0010000010534400005000090034602400013552100000000000000000201710220002001PRODUCTOS NACIONALES PARAFINICOS LA CUSTODIA S.A.SD000000000000000000000000000000000100010010000000000000000000000F0010000010534400520171022000101 00000000000000000000000000000000000000000000000000000000000000000000000000000000000000000000000000000000000000000N 00000000000NCONT   00    00000000000          00000000000000000000000000000000000000000000 000000000000000A000000000000000000000000000000000000000000000 000000000000000000000000000000000000000     00000000                                                                                                                        000000000000000000
