F0010000008509600001000089011492400013050500000000000000000201604210002001AGE. CAUCHO SOL DE LA COSTA  SAS                  D000000107663700000000000000000000100010010000000000000000000000F0010000008509600120160421000101 00000000000000000000000000000000000000000000000000000000000000000000000000000000000000000000000000000000000000000N 00000000000NCONT   00    00000000000          00000000000000000000000000000000000000000000 000000000000000A000000000000000000000000000000000000000000000 000000000000000000000000000000000000000     00000000                                                                                                                        000000000000000000
F0010000008509600002000089011492400041450500000000000000000201604210002001AGE. CAUCHO SOL DE LA COSTA  SAS                  C000000065500000000000000000000000100010010000000000000000000000F0010000008509600220160421000101 00000000000000000000000000000000000000000000000000000000000000000000000000000000000000000000000000000000000000000N 00000000000NCONT   00    00000000000          00000000000000000000000000000000000000000000 000000000000000A000000000000000000000000000000000000000000000 000000000000000000000000000000000000000     00000000                                                                                                                        000000000000000000
F0010000008509600003000089011492400042505000000000000000000201604210002001AGE. CAUCHO SOL DE LA COSTA  SAS                  C000000042163700000000000000000000100010010000000000000000000000F0010000008509600320160421000101 00000000000000000000000000000000000000000000000000000000000000000000000000000000000000000000000000000000000000000N 00000000000NCONT   00    00000000000          00000000000000000000000000000000000000000000 000000000000000A000000000000000000000000000000000000000000000 000000000000000000000000000000000000000     00000000                                                                                                                        000000000000000000
F0010000008509600004000089011492400023658300000000000000000201604210002001AGE. CAUCHO SOL DE LA COSTA  SAS                  C000000000524000000000000000000000100010010000000000000000000000F0010000008509600420160421000101 00000000000000000000000000000000000000000000000000000000000000000000000000000000000000000000000000000000000000000N 00000000000NCONT   00    00000000000          00000000000000000000000000000000000000000000 000000000000000A000000000000000000000000000000000000000000000 000000000000000000000000000000000000000     00000000                                                                                                                        000000000000000000
F0010000008509600005000089011492400013552100000000000000000201604210002001AGE. CAUCHO SOL DE LA COSTA  SAS                  D000000000524000000000000000000000100010010000000000000000000000F0010000008509600520160421000101 00000000000000000000000000000000000000000000000000000000000000000000000000000000000000000000000000000000000000000N 00000000000NCONT   00    00000000000          00000000000000000000000000000000000000000000 000000000000000A000000000000000000000000000000000000000000000 000000000000000000000000000000000000000     00000000                                                                                                                        000000000000000000
F0010000008509700001000089011492400013050500000000000000000201604210002001AGE. CAUCHO SOL DE LA COSTA  SAS                  D000000011206800000000000000000000100010010000000000000000000000F0010000008509700120160421000101 00000000000000000000000000000000000000000000000000000000000000000000000000000000000000000000000000000000000000000N 00000000000NCONT   00    00000000000          00000000000000000000000000000000000000000000 000000000000000A000000000000000000000000000000000000000000000 000000000000000000000000000000000000000     00000000                                                                                                                        000000000000000000
F0010000008509700002000089011492400041450500000000000000000201604210002001AGE. CAUCHO SOL DE LA COSTA  SAS                  C000000008000000000000000000000000100010010000000000000000000000F0010000008509700220160421000101 00000000000000000000000000000000000000000000000000000000000000000000000000000000000000000000000000000000000000000N 00000000000NCONT   00    00000000000          00000000000000000000000000000000000000000000 000000000000000A000000000000000000000000000000000000000000000 000000000000000000000000000000000000000     00000000                                                                                                                        000000000000000000
F0010000008509700003000089011492400042505000000000000000000201604210002001AGE. CAUCHO SOL DE LA COSTA  SAS                  C000000003206800000000000000000000100010010000000000000000000000F0010000008509700320160421000101 00000000000000000000000000000000000000000000000000000000000000000000000000000000000000000000000000000000000000000N 00000000000NCONT   00    00000000000          00000000000000000000000000000000000000000000 000000000000000A000000000000000000000000000000000000000000000 000000000000000000000000000000000000000     00000000                                                                                                                        000000000000000000
F0010000008509700004000089011492400023658300000000000000000201604210002001AGE. CAUCHO SOL DE LA COSTA  SAS                  C000000000064000000000000000000000100010010000000000000000000000F0010000008509700420160421000101 00000000000000000000000000000000000000000000000000000000000000000000000000000000000000000000000000000000000000000N 00000000000NCONT   00    00000000000          00000000000000000000000000000000000000000000 000000000000000A000000000000000000000000000000000000000000000 000000000000000000000000000000000000000     00000000                                                                                                                        000000000000000000
F0010000008509700005000089011492400013552100000000000000000201604210002001AGE. CAUCHO SOL DE LA COSTA  SAS                  D000000000064000000000000000000000100010010000000000000000000000F0010000008509700520160421000101 00000000000000000000000000000000000000000000000000000000000000000000000000000000000000000000000000000000000000000N 00000000000NCONT   00    00000000000          00000000000000000000000000000000000000000000 000000000000000A000000000000000000000000000000000000000000000 000000000000000000000000000000000000000     00000000                                                                                                                        000000000000000000
F0010000008509800001000090059316900013050500000000000000000201604210002001DISTRIBUCIONES Y REPRESENTACIONES MANA            D000000048823800000000000000000000100010010000000000000000000000F0010000008509800120160421000101 00000000000000000000000000000000000000000000000000000000000000000000000000000000000000000000000000000000000000000N 00000000000NCONT   00    00000000000          00000000000000000000000000000000000000000000 000000000000000A000000000000000000000000000000000000000000000 000000000000000000000000000000000000000     00000000                                                                                                                        000000000000000000
F0010000008509800002000090059316900041450500000000000000000201604210002001DISTRIBUCIONES Y REPRESENTACIONES MANA            C000000040902100000000000000000000100010010000000000000000000000F0010000008509800220160421000101 00000000000000000000000000000000000000000000000000000000000000000000000000000000000000000000000000000000000000000N 00000000000NCONT   00    00000000000          00000000000000000000000000000000000000000000 000000000000000A000000000000000000000000000000000000000000000 000000000000000000000000000000000000000     00000000                                                                                                                        000000000000000000
F0010000008509800003000090059316900042505000000000000000000201604210002001DISTRIBUCIONES Y REPRESENTACIONES MANA            C000000007921700000000000000000000100010010000000000000000000000F0010000008509800320160421000101 00000000000000000000000000000000000000000000000000000000000000000000000000000000000000000000000000000000000000000N 00000000000NCONT   00    00000000000          00000000000000000000000000000000000000000000 000000000000000A000000000000000000000000000000000000000000000 000000000000000000000000000000000000000     00000000                                                                                                                        000000000000000000
F0010000008509800004000090059316900023658300000000000000000201604210002001DISTRIBUCIONES Y REPRESENTACIONES MANA            C000000000327200000000000000000000100010010000000000000000000000F0010000008509800420160421000101 00000000000000000000000000000000000000000000000000000000000000000000000000000000000000000000000000000000000000000N 00000000000NCONT   00    00000000000          00000000000000000000000000000000000000000000 000000000000000A000000000000000000000000000000000000000000000 000000000000000000000000000000000000000     00000000                                                                                                                        000000000000000000
F0010000008509800005000090059316900013552100000000000000000201604210002001DISTRIBUCIONES Y REPRESENTACIONES MANA            D000000000327200000000000000000000100010010000000000000000000000F0010000008509800520160421000101 00000000000000000000000000000000000000000000000000000000000000000000000000000000000000000000000000000000000000000N 00000000000NCONT   00    00000000000          00000000000000000000000000000000000000000000 000000000000000A000000000000000000000000000000000000000000000 000000000000000000000000000000000000000     00000000                                                                                                                        000000000000000000
F0010000008509900001000000376399500013050500000000000000000201604210002001FORDPLAST                                         D000000007770000000000000000000000100010010000000000000000000000F0010000008509900120160421000101 00000000000000000000000000000000000000000000000000000000000000000000000000000000000000000000000000000000000000000N 00000000000NCONT   00    00000000000          00000000000000000000000000000000000000000000 000000000000000A000000000000000000000000000000000000000000000 000000000000000000000000000000000000000     00000000                                                                                                                        000000000000000000
F0010000008509900002000000376399500041450500000000000000000201604210002001FORDPLAST                                         C000000006120000000000000000000000100010010000000000000000000000F0010000008509900220160421000101 00000000000000000000000000000000000000000000000000000000000000000000000000000000000000000000000000000000000000000N 00000000000NCONT   00    00000000000          00000000000000000000000000000000000000000000 000000000000000A000000000000000000000000000000000000000000000 000000000000000000000000000000000000000     00000000                                                                                                                        000000000000000000
F0010000008509900003000000376399500042505000000000000000000201604210002001FORDPLAST                                         C000000001650000000000000000000000100010010000000000000000000000F0010000008509900320160421000101 00000000000000000000000000000000000000000000000000000000000000000000000000000000000000000000000000000000000000000N 00000000000NCONT   00    00000000000          00000000000000000000000000000000000000000000 000000000000000A000000000000000000000000000000000000000000000 000000000000000000000000000000000000000     00000000                                                                                                                        000000000000000000
F0010000008509900004000000376399500023658300000000000000000201604210002001FORDPLAST                                         C000000000049000000000000000000000100010010000000000000000000000F0010000008509900420160421000101 00000000000000000000000000000000000000000000000000000000000000000000000000000000000000000000000000000000000000000N 00000000000NCONT   00    00000000000          00000000000000000000000000000000000000000000 000000000000000A000000000000000000000000000000000000000000000 000000000000000000000000000000000000000     00000000                                                                                                                        000000000000000000
F0010000008509900005000000376399500013552100000000000000000201604210002001FORDPLAST                                         D000000000049000000000000000000000100010010000000000000000000000F0010000008509900520160421000101 00000000000000000000000000000000000000000000000000000000000000000000000000000000000000000000000000000000000000000N 00000000000NCONT   00    00000000000          00000000000000000000000000000000000000000000 000000000000000A000000000000000000000000000000000000000000000 000000000000000000000000000000000000000     00000000                                                                                                                        000000000000000000
F0010000008510000001000080201112800013050500000000000000000201604210002001CANGURO INTERNATIONAL S.A.                        D000000204646000000000000000000000100010010000000000000000000000F0010000008510000120160421000101 00000000000000000000000000000000000000000000000000000000000000000000000000000000000000000000000000000000000000000N 00000000000NCONT   00    00000000000          00000000000000000000000000000000000000000000 000000000000000A000000000000000000000000000000000000000000000 000000000000000000000000000000000000000     00000000                                                                                                                        000000000000000000
F0010000008510000002000080201112800041450500000000000000000201604210002001CANGURO INTERNATIONAL S.A.                        C000000204646000000000000000000000100010010000000000000000000000F0010000008510000220160421000101 00000000000000000000000000000000000000000000000000000000000000000000000000000000000000000000000000000000000000000N 00000000000NCONT   00    00000000000          00000000000000000000000000000000000000000000 000000000000000A000000000000000000000000000000000000000000000 000000000000000000000000000000000000000     00000000                                                                                                                        000000000000000000
F0010000008510000003000080201112800042505000000000000000000201604210002001CANGURO INTERNATIONAL S.A.                        C000000000000000000000000000000000100010010000000000000000000000F0010000008510000320160421000101 00000000000000000000000000000000000000000000000000000000000000000000000000000000000000000000000000000000000000000N 00000000000NCONT   00    00000000000          00000000000000000000000000000000000000000000 000000000000000A000000000000000000000000000000000000000000000 000000000000000000000000000000000000000     00000000                                                                                                                        000000000000000000
F0010000008510000004000080201112800023658300000000000000000201604210002001CANGURO INTERNATIONAL S.A.                        C000000001637200000000000000000000100010010000000000000000000000F0010000008510000420160421000101 00000000000000000000000000000000000000000000000000000000000000000000000000000000000000000000000000000000000000000N 00000000000NCONT   00    00000000000          00000000000000000000000000000000000000000000 000000000000000A000000000000000000000000000000000000000000000 000000000000000000000000000000000000000     00000000                                                                                                                        000000000000000000
F0010000008510000005000080201112800013552100000000000000000201604210002001CANGURO INTERNATIONAL S.A.                        D000000001637200000000000000000000100010010000000000000000000000F0010000008510000520160421000101 00000000000000000000000000000000000000000000000000000000000000000000000000000000000000000000000000000000000000000N 00000000000NCONT   00    00000000000          00000000000000000000000000000000000000000000 000000000000000A000000000000000000000000000000000000000000000 000000000000000000000000000000000000000     00000000                                                                                                                        000000000000000000
F0010000008510100001000080201112800013050500000000000000000201604210002001CANGURO INTERNATIONAL S.A.                        D000000021990000000000000000000000100010010000000000000000000000F0010000008510100120160421000101 00000000000000000000000000000000000000000000000000000000000000000000000000000000000000000000000000000000000000000N 00000000000NCONT   00    00000000000          00000000000000000000000000000000000000000000 000000000000000A000000000000000000000000000000000000000000000 000000000000000000000000000000000000000     00000000                                                                                                                        000000000000000000
F0010000008510100002000080201112800041450500000000000000000201604210002001CANGURO INTERNATIONAL S.A.                        C000000021990000000000000000000000100010010000000000000000000000F0010000008510100220160421000101 00000000000000000000000000000000000000000000000000000000000000000000000000000000000000000000000000000000000000000N 00000000000NCONT   00    00000000000          00000000000000000000000000000000000000000000 000000000000000A000000000000000000000000000000000000000000000 000000000000000000000000000000000000000     00000000                                                                                                                        000000000000000000
F0010000008510100003000080201112800042505000000000000000000201604210002001CANGURO INTERNATIONAL S.A.                        C000000000000000000000000000000000100010010000000000000000000000F0010000008510100320160421000101 00000000000000000000000000000000000000000000000000000000000000000000000000000000000000000000000000000000000000000N 00000000000NCONT   00    00000000000          00000000000000000000000000000000000000000000 000000000000000A000000000000000000000000000000000000000000000 000000000000000000000000000000000000000     00000000                                                                                                                        000000000000000000
F0010000008510100004000080201112800023658300000000000000000201604210002001CANGURO INTERNATIONAL S.A.                        C000000000175900000000000000000000100010010000000000000000000000F0010000008510100420160421000101 00000000000000000000000000000000000000000000000000000000000000000000000000000000000000000000000000000000000000000N 00000000000NCONT   00    00000000000          00000000000000000000000000000000000000000000 000000000000000A000000000000000000000000000000000000000000000 000000000000000000000000000000000000000     00000000                                                                                                                        000000000000000000
F0010000008510100005000080201112800013552100000000000000000201604210002001CANGURO INTERNATIONAL S.A.                        D000000000175900000000000000000000100010010000000000000000000000F0010000008510100520160421000101 00000000000000000000000000000000000000000000000000000000000000000000000000000000000000000000000000000000000000000N 00000000000NCONT   00    00000000000          00000000000000000000000000000000000000000000 000000000000000A000000000000000000000000000000000000000000000 000000000000000000000000000000000000000     00000000                                                                                                                        000000000000000000
F0010000008510200001000089031248700013050500000000000000000201604210002001DISTRIBUIDORA CALIPLASTICOS LTDA                  D000000059060900000000000000000000100010010000000000000000000000F0010000008510200120160421000101 00000000000000000000000000000000000000000000000000000000000000000000000000000000000000000000000000000000000000000N 00000000000NCONT   00    00000000000          00000000000000000000000000000000000000000000 000000000000000A000000000000000000000000000000000000000000000 000000000000000000000000000000000000000     00000000                                                                                                                        000000000000000000
F0010000008510200002000089031248700041450500000000000000000201604210002001DISTRIBUIDORA CALIPLASTICOS LTDA                  C000000055820900000000000000000000100010010000000000000000000000F0010000008510200220160421000101 00000000000000000000000000000000000000000000000000000000000000000000000000000000000000000000000000000000000000000N 00000000000NCONT   00    00000000000          00000000000000000000000000000000000000000000 000000000000000A000000000000000000000000000000000000000000000 000000000000000000000000000000000000000     00000000                                                                                                                        000000000000000000
F0010000008510200003000089031248700042505000000000000000000201604210002001DISTRIBUIDORA CALIPLASTICOS LTDA                  C000000003240000000000000000000000100010010000000000000000000000F0010000008510200320160421000101 00000000000000000000000000000000000000000000000000000000000000000000000000000000000000000000000000000000000000000N 00000000000NCONT   00    00000000000          00000000000000000000000000000000000000000000 000000000000000A000000000000000000000000000000000000000000000 000000000000000000000000000000000000000     00000000                                                                                                                        000000000000000000
F0010000008510200004000089031248700023658300000000000000000201604210002001DISTRIBUIDORA CALIPLASTICOS LTDA                  C000000000446600000000000000000000100010010000000000000000000000F0010000008510200420160421000101 00000000000000000000000000000000000000000000000000000000000000000000000000000000000000000000000000000000000000000N 00000000000NCONT   00    00000000000          00000000000000000000000000000000000000000000 000000000000000A000000000000000000000000000000000000000000000 000000000000000000000000000000000000000     00000000                                                                                                                        000000000000000000
F0010000008510200005000089031248700013552100000000000000000201604210002001DISTRIBUIDORA CALIPLASTICOS LTDA                  D000000000446600000000000000000000100010010000000000000000000000F0010000008510200520160421000101 00000000000000000000000000000000000000000000000000000000000000000000000000000000000000000000000000000000000000000N 00000000000NCONT   00    00000000000          00000000000000000000000000000000000000000000 000000000000000A000000000000000000000000000000000000000000000 000000000000000000000000000000000000000     00000000                                                                                                                        000000000000000000
F0010000008510300001000081102758700013050500000000000000000201604210002001C.I. ABRACOL S.A EMA                              D000000151049500000000000000000000100010010000000000000000000000F0010000008510300120160421000101 00000000000000000000000000000000000000000000000000000000000000000000000000000000000000000000000000000000000000000N 00000000000NCONT   00    00000000000          00000000000000000000000000000000000000000000 000000000000000A000000000000000000000000000000000000000000000 000000000000000000000000000000000000000     00000000                                                                                                                        000000000000000000
F0010000008510300002000081102758700041450500000000000000000201604210002001C.I. ABRACOL S.A EMA                              C000000075130000000000000000000000100010010000000000000000000000F0010000008510300220160421000101 00000000000000000000000000000000000000000000000000000000000000000000000000000000000000000000000000000000000000000N 00000000000NCONT   00    00000000000          00000000000000000000000000000000000000000000 000000000000000A000000000000000000000000000000000000000000000 000000000000000000000000000000000000000     00000000                                                                                                                        000000000000000000
F0010000008510300003000081102758700041750100000000000000000201604210002001C.I. ABRACOL S.A EMA                              D000000002253900000000000000000000100010010000000000000000000000F0010000008510300320160421000101 00000000000000000000000000000000000000000000000000000000000000000000000000000000000000000000000000000000000000000N 00000000000NCONT   00    00000000000          00000000000000000000000000000000000000000000 000000000000000A000000000000000000000000000000000000000000000 000000000000000000000000000000000000000     00000000                                                                                                                        000000000000000000
F0010000008510300004000081102758700042505000000000000000000201604210002001C.I. ABRACOL S.A EMA                              C000000078173400000000000000000000100010010000000000000000000000F0010000008510300420160421000101 00000000000000000000000000000000000000000000000000000000000000000000000000000000000000000000000000000000000000000N 00000000000NCONT   00    00000000000          00000000000000000000000000000000000000000000 000000000000000A000000000000000000000000000000000000000000000 000000000000000000000000000000000000000     00000000                                                                                                                        000000000000000000
F0010000008510300005000081102758700023658300000000000000000201604210002001C.I. ABRACOL S.A EMA                              C000000000601000000000000000000000100010010000000000000000000000F0010000008510300520160421000101 00000000000000000000000000000000000000000000000000000000000000000000000000000000000000000000000000000000000000000N 00000000000NCONT   00    00000000000          00000000000000000000000000000000000000000000 000000000000000A000000000000000000000000000000000000000000000 000000000000000000000000000000000000000     00000000                                                                                                                        000000000000000000
F0010000008510300006000081102758700013552100000000000000000201604210002001C.I. ABRACOL S.A EMA                              D000000000601000000000000000000000100010010000000000000000000000F0010000008510300620160421000101 00000000000000000000000000000000000000000000000000000000000000000000000000000000000000000000000000000000000000000N 00000000000NCONT   00    00000000000          00000000000000000000000000000000000000000000 000000000000000A000000000000000000000000000000000000000000000 000000000000000000000000000000000000000     00000000                                                                                                                        000000000000000000
F0010000008510400001000081102758700013050500000000000000000201604210002001C.I. ABRACOL S.A EMA                              D000000034144900000000000000000000100010010000000000000000000000F0010000008510400120160421000101 00000000000000000000000000000000000000000000000000000000000000000000000000000000000000000000000000000000000000000N 00000000000NCONT   00    00000000000          00000000000000000000000000000000000000000000 000000000000000A000000000000000000000000000000000000000000000 000000000000000000000000000000000000000     00000000                                                                                                                        000000000000000000
F0010000008510400002000081102758700041450500000000000000000201604210002001C.I. ABRACOL S.A EMA                              C000000020780000000000000000000000100010010000000000000000000000F0010000008510400220160421000101 00000000000000000000000000000000000000000000000000000000000000000000000000000000000000000000000000000000000000000N 00000000000NCONT   00    00000000000          00000000000000000000000000000000000000000000 000000000000000A000000000000000000000000000000000000000000000 000000000000000000000000000000000000000     00000000                                                                                                                        000000000000000000
F0010000008510400003000081102758700041750100000000000000000201604210002001C.I. ABRACOL S.A EMA                              D000000000623400000000000000000000100010010000000000000000000000F0010000008510400320160421000101 00000000000000000000000000000000000000000000000000000000000000000000000000000000000000000000000000000000000000000N 00000000000NCONT   00    00000000000          00000000000000000000000000000000000000000000 000000000000000A000000000000000000000000000000000000000000000 000000000000000000000000000000000000000     00000000                                                                                                                        000000000000000000
F0010000008510400004000081102758700042505000000000000000000201604210002001C.I. ABRACOL S.A EMA                              C000000013988300000000000000000000100010010000000000000000000000F0010000008510400420160421000101 00000000000000000000000000000000000000000000000000000000000000000000000000000000000000000000000000000000000000000N 00000000000NCONT   00    00000000000          00000000000000000000000000000000000000000000 000000000000000A000000000000000000000000000000000000000000000 000000000000000000000000000000000000000     00000000                                                                                                                        000000000000000000
F0010000008510400005000081102758700023658300000000000000000201604210002001C.I. ABRACOL S.A EMA                              C000000000166200000000000000000000100010010000000000000000000000F0010000008510400520160421000101 00000000000000000000000000000000000000000000000000000000000000000000000000000000000000000000000000000000000000000N 00000000000NCONT   00    00000000000          00000000000000000000000000000000000000000000 000000000000000A000000000000000000000000000000000000000000000 000000000000000000000000000000000000000     00000000                                                                                                                        000000000000000000
F0010000008510400006000081102758700013552100000000000000000201604210002001C.I. ABRACOL S.A EMA                              D000000000166200000000000000000000100010010000000000000000000000F0010000008510400620160421000101 00000000000000000000000000000000000000000000000000000000000000000000000000000000000000000000000000000000000000000N 00000000000NCONT   00    00000000000          00000000000000000000000000000000000000000000 000000000000000A000000000000000000000000000000000000000000000 000000000000000000000000000000000000000     00000000                                                                                                                        000000000000000000
F0010000008510500001000081102758700013050500000000000000000201604210002001C.I. ABRACOL S.A EMA                              D000000120791000000000000000000000100010010000000000000000000000F0010000008510500120160421000101 00000000000000000000000000000000000000000000000000000000000000000000000000000000000000000000000000000000000000000N 00000000000NCONT   00    00000000000          00000000000000000000000000000000000000000000 000000000000000A000000000000000000000000000000000000000000000 000000000000000000000000000000000000000     00000000                                                                                                                        000000000000000000
F0010000008510500002000081102758700041450500000000000000000201604210002001C.I. ABRACOL S.A EMA                              C000000072520000000000000000000000100010010000000000000000000000F0010000008510500220160421000101 00000000000000000000000000000000000000000000000000000000000000000000000000000000000000000000000000000000000000000N 00000000000NCONT   00    00000000000          00000000000000000000000000000000000000000000 000000000000000A000000000000000000000000000000000000000000000 000000000000000000000000000000000000000     00000000                                                                                                                        000000000000000000
F0010000008510500003000081102758700041750100000000000000000201604210002001C.I. ABRACOL S.A EMA                              D000000002175600000000000000000000100010010000000000000000000000F0010000008510500320160421000101 00000000000000000000000000000000000000000000000000000000000000000000000000000000000000000000000000000000000000000N 00000000000NCONT   00    00000000000          00000000000000000000000000000000000000000000 000000000000000A000000000000000000000000000000000000000000000 000000000000000000000000000000000000000     00000000                                                                                                                        000000000000000000
F0010000008510500004000081102758700042505000000000000000000201604210002001C.I. ABRACOL S.A EMA                              C000000050446600000000000000000000100010010000000000000000000000F0010000008510500420160421000101 00000000000000000000000000000000000000000000000000000000000000000000000000000000000000000000000000000000000000000N 00000000000NCONT   00    00000000000          00000000000000000000000000000000000000000000 000000000000000A000000000000000000000000000000000000000000000 000000000000000000000000000000000000000     00000000                                                                                                                        000000000000000000
F0010000008510500005000081102758700023658300000000000000000201604210002001C.I. ABRACOL S.A EMA                              C000000000580200000000000000000000100010010000000000000000000000F0010000008510500520160421000101 00000000000000000000000000000000000000000000000000000000000000000000000000000000000000000000000000000000000000000N 00000000000NCONT   00    00000000000          00000000000000000000000000000000000000000000 000000000000000A000000000000000000000000000000000000000000000 000000000000000000000000000000000000000     00000000                                                                                                                        000000000000000000
F0010000008510500006000081102758700013552100000000000000000201604210002001C.I. ABRACOL S.A EMA                              D000000000580200000000000000000000100010010000000000000000000000F0010000008510500620160421000101 00000000000000000000000000000000000000000000000000000000000000000000000000000000000000000000000000000000000000000N 00000000000NCONT   00    00000000000          00000000000000000000000000000000000000000000 000000000000000A000000000000000000000000000000000000000000000 000000000000000000000000000000000000000     00000000                                                                                                                        000000000000000000
F0010000008510600001000089030195100013050500000000000000000201604210002001LIBRERIA NACIONAL S.A.                            D000000027600000000000000000000000100010010000000000000000000000F0010000008510600120160421000101 00000000000000000000000000000000000000000000000000000000000000000000000000000000000000000000000000000000000000000N 00000000000NCONT   00    00000000000          00000000000000000000000000000000000000000000 000000000000000A000000000000000000000000000000000000000000000 000000000000000000000000000000000000000     00000000                                                                                                                        000000000000000000
F0010000008510600002000089030195100041450500000000000000000201604210002001LIBRERIA NACIONAL S.A.                            C000000022700000000000000000000000100010010000000000000000000000F0010000008510600220160421000101 00000000000000000000000000000000000000000000000000000000000000000000000000000000000000000000000000000000000000000N 00000000000NCONT   00    00000000000          00000000000000000000000000000000000000000000 000000000000000A000000000000000000000000000000000000000000000 000000000000000000000000000000000000000     00000000                                                                                                                        000000000000000000
F0010000008510600003000089030195100042505000000000000000000201604210002001LIBRERIA NACIONAL S.A.                            C000000004900000000000000000000000100010010000000000000000000000F0010000008510600320160421000101 00000000000000000000000000000000000000000000000000000000000000000000000000000000000000000000000000000000000000000N 00000000000NCONT   00    00000000000          00000000000000000000000000000000000000000000 000000000000000A000000000000000000000000000000000000000000000 000000000000000000000000000000000000000     00000000                                                                                                                        000000000000000000
F0010000008510600004000089030195100023658300000000000000000201604210002001LIBRERIA NACIONAL S.A.                            C000000000181600000000000000000000100010010000000000000000000000F0010000008510600420160421000101 00000000000000000000000000000000000000000000000000000000000000000000000000000000000000000000000000000000000000000N 00000000000NCONT   00    00000000000          00000000000000000000000000000000000000000000 000000000000000A000000000000000000000000000000000000000000000 000000000000000000000000000000000000000     00000000                                                                                                                        000000000000000000
F0010000008510600005000089030195100013552100000000000000000201604210002001LIBRERIA NACIONAL S.A.                            D000000000181600000000000000000000100010010000000000000000000000F0010000008510600520160421000101 00000000000000000000000000000000000000000000000000000000000000000000000000000000000000000000000000000000000000000N 00000000000NCONT   00    00000000000          00000000000000000000000000000000000000000000 000000000000000A000000000000000000000000000000000000000000000 000000000000000000000000000000000000000     00000000                                                                                                                        000000000000000000
F0010000008510700001000090037881900013050500000000000000000201604210002001COMERCIALIZADORA RACOPI S.A.S                     D000000010460000000000000000000000100010010000000000000000000000F0010000008510700120160421000101 00000000000000000000000000000000000000000000000000000000000000000000000000000000000000000000000000000000000000000N 00000000000NCONT   00    00000000000          00000000000000000000000000000000000000000000 000000000000000A000000000000000000000000000000000000000000000 000000000000000000000000000000000000000     00000000                                                                                                                        000000000000000000
F0010000008510700002000090037881900041450500000000000000000201604210002001COMERCIALIZADORA RACOPI S.A.S                     C000000008460000000000000000000000100010010000000000000000000000F0010000008510700220160421000101 00000000000000000000000000000000000000000000000000000000000000000000000000000000000000000000000000000000000000000N 00000000000NCONT   00    00000000000          00000000000000000000000000000000000000000000 000000000000000A000000000000000000000000000000000000000000000 000000000000000000000000000000000000000     00000000                                                                                                                        000000000000000000
F0010000008510700003000090037881900042505000000000000000000201604210002001COMERCIALIZADORA RACOPI S.A.S                     C000000002000000000000000000000000100010010000000000000000000000F0010000008510700320160421000101 00000000000000000000000000000000000000000000000000000000000000000000000000000000000000000000000000000000000000000N 00000000000NCONT   00    00000000000          00000000000000000000000000000000000000000000 000000000000000A000000000000000000000000000000000000000000000 000000000000000000000000000000000000000     00000000                                                                                                                        000000000000000000
F0010000008510700004000090037881900023658300000000000000000201604210002001COMERCIALIZADORA RACOPI S.A.S                     C000000000067700000000000000000000100010010000000000000000000000F0010000008510700420160421000101 00000000000000000000000000000000000000000000000000000000000000000000000000000000000000000000000000000000000000000N 00000000000NCONT   00    00000000000          00000000000000000000000000000000000000000000 000000000000000A000000000000000000000000000000000000000000000 000000000000000000000000000000000000000     00000000                                                                                                                        000000000000000000
F0010000008510700005000090037881900013552100000000000000000201604210002001COMERCIALIZADORA RACOPI S.A.S                     D000000000067700000000000000000000100010010000000000000000000000F0010000008510700520160421000101 00000000000000000000000000000000000000000000000000000000000000000000000000000000000000000000000000000000000000000N 00000000000NCONT   00    00000000000          00000000000000000000000000000000000000000000 000000000000000A000000000000000000000000000000000000000000000 000000000000000000000000000000000000000     00000000                                                                                                                        000000000000000000
F0010000008510800001000090040631000013050500000000000000000201604210002001BEINEX SAS                                        D000000021436800000000000000000000100010010000000000000000000000F0010000008510800120160421000101 00000000000000000000000000000000000000000000000000000000000000000000000000000000000000000000000000000000000000000N 00000000000NCONT   00    00000000000          00000000000000000000000000000000000000000000 000000000000000A000000000000000000000000000000000000000000000 000000000000000000000000000000000000000     00000000                                                                                                                        000000000000000000
F0010000008510800002000090040631000041450500000000000000000201604210002001BEINEX SAS                                        C000000022330000000000000000000000100010010000000000000000000000F0010000008510800220160421000101 00000000000000000000000000000000000000000000000000000000000000000000000000000000000000000000000000000000000000000N 00000000000NCONT   00    00000000000          00000000000000000000000000000000000000000000 000000000000000A000000000000000000000000000000000000000000000 000000000000000000000000000000000000000     00000000                                                                                                                        000000000000000000
F0010000008510800003000090040631000041750100000000000000000201604210002001BEINEX SAS                                        D000000000893200000000000000000000100010010000000000000000000000F0010000008510800320160421000101 00000000000000000000000000000000000000000000000000000000000000000000000000000000000000000000000000000000000000000N 00000000000NCONT   00    00000000000          00000000000000000000000000000000000000000000 000000000000000A000000000000000000000000000000000000000000000 000000000000000000000000000000000000000     00000000                                                                                                                        000000000000000000
F0010000008510800004000090040631000042505000000000000000000201604210002001BEINEX SAS                                        C000000000000000000000000000000000100010010000000000000000000000F0010000008510800420160421000101 00000000000000000000000000000000000000000000000000000000000000000000000000000000000000000000000000000000000000000N 00000000000NCONT   00    00000000000          00000000000000000000000000000000000000000000 000000000000000A000000000000000000000000000000000000000000000 000000000000000000000000000000000000000     00000000                                                                                                                        000000000000000000
F0010000008510800005000090040631000023658300000000000000000201604210002001BEINEX SAS                                        C000000000178600000000000000000000100010010000000000000000000000F0010000008510800520160421000101 00000000000000000000000000000000000000000000000000000000000000000000000000000000000000000000000000000000000000000N 00000000000NCONT   00    00000000000          00000000000000000000000000000000000000000000 000000000000000A000000000000000000000000000000000000000000000 000000000000000000000000000000000000000     00000000                                                                                                                        000000000000000000
F0010000008510800006000090040631000013552100000000000000000201604210002001BEINEX SAS                                        D000000000178600000000000000000000100010010000000000000000000000F0010000008510800620160421000101 00000000000000000000000000000000000000000000000000000000000000000000000000000000000000000000000000000000000000000N 00000000000NCONT   00    00000000000          00000000000000000000000000000000000000000000 000000000000000A000000000000000000000000000000000000000000000 000000000000000000000000000000000000000     00000000                                                                                                                        000000000000000000
F0010000008510900001000007217645600011050500000000000000000201604210002001PEDRO ANTONIO ACUñA ACUñA                       D000000001600000000000000000000000100010010000000000000000000000F0010000008510900120160421000101 00000000000000000000000000000000000000000000000000000000000000000000000000000000000000000000000000000000000000000N 00000000000NCONT   00    00000000000          00000000000000000000000000000000000000000000 000000000000000A000000000000000000000000000000000000000000000 000000000000000000000000000000000000000     00000000                                                                                                                        000000000000000000
F0010000008510900002000007217645600041450500000000000000000201604210002001PEDRO ANTONIO ACUñA ACUñA                       C000000001300000000000000000000000100010010000000000000000000000F0010000008510900220160421000101 00000000000000000000000000000000000000000000000000000000000000000000000000000000000000000000000000000000000000000N 00000000000NCONT   00    00000000000          00000000000000000000000000000000000000000000 000000000000000A000000000000000000000000000000000000000000000 000000000000000000000000000000000000000     00000000                                                                                                                        000000000000000000
F0010000008510900003000007217645600042505000000000000000000201604210002001PEDRO ANTONIO ACUñA ACUñA                       C000000000300000000000000000000000100010010000000000000000000000F0010000008510900320160421000101 00000000000000000000000000000000000000000000000000000000000000000000000000000000000000000000000000000000000000000N 00000000000NCONT   00    00000000000          00000000000000000000000000000000000000000000 000000000000000A000000000000000000000000000000000000000000000 000000000000000000000000000000000000000     00000000                                                                                                                        000000000000000000
F0010000008510900004000007217645600023658300000000000000000201604210002001PEDRO ANTONIO ACUñA ACUñA                       C000000000010400000000000000000000100010010000000000000000000000F0010000008510900420160421000101 00000000000000000000000000000000000000000000000000000000000000000000000000000000000000000000000000000000000000000N 00000000000NCONT   00    00000000000          00000000000000000000000000000000000000000000 000000000000000A000000000000000000000000000000000000000000000 000000000000000000000000000000000000000     00000000                                                                                                                        000000000000000000
F0010000008510900005000007217645600013552100000000000000000201604210002001PEDRO ANTONIO ACUñA ACUñA                       D000000000010400000000000000000000100010010000000000000000000000F0010000008510900520160421000101 00000000000000000000000000000000000000000000000000000000000000000000000000000000000000000000000000000000000000000N 00000000000NCONT   00    00000000000          00000000000000000000000000000000000000000000 000000000000000A000000000000000000000000000000000000000000000 000000000000000000000000000000000000000     00000000                                                                                                                        000000000000000000
F0010000008511000001000089010272700013050500000000000000000201604210002001ALFONSOEME S.A.                                   D000000025205500000000000000000000100010010000000000000000000000F0010000008511000120160421000101 00000000000000000000000000000000000000000000000000000000000000000000000000000000000000000000000000000000000000000N 00000000000NCONT   00    00000000000          00000000000000000000000000000000000000000000 000000000000000A000000000000000000000000000000000000000000000 000000000000000000000000000000000000000     00000000                                                                                                                        000000000000000000
F0010000008511000002000089010272700041450500000000000000000201604210002001ALFONSOEME S.A.                                   C000000024895000000000000000000000100010010000000000000000000000F0010000008511000220160421000101 00000000000000000000000000000000000000000000000000000000000000000000000000000000000000000000000000000000000000000N 00000000000NCONT   00    00000000000          00000000000000000000000000000000000000000000 000000000000000A000000000000000000000000000000000000000000000 000000000000000000000000000000000000000     00000000                                                                                                                        000000000000000000
F0010000008511000003000089010272700041750100000000000000000201604210002001ALFONSOEME S.A.                                   D000000002489500000000000000000000100010010000000000000000000000F0010000008511000320160421000101 00000000000000000000000000000000000000000000000000000000000000000000000000000000000000000000000000000000000000000N 00000000000NCONT   00    00000000000          00000000000000000000000000000000000000000000 000000000000000A000000000000000000000000000000000000000000000 000000000000000000000000000000000000000     00000000                                                                                                                        000000000000000000
F0010000008511000004000089010272700042505000000000000000000201604210002001ALFONSOEME S.A.                                   C000000002800000000000000000000000100010010000000000000000000000F0010000008511000420160421000101 00000000000000000000000000000000000000000000000000000000000000000000000000000000000000000000000000000000000000000N 00000000000NCONT   00    00000000000          00000000000000000000000000000000000000000000 000000000000000A000000000000000000000000000000000000000000000 000000000000000000000000000000000000000     00000000                                                                                                                        000000000000000000
F0010000008511000005000089010272700023658300000000000000000201604210002001ALFONSOEME S.A.                                   C000000000199200000000000000000000100010010000000000000000000000F0010000008511000520160421000101 00000000000000000000000000000000000000000000000000000000000000000000000000000000000000000000000000000000000000000N 00000000000NCONT   00    00000000000          00000000000000000000000000000000000000000000 000000000000000A000000000000000000000000000000000000000000000 000000000000000000000000000000000000000     00000000                                                                                                                        000000000000000000
F0010000008511000006000089010272700013552100000000000000000201604210002001ALFONSOEME S.A.                                   D000000000199200000000000000000000100010010000000000000000000000F0010000008511000620160421000101 00000000000000000000000000000000000000000000000000000000000000000000000000000000000000000000000000000000000000000N 00000000000NCONT   00    00000000000          00000000000000000000000000000000000000000000 000000000000000A000000000000000000000000000000000000000000000 000000000000000000000000000000000000000     00000000                                                                                                                        000000000000000000
F0010000008511100001000089010272700013050500000000000000000201604210002001ALFONSOEME S.A.                                   D000000023711900000000000000000000100010010000000000000000000000F0010000008511100120160421000101 00000000000000000000000000000000000000000000000000000000000000000000000000000000000000000000000000000000000000000N 00000000000NCONT   00    00000000000          00000000000000000000000000000000000000000000 000000000000000A000000000000000000000000000000000000000000000 000000000000000000000000000000000000000     00000000                                                                                                                        000000000000000000
F0010000008511100002000089010272700041450500000000000000000201604210002001ALFONSOEME S.A.                                   C000000022435500000000000000000000100010010000000000000000000000F0010000008511100220160421000101 00000000000000000000000000000000000000000000000000000000000000000000000000000000000000000000000000000000000000000N 00000000000NCONT   00    00000000000          00000000000000000000000000000000000000000000 000000000000000A000000000000000000000000000000000000000000000 000000000000000000000000000000000000000     00000000                                                                                                                        000000000000000000
F0010000008511100003000089010272700041750100000000000000000201604210002001ALFONSOEME S.A.                                   D000000002243600000000000000000000100010010000000000000000000000F0010000008511100320160421000101 00000000000000000000000000000000000000000000000000000000000000000000000000000000000000000000000000000000000000000N 00000000000NCONT   00    00000000000          00000000000000000000000000000000000000000000 000000000000000A000000000000000000000000000000000000000000000 000000000000000000000000000000000000000     00000000                                                                                                                        000000000000000000
F0010000008511100004000089010272700042505000000000000000000201604210002001ALFONSOEME S.A.                                   C000000003520000000000000000000000100010010000000000000000000000F0010000008511100420160421000101 00000000000000000000000000000000000000000000000000000000000000000000000000000000000000000000000000000000000000000N 00000000000NCONT   00    00000000000          00000000000000000000000000000000000000000000 000000000000000A000000000000000000000000000000000000000000000 000000000000000000000000000000000000000     00000000                                                                                                                        000000000000000000
F0010000008511100005000089010272700023658300000000000000000201604210002001ALFONSOEME S.A.                                   C000000000179500000000000000000000100010010000000000000000000000F0010000008511100520160421000101 00000000000000000000000000000000000000000000000000000000000000000000000000000000000000000000000000000000000000000N 00000000000NCONT   00    00000000000          00000000000000000000000000000000000000000000 000000000000000A000000000000000000000000000000000000000000000 000000000000000000000000000000000000000     00000000                                                                                                                        000000000000000000
F0010000008511100006000089010272700013552100000000000000000201604210002001ALFONSOEME S.A.                                   D000000000179500000000000000000000100010010000000000000000000000F0010000008511100620160421000101 00000000000000000000000000000000000000000000000000000000000000000000000000000000000000000000000000000000000000000N 00000000000NCONT   00    00000000000          00000000000000000000000000000000000000000000 000000000000000A000000000000000000000000000000000000000000000 000000000000000000000000000000000000000     00000000                                                                                                                        000000000000000000
F0010000008511200001000089010272700013050500000000000000000201604210002001ALFONSOEME S.A.                                   D000000008705100000000000000000000100010010000000000000000000000F0010000008511200120160421000101 00000000000000000000000000000000000000000000000000000000000000000000000000000000000000000000000000000000000000000N 00000000000NCONT   00    00000000000          00000000000000000000000000000000000000000000 000000000000000A000000000000000000000000000000000000000000000 000000000000000000000000000000000000000     00000000                                                                                                                        000000000000000000
F0010000008511200002000089010272700041450500000000000000000201604210002001ALFONSOEME S.A.                                   C000000008783500000000000000000000100010010000000000000000000000F0010000008511200220160421000101 00000000000000000000000000000000000000000000000000000000000000000000000000000000000000000000000000000000000000000N 00000000000NCONT   00    00000000000          00000000000000000000000000000000000000000000 000000000000000A000000000000000000000000000000000000000000000 000000000000000000000000000000000000000     00000000                                                                                                                        000000000000000000
F0010000008511200003000089010272700041750100000000000000000201604210002001ALFONSOEME S.A.                                   D000000000878400000000000000000000100010010000000000000000000000F0010000008511200320160421000101 00000000000000000000000000000000000000000000000000000000000000000000000000000000000000000000000000000000000000000N 00000000000NCONT   00    00000000000          00000000000000000000000000000000000000000000 000000000000000A000000000000000000000000000000000000000000000 000000000000000000000000000000000000000     00000000                                                                                                                        000000000000000000
F0010000008511200004000089010272700042505000000000000000000201604210002001ALFONSOEME S.A.                                   C000000000800000000000000000000000100010010000000000000000000000F0010000008511200420160421000101 00000000000000000000000000000000000000000000000000000000000000000000000000000000000000000000000000000000000000000N 00000000000NCONT   00    00000000000          00000000000000000000000000000000000000000000 000000000000000A000000000000000000000000000000000000000000000 000000000000000000000000000000000000000     00000000                                                                                                                        000000000000000000
F0010000008511200005000089010272700023658300000000000000000201604210002001ALFONSOEME S.A.                                   C000000000070300000000000000000000100010010000000000000000000000F0010000008511200520160421000101 00000000000000000000000000000000000000000000000000000000000000000000000000000000000000000000000000000000000000000N 00000000000NCONT   00    00000000000          00000000000000000000000000000000000000000000 000000000000000A000000000000000000000000000000000000000000000 000000000000000000000000000000000000000     00000000                                                                                                                        000000000000000000
F0010000008511200006000089010272700013552100000000000000000201604210002001ALFONSOEME S.A.                                   D000000000070300000000000000000000100010010000000000000000000000F0010000008511200620160421000101 00000000000000000000000000000000000000000000000000000000000000000000000000000000000000000000000000000000000000000N 00000000000NCONT   00    00000000000          00000000000000000000000000000000000000000000 000000000000000A000000000000000000000000000000000000000000000 000000000000000000000000000000000000000     00000000                                                                                                                        000000000000000000
F0010000008511300001000090064337300013050500000000000000000201604210002001DISCOMERCIAL TEXTIL DEL CARIBE SAS                D000000005500000000000000000000000100010010000000000000000000000F0010000008511300120160421000101 00000000000000000000000000000000000000000000000000000000000000000000000000000000000000000000000000000000000000000N 00000000000NCONT   00    00000000000          00000000000000000000000000000000000000000000 000000000000000A000000000000000000000000000000000000000000000 000000000000000000000000000000000000000     00000000                                                                                                                        000000000000000000
F0010000008511300002000090064337300041450500000000000000000201604210002001DISCOMERCIAL TEXTIL DEL CARIBE SAS                C000000004500000000000000000000000100010010000000000000000000000F0010000008511300220160421000101 00000000000000000000000000000000000000000000000000000000000000000000000000000000000000000000000000000000000000000N 00000000000NCONT   00    00000000000          00000000000000000000000000000000000000000000 000000000000000A000000000000000000000000000000000000000000000 000000000000000000000000000000000000000     00000000                                                                                                                        000000000000000000
F0010000008511300003000090064337300042505000000000000000000201604210002001DISCOMERCIAL TEXTIL DEL CARIBE SAS                C000000001000000000000000000000000100010010000000000000000000000F0010000008511300320160421000101 00000000000000000000000000000000000000000000000000000000000000000000000000000000000000000000000000000000000000000N 00000000000NCONT   00    00000000000          00000000000000000000000000000000000000000000 000000000000000A000000000000000000000000000000000000000000000 000000000000000000000000000000000000000     00000000                                                                                                                        000000000000000000
F0010000008511300004000090064337300023658300000000000000000201604210002001DISCOMERCIAL TEXTIL DEL CARIBE SAS                C000000000036000000000000000000000100010010000000000000000000000F0010000008511300420160421000101 00000000000000000000000000000000000000000000000000000000000000000000000000000000000000000000000000000000000000000N 00000000000NCONT   00    00000000000          00000000000000000000000000000000000000000000 000000000000000A000000000000000000000000000000000000000000000 000000000000000000000000000000000000000     00000000                                                                                                                        000000000000000000
F0010000008511300005000090064337300013552100000000000000000201604210002001DISCOMERCIAL TEXTIL DEL CARIBE SAS                D000000000036000000000000000000000100010010000000000000000000000F0010000008511300520160421000101 00000000000000000000000000000000000000000000000000000000000000000000000000000000000000000000000000000000000000000N 00000000000NCONT   00    00000000000          00000000000000000000000000000000000000000000 000000000000000A000000000000000000000000000000000000000000000 000000000000000000000000000000000000000     00000000                                                                                                                        000000000000000000
F0010000008511400001000080000083500013050500000000000000000201604210002001ALIPAR Y CIA LTDA                                 D000000003400000000000000000000000100010010000000000000000000000F0010000008511400120160421000101 00000000000000000000000000000000000000000000000000000000000000000000000000000000000000000000000000000000000000000N 00000000000NCONT   00    00000000000          00000000000000000000000000000000000000000000 000000000000000A000000000000000000000000000000000000000000000 000000000000000000000000000000000000000     00000000                                                                                                                        000000000000000000
F0010000008511400002000080000083500041450500000000000000000201604210002001ALIPAR Y CIA LTDA                                 C000000002800000000000000000000000100010010000000000000000000000F0010000008511400220160421000101 00000000000000000000000000000000000000000000000000000000000000000000000000000000000000000000000000000000000000000N 00000000000NCONT   00    00000000000          00000000000000000000000000000000000000000000 000000000000000A000000000000000000000000000000000000000000000 000000000000000000000000000000000000000     00000000                                                                                                                        000000000000000000
F0010000008511400003000080000083500042505000000000000000000201604210002001ALIPAR Y CIA LTDA                                 C000000000600000000000000000000000100010010000000000000000000000F0010000008511400320160421000101 00000000000000000000000000000000000000000000000000000000000000000000000000000000000000000000000000000000000000000N 00000000000NCONT   00    00000000000          00000000000000000000000000000000000000000000 000000000000000A000000000000000000000000000000000000000000000 000000000000000000000000000000000000000     00000000                                                                                                                        000000000000000000
F0010000008511400004000080000083500023658300000000000000000201604210002001ALIPAR Y CIA LTDA                                 C000000000022400000000000000000000100010010000000000000000000000F0010000008511400420160421000101 00000000000000000000000000000000000000000000000000000000000000000000000000000000000000000000000000000000000000000N 00000000000NCONT   00    00000000000          00000000000000000000000000000000000000000000 000000000000000A000000000000000000000000000000000000000000000 000000000000000000000000000000000000000     00000000                                                                                                                        000000000000000000
F0010000008511400005000080000083500013552100000000000000000201604210002001ALIPAR Y CIA LTDA                                 D000000000022400000000000000000000100010010000000000000000000000F0010000008511400520160421000101 00000000000000000000000000000000000000000000000000000000000000000000000000000000000000000000000000000000000000000N 00000000000NCONT   00    00000000000          00000000000000000000000000000000000000000000 000000000000000A000000000000000000000000000000000000000000000 000000000000000000000000000000000000000     00000000                                                                                                                        000000000000000000
F0010000008511500001000080201127600013050500000000000000000201604210002001ELECTRICOS DEL RUIZ S.A.S.                        D000000046671100000000000000000000100010010000000000000000000000F0010000008511500120160421000101 00000000000000000000000000000000000000000000000000000000000000000000000000000000000000000000000000000000000000000N 00000000000NCONT   00    00000000000          00000000000000000000000000000000000000000000 000000000000000A000000000000000000000000000000000000000000000 000000000000000000000000000000000000000     00000000                                                                                                                        000000000000000000
F0010000008511500002000080201127600041450500000000000000000201604210002001ELECTRICOS DEL RUIZ S.A.S.                        C000000037150000000000000000000000100010010000000000000000000000F0010000008511500220160421000101 00000000000000000000000000000000000000000000000000000000000000000000000000000000000000000000000000000000000000000N 00000000000NCONT   00    00000000000          00000000000000000000000000000000000000000000 000000000000000A000000000000000000000000000000000000000000000 000000000000000000000000000000000000000     00000000                                                                                                                        000000000000000000
F0010000008511500003000080201127600042505000000000000000000201604210002001ELECTRICOS DEL RUIZ S.A.S.                        C000000009521100000000000000000000100010010000000000000000000000F0010000008511500320160421000101 00000000000000000000000000000000000000000000000000000000000000000000000000000000000000000000000000000000000000000N 00000000000NCONT   00    00000000000          00000000000000000000000000000000000000000000 000000000000000A000000000000000000000000000000000000000000000 000000000000000000000000000000000000000     00000000                                                                                                                        000000000000000000
F0010000008511500004000080201127600023658300000000000000000201604210002001ELECTRICOS DEL RUIZ S.A.S.                        C000000000297200000000000000000000100010010000000000000000000000F0010000008511500420160421000101 00000000000000000000000000000000000000000000000000000000000000000000000000000000000000000000000000000000000000000N 00000000000NCONT   00    00000000000          00000000000000000000000000000000000000000000 000000000000000A000000000000000000000000000000000000000000000 000000000000000000000000000000000000000     00000000                                                                                                                        000000000000000000
F0010000008511500005000080201127600013552100000000000000000201604210002001ELECTRICOS DEL RUIZ S.A.S.                        D000000000297200000000000000000000100010010000000000000000000000F0010000008511500520160421000101 00000000000000000000000000000000000000000000000000000000000000000000000000000000000000000000000000000000000000000N 00000000000NCONT   00    00000000000          00000000000000000000000000000000000000000000 000000000000000A000000000000000000000000000000000000000000000 000000000000000000000000000000000000000     00000000                                                                                                                        000000000000000000
F0010000008511600001000090050863700013050500000000000000000201604210002001COMERCIALIZADORA PERFECT SAS                      D000000015000000000000000000000000100010010000000000000000000000F0010000008511600120160421000101 00000000000000000000000000000000000000000000000000000000000000000000000000000000000000000000000000000000000000000N 00000000000NCONT   00    00000000000          00000000000000000000000000000000000000000000 000000000000000A000000000000000000000000000000000000000000000 000000000000000000000000000000000000000     00000000                                                                                                                        000000000000000000
F0010000008511600002000090050863700041450500000000000000000201604210002001COMERCIALIZADORA PERFECT SAS                      C000000013100000000000000000000000100010010000000000000000000000F0010000008511600220160421000101 00000000000000000000000000000000000000000000000000000000000000000000000000000000000000000000000000000000000000000N 00000000000NCONT   00    00000000000          00000000000000000000000000000000000000000000 000000000000000A000000000000000000000000000000000000000000000 000000000000000000000000000000000000000     00000000                                                                                                                        000000000000000000
F0010000008511600003000090050863700042505000000000000000000201604210002001COMERCIALIZADORA PERFECT SAS                      C000000001900000000000000000000000100010010000000000000000000000F0010000008511600320160421000101 00000000000000000000000000000000000000000000000000000000000000000000000000000000000000000000000000000000000000000N 00000000000NCONT   00    00000000000          00000000000000000000000000000000000000000000 000000000000000A000000000000000000000000000000000000000000000 000000000000000000000000000000000000000     00000000                                                                                                                        000000000000000000
F0010000008511600004000090050863700023658300000000000000000201604210002001COMERCIALIZADORA PERFECT SAS                      C000000000104800000000000000000000100010010000000000000000000000F0010000008511600420160421000101 00000000000000000000000000000000000000000000000000000000000000000000000000000000000000000000000000000000000000000N 00000000000NCONT   00    00000000000          00000000000000000000000000000000000000000000 000000000000000A000000000000000000000000000000000000000000000 000000000000000000000000000000000000000     00000000                                                                                                                        000000000000000000
F0010000008511600005000090050863700013552100000000000000000201604210002001COMERCIALIZADORA PERFECT SAS                      D000000000104800000000000000000000100010010000000000000000000000F0010000008511600520160421000101 00000000000000000000000000000000000000000000000000000000000000000000000000000000000000000000000000000000000000000N 00000000000NCONT   00    00000000000          00000000000000000000000000000000000000000000 000000000000000A000000000000000000000000000000000000000000000 000000000000000000000000000000000000000     00000000                                                                                                                        000000000000000000
F0010000008511700001000090036646700013050500000000000000000201604210002001FERREPROYECTOS S.A.S                              D000000018100000000000000000000000100010010000000000000000000000F0010000008511700120160421000101 00000000000000000000000000000000000000000000000000000000000000000000000000000000000000000000000000000000000000000N 00000000000NCONT   00    00000000000          00000000000000000000000000000000000000000000 000000000000000A000000000000000000000000000000000000000000000 000000000000000000000000000000000000000     00000000                                                                                                                        000000000000000000
F0010000008511700002000090036646700041450500000000000000000201604210002001FERREPROYECTOS S.A.S                              C000000017900000000000000000000000100010010000000000000000000000F0010000008511700220160421000101 00000000000000000000000000000000000000000000000000000000000000000000000000000000000000000000000000000000000000000N 00000000000NCONT   00    00000000000          00000000000000000000000000000000000000000000 000000000000000A000000000000000000000000000000000000000000000 000000000000000000000000000000000000000     00000000                                                                                                                        000000000000000000
F0010000008511700003000090036646700042505000000000000000000201604210002001FERREPROYECTOS S.A.S                              C000000000200000000000000000000000100010010000000000000000000000F0010000008511700320160421000101 00000000000000000000000000000000000000000000000000000000000000000000000000000000000000000000000000000000000000000N 00000000000NCONT   00    00000000000          00000000000000000000000000000000000000000000 000000000000000A000000000000000000000000000000000000000000000 000000000000000000000000000000000000000     00000000                                                                                                                        000000000000000000
F0010000008511700004000090036646700023658300000000000000000201604210002001FERREPROYECTOS S.A.S                              C000000000143200000000000000000000100010010000000000000000000000F0010000008511700420160421000101 00000000000000000000000000000000000000000000000000000000000000000000000000000000000000000000000000000000000000000N 00000000000NCONT   00    00000000000          00000000000000000000000000000000000000000000 000000000000000A000000000000000000000000000000000000000000000 000000000000000000000000000000000000000     00000000                                                                                                                        000000000000000000
F0010000008511700005000090036646700013552100000000000000000201604210002001FERREPROYECTOS S.A.S                              D000000000143200000000000000000000100010010000000000000000000000F0010000008511700520160421000101 00000000000000000000000000000000000000000000000000000000000000000000000000000000000000000000000000000000000000000N 00000000000NCONT   00    00000000000          00000000000000000000000000000000000000000000 000000000000000A000000000000000000000000000000000000000000000 000000000000000000000000000000000000000     00000000                                                                                                                        000000000000000000
F0010000008511800001000007215896800013050500000000000000000201604210002001EDDIER CIRO                                       D000000060345800000000000000000000100010010000000000000000000000F0010000008511800120160421000101 00000000000000000000000000000000000000000000000000000000000000000000000000000000000000000000000000000000000000000N 00000000000NCONT   00    00000000000          00000000000000000000000000000000000000000000 000000000000000A000000000000000000000000000000000000000000000 000000000000000000000000000000000000000     00000000                                                                                                                        000000000000000000
F0010000008511800002000007215896800041450500000000000000000201604210002001EDDIER CIRO                                       C000000049100000000000000000000000100010010000000000000000000000F0010000008511800220160421000101 00000000000000000000000000000000000000000000000000000000000000000000000000000000000000000000000000000000000000000N 00000000000NCONT   00    00000000000          00000000000000000000000000000000000000000000 000000000000000A000000000000000000000000000000000000000000000 000000000000000000000000000000000000000     00000000                                                                                                                        000000000000000000
F0010000008511800003000007215896800042505000000000000000000201604210002001EDDIER CIRO                                       C000000011245800000000000000000000100010010000000000000000000000F0010000008511800320160421000101 00000000000000000000000000000000000000000000000000000000000000000000000000000000000000000000000000000000000000000N 00000000000NCONT   00    00000000000          00000000000000000000000000000000000000000000 000000000000000A000000000000000000000000000000000000000000000 000000000000000000000000000000000000000     00000000                                                                                                                        000000000000000000
F0010000008511800004000007215896800023658300000000000000000201604210002001EDDIER CIRO                                       C000000000392800000000000000000000100010010000000000000000000000F0010000008511800420160421000101 00000000000000000000000000000000000000000000000000000000000000000000000000000000000000000000000000000000000000000N 00000000000NCONT   00    00000000000          00000000000000000000000000000000000000000000 000000000000000A000000000000000000000000000000000000000000000 000000000000000000000000000000000000000     00000000                                                                                                                        000000000000000000
F0010000008511800005000007215896800013552100000000000000000201604210002001EDDIER CIRO                                       D000000000392800000000000000000000100010010000000000000000000000F0010000008511800520160421000101 00000000000000000000000000000000000000000000000000000000000000000000000000000000000000000000000000000000000000000N 00000000000NCONT   00    00000000000          00000000000000000000000000000000000000000000 000000000000000A000000000000000000000000000000000000000000000 000000000000000000000000000000000000000     00000000                                                                                                                        000000000000000000
F0010000008511900001000080202132300013050500000000000000000201604210002001SUM Y SERV DE LA COSTA LTDA                       D000000026710000000000000000000000100010010000000000000000000000F0010000008511900120160421000101 00000000000000000000000000000000000000000000000000000000000000000000000000000000000000000000000000000000000000000N 00000000000NCONT   00    00000000000          00000000000000000000000000000000000000000000 000000000000000A000000000000000000000000000000000000000000000 000000000000000000000000000000000000000     00000000                                                                                                                        000000000000000000
F0010000008511900002000080202132300041450500000000000000000201604210002001SUM Y SERV DE LA COSTA LTDA                       C000000025300000000000000000000000100010010000000000000000000000F0010000008511900220160421000101 00000000000000000000000000000000000000000000000000000000000000000000000000000000000000000000000000000000000000000N 00000000000NCONT   00    00000000000          00000000000000000000000000000000000000000000 000000000000000A000000000000000000000000000000000000000000000 000000000000000000000000000000000000000     00000000                                                                                                                        000000000000000000
F0010000008511900003000080202132300042505000000000000000000201604210002001SUM Y SERV DE LA COSTA LTDA                       C000000001410000000000000000000000100010010000000000000000000000F0010000008511900320160421000101 00000000000000000000000000000000000000000000000000000000000000000000000000000000000000000000000000000000000000000N 00000000000NCONT   00    00000000000          00000000000000000000000000000000000000000000 000000000000000A000000000000000000000000000000000000000000000 000000000000000000000000000000000000000     00000000                                                                                                                        000000000000000000
F0010000008511900004000080202132300023658300000000000000000201604210002001SUM Y SERV DE LA COSTA LTDA                       C000000000202400000000000000000000100010010000000000000000000000F0010000008511900420160421000101 00000000000000000000000000000000000000000000000000000000000000000000000000000000000000000000000000000000000000000N 00000000000NCONT   00    00000000000          00000000000000000000000000000000000000000000 000000000000000A000000000000000000000000000000000000000000000 000000000000000000000000000000000000000     00000000                                                                                                                        000000000000000000
F0010000008511900005000080202132300013552100000000000000000201604210002001SUM Y SERV DE LA COSTA LTDA                       D000000000202400000000000000000000100010010000000000000000000000F0010000008511900520160421000101 00000000000000000000000000000000000000000000000000000000000000000000000000000000000000000000000000000000000000000N 00000000000NCONT   00    00000000000          00000000000000000000000000000000000000000000 000000000000000A000000000000000000000000000000000000000000000 000000000000000000000000000000000000000     00000000                                                                                                                        000000000000000000
F0010000008512000001000000431178400013050500000000000000000201604210002001EFRAIN ALVAREZ                                    D000000021150000000000000000000000100010010000000000000000000000F0010000008512000120160421000101 00000000000000000000000000000000000000000000000000000000000000000000000000000000000000000000000000000000000000000N 00000000000NCONT   00    00000000000          00000000000000000000000000000000000000000000 000000000000000A000000000000000000000000000000000000000000000 000000000000000000000000000000000000000     00000000                                                                                                                        000000000000000000
F0010000008512000002000000431178400041450500000000000000000201604210002001EFRAIN ALVAREZ                                    C000000019350000000000000000000000100010010000000000000000000000F0010000008512000220160421000101 00000000000000000000000000000000000000000000000000000000000000000000000000000000000000000000000000000000000000000N 00000000000NCONT   00    00000000000          00000000000000000000000000000000000000000000 000000000000000A000000000000000000000000000000000000000000000 000000000000000000000000000000000000000     00000000                                                                                                                        000000000000000000
F0010000008512000003000000431178400042505000000000000000000201604210002001EFRAIN ALVAREZ                                    C000000001800000000000000000000000100010010000000000000000000000F0010000008512000320160421000101 00000000000000000000000000000000000000000000000000000000000000000000000000000000000000000000000000000000000000000N 00000000000NCONT   00    00000000000          00000000000000000000000000000000000000000000 000000000000000A000000000000000000000000000000000000000000000 000000000000000000000000000000000000000     00000000                                                                                                                        000000000000000000
F0010000008512000004000000431178400023658300000000000000000201604210002001EFRAIN ALVAREZ                                    C000000000154800000000000000000000100010010000000000000000000000F0010000008512000420160421000101 00000000000000000000000000000000000000000000000000000000000000000000000000000000000000000000000000000000000000000N 00000000000NCONT   00    00000000000          00000000000000000000000000000000000000000000 000000000000000A000000000000000000000000000000000000000000000 000000000000000000000000000000000000000     00000000                                                                                                                        000000000000000000
F0010000008512000005000000431178400013552100000000000000000201604210002001EFRAIN ALVAREZ                                    D000000000154800000000000000000000100010010000000000000000000000F0010000008512000520160421000101 00000000000000000000000000000000000000000000000000000000000000000000000000000000000000000000000000000000000000000N 00000000000NCONT   00    00000000000          00000000000000000000000000000000000000000000 000000000000000A000000000000000000000000000000000000000000000 000000000000000000000000000000000000000     00000000                                                                                                                        000000000000000000
F0010000008512100001000090035510100013050500000000000000000201604210002001GRAINGER COLOMBIA S.A.S.                          D000000004047000000000000000000000100010010000000000000000000000F0010000008512100120160421000101 00000000000000000000000000000000000000000000000000000000000000000000000000000000000000000000000000000000000000000N 00000000000NCONT   00    00000000000          00000000000000000000000000000000000000000000 000000000000000A000000000000000000000000000000000000000000000 000000000000000000000000000000000000000     00000000                                                                                                                        000000000000000000
F0010000008512100002000090035510100041450500000000000000000201604210002001GRAINGER COLOMBIA S.A.S.                          C000000002052000000000000000000000100010010000000000000000000000F0010000008512100220160421000101 00000000000000000000000000000000000000000000000000000000000000000000000000000000000000000000000000000000000000000N 00000000000NCONT   00    00000000000          00000000000000000000000000000000000000000000 000000000000000A000000000000000000000000000000000000000000000 000000000000000000000000000000000000000     00000000                                                                                                                        000000000000000000
F0010000008512100003000090035510100042505000000000000000000201604210002001GRAINGER COLOMBIA S.A.S.                          C000000001995000000000000000000000100010010000000000000000000000F0010000008512100320160421000101 00000000000000000000000000000000000000000000000000000000000000000000000000000000000000000000000000000000000000000N 00000000000NCONT   00    00000000000          00000000000000000000000000000000000000000000 000000000000000A000000000000000000000000000000000000000000000 000000000000000000000000000000000000000     00000000                                                                                                                        000000000000000000
F0010000008512100004000090035510100023658300000000000000000201604210002001GRAINGER COLOMBIA S.A.S.                          C000000000016400000000000000000000100010010000000000000000000000F0010000008512100420160421000101 00000000000000000000000000000000000000000000000000000000000000000000000000000000000000000000000000000000000000000N 00000000000NCONT   00    00000000000          00000000000000000000000000000000000000000000 000000000000000A000000000000000000000000000000000000000000000 000000000000000000000000000000000000000     00000000                                                                                                                        000000000000000000
F0010000008512100005000090035510100013552100000000000000000201604210002001GRAINGER COLOMBIA S.A.S.                          D000000000016400000000000000000000100010010000000000000000000000F0010000008512100520160421000101 00000000000000000000000000000000000000000000000000000000000000000000000000000000000000000000000000000000000000000N 00000000000NCONT   00    00000000000          00000000000000000000000000000000000000000000 000000000000000A000000000000000000000000000000000000000000000 000000000000000000000000000000000000000     00000000                                                                                                                        000000000000000000
F0010000008512200001000000827614700013050500000000000000000201604210002001ALVARO  HERNAN  PEREZ ALVAREZ                     D000000009150000000000000000000000100010010000000000000000000000F0010000008512200120160421000101 00000000000000000000000000000000000000000000000000000000000000000000000000000000000000000000000000000000000000000N 00000000000NCONT   00    00000000000          00000000000000000000000000000000000000000000 000000000000000A000000000000000000000000000000000000000000000 000000000000000000000000000000000000000     00000000                                                                                                                        000000000000000000
F0010000008512200002000000827614700041450500000000000000000201604210002001ALVARO  HERNAN  PEREZ ALVAREZ                     C000000008400000000000000000000000100010010000000000000000000000F0010000008512200220160421000101 00000000000000000000000000000000000000000000000000000000000000000000000000000000000000000000000000000000000000000N 00000000000NCONT   00    00000000000          00000000000000000000000000000000000000000000 000000000000000A000000000000000000000000000000000000000000000 000000000000000000000000000000000000000     00000000                                                                                                                        000000000000000000
F0010000008512200003000000827614700042505000000000000000000201604210002001ALVARO  HERNAN  PEREZ ALVAREZ                     C000000000750000000000000000000000100010010000000000000000000000F0010000008512200320160421000101 00000000000000000000000000000000000000000000000000000000000000000000000000000000000000000000000000000000000000000N 00000000000NCONT   00    00000000000          00000000000000000000000000000000000000000000 000000000000000A000000000000000000000000000000000000000000000 000000000000000000000000000000000000000     00000000                                                                                                                        000000000000000000
F0010000008512200004000000827614700023658300000000000000000201604210002001ALVARO  HERNAN  PEREZ ALVAREZ                     C000000000067200000000000000000000100010010000000000000000000000F0010000008512200420160421000101 00000000000000000000000000000000000000000000000000000000000000000000000000000000000000000000000000000000000000000N 00000000000NCONT   00    00000000000          00000000000000000000000000000000000000000000 000000000000000A000000000000000000000000000000000000000000000 000000000000000000000000000000000000000     00000000                                                                                                                        000000000000000000
F0010000008512200005000000827614700013552100000000000000000201604210002001ALVARO  HERNAN  PEREZ ALVAREZ                     D000000000067200000000000000000000100010010000000000000000000000F0010000008512200520160421000101 00000000000000000000000000000000000000000000000000000000000000000000000000000000000000000000000000000000000000000N 00000000000NCONT   00    00000000000          00000000000000000000000000000000000000000000 000000000000000A000000000000000000000000000000000000000000000 000000000000000000000000000000000000000     00000000                                                                                                                        000000000000000000
F0010000008512300001000080010983700013050500000000000000000201604210002001OHM LTDA                                          D000000026115000000000000000000000100010010000000000000000000000F0010000008512300120160421000101 00000000000000000000000000000000000000000000000000000000000000000000000000000000000000000000000000000000000000000N 00000000000NCONT   00    00000000000          00000000000000000000000000000000000000000000 000000000000000A000000000000000000000000000000000000000000000 000000000000000000000000000000000000000     00000000                                                                                                                        000000000000000000
F0010000008512300002000080010983700041450500000000000000000201604210002001OHM LTDA                                          C000000025920000000000000000000000100010010000000000000000000000F0010000008512300220160421000101 00000000000000000000000000000000000000000000000000000000000000000000000000000000000000000000000000000000000000000N 00000000000NCONT   00    00000000000          00000000000000000000000000000000000000000000 000000000000000A000000000000000000000000000000000000000000000 000000000000000000000000000000000000000     00000000                                                                                                                        000000000000000000
F0010000008512300003000080010983700042505000000000000000000201604210002001OHM LTDA                                          C000000000195000000000000000000000100010010000000000000000000000F0010000008512300320160421000101 00000000000000000000000000000000000000000000000000000000000000000000000000000000000000000000000000000000000000000N 00000000000NCONT   00    00000000000          00000000000000000000000000000000000000000000 000000000000000A000000000000000000000000000000000000000000000 000000000000000000000000000000000000000     00000000                                                                                                                        000000000000000000
F0010000008512300004000080010983700023658300000000000000000201604210002001OHM LTDA                                          C000000000207400000000000000000000100010010000000000000000000000F0010000008512300420160421000101 00000000000000000000000000000000000000000000000000000000000000000000000000000000000000000000000000000000000000000N 00000000000NCONT   00    00000000000          00000000000000000000000000000000000000000000 000000000000000A000000000000000000000000000000000000000000000 000000000000000000000000000000000000000     00000000                                                                                                                        000000000000000000
F0010000008512300005000080010983700013552100000000000000000201604210002001OHM LTDA                                          D000000000207400000000000000000000100010010000000000000000000000F0010000008512300520160421000101 00000000000000000000000000000000000000000000000000000000000000000000000000000000000000000000000000000000000000000N 00000000000NCONT   00    00000000000          00000000000000000000000000000000000000000000 000000000000000A000000000000000000000000000000000000000000000 000000000000000000000000000000000000000     00000000                                                                                                                        000000000000000000
