F001000009964200001000080201112800013050500000000000000000201704010002001CANGURO INTERNATIONAL S.A.                        D000000123910900000000000000000000100010010000000000000000000000F001000009964200120170401000101 00000000000000000000000000000000000000000000000000000000000000000000000000000000000000000000000000000000000000000N 00000000000NCONT   00    00000000000          00000000000000000000000000000000000000000000 000000000000000A000000000000000000000000000000000000000000000 000000000000000000000000000000000000000     00000000                                                                                                                        000000000000000000
F001000009964200002000080201112800041450500000000000000000201704010002001CANGURO INTERNATIONAL S.A.                        C000000121668700000000000000000000100010010000000000000000000000F001000009964200220170401000101 00000000000000000000000000000000000000000000000000000000000000000000000000000000000000000000000000000000000000000N 00000000000NCONT   00    00000000000          00000000000000000000000000000000000000000000 000000000000000A000000000000000000000000000000000000000000000 000000000000000000000000000000000000000     00000000                                                                                                                        000000000000000000
F001000009964200003000080201112800042505000000000000000000201704010002001CANGURO INTERNATIONAL S.A.                        C000000002242200000000000000000000100010010000000000000000000000F001000009964200320170401000101 00000000000000000000000000000000000000000000000000000000000000000000000000000000000000000000000000000000000000000N 00000000000NCONT   00    00000000000          00000000000000000000000000000000000000000000 000000000000000A000000000000000000000000000000000000000000000 000000000000000000000000000000000000000     00000000                                                                                                                        000000000000000000
F001000009964200004000080201112800023658300000000000000000201704010002001CANGURO INTERNATIONAL S.A.                        C000000000000000000000000000000000100010010000000000000000000000F001000009964200420170401000101 00000000000000000000000000000000000000000000000000000000000000000000000000000000000000000000000000000000000000000N 00000000000NCONT   00    00000000000          00000000000000000000000000000000000000000000 000000000000000A000000000000000000000000000000000000000000000 000000000000000000000000000000000000000     00000000                                                                                                                        000000000000000000
F001000009964200005000080201112800013552100000000000000000201704010002001CANGURO INTERNATIONAL S.A.                        D000000000000000000000000000000000100010010000000000000000000000F001000009964200520170401000101 00000000000000000000000000000000000000000000000000000000000000000000000000000000000000000000000000000000000000000N 00000000000NCONT   00    00000000000          00000000000000000000000000000000000000000000 000000000000000A000000000000000000000000000000000000000000000 000000000000000000000000000000000000000     00000000                                                                                                                        000000000000000000
F001000009997600001000090067091400011050500000000000000000201704010002001COMERCIALIZADORA ESCOBAR ORTIZ                    D000000001400000000000000000000000100010010000000000000000000000F001000009997600120170401000101 00000000000000000000000000000000000000000000000000000000000000000000000000000000000000000000000000000000000000000N 00000000000NCONT   00    00000000000          00000000000000000000000000000000000000000000 000000000000000A000000000000000000000000000000000000000000000 000000000000000000000000000000000000000     00000000                                                                                                                        000000000000000000
F001000009997600002000090067091400041450500000000000000000201704010002001COMERCIALIZADORA ESCOBAR ORTIZ                    C000000001300000000000000000000000100010010000000000000000000000F001000009997600220170401000101 00000000000000000000000000000000000000000000000000000000000000000000000000000000000000000000000000000000000000000N 00000000000NCONT   00    00000000000          00000000000000000000000000000000000000000000 000000000000000A000000000000000000000000000000000000000000000 000000000000000000000000000000000000000     00000000                                                                                                                        000000000000000000
F001000009997600003000090067091400042505000000000000000000201704010002001COMERCIALIZADORA ESCOBAR ORTIZ                    C000000000100000000000000000000000100010010000000000000000000000F001000009997600320170401000101 00000000000000000000000000000000000000000000000000000000000000000000000000000000000000000000000000000000000000000N 00000000000NCONT   00    00000000000          00000000000000000000000000000000000000000000 000000000000000A000000000000000000000000000000000000000000000 000000000000000000000000000000000000000     00000000                                                                                                                        000000000000000000
F001000009997600004000090067091400023658300000000000000000201704010002001COMERCIALIZADORA ESCOBAR ORTIZ                    C000000000000000000000000000000000100010010000000000000000000000F001000009997600420170401000101 00000000000000000000000000000000000000000000000000000000000000000000000000000000000000000000000000000000000000000N 00000000000NCONT   00    00000000000          00000000000000000000000000000000000000000000 000000000000000A000000000000000000000000000000000000000000000 000000000000000000000000000000000000000     00000000                                                                                                                        000000000000000000
F001000009997600005000090067091400013552100000000000000000201704010002001COMERCIALIZADORA ESCOBAR ORTIZ                    D000000000000000000000000000000000100010010000000000000000000000F001000009997600520170401000101 00000000000000000000000000000000000000000000000000000000000000000000000000000000000000000000000000000000000000000N 00000000000NCONT   00    00000000000          00000000000000000000000000000000000000000000 000000000000000A000000000000000000000000000000000000000000000 000000000000000000000000000000000000000     00000000                                                                                                                        000000000000000000
F001000009997700001000090067091400011050500000000000000000201704010002001COMERCIALIZADORA ESCOBAR ORTIZ                    D000000012800000000000000000000000100010010000000000000000000000F001000009997700120170401000101 00000000000000000000000000000000000000000000000000000000000000000000000000000000000000000000000000000000000000000N 00000000000NCONT   00    00000000000          00000000000000000000000000000000000000000000 000000000000000A000000000000000000000000000000000000000000000 000000000000000000000000000000000000000     00000000                                                                                                                        000000000000000000
F001000009997700002000090067091400041450500000000000000000201704010002001COMERCIALIZADORA ESCOBAR ORTIZ                    C000000008000000000000000000000000100010010000000000000000000000F001000009997700220170401000101 00000000000000000000000000000000000000000000000000000000000000000000000000000000000000000000000000000000000000000N 00000000000NCONT   00    00000000000          00000000000000000000000000000000000000000000 000000000000000A000000000000000000000000000000000000000000000 000000000000000000000000000000000000000     00000000                                                                                                                        000000000000000000
F001000009997700003000090067091400042505000000000000000000201704010002001COMERCIALIZADORA ESCOBAR ORTIZ                    C000000004800000000000000000000000100010010000000000000000000000F001000009997700320170401000101 00000000000000000000000000000000000000000000000000000000000000000000000000000000000000000000000000000000000000000N 00000000000NCONT   00    00000000000          00000000000000000000000000000000000000000000 000000000000000A000000000000000000000000000000000000000000000 000000000000000000000000000000000000000     00000000                                                                                                                        000000000000000000
F001000009997700004000090067091400023658300000000000000000201704010002001COMERCIALIZADORA ESCOBAR ORTIZ                    C000000000000000000000000000000000100010010000000000000000000000F001000009997700420170401000101 00000000000000000000000000000000000000000000000000000000000000000000000000000000000000000000000000000000000000000N 00000000000NCONT   00    00000000000          00000000000000000000000000000000000000000000 000000000000000A000000000000000000000000000000000000000000000 000000000000000000000000000000000000000     00000000                                                                                                                        000000000000000000
F001000009997700005000090067091400013552100000000000000000201704010002001COMERCIALIZADORA ESCOBAR ORTIZ                    D000000000000000000000000000000000100010010000000000000000000000F001000009997700520170401000101 00000000000000000000000000000000000000000000000000000000000000000000000000000000000000000000000000000000000000000N 00000000000NCONT   00    00000000000          00000000000000000000000000000000000000000000 000000000000000A000000000000000000000000000000000000000000000 000000000000000000000000000000000000000     00000000                                                                                                                        000000000000000000
F001000009997800001000090067091400011050500000000000000000201704010002001COMERCIALIZADORA ESCOBAR ORTIZ                    D000000003400000000000000000000000100010010000000000000000000000F001000009997800120170401000101 00000000000000000000000000000000000000000000000000000000000000000000000000000000000000000000000000000000000000000N 00000000000NCONT   00    00000000000          00000000000000000000000000000000000000000000 000000000000000A000000000000000000000000000000000000000000000 000000000000000000000000000000000000000     00000000                                                                                                                        000000000000000000
F001000009997800002000090067091400041450500000000000000000201704010002001COMERCIALIZADORA ESCOBAR ORTIZ                    C000000002600000000000000000000000100010010000000000000000000000F001000009997800220170401000101 00000000000000000000000000000000000000000000000000000000000000000000000000000000000000000000000000000000000000000N 00000000000NCONT   00    00000000000          00000000000000000000000000000000000000000000 000000000000000A000000000000000000000000000000000000000000000 000000000000000000000000000000000000000     00000000                                                                                                                        000000000000000000
F001000009997800003000090067091400042505000000000000000000201704010002001COMERCIALIZADORA ESCOBAR ORTIZ                    C000000000800000000000000000000000100010010000000000000000000000F001000009997800320170401000101 00000000000000000000000000000000000000000000000000000000000000000000000000000000000000000000000000000000000000000N 00000000000NCONT   00    00000000000          00000000000000000000000000000000000000000000 000000000000000A000000000000000000000000000000000000000000000 000000000000000000000000000000000000000     00000000                                                                                                                        000000000000000000
F001000009997800004000090067091400023658300000000000000000201704010002001COMERCIALIZADORA ESCOBAR ORTIZ                    C000000000000000000000000000000000100010010000000000000000000000F001000009997800420170401000101 00000000000000000000000000000000000000000000000000000000000000000000000000000000000000000000000000000000000000000N 00000000000NCONT   00    00000000000          00000000000000000000000000000000000000000000 000000000000000A000000000000000000000000000000000000000000000 000000000000000000000000000000000000000     00000000                                                                                                                        000000000000000000
F001000009997800005000090067091400013552100000000000000000201704010002001COMERCIALIZADORA ESCOBAR ORTIZ                    D000000000000000000000000000000000100010010000000000000000000000F001000009997800520170401000101 00000000000000000000000000000000000000000000000000000000000000000000000000000000000000000000000000000000000000000N 00000000000NCONT   00    00000000000          00000000000000000000000000000000000000000000 000000000000000A000000000000000000000000000000000000000000000 000000000000000000000000000000000000000     00000000                                                                                                                        000000000000000000
F001000009997900001000090067091400011050500000000000000000201704010002001COMERCIALIZADORA ESCOBAR ORTIZ                    D000000001900000000000000000000000100010010000000000000000000000F001000009997900120170401000101 00000000000000000000000000000000000000000000000000000000000000000000000000000000000000000000000000000000000000000N 00000000000NCONT   00    00000000000          00000000000000000000000000000000000000000000 000000000000000A000000000000000000000000000000000000000000000 000000000000000000000000000000000000000     00000000                                                                                                                        000000000000000000
F001000009997900002000090067091400041450500000000000000000201704010002001COMERCIALIZADORA ESCOBAR ORTIZ                    C000000000700000000000000000000000100010010000000000000000000000F001000009997900220170401000101 00000000000000000000000000000000000000000000000000000000000000000000000000000000000000000000000000000000000000000N 00000000000NCONT   00    00000000000          00000000000000000000000000000000000000000000 000000000000000A000000000000000000000000000000000000000000000 000000000000000000000000000000000000000     00000000                                                                                                                        000000000000000000
F001000009997900003000090067091400042505000000000000000000201704010002001COMERCIALIZADORA ESCOBAR ORTIZ                    C000000001200000000000000000000000100010010000000000000000000000F001000009997900320170401000101 00000000000000000000000000000000000000000000000000000000000000000000000000000000000000000000000000000000000000000N 00000000000NCONT   00    00000000000          00000000000000000000000000000000000000000000 000000000000000A000000000000000000000000000000000000000000000 000000000000000000000000000000000000000     00000000                                                                                                                        000000000000000000
F001000009997900004000090067091400023658300000000000000000201704010002001COMERCIALIZADORA ESCOBAR ORTIZ                    C000000000000000000000000000000000100010010000000000000000000000F001000009997900420170401000101 00000000000000000000000000000000000000000000000000000000000000000000000000000000000000000000000000000000000000000N 00000000000NCONT   00    00000000000          00000000000000000000000000000000000000000000 000000000000000A000000000000000000000000000000000000000000000 000000000000000000000000000000000000000     00000000                                                                                                                        000000000000000000
F001000009997900005000090067091400013552100000000000000000201704010002001COMERCIALIZADORA ESCOBAR ORTIZ                    D000000000000000000000000000000000100010010000000000000000000000F001000009997900520170401000101 00000000000000000000000000000000000000000000000000000000000000000000000000000000000000000000000000000000000000000N 00000000000NCONT   00    00000000000          00000000000000000000000000000000000000000000 000000000000000A000000000000000000000000000000000000000000000 000000000000000000000000000000000000000     00000000                                                                                                                        000000000000000000
F001000009998000001000090067091400011050500000000000000000201704010002001COMERCIALIZADORA ESCOBAR ORTIZ                    D000000004400000000000000000000000100010010000000000000000000000F001000009998000120170401000101 00000000000000000000000000000000000000000000000000000000000000000000000000000000000000000000000000000000000000000N 00000000000NCONT   00    00000000000          00000000000000000000000000000000000000000000 000000000000000A000000000000000000000000000000000000000000000 000000000000000000000000000000000000000     00000000                                                                                                                        000000000000000000
F001000009998000002000090067091400041450500000000000000000201704010002001COMERCIALIZADORA ESCOBAR ORTIZ                    C000000002600000000000000000000000100010010000000000000000000000F001000009998000220170401000101 00000000000000000000000000000000000000000000000000000000000000000000000000000000000000000000000000000000000000000N 00000000000NCONT   00    00000000000          00000000000000000000000000000000000000000000 000000000000000A000000000000000000000000000000000000000000000 000000000000000000000000000000000000000     00000000                                                                                                                        000000000000000000
F001000009998000003000090067091400042505000000000000000000201704010002001COMERCIALIZADORA ESCOBAR ORTIZ                    C000000001800000000000000000000000100010010000000000000000000000F001000009998000320170401000101 00000000000000000000000000000000000000000000000000000000000000000000000000000000000000000000000000000000000000000N 00000000000NCONT   00    00000000000          00000000000000000000000000000000000000000000 000000000000000A000000000000000000000000000000000000000000000 000000000000000000000000000000000000000     00000000                                                                                                                        000000000000000000
F001000009998000004000090067091400023658300000000000000000201704010002001COMERCIALIZADORA ESCOBAR ORTIZ                    C000000000000000000000000000000000100010010000000000000000000000F001000009998000420170401000101 00000000000000000000000000000000000000000000000000000000000000000000000000000000000000000000000000000000000000000N 00000000000NCONT   00    00000000000          00000000000000000000000000000000000000000000 000000000000000A000000000000000000000000000000000000000000000 000000000000000000000000000000000000000     00000000                                                                                                                        000000000000000000
F001000009998000005000090067091400013552100000000000000000201704010002001COMERCIALIZADORA ESCOBAR ORTIZ                    D000000000000000000000000000000000100010010000000000000000000000F001000009998000520170401000101 00000000000000000000000000000000000000000000000000000000000000000000000000000000000000000000000000000000000000000N 00000000000NCONT   00    00000000000          00000000000000000000000000000000000000000000 000000000000000A000000000000000000000000000000000000000000000 000000000000000000000000000000000000000     00000000                                                                                                                        000000000000000000
F001000009998100001000090067091400011050500000000000000000201704010002001COMERCIALIZADORA ESCOBAR ORTIZ                    D000000001900000000000000000000000100010010000000000000000000000F001000009998100120170401000101 00000000000000000000000000000000000000000000000000000000000000000000000000000000000000000000000000000000000000000N 00000000000NCONT   00    00000000000          00000000000000000000000000000000000000000000 000000000000000A000000000000000000000000000000000000000000000 000000000000000000000000000000000000000     00000000                                                                                                                        000000000000000000
F001000009998100002000090067091400041450500000000000000000201704010002001COMERCIALIZADORA ESCOBAR ORTIZ                    C000000001300000000000000000000000100010010000000000000000000000F001000009998100220170401000101 00000000000000000000000000000000000000000000000000000000000000000000000000000000000000000000000000000000000000000N 00000000000NCONT   00    00000000000          00000000000000000000000000000000000000000000 000000000000000A000000000000000000000000000000000000000000000 000000000000000000000000000000000000000     00000000                                                                                                                        000000000000000000
F001000009998100003000090067091400042505000000000000000000201704010002001COMERCIALIZADORA ESCOBAR ORTIZ                    C000000000600000000000000000000000100010010000000000000000000000F001000009998100320170401000101 00000000000000000000000000000000000000000000000000000000000000000000000000000000000000000000000000000000000000000N 00000000000NCONT   00    00000000000          00000000000000000000000000000000000000000000 000000000000000A000000000000000000000000000000000000000000000 000000000000000000000000000000000000000     00000000                                                                                                                        000000000000000000
F001000009998100004000090067091400023658300000000000000000201704010002001COMERCIALIZADORA ESCOBAR ORTIZ                    C000000000000000000000000000000000100010010000000000000000000000F001000009998100420170401000101 00000000000000000000000000000000000000000000000000000000000000000000000000000000000000000000000000000000000000000N 00000000000NCONT   00    00000000000          00000000000000000000000000000000000000000000 000000000000000A000000000000000000000000000000000000000000000 000000000000000000000000000000000000000     00000000                                                                                                                        000000000000000000
F001000009998100005000090067091400013552100000000000000000201704010002001COMERCIALIZADORA ESCOBAR ORTIZ                    D000000000000000000000000000000000100010010000000000000000000000F001000009998100520170401000101 00000000000000000000000000000000000000000000000000000000000000000000000000000000000000000000000000000000000000000N 00000000000NCONT   00    00000000000          00000000000000000000000000000000000000000000 000000000000000A000000000000000000000000000000000000000000000 000000000000000000000000000000000000000     00000000                                                                                                                        000000000000000000
F001000009998200001000000745492100011050500000000000000000201704010002001DARIO CABARCAS ..                                 D000000003000000000000000000000000100010010000000000000000000000F001000009998200120170401000101 00000000000000000000000000000000000000000000000000000000000000000000000000000000000000000000000000000000000000000N 00000000000NCONT   00    00000000000          00000000000000000000000000000000000000000000 000000000000000A000000000000000000000000000000000000000000000 000000000000000000000000000000000000000     00000000                                                                                                                        000000000000000000
F001000009998200002000000745492100041450500000000000000000201704010002001DARIO CABARCAS ..                                 C000000002500000000000000000000000100010010000000000000000000000F001000009998200220170401000101 00000000000000000000000000000000000000000000000000000000000000000000000000000000000000000000000000000000000000000N 00000000000NCONT   00    00000000000          00000000000000000000000000000000000000000000 000000000000000A000000000000000000000000000000000000000000000 000000000000000000000000000000000000000     00000000                                                                                                                        000000000000000000
F001000009998200003000000745492100042505000000000000000000201704010002001DARIO CABARCAS ..                                 C000000000500000000000000000000000100010010000000000000000000000F001000009998200320170401000101 00000000000000000000000000000000000000000000000000000000000000000000000000000000000000000000000000000000000000000N 00000000000NCONT   00    00000000000          00000000000000000000000000000000000000000000 000000000000000A000000000000000000000000000000000000000000000 000000000000000000000000000000000000000     00000000                                                                                                                        000000000000000000
F001000009998200004000000745492100023658300000000000000000201704010002001DARIO CABARCAS ..                                 C000000000000000000000000000000000100010010000000000000000000000F001000009998200420170401000101 00000000000000000000000000000000000000000000000000000000000000000000000000000000000000000000000000000000000000000N 00000000000NCONT   00    00000000000          00000000000000000000000000000000000000000000 000000000000000A000000000000000000000000000000000000000000000 000000000000000000000000000000000000000     00000000                                                                                                                        000000000000000000
F001000009998200005000000745492100013552100000000000000000201704010002001DARIO CABARCAS ..                                 D000000000000000000000000000000000100010010000000000000000000000F001000009998200520170401000101 00000000000000000000000000000000000000000000000000000000000000000000000000000000000000000000000000000000000000000N 00000000000NCONT   00    00000000000          00000000000000000000000000000000000000000000 000000000000000A000000000000000000000000000000000000000000000 000000000000000000000000000000000000000     00000000                                                                                                                        000000000000000000
F001000009998300001000007214782600011050500000000000000000201704010002001OSCAR JOSE LIAN ROCHA                             D000000001500000000000000000000000100010010000000000000000000000F001000009998300120170401000101 00000000000000000000000000000000000000000000000000000000000000000000000000000000000000000000000000000000000000000N 00000000000NCONT   00    00000000000          00000000000000000000000000000000000000000000 000000000000000A000000000000000000000000000000000000000000000 000000000000000000000000000000000000000     00000000                                                                                                                        000000000000000000
F001000009998300002000007214782600041450500000000000000000201704010002001OSCAR JOSE LIAN ROCHA                             C000000001300000000000000000000000100010010000000000000000000000F001000009998300220170401000101 00000000000000000000000000000000000000000000000000000000000000000000000000000000000000000000000000000000000000000N 00000000000NCONT   00    00000000000          00000000000000000000000000000000000000000000 000000000000000A000000000000000000000000000000000000000000000 000000000000000000000000000000000000000     00000000                                                                                                                        000000000000000000
F001000009998300003000007214782600042505000000000000000000201704010002001OSCAR JOSE LIAN ROCHA                             C000000000200000000000000000000000100010010000000000000000000000F001000009998300320170401000101 00000000000000000000000000000000000000000000000000000000000000000000000000000000000000000000000000000000000000000N 00000000000NCONT   00    00000000000          00000000000000000000000000000000000000000000 000000000000000A000000000000000000000000000000000000000000000 000000000000000000000000000000000000000     00000000                                                                                                                        000000000000000000
F001000009998300004000007214782600023658300000000000000000201704010002001OSCAR JOSE LIAN ROCHA                             C000000000000000000000000000000000100010010000000000000000000000F001000009998300420170401000101 00000000000000000000000000000000000000000000000000000000000000000000000000000000000000000000000000000000000000000N 00000000000NCONT   00    00000000000          00000000000000000000000000000000000000000000 000000000000000A000000000000000000000000000000000000000000000 000000000000000000000000000000000000000     00000000                                                                                                                        000000000000000000
F001000009998300005000007214782600013552100000000000000000201704010002001OSCAR JOSE LIAN ROCHA                             D000000000000000000000000000000000100010010000000000000000000000F001000009998300520170401000101 00000000000000000000000000000000000000000000000000000000000000000000000000000000000000000000000000000000000000000N 00000000000NCONT   00    00000000000          00000000000000000000000000000000000000000000 000000000000000A000000000000000000000000000000000000000000000 000000000000000000000000000000000000000     00000000                                                                                                                        000000000000000000
F001000009998400001000080201703900011050500000000000000000201704010002001MUNDIAL CHEMICAL LTDA                             D000000002823800000000000000000000100010010000000000000000000000F001000009998400120170401000101 00000000000000000000000000000000000000000000000000000000000000000000000000000000000000000000000000000000000000000N 00000000000NCONT   00    00000000000          00000000000000000000000000000000000000000000 000000000000000A000000000000000000000000000000000000000000000 000000000000000000000000000000000000000     00000000                                                                                                                        000000000000000000
F001000009998400002000080201703900041450500000000000000000201704010002001MUNDIAL CHEMICAL LTDA                             C000000002730000000000000000000000100010010000000000000000000000F001000009998400220170401000101 00000000000000000000000000000000000000000000000000000000000000000000000000000000000000000000000000000000000000000N 00000000000NCONT   00    00000000000          00000000000000000000000000000000000000000000 000000000000000A000000000000000000000000000000000000000000000 000000000000000000000000000000000000000     00000000                                                                                                                        000000000000000000
F001000009998400003000080201703900042505000000000000000000201704010002001MUNDIAL CHEMICAL LTDA                             C000000000093800000000000000000000100010010000000000000000000000F001000009998400320170401000101 00000000000000000000000000000000000000000000000000000000000000000000000000000000000000000000000000000000000000000N 00000000000NCONT   00    00000000000          00000000000000000000000000000000000000000000 000000000000000A000000000000000000000000000000000000000000000 000000000000000000000000000000000000000     00000000                                                                                                                        000000000000000000
F001000009998400004000080201703900023658300000000000000000201704010002001MUNDIAL CHEMICAL LTDA                             C000000000000000000000000000000000100010010000000000000000000000F001000009998400420170401000101 00000000000000000000000000000000000000000000000000000000000000000000000000000000000000000000000000000000000000000N 00000000000NCONT   00    00000000000          00000000000000000000000000000000000000000000 000000000000000A000000000000000000000000000000000000000000000 000000000000000000000000000000000000000     00000000                                                                                                                        000000000000000000
F001000009998400005000080201703900013552100000000000000000201704010002001MUNDIAL CHEMICAL LTDA                             D000000000000000000000000000000000100010010000000000000000000000F001000009998400520170401000101 00000000000000000000000000000000000000000000000000000000000000000000000000000000000000000000000000000000000000000N 00000000000NCONT   00    00000000000          00000000000000000000000000000000000000000000 000000000000000A000000000000000000000000000000000000000000000 000000000000000000000000000000000000000     00000000                                                                                                                        000000000000000000
F001000009998500001000007214782600011050500000000000000000201704010002001OSCAR JOSE LIAN ROCHA                             D000000001300000000000000000000000100010010000000000000000000000F001000009998500120170401000101 00000000000000000000000000000000000000000000000000000000000000000000000000000000000000000000000000000000000000000N 00000000000NCONT   00    00000000000          00000000000000000000000000000000000000000000 000000000000000A000000000000000000000000000000000000000000000 000000000000000000000000000000000000000     00000000                                                                                                                        000000000000000000
F001000009998500002000007214782600041450500000000000000000201704010002001OSCAR JOSE LIAN ROCHA                             C000000001000000000000000000000000100010010000000000000000000000F001000009998500220170401000101 00000000000000000000000000000000000000000000000000000000000000000000000000000000000000000000000000000000000000000N 00000000000NCONT   00    00000000000          00000000000000000000000000000000000000000000 000000000000000A000000000000000000000000000000000000000000000 000000000000000000000000000000000000000     00000000                                                                                                                        000000000000000000
F001000009998500003000007214782600042505000000000000000000201704010002001OSCAR JOSE LIAN ROCHA                             C000000000300000000000000000000000100010010000000000000000000000F001000009998500320170401000101 00000000000000000000000000000000000000000000000000000000000000000000000000000000000000000000000000000000000000000N 00000000000NCONT   00    00000000000          00000000000000000000000000000000000000000000 000000000000000A000000000000000000000000000000000000000000000 000000000000000000000000000000000000000     00000000                                                                                                                        000000000000000000
F001000009998500004000007214782600023658300000000000000000201704010002001OSCAR JOSE LIAN ROCHA                             C000000000000000000000000000000000100010010000000000000000000000F001000009998500420170401000101 00000000000000000000000000000000000000000000000000000000000000000000000000000000000000000000000000000000000000000N 00000000000NCONT   00    00000000000          00000000000000000000000000000000000000000000 000000000000000A000000000000000000000000000000000000000000000 000000000000000000000000000000000000000     00000000                                                                                                                        000000000000000000
F001000009998500005000007214782600013552100000000000000000201704010002001OSCAR JOSE LIAN ROCHA                             D000000000000000000000000000000000100010010000000000000000000000F001000009998500520170401000101 00000000000000000000000000000000000000000000000000000000000000000000000000000000000000000000000000000000000000000N 00000000000NCONT   00    00000000000          00000000000000000000000000000000000000000000 000000000000000A000000000000000000000000000000000000000000000 000000000000000000000000000000000000000     00000000                                                                                                                        000000000000000000
F001000009998600001000104738334600011050500000000000000000201704010002001LILIANA PATRICIA RUDIÑO CARRASCO                 D000000001400000000000000000000000100010010000000000000000000000F001000009998600120170401000101 00000000000000000000000000000000000000000000000000000000000000000000000000000000000000000000000000000000000000000N 00000000000NCONT   00    00000000000          00000000000000000000000000000000000000000000 000000000000000A000000000000000000000000000000000000000000000 000000000000000000000000000000000000000     00000000                                                                                                                        000000000000000000
F001000009998600002000104738334600041450500000000000000000201704010002001LILIANA PATRICIA RUDIÑO CARRASCO                 C000000001300000000000000000000000100010010000000000000000000000F001000009998600220170401000101 00000000000000000000000000000000000000000000000000000000000000000000000000000000000000000000000000000000000000000N 00000000000NCONT   00    00000000000          00000000000000000000000000000000000000000000 000000000000000A000000000000000000000000000000000000000000000 000000000000000000000000000000000000000     00000000                                                                                                                        000000000000000000
F001000009998600003000104738334600042505000000000000000000201704010002001LILIANA PATRICIA RUDIÑO CARRASCO                 C000000000100000000000000000000000100010010000000000000000000000F001000009998600320170401000101 00000000000000000000000000000000000000000000000000000000000000000000000000000000000000000000000000000000000000000N 00000000000NCONT   00    00000000000          00000000000000000000000000000000000000000000 000000000000000A000000000000000000000000000000000000000000000 000000000000000000000000000000000000000     00000000                                                                                                                        000000000000000000
F001000009998600004000104738334600023658300000000000000000201704010002001LILIANA PATRICIA RUDIÑO CARRASCO                 C000000000000000000000000000000000100010010000000000000000000000F001000009998600420170401000101 00000000000000000000000000000000000000000000000000000000000000000000000000000000000000000000000000000000000000000N 00000000000NCONT   00    00000000000          00000000000000000000000000000000000000000000 000000000000000A000000000000000000000000000000000000000000000 000000000000000000000000000000000000000     00000000                                                                                                                        000000000000000000
F001000009998600005000104738334600013552100000000000000000201704010002001LILIANA PATRICIA RUDIÑO CARRASCO                 D000000000000000000000000000000000100010010000000000000000000000F001000009998600520170401000101 00000000000000000000000000000000000000000000000000000000000000000000000000000000000000000000000000000000000000000N 00000000000NCONT   00    00000000000          00000000000000000000000000000000000000000000 000000000000000A000000000000000000000000000000000000000000000 000000000000000000000000000000000000000     00000000                                                                                                                        000000000000000000
F001000009998700001000001325248300011050500000000000000000201704010002001LUBRICANTE LA 37                                  D000000018000000000000000000000000100010010000000000000000000000F001000009998700120170401000101 00000000000000000000000000000000000000000000000000000000000000000000000000000000000000000000000000000000000000000N 00000000000NCONT   00    00000000000          00000000000000000000000000000000000000000000 000000000000000A000000000000000000000000000000000000000000000 000000000000000000000000000000000000000     00000000                                                                                                                        000000000000000000
F001000009998700002000001325248300041450500000000000000000201704010002001LUBRICANTE LA 37                                  C000000017000000000000000000000000100010010000000000000000000000F001000009998700220170401000101 00000000000000000000000000000000000000000000000000000000000000000000000000000000000000000000000000000000000000000N 00000000000NCONT   00    00000000000          00000000000000000000000000000000000000000000 000000000000000A000000000000000000000000000000000000000000000 000000000000000000000000000000000000000     00000000                                                                                                                        000000000000000000
F001000009998700003000001325248300042505000000000000000000201704010002001LUBRICANTE LA 37                                  C000000001000000000000000000000000100010010000000000000000000000F001000009998700320170401000101 00000000000000000000000000000000000000000000000000000000000000000000000000000000000000000000000000000000000000000N 00000000000NCONT   00    00000000000          00000000000000000000000000000000000000000000 000000000000000A000000000000000000000000000000000000000000000 000000000000000000000000000000000000000     00000000                                                                                                                        000000000000000000
F001000009998700004000001325248300023658300000000000000000201704010002001LUBRICANTE LA 37                                  C000000000000000000000000000000000100010010000000000000000000000F001000009998700420170401000101 00000000000000000000000000000000000000000000000000000000000000000000000000000000000000000000000000000000000000000N 00000000000NCONT   00    00000000000          00000000000000000000000000000000000000000000 000000000000000A000000000000000000000000000000000000000000000 000000000000000000000000000000000000000     00000000                                                                                                                        000000000000000000
F001000009998700005000001325248300013552100000000000000000201704010002001LUBRICANTE LA 37                                  D000000000000000000000000000000000100010010000000000000000000000F001000009998700520170401000101 00000000000000000000000000000000000000000000000000000000000000000000000000000000000000000000000000000000000000000N 00000000000NCONT   00    00000000000          00000000000000000000000000000000000000000000 000000000000000A000000000000000000000000000000000000000000000 000000000000000000000000000000000000000     00000000                                                                                                                        000000000000000000
F001000009998800001000003287795000011050500000000000000000201704010002001COMERCIALIZADORA KUZMAR                           D000000002400000000000000000000000100010010000000000000000000000F001000009998800120170401000101 00000000000000000000000000000000000000000000000000000000000000000000000000000000000000000000000000000000000000000N 00000000000NCONT   00    00000000000          00000000000000000000000000000000000000000000 000000000000000A000000000000000000000000000000000000000000000 000000000000000000000000000000000000000     00000000                                                                                                                        000000000000000000
F001000009998800002000003287795000041450500000000000000000201704010002001COMERCIALIZADORA KUZMAR                           C000000002000000000000000000000000100010010000000000000000000000F001000009998800220170401000101 00000000000000000000000000000000000000000000000000000000000000000000000000000000000000000000000000000000000000000N 00000000000NCONT   00    00000000000          00000000000000000000000000000000000000000000 000000000000000A000000000000000000000000000000000000000000000 000000000000000000000000000000000000000     00000000                                                                                                                        000000000000000000
F001000009998800003000003287795000042505000000000000000000201704010002001COMERCIALIZADORA KUZMAR                           C000000000400000000000000000000000100010010000000000000000000000F001000009998800320170401000101 00000000000000000000000000000000000000000000000000000000000000000000000000000000000000000000000000000000000000000N 00000000000NCONT   00    00000000000          00000000000000000000000000000000000000000000 000000000000000A000000000000000000000000000000000000000000000 000000000000000000000000000000000000000     00000000                                                                                                                        000000000000000000
F001000009998800004000003287795000023658300000000000000000201704010002001COMERCIALIZADORA KUZMAR                           C000000000000000000000000000000000100010010000000000000000000000F001000009998800420170401000101 00000000000000000000000000000000000000000000000000000000000000000000000000000000000000000000000000000000000000000N 00000000000NCONT   00    00000000000          00000000000000000000000000000000000000000000 000000000000000A000000000000000000000000000000000000000000000 000000000000000000000000000000000000000     00000000                                                                                                                        000000000000000000
F001000009998800005000003287795000013552100000000000000000201704010002001COMERCIALIZADORA KUZMAR                           D000000000000000000000000000000000100010010000000000000000000000F001000009998800520170401000101 00000000000000000000000000000000000000000000000000000000000000000000000000000000000000000000000000000000000000000N 00000000000NCONT   00    00000000000          00000000000000000000000000000000000000000000 000000000000000A000000000000000000000000000000000000000000000 000000000000000000000000000000000000000     00000000                                                                                                                        000000000000000000
F001000009998900001000002245670100011050500000000000000000201704010002001YOLANDA  TOBON                                    D000000002920500000000000000000000100010010000000000000000000000F001000009998900120170401000101 00000000000000000000000000000000000000000000000000000000000000000000000000000000000000000000000000000000000000000N 00000000000NCONT   00    00000000000          00000000000000000000000000000000000000000000 000000000000000A000000000000000000000000000000000000000000000 000000000000000000000000000000000000000     00000000                                                                                                                        000000000000000000
F001000009998900002000002245670100041450500000000000000000201704010002001YOLANDA  TOBON                                    C000000002370000000000000000000000100010010000000000000000000000F001000009998900220170401000101 00000000000000000000000000000000000000000000000000000000000000000000000000000000000000000000000000000000000000000N 00000000000NCONT   00    00000000000          00000000000000000000000000000000000000000000 000000000000000A000000000000000000000000000000000000000000000 000000000000000000000000000000000000000     00000000                                                                                                                        000000000000000000
F001000009998900003000002245670100042505000000000000000000201704010002001YOLANDA  TOBON                                    C000000000550500000000000000000000100010010000000000000000000000F001000009998900320170401000101 00000000000000000000000000000000000000000000000000000000000000000000000000000000000000000000000000000000000000000N 00000000000NCONT   00    00000000000          00000000000000000000000000000000000000000000 000000000000000A000000000000000000000000000000000000000000000 000000000000000000000000000000000000000     00000000                                                                                                                        000000000000000000
F001000009998900004000002245670100023658300000000000000000201704010002001YOLANDA  TOBON                                    C000000000000000000000000000000000100010010000000000000000000000F001000009998900420170401000101 00000000000000000000000000000000000000000000000000000000000000000000000000000000000000000000000000000000000000000N 00000000000NCONT   00    00000000000          00000000000000000000000000000000000000000000 000000000000000A000000000000000000000000000000000000000000000 000000000000000000000000000000000000000     00000000                                                                                                                        000000000000000000
F001000009998900005000002245670100013552100000000000000000201704010002001YOLANDA  TOBON                                    D000000000000000000000000000000000100010010000000000000000000000F001000009998900520170401000101 00000000000000000000000000000000000000000000000000000000000000000000000000000000000000000000000000000000000000000N 00000000000NCONT   00    00000000000          00000000000000000000000000000000000000000000 000000000000000A000000000000000000000000000000000000000000000 000000000000000000000000000000000000000     00000000                                                                                                                        000000000000000000
F001000009999000001000002245670100011050500000000000000000201704010002001YOLANDA  TOBON                                    D000000002141000000000000000000000100010010000000000000000000000F001000009999000120170401000101 00000000000000000000000000000000000000000000000000000000000000000000000000000000000000000000000000000000000000000N 00000000000NCONT   00    00000000000          00000000000000000000000000000000000000000000 000000000000000A000000000000000000000000000000000000000000000 000000000000000000000000000000000000000     00000000                                                                                                                        000000000000000000
F001000009999000002000002245670100041450500000000000000000201704010002001YOLANDA  TOBON                                    C000000000650000000000000000000000100010010000000000000000000000F001000009999000220170401000101 00000000000000000000000000000000000000000000000000000000000000000000000000000000000000000000000000000000000000000N 00000000000NCONT   00    00000000000          00000000000000000000000000000000000000000000 000000000000000A000000000000000000000000000000000000000000000 000000000000000000000000000000000000000     00000000                                                                                                                        000000000000000000
F001000009999000003000002245670100042505000000000000000000201704010002001YOLANDA  TOBON                                    C000000001491000000000000000000000100010010000000000000000000000F001000009999000320170401000101 00000000000000000000000000000000000000000000000000000000000000000000000000000000000000000000000000000000000000000N 00000000000NCONT   00    00000000000          00000000000000000000000000000000000000000000 000000000000000A000000000000000000000000000000000000000000000 000000000000000000000000000000000000000     00000000                                                                                                                        000000000000000000
F001000009999000004000002245670100023658300000000000000000201704010002001YOLANDA  TOBON                                    C000000000000000000000000000000000100010010000000000000000000000F001000009999000420170401000101 00000000000000000000000000000000000000000000000000000000000000000000000000000000000000000000000000000000000000000N 00000000000NCONT   00    00000000000          00000000000000000000000000000000000000000000 000000000000000A000000000000000000000000000000000000000000000 000000000000000000000000000000000000000     00000000                                                                                                                        000000000000000000
F001000009999000005000002245670100013552100000000000000000201704010002001YOLANDA  TOBON                                    D000000000000000000000000000000000100010010000000000000000000000F001000009999000520170401000101 00000000000000000000000000000000000000000000000000000000000000000000000000000000000000000000000000000000000000000N 00000000000NCONT   00    00000000000          00000000000000000000000000000000000000000000 000000000000000A000000000000000000000000000000000000000000000 000000000000000000000000000000000000000     00000000                                                                                                                        000000000000000000
F001000009999100001000086003979400011050500000000000000000201704010002001CALYPSO BARRANQUILLA LTDA                         D000000001728800000000000000000000100010010000000000000000000000F001000009999100120170401000101 00000000000000000000000000000000000000000000000000000000000000000000000000000000000000000000000000000000000000000N 00000000000NCONT   00    00000000000          00000000000000000000000000000000000000000000 000000000000000A000000000000000000000000000000000000000000000 000000000000000000000000000000000000000     00000000                                                                                                                        000000000000000000
F001000009999100002000086003979400041450500000000000000000201704010002001CALYPSO BARRANQUILLA LTDA                         C000000001600000000000000000000000100010010000000000000000000000F001000009999100220170401000101 00000000000000000000000000000000000000000000000000000000000000000000000000000000000000000000000000000000000000000N 00000000000NCONT   00    00000000000          00000000000000000000000000000000000000000000 000000000000000A000000000000000000000000000000000000000000000 000000000000000000000000000000000000000     00000000                                                                                                                        000000000000000000
F001000009999100003000086003979400042505000000000000000000201704010002001CALYPSO BARRANQUILLA LTDA                         C000000000128800000000000000000000100010010000000000000000000000F001000009999100320170401000101 00000000000000000000000000000000000000000000000000000000000000000000000000000000000000000000000000000000000000000N 00000000000NCONT   00    00000000000          00000000000000000000000000000000000000000000 000000000000000A000000000000000000000000000000000000000000000 000000000000000000000000000000000000000     00000000                                                                                                                        000000000000000000
F001000009999100004000086003979400023658300000000000000000201704010002001CALYPSO BARRANQUILLA LTDA                         C000000000000000000000000000000000100010010000000000000000000000F001000009999100420170401000101 00000000000000000000000000000000000000000000000000000000000000000000000000000000000000000000000000000000000000000N 00000000000NCONT   00    00000000000          00000000000000000000000000000000000000000000 000000000000000A000000000000000000000000000000000000000000000 000000000000000000000000000000000000000     00000000                                                                                                                        000000000000000000
F001000009999100005000086003979400013552100000000000000000201704010002001CALYPSO BARRANQUILLA LTDA                         D000000000000000000000000000000000100010010000000000000000000000F001000009999100520170401000101 00000000000000000000000000000000000000000000000000000000000000000000000000000000000000000000000000000000000000000N 00000000000NCONT   00    00000000000          00000000000000000000000000000000000000000000 000000000000000A000000000000000000000000000000000000000000000 000000000000000000000000000000000000000     00000000                                                                                                                        000000000000000000
F001000009999200001000000742399700011050500000000000000000201704010002001CACHARRERIA EL NUEVO CHADID                       D000000001500000000000000000000000100010010000000000000000000000F001000009999200120170401000101 00000000000000000000000000000000000000000000000000000000000000000000000000000000000000000000000000000000000000000N 00000000000NCONT   00    00000000000          00000000000000000000000000000000000000000000 000000000000000A000000000000000000000000000000000000000000000 000000000000000000000000000000000000000     00000000                                                                                                                        000000000000000000
F001000009999200002000000742399700041450500000000000000000201704010002001CACHARRERIA EL NUEVO CHADID                       C000000001300000000000000000000000100010010000000000000000000000F001000009999200220170401000101 00000000000000000000000000000000000000000000000000000000000000000000000000000000000000000000000000000000000000000N 00000000000NCONT   00    00000000000          00000000000000000000000000000000000000000000 000000000000000A000000000000000000000000000000000000000000000 000000000000000000000000000000000000000     00000000                                                                                                                        000000000000000000
F001000009999200003000000742399700042505000000000000000000201704010002001CACHARRERIA EL NUEVO CHADID                       C000000000200000000000000000000000100010010000000000000000000000F001000009999200320170401000101 00000000000000000000000000000000000000000000000000000000000000000000000000000000000000000000000000000000000000000N 00000000000NCONT   00    00000000000          00000000000000000000000000000000000000000000 000000000000000A000000000000000000000000000000000000000000000 000000000000000000000000000000000000000     00000000                                                                                                                        000000000000000000
F001000009999200004000000742399700023658300000000000000000201704010002001CACHARRERIA EL NUEVO CHADID                       C000000000000000000000000000000000100010010000000000000000000000F001000009999200420170401000101 00000000000000000000000000000000000000000000000000000000000000000000000000000000000000000000000000000000000000000N 00000000000NCONT   00    00000000000          00000000000000000000000000000000000000000000 000000000000000A000000000000000000000000000000000000000000000 000000000000000000000000000000000000000     00000000                                                                                                                        000000000000000000
F001000009999200005000000742399700013552100000000000000000201704010002001CACHARRERIA EL NUEVO CHADID                       D000000000000000000000000000000000100010010000000000000000000000F001000009999200520170401000101 00000000000000000000000000000000000000000000000000000000000000000000000000000000000000000000000000000000000000000N 00000000000NCONT   00    00000000000          00000000000000000000000000000000000000000000 000000000000000A000000000000000000000000000000000000000000000 000000000000000000000000000000000000000     00000000                                                                                                                        000000000000000000
F001000009999300001000004175790100011050500000000000000000201704010002001ROSIRIS FERIA HOYOS  (COSM. SHILLER)              D000000001000000000000000000000000100010010000000000000000000000F001000009999300120170401000101 00000000000000000000000000000000000000000000000000000000000000000000000000000000000000000000000000000000000000000N 00000000000NCONT   00    00000000000          00000000000000000000000000000000000000000000 000000000000000A000000000000000000000000000000000000000000000 000000000000000000000000000000000000000     00000000                                                                                                                        000000000000000000
F001000009999300002000004175790100041450500000000000000000201704010002001ROSIRIS FERIA HOYOS  (COSM. SHILLER)              C000000000900000000000000000000000100010010000000000000000000000F001000009999300220170401000101 00000000000000000000000000000000000000000000000000000000000000000000000000000000000000000000000000000000000000000N 00000000000NCONT   00    00000000000          00000000000000000000000000000000000000000000 000000000000000A000000000000000000000000000000000000000000000 000000000000000000000000000000000000000     00000000                                                                                                                        000000000000000000
F001000009999300003000004175790100042505000000000000000000201704010002001ROSIRIS FERIA HOYOS  (COSM. SHILLER)              C000000000100000000000000000000000100010010000000000000000000000F001000009999300320170401000101 00000000000000000000000000000000000000000000000000000000000000000000000000000000000000000000000000000000000000000N 00000000000NCONT   00    00000000000          00000000000000000000000000000000000000000000 000000000000000A000000000000000000000000000000000000000000000 000000000000000000000000000000000000000     00000000                                                                                                                        000000000000000000
F001000009999300004000004175790100023658300000000000000000201704010002001ROSIRIS FERIA HOYOS  (COSM. SHILLER)              C000000000000000000000000000000000100010010000000000000000000000F001000009999300420170401000101 00000000000000000000000000000000000000000000000000000000000000000000000000000000000000000000000000000000000000000N 00000000000NCONT   00    00000000000          00000000000000000000000000000000000000000000 000000000000000A000000000000000000000000000000000000000000000 000000000000000000000000000000000000000     00000000                                                                                                                        000000000000000000
F001000009999300005000004175790100013552100000000000000000201704010002001ROSIRIS FERIA HOYOS  (COSM. SHILLER)              D000000000000000000000000000000000100010010000000000000000000000F001000009999300520170401000101 00000000000000000000000000000000000000000000000000000000000000000000000000000000000000000000000000000000000000000N 00000000000NCONT   00    00000000000          00000000000000000000000000000000000000000000 000000000000000A000000000000000000000000000000000000000000000 000000000000000000000000000000000000000     00000000                                                                                                                        000000000000000000
F001000009999400001000000431178400011050500000000000000000201704010002001EFRAIN ALVAREZ                                    D000000001670000000000000000000000100010010000000000000000000000F001000009999400120170401000101 00000000000000000000000000000000000000000000000000000000000000000000000000000000000000000000000000000000000000000N 00000000000NCONT   00    00000000000          00000000000000000000000000000000000000000000 000000000000000A000000000000000000000000000000000000000000000 000000000000000000000000000000000000000     00000000                                                                                                                        000000000000000000
F001000009999400002000000431178400041450500000000000000000201704010002001EFRAIN ALVAREZ                                    C000000001620000000000000000000000100010010000000000000000000000F001000009999400220170401000101 00000000000000000000000000000000000000000000000000000000000000000000000000000000000000000000000000000000000000000N 00000000000NCONT   00    00000000000          00000000000000000000000000000000000000000000 000000000000000A000000000000000000000000000000000000000000000 000000000000000000000000000000000000000     00000000                                                                                                                        000000000000000000
F001000009999400003000000431178400042505000000000000000000201704010002001EFRAIN ALVAREZ                                    C000000000050000000000000000000000100010010000000000000000000000F001000009999400320170401000101 00000000000000000000000000000000000000000000000000000000000000000000000000000000000000000000000000000000000000000N 00000000000NCONT   00    00000000000          00000000000000000000000000000000000000000000 000000000000000A000000000000000000000000000000000000000000000 000000000000000000000000000000000000000     00000000                                                                                                                        000000000000000000
F001000009999400004000000431178400023658300000000000000000201704010002001EFRAIN ALVAREZ                                    C000000000000000000000000000000000100010010000000000000000000000F001000009999400420170401000101 00000000000000000000000000000000000000000000000000000000000000000000000000000000000000000000000000000000000000000N 00000000000NCONT   00    00000000000          00000000000000000000000000000000000000000000 000000000000000A000000000000000000000000000000000000000000000 000000000000000000000000000000000000000     00000000                                                                                                                        000000000000000000
F001000009999400005000000431178400013552100000000000000000201704010002001EFRAIN ALVAREZ                                    D000000000000000000000000000000000100010010000000000000000000000F001000009999400520170401000101 00000000000000000000000000000000000000000000000000000000000000000000000000000000000000000000000000000000000000000N 00000000000NCONT   00    00000000000          00000000000000000000000000000000000000000000 000000000000000A000000000000000000000000000000000000000000000 000000000000000000000000000000000000000     00000000                                                                                                                        000000000000000000
F001000009999500001000000431178400011050500000000000000000201704010002001EFRAIN ALVAREZ                                    D000000001020000000000000000000000100010010000000000000000000000F001000009999500120170401000101 00000000000000000000000000000000000000000000000000000000000000000000000000000000000000000000000000000000000000000N 00000000000NCONT   00    00000000000          00000000000000000000000000000000000000000000 000000000000000A000000000000000000000000000000000000000000000 000000000000000000000000000000000000000     00000000                                                                                                                        000000000000000000
F001000009999500002000000431178400041450500000000000000000201704010002001EFRAIN ALVAREZ                                    C000000000920000000000000000000000100010010000000000000000000000F001000009999500220170401000101 00000000000000000000000000000000000000000000000000000000000000000000000000000000000000000000000000000000000000000N 00000000000NCONT   00    00000000000          00000000000000000000000000000000000000000000 000000000000000A000000000000000000000000000000000000000000000 000000000000000000000000000000000000000     00000000                                                                                                                        000000000000000000
F001000009999500003000000431178400042505000000000000000000201704010002001EFRAIN ALVAREZ                                    C000000000100000000000000000000000100010010000000000000000000000F001000009999500320170401000101 00000000000000000000000000000000000000000000000000000000000000000000000000000000000000000000000000000000000000000N 00000000000NCONT   00    00000000000          00000000000000000000000000000000000000000000 000000000000000A000000000000000000000000000000000000000000000 000000000000000000000000000000000000000     00000000                                                                                                                        000000000000000000
F001000009999500004000000431178400023658300000000000000000201704010002001EFRAIN ALVAREZ                                    C000000000000000000000000000000000100010010000000000000000000000F001000009999500420170401000101 00000000000000000000000000000000000000000000000000000000000000000000000000000000000000000000000000000000000000000N 00000000000NCONT   00    00000000000          00000000000000000000000000000000000000000000 000000000000000A000000000000000000000000000000000000000000000 000000000000000000000000000000000000000     00000000                                                                                                                        000000000000000000
F001000009999500005000000431178400013552100000000000000000201704010002001EFRAIN ALVAREZ                                    D000000000000000000000000000000000100010010000000000000000000000F001000009999500520170401000101 00000000000000000000000000000000000000000000000000000000000000000000000000000000000000000000000000000000000000000N 00000000000NCONT   00    00000000000          00000000000000000000000000000000000000000000 000000000000000A000000000000000000000000000000000000000000000 000000000000000000000000000000000000000     00000000                                                                                                                        000000000000000000
F001000009999600001000080201703900011050500000000000000000201704010002001MUNDIAL CHEMICAL LTDA                             D000000002042500000000000000000000100010010000000000000000000000F001000009999600120170401000101 00000000000000000000000000000000000000000000000000000000000000000000000000000000000000000000000000000000000000000N 00000000000NCONT   00    00000000000          00000000000000000000000000000000000000000000 000000000000000A000000000000000000000000000000000000000000000 000000000000000000000000000000000000000     00000000                                                                                                                        000000000000000000
F001000009999600002000080201703900041450500000000000000000201704010002001MUNDIAL CHEMICAL LTDA                             C000000001820000000000000000000000100010010000000000000000000000F001000009999600220170401000101 00000000000000000000000000000000000000000000000000000000000000000000000000000000000000000000000000000000000000000N 00000000000NCONT   00    00000000000          00000000000000000000000000000000000000000000 000000000000000A000000000000000000000000000000000000000000000 000000000000000000000000000000000000000     00000000                                                                                                                        000000000000000000
F001000009999600003000080201703900042505000000000000000000201704010002001MUNDIAL CHEMICAL LTDA                             C000000000222500000000000000000000100010010000000000000000000000F001000009999600320170401000101 00000000000000000000000000000000000000000000000000000000000000000000000000000000000000000000000000000000000000000N 00000000000NCONT   00    00000000000          00000000000000000000000000000000000000000000 000000000000000A000000000000000000000000000000000000000000000 000000000000000000000000000000000000000     00000000                                                                                                                        000000000000000000
F001000009999600004000080201703900023658300000000000000000201704010002001MUNDIAL CHEMICAL LTDA                             C000000000000000000000000000000000100010010000000000000000000000F001000009999600420170401000101 00000000000000000000000000000000000000000000000000000000000000000000000000000000000000000000000000000000000000000N 00000000000NCONT   00    00000000000          00000000000000000000000000000000000000000000 000000000000000A000000000000000000000000000000000000000000000 000000000000000000000000000000000000000     00000000                                                                                                                        000000000000000000
F001000009999600005000080201703900013552100000000000000000201704010002001MUNDIAL CHEMICAL LTDA                             D000000000000000000000000000000000100010010000000000000000000000F001000009999600520170401000101 00000000000000000000000000000000000000000000000000000000000000000000000000000000000000000000000000000000000000000N 00000000000NCONT   00    00000000000          00000000000000000000000000000000000000000000 000000000000000A000000000000000000000000000000000000000000000 000000000000000000000000000000000000000     00000000                                                                                                                        000000000000000000
