F0010000007470200001000000872328300011050500000000000000000201508130002001LUIS ALBERO OTERO - DISTRIBUCIONES BARRANQUILLA   D000000002000000000000000000000000100010010000000000000000000000F0010000007470200120150813000101 00000000000000000000000000000000000000000000000000000000000000000000000000000000000000000000000000000000000000000N 00000000000NCONT   00    00000000000          00000000000000000000000000000000000000000000 000000000000000A000000000000000000000000000000000000000000000 000000000000000000000000000000000000000     00000000                                                                                                                        000000000000000000
F0010000007470200002000000872328300041450500000000000000000201508130002001LUIS ALBERO OTERO - DISTRIBUCIONES BARRANQUILLA   C000000001000000000000000000000000100010010000000000000000000000F0010000007470200220150813000101 00000000000000000000000000000000000000000000000000000000000000000000000000000000000000000000000000000000000000000N 00000000000NCONT   00    00000000000          00000000000000000000000000000000000000000000 000000000000000A000000000000000000000000000000000000000000000 000000000000000000000000000000000000000     00000000                                                                                                                        000000000000000000
F0010000007470200003000000872328300042505000000000000000000201508130002001LUIS ALBERO OTERO - DISTRIBUCIONES BARRANQUILLA   C000000001000000000000000000000000100010010000000000000000000000F0010000007470200320150813000101 00000000000000000000000000000000000000000000000000000000000000000000000000000000000000000000000000000000000000000N 00000000000NCONT   00    00000000000          00000000000000000000000000000000000000000000 000000000000000A000000000000000000000000000000000000000000000 000000000000000000000000000000000000000     00000000                                                                                                                        000000000000000000
F0010000007470200004000000872328300023658300000000000000000201508130002001LUIS ALBERO OTERO - DISTRIBUCIONES BARRANQUILLA   C000000000008000000000000000000000100010010000000000000000000000F0010000007470200420150813000101 00000000000000000000000000000000000000000000000000000000000000000000000000000000000000000000000000000000000000000N 00000000000NCONT   00    00000000000          00000000000000000000000000000000000000000000 000000000000000A000000000000000000000000000000000000000000000 000000000000000000000000000000000000000     00000000                                                                                                                        000000000000000000
F0010000007470200005000000872328300013552100000000000000000201508130002001LUIS ALBERO OTERO - DISTRIBUCIONES BARRANQUILLA   D000000000008000000000000000000000100010010000000000000000000000F0010000007470200520150813000101 00000000000000000000000000000000000000000000000000000000000000000000000000000000000000000000000000000000000000000N 00000000000NCONT   00    00000000000          00000000000000000000000000000000000000000000 000000000000000A000000000000000000000000000000000000000000000 000000000000000000000000000000000000000     00000000                                                                                                                        000000000000000000
F0010000007470300001000089080078800013050500000000000000000201508130002001SUMATEC S.A.                                      D000000021821700000000000000000000100010010000000000000000000000F0010000007470300120150813000101 00000000000000000000000000000000000000000000000000000000000000000000000000000000000000000000000000000000000000000N 00000000000NCONT   00    00000000000          00000000000000000000000000000000000000000000 000000000000000A000000000000000000000000000000000000000000000 000000000000000000000000000000000000000     00000000                                                                                                                        000000000000000000
F0010000007470300002000089080078800041450500000000000000000201508130002001SUMATEC S.A.                                      C000000017380000000000000000000000100010010000000000000000000000F0010000007470300220150813000101 00000000000000000000000000000000000000000000000000000000000000000000000000000000000000000000000000000000000000000N 00000000000NCONT   00    00000000000          00000000000000000000000000000000000000000000 000000000000000A000000000000000000000000000000000000000000000 000000000000000000000000000000000000000     00000000                                                                                                                        000000000000000000
F0010000007470300003000089080078800042505000000000000000000201508130002001SUMATEC S.A.                                      C000000004441700000000000000000000100010010000000000000000000000F0010000007470300320150813000101 00000000000000000000000000000000000000000000000000000000000000000000000000000000000000000000000000000000000000000N 00000000000NCONT   00    00000000000          00000000000000000000000000000000000000000000 000000000000000A000000000000000000000000000000000000000000000 000000000000000000000000000000000000000     00000000                                                                                                                        000000000000000000
F0010000007470300004000089080078800023658300000000000000000201508130002001SUMATEC S.A.                                      C000000000139000000000000000000000100010010000000000000000000000F0010000007470300420150813000101 00000000000000000000000000000000000000000000000000000000000000000000000000000000000000000000000000000000000000000N 00000000000NCONT   00    00000000000          00000000000000000000000000000000000000000000 000000000000000A000000000000000000000000000000000000000000000 000000000000000000000000000000000000000     00000000                                                                                                                        000000000000000000
F0010000007470300005000089080078800013552100000000000000000201508130002001SUMATEC S.A.                                      D000000000139000000000000000000000100010010000000000000000000000F0010000007470300520150813000101 00000000000000000000000000000000000000000000000000000000000000000000000000000000000000000000000000000000000000000N 00000000000NCONT   00    00000000000          00000000000000000000000000000000000000000000 000000000000000A000000000000000000000000000000000000000000000 000000000000000000000000000000000000000     00000000                                                                                                                        000000000000000000
F0010000007470400001000080016665600013050500000000000000000201508130002001SUMICAL DE ANTIOQUIA S.A.S                        D000000064713200000000000000000000100010010000000000000000000000F0010000007470400120150813000101 00000000000000000000000000000000000000000000000000000000000000000000000000000000000000000000000000000000000000000N 00000000000NCONT   00    00000000000          00000000000000000000000000000000000000000000 000000000000000A000000000000000000000000000000000000000000000 000000000000000000000000000000000000000     00000000                                                                                                                        000000000000000000
F0010000007470400002000080016665600041450500000000000000000201508130002001SUMICAL DE ANTIOQUIA S.A.S                        C000000054660000000000000000000000100010010000000000000000000000F0010000007470400220150813000101 00000000000000000000000000000000000000000000000000000000000000000000000000000000000000000000000000000000000000000N 00000000000NCONT   00    00000000000          00000000000000000000000000000000000000000000 000000000000000A000000000000000000000000000000000000000000000 000000000000000000000000000000000000000     00000000                                                                                                                        000000000000000000
F0010000007470400003000080016665600042505000000000000000000201508130002001SUMICAL DE ANTIOQUIA S.A.S                        C000000010053200000000000000000000100010010000000000000000000000F0010000007470400320150813000101 00000000000000000000000000000000000000000000000000000000000000000000000000000000000000000000000000000000000000000N 00000000000NCONT   00    00000000000          00000000000000000000000000000000000000000000 000000000000000A000000000000000000000000000000000000000000000 000000000000000000000000000000000000000     00000000                                                                                                                        000000000000000000
F0010000007470400004000080016665600023658300000000000000000201508130002001SUMICAL DE ANTIOQUIA S.A.S                        C000000000437300000000000000000000100010010000000000000000000000F0010000007470400420150813000101 00000000000000000000000000000000000000000000000000000000000000000000000000000000000000000000000000000000000000000N 00000000000NCONT   00    00000000000          00000000000000000000000000000000000000000000 000000000000000A000000000000000000000000000000000000000000000 000000000000000000000000000000000000000     00000000                                                                                                                        000000000000000000
F0010000007470400005000080016665600013552100000000000000000201508130002001SUMICAL DE ANTIOQUIA S.A.S                        D000000000437300000000000000000000100010010000000000000000000000F0010000007470400520150813000101 00000000000000000000000000000000000000000000000000000000000000000000000000000000000000000000000000000000000000000N 00000000000NCONT   00    00000000000          00000000000000000000000000000000000000000000 000000000000000A000000000000000000000000000000000000000000000 000000000000000000000000000000000000000     00000000                                                                                                                        000000000000000000
F0010000007470500001000090064982900013050500000000000000000201508130002001DISDIES S.A.S                                     D000000034951500000000000000000000100010010000000000000000000000F0010000007470500120150813000101 00000000000000000000000000000000000000000000000000000000000000000000000000000000000000000000000000000000000000000N 00000000000NCONT   00    00000000000          00000000000000000000000000000000000000000000 000000000000000A000000000000000000000000000000000000000000000 000000000000000000000000000000000000000     00000000                                                                                                                        000000000000000000
F0010000007470500002000090064982900041450500000000000000000201508130002001DISDIES S.A.S                                     C000000031620600000000000000000000100010010000000000000000000000F0010000007470500220150813000101 00000000000000000000000000000000000000000000000000000000000000000000000000000000000000000000000000000000000000000N 00000000000NCONT   00    00000000000          00000000000000000000000000000000000000000000 000000000000000A000000000000000000000000000000000000000000000 000000000000000000000000000000000000000     00000000                                                                                                                        000000000000000000
F0010000007470500003000090064982900042505000000000000000000201508130002001DISDIES S.A.S                                     C000000003330900000000000000000000100010010000000000000000000000F0010000007470500320150813000101 00000000000000000000000000000000000000000000000000000000000000000000000000000000000000000000000000000000000000000N 00000000000NCONT   00    00000000000          00000000000000000000000000000000000000000000 000000000000000A000000000000000000000000000000000000000000000 000000000000000000000000000000000000000     00000000                                                                                                                        000000000000000000
F0010000007470500004000090064982900023658300000000000000000201508130002001DISDIES S.A.S                                     C000000000253000000000000000000000100010010000000000000000000000F0010000007470500420150813000101 00000000000000000000000000000000000000000000000000000000000000000000000000000000000000000000000000000000000000000N 00000000000NCONT   00    00000000000          00000000000000000000000000000000000000000000 000000000000000A000000000000000000000000000000000000000000000 000000000000000000000000000000000000000     00000000                                                                                                                        000000000000000000
F0010000007470500005000090064982900013552100000000000000000201508130002001DISDIES S.A.S                                     D000000000253000000000000000000000100010010000000000000000000000F0010000007470500520150813000101 00000000000000000000000000000000000000000000000000000000000000000000000000000000000000000000000000000000000000000N 00000000000NCONT   00    00000000000          00000000000000000000000000000000000000000000 000000000000000A000000000000000000000000000000000000000000000 000000000000000000000000000000000000000     00000000                                                                                                                        000000000000000000
F0010000007470600001000089010526900013050500000000000000000201508130002001DISTRIBUCIONES CANAL Y CIA S.A.S                  D000000029405500000000000000000000100010010000000000000000000000F0010000007470600120150813000101 00000000000000000000000000000000000000000000000000000000000000000000000000000000000000000000000000000000000000000N 00000000000NCONT   00    00000000000          00000000000000000000000000000000000000000000 000000000000000A000000000000000000000000000000000000000000000 000000000000000000000000000000000000000     00000000                                                                                                                        000000000000000000
F0010000007470600002000089010526900041450500000000000000000201508130002001DISTRIBUCIONES CANAL Y CIA S.A.S                  C000000019040000000000000000000000100010010000000000000000000000F0010000007470600220150813000101 00000000000000000000000000000000000000000000000000000000000000000000000000000000000000000000000000000000000000000N 00000000000NCONT   00    00000000000          00000000000000000000000000000000000000000000 000000000000000A000000000000000000000000000000000000000000000 000000000000000000000000000000000000000     00000000                                                                                                                        000000000000000000
F0010000007470600003000089010526900042505000000000000000000201508130002001DISTRIBUCIONES CANAL Y CIA S.A.S                  C000000010365500000000000000000000100010010000000000000000000000F0010000007470600320150813000101 00000000000000000000000000000000000000000000000000000000000000000000000000000000000000000000000000000000000000000N 00000000000NCONT   00    00000000000          00000000000000000000000000000000000000000000 000000000000000A000000000000000000000000000000000000000000000 000000000000000000000000000000000000000     00000000                                                                                                                        000000000000000000
F0010000007470600004000089010526900023658300000000000000000201508130002001DISTRIBUCIONES CANAL Y CIA S.A.S                  C000000000152300000000000000000000100010010000000000000000000000F0010000007470600420150813000101 00000000000000000000000000000000000000000000000000000000000000000000000000000000000000000000000000000000000000000N 00000000000NCONT   00    00000000000          00000000000000000000000000000000000000000000 000000000000000A000000000000000000000000000000000000000000000 000000000000000000000000000000000000000     00000000                                                                                                                        000000000000000000
F0010000007470600005000089010526900013552100000000000000000201508130002001DISTRIBUCIONES CANAL Y CIA S.A.S                  D000000000152300000000000000000000100010010000000000000000000000F0010000007470600520150813000101 00000000000000000000000000000000000000000000000000000000000000000000000000000000000000000000000000000000000000000N 00000000000NCONT   00    00000000000          00000000000000000000000000000000000000000000 000000000000000A000000000000000000000000000000000000000000000 000000000000000000000000000000000000000     00000000                                                                                                                        000000000000000000
F0010000007470700001000000871714900013050500000000000000000201508130002001ROLNAN DE LA ROSA  INSIGNARES                     D000000015078100000000000000000000100010010000000000000000000000F0010000007470700120150813000101 00000000000000000000000000000000000000000000000000000000000000000000000000000000000000000000000000000000000000000N 00000000000NCONT   00    00000000000          00000000000000000000000000000000000000000000 000000000000000A000000000000000000000000000000000000000000000 000000000000000000000000000000000000000     00000000                                                                                                                        000000000000000000
F0010000007470700002000000871714900041450500000000000000000201508130002001ROLNAN DE LA ROSA  INSIGNARES                     C000000012587000000000000000000000100010010000000000000000000000F0010000007470700220150813000101 00000000000000000000000000000000000000000000000000000000000000000000000000000000000000000000000000000000000000000N 00000000000NCONT   00    00000000000          00000000000000000000000000000000000000000000 000000000000000A000000000000000000000000000000000000000000000 000000000000000000000000000000000000000     00000000                                                                                                                        000000000000000000
F0010000007470700003000000871714900042505000000000000000000201508130002001ROLNAN DE LA ROSA  INSIGNARES                     C000000002491100000000000000000000100010010000000000000000000000F0010000007470700320150813000101 00000000000000000000000000000000000000000000000000000000000000000000000000000000000000000000000000000000000000000N 00000000000NCONT   00    00000000000          00000000000000000000000000000000000000000000 000000000000000A000000000000000000000000000000000000000000000 000000000000000000000000000000000000000     00000000                                                                                                                        000000000000000000
F0010000007470700004000000871714900023658300000000000000000201508130002001ROLNAN DE LA ROSA  INSIGNARES                     C000000000100700000000000000000000100010010000000000000000000000F0010000007470700420150813000101 00000000000000000000000000000000000000000000000000000000000000000000000000000000000000000000000000000000000000000N 00000000000NCONT   00    00000000000          00000000000000000000000000000000000000000000 000000000000000A000000000000000000000000000000000000000000000 000000000000000000000000000000000000000     00000000                                                                                                                        000000000000000000
F0010000007470700005000000871714900013552100000000000000000201508130002001ROLNAN DE LA ROSA  INSIGNARES                     D000000000100700000000000000000000100010010000000000000000000000F0010000007470700520150813000101 00000000000000000000000000000000000000000000000000000000000000000000000000000000000000000000000000000000000000000N 00000000000NCONT   00    00000000000          00000000000000000000000000000000000000000000 000000000000000A000000000000000000000000000000000000000000000 000000000000000000000000000000000000000     00000000                                                                                                                        000000000000000000
F0010000007470800001000002245670100013050500000000000000000201508130002001YOLANDA  TOBON                                    D000000014231400000000000000000000100010010000000000000000000000F0010000007470800120150813000101 00000000000000000000000000000000000000000000000000000000000000000000000000000000000000000000000000000000000000000N 00000000000NCONT   00    00000000000          00000000000000000000000000000000000000000000 000000000000000A000000000000000000000000000000000000000000000 000000000000000000000000000000000000000     00000000                                                                                                                        000000000000000000
F0010000007470800002000002245670100041450500000000000000000201508130002001YOLANDA  TOBON                                    C000000011680000000000000000000000100010010000000000000000000000F0010000007470800220150813000101 00000000000000000000000000000000000000000000000000000000000000000000000000000000000000000000000000000000000000000N 00000000000NCONT   00    00000000000          00000000000000000000000000000000000000000000 000000000000000A000000000000000000000000000000000000000000000 000000000000000000000000000000000000000     00000000                                                                                                                        000000000000000000
F0010000007470800003000002245670100042505000000000000000000201508130002001YOLANDA  TOBON                                    C000000002551400000000000000000000100010010000000000000000000000F0010000007470800320150813000101 00000000000000000000000000000000000000000000000000000000000000000000000000000000000000000000000000000000000000000N 00000000000NCONT   00    00000000000          00000000000000000000000000000000000000000000 000000000000000A000000000000000000000000000000000000000000000 000000000000000000000000000000000000000     00000000                                                                                                                        000000000000000000
F0010000007470800004000002245670100023658300000000000000000201508130002001YOLANDA  TOBON                                    C000000000093400000000000000000000100010010000000000000000000000F0010000007470800420150813000101 00000000000000000000000000000000000000000000000000000000000000000000000000000000000000000000000000000000000000000N 00000000000NCONT   00    00000000000          00000000000000000000000000000000000000000000 000000000000000A000000000000000000000000000000000000000000000 000000000000000000000000000000000000000     00000000                                                                                                                        000000000000000000
F0010000007470800005000002245670100013552100000000000000000201508130002001YOLANDA  TOBON                                    D000000000093400000000000000000000100010010000000000000000000000F0010000007470800520150813000101 00000000000000000000000000000000000000000000000000000000000000000000000000000000000000000000000000000000000000000N 00000000000NCONT   00    00000000000          00000000000000000000000000000000000000000000 000000000000000A000000000000000000000000000000000000000000000 000000000000000000000000000000000000000     00000000                                                                                                                        000000000000000000
F0010000007470900001000080016664500013050500000000000000000201508130002001TELAPLAS PANCER SAS                               D000000029021000000000000000000000100010010000000000000000000000F0010000007470900120150813000101 00000000000000000000000000000000000000000000000000000000000000000000000000000000000000000000000000000000000000000N 00000000000NCONT   00    00000000000          00000000000000000000000000000000000000000000 000000000000000A000000000000000000000000000000000000000000000 000000000000000000000000000000000000000     00000000                                                                                                                        000000000000000000
F0010000007470900002000080016664500041450500000000000000000201508130002001TELAPLAS PANCER SAS                               C000000023110000000000000000000000100010010000000000000000000000F0010000007470900220150813000101 00000000000000000000000000000000000000000000000000000000000000000000000000000000000000000000000000000000000000000N 00000000000NCONT   00    00000000000          00000000000000000000000000000000000000000000 000000000000000A000000000000000000000000000000000000000000000 000000000000000000000000000000000000000     00000000                                                                                                                        000000000000000000
F0010000007470900003000080016664500042505000000000000000000201508130002001TELAPLAS PANCER SAS                               C000000005911000000000000000000000100010010000000000000000000000F0010000007470900320150813000101 00000000000000000000000000000000000000000000000000000000000000000000000000000000000000000000000000000000000000000N 00000000000NCONT   00    00000000000          00000000000000000000000000000000000000000000 000000000000000A000000000000000000000000000000000000000000000 000000000000000000000000000000000000000     00000000                                                                                                                        000000000000000000
F0010000007470900004000080016664500023658300000000000000000201508130002001TELAPLAS PANCER SAS                               C000000000184900000000000000000000100010010000000000000000000000F0010000007470900420150813000101 00000000000000000000000000000000000000000000000000000000000000000000000000000000000000000000000000000000000000000N 00000000000NCONT   00    00000000000          00000000000000000000000000000000000000000000 000000000000000A000000000000000000000000000000000000000000000 000000000000000000000000000000000000000     00000000                                                                                                                        000000000000000000
F0010000007470900005000080016664500013552100000000000000000201508130002001TELAPLAS PANCER SAS                               D000000000184900000000000000000000100010010000000000000000000000F0010000007470900520150813000101 00000000000000000000000000000000000000000000000000000000000000000000000000000000000000000000000000000000000000000N 00000000000NCONT   00    00000000000          00000000000000000000000000000000000000000000 000000000000000A000000000000000000000000000000000000000000000 000000000000000000000000000000000000000     00000000                                                                                                                        000000000000000000
F0010000007471100001000080002300200013050500000000000000000201508130002001DISREL S.A.                                       D000000011050000000000000000000000100010010000000000000000000000F0010000007471100120150813000101 00000000000000000000000000000000000000000000000000000000000000000000000000000000000000000000000000000000000000000N 00000000000NCONT   00    00000000000          00000000000000000000000000000000000000000000 000000000000000A000000000000000000000000000000000000000000000 000000000000000000000000000000000000000     00000000                                                                                                                        000000000000000000
F0010000007471100002000080002300200041450500000000000000000201508130002001DISREL S.A.                                       C000000009320000000000000000000000100010010000000000000000000000F0010000007471100220150813000101 00000000000000000000000000000000000000000000000000000000000000000000000000000000000000000000000000000000000000000N 00000000000NCONT   00    00000000000          00000000000000000000000000000000000000000000 000000000000000A000000000000000000000000000000000000000000000 000000000000000000000000000000000000000     00000000                                                                                                                        000000000000000000
F0010000007471100003000080002300200042505000000000000000000201508130002001DISREL S.A.                                       C000000001730000000000000000000000100010010000000000000000000000F0010000007471100320150813000101 00000000000000000000000000000000000000000000000000000000000000000000000000000000000000000000000000000000000000000N 00000000000NCONT   00    00000000000          00000000000000000000000000000000000000000000 000000000000000A000000000000000000000000000000000000000000000 000000000000000000000000000000000000000     00000000                                                                                                                        000000000000000000
F0010000007471100004000080002300200023658300000000000000000201508130002001DISREL S.A.                                       C000000000074600000000000000000000100010010000000000000000000000F0010000007471100420150813000101 00000000000000000000000000000000000000000000000000000000000000000000000000000000000000000000000000000000000000000N 00000000000NCONT   00    00000000000          00000000000000000000000000000000000000000000 000000000000000A000000000000000000000000000000000000000000000 000000000000000000000000000000000000000     00000000                                                                                                                        000000000000000000
F0010000007471100005000080002300200013552100000000000000000201508130002001DISREL S.A.                                       D000000000074600000000000000000000100010010000000000000000000000F0010000007471100520150813000101 00000000000000000000000000000000000000000000000000000000000000000000000000000000000000000000000000000000000000000N 00000000000NCONT   00    00000000000          00000000000000000000000000000000000000000000 000000000000000A000000000000000000000000000000000000000000000 000000000000000000000000000000000000000     00000000                                                                                                                        000000000000000000
F0010000007471200001000089190114700013050500000000000000000201508130002001SUPAPEL S.A.S                                     D000000014967800000000000000000000100010010000000000000000000000F0010000007471200120150813000101 00000000000000000000000000000000000000000000000000000000000000000000000000000000000000000000000000000000000000000N 00000000000NCONT   00    00000000000          00000000000000000000000000000000000000000000 000000000000000A000000000000000000000000000000000000000000000 000000000000000000000000000000000000000     00000000                                                                                                                        000000000000000000
F0010000007471200002000089190114700041450500000000000000000201508130002001SUPAPEL S.A.S                                     C000000013460000000000000000000000100010010000000000000000000000F0010000007471200220150813000101 00000000000000000000000000000000000000000000000000000000000000000000000000000000000000000000000000000000000000000N 00000000000NCONT   00    00000000000          00000000000000000000000000000000000000000000 000000000000000A000000000000000000000000000000000000000000000 000000000000000000000000000000000000000     00000000                                                                                                                        000000000000000000
F0010000007471200003000089190114700042505000000000000000000201508130002001SUPAPEL S.A.S                                     C000000001507800000000000000000000100010010000000000000000000000F0010000007471200320150813000101 00000000000000000000000000000000000000000000000000000000000000000000000000000000000000000000000000000000000000000N 00000000000NCONT   00    00000000000          00000000000000000000000000000000000000000000 000000000000000A000000000000000000000000000000000000000000000 000000000000000000000000000000000000000     00000000                                                                                                                        000000000000000000
F0010000007471200004000089190114700023658300000000000000000201508130002001SUPAPEL S.A.S                                     C000000000107700000000000000000000100010010000000000000000000000F0010000007471200420150813000101 00000000000000000000000000000000000000000000000000000000000000000000000000000000000000000000000000000000000000000N 00000000000NCONT   00    00000000000          00000000000000000000000000000000000000000000 000000000000000A000000000000000000000000000000000000000000000 000000000000000000000000000000000000000     00000000                                                                                                                        000000000000000000
F0010000007471200005000089190114700013552100000000000000000201508130002001SUPAPEL S.A.S                                     D000000000107700000000000000000000100010010000000000000000000000F0010000007471200520150813000101 00000000000000000000000000000000000000000000000000000000000000000000000000000000000000000000000000000000000000000N 00000000000NCONT   00    00000000000          00000000000000000000000000000000000000000000 000000000000000A000000000000000000000000000000000000000000000 000000000000000000000000000000000000000     00000000                                                                                                                        000000000000000000
F0010000007471300001000090009800500013050500000000000000000201508130002001GLORIANT CHEMICAL DE COLOMBIA LTDA                D000000017045000000000000000000000100010010000000000000000000000F0010000007471300120150813000101 00000000000000000000000000000000000000000000000000000000000000000000000000000000000000000000000000000000000000000N 00000000000NCONT   00    00000000000          00000000000000000000000000000000000000000000 000000000000000A000000000000000000000000000000000000000000000 000000000000000000000000000000000000000     00000000                                                                                                                        000000000000000000
F0010000007471300002000090009800500041450500000000000000000201508130002001GLORIANT CHEMICAL DE COLOMBIA LTDA                C000000014780000000000000000000000100010010000000000000000000000F0010000007471300220150813000101 00000000000000000000000000000000000000000000000000000000000000000000000000000000000000000000000000000000000000000N 00000000000NCONT   00    00000000000          00000000000000000000000000000000000000000000 000000000000000A000000000000000000000000000000000000000000000 000000000000000000000000000000000000000     00000000                                                                                                                        000000000000000000
F0010000007471300003000090009800500042505000000000000000000201508130002001GLORIANT CHEMICAL DE COLOMBIA LTDA                C000000002265000000000000000000000100010010000000000000000000000F0010000007471300320150813000101 00000000000000000000000000000000000000000000000000000000000000000000000000000000000000000000000000000000000000000N 00000000000NCONT   00    00000000000          00000000000000000000000000000000000000000000 000000000000000A000000000000000000000000000000000000000000000 000000000000000000000000000000000000000     00000000                                                                                                                        000000000000000000
F0010000007471300004000090009800500023658300000000000000000201508130002001GLORIANT CHEMICAL DE COLOMBIA LTDA                C000000000118200000000000000000000100010010000000000000000000000F0010000007471300420150813000101 00000000000000000000000000000000000000000000000000000000000000000000000000000000000000000000000000000000000000000N 00000000000NCONT   00    00000000000          00000000000000000000000000000000000000000000 000000000000000A000000000000000000000000000000000000000000000 000000000000000000000000000000000000000     00000000                                                                                                                        000000000000000000
F0010000007471300005000090009800500013552100000000000000000201508130002001GLORIANT CHEMICAL DE COLOMBIA LTDA                D000000000118200000000000000000000100010010000000000000000000000F0010000007471300520150813000101 00000000000000000000000000000000000000000000000000000000000000000000000000000000000000000000000000000000000000000N 00000000000NCONT   00    00000000000          00000000000000000000000000000000000000000000 000000000000000A000000000000000000000000000000000000000000000 000000000000000000000000000000000000000     00000000                                                                                                                        000000000000000000
F0010000007471400001000090008711200013050500000000000000000201508130002001PACKAGING SUPPLIERS S.A.                          D000000025990300000000000000000000100010010000000000000000000000F0010000007471400120150813000101 00000000000000000000000000000000000000000000000000000000000000000000000000000000000000000000000000000000000000000N 00000000000NCONT   00    00000000000          00000000000000000000000000000000000000000000 000000000000000A000000000000000000000000000000000000000000000 000000000000000000000000000000000000000     00000000                                                                                                                        000000000000000000
F0010000007471400002000090008711200041450500000000000000000201508130002001PACKAGING SUPPLIERS S.A.                          C000000023361800000000000000000000100010010000000000000000000000F0010000007471400220150813000101 00000000000000000000000000000000000000000000000000000000000000000000000000000000000000000000000000000000000000000N 00000000000NCONT   00    00000000000          00000000000000000000000000000000000000000000 000000000000000A000000000000000000000000000000000000000000000 000000000000000000000000000000000000000     00000000                                                                                                                        000000000000000000
F0010000007471400003000090008711200042505000000000000000000201508130002001PACKAGING SUPPLIERS S.A.                          C000000002628500000000000000000000100010010000000000000000000000F0010000007471400320150813000101 00000000000000000000000000000000000000000000000000000000000000000000000000000000000000000000000000000000000000000N 00000000000NCONT   00    00000000000          00000000000000000000000000000000000000000000 000000000000000A000000000000000000000000000000000000000000000 000000000000000000000000000000000000000     00000000                                                                                                                        000000000000000000
F0010000007471400004000090008711200023658300000000000000000201508130002001PACKAGING SUPPLIERS S.A.                          C000000000186900000000000000000000100010010000000000000000000000F0010000007471400420150813000101 00000000000000000000000000000000000000000000000000000000000000000000000000000000000000000000000000000000000000000N 00000000000NCONT   00    00000000000          00000000000000000000000000000000000000000000 000000000000000A000000000000000000000000000000000000000000000 000000000000000000000000000000000000000     00000000                                                                                                                        000000000000000000
F0010000007471400005000090008711200013552100000000000000000201508130002001PACKAGING SUPPLIERS S.A.                          D000000000186900000000000000000000100010010000000000000000000000F0010000007471400520150813000101 00000000000000000000000000000000000000000000000000000000000000000000000000000000000000000000000000000000000000000N 00000000000NCONT   00    00000000000          00000000000000000000000000000000000000000000 000000000000000A000000000000000000000000000000000000000000000 000000000000000000000000000000000000000     00000000                                                                                                                        000000000000000000
F0010000007471500001000000748239700013050500000000000000000201508130002001RAFAEL NAVARRO URIBE                              D000000030211300000000000000000000100010010000000000000000000000F0010000007471500120150813000101 00000000000000000000000000000000000000000000000000000000000000000000000000000000000000000000000000000000000000000N 00000000000NCONT   00    00000000000          00000000000000000000000000000000000000000000 000000000000000A000000000000000000000000000000000000000000000 000000000000000000000000000000000000000     00000000                                                                                                                        000000000000000000
F0010000007471500002000000748239700041450500000000000000000201508130002001RAFAEL NAVARRO URIBE                              C000000020510000000000000000000000100010010000000000000000000000F0010000007471500220150813000101 00000000000000000000000000000000000000000000000000000000000000000000000000000000000000000000000000000000000000000N 00000000000NCONT   00    00000000000          00000000000000000000000000000000000000000000 000000000000000A000000000000000000000000000000000000000000000 000000000000000000000000000000000000000     00000000                                                                                                                        000000000000000000
F0010000007471500003000000748239700042505000000000000000000201508130002001RAFAEL NAVARRO URIBE                              C000000009701300000000000000000000100010010000000000000000000000F0010000007471500320150813000101 00000000000000000000000000000000000000000000000000000000000000000000000000000000000000000000000000000000000000000N 00000000000NCONT   00    00000000000          00000000000000000000000000000000000000000000 000000000000000A000000000000000000000000000000000000000000000 000000000000000000000000000000000000000     00000000                                                                                                                        000000000000000000
F0010000007471500004000000748239700023658300000000000000000201508130002001RAFAEL NAVARRO URIBE                              C000000000164100000000000000000000100010010000000000000000000000F0010000007471500420150813000101 00000000000000000000000000000000000000000000000000000000000000000000000000000000000000000000000000000000000000000N 00000000000NCONT   00    00000000000          00000000000000000000000000000000000000000000 000000000000000A000000000000000000000000000000000000000000000 000000000000000000000000000000000000000     00000000                                                                                                                        000000000000000000
F0010000007471500005000000748239700013552100000000000000000201508130002001RAFAEL NAVARRO URIBE                              D000000000164100000000000000000000100010010000000000000000000000F0010000007471500520150813000101 00000000000000000000000000000000000000000000000000000000000000000000000000000000000000000000000000000000000000000N 00000000000NCONT   00    00000000000          00000000000000000000000000000000000000000000 000000000000000A000000000000000000000000000000000000000000000 000000000000000000000000000000000000000     00000000                                                                                                                        000000000000000000
F0010000007471600001000089010260300013050500000000000000000201508130002001FEDERICO OSORIO A. S.A.                           D000000093399500000000000000000000100010010000000000000000000000F0010000007471600120150813000101 00000000000000000000000000000000000000000000000000000000000000000000000000000000000000000000000000000000000000000N 00000000000NCONT   00    00000000000          00000000000000000000000000000000000000000000 000000000000000A000000000000000000000000000000000000000000000 000000000000000000000000000000000000000     00000000                                                                                                                        000000000000000000
F0010000007471600002000089010260300041450500000000000000000201508130002001FEDERICO OSORIO A. S.A.                           C000000086700000000000000000000000100010010000000000000000000000F0010000007471600220150813000101 00000000000000000000000000000000000000000000000000000000000000000000000000000000000000000000000000000000000000000N 00000000000NCONT   00    00000000000          00000000000000000000000000000000000000000000 000000000000000A000000000000000000000000000000000000000000000 000000000000000000000000000000000000000     00000000                                                                                                                        000000000000000000
F0010000007471600003000089010260300042505000000000000000000201508130002001FEDERICO OSORIO A. S.A.                           C000000006699500000000000000000000100010010000000000000000000000F0010000007471600320150813000101 00000000000000000000000000000000000000000000000000000000000000000000000000000000000000000000000000000000000000000N 00000000000NCONT   00    00000000000          00000000000000000000000000000000000000000000 000000000000000A000000000000000000000000000000000000000000000 000000000000000000000000000000000000000     00000000                                                                                                                        000000000000000000
F0010000007471600004000089010260300023658300000000000000000201508130002001FEDERICO OSORIO A. S.A.                           C000000000693600000000000000000000100010010000000000000000000000F0010000007471600420150813000101 00000000000000000000000000000000000000000000000000000000000000000000000000000000000000000000000000000000000000000N 00000000000NCONT   00    00000000000          00000000000000000000000000000000000000000000 000000000000000A000000000000000000000000000000000000000000000 000000000000000000000000000000000000000     00000000                                                                                                                        000000000000000000
F0010000007471600005000089010260300013552100000000000000000201508130002001FEDERICO OSORIO A. S.A.                           D000000000693600000000000000000000100010010000000000000000000000F0010000007471600520150813000101 00000000000000000000000000000000000000000000000000000000000000000000000000000000000000000000000000000000000000000N 00000000000NCONT   00    00000000000          00000000000000000000000000000000000000000000 000000000000000A000000000000000000000000000000000000000000000 000000000000000000000000000000000000000     00000000                                                                                                                        000000000000000000
F0010000007471700001000089010260300013050500000000000000000201508130002001FEDERICO OSORIO A. S.A.                           D000000055254500000000000000000000100010010000000000000000000000F0010000007471700120150813000101 00000000000000000000000000000000000000000000000000000000000000000000000000000000000000000000000000000000000000000N 00000000000NCONT   00    00000000000          00000000000000000000000000000000000000000000 000000000000000A000000000000000000000000000000000000000000000 000000000000000000000000000000000000000     00000000                                                                                                                        000000000000000000
F0010000007471700002000089010260300041450500000000000000000201508130002001FEDERICO OSORIO A. S.A.                           C000000052370000000000000000000000100010010000000000000000000000F0010000007471700220150813000101 00000000000000000000000000000000000000000000000000000000000000000000000000000000000000000000000000000000000000000N 00000000000NCONT   00    00000000000          00000000000000000000000000000000000000000000 000000000000000A000000000000000000000000000000000000000000000 000000000000000000000000000000000000000     00000000                                                                                                                        000000000000000000
F0010000007471700003000089010260300042505000000000000000000201508130002001FEDERICO OSORIO A. S.A.                           C000000002884500000000000000000000100010010000000000000000000000F0010000007471700320150813000101 00000000000000000000000000000000000000000000000000000000000000000000000000000000000000000000000000000000000000000N 00000000000NCONT   00    00000000000          00000000000000000000000000000000000000000000 000000000000000A000000000000000000000000000000000000000000000 000000000000000000000000000000000000000     00000000                                                                                                                        000000000000000000
F0010000007471700004000089010260300023658300000000000000000201508130002001FEDERICO OSORIO A. S.A.                           C000000000419000000000000000000000100010010000000000000000000000F0010000007471700420150813000101 00000000000000000000000000000000000000000000000000000000000000000000000000000000000000000000000000000000000000000N 00000000000NCONT   00    00000000000          00000000000000000000000000000000000000000000 000000000000000A000000000000000000000000000000000000000000000 000000000000000000000000000000000000000     00000000                                                                                                                        000000000000000000
F0010000007471700005000089010260300013552100000000000000000201508130002001FEDERICO OSORIO A. S.A.                           D000000000419000000000000000000000100010010000000000000000000000F0010000007471700520150813000101 00000000000000000000000000000000000000000000000000000000000000000000000000000000000000000000000000000000000000000N 00000000000NCONT   00    00000000000          00000000000000000000000000000000000000000000 000000000000000A000000000000000000000000000000000000000000000 000000000000000000000000000000000000000     00000000                                                                                                                        000000000000000000
F0010000007471800001000080004943800013050500000000000000000201508130002001PAPELERIA EL CID S.A.                             D000000074279300000000000000000000100010010000000000000000000000F0010000007471800120150813000101 00000000000000000000000000000000000000000000000000000000000000000000000000000000000000000000000000000000000000000N 00000000000NCONT   00    00000000000          00000000000000000000000000000000000000000000 000000000000000A000000000000000000000000000000000000000000000 000000000000000000000000000000000000000     00000000                                                                                                                        000000000000000000
F0010000007471800002000080004943800041450500000000000000000201508130002001PAPELERIA EL CID S.A.                             C000000061773000000000000000000000100010010000000000000000000000F0010000007471800220150813000101 00000000000000000000000000000000000000000000000000000000000000000000000000000000000000000000000000000000000000000N 00000000000NCONT   00    00000000000          00000000000000000000000000000000000000000000 000000000000000A000000000000000000000000000000000000000000000 000000000000000000000000000000000000000     00000000                                                                                                                        000000000000000000
F0010000007471800003000080004943800042505000000000000000000201508130002001PAPELERIA EL CID S.A.                             C000000012506300000000000000000000100010010000000000000000000000F0010000007471800320150813000101 00000000000000000000000000000000000000000000000000000000000000000000000000000000000000000000000000000000000000000N 00000000000NCONT   00    00000000000          00000000000000000000000000000000000000000000 000000000000000A000000000000000000000000000000000000000000000 000000000000000000000000000000000000000     00000000                                                                                                                        000000000000000000
F0010000007471800004000080004943800023658300000000000000000201508130002001PAPELERIA EL CID S.A.                             C000000000494200000000000000000000100010010000000000000000000000F0010000007471800420150813000101 00000000000000000000000000000000000000000000000000000000000000000000000000000000000000000000000000000000000000000N 00000000000NCONT   00    00000000000          00000000000000000000000000000000000000000000 000000000000000A000000000000000000000000000000000000000000000 000000000000000000000000000000000000000     00000000                                                                                                                        000000000000000000
F0010000007471800005000080004943800013552100000000000000000201508130002001PAPELERIA EL CID S.A.                             D000000000494200000000000000000000100010010000000000000000000000F0010000007471800520150813000101 00000000000000000000000000000000000000000000000000000000000000000000000000000000000000000000000000000000000000000N 00000000000NCONT   00    00000000000          00000000000000000000000000000000000000000000 000000000000000A000000000000000000000000000000000000000000000 000000000000000000000000000000000000000     00000000                                                                                                                        000000000000000000
F0010000007471900001000080004943800013050500000000000000000201508130002001PAPELERIA EL CID S.A.                             D000000048685500000000000000000000100010010000000000000000000000F0010000007471900120150813000101 00000000000000000000000000000000000000000000000000000000000000000000000000000000000000000000000000000000000000000N 00000000000NCONT   00    00000000000          00000000000000000000000000000000000000000000 000000000000000A000000000000000000000000000000000000000000000 000000000000000000000000000000000000000     00000000                                                                                                                        000000000000000000
F0010000007471900002000080004943800041450500000000000000000201508130002001PAPELERIA EL CID S.A.                             C000000040612500000000000000000000100010010000000000000000000000F0010000007471900220150813000101 00000000000000000000000000000000000000000000000000000000000000000000000000000000000000000000000000000000000000000N 00000000000NCONT   00    00000000000          00000000000000000000000000000000000000000000 000000000000000A000000000000000000000000000000000000000000000 000000000000000000000000000000000000000     00000000                                                                                                                        000000000000000000
F0010000007471900003000080004943800042505000000000000000000201508130002001PAPELERIA EL CID S.A.                             C000000008073000000000000000000000100010010000000000000000000000F0010000007471900320150813000101 00000000000000000000000000000000000000000000000000000000000000000000000000000000000000000000000000000000000000000N 00000000000NCONT   00    00000000000          00000000000000000000000000000000000000000000 000000000000000A000000000000000000000000000000000000000000000 000000000000000000000000000000000000000     00000000                                                                                                                        000000000000000000
F0010000007471900004000080004943800023658300000000000000000201508130002001PAPELERIA EL CID S.A.                             C000000000324900000000000000000000100010010000000000000000000000F0010000007471900420150813000101 00000000000000000000000000000000000000000000000000000000000000000000000000000000000000000000000000000000000000000N 00000000000NCONT   00    00000000000          00000000000000000000000000000000000000000000 000000000000000A000000000000000000000000000000000000000000000 000000000000000000000000000000000000000     00000000                                                                                                                        000000000000000000
F0010000007471900005000080004943800013552100000000000000000201508130002001PAPELERIA EL CID S.A.                             D000000000324900000000000000000000100010010000000000000000000000F0010000007471900520150813000101 00000000000000000000000000000000000000000000000000000000000000000000000000000000000000000000000000000000000000000N 00000000000NCONT   00    00000000000          00000000000000000000000000000000000000000000 000000000000000A000000000000000000000000000000000000000000000 000000000000000000000000000000000000000     00000000                                                                                                                        000000000000000000
F0010000007472000001000080202094000013050500000000000000000201508130002001DISTRIB. OMAR ORREGO S.A.                         D000000036784900000000000000000000100010010000000000000000000000F0010000007472000120150813000101 00000000000000000000000000000000000000000000000000000000000000000000000000000000000000000000000000000000000000000N 00000000000NCONT   00    00000000000          00000000000000000000000000000000000000000000 000000000000000A000000000000000000000000000000000000000000000 000000000000000000000000000000000000000     00000000                                                                                                                        000000000000000000
F0010000007472000002000080202094000041450500000000000000000201508130002001DISTRIB. OMAR ORREGO S.A.                         C000000020390000000000000000000000100010010000000000000000000000F0010000007472000220150813000101 00000000000000000000000000000000000000000000000000000000000000000000000000000000000000000000000000000000000000000N 00000000000NCONT   00    00000000000          00000000000000000000000000000000000000000000 000000000000000A000000000000000000000000000000000000000000000 000000000000000000000000000000000000000     00000000                                                                                                                        000000000000000000
F0010000007472000003000080202094000042505000000000000000000201508130002001DISTRIB. OMAR ORREGO S.A.                         C000000016394900000000000000000000100010010000000000000000000000F0010000007472000320150813000101 00000000000000000000000000000000000000000000000000000000000000000000000000000000000000000000000000000000000000000N 00000000000NCONT   00    00000000000          00000000000000000000000000000000000000000000 000000000000000A000000000000000000000000000000000000000000000 000000000000000000000000000000000000000     00000000                                                                                                                        000000000000000000
F0010000007472000004000080202094000023658300000000000000000201508130002001DISTRIB. OMAR ORREGO S.A.                         C000000000163100000000000000000000100010010000000000000000000000F0010000007472000420150813000101 00000000000000000000000000000000000000000000000000000000000000000000000000000000000000000000000000000000000000000N 00000000000NCONT   00    00000000000          00000000000000000000000000000000000000000000 000000000000000A000000000000000000000000000000000000000000000 000000000000000000000000000000000000000     00000000                                                                                                                        000000000000000000
F0010000007472000005000080202094000013552100000000000000000201508130002001DISTRIB. OMAR ORREGO S.A.                         D000000000163100000000000000000000100010010000000000000000000000F0010000007472000520150813000101 00000000000000000000000000000000000000000000000000000000000000000000000000000000000000000000000000000000000000000N 00000000000NCONT   00    00000000000          00000000000000000000000000000000000000000000 000000000000000A000000000000000000000000000000000000000000000 000000000000000000000000000000000000000     00000000                                                                                                                        000000000000000000
F0010000007472100001000080202094000013050500000000000000000201508130002001DISTRIB. OMAR ORREGO S.A.                         D000000033893900000000000000000000100010010000000000000000000000F0010000007472100120150813000101 00000000000000000000000000000000000000000000000000000000000000000000000000000000000000000000000000000000000000000N 00000000000NCONT   00    00000000000          00000000000000000000000000000000000000000000 000000000000000A000000000000000000000000000000000000000000000 000000000000000000000000000000000000000     00000000                                                                                                                        000000000000000000
F0010000007472100002000080202094000041450500000000000000000201508130002001DISTRIB. OMAR ORREGO S.A.                         C000000021080000000000000000000000100010010000000000000000000000F0010000007472100220150813000101 00000000000000000000000000000000000000000000000000000000000000000000000000000000000000000000000000000000000000000N 00000000000NCONT   00    00000000000          00000000000000000000000000000000000000000000 000000000000000A000000000000000000000000000000000000000000000 000000000000000000000000000000000000000     00000000                                                                                                                        000000000000000000
F0010000007472100003000080202094000042505000000000000000000201508130002001DISTRIB. OMAR ORREGO S.A.                         C000000012813900000000000000000000100010010000000000000000000000F0010000007472100320150813000101 00000000000000000000000000000000000000000000000000000000000000000000000000000000000000000000000000000000000000000N 00000000000NCONT   00    00000000000          00000000000000000000000000000000000000000000 000000000000000A000000000000000000000000000000000000000000000 000000000000000000000000000000000000000     00000000                                                                                                                        000000000000000000
F0010000007472100004000080202094000023658300000000000000000201508130002001DISTRIB. OMAR ORREGO S.A.                         C000000000168600000000000000000000100010010000000000000000000000F0010000007472100420150813000101 00000000000000000000000000000000000000000000000000000000000000000000000000000000000000000000000000000000000000000N 00000000000NCONT   00    00000000000          00000000000000000000000000000000000000000000 000000000000000A000000000000000000000000000000000000000000000 000000000000000000000000000000000000000     00000000                                                                                                                        000000000000000000
F0010000007472100005000080202094000013552100000000000000000201508130002001DISTRIB. OMAR ORREGO S.A.                         D000000000168600000000000000000000100010010000000000000000000000F0010000007472100520150813000101 00000000000000000000000000000000000000000000000000000000000000000000000000000000000000000000000000000000000000000N 00000000000NCONT   00    00000000000          00000000000000000000000000000000000000000000 000000000000000A000000000000000000000000000000000000000000000 000000000000000000000000000000000000000     00000000                                                                                                                        000000000000000000
F0010000007472200001000080201112800013050500000000000000000201508130002001CANGURO INTERNATIONAL S.A.                        D000000350721100000000000000000000100010010000000000000000000000F0010000007472200120150813000101 00000000000000000000000000000000000000000000000000000000000000000000000000000000000000000000000000000000000000000N 00000000000NCONT   00    00000000000          00000000000000000000000000000000000000000000 000000000000000A000000000000000000000000000000000000000000000 000000000000000000000000000000000000000     00000000                                                                                                                        000000000000000000
F0010000007472200002000080201112800041450500000000000000000201508130002001CANGURO INTERNATIONAL S.A.                        C000000346793700000000000000000000100010010000000000000000000000F0010000007472200220150813000101 00000000000000000000000000000000000000000000000000000000000000000000000000000000000000000000000000000000000000000N 00000000000NCONT   00    00000000000          00000000000000000000000000000000000000000000 000000000000000A000000000000000000000000000000000000000000000 000000000000000000000000000000000000000     00000000                                                                                                                        000000000000000000
F0010000007472200003000080201112800042505000000000000000000201508130002001CANGURO INTERNATIONAL S.A.                        C000000003927400000000000000000000100010010000000000000000000000F0010000007472200320150813000101 00000000000000000000000000000000000000000000000000000000000000000000000000000000000000000000000000000000000000000N 00000000000NCONT   00    00000000000          00000000000000000000000000000000000000000000 000000000000000A000000000000000000000000000000000000000000000 000000000000000000000000000000000000000     00000000                                                                                                                        000000000000000000
F0010000007472200004000080201112800023658300000000000000000201508130002001CANGURO INTERNATIONAL S.A.                        C000000002774300000000000000000000100010010000000000000000000000F0010000007472200420150813000101 00000000000000000000000000000000000000000000000000000000000000000000000000000000000000000000000000000000000000000N 00000000000NCONT   00    00000000000          00000000000000000000000000000000000000000000 000000000000000A000000000000000000000000000000000000000000000 000000000000000000000000000000000000000     00000000                                                                                                                        000000000000000000
F0010000007472200005000080201112800013552100000000000000000201508130002001CANGURO INTERNATIONAL S.A.                        D000000002774300000000000000000000100010010000000000000000000000F0010000007472200520150813000101 00000000000000000000000000000000000000000000000000000000000000000000000000000000000000000000000000000000000000000N 00000000000NCONT   00    00000000000          00000000000000000000000000000000000000000000 000000000000000A000000000000000000000000000000000000000000000 000000000000000000000000000000000000000     00000000                                                                                                                        000000000000000000
F0010000007472300001000080201112800013050500000000000000000201508130002001CANGURO INTERNATIONAL S.A.                        D000000145580400000000000000000000100010010000000000000000000000F0010000007472300120150813000101 00000000000000000000000000000000000000000000000000000000000000000000000000000000000000000000000000000000000000000N 00000000000NCONT   00    00000000000          00000000000000000000000000000000000000000000 000000000000000A000000000000000000000000000000000000000000000 000000000000000000000000000000000000000     00000000                                                                                                                        000000000000000000
F0010000007472300002000080201112800041450500000000000000000201508130002001CANGURO INTERNATIONAL S.A.                        C000000134717300000000000000000000100010010000000000000000000000F0010000007472300220150813000101 00000000000000000000000000000000000000000000000000000000000000000000000000000000000000000000000000000000000000000N 00000000000NCONT   00    00000000000          00000000000000000000000000000000000000000000 000000000000000A000000000000000000000000000000000000000000000 000000000000000000000000000000000000000     00000000                                                                                                                        000000000000000000
F0010000007472300003000080201112800042505000000000000000000201508130002001CANGURO INTERNATIONAL S.A.                        C000000010863100000000000000000000100010010000000000000000000000F0010000007472300320150813000101 00000000000000000000000000000000000000000000000000000000000000000000000000000000000000000000000000000000000000000N 00000000000NCONT   00    00000000000          00000000000000000000000000000000000000000000 000000000000000A000000000000000000000000000000000000000000000 000000000000000000000000000000000000000     00000000                                                                                                                        000000000000000000
F0010000007472300004000080201112800023658300000000000000000201508130002001CANGURO INTERNATIONAL S.A.                        C000000001077700000000000000000000100010010000000000000000000000F0010000007472300420150813000101 00000000000000000000000000000000000000000000000000000000000000000000000000000000000000000000000000000000000000000N 00000000000NCONT   00    00000000000          00000000000000000000000000000000000000000000 000000000000000A000000000000000000000000000000000000000000000 000000000000000000000000000000000000000     00000000                                                                                                                        000000000000000000
F0010000007472300005000080201112800013552100000000000000000201508130002001CANGURO INTERNATIONAL S.A.                        D000000001077700000000000000000000100010010000000000000000000000F0010000007472300520150813000101 00000000000000000000000000000000000000000000000000000000000000000000000000000000000000000000000000000000000000000N 00000000000NCONT   00    00000000000          00000000000000000000000000000000000000000000 000000000000000A000000000000000000000000000000000000000000000 000000000000000000000000000000000000000     00000000                                                                                                                        000000000000000000
F0010000007472400001000090035510100013050500000000000000000201508130002001GRAINGER COLOMBIA S.A.S.                          D000000018931100000000000000000000100010010000000000000000000000F0010000007472400120150813000101 00000000000000000000000000000000000000000000000000000000000000000000000000000000000000000000000000000000000000000N 00000000000NCONT   00    00000000000          00000000000000000000000000000000000000000000 000000000000000A000000000000000000000000000000000000000000000 000000000000000000000000000000000000000     00000000                                                                                                                        000000000000000000
F0010000007472400002000090035510100041450500000000000000000201508130002001GRAINGER COLOMBIA S.A.S.                          C000000012130100000000000000000000100010010000000000000000000000F0010000007472400220150813000101 00000000000000000000000000000000000000000000000000000000000000000000000000000000000000000000000000000000000000000N 00000000000NCONT   00    00000000000          00000000000000000000000000000000000000000000 000000000000000A000000000000000000000000000000000000000000000 000000000000000000000000000000000000000     00000000                                                                                                                        000000000000000000
F0010000007472400003000090035510100042505000000000000000000201508130002001GRAINGER COLOMBIA S.A.S.                          C000000006801000000000000000000000100010010000000000000000000000F0010000007472400320150813000101 00000000000000000000000000000000000000000000000000000000000000000000000000000000000000000000000000000000000000000N 00000000000NCONT   00    00000000000          00000000000000000000000000000000000000000000 000000000000000A000000000000000000000000000000000000000000000 000000000000000000000000000000000000000     00000000                                                                                                                        000000000000000000
F0010000007472400004000090035510100023658300000000000000000201508130002001GRAINGER COLOMBIA S.A.S.                          C000000000097000000000000000000000100010010000000000000000000000F0010000007472400420150813000101 00000000000000000000000000000000000000000000000000000000000000000000000000000000000000000000000000000000000000000N 00000000000NCONT   00    00000000000          00000000000000000000000000000000000000000000 000000000000000A000000000000000000000000000000000000000000000 000000000000000000000000000000000000000     00000000                                                                                                                        000000000000000000
F0010000007472400005000090035510100013552100000000000000000201508130002001GRAINGER COLOMBIA S.A.S.                          D000000000097000000000000000000000100010010000000000000000000000F0010000007472400520150813000101 00000000000000000000000000000000000000000000000000000000000000000000000000000000000000000000000000000000000000000N 00000000000NCONT   00    00000000000          00000000000000000000000000000000000000000000 000000000000000A000000000000000000000000000000000000000000000 000000000000000000000000000000000000000     00000000                                                                                                                        000000000000000000
F0010000007472500001000081102758700013050500000000000000000201508130002001C.I. ABRACOL S.A EMA                              D000000053156700000000000000000000100010010000000000000000000000F0010000007472500120150813000101 00000000000000000000000000000000000000000000000000000000000000000000000000000000000000000000000000000000000000000N 00000000000NCONT   00    00000000000          00000000000000000000000000000000000000000000 000000000000000A000000000000000000000000000000000000000000000 000000000000000000000000000000000000000     00000000                                                                                                                        000000000000000000
F0010000007472500002000081102758700041450500000000000000000201508130002001C.I. ABRACOL S.A EMA                              C000000029340000000000000000000000100010010000000000000000000000F0010000007472500220150813000101 00000000000000000000000000000000000000000000000000000000000000000000000000000000000000000000000000000000000000000N 00000000000NCONT   00    00000000000          00000000000000000000000000000000000000000000 000000000000000A000000000000000000000000000000000000000000000 000000000000000000000000000000000000000     00000000                                                                                                                        000000000000000000
F0010000007472500003000081102758700041750100000000000000000201508130002001C.I. ABRACOL S.A EMA                              D000000000880200000000000000000000100010010000000000000000000000F0010000007472500320150813000101 00000000000000000000000000000000000000000000000000000000000000000000000000000000000000000000000000000000000000000N 00000000000NCONT   00    00000000000          00000000000000000000000000000000000000000000 000000000000000A000000000000000000000000000000000000000000000 000000000000000000000000000000000000000     00000000                                                                                                                        000000000000000000
F0010000007472500004000081102758700042505000000000000000000201508130002001C.I. ABRACOL S.A EMA                              C000000024696900000000000000000000100010010000000000000000000000F0010000007472500420150813000101 00000000000000000000000000000000000000000000000000000000000000000000000000000000000000000000000000000000000000000N 00000000000NCONT   00    00000000000          00000000000000000000000000000000000000000000 000000000000000A000000000000000000000000000000000000000000000 000000000000000000000000000000000000000     00000000                                                                                                                        000000000000000000
F0010000007472500005000081102758700023658300000000000000000201508130002001C.I. ABRACOL S.A EMA                              C000000000234700000000000000000000100010010000000000000000000000F0010000007472500520150813000101 00000000000000000000000000000000000000000000000000000000000000000000000000000000000000000000000000000000000000000N 00000000000NCONT   00    00000000000          00000000000000000000000000000000000000000000 000000000000000A000000000000000000000000000000000000000000000 000000000000000000000000000000000000000     00000000                                                                                                                        000000000000000000
F0010000007472500006000081102758700013552100000000000000000201508130002001C.I. ABRACOL S.A EMA                              D000000000234700000000000000000000100010010000000000000000000000F0010000007472500620150813000101 00000000000000000000000000000000000000000000000000000000000000000000000000000000000000000000000000000000000000000N 00000000000NCONT   00    00000000000          00000000000000000000000000000000000000000000 000000000000000A000000000000000000000000000000000000000000000 000000000000000000000000000000000000000     00000000                                                                                                                        000000000000000000
F0010000007472600001000081102758700013050500000000000000000201508130002001C.I. ABRACOL S.A EMA                              D000000071886600000000000000000000100010010000000000000000000000F0010000007472600120150813000101 00000000000000000000000000000000000000000000000000000000000000000000000000000000000000000000000000000000000000000N 00000000000NCONT   00    00000000000          00000000000000000000000000000000000000000000 000000000000000A000000000000000000000000000000000000000000000 000000000000000000000000000000000000000     00000000                                                                                                                        000000000000000000
F0010000007472600002000081102758700041450500000000000000000201508130002001C.I. ABRACOL S.A EMA                              C000000053631700000000000000000000100010010000000000000000000000F0010000007472600220150813000101 00000000000000000000000000000000000000000000000000000000000000000000000000000000000000000000000000000000000000000N 00000000000NCONT   00    00000000000          00000000000000000000000000000000000000000000 000000000000000A000000000000000000000000000000000000000000000 000000000000000000000000000000000000000     00000000                                                                                                                        000000000000000000
F0010000007472600003000081102758700041750100000000000000000201508130002001C.I. ABRACOL S.A EMA                              D000000001609000000000000000000000100010010000000000000000000000F0010000007472600320150813000101 00000000000000000000000000000000000000000000000000000000000000000000000000000000000000000000000000000000000000000N 00000000000NCONT   00    00000000000          00000000000000000000000000000000000000000000 000000000000000A000000000000000000000000000000000000000000000 000000000000000000000000000000000000000     00000000                                                                                                                        000000000000000000
F0010000007472600004000081102758700042505000000000000000000201508130002001C.I. ABRACOL S.A EMA                              C000000019863900000000000000000000100010010000000000000000000000F0010000007472600420150813000101 00000000000000000000000000000000000000000000000000000000000000000000000000000000000000000000000000000000000000000N 00000000000NCONT   00    00000000000          00000000000000000000000000000000000000000000 000000000000000A000000000000000000000000000000000000000000000 000000000000000000000000000000000000000     00000000                                                                                                                        000000000000000000
F0010000007472600005000081102758700023658300000000000000000201508130002001C.I. ABRACOL S.A EMA                              C000000000429100000000000000000000100010010000000000000000000000F0010000007472600520150813000101 00000000000000000000000000000000000000000000000000000000000000000000000000000000000000000000000000000000000000000N 00000000000NCONT   00    00000000000          00000000000000000000000000000000000000000000 000000000000000A000000000000000000000000000000000000000000000 000000000000000000000000000000000000000     00000000                                                                                                                        000000000000000000
F0010000007472600006000081102758700013552100000000000000000201508130002001C.I. ABRACOL S.A EMA                              D000000000429100000000000000000000100010010000000000000000000000F0010000007472600620150813000101 00000000000000000000000000000000000000000000000000000000000000000000000000000000000000000000000000000000000000000N 00000000000NCONT   00    00000000000          00000000000000000000000000000000000000000000 000000000000000A000000000000000000000000000000000000000000000 000000000000000000000000000000000000000     00000000                                                                                                                        000000000000000000
F0010000007472700001000090038852800013050500000000000000000201508130002001EL COMERCIO ELECTRICO DE LA CO                    D000000019560000000000000000000000100010010000000000000000000000F0010000007472700120150813000101 00000000000000000000000000000000000000000000000000000000000000000000000000000000000000000000000000000000000000000N 00000000000NCONT   00    00000000000          00000000000000000000000000000000000000000000 000000000000000A000000000000000000000000000000000000000000000 000000000000000000000000000000000000000     00000000                                                                                                                        000000000000000000
F0010000007472700002000090038852800041450500000000000000000201508130002001EL COMERCIO ELECTRICO DE LA CO                    C000000014960000000000000000000000100010010000000000000000000000F0010000007472700220150813000101 00000000000000000000000000000000000000000000000000000000000000000000000000000000000000000000000000000000000000000N 00000000000NCONT   00    00000000000          00000000000000000000000000000000000000000000 000000000000000A000000000000000000000000000000000000000000000 000000000000000000000000000000000000000     00000000                                                                                                                        000000000000000000
F0010000007472700003000090038852800042505000000000000000000201508130002001EL COMERCIO ELECTRICO DE LA CO                    C000000004600000000000000000000000100010010000000000000000000000F0010000007472700320150813000101 00000000000000000000000000000000000000000000000000000000000000000000000000000000000000000000000000000000000000000N 00000000000NCONT   00    00000000000          00000000000000000000000000000000000000000000 000000000000000A000000000000000000000000000000000000000000000 000000000000000000000000000000000000000     00000000                                                                                                                        000000000000000000
F0010000007472700004000090038852800023658300000000000000000201508130002001EL COMERCIO ELECTRICO DE LA CO                    C000000000119700000000000000000000100010010000000000000000000000F0010000007472700420150813000101 00000000000000000000000000000000000000000000000000000000000000000000000000000000000000000000000000000000000000000N 00000000000NCONT   00    00000000000          00000000000000000000000000000000000000000000 000000000000000A000000000000000000000000000000000000000000000 000000000000000000000000000000000000000     00000000                                                                                                                        000000000000000000
F0010000007472700005000090038852800013552100000000000000000201508130002001EL COMERCIO ELECTRICO DE LA CO                    D000000000119700000000000000000000100010010000000000000000000000F0010000007472700520150813000101 00000000000000000000000000000000000000000000000000000000000000000000000000000000000000000000000000000000000000000N 00000000000NCONT   00    00000000000          00000000000000000000000000000000000000000000 000000000000000A000000000000000000000000000000000000000000000 000000000000000000000000000000000000000     00000000                                                                                                                        000000000000000000
F0010000007472800001000086003979400013050500000000000000000201508130002001CALYPSO BARRANQUILLA LTDA                         D000000016019700000000000000000000100010010000000000000000000000F0010000007472800120150813000101 00000000000000000000000000000000000000000000000000000000000000000000000000000000000000000000000000000000000000000N 00000000000NCONT   00    00000000000          00000000000000000000000000000000000000000000 000000000000000A000000000000000000000000000000000000000000000 000000000000000000000000000000000000000     00000000                                                                                                                        000000000000000000
F0010000007472800002000086003979400041450500000000000000000201508130002001CALYPSO BARRANQUILLA LTDA                         C000000013700000000000000000000000100010010000000000000000000000F0010000007472800220150813000101 00000000000000000000000000000000000000000000000000000000000000000000000000000000000000000000000000000000000000000N 00000000000NCONT   00    00000000000          00000000000000000000000000000000000000000000 000000000000000A000000000000000000000000000000000000000000000 000000000000000000000000000000000000000     00000000                                                                                                                        000000000000000000
F0010000007472800003000086003979400042505000000000000000000201508130002001CALYPSO BARRANQUILLA LTDA                         C000000002319700000000000000000000100010010000000000000000000000F0010000007472800320150813000101 00000000000000000000000000000000000000000000000000000000000000000000000000000000000000000000000000000000000000000N 00000000000NCONT   00    00000000000          00000000000000000000000000000000000000000000 000000000000000A000000000000000000000000000000000000000000000 000000000000000000000000000000000000000     00000000                                                                                                                        000000000000000000
F0010000007472800004000086003979400023658300000000000000000201508130002001CALYPSO BARRANQUILLA LTDA                         C000000000109600000000000000000000100010010000000000000000000000F0010000007472800420150813000101 00000000000000000000000000000000000000000000000000000000000000000000000000000000000000000000000000000000000000000N 00000000000NCONT   00    00000000000          00000000000000000000000000000000000000000000 000000000000000A000000000000000000000000000000000000000000000 000000000000000000000000000000000000000     00000000                                                                                                                        000000000000000000
F0010000007472800005000086003979400013552100000000000000000201508130002001CALYPSO BARRANQUILLA LTDA                         D000000000109600000000000000000000100010010000000000000000000000F0010000007472800520150813000101 00000000000000000000000000000000000000000000000000000000000000000000000000000000000000000000000000000000000000000N 00000000000NCONT   00    00000000000          00000000000000000000000000000000000000000000 000000000000000A000000000000000000000000000000000000000000000 000000000000000000000000000000000000000     00000000                                                                                                                        000000000000000000
F0010000007472900001000090050863700013050500000000000000000201508130002001COMERCIALIZADORA PERFECT SAS                      D000000006894700000000000000000000100010010000000000000000000000F0010000007472900120150813000101 00000000000000000000000000000000000000000000000000000000000000000000000000000000000000000000000000000000000000000N 00000000000NCONT   00    00000000000          00000000000000000000000000000000000000000000 000000000000000A000000000000000000000000000000000000000000000 000000000000000000000000000000000000000     00000000                                                                                                                        000000000000000000
F0010000007472900002000090050863700041450500000000000000000201508130002001COMERCIALIZADORA PERFECT SAS                      C000000003644700000000000000000000100010010000000000000000000000F0010000007472900220150813000101 00000000000000000000000000000000000000000000000000000000000000000000000000000000000000000000000000000000000000000N 00000000000NCONT   00    00000000000          00000000000000000000000000000000000000000000 000000000000000A000000000000000000000000000000000000000000000 000000000000000000000000000000000000000     00000000                                                                                                                        000000000000000000
F0010000007472900003000090050863700042505000000000000000000201508130002001COMERCIALIZADORA PERFECT SAS                      C000000003250000000000000000000000100010010000000000000000000000F0010000007472900320150813000101 00000000000000000000000000000000000000000000000000000000000000000000000000000000000000000000000000000000000000000N 00000000000NCONT   00    00000000000          00000000000000000000000000000000000000000000 000000000000000A000000000000000000000000000000000000000000000 000000000000000000000000000000000000000     00000000                                                                                                                        000000000000000000
F0010000007472900004000090050863700023658300000000000000000201508130002001COMERCIALIZADORA PERFECT SAS                      C000000000029200000000000000000000100010010000000000000000000000F0010000007472900420150813000101 00000000000000000000000000000000000000000000000000000000000000000000000000000000000000000000000000000000000000000N 00000000000NCONT   00    00000000000          00000000000000000000000000000000000000000000 000000000000000A000000000000000000000000000000000000000000000 000000000000000000000000000000000000000     00000000                                                                                                                        000000000000000000
F0010000007472900005000090050863700013552100000000000000000201508130002001COMERCIALIZADORA PERFECT SAS                      D000000000029200000000000000000000100010010000000000000000000000F0010000007472900520150813000101 00000000000000000000000000000000000000000000000000000000000000000000000000000000000000000000000000000000000000000N 00000000000NCONT   00    00000000000          00000000000000000000000000000000000000000000 000000000000000A000000000000000000000000000000000000000000000 000000000000000000000000000000000000000     00000000                                                                                                                        000000000000000000
F0010000007473000001000080001063400013050500000000000000000201508130002001PRODUCTOS JULIAO SAS                              D000000033350800000000000000000000100010010000000000000000000000F0010000007473000120150813000101 00000000000000000000000000000000000000000000000000000000000000000000000000000000000000000000000000000000000000000N 00000000000NCONT   00    00000000000          00000000000000000000000000000000000000000000 000000000000000A000000000000000000000000000000000000000000000 000000000000000000000000000000000000000     00000000                                                                                                                        000000000000000000
F0010000007473000002000080001063400041450500000000000000000201508130002001PRODUCTOS JULIAO SAS                              C000000031500000000000000000000000100010010000000000000000000000F0010000007473000220150813000101 00000000000000000000000000000000000000000000000000000000000000000000000000000000000000000000000000000000000000000N 00000000000NCONT   00    00000000000          00000000000000000000000000000000000000000000 000000000000000A000000000000000000000000000000000000000000000 000000000000000000000000000000000000000     00000000                                                                                                                        000000000000000000
F0010000007473000003000080001063400042505000000000000000000201508130002001PRODUCTOS JULIAO SAS                              C000000001850800000000000000000000100010010000000000000000000000F0010000007473000320150813000101 00000000000000000000000000000000000000000000000000000000000000000000000000000000000000000000000000000000000000000N 00000000000NCONT   00    00000000000          00000000000000000000000000000000000000000000 000000000000000A000000000000000000000000000000000000000000000 000000000000000000000000000000000000000     00000000                                                                                                                        000000000000000000
F0010000007473000004000080001063400023658300000000000000000201508130002001PRODUCTOS JULIAO SAS                              C000000000252000000000000000000000100010010000000000000000000000F0010000007473000420150813000101 00000000000000000000000000000000000000000000000000000000000000000000000000000000000000000000000000000000000000000N 00000000000NCONT   00    00000000000          00000000000000000000000000000000000000000000 000000000000000A000000000000000000000000000000000000000000000 000000000000000000000000000000000000000     00000000                                                                                                                        000000000000000000
F0010000007473000005000080001063400013552100000000000000000201508130002001PRODUCTOS JULIAO SAS                              D000000000252000000000000000000000100010010000000000000000000000F0010000007473000520150813000101 00000000000000000000000000000000000000000000000000000000000000000000000000000000000000000000000000000000000000000N 00000000000NCONT   00    00000000000          00000000000000000000000000000000000000000000 000000000000000A000000000000000000000000000000000000000000000 000000000000000000000000000000000000000     00000000                                                                                                                        000000000000000000
F0010000007473100001000089011078600013050500000000000000000201508130002001DIST. NUEVO MUNDO S.A.S.                          D000000002580000000000000000000000100010010000000000000000000000F0010000007473100120150813000101 00000000000000000000000000000000000000000000000000000000000000000000000000000000000000000000000000000000000000000N 00000000000NCONT   00    00000000000          00000000000000000000000000000000000000000000 000000000000000A000000000000000000000000000000000000000000000 000000000000000000000000000000000000000     00000000                                                                                                                        000000000000000000
F0010000007473100002000089011078600041450500000000000000000201508130002001DIST. NUEVO MUNDO S.A.S.                          C000000002020000000000000000000000100010010000000000000000000000F0010000007473100220150813000101 00000000000000000000000000000000000000000000000000000000000000000000000000000000000000000000000000000000000000000N 00000000000NCONT   00    00000000000          00000000000000000000000000000000000000000000 000000000000000A000000000000000000000000000000000000000000000 000000000000000000000000000000000000000     00000000                                                                                                                        000000000000000000
F0010000007473100003000089011078600042505000000000000000000201508130002001DIST. NUEVO MUNDO S.A.S.                          C000000000560000000000000000000000100010010000000000000000000000F0010000007473100320150813000101 00000000000000000000000000000000000000000000000000000000000000000000000000000000000000000000000000000000000000000N 00000000000NCONT   00    00000000000          00000000000000000000000000000000000000000000 000000000000000A000000000000000000000000000000000000000000000 000000000000000000000000000000000000000     00000000                                                                                                                        000000000000000000
F0010000007473100004000089011078600023658300000000000000000201508130002001DIST. NUEVO MUNDO S.A.S.                          C000000000016200000000000000000000100010010000000000000000000000F0010000007473100420150813000101 00000000000000000000000000000000000000000000000000000000000000000000000000000000000000000000000000000000000000000N 00000000000NCONT   00    00000000000          00000000000000000000000000000000000000000000 000000000000000A000000000000000000000000000000000000000000000 000000000000000000000000000000000000000     00000000                                                                                                                        000000000000000000
F0010000007473100005000089011078600013552100000000000000000201508130002001DIST. NUEVO MUNDO S.A.S.                          D000000000016200000000000000000000100010010000000000000000000000F0010000007473100520150813000101 00000000000000000000000000000000000000000000000000000000000000000000000000000000000000000000000000000000000000000N 00000000000NCONT   00    00000000000          00000000000000000000000000000000000000000000 000000000000000A000000000000000000000000000000000000000000000 000000000000000000000000000000000000000     00000000                                                                                                                        000000000000000000
