F0010000005766800001000007069760600011050500000000000000000201405050002001JUAN PANESO                                       D000000005000000000000000000000000100010010000000000000000000000F0010000005766800120140505000101 00000000000000000000000000000000000000000000000000000000000000000000000000000000000000000000000000000000000000000N 00000000000NCONT   00    00000000000          00000000000000000000000000000000000000000000 000000000000000A000000000000000000000000000000000000000000000 000000000000000000000000000000000000000     00000000                                                                                                                        000000000000000000
F0010000005766800002000007069760600041450500000000000000000201405050002001JUAN PANESO                                       C000000004000000000000000000000000100010010000000000000000000000F0010000005766800220140505000101 00000000000000000000000000000000000000000000000000000000000000000000000000000000000000000000000000000000000000000N 00000000000NCONT   00    00000000000          00000000000000000000000000000000000000000000 000000000000000A000000000000000000000000000000000000000000000 000000000000000000000000000000000000000     00000000                                                                                                                        000000000000000000
F0010000005766800003000007069760600042505000000000000000000201405050002001JUAN PANESO                                       C000000001000000000000000000000000100010010000000000000000000000F0010000005766800320140505000101 00000000000000000000000000000000000000000000000000000000000000000000000000000000000000000000000000000000000000000N 00000000000NCONT   00    00000000000          00000000000000000000000000000000000000000000 000000000000000A000000000000000000000000000000000000000000000 000000000000000000000000000000000000000     00000000                                                                                                                        000000000000000000
F0010000005766800004000007069760600023658300000000000000000201405050002001JUAN PANESO                                       C000000000032000000000000000000000100010010000000000000000000000F0010000005766800420140505000101 00000000000000000000000000000000000000000000000000000000000000000000000000000000000000000000000000000000000000000N 00000000000NCONT   00    00000000000          00000000000000000000000000000000000000000000 000000000000000A000000000000000000000000000000000000000000000 000000000000000000000000000000000000000     00000000                                                                                                                        000000000000000000
F0010000005766800005000007069760600013552100000000000000000201405050002001JUAN PANESO                                       D000000000032000000000000000000000100010010000000000000000000000F0010000005766800520140505000101 00000000000000000000000000000000000000000000000000000000000000000000000000000000000000000000000000000000000000000N 00000000000NCONT   00    00000000000          00000000000000000000000000000000000000000000 000000000000000A000000000000000000000000000000000000000000000 000000000000000000000000000000000000000     00000000                                                                                                                        000000000000000000
F0010000005766900001000090063988900011050500000000000000000201405050002001ALUMINIOS Y VENTANAS DE LA COSTA S.A.S            D000000002500000000000000000000000100010010000000000000000000000F0010000005766900120140505000101 00000000000000000000000000000000000000000000000000000000000000000000000000000000000000000000000000000000000000000N 00000000000NCONT   00    00000000000          00000000000000000000000000000000000000000000 000000000000000A000000000000000000000000000000000000000000000 000000000000000000000000000000000000000     00000000                                                                                                                        000000000000000000
F0010000005766900002000090063988900041450500000000000000000201405050002001ALUMINIOS Y VENTANAS DE LA COSTA S.A.S            C000000002480000000000000000000000100010010000000000000000000000F0010000005766900220140505000101 00000000000000000000000000000000000000000000000000000000000000000000000000000000000000000000000000000000000000000N 00000000000NCONT   00    00000000000          00000000000000000000000000000000000000000000 000000000000000A000000000000000000000000000000000000000000000 000000000000000000000000000000000000000     00000000                                                                                                                        000000000000000000
F0010000005766900003000090063988900042505000000000000000000201405050002001ALUMINIOS Y VENTANAS DE LA COSTA S.A.S            C000000000020000000000000000000000100010010000000000000000000000F0010000005766900320140505000101 00000000000000000000000000000000000000000000000000000000000000000000000000000000000000000000000000000000000000000N 00000000000NCONT   00    00000000000          00000000000000000000000000000000000000000000 000000000000000A000000000000000000000000000000000000000000000 000000000000000000000000000000000000000     00000000                                                                                                                        000000000000000000
F0010000005766900004000090063988900023658300000000000000000201405050002001ALUMINIOS Y VENTANAS DE LA COSTA S.A.S            C000000000019800000000000000000000100010010000000000000000000000F0010000005766900420140505000101 00000000000000000000000000000000000000000000000000000000000000000000000000000000000000000000000000000000000000000N 00000000000NCONT   00    00000000000          00000000000000000000000000000000000000000000 000000000000000A000000000000000000000000000000000000000000000 000000000000000000000000000000000000000     00000000                                                                                                                        000000000000000000
F0010000005766900005000090063988900013552100000000000000000201405050002001ALUMINIOS Y VENTANAS DE LA COSTA S.A.S            D000000000019800000000000000000000100010010000000000000000000000F0010000005766900520140505000101 00000000000000000000000000000000000000000000000000000000000000000000000000000000000000000000000000000000000000000N 00000000000NCONT   00    00000000000          00000000000000000000000000000000000000000000 000000000000000A000000000000000000000000000000000000000000000 000000000000000000000000000000000000000     00000000                                                                                                                        000000000000000000
F0010000005767000001000004249706000011050500000000000000000201405050002001ANA MERCEDES GOMEZ ALCALA                         D000000001400000000000000000000000100010010000000000000000000000F0010000005767000120140505000101 00000000000000000000000000000000000000000000000000000000000000000000000000000000000000000000000000000000000000000N 00000000000NCONT   00    00000000000          00000000000000000000000000000000000000000000 000000000000000A000000000000000000000000000000000000000000000 000000000000000000000000000000000000000     00000000                                                                                                                        000000000000000000
F0010000005767000002000004249706000041450500000000000000000201405050002001ANA MERCEDES GOMEZ ALCALA                         C000000001300000000000000000000000100010010000000000000000000000F0010000005767000220140505000101 00000000000000000000000000000000000000000000000000000000000000000000000000000000000000000000000000000000000000000N 00000000000NCONT   00    00000000000          00000000000000000000000000000000000000000000 000000000000000A000000000000000000000000000000000000000000000 000000000000000000000000000000000000000     00000000                                                                                                                        000000000000000000
F0010000005767000003000004249706000042505000000000000000000201405050002001ANA MERCEDES GOMEZ ALCALA                         C000000000100000000000000000000000100010010000000000000000000000F0010000005767000320140505000101 00000000000000000000000000000000000000000000000000000000000000000000000000000000000000000000000000000000000000000N 00000000000NCONT   00    00000000000          00000000000000000000000000000000000000000000 000000000000000A000000000000000000000000000000000000000000000 000000000000000000000000000000000000000     00000000                                                                                                                        000000000000000000
F0010000005767000004000004249706000023658300000000000000000201405050002001ANA MERCEDES GOMEZ ALCALA                         C000000000010400000000000000000000100010010000000000000000000000F0010000005767000420140505000101 00000000000000000000000000000000000000000000000000000000000000000000000000000000000000000000000000000000000000000N 00000000000NCONT   00    00000000000          00000000000000000000000000000000000000000000 000000000000000A000000000000000000000000000000000000000000000 000000000000000000000000000000000000000     00000000                                                                                                                        000000000000000000
F0010000005767000005000004249706000013552100000000000000000201405050002001ANA MERCEDES GOMEZ ALCALA                         D000000000010400000000000000000000100010010000000000000000000000F0010000005767000520140505000101 00000000000000000000000000000000000000000000000000000000000000000000000000000000000000000000000000000000000000000N 00000000000NCONT   00    00000000000          00000000000000000000000000000000000000000000 000000000000000A000000000000000000000000000000000000000000000 000000000000000000000000000000000000000     00000000                                                                                                                        000000000000000000
F0010000005767100001000000747559300011050500000000000000000201405050002001RAFAEL SERRANO                                    D000000001400000000000000000000000100010010000000000000000000000F0010000005767100120140505000101 00000000000000000000000000000000000000000000000000000000000000000000000000000000000000000000000000000000000000000N 00000000000NCONT   00    00000000000          00000000000000000000000000000000000000000000 000000000000000A000000000000000000000000000000000000000000000 000000000000000000000000000000000000000     00000000                                                                                                                        000000000000000000
F0010000005767100002000000747559300041450500000000000000000201405050002001RAFAEL SERRANO                                    C000000001000000000000000000000000100010010000000000000000000000F0010000005767100220140505000101 00000000000000000000000000000000000000000000000000000000000000000000000000000000000000000000000000000000000000000N 00000000000NCONT   00    00000000000          00000000000000000000000000000000000000000000 000000000000000A000000000000000000000000000000000000000000000 000000000000000000000000000000000000000     00000000                                                                                                                        000000000000000000
F0010000005767100003000000747559300042505000000000000000000201405050002001RAFAEL SERRANO                                    C000000000400000000000000000000000100010010000000000000000000000F0010000005767100320140505000101 00000000000000000000000000000000000000000000000000000000000000000000000000000000000000000000000000000000000000000N 00000000000NCONT   00    00000000000          00000000000000000000000000000000000000000000 000000000000000A000000000000000000000000000000000000000000000 000000000000000000000000000000000000000     00000000                                                                                                                        000000000000000000
F0010000005767100004000000747559300023658300000000000000000201405050002001RAFAEL SERRANO                                    C000000000008000000000000000000000100010010000000000000000000000F0010000005767100420140505000101 00000000000000000000000000000000000000000000000000000000000000000000000000000000000000000000000000000000000000000N 00000000000NCONT   00    00000000000          00000000000000000000000000000000000000000000 000000000000000A000000000000000000000000000000000000000000000 000000000000000000000000000000000000000     00000000                                                                                                                        000000000000000000
F0010000005767100005000000747559300013552100000000000000000201405050002001RAFAEL SERRANO                                    D000000000008000000000000000000000100010010000000000000000000000F0010000005767100520140505000101 00000000000000000000000000000000000000000000000000000000000000000000000000000000000000000000000000000000000000000N 00000000000NCONT   00    00000000000          00000000000000000000000000000000000000000000 000000000000000A000000000000000000000000000000000000000000000 000000000000000000000000000000000000000     00000000                                                                                                                        000000000000000000
F0010000005767200001000090055180500011050500000000000000000201405050002001LAMINAS Y SUELAS DE COLOMBIA S.A.S                D000000001200000000000000000000000100010010000000000000000000000F0010000005767200120140505000101 00000000000000000000000000000000000000000000000000000000000000000000000000000000000000000000000000000000000000000N 00000000000NCONT   00    00000000000          00000000000000000000000000000000000000000000 000000000000000A000000000000000000000000000000000000000000000 000000000000000000000000000000000000000     00000000                                                                                                                        000000000000000000
F0010000005767200002000090055180500041450500000000000000000201405050002001LAMINAS Y SUELAS DE COLOMBIA S.A.S                C000000001000000000000000000000000100010010000000000000000000000F0010000005767200220140505000101 00000000000000000000000000000000000000000000000000000000000000000000000000000000000000000000000000000000000000000N 00000000000NCONT   00    00000000000          00000000000000000000000000000000000000000000 000000000000000A000000000000000000000000000000000000000000000 000000000000000000000000000000000000000     00000000                                                                                                                        000000000000000000
F0010000005767200003000090055180500042505000000000000000000201405050002001LAMINAS Y SUELAS DE COLOMBIA S.A.S                C000000000200000000000000000000000100010010000000000000000000000F0010000005767200320140505000101 00000000000000000000000000000000000000000000000000000000000000000000000000000000000000000000000000000000000000000N 00000000000NCONT   00    00000000000          00000000000000000000000000000000000000000000 000000000000000A000000000000000000000000000000000000000000000 000000000000000000000000000000000000000     00000000                                                                                                                        000000000000000000
F0010000005767200004000090055180500023658300000000000000000201405050002001LAMINAS Y SUELAS DE COLOMBIA S.A.S                C000000000008000000000000000000000100010010000000000000000000000F0010000005767200420140505000101 00000000000000000000000000000000000000000000000000000000000000000000000000000000000000000000000000000000000000000N 00000000000NCONT   00    00000000000          00000000000000000000000000000000000000000000 000000000000000A000000000000000000000000000000000000000000000 000000000000000000000000000000000000000     00000000                                                                                                                        000000000000000000
F0010000005767200005000090055180500013552100000000000000000201405050002001LAMINAS Y SUELAS DE COLOMBIA S.A.S                D000000000008000000000000000000000100010010000000000000000000000F0010000005767200520140505000101 00000000000000000000000000000000000000000000000000000000000000000000000000000000000000000000000000000000000000000N 00000000000NCONT   00    00000000000          00000000000000000000000000000000000000000000 000000000000000A000000000000000000000000000000000000000000000 000000000000000000000000000000000000000     00000000                                                                                                                        000000000000000000
F0010000005767300001000000870053600011050500000000000000000201405050002001FARID ARRIETA                                     D000000001400000000000000000000000100010010000000000000000000000F0010000005767300120140505000101 00000000000000000000000000000000000000000000000000000000000000000000000000000000000000000000000000000000000000000N 00000000000NCONT   00    00000000000          00000000000000000000000000000000000000000000 000000000000000A000000000000000000000000000000000000000000000 000000000000000000000000000000000000000     00000000                                                                                                                        000000000000000000
F0010000005767300002000000870053600041450500000000000000000201405050002001FARID ARRIETA                                     C000000001300000000000000000000000100010010000000000000000000000F0010000005767300220140505000101 00000000000000000000000000000000000000000000000000000000000000000000000000000000000000000000000000000000000000000N 00000000000NCONT   00    00000000000          00000000000000000000000000000000000000000000 000000000000000A000000000000000000000000000000000000000000000 000000000000000000000000000000000000000     00000000                                                                                                                        000000000000000000
F0010000005767300003000000870053600042505000000000000000000201405050002001FARID ARRIETA                                     C000000000100000000000000000000000100010010000000000000000000000F0010000005767300320140505000101 00000000000000000000000000000000000000000000000000000000000000000000000000000000000000000000000000000000000000000N 00000000000NCONT   00    00000000000          00000000000000000000000000000000000000000000 000000000000000A000000000000000000000000000000000000000000000 000000000000000000000000000000000000000     00000000                                                                                                                        000000000000000000
F0010000005767300004000000870053600023658300000000000000000201405050002001FARID ARRIETA                                     C000000000010400000000000000000000100010010000000000000000000000F0010000005767300420140505000101 00000000000000000000000000000000000000000000000000000000000000000000000000000000000000000000000000000000000000000N 00000000000NCONT   00    00000000000          00000000000000000000000000000000000000000000 000000000000000A000000000000000000000000000000000000000000000 000000000000000000000000000000000000000     00000000                                                                                                                        000000000000000000
F0010000005767300005000000870053600013552100000000000000000201405050002001FARID ARRIETA                                     D000000000010400000000000000000000100010010000000000000000000000F0010000005767300520140505000101 00000000000000000000000000000000000000000000000000000000000000000000000000000000000000000000000000000000000000000N 00000000000NCONT   00    00000000000          00000000000000000000000000000000000000000000 000000000000000A000000000000000000000000000000000000000000000 000000000000000000000000000000000000000     00000000                                                                                                                        000000000000000000
F0010000005767400001000004544401900011050500000000000000000201405050002001FISIOTER                                          D000000001200000000000000000000000100010010000000000000000000000F0010000005767400120140505000101 00000000000000000000000000000000000000000000000000000000000000000000000000000000000000000000000000000000000000000N 00000000000NCONT   00    00000000000          00000000000000000000000000000000000000000000 000000000000000A000000000000000000000000000000000000000000000 000000000000000000000000000000000000000     00000000                                                                                                                        000000000000000000
F0010000005767400002000004544401900041450500000000000000000201405050002001FISIOTER                                          C000000001000000000000000000000000100010010000000000000000000000F0010000005767400220140505000101 00000000000000000000000000000000000000000000000000000000000000000000000000000000000000000000000000000000000000000N 00000000000NCONT   00    00000000000          00000000000000000000000000000000000000000000 000000000000000A000000000000000000000000000000000000000000000 000000000000000000000000000000000000000     00000000                                                                                                                        000000000000000000
F0010000005767400003000004544401900042505000000000000000000201405050002001FISIOTER                                          C000000000200000000000000000000000100010010000000000000000000000F0010000005767400320140505000101 00000000000000000000000000000000000000000000000000000000000000000000000000000000000000000000000000000000000000000N 00000000000NCONT   00    00000000000          00000000000000000000000000000000000000000000 000000000000000A000000000000000000000000000000000000000000000 000000000000000000000000000000000000000     00000000                                                                                                                        000000000000000000
F0010000005767400004000004544401900023658300000000000000000201405050002001FISIOTER                                          C000000000008000000000000000000000100010010000000000000000000000F0010000005767400420140505000101 00000000000000000000000000000000000000000000000000000000000000000000000000000000000000000000000000000000000000000N 00000000000NCONT   00    00000000000          00000000000000000000000000000000000000000000 000000000000000A000000000000000000000000000000000000000000000 000000000000000000000000000000000000000     00000000                                                                                                                        000000000000000000
F0010000005767400005000004544401900013552100000000000000000201405050002001FISIOTER                                          D000000000008000000000000000000000100010010000000000000000000000F0010000005767400520140505000101 00000000000000000000000000000000000000000000000000000000000000000000000000000000000000000000000000000000000000000N 00000000000NCONT   00    00000000000          00000000000000000000000000000000000000000000 000000000000000A000000000000000000000000000000000000000000000 000000000000000000000000000000000000000     00000000                                                                                                                        000000000000000000
F0010000005767500001000001022529300011050500000000000000000201405050002001ALBERTO ALVAREZ ISAZA                             D000000000850000000000000000000000100010010000000000000000000000F0010000005767500120140505000101 00000000000000000000000000000000000000000000000000000000000000000000000000000000000000000000000000000000000000000N 00000000000NCONT   00    00000000000          00000000000000000000000000000000000000000000 000000000000000A000000000000000000000000000000000000000000000 000000000000000000000000000000000000000     00000000                                                                                                                        000000000000000000
F0010000005767500002000001022529300041450500000000000000000201405050002001ALBERTO ALVAREZ ISAZA                             C000000000800000000000000000000000100010010000000000000000000000F0010000005767500220140505000101 00000000000000000000000000000000000000000000000000000000000000000000000000000000000000000000000000000000000000000N 00000000000NCONT   00    00000000000          00000000000000000000000000000000000000000000 000000000000000A000000000000000000000000000000000000000000000 000000000000000000000000000000000000000     00000000                                                                                                                        000000000000000000
F0010000005767500003000001022529300042505000000000000000000201405050002001ALBERTO ALVAREZ ISAZA                             C000000000050000000000000000000000100010010000000000000000000000F0010000005767500320140505000101 00000000000000000000000000000000000000000000000000000000000000000000000000000000000000000000000000000000000000000N 00000000000NCONT   00    00000000000          00000000000000000000000000000000000000000000 000000000000000A000000000000000000000000000000000000000000000 000000000000000000000000000000000000000     00000000                                                                                                                        000000000000000000
F0010000005767500004000001022529300023658300000000000000000201405050002001ALBERTO ALVAREZ ISAZA                             C000000000006400000000000000000000100010010000000000000000000000F0010000005767500420140505000101 00000000000000000000000000000000000000000000000000000000000000000000000000000000000000000000000000000000000000000N 00000000000NCONT   00    00000000000          00000000000000000000000000000000000000000000 000000000000000A000000000000000000000000000000000000000000000 000000000000000000000000000000000000000     00000000                                                                                                                        000000000000000000
F0010000005767500005000001022529300013552100000000000000000201405050002001ALBERTO ALVAREZ ISAZA                             D000000000006400000000000000000000100010010000000000000000000000F0010000005767500520140505000101 00000000000000000000000000000000000000000000000000000000000000000000000000000000000000000000000000000000000000000N 00000000000NCONT   00    00000000000          00000000000000000000000000000000000000000000 000000000000000A000000000000000000000000000000000000000000000 000000000000000000000000000000000000000     00000000                                                                                                                        000000000000000000
F0010000005767600001000001022529300011050500000000000000000201405050002001ALBERTO ALVAREZ ISAZA                             D000000000700000000000000000000000100010010000000000000000000000F0010000005767600120140505000101 00000000000000000000000000000000000000000000000000000000000000000000000000000000000000000000000000000000000000000N 00000000000NCONT   00    00000000000          00000000000000000000000000000000000000000000 000000000000000A000000000000000000000000000000000000000000000 000000000000000000000000000000000000000     00000000                                                                                                                        000000000000000000
F0010000005767600002000001022529300041450500000000000000000201405050002001ALBERTO ALVAREZ ISAZA                             C000000000600000000000000000000000100010010000000000000000000000F0010000005767600220140505000101 00000000000000000000000000000000000000000000000000000000000000000000000000000000000000000000000000000000000000000N 00000000000NCONT   00    00000000000          00000000000000000000000000000000000000000000 000000000000000A000000000000000000000000000000000000000000000 000000000000000000000000000000000000000     00000000                                                                                                                        000000000000000000
F0010000005767600003000001022529300042505000000000000000000201405050002001ALBERTO ALVAREZ ISAZA                             C000000000100000000000000000000000100010010000000000000000000000F0010000005767600320140505000101 00000000000000000000000000000000000000000000000000000000000000000000000000000000000000000000000000000000000000000N 00000000000NCONT   00    00000000000          00000000000000000000000000000000000000000000 000000000000000A000000000000000000000000000000000000000000000 000000000000000000000000000000000000000     00000000                                                                                                                        000000000000000000
F0010000005767600004000001022529300023658300000000000000000201405050002001ALBERTO ALVAREZ ISAZA                             C000000000004800000000000000000000100010010000000000000000000000F0010000005767600420140505000101 00000000000000000000000000000000000000000000000000000000000000000000000000000000000000000000000000000000000000000N 00000000000NCONT   00    00000000000          00000000000000000000000000000000000000000000 000000000000000A000000000000000000000000000000000000000000000 000000000000000000000000000000000000000     00000000                                                                                                                        000000000000000000
F0010000005767600005000001022529300013552100000000000000000201405050002001ALBERTO ALVAREZ ISAZA                             D000000000004800000000000000000000100010010000000000000000000000F0010000005767600520140505000101 00000000000000000000000000000000000000000000000000000000000000000000000000000000000000000000000000000000000000000N 00000000000NCONT   00    00000000000          00000000000000000000000000000000000000000000 000000000000000A000000000000000000000000000000000000000000000 000000000000000000000000000000000000000     00000000                                                                                                                        000000000000000000
F0010000005767700001000000856905200011050500000000000000000201405050002001SUELAS Y MATERIALES BARRANQUILL                   D000000005100000000000000000000000100010010000000000000000000000F0010000005767700120140505000101 00000000000000000000000000000000000000000000000000000000000000000000000000000000000000000000000000000000000000000N 00000000000NCONT   00    00000000000          00000000000000000000000000000000000000000000 000000000000000A000000000000000000000000000000000000000000000 000000000000000000000000000000000000000     00000000                                                                                                                        000000000000000000
F0010000005767700002000000856905200041450500000000000000000201405050002001SUELAS Y MATERIALES BARRANQUILL                   C000000004800000000000000000000000100010010000000000000000000000F0010000005767700220140505000101 00000000000000000000000000000000000000000000000000000000000000000000000000000000000000000000000000000000000000000N 00000000000NCONT   00    00000000000          00000000000000000000000000000000000000000000 000000000000000A000000000000000000000000000000000000000000000 000000000000000000000000000000000000000     00000000                                                                                                                        000000000000000000
F0010000005767700003000000856905200042505000000000000000000201405050002001SUELAS Y MATERIALES BARRANQUILL                   C000000000300000000000000000000000100010010000000000000000000000F0010000005767700320140505000101 00000000000000000000000000000000000000000000000000000000000000000000000000000000000000000000000000000000000000000N 00000000000NCONT   00    00000000000          00000000000000000000000000000000000000000000 000000000000000A000000000000000000000000000000000000000000000 000000000000000000000000000000000000000     00000000                                                                                                                        000000000000000000
F0010000005767700004000000856905200023658300000000000000000201405050002001SUELAS Y MATERIALES BARRANQUILL                   C000000000038400000000000000000000100010010000000000000000000000F0010000005767700420140505000101 00000000000000000000000000000000000000000000000000000000000000000000000000000000000000000000000000000000000000000N 00000000000NCONT   00    00000000000          00000000000000000000000000000000000000000000 000000000000000A000000000000000000000000000000000000000000000 000000000000000000000000000000000000000     00000000                                                                                                                        000000000000000000
F0010000005767700005000000856905200013552100000000000000000201405050002001SUELAS Y MATERIALES BARRANQUILL                   D000000000038400000000000000000000100010010000000000000000000000F0010000005767700520140505000101 00000000000000000000000000000000000000000000000000000000000000000000000000000000000000000000000000000000000000000N 00000000000NCONT   00    00000000000          00000000000000000000000000000000000000000000 000000000000000A000000000000000000000000000000000000000000000 000000000000000000000000000000000000000     00000000                                                                                                                        000000000000000000
F0010000005767800001000001719393900011050500000000000000000201405050002001JAIRO BASTIDAS RAMIREZ                            D000000001600000000000000000000000100010010000000000000000000000F0010000005767800120140505000101 00000000000000000000000000000000000000000000000000000000000000000000000000000000000000000000000000000000000000000N 00000000000NCONT   00    00000000000          00000000000000000000000000000000000000000000 000000000000000A000000000000000000000000000000000000000000000 000000000000000000000000000000000000000     00000000                                                                                                                        000000000000000000
F0010000005767800002000001719393900041450500000000000000000201405050002001JAIRO BASTIDAS RAMIREZ                            C000000001300000000000000000000000100010010000000000000000000000F0010000005767800220140505000101 00000000000000000000000000000000000000000000000000000000000000000000000000000000000000000000000000000000000000000N 00000000000NCONT   00    00000000000          00000000000000000000000000000000000000000000 000000000000000A000000000000000000000000000000000000000000000 000000000000000000000000000000000000000     00000000                                                                                                                        000000000000000000
F0010000005767800003000001719393900042505000000000000000000201405050002001JAIRO BASTIDAS RAMIREZ                            C000000000300000000000000000000000100010010000000000000000000000F0010000005767800320140505000101 00000000000000000000000000000000000000000000000000000000000000000000000000000000000000000000000000000000000000000N 00000000000NCONT   00    00000000000          00000000000000000000000000000000000000000000 000000000000000A000000000000000000000000000000000000000000000 000000000000000000000000000000000000000     00000000                                                                                                                        000000000000000000
F0010000005767800004000001719393900023658300000000000000000201405050002001JAIRO BASTIDAS RAMIREZ                            C000000000010400000000000000000000100010010000000000000000000000F0010000005767800420140505000101 00000000000000000000000000000000000000000000000000000000000000000000000000000000000000000000000000000000000000000N 00000000000NCONT   00    00000000000          00000000000000000000000000000000000000000000 000000000000000A000000000000000000000000000000000000000000000 000000000000000000000000000000000000000     00000000                                                                                                                        000000000000000000
F0010000005767800005000001719393900013552100000000000000000201405050002001JAIRO BASTIDAS RAMIREZ                            D000000000010400000000000000000000100010010000000000000000000000F0010000005767800520140505000101 00000000000000000000000000000000000000000000000000000000000000000000000000000000000000000000000000000000000000000N 00000000000NCONT   00    00000000000          00000000000000000000000000000000000000000000 000000000000000A000000000000000000000000000000000000000000000 000000000000000000000000000000000000000     00000000                                                                                                                        000000000000000000
F0010000005767900001000001719393900011050500000000000000000201405050002001JAIRO BASTIDAS RAMIREZ                            D000000001500000000000000000000000100010010000000000000000000000F0010000005767900120140505000101 00000000000000000000000000000000000000000000000000000000000000000000000000000000000000000000000000000000000000000N 00000000000NCONT   00    00000000000          00000000000000000000000000000000000000000000 000000000000000A000000000000000000000000000000000000000000000 000000000000000000000000000000000000000     00000000                                                                                                                        000000000000000000
F0010000005767900002000001719393900041450500000000000000000201405050002001JAIRO BASTIDAS RAMIREZ                            C000000001300000000000000000000000100010010000000000000000000000F0010000005767900220140505000101 00000000000000000000000000000000000000000000000000000000000000000000000000000000000000000000000000000000000000000N 00000000000NCONT   00    00000000000          00000000000000000000000000000000000000000000 000000000000000A000000000000000000000000000000000000000000000 000000000000000000000000000000000000000     00000000                                                                                                                        000000000000000000
F0010000005767900003000001719393900042505000000000000000000201405050002001JAIRO BASTIDAS RAMIREZ                            C000000000200000000000000000000000100010010000000000000000000000F0010000005767900320140505000101 00000000000000000000000000000000000000000000000000000000000000000000000000000000000000000000000000000000000000000N 00000000000NCONT   00    00000000000          00000000000000000000000000000000000000000000 000000000000000A000000000000000000000000000000000000000000000 000000000000000000000000000000000000000     00000000                                                                                                                        000000000000000000
F0010000005767900004000001719393900023658300000000000000000201405050002001JAIRO BASTIDAS RAMIREZ                            C000000000010400000000000000000000100010010000000000000000000000F0010000005767900420140505000101 00000000000000000000000000000000000000000000000000000000000000000000000000000000000000000000000000000000000000000N 00000000000NCONT   00    00000000000          00000000000000000000000000000000000000000000 000000000000000A000000000000000000000000000000000000000000000 000000000000000000000000000000000000000     00000000                                                                                                                        000000000000000000
F0010000005767900005000001719393900013552100000000000000000201405050002001JAIRO BASTIDAS RAMIREZ                            D000000000010400000000000000000000100010010000000000000000000000F0010000005767900520140505000101 00000000000000000000000000000000000000000000000000000000000000000000000000000000000000000000000000000000000000000N 00000000000NCONT   00    00000000000          00000000000000000000000000000000000000000000 000000000000000A000000000000000000000000000000000000000000000 000000000000000000000000000000000000000     00000000                                                                                                                        000000000000000000
F0010000005768000001000001719393900011050500000000000000000201405050002001JAIRO BASTIDAS RAMIREZ                            D000000001500000000000000000000000100010010000000000000000000000F0010000005768000120140505000101 00000000000000000000000000000000000000000000000000000000000000000000000000000000000000000000000000000000000000000N 00000000000NCONT   00    00000000000          00000000000000000000000000000000000000000000 000000000000000A000000000000000000000000000000000000000000000 000000000000000000000000000000000000000     00000000                                                                                                                        000000000000000000
F0010000005768000002000001719393900041450500000000000000000201405050002001JAIRO BASTIDAS RAMIREZ                            C000000001300000000000000000000000100010010000000000000000000000F0010000005768000220140505000101 00000000000000000000000000000000000000000000000000000000000000000000000000000000000000000000000000000000000000000N 00000000000NCONT   00    00000000000          00000000000000000000000000000000000000000000 000000000000000A000000000000000000000000000000000000000000000 000000000000000000000000000000000000000     00000000                                                                                                                        000000000000000000
F0010000005768000003000001719393900042505000000000000000000201405050002001JAIRO BASTIDAS RAMIREZ                            C000000000200000000000000000000000100010010000000000000000000000F0010000005768000320140505000101 00000000000000000000000000000000000000000000000000000000000000000000000000000000000000000000000000000000000000000N 00000000000NCONT   00    00000000000          00000000000000000000000000000000000000000000 000000000000000A000000000000000000000000000000000000000000000 000000000000000000000000000000000000000     00000000                                                                                                                        000000000000000000
F0010000005768000004000001719393900023658300000000000000000201405050002001JAIRO BASTIDAS RAMIREZ                            C000000000010400000000000000000000100010010000000000000000000000F0010000005768000420140505000101 00000000000000000000000000000000000000000000000000000000000000000000000000000000000000000000000000000000000000000N 00000000000NCONT   00    00000000000          00000000000000000000000000000000000000000000 000000000000000A000000000000000000000000000000000000000000000 000000000000000000000000000000000000000     00000000                                                                                                                        000000000000000000
F0010000005768000005000001719393900013552100000000000000000201405050002001JAIRO BASTIDAS RAMIREZ                            D000000000010400000000000000000000100010010000000000000000000000F0010000005768000520140505000101 00000000000000000000000000000000000000000000000000000000000000000000000000000000000000000000000000000000000000000N 00000000000NCONT   00    00000000000          00000000000000000000000000000000000000000000 000000000000000A000000000000000000000000000000000000000000000 000000000000000000000000000000000000000     00000000                                                                                                                        000000000000000000
F0010000005768100001000080200594400011050500000000000000000201405050002001NOVEDADES JOTA JOTA                               D000000004600000000000000000000000100010010000000000000000000000F0010000005768100120140505000101 00000000000000000000000000000000000000000000000000000000000000000000000000000000000000000000000000000000000000000N 00000000000NCONT   00    00000000000          00000000000000000000000000000000000000000000 000000000000000A000000000000000000000000000000000000000000000 000000000000000000000000000000000000000     00000000                                                                                                                        000000000000000000
F0010000005768100002000080200594400041450500000000000000000201405050002001NOVEDADES JOTA JOTA                               C000000001000000000000000000000000100010010000000000000000000000F0010000005768100220140505000101 00000000000000000000000000000000000000000000000000000000000000000000000000000000000000000000000000000000000000000N 00000000000NCONT   00    00000000000          00000000000000000000000000000000000000000000 000000000000000A000000000000000000000000000000000000000000000 000000000000000000000000000000000000000     00000000                                                                                                                        000000000000000000
F0010000005768100003000080200594400042505000000000000000000201405050002001NOVEDADES JOTA JOTA                               C000000003600000000000000000000000100010010000000000000000000000F0010000005768100320140505000101 00000000000000000000000000000000000000000000000000000000000000000000000000000000000000000000000000000000000000000N 00000000000NCONT   00    00000000000          00000000000000000000000000000000000000000000 000000000000000A000000000000000000000000000000000000000000000 000000000000000000000000000000000000000     00000000                                                                                                                        000000000000000000
F0010000005768100004000080200594400023658300000000000000000201405050002001NOVEDADES JOTA JOTA                               C000000000008000000000000000000000100010010000000000000000000000F0010000005768100420140505000101 00000000000000000000000000000000000000000000000000000000000000000000000000000000000000000000000000000000000000000N 00000000000NCONT   00    00000000000          00000000000000000000000000000000000000000000 000000000000000A000000000000000000000000000000000000000000000 000000000000000000000000000000000000000     00000000                                                                                                                        000000000000000000
F0010000005768100005000080200594400013552100000000000000000201405050002001NOVEDADES JOTA JOTA                               D000000000008000000000000000000000100010010000000000000000000000F0010000005768100520140505000101 00000000000000000000000000000000000000000000000000000000000000000000000000000000000000000000000000000000000000000N 00000000000NCONT   00    00000000000          00000000000000000000000000000000000000000000 000000000000000A000000000000000000000000000000000000000000000 000000000000000000000000000000000000000     00000000                                                                                                                        000000000000000000
F0010000005768200001000080202350700011050500000000000000000201405050002001CONNY DE LA COSTA SAS                             D000000001100000000000000000000000100010010000000000000000000000F0010000005768200120140505000101 00000000000000000000000000000000000000000000000000000000000000000000000000000000000000000000000000000000000000000N 00000000000NCONT   00    00000000000          00000000000000000000000000000000000000000000 000000000000000A000000000000000000000000000000000000000000000 000000000000000000000000000000000000000     00000000                                                                                                                        000000000000000000
F0010000005768200002000080202350700041450500000000000000000201405050002001CONNY DE LA COSTA SAS                             C000000000900000000000000000000000100010010000000000000000000000F0010000005768200220140505000101 00000000000000000000000000000000000000000000000000000000000000000000000000000000000000000000000000000000000000000N 00000000000NCONT   00    00000000000          00000000000000000000000000000000000000000000 000000000000000A000000000000000000000000000000000000000000000 000000000000000000000000000000000000000     00000000                                                                                                                        000000000000000000
F0010000005768200003000080202350700042505000000000000000000201405050002001CONNY DE LA COSTA SAS                             C000000000200000000000000000000000100010010000000000000000000000F0010000005768200320140505000101 00000000000000000000000000000000000000000000000000000000000000000000000000000000000000000000000000000000000000000N 00000000000NCONT   00    00000000000          00000000000000000000000000000000000000000000 000000000000000A000000000000000000000000000000000000000000000 000000000000000000000000000000000000000     00000000                                                                                                                        000000000000000000
F0010000005768200004000080202350700023658300000000000000000201405050002001CONNY DE LA COSTA SAS                             C000000000007200000000000000000000100010010000000000000000000000F0010000005768200420140505000101 00000000000000000000000000000000000000000000000000000000000000000000000000000000000000000000000000000000000000000N 00000000000NCONT   00    00000000000          00000000000000000000000000000000000000000000 000000000000000A000000000000000000000000000000000000000000000 000000000000000000000000000000000000000     00000000                                                                                                                        000000000000000000
F0010000005768200005000080202350700013552100000000000000000201405050002001CONNY DE LA COSTA SAS                             D000000000007200000000000000000000100010010000000000000000000000F0010000005768200520140505000101 00000000000000000000000000000000000000000000000000000000000000000000000000000000000000000000000000000000000000000N 00000000000NCONT   00    00000000000          00000000000000000000000000000000000000000000 000000000000000A000000000000000000000000000000000000000000000 000000000000000000000000000000000000000     00000000                                                                                                                        000000000000000000
F0010000005768300001000000866840800011050500000000000000000201405050002001CACHARRERIA MARTIN                                D000000003200000000000000000000000100010010000000000000000000000F0010000005768300120140505000101 00000000000000000000000000000000000000000000000000000000000000000000000000000000000000000000000000000000000000000N 00000000000NCONT   00    00000000000          00000000000000000000000000000000000000000000 000000000000000A000000000000000000000000000000000000000000000 000000000000000000000000000000000000000     00000000                                                                                                                        000000000000000000
F0010000005768300002000000866840800041450500000000000000000201405050002001CACHARRERIA MARTIN                                C000000002600000000000000000000000100010010000000000000000000000F0010000005768300220140505000101 00000000000000000000000000000000000000000000000000000000000000000000000000000000000000000000000000000000000000000N 00000000000NCONT   00    00000000000          00000000000000000000000000000000000000000000 000000000000000A000000000000000000000000000000000000000000000 000000000000000000000000000000000000000     00000000                                                                                                                        000000000000000000
F0010000005768300003000000866840800042505000000000000000000201405050002001CACHARRERIA MARTIN                                C000000000600000000000000000000000100010010000000000000000000000F0010000005768300320140505000101 00000000000000000000000000000000000000000000000000000000000000000000000000000000000000000000000000000000000000000N 00000000000NCONT   00    00000000000          00000000000000000000000000000000000000000000 000000000000000A000000000000000000000000000000000000000000000 000000000000000000000000000000000000000     00000000                                                                                                                        000000000000000000
F0010000005768300004000000866840800023658300000000000000000201405050002001CACHARRERIA MARTIN                                C000000000020800000000000000000000100010010000000000000000000000F0010000005768300420140505000101 00000000000000000000000000000000000000000000000000000000000000000000000000000000000000000000000000000000000000000N 00000000000NCONT   00    00000000000          00000000000000000000000000000000000000000000 000000000000000A000000000000000000000000000000000000000000000 000000000000000000000000000000000000000     00000000                                                                                                                        000000000000000000
F0010000005768300005000000866840800013552100000000000000000201405050002001CACHARRERIA MARTIN                                D000000000020800000000000000000000100010010000000000000000000000F0010000005768300520140505000101 00000000000000000000000000000000000000000000000000000000000000000000000000000000000000000000000000000000000000000N 00000000000NCONT   00    00000000000          00000000000000000000000000000000000000000000 000000000000000A000000000000000000000000000000000000000000000 000000000000000000000000000000000000000     00000000                                                                                                                        000000000000000000
F0010000005768400001000090047878200011050500000000000000000201405050002001GRUMAD SAS                                        D000000010400000000000000000000000100010010000000000000000000000F0010000005768400120140505000101 00000000000000000000000000000000000000000000000000000000000000000000000000000000000000000000000000000000000000000N 00000000000NCONT   00    00000000000          00000000000000000000000000000000000000000000 000000000000000A000000000000000000000000000000000000000000000 000000000000000000000000000000000000000     00000000                                                                                                                        000000000000000000
F0010000005768400002000090047878200041450500000000000000000201405050002001GRUMAD SAS                                        C000000009000000000000000000000000100010010000000000000000000000F0010000005768400220140505000101 00000000000000000000000000000000000000000000000000000000000000000000000000000000000000000000000000000000000000000N 00000000000NCONT   00    00000000000          00000000000000000000000000000000000000000000 000000000000000A000000000000000000000000000000000000000000000 000000000000000000000000000000000000000     00000000                                                                                                                        000000000000000000
F0010000005768400003000090047878200042505000000000000000000201405050002001GRUMAD SAS                                        C000000001400000000000000000000000100010010000000000000000000000F0010000005768400320140505000101 00000000000000000000000000000000000000000000000000000000000000000000000000000000000000000000000000000000000000000N 00000000000NCONT   00    00000000000          00000000000000000000000000000000000000000000 000000000000000A000000000000000000000000000000000000000000000 000000000000000000000000000000000000000     00000000                                                                                                                        000000000000000000
F0010000005768400004000090047878200023658300000000000000000201405050002001GRUMAD SAS                                        C000000000072000000000000000000000100010010000000000000000000000F0010000005768400420140505000101 00000000000000000000000000000000000000000000000000000000000000000000000000000000000000000000000000000000000000000N 00000000000NCONT   00    00000000000          00000000000000000000000000000000000000000000 000000000000000A000000000000000000000000000000000000000000000 000000000000000000000000000000000000000     00000000                                                                                                                        000000000000000000
F0010000005768400005000090047878200013552100000000000000000201405050002001GRUMAD SAS                                        D000000000072000000000000000000000100010010000000000000000000000F0010000005768400520140505000101 00000000000000000000000000000000000000000000000000000000000000000000000000000000000000000000000000000000000000000N 00000000000NCONT   00    00000000000          00000000000000000000000000000000000000000000 000000000000000A000000000000000000000000000000000000000000000 000000000000000000000000000000000000000     00000000                                                                                                                        000000000000000000
F0010000005768500001000000870907300011050500000000000000000201405050002001SURTIDOR FERRETERO                                D000000001400000000000000000000000100010010000000000000000000000F0010000005768500120140505000101 00000000000000000000000000000000000000000000000000000000000000000000000000000000000000000000000000000000000000000N 00000000000NCONT   00    00000000000          00000000000000000000000000000000000000000000 000000000000000A000000000000000000000000000000000000000000000 000000000000000000000000000000000000000     00000000                                                                                                                        000000000000000000
F0010000005768500002000000870907300041450500000000000000000201405050002001SURTIDOR FERRETERO                                C000000000700000000000000000000000100010010000000000000000000000F0010000005768500220140505000101 00000000000000000000000000000000000000000000000000000000000000000000000000000000000000000000000000000000000000000N 00000000000NCONT   00    00000000000          00000000000000000000000000000000000000000000 000000000000000A000000000000000000000000000000000000000000000 000000000000000000000000000000000000000     00000000                                                                                                                        000000000000000000
F0010000005768500003000000870907300042505000000000000000000201405050002001SURTIDOR FERRETERO                                C000000000700000000000000000000000100010010000000000000000000000F0010000005768500320140505000101 00000000000000000000000000000000000000000000000000000000000000000000000000000000000000000000000000000000000000000N 00000000000NCONT   00    00000000000          00000000000000000000000000000000000000000000 000000000000000A000000000000000000000000000000000000000000000 000000000000000000000000000000000000000     00000000                                                                                                                        000000000000000000
F0010000005768500004000000870907300023658300000000000000000201405050002001SURTIDOR FERRETERO                                C000000000005600000000000000000000100010010000000000000000000000F0010000005768500420140505000101 00000000000000000000000000000000000000000000000000000000000000000000000000000000000000000000000000000000000000000N 00000000000NCONT   00    00000000000          00000000000000000000000000000000000000000000 000000000000000A000000000000000000000000000000000000000000000 000000000000000000000000000000000000000     00000000                                                                                                                        000000000000000000
F0010000005768500005000000870907300013552100000000000000000201405050002001SURTIDOR FERRETERO                                D000000000005600000000000000000000100010010000000000000000000000F0010000005768500520140505000101 00000000000000000000000000000000000000000000000000000000000000000000000000000000000000000000000000000000000000000N 00000000000NCONT   00    00000000000          00000000000000000000000000000000000000000000 000000000000000A000000000000000000000000000000000000000000000 000000000000000000000000000000000000000     00000000                                                                                                                        000000000000000000
F0010000005768600001000000870907300011050500000000000000000201405050002001SURTIDOR FERRETERO                                D000000002700000000000000000000000100010010000000000000000000000F0010000005768600120140505000101 00000000000000000000000000000000000000000000000000000000000000000000000000000000000000000000000000000000000000000N 00000000000NCONT   00    00000000000          00000000000000000000000000000000000000000000 000000000000000A000000000000000000000000000000000000000000000 000000000000000000000000000000000000000     00000000                                                                                                                        000000000000000000
F0010000005768600002000000870907300041450500000000000000000201405050002001SURTIDOR FERRETERO                                C000000001400000000000000000000000100010010000000000000000000000F0010000005768600220140505000101 00000000000000000000000000000000000000000000000000000000000000000000000000000000000000000000000000000000000000000N 00000000000NCONT   00    00000000000          00000000000000000000000000000000000000000000 000000000000000A000000000000000000000000000000000000000000000 000000000000000000000000000000000000000     00000000                                                                                                                        000000000000000000
F0010000005768600003000000870907300042505000000000000000000201405050002001SURTIDOR FERRETERO                                C000000001300000000000000000000000100010010000000000000000000000F0010000005768600320140505000101 00000000000000000000000000000000000000000000000000000000000000000000000000000000000000000000000000000000000000000N 00000000000NCONT   00    00000000000          00000000000000000000000000000000000000000000 000000000000000A000000000000000000000000000000000000000000000 000000000000000000000000000000000000000     00000000                                                                                                                        000000000000000000
F0010000005768600004000000870907300023658300000000000000000201405050002001SURTIDOR FERRETERO                                C000000000011200000000000000000000100010010000000000000000000000F0010000005768600420140505000101 00000000000000000000000000000000000000000000000000000000000000000000000000000000000000000000000000000000000000000N 00000000000NCONT   00    00000000000          00000000000000000000000000000000000000000000 000000000000000A000000000000000000000000000000000000000000000 000000000000000000000000000000000000000     00000000                                                                                                                        000000000000000000
F0010000005768600005000000870907300013552100000000000000000201405050002001SURTIDOR FERRETERO                                D000000000011200000000000000000000100010010000000000000000000000F0010000005768600520140505000101 00000000000000000000000000000000000000000000000000000000000000000000000000000000000000000000000000000000000000000N 00000000000NCONT   00    00000000000          00000000000000000000000000000000000000000000 000000000000000A000000000000000000000000000000000000000000000 000000000000000000000000000000000000000     00000000                                                                                                                        000000000000000000
F0010000005768700001000104242602200011050500000000000000000201405050002001ALUMINIOS LA 60                                   D000000025990000000000000000000000100010010000000000000000000000F0010000005768700120140505000101 00000000000000000000000000000000000000000000000000000000000000000000000000000000000000000000000000000000000000000N 00000000000NCONT   00    00000000000          00000000000000000000000000000000000000000000 000000000000000A000000000000000000000000000000000000000000000 000000000000000000000000000000000000000     00000000                                                                                                                        000000000000000000
F0010000005768700002000104242602200041450500000000000000000201405050002001ALUMINIOS LA 60                                   C000000022990000000000000000000000100010010000000000000000000000F0010000005768700220140505000101 00000000000000000000000000000000000000000000000000000000000000000000000000000000000000000000000000000000000000000N 00000000000NCONT   00    00000000000          00000000000000000000000000000000000000000000 000000000000000A000000000000000000000000000000000000000000000 000000000000000000000000000000000000000     00000000                                                                                                                        000000000000000000
F0010000005768700003000104242602200042505000000000000000000201405050002001ALUMINIOS LA 60                                   C000000003000000000000000000000000100010010000000000000000000000F0010000005768700320140505000101 00000000000000000000000000000000000000000000000000000000000000000000000000000000000000000000000000000000000000000N 00000000000NCONT   00    00000000000          00000000000000000000000000000000000000000000 000000000000000A000000000000000000000000000000000000000000000 000000000000000000000000000000000000000     00000000                                                                                                                        000000000000000000
F0010000005768700004000104242602200023658300000000000000000201405050002001ALUMINIOS LA 60                                   C000000000183900000000000000000000100010010000000000000000000000F0010000005768700420140505000101 00000000000000000000000000000000000000000000000000000000000000000000000000000000000000000000000000000000000000000N 00000000000NCONT   00    00000000000          00000000000000000000000000000000000000000000 000000000000000A000000000000000000000000000000000000000000000 000000000000000000000000000000000000000     00000000                                                                                                                        000000000000000000
F0010000005768700005000104242602200013552100000000000000000201405050002001ALUMINIOS LA 60                                   D000000000183900000000000000000000100010010000000000000000000000F0010000005768700520140505000101 00000000000000000000000000000000000000000000000000000000000000000000000000000000000000000000000000000000000000000N 00000000000NCONT   00    00000000000          00000000000000000000000000000000000000000000 000000000000000A000000000000000000000000000000000000000000000 000000000000000000000000000000000000000     00000000                                                                                                                        000000000000000000
F0010000005768800001000090040632600011050500000000000000000201405050002001INDUSTRIAS FLOREZ TAIBEL SAS                      D000000001050000000000000000000000100010010000000000000000000000F0010000005768800120140505000101 00000000000000000000000000000000000000000000000000000000000000000000000000000000000000000000000000000000000000000N 00000000000NCONT   00    00000000000          00000000000000000000000000000000000000000000 000000000000000A000000000000000000000000000000000000000000000 000000000000000000000000000000000000000     00000000                                                                                                                        000000000000000000
F0010000005768800002000090040632600041450500000000000000000201405050002001INDUSTRIAS FLOREZ TAIBEL SAS                      C000000000900000000000000000000000100010010000000000000000000000F0010000005768800220140505000101 00000000000000000000000000000000000000000000000000000000000000000000000000000000000000000000000000000000000000000N 00000000000NCONT   00    00000000000          00000000000000000000000000000000000000000000 000000000000000A000000000000000000000000000000000000000000000 000000000000000000000000000000000000000     00000000                                                                                                                        000000000000000000
F0010000005768800003000090040632600042505000000000000000000201405050002001INDUSTRIAS FLOREZ TAIBEL SAS                      C000000000150000000000000000000000100010010000000000000000000000F0010000005768800320140505000101 00000000000000000000000000000000000000000000000000000000000000000000000000000000000000000000000000000000000000000N 00000000000NCONT   00    00000000000          00000000000000000000000000000000000000000000 000000000000000A000000000000000000000000000000000000000000000 000000000000000000000000000000000000000     00000000                                                                                                                        000000000000000000
F0010000005768800004000090040632600023658300000000000000000201405050002001INDUSTRIAS FLOREZ TAIBEL SAS                      C000000000007200000000000000000000100010010000000000000000000000F0010000005768800420140505000101 00000000000000000000000000000000000000000000000000000000000000000000000000000000000000000000000000000000000000000N 00000000000NCONT   00    00000000000          00000000000000000000000000000000000000000000 000000000000000A000000000000000000000000000000000000000000000 000000000000000000000000000000000000000     00000000                                                                                                                        000000000000000000
F0010000005768800005000090040632600013552100000000000000000201405050002001INDUSTRIAS FLOREZ TAIBEL SAS                      D000000000007200000000000000000000100010010000000000000000000000F0010000005768800520140505000101 00000000000000000000000000000000000000000000000000000000000000000000000000000000000000000000000000000000000000000N 00000000000NCONT   00    00000000000          00000000000000000000000000000000000000000000 000000000000000A000000000000000000000000000000000000000000000 000000000000000000000000000000000000000     00000000                                                                                                                        000000000000000000
F0010000005768900001000004555368600011050500000000000000000201405050002001MILDREY MARIN                                     D000000002700000000000000000000000100010010000000000000000000000F0010000005768900120140505000101 00000000000000000000000000000000000000000000000000000000000000000000000000000000000000000000000000000000000000000N 00000000000NCONT   00    00000000000          00000000000000000000000000000000000000000000 000000000000000A000000000000000000000000000000000000000000000 000000000000000000000000000000000000000     00000000                                                                                                                        000000000000000000
F0010000005768900002000004555368600041450500000000000000000201405050002001MILDREY MARIN                                     C000000002600000000000000000000000100010010000000000000000000000F0010000005768900220140505000101 00000000000000000000000000000000000000000000000000000000000000000000000000000000000000000000000000000000000000000N 00000000000NCONT   00    00000000000          00000000000000000000000000000000000000000000 000000000000000A000000000000000000000000000000000000000000000 000000000000000000000000000000000000000     00000000                                                                                                                        000000000000000000
F0010000005768900003000004555368600042505000000000000000000201405050002001MILDREY MARIN                                     C000000000100000000000000000000000100010010000000000000000000000F0010000005768900320140505000101 00000000000000000000000000000000000000000000000000000000000000000000000000000000000000000000000000000000000000000N 00000000000NCONT   00    00000000000          00000000000000000000000000000000000000000000 000000000000000A000000000000000000000000000000000000000000000 000000000000000000000000000000000000000     00000000                                                                                                                        000000000000000000
F0010000005768900004000004555368600023658300000000000000000201405050002001MILDREY MARIN                                     C000000000020800000000000000000000100010010000000000000000000000F0010000005768900420140505000101 00000000000000000000000000000000000000000000000000000000000000000000000000000000000000000000000000000000000000000N 00000000000NCONT   00    00000000000          00000000000000000000000000000000000000000000 000000000000000A000000000000000000000000000000000000000000000 000000000000000000000000000000000000000     00000000                                                                                                                        000000000000000000
F0010000005768900005000004555368600013552100000000000000000201405050002001MILDREY MARIN                                     D000000000020800000000000000000000100010010000000000000000000000F0010000005768900520140505000101 00000000000000000000000000000000000000000000000000000000000000000000000000000000000000000000000000000000000000000N 00000000000NCONT   00    00000000000          00000000000000000000000000000000000000000000 000000000000000A000000000000000000000000000000000000000000000 000000000000000000000000000000000000000     00000000                                                                                                                        000000000000000000
