F0010000010464300001000080200863700013050500000000000000000201710090002001COPIN S.A.S                                       D000000108809700000000000000000000100010010000000000000000000000F0010000010464300120171009000101 00000000000000000000000000000000000000000000000000000000000000000000000000000000000000000000000000000000000000000N 00000000000NCONT   00    00000000000          00000000000000000000000000000000000000000000 000000000000000A000000000000000000000000000000000000000000000 000000000000000000000000000000000000000     00000000                                                                                                                        000000000000000000
F0010000010464300002000080200863700041450500000000000000000201710090002001COPIN S.A.S                                       C000000098273000000000000000000000100010010000000000000000000000F0010000010464300220171009000101 00000000000000000000000000000000000000000000000000000000000000000000000000000000000000000000000000000000000000000N 00000000000NCONT   00    00000000000          00000000000000000000000000000000000000000000 000000000000000A000000000000000000000000000000000000000000000 000000000000000000000000000000000000000     00000000                                                                                                                        000000000000000000
F0010000010464300003000080200863700042505000000000000000000201710090002001COPIN S.A.S                                       C000000010536700000000000000000000100010010000000000000000000000F0010000010464300320171009000101 00000000000000000000000000000000000000000000000000000000000000000000000000000000000000000000000000000000000000000N 00000000000NCONT   00    00000000000          00000000000000000000000000000000000000000000 000000000000000A000000000000000000000000000000000000000000000 000000000000000000000000000000000000000     00000000                                                                                                                        000000000000000000
F0010000010464300004000080200863700023658300000000000000000201710090002001COPIN S.A.S                                       C000000000000000000000000000000000100010010000000000000000000000F0010000010464300420171009000101 00000000000000000000000000000000000000000000000000000000000000000000000000000000000000000000000000000000000000000N 00000000000NCONT   00    00000000000          00000000000000000000000000000000000000000000 000000000000000A000000000000000000000000000000000000000000000 000000000000000000000000000000000000000     00000000                                                                                                                        000000000000000000
F0010000010464300005000080200863700013552100000000000000000201710090002001COPIN S.A.S                                       D000000000000000000000000000000000100010010000000000000000000000F0010000010464300520171009000101 00000000000000000000000000000000000000000000000000000000000000000000000000000000000000000000000000000000000000000N 00000000000NCONT   00    00000000000          00000000000000000000000000000000000000000000 000000000000000A000000000000000000000000000000000000000000000 000000000000000000000000000000000000000     00000000                                                                                                                        000000000000000000
F0010000010464400001000090054403300011050500000000000000000201710090002001CLIMAIRES Y SERVICIOS S.A.S                       D000000012000000000000000000000000100010010000000000000000000000F0010000010464400120171009000101 00000000000000000000000000000000000000000000000000000000000000000000000000000000000000000000000000000000000000000N 00000000000NCONT   00    00000000000          00000000000000000000000000000000000000000000 000000000000000A000000000000000000000000000000000000000000000 000000000000000000000000000000000000000     00000000                                                                                                                        000000000000000000
F0010000010464400002000090054403300041450500000000000000000201710090002001CLIMAIRES Y SERVICIOS S.A.S                       C000000011800000000000000000000000100010010000000000000000000000F0010000010464400220171009000101 00000000000000000000000000000000000000000000000000000000000000000000000000000000000000000000000000000000000000000N 00000000000NCONT   00    00000000000          00000000000000000000000000000000000000000000 000000000000000A000000000000000000000000000000000000000000000 000000000000000000000000000000000000000     00000000                                                                                                                        000000000000000000
F0010000010464400003000090054403300042505000000000000000000201710090002001CLIMAIRES Y SERVICIOS S.A.S                       C000000000200000000000000000000000100010010000000000000000000000F0010000010464400320171009000101 00000000000000000000000000000000000000000000000000000000000000000000000000000000000000000000000000000000000000000N 00000000000NCONT   00    00000000000          00000000000000000000000000000000000000000000 000000000000000A000000000000000000000000000000000000000000000 000000000000000000000000000000000000000     00000000                                                                                                                        000000000000000000
F0010000010464400004000090054403300023658300000000000000000201710090002001CLIMAIRES Y SERVICIOS S.A.S                       C000000000000000000000000000000000100010010000000000000000000000F0010000010464400420171009000101 00000000000000000000000000000000000000000000000000000000000000000000000000000000000000000000000000000000000000000N 00000000000NCONT   00    00000000000          00000000000000000000000000000000000000000000 000000000000000A000000000000000000000000000000000000000000000 000000000000000000000000000000000000000     00000000                                                                                                                        000000000000000000
F0010000010464400005000090054403300013552100000000000000000201710090002001CLIMAIRES Y SERVICIOS S.A.S                       D000000000000000000000000000000000100010010000000000000000000000F0010000010464400520171009000101 00000000000000000000000000000000000000000000000000000000000000000000000000000000000000000000000000000000000000000N 00000000000NCONT   00    00000000000          00000000000000000000000000000000000000000000 000000000000000A000000000000000000000000000000000000000000000 000000000000000000000000000000000000000     00000000                                                                                                                        000000000000000000
F0010000010464500001000003273290300013050500000000000000000201710090002001YANETH GOMEZ ROJANO -  COMERCIALIZADORA YG        D000000022521900000000000000000000100010010000000000000000000000F0010000010464500120171009000101 00000000000000000000000000000000000000000000000000000000000000000000000000000000000000000000000000000000000000000N 00000000000NCONT   00    00000000000          00000000000000000000000000000000000000000000 000000000000000A000000000000000000000000000000000000000000000 000000000000000000000000000000000000000     00000000                                                                                                                        000000000000000000
F0010000010464500002000003273290300041450500000000000000000201710090002001YANETH GOMEZ ROJANO -  COMERCIALIZADORA YG        C000000016500000000000000000000000100010010000000000000000000000F0010000010464500220171009000101 00000000000000000000000000000000000000000000000000000000000000000000000000000000000000000000000000000000000000000N 00000000000NCONT   00    00000000000          00000000000000000000000000000000000000000000 000000000000000A000000000000000000000000000000000000000000000 000000000000000000000000000000000000000     00000000                                                                                                                        000000000000000000
F0010000010464500003000003273290300042505000000000000000000201710090002001YANETH GOMEZ ROJANO -  COMERCIALIZADORA YG        C000000006021900000000000000000000100010010000000000000000000000F0010000010464500320171009000101 00000000000000000000000000000000000000000000000000000000000000000000000000000000000000000000000000000000000000000N 00000000000NCONT   00    00000000000          00000000000000000000000000000000000000000000 000000000000000A000000000000000000000000000000000000000000000 000000000000000000000000000000000000000     00000000                                                                                                                        000000000000000000
F0010000010464500004000003273290300023658300000000000000000201710090002001YANETH GOMEZ ROJANO -  COMERCIALIZADORA YG        C000000000000000000000000000000000100010010000000000000000000000F0010000010464500420171009000101 00000000000000000000000000000000000000000000000000000000000000000000000000000000000000000000000000000000000000000N 00000000000NCONT   00    00000000000          00000000000000000000000000000000000000000000 000000000000000A000000000000000000000000000000000000000000000 000000000000000000000000000000000000000     00000000                                                                                                                        000000000000000000
F0010000010464500005000003273290300013552100000000000000000201710090002001YANETH GOMEZ ROJANO -  COMERCIALIZADORA YG        D000000000000000000000000000000000100010010000000000000000000000F0010000010464500520171009000101 00000000000000000000000000000000000000000000000000000000000000000000000000000000000000000000000000000000000000000N 00000000000NCONT   00    00000000000          00000000000000000000000000000000000000000000 000000000000000A000000000000000000000000000000000000000000000 000000000000000000000000000000000000000     00000000                                                                                                                        000000000000000000
F0010000010464600001000090052543100013050500000000000000000201710090002001SECRET COLOR SAS                                  D000000010770000000000000000000000100010010000000000000000000000F0010000010464600120171009000101 00000000000000000000000000000000000000000000000000000000000000000000000000000000000000000000000000000000000000000N 00000000000NCONT   00    00000000000          00000000000000000000000000000000000000000000 000000000000000A000000000000000000000000000000000000000000000 000000000000000000000000000000000000000     00000000                                                                                                                        000000000000000000
F0010000010464600002000090052543100041450500000000000000000201710090002001SECRET COLOR SAS                                  C000000010770000000000000000000000100010010000000000000000000000F0010000010464600220171009000101 00000000000000000000000000000000000000000000000000000000000000000000000000000000000000000000000000000000000000000N 00000000000NCONT   00    00000000000          00000000000000000000000000000000000000000000 000000000000000A000000000000000000000000000000000000000000000 000000000000000000000000000000000000000     00000000                                                                                                                        000000000000000000
F0010000010464600003000090052543100042505000000000000000000201710090002001SECRET COLOR SAS                                  C000000000000000000000000000000000100010010000000000000000000000F0010000010464600320171009000101 00000000000000000000000000000000000000000000000000000000000000000000000000000000000000000000000000000000000000000N 00000000000NCONT   00    00000000000          00000000000000000000000000000000000000000000 000000000000000A000000000000000000000000000000000000000000000 000000000000000000000000000000000000000     00000000                                                                                                                        000000000000000000
F0010000010464600004000090052543100023658300000000000000000201710090002001SECRET COLOR SAS                                  C000000000000000000000000000000000100010010000000000000000000000F0010000010464600420171009000101 00000000000000000000000000000000000000000000000000000000000000000000000000000000000000000000000000000000000000000N 00000000000NCONT   00    00000000000          00000000000000000000000000000000000000000000 000000000000000A000000000000000000000000000000000000000000000 000000000000000000000000000000000000000     00000000                                                                                                                        000000000000000000
F0010000010464600005000090052543100013552100000000000000000201710090002001SECRET COLOR SAS                                  D000000000000000000000000000000000100010010000000000000000000000F0010000010464600520171009000101 00000000000000000000000000000000000000000000000000000000000000000000000000000000000000000000000000000000000000000N 00000000000NCONT   00    00000000000          00000000000000000000000000000000000000000000 000000000000000A000000000000000000000000000000000000000000000 000000000000000000000000000000000000000     00000000                                                                                                                        000000000000000000
F0010000010464700001000083007900600013050500000000000000000201710090002001EXPRESO ANDINO DE CARGA SA                        D000000045500000000000000000000000100010010000000000000000000000F0010000010464700120171009000101 00000000000000000000000000000000000000000000000000000000000000000000000000000000000000000000000000000000000000000N 00000000000NCONT   00    00000000000          00000000000000000000000000000000000000000000 000000000000000A000000000000000000000000000000000000000000000 000000000000000000000000000000000000000     00000000                                                                                                                        000000000000000000
F0010000010464700002000083007900600041450500000000000000000201710090002001EXPRESO ANDINO DE CARGA SA                        C000000044400000000000000000000000100010010000000000000000000000F0010000010464700220171009000101 00000000000000000000000000000000000000000000000000000000000000000000000000000000000000000000000000000000000000000N 00000000000NCONT   00    00000000000          00000000000000000000000000000000000000000000 000000000000000A000000000000000000000000000000000000000000000 000000000000000000000000000000000000000     00000000                                                                                                                        000000000000000000
F0010000010464700003000083007900600042505000000000000000000201710090002001EXPRESO ANDINO DE CARGA SA                        C000000001100000000000000000000000100010010000000000000000000000F0010000010464700320171009000101 00000000000000000000000000000000000000000000000000000000000000000000000000000000000000000000000000000000000000000N 00000000000NCONT   00    00000000000          00000000000000000000000000000000000000000000 000000000000000A000000000000000000000000000000000000000000000 000000000000000000000000000000000000000     00000000                                                                                                                        000000000000000000
F0010000010464700004000083007900600023658300000000000000000201710090002001EXPRESO ANDINO DE CARGA SA                        C000000000000000000000000000000000100010010000000000000000000000F0010000010464700420171009000101 00000000000000000000000000000000000000000000000000000000000000000000000000000000000000000000000000000000000000000N 00000000000NCONT   00    00000000000          00000000000000000000000000000000000000000000 000000000000000A000000000000000000000000000000000000000000000 000000000000000000000000000000000000000     00000000                                                                                                                        000000000000000000
F0010000010464700005000083007900600013552100000000000000000201710090002001EXPRESO ANDINO DE CARGA SA                        D000000000000000000000000000000000100010010000000000000000000000F0010000010464700520171009000101 00000000000000000000000000000000000000000000000000000000000000000000000000000000000000000000000000000000000000000N 00000000000NCONT   00    00000000000          00000000000000000000000000000000000000000000 000000000000000A000000000000000000000000000000000000000000000 000000000000000000000000000000000000000     00000000                                                                                                                        000000000000000000
F0010000010464800001000090044443800013050500000000000000000201710090002001DISTRIBUCIONES UFRE S.A.S.                        D000000006555000000000000000000000100010010000000000000000000000F0010000010464800120171009000101 00000000000000000000000000000000000000000000000000000000000000000000000000000000000000000000000000000000000000000N 00000000000NCONT   00    00000000000          00000000000000000000000000000000000000000000 000000000000000A000000000000000000000000000000000000000000000 000000000000000000000000000000000000000     00000000                                                                                                                        000000000000000000
F0010000010464800002000090044443800041450500000000000000000201710090002001DISTRIBUCIONES UFRE S.A.S.                        C000000005820000000000000000000000100010010000000000000000000000F0010000010464800220171009000101 00000000000000000000000000000000000000000000000000000000000000000000000000000000000000000000000000000000000000000N 00000000000NCONT   00    00000000000          00000000000000000000000000000000000000000000 000000000000000A000000000000000000000000000000000000000000000 000000000000000000000000000000000000000     00000000                                                                                                                        000000000000000000
F0010000010464800003000090044443800042505000000000000000000201710090002001DISTRIBUCIONES UFRE S.A.S.                        C000000000735000000000000000000000100010010000000000000000000000F0010000010464800320171009000101 00000000000000000000000000000000000000000000000000000000000000000000000000000000000000000000000000000000000000000N 00000000000NCONT   00    00000000000          00000000000000000000000000000000000000000000 000000000000000A000000000000000000000000000000000000000000000 000000000000000000000000000000000000000     00000000                                                                                                                        000000000000000000
F0010000010464800004000090044443800023658300000000000000000201710090002001DISTRIBUCIONES UFRE S.A.S.                        C000000000000000000000000000000000100010010000000000000000000000F0010000010464800420171009000101 00000000000000000000000000000000000000000000000000000000000000000000000000000000000000000000000000000000000000000N 00000000000NCONT   00    00000000000          00000000000000000000000000000000000000000000 000000000000000A000000000000000000000000000000000000000000000 000000000000000000000000000000000000000     00000000                                                                                                                        000000000000000000
F0010000010464800005000090044443800013552100000000000000000201710090002001DISTRIBUCIONES UFRE S.A.S.                        D000000000000000000000000000000000100010010000000000000000000000F0010000010464800520171009000101 00000000000000000000000000000000000000000000000000000000000000000000000000000000000000000000000000000000000000000N 00000000000NCONT   00    00000000000          00000000000000000000000000000000000000000000 000000000000000A000000000000000000000000000000000000000000000 000000000000000000000000000000000000000     00000000                                                                                                                        000000000000000000
F0010000010464900001000080002300200013050500000000000000000201710090002001DISREL S.A.                                       D000000041900000000000000000000000100010010000000000000000000000F0010000010464900120171009000101 00000000000000000000000000000000000000000000000000000000000000000000000000000000000000000000000000000000000000000N 00000000000NCONT   00    00000000000          00000000000000000000000000000000000000000000 000000000000000A000000000000000000000000000000000000000000000 000000000000000000000000000000000000000     00000000                                                                                                                        000000000000000000
F0010000010464900002000080002300200041450500000000000000000201710090002001DISREL S.A.                                       C000000036800000000000000000000000100010010000000000000000000000F0010000010464900220171009000101 00000000000000000000000000000000000000000000000000000000000000000000000000000000000000000000000000000000000000000N 00000000000NCONT   00    00000000000          00000000000000000000000000000000000000000000 000000000000000A000000000000000000000000000000000000000000000 000000000000000000000000000000000000000     00000000                                                                                                                        000000000000000000
F0010000010464900003000080002300200042505000000000000000000201710090002001DISREL S.A.                                       C000000005100000000000000000000000100010010000000000000000000000F0010000010464900320171009000101 00000000000000000000000000000000000000000000000000000000000000000000000000000000000000000000000000000000000000000N 00000000000NCONT   00    00000000000          00000000000000000000000000000000000000000000 000000000000000A000000000000000000000000000000000000000000000 000000000000000000000000000000000000000     00000000                                                                                                                        000000000000000000
F0010000010464900004000080002300200023658300000000000000000201710090002001DISREL S.A.                                       C000000000000000000000000000000000100010010000000000000000000000F0010000010464900420171009000101 00000000000000000000000000000000000000000000000000000000000000000000000000000000000000000000000000000000000000000N 00000000000NCONT   00    00000000000          00000000000000000000000000000000000000000000 000000000000000A000000000000000000000000000000000000000000000 000000000000000000000000000000000000000     00000000                                                                                                                        000000000000000000
F0010000010464900005000080002300200013552100000000000000000201710090002001DISREL S.A.                                       D000000000000000000000000000000000100010010000000000000000000000F0010000010464900520171009000101 00000000000000000000000000000000000000000000000000000000000000000000000000000000000000000000000000000000000000000N 00000000000NCONT   00    00000000000          00000000000000000000000000000000000000000000 000000000000000A000000000000000000000000000000000000000000000 000000000000000000000000000000000000000     00000000                                                                                                                        000000000000000000
F0010000010465000001000002258669400013050500000000000000000201710090002001YURY PAOLA  SANTAMARIA ..                         D000000013674000000000000000000000100010010000000000000000000000F0010000010465000120171009000101 00000000000000000000000000000000000000000000000000000000000000000000000000000000000000000000000000000000000000000N 00000000000NCONT   00    00000000000          00000000000000000000000000000000000000000000 000000000000000A000000000000000000000000000000000000000000000 000000000000000000000000000000000000000     00000000                                                                                                                        000000000000000000
F0010000010465000002000002258669400041450500000000000000000201710090002001YURY PAOLA  SANTAMARIA ..                         C000000012180000000000000000000000100010010000000000000000000000F0010000010465000220171009000101 00000000000000000000000000000000000000000000000000000000000000000000000000000000000000000000000000000000000000000N 00000000000NCONT   00    00000000000          00000000000000000000000000000000000000000000 000000000000000A000000000000000000000000000000000000000000000 000000000000000000000000000000000000000     00000000                                                                                                                        000000000000000000
F0010000010465000003000002258669400042505000000000000000000201710090002001YURY PAOLA  SANTAMARIA ..                         C000000001494000000000000000000000100010010000000000000000000000F0010000010465000320171009000101 00000000000000000000000000000000000000000000000000000000000000000000000000000000000000000000000000000000000000000N 00000000000NCONT   00    00000000000          00000000000000000000000000000000000000000000 000000000000000A000000000000000000000000000000000000000000000 000000000000000000000000000000000000000     00000000                                                                                                                        000000000000000000
F0010000010465000004000002258669400023658300000000000000000201710090002001YURY PAOLA  SANTAMARIA ..                         C000000000000000000000000000000000100010010000000000000000000000F0010000010465000420171009000101 00000000000000000000000000000000000000000000000000000000000000000000000000000000000000000000000000000000000000000N 00000000000NCONT   00    00000000000          00000000000000000000000000000000000000000000 000000000000000A000000000000000000000000000000000000000000000 000000000000000000000000000000000000000     00000000                                                                                                                        000000000000000000
F0010000010465000005000002258669400013552100000000000000000201710090002001YURY PAOLA  SANTAMARIA ..                         D000000000000000000000000000000000100010010000000000000000000000F0010000010465000520171009000101 00000000000000000000000000000000000000000000000000000000000000000000000000000000000000000000000000000000000000000N 00000000000NCONT   00    00000000000          00000000000000000000000000000000000000000000 000000000000000A000000000000000000000000000000000000000000000 000000000000000000000000000000000000000     00000000                                                                                                                        000000000000000000
F0010000010465100001000080200608400013050500000000000000000201710090002001HIT DISTRIBUCIONES SAS                            D000000010150000000000000000000000100010010000000000000000000000F0010000010465100120171009000101 00000000000000000000000000000000000000000000000000000000000000000000000000000000000000000000000000000000000000000N 00000000000NCONT   00    00000000000          00000000000000000000000000000000000000000000 000000000000000A000000000000000000000000000000000000000000000 000000000000000000000000000000000000000     00000000                                                                                                                        000000000000000000
F0010000010465100002000080200608400041450500000000000000000201710090002001HIT DISTRIBUCIONES SAS                            C000000009000000000000000000000000100010010000000000000000000000F0010000010465100220171009000101 00000000000000000000000000000000000000000000000000000000000000000000000000000000000000000000000000000000000000000N 00000000000NCONT   00    00000000000          00000000000000000000000000000000000000000000 000000000000000A000000000000000000000000000000000000000000000 000000000000000000000000000000000000000     00000000                                                                                                                        000000000000000000
F0010000010465100003000080200608400042505000000000000000000201710090002001HIT DISTRIBUCIONES SAS                            C000000001150000000000000000000000100010010000000000000000000000F0010000010465100320171009000101 00000000000000000000000000000000000000000000000000000000000000000000000000000000000000000000000000000000000000000N 00000000000NCONT   00    00000000000          00000000000000000000000000000000000000000000 000000000000000A000000000000000000000000000000000000000000000 000000000000000000000000000000000000000     00000000                                                                                                                        000000000000000000
F0010000010465100004000080200608400023658300000000000000000201710090002001HIT DISTRIBUCIONES SAS                            C000000000000000000000000000000000100010010000000000000000000000F0010000010465100420171009000101 00000000000000000000000000000000000000000000000000000000000000000000000000000000000000000000000000000000000000000N 00000000000NCONT   00    00000000000          00000000000000000000000000000000000000000000 000000000000000A000000000000000000000000000000000000000000000 000000000000000000000000000000000000000     00000000                                                                                                                        000000000000000000
F0010000010465100005000080200608400013552100000000000000000201710090002001HIT DISTRIBUCIONES SAS                            D000000000000000000000000000000000100010010000000000000000000000F0010000010465100520171009000101 00000000000000000000000000000000000000000000000000000000000000000000000000000000000000000000000000000000000000000N 00000000000NCONT   00    00000000000          00000000000000000000000000000000000000000000 000000000000000A000000000000000000000000000000000000000000000 000000000000000000000000000000000000000     00000000                                                                                                                        000000000000000000
F0010000010465200001000090060531100013050500000000000000000201710090002001RECUBRIMIENTOS ESENCIALES SAS                     D000000152878800000000000000000000100010010000000000000000000000F0010000010465200120171009000101 00000000000000000000000000000000000000000000000000000000000000000000000000000000000000000000000000000000000000000N 00000000000NCONT   00    00000000000          00000000000000000000000000000000000000000000 000000000000000A000000000000000000000000000000000000000000000 000000000000000000000000000000000000000     00000000                                                                                                                        000000000000000000
F0010000010465200002000090060531100041450500000000000000000201710090002001RECUBRIMIENTOS ESENCIALES SAS                     C000000147200000000000000000000000100010010000000000000000000000F0010000010465200220171009000101 00000000000000000000000000000000000000000000000000000000000000000000000000000000000000000000000000000000000000000N 00000000000NCONT   00    00000000000          00000000000000000000000000000000000000000000 000000000000000A000000000000000000000000000000000000000000000 000000000000000000000000000000000000000     00000000                                                                                                                        000000000000000000
F0010000010465200003000090060531100042505000000000000000000201710090002001RECUBRIMIENTOS ESENCIALES SAS                     C000000005678800000000000000000000100010010000000000000000000000F0010000010465200320171009000101 00000000000000000000000000000000000000000000000000000000000000000000000000000000000000000000000000000000000000000N 00000000000NCONT   00    00000000000          00000000000000000000000000000000000000000000 000000000000000A000000000000000000000000000000000000000000000 000000000000000000000000000000000000000     00000000                                                                                                                        000000000000000000
F0010000010465200004000090060531100023658300000000000000000201710090002001RECUBRIMIENTOS ESENCIALES SAS                     C000000000000000000000000000000000100010010000000000000000000000F0010000010465200420171009000101 00000000000000000000000000000000000000000000000000000000000000000000000000000000000000000000000000000000000000000N 00000000000NCONT   00    00000000000          00000000000000000000000000000000000000000000 000000000000000A000000000000000000000000000000000000000000000 000000000000000000000000000000000000000     00000000                                                                                                                        000000000000000000
F0010000010465200005000090060531100013552100000000000000000201710090002001RECUBRIMIENTOS ESENCIALES SAS                     D000000000000000000000000000000000100010010000000000000000000000F0010000010465200520171009000101 00000000000000000000000000000000000000000000000000000000000000000000000000000000000000000000000000000000000000000N 00000000000NCONT   00    00000000000          00000000000000000000000000000000000000000000 000000000000000A000000000000000000000000000000000000000000000 000000000000000000000000000000000000000     00000000                                                                                                                        000000000000000000
F0010000010465300001000090048173700013050500000000000000000201710090002001ESPECIALIDADES QUIMICAS DEL NORTE SAS             D000000026150000000000000000000000100010010000000000000000000000F0010000010465300120171009000101 00000000000000000000000000000000000000000000000000000000000000000000000000000000000000000000000000000000000000000N 00000000000NCONT   00    00000000000          00000000000000000000000000000000000000000000 000000000000000A000000000000000000000000000000000000000000000 000000000000000000000000000000000000000     00000000                                                                                                                        000000000000000000
F0010000010465300002000090048173700041450500000000000000000201710090002001ESPECIALIDADES QUIMICAS DEL NORTE SAS             C000000024900000000000000000000000100010010000000000000000000000F0010000010465300220171009000101 00000000000000000000000000000000000000000000000000000000000000000000000000000000000000000000000000000000000000000N 00000000000NCONT   00    00000000000          00000000000000000000000000000000000000000000 000000000000000A000000000000000000000000000000000000000000000 000000000000000000000000000000000000000     00000000                                                                                                                        000000000000000000
F0010000010465300003000090048173700042505000000000000000000201710090002001ESPECIALIDADES QUIMICAS DEL NORTE SAS             C000000001250000000000000000000000100010010000000000000000000000F0010000010465300320171009000101 00000000000000000000000000000000000000000000000000000000000000000000000000000000000000000000000000000000000000000N 00000000000NCONT   00    00000000000          00000000000000000000000000000000000000000000 000000000000000A000000000000000000000000000000000000000000000 000000000000000000000000000000000000000     00000000                                                                                                                        000000000000000000
F0010000010465300004000090048173700023658300000000000000000201710090002001ESPECIALIDADES QUIMICAS DEL NORTE SAS             C000000000000000000000000000000000100010010000000000000000000000F0010000010465300420171009000101 00000000000000000000000000000000000000000000000000000000000000000000000000000000000000000000000000000000000000000N 00000000000NCONT   00    00000000000          00000000000000000000000000000000000000000000 000000000000000A000000000000000000000000000000000000000000000 000000000000000000000000000000000000000     00000000                                                                                                                        000000000000000000
F0010000010465300005000090048173700013552100000000000000000201710090002001ESPECIALIDADES QUIMICAS DEL NORTE SAS             D000000000000000000000000000000000100010010000000000000000000000F0010000010465300520171009000101 00000000000000000000000000000000000000000000000000000000000000000000000000000000000000000000000000000000000000000N 00000000000NCONT   00    00000000000          00000000000000000000000000000000000000000000 000000000000000A000000000000000000000000000000000000000000000 000000000000000000000000000000000000000     00000000                                                                                                                        000000000000000000
F0010000010465400001000083001155300013050500000000000000000201710090002001COMERCIALIZADORA RUBEN S LTDA                     D000000027845900000000000000000000100010010000000000000000000000F0010000010465400120171009000101 00000000000000000000000000000000000000000000000000000000000000000000000000000000000000000000000000000000000000000N 00000000000NCONT   00    00000000000          00000000000000000000000000000000000000000000 000000000000000A000000000000000000000000000000000000000000000 000000000000000000000000000000000000000     00000000                                                                                                                        000000000000000000
F0010000010465400002000083001155300041450500000000000000000201710090002001COMERCIALIZADORA RUBEN S LTDA                     C000000024237200000000000000000000100010010000000000000000000000F0010000010465400220171009000101 00000000000000000000000000000000000000000000000000000000000000000000000000000000000000000000000000000000000000000N 00000000000NCONT   00    00000000000          00000000000000000000000000000000000000000000 000000000000000A000000000000000000000000000000000000000000000 000000000000000000000000000000000000000     00000000                                                                                                                        000000000000000000
F0010000010465400003000083001155300042505000000000000000000201710090002001COMERCIALIZADORA RUBEN S LTDA                     C000000003608700000000000000000000100010010000000000000000000000F0010000010465400320171009000101 00000000000000000000000000000000000000000000000000000000000000000000000000000000000000000000000000000000000000000N 00000000000NCONT   00    00000000000          00000000000000000000000000000000000000000000 000000000000000A000000000000000000000000000000000000000000000 000000000000000000000000000000000000000     00000000                                                                                                                        000000000000000000
F0010000010465400004000083001155300023658300000000000000000201710090002001COMERCIALIZADORA RUBEN S LTDA                     C000000000000000000000000000000000100010010000000000000000000000F0010000010465400420171009000101 00000000000000000000000000000000000000000000000000000000000000000000000000000000000000000000000000000000000000000N 00000000000NCONT   00    00000000000          00000000000000000000000000000000000000000000 000000000000000A000000000000000000000000000000000000000000000 000000000000000000000000000000000000000     00000000                                                                                                                        000000000000000000
F0010000010465400005000083001155300013552100000000000000000201710090002001COMERCIALIZADORA RUBEN S LTDA                     D000000000000000000000000000000000100010010000000000000000000000F0010000010465400520171009000101 00000000000000000000000000000000000000000000000000000000000000000000000000000000000000000000000000000000000000000N 00000000000NCONT   00    00000000000          00000000000000000000000000000000000000000000 000000000000000A000000000000000000000000000000000000000000000 000000000000000000000000000000000000000     00000000                                                                                                                        000000000000000000
F0010000010465500001000083011391400013050500000000000000000201710090002001INSTITUCIONAL STAR SERVICES LTDA                  D000000007100000000000000000000000100010010000000000000000000000F0010000010465500120171009000101 00000000000000000000000000000000000000000000000000000000000000000000000000000000000000000000000000000000000000000N 00000000000NCONT   00    00000000000          00000000000000000000000000000000000000000000 000000000000000A000000000000000000000000000000000000000000000 000000000000000000000000000000000000000     00000000                                                                                                                        000000000000000000
F0010000010465500002000083011391400041450500000000000000000201710090002001INSTITUCIONAL STAR SERVICES LTDA                  C000000006000000000000000000000000100010010000000000000000000000F0010000010465500220171009000101 00000000000000000000000000000000000000000000000000000000000000000000000000000000000000000000000000000000000000000N 00000000000NCONT   00    00000000000          00000000000000000000000000000000000000000000 000000000000000A000000000000000000000000000000000000000000000 000000000000000000000000000000000000000     00000000                                                                                                                        000000000000000000
F0010000010465500003000083011391400042505000000000000000000201710090002001INSTITUCIONAL STAR SERVICES LTDA                  C000000001100000000000000000000000100010010000000000000000000000F0010000010465500320171009000101 00000000000000000000000000000000000000000000000000000000000000000000000000000000000000000000000000000000000000000N 00000000000NCONT   00    00000000000          00000000000000000000000000000000000000000000 000000000000000A000000000000000000000000000000000000000000000 000000000000000000000000000000000000000     00000000                                                                                                                        000000000000000000
F0010000010465500004000083011391400023658300000000000000000201710090002001INSTITUCIONAL STAR SERVICES LTDA                  C000000000000000000000000000000000100010010000000000000000000000F0010000010465500420171009000101 00000000000000000000000000000000000000000000000000000000000000000000000000000000000000000000000000000000000000000N 00000000000NCONT   00    00000000000          00000000000000000000000000000000000000000000 000000000000000A000000000000000000000000000000000000000000000 000000000000000000000000000000000000000     00000000                                                                                                                        000000000000000000
F0010000010465500005000083011391400013552100000000000000000201710090002001INSTITUCIONAL STAR SERVICES LTDA                  D000000000000000000000000000000000100010010000000000000000000000F0010000010465500520171009000101 00000000000000000000000000000000000000000000000000000000000000000000000000000000000000000000000000000000000000000N 00000000000NCONT   00    00000000000          00000000000000000000000000000000000000000000 000000000000000A000000000000000000000000000000000000000000000 000000000000000000000000000000000000000     00000000                                                                                                                        000000000000000000
F0010000010465600001000080201127600013050500000000000000000201710090002001ELECTRICOS DEL RUIZ S.A.S.                        D000000053033100000000000000000000100010010000000000000000000000F0010000010465600120171009000101 00000000000000000000000000000000000000000000000000000000000000000000000000000000000000000000000000000000000000000N 00000000000NCONT   00    00000000000          00000000000000000000000000000000000000000000 000000000000000A000000000000000000000000000000000000000000000 000000000000000000000000000000000000000     00000000                                                                                                                        000000000000000000
F0010000010465600002000080201127600041450500000000000000000201710090002001ELECTRICOS DEL RUIZ S.A.S.                        C000000047190000000000000000000000100010010000000000000000000000F0010000010465600220171009000101 00000000000000000000000000000000000000000000000000000000000000000000000000000000000000000000000000000000000000000N 00000000000NCONT   00    00000000000          00000000000000000000000000000000000000000000 000000000000000A000000000000000000000000000000000000000000000 000000000000000000000000000000000000000     00000000                                                                                                                        000000000000000000
F0010000010465600003000080201127600042505000000000000000000201710090002001ELECTRICOS DEL RUIZ S.A.S.                        C000000005843100000000000000000000100010010000000000000000000000F0010000010465600320171009000101 00000000000000000000000000000000000000000000000000000000000000000000000000000000000000000000000000000000000000000N 00000000000NCONT   00    00000000000          00000000000000000000000000000000000000000000 000000000000000A000000000000000000000000000000000000000000000 000000000000000000000000000000000000000     00000000                                                                                                                        000000000000000000
F0010000010465600004000080201127600023658300000000000000000201710090002001ELECTRICOS DEL RUIZ S.A.S.                        C000000000000000000000000000000000100010010000000000000000000000F0010000010465600420171009000101 00000000000000000000000000000000000000000000000000000000000000000000000000000000000000000000000000000000000000000N 00000000000NCONT   00    00000000000          00000000000000000000000000000000000000000000 000000000000000A000000000000000000000000000000000000000000000 000000000000000000000000000000000000000     00000000                                                                                                                        000000000000000000
F0010000010465600005000080201127600013552100000000000000000201710090002001ELECTRICOS DEL RUIZ S.A.S.                        D000000000000000000000000000000000100010010000000000000000000000F0010000010465600520171009000101 00000000000000000000000000000000000000000000000000000000000000000000000000000000000000000000000000000000000000000N 00000000000NCONT   00    00000000000          00000000000000000000000000000000000000000000 000000000000000A000000000000000000000000000000000000000000000 000000000000000000000000000000000000000     00000000                                                                                                                        000000000000000000
F0010000010465700001000090064982900013050500000000000000000201710090002001DISDIES S.A.S                                     D000000023713500000000000000000000100010010000000000000000000000F0010000010465700120171009000101 00000000000000000000000000000000000000000000000000000000000000000000000000000000000000000000000000000000000000000N 00000000000NCONT   00    00000000000          00000000000000000000000000000000000000000000 000000000000000A000000000000000000000000000000000000000000000 000000000000000000000000000000000000000     00000000                                                                                                                        000000000000000000
F0010000010465700002000090064982900041450500000000000000000201710090002001DISDIES S.A.S                                     C000000021480000000000000000000000100010010000000000000000000000F0010000010465700220171009000101 00000000000000000000000000000000000000000000000000000000000000000000000000000000000000000000000000000000000000000N 00000000000NCONT   00    00000000000          00000000000000000000000000000000000000000000 000000000000000A000000000000000000000000000000000000000000000 000000000000000000000000000000000000000     00000000                                                                                                                        000000000000000000
F0010000010465700003000090064982900042505000000000000000000201710090002001DISDIES S.A.S                                     C000000002233500000000000000000000100010010000000000000000000000F0010000010465700320171009000101 00000000000000000000000000000000000000000000000000000000000000000000000000000000000000000000000000000000000000000N 00000000000NCONT   00    00000000000          00000000000000000000000000000000000000000000 000000000000000A000000000000000000000000000000000000000000000 000000000000000000000000000000000000000     00000000                                                                                                                        000000000000000000
F0010000010465700004000090064982900023658300000000000000000201710090002001DISDIES S.A.S                                     C000000000000000000000000000000000100010010000000000000000000000F0010000010465700420171009000101 00000000000000000000000000000000000000000000000000000000000000000000000000000000000000000000000000000000000000000N 00000000000NCONT   00    00000000000          00000000000000000000000000000000000000000000 000000000000000A000000000000000000000000000000000000000000000 000000000000000000000000000000000000000     00000000                                                                                                                        000000000000000000
F0010000010465700005000090064982900013552100000000000000000201710090002001DISDIES S.A.S                                     D000000000000000000000000000000000100010010000000000000000000000F0010000010465700520171009000101 00000000000000000000000000000000000000000000000000000000000000000000000000000000000000000000000000000000000000000N 00000000000NCONT   00    00000000000          00000000000000000000000000000000000000000000 000000000000000A000000000000000000000000000000000000000000000 000000000000000000000000000000000000000     00000000                                                                                                                        000000000000000000
F0010000010465800001000090059316900013050500000000000000000201710090002001DISTRIBUCIONES Y REPRESENTACIONES MANA            D000000020948400000000000000000000100010010000000000000000000000F0010000010465800120171009000101 00000000000000000000000000000000000000000000000000000000000000000000000000000000000000000000000000000000000000000N 00000000000NCONT   00    00000000000          00000000000000000000000000000000000000000000 000000000000000A000000000000000000000000000000000000000000000 000000000000000000000000000000000000000     00000000                                                                                                                        000000000000000000
F0010000010465800002000090059316900041450500000000000000000201710090002001DISTRIBUCIONES Y REPRESENTACIONES MANA            C000000017500000000000000000000000100010010000000000000000000000F0010000010465800220171009000101 00000000000000000000000000000000000000000000000000000000000000000000000000000000000000000000000000000000000000000N 00000000000NCONT   00    00000000000          00000000000000000000000000000000000000000000 000000000000000A000000000000000000000000000000000000000000000 000000000000000000000000000000000000000     00000000                                                                                                                        000000000000000000
F0010000010465800003000090059316900042505000000000000000000201710090002001DISTRIBUCIONES Y REPRESENTACIONES MANA            C000000003448400000000000000000000100010010000000000000000000000F0010000010465800320171009000101 00000000000000000000000000000000000000000000000000000000000000000000000000000000000000000000000000000000000000000N 00000000000NCONT   00    00000000000          00000000000000000000000000000000000000000000 000000000000000A000000000000000000000000000000000000000000000 000000000000000000000000000000000000000     00000000                                                                                                                        000000000000000000
F0010000010465800004000090059316900023658300000000000000000201710090002001DISTRIBUCIONES Y REPRESENTACIONES MANA            C000000000000000000000000000000000100010010000000000000000000000F0010000010465800420171009000101 00000000000000000000000000000000000000000000000000000000000000000000000000000000000000000000000000000000000000000N 00000000000NCONT   00    00000000000          00000000000000000000000000000000000000000000 000000000000000A000000000000000000000000000000000000000000000 000000000000000000000000000000000000000     00000000                                                                                                                        000000000000000000
F0010000010465800005000090059316900013552100000000000000000201710090002001DISTRIBUCIONES Y REPRESENTACIONES MANA            D000000000000000000000000000000000100010010000000000000000000000F0010000010465800520171009000101 00000000000000000000000000000000000000000000000000000000000000000000000000000000000000000000000000000000000000000N 00000000000NCONT   00    00000000000          00000000000000000000000000000000000000000000 000000000000000A000000000000000000000000000000000000000000000 000000000000000000000000000000000000000     00000000                                                                                                                        000000000000000000
F0010000010465900001000000748239700013050500000000000000000201710090002001RAFAEL NAVARRO URIBE                              D000000105525700000000000000000000100010010000000000000000000000F0010000010465900120171009000101 00000000000000000000000000000000000000000000000000000000000000000000000000000000000000000000000000000000000000000N 00000000000NCONT   00    00000000000          00000000000000000000000000000000000000000000 000000000000000A000000000000000000000000000000000000000000000 000000000000000000000000000000000000000     00000000                                                                                                                        000000000000000000
F0010000010465900002000000748239700041450500000000000000000201710090002001RAFAEL NAVARRO URIBE                              C000000073520000000000000000000000100010010000000000000000000000F0010000010465900220171009000101 00000000000000000000000000000000000000000000000000000000000000000000000000000000000000000000000000000000000000000N 00000000000NCONT   00    00000000000          00000000000000000000000000000000000000000000 000000000000000A000000000000000000000000000000000000000000000 000000000000000000000000000000000000000     00000000                                                                                                                        000000000000000000
F0010000010465900003000000748239700042505000000000000000000201710090002001RAFAEL NAVARRO URIBE                              C000000032005700000000000000000000100010010000000000000000000000F0010000010465900320171009000101 00000000000000000000000000000000000000000000000000000000000000000000000000000000000000000000000000000000000000000N 00000000000NCONT   00    00000000000          00000000000000000000000000000000000000000000 000000000000000A000000000000000000000000000000000000000000000 000000000000000000000000000000000000000     00000000                                                                                                                        000000000000000000
F0010000010465900004000000748239700023658300000000000000000201710090002001RAFAEL NAVARRO URIBE                              C000000000000000000000000000000000100010010000000000000000000000F0010000010465900420171009000101 00000000000000000000000000000000000000000000000000000000000000000000000000000000000000000000000000000000000000000N 00000000000NCONT   00    00000000000          00000000000000000000000000000000000000000000 000000000000000A000000000000000000000000000000000000000000000 000000000000000000000000000000000000000     00000000                                                                                                                        000000000000000000
F0010000010465900005000000748239700013552100000000000000000201710090002001RAFAEL NAVARRO URIBE                              D000000000000000000000000000000000100010010000000000000000000000F0010000010465900520171009000101 00000000000000000000000000000000000000000000000000000000000000000000000000000000000000000000000000000000000000000N 00000000000NCONT   00    00000000000          00000000000000000000000000000000000000000000 000000000000000A000000000000000000000000000000000000000000000 000000000000000000000000000000000000000     00000000                                                                                                                        000000000000000000
F0010000010466000001000080200069100013050500000000000000000201710090002001PEGANTES Y PINTURAS ATLAS LTDA                    D000000033534600000000000000000000100010010000000000000000000000F0010000010466000120171009000101 00000000000000000000000000000000000000000000000000000000000000000000000000000000000000000000000000000000000000000N 00000000000NCONT   00    00000000000          00000000000000000000000000000000000000000000 000000000000000A000000000000000000000000000000000000000000000 000000000000000000000000000000000000000     00000000                                                                                                                        000000000000000000
F0010000010466000002000080200069100041450500000000000000000201710090002001PEGANTES Y PINTURAS ATLAS LTDA                    C000000029040000000000000000000000100010010000000000000000000000F0010000010466000220171009000101 00000000000000000000000000000000000000000000000000000000000000000000000000000000000000000000000000000000000000000N 00000000000NCONT   00    00000000000          00000000000000000000000000000000000000000000 000000000000000A000000000000000000000000000000000000000000000 000000000000000000000000000000000000000     00000000                                                                                                                        000000000000000000
F0010000010466000003000080200069100042505000000000000000000201710090002001PEGANTES Y PINTURAS ATLAS LTDA                    C000000004494600000000000000000000100010010000000000000000000000F0010000010466000320171009000101 00000000000000000000000000000000000000000000000000000000000000000000000000000000000000000000000000000000000000000N 00000000000NCONT   00    00000000000          00000000000000000000000000000000000000000000 000000000000000A000000000000000000000000000000000000000000000 000000000000000000000000000000000000000     00000000                                                                                                                        000000000000000000
F0010000010466000004000080200069100023658300000000000000000201710090002001PEGANTES Y PINTURAS ATLAS LTDA                    C000000000000000000000000000000000100010010000000000000000000000F0010000010466000420171009000101 00000000000000000000000000000000000000000000000000000000000000000000000000000000000000000000000000000000000000000N 00000000000NCONT   00    00000000000          00000000000000000000000000000000000000000000 000000000000000A000000000000000000000000000000000000000000000 000000000000000000000000000000000000000     00000000                                                                                                                        000000000000000000
F0010000010466000005000080200069100013552100000000000000000201710090002001PEGANTES Y PINTURAS ATLAS LTDA                    D000000000000000000000000000000000100010010000000000000000000000F0010000010466000520171009000101 00000000000000000000000000000000000000000000000000000000000000000000000000000000000000000000000000000000000000000N 00000000000NCONT   00    00000000000          00000000000000000000000000000000000000000000 000000000000000A000000000000000000000000000000000000000000000 000000000000000000000000000000000000000     00000000                                                                                                                        000000000000000000
F0010000010466100001000000871714900013050500000000000000000201710090002001ROLNAN DE LA ROSA  INSIGNARES                     D000000037344200000000000000000000100010010000000000000000000000F0010000010466100120171009000101 00000000000000000000000000000000000000000000000000000000000000000000000000000000000000000000000000000000000000000N 00000000000NCONT   00    00000000000          00000000000000000000000000000000000000000000 000000000000000A000000000000000000000000000000000000000000000 000000000000000000000000000000000000000     00000000                                                                                                                        000000000000000000
F0010000010466100002000000871714900041450500000000000000000201710090002001ROLNAN DE LA ROSA  INSIGNARES                     C000000031630200000000000000000000100010010000000000000000000000F0010000010466100220171009000101 00000000000000000000000000000000000000000000000000000000000000000000000000000000000000000000000000000000000000000N 00000000000NCONT   00    00000000000          00000000000000000000000000000000000000000000 000000000000000A000000000000000000000000000000000000000000000 000000000000000000000000000000000000000     00000000                                                                                                                        000000000000000000
F0010000010466100003000000871714900042505000000000000000000201710090002001ROLNAN DE LA ROSA  INSIGNARES                     C000000005714000000000000000000000100010010000000000000000000000F0010000010466100320171009000101 00000000000000000000000000000000000000000000000000000000000000000000000000000000000000000000000000000000000000000N 00000000000NCONT   00    00000000000          00000000000000000000000000000000000000000000 000000000000000A000000000000000000000000000000000000000000000 000000000000000000000000000000000000000     00000000                                                                                                                        000000000000000000
F0010000010466100004000000871714900023658300000000000000000201710090002001ROLNAN DE LA ROSA  INSIGNARES                     C000000000000000000000000000000000100010010000000000000000000000F0010000010466100420171009000101 00000000000000000000000000000000000000000000000000000000000000000000000000000000000000000000000000000000000000000N 00000000000NCONT   00    00000000000          00000000000000000000000000000000000000000000 000000000000000A000000000000000000000000000000000000000000000 000000000000000000000000000000000000000     00000000                                                                                                                        000000000000000000
F0010000010466100005000000871714900013552100000000000000000201710090002001ROLNAN DE LA ROSA  INSIGNARES                     D000000000000000000000000000000000100010010000000000000000000000F0010000010466100520171009000101 00000000000000000000000000000000000000000000000000000000000000000000000000000000000000000000000000000000000000000N 00000000000NCONT   00    00000000000          00000000000000000000000000000000000000000000 000000000000000A000000000000000000000000000000000000000000000 000000000000000000000000000000000000000     00000000                                                                                                                        000000000000000000
F0010000010466200001000090009800500013050500000000000000000201710090002001GLORIANT CHEMICHALS DE COLOMBIA LTDA              D000000025364000000000000000000000100010010000000000000000000000F0010000010466200120171009000101 00000000000000000000000000000000000000000000000000000000000000000000000000000000000000000000000000000000000000000N 00000000000NCONT   00    00000000000          00000000000000000000000000000000000000000000 000000000000000A000000000000000000000000000000000000000000000 000000000000000000000000000000000000000     00000000                                                                                                                        000000000000000000
F0010000010466200002000090009800500041450500000000000000000201710090002001GLORIANT CHEMICHALS DE COLOMBIA LTDA              C000000021120000000000000000000000100010010000000000000000000000F0010000010466200220171009000101 00000000000000000000000000000000000000000000000000000000000000000000000000000000000000000000000000000000000000000N 00000000000NCONT   00    00000000000          00000000000000000000000000000000000000000000 000000000000000A000000000000000000000000000000000000000000000 000000000000000000000000000000000000000     00000000                                                                                                                        000000000000000000
F0010000010466200003000090009800500042505000000000000000000201710090002001GLORIANT CHEMICHALS DE COLOMBIA LTDA              C000000004244000000000000000000000100010010000000000000000000000F0010000010466200320171009000101 00000000000000000000000000000000000000000000000000000000000000000000000000000000000000000000000000000000000000000N 00000000000NCONT   00    00000000000          00000000000000000000000000000000000000000000 000000000000000A000000000000000000000000000000000000000000000 000000000000000000000000000000000000000     00000000                                                                                                                        000000000000000000
F0010000010466200004000090009800500023658300000000000000000201710090002001GLORIANT CHEMICHALS DE COLOMBIA LTDA              C000000000000000000000000000000000100010010000000000000000000000F0010000010466200420171009000101 00000000000000000000000000000000000000000000000000000000000000000000000000000000000000000000000000000000000000000N 00000000000NCONT   00    00000000000          00000000000000000000000000000000000000000000 000000000000000A000000000000000000000000000000000000000000000 000000000000000000000000000000000000000     00000000                                                                                                                        000000000000000000
F0010000010466200005000090009800500013552100000000000000000201710090002001GLORIANT CHEMICHALS DE COLOMBIA LTDA              D000000000000000000000000000000000100010010000000000000000000000F0010000010466200520171009000101 00000000000000000000000000000000000000000000000000000000000000000000000000000000000000000000000000000000000000000N 00000000000NCONT   00    00000000000          00000000000000000000000000000000000000000000 000000000000000A000000000000000000000000000000000000000000000 000000000000000000000000000000000000000     00000000                                                                                                                        000000000000000000
F0010000010466300001000080016665600013050500000000000000000201710090002001SUMICAL DE ANTIOQUIA S.A.S                        D000000011312000000000000000000000100010010000000000000000000000F0010000010466300120171009000101 00000000000000000000000000000000000000000000000000000000000000000000000000000000000000000000000000000000000000000N 00000000000NCONT   00    00000000000          00000000000000000000000000000000000000000000 000000000000000A000000000000000000000000000000000000000000000 000000000000000000000000000000000000000     00000000                                                                                                                        000000000000000000
F0010000010466300002000080016665600041450500000000000000000201710090002001SUMICAL DE ANTIOQUIA S.A.S                        C000000009010000000000000000000000100010010000000000000000000000F0010000010466300220171009000101 00000000000000000000000000000000000000000000000000000000000000000000000000000000000000000000000000000000000000000N 00000000000NCONT   00    00000000000          00000000000000000000000000000000000000000000 000000000000000A000000000000000000000000000000000000000000000 000000000000000000000000000000000000000     00000000                                                                                                                        000000000000000000
F0010000010466300003000080016665600042505000000000000000000201710090002001SUMICAL DE ANTIOQUIA S.A.S                        C000000002302000000000000000000000100010010000000000000000000000F0010000010466300320171009000101 00000000000000000000000000000000000000000000000000000000000000000000000000000000000000000000000000000000000000000N 00000000000NCONT   00    00000000000          00000000000000000000000000000000000000000000 000000000000000A000000000000000000000000000000000000000000000 000000000000000000000000000000000000000     00000000                                                                                                                        000000000000000000
F0010000010466300004000080016665600023658300000000000000000201710090002001SUMICAL DE ANTIOQUIA S.A.S                        C000000000000000000000000000000000100010010000000000000000000000F0010000010466300420171009000101 00000000000000000000000000000000000000000000000000000000000000000000000000000000000000000000000000000000000000000N 00000000000NCONT   00    00000000000          00000000000000000000000000000000000000000000 000000000000000A000000000000000000000000000000000000000000000 000000000000000000000000000000000000000     00000000                                                                                                                        000000000000000000
F0010000010466300005000080016665600013552100000000000000000201710090002001SUMICAL DE ANTIOQUIA S.A.S                        D000000000000000000000000000000000100010010000000000000000000000F0010000010466300520171009000101 00000000000000000000000000000000000000000000000000000000000000000000000000000000000000000000000000000000000000000N 00000000000NCONT   00    00000000000          00000000000000000000000000000000000000000000 000000000000000A000000000000000000000000000000000000000000000 000000000000000000000000000000000000000     00000000                                                                                                                        000000000000000000
F0010000010466400001000089080078800013050500000000000000000201710090002001SUMATEC SA                                        D000000005330000000000000000000000100010010000000000000000000000F0010000010466400120171009000101 00000000000000000000000000000000000000000000000000000000000000000000000000000000000000000000000000000000000000000N 00000000000NCONT   00    00000000000          00000000000000000000000000000000000000000000 000000000000000A000000000000000000000000000000000000000000000 000000000000000000000000000000000000000     00000000                                                                                                                        000000000000000000
F0010000010466400002000089080078800041450500000000000000000201710090002001SUMATEC SA                                        C000000005320000000000000000000000100010010000000000000000000000F0010000010466400220171009000101 00000000000000000000000000000000000000000000000000000000000000000000000000000000000000000000000000000000000000000N 00000000000NCONT   00    00000000000          00000000000000000000000000000000000000000000 000000000000000A000000000000000000000000000000000000000000000 000000000000000000000000000000000000000     00000000                                                                                                                        000000000000000000
F0010000010466400003000089080078800042505000000000000000000201710090002001SUMATEC SA                                        C000000000010000000000000000000000100010010000000000000000000000F0010000010466400320171009000101 00000000000000000000000000000000000000000000000000000000000000000000000000000000000000000000000000000000000000000N 00000000000NCONT   00    00000000000          00000000000000000000000000000000000000000000 000000000000000A000000000000000000000000000000000000000000000 000000000000000000000000000000000000000     00000000                                                                                                                        000000000000000000
F0010000010466400004000089080078800023658300000000000000000201710090002001SUMATEC SA                                        C000000000000000000000000000000000100010010000000000000000000000F0010000010466400420171009000101 00000000000000000000000000000000000000000000000000000000000000000000000000000000000000000000000000000000000000000N 00000000000NCONT   00    00000000000          00000000000000000000000000000000000000000000 000000000000000A000000000000000000000000000000000000000000000 000000000000000000000000000000000000000     00000000                                                                                                                        000000000000000000
F0010000010466400005000089080078800013552100000000000000000201710090002001SUMATEC SA                                        D000000000000000000000000000000000100010010000000000000000000000F0010000010466400520171009000101 00000000000000000000000000000000000000000000000000000000000000000000000000000000000000000000000000000000000000000N 00000000000NCONT   00    00000000000          00000000000000000000000000000000000000000000 000000000000000A000000000000000000000000000000000000000000000 000000000000000000000000000000000000000     00000000                                                                                                                        000000000000000000
F0010000010466500001000089080078800013050500000000000000000201710090002001SUMATEC S.A.                                      D000000010730000000000000000000000100010010000000000000000000000F0010000010466500120171009000101 00000000000000000000000000000000000000000000000000000000000000000000000000000000000000000000000000000000000000000N 00000000000NCONT   00    00000000000          00000000000000000000000000000000000000000000 000000000000000A000000000000000000000000000000000000000000000 000000000000000000000000000000000000000     00000000                                                                                                                        000000000000000000
F0010000010466500002000089080078800041450500000000000000000201710090002001SUMATEC S.A.                                      C000000010700000000000000000000000100010010000000000000000000000F0010000010466500220171009000101 00000000000000000000000000000000000000000000000000000000000000000000000000000000000000000000000000000000000000000N 00000000000NCONT   00    00000000000          00000000000000000000000000000000000000000000 000000000000000A000000000000000000000000000000000000000000000 000000000000000000000000000000000000000     00000000                                                                                                                        000000000000000000
F0010000010466500003000089080078800042505000000000000000000201710090002001SUMATEC S.A.                                      C000000000030000000000000000000000100010010000000000000000000000F0010000010466500320171009000101 00000000000000000000000000000000000000000000000000000000000000000000000000000000000000000000000000000000000000000N 00000000000NCONT   00    00000000000          00000000000000000000000000000000000000000000 000000000000000A000000000000000000000000000000000000000000000 000000000000000000000000000000000000000     00000000                                                                                                                        000000000000000000
F0010000010466500004000089080078800023658300000000000000000201710090002001SUMATEC S.A.                                      C000000000000000000000000000000000100010010000000000000000000000F0010000010466500420171009000101 00000000000000000000000000000000000000000000000000000000000000000000000000000000000000000000000000000000000000000N 00000000000NCONT   00    00000000000          00000000000000000000000000000000000000000000 000000000000000A000000000000000000000000000000000000000000000 000000000000000000000000000000000000000     00000000                                                                                                                        000000000000000000
F0010000010466500005000089080078800013552100000000000000000201710090002001SUMATEC S.A.                                      D000000000000000000000000000000000100010010000000000000000000000F0010000010466500520171009000101 00000000000000000000000000000000000000000000000000000000000000000000000000000000000000000000000000000000000000000N 00000000000NCONT   00    00000000000          00000000000000000000000000000000000000000000 000000000000000A000000000000000000000000000000000000000000000 000000000000000000000000000000000000000     00000000                                                                                                                        000000000000000000
F0010000010466600001000007215983800013050500000000000000000201710090002001INDUSTRIA  LAFERBE                                D000000003330000000000000000000000100010010000000000000000000000F0010000010466600120171009000101 00000000000000000000000000000000000000000000000000000000000000000000000000000000000000000000000000000000000000000N 00000000000NCONT   00    00000000000          00000000000000000000000000000000000000000000 000000000000000A000000000000000000000000000000000000000000000 000000000000000000000000000000000000000     00000000                                                                                                                        000000000000000000
F0010000010466600002000007215983800041450500000000000000000201710090002001INDUSTRIA  LAFERBE                                C000000002880000000000000000000000100010010000000000000000000000F0010000010466600220171009000101 00000000000000000000000000000000000000000000000000000000000000000000000000000000000000000000000000000000000000000N 00000000000NCONT   00    00000000000          00000000000000000000000000000000000000000000 000000000000000A000000000000000000000000000000000000000000000 000000000000000000000000000000000000000     00000000                                                                                                                        000000000000000000
F0010000010466600003000007215983800042505000000000000000000201710090002001INDUSTRIA  LAFERBE                                C000000000450000000000000000000000100010010000000000000000000000F0010000010466600320171009000101 00000000000000000000000000000000000000000000000000000000000000000000000000000000000000000000000000000000000000000N 00000000000NCONT   00    00000000000          00000000000000000000000000000000000000000000 000000000000000A000000000000000000000000000000000000000000000 000000000000000000000000000000000000000     00000000                                                                                                                        000000000000000000
F0010000010466600004000007215983800023658300000000000000000201710090002001INDUSTRIA  LAFERBE                                C000000000000000000000000000000000100010010000000000000000000000F0010000010466600420171009000101 00000000000000000000000000000000000000000000000000000000000000000000000000000000000000000000000000000000000000000N 00000000000NCONT   00    00000000000          00000000000000000000000000000000000000000000 000000000000000A000000000000000000000000000000000000000000000 000000000000000000000000000000000000000     00000000                                                                                                                        000000000000000000
F0010000010466600005000007215983800013552100000000000000000201710090002001INDUSTRIA  LAFERBE                                D000000000000000000000000000000000100010010000000000000000000000F0010000010466600520171009000101 00000000000000000000000000000000000000000000000000000000000000000000000000000000000000000000000000000000000000000N 00000000000NCONT   00    00000000000          00000000000000000000000000000000000000000000 000000000000000A000000000000000000000000000000000000000000000 000000000000000000000000000000000000000     00000000                                                                                                                        000000000000000000
F0010000010466700001000080016664500013050500000000000000000201710090002001TELAPLAS PANCER SAS                               D000000016729000000000000000000000100010010000000000000000000000F0010000010466700120171009000101 00000000000000000000000000000000000000000000000000000000000000000000000000000000000000000000000000000000000000000N 00000000000NCONT   00    00000000000          00000000000000000000000000000000000000000000 000000000000000A000000000000000000000000000000000000000000000 000000000000000000000000000000000000000     00000000                                                                                                                        000000000000000000
F0010000010466700002000080016664500041450500000000000000000201710090002001TELAPLAS PANCER SAS                               C000000013540000000000000000000000100010010000000000000000000000F0010000010466700220171009000101 00000000000000000000000000000000000000000000000000000000000000000000000000000000000000000000000000000000000000000N 00000000000NCONT   00    00000000000          00000000000000000000000000000000000000000000 000000000000000A000000000000000000000000000000000000000000000 000000000000000000000000000000000000000     00000000                                                                                                                        000000000000000000
F0010000010466700003000080016664500042505000000000000000000201710090002001TELAPLAS PANCER SAS                               C000000003189000000000000000000000100010010000000000000000000000F0010000010466700320171009000101 00000000000000000000000000000000000000000000000000000000000000000000000000000000000000000000000000000000000000000N 00000000000NCONT   00    00000000000          00000000000000000000000000000000000000000000 000000000000000A000000000000000000000000000000000000000000000 000000000000000000000000000000000000000     00000000                                                                                                                        000000000000000000
F0010000010466700004000080016664500023658300000000000000000201710090002001TELAPLAS PANCER SAS                               C000000000000000000000000000000000100010010000000000000000000000F0010000010466700420171009000101 00000000000000000000000000000000000000000000000000000000000000000000000000000000000000000000000000000000000000000N 00000000000NCONT   00    00000000000          00000000000000000000000000000000000000000000 000000000000000A000000000000000000000000000000000000000000000 000000000000000000000000000000000000000     00000000                                                                                                                        000000000000000000
F0010000010466700005000080016664500013552100000000000000000201710090002001TELAPLAS PANCER SAS                               D000000000000000000000000000000000100010010000000000000000000000F0010000010466700520171009000101 00000000000000000000000000000000000000000000000000000000000000000000000000000000000000000000000000000000000000000N 00000000000NCONT   00    00000000000          00000000000000000000000000000000000000000000 000000000000000A000000000000000000000000000000000000000000000 000000000000000000000000000000000000000     00000000                                                                                                                        000000000000000000
F0010000010466800001000090008711200013050500000000000000000201710090002001PACKAGING SUPPLIERS S.A.S                         D000000053507700000000000000000000100010010000000000000000000000F0010000010466800120171009000101 00000000000000000000000000000000000000000000000000000000000000000000000000000000000000000000000000000000000000000N 00000000000NCONT   00    00000000000          00000000000000000000000000000000000000000000 000000000000000A000000000000000000000000000000000000000000000 000000000000000000000000000000000000000     00000000                                                                                                                        000000000000000000
F0010000010466800002000090008711200041450500000000000000000201710090002001PACKAGING SUPPLIERS S.A.S                         C000000048460600000000000000000000100010010000000000000000000000F0010000010466800220171009000101 00000000000000000000000000000000000000000000000000000000000000000000000000000000000000000000000000000000000000000N 00000000000NCONT   00    00000000000          00000000000000000000000000000000000000000000 000000000000000A000000000000000000000000000000000000000000000 000000000000000000000000000000000000000     00000000                                                                                                                        000000000000000000
F0010000010466800003000090008711200042505000000000000000000201710090002001PACKAGING SUPPLIERS S.A.S                         C000000005047100000000000000000000100010010000000000000000000000F0010000010466800320171009000101 00000000000000000000000000000000000000000000000000000000000000000000000000000000000000000000000000000000000000000N 00000000000NCONT   00    00000000000          00000000000000000000000000000000000000000000 000000000000000A000000000000000000000000000000000000000000000 000000000000000000000000000000000000000     00000000                                                                                                                        000000000000000000
F0010000010466800004000090008711200023658300000000000000000201710090002001PACKAGING SUPPLIERS S.A.S                         C000000000000000000000000000000000100010010000000000000000000000F0010000010466800420171009000101 00000000000000000000000000000000000000000000000000000000000000000000000000000000000000000000000000000000000000000N 00000000000NCONT   00    00000000000          00000000000000000000000000000000000000000000 000000000000000A000000000000000000000000000000000000000000000 000000000000000000000000000000000000000     00000000                                                                                                                        000000000000000000
F0010000010466800005000090008711200013552100000000000000000201710090002001PACKAGING SUPPLIERS S.A.S                         D000000000000000000000000000000000100010010000000000000000000000F0010000010466800520171009000101 00000000000000000000000000000000000000000000000000000000000000000000000000000000000000000000000000000000000000000N 00000000000NCONT   00    00000000000          00000000000000000000000000000000000000000000 000000000000000A000000000000000000000000000000000000000000000 000000000000000000000000000000000000000     00000000                                                                                                                        000000000000000000
F0010000010466900001000086000490200013050500000000000000000201710090002001PROV. DE PAPELES ANDINA S.A.                      D000000136095700000000000000000000100010010000000000000000000000F0010000010466900120171009000101 00000000000000000000000000000000000000000000000000000000000000000000000000000000000000000000000000000000000000000N 00000000000NCONT   00    00000000000          00000000000000000000000000000000000000000000 000000000000000A000000000000000000000000000000000000000000000 000000000000000000000000000000000000000     00000000                                                                                                                        000000000000000000
F0010000010466900002000086000490200041450500000000000000000201710090002001PROV. DE PAPELES ANDINA S.A.                      C000000127816500000000000000000000100010010000000000000000000000F0010000010466900220171009000101 00000000000000000000000000000000000000000000000000000000000000000000000000000000000000000000000000000000000000000N 00000000000NCONT   00    00000000000          00000000000000000000000000000000000000000000 000000000000000A000000000000000000000000000000000000000000000 000000000000000000000000000000000000000     00000000                                                                                                                        000000000000000000
F0010000010466900003000086000490200042505000000000000000000201710090002001PROV. DE PAPELES ANDINA S.A.                      C000000008279200000000000000000000100010010000000000000000000000F0010000010466900320171009000101 00000000000000000000000000000000000000000000000000000000000000000000000000000000000000000000000000000000000000000N 00000000000NCONT   00    00000000000          00000000000000000000000000000000000000000000 000000000000000A000000000000000000000000000000000000000000000 000000000000000000000000000000000000000     00000000                                                                                                                        000000000000000000
F0010000010466900004000086000490200023658300000000000000000201710090002001PROV. DE PAPELES ANDINA S.A.                      C000000000000000000000000000000000100010010000000000000000000000F0010000010466900420171009000101 00000000000000000000000000000000000000000000000000000000000000000000000000000000000000000000000000000000000000000N 00000000000NCONT   00    00000000000          00000000000000000000000000000000000000000000 000000000000000A000000000000000000000000000000000000000000000 000000000000000000000000000000000000000     00000000                                                                                                                        000000000000000000
F0010000010466900005000086000490200013552100000000000000000201710090002001PROV. DE PAPELES ANDINA S.A.                      D000000000000000000000000000000000100010010000000000000000000000F0010000010466900520171009000101 00000000000000000000000000000000000000000000000000000000000000000000000000000000000000000000000000000000000000000N 00000000000NCONT   00    00000000000          00000000000000000000000000000000000000000000 000000000000000A000000000000000000000000000000000000000000000 000000000000000000000000000000000000000     00000000                                                                                                                        000000000000000000
F0010000010467100001000089010260300013050500000000000000000201710090002001FEDERICO OSORIO A. S.A.                           D000000172366000000000000000000000100010010000000000000000000000F0010000010467100120171009000101 00000000000000000000000000000000000000000000000000000000000000000000000000000000000000000000000000000000000000000N 00000000000NCONT   00    00000000000          00000000000000000000000000000000000000000000 000000000000000A000000000000000000000000000000000000000000000 000000000000000000000000000000000000000     00000000                                                                                                                        000000000000000000
F0010000010467100002000089010260300041450500000000000000000201710090002001FEDERICO OSORIO A. S.A.                           C000000160500000000000000000000000100010010000000000000000000000F0010000010467100220171009000101 00000000000000000000000000000000000000000000000000000000000000000000000000000000000000000000000000000000000000000N 00000000000NCONT   00    00000000000          00000000000000000000000000000000000000000000 000000000000000A000000000000000000000000000000000000000000000 000000000000000000000000000000000000000     00000000                                                                                                                        000000000000000000
F0010000010467100003000089010260300042505000000000000000000201710090002001FEDERICO OSORIO A. S.A.                           C000000011866000000000000000000000100010010000000000000000000000F0010000010467100320171009000101 00000000000000000000000000000000000000000000000000000000000000000000000000000000000000000000000000000000000000000N 00000000000NCONT   00    00000000000          00000000000000000000000000000000000000000000 000000000000000A000000000000000000000000000000000000000000000 000000000000000000000000000000000000000     00000000                                                                                                                        000000000000000000
F0010000010467100004000089010260300023658300000000000000000201710090002001FEDERICO OSORIO A. S.A.                           C000000000000000000000000000000000100010010000000000000000000000F0010000010467100420171009000101 00000000000000000000000000000000000000000000000000000000000000000000000000000000000000000000000000000000000000000N 00000000000NCONT   00    00000000000          00000000000000000000000000000000000000000000 000000000000000A000000000000000000000000000000000000000000000 000000000000000000000000000000000000000     00000000                                                                                                                        000000000000000000
F0010000010467100005000089010260300013552100000000000000000201710090002001FEDERICO OSORIO A. S.A.                           D000000000000000000000000000000000100010010000000000000000000000F0010000010467100520171009000101 00000000000000000000000000000000000000000000000000000000000000000000000000000000000000000000000000000000000000000N 00000000000NCONT   00    00000000000          00000000000000000000000000000000000000000000 000000000000000A000000000000000000000000000000000000000000000 000000000000000000000000000000000000000     00000000                                                                                                                        000000000000000000
F0010000010467200001000089010260300013050500000000000000000201710090002001FEDERICO OSORIO A. S.A.                           D000000144062200000000000000000000100010010000000000000000000000F0010000010467200120171009000101 00000000000000000000000000000000000000000000000000000000000000000000000000000000000000000000000000000000000000000N 00000000000NCONT   00    00000000000          00000000000000000000000000000000000000000000 000000000000000A000000000000000000000000000000000000000000000 000000000000000000000000000000000000000     00000000                                                                                                                        000000000000000000
F0010000010467200002000089010260300041450500000000000000000201710090002001FEDERICO OSORIO A. S.A.                           C000000136810000000000000000000000100010010000000000000000000000F0010000010467200220171009000101 00000000000000000000000000000000000000000000000000000000000000000000000000000000000000000000000000000000000000000N 00000000000NCONT   00    00000000000          00000000000000000000000000000000000000000000 000000000000000A000000000000000000000000000000000000000000000 000000000000000000000000000000000000000     00000000                                                                                                                        000000000000000000
F0010000010467200003000089010260300042505000000000000000000201710090002001FEDERICO OSORIO A. S.A.                           C000000007252200000000000000000000100010010000000000000000000000F0010000010467200320171009000101 00000000000000000000000000000000000000000000000000000000000000000000000000000000000000000000000000000000000000000N 00000000000NCONT   00    00000000000          00000000000000000000000000000000000000000000 000000000000000A000000000000000000000000000000000000000000000 000000000000000000000000000000000000000     00000000                                                                                                                        000000000000000000
F0010000010467200004000089010260300023658300000000000000000201710090002001FEDERICO OSORIO A. S.A.                           C000000000000000000000000000000000100010010000000000000000000000F0010000010467200420171009000101 00000000000000000000000000000000000000000000000000000000000000000000000000000000000000000000000000000000000000000N 00000000000NCONT   00    00000000000          00000000000000000000000000000000000000000000 000000000000000A000000000000000000000000000000000000000000000 000000000000000000000000000000000000000     00000000                                                                                                                        000000000000000000
F0010000010467200005000089010260300013552100000000000000000201710090002001FEDERICO OSORIO A. S.A.                           D000000000000000000000000000000000100010010000000000000000000000F0010000010467200520171009000101 00000000000000000000000000000000000000000000000000000000000000000000000000000000000000000000000000000000000000000N 00000000000NCONT   00    00000000000          00000000000000000000000000000000000000000000 000000000000000A000000000000000000000000000000000000000000000 000000000000000000000000000000000000000     00000000                                                                                                                        000000000000000000
F0010000010467300001000080202094000013050500000000000000000201710090002001DISTRIB. OMAR ORREGO S.A.                         D000000079345600000000000000000000100010010000000000000000000000F0010000010467300120171009000101 00000000000000000000000000000000000000000000000000000000000000000000000000000000000000000000000000000000000000000N 00000000000NCONT   00    00000000000          00000000000000000000000000000000000000000000 000000000000000A000000000000000000000000000000000000000000000 000000000000000000000000000000000000000     00000000                                                                                                                        000000000000000000
F0010000010467300002000080202094000041450500000000000000000201710090002001DISTRIB. OMAR ORREGO S.A.                         C000000050640000000000000000000000100010010000000000000000000000F0010000010467300220171009000101 00000000000000000000000000000000000000000000000000000000000000000000000000000000000000000000000000000000000000000N 00000000000NCONT   00    00000000000          00000000000000000000000000000000000000000000 000000000000000A000000000000000000000000000000000000000000000 000000000000000000000000000000000000000     00000000                                                                                                                        000000000000000000
