F0010000010178400001000080200863700013050500000000000000000201706270002001COPIN S.A.S                                       D000000083216800000000000000000000100010010000000000000000000000F0010000010178400120170627000101 00000000000000000000000000000000000000000000000000000000000000000000000000000000000000000000000000000000000000000N 00000000000NCONT   00    00000000000          00000000000000000000000000000000000000000000 000000000000000A000000000000000000000000000000000000000000000 000000000000000000000000000000000000000     00000000                                                                                                                        000000000000000000
F0010000010178400002000080200863700041450500000000000000000201706270002001COPIN S.A.S                                       C000000078140000000000000000000000100010010000000000000000000000F0010000010178400220170627000101 00000000000000000000000000000000000000000000000000000000000000000000000000000000000000000000000000000000000000000N 00000000000NCONT   00    00000000000          00000000000000000000000000000000000000000000 000000000000000A000000000000000000000000000000000000000000000 000000000000000000000000000000000000000     00000000                                                                                                                        000000000000000000
F0010000010178400003000080200863700042505000000000000000000201706270002001COPIN S.A.S                                       C000000005076800000000000000000000100010010000000000000000000000F0010000010178400320170627000101 00000000000000000000000000000000000000000000000000000000000000000000000000000000000000000000000000000000000000000N 00000000000NCONT   00    00000000000          00000000000000000000000000000000000000000000 000000000000000A000000000000000000000000000000000000000000000 000000000000000000000000000000000000000     00000000                                                                                                                        000000000000000000
F0010000010178400004000080200863700023658300000000000000000201706270002001COPIN S.A.S                                       C000000000000000000000000000000000100010010000000000000000000000F0010000010178400420170627000101 00000000000000000000000000000000000000000000000000000000000000000000000000000000000000000000000000000000000000000N 00000000000NCONT   00    00000000000          00000000000000000000000000000000000000000000 000000000000000A000000000000000000000000000000000000000000000 000000000000000000000000000000000000000     00000000                                                                                                                        000000000000000000
F0010000010178400005000080200863700013552100000000000000000201706270002001COPIN S.A.S                                       D000000000000000000000000000000000100010010000000000000000000000F0010000010178400520170627000101 00000000000000000000000000000000000000000000000000000000000000000000000000000000000000000000000000000000000000000N 00000000000NCONT   00    00000000000          00000000000000000000000000000000000000000000 000000000000000A000000000000000000000000000000000000000000000 000000000000000000000000000000000000000     00000000                                                                                                                        000000000000000000
F0010000010178500001000089080078800013050500000000000000000201706270002001SUMATEC SA                                        D000000022010200000000000000000000100010010000000000000000000000F0010000010178500120170627000101 00000000000000000000000000000000000000000000000000000000000000000000000000000000000000000000000000000000000000000N 00000000000NCONT   00    00000000000          00000000000000000000000000000000000000000000 000000000000000A000000000000000000000000000000000000000000000 000000000000000000000000000000000000000     00000000                                                                                                                        000000000000000000
F0010000010178500002000089080078800041450500000000000000000201706270002001SUMATEC SA                                        C000000020393400000000000000000000100010010000000000000000000000F0010000010178500220170627000101 00000000000000000000000000000000000000000000000000000000000000000000000000000000000000000000000000000000000000000N 00000000000NCONT   00    00000000000          00000000000000000000000000000000000000000000 000000000000000A000000000000000000000000000000000000000000000 000000000000000000000000000000000000000     00000000                                                                                                                        000000000000000000
F0010000010178500003000089080078800042505000000000000000000201706270002001SUMATEC SA                                        C000000001616800000000000000000000100010010000000000000000000000F0010000010178500320170627000101 00000000000000000000000000000000000000000000000000000000000000000000000000000000000000000000000000000000000000000N 00000000000NCONT   00    00000000000          00000000000000000000000000000000000000000000 000000000000000A000000000000000000000000000000000000000000000 000000000000000000000000000000000000000     00000000                                                                                                                        000000000000000000
F0010000010178500004000089080078800023658300000000000000000201706270002001SUMATEC SA                                        C000000000000000000000000000000000100010010000000000000000000000F0010000010178500420170627000101 00000000000000000000000000000000000000000000000000000000000000000000000000000000000000000000000000000000000000000N 00000000000NCONT   00    00000000000          00000000000000000000000000000000000000000000 000000000000000A000000000000000000000000000000000000000000000 000000000000000000000000000000000000000     00000000                                                                                                                        000000000000000000
F0010000010178500005000089080078800013552100000000000000000201706270002001SUMATEC SA                                        D000000000000000000000000000000000100010010000000000000000000000F0010000010178500520170627000101 00000000000000000000000000000000000000000000000000000000000000000000000000000000000000000000000000000000000000000N 00000000000NCONT   00    00000000000          00000000000000000000000000000000000000000000 000000000000000A000000000000000000000000000000000000000000000 000000000000000000000000000000000000000     00000000                                                                                                                        000000000000000000
F0010000010178600001000090052543100013050500000000000000000201706270002001SECRET COLOR SAS                                  D000000010770000000000000000000000100010010000000000000000000000F0010000010178600120170627000101 00000000000000000000000000000000000000000000000000000000000000000000000000000000000000000000000000000000000000000N 00000000000NCONT   00    00000000000          00000000000000000000000000000000000000000000 000000000000000A000000000000000000000000000000000000000000000 000000000000000000000000000000000000000     00000000                                                                                                                        000000000000000000
F0010000010178600002000090052543100041450500000000000000000201706270002001SECRET COLOR SAS                                  C000000010770000000000000000000000100010010000000000000000000000F0010000010178600220170627000101 00000000000000000000000000000000000000000000000000000000000000000000000000000000000000000000000000000000000000000N 00000000000NCONT   00    00000000000          00000000000000000000000000000000000000000000 000000000000000A000000000000000000000000000000000000000000000 000000000000000000000000000000000000000     00000000                                                                                                                        000000000000000000
F0010000010178600003000090052543100042505000000000000000000201706270002001SECRET COLOR SAS                                  C000000000000000000000000000000000100010010000000000000000000000F0010000010178600320170627000101 00000000000000000000000000000000000000000000000000000000000000000000000000000000000000000000000000000000000000000N 00000000000NCONT   00    00000000000          00000000000000000000000000000000000000000000 000000000000000A000000000000000000000000000000000000000000000 000000000000000000000000000000000000000     00000000                                                                                                                        000000000000000000
F0010000010178600004000090052543100023658300000000000000000201706270002001SECRET COLOR SAS                                  C000000000000000000000000000000000100010010000000000000000000000F0010000010178600420170627000101 00000000000000000000000000000000000000000000000000000000000000000000000000000000000000000000000000000000000000000N 00000000000NCONT   00    00000000000          00000000000000000000000000000000000000000000 000000000000000A000000000000000000000000000000000000000000000 000000000000000000000000000000000000000     00000000                                                                                                                        000000000000000000
F0010000010178600005000090052543100013552100000000000000000201706270002001SECRET COLOR SAS                                  D000000000000000000000000000000000100010010000000000000000000000F0010000010178600520170627000101 00000000000000000000000000000000000000000000000000000000000000000000000000000000000000000000000000000000000000000N 00000000000NCONT   00    00000000000          00000000000000000000000000000000000000000000 000000000000000A000000000000000000000000000000000000000000000 000000000000000000000000000000000000000     00000000                                                                                                                        000000000000000000
F0010000010178700001000000748239700013050500000000000000000201706270002001RAFAEL NAVARRO URIBE                              D000000042671900000000000000000000100010010000000000000000000000F0010000010178700120170627000101 00000000000000000000000000000000000000000000000000000000000000000000000000000000000000000000000000000000000000000N 00000000000NCONT   00    00000000000          00000000000000000000000000000000000000000000 000000000000000A000000000000000000000000000000000000000000000 000000000000000000000000000000000000000     00000000                                                                                                                        000000000000000000
F0010000010178700002000000748239700041450500000000000000000201706270002001RAFAEL NAVARRO URIBE                              C000000030740000000000000000000000100010010000000000000000000000F0010000010178700220170627000101 00000000000000000000000000000000000000000000000000000000000000000000000000000000000000000000000000000000000000000N 00000000000NCONT   00    00000000000          00000000000000000000000000000000000000000000 000000000000000A000000000000000000000000000000000000000000000 000000000000000000000000000000000000000     00000000                                                                                                                        000000000000000000
F0010000010178700003000000748239700042505000000000000000000201706270002001RAFAEL NAVARRO URIBE                              C000000011931900000000000000000000100010010000000000000000000000F0010000010178700320170627000101 00000000000000000000000000000000000000000000000000000000000000000000000000000000000000000000000000000000000000000N 00000000000NCONT   00    00000000000          00000000000000000000000000000000000000000000 000000000000000A000000000000000000000000000000000000000000000 000000000000000000000000000000000000000     00000000                                                                                                                        000000000000000000
F0010000010178700004000000748239700023658300000000000000000201706270002001RAFAEL NAVARRO URIBE                              C000000000000000000000000000000000100010010000000000000000000000F0010000010178700420170627000101 00000000000000000000000000000000000000000000000000000000000000000000000000000000000000000000000000000000000000000N 00000000000NCONT   00    00000000000          00000000000000000000000000000000000000000000 000000000000000A000000000000000000000000000000000000000000000 000000000000000000000000000000000000000     00000000                                                                                                                        000000000000000000
F0010000010178700005000000748239700013552100000000000000000201706270002001RAFAEL NAVARRO URIBE                              D000000000000000000000000000000000100010010000000000000000000000F0010000010178700520170627000101 00000000000000000000000000000000000000000000000000000000000000000000000000000000000000000000000000000000000000000N 00000000000NCONT   00    00000000000          00000000000000000000000000000000000000000000 000000000000000A000000000000000000000000000000000000000000000 000000000000000000000000000000000000000     00000000                                                                                                                        000000000000000000
F0010000010178800001000002245670100013050500000000000000000201706270002001YOLANDA  TOBON                                    D000000030521600000000000000000000100010010000000000000000000000F0010000010178800120170627000101 00000000000000000000000000000000000000000000000000000000000000000000000000000000000000000000000000000000000000000N 00000000000NCONT   00    00000000000          00000000000000000000000000000000000000000000 000000000000000A000000000000000000000000000000000000000000000 000000000000000000000000000000000000000     00000000                                                                                                                        000000000000000000
F0010000010178800002000002245670100041450500000000000000000201706270002001YOLANDA  TOBON                                    C000000024340000000000000000000000100010010000000000000000000000F0010000010178800220170627000101 00000000000000000000000000000000000000000000000000000000000000000000000000000000000000000000000000000000000000000N 00000000000NCONT   00    00000000000          00000000000000000000000000000000000000000000 000000000000000A000000000000000000000000000000000000000000000 000000000000000000000000000000000000000     00000000                                                                                                                        000000000000000000
F0010000010178800003000002245670100042505000000000000000000201706270002001YOLANDA  TOBON                                    C000000006181600000000000000000000100010010000000000000000000000F0010000010178800320170627000101 00000000000000000000000000000000000000000000000000000000000000000000000000000000000000000000000000000000000000000N 00000000000NCONT   00    00000000000          00000000000000000000000000000000000000000000 000000000000000A000000000000000000000000000000000000000000000 000000000000000000000000000000000000000     00000000                                                                                                                        000000000000000000
F0010000010178800004000002245670100023658300000000000000000201706270002001YOLANDA  TOBON                                    C000000000000000000000000000000000100010010000000000000000000000F0010000010178800420170627000101 00000000000000000000000000000000000000000000000000000000000000000000000000000000000000000000000000000000000000000N 00000000000NCONT   00    00000000000          00000000000000000000000000000000000000000000 000000000000000A000000000000000000000000000000000000000000000 000000000000000000000000000000000000000     00000000                                                                                                                        000000000000000000
F0010000010178800005000002245670100013552100000000000000000201706270002001YOLANDA  TOBON                                    D000000000000000000000000000000000100010010000000000000000000000F0010000010178800520170627000101 00000000000000000000000000000000000000000000000000000000000000000000000000000000000000000000000000000000000000000N 00000000000NCONT   00    00000000000          00000000000000000000000000000000000000000000 000000000000000A000000000000000000000000000000000000000000000 000000000000000000000000000000000000000     00000000                                                                                                                        000000000000000000
F0010000010178900001000080200069100013050500000000000000000201706270002001PEGANTES Y PINTURAS ATLAS LTDA                    D000000008352400000000000000000000100010010000000000000000000000F0010000010178900120170627000101 00000000000000000000000000000000000000000000000000000000000000000000000000000000000000000000000000000000000000000N 00000000000NCONT   00    00000000000          00000000000000000000000000000000000000000000 000000000000000A000000000000000000000000000000000000000000000 000000000000000000000000000000000000000     00000000                                                                                                                        000000000000000000
F0010000010178900002000080200069100041450500000000000000000201706270002001PEGANTES Y PINTURAS ATLAS LTDA                    C000000007260000000000000000000000100010010000000000000000000000F0010000010178900220170627000101 00000000000000000000000000000000000000000000000000000000000000000000000000000000000000000000000000000000000000000N 00000000000NCONT   00    00000000000          00000000000000000000000000000000000000000000 000000000000000A000000000000000000000000000000000000000000000 000000000000000000000000000000000000000     00000000                                                                                                                        000000000000000000
F0010000010178900003000080200069100042505000000000000000000201706270002001PEGANTES Y PINTURAS ATLAS LTDA                    C000000001092400000000000000000000100010010000000000000000000000F0010000010178900320170627000101 00000000000000000000000000000000000000000000000000000000000000000000000000000000000000000000000000000000000000000N 00000000000NCONT   00    00000000000          00000000000000000000000000000000000000000000 000000000000000A000000000000000000000000000000000000000000000 000000000000000000000000000000000000000     00000000                                                                                                                        000000000000000000
F0010000010178900004000080200069100023658300000000000000000201706270002001PEGANTES Y PINTURAS ATLAS LTDA                    C000000000000000000000000000000000100010010000000000000000000000F0010000010178900420170627000101 00000000000000000000000000000000000000000000000000000000000000000000000000000000000000000000000000000000000000000N 00000000000NCONT   00    00000000000          00000000000000000000000000000000000000000000 000000000000000A000000000000000000000000000000000000000000000 000000000000000000000000000000000000000     00000000                                                                                                                        000000000000000000
F0010000010178900005000080200069100013552100000000000000000201706270002001PEGANTES Y PINTURAS ATLAS LTDA                    D000000000000000000000000000000000100010010000000000000000000000F0010000010178900520170627000101 00000000000000000000000000000000000000000000000000000000000000000000000000000000000000000000000000000000000000000N 00000000000NCONT   00    00000000000          00000000000000000000000000000000000000000000 000000000000000A000000000000000000000000000000000000000000000 000000000000000000000000000000000000000     00000000                                                                                                                        000000000000000000
F0010000010179000001000000871714900013050500000000000000000201706270002001ROLNAN DE LA ROSA  INSIGNARES                     D000000038893200000000000000000000100010010000000000000000000000F0010000010179000120170627000101 00000000000000000000000000000000000000000000000000000000000000000000000000000000000000000000000000000000000000000N 00000000000NCONT   00    00000000000          00000000000000000000000000000000000000000000 000000000000000A000000000000000000000000000000000000000000000 000000000000000000000000000000000000000     00000000                                                                                                                        000000000000000000
F0010000010179000002000000871714900041450500000000000000000201706270002001ROLNAN DE LA ROSA  INSIGNARES                     C000000032530200000000000000000000100010010000000000000000000000F0010000010179000220170627000101 00000000000000000000000000000000000000000000000000000000000000000000000000000000000000000000000000000000000000000N 00000000000NCONT   00    00000000000          00000000000000000000000000000000000000000000 000000000000000A000000000000000000000000000000000000000000000 000000000000000000000000000000000000000     00000000                                                                                                                        000000000000000000
F0010000010179000003000000871714900042505000000000000000000201706270002001ROLNAN DE LA ROSA  INSIGNARES                     C000000006363000000000000000000000100010010000000000000000000000F0010000010179000320170627000101 00000000000000000000000000000000000000000000000000000000000000000000000000000000000000000000000000000000000000000N 00000000000NCONT   00    00000000000          00000000000000000000000000000000000000000000 000000000000000A000000000000000000000000000000000000000000000 000000000000000000000000000000000000000     00000000                                                                                                                        000000000000000000
F0010000010179000004000000871714900023658300000000000000000201706270002001ROLNAN DE LA ROSA  INSIGNARES                     C000000000000000000000000000000000100010010000000000000000000000F0010000010179000420170627000101 00000000000000000000000000000000000000000000000000000000000000000000000000000000000000000000000000000000000000000N 00000000000NCONT   00    00000000000          00000000000000000000000000000000000000000000 000000000000000A000000000000000000000000000000000000000000000 000000000000000000000000000000000000000     00000000                                                                                                                        000000000000000000
F0010000010179000005000000871714900013552100000000000000000201706270002001ROLNAN DE LA ROSA  INSIGNARES                     D000000000000000000000000000000000100010010000000000000000000000F0010000010179000520170627000101 00000000000000000000000000000000000000000000000000000000000000000000000000000000000000000000000000000000000000000N 00000000000NCONT   00    00000000000          00000000000000000000000000000000000000000000 000000000000000A000000000000000000000000000000000000000000000 000000000000000000000000000000000000000     00000000                                                                                                                        000000000000000000
F0010000010179100001000083007900600013050500000000000000000201706270002001EXPRESO ANDINO DE CARGA SA                        D000000021600000000000000000000000100010010000000000000000000000F0010000010179100120170627000101 00000000000000000000000000000000000000000000000000000000000000000000000000000000000000000000000000000000000000000N 00000000000NCONT   00    00000000000          00000000000000000000000000000000000000000000 000000000000000A000000000000000000000000000000000000000000000 000000000000000000000000000000000000000     00000000                                                                                                                        000000000000000000
F0010000010179100002000083007900600041450500000000000000000201706270002001EXPRESO ANDINO DE CARGA SA                        C000000020400000000000000000000000100010010000000000000000000000F0010000010179100220170627000101 00000000000000000000000000000000000000000000000000000000000000000000000000000000000000000000000000000000000000000N 00000000000NCONT   00    00000000000          00000000000000000000000000000000000000000000 000000000000000A000000000000000000000000000000000000000000000 000000000000000000000000000000000000000     00000000                                                                                                                        000000000000000000
F0010000010179100003000083007900600042505000000000000000000201706270002001EXPRESO ANDINO DE CARGA SA                        C000000001200000000000000000000000100010010000000000000000000000F0010000010179100320170627000101 00000000000000000000000000000000000000000000000000000000000000000000000000000000000000000000000000000000000000000N 00000000000NCONT   00    00000000000          00000000000000000000000000000000000000000000 000000000000000A000000000000000000000000000000000000000000000 000000000000000000000000000000000000000     00000000                                                                                                                        000000000000000000
F0010000010179100004000083007900600023658300000000000000000201706270002001EXPRESO ANDINO DE CARGA SA                        C000000000000000000000000000000000100010010000000000000000000000F0010000010179100420170627000101 00000000000000000000000000000000000000000000000000000000000000000000000000000000000000000000000000000000000000000N 00000000000NCONT   00    00000000000          00000000000000000000000000000000000000000000 000000000000000A000000000000000000000000000000000000000000000 000000000000000000000000000000000000000     00000000                                                                                                                        000000000000000000
F0010000010179100005000083007900600013552100000000000000000201706270002001EXPRESO ANDINO DE CARGA SA                        D000000000000000000000000000000000100010010000000000000000000000F0010000010179100520170627000101 00000000000000000000000000000000000000000000000000000000000000000000000000000000000000000000000000000000000000000N 00000000000NCONT   00    00000000000          00000000000000000000000000000000000000000000 000000000000000A000000000000000000000000000000000000000000000 000000000000000000000000000000000000000     00000000                                                                                                                        000000000000000000
F0010000010179200001000080002300200013050500000000000000000201706270002001DISREL S.A.                                       D000000025780000000000000000000000100010010000000000000000000000F0010000010179200120170627000101 00000000000000000000000000000000000000000000000000000000000000000000000000000000000000000000000000000000000000000N 00000000000NCONT   00    00000000000          00000000000000000000000000000000000000000000 000000000000000A000000000000000000000000000000000000000000000 000000000000000000000000000000000000000     00000000                                                                                                                        000000000000000000
F0010000010179200002000080002300200041450500000000000000000201706270002001DISREL S.A.                                       C000000022880000000000000000000000100010010000000000000000000000F0010000010179200220170627000101 00000000000000000000000000000000000000000000000000000000000000000000000000000000000000000000000000000000000000000N 00000000000NCONT   00    00000000000          00000000000000000000000000000000000000000000 000000000000000A000000000000000000000000000000000000000000000 000000000000000000000000000000000000000     00000000                                                                                                                        000000000000000000
F0010000010179200003000080002300200042505000000000000000000201706270002001DISREL S.A.                                       C000000002900000000000000000000000100010010000000000000000000000F0010000010179200320170627000101 00000000000000000000000000000000000000000000000000000000000000000000000000000000000000000000000000000000000000000N 00000000000NCONT   00    00000000000          00000000000000000000000000000000000000000000 000000000000000A000000000000000000000000000000000000000000000 000000000000000000000000000000000000000     00000000                                                                                                                        000000000000000000
F0010000010179200004000080002300200023658300000000000000000201706270002001DISREL S.A.                                       C000000000000000000000000000000000100010010000000000000000000000F0010000010179200420170627000101 00000000000000000000000000000000000000000000000000000000000000000000000000000000000000000000000000000000000000000N 00000000000NCONT   00    00000000000          00000000000000000000000000000000000000000000 000000000000000A000000000000000000000000000000000000000000000 000000000000000000000000000000000000000     00000000                                                                                                                        000000000000000000
F0010000010179200005000080002300200013552100000000000000000201706270002001DISREL S.A.                                       D000000000000000000000000000000000100010010000000000000000000000F0010000010179200520170627000101 00000000000000000000000000000000000000000000000000000000000000000000000000000000000000000000000000000000000000000N 00000000000NCONT   00    00000000000          00000000000000000000000000000000000000000000 000000000000000A000000000000000000000000000000000000000000000 000000000000000000000000000000000000000     00000000                                                                                                                        000000000000000000
F0010000010179300001000080016664500013050500000000000000000201706270002001TELAPLAS PANCER SAS                               D000000045263000000000000000000000100010010000000000000000000000F0010000010179300120170627000101 00000000000000000000000000000000000000000000000000000000000000000000000000000000000000000000000000000000000000000N 00000000000NCONT   00    00000000000          00000000000000000000000000000000000000000000 000000000000000A000000000000000000000000000000000000000000000 000000000000000000000000000000000000000     00000000                                                                                                                        000000000000000000
F0010000010179300002000080016664500041450500000000000000000201706270002001TELAPLAS PANCER SAS                               C000000034200000000000000000000000100010010000000000000000000000F0010000010179300220170627000101 00000000000000000000000000000000000000000000000000000000000000000000000000000000000000000000000000000000000000000N 00000000000NCONT   00    00000000000          00000000000000000000000000000000000000000000 000000000000000A000000000000000000000000000000000000000000000 000000000000000000000000000000000000000     00000000                                                                                                                        000000000000000000
F0010000010179300003000080016664500042505000000000000000000201706270002001TELAPLAS PANCER SAS                               C000000011063000000000000000000000100010010000000000000000000000F0010000010179300320170627000101 00000000000000000000000000000000000000000000000000000000000000000000000000000000000000000000000000000000000000000N 00000000000NCONT   00    00000000000          00000000000000000000000000000000000000000000 000000000000000A000000000000000000000000000000000000000000000 000000000000000000000000000000000000000     00000000                                                                                                                        000000000000000000
F0010000010179300004000080016664500023658300000000000000000201706270002001TELAPLAS PANCER SAS                               C000000000000000000000000000000000100010010000000000000000000000F0010000010179300420170627000101 00000000000000000000000000000000000000000000000000000000000000000000000000000000000000000000000000000000000000000N 00000000000NCONT   00    00000000000          00000000000000000000000000000000000000000000 000000000000000A000000000000000000000000000000000000000000000 000000000000000000000000000000000000000     00000000                                                                                                                        000000000000000000
F0010000010179300005000080016664500013552100000000000000000201706270002001TELAPLAS PANCER SAS                               D000000000000000000000000000000000100010010000000000000000000000F0010000010179300520170627000101 00000000000000000000000000000000000000000000000000000000000000000000000000000000000000000000000000000000000000000N 00000000000NCONT   00    00000000000          00000000000000000000000000000000000000000000 000000000000000A000000000000000000000000000000000000000000000 000000000000000000000000000000000000000     00000000                                                                                                                        000000000000000000
F0010000010179400001000090069145000013050500000000000000000201706270002001TGV DE COLOMBIA SAS                               D000000022900000000000000000000000100010010000000000000000000000F0010000010179400120170627000101 00000000000000000000000000000000000000000000000000000000000000000000000000000000000000000000000000000000000000000N 00000000000NCONT   00    00000000000          00000000000000000000000000000000000000000000 000000000000000A000000000000000000000000000000000000000000000 000000000000000000000000000000000000000     00000000                                                                                                                        000000000000000000
F0010000010179400002000090069145000041450500000000000000000201706270002001TGV DE COLOMBIA SAS                               C000000021900000000000000000000000100010010000000000000000000000F0010000010179400220170627000101 00000000000000000000000000000000000000000000000000000000000000000000000000000000000000000000000000000000000000000N 00000000000NCONT   00    00000000000          00000000000000000000000000000000000000000000 000000000000000A000000000000000000000000000000000000000000000 000000000000000000000000000000000000000     00000000                                                                                                                        000000000000000000
F0010000010179400003000090069145000042505000000000000000000201706270002001TGV DE COLOMBIA SAS                               C000000001000000000000000000000000100010010000000000000000000000F0010000010179400320170627000101 00000000000000000000000000000000000000000000000000000000000000000000000000000000000000000000000000000000000000000N 00000000000NCONT   00    00000000000          00000000000000000000000000000000000000000000 000000000000000A000000000000000000000000000000000000000000000 000000000000000000000000000000000000000     00000000                                                                                                                        000000000000000000
F0010000010179400004000090069145000023658300000000000000000201706270002001TGV DE COLOMBIA SAS                               C000000000000000000000000000000000100010010000000000000000000000F0010000010179400420170627000101 00000000000000000000000000000000000000000000000000000000000000000000000000000000000000000000000000000000000000000N 00000000000NCONT   00    00000000000          00000000000000000000000000000000000000000000 000000000000000A000000000000000000000000000000000000000000000 000000000000000000000000000000000000000     00000000                                                                                                                        000000000000000000
F0010000010179400005000090069145000013552100000000000000000201706270002001TGV DE COLOMBIA SAS                               D000000000000000000000000000000000100010010000000000000000000000F0010000010179400520170627000101 00000000000000000000000000000000000000000000000000000000000000000000000000000000000000000000000000000000000000000N 00000000000NCONT   00    00000000000          00000000000000000000000000000000000000000000 000000000000000A000000000000000000000000000000000000000000000 000000000000000000000000000000000000000     00000000                                                                                                                        000000000000000000
F0010000010179500001000090064982900013050500000000000000000201706270002001DISDIES S.A.S                                     D000000116133300000000000000000000100010010000000000000000000000F0010000010179500120170627000101 00000000000000000000000000000000000000000000000000000000000000000000000000000000000000000000000000000000000000000N 00000000000NCONT   00    00000000000          00000000000000000000000000000000000000000000 000000000000000A000000000000000000000000000000000000000000000 000000000000000000000000000000000000000     00000000                                                                                                                        000000000000000000
F0010000010179500002000090064982900041450500000000000000000201706270002001DISDIES S.A.S                                     C000000101459200000000000000000000100010010000000000000000000000F0010000010179500220170627000101 00000000000000000000000000000000000000000000000000000000000000000000000000000000000000000000000000000000000000000N 00000000000NCONT   00    00000000000          00000000000000000000000000000000000000000000 000000000000000A000000000000000000000000000000000000000000000 000000000000000000000000000000000000000     00000000                                                                                                                        000000000000000000
F0010000010179500003000090064982900042505000000000000000000201706270002001DISDIES S.A.S                                     C000000014674100000000000000000000100010010000000000000000000000F0010000010179500320170627000101 00000000000000000000000000000000000000000000000000000000000000000000000000000000000000000000000000000000000000000N 00000000000NCONT   00    00000000000          00000000000000000000000000000000000000000000 000000000000000A000000000000000000000000000000000000000000000 000000000000000000000000000000000000000     00000000                                                                                                                        000000000000000000
F0010000010179500004000090064982900023658300000000000000000201706270002001DISDIES S.A.S                                     C000000000000000000000000000000000100010010000000000000000000000F0010000010179500420170627000101 00000000000000000000000000000000000000000000000000000000000000000000000000000000000000000000000000000000000000000N 00000000000NCONT   00    00000000000          00000000000000000000000000000000000000000000 000000000000000A000000000000000000000000000000000000000000000 000000000000000000000000000000000000000     00000000                                                                                                                        000000000000000000
F0010000010179500005000090064982900013552100000000000000000201706270002001DISDIES S.A.S                                     D000000000000000000000000000000000100010010000000000000000000000F0010000010179500520170627000101 00000000000000000000000000000000000000000000000000000000000000000000000000000000000000000000000000000000000000000N 00000000000NCONT   00    00000000000          00000000000000000000000000000000000000000000 000000000000000A000000000000000000000000000000000000000000000 000000000000000000000000000000000000000     00000000                                                                                                                        000000000000000000
F0010000010179600001000090009800500013050500000000000000000201706270002001GLORIANT CHEMICHALS DE COLOMBIA LTDA              D000000032740000000000000000000000100010010000000000000000000000F0010000010179600120170627000101 00000000000000000000000000000000000000000000000000000000000000000000000000000000000000000000000000000000000000000N 00000000000NCONT   00    00000000000          00000000000000000000000000000000000000000000 000000000000000A000000000000000000000000000000000000000000000 000000000000000000000000000000000000000     00000000                                                                                                                        000000000000000000
F0010000010179600002000090009800500041450500000000000000000201706270002001GLORIANT CHEMICHALS DE COLOMBIA LTDA              C000000026940000000000000000000000100010010000000000000000000000F0010000010179600220170627000101 00000000000000000000000000000000000000000000000000000000000000000000000000000000000000000000000000000000000000000N 00000000000NCONT   00    00000000000          00000000000000000000000000000000000000000000 000000000000000A000000000000000000000000000000000000000000000 000000000000000000000000000000000000000     00000000                                                                                                                        000000000000000000
F0010000010179600003000090009800500042505000000000000000000201706270002001GLORIANT CHEMICHALS DE COLOMBIA LTDA              C000000005800000000000000000000000100010010000000000000000000000F0010000010179600320170627000101 00000000000000000000000000000000000000000000000000000000000000000000000000000000000000000000000000000000000000000N 00000000000NCONT   00    00000000000          00000000000000000000000000000000000000000000 000000000000000A000000000000000000000000000000000000000000000 000000000000000000000000000000000000000     00000000                                                                                                                        000000000000000000
F0010000010179600004000090009800500023658300000000000000000201706270002001GLORIANT CHEMICHALS DE COLOMBIA LTDA              C000000000000000000000000000000000100010010000000000000000000000F0010000010179600420170627000101 00000000000000000000000000000000000000000000000000000000000000000000000000000000000000000000000000000000000000000N 00000000000NCONT   00    00000000000          00000000000000000000000000000000000000000000 000000000000000A000000000000000000000000000000000000000000000 000000000000000000000000000000000000000     00000000                                                                                                                        000000000000000000
F0010000010179600005000090009800500013552100000000000000000201706270002001GLORIANT CHEMICHALS DE COLOMBIA LTDA              D000000000000000000000000000000000100010010000000000000000000000F0010000010179600520170627000101 00000000000000000000000000000000000000000000000000000000000000000000000000000000000000000000000000000000000000000N 00000000000NCONT   00    00000000000          00000000000000000000000000000000000000000000 000000000000000A000000000000000000000000000000000000000000000 000000000000000000000000000000000000000     00000000                                                                                                                        000000000000000000
F0010000010179700001000090060531100013050500000000000000000201706270002001RECUBRIMIENTOS ESENCIALES SAS                     D000000087420000000000000000000000100010010000000000000000000000F0010000010179700120170627000101 00000000000000000000000000000000000000000000000000000000000000000000000000000000000000000000000000000000000000000N 00000000000NCONT   00    00000000000          00000000000000000000000000000000000000000000 000000000000000A000000000000000000000000000000000000000000000 000000000000000000000000000000000000000     00000000                                                                                                                        000000000000000000
F0010000010179700002000090060531100041450500000000000000000201706270002001RECUBRIMIENTOS ESENCIALES SAS                     C000000082170000000000000000000000100010010000000000000000000000F0010000010179700220170627000101 00000000000000000000000000000000000000000000000000000000000000000000000000000000000000000000000000000000000000000N 00000000000NCONT   00    00000000000          00000000000000000000000000000000000000000000 000000000000000A000000000000000000000000000000000000000000000 000000000000000000000000000000000000000     00000000                                                                                                                        000000000000000000
F0010000010179700003000090060531100042505000000000000000000201706270002001RECUBRIMIENTOS ESENCIALES SAS                     C000000005250000000000000000000000100010010000000000000000000000F0010000010179700320170627000101 00000000000000000000000000000000000000000000000000000000000000000000000000000000000000000000000000000000000000000N 00000000000NCONT   00    00000000000          00000000000000000000000000000000000000000000 000000000000000A000000000000000000000000000000000000000000000 000000000000000000000000000000000000000     00000000                                                                                                                        000000000000000000
F0010000010179700004000090060531100023658300000000000000000201706270002001RECUBRIMIENTOS ESENCIALES SAS                     C000000000000000000000000000000000100010010000000000000000000000F0010000010179700420170627000101 00000000000000000000000000000000000000000000000000000000000000000000000000000000000000000000000000000000000000000N 00000000000NCONT   00    00000000000          00000000000000000000000000000000000000000000 000000000000000A000000000000000000000000000000000000000000000 000000000000000000000000000000000000000     00000000                                                                                                                        000000000000000000
F0010000010179700005000090060531100013552100000000000000000201706270002001RECUBRIMIENTOS ESENCIALES SAS                     D000000000000000000000000000000000100010010000000000000000000000F0010000010179700520170627000101 00000000000000000000000000000000000000000000000000000000000000000000000000000000000000000000000000000000000000000N 00000000000NCONT   00    00000000000          00000000000000000000000000000000000000000000 000000000000000A000000000000000000000000000000000000000000000 000000000000000000000000000000000000000     00000000                                                                                                                        000000000000000000
F0010000010179800001000089010260300013050500000000000000000201706270002001FEDERICO OSORIO A. S.A.                           D000000156655600000000000000000000100010010000000000000000000000F0010000010179800120170627000101 00000000000000000000000000000000000000000000000000000000000000000000000000000000000000000000000000000000000000000N 00000000000NCONT   00    00000000000          00000000000000000000000000000000000000000000 000000000000000A000000000000000000000000000000000000000000000 000000000000000000000000000000000000000     00000000                                                                                                                        000000000000000000
F0010000010179800002000089010260300041450500000000000000000201706270002001FEDERICO OSORIO A. S.A.                           C000000148440000000000000000000000100010010000000000000000000000F0010000010179800220170627000101 00000000000000000000000000000000000000000000000000000000000000000000000000000000000000000000000000000000000000000N 00000000000NCONT   00    00000000000          00000000000000000000000000000000000000000000 000000000000000A000000000000000000000000000000000000000000000 000000000000000000000000000000000000000     00000000                                                                                                                        000000000000000000
F0010000010179800003000089010260300042505000000000000000000201706270002001FEDERICO OSORIO A. S.A.                           C000000008215600000000000000000000100010010000000000000000000000F0010000010179800320170627000101 00000000000000000000000000000000000000000000000000000000000000000000000000000000000000000000000000000000000000000N 00000000000NCONT   00    00000000000          00000000000000000000000000000000000000000000 000000000000000A000000000000000000000000000000000000000000000 000000000000000000000000000000000000000     00000000                                                                                                                        000000000000000000
F0010000010179800004000089010260300023658300000000000000000201706270002001FEDERICO OSORIO A. S.A.                           C000000000000000000000000000000000100010010000000000000000000000F0010000010179800420170627000101 00000000000000000000000000000000000000000000000000000000000000000000000000000000000000000000000000000000000000000N 00000000000NCONT   00    00000000000          00000000000000000000000000000000000000000000 000000000000000A000000000000000000000000000000000000000000000 000000000000000000000000000000000000000     00000000                                                                                                                        000000000000000000
F0010000010179800005000089010260300013552100000000000000000201706270002001FEDERICO OSORIO A. S.A.                           D000000000000000000000000000000000100010010000000000000000000000F0010000010179800520170627000101 00000000000000000000000000000000000000000000000000000000000000000000000000000000000000000000000000000000000000000N 00000000000NCONT   00    00000000000          00000000000000000000000000000000000000000000 000000000000000A000000000000000000000000000000000000000000000 000000000000000000000000000000000000000     00000000                                                                                                                        000000000000000000
F0010000010179900001000089010260300013050500000000000000000201706270002001FEDERICO OSORIO A. S.A.                           D000000134566200000000000000000000100010010000000000000000000000F0010000010179900120170627000101 00000000000000000000000000000000000000000000000000000000000000000000000000000000000000000000000000000000000000000N 00000000000NCONT   00    00000000000          00000000000000000000000000000000000000000000 000000000000000A000000000000000000000000000000000000000000000 000000000000000000000000000000000000000     00000000                                                                                                                        000000000000000000
F0010000010179900002000089010260300041450500000000000000000201706270002001FEDERICO OSORIO A. S.A.                           C000000127410000000000000000000000100010010000000000000000000000F0010000010179900220170627000101 00000000000000000000000000000000000000000000000000000000000000000000000000000000000000000000000000000000000000000N 00000000000NCONT   00    00000000000          00000000000000000000000000000000000000000000 000000000000000A000000000000000000000000000000000000000000000 000000000000000000000000000000000000000     00000000                                                                                                                        000000000000000000
F0010000010179900003000089010260300042505000000000000000000201706270002001FEDERICO OSORIO A. S.A.                           C000000007156200000000000000000000100010010000000000000000000000F0010000010179900320170627000101 00000000000000000000000000000000000000000000000000000000000000000000000000000000000000000000000000000000000000000N 00000000000NCONT   00    00000000000          00000000000000000000000000000000000000000000 000000000000000A000000000000000000000000000000000000000000000 000000000000000000000000000000000000000     00000000                                                                                                                        000000000000000000
F0010000010179900004000089010260300023658300000000000000000201706270002001FEDERICO OSORIO A. S.A.                           C000000000000000000000000000000000100010010000000000000000000000F0010000010179900420170627000101 00000000000000000000000000000000000000000000000000000000000000000000000000000000000000000000000000000000000000000N 00000000000NCONT   00    00000000000          00000000000000000000000000000000000000000000 000000000000000A000000000000000000000000000000000000000000000 000000000000000000000000000000000000000     00000000                                                                                                                        000000000000000000
F0010000010179900005000089010260300013552100000000000000000201706270002001FEDERICO OSORIO A. S.A.                           D000000000000000000000000000000000100010010000000000000000000000F0010000010179900520170627000101 00000000000000000000000000000000000000000000000000000000000000000000000000000000000000000000000000000000000000000N 00000000000NCONT   00    00000000000          00000000000000000000000000000000000000000000 000000000000000A000000000000000000000000000000000000000000000 000000000000000000000000000000000000000     00000000                                                                                                                        000000000000000000
F0010000010180000001000080202094000013050500000000000000000201706270002001DISTRIB. OMAR ORREGO S.A.                         D000000067161900000000000000000000100010010000000000000000000000F0010000010180000120170627000101 00000000000000000000000000000000000000000000000000000000000000000000000000000000000000000000000000000000000000000N 00000000000NCONT   00    00000000000          00000000000000000000000000000000000000000000 000000000000000A000000000000000000000000000000000000000000000 000000000000000000000000000000000000000     00000000                                                                                                                        000000000000000000
F0010000010180000002000080202094000041450500000000000000000201706270002001DISTRIB. OMAR ORREGO S.A.                         C000000046440000000000000000000000100010010000000000000000000000F0010000010180000220170627000101 00000000000000000000000000000000000000000000000000000000000000000000000000000000000000000000000000000000000000000N 00000000000NCONT   00    00000000000          00000000000000000000000000000000000000000000 000000000000000A000000000000000000000000000000000000000000000 000000000000000000000000000000000000000     00000000                                                                                                                        000000000000000000
F0010000010180000003000080202094000042505000000000000000000201706270002001DISTRIB. OMAR ORREGO S.A.                         C000000020721900000000000000000000100010010000000000000000000000F0010000010180000320170627000101 00000000000000000000000000000000000000000000000000000000000000000000000000000000000000000000000000000000000000000N 00000000000NCONT   00    00000000000          00000000000000000000000000000000000000000000 000000000000000A000000000000000000000000000000000000000000000 000000000000000000000000000000000000000     00000000                                                                                                                        000000000000000000
F0010000010180000004000080202094000023658300000000000000000201706270002001DISTRIB. OMAR ORREGO S.A.                         C000000000000000000000000000000000100010010000000000000000000000F0010000010180000420170627000101 00000000000000000000000000000000000000000000000000000000000000000000000000000000000000000000000000000000000000000N 00000000000NCONT   00    00000000000          00000000000000000000000000000000000000000000 000000000000000A000000000000000000000000000000000000000000000 000000000000000000000000000000000000000     00000000                                                                                                                        000000000000000000
F0010000010180000005000080202094000013552100000000000000000201706270002001DISTRIB. OMAR ORREGO S.A.                         D000000000000000000000000000000000100010010000000000000000000000F0010000010180000520170627000101 00000000000000000000000000000000000000000000000000000000000000000000000000000000000000000000000000000000000000000N 00000000000NCONT   00    00000000000          00000000000000000000000000000000000000000000 000000000000000A000000000000000000000000000000000000000000000 000000000000000000000000000000000000000     00000000                                                                                                                        000000000000000000
F0010000010180100001000080202094000013050500000000000000000201706270002001DISTRIB. OMAR ORREGO S.A.                         D000000018646600000000000000000000100010010000000000000000000000F0010000010180100120170627000101 00000000000000000000000000000000000000000000000000000000000000000000000000000000000000000000000000000000000000000N 00000000000NCONT   00    00000000000          00000000000000000000000000000000000000000000 000000000000000A000000000000000000000000000000000000000000000 000000000000000000000000000000000000000     00000000                                                                                                                        000000000000000000
F0010000010180100002000080202094000041450500000000000000000201706270002001DISTRIB. OMAR ORREGO S.A.                         C000000009840000000000000000000000100010010000000000000000000000F0010000010180100220170627000101 00000000000000000000000000000000000000000000000000000000000000000000000000000000000000000000000000000000000000000N 00000000000NCONT   00    00000000000          00000000000000000000000000000000000000000000 000000000000000A000000000000000000000000000000000000000000000 000000000000000000000000000000000000000     00000000                                                                                                                        000000000000000000
F0010000010180100003000080202094000042505000000000000000000201706270002001DISTRIB. OMAR ORREGO S.A.                         C000000008806600000000000000000000100010010000000000000000000000F0010000010180100320170627000101 00000000000000000000000000000000000000000000000000000000000000000000000000000000000000000000000000000000000000000N 00000000000NCONT   00    00000000000          00000000000000000000000000000000000000000000 000000000000000A000000000000000000000000000000000000000000000 000000000000000000000000000000000000000     00000000                                                                                                                        000000000000000000
F0010000010180100004000080202094000023658300000000000000000201706270002001DISTRIB. OMAR ORREGO S.A.                         C000000000000000000000000000000000100010010000000000000000000000F0010000010180100420170627000101 00000000000000000000000000000000000000000000000000000000000000000000000000000000000000000000000000000000000000000N 00000000000NCONT   00    00000000000          00000000000000000000000000000000000000000000 000000000000000A000000000000000000000000000000000000000000000 000000000000000000000000000000000000000     00000000                                                                                                                        000000000000000000
F0010000010180100005000080202094000013552100000000000000000201706270002001DISTRIB. OMAR ORREGO S.A.                         D000000000000000000000000000000000100010010000000000000000000000F0010000010180100520170627000101 00000000000000000000000000000000000000000000000000000000000000000000000000000000000000000000000000000000000000000N 00000000000NCONT   00    00000000000          00000000000000000000000000000000000000000000 000000000000000A000000000000000000000000000000000000000000000 000000000000000000000000000000000000000     00000000                                                                                                                        000000000000000000
F0010000010180200001000090008711200013050500000000000000000201706270002001PACKAGING SUPPLIERS S.A.S                         D000000101615200000000000000000000100010010000000000000000000000F0010000010180200120170627000101 00000000000000000000000000000000000000000000000000000000000000000000000000000000000000000000000000000000000000000N 00000000000NCONT   00    00000000000          00000000000000000000000000000000000000000000 000000000000000A000000000000000000000000000000000000000000000 000000000000000000000000000000000000000     00000000                                                                                                                        000000000000000000
F0010000010180200002000090008711200041450500000000000000000201706270002001PACKAGING SUPPLIERS S.A.S                         C000000090393200000000000000000000100010010000000000000000000000F0010000010180200220170627000101 00000000000000000000000000000000000000000000000000000000000000000000000000000000000000000000000000000000000000000N 00000000000NCONT   00    00000000000          00000000000000000000000000000000000000000000 000000000000000A000000000000000000000000000000000000000000000 000000000000000000000000000000000000000     00000000                                                                                                                        000000000000000000
F0010000010180200003000090008711200042505000000000000000000201706270002001PACKAGING SUPPLIERS S.A.S                         C000000011222000000000000000000000100010010000000000000000000000F0010000010180200320170627000101 00000000000000000000000000000000000000000000000000000000000000000000000000000000000000000000000000000000000000000N 00000000000NCONT   00    00000000000          00000000000000000000000000000000000000000000 000000000000000A000000000000000000000000000000000000000000000 000000000000000000000000000000000000000     00000000                                                                                                                        000000000000000000
F0010000010180200004000090008711200023658300000000000000000201706270002001PACKAGING SUPPLIERS S.A.S                         C000000000000000000000000000000000100010010000000000000000000000F0010000010180200420170627000101 00000000000000000000000000000000000000000000000000000000000000000000000000000000000000000000000000000000000000000N 00000000000NCONT   00    00000000000          00000000000000000000000000000000000000000000 000000000000000A000000000000000000000000000000000000000000000 000000000000000000000000000000000000000     00000000                                                                                                                        000000000000000000
F0010000010180200005000090008711200013552100000000000000000201706270002001PACKAGING SUPPLIERS S.A.S                         D000000000000000000000000000000000100010010000000000000000000000F0010000010180200520170627000101 00000000000000000000000000000000000000000000000000000000000000000000000000000000000000000000000000000000000000000N 00000000000NCONT   00    00000000000          00000000000000000000000000000000000000000000 000000000000000A000000000000000000000000000000000000000000000 000000000000000000000000000000000000000     00000000                                                                                                                        000000000000000000
F0010000010180300001000090008711200013050500000000000000000201706270002001PACKAGING SUPPLIERS S.A.S                         D000000070953900000000000000000000100010010000000000000000000000F0010000010180300120170627000101 00000000000000000000000000000000000000000000000000000000000000000000000000000000000000000000000000000000000000000N 00000000000NCONT   00    00000000000          00000000000000000000000000000000000000000000 000000000000000A000000000000000000000000000000000000000000000 000000000000000000000000000000000000000     00000000                                                                                                                        000000000000000000
F0010000010180300002000090008711200041450500000000000000000201706270002001PACKAGING SUPPLIERS S.A.S                         C000000057817400000000000000000000100010010000000000000000000000F0010000010180300220170627000101 00000000000000000000000000000000000000000000000000000000000000000000000000000000000000000000000000000000000000000N 00000000000NCONT   00    00000000000          00000000000000000000000000000000000000000000 000000000000000A000000000000000000000000000000000000000000000 000000000000000000000000000000000000000     00000000                                                                                                                        000000000000000000
F0010000010180300003000090008711200042505000000000000000000201706270002001PACKAGING SUPPLIERS S.A.S                         C000000013136500000000000000000000100010010000000000000000000000F0010000010180300320170627000101 00000000000000000000000000000000000000000000000000000000000000000000000000000000000000000000000000000000000000000N 00000000000NCONT   00    00000000000          00000000000000000000000000000000000000000000 000000000000000A000000000000000000000000000000000000000000000 000000000000000000000000000000000000000     00000000                                                                                                                        000000000000000000
F0010000010180300004000090008711200023658300000000000000000201706270002001PACKAGING SUPPLIERS S.A.S                         C000000000000000000000000000000000100010010000000000000000000000F0010000010180300420170627000101 00000000000000000000000000000000000000000000000000000000000000000000000000000000000000000000000000000000000000000N 00000000000NCONT   00    00000000000          00000000000000000000000000000000000000000000 000000000000000A000000000000000000000000000000000000000000000 000000000000000000000000000000000000000     00000000                                                                                                                        000000000000000000
F0010000010180300005000090008711200013552100000000000000000201706270002001PACKAGING SUPPLIERS S.A.S                         D000000000000000000000000000000000100010010000000000000000000000F0010000010180300520170627000101 00000000000000000000000000000000000000000000000000000000000000000000000000000000000000000000000000000000000000000N 00000000000NCONT   00    00000000000          00000000000000000000000000000000000000000000 000000000000000A000000000000000000000000000000000000000000000 000000000000000000000000000000000000000     00000000                                                                                                                        000000000000000000
F0010000010180400001000080201112800013050500000000000000000201706270002001CANGURO INTERNATIONAL S.A.                        D000000175339300000000000000000000100010010000000000000000000000F0010000010180400120170627000101 00000000000000000000000000000000000000000000000000000000000000000000000000000000000000000000000000000000000000000N 00000000000NCONT   00    00000000000          00000000000000000000000000000000000000000000 000000000000000A000000000000000000000000000000000000000000000 000000000000000000000000000000000000000     00000000                                                                                                                        000000000000000000
F0010000010180400002000080201112800041450500000000000000000201706270002001CANGURO INTERNATIONAL S.A.                        C000000168400700000000000000000000100010010000000000000000000000F0010000010180400220170627000101 00000000000000000000000000000000000000000000000000000000000000000000000000000000000000000000000000000000000000000N 00000000000NCONT   00    00000000000          00000000000000000000000000000000000000000000 000000000000000A000000000000000000000000000000000000000000000 000000000000000000000000000000000000000     00000000                                                                                                                        000000000000000000
F0010000010180400003000080201112800042505000000000000000000201706270002001CANGURO INTERNATIONAL S.A.                        C000000006938600000000000000000000100010010000000000000000000000F0010000010180400320170627000101 00000000000000000000000000000000000000000000000000000000000000000000000000000000000000000000000000000000000000000N 00000000000NCONT   00    00000000000          00000000000000000000000000000000000000000000 000000000000000A000000000000000000000000000000000000000000000 000000000000000000000000000000000000000     00000000                                                                                                                        000000000000000000
F0010000010180400004000080201112800023658300000000000000000201706270002001CANGURO INTERNATIONAL S.A.                        C000000000000000000000000000000000100010010000000000000000000000F0010000010180400420170627000101 00000000000000000000000000000000000000000000000000000000000000000000000000000000000000000000000000000000000000000N 00000000000NCONT   00    00000000000          00000000000000000000000000000000000000000000 000000000000000A000000000000000000000000000000000000000000000 000000000000000000000000000000000000000     00000000                                                                                                                        000000000000000000
F0010000010180400005000080201112800013552100000000000000000201706270002001CANGURO INTERNATIONAL S.A.                        D000000000000000000000000000000000100010010000000000000000000000F0010000010180400520170627000101 00000000000000000000000000000000000000000000000000000000000000000000000000000000000000000000000000000000000000000N 00000000000NCONT   00    00000000000          00000000000000000000000000000000000000000000 000000000000000A000000000000000000000000000000000000000000000 000000000000000000000000000000000000000     00000000                                                                                                                        000000000000000000
F0010000010180500001000080201112800013050500000000000000000201706270002001CANGURO INTERNATIONAL S.A.                        D000000056005900000000000000000000100010010000000000000000000000F0010000010180500120170627000101 00000000000000000000000000000000000000000000000000000000000000000000000000000000000000000000000000000000000000000N 00000000000NCONT   00    00000000000          00000000000000000000000000000000000000000000 000000000000000A000000000000000000000000000000000000000000000 000000000000000000000000000000000000000     00000000                                                                                                                        000000000000000000
F0010000010180500002000080201112800041450500000000000000000201706270002001CANGURO INTERNATIONAL S.A.                        C000000054566300000000000000000000100010010000000000000000000000F0010000010180500220170627000101 00000000000000000000000000000000000000000000000000000000000000000000000000000000000000000000000000000000000000000N 00000000000NCONT   00    00000000000          00000000000000000000000000000000000000000000 000000000000000A000000000000000000000000000000000000000000000 000000000000000000000000000000000000000     00000000                                                                                                                        000000000000000000
F0010000010180500003000080201112800042505000000000000000000201706270002001CANGURO INTERNATIONAL S.A.                        C000000001439600000000000000000000100010010000000000000000000000F0010000010180500320170627000101 00000000000000000000000000000000000000000000000000000000000000000000000000000000000000000000000000000000000000000N 00000000000NCONT   00    00000000000          00000000000000000000000000000000000000000000 000000000000000A000000000000000000000000000000000000000000000 000000000000000000000000000000000000000     00000000                                                                                                                        000000000000000000
F0010000010180500004000080201112800023658300000000000000000201706270002001CANGURO INTERNATIONAL S.A.                        C000000000000000000000000000000000100010010000000000000000000000F0010000010180500420170627000101 00000000000000000000000000000000000000000000000000000000000000000000000000000000000000000000000000000000000000000N 00000000000NCONT   00    00000000000          00000000000000000000000000000000000000000000 000000000000000A000000000000000000000000000000000000000000000 000000000000000000000000000000000000000     00000000                                                                                                                        000000000000000000
F0010000010180500005000080201112800013552100000000000000000201706270002001CANGURO INTERNATIONAL S.A.                        D000000000000000000000000000000000100010010000000000000000000000F0010000010180500520170627000101 00000000000000000000000000000000000000000000000000000000000000000000000000000000000000000000000000000000000000000N 00000000000NCONT   00    00000000000          00000000000000000000000000000000000000000000 000000000000000A000000000000000000000000000000000000000000000 000000000000000000000000000000000000000     00000000                                                                                                                        000000000000000000
F0010000010180600001000080201112800013050500000000000000000201706270002001CANGURO INTERNATIONAL S.A.                        D000000012530000000000000000000000100010010000000000000000000000F0010000010180600120170627000101 00000000000000000000000000000000000000000000000000000000000000000000000000000000000000000000000000000000000000000N 00000000000NCONT   00    00000000000          00000000000000000000000000000000000000000000 000000000000000A000000000000000000000000000000000000000000000 000000000000000000000000000000000000000     00000000                                                                                                                        000000000000000000
F0010000010180600002000080201112800041450500000000000000000201706270002001CANGURO INTERNATIONAL S.A.                        C000000012530000000000000000000000100010010000000000000000000000F0010000010180600220170627000101 00000000000000000000000000000000000000000000000000000000000000000000000000000000000000000000000000000000000000000N 00000000000NCONT   00    00000000000          00000000000000000000000000000000000000000000 000000000000000A000000000000000000000000000000000000000000000 000000000000000000000000000000000000000     00000000                                                                                                                        000000000000000000
F0010000010180600003000080201112800042505000000000000000000201706270002001CANGURO INTERNATIONAL S.A.                        C000000000000000000000000000000000100010010000000000000000000000F0010000010180600320170627000101 00000000000000000000000000000000000000000000000000000000000000000000000000000000000000000000000000000000000000000N 00000000000NCONT   00    00000000000          00000000000000000000000000000000000000000000 000000000000000A000000000000000000000000000000000000000000000 000000000000000000000000000000000000000     00000000                                                                                                                        000000000000000000
F0010000010180600004000080201112800023658300000000000000000201706270002001CANGURO INTERNATIONAL S.A.                        C000000000000000000000000000000000100010010000000000000000000000F0010000010180600420170627000101 00000000000000000000000000000000000000000000000000000000000000000000000000000000000000000000000000000000000000000N 00000000000NCONT   00    00000000000          00000000000000000000000000000000000000000000 000000000000000A000000000000000000000000000000000000000000000 000000000000000000000000000000000000000     00000000                                                                                                                        000000000000000000
F0010000010180600005000080201112800013552100000000000000000201706270002001CANGURO INTERNATIONAL S.A.                        D000000000000000000000000000000000100010010000000000000000000000F0010000010180600520170627000101 00000000000000000000000000000000000000000000000000000000000000000000000000000000000000000000000000000000000000000N 00000000000NCONT   00    00000000000          00000000000000000000000000000000000000000000 000000000000000A000000000000000000000000000000000000000000000 000000000000000000000000000000000000000     00000000                                                                                                                        000000000000000000
F0010000010180700001000090047878200013050500000000000000000201706270002001GRUMAD SAS                                        D000000023000000000000000000000000100010010000000000000000000000F0010000010180700120170627000101 00000000000000000000000000000000000000000000000000000000000000000000000000000000000000000000000000000000000000000N 00000000000NCONT   00    00000000000          00000000000000000000000000000000000000000000 000000000000000A000000000000000000000000000000000000000000000 000000000000000000000000000000000000000     00000000                                                                                                                        000000000000000000
F0010000010180700002000090047878200041450500000000000000000201706270002001GRUMAD SAS                                        C000000021000000000000000000000000100010010000000000000000000000F0010000010180700220170627000101 00000000000000000000000000000000000000000000000000000000000000000000000000000000000000000000000000000000000000000N 00000000000NCONT   00    00000000000          00000000000000000000000000000000000000000000 000000000000000A000000000000000000000000000000000000000000000 000000000000000000000000000000000000000     00000000                                                                                                                        000000000000000000
F0010000010180700003000090047878200042505000000000000000000201706270002001GRUMAD SAS                                        C000000002000000000000000000000000100010010000000000000000000000F0010000010180700320170627000101 00000000000000000000000000000000000000000000000000000000000000000000000000000000000000000000000000000000000000000N 00000000000NCONT   00    00000000000          00000000000000000000000000000000000000000000 000000000000000A000000000000000000000000000000000000000000000 000000000000000000000000000000000000000     00000000                                                                                                                        000000000000000000
F0010000010180700004000090047878200023658300000000000000000201706270002001GRUMAD SAS                                        C000000000000000000000000000000000100010010000000000000000000000F0010000010180700420170627000101 00000000000000000000000000000000000000000000000000000000000000000000000000000000000000000000000000000000000000000N 00000000000NCONT   00    00000000000          00000000000000000000000000000000000000000000 000000000000000A000000000000000000000000000000000000000000000 000000000000000000000000000000000000000     00000000                                                                                                                        000000000000000000
F0010000010180700005000090047878200013552100000000000000000201706270002001GRUMAD SAS                                        D000000000000000000000000000000000100010010000000000000000000000F0010000010180700520170627000101 00000000000000000000000000000000000000000000000000000000000000000000000000000000000000000000000000000000000000000N 00000000000NCONT   00    00000000000          00000000000000000000000000000000000000000000 000000000000000A000000000000000000000000000000000000000000000 000000000000000000000000000000000000000     00000000                                                                                                                        000000000000000000
F0010000010180800001000090067091400013050500000000000000000201706270002001COMERCIALIZADORA ESCOBAR ORTIZ                    D000000021006000000000000000000000100010010000000000000000000000F0010000010180800120170627000101 00000000000000000000000000000000000000000000000000000000000000000000000000000000000000000000000000000000000000000N 00000000000NCONT   00    00000000000          00000000000000000000000000000000000000000000 000000000000000A000000000000000000000000000000000000000000000 000000000000000000000000000000000000000     00000000                                                                                                                        000000000000000000
F0010000010180800002000090067091400041450500000000000000000201706270002001COMERCIALIZADORA ESCOBAR ORTIZ                    C000000010550000000000000000000000100010010000000000000000000000F0010000010180800220170627000101 00000000000000000000000000000000000000000000000000000000000000000000000000000000000000000000000000000000000000000N 00000000000NCONT   00    00000000000          00000000000000000000000000000000000000000000 000000000000000A000000000000000000000000000000000000000000000 000000000000000000000000000000000000000     00000000                                                                                                                        000000000000000000
F0010000010180800003000090067091400042505000000000000000000201706270002001COMERCIALIZADORA ESCOBAR ORTIZ                    C000000010456000000000000000000000100010010000000000000000000000F0010000010180800320170627000101 00000000000000000000000000000000000000000000000000000000000000000000000000000000000000000000000000000000000000000N 00000000000NCONT   00    00000000000          00000000000000000000000000000000000000000000 000000000000000A000000000000000000000000000000000000000000000 000000000000000000000000000000000000000     00000000                                                                                                                        000000000000000000
F0010000010180800004000090067091400023658300000000000000000201706270002001COMERCIALIZADORA ESCOBAR ORTIZ                    C000000000000000000000000000000000100010010000000000000000000000F0010000010180800420170627000101 00000000000000000000000000000000000000000000000000000000000000000000000000000000000000000000000000000000000000000N 00000000000NCONT   00    00000000000          00000000000000000000000000000000000000000000 000000000000000A000000000000000000000000000000000000000000000 000000000000000000000000000000000000000     00000000                                                                                                                        000000000000000000
F0010000010180800005000090067091400013552100000000000000000201706270002001COMERCIALIZADORA ESCOBAR ORTIZ                    D000000000000000000000000000000000100010010000000000000000000000F0010000010180800520170627000101 00000000000000000000000000000000000000000000000000000000000000000000000000000000000000000000000000000000000000000N 00000000000NCONT   00    00000000000          00000000000000000000000000000000000000000000 000000000000000A000000000000000000000000000000000000000000000 000000000000000000000000000000000000000     00000000                                                                                                                        000000000000000000
F0010000010180900001000089011078600013050500000000000000000201706270002001DIST. NUEVO MUNDO S.A.S.                          D000000012240200000000000000000000100010010000000000000000000000F0010000010180900120170627000101 00000000000000000000000000000000000000000000000000000000000000000000000000000000000000000000000000000000000000000N 00000000000NCONT   00    00000000000          00000000000000000000000000000000000000000000 000000000000000A000000000000000000000000000000000000000000000 000000000000000000000000000000000000000     00000000                                                                                                                        000000000000000000
F0010000010180900002000089011078600041450500000000000000000201706270002001DIST. NUEVO MUNDO S.A.S.                          C000000011340000000000000000000000100010010000000000000000000000F0010000010180900220170627000101 00000000000000000000000000000000000000000000000000000000000000000000000000000000000000000000000000000000000000000N 00000000000NCONT   00    00000000000          00000000000000000000000000000000000000000000 000000000000000A000000000000000000000000000000000000000000000 000000000000000000000000000000000000000     00000000                                                                                                                        000000000000000000
F0010000010180900003000089011078600042505000000000000000000201706270002001DIST. NUEVO MUNDO S.A.S.                          C000000000900200000000000000000000100010010000000000000000000000F0010000010180900320170627000101 00000000000000000000000000000000000000000000000000000000000000000000000000000000000000000000000000000000000000000N 00000000000NCONT   00    00000000000          00000000000000000000000000000000000000000000 000000000000000A000000000000000000000000000000000000000000000 000000000000000000000000000000000000000     00000000                                                                                                                        000000000000000000
F0010000010180900004000089011078600023658300000000000000000201706270002001DIST. NUEVO MUNDO S.A.S.                          C000000000000000000000000000000000100010010000000000000000000000F0010000010180900420170627000101 00000000000000000000000000000000000000000000000000000000000000000000000000000000000000000000000000000000000000000N 00000000000NCONT   00    00000000000          00000000000000000000000000000000000000000000 000000000000000A000000000000000000000000000000000000000000000 000000000000000000000000000000000000000     00000000                                                                                                                        000000000000000000
F0010000010180900005000089011078600013552100000000000000000201706270002001DIST. NUEVO MUNDO S.A.S.                          D000000000000000000000000000000000100010010000000000000000000000F0010000010180900520170627000101 00000000000000000000000000000000000000000000000000000000000000000000000000000000000000000000000000000000000000000N 00000000000NCONT   00    00000000000          00000000000000000000000000000000000000000000 000000000000000A000000000000000000000000000000000000000000000 000000000000000000000000000000000000000     00000000                                                                                                                        000000000000000000
F0010000010181000001000090038852800013050500000000000000000201706270002001EL COMERCIO ELECTRICO DE LA CO                    D000000031970000000000000000000000100010010000000000000000000000F0010000010181000120170627000101 00000000000000000000000000000000000000000000000000000000000000000000000000000000000000000000000000000000000000000N 00000000000NCONT   00    00000000000          00000000000000000000000000000000000000000000 000000000000000A000000000000000000000000000000000000000000000 000000000000000000000000000000000000000     00000000                                                                                                                        000000000000000000
F0010000010181000002000090038852800041450500000000000000000201706270002001EL COMERCIO ELECTRICO DE LA CO                    C000000026490000000000000000000000100010010000000000000000000000F0010000010181000220170627000101 00000000000000000000000000000000000000000000000000000000000000000000000000000000000000000000000000000000000000000N 00000000000NCONT   00    00000000000          00000000000000000000000000000000000000000000 000000000000000A000000000000000000000000000000000000000000000 000000000000000000000000000000000000000     00000000                                                                                                                        000000000000000000
F0010000010181000003000090038852800042505000000000000000000201706270002001EL COMERCIO ELECTRICO DE LA CO                    C000000005480000000000000000000000100010010000000000000000000000F0010000010181000320170627000101 00000000000000000000000000000000000000000000000000000000000000000000000000000000000000000000000000000000000000000N 00000000000NCONT   00    00000000000          00000000000000000000000000000000000000000000 000000000000000A000000000000000000000000000000000000000000000 000000000000000000000000000000000000000     00000000                                                                                                                        000000000000000000
F0010000010181000004000090038852800023658300000000000000000201706270002001EL COMERCIO ELECTRICO DE LA CO                    C000000000000000000000000000000000100010010000000000000000000000F0010000010181000420170627000101 00000000000000000000000000000000000000000000000000000000000000000000000000000000000000000000000000000000000000000N 00000000000NCONT   00    00000000000          00000000000000000000000000000000000000000000 000000000000000A000000000000000000000000000000000000000000000 000000000000000000000000000000000000000     00000000                                                                                                                        000000000000000000
F0010000010181000005000090038852800013552100000000000000000201706270002001EL COMERCIO ELECTRICO DE LA CO                    D000000000000000000000000000000000100010010000000000000000000000F0010000010181000520170627000101 00000000000000000000000000000000000000000000000000000000000000000000000000000000000000000000000000000000000000000N 00000000000NCONT   00    00000000000          00000000000000000000000000000000000000000000 000000000000000A000000000000000000000000000000000000000000000 000000000000000000000000000000000000000     00000000                                                                                                                        000000000000000000
F0010000010181100001000090063628300013050500000000000000000201706270002001INVERSIONES RADELCA S.A.S.                        D000000055800000000000000000000000100010010000000000000000000000F0010000010181100120170627000101 00000000000000000000000000000000000000000000000000000000000000000000000000000000000000000000000000000000000000000N 00000000000NCONT   00    00000000000          00000000000000000000000000000000000000000000 000000000000000A000000000000000000000000000000000000000000000 000000000000000000000000000000000000000     00000000                                                                                                                        000000000000000000
F0010000010181100002000090063628300041450500000000000000000201706270002001INVERSIONES RADELCA S.A.S.                        C000000052800000000000000000000000100010010000000000000000000000F0010000010181100220170627000101 00000000000000000000000000000000000000000000000000000000000000000000000000000000000000000000000000000000000000000N 00000000000NCONT   00    00000000000          00000000000000000000000000000000000000000000 000000000000000A000000000000000000000000000000000000000000000 000000000000000000000000000000000000000     00000000                                                                                                                        000000000000000000
F0010000010181100003000090063628300042505000000000000000000201706270002001INVERSIONES RADELCA S.A.S.                        C000000003000000000000000000000000100010010000000000000000000000F0010000010181100320170627000101 00000000000000000000000000000000000000000000000000000000000000000000000000000000000000000000000000000000000000000N 00000000000NCONT   00    00000000000          00000000000000000000000000000000000000000000 000000000000000A000000000000000000000000000000000000000000000 000000000000000000000000000000000000000     00000000                                                                                                                        000000000000000000
F0010000010181100004000090063628300023658300000000000000000201706270002001INVERSIONES RADELCA S.A.S.                        C000000000000000000000000000000000100010010000000000000000000000F0010000010181100420170627000101 00000000000000000000000000000000000000000000000000000000000000000000000000000000000000000000000000000000000000000N 00000000000NCONT   00    00000000000          00000000000000000000000000000000000000000000 000000000000000A000000000000000000000000000000000000000000000 000000000000000000000000000000000000000     00000000                                                                                                                        000000000000000000
F0010000010181100005000090063628300013552100000000000000000201706270002001INVERSIONES RADELCA S.A.S.                        D000000000000000000000000000000000100010010000000000000000000000F0010000010181100520170627000101 00000000000000000000000000000000000000000000000000000000000000000000000000000000000000000000000000000000000000000N 00000000000NCONT   00    00000000000          00000000000000000000000000000000000000000000 000000000000000A000000000000000000000000000000000000000000000 000000000000000000000000000000000000000     00000000                                                                                                                        000000000000000000
F0010000010181200001000001022529300013050500000000000000000201706270002001ALBERTO ALVAREZ ISAZA                             D000000010340000000000000000000000100010010000000000000000000000F0010000010181200120170627000101 00000000000000000000000000000000000000000000000000000000000000000000000000000000000000000000000000000000000000000N 00000000000NCONT   00    00000000000          00000000000000000000000000000000000000000000 000000000000000A000000000000000000000000000000000000000000000 000000000000000000000000000000000000000     00000000                                                                                                                        000000000000000000
F0010000010181200002000001022529300041450500000000000000000201706270002001ALBERTO ALVAREZ ISAZA                             C000000010340000000000000000000000100010010000000000000000000000F0010000010181200220170627000101 00000000000000000000000000000000000000000000000000000000000000000000000000000000000000000000000000000000000000000N 00000000000NCONT   00    00000000000          00000000000000000000000000000000000000000000 000000000000000A000000000000000000000000000000000000000000000 000000000000000000000000000000000000000     00000000                                                                                                                        000000000000000000
F0010000010181200003000001022529300042505000000000000000000201706270002001ALBERTO ALVAREZ ISAZA                             C000000000000000000000000000000000100010010000000000000000000000F0010000010181200320170627000101 00000000000000000000000000000000000000000000000000000000000000000000000000000000000000000000000000000000000000000N 00000000000NCONT   00    00000000000          00000000000000000000000000000000000000000000 000000000000000A000000000000000000000000000000000000000000000 000000000000000000000000000000000000000     00000000                                                                                                                        000000000000000000
F0010000010181200004000001022529300023658300000000000000000201706270002001ALBERTO ALVAREZ ISAZA                             C000000000000000000000000000000000100010010000000000000000000000F0010000010181200420170627000101 00000000000000000000000000000000000000000000000000000000000000000000000000000000000000000000000000000000000000000N 00000000000NCONT   00    00000000000          00000000000000000000000000000000000000000000 000000000000000A000000000000000000000000000000000000000000000 000000000000000000000000000000000000000     00000000                                                                                                                        000000000000000000
F0010000010181200005000001022529300013552100000000000000000201706270002001ALBERTO ALVAREZ ISAZA                             D000000000000000000000000000000000100010010000000000000000000000F0010000010181200520170627000101 00000000000000000000000000000000000000000000000000000000000000000000000000000000000000000000000000000000000000000N 00000000000NCONT   00    00000000000          00000000000000000000000000000000000000000000 000000000000000A000000000000000000000000000000000000000000000 000000000000000000000000000000000000000     00000000                                                                                                                        000000000000000000
F0010000010181300001000000431178400013050500000000000000000201706270002001EFRAIN ALVAREZ                                    D000000010260000000000000000000000100010010000000000000000000000F0010000010181300120170627000101 00000000000000000000000000000000000000000000000000000000000000000000000000000000000000000000000000000000000000000N 00000000000NCONT   00    00000000000          00000000000000000000000000000000000000000000 000000000000000A000000000000000000000000000000000000000000000 000000000000000000000000000000000000000     00000000                                                                                                                        000000000000000000
F0010000010181300002000000431178400041450500000000000000000201706270002001EFRAIN ALVAREZ                                    C000000009360000000000000000000000100010010000000000000000000000F0010000010181300220170627000101 00000000000000000000000000000000000000000000000000000000000000000000000000000000000000000000000000000000000000000N 00000000000NCONT   00    00000000000          00000000000000000000000000000000000000000000 000000000000000A000000000000000000000000000000000000000000000 000000000000000000000000000000000000000     00000000                                                                                                                        000000000000000000
