F0010000007659600001000080201601700013050500000000000000000201509230002001PLASTICOS SUPERIOR S.A.                           D000000030500000000000000000000000100010010000000000000000000000F0010000007659600120150923000101 00000000000000000000000000000000000000000000000000000000000000000000000000000000000000000000000000000000000000000N 00000000000NCONT   00    00000000000          00000000000000000000000000000000000000000000 000000000000000A000000000000000000000000000000000000000000000 000000000000000000000000000000000000000     00000000                                                                                                                        000000000000000000
F0010000007659600002000080201601700041450500000000000000000201509230002001PLASTICOS SUPERIOR S.A.                           C000000027000000000000000000000000100010010000000000000000000000F0010000007659600220150923000101 00000000000000000000000000000000000000000000000000000000000000000000000000000000000000000000000000000000000000000N 00000000000NCONT   00    00000000000          00000000000000000000000000000000000000000000 000000000000000A000000000000000000000000000000000000000000000 000000000000000000000000000000000000000     00000000                                                                                                                        000000000000000000
F0010000007659600003000080201601700042505000000000000000000201509230002001PLASTICOS SUPERIOR S.A.                           C000000003500000000000000000000000100010010000000000000000000000F0010000007659600320150923000101 00000000000000000000000000000000000000000000000000000000000000000000000000000000000000000000000000000000000000000N 00000000000NCONT   00    00000000000          00000000000000000000000000000000000000000000 000000000000000A000000000000000000000000000000000000000000000 000000000000000000000000000000000000000     00000000                                                                                                                        000000000000000000
F0010000007659600004000080201601700023658300000000000000000201509230002001PLASTICOS SUPERIOR S.A.                           C000000000216000000000000000000000100010010000000000000000000000F0010000007659600420150923000101 00000000000000000000000000000000000000000000000000000000000000000000000000000000000000000000000000000000000000000N 00000000000NCONT   00    00000000000          00000000000000000000000000000000000000000000 000000000000000A000000000000000000000000000000000000000000000 000000000000000000000000000000000000000     00000000                                                                                                                        000000000000000000
F0010000007659600005000080201601700013552100000000000000000201509230002001PLASTICOS SUPERIOR S.A.                           D000000000216000000000000000000000100010010000000000000000000000F0010000007659600520150923000101 00000000000000000000000000000000000000000000000000000000000000000000000000000000000000000000000000000000000000000N 00000000000NCONT   00    00000000000          00000000000000000000000000000000000000000000 000000000000000A000000000000000000000000000000000000000000000 000000000000000000000000000000000000000     00000000                                                                                                                        000000000000000000
F0010000007659700001000089011033000011050500000000000000000201509230002001INDUSTRIAS CRUZ & CAÑON LTDA                     D000000007000000000000000000000000100010010000000000000000000000F0010000007659700120150923000101 00000000000000000000000000000000000000000000000000000000000000000000000000000000000000000000000000000000000000000N 00000000000NCONT   00    00000000000          00000000000000000000000000000000000000000000 000000000000000A000000000000000000000000000000000000000000000 000000000000000000000000000000000000000     00000000                                                                                                                        000000000000000000
F0010000007659700002000089011033000041450500000000000000000201509230002001INDUSTRIAS CRUZ & CAÑON LTDA                     C000000006200000000000000000000000100010010000000000000000000000F0010000007659700220150923000101 00000000000000000000000000000000000000000000000000000000000000000000000000000000000000000000000000000000000000000N 00000000000NCONT   00    00000000000          00000000000000000000000000000000000000000000 000000000000000A000000000000000000000000000000000000000000000 000000000000000000000000000000000000000     00000000                                                                                                                        000000000000000000
F0010000007659700003000089011033000042505000000000000000000201509230002001INDUSTRIAS CRUZ & CAÑON LTDA                     C000000000800000000000000000000000100010010000000000000000000000F0010000007659700320150923000101 00000000000000000000000000000000000000000000000000000000000000000000000000000000000000000000000000000000000000000N 00000000000NCONT   00    00000000000          00000000000000000000000000000000000000000000 000000000000000A000000000000000000000000000000000000000000000 000000000000000000000000000000000000000     00000000                                                                                                                        000000000000000000
F0010000007659700004000089011033000023658300000000000000000201509230002001INDUSTRIAS CRUZ & CAÑON LTDA                     C000000000049600000000000000000000100010010000000000000000000000F0010000007659700420150923000101 00000000000000000000000000000000000000000000000000000000000000000000000000000000000000000000000000000000000000000N 00000000000NCONT   00    00000000000          00000000000000000000000000000000000000000000 000000000000000A000000000000000000000000000000000000000000000 000000000000000000000000000000000000000     00000000                                                                                                                        000000000000000000
F0010000007659700005000089011033000013552100000000000000000201509230002001INDUSTRIAS CRUZ & CAÑON LTDA                     D000000000049600000000000000000000100010010000000000000000000000F0010000007659700520150923000101 00000000000000000000000000000000000000000000000000000000000000000000000000000000000000000000000000000000000000000N 00000000000NCONT   00    00000000000          00000000000000000000000000000000000000000000 000000000000000A000000000000000000000000000000000000000000000 000000000000000000000000000000000000000     00000000                                                                                                                        000000000000000000
F0010000007659800001000090022477100011050500000000000000000201509230002001P.V.C DEL CARIBE                                  D000000045000000000000000000000000100010010000000000000000000000F0010000007659800120150923000101 00000000000000000000000000000000000000000000000000000000000000000000000000000000000000000000000000000000000000000N 00000000000NCONT   00    00000000000          00000000000000000000000000000000000000000000 000000000000000A000000000000000000000000000000000000000000000 000000000000000000000000000000000000000     00000000                                                                                                                        000000000000000000
F0010000007659800002000090022477100041450500000000000000000201509230002001P.V.C DEL CARIBE                                  C000000042000000000000000000000000100010010000000000000000000000F0010000007659800220150923000101 00000000000000000000000000000000000000000000000000000000000000000000000000000000000000000000000000000000000000000N 00000000000NCONT   00    00000000000          00000000000000000000000000000000000000000000 000000000000000A000000000000000000000000000000000000000000000 000000000000000000000000000000000000000     00000000                                                                                                                        000000000000000000
F0010000007659800003000090022477100042505000000000000000000201509230002001P.V.C DEL CARIBE                                  C000000003000000000000000000000000100010010000000000000000000000F0010000007659800320150923000101 00000000000000000000000000000000000000000000000000000000000000000000000000000000000000000000000000000000000000000N 00000000000NCONT   00    00000000000          00000000000000000000000000000000000000000000 000000000000000A000000000000000000000000000000000000000000000 000000000000000000000000000000000000000     00000000                                                                                                                        000000000000000000
F0010000007659800004000090022477100023658300000000000000000201509230002001P.V.C DEL CARIBE                                  C000000000336000000000000000000000100010010000000000000000000000F0010000007659800420150923000101 00000000000000000000000000000000000000000000000000000000000000000000000000000000000000000000000000000000000000000N 00000000000NCONT   00    00000000000          00000000000000000000000000000000000000000000 000000000000000A000000000000000000000000000000000000000000000 000000000000000000000000000000000000000     00000000                                                                                                                        000000000000000000
F0010000007659800005000090022477100013552100000000000000000201509230002001P.V.C DEL CARIBE                                  D000000000336000000000000000000000100010010000000000000000000000F0010000007659800520150923000101 00000000000000000000000000000000000000000000000000000000000000000000000000000000000000000000000000000000000000000N 00000000000NCONT   00    00000000000          00000000000000000000000000000000000000000000 000000000000000A000000000000000000000000000000000000000000000 000000000000000000000000000000000000000     00000000                                                                                                                        000000000000000000
F0010000007659900001000001325248300011050500000000000000000201509230002001DISTRIBUIDORA DE LUBRICANTES LA 37                D000000004100000000000000000000000100010010000000000000000000000F0010000007659900120150923000101 00000000000000000000000000000000000000000000000000000000000000000000000000000000000000000000000000000000000000000N 00000000000NCONT   00    00000000000          00000000000000000000000000000000000000000000 000000000000000A000000000000000000000000000000000000000000000 000000000000000000000000000000000000000     00000000                                                                                                                        000000000000000000
F0010000007659900002000001325248300041450500000000000000000201509230002001DISTRIBUIDORA DE LUBRICANTES LA 37                C000000003600000000000000000000000100010010000000000000000000000F0010000007659900220150923000101 00000000000000000000000000000000000000000000000000000000000000000000000000000000000000000000000000000000000000000N 00000000000NCONT   00    00000000000          00000000000000000000000000000000000000000000 000000000000000A000000000000000000000000000000000000000000000 000000000000000000000000000000000000000     00000000                                                                                                                        000000000000000000
F0010000007659900003000001325248300042505000000000000000000201509230002001DISTRIBUIDORA DE LUBRICANTES LA 37                C000000000500000000000000000000000100010010000000000000000000000F0010000007659900320150923000101 00000000000000000000000000000000000000000000000000000000000000000000000000000000000000000000000000000000000000000N 00000000000NCONT   00    00000000000          00000000000000000000000000000000000000000000 000000000000000A000000000000000000000000000000000000000000000 000000000000000000000000000000000000000     00000000                                                                                                                        000000000000000000
F0010000007659900004000001325248300023658300000000000000000201509230002001DISTRIBUIDORA DE LUBRICANTES LA 37                C000000000028800000000000000000000100010010000000000000000000000F0010000007659900420150923000101 00000000000000000000000000000000000000000000000000000000000000000000000000000000000000000000000000000000000000000N 00000000000NCONT   00    00000000000          00000000000000000000000000000000000000000000 000000000000000A000000000000000000000000000000000000000000000 000000000000000000000000000000000000000     00000000                                                                                                                        000000000000000000
F0010000007659900005000001325248300013552100000000000000000201509230002001DISTRIBUIDORA DE LUBRICANTES LA 37                D000000000028800000000000000000000100010010000000000000000000000F0010000007659900520150923000101 00000000000000000000000000000000000000000000000000000000000000000000000000000000000000000000000000000000000000000N 00000000000NCONT   00    00000000000          00000000000000000000000000000000000000000000 000000000000000A000000000000000000000000000000000000000000000 000000000000000000000000000000000000000     00000000                                                                                                                        000000000000000000
F0010000007660000001000090052543100011050500000000000000000201509230002001SECRET COLOR SAS                                  D000000000310000000000000000000000100010010000000000000000000000F0010000007660000120150923000101 00000000000000000000000000000000000000000000000000000000000000000000000000000000000000000000000000000000000000000N 00000000000NCONT   00    00000000000          00000000000000000000000000000000000000000000 000000000000000A000000000000000000000000000000000000000000000 000000000000000000000000000000000000000     00000000                                                                                                                        000000000000000000
F0010000007660000002000090052543100041450500000000000000000201509230002001SECRET COLOR SAS                                  C000000000210000000000000000000000100010010000000000000000000000F0010000007660000220150923000101 00000000000000000000000000000000000000000000000000000000000000000000000000000000000000000000000000000000000000000N 00000000000NCONT   00    00000000000          00000000000000000000000000000000000000000000 000000000000000A000000000000000000000000000000000000000000000 000000000000000000000000000000000000000     00000000                                                                                                                        000000000000000000
F0010000007660000003000090052543100042505000000000000000000201509230002001SECRET COLOR SAS                                  C000000000100000000000000000000000100010010000000000000000000000F0010000007660000320150923000101 00000000000000000000000000000000000000000000000000000000000000000000000000000000000000000000000000000000000000000N 00000000000NCONT   00    00000000000          00000000000000000000000000000000000000000000 000000000000000A000000000000000000000000000000000000000000000 000000000000000000000000000000000000000     00000000                                                                                                                        000000000000000000
F0010000007660000004000090052543100023658300000000000000000201509230002001SECRET COLOR SAS                                  C000000000001700000000000000000000100010010000000000000000000000F0010000007660000420150923000101 00000000000000000000000000000000000000000000000000000000000000000000000000000000000000000000000000000000000000000N 00000000000NCONT   00    00000000000          00000000000000000000000000000000000000000000 000000000000000A000000000000000000000000000000000000000000000 000000000000000000000000000000000000000     00000000                                                                                                                        000000000000000000
F0010000007660000005000090052543100013552100000000000000000201509230002001SECRET COLOR SAS                                  D000000000001700000000000000000000100010010000000000000000000000F0010000007660000520150923000101 00000000000000000000000000000000000000000000000000000000000000000000000000000000000000000000000000000000000000000N 00000000000NCONT   00    00000000000          00000000000000000000000000000000000000000000 000000000000000A000000000000000000000000000000000000000000000 000000000000000000000000000000000000000     00000000                                                                                                                        000000000000000000
F0010000007660100001000090052543100011050500000000000000000201509230002001SECRET COLOR SAS                                  D000000000350000000000000000000000100010010000000000000000000000F0010000007660100120150923000101 00000000000000000000000000000000000000000000000000000000000000000000000000000000000000000000000000000000000000000N 00000000000NCONT   00    00000000000          00000000000000000000000000000000000000000000 000000000000000A000000000000000000000000000000000000000000000 000000000000000000000000000000000000000     00000000                                                                                                                        000000000000000000
F0010000007660100002000090052543100041450500000000000000000201509230002001SECRET COLOR SAS                                  C000000000250000000000000000000000100010010000000000000000000000F0010000007660100220150923000101 00000000000000000000000000000000000000000000000000000000000000000000000000000000000000000000000000000000000000000N 00000000000NCONT   00    00000000000          00000000000000000000000000000000000000000000 000000000000000A000000000000000000000000000000000000000000000 000000000000000000000000000000000000000     00000000                                                                                                                        000000000000000000
F0010000007660100003000090052543100042505000000000000000000201509230002001SECRET COLOR SAS                                  C000000000100000000000000000000000100010010000000000000000000000F0010000007660100320150923000101 00000000000000000000000000000000000000000000000000000000000000000000000000000000000000000000000000000000000000000N 00000000000NCONT   00    00000000000          00000000000000000000000000000000000000000000 000000000000000A000000000000000000000000000000000000000000000 000000000000000000000000000000000000000     00000000                                                                                                                        000000000000000000
F0010000007660100004000090052543100023658300000000000000000201509230002001SECRET COLOR SAS                                  C000000000002000000000000000000000100010010000000000000000000000F0010000007660100420150923000101 00000000000000000000000000000000000000000000000000000000000000000000000000000000000000000000000000000000000000000N 00000000000NCONT   00    00000000000          00000000000000000000000000000000000000000000 000000000000000A000000000000000000000000000000000000000000000 000000000000000000000000000000000000000     00000000                                                                                                                        000000000000000000
F0010000007660100005000090052543100013552100000000000000000201509230002001SECRET COLOR SAS                                  D000000000002000000000000000000000100010010000000000000000000000F0010000007660100520150923000101 00000000000000000000000000000000000000000000000000000000000000000000000000000000000000000000000000000000000000000N 00000000000NCONT   00    00000000000          00000000000000000000000000000000000000000000 000000000000000A000000000000000000000000000000000000000000000 000000000000000000000000000000000000000     00000000                                                                                                                        000000000000000000
F0010000007660200001000090052543100011050500000000000000000201509230002001SECRET COLOR SAS                                  D000000000350000000000000000000000100010010000000000000000000000F0010000007660200120150923000101 00000000000000000000000000000000000000000000000000000000000000000000000000000000000000000000000000000000000000000N 00000000000NCONT   00    00000000000          00000000000000000000000000000000000000000000 000000000000000A000000000000000000000000000000000000000000000 000000000000000000000000000000000000000     00000000                                                                                                                        000000000000000000
F0010000007660200002000090052543100041450500000000000000000201509230002001SECRET COLOR SAS                                  C000000000250000000000000000000000100010010000000000000000000000F0010000007660200220150923000101 00000000000000000000000000000000000000000000000000000000000000000000000000000000000000000000000000000000000000000N 00000000000NCONT   00    00000000000          00000000000000000000000000000000000000000000 000000000000000A000000000000000000000000000000000000000000000 000000000000000000000000000000000000000     00000000                                                                                                                        000000000000000000
F0010000007660200003000090052543100042505000000000000000000201509230002001SECRET COLOR SAS                                  C000000000100000000000000000000000100010010000000000000000000000F0010000007660200320150923000101 00000000000000000000000000000000000000000000000000000000000000000000000000000000000000000000000000000000000000000N 00000000000NCONT   00    00000000000          00000000000000000000000000000000000000000000 000000000000000A000000000000000000000000000000000000000000000 000000000000000000000000000000000000000     00000000                                                                                                                        000000000000000000
F0010000007660200004000090052543100023658300000000000000000201509230002001SECRET COLOR SAS                                  C000000000002000000000000000000000100010010000000000000000000000F0010000007660200420150923000101 00000000000000000000000000000000000000000000000000000000000000000000000000000000000000000000000000000000000000000N 00000000000NCONT   00    00000000000          00000000000000000000000000000000000000000000 000000000000000A000000000000000000000000000000000000000000000 000000000000000000000000000000000000000     00000000                                                                                                                        000000000000000000
F0010000007660200005000090052543100013552100000000000000000201509230002001SECRET COLOR SAS                                  D000000000002000000000000000000000100010010000000000000000000000F0010000007660200520150923000101 00000000000000000000000000000000000000000000000000000000000000000000000000000000000000000000000000000000000000000N 00000000000NCONT   00    00000000000          00000000000000000000000000000000000000000000 000000000000000A000000000000000000000000000000000000000000000 000000000000000000000000000000000000000     00000000                                                                                                                        000000000000000000
F0010000007660300001000090052543100011050500000000000000000201509230002001SECRET COLOR SAS                                  D000000000350000000000000000000000100010010000000000000000000000F0010000007660300120150923000101 00000000000000000000000000000000000000000000000000000000000000000000000000000000000000000000000000000000000000000N 00000000000NCONT   00    00000000000          00000000000000000000000000000000000000000000 000000000000000A000000000000000000000000000000000000000000000 000000000000000000000000000000000000000     00000000                                                                                                                        000000000000000000
F0010000007660300002000090052543100041450500000000000000000201509230002001SECRET COLOR SAS                                  C000000000250000000000000000000000100010010000000000000000000000F0010000007660300220150923000101 00000000000000000000000000000000000000000000000000000000000000000000000000000000000000000000000000000000000000000N 00000000000NCONT   00    00000000000          00000000000000000000000000000000000000000000 000000000000000A000000000000000000000000000000000000000000000 000000000000000000000000000000000000000     00000000                                                                                                                        000000000000000000
F0010000007660300003000090052543100042505000000000000000000201509230002001SECRET COLOR SAS                                  C000000000100000000000000000000000100010010000000000000000000000F0010000007660300320150923000101 00000000000000000000000000000000000000000000000000000000000000000000000000000000000000000000000000000000000000000N 00000000000NCONT   00    00000000000          00000000000000000000000000000000000000000000 000000000000000A000000000000000000000000000000000000000000000 000000000000000000000000000000000000000     00000000                                                                                                                        000000000000000000
F0010000007660300004000090052543100023658300000000000000000201509230002001SECRET COLOR SAS                                  C000000000002000000000000000000000100010010000000000000000000000F0010000007660300420150923000101 00000000000000000000000000000000000000000000000000000000000000000000000000000000000000000000000000000000000000000N 00000000000NCONT   00    00000000000          00000000000000000000000000000000000000000000 000000000000000A000000000000000000000000000000000000000000000 000000000000000000000000000000000000000     00000000                                                                                                                        000000000000000000
F0010000007660300005000090052543100013552100000000000000000201509230002001SECRET COLOR SAS                                  D000000000002000000000000000000000100010010000000000000000000000F0010000007660300520150923000101 00000000000000000000000000000000000000000000000000000000000000000000000000000000000000000000000000000000000000000N 00000000000NCONT   00    00000000000          00000000000000000000000000000000000000000000 000000000000000A000000000000000000000000000000000000000000000 000000000000000000000000000000000000000     00000000                                                                                                                        000000000000000000
F0010000007660400001000090052543100011050500000000000000000201509230002001SECRET COLOR SAS                                  D000000000350000000000000000000000100010010000000000000000000000F0010000007660400120150923000101 00000000000000000000000000000000000000000000000000000000000000000000000000000000000000000000000000000000000000000N 00000000000NCONT   00    00000000000          00000000000000000000000000000000000000000000 000000000000000A000000000000000000000000000000000000000000000 000000000000000000000000000000000000000     00000000                                                                                                                        000000000000000000
F0010000007660400002000090052543100041450500000000000000000201509230002001SECRET COLOR SAS                                  C000000000250000000000000000000000100010010000000000000000000000F0010000007660400220150923000101 00000000000000000000000000000000000000000000000000000000000000000000000000000000000000000000000000000000000000000N 00000000000NCONT   00    00000000000          00000000000000000000000000000000000000000000 000000000000000A000000000000000000000000000000000000000000000 000000000000000000000000000000000000000     00000000                                                                                                                        000000000000000000
F0010000007660400003000090052543100042505000000000000000000201509230002001SECRET COLOR SAS                                  C000000000100000000000000000000000100010010000000000000000000000F0010000007660400320150923000101 00000000000000000000000000000000000000000000000000000000000000000000000000000000000000000000000000000000000000000N 00000000000NCONT   00    00000000000          00000000000000000000000000000000000000000000 000000000000000A000000000000000000000000000000000000000000000 000000000000000000000000000000000000000     00000000                                                                                                                        000000000000000000
F0010000007660400004000090052543100023658300000000000000000201509230002001SECRET COLOR SAS                                  C000000000002000000000000000000000100010010000000000000000000000F0010000007660400420150923000101 00000000000000000000000000000000000000000000000000000000000000000000000000000000000000000000000000000000000000000N 00000000000NCONT   00    00000000000          00000000000000000000000000000000000000000000 000000000000000A000000000000000000000000000000000000000000000 000000000000000000000000000000000000000     00000000                                                                                                                        000000000000000000
F0010000007660400005000090052543100013552100000000000000000201509230002001SECRET COLOR SAS                                  D000000000002000000000000000000000100010010000000000000000000000F0010000007660400520150923000101 00000000000000000000000000000000000000000000000000000000000000000000000000000000000000000000000000000000000000000N 00000000000NCONT   00    00000000000          00000000000000000000000000000000000000000000 000000000000000A000000000000000000000000000000000000000000000 000000000000000000000000000000000000000     00000000                                                                                                                        000000000000000000
F0010000007660500001000090052543100011050500000000000000000201509230002001SECRET COLOR SAS                                  D000000000350000000000000000000000100010010000000000000000000000F0010000007660500120150923000101 00000000000000000000000000000000000000000000000000000000000000000000000000000000000000000000000000000000000000000N 00000000000NCONT   00    00000000000          00000000000000000000000000000000000000000000 000000000000000A000000000000000000000000000000000000000000000 000000000000000000000000000000000000000     00000000                                                                                                                        000000000000000000
F0010000007660500002000090052543100041450500000000000000000201509230002001SECRET COLOR SAS                                  C000000000250000000000000000000000100010010000000000000000000000F0010000007660500220150923000101 00000000000000000000000000000000000000000000000000000000000000000000000000000000000000000000000000000000000000000N 00000000000NCONT   00    00000000000          00000000000000000000000000000000000000000000 000000000000000A000000000000000000000000000000000000000000000 000000000000000000000000000000000000000     00000000                                                                                                                        000000000000000000
F0010000007660500003000090052543100042505000000000000000000201509230002001SECRET COLOR SAS                                  C000000000100000000000000000000000100010010000000000000000000000F0010000007660500320150923000101 00000000000000000000000000000000000000000000000000000000000000000000000000000000000000000000000000000000000000000N 00000000000NCONT   00    00000000000          00000000000000000000000000000000000000000000 000000000000000A000000000000000000000000000000000000000000000 000000000000000000000000000000000000000     00000000                                                                                                                        000000000000000000
F0010000007660500004000090052543100023658300000000000000000201509230002001SECRET COLOR SAS                                  C000000000002000000000000000000000100010010000000000000000000000F0010000007660500420150923000101 00000000000000000000000000000000000000000000000000000000000000000000000000000000000000000000000000000000000000000N 00000000000NCONT   00    00000000000          00000000000000000000000000000000000000000000 000000000000000A000000000000000000000000000000000000000000000 000000000000000000000000000000000000000     00000000                                                                                                                        000000000000000000
F0010000007660500005000090052543100013552100000000000000000201509230002001SECRET COLOR SAS                                  D000000000002000000000000000000000100010010000000000000000000000F0010000007660500520150923000101 00000000000000000000000000000000000000000000000000000000000000000000000000000000000000000000000000000000000000000N 00000000000NCONT   00    00000000000          00000000000000000000000000000000000000000000 000000000000000A000000000000000000000000000000000000000000000 000000000000000000000000000000000000000     00000000                                                                                                                        000000000000000000
F0010000007660600001000090052543100011050500000000000000000201509230002001SECRET COLOR SAS                                  D000000000350000000000000000000000100010010000000000000000000000F0010000007660600120150923000101 00000000000000000000000000000000000000000000000000000000000000000000000000000000000000000000000000000000000000000N 00000000000NCONT   00    00000000000          00000000000000000000000000000000000000000000 000000000000000A000000000000000000000000000000000000000000000 000000000000000000000000000000000000000     00000000                                                                                                                        000000000000000000
F0010000007660600002000090052543100041450500000000000000000201509230002001SECRET COLOR SAS                                  C000000000250000000000000000000000100010010000000000000000000000F0010000007660600220150923000101 00000000000000000000000000000000000000000000000000000000000000000000000000000000000000000000000000000000000000000N 00000000000NCONT   00    00000000000          00000000000000000000000000000000000000000000 000000000000000A000000000000000000000000000000000000000000000 000000000000000000000000000000000000000     00000000                                                                                                                        000000000000000000
F0010000007660600003000090052543100042505000000000000000000201509230002001SECRET COLOR SAS                                  C000000000100000000000000000000000100010010000000000000000000000F0010000007660600320150923000101 00000000000000000000000000000000000000000000000000000000000000000000000000000000000000000000000000000000000000000N 00000000000NCONT   00    00000000000          00000000000000000000000000000000000000000000 000000000000000A000000000000000000000000000000000000000000000 000000000000000000000000000000000000000     00000000                                                                                                                        000000000000000000
F0010000007660600004000090052543100023658300000000000000000201509230002001SECRET COLOR SAS                                  C000000000002000000000000000000000100010010000000000000000000000F0010000007660600420150923000101 00000000000000000000000000000000000000000000000000000000000000000000000000000000000000000000000000000000000000000N 00000000000NCONT   00    00000000000          00000000000000000000000000000000000000000000 000000000000000A000000000000000000000000000000000000000000000 000000000000000000000000000000000000000     00000000                                                                                                                        000000000000000000
F0010000007660600005000090052543100013552100000000000000000201509230002001SECRET COLOR SAS                                  D000000000002000000000000000000000100010010000000000000000000000F0010000007660600520150923000101 00000000000000000000000000000000000000000000000000000000000000000000000000000000000000000000000000000000000000000N 00000000000NCONT   00    00000000000          00000000000000000000000000000000000000000000 000000000000000A000000000000000000000000000000000000000000000 000000000000000000000000000000000000000     00000000                                                                                                                        000000000000000000
F0010000007660700001000090052543100011050500000000000000000201509230002001SECRET COLOR SAS                                  D000000000350000000000000000000000100010010000000000000000000000F0010000007660700120150923000101 00000000000000000000000000000000000000000000000000000000000000000000000000000000000000000000000000000000000000000N 00000000000NCONT   00    00000000000          00000000000000000000000000000000000000000000 000000000000000A000000000000000000000000000000000000000000000 000000000000000000000000000000000000000     00000000                                                                                                                        000000000000000000
F0010000007660700002000090052543100041450500000000000000000201509230002001SECRET COLOR SAS                                  C000000000250000000000000000000000100010010000000000000000000000F0010000007660700220150923000101 00000000000000000000000000000000000000000000000000000000000000000000000000000000000000000000000000000000000000000N 00000000000NCONT   00    00000000000          00000000000000000000000000000000000000000000 000000000000000A000000000000000000000000000000000000000000000 000000000000000000000000000000000000000     00000000                                                                                                                        000000000000000000
F0010000007660700003000090052543100042505000000000000000000201509230002001SECRET COLOR SAS                                  C000000000100000000000000000000000100010010000000000000000000000F0010000007660700320150923000101 00000000000000000000000000000000000000000000000000000000000000000000000000000000000000000000000000000000000000000N 00000000000NCONT   00    00000000000          00000000000000000000000000000000000000000000 000000000000000A000000000000000000000000000000000000000000000 000000000000000000000000000000000000000     00000000                                                                                                                        000000000000000000
F0010000007660700004000090052543100023658300000000000000000201509230002001SECRET COLOR SAS                                  C000000000002000000000000000000000100010010000000000000000000000F0010000007660700420150923000101 00000000000000000000000000000000000000000000000000000000000000000000000000000000000000000000000000000000000000000N 00000000000NCONT   00    00000000000          00000000000000000000000000000000000000000000 000000000000000A000000000000000000000000000000000000000000000 000000000000000000000000000000000000000     00000000                                                                                                                        000000000000000000
F0010000007660700005000090052543100013552100000000000000000201509230002001SECRET COLOR SAS                                  D000000000002000000000000000000000100010010000000000000000000000F0010000007660700520150923000101 00000000000000000000000000000000000000000000000000000000000000000000000000000000000000000000000000000000000000000N 00000000000NCONT   00    00000000000          00000000000000000000000000000000000000000000 000000000000000A000000000000000000000000000000000000000000000 000000000000000000000000000000000000000     00000000                                                                                                                        000000000000000000
F0010000007660800001000090052543100011050500000000000000000201509230002001SECRET COLOR SAS                                  D000000000900000000000000000000000100010010000000000000000000000F0010000007660800120150923000101 00000000000000000000000000000000000000000000000000000000000000000000000000000000000000000000000000000000000000000N 00000000000NCONT   00    00000000000          00000000000000000000000000000000000000000000 000000000000000A000000000000000000000000000000000000000000000 000000000000000000000000000000000000000     00000000                                                                                                                        000000000000000000
F0010000007660800002000090052543100041450500000000000000000201509230002001SECRET COLOR SAS                                  C000000000800000000000000000000000100010010000000000000000000000F0010000007660800220150923000101 00000000000000000000000000000000000000000000000000000000000000000000000000000000000000000000000000000000000000000N 00000000000NCONT   00    00000000000          00000000000000000000000000000000000000000000 000000000000000A000000000000000000000000000000000000000000000 000000000000000000000000000000000000000     00000000                                                                                                                        000000000000000000
F0010000007660800003000090052543100042505000000000000000000201509230002001SECRET COLOR SAS                                  C000000000100000000000000000000000100010010000000000000000000000F0010000007660800320150923000101 00000000000000000000000000000000000000000000000000000000000000000000000000000000000000000000000000000000000000000N 00000000000NCONT   00    00000000000          00000000000000000000000000000000000000000000 000000000000000A000000000000000000000000000000000000000000000 000000000000000000000000000000000000000     00000000                                                                                                                        000000000000000000
F0010000007660800004000090052543100023658300000000000000000201509230002001SECRET COLOR SAS                                  C000000000006400000000000000000000100010010000000000000000000000F0010000007660800420150923000101 00000000000000000000000000000000000000000000000000000000000000000000000000000000000000000000000000000000000000000N 00000000000NCONT   00    00000000000          00000000000000000000000000000000000000000000 000000000000000A000000000000000000000000000000000000000000000 000000000000000000000000000000000000000     00000000                                                                                                                        000000000000000000
F0010000007660800005000090052543100013552100000000000000000201509230002001SECRET COLOR SAS                                  D000000000006400000000000000000000100010010000000000000000000000F0010000007660800520150923000101 00000000000000000000000000000000000000000000000000000000000000000000000000000000000000000000000000000000000000000N 00000000000NCONT   00    00000000000          00000000000000000000000000000000000000000000 000000000000000A000000000000000000000000000000000000000000000 000000000000000000000000000000000000000     00000000                                                                                                                        000000000000000000
F0010000007660900001000002245670100011050500000000000000000201509230002001YOLANDA  TOBON                                    D000000003166100000000000000000000100010010000000000000000000000F0010000007660900120150923000101 00000000000000000000000000000000000000000000000000000000000000000000000000000000000000000000000000000000000000000N 00000000000NCONT   00    00000000000          00000000000000000000000000000000000000000000 000000000000000A000000000000000000000000000000000000000000000 000000000000000000000000000000000000000     00000000                                                                                                                        000000000000000000
F0010000007660900002000002245670100041450500000000000000000201509230002001YOLANDA  TOBON                                    C000000002264000000000000000000000100010010000000000000000000000F0010000007660900220150923000101 00000000000000000000000000000000000000000000000000000000000000000000000000000000000000000000000000000000000000000N 00000000000NCONT   00    00000000000          00000000000000000000000000000000000000000000 000000000000000A000000000000000000000000000000000000000000000 000000000000000000000000000000000000000     00000000                                                                                                                        000000000000000000
F0010000007660900003000002245670100042505000000000000000000201509230002001YOLANDA  TOBON                                    C000000000902100000000000000000000100010010000000000000000000000F0010000007660900320150923000101 00000000000000000000000000000000000000000000000000000000000000000000000000000000000000000000000000000000000000000N 00000000000NCONT   00    00000000000          00000000000000000000000000000000000000000000 000000000000000A000000000000000000000000000000000000000000000 000000000000000000000000000000000000000     00000000                                                                                                                        000000000000000000
F0010000007660900004000002245670100023658300000000000000000201509230002001YOLANDA  TOBON                                    C000000000018100000000000000000000100010010000000000000000000000F0010000007660900420150923000101 00000000000000000000000000000000000000000000000000000000000000000000000000000000000000000000000000000000000000000N 00000000000NCONT   00    00000000000          00000000000000000000000000000000000000000000 000000000000000A000000000000000000000000000000000000000000000 000000000000000000000000000000000000000     00000000                                                                                                                        000000000000000000
F0010000007660900005000002245670100013552100000000000000000201509230002001YOLANDA  TOBON                                    D000000000018100000000000000000000100010010000000000000000000000F0010000007660900520150923000101 00000000000000000000000000000000000000000000000000000000000000000000000000000000000000000000000000000000000000000N 00000000000NCONT   00    00000000000          00000000000000000000000000000000000000000000 000000000000000A000000000000000000000000000000000000000000000 000000000000000000000000000000000000000     00000000                                                                                                                        000000000000000000
F0010000007661000001000090052543100011050500000000000000000201509230002001SECRET COLOR SAS                                  D000000000900000000000000000000000100010010000000000000000000000F0010000007661000120150923000101 00000000000000000000000000000000000000000000000000000000000000000000000000000000000000000000000000000000000000000N 00000000000NCONT   00    00000000000          00000000000000000000000000000000000000000000 000000000000000A000000000000000000000000000000000000000000000 000000000000000000000000000000000000000     00000000                                                                                                                        000000000000000000
F0010000007661000002000090052543100041450500000000000000000201509230002001SECRET COLOR SAS                                  C000000000800000000000000000000000100010010000000000000000000000F0010000007661000220150923000101 00000000000000000000000000000000000000000000000000000000000000000000000000000000000000000000000000000000000000000N 00000000000NCONT   00    00000000000          00000000000000000000000000000000000000000000 000000000000000A000000000000000000000000000000000000000000000 000000000000000000000000000000000000000     00000000                                                                                                                        000000000000000000
F0010000007661000003000090052543100042505000000000000000000201509230002001SECRET COLOR SAS                                  C000000000100000000000000000000000100010010000000000000000000000F0010000007661000320150923000101 00000000000000000000000000000000000000000000000000000000000000000000000000000000000000000000000000000000000000000N 00000000000NCONT   00    00000000000          00000000000000000000000000000000000000000000 000000000000000A000000000000000000000000000000000000000000000 000000000000000000000000000000000000000     00000000                                                                                                                        000000000000000000
F0010000007661000004000090052543100023658300000000000000000201509230002001SECRET COLOR SAS                                  C000000000006400000000000000000000100010010000000000000000000000F0010000007661000420150923000101 00000000000000000000000000000000000000000000000000000000000000000000000000000000000000000000000000000000000000000N 00000000000NCONT   00    00000000000          00000000000000000000000000000000000000000000 000000000000000A000000000000000000000000000000000000000000000 000000000000000000000000000000000000000     00000000                                                                                                                        000000000000000000
F0010000007661000005000090052543100013552100000000000000000201509230002001SECRET COLOR SAS                                  D000000000006400000000000000000000100010010000000000000000000000F0010000007661000520150923000101 00000000000000000000000000000000000000000000000000000000000000000000000000000000000000000000000000000000000000000N 00000000000NCONT   00    00000000000          00000000000000000000000000000000000000000000 000000000000000A000000000000000000000000000000000000000000000 000000000000000000000000000000000000000     00000000                                                                                                                        000000000000000000
F0010000007661100001000090073498600011050500000000000000000201509230002001VALTAC DEL CARIBE LTDA                            D000000001000000000000000000000000100010010000000000000000000000F0010000007661100120150923000101 00000000000000000000000000000000000000000000000000000000000000000000000000000000000000000000000000000000000000000N 00000000000NCONT   00    00000000000          00000000000000000000000000000000000000000000 000000000000000A000000000000000000000000000000000000000000000 000000000000000000000000000000000000000     00000000                                                                                                                        000000000000000000
F0010000007661100002000090073498600041450500000000000000000201509230002001VALTAC DEL CARIBE LTDA                            C000000000900000000000000000000000100010010000000000000000000000F0010000007661100220150923000101 00000000000000000000000000000000000000000000000000000000000000000000000000000000000000000000000000000000000000000N 00000000000NCONT   00    00000000000          00000000000000000000000000000000000000000000 000000000000000A000000000000000000000000000000000000000000000 000000000000000000000000000000000000000     00000000                                                                                                                        000000000000000000
F0010000007661100003000090073498600042505000000000000000000201509230002001VALTAC DEL CARIBE LTDA                            C000000000100000000000000000000000100010010000000000000000000000F0010000007661100320150923000101 00000000000000000000000000000000000000000000000000000000000000000000000000000000000000000000000000000000000000000N 00000000000NCONT   00    00000000000          00000000000000000000000000000000000000000000 000000000000000A000000000000000000000000000000000000000000000 000000000000000000000000000000000000000     00000000                                                                                                                        000000000000000000
F0010000007661100004000090073498600023658300000000000000000201509230002001VALTAC DEL CARIBE LTDA                            C000000000007200000000000000000000100010010000000000000000000000F0010000007661100420150923000101 00000000000000000000000000000000000000000000000000000000000000000000000000000000000000000000000000000000000000000N 00000000000NCONT   00    00000000000          00000000000000000000000000000000000000000000 000000000000000A000000000000000000000000000000000000000000000 000000000000000000000000000000000000000     00000000                                                                                                                        000000000000000000
F0010000007661100005000090073498600013552100000000000000000201509230002001VALTAC DEL CARIBE LTDA                            D000000000007200000000000000000000100010010000000000000000000000F0010000007661100520150923000101 00000000000000000000000000000000000000000000000000000000000000000000000000000000000000000000000000000000000000000N 00000000000NCONT   00    00000000000          00000000000000000000000000000000000000000000 000000000000000A000000000000000000000000000000000000000000000 000000000000000000000000000000000000000     00000000                                                                                                                        000000000000000000
F0010000007661200001000090073498600011050500000000000000000201509230002001VALTAC DEL CARIBE LTDA                            D000000001000000000000000000000000100010010000000000000000000000F0010000007661200120150923000101 00000000000000000000000000000000000000000000000000000000000000000000000000000000000000000000000000000000000000000N 00000000000NCONT   00    00000000000          00000000000000000000000000000000000000000000 000000000000000A000000000000000000000000000000000000000000000 000000000000000000000000000000000000000     00000000                                                                                                                        000000000000000000
F0010000007661200002000090073498600041450500000000000000000201509230002001VALTAC DEL CARIBE LTDA                            C000000000900000000000000000000000100010010000000000000000000000F0010000007661200220150923000101 00000000000000000000000000000000000000000000000000000000000000000000000000000000000000000000000000000000000000000N 00000000000NCONT   00    00000000000          00000000000000000000000000000000000000000000 000000000000000A000000000000000000000000000000000000000000000 000000000000000000000000000000000000000     00000000                                                                                                                        000000000000000000
F0010000007661200003000090073498600042505000000000000000000201509230002001VALTAC DEL CARIBE LTDA                            C000000000100000000000000000000000100010010000000000000000000000F0010000007661200320150923000101 00000000000000000000000000000000000000000000000000000000000000000000000000000000000000000000000000000000000000000N 00000000000NCONT   00    00000000000          00000000000000000000000000000000000000000000 000000000000000A000000000000000000000000000000000000000000000 000000000000000000000000000000000000000     00000000                                                                                                                        000000000000000000
F0010000007661200004000090073498600023658300000000000000000201509230002001VALTAC DEL CARIBE LTDA                            C000000000007200000000000000000000100010010000000000000000000000F0010000007661200420150923000101 00000000000000000000000000000000000000000000000000000000000000000000000000000000000000000000000000000000000000000N 00000000000NCONT   00    00000000000          00000000000000000000000000000000000000000000 000000000000000A000000000000000000000000000000000000000000000 000000000000000000000000000000000000000     00000000                                                                                                                        000000000000000000
F0010000007661200005000090073498600013552100000000000000000201509230002001VALTAC DEL CARIBE LTDA                            D000000000007200000000000000000000100010010000000000000000000000F0010000007661200520150923000101 00000000000000000000000000000000000000000000000000000000000000000000000000000000000000000000000000000000000000000N 00000000000NCONT   00    00000000000          00000000000000000000000000000000000000000000 000000000000000A000000000000000000000000000000000000000000000 000000000000000000000000000000000000000     00000000                                                                                                                        000000000000000000
F0010000007661300001000002245670100011050500000000000000000201509230002001YOLANDA  TOBON                                    D000000001668800000000000000000000100010010000000000000000000000F0010000007661300120150923000101 00000000000000000000000000000000000000000000000000000000000000000000000000000000000000000000000000000000000000000N 00000000000NCONT   00    00000000000          00000000000000000000000000000000000000000000 000000000000000A000000000000000000000000000000000000000000000 000000000000000000000000000000000000000     00000000                                                                                                                        000000000000000000
F0010000007661300002000002245670100041450500000000000000000201509230002001YOLANDA  TOBON                                    C000000001260000000000000000000000100010010000000000000000000000F0010000007661300220150923000101 00000000000000000000000000000000000000000000000000000000000000000000000000000000000000000000000000000000000000000N 00000000000NCONT   00    00000000000          00000000000000000000000000000000000000000000 000000000000000A000000000000000000000000000000000000000000000 000000000000000000000000000000000000000     00000000                                                                                                                        000000000000000000
F0010000007661300003000002245670100042505000000000000000000201509230002001YOLANDA  TOBON                                    C000000000408800000000000000000000100010010000000000000000000000F0010000007661300320150923000101 00000000000000000000000000000000000000000000000000000000000000000000000000000000000000000000000000000000000000000N 00000000000NCONT   00    00000000000          00000000000000000000000000000000000000000000 000000000000000A000000000000000000000000000000000000000000000 000000000000000000000000000000000000000     00000000                                                                                                                        000000000000000000
F0010000007661300004000002245670100023658300000000000000000201509230002001YOLANDA  TOBON                                    C000000000010100000000000000000000100010010000000000000000000000F0010000007661300420150923000101 00000000000000000000000000000000000000000000000000000000000000000000000000000000000000000000000000000000000000000N 00000000000NCONT   00    00000000000          00000000000000000000000000000000000000000000 000000000000000A000000000000000000000000000000000000000000000 000000000000000000000000000000000000000     00000000                                                                                                                        000000000000000000
F0010000007661300005000002245670100013552100000000000000000201509230002001YOLANDA  TOBON                                    D000000000010100000000000000000000100010010000000000000000000000F0010000007661300520150923000101 00000000000000000000000000000000000000000000000000000000000000000000000000000000000000000000000000000000000000000N 00000000000NCONT   00    00000000000          00000000000000000000000000000000000000000000 000000000000000A000000000000000000000000000000000000000000000 000000000000000000000000000000000000000     00000000                                                                                                                        000000000000000000
F0010000007661400001000007225511500011050500000000000000000201509230002001MAIGEL CHADID                                     D000000009000000000000000000000000100010010000000000000000000000F0010000007661400120150923000101 00000000000000000000000000000000000000000000000000000000000000000000000000000000000000000000000000000000000000000N 00000000000NCONT   00    00000000000          00000000000000000000000000000000000000000000 000000000000000A000000000000000000000000000000000000000000000 000000000000000000000000000000000000000     00000000                                                                                                                        000000000000000000
F0010000007661400002000007225511500041450500000000000000000201509230002001MAIGEL CHADID                                     C000000007800000000000000000000000100010010000000000000000000000F0010000007661400220150923000101 00000000000000000000000000000000000000000000000000000000000000000000000000000000000000000000000000000000000000000N 00000000000NCONT   00    00000000000          00000000000000000000000000000000000000000000 000000000000000A000000000000000000000000000000000000000000000 000000000000000000000000000000000000000     00000000                                                                                                                        000000000000000000
F0010000007661400003000007225511500042505000000000000000000201509230002001MAIGEL CHADID                                     C000000001200000000000000000000000100010010000000000000000000000F0010000007661400320150923000101 00000000000000000000000000000000000000000000000000000000000000000000000000000000000000000000000000000000000000000N 00000000000NCONT   00    00000000000          00000000000000000000000000000000000000000000 000000000000000A000000000000000000000000000000000000000000000 000000000000000000000000000000000000000     00000000                                                                                                                        000000000000000000
F0010000007661400004000007225511500023658300000000000000000201509230002001MAIGEL CHADID                                     C000000000062400000000000000000000100010010000000000000000000000F0010000007661400420150923000101 00000000000000000000000000000000000000000000000000000000000000000000000000000000000000000000000000000000000000000N 00000000000NCONT   00    00000000000          00000000000000000000000000000000000000000000 000000000000000A000000000000000000000000000000000000000000000 000000000000000000000000000000000000000     00000000                                                                                                                        000000000000000000
F0010000007661400005000007225511500013552100000000000000000201509230002001MAIGEL CHADID                                     D000000000062400000000000000000000100010010000000000000000000000F0010000007661400520150923000101 00000000000000000000000000000000000000000000000000000000000000000000000000000000000000000000000000000000000000000N 00000000000NCONT   00    00000000000          00000000000000000000000000000000000000000000 000000000000000A000000000000000000000000000000000000000000000 000000000000000000000000000000000000000     00000000                                                                                                                        000000000000000000
F0010000007661500001000080202350700011050500000000000000000201509230002001CONNY DE LA COSTA SAS                             D000000001200000000000000000000000100010010000000000000000000000F0010000007661500120150923000101 00000000000000000000000000000000000000000000000000000000000000000000000000000000000000000000000000000000000000000N 00000000000NCONT   00    00000000000          00000000000000000000000000000000000000000000 000000000000000A000000000000000000000000000000000000000000000 000000000000000000000000000000000000000     00000000                                                                                                                        000000000000000000
F0010000007661500002000080202350700041450500000000000000000201509230002001CONNY DE LA COSTA SAS                             C000000001000000000000000000000000100010010000000000000000000000F0010000007661500220150923000101 00000000000000000000000000000000000000000000000000000000000000000000000000000000000000000000000000000000000000000N 00000000000NCONT   00    00000000000          00000000000000000000000000000000000000000000 000000000000000A000000000000000000000000000000000000000000000 000000000000000000000000000000000000000     00000000                                                                                                                        000000000000000000
F0010000007661500003000080202350700042505000000000000000000201509230002001CONNY DE LA COSTA SAS                             C000000000200000000000000000000000100010010000000000000000000000F0010000007661500320150923000101 00000000000000000000000000000000000000000000000000000000000000000000000000000000000000000000000000000000000000000N 00000000000NCONT   00    00000000000          00000000000000000000000000000000000000000000 000000000000000A000000000000000000000000000000000000000000000 000000000000000000000000000000000000000     00000000                                                                                                                        000000000000000000
F0010000007661500004000080202350700023658300000000000000000201509230002001CONNY DE LA COSTA SAS                             C000000000008000000000000000000000100010010000000000000000000000F0010000007661500420150923000101 00000000000000000000000000000000000000000000000000000000000000000000000000000000000000000000000000000000000000000N 00000000000NCONT   00    00000000000          00000000000000000000000000000000000000000000 000000000000000A000000000000000000000000000000000000000000000 000000000000000000000000000000000000000     00000000                                                                                                                        000000000000000000
F0010000007661500005000080202350700013552100000000000000000201509230002001CONNY DE LA COSTA SAS                             D000000000008000000000000000000000100010010000000000000000000000F0010000007661500520150923000101 00000000000000000000000000000000000000000000000000000000000000000000000000000000000000000000000000000000000000000N 00000000000NCONT   00    00000000000          00000000000000000000000000000000000000000000 000000000000000A000000000000000000000000000000000000000000000 000000000000000000000000000000000000000     00000000                                                                                                                        000000000000000000
F0010000007661600001000000742399700011050500000000000000000201509230002001CACHARRERIA EL NUEVO CHADID                       D000000001000000000000000000000000100010010000000000000000000000F0010000007661600120150923000101 00000000000000000000000000000000000000000000000000000000000000000000000000000000000000000000000000000000000000000N 00000000000NCONT   00    00000000000          00000000000000000000000000000000000000000000 000000000000000A000000000000000000000000000000000000000000000 000000000000000000000000000000000000000     00000000                                                                                                                        000000000000000000
F0010000007661600002000000742399700041450500000000000000000201509230002001CACHARRERIA EL NUEVO CHADID                       C000000000800000000000000000000000100010010000000000000000000000F0010000007661600220150923000101 00000000000000000000000000000000000000000000000000000000000000000000000000000000000000000000000000000000000000000N 00000000000NCONT   00    00000000000          00000000000000000000000000000000000000000000 000000000000000A000000000000000000000000000000000000000000000 000000000000000000000000000000000000000     00000000                                                                                                                        000000000000000000
F0010000007661600003000000742399700042505000000000000000000201509230002001CACHARRERIA EL NUEVO CHADID                       C000000000200000000000000000000000100010010000000000000000000000F0010000007661600320150923000101 00000000000000000000000000000000000000000000000000000000000000000000000000000000000000000000000000000000000000000N 00000000000NCONT   00    00000000000          00000000000000000000000000000000000000000000 000000000000000A000000000000000000000000000000000000000000000 000000000000000000000000000000000000000     00000000                                                                                                                        000000000000000000
F0010000007661600004000000742399700023658300000000000000000201509230002001CACHARRERIA EL NUEVO CHADID                       C000000000006400000000000000000000100010010000000000000000000000F0010000007661600420150923000101 00000000000000000000000000000000000000000000000000000000000000000000000000000000000000000000000000000000000000000N 00000000000NCONT   00    00000000000          00000000000000000000000000000000000000000000 000000000000000A000000000000000000000000000000000000000000000 000000000000000000000000000000000000000     00000000                                                                                                                        000000000000000000
F0010000007661600005000000742399700013552100000000000000000201509230002001CACHARRERIA EL NUEVO CHADID                       D000000000006400000000000000000000100010010000000000000000000000F0010000007661600520150923000101 00000000000000000000000000000000000000000000000000000000000000000000000000000000000000000000000000000000000000000N 00000000000NCONT   00    00000000000          00000000000000000000000000000000000000000000 000000000000000A000000000000000000000000000000000000000000000 000000000000000000000000000000000000000     00000000                                                                                                                        000000000000000000
F0010000007661700001000002245670100011050500000000000000000201509230002001YOLANDA  TOBON                                    D000000003225000000000000000000000100010010000000000000000000000F0010000007661700120150923000101 00000000000000000000000000000000000000000000000000000000000000000000000000000000000000000000000000000000000000000N 00000000000NCONT   00    00000000000          00000000000000000000000000000000000000000000 000000000000000A000000000000000000000000000000000000000000000 000000000000000000000000000000000000000     00000000                                                                                                                        000000000000000000
F0010000007661700002000002245670100041450500000000000000000201509230002001YOLANDA  TOBON                                    C000000002800000000000000000000000100010010000000000000000000000F0010000007661700220150923000101 00000000000000000000000000000000000000000000000000000000000000000000000000000000000000000000000000000000000000000N 00000000000NCONT   00    00000000000          00000000000000000000000000000000000000000000 000000000000000A000000000000000000000000000000000000000000000 000000000000000000000000000000000000000     00000000                                                                                                                        000000000000000000
F0010000007661700003000002245670100042505000000000000000000201509230002001YOLANDA  TOBON                                    C000000000425000000000000000000000100010010000000000000000000000F0010000007661700320150923000101 00000000000000000000000000000000000000000000000000000000000000000000000000000000000000000000000000000000000000000N 00000000000NCONT   00    00000000000          00000000000000000000000000000000000000000000 000000000000000A000000000000000000000000000000000000000000000 000000000000000000000000000000000000000     00000000                                                                                                                        000000000000000000
F0010000007661700004000002245670100023658300000000000000000201509230002001YOLANDA  TOBON                                    C000000000022400000000000000000000100010010000000000000000000000F0010000007661700420150923000101 00000000000000000000000000000000000000000000000000000000000000000000000000000000000000000000000000000000000000000N 00000000000NCONT   00    00000000000          00000000000000000000000000000000000000000000 000000000000000A000000000000000000000000000000000000000000000 000000000000000000000000000000000000000     00000000                                                                                                                        000000000000000000
F0010000007661700005000002245670100013552100000000000000000201509230002001YOLANDA  TOBON                                    D000000000022400000000000000000000100010010000000000000000000000F0010000007661700520150923000101 00000000000000000000000000000000000000000000000000000000000000000000000000000000000000000000000000000000000000000N 00000000000NCONT   00    00000000000          00000000000000000000000000000000000000000000 000000000000000A000000000000000000000000000000000000000000000 000000000000000000000000000000000000000     00000000                                                                                                                        000000000000000000
F0010000007661800001000104502054400011050500000000000000000201509230002001WILLIAM ANDRES QUINTERO GOMEZ                     D000000002400000000000000000000000100010010000000000000000000000F0010000007661800120150923000101 00000000000000000000000000000000000000000000000000000000000000000000000000000000000000000000000000000000000000000N 00000000000NCONT   00    00000000000          00000000000000000000000000000000000000000000 000000000000000A000000000000000000000000000000000000000000000 000000000000000000000000000000000000000     00000000                                                                                                                        000000000000000000
F0010000007661800002000104502054400041450500000000000000000201509230002001WILLIAM ANDRES QUINTERO GOMEZ                     C000000002200000000000000000000000100010010000000000000000000000F0010000007661800220150923000101 00000000000000000000000000000000000000000000000000000000000000000000000000000000000000000000000000000000000000000N 00000000000NCONT   00    00000000000          00000000000000000000000000000000000000000000 000000000000000A000000000000000000000000000000000000000000000 000000000000000000000000000000000000000     00000000                                                                                                                        000000000000000000
F0010000007661800003000104502054400042505000000000000000000201509230002001WILLIAM ANDRES QUINTERO GOMEZ                     C000000000200000000000000000000000100010010000000000000000000000F0010000007661800320150923000101 00000000000000000000000000000000000000000000000000000000000000000000000000000000000000000000000000000000000000000N 00000000000NCONT   00    00000000000          00000000000000000000000000000000000000000000 000000000000000A000000000000000000000000000000000000000000000 000000000000000000000000000000000000000     00000000                                                                                                                        000000000000000000
F0010000007661800004000104502054400023658300000000000000000201509230002001WILLIAM ANDRES QUINTERO GOMEZ                     C000000000017600000000000000000000100010010000000000000000000000F0010000007661800420150923000101 00000000000000000000000000000000000000000000000000000000000000000000000000000000000000000000000000000000000000000N 00000000000NCONT   00    00000000000          00000000000000000000000000000000000000000000 000000000000000A000000000000000000000000000000000000000000000 000000000000000000000000000000000000000     00000000                                                                                                                        000000000000000000
F0010000007661800005000104502054400013552100000000000000000201509230002001WILLIAM ANDRES QUINTERO GOMEZ                     D000000000017600000000000000000000100010010000000000000000000000F0010000007661800520150923000101 00000000000000000000000000000000000000000000000000000000000000000000000000000000000000000000000000000000000000000N 00000000000NCONT   00    00000000000          00000000000000000000000000000000000000000000 000000000000000A000000000000000000000000000000000000000000000 000000000000000000000000000000000000000     00000000                                                                                                                        000000000000000000
F0010000007661900001000112819422600011050500000000000000000201509230002001CINDY PAOLA TORREGROSA GARCIA                     D000000001100000000000000000000000100010010000000000000000000000F0010000007661900120150923000101 00000000000000000000000000000000000000000000000000000000000000000000000000000000000000000000000000000000000000000N 00000000000NCONT   00    00000000000          00000000000000000000000000000000000000000000 000000000000000A000000000000000000000000000000000000000000000 000000000000000000000000000000000000000     00000000                                                                                                                        000000000000000000
F0010000007661900002000112819422600041450500000000000000000201509230002001CINDY PAOLA TORREGROSA GARCIA                     C000000001000000000000000000000000100010010000000000000000000000F0010000007661900220150923000101 00000000000000000000000000000000000000000000000000000000000000000000000000000000000000000000000000000000000000000N 00000000000NCONT   00    00000000000          00000000000000000000000000000000000000000000 000000000000000A000000000000000000000000000000000000000000000 000000000000000000000000000000000000000     00000000                                                                                                                        000000000000000000
F0010000007661900003000112819422600042505000000000000000000201509230002001CINDY PAOLA TORREGROSA GARCIA                     C000000000100000000000000000000000100010010000000000000000000000F0010000007661900320150923000101 00000000000000000000000000000000000000000000000000000000000000000000000000000000000000000000000000000000000000000N 00000000000NCONT   00    00000000000          00000000000000000000000000000000000000000000 000000000000000A000000000000000000000000000000000000000000000 000000000000000000000000000000000000000     00000000                                                                                                                        000000000000000000
F0010000007661900004000112819422600023658300000000000000000201509230002001CINDY PAOLA TORREGROSA GARCIA                     C000000000008000000000000000000000100010010000000000000000000000F0010000007661900420150923000101 00000000000000000000000000000000000000000000000000000000000000000000000000000000000000000000000000000000000000000N 00000000000NCONT   00    00000000000          00000000000000000000000000000000000000000000 000000000000000A000000000000000000000000000000000000000000000 000000000000000000000000000000000000000     00000000                                                                                                                        000000000000000000
F0010000007661900005000112819422600013552100000000000000000201509230002001CINDY PAOLA TORREGROSA GARCIA                     D000000000008000000000000000000000100010010000000000000000000000F0010000007661900520150923000101 00000000000000000000000000000000000000000000000000000000000000000000000000000000000000000000000000000000000000000N 00000000000NCONT   00    00000000000          00000000000000000000000000000000000000000000 000000000000000A000000000000000000000000000000000000000000000 000000000000000000000000000000000000000     00000000                                                                                                                        000000000000000000
F0010000007662000001000000744496800011050500000000000000000201509230002001TOMAS SANCHEZ                                     D000000002000000000000000000000000100010010000000000000000000000F0010000007662000120150923000101 00000000000000000000000000000000000000000000000000000000000000000000000000000000000000000000000000000000000000000N 00000000000NCONT   00    00000000000          00000000000000000000000000000000000000000000 000000000000000A000000000000000000000000000000000000000000000 000000000000000000000000000000000000000     00000000                                                                                                                        000000000000000000
F0010000007662000002000000744496800041450500000000000000000201509230002001TOMAS SANCHEZ                                     C000000001800000000000000000000000100010010000000000000000000000F0010000007662000220150923000101 00000000000000000000000000000000000000000000000000000000000000000000000000000000000000000000000000000000000000000N 00000000000NCONT   00    00000000000          00000000000000000000000000000000000000000000 000000000000000A000000000000000000000000000000000000000000000 000000000000000000000000000000000000000     00000000                                                                                                                        000000000000000000
F0010000007662000003000000744496800042505000000000000000000201509230002001TOMAS SANCHEZ                                     C000000000200000000000000000000000100010010000000000000000000000F0010000007662000320150923000101 00000000000000000000000000000000000000000000000000000000000000000000000000000000000000000000000000000000000000000N 00000000000NCONT   00    00000000000          00000000000000000000000000000000000000000000 000000000000000A000000000000000000000000000000000000000000000 000000000000000000000000000000000000000     00000000                                                                                                                        000000000000000000
F0010000007662000004000000744496800023658300000000000000000201509230002001TOMAS SANCHEZ                                     C000000000014400000000000000000000100010010000000000000000000000F0010000007662000420150923000101 00000000000000000000000000000000000000000000000000000000000000000000000000000000000000000000000000000000000000000N 00000000000NCONT   00    00000000000          00000000000000000000000000000000000000000000 000000000000000A000000000000000000000000000000000000000000000 000000000000000000000000000000000000000     00000000                                                                                                                        000000000000000000
F0010000007662000005000000744496800013552100000000000000000201509230002001TOMAS SANCHEZ                                     D000000000014400000000000000000000100010010000000000000000000000F0010000007662000520150923000101 00000000000000000000000000000000000000000000000000000000000000000000000000000000000000000000000000000000000000000N 00000000000NCONT   00    00000000000          00000000000000000000000000000000000000000000 000000000000000A000000000000000000000000000000000000000000000 000000000000000000000000000000000000000     00000000                                                                                                                        000000000000000000
F0010000007662100001000080201703900011050500000000000000000201509230002001MUNDIAL CHEMICAL LTDA                             D000000001977500000000000000000000100010010000000000000000000000F0010000007662100120150923000101 00000000000000000000000000000000000000000000000000000000000000000000000000000000000000000000000000000000000000000N 00000000000NCONT   00    00000000000          00000000000000000000000000000000000000000000 000000000000000A000000000000000000000000000000000000000000000 000000000000000000000000000000000000000     00000000                                                                                                                        000000000000000000
F0010000007662100002000080201703900041450500000000000000000201509230002001MUNDIAL CHEMICAL LTDA                             C000000001660000000000000000000000100010010000000000000000000000F0010000007662100220150923000101 00000000000000000000000000000000000000000000000000000000000000000000000000000000000000000000000000000000000000000N 00000000000NCONT   00    00000000000          00000000000000000000000000000000000000000000 000000000000000A000000000000000000000000000000000000000000000 000000000000000000000000000000000000000     00000000                                                                                                                        000000000000000000
F0010000007662100003000080201703900042505000000000000000000201509230002001MUNDIAL CHEMICAL LTDA                             C000000000317500000000000000000000100010010000000000000000000000F0010000007662100320150923000101 00000000000000000000000000000000000000000000000000000000000000000000000000000000000000000000000000000000000000000N 00000000000NCONT   00    00000000000          00000000000000000000000000000000000000000000 000000000000000A000000000000000000000000000000000000000000000 000000000000000000000000000000000000000     00000000                                                                                                                        000000000000000000
F0010000007662100004000080201703900023658300000000000000000201509230002001MUNDIAL CHEMICAL LTDA                             C000000000013300000000000000000000100010010000000000000000000000F0010000007662100420150923000101 00000000000000000000000000000000000000000000000000000000000000000000000000000000000000000000000000000000000000000N 00000000000NCONT   00    00000000000          00000000000000000000000000000000000000000000 000000000000000A000000000000000000000000000000000000000000000 000000000000000000000000000000000000000     00000000                                                                                                                        000000000000000000
F0010000007662100005000080201703900013552100000000000000000201509230002001MUNDIAL CHEMICAL LTDA                             D000000000013300000000000000000000100010010000000000000000000000F0010000007662100520150923000101 00000000000000000000000000000000000000000000000000000000000000000000000000000000000000000000000000000000000000000N 00000000000NCONT   00    00000000000          00000000000000000000000000000000000000000000 000000000000000A000000000000000000000000000000000000000000000 000000000000000000000000000000000000000     00000000                                                                                                                        000000000000000000
F0010000007662200001000080014190300011050500000000000000000201509230002001QUIMINSA LTDA                                     D000000004604900000000000000000000100010010000000000000000000000F0010000007662200120150923000101 00000000000000000000000000000000000000000000000000000000000000000000000000000000000000000000000000000000000000000N 00000000000NCONT   00    00000000000          00000000000000000000000000000000000000000000 000000000000000A000000000000000000000000000000000000000000000 000000000000000000000000000000000000000     00000000                                                                                                                        000000000000000000
F0010000007662200002000080014190300041450500000000000000000201509230002001QUIMINSA LTDA                                     C000000003469500000000000000000000100010010000000000000000000000F0010000007662200220150923000101 00000000000000000000000000000000000000000000000000000000000000000000000000000000000000000000000000000000000000000N 00000000000NCONT   00    00000000000          00000000000000000000000000000000000000000000 000000000000000A000000000000000000000000000000000000000000000 000000000000000000000000000000000000000     00000000                                                                                                                        000000000000000000
F0010000007662200003000080014190300042505000000000000000000201509230002001QUIMINSA LTDA                                     C000000001135400000000000000000000100010010000000000000000000000F0010000007662200320150923000101 00000000000000000000000000000000000000000000000000000000000000000000000000000000000000000000000000000000000000000N 00000000000NCONT   00    00000000000          00000000000000000000000000000000000000000000 000000000000000A000000000000000000000000000000000000000000000 000000000000000000000000000000000000000     00000000                                                                                                                        000000000000000000
F0010000007662200004000080014190300023658300000000000000000201509230002001QUIMINSA LTDA                                     C000000000027800000000000000000000100010010000000000000000000000F0010000007662200420150923000101 00000000000000000000000000000000000000000000000000000000000000000000000000000000000000000000000000000000000000000N 00000000000NCONT   00    00000000000          00000000000000000000000000000000000000000000 000000000000000A000000000000000000000000000000000000000000000 000000000000000000000000000000000000000     00000000                                                                                                                        000000000000000000
F0010000007662200005000080014190300013552100000000000000000201509230002001QUIMINSA LTDA                                     D000000000027800000000000000000000100010010000000000000000000000F0010000007662200520150923000101 00000000000000000000000000000000000000000000000000000000000000000000000000000000000000000000000000000000000000000N 00000000000NCONT   00    00000000000          00000000000000000000000000000000000000000000 000000000000000A000000000000000000000000000000000000000000000 000000000000000000000000000000000000000     00000000                                                                                                                        000000000000000000
F0010000007662300001000080023327700011050500000000000000000201509230002001DISINCO LTDA                                      D000000001810000000000000000000000100010010000000000000000000000F0010000007662300120150923000101 00000000000000000000000000000000000000000000000000000000000000000000000000000000000000000000000000000000000000000N 00000000000NCONT   00    00000000000          00000000000000000000000000000000000000000000 000000000000000A000000000000000000000000000000000000000000000 000000000000000000000000000000000000000     00000000                                                                                                                        000000000000000000
F0010000007662300002000080023327700041450500000000000000000201509230002001DISINCO LTDA                                      C000000001760000000000000000000000100010010000000000000000000000F0010000007662300220150923000101 00000000000000000000000000000000000000000000000000000000000000000000000000000000000000000000000000000000000000000N 00000000000NCONT   00    00000000000          00000000000000000000000000000000000000000000 000000000000000A000000000000000000000000000000000000000000000 000000000000000000000000000000000000000     00000000                                                                                                                        000000000000000000
F0010000007662300003000080023327700042505000000000000000000201509230002001DISINCO LTDA                                      C000000000050000000000000000000000100010010000000000000000000000F0010000007662300320150923000101 00000000000000000000000000000000000000000000000000000000000000000000000000000000000000000000000000000000000000000N 00000000000NCONT   00    00000000000          00000000000000000000000000000000000000000000 000000000000000A000000000000000000000000000000000000000000000 000000000000000000000000000000000000000     00000000                                                                                                                        000000000000000000
F0010000007662300004000080023327700023658300000000000000000201509230002001DISINCO LTDA                                      C000000000014100000000000000000000100010010000000000000000000000F0010000007662300420150923000101 00000000000000000000000000000000000000000000000000000000000000000000000000000000000000000000000000000000000000000N 00000000000NCONT   00    00000000000          00000000000000000000000000000000000000000000 000000000000000A000000000000000000000000000000000000000000000 000000000000000000000000000000000000000     00000000                                                                                                                        000000000000000000
F0010000007662300005000080023327700013552100000000000000000201509230002001DISINCO LTDA                                      D000000000014100000000000000000000100010010000000000000000000000F0010000007662300520150923000101 00000000000000000000000000000000000000000000000000000000000000000000000000000000000000000000000000000000000000000N 00000000000NCONT   00    00000000000          00000000000000000000000000000000000000000000 000000000000000A000000000000000000000000000000000000000000000 000000000000000000000000000000000000000     00000000                                                                                                                        000000000000000000
F0010000007662400001000080023327700011050500000000000000000201509230002001DISINCO LTDA                                      D000000004559500000000000000000000100010010000000000000000000000F0010000007662400120150923000101 00000000000000000000000000000000000000000000000000000000000000000000000000000000000000000000000000000000000000000N 00000000000NCONT   00    00000000000          00000000000000000000000000000000000000000000 000000000000000A000000000000000000000000000000000000000000000 000000000000000000000000000000000000000     00000000                                                                                                                        000000000000000000
F0010000007662400002000080023327700041450500000000000000000201509230002001DISINCO LTDA                                      C000000004400000000000000000000000100010010000000000000000000000F0010000007662400220150923000101 00000000000000000000000000000000000000000000000000000000000000000000000000000000000000000000000000000000000000000N 00000000000NCONT   00    00000000000          00000000000000000000000000000000000000000000 000000000000000A000000000000000000000000000000000000000000000 000000000000000000000000000000000000000     00000000                                                                                                                        000000000000000000
F0010000007662400003000080023327700042505000000000000000000201509230002001DISINCO LTDA                                      C000000000159500000000000000000000100010010000000000000000000000F0010000007662400320150923000101 00000000000000000000000000000000000000000000000000000000000000000000000000000000000000000000000000000000000000000N 00000000000NCONT   00    00000000000          00000000000000000000000000000000000000000000 000000000000000A000000000000000000000000000000000000000000000 000000000000000000000000000000000000000     00000000                                                                                                                        000000000000000000
F0010000007662400004000080023327700023658300000000000000000201509230002001DISINCO LTDA                                      C000000000035200000000000000000000100010010000000000000000000000F0010000007662400420150923000101 00000000000000000000000000000000000000000000000000000000000000000000000000000000000000000000000000000000000000000N 00000000000NCONT   00    00000000000          00000000000000000000000000000000000000000000 000000000000000A000000000000000000000000000000000000000000000 000000000000000000000000000000000000000     00000000                                                                                                                        000000000000000000
F0010000007662400005000080023327700013552100000000000000000201509230002001DISINCO LTDA                                      D000000000035200000000000000000000100010010000000000000000000000F0010000007662400520150923000101 00000000000000000000000000000000000000000000000000000000000000000000000000000000000000000000000000000000000000000N 00000000000NCONT   00    00000000000          00000000000000000000000000000000000000000000 000000000000000A000000000000000000000000000000000000000000000 000000000000000000000000000000000000000     00000000                                                                                                                        000000000000000000
F0010000007662500001000080023327700011050500000000000000000201509230002001DISINCO LTDA                                      D000000004648300000000000000000000100010010000000000000000000000F0010000007662500120150923000101 00000000000000000000000000000000000000000000000000000000000000000000000000000000000000000000000000000000000000000N 00000000000NCONT   00    00000000000          00000000000000000000000000000000000000000000 000000000000000A000000000000000000000000000000000000000000000 000000000000000000000000000000000000000     00000000                                                                                                                        000000000000000000
F0010000007662500002000080023327700041450500000000000000000201509230002001DISINCO LTDA                                      C000000004400000000000000000000000100010010000000000000000000000F0010000007662500220150923000101 00000000000000000000000000000000000000000000000000000000000000000000000000000000000000000000000000000000000000000N 00000000000NCONT   00    00000000000          00000000000000000000000000000000000000000000 000000000000000A000000000000000000000000000000000000000000000 000000000000000000000000000000000000000     00000000                                                                                                                        000000000000000000
