F0010000006552200001000090010880700011050500000000000000000201411270002001PROELECTRICAS DE BARRANQUILLA LTDA                D000000002650000000000000000000000100010010000000000000000000000F0010000006552200120141127000101 00000000000000000000000000000000000000000000000000000000000000000000000000000000000000000000000000000000000000000N 00000000000NCONT   00    00000000000          00000000000000000000000000000000000000000000 000000000000000A000000000000000000000000000000000000000000000 000000000000000000000000000000000000000     00000000                                                                                                                        000000000000000000
F0010000006552200002000090010880700041450500000000000000000201411270002001PROELECTRICAS DE BARRANQUILLA LTDA                C000000002400000000000000000000000100010010000000000000000000000F0010000006552200220141127000101 00000000000000000000000000000000000000000000000000000000000000000000000000000000000000000000000000000000000000000N 00000000000NCONT   00    00000000000          00000000000000000000000000000000000000000000 000000000000000A000000000000000000000000000000000000000000000 000000000000000000000000000000000000000     00000000                                                                                                                        000000000000000000
F0010000006552200003000090010880700042505000000000000000000201411270002001PROELECTRICAS DE BARRANQUILLA LTDA                C000000000250000000000000000000000100010010000000000000000000000F0010000006552200320141127000101 00000000000000000000000000000000000000000000000000000000000000000000000000000000000000000000000000000000000000000N 00000000000NCONT   00    00000000000          00000000000000000000000000000000000000000000 000000000000000A000000000000000000000000000000000000000000000 000000000000000000000000000000000000000     00000000                                                                                                                        000000000000000000
F0010000006552200004000090010880700023658300000000000000000201411270002001PROELECTRICAS DE BARRANQUILLA LTDA                C000000000019200000000000000000000100010010000000000000000000000F0010000006552200420141127000101 00000000000000000000000000000000000000000000000000000000000000000000000000000000000000000000000000000000000000000N 00000000000NCONT   00    00000000000          00000000000000000000000000000000000000000000 000000000000000A000000000000000000000000000000000000000000000 000000000000000000000000000000000000000     00000000                                                                                                                        000000000000000000
F0010000006552200005000090010880700013552100000000000000000201411270002001PROELECTRICAS DE BARRANQUILLA LTDA                D000000000019200000000000000000000100010010000000000000000000000F0010000006552200520141127000101 00000000000000000000000000000000000000000000000000000000000000000000000000000000000000000000000000000000000000000N 00000000000NCONT   00    00000000000          00000000000000000000000000000000000000000000 000000000000000A000000000000000000000000000000000000000000000 000000000000000000000000000000000000000     00000000                                                                                                                        000000000000000000
F0010000006552300001000080200225800013050500000000000000000201411270002001PERF. TECNICOS DE LA COSTA S.A.S                  D000000064844700000000000000000000100010010000000000000000000000F0010000006552300120141127000101 00000000000000000000000000000000000000000000000000000000000000000000000000000000000000000000000000000000000000000N 00000000000NCONT   00    00000000000          00000000000000000000000000000000000000000000 000000000000000A000000000000000000000000000000000000000000000 000000000000000000000000000000000000000     00000000                                                                                                                        000000000000000000
F0010000006552300002000080200225800041450500000000000000000201411270002001PERF. TECNICOS DE LA COSTA S.A.S                  C000000056541700000000000000000000100010010000000000000000000000F0010000006552300220141127000101 00000000000000000000000000000000000000000000000000000000000000000000000000000000000000000000000000000000000000000N 00000000000NCONT   00    00000000000          00000000000000000000000000000000000000000000 000000000000000A000000000000000000000000000000000000000000000 000000000000000000000000000000000000000     00000000                                                                                                                        000000000000000000
F0010000006552300003000080200225800042505000000000000000000201411270002001PERF. TECNICOS DE LA COSTA S.A.S                  C000000008303000000000000000000000100010010000000000000000000000F0010000006552300320141127000101 00000000000000000000000000000000000000000000000000000000000000000000000000000000000000000000000000000000000000000N 00000000000NCONT   00    00000000000          00000000000000000000000000000000000000000000 000000000000000A000000000000000000000000000000000000000000000 000000000000000000000000000000000000000     00000000                                                                                                                        000000000000000000
F0010000006552300004000080200225800023658300000000000000000201411270002001PERF. TECNICOS DE LA COSTA S.A.S                  C000000000452300000000000000000000100010010000000000000000000000F0010000006552300420141127000101 00000000000000000000000000000000000000000000000000000000000000000000000000000000000000000000000000000000000000000N 00000000000NCONT   00    00000000000          00000000000000000000000000000000000000000000 000000000000000A000000000000000000000000000000000000000000000 000000000000000000000000000000000000000     00000000                                                                                                                        000000000000000000
F0010000006552300005000080200225800013552100000000000000000201411270002001PERF. TECNICOS DE LA COSTA S.A.S                  D000000000452300000000000000000000100010010000000000000000000000F0010000006552300520141127000101 00000000000000000000000000000000000000000000000000000000000000000000000000000000000000000000000000000000000000000N 00000000000NCONT   00    00000000000          00000000000000000000000000000000000000000000 000000000000000A000000000000000000000000000000000000000000000 000000000000000000000000000000000000000     00000000                                                                                                                        000000000000000000
F0010000006552400001000002258669400013050500000000000000000201411270002001YURY PAOLA  SANTAMARIA ..                         D000000018117000000000000000000000100010010000000000000000000000F0010000006552400120141127000101 00000000000000000000000000000000000000000000000000000000000000000000000000000000000000000000000000000000000000000N 00000000000NCONT   00    00000000000          00000000000000000000000000000000000000000000 000000000000000A000000000000000000000000000000000000000000000 000000000000000000000000000000000000000     00000000                                                                                                                        000000000000000000
F0010000006552400002000002258669400041450500000000000000000201411270002001YURY PAOLA  SANTAMARIA ..                         C000000016300000000000000000000000100010010000000000000000000000F0010000006552400220141127000101 00000000000000000000000000000000000000000000000000000000000000000000000000000000000000000000000000000000000000000N 00000000000NCONT   00    00000000000          00000000000000000000000000000000000000000000 000000000000000A000000000000000000000000000000000000000000000 000000000000000000000000000000000000000     00000000                                                                                                                        000000000000000000
F0010000006552400003000002258669400042505000000000000000000201411270002001YURY PAOLA  SANTAMARIA ..                         C000000001817000000000000000000000100010010000000000000000000000F0010000006552400320141127000101 00000000000000000000000000000000000000000000000000000000000000000000000000000000000000000000000000000000000000000N 00000000000NCONT   00    00000000000          00000000000000000000000000000000000000000000 000000000000000A000000000000000000000000000000000000000000000 000000000000000000000000000000000000000     00000000                                                                                                                        000000000000000000
F0010000006552400004000002258669400023658300000000000000000201411270002001YURY PAOLA  SANTAMARIA ..                         C000000000130400000000000000000000100010010000000000000000000000F0010000006552400420141127000101 00000000000000000000000000000000000000000000000000000000000000000000000000000000000000000000000000000000000000000N 00000000000NCONT   00    00000000000          00000000000000000000000000000000000000000000 000000000000000A000000000000000000000000000000000000000000000 000000000000000000000000000000000000000     00000000                                                                                                                        000000000000000000
F0010000006552400005000002258669400013552100000000000000000201411270002001YURY PAOLA  SANTAMARIA ..                         D000000000130400000000000000000000100010010000000000000000000000F0010000006552400520141127000101 00000000000000000000000000000000000000000000000000000000000000000000000000000000000000000000000000000000000000000N 00000000000NCONT   00    00000000000          00000000000000000000000000000000000000000000 000000000000000A000000000000000000000000000000000000000000000 000000000000000000000000000000000000000     00000000                                                                                                                        000000000000000000
F0010000006552500001000080018525700013050500000000000000000201411270002001SUMINISTROS Y ACABADOS LTDA                       D000000007620500000000000000000000100010010000000000000000000000F0010000006552500120141127000101 00000000000000000000000000000000000000000000000000000000000000000000000000000000000000000000000000000000000000000N 00000000000NCONT   00    00000000000          00000000000000000000000000000000000000000000 000000000000000A000000000000000000000000000000000000000000000 000000000000000000000000000000000000000     00000000                                                                                                                        000000000000000000
F0010000006552500002000080018525700041450500000000000000000201411270002001SUMINISTROS Y ACABADOS LTDA                       C000000006468000000000000000000000100010010000000000000000000000F0010000006552500220141127000101 00000000000000000000000000000000000000000000000000000000000000000000000000000000000000000000000000000000000000000N 00000000000NCONT   00    00000000000          00000000000000000000000000000000000000000000 000000000000000A000000000000000000000000000000000000000000000 000000000000000000000000000000000000000     00000000                                                                                                                        000000000000000000
F0010000006552500003000080018525700042505000000000000000000201411270002001SUMINISTROS Y ACABADOS LTDA                       C000000001152500000000000000000000100010010000000000000000000000F0010000006552500320141127000101 00000000000000000000000000000000000000000000000000000000000000000000000000000000000000000000000000000000000000000N 00000000000NCONT   00    00000000000          00000000000000000000000000000000000000000000 000000000000000A000000000000000000000000000000000000000000000 000000000000000000000000000000000000000     00000000                                                                                                                        000000000000000000
F0010000006552500004000080018525700023658300000000000000000201411270002001SUMINISTROS Y ACABADOS LTDA                       C000000000051700000000000000000000100010010000000000000000000000F0010000006552500420141127000101 00000000000000000000000000000000000000000000000000000000000000000000000000000000000000000000000000000000000000000N 00000000000NCONT   00    00000000000          00000000000000000000000000000000000000000000 000000000000000A000000000000000000000000000000000000000000000 000000000000000000000000000000000000000     00000000                                                                                                                        000000000000000000
F0010000006552500005000080018525700013552100000000000000000201411270002001SUMINISTROS Y ACABADOS LTDA                       D000000000051700000000000000000000100010010000000000000000000000F0010000006552500520141127000101 00000000000000000000000000000000000000000000000000000000000000000000000000000000000000000000000000000000000000000N 00000000000NCONT   00    00000000000          00000000000000000000000000000000000000000000 000000000000000A000000000000000000000000000000000000000000000 000000000000000000000000000000000000000     00000000                                                                                                                        000000000000000000
F0010000006552600001000090002525100013050500000000000000000201411270002001VINILOS Y PEGANTES                                D000000010237700000000000000000000100010010000000000000000000000F0010000006552600120141127000101 00000000000000000000000000000000000000000000000000000000000000000000000000000000000000000000000000000000000000000N 00000000000NCONT   00    00000000000          00000000000000000000000000000000000000000000 000000000000000A000000000000000000000000000000000000000000000 000000000000000000000000000000000000000     00000000                                                                                                                        000000000000000000
F0010000006552600002000090002525100041450500000000000000000201411270002001VINILOS Y PEGANTES                                C000000008910000000000000000000000100010010000000000000000000000F0010000006552600220141127000101 00000000000000000000000000000000000000000000000000000000000000000000000000000000000000000000000000000000000000000N 00000000000NCONT   00    00000000000          00000000000000000000000000000000000000000000 000000000000000A000000000000000000000000000000000000000000000 000000000000000000000000000000000000000     00000000                                                                                                                        000000000000000000
F0010000006552600003000090002525100042505000000000000000000201411270002001VINILOS Y PEGANTES                                C000000001327700000000000000000000100010010000000000000000000000F0010000006552600320141127000101 00000000000000000000000000000000000000000000000000000000000000000000000000000000000000000000000000000000000000000N 00000000000NCONT   00    00000000000          00000000000000000000000000000000000000000000 000000000000000A000000000000000000000000000000000000000000000 000000000000000000000000000000000000000     00000000                                                                                                                        000000000000000000
F0010000006552600004000090002525100023658300000000000000000201411270002001VINILOS Y PEGANTES                                C000000000071300000000000000000000100010010000000000000000000000F0010000006552600420141127000101 00000000000000000000000000000000000000000000000000000000000000000000000000000000000000000000000000000000000000000N 00000000000NCONT   00    00000000000          00000000000000000000000000000000000000000000 000000000000000A000000000000000000000000000000000000000000000 000000000000000000000000000000000000000     00000000                                                                                                                        000000000000000000
F0010000006552600005000090002525100013552100000000000000000201411270002001VINILOS Y PEGANTES                                D000000000071300000000000000000000100010010000000000000000000000F0010000006552600520141127000101 00000000000000000000000000000000000000000000000000000000000000000000000000000000000000000000000000000000000000000N 00000000000NCONT   00    00000000000          00000000000000000000000000000000000000000000 000000000000000A000000000000000000000000000000000000000000000 000000000000000000000000000000000000000     00000000                                                                                                                        000000000000000000
F0010000006552700001000002245670100013050500000000000000000201411270002001YOLANDA  TOBON                                    D000000060169100000000000000000000100010010000000000000000000000F0010000006552700120141127000101 00000000000000000000000000000000000000000000000000000000000000000000000000000000000000000000000000000000000000000N 00000000000NCONT   00    00000000000          00000000000000000000000000000000000000000000 000000000000000A000000000000000000000000000000000000000000000 000000000000000000000000000000000000000     00000000                                                                                                                        000000000000000000
F0010000006552700002000002245670100041450500000000000000000201411270002001YOLANDA  TOBON                                    C000000052650000000000000000000000100010010000000000000000000000F0010000006552700220141127000101 00000000000000000000000000000000000000000000000000000000000000000000000000000000000000000000000000000000000000000N 00000000000NCONT   00    00000000000          00000000000000000000000000000000000000000000 000000000000000A000000000000000000000000000000000000000000000 000000000000000000000000000000000000000     00000000                                                                                                                        000000000000000000
F0010000006552700003000002245670100042505000000000000000000201411270002001YOLANDA  TOBON                                    C000000007519100000000000000000000100010010000000000000000000000F0010000006552700320141127000101 00000000000000000000000000000000000000000000000000000000000000000000000000000000000000000000000000000000000000000N 00000000000NCONT   00    00000000000          00000000000000000000000000000000000000000000 000000000000000A000000000000000000000000000000000000000000000 000000000000000000000000000000000000000     00000000                                                                                                                        000000000000000000
F0010000006552700004000002245670100023658300000000000000000201411270002001YOLANDA  TOBON                                    C000000000421200000000000000000000100010010000000000000000000000F0010000006552700420141127000101 00000000000000000000000000000000000000000000000000000000000000000000000000000000000000000000000000000000000000000N 00000000000NCONT   00    00000000000          00000000000000000000000000000000000000000000 000000000000000A000000000000000000000000000000000000000000000 000000000000000000000000000000000000000     00000000                                                                                                                        000000000000000000
F0010000006552700005000002245670100013552100000000000000000201411270002001YOLANDA  TOBON                                    D000000000421200000000000000000000100010010000000000000000000000F0010000006552700520141127000101 00000000000000000000000000000000000000000000000000000000000000000000000000000000000000000000000000000000000000000N 00000000000NCONT   00    00000000000          00000000000000000000000000000000000000000000 000000000000000A000000000000000000000000000000000000000000000 000000000000000000000000000000000000000     00000000                                                                                                                        000000000000000000
F0010000006552800001000000376399500013050500000000000000000201411270002001FORDPLAST                                         D000000006620000000000000000000000100010010000000000000000000000F0010000006552800120141127000101 00000000000000000000000000000000000000000000000000000000000000000000000000000000000000000000000000000000000000000N 00000000000NCONT   00    00000000000          00000000000000000000000000000000000000000000 000000000000000A000000000000000000000000000000000000000000000 000000000000000000000000000000000000000     00000000                                                                                                                        000000000000000000
F0010000006552800002000000376399500041450500000000000000000201411270002001FORDPLAST                                         C000000004020000000000000000000000100010010000000000000000000000F0010000006552800220141127000101 00000000000000000000000000000000000000000000000000000000000000000000000000000000000000000000000000000000000000000N 00000000000NCONT   00    00000000000          00000000000000000000000000000000000000000000 000000000000000A000000000000000000000000000000000000000000000 000000000000000000000000000000000000000     00000000                                                                                                                        000000000000000000
F0010000006552800003000000376399500042505000000000000000000201411270002001FORDPLAST                                         C000000002600000000000000000000000100010010000000000000000000000F0010000006552800320141127000101 00000000000000000000000000000000000000000000000000000000000000000000000000000000000000000000000000000000000000000N 00000000000NCONT   00    00000000000          00000000000000000000000000000000000000000000 000000000000000A000000000000000000000000000000000000000000000 000000000000000000000000000000000000000     00000000                                                                                                                        000000000000000000
F0010000006552800004000000376399500023658300000000000000000201411270002001FORDPLAST                                         C000000000032200000000000000000000100010010000000000000000000000F0010000006552800420141127000101 00000000000000000000000000000000000000000000000000000000000000000000000000000000000000000000000000000000000000000N 00000000000NCONT   00    00000000000          00000000000000000000000000000000000000000000 000000000000000A000000000000000000000000000000000000000000000 000000000000000000000000000000000000000     00000000                                                                                                                        000000000000000000
F0010000006552800005000000376399500013552100000000000000000201411270002001FORDPLAST                                         D000000000032200000000000000000000100010010000000000000000000000F0010000006552800520141127000101 00000000000000000000000000000000000000000000000000000000000000000000000000000000000000000000000000000000000000000N 00000000000NCONT   00    00000000000          00000000000000000000000000000000000000000000 000000000000000A000000000000000000000000000000000000000000000 000000000000000000000000000000000000000     00000000                                                                                                                        000000000000000000
F0010000006552900001000080016665600013050500000000000000000201411270002001SUMICAL DE ANTIOQUIA S.A.S                        D000000054231600000000000000000000100010010000000000000000000000F0010000006552900120141127000101 00000000000000000000000000000000000000000000000000000000000000000000000000000000000000000000000000000000000000000N 00000000000NCONT   00    00000000000          00000000000000000000000000000000000000000000 000000000000000A000000000000000000000000000000000000000000000 000000000000000000000000000000000000000     00000000                                                                                                                        000000000000000000
F0010000006552900002000080016665600041450500000000000000000201411270002001SUMICAL DE ANTIOQUIA S.A.S                        C000000047070000000000000000000000100010010000000000000000000000F0010000006552900220141127000101 00000000000000000000000000000000000000000000000000000000000000000000000000000000000000000000000000000000000000000N 00000000000NCONT   00    00000000000          00000000000000000000000000000000000000000000 000000000000000A000000000000000000000000000000000000000000000 000000000000000000000000000000000000000     00000000                                                                                                                        000000000000000000
F0010000006552900003000080016665600042505000000000000000000201411270002001SUMICAL DE ANTIOQUIA S.A.S                        C000000007161600000000000000000000100010010000000000000000000000F0010000006552900320141127000101 00000000000000000000000000000000000000000000000000000000000000000000000000000000000000000000000000000000000000000N 00000000000NCONT   00    00000000000          00000000000000000000000000000000000000000000 000000000000000A000000000000000000000000000000000000000000000 000000000000000000000000000000000000000     00000000                                                                                                                        000000000000000000
F0010000006552900004000080016665600023658300000000000000000201411270002001SUMICAL DE ANTIOQUIA S.A.S                        C000000000376600000000000000000000100010010000000000000000000000F0010000006552900420141127000101 00000000000000000000000000000000000000000000000000000000000000000000000000000000000000000000000000000000000000000N 00000000000NCONT   00    00000000000          00000000000000000000000000000000000000000000 000000000000000A000000000000000000000000000000000000000000000 000000000000000000000000000000000000000     00000000                                                                                                                        000000000000000000
F0010000006552900005000080016665600013552100000000000000000201411270002001SUMICAL DE ANTIOQUIA S.A.S                        D000000000376600000000000000000000100010010000000000000000000000F0010000006552900520141127000101 00000000000000000000000000000000000000000000000000000000000000000000000000000000000000000000000000000000000000000N 00000000000NCONT   00    00000000000          00000000000000000000000000000000000000000000 000000000000000A000000000000000000000000000000000000000000000 000000000000000000000000000000000000000     00000000                                                                                                                        000000000000000000
F0010000006553000001000090009800500013050500000000000000000201411270002001GLORIANT CHEMICAL DE COLOMBIA LTDA                D000000022526000000000000000000000100010010000000000000000000000F0010000006553000120141127000101 00000000000000000000000000000000000000000000000000000000000000000000000000000000000000000000000000000000000000000N 00000000000NCONT   00    00000000000          00000000000000000000000000000000000000000000 000000000000000A000000000000000000000000000000000000000000000 000000000000000000000000000000000000000     00000000                                                                                                                        000000000000000000
F0010000006553000002000090009800500041450500000000000000000201411270002001GLORIANT CHEMICAL DE COLOMBIA LTDA                C000000019200000000000000000000000100010010000000000000000000000F0010000006553000220141127000101 00000000000000000000000000000000000000000000000000000000000000000000000000000000000000000000000000000000000000000N 00000000000NCONT   00    00000000000          00000000000000000000000000000000000000000000 000000000000000A000000000000000000000000000000000000000000000 000000000000000000000000000000000000000     00000000                                                                                                                        000000000000000000
F0010000006553000003000090009800500042505000000000000000000201411270002001GLORIANT CHEMICAL DE COLOMBIA LTDA                C000000003326000000000000000000000100010010000000000000000000000F0010000006553000320141127000101 00000000000000000000000000000000000000000000000000000000000000000000000000000000000000000000000000000000000000000N 00000000000NCONT   00    00000000000          00000000000000000000000000000000000000000000 000000000000000A000000000000000000000000000000000000000000000 000000000000000000000000000000000000000     00000000                                                                                                                        000000000000000000
F0010000006553000004000090009800500023658300000000000000000201411270002001GLORIANT CHEMICAL DE COLOMBIA LTDA                C000000000153600000000000000000000100010010000000000000000000000F0010000006553000420141127000101 00000000000000000000000000000000000000000000000000000000000000000000000000000000000000000000000000000000000000000N 00000000000NCONT   00    00000000000          00000000000000000000000000000000000000000000 000000000000000A000000000000000000000000000000000000000000000 000000000000000000000000000000000000000     00000000                                                                                                                        000000000000000000
F0010000006553000005000090009800500013552100000000000000000201411270002001GLORIANT CHEMICAL DE COLOMBIA LTDA                D000000000153600000000000000000000100010010000000000000000000000F0010000006553000520141127000101 00000000000000000000000000000000000000000000000000000000000000000000000000000000000000000000000000000000000000000N 00000000000NCONT   00    00000000000          00000000000000000000000000000000000000000000 000000000000000A000000000000000000000000000000000000000000000 000000000000000000000000000000000000000     00000000                                                                                                                        000000000000000000
F0010000006553100001000083001155300013050500000000000000000201411270002001COMERCIALIZADORA RUBEN S LTDA                     D000000017705200000000000000000000100010010000000000000000000000F0010000006553100120141127000101 00000000000000000000000000000000000000000000000000000000000000000000000000000000000000000000000000000000000000000N 00000000000NCONT   00    00000000000          00000000000000000000000000000000000000000000 000000000000000A000000000000000000000000000000000000000000000 000000000000000000000000000000000000000     00000000                                                                                                                        000000000000000000
F0010000006553100002000083001155300041450500000000000000000201411270002001COMERCIALIZADORA RUBEN S LTDA                     C000000015958800000000000000000000100010010000000000000000000000F0010000006553100220141127000101 00000000000000000000000000000000000000000000000000000000000000000000000000000000000000000000000000000000000000000N 00000000000NCONT   00    00000000000          00000000000000000000000000000000000000000000 000000000000000A000000000000000000000000000000000000000000000 000000000000000000000000000000000000000     00000000                                                                                                                        000000000000000000
F0010000006553100003000083001155300042505000000000000000000201411270002001COMERCIALIZADORA RUBEN S LTDA                     C000000001746400000000000000000000100010010000000000000000000000F0010000006553100320141127000101 00000000000000000000000000000000000000000000000000000000000000000000000000000000000000000000000000000000000000000N 00000000000NCONT   00    00000000000          00000000000000000000000000000000000000000000 000000000000000A000000000000000000000000000000000000000000000 000000000000000000000000000000000000000     00000000                                                                                                                        000000000000000000
F0010000006553100004000083001155300023658300000000000000000201411270002001COMERCIALIZADORA RUBEN S LTDA                     C000000000127700000000000000000000100010010000000000000000000000F0010000006553100420141127000101 00000000000000000000000000000000000000000000000000000000000000000000000000000000000000000000000000000000000000000N 00000000000NCONT   00    00000000000          00000000000000000000000000000000000000000000 000000000000000A000000000000000000000000000000000000000000000 000000000000000000000000000000000000000     00000000                                                                                                                        000000000000000000
F0010000006553100005000083001155300013552100000000000000000201411270002001COMERCIALIZADORA RUBEN S LTDA                     D000000000127700000000000000000000100010010000000000000000000000F0010000006553100520141127000101 00000000000000000000000000000000000000000000000000000000000000000000000000000000000000000000000000000000000000000N 00000000000NCONT   00    00000000000          00000000000000000000000000000000000000000000 000000000000000A000000000000000000000000000000000000000000000 000000000000000000000000000000000000000     00000000                                                                                                                        000000000000000000
F0010000006553200001000090064982900013050500000000000000000201411270002001DISDIES S.A.S                                     D000000039453600000000000000000000100010010000000000000000000000F0010000006553200120141127000101 00000000000000000000000000000000000000000000000000000000000000000000000000000000000000000000000000000000000000000N 00000000000NCONT   00    00000000000          00000000000000000000000000000000000000000000 000000000000000A000000000000000000000000000000000000000000000 000000000000000000000000000000000000000     00000000                                                                                                                        000000000000000000
F0010000006553200002000090064982900041450500000000000000000201411270002001DISDIES S.A.S                                     C000000034523800000000000000000000100010010000000000000000000000F0010000006553200220141127000101 00000000000000000000000000000000000000000000000000000000000000000000000000000000000000000000000000000000000000000N 00000000000NCONT   00    00000000000          00000000000000000000000000000000000000000000 000000000000000A000000000000000000000000000000000000000000000 000000000000000000000000000000000000000     00000000                                                                                                                        000000000000000000
F0010000006553200003000090064982900042505000000000000000000201411270002001DISDIES S.A.S                                     C000000004929800000000000000000000100010010000000000000000000000F0010000006553200320141127000101 00000000000000000000000000000000000000000000000000000000000000000000000000000000000000000000000000000000000000000N 00000000000NCONT   00    00000000000          00000000000000000000000000000000000000000000 000000000000000A000000000000000000000000000000000000000000000 000000000000000000000000000000000000000     00000000                                                                                                                        000000000000000000
F0010000006553200004000090064982900023658300000000000000000201411270002001DISDIES S.A.S                                     C000000000276200000000000000000000100010010000000000000000000000F0010000006553200420141127000101 00000000000000000000000000000000000000000000000000000000000000000000000000000000000000000000000000000000000000000N 00000000000NCONT   00    00000000000          00000000000000000000000000000000000000000000 000000000000000A000000000000000000000000000000000000000000000 000000000000000000000000000000000000000     00000000                                                                                                                        000000000000000000
F0010000006553200005000090064982900013552100000000000000000201411270002001DISDIES S.A.S                                     D000000000276200000000000000000000100010010000000000000000000000F0010000006553200520141127000101 00000000000000000000000000000000000000000000000000000000000000000000000000000000000000000000000000000000000000000N 00000000000NCONT   00    00000000000          00000000000000000000000000000000000000000000 000000000000000A000000000000000000000000000000000000000000000 000000000000000000000000000000000000000     00000000                                                                                                                        000000000000000000
F0010000006553300001000080004943800013050500000000000000000201411270002001PAPELERIA EL CID S.A.                             D000000050988500000000000000000000100010010000000000000000000000F0010000006553300120141127000101 00000000000000000000000000000000000000000000000000000000000000000000000000000000000000000000000000000000000000000N 00000000000NCONT   00    00000000000          00000000000000000000000000000000000000000000 000000000000000A000000000000000000000000000000000000000000000 000000000000000000000000000000000000000     00000000                                                                                                                        000000000000000000
F0010000006553300002000080004943800041450500000000000000000201411270002001PAPELERIA EL CID S.A.                             C000000046390000000000000000000000100010010000000000000000000000F0010000006553300220141127000101 00000000000000000000000000000000000000000000000000000000000000000000000000000000000000000000000000000000000000000N 00000000000NCONT   00    00000000000          00000000000000000000000000000000000000000000 000000000000000A000000000000000000000000000000000000000000000 000000000000000000000000000000000000000     00000000                                                                                                                        000000000000000000
F0010000006553300003000080004943800042505000000000000000000201411270002001PAPELERIA EL CID S.A.                             C000000004598500000000000000000000100010010000000000000000000000F0010000006553300320141127000101 00000000000000000000000000000000000000000000000000000000000000000000000000000000000000000000000000000000000000000N 00000000000NCONT   00    00000000000          00000000000000000000000000000000000000000000 000000000000000A000000000000000000000000000000000000000000000 000000000000000000000000000000000000000     00000000                                                                                                                        000000000000000000
F0010000006553300004000080004943800023658300000000000000000201411270002001PAPELERIA EL CID S.A.                             C000000000371100000000000000000000100010010000000000000000000000F0010000006553300420141127000101 00000000000000000000000000000000000000000000000000000000000000000000000000000000000000000000000000000000000000000N 00000000000NCONT   00    00000000000          00000000000000000000000000000000000000000000 000000000000000A000000000000000000000000000000000000000000000 000000000000000000000000000000000000000     00000000                                                                                                                        000000000000000000
F0010000006553300005000080004943800013552100000000000000000201411270002001PAPELERIA EL CID S.A.                             D000000000371100000000000000000000100010010000000000000000000000F0010000006553300520141127000101 00000000000000000000000000000000000000000000000000000000000000000000000000000000000000000000000000000000000000000N 00000000000NCONT   00    00000000000          00000000000000000000000000000000000000000000 000000000000000A000000000000000000000000000000000000000000000 000000000000000000000000000000000000000     00000000                                                                                                                        000000000000000000
F0010000006553400001000080202094000013050500000000000000000201411270002001DISTRIB. OMAR ORREGO S.A.                         D000000079601000000000000000000000100010010000000000000000000000F0010000006553400120141127000101 00000000000000000000000000000000000000000000000000000000000000000000000000000000000000000000000000000000000000000N 00000000000NCONT   00    00000000000          00000000000000000000000000000000000000000000 000000000000000A000000000000000000000000000000000000000000000 000000000000000000000000000000000000000     00000000                                                                                                                        000000000000000000
F0010000006553400002000080202094000041450500000000000000000201411270002001DISTRIB. OMAR ORREGO S.A.                         C000000045070000000000000000000000100010010000000000000000000000F0010000006553400220141127000101 00000000000000000000000000000000000000000000000000000000000000000000000000000000000000000000000000000000000000000N 00000000000NCONT   00    00000000000          00000000000000000000000000000000000000000000 000000000000000A000000000000000000000000000000000000000000000 000000000000000000000000000000000000000     00000000                                                                                                                        000000000000000000
F0010000006553400003000080202094000042505000000000000000000201411270002001DISTRIB. OMAR ORREGO S.A.                         C000000034531000000000000000000000100010010000000000000000000000F0010000006553400320141127000101 00000000000000000000000000000000000000000000000000000000000000000000000000000000000000000000000000000000000000000N 00000000000NCONT   00    00000000000          00000000000000000000000000000000000000000000 000000000000000A000000000000000000000000000000000000000000000 000000000000000000000000000000000000000     00000000                                                                                                                        000000000000000000
F0010000006553400004000080202094000023658300000000000000000201411270002001DISTRIB. OMAR ORREGO S.A.                         C000000000360600000000000000000000100010010000000000000000000000F0010000006553400420141127000101 00000000000000000000000000000000000000000000000000000000000000000000000000000000000000000000000000000000000000000N 00000000000NCONT   00    00000000000          00000000000000000000000000000000000000000000 000000000000000A000000000000000000000000000000000000000000000 000000000000000000000000000000000000000     00000000                                                                                                                        000000000000000000
F0010000006553400005000080202094000013552100000000000000000201411270002001DISTRIB. OMAR ORREGO S.A.                         D000000000360600000000000000000000100010010000000000000000000000F0010000006553400520141127000101 00000000000000000000000000000000000000000000000000000000000000000000000000000000000000000000000000000000000000000N 00000000000NCONT   00    00000000000          00000000000000000000000000000000000000000000 000000000000000A000000000000000000000000000000000000000000000 000000000000000000000000000000000000000     00000000                                                                                                                        000000000000000000
F0010000006553500001000080202094000013050500000000000000000201411270002001DISTRIB. OMAR ORREGO S.A.                         D000000077175400000000000000000000100010010000000000000000000000F0010000006553500120141127000101 00000000000000000000000000000000000000000000000000000000000000000000000000000000000000000000000000000000000000000N 00000000000NCONT   00    00000000000          00000000000000000000000000000000000000000000 000000000000000A000000000000000000000000000000000000000000000 000000000000000000000000000000000000000     00000000                                                                                                                        000000000000000000
F0010000006553500002000080202094000041450500000000000000000201411270002001DISTRIB. OMAR ORREGO S.A.                         C000000049880000000000000000000000100010010000000000000000000000F0010000006553500220141127000101 00000000000000000000000000000000000000000000000000000000000000000000000000000000000000000000000000000000000000000N 00000000000NCONT   00    00000000000          00000000000000000000000000000000000000000000 000000000000000A000000000000000000000000000000000000000000000 000000000000000000000000000000000000000     00000000                                                                                                                        000000000000000000
F0010000006553500003000080202094000042505000000000000000000201411270002001DISTRIB. OMAR ORREGO S.A.                         C000000027295400000000000000000000100010010000000000000000000000F0010000006553500320141127000101 00000000000000000000000000000000000000000000000000000000000000000000000000000000000000000000000000000000000000000N 00000000000NCONT   00    00000000000          00000000000000000000000000000000000000000000 000000000000000A000000000000000000000000000000000000000000000 000000000000000000000000000000000000000     00000000                                                                                                                        000000000000000000
F0010000006553500004000080202094000023658300000000000000000201411270002001DISTRIB. OMAR ORREGO S.A.                         C000000000399000000000000000000000100010010000000000000000000000F0010000006553500420141127000101 00000000000000000000000000000000000000000000000000000000000000000000000000000000000000000000000000000000000000000N 00000000000NCONT   00    00000000000          00000000000000000000000000000000000000000000 000000000000000A000000000000000000000000000000000000000000000 000000000000000000000000000000000000000     00000000                                                                                                                        000000000000000000
F0010000006553500005000080202094000013552100000000000000000201411270002001DISTRIB. OMAR ORREGO S.A.                         D000000000399000000000000000000000100010010000000000000000000000F0010000006553500520141127000101 00000000000000000000000000000000000000000000000000000000000000000000000000000000000000000000000000000000000000000N 00000000000NCONT   00    00000000000          00000000000000000000000000000000000000000000 000000000000000A000000000000000000000000000000000000000000000 000000000000000000000000000000000000000     00000000                                                                                                                        000000000000000000
F0010000006553600001000080202094000013050500000000000000000201411270002001DISTRIB. OMAR ORREGO S.A.                         D000000018524600000000000000000000100010010000000000000000000000F0010000006553600120141127000101 00000000000000000000000000000000000000000000000000000000000000000000000000000000000000000000000000000000000000000N 00000000000NCONT   00    00000000000          00000000000000000000000000000000000000000000 000000000000000A000000000000000000000000000000000000000000000 000000000000000000000000000000000000000     00000000                                                                                                                        000000000000000000
F0010000006553600002000080202094000041450500000000000000000201411270002001DISTRIB. OMAR ORREGO S.A.                         C000000011500000000000000000000000100010010000000000000000000000F0010000006553600220141127000101 00000000000000000000000000000000000000000000000000000000000000000000000000000000000000000000000000000000000000000N 00000000000NCONT   00    00000000000          00000000000000000000000000000000000000000000 000000000000000A000000000000000000000000000000000000000000000 000000000000000000000000000000000000000     00000000                                                                                                                        000000000000000000
F0010000006553600003000080202094000042505000000000000000000201411270002001DISTRIB. OMAR ORREGO S.A.                         C000000007024600000000000000000000100010010000000000000000000000F0010000006553600320141127000101 00000000000000000000000000000000000000000000000000000000000000000000000000000000000000000000000000000000000000000N 00000000000NCONT   00    00000000000          00000000000000000000000000000000000000000000 000000000000000A000000000000000000000000000000000000000000000 000000000000000000000000000000000000000     00000000                                                                                                                        000000000000000000
F0010000006553600004000080202094000023658300000000000000000201411270002001DISTRIB. OMAR ORREGO S.A.                         C000000000092000000000000000000000100010010000000000000000000000F0010000006553600420141127000101 00000000000000000000000000000000000000000000000000000000000000000000000000000000000000000000000000000000000000000N 00000000000NCONT   00    00000000000          00000000000000000000000000000000000000000000 000000000000000A000000000000000000000000000000000000000000000 000000000000000000000000000000000000000     00000000                                                                                                                        000000000000000000
F0010000006553600005000080202094000013552100000000000000000201411270002001DISTRIB. OMAR ORREGO S.A.                         D000000000092000000000000000000000100010010000000000000000000000F0010000006553600520141127000101 00000000000000000000000000000000000000000000000000000000000000000000000000000000000000000000000000000000000000000N 00000000000NCONT   00    00000000000          00000000000000000000000000000000000000000000 000000000000000A000000000000000000000000000000000000000000000 000000000000000000000000000000000000000     00000000                                                                                                                        000000000000000000
F0010000006553700001000080201112800013050500000000000000000201411270002001CANGURO INTERNATIONAL S.A.                        D000000124810500000000000000000000100010010000000000000000000000F0010000006553700120141127000101 00000000000000000000000000000000000000000000000000000000000000000000000000000000000000000000000000000000000000000N 00000000000NCONT   00    00000000000          00000000000000000000000000000000000000000000 000000000000000A000000000000000000000000000000000000000000000 000000000000000000000000000000000000000     00000000                                                                                                                        000000000000000000
F0010000006553700002000080201112800041450500000000000000000201411270002001CANGURO INTERNATIONAL S.A.                        C000000124715500000000000000000000100010010000000000000000000000F0010000006553700220141127000101 00000000000000000000000000000000000000000000000000000000000000000000000000000000000000000000000000000000000000000N 00000000000NCONT   00    00000000000          00000000000000000000000000000000000000000000 000000000000000A000000000000000000000000000000000000000000000 000000000000000000000000000000000000000     00000000                                                                                                                        000000000000000000
F0010000006553700003000080201112800042505000000000000000000201411270002001CANGURO INTERNATIONAL S.A.                        C000000000095000000000000000000000100010010000000000000000000000F0010000006553700320141127000101 00000000000000000000000000000000000000000000000000000000000000000000000000000000000000000000000000000000000000000N 00000000000NCONT   00    00000000000          00000000000000000000000000000000000000000000 000000000000000A000000000000000000000000000000000000000000000 000000000000000000000000000000000000000     00000000                                                                                                                        000000000000000000
F0010000006553700004000080201112800023658300000000000000000201411270002001CANGURO INTERNATIONAL S.A.                        C000000000997700000000000000000000100010010000000000000000000000F0010000006553700420141127000101 00000000000000000000000000000000000000000000000000000000000000000000000000000000000000000000000000000000000000000N 00000000000NCONT   00    00000000000          00000000000000000000000000000000000000000000 000000000000000A000000000000000000000000000000000000000000000 000000000000000000000000000000000000000     00000000                                                                                                                        000000000000000000
F0010000006553700005000080201112800013552100000000000000000201411270002001CANGURO INTERNATIONAL S.A.                        D000000000997700000000000000000000100010010000000000000000000000F0010000006553700520141127000101 00000000000000000000000000000000000000000000000000000000000000000000000000000000000000000000000000000000000000000N 00000000000NCONT   00    00000000000          00000000000000000000000000000000000000000000 000000000000000A000000000000000000000000000000000000000000000 000000000000000000000000000000000000000     00000000                                                                                                                        000000000000000000
F0010000006553800001000080201112800013050500000000000000000201411270002001CANGURO INTERNATIONAL S.A.                        D000000083821200000000000000000000100010010000000000000000000000F0010000006553800120141127000101 00000000000000000000000000000000000000000000000000000000000000000000000000000000000000000000000000000000000000000N 00000000000NCONT   00    00000000000          00000000000000000000000000000000000000000000 000000000000000A000000000000000000000000000000000000000000000 000000000000000000000000000000000000000     00000000                                                                                                                        000000000000000000
F0010000006553800002000080201112800041450500000000000000000201411270002001CANGURO INTERNATIONAL S.A.                        C000000083456900000000000000000000100010010000000000000000000000F0010000006553800220141127000101 00000000000000000000000000000000000000000000000000000000000000000000000000000000000000000000000000000000000000000N 00000000000NCONT   00    00000000000          00000000000000000000000000000000000000000000 000000000000000A000000000000000000000000000000000000000000000 000000000000000000000000000000000000000     00000000                                                                                                                        000000000000000000
F0010000006553800003000080201112800042505000000000000000000201411270002001CANGURO INTERNATIONAL S.A.                        C000000000364300000000000000000000100010010000000000000000000000F0010000006553800320141127000101 00000000000000000000000000000000000000000000000000000000000000000000000000000000000000000000000000000000000000000N 00000000000NCONT   00    00000000000          00000000000000000000000000000000000000000000 000000000000000A000000000000000000000000000000000000000000000 000000000000000000000000000000000000000     00000000                                                                                                                        000000000000000000
F0010000006553800004000080201112800023658300000000000000000201411270002001CANGURO INTERNATIONAL S.A.                        C000000000667700000000000000000000100010010000000000000000000000F0010000006553800420141127000101 00000000000000000000000000000000000000000000000000000000000000000000000000000000000000000000000000000000000000000N 00000000000NCONT   00    00000000000          00000000000000000000000000000000000000000000 000000000000000A000000000000000000000000000000000000000000000 000000000000000000000000000000000000000     00000000                                                                                                                        000000000000000000
F0010000006553800005000080201112800013552100000000000000000201411270002001CANGURO INTERNATIONAL S.A.                        D000000000667700000000000000000000100010010000000000000000000000F0010000006553800520141127000101 00000000000000000000000000000000000000000000000000000000000000000000000000000000000000000000000000000000000000000N 00000000000NCONT   00    00000000000          00000000000000000000000000000000000000000000 000000000000000A000000000000000000000000000000000000000000000 000000000000000000000000000000000000000     00000000                                                                                                                        000000000000000000
F0010000006553900001000080201112800013050500000000000000000201411270002001CANGURO INTERNATIONAL S.A.                        D000000084824700000000000000000000100010010000000000000000000000F0010000006553900120141127000101 00000000000000000000000000000000000000000000000000000000000000000000000000000000000000000000000000000000000000000N 00000000000NCONT   00    00000000000          00000000000000000000000000000000000000000000 000000000000000A000000000000000000000000000000000000000000000 000000000000000000000000000000000000000     00000000                                                                                                                        000000000000000000
F0010000006553900002000080201112800041450500000000000000000201411270002001CANGURO INTERNATIONAL S.A.                        C000000084573500000000000000000000100010010000000000000000000000F0010000006553900220141127000101 00000000000000000000000000000000000000000000000000000000000000000000000000000000000000000000000000000000000000000N 00000000000NCONT   00    00000000000          00000000000000000000000000000000000000000000 000000000000000A000000000000000000000000000000000000000000000 000000000000000000000000000000000000000     00000000                                                                                                                        000000000000000000
F0010000006553900003000080201112800042505000000000000000000201411270002001CANGURO INTERNATIONAL S.A.                        C000000000251200000000000000000000100010010000000000000000000000F0010000006553900320141127000101 00000000000000000000000000000000000000000000000000000000000000000000000000000000000000000000000000000000000000000N 00000000000NCONT   00    00000000000          00000000000000000000000000000000000000000000 000000000000000A000000000000000000000000000000000000000000000 000000000000000000000000000000000000000     00000000                                                                                                                        000000000000000000
F0010000006553900004000080201112800023658300000000000000000201411270002001CANGURO INTERNATIONAL S.A.                        C000000000676600000000000000000000100010010000000000000000000000F0010000006553900420141127000101 00000000000000000000000000000000000000000000000000000000000000000000000000000000000000000000000000000000000000000N 00000000000NCONT   00    00000000000          00000000000000000000000000000000000000000000 000000000000000A000000000000000000000000000000000000000000000 000000000000000000000000000000000000000     00000000                                                                                                                        000000000000000000
F0010000006553900005000080201112800013552100000000000000000201411270002001CANGURO INTERNATIONAL S.A.                        D000000000676600000000000000000000100010010000000000000000000000F0010000006553900520141127000101 00000000000000000000000000000000000000000000000000000000000000000000000000000000000000000000000000000000000000000N 00000000000NCONT   00    00000000000          00000000000000000000000000000000000000000000 000000000000000A000000000000000000000000000000000000000000000 000000000000000000000000000000000000000     00000000                                                                                                                        000000000000000000
F0010000006554000001000080202229600013050500000000000000000201411270002001MUNDIAL DE ABRASIVOS S.A                          D000000041133700000000000000000000100010010000000000000000000000F0010000006554000120141127000101 00000000000000000000000000000000000000000000000000000000000000000000000000000000000000000000000000000000000000000N 00000000000NCONT   00    00000000000          00000000000000000000000000000000000000000000 000000000000000A000000000000000000000000000000000000000000000 000000000000000000000000000000000000000     00000000                                                                                                                        000000000000000000
F0010000006554000002000080202229600041450500000000000000000201411270002001MUNDIAL DE ABRASIVOS S.A                          C000000034374300000000000000000000100010010000000000000000000000F0010000006554000220141127000101 00000000000000000000000000000000000000000000000000000000000000000000000000000000000000000000000000000000000000000N 00000000000NCONT   00    00000000000          00000000000000000000000000000000000000000000 000000000000000A000000000000000000000000000000000000000000000 000000000000000000000000000000000000000     00000000                                                                                                                        000000000000000000
F0010000006554000003000080202229600042505000000000000000000201411270002001MUNDIAL DE ABRASIVOS S.A                          C000000006759400000000000000000000100010010000000000000000000000F0010000006554000320141127000101 00000000000000000000000000000000000000000000000000000000000000000000000000000000000000000000000000000000000000000N 00000000000NCONT   00    00000000000          00000000000000000000000000000000000000000000 000000000000000A000000000000000000000000000000000000000000000 000000000000000000000000000000000000000     00000000                                                                                                                        000000000000000000
F0010000006554000004000080202229600023658300000000000000000201411270002001MUNDIAL DE ABRASIVOS S.A                          C000000000275000000000000000000000100010010000000000000000000000F0010000006554000420141127000101 00000000000000000000000000000000000000000000000000000000000000000000000000000000000000000000000000000000000000000N 00000000000NCONT   00    00000000000          00000000000000000000000000000000000000000000 000000000000000A000000000000000000000000000000000000000000000 000000000000000000000000000000000000000     00000000                                                                                                                        000000000000000000
F0010000006554000005000080202229600013552100000000000000000201411270002001MUNDIAL DE ABRASIVOS S.A                          D000000000275000000000000000000000100010010000000000000000000000F0010000006554000520141127000101 00000000000000000000000000000000000000000000000000000000000000000000000000000000000000000000000000000000000000000N 00000000000NCONT   00    00000000000          00000000000000000000000000000000000000000000 000000000000000A000000000000000000000000000000000000000000000 000000000000000000000000000000000000000     00000000                                                                                                                        000000000000000000
F0010000006554100001000080010983700013050500000000000000000201411270002001OHM LTDA                                          D000000023695000000000000000000000100010010000000000000000000000F0010000006554100120141127000101 00000000000000000000000000000000000000000000000000000000000000000000000000000000000000000000000000000000000000000N 00000000000NCONT   00    00000000000          00000000000000000000000000000000000000000000 000000000000000A000000000000000000000000000000000000000000000 000000000000000000000000000000000000000     00000000                                                                                                                        000000000000000000
F0010000006554100002000080010983700041450500000000000000000201411270002001OHM LTDA                                          C000000023380000000000000000000000100010010000000000000000000000F0010000006554100220141127000101 00000000000000000000000000000000000000000000000000000000000000000000000000000000000000000000000000000000000000000N 00000000000NCONT   00    00000000000          00000000000000000000000000000000000000000000 000000000000000A000000000000000000000000000000000000000000000 000000000000000000000000000000000000000     00000000                                                                                                                        000000000000000000
F0010000006554100003000080010983700042505000000000000000000201411270002001OHM LTDA                                          C000000000315000000000000000000000100010010000000000000000000000F0010000006554100320141127000101 00000000000000000000000000000000000000000000000000000000000000000000000000000000000000000000000000000000000000000N 00000000000NCONT   00    00000000000          00000000000000000000000000000000000000000000 000000000000000A000000000000000000000000000000000000000000000 000000000000000000000000000000000000000     00000000                                                                                                                        000000000000000000
F0010000006554100004000080010983700023658300000000000000000201411270002001OHM LTDA                                          C000000000187000000000000000000000100010010000000000000000000000F0010000006554100420141127000101 00000000000000000000000000000000000000000000000000000000000000000000000000000000000000000000000000000000000000000N 00000000000NCONT   00    00000000000          00000000000000000000000000000000000000000000 000000000000000A000000000000000000000000000000000000000000000 000000000000000000000000000000000000000     00000000                                                                                                                        000000000000000000
F0010000006554100005000080010983700013552100000000000000000201411270002001OHM LTDA                                          D000000000187000000000000000000000100010010000000000000000000000F0010000006554100520141127000101 00000000000000000000000000000000000000000000000000000000000000000000000000000000000000000000000000000000000000000N 00000000000NCONT   00    00000000000          00000000000000000000000000000000000000000000 000000000000000A000000000000000000000000000000000000000000000 000000000000000000000000000000000000000     00000000                                                                                                                        000000000000000000
F0010000006554200001000090053611800013050500000000000000000201411270002001PELETERIA COSTA CARIBE S.A .S                     D000000075650000000000000000000000100010010000000000000000000000F0010000006554200120141127000101 00000000000000000000000000000000000000000000000000000000000000000000000000000000000000000000000000000000000000000N 00000000000NCONT   00    00000000000          00000000000000000000000000000000000000000000 000000000000000A000000000000000000000000000000000000000000000 000000000000000000000000000000000000000     00000000                                                                                                                        000000000000000000
F0010000006554200002000090053611800041450500000000000000000201411270002001PELETERIA COSTA CARIBE S.A .S                     C000000059897900000000000000000000100010010000000000000000000000F0010000006554200220141127000101 00000000000000000000000000000000000000000000000000000000000000000000000000000000000000000000000000000000000000000N 00000000000NCONT   00    00000000000          00000000000000000000000000000000000000000000 000000000000000A000000000000000000000000000000000000000000000 000000000000000000000000000000000000000     00000000                                                                                                                        000000000000000000
F0010000006554200003000090053611800042505000000000000000000201411270002001PELETERIA COSTA CARIBE S.A .S                     C000000015752100000000000000000000100010010000000000000000000000F0010000006554200320141127000101 00000000000000000000000000000000000000000000000000000000000000000000000000000000000000000000000000000000000000000N 00000000000NCONT   00    00000000000          00000000000000000000000000000000000000000000 000000000000000A000000000000000000000000000000000000000000000 000000000000000000000000000000000000000     00000000                                                                                                                        000000000000000000
F0010000006554200004000090053611800023658300000000000000000201411270002001PELETERIA COSTA CARIBE S.A .S                     C000000000479200000000000000000000100010010000000000000000000000F0010000006554200420141127000101 00000000000000000000000000000000000000000000000000000000000000000000000000000000000000000000000000000000000000000N 00000000000NCONT   00    00000000000          00000000000000000000000000000000000000000000 000000000000000A000000000000000000000000000000000000000000000 000000000000000000000000000000000000000     00000000                                                                                                                        000000000000000000
F0010000006554200005000090053611800013552100000000000000000201411270002001PELETERIA COSTA CARIBE S.A .S                     D000000000479200000000000000000000100010010000000000000000000000F0010000006554200520141127000101 00000000000000000000000000000000000000000000000000000000000000000000000000000000000000000000000000000000000000000N 00000000000NCONT   00    00000000000          00000000000000000000000000000000000000000000 000000000000000A000000000000000000000000000000000000000000000 000000000000000000000000000000000000000     00000000                                                                                                                        000000000000000000
F0010000006554300001000090001973700013050500000000000000000201411270002001DISTRIBUIDORA Y PAPELERIA VENEPLAS LTDA           D000000012950000000000000000000000100010010000000000000000000000F0010000006554300120141127000101 00000000000000000000000000000000000000000000000000000000000000000000000000000000000000000000000000000000000000000N 00000000000NCONT   00    00000000000          00000000000000000000000000000000000000000000 000000000000000A000000000000000000000000000000000000000000000 000000000000000000000000000000000000000     00000000                                                                                                                        000000000000000000
F0010000006554300002000090001973700041450500000000000000000201411270002001DISTRIBUIDORA Y PAPELERIA VENEPLAS LTDA           C000000012000000000000000000000000100010010000000000000000000000F0010000006554300220141127000101 00000000000000000000000000000000000000000000000000000000000000000000000000000000000000000000000000000000000000000N 00000000000NCONT   00    00000000000          00000000000000000000000000000000000000000000 000000000000000A000000000000000000000000000000000000000000000 000000000000000000000000000000000000000     00000000                                                                                                                        000000000000000000
F0010000006554300003000090001973700042505000000000000000000201411270002001DISTRIBUIDORA Y PAPELERIA VENEPLAS LTDA           C000000000950000000000000000000000100010010000000000000000000000F0010000006554300320141127000101 00000000000000000000000000000000000000000000000000000000000000000000000000000000000000000000000000000000000000000N 00000000000NCONT   00    00000000000          00000000000000000000000000000000000000000000 000000000000000A000000000000000000000000000000000000000000000 000000000000000000000000000000000000000     00000000                                                                                                                        000000000000000000
F0010000006554300004000090001973700023658300000000000000000201411270002001DISTRIBUIDORA Y PAPELERIA VENEPLAS LTDA           C000000000096000000000000000000000100010010000000000000000000000F0010000006554300420141127000101 00000000000000000000000000000000000000000000000000000000000000000000000000000000000000000000000000000000000000000N 00000000000NCONT   00    00000000000          00000000000000000000000000000000000000000000 000000000000000A000000000000000000000000000000000000000000000 000000000000000000000000000000000000000     00000000                                                                                                                        000000000000000000
F0010000006554300005000090001973700013552100000000000000000201411270002001DISTRIBUIDORA Y PAPELERIA VENEPLAS LTDA           D000000000096000000000000000000000100010010000000000000000000000F0010000006554300520141127000101 00000000000000000000000000000000000000000000000000000000000000000000000000000000000000000000000000000000000000000N 00000000000NCONT   00    00000000000          00000000000000000000000000000000000000000000 000000000000000A000000000000000000000000000000000000000000000 000000000000000000000000000000000000000     00000000                                                                                                                        000000000000000000
F0010000006554400001000007221007700011050500000000000000000201411270002001LEANDRO POLO                                      D000000001600000000000000000000000100010010000000000000000000000F0010000006554400120141127000101 00000000000000000000000000000000000000000000000000000000000000000000000000000000000000000000000000000000000000000N 00000000000NCONT   00    00000000000          00000000000000000000000000000000000000000000 000000000000000A000000000000000000000000000000000000000000000 000000000000000000000000000000000000000     00000000                                                                                                                        000000000000000000
F0010000006554400002000007221007700041450500000000000000000201411270002001LEANDRO POLO                                      C000000001500000000000000000000000100010010000000000000000000000F0010000006554400220141127000101 00000000000000000000000000000000000000000000000000000000000000000000000000000000000000000000000000000000000000000N 00000000000NCONT   00    00000000000          00000000000000000000000000000000000000000000 000000000000000A000000000000000000000000000000000000000000000 000000000000000000000000000000000000000     00000000                                                                                                                        000000000000000000
F0010000006554400003000007221007700042505000000000000000000201411270002001LEANDRO POLO                                      C000000000100000000000000000000000100010010000000000000000000000F0010000006554400320141127000101 00000000000000000000000000000000000000000000000000000000000000000000000000000000000000000000000000000000000000000N 00000000000NCONT   00    00000000000          00000000000000000000000000000000000000000000 000000000000000A000000000000000000000000000000000000000000000 000000000000000000000000000000000000000     00000000                                                                                                                        000000000000000000
F0010000006554400004000007221007700023658300000000000000000201411270002001LEANDRO POLO                                      C000000000012000000000000000000000100010010000000000000000000000F0010000006554400420141127000101 00000000000000000000000000000000000000000000000000000000000000000000000000000000000000000000000000000000000000000N 00000000000NCONT   00    00000000000          00000000000000000000000000000000000000000000 000000000000000A000000000000000000000000000000000000000000000 000000000000000000000000000000000000000     00000000                                                                                                                        000000000000000000
F0010000006554400005000007221007700013552100000000000000000201411270002001LEANDRO POLO                                      D000000000012000000000000000000000100010010000000000000000000000F0010000006554400520141127000101 00000000000000000000000000000000000000000000000000000000000000000000000000000000000000000000000000000000000000000N 00000000000NCONT   00    00000000000          00000000000000000000000000000000000000000000 000000000000000A000000000000000000000000000000000000000000000 000000000000000000000000000000000000000     00000000                                                                                                                        000000000000000000
F0010000006554500001000007221007700011050500000000000000000201411270002001LEANDRO POLO                                      D000000003000000000000000000000000100010010000000000000000000000F0010000006554500120141127000101 00000000000000000000000000000000000000000000000000000000000000000000000000000000000000000000000000000000000000000N 00000000000NCONT   00    00000000000          00000000000000000000000000000000000000000000 000000000000000A000000000000000000000000000000000000000000000 000000000000000000000000000000000000000     00000000                                                                                                                        000000000000000000
F0010000006554500002000007221007700041450500000000000000000201411270002001LEANDRO POLO                                      C000000002900000000000000000000000100010010000000000000000000000F0010000006554500220141127000101 00000000000000000000000000000000000000000000000000000000000000000000000000000000000000000000000000000000000000000N 00000000000NCONT   00    00000000000          00000000000000000000000000000000000000000000 000000000000000A000000000000000000000000000000000000000000000 000000000000000000000000000000000000000     00000000                                                                                                                        000000000000000000
F0010000006554500003000007221007700042505000000000000000000201411270002001LEANDRO POLO                                      C000000000100000000000000000000000100010010000000000000000000000F0010000006554500320141127000101 00000000000000000000000000000000000000000000000000000000000000000000000000000000000000000000000000000000000000000N 00000000000NCONT   00    00000000000          00000000000000000000000000000000000000000000 000000000000000A000000000000000000000000000000000000000000000 000000000000000000000000000000000000000     00000000                                                                                                                        000000000000000000
F0010000006554500004000007221007700023658300000000000000000201411270002001LEANDRO POLO                                      C000000000023200000000000000000000100010010000000000000000000000F0010000006554500420141127000101 00000000000000000000000000000000000000000000000000000000000000000000000000000000000000000000000000000000000000000N 00000000000NCONT   00    00000000000          00000000000000000000000000000000000000000000 000000000000000A000000000000000000000000000000000000000000000 000000000000000000000000000000000000000     00000000                                                                                                                        000000000000000000
F0010000006554500005000007221007700013552100000000000000000201411270002001LEANDRO POLO                                      D000000000023200000000000000000000100010010000000000000000000000F0010000006554500520141127000101 00000000000000000000000000000000000000000000000000000000000000000000000000000000000000000000000000000000000000000N 00000000000NCONT   00    00000000000          00000000000000000000000000000000000000000000 000000000000000A000000000000000000000000000000000000000000000 000000000000000000000000000000000000000     00000000                                                                                                                        000000000000000000
F0010000006554600001000007215896800013050500000000000000000201411270002001EDDIER CIRO                                       D000000074682400000000000000000000100010010000000000000000000000F0010000006554600120141127000101 00000000000000000000000000000000000000000000000000000000000000000000000000000000000000000000000000000000000000000N 00000000000NCONT   00    00000000000          00000000000000000000000000000000000000000000 000000000000000A000000000000000000000000000000000000000000000 000000000000000000000000000000000000000     00000000                                                                                                                        000000000000000000
F0010000006554600002000007215896800041450500000000000000000201411270002001EDDIER CIRO                                       C000000061180000000000000000000000100010010000000000000000000000F0010000006554600220141127000101 00000000000000000000000000000000000000000000000000000000000000000000000000000000000000000000000000000000000000000N 00000000000NCONT   00    00000000000          00000000000000000000000000000000000000000000 000000000000000A000000000000000000000000000000000000000000000 000000000000000000000000000000000000000     00000000                                                                                                                        000000000000000000
F0010000006554600003000007215896800042505000000000000000000201411270002001EDDIER CIRO                                       C000000013502400000000000000000000100010010000000000000000000000F0010000006554600320141127000101 00000000000000000000000000000000000000000000000000000000000000000000000000000000000000000000000000000000000000000N 00000000000NCONT   00    00000000000          00000000000000000000000000000000000000000000 000000000000000A000000000000000000000000000000000000000000000 000000000000000000000000000000000000000     00000000                                                                                                                        000000000000000000
F0010000006554600004000007215896800023658300000000000000000201411270002001EDDIER CIRO                                       C000000000489400000000000000000000100010010000000000000000000000F0010000006554600420141127000101 00000000000000000000000000000000000000000000000000000000000000000000000000000000000000000000000000000000000000000N 00000000000NCONT   00    00000000000          00000000000000000000000000000000000000000000 000000000000000A000000000000000000000000000000000000000000000 000000000000000000000000000000000000000     00000000                                                                                                                        000000000000000000
F0010000006554600005000007215896800013552100000000000000000201411270002001EDDIER CIRO                                       D000000000489400000000000000000000100010010000000000000000000000F0010000006554600520141127000101 00000000000000000000000000000000000000000000000000000000000000000000000000000000000000000000000000000000000000000N 00000000000NCONT   00    00000000000          00000000000000000000000000000000000000000000 000000000000000A000000000000000000000000000000000000000000000 000000000000000000000000000000000000000     00000000                                                                                                                        000000000000000000
F0010000006554700001000007221007700011050500000000000000000201411270002001LEANDRO POLO                                      D000000001600000000000000000000000100010010000000000000000000000F0010000006554700120141127000101 00000000000000000000000000000000000000000000000000000000000000000000000000000000000000000000000000000000000000000N 00000000000NCONT   00    00000000000          00000000000000000000000000000000000000000000 000000000000000A000000000000000000000000000000000000000000000 000000000000000000000000000000000000000     00000000                                                                                                                        000000000000000000
F0010000006554700002000007221007700041450500000000000000000201411270002001LEANDRO POLO                                      C000000001500000000000000000000000100010010000000000000000000000F0010000006554700220141127000101 00000000000000000000000000000000000000000000000000000000000000000000000000000000000000000000000000000000000000000N 00000000000NCONT   00    00000000000          00000000000000000000000000000000000000000000 000000000000000A000000000000000000000000000000000000000000000 000000000000000000000000000000000000000     00000000                                                                                                                        000000000000000000
F0010000006554700003000007221007700042505000000000000000000201411270002001LEANDRO POLO                                      C000000000100000000000000000000000100010010000000000000000000000F0010000006554700320141127000101 00000000000000000000000000000000000000000000000000000000000000000000000000000000000000000000000000000000000000000N 00000000000NCONT   00    00000000000          00000000000000000000000000000000000000000000 000000000000000A000000000000000000000000000000000000000000000 000000000000000000000000000000000000000     00000000                                                                                                                        000000000000000000
F0010000006554700004000007221007700023658300000000000000000201411270002001LEANDRO POLO                                      C000000000012000000000000000000000100010010000000000000000000000F0010000006554700420141127000101 00000000000000000000000000000000000000000000000000000000000000000000000000000000000000000000000000000000000000000N 00000000000NCONT   00    00000000000          00000000000000000000000000000000000000000000 000000000000000A000000000000000000000000000000000000000000000 000000000000000000000000000000000000000     00000000                                                                                                                        000000000000000000
F0010000006554700005000007221007700013552100000000000000000201411270002001LEANDRO POLO                                      D000000000012000000000000000000000100010010000000000000000000000F0010000006554700520141127000101 00000000000000000000000000000000000000000000000000000000000000000000000000000000000000000000000000000000000000000N 00000000000NCONT   00    00000000000          00000000000000000000000000000000000000000000 000000000000000A000000000000000000000000000000000000000000000 000000000000000000000000000000000000000     00000000                                                                                                                        000000000000000000
F0010000006554800001000007221007700011050500000000000000000201411270002001LEANDRO POLO                                      D000000001600000000000000000000000100010010000000000000000000000F0010000006554800120141127000101 00000000000000000000000000000000000000000000000000000000000000000000000000000000000000000000000000000000000000000N 00000000000NCONT   00    00000000000          00000000000000000000000000000000000000000000 000000000000000A000000000000000000000000000000000000000000000 000000000000000000000000000000000000000     00000000                                                                                                                        000000000000000000
F0010000006554800002000007221007700041450500000000000000000201411270002001LEANDRO POLO                                      C000000001500000000000000000000000100010010000000000000000000000F0010000006554800220141127000101 00000000000000000000000000000000000000000000000000000000000000000000000000000000000000000000000000000000000000000N 00000000000NCONT   00    00000000000          00000000000000000000000000000000000000000000 000000000000000A000000000000000000000000000000000000000000000 000000000000000000000000000000000000000     00000000                                                                                                                        000000000000000000
F0010000006554800003000007221007700042505000000000000000000201411270002001LEANDRO POLO                                      C000000000100000000000000000000000100010010000000000000000000000F0010000006554800320141127000101 00000000000000000000000000000000000000000000000000000000000000000000000000000000000000000000000000000000000000000N 00000000000NCONT   00    00000000000          00000000000000000000000000000000000000000000 000000000000000A000000000000000000000000000000000000000000000 000000000000000000000000000000000000000     00000000                                                                                                                        000000000000000000
F0010000006554800004000007221007700023658300000000000000000201411270002001LEANDRO POLO                                      C000000000012000000000000000000000100010010000000000000000000000F0010000006554800420141127000101 00000000000000000000000000000000000000000000000000000000000000000000000000000000000000000000000000000000000000000N 00000000000NCONT   00    00000000000          00000000000000000000000000000000000000000000 000000000000000A000000000000000000000000000000000000000000000 000000000000000000000000000000000000000     00000000                                                                                                                        000000000000000000
F0010000006554800005000007221007700013552100000000000000000201411270002001LEANDRO POLO                                      D000000000012000000000000000000000100010010000000000000000000000F0010000006554800520141127000101 00000000000000000000000000000000000000000000000000000000000000000000000000000000000000000000000000000000000000000N 00000000000NCONT   00    00000000000          00000000000000000000000000000000000000000000 000000000000000A000000000000000000000000000000000000000000000 000000000000000000000000000000000000000     00000000                                                                                                                        000000000000000000
F0010000006554900001000080001063400013050500000000000000000201411270002001PRODUCTOS JULIAO SAS                              D000000104626500000000000000000000100010010000000000000000000000F0010000006554900120141127000101 00000000000000000000000000000000000000000000000000000000000000000000000000000000000000000000000000000000000000000N 00000000000NCONT   00    00000000000          00000000000000000000000000000000000000000000 000000000000000A000000000000000000000000000000000000000000000 000000000000000000000000000000000000000     00000000                                                                                                                        000000000000000000
F0010000006554900002000080001063400041450500000000000000000201411270002001PRODUCTOS JULIAO SAS                              C000000098700000000000000000000000100010010000000000000000000000F0010000006554900220141127000101 00000000000000000000000000000000000000000000000000000000000000000000000000000000000000000000000000000000000000000N 00000000000NCONT   00    00000000000          00000000000000000000000000000000000000000000 000000000000000A000000000000000000000000000000000000000000000 000000000000000000000000000000000000000     00000000                                                                                                                        000000000000000000
F0010000006554900003000080001063400042505000000000000000000201411270002001PRODUCTOS JULIAO SAS                              C000000005926500000000000000000000100010010000000000000000000000F0010000006554900320141127000101 00000000000000000000000000000000000000000000000000000000000000000000000000000000000000000000000000000000000000000N 00000000000NCONT   00    00000000000          00000000000000000000000000000000000000000000 000000000000000A000000000000000000000000000000000000000000000 000000000000000000000000000000000000000     00000000                                                                                                                        000000000000000000
F0010000006554900004000080001063400023658300000000000000000201411270002001PRODUCTOS JULIAO SAS                              C000000000789600000000000000000000100010010000000000000000000000F0010000006554900420141127000101 00000000000000000000000000000000000000000000000000000000000000000000000000000000000000000000000000000000000000000N 00000000000NCONT   00    00000000000          00000000000000000000000000000000000000000000 000000000000000A000000000000000000000000000000000000000000000 000000000000000000000000000000000000000     00000000                                                                                                                        000000000000000000
F0010000006554900005000080001063400013552100000000000000000201411270002001PRODUCTOS JULIAO SAS                              D000000000789600000000000000000000100010010000000000000000000000F0010000006554900520141127000101 00000000000000000000000000000000000000000000000000000000000000000000000000000000000000000000000000000000000000000N 00000000000NCONT   00    00000000000          00000000000000000000000000000000000000000000 000000000000000A000000000000000000000000000000000000000000000 000000000000000000000000000000000000000     00000000                                                                                                                        000000000000000000
F0010000006555000001000090038852800013050500000000000000000201411270002001EL COMERCIO ELECTRICO DE LA CO                    D000000033050000000000000000000000100010010000000000000000000000F0010000006555000120141127000101 00000000000000000000000000000000000000000000000000000000000000000000000000000000000000000000000000000000000000000N 00000000000NCONT   00    00000000000          00000000000000000000000000000000000000000000 000000000000000A000000000000000000000000000000000000000000000 000000000000000000000000000000000000000     00000000                                                                                                                        000000000000000000
F0010000006555000002000090038852800041450500000000000000000201411270002001EL COMERCIO ELECTRICO DE LA CO                    C000000022240000000000000000000000100010010000000000000000000000F0010000006555000220141127000101 00000000000000000000000000000000000000000000000000000000000000000000000000000000000000000000000000000000000000000N 00000000000NCONT   00    00000000000          00000000000000000000000000000000000000000000 000000000000000A000000000000000000000000000000000000000000000 000000000000000000000000000000000000000     00000000                                                                                                                        000000000000000000
F0010000006555000003000090038852800042505000000000000000000201411270002001EL COMERCIO ELECTRICO DE LA CO                    C000000010810000000000000000000000100010010000000000000000000000F0010000006555000320141127000101 00000000000000000000000000000000000000000000000000000000000000000000000000000000000000000000000000000000000000000N 00000000000NCONT   00    00000000000          00000000000000000000000000000000000000000000 000000000000000A000000000000000000000000000000000000000000000 000000000000000000000000000000000000000     00000000                                                                                                                        000000000000000000
F0010000006555000004000090038852800023658300000000000000000201411270002001EL COMERCIO ELECTRICO DE LA CO                    C000000000177900000000000000000000100010010000000000000000000000F0010000006555000420141127000101 00000000000000000000000000000000000000000000000000000000000000000000000000000000000000000000000000000000000000000N 00000000000NCONT   00    00000000000          00000000000000000000000000000000000000000000 000000000000000A000000000000000000000000000000000000000000000 000000000000000000000000000000000000000     00000000                                                                                                                        000000000000000000
F0010000006555000005000090038852800013552100000000000000000201411270002001EL COMERCIO ELECTRICO DE LA CO                    D000000000177900000000000000000000100010010000000000000000000000F0010000006555000520141127000101 00000000000000000000000000000000000000000000000000000000000000000000000000000000000000000000000000000000000000000N 00000000000NCONT   00    00000000000          00000000000000000000000000000000000000000000 000000000000000A000000000000000000000000000000000000000000000 000000000000000000000000000000000000000     00000000                                                                                                                        000000000000000000
F0010000006555100001000004175790100013050500000000000000000201411270002001ROSIRIS FERIA HOYOS  (COSM. SHILLER)              D000000005000000000000000000000000100010010000000000000000000000F0010000006555100120141127000101 00000000000000000000000000000000000000000000000000000000000000000000000000000000000000000000000000000000000000000N 00000000000NCONT   00    00000000000          00000000000000000000000000000000000000000000 000000000000000A000000000000000000000000000000000000000000000 000000000000000000000000000000000000000     00000000                                                                                                                        000000000000000000
F0010000006555100002000004175790100041450500000000000000000201411270002001ROSIRIS FERIA HOYOS  (COSM. SHILLER)              C000000003900000000000000000000000100010010000000000000000000000F0010000006555100220141127000101 00000000000000000000000000000000000000000000000000000000000000000000000000000000000000000000000000000000000000000N 00000000000NCONT   00    00000000000          00000000000000000000000000000000000000000000 000000000000000A000000000000000000000000000000000000000000000 000000000000000000000000000000000000000     00000000                                                                                                                        000000000000000000
